{
	"contracts/Market.sol": {
		"Market": {
			"abi": [
				{
					"inputs": [
						{
							"internalType": "bytes32",
							"name": "event_",
							"type": "bytes32"
						}
					],
					"stateMutability": "nonpayable",
					"type": "constructor"
				},
				{
					"anonymous": false,
					"inputs": [
						{
							"indexed": false,
							"internalType": "address",
							"name": "better",
							"type": "address"
						},
						{
							"indexed": false,
							"internalType": "address",
							"name": "marketAddr",
							"type": "address"
						},
						{
							"indexed": false,
							"internalType": "bytes32",
							"name": "hash",
							"type": "bytes32"
						},
						{
							"indexed": false,
							"internalType": "uint256",
							"name": "stake",
							"type": "uint256"
						},
						{
							"indexed": false,
							"internalType": "uint256",
							"name": "odds",
							"type": "uint256"
						},
						{
							"indexed": false,
							"internalType": "uint256",
							"name": "side",
							"type": "uint256"
						}
					],
					"name": "BetCreated",
					"type": "event"
				},
				{
					"anonymous": false,
					"inputs": [
						{
							"indexed": false,
							"internalType": "address",
							"name": "beneficiary",
							"type": "address"
						},
						{
							"indexed": false,
							"internalType": "uint256",
							"name": "value",
							"type": "uint256"
						}
					],
					"name": "Withdraw",
					"type": "event"
				},
				{
					"inputs": [
						{
							"internalType": "address",
							"name": "_affiliate",
							"type": "address"
						},
						{
							"internalType": "uint256",
							"name": "_stake",
							"type": "uint256"
						},
						{
							"internalType": "uint256",
							"name": "_odds",
							"type": "uint256"
						},
						{
							"internalType": "uint256",
							"name": "_side",
							"type": "uint256"
						},
						{
							"internalType": "bool",
							"name": "_instant",
							"type": "bool"
						}
					],
					"name": "addBet",
					"outputs": [
						{
							"internalType": "bytes32",
							"name": "",
							"type": "bytes32"
						}
					],
					"stateMutability": "nonpayable",
					"type": "function"
				},
				{
					"inputs": [],
					"name": "cancel",
					"outputs": [
						{
							"internalType": "bool",
							"name": "",
							"type": "bool"
						}
					],
					"stateMutability": "nonpayable",
					"type": "function"
				},
				{
					"inputs": [
						{
							"internalType": "bytes32",
							"name": "_bet",
							"type": "bytes32"
						}
					],
					"name": "cancelBet",
					"outputs": [],
					"stateMutability": "nonpayable",
					"type": "function"
				},
				{
					"inputs": [],
					"name": "cancelPlusPairs",
					"outputs": [
						{
							"internalType": "bool",
							"name": "",
							"type": "bool"
						}
					],
					"stateMutability": "nonpayable",
					"type": "function"
				},
				{
					"inputs": [
						{
							"internalType": "address",
							"name": "_user",
							"type": "address"
						}
					],
					"name": "getBalance",
					"outputs": [
						{
							"internalType": "uint256",
							"name": "",
							"type": "uint256"
						}
					],
					"stateMutability": "view",
					"type": "function"
				},
				{
					"inputs": [
						{
							"internalType": "bytes32",
							"name": "_bet",
							"type": "bytes32"
						}
					],
					"name": "getBet",
					"outputs": [
						{
							"components": [
								{
									"internalType": "address",
									"name": "better",
									"type": "address"
								},
								{
									"internalType": "address",
									"name": "affiliate",
									"type": "address"
								},
								{
									"internalType": "uint256",
									"name": "stake",
									"type": "uint256"
								},
								{
									"internalType": "uint256",
									"name": "matched",
									"type": "uint256"
								},
								{
									"internalType": "uint256",
									"name": "odds",
									"type": "uint256"
								},
								{
									"internalType": "uint256",
									"name": "side",
									"type": "uint256"
								}
							],
							"internalType": "struct Struct.MarketBet",
							"name": "",
							"type": "tuple"
						}
					],
					"stateMutability": "view",
					"type": "function"
				},
				{
					"inputs": [
						{
							"internalType": "bytes32",
							"name": "_bet",
							"type": "bytes32"
						}
					],
					"name": "getBetPairs",
					"outputs": [
						{
							"internalType": "bytes32[]",
							"name": "",
							"type": "bytes32[]"
						}
					],
					"stateMutability": "view",
					"type": "function"
				},
				{
					"inputs": [],
					"name": "getBets",
					"outputs": [
						{
							"internalType": "bytes32[]",
							"name": "",
							"type": "bytes32[]"
						}
					],
					"stateMutability": "view",
					"type": "function"
				},
				{
					"inputs": [
						{
							"internalType": "bytes32",
							"name": "_pair",
							"type": "bytes32"
						}
					],
					"name": "getPair",
					"outputs": [
						{
							"components": [
								{
									"internalType": "bytes32",
									"name": "betHashA",
									"type": "bytes32"
								},
								{
									"internalType": "bytes32",
									"name": "betHashB",
									"type": "bytes32"
								},
								{
									"internalType": "uint256",
									"name": "amountA",
									"type": "uint256"
								},
								{
									"internalType": "uint256",
									"name": "amountB",
									"type": "uint256"
								},
								{
									"internalType": "bool",
									"name": "settled",
									"type": "bool"
								}
							],
							"internalType": "struct Struct.MarketPair",
							"name": "",
							"type": "tuple"
						}
					],
					"stateMutability": "view",
					"type": "function"
				},
				{
					"inputs": [],
					"name": "getPairs",
					"outputs": [
						{
							"internalType": "bytes32[]",
							"name": "",
							"type": "bytes32[]"
						}
					],
					"stateMutability": "view",
					"type": "function"
				},
				{
					"inputs": [
						{
							"internalType": "address",
							"name": "_user",
							"type": "address"
						}
					],
					"name": "getUserBets",
					"outputs": [
						{
							"internalType": "bytes32[]",
							"name": "",
							"type": "bytes32[]"
						}
					],
					"stateMutability": "view",
					"type": "function"
				},
				{
					"inputs": [
						{
							"internalType": "uint256",
							"name": "_winningSide",
							"type": "uint256"
						}
					],
					"name": "setWinningSide",
					"outputs": [
						{
							"internalType": "bool",
							"name": "",
							"type": "bool"
						}
					],
					"stateMutability": "nonpayable",
					"type": "function"
				},
				{
					"inputs": [
						{
							"internalType": "uint256",
							"name": "_winningSide",
							"type": "uint256"
						}
					],
					"name": "settle",
					"outputs": [
						{
							"internalType": "bool",
							"name": "",
							"type": "bool"
						}
					],
					"stateMutability": "nonpayable",
					"type": "function"
				},
				{
					"inputs": [
						{
							"internalType": "bytes32",
							"name": "_bet",
							"type": "bytes32"
						}
					],
					"name": "settleBet",
					"outputs": [],
					"stateMutability": "nonpayable",
					"type": "function"
				},
				{
					"inputs": [],
					"name": "status",
					"outputs": [
						{
							"internalType": "uint256",
							"name": "",
							"type": "uint256"
						}
					],
					"stateMutability": "view",
					"type": "function"
				},
				{
					"inputs": [],
					"name": "stopNewBet",
					"outputs": [
						{
							"internalType": "bool",
							"name": "",
							"type": "bool"
						}
					],
					"stateMutability": "nonpayable",
					"type": "function"
				},
				{
					"inputs": [
						{
							"internalType": "address",
							"name": "_user",
							"type": "address"
						}
					],
					"name": "withdraw",
					"outputs": [
						{
							"internalType": "bool",
							"name": "",
							"type": "bool"
						}
					],
					"stateMutability": "nonpayable",
					"type": "function"
				},
				{
					"inputs": [
						{
							"internalType": "bytes32",
							"name": "_bet",
							"type": "bytes32"
						}
					],
					"name": "withdrawPending",
					"outputs": [],
					"stateMutability": "nonpayable",
					"type": "function"
				}
			],
			"devdoc": {
				"kind": "dev",
				"methods": {
					"cancelBet(bytes32)": {
						"details": "cancel all pairs in `_bet`, "
					},
					"getBalance(address)": {
						"details": "Returns the amount of tokens owned by `_user` in this market."
					},
					"getBet(bytes32)": {
						"details": "Returns details of `_bet`."
					},
					"getBetPairs(bytes32)": {
						"details": "Returns hash IDs of all the bets placed by `_user`."
					},
					"getBets()": {
						"details": "Returns details of `_bet`."
					},
					"getPair(bytes32)": {
						"details": "Returns details of `_bet`."
					},
					"getPairs()": {
						"details": "Returns details of `_bet`."
					},
					"getUserBets(address)": {
						"details": "Returns hash IDs of all the bets placed by `_user`."
					},
					"setWinningSide(uint256)": {
						"details": "assign `_winningSide` to `status` "
					},
					"settle(uint256)": {
						"details": "assign `_winningSide` to `status` "
					},
					"settleBet(bytes32)": {
						"details": "settle all pairs in `_bet`, "
					},
					"withdraw(address)": {
						"details": "transfer bal[`_user`] to `_user`, bal"
					},
					"withdrawPending(bytes32)": {
						"details": "refund all unmatched stake in `_bet`, and withraw for caller address"
					}
				},
				"version": 1
			},
			"evm": {
				"assembly": "    /* \"contracts/Market.sol\":194:15570  contract Market is IMarket, ReentrancyGuard {... */\n  mstore(0x40, 0xa0)\n    /* \"contracts/Market.sol\":306:355  IWeb3BetsFO private app = IWeb3BetsFO(msg.sender) */\n  0x0b\n  dup1\n  sload\n  not(sub(shl(0xa0, 0x01), 0x01))\n  and\n    /* \"contracts/Market.sol\":344:354  msg.sender */\n  caller\n    /* \"contracts/Market.sol\":306:355  IWeb3BetsFO private app = IWeb3BetsFO(msg.sender) */\n  or\n  swap1\n  sstore\n    /* \"contracts/Market.sol\":1443:1811  constructor(bytes32 event_) {... */\n  callvalue\n  dup1\n  iszero\n  tag_1\n  jumpi\n  0x00\n  dup1\n  revert\ntag_1:\n  pop\n  mload(0x40)\n  sub(codesize, bytecodeSize)\n  dup1\n  bytecodeSize\n  dup4\n  codecopy\n  dup2\n  add\n  0x40\n  dup2\n  swap1\n  mstore\n  tag_2\n  swap2\n  tag_3\n  jump\t// in\ntag_2:\n    /* \"@openzeppelin/contracts/security/ReentrancyGuard.sol\":1701:1702  1 */\n  0x01\n    /* \"@openzeppelin/contracts/security/ReentrancyGuard.sol\":1806:1813  _status */\n  0x00\n    /* \"@openzeppelin/contracts/security/ReentrancyGuard.sol\":1806:1828  _status = _NOT_ENTERED */\n  sstore\n    /* \"contracts/Market.sol\":1485:1766  Struct.App(... */\n  0x40\n  dup1\n  mload\n  0x0140\n  dup2\n  add\n  dup3\n  mstore\n  dup3\n  dup2\n  mstore\n    /* \"contracts/Market.sol\":1529:1539  msg.sender */\n  caller\n    /* \"contracts/Market.sol\":1485:1766  Struct.App(... */\n  0x20\n  dup3\n  add\n  mstore\n    /* \"contracts/Market.sol\":1553:1556  app */\n  sload(0x0b)\n    /* \"contracts/Market.sol\":1553:1578  app.getEventOwner(event_) */\n  dup3\n  mload\n  shl(0xe3, 0x1e558333)\n  dup2\n  mstore\n  0x04\n  dup2\n  add\n    /* \"#utility.yul\":873:898   */\n  dup6\n  swap1\n  mstore\n    /* \"contracts/Market.sol\":1485:1766  Struct.App(... */\n  swap2\n  swap3\n  dup4\n  add\n  swap2\n  sub(shl(0xa0, 0x01), 0x01)\n    /* \"contracts/Market.sol\":1553:1556  app */\n  swap1\n  swap2\n  and\n  swap1\n    /* \"contracts/Market.sol\":1553:1570  app.getEventOwner */\n  0xf2ac1998\n  swap1\n    /* \"#utility.yul\":846:864   */\n  0x24\n  add\n    /* \"contracts/Market.sol\":1553:1578  app.getEventOwner(event_) */\n  0x20\n  mload(0x40)\n  dup1\n  dup4\n  sub\n  dup2\n  dup7\n  dup1\n  extcodesize\n  iszero\n  dup1\n  iszero\n  tag_10\n  jumpi\n  0x00\n  dup1\n  revert\ntag_10:\n  pop\n  gas\n  staticcall\n  iszero\n  dup1\n  iszero\n  tag_12\n  jumpi\n  returndatasize\n  0x00\n  dup1\n  returndatacopy\n  revert(0x00, returndatasize)\ntag_12:\n  pop\n  pop\n  pop\n  pop\n  mload(0x40)\n  returndatasize\n  not(0x1f)\n  0x1f\n  dup3\n  add\n  and\n  dup3\n  add\n  dup1\n  0x40\n  mstore\n  pop\n  dup2\n  add\n  swap1\n  tag_13\n  swap2\n  swap1\n  tag_14\n  jump\t// in\ntag_13:\n  sub(shl(0xa0, 0x01), 0x01)\n    /* \"contracts/Market.sol\":1485:1766  Struct.App(... */\n  and\n  dup2\n  mstore\n  0x20\n  add\n    /* \"contracts/Market.sol\":1592:1595  app */\n  0x0b\n  0x00\n  swap1\n  sload\n  swap1\n  0x0100\n  exp\n  swap1\n  div\n  sub(shl(0xa0, 0x01), 0x01)\n  and\n  sub(shl(0xa0, 0x01), 0x01)\n    /* \"contracts/Market.sol\":1592:1604  app.holdAddr */\n  and\n  0xb7640a54\n    /* \"contracts/Market.sol\":1592:1606  app.holdAddr() */\n  mload(0x40)\n  dup2\n  0xffffffff\n  and\n  0xe0\n  shl\n  dup2\n  mstore\n  0x04\n  add\n  0x20\n  mload(0x40)\n  dup1\n  dup4\n  sub\n  dup2\n  dup7\n  dup1\n  extcodesize\n  iszero\n  dup1\n  iszero\n  tag_15\n  jumpi\n  0x00\n  dup1\n  revert\ntag_15:\n  pop\n  gas\n  staticcall\n  iszero\n  dup1\n  iszero\n  tag_17\n  jumpi\n  returndatasize\n  0x00\n  dup1\n  returndatacopy\n  revert(0x00, returndatasize)\ntag_17:\n  pop\n  pop\n  pop\n  pop\n  mload(0x40)\n  returndatasize\n  not(0x1f)\n  0x1f\n  dup3\n  add\n  and\n  dup3\n  add\n  dup1\n  0x40\n  mstore\n  pop\n  dup2\n  add\n  swap1\n  tag_18\n  swap2\n  swap1\n  tag_14\n  jump\t// in\ntag_18:\n  sub(shl(0xa0, 0x01), 0x01)\n    /* \"contracts/Market.sol\":1485:1766  Struct.App(... */\n  and\n  dup2\n  mstore\n  0x20\n  add\n    /* \"contracts/Market.sol\":1620:1623  app */\n  0x0b\n  0x00\n  swap1\n  sload\n  swap1\n  0x0100\n  exp\n  swap1\n  div\n  sub(shl(0xa0, 0x01), 0x01)\n  and\n  sub(shl(0xa0, 0x01), 0x01)\n    /* \"contracts/Market.sol\":1620:1631  app.ecoAddr */\n  and\n  0x09953b2f\n    /* \"contracts/Market.sol\":1620:1633  app.ecoAddr() */\n  mload(0x40)\n  dup2\n  0xffffffff\n  and\n  0xe0\n  shl\n  dup2\n  mstore\n  0x04\n  add\n  0x20\n  mload(0x40)\n  dup1\n  dup4\n  sub\n  dup2\n  dup7\n  dup1\n  extcodesize\n  iszero\n  dup1\n  iszero\n  tag_19\n  jumpi\n  0x00\n  dup1\n  revert\ntag_19:\n  pop\n  gas\n  staticcall\n  iszero\n  dup1\n  iszero\n  tag_21\n  jumpi\n  returndatasize\n  0x00\n  dup1\n  returndatacopy\n  revert(0x00, returndatasize)\ntag_21:\n  pop\n  pop\n  pop\n  pop\n  mload(0x40)\n  returndatasize\n  not(0x1f)\n  0x1f\n  dup3\n  add\n  and\n  dup3\n  add\n  dup1\n  0x40\n  mstore\n  pop\n  dup2\n  add\n  swap1\n  tag_22\n  swap2\n  swap1\n  tag_14\n  jump\t// in\ntag_22:\n  sub(shl(0xa0, 0x01), 0x01)\n    /* \"contracts/Market.sol\":1485:1766  Struct.App(... */\n  and\n  dup2\n  mstore\n  0x20\n  add\n    /* \"contracts/Market.sol\":1647:1650  app */\n  0x0b\n  0x00\n  swap1\n  sload\n  swap1\n  0x0100\n  exp\n  swap1\n  div\n  sub(shl(0xa0, 0x01), 0x01)\n  and\n  sub(shl(0xa0, 0x01), 0x01)\n    /* \"contracts/Market.sol\":1647:1659  app.minStake */\n  and\n  0x375b3c0a\n    /* \"contracts/Market.sol\":1647:1661  app.minStake() */\n  mload(0x40)\n  dup2\n  0xffffffff\n  and\n  0xe0\n  shl\n  dup2\n  mstore\n  0x04\n  add\n  0x20\n  mload(0x40)\n  dup1\n  dup4\n  sub\n  dup2\n  dup7\n  dup1\n  extcodesize\n  iszero\n  dup1\n  iszero\n  tag_23\n  jumpi\n  0x00\n  dup1\n  revert\ntag_23:\n  pop\n  gas\n  staticcall\n  iszero\n  dup1\n  iszero\n  tag_25\n  jumpi\n  returndatasize\n  0x00\n  dup1\n  returndatacopy\n  revert(0x00, returndatasize)\ntag_25:\n  pop\n  pop\n  pop\n  pop\n  mload(0x40)\n  returndatasize\n  not(0x1f)\n  0x1f\n  dup3\n  add\n  and\n  dup3\n  add\n  dup1\n  0x40\n  mstore\n  pop\n  dup2\n  add\n  swap1\n  tag_26\n  swap2\n  swap1\n  tag_3\n  jump\t// in\ntag_26:\n    /* \"contracts/Market.sol\":1485:1766  Struct.App(... */\n  dup2\n  mstore\n    /* \"contracts/Market.sol\":1675:1678  app */\n  sload(0x0b)\n    /* \"contracts/Market.sol\":1675:1684  app.vig() */\n  0x40\n  dup1\n  mload\n  shl(0xe0, 0x55c4a8bf)\n  dup2\n  mstore\n  swap1\n  mload\n    /* \"contracts/Market.sol\":1485:1766  Struct.App(... */\n  0x20\n  swap4\n  dup5\n  add\n  swap4\n  sub(shl(0xa0, 0x01), 0x01)\n    /* \"contracts/Market.sol\":1675:1678  app */\n  swap1\n  swap4\n  and\n  swap3\n    /* \"contracts/Market.sol\":1675:1682  app.vig */\n  0x55c4a8bf\n  swap3\n    /* \"contracts/Market.sol\":1675:1684  app.vig() */\n  0x04\n  dup1\n  dup3\n  add\n  swap4\n  swap2\n  dup3\n  swap1\n  sub\n  add\n  dup2\n    /* \"contracts/Market.sol\":1675:1678  app */\n  dup7\n    /* \"contracts/Market.sol\":1675:1684  app.vig() */\n  dup1\n  extcodesize\n  iszero\n  dup1\n  iszero\n  tag_28\n  jumpi\n  0x00\n  dup1\n  revert\ntag_28:\n  pop\n  gas\n  staticcall\n  iszero\n  dup1\n  iszero\n  tag_30\n  jumpi\n  returndatasize\n  0x00\n  dup1\n  returndatacopy\n  revert(0x00, returndatasize)\ntag_30:\n  pop\n  pop\n  pop\n  pop\n  mload(0x40)\n  returndatasize\n  not(0x1f)\n  0x1f\n  dup3\n  add\n  and\n  dup3\n  add\n  dup1\n  0x40\n  mstore\n  pop\n  dup2\n  add\n  swap1\n  tag_31\n  swap2\n  swap1\n  tag_3\n  jump\t// in\ntag_31:\n    /* \"contracts/Market.sol\":1485:1766  Struct.App(... */\n  dup2\n  mstore\n    /* \"contracts/Market.sol\":1698:1701  app */\n  sload(0x0b)\n    /* \"contracts/Market.sol\":1698:1708  app.aVig() */\n  0x40\n  dup1\n  mload\n  shl(0xe2, 0x15334697)\n  dup2\n  mstore\n  swap1\n  mload\n    /* \"contracts/Market.sol\":1485:1766  Struct.App(... */\n  0x20\n  swap4\n  dup5\n  add\n  swap4\n  sub(shl(0xa0, 0x01), 0x01)\n    /* \"contracts/Market.sol\":1698:1701  app */\n  swap1\n  swap4\n  and\n  swap3\n    /* \"contracts/Market.sol\":1698:1706  app.aVig */\n  0x54cd1a5c\n  swap3\n    /* \"contracts/Market.sol\":1698:1708  app.aVig() */\n  0x04\n  dup1\n  dup3\n  add\n  swap4\n  swap2\n  dup3\n  swap1\n  sub\n  add\n  dup2\n    /* \"contracts/Market.sol\":1698:1701  app */\n  dup7\n    /* \"contracts/Market.sol\":1698:1708  app.aVig() */\n  dup1\n  extcodesize\n  iszero\n  dup1\n  iszero\n  tag_32\n  jumpi\n  0x00\n  dup1\n  revert\ntag_32:\n  pop\n  gas\n  staticcall\n  iszero\n  dup1\n  iszero\n  tag_34\n  jumpi\n  returndatasize\n  0x00\n  dup1\n  returndatacopy\n  revert(0x00, returndatasize)\ntag_34:\n  pop\n  pop\n  pop\n  pop\n  mload(0x40)\n  returndatasize\n  not(0x1f)\n  0x1f\n  dup3\n  add\n  and\n  dup3\n  add\n  dup1\n  0x40\n  mstore\n  pop\n  dup2\n  add\n  swap1\n  tag_35\n  swap2\n  swap1\n  tag_3\n  jump\t// in\ntag_35:\n    /* \"contracts/Market.sol\":1485:1766  Struct.App(... */\n  dup2\n  mstore\n    /* \"contracts/Market.sol\":1722:1725  app */\n  sload(0x0b)\n    /* \"contracts/Market.sol\":1722:1732  app.eVig() */\n  0x40\n  dup1\n  mload\n  shl(0xe0, 0x28576d45)\n  dup2\n  mstore\n  swap1\n  mload\n    /* \"contracts/Market.sol\":1485:1766  Struct.App(... */\n  0x20\n  swap4\n  dup5\n  add\n  swap4\n  sub(shl(0xa0, 0x01), 0x01)\n    /* \"contracts/Market.sol\":1722:1725  app */\n  swap1\n  swap4\n  and\n  swap3\n    /* \"contracts/Market.sol\":1722:1730  app.eVig */\n  0x28576d45\n  swap3\n    /* \"contracts/Market.sol\":1722:1732  app.eVig() */\n  0x04\n  dup1\n  dup3\n  add\n  swap4\n  swap2\n  dup3\n  swap1\n  sub\n  add\n  dup2\n    /* \"contracts/Market.sol\":1722:1725  app */\n  dup7\n    /* \"contracts/Market.sol\":1722:1732  app.eVig() */\n  dup1\n  extcodesize\n  iszero\n  dup1\n  iszero\n  tag_36\n  jumpi\n  0x00\n  dup1\n  revert\ntag_36:\n  pop\n  gas\n  staticcall\n  iszero\n  dup1\n  iszero\n  tag_38\n  jumpi\n  returndatasize\n  0x00\n  dup1\n  returndatacopy\n  revert(0x00, returndatasize)\ntag_38:\n  pop\n  pop\n  pop\n  pop\n  mload(0x40)\n  returndatasize\n  not(0x1f)\n  0x1f\n  dup3\n  add\n  and\n  dup3\n  add\n  dup1\n  0x40\n  mstore\n  pop\n  dup2\n  add\n  swap1\n  tag_39\n  swap2\n  swap1\n  tag_3\n  jump\t// in\ntag_39:\n    /* \"contracts/Market.sol\":1485:1766  Struct.App(... */\n  dup2\n  mstore\n    /* \"contracts/Market.sol\":1746:1749  app */\n  sload(0x0b)\n    /* \"contracts/Market.sol\":1746:1756  app.hVig() */\n  0x40\n  dup1\n  mload\n  shl(0xe0, 0x6a0ccd9d)\n  dup2\n  mstore\n  swap1\n  mload\n    /* \"contracts/Market.sol\":1485:1766  Struct.App(... */\n  0x20\n  swap4\n  dup5\n  add\n  swap4\n  sub(shl(0xa0, 0x01), 0x01)\n    /* \"contracts/Market.sol\":1746:1749  app */\n  swap1\n  swap4\n  and\n  swap3\n    /* \"contracts/Market.sol\":1746:1754  app.hVig */\n  0x6a0ccd9d\n  swap3\n    /* \"contracts/Market.sol\":1746:1756  app.hVig() */\n  0x04\n  dup1\n  dup3\n  add\n  swap4\n  swap2\n  dup3\n  swap1\n  sub\n  add\n  dup2\n    /* \"contracts/Market.sol\":1746:1749  app */\n  dup7\n    /* \"contracts/Market.sol\":1746:1756  app.hVig() */\n  dup1\n  extcodesize\n  iszero\n  dup1\n  iszero\n  tag_40\n  jumpi\n  0x00\n  dup1\n  revert\ntag_40:\n  pop\n  gas\n  staticcall\n  iszero\n  dup1\n  iszero\n  tag_42\n  jumpi\n  returndatasize\n  0x00\n  dup1\n  returndatacopy\n  revert(0x00, returndatasize)\ntag_42:\n  pop\n  pop\n  pop\n  pop\n  mload(0x40)\n  returndatasize\n  not(0x1f)\n  0x1f\n  dup3\n  add\n  and\n  dup3\n  add\n  dup1\n  0x40\n  mstore\n  pop\n  dup2\n  add\n  swap1\n  tag_43\n  swap2\n  swap1\n  tag_3\n  jump\t// in\ntag_43:\n    /* \"contracts/Market.sol\":1485:1766  Struct.App(... */\n  swap1\n  mstore\n    /* \"contracts/Market.sol\":1481:1766  a = Struct.App(... */\n  dup1\n  mload\n    /* \"contracts/Market.sol\":1481:1482  a */\n  0x01\n    /* \"contracts/Market.sol\":1481:1766  a = Struct.App(... */\n  sstore\n  0x20\n  dup1\n  dup3\n  add\n  mload\n  0x02\n  dup1\n  sload\n  not(sub(shl(0xa0, 0x01), 0x01))\n  swap1\n  dup2\n  and\n  sub(shl(0xa0, 0x01), 0x01)\n  swap4\n  dup5\n  and\n  or\n  swap1\n  swap2\n  sstore\n  0x40\n  dup1\n  dup6\n  add\n  mload\n  0x03\n  dup1\n  sload\n  dup5\n  and\n  swap2\n  dup6\n  and\n  swap2\n  swap1\n  swap2\n  or\n  swap1\n  sstore\n  0x60\n  dup6\n  add\n  mload\n  0x04\n  dup1\n  sload\n  dup5\n  and\n  swap2\n  dup6\n  and\n  swap2\n  swap1\n  swap2\n  or\n  dup2\n  sstore\n  0x80\n  dup7\n  add\n  mload\n  0x05\n  dup1\n  sload\n  swap1\n  swap5\n  and\n  swap1\n  dup6\n  and\n  or\n  swap1\n  swap3\n  sstore\n  0xa0\n  dup6\n  add\n  mload\n  0x06\n  sstore\n  0xc0\n  dup6\n  add\n  mload\n  0x07\n  sstore\n  0xe0\n  dup6\n  add\n  mload\n  0x08\n  sstore\n  0x0100\n  dup6\n  add\n  mload\n  0x09\n  sstore\n  0x0120\n  swap1\n  swap5\n  add\n  mload\n  0x0a\n  sstore\n    /* \"contracts/Market.sol\":1791:1794  app */\n  sload(0x0b)\n    /* \"contracts/Market.sol\":1791:1803  app.scAddr() */\n  dup5\n  mload\n  shl(0xe3, 0x966ed9)\n  dup2\n  mstore\n  swap5\n  mload\n    /* \"contracts/Market.sol\":1791:1794  app */\n  swap3\n  and\n  swap4\n    /* \"contracts/Market.sol\":1791:1801  app.scAddr */\n  0x04b376c8\n  swap4\n    /* \"contracts/Market.sol\":1791:1803  app.scAddr() */\n  dup2\n  dup4\n  add\n  swap4\n    /* \"contracts/Market.sol\":1481:1766  a = Struct.App(... */\n  swap1\n  swap3\n    /* \"contracts/Market.sol\":1791:1803  app.scAddr() */\n  swap1\n  swap2\n  dup3\n  swap1\n  sub\n  add\n  dup2\n    /* \"contracts/Market.sol\":1791:1794  app */\n  dup7\n    /* \"contracts/Market.sol\":1791:1803  app.scAddr() */\n  dup1\n  extcodesize\n  iszero\n  dup1\n  iszero\n  tag_44\n  jumpi\n  0x00\n  dup1\n  revert\ntag_44:\n  pop\n  gas\n  staticcall\n  iszero\n  dup1\n  iszero\n  tag_46\n  jumpi\n  returndatasize\n  0x00\n  dup1\n  returndatacopy\n  revert(0x00, returndatasize)\ntag_46:\n  pop\n  pop\n  pop\n  pop\n  mload(0x40)\n  returndatasize\n  not(0x1f)\n  0x1f\n  dup3\n  add\n  and\n  dup3\n  add\n  dup1\n  0x40\n  mstore\n  pop\n  dup2\n  add\n  swap1\n  tag_47\n  swap2\n  swap1\n  tag_14\n  jump\t// in\ntag_47:\n    /* \"contracts/Market.sol\":1776:1804  token = IERC20(app.scAddr()) */\n  0x60\n  shl\n  not(sub(shl(0x60, 0x01), 0x01))\n  and\n  0x80\n  mstore\n  pop\n    /* \"contracts/Market.sol\":194:15570  contract Market is IMarket, ReentrancyGuard {... */\n  jump(tag_49)\n    /* \"#utility.yul\":14:324   */\ntag_14:\n    /* \"#utility.yul\":84:90   */\n  0x00\n    /* \"#utility.yul\":137:139   */\n  0x20\n    /* \"#utility.yul\":125:134   */\n  dup3\n    /* \"#utility.yul\":116:123   */\n  dup5\n    /* \"#utility.yul\":112:135   */\n  sub\n    /* \"#utility.yul\":108:140   */\n  slt\n    /* \"#utility.yul\":105:107   */\n  iszero\n  tag_51\n  jumpi\n    /* \"#utility.yul\":158:164   */\n  dup1\n    /* \"#utility.yul\":150:156   */\n  dup2\n    /* \"#utility.yul\":143:165   */\n  revert\n    /* \"#utility.yul\":105:107   */\ntag_51:\n    /* \"#utility.yul\":189:205   */\n  dup2\n  mload\n  sub(shl(0xa0, 0x01), 0x01)\n    /* \"#utility.yul\":234:265   */\n  dup2\n  and\n    /* \"#utility.yul\":224:266   */\n  dup2\n  eq\n    /* \"#utility.yul\":214:216   */\n  tag_52\n  jumpi\n    /* \"#utility.yul\":285:291   */\n  dup2\n    /* \"#utility.yul\":277:283   */\n  dup3\n    /* \"#utility.yul\":270:292   */\n  revert\n    /* \"#utility.yul\":214:216   */\ntag_52:\n    /* \"#utility.yul\":313:318   */\n  swap4\n    /* \"#utility.yul\":95:324   */\n  swap3\n  pop\n  pop\n  pop\n  jump\t// out\n    /* \"#utility.yul\":329:523   */\ntag_3:\n    /* \"#utility.yul\":399:405   */\n  0x00\n    /* \"#utility.yul\":452:454   */\n  0x20\n    /* \"#utility.yul\":440:449   */\n  dup3\n    /* \"#utility.yul\":431:438   */\n  dup5\n    /* \"#utility.yul\":427:450   */\n  sub\n    /* \"#utility.yul\":423:455   */\n  slt\n    /* \"#utility.yul\":420:422   */\n  iszero\n  tag_54\n  jumpi\n    /* \"#utility.yul\":473:479   */\n  dup1\n    /* \"#utility.yul\":465:471   */\n  dup2\n    /* \"#utility.yul\":458:480   */\n  revert\n    /* \"#utility.yul\":420:422   */\ntag_54:\n  pop\n    /* \"#utility.yul\":501:517   */\n  mload\n  swap2\n    /* \"#utility.yul\":410:523   */\n  swap1\n  pop\n  jump\t// out\n    /* \"#utility.yul\":828:904   */\ntag_49:\n    /* \"contracts/Market.sol\":194:15570  contract Market is IMarket, ReentrancyGuard {... */\n  shr(0x60, mload(0x80))\n  codecopy(0x00, dataOffset(sub_0), dataSize(sub_0))\n  0x00\n  assignImmutable(\"0xe7fcf89c34605f23590ff58513f1080dc375dd06cc5e256320151057827a258a\")\n  return(0x00, dataSize(sub_0))\nstop\n\nsub_0: assembly {\n        /* \"contracts/Market.sol\":194:15570  contract Market is IMarket, ReentrancyGuard {... */\n      mstore(0x40, 0x80)\n      callvalue\n      dup1\n      iszero\n      tag_1\n      jumpi\n      0x00\n      dup1\n      revert\n    tag_1:\n      pop\n      jumpi(tag_2, lt(calldatasize, 0x04))\n      shr(0xe0, calldataload(0x00))\n      dup1\n      0x7d7f9232\n      gt\n      tag_21\n      jumpi\n      dup1\n      0xb8e5303d\n      gt\n      tag_22\n      jumpi\n      dup1\n      0xb8e5303d\n      eq\n      tag_16\n      jumpi\n      dup1\n      0xba8006c6\n      eq\n      tag_17\n      jumpi\n      dup1\n      0xd0ed7295\n      eq\n      tag_18\n      jumpi\n      dup1\n      0xea8a1af0\n      eq\n      tag_19\n      jumpi\n      dup1\n      0xf8b2cb4f\n      eq\n      tag_20\n      jumpi\n      0x00\n      dup1\n      revert\n    tag_22:\n      dup1\n      0x7d7f9232\n      eq\n      tag_12\n      jumpi\n      dup1\n      0x8df82800\n      eq\n      tag_13\n      jumpi\n      dup1\n      0xa6afd5fd\n      eq\n      tag_14\n      jumpi\n      dup1\n      0xae8cd090\n      eq\n      tag_15\n      jumpi\n      0x00\n      dup1\n      revert\n    tag_21:\n      dup1\n      0x37e8c09e\n      gt\n      tag_23\n      jumpi\n      dup1\n      0x37e8c09e\n      eq\n      tag_7\n      jumpi\n      dup1\n      0x51cff8d9\n      eq\n      tag_8\n      jumpi\n      dup1\n      0x675f6537\n      eq\n      tag_9\n      jumpi\n      dup1\n      0x6bef0267\n      eq\n      tag_10\n      jumpi\n      dup1\n      0x767eb5ef\n      eq\n      tag_11\n      jumpi\n      0x00\n      dup1\n      revert\n    tag_23:\n      dup1\n      0x200d2ed2\n      eq\n      tag_3\n      jumpi\n      dup1\n      0x25c22a45\n      eq\n      tag_4\n      jumpi\n      dup1\n      0x2940ff1e\n      eq\n      tag_5\n      jumpi\n      dup1\n      0x2d56657d\n      eq\n      tag_6\n      jumpi\n    tag_2:\n      0x00\n      dup1\n      revert\n        /* \"contracts/Market.sol\":473:503  uint256 public override status */\n    tag_3:\n      tag_24\n      sload(0x0c)\n      dup2\n      jump\n    tag_24:\n      mload(0x40)\n        /* \"#utility.yul\":5512:5537   */\n      swap1\n      dup2\n      mstore\n        /* \"#utility.yul\":5500:5502   */\n      0x20\n        /* \"#utility.yul\":5485:5503   */\n      add\n        /* \"contracts/Market.sol\":473:503  uint256 public override status */\n    tag_26:\n      mload(0x40)\n      dup1\n      swap2\n      sub\n      swap1\n      return\n        /* \"contracts/Market.sol\":2677:2813  function getBetPairs(bytes32 _bet) ... */\n    tag_4:\n      tag_28\n      tag_29\n      calldatasize\n      0x04\n      tag_30\n      jump\t// in\n    tag_29:\n      tag_31\n      jump\t// in\n    tag_28:\n      mload(0x40)\n      tag_26\n      swap2\n      swap1\n      tag_33\n      jump\t// in\n        /* \"contracts/Market.sol\":4200:4434  function cancelBet(bytes32 _bet) external override {... */\n    tag_5:\n      tag_34\n      tag_35\n      calldatasize\n      0x04\n      tag_30\n      jump\t// in\n    tag_35:\n      tag_36\n      jump\t// in\n    tag_34:\n      stop\n        /* \"contracts/Market.sol\":2098:2236  function getUserBets(address _user) ... */\n    tag_6:\n      tag_28\n      tag_38\n      calldatasize\n      0x04\n      tag_39\n      jump\t// in\n    tag_38:\n      tag_40\n      jump\t// in\n        /* \"contracts/Market.sol\":2455:2593  function getBet(bytes32 _bet) ... */\n    tag_7:\n      tag_42\n      tag_43\n      calldatasize\n      0x04\n      tag_30\n      jump\t// in\n    tag_43:\n      tag_44\n      jump\t// in\n    tag_42:\n      mload(0x40)\n      tag_26\n      swap2\n      swap1\n        /* \"#utility.yul\":10227:10240   */\n      dup2\n      mload\n      sub(shl(0xa0, 0x01), 0x01)\n        /* \"#utility.yul\":10223:10245   */\n      swap1\n      dup2\n      and\n        /* \"#utility.yul\":10205:10246   */\n      dup3\n      mstore\n        /* \"#utility.yul\":10306:10310   */\n      0x20\n        /* \"#utility.yul\":10294:10311   */\n      dup1\n      dup5\n      add\n        /* \"#utility.yul\":10288:10312   */\n      mload\n        /* \"#utility.yul\":10284:10317   */\n      swap1\n      swap2\n      and\n        /* \"#utility.yul\":10262:10282   */\n      swap1\n      dup3\n      add\n        /* \"#utility.yul\":10255:10318   */\n      mstore\n        /* \"#utility.yul\":10374:10378   */\n      0x40\n        /* \"#utility.yul\":10362:10379   */\n      dup1\n      dup4\n      add\n        /* \"#utility.yul\":10356:10380   */\n      mload\n        /* \"#utility.yul\":10334:10354   */\n      swap1\n      dup3\n      add\n        /* \"#utility.yul\":10327:10381   */\n      mstore\n        /* \"#utility.yul\":10437:10441   */\n      0x60\n        /* \"#utility.yul\":10425:10442   */\n      dup1\n      dup4\n      add\n        /* \"#utility.yul\":10419:10443   */\n      mload\n        /* \"#utility.yul\":10397:10417   */\n      swap1\n      dup3\n      add\n        /* \"#utility.yul\":10390:10444   */\n      mstore\n        /* \"#utility.yul\":10500:10504   */\n      0x80\n        /* \"#utility.yul\":10488:10505   */\n      dup1\n      dup4\n      add\n        /* \"#utility.yul\":10482:10506   */\n      mload\n        /* \"#utility.yul\":10460:10480   */\n      swap1\n      dup3\n      add\n        /* \"#utility.yul\":10453:10507   */\n      mstore\n        /* \"#utility.yul\":10185:10188   */\n      0xa0\n        /* \"#utility.yul\":10551:10568   */\n      swap2\n      dup3\n      add\n        /* \"#utility.yul\":10545:10569   */\n      mload\n        /* \"#utility.yul\":10523:10543   */\n      swap2\n      dup2\n      add\n        /* \"#utility.yul\":10516:10570   */\n      swap2\n      swap1\n      swap2\n      mstore\n        /* \"#utility.yul\":10154:10157   */\n      0xc0\n        /* \"#utility.yul\":10139:10158   */\n      add\n      swap1\n        /* \"#utility.yul\":10121:10576   */\n      jump\n        /* \"contracts/Market.sol\":3238:3664  function withdraw(address _user) public override nonReentrant returns(bool) {... */\n    tag_8:\n      tag_47\n      tag_48\n      calldatasize\n      0x04\n      tag_39\n      jump\t// in\n    tag_48:\n      tag_49\n      jump\t// in\n    tag_47:\n      mload(0x40)\n        /* \"#utility.yul\":5339:5353   */\n      swap1\n      iszero\n        /* \"#utility.yul\":5332:5354   */\n      iszero\n        /* \"#utility.yul\":5314:5355   */\n      dup2\n      mstore\n        /* \"#utility.yul\":5302:5304   */\n      0x20\n        /* \"#utility.yul\":5287:5305   */\n      add\n        /* \"contracts/Market.sol\":3238:3664  function withdraw(address _user) public override nonReentrant returns(bool) {... */\n      tag_26\n        /* \"#utility.yul\":5269:5361   */\n      jump\n        /* \"contracts/Market.sol\":4495:4815  function settleBet(bytes32 _bet) external override {... */\n    tag_9:\n      tag_34\n      tag_53\n      calldatasize\n      0x04\n      tag_30\n      jump\t// in\n    tag_53:\n      tag_54\n      jump\t// in\n        /* \"contracts/Market.sol\":6418:6625  function stopNewBet() external override onlyFactory returns(bool){... */\n    tag_10:\n      tag_47\n      tag_56\n      jump\t// in\n        /* \"contracts/Market.sol\":2872:2975  function getPairs() external view override returns(bytes32[] memory) ... */\n    tag_11:\n      tag_28\n      tag_59\n      jump\t// in\n        /* \"contracts/Market.sol\":3767:4139  function withdrawPending(bytes32 _bet) public override {... */\n    tag_12:\n      tag_34\n      tag_62\n      calldatasize\n      0x04\n      tag_30\n      jump\t// in\n    tag_62:\n      tag_63\n      jump\t// in\n        /* \"contracts/Market.sol\":5381:5792  function settle(uint256 _winningSide)... */\n    tag_13:\n      tag_47\n      tag_65\n      calldatasize\n      0x04\n      tag_30\n      jump\t// in\n    tag_65:\n      tag_67\n      jump\t// in\n        /* \"contracts/Market.sol\":2295:2396  function getBets() external view override returns(bytes32[] memory) ... */\n    tag_14:\n      tag_28\n      tag_70\n      jump\t// in\n        /* \"contracts/Market.sol\":6029:6412  function cancelPlusPairs() external override onlyFactory returns(bool) ... */\n    tag_15:\n      tag_47\n      tag_73\n      jump\t// in\n        /* \"contracts/Market.sol\":3034:3168  function getPair(bytes32 _pair) external view override returns(Struct.MarketPair memory) ... */\n    tag_16:\n      tag_75\n      tag_76\n      calldatasize\n      0x04\n      tag_30\n      jump\t// in\n    tag_76:\n      0x40\n      dup1\n      mload\n      0xa0\n      dup2\n      add\n      dup3\n      mstore\n      0x00\n      dup1\n      dup3\n      mstore\n      0x20\n      dup3\n      add\n      dup2\n      swap1\n      mstore\n      swap2\n      dup2\n      add\n      dup3\n      swap1\n      mstore\n      0x60\n      dup2\n      add\n      dup3\n      swap1\n      mstore\n      0x80\n      dup2\n      add\n      swap2\n      swap1\n      swap2\n      mstore\n      pop\n        /* \"contracts/Market.sol\":3145:3161  pairsInfo[_pair] */\n      0x00\n      swap1\n      dup2\n      mstore\n        /* \"contracts/Market.sol\":3145:3154  pairsInfo */\n      0x13\n        /* \"contracts/Market.sol\":3145:3161  pairsInfo[_pair] */\n      0x20\n      swap1\n      dup2\n      mstore\n      0x40\n      swap2\n      dup3\n      swap1\n      keccak256\n        /* \"contracts/Market.sol\":3138:3161  return pairsInfo[_pair] */\n      dup3\n      mload\n      0xa0\n      dup2\n      add\n      dup5\n      mstore\n      dup2\n      sload\n      dup2\n      mstore\n      0x01\n      dup3\n      add\n      sload\n      swap3\n      dup2\n      add\n      swap3\n      swap1\n      swap3\n      mstore\n      0x02\n      dup2\n      add\n      sload\n      swap3\n      dup3\n      add\n      swap3\n      swap1\n      swap3\n      mstore\n      0x03\n      dup3\n      add\n      sload\n      0x60\n      dup3\n      add\n      mstore\n      0x04\n      swap1\n      swap2\n      add\n      sload\n      0xff\n      and\n      iszero\n      iszero\n      0x80\n      dup3\n      add\n      mstore\n      swap1\n        /* \"contracts/Market.sol\":3034:3168  function getPair(bytes32 _pair) external view override returns(Struct.MarketPair memory) ... */\n      jump\n    tag_75:\n      mload(0x40)\n      tag_26\n      swap2\n      swap1\n        /* \"#utility.yul\":10729:10733   */\n      0x00\n        /* \"#utility.yul\":10771:10774   */\n      0xa0\n        /* \"#utility.yul\":10760:10769   */\n      dup3\n        /* \"#utility.yul\":10756:10775   */\n      add\n        /* \"#utility.yul\":10748:10775   */\n      swap1\n      pop\n        /* \"#utility.yul\":10808:10814   */\n      dup3\n        /* \"#utility.yul\":10802:10815   */\n      mload\n        /* \"#utility.yul\":10791:10800   */\n      dup3\n        /* \"#utility.yul\":10784:10816   */\n      mstore\n        /* \"#utility.yul\":10872:10876   */\n      0x20\n        /* \"#utility.yul\":10864:10870   */\n      dup4\n        /* \"#utility.yul\":10860:10877   */\n      add\n        /* \"#utility.yul\":10854:10878   */\n      mload\n        /* \"#utility.yul\":10847:10851   */\n      0x20\n        /* \"#utility.yul\":10836:10845   */\n      dup4\n        /* \"#utility.yul\":10832:10852   */\n      add\n        /* \"#utility.yul\":10825:10879   */\n      mstore\n        /* \"#utility.yul\":10935:10939   */\n      0x40\n        /* \"#utility.yul\":10927:10933   */\n      dup4\n        /* \"#utility.yul\":10923:10940   */\n      add\n        /* \"#utility.yul\":10917:10941   */\n      mload\n        /* \"#utility.yul\":10910:10914   */\n      0x40\n        /* \"#utility.yul\":10899:10908   */\n      dup4\n        /* \"#utility.yul\":10895:10915   */\n      add\n        /* \"#utility.yul\":10888:10942   */\n      mstore\n        /* \"#utility.yul\":10998:11002   */\n      0x60\n        /* \"#utility.yul\":10990:10996   */\n      dup4\n        /* \"#utility.yul\":10986:11003   */\n      add\n        /* \"#utility.yul\":10980:11004   */\n      mload\n        /* \"#utility.yul\":10973:10977   */\n      0x60\n        /* \"#utility.yul\":10962:10971   */\n      dup4\n        /* \"#utility.yul\":10958:10978   */\n      add\n        /* \"#utility.yul\":10951:11005   */\n      mstore\n        /* \"#utility.yul\":11075:11079   */\n      0x80\n        /* \"#utility.yul\":11067:11073   */\n      dup4\n        /* \"#utility.yul\":11063:11080   */\n      add\n        /* \"#utility.yul\":11057:11081   */\n      mload\n        /* \"#utility.yul\":11050:11082   */\n      iszero\n        /* \"#utility.yul\":11043:11083   */\n      iszero\n        /* \"#utility.yul\":11036:11040   */\n      0x80\n        /* \"#utility.yul\":11025:11034   */\n      dup4\n        /* \"#utility.yul\":11021:11041   */\n      add\n        /* \"#utility.yul\":11014:11084   */\n      mstore\n        /* \"#utility.yul\":10738:11090   */\n      swap3\n      swap2\n      pop\n      pop\n      jump\n        /* \"contracts/Market.sol\":6631:9371  function addBet(... */\n    tag_17:\n      tag_24\n      tag_81\n      calldatasize\n      0x04\n      tag_82\n      jump\t// in\n    tag_81:\n      tag_83\n      jump\t// in\n        /* \"contracts/Market.sol\":4882:5314  function setWinningSide(uint256 _winningSide)... */\n    tag_18:\n      tag_47\n      tag_87\n      calldatasize\n      0x04\n      tag_30\n      jump\t// in\n    tag_87:\n      tag_88\n      jump\t// in\n        /* \"contracts/Market.sol\":5798:6023  function cancel() external override onlyFactory returns(bool) ... */\n    tag_19:\n      tag_47\n      tag_91\n      jump\t// in\n        /* \"contracts/Market.sol\":1905:2014  function getBalance(address _user) external view override returns(uint256) {... */\n    tag_20:\n      tag_24\n      tag_94\n      calldatasize\n      0x04\n      tag_39\n      jump\t// in\n    tag_94:\n      sub(shl(0xa0, 0x01), 0x01)\n        /* \"contracts/Market.sol\":1997:2007  bal[_user] */\n      and\n        /* \"contracts/Market.sol\":1971:1978  uint256 */\n      0x00\n        /* \"contracts/Market.sol\":1997:2007  bal[_user] */\n      swap1\n      dup2\n      mstore\n        /* \"contracts/Market.sol\":1997:2000  bal */\n      0x0d\n        /* \"contracts/Market.sol\":1997:2007  bal[_user] */\n      0x20\n      mstore\n      0x40\n      swap1\n      keccak256\n      sload\n      swap1\n        /* \"contracts/Market.sol\":1905:2014  function getBalance(address _user) external view override returns(uint256) {... */\n      jump\n        /* \"contracts/Market.sol\":2677:2813  function getBetPairs(bytes32 _bet) ... */\n    tag_31:\n        /* \"contracts/Market.sol\":2792:2806  betPairs[_bet] */\n      0x00\n      dup2\n      dup2\n      mstore\n        /* \"contracts/Market.sol\":2792:2800  betPairs */\n      0x12\n        /* \"contracts/Market.sol\":2792:2806  betPairs[_bet] */\n      0x20\n      swap1\n      dup2\n      mstore\n      0x40\n      swap2\n      dup3\n      swap1\n      keccak256\n        /* \"contracts/Market.sol\":2785:2806  return betPairs[_bet] */\n      dup1\n      sload\n      dup4\n      mload\n      dup2\n      dup5\n      mul\n      dup2\n      add\n      dup5\n      add\n      swap1\n      swap5\n      mstore\n      dup1\n      dup5\n      mstore\n        /* \"contracts/Market.sol\":2752:2768  bytes32[] memory */\n      0x60\n      swap4\n        /* \"contracts/Market.sol\":2785:2806  return betPairs[_bet] */\n      swap3\n      dup4\n      add\n        /* \"contracts/Market.sol\":2792:2806  betPairs[_bet] */\n      dup3\n        /* \"contracts/Market.sol\":2785:2806  return betPairs[_bet] */\n      dup3\n      dup1\n      iszero\n      tag_98\n      jumpi\n      0x20\n      mul\n      dup3\n      add\n      swap2\n      swap1\n      0x00\n      mstore\n      keccak256(0x00, 0x20)\n      swap1\n    tag_99:\n      dup2\n      sload\n      dup2\n      mstore\n      0x20\n      add\n      swap1\n      0x01\n      add\n      swap1\n      dup1\n      dup4\n      gt\n      tag_99\n      jumpi\n    tag_98:\n      pop\n      pop\n      pop\n      pop\n      pop\n      swap1\n      pop\n        /* \"contracts/Market.sol\":2677:2813  function getBetPairs(bytes32 _bet) ... */\n      swap2\n      swap1\n      pop\n      jump\t// out\n        /* \"contracts/Market.sol\":4200:4434  function cancelBet(bytes32 _bet) external override {... */\n    tag_36:\n        /* \"contracts/Market.sol\":4283:4297  betsInfo[_bet] */\n      0x00\n      dup2\n      dup2\n      mstore\n        /* \"contracts/Market.sol\":4283:4291  betsInfo */\n      0x10\n        /* \"contracts/Market.sol\":4283:4297  betsInfo[_bet] */\n      0x20\n      mstore\n      0x40\n      swap1\n      keccak256\n        /* \"contracts/Market.sol\":4283:4304  betsInfo[_bet].better */\n      sload\n      sub(shl(0xa0, 0x01), 0x01)\n      and\n        /* \"contracts/Market.sol\":4269:4279  msg.sender */\n      caller\n        /* \"contracts/Market.sol\":4269:4304  msg.sender == betsInfo[_bet].better */\n      eq\n        /* \"contracts/Market.sol\":4261:4311  require(msg.sender == betsInfo[_bet].better, \"M6\") */\n      tag_101\n      jumpi\n      mload(0x40)\n      shl(0xe5, 0x461bcd)\n      dup2\n      mstore\n        /* \"#utility.yul\":6098:6100   */\n      0x20\n        /* \"contracts/Market.sol\":4261:4311  require(msg.sender == betsInfo[_bet].better, \"M6\") */\n      0x04\n      dup3\n      add\n        /* \"#utility.yul\":6080:6101   */\n      mstore\n        /* \"#utility.yul\":6137:6138   */\n      0x02\n        /* \"#utility.yul\":6117:6135   */\n      0x24\n      dup3\n      add\n        /* \"#utility.yul\":6110:6139   */\n      mstore\n      shl(0xf1, 0x269b)\n        /* \"#utility.yul\":6155:6173   */\n      0x44\n      dup3\n      add\n        /* \"#utility.yul\":6148:6180   */\n      mstore\n        /* \"#utility.yul\":6197:6215   */\n      0x64\n      add\n        /* \"contracts/Market.sol\":4261:4311  require(msg.sender == betsInfo[_bet].better, \"M6\") */\n    tag_102:\n      mload(0x40)\n      dup1\n      swap2\n      sub\n      swap1\n      revert\n    tag_101:\n        /* \"contracts/Market.sol\":4324:4330  status */\n      sload(0x0c)\n        /* \"contracts/Market.sol\":4324:4335  status == 0 */\n      iszero\n      dup1\n        /* \"contracts/Market.sol\":4324:4350  status == 0 || status == 3 */\n      tag_104\n      jumpi\n      pop\n        /* \"contracts/Market.sol\":4339:4345  status */\n      sload(0x0c)\n        /* \"contracts/Market.sol\":4349:4350  3 */\n      0x03\n        /* \"contracts/Market.sol\":4339:4350  status == 3 */\n      eq\n        /* \"contracts/Market.sol\":4324:4350  status == 0 || status == 3 */\n    tag_104:\n        /* \"contracts/Market.sol\":4321:4397  if(status == 0 || status == 3){... */\n      iszero\n      tag_105\n      jumpi\n        /* \"contracts/Market.sol\":4365:4386  _cancelBetPairs(_bet) */\n      tag_106\n        /* \"contracts/Market.sol\":4381:4385  _bet */\n      dup2\n        /* \"contracts/Market.sol\":4365:4380  _cancelBetPairs */\n      tag_107\n        /* \"contracts/Market.sol\":4365:4386  _cancelBetPairs(_bet) */\n      jump\t// in\n    tag_106:\n      pop\n        /* \"contracts/Market.sol\":4321:4397  if(status == 0 || status == 3){... */\n    tag_105:\n        /* \"contracts/Market.sol\":4406:4427  withdrawPending(_bet) */\n      tag_108\n        /* \"contracts/Market.sol\":4422:4426  _bet */\n      dup2\n        /* \"contracts/Market.sol\":4406:4421  withdrawPending */\n      tag_63\n        /* \"contracts/Market.sol\":4406:4427  withdrawPending(_bet) */\n      jump\t// in\n    tag_108:\n        /* \"contracts/Market.sol\":4200:4434  function cancelBet(bytes32 _bet) external override {... */\n      pop\n      jump\t// out\n        /* \"contracts/Market.sol\":2098:2236  function getUserBets(address _user) ... */\n    tag_40:\n      sub(shl(0xa0, 0x01), 0x01)\n        /* \"contracts/Market.sol\":2214:2229  userBets[_user] */\n      dup2\n      and\n      0x00\n      swap1\n      dup2\n      mstore\n        /* \"contracts/Market.sol\":2214:2222  userBets */\n      0x0f\n        /* \"contracts/Market.sol\":2214:2229  userBets[_user] */\n      0x20\n      swap1\n      dup2\n      mstore\n      0x40\n      swap2\n      dup3\n      swap1\n      keccak256\n        /* \"contracts/Market.sol\":2207:2229  return userBets[_user] */\n      dup1\n      sload\n      dup4\n      mload\n      dup2\n      dup5\n      mul\n      dup2\n      add\n      dup5\n      add\n      swap1\n      swap5\n      mstore\n      dup1\n      dup5\n      mstore\n        /* \"contracts/Market.sol\":2174:2190  bytes32[] memory */\n      0x60\n      swap4\n        /* \"contracts/Market.sol\":2207:2229  return userBets[_user] */\n      swap3\n      dup4\n      add\n        /* \"contracts/Market.sol\":2214:2229  userBets[_user] */\n      dup3\n        /* \"contracts/Market.sol\":2207:2229  return userBets[_user] */\n      dup3\n      dup1\n      iszero\n      tag_98\n      jumpi\n      0x20\n      mul\n      dup3\n      add\n      swap2\n      swap1\n      0x00\n      mstore\n      keccak256(0x00, 0x20)\n      swap1\n      dup2\n      sload\n      dup2\n      mstore\n      0x20\n      add\n      swap1\n      0x01\n      add\n      swap1\n      dup1\n      dup4\n      gt\n      tag_99\n      jumpi\n      pop\n      pop\n      pop\n      pop\n      pop\n      swap1\n      pop\n        /* \"contracts/Market.sol\":2098:2236  function getUserBets(address _user) ... */\n      swap2\n      swap1\n      pop\n      jump\t// out\n        /* \"contracts/Market.sol\":2455:2593  function getBet(bytes32 _bet) ... */\n    tag_44:\n        /* \"contracts/Market.sol\":2525:2548  Struct.MarketBet memory */\n      tag_112\n      mload(0x40)\n      dup1\n      0xc0\n      add\n      0x40\n      mstore\n      dup1\n      and(sub(shl(0xa0, 0x01), 0x01), 0x00)\n      dup2\n      mstore\n      0x20\n      add\n      and(sub(shl(0xa0, 0x01), 0x01), 0x00)\n      dup2\n      mstore\n      0x20\n      add\n      0x00\n      dup2\n      mstore\n      0x20\n      add\n      0x00\n      dup2\n      mstore\n      0x20\n      add\n      0x00\n      dup2\n      mstore\n      0x20\n      add\n      0x00\n      dup2\n      mstore\n      pop\n      swap1\n      jump\n    tag_112:\n      pop\n        /* \"contracts/Market.sol\":2572:2586  betsInfo[_bet] */\n      0x00\n      swap1\n      dup2\n      mstore\n        /* \"contracts/Market.sol\":2572:2580  betsInfo */\n      0x10\n        /* \"contracts/Market.sol\":2572:2586  betsInfo[_bet] */\n      0x20\n      swap1\n      dup2\n      mstore\n      0x40\n      swap2\n      dup3\n      swap1\n      keccak256\n        /* \"contracts/Market.sol\":2565:2586  return betsInfo[_bet] */\n      dup3\n      mload\n      0xc0\n      dup2\n      add\n      dup5\n      mstore\n      dup2\n      sload\n      sub(shl(0xa0, 0x01), 0x01)\n      swap1\n      dup2\n      and\n      dup3\n      mstore\n      0x01\n      dup4\n      add\n      sload\n      and\n      swap3\n      dup2\n      add\n      swap3\n      swap1\n      swap3\n      mstore\n      0x02\n      dup2\n      add\n      sload\n      swap3\n      dup3\n      add\n      swap3\n      swap1\n      swap3\n      mstore\n      0x03\n      dup3\n      add\n      sload\n      0x60\n      dup3\n      add\n      mstore\n      0x04\n      dup3\n      add\n      sload\n      0x80\n      dup3\n      add\n      mstore\n      0x05\n      swap1\n      swap2\n      add\n      sload\n      0xa0\n      dup3\n      add\n      mstore\n      swap1\n        /* \"contracts/Market.sol\":2455:2593  function getBet(bytes32 _bet) ... */\n      jump\t// out\n        /* \"contracts/Market.sol\":3238:3664  function withdraw(address _user) public override nonReentrant returns(bool) {... */\n    tag_49:\n        /* \"contracts/Market.sol\":3308:3312  bool */\n      0x00\n        /* \"@openzeppelin/contracts/security/ReentrancyGuard.sol\":1744:1745  2 */\n      0x02\n        /* \"@openzeppelin/contracts/security/ReentrancyGuard.sol\":2325:2332  _status */\n      sload(0x00)\n        /* \"@openzeppelin/contracts/security/ReentrancyGuard.sol\":2325:2344  _status != _ENTERED */\n      eq\n      iszero\n        /* \"@openzeppelin/contracts/security/ReentrancyGuard.sol\":2317:2380  require(_status != _ENTERED, \"ReentrancyGuard: reentrant call\") */\n      tag_116\n      jumpi\n      mload(0x40)\n      shl(0xe5, 0x461bcd)\n      dup2\n      mstore\n        /* \"#utility.yul\":9808:9810   */\n      0x20\n        /* \"@openzeppelin/contracts/security/ReentrancyGuard.sol\":2317:2380  require(_status != _ENTERED, \"ReentrancyGuard: reentrant call\") */\n      0x04\n      dup3\n      add\n        /* \"#utility.yul\":9790:9811   */\n      mstore\n        /* \"#utility.yul\":9847:9849   */\n      0x1f\n        /* \"#utility.yul\":9827:9845   */\n      0x24\n      dup3\n      add\n        /* \"#utility.yul\":9820:9850   */\n      mstore\n        /* \"#utility.yul\":9886:9919   */\n      0x5265656e7472616e637947756172643a207265656e7472616e742063616c6c00\n        /* \"#utility.yul\":9866:9884   */\n      0x44\n      dup3\n      add\n        /* \"#utility.yul\":9859:9920   */\n      mstore\n        /* \"#utility.yul\":9937:9955   */\n      0x64\n      add\n        /* \"@openzeppelin/contracts/security/ReentrancyGuard.sol\":2317:2380  require(_status != _ENTERED, \"ReentrancyGuard: reentrant call\") */\n      tag_102\n        /* \"#utility.yul\":9780:9961   */\n      jump\n        /* \"@openzeppelin/contracts/security/ReentrancyGuard.sol\":2317:2380  require(_status != _ENTERED, \"ReentrancyGuard: reentrant call\") */\n    tag_116:\n        /* \"@openzeppelin/contracts/security/ReentrancyGuard.sol\":1744:1745  2 */\n      0x02\n        /* \"@openzeppelin/contracts/security/ReentrancyGuard.sol\":2455:2462  _status */\n      0x00\n        /* \"@openzeppelin/contracts/security/ReentrancyGuard.sol\":2455:2473  _status = _ENTERED */\n      swap1\n      dup2\n      sstore\n      sub(shl(0xa0, 0x01), 0x01)\n        /* \"contracts/Market.sol\":3379:3389  bal[_user] */\n      dup4\n      dup2\n      and\n      dup3\n      mstore\n        /* \"contracts/Market.sol\":3379:3382  bal */\n      0x0d\n        /* \"contracts/Market.sol\":3379:3389  bal[_user] */\n      0x20\n      mstore\n      0x40\n      swap2\n      dup3\n      swap1\n      keccak256\n      sload\n        /* \"contracts/Market.sol\":3345:3375  token.balanceOf(address(this)) */\n      swap2\n      mload\n      shl(0xe0, 0x70a08231)\n      dup2\n      mstore\n        /* \"contracts/Market.sol\":3369:3373  this */\n      address\n        /* \"contracts/Market.sol\":3345:3375  token.balanceOf(address(this)) */\n      0x04\n      dup3\n      add\n        /* \"#utility.yul\":2908:2959   */\n      mstore\n        /* \"contracts/Market.sol\":3345:3350  token */\n      immutable(\"0xe7fcf89c34605f23590ff58513f1080dc375dd06cc5e256320151057827a258a\")\n        /* \"contracts/Market.sol\":3345:3360  token.balanceOf */\n      swap1\n      swap2\n      and\n      swap1\n      0x70a08231\n      swap1\n        /* \"#utility.yul\":2881:2899   */\n      0x24\n      add\n        /* \"contracts/Market.sol\":3345:3375  token.balanceOf(address(this)) */\n      0x20\n      mload(0x40)\n      dup1\n      dup4\n      sub\n      dup2\n      dup7\n      dup1\n      extcodesize\n      iszero\n      dup1\n      iszero\n      tag_122\n      jumpi\n      0x00\n      dup1\n      revert\n    tag_122:\n      pop\n      gas\n      staticcall\n      iszero\n      dup1\n      iszero\n      tag_124\n      jumpi\n      returndatasize\n      0x00\n      dup1\n      returndatacopy\n      revert(0x00, returndatasize)\n    tag_124:\n      pop\n      pop\n      pop\n      pop\n      mload(0x40)\n      returndatasize\n      not(0x1f)\n      0x1f\n      dup3\n      add\n      and\n      dup3\n      add\n      dup1\n      0x40\n      mstore\n      pop\n      dup2\n      add\n      swap1\n      tag_125\n      swap2\n      swap1\n      tag_126\n      jump\t// in\n    tag_125:\n        /* \"contracts/Market.sol\":3345:3389  token.balanceOf(address(this)) >= bal[_user] */\n      lt\n      iszero\n        /* \"contracts/Market.sol\":3345:3407  token.balanceOf(address(this)) >= bal[_user] && bal[_user] > 0 */\n      dup1\n      iszero\n      tag_127\n      jumpi\n      pop\n      sub(shl(0xa0, 0x01), 0x01)\n        /* \"contracts/Market.sol\":3393:3403  bal[_user] */\n      dup3\n      and\n        /* \"contracts/Market.sol\":3406:3407  0 */\n      0x00\n        /* \"contracts/Market.sol\":3393:3403  bal[_user] */\n      swap1\n      dup2\n      mstore\n        /* \"contracts/Market.sol\":3393:3396  bal */\n      0x0d\n        /* \"contracts/Market.sol\":3393:3403  bal[_user] */\n      0x20\n      mstore\n      0x40\n      swap1\n      keccak256\n      sload\n        /* \"contracts/Market.sol\":3393:3407  bal[_user] > 0 */\n      iszero\n      iszero\n        /* \"contracts/Market.sol\":3345:3407  token.balanceOf(address(this)) >= bal[_user] && bal[_user] > 0 */\n    tag_127:\n        /* \"contracts/Market.sol\":3324:3435  require(... */\n      tag_128\n      jumpi\n      mload(0x40)\n      shl(0xe5, 0x461bcd)\n      dup2\n      mstore\n        /* \"#utility.yul\":7455:7457   */\n      0x20\n        /* \"contracts/Market.sol\":3324:3435  require(... */\n      0x04\n      dup3\n      add\n        /* \"#utility.yul\":7437:7458   */\n      mstore\n        /* \"#utility.yul\":7494:7495   */\n      0x02\n        /* \"#utility.yul\":7474:7492   */\n      0x24\n      dup3\n      add\n        /* \"#utility.yul\":7467:7496   */\n      mstore\n      shl(0xf0, 0x4d33)\n        /* \"#utility.yul\":7512:7530   */\n      0x44\n      dup3\n      add\n        /* \"#utility.yul\":7505:7537   */\n      mstore\n        /* \"#utility.yul\":7554:7572   */\n      0x64\n      add\n        /* \"contracts/Market.sol\":3324:3435  require(... */\n      tag_102\n        /* \"#utility.yul\":7427:7578   */\n      jump\n        /* \"contracts/Market.sol\":3324:3435  require(... */\n    tag_128:\n      sub(shl(0xa0, 0x01), 0x01)\n        /* \"contracts/Market.sol\":3467:3477  bal[_user] */\n      dup3\n      dup2\n      and\n        /* \"contracts/Market.sol\":3445:3464  uint256 availAmount */\n      0x00\n        /* \"contracts/Market.sol\":3467:3477  bal[_user] */\n      dup2\n      dup2\n      mstore\n        /* \"contracts/Market.sol\":3467:3470  bal */\n      0x0d\n        /* \"contracts/Market.sol\":3467:3477  bal[_user] */\n      0x20\n      mstore\n      0x40\n      dup1\n      dup3\n      keccak256\n      dup1\n      sload\n        /* \"contracts/Market.sol\":3487:3501  bal[_user] = 0 */\n      swap1\n      dup4\n      swap1\n      sstore\n        /* \"contracts/Market.sol\":3526:3560  token.transfer(_user, availAmount) */\n      swap1\n      mload\n      shl(0xe0, 0xa9059cbb)\n      dup2\n      mstore\n      0x04\n      dup2\n      add\n        /* \"#utility.yul\":4429:4480   */\n      swap4\n      swap1\n      swap4\n      mstore\n        /* \"#utility.yul\":4496:4514   */\n      0x24\n      dup4\n      add\n        /* \"#utility.yul\":4489:4523   */\n      dup2\n      swap1\n      mstore\n        /* \"contracts/Market.sol\":3467:3477  bal[_user] */\n      swap3\n        /* \"contracts/Market.sol\":3445:3464  uint256 availAmount */\n      swap1\n      swap2\n        /* \"contracts/Market.sol\":3526:3531  token */\n      immutable(\"0xe7fcf89c34605f23590ff58513f1080dc375dd06cc5e256320151057827a258a\")\n        /* \"contracts/Market.sol\":3526:3540  token.transfer */\n      swap1\n      swap2\n      and\n      swap1\n      0xa9059cbb\n      swap1\n        /* \"#utility.yul\":4402:4420   */\n      0x44\n      add\n        /* \"contracts/Market.sol\":3526:3560  token.transfer(_user, availAmount) */\n      0x20\n      mload(0x40)\n      dup1\n      dup4\n      sub\n      dup2\n      0x00\n      dup8\n      dup1\n      extcodesize\n      iszero\n      dup1\n      iszero\n      tag_133\n      jumpi\n      0x00\n      dup1\n      revert\n    tag_133:\n      pop\n      gas\n      call\n      iszero\n      dup1\n      iszero\n      tag_135\n      jumpi\n      returndatasize\n      0x00\n      dup1\n      returndatacopy\n      revert(0x00, returndatasize)\n    tag_135:\n      pop\n      pop\n      pop\n      pop\n      mload(0x40)\n      returndatasize\n      not(0x1f)\n      0x1f\n      dup3\n      add\n      and\n      dup3\n      add\n      dup1\n      0x40\n      mstore\n      pop\n      dup2\n      add\n      swap1\n      tag_136\n      swap2\n      swap1\n      tag_137\n      jump\t// in\n    tag_136:\n        /* \"contracts/Market.sol\":3511:3560  bool success = token.transfer(_user, availAmount) */\n      swap1\n      pop\n        /* \"contracts/Market.sol\":3578:3585  success */\n      dup1\n        /* \"contracts/Market.sol\":3570:3592  require(success, \"M4\") */\n      tag_138\n      jumpi\n      mload(0x40)\n      shl(0xe5, 0x461bcd)\n      dup2\n      mstore\n        /* \"#utility.yul\":9148:9150   */\n      0x20\n        /* \"contracts/Market.sol\":3570:3592  require(success, \"M4\") */\n      0x04\n      dup3\n      add\n        /* \"#utility.yul\":9130:9151   */\n      mstore\n        /* \"#utility.yul\":9187:9188   */\n      0x02\n        /* \"#utility.yul\":9167:9185   */\n      0x24\n      dup3\n      add\n        /* \"#utility.yul\":9160:9189   */\n      mstore\n      shl(0xf2, 0x134d)\n        /* \"#utility.yul\":9205:9223   */\n      0x44\n      dup3\n      add\n        /* \"#utility.yul\":9198:9230   */\n      mstore\n        /* \"#utility.yul\":9247:9265   */\n      0x64\n      add\n        /* \"contracts/Market.sol\":3570:3592  require(success, \"M4\") */\n      tag_102\n        /* \"#utility.yul\":9120:9271   */\n      jump\n        /* \"contracts/Market.sol\":3570:3592  require(success, \"M4\") */\n    tag_138:\n        /* \"contracts/Market.sol\":3608:3636  Withdraw(_user, availAmount) */\n      0x40\n      dup1\n      mload\n      sub(shl(0xa0, 0x01), 0x01)\n        /* \"#utility.yul\":4447:4479   */\n      dup7\n      and\n        /* \"#utility.yul\":4429:4480   */\n      dup2\n      mstore\n        /* \"#utility.yul\":4511:4513   */\n      0x20\n        /* \"#utility.yul\":4496:4514   */\n      dup2\n      add\n        /* \"#utility.yul\":4489:4523   */\n      dup5\n      swap1\n      mstore\n        /* \"contracts/Market.sol\":3608:3636  Withdraw(_user, availAmount) */\n      0x884edad9ce6fa2440d8a54cc123490eb96d2768479d49ff9c7366125a9424364\n      swap2\n        /* \"#utility.yul\":4402:4420   */\n      add\n        /* \"contracts/Market.sol\":3608:3636  Withdraw(_user, availAmount) */\n      mload(0x40)\n      dup1\n      swap2\n      sub\n      swap1\n      log1\n        /* \"contracts/Market.sol\":3653:3657  true */\n      0x01\n        /* \"contracts/Market.sol\":3646:3657  return true */\n      swap3\n      pop\n      pop\n      pop\n        /* \"@openzeppelin/contracts/security/ReentrancyGuard.sol\":2484:2485  _ */\n    tag_119:\n        /* \"@openzeppelin/contracts/security/ReentrancyGuard.sol\":1701:1702  1 */\n      0x01\n        /* \"@openzeppelin/contracts/security/ReentrancyGuard.sol\":2628:2635  _status */\n      0x00\n        /* \"@openzeppelin/contracts/security/ReentrancyGuard.sol\":2628:2650  _status = _NOT_ENTERED */\n      sstore\n        /* \"contracts/Market.sol\":3238:3664  function withdraw(address _user) public override nonReentrant returns(bool) {... */\n      swap2\n      swap1\n      pop\n      jump\t// out\n        /* \"contracts/Market.sol\":4495:4815  function settleBet(bytes32 _bet) external override {... */\n    tag_54:\n        /* \"contracts/Market.sol\":4556:4579  bytes32[] memory _pairs */\n      0x00\n        /* \"contracts/Market.sol\":4582:4596  betPairs[_bet] */\n      dup2\n      dup2\n      mstore\n        /* \"contracts/Market.sol\":4582:4590  betPairs */\n      0x12\n        /* \"contracts/Market.sol\":4582:4596  betPairs[_bet] */\n      0x20\n      swap1\n      dup2\n      mstore\n      0x40\n      dup1\n      dup4\n      keccak256\n        /* \"contracts/Market.sol\":4556:4596  bytes32[] memory _pairs = betPairs[_bet] */\n      dup1\n      sload\n      dup3\n      mload\n      dup2\n      dup6\n      mul\n      dup2\n      add\n      dup6\n      add\n      swap1\n      swap4\n      mstore\n      dup1\n      dup4\n      mstore\n      swap2\n      swap3\n        /* \"contracts/Market.sol\":4582:4596  betPairs[_bet] */\n      swap1\n      swap2\n        /* \"contracts/Market.sol\":4556:4596  bytes32[] memory _pairs = betPairs[_bet] */\n      swap1\n      dup4\n      add\n        /* \"contracts/Market.sol\":4582:4596  betPairs[_bet] */\n      dup3\n        /* \"contracts/Market.sol\":4556:4596  bytes32[] memory _pairs = betPairs[_bet] */\n      dup3\n      dup1\n      iszero\n      tag_143\n      jumpi\n      0x20\n      mul\n      dup3\n      add\n      swap2\n      swap1\n      0x00\n      mstore\n      keccak256(0x00, 0x20)\n      swap1\n    tag_144:\n      dup2\n      sload\n      dup2\n      mstore\n      0x20\n      add\n      swap1\n      0x01\n      add\n      swap1\n      dup1\n      dup4\n      gt\n      tag_144\n      jumpi\n    tag_143:\n      pop\n      pop\n        /* \"contracts/Market.sol\":4625:4638  _pairs.length */\n      dup4\n      mload\n        /* \"contracts/Market.sol\":4556:4596  bytes32[] memory _pairs = betPairs[_bet] */\n      swap4\n      swap5\n      pop\n        /* \"contracts/Market.sol\":4606:4622  uint pairsLength */\n      0x00\n      swap3\n      pop\n      pop\n      pop\n        /* \"contracts/Market.sol\":4648:4732  for(uint i = 0; i < pairsLength; i++){... */\n    tag_145:\n        /* \"contracts/Market.sol\":4668:4679  pairsLength */\n      dup2\n        /* \"contracts/Market.sol\":4664:4665  i */\n      dup2\n        /* \"contracts/Market.sol\":4664:4679  i < pairsLength */\n      lt\n        /* \"contracts/Market.sol\":4648:4732  for(uint i = 0; i < pairsLength; i++){... */\n      iszero\n      tag_146\n      jumpi\n        /* \"contracts/Market.sol\":4699:4721  _settlePair(_pairs[i]) */\n      tag_148\n        /* \"contracts/Market.sol\":4711:4717  _pairs */\n      dup4\n        /* \"contracts/Market.sol\":4718:4719  i */\n      dup3\n        /* \"contracts/Market.sol\":4711:4720  _pairs[i] */\n      dup2\n      mload\n      dup2\n      lt\n      tag_149\n      jumpi\n      mstore(0x00, shl(0xe0, 0x4e487b71))\n      mstore(0x04, 0x32)\n      revert(0x00, 0x24)\n    tag_149:\n      0x20\n      mul\n      0x20\n      add\n      add\n      mload\n        /* \"contracts/Market.sol\":4699:4710  _settlePair */\n      tag_150\n        /* \"contracts/Market.sol\":4699:4721  _settlePair(_pairs[i]) */\n      jump\t// in\n    tag_148:\n      pop\n        /* \"contracts/Market.sol\":4681:4684  i++ */\n      dup1\n      tag_151\n      dup2\n      tag_152\n      jump\t// in\n    tag_151:\n      swap2\n      pop\n      pop\n        /* \"contracts/Market.sol\":4648:4732  for(uint i = 0; i < pairsLength; i++){... */\n      jump(tag_145)\n    tag_146:\n      pop\n        /* \"contracts/Market.sol\":4748:4758  msg.sender */\n      caller\n        /* \"contracts/Market.sol\":4762:4763  0 */\n      0x00\n        /* \"contracts/Market.sol\":4744:4759  bal[msg.sender] */\n      swap1\n      dup2\n      mstore\n        /* \"contracts/Market.sol\":4744:4747  bal */\n      0x0d\n        /* \"contracts/Market.sol\":4744:4759  bal[msg.sender] */\n      0x20\n      mstore\n      0x40\n      swap1\n      keccak256\n      sload\n        /* \"contracts/Market.sol\":4744:4763  bal[msg.sender] > 0 */\n      iszero\n        /* \"contracts/Market.sol\":4741:4809  if(bal[msg.sender] > 0){... */\n      tag_153\n      jumpi\n        /* \"contracts/Market.sol\":4778:4798  withdraw(msg.sender) */\n      tag_154\n        /* \"contracts/Market.sol\":4787:4797  msg.sender */\n      caller\n        /* \"contracts/Market.sol\":4778:4786  withdraw */\n      tag_49\n        /* \"contracts/Market.sol\":4778:4798  withdraw(msg.sender) */\n      jump\t// in\n    tag_154:\n      pop\n        /* \"contracts/Market.sol\":4741:4809  if(bal[msg.sender] > 0){... */\n    tag_153:\n        /* \"contracts/Market.sol\":4495:4815  function settleBet(bytes32 _bet) external override {... */\n      pop\n      pop\n      pop\n      jump\t// out\n        /* \"contracts/Market.sol\":6418:6625  function stopNewBet() external override onlyFactory returns(bool){... */\n    tag_56:\n        /* \"contracts/Market.sol\":1103:1115  a.eventOwner */\n      sload(0x03)\n        /* \"contracts/Market.sol\":6478:6482  bool */\n      0x00\n      swap1\n      sub(shl(0xa0, 0x01), 0x01)\n        /* \"contracts/Market.sol\":1103:1115  a.eventOwner */\n      and\n        /* \"contracts/Market.sol\":1089:1099  msg.sender */\n      caller\n        /* \"contracts/Market.sol\":1089:1115  msg.sender == a.eventOwner */\n      eq\n      dup1\n        /* \"contracts/Market.sol\":1089:1142  msg.sender == a.eventOwner || msg.sender == a.factory */\n      tag_156\n      jumpi\n      pop\n        /* \"contracts/Market.sol\":1133:1142  a.factory */\n      and(sub(shl(0xa0, 0x01), 0x01), sload(0x02))\n        /* \"contracts/Market.sol\":1119:1129  msg.sender */\n      caller\n        /* \"contracts/Market.sol\":1119:1142  msg.sender == a.factory */\n      eq\n        /* \"contracts/Market.sol\":1089:1142  msg.sender == a.eventOwner || msg.sender == a.factory */\n    tag_156:\n        /* \"contracts/Market.sol\":1068:1170  require(... */\n      tag_157\n      jumpi\n      mload(0x40)\n      shl(0xe5, 0x461bcd)\n      dup2\n      mstore\n      0x04\n      add\n      tag_102\n      swap1\n      tag_159\n      jump\t// in\n    tag_157:\n        /* \"contracts/Market.sol\":6496:6502  status */\n      sload(0x0c)\n        /* \"contracts/Market.sol\":6493:6619  if(status == 0){... */\n      tag_161\n      jumpi\n      pop\n        /* \"contracts/Market.sol\":6531:6532  4 */\n      0x04\n        /* \"contracts/Market.sol\":6522:6528  status */\n      0x0c\n        /* \"contracts/Market.sol\":6522:6532  status = 4 */\n      sstore\n        /* \"contracts/Market.sol\":6553:6557  true */\n      0x01\n        /* \"contracts/Market.sol\":6418:6625  function stopNewBet() external override onlyFactory returns(bool){... */\n      swap1\n      jump\t// out\n        /* \"contracts/Market.sol\":6493:6619  if(status == 0){... */\n    tag_161:\n      pop\n        /* \"contracts/Market.sol\":6603:6608  false */\n      0x00\n        /* \"contracts/Market.sol\":6418:6625  function stopNewBet() external override onlyFactory returns(bool){... */\n      swap1\n      jump\t// out\n        /* \"contracts/Market.sol\":2872:2975  function getPairs() external view override returns(bytes32[] memory) ... */\n    tag_59:\n        /* \"contracts/Market.sol\":2923:2939  bytes32[] memory */\n      0x60\n        /* \"contracts/Market.sol\":2963:2968  pairs */\n      0x11\n        /* \"contracts/Market.sol\":2956:2968  return pairs */\n      dup1\n      sload\n      dup1\n      0x20\n      mul\n      0x20\n      add\n      mload(0x40)\n      swap1\n      dup2\n      add\n      0x40\n      mstore\n      dup1\n      swap3\n      swap2\n      swap1\n      dup2\n      dup2\n      mstore\n      0x20\n      add\n      dup3\n      dup1\n      sload\n      dup1\n      iszero\n      tag_164\n      jumpi\n      0x20\n      mul\n      dup3\n      add\n      swap2\n      swap1\n      0x00\n      mstore\n      keccak256(0x00, 0x20)\n      swap1\n    tag_165:\n      dup2\n      sload\n      dup2\n      mstore\n      0x20\n      add\n      swap1\n      0x01\n      add\n      swap1\n      dup1\n      dup4\n      gt\n      tag_165\n      jumpi\n    tag_164:\n      pop\n      pop\n      pop\n      pop\n      pop\n      swap1\n      pop\n        /* \"contracts/Market.sol\":2872:2975  function getPairs() external view override returns(bytes32[] memory) ... */\n      swap1\n      jump\t// out\n        /* \"contracts/Market.sol\":3767:4139  function withdrawPending(bytes32 _bet) public override {... */\n    tag_63:\n        /* \"contracts/Market.sol\":3832:3859  Struct.MarketBet memory bet */\n      0x00\n        /* \"contracts/Market.sol\":3862:3876  betsInfo[_bet] */\n      dup2\n      dup2\n      mstore\n        /* \"contracts/Market.sol\":3862:3870  betsInfo */\n      0x10\n        /* \"contracts/Market.sol\":3862:3876  betsInfo[_bet] */\n      0x20\n      swap1\n      dup2\n      mstore\n      0x40\n      swap2\n      dup3\n      swap1\n      keccak256\n        /* \"contracts/Market.sol\":3832:3876  Struct.MarketBet memory bet = betsInfo[_bet] */\n      dup3\n      mload\n      0xc0\n      dup2\n      add\n      dup5\n      mstore\n      dup2\n      sload\n      sub(shl(0xa0, 0x01), 0x01)\n      swap1\n      dup2\n      and\n      dup1\n      dup4\n      mstore\n      0x01\n      dup5\n      add\n      sload\n      swap1\n      swap2\n      and\n      swap4\n      dup3\n      add\n      swap4\n      swap1\n      swap4\n      mstore\n      0x02\n      dup3\n      add\n      sload\n      swap4\n      dup2\n      add\n      swap4\n      swap1\n      swap4\n      mstore\n      0x03\n      dup2\n      add\n      sload\n      0x60\n      dup5\n      add\n      mstore\n      0x04\n      dup2\n      add\n      sload\n      0x80\n      dup5\n      add\n      mstore\n      0x05\n      add\n      sload\n      0xa0\n      dup4\n      add\n      mstore\n        /* \"contracts/Market.sol\":3894:3904  msg.sender */\n      caller\n        /* \"contracts/Market.sol\":3894:3918  msg.sender == bet.better */\n      eq\n        /* \"contracts/Market.sol\":3886:3925  require(msg.sender == bet.better, \"M5\") */\n      tag_167\n      jumpi\n      mload(0x40)\n      shl(0xe5, 0x461bcd)\n      dup2\n      mstore\n        /* \"#utility.yul\":6784:6786   */\n      0x20\n        /* \"contracts/Market.sol\":3886:3925  require(msg.sender == bet.better, \"M5\") */\n      0x04\n      dup3\n      add\n        /* \"#utility.yul\":6766:6787   */\n      mstore\n        /* \"#utility.yul\":6823:6824   */\n      0x02\n        /* \"#utility.yul\":6803:6821   */\n      0x24\n      dup3\n      add\n        /* \"#utility.yul\":6796:6825   */\n      mstore\n      shl(0xf0, 0x4d35)\n        /* \"#utility.yul\":6841:6859   */\n      0x44\n      dup3\n      add\n        /* \"#utility.yul\":6834:6866   */\n      mstore\n        /* \"#utility.yul\":6883:6901   */\n      0x64\n      add\n        /* \"contracts/Market.sol\":3886:3925  require(msg.sender == bet.better, \"M5\") */\n      tag_102\n        /* \"#utility.yul\":6756:6907   */\n      jump\n        /* \"contracts/Market.sol\":3886:3925  require(msg.sender == bet.better, \"M5\") */\n    tag_167:\n        /* \"contracts/Market.sol\":3935:3948  uint remStake */\n      0x00\n        /* \"contracts/Market.sol\":3963:3966  bet */\n      dup2\n        /* \"contracts/Market.sol\":3963:3974  bet.matched */\n      0x60\n      add\n      mload\n        /* \"contracts/Market.sol\":3951:3954  bet */\n      dup3\n        /* \"contracts/Market.sol\":3951:3960  bet.stake */\n      0x40\n      add\n      mload\n        /* \"contracts/Market.sol\":3951:3974  bet.stake - bet.matched */\n      tag_170\n      swap2\n      swap1\n      tag_171\n      jump\t// in\n    tag_170:\n        /* \"contracts/Market.sol\":3988:3998  bet.better */\n      dup3\n      mload\n      sub(shl(0xa0, 0x01), 0x01)\n        /* \"contracts/Market.sol\":3984:3999  bal[bet.better] */\n      and\n      0x00\n      swap1\n      dup2\n      mstore\n        /* \"contracts/Market.sol\":3984:3987  bal */\n      0x0d\n        /* \"contracts/Market.sol\":3984:3999  bal[bet.better] */\n      0x20\n      mstore\n      0x40\n      dup2\n      keccak256\n        /* \"contracts/Market.sol\":3984:4011  bal[bet.better] += remStake */\n      dup1\n      sload\n        /* \"contracts/Market.sol\":3935:3974  uint remStake = bet.stake - bet.matched */\n      swap3\n      swap4\n      pop\n      dup4\n      swap3\n        /* \"contracts/Market.sol\":3984:3999  bal[bet.better] */\n      swap1\n      swap2\n      swap1\n        /* \"contracts/Market.sol\":3984:4011  bal[bet.better] += remStake */\n      tag_172\n      swap1\n        /* \"contracts/Market.sol\":3935:3974  uint remStake = bet.stake - bet.matched */\n      dup5\n      swap1\n        /* \"contracts/Market.sol\":3984:4011  bal[bet.better] += remStake */\n      tag_173\n      jump\t// in\n    tag_172:\n      swap1\n      swap2\n      sstore\n      pop\n      pop\n        /* \"contracts/Market.sol\":4046:4055  bet.stake */\n      0x40\n      dup1\n      dup4\n      add\n      mload\n        /* \"contracts/Market.sol\":4021:4035  betsInfo[_bet] */\n      0x00\n      dup6\n      dup2\n      mstore\n        /* \"contracts/Market.sol\":4021:4029  betsInfo */\n      0x10\n        /* \"contracts/Market.sol\":4021:4035  betsInfo[_bet] */\n      0x20\n      swap1\n      dup2\n      mstore\n      dup4\n      dup3\n      keccak256\n        /* \"contracts/Market.sol\":4021:4043  betsInfo[_bet].matched */\n      0x03\n      add\n        /* \"contracts/Market.sol\":4021:4055  betsInfo[_bet].matched = bet.stake */\n      swap3\n      swap1\n      swap3\n      sstore\n        /* \"contracts/Market.sol\":4072:4082  msg.sender */\n      caller\n        /* \"contracts/Market.sol\":4068:4083  bal[msg.sender] */\n      dup2\n      mstore\n        /* \"contracts/Market.sol\":4068:4071  bal */\n      0x0d\n        /* \"contracts/Market.sol\":4068:4083  bal[msg.sender] */\n      swap1\n      swap2\n      mstore\n      keccak256\n      sload\n        /* \"contracts/Market.sol\":4068:4087  bal[msg.sender] > 0 */\n      iszero\n        /* \"contracts/Market.sol\":4065:4133  if(bal[msg.sender] > 0){... */\n      tag_153\n      jumpi\n        /* \"contracts/Market.sol\":4102:4122  withdraw(msg.sender) */\n      tag_154\n        /* \"contracts/Market.sol\":4111:4121  msg.sender */\n      caller\n        /* \"contracts/Market.sol\":4102:4110  withdraw */\n      tag_49\n        /* \"contracts/Market.sol\":4102:4122  withdraw(msg.sender) */\n      jump\t// in\n        /* \"contracts/Market.sol\":5381:5792  function settle(uint256 _winningSide)... */\n    tag_67:\n        /* \"contracts/Market.sol\":1103:1115  a.eventOwner */\n      sload(0x03)\n        /* \"contracts/Market.sol\":5489:5493  bool */\n      0x00\n      swap1\n      sub(shl(0xa0, 0x01), 0x01)\n        /* \"contracts/Market.sol\":1103:1115  a.eventOwner */\n      and\n        /* \"contracts/Market.sol\":1089:1099  msg.sender */\n      caller\n        /* \"contracts/Market.sol\":1089:1115  msg.sender == a.eventOwner */\n      eq\n      dup1\n        /* \"contracts/Market.sol\":1089:1142  msg.sender == a.eventOwner || msg.sender == a.factory */\n      tag_177\n      jumpi\n      pop\n        /* \"contracts/Market.sol\":1133:1142  a.factory */\n      and(sub(shl(0xa0, 0x01), 0x01), sload(0x02))\n        /* \"contracts/Market.sol\":1119:1129  msg.sender */\n      caller\n        /* \"contracts/Market.sol\":1119:1142  msg.sender == a.factory */\n      eq\n        /* \"contracts/Market.sol\":1089:1142  msg.sender == a.eventOwner || msg.sender == a.factory */\n    tag_177:\n        /* \"contracts/Market.sol\":1068:1170  require(... */\n      tag_178\n      jumpi\n      mload(0x40)\n      shl(0xe5, 0x461bcd)\n      dup2\n      mstore\n      0x04\n      add\n      tag_102\n      swap1\n      tag_159\n      jump\t// in\n    tag_178:\n        /* \"contracts/Market.sol\":5512:5540  setWinningSide(_winningSide) */\n      tag_181\n        /* \"contracts/Market.sol\":5527:5539  _winningSide */\n      dup3\n        /* \"contracts/Market.sol\":5512:5526  setWinningSide */\n      tag_88\n        /* \"contracts/Market.sol\":5512:5540  setWinningSide(_winningSide) */\n      jump\t// in\n    tag_181:\n        /* \"contracts/Market.sol\":5509:5777  if(setWinningSide(_winningSide)){... */\n      iszero\n      tag_182\n      jumpi\n        /* \"contracts/Market.sol\":5574:5579  pairs */\n      0x11\n        /* \"contracts/Market.sol\":5574:5586  pairs.length */\n      sload\n        /* \"contracts/Market.sol\":5555:5571  uint pairsLength */\n      0x00\n        /* \"contracts/Market.sol\":5600:5691  for(uint i = 0; i < pairsLength; i++){... */\n    tag_183:\n        /* \"contracts/Market.sol\":5620:5631  pairsLength */\n      dup2\n        /* \"contracts/Market.sol\":5616:5617  i */\n      dup2\n        /* \"contracts/Market.sol\":5616:5631  i < pairsLength */\n      lt\n        /* \"contracts/Market.sol\":5600:5691  for(uint i = 0; i < pairsLength; i++){... */\n      iszero\n      tag_184\n      jumpi\n        /* \"contracts/Market.sol\":5655:5676  _settlePair(pairs[i]) */\n      tag_186\n        /* \"contracts/Market.sol\":5667:5672  pairs */\n      0x11\n        /* \"contracts/Market.sol\":5673:5674  i */\n      dup3\n        /* \"contracts/Market.sol\":5667:5675  pairs[i] */\n      dup2\n      sload\n      dup2\n      lt\n      tag_187\n      jumpi\n      mstore(0x00, shl(0xe0, 0x4e487b71))\n      mstore(0x04, 0x32)\n      revert(0x00, 0x24)\n    tag_187:\n      swap1\n      0x00\n      mstore\n      keccak256(0x00, 0x20)\n      add\n      sload\n        /* \"contracts/Market.sol\":5655:5666  _settlePair */\n      tag_150\n        /* \"contracts/Market.sol\":5655:5676  _settlePair(pairs[i]) */\n      jump\t// in\n    tag_186:\n      pop\n        /* \"contracts/Market.sol\":5633:5636  i++ */\n      dup1\n      tag_189\n      dup2\n      tag_152\n      jump\t// in\n    tag_189:\n      swap2\n      pop\n      pop\n        /* \"contracts/Market.sol\":5600:5691  for(uint i = 0; i < pairsLength; i++){... */\n      jump(tag_183)\n    tag_184:\n      pop\n        /* \"contracts/Market.sol\":5711:5715  true */\n      0x01\n      swap4\n        /* \"contracts/Market.sol\":5381:5792  function settle(uint256 _winningSide)... */\n      swap3\n      pop\n      pop\n      pop\n      jump\t// out\n        /* \"contracts/Market.sol\":5509:5777  if(setWinningSide(_winningSide)){... */\n    tag_182:\n      pop\n        /* \"contracts/Market.sol\":5761:5766  false */\n      0x00\n        /* \"contracts/Market.sol\":5509:5777  if(setWinningSide(_winningSide)){... */\n    tag_190:\n        /* \"contracts/Market.sol\":5381:5792  function settle(uint256 _winningSide)... */\n      swap2\n      swap1\n      pop\n      jump\t// out\n        /* \"contracts/Market.sol\":2295:2396  function getBets() external view override returns(bytes32[] memory) ... */\n    tag_70:\n        /* \"contracts/Market.sol\":2345:2361  bytes32[] memory */\n      0x60\n        /* \"contracts/Market.sol\":2385:2389  bets */\n      0x0e\n        /* \"contracts/Market.sol\":2378:2389  return bets */\n      dup1\n      sload\n      dup1\n      0x20\n      mul\n      0x20\n      add\n      mload(0x40)\n      swap1\n      dup2\n      add\n      0x40\n      mstore\n      dup1\n      swap3\n      swap2\n      swap1\n      dup2\n      dup2\n      mstore\n      0x20\n      add\n      dup3\n      dup1\n      sload\n      dup1\n      iszero\n      tag_164\n      jumpi\n      0x20\n      mul\n      dup3\n      add\n      swap2\n      swap1\n      0x00\n      mstore\n      keccak256(0x00, 0x20)\n      swap1\n      dup2\n      sload\n      dup2\n      mstore\n      0x20\n      add\n      swap1\n      0x01\n      add\n      swap1\n      dup1\n      dup4\n      gt\n      tag_165\n      jumpi\n      pop\n      pop\n      pop\n      pop\n      pop\n      swap1\n      pop\n        /* \"contracts/Market.sol\":2295:2396  function getBets() external view override returns(bytes32[] memory) ... */\n      swap1\n      jump\t// out\n        /* \"contracts/Market.sol\":6029:6412  function cancelPlusPairs() external override onlyFactory returns(bool) ... */\n    tag_73:\n        /* \"contracts/Market.sol\":1103:1115  a.eventOwner */\n      sload(0x03)\n        /* \"contracts/Market.sol\":6094:6098  bool */\n      0x00\n      swap1\n      sub(shl(0xa0, 0x01), 0x01)\n        /* \"contracts/Market.sol\":1103:1115  a.eventOwner */\n      and\n        /* \"contracts/Market.sol\":1089:1099  msg.sender */\n      caller\n        /* \"contracts/Market.sol\":1089:1115  msg.sender == a.eventOwner */\n      eq\n      dup1\n        /* \"contracts/Market.sol\":1089:1142  msg.sender == a.eventOwner || msg.sender == a.factory */\n      tag_195\n      jumpi\n      pop\n        /* \"contracts/Market.sol\":1133:1142  a.factory */\n      and(sub(shl(0xa0, 0x01), 0x01), sload(0x02))\n        /* \"contracts/Market.sol\":1119:1129  msg.sender */\n      caller\n        /* \"contracts/Market.sol\":1119:1142  msg.sender == a.factory */\n      eq\n        /* \"contracts/Market.sol\":1089:1142  msg.sender == a.eventOwner || msg.sender == a.factory */\n    tag_195:\n        /* \"contracts/Market.sol\":1068:1170  require(... */\n      tag_196\n      jumpi\n      mload(0x40)\n      shl(0xe5, 0x461bcd)\n      dup2\n      mstore\n      0x04\n      add\n      tag_102\n      swap1\n      tag_159\n      jump\t// in\n    tag_196:\n        /* \"contracts/Market.sol\":6119:6125  status */\n      sload(0x0c)\n        /* \"contracts/Market.sol\":6119:6130  status == 0 */\n      iszero\n      dup1\n        /* \"contracts/Market.sol\":6119:6145  status == 0 || status == 4 */\n      tag_199\n      jumpi\n      pop\n        /* \"contracts/Market.sol\":6134:6140  status */\n      sload(0x0c)\n        /* \"contracts/Market.sol\":6144:6145  4 */\n      0x04\n        /* \"contracts/Market.sol\":6134:6145  status == 4 */\n      eq\n        /* \"contracts/Market.sol\":6119:6145  status == 0 || status == 4 */\n    tag_199:\n        /* \"contracts/Market.sol\":6116:6406  if(status == 0 || status == 4){... */\n      iszero\n      tag_161\n      jumpi\n        /* \"contracts/Market.sol\":6179:6184  pairs */\n      0x11\n        /* \"contracts/Market.sol\":6179:6191  pairs.length */\n      sload\n        /* \"contracts/Market.sol\":6160:6176  uint pairsLength */\n      0x00\n        /* \"contracts/Market.sol\":6205:6296  for(uint i = 0; i < pairsLength; i++){... */\n    tag_201:\n        /* \"contracts/Market.sol\":6225:6236  pairsLength */\n      dup2\n        /* \"contracts/Market.sol\":6221:6222  i */\n      dup2\n        /* \"contracts/Market.sol\":6221:6236  i < pairsLength */\n      lt\n        /* \"contracts/Market.sol\":6205:6296  for(uint i = 0; i < pairsLength; i++){... */\n      iszero\n      tag_202\n      jumpi\n        /* \"contracts/Market.sol\":6260:6281  _cancelPair(pairs[i]) */\n      tag_204\n        /* \"contracts/Market.sol\":6272:6277  pairs */\n      0x11\n        /* \"contracts/Market.sol\":6278:6279  i */\n      dup3\n        /* \"contracts/Market.sol\":6272:6280  pairs[i] */\n      dup2\n      sload\n      dup2\n      lt\n      tag_205\n      jumpi\n      mstore(0x00, shl(0xe0, 0x4e487b71))\n      mstore(0x04, 0x32)\n      revert(0x00, 0x24)\n    tag_205:\n      swap1\n      0x00\n      mstore\n      keccak256(0x00, 0x20)\n      add\n      sload\n        /* \"contracts/Market.sol\":6260:6271  _cancelPair */\n      tag_207\n        /* \"contracts/Market.sol\":6260:6281  _cancelPair(pairs[i]) */\n      jump\t// in\n    tag_204:\n      pop\n        /* \"contracts/Market.sol\":6238:6241  i++ */\n      dup1\n      tag_208\n      dup2\n      tag_152\n      jump\t// in\n    tag_208:\n      swap2\n      pop\n      pop\n        /* \"contracts/Market.sol\":6205:6296  for(uint i = 0; i < pairsLength; i++){... */\n      jump(tag_201)\n    tag_202:\n      pop\n      pop\n        /* \"contracts/Market.sol\":6318:6319  3 */\n      0x03\n        /* \"contracts/Market.sol\":6309:6315  status */\n      0x0c\n        /* \"contracts/Market.sol\":6309:6319  status = 3 */\n      sstore\n      pop\n        /* \"contracts/Market.sol\":6340:6344  true */\n      0x01\n        /* \"contracts/Market.sol\":6418:6625  function stopNewBet() external override onlyFactory returns(bool){... */\n      swap1\n      jump\t// out\n        /* \"contracts/Market.sol\":6631:9371  function addBet(... */\n    tag_83:\n        /* \"contracts/Market.sol\":982:985  app */\n      sload(0x0b)\n        /* \"contracts/Market.sol\":982:1005  app.isBlack(msg.sender) */\n      mload(0x40)\n      shl(0xe0, 0x332daccf)\n      dup2\n      mstore\n        /* \"contracts/Market.sol\":994:1004  msg.sender */\n      caller\n        /* \"contracts/Market.sol\":982:1005  app.isBlack(msg.sender) */\n      0x04\n      dup3\n      add\n        /* \"#utility.yul\":2908:2959   */\n      mstore\n        /* \"contracts/Market.sol\":6826:6833  bytes32 */\n      0x00\n      swap2\n      sub(shl(0xa0, 0x01), 0x01)\n        /* \"contracts/Market.sol\":982:985  app */\n      and\n      swap1\n        /* \"contracts/Market.sol\":982:993  app.isBlack */\n      0x332daccf\n      swap1\n        /* \"#utility.yul\":2881:2899   */\n      0x24\n      add\n        /* \"contracts/Market.sol\":982:1005  app.isBlack(msg.sender) */\n      0x20\n      mload(0x40)\n      dup1\n      dup4\n      sub\n      dup2\n      dup7\n      dup1\n      extcodesize\n      iszero\n      dup1\n      iszero\n      tag_215\n      jumpi\n      0x00\n      dup1\n      revert\n    tag_215:\n      pop\n      gas\n      staticcall\n      iszero\n      dup1\n      iszero\n      tag_217\n      jumpi\n      returndatasize\n      0x00\n      dup1\n      returndatacopy\n      revert(0x00, returndatasize)\n    tag_217:\n      pop\n      pop\n      pop\n      pop\n      mload(0x40)\n      returndatasize\n      not(0x1f)\n      0x1f\n      dup3\n      add\n      and\n      dup3\n      add\n      dup1\n      0x40\n      mstore\n      pop\n      dup2\n      add\n      swap1\n      tag_218\n      swap2\n      swap1\n      tag_137\n      jump\t// in\n    tag_218:\n        /* \"contracts/Market.sol\":981:1005  !app.isBlack(msg.sender) */\n      iszero\n        /* \"contracts/Market.sol\":973:1012  require(!app.isBlack(msg.sender), \"M1\") */\n      tag_219\n      jumpi\n      mload(0x40)\n      shl(0xe5, 0x461bcd)\n      dup2\n      mstore\n        /* \"#utility.yul\":8469:8471   */\n      0x20\n        /* \"contracts/Market.sol\":973:1012  require(!app.isBlack(msg.sender), \"M1\") */\n      0x04\n      dup3\n      add\n        /* \"#utility.yul\":8451:8472   */\n      mstore\n        /* \"#utility.yul\":8508:8509   */\n      0x02\n        /* \"#utility.yul\":8488:8506   */\n      0x24\n      dup3\n      add\n        /* \"#utility.yul\":8481:8510   */\n      mstore\n      shl(0xf0, 0x4d31)\n        /* \"#utility.yul\":8526:8544   */\n      0x44\n      dup3\n      add\n        /* \"#utility.yul\":8519:8551   */\n      mstore\n        /* \"#utility.yul\":8568:8586   */\n      0x64\n      add\n        /* \"contracts/Market.sol\":973:1012  require(!app.isBlack(msg.sender), \"M1\") */\n      tag_102\n        /* \"#utility.yul\":8441:8592   */\n      jump\n        /* \"contracts/Market.sol\":973:1012  require(!app.isBlack(msg.sender), \"M1\") */\n    tag_219:\n        /* \"contracts/Market.sol\":6857:6863  status */\n      sload(0x0c)\n        /* \"contracts/Market.sol\":6857:6868  status == 0 */\n      iszero\n        /* \"contracts/Market.sol\":6849:6875  require(status == 0, \"M7\") */\n      tag_223\n      jumpi\n      mload(0x40)\n      shl(0xe5, 0x461bcd)\n      dup2\n      mstore\n        /* \"#utility.yul\":7785:7787   */\n      0x20\n        /* \"contracts/Market.sol\":6849:6875  require(status == 0, \"M7\") */\n      0x04\n      dup3\n      add\n        /* \"#utility.yul\":7767:7788   */\n      mstore\n        /* \"#utility.yul\":7824:7825   */\n      0x02\n        /* \"#utility.yul\":7804:7822   */\n      0x24\n      dup3\n      add\n        /* \"#utility.yul\":7797:7826   */\n      mstore\n      shl(0xf0, 0x4d37)\n        /* \"#utility.yul\":7842:7860   */\n      0x44\n      dup3\n      add\n        /* \"#utility.yul\":7835:7867   */\n      mstore\n        /* \"#utility.yul\":7884:7902   */\n      0x64\n      add\n        /* \"contracts/Market.sol\":6849:6875  require(status == 0, \"M7\") */\n      tag_102\n        /* \"#utility.yul\":7757:7908   */\n      jump\n        /* \"contracts/Market.sol\":6849:6875  require(status == 0, \"M7\") */\n    tag_223:\n        /* \"contracts/Market.sol\":6893:6898  _side */\n      dup3\n        /* \"contracts/Market.sol\":6902:6903  1 */\n      0x01\n        /* \"contracts/Market.sol\":6893:6903  _side == 1 */\n      eq\n        /* \"contracts/Market.sol\":6893:6917  _side == 1 || _side == 2 */\n      dup1\n      tag_226\n      jumpi\n      pop\n        /* \"contracts/Market.sol\":6907:6912  _side */\n      dup3\n        /* \"contracts/Market.sol\":6916:6917  2 */\n      0x02\n        /* \"contracts/Market.sol\":6907:6917  _side == 2 */\n      eq\n        /* \"contracts/Market.sol\":6893:6917  _side == 1 || _side == 2 */\n    tag_226:\n        /* \"contracts/Market.sol\":6885:6934  require(_side == 1 || _side == 2, \"invalid side\") */\n      tag_227\n      jumpi\n      mload(0x40)\n      shl(0xe5, 0x461bcd)\n      dup2\n      mstore\n        /* \"#utility.yul\":7114:7116   */\n      0x20\n        /* \"contracts/Market.sol\":6885:6934  require(_side == 1 || _side == 2, \"invalid side\") */\n      0x04\n      dup3\n      add\n        /* \"#utility.yul\":7096:7117   */\n      mstore\n        /* \"#utility.yul\":7153:7155   */\n      0x0c\n        /* \"#utility.yul\":7133:7151   */\n      0x24\n      dup3\n      add\n        /* \"#utility.yul\":7126:7156   */\n      mstore\n      shl(0xa0, 0x696e76616c69642073696465)\n        /* \"#utility.yul\":7172:7190   */\n      0x44\n      dup3\n      add\n        /* \"#utility.yul\":7165:7207   */\n      mstore\n        /* \"#utility.yul\":7224:7242   */\n      0x64\n      add\n        /* \"contracts/Market.sol\":6885:6934  require(_side == 1 || _side == 2, \"invalid side\") */\n      tag_102\n        /* \"#utility.yul\":7086:7248   */\n      jump\n        /* \"contracts/Market.sol\":6885:6934  require(_side == 1 || _side == 2, \"invalid side\") */\n    tag_227:\n        /* \"contracts/Market.sol\":6952:6979  token.balanceOf(msg.sender) */\n      mload(0x40)\n      shl(0xe0, 0x70a08231)\n      dup2\n      mstore\n        /* \"contracts/Market.sol\":6968:6978  msg.sender */\n      caller\n        /* \"contracts/Market.sol\":6952:6979  token.balanceOf(msg.sender) */\n      0x04\n      dup3\n      add\n        /* \"#utility.yul\":2908:2959   */\n      mstore\n        /* \"contracts/Market.sol\":6983:6989  _stake */\n      dup6\n      swap1\n        /* \"contracts/Market.sol\":6952:6957  token */\n      immutable(\"0xe7fcf89c34605f23590ff58513f1080dc375dd06cc5e256320151057827a258a\")\n      sub(shl(0xa0, 0x01), 0x01)\n        /* \"contracts/Market.sol\":6952:6967  token.balanceOf */\n      and\n      swap1\n      0x70a08231\n      swap1\n        /* \"#utility.yul\":2881:2899   */\n      0x24\n      add\n        /* \"contracts/Market.sol\":6952:6979  token.balanceOf(msg.sender) */\n      0x20\n      mload(0x40)\n      dup1\n      dup4\n      sub\n      dup2\n      dup7\n      dup1\n      extcodesize\n      iszero\n      dup1\n      iszero\n      tag_231\n      jumpi\n      0x00\n      dup1\n      revert\n    tag_231:\n      pop\n      gas\n      staticcall\n      iszero\n      dup1\n      iszero\n      tag_233\n      jumpi\n      returndatasize\n      0x00\n      dup1\n      returndatacopy\n      revert(0x00, returndatasize)\n    tag_233:\n      pop\n      pop\n      pop\n      pop\n      mload(0x40)\n      returndatasize\n      not(0x1f)\n      0x1f\n      dup3\n      add\n      and\n      dup3\n      add\n      dup1\n      0x40\n      mstore\n      pop\n      dup2\n      add\n      swap1\n      tag_234\n      swap2\n      swap1\n      tag_126\n      jump\t// in\n    tag_234:\n        /* \"contracts/Market.sol\":6952:6989  token.balanceOf(msg.sender) >= _stake */\n      lt\n      iszero\n        /* \"contracts/Market.sol\":6944:7018  require(token.balanceOf(msg.sender) >= _stake,\"not enough token balalnce\") */\n      tag_235\n      jumpi\n      mload(0x40)\n      shl(0xe5, 0x461bcd)\n      dup2\n      mstore\n        /* \"#utility.yul\":8115:8117   */\n      0x20\n        /* \"contracts/Market.sol\":6944:7018  require(token.balanceOf(msg.sender) >= _stake,\"not enough token balalnce\") */\n      0x04\n      dup3\n      add\n        /* \"#utility.yul\":8097:8118   */\n      mstore\n        /* \"#utility.yul\":8154:8156   */\n      0x19\n        /* \"#utility.yul\":8134:8152   */\n      0x24\n      dup3\n      add\n        /* \"#utility.yul\":8127:8157   */\n      mstore\n        /* \"#utility.yul\":8193:8220   */\n      0x6e6f7420656e6f75676820746f6b656e2062616c616c6e636500000000000000\n        /* \"#utility.yul\":8173:8191   */\n      0x44\n      dup3\n      add\n        /* \"#utility.yul\":8166:8221   */\n      mstore\n        /* \"#utility.yul\":8238:8256   */\n      0x64\n      add\n        /* \"contracts/Market.sol\":6944:7018  require(token.balanceOf(msg.sender) >= _stake,\"not enough token balalnce\") */\n      tag_102\n        /* \"#utility.yul\":8087:8262   */\n      jump\n        /* \"contracts/Market.sol\":6944:7018  require(token.balanceOf(msg.sender) >= _stake,\"not enough token balalnce\") */\n    tag_235:\n        /* \"contracts/Market.sol\":7036:7078  token.allowance(msg.sender, address(this)) */\n      mload(0x40)\n      shl(0xe1, 0x6eb1769f)\n      dup2\n      mstore\n        /* \"contracts/Market.sol\":7052:7062  msg.sender */\n      caller\n        /* \"contracts/Market.sol\":7036:7078  token.allowance(msg.sender, address(this)) */\n      0x04\n      dup3\n      add\n        /* \"#utility.yul\":3182:3216   */\n      mstore\n        /* \"contracts/Market.sol\":7072:7076  this */\n      address\n        /* \"#utility.yul\":3232:3250   */\n      0x24\n      dup3\n      add\n        /* \"#utility.yul\":3225:3268   */\n      mstore\n        /* \"contracts/Market.sol\":7082:7088  _stake */\n      dup6\n      swap1\n        /* \"contracts/Market.sol\":7036:7041  token */\n      immutable(\"0xe7fcf89c34605f23590ff58513f1080dc375dd06cc5e256320151057827a258a\")\n      sub(shl(0xa0, 0x01), 0x01)\n        /* \"contracts/Market.sol\":7036:7051  token.allowance */\n      and\n      swap1\n      0xdd62ed3e\n      swap1\n        /* \"#utility.yul\":3117:3135   */\n      0x44\n      add\n        /* \"contracts/Market.sol\":7036:7078  token.allowance(msg.sender, address(this)) */\n      0x20\n      mload(0x40)\n      dup1\n      dup4\n      sub\n      dup2\n      dup7\n      dup1\n      extcodesize\n      iszero\n      dup1\n      iszero\n      tag_240\n      jumpi\n      0x00\n      dup1\n      revert\n    tag_240:\n      pop\n      gas\n      staticcall\n      iszero\n      dup1\n      iszero\n      tag_242\n      jumpi\n      returndatasize\n      0x00\n      dup1\n      returndatacopy\n      revert(0x00, returndatasize)\n    tag_242:\n      pop\n      pop\n      pop\n      pop\n      mload(0x40)\n      returndatasize\n      not(0x1f)\n      0x1f\n      dup3\n      add\n      and\n      dup3\n      add\n      dup1\n      0x40\n      mstore\n      pop\n      dup2\n      add\n      swap1\n      tag_243\n      swap2\n      swap1\n      tag_126\n      jump\t// in\n    tag_243:\n        /* \"contracts/Market.sol\":7036:7088  token.allowance(msg.sender, address(this)) >= _stake */\n      lt\n      iszero\n        /* \"contracts/Market.sol\":7028:7112  require(token.allowance(msg.sender, address(this)) >= _stake,\"not enough allowance\") */\n      tag_244\n      jumpi\n      mload(0x40)\n      shl(0xe5, 0x461bcd)\n      dup2\n      mstore\n        /* \"#utility.yul\":8799:8801   */\n      0x20\n        /* \"contracts/Market.sol\":7028:7112  require(token.allowance(msg.sender, address(this)) >= _stake,\"not enough allowance\") */\n      0x04\n      dup3\n      add\n        /* \"#utility.yul\":8781:8802   */\n      mstore\n        /* \"#utility.yul\":8838:8840   */\n      0x14\n        /* \"#utility.yul\":8818:8836   */\n      0x24\n      dup3\n      add\n        /* \"#utility.yul\":8811:8841   */\n      mstore\n      shl(0x60, 0x6e6f7420656e6f75676820616c6c6f77616e6365)\n        /* \"#utility.yul\":8857:8875   */\n      0x44\n      dup3\n      add\n        /* \"#utility.yul\":8850:8900   */\n      mstore\n        /* \"#utility.yul\":8917:8935   */\n      0x64\n      add\n        /* \"contracts/Market.sol\":7028:7112  require(token.allowance(msg.sender, address(this)) >= _stake,\"not enough allowance\") */\n      tag_102\n        /* \"#utility.yul\":8771:8941   */\n      jump\n        /* \"contracts/Market.sol\":7028:7112  require(token.allowance(msg.sender, address(this)) >= _stake,\"not enough allowance\") */\n    tag_244:\n        /* \"contracts/Market.sol\":7140:7150  a.minStake */\n      sload(0x06)\n        /* \"contracts/Market.sol\":7130:7150  _stake >= a.minStake */\n      dup6\n      lt\n      iszero\n        /* \"contracts/Market.sol\":7122:7173  require(_stake >= a.minStake,\"less than min stake\") */\n      tag_247\n      jumpi\n      mload(0x40)\n      shl(0xe5, 0x461bcd)\n      dup2\n      mstore\n        /* \"#utility.yul\":5750:5752   */\n      0x20\n        /* \"contracts/Market.sol\":7122:7173  require(_stake >= a.minStake,\"less than min stake\") */\n      0x04\n      dup3\n      add\n        /* \"#utility.yul\":5732:5753   */\n      mstore\n        /* \"#utility.yul\":5789:5791   */\n      0x13\n        /* \"#utility.yul\":5769:5787   */\n      0x24\n      dup3\n      add\n        /* \"#utility.yul\":5762:5792   */\n      mstore\n      shl(0x68, 0x6c657373207468616e206d696e207374616b65)\n        /* \"#utility.yul\":5808:5826   */\n      0x44\n      dup3\n      add\n        /* \"#utility.yul\":5801:5850   */\n      mstore\n        /* \"#utility.yul\":5867:5885   */\n      0x64\n      add\n        /* \"contracts/Market.sol\":7122:7173  require(_stake >= a.minStake,\"less than min stake\") */\n      tag_102\n        /* \"#utility.yul\":5722:5891   */\n      jump\n        /* \"contracts/Market.sol\":7122:7173  require(_stake >= a.minStake,\"less than min stake\") */\n    tag_247:\n        /* \"contracts/Market.sol\":7204:7257  token.transferFrom(msg.sender, address(this), _stake) */\n      mload(0x40)\n      shl(0xe0, 0x23b872dd)\n      dup2\n      mstore\n        /* \"contracts/Market.sol\":7223:7233  msg.sender */\n      caller\n        /* \"contracts/Market.sol\":7204:7257  token.transferFrom(msg.sender, address(this), _stake) */\n      0x04\n      dup3\n      add\n        /* \"#utility.yul\":4115:4149   */\n      mstore\n        /* \"contracts/Market.sol\":7243:7247  this */\n      address\n        /* \"#utility.yul\":4165:4183   */\n      0x24\n      dup3\n      add\n        /* \"#utility.yul\":4158:4201   */\n      mstore\n        /* \"#utility.yul\":4217:4235   */\n      0x44\n      dup2\n      add\n        /* \"#utility.yul\":4210:4244   */\n      dup7\n      swap1\n      mstore\n        /* \"contracts/Market.sol\":7204:7209  token */\n      immutable(\"0xe7fcf89c34605f23590ff58513f1080dc375dd06cc5e256320151057827a258a\")\n      sub(shl(0xa0, 0x01), 0x01)\n        /* \"contracts/Market.sol\":7204:7222  token.transferFrom */\n      and\n      swap1\n      0x23b872dd\n      swap1\n        /* \"#utility.yul\":4050:4068   */\n      0x64\n      add\n        /* \"contracts/Market.sol\":7204:7257  token.transferFrom(msg.sender, address(this), _stake) */\n      0x20\n      mload(0x40)\n      dup1\n      dup4\n      sub\n      dup2\n      0x00\n      dup8\n      dup1\n      extcodesize\n      iszero\n      dup1\n      iszero\n      tag_252\n      jumpi\n      0x00\n      dup1\n      revert\n    tag_252:\n      pop\n      gas\n      call\n      iszero\n      dup1\n      iszero\n      tag_254\n      jumpi\n      returndatasize\n      0x00\n      dup1\n      returndatacopy\n      revert(0x00, returndatasize)\n    tag_254:\n      pop\n      pop\n      pop\n      pop\n      mload(0x40)\n      returndatasize\n      not(0x1f)\n      0x1f\n      dup3\n      add\n      and\n      dup3\n      add\n      dup1\n      0x40\n      mstore\n      pop\n      dup2\n      add\n      swap1\n      tag_255\n      swap2\n      swap1\n      tag_137\n      jump\t// in\n    tag_255:\n        /* \"contracts/Market.sol\":7183:7310  require(... */\n      tag_256\n      jumpi\n      mload(0x40)\n      shl(0xe5, 0x461bcd)\n      dup2\n      mstore\n        /* \"#utility.yul\":6428:6430   */\n      0x20\n        /* \"contracts/Market.sol\":7183:7310  require(... */\n      0x04\n      dup3\n      add\n        /* \"#utility.yul\":6410:6431   */\n      mstore\n        /* \"#utility.yul\":6467:6469   */\n      0x1b\n        /* \"#utility.yul\":6447:6465   */\n      0x24\n      dup3\n      add\n        /* \"#utility.yul\":6440:6470   */\n      mstore\n        /* \"#utility.yul\":6506:6535   */\n      0x7472616e736665722066726f6d2063616c6c6572206661696c65640000000000\n        /* \"#utility.yul\":6486:6504   */\n      0x44\n      dup3\n      add\n        /* \"#utility.yul\":6479:6536   */\n      mstore\n        /* \"#utility.yul\":6553:6571   */\n      0x64\n      add\n        /* \"contracts/Market.sol\":7183:7310  require(... */\n      tag_102\n        /* \"#utility.yul\":6400:6577   */\n      jump\n        /* \"contracts/Market.sol\":7183:7310  require(... */\n    tag_256:\n        /* \"contracts/Market.sol\":7320:7335  bytes32 betHash */\n      0x00\n        /* \"contracts/Market.sol\":7338:7503  _createBet(... */\n      tag_259\n        /* \"contracts/Market.sol\":7362:7372  msg.sender */\n      caller\n        /* \"contracts/Market.sol\":7386:7396  _affiliate */\n      dup9\n        /* \"contracts/Market.sol\":7410:7416  _stake */\n      dup9\n        /* \"contracts/Market.sol\":7320:7335  bytes32 betHash */\n      dup5\n        /* \"contracts/Market.sol\":7462:7473  _odds - 100 */\n      tag_260\n        /* \"contracts/Market.sol\":7470:7473  100 */\n      0x64\n        /* \"contracts/Market.sol\":7462:7467  _odds */\n      dup12\n        /* \"contracts/Market.sol\":7462:7473  _odds - 100 */\n      tag_171\n      jump\t// in\n    tag_260:\n        /* \"contracts/Market.sol\":7446:7457  _odds * 100 */\n      tag_261\n        /* \"contracts/Market.sol\":7446:7451  _odds */\n      dup12\n        /* \"contracts/Market.sol\":7454:7457  100 */\n      0x64\n        /* \"contracts/Market.sol\":7446:7457  _odds * 100 */\n      tag_262\n      jump\t// in\n    tag_261:\n        /* \"contracts/Market.sol\":7445:7474  (_odds * 100) / (_odds - 100) */\n      tag_263\n      swap2\n      swap1\n      tag_264\n      jump\t// in\n    tag_263:\n        /* \"contracts/Market.sol\":7488:7493  _side */\n      dup10\n        /* \"contracts/Market.sol\":7338:7348  _createBet */\n      tag_265\n        /* \"contracts/Market.sol\":7338:7503  _createBet(... */\n      jump\t// in\n    tag_259:\n        /* \"contracts/Market.sol\":7749:7753  bets */\n      0x0e\n        /* \"contracts/Market.sol\":7749:7760  bets.length */\n      sload\n        /* \"contracts/Market.sol\":7320:7503  bytes32 betHash = _createBet(... */\n      swap1\n      swap2\n      pop\n        /* \"contracts/Market.sol\":7749:7764  bets.length > 0 */\n      iszero\n        /* \"contracts/Market.sol\":7746:9258  if(bets.length > 0){... */\n      tag_266\n      jumpi\n        /* \"contracts/Market.sol\":7837:7841  bets */\n      0x0e\n        /* \"contracts/Market.sol\":7837:7848  bets.length */\n      sload\n        /* \"contracts/Market.sol\":7796:7802  _stake */\n      dup7\n      swap1\n        /* \"contracts/Market.sol\":7862:9248  while(_remStake >= a.minStake){... */\n    tag_267:\n        /* \"contracts/Market.sol\":7881:7891  a.minStake */\n      sload(0x06)\n        /* \"contracts/Market.sol\":7868:7891  _remStake >= a.minStake */\n      dup3\n      lt\n        /* \"contracts/Market.sol\":7862:9248  while(_remStake >= a.minStake){... */\n      tag_268\n      jumpi\n        /* \"contracts/Market.sol\":7910:7928  uint selectedIndex */\n      0x00\n        /* \"contracts/Market.sol\":7950:7965  uint256 maxOdds */\n      dup1\n        /* \"contracts/Market.sol\":7991:7997  uint i */\n      0x00\n        /* \"contracts/Market.sol\":7987:8586  for(uint i = 0; i < betsLength; i++){... */\n    tag_269:\n        /* \"contracts/Market.sol\":8007:8017  betsLength */\n      dup4\n        /* \"contracts/Market.sol\":8003:8004  i */\n      dup2\n        /* \"contracts/Market.sol\":8003:8017  i < betsLength */\n      lt\n        /* \"contracts/Market.sol\":7987:8586  for(uint i = 0; i < betsLength; i++){... */\n      iszero\n      tag_270\n      jumpi\n        /* \"contracts/Market.sol\":8045:8056  bytes32 bet */\n      0x00\n        /* \"contracts/Market.sol\":8059:8063  bets */\n      0x0e\n        /* \"contracts/Market.sol\":8064:8065  i */\n      dup3\n        /* \"contracts/Market.sol\":8059:8066  bets[i] */\n      dup2\n      sload\n      dup2\n      lt\n      tag_272\n      jumpi\n      mstore(0x00, shl(0xe0, 0x4e487b71))\n      mstore(0x04, 0x32)\n      revert(0x00, 0x24)\n    tag_272:\n      swap1\n      0x00\n      mstore\n      keccak256(0x00, 0x20)\n      add\n      sload\n        /* \"contracts/Market.sol\":8045:8066  bytes32 bet = bets[i] */\n      swap1\n      pop\n        /* \"contracts/Market.sol\":8100:8108  betsInfo */\n      0x10\n        /* \"contracts/Market.sol\":8100:8113  betsInfo[bet] */\n      0x00\n        /* \"contracts/Market.sol\":8109:8112  bet */\n      dup3\n        /* \"contracts/Market.sol\":8100:8113  betsInfo[bet] */\n      dup2\n      mstore\n      0x20\n      add\n      swap1\n      dup2\n      mstore\n      0x20\n      add\n      0x00\n      keccak256\n        /* \"contracts/Market.sol\":8100:8118  betsInfo[bet].side */\n      0x05\n      add\n      sload\n        /* \"contracts/Market.sol\":8091:8096  _side */\n      dup11\n        /* \"contracts/Market.sol\":8091:8118  _side == betsInfo[bet].side */\n      eq\n        /* \"contracts/Market.sol\":8088:8176  if(_side == betsInfo[bet].side){... */\n      iszero\n      tag_274\n      jumpi\n        /* \"contracts/Market.sol\":8145:8153  continue */\n      pop\n      jump(tag_271)\n        /* \"contracts/Market.sol\":8088:8176  if(_side == betsInfo[bet].side){... */\n    tag_274:\n        /* \"contracts/Market.sol\":8317:8330  betsInfo[bet] */\n      0x00\n      dup2\n      dup2\n      mstore\n        /* \"contracts/Market.sol\":8317:8325  betsInfo */\n      0x10\n        /* \"contracts/Market.sol\":8317:8330  betsInfo[bet] */\n      0x20\n      mstore\n      0x40\n      swap1\n      keccak256\n        /* \"contracts/Market.sol\":8317:8337  betsInfo[bet].better */\n      sload\n      sub(shl(0xa0, 0x01), 0x01)\n      and\n        /* \"contracts/Market.sol\":8303:8313  msg.sender */\n      caller\n        /* \"contracts/Market.sol\":8303:8337  msg.sender == betsInfo[bet].better */\n      eq\n        /* \"contracts/Market.sol\":8300:8395  if(msg.sender == betsInfo[bet].better){... */\n      iszero\n      tag_275\n      jumpi\n        /* \"contracts/Market.sol\":8364:8372  continue */\n      pop\n      jump(tag_271)\n        /* \"contracts/Market.sol\":8300:8395  if(msg.sender == betsInfo[bet].better){... */\n    tag_275:\n        /* \"contracts/Market.sol\":8419:8432  betsInfo[bet] */\n      0x00\n      dup2\n      dup2\n      mstore\n        /* \"contracts/Market.sol\":8419:8427  betsInfo */\n      0x10\n        /* \"contracts/Market.sol\":8419:8432  betsInfo[bet] */\n      0x20\n      mstore\n      0x40\n      swap1\n      keccak256\n        /* \"contracts/Market.sol\":8419:8437  betsInfo[bet].odds */\n      0x04\n      add\n      sload\n        /* \"contracts/Market.sol\":8419:8447  betsInfo[bet].odds > maxOdds */\n      dup4\n      lt\n        /* \"contracts/Market.sol\":8416:8568  if(betsInfo[bet].odds > maxOdds){... */\n      iszero\n      tag_276\n      jumpi\n        /* \"contracts/Market.sol\":8484:8497  betsInfo[bet] */\n      0x00\n      dup2\n      dup2\n      mstore\n        /* \"contracts/Market.sol\":8484:8492  betsInfo */\n      0x10\n        /* \"contracts/Market.sol\":8484:8497  betsInfo[bet] */\n      0x20\n      mstore\n      0x40\n      swap1\n      keccak256\n        /* \"contracts/Market.sol\":8484:8502  betsInfo[bet].odds */\n      0x04\n      add\n      sload\n        /* \"contracts/Market.sol\":8544:8545  i */\n      swap2\n      swap4\n      pop\n        /* \"contracts/Market.sol\":8484:8502  betsInfo[bet].odds */\n      swap1\n      swap2\n      pop\n        /* \"contracts/Market.sol\":8544:8545  i */\n      dup3\n      swap1\n        /* \"contracts/Market.sol\":8416:8568  if(betsInfo[bet].odds > maxOdds){... */\n    tag_276:\n        /* \"contracts/Market.sol\":7987:8586  for(uint i = 0; i < betsLength; i++){... */\n      pop\n    tag_271:\n        /* \"contracts/Market.sol\":8019:8022  i++ */\n      dup1\n      tag_277\n      dup2\n      tag_152\n      jump\t// in\n    tag_277:\n      swap2\n      pop\n      pop\n        /* \"contracts/Market.sol\":7987:8586  for(uint i = 0; i < betsLength; i++){... */\n      jump(tag_269)\n    tag_270:\n      pop\n        /* \"contracts/Market.sol\":8603:8623  uint256 betterAmount */\n      0x00\n        /* \"contracts/Market.sol\":8659:8664  _odds */\n      dup10\n        /* \"contracts/Market.sol\":8648:8655  maxOdds */\n      dup3\n        /* \"contracts/Market.sol\":8648:8664  maxOdds >= _odds */\n      lt\n      iszero\n        /* \"contracts/Market.sol\":8648:8693  maxOdds >= _odds || (maxOdds > 0 && _instant) */\n      dup1\n      tag_279\n      jumpi\n      pop\n        /* \"contracts/Market.sol\":8679:8680  0 */\n      0x00\n        /* \"contracts/Market.sol\":8669:8676  maxOdds */\n      dup3\n        /* \"contracts/Market.sol\":8669:8680  maxOdds > 0 */\n      gt\n        /* \"contracts/Market.sol\":8669:8692  maxOdds > 0 && _instant */\n      dup1\n      iszero\n      tag_279\n      jumpi\n      pop\n        /* \"contracts/Market.sol\":8684:8692  _instant */\n      dup8\n        /* \"contracts/Market.sol\":8669:8692  maxOdds > 0 && _instant */\n    tag_279:\n        /* \"contracts/Market.sol\":8645:9191  if(maxOdds >= _odds || (maxOdds > 0 && _instant)) {... */\n      iszero\n      tag_280\n      jumpi\n        /* \"contracts/Market.sol\":8717:8737  bytes32 selectedHash */\n      0x00\n        /* \"contracts/Market.sol\":8740:8744  bets */\n      0x0e\n        /* \"contracts/Market.sol\":8745:8758  selectedIndex */\n      dup5\n        /* \"contracts/Market.sol\":8740:8759  bets[selectedIndex] */\n      dup2\n      sload\n      dup2\n      lt\n      tag_281\n      jumpi\n      mstore(0x00, shl(0xe0, 0x4e487b71))\n      mstore(0x04, 0x32)\n      revert(0x00, 0x24)\n    tag_281:\n      0x00\n      swap2\n      dup3\n      mstore\n      0x20\n      dup1\n      dup4\n      keccak256\n      swap1\n      swap2\n      add\n      sload\n        /* \"contracts/Market.sol\":8819:8841  betsInfo[selectedHash] */\n      dup1\n      dup4\n      mstore\n        /* \"contracts/Market.sol\":8819:8827  betsInfo */\n      0x10\n        /* \"contracts/Market.sol\":8819:8841  betsInfo[selectedHash] */\n      dup3\n      mstore\n      0x40\n      dup1\n      dup5\n      keccak256\n        /* \"contracts/Market.sol\":8781:8841  Struct.MarketBet memory selectedBet = betsInfo[selectedHash] */\n      dup2\n      mload\n      0xc0\n      dup2\n      add\n      dup4\n      mstore\n      dup2\n      sload\n      sub(shl(0xa0, 0x01), 0x01)\n      swap1\n      dup2\n      and\n      dup3\n      mstore\n      0x01\n      dup4\n      add\n      sload\n      and\n      swap5\n      dup2\n      add\n      swap5\n      swap1\n      swap5\n      mstore\n      0x02\n      dup2\n      add\n      sload\n      swap2\n      dup5\n      add\n      swap2\n      swap1\n      swap2\n      mstore\n      0x03\n      dup2\n      add\n      sload\n      0x60\n      dup5\n      add\n      mstore\n      0x04\n      dup2\n      add\n      sload\n      0x80\n      dup5\n      add\n      mstore\n      0x05\n      add\n      sload\n      0xa0\n      dup4\n      add\n      mstore\n        /* \"contracts/Market.sol\":8740:8759  bets[selectedIndex] */\n      swap3\n      pop\n        /* \"contracts/Market.sol\":8781:8841  Struct.MarketBet memory selectedBet = betsInfo[selectedHash] */\n      swap1\n        /* \"contracts/Market.sol\":8928:8939  _odds - 100 */\n      tag_283\n        /* \"contracts/Market.sol\":8936:8939  100 */\n      0x64\n        /* \"contracts/Market.sol\":8928:8933  _odds */\n      dup15\n        /* \"contracts/Market.sol\":8928:8939  _odds - 100 */\n      tag_171\n      jump\t// in\n    tag_283:\n        /* \"contracts/Market.sol\":8904:8915  selectedBet */\n      dup3\n        /* \"contracts/Market.sol\":8904:8923  selectedBet.matched */\n      0x60\n      add\n      mload\n        /* \"contracts/Market.sol\":8884:8895  selectedBet */\n      dup4\n        /* \"contracts/Market.sol\":8884:8901  selectedBet.stake */\n      0x40\n      add\n      mload\n        /* \"contracts/Market.sol\":8884:8923  selectedBet.stake - selectedBet.matched */\n      tag_284\n      swap2\n      swap1\n      tag_171\n      jump\t// in\n    tag_284:\n        /* \"contracts/Market.sol\":8883:8940  (selectedBet.stake - selectedBet.matched) / (_odds - 100) */\n      tag_285\n      swap2\n      swap1\n      tag_264\n      jump\t// in\n    tag_285:\n        /* \"contracts/Market.sol\":8863:8940  uint offeredStake = (selectedBet.stake - selectedBet.matched) / (_odds - 100) */\n      swap1\n      pop\n        /* \"contracts/Market.sol\":8962:8981  offeredStake *= 100 */\n      tag_286\n        /* \"contracts/Market.sol\":8978:8981  100 */\n      0x64\n        /* \"contracts/Market.sol\":8863:8940  uint offeredStake = (selectedBet.stake - selectedBet.matched) / (_odds - 100) */\n      dup3\n        /* \"contracts/Market.sol\":8962:8981  offeredStake *= 100 */\n      tag_262\n      jump\t// in\n    tag_286:\n      swap1\n      pop\n        /* \"contracts/Market.sol\":9039:9104  _match(_stake, offeredStake, _odds, _side, betHash, selectedHash) */\n      tag_287\n        /* \"contracts/Market.sol\":9046:9052  _stake */\n      dup15\n        /* \"contracts/Market.sol\":9054:9066  offeredStake */\n      dup3\n        /* \"contracts/Market.sol\":9068:9073  _odds */\n      dup16\n        /* \"contracts/Market.sol\":9075:9080  _side */\n      dup16\n        /* \"contracts/Market.sol\":9082:9089  betHash */\n      dup14\n        /* \"contracts/Market.sol\":9091:9103  selectedHash */\n      dup9\n        /* \"contracts/Market.sol\":9039:9045  _match */\n      tag_288\n        /* \"contracts/Market.sol\":9039:9104  _match(_stake, offeredStake, _odds, _side, betHash, selectedHash) */\n      jump\t// in\n    tag_287:\n        /* \"contracts/Market.sol\":9024:9104  betterAmount = _match(_stake, offeredStake, _odds, _side, betHash, selectedHash) */\n      swap4\n      pop\n        /* \"contracts/Market.sol\":8645:9191  if(maxOdds >= _odds || (maxOdds > 0 && _instant)) {... */\n      pop\n      pop\n      pop\n      jump(tag_289)\n    tag_280:\n        /* \"contracts/Market.sol\":9167:9172  break */\n      pop\n      pop\n      pop\n      jump(tag_268)\n        /* \"contracts/Market.sol\":8645:9191  if(maxOdds >= _odds || (maxOdds > 0 && _instant)) {... */\n    tag_289:\n        /* \"contracts/Market.sol\":9208:9233  _remStake -= betterAmount */\n      tag_290\n        /* \"contracts/Market.sol\":9221:9233  betterAmount */\n      dup2\n        /* \"contracts/Market.sol\":9208:9233  _remStake -= betterAmount */\n      dup7\n      tag_171\n      jump\t// in\n    tag_290:\n      swap5\n      pop\n        /* \"contracts/Market.sol\":7862:9248  while(_remStake >= a.minStake){... */\n      pop\n      pop\n      pop\n      jump(tag_267)\n    tag_268:\n        /* \"contracts/Market.sol\":7746:9258  if(bets.length > 0){... */\n      pop\n      pop\n    tag_266:\n        /* \"contracts/Market.sol\":9272:9340  BetCreated(msg.sender, address(this), betHash, _stake, _odds, _side) */\n      0x40\n      dup1\n      mload\n        /* \"contracts/Market.sol\":9283:9293  msg.sender */\n      caller\n        /* \"#utility.yul\":3604:3638   */\n      dup2\n      mstore\n        /* \"contracts/Market.sol\":9303:9307  this */\n      address\n        /* \"#utility.yul\":3669:3671   */\n      0x20\n        /* \"#utility.yul\":3654:3672   */\n      dup3\n      add\n        /* \"#utility.yul\":3647:3690   */\n      mstore\n        /* \"#utility.yul\":3706:3724   */\n      swap1\n      dup2\n      add\n        /* \"#utility.yul\":3699:3733   */\n      dup3\n      swap1\n      mstore\n        /* \"#utility.yul\":3764:3766   */\n      0x60\n        /* \"#utility.yul\":3749:3767   */\n      dup2\n      add\n        /* \"#utility.yul\":3742:3776   */\n      dup8\n      swap1\n      mstore\n        /* \"#utility.yul\":3807:3810   */\n      0x80\n        /* \"#utility.yul\":3792:3811   */\n      dup2\n      add\n        /* \"#utility.yul\":3785:3820   */\n      dup7\n      swap1\n      mstore\n        /* \"#utility.yul\":3584:3587   */\n      0xa0\n        /* \"#utility.yul\":3836:3855   */\n      dup2\n      add\n        /* \"#utility.yul\":3829:3864   */\n      dup6\n      swap1\n      mstore\n        /* \"contracts/Market.sol\":9272:9340  BetCreated(msg.sender, address(this), betHash, _stake, _odds, _side) */\n      0x618f358bb45538682ade624a4a1959053d9dabd20fe300508034b879681b37be\n      swap1\n        /* \"#utility.yul\":3553:3556   */\n      0xc0\n        /* \"#utility.yul\":3538:3557   */\n      add\n        /* \"contracts/Market.sol\":9272:9340  BetCreated(msg.sender, address(this), betHash, _stake, _odds, _side) */\n      mload(0x40)\n      dup1\n      swap2\n      sub\n      swap1\n      log1\n        /* \"contracts/Market.sol\":9357:9364  betHash */\n      swap7\n        /* \"contracts/Market.sol\":6631:9371  function addBet(... */\n      swap6\n      pop\n      pop\n      pop\n      pop\n      pop\n      pop\n      jump\t// out\n        /* \"contracts/Market.sol\":4882:5314  function setWinningSide(uint256 _winningSide)... */\n    tag_88:\n        /* \"contracts/Market.sol\":1103:1115  a.eventOwner */\n      sload(0x03)\n        /* \"contracts/Market.sol\":4996:5000  bool */\n      0x00\n      swap1\n      sub(shl(0xa0, 0x01), 0x01)\n        /* \"contracts/Market.sol\":1103:1115  a.eventOwner */\n      and\n        /* \"contracts/Market.sol\":1089:1099  msg.sender */\n      caller\n        /* \"contracts/Market.sol\":1089:1115  msg.sender == a.eventOwner */\n      eq\n      dup1\n        /* \"contracts/Market.sol\":1089:1142  msg.sender == a.eventOwner || msg.sender == a.factory */\n      tag_294\n      jumpi\n      pop\n        /* \"contracts/Market.sol\":1133:1142  a.factory */\n      and(sub(shl(0xa0, 0x01), 0x01), sload(0x02))\n        /* \"contracts/Market.sol\":1119:1129  msg.sender */\n      caller\n        /* \"contracts/Market.sol\":1119:1142  msg.sender == a.factory */\n      eq\n        /* \"contracts/Market.sol\":1089:1142  msg.sender == a.eventOwner || msg.sender == a.factory */\n    tag_294:\n        /* \"contracts/Market.sol\":1068:1170  require(... */\n      tag_295\n      jumpi\n      mload(0x40)\n      shl(0xe5, 0x461bcd)\n      dup2\n      mstore\n      0x04\n      add\n      tag_102\n      swap1\n      tag_159\n      jump\t// in\n    tag_295:\n        /* \"contracts/Market.sol\":5033:5039  status */\n      sload(0x0c)\n        /* \"contracts/Market.sol\":5033:5044  status == 0 */\n      iszero\n      dup1\n        /* \"contracts/Market.sol\":5033:5059  status == 0 || status == 1 */\n      tag_298\n      jumpi\n      pop\n        /* \"contracts/Market.sol\":5048:5054  status */\n      sload(0x0c)\n        /* \"contracts/Market.sol\":5058:5059  1 */\n      0x01\n        /* \"contracts/Market.sol\":5048:5059  status == 1 */\n      eq\n        /* \"contracts/Market.sol\":5033:5059  status == 0 || status == 1 */\n    tag_298:\n        /* \"contracts/Market.sol\":5033:5074  status == 0 || status == 1 || status == 2 */\n      dup1\n      tag_299\n      jumpi\n      pop\n        /* \"contracts/Market.sol\":5063:5069  status */\n      sload(0x0c)\n        /* \"contracts/Market.sol\":5073:5074  2 */\n      0x02\n        /* \"contracts/Market.sol\":5063:5074  status == 2 */\n      eq\n        /* \"contracts/Market.sol\":5033:5074  status == 0 || status == 1 || status == 2 */\n    tag_299:\n        /* \"contracts/Market.sol\":5033:5089  status == 0 || status == 1 || status == 2 || status == 4 */\n      dup1\n      tag_300\n      jumpi\n      pop\n        /* \"contracts/Market.sol\":5078:5084  status */\n      sload(0x0c)\n        /* \"contracts/Market.sol\":5088:5089  4 */\n      0x04\n        /* \"contracts/Market.sol\":5078:5089  status == 4 */\n      eq\n        /* \"contracts/Market.sol\":5033:5089  status == 0 || status == 1 || status == 2 || status == 4 */\n    tag_300:\n        /* \"contracts/Market.sol\":5032:5158  (status == 0 || status == 1 || status == 2 || status == 4)... */\n      dup1\n      iszero\n      tag_302\n      jumpi\n      pop\n        /* \"contracts/Market.sol\":5119:5131  _winningSide */\n      dup2\n        /* \"contracts/Market.sol\":5135:5136  1 */\n      0x01\n        /* \"contracts/Market.sol\":5119:5136  _winningSide == 1 */\n      eq\n        /* \"contracts/Market.sol\":5119:5157  _winningSide == 1 || _winningSide == 2 */\n      dup1\n      tag_302\n      jumpi\n      pop\n        /* \"contracts/Market.sol\":5140:5152  _winningSide */\n      dup2\n        /* \"contracts/Market.sol\":5156:5157  2 */\n      0x02\n        /* \"contracts/Market.sol\":5140:5157  _winningSide == 2 */\n      eq\n        /* \"contracts/Market.sol\":5119:5157  _winningSide == 1 || _winningSide == 2 */\n    tag_302:\n        /* \"contracts/Market.sol\":5016:5299  if(... */\n      iszero\n      tag_182\n      jumpi\n      pop\n        /* \"contracts/Market.sol\":5191:5197  status */\n      0x0c\n        /* \"contracts/Market.sol\":5191:5212  status = _winningSide */\n      sstore\n        /* \"contracts/Market.sol\":5233:5237  true */\n      0x01\n      swap1\n        /* \"contracts/Market.sol\":5381:5792  function settle(uint256 _winningSide)... */\n      jump\t// out\n        /* \"contracts/Market.sol\":5798:6023  function cancel() external override onlyFactory returns(bool) ... */\n    tag_91:\n        /* \"contracts/Market.sol\":1103:1115  a.eventOwner */\n      sload(0x03)\n        /* \"contracts/Market.sol\":5854:5858  bool */\n      0x00\n      swap1\n      sub(shl(0xa0, 0x01), 0x01)\n        /* \"contracts/Market.sol\":1103:1115  a.eventOwner */\n      and\n        /* \"contracts/Market.sol\":1089:1099  msg.sender */\n      caller\n        /* \"contracts/Market.sol\":1089:1115  msg.sender == a.eventOwner */\n      eq\n      dup1\n        /* \"contracts/Market.sol\":1089:1142  msg.sender == a.eventOwner || msg.sender == a.factory */\n      tag_306\n      jumpi\n      pop\n        /* \"contracts/Market.sol\":1133:1142  a.factory */\n      and(sub(shl(0xa0, 0x01), 0x01), sload(0x02))\n        /* \"contracts/Market.sol\":1119:1129  msg.sender */\n      caller\n        /* \"contracts/Market.sol\":1119:1142  msg.sender == a.factory */\n      eq\n        /* \"contracts/Market.sol\":1089:1142  msg.sender == a.eventOwner || msg.sender == a.factory */\n    tag_306:\n        /* \"contracts/Market.sol\":1068:1170  require(... */\n      tag_307\n      jumpi\n      mload(0x40)\n      shl(0xe5, 0x461bcd)\n      dup2\n      mstore\n      0x04\n      add\n      tag_102\n      swap1\n      tag_159\n      jump\t// in\n    tag_307:\n        /* \"contracts/Market.sol\":5879:5885  status */\n      sload(0x0c)\n        /* \"contracts/Market.sol\":5879:5890  status == 0 */\n      iszero\n      dup1\n        /* \"contracts/Market.sol\":5879:5905  status == 0 || status == 4 */\n      tag_310\n      jumpi\n      pop\n        /* \"contracts/Market.sol\":5894:5900  status */\n      sload(0x0c)\n        /* \"contracts/Market.sol\":5904:5905  4 */\n      0x04\n        /* \"contracts/Market.sol\":5894:5905  status == 4 */\n      eq\n        /* \"contracts/Market.sol\":5879:5905  status == 0 || status == 4 */\n    tag_310:\n        /* \"contracts/Market.sol\":5876:6017  if(status == 0 || status == 4){... */\n      iszero\n      tag_161\n      jumpi\n      pop\n        /* \"contracts/Market.sol\":5929:5930  3 */\n      0x03\n        /* \"contracts/Market.sol\":5920:5926  status */\n      0x0c\n        /* \"contracts/Market.sol\":5920:5930  status = 3 */\n      sstore\n        /* \"contracts/Market.sol\":5951:5955  true */\n      0x01\n        /* \"contracts/Market.sol\":6418:6625  function stopNewBet() external override onlyFactory returns(bool){... */\n      swap1\n      jump\t// out\n        /* \"contracts/Market.sol\":10768:12220  function _cancelBetPairs(bytes32 _bet) private returns(bool) {... */\n    tag_107:\n        /* \"contracts/Market.sol\":10823:10827  bool */\n      0x00\n        /* \"contracts/Market.sol\":10869:10883  betsInfo[_bet] */\n      dup2\n      dup2\n      mstore\n        /* \"contracts/Market.sol\":10869:10877  betsInfo */\n      0x10\n        /* \"contracts/Market.sol\":10869:10883  betsInfo[_bet] */\n      0x20\n      swap1\n      dup2\n      mstore\n      0x40\n      dup1\n      dup4\n      keccak256\n        /* \"contracts/Market.sol\":10839:10883  Struct.MarketBet memory bet = betsInfo[_bet] */\n      dup2\n      mload\n      0xc0\n      dup2\n      add\n      dup4\n      mstore\n      dup2\n      sload\n      sub(shl(0xa0, 0x01), 0x01)\n      swap1\n      dup2\n      and\n      dup3\n      mstore\n      0x01\n      dup4\n      add\n      sload\n      and\n      dup2\n      dup6\n      add\n      mstore\n      0x02\n      dup3\n      add\n      sload\n      dup2\n      dup5\n      add\n      mstore\n      0x03\n      dup3\n      add\n      sload\n      0x60\n      dup3\n      add\n      mstore\n      0x04\n      dup3\n      add\n      sload\n      0x80\n      dup3\n      add\n      mstore\n      0x05\n      swap1\n      swap2\n      add\n      sload\n      0xa0\n      dup3\n      add\n      mstore\n        /* \"contracts/Market.sol\":10919:10933  betPairs[_bet] */\n      dup5\n      dup5\n      mstore\n        /* \"contracts/Market.sol\":10919:10927  betPairs */\n      0x12\n        /* \"contracts/Market.sol\":10919:10933  betPairs[_bet] */\n      dup4\n      mstore\n      dup2\n      dup5\n      keccak256\n        /* \"contracts/Market.sol\":10893:10933  bytes32[] memory _pairs = betPairs[_bet] */\n      dup1\n      sload\n      dup4\n      mload\n      dup2\n      dup7\n      mul\n      dup2\n      add\n      dup7\n      add\n      swap1\n      swap5\n      mstore\n      dup1\n      dup5\n      mstore\n        /* \"contracts/Market.sol\":10839:10883  Struct.MarketBet memory bet = betsInfo[_bet] */\n      swap2\n      swap4\n        /* \"contracts/Market.sol\":10823:10827  bool */\n      dup6\n      swap4\n        /* \"contracts/Market.sol\":10893:10933  bytes32[] memory _pairs = betPairs[_bet] */\n      swap3\n      swap1\n      dup4\n      add\n        /* \"contracts/Market.sol\":10919:10933  betPairs[_bet] */\n      dup3\n        /* \"contracts/Market.sol\":10893:10933  bytes32[] memory _pairs = betPairs[_bet] */\n      dup3\n      dup1\n      iszero\n      tag_315\n      jumpi\n      0x20\n      mul\n      dup3\n      add\n      swap2\n      swap1\n      0x00\n      mstore\n      keccak256(0x00, 0x20)\n      swap1\n    tag_316:\n      dup2\n      sload\n      dup2\n      mstore\n      0x20\n      add\n      swap1\n      0x01\n      add\n      swap1\n      dup1\n      dup4\n      gt\n      tag_316\n      jumpi\n    tag_315:\n      pop\n      pop\n        /* \"contracts/Market.sol\":10962:10975  _pairs.length */\n      dup4\n      mload\n        /* \"contracts/Market.sol\":10893:10933  bytes32[] memory _pairs = betPairs[_bet] */\n      swap4\n      swap5\n      pop\n        /* \"contracts/Market.sol\":10943:10959  uint pairsLength */\n      0x00\n      swap3\n      pop\n      pop\n      pop\n        /* \"contracts/Market.sol\":10985:12193  for(uint i = 0; i < pairsLength; i++){... */\n    tag_317:\n        /* \"contracts/Market.sol\":11005:11016  pairsLength */\n      dup2\n        /* \"contracts/Market.sol\":11001:11002  i */\n      dup2\n        /* \"contracts/Market.sol\":11001:11016  i < pairsLength */\n      lt\n        /* \"contracts/Market.sol\":10985:12193  for(uint i = 0; i < pairsLength; i++){... */\n      iszero\n      tag_318\n      jumpi\n        /* \"contracts/Market.sol\":11039:11048  pairsInfo */\n      0x13\n        /* \"contracts/Market.sol\":11039:11059  pairsInfo[_pairs[i]] */\n      0x00\n        /* \"contracts/Market.sol\":11049:11055  _pairs */\n      dup5\n        /* \"contracts/Market.sol\":11056:11057  i */\n      dup4\n        /* \"contracts/Market.sol\":11049:11058  _pairs[i] */\n      dup2\n      mload\n      dup2\n      lt\n      tag_320\n      jumpi\n      mstore(0x00, shl(0xe0, 0x4e487b71))\n      mstore(0x04, 0x32)\n      revert(0x00, 0x24)\n    tag_320:\n      0x20\n      swap1\n      dup2\n      mul\n      swap2\n      swap1\n      swap2\n      add\n      dup2\n      add\n      mload\n        /* \"contracts/Market.sol\":11039:11059  pairsInfo[_pairs[i]] */\n      dup3\n      mstore\n      dup2\n      add\n      swap2\n      swap1\n      swap2\n      mstore\n      0x40\n      add\n      0x00\n      keccak256\n        /* \"contracts/Market.sol\":11039:11067  pairsInfo[_pairs[i]].settled */\n      0x04\n      add\n      sload\n      0xff\n      and\n        /* \"contracts/Market.sol\":11036:11109  if(pairsInfo[_pairs[i]].settled){... */\n      iszero\n      tag_321\n      jumpi\n        /* \"contracts/Market.sol\":11086:11094  continue */\n      jump(tag_319)\n        /* \"contracts/Market.sol\":11036:11109  if(pairsInfo[_pairs[i]].settled){... */\n    tag_321:\n        /* \"contracts/Market.sol\":11122:11144  bytes32 counterBetHash */\n      0x00\n        /* \"contracts/Market.sol\":11158:11179  uint256 counterAmount */\n      dup1\n        /* \"contracts/Market.sol\":11193:11211  uint256 thisAmount */\n      0x00\n        /* \"contracts/Market.sol\":11225:11246  address counterBetter */\n      dup1\n        /* \"contracts/Market.sol\":11263:11266  bet */\n      dup8\n        /* \"contracts/Market.sol\":11263:11271  bet.side */\n      0xa0\n      add\n      mload\n        /* \"contracts/Market.sol\":11275:11276  1 */\n      0x01\n        /* \"contracts/Market.sol\":11263:11276  bet.side == 1 */\n      eq\n        /* \"contracts/Market.sol\":11260:11714  if(bet.side == 1) {... */\n      iszero\n      tag_322\n      jumpi\n        /* \"contracts/Market.sol\":11309:11318  pairsInfo */\n      0x13\n        /* \"contracts/Market.sol\":11309:11329  pairsInfo[_pairs[i]] */\n      0x00\n        /* \"contracts/Market.sol\":11319:11325  _pairs */\n      dup9\n        /* \"contracts/Market.sol\":11326:11327  i */\n      dup8\n        /* \"contracts/Market.sol\":11319:11328  _pairs[i] */\n      dup2\n      mload\n      dup2\n      lt\n      tag_323\n      jumpi\n      mstore(0x00, shl(0xe0, 0x4e487b71))\n      mstore(0x04, 0x32)\n      revert(0x00, 0x24)\n    tag_323:\n      0x20\n      mul\n      0x20\n      add\n      add\n      mload\n        /* \"contracts/Market.sol\":11309:11329  pairsInfo[_pairs[i]] */\n      dup2\n      mstore\n      0x20\n      add\n      swap1\n      dup2\n      mstore\n      0x20\n      add\n      0x00\n      keccak256\n        /* \"contracts/Market.sol\":11309:11337  pairsInfo[_pairs[i]].amountA */\n      0x02\n      add\n      sload\n        /* \"contracts/Market.sol\":11296:11337  thisAmount = pairsInfo[_pairs[i]].amountA */\n      swap2\n      pop\n        /* \"contracts/Market.sol\":11372:11381  pairsInfo */\n      0x13\n        /* \"contracts/Market.sol\":11372:11392  pairsInfo[_pairs[i]] */\n      0x00\n        /* \"contracts/Market.sol\":11382:11388  _pairs */\n      dup9\n        /* \"contracts/Market.sol\":11389:11390  i */\n      dup8\n        /* \"contracts/Market.sol\":11382:11391  _pairs[i] */\n      dup2\n      mload\n      dup2\n      lt\n      tag_324\n      jumpi\n      mstore(0x00, shl(0xe0, 0x4e487b71))\n      mstore(0x04, 0x32)\n      revert(0x00, 0x24)\n    tag_324:\n      0x20\n      mul\n      0x20\n      add\n      add\n      mload\n        /* \"contracts/Market.sol\":11372:11392  pairsInfo[_pairs[i]] */\n      dup2\n      mstore\n      0x20\n      add\n      swap1\n      dup2\n      mstore\n      0x20\n      add\n      0x00\n      keccak256\n        /* \"contracts/Market.sol\":11372:11401  pairsInfo[_pairs[i]].betHashB */\n      0x01\n      add\n      sload\n        /* \"contracts/Market.sol\":11355:11401  counterBetHash = pairsInfo[_pairs[i]].betHashB */\n      swap4\n      pop\n        /* \"contracts/Market.sol\":11435:11444  pairsInfo */\n      0x13\n        /* \"contracts/Market.sol\":11435:11455  pairsInfo[_pairs[i]] */\n      0x00\n        /* \"contracts/Market.sol\":11445:11451  _pairs */\n      dup9\n        /* \"contracts/Market.sol\":11452:11453  i */\n      dup8\n        /* \"contracts/Market.sol\":11445:11454  _pairs[i] */\n      dup2\n      mload\n      dup2\n      lt\n      tag_325\n      jumpi\n      mstore(0x00, shl(0xe0, 0x4e487b71))\n      mstore(0x04, 0x32)\n      revert(0x00, 0x24)\n    tag_325:\n      0x20\n      mul\n      0x20\n      add\n      add\n      mload\n        /* \"contracts/Market.sol\":11435:11455  pairsInfo[_pairs[i]] */\n      dup2\n      mstore\n      0x20\n      add\n      swap1\n      dup2\n      mstore\n      0x20\n      add\n      0x00\n      keccak256\n        /* \"contracts/Market.sol\":11435:11463  pairsInfo[_pairs[i]].amountB */\n      0x03\n      add\n      sload\n        /* \"contracts/Market.sol\":11419:11463  counterAmount = pairsInfo[_pairs[i]].amountB */\n      swap3\n      pop\n        /* \"contracts/Market.sol\":11260:11714  if(bet.side == 1) {... */\n      jump(tag_327)\n    tag_322:\n        /* \"contracts/Market.sol\":11499:11502  bet */\n      dup8\n        /* \"contracts/Market.sol\":11499:11507  bet.side */\n      0xa0\n      add\n      mload\n        /* \"contracts/Market.sol\":11511:11512  2 */\n      0x02\n        /* \"contracts/Market.sol\":11499:11512  bet.side == 2 */\n      eq\n        /* \"contracts/Market.sol\":11496:11714  if(bet.side == 2) {... */\n      iszero\n      tag_327\n      jumpi\n        /* \"contracts/Market.sol\":11545:11554  pairsInfo */\n      0x13\n        /* \"contracts/Market.sol\":11545:11565  pairsInfo[_pairs[i]] */\n      0x00\n        /* \"contracts/Market.sol\":11555:11561  _pairs */\n      dup9\n        /* \"contracts/Market.sol\":11562:11563  i */\n      dup8\n        /* \"contracts/Market.sol\":11555:11564  _pairs[i] */\n      dup2\n      mload\n      dup2\n      lt\n      tag_328\n      jumpi\n      mstore(0x00, shl(0xe0, 0x4e487b71))\n      mstore(0x04, 0x32)\n      revert(0x00, 0x24)\n    tag_328:\n      0x20\n      mul\n      0x20\n      add\n      add\n      mload\n        /* \"contracts/Market.sol\":11545:11565  pairsInfo[_pairs[i]] */\n      dup2\n      mstore\n      0x20\n      add\n      swap1\n      dup2\n      mstore\n      0x20\n      add\n      0x00\n      keccak256\n        /* \"contracts/Market.sol\":11545:11573  pairsInfo[_pairs[i]].amountB */\n      0x03\n      add\n      sload\n        /* \"contracts/Market.sol\":11532:11573  thisAmount = pairsInfo[_pairs[i]].amountB */\n      swap2\n      pop\n        /* \"contracts/Market.sol\":11608:11617  pairsInfo */\n      0x13\n        /* \"contracts/Market.sol\":11608:11628  pairsInfo[_pairs[i]] */\n      0x00\n        /* \"contracts/Market.sol\":11618:11624  _pairs */\n      dup9\n        /* \"contracts/Market.sol\":11625:11626  i */\n      dup8\n        /* \"contracts/Market.sol\":11618:11627  _pairs[i] */\n      dup2\n      mload\n      dup2\n      lt\n      tag_329\n      jumpi\n      mstore(0x00, shl(0xe0, 0x4e487b71))\n      mstore(0x04, 0x32)\n      revert(0x00, 0x24)\n    tag_329:\n      0x20\n      mul\n      0x20\n      add\n      add\n      mload\n        /* \"contracts/Market.sol\":11608:11628  pairsInfo[_pairs[i]] */\n      dup2\n      mstore\n      0x20\n      add\n      swap1\n      dup2\n      mstore\n      0x20\n      add\n      0x00\n      keccak256\n        /* \"contracts/Market.sol\":11608:11637  pairsInfo[_pairs[i]].betHashA */\n      0x00\n      add\n      sload\n        /* \"contracts/Market.sol\":11591:11637  counterBetHash = pairsInfo[_pairs[i]].betHashA */\n      swap4\n      pop\n        /* \"contracts/Market.sol\":11671:11680  pairsInfo */\n      0x13\n        /* \"contracts/Market.sol\":11671:11691  pairsInfo[_pairs[i]] */\n      0x00\n        /* \"contracts/Market.sol\":11681:11687  _pairs */\n      dup9\n        /* \"contracts/Market.sol\":11688:11689  i */\n      dup8\n        /* \"contracts/Market.sol\":11681:11690  _pairs[i] */\n      dup2\n      mload\n      dup2\n      lt\n      tag_330\n      jumpi\n      mstore(0x00, shl(0xe0, 0x4e487b71))\n      mstore(0x04, 0x32)\n      revert(0x00, 0x24)\n    tag_330:\n      0x20\n      mul\n      0x20\n      add\n      add\n      mload\n        /* \"contracts/Market.sol\":11671:11691  pairsInfo[_pairs[i]] */\n      dup2\n      mstore\n      0x20\n      add\n      swap1\n      dup2\n      mstore\n      0x20\n      add\n      0x00\n      keccak256\n        /* \"contracts/Market.sol\":11671:11699  pairsInfo[_pairs[i]].amountA */\n      0x02\n      add\n      sload\n        /* \"contracts/Market.sol\":11655:11699  counterAmount = pairsInfo[_pairs[i]].amountA */\n      swap3\n      pop\n        /* \"contracts/Market.sol\":11496:11714  if(bet.side == 2) {... */\n    tag_327:\n      pop\n        /* \"contracts/Market.sol\":11743:11767  betsInfo[counterBetHash] */\n      0x00\n      dup4\n      dup2\n      mstore\n        /* \"contracts/Market.sol\":11743:11751  betsInfo */\n      0x10\n        /* \"contracts/Market.sol\":11743:11767  betsInfo[counterBetHash] */\n      0x20\n      mstore\n      0x40\n      swap1\n      keccak256\n        /* \"contracts/Market.sol\":11743:11774  betsInfo[counterBetHash].better */\n      sload\n        /* \"contracts/Market.sol\":11827:11832  a.vig */\n      sload(0x07)\n      sub(shl(0xa0, 0x01), 0x01)\n        /* \"contracts/Market.sol\":11743:11774  betsInfo[counterBetHash].better */\n      swap1\n      swap2\n      and\n      swap1\n        /* \"contracts/Market.sol\":11836:11839  100 */\n      0x64\n      swap1\n        /* \"contracts/Market.sol\":11821:11832  100 - a.vig */\n      tag_331\n      swap1\n        /* \"contracts/Market.sol\":11836:11839  100 */\n      dup3\n        /* \"contracts/Market.sol\":11821:11832  100 - a.vig */\n      tag_171\n      jump\t// in\n    tag_331:\n        /* \"contracts/Market.sol\":11807:11833  thisAmount * (100 - a.vig) */\n      tag_332\n      swap1\n        /* \"contracts/Market.sol\":11807:11817  thisAmount */\n      dup5\n        /* \"contracts/Market.sol\":11807:11833  thisAmount * (100 - a.vig) */\n      tag_262\n      jump\t// in\n    tag_332:\n        /* \"contracts/Market.sol\":11807:11839  thisAmount * (100 - a.vig) / 100 */\n      tag_333\n      swap2\n      swap1\n      tag_264\n      jump\t// in\n    tag_333:\n        /* \"contracts/Market.sol\":11792:11802  bet.better */\n      dup9\n      mload\n      sub(shl(0xa0, 0x01), 0x01)\n        /* \"contracts/Market.sol\":11788:11803  bal[bet.better] */\n      and\n      0x00\n      swap1\n      dup2\n      mstore\n        /* \"contracts/Market.sol\":11788:11791  bal */\n      0x0d\n        /* \"contracts/Market.sol\":11788:11803  bal[bet.better] */\n      0x20\n      mstore\n      0x40\n      dup2\n      keccak256\n        /* \"contracts/Market.sol\":11788:11839  bal[bet.better] += thisAmount * (100 - a.vig) / 100 */\n      dup1\n      sload\n        /* \"contracts/Market.sol\":11788:11803  bal[bet.better] */\n      swap1\n      swap2\n      swap1\n        /* \"contracts/Market.sol\":11788:11839  bal[bet.better] += thisAmount * (100 - a.vig) / 100 */\n      tag_334\n      swap1\n      dup5\n      swap1\n      tag_173\n      jump\t// in\n    tag_334:\n      swap1\n      swap2\n      sstore\n      pop\n      pop\n        /* \"contracts/Market.sol\":11853:11877  betsInfo[counterBetHash] */\n      0x00\n      dup5\n      dup2\n      mstore\n        /* \"contracts/Market.sol\":11853:11861  betsInfo */\n      0x10\n        /* \"contracts/Market.sol\":11853:11877  betsInfo[counterBetHash] */\n      0x20\n      mstore\n      0x40\n      dup2\n      keccak256\n        /* \"contracts/Market.sol\":11853:11885  betsInfo[counterBetHash].matched */\n      0x03\n      add\n        /* \"contracts/Market.sol\":11853:11902  betsInfo[counterBetHash].matched -= counterAmount */\n      dup1\n      sload\n        /* \"contracts/Market.sol\":11889:11902  counterAmount */\n      dup6\n      swap3\n        /* \"contracts/Market.sol\":11853:11877  betsInfo[counterBetHash] */\n      swap1\n        /* \"contracts/Market.sol\":11853:11902  betsInfo[counterBetHash].matched -= counterAmount */\n      tag_335\n      swap1\n        /* \"contracts/Market.sol\":11889:11902  counterAmount */\n      dup5\n      swap1\n        /* \"contracts/Market.sol\":11853:11902  betsInfo[counterBetHash].matched -= counterAmount */\n      tag_171\n      jump\t// in\n    tag_335:\n      swap1\n      swap2\n      sstore\n      pop\n      pop\n        /* \"contracts/Market.sol\":11949:11954  a.vig */\n      sload(0x07)\n        /* \"contracts/Market.sol\":11916:11933  uint256 vigAmount */\n      0x00\n      swap1\n        /* \"contracts/Market.sol\":11957:11960  100 */\n      0x64\n      swap1\n        /* \"contracts/Market.sol\":11936:11954  thisAmount * a.vig */\n      tag_336\n      swap1\n        /* \"contracts/Market.sol\":11936:11946  thisAmount */\n      dup6\n        /* \"contracts/Market.sol\":11936:11954  thisAmount * a.vig */\n      tag_262\n      jump\t// in\n    tag_336:\n        /* \"contracts/Market.sol\":11936:11960  thisAmount * a.vig / 100 */\n      tag_337\n      swap2\n      swap1\n      tag_264\n      jump\t// in\n    tag_337:\n        /* \"contracts/Market.sol\":12005:12011  a.hVig */\n      sload(0x0a)\n        /* \"contracts/Market.sol\":11916:11960  uint256 vigAmount = thisAmount * a.vig / 100 */\n      swap1\n      swap2\n      pop\n        /* \"contracts/Market.sol\":12014:12017  100 */\n      0x64\n      swap1\n        /* \"contracts/Market.sol\":11993:12011  vigAmount * a.hVig */\n      tag_338\n      swap1\n        /* \"contracts/Market.sol\":11916:11960  uint256 vigAmount = thisAmount * a.vig / 100 */\n      dup4\n        /* \"contracts/Market.sol\":11993:12011  vigAmount * a.hVig */\n      tag_262\n      jump\t// in\n    tag_338:\n        /* \"contracts/Market.sol\":11993:12017  vigAmount * a.hVig / 100 */\n      tag_339\n      swap2\n      swap1\n      tag_264\n      jump\t// in\n    tag_339:\n        /* \"contracts/Market.sol\":11978:11988  a.holdAddr */\n      and(sub(shl(0xa0, 0x01), 0x01), sload(0x04))\n        /* \"contracts/Market.sol\":11974:11989  bal[a.holdAddr] */\n      0x00\n      swap1\n      dup2\n      mstore\n        /* \"contracts/Market.sol\":11974:11977  bal */\n      0x0d\n        /* \"contracts/Market.sol\":11974:11989  bal[a.holdAddr] */\n      0x20\n      mstore\n      0x40\n      dup2\n      keccak256\n        /* \"contracts/Market.sol\":11974:12017  bal[a.holdAddr] += vigAmount * a.hVig / 100 */\n      dup1\n      sload\n        /* \"contracts/Market.sol\":11974:11989  bal[a.holdAddr] */\n      swap1\n      swap2\n      swap1\n        /* \"contracts/Market.sol\":11974:12017  bal[a.holdAddr] += vigAmount * a.hVig / 100 */\n      tag_340\n      swap1\n      dup5\n      swap1\n      tag_173\n      jump\t// in\n    tag_340:\n      swap1\n      swap2\n      sstore\n      pop\n      pop\n        /* \"contracts/Market.sol\":12061:12067  a.eVig */\n      sload(0x09)\n        /* \"contracts/Market.sol\":12070:12073  100 */\n      0x64\n      swap1\n        /* \"contracts/Market.sol\":12049:12067  vigAmount * a.eVig */\n      tag_341\n      swap1\n        /* \"contracts/Market.sol\":12049:12058  vigAmount */\n      dup4\n        /* \"contracts/Market.sol\":12049:12067  vigAmount * a.eVig */\n      tag_262\n      jump\t// in\n    tag_341:\n        /* \"contracts/Market.sol\":12049:12073  vigAmount * a.eVig / 100 */\n      tag_342\n      swap2\n      swap1\n      tag_264\n      jump\t// in\n    tag_342:\n        /* \"contracts/Market.sol\":12035:12044  a.ecoAddr */\n      and(sub(shl(0xa0, 0x01), 0x01), sload(0x05))\n        /* \"contracts/Market.sol\":12031:12045  bal[a.ecoAddr] */\n      0x00\n      swap1\n      dup2\n      mstore\n        /* \"contracts/Market.sol\":12031:12034  bal */\n      0x0d\n        /* \"contracts/Market.sol\":12031:12045  bal[a.ecoAddr] */\n      0x20\n      mstore\n      0x40\n      dup2\n      keccak256\n        /* \"contracts/Market.sol\":12031:12073  bal[a.ecoAddr] += vigAmount * a.eVig / 100 */\n      dup1\n      sload\n        /* \"contracts/Market.sol\":12031:12045  bal[a.ecoAddr] */\n      swap1\n      swap2\n      swap1\n        /* \"contracts/Market.sol\":12031:12073  bal[a.ecoAddr] += vigAmount * a.eVig / 100 */\n      tag_343\n      swap1\n      dup5\n      swap1\n      tag_173\n      jump\t// in\n    tag_343:\n      swap1\n      swap2\n      sstore\n      pop\n      pop\n        /* \"contracts/Market.sol\":12121:12127  a.aVig */\n      sload(0x08)\n        /* \"contracts/Market.sol\":12130:12133  100 */\n      0x64\n      swap1\n        /* \"contracts/Market.sol\":12109:12127  vigAmount * a.aVig */\n      tag_344\n      swap1\n        /* \"contracts/Market.sol\":12109:12118  vigAmount */\n      dup4\n        /* \"contracts/Market.sol\":12109:12127  vigAmount * a.aVig */\n      tag_262\n      jump\t// in\n    tag_344:\n        /* \"contracts/Market.sol\":12109:12133  vigAmount * a.aVig / 100 */\n      tag_345\n      swap2\n      swap1\n      tag_264\n      jump\t// in\n    tag_345:\n        /* \"contracts/Market.sol\":12091:12104  bet.affiliate */\n      0x20\n      dup1\n      dup12\n      add\n      mload\n      sub(shl(0xa0, 0x01), 0x01)\n        /* \"contracts/Market.sol\":12087:12105  bal[bet.affiliate] */\n      and\n      0x00\n      swap1\n      dup2\n      mstore\n        /* \"contracts/Market.sol\":12087:12090  bal */\n      0x0d\n        /* \"contracts/Market.sol\":12087:12105  bal[bet.affiliate] */\n      swap1\n      swap2\n      mstore\n      0x40\n      dup2\n      keccak256\n        /* \"contracts/Market.sol\":12087:12133  bal[bet.affiliate] += vigAmount * a.aVig / 100 */\n      dup1\n      sload\n        /* \"contracts/Market.sol\":12087:12105  bal[bet.affiliate] */\n      swap1\n      swap2\n      swap1\n        /* \"contracts/Market.sol\":12087:12133  bal[bet.affiliate] += vigAmount * a.aVig / 100 */\n      tag_346\n      swap1\n      dup5\n      swap1\n      tag_173\n      jump\t// in\n    tag_346:\n      swap3\n      pop\n      pop\n      dup2\n      swap1\n      sstore\n      pop\n        /* \"contracts/Market.sol\":12178:12182  true */\n      0x01\n        /* \"contracts/Market.sol\":12147:12156  pairsInfo */\n      0x13\n        /* \"contracts/Market.sol\":12147:12167  pairsInfo[_pairs[i]] */\n      0x00\n        /* \"contracts/Market.sol\":12157:12163  _pairs */\n      dup11\n        /* \"contracts/Market.sol\":12164:12165  i */\n      dup10\n        /* \"contracts/Market.sol\":12157:12166  _pairs[i] */\n      dup2\n      mload\n      dup2\n      lt\n      tag_347\n      jumpi\n      mstore(0x00, shl(0xe0, 0x4e487b71))\n      mstore(0x04, 0x32)\n      revert(0x00, 0x24)\n    tag_347:\n      0x20\n      mul\n      0x20\n      add\n      add\n      mload\n        /* \"contracts/Market.sol\":12147:12167  pairsInfo[_pairs[i]] */\n      dup2\n      mstore\n      0x20\n      add\n      swap1\n      dup2\n      mstore\n      0x20\n      add\n      0x00\n      keccak256\n        /* \"contracts/Market.sol\":12147:12175  pairsInfo[_pairs[i]].settled */\n      0x04\n      add\n      0x00\n        /* \"contracts/Market.sol\":12147:12182  pairsInfo[_pairs[i]].settled = true */\n      0x0100\n      exp\n      dup2\n      sload\n      dup2\n      0xff\n      mul\n      not\n      and\n      swap1\n      dup4\n      iszero\n      iszero\n      mul\n      or\n      swap1\n      sstore\n      pop\n        /* \"contracts/Market.sol\":10985:12193  for(uint i = 0; i < pairsLength; i++){... */\n      pop\n      pop\n      pop\n      pop\n      pop\n    tag_319:\n        /* \"contracts/Market.sol\":11018:11021  i++ */\n      dup1\n      tag_348\n      dup2\n      tag_152\n      jump\t// in\n    tag_348:\n      swap2\n      pop\n      pop\n        /* \"contracts/Market.sol\":10985:12193  for(uint i = 0; i < pairsLength; i++){... */\n      jump(tag_317)\n    tag_318:\n      pop\n        /* \"contracts/Market.sol\":12209:12213  true */\n      0x01\n      swap6\n        /* \"contracts/Market.sol\":10768:12220  function _cancelBetPairs(bytes32 _bet) private returns(bool) {... */\n      swap5\n      pop\n      pop\n      pop\n      pop\n      pop\n      jump\t// out\n        /* \"contracts/Market.sol\":12677:13914  function _settlePair(bytes32 _pair) private nonReentrant returns(bool) {... */\n    tag_150:\n        /* \"contracts/Market.sol\":12742:12746  bool */\n      0x00\n        /* \"@openzeppelin/contracts/security/ReentrancyGuard.sol\":1744:1745  2 */\n      0x02\n        /* \"@openzeppelin/contracts/security/ReentrancyGuard.sol\":2325:2332  _status */\n      sload(0x00)\n        /* \"@openzeppelin/contracts/security/ReentrancyGuard.sol\":2325:2344  _status != _ENTERED */\n      eq\n      iszero\n        /* \"@openzeppelin/contracts/security/ReentrancyGuard.sol\":2317:2380  require(_status != _ENTERED, \"ReentrancyGuard: reentrant call\") */\n      tag_350\n      jumpi\n      mload(0x40)\n      shl(0xe5, 0x461bcd)\n      dup2\n      mstore\n        /* \"#utility.yul\":9808:9810   */\n      0x20\n        /* \"@openzeppelin/contracts/security/ReentrancyGuard.sol\":2317:2380  require(_status != _ENTERED, \"ReentrancyGuard: reentrant call\") */\n      0x04\n      dup3\n      add\n        /* \"#utility.yul\":9790:9811   */\n      mstore\n        /* \"#utility.yul\":9847:9849   */\n      0x1f\n        /* \"#utility.yul\":9827:9845   */\n      0x24\n      dup3\n      add\n        /* \"#utility.yul\":9820:9850   */\n      mstore\n        /* \"#utility.yul\":9886:9919   */\n      0x5265656e7472616e637947756172643a207265656e7472616e742063616c6c00\n        /* \"#utility.yul\":9866:9884   */\n      0x44\n      dup3\n      add\n        /* \"#utility.yul\":9859:9920   */\n      mstore\n        /* \"#utility.yul\":9937:9955   */\n      0x64\n      add\n        /* \"@openzeppelin/contracts/security/ReentrancyGuard.sol\":2317:2380  require(_status != _ENTERED, \"ReentrancyGuard: reentrant call\") */\n      tag_102\n        /* \"#utility.yul\":9780:9961   */\n      jump\n        /* \"@openzeppelin/contracts/security/ReentrancyGuard.sol\":2317:2380  require(_status != _ENTERED, \"ReentrancyGuard: reentrant call\") */\n    tag_350:\n        /* \"@openzeppelin/contracts/security/ReentrancyGuard.sol\":1744:1745  2 */\n      0x02\n        /* \"@openzeppelin/contracts/security/ReentrancyGuard.sol\":2455:2462  _status */\n      0x00\n        /* \"@openzeppelin/contracts/security/ReentrancyGuard.sol\":2455:2473  _status = _ENTERED */\n      swap1\n      dup2\n      sstore\n        /* \"contracts/Market.sol\":12761:12777  pairsInfo[_pair] */\n      dup3\n      dup2\n      mstore\n        /* \"contracts/Market.sol\":12761:12770  pairsInfo */\n      0x13\n        /* \"contracts/Market.sol\":12761:12777  pairsInfo[_pair] */\n      0x20\n      mstore\n      0x40\n      swap1\n      keccak256\n        /* \"contracts/Market.sol\":12761:12785  pairsInfo[_pair].settled */\n      0x04\n      add\n      sload\n      0xff\n      and\n        /* \"contracts/Market.sol\":12758:12823  if(pairsInfo[_pair].settled){... */\n      iszero\n      tag_353\n      jumpi\n      pop\n        /* \"contracts/Market.sol\":12807:12812  false */\n      0x00\n        /* \"contracts/Market.sol\":12800:12812  return false */\n      jump(tag_119)\n        /* \"contracts/Market.sol\":12758:12823  if(pairsInfo[_pair].settled){... */\n    tag_353:\n        /* \"contracts/Market.sol\":12832:12846  address winner */\n      0x00\n        /* \"contracts/Market.sol\":12856:12873  address affiliate */\n      dup1\n        /* \"contracts/Market.sol\":12883:12900  uint256 winAmount */\n      0x00\n        /* \"contracts/Market.sol\":12910:12927  uint256 vigAmount */\n      dup1\n        /* \"contracts/Market.sol\":12940:12946  status */\n      sload(0x0c)\n        /* \"contracts/Market.sol\":12950:12951  1 */\n      0x01\n        /* \"contracts/Market.sol\":12940:12951  status == 1 */\n      eq\n        /* \"contracts/Market.sol\":12937:13655  if(status == 1){... */\n      iszero\n      tag_354\n      jumpi\n        /* \"contracts/Market.sol\":12975:13010  betsInfo[pairsInfo[_pair].betHashA] */\n      0x00\n        /* \"contracts/Market.sol\":12984:13000  pairsInfo[_pair] */\n      dup7\n      dup2\n      mstore\n        /* \"contracts/Market.sol\":12984:12993  pairsInfo */\n      0x13\n        /* \"contracts/Market.sol\":12984:13000  pairsInfo[_pair] */\n      0x20\n      swap1\n      dup2\n      mstore\n      0x40\n      dup1\n      dup4\n      keccak256\n        /* \"contracts/Market.sol\":12984:13009  pairsInfo[_pair].betHashA */\n      sload\n        /* \"contracts/Market.sol\":12975:13010  betsInfo[pairsInfo[_pair].betHashA] */\n      dup4\n      mstore\n        /* \"contracts/Market.sol\":12975:12983  betsInfo */\n      0x10\n        /* \"contracts/Market.sol\":12975:13010  betsInfo[pairsInfo[_pair].betHashA] */\n      swap1\n      swap2\n      mstore\n      swap1\n      keccak256\n        /* \"contracts/Market.sol\":12975:13017  betsInfo[pairsInfo[_pair].betHashA].better */\n      sload\n        /* \"contracts/Market.sol\":13105:13110  a.vig */\n      sload(0x07)\n      sub(shl(0xa0, 0x01), 0x01)\n        /* \"contracts/Market.sol\":12975:13017  betsInfo[pairsInfo[_pair].betHashA].better */\n      swap1\n      swap2\n      and\n      swap5\n      pop\n        /* \"contracts/Market.sol\":13114:13117  100 */\n      0x64\n      swap1\n        /* \"contracts/Market.sol\":13099:13110  100 - a.vig */\n      tag_355\n      swap1\n        /* \"contracts/Market.sol\":13114:13117  100 */\n      dup3\n        /* \"contracts/Market.sol\":13099:13110  100 - a.vig */\n      tag_171\n      jump\t// in\n    tag_355:\n        /* \"contracts/Market.sol\":13071:13087  pairsInfo[_pair] */\n      0x00\n      dup9\n      dup2\n      mstore\n        /* \"contracts/Market.sol\":13071:13080  pairsInfo */\n      0x13\n        /* \"contracts/Market.sol\":13071:13087  pairsInfo[_pair] */\n      0x20\n      mstore\n      0x40\n      swap1\n      keccak256\n        /* \"contracts/Market.sol\":13071:13095  pairsInfo[_pair].amountB */\n      0x03\n      add\n      sload\n        /* \"contracts/Market.sol\":13071:13111  pairsInfo[_pair].amountB * (100 - a.vig) */\n      tag_356\n      swap2\n      swap1\n      tag_262\n      jump\t// in\n    tag_356:\n        /* \"contracts/Market.sol\":13071:13117  pairsInfo[_pair].amountB * (100 - a.vig) / 100 */\n      tag_357\n      swap2\n      swap1\n      tag_264\n      jump\t// in\n    tag_357:\n        /* \"contracts/Market.sol\":13043:13059  pairsInfo[_pair] */\n      0x00\n      dup8\n      dup2\n      mstore\n        /* \"contracts/Market.sol\":13043:13052  pairsInfo */\n      0x13\n        /* \"contracts/Market.sol\":13043:13059  pairsInfo[_pair] */\n      0x20\n      mstore\n      0x40\n      swap1\n      keccak256\n        /* \"contracts/Market.sol\":13043:13067  pairsInfo[_pair].amountA */\n      0x02\n      add\n      sload\n        /* \"contracts/Market.sol\":13043:13118  pairsInfo[_pair].amountA + (pairsInfo[_pair].amountB * (100 - a.vig) / 100) */\n      tag_358\n      swap2\n      swap1\n      tag_173\n      jump\t// in\n    tag_358:\n        /* \"contracts/Market.sol\":13171:13176  a.vig */\n      sload(0x07)\n        /* \"contracts/Market.sol\":13144:13160  pairsInfo[_pair] */\n      0x00\n      dup9\n      dup2\n      mstore\n        /* \"contracts/Market.sol\":13144:13153  pairsInfo */\n      0x13\n        /* \"contracts/Market.sol\":13144:13160  pairsInfo[_pair] */\n      0x20\n      mstore\n      0x40\n      swap1\n      keccak256\n        /* \"contracts/Market.sol\":13144:13168  pairsInfo[_pair].amountB */\n      0x03\n      add\n      sload\n        /* \"contracts/Market.sol\":13031:13118  winAmount = pairsInfo[_pair].amountA + (pairsInfo[_pair].amountB * (100 - a.vig) / 100) */\n      swap2\n      swap4\n      pop\n        /* \"contracts/Market.sol\":13179:13182  100 */\n      0x64\n      swap2\n        /* \"contracts/Market.sol\":13144:13176  pairsInfo[_pair].amountB * a.vig */\n      tag_359\n      swap2\n        /* \"contracts/Market.sol\":13171:13176  a.vig */\n      swap1\n        /* \"contracts/Market.sol\":13144:13176  pairsInfo[_pair].amountB * a.vig */\n      tag_262\n      jump\t// in\n    tag_359:\n        /* \"contracts/Market.sol\":13144:13182  pairsInfo[_pair].amountB * a.vig / 100 */\n      tag_360\n      swap2\n      swap1\n      tag_264\n      jump\t// in\n    tag_360:\n        /* \"contracts/Market.sol\":13208:13243  betsInfo[pairsInfo[_pair].betHashA] */\n      0x00\n        /* \"contracts/Market.sol\":13217:13233  pairsInfo[_pair] */\n      dup8\n      dup2\n      mstore\n        /* \"contracts/Market.sol\":13217:13226  pairsInfo */\n      0x13\n        /* \"contracts/Market.sol\":13217:13233  pairsInfo[_pair] */\n      0x20\n      swap1\n      dup2\n      mstore\n      0x40\n      dup1\n      dup4\n      keccak256\n        /* \"contracts/Market.sol\":13217:13242  pairsInfo[_pair].betHashA */\n      sload\n        /* \"contracts/Market.sol\":13208:13243  betsInfo[pairsInfo[_pair].betHashA] */\n      dup4\n      mstore\n        /* \"contracts/Market.sol\":13208:13216  betsInfo */\n      0x10\n        /* \"contracts/Market.sol\":13208:13243  betsInfo[pairsInfo[_pair].betHashA] */\n      swap1\n      swap2\n      mstore\n      swap1\n      keccak256\n        /* \"contracts/Market.sol\":13208:13253  betsInfo[pairsInfo[_pair].betHashA].affiliate */\n      0x01\n      add\n      sload\n      sub(shl(0xa0, 0x01), 0x01)\n      and\n      swap4\n      pop\n        /* \"contracts/Market.sol\":13132:13182  vigAmount = pairsInfo[_pair].amountB * a.vig / 100 */\n      swap1\n      pop\n        /* \"contracts/Market.sol\":12937:13655  if(status == 1){... */\n      jump(tag_369)\n    tag_354:\n        /* \"contracts/Market.sol\":13281:13287  status */\n      sload(0x0c)\n        /* \"contracts/Market.sol\":13291:13292  2 */\n      0x02\n        /* \"contracts/Market.sol\":13281:13292  status == 2 */\n      eq\n        /* \"contracts/Market.sol\":13278:13655  if(status == 2){... */\n      iszero\n      tag_362\n      jumpi\n        /* \"contracts/Market.sol\":13316:13351  betsInfo[pairsInfo[_pair].betHashB] */\n      0x00\n        /* \"contracts/Market.sol\":13325:13341  pairsInfo[_pair] */\n      dup7\n      dup2\n      mstore\n        /* \"contracts/Market.sol\":13325:13334  pairsInfo */\n      0x13\n        /* \"contracts/Market.sol\":13325:13341  pairsInfo[_pair] */\n      0x20\n      swap1\n      dup2\n      mstore\n      0x40\n      dup1\n      dup4\n      keccak256\n        /* \"contracts/Market.sol\":13325:13350  pairsInfo[_pair].betHashB */\n      0x01\n      add\n      sload\n        /* \"contracts/Market.sol\":13316:13351  betsInfo[pairsInfo[_pair].betHashB] */\n      dup4\n      mstore\n        /* \"contracts/Market.sol\":13316:13324  betsInfo */\n      0x10\n        /* \"contracts/Market.sol\":13316:13351  betsInfo[pairsInfo[_pair].betHashB] */\n      swap1\n      swap2\n      mstore\n      swap1\n      keccak256\n        /* \"contracts/Market.sol\":13316:13358  betsInfo[pairsInfo[_pair].betHashB].better */\n      sload\n        /* \"contracts/Market.sol\":13446:13451  a.vig */\n      sload(0x07)\n      sub(shl(0xa0, 0x01), 0x01)\n        /* \"contracts/Market.sol\":13316:13358  betsInfo[pairsInfo[_pair].betHashB].better */\n      swap1\n      swap2\n      and\n      swap5\n      pop\n        /* \"contracts/Market.sol\":13455:13458  100 */\n      0x64\n      swap1\n        /* \"contracts/Market.sol\":13440:13451  100 - a.vig */\n      tag_363\n      swap1\n        /* \"contracts/Market.sol\":13455:13458  100 */\n      dup3\n        /* \"contracts/Market.sol\":13440:13451  100 - a.vig */\n      tag_171\n      jump\t// in\n    tag_363:\n        /* \"contracts/Market.sol\":13412:13428  pairsInfo[_pair] */\n      0x00\n      dup9\n      dup2\n      mstore\n        /* \"contracts/Market.sol\":13412:13421  pairsInfo */\n      0x13\n        /* \"contracts/Market.sol\":13412:13428  pairsInfo[_pair] */\n      0x20\n      mstore\n      0x40\n      swap1\n      keccak256\n        /* \"contracts/Market.sol\":13412:13436  pairsInfo[_pair].amountA */\n      0x02\n      add\n      sload\n        /* \"contracts/Market.sol\":13412:13452  pairsInfo[_pair].amountA * (100 - a.vig) */\n      tag_364\n      swap2\n      swap1\n      tag_262\n      jump\t// in\n    tag_364:\n        /* \"contracts/Market.sol\":13412:13458  pairsInfo[_pair].amountA * (100 - a.vig) / 100 */\n      tag_365\n      swap2\n      swap1\n      tag_264\n      jump\t// in\n    tag_365:\n        /* \"contracts/Market.sol\":13384:13400  pairsInfo[_pair] */\n      0x00\n      dup8\n      dup2\n      mstore\n        /* \"contracts/Market.sol\":13384:13393  pairsInfo */\n      0x13\n        /* \"contracts/Market.sol\":13384:13400  pairsInfo[_pair] */\n      0x20\n      mstore\n      0x40\n      swap1\n      keccak256\n        /* \"contracts/Market.sol\":13384:13408  pairsInfo[_pair].amountB */\n      0x03\n      add\n      sload\n        /* \"contracts/Market.sol\":13384:13459  pairsInfo[_pair].amountB + (pairsInfo[_pair].amountA * (100 - a.vig) / 100) */\n      tag_366\n      swap2\n      swap1\n      tag_173\n      jump\t// in\n    tag_366:\n        /* \"contracts/Market.sol\":13512:13517  a.vig */\n      sload(0x07)\n        /* \"contracts/Market.sol\":13485:13501  pairsInfo[_pair] */\n      0x00\n      dup9\n      dup2\n      mstore\n        /* \"contracts/Market.sol\":13485:13494  pairsInfo */\n      0x13\n        /* \"contracts/Market.sol\":13485:13501  pairsInfo[_pair] */\n      0x20\n      mstore\n      0x40\n      swap1\n      keccak256\n        /* \"contracts/Market.sol\":13485:13509  pairsInfo[_pair].amountA */\n      0x02\n      add\n      sload\n        /* \"contracts/Market.sol\":13372:13459  winAmount = pairsInfo[_pair].amountB + (pairsInfo[_pair].amountA * (100 - a.vig) / 100) */\n      swap2\n      swap4\n      pop\n        /* \"contracts/Market.sol\":13520:13523  100 */\n      0x64\n      swap2\n        /* \"contracts/Market.sol\":13485:13517  pairsInfo[_pair].amountA * a.vig */\n      tag_367\n      swap2\n        /* \"contracts/Market.sol\":13512:13517  a.vig */\n      swap1\n        /* \"contracts/Market.sol\":13485:13517  pairsInfo[_pair].amountA * a.vig */\n      tag_262\n      jump\t// in\n    tag_367:\n        /* \"contracts/Market.sol\":13485:13523  pairsInfo[_pair].amountA * a.vig / 100 */\n      tag_368\n      swap2\n      swap1\n      tag_264\n      jump\t// in\n    tag_368:\n        /* \"contracts/Market.sol\":13549:13584  betsInfo[pairsInfo[_pair].betHashB] */\n      0x00\n        /* \"contracts/Market.sol\":13558:13574  pairsInfo[_pair] */\n      dup8\n      dup2\n      mstore\n        /* \"contracts/Market.sol\":13558:13567  pairsInfo */\n      0x13\n        /* \"contracts/Market.sol\":13558:13574  pairsInfo[_pair] */\n      0x20\n      swap1\n      dup2\n      mstore\n      0x40\n      dup1\n      dup4\n      keccak256\n        /* \"contracts/Market.sol\":13558:13583  pairsInfo[_pair].betHashB */\n      0x01\n      swap1\n      dup2\n      add\n      sload\n        /* \"contracts/Market.sol\":13549:13584  betsInfo[pairsInfo[_pair].betHashB] */\n      dup5\n      mstore\n        /* \"contracts/Market.sol\":13549:13557  betsInfo */\n      0x10\n        /* \"contracts/Market.sol\":13549:13584  betsInfo[pairsInfo[_pair].betHashB] */\n      swap1\n      swap3\n      mstore\n      swap1\n      swap2\n      keccak256\n        /* \"contracts/Market.sol\":13549:13594  betsInfo[pairsInfo[_pair].betHashB].affiliate */\n      add\n      sload\n      sub(shl(0xa0, 0x01), 0x01)\n      and\n      swap4\n      pop\n        /* \"contracts/Market.sol\":13473:13523  vigAmount = pairsInfo[_pair].amountA * a.vig / 100 */\n      swap1\n      pop\n        /* \"contracts/Market.sol\":13278:13655  if(status == 2){... */\n      jump(tag_369)\n    tag_362:\n        /* \"contracts/Market.sol\":13639:13644  false */\n      0x00\n        /* \"contracts/Market.sol\":13632:13644  return false */\n      swap5\n      pop\n      pop\n      pop\n      pop\n      pop\n      jump(tag_119)\n        /* \"contracts/Market.sol\":13278:13655  if(status == 2){... */\n    tag_369:\n      sub(shl(0xa0, 0x01), 0x01)\n        /* \"contracts/Market.sol\":13664:13675  bal[winner] */\n      dup5\n      and\n      0x00\n      swap1\n      dup2\n      mstore\n        /* \"contracts/Market.sol\":13664:13667  bal */\n      0x0d\n        /* \"contracts/Market.sol\":13664:13675  bal[winner] */\n      0x20\n      mstore\n      0x40\n      dup2\n      keccak256\n        /* \"contracts/Market.sol\":13664:13688  bal[winner] += winAmount */\n      dup1\n      sload\n        /* \"contracts/Market.sol\":13679:13688  winAmount */\n      dup5\n      swap3\n        /* \"contracts/Market.sol\":13664:13675  bal[winner] */\n      swap1\n        /* \"contracts/Market.sol\":13664:13688  bal[winner] += winAmount */\n      tag_370\n      swap1\n        /* \"contracts/Market.sol\":13679:13688  winAmount */\n      dup5\n      swap1\n        /* \"contracts/Market.sol\":13664:13688  bal[winner] += winAmount */\n      tag_173\n      jump\t// in\n    tag_370:\n      swap1\n      swap2\n      sstore\n      pop\n      pop\n        /* \"contracts/Market.sol\":13729:13735  a.hVig */\n      sload(0x0a)\n        /* \"contracts/Market.sol\":13738:13741  100 */\n      0x64\n      swap1\n        /* \"contracts/Market.sol\":13717:13735  vigAmount * a.hVig */\n      tag_371\n      swap1\n        /* \"contracts/Market.sol\":13717:13726  vigAmount */\n      dup4\n        /* \"contracts/Market.sol\":13717:13735  vigAmount * a.hVig */\n      tag_262\n      jump\t// in\n    tag_371:\n        /* \"contracts/Market.sol\":13717:13741  vigAmount * a.hVig / 100 */\n      tag_372\n      swap2\n      swap1\n      tag_264\n      jump\t// in\n    tag_372:\n        /* \"contracts/Market.sol\":13702:13712  a.holdAddr */\n      and(sub(shl(0xa0, 0x01), 0x01), sload(0x04))\n        /* \"contracts/Market.sol\":13698:13713  bal[a.holdAddr] */\n      0x00\n      swap1\n      dup2\n      mstore\n        /* \"contracts/Market.sol\":13698:13701  bal */\n      0x0d\n        /* \"contracts/Market.sol\":13698:13713  bal[a.holdAddr] */\n      0x20\n      mstore\n      0x40\n      dup2\n      keccak256\n        /* \"contracts/Market.sol\":13698:13741  bal[a.holdAddr] += vigAmount * a.hVig / 100 */\n      dup1\n      sload\n        /* \"contracts/Market.sol\":13698:13713  bal[a.holdAddr] */\n      swap1\n      swap2\n      swap1\n        /* \"contracts/Market.sol\":13698:13741  bal[a.holdAddr] += vigAmount * a.hVig / 100 */\n      tag_373\n      swap1\n      dup5\n      swap1\n      tag_173\n      jump\t// in\n    tag_373:\n      swap1\n      swap2\n      sstore\n      pop\n      pop\n        /* \"contracts/Market.sol\":13781:13787  a.eVig */\n      sload(0x09)\n        /* \"contracts/Market.sol\":13790:13793  100 */\n      0x64\n      swap1\n        /* \"contracts/Market.sol\":13769:13787  vigAmount * a.eVig */\n      tag_374\n      swap1\n        /* \"contracts/Market.sol\":13769:13778  vigAmount */\n      dup4\n        /* \"contracts/Market.sol\":13769:13787  vigAmount * a.eVig */\n      tag_262\n      jump\t// in\n    tag_374:\n        /* \"contracts/Market.sol\":13769:13793  vigAmount * a.eVig / 100 */\n      tag_375\n      swap2\n      swap1\n      tag_264\n      jump\t// in\n    tag_375:\n        /* \"contracts/Market.sol\":13755:13764  a.ecoAddr */\n      and(sub(shl(0xa0, 0x01), 0x01), sload(0x05))\n        /* \"contracts/Market.sol\":13751:13765  bal[a.ecoAddr] */\n      0x00\n      swap1\n      dup2\n      mstore\n        /* \"contracts/Market.sol\":13751:13754  bal */\n      0x0d\n        /* \"contracts/Market.sol\":13751:13765  bal[a.ecoAddr] */\n      0x20\n      mstore\n      0x40\n      dup2\n      keccak256\n        /* \"contracts/Market.sol\":13751:13793  bal[a.ecoAddr] += vigAmount * a.eVig / 100 */\n      dup1\n      sload\n        /* \"contracts/Market.sol\":13751:13765  bal[a.ecoAddr] */\n      swap1\n      swap2\n      swap1\n        /* \"contracts/Market.sol\":13751:13793  bal[a.ecoAddr] += vigAmount * a.eVig / 100 */\n      tag_376\n      swap1\n      dup5\n      swap1\n      tag_173\n      jump\t// in\n    tag_376:\n      swap1\n      swap2\n      sstore\n      pop\n      pop\n        /* \"contracts/Market.sol\":13833:13839  a.aVig */\n      sload(0x08)\n        /* \"contracts/Market.sol\":13842:13845  100 */\n      0x64\n      swap1\n        /* \"contracts/Market.sol\":13821:13839  vigAmount * a.aVig */\n      tag_377\n      swap1\n        /* \"contracts/Market.sol\":13821:13830  vigAmount */\n      dup4\n        /* \"contracts/Market.sol\":13821:13839  vigAmount * a.aVig */\n      tag_262\n      jump\t// in\n    tag_377:\n        /* \"contracts/Market.sol\":13821:13845  vigAmount * a.aVig / 100 */\n      tag_378\n      swap2\n      swap1\n      tag_264\n      jump\t// in\n    tag_378:\n      sub(shl(0xa0, 0x01), 0x01)\n        /* \"contracts/Market.sol\":13803:13817  bal[affiliate] */\n      dup5\n      and\n      0x00\n      swap1\n      dup2\n      mstore\n        /* \"contracts/Market.sol\":13803:13806  bal */\n      0x0d\n        /* \"contracts/Market.sol\":13803:13817  bal[affiliate] */\n      0x20\n      mstore\n      0x40\n      dup2\n      keccak256\n        /* \"contracts/Market.sol\":13803:13845  bal[affiliate] += vigAmount * a.aVig / 100 */\n      dup1\n      sload\n        /* \"contracts/Market.sol\":13803:13817  bal[affiliate] */\n      swap1\n      swap2\n      swap1\n        /* \"contracts/Market.sol\":13803:13845  bal[affiliate] += vigAmount * a.aVig / 100 */\n      tag_379\n      swap1\n      dup5\n      swap1\n      tag_173\n      jump\t// in\n    tag_379:\n      swap1\n      swap2\n      sstore\n      pop\n      pop\n      pop\n        /* \"contracts/Market.sol\":13855:13871  pairsInfo[_pair] */\n      0x00\n      swap5\n      dup6\n      mstore\n      pop\n      pop\n        /* \"contracts/Market.sol\":13855:13864  pairsInfo */\n      0x13\n        /* \"contracts/Market.sol\":13855:13871  pairsInfo[_pair] */\n      0x20\n      mstore\n      pop\n      pop\n      0x40\n      dup2\n      keccak256\n        /* \"contracts/Market.sol\":13855:13879  pairsInfo[_pair].settled */\n      0x04\n      add\n        /* \"contracts/Market.sol\":13855:13886  pairsInfo[_pair].settled = true */\n      dup1\n      sload\n      not(0xff)\n      and\n        /* \"contracts/Market.sol\":13882:13886  true */\n      0x01\n        /* \"contracts/Market.sol\":13855:13886  pairsInfo[_pair].settled = true */\n      swap1\n      dup2\n      or\n      swap1\n      swap2\n      sstore\n        /* \"@openzeppelin/contracts/security/ReentrancyGuard.sol\":2628:2650  _status = _NOT_ENTERED */\n      swap1\n      dup2\n      swap1\n      sstore\n        /* \"contracts/Market.sol\":13882:13886  true */\n      swap1\n        /* \"contracts/Market.sol\":12677:13914  function _settlePair(bytes32 _pair) private nonReentrant returns(bool) {... */\n      jump\t// out\n        /* \"contracts/Market.sol\":12226:12667  function _cancelPair(bytes32 _pair) private returns(bool) {... */\n    tag_207:\n        /* \"contracts/Market.sol\":12278:12282  bool */\n      0x00\n        /* \"contracts/Market.sol\":12297:12313  pairsInfo[_pair] */\n      dup2\n      dup2\n      mstore\n        /* \"contracts/Market.sol\":12297:12306  pairsInfo */\n      0x13\n        /* \"contracts/Market.sol\":12297:12313  pairsInfo[_pair] */\n      0x20\n      mstore\n      0x40\n      dup2\n      keccak256\n        /* \"contracts/Market.sol\":12297:12321  pairsInfo[_pair].settled */\n      0x04\n      add\n      sload\n      0xff\n      and\n        /* \"contracts/Market.sol\":12294:12359  if(pairsInfo[_pair].settled){... */\n      iszero\n      tag_381\n      jumpi\n      pop\n        /* \"contracts/Market.sol\":12343:12348  false */\n      0x00\n      swap2\n        /* \"contracts/Market.sol\":12226:12667  function _cancelPair(bytes32 _pair) private returns(bool) {... */\n      swap1\n      pop\n      jump\t// out\n        /* \"contracts/Market.sol\":12294:12359  if(pairsInfo[_pair].settled){... */\n    tag_381:\n        /* \"contracts/Market.sol\":12368:12383  address betterA */\n      0x00\n        /* \"contracts/Market.sol\":12395:12411  pairsInfo[_pair] */\n      dup3\n      dup2\n      mstore\n        /* \"contracts/Market.sol\":12395:12404  pairsInfo */\n      0x13\n        /* \"contracts/Market.sol\":12395:12411  pairsInfo[_pair] */\n      0x20\n      swap1\n      dup2\n      mstore\n      0x40\n      dup1\n      dup4\n      keccak256\n        /* \"contracts/Market.sol\":12395:12420  pairsInfo[_pair].betHashA */\n      dup1\n      sload\n        /* \"contracts/Market.sol\":12386:12421  betsInfo[pairsInfo[_pair].betHashA] */\n      dup5\n      mstore\n        /* \"contracts/Market.sol\":12386:12394  betsInfo */\n      0x10\n        /* \"contracts/Market.sol\":12386:12421  betsInfo[pairsInfo[_pair].betHashA] */\n      dup4\n      mstore\n      dup2\n      dup5\n      keccak256\n        /* \"contracts/Market.sol\":12386:12428  betsInfo[pairsInfo[_pair].betHashA].better */\n      sload\n      0x01\n        /* \"contracts/Market.sol\":12465:12490  pairsInfo[_pair].betHashB */\n      dup3\n      add\n      sload\n        /* \"contracts/Market.sol\":12456:12491  betsInfo[pairsInfo[_pair].betHashB] */\n      dup6\n      mstore\n      dup3\n      dup6\n      keccak256\n        /* \"contracts/Market.sol\":12456:12498  betsInfo[pairsInfo[_pair].betHashB].better */\n      sload\n        /* \"contracts/Market.sol\":12524:12548  pairsInfo[_pair].amountA */\n      0x02\n      swap1\n      swap3\n      add\n      sload\n      sub(shl(0xa0, 0x01), 0x01)\n        /* \"contracts/Market.sol\":12386:12428  betsInfo[pairsInfo[_pair].betHashA].better */\n      swap2\n      dup3\n      and\n        /* \"contracts/Market.sol\":12508:12520  bal[betterA] */\n      dup1\n      dup8\n      mstore\n        /* \"contracts/Market.sol\":12508:12511  bal */\n      0x0d\n        /* \"contracts/Market.sol\":12508:12520  bal[betterA] */\n      swap1\n      swap6\n      mstore\n      swap3\n      dup6\n      keccak256\n        /* \"contracts/Market.sol\":12508:12548  bal[betterA] += pairsInfo[_pair].amountA */\n      dup1\n      sload\n        /* \"contracts/Market.sol\":12386:12428  betsInfo[pairsInfo[_pair].betHashA].better */\n      swap5\n      swap6\n        /* \"contracts/Market.sol\":12456:12498  betsInfo[pairsInfo[_pair].betHashB].better */\n      swap2\n      swap1\n      swap3\n      and\n      swap4\n        /* \"contracts/Market.sol\":12508:12548  bal[betterA] += pairsInfo[_pair].amountA */\n      tag_382\n      swap1\n        /* \"contracts/Market.sol\":12524:12548  pairsInfo[_pair].amountA */\n      dup5\n      swap1\n        /* \"contracts/Market.sol\":12508:12548  bal[betterA] += pairsInfo[_pair].amountA */\n      tag_173\n      jump\t// in\n    tag_382:\n      swap1\n      swap2\n      sstore\n      pop\n      pop\n        /* \"contracts/Market.sol\":12574:12590  pairsInfo[_pair] */\n      0x00\n      dup5\n      dup2\n      mstore\n        /* \"contracts/Market.sol\":12574:12583  pairsInfo */\n      0x13\n        /* \"contracts/Market.sol\":12574:12590  pairsInfo[_pair] */\n      0x20\n      swap1\n      dup2\n      mstore\n      0x40\n      dup1\n      dup4\n      keccak256\n        /* \"contracts/Market.sol\":12574:12598  pairsInfo[_pair].amountB */\n      0x03\n      add\n      sload\n      sub(shl(0xa0, 0x01), 0x01)\n        /* \"contracts/Market.sol\":12558:12570  bal[betterB] */\n      dup6\n      and\n      dup5\n      mstore\n        /* \"contracts/Market.sol\":12558:12561  bal */\n      0x0d\n        /* \"contracts/Market.sol\":12558:12570  bal[betterB] */\n      swap1\n      swap3\n      mstore\n      dup3\n      keccak256\n        /* \"contracts/Market.sol\":12558:12598  bal[betterB] += pairsInfo[_pair].amountB */\n      dup1\n      sload\n        /* \"contracts/Market.sol\":12574:12598  pairsInfo[_pair].amountB */\n      swap2\n      swap3\n        /* \"contracts/Market.sol\":12558:12570  bal[betterB] */\n      swap1\n      swap2\n        /* \"contracts/Market.sol\":12558:12598  bal[betterB] += pairsInfo[_pair].amountB */\n      tag_383\n      swap1\n        /* \"contracts/Market.sol\":12574:12598  pairsInfo[_pair].amountB */\n      dup5\n      swap1\n        /* \"contracts/Market.sol\":12558:12598  bal[betterB] += pairsInfo[_pair].amountB */\n      tag_173\n      jump\t// in\n    tag_383:\n      swap1\n      swap2\n      sstore\n      pop\n      pop\n      pop\n        /* \"contracts/Market.sol\":12608:12624  pairsInfo[_pair] */\n      0x00\n      swap3\n      dup4\n      mstore\n      pop\n      pop\n        /* \"contracts/Market.sol\":12608:12617  pairsInfo */\n      0x13\n        /* \"contracts/Market.sol\":12608:12624  pairsInfo[_pair] */\n      0x20\n      mstore\n      0x40\n      swap1\n      keccak256\n        /* \"contracts/Market.sol\":12608:12632  pairsInfo[_pair].settled */\n      0x04\n      add\n        /* \"contracts/Market.sol\":12608:12639  pairsInfo[_pair].settled = true */\n      dup1\n      sload\n      not(0xff)\n      and\n        /* \"contracts/Market.sol\":12635:12639  true */\n      0x01\n        /* \"contracts/Market.sol\":12608:12639  pairsInfo[_pair].settled = true */\n      swap1\n      dup2\n      or\n      swap1\n      swap2\n      sstore\n        /* \"contracts/Market.sol\":12635:12639  true */\n      swap1\n        /* \"contracts/Market.sol\":12226:12667  function _cancelPair(bytes32 _pair) private returns(bool) {... */\n      jump\t// out\n        /* \"contracts/Market.sol\":13920:14818  function _createBet(... */\n    tag_265:\n        /* \"contracts/Market.sol\":14119:14126  bytes32 */\n      0x00\n        /* \"contracts/Market.sol\":14142:14157  bytes32 betHash */\n      dup1\n        /* \"contracts/Market.sol\":14167:14173  uint i */\n      0x00\n        /* \"contracts/Market.sol\":14187:14536  while(i >= 0){... */\n    tag_385:\n        /* \"contracts/Market.sol\":14324:14328  bets */\n      0x0e\n        /* \"contracts/Market.sol\":14324:14335  bets.length */\n      sload\n        /* \"contracts/Market.sol\":14268:14275  _better */\n      dup10\n      swap1\n        /* \"contracts/Market.sol\":14301:14305  this */\n      address\n      swap1\n        /* \"contracts/Market.sol\":14342:14343  i */\n      dup4\n      swap1\n        /* \"contracts/Market.sol\":14324:14339  bets.length + 1 */\n      tag_387\n      swap1\n        /* \"contracts/Market.sol\":14338:14339  1 */\n      0x01\n        /* \"contracts/Market.sol\":14324:14339  bets.length + 1 */\n      tag_173\n      jump\t// in\n    tag_387:\n        /* \"contracts/Market.sol\":14324:14343  bets.length + 1 + i */\n      tag_388\n      swap2\n      swap1\n      tag_173\n      jump\t// in\n    tag_388:\n        /* \"contracts/Market.sol\":14234:14424  abi.encodePacked(... */\n      mload(0x40)\n      not(0xffffffffffffffffffffffff)\n        /* \"#utility.yul\":2089:2091   */\n      0x60\n        /* \"#utility.yul\":2085:2100   */\n      swap5\n      dup6\n      shl\n        /* \"#utility.yul\":2081:2105   */\n      dup2\n      and\n        /* \"contracts/Market.sol\":14234:14424  abi.encodePacked(... */\n      0x20\n      dup4\n      add\n        /* \"#utility.yul\":2069:2106   */\n      mstore\n        /* \"#utility.yul\":2140:2155   */\n      swap3\n      swap1\n      swap4\n      shl\n        /* \"#utility.yul\":2136:2160   */\n      swap1\n      swap2\n      and\n        /* \"#utility.yul\":2122:2134   */\n      0x34\n      dup4\n      add\n        /* \"#utility.yul\":2115:2161   */\n      mstore\n        /* \"#utility.yul\":2177:2189   */\n      0x48\n      dup3\n      add\n        /* \"#utility.yul\":2170:2198   */\n      mstore\n        /* \"contracts/Market.sol\":14361:14376  block.timestamp */\n      timestamp\n        /* \"#utility.yul\":2214:2226   */\n      0x68\n      dup3\n      add\n        /* \"#utility.yul\":2207:2235   */\n      mstore\n        /* \"contracts/Market.sol\":14394:14410  block.difficulty */\n      difficulty\n        /* \"#utility.yul\":2251:2264   */\n      0x88\n      dup3\n      add\n        /* \"#utility.yul\":2244:2273   */\n      mstore\n        /* \"#utility.yul\":2289:2302   */\n      0xa8\n      add\n        /* \"contracts/Market.sol\":14234:14424  abi.encodePacked(... */\n      0x40\n      dup1\n      mload\n      not(0x1f)\n      dup2\n      dup5\n      sub\n      add\n      dup2\n      mstore\n      swap2\n      dup2\n      mstore\n        /* \"contracts/Market.sol\":14224:14425  keccak256(abi.encodePacked(... */\n      dup2\n      mload\n        /* \"contracts/Market.sol\":14234:14424  abi.encodePacked(... */\n      0x20\n        /* \"contracts/Market.sol\":14224:14425  keccak256(abi.encodePacked(... */\n      swap3\n      dup4\n      add\n      keccak256\n        /* \"contracts/Market.sol\":14442:14459  betsInfo[betHash] */\n      0x00\n      dup2\n      dup2\n      mstore\n        /* \"contracts/Market.sol\":14442:14450  betsInfo */\n      0x10\n        /* \"contracts/Market.sol\":14442:14459  betsInfo[betHash] */\n      swap1\n      swap4\n      mstore\n      swap2\n      keccak256\n        /* \"contracts/Market.sol\":14442:14465  betsInfo[betHash].stake */\n      0x02\n      add\n      sload\n        /* \"contracts/Market.sol\":14224:14425  keccak256(abi.encodePacked(... */\n      swap1\n      swap3\n      pop\n        /* \"contracts/Market.sol\":14439:14509  if(betsInfo[betHash].stake == 0){... */\n      tag_391\n      jumpi\n        /* \"contracts/Market.sol\":14489:14494  break */\n      jump(tag_386)\n        /* \"contracts/Market.sol\":14439:14509  if(betsInfo[betHash].stake == 0){... */\n    tag_391:\n        /* \"contracts/Market.sol\":14522:14525  i++ */\n      dup1\n      tag_392\n      dup2\n      tag_152\n      jump\t// in\n    tag_392:\n      swap2\n      pop\n      pop\n        /* \"contracts/Market.sol\":14187:14536  while(i >= 0){... */\n      jump(tag_385)\n    tag_386:\n      sub(shl(0xa0, 0x01), 0x01)\n        /* \"contracts/Market.sol\":14548:14572  _affiliate == address(0) */\n      dup9\n      and\n        /* \"contracts/Market.sol\":14545:14620  if(_affiliate == address(0)){... */\n      tag_393\n      jumpi\n        /* \"contracts/Market.sol\":14600:14609  a.ecoAddr */\n      and(sub(shl(0xa0, 0x01), 0x01), sload(0x05))\n      swap8\n      pop\n        /* \"contracts/Market.sol\":14545:14620  if(_affiliate == address(0)){... */\n    tag_393:\n      pop\n        /* \"contracts/Market.sol\":14649:14718  Struct.MarketBet(_better, _affiliate, _stake, _matched, _odds, _side) */\n      0x40\n      dup1\n      mload\n      0xc0\n      dup2\n      add\n      dup3\n      mstore\n      sub(shl(0xa0, 0x01), 0x01)\n      swap10\n      dup11\n      and\n      dup1\n      dup3\n      mstore\n      swap9\n      dup11\n      and\n      0x20\n      dup1\n      dup4\n      add\n      swap2\n      dup3\n      mstore\n      dup3\n      dup5\n      add\n      swap10\n      dup11\n      mstore\n      0x60\n      dup4\n      add\n      swap9\n      dup10\n      mstore\n      0x80\n      dup4\n      add\n      swap8\n      dup9\n      mstore\n      0xa0\n      dup4\n      add\n      swap7\n      dup8\n      mstore\n      0x00\n        /* \"contracts/Market.sol\":14629:14646  betsInfo[betHash] */\n      dup6\n      dup2\n      mstore\n        /* \"contracts/Market.sol\":14629:14637  betsInfo */\n      0x10\n        /* \"contracts/Market.sol\":14629:14646  betsInfo[betHash] */\n      dup3\n      mstore\n      dup5\n      dup2\n      keccak256\n        /* \"contracts/Market.sol\":14629:14718  betsInfo[betHash] = Struct.MarketBet(_better, _affiliate, _stake, _matched, _odds, _side) */\n      swap4\n      mload\n      dup5\n      sload\n      swap1\n      dup15\n      and\n      not(sub(shl(0xa0, 0x01), 0x01))\n      swap2\n      dup3\n      and\n      or\n      dup6\n      sstore\n      swap3\n      mload\n      0x01\n      dup1\n      dup7\n      add\n      dup1\n      sload\n      swap3\n      swap1\n      swap16\n      and\n      swap2\n      swap1\n      swap5\n      and\n      or\n      swap1\n      swap13\n      sstore\n      swap9\n      mload\n      0x02\n      dup4\n      add\n      sstore\n      swap7\n      mload\n      0x03\n      dup3\n      add\n      sstore\n      swap5\n      mload\n      0x04\n      dup7\n      add\n      sstore\n      swap3\n      mload\n      0x05\n      swap1\n      swap5\n      add\n      swap4\n      swap1\n      swap4\n      sstore\n      pop\n        /* \"contracts/Market.sol\":14728:14732  bets */\n      0x0e\n        /* \"contracts/Market.sol\":14728:14746  bets.push(betHash) */\n      dup1\n      sload\n      dup1\n      dup6\n      add\n      swap1\n      swap2\n      sstore\n      0xbb7b4a454dc3493923482f07822329ed19e8244eff582cc204f8554c3620c3fd\n      add\n      dup3\n      swap1\n      sstore\n        /* \"contracts/Market.sol\":14756:14773  userBets[_better] */\n      swap4\n      dup6\n      mstore\n        /* \"contracts/Market.sol\":14756:14764  userBets */\n      0x0f\n        /* \"contracts/Market.sol\":14756:14773  userBets[_better] */\n      dup4\n      mstore\n      swap3\n      dup5\n      keccak256\n        /* \"contracts/Market.sol\":14756:14787  userBets[_better].push(betHash) */\n      dup1\n      sload\n      swap2\n      dup3\n      add\n      dup2\n      sstore\n      dup5\n      mstore\n      swap3\n      keccak256\n      swap1\n      swap2\n      add\n      dup2\n      swap1\n      sstore\n        /* \"contracts/Market.sol\":14629:14646  betsInfo[betHash] */\n      swap1\n        /* \"contracts/Market.sol\":13920:14818  function _createBet(... */\n      jump\t// out\n        /* \"contracts/Market.sol\":9377:10762  function _match(... */\n    tag_288:\n        /* \"contracts/Market.sol\":9574:9581  uint256 */\n      0x00\n        /* \"contracts/Market.sol\":9597:9617  uint256 betterAmount */\n      dup1\n        /* \"contracts/Market.sol\":9627:9646  uint256 makerAmount */\n      0x00\n        /* \"contracts/Market.sol\":9656:9672  bytes32 pairHash */\n      dup1\n        /* \"contracts/Market.sol\":9702:9708  _stake */\n      dup10\n        /* \"contracts/Market.sol\":9685:9698  _offeredStake */\n      dup10\n        /* \"contracts/Market.sol\":9685:9708  _offeredStake <= _stake */\n      gt\n        /* \"contracts/Market.sol\":9682:10528  if(_offeredStake <= _stake) {... */\n      tag_397\n      jumpi\n        /* \"contracts/Market.sol\":9739:9752  _offeredStake */\n      dup9\n      swap3\n      pop\n        /* \"contracts/Market.sol\":9797:9808  _odds - 100 */\n      tag_398\n        /* \"contracts/Market.sol\":9805:9808  100 */\n      0x64\n        /* \"contracts/Market.sol\":9797:9802  _odds */\n      dup10\n        /* \"contracts/Market.sol\":9797:9808  _odds - 100 */\n      tag_171\n      jump\t// in\n    tag_398:\n        /* \"contracts/Market.sol\":9780:9809  _offeredStake * (_odds - 100) */\n      tag_399\n      swap1\n        /* \"contracts/Market.sol\":9780:9793  _offeredStake */\n      dup11\n        /* \"contracts/Market.sol\":9780:9809  _offeredStake * (_odds - 100) */\n      tag_262\n      jump\t// in\n    tag_399:\n        /* \"contracts/Market.sol\":9766:9809  makerAmount = _offeredStake * (_odds - 100) */\n      swap2\n      pop\n        /* \"contracts/Market.sol\":9823:9841  makerAmount /= 100 */\n      tag_400\n        /* \"contracts/Market.sol\":9838:9841  100 */\n      0x64\n        /* \"contracts/Market.sol\":9766:9809  makerAmount = _offeredStake * (_odds - 100) */\n      dup4\n        /* \"contracts/Market.sol\":9823:9841  makerAmount /= 100 */\n      tag_264\n      jump\t// in\n    tag_400:\n      swap2\n      pop\n        /* \"contracts/Market.sol\":9858:9863  _side */\n      dup7\n        /* \"contracts/Market.sol\":9867:9868  1 */\n      0x01\n        /* \"contracts/Market.sol\":9858:9868  _side == 1 */\n      eq\n        /* \"contracts/Market.sol\":9855:10109  if(_side == 1){... */\n      iszero\n      tag_401\n      jumpi\n        /* \"contracts/Market.sol\":9898:9958  _createPair(_betHash,_selectedHash,betterAmount,makerAmount) */\n      tag_402\n        /* \"contracts/Market.sol\":9910:9918  _betHash */\n      dup7\n        /* \"contracts/Market.sol\":9919:9932  _selectedHash */\n      dup7\n        /* \"contracts/Market.sol\":9933:9945  betterAmount */\n      dup6\n        /* \"contracts/Market.sol\":9946:9957  makerAmount */\n      dup6\n        /* \"contracts/Market.sol\":9898:9909  _createPair */\n      tag_403\n        /* \"contracts/Market.sol\":9898:9958  _createPair(_betHash,_selectedHash,betterAmount,makerAmount) */\n      jump\t// in\n    tag_402:\n        /* \"contracts/Market.sol\":9887:9958  pairHash = _createPair(_betHash,_selectedHash,betterAmount,makerAmount) */\n      swap1\n      pop\n        /* \"contracts/Market.sol\":9682:10528  if(_offeredStake <= _stake) {... */\n      jump(tag_414)\n        /* \"contracts/Market.sol\":9855:10109  if(_side == 1){... */\n    tag_401:\n        /* \"contracts/Market.sol\":9994:9999  _side */\n      dup7\n        /* \"contracts/Market.sol\":10003:10004  2 */\n      0x02\n        /* \"contracts/Market.sol\":9994:10004  _side == 2 */\n      eq\n        /* \"contracts/Market.sol\":9991:10109  if(_side == 2){... */\n      iszero\n      tag_405\n      jumpi\n        /* \"contracts/Market.sol\":10034:10094  _createPair(_selectedHash,_betHash,makerAmount,betterAmount) */\n      tag_402\n        /* \"contracts/Market.sol\":10046:10059  _selectedHash */\n      dup6\n        /* \"contracts/Market.sol\":10060:10068  _betHash */\n      dup8\n        /* \"contracts/Market.sol\":10069:10080  makerAmount */\n      dup5\n        /* \"contracts/Market.sol\":10081:10093  betterAmount */\n      dup7\n        /* \"contracts/Market.sol\":10034:10045  _createPair */\n      tag_403\n        /* \"contracts/Market.sol\":10034:10094  _createPair(_selectedHash,_betHash,makerAmount,betterAmount) */\n      jump\t// in\n        /* \"contracts/Market.sol\":9991:10109  if(_side == 2){... */\n    tag_405:\n        /* \"contracts/Market.sol\":9682:10528  if(_offeredStake <= _stake) {... */\n      jump(tag_414)\n    tag_397:\n        /* \"contracts/Market.sol\":10162:10168  _stake */\n      dup10\n      swap3\n      pop\n        /* \"contracts/Market.sol\":10206:10217  _odds - 100 */\n      tag_408\n        /* \"contracts/Market.sol\":10214:10217  100 */\n      0x64\n        /* \"contracts/Market.sol\":10206:10211  _odds */\n      dup10\n        /* \"contracts/Market.sol\":10206:10217  _odds - 100 */\n      tag_171\n      jump\t// in\n    tag_408:\n        /* \"contracts/Market.sol\":10196:10218  _stake * (_odds - 100) */\n      tag_409\n      swap1\n        /* \"contracts/Market.sol\":10196:10202  _stake */\n      dup12\n        /* \"contracts/Market.sol\":10196:10218  _stake * (_odds - 100) */\n      tag_262\n      jump\t// in\n    tag_409:\n        /* \"contracts/Market.sol\":10182:10218  makerAmount = _stake * (_odds - 100) */\n      swap2\n      pop\n        /* \"contracts/Market.sol\":10232:10250  makerAmount /= 100 */\n      tag_410\n        /* \"contracts/Market.sol\":10247:10250  100 */\n      0x64\n        /* \"contracts/Market.sol\":10182:10218  makerAmount = _stake * (_odds - 100) */\n      dup4\n        /* \"contracts/Market.sol\":10232:10250  makerAmount /= 100 */\n      tag_264\n      jump\t// in\n    tag_410:\n      swap2\n      pop\n        /* \"contracts/Market.sol\":10267:10272  _side */\n      dup7\n        /* \"contracts/Market.sol\":10276:10277  1 */\n      0x01\n        /* \"contracts/Market.sol\":10267:10277  _side == 1 */\n      eq\n        /* \"contracts/Market.sol\":10264:10518  if(_side == 1){... */\n      iszero\n      tag_411\n      jumpi\n        /* \"contracts/Market.sol\":10307:10367  _createPair(_betHash,_selectedHash,betterAmount,makerAmount) */\n      tag_402\n        /* \"contracts/Market.sol\":10319:10327  _betHash */\n      dup7\n        /* \"contracts/Market.sol\":10328:10341  _selectedHash */\n      dup7\n        /* \"contracts/Market.sol\":10342:10354  betterAmount */\n      dup6\n        /* \"contracts/Market.sol\":10355:10366  makerAmount */\n      dup6\n        /* \"contracts/Market.sol\":10307:10318  _createPair */\n      tag_403\n        /* \"contracts/Market.sol\":10307:10367  _createPair(_betHash,_selectedHash,betterAmount,makerAmount) */\n      jump\t// in\n        /* \"contracts/Market.sol\":10264:10518  if(_side == 1){... */\n    tag_411:\n        /* \"contracts/Market.sol\":10403:10408  _side */\n      dup7\n        /* \"contracts/Market.sol\":10412:10413  2 */\n      0x02\n        /* \"contracts/Market.sol\":10403:10413  _side == 2 */\n      eq\n        /* \"contracts/Market.sol\":10400:10518  if(_side == 2){... */\n      iszero\n      tag_414\n      jumpi\n        /* \"contracts/Market.sol\":10443:10503  _createPair(_selectedHash,_betHash,makerAmount,betterAmount) */\n      tag_415\n        /* \"contracts/Market.sol\":10455:10468  _selectedHash */\n      dup6\n        /* \"contracts/Market.sol\":10469:10477  _betHash */\n      dup8\n        /* \"contracts/Market.sol\":10478:10489  makerAmount */\n      dup5\n        /* \"contracts/Market.sol\":10490:10502  betterAmount */\n      dup7\n        /* \"contracts/Market.sol\":10443:10454  _createPair */\n      tag_403\n        /* \"contracts/Market.sol\":10443:10503  _createPair(_selectedHash,_betHash,makerAmount,betterAmount) */\n      jump\t// in\n    tag_415:\n        /* \"contracts/Market.sol\":10432:10503  pairHash = _createPair(_selectedHash,_betHash,makerAmount,betterAmount) */\n      swap1\n      pop\n        /* \"contracts/Market.sol\":10400:10518  if(_side == 2){... */\n    tag_414:\n        /* \"contracts/Market.sol\":10537:10555  betPairs[_betHash] */\n      0x00\n      dup7\n      dup2\n      mstore\n        /* \"contracts/Market.sol\":10537:10545  betPairs */\n      0x12\n        /* \"contracts/Market.sol\":10537:10555  betPairs[_betHash] */\n      0x20\n      swap1\n      dup2\n      mstore\n      0x40\n      dup1\n      dup4\n      keccak256\n        /* \"contracts/Market.sol\":10537:10570  betPairs[_betHash].push(pairHash) */\n      dup1\n      sload\n      0x01\n      dup2\n      dup2\n      add\n      dup4\n      sstore\n      swap2\n      dup6\n      mstore\n      dup4\n      dup6\n      keccak256\n      add\n      dup6\n      swap1\n      sstore\n        /* \"contracts/Market.sol\":10580:10603  betPairs[_selectedHash] */\n      dup9\n      dup5\n      mstore\n      dup2\n      dup5\n      keccak256\n        /* \"contracts/Market.sol\":10580:10618  betPairs[_selectedHash].push(pairHash) */\n      dup1\n      sload\n      swap2\n      dup3\n      add\n      dup2\n      sstore\n      dup5\n      mstore\n      dup3\n      dup5\n      keccak256\n      add\n      dup5\n      swap1\n      sstore\n        /* \"contracts/Market.sol\":10628:10646  betsInfo[_betHash] */\n      dup9\n      dup4\n      mstore\n        /* \"contracts/Market.sol\":10628:10636  betsInfo */\n      0x10\n        /* \"contracts/Market.sol\":10628:10646  betsInfo[_betHash] */\n      swap1\n      swap2\n      mstore\n      dup2\n      keccak256\n        /* \"contracts/Market.sol\":10628:10654  betsInfo[_betHash].matched */\n      0x03\n      add\n        /* \"contracts/Market.sol\":10628:10670  betsInfo[_betHash].matched += betterAmount */\n      dup1\n      sload\n        /* \"contracts/Market.sol\":10658:10670  betterAmount */\n      dup6\n      swap3\n        /* \"contracts/Market.sol\":10537:10555  betPairs[_betHash] */\n      swap1\n        /* \"contracts/Market.sol\":10628:10670  betsInfo[_betHash].matched += betterAmount */\n      tag_418\n      swap1\n        /* \"contracts/Market.sol\":10658:10670  betterAmount */\n      dup5\n      swap1\n        /* \"contracts/Market.sol\":10628:10670  betsInfo[_betHash].matched += betterAmount */\n      tag_173\n      jump\t// in\n    tag_418:\n      swap1\n      swap2\n      sstore\n      pop\n      pop\n        /* \"contracts/Market.sol\":10680:10703  betsInfo[_selectedHash] */\n      0x00\n      dup6\n      dup2\n      mstore\n        /* \"contracts/Market.sol\":10680:10688  betsInfo */\n      0x10\n        /* \"contracts/Market.sol\":10680:10703  betsInfo[_selectedHash] */\n      0x20\n      mstore\n      0x40\n      dup2\n      keccak256\n        /* \"contracts/Market.sol\":10680:10711  betsInfo[_selectedHash].matched */\n      0x03\n      add\n        /* \"contracts/Market.sol\":10680:10726  betsInfo[_selectedHash].matched += makerAmount */\n      dup1\n      sload\n        /* \"contracts/Market.sol\":10715:10726  makerAmount */\n      dup5\n      swap3\n        /* \"contracts/Market.sol\":10680:10703  betsInfo[_selectedHash] */\n      swap1\n        /* \"contracts/Market.sol\":10680:10726  betsInfo[_selectedHash].matched += makerAmount */\n      tag_419\n      swap1\n        /* \"contracts/Market.sol\":10715:10726  makerAmount */\n      dup5\n      swap1\n        /* \"contracts/Market.sol\":10680:10726  betsInfo[_selectedHash].matched += makerAmount */\n      tag_173\n      jump\t// in\n    tag_419:\n      swap1\n      swap2\n      sstore\n      pop\n        /* \"contracts/Market.sol\":10743:10755  betterAmount */\n      swap3\n      swap11\n        /* \"contracts/Market.sol\":9377:10762  function _match(... */\n      swap10\n      pop\n      pop\n      pop\n      pop\n      pop\n      pop\n      pop\n      pop\n      pop\n      pop\n      jump\t// out\n        /* \"contracts/Market.sol\":14824:15563  function _createPair(... */\n    tag_403:\n        /* \"contracts/Market.sol\":14982:14989  bytes32 */\n      0x00\n        /* \"contracts/Market.sol\":15005:15021  bytes32 pairHash */\n      dup1\n        /* \"contracts/Market.sol\":15031:15037  uint i */\n      0x00\n        /* \"contracts/Market.sol\":15051:15404  while(i >= 0){... */\n    tag_421:\n        /* \"contracts/Market.sol\":15187:15192  pairs */\n      0x11\n        /* \"contracts/Market.sol\":15187:15199  pairs.length */\n      sload\n        /* \"contracts/Market.sol\":15133:15142  _betHashA */\n      dup8\n      swap1\n        /* \"contracts/Market.sol\":15160:15169  _betHashB */\n      dup8\n      swap1\n        /* \"contracts/Market.sol\":15206:15207  i */\n      dup4\n      swap1\n        /* \"contracts/Market.sol\":15187:15203  pairs.length + 1 */\n      tag_423\n      swap1\n        /* \"contracts/Market.sol\":15202:15203  1 */\n      0x01\n        /* \"contracts/Market.sol\":15187:15203  pairs.length + 1 */\n      tag_173\n      jump\t// in\n    tag_423:\n        /* \"contracts/Market.sol\":15187:15207  pairs.length + 1 + i */\n      tag_424\n      swap2\n      swap1\n      tag_173\n      jump\t// in\n    tag_424:\n        /* \"contracts/Market.sol\":15099:15288  abi.encodePacked(... */\n      0x40\n      dup1\n      mload\n      0x20\n      dup2\n      add\n        /* \"#utility.yul\":2554:2573   */\n      swap5\n      swap1\n      swap5\n      mstore\n        /* \"#utility.yul\":2589:2601   */\n      dup4\n      add\n        /* \"#utility.yul\":2582:2610   */\n      swap2\n      swap1\n      swap2\n      mstore\n        /* \"#utility.yul\":2626:2638   */\n      0x60\n      dup3\n      add\n        /* \"#utility.yul\":2619:2647   */\n      mstore\n        /* \"contracts/Market.sol\":15225:15240  block.timestamp */\n      timestamp\n        /* \"#utility.yul\":2663:2675   */\n      0x80\n      dup3\n      add\n        /* \"#utility.yul\":2656:2684   */\n      mstore\n        /* \"contracts/Market.sol\":15258:15274  block.difficulty */\n      difficulty\n        /* \"#utility.yul\":2700:2713   */\n      0xa0\n      dup3\n      add\n        /* \"#utility.yul\":2693:2722   */\n      mstore\n        /* \"#utility.yul\":2738:2751   */\n      0xc0\n      add\n        /* \"contracts/Market.sol\":15099:15288  abi.encodePacked(... */\n      0x40\n      dup1\n      mload\n      not(0x1f)\n      dup2\n      dup5\n      sub\n      add\n      dup2\n      mstore\n      swap2\n      dup2\n      mstore\n        /* \"contracts/Market.sol\":15089:15289  keccak256(abi.encodePacked(... */\n      dup2\n      mload\n        /* \"contracts/Market.sol\":15099:15288  abi.encodePacked(... */\n      0x20\n        /* \"contracts/Market.sol\":15089:15289  keccak256(abi.encodePacked(... */\n      swap3\n      dup4\n      add\n      keccak256\n        /* \"contracts/Market.sol\":15306:15325  pairsInfo[pairHash] */\n      0x00\n      dup2\n      dup2\n      mstore\n        /* \"contracts/Market.sol\":15306:15315  pairsInfo */\n      0x13\n        /* \"contracts/Market.sol\":15306:15325  pairsInfo[pairHash] */\n      swap1\n      swap4\n      mstore\n      swap2\n      keccak256\n        /* \"contracts/Market.sol\":15306:15333  pairsInfo[pairHash].amountA */\n      0x02\n      add\n      sload\n        /* \"contracts/Market.sol\":15089:15289  keccak256(abi.encodePacked(... */\n      swap1\n      swap3\n      pop\n        /* \"contracts/Market.sol\":15303:15377  if(pairsInfo[pairHash].amountA == 0){... */\n      tag_427\n      jumpi\n        /* \"contracts/Market.sol\":15357:15362  break */\n      jump(tag_422)\n        /* \"contracts/Market.sol\":15303:15377  if(pairsInfo[pairHash].amountA == 0){... */\n    tag_427:\n        /* \"contracts/Market.sol\":15390:15393  i++ */\n      dup1\n      tag_428\n      dup2\n      tag_152\n      jump\t// in\n    tag_428:\n      swap2\n      pop\n      pop\n        /* \"contracts/Market.sol\":15051:15404  while(i >= 0){... */\n      jump(tag_421)\n    tag_422:\n      pop\n        /* \"contracts/Market.sol\":15435:15501  Struct.MarketPair(_betHashA, _betHashB, _amountA, _amountB, false) */\n      0x40\n      dup1\n      mload\n      0xa0\n      dup2\n      add\n      dup3\n      mstore\n      swap7\n      dup8\n      mstore\n      0x20\n      dup1\n      dup9\n      add\n      swap7\n      dup8\n      mstore\n      dup8\n      dup3\n      add\n      swap6\n      dup7\n      mstore\n      0x60\n      dup9\n      add\n      swap5\n      dup6\n      mstore\n      0x00\n      0x80\n      dup10\n      add\n      dup2\n      dup2\n      mstore\n        /* \"contracts/Market.sol\":15413:15432  pairsInfo[pairHash] */\n      dup5\n      dup3\n      mstore\n        /* \"contracts/Market.sol\":15413:15422  pairsInfo */\n      0x13\n        /* \"contracts/Market.sol\":15413:15432  pairsInfo[pairHash] */\n      swap1\n      swap3\n      mstore\n      swap2\n      dup3\n      keccak256\n        /* \"contracts/Market.sol\":15413:15501  pairsInfo[pairHash] = Struct.MarketPair(_betHashA, _betHashB, _amountA, _amountB, false) */\n      swap8\n      mload\n      dup9\n      sstore\n      swap6\n      mload\n        /* \"contracts/Market.sol\":15435:15501  Struct.MarketPair(_betHashA, _betHashB, _amountA, _amountB, false) */\n      0x01\n        /* \"contracts/Market.sol\":15413:15501  pairsInfo[pairHash] = Struct.MarketPair(_betHashA, _betHashB, _amountA, _amountB, false) */\n      dup1\n      dup10\n      add\n      swap2\n      swap1\n      swap2\n      sstore\n      swap5\n      mload\n      0x02\n      dup9\n      add\n      sstore\n      swap3\n      mload\n      0x03\n      dup8\n      add\n      sstore\n      swap4\n      mload\n      0x04\n      swap1\n      swap6\n      add\n      dup1\n      sload\n      not(0xff)\n      and\n      swap6\n      iszero\n      iszero\n      swap6\n      swap1\n      swap6\n      or\n      swap1\n      swap5\n      sstore\n        /* \"contracts/Market.sol\":15511:15516  pairs */\n      0x11\n        /* \"contracts/Market.sol\":15511:15531  pairs.push(pairHash) */\n      dup1\n      sload\n      swap3\n      dup4\n      add\n      dup2\n      sstore\n      swap1\n      mstore\n      0x31ecc21a745e3968a04e9570e4425bc18fa8019c68028196b546d1669c200c68\n      add\n      dup2\n      swap1\n      sstore\n        /* \"contracts/Market.sol\":15413:15432  pairsInfo[pairHash] */\n      swap2\n        /* \"contracts/Market.sol\":14824:15563  function _createPair(... */\n      swap1\n      pop\n      jump\t// out\n        /* \"#utility.yul\":14:187   */\n    tag_431:\n        /* \"#utility.yul\":82:102   */\n      dup1\n      calldataload\n      sub(shl(0xa0, 0x01), 0x01)\n        /* \"#utility.yul\":131:162   */\n      dup2\n      and\n        /* \"#utility.yul\":121:163   */\n      dup2\n      eq\n        /* \"#utility.yul\":111:113   */\n      tag_190\n      jumpi\n        /* \"#utility.yul\":177:178   */\n      0x00\n        /* \"#utility.yul\":174:175   */\n      dup1\n        /* \"#utility.yul\":167:179   */\n      revert\n        /* \"#utility.yul\":192:388   */\n    tag_39:\n        /* \"#utility.yul\":251:257   */\n      0x00\n        /* \"#utility.yul\":304:306   */\n      0x20\n        /* \"#utility.yul\":292:301   */\n      dup3\n        /* \"#utility.yul\":283:290   */\n      dup5\n        /* \"#utility.yul\":279:302   */\n      sub\n        /* \"#utility.yul\":275:307   */\n      slt\n        /* \"#utility.yul\":272:274   */\n      iszero\n      tag_435\n      jumpi\n        /* \"#utility.yul\":325:331   */\n      dup1\n        /* \"#utility.yul\":317:323   */\n      dup2\n        /* \"#utility.yul\":310:332   */\n      revert\n        /* \"#utility.yul\":272:274   */\n    tag_435:\n        /* \"#utility.yul\":353:382   */\n      tag_436\n        /* \"#utility.yul\":372:381   */\n      dup3\n        /* \"#utility.yul\":353:382   */\n      tag_431\n      jump\t// in\n    tag_436:\n        /* \"#utility.yul\":343:382   */\n      swap4\n        /* \"#utility.yul\":262:388   */\n      swap3\n      pop\n      pop\n      pop\n      jump\t// out\n        /* \"#utility.yul\":393:924   */\n    tag_82:\n        /* \"#utility.yul\":485:491   */\n      0x00\n        /* \"#utility.yul\":493:499   */\n      dup1\n        /* \"#utility.yul\":501:507   */\n      0x00\n        /* \"#utility.yul\":509:515   */\n      dup1\n        /* \"#utility.yul\":517:523   */\n      0x00\n        /* \"#utility.yul\":570:573   */\n      0xa0\n        /* \"#utility.yul\":558:567   */\n      dup7\n        /* \"#utility.yul\":549:556   */\n      dup9\n        /* \"#utility.yul\":545:568   */\n      sub\n        /* \"#utility.yul\":541:574   */\n      slt\n        /* \"#utility.yul\":538:540   */\n      iszero\n      tag_438\n      jumpi\n        /* \"#utility.yul\":592:598   */\n      dup1\n        /* \"#utility.yul\":584:590   */\n      dup2\n        /* \"#utility.yul\":577:599   */\n      revert\n        /* \"#utility.yul\":538:540   */\n    tag_438:\n        /* \"#utility.yul\":620:649   */\n      tag_439\n        /* \"#utility.yul\":639:648   */\n      dup7\n        /* \"#utility.yul\":620:649   */\n      tag_431\n      jump\t// in\n    tag_439:\n        /* \"#utility.yul\":610:649   */\n      swap5\n      pop\n        /* \"#utility.yul\":696:698   */\n      0x20\n        /* \"#utility.yul\":685:694   */\n      dup7\n        /* \"#utility.yul\":681:699   */\n      add\n        /* \"#utility.yul\":668:700   */\n      calldataload\n        /* \"#utility.yul\":658:700   */\n      swap4\n      pop\n        /* \"#utility.yul\":747:749   */\n      0x40\n        /* \"#utility.yul\":736:745   */\n      dup7\n        /* \"#utility.yul\":732:750   */\n      add\n        /* \"#utility.yul\":719:751   */\n      calldataload\n        /* \"#utility.yul\":709:751   */\n      swap3\n      pop\n        /* \"#utility.yul\":798:800   */\n      0x60\n        /* \"#utility.yul\":787:796   */\n      dup7\n        /* \"#utility.yul\":783:801   */\n      add\n        /* \"#utility.yul\":770:802   */\n      calldataload\n        /* \"#utility.yul\":760:802   */\n      swap2\n      pop\n        /* \"#utility.yul\":852:855   */\n      0x80\n        /* \"#utility.yul\":841:850   */\n      dup7\n        /* \"#utility.yul\":837:856   */\n      add\n        /* \"#utility.yul\":824:857   */\n      calldataload\n        /* \"#utility.yul\":866:894   */\n      tag_440\n        /* \"#utility.yul\":888:893   */\n      dup2\n        /* \"#utility.yul\":866:894   */\n      tag_441\n      jump\t// in\n    tag_440:\n        /* \"#utility.yul\":913:918   */\n      dup1\n        /* \"#utility.yul\":903:918   */\n      swap2\n      pop\n      pop\n        /* \"#utility.yul\":528:924   */\n      swap3\n      swap6\n      pop\n      swap3\n      swap6\n      swap1\n      swap4\n      pop\n      jump\t// out\n        /* \"#utility.yul\":929:1184   */\n    tag_137:\n        /* \"#utility.yul\":996:1002   */\n      0x00\n        /* \"#utility.yul\":1049:1051   */\n      0x20\n        /* \"#utility.yul\":1037:1046   */\n      dup3\n        /* \"#utility.yul\":1028:1035   */\n      dup5\n        /* \"#utility.yul\":1024:1047   */\n      sub\n        /* \"#utility.yul\":1020:1052   */\n      slt\n        /* \"#utility.yul\":1017:1019   */\n      iszero\n      tag_443\n      jumpi\n        /* \"#utility.yul\":1070:1076   */\n      dup1\n        /* \"#utility.yul\":1062:1068   */\n      dup2\n        /* \"#utility.yul\":1055:1077   */\n      revert\n        /* \"#utility.yul\":1017:1019   */\n    tag_443:\n        /* \"#utility.yul\":1107:1116   */\n      dup2\n        /* \"#utility.yul\":1101:1117   */\n      mload\n        /* \"#utility.yul\":1126:1154   */\n      tag_436\n        /* \"#utility.yul\":1148:1153   */\n      dup2\n        /* \"#utility.yul\":1126:1154   */\n      tag_441\n      jump\t// in\n        /* \"#utility.yul\":1189:1379   */\n    tag_30:\n        /* \"#utility.yul\":1248:1254   */\n      0x00\n        /* \"#utility.yul\":1301:1303   */\n      0x20\n        /* \"#utility.yul\":1289:1298   */\n      dup3\n        /* \"#utility.yul\":1280:1287   */\n      dup5\n        /* \"#utility.yul\":1276:1299   */\n      sub\n        /* \"#utility.yul\":1272:1304   */\n      slt\n        /* \"#utility.yul\":1269:1271   */\n      iszero\n      tag_446\n      jumpi\n        /* \"#utility.yul\":1322:1328   */\n      dup1\n        /* \"#utility.yul\":1314:1320   */\n      dup2\n        /* \"#utility.yul\":1307:1329   */\n      revert\n        /* \"#utility.yul\":1269:1271   */\n    tag_446:\n      pop\n        /* \"#utility.yul\":1350:1373   */\n      calldataload\n      swap2\n        /* \"#utility.yul\":1259:1379   */\n      swap1\n      pop\n      jump\t// out\n        /* \"#utility.yul\":1579:1773   */\n    tag_126:\n        /* \"#utility.yul\":1649:1655   */\n      0x00\n        /* \"#utility.yul\":1702:1704   */\n      0x20\n        /* \"#utility.yul\":1690:1699   */\n      dup3\n        /* \"#utility.yul\":1681:1688   */\n      dup5\n        /* \"#utility.yul\":1677:1700   */\n      sub\n        /* \"#utility.yul\":1673:1705   */\n      slt\n        /* \"#utility.yul\":1670:1672   */\n      iszero\n      tag_450\n      jumpi\n        /* \"#utility.yul\":1723:1729   */\n      dup1\n        /* \"#utility.yul\":1715:1721   */\n      dup2\n        /* \"#utility.yul\":1708:1730   */\n      revert\n        /* \"#utility.yul\":1670:1672   */\n    tag_450:\n      pop\n        /* \"#utility.yul\":1751:1767   */\n      mload\n      swap2\n        /* \"#utility.yul\":1660:1773   */\n      swap1\n      pop\n      jump\t// out\n        /* \"#utility.yul\":4534:5169   */\n    tag_33:\n        /* \"#utility.yul\":4705:4707   */\n      0x20\n        /* \"#utility.yul\":4757:4778   */\n      dup1\n      dup3\n      mstore\n        /* \"#utility.yul\":4827:4840   */\n      dup3\n      mload\n        /* \"#utility.yul\":4730:4748   */\n      dup3\n      dup3\n      add\n        /* \"#utility.yul\":4849:4871   */\n      dup2\n      swap1\n      mstore\n        /* \"#utility.yul\":4676:4680   */\n      0x00\n      swap2\n        /* \"#utility.yul\":4705:4707   */\n      swap1\n        /* \"#utility.yul\":4928:4943   */\n      dup5\n      dup3\n      add\n      swap1\n        /* \"#utility.yul\":4902:4904   */\n      0x40\n        /* \"#utility.yul\":4887:4905   */\n      dup6\n      add\n      swap1\n        /* \"#utility.yul\":4676:4680   */\n      dup5\n        /* \"#utility.yul\":4974:5143   */\n    tag_459:\n        /* \"#utility.yul\":4988:4994   */\n      dup2\n        /* \"#utility.yul\":4985:4986   */\n      dup2\n        /* \"#utility.yul\":4982:4995   */\n      lt\n        /* \"#utility.yul\":4974:5143   */\n      iszero\n      tag_461\n      jumpi\n        /* \"#utility.yul\":5049:5062   */\n      dup4\n      mload\n        /* \"#utility.yul\":5037:5063   */\n      dup4\n      mstore\n        /* \"#utility.yul\":5118:5133   */\n      swap3\n      dup5\n      add\n      swap3\n        /* \"#utility.yul\":5083:5095   */\n      swap2\n      dup5\n      add\n      swap2\n        /* \"#utility.yul\":5010:5011   */\n      0x01\n        /* \"#utility.yul\":5003:5012   */\n      add\n        /* \"#utility.yul\":4974:5143   */\n      jump(tag_459)\n    tag_461:\n      pop\n        /* \"#utility.yul\":5160:5163   */\n      swap1\n      swap7\n        /* \"#utility.yul\":4685:5169   */\n      swap6\n      pop\n      pop\n      pop\n      pop\n      pop\n      pop\n      jump\t// out\n        /* \"#utility.yul\":9276:9601   */\n    tag_159:\n        /* \"#utility.yul\":9478:9480   */\n      0x20\n        /* \"#utility.yul\":9460:9481   */\n      dup1\n      dup3\n      mstore\n        /* \"#utility.yul\":9517:9518   */\n      0x02\n        /* \"#utility.yul\":9497:9515   */\n      swap1\n      dup3\n      add\n        /* \"#utility.yul\":9490:9519   */\n      mstore\n      shl(0xf1, 0x2699)\n        /* \"#utility.yul\":9550:9552   */\n      0x40\n        /* \"#utility.yul\":9535:9553   */\n      dup3\n      add\n        /* \"#utility.yul\":9528:9560   */\n      mstore\n        /* \"#utility.yul\":9592:9594   */\n      0x60\n        /* \"#utility.yul\":9577:9595   */\n      add\n      swap1\n        /* \"#utility.yul\":9450:9601   */\n      jump\t// out\n        /* \"#utility.yul\":11277:11405   */\n    tag_173:\n        /* \"#utility.yul\":11317:11320   */\n      0x00\n        /* \"#utility.yul\":11348:11349   */\n      dup3\n        /* \"#utility.yul\":11344:11350   */\n      not\n        /* \"#utility.yul\":11341:11342   */\n      dup3\n        /* \"#utility.yul\":11338:11351   */\n      gt\n        /* \"#utility.yul\":11335:11337   */\n      iszero\n      tag_482\n      jumpi\n        /* \"#utility.yul\":11354:11372   */\n      tag_482\n      tag_483\n      jump\t// in\n    tag_482:\n      pop\n        /* \"#utility.yul\":11390:11399   */\n      add\n      swap1\n        /* \"#utility.yul\":11325:11405   */\n      jump\t// out\n        /* \"#utility.yul\":11410:11627   */\n    tag_264:\n        /* \"#utility.yul\":11450:11451   */\n      0x00\n        /* \"#utility.yul\":11476:11477   */\n      dup3\n        /* \"#utility.yul\":11466:11468   */\n      tag_485\n      jumpi\n      shl(0xe0, 0x4e487b71)\n        /* \"#utility.yul\":11501:11532   */\n      dup2\n      mstore\n        /* \"#utility.yul\":11555:11559   */\n      0x12\n        /* \"#utility.yul\":11552:11553   */\n      0x04\n        /* \"#utility.yul\":11545:11560   */\n      mstore\n        /* \"#utility.yul\":11583:11587   */\n      0x24\n        /* \"#utility.yul\":11508:11509   */\n      dup2\n        /* \"#utility.yul\":11573:11588   */\n      revert\n        /* \"#utility.yul\":11466:11468   */\n    tag_485:\n      pop\n        /* \"#utility.yul\":11612:11621   */\n      div\n      swap1\n        /* \"#utility.yul\":11456:11627   */\n      jump\t// out\n        /* \"#utility.yul\":11632:11800   */\n    tag_262:\n        /* \"#utility.yul\":11672:11679   */\n      0x00\n        /* \"#utility.yul\":11738:11739   */\n      dup2\n        /* \"#utility.yul\":11734:11735   */\n      0x00\n        /* \"#utility.yul\":11730:11736   */\n      not\n        /* \"#utility.yul\":11726:11740   */\n      div\n        /* \"#utility.yul\":11723:11724   */\n      dup4\n        /* \"#utility.yul\":11720:11741   */\n      gt\n        /* \"#utility.yul\":11715:11716   */\n      dup3\n        /* \"#utility.yul\":11708:11717   */\n      iszero\n        /* \"#utility.yul\":11701:11718   */\n      iszero\n        /* \"#utility.yul\":11697:11742   */\n      and\n        /* \"#utility.yul\":11694:11696   */\n      iszero\n      tag_488\n      jumpi\n        /* \"#utility.yul\":11745:11763   */\n      tag_488\n      tag_483\n      jump\t// in\n    tag_488:\n      pop\n        /* \"#utility.yul\":11785:11794   */\n      mul\n      swap1\n        /* \"#utility.yul\":11684:11800   */\n      jump\t// out\n        /* \"#utility.yul\":11805:11930   */\n    tag_171:\n        /* \"#utility.yul\":11845:11849   */\n      0x00\n        /* \"#utility.yul\":11873:11874   */\n      dup3\n        /* \"#utility.yul\":11870:11871   */\n      dup3\n        /* \"#utility.yul\":11867:11875   */\n      lt\n        /* \"#utility.yul\":11864:11866   */\n      iszero\n      tag_491\n      jumpi\n        /* \"#utility.yul\":11878:11896   */\n      tag_491\n      tag_483\n      jump\t// in\n    tag_491:\n      pop\n        /* \"#utility.yul\":11915:11924   */\n      sub\n      swap1\n        /* \"#utility.yul\":11854:11930   */\n      jump\t// out\n        /* \"#utility.yul\":11935:12070   */\n    tag_152:\n        /* \"#utility.yul\":11974:11977   */\n      0x00\n      not(0x00)\n        /* \"#utility.yul\":11995:12012   */\n      dup3\n      eq\n        /* \"#utility.yul\":11992:11994   */\n      iszero\n      tag_494\n      jumpi\n        /* \"#utility.yul\":12015:12033   */\n      tag_494\n      tag_483\n      jump\t// in\n    tag_494:\n      pop\n        /* \"#utility.yul\":12062:12063   */\n      0x01\n        /* \"#utility.yul\":12051:12064   */\n      add\n      swap1\n        /* \"#utility.yul\":11982:12070   */\n      jump\t// out\n        /* \"#utility.yul\":12075:12202   */\n    tag_483:\n        /* \"#utility.yul\":12136:12146   */\n      0x4e487b71\n        /* \"#utility.yul\":12131:12134   */\n      0xe0\n        /* \"#utility.yul\":12127:12147   */\n      shl\n        /* \"#utility.yul\":12124:12125   */\n      0x00\n        /* \"#utility.yul\":12117:12148   */\n      mstore\n        /* \"#utility.yul\":12167:12171   */\n      0x11\n        /* \"#utility.yul\":12164:12165   */\n      0x04\n        /* \"#utility.yul\":12157:12172   */\n      mstore\n        /* \"#utility.yul\":12191:12195   */\n      0x24\n        /* \"#utility.yul\":12188:12189   */\n      0x00\n        /* \"#utility.yul\":12181:12196   */\n      revert\n        /* \"#utility.yul\":12207:12325   */\n    tag_441:\n        /* \"#utility.yul\":12293:12298   */\n      dup1\n        /* \"#utility.yul\":12286:12299   */\n      iszero\n        /* \"#utility.yul\":12279:12300   */\n      iszero\n        /* \"#utility.yul\":12272:12277   */\n      dup2\n        /* \"#utility.yul\":12269:12301   */\n      eq\n        /* \"#utility.yul\":12259:12261   */\n      tag_108\n      jumpi\n        /* \"#utility.yul\":12315:12316   */\n      0x00\n        /* \"#utility.yul\":12312:12313   */\n      dup1\n        /* \"#utility.yul\":12305:12317   */\n      revert\n\n    auxdata: 0xa264697066735822122067e6da4005b040a9f033925009e87f76d422f9dab3ef11e233f20c8f851e9eb864736f6c63430008040033\n}\n",
				"bytecode": {
					"linkReferences": {},
					"object": "60a0604052600b80546001600160a01b031916331790553480156200002357600080fd5b5060405162002a0f38038062002a0f833981016040819052620000469162000606565b60016000556040805161014081018252828152336020820152600b548251631e55833360e31b81526004810185905291928301916001600160a01b039091169063f2ac19989060240160206040518083038186803b158015620000a857600080fd5b505afa158015620000bd573d6000803e3d6000fd5b505050506040513d601f19601f82011682018060405250810190620000e39190620005d6565b6001600160a01b03168152602001600b60009054906101000a90046001600160a01b03166001600160a01b031663b7640a546040518163ffffffff1660e01b815260040160206040518083038186803b1580156200014057600080fd5b505afa15801562000155573d6000803e3d6000fd5b505050506040513d601f19601f820116820180604052508101906200017b9190620005d6565b6001600160a01b03168152602001600b60009054906101000a90046001600160a01b03166001600160a01b03166309953b2f6040518163ffffffff1660e01b815260040160206040518083038186803b158015620001d857600080fd5b505afa158015620001ed573d6000803e3d6000fd5b505050506040513d601f19601f82011682018060405250810190620002139190620005d6565b6001600160a01b03168152602001600b60009054906101000a90046001600160a01b03166001600160a01b031663375b3c0a6040518163ffffffff1660e01b815260040160206040518083038186803b1580156200027057600080fd5b505afa15801562000285573d6000803e3d6000fd5b505050506040513d601f19601f82011682018060405250810190620002ab919062000606565b8152600b54604080516355c4a8bf60e01b815290516020938401936001600160a01b03909316926355c4a8bf9260048082019391829003018186803b158015620002f457600080fd5b505afa15801562000309573d6000803e3d6000fd5b505050506040513d601f19601f820116820180604052508101906200032f919062000606565b8152600b5460408051631533469760e21b815290516020938401936001600160a01b03909316926354cd1a5c9260048082019391829003018186803b1580156200037857600080fd5b505afa1580156200038d573d6000803e3d6000fd5b505050506040513d601f19601f82011682018060405250810190620003b3919062000606565b8152600b54604080516328576d4560e01b815290516020938401936001600160a01b03909316926328576d459260048082019391829003018186803b158015620003fc57600080fd5b505afa15801562000411573d6000803e3d6000fd5b505050506040513d601f19601f8201168201806040525081019062000437919062000606565b8152600b5460408051636a0ccd9d60e01b815290516020938401936001600160a01b0390931692636a0ccd9d9260048082019391829003018186803b1580156200048057600080fd5b505afa15801562000495573d6000803e3d6000fd5b505050506040513d601f19601f82011682018060405250810190620004bb919062000606565b90528051600155602080820151600280546001600160a01b03199081166001600160a01b039384161790915560408085015160038054841691851691909117905560608501516004805484169185169190911781556080860151600580549094169085161790925560a085015160065560c085015160075560e085015160085561010085015160095561012090940151600a55600b54845162966ed960e31b815294519216936304b376c8938183019390929091829003018186803b1580156200058457600080fd5b505afa15801562000599573d6000803e3d6000fd5b505050506040513d601f19601f82011682018060405250810190620005bf9190620005d6565b60601b6001600160601b031916608052506200061f565b600060208284031215620005e8578081fd5b81516001600160a01b0381168114620005ff578182fd5b9392505050565b60006020828403121562000618578081fd5b5051919050565b60805160601c6123b56200065a6000396000818161060d0152818161071f01528181610dc901528181610eb60152610fe701526123b56000f3fe608060405234801561001057600080fd5b50600436106101165760003560e01c80637d7f9232116100a2578063b8e5303d11610071578063b8e5303d14610263578063ba8006c614610334578063d0ed729514610347578063ea8a1af01461035a578063f8b2cb4f1461036257600080fd5b80637d7f92321461022d5780638df8280014610240578063a6afd5fd14610253578063ae8cd0901461025b57600080fd5b806337e8c09e116100e957806337e8c09e1461017f57806351cff8d9146101e7578063675f65371461020a5780636bef02671461021d578063767eb5ef1461022557600080fd5b8063200d2ed21461011b57806325c22a45146101375780632940ff1e146101575780632d56657d1461016c575b600080fd5b610124600c5481565b6040519081526020015b60405180910390f35b61014a610145366004612242565b61038b565b60405161012e9190612272565b61016a610165366004612242565b6103ed565b005b61014a61017a3660046121b2565b61046a565b61019261018d366004612242565b6104d4565b60405161012e919081516001600160a01b0390811682526020808401519091169082015260408083015190820152606080830151908201526080808301519082015260a0918201519181019190915260c00190565b6101fa6101f53660046121b2565b610584565b604051901515815260200161012e565b61016a610218366004612242565b610824565b6101fa6108f9565b61014a610953565b61016a61023b366004612242565b6109ab565b6101fa61024e366004612242565b610abd565b61014a610b75565b6101fa610bcb565b6102f0610271366004612242565b6040805160a08101825260008082526020820181905291810182905260608101829052608081019190915250600090815260136020908152604091829020825160a081018452815481526001820154928101929092526002810154928201929092526003820154606082015260049091015460ff161515608082015290565b60405161012e9190600060a0820190508251825260208301516020830152604083015160408301526060830151606083015260808301511515608083015292915050565b6101246103423660046121d3565b610c85565b6101fa610355366004612242565b611349565b6101fa6113da565b6101246103703660046121b2565b6001600160a01b03166000908152600d602052604090205490565b6000818152601260209081526040918290208054835181840281018401909452808452606093928301828280156103e157602002820191906000526020600020905b8154815260200190600101908083116103cd575b50505050509050919050565b6000818152601060205260409020546001600160a01b0316331461043d5760405162461bcd60e51b8152602060048201526002602482015261269b60f11b60448201526064015b60405180910390fd5b600c54158061044e5750600c546003145b1561045e5761045c8161143d565b505b610467816109ab565b50565b6001600160a01b0381166000908152600f60209081526040918290208054835181840281018401909452808452606093928301828280156103e157602002820191906000526020600020908154815260200190600101908083116103cd5750505050509050919050565b61051f6040518060c0016040528060006001600160a01b0316815260200160006001600160a01b03168152602001600081526020016000815260200160008152602001600081525090565b50600090815260106020908152604091829020825160c08101845281546001600160a01b03908116825260018301541692810192909252600281015492820192909252600382015460608201526004820154608082015260059091015460a082015290565b6000600260005414156105d95760405162461bcd60e51b815260206004820152601f60248201527f5265656e7472616e637947756172643a207265656e7472616e742063616c6c006044820152606401610434565b600260009081556001600160a01b038381168252600d6020526040918290205491516370a0823160e01b81523060048201527f0000000000000000000000000000000000000000000000000000000000000000909116906370a082319060240160206040518083038186803b15801561065157600080fd5b505afa158015610665573d6000803e3d6000fd5b505050506040513d601f19601f82011682018060405250810190610689919061225a565b101580156106ae57506001600160a01b0382166000908152600d602052604090205415155b6106df5760405162461bcd60e51b81526020600482015260026024820152614d3360f01b6044820152606401610434565b6001600160a01b038281166000818152600d6020526040808220805490839055905163a9059cbb60e01b81526004810193909352602483018190529290917f00000000000000000000000000000000000000000000000000000000000000009091169063a9059cbb90604401602060405180830381600087803b15801561076557600080fd5b505af1158015610779573d6000803e3d6000fd5b505050506040513d601f19601f8201168201806040525081019061079d9190612226565b9050806107d15760405162461bcd60e51b8152602060048201526002602482015261134d60f21b6044820152606401610434565b604080516001600160a01b0386168152602081018490527f884edad9ce6fa2440d8a54cc123490eb96d2768479d49ff9c7366125a9424364910160405180910390a16001925050505b6001600055919050565b60008181526012602090815260408083208054825181850281018501909352808352919290919083018282801561087a57602002820191906000526020600020905b815481526020019060010190808311610866575b505083519394506000925050505b818110156108d3576108c08382815181106108b357634e487b7160e01b600052603260045260246000fd5b6020026020010151611900565b50806108cb81612340565b915050610888565b50336000908152600d6020526040902054156108f4576108f233610584565b505b505050565b6003546000906001600160a01b031633148061091f57506002546001600160a01b031633145b61093b5760405162461bcd60e51b8152600401610434906122b6565b600c5461094d57506004600c55600190565b50600090565b606060118054806020026020016040519081016040528092919081815260200182805480156109a157602002820191906000526020600020905b81548152602001906001019080831161098d575b5050505050905090565b600081815260106020908152604091829020825160c08101845281546001600160a01b0390811680835260018401549091169382019390935260028201549381019390935260038101546060840152600481015460808401526005015460a08301523314610a405760405162461bcd60e51b81526020600482015260026024820152614d3560f01b6044820152606401610434565b600081606001518260400151610a569190612329565b82516001600160a01b03166000908152600d6020526040812080549293508392909190610a849084906122d2565b909155505060408083015160008581526010602090815283822060030192909255338152600d9091522054156108f4576108f233610584565b6003546000906001600160a01b0316331480610ae357506002546001600160a01b031633145b610aff5760405162461bcd60e51b8152600401610434906122b6565b610b0882611349565b15610b6c5760115460005b81811015610b6257610b4f60118281548110610b3f57634e487b7160e01b600052603260045260246000fd5b9060005260206000200154611900565b5080610b5a81612340565b915050610b13565b5060019392505050565b5060005b919050565b6060600e8054806020026020016040519081016040528092919081815260200182805480156109a1576020028201919060005260206000209081548152602001906001019080831161098d575050505050905090565b6003546000906001600160a01b0316331480610bf157506002546001600160a01b031633145b610c0d5760405162461bcd60e51b8152600401610434906122b6565b600c541580610c1e5750600c546004145b1561094d5760115460005b81811015610c7857610c6560118281548110610c5557634e487b7160e01b600052603260045260246000fd5b9060005260206000200154611c93565b5080610c7081612340565b915050610c29565b50506003600c5550600190565b600b5460405163332daccf60e01b81523360048201526000916001600160a01b03169063332daccf9060240160206040518083038186803b158015610cc957600080fd5b505afa158015610cdd573d6000803e3d6000fd5b505050506040513d601f19601f82011682018060405250810190610d019190612226565b15610d335760405162461bcd60e51b81526020600482015260026024820152614d3160f01b6044820152606401610434565b600c5415610d685760405162461bcd60e51b81526020600482015260026024820152614d3760f01b6044820152606401610434565b8260011480610d775750826002145b610db25760405162461bcd60e51b815260206004820152600c60248201526b696e76616c6964207369646560a01b6044820152606401610434565b6040516370a0823160e01b815233600482015285907f00000000000000000000000000000000000000000000000000000000000000006001600160a01b0316906370a082319060240160206040518083038186803b158015610e1357600080fd5b505afa158015610e27573d6000803e3d6000fd5b505050506040513d601f19601f82011682018060405250810190610e4b919061225a565b1015610e995760405162461bcd60e51b815260206004820152601960248201527f6e6f7420656e6f75676820746f6b656e2062616c616c6e6365000000000000006044820152606401610434565b604051636eb1769f60e11b815233600482015230602482015285907f00000000000000000000000000000000000000000000000000000000000000006001600160a01b03169063dd62ed3e9060440160206040518083038186803b158015610f0057600080fd5b505afa158015610f14573d6000803e3d6000fd5b505050506040513d601f19601f82011682018060405250810190610f38919061225a565b1015610f7d5760405162461bcd60e51b81526020600482015260146024820152736e6f7420656e6f75676820616c6c6f77616e636560601b6044820152606401610434565b600654851015610fc55760405162461bcd60e51b81526020600482015260136024820152726c657373207468616e206d696e207374616b6560681b6044820152606401610434565b6040516323b872dd60e01b8152336004820152306024820152604481018690527f00000000000000000000000000000000000000000000000000000000000000006001600160a01b0316906323b872dd90606401602060405180830381600087803b15801561103357600080fd5b505af1158015611047573d6000803e3d6000fd5b505050506040513d601f19601f8201168201806040525081019061106b9190612226565b6110b75760405162461bcd60e51b815260206004820152601b60248201527f7472616e736665722066726f6d2063616c6c6572206661696c656400000000006044820152606401610434565b60006110e6338888846110cb60648b612329565b6110d68b606461230a565b6110e091906122ea565b89611d75565b600e54909150156112ea57600e5486905b60065482106112e75760008060005b838110156111cf576000600e828154811061113157634e487b7160e01b600052603260045260246000fd5b9060005260206000200154905060106000828152602001908152602001600020600501548a141561116257506111bd565b6000818152601060205260409020546001600160a01b031633141561118757506111bd565b6000818152601060205260409020600401548310156111bb5760008181526010602052604090206004015491935090915082905b505b806111c781612340565b915050611106565b50600089821015806111e957506000821180156111e95750875b156112cb576000600e848154811061121157634e487b7160e01b600052603260045260246000fd5b6000918252602080832090910154808352601082526040808420815160c08101835281546001600160a01b0390811682526001830154169481019490945260028101549184019190915260038101546060840152600481015460808401526005015460a083015292509061128660648e612329565b8260600151836040015161129a9190612329565b6112a491906122ea565b90506112b160648261230a565b90506112c18e828f8f8d88611f1d565b93505050506112d3565b5050506112e7565b6112dd8186612329565b94505050506110f7565b50505b60408051338152306020820152908101829052606081018790526080810186905260a081018590527f618f358bb45538682ade624a4a1959053d9dabd20fe300508034b879681b37be9060c00160405180910390a19695505050505050565b6003546000906001600160a01b031633148061136f57506002546001600160a01b031633145b61138b5760405162461bcd60e51b8152600401610434906122b6565b600c54158061139c5750600c546001145b806113a95750600c546002145b806113b65750600c546004145b80156113cc575081600114806113cc5750816002145b15610b6c5750600c55600190565b6003546000906001600160a01b031633148061140057506002546001600160a01b031633145b61141c5760405162461bcd60e51b8152600401610434906122b6565b600c54158061142d5750600c546004145b1561094d57506003600c55600190565b6000818152601060209081526040808320815160c08101835281546001600160a01b03908116825260018301541681850152600282015481840152600382015460608201526004820154608082015260059091015460a08201528484526012835281842080548351818602810186019094528084529193859392908301828280156114e757602002820191906000526020600020905b8154815260200190600101908083116114d3575b505083519394506000925050505b818110156118f4576013600084838151811061152157634e487b7160e01b600052603260045260246000fd5b60209081029190910181015182528101919091526040016000206004015460ff161561154c576118e2565b6000806000808760a0015160011415611624576013600088878151811061158357634e487b7160e01b600052603260045260246000fd5b60200260200101518152602001908152602001600020600201549150601360008887815181106115c357634e487b7160e01b600052603260045260246000fd5b602002602001015181526020019081526020016000206001015493506013600088878151811061160357634e487b7160e01b600052603260045260246000fd5b602002602001015181526020019081526020016000206003015492506116f2565b8760a00151600214156116f2576013600088878151811061165557634e487b7160e01b600052603260045260246000fd5b602002602001015181526020019081526020016000206003015491506013600088878151811061169557634e487b7160e01b600052603260045260246000fd5b60200260200101518152602001908152602001600020600001549350601360008887815181106116d557634e487b7160e01b600052603260045260246000fd5b602002602001015181526020019081526020016000206002015492505b506000838152601060205260409020546007546001600160a01b039091169060649061171e9082612329565b611728908461230a565b61173291906122ea565b88516001600160a01b03166000908152600d60205260408120805490919061175b9084906122d2565b909155505060008481526010602052604081206003018054859290611781908490612329565b9091555050600754600090606490611799908561230a565b6117a391906122ea565b600a549091506064906117b6908361230a565b6117c091906122ea565b6004546001600160a01b03166000908152600d6020526040812080549091906117ea9084906122d2565b90915550506009546064906117ff908361230a565b61180991906122ea565b6005546001600160a01b03166000908152600d6020526040812080549091906118339084906122d2565b9091555050600854606490611848908361230a565b61185291906122ea565b6020808b01516001600160a01b03166000908152600d90915260408120805490919061187f9084906122d2565b925050819055506001601360008a89815181106118ac57634e487b7160e01b600052603260045260246000fd5b6020026020010151815260200190815260200160002060040160006101000a81548160ff02191690831515021790555050505050505b806118ec81612340565b9150506114f5565b50600195945050505050565b6000600260005414156119555760405162461bcd60e51b815260206004820152601f60248201527f5265656e7472616e637947756172643a207265656e7472616e742063616c6c006044820152606401610434565b600260009081558281526013602052604090206004015460ff161561197c5750600061081a565b600080600080600c5460011415611a6857600086815260136020908152604080832054835260109091529020546007546001600160a01b0390911694506064906119c69082612329565b6000888152601360205260409020600301546119e2919061230a565b6119ec91906122ea565b600087815260136020526040902060020154611a0891906122d2565b600754600088815260136020526040902060030154919350606491611a2d919061230a565b611a3791906122ea565b600087815260136020908152604080832054835260109091529020600101546001600160a01b031693509050611b62565b600c5460021415611b5557600086815260136020908152604080832060010154835260109091529020546007546001600160a01b039091169450606490611aaf9082612329565b600088815260136020526040902060020154611acb919061230a565b611ad591906122ea565b600087815260136020526040902060030154611af191906122d2565b600754600088815260136020526040902060020154919350606491611b16919061230a565b611b2091906122ea565b60008781526013602090815260408083206001908101548452601090925290912001546001600160a01b031693509050611b62565b600094505050505061081a565b6001600160a01b0384166000908152600d602052604081208054849290611b8a9084906122d2565b9091555050600a54606490611b9f908361230a565b611ba991906122ea565b6004546001600160a01b03166000908152600d602052604081208054909190611bd39084906122d2565b9091555050600954606490611be8908361230a565b611bf291906122ea565b6005546001600160a01b03166000908152600d602052604081208054909190611c1c9084906122d2565b9091555050600854606490611c31908361230a565b611c3b91906122ea565b6001600160a01b0384166000908152600d602052604081208054909190611c639084906122d2565b909155505050600094855250506013602052505060408120600401805460ff191660019081179091559081905590565b60008181526013602052604081206004015460ff1615611cb557506000919050565b600082815260136020908152604080832080548452601083528184205460018201548552828520546002909201546001600160a01b03918216808752600d909552928520805494959190921693611d0d9084906122d2565b90915550506000848152601360209081526040808320600301546001600160a01b0385168452600d9092528220805491929091611d4b9084906122d2565b90915550505060009283525050601360205260409020600401805460ff1916600190811790915590565b60008060005b600e54899030908390611d8f9060016122d2565b611d9991906122d2565b6040516bffffffffffffffffffffffff19606094851b811660208301529290931b9091166034830152604882015242606882015244608882015260a80160408051601f19818403018152918152815160209283012060008181526010909352912060020154909250611e0a57611e1c565b80611e1481612340565b915050611d7b565b6001600160a01b038816611e39576005546001600160a01b031697505b506040805160c0810182526001600160a01b03998a16808252988a166020808301918252828401998a52606083019889526080830197885260a0830196875260008581526010825284812093518454908e166001600160a01b031991821617855592516001808601805492909f169190941617909c55985160028301559651600382015594516004860155925160059094019390935550600e80548085019091557fbb7b4a454dc3493923482f07822329ed19e8244eff582cc204f8554c3620c3fd01829055938552600f8352928420805491820181558452922090910181905590565b600080600080898911611f8757889250611f38606489612329565b611f42908a61230a565b9150611f4f6064836122ea565b91508660011415611f6d57611f668686858561206b565b9050611fdb565b8660021415611f8257611f668587848661206b565b611fdb565b899250611f95606489612329565b611f9f908b61230a565b9150611fac6064836122ea565b91508660011415611fc357611f668686858561206b565b8660021415611fdb57611fd88587848661206b565b90505b600086815260126020908152604080832080546001818101835591855283852001859055888452818420805491820181558452828420018490558883526010909152812060030180548592906120329084906122d2565b9091555050600085815260106020526040812060030180548492906120589084906122d2565b90915550929a9950505050505050505050565b60008060005b6011548790879083906120859060016122d2565b61208f91906122d2565b60408051602081019490945283019190915260608201524260808201524460a082015260c00160408051601f198184030181529181528151602092830120600081815260139093529120600201549092506120e9576120fb565b806120f381612340565b915050612071565b506040805160a0810182529687526020808801968752878201958652606088019485526000608089018181528482526013909252918220975188559551600180890191909155945160028801559251600387015593516004909501805460ff19169515159590951790945560118054928301815590527f31ecc21a745e3968a04e9570e4425bc18fa8019c68028196b546d1669c200c6801819055919050565b80356001600160a01b0381168114610b7057600080fd5b6000602082840312156121c3578081fd5b6121cc8261219b565b9392505050565b600080600080600060a086880312156121ea578081fd5b6121f38661219b565b9450602086013593506040860135925060608601359150608086013561221881612371565b809150509295509295909350565b600060208284031215612237578081fd5b81516121cc81612371565b600060208284031215612253578081fd5b5035919050565b60006020828403121561226b578081fd5b5051919050565b6020808252825182820181905260009190848201906040850190845b818110156122aa5783518352928401929184019160010161228e565b50909695505050505050565b602080825260029082015261269960f11b604082015260600190565b600082198211156122e5576122e561235b565b500190565b60008261230557634e487b7160e01b81526012600452602481fd5b500490565b60008160001904831182151516156123245761232461235b565b500290565b60008282101561233b5761233b61235b565b500390565b60006000198214156123545761235461235b565b5060010190565b634e487b7160e01b600052601160045260246000fd5b801515811461046757600080fdfea264697066735822122067e6da4005b040a9f033925009e87f76d422f9dab3ef11e233f20c8f851e9eb864736f6c63430008040033",
					"opcodes": "PUSH1 0xA0 PUSH1 0x40 MSTORE PUSH1 0xB DUP1 SLOAD PUSH1 0x1 PUSH1 0x1 PUSH1 0xA0 SHL SUB NOT AND CALLER OR SWAP1 SSTORE CALLVALUE DUP1 ISZERO PUSH3 0x23 JUMPI PUSH1 0x0 DUP1 REVERT JUMPDEST POP PUSH1 0x40 MLOAD PUSH3 0x2A0F CODESIZE SUB DUP1 PUSH3 0x2A0F DUP4 CODECOPY DUP2 ADD PUSH1 0x40 DUP2 SWAP1 MSTORE PUSH3 0x46 SWAP2 PUSH3 0x606 JUMP JUMPDEST PUSH1 0x1 PUSH1 0x0 SSTORE PUSH1 0x40 DUP1 MLOAD PUSH2 0x140 DUP2 ADD DUP3 MSTORE DUP3 DUP2 MSTORE CALLER PUSH1 0x20 DUP3 ADD MSTORE PUSH1 0xB SLOAD DUP3 MLOAD PUSH4 0x1E558333 PUSH1 0xE3 SHL DUP2 MSTORE PUSH1 0x4 DUP2 ADD DUP6 SWAP1 MSTORE SWAP2 SWAP3 DUP4 ADD SWAP2 PUSH1 0x1 PUSH1 0x1 PUSH1 0xA0 SHL SUB SWAP1 SWAP2 AND SWAP1 PUSH4 0xF2AC1998 SWAP1 PUSH1 0x24 ADD PUSH1 0x20 PUSH1 0x40 MLOAD DUP1 DUP4 SUB DUP2 DUP7 DUP1 EXTCODESIZE ISZERO DUP1 ISZERO PUSH3 0xA8 JUMPI PUSH1 0x0 DUP1 REVERT JUMPDEST POP GAS STATICCALL ISZERO DUP1 ISZERO PUSH3 0xBD JUMPI RETURNDATASIZE PUSH1 0x0 DUP1 RETURNDATACOPY RETURNDATASIZE PUSH1 0x0 REVERT JUMPDEST POP POP POP POP PUSH1 0x40 MLOAD RETURNDATASIZE PUSH1 0x1F NOT PUSH1 0x1F DUP3 ADD AND DUP3 ADD DUP1 PUSH1 0x40 MSTORE POP DUP2 ADD SWAP1 PUSH3 0xE3 SWAP2 SWAP1 PUSH3 0x5D6 JUMP JUMPDEST PUSH1 0x1 PUSH1 0x1 PUSH1 0xA0 SHL SUB AND DUP2 MSTORE PUSH1 0x20 ADD PUSH1 0xB PUSH1 0x0 SWAP1 SLOAD SWAP1 PUSH2 0x100 EXP SWAP1 DIV PUSH1 0x1 PUSH1 0x1 PUSH1 0xA0 SHL SUB AND PUSH1 0x1 PUSH1 0x1 PUSH1 0xA0 SHL SUB AND PUSH4 0xB7640A54 PUSH1 0x40 MLOAD DUP2 PUSH4 0xFFFFFFFF AND PUSH1 0xE0 SHL DUP2 MSTORE PUSH1 0x4 ADD PUSH1 0x20 PUSH1 0x40 MLOAD DUP1 DUP4 SUB DUP2 DUP7 DUP1 EXTCODESIZE ISZERO DUP1 ISZERO PUSH3 0x140 JUMPI PUSH1 0x0 DUP1 REVERT JUMPDEST POP GAS STATICCALL ISZERO DUP1 ISZERO PUSH3 0x155 JUMPI RETURNDATASIZE PUSH1 0x0 DUP1 RETURNDATACOPY RETURNDATASIZE PUSH1 0x0 REVERT JUMPDEST POP POP POP POP PUSH1 0x40 MLOAD RETURNDATASIZE PUSH1 0x1F NOT PUSH1 0x1F DUP3 ADD AND DUP3 ADD DUP1 PUSH1 0x40 MSTORE POP DUP2 ADD SWAP1 PUSH3 0x17B SWAP2 SWAP1 PUSH3 0x5D6 JUMP JUMPDEST PUSH1 0x1 PUSH1 0x1 PUSH1 0xA0 SHL SUB AND DUP2 MSTORE PUSH1 0x20 ADD PUSH1 0xB PUSH1 0x0 SWAP1 SLOAD SWAP1 PUSH2 0x100 EXP SWAP1 DIV PUSH1 0x1 PUSH1 0x1 PUSH1 0xA0 SHL SUB AND PUSH1 0x1 PUSH1 0x1 PUSH1 0xA0 SHL SUB AND PUSH4 0x9953B2F PUSH1 0x40 MLOAD DUP2 PUSH4 0xFFFFFFFF AND PUSH1 0xE0 SHL DUP2 MSTORE PUSH1 0x4 ADD PUSH1 0x20 PUSH1 0x40 MLOAD DUP1 DUP4 SUB DUP2 DUP7 DUP1 EXTCODESIZE ISZERO DUP1 ISZERO PUSH3 0x1D8 JUMPI PUSH1 0x0 DUP1 REVERT JUMPDEST POP GAS STATICCALL ISZERO DUP1 ISZERO PUSH3 0x1ED JUMPI RETURNDATASIZE PUSH1 0x0 DUP1 RETURNDATACOPY RETURNDATASIZE PUSH1 0x0 REVERT JUMPDEST POP POP POP POP PUSH1 0x40 MLOAD RETURNDATASIZE PUSH1 0x1F NOT PUSH1 0x1F DUP3 ADD AND DUP3 ADD DUP1 PUSH1 0x40 MSTORE POP DUP2 ADD SWAP1 PUSH3 0x213 SWAP2 SWAP1 PUSH3 0x5D6 JUMP JUMPDEST PUSH1 0x1 PUSH1 0x1 PUSH1 0xA0 SHL SUB AND DUP2 MSTORE PUSH1 0x20 ADD PUSH1 0xB PUSH1 0x0 SWAP1 SLOAD SWAP1 PUSH2 0x100 EXP SWAP1 DIV PUSH1 0x1 PUSH1 0x1 PUSH1 0xA0 SHL SUB AND PUSH1 0x1 PUSH1 0x1 PUSH1 0xA0 SHL SUB AND PUSH4 0x375B3C0A PUSH1 0x40 MLOAD DUP2 PUSH4 0xFFFFFFFF AND PUSH1 0xE0 SHL DUP2 MSTORE PUSH1 0x4 ADD PUSH1 0x20 PUSH1 0x40 MLOAD DUP1 DUP4 SUB DUP2 DUP7 DUP1 EXTCODESIZE ISZERO DUP1 ISZERO PUSH3 0x270 JUMPI PUSH1 0x0 DUP1 REVERT JUMPDEST POP GAS STATICCALL ISZERO DUP1 ISZERO PUSH3 0x285 JUMPI RETURNDATASIZE PUSH1 0x0 DUP1 RETURNDATACOPY RETURNDATASIZE PUSH1 0x0 REVERT JUMPDEST POP POP POP POP PUSH1 0x40 MLOAD RETURNDATASIZE PUSH1 0x1F NOT PUSH1 0x1F DUP3 ADD AND DUP3 ADD DUP1 PUSH1 0x40 MSTORE POP DUP2 ADD SWAP1 PUSH3 0x2AB SWAP2 SWAP1 PUSH3 0x606 JUMP JUMPDEST DUP2 MSTORE PUSH1 0xB SLOAD PUSH1 0x40 DUP1 MLOAD PUSH4 0x55C4A8BF PUSH1 0xE0 SHL DUP2 MSTORE SWAP1 MLOAD PUSH1 0x20 SWAP4 DUP5 ADD SWAP4 PUSH1 0x1 PUSH1 0x1 PUSH1 0xA0 SHL SUB SWAP1 SWAP4 AND SWAP3 PUSH4 0x55C4A8BF SWAP3 PUSH1 0x4 DUP1 DUP3 ADD SWAP4 SWAP2 DUP3 SWAP1 SUB ADD DUP2 DUP7 DUP1 EXTCODESIZE ISZERO DUP1 ISZERO PUSH3 0x2F4 JUMPI PUSH1 0x0 DUP1 REVERT JUMPDEST POP GAS STATICCALL ISZERO DUP1 ISZERO PUSH3 0x309 JUMPI RETURNDATASIZE PUSH1 0x0 DUP1 RETURNDATACOPY RETURNDATASIZE PUSH1 0x0 REVERT JUMPDEST POP POP POP POP PUSH1 0x40 MLOAD RETURNDATASIZE PUSH1 0x1F NOT PUSH1 0x1F DUP3 ADD AND DUP3 ADD DUP1 PUSH1 0x40 MSTORE POP DUP2 ADD SWAP1 PUSH3 0x32F SWAP2 SWAP1 PUSH3 0x606 JUMP JUMPDEST DUP2 MSTORE PUSH1 0xB SLOAD PUSH1 0x40 DUP1 MLOAD PUSH4 0x15334697 PUSH1 0xE2 SHL DUP2 MSTORE SWAP1 MLOAD PUSH1 0x20 SWAP4 DUP5 ADD SWAP4 PUSH1 0x1 PUSH1 0x1 PUSH1 0xA0 SHL SUB SWAP1 SWAP4 AND SWAP3 PUSH4 0x54CD1A5C SWAP3 PUSH1 0x4 DUP1 DUP3 ADD SWAP4 SWAP2 DUP3 SWAP1 SUB ADD DUP2 DUP7 DUP1 EXTCODESIZE ISZERO DUP1 ISZERO PUSH3 0x378 JUMPI PUSH1 0x0 DUP1 REVERT JUMPDEST POP GAS STATICCALL ISZERO DUP1 ISZERO PUSH3 0x38D JUMPI RETURNDATASIZE PUSH1 0x0 DUP1 RETURNDATACOPY RETURNDATASIZE PUSH1 0x0 REVERT JUMPDEST POP POP POP POP PUSH1 0x40 MLOAD RETURNDATASIZE PUSH1 0x1F NOT PUSH1 0x1F DUP3 ADD AND DUP3 ADD DUP1 PUSH1 0x40 MSTORE POP DUP2 ADD SWAP1 PUSH3 0x3B3 SWAP2 SWAP1 PUSH3 0x606 JUMP JUMPDEST DUP2 MSTORE PUSH1 0xB SLOAD PUSH1 0x40 DUP1 MLOAD PUSH4 0x28576D45 PUSH1 0xE0 SHL DUP2 MSTORE SWAP1 MLOAD PUSH1 0x20 SWAP4 DUP5 ADD SWAP4 PUSH1 0x1 PUSH1 0x1 PUSH1 0xA0 SHL SUB SWAP1 SWAP4 AND SWAP3 PUSH4 0x28576D45 SWAP3 PUSH1 0x4 DUP1 DUP3 ADD SWAP4 SWAP2 DUP3 SWAP1 SUB ADD DUP2 DUP7 DUP1 EXTCODESIZE ISZERO DUP1 ISZERO PUSH3 0x3FC JUMPI PUSH1 0x0 DUP1 REVERT JUMPDEST POP GAS STATICCALL ISZERO DUP1 ISZERO PUSH3 0x411 JUMPI RETURNDATASIZE PUSH1 0x0 DUP1 RETURNDATACOPY RETURNDATASIZE PUSH1 0x0 REVERT JUMPDEST POP POP POP POP PUSH1 0x40 MLOAD RETURNDATASIZE PUSH1 0x1F NOT PUSH1 0x1F DUP3 ADD AND DUP3 ADD DUP1 PUSH1 0x40 MSTORE POP DUP2 ADD SWAP1 PUSH3 0x437 SWAP2 SWAP1 PUSH3 0x606 JUMP JUMPDEST DUP2 MSTORE PUSH1 0xB SLOAD PUSH1 0x40 DUP1 MLOAD PUSH4 0x6A0CCD9D PUSH1 0xE0 SHL DUP2 MSTORE SWAP1 MLOAD PUSH1 0x20 SWAP4 DUP5 ADD SWAP4 PUSH1 0x1 PUSH1 0x1 PUSH1 0xA0 SHL SUB SWAP1 SWAP4 AND SWAP3 PUSH4 0x6A0CCD9D SWAP3 PUSH1 0x4 DUP1 DUP3 ADD SWAP4 SWAP2 DUP3 SWAP1 SUB ADD DUP2 DUP7 DUP1 EXTCODESIZE ISZERO DUP1 ISZERO PUSH3 0x480 JUMPI PUSH1 0x0 DUP1 REVERT JUMPDEST POP GAS STATICCALL ISZERO DUP1 ISZERO PUSH3 0x495 JUMPI RETURNDATASIZE PUSH1 0x0 DUP1 RETURNDATACOPY RETURNDATASIZE PUSH1 0x0 REVERT JUMPDEST POP POP POP POP PUSH1 0x40 MLOAD RETURNDATASIZE PUSH1 0x1F NOT PUSH1 0x1F DUP3 ADD AND DUP3 ADD DUP1 PUSH1 0x40 MSTORE POP DUP2 ADD SWAP1 PUSH3 0x4BB SWAP2 SWAP1 PUSH3 0x606 JUMP JUMPDEST SWAP1 MSTORE DUP1 MLOAD PUSH1 0x1 SSTORE PUSH1 0x20 DUP1 DUP3 ADD MLOAD PUSH1 0x2 DUP1 SLOAD PUSH1 0x1 PUSH1 0x1 PUSH1 0xA0 SHL SUB NOT SWAP1 DUP2 AND PUSH1 0x1 PUSH1 0x1 PUSH1 0xA0 SHL SUB SWAP4 DUP5 AND OR SWAP1 SWAP2 SSTORE PUSH1 0x40 DUP1 DUP6 ADD MLOAD PUSH1 0x3 DUP1 SLOAD DUP5 AND SWAP2 DUP6 AND SWAP2 SWAP1 SWAP2 OR SWAP1 SSTORE PUSH1 0x60 DUP6 ADD MLOAD PUSH1 0x4 DUP1 SLOAD DUP5 AND SWAP2 DUP6 AND SWAP2 SWAP1 SWAP2 OR DUP2 SSTORE PUSH1 0x80 DUP7 ADD MLOAD PUSH1 0x5 DUP1 SLOAD SWAP1 SWAP5 AND SWAP1 DUP6 AND OR SWAP1 SWAP3 SSTORE PUSH1 0xA0 DUP6 ADD MLOAD PUSH1 0x6 SSTORE PUSH1 0xC0 DUP6 ADD MLOAD PUSH1 0x7 SSTORE PUSH1 0xE0 DUP6 ADD MLOAD PUSH1 0x8 SSTORE PUSH2 0x100 DUP6 ADD MLOAD PUSH1 0x9 SSTORE PUSH2 0x120 SWAP1 SWAP5 ADD MLOAD PUSH1 0xA SSTORE PUSH1 0xB SLOAD DUP5 MLOAD PUSH3 0x966ED9 PUSH1 0xE3 SHL DUP2 MSTORE SWAP5 MLOAD SWAP3 AND SWAP4 PUSH4 0x4B376C8 SWAP4 DUP2 DUP4 ADD SWAP4 SWAP1 SWAP3 SWAP1 SWAP2 DUP3 SWAP1 SUB ADD DUP2 DUP7 DUP1 EXTCODESIZE ISZERO DUP1 ISZERO PUSH3 0x584 JUMPI PUSH1 0x0 DUP1 REVERT JUMPDEST POP GAS STATICCALL ISZERO DUP1 ISZERO PUSH3 0x599 JUMPI RETURNDATASIZE PUSH1 0x0 DUP1 RETURNDATACOPY RETURNDATASIZE PUSH1 0x0 REVERT JUMPDEST POP POP POP POP PUSH1 0x40 MLOAD RETURNDATASIZE PUSH1 0x1F NOT PUSH1 0x1F DUP3 ADD AND DUP3 ADD DUP1 PUSH1 0x40 MSTORE POP DUP2 ADD SWAP1 PUSH3 0x5BF SWAP2 SWAP1 PUSH3 0x5D6 JUMP JUMPDEST PUSH1 0x60 SHL PUSH1 0x1 PUSH1 0x1 PUSH1 0x60 SHL SUB NOT AND PUSH1 0x80 MSTORE POP PUSH3 0x61F JUMP JUMPDEST PUSH1 0x0 PUSH1 0x20 DUP3 DUP5 SUB SLT ISZERO PUSH3 0x5E8 JUMPI DUP1 DUP2 REVERT JUMPDEST DUP2 MLOAD PUSH1 0x1 PUSH1 0x1 PUSH1 0xA0 SHL SUB DUP2 AND DUP2 EQ PUSH3 0x5FF JUMPI DUP2 DUP3 REVERT JUMPDEST SWAP4 SWAP3 POP POP POP JUMP JUMPDEST PUSH1 0x0 PUSH1 0x20 DUP3 DUP5 SUB SLT ISZERO PUSH3 0x618 JUMPI DUP1 DUP2 REVERT JUMPDEST POP MLOAD SWAP2 SWAP1 POP JUMP JUMPDEST PUSH1 0x80 MLOAD PUSH1 0x60 SHR PUSH2 0x23B5 PUSH3 0x65A PUSH1 0x0 CODECOPY PUSH1 0x0 DUP2 DUP2 PUSH2 0x60D ADD MSTORE DUP2 DUP2 PUSH2 0x71F ADD MSTORE DUP2 DUP2 PUSH2 0xDC9 ADD MSTORE DUP2 DUP2 PUSH2 0xEB6 ADD MSTORE PUSH2 0xFE7 ADD MSTORE PUSH2 0x23B5 PUSH1 0x0 RETURN INVALID PUSH1 0x80 PUSH1 0x40 MSTORE CALLVALUE DUP1 ISZERO PUSH2 0x10 JUMPI PUSH1 0x0 DUP1 REVERT JUMPDEST POP PUSH1 0x4 CALLDATASIZE LT PUSH2 0x116 JUMPI PUSH1 0x0 CALLDATALOAD PUSH1 0xE0 SHR DUP1 PUSH4 0x7D7F9232 GT PUSH2 0xA2 JUMPI DUP1 PUSH4 0xB8E5303D GT PUSH2 0x71 JUMPI DUP1 PUSH4 0xB8E5303D EQ PUSH2 0x263 JUMPI DUP1 PUSH4 0xBA8006C6 EQ PUSH2 0x334 JUMPI DUP1 PUSH4 0xD0ED7295 EQ PUSH2 0x347 JUMPI DUP1 PUSH4 0xEA8A1AF0 EQ PUSH2 0x35A JUMPI DUP1 PUSH4 0xF8B2CB4F EQ PUSH2 0x362 JUMPI PUSH1 0x0 DUP1 REVERT JUMPDEST DUP1 PUSH4 0x7D7F9232 EQ PUSH2 0x22D JUMPI DUP1 PUSH4 0x8DF82800 EQ PUSH2 0x240 JUMPI DUP1 PUSH4 0xA6AFD5FD EQ PUSH2 0x253 JUMPI DUP1 PUSH4 0xAE8CD090 EQ PUSH2 0x25B JUMPI PUSH1 0x0 DUP1 REVERT JUMPDEST DUP1 PUSH4 0x37E8C09E GT PUSH2 0xE9 JUMPI DUP1 PUSH4 0x37E8C09E EQ PUSH2 0x17F JUMPI DUP1 PUSH4 0x51CFF8D9 EQ PUSH2 0x1E7 JUMPI DUP1 PUSH4 0x675F6537 EQ PUSH2 0x20A JUMPI DUP1 PUSH4 0x6BEF0267 EQ PUSH2 0x21D JUMPI DUP1 PUSH4 0x767EB5EF EQ PUSH2 0x225 JUMPI PUSH1 0x0 DUP1 REVERT JUMPDEST DUP1 PUSH4 0x200D2ED2 EQ PUSH2 0x11B JUMPI DUP1 PUSH4 0x25C22A45 EQ PUSH2 0x137 JUMPI DUP1 PUSH4 0x2940FF1E EQ PUSH2 0x157 JUMPI DUP1 PUSH4 0x2D56657D EQ PUSH2 0x16C JUMPI JUMPDEST PUSH1 0x0 DUP1 REVERT JUMPDEST PUSH2 0x124 PUSH1 0xC SLOAD DUP2 JUMP JUMPDEST PUSH1 0x40 MLOAD SWAP1 DUP2 MSTORE PUSH1 0x20 ADD JUMPDEST PUSH1 0x40 MLOAD DUP1 SWAP2 SUB SWAP1 RETURN JUMPDEST PUSH2 0x14A PUSH2 0x145 CALLDATASIZE PUSH1 0x4 PUSH2 0x2242 JUMP JUMPDEST PUSH2 0x38B JUMP JUMPDEST PUSH1 0x40 MLOAD PUSH2 0x12E SWAP2 SWAP1 PUSH2 0x2272 JUMP JUMPDEST PUSH2 0x16A PUSH2 0x165 CALLDATASIZE PUSH1 0x4 PUSH2 0x2242 JUMP JUMPDEST PUSH2 0x3ED JUMP JUMPDEST STOP JUMPDEST PUSH2 0x14A PUSH2 0x17A CALLDATASIZE PUSH1 0x4 PUSH2 0x21B2 JUMP JUMPDEST PUSH2 0x46A JUMP JUMPDEST PUSH2 0x192 PUSH2 0x18D CALLDATASIZE PUSH1 0x4 PUSH2 0x2242 JUMP JUMPDEST PUSH2 0x4D4 JUMP JUMPDEST PUSH1 0x40 MLOAD PUSH2 0x12E SWAP2 SWAP1 DUP2 MLOAD PUSH1 0x1 PUSH1 0x1 PUSH1 0xA0 SHL SUB SWAP1 DUP2 AND DUP3 MSTORE PUSH1 0x20 DUP1 DUP5 ADD MLOAD SWAP1 SWAP2 AND SWAP1 DUP3 ADD MSTORE PUSH1 0x40 DUP1 DUP4 ADD MLOAD SWAP1 DUP3 ADD MSTORE PUSH1 0x60 DUP1 DUP4 ADD MLOAD SWAP1 DUP3 ADD MSTORE PUSH1 0x80 DUP1 DUP4 ADD MLOAD SWAP1 DUP3 ADD MSTORE PUSH1 0xA0 SWAP2 DUP3 ADD MLOAD SWAP2 DUP2 ADD SWAP2 SWAP1 SWAP2 MSTORE PUSH1 0xC0 ADD SWAP1 JUMP JUMPDEST PUSH2 0x1FA PUSH2 0x1F5 CALLDATASIZE PUSH1 0x4 PUSH2 0x21B2 JUMP JUMPDEST PUSH2 0x584 JUMP JUMPDEST PUSH1 0x40 MLOAD SWAP1 ISZERO ISZERO DUP2 MSTORE PUSH1 0x20 ADD PUSH2 0x12E JUMP JUMPDEST PUSH2 0x16A PUSH2 0x218 CALLDATASIZE PUSH1 0x4 PUSH2 0x2242 JUMP JUMPDEST PUSH2 0x824 JUMP JUMPDEST PUSH2 0x1FA PUSH2 0x8F9 JUMP JUMPDEST PUSH2 0x14A PUSH2 0x953 JUMP JUMPDEST PUSH2 0x16A PUSH2 0x23B CALLDATASIZE PUSH1 0x4 PUSH2 0x2242 JUMP JUMPDEST PUSH2 0x9AB JUMP JUMPDEST PUSH2 0x1FA PUSH2 0x24E CALLDATASIZE PUSH1 0x4 PUSH2 0x2242 JUMP JUMPDEST PUSH2 0xABD JUMP JUMPDEST PUSH2 0x14A PUSH2 0xB75 JUMP JUMPDEST PUSH2 0x1FA PUSH2 0xBCB JUMP JUMPDEST PUSH2 0x2F0 PUSH2 0x271 CALLDATASIZE PUSH1 0x4 PUSH2 0x2242 JUMP JUMPDEST PUSH1 0x40 DUP1 MLOAD PUSH1 0xA0 DUP2 ADD DUP3 MSTORE PUSH1 0x0 DUP1 DUP3 MSTORE PUSH1 0x20 DUP3 ADD DUP2 SWAP1 MSTORE SWAP2 DUP2 ADD DUP3 SWAP1 MSTORE PUSH1 0x60 DUP2 ADD DUP3 SWAP1 MSTORE PUSH1 0x80 DUP2 ADD SWAP2 SWAP1 SWAP2 MSTORE POP PUSH1 0x0 SWAP1 DUP2 MSTORE PUSH1 0x13 PUSH1 0x20 SWAP1 DUP2 MSTORE PUSH1 0x40 SWAP2 DUP3 SWAP1 KECCAK256 DUP3 MLOAD PUSH1 0xA0 DUP2 ADD DUP5 MSTORE DUP2 SLOAD DUP2 MSTORE PUSH1 0x1 DUP3 ADD SLOAD SWAP3 DUP2 ADD SWAP3 SWAP1 SWAP3 MSTORE PUSH1 0x2 DUP2 ADD SLOAD SWAP3 DUP3 ADD SWAP3 SWAP1 SWAP3 MSTORE PUSH1 0x3 DUP3 ADD SLOAD PUSH1 0x60 DUP3 ADD MSTORE PUSH1 0x4 SWAP1 SWAP2 ADD SLOAD PUSH1 0xFF AND ISZERO ISZERO PUSH1 0x80 DUP3 ADD MSTORE SWAP1 JUMP JUMPDEST PUSH1 0x40 MLOAD PUSH2 0x12E SWAP2 SWAP1 PUSH1 0x0 PUSH1 0xA0 DUP3 ADD SWAP1 POP DUP3 MLOAD DUP3 MSTORE PUSH1 0x20 DUP4 ADD MLOAD PUSH1 0x20 DUP4 ADD MSTORE PUSH1 0x40 DUP4 ADD MLOAD PUSH1 0x40 DUP4 ADD MSTORE PUSH1 0x60 DUP4 ADD MLOAD PUSH1 0x60 DUP4 ADD MSTORE PUSH1 0x80 DUP4 ADD MLOAD ISZERO ISZERO PUSH1 0x80 DUP4 ADD MSTORE SWAP3 SWAP2 POP POP JUMP JUMPDEST PUSH2 0x124 PUSH2 0x342 CALLDATASIZE PUSH1 0x4 PUSH2 0x21D3 JUMP JUMPDEST PUSH2 0xC85 JUMP JUMPDEST PUSH2 0x1FA PUSH2 0x355 CALLDATASIZE PUSH1 0x4 PUSH2 0x2242 JUMP JUMPDEST PUSH2 0x1349 JUMP JUMPDEST PUSH2 0x1FA PUSH2 0x13DA JUMP JUMPDEST PUSH2 0x124 PUSH2 0x370 CALLDATASIZE PUSH1 0x4 PUSH2 0x21B2 JUMP JUMPDEST PUSH1 0x1 PUSH1 0x1 PUSH1 0xA0 SHL SUB AND PUSH1 0x0 SWAP1 DUP2 MSTORE PUSH1 0xD PUSH1 0x20 MSTORE PUSH1 0x40 SWAP1 KECCAK256 SLOAD SWAP1 JUMP JUMPDEST PUSH1 0x0 DUP2 DUP2 MSTORE PUSH1 0x12 PUSH1 0x20 SWAP1 DUP2 MSTORE PUSH1 0x40 SWAP2 DUP3 SWAP1 KECCAK256 DUP1 SLOAD DUP4 MLOAD DUP2 DUP5 MUL DUP2 ADD DUP5 ADD SWAP1 SWAP5 MSTORE DUP1 DUP5 MSTORE PUSH1 0x60 SWAP4 SWAP3 DUP4 ADD DUP3 DUP3 DUP1 ISZERO PUSH2 0x3E1 JUMPI PUSH1 0x20 MUL DUP3 ADD SWAP2 SWAP1 PUSH1 0x0 MSTORE PUSH1 0x20 PUSH1 0x0 KECCAK256 SWAP1 JUMPDEST DUP2 SLOAD DUP2 MSTORE PUSH1 0x20 ADD SWAP1 PUSH1 0x1 ADD SWAP1 DUP1 DUP4 GT PUSH2 0x3CD JUMPI JUMPDEST POP POP POP POP POP SWAP1 POP SWAP2 SWAP1 POP JUMP JUMPDEST PUSH1 0x0 DUP2 DUP2 MSTORE PUSH1 0x10 PUSH1 0x20 MSTORE PUSH1 0x40 SWAP1 KECCAK256 SLOAD PUSH1 0x1 PUSH1 0x1 PUSH1 0xA0 SHL SUB AND CALLER EQ PUSH2 0x43D JUMPI PUSH1 0x40 MLOAD PUSH3 0x461BCD PUSH1 0xE5 SHL DUP2 MSTORE PUSH1 0x20 PUSH1 0x4 DUP3 ADD MSTORE PUSH1 0x2 PUSH1 0x24 DUP3 ADD MSTORE PUSH2 0x269B PUSH1 0xF1 SHL PUSH1 0x44 DUP3 ADD MSTORE PUSH1 0x64 ADD JUMPDEST PUSH1 0x40 MLOAD DUP1 SWAP2 SUB SWAP1 REVERT JUMPDEST PUSH1 0xC SLOAD ISZERO DUP1 PUSH2 0x44E JUMPI POP PUSH1 0xC SLOAD PUSH1 0x3 EQ JUMPDEST ISZERO PUSH2 0x45E JUMPI PUSH2 0x45C DUP2 PUSH2 0x143D JUMP JUMPDEST POP JUMPDEST PUSH2 0x467 DUP2 PUSH2 0x9AB JUMP JUMPDEST POP JUMP JUMPDEST PUSH1 0x1 PUSH1 0x1 PUSH1 0xA0 SHL SUB DUP2 AND PUSH1 0x0 SWAP1 DUP2 MSTORE PUSH1 0xF PUSH1 0x20 SWAP1 DUP2 MSTORE PUSH1 0x40 SWAP2 DUP3 SWAP1 KECCAK256 DUP1 SLOAD DUP4 MLOAD DUP2 DUP5 MUL DUP2 ADD DUP5 ADD SWAP1 SWAP5 MSTORE DUP1 DUP5 MSTORE PUSH1 0x60 SWAP4 SWAP3 DUP4 ADD DUP3 DUP3 DUP1 ISZERO PUSH2 0x3E1 JUMPI PUSH1 0x20 MUL DUP3 ADD SWAP2 SWAP1 PUSH1 0x0 MSTORE PUSH1 0x20 PUSH1 0x0 KECCAK256 SWAP1 DUP2 SLOAD DUP2 MSTORE PUSH1 0x20 ADD SWAP1 PUSH1 0x1 ADD SWAP1 DUP1 DUP4 GT PUSH2 0x3CD JUMPI POP POP POP POP POP SWAP1 POP SWAP2 SWAP1 POP JUMP JUMPDEST PUSH2 0x51F PUSH1 0x40 MLOAD DUP1 PUSH1 0xC0 ADD PUSH1 0x40 MSTORE DUP1 PUSH1 0x0 PUSH1 0x1 PUSH1 0x1 PUSH1 0xA0 SHL SUB AND DUP2 MSTORE PUSH1 0x20 ADD PUSH1 0x0 PUSH1 0x1 PUSH1 0x1 PUSH1 0xA0 SHL SUB AND DUP2 MSTORE PUSH1 0x20 ADD PUSH1 0x0 DUP2 MSTORE PUSH1 0x20 ADD PUSH1 0x0 DUP2 MSTORE PUSH1 0x20 ADD PUSH1 0x0 DUP2 MSTORE PUSH1 0x20 ADD PUSH1 0x0 DUP2 MSTORE POP SWAP1 JUMP JUMPDEST POP PUSH1 0x0 SWAP1 DUP2 MSTORE PUSH1 0x10 PUSH1 0x20 SWAP1 DUP2 MSTORE PUSH1 0x40 SWAP2 DUP3 SWAP1 KECCAK256 DUP3 MLOAD PUSH1 0xC0 DUP2 ADD DUP5 MSTORE DUP2 SLOAD PUSH1 0x1 PUSH1 0x1 PUSH1 0xA0 SHL SUB SWAP1 DUP2 AND DUP3 MSTORE PUSH1 0x1 DUP4 ADD SLOAD AND SWAP3 DUP2 ADD SWAP3 SWAP1 SWAP3 MSTORE PUSH1 0x2 DUP2 ADD SLOAD SWAP3 DUP3 ADD SWAP3 SWAP1 SWAP3 MSTORE PUSH1 0x3 DUP3 ADD SLOAD PUSH1 0x60 DUP3 ADD MSTORE PUSH1 0x4 DUP3 ADD SLOAD PUSH1 0x80 DUP3 ADD MSTORE PUSH1 0x5 SWAP1 SWAP2 ADD SLOAD PUSH1 0xA0 DUP3 ADD MSTORE SWAP1 JUMP JUMPDEST PUSH1 0x0 PUSH1 0x2 PUSH1 0x0 SLOAD EQ ISZERO PUSH2 0x5D9 JUMPI PUSH1 0x40 MLOAD PUSH3 0x461BCD PUSH1 0xE5 SHL DUP2 MSTORE PUSH1 0x20 PUSH1 0x4 DUP3 ADD MSTORE PUSH1 0x1F PUSH1 0x24 DUP3 ADD MSTORE PUSH32 0x5265656E7472616E637947756172643A207265656E7472616E742063616C6C00 PUSH1 0x44 DUP3 ADD MSTORE PUSH1 0x64 ADD PUSH2 0x434 JUMP JUMPDEST PUSH1 0x2 PUSH1 0x0 SWAP1 DUP2 SSTORE PUSH1 0x1 PUSH1 0x1 PUSH1 0xA0 SHL SUB DUP4 DUP2 AND DUP3 MSTORE PUSH1 0xD PUSH1 0x20 MSTORE PUSH1 0x40 SWAP2 DUP3 SWAP1 KECCAK256 SLOAD SWAP2 MLOAD PUSH4 0x70A08231 PUSH1 0xE0 SHL DUP2 MSTORE ADDRESS PUSH1 0x4 DUP3 ADD MSTORE PUSH32 0x0 SWAP1 SWAP2 AND SWAP1 PUSH4 0x70A08231 SWAP1 PUSH1 0x24 ADD PUSH1 0x20 PUSH1 0x40 MLOAD DUP1 DUP4 SUB DUP2 DUP7 DUP1 EXTCODESIZE ISZERO DUP1 ISZERO PUSH2 0x651 JUMPI PUSH1 0x0 DUP1 REVERT JUMPDEST POP GAS STATICCALL ISZERO DUP1 ISZERO PUSH2 0x665 JUMPI RETURNDATASIZE PUSH1 0x0 DUP1 RETURNDATACOPY RETURNDATASIZE PUSH1 0x0 REVERT JUMPDEST POP POP POP POP PUSH1 0x40 MLOAD RETURNDATASIZE PUSH1 0x1F NOT PUSH1 0x1F DUP3 ADD AND DUP3 ADD DUP1 PUSH1 0x40 MSTORE POP DUP2 ADD SWAP1 PUSH2 0x689 SWAP2 SWAP1 PUSH2 0x225A JUMP JUMPDEST LT ISZERO DUP1 ISZERO PUSH2 0x6AE JUMPI POP PUSH1 0x1 PUSH1 0x1 PUSH1 0xA0 SHL SUB DUP3 AND PUSH1 0x0 SWAP1 DUP2 MSTORE PUSH1 0xD PUSH1 0x20 MSTORE PUSH1 0x40 SWAP1 KECCAK256 SLOAD ISZERO ISZERO JUMPDEST PUSH2 0x6DF JUMPI PUSH1 0x40 MLOAD PUSH3 0x461BCD PUSH1 0xE5 SHL DUP2 MSTORE PUSH1 0x20 PUSH1 0x4 DUP3 ADD MSTORE PUSH1 0x2 PUSH1 0x24 DUP3 ADD MSTORE PUSH2 0x4D33 PUSH1 0xF0 SHL PUSH1 0x44 DUP3 ADD MSTORE PUSH1 0x64 ADD PUSH2 0x434 JUMP JUMPDEST PUSH1 0x1 PUSH1 0x1 PUSH1 0xA0 SHL SUB DUP3 DUP2 AND PUSH1 0x0 DUP2 DUP2 MSTORE PUSH1 0xD PUSH1 0x20 MSTORE PUSH1 0x40 DUP1 DUP3 KECCAK256 DUP1 SLOAD SWAP1 DUP4 SWAP1 SSTORE SWAP1 MLOAD PUSH4 0xA9059CBB PUSH1 0xE0 SHL DUP2 MSTORE PUSH1 0x4 DUP2 ADD SWAP4 SWAP1 SWAP4 MSTORE PUSH1 0x24 DUP4 ADD DUP2 SWAP1 MSTORE SWAP3 SWAP1 SWAP2 PUSH32 0x0 SWAP1 SWAP2 AND SWAP1 PUSH4 0xA9059CBB SWAP1 PUSH1 0x44 ADD PUSH1 0x20 PUSH1 0x40 MLOAD DUP1 DUP4 SUB DUP2 PUSH1 0x0 DUP8 DUP1 EXTCODESIZE ISZERO DUP1 ISZERO PUSH2 0x765 JUMPI PUSH1 0x0 DUP1 REVERT JUMPDEST POP GAS CALL ISZERO DUP1 ISZERO PUSH2 0x779 JUMPI RETURNDATASIZE PUSH1 0x0 DUP1 RETURNDATACOPY RETURNDATASIZE PUSH1 0x0 REVERT JUMPDEST POP POP POP POP PUSH1 0x40 MLOAD RETURNDATASIZE PUSH1 0x1F NOT PUSH1 0x1F DUP3 ADD AND DUP3 ADD DUP1 PUSH1 0x40 MSTORE POP DUP2 ADD SWAP1 PUSH2 0x79D SWAP2 SWAP1 PUSH2 0x2226 JUMP JUMPDEST SWAP1 POP DUP1 PUSH2 0x7D1 JUMPI PUSH1 0x40 MLOAD PUSH3 0x461BCD PUSH1 0xE5 SHL DUP2 MSTORE PUSH1 0x20 PUSH1 0x4 DUP3 ADD MSTORE PUSH1 0x2 PUSH1 0x24 DUP3 ADD MSTORE PUSH2 0x134D PUSH1 0xF2 SHL PUSH1 0x44 DUP3 ADD MSTORE PUSH1 0x64 ADD PUSH2 0x434 JUMP JUMPDEST PUSH1 0x40 DUP1 MLOAD PUSH1 0x1 PUSH1 0x1 PUSH1 0xA0 SHL SUB DUP7 AND DUP2 MSTORE PUSH1 0x20 DUP2 ADD DUP5 SWAP1 MSTORE PUSH32 0x884EDAD9CE6FA2440D8A54CC123490EB96D2768479D49FF9C7366125A9424364 SWAP2 ADD PUSH1 0x40 MLOAD DUP1 SWAP2 SUB SWAP1 LOG1 PUSH1 0x1 SWAP3 POP POP POP JUMPDEST PUSH1 0x1 PUSH1 0x0 SSTORE SWAP2 SWAP1 POP JUMP JUMPDEST PUSH1 0x0 DUP2 DUP2 MSTORE PUSH1 0x12 PUSH1 0x20 SWAP1 DUP2 MSTORE PUSH1 0x40 DUP1 DUP4 KECCAK256 DUP1 SLOAD DUP3 MLOAD DUP2 DUP6 MUL DUP2 ADD DUP6 ADD SWAP1 SWAP4 MSTORE DUP1 DUP4 MSTORE SWAP2 SWAP3 SWAP1 SWAP2 SWAP1 DUP4 ADD DUP3 DUP3 DUP1 ISZERO PUSH2 0x87A JUMPI PUSH1 0x20 MUL DUP3 ADD SWAP2 SWAP1 PUSH1 0x0 MSTORE PUSH1 0x20 PUSH1 0x0 KECCAK256 SWAP1 JUMPDEST DUP2 SLOAD DUP2 MSTORE PUSH1 0x20 ADD SWAP1 PUSH1 0x1 ADD SWAP1 DUP1 DUP4 GT PUSH2 0x866 JUMPI JUMPDEST POP POP DUP4 MLOAD SWAP4 SWAP5 POP PUSH1 0x0 SWAP3 POP POP POP JUMPDEST DUP2 DUP2 LT ISZERO PUSH2 0x8D3 JUMPI PUSH2 0x8C0 DUP4 DUP3 DUP2 MLOAD DUP2 LT PUSH2 0x8B3 JUMPI PUSH4 0x4E487B71 PUSH1 0xE0 SHL PUSH1 0x0 MSTORE PUSH1 0x32 PUSH1 0x4 MSTORE PUSH1 0x24 PUSH1 0x0 REVERT JUMPDEST PUSH1 0x20 MUL PUSH1 0x20 ADD ADD MLOAD PUSH2 0x1900 JUMP JUMPDEST POP DUP1 PUSH2 0x8CB DUP2 PUSH2 0x2340 JUMP JUMPDEST SWAP2 POP POP PUSH2 0x888 JUMP JUMPDEST POP CALLER PUSH1 0x0 SWAP1 DUP2 MSTORE PUSH1 0xD PUSH1 0x20 MSTORE PUSH1 0x40 SWAP1 KECCAK256 SLOAD ISZERO PUSH2 0x8F4 JUMPI PUSH2 0x8F2 CALLER PUSH2 0x584 JUMP JUMPDEST POP JUMPDEST POP POP POP JUMP JUMPDEST PUSH1 0x3 SLOAD PUSH1 0x0 SWAP1 PUSH1 0x1 PUSH1 0x1 PUSH1 0xA0 SHL SUB AND CALLER EQ DUP1 PUSH2 0x91F JUMPI POP PUSH1 0x2 SLOAD PUSH1 0x1 PUSH1 0x1 PUSH1 0xA0 SHL SUB AND CALLER EQ JUMPDEST PUSH2 0x93B JUMPI PUSH1 0x40 MLOAD PUSH3 0x461BCD PUSH1 0xE5 SHL DUP2 MSTORE PUSH1 0x4 ADD PUSH2 0x434 SWAP1 PUSH2 0x22B6 JUMP JUMPDEST PUSH1 0xC SLOAD PUSH2 0x94D JUMPI POP PUSH1 0x4 PUSH1 0xC SSTORE PUSH1 0x1 SWAP1 JUMP JUMPDEST POP PUSH1 0x0 SWAP1 JUMP JUMPDEST PUSH1 0x60 PUSH1 0x11 DUP1 SLOAD DUP1 PUSH1 0x20 MUL PUSH1 0x20 ADD PUSH1 0x40 MLOAD SWAP1 DUP2 ADD PUSH1 0x40 MSTORE DUP1 SWAP3 SWAP2 SWAP1 DUP2 DUP2 MSTORE PUSH1 0x20 ADD DUP3 DUP1 SLOAD DUP1 ISZERO PUSH2 0x9A1 JUMPI PUSH1 0x20 MUL DUP3 ADD SWAP2 SWAP1 PUSH1 0x0 MSTORE PUSH1 0x20 PUSH1 0x0 KECCAK256 SWAP1 JUMPDEST DUP2 SLOAD DUP2 MSTORE PUSH1 0x20 ADD SWAP1 PUSH1 0x1 ADD SWAP1 DUP1 DUP4 GT PUSH2 0x98D JUMPI JUMPDEST POP POP POP POP POP SWAP1 POP SWAP1 JUMP JUMPDEST PUSH1 0x0 DUP2 DUP2 MSTORE PUSH1 0x10 PUSH1 0x20 SWAP1 DUP2 MSTORE PUSH1 0x40 SWAP2 DUP3 SWAP1 KECCAK256 DUP3 MLOAD PUSH1 0xC0 DUP2 ADD DUP5 MSTORE DUP2 SLOAD PUSH1 0x1 PUSH1 0x1 PUSH1 0xA0 SHL SUB SWAP1 DUP2 AND DUP1 DUP4 MSTORE PUSH1 0x1 DUP5 ADD SLOAD SWAP1 SWAP2 AND SWAP4 DUP3 ADD SWAP4 SWAP1 SWAP4 MSTORE PUSH1 0x2 DUP3 ADD SLOAD SWAP4 DUP2 ADD SWAP4 SWAP1 SWAP4 MSTORE PUSH1 0x3 DUP2 ADD SLOAD PUSH1 0x60 DUP5 ADD MSTORE PUSH1 0x4 DUP2 ADD SLOAD PUSH1 0x80 DUP5 ADD MSTORE PUSH1 0x5 ADD SLOAD PUSH1 0xA0 DUP4 ADD MSTORE CALLER EQ PUSH2 0xA40 JUMPI PUSH1 0x40 MLOAD PUSH3 0x461BCD PUSH1 0xE5 SHL DUP2 MSTORE PUSH1 0x20 PUSH1 0x4 DUP3 ADD MSTORE PUSH1 0x2 PUSH1 0x24 DUP3 ADD MSTORE PUSH2 0x4D35 PUSH1 0xF0 SHL PUSH1 0x44 DUP3 ADD MSTORE PUSH1 0x64 ADD PUSH2 0x434 JUMP JUMPDEST PUSH1 0x0 DUP2 PUSH1 0x60 ADD MLOAD DUP3 PUSH1 0x40 ADD MLOAD PUSH2 0xA56 SWAP2 SWAP1 PUSH2 0x2329 JUMP JUMPDEST DUP3 MLOAD PUSH1 0x1 PUSH1 0x1 PUSH1 0xA0 SHL SUB AND PUSH1 0x0 SWAP1 DUP2 MSTORE PUSH1 0xD PUSH1 0x20 MSTORE PUSH1 0x40 DUP2 KECCAK256 DUP1 SLOAD SWAP3 SWAP4 POP DUP4 SWAP3 SWAP1 SWAP2 SWAP1 PUSH2 0xA84 SWAP1 DUP5 SWAP1 PUSH2 0x22D2 JUMP JUMPDEST SWAP1 SWAP2 SSTORE POP POP PUSH1 0x40 DUP1 DUP4 ADD MLOAD PUSH1 0x0 DUP6 DUP2 MSTORE PUSH1 0x10 PUSH1 0x20 SWAP1 DUP2 MSTORE DUP4 DUP3 KECCAK256 PUSH1 0x3 ADD SWAP3 SWAP1 SWAP3 SSTORE CALLER DUP2 MSTORE PUSH1 0xD SWAP1 SWAP2 MSTORE KECCAK256 SLOAD ISZERO PUSH2 0x8F4 JUMPI PUSH2 0x8F2 CALLER PUSH2 0x584 JUMP JUMPDEST PUSH1 0x3 SLOAD PUSH1 0x0 SWAP1 PUSH1 0x1 PUSH1 0x1 PUSH1 0xA0 SHL SUB AND CALLER EQ DUP1 PUSH2 0xAE3 JUMPI POP PUSH1 0x2 SLOAD PUSH1 0x1 PUSH1 0x1 PUSH1 0xA0 SHL SUB AND CALLER EQ JUMPDEST PUSH2 0xAFF JUMPI PUSH1 0x40 MLOAD PUSH3 0x461BCD PUSH1 0xE5 SHL DUP2 MSTORE PUSH1 0x4 ADD PUSH2 0x434 SWAP1 PUSH2 0x22B6 JUMP JUMPDEST PUSH2 0xB08 DUP3 PUSH2 0x1349 JUMP JUMPDEST ISZERO PUSH2 0xB6C JUMPI PUSH1 0x11 SLOAD PUSH1 0x0 JUMPDEST DUP2 DUP2 LT ISZERO PUSH2 0xB62 JUMPI PUSH2 0xB4F PUSH1 0x11 DUP3 DUP2 SLOAD DUP2 LT PUSH2 0xB3F JUMPI PUSH4 0x4E487B71 PUSH1 0xE0 SHL PUSH1 0x0 MSTORE PUSH1 0x32 PUSH1 0x4 MSTORE PUSH1 0x24 PUSH1 0x0 REVERT JUMPDEST SWAP1 PUSH1 0x0 MSTORE PUSH1 0x20 PUSH1 0x0 KECCAK256 ADD SLOAD PUSH2 0x1900 JUMP JUMPDEST POP DUP1 PUSH2 0xB5A DUP2 PUSH2 0x2340 JUMP JUMPDEST SWAP2 POP POP PUSH2 0xB13 JUMP JUMPDEST POP PUSH1 0x1 SWAP4 SWAP3 POP POP POP JUMP JUMPDEST POP PUSH1 0x0 JUMPDEST SWAP2 SWAP1 POP JUMP JUMPDEST PUSH1 0x60 PUSH1 0xE DUP1 SLOAD DUP1 PUSH1 0x20 MUL PUSH1 0x20 ADD PUSH1 0x40 MLOAD SWAP1 DUP2 ADD PUSH1 0x40 MSTORE DUP1 SWAP3 SWAP2 SWAP1 DUP2 DUP2 MSTORE PUSH1 0x20 ADD DUP3 DUP1 SLOAD DUP1 ISZERO PUSH2 0x9A1 JUMPI PUSH1 0x20 MUL DUP3 ADD SWAP2 SWAP1 PUSH1 0x0 MSTORE PUSH1 0x20 PUSH1 0x0 KECCAK256 SWAP1 DUP2 SLOAD DUP2 MSTORE PUSH1 0x20 ADD SWAP1 PUSH1 0x1 ADD SWAP1 DUP1 DUP4 GT PUSH2 0x98D JUMPI POP POP POP POP POP SWAP1 POP SWAP1 JUMP JUMPDEST PUSH1 0x3 SLOAD PUSH1 0x0 SWAP1 PUSH1 0x1 PUSH1 0x1 PUSH1 0xA0 SHL SUB AND CALLER EQ DUP1 PUSH2 0xBF1 JUMPI POP PUSH1 0x2 SLOAD PUSH1 0x1 PUSH1 0x1 PUSH1 0xA0 SHL SUB AND CALLER EQ JUMPDEST PUSH2 0xC0D JUMPI PUSH1 0x40 MLOAD PUSH3 0x461BCD PUSH1 0xE5 SHL DUP2 MSTORE PUSH1 0x4 ADD PUSH2 0x434 SWAP1 PUSH2 0x22B6 JUMP JUMPDEST PUSH1 0xC SLOAD ISZERO DUP1 PUSH2 0xC1E JUMPI POP PUSH1 0xC SLOAD PUSH1 0x4 EQ JUMPDEST ISZERO PUSH2 0x94D JUMPI PUSH1 0x11 SLOAD PUSH1 0x0 JUMPDEST DUP2 DUP2 LT ISZERO PUSH2 0xC78 JUMPI PUSH2 0xC65 PUSH1 0x11 DUP3 DUP2 SLOAD DUP2 LT PUSH2 0xC55 JUMPI PUSH4 0x4E487B71 PUSH1 0xE0 SHL PUSH1 0x0 MSTORE PUSH1 0x32 PUSH1 0x4 MSTORE PUSH1 0x24 PUSH1 0x0 REVERT JUMPDEST SWAP1 PUSH1 0x0 MSTORE PUSH1 0x20 PUSH1 0x0 KECCAK256 ADD SLOAD PUSH2 0x1C93 JUMP JUMPDEST POP DUP1 PUSH2 0xC70 DUP2 PUSH2 0x2340 JUMP JUMPDEST SWAP2 POP POP PUSH2 0xC29 JUMP JUMPDEST POP POP PUSH1 0x3 PUSH1 0xC SSTORE POP PUSH1 0x1 SWAP1 JUMP JUMPDEST PUSH1 0xB SLOAD PUSH1 0x40 MLOAD PUSH4 0x332DACCF PUSH1 0xE0 SHL DUP2 MSTORE CALLER PUSH1 0x4 DUP3 ADD MSTORE PUSH1 0x0 SWAP2 PUSH1 0x1 PUSH1 0x1 PUSH1 0xA0 SHL SUB AND SWAP1 PUSH4 0x332DACCF SWAP1 PUSH1 0x24 ADD PUSH1 0x20 PUSH1 0x40 MLOAD DUP1 DUP4 SUB DUP2 DUP7 DUP1 EXTCODESIZE ISZERO DUP1 ISZERO PUSH2 0xCC9 JUMPI PUSH1 0x0 DUP1 REVERT JUMPDEST POP GAS STATICCALL ISZERO DUP1 ISZERO PUSH2 0xCDD JUMPI RETURNDATASIZE PUSH1 0x0 DUP1 RETURNDATACOPY RETURNDATASIZE PUSH1 0x0 REVERT JUMPDEST POP POP POP POP PUSH1 0x40 MLOAD RETURNDATASIZE PUSH1 0x1F NOT PUSH1 0x1F DUP3 ADD AND DUP3 ADD DUP1 PUSH1 0x40 MSTORE POP DUP2 ADD SWAP1 PUSH2 0xD01 SWAP2 SWAP1 PUSH2 0x2226 JUMP JUMPDEST ISZERO PUSH2 0xD33 JUMPI PUSH1 0x40 MLOAD PUSH3 0x461BCD PUSH1 0xE5 SHL DUP2 MSTORE PUSH1 0x20 PUSH1 0x4 DUP3 ADD MSTORE PUSH1 0x2 PUSH1 0x24 DUP3 ADD MSTORE PUSH2 0x4D31 PUSH1 0xF0 SHL PUSH1 0x44 DUP3 ADD MSTORE PUSH1 0x64 ADD PUSH2 0x434 JUMP JUMPDEST PUSH1 0xC SLOAD ISZERO PUSH2 0xD68 JUMPI PUSH1 0x40 MLOAD PUSH3 0x461BCD PUSH1 0xE5 SHL DUP2 MSTORE PUSH1 0x20 PUSH1 0x4 DUP3 ADD MSTORE PUSH1 0x2 PUSH1 0x24 DUP3 ADD MSTORE PUSH2 0x4D37 PUSH1 0xF0 SHL PUSH1 0x44 DUP3 ADD MSTORE PUSH1 0x64 ADD PUSH2 0x434 JUMP JUMPDEST DUP3 PUSH1 0x1 EQ DUP1 PUSH2 0xD77 JUMPI POP DUP3 PUSH1 0x2 EQ JUMPDEST PUSH2 0xDB2 JUMPI PUSH1 0x40 MLOAD PUSH3 0x461BCD PUSH1 0xE5 SHL DUP2 MSTORE PUSH1 0x20 PUSH1 0x4 DUP3 ADD MSTORE PUSH1 0xC PUSH1 0x24 DUP3 ADD MSTORE PUSH12 0x696E76616C69642073696465 PUSH1 0xA0 SHL PUSH1 0x44 DUP3 ADD MSTORE PUSH1 0x64 ADD PUSH2 0x434 JUMP JUMPDEST PUSH1 0x40 MLOAD PUSH4 0x70A08231 PUSH1 0xE0 SHL DUP2 MSTORE CALLER PUSH1 0x4 DUP3 ADD MSTORE DUP6 SWAP1 PUSH32 0x0 PUSH1 0x1 PUSH1 0x1 PUSH1 0xA0 SHL SUB AND SWAP1 PUSH4 0x70A08231 SWAP1 PUSH1 0x24 ADD PUSH1 0x20 PUSH1 0x40 MLOAD DUP1 DUP4 SUB DUP2 DUP7 DUP1 EXTCODESIZE ISZERO DUP1 ISZERO PUSH2 0xE13 JUMPI PUSH1 0x0 DUP1 REVERT JUMPDEST POP GAS STATICCALL ISZERO DUP1 ISZERO PUSH2 0xE27 JUMPI RETURNDATASIZE PUSH1 0x0 DUP1 RETURNDATACOPY RETURNDATASIZE PUSH1 0x0 REVERT JUMPDEST POP POP POP POP PUSH1 0x40 MLOAD RETURNDATASIZE PUSH1 0x1F NOT PUSH1 0x1F DUP3 ADD AND DUP3 ADD DUP1 PUSH1 0x40 MSTORE POP DUP2 ADD SWAP1 PUSH2 0xE4B SWAP2 SWAP1 PUSH2 0x225A JUMP JUMPDEST LT ISZERO PUSH2 0xE99 JUMPI PUSH1 0x40 MLOAD PUSH3 0x461BCD PUSH1 0xE5 SHL DUP2 MSTORE PUSH1 0x20 PUSH1 0x4 DUP3 ADD MSTORE PUSH1 0x19 PUSH1 0x24 DUP3 ADD MSTORE PUSH32 0x6E6F7420656E6F75676820746F6B656E2062616C616C6E636500000000000000 PUSH1 0x44 DUP3 ADD MSTORE PUSH1 0x64 ADD PUSH2 0x434 JUMP JUMPDEST PUSH1 0x40 MLOAD PUSH4 0x6EB1769F PUSH1 0xE1 SHL DUP2 MSTORE CALLER PUSH1 0x4 DUP3 ADD MSTORE ADDRESS PUSH1 0x24 DUP3 ADD MSTORE DUP6 SWAP1 PUSH32 0x0 PUSH1 0x1 PUSH1 0x1 PUSH1 0xA0 SHL SUB AND SWAP1 PUSH4 0xDD62ED3E SWAP1 PUSH1 0x44 ADD PUSH1 0x20 PUSH1 0x40 MLOAD DUP1 DUP4 SUB DUP2 DUP7 DUP1 EXTCODESIZE ISZERO DUP1 ISZERO PUSH2 0xF00 JUMPI PUSH1 0x0 DUP1 REVERT JUMPDEST POP GAS STATICCALL ISZERO DUP1 ISZERO PUSH2 0xF14 JUMPI RETURNDATASIZE PUSH1 0x0 DUP1 RETURNDATACOPY RETURNDATASIZE PUSH1 0x0 REVERT JUMPDEST POP POP POP POP PUSH1 0x40 MLOAD RETURNDATASIZE PUSH1 0x1F NOT PUSH1 0x1F DUP3 ADD AND DUP3 ADD DUP1 PUSH1 0x40 MSTORE POP DUP2 ADD SWAP1 PUSH2 0xF38 SWAP2 SWAP1 PUSH2 0x225A JUMP JUMPDEST LT ISZERO PUSH2 0xF7D JUMPI PUSH1 0x40 MLOAD PUSH3 0x461BCD PUSH1 0xE5 SHL DUP2 MSTORE PUSH1 0x20 PUSH1 0x4 DUP3 ADD MSTORE PUSH1 0x14 PUSH1 0x24 DUP3 ADD MSTORE PUSH20 0x6E6F7420656E6F75676820616C6C6F77616E6365 PUSH1 0x60 SHL PUSH1 0x44 DUP3 ADD MSTORE PUSH1 0x64 ADD PUSH2 0x434 JUMP JUMPDEST PUSH1 0x6 SLOAD DUP6 LT ISZERO PUSH2 0xFC5 JUMPI PUSH1 0x40 MLOAD PUSH3 0x461BCD PUSH1 0xE5 SHL DUP2 MSTORE PUSH1 0x20 PUSH1 0x4 DUP3 ADD MSTORE PUSH1 0x13 PUSH1 0x24 DUP3 ADD MSTORE PUSH19 0x6C657373207468616E206D696E207374616B65 PUSH1 0x68 SHL PUSH1 0x44 DUP3 ADD MSTORE PUSH1 0x64 ADD PUSH2 0x434 JUMP JUMPDEST PUSH1 0x40 MLOAD PUSH4 0x23B872DD PUSH1 0xE0 SHL DUP2 MSTORE CALLER PUSH1 0x4 DUP3 ADD MSTORE ADDRESS PUSH1 0x24 DUP3 ADD MSTORE PUSH1 0x44 DUP2 ADD DUP7 SWAP1 MSTORE PUSH32 0x0 PUSH1 0x1 PUSH1 0x1 PUSH1 0xA0 SHL SUB AND SWAP1 PUSH4 0x23B872DD SWAP1 PUSH1 0x64 ADD PUSH1 0x20 PUSH1 0x40 MLOAD DUP1 DUP4 SUB DUP2 PUSH1 0x0 DUP8 DUP1 EXTCODESIZE ISZERO DUP1 ISZERO PUSH2 0x1033 JUMPI PUSH1 0x0 DUP1 REVERT JUMPDEST POP GAS CALL ISZERO DUP1 ISZERO PUSH2 0x1047 JUMPI RETURNDATASIZE PUSH1 0x0 DUP1 RETURNDATACOPY RETURNDATASIZE PUSH1 0x0 REVERT JUMPDEST POP POP POP POP PUSH1 0x40 MLOAD RETURNDATASIZE PUSH1 0x1F NOT PUSH1 0x1F DUP3 ADD AND DUP3 ADD DUP1 PUSH1 0x40 MSTORE POP DUP2 ADD SWAP1 PUSH2 0x106B SWAP2 SWAP1 PUSH2 0x2226 JUMP JUMPDEST PUSH2 0x10B7 JUMPI PUSH1 0x40 MLOAD PUSH3 0x461BCD PUSH1 0xE5 SHL DUP2 MSTORE PUSH1 0x20 PUSH1 0x4 DUP3 ADD MSTORE PUSH1 0x1B PUSH1 0x24 DUP3 ADD MSTORE PUSH32 0x7472616E736665722066726F6D2063616C6C6572206661696C65640000000000 PUSH1 0x44 DUP3 ADD MSTORE PUSH1 0x64 ADD PUSH2 0x434 JUMP JUMPDEST PUSH1 0x0 PUSH2 0x10E6 CALLER DUP9 DUP9 DUP5 PUSH2 0x10CB PUSH1 0x64 DUP12 PUSH2 0x2329 JUMP JUMPDEST PUSH2 0x10D6 DUP12 PUSH1 0x64 PUSH2 0x230A JUMP JUMPDEST PUSH2 0x10E0 SWAP2 SWAP1 PUSH2 0x22EA JUMP JUMPDEST DUP10 PUSH2 0x1D75 JUMP JUMPDEST PUSH1 0xE SLOAD SWAP1 SWAP2 POP ISZERO PUSH2 0x12EA JUMPI PUSH1 0xE SLOAD DUP7 SWAP1 JUMPDEST PUSH1 0x6 SLOAD DUP3 LT PUSH2 0x12E7 JUMPI PUSH1 0x0 DUP1 PUSH1 0x0 JUMPDEST DUP4 DUP2 LT ISZERO PUSH2 0x11CF JUMPI PUSH1 0x0 PUSH1 0xE DUP3 DUP2 SLOAD DUP2 LT PUSH2 0x1131 JUMPI PUSH4 0x4E487B71 PUSH1 0xE0 SHL PUSH1 0x0 MSTORE PUSH1 0x32 PUSH1 0x4 MSTORE PUSH1 0x24 PUSH1 0x0 REVERT JUMPDEST SWAP1 PUSH1 0x0 MSTORE PUSH1 0x20 PUSH1 0x0 KECCAK256 ADD SLOAD SWAP1 POP PUSH1 0x10 PUSH1 0x0 DUP3 DUP2 MSTORE PUSH1 0x20 ADD SWAP1 DUP2 MSTORE PUSH1 0x20 ADD PUSH1 0x0 KECCAK256 PUSH1 0x5 ADD SLOAD DUP11 EQ ISZERO PUSH2 0x1162 JUMPI POP PUSH2 0x11BD JUMP JUMPDEST PUSH1 0x0 DUP2 DUP2 MSTORE PUSH1 0x10 PUSH1 0x20 MSTORE PUSH1 0x40 SWAP1 KECCAK256 SLOAD PUSH1 0x1 PUSH1 0x1 PUSH1 0xA0 SHL SUB AND CALLER EQ ISZERO PUSH2 0x1187 JUMPI POP PUSH2 0x11BD JUMP JUMPDEST PUSH1 0x0 DUP2 DUP2 MSTORE PUSH1 0x10 PUSH1 0x20 MSTORE PUSH1 0x40 SWAP1 KECCAK256 PUSH1 0x4 ADD SLOAD DUP4 LT ISZERO PUSH2 0x11BB JUMPI PUSH1 0x0 DUP2 DUP2 MSTORE PUSH1 0x10 PUSH1 0x20 MSTORE PUSH1 0x40 SWAP1 KECCAK256 PUSH1 0x4 ADD SLOAD SWAP2 SWAP4 POP SWAP1 SWAP2 POP DUP3 SWAP1 JUMPDEST POP JUMPDEST DUP1 PUSH2 0x11C7 DUP2 PUSH2 0x2340 JUMP JUMPDEST SWAP2 POP POP PUSH2 0x1106 JUMP JUMPDEST POP PUSH1 0x0 DUP10 DUP3 LT ISZERO DUP1 PUSH2 0x11E9 JUMPI POP PUSH1 0x0 DUP3 GT DUP1 ISZERO PUSH2 0x11E9 JUMPI POP DUP8 JUMPDEST ISZERO PUSH2 0x12CB JUMPI PUSH1 0x0 PUSH1 0xE DUP5 DUP2 SLOAD DUP2 LT PUSH2 0x1211 JUMPI PUSH4 0x4E487B71 PUSH1 0xE0 SHL PUSH1 0x0 MSTORE PUSH1 0x32 PUSH1 0x4 MSTORE PUSH1 0x24 PUSH1 0x0 REVERT JUMPDEST PUSH1 0x0 SWAP2 DUP3 MSTORE PUSH1 0x20 DUP1 DUP4 KECCAK256 SWAP1 SWAP2 ADD SLOAD DUP1 DUP4 MSTORE PUSH1 0x10 DUP3 MSTORE PUSH1 0x40 DUP1 DUP5 KECCAK256 DUP2 MLOAD PUSH1 0xC0 DUP2 ADD DUP4 MSTORE DUP2 SLOAD PUSH1 0x1 PUSH1 0x1 PUSH1 0xA0 SHL SUB SWAP1 DUP2 AND DUP3 MSTORE PUSH1 0x1 DUP4 ADD SLOAD AND SWAP5 DUP2 ADD SWAP5 SWAP1 SWAP5 MSTORE PUSH1 0x2 DUP2 ADD SLOAD SWAP2 DUP5 ADD SWAP2 SWAP1 SWAP2 MSTORE PUSH1 0x3 DUP2 ADD SLOAD PUSH1 0x60 DUP5 ADD MSTORE PUSH1 0x4 DUP2 ADD SLOAD PUSH1 0x80 DUP5 ADD MSTORE PUSH1 0x5 ADD SLOAD PUSH1 0xA0 DUP4 ADD MSTORE SWAP3 POP SWAP1 PUSH2 0x1286 PUSH1 0x64 DUP15 PUSH2 0x2329 JUMP JUMPDEST DUP3 PUSH1 0x60 ADD MLOAD DUP4 PUSH1 0x40 ADD MLOAD PUSH2 0x129A SWAP2 SWAP1 PUSH2 0x2329 JUMP JUMPDEST PUSH2 0x12A4 SWAP2 SWAP1 PUSH2 0x22EA JUMP JUMPDEST SWAP1 POP PUSH2 0x12B1 PUSH1 0x64 DUP3 PUSH2 0x230A JUMP JUMPDEST SWAP1 POP PUSH2 0x12C1 DUP15 DUP3 DUP16 DUP16 DUP14 DUP9 PUSH2 0x1F1D JUMP JUMPDEST SWAP4 POP POP POP POP PUSH2 0x12D3 JUMP JUMPDEST POP POP POP PUSH2 0x12E7 JUMP JUMPDEST PUSH2 0x12DD DUP2 DUP7 PUSH2 0x2329 JUMP JUMPDEST SWAP5 POP POP POP POP PUSH2 0x10F7 JUMP JUMPDEST POP POP JUMPDEST PUSH1 0x40 DUP1 MLOAD CALLER DUP2 MSTORE ADDRESS PUSH1 0x20 DUP3 ADD MSTORE SWAP1 DUP2 ADD DUP3 SWAP1 MSTORE PUSH1 0x60 DUP2 ADD DUP8 SWAP1 MSTORE PUSH1 0x80 DUP2 ADD DUP7 SWAP1 MSTORE PUSH1 0xA0 DUP2 ADD DUP6 SWAP1 MSTORE PUSH32 0x618F358BB45538682ADE624A4A1959053D9DABD20FE300508034B879681B37BE SWAP1 PUSH1 0xC0 ADD PUSH1 0x40 MLOAD DUP1 SWAP2 SUB SWAP1 LOG1 SWAP7 SWAP6 POP POP POP POP POP POP JUMP JUMPDEST PUSH1 0x3 SLOAD PUSH1 0x0 SWAP1 PUSH1 0x1 PUSH1 0x1 PUSH1 0xA0 SHL SUB AND CALLER EQ DUP1 PUSH2 0x136F JUMPI POP PUSH1 0x2 SLOAD PUSH1 0x1 PUSH1 0x1 PUSH1 0xA0 SHL SUB AND CALLER EQ JUMPDEST PUSH2 0x138B JUMPI PUSH1 0x40 MLOAD PUSH3 0x461BCD PUSH1 0xE5 SHL DUP2 MSTORE PUSH1 0x4 ADD PUSH2 0x434 SWAP1 PUSH2 0x22B6 JUMP JUMPDEST PUSH1 0xC SLOAD ISZERO DUP1 PUSH2 0x139C JUMPI POP PUSH1 0xC SLOAD PUSH1 0x1 EQ JUMPDEST DUP1 PUSH2 0x13A9 JUMPI POP PUSH1 0xC SLOAD PUSH1 0x2 EQ JUMPDEST DUP1 PUSH2 0x13B6 JUMPI POP PUSH1 0xC SLOAD PUSH1 0x4 EQ JUMPDEST DUP1 ISZERO PUSH2 0x13CC JUMPI POP DUP2 PUSH1 0x1 EQ DUP1 PUSH2 0x13CC JUMPI POP DUP2 PUSH1 0x2 EQ JUMPDEST ISZERO PUSH2 0xB6C JUMPI POP PUSH1 0xC SSTORE PUSH1 0x1 SWAP1 JUMP JUMPDEST PUSH1 0x3 SLOAD PUSH1 0x0 SWAP1 PUSH1 0x1 PUSH1 0x1 PUSH1 0xA0 SHL SUB AND CALLER EQ DUP1 PUSH2 0x1400 JUMPI POP PUSH1 0x2 SLOAD PUSH1 0x1 PUSH1 0x1 PUSH1 0xA0 SHL SUB AND CALLER EQ JUMPDEST PUSH2 0x141C JUMPI PUSH1 0x40 MLOAD PUSH3 0x461BCD PUSH1 0xE5 SHL DUP2 MSTORE PUSH1 0x4 ADD PUSH2 0x434 SWAP1 PUSH2 0x22B6 JUMP JUMPDEST PUSH1 0xC SLOAD ISZERO DUP1 PUSH2 0x142D JUMPI POP PUSH1 0xC SLOAD PUSH1 0x4 EQ JUMPDEST ISZERO PUSH2 0x94D JUMPI POP PUSH1 0x3 PUSH1 0xC SSTORE PUSH1 0x1 SWAP1 JUMP JUMPDEST PUSH1 0x0 DUP2 DUP2 MSTORE PUSH1 0x10 PUSH1 0x20 SWAP1 DUP2 MSTORE PUSH1 0x40 DUP1 DUP4 KECCAK256 DUP2 MLOAD PUSH1 0xC0 DUP2 ADD DUP4 MSTORE DUP2 SLOAD PUSH1 0x1 PUSH1 0x1 PUSH1 0xA0 SHL SUB SWAP1 DUP2 AND DUP3 MSTORE PUSH1 0x1 DUP4 ADD SLOAD AND DUP2 DUP6 ADD MSTORE PUSH1 0x2 DUP3 ADD SLOAD DUP2 DUP5 ADD MSTORE PUSH1 0x3 DUP3 ADD SLOAD PUSH1 0x60 DUP3 ADD MSTORE PUSH1 0x4 DUP3 ADD SLOAD PUSH1 0x80 DUP3 ADD MSTORE PUSH1 0x5 SWAP1 SWAP2 ADD SLOAD PUSH1 0xA0 DUP3 ADD MSTORE DUP5 DUP5 MSTORE PUSH1 0x12 DUP4 MSTORE DUP2 DUP5 KECCAK256 DUP1 SLOAD DUP4 MLOAD DUP2 DUP7 MUL DUP2 ADD DUP7 ADD SWAP1 SWAP5 MSTORE DUP1 DUP5 MSTORE SWAP2 SWAP4 DUP6 SWAP4 SWAP3 SWAP1 DUP4 ADD DUP3 DUP3 DUP1 ISZERO PUSH2 0x14E7 JUMPI PUSH1 0x20 MUL DUP3 ADD SWAP2 SWAP1 PUSH1 0x0 MSTORE PUSH1 0x20 PUSH1 0x0 KECCAK256 SWAP1 JUMPDEST DUP2 SLOAD DUP2 MSTORE PUSH1 0x20 ADD SWAP1 PUSH1 0x1 ADD SWAP1 DUP1 DUP4 GT PUSH2 0x14D3 JUMPI JUMPDEST POP POP DUP4 MLOAD SWAP4 SWAP5 POP PUSH1 0x0 SWAP3 POP POP POP JUMPDEST DUP2 DUP2 LT ISZERO PUSH2 0x18F4 JUMPI PUSH1 0x13 PUSH1 0x0 DUP5 DUP4 DUP2 MLOAD DUP2 LT PUSH2 0x1521 JUMPI PUSH4 0x4E487B71 PUSH1 0xE0 SHL PUSH1 0x0 MSTORE PUSH1 0x32 PUSH1 0x4 MSTORE PUSH1 0x24 PUSH1 0x0 REVERT JUMPDEST PUSH1 0x20 SWAP1 DUP2 MUL SWAP2 SWAP1 SWAP2 ADD DUP2 ADD MLOAD DUP3 MSTORE DUP2 ADD SWAP2 SWAP1 SWAP2 MSTORE PUSH1 0x40 ADD PUSH1 0x0 KECCAK256 PUSH1 0x4 ADD SLOAD PUSH1 0xFF AND ISZERO PUSH2 0x154C JUMPI PUSH2 0x18E2 JUMP JUMPDEST PUSH1 0x0 DUP1 PUSH1 0x0 DUP1 DUP8 PUSH1 0xA0 ADD MLOAD PUSH1 0x1 EQ ISZERO PUSH2 0x1624 JUMPI PUSH1 0x13 PUSH1 0x0 DUP9 DUP8 DUP2 MLOAD DUP2 LT PUSH2 0x1583 JUMPI PUSH4 0x4E487B71 PUSH1 0xE0 SHL PUSH1 0x0 MSTORE PUSH1 0x32 PUSH1 0x4 MSTORE PUSH1 0x24 PUSH1 0x0 REVERT JUMPDEST PUSH1 0x20 MUL PUSH1 0x20 ADD ADD MLOAD DUP2 MSTORE PUSH1 0x20 ADD SWAP1 DUP2 MSTORE PUSH1 0x20 ADD PUSH1 0x0 KECCAK256 PUSH1 0x2 ADD SLOAD SWAP2 POP PUSH1 0x13 PUSH1 0x0 DUP9 DUP8 DUP2 MLOAD DUP2 LT PUSH2 0x15C3 JUMPI PUSH4 0x4E487B71 PUSH1 0xE0 SHL PUSH1 0x0 MSTORE PUSH1 0x32 PUSH1 0x4 MSTORE PUSH1 0x24 PUSH1 0x0 REVERT JUMPDEST PUSH1 0x20 MUL PUSH1 0x20 ADD ADD MLOAD DUP2 MSTORE PUSH1 0x20 ADD SWAP1 DUP2 MSTORE PUSH1 0x20 ADD PUSH1 0x0 KECCAK256 PUSH1 0x1 ADD SLOAD SWAP4 POP PUSH1 0x13 PUSH1 0x0 DUP9 DUP8 DUP2 MLOAD DUP2 LT PUSH2 0x1603 JUMPI PUSH4 0x4E487B71 PUSH1 0xE0 SHL PUSH1 0x0 MSTORE PUSH1 0x32 PUSH1 0x4 MSTORE PUSH1 0x24 PUSH1 0x0 REVERT JUMPDEST PUSH1 0x20 MUL PUSH1 0x20 ADD ADD MLOAD DUP2 MSTORE PUSH1 0x20 ADD SWAP1 DUP2 MSTORE PUSH1 0x20 ADD PUSH1 0x0 KECCAK256 PUSH1 0x3 ADD SLOAD SWAP3 POP PUSH2 0x16F2 JUMP JUMPDEST DUP8 PUSH1 0xA0 ADD MLOAD PUSH1 0x2 EQ ISZERO PUSH2 0x16F2 JUMPI PUSH1 0x13 PUSH1 0x0 DUP9 DUP8 DUP2 MLOAD DUP2 LT PUSH2 0x1655 JUMPI PUSH4 0x4E487B71 PUSH1 0xE0 SHL PUSH1 0x0 MSTORE PUSH1 0x32 PUSH1 0x4 MSTORE PUSH1 0x24 PUSH1 0x0 REVERT JUMPDEST PUSH1 0x20 MUL PUSH1 0x20 ADD ADD MLOAD DUP2 MSTORE PUSH1 0x20 ADD SWAP1 DUP2 MSTORE PUSH1 0x20 ADD PUSH1 0x0 KECCAK256 PUSH1 0x3 ADD SLOAD SWAP2 POP PUSH1 0x13 PUSH1 0x0 DUP9 DUP8 DUP2 MLOAD DUP2 LT PUSH2 0x1695 JUMPI PUSH4 0x4E487B71 PUSH1 0xE0 SHL PUSH1 0x0 MSTORE PUSH1 0x32 PUSH1 0x4 MSTORE PUSH1 0x24 PUSH1 0x0 REVERT JUMPDEST PUSH1 0x20 MUL PUSH1 0x20 ADD ADD MLOAD DUP2 MSTORE PUSH1 0x20 ADD SWAP1 DUP2 MSTORE PUSH1 0x20 ADD PUSH1 0x0 KECCAK256 PUSH1 0x0 ADD SLOAD SWAP4 POP PUSH1 0x13 PUSH1 0x0 DUP9 DUP8 DUP2 MLOAD DUP2 LT PUSH2 0x16D5 JUMPI PUSH4 0x4E487B71 PUSH1 0xE0 SHL PUSH1 0x0 MSTORE PUSH1 0x32 PUSH1 0x4 MSTORE PUSH1 0x24 PUSH1 0x0 REVERT JUMPDEST PUSH1 0x20 MUL PUSH1 0x20 ADD ADD MLOAD DUP2 MSTORE PUSH1 0x20 ADD SWAP1 DUP2 MSTORE PUSH1 0x20 ADD PUSH1 0x0 KECCAK256 PUSH1 0x2 ADD SLOAD SWAP3 POP JUMPDEST POP PUSH1 0x0 DUP4 DUP2 MSTORE PUSH1 0x10 PUSH1 0x20 MSTORE PUSH1 0x40 SWAP1 KECCAK256 SLOAD PUSH1 0x7 SLOAD PUSH1 0x1 PUSH1 0x1 PUSH1 0xA0 SHL SUB SWAP1 SWAP2 AND SWAP1 PUSH1 0x64 SWAP1 PUSH2 0x171E SWAP1 DUP3 PUSH2 0x2329 JUMP JUMPDEST PUSH2 0x1728 SWAP1 DUP5 PUSH2 0x230A JUMP JUMPDEST PUSH2 0x1732 SWAP2 SWAP1 PUSH2 0x22EA JUMP JUMPDEST DUP9 MLOAD PUSH1 0x1 PUSH1 0x1 PUSH1 0xA0 SHL SUB AND PUSH1 0x0 SWAP1 DUP2 MSTORE PUSH1 0xD PUSH1 0x20 MSTORE PUSH1 0x40 DUP2 KECCAK256 DUP1 SLOAD SWAP1 SWAP2 SWAP1 PUSH2 0x175B SWAP1 DUP5 SWAP1 PUSH2 0x22D2 JUMP JUMPDEST SWAP1 SWAP2 SSTORE POP POP PUSH1 0x0 DUP5 DUP2 MSTORE PUSH1 0x10 PUSH1 0x20 MSTORE PUSH1 0x40 DUP2 KECCAK256 PUSH1 0x3 ADD DUP1 SLOAD DUP6 SWAP3 SWAP1 PUSH2 0x1781 SWAP1 DUP5 SWAP1 PUSH2 0x2329 JUMP JUMPDEST SWAP1 SWAP2 SSTORE POP POP PUSH1 0x7 SLOAD PUSH1 0x0 SWAP1 PUSH1 0x64 SWAP1 PUSH2 0x1799 SWAP1 DUP6 PUSH2 0x230A JUMP JUMPDEST PUSH2 0x17A3 SWAP2 SWAP1 PUSH2 0x22EA JUMP JUMPDEST PUSH1 0xA SLOAD SWAP1 SWAP2 POP PUSH1 0x64 SWAP1 PUSH2 0x17B6 SWAP1 DUP4 PUSH2 0x230A JUMP JUMPDEST PUSH2 0x17C0 SWAP2 SWAP1 PUSH2 0x22EA JUMP JUMPDEST PUSH1 0x4 SLOAD PUSH1 0x1 PUSH1 0x1 PUSH1 0xA0 SHL SUB AND PUSH1 0x0 SWAP1 DUP2 MSTORE PUSH1 0xD PUSH1 0x20 MSTORE PUSH1 0x40 DUP2 KECCAK256 DUP1 SLOAD SWAP1 SWAP2 SWAP1 PUSH2 0x17EA SWAP1 DUP5 SWAP1 PUSH2 0x22D2 JUMP JUMPDEST SWAP1 SWAP2 SSTORE POP POP PUSH1 0x9 SLOAD PUSH1 0x64 SWAP1 PUSH2 0x17FF SWAP1 DUP4 PUSH2 0x230A JUMP JUMPDEST PUSH2 0x1809 SWAP2 SWAP1 PUSH2 0x22EA JUMP JUMPDEST PUSH1 0x5 SLOAD PUSH1 0x1 PUSH1 0x1 PUSH1 0xA0 SHL SUB AND PUSH1 0x0 SWAP1 DUP2 MSTORE PUSH1 0xD PUSH1 0x20 MSTORE PUSH1 0x40 DUP2 KECCAK256 DUP1 SLOAD SWAP1 SWAP2 SWAP1 PUSH2 0x1833 SWAP1 DUP5 SWAP1 PUSH2 0x22D2 JUMP JUMPDEST SWAP1 SWAP2 SSTORE POP POP PUSH1 0x8 SLOAD PUSH1 0x64 SWAP1 PUSH2 0x1848 SWAP1 DUP4 PUSH2 0x230A JUMP JUMPDEST PUSH2 0x1852 SWAP2 SWAP1 PUSH2 0x22EA JUMP JUMPDEST PUSH1 0x20 DUP1 DUP12 ADD MLOAD PUSH1 0x1 PUSH1 0x1 PUSH1 0xA0 SHL SUB AND PUSH1 0x0 SWAP1 DUP2 MSTORE PUSH1 0xD SWAP1 SWAP2 MSTORE PUSH1 0x40 DUP2 KECCAK256 DUP1 SLOAD SWAP1 SWAP2 SWAP1 PUSH2 0x187F SWAP1 DUP5 SWAP1 PUSH2 0x22D2 JUMP JUMPDEST SWAP3 POP POP DUP2 SWAP1 SSTORE POP PUSH1 0x1 PUSH1 0x13 PUSH1 0x0 DUP11 DUP10 DUP2 MLOAD DUP2 LT PUSH2 0x18AC JUMPI PUSH4 0x4E487B71 PUSH1 0xE0 SHL PUSH1 0x0 MSTORE PUSH1 0x32 PUSH1 0x4 MSTORE PUSH1 0x24 PUSH1 0x0 REVERT JUMPDEST PUSH1 0x20 MUL PUSH1 0x20 ADD ADD MLOAD DUP2 MSTORE PUSH1 0x20 ADD SWAP1 DUP2 MSTORE PUSH1 0x20 ADD PUSH1 0x0 KECCAK256 PUSH1 0x4 ADD PUSH1 0x0 PUSH2 0x100 EXP DUP2 SLOAD DUP2 PUSH1 0xFF MUL NOT AND SWAP1 DUP4 ISZERO ISZERO MUL OR SWAP1 SSTORE POP POP POP POP POP POP JUMPDEST DUP1 PUSH2 0x18EC DUP2 PUSH2 0x2340 JUMP JUMPDEST SWAP2 POP POP PUSH2 0x14F5 JUMP JUMPDEST POP PUSH1 0x1 SWAP6 SWAP5 POP POP POP POP POP JUMP JUMPDEST PUSH1 0x0 PUSH1 0x2 PUSH1 0x0 SLOAD EQ ISZERO PUSH2 0x1955 JUMPI PUSH1 0x40 MLOAD PUSH3 0x461BCD PUSH1 0xE5 SHL DUP2 MSTORE PUSH1 0x20 PUSH1 0x4 DUP3 ADD MSTORE PUSH1 0x1F PUSH1 0x24 DUP3 ADD MSTORE PUSH32 0x5265656E7472616E637947756172643A207265656E7472616E742063616C6C00 PUSH1 0x44 DUP3 ADD MSTORE PUSH1 0x64 ADD PUSH2 0x434 JUMP JUMPDEST PUSH1 0x2 PUSH1 0x0 SWAP1 DUP2 SSTORE DUP3 DUP2 MSTORE PUSH1 0x13 PUSH1 0x20 MSTORE PUSH1 0x40 SWAP1 KECCAK256 PUSH1 0x4 ADD SLOAD PUSH1 0xFF AND ISZERO PUSH2 0x197C JUMPI POP PUSH1 0x0 PUSH2 0x81A JUMP JUMPDEST PUSH1 0x0 DUP1 PUSH1 0x0 DUP1 PUSH1 0xC SLOAD PUSH1 0x1 EQ ISZERO PUSH2 0x1A68 JUMPI PUSH1 0x0 DUP7 DUP2 MSTORE PUSH1 0x13 PUSH1 0x20 SWAP1 DUP2 MSTORE PUSH1 0x40 DUP1 DUP4 KECCAK256 SLOAD DUP4 MSTORE PUSH1 0x10 SWAP1 SWAP2 MSTORE SWAP1 KECCAK256 SLOAD PUSH1 0x7 SLOAD PUSH1 0x1 PUSH1 0x1 PUSH1 0xA0 SHL SUB SWAP1 SWAP2 AND SWAP5 POP PUSH1 0x64 SWAP1 PUSH2 0x19C6 SWAP1 DUP3 PUSH2 0x2329 JUMP JUMPDEST PUSH1 0x0 DUP9 DUP2 MSTORE PUSH1 0x13 PUSH1 0x20 MSTORE PUSH1 0x40 SWAP1 KECCAK256 PUSH1 0x3 ADD SLOAD PUSH2 0x19E2 SWAP2 SWAP1 PUSH2 0x230A JUMP JUMPDEST PUSH2 0x19EC SWAP2 SWAP1 PUSH2 0x22EA JUMP JUMPDEST PUSH1 0x0 DUP8 DUP2 MSTORE PUSH1 0x13 PUSH1 0x20 MSTORE PUSH1 0x40 SWAP1 KECCAK256 PUSH1 0x2 ADD SLOAD PUSH2 0x1A08 SWAP2 SWAP1 PUSH2 0x22D2 JUMP JUMPDEST PUSH1 0x7 SLOAD PUSH1 0x0 DUP9 DUP2 MSTORE PUSH1 0x13 PUSH1 0x20 MSTORE PUSH1 0x40 SWAP1 KECCAK256 PUSH1 0x3 ADD SLOAD SWAP2 SWAP4 POP PUSH1 0x64 SWAP2 PUSH2 0x1A2D SWAP2 SWAP1 PUSH2 0x230A JUMP JUMPDEST PUSH2 0x1A37 SWAP2 SWAP1 PUSH2 0x22EA JUMP JUMPDEST PUSH1 0x0 DUP8 DUP2 MSTORE PUSH1 0x13 PUSH1 0x20 SWAP1 DUP2 MSTORE PUSH1 0x40 DUP1 DUP4 KECCAK256 SLOAD DUP4 MSTORE PUSH1 0x10 SWAP1 SWAP2 MSTORE SWAP1 KECCAK256 PUSH1 0x1 ADD SLOAD PUSH1 0x1 PUSH1 0x1 PUSH1 0xA0 SHL SUB AND SWAP4 POP SWAP1 POP PUSH2 0x1B62 JUMP JUMPDEST PUSH1 0xC SLOAD PUSH1 0x2 EQ ISZERO PUSH2 0x1B55 JUMPI PUSH1 0x0 DUP7 DUP2 MSTORE PUSH1 0x13 PUSH1 0x20 SWAP1 DUP2 MSTORE PUSH1 0x40 DUP1 DUP4 KECCAK256 PUSH1 0x1 ADD SLOAD DUP4 MSTORE PUSH1 0x10 SWAP1 SWAP2 MSTORE SWAP1 KECCAK256 SLOAD PUSH1 0x7 SLOAD PUSH1 0x1 PUSH1 0x1 PUSH1 0xA0 SHL SUB SWAP1 SWAP2 AND SWAP5 POP PUSH1 0x64 SWAP1 PUSH2 0x1AAF SWAP1 DUP3 PUSH2 0x2329 JUMP JUMPDEST PUSH1 0x0 DUP9 DUP2 MSTORE PUSH1 0x13 PUSH1 0x20 MSTORE PUSH1 0x40 SWAP1 KECCAK256 PUSH1 0x2 ADD SLOAD PUSH2 0x1ACB SWAP2 SWAP1 PUSH2 0x230A JUMP JUMPDEST PUSH2 0x1AD5 SWAP2 SWAP1 PUSH2 0x22EA JUMP JUMPDEST PUSH1 0x0 DUP8 DUP2 MSTORE PUSH1 0x13 PUSH1 0x20 MSTORE PUSH1 0x40 SWAP1 KECCAK256 PUSH1 0x3 ADD SLOAD PUSH2 0x1AF1 SWAP2 SWAP1 PUSH2 0x22D2 JUMP JUMPDEST PUSH1 0x7 SLOAD PUSH1 0x0 DUP9 DUP2 MSTORE PUSH1 0x13 PUSH1 0x20 MSTORE PUSH1 0x40 SWAP1 KECCAK256 PUSH1 0x2 ADD SLOAD SWAP2 SWAP4 POP PUSH1 0x64 SWAP2 PUSH2 0x1B16 SWAP2 SWAP1 PUSH2 0x230A JUMP JUMPDEST PUSH2 0x1B20 SWAP2 SWAP1 PUSH2 0x22EA JUMP JUMPDEST PUSH1 0x0 DUP8 DUP2 MSTORE PUSH1 0x13 PUSH1 0x20 SWAP1 DUP2 MSTORE PUSH1 0x40 DUP1 DUP4 KECCAK256 PUSH1 0x1 SWAP1 DUP2 ADD SLOAD DUP5 MSTORE PUSH1 0x10 SWAP1 SWAP3 MSTORE SWAP1 SWAP2 KECCAK256 ADD SLOAD PUSH1 0x1 PUSH1 0x1 PUSH1 0xA0 SHL SUB AND SWAP4 POP SWAP1 POP PUSH2 0x1B62 JUMP JUMPDEST PUSH1 0x0 SWAP5 POP POP POP POP POP PUSH2 0x81A JUMP JUMPDEST PUSH1 0x1 PUSH1 0x1 PUSH1 0xA0 SHL SUB DUP5 AND PUSH1 0x0 SWAP1 DUP2 MSTORE PUSH1 0xD PUSH1 0x20 MSTORE PUSH1 0x40 DUP2 KECCAK256 DUP1 SLOAD DUP5 SWAP3 SWAP1 PUSH2 0x1B8A SWAP1 DUP5 SWAP1 PUSH2 0x22D2 JUMP JUMPDEST SWAP1 SWAP2 SSTORE POP POP PUSH1 0xA SLOAD PUSH1 0x64 SWAP1 PUSH2 0x1B9F SWAP1 DUP4 PUSH2 0x230A JUMP JUMPDEST PUSH2 0x1BA9 SWAP2 SWAP1 PUSH2 0x22EA JUMP JUMPDEST PUSH1 0x4 SLOAD PUSH1 0x1 PUSH1 0x1 PUSH1 0xA0 SHL SUB AND PUSH1 0x0 SWAP1 DUP2 MSTORE PUSH1 0xD PUSH1 0x20 MSTORE PUSH1 0x40 DUP2 KECCAK256 DUP1 SLOAD SWAP1 SWAP2 SWAP1 PUSH2 0x1BD3 SWAP1 DUP5 SWAP1 PUSH2 0x22D2 JUMP JUMPDEST SWAP1 SWAP2 SSTORE POP POP PUSH1 0x9 SLOAD PUSH1 0x64 SWAP1 PUSH2 0x1BE8 SWAP1 DUP4 PUSH2 0x230A JUMP JUMPDEST PUSH2 0x1BF2 SWAP2 SWAP1 PUSH2 0x22EA JUMP JUMPDEST PUSH1 0x5 SLOAD PUSH1 0x1 PUSH1 0x1 PUSH1 0xA0 SHL SUB AND PUSH1 0x0 SWAP1 DUP2 MSTORE PUSH1 0xD PUSH1 0x20 MSTORE PUSH1 0x40 DUP2 KECCAK256 DUP1 SLOAD SWAP1 SWAP2 SWAP1 PUSH2 0x1C1C SWAP1 DUP5 SWAP1 PUSH2 0x22D2 JUMP JUMPDEST SWAP1 SWAP2 SSTORE POP POP PUSH1 0x8 SLOAD PUSH1 0x64 SWAP1 PUSH2 0x1C31 SWAP1 DUP4 PUSH2 0x230A JUMP JUMPDEST PUSH2 0x1C3B SWAP2 SWAP1 PUSH2 0x22EA JUMP JUMPDEST PUSH1 0x1 PUSH1 0x1 PUSH1 0xA0 SHL SUB DUP5 AND PUSH1 0x0 SWAP1 DUP2 MSTORE PUSH1 0xD PUSH1 0x20 MSTORE PUSH1 0x40 DUP2 KECCAK256 DUP1 SLOAD SWAP1 SWAP2 SWAP1 PUSH2 0x1C63 SWAP1 DUP5 SWAP1 PUSH2 0x22D2 JUMP JUMPDEST SWAP1 SWAP2 SSTORE POP POP POP PUSH1 0x0 SWAP5 DUP6 MSTORE POP POP PUSH1 0x13 PUSH1 0x20 MSTORE POP POP PUSH1 0x40 DUP2 KECCAK256 PUSH1 0x4 ADD DUP1 SLOAD PUSH1 0xFF NOT AND PUSH1 0x1 SWAP1 DUP2 OR SWAP1 SWAP2 SSTORE SWAP1 DUP2 SWAP1 SSTORE SWAP1 JUMP JUMPDEST PUSH1 0x0 DUP2 DUP2 MSTORE PUSH1 0x13 PUSH1 0x20 MSTORE PUSH1 0x40 DUP2 KECCAK256 PUSH1 0x4 ADD SLOAD PUSH1 0xFF AND ISZERO PUSH2 0x1CB5 JUMPI POP PUSH1 0x0 SWAP2 SWAP1 POP JUMP JUMPDEST PUSH1 0x0 DUP3 DUP2 MSTORE PUSH1 0x13 PUSH1 0x20 SWAP1 DUP2 MSTORE PUSH1 0x40 DUP1 DUP4 KECCAK256 DUP1 SLOAD DUP5 MSTORE PUSH1 0x10 DUP4 MSTORE DUP2 DUP5 KECCAK256 SLOAD PUSH1 0x1 DUP3 ADD SLOAD DUP6 MSTORE DUP3 DUP6 KECCAK256 SLOAD PUSH1 0x2 SWAP1 SWAP3 ADD SLOAD PUSH1 0x1 PUSH1 0x1 PUSH1 0xA0 SHL SUB SWAP2 DUP3 AND DUP1 DUP8 MSTORE PUSH1 0xD SWAP1 SWAP6 MSTORE SWAP3 DUP6 KECCAK256 DUP1 SLOAD SWAP5 SWAP6 SWAP2 SWAP1 SWAP3 AND SWAP4 PUSH2 0x1D0D SWAP1 DUP5 SWAP1 PUSH2 0x22D2 JUMP JUMPDEST SWAP1 SWAP2 SSTORE POP POP PUSH1 0x0 DUP5 DUP2 MSTORE PUSH1 0x13 PUSH1 0x20 SWAP1 DUP2 MSTORE PUSH1 0x40 DUP1 DUP4 KECCAK256 PUSH1 0x3 ADD SLOAD PUSH1 0x1 PUSH1 0x1 PUSH1 0xA0 SHL SUB DUP6 AND DUP5 MSTORE PUSH1 0xD SWAP1 SWAP3 MSTORE DUP3 KECCAK256 DUP1 SLOAD SWAP2 SWAP3 SWAP1 SWAP2 PUSH2 0x1D4B SWAP1 DUP5 SWAP1 PUSH2 0x22D2 JUMP JUMPDEST SWAP1 SWAP2 SSTORE POP POP POP PUSH1 0x0 SWAP3 DUP4 MSTORE POP POP PUSH1 0x13 PUSH1 0x20 MSTORE PUSH1 0x40 SWAP1 KECCAK256 PUSH1 0x4 ADD DUP1 SLOAD PUSH1 0xFF NOT AND PUSH1 0x1 SWAP1 DUP2 OR SWAP1 SWAP2 SSTORE SWAP1 JUMP JUMPDEST PUSH1 0x0 DUP1 PUSH1 0x0 JUMPDEST PUSH1 0xE SLOAD DUP10 SWAP1 ADDRESS SWAP1 DUP4 SWAP1 PUSH2 0x1D8F SWAP1 PUSH1 0x1 PUSH2 0x22D2 JUMP JUMPDEST PUSH2 0x1D99 SWAP2 SWAP1 PUSH2 0x22D2 JUMP JUMPDEST PUSH1 0x40 MLOAD PUSH12 0xFFFFFFFFFFFFFFFFFFFFFFFF NOT PUSH1 0x60 SWAP5 DUP6 SHL DUP2 AND PUSH1 0x20 DUP4 ADD MSTORE SWAP3 SWAP1 SWAP4 SHL SWAP1 SWAP2 AND PUSH1 0x34 DUP4 ADD MSTORE PUSH1 0x48 DUP3 ADD MSTORE TIMESTAMP PUSH1 0x68 DUP3 ADD MSTORE DIFFICULTY PUSH1 0x88 DUP3 ADD MSTORE PUSH1 0xA8 ADD PUSH1 0x40 DUP1 MLOAD PUSH1 0x1F NOT DUP2 DUP5 SUB ADD DUP2 MSTORE SWAP2 DUP2 MSTORE DUP2 MLOAD PUSH1 0x20 SWAP3 DUP4 ADD KECCAK256 PUSH1 0x0 DUP2 DUP2 MSTORE PUSH1 0x10 SWAP1 SWAP4 MSTORE SWAP2 KECCAK256 PUSH1 0x2 ADD SLOAD SWAP1 SWAP3 POP PUSH2 0x1E0A JUMPI PUSH2 0x1E1C JUMP JUMPDEST DUP1 PUSH2 0x1E14 DUP2 PUSH2 0x2340 JUMP JUMPDEST SWAP2 POP POP PUSH2 0x1D7B JUMP JUMPDEST PUSH1 0x1 PUSH1 0x1 PUSH1 0xA0 SHL SUB DUP9 AND PUSH2 0x1E39 JUMPI PUSH1 0x5 SLOAD PUSH1 0x1 PUSH1 0x1 PUSH1 0xA0 SHL SUB AND SWAP8 POP JUMPDEST POP PUSH1 0x40 DUP1 MLOAD PUSH1 0xC0 DUP2 ADD DUP3 MSTORE PUSH1 0x1 PUSH1 0x1 PUSH1 0xA0 SHL SUB SWAP10 DUP11 AND DUP1 DUP3 MSTORE SWAP9 DUP11 AND PUSH1 0x20 DUP1 DUP4 ADD SWAP2 DUP3 MSTORE DUP3 DUP5 ADD SWAP10 DUP11 MSTORE PUSH1 0x60 DUP4 ADD SWAP9 DUP10 MSTORE PUSH1 0x80 DUP4 ADD SWAP8 DUP9 MSTORE PUSH1 0xA0 DUP4 ADD SWAP7 DUP8 MSTORE PUSH1 0x0 DUP6 DUP2 MSTORE PUSH1 0x10 DUP3 MSTORE DUP5 DUP2 KECCAK256 SWAP4 MLOAD DUP5 SLOAD SWAP1 DUP15 AND PUSH1 0x1 PUSH1 0x1 PUSH1 0xA0 SHL SUB NOT SWAP2 DUP3 AND OR DUP6 SSTORE SWAP3 MLOAD PUSH1 0x1 DUP1 DUP7 ADD DUP1 SLOAD SWAP3 SWAP1 SWAP16 AND SWAP2 SWAP1 SWAP5 AND OR SWAP1 SWAP13 SSTORE SWAP9 MLOAD PUSH1 0x2 DUP4 ADD SSTORE SWAP7 MLOAD PUSH1 0x3 DUP3 ADD SSTORE SWAP5 MLOAD PUSH1 0x4 DUP7 ADD SSTORE SWAP3 MLOAD PUSH1 0x5 SWAP1 SWAP5 ADD SWAP4 SWAP1 SWAP4 SSTORE POP PUSH1 0xE DUP1 SLOAD DUP1 DUP6 ADD SWAP1 SWAP2 SSTORE PUSH32 0xBB7B4A454DC3493923482F07822329ED19E8244EFF582CC204F8554C3620C3FD ADD DUP3 SWAP1 SSTORE SWAP4 DUP6 MSTORE PUSH1 0xF DUP4 MSTORE SWAP3 DUP5 KECCAK256 DUP1 SLOAD SWAP2 DUP3 ADD DUP2 SSTORE DUP5 MSTORE SWAP3 KECCAK256 SWAP1 SWAP2 ADD DUP2 SWAP1 SSTORE SWAP1 JUMP JUMPDEST PUSH1 0x0 DUP1 PUSH1 0x0 DUP1 DUP10 DUP10 GT PUSH2 0x1F87 JUMPI DUP9 SWAP3 POP PUSH2 0x1F38 PUSH1 0x64 DUP10 PUSH2 0x2329 JUMP JUMPDEST PUSH2 0x1F42 SWAP1 DUP11 PUSH2 0x230A JUMP JUMPDEST SWAP2 POP PUSH2 0x1F4F PUSH1 0x64 DUP4 PUSH2 0x22EA JUMP JUMPDEST SWAP2 POP DUP7 PUSH1 0x1 EQ ISZERO PUSH2 0x1F6D JUMPI PUSH2 0x1F66 DUP7 DUP7 DUP6 DUP6 PUSH2 0x206B JUMP JUMPDEST SWAP1 POP PUSH2 0x1FDB JUMP JUMPDEST DUP7 PUSH1 0x2 EQ ISZERO PUSH2 0x1F82 JUMPI PUSH2 0x1F66 DUP6 DUP8 DUP5 DUP7 PUSH2 0x206B JUMP JUMPDEST PUSH2 0x1FDB JUMP JUMPDEST DUP10 SWAP3 POP PUSH2 0x1F95 PUSH1 0x64 DUP10 PUSH2 0x2329 JUMP JUMPDEST PUSH2 0x1F9F SWAP1 DUP12 PUSH2 0x230A JUMP JUMPDEST SWAP2 POP PUSH2 0x1FAC PUSH1 0x64 DUP4 PUSH2 0x22EA JUMP JUMPDEST SWAP2 POP DUP7 PUSH1 0x1 EQ ISZERO PUSH2 0x1FC3 JUMPI PUSH2 0x1F66 DUP7 DUP7 DUP6 DUP6 PUSH2 0x206B JUMP JUMPDEST DUP7 PUSH1 0x2 EQ ISZERO PUSH2 0x1FDB JUMPI PUSH2 0x1FD8 DUP6 DUP8 DUP5 DUP7 PUSH2 0x206B JUMP JUMPDEST SWAP1 POP JUMPDEST PUSH1 0x0 DUP7 DUP2 MSTORE PUSH1 0x12 PUSH1 0x20 SWAP1 DUP2 MSTORE PUSH1 0x40 DUP1 DUP4 KECCAK256 DUP1 SLOAD PUSH1 0x1 DUP2 DUP2 ADD DUP4 SSTORE SWAP2 DUP6 MSTORE DUP4 DUP6 KECCAK256 ADD DUP6 SWAP1 SSTORE DUP9 DUP5 MSTORE DUP2 DUP5 KECCAK256 DUP1 SLOAD SWAP2 DUP3 ADD DUP2 SSTORE DUP5 MSTORE DUP3 DUP5 KECCAK256 ADD DUP5 SWAP1 SSTORE DUP9 DUP4 MSTORE PUSH1 0x10 SWAP1 SWAP2 MSTORE DUP2 KECCAK256 PUSH1 0x3 ADD DUP1 SLOAD DUP6 SWAP3 SWAP1 PUSH2 0x2032 SWAP1 DUP5 SWAP1 PUSH2 0x22D2 JUMP JUMPDEST SWAP1 SWAP2 SSTORE POP POP PUSH1 0x0 DUP6 DUP2 MSTORE PUSH1 0x10 PUSH1 0x20 MSTORE PUSH1 0x40 DUP2 KECCAK256 PUSH1 0x3 ADD DUP1 SLOAD DUP5 SWAP3 SWAP1 PUSH2 0x2058 SWAP1 DUP5 SWAP1 PUSH2 0x22D2 JUMP JUMPDEST SWAP1 SWAP2 SSTORE POP SWAP3 SWAP11 SWAP10 POP POP POP POP POP POP POP POP POP POP JUMP JUMPDEST PUSH1 0x0 DUP1 PUSH1 0x0 JUMPDEST PUSH1 0x11 SLOAD DUP8 SWAP1 DUP8 SWAP1 DUP4 SWAP1 PUSH2 0x2085 SWAP1 PUSH1 0x1 PUSH2 0x22D2 JUMP JUMPDEST PUSH2 0x208F SWAP2 SWAP1 PUSH2 0x22D2 JUMP JUMPDEST PUSH1 0x40 DUP1 MLOAD PUSH1 0x20 DUP2 ADD SWAP5 SWAP1 SWAP5 MSTORE DUP4 ADD SWAP2 SWAP1 SWAP2 MSTORE PUSH1 0x60 DUP3 ADD MSTORE TIMESTAMP PUSH1 0x80 DUP3 ADD MSTORE DIFFICULTY PUSH1 0xA0 DUP3 ADD MSTORE PUSH1 0xC0 ADD PUSH1 0x40 DUP1 MLOAD PUSH1 0x1F NOT DUP2 DUP5 SUB ADD DUP2 MSTORE SWAP2 DUP2 MSTORE DUP2 MLOAD PUSH1 0x20 SWAP3 DUP4 ADD KECCAK256 PUSH1 0x0 DUP2 DUP2 MSTORE PUSH1 0x13 SWAP1 SWAP4 MSTORE SWAP2 KECCAK256 PUSH1 0x2 ADD SLOAD SWAP1 SWAP3 POP PUSH2 0x20E9 JUMPI PUSH2 0x20FB JUMP JUMPDEST DUP1 PUSH2 0x20F3 DUP2 PUSH2 0x2340 JUMP JUMPDEST SWAP2 POP POP PUSH2 0x2071 JUMP JUMPDEST POP PUSH1 0x40 DUP1 MLOAD PUSH1 0xA0 DUP2 ADD DUP3 MSTORE SWAP7 DUP8 MSTORE PUSH1 0x20 DUP1 DUP9 ADD SWAP7 DUP8 MSTORE DUP8 DUP3 ADD SWAP6 DUP7 MSTORE PUSH1 0x60 DUP9 ADD SWAP5 DUP6 MSTORE PUSH1 0x0 PUSH1 0x80 DUP10 ADD DUP2 DUP2 MSTORE DUP5 DUP3 MSTORE PUSH1 0x13 SWAP1 SWAP3 MSTORE SWAP2 DUP3 KECCAK256 SWAP8 MLOAD DUP9 SSTORE SWAP6 MLOAD PUSH1 0x1 DUP1 DUP10 ADD SWAP2 SWAP1 SWAP2 SSTORE SWAP5 MLOAD PUSH1 0x2 DUP9 ADD SSTORE SWAP3 MLOAD PUSH1 0x3 DUP8 ADD SSTORE SWAP4 MLOAD PUSH1 0x4 SWAP1 SWAP6 ADD DUP1 SLOAD PUSH1 0xFF NOT AND SWAP6 ISZERO ISZERO SWAP6 SWAP1 SWAP6 OR SWAP1 SWAP5 SSTORE PUSH1 0x11 DUP1 SLOAD SWAP3 DUP4 ADD DUP2 SSTORE SWAP1 MSTORE PUSH32 0x31ECC21A745E3968A04E9570E4425BC18FA8019C68028196B546D1669C200C68 ADD DUP2 SWAP1 SSTORE SWAP2 SWAP1 POP JUMP JUMPDEST DUP1 CALLDATALOAD PUSH1 0x1 PUSH1 0x1 PUSH1 0xA0 SHL SUB DUP2 AND DUP2 EQ PUSH2 0xB70 JUMPI PUSH1 0x0 DUP1 REVERT JUMPDEST PUSH1 0x0 PUSH1 0x20 DUP3 DUP5 SUB SLT ISZERO PUSH2 0x21C3 JUMPI DUP1 DUP2 REVERT JUMPDEST PUSH2 0x21CC DUP3 PUSH2 0x219B JUMP JUMPDEST SWAP4 SWAP3 POP POP POP JUMP JUMPDEST PUSH1 0x0 DUP1 PUSH1 0x0 DUP1 PUSH1 0x0 PUSH1 0xA0 DUP7 DUP9 SUB SLT ISZERO PUSH2 0x21EA JUMPI DUP1 DUP2 REVERT JUMPDEST PUSH2 0x21F3 DUP7 PUSH2 0x219B JUMP JUMPDEST SWAP5 POP PUSH1 0x20 DUP7 ADD CALLDATALOAD SWAP4 POP PUSH1 0x40 DUP7 ADD CALLDATALOAD SWAP3 POP PUSH1 0x60 DUP7 ADD CALLDATALOAD SWAP2 POP PUSH1 0x80 DUP7 ADD CALLDATALOAD PUSH2 0x2218 DUP2 PUSH2 0x2371 JUMP JUMPDEST DUP1 SWAP2 POP POP SWAP3 SWAP6 POP SWAP3 SWAP6 SWAP1 SWAP4 POP JUMP JUMPDEST PUSH1 0x0 PUSH1 0x20 DUP3 DUP5 SUB SLT ISZERO PUSH2 0x2237 JUMPI DUP1 DUP2 REVERT JUMPDEST DUP2 MLOAD PUSH2 0x21CC DUP2 PUSH2 0x2371 JUMP JUMPDEST PUSH1 0x0 PUSH1 0x20 DUP3 DUP5 SUB SLT ISZERO PUSH2 0x2253 JUMPI DUP1 DUP2 REVERT JUMPDEST POP CALLDATALOAD SWAP2 SWAP1 POP JUMP JUMPDEST PUSH1 0x0 PUSH1 0x20 DUP3 DUP5 SUB SLT ISZERO PUSH2 0x226B JUMPI DUP1 DUP2 REVERT JUMPDEST POP MLOAD SWAP2 SWAP1 POP JUMP JUMPDEST PUSH1 0x20 DUP1 DUP3 MSTORE DUP3 MLOAD DUP3 DUP3 ADD DUP2 SWAP1 MSTORE PUSH1 0x0 SWAP2 SWAP1 DUP5 DUP3 ADD SWAP1 PUSH1 0x40 DUP6 ADD SWAP1 DUP5 JUMPDEST DUP2 DUP2 LT ISZERO PUSH2 0x22AA JUMPI DUP4 MLOAD DUP4 MSTORE SWAP3 DUP5 ADD SWAP3 SWAP2 DUP5 ADD SWAP2 PUSH1 0x1 ADD PUSH2 0x228E JUMP JUMPDEST POP SWAP1 SWAP7 SWAP6 POP POP POP POP POP POP JUMP JUMPDEST PUSH1 0x20 DUP1 DUP3 MSTORE PUSH1 0x2 SWAP1 DUP3 ADD MSTORE PUSH2 0x2699 PUSH1 0xF1 SHL PUSH1 0x40 DUP3 ADD MSTORE PUSH1 0x60 ADD SWAP1 JUMP JUMPDEST PUSH1 0x0 DUP3 NOT DUP3 GT ISZERO PUSH2 0x22E5 JUMPI PUSH2 0x22E5 PUSH2 0x235B JUMP JUMPDEST POP ADD SWAP1 JUMP JUMPDEST PUSH1 0x0 DUP3 PUSH2 0x2305 JUMPI PUSH4 0x4E487B71 PUSH1 0xE0 SHL DUP2 MSTORE PUSH1 0x12 PUSH1 0x4 MSTORE PUSH1 0x24 DUP2 REVERT JUMPDEST POP DIV SWAP1 JUMP JUMPDEST PUSH1 0x0 DUP2 PUSH1 0x0 NOT DIV DUP4 GT DUP3 ISZERO ISZERO AND ISZERO PUSH2 0x2324 JUMPI PUSH2 0x2324 PUSH2 0x235B JUMP JUMPDEST POP MUL SWAP1 JUMP JUMPDEST PUSH1 0x0 DUP3 DUP3 LT ISZERO PUSH2 0x233B JUMPI PUSH2 0x233B PUSH2 0x235B JUMP JUMPDEST POP SUB SWAP1 JUMP JUMPDEST PUSH1 0x0 PUSH1 0x0 NOT DUP3 EQ ISZERO PUSH2 0x2354 JUMPI PUSH2 0x2354 PUSH2 0x235B JUMP JUMPDEST POP PUSH1 0x1 ADD SWAP1 JUMP JUMPDEST PUSH4 0x4E487B71 PUSH1 0xE0 SHL PUSH1 0x0 MSTORE PUSH1 0x11 PUSH1 0x4 MSTORE PUSH1 0x24 PUSH1 0x0 REVERT JUMPDEST DUP1 ISZERO ISZERO DUP2 EQ PUSH2 0x467 JUMPI PUSH1 0x0 DUP1 REVERT INVALID LOG2 PUSH5 0x6970667358 0x22 SLT KECCAK256 PUSH8 0xE6DA4005B040A9F0 CALLER SWAP3 POP MULMOD 0xE8 PUSH32 0x76D422F9DAB3EF11E233F20C8F851E9EB864736F6C6343000804003300000000 "
				},
				"gasEstimates": {
					"creation": {
						"codeDepositCost": "1828200",
						"executionCost": "infinite",
						"totalCost": "infinite"
					},
					"external": {
						"addBet(address,uint256,uint256,uint256,bool)": "infinite",
						"cancel()": "23650",
						"cancelBet(bytes32)": "infinite",
						"cancelPlusPairs()": "infinite",
						"getBalance(address)": "1336",
						"getBet(bytes32)": "5771",
						"getBetPairs(bytes32)": "infinite",
						"getBets()": "infinite",
						"getPair(bytes32)": "4806",
						"getPairs()": "infinite",
						"getUserBets(address)": "infinite",
						"setWinningSide(uint256)": "25416",
						"settle(uint256)": "infinite",
						"settleBet(bytes32)": "infinite",
						"status()": "1008",
						"stopNewBet()": "22817",
						"withdraw(address)": "infinite",
						"withdrawPending(bytes32)": "infinite"
					},
					"internal": {
						"_cancelBetPairs(bytes32)": "infinite",
						"_cancelPair(bytes32)": "infinite",
						"_createBet(address,address,uint256,uint256,uint256,uint256)": "infinite",
						"_createPair(bytes32,bytes32,uint256,uint256)": "infinite",
						"_match(uint256,uint256,uint256,uint256,bytes32,bytes32)": "infinite",
						"_settlePair(bytes32)": "infinite"
					}
				},
				"methodIdentifiers": {
					"addBet(address,uint256,uint256,uint256,bool)": "ba8006c6",
					"cancel()": "ea8a1af0",
					"cancelBet(bytes32)": "2940ff1e",
					"cancelPlusPairs()": "ae8cd090",
					"getBalance(address)": "f8b2cb4f",
					"getBet(bytes32)": "37e8c09e",
					"getBetPairs(bytes32)": "25c22a45",
					"getBets()": "a6afd5fd",
					"getPair(bytes32)": "b8e5303d",
					"getPairs()": "767eb5ef",
					"getUserBets(address)": "2d56657d",
					"setWinningSide(uint256)": "d0ed7295",
					"settle(uint256)": "8df82800",
					"settleBet(bytes32)": "675f6537",
					"status()": "200d2ed2",
					"stopNewBet()": "6bef0267",
					"withdraw(address)": "51cff8d9",
					"withdrawPending(bytes32)": "7d7f9232"
				}
			},
			"storageLayout": {
				"storage": [
					{
						"astId": 10,
						"contract": "contracts/Market.sol:Market",
						"label": "_status",
						"offset": 0,
						"slot": "0",
						"type": "t_uint256"
					},
					{
						"astId": 129,
						"contract": "contracts/Market.sol:Market",
						"label": "a",
						"offset": 0,
						"slot": "1",
						"type": "t_struct(App)2099_storage"
					},
					{
						"astId": 139,
						"contract": "contracts/Market.sol:Market",
						"label": "app",
						"offset": 0,
						"slot": "11",
						"type": "t_contract(IWeb3BetsFO)2076"
					},
					{
						"astId": 142,
						"contract": "contracts/Market.sol:Market",
						"label": "status",
						"offset": 0,
						"slot": "12",
						"type": "t_uint256"
					},
					{
						"astId": 146,
						"contract": "contracts/Market.sol:Market",
						"label": "bal",
						"offset": 0,
						"slot": "13",
						"type": "t_mapping(t_address,t_uint256)"
					},
					{
						"astId": 149,
						"contract": "contracts/Market.sol:Market",
						"label": "bets",
						"offset": 0,
						"slot": "14",
						"type": "t_array(t_bytes32)dyn_storage"
					},
					{
						"astId": 154,
						"contract": "contracts/Market.sol:Market",
						"label": "userBets",
						"offset": 0,
						"slot": "15",
						"type": "t_mapping(t_address,t_array(t_bytes32)dyn_storage)"
					},
					{
						"astId": 159,
						"contract": "contracts/Market.sol:Market",
						"label": "betsInfo",
						"offset": 0,
						"slot": "16",
						"type": "t_mapping(t_bytes32,t_struct(MarketBet)2112_storage)"
					},
					{
						"astId": 162,
						"contract": "contracts/Market.sol:Market",
						"label": "pairs",
						"offset": 0,
						"slot": "17",
						"type": "t_array(t_bytes32)dyn_storage"
					},
					{
						"astId": 167,
						"contract": "contracts/Market.sol:Market",
						"label": "betPairs",
						"offset": 0,
						"slot": "18",
						"type": "t_mapping(t_bytes32,t_array(t_bytes32)dyn_storage)"
					},
					{
						"astId": 172,
						"contract": "contracts/Market.sol:Market",
						"label": "pairsInfo",
						"offset": 0,
						"slot": "19",
						"type": "t_mapping(t_bytes32,t_struct(MarketPair)2123_storage)"
					}
				],
				"types": {
					"t_address": {
						"encoding": "inplace",
						"label": "address",
						"numberOfBytes": "20"
					},
					"t_array(t_bytes32)dyn_storage": {
						"base": "t_bytes32",
						"encoding": "dynamic_array",
						"label": "bytes32[]",
						"numberOfBytes": "32"
					},
					"t_bool": {
						"encoding": "inplace",
						"label": "bool",
						"numberOfBytes": "1"
					},
					"t_bytes32": {
						"encoding": "inplace",
						"label": "bytes32",
						"numberOfBytes": "32"
					},
					"t_contract(IWeb3BetsFO)2076": {
						"encoding": "inplace",
						"label": "contract IWeb3BetsFO",
						"numberOfBytes": "20"
					},
					"t_mapping(t_address,t_array(t_bytes32)dyn_storage)": {
						"encoding": "mapping",
						"key": "t_address",
						"label": "mapping(address => bytes32[])",
						"numberOfBytes": "32",
						"value": "t_array(t_bytes32)dyn_storage"
					},
					"t_mapping(t_address,t_uint256)": {
						"encoding": "mapping",
						"key": "t_address",
						"label": "mapping(address => uint256)",
						"numberOfBytes": "32",
						"value": "t_uint256"
					},
					"t_mapping(t_bytes32,t_array(t_bytes32)dyn_storage)": {
						"encoding": "mapping",
						"key": "t_bytes32",
						"label": "mapping(bytes32 => bytes32[])",
						"numberOfBytes": "32",
						"value": "t_array(t_bytes32)dyn_storage"
					},
					"t_mapping(t_bytes32,t_struct(MarketBet)2112_storage)": {
						"encoding": "mapping",
						"key": "t_bytes32",
						"label": "mapping(bytes32 => struct Struct.MarketBet)",
						"numberOfBytes": "32",
						"value": "t_struct(MarketBet)2112_storage"
					},
					"t_mapping(t_bytes32,t_struct(MarketPair)2123_storage)": {
						"encoding": "mapping",
						"key": "t_bytes32",
						"label": "mapping(bytes32 => struct Struct.MarketPair)",
						"numberOfBytes": "32",
						"value": "t_struct(MarketPair)2123_storage"
					},
					"t_struct(App)2099_storage": {
						"encoding": "inplace",
						"label": "struct Struct.App",
						"members": [
							{
								"astId": 2080,
								"contract": "contracts/Market.sol:Market",
								"label": "eventHash",
								"offset": 0,
								"slot": "0",
								"type": "t_bytes32"
							},
							{
								"astId": 2082,
								"contract": "contracts/Market.sol:Market",
								"label": "factory",
								"offset": 0,
								"slot": "1",
								"type": "t_address"
							},
							{
								"astId": 2084,
								"contract": "contracts/Market.sol:Market",
								"label": "eventOwner",
								"offset": 0,
								"slot": "2",
								"type": "t_address"
							},
							{
								"astId": 2086,
								"contract": "contracts/Market.sol:Market",
								"label": "holdAddr",
								"offset": 0,
								"slot": "3",
								"type": "t_address"
							},
							{
								"astId": 2088,
								"contract": "contracts/Market.sol:Market",
								"label": "ecoAddr",
								"offset": 0,
								"slot": "4",
								"type": "t_address"
							},
							{
								"astId": 2090,
								"contract": "contracts/Market.sol:Market",
								"label": "minStake",
								"offset": 0,
								"slot": "5",
								"type": "t_uint256"
							},
							{
								"astId": 2092,
								"contract": "contracts/Market.sol:Market",
								"label": "vig",
								"offset": 0,
								"slot": "6",
								"type": "t_uint256"
							},
							{
								"astId": 2094,
								"contract": "contracts/Market.sol:Market",
								"label": "aVig",
								"offset": 0,
								"slot": "7",
								"type": "t_uint256"
							},
							{
								"astId": 2096,
								"contract": "contracts/Market.sol:Market",
								"label": "eVig",
								"offset": 0,
								"slot": "8",
								"type": "t_uint256"
							},
							{
								"astId": 2098,
								"contract": "contracts/Market.sol:Market",
								"label": "hVig",
								"offset": 0,
								"slot": "9",
								"type": "t_uint256"
							}
						],
						"numberOfBytes": "320"
					},
					"t_struct(MarketBet)2112_storage": {
						"encoding": "inplace",
						"label": "struct Struct.MarketBet",
						"members": [
							{
								"astId": 2101,
								"contract": "contracts/Market.sol:Market",
								"label": "better",
								"offset": 0,
								"slot": "0",
								"type": "t_address"
							},
							{
								"astId": 2103,
								"contract": "contracts/Market.sol:Market",
								"label": "affiliate",
								"offset": 0,
								"slot": "1",
								"type": "t_address"
							},
							{
								"astId": 2105,
								"contract": "contracts/Market.sol:Market",
								"label": "stake",
								"offset": 0,
								"slot": "2",
								"type": "t_uint256"
							},
							{
								"astId": 2107,
								"contract": "contracts/Market.sol:Market",
								"label": "matched",
								"offset": 0,
								"slot": "3",
								"type": "t_uint256"
							},
							{
								"astId": 2109,
								"contract": "contracts/Market.sol:Market",
								"label": "odds",
								"offset": 0,
								"slot": "4",
								"type": "t_uint256"
							},
							{
								"astId": 2111,
								"contract": "contracts/Market.sol:Market",
								"label": "side",
								"offset": 0,
								"slot": "5",
								"type": "t_uint256"
							}
						],
						"numberOfBytes": "192"
					},
					"t_struct(MarketPair)2123_storage": {
						"encoding": "inplace",
						"label": "struct Struct.MarketPair",
						"members": [
							{
								"astId": 2114,
								"contract": "contracts/Market.sol:Market",
								"label": "betHashA",
								"offset": 0,
								"slot": "0",
								"type": "t_bytes32"
							},
							{
								"astId": 2116,
								"contract": "contracts/Market.sol:Market",
								"label": "betHashB",
								"offset": 0,
								"slot": "1",
								"type": "t_bytes32"
							},
							{
								"astId": 2118,
								"contract": "contracts/Market.sol:Market",
								"label": "amountA",
								"offset": 0,
								"slot": "2",
								"type": "t_uint256"
							},
							{
								"astId": 2120,
								"contract": "contracts/Market.sol:Market",
								"label": "amountB",
								"offset": 0,
								"slot": "3",
								"type": "t_uint256"
							},
							{
								"astId": 2122,
								"contract": "contracts/Market.sol:Market",
								"label": "settled",
								"offset": 0,
								"slot": "4",
								"type": "t_bool"
							}
						],
						"numberOfBytes": "160"
					},
					"t_uint256": {
						"encoding": "inplace",
						"label": "uint256",
						"numberOfBytes": "32"
					}
				}
			},
			"userdoc": {
				"kind": "user",
				"methods": {},
				"version": 1
			}
		}
	}
}