{
	"contracts/Market.sol": {
		"Market": {
			"abi": [
				{
					"inputs": [],
					"stateMutability": "nonpayable",
					"type": "constructor"
				},
				{
					"anonymous": false,
					"inputs": [
						{
							"indexed": false,
							"internalType": "address",
							"name": "better",
							"type": "address"
						},
						{
							"indexed": false,
							"internalType": "address",
							"name": "marketAddr",
							"type": "address"
						},
						{
							"indexed": false,
							"internalType": "bytes32",
							"name": "hash",
							"type": "bytes32"
						},
						{
							"indexed": false,
							"internalType": "uint256",
							"name": "stake",
							"type": "uint256"
						},
						{
							"indexed": false,
							"internalType": "uint256",
							"name": "odds",
							"type": "uint256"
						},
						{
							"indexed": false,
							"internalType": "uint256",
							"name": "side",
							"type": "uint256"
						}
					],
					"name": "BetCreated",
					"type": "event"
				},
				{
					"anonymous": false,
					"inputs": [
						{
							"indexed": false,
							"internalType": "bytes32",
							"name": "betHashA",
							"type": "bytes32"
						},
						{
							"indexed": false,
							"internalType": "bytes32",
							"name": "betHashB",
							"type": "bytes32"
						},
						{
							"indexed": false,
							"internalType": "uint256",
							"name": "amountA",
							"type": "uint256"
						},
						{
							"indexed": false,
							"internalType": "uint256",
							"name": "amountB",
							"type": "uint256"
						}
					],
					"name": "PairCreated",
					"type": "event"
				},
				{
					"inputs": [
						{
							"internalType": "address",
							"name": "_better",
							"type": "address"
						},
						{
							"internalType": "address",
							"name": "_affiliate",
							"type": "address"
						},
						{
							"internalType": "uint256",
							"name": "_stake",
							"type": "uint256"
						},
						{
							"internalType": "uint256",
							"name": "_odds",
							"type": "uint256"
						},
						{
							"internalType": "uint256",
							"name": "_side",
							"type": "uint256"
						},
						{
							"internalType": "bool",
							"name": "_instant",
							"type": "bool"
						}
					],
					"name": "addBet",
					"outputs": [
						{
							"internalType": "bytes32",
							"name": "",
							"type": "bytes32"
						}
					],
					"stateMutability": "nonpayable",
					"type": "function"
				},
				{
					"inputs": [],
					"name": "cancelMarket",
					"outputs": [
						{
							"internalType": "bool",
							"name": "",
							"type": "bool"
						}
					],
					"stateMutability": "nonpayable",
					"type": "function"
				},
				{
					"inputs": [
						{
							"internalType": "bytes32",
							"name": "_bet",
							"type": "bytes32"
						}
					],
					"name": "cancelPending",
					"outputs": [],
					"stateMutability": "nonpayable",
					"type": "function"
				},
				{
					"inputs": [
						{
							"internalType": "address",
							"name": "_user",
							"type": "address"
						}
					],
					"name": "getBalance",
					"outputs": [
						{
							"internalType": "uint256",
							"name": "",
							"type": "uint256"
						}
					],
					"stateMutability": "view",
					"type": "function"
				},
				{
					"inputs": [
						{
							"internalType": "address",
							"name": "_user",
							"type": "address"
						}
					],
					"name": "getUserBets",
					"outputs": [
						{
							"components": [
								{
									"internalType": "address",
									"name": "better",
									"type": "address"
								},
								{
									"internalType": "address",
									"name": "affiliate",
									"type": "address"
								},
								{
									"internalType": "uint256",
									"name": "stake",
									"type": "uint256"
								},
								{
									"internalType": "uint256",
									"name": "matched",
									"type": "uint256"
								},
								{
									"internalType": "uint256",
									"name": "odds",
									"type": "uint256"
								},
								{
									"internalType": "uint256",
									"name": "side",
									"type": "uint256"
								}
							],
							"internalType": "struct IMarket.MarketBet[]",
							"name": "",
							"type": "tuple[]"
						}
					],
					"stateMutability": "view",
					"type": "function"
				},
				{
					"inputs": [
						{
							"internalType": "uint256",
							"name": "_winningSide",
							"type": "uint256"
						}
					],
					"name": "settle",
					"outputs": [
						{
							"internalType": "bool",
							"name": "",
							"type": "bool"
						}
					],
					"stateMutability": "nonpayable",
					"type": "function"
				},
				{
					"inputs": [
						{
							"internalType": "bytes32",
							"name": "_bet",
							"type": "bytes32"
						}
					],
					"name": "settleBet",
					"outputs": [],
					"stateMutability": "nonpayable",
					"type": "function"
				},
				{
					"inputs": [],
					"name": "start",
					"outputs": [],
					"stateMutability": "nonpayable",
					"type": "function"
				},
				{
					"inputs": [],
					"name": "status",
					"outputs": [
						{
							"internalType": "uint256",
							"name": "",
							"type": "uint256"
						}
					],
					"stateMutability": "view",
					"type": "function"
				},
				{
					"inputs": [
						{
							"internalType": "address",
							"name": "_addr",
							"type": "address"
						}
					],
					"name": "withdraw",
					"outputs": [
						{
							"internalType": "bool",
							"name": "",
							"type": "bool"
						}
					],
					"stateMutability": "nonpayable",
					"type": "function"
				}
			],
			"devdoc": {
				"kind": "dev",
				"methods": {},
				"version": 1
			},
			"evm": {
				"assembly": "    /* \"contracts/Market.sol\":194:11512  contract Market is IMarket, ReentrancyGuard {... */\n  mstore(0x40, 0xc0)\n    /* \"contracts/Market.sol\":412:413  0 */\n  0x00\n    /* \"contracts/Market.sol\":379:413  uint256 public override status = 0 */\n  0x02\n  sstore\n    /* \"contracts/Market.sol\":1165:1172  factory */\n  and(sub(shl(0xa0, 0x01), 0x01), sload(0x01))\n    /* \"contracts/Market.sol\":1117:1173  IWeb3BetsFO immutable private app = IWeb3BetsFO(factory) */\n  0xa0\n  mstore\n    /* \"contracts/Market.sol\":1609:1715  constructor() {... */\n  callvalue\n  dup1\n  iszero\n  tag_1\n  jumpi\n  0x00\n  dup1\n  revert\ntag_1:\n  pop\n    /* \"@openzeppelin/contracts/security/ReentrancyGuard.sol\":1701:1702  1 */\n  0x01\n    /* \"@openzeppelin/contracts/security/ReentrancyGuard.sol\":1806:1813  _status */\n  0x00\n    /* \"@openzeppelin/contracts/security/ReentrancyGuard.sol\":1806:1828  _status = _NOT_ENTERED */\n  dup2\n  swap1\n  sstore\n    /* \"contracts/Market.sol\":1633:1653  factory = msg.sender */\n  dup1\n  sload\n  not(sub(shl(0xa0, 0x01), 0x01))\n  and\n    /* \"contracts/Market.sol\":1643:1653  msg.sender */\n  caller\n    /* \"contracts/Market.sol\":1633:1653  factory = msg.sender */\n  swap1\n  dup2\n  or\n  swap1\n  swap2\n  sstore\n    /* \"contracts/Market.sol\":1678:1707  IWeb3BetsFO(factory).scAddr() */\n  0x40\n  dup1\n  mload\n  shl(0xe3, 0x966ed9)\n  dup2\n  mstore\n  swap1\n  mload\n    /* \"contracts/Market.sol\":1678:1705  IWeb3BetsFO(factory).scAddr */\n  0x04b376c8\n  swap2\n    /* \"contracts/Market.sol\":1678:1707  IWeb3BetsFO(factory).scAddr() */\n  0x04\n  dup1\n  dup3\n  add\n  swap3\n  0x20\n  swap3\n  swap1\n  swap2\n  swap1\n  dup3\n  swap1\n  sub\n  add\n  dup2\n    /* \"contracts/Market.sol\":1643:1653  msg.sender */\n  dup7\n    /* \"contracts/Market.sol\":1678:1707  IWeb3BetsFO(factory).scAddr() */\n  gas\n  staticcall\n  iszero\n  dup1\n  iszero\n  tag_7\n  jumpi\n  returndatasize\n  0x00\n  dup1\n  returndatacopy\n  revert(0x00, returndatasize)\ntag_7:\n  pop\n  pop\n  pop\n  pop\n  mload(0x40)\n  returndatasize\n  not(0x1f)\n  0x1f\n  dup3\n  add\n  and\n  dup3\n  add\n  dup1\n  0x40\n  mstore\n  pop\n  dup2\n  add\n  swap1\n  tag_8\n  swap2\n  swap1\n  tag_9\n  jump\t// in\ntag_8:\n  sub(shl(0xa0, 0x01), 0x01)\n    /* \"contracts/Market.sol\":1663:1708  token = IERC20(IWeb3BetsFO(factory).scAddr()) */\n  and\n  0x80\n  mstore\n    /* \"contracts/Market.sol\":194:11512  contract Market is IMarket, ReentrancyGuard {... */\n  jump(tag_11)\n    /* \"#utility.yul\":14:304   */\ntag_9:\n    /* \"#utility.yul\":84:90   */\n  0x00\n    /* \"#utility.yul\":137:139   */\n  0x20\n    /* \"#utility.yul\":125:134   */\n  dup3\n    /* \"#utility.yul\":116:123   */\n  dup5\n    /* \"#utility.yul\":112:135   */\n  sub\n    /* \"#utility.yul\":108:140   */\n  slt\n    /* \"#utility.yul\":105:157   */\n  iszero\n  tag_13\n  jumpi\n    /* \"#utility.yul\":153:154   */\n  0x00\n    /* \"#utility.yul\":150:151   */\n  dup1\n    /* \"#utility.yul\":143:155   */\n  revert\n    /* \"#utility.yul\":105:157   */\ntag_13:\n    /* \"#utility.yul\":179:195   */\n  dup2\n  mload\n  sub(shl(0xa0, 0x01), 0x01)\n    /* \"#utility.yul\":224:255   */\n  dup2\n  and\n    /* \"#utility.yul\":214:256   */\n  dup2\n  eq\n    /* \"#utility.yul\":204:274   */\n  tag_14\n  jumpi\n    /* \"#utility.yul\":270:271   */\n  0x00\n    /* \"#utility.yul\":267:268   */\n  dup1\n    /* \"#utility.yul\":260:272   */\n  revert\n    /* \"#utility.yul\":204:274   */\ntag_14:\n    /* \"#utility.yul\":293:298   */\n  swap4\n    /* \"#utility.yul\":14:304   */\n  swap3\n  pop\n  pop\n  pop\n  jump\t// out\ntag_11:\n    /* \"contracts/Market.sol\":194:11512  contract Market is IMarket, ReentrancyGuard {... */\n  mload(0x80)\n  mload(0xa0)\n  codecopy(0x00, dataOffset(sub_0), dataSize(sub_0))\n  0x00\n  assignImmutable(\"0xa4f21281edf90d86f21da3432ee4f5dff8abfbde6aab55afd7f9f7d4d3676c77\")\n  0x00\n  assignImmutable(\"0xb82efe928ba8047fc73c44199ae87270ba92aad773ed77645c6bc82e384fdb71\")\n  return(0x00, dataSize(sub_0))\nstop\n\nsub_0: assembly {\n        /* \"contracts/Market.sol\":194:11512  contract Market is IMarket, ReentrancyGuard {... */\n      mstore(0x40, 0x80)\n      callvalue\n      dup1\n      iszero\n      tag_1\n      jumpi\n      0x00\n      dup1\n      revert\n    tag_1:\n      pop\n      jumpi(tag_2, lt(calldatasize, 0x04))\n      shr(0xe0, calldataload(0x00))\n      dup1\n      0x78d65b2f\n      gt\n      tag_13\n      jumpi\n      dup1\n      0x78d65b2f\n      eq\n      tag_8\n      jumpi\n      dup1\n      0x893372ca\n      eq\n      tag_9\n      jumpi\n      dup1\n      0x8df82800\n      eq\n      tag_10\n      jumpi\n      dup1\n      0xbe9a6555\n      eq\n      tag_11\n      jumpi\n      dup1\n      0xf8b2cb4f\n      eq\n      tag_12\n      jumpi\n      0x00\n      dup1\n      revert\n    tag_13:\n      dup1\n      0x200d2ed2\n      eq\n      tag_3\n      jumpi\n      dup1\n      0x2d56657d\n      eq\n      tag_4\n      jumpi\n      dup1\n      0x51cff8d9\n      eq\n      tag_5\n      jumpi\n      dup1\n      0x675f6537\n      eq\n      tag_6\n      jumpi\n      dup1\n      0x6bfefd6b\n      eq\n      tag_7\n      jumpi\n    tag_2:\n      0x00\n      dup1\n      revert\n        /* \"contracts/Market.sol\":379:413  uint256 public override status = 0 */\n    tag_3:\n      tag_14\n      sload(0x02)\n      dup2\n      jump\n    tag_14:\n      mload(0x40)\n        /* \"#utility.yul\":160:185   */\n      swap1\n      dup2\n      mstore\n        /* \"#utility.yul\":148:150   */\n      0x20\n        /* \"#utility.yul\":133:151   */\n      add\n        /* \"contracts/Market.sol\":379:413  uint256 public override status = 0 */\n    tag_16:\n      mload(0x40)\n      dup1\n      swap2\n      sub\n      swap1\n      return\n        /* \"contracts/Market.sol\":1836:2148  function getUserBets(address _user) external view override returns(MarketBet[] memory) {... */\n    tag_4:\n      tag_18\n      tag_19\n      calldatasize\n      0x04\n      tag_20\n      jump\t// in\n    tag_19:\n      tag_21\n      jump\t// in\n    tag_18:\n      mload(0x40)\n      tag_16\n      swap2\n      swap1\n      tag_23\n      jump\t// in\n        /* \"contracts/Market.sol\":2154:2541  function withdraw(address _addr) public override nonReentrant returns(bool) {... */\n    tag_5:\n      tag_24\n      tag_25\n      calldatasize\n      0x04\n      tag_20\n      jump\t// in\n    tag_25:\n      tag_26\n      jump\t// in\n    tag_24:\n      mload(0x40)\n        /* \"#utility.yul\":1901:1915   */\n      swap1\n      iszero\n        /* \"#utility.yul\":1894:1916   */\n      iszero\n        /* \"#utility.yul\":1876:1917   */\n      dup2\n      mstore\n        /* \"#utility.yul\":1864:1866   */\n      0x20\n        /* \"#utility.yul\":1849:1867   */\n      add\n        /* \"contracts/Market.sol\":2154:2541  function withdraw(address _addr) public override nonReentrant returns(bool) {... */\n      tag_16\n        /* \"#utility.yul\":1736:1923   */\n      jump\n        /* \"contracts/Market.sol\":3049:3329  function settleBet(bytes32 _bet) external override {... */\n    tag_6:\n      tag_29\n      tag_30\n      calldatasize\n      0x04\n      tag_31\n      jump\t// in\n    tag_30:\n      tag_32\n      jump\t// in\n    tag_29:\n      stop\n        /* \"contracts/Market.sol\":3692:3958  function cancelMarket() external override onlyFactory returns(bool) ... */\n    tag_7:\n      tag_24\n      tag_34\n      jump\t// in\n        /* \"contracts/Market.sol\":4096:8270  function addBet(... */\n    tag_8:\n      tag_14\n      tag_37\n      calldatasize\n      0x04\n      tag_38\n      jump\t// in\n    tag_37:\n      tag_39\n      jump\t// in\n        /* \"contracts/Market.sol\":2549:3043  function cancelPending(bytes32 _bet) external override nonReentrant {... */\n    tag_9:\n      tag_29\n      tag_43\n      calldatasize\n      0x04\n      tag_31\n      jump\t// in\n    tag_43:\n      tag_44\n      jump\t// in\n        /* \"contracts/Market.sol\":3335:3686  function settle(uint256 _winningSide)... */\n    tag_10:\n      tag_24\n      tag_46\n      calldatasize\n      0x04\n      tag_31\n      jump\t// in\n    tag_46:\n      tag_48\n      jump\t// in\n        /* \"contracts/Market.sol\":3964:4090  function start() external override onlyFactory {... */\n    tag_11:\n      tag_29\n      tag_51\n      jump\t// in\n        /* \"contracts/Market.sol\":1721:1830  function getBalance(address _user) external view override returns(uint256) {... */\n    tag_12:\n      tag_14\n      tag_53\n      calldatasize\n      0x04\n      tag_20\n      jump\t// in\n    tag_53:\n      sub(shl(0xa0, 0x01), 0x01)\n        /* \"contracts/Market.sol\":1813:1823  bal[_user] */\n      and\n        /* \"contracts/Market.sol\":1787:1794  uint256 */\n      0x00\n        /* \"contracts/Market.sol\":1813:1823  bal[_user] */\n      swap1\n      dup2\n      mstore\n        /* \"contracts/Market.sol\":1813:1816  bal */\n      0x06\n        /* \"contracts/Market.sol\":1813:1823  bal[_user] */\n      0x20\n      mstore\n      0x40\n      swap1\n      keccak256\n      sload\n      swap1\n        /* \"contracts/Market.sol\":1721:1830  function getBalance(address _user) external view override returns(uint256) {... */\n      jump\n        /* \"contracts/Market.sol\":1836:2148  function getUserBets(address _user) external view override returns(MarketBet[] memory) {... */\n    tag_21:\n      sub(shl(0xa0, 0x01), 0x01)\n        /* \"contracts/Market.sol\":1996:2011  userBets[_user] */\n      dup2\n      and\n        /* \"contracts/Market.sol\":1971:1993  bytes32[] memory _bets */\n      0x00\n        /* \"contracts/Market.sol\":1996:2011  userBets[_user] */\n      swap1\n      dup2\n      mstore\n        /* \"contracts/Market.sol\":1996:2004  userBets */\n      0x08\n        /* \"contracts/Market.sol\":1996:2011  userBets[_user] */\n      0x20\n      swap1\n      dup2\n      mstore\n      0x40\n      dup1\n      dup4\n      keccak256\n        /* \"contracts/Market.sol\":1971:2011  bytes32[] memory _bets = userBets[_user] */\n      dup1\n      sload\n      dup3\n      mload\n      dup2\n      dup6\n      mul\n      dup2\n      add\n      dup6\n      add\n      swap1\n      swap4\n      mstore\n      dup1\n      dup4\n      mstore\n        /* \"contracts/Market.sol\":1903:1921  MarketBet[] memory */\n      0x60\n      swap5\n      dup6\n      swap5\n        /* \"contracts/Market.sol\":1971:1993  bytes32[] memory _bets */\n      swap1\n      swap4\n        /* \"contracts/Market.sol\":1971:2011  bytes32[] memory _bets = userBets[_user] */\n      swap3\n        /* \"contracts/Market.sol\":1996:2011  userBets[_user] */\n      swap2\n        /* \"contracts/Market.sol\":1971:2011  bytes32[] memory _bets = userBets[_user] */\n      swap1\n      dup4\n      add\n        /* \"contracts/Market.sol\":1996:2011  userBets[_user] */\n      dup3\n        /* \"contracts/Market.sol\":1971:2011  bytes32[] memory _bets = userBets[_user] */\n      dup3\n      dup1\n      iszero\n      tag_57\n      jumpi\n      0x20\n      mul\n      dup3\n      add\n      swap2\n      swap1\n      0x00\n      mstore\n      keccak256(0x00, 0x20)\n      swap1\n    tag_58:\n      dup2\n      sload\n      dup2\n      mstore\n      0x20\n      add\n      swap1\n      0x01\n      add\n      swap1\n      dup1\n      dup4\n      gt\n      tag_58\n      jumpi\n    tag_57:\n      pop\n      pop\n      pop\n      pop\n      pop\n      swap1\n      pop\n        /* \"contracts/Market.sol\":2025:2031  uint i */\n      0x00\n        /* \"contracts/Market.sol\":2021:2116  for(uint i = 0; i < bets.length; i++){... */\n    tag_59:\n        /* \"contracts/Market.sol\":2041:2045  bets */\n      0x04\n        /* \"contracts/Market.sol\":2041:2052  bets.length */\n      sload\n        /* \"contracts/Market.sol\":2037:2052  i < bets.length */\n      dup2\n      lt\n        /* \"contracts/Market.sol\":2021:2116  for(uint i = 0; i < bets.length; i++){... */\n      iszero\n      tag_60\n      jumpi\n        /* \"contracts/Market.sol\":2087:2095  betsInfo */\n      0x07\n        /* \"contracts/Market.sol\":2087:2105  betsInfo[_bets[i]] */\n      0x00\n        /* \"contracts/Market.sol\":2096:2101  _bets */\n      dup4\n        /* \"contracts/Market.sol\":2102:2103  i */\n      dup4\n        /* \"contracts/Market.sol\":2096:2104  _bets[i] */\n      dup2\n      mload\n      dup2\n      lt\n      tag_63\n      jumpi\n      tag_63\n      tag_64\n      jump\t// in\n    tag_63:\n      0x20\n      swap1\n      dup2\n      mul\n      swap2\n      swap1\n      swap2\n      add\n      dup2\n      add\n      mload\n        /* \"contracts/Market.sol\":2087:2105  betsInfo[_bets[i]] */\n      dup3\n      mstore\n      dup2\n      dup2\n      add\n      swap3\n      swap1\n      swap3\n      mstore\n      0x40\n      swap1\n      dup2\n      add\n      0x00\n      keccak256\n        /* \"contracts/Market.sol\":2072:2105  _userBets[i] = betsInfo[_bets[i]] */\n      dup2\n      mload\n      0xc0\n      dup2\n      add\n      dup4\n      mstore\n      dup2\n      sload\n      sub(shl(0xa0, 0x01), 0x01)\n      swap1\n      dup2\n      and\n      dup3\n      mstore\n      0x01\n      dup4\n      add\n      sload\n      and\n      swap4\n      dup2\n      add\n      swap4\n      swap1\n      swap4\n      mstore\n      0x02\n      dup2\n      add\n      sload\n      swap2\n      dup4\n      add\n      swap2\n      swap1\n      swap2\n      mstore\n      0x03\n      dup2\n      add\n      sload\n      0x60\n      dup4\n      add\n      mstore\n      0x04\n      dup2\n      add\n      sload\n      0x80\n      dup4\n      add\n      mstore\n      0x05\n      add\n      sload\n      0xa0\n      dup3\n      add\n      mstore\n        /* \"contracts/Market.sol\":2072:2084  _userBets[i] */\n      dup4\n      mload\n        /* \"contracts/Market.sol\":2072:2081  _userBets */\n      dup5\n      swap1\n        /* \"contracts/Market.sol\":2082:2083  i */\n      dup4\n      swap1\n        /* \"contracts/Market.sol\":2072:2084  _userBets[i] */\n      dup2\n      lt\n      tag_66\n      jumpi\n      tag_66\n      tag_64\n      jump\t// in\n    tag_66:\n      0x20\n      mul\n      0x20\n      add\n      add\n        /* \"contracts/Market.sol\":2072:2105  _userBets[i] = betsInfo[_bets[i]] */\n      dup2\n      swap1\n      mstore\n      pop\n        /* \"contracts/Market.sol\":2054:2057  i++ */\n      dup1\n      dup1\n      tag_67\n      swap1\n      tag_68\n      jump\t// in\n    tag_67:\n      swap2\n      pop\n      pop\n        /* \"contracts/Market.sol\":2021:2116  for(uint i = 0; i < bets.length; i++){... */\n      jump(tag_59)\n    tag_60:\n      pop\n        /* \"contracts/Market.sol\":2132:2141  _userBets */\n      swap1\n      swap4\n        /* \"contracts/Market.sol\":1836:2148  function getUserBets(address _user) external view override returns(MarketBet[] memory) {... */\n      swap3\n      pop\n      pop\n      pop\n      jump\t// out\n        /* \"contracts/Market.sol\":2154:2541  function withdraw(address _addr) public override nonReentrant returns(bool) {... */\n    tag_26:\n        /* \"contracts/Market.sol\":2224:2228  bool */\n      0x00\n        /* \"@openzeppelin/contracts/security/ReentrancyGuard.sol\":1744:1745  2 */\n      0x02\n        /* \"@openzeppelin/contracts/security/ReentrancyGuard.sol\":2325:2332  _status */\n      sload(0x00)\n        /* \"@openzeppelin/contracts/security/ReentrancyGuard.sol\":2325:2344  _status != _ENTERED */\n      sub\n        /* \"@openzeppelin/contracts/security/ReentrancyGuard.sol\":2317:2380  require(_status != _ENTERED, \"ReentrancyGuard: reentrant call\") */\n      tag_70\n      jumpi\n      mload(0x40)\n      shl(0xe5, 0x461bcd)\n      dup2\n      mstore\n      0x04\n      add\n      tag_71\n      swap1\n      tag_72\n      jump\t// in\n    tag_71:\n      mload(0x40)\n      dup1\n      swap2\n      sub\n      swap1\n      revert\n    tag_70:\n        /* \"@openzeppelin/contracts/security/ReentrancyGuard.sol\":1744:1745  2 */\n      0x02\n        /* \"@openzeppelin/contracts/security/ReentrancyGuard.sol\":2455:2462  _status */\n      0x00\n        /* \"@openzeppelin/contracts/security/ReentrancyGuard.sol\":2455:2473  _status = _ENTERED */\n      swap1\n      dup2\n      sstore\n      sub(shl(0xa0, 0x01), 0x01)\n        /* \"contracts/Market.sol\":2262:2272  bal[_addr] */\n      dup4\n      dup2\n      and\n      dup3\n      mstore\n        /* \"contracts/Market.sol\":2262:2265  bal */\n      0x06\n        /* \"contracts/Market.sol\":2262:2272  bal[_addr] */\n      0x20\n      mstore\n      0x40\n      swap2\n      dup3\n      swap1\n      keccak256\n      sload\n        /* \"contracts/Market.sol\":2290:2320  token.balanceOf(address(this)) */\n      swap2\n      mload\n      shl(0xe0, 0x70a08231)\n      dup2\n      mstore\n        /* \"contracts/Market.sol\":2314:2318  this */\n      address\n        /* \"contracts/Market.sol\":2290:2320  token.balanceOf(address(this)) */\n      0x04\n      dup3\n      add\n        /* \"#utility.yul\":4248:4299   */\n      mstore\n        /* \"contracts/Market.sol\":2262:2272  bal[_addr] */\n      dup3\n      swap2\n        /* \"contracts/Market.sol\":2290:2295  token */\n      immutable(\"0xb82efe928ba8047fc73c44199ae87270ba92aad773ed77645c6bc82e384fdb71\")\n        /* \"contracts/Market.sol\":2290:2305  token.balanceOf */\n      and\n      swap1\n      0x70a08231\n      swap1\n        /* \"#utility.yul\":4221:4239   */\n      0x24\n      add\n        /* \"contracts/Market.sol\":2290:2320  token.balanceOf(address(this)) */\n      0x20\n      mload(0x40)\n      dup1\n      dup4\n      sub\n      dup2\n      dup7\n      gas\n      staticcall\n      iszero\n      dup1\n      iszero\n      tag_77\n      jumpi\n      returndatasize\n      0x00\n      dup1\n      returndatacopy\n      revert(0x00, returndatasize)\n    tag_77:\n      pop\n      pop\n      pop\n      pop\n      mload(0x40)\n      returndatasize\n      not(0x1f)\n      0x1f\n      dup3\n      add\n      and\n      dup3\n      add\n      dup1\n      0x40\n      mstore\n      pop\n      dup2\n      add\n      swap1\n      tag_78\n      swap2\n      swap1\n      tag_79\n      jump\t// in\n    tag_78:\n        /* \"contracts/Market.sol\":2290:2334  token.balanceOf(address(this)) > availAmount */\n      gt\n        /* \"contracts/Market.sol\":2290:2353  token.balanceOf(address(this)) > availAmount && availAmount > 0 */\n      dup1\n      iszero\n      tag_80\n      jumpi\n      pop\n        /* \"contracts/Market.sol\":2352:2353  0 */\n      0x00\n        /* \"contracts/Market.sol\":2338:2349  availAmount */\n      dup2\n        /* \"contracts/Market.sol\":2338:2353  availAmount > 0 */\n      gt\n        /* \"contracts/Market.sol\":2290:2353  token.balanceOf(address(this)) > availAmount && availAmount > 0 */\n    tag_80:\n        /* \"contracts/Market.sol\":2282:2360  require(token.balanceOf(address(this)) > availAmount && availAmount > 0, \"M2\") */\n      tag_81\n      jumpi\n      mload(0x40)\n      shl(0xe5, 0x461bcd)\n      dup2\n      mstore\n        /* \"#utility.yul\":4701:4703   */\n      0x20\n        /* \"contracts/Market.sol\":2282:2360  require(token.balanceOf(address(this)) > availAmount && availAmount > 0, \"M2\") */\n      0x04\n      dup3\n      add\n        /* \"#utility.yul\":4683:4704   */\n      mstore\n        /* \"#utility.yul\":4740:4741   */\n      0x02\n        /* \"#utility.yul\":4720:4738   */\n      0x24\n      dup3\n      add\n        /* \"#utility.yul\":4713:4742   */\n      mstore\n      shl(0xf1, 0x2699)\n        /* \"#utility.yul\":4758:4776   */\n      0x44\n      dup3\n      add\n        /* \"#utility.yul\":4751:4783   */\n      mstore\n        /* \"#utility.yul\":4800:4818   */\n      0x64\n      add\n        /* \"contracts/Market.sol\":2282:2360  require(token.balanceOf(address(this)) > availAmount && availAmount > 0, \"M2\") */\n      tag_71\n        /* \"#utility.yul\":4499:4824   */\n      jump\n        /* \"contracts/Market.sol\":2282:2360  require(token.balanceOf(address(this)) > availAmount && availAmount > 0, \"M2\") */\n    tag_81:\n        /* \"contracts/Market.sol\":2385:2419  token.transfer(_addr, availAmount) */\n      mload(0x40)\n      shl(0xe0, 0xa9059cbb)\n      dup2\n      mstore\n      sub(shl(0xa0, 0x01), 0x01)\n        /* \"#utility.yul\":5021:5053   */\n      dup5\n      dup2\n      and\n        /* \"contracts/Market.sol\":2385:2419  token.transfer(_addr, availAmount) */\n      0x04\n      dup4\n      add\n        /* \"#utility.yul\":5003:5054   */\n      mstore\n        /* \"#utility.yul\":5070:5088   */\n      0x24\n      dup3\n      add\n        /* \"#utility.yul\":5063:5097   */\n      dup4\n      swap1\n      mstore\n        /* \"contracts/Market.sol\":2370:2382  bool success */\n      0x00\n      swap2\n        /* \"contracts/Market.sol\":2385:2390  token */\n      immutable(\"0xb82efe928ba8047fc73c44199ae87270ba92aad773ed77645c6bc82e384fdb71\")\n        /* \"contracts/Market.sol\":2385:2399  token.transfer */\n      swap1\n      swap2\n      and\n      swap1\n      0xa9059cbb\n      swap1\n        /* \"#utility.yul\":4976:4994   */\n      0x44\n      add\n        /* \"contracts/Market.sol\":2385:2419  token.transfer(_addr, availAmount) */\n      0x20\n      mload(0x40)\n      dup1\n      dup4\n      sub\n      dup2\n      0x00\n      dup8\n      gas\n      call\n      iszero\n      dup1\n      iszero\n      tag_87\n      jumpi\n      returndatasize\n      0x00\n      dup1\n      returndatacopy\n      revert(0x00, returndatasize)\n    tag_87:\n      pop\n      pop\n      pop\n      pop\n      mload(0x40)\n      returndatasize\n      not(0x1f)\n      0x1f\n      dup3\n      add\n      and\n      dup3\n      add\n      dup1\n      0x40\n      mstore\n      pop\n      dup2\n      add\n      swap1\n      tag_88\n      swap2\n      swap1\n      tag_89\n      jump\t// in\n    tag_88:\n        /* \"contracts/Market.sol\":2437:2471  token.transfer(_addr, availAmount) */\n      mload(0x40)\n      shl(0xe0, 0xa9059cbb)\n      dup2\n      mstore\n      sub(shl(0xa0, 0x01), 0x01)\n        /* \"#utility.yul\":5021:5053   */\n      dup7\n      dup2\n      and\n        /* \"contracts/Market.sol\":2437:2471  token.transfer(_addr, availAmount) */\n      0x04\n      dup4\n      add\n        /* \"#utility.yul\":5003:5054   */\n      mstore\n        /* \"#utility.yul\":5070:5088   */\n      0x24\n      dup3\n      add\n        /* \"#utility.yul\":5063:5097   */\n      dup6\n      swap1\n      mstore\n        /* \"contracts/Market.sol\":2370:2419  bool success = token.transfer(_addr, availAmount) */\n      swap2\n      swap3\n      pop\n        /* \"contracts/Market.sol\":2437:2442  token */\n      immutable(\"0xb82efe928ba8047fc73c44199ae87270ba92aad773ed77645c6bc82e384fdb71\")\n        /* \"contracts/Market.sol\":2437:2451  token.transfer */\n      swap1\n      swap2\n      and\n      swap1\n      0xa9059cbb\n      swap1\n        /* \"#utility.yul\":4976:4994   */\n      0x44\n      add\n        /* \"contracts/Market.sol\":2437:2471  token.transfer(_addr, availAmount) */\n      0x20\n      mload(0x40)\n      dup1\n      dup4\n      sub\n      dup2\n      0x00\n      dup8\n      gas\n      call\n      iszero\n      dup1\n      iszero\n      tag_92\n      jumpi\n      returndatasize\n      0x00\n      dup1\n      returndatacopy\n      revert(0x00, returndatasize)\n    tag_92:\n      pop\n      pop\n      pop\n      pop\n      mload(0x40)\n      returndatasize\n      not(0x1f)\n      0x1f\n      dup3\n      add\n      and\n      dup3\n      add\n      dup1\n      0x40\n      mstore\n      pop\n      dup2\n      add\n      swap1\n      tag_93\n      swap2\n      swap1\n      tag_89\n      jump\t// in\n    tag_93:\n        /* \"contracts/Market.sol\":2429:2478  require(token.transfer(_addr, availAmount), \"M3\") */\n      tag_94\n      jumpi\n      mload(0x40)\n      shl(0xe5, 0x461bcd)\n      dup2\n      mstore\n        /* \"#utility.yul\":5560:5562   */\n      0x20\n        /* \"contracts/Market.sol\":2429:2478  require(token.transfer(_addr, availAmount), \"M3\") */\n      0x04\n      dup3\n      add\n        /* \"#utility.yul\":5542:5563   */\n      mstore\n        /* \"#utility.yul\":5599:5600   */\n      0x02\n        /* \"#utility.yul\":5579:5597   */\n      0x24\n      dup3\n      add\n        /* \"#utility.yul\":5572:5601   */\n      mstore\n      shl(0xf0, 0x4d33)\n        /* \"#utility.yul\":5617:5635   */\n      0x44\n      dup3\n      add\n        /* \"#utility.yul\":5610:5642   */\n      mstore\n        /* \"#utility.yul\":5659:5677   */\n      0x64\n      add\n        /* \"contracts/Market.sol\":2429:2478  require(token.transfer(_addr, availAmount), \"M3\") */\n      tag_71\n        /* \"#utility.yul\":5358:5683   */\n      jump\n        /* \"contracts/Market.sol\":2429:2478  require(token.transfer(_addr, availAmount), \"M3\") */\n    tag_94:\n      sub(shl(0xa0, 0x01), 0x01)\n        /* \"contracts/Market.sol\":2488:2498  bal[_addr] */\n      dup5\n      and\n      0x00\n      swap1\n      dup2\n      mstore\n        /* \"contracts/Market.sol\":2488:2491  bal */\n      0x06\n        /* \"contracts/Market.sol\":2488:2498  bal[_addr] */\n      0x20\n      mstore\n      0x40\n      dup2\n      keccak256\n        /* \"contracts/Market.sol\":2488:2513  bal[_addr] -= availAmount */\n      dup1\n      sload\n        /* \"contracts/Market.sol\":2502:2513  availAmount */\n      dup5\n      swap3\n        /* \"contracts/Market.sol\":2488:2498  bal[_addr] */\n      swap1\n        /* \"contracts/Market.sol\":2488:2513  bal[_addr] -= availAmount */\n      tag_97\n      swap1\n        /* \"contracts/Market.sol\":2502:2513  availAmount */\n      dup5\n      swap1\n        /* \"contracts/Market.sol\":2488:2513  bal[_addr] -= availAmount */\n      tag_98\n      jump\t// in\n    tag_97:\n      swap1\n      swap2\n      sstore\n      pop\n        /* \"contracts/Market.sol\":2530:2534  true */\n      0x01\n      swap4\n      pop\n      pop\n      pop\n      pop\n        /* \"@openzeppelin/contracts/security/ReentrancyGuard.sol\":1701:1702  1 */\n      0x01\n        /* \"@openzeppelin/contracts/security/ReentrancyGuard.sol\":2628:2635  _status */\n      0x00\n        /* \"@openzeppelin/contracts/security/ReentrancyGuard.sol\":2628:2650  _status = _NOT_ENTERED */\n      sstore\n        /* \"contracts/Market.sol\":2154:2541  function withdraw(address _addr) public override nonReentrant returns(bool) {... */\n      swap2\n      swap1\n      pop\n      jump\t// out\n        /* \"contracts/Market.sol\":3049:3329  function settleBet(bytes32 _bet) external override {... */\n    tag_32:\n        /* \"contracts/Market.sol\":3110:3133  bytes32[] memory _pairs */\n      0x00\n        /* \"contracts/Market.sol\":3136:3150  betPairs[_bet] */\n      dup2\n      dup2\n      mstore\n        /* \"contracts/Market.sol\":3136:3144  betPairs */\n      0x0a\n        /* \"contracts/Market.sol\":3136:3150  betPairs[_bet] */\n      0x20\n      swap1\n      dup2\n      mstore\n      0x40\n      dup1\n      dup4\n      keccak256\n        /* \"contracts/Market.sol\":3110:3150  bytes32[] memory _pairs = betPairs[_bet] */\n      dup1\n      sload\n      dup3\n      mload\n      dup2\n      dup6\n      mul\n      dup2\n      add\n      dup6\n      add\n      swap1\n      swap4\n      mstore\n      dup1\n      dup4\n      mstore\n      swap2\n      swap3\n        /* \"contracts/Market.sol\":3136:3150  betPairs[_bet] */\n      swap1\n      swap2\n        /* \"contracts/Market.sol\":3110:3150  bytes32[] memory _pairs = betPairs[_bet] */\n      swap1\n      dup4\n      add\n        /* \"contracts/Market.sol\":3136:3150  betPairs[_bet] */\n      dup3\n        /* \"contracts/Market.sol\":3110:3150  bytes32[] memory _pairs = betPairs[_bet] */\n      dup3\n      dup1\n      iszero\n      tag_100\n      jumpi\n      0x20\n      mul\n      dup3\n      add\n      swap2\n      swap1\n      0x00\n      mstore\n      keccak256(0x00, 0x20)\n      swap1\n    tag_101:\n      dup2\n      sload\n      dup2\n      mstore\n      0x20\n      add\n      swap1\n      0x01\n      add\n      swap1\n      dup1\n      dup4\n      gt\n      tag_101\n      jumpi\n    tag_100:\n      pop\n      pop\n      pop\n      pop\n      pop\n      swap1\n      pop\n        /* \"contracts/Market.sol\":3164:3170  uint i */\n      0x00\n        /* \"contracts/Market.sol\":3160:3246  for(uint i = 0; i < _pairs.length; i++){... */\n    tag_102:\n        /* \"contracts/Market.sol\":3180:3186  _pairs */\n      dup2\n        /* \"contracts/Market.sol\":3180:3193  _pairs.length */\n      mload\n        /* \"contracts/Market.sol\":3176:3177  i */\n      dup2\n        /* \"contracts/Market.sol\":3176:3193  i < _pairs.length */\n      lt\n        /* \"contracts/Market.sol\":3160:3246  for(uint i = 0; i < _pairs.length; i++){... */\n      iszero\n      tag_103\n      jumpi\n        /* \"contracts/Market.sol\":3213:3235  _settlePair(_pairs[i]) */\n      tag_105\n        /* \"contracts/Market.sol\":3225:3231  _pairs */\n      dup3\n        /* \"contracts/Market.sol\":3232:3233  i */\n      dup3\n        /* \"contracts/Market.sol\":3225:3234  _pairs[i] */\n      dup2\n      mload\n      dup2\n      lt\n      tag_107\n      jumpi\n      tag_107\n      tag_64\n      jump\t// in\n    tag_107:\n      0x20\n      mul\n      0x20\n      add\n      add\n      mload\n        /* \"contracts/Market.sol\":3213:3224  _settlePair */\n      tag_108\n        /* \"contracts/Market.sol\":3213:3235  _settlePair(_pairs[i]) */\n      jump\t// in\n    tag_105:\n        /* \"contracts/Market.sol\":3195:3198  i++ */\n      dup1\n      tag_109\n      dup2\n      tag_68\n      jump\t// in\n    tag_109:\n      swap2\n      pop\n      pop\n        /* \"contracts/Market.sol\":3160:3246  for(uint i = 0; i < _pairs.length; i++){... */\n      jump(tag_102)\n    tag_103:\n      pop\n        /* \"contracts/Market.sol\":3262:3272  msg.sender */\n      caller\n        /* \"contracts/Market.sol\":3276:3277  0 */\n      0x00\n        /* \"contracts/Market.sol\":3258:3273  bal[msg.sender] */\n      swap1\n      dup2\n      mstore\n        /* \"contracts/Market.sol\":3258:3261  bal */\n      0x06\n        /* \"contracts/Market.sol\":3258:3273  bal[msg.sender] */\n      0x20\n      mstore\n      0x40\n      swap1\n      keccak256\n      sload\n        /* \"contracts/Market.sol\":3258:3277  bal[msg.sender] > 0 */\n      iszero\n        /* \"contracts/Market.sol\":3255:3323  if(bal[msg.sender] > 0){... */\n      tag_110\n      jumpi\n        /* \"contracts/Market.sol\":3292:3312  withdraw(msg.sender) */\n      tag_111\n        /* \"contracts/Market.sol\":3301:3311  msg.sender */\n      caller\n        /* \"contracts/Market.sol\":3292:3300  withdraw */\n      tag_26\n        /* \"contracts/Market.sol\":3292:3312  withdraw(msg.sender) */\n      jump\t// in\n    tag_111:\n      pop\n        /* \"contracts/Market.sol\":3255:3323  if(bal[msg.sender] > 0){... */\n    tag_110:\n        /* \"contracts/Market.sol\":3100:3329  {... */\n      pop\n        /* \"contracts/Market.sol\":3049:3329  function settleBet(bytes32 _bet) external override {... */\n      pop\n      jump\t// out\n        /* \"contracts/Market.sol\":3692:3958  function cancelMarket() external override onlyFactory returns(bool) ... */\n    tag_34:\n        /* \"contracts/Market.sol\":1248:1255  factory */\n      sload(0x01)\n        /* \"contracts/Market.sol\":3754:3758  bool */\n      0x00\n      swap1\n      sub(shl(0xa0, 0x01), 0x01)\n        /* \"contracts/Market.sol\":1248:1255  factory */\n      and\n        /* \"contracts/Market.sol\":1234:1244  msg.sender */\n      caller\n        /* \"contracts/Market.sol\":1234:1255  msg.sender == factory */\n      eq\n        /* \"contracts/Market.sol\":1213:1283  require(... */\n      tag_113\n      jumpi\n      mload(0x40)\n      shl(0xe5, 0x461bcd)\n      dup2\n      mstore\n      0x04\n      add\n      tag_71\n      swap1\n      tag_115\n      jump\t// in\n    tag_113:\n        /* \"contracts/Market.sol\":3784:3790  status */\n      sload(0x02)\n        /* \"contracts/Market.sol\":3784:3795  status == 0 */\n      iszero\n      dup1\n        /* \"contracts/Market.sol\":3784:3810  status == 0 || status == 4 */\n      tag_117\n      jumpi\n      pop\n        /* \"contracts/Market.sol\":3799:3805  status */\n      sload(0x02)\n        /* \"contracts/Market.sol\":3809:3810  4 */\n      0x04\n        /* \"contracts/Market.sol\":3799:3810  status == 4 */\n      eq\n        /* \"contracts/Market.sol\":3784:3810  status == 0 || status == 4 */\n    tag_117:\n        /* \"contracts/Market.sol\":3776:3817  require(status == 0 || status == 4, \"M6\") */\n      tag_118\n      jumpi\n      mload(0x40)\n      shl(0xe5, 0x461bcd)\n      dup2\n      mstore\n        /* \"#utility.yul\":6353:6355   */\n      0x20\n        /* \"contracts/Market.sol\":3776:3817  require(status == 0 || status == 4, \"M6\") */\n      0x04\n      dup3\n      add\n        /* \"#utility.yul\":6335:6356   */\n      mstore\n        /* \"#utility.yul\":6392:6393   */\n      0x02\n        /* \"#utility.yul\":6372:6390   */\n      0x24\n      dup3\n      add\n        /* \"#utility.yul\":6365:6394   */\n      mstore\n      shl(0xf1, 0x269b)\n        /* \"#utility.yul\":6410:6428   */\n      0x44\n      dup3\n      add\n        /* \"#utility.yul\":6403:6435   */\n      mstore\n        /* \"#utility.yul\":6452:6470   */\n      0x64\n      add\n        /* \"contracts/Market.sol\":3776:3817  require(status == 0 || status == 4, \"M6\") */\n      tag_71\n        /* \"#utility.yul\":6151:6476   */\n      jump\n        /* \"contracts/Market.sol\":3776:3817  require(status == 0 || status == 4, \"M6\") */\n    tag_118:\n        /* \"contracts/Market.sol\":3831:3837  uint i */\n      0x00\n        /* \"contracts/Market.sol\":3827:3911  for(uint i = 0; i < pairs.length; i++){... */\n    tag_121:\n        /* \"contracts/Market.sol\":3847:3852  pairs */\n      0x03\n        /* \"contracts/Market.sol\":3847:3859  pairs.length */\n      sload\n        /* \"contracts/Market.sol\":3843:3859  i < pairs.length */\n      dup2\n      lt\n        /* \"contracts/Market.sol\":3827:3911  for(uint i = 0; i < pairs.length; i++){... */\n      iszero\n      tag_122\n      jumpi\n        /* \"contracts/Market.sol\":3879:3900  _cancelPair(pairs[i]) */\n      tag_124\n        /* \"contracts/Market.sol\":3891:3896  pairs */\n      0x03\n        /* \"contracts/Market.sol\":3897:3898  i */\n      dup3\n        /* \"contracts/Market.sol\":3891:3899  pairs[i] */\n      dup2\n      sload\n      dup2\n      lt\n      tag_126\n      jumpi\n      tag_126\n      tag_64\n      jump\t// in\n    tag_126:\n      swap1\n      0x00\n      mstore\n      keccak256(0x00, 0x20)\n      add\n      sload\n        /* \"contracts/Market.sol\":3879:3890  _cancelPair */\n      tag_128\n        /* \"contracts/Market.sol\":3879:3900  _cancelPair(pairs[i]) */\n      jump\t// in\n    tag_124:\n        /* \"contracts/Market.sol\":3861:3864  i++ */\n      dup1\n      tag_129\n      dup2\n      tag_68\n      jump\t// in\n    tag_129:\n      swap2\n      pop\n      pop\n        /* \"contracts/Market.sol\":3827:3911  for(uint i = 0; i < pairs.length; i++){... */\n      jump(tag_121)\n    tag_122:\n      pop\n      pop\n        /* \"contracts/Market.sol\":3929:3930  3 */\n      0x03\n        /* \"contracts/Market.sol\":3920:3926  status */\n      0x02\n        /* \"contracts/Market.sol\":3920:3930  status = 3 */\n      sstore\n        /* \"contracts/Market.sol\":3947:3951  true */\n      0x01\n        /* \"contracts/Market.sol\":3692:3958  function cancelMarket() external override onlyFactory returns(bool) ... */\n      swap1\n      jump\t// out\n        /* \"contracts/Market.sol\":4096:8270  function addBet(... */\n    tag_39:\n        /* \"contracts/Market.sol\":4322:4345  app.isBlack(msg.sender) */\n      mload(0x40)\n      shl(0xe0, 0x332daccf)\n      dup2\n      mstore\n        /* \"contracts/Market.sol\":4334:4344  msg.sender */\n      caller\n        /* \"contracts/Market.sol\":4322:4345  app.isBlack(msg.sender) */\n      0x04\n      dup3\n      add\n        /* \"#utility.yul\":4248:4299   */\n      mstore\n        /* \"contracts/Market.sol\":4290:4297  bytes32 */\n      0x00\n      swap1\n        /* \"contracts/Market.sol\":4322:4325  app */\n      immutable(\"0xa4f21281edf90d86f21da3432ee4f5dff8abfbde6aab55afd7f9f7d4d3676c77\")\n      sub(shl(0xa0, 0x01), 0x01)\n        /* \"contracts/Market.sol\":4322:4333  app.isBlack */\n      and\n      swap1\n      0x332daccf\n      swap1\n        /* \"#utility.yul\":4221:4239   */\n      0x24\n      add\n        /* \"contracts/Market.sol\":4322:4345  app.isBlack(msg.sender) */\n      0x20\n      mload(0x40)\n      dup1\n      dup4\n      sub\n      dup2\n      dup7\n      gas\n      staticcall\n      iszero\n      dup1\n      iszero\n      tag_133\n      jumpi\n      returndatasize\n      0x00\n      dup1\n      returndatacopy\n      revert(0x00, returndatasize)\n    tag_133:\n      pop\n      pop\n      pop\n      pop\n      mload(0x40)\n      returndatasize\n      not(0x1f)\n      0x1f\n      dup3\n      add\n      and\n      dup3\n      add\n      dup1\n      0x40\n      mstore\n      pop\n      dup2\n      add\n      swap1\n      tag_134\n      swap2\n      swap1\n      tag_89\n      jump\t// in\n    tag_134:\n        /* \"contracts/Market.sol\":4321:4345  !app.isBlack(msg.sender) */\n      iszero\n        /* \"contracts/Market.sol\":4321:4360  !app.isBlack(msg.sender) && status == 0 */\n      dup1\n      iszero\n      tag_135\n      jumpi\n      pop\n        /* \"contracts/Market.sol\":4349:4355  status */\n      sload(0x02)\n        /* \"contracts/Market.sol\":4349:4360  status == 0 */\n      iszero\n        /* \"contracts/Market.sol\":4321:4360  !app.isBlack(msg.sender) && status == 0 */\n    tag_135:\n        /* \"contracts/Market.sol\":4313:4367  require(!app.isBlack(msg.sender) && status == 0, \"M8\") */\n      tag_136\n      jumpi\n      mload(0x40)\n      shl(0xe5, 0x461bcd)\n      dup2\n      mstore\n        /* \"#utility.yul\":6683:6685   */\n      0x20\n        /* \"contracts/Market.sol\":4313:4367  require(!app.isBlack(msg.sender) && status == 0, \"M8\") */\n      0x04\n      dup3\n      add\n        /* \"#utility.yul\":6665:6686   */\n      mstore\n        /* \"#utility.yul\":6722:6723   */\n      0x02\n        /* \"#utility.yul\":6702:6720   */\n      0x24\n      dup3\n      add\n        /* \"#utility.yul\":6695:6724   */\n      mstore\n      shl(0xf3, 0x09a7)\n        /* \"#utility.yul\":6740:6758   */\n      0x44\n      dup3\n      add\n        /* \"#utility.yul\":6733:6765   */\n      mstore\n        /* \"#utility.yul\":6782:6800   */\n      0x64\n      add\n        /* \"contracts/Market.sol\":4313:4367  require(!app.isBlack(msg.sender) && status == 0, \"M8\") */\n      tag_71\n        /* \"#utility.yul\":6481:6806   */\n      jump\n        /* \"contracts/Market.sol\":4313:4367  require(!app.isBlack(msg.sender) && status == 0, \"M8\") */\n    tag_136:\n        /* \"contracts/Market.sol\":4385:4390  _side */\n      dup3\n        /* \"contracts/Market.sol\":4394:4395  1 */\n      0x01\n        /* \"contracts/Market.sol\":4385:4395  _side == 1 */\n      eq\n        /* \"contracts/Market.sol\":4385:4409  _side == 1 || _side == 2 */\n      dup1\n      tag_139\n      jumpi\n      pop\n        /* \"contracts/Market.sol\":4399:4404  _side */\n      dup3\n        /* \"contracts/Market.sol\":4408:4409  2 */\n      0x02\n        /* \"contracts/Market.sol\":4399:4409  _side == 2 */\n      eq\n        /* \"contracts/Market.sol\":4385:4409  _side == 1 || _side == 2 */\n    tag_139:\n        /* \"contracts/Market.sol\":4377:4416  require(_side == 1 || _side == 2, \"M9\") */\n      tag_140\n      jumpi\n      mload(0x40)\n      shl(0xe5, 0x461bcd)\n      dup2\n      mstore\n        /* \"#utility.yul\":7013:7015   */\n      0x20\n        /* \"contracts/Market.sol\":4377:4416  require(_side == 1 || _side == 2, \"M9\") */\n      0x04\n      dup3\n      add\n        /* \"#utility.yul\":6995:7016   */\n      mstore\n        /* \"#utility.yul\":7052:7053   */\n      0x02\n        /* \"#utility.yul\":7032:7050   */\n      0x24\n      dup3\n      add\n        /* \"#utility.yul\":7025:7054   */\n      mstore\n      shl(0xf0, 0x4d39)\n        /* \"#utility.yul\":7070:7088   */\n      0x44\n      dup3\n      add\n        /* \"#utility.yul\":7063:7095   */\n      mstore\n        /* \"#utility.yul\":7112:7130   */\n      0x64\n      add\n        /* \"contracts/Market.sol\":4377:4416  require(_side == 1 || _side == 2, \"M9\") */\n      tag_71\n        /* \"#utility.yul\":6811:7136   */\n      jump\n        /* \"contracts/Market.sol\":4377:4416  require(_side == 1 || _side == 2, \"M9\") */\n    tag_140:\n        /* \"contracts/Market.sol\":4434:4476  token.allowance(msg.sender, address(this)) */\n      mload(0x40)\n      shl(0xe1, 0x6eb1769f)\n      dup2\n      mstore\n        /* \"contracts/Market.sol\":4450:4460  msg.sender */\n      caller\n        /* \"contracts/Market.sol\":4434:4476  token.allowance(msg.sender, address(this)) */\n      0x04\n      dup3\n      add\n        /* \"#utility.yul\":7353:7387   */\n      mstore\n        /* \"contracts/Market.sol\":4470:4474  this */\n      address\n        /* \"#utility.yul\":7403:7421   */\n      0x24\n      dup3\n      add\n        /* \"#utility.yul\":7396:7439   */\n      mstore\n        /* \"contracts/Market.sol\":4480:4486  _stake */\n      dup6\n      swap1\n        /* \"contracts/Market.sol\":4434:4439  token */\n      immutable(\"0xb82efe928ba8047fc73c44199ae87270ba92aad773ed77645c6bc82e384fdb71\")\n      sub(shl(0xa0, 0x01), 0x01)\n        /* \"contracts/Market.sol\":4434:4449  token.allowance */\n      and\n      swap1\n      0xdd62ed3e\n      swap1\n        /* \"#utility.yul\":7288:7306   */\n      0x44\n      add\n        /* \"contracts/Market.sol\":4434:4476  token.allowance(msg.sender, address(this)) */\n      0x20\n      mload(0x40)\n      dup1\n      dup4\n      sub\n      dup2\n      dup7\n      gas\n      staticcall\n      iszero\n      dup1\n      iszero\n      tag_146\n      jumpi\n      returndatasize\n      0x00\n      dup1\n      returndatacopy\n      revert(0x00, returndatasize)\n    tag_146:\n      pop\n      pop\n      pop\n      pop\n      mload(0x40)\n      returndatasize\n      not(0x1f)\n      0x1f\n      dup3\n      add\n      and\n      dup3\n      add\n      dup1\n      0x40\n      mstore\n      pop\n      dup2\n      add\n      swap1\n      tag_147\n      swap2\n      swap1\n      tag_79\n      jump\t// in\n    tag_147:\n        /* \"contracts/Market.sol\":4434:4486  token.allowance(msg.sender, address(this)) >= _stake */\n      lt\n      iszero\n        /* \"contracts/Market.sol\":4434:4514  token.allowance(msg.sender, address(this)) >= _stake && _stake >= app.minStake() */\n      dup1\n      iszero\n      tag_148\n      jumpi\n      pop\n        /* \"contracts/Market.sol\":4500:4503  app */\n      immutable(\"0xa4f21281edf90d86f21da3432ee4f5dff8abfbde6aab55afd7f9f7d4d3676c77\")\n      sub(shl(0xa0, 0x01), 0x01)\n        /* \"contracts/Market.sol\":4500:4512  app.minStake */\n      and\n      0x375b3c0a\n        /* \"contracts/Market.sol\":4500:4514  app.minStake() */\n      mload(0x40)\n      dup2\n      0xffffffff\n      and\n      0xe0\n      shl\n      dup2\n      mstore\n      0x04\n      add\n      0x20\n      mload(0x40)\n      dup1\n      dup4\n      sub\n      dup2\n      dup7\n      gas\n      staticcall\n      iszero\n      dup1\n      iszero\n      tag_150\n      jumpi\n      returndatasize\n      0x00\n      dup1\n      returndatacopy\n      revert(0x00, returndatasize)\n    tag_150:\n      pop\n      pop\n      pop\n      pop\n      mload(0x40)\n      returndatasize\n      not(0x1f)\n      0x1f\n      dup3\n      add\n      and\n      dup3\n      add\n      dup1\n      0x40\n      mstore\n      pop\n      dup2\n      add\n      swap1\n      tag_151\n      swap2\n      swap1\n      tag_79\n      jump\t// in\n    tag_151:\n        /* \"contracts/Market.sol\":4490:4496  _stake */\n      dup6\n        /* \"contracts/Market.sol\":4490:4514  _stake >= app.minStake() */\n      lt\n      iszero\n        /* \"contracts/Market.sol\":4434:4514  token.allowance(msg.sender, address(this)) >= _stake && _stake >= app.minStake() */\n    tag_148:\n        /* \"contracts/Market.sol\":4426:4522  require(token.allowance(msg.sender, address(this)) >= _stake && _stake >= app.minStake(), \"M10\") */\n      tag_152\n      jumpi\n      mload(0x40)\n      shl(0xe5, 0x461bcd)\n      dup2\n      mstore\n        /* \"#utility.yul\":7652:7654   */\n      0x20\n        /* \"contracts/Market.sol\":4426:4522  require(token.allowance(msg.sender, address(this)) >= _stake && _stake >= app.minStake(), \"M10\") */\n      0x04\n      dup3\n      add\n        /* \"#utility.yul\":7634:7655   */\n      mstore\n        /* \"#utility.yul\":7691:7692   */\n      0x03\n        /* \"#utility.yul\":7671:7689   */\n      0x24\n      dup3\n      add\n        /* \"#utility.yul\":7664:7693   */\n      mstore\n      shl(0xec, 0x04d313)\n        /* \"#utility.yul\":7709:7727   */\n      0x44\n      dup3\n      add\n        /* \"#utility.yul\":7702:7735   */\n      mstore\n        /* \"#utility.yul\":7752:7770   */\n      0x64\n      add\n        /* \"contracts/Market.sol\":4426:4522  require(token.allowance(msg.sender, address(this)) >= _stake && _stake >= app.minStake(), \"M10\") */\n      tag_71\n        /* \"#utility.yul\":7450:7776   */\n      jump\n        /* \"contracts/Market.sol\":4426:4522  require(token.allowance(msg.sender, address(this)) >= _stake && _stake >= app.minStake(), \"M10\") */\n    tag_152:\n        /* \"contracts/Market.sol\":4540:4593  token.transferFrom(msg.sender, address(this), _stake) */\n      mload(0x40)\n      shl(0xe0, 0x23b872dd)\n      dup2\n      mstore\n        /* \"contracts/Market.sol\":4559:4569  msg.sender */\n      caller\n        /* \"contracts/Market.sol\":4540:4593  token.transferFrom(msg.sender, address(this), _stake) */\n      0x04\n      dup3\n      add\n        /* \"#utility.yul\":8021:8055   */\n      mstore\n        /* \"contracts/Market.sol\":4579:4583  this */\n      address\n        /* \"#utility.yul\":8071:8089   */\n      0x24\n      dup3\n      add\n        /* \"#utility.yul\":8064:8107   */\n      mstore\n        /* \"#utility.yul\":8123:8141   */\n      0x44\n      dup2\n      add\n        /* \"#utility.yul\":8116:8150   */\n      dup7\n      swap1\n      mstore\n        /* \"contracts/Market.sol\":4540:4545  token */\n      immutable(\"0xb82efe928ba8047fc73c44199ae87270ba92aad773ed77645c6bc82e384fdb71\")\n      sub(shl(0xa0, 0x01), 0x01)\n        /* \"contracts/Market.sol\":4540:4558  token.transferFrom */\n      and\n      swap1\n      0x23b872dd\n      swap1\n        /* \"#utility.yul\":7956:7974   */\n      0x64\n      add\n        /* \"contracts/Market.sol\":4540:4593  token.transferFrom(msg.sender, address(this), _stake) */\n      0x20\n      mload(0x40)\n      dup1\n      dup4\n      sub\n      dup2\n      0x00\n      dup8\n      gas\n      call\n      iszero\n      dup1\n      iszero\n      tag_158\n      jumpi\n      returndatasize\n      0x00\n      dup1\n      returndatacopy\n      revert(0x00, returndatasize)\n    tag_158:\n      pop\n      pop\n      pop\n      pop\n      mload(0x40)\n      returndatasize\n      not(0x1f)\n      0x1f\n      dup3\n      add\n      and\n      dup3\n      add\n      dup1\n      0x40\n      mstore\n      pop\n      dup2\n      add\n      swap1\n      tag_159\n      swap2\n      swap1\n      tag_89\n      jump\t// in\n    tag_159:\n        /* \"contracts/Market.sol\":4532:4601  require(token.transferFrom(msg.sender, address(this), _stake), \"M11\") */\n      tag_160\n      jumpi\n      mload(0x40)\n      shl(0xe5, 0x461bcd)\n      dup2\n      mstore\n        /* \"#utility.yul\":8363:8365   */\n      0x20\n        /* \"contracts/Market.sol\":4532:4601  require(token.transferFrom(msg.sender, address(this), _stake), \"M11\") */\n      0x04\n      dup3\n      add\n        /* \"#utility.yul\":8345:8366   */\n      mstore\n        /* \"#utility.yul\":8402:8403   */\n      0x03\n        /* \"#utility.yul\":8382:8400   */\n      0x24\n      dup3\n      add\n        /* \"#utility.yul\":8375:8404   */\n      mstore\n      shl(0xe8, 0x4d3131)\n        /* \"#utility.yul\":8420:8438   */\n      0x44\n      dup3\n      add\n        /* \"#utility.yul\":8413:8446   */\n      mstore\n        /* \"#utility.yul\":8463:8481   */\n      0x64\n      add\n        /* \"contracts/Market.sol\":4532:4601  require(token.transferFrom(msg.sender, address(this), _stake), \"M11\") */\n      tag_71\n        /* \"#utility.yul\":8161:8487   */\n      jump\n        /* \"contracts/Market.sol\":4532:4601  require(token.transferFrom(msg.sender, address(this), _stake), \"M11\") */\n    tag_160:\n        /* \"contracts/Market.sol\":4611:4626  bytes32 betHash */\n      0x00\n        /* \"contracts/Market.sol\":4629:4709  _createBet(_better, _affiliate, _stake, 0, (_odds * 100) / (_odds - 100), _side) */\n      tag_163\n        /* \"contracts/Market.sol\":4640:4647  _better */\n      dup9\n        /* \"contracts/Market.sol\":4649:4659  _affiliate */\n      dup9\n        /* \"contracts/Market.sol\":4661:4667  _stake */\n      dup9\n        /* \"contracts/Market.sol\":4611:4626  bytes32 betHash */\n      dup5\n        /* \"contracts/Market.sol\":4689:4700  _odds - 100 */\n      tag_164\n        /* \"contracts/Market.sol\":4697:4700  100 */\n      0x64\n        /* \"contracts/Market.sol\":4689:4694  _odds */\n      dup12\n        /* \"contracts/Market.sol\":4689:4700  _odds - 100 */\n      tag_98\n      jump\t// in\n    tag_164:\n        /* \"contracts/Market.sol\":4673:4684  _odds * 100 */\n      tag_165\n        /* \"contracts/Market.sol\":4673:4678  _odds */\n      dup12\n        /* \"contracts/Market.sol\":4681:4684  100 */\n      0x64\n        /* \"contracts/Market.sol\":4673:4684  _odds * 100 */\n      tag_166\n      jump\t// in\n    tag_165:\n        /* \"contracts/Market.sol\":4672:4701  (_odds * 100) / (_odds - 100) */\n      tag_167\n      swap2\n      swap1\n      tag_168\n      jump\t// in\n    tag_167:\n        /* \"contracts/Market.sol\":4703:4708  _side */\n      dup10\n        /* \"contracts/Market.sol\":4629:4639  _createBet */\n      tag_169\n        /* \"contracts/Market.sol\":4629:4709  _createBet(_better, _affiliate, _stake, 0, (_odds * 100) / (_odds - 100), _side) */\n      jump\t// in\n    tag_163:\n        /* \"contracts/Market.sol\":4941:4952  pendingBets */\n      0x05\n        /* \"contracts/Market.sol\":4941:4959  pendingBets.length */\n      sload\n        /* \"contracts/Market.sol\":4611:4709  bytes32 betHash = _createBet(_better, _affiliate, _stake, 0, (_odds * 100) / (_odds - 100), _side) */\n      swap1\n      swap2\n      pop\n        /* \"contracts/Market.sol\":4941:4963  pendingBets.length > 0 */\n      iszero\n        /* \"contracts/Market.sol\":4938:8157  if(pendingBets.length > 0){... */\n      tag_170\n      jumpi\n        /* \"contracts/Market.sol\":4995:5001  _stake */\n      dup6\n        /* \"contracts/Market.sol\":5015:8083  while(_remStake >= app.minStake()){... */\n    tag_171:\n        /* \"contracts/Market.sol\":5034:5037  app */\n      immutable(\"0xa4f21281edf90d86f21da3432ee4f5dff8abfbde6aab55afd7f9f7d4d3676c77\")\n      sub(shl(0xa0, 0x01), 0x01)\n        /* \"contracts/Market.sol\":5034:5046  app.minStake */\n      and\n      0x375b3c0a\n        /* \"contracts/Market.sol\":5034:5048  app.minStake() */\n      mload(0x40)\n      dup2\n      0xffffffff\n      and\n      0xe0\n      shl\n      dup2\n      mstore\n      0x04\n      add\n      0x20\n      mload(0x40)\n      dup1\n      dup4\n      sub\n      dup2\n      dup7\n      gas\n      staticcall\n      iszero\n      dup1\n      iszero\n      tag_174\n      jumpi\n      returndatasize\n      0x00\n      dup1\n      returndatacopy\n      revert(0x00, returndatasize)\n    tag_174:\n      pop\n      pop\n      pop\n      pop\n      mload(0x40)\n      returndatasize\n      not(0x1f)\n      0x1f\n      dup3\n      add\n      and\n      dup3\n      add\n      dup1\n      0x40\n      mstore\n      pop\n      dup2\n      add\n      swap1\n      tag_175\n      swap2\n      swap1\n      tag_79\n      jump\t// in\n    tag_175:\n        /* \"contracts/Market.sol\":5021:5030  _remStake */\n      dup2\n        /* \"contracts/Market.sol\":5021:5048  _remStake >= app.minStake() */\n      lt\n        /* \"contracts/Market.sol\":5015:8083  while(_remStake >= app.minStake()){... */\n      tag_172\n      jumpi\n        /* \"contracts/Market.sol\":5067:5085  uint selectedIndex */\n      0x00\n        /* \"contracts/Market.sol\":5107:5122  uint256 maxOdds */\n      dup1\n        /* \"contracts/Market.sol\":5148:5154  uint i */\n      0x00\n        /* \"contracts/Market.sol\":5144:5541  for(uint i = 0; i < pendingBets.length; i++){... */\n    tag_176:\n        /* \"contracts/Market.sol\":5164:5175  pendingBets */\n      0x05\n        /* \"contracts/Market.sol\":5164:5182  pendingBets.length */\n      sload\n        /* \"contracts/Market.sol\":5160:5182  i < pendingBets.length */\n      dup2\n      lt\n        /* \"contracts/Market.sol\":5144:5541  for(uint i = 0; i < pendingBets.length; i++){... */\n      iszero\n      tag_177\n      jumpi\n        /* \"contracts/Market.sol\":5210:5222  bytes32 pBet */\n      0x00\n        /* \"contracts/Market.sol\":5225:5236  pendingBets */\n      0x05\n        /* \"contracts/Market.sol\":5237:5238  i */\n      dup3\n        /* \"contracts/Market.sol\":5225:5239  pendingBets[i] */\n      dup2\n      sload\n      dup2\n      lt\n      tag_180\n      jumpi\n      tag_180\n      tag_64\n      jump\t// in\n    tag_180:\n      swap1\n      0x00\n      mstore\n      keccak256(0x00, 0x20)\n      add\n      sload\n        /* \"contracts/Market.sol\":5210:5239  bytes32 pBet = pendingBets[i] */\n      swap1\n      pop\n        /* \"contracts/Market.sol\":5273:5281  betsInfo */\n      0x07\n        /* \"contracts/Market.sol\":5273:5287  betsInfo[pBet] */\n      0x00\n        /* \"contracts/Market.sol\":5282:5286  pBet */\n      dup3\n        /* \"contracts/Market.sol\":5273:5287  betsInfo[pBet] */\n      dup2\n      mstore\n      0x20\n      add\n      swap1\n      dup2\n      mstore\n      0x20\n      add\n      0x00\n      keccak256\n        /* \"contracts/Market.sol\":5273:5292  betsInfo[pBet].side */\n      0x05\n      add\n      sload\n        /* \"contracts/Market.sol\":5264:5269  _side */\n      dup10\n        /* \"contracts/Market.sol\":5264:5292  _side == betsInfo[pBet].side */\n      sub\n        /* \"contracts/Market.sol\":5261:5350  if(_side == betsInfo[pBet].side){... */\n      tag_182\n      jumpi\n        /* \"contracts/Market.sol\":5319:5327  continue */\n      pop\n      jump(tag_178)\n        /* \"contracts/Market.sol\":5261:5350  if(_side == betsInfo[pBet].side){... */\n    tag_182:\n        /* \"contracts/Market.sol\":5374:5388  betsInfo[pBet] */\n      0x00\n      dup2\n      dup2\n      mstore\n        /* \"contracts/Market.sol\":5374:5382  betsInfo */\n      0x07\n        /* \"contracts/Market.sol\":5374:5388  betsInfo[pBet] */\n      0x20\n      mstore\n      0x40\n      swap1\n      keccak256\n        /* \"contracts/Market.sol\":5374:5393  betsInfo[pBet].odds */\n      0x04\n      add\n      sload\n        /* \"contracts/Market.sol\":5374:5401  betsInfo[pBet].odds>maxOdds */\n      dup4\n      lt\n        /* \"contracts/Market.sol\":5371:5523  if(betsInfo[pBet].odds>maxOdds){... */\n      iszero\n      tag_183\n      jumpi\n        /* \"contracts/Market.sol\":5438:5452  betsInfo[pBet] */\n      0x00\n      dup2\n      dup2\n      mstore\n        /* \"contracts/Market.sol\":5438:5446  betsInfo */\n      0x07\n        /* \"contracts/Market.sol\":5438:5452  betsInfo[pBet] */\n      0x20\n      mstore\n      0x40\n      swap1\n      keccak256\n        /* \"contracts/Market.sol\":5438:5457  betsInfo[pBet].odds */\n      0x04\n      add\n      sload\n        /* \"contracts/Market.sol\":5499:5500  i */\n      swap2\n      swap4\n      pop\n        /* \"contracts/Market.sol\":5438:5457  betsInfo[pBet].odds */\n      swap1\n      swap2\n      pop\n        /* \"contracts/Market.sol\":5499:5500  i */\n      dup3\n      swap1\n        /* \"contracts/Market.sol\":5371:5523  if(betsInfo[pBet].odds>maxOdds){... */\n    tag_183:\n        /* \"contracts/Market.sol\":5188:5541  {... */\n      pop\n        /* \"contracts/Market.sol\":5144:5541  for(uint i = 0; i < pendingBets.length; i++){... */\n    tag_178:\n        /* \"contracts/Market.sol\":5184:5187  i++ */\n      dup1\n      tag_184\n      dup2\n      tag_68\n      jump\t// in\n    tag_184:\n      swap2\n      pop\n      pop\n        /* \"contracts/Market.sol\":5144:5541  for(uint i = 0; i < pendingBets.length; i++){... */\n      jump(tag_176)\n    tag_177:\n      pop\n        /* \"contracts/Market.sol\":5571:5576  _odds */\n      dup8\n        /* \"contracts/Market.sol\":5561:5568  maxOdds */\n      dup2\n        /* \"contracts/Market.sol\":5561:5576  maxOdds > _odds */\n      gt\n        /* \"contracts/Market.sol\":5561:5588  maxOdds > _odds || _instant */\n      dup1\n      tag_185\n      jumpi\n      pop\n        /* \"contracts/Market.sol\":5580:5588  _instant */\n      dup6\n        /* \"contracts/Market.sol\":5561:5588  maxOdds > _odds || _instant */\n    tag_185:\n        /* \"contracts/Market.sol\":5558:8069  if(maxOdds > _odds || _instant) {... */\n      iszero\n      tag_186\n      jumpi\n        /* \"contracts/Market.sol\":5612:5632  bytes32 selectedHash */\n      0x00\n        /* \"contracts/Market.sol\":5635:5646  pendingBets */\n      0x05\n        /* \"contracts/Market.sol\":5647:5660  selectedIndex */\n      dup4\n        /* \"contracts/Market.sol\":5635:5661  pendingBets[selectedIndex] */\n      dup2\n      sload\n      dup2\n      lt\n      tag_188\n      jumpi\n      tag_188\n      tag_64\n      jump\t// in\n    tag_188:\n      0x00\n      swap2\n      dup3\n      mstore\n      0x20\n      dup1\n      dup4\n      keccak256\n      swap1\n      swap2\n      add\n      sload\n        /* \"contracts/Market.sol\":5714:5736  betsInfo[selectedHash] */\n      dup1\n      dup4\n      mstore\n        /* \"contracts/Market.sol\":5714:5722  betsInfo */\n      0x07\n        /* \"contracts/Market.sol\":5714:5736  betsInfo[selectedHash] */\n      dup3\n      mstore\n      0x40\n      dup1\n      dup5\n      keccak256\n        /* \"contracts/Market.sol\":5683:5736  MarketBet memory selectedBet = betsInfo[selectedHash] */\n      dup2\n      mload\n      0xc0\n      dup2\n      add\n      dup4\n      mstore\n      dup2\n      sload\n      sub(shl(0xa0, 0x01), 0x01)\n      swap1\n      dup2\n      and\n      dup3\n      mstore\n      0x01\n      dup4\n      add\n      sload\n      and\n      swap5\n      dup2\n      add\n      swap5\n      swap1\n      swap5\n      mstore\n      0x02\n      dup2\n      add\n      sload\n      swap2\n      dup5\n      add\n      swap2\n      swap1\n      swap2\n      mstore\n      0x03\n      dup2\n      add\n      sload\n      0x60\n      dup5\n      add\n      mstore\n      0x04\n      dup2\n      add\n      sload\n      0x80\n      dup5\n      add\n      mstore\n      0x05\n      add\n      sload\n      0xa0\n      dup4\n      add\n      mstore\n        /* \"contracts/Market.sol\":5635:5661  pendingBets[selectedIndex] */\n      swap3\n      pop\n        /* \"contracts/Market.sol\":5683:5736  MarketBet memory selectedBet = betsInfo[selectedHash] */\n      swap1\n        /* \"contracts/Market.sol\":5823:5834  _odds - 100 */\n      tag_190\n        /* \"contracts/Market.sol\":5831:5834  100 */\n      0x64\n        /* \"contracts/Market.sol\":5823:5828  _odds */\n      dup13\n        /* \"contracts/Market.sol\":5823:5834  _odds - 100 */\n      tag_98\n      jump\t// in\n    tag_190:\n        /* \"contracts/Market.sol\":5799:5810  selectedBet */\n      dup3\n        /* \"contracts/Market.sol\":5799:5818  selectedBet.matched */\n      0x60\n      add\n      mload\n        /* \"contracts/Market.sol\":5779:5790  selectedBet */\n      dup4\n        /* \"contracts/Market.sol\":5779:5796  selectedBet.stake */\n      0x40\n      add\n      mload\n        /* \"contracts/Market.sol\":5779:5818  selectedBet.stake - selectedBet.matched */\n      tag_191\n      swap2\n      swap1\n      tag_98\n      jump\t// in\n    tag_191:\n        /* \"contracts/Market.sol\":5778:5835  (selectedBet.stake - selectedBet.matched) / (_odds - 100) */\n      tag_192\n      swap2\n      swap1\n      tag_168\n      jump\t// in\n    tag_192:\n        /* \"contracts/Market.sol\":5758:5835  uint offeredStake = (selectedBet.stake - selectedBet.matched) / (_odds - 100) */\n      swap1\n      pop\n        /* \"contracts/Market.sol\":5857:5876  offeredStake *= 100 */\n      tag_193\n        /* \"contracts/Market.sol\":5873:5876  100 */\n      0x64\n        /* \"contracts/Market.sol\":5758:5835  uint offeredStake = (selectedBet.stake - selectedBet.matched) / (_odds - 100) */\n      dup3\n        /* \"contracts/Market.sol\":5857:5876  offeredStake *= 100 */\n      tag_166\n      jump\t// in\n    tag_193:\n      swap1\n      pop\n        /* \"contracts/Market.sol\":5898:5915  uint betterAmount */\n      0x00\n        /* \"contracts/Market.sol\":5937:5953  uint makerAmount */\n      dup1\n        /* \"contracts/Market.sol\":5975:5991  bytes32 pairHash */\n      0x00\n        /* \"contracts/Market.sol\":6032:6038  _stake */\n      dup15\n        /* \"contracts/Market.sol\":6016:6028  offeredStake */\n      dup5\n        /* \"contracts/Market.sol\":6016:6038  offeredStake <= _stake */\n      gt\n        /* \"contracts/Market.sol\":6013:7472  if(offeredStake <= _stake) {... */\n      tag_194\n      jumpi\n        /* \"contracts/Market.sol\":6081:6093  offeredStake */\n      dup4\n      swap3\n      pop\n        /* \"contracts/Market.sol\":6149:6160  _odds - 100 */\n      tag_195\n        /* \"contracts/Market.sol\":6157:6160  100 */\n      0x64\n        /* \"contracts/Market.sol\":6149:6154  _odds */\n      dup16\n        /* \"contracts/Market.sol\":6149:6160  _odds - 100 */\n      tag_98\n      jump\t// in\n    tag_195:\n        /* \"contracts/Market.sol\":6133:6161  offeredStake * (_odds - 100) */\n      tag_196\n      swap1\n        /* \"contracts/Market.sol\":6133:6145  offeredStake */\n      dup6\n        /* \"contracts/Market.sol\":6133:6161  offeredStake * (_odds - 100) */\n      tag_166\n      jump\t// in\n    tag_196:\n        /* \"contracts/Market.sol\":6119:6161  makerAmount = offeredStake * (_odds - 100) */\n      swap2\n      pop\n        /* \"contracts/Market.sol\":6187:6205  makerAmount /= 100 */\n      tag_197\n        /* \"contracts/Market.sol\":6202:6205  100 */\n      0x64\n        /* \"contracts/Market.sol\":6119:6161  makerAmount = offeredStake * (_odds - 100) */\n      dup4\n        /* \"contracts/Market.sol\":6187:6205  makerAmount /= 100 */\n      tag_168\n      jump\t// in\n    tag_197:\n      swap2\n      pop\n        /* \"contracts/Market.sol\":6234:6239  _side */\n      dup13\n        /* \"contracts/Market.sol\":6243:6244  1 */\n      0x01\n        /* \"contracts/Market.sol\":6234:6244  _side == 1 */\n      sub\n        /* \"contracts/Market.sol\":6231:6727  if(_side == 1){... */\n      tag_198\n      jumpi\n        /* \"contracts/Market.sol\":6286:6344  _createPair(betHash,selectedHash,betterAmount,makerAmount) */\n      tag_199\n        /* \"contracts/Market.sol\":6298:6305  betHash */\n      dup11\n        /* \"contracts/Market.sol\":6306:6318  selectedHash */\n      dup8\n        /* \"contracts/Market.sol\":6319:6331  betterAmount */\n      dup6\n        /* \"contracts/Market.sol\":6332:6343  makerAmount */\n      dup6\n        /* \"contracts/Market.sol\":6286:6297  _createPair */\n      tag_200\n        /* \"contracts/Market.sol\":6286:6344  _createPair(betHash,selectedHash,betterAmount,makerAmount) */\n      jump\t// in\n    tag_199:\n        /* \"contracts/Market.sol\":6379:6437  PairCreated(betHash,selectedHash,betterAmount,makerAmount) */\n      0x40\n      dup1\n      mload\n        /* \"#utility.yul\":9118:9143   */\n      dup13\n      dup2\n      mstore\n        /* \"#utility.yul\":9174:9176   */\n      0x20\n        /* \"#utility.yul\":9159:9177   */\n      dup2\n      add\n        /* \"#utility.yul\":9152:9186   */\n      dup10\n      swap1\n      mstore\n        /* \"#utility.yul\":9202:9220   */\n      swap1\n      dup2\n      add\n        /* \"#utility.yul\":9195:9229   */\n      dup6\n      swap1\n      mstore\n        /* \"#utility.yul\":9260:9262   */\n      0x60\n        /* \"#utility.yul\":9245:9263   */\n      dup2\n      add\n        /* \"#utility.yul\":9238:9272   */\n      dup5\n      swap1\n      mstore\n        /* \"contracts/Market.sol\":6275:6344  pairHash = _createPair(betHash,selectedHash,betterAmount,makerAmount) */\n      swap1\n      swap2\n      pop\n        /* \"contracts/Market.sol\":6379:6437  PairCreated(betHash,selectedHash,betterAmount,makerAmount) */\n      0x5de48bb383b4a2aaad84721b80d93429b813651b0eefbd59d32018cfe28215dc\n      swap1\n        /* \"#utility.yul\":9105:9108   */\n      0x80\n        /* \"#utility.yul\":9090:9109   */\n      add\n        /* \"contracts/Market.sol\":6379:6437  PairCreated(betHash,selectedHash,betterAmount,makerAmount) */\n    tag_201:\n      mload(0x40)\n      dup1\n      swap2\n      sub\n      swap1\n      log1\n        /* \"contracts/Market.sol\":6013:7472  if(offeredStake <= _stake) {... */\n      jump(tag_215)\n        /* \"contracts/Market.sol\":6231:6727  if(_side == 1){... */\n    tag_198:\n        /* \"contracts/Market.sol\":6497:6502  _side */\n      dup13\n        /* \"contracts/Market.sol\":6506:6507  2 */\n      0x02\n        /* \"contracts/Market.sol\":6497:6507  _side == 2 */\n      sub\n        /* \"contracts/Market.sol\":6494:6727  if(_side == 2){... */\n      tag_204\n      jumpi\n        /* \"contracts/Market.sol\":6549:6607  _createPair(selectedHash,betHash,makerAmount,betterAmount) */\n      tag_205\n        /* \"contracts/Market.sol\":6561:6573  selectedHash */\n      dup7\n        /* \"contracts/Market.sol\":6574:6581  betHash */\n      dup12\n        /* \"contracts/Market.sol\":6582:6593  makerAmount */\n      dup5\n        /* \"contracts/Market.sol\":6594:6606  betterAmount */\n      dup7\n        /* \"contracts/Market.sol\":6549:6560  _createPair */\n      tag_200\n        /* \"contracts/Market.sol\":6549:6607  _createPair(selectedHash,betHash,makerAmount,betterAmount) */\n      jump\t// in\n    tag_205:\n        /* \"contracts/Market.sol\":6642:6700  PairCreated(selectedHash,betHash,makerAmount,betterAmount) */\n      0x40\n      dup1\n      mload\n        /* \"#utility.yul\":9118:9143   */\n      dup9\n      dup2\n      mstore\n        /* \"#utility.yul\":9174:9176   */\n      0x20\n        /* \"#utility.yul\":9159:9177   */\n      dup2\n      add\n        /* \"#utility.yul\":9152:9186   */\n      dup14\n      swap1\n      mstore\n        /* \"#utility.yul\":9202:9220   */\n      swap1\n      dup2\n      add\n        /* \"#utility.yul\":9195:9229   */\n      dup5\n      swap1\n      mstore\n        /* \"#utility.yul\":9260:9262   */\n      0x60\n        /* \"#utility.yul\":9245:9263   */\n      dup2\n      add\n        /* \"#utility.yul\":9238:9272   */\n      dup6\n      swap1\n      mstore\n        /* \"contracts/Market.sol\":6538:6607  pairHash = _createPair(selectedHash,betHash,makerAmount,betterAmount) */\n      swap1\n      swap2\n      pop\n        /* \"contracts/Market.sol\":6642:6700  PairCreated(selectedHash,betHash,makerAmount,betterAmount) */\n      0x5de48bb383b4a2aaad84721b80d93429b813651b0eefbd59d32018cfe28215dc\n      swap1\n        /* \"#utility.yul\":9105:9108   */\n      0x80\n        /* \"#utility.yul\":9090:9109   */\n      add\n        /* \"contracts/Market.sol\":6642:6700  PairCreated(selectedHash,betHash,makerAmount,betterAmount) */\n      tag_201\n        /* \"#utility.yul\":8887:9278   */\n      jump\n        /* \"contracts/Market.sol\":6494:6727  if(_side == 2){... */\n    tag_204:\n        /* \"contracts/Market.sol\":6013:7472  if(offeredStake <= _stake) {... */\n      jump(tag_215)\n    tag_194:\n        /* \"contracts/Market.sol\":6816:6822  _stake */\n      dup15\n      swap3\n      pop\n        /* \"contracts/Market.sol\":6872:6883  _odds - 100 */\n      tag_208\n        /* \"contracts/Market.sol\":6880:6883  100 */\n      0x64\n        /* \"contracts/Market.sol\":6872:6877  _odds */\n      dup16\n        /* \"contracts/Market.sol\":6872:6883  _odds - 100 */\n      tag_98\n      jump\t// in\n    tag_208:\n        /* \"contracts/Market.sol\":6862:6868  _stake */\n      dup16\n        /* \"contracts/Market.sol\":6862:6884  _stake * (_odds - 100) */\n      tag_209\n      swap2\n      swap1\n      tag_166\n      jump\t// in\n    tag_209:\n        /* \"contracts/Market.sol\":6848:6884  makerAmount = _stake * (_odds - 100) */\n      swap2\n      pop\n        /* \"contracts/Market.sol\":6910:6928  makerAmount /= 100 */\n      tag_210\n        /* \"contracts/Market.sol\":6925:6928  100 */\n      0x64\n        /* \"contracts/Market.sol\":6848:6884  makerAmount = _stake * (_odds - 100) */\n      dup4\n        /* \"contracts/Market.sol\":6910:6928  makerAmount /= 100 */\n      tag_168\n      jump\t// in\n    tag_210:\n      swap2\n      pop\n        /* \"contracts/Market.sol\":6957:6962  _side */\n      dup13\n        /* \"contracts/Market.sol\":6966:6967  1 */\n      0x01\n        /* \"contracts/Market.sol\":6957:6967  _side == 1 */\n      sub\n        /* \"contracts/Market.sol\":6954:7450  if(_side == 1){... */\n      tag_211\n      jumpi\n        /* \"contracts/Market.sol\":7009:7067  _createPair(betHash,selectedHash,betterAmount,makerAmount) */\n      tag_199\n        /* \"contracts/Market.sol\":7021:7028  betHash */\n      dup11\n        /* \"contracts/Market.sol\":7029:7041  selectedHash */\n      dup8\n        /* \"contracts/Market.sol\":7042:7054  betterAmount */\n      dup6\n        /* \"contracts/Market.sol\":7055:7066  makerAmount */\n      dup6\n        /* \"contracts/Market.sol\":7009:7020  _createPair */\n      tag_200\n        /* \"contracts/Market.sol\":7009:7067  _createPair(betHash,selectedHash,betterAmount,makerAmount) */\n      jump\t// in\n        /* \"contracts/Market.sol\":6954:7450  if(_side == 1){... */\n    tag_211:\n        /* \"contracts/Market.sol\":7220:7225  _side */\n      dup13\n        /* \"contracts/Market.sol\":7229:7230  2 */\n      0x02\n        /* \"contracts/Market.sol\":7220:7230  _side == 2 */\n      sub\n        /* \"contracts/Market.sol\":7217:7450  if(_side == 2){... */\n      tag_215\n      jumpi\n        /* \"contracts/Market.sol\":7272:7330  _createPair(selectedHash,betHash,makerAmount,betterAmount) */\n      tag_216\n        /* \"contracts/Market.sol\":7284:7296  selectedHash */\n      dup7\n        /* \"contracts/Market.sol\":7297:7304  betHash */\n      dup12\n        /* \"contracts/Market.sol\":7305:7316  makerAmount */\n      dup5\n        /* \"contracts/Market.sol\":7317:7329  betterAmount */\n      dup7\n        /* \"contracts/Market.sol\":7272:7283  _createPair */\n      tag_200\n        /* \"contracts/Market.sol\":7272:7330  _createPair(selectedHash,betHash,makerAmount,betterAmount) */\n      jump\t// in\n    tag_216:\n        /* \"contracts/Market.sol\":7365:7423  PairCreated(selectedHash,betHash,makerAmount,betterAmount) */\n      0x40\n      dup1\n      mload\n        /* \"#utility.yul\":9118:9143   */\n      dup9\n      dup2\n      mstore\n        /* \"#utility.yul\":9174:9176   */\n      0x20\n        /* \"#utility.yul\":9159:9177   */\n      dup2\n      add\n        /* \"#utility.yul\":9152:9186   */\n      dup14\n      swap1\n      mstore\n        /* \"#utility.yul\":9202:9220   */\n      swap1\n      dup2\n      add\n        /* \"#utility.yul\":9195:9229   */\n      dup5\n      swap1\n      mstore\n        /* \"#utility.yul\":9260:9262   */\n      0x60\n        /* \"#utility.yul\":9245:9263   */\n      dup2\n      add\n        /* \"#utility.yul\":9238:9272   */\n      dup6\n      swap1\n      mstore\n        /* \"contracts/Market.sol\":7261:7330  pairHash = _createPair(selectedHash,betHash,makerAmount,betterAmount) */\n      swap1\n      swap2\n      pop\n        /* \"contracts/Market.sol\":7365:7423  PairCreated(selectedHash,betHash,makerAmount,betterAmount) */\n      0x5de48bb383b4a2aaad84721b80d93429b813651b0eefbd59d32018cfe28215dc\n      swap1\n        /* \"#utility.yul\":9105:9108   */\n      0x80\n        /* \"#utility.yul\":9090:9109   */\n      add\n        /* \"contracts/Market.sol\":7365:7423  PairCreated(selectedHash,betHash,makerAmount,betterAmount) */\n      mload(0x40)\n      dup1\n      swap2\n      sub\n      swap1\n      log1\n        /* \"contracts/Market.sol\":7217:7450  if(_side == 2){... */\n    tag_215:\n        /* \"contracts/Market.sol\":7493:7510  betPairs[betHash] */\n      0x00\n      dup11\n      dup2\n      mstore\n        /* \"contracts/Market.sol\":7493:7501  betPairs */\n      0x0a\n        /* \"contracts/Market.sol\":7493:7510  betPairs[betHash] */\n      0x20\n      swap1\n      dup2\n      mstore\n      0x40\n      dup1\n      dup4\n      keccak256\n        /* \"contracts/Market.sol\":7493:7525  betPairs[betHash].push(pairHash) */\n      dup1\n      sload\n      0x01\n      dup2\n      dup2\n      add\n      dup4\n      sstore\n      swap2\n      dup6\n      mstore\n      dup4\n      dup6\n      keccak256\n      add\n      dup6\n      swap1\n      sstore\n        /* \"contracts/Market.sol\":7547:7569  betPairs[selectedHash] */\n      dup10\n      dup5\n      mstore\n      dup2\n      dup5\n      keccak256\n        /* \"contracts/Market.sol\":7547:7584  betPairs[selectedHash].push(pairHash) */\n      dup1\n      sload\n      swap2\n      dup3\n      add\n      dup2\n      sstore\n      dup5\n      mstore\n      dup3\n      dup5\n      keccak256\n      add\n      dup5\n      swap1\n      sstore\n        /* \"contracts/Market.sol\":7606:7623  betsInfo[betHash] */\n      dup13\n      dup4\n      mstore\n        /* \"contracts/Market.sol\":7606:7614  betsInfo */\n      0x07\n        /* \"contracts/Market.sol\":7606:7623  betsInfo[betHash] */\n      swap1\n      swap2\n      mstore\n      dup2\n      keccak256\n        /* \"contracts/Market.sol\":7606:7631  betsInfo[betHash].matched */\n      0x03\n      add\n        /* \"contracts/Market.sol\":7606:7647  betsInfo[betHash].matched += betterAmount */\n      dup1\n      sload\n        /* \"contracts/Market.sol\":7635:7647  betterAmount */\n      dup6\n      swap3\n        /* \"contracts/Market.sol\":7493:7510  betPairs[betHash] */\n      swap1\n        /* \"contracts/Market.sol\":7606:7647  betsInfo[betHash].matched += betterAmount */\n      tag_220\n      swap1\n        /* \"contracts/Market.sol\":7635:7647  betterAmount */\n      dup5\n      swap1\n        /* \"contracts/Market.sol\":7606:7647  betsInfo[betHash].matched += betterAmount */\n      tag_221\n      jump\t// in\n    tag_220:\n      swap1\n      swap2\n      sstore\n      pop\n      pop\n        /* \"contracts/Market.sol\":7669:7691  betsInfo[selectedHash] */\n      0x00\n      dup7\n      dup2\n      mstore\n        /* \"contracts/Market.sol\":7669:7677  betsInfo */\n      0x07\n        /* \"contracts/Market.sol\":7669:7691  betsInfo[selectedHash] */\n      0x20\n      mstore\n      0x40\n      dup2\n      keccak256\n        /* \"contracts/Market.sol\":7669:7699  betsInfo[selectedHash].matched */\n      0x03\n      add\n        /* \"contracts/Market.sol\":7669:7714  betsInfo[selectedHash].matched += makerAmount */\n      dup1\n      sload\n        /* \"contracts/Market.sol\":7703:7714  makerAmount */\n      dup5\n      swap3\n        /* \"contracts/Market.sol\":7669:7691  betsInfo[selectedHash] */\n      swap1\n        /* \"contracts/Market.sol\":7669:7714  betsInfo[selectedHash].matched += makerAmount */\n      tag_222\n      swap1\n        /* \"contracts/Market.sol\":7703:7714  makerAmount */\n      dup5\n      swap1\n        /* \"contracts/Market.sol\":7669:7714  betsInfo[selectedHash].matched += makerAmount */\n      tag_221\n      jump\t// in\n    tag_222:\n      swap1\n      swap2\n      sstore\n      pop\n      pop\n        /* \"contracts/Market.sol\":7770:7792  betsInfo[selectedHash] */\n      0x00\n      dup7\n      dup2\n      mstore\n        /* \"contracts/Market.sol\":7770:7778  betsInfo */\n      0x07\n        /* \"contracts/Market.sol\":7770:7792  betsInfo[selectedHash] */\n      0x20\n      mstore\n      0x40\n      swap1\n      keccak256\n        /* \"contracts/Market.sol\":7770:7800  betsInfo[selectedHash].matched */\n      0x03\n      dup2\n      add\n      sload\n        /* \"contracts/Market.sol\":7739:7767  betsInfo[selectedHash].stake */\n      0x02\n      swap1\n      swap2\n      add\n      sload\n        /* \"contracts/Market.sol\":7739:7800  betsInfo[selectedHash].stake - betsInfo[selectedHash].matched */\n      tag_223\n      swap2\n        /* \"contracts/Market.sol\":7770:7800  betsInfo[selectedHash].matched */\n      swap1\n        /* \"contracts/Market.sol\":7739:7800  betsInfo[selectedHash].stake - betsInfo[selectedHash].matched */\n      tag_98\n      jump\t// in\n    tag_223:\n        /* \"contracts/Market.sol\":7804:7805  0 */\n      0x00\n        /* \"contracts/Market.sol\":7739:7805  betsInfo[selectedHash].stake - betsInfo[selectedHash].matched == 0 */\n      sub\n        /* \"contracts/Market.sol\":7736:7889  if(betsInfo[selectedHash].stake - betsInfo[selectedHash].matched == 0) {... */\n      tag_224\n      jumpi\n        /* \"contracts/Market.sol\":7840:7851  pendingBets */\n      0x05\n        /* \"contracts/Market.sol\":7852:7865  selectedIndex */\n      dup9\n        /* \"contracts/Market.sol\":7840:7866  pendingBets[selectedIndex] */\n      dup2\n      sload\n      dup2\n      lt\n      tag_226\n      jumpi\n      tag_226\n      tag_64\n      jump\t// in\n    tag_226:\n      0x00\n      swap2\n      dup3\n      mstore\n      0x20\n      dup3\n      keccak256\n      add\n        /* \"contracts/Market.sol\":7833:7866  delete pendingBets[selectedIndex] */\n      sstore\n        /* \"contracts/Market.sol\":7736:7889  if(betsInfo[selectedHash].stake - betsInfo[selectedHash].matched == 0) {... */\n    tag_224:\n        /* \"contracts/Market.sol\":7910:7935  _remStake -= betterAmount */\n      tag_228\n        /* \"contracts/Market.sol\":7923:7935  betterAmount */\n      dup4\n        /* \"contracts/Market.sol\":7910:7935  _remStake -= betterAmount */\n      dup11\n      tag_98\n      jump\t// in\n    tag_228:\n      swap9\n      pop\n        /* \"contracts/Market.sol\":5590:7954  {... */\n      pop\n      pop\n      pop\n      pop\n      pop\n      pop\n        /* \"contracts/Market.sol\":5558:8069  if(maxOdds > _odds || _instant) {... */\n      jump(tag_229)\n    tag_186:\n      pop\n      pop\n        /* \"contracts/Market.sol\":7998:8009  pendingBets */\n      0x05\n        /* \"contracts/Market.sol\":7998:8023  pendingBets.push(betHash) */\n      dup1\n      sload\n      0x01\n      dup2\n      add\n      dup3\n      sstore\n      0x00\n      swap2\n      swap1\n      swap2\n      mstore\n      0x036b6384b5eca791c62761152d0c79bb0604c104a5fb6f4eb0703f3154bb3db0\n      add\n      dup3\n      swap1\n      sstore\n        /* \"contracts/Market.sol\":8045:8050  break */\n      jump(tag_172)\n        /* \"contracts/Market.sol\":5558:8069  if(maxOdds > _odds || _instant) {... */\n    tag_229:\n        /* \"contracts/Market.sol\":5049:8083  {... */\n      pop\n      pop\n        /* \"contracts/Market.sol\":5015:8083  while(_remStake >= app.minStake()){... */\n      jump(tag_171)\n    tag_172:\n        /* \"contracts/Market.sol\":4964:8093  {... */\n      pop\n        /* \"contracts/Market.sol\":4938:8157  if(pendingBets.length > 0){... */\n      jump(tag_231)\n    tag_170:\n        /* \"contracts/Market.sol\":8121:8132  pendingBets */\n      0x05\n        /* \"contracts/Market.sol\":8121:8146  pendingBets.push(betHash) */\n      dup1\n      sload\n      0x01\n      dup2\n      add\n      dup3\n      sstore\n      0x00\n      swap2\n      swap1\n      swap2\n      mstore\n      0x036b6384b5eca791c62761152d0c79bb0604c104a5fb6f4eb0703f3154bb3db0\n      add\n      dup2\n      swap1\n      sstore\n        /* \"contracts/Market.sol\":4938:8157  if(pendingBets.length > 0){... */\n    tag_231:\n        /* \"contracts/Market.sol\":8171:8239  BetCreated(msg.sender, address(this), betHash, _stake, _odds, _side) */\n      0x40\n      dup1\n      mload\n        /* \"contracts/Market.sol\":8182:8192  msg.sender */\n      caller\n        /* \"#utility.yul\":9738:9772   */\n      dup2\n      mstore\n        /* \"contracts/Market.sol\":8202:8206  this */\n      address\n        /* \"#utility.yul\":9803:9805   */\n      0x20\n        /* \"#utility.yul\":9788:9806   */\n      dup3\n      add\n        /* \"#utility.yul\":9781:9824   */\n      mstore\n        /* \"#utility.yul\":9840:9858   */\n      swap1\n      dup2\n      add\n        /* \"#utility.yul\":9833:9867   */\n      dup3\n      swap1\n      mstore\n        /* \"#utility.yul\":9898:9900   */\n      0x60\n        /* \"#utility.yul\":9883:9901   */\n      dup2\n      add\n        /* \"#utility.yul\":9876:9910   */\n      dup8\n      swap1\n      mstore\n        /* \"#utility.yul\":9941:9944   */\n      0x80\n        /* \"#utility.yul\":9926:9945   */\n      dup2\n      add\n        /* \"#utility.yul\":9919:9954   */\n      dup7\n      swap1\n      mstore\n        /* \"#utility.yul\":9718:9721   */\n      0xa0\n        /* \"#utility.yul\":9970:9989   */\n      dup2\n      add\n        /* \"#utility.yul\":9963:9998   */\n      dup6\n      swap1\n      mstore\n        /* \"contracts/Market.sol\":8171:8239  BetCreated(msg.sender, address(this), betHash, _stake, _odds, _side) */\n      0x618f358bb45538682ade624a4a1959053d9dabd20fe300508034b879681b37be\n      swap1\n        /* \"#utility.yul\":9687:9690   */\n      0xc0\n        /* \"#utility.yul\":9672:9691   */\n      add\n        /* \"contracts/Market.sol\":8171:8239  BetCreated(msg.sender, address(this), betHash, _stake, _odds, _side) */\n      mload(0x40)\n      dup1\n      swap2\n      sub\n      swap1\n      log1\n        /* \"contracts/Market.sol\":8256:8263  betHash */\n      swap8\n        /* \"contracts/Market.sol\":4096:8270  function addBet(... */\n      swap7\n      pop\n      pop\n      pop\n      pop\n      pop\n      pop\n      pop\n      jump\t// out\n        /* \"contracts/Market.sol\":2549:3043  function cancelPending(bytes32 _bet) external override nonReentrant {... */\n    tag_44:\n        /* \"@openzeppelin/contracts/security/ReentrancyGuard.sol\":1744:1745  2 */\n      0x02\n        /* \"@openzeppelin/contracts/security/ReentrancyGuard.sol\":2325:2332  _status */\n      sload(0x00)\n        /* \"@openzeppelin/contracts/security/ReentrancyGuard.sol\":2325:2344  _status != _ENTERED */\n      sub\n        /* \"@openzeppelin/contracts/security/ReentrancyGuard.sol\":2317:2380  require(_status != _ENTERED, \"ReentrancyGuard: reentrant call\") */\n      tag_236\n      jumpi\n      mload(0x40)\n      shl(0xe5, 0x461bcd)\n      dup2\n      mstore\n      0x04\n      add\n      tag_71\n      swap1\n      tag_72\n      jump\t// in\n    tag_236:\n        /* \"@openzeppelin/contracts/security/ReentrancyGuard.sol\":1744:1745  2 */\n      0x02\n        /* \"@openzeppelin/contracts/security/ReentrancyGuard.sol\":2455:2462  _status */\n      0x00\n        /* \"@openzeppelin/contracts/security/ReentrancyGuard.sol\":2455:2473  _status = _ENTERED */\n      dup2\n      dup2\n      sstore\n        /* \"contracts/Market.sol\":2650:2664  betsInfo[_bet] */\n      dup3\n      dup2\n      mstore\n        /* \"contracts/Market.sol\":2650:2658  betsInfo */\n      0x07\n        /* \"contracts/Market.sol\":2650:2664  betsInfo[_bet] */\n      0x20\n      swap1\n      dup2\n      mstore\n      0x40\n      swap2\n      dup3\n      swap1\n      keccak256\n        /* \"contracts/Market.sol\":2627:2664  MarketBet memory bet = betsInfo[_bet] */\n      dup3\n      mload\n      0xc0\n      dup2\n      add\n      dup5\n      mstore\n      dup2\n      sload\n      sub(shl(0xa0, 0x01), 0x01)\n      swap1\n      dup2\n      and\n      dup1\n      dup4\n      mstore\n      0x01\n      dup5\n      add\n      sload\n      swap1\n      swap2\n      and\n      swap4\n      dup3\n      add\n      swap4\n      swap1\n      swap4\n      mstore\n      swap4\n      dup2\n      add\n      sload\n      swap3\n      dup5\n      add\n      swap3\n      swap1\n      swap3\n      mstore\n      0x03\n      dup3\n      add\n      sload\n      0x60\n      dup5\n      add\n      mstore\n      0x04\n      dup3\n      add\n      sload\n      0x80\n      dup5\n      add\n      mstore\n      0x05\n      swap1\n      swap2\n      add\n      sload\n      0xa0\n      dup4\n      add\n      mstore\n        /* \"contracts/Market.sol\":2682:2692  msg.sender */\n      caller\n        /* \"contracts/Market.sol\":2682:2706  msg.sender == bet.better */\n      eq\n        /* \"contracts/Market.sol\":2674:2713  require(msg.sender == bet.better, \"M4\") */\n      tag_239\n      jumpi\n      mload(0x40)\n      shl(0xe5, 0x461bcd)\n      dup2\n      mstore\n        /* \"#utility.yul\":10211:10213   */\n      0x20\n        /* \"contracts/Market.sol\":2674:2713  require(msg.sender == bet.better, \"M4\") */\n      0x04\n      dup3\n      add\n        /* \"#utility.yul\":10193:10214   */\n      mstore\n        /* \"#utility.yul\":10250:10251   */\n      0x02\n        /* \"#utility.yul\":10230:10248   */\n      0x24\n      dup3\n      add\n        /* \"#utility.yul\":10223:10252   */\n      mstore\n      shl(0xf2, 0x134d)\n        /* \"#utility.yul\":10268:10286   */\n      0x44\n      dup3\n      add\n        /* \"#utility.yul\":10261:10293   */\n      mstore\n        /* \"#utility.yul\":10310:10328   */\n      0x64\n      add\n        /* \"contracts/Market.sol\":2674:2713  require(msg.sender == bet.better, \"M4\") */\n      tag_71\n        /* \"#utility.yul\":10009:10334   */\n      jump\n        /* \"contracts/Market.sol\":2674:2713  require(msg.sender == bet.better, \"M4\") */\n    tag_239:\n        /* \"contracts/Market.sol\":2723:2736  uint remStake */\n      0x00\n        /* \"contracts/Market.sol\":2751:2754  bet */\n      dup2\n        /* \"contracts/Market.sol\":2751:2762  bet.matched */\n      0x60\n      add\n      mload\n        /* \"contracts/Market.sol\":2739:2742  bet */\n      dup3\n        /* \"contracts/Market.sol\":2739:2748  bet.stake */\n      0x40\n      add\n      mload\n        /* \"contracts/Market.sol\":2739:2762  bet.stake - bet.matched */\n      tag_242\n      swap2\n      swap1\n      tag_98\n      jump\t// in\n    tag_242:\n        /* \"contracts/Market.sol\":2776:2786  bet.better */\n      dup3\n      mload\n      sub(shl(0xa0, 0x01), 0x01)\n        /* \"contracts/Market.sol\":2772:2787  bal[bet.better] */\n      and\n      0x00\n      swap1\n      dup2\n      mstore\n        /* \"contracts/Market.sol\":2772:2775  bal */\n      0x06\n        /* \"contracts/Market.sol\":2772:2787  bal[bet.better] */\n      0x20\n      swap1\n      dup2\n      mstore\n      0x40\n      dup1\n      dup4\n      keccak256\n        /* \"contracts/Market.sol\":2772:2798  bal[bet.better] = remStake */\n      dup5\n      swap1\n      sstore\n        /* \"contracts/Market.sol\":2833:2842  bet.stake */\n      dup1\n      dup7\n      add\n      mload\n        /* \"contracts/Market.sol\":2808:2822  betsInfo[_bet] */\n      dup8\n      dup5\n      mstore\n        /* \"contracts/Market.sol\":2808:2816  betsInfo */\n      0x07\n        /* \"contracts/Market.sol\":2808:2822  betsInfo[_bet] */\n      swap1\n      swap3\n      mstore\n      dup3\n      keccak256\n        /* \"contracts/Market.sol\":2808:2830  betsInfo[_bet].matched */\n      0x03\n      add\n        /* \"contracts/Market.sol\":2808:2842  betsInfo[_bet].matched = bet.stake */\n      sstore\n        /* \"contracts/Market.sol\":2723:2762  uint remStake = bet.stake - bet.matched */\n      swap1\n      swap2\n      pop\n        /* \"contracts/Market.sol\":2888:3037  for(uint i = 0; i < pendingBets.length; i++){... */\n    tag_243:\n        /* \"contracts/Market.sol\":2908:2919  pendingBets */\n      0x05\n        /* \"contracts/Market.sol\":2908:2926  pendingBets.length */\n      sload\n        /* \"contracts/Market.sol\":2904:2926  i < pendingBets.length */\n      dup2\n      lt\n        /* \"contracts/Market.sol\":2888:3037  for(uint i = 0; i < pendingBets.length; i++){... */\n      iszero\n      tag_244\n      jumpi\n        /* \"contracts/Market.sol\":2967:2971  _bet */\n      dup4\n        /* \"contracts/Market.sol\":2949:2960  pendingBets */\n      0x05\n        /* \"contracts/Market.sol\":2961:2962  i */\n      dup3\n        /* \"contracts/Market.sol\":2949:2963  pendingBets[i] */\n      dup2\n      sload\n      dup2\n      lt\n      tag_247\n      jumpi\n      tag_247\n      tag_64\n      jump\t// in\n    tag_247:\n      swap1\n      0x00\n      mstore\n      keccak256(0x00, 0x20)\n      add\n      sload\n        /* \"contracts/Market.sol\":2949:2971  pendingBets[i] == _bet */\n      sub\n        /* \"contracts/Market.sol\":2946:3027  if(pendingBets[i] == _bet) {... */\n      tag_249\n      jumpi\n        /* \"contracts/Market.sol\":2998:3009  pendingBets */\n      0x05\n        /* \"contracts/Market.sol\":3010:3011  i */\n      dup2\n        /* \"contracts/Market.sol\":2998:3012  pendingBets[i] */\n      dup2\n      sload\n      dup2\n      lt\n      tag_251\n      jumpi\n      tag_251\n      tag_64\n      jump\t// in\n    tag_251:\n      0x00\n      swap2\n      dup3\n      mstore\n      0x20\n      dup3\n      keccak256\n      add\n        /* \"contracts/Market.sol\":2991:3012  delete pendingBets[i] */\n      sstore\n        /* \"contracts/Market.sol\":2946:3027  if(pendingBets[i] == _bet) {... */\n    tag_249:\n        /* \"contracts/Market.sol\":2928:2931  i++ */\n      dup1\n      tag_253\n      dup2\n      tag_68\n      jump\t// in\n    tag_253:\n      swap2\n      pop\n      pop\n        /* \"contracts/Market.sol\":2888:3037  for(uint i = 0; i < pendingBets.length; i++){... */\n      jump(tag_243)\n    tag_244:\n      pop\n      pop\n        /* \"@openzeppelin/contracts/security/ReentrancyGuard.sol\":1701:1702  1 */\n      0x01\n        /* \"@openzeppelin/contracts/security/ReentrancyGuard.sol\":2628:2635  _status */\n      0x00\n        /* \"@openzeppelin/contracts/security/ReentrancyGuard.sol\":2628:2650  _status = _NOT_ENTERED */\n      sstore\n      pop\n      pop\n        /* \"contracts/Market.sol\":2549:3043  function cancelPending(bytes32 _bet) external override nonReentrant {... */\n      jump\t// out\n        /* \"contracts/Market.sol\":3335:3686  function settle(uint256 _winningSide)... */\n    tag_48:\n        /* \"contracts/Market.sol\":1248:1255  factory */\n      sload(0x01)\n        /* \"contracts/Market.sol\":3426:3430  bool */\n      0x00\n      swap1\n      sub(shl(0xa0, 0x01), 0x01)\n        /* \"contracts/Market.sol\":1248:1255  factory */\n      and\n        /* \"contracts/Market.sol\":1234:1244  msg.sender */\n      caller\n        /* \"contracts/Market.sol\":1234:1255  msg.sender == factory */\n      eq\n        /* \"contracts/Market.sol\":1213:1283  require(... */\n      tag_255\n      jumpi\n      mload(0x40)\n      shl(0xe5, 0x461bcd)\n      dup2\n      mstore\n      0x04\n      add\n      tag_71\n      swap1\n      tag_115\n      jump\t// in\n    tag_255:\n        /* \"contracts/Market.sol\":3456:3462  status */\n      sload(0x02)\n        /* \"contracts/Market.sol\":3456:3467  status == 0 */\n      iszero\n      dup1\n        /* \"contracts/Market.sol\":3456:3482  status == 0 || status == 4 */\n      tag_258\n      jumpi\n      pop\n        /* \"contracts/Market.sol\":3471:3477  status */\n      sload(0x02)\n        /* \"contracts/Market.sol\":3481:3482  4 */\n      0x04\n        /* \"contracts/Market.sol\":3471:3482  status == 4 */\n      eq\n        /* \"contracts/Market.sol\":3456:3482  status == 0 || status == 4 */\n    tag_258:\n        /* \"contracts/Market.sol\":3455:3527  (status == 0 || status == 4) && (_winningSide == 1 || _winningSide == 2) */\n      dup1\n      iszero\n      tag_260\n      jumpi\n      pop\n        /* \"contracts/Market.sol\":3488:3500  _winningSide */\n      dup2\n        /* \"contracts/Market.sol\":3504:3505  1 */\n      0x01\n        /* \"contracts/Market.sol\":3488:3505  _winningSide == 1 */\n      eq\n        /* \"contracts/Market.sol\":3488:3526  _winningSide == 1 || _winningSide == 2 */\n      dup1\n      tag_260\n      jumpi\n      pop\n        /* \"contracts/Market.sol\":3509:3521  _winningSide */\n      dup2\n        /* \"contracts/Market.sol\":3525:3526  2 */\n      0x02\n        /* \"contracts/Market.sol\":3509:3526  _winningSide == 2 */\n      eq\n        /* \"contracts/Market.sol\":3488:3526  _winningSide == 1 || _winningSide == 2 */\n    tag_260:\n        /* \"contracts/Market.sol\":3446:3534  require ((status == 0 || status == 4) && (_winningSide == 1 || _winningSide == 2), \"M5\") */\n      tag_261\n      jumpi\n      mload(0x40)\n      shl(0xe5, 0x461bcd)\n      dup2\n      mstore\n        /* \"#utility.yul\":10541:10543   */\n      0x20\n        /* \"contracts/Market.sol\":3446:3534  require ((status == 0 || status == 4) && (_winningSide == 1 || _winningSide == 2), \"M5\") */\n      0x04\n      dup3\n      add\n        /* \"#utility.yul\":10523:10544   */\n      mstore\n        /* \"#utility.yul\":10580:10581   */\n      0x02\n        /* \"#utility.yul\":10560:10578   */\n      0x24\n      dup3\n      add\n        /* \"#utility.yul\":10553:10582   */\n      mstore\n      shl(0xf0, 0x4d35)\n        /* \"#utility.yul\":10598:10616   */\n      0x44\n      dup3\n      add\n        /* \"#utility.yul\":10591:10623   */\n      mstore\n        /* \"#utility.yul\":10640:10658   */\n      0x64\n      add\n        /* \"contracts/Market.sol\":3446:3534  require ((status == 0 || status == 4) && (_winningSide == 1 || _winningSide == 2), \"M5\") */\n      tag_71\n        /* \"#utility.yul\":10339:10664   */\n      jump\n        /* \"contracts/Market.sol\":3446:3534  require ((status == 0 || status == 4) && (_winningSide == 1 || _winningSide == 2), \"M5\") */\n    tag_261:\n        /* \"contracts/Market.sol\":3544:3550  status */\n      0x02\n        /* \"contracts/Market.sol\":3544:3565  status = _winningSide */\n      dup3\n      swap1\n      sstore\n        /* \"contracts/Market.sol\":3579:3585  uint i */\n      0x00\n        /* \"contracts/Market.sol\":3575:3659  for(uint i = 0; i < pairs.length; i++){... */\n    tag_264:\n        /* \"contracts/Market.sol\":3595:3600  pairs */\n      0x03\n        /* \"contracts/Market.sol\":3595:3607  pairs.length */\n      sload\n        /* \"contracts/Market.sol\":3591:3607  i < pairs.length */\n      dup2\n      lt\n        /* \"contracts/Market.sol\":3575:3659  for(uint i = 0; i < pairs.length; i++){... */\n      iszero\n      tag_265\n      jumpi\n        /* \"contracts/Market.sol\":3627:3648  _settlePair(pairs[i]) */\n      tag_267\n        /* \"contracts/Market.sol\":3639:3644  pairs */\n      0x03\n        /* \"contracts/Market.sol\":3645:3646  i */\n      dup3\n        /* \"contracts/Market.sol\":3639:3647  pairs[i] */\n      dup2\n      sload\n      dup2\n      lt\n      tag_269\n      jumpi\n      tag_269\n      tag_64\n      jump\t// in\n    tag_269:\n      swap1\n      0x00\n      mstore\n      keccak256(0x00, 0x20)\n      add\n      sload\n        /* \"contracts/Market.sol\":3627:3638  _settlePair */\n      tag_108\n        /* \"contracts/Market.sol\":3627:3648  _settlePair(pairs[i]) */\n      jump\t// in\n    tag_267:\n        /* \"contracts/Market.sol\":3609:3612  i++ */\n      dup1\n      tag_271\n      dup2\n      tag_68\n      jump\t// in\n    tag_271:\n      swap2\n      pop\n      pop\n        /* \"contracts/Market.sol\":3575:3659  for(uint i = 0; i < pairs.length; i++){... */\n      jump(tag_264)\n    tag_265:\n      pop\n        /* \"contracts/Market.sol\":3675:3679  true */\n      0x01\n      swap3\n        /* \"contracts/Market.sol\":3335:3686  function settle(uint256 _winningSide)... */\n      swap2\n      pop\n      pop\n      jump\t// out\n        /* \"contracts/Market.sol\":3964:4090  function start() external override onlyFactory {... */\n    tag_51:\n        /* \"contracts/Market.sol\":1248:1255  factory */\n      and(sub(shl(0xa0, 0x01), 0x01), sload(0x01))\n        /* \"contracts/Market.sol\":1234:1244  msg.sender */\n      caller\n        /* \"contracts/Market.sol\":1234:1255  msg.sender == factory */\n      eq\n        /* \"contracts/Market.sol\":1213:1283  require(... */\n      tag_273\n      jumpi\n      mload(0x40)\n      shl(0xe5, 0x461bcd)\n      dup2\n      mstore\n      0x04\n      add\n      tag_71\n      swap1\n      tag_115\n      jump\t// in\n    tag_273:\n        /* \"contracts/Market.sol\":4029:4035  status */\n      sload(0x02)\n        /* \"contracts/Market.sol\":4029:4040  status == 0 */\n      iszero\n        /* \"contracts/Market.sol\":4021:4047  require(status == 0, \"M7\") */\n      tag_276\n      jumpi\n      mload(0x40)\n      shl(0xe5, 0x461bcd)\n      dup2\n      mstore\n        /* \"#utility.yul\":10871:10873   */\n      0x20\n        /* \"contracts/Market.sol\":4021:4047  require(status == 0, \"M7\") */\n      0x04\n      dup3\n      add\n        /* \"#utility.yul\":10853:10874   */\n      mstore\n        /* \"#utility.yul\":10910:10911   */\n      0x02\n        /* \"#utility.yul\":10890:10908   */\n      0x24\n      dup3\n      add\n        /* \"#utility.yul\":10883:10912   */\n      mstore\n      shl(0xf0, 0x4d37)\n        /* \"#utility.yul\":10928:10946   */\n      0x44\n      dup3\n      add\n        /* \"#utility.yul\":10921:10953   */\n      mstore\n        /* \"#utility.yul\":10970:10988   */\n      0x64\n      add\n        /* \"contracts/Market.sol\":4021:4047  require(status == 0, \"M7\") */\n      tag_71\n        /* \"#utility.yul\":10669:10994   */\n      jump\n        /* \"contracts/Market.sol\":4021:4047  require(status == 0, \"M7\") */\n    tag_276:\n        /* \"contracts/Market.sol\":4066:4067  4 */\n      0x04\n        /* \"contracts/Market.sol\":4057:4063  status */\n      0x02\n        /* \"contracts/Market.sol\":4057:4067  status = 4 */\n      sstore\n        /* \"contracts/Market.sol\":3964:4090  function start() external override onlyFactory {... */\n      jump\t// out\n        /* \"contracts/Market.sol\":8634:9954  function _settlePair(bytes32 _pair) private nonReentrant {... */\n    tag_108:\n        /* \"@openzeppelin/contracts/security/ReentrancyGuard.sol\":1744:1745  2 */\n      0x02\n        /* \"@openzeppelin/contracts/security/ReentrancyGuard.sol\":2325:2332  _status */\n      sload(0x00)\n        /* \"@openzeppelin/contracts/security/ReentrancyGuard.sol\":2325:2344  _status != _ENTERED */\n      sub\n        /* \"@openzeppelin/contracts/security/ReentrancyGuard.sol\":2317:2380  require(_status != _ENTERED, \"ReentrancyGuard: reentrant call\") */\n      tag_281\n      jumpi\n      mload(0x40)\n      shl(0xe5, 0x461bcd)\n      dup2\n      mstore\n      0x04\n      add\n      tag_71\n      swap1\n      tag_72\n      jump\t// in\n    tag_281:\n        /* \"@openzeppelin/contracts/security/ReentrancyGuard.sol\":1744:1745  2 */\n      0x02\n        /* \"@openzeppelin/contracts/security/ReentrancyGuard.sol\":2455:2462  _status */\n      0x00\n        /* \"@openzeppelin/contracts/security/ReentrancyGuard.sol\":2455:2473  _status = _ENTERED */\n      swap1\n      dup2\n      sstore\n        /* \"contracts/Market.sol\":8710:8726  pairsInfo[_pair] */\n      dup2\n      dup2\n      mstore\n        /* \"contracts/Market.sol\":8710:8719  pairsInfo */\n      0x09\n        /* \"contracts/Market.sol\":8710:8726  pairsInfo[_pair] */\n      0x20\n      mstore\n      0x40\n      swap1\n      keccak256\n        /* \"contracts/Market.sol\":8710:8734  pairsInfo[_pair].settled */\n      0x04\n      add\n      sload\n      0xff\n      and\n        /* \"contracts/Market.sol\":8709:8734  !pairsInfo[_pair].settled */\n      iszero\n        /* \"contracts/Market.sol\":8701:8742  require(!pairsInfo[_pair].settled, \"M12\") */\n      tag_284\n      jumpi\n      mload(0x40)\n      shl(0xe5, 0x461bcd)\n      dup2\n      mstore\n        /* \"#utility.yul\":11201:11203   */\n      0x20\n        /* \"contracts/Market.sol\":8701:8742  require(!pairsInfo[_pair].settled, \"M12\") */\n      0x04\n      dup3\n      add\n        /* \"#utility.yul\":11183:11204   */\n      mstore\n        /* \"#utility.yul\":11240:11241   */\n      0x03\n        /* \"#utility.yul\":11220:11238   */\n      0x24\n      dup3\n      add\n        /* \"#utility.yul\":11213:11242   */\n      mstore\n      shl(0xe9, 0x269899)\n        /* \"#utility.yul\":11258:11276   */\n      0x44\n      dup3\n      add\n        /* \"#utility.yul\":11251:11284   */\n      mstore\n        /* \"#utility.yul\":11301:11319   */\n      0x64\n      add\n        /* \"contracts/Market.sol\":8701:8742  require(!pairsInfo[_pair].settled, \"M12\") */\n      tag_71\n        /* \"#utility.yul\":10999:11325   */\n      jump\n        /* \"contracts/Market.sol\":8701:8742  require(!pairsInfo[_pair].settled, \"M12\") */\n    tag_284:\n        /* \"contracts/Market.sol\":8752:8766  address winner */\n      0x00\n        /* \"contracts/Market.sol\":8776:8793  address affiliate */\n      dup1\n        /* \"contracts/Market.sol\":8803:8820  uint256 winAmount */\n      0x00\n        /* \"contracts/Market.sol\":8830:8847  uint256 vigAmount */\n      dup1\n        /* \"contracts/Market.sol\":8860:8866  status */\n      sload(0x02)\n        /* \"contracts/Market.sol\":8870:8871  1 */\n      0x01\n        /* \"contracts/Market.sol\":8860:8871  status == 1 */\n      sub\n        /* \"contracts/Market.sol\":8857:9592  if(status == 1){... */\n      tag_287\n      jumpi\n        /* \"contracts/Market.sol\":8895:8930  betsInfo[pairsInfo[_pair].betHashA] */\n      0x00\n        /* \"contracts/Market.sol\":8904:8920  pairsInfo[_pair] */\n      dup6\n      dup2\n      mstore\n        /* \"contracts/Market.sol\":8904:8913  pairsInfo */\n      0x09\n        /* \"contracts/Market.sol\":8904:8920  pairsInfo[_pair] */\n      0x20\n      swap1\n      dup2\n      mstore\n      0x40\n      dup1\n      dup4\n      keccak256\n        /* \"contracts/Market.sol\":8904:8929  pairsInfo[_pair].betHashA */\n      sload\n        /* \"contracts/Market.sol\":8895:8930  betsInfo[pairsInfo[_pair].betHashA] */\n      dup4\n      mstore\n        /* \"contracts/Market.sol\":8895:8903  betsInfo */\n      0x07\n        /* \"contracts/Market.sol\":8895:8930  betsInfo[pairsInfo[_pair].betHashA] */\n      dup3\n      mstore\n      swap2\n      dup3\n      swap1\n      keccak256\n        /* \"contracts/Market.sol\":8895:8937  betsInfo[pairsInfo[_pair].betHashA].better */\n      sload\n        /* \"contracts/Market.sol\":9025:9034  app.vig() */\n      dup3\n      mload\n      shl(0xe0, 0x55c4a8bf)\n      dup2\n      mstore\n      swap3\n      mload\n      sub(shl(0xa0, 0x01), 0x01)\n        /* \"contracts/Market.sol\":8895:8937  betsInfo[pairsInfo[_pair].betHashA].better */\n      swap2\n      dup3\n      and\n      swap8\n      pop\n        /* \"contracts/Market.sol\":9038:9041  100 */\n      0x64\n      swap4\n        /* \"contracts/Market.sol\":9025:9028  app */\n      immutable(\"0xa4f21281edf90d86f21da3432ee4f5dff8abfbde6aab55afd7f9f7d4d3676c77\")\n        /* \"contracts/Market.sol\":9025:9032  app.vig */\n      swap1\n      swap3\n      and\n      swap3\n      0x55c4a8bf\n      swap3\n        /* \"contracts/Market.sol\":9025:9034  app.vig() */\n      0x04\n      dup1\n      dup3\n      add\n      swap4\n      swap2\n      dup3\n      swap1\n      sub\n      add\n      dup2\n        /* \"contracts/Market.sol\":9025:9032  app.vig */\n      dup7\n        /* \"contracts/Market.sol\":9025:9034  app.vig() */\n      gas\n      staticcall\n      iszero\n      dup1\n      iszero\n      tag_289\n      jumpi\n      returndatasize\n      0x00\n      dup1\n      returndatacopy\n      revert(0x00, returndatasize)\n    tag_289:\n      pop\n      pop\n      pop\n      pop\n      mload(0x40)\n      returndatasize\n      not(0x1f)\n      0x1f\n      dup3\n      add\n      and\n      dup3\n      add\n      dup1\n      0x40\n      mstore\n      pop\n      dup2\n      add\n      swap1\n      tag_290\n      swap2\n      swap1\n      tag_79\n      jump\t// in\n    tag_290:\n        /* \"contracts/Market.sol\":9019:9034  100 - app.vig() */\n      tag_291\n      swap1\n        /* \"contracts/Market.sol\":9019:9022  100 */\n      0x64\n        /* \"contracts/Market.sol\":9019:9034  100 - app.vig() */\n      tag_98\n      jump\t// in\n    tag_291:\n        /* \"contracts/Market.sol\":8991:9007  pairsInfo[_pair] */\n      0x00\n      dup8\n      dup2\n      mstore\n        /* \"contracts/Market.sol\":8991:9000  pairsInfo */\n      0x09\n        /* \"contracts/Market.sol\":8991:9007  pairsInfo[_pair] */\n      0x20\n      mstore\n      0x40\n      swap1\n      keccak256\n        /* \"contracts/Market.sol\":8991:9015  pairsInfo[_pair].amountB */\n      0x03\n      add\n      sload\n        /* \"contracts/Market.sol\":8991:9035  pairsInfo[_pair].amountB * (100 - app.vig()) */\n      tag_292\n      swap2\n      swap1\n      tag_166\n      jump\t// in\n    tag_292:\n        /* \"contracts/Market.sol\":8991:9041  pairsInfo[_pair].amountB * (100 - app.vig()) / 100 */\n      tag_293\n      swap2\n      swap1\n      tag_168\n      jump\t// in\n    tag_293:\n        /* \"contracts/Market.sol\":8963:8979  pairsInfo[_pair] */\n      0x00\n      dup7\n      dup2\n      mstore\n        /* \"contracts/Market.sol\":8963:8972  pairsInfo */\n      0x09\n        /* \"contracts/Market.sol\":8963:8979  pairsInfo[_pair] */\n      0x20\n      mstore\n      0x40\n      swap1\n      keccak256\n        /* \"contracts/Market.sol\":8963:8987  pairsInfo[_pair].amountA */\n      0x02\n      add\n      sload\n        /* \"contracts/Market.sol\":8963:9042  pairsInfo[_pair].amountA + (pairsInfo[_pair].amountB * (100 - app.vig()) / 100) */\n      tag_294\n      swap2\n      swap1\n      tag_221\n      jump\t// in\n    tag_294:\n        /* \"contracts/Market.sol\":8951:9042  winAmount = pairsInfo[_pair].amountA + (pairsInfo[_pair].amountB * (100 - app.vig()) / 100) */\n      swap2\n      pop\n        /* \"contracts/Market.sol\":9107:9110  100 */\n      0x64\n        /* \"contracts/Market.sol\":9095:9098  app */\n      immutable(\"0xa4f21281edf90d86f21da3432ee4f5dff8abfbde6aab55afd7f9f7d4d3676c77\")\n      sub(shl(0xa0, 0x01), 0x01)\n        /* \"contracts/Market.sol\":9095:9102  app.vig */\n      and\n      0x55c4a8bf\n        /* \"contracts/Market.sol\":9095:9104  app.vig() */\n      mload(0x40)\n      dup2\n      0xffffffff\n      and\n      0xe0\n      shl\n      dup2\n      mstore\n      0x04\n      add\n      0x20\n      mload(0x40)\n      dup1\n      dup4\n      sub\n      dup2\n      dup7\n      gas\n      staticcall\n      iszero\n      dup1\n      iszero\n      tag_296\n      jumpi\n      returndatasize\n      0x00\n      dup1\n      returndatacopy\n      revert(0x00, returndatasize)\n    tag_296:\n      pop\n      pop\n      pop\n      pop\n      mload(0x40)\n      returndatasize\n      not(0x1f)\n      0x1f\n      dup3\n      add\n      and\n      dup3\n      add\n      dup1\n      0x40\n      mstore\n      pop\n      dup2\n      add\n      swap1\n      tag_297\n      swap2\n      swap1\n      tag_79\n      jump\t// in\n    tag_297:\n        /* \"contracts/Market.sol\":9068:9084  pairsInfo[_pair] */\n      0x00\n      dup8\n      dup2\n      mstore\n        /* \"contracts/Market.sol\":9068:9077  pairsInfo */\n      0x09\n        /* \"contracts/Market.sol\":9068:9084  pairsInfo[_pair] */\n      0x20\n      mstore\n      0x40\n      swap1\n      keccak256\n        /* \"contracts/Market.sol\":9068:9092  pairsInfo[_pair].amountB */\n      0x03\n      add\n      sload\n        /* \"contracts/Market.sol\":9068:9104  pairsInfo[_pair].amountB * app.vig() */\n      tag_298\n      swap2\n      swap1\n      tag_166\n      jump\t// in\n    tag_298:\n        /* \"contracts/Market.sol\":9068:9110  pairsInfo[_pair].amountB * app.vig() / 100 */\n      tag_299\n      swap2\n      swap1\n      tag_168\n      jump\t// in\n    tag_299:\n        /* \"contracts/Market.sol\":9136:9171  betsInfo[pairsInfo[_pair].betHashA] */\n      0x00\n        /* \"contracts/Market.sol\":9145:9161  pairsInfo[_pair] */\n      dup7\n      dup2\n      mstore\n        /* \"contracts/Market.sol\":9145:9154  pairsInfo */\n      0x09\n        /* \"contracts/Market.sol\":9145:9161  pairsInfo[_pair] */\n      0x20\n      swap1\n      dup2\n      mstore\n      0x40\n      dup1\n      dup4\n      keccak256\n        /* \"contracts/Market.sol\":9145:9170  pairsInfo[_pair].betHashA */\n      sload\n        /* \"contracts/Market.sol\":9136:9171  betsInfo[pairsInfo[_pair].betHashA] */\n      dup4\n      mstore\n        /* \"contracts/Market.sol\":9136:9144  betsInfo */\n      0x07\n        /* \"contracts/Market.sol\":9136:9171  betsInfo[pairsInfo[_pair].betHashA] */\n      swap1\n      swap2\n      mstore\n      swap1\n      keccak256\n        /* \"contracts/Market.sol\":9136:9181  betsInfo[pairsInfo[_pair].betHashA].affiliate */\n      0x01\n      add\n      sload\n      sub(shl(0xa0, 0x01), 0x01)\n      and\n      swap4\n      pop\n        /* \"contracts/Market.sol\":9056:9110  vigAmount = pairsInfo[_pair].amountB * app.vig() / 100 */\n      swap1\n      pop\n        /* \"contracts/Market.sol\":8857:9592  if(status == 1){... */\n      jump(tag_314)\n    tag_287:\n        /* \"contracts/Market.sol\":9209:9215  status */\n      sload(0x02)\n        /* \"contracts/Market.sol\":9219:9220  2 */\n      0x02\n        /* \"contracts/Market.sol\":9209:9220  status == 2 */\n      sub\n        /* \"contracts/Market.sol\":9206:9592  if(status == 2){... */\n      tag_301\n      jumpi\n        /* \"contracts/Market.sol\":9244:9279  betsInfo[pairsInfo[_pair].betHashB] */\n      0x00\n        /* \"contracts/Market.sol\":9253:9269  pairsInfo[_pair] */\n      dup6\n      dup2\n      mstore\n        /* \"contracts/Market.sol\":9253:9262  pairsInfo */\n      0x09\n        /* \"contracts/Market.sol\":9253:9269  pairsInfo[_pair] */\n      0x20\n      swap1\n      dup2\n      mstore\n      0x40\n      dup1\n      dup4\n      keccak256\n        /* \"contracts/Market.sol\":9253:9278  pairsInfo[_pair].betHashB */\n      0x01\n      add\n      sload\n        /* \"contracts/Market.sol\":9244:9279  betsInfo[pairsInfo[_pair].betHashB] */\n      dup4\n      mstore\n        /* \"contracts/Market.sol\":9244:9252  betsInfo */\n      0x07\n        /* \"contracts/Market.sol\":9244:9279  betsInfo[pairsInfo[_pair].betHashB] */\n      dup3\n      mstore\n      swap2\n      dup3\n      swap1\n      keccak256\n        /* \"contracts/Market.sol\":9244:9286  betsInfo[pairsInfo[_pair].betHashB].better */\n      sload\n        /* \"contracts/Market.sol\":9374:9383  app.vig() */\n      dup3\n      mload\n      shl(0xe0, 0x55c4a8bf)\n      dup2\n      mstore\n      swap3\n      mload\n      sub(shl(0xa0, 0x01), 0x01)\n        /* \"contracts/Market.sol\":9244:9286  betsInfo[pairsInfo[_pair].betHashB].better */\n      swap2\n      dup3\n      and\n      swap8\n      pop\n        /* \"contracts/Market.sol\":9387:9390  100 */\n      0x64\n      swap4\n        /* \"contracts/Market.sol\":9374:9377  app */\n      immutable(\"0xa4f21281edf90d86f21da3432ee4f5dff8abfbde6aab55afd7f9f7d4d3676c77\")\n        /* \"contracts/Market.sol\":9374:9381  app.vig */\n      swap1\n      swap3\n      and\n      swap3\n      0x55c4a8bf\n      swap3\n        /* \"contracts/Market.sol\":9374:9383  app.vig() */\n      0x04\n      dup1\n      dup3\n      add\n      swap4\n      swap2\n      dup3\n      swap1\n      sub\n      add\n      dup2\n        /* \"contracts/Market.sol\":9374:9381  app.vig */\n      dup7\n        /* \"contracts/Market.sol\":9374:9383  app.vig() */\n      gas\n      staticcall\n      iszero\n      dup1\n      iszero\n      tag_303\n      jumpi\n      returndatasize\n      0x00\n      dup1\n      returndatacopy\n      revert(0x00, returndatasize)\n    tag_303:\n      pop\n      pop\n      pop\n      pop\n      mload(0x40)\n      returndatasize\n      not(0x1f)\n      0x1f\n      dup3\n      add\n      and\n      dup3\n      add\n      dup1\n      0x40\n      mstore\n      pop\n      dup2\n      add\n      swap1\n      tag_304\n      swap2\n      swap1\n      tag_79\n      jump\t// in\n    tag_304:\n        /* \"contracts/Market.sol\":9368:9383  100 - app.vig() */\n      tag_305\n      swap1\n        /* \"contracts/Market.sol\":9368:9371  100 */\n      0x64\n        /* \"contracts/Market.sol\":9368:9383  100 - app.vig() */\n      tag_98\n      jump\t// in\n    tag_305:\n        /* \"contracts/Market.sol\":9340:9356  pairsInfo[_pair] */\n      0x00\n      dup8\n      dup2\n      mstore\n        /* \"contracts/Market.sol\":9340:9349  pairsInfo */\n      0x09\n        /* \"contracts/Market.sol\":9340:9356  pairsInfo[_pair] */\n      0x20\n      mstore\n      0x40\n      swap1\n      keccak256\n        /* \"contracts/Market.sol\":9340:9364  pairsInfo[_pair].amountA */\n      0x02\n      add\n      sload\n        /* \"contracts/Market.sol\":9340:9384  pairsInfo[_pair].amountA * (100 - app.vig()) */\n      tag_306\n      swap2\n      swap1\n      tag_166\n      jump\t// in\n    tag_306:\n        /* \"contracts/Market.sol\":9340:9390  pairsInfo[_pair].amountA * (100 - app.vig()) / 100 */\n      tag_307\n      swap2\n      swap1\n      tag_168\n      jump\t// in\n    tag_307:\n        /* \"contracts/Market.sol\":9312:9328  pairsInfo[_pair] */\n      0x00\n      dup7\n      dup2\n      mstore\n        /* \"contracts/Market.sol\":9312:9321  pairsInfo */\n      0x09\n        /* \"contracts/Market.sol\":9312:9328  pairsInfo[_pair] */\n      0x20\n      mstore\n      0x40\n      swap1\n      keccak256\n        /* \"contracts/Market.sol\":9312:9336  pairsInfo[_pair].amountB */\n      0x03\n      add\n      sload\n        /* \"contracts/Market.sol\":9312:9391  pairsInfo[_pair].amountB + (pairsInfo[_pair].amountA * (100 - app.vig()) / 100) */\n      tag_308\n      swap2\n      swap1\n      tag_221\n      jump\t// in\n    tag_308:\n        /* \"contracts/Market.sol\":9300:9391  winAmount = pairsInfo[_pair].amountB + (pairsInfo[_pair].amountA * (100 - app.vig()) / 100) */\n      swap2\n      pop\n        /* \"contracts/Market.sol\":9456:9459  100 */\n      0x64\n        /* \"contracts/Market.sol\":9444:9447  app */\n      immutable(\"0xa4f21281edf90d86f21da3432ee4f5dff8abfbde6aab55afd7f9f7d4d3676c77\")\n      sub(shl(0xa0, 0x01), 0x01)\n        /* \"contracts/Market.sol\":9444:9451  app.vig */\n      and\n      0x55c4a8bf\n        /* \"contracts/Market.sol\":9444:9453  app.vig() */\n      mload(0x40)\n      dup2\n      0xffffffff\n      and\n      0xe0\n      shl\n      dup2\n      mstore\n      0x04\n      add\n      0x20\n      mload(0x40)\n      dup1\n      dup4\n      sub\n      dup2\n      dup7\n      gas\n      staticcall\n      iszero\n      dup1\n      iszero\n      tag_310\n      jumpi\n      returndatasize\n      0x00\n      dup1\n      returndatacopy\n      revert(0x00, returndatasize)\n    tag_310:\n      pop\n      pop\n      pop\n      pop\n      mload(0x40)\n      returndatasize\n      not(0x1f)\n      0x1f\n      dup3\n      add\n      and\n      dup3\n      add\n      dup1\n      0x40\n      mstore\n      pop\n      dup2\n      add\n      swap1\n      tag_311\n      swap2\n      swap1\n      tag_79\n      jump\t// in\n    tag_311:\n        /* \"contracts/Market.sol\":9417:9433  pairsInfo[_pair] */\n      0x00\n      dup8\n      dup2\n      mstore\n        /* \"contracts/Market.sol\":9417:9426  pairsInfo */\n      0x09\n        /* \"contracts/Market.sol\":9417:9433  pairsInfo[_pair] */\n      0x20\n      mstore\n      0x40\n      swap1\n      keccak256\n        /* \"contracts/Market.sol\":9417:9441  pairsInfo[_pair].amountA */\n      0x02\n      add\n      sload\n        /* \"contracts/Market.sol\":9417:9453  pairsInfo[_pair].amountA * app.vig() */\n      tag_312\n      swap2\n      swap1\n      tag_166\n      jump\t// in\n    tag_312:\n        /* \"contracts/Market.sol\":9417:9459  pairsInfo[_pair].amountA * app.vig() / 100 */\n      tag_313\n      swap2\n      swap1\n      tag_168\n      jump\t// in\n    tag_313:\n        /* \"contracts/Market.sol\":9485:9520  betsInfo[pairsInfo[_pair].betHashB] */\n      0x00\n        /* \"contracts/Market.sol\":9494:9510  pairsInfo[_pair] */\n      dup7\n      dup2\n      mstore\n        /* \"contracts/Market.sol\":9494:9503  pairsInfo */\n      0x09\n        /* \"contracts/Market.sol\":9494:9510  pairsInfo[_pair] */\n      0x20\n      swap1\n      dup2\n      mstore\n      0x40\n      dup1\n      dup4\n      keccak256\n        /* \"contracts/Market.sol\":9494:9519  pairsInfo[_pair].betHashB */\n      0x01\n      swap1\n      dup2\n      add\n      sload\n        /* \"contracts/Market.sol\":9485:9520  betsInfo[pairsInfo[_pair].betHashB] */\n      dup5\n      mstore\n        /* \"contracts/Market.sol\":9485:9493  betsInfo */\n      0x07\n        /* \"contracts/Market.sol\":9485:9520  betsInfo[pairsInfo[_pair].betHashB] */\n      swap1\n      swap3\n      mstore\n      swap1\n      swap2\n      keccak256\n        /* \"contracts/Market.sol\":9485:9530  betsInfo[pairsInfo[_pair].betHashB].affiliate */\n      add\n      sload\n      sub(shl(0xa0, 0x01), 0x01)\n      and\n      swap4\n      pop\n        /* \"contracts/Market.sol\":9405:9459  vigAmount = pairsInfo[_pair].amountA * app.vig() / 100 */\n      swap1\n      pop\n        /* \"contracts/Market.sol\":9206:9592  if(status == 2){... */\n      jump(tag_314)\n    tag_301:\n        /* \"contracts/Market.sol\":9568:9581  revert(\"M13\") */\n      mload(0x40)\n      shl(0xe5, 0x461bcd)\n      dup2\n      mstore\n        /* \"#utility.yul\":11532:11534   */\n      0x20\n        /* \"contracts/Market.sol\":9568:9581  revert(\"M13\") */\n      0x04\n      dup3\n      add\n        /* \"#utility.yul\":11514:11535   */\n      mstore\n        /* \"#utility.yul\":11571:11572   */\n      0x03\n        /* \"#utility.yul\":11551:11569   */\n      0x24\n      dup3\n      add\n        /* \"#utility.yul\":11544:11573   */\n      mstore\n      shl(0xe8, 0x4d3133)\n        /* \"#utility.yul\":11589:11607   */\n      0x44\n      dup3\n      add\n        /* \"#utility.yul\":11582:11615   */\n      mstore\n        /* \"#utility.yul\":11632:11650   */\n      0x64\n      add\n        /* \"contracts/Market.sol\":9568:9581  revert(\"M13\") */\n      tag_71\n        /* \"#utility.yul\":11330:11656   */\n      jump\n        /* \"contracts/Market.sol\":9206:9592  if(status == 2){... */\n    tag_314:\n      sub(shl(0xa0, 0x01), 0x01)\n        /* \"contracts/Market.sol\":9604:9629  affiliate == address(0x0) */\n      dup4\n      and\n        /* \"contracts/Market.sol\":9601:9680  if(affiliate == address(0x0)){... */\n      tag_317\n      jumpi\n        /* \"contracts/Market.sol\":9656:9659  app */\n      immutable(\"0xa4f21281edf90d86f21da3432ee4f5dff8abfbde6aab55afd7f9f7d4d3676c77\")\n      sub(shl(0xa0, 0x01), 0x01)\n        /* \"contracts/Market.sol\":9656:9667  app.ecoAddr */\n      and\n      0x09953b2f\n        /* \"contracts/Market.sol\":9656:9669  app.ecoAddr() */\n      mload(0x40)\n      dup2\n      0xffffffff\n      and\n      0xe0\n      shl\n      dup2\n      mstore\n      0x04\n      add\n      0x20\n      mload(0x40)\n      dup1\n      dup4\n      sub\n      dup2\n      dup7\n      gas\n      staticcall\n      iszero\n      dup1\n      iszero\n      tag_319\n      jumpi\n      returndatasize\n      0x00\n      dup1\n      returndatacopy\n      revert(0x00, returndatasize)\n    tag_319:\n      pop\n      pop\n      pop\n      pop\n      mload(0x40)\n      returndatasize\n      not(0x1f)\n      0x1f\n      dup3\n      add\n      and\n      dup3\n      add\n      dup1\n      0x40\n      mstore\n      pop\n      dup2\n      add\n      swap1\n      tag_320\n      swap2\n      swap1\n      tag_321\n      jump\t// in\n    tag_320:\n        /* \"contracts/Market.sol\":9644:9669  affiliate = app.ecoAddr() */\n      swap3\n      pop\n        /* \"contracts/Market.sol\":9601:9680  if(affiliate == address(0x0)){... */\n    tag_317:\n      sub(shl(0xa0, 0x01), 0x01)\n        /* \"contracts/Market.sol\":9689:9700  bal[winner] */\n      dup5\n      and\n      0x00\n      swap1\n      dup2\n      mstore\n        /* \"contracts/Market.sol\":9689:9692  bal */\n      0x06\n        /* \"contracts/Market.sol\":9689:9700  bal[winner] */\n      0x20\n      mstore\n      0x40\n      dup2\n      keccak256\n        /* \"contracts/Market.sol\":9689:9713  bal[winner] += winAmount */\n      dup1\n      sload\n        /* \"contracts/Market.sol\":9704:9713  winAmount */\n      dup5\n      swap3\n        /* \"contracts/Market.sol\":9689:9700  bal[winner] */\n      swap1\n        /* \"contracts/Market.sol\":9689:9713  bal[winner] += winAmount */\n      tag_322\n      swap1\n        /* \"contracts/Market.sol\":9704:9713  winAmount */\n      dup5\n      swap1\n        /* \"contracts/Market.sol\":9689:9713  bal[winner] += winAmount */\n      tag_221\n      jump\t// in\n    tag_322:\n      swap3\n      pop\n      pop\n      dup2\n      swap1\n      sstore\n      pop\n        /* \"contracts/Market.sol\":9771:9774  100 */\n      0x64\n        /* \"contracts/Market.sol\":9758:9761  app */\n      immutable(\"0xa4f21281edf90d86f21da3432ee4f5dff8abfbde6aab55afd7f9f7d4d3676c77\")\n      sub(shl(0xa0, 0x01), 0x01)\n        /* \"contracts/Market.sol\":9758:9766  app.hVig */\n      and\n      0x6a0ccd9d\n        /* \"contracts/Market.sol\":9758:9768  app.hVig() */\n      mload(0x40)\n      dup2\n      0xffffffff\n      and\n      0xe0\n      shl\n      dup2\n      mstore\n      0x04\n      add\n      0x20\n      mload(0x40)\n      dup1\n      dup4\n      sub\n      dup2\n      dup7\n      gas\n      staticcall\n      iszero\n      dup1\n      iszero\n      tag_324\n      jumpi\n      returndatasize\n      0x00\n      dup1\n      returndatacopy\n      revert(0x00, returndatasize)\n    tag_324:\n      pop\n      pop\n      pop\n      pop\n      mload(0x40)\n      returndatasize\n      not(0x1f)\n      0x1f\n      dup3\n      add\n      and\n      dup3\n      add\n      dup1\n      0x40\n      mstore\n      pop\n      dup2\n      add\n      swap1\n      tag_325\n      swap2\n      swap1\n      tag_79\n      jump\t// in\n    tag_325:\n        /* \"contracts/Market.sol\":9746:9768  vigAmount * app.hVig() */\n      tag_326\n      swap1\n        /* \"contracts/Market.sol\":9746:9755  vigAmount */\n      dup4\n        /* \"contracts/Market.sol\":9746:9768  vigAmount * app.hVig() */\n      tag_166\n      jump\t// in\n    tag_326:\n        /* \"contracts/Market.sol\":9746:9774  vigAmount * app.hVig() / 100 */\n      tag_327\n      swap2\n      swap1\n      tag_168\n      jump\t// in\n    tag_327:\n        /* \"contracts/Market.sol\":9723:9726  bal */\n      0x06\n        /* \"contracts/Market.sol\":9723:9742  bal[app.holdAddr()] */\n      0x00\n        /* \"contracts/Market.sol\":9727:9730  app */\n      immutable(\"0xa4f21281edf90d86f21da3432ee4f5dff8abfbde6aab55afd7f9f7d4d3676c77\")\n      sub(shl(0xa0, 0x01), 0x01)\n        /* \"contracts/Market.sol\":9727:9739  app.holdAddr */\n      and\n      0xb7640a54\n        /* \"contracts/Market.sol\":9727:9741  app.holdAddr() */\n      mload(0x40)\n      dup2\n      0xffffffff\n      and\n      0xe0\n      shl\n      dup2\n      mstore\n      0x04\n      add\n      0x20\n      mload(0x40)\n      dup1\n      dup4\n      sub\n      dup2\n      dup7\n      gas\n      staticcall\n      iszero\n      dup1\n      iszero\n      tag_329\n      jumpi\n      returndatasize\n      0x00\n      dup1\n      returndatacopy\n      revert(0x00, returndatasize)\n    tag_329:\n      pop\n      pop\n      pop\n      pop\n      mload(0x40)\n      returndatasize\n      not(0x1f)\n      0x1f\n      dup3\n      add\n      and\n      dup3\n      add\n      dup1\n      0x40\n      mstore\n      pop\n      dup2\n      add\n      swap1\n      tag_330\n      swap2\n      swap1\n      tag_321\n      jump\t// in\n    tag_330:\n      sub(shl(0xa0, 0x01), 0x01)\n        /* \"contracts/Market.sol\":9723:9742  bal[app.holdAddr()] */\n      and\n      sub(shl(0xa0, 0x01), 0x01)\n      and\n      dup2\n      mstore\n      0x20\n      add\n      swap1\n      dup2\n      mstore\n      0x20\n      add\n      0x00\n      keccak256\n      0x00\n        /* \"contracts/Market.sol\":9723:9774  bal[app.holdAddr()] += vigAmount * app.hVig() / 100 */\n      dup3\n      dup3\n      sload\n      tag_331\n      swap2\n      swap1\n      tag_221\n      jump\t// in\n    tag_331:\n      swap3\n      pop\n      pop\n      dup2\n      swap1\n      sstore\n      pop\n        /* \"contracts/Market.sol\":9831:9834  100 */\n      0x64\n        /* \"contracts/Market.sol\":9818:9821  app */\n      immutable(\"0xa4f21281edf90d86f21da3432ee4f5dff8abfbde6aab55afd7f9f7d4d3676c77\")\n      sub(shl(0xa0, 0x01), 0x01)\n        /* \"contracts/Market.sol\":9818:9826  app.eVig */\n      and\n      0x28576d45\n        /* \"contracts/Market.sol\":9818:9828  app.eVig() */\n      mload(0x40)\n      dup2\n      0xffffffff\n      and\n      0xe0\n      shl\n      dup2\n      mstore\n      0x04\n      add\n      0x20\n      mload(0x40)\n      dup1\n      dup4\n      sub\n      dup2\n      dup7\n      gas\n      staticcall\n      iszero\n      dup1\n      iszero\n      tag_333\n      jumpi\n      returndatasize\n      0x00\n      dup1\n      returndatacopy\n      revert(0x00, returndatasize)\n    tag_333:\n      pop\n      pop\n      pop\n      pop\n      mload(0x40)\n      returndatasize\n      not(0x1f)\n      0x1f\n      dup3\n      add\n      and\n      dup3\n      add\n      dup1\n      0x40\n      mstore\n      pop\n      dup2\n      add\n      swap1\n      tag_334\n      swap2\n      swap1\n      tag_79\n      jump\t// in\n    tag_334:\n        /* \"contracts/Market.sol\":9806:9828  vigAmount * app.eVig() */\n      tag_335\n      swap1\n        /* \"contracts/Market.sol\":9806:9815  vigAmount */\n      dup4\n        /* \"contracts/Market.sol\":9806:9828  vigAmount * app.eVig() */\n      tag_166\n      jump\t// in\n    tag_335:\n        /* \"contracts/Market.sol\":9806:9834  vigAmount * app.eVig() / 100 */\n      tag_336\n      swap2\n      swap1\n      tag_168\n      jump\t// in\n    tag_336:\n        /* \"contracts/Market.sol\":9784:9787  bal */\n      0x06\n        /* \"contracts/Market.sol\":9784:9802  bal[app.ecoAddr()] */\n      0x00\n        /* \"contracts/Market.sol\":9788:9791  app */\n      immutable(\"0xa4f21281edf90d86f21da3432ee4f5dff8abfbde6aab55afd7f9f7d4d3676c77\")\n      sub(shl(0xa0, 0x01), 0x01)\n        /* \"contracts/Market.sol\":9788:9799  app.ecoAddr */\n      and\n      0x09953b2f\n        /* \"contracts/Market.sol\":9788:9801  app.ecoAddr() */\n      mload(0x40)\n      dup2\n      0xffffffff\n      and\n      0xe0\n      shl\n      dup2\n      mstore\n      0x04\n      add\n      0x20\n      mload(0x40)\n      dup1\n      dup4\n      sub\n      dup2\n      dup7\n      gas\n      staticcall\n      iszero\n      dup1\n      iszero\n      tag_338\n      jumpi\n      returndatasize\n      0x00\n      dup1\n      returndatacopy\n      revert(0x00, returndatasize)\n    tag_338:\n      pop\n      pop\n      pop\n      pop\n      mload(0x40)\n      returndatasize\n      not(0x1f)\n      0x1f\n      dup3\n      add\n      and\n      dup3\n      add\n      dup1\n      0x40\n      mstore\n      pop\n      dup2\n      add\n      swap1\n      tag_339\n      swap2\n      swap1\n      tag_321\n      jump\t// in\n    tag_339:\n      sub(shl(0xa0, 0x01), 0x01)\n        /* \"contracts/Market.sol\":9784:9802  bal[app.ecoAddr()] */\n      and\n      sub(shl(0xa0, 0x01), 0x01)\n      and\n      dup2\n      mstore\n      0x20\n      add\n      swap1\n      dup2\n      mstore\n      0x20\n      add\n      0x00\n      keccak256\n      0x00\n        /* \"contracts/Market.sol\":9784:9834  bal[app.ecoAddr()] += vigAmount * app.eVig() / 100 */\n      dup3\n      dup3\n      sload\n      tag_340\n      swap2\n      swap1\n      tag_221\n      jump\t// in\n    tag_340:\n      swap3\n      pop\n      pop\n      dup2\n      swap1\n      sstore\n      pop\n        /* \"contracts/Market.sol\":9887:9890  100 */\n      0x64\n        /* \"contracts/Market.sol\":9874:9877  app */\n      immutable(\"0xa4f21281edf90d86f21da3432ee4f5dff8abfbde6aab55afd7f9f7d4d3676c77\")\n      sub(shl(0xa0, 0x01), 0x01)\n        /* \"contracts/Market.sol\":9874:9882  app.aVig */\n      and\n      0x54cd1a5c\n        /* \"contracts/Market.sol\":9874:9884  app.aVig() */\n      mload(0x40)\n      dup2\n      0xffffffff\n      and\n      0xe0\n      shl\n      dup2\n      mstore\n      0x04\n      add\n      0x20\n      mload(0x40)\n      dup1\n      dup4\n      sub\n      dup2\n      dup7\n      gas\n      staticcall\n      iszero\n      dup1\n      iszero\n      tag_342\n      jumpi\n      returndatasize\n      0x00\n      dup1\n      returndatacopy\n      revert(0x00, returndatasize)\n    tag_342:\n      pop\n      pop\n      pop\n      pop\n      mload(0x40)\n      returndatasize\n      not(0x1f)\n      0x1f\n      dup3\n      add\n      and\n      dup3\n      add\n      dup1\n      0x40\n      mstore\n      pop\n      dup2\n      add\n      swap1\n      tag_343\n      swap2\n      swap1\n      tag_79\n      jump\t// in\n    tag_343:\n        /* \"contracts/Market.sol\":9862:9884  vigAmount * app.aVig() */\n      tag_344\n      swap1\n        /* \"contracts/Market.sol\":9862:9871  vigAmount */\n      dup4\n        /* \"contracts/Market.sol\":9862:9884  vigAmount * app.aVig() */\n      tag_166\n      jump\t// in\n    tag_344:\n        /* \"contracts/Market.sol\":9862:9890  vigAmount * app.aVig() / 100 */\n      tag_345\n      swap2\n      swap1\n      tag_168\n      jump\t// in\n    tag_345:\n      sub(shl(0xa0, 0x01), 0x01)\n        /* \"contracts/Market.sol\":9844:9858  bal[affiliate] */\n      dup5\n      and\n      0x00\n      swap1\n      dup2\n      mstore\n        /* \"contracts/Market.sol\":9844:9847  bal */\n      0x06\n        /* \"contracts/Market.sol\":9844:9858  bal[affiliate] */\n      0x20\n      mstore\n      0x40\n      dup2\n      keccak256\n        /* \"contracts/Market.sol\":9844:9890  bal[affiliate] += vigAmount * app.aVig() / 100 */\n      dup1\n      sload\n        /* \"contracts/Market.sol\":9844:9858  bal[affiliate] */\n      swap1\n      swap2\n      swap1\n        /* \"contracts/Market.sol\":9844:9890  bal[affiliate] += vigAmount * app.aVig() / 100 */\n      tag_346\n      swap1\n      dup5\n      swap1\n      tag_221\n      jump\t// in\n    tag_346:\n      swap1\n      swap2\n      sstore\n      pop\n      pop\n      pop\n        /* \"contracts/Market.sol\":9900:9916  pairsInfo[_pair] */\n      0x00\n      dup5\n      dup2\n      mstore\n        /* \"contracts/Market.sol\":9900:9909  pairsInfo */\n      0x09\n        /* \"contracts/Market.sol\":9900:9916  pairsInfo[_pair] */\n      0x20\n      mstore\n      0x40\n      swap1\n      keccak256\n        /* \"contracts/Market.sol\":9900:9924  pairsInfo[_pair].settled */\n      0x04\n      add\n        /* \"contracts/Market.sol\":9900:9931  pairsInfo[_pair].settled = true */\n      dup1\n      sload\n      not(0xff)\n      and\n        /* \"contracts/Market.sol\":9927:9931  true */\n      0x01\n        /* \"contracts/Market.sol\":9900:9931  pairsInfo[_pair].settled = true */\n      or\n      swap1\n      sstore\n      pop\n      pop\n      pop\n      pop\n        /* \"@openzeppelin/contracts/security/ReentrancyGuard.sol\":1701:1702  1 */\n      0x01\n        /* \"@openzeppelin/contracts/security/ReentrancyGuard.sol\":2628:2635  _status */\n      0x00\n        /* \"@openzeppelin/contracts/security/ReentrancyGuard.sol\":2628:2650  _status = _NOT_ENTERED */\n      sstore\n        /* \"contracts/Market.sol\":8634:9954  function _settlePair(bytes32 _pair) private nonReentrant {... */\n      jump\t// out\n        /* \"contracts/Market.sol\":8276:8624  function _cancelPair(bytes32 _pair) private {... */\n    tag_128:\n        /* \"contracts/Market.sol\":8330:8345  address betterA */\n      0x00\n        /* \"contracts/Market.sol\":8357:8373  pairsInfo[_pair] */\n      dup2\n      dup2\n      mstore\n        /* \"contracts/Market.sol\":8357:8366  pairsInfo */\n      0x09\n        /* \"contracts/Market.sol\":8357:8373  pairsInfo[_pair] */\n      0x20\n      swap1\n      dup2\n      mstore\n      0x40\n      dup1\n      dup4\n      keccak256\n        /* \"contracts/Market.sol\":8357:8382  pairsInfo[_pair].betHashA */\n      dup1\n      sload\n        /* \"contracts/Market.sol\":8348:8383  betsInfo[pairsInfo[_pair].betHashA] */\n      dup5\n      mstore\n        /* \"contracts/Market.sol\":8348:8356  betsInfo */\n      0x07\n        /* \"contracts/Market.sol\":8348:8383  betsInfo[pairsInfo[_pair].betHashA] */\n      dup4\n      mstore\n      dup2\n      dup5\n      keccak256\n        /* \"contracts/Market.sol\":8348:8390  betsInfo[pairsInfo[_pair].betHashA].better */\n      sload\n      0x01\n        /* \"contracts/Market.sol\":8427:8452  pairsInfo[_pair].betHashB */\n      dup3\n      add\n      sload\n        /* \"contracts/Market.sol\":8418:8453  betsInfo[pairsInfo[_pair].betHashB] */\n      dup6\n      mstore\n      dup3\n      dup6\n      keccak256\n        /* \"contracts/Market.sol\":8418:8460  betsInfo[pairsInfo[_pair].betHashB].better */\n      sload\n        /* \"contracts/Market.sol\":8486:8510  pairsInfo[_pair].amountA */\n      0x02\n      swap1\n      swap3\n      add\n      sload\n      sub(shl(0xa0, 0x01), 0x01)\n        /* \"contracts/Market.sol\":8348:8390  betsInfo[pairsInfo[_pair].betHashA].better */\n      swap2\n      dup3\n      and\n        /* \"contracts/Market.sol\":8470:8482  bal[betterA] */\n      dup1\n      dup8\n      mstore\n        /* \"contracts/Market.sol\":8470:8473  bal */\n      0x06\n        /* \"contracts/Market.sol\":8470:8482  bal[betterA] */\n      swap1\n      swap6\n      mstore\n      swap3\n      dup6\n      keccak256\n        /* \"contracts/Market.sol\":8470:8510  bal[betterA] += pairsInfo[_pair].amountA */\n      dup1\n      sload\n        /* \"contracts/Market.sol\":8348:8390  betsInfo[pairsInfo[_pair].betHashA].better */\n      swap5\n      swap6\n        /* \"contracts/Market.sol\":8418:8460  betsInfo[pairsInfo[_pair].betHashB].better */\n      swap2\n      swap1\n      swap3\n      and\n      swap4\n        /* \"contracts/Market.sol\":8470:8510  bal[betterA] += pairsInfo[_pair].amountA */\n      tag_348\n      swap1\n        /* \"contracts/Market.sol\":8486:8510  pairsInfo[_pair].amountA */\n      dup5\n      swap1\n        /* \"contracts/Market.sol\":8470:8510  bal[betterA] += pairsInfo[_pair].amountA */\n      tag_221\n      jump\t// in\n    tag_348:\n      swap1\n      swap2\n      sstore\n      pop\n      pop\n        /* \"contracts/Market.sol\":8536:8552  pairsInfo[_pair] */\n      0x00\n      dup4\n      dup2\n      mstore\n        /* \"contracts/Market.sol\":8536:8545  pairsInfo */\n      0x09\n        /* \"contracts/Market.sol\":8536:8552  pairsInfo[_pair] */\n      0x20\n      swap1\n      dup2\n      mstore\n      0x40\n      dup1\n      dup4\n      keccak256\n        /* \"contracts/Market.sol\":8536:8560  pairsInfo[_pair].amountB */\n      0x03\n      add\n      sload\n      sub(shl(0xa0, 0x01), 0x01)\n        /* \"contracts/Market.sol\":8520:8532  bal[betterB] */\n      dup6\n      and\n      dup5\n      mstore\n        /* \"contracts/Market.sol\":8520:8523  bal */\n      0x06\n        /* \"contracts/Market.sol\":8520:8532  bal[betterB] */\n      swap1\n      swap3\n      mstore\n      dup3\n      keccak256\n        /* \"contracts/Market.sol\":8520:8560  bal[betterB] += pairsInfo[_pair].amountB */\n      dup1\n      sload\n        /* \"contracts/Market.sol\":8536:8560  pairsInfo[_pair].amountB */\n      swap2\n      swap3\n        /* \"contracts/Market.sol\":8520:8532  bal[betterB] */\n      swap1\n      swap2\n        /* \"contracts/Market.sol\":8520:8560  bal[betterB] += pairsInfo[_pair].amountB */\n      tag_349\n      swap1\n        /* \"contracts/Market.sol\":8536:8560  pairsInfo[_pair].amountB */\n      dup5\n      swap1\n        /* \"contracts/Market.sol\":8520:8560  bal[betterB] += pairsInfo[_pair].amountB */\n      tag_221\n      jump\t// in\n    tag_349:\n      swap1\n      swap2\n      sstore\n      pop\n      pop\n      pop\n        /* \"contracts/Market.sol\":8570:8586  pairsInfo[_pair] */\n      0x00\n      swap2\n      dup3\n      mstore\n      pop\n        /* \"contracts/Market.sol\":8570:8579  pairsInfo */\n      0x09\n        /* \"contracts/Market.sol\":8570:8586  pairsInfo[_pair] */\n      0x20\n      mstore\n      0x40\n      swap1\n      keccak256\n        /* \"contracts/Market.sol\":8570:8594  pairsInfo[_pair].settled */\n      0x04\n      add\n        /* \"contracts/Market.sol\":8570:8601  pairsInfo[_pair].settled = true */\n      dup1\n      sload\n      not(0xff)\n      and\n        /* \"contracts/Market.sol\":8597:8601  true */\n      0x01\n        /* \"contracts/Market.sol\":8570:8601  pairsInfo[_pair].settled = true */\n      or\n      swap1\n      sstore\n        /* \"contracts/Market.sol\":8276:8624  function _cancelPair(bytes32 _pair) private {... */\n      jump\t// out\n        /* \"contracts/Market.sol\":9960:10767  function _createBet(... */\n    tag_169:\n        /* \"contracts/Market.sol\":10159:10166  bytes32 */\n      0x00\n        /* \"contracts/Market.sol\":10182:10197  bytes32 betHash */\n      dup1\n        /* \"contracts/Market.sol\":10207:10213  uint i */\n      0x00\n        /* \"contracts/Market.sol\":10227:10576  while(i >= 0){... */\n    tag_351:\n        /* \"contracts/Market.sol\":10364:10368  bets */\n      0x04\n        /* \"contracts/Market.sol\":10364:10375  bets.length */\n      sload\n        /* \"contracts/Market.sol\":10308:10315  _better */\n      dup10\n      swap1\n        /* \"contracts/Market.sol\":10341:10345  this */\n      address\n      swap1\n        /* \"contracts/Market.sol\":10382:10383  i */\n      dup4\n      swap1\n        /* \"contracts/Market.sol\":10364:10379  bets.length + 1 */\n      tag_353\n      swap1\n        /* \"contracts/Market.sol\":10378:10379  1 */\n      0x01\n        /* \"contracts/Market.sol\":10364:10379  bets.length + 1 */\n      tag_221\n      jump\t// in\n    tag_353:\n        /* \"contracts/Market.sol\":10364:10383  bets.length + 1 + i */\n      tag_354\n      swap2\n      swap1\n      tag_221\n      jump\t// in\n    tag_354:\n        /* \"contracts/Market.sol\":10274:10464  abi.encodePacked(... */\n      mload(0x40)\n      not(0xffffffffffffffffffffffff)\n        /* \"#utility.yul\":12228:12230   */\n      0x60\n        /* \"#utility.yul\":12224:12239   */\n      swap5\n      dup6\n      shl\n        /* \"#utility.yul\":12220:12244   */\n      dup2\n      and\n        /* \"contracts/Market.sol\":10274:10464  abi.encodePacked(... */\n      0x20\n      dup4\n      add\n        /* \"#utility.yul\":12208:12245   */\n      mstore\n        /* \"#utility.yul\":12279:12294   */\n      swap3\n      swap1\n      swap4\n      shl\n        /* \"#utility.yul\":12275:12299   */\n      swap1\n      swap2\n      and\n        /* \"#utility.yul\":12261:12273   */\n      0x34\n      dup4\n      add\n        /* \"#utility.yul\":12254:12300   */\n      mstore\n        /* \"#utility.yul\":12316:12328   */\n      0x48\n      dup3\n      add\n        /* \"#utility.yul\":12309:12337   */\n      mstore\n        /* \"contracts/Market.sol\":10401:10416  block.timestamp */\n      timestamp\n        /* \"#utility.yul\":12353:12365   */\n      0x68\n      dup3\n      add\n        /* \"#utility.yul\":12346:12374   */\n      mstore\n        /* \"contracts/Market.sol\":10434:10450  block.difficulty */\n      difficulty\n        /* \"#utility.yul\":12390:12403   */\n      0x88\n      dup3\n      add\n        /* \"#utility.yul\":12383:12412   */\n      mstore\n        /* \"#utility.yul\":12428:12441   */\n      0xa8\n      add\n        /* \"contracts/Market.sol\":10274:10464  abi.encodePacked(... */\n      0x40\n      dup1\n      mload\n      not(0x1f)\n      dup2\n      dup5\n      sub\n      add\n      dup2\n      mstore\n      swap2\n      dup2\n      mstore\n        /* \"contracts/Market.sol\":10264:10465  keccak256(abi.encodePacked(... */\n      dup2\n      mload\n        /* \"contracts/Market.sol\":10274:10464  abi.encodePacked(... */\n      0x20\n        /* \"contracts/Market.sol\":10264:10465  keccak256(abi.encodePacked(... */\n      swap3\n      dup4\n      add\n      keccak256\n        /* \"contracts/Market.sol\":10482:10499  betsInfo[betHash] */\n      0x00\n      dup2\n      dup2\n      mstore\n        /* \"contracts/Market.sol\":10482:10490  betsInfo */\n      0x07\n        /* \"contracts/Market.sol\":10482:10499  betsInfo[betHash] */\n      swap1\n      swap4\n      mstore\n      swap2\n      keccak256\n        /* \"contracts/Market.sol\":10482:10505  betsInfo[betHash].stake */\n      0x02\n      add\n      sload\n        /* \"contracts/Market.sol\":10264:10465  keccak256(abi.encodePacked(... */\n      swap1\n      swap3\n      pop\n        /* \"contracts/Market.sol\":10479:10549  if(betsInfo[betHash].stake == 0){... */\n      iszero\n        /* \"contracts/Market.sol\":10529:10534  break */\n      tag_352\n        /* \"contracts/Market.sol\":10479:10549  if(betsInfo[betHash].stake == 0){... */\n      jumpi\n        /* \"contracts/Market.sol\":10562:10565  i++ */\n      dup1\n      tag_358\n      dup2\n      tag_68\n      jump\t// in\n    tag_358:\n      swap2\n      pop\n      pop\n        /* \"contracts/Market.sol\":10227:10576  while(i >= 0){... */\n      jump(tag_351)\n    tag_352:\n      pop\n        /* \"contracts/Market.sol\":10605:10667  MarketBet(_better, _affiliate, _stake, _matched, _odds, _side) */\n      0x40\n      dup1\n      mload\n      0xc0\n      dup2\n      add\n      dup3\n      mstore\n      sub(shl(0xa0, 0x01), 0x01)\n      swap10\n      dup11\n      and\n      dup1\n      dup3\n      mstore\n      swap9\n      dup11\n      and\n      0x20\n      dup1\n      dup4\n      add\n      swap2\n      dup3\n      mstore\n      dup3\n      dup5\n      add\n      swap10\n      dup11\n      mstore\n      0x60\n      dup4\n      add\n      swap9\n      dup10\n      mstore\n      0x80\n      dup4\n      add\n      swap8\n      dup9\n      mstore\n      0xa0\n      dup4\n      add\n      swap7\n      dup8\n      mstore\n      0x00\n        /* \"contracts/Market.sol\":10585:10602  betsInfo[betHash] */\n      dup6\n      dup2\n      mstore\n        /* \"contracts/Market.sol\":10585:10593  betsInfo */\n      0x07\n        /* \"contracts/Market.sol\":10585:10602  betsInfo[betHash] */\n      dup3\n      mstore\n      dup5\n      dup2\n      keccak256\n        /* \"contracts/Market.sol\":10585:10667  betsInfo[betHash] = MarketBet(_better, _affiliate, _stake, _matched, _odds, _side) */\n      swap4\n      mload\n      dup5\n      sload\n      swap1\n      dup15\n      and\n      not(sub(shl(0xa0, 0x01), 0x01))\n      swap2\n      dup3\n      and\n      or\n      dup6\n      sstore\n      swap3\n      mload\n      0x01\n      dup1\n      dup7\n      add\n      dup1\n      sload\n      swap3\n      swap1\n      swap16\n      and\n      swap2\n      swap1\n      swap5\n      and\n      or\n      swap1\n      swap13\n      sstore\n      swap9\n      mload\n      0x02\n      dup4\n      add\n      sstore\n      swap7\n      mload\n      0x03\n      dup3\n      add\n      sstore\n      swap5\n      mload\n      0x04\n      dup1\n      dup8\n      add\n      swap2\n      swap1\n      swap2\n      sstore\n      swap4\n      mload\n      0x05\n      swap1\n      swap6\n      add\n      swap5\n      swap1\n      swap5\n      sstore\n        /* \"contracts/Market.sol\":10677:10695  bets.push(betHash) */\n      dup3\n      sload\n      dup1\n      dup7\n      add\n      swap1\n      swap4\n      sstore\n      0x8a35acfbc15ff81a39ae7d344fd709f28e8600b4aa8c65c6b64bfe7fe36bd19b\n      swap1\n      swap3\n      add\n      dup3\n      swap1\n      sstore\n      pop\n        /* \"contracts/Market.sol\":10705:10722  userBets[_better] */\n      swap4\n      dup6\n      mstore\n        /* \"contracts/Market.sol\":10705:10713  userBets */\n      0x08\n        /* \"contracts/Market.sol\":10705:10722  userBets[_better] */\n      dup4\n      mstore\n      dup5\n      keccak256\n        /* \"contracts/Market.sol\":10705:10736  userBets[_better].push(betHash) */\n      dup1\n      sload\n      swap2\n      dup3\n      add\n      dup2\n      sstore\n      dup5\n      mstore\n      swap3\n      keccak256\n      swap1\n      swap2\n      add\n      dup2\n      swap1\n      sstore\n        /* \"contracts/Market.sol\":10585:10602  betsInfo[betHash] */\n      swap1\n        /* \"contracts/Market.sol\":9960:10767  function _createBet(... */\n      jump\t// out\n        /* \"contracts/Market.sol\":10773:11505  function _createPair(... */\n    tag_200:\n        /* \"contracts/Market.sol\":10931:10938  bytes32 */\n      0x00\n        /* \"contracts/Market.sol\":10954:10970  bytes32 pairHash */\n      dup1\n        /* \"contracts/Market.sol\":10980:10986  uint i */\n      0x00\n        /* \"contracts/Market.sol\":11000:11353  while(i >= 0){... */\n    tag_362:\n        /* \"contracts/Market.sol\":11136:11141  pairs */\n      0x03\n        /* \"contracts/Market.sol\":11136:11148  pairs.length */\n      sload\n        /* \"contracts/Market.sol\":11082:11091  _betHashA */\n      dup8\n      swap1\n        /* \"contracts/Market.sol\":11109:11118  _betHashB */\n      dup8\n      swap1\n        /* \"contracts/Market.sol\":11155:11156  i */\n      dup4\n      swap1\n        /* \"contracts/Market.sol\":11136:11152  pairs.length + 1 */\n      tag_364\n      swap1\n        /* \"contracts/Market.sol\":11151:11152  1 */\n      0x01\n        /* \"contracts/Market.sol\":11136:11152  pairs.length + 1 */\n      tag_221\n      jump\t// in\n    tag_364:\n        /* \"contracts/Market.sol\":11136:11156  pairs.length + 1 + i */\n      tag_365\n      swap2\n      swap1\n      tag_221\n      jump\t// in\n    tag_365:\n        /* \"contracts/Market.sol\":11048:11237  abi.encodePacked(... */\n      0x40\n      dup1\n      mload\n      0x20\n      dup2\n      add\n        /* \"#utility.yul\":12693:12712   */\n      swap5\n      swap1\n      swap5\n      mstore\n        /* \"#utility.yul\":12728:12740   */\n      dup4\n      add\n        /* \"#utility.yul\":12721:12749   */\n      swap2\n      swap1\n      swap2\n      mstore\n        /* \"#utility.yul\":12765:12777   */\n      0x60\n      dup3\n      add\n        /* \"#utility.yul\":12758:12786   */\n      mstore\n        /* \"contracts/Market.sol\":11174:11189  block.timestamp */\n      timestamp\n        /* \"#utility.yul\":12802:12814   */\n      0x80\n      dup3\n      add\n        /* \"#utility.yul\":12795:12823   */\n      mstore\n        /* \"contracts/Market.sol\":11207:11223  block.difficulty */\n      difficulty\n        /* \"#utility.yul\":12839:12852   */\n      0xa0\n      dup3\n      add\n        /* \"#utility.yul\":12832:12861   */\n      mstore\n        /* \"#utility.yul\":12877:12890   */\n      0xc0\n      add\n        /* \"contracts/Market.sol\":11048:11237  abi.encodePacked(... */\n      0x40\n      dup1\n      mload\n      not(0x1f)\n      dup2\n      dup5\n      sub\n      add\n      dup2\n      mstore\n      swap2\n      dup2\n      mstore\n        /* \"contracts/Market.sol\":11038:11238  keccak256(abi.encodePacked(... */\n      dup2\n      mload\n        /* \"contracts/Market.sol\":11048:11237  abi.encodePacked(... */\n      0x20\n        /* \"contracts/Market.sol\":11038:11238  keccak256(abi.encodePacked(... */\n      swap3\n      dup4\n      add\n      keccak256\n        /* \"contracts/Market.sol\":11255:11274  pairsInfo[pairHash] */\n      0x00\n      dup2\n      dup2\n      mstore\n        /* \"contracts/Market.sol\":11255:11264  pairsInfo */\n      0x09\n        /* \"contracts/Market.sol\":11255:11274  pairsInfo[pairHash] */\n      swap1\n      swap4\n      mstore\n      swap2\n      keccak256\n        /* \"contracts/Market.sol\":11255:11282  pairsInfo[pairHash].amountA */\n      0x02\n      add\n      sload\n        /* \"contracts/Market.sol\":11038:11238  keccak256(abi.encodePacked(... */\n      swap1\n      swap3\n      pop\n        /* \"contracts/Market.sol\":11252:11326  if(pairsInfo[pairHash].amountA == 0){... */\n      iszero\n        /* \"contracts/Market.sol\":11306:11311  break */\n      tag_363\n        /* \"contracts/Market.sol\":11252:11326  if(pairsInfo[pairHash].amountA == 0){... */\n      jumpi\n        /* \"contracts/Market.sol\":11339:11342  i++ */\n      dup1\n      tag_369\n      dup2\n      tag_68\n      jump\t// in\n    tag_369:\n      swap2\n      pop\n      pop\n        /* \"contracts/Market.sol\":11000:11353  while(i >= 0){... */\n      jump(tag_362)\n    tag_363:\n      pop\n        /* \"contracts/Market.sol\":11384:11443  MarketPair(_betHashA, _betHashB, _amountA, _amountB, false) */\n      0x40\n      dup1\n      mload\n      0xa0\n      dup2\n      add\n      dup3\n      mstore\n      swap7\n      dup8\n      mstore\n      0x20\n      dup1\n      dup9\n      add\n      swap7\n      dup8\n      mstore\n      dup8\n      dup3\n      add\n      swap6\n      dup7\n      mstore\n      0x60\n      dup9\n      add\n      swap5\n      dup6\n      mstore\n      0x00\n      0x80\n      dup10\n      add\n      dup2\n      dup2\n      mstore\n        /* \"contracts/Market.sol\":11362:11381  pairsInfo[pairHash] */\n      dup5\n      dup3\n      mstore\n        /* \"contracts/Market.sol\":11362:11371  pairsInfo */\n      0x09\n        /* \"contracts/Market.sol\":11362:11381  pairsInfo[pairHash] */\n      swap1\n      swap3\n      mstore\n      swap2\n      dup3\n      keccak256\n        /* \"contracts/Market.sol\":11362:11443  pairsInfo[pairHash] = MarketPair(_betHashA, _betHashB, _amountA, _amountB, false) */\n      swap8\n      mload\n      dup9\n      sstore\n      swap6\n      mload\n        /* \"contracts/Market.sol\":11384:11443  MarketPair(_betHashA, _betHashB, _amountA, _amountB, false) */\n      0x01\n        /* \"contracts/Market.sol\":11362:11443  pairsInfo[pairHash] = MarketPair(_betHashA, _betHashB, _amountA, _amountB, false) */\n      dup1\n      dup10\n      add\n      swap2\n      swap1\n      swap2\n      sstore\n      swap5\n      mload\n      0x02\n      dup9\n      add\n      sstore\n      swap3\n      mload\n      0x03\n      dup1\n      dup9\n      add\n      swap2\n      swap1\n      swap2\n      sstore\n      swap5\n      mload\n      0x04\n      swap1\n      swap7\n      add\n      dup1\n      sload\n      not(0xff)\n      and\n      swap7\n      iszero\n      iszero\n      swap7\n      swap1\n      swap7\n      or\n      swap1\n      swap6\n      sstore\n      pop\n        /* \"contracts/Market.sol\":11453:11473  pairs.push(pairHash) */\n      dup3\n      sload\n      swap2\n      dup3\n      add\n      dup4\n      sstore\n      swap2\n      swap1\n      swap2\n      mstore\n      0xc2575a0e9e593c00f959f8c92f12db2869c3395a3b0502d05e2516446f71f85b\n      add\n      dup2\n      swap1\n      sstore\n        /* \"contracts/Market.sol\":11362:11381  pairsInfo[pairHash] */\n      swap1\n        /* \"contracts/Market.sol\":10773:11505  function _createPair(... */\n      jump\t// out\n        /* \"#utility.yul\":196:327   */\n    tag_371:\n      sub(shl(0xa0, 0x01), 0x01)\n        /* \"#utility.yul\":271:302   */\n      dup2\n      and\n        /* \"#utility.yul\":261:303   */\n      dup2\n      eq\n        /* \"#utility.yul\":251:321   */\n      tag_377\n      jumpi\n        /* \"#utility.yul\":317:318   */\n      0x00\n        /* \"#utility.yul\":314:315   */\n      dup1\n        /* \"#utility.yul\":307:319   */\n      revert\n        /* \"#utility.yul\":251:321   */\n    tag_377:\n        /* \"#utility.yul\":196:327   */\n      pop\n      jump\t// out\n        /* \"#utility.yul\":332:579   */\n    tag_20:\n        /* \"#utility.yul\":391:397   */\n      0x00\n        /* \"#utility.yul\":444:446   */\n      0x20\n        /* \"#utility.yul\":432:441   */\n      dup3\n        /* \"#utility.yul\":423:430   */\n      dup5\n        /* \"#utility.yul\":419:442   */\n      sub\n        /* \"#utility.yul\":415:447   */\n      slt\n        /* \"#utility.yul\":412:464   */\n      iszero\n      tag_379\n      jumpi\n        /* \"#utility.yul\":460:461   */\n      0x00\n        /* \"#utility.yul\":457:458   */\n      dup1\n        /* \"#utility.yul\":450:462   */\n      revert\n        /* \"#utility.yul\":412:464   */\n    tag_379:\n        /* \"#utility.yul\":499:508   */\n      dup2\n        /* \"#utility.yul\":486:509   */\n      calldataload\n        /* \"#utility.yul\":518:549   */\n      tag_380\n        /* \"#utility.yul\":543:548   */\n      dup2\n        /* \"#utility.yul\":518:549   */\n      tag_371\n      jump\t// in\n    tag_380:\n        /* \"#utility.yul\":568:573   */\n      swap4\n        /* \"#utility.yul\":332:579   */\n      swap3\n      pop\n      pop\n      pop\n      jump\t// out\n        /* \"#utility.yul\":584:1731   */\n    tag_23:\n        /* \"#utility.yul\":809:811   */\n      0x20\n        /* \"#utility.yul\":861:882   */\n      dup1\n      dup3\n      mstore\n        /* \"#utility.yul\":931:944   */\n      dup3\n      mload\n        /* \"#utility.yul\":834:852   */\n      dup3\n      dup3\n      add\n        /* \"#utility.yul\":953:975   */\n      dup2\n      swap1\n      mstore\n        /* \"#utility.yul\":780:784   */\n      0x00\n      swap2\n        /* \"#utility.yul\":809:811   */\n      swap1\n        /* \"#utility.yul\":994:996   */\n      0x40\n      swap1\n        /* \"#utility.yul\":1012:1030   */\n      dup2\n      dup6\n      add\n      swap1\n        /* \"#utility.yul\":1053:1068   */\n      dup7\n      dup5\n      add\n        /* \"#utility.yul\":780:784   */\n      dup6\n        /* \"#utility.yul\":1096:1705   */\n    tag_382:\n        /* \"#utility.yul\":1110:1116   */\n      dup3\n        /* \"#utility.yul\":1107:1108   */\n      dup2\n        /* \"#utility.yul\":1104:1117   */\n      lt\n        /* \"#utility.yul\":1096:1705   */\n      iszero\n      tag_384\n      jumpi\n        /* \"#utility.yul\":1169:1182   */\n      dup2\n      mload\n        /* \"#utility.yul\":1253:1262   */\n      dup1\n      mload\n      sub(shl(0xa0, 0x01), 0x01)\n        /* \"#utility.yul\":1249:1267   */\n      swap1\n      dup2\n      and\n        /* \"#utility.yul\":1237:1268   */\n      dup7\n      mstore\n        /* \"#utility.yul\":1312:1323   */\n      dup8\n      dup3\n      add\n        /* \"#utility.yul\":1306:1324   */\n      mload\n        /* \"#utility.yul\":1302:1329   */\n      and\n        /* \"#utility.yul\":1288:1300   */\n      dup8\n      dup7\n      add\n        /* \"#utility.yul\":1281:1330   */\n      mstore\n        /* \"#utility.yul\":1370:1381   */\n      dup6\n      dup2\n      add\n        /* \"#utility.yul\":1364:1382   */\n      mload\n        /* \"#utility.yul\":1350:1362   */\n      dup7\n      dup7\n      add\n        /* \"#utility.yul\":1343:1383   */\n      mstore\n        /* \"#utility.yul\":1406:1410   */\n      0x60\n        /* \"#utility.yul\":1450:1461   */\n      dup1\n      dup3\n      add\n        /* \"#utility.yul\":1444:1462   */\n      mload\n        /* \"#utility.yul\":1430:1442   */\n      swap1\n      dup7\n      add\n        /* \"#utility.yul\":1423:1463   */\n      mstore\n        /* \"#utility.yul\":1486:1490   */\n      0x80\n        /* \"#utility.yul\":1530:1541   */\n      dup1\n      dup3\n      add\n        /* \"#utility.yul\":1524:1542   */\n      mload\n        /* \"#utility.yul\":1510:1522   */\n      swap1\n      dup7\n      add\n        /* \"#utility.yul\":1503:1543   */\n      mstore\n        /* \"#utility.yul\":1213:1216   */\n      0xa0\n        /* \"#utility.yul\":1610:1621   */\n      swap1\n      dup2\n      add\n        /* \"#utility.yul\":1604:1622   */\n      mload\n        /* \"#utility.yul\":1590:1602   */\n      swap1\n      dup6\n      add\n        /* \"#utility.yul\":1583:1623   */\n      mstore\n        /* \"#utility.yul\":1652:1656   */\n      0xc0\n        /* \"#utility.yul\":1643:1657   */\n      swap1\n      swap4\n      add\n      swap3\n        /* \"#utility.yul\":1680:1695   */\n      swap1\n      dup6\n      add\n      swap1\n        /* \"#utility.yul\":1222:1223   */\n      0x01\n        /* \"#utility.yul\":1125:1134   */\n      add\n        /* \"#utility.yul\":1096:1705   */\n      jump(tag_382)\n    tag_384:\n      pop\n        /* \"#utility.yul\":1722:1725   */\n      swap2\n      swap8\n        /* \"#utility.yul\":584:1731   */\n      swap7\n      pop\n      pop\n      pop\n      pop\n      pop\n      pop\n      pop\n      jump\t// out\n        /* \"#utility.yul\":1928:2108   */\n    tag_31:\n        /* \"#utility.yul\":1987:1993   */\n      0x00\n        /* \"#utility.yul\":2040:2042   */\n      0x20\n        /* \"#utility.yul\":2028:2037   */\n      dup3\n        /* \"#utility.yul\":2019:2026   */\n      dup5\n        /* \"#utility.yul\":2015:2038   */\n      sub\n        /* \"#utility.yul\":2011:2043   */\n      slt\n        /* \"#utility.yul\":2008:2060   */\n      iszero\n      tag_387\n      jumpi\n        /* \"#utility.yul\":2056:2057   */\n      0x00\n        /* \"#utility.yul\":2053:2054   */\n      dup1\n        /* \"#utility.yul\":2046:2058   */\n      revert\n        /* \"#utility.yul\":2008:2060   */\n    tag_387:\n      pop\n        /* \"#utility.yul\":2079:2102   */\n      calldataload\n      swap2\n        /* \"#utility.yul\":1928:2108   */\n      swap1\n      pop\n      jump\t// out\n        /* \"#utility.yul\":2113:2231   */\n    tag_372:\n        /* \"#utility.yul\":2199:2204   */\n      dup1\n        /* \"#utility.yul\":2192:2205   */\n      iszero\n        /* \"#utility.yul\":2185:2206   */\n      iszero\n        /* \"#utility.yul\":2178:2183   */\n      dup2\n        /* \"#utility.yul\":2175:2207   */\n      eq\n        /* \"#utility.yul\":2165:2225   */\n      tag_377\n      jumpi\n        /* \"#utility.yul\":2221:2222   */\n      0x00\n        /* \"#utility.yul\":2218:2219   */\n      dup1\n        /* \"#utility.yul\":2211:2223   */\n      revert\n        /* \"#utility.yul\":2236:2966   */\n    tag_38:\n        /* \"#utility.yul\":2337:2343   */\n      0x00\n        /* \"#utility.yul\":2345:2351   */\n      dup1\n        /* \"#utility.yul\":2353:2359   */\n      0x00\n        /* \"#utility.yul\":2361:2367   */\n      dup1\n        /* \"#utility.yul\":2369:2375   */\n      0x00\n        /* \"#utility.yul\":2377:2383   */\n      dup1\n        /* \"#utility.yul\":2430:2433   */\n      0xc0\n        /* \"#utility.yul\":2418:2427   */\n      dup8\n        /* \"#utility.yul\":2409:2416   */\n      dup10\n        /* \"#utility.yul\":2405:2428   */\n      sub\n        /* \"#utility.yul\":2401:2434   */\n      slt\n        /* \"#utility.yul\":2398:2451   */\n      iszero\n      tag_391\n      jumpi\n        /* \"#utility.yul\":2447:2448   */\n      0x00\n        /* \"#utility.yul\":2444:2445   */\n      dup1\n        /* \"#utility.yul\":2437:2449   */\n      revert\n        /* \"#utility.yul\":2398:2451   */\n    tag_391:\n        /* \"#utility.yul\":2486:2495   */\n      dup7\n        /* \"#utility.yul\":2473:2496   */\n      calldataload\n        /* \"#utility.yul\":2505:2536   */\n      tag_392\n        /* \"#utility.yul\":2530:2535   */\n      dup2\n        /* \"#utility.yul\":2505:2536   */\n      tag_371\n      jump\t// in\n    tag_392:\n        /* \"#utility.yul\":2555:2560   */\n      swap6\n      pop\n        /* \"#utility.yul\":2612:2614   */\n      0x20\n        /* \"#utility.yul\":2597:2615   */\n      dup8\n      add\n        /* \"#utility.yul\":2584:2616   */\n      calldataload\n        /* \"#utility.yul\":2625:2658   */\n      tag_393\n        /* \"#utility.yul\":2584:2616   */\n      dup2\n        /* \"#utility.yul\":2625:2658   */\n      tag_371\n      jump\t// in\n    tag_393:\n        /* \"#utility.yul\":2677:2684   */\n      swap5\n      pop\n        /* \"#utility.yul\":2731:2733   */\n      0x40\n        /* \"#utility.yul\":2716:2734   */\n      dup8\n      add\n        /* \"#utility.yul\":2703:2735   */\n      calldataload\n      swap4\n      pop\n        /* \"#utility.yul\":2782:2784   */\n      0x60\n        /* \"#utility.yul\":2767:2785   */\n      dup8\n      add\n        /* \"#utility.yul\":2754:2786   */\n      calldataload\n      swap3\n      pop\n        /* \"#utility.yul\":2833:2836   */\n      0x80\n        /* \"#utility.yul\":2818:2837   */\n      dup8\n      add\n        /* \"#utility.yul\":2805:2838   */\n      calldataload\n      swap2\n      pop\n        /* \"#utility.yul\":2890:2893   */\n      0xa0\n        /* \"#utility.yul\":2875:2894   */\n      dup8\n      add\n        /* \"#utility.yul\":2862:2895   */\n      calldataload\n        /* \"#utility.yul\":2904:2934   */\n      tag_394\n        /* \"#utility.yul\":2862:2895   */\n      dup2\n        /* \"#utility.yul\":2904:2934   */\n      tag_372\n      jump\t// in\n    tag_394:\n        /* \"#utility.yul\":2953:2960   */\n      dup1\n        /* \"#utility.yul\":2943:2960   */\n      swap2\n      pop\n      pop\n        /* \"#utility.yul\":2236:2966   */\n      swap3\n      swap6\n      pop\n      swap3\n      swap6\n      pop\n      swap3\n      swap6\n      jump\t// out\n        /* \"#utility.yul\":3338:3465   */\n    tag_64:\n        /* \"#utility.yul\":3399:3409   */\n      0x4e487b71\n        /* \"#utility.yul\":3394:3397   */\n      0xe0\n        /* \"#utility.yul\":3390:3410   */\n      shl\n        /* \"#utility.yul\":3387:3388   */\n      0x00\n        /* \"#utility.yul\":3380:3411   */\n      mstore\n        /* \"#utility.yul\":3430:3434   */\n      0x32\n        /* \"#utility.yul\":3427:3428   */\n      0x04\n        /* \"#utility.yul\":3420:3435   */\n      mstore\n        /* \"#utility.yul\":3454:3458   */\n      0x24\n        /* \"#utility.yul\":3451:3452   */\n      0x00\n        /* \"#utility.yul\":3444:3459   */\n      revert\n        /* \"#utility.yul\":3470:3597   */\n    tag_373:\n        /* \"#utility.yul\":3531:3541   */\n      0x4e487b71\n        /* \"#utility.yul\":3526:3529   */\n      0xe0\n        /* \"#utility.yul\":3522:3542   */\n      shl\n        /* \"#utility.yul\":3519:3520   */\n      0x00\n        /* \"#utility.yul\":3512:3543   */\n      mstore\n        /* \"#utility.yul\":3562:3566   */\n      0x11\n        /* \"#utility.yul\":3559:3560   */\n      0x04\n        /* \"#utility.yul\":3552:3567   */\n      mstore\n        /* \"#utility.yul\":3586:3590   */\n      0x24\n        /* \"#utility.yul\":3583:3584   */\n      0x00\n        /* \"#utility.yul\":3576:3591   */\n      revert\n        /* \"#utility.yul\":3602:3737   */\n    tag_68:\n        /* \"#utility.yul\":3641:3644   */\n      0x00\n        /* \"#utility.yul\":3662:3679   */\n      0x01\n      dup3\n      add\n        /* \"#utility.yul\":3659:3702   */\n      tag_402\n      jumpi\n        /* \"#utility.yul\":3682:3700   */\n      tag_402\n      tag_373\n      jump\t// in\n    tag_402:\n      pop\n        /* \"#utility.yul\":3729:3730   */\n      0x01\n        /* \"#utility.yul\":3718:3731   */\n      add\n      swap1\n        /* \"#utility.yul\":3602:3737   */\n      jump\t// out\n        /* \"#utility.yul\":3742:4097   */\n    tag_72:\n        /* \"#utility.yul\":3944:3946   */\n      0x20\n        /* \"#utility.yul\":3926:3947   */\n      dup1\n      dup3\n      mstore\n        /* \"#utility.yul\":3983:3985   */\n      0x1f\n        /* \"#utility.yul\":3963:3981   */\n      swap1\n      dup3\n      add\n        /* \"#utility.yul\":3956:3986   */\n      mstore\n        /* \"#utility.yul\":4022:4055   */\n      0x5265656e7472616e637947756172643a207265656e7472616e742063616c6c00\n        /* \"#utility.yul\":4017:4019   */\n      0x40\n        /* \"#utility.yul\":4002:4020   */\n      dup3\n      add\n        /* \"#utility.yul\":3995:4056   */\n      mstore\n        /* \"#utility.yul\":4088:4090   */\n      0x60\n        /* \"#utility.yul\":4073:4091   */\n      add\n      swap1\n        /* \"#utility.yul\":3742:4097   */\n      jump\t// out\n        /* \"#utility.yul\":4310:4494   */\n    tag_79:\n        /* \"#utility.yul\":4380:4386   */\n      0x00\n        /* \"#utility.yul\":4433:4435   */\n      0x20\n        /* \"#utility.yul\":4421:4430   */\n      dup3\n        /* \"#utility.yul\":4412:4419   */\n      dup5\n        /* \"#utility.yul\":4408:4431   */\n      sub\n        /* \"#utility.yul\":4404:4436   */\n      slt\n        /* \"#utility.yul\":4401:4453   */\n      iszero\n      tag_406\n      jumpi\n        /* \"#utility.yul\":4449:4450   */\n      0x00\n        /* \"#utility.yul\":4446:4447   */\n      dup1\n        /* \"#utility.yul\":4439:4451   */\n      revert\n        /* \"#utility.yul\":4401:4453   */\n    tag_406:\n      pop\n        /* \"#utility.yul\":4472:4488   */\n      mload\n      swap2\n        /* \"#utility.yul\":4310:4494   */\n      swap1\n      pop\n      jump\t// out\n        /* \"#utility.yul\":5108:5353   */\n    tag_89:\n        /* \"#utility.yul\":5175:5181   */\n      0x00\n        /* \"#utility.yul\":5228:5230   */\n      0x20\n        /* \"#utility.yul\":5216:5225   */\n      dup3\n        /* \"#utility.yul\":5207:5214   */\n      dup5\n        /* \"#utility.yul\":5203:5226   */\n      sub\n        /* \"#utility.yul\":5199:5231   */\n      slt\n        /* \"#utility.yul\":5196:5248   */\n      iszero\n      tag_410\n      jumpi\n        /* \"#utility.yul\":5244:5245   */\n      0x00\n        /* \"#utility.yul\":5241:5242   */\n      dup1\n        /* \"#utility.yul\":5234:5246   */\n      revert\n        /* \"#utility.yul\":5196:5248   */\n    tag_410:\n        /* \"#utility.yul\":5276:5285   */\n      dup2\n        /* \"#utility.yul\":5270:5286   */\n      mload\n        /* \"#utility.yul\":5295:5323   */\n      tag_380\n        /* \"#utility.yul\":5317:5322   */\n      dup2\n        /* \"#utility.yul\":5295:5323   */\n      tag_372\n      jump\t// in\n        /* \"#utility.yul\":5688:5816   */\n    tag_98:\n        /* \"#utility.yul\":5755:5764   */\n      dup2\n      dup2\n      sub\n        /* \"#utility.yul\":5776:5787   */\n      dup2\n      dup2\n      gt\n        /* \"#utility.yul\":5773:5810   */\n      iszero\n      tag_415\n      jumpi\n        /* \"#utility.yul\":5790:5808   */\n      tag_415\n      tag_373\n      jump\t// in\n    tag_415:\n        /* \"#utility.yul\":5688:5816   */\n      swap3\n      swap2\n      pop\n      pop\n      jump\t// out\n        /* \"#utility.yul\":5821:6146   */\n    tag_115:\n        /* \"#utility.yul\":6023:6025   */\n      0x20\n        /* \"#utility.yul\":6005:6026   */\n      dup1\n      dup3\n      mstore\n        /* \"#utility.yul\":6062:6063   */\n      0x02\n        /* \"#utility.yul\":6042:6060   */\n      swap1\n      dup3\n      add\n        /* \"#utility.yul\":6035:6064   */\n      mstore\n      shl(0xf0, 0x4d31)\n        /* \"#utility.yul\":6095:6097   */\n      0x40\n        /* \"#utility.yul\":6080:6098   */\n      dup3\n      add\n        /* \"#utility.yul\":6073:6105   */\n      mstore\n        /* \"#utility.yul\":6137:6139   */\n      0x60\n        /* \"#utility.yul\":6122:6140   */\n      add\n      swap1\n        /* \"#utility.yul\":5821:6146   */\n      jump\t// out\n        /* \"#utility.yul\":8492:8660   */\n    tag_166:\n        /* \"#utility.yul\":8565:8574   */\n      dup1\n      dup3\n      mul\n        /* \"#utility.yul\":8596:8605   */\n      dup2\n      iszero\n        /* \"#utility.yul\":8613:8628   */\n      dup3\n      dup3\n      div\n        /* \"#utility.yul\":8607:8629   */\n      dup5\n      eq\n        /* \"#utility.yul\":8593:8630   */\n      or\n        /* \"#utility.yul\":8583:8654   */\n      tag_415\n      jumpi\n        /* \"#utility.yul\":8634:8652   */\n      tag_415\n      tag_373\n      jump\t// in\n        /* \"#utility.yul\":8665:8882   */\n    tag_168:\n        /* \"#utility.yul\":8705:8706   */\n      0x00\n        /* \"#utility.yul\":8731:8732   */\n      dup3\n        /* \"#utility.yul\":8721:8853   */\n      tag_428\n      jumpi\n        /* \"#utility.yul\":8775:8785   */\n      0x4e487b71\n        /* \"#utility.yul\":8770:8773   */\n      0xe0\n        /* \"#utility.yul\":8766:8786   */\n      shl\n        /* \"#utility.yul\":8763:8764   */\n      0x00\n        /* \"#utility.yul\":8756:8787   */\n      mstore\n        /* \"#utility.yul\":8810:8814   */\n      0x12\n        /* \"#utility.yul\":8807:8808   */\n      0x04\n        /* \"#utility.yul\":8800:8815   */\n      mstore\n        /* \"#utility.yul\":8838:8842   */\n      0x24\n        /* \"#utility.yul\":8835:8836   */\n      0x00\n        /* \"#utility.yul\":8828:8843   */\n      revert\n        /* \"#utility.yul\":8721:8853   */\n    tag_428:\n      pop\n        /* \"#utility.yul\":8867:8876   */\n      div\n      swap1\n        /* \"#utility.yul\":8665:8882   */\n      jump\t// out\n        /* \"#utility.yul\":9283:9408   */\n    tag_221:\n        /* \"#utility.yul\":9348:9357   */\n      dup1\n      dup3\n      add\n        /* \"#utility.yul\":9369:9379   */\n      dup1\n      dup3\n      gt\n        /* \"#utility.yul\":9366:9402   */\n      iszero\n      tag_415\n      jumpi\n        /* \"#utility.yul\":9382:9400   */\n      tag_415\n      tag_373\n      jump\t// in\n        /* \"#utility.yul\":11661:11912   */\n    tag_321:\n        /* \"#utility.yul\":11731:11737   */\n      0x00\n        /* \"#utility.yul\":11784:11786   */\n      0x20\n        /* \"#utility.yul\":11772:11781   */\n      dup3\n        /* \"#utility.yul\":11763:11770   */\n      dup5\n        /* \"#utility.yul\":11759:11782   */\n      sub\n        /* \"#utility.yul\":11755:11787   */\n      slt\n        /* \"#utility.yul\":11752:11804   */\n      iszero\n      tag_440\n      jumpi\n        /* \"#utility.yul\":11800:11801   */\n      0x00\n        /* \"#utility.yul\":11797:11798   */\n      dup1\n        /* \"#utility.yul\":11790:11802   */\n      revert\n        /* \"#utility.yul\":11752:11804   */\n    tag_440:\n        /* \"#utility.yul\":11832:11841   */\n      dup2\n        /* \"#utility.yul\":11826:11842   */\n      mload\n        /* \"#utility.yul\":11851:11882   */\n      tag_380\n        /* \"#utility.yul\":11876:11881   */\n      dup2\n        /* \"#utility.yul\":11851:11882   */\n      tag_371\n      jump\t// in\n\n    auxdata: 0xa2646970667358221220d5c4ea6731a717bbe5b8c3c5e8396a878170c4cd2dd13c911ad8d00be3c0571064736f6c63430008110033\n}\n",
				"bytecode": {
					"linkReferences": {},
					"object": "60c060405260006002556001546001600160a01b031660a0523480156200002557600080fd5b506001600081905580546001600160a01b031916339081179091556040805162966ed960e31b815290516304b376c8916004808201926020929091908290030181865afa1580156200007b573d6000803e3d6000fd5b505050506040513d601f19601f82011682018060405250810190620000a19190620000b3565b6001600160a01b0316608052620000e5565b600060208284031215620000c657600080fd5b81516001600160a01b0381168114620000de57600080fd5b9392505050565b60805160a0516121406200017b600039600081816107010152818161088d01528181610a4a015281816112f7015281816113b7015281816114d801528181611598015281816116b10152818161176701528181611801015281816118bb015281816119550152611a0f015260008181610320015281816103f20152818161048a0152818161080f015261096501526121406000f3fe608060405234801561001057600080fd5b506004361061009e5760003560e01c806378d65b2f1161006657806378d65b2f1461011f578063893372ca146101325780638df8280014610145578063be9a655514610158578063f8b2cb4f1461016057600080fd5b8063200d2ed2146100a35780632d56657d146100bf57806351cff8d9146100df578063675f6537146101025780636bfefd6b14610117575b600080fd5b6100ac60025481565b6040519081526020015b60405180910390f35b6100d26100cd366004611e84565b610189565b6040516100b69190611ea8565b6100f26100ed366004611e84565b6102bd565b60405190151581526020016100b6565b610115610110366004611f2c565b610567565b005b6100f2610629565b6100ac61012d366004611f53565b6106e9565b610115610140366004611f2c565b610f8b565b6100f2610153366004611f2c565b6110fd565b6101156111d5565b6100ac61016e366004611e84565b6001600160a01b031660009081526006602052604090205490565b6001600160a01b03811660009081526008602090815260408083208054825181850281018501909352808352606094859490939291908301828280156101ee57602002820191906000526020600020905b8154815260200190600101908083116101da575b5050505050905060005b6004548110156102b4576007600083838151811061021857610218611fba565b6020908102919091018101518252818101929092526040908101600020815160c08101835281546001600160a01b0390811682526001830154169381019390935260028101549183019190915260038101546060830152600481015460808301526005015460a0820152835184908390811061029657610296611fba565b602002602001018190525080806102ac90611fe6565b9150506101f8565b50909392505050565b60006002600054036102ea5760405162461bcd60e51b81526004016102e190611fff565b60405180910390fd5b600260009081556001600160a01b03838116825260066020526040918290205491516370a0823160e01b815230600482015282917f000000000000000000000000000000000000000000000000000000000000000016906370a0823190602401602060405180830381865afa158015610367573d6000803e3d6000fd5b505050506040513d601f19601f8201168201806040525081019061038b9190612036565b1180156103985750600081115b6103c95760405162461bcd60e51b8152602060048201526002602482015261269960f11b60448201526064016102e1565b60405163a9059cbb60e01b81526001600160a01b038481166004830152602482018390526000917f00000000000000000000000000000000000000000000000000000000000000009091169063a9059cbb906044016020604051808303816000875af115801561043d573d6000803e3d6000fd5b505050506040513d601f19601f82011682018060405250810190610461919061204f565b60405163a9059cbb60e01b81526001600160a01b038681166004830152602482018590529192507f00000000000000000000000000000000000000000000000000000000000000009091169063a9059cbb906044016020604051808303816000875af11580156104d5573d6000803e3d6000fd5b505050506040513d601f19601f820116820180604052508101906104f9919061204f565b61052a5760405162461bcd60e51b81526020600482015260026024820152614d3360f01b60448201526064016102e1565b6001600160a01b0384166000908152600660205260408120805484929061055290849061206c565b90915550600193505050506001600055919050565b6000818152600a60209081526040808320805482518185028101850190935280835291929091908301828280156105bd57602002820191906000526020600020905b8154815260200190600101908083116105a9575b5050505050905060005b8151811015610604576105f28282815181106105e5576105e5611fba565b602002602001015161123b565b806105fc81611fe6565b9150506105c7565b50336000908152600660205260409020541561062557610623336102bd565b505b5050565b6001546000906001600160a01b031633146106565760405162461bcd60e51b81526004016102e190612085565b600254158061066757506002546004145b6106985760405162461bcd60e51b8152602060048201526002602482015261269b60f11b60448201526064016102e1565b60005b6003548110156106dd576106cb600382815481106106bb576106bb611fba565b9060005260206000200154611af8565b806106d581611fe6565b91505061069b565b50506003600255600190565b60405163332daccf60e01b81523360048201526000907f00000000000000000000000000000000000000000000000000000000000000006001600160a01b03169063332daccf90602401602060405180830381865afa158015610750573d6000803e3d6000fd5b505050506040513d601f19601f82011682018060405250810190610774919061204f565b1580156107815750600254155b6107b25760405162461bcd60e51b815260206004820152600260248201526109a760f31b60448201526064016102e1565b82600114806107c15750826002145b6107f25760405162461bcd60e51b81526020600482015260026024820152614d3960f01b60448201526064016102e1565b604051636eb1769f60e11b815233600482015230602482015285907f00000000000000000000000000000000000000000000000000000000000000006001600160a01b03169063dd62ed3e90604401602060405180830381865afa15801561085e573d6000803e3d6000fd5b505050506040513d601f19601f820116820180604052508101906108829190612036565b1015801561091157507f00000000000000000000000000000000000000000000000000000000000000006001600160a01b031663375b3c0a6040518163ffffffff1660e01b8152600401602060405180830381865afa1580156108e9573d6000803e3d6000fd5b505050506040513d601f19601f8201168201806040525081019061090d9190612036565b8510155b6109435760405162461bcd60e51b815260206004820152600360248201526204d31360ec1b60448201526064016102e1565b6040516323b872dd60e01b8152336004820152306024820152604481018690527f00000000000000000000000000000000000000000000000000000000000000006001600160a01b0316906323b872dd906064016020604051808303816000875af11580156109b6573d6000803e3d6000fd5b505050506040513d601f19601f820116820180604052508101906109da919061204f565b610a0c5760405162461bcd60e51b81526020600482015260036024820152624d313160e81b60448201526064016102e1565b6000610a3b88888884610a2060648b61206c565b610a2b8b60646120a1565b610a3591906120b8565b89611bb3565b60055490915015610ef557855b7f00000000000000000000000000000000000000000000000000000000000000006001600160a01b031663375b3c0a6040518163ffffffff1660e01b8152600401602060405180830381865afa158015610aa6573d6000803e3d6000fd5b505050506040513d601f19601f82011682018060405250810190610aca9190612036565b8110610eef5760008060005b600554811015610b6d57600060058281548110610af557610af5611fba565b9060005260206000200154905060076000828152602001908152602001600020600501548903610b255750610b5b565b600081815260076020526040902060040154831015610b595760008181526007602052604090206004015491935090915082905b505b80610b6581611fe6565b915050610ad6565b5087811180610b795750855b15610eac57600060058381548110610b9357610b93611fba565b6000918252602080832090910154808352600782526040808420815160c08101835281546001600160a01b0390811682526001830154169481019490945260028101549184019190915260038101546060840152600481015460808401526005015460a0830152925090610c0860648c61206c565b82606001518360400151610c1c919061206c565b610c2691906120b8565b9050610c336064826120a1565b905060008060008e8411610d2e57839250610c4f60648f61206c565b610c5990856120a1565b9150610c666064836120b8565b91508c600103610ccd57610c7c8a878585611d3d565b604080518c815260208101899052908101859052606081018490529091507f5de48bb383b4a2aaad84721b80d93429b813651b0eefbd59d32018cfe28215dc906080015b60405180910390a1610dca565b8c600203610d2957610ce1868b8486611d3d565b60408051888152602081018d9052908101849052606081018590529091507f5de48bb383b4a2aaad84721b80d93429b813651b0eefbd59d32018cfe28215dc90608001610cc0565b610dca565b8e9250610d3c60648f61206c565b8f610d4791906120a1565b9150610d546064836120b8565b91508c600103610d6a57610c7c8a878585611d3d565b8c600203610dca57610d7e868b8486611d3d565b60408051888152602081018d9052908101849052606081018590529091507f5de48bb383b4a2aaad84721b80d93429b813651b0eefbd59d32018cfe28215dc9060800160405180910390a15b60008a8152600a6020908152604080832080546001818101835591855283852001859055898452818420805491820181558452828420018490558c8352600790915281206003018054859290610e219084906120da565b909155505060008681526007602052604081206003018054849290610e479084906120da565b909155505060008681526007602052604090206003810154600290910154610e6f919061206c565b600003610e955760058881548110610e8957610e89611fba565b60009182526020822001555b610e9f838a61206c565b9850505050505050610ee8565b5050600580546001810182556000919091527f036b6384b5eca791c62761152d0c79bb0604c104a5fb6f4eb0703f3154bb3db001829055610eef565b5050610a48565b50610f2b565b600580546001810182556000919091527f036b6384b5eca791c62761152d0c79bb0604c104a5fb6f4eb0703f3154bb3db0018190555b60408051338152306020820152908101829052606081018790526080810186905260a081018590527f618f358bb45538682ade624a4a1959053d9dabd20fe300508034b879681b37be9060c00160405180910390a1979650505050505050565b600260005403610fad5760405162461bcd60e51b81526004016102e190611fff565b6002600081815582815260076020908152604091829020825160c08101845281546001600160a01b039081168083526001840154909116938201939093529381015492840192909252600382015460608401526004820154608084015260059091015460a083015233146110485760405162461bcd60e51b8152602060048201526002602482015261134d60f21b60448201526064016102e1565b60008160600151826040015161105e919061206c565b82516001600160a01b031660009081526006602090815260408083208490558086015187845260079092528220600301559091505b6005548110156110f25783600582815481106110b1576110b1611fba565b9060005260206000200154036110e057600581815481106110d4576110d4611fba565b60009182526020822001555b806110ea81611fe6565b915050611093565b505060016000555050565b6001546000906001600160a01b0316331461112a5760405162461bcd60e51b81526004016102e190612085565b600254158061113b57506002546004145b8015611151575081600114806111515750816002145b6111825760405162461bcd60e51b81526020600482015260026024820152614d3560f01b60448201526064016102e1565b600282905560005b6003548110156111cc576111ba600382815481106111aa576111aa611fba565b906000526020600020015461123b565b806111c481611fe6565b91505061118a565b50600192915050565b6001546001600160a01b031633146111ff5760405162461bcd60e51b81526004016102e190612085565b600254156112345760405162461bcd60e51b81526020600482015260026024820152614d3760f01b60448201526064016102e1565b6004600255565b60026000540361125d5760405162461bcd60e51b81526004016102e190611fff565b600260009081558181526009602052604090206004015460ff16156112aa5760405162461bcd60e51b815260206004820152600360248201526226989960e91b60448201526064016102e1565b60008060008060025460010361148e57600085815260096020908152604080832054835260078252918290205482516355c4a8bf60e01b815292516001600160a01b0391821697506064937f0000000000000000000000000000000000000000000000000000000000000000909216926355c4a8bf92600480820193918290030181865afa158015611340573d6000803e3d6000fd5b505050506040513d601f19601f820116820180604052508101906113649190612036565b61136f90606461206c565b60008781526009602052604090206003015461138b91906120a1565b61139591906120b8565b6000868152600960205260409020600201546113b191906120da565b915060647f00000000000000000000000000000000000000000000000000000000000000006001600160a01b03166355c4a8bf6040518163ffffffff1660e01b8152600401602060405180830381865afa158015611413573d6000803e3d6000fd5b505050506040513d601f19601f820116820180604052508101906114379190612036565b60008781526009602052604090206003015461145391906120a1565b61145d91906120b8565b600086815260096020908152604080832054835260079091529020600101546001600160a01b0316935090506116a1565b60025460020361167357600085815260096020908152604080832060010154835260078252918290205482516355c4a8bf60e01b815292516001600160a01b0391821697506064937f0000000000000000000000000000000000000000000000000000000000000000909216926355c4a8bf92600480820193918290030181865afa158015611521573d6000803e3d6000fd5b505050506040513d601f19601f820116820180604052508101906115459190612036565b61155090606461206c565b60008781526009602052604090206002015461156c91906120a1565b61157691906120b8565b60008681526009602052604090206003015461159291906120da565b915060647f00000000000000000000000000000000000000000000000000000000000000006001600160a01b03166355c4a8bf6040518163ffffffff1660e01b8152600401602060405180830381865afa1580156115f4573d6000803e3d6000fd5b505050506040513d601f19601f820116820180604052508101906116189190612036565b60008781526009602052604090206002015461163491906120a1565b61163e91906120b8565b60008681526009602090815260408083206001908101548452600790925290912001546001600160a01b0316935090506116a1565b60405162461bcd60e51b81526020600482015260036024820152624d313360e81b60448201526064016102e1565b6001600160a01b038316611734577f00000000000000000000000000000000000000000000000000000000000000006001600160a01b03166309953b2f6040518163ffffffff1660e01b8152600401602060405180830381865afa15801561170d573d6000803e3d6000fd5b505050506040513d601f19601f8201168201806040525081019061173191906120ed565b92505b6001600160a01b0384166000908152600660205260408120805484929061175c9084906120da565b9250508190555060647f00000000000000000000000000000000000000000000000000000000000000006001600160a01b0316636a0ccd9d6040518163ffffffff1660e01b8152600401602060405180830381865afa1580156117c3573d6000803e3d6000fd5b505050506040513d601f19601f820116820180604052508101906117e79190612036565b6117f190836120a1565b6117fb91906120b8565b600660007f00000000000000000000000000000000000000000000000000000000000000006001600160a01b031663b7640a546040518163ffffffff1660e01b8152600401602060405180830381865afa15801561185d573d6000803e3d6000fd5b505050506040513d601f19601f8201168201806040525081019061188191906120ed565b6001600160a01b03166001600160a01b0316815260200190815260200160002060008282546118b091906120da565b9250508190555060647f00000000000000000000000000000000000000000000000000000000000000006001600160a01b03166328576d456040518163ffffffff1660e01b8152600401602060405180830381865afa158015611917573d6000803e3d6000fd5b505050506040513d601f19601f8201168201806040525081019061193b9190612036565b61194590836120a1565b61194f91906120b8565b600660007f00000000000000000000000000000000000000000000000000000000000000006001600160a01b03166309953b2f6040518163ffffffff1660e01b8152600401602060405180830381865afa1580156119b1573d6000803e3d6000fd5b505050506040513d601f19601f820116820180604052508101906119d591906120ed565b6001600160a01b03166001600160a01b031681526020019081526020016000206000828254611a0491906120da565b9250508190555060647f00000000000000000000000000000000000000000000000000000000000000006001600160a01b03166354cd1a5c6040518163ffffffff1660e01b8152600401602060405180830381865afa158015611a6b573d6000803e3d6000fd5b505050506040513d601f19601f82011682018060405250810190611a8f9190612036565b611a9990836120a1565b611aa391906120b8565b6001600160a01b03841660009081526006602052604081208054909190611acb9084906120da565b9091555050506000848152600960205260409020600401805460ff19166001179055505050506001600055565b600081815260096020908152604080832080548452600783528184205460018201548552828520546002909201546001600160a01b039182168087526006909552928520805494959190921693611b509084906120da565b90915550506000838152600960209081526040808320600301546001600160a01b038516845260069092528220805491929091611b8e9084906120da565b909155505050600091825250600960205260409020600401805460ff19166001179055565b60008060005b600454899030908390611bcd9060016120da565b611bd791906120da565b6040516bffffffffffffffffffffffff19606094851b811660208301529290931b9091166034830152604882015242606882015244608882015260a80160408051601f1981840301815291815281516020928301206000818152600790935291206002015490925015611c565780611c4e81611fe6565b915050611bb9565b506040805160c0810182526001600160a01b03998a16808252988a166020808301918252828401998a52606083019889526080830197885260a0830196875260008581526007825284812093518454908e166001600160a01b031991821617855592516001808601805492909f169190941617909c5598516002830155965160038201559451600480870191909155935160059095019490945582548086019093557f8a35acfbc15ff81a39ae7d344fd709f28e8600b4aa8c65c6b64bfe7fe36bd19b90920182905550938552600883528420805491820181558452922090910181905590565b60008060005b600354879087908390611d579060016120da565b611d6191906120da565b60408051602081019490945283019190915260608201524260808201524460a082015260c00160408051601f1981840301815291815281516020928301206000818152600990935291206002015490925015611dc95780611dc181611fe6565b915050611d43565b506040805160a081018252968752602080880196875287820195865260608801948552600060808901818152848252600990925291822097518855955160018089019190915594516002880155925160038088019190915594516004909601805460ff1916961515969096179095555082549182018355919091527fc2575a0e9e593c00f959f8c92f12db2869c3395a3b0502d05e2516446f71f85b0181905590565b6001600160a01b0381168114611e8157600080fd5b50565b600060208284031215611e9657600080fd5b8135611ea181611e6c565b9392505050565b602080825282518282018190526000919060409081850190868401855b82811015611f1f57815180516001600160a01b0390811686528782015116878601528581015186860152606080820151908601526080808201519086015260a0908101519085015260c09093019290850190600101611ec5565b5091979650505050505050565b600060208284031215611f3e57600080fd5b5035919050565b8015158114611e8157600080fd5b60008060008060008060c08789031215611f6c57600080fd5b8635611f7781611e6c565b95506020870135611f8781611e6c565b945060408701359350606087013592506080870135915060a0870135611fac81611f45565b809150509295509295509295565b634e487b7160e01b600052603260045260246000fd5b634e487b7160e01b600052601160045260246000fd5b600060018201611ff857611ff8611fd0565b5060010190565b6020808252601f908201527f5265656e7472616e637947756172643a207265656e7472616e742063616c6c00604082015260600190565b60006020828403121561204857600080fd5b5051919050565b60006020828403121561206157600080fd5b8151611ea181611f45565b8181038181111561207f5761207f611fd0565b92915050565b6020808252600290820152614d3160f01b604082015260600190565b808202811582820484141761207f5761207f611fd0565b6000826120d557634e487b7160e01b600052601260045260246000fd5b500490565b8082018082111561207f5761207f611fd0565b6000602082840312156120ff57600080fd5b8151611ea181611e6c56fea2646970667358221220d5c4ea6731a717bbe5b8c3c5e8396a878170c4cd2dd13c911ad8d00be3c0571064736f6c63430008110033",
					"opcodes": "PUSH1 0xC0 PUSH1 0x40 MSTORE PUSH1 0x0 PUSH1 0x2 SSTORE PUSH1 0x1 SLOAD PUSH1 0x1 PUSH1 0x1 PUSH1 0xA0 SHL SUB AND PUSH1 0xA0 MSTORE CALLVALUE DUP1 ISZERO PUSH3 0x25 JUMPI PUSH1 0x0 DUP1 REVERT JUMPDEST POP PUSH1 0x1 PUSH1 0x0 DUP2 SWAP1 SSTORE DUP1 SLOAD PUSH1 0x1 PUSH1 0x1 PUSH1 0xA0 SHL SUB NOT AND CALLER SWAP1 DUP2 OR SWAP1 SWAP2 SSTORE PUSH1 0x40 DUP1 MLOAD PUSH3 0x966ED9 PUSH1 0xE3 SHL DUP2 MSTORE SWAP1 MLOAD PUSH4 0x4B376C8 SWAP2 PUSH1 0x4 DUP1 DUP3 ADD SWAP3 PUSH1 0x20 SWAP3 SWAP1 SWAP2 SWAP1 DUP3 SWAP1 SUB ADD DUP2 DUP7 GAS STATICCALL ISZERO DUP1 ISZERO PUSH3 0x7B JUMPI RETURNDATASIZE PUSH1 0x0 DUP1 RETURNDATACOPY RETURNDATASIZE PUSH1 0x0 REVERT JUMPDEST POP POP POP POP PUSH1 0x40 MLOAD RETURNDATASIZE PUSH1 0x1F NOT PUSH1 0x1F DUP3 ADD AND DUP3 ADD DUP1 PUSH1 0x40 MSTORE POP DUP2 ADD SWAP1 PUSH3 0xA1 SWAP2 SWAP1 PUSH3 0xB3 JUMP JUMPDEST PUSH1 0x1 PUSH1 0x1 PUSH1 0xA0 SHL SUB AND PUSH1 0x80 MSTORE PUSH3 0xE5 JUMP JUMPDEST PUSH1 0x0 PUSH1 0x20 DUP3 DUP5 SUB SLT ISZERO PUSH3 0xC6 JUMPI PUSH1 0x0 DUP1 REVERT JUMPDEST DUP2 MLOAD PUSH1 0x1 PUSH1 0x1 PUSH1 0xA0 SHL SUB DUP2 AND DUP2 EQ PUSH3 0xDE JUMPI PUSH1 0x0 DUP1 REVERT JUMPDEST SWAP4 SWAP3 POP POP POP JUMP JUMPDEST PUSH1 0x80 MLOAD PUSH1 0xA0 MLOAD PUSH2 0x2140 PUSH3 0x17B PUSH1 0x0 CODECOPY PUSH1 0x0 DUP2 DUP2 PUSH2 0x701 ADD MSTORE DUP2 DUP2 PUSH2 0x88D ADD MSTORE DUP2 DUP2 PUSH2 0xA4A ADD MSTORE DUP2 DUP2 PUSH2 0x12F7 ADD MSTORE DUP2 DUP2 PUSH2 0x13B7 ADD MSTORE DUP2 DUP2 PUSH2 0x14D8 ADD MSTORE DUP2 DUP2 PUSH2 0x1598 ADD MSTORE DUP2 DUP2 PUSH2 0x16B1 ADD MSTORE DUP2 DUP2 PUSH2 0x1767 ADD MSTORE DUP2 DUP2 PUSH2 0x1801 ADD MSTORE DUP2 DUP2 PUSH2 0x18BB ADD MSTORE DUP2 DUP2 PUSH2 0x1955 ADD MSTORE PUSH2 0x1A0F ADD MSTORE PUSH1 0x0 DUP2 DUP2 PUSH2 0x320 ADD MSTORE DUP2 DUP2 PUSH2 0x3F2 ADD MSTORE DUP2 DUP2 PUSH2 0x48A ADD MSTORE DUP2 DUP2 PUSH2 0x80F ADD MSTORE PUSH2 0x965 ADD MSTORE PUSH2 0x2140 PUSH1 0x0 RETURN INVALID PUSH1 0x80 PUSH1 0x40 MSTORE CALLVALUE DUP1 ISZERO PUSH2 0x10 JUMPI PUSH1 0x0 DUP1 REVERT JUMPDEST POP PUSH1 0x4 CALLDATASIZE LT PUSH2 0x9E JUMPI PUSH1 0x0 CALLDATALOAD PUSH1 0xE0 SHR DUP1 PUSH4 0x78D65B2F GT PUSH2 0x66 JUMPI DUP1 PUSH4 0x78D65B2F EQ PUSH2 0x11F JUMPI DUP1 PUSH4 0x893372CA EQ PUSH2 0x132 JUMPI DUP1 PUSH4 0x8DF82800 EQ PUSH2 0x145 JUMPI DUP1 PUSH4 0xBE9A6555 EQ PUSH2 0x158 JUMPI DUP1 PUSH4 0xF8B2CB4F EQ PUSH2 0x160 JUMPI PUSH1 0x0 DUP1 REVERT JUMPDEST DUP1 PUSH4 0x200D2ED2 EQ PUSH2 0xA3 JUMPI DUP1 PUSH4 0x2D56657D EQ PUSH2 0xBF JUMPI DUP1 PUSH4 0x51CFF8D9 EQ PUSH2 0xDF JUMPI DUP1 PUSH4 0x675F6537 EQ PUSH2 0x102 JUMPI DUP1 PUSH4 0x6BFEFD6B EQ PUSH2 0x117 JUMPI JUMPDEST PUSH1 0x0 DUP1 REVERT JUMPDEST PUSH2 0xAC PUSH1 0x2 SLOAD DUP2 JUMP JUMPDEST PUSH1 0x40 MLOAD SWAP1 DUP2 MSTORE PUSH1 0x20 ADD JUMPDEST PUSH1 0x40 MLOAD DUP1 SWAP2 SUB SWAP1 RETURN JUMPDEST PUSH2 0xD2 PUSH2 0xCD CALLDATASIZE PUSH1 0x4 PUSH2 0x1E84 JUMP JUMPDEST PUSH2 0x189 JUMP JUMPDEST PUSH1 0x40 MLOAD PUSH2 0xB6 SWAP2 SWAP1 PUSH2 0x1EA8 JUMP JUMPDEST PUSH2 0xF2 PUSH2 0xED CALLDATASIZE PUSH1 0x4 PUSH2 0x1E84 JUMP JUMPDEST PUSH2 0x2BD JUMP JUMPDEST PUSH1 0x40 MLOAD SWAP1 ISZERO ISZERO DUP2 MSTORE PUSH1 0x20 ADD PUSH2 0xB6 JUMP JUMPDEST PUSH2 0x115 PUSH2 0x110 CALLDATASIZE PUSH1 0x4 PUSH2 0x1F2C JUMP JUMPDEST PUSH2 0x567 JUMP JUMPDEST STOP JUMPDEST PUSH2 0xF2 PUSH2 0x629 JUMP JUMPDEST PUSH2 0xAC PUSH2 0x12D CALLDATASIZE PUSH1 0x4 PUSH2 0x1F53 JUMP JUMPDEST PUSH2 0x6E9 JUMP JUMPDEST PUSH2 0x115 PUSH2 0x140 CALLDATASIZE PUSH1 0x4 PUSH2 0x1F2C JUMP JUMPDEST PUSH2 0xF8B JUMP JUMPDEST PUSH2 0xF2 PUSH2 0x153 CALLDATASIZE PUSH1 0x4 PUSH2 0x1F2C JUMP JUMPDEST PUSH2 0x10FD JUMP JUMPDEST PUSH2 0x115 PUSH2 0x11D5 JUMP JUMPDEST PUSH2 0xAC PUSH2 0x16E CALLDATASIZE PUSH1 0x4 PUSH2 0x1E84 JUMP JUMPDEST PUSH1 0x1 PUSH1 0x1 PUSH1 0xA0 SHL SUB AND PUSH1 0x0 SWAP1 DUP2 MSTORE PUSH1 0x6 PUSH1 0x20 MSTORE PUSH1 0x40 SWAP1 KECCAK256 SLOAD SWAP1 JUMP JUMPDEST PUSH1 0x1 PUSH1 0x1 PUSH1 0xA0 SHL SUB DUP2 AND PUSH1 0x0 SWAP1 DUP2 MSTORE PUSH1 0x8 PUSH1 0x20 SWAP1 DUP2 MSTORE PUSH1 0x40 DUP1 DUP4 KECCAK256 DUP1 SLOAD DUP3 MLOAD DUP2 DUP6 MUL DUP2 ADD DUP6 ADD SWAP1 SWAP4 MSTORE DUP1 DUP4 MSTORE PUSH1 0x60 SWAP5 DUP6 SWAP5 SWAP1 SWAP4 SWAP3 SWAP2 SWAP1 DUP4 ADD DUP3 DUP3 DUP1 ISZERO PUSH2 0x1EE JUMPI PUSH1 0x20 MUL DUP3 ADD SWAP2 SWAP1 PUSH1 0x0 MSTORE PUSH1 0x20 PUSH1 0x0 KECCAK256 SWAP1 JUMPDEST DUP2 SLOAD DUP2 MSTORE PUSH1 0x20 ADD SWAP1 PUSH1 0x1 ADD SWAP1 DUP1 DUP4 GT PUSH2 0x1DA JUMPI JUMPDEST POP POP POP POP POP SWAP1 POP PUSH1 0x0 JUMPDEST PUSH1 0x4 SLOAD DUP2 LT ISZERO PUSH2 0x2B4 JUMPI PUSH1 0x7 PUSH1 0x0 DUP4 DUP4 DUP2 MLOAD DUP2 LT PUSH2 0x218 JUMPI PUSH2 0x218 PUSH2 0x1FBA JUMP JUMPDEST PUSH1 0x20 SWAP1 DUP2 MUL SWAP2 SWAP1 SWAP2 ADD DUP2 ADD MLOAD DUP3 MSTORE DUP2 DUP2 ADD SWAP3 SWAP1 SWAP3 MSTORE PUSH1 0x40 SWAP1 DUP2 ADD PUSH1 0x0 KECCAK256 DUP2 MLOAD PUSH1 0xC0 DUP2 ADD DUP4 MSTORE DUP2 SLOAD PUSH1 0x1 PUSH1 0x1 PUSH1 0xA0 SHL SUB SWAP1 DUP2 AND DUP3 MSTORE PUSH1 0x1 DUP4 ADD SLOAD AND SWAP4 DUP2 ADD SWAP4 SWAP1 SWAP4 MSTORE PUSH1 0x2 DUP2 ADD SLOAD SWAP2 DUP4 ADD SWAP2 SWAP1 SWAP2 MSTORE PUSH1 0x3 DUP2 ADD SLOAD PUSH1 0x60 DUP4 ADD MSTORE PUSH1 0x4 DUP2 ADD SLOAD PUSH1 0x80 DUP4 ADD MSTORE PUSH1 0x5 ADD SLOAD PUSH1 0xA0 DUP3 ADD MSTORE DUP4 MLOAD DUP5 SWAP1 DUP4 SWAP1 DUP2 LT PUSH2 0x296 JUMPI PUSH2 0x296 PUSH2 0x1FBA JUMP JUMPDEST PUSH1 0x20 MUL PUSH1 0x20 ADD ADD DUP2 SWAP1 MSTORE POP DUP1 DUP1 PUSH2 0x2AC SWAP1 PUSH2 0x1FE6 JUMP JUMPDEST SWAP2 POP POP PUSH2 0x1F8 JUMP JUMPDEST POP SWAP1 SWAP4 SWAP3 POP POP POP JUMP JUMPDEST PUSH1 0x0 PUSH1 0x2 PUSH1 0x0 SLOAD SUB PUSH2 0x2EA JUMPI PUSH1 0x40 MLOAD PUSH3 0x461BCD PUSH1 0xE5 SHL DUP2 MSTORE PUSH1 0x4 ADD PUSH2 0x2E1 SWAP1 PUSH2 0x1FFF JUMP JUMPDEST PUSH1 0x40 MLOAD DUP1 SWAP2 SUB SWAP1 REVERT JUMPDEST PUSH1 0x2 PUSH1 0x0 SWAP1 DUP2 SSTORE PUSH1 0x1 PUSH1 0x1 PUSH1 0xA0 SHL SUB DUP4 DUP2 AND DUP3 MSTORE PUSH1 0x6 PUSH1 0x20 MSTORE PUSH1 0x40 SWAP2 DUP3 SWAP1 KECCAK256 SLOAD SWAP2 MLOAD PUSH4 0x70A08231 PUSH1 0xE0 SHL DUP2 MSTORE ADDRESS PUSH1 0x4 DUP3 ADD MSTORE DUP3 SWAP2 PUSH32 0x0 AND SWAP1 PUSH4 0x70A08231 SWAP1 PUSH1 0x24 ADD PUSH1 0x20 PUSH1 0x40 MLOAD DUP1 DUP4 SUB DUP2 DUP7 GAS STATICCALL ISZERO DUP1 ISZERO PUSH2 0x367 JUMPI RETURNDATASIZE PUSH1 0x0 DUP1 RETURNDATACOPY RETURNDATASIZE PUSH1 0x0 REVERT JUMPDEST POP POP POP POP PUSH1 0x40 MLOAD RETURNDATASIZE PUSH1 0x1F NOT PUSH1 0x1F DUP3 ADD AND DUP3 ADD DUP1 PUSH1 0x40 MSTORE POP DUP2 ADD SWAP1 PUSH2 0x38B SWAP2 SWAP1 PUSH2 0x2036 JUMP JUMPDEST GT DUP1 ISZERO PUSH2 0x398 JUMPI POP PUSH1 0x0 DUP2 GT JUMPDEST PUSH2 0x3C9 JUMPI PUSH1 0x40 MLOAD PUSH3 0x461BCD PUSH1 0xE5 SHL DUP2 MSTORE PUSH1 0x20 PUSH1 0x4 DUP3 ADD MSTORE PUSH1 0x2 PUSH1 0x24 DUP3 ADD MSTORE PUSH2 0x2699 PUSH1 0xF1 SHL PUSH1 0x44 DUP3 ADD MSTORE PUSH1 0x64 ADD PUSH2 0x2E1 JUMP JUMPDEST PUSH1 0x40 MLOAD PUSH4 0xA9059CBB PUSH1 0xE0 SHL DUP2 MSTORE PUSH1 0x1 PUSH1 0x1 PUSH1 0xA0 SHL SUB DUP5 DUP2 AND PUSH1 0x4 DUP4 ADD MSTORE PUSH1 0x24 DUP3 ADD DUP4 SWAP1 MSTORE PUSH1 0x0 SWAP2 PUSH32 0x0 SWAP1 SWAP2 AND SWAP1 PUSH4 0xA9059CBB SWAP1 PUSH1 0x44 ADD PUSH1 0x20 PUSH1 0x40 MLOAD DUP1 DUP4 SUB DUP2 PUSH1 0x0 DUP8 GAS CALL ISZERO DUP1 ISZERO PUSH2 0x43D JUMPI RETURNDATASIZE PUSH1 0x0 DUP1 RETURNDATACOPY RETURNDATASIZE PUSH1 0x0 REVERT JUMPDEST POP POP POP POP PUSH1 0x40 MLOAD RETURNDATASIZE PUSH1 0x1F NOT PUSH1 0x1F DUP3 ADD AND DUP3 ADD DUP1 PUSH1 0x40 MSTORE POP DUP2 ADD SWAP1 PUSH2 0x461 SWAP2 SWAP1 PUSH2 0x204F JUMP JUMPDEST PUSH1 0x40 MLOAD PUSH4 0xA9059CBB PUSH1 0xE0 SHL DUP2 MSTORE PUSH1 0x1 PUSH1 0x1 PUSH1 0xA0 SHL SUB DUP7 DUP2 AND PUSH1 0x4 DUP4 ADD MSTORE PUSH1 0x24 DUP3 ADD DUP6 SWAP1 MSTORE SWAP2 SWAP3 POP PUSH32 0x0 SWAP1 SWAP2 AND SWAP1 PUSH4 0xA9059CBB SWAP1 PUSH1 0x44 ADD PUSH1 0x20 PUSH1 0x40 MLOAD DUP1 DUP4 SUB DUP2 PUSH1 0x0 DUP8 GAS CALL ISZERO DUP1 ISZERO PUSH2 0x4D5 JUMPI RETURNDATASIZE PUSH1 0x0 DUP1 RETURNDATACOPY RETURNDATASIZE PUSH1 0x0 REVERT JUMPDEST POP POP POP POP PUSH1 0x40 MLOAD RETURNDATASIZE PUSH1 0x1F NOT PUSH1 0x1F DUP3 ADD AND DUP3 ADD DUP1 PUSH1 0x40 MSTORE POP DUP2 ADD SWAP1 PUSH2 0x4F9 SWAP2 SWAP1 PUSH2 0x204F JUMP JUMPDEST PUSH2 0x52A JUMPI PUSH1 0x40 MLOAD PUSH3 0x461BCD PUSH1 0xE5 SHL DUP2 MSTORE PUSH1 0x20 PUSH1 0x4 DUP3 ADD MSTORE PUSH1 0x2 PUSH1 0x24 DUP3 ADD MSTORE PUSH2 0x4D33 PUSH1 0xF0 SHL PUSH1 0x44 DUP3 ADD MSTORE PUSH1 0x64 ADD PUSH2 0x2E1 JUMP JUMPDEST PUSH1 0x1 PUSH1 0x1 PUSH1 0xA0 SHL SUB DUP5 AND PUSH1 0x0 SWAP1 DUP2 MSTORE PUSH1 0x6 PUSH1 0x20 MSTORE PUSH1 0x40 DUP2 KECCAK256 DUP1 SLOAD DUP5 SWAP3 SWAP1 PUSH2 0x552 SWAP1 DUP5 SWAP1 PUSH2 0x206C JUMP JUMPDEST SWAP1 SWAP2 SSTORE POP PUSH1 0x1 SWAP4 POP POP POP POP PUSH1 0x1 PUSH1 0x0 SSTORE SWAP2 SWAP1 POP JUMP JUMPDEST PUSH1 0x0 DUP2 DUP2 MSTORE PUSH1 0xA PUSH1 0x20 SWAP1 DUP2 MSTORE PUSH1 0x40 DUP1 DUP4 KECCAK256 DUP1 SLOAD DUP3 MLOAD DUP2 DUP6 MUL DUP2 ADD DUP6 ADD SWAP1 SWAP4 MSTORE DUP1 DUP4 MSTORE SWAP2 SWAP3 SWAP1 SWAP2 SWAP1 DUP4 ADD DUP3 DUP3 DUP1 ISZERO PUSH2 0x5BD JUMPI PUSH1 0x20 MUL DUP3 ADD SWAP2 SWAP1 PUSH1 0x0 MSTORE PUSH1 0x20 PUSH1 0x0 KECCAK256 SWAP1 JUMPDEST DUP2 SLOAD DUP2 MSTORE PUSH1 0x20 ADD SWAP1 PUSH1 0x1 ADD SWAP1 DUP1 DUP4 GT PUSH2 0x5A9 JUMPI JUMPDEST POP POP POP POP POP SWAP1 POP PUSH1 0x0 JUMPDEST DUP2 MLOAD DUP2 LT ISZERO PUSH2 0x604 JUMPI PUSH2 0x5F2 DUP3 DUP3 DUP2 MLOAD DUP2 LT PUSH2 0x5E5 JUMPI PUSH2 0x5E5 PUSH2 0x1FBA JUMP JUMPDEST PUSH1 0x20 MUL PUSH1 0x20 ADD ADD MLOAD PUSH2 0x123B JUMP JUMPDEST DUP1 PUSH2 0x5FC DUP2 PUSH2 0x1FE6 JUMP JUMPDEST SWAP2 POP POP PUSH2 0x5C7 JUMP JUMPDEST POP CALLER PUSH1 0x0 SWAP1 DUP2 MSTORE PUSH1 0x6 PUSH1 0x20 MSTORE PUSH1 0x40 SWAP1 KECCAK256 SLOAD ISZERO PUSH2 0x625 JUMPI PUSH2 0x623 CALLER PUSH2 0x2BD JUMP JUMPDEST POP JUMPDEST POP POP JUMP JUMPDEST PUSH1 0x1 SLOAD PUSH1 0x0 SWAP1 PUSH1 0x1 PUSH1 0x1 PUSH1 0xA0 SHL SUB AND CALLER EQ PUSH2 0x656 JUMPI PUSH1 0x40 MLOAD PUSH3 0x461BCD PUSH1 0xE5 SHL DUP2 MSTORE PUSH1 0x4 ADD PUSH2 0x2E1 SWAP1 PUSH2 0x2085 JUMP JUMPDEST PUSH1 0x2 SLOAD ISZERO DUP1 PUSH2 0x667 JUMPI POP PUSH1 0x2 SLOAD PUSH1 0x4 EQ JUMPDEST PUSH2 0x698 JUMPI PUSH1 0x40 MLOAD PUSH3 0x461BCD PUSH1 0xE5 SHL DUP2 MSTORE PUSH1 0x20 PUSH1 0x4 DUP3 ADD MSTORE PUSH1 0x2 PUSH1 0x24 DUP3 ADD MSTORE PUSH2 0x269B PUSH1 0xF1 SHL PUSH1 0x44 DUP3 ADD MSTORE PUSH1 0x64 ADD PUSH2 0x2E1 JUMP JUMPDEST PUSH1 0x0 JUMPDEST PUSH1 0x3 SLOAD DUP2 LT ISZERO PUSH2 0x6DD JUMPI PUSH2 0x6CB PUSH1 0x3 DUP3 DUP2 SLOAD DUP2 LT PUSH2 0x6BB JUMPI PUSH2 0x6BB PUSH2 0x1FBA JUMP JUMPDEST SWAP1 PUSH1 0x0 MSTORE PUSH1 0x20 PUSH1 0x0 KECCAK256 ADD SLOAD PUSH2 0x1AF8 JUMP JUMPDEST DUP1 PUSH2 0x6D5 DUP2 PUSH2 0x1FE6 JUMP JUMPDEST SWAP2 POP POP PUSH2 0x69B JUMP JUMPDEST POP POP PUSH1 0x3 PUSH1 0x2 SSTORE PUSH1 0x1 SWAP1 JUMP JUMPDEST PUSH1 0x40 MLOAD PUSH4 0x332DACCF PUSH1 0xE0 SHL DUP2 MSTORE CALLER PUSH1 0x4 DUP3 ADD MSTORE PUSH1 0x0 SWAP1 PUSH32 0x0 PUSH1 0x1 PUSH1 0x1 PUSH1 0xA0 SHL SUB AND SWAP1 PUSH4 0x332DACCF SWAP1 PUSH1 0x24 ADD PUSH1 0x20 PUSH1 0x40 MLOAD DUP1 DUP4 SUB DUP2 DUP7 GAS STATICCALL ISZERO DUP1 ISZERO PUSH2 0x750 JUMPI RETURNDATASIZE PUSH1 0x0 DUP1 RETURNDATACOPY RETURNDATASIZE PUSH1 0x0 REVERT JUMPDEST POP POP POP POP PUSH1 0x40 MLOAD RETURNDATASIZE PUSH1 0x1F NOT PUSH1 0x1F DUP3 ADD AND DUP3 ADD DUP1 PUSH1 0x40 MSTORE POP DUP2 ADD SWAP1 PUSH2 0x774 SWAP2 SWAP1 PUSH2 0x204F JUMP JUMPDEST ISZERO DUP1 ISZERO PUSH2 0x781 JUMPI POP PUSH1 0x2 SLOAD ISZERO JUMPDEST PUSH2 0x7B2 JUMPI PUSH1 0x40 MLOAD PUSH3 0x461BCD PUSH1 0xE5 SHL DUP2 MSTORE PUSH1 0x20 PUSH1 0x4 DUP3 ADD MSTORE PUSH1 0x2 PUSH1 0x24 DUP3 ADD MSTORE PUSH2 0x9A7 PUSH1 0xF3 SHL PUSH1 0x44 DUP3 ADD MSTORE PUSH1 0x64 ADD PUSH2 0x2E1 JUMP JUMPDEST DUP3 PUSH1 0x1 EQ DUP1 PUSH2 0x7C1 JUMPI POP DUP3 PUSH1 0x2 EQ JUMPDEST PUSH2 0x7F2 JUMPI PUSH1 0x40 MLOAD PUSH3 0x461BCD PUSH1 0xE5 SHL DUP2 MSTORE PUSH1 0x20 PUSH1 0x4 DUP3 ADD MSTORE PUSH1 0x2 PUSH1 0x24 DUP3 ADD MSTORE PUSH2 0x4D39 PUSH1 0xF0 SHL PUSH1 0x44 DUP3 ADD MSTORE PUSH1 0x64 ADD PUSH2 0x2E1 JUMP JUMPDEST PUSH1 0x40 MLOAD PUSH4 0x6EB1769F PUSH1 0xE1 SHL DUP2 MSTORE CALLER PUSH1 0x4 DUP3 ADD MSTORE ADDRESS PUSH1 0x24 DUP3 ADD MSTORE DUP6 SWAP1 PUSH32 0x0 PUSH1 0x1 PUSH1 0x1 PUSH1 0xA0 SHL SUB AND SWAP1 PUSH4 0xDD62ED3E SWAP1 PUSH1 0x44 ADD PUSH1 0x20 PUSH1 0x40 MLOAD DUP1 DUP4 SUB DUP2 DUP7 GAS STATICCALL ISZERO DUP1 ISZERO PUSH2 0x85E JUMPI RETURNDATASIZE PUSH1 0x0 DUP1 RETURNDATACOPY RETURNDATASIZE PUSH1 0x0 REVERT JUMPDEST POP POP POP POP PUSH1 0x40 MLOAD RETURNDATASIZE PUSH1 0x1F NOT PUSH1 0x1F DUP3 ADD AND DUP3 ADD DUP1 PUSH1 0x40 MSTORE POP DUP2 ADD SWAP1 PUSH2 0x882 SWAP2 SWAP1 PUSH2 0x2036 JUMP JUMPDEST LT ISZERO DUP1 ISZERO PUSH2 0x911 JUMPI POP PUSH32 0x0 PUSH1 0x1 PUSH1 0x1 PUSH1 0xA0 SHL SUB AND PUSH4 0x375B3C0A PUSH1 0x40 MLOAD DUP2 PUSH4 0xFFFFFFFF AND PUSH1 0xE0 SHL DUP2 MSTORE PUSH1 0x4 ADD PUSH1 0x20 PUSH1 0x40 MLOAD DUP1 DUP4 SUB DUP2 DUP7 GAS STATICCALL ISZERO DUP1 ISZERO PUSH2 0x8E9 JUMPI RETURNDATASIZE PUSH1 0x0 DUP1 RETURNDATACOPY RETURNDATASIZE PUSH1 0x0 REVERT JUMPDEST POP POP POP POP PUSH1 0x40 MLOAD RETURNDATASIZE PUSH1 0x1F NOT PUSH1 0x1F DUP3 ADD AND DUP3 ADD DUP1 PUSH1 0x40 MSTORE POP DUP2 ADD SWAP1 PUSH2 0x90D SWAP2 SWAP1 PUSH2 0x2036 JUMP JUMPDEST DUP6 LT ISZERO JUMPDEST PUSH2 0x943 JUMPI PUSH1 0x40 MLOAD PUSH3 0x461BCD PUSH1 0xE5 SHL DUP2 MSTORE PUSH1 0x20 PUSH1 0x4 DUP3 ADD MSTORE PUSH1 0x3 PUSH1 0x24 DUP3 ADD MSTORE PUSH3 0x4D313 PUSH1 0xEC SHL PUSH1 0x44 DUP3 ADD MSTORE PUSH1 0x64 ADD PUSH2 0x2E1 JUMP JUMPDEST PUSH1 0x40 MLOAD PUSH4 0x23B872DD PUSH1 0xE0 SHL DUP2 MSTORE CALLER PUSH1 0x4 DUP3 ADD MSTORE ADDRESS PUSH1 0x24 DUP3 ADD MSTORE PUSH1 0x44 DUP2 ADD DUP7 SWAP1 MSTORE PUSH32 0x0 PUSH1 0x1 PUSH1 0x1 PUSH1 0xA0 SHL SUB AND SWAP1 PUSH4 0x23B872DD SWAP1 PUSH1 0x64 ADD PUSH1 0x20 PUSH1 0x40 MLOAD DUP1 DUP4 SUB DUP2 PUSH1 0x0 DUP8 GAS CALL ISZERO DUP1 ISZERO PUSH2 0x9B6 JUMPI RETURNDATASIZE PUSH1 0x0 DUP1 RETURNDATACOPY RETURNDATASIZE PUSH1 0x0 REVERT JUMPDEST POP POP POP POP PUSH1 0x40 MLOAD RETURNDATASIZE PUSH1 0x1F NOT PUSH1 0x1F DUP3 ADD AND DUP3 ADD DUP1 PUSH1 0x40 MSTORE POP DUP2 ADD SWAP1 PUSH2 0x9DA SWAP2 SWAP1 PUSH2 0x204F JUMP JUMPDEST PUSH2 0xA0C JUMPI PUSH1 0x40 MLOAD PUSH3 0x461BCD PUSH1 0xE5 SHL DUP2 MSTORE PUSH1 0x20 PUSH1 0x4 DUP3 ADD MSTORE PUSH1 0x3 PUSH1 0x24 DUP3 ADD MSTORE PUSH3 0x4D3131 PUSH1 0xE8 SHL PUSH1 0x44 DUP3 ADD MSTORE PUSH1 0x64 ADD PUSH2 0x2E1 JUMP JUMPDEST PUSH1 0x0 PUSH2 0xA3B DUP9 DUP9 DUP9 DUP5 PUSH2 0xA20 PUSH1 0x64 DUP12 PUSH2 0x206C JUMP JUMPDEST PUSH2 0xA2B DUP12 PUSH1 0x64 PUSH2 0x20A1 JUMP JUMPDEST PUSH2 0xA35 SWAP2 SWAP1 PUSH2 0x20B8 JUMP JUMPDEST DUP10 PUSH2 0x1BB3 JUMP JUMPDEST PUSH1 0x5 SLOAD SWAP1 SWAP2 POP ISZERO PUSH2 0xEF5 JUMPI DUP6 JUMPDEST PUSH32 0x0 PUSH1 0x1 PUSH1 0x1 PUSH1 0xA0 SHL SUB AND PUSH4 0x375B3C0A PUSH1 0x40 MLOAD DUP2 PUSH4 0xFFFFFFFF AND PUSH1 0xE0 SHL DUP2 MSTORE PUSH1 0x4 ADD PUSH1 0x20 PUSH1 0x40 MLOAD DUP1 DUP4 SUB DUP2 DUP7 GAS STATICCALL ISZERO DUP1 ISZERO PUSH2 0xAA6 JUMPI RETURNDATASIZE PUSH1 0x0 DUP1 RETURNDATACOPY RETURNDATASIZE PUSH1 0x0 REVERT JUMPDEST POP POP POP POP PUSH1 0x40 MLOAD RETURNDATASIZE PUSH1 0x1F NOT PUSH1 0x1F DUP3 ADD AND DUP3 ADD DUP1 PUSH1 0x40 MSTORE POP DUP2 ADD SWAP1 PUSH2 0xACA SWAP2 SWAP1 PUSH2 0x2036 JUMP JUMPDEST DUP2 LT PUSH2 0xEEF JUMPI PUSH1 0x0 DUP1 PUSH1 0x0 JUMPDEST PUSH1 0x5 SLOAD DUP2 LT ISZERO PUSH2 0xB6D JUMPI PUSH1 0x0 PUSH1 0x5 DUP3 DUP2 SLOAD DUP2 LT PUSH2 0xAF5 JUMPI PUSH2 0xAF5 PUSH2 0x1FBA JUMP JUMPDEST SWAP1 PUSH1 0x0 MSTORE PUSH1 0x20 PUSH1 0x0 KECCAK256 ADD SLOAD SWAP1 POP PUSH1 0x7 PUSH1 0x0 DUP3 DUP2 MSTORE PUSH1 0x20 ADD SWAP1 DUP2 MSTORE PUSH1 0x20 ADD PUSH1 0x0 KECCAK256 PUSH1 0x5 ADD SLOAD DUP10 SUB PUSH2 0xB25 JUMPI POP PUSH2 0xB5B JUMP JUMPDEST PUSH1 0x0 DUP2 DUP2 MSTORE PUSH1 0x7 PUSH1 0x20 MSTORE PUSH1 0x40 SWAP1 KECCAK256 PUSH1 0x4 ADD SLOAD DUP4 LT ISZERO PUSH2 0xB59 JUMPI PUSH1 0x0 DUP2 DUP2 MSTORE PUSH1 0x7 PUSH1 0x20 MSTORE PUSH1 0x40 SWAP1 KECCAK256 PUSH1 0x4 ADD SLOAD SWAP2 SWAP4 POP SWAP1 SWAP2 POP DUP3 SWAP1 JUMPDEST POP JUMPDEST DUP1 PUSH2 0xB65 DUP2 PUSH2 0x1FE6 JUMP JUMPDEST SWAP2 POP POP PUSH2 0xAD6 JUMP JUMPDEST POP DUP8 DUP2 GT DUP1 PUSH2 0xB79 JUMPI POP DUP6 JUMPDEST ISZERO PUSH2 0xEAC JUMPI PUSH1 0x0 PUSH1 0x5 DUP4 DUP2 SLOAD DUP2 LT PUSH2 0xB93 JUMPI PUSH2 0xB93 PUSH2 0x1FBA JUMP JUMPDEST PUSH1 0x0 SWAP2 DUP3 MSTORE PUSH1 0x20 DUP1 DUP4 KECCAK256 SWAP1 SWAP2 ADD SLOAD DUP1 DUP4 MSTORE PUSH1 0x7 DUP3 MSTORE PUSH1 0x40 DUP1 DUP5 KECCAK256 DUP2 MLOAD PUSH1 0xC0 DUP2 ADD DUP4 MSTORE DUP2 SLOAD PUSH1 0x1 PUSH1 0x1 PUSH1 0xA0 SHL SUB SWAP1 DUP2 AND DUP3 MSTORE PUSH1 0x1 DUP4 ADD SLOAD AND SWAP5 DUP2 ADD SWAP5 SWAP1 SWAP5 MSTORE PUSH1 0x2 DUP2 ADD SLOAD SWAP2 DUP5 ADD SWAP2 SWAP1 SWAP2 MSTORE PUSH1 0x3 DUP2 ADD SLOAD PUSH1 0x60 DUP5 ADD MSTORE PUSH1 0x4 DUP2 ADD SLOAD PUSH1 0x80 DUP5 ADD MSTORE PUSH1 0x5 ADD SLOAD PUSH1 0xA0 DUP4 ADD MSTORE SWAP3 POP SWAP1 PUSH2 0xC08 PUSH1 0x64 DUP13 PUSH2 0x206C JUMP JUMPDEST DUP3 PUSH1 0x60 ADD MLOAD DUP4 PUSH1 0x40 ADD MLOAD PUSH2 0xC1C SWAP2 SWAP1 PUSH2 0x206C JUMP JUMPDEST PUSH2 0xC26 SWAP2 SWAP1 PUSH2 0x20B8 JUMP JUMPDEST SWAP1 POP PUSH2 0xC33 PUSH1 0x64 DUP3 PUSH2 0x20A1 JUMP JUMPDEST SWAP1 POP PUSH1 0x0 DUP1 PUSH1 0x0 DUP15 DUP5 GT PUSH2 0xD2E JUMPI DUP4 SWAP3 POP PUSH2 0xC4F PUSH1 0x64 DUP16 PUSH2 0x206C JUMP JUMPDEST PUSH2 0xC59 SWAP1 DUP6 PUSH2 0x20A1 JUMP JUMPDEST SWAP2 POP PUSH2 0xC66 PUSH1 0x64 DUP4 PUSH2 0x20B8 JUMP JUMPDEST SWAP2 POP DUP13 PUSH1 0x1 SUB PUSH2 0xCCD JUMPI PUSH2 0xC7C DUP11 DUP8 DUP6 DUP6 PUSH2 0x1D3D JUMP JUMPDEST PUSH1 0x40 DUP1 MLOAD DUP13 DUP2 MSTORE PUSH1 0x20 DUP2 ADD DUP10 SWAP1 MSTORE SWAP1 DUP2 ADD DUP6 SWAP1 MSTORE PUSH1 0x60 DUP2 ADD DUP5 SWAP1 MSTORE SWAP1 SWAP2 POP PUSH32 0x5DE48BB383B4A2AAAD84721B80D93429B813651B0EEFBD59D32018CFE28215DC SWAP1 PUSH1 0x80 ADD JUMPDEST PUSH1 0x40 MLOAD DUP1 SWAP2 SUB SWAP1 LOG1 PUSH2 0xDCA JUMP JUMPDEST DUP13 PUSH1 0x2 SUB PUSH2 0xD29 JUMPI PUSH2 0xCE1 DUP7 DUP12 DUP5 DUP7 PUSH2 0x1D3D JUMP JUMPDEST PUSH1 0x40 DUP1 MLOAD DUP9 DUP2 MSTORE PUSH1 0x20 DUP2 ADD DUP14 SWAP1 MSTORE SWAP1 DUP2 ADD DUP5 SWAP1 MSTORE PUSH1 0x60 DUP2 ADD DUP6 SWAP1 MSTORE SWAP1 SWAP2 POP PUSH32 0x5DE48BB383B4A2AAAD84721B80D93429B813651B0EEFBD59D32018CFE28215DC SWAP1 PUSH1 0x80 ADD PUSH2 0xCC0 JUMP JUMPDEST PUSH2 0xDCA JUMP JUMPDEST DUP15 SWAP3 POP PUSH2 0xD3C PUSH1 0x64 DUP16 PUSH2 0x206C JUMP JUMPDEST DUP16 PUSH2 0xD47 SWAP2 SWAP1 PUSH2 0x20A1 JUMP JUMPDEST SWAP2 POP PUSH2 0xD54 PUSH1 0x64 DUP4 PUSH2 0x20B8 JUMP JUMPDEST SWAP2 POP DUP13 PUSH1 0x1 SUB PUSH2 0xD6A JUMPI PUSH2 0xC7C DUP11 DUP8 DUP6 DUP6 PUSH2 0x1D3D JUMP JUMPDEST DUP13 PUSH1 0x2 SUB PUSH2 0xDCA JUMPI PUSH2 0xD7E DUP7 DUP12 DUP5 DUP7 PUSH2 0x1D3D JUMP JUMPDEST PUSH1 0x40 DUP1 MLOAD DUP9 DUP2 MSTORE PUSH1 0x20 DUP2 ADD DUP14 SWAP1 MSTORE SWAP1 DUP2 ADD DUP5 SWAP1 MSTORE PUSH1 0x60 DUP2 ADD DUP6 SWAP1 MSTORE SWAP1 SWAP2 POP PUSH32 0x5DE48BB383B4A2AAAD84721B80D93429B813651B0EEFBD59D32018CFE28215DC SWAP1 PUSH1 0x80 ADD PUSH1 0x40 MLOAD DUP1 SWAP2 SUB SWAP1 LOG1 JUMPDEST PUSH1 0x0 DUP11 DUP2 MSTORE PUSH1 0xA PUSH1 0x20 SWAP1 DUP2 MSTORE PUSH1 0x40 DUP1 DUP4 KECCAK256 DUP1 SLOAD PUSH1 0x1 DUP2 DUP2 ADD DUP4 SSTORE SWAP2 DUP6 MSTORE DUP4 DUP6 KECCAK256 ADD DUP6 SWAP1 SSTORE DUP10 DUP5 MSTORE DUP2 DUP5 KECCAK256 DUP1 SLOAD SWAP2 DUP3 ADD DUP2 SSTORE DUP5 MSTORE DUP3 DUP5 KECCAK256 ADD DUP5 SWAP1 SSTORE DUP13 DUP4 MSTORE PUSH1 0x7 SWAP1 SWAP2 MSTORE DUP2 KECCAK256 PUSH1 0x3 ADD DUP1 SLOAD DUP6 SWAP3 SWAP1 PUSH2 0xE21 SWAP1 DUP5 SWAP1 PUSH2 0x20DA JUMP JUMPDEST SWAP1 SWAP2 SSTORE POP POP PUSH1 0x0 DUP7 DUP2 MSTORE PUSH1 0x7 PUSH1 0x20 MSTORE PUSH1 0x40 DUP2 KECCAK256 PUSH1 0x3 ADD DUP1 SLOAD DUP5 SWAP3 SWAP1 PUSH2 0xE47 SWAP1 DUP5 SWAP1 PUSH2 0x20DA JUMP JUMPDEST SWAP1 SWAP2 SSTORE POP POP PUSH1 0x0 DUP7 DUP2 MSTORE PUSH1 0x7 PUSH1 0x20 MSTORE PUSH1 0x40 SWAP1 KECCAK256 PUSH1 0x3 DUP2 ADD SLOAD PUSH1 0x2 SWAP1 SWAP2 ADD SLOAD PUSH2 0xE6F SWAP2 SWAP1 PUSH2 0x206C JUMP JUMPDEST PUSH1 0x0 SUB PUSH2 0xE95 JUMPI PUSH1 0x5 DUP9 DUP2 SLOAD DUP2 LT PUSH2 0xE89 JUMPI PUSH2 0xE89 PUSH2 0x1FBA JUMP JUMPDEST PUSH1 0x0 SWAP2 DUP3 MSTORE PUSH1 0x20 DUP3 KECCAK256 ADD SSTORE JUMPDEST PUSH2 0xE9F DUP4 DUP11 PUSH2 0x206C JUMP JUMPDEST SWAP9 POP POP POP POP POP POP POP PUSH2 0xEE8 JUMP JUMPDEST POP POP PUSH1 0x5 DUP1 SLOAD PUSH1 0x1 DUP2 ADD DUP3 SSTORE PUSH1 0x0 SWAP2 SWAP1 SWAP2 MSTORE PUSH32 0x36B6384B5ECA791C62761152D0C79BB0604C104A5FB6F4EB0703F3154BB3DB0 ADD DUP3 SWAP1 SSTORE PUSH2 0xEEF JUMP JUMPDEST POP POP PUSH2 0xA48 JUMP JUMPDEST POP PUSH2 0xF2B JUMP JUMPDEST PUSH1 0x5 DUP1 SLOAD PUSH1 0x1 DUP2 ADD DUP3 SSTORE PUSH1 0x0 SWAP2 SWAP1 SWAP2 MSTORE PUSH32 0x36B6384B5ECA791C62761152D0C79BB0604C104A5FB6F4EB0703F3154BB3DB0 ADD DUP2 SWAP1 SSTORE JUMPDEST PUSH1 0x40 DUP1 MLOAD CALLER DUP2 MSTORE ADDRESS PUSH1 0x20 DUP3 ADD MSTORE SWAP1 DUP2 ADD DUP3 SWAP1 MSTORE PUSH1 0x60 DUP2 ADD DUP8 SWAP1 MSTORE PUSH1 0x80 DUP2 ADD DUP7 SWAP1 MSTORE PUSH1 0xA0 DUP2 ADD DUP6 SWAP1 MSTORE PUSH32 0x618F358BB45538682ADE624A4A1959053D9DABD20FE300508034B879681B37BE SWAP1 PUSH1 0xC0 ADD PUSH1 0x40 MLOAD DUP1 SWAP2 SUB SWAP1 LOG1 SWAP8 SWAP7 POP POP POP POP POP POP POP JUMP JUMPDEST PUSH1 0x2 PUSH1 0x0 SLOAD SUB PUSH2 0xFAD JUMPI PUSH1 0x40 MLOAD PUSH3 0x461BCD PUSH1 0xE5 SHL DUP2 MSTORE PUSH1 0x4 ADD PUSH2 0x2E1 SWAP1 PUSH2 0x1FFF JUMP JUMPDEST PUSH1 0x2 PUSH1 0x0 DUP2 DUP2 SSTORE DUP3 DUP2 MSTORE PUSH1 0x7 PUSH1 0x20 SWAP1 DUP2 MSTORE PUSH1 0x40 SWAP2 DUP3 SWAP1 KECCAK256 DUP3 MLOAD PUSH1 0xC0 DUP2 ADD DUP5 MSTORE DUP2 SLOAD PUSH1 0x1 PUSH1 0x1 PUSH1 0xA0 SHL SUB SWAP1 DUP2 AND DUP1 DUP4 MSTORE PUSH1 0x1 DUP5 ADD SLOAD SWAP1 SWAP2 AND SWAP4 DUP3 ADD SWAP4 SWAP1 SWAP4 MSTORE SWAP4 DUP2 ADD SLOAD SWAP3 DUP5 ADD SWAP3 SWAP1 SWAP3 MSTORE PUSH1 0x3 DUP3 ADD SLOAD PUSH1 0x60 DUP5 ADD MSTORE PUSH1 0x4 DUP3 ADD SLOAD PUSH1 0x80 DUP5 ADD MSTORE PUSH1 0x5 SWAP1 SWAP2 ADD SLOAD PUSH1 0xA0 DUP4 ADD MSTORE CALLER EQ PUSH2 0x1048 JUMPI PUSH1 0x40 MLOAD PUSH3 0x461BCD PUSH1 0xE5 SHL DUP2 MSTORE PUSH1 0x20 PUSH1 0x4 DUP3 ADD MSTORE PUSH1 0x2 PUSH1 0x24 DUP3 ADD MSTORE PUSH2 0x134D PUSH1 0xF2 SHL PUSH1 0x44 DUP3 ADD MSTORE PUSH1 0x64 ADD PUSH2 0x2E1 JUMP JUMPDEST PUSH1 0x0 DUP2 PUSH1 0x60 ADD MLOAD DUP3 PUSH1 0x40 ADD MLOAD PUSH2 0x105E SWAP2 SWAP1 PUSH2 0x206C JUMP JUMPDEST DUP3 MLOAD PUSH1 0x1 PUSH1 0x1 PUSH1 0xA0 SHL SUB AND PUSH1 0x0 SWAP1 DUP2 MSTORE PUSH1 0x6 PUSH1 0x20 SWAP1 DUP2 MSTORE PUSH1 0x40 DUP1 DUP4 KECCAK256 DUP5 SWAP1 SSTORE DUP1 DUP7 ADD MLOAD DUP8 DUP5 MSTORE PUSH1 0x7 SWAP1 SWAP3 MSTORE DUP3 KECCAK256 PUSH1 0x3 ADD SSTORE SWAP1 SWAP2 POP JUMPDEST PUSH1 0x5 SLOAD DUP2 LT ISZERO PUSH2 0x10F2 JUMPI DUP4 PUSH1 0x5 DUP3 DUP2 SLOAD DUP2 LT PUSH2 0x10B1 JUMPI PUSH2 0x10B1 PUSH2 0x1FBA JUMP JUMPDEST SWAP1 PUSH1 0x0 MSTORE PUSH1 0x20 PUSH1 0x0 KECCAK256 ADD SLOAD SUB PUSH2 0x10E0 JUMPI PUSH1 0x5 DUP2 DUP2 SLOAD DUP2 LT PUSH2 0x10D4 JUMPI PUSH2 0x10D4 PUSH2 0x1FBA JUMP JUMPDEST PUSH1 0x0 SWAP2 DUP3 MSTORE PUSH1 0x20 DUP3 KECCAK256 ADD SSTORE JUMPDEST DUP1 PUSH2 0x10EA DUP2 PUSH2 0x1FE6 JUMP JUMPDEST SWAP2 POP POP PUSH2 0x1093 JUMP JUMPDEST POP POP PUSH1 0x1 PUSH1 0x0 SSTORE POP POP JUMP JUMPDEST PUSH1 0x1 SLOAD PUSH1 0x0 SWAP1 PUSH1 0x1 PUSH1 0x1 PUSH1 0xA0 SHL SUB AND CALLER EQ PUSH2 0x112A JUMPI PUSH1 0x40 MLOAD PUSH3 0x461BCD PUSH1 0xE5 SHL DUP2 MSTORE PUSH1 0x4 ADD PUSH2 0x2E1 SWAP1 PUSH2 0x2085 JUMP JUMPDEST PUSH1 0x2 SLOAD ISZERO DUP1 PUSH2 0x113B JUMPI POP PUSH1 0x2 SLOAD PUSH1 0x4 EQ JUMPDEST DUP1 ISZERO PUSH2 0x1151 JUMPI POP DUP2 PUSH1 0x1 EQ DUP1 PUSH2 0x1151 JUMPI POP DUP2 PUSH1 0x2 EQ JUMPDEST PUSH2 0x1182 JUMPI PUSH1 0x40 MLOAD PUSH3 0x461BCD PUSH1 0xE5 SHL DUP2 MSTORE PUSH1 0x20 PUSH1 0x4 DUP3 ADD MSTORE PUSH1 0x2 PUSH1 0x24 DUP3 ADD MSTORE PUSH2 0x4D35 PUSH1 0xF0 SHL PUSH1 0x44 DUP3 ADD MSTORE PUSH1 0x64 ADD PUSH2 0x2E1 JUMP JUMPDEST PUSH1 0x2 DUP3 SWAP1 SSTORE PUSH1 0x0 JUMPDEST PUSH1 0x3 SLOAD DUP2 LT ISZERO PUSH2 0x11CC JUMPI PUSH2 0x11BA PUSH1 0x3 DUP3 DUP2 SLOAD DUP2 LT PUSH2 0x11AA JUMPI PUSH2 0x11AA PUSH2 0x1FBA JUMP JUMPDEST SWAP1 PUSH1 0x0 MSTORE PUSH1 0x20 PUSH1 0x0 KECCAK256 ADD SLOAD PUSH2 0x123B JUMP JUMPDEST DUP1 PUSH2 0x11C4 DUP2 PUSH2 0x1FE6 JUMP JUMPDEST SWAP2 POP POP PUSH2 0x118A JUMP JUMPDEST POP PUSH1 0x1 SWAP3 SWAP2 POP POP JUMP JUMPDEST PUSH1 0x1 SLOAD PUSH1 0x1 PUSH1 0x1 PUSH1 0xA0 SHL SUB AND CALLER EQ PUSH2 0x11FF JUMPI PUSH1 0x40 MLOAD PUSH3 0x461BCD PUSH1 0xE5 SHL DUP2 MSTORE PUSH1 0x4 ADD PUSH2 0x2E1 SWAP1 PUSH2 0x2085 JUMP JUMPDEST PUSH1 0x2 SLOAD ISZERO PUSH2 0x1234 JUMPI PUSH1 0x40 MLOAD PUSH3 0x461BCD PUSH1 0xE5 SHL DUP2 MSTORE PUSH1 0x20 PUSH1 0x4 DUP3 ADD MSTORE PUSH1 0x2 PUSH1 0x24 DUP3 ADD MSTORE PUSH2 0x4D37 PUSH1 0xF0 SHL PUSH1 0x44 DUP3 ADD MSTORE PUSH1 0x64 ADD PUSH2 0x2E1 JUMP JUMPDEST PUSH1 0x4 PUSH1 0x2 SSTORE JUMP JUMPDEST PUSH1 0x2 PUSH1 0x0 SLOAD SUB PUSH2 0x125D JUMPI PUSH1 0x40 MLOAD PUSH3 0x461BCD PUSH1 0xE5 SHL DUP2 MSTORE PUSH1 0x4 ADD PUSH2 0x2E1 SWAP1 PUSH2 0x1FFF JUMP JUMPDEST PUSH1 0x2 PUSH1 0x0 SWAP1 DUP2 SSTORE DUP2 DUP2 MSTORE PUSH1 0x9 PUSH1 0x20 MSTORE PUSH1 0x40 SWAP1 KECCAK256 PUSH1 0x4 ADD SLOAD PUSH1 0xFF AND ISZERO PUSH2 0x12AA JUMPI PUSH1 0x40 MLOAD PUSH3 0x461BCD PUSH1 0xE5 SHL DUP2 MSTORE PUSH1 0x20 PUSH1 0x4 DUP3 ADD MSTORE PUSH1 0x3 PUSH1 0x24 DUP3 ADD MSTORE PUSH3 0x269899 PUSH1 0xE9 SHL PUSH1 0x44 DUP3 ADD MSTORE PUSH1 0x64 ADD PUSH2 0x2E1 JUMP JUMPDEST PUSH1 0x0 DUP1 PUSH1 0x0 DUP1 PUSH1 0x2 SLOAD PUSH1 0x1 SUB PUSH2 0x148E JUMPI PUSH1 0x0 DUP6 DUP2 MSTORE PUSH1 0x9 PUSH1 0x20 SWAP1 DUP2 MSTORE PUSH1 0x40 DUP1 DUP4 KECCAK256 SLOAD DUP4 MSTORE PUSH1 0x7 DUP3 MSTORE SWAP2 DUP3 SWAP1 KECCAK256 SLOAD DUP3 MLOAD PUSH4 0x55C4A8BF PUSH1 0xE0 SHL DUP2 MSTORE SWAP3 MLOAD PUSH1 0x1 PUSH1 0x1 PUSH1 0xA0 SHL SUB SWAP2 DUP3 AND SWAP8 POP PUSH1 0x64 SWAP4 PUSH32 0x0 SWAP1 SWAP3 AND SWAP3 PUSH4 0x55C4A8BF SWAP3 PUSH1 0x4 DUP1 DUP3 ADD SWAP4 SWAP2 DUP3 SWAP1 SUB ADD DUP2 DUP7 GAS STATICCALL ISZERO DUP1 ISZERO PUSH2 0x1340 JUMPI RETURNDATASIZE PUSH1 0x0 DUP1 RETURNDATACOPY RETURNDATASIZE PUSH1 0x0 REVERT JUMPDEST POP POP POP POP PUSH1 0x40 MLOAD RETURNDATASIZE PUSH1 0x1F NOT PUSH1 0x1F DUP3 ADD AND DUP3 ADD DUP1 PUSH1 0x40 MSTORE POP DUP2 ADD SWAP1 PUSH2 0x1364 SWAP2 SWAP1 PUSH2 0x2036 JUMP JUMPDEST PUSH2 0x136F SWAP1 PUSH1 0x64 PUSH2 0x206C JUMP JUMPDEST PUSH1 0x0 DUP8 DUP2 MSTORE PUSH1 0x9 PUSH1 0x20 MSTORE PUSH1 0x40 SWAP1 KECCAK256 PUSH1 0x3 ADD SLOAD PUSH2 0x138B SWAP2 SWAP1 PUSH2 0x20A1 JUMP JUMPDEST PUSH2 0x1395 SWAP2 SWAP1 PUSH2 0x20B8 JUMP JUMPDEST PUSH1 0x0 DUP7 DUP2 MSTORE PUSH1 0x9 PUSH1 0x20 MSTORE PUSH1 0x40 SWAP1 KECCAK256 PUSH1 0x2 ADD SLOAD PUSH2 0x13B1 SWAP2 SWAP1 PUSH2 0x20DA JUMP JUMPDEST SWAP2 POP PUSH1 0x64 PUSH32 0x0 PUSH1 0x1 PUSH1 0x1 PUSH1 0xA0 SHL SUB AND PUSH4 0x55C4A8BF PUSH1 0x40 MLOAD DUP2 PUSH4 0xFFFFFFFF AND PUSH1 0xE0 SHL DUP2 MSTORE PUSH1 0x4 ADD PUSH1 0x20 PUSH1 0x40 MLOAD DUP1 DUP4 SUB DUP2 DUP7 GAS STATICCALL ISZERO DUP1 ISZERO PUSH2 0x1413 JUMPI RETURNDATASIZE PUSH1 0x0 DUP1 RETURNDATACOPY RETURNDATASIZE PUSH1 0x0 REVERT JUMPDEST POP POP POP POP PUSH1 0x40 MLOAD RETURNDATASIZE PUSH1 0x1F NOT PUSH1 0x1F DUP3 ADD AND DUP3 ADD DUP1 PUSH1 0x40 MSTORE POP DUP2 ADD SWAP1 PUSH2 0x1437 SWAP2 SWAP1 PUSH2 0x2036 JUMP JUMPDEST PUSH1 0x0 DUP8 DUP2 MSTORE PUSH1 0x9 PUSH1 0x20 MSTORE PUSH1 0x40 SWAP1 KECCAK256 PUSH1 0x3 ADD SLOAD PUSH2 0x1453 SWAP2 SWAP1 PUSH2 0x20A1 JUMP JUMPDEST PUSH2 0x145D SWAP2 SWAP1 PUSH2 0x20B8 JUMP JUMPDEST PUSH1 0x0 DUP7 DUP2 MSTORE PUSH1 0x9 PUSH1 0x20 SWAP1 DUP2 MSTORE PUSH1 0x40 DUP1 DUP4 KECCAK256 SLOAD DUP4 MSTORE PUSH1 0x7 SWAP1 SWAP2 MSTORE SWAP1 KECCAK256 PUSH1 0x1 ADD SLOAD PUSH1 0x1 PUSH1 0x1 PUSH1 0xA0 SHL SUB AND SWAP4 POP SWAP1 POP PUSH2 0x16A1 JUMP JUMPDEST PUSH1 0x2 SLOAD PUSH1 0x2 SUB PUSH2 0x1673 JUMPI PUSH1 0x0 DUP6 DUP2 MSTORE PUSH1 0x9 PUSH1 0x20 SWAP1 DUP2 MSTORE PUSH1 0x40 DUP1 DUP4 KECCAK256 PUSH1 0x1 ADD SLOAD DUP4 MSTORE PUSH1 0x7 DUP3 MSTORE SWAP2 DUP3 SWAP1 KECCAK256 SLOAD DUP3 MLOAD PUSH4 0x55C4A8BF PUSH1 0xE0 SHL DUP2 MSTORE SWAP3 MLOAD PUSH1 0x1 PUSH1 0x1 PUSH1 0xA0 SHL SUB SWAP2 DUP3 AND SWAP8 POP PUSH1 0x64 SWAP4 PUSH32 0x0 SWAP1 SWAP3 AND SWAP3 PUSH4 0x55C4A8BF SWAP3 PUSH1 0x4 DUP1 DUP3 ADD SWAP4 SWAP2 DUP3 SWAP1 SUB ADD DUP2 DUP7 GAS STATICCALL ISZERO DUP1 ISZERO PUSH2 0x1521 JUMPI RETURNDATASIZE PUSH1 0x0 DUP1 RETURNDATACOPY RETURNDATASIZE PUSH1 0x0 REVERT JUMPDEST POP POP POP POP PUSH1 0x40 MLOAD RETURNDATASIZE PUSH1 0x1F NOT PUSH1 0x1F DUP3 ADD AND DUP3 ADD DUP1 PUSH1 0x40 MSTORE POP DUP2 ADD SWAP1 PUSH2 0x1545 SWAP2 SWAP1 PUSH2 0x2036 JUMP JUMPDEST PUSH2 0x1550 SWAP1 PUSH1 0x64 PUSH2 0x206C JUMP JUMPDEST PUSH1 0x0 DUP8 DUP2 MSTORE PUSH1 0x9 PUSH1 0x20 MSTORE PUSH1 0x40 SWAP1 KECCAK256 PUSH1 0x2 ADD SLOAD PUSH2 0x156C SWAP2 SWAP1 PUSH2 0x20A1 JUMP JUMPDEST PUSH2 0x1576 SWAP2 SWAP1 PUSH2 0x20B8 JUMP JUMPDEST PUSH1 0x0 DUP7 DUP2 MSTORE PUSH1 0x9 PUSH1 0x20 MSTORE PUSH1 0x40 SWAP1 KECCAK256 PUSH1 0x3 ADD SLOAD PUSH2 0x1592 SWAP2 SWAP1 PUSH2 0x20DA JUMP JUMPDEST SWAP2 POP PUSH1 0x64 PUSH32 0x0 PUSH1 0x1 PUSH1 0x1 PUSH1 0xA0 SHL SUB AND PUSH4 0x55C4A8BF PUSH1 0x40 MLOAD DUP2 PUSH4 0xFFFFFFFF AND PUSH1 0xE0 SHL DUP2 MSTORE PUSH1 0x4 ADD PUSH1 0x20 PUSH1 0x40 MLOAD DUP1 DUP4 SUB DUP2 DUP7 GAS STATICCALL ISZERO DUP1 ISZERO PUSH2 0x15F4 JUMPI RETURNDATASIZE PUSH1 0x0 DUP1 RETURNDATACOPY RETURNDATASIZE PUSH1 0x0 REVERT JUMPDEST POP POP POP POP PUSH1 0x40 MLOAD RETURNDATASIZE PUSH1 0x1F NOT PUSH1 0x1F DUP3 ADD AND DUP3 ADD DUP1 PUSH1 0x40 MSTORE POP DUP2 ADD SWAP1 PUSH2 0x1618 SWAP2 SWAP1 PUSH2 0x2036 JUMP JUMPDEST PUSH1 0x0 DUP8 DUP2 MSTORE PUSH1 0x9 PUSH1 0x20 MSTORE PUSH1 0x40 SWAP1 KECCAK256 PUSH1 0x2 ADD SLOAD PUSH2 0x1634 SWAP2 SWAP1 PUSH2 0x20A1 JUMP JUMPDEST PUSH2 0x163E SWAP2 SWAP1 PUSH2 0x20B8 JUMP JUMPDEST PUSH1 0x0 DUP7 DUP2 MSTORE PUSH1 0x9 PUSH1 0x20 SWAP1 DUP2 MSTORE PUSH1 0x40 DUP1 DUP4 KECCAK256 PUSH1 0x1 SWAP1 DUP2 ADD SLOAD DUP5 MSTORE PUSH1 0x7 SWAP1 SWAP3 MSTORE SWAP1 SWAP2 KECCAK256 ADD SLOAD PUSH1 0x1 PUSH1 0x1 PUSH1 0xA0 SHL SUB AND SWAP4 POP SWAP1 POP PUSH2 0x16A1 JUMP JUMPDEST PUSH1 0x40 MLOAD PUSH3 0x461BCD PUSH1 0xE5 SHL DUP2 MSTORE PUSH1 0x20 PUSH1 0x4 DUP3 ADD MSTORE PUSH1 0x3 PUSH1 0x24 DUP3 ADD MSTORE PUSH3 0x4D3133 PUSH1 0xE8 SHL PUSH1 0x44 DUP3 ADD MSTORE PUSH1 0x64 ADD PUSH2 0x2E1 JUMP JUMPDEST PUSH1 0x1 PUSH1 0x1 PUSH1 0xA0 SHL SUB DUP4 AND PUSH2 0x1734 JUMPI PUSH32 0x0 PUSH1 0x1 PUSH1 0x1 PUSH1 0xA0 SHL SUB AND PUSH4 0x9953B2F PUSH1 0x40 MLOAD DUP2 PUSH4 0xFFFFFFFF AND PUSH1 0xE0 SHL DUP2 MSTORE PUSH1 0x4 ADD PUSH1 0x20 PUSH1 0x40 MLOAD DUP1 DUP4 SUB DUP2 DUP7 GAS STATICCALL ISZERO DUP1 ISZERO PUSH2 0x170D JUMPI RETURNDATASIZE PUSH1 0x0 DUP1 RETURNDATACOPY RETURNDATASIZE PUSH1 0x0 REVERT JUMPDEST POP POP POP POP PUSH1 0x40 MLOAD RETURNDATASIZE PUSH1 0x1F NOT PUSH1 0x1F DUP3 ADD AND DUP3 ADD DUP1 PUSH1 0x40 MSTORE POP DUP2 ADD SWAP1 PUSH2 0x1731 SWAP2 SWAP1 PUSH2 0x20ED JUMP JUMPDEST SWAP3 POP JUMPDEST PUSH1 0x1 PUSH1 0x1 PUSH1 0xA0 SHL SUB DUP5 AND PUSH1 0x0 SWAP1 DUP2 MSTORE PUSH1 0x6 PUSH1 0x20 MSTORE PUSH1 0x40 DUP2 KECCAK256 DUP1 SLOAD DUP5 SWAP3 SWAP1 PUSH2 0x175C SWAP1 DUP5 SWAP1 PUSH2 0x20DA JUMP JUMPDEST SWAP3 POP POP DUP2 SWAP1 SSTORE POP PUSH1 0x64 PUSH32 0x0 PUSH1 0x1 PUSH1 0x1 PUSH1 0xA0 SHL SUB AND PUSH4 0x6A0CCD9D PUSH1 0x40 MLOAD DUP2 PUSH4 0xFFFFFFFF AND PUSH1 0xE0 SHL DUP2 MSTORE PUSH1 0x4 ADD PUSH1 0x20 PUSH1 0x40 MLOAD DUP1 DUP4 SUB DUP2 DUP7 GAS STATICCALL ISZERO DUP1 ISZERO PUSH2 0x17C3 JUMPI RETURNDATASIZE PUSH1 0x0 DUP1 RETURNDATACOPY RETURNDATASIZE PUSH1 0x0 REVERT JUMPDEST POP POP POP POP PUSH1 0x40 MLOAD RETURNDATASIZE PUSH1 0x1F NOT PUSH1 0x1F DUP3 ADD AND DUP3 ADD DUP1 PUSH1 0x40 MSTORE POP DUP2 ADD SWAP1 PUSH2 0x17E7 SWAP2 SWAP1 PUSH2 0x2036 JUMP JUMPDEST PUSH2 0x17F1 SWAP1 DUP4 PUSH2 0x20A1 JUMP JUMPDEST PUSH2 0x17FB SWAP2 SWAP1 PUSH2 0x20B8 JUMP JUMPDEST PUSH1 0x6 PUSH1 0x0 PUSH32 0x0 PUSH1 0x1 PUSH1 0x1 PUSH1 0xA0 SHL SUB AND PUSH4 0xB7640A54 PUSH1 0x40 MLOAD DUP2 PUSH4 0xFFFFFFFF AND PUSH1 0xE0 SHL DUP2 MSTORE PUSH1 0x4 ADD PUSH1 0x20 PUSH1 0x40 MLOAD DUP1 DUP4 SUB DUP2 DUP7 GAS STATICCALL ISZERO DUP1 ISZERO PUSH2 0x185D JUMPI RETURNDATASIZE PUSH1 0x0 DUP1 RETURNDATACOPY RETURNDATASIZE PUSH1 0x0 REVERT JUMPDEST POP POP POP POP PUSH1 0x40 MLOAD RETURNDATASIZE PUSH1 0x1F NOT PUSH1 0x1F DUP3 ADD AND DUP3 ADD DUP1 PUSH1 0x40 MSTORE POP DUP2 ADD SWAP1 PUSH2 0x1881 SWAP2 SWAP1 PUSH2 0x20ED JUMP JUMPDEST PUSH1 0x1 PUSH1 0x1 PUSH1 0xA0 SHL SUB AND PUSH1 0x1 PUSH1 0x1 PUSH1 0xA0 SHL SUB AND DUP2 MSTORE PUSH1 0x20 ADD SWAP1 DUP2 MSTORE PUSH1 0x20 ADD PUSH1 0x0 KECCAK256 PUSH1 0x0 DUP3 DUP3 SLOAD PUSH2 0x18B0 SWAP2 SWAP1 PUSH2 0x20DA JUMP JUMPDEST SWAP3 POP POP DUP2 SWAP1 SSTORE POP PUSH1 0x64 PUSH32 0x0 PUSH1 0x1 PUSH1 0x1 PUSH1 0xA0 SHL SUB AND PUSH4 0x28576D45 PUSH1 0x40 MLOAD DUP2 PUSH4 0xFFFFFFFF AND PUSH1 0xE0 SHL DUP2 MSTORE PUSH1 0x4 ADD PUSH1 0x20 PUSH1 0x40 MLOAD DUP1 DUP4 SUB DUP2 DUP7 GAS STATICCALL ISZERO DUP1 ISZERO PUSH2 0x1917 JUMPI RETURNDATASIZE PUSH1 0x0 DUP1 RETURNDATACOPY RETURNDATASIZE PUSH1 0x0 REVERT JUMPDEST POP POP POP POP PUSH1 0x40 MLOAD RETURNDATASIZE PUSH1 0x1F NOT PUSH1 0x1F DUP3 ADD AND DUP3 ADD DUP1 PUSH1 0x40 MSTORE POP DUP2 ADD SWAP1 PUSH2 0x193B SWAP2 SWAP1 PUSH2 0x2036 JUMP JUMPDEST PUSH2 0x1945 SWAP1 DUP4 PUSH2 0x20A1 JUMP JUMPDEST PUSH2 0x194F SWAP2 SWAP1 PUSH2 0x20B8 JUMP JUMPDEST PUSH1 0x6 PUSH1 0x0 PUSH32 0x0 PUSH1 0x1 PUSH1 0x1 PUSH1 0xA0 SHL SUB AND PUSH4 0x9953B2F PUSH1 0x40 MLOAD DUP2 PUSH4 0xFFFFFFFF AND PUSH1 0xE0 SHL DUP2 MSTORE PUSH1 0x4 ADD PUSH1 0x20 PUSH1 0x40 MLOAD DUP1 DUP4 SUB DUP2 DUP7 GAS STATICCALL ISZERO DUP1 ISZERO PUSH2 0x19B1 JUMPI RETURNDATASIZE PUSH1 0x0 DUP1 RETURNDATACOPY RETURNDATASIZE PUSH1 0x0 REVERT JUMPDEST POP POP POP POP PUSH1 0x40 MLOAD RETURNDATASIZE PUSH1 0x1F NOT PUSH1 0x1F DUP3 ADD AND DUP3 ADD DUP1 PUSH1 0x40 MSTORE POP DUP2 ADD SWAP1 PUSH2 0x19D5 SWAP2 SWAP1 PUSH2 0x20ED JUMP JUMPDEST PUSH1 0x1 PUSH1 0x1 PUSH1 0xA0 SHL SUB AND PUSH1 0x1 PUSH1 0x1 PUSH1 0xA0 SHL SUB AND DUP2 MSTORE PUSH1 0x20 ADD SWAP1 DUP2 MSTORE PUSH1 0x20 ADD PUSH1 0x0 KECCAK256 PUSH1 0x0 DUP3 DUP3 SLOAD PUSH2 0x1A04 SWAP2 SWAP1 PUSH2 0x20DA JUMP JUMPDEST SWAP3 POP POP DUP2 SWAP1 SSTORE POP PUSH1 0x64 PUSH32 0x0 PUSH1 0x1 PUSH1 0x1 PUSH1 0xA0 SHL SUB AND PUSH4 0x54CD1A5C PUSH1 0x40 MLOAD DUP2 PUSH4 0xFFFFFFFF AND PUSH1 0xE0 SHL DUP2 MSTORE PUSH1 0x4 ADD PUSH1 0x20 PUSH1 0x40 MLOAD DUP1 DUP4 SUB DUP2 DUP7 GAS STATICCALL ISZERO DUP1 ISZERO PUSH2 0x1A6B JUMPI RETURNDATASIZE PUSH1 0x0 DUP1 RETURNDATACOPY RETURNDATASIZE PUSH1 0x0 REVERT JUMPDEST POP POP POP POP PUSH1 0x40 MLOAD RETURNDATASIZE PUSH1 0x1F NOT PUSH1 0x1F DUP3 ADD AND DUP3 ADD DUP1 PUSH1 0x40 MSTORE POP DUP2 ADD SWAP1 PUSH2 0x1A8F SWAP2 SWAP1 PUSH2 0x2036 JUMP JUMPDEST PUSH2 0x1A99 SWAP1 DUP4 PUSH2 0x20A1 JUMP JUMPDEST PUSH2 0x1AA3 SWAP2 SWAP1 PUSH2 0x20B8 JUMP JUMPDEST PUSH1 0x1 PUSH1 0x1 PUSH1 0xA0 SHL SUB DUP5 AND PUSH1 0x0 SWAP1 DUP2 MSTORE PUSH1 0x6 PUSH1 0x20 MSTORE PUSH1 0x40 DUP2 KECCAK256 DUP1 SLOAD SWAP1 SWAP2 SWAP1 PUSH2 0x1ACB SWAP1 DUP5 SWAP1 PUSH2 0x20DA JUMP JUMPDEST SWAP1 SWAP2 SSTORE POP POP POP PUSH1 0x0 DUP5 DUP2 MSTORE PUSH1 0x9 PUSH1 0x20 MSTORE PUSH1 0x40 SWAP1 KECCAK256 PUSH1 0x4 ADD DUP1 SLOAD PUSH1 0xFF NOT AND PUSH1 0x1 OR SWAP1 SSTORE POP POP POP POP PUSH1 0x1 PUSH1 0x0 SSTORE JUMP JUMPDEST PUSH1 0x0 DUP2 DUP2 MSTORE PUSH1 0x9 PUSH1 0x20 SWAP1 DUP2 MSTORE PUSH1 0x40 DUP1 DUP4 KECCAK256 DUP1 SLOAD DUP5 MSTORE PUSH1 0x7 DUP4 MSTORE DUP2 DUP5 KECCAK256 SLOAD PUSH1 0x1 DUP3 ADD SLOAD DUP6 MSTORE DUP3 DUP6 KECCAK256 SLOAD PUSH1 0x2 SWAP1 SWAP3 ADD SLOAD PUSH1 0x1 PUSH1 0x1 PUSH1 0xA0 SHL SUB SWAP2 DUP3 AND DUP1 DUP8 MSTORE PUSH1 0x6 SWAP1 SWAP6 MSTORE SWAP3 DUP6 KECCAK256 DUP1 SLOAD SWAP5 SWAP6 SWAP2 SWAP1 SWAP3 AND SWAP4 PUSH2 0x1B50 SWAP1 DUP5 SWAP1 PUSH2 0x20DA JUMP JUMPDEST SWAP1 SWAP2 SSTORE POP POP PUSH1 0x0 DUP4 DUP2 MSTORE PUSH1 0x9 PUSH1 0x20 SWAP1 DUP2 MSTORE PUSH1 0x40 DUP1 DUP4 KECCAK256 PUSH1 0x3 ADD SLOAD PUSH1 0x1 PUSH1 0x1 PUSH1 0xA0 SHL SUB DUP6 AND DUP5 MSTORE PUSH1 0x6 SWAP1 SWAP3 MSTORE DUP3 KECCAK256 DUP1 SLOAD SWAP2 SWAP3 SWAP1 SWAP2 PUSH2 0x1B8E SWAP1 DUP5 SWAP1 PUSH2 0x20DA JUMP JUMPDEST SWAP1 SWAP2 SSTORE POP POP POP PUSH1 0x0 SWAP2 DUP3 MSTORE POP PUSH1 0x9 PUSH1 0x20 MSTORE PUSH1 0x40 SWAP1 KECCAK256 PUSH1 0x4 ADD DUP1 SLOAD PUSH1 0xFF NOT AND PUSH1 0x1 OR SWAP1 SSTORE JUMP JUMPDEST PUSH1 0x0 DUP1 PUSH1 0x0 JUMPDEST PUSH1 0x4 SLOAD DUP10 SWAP1 ADDRESS SWAP1 DUP4 SWAP1 PUSH2 0x1BCD SWAP1 PUSH1 0x1 PUSH2 0x20DA JUMP JUMPDEST PUSH2 0x1BD7 SWAP2 SWAP1 PUSH2 0x20DA JUMP JUMPDEST PUSH1 0x40 MLOAD PUSH12 0xFFFFFFFFFFFFFFFFFFFFFFFF NOT PUSH1 0x60 SWAP5 DUP6 SHL DUP2 AND PUSH1 0x20 DUP4 ADD MSTORE SWAP3 SWAP1 SWAP4 SHL SWAP1 SWAP2 AND PUSH1 0x34 DUP4 ADD MSTORE PUSH1 0x48 DUP3 ADD MSTORE TIMESTAMP PUSH1 0x68 DUP3 ADD MSTORE DIFFICULTY PUSH1 0x88 DUP3 ADD MSTORE PUSH1 0xA8 ADD PUSH1 0x40 DUP1 MLOAD PUSH1 0x1F NOT DUP2 DUP5 SUB ADD DUP2 MSTORE SWAP2 DUP2 MSTORE DUP2 MLOAD PUSH1 0x20 SWAP3 DUP4 ADD KECCAK256 PUSH1 0x0 DUP2 DUP2 MSTORE PUSH1 0x7 SWAP1 SWAP4 MSTORE SWAP2 KECCAK256 PUSH1 0x2 ADD SLOAD SWAP1 SWAP3 POP ISZERO PUSH2 0x1C56 JUMPI DUP1 PUSH2 0x1C4E DUP2 PUSH2 0x1FE6 JUMP JUMPDEST SWAP2 POP POP PUSH2 0x1BB9 JUMP JUMPDEST POP PUSH1 0x40 DUP1 MLOAD PUSH1 0xC0 DUP2 ADD DUP3 MSTORE PUSH1 0x1 PUSH1 0x1 PUSH1 0xA0 SHL SUB SWAP10 DUP11 AND DUP1 DUP3 MSTORE SWAP9 DUP11 AND PUSH1 0x20 DUP1 DUP4 ADD SWAP2 DUP3 MSTORE DUP3 DUP5 ADD SWAP10 DUP11 MSTORE PUSH1 0x60 DUP4 ADD SWAP9 DUP10 MSTORE PUSH1 0x80 DUP4 ADD SWAP8 DUP9 MSTORE PUSH1 0xA0 DUP4 ADD SWAP7 DUP8 MSTORE PUSH1 0x0 DUP6 DUP2 MSTORE PUSH1 0x7 DUP3 MSTORE DUP5 DUP2 KECCAK256 SWAP4 MLOAD DUP5 SLOAD SWAP1 DUP15 AND PUSH1 0x1 PUSH1 0x1 PUSH1 0xA0 SHL SUB NOT SWAP2 DUP3 AND OR DUP6 SSTORE SWAP3 MLOAD PUSH1 0x1 DUP1 DUP7 ADD DUP1 SLOAD SWAP3 SWAP1 SWAP16 AND SWAP2 SWAP1 SWAP5 AND OR SWAP1 SWAP13 SSTORE SWAP9 MLOAD PUSH1 0x2 DUP4 ADD SSTORE SWAP7 MLOAD PUSH1 0x3 DUP3 ADD SSTORE SWAP5 MLOAD PUSH1 0x4 DUP1 DUP8 ADD SWAP2 SWAP1 SWAP2 SSTORE SWAP4 MLOAD PUSH1 0x5 SWAP1 SWAP6 ADD SWAP5 SWAP1 SWAP5 SSTORE DUP3 SLOAD DUP1 DUP7 ADD SWAP1 SWAP4 SSTORE PUSH32 0x8A35ACFBC15FF81A39AE7D344FD709F28E8600B4AA8C65C6B64BFE7FE36BD19B SWAP1 SWAP3 ADD DUP3 SWAP1 SSTORE POP SWAP4 DUP6 MSTORE PUSH1 0x8 DUP4 MSTORE DUP5 KECCAK256 DUP1 SLOAD SWAP2 DUP3 ADD DUP2 SSTORE DUP5 MSTORE SWAP3 KECCAK256 SWAP1 SWAP2 ADD DUP2 SWAP1 SSTORE SWAP1 JUMP JUMPDEST PUSH1 0x0 DUP1 PUSH1 0x0 JUMPDEST PUSH1 0x3 SLOAD DUP8 SWAP1 DUP8 SWAP1 DUP4 SWAP1 PUSH2 0x1D57 SWAP1 PUSH1 0x1 PUSH2 0x20DA JUMP JUMPDEST PUSH2 0x1D61 SWAP2 SWAP1 PUSH2 0x20DA JUMP JUMPDEST PUSH1 0x40 DUP1 MLOAD PUSH1 0x20 DUP2 ADD SWAP5 SWAP1 SWAP5 MSTORE DUP4 ADD SWAP2 SWAP1 SWAP2 MSTORE PUSH1 0x60 DUP3 ADD MSTORE TIMESTAMP PUSH1 0x80 DUP3 ADD MSTORE DIFFICULTY PUSH1 0xA0 DUP3 ADD MSTORE PUSH1 0xC0 ADD PUSH1 0x40 DUP1 MLOAD PUSH1 0x1F NOT DUP2 DUP5 SUB ADD DUP2 MSTORE SWAP2 DUP2 MSTORE DUP2 MLOAD PUSH1 0x20 SWAP3 DUP4 ADD KECCAK256 PUSH1 0x0 DUP2 DUP2 MSTORE PUSH1 0x9 SWAP1 SWAP4 MSTORE SWAP2 KECCAK256 PUSH1 0x2 ADD SLOAD SWAP1 SWAP3 POP ISZERO PUSH2 0x1DC9 JUMPI DUP1 PUSH2 0x1DC1 DUP2 PUSH2 0x1FE6 JUMP JUMPDEST SWAP2 POP POP PUSH2 0x1D43 JUMP JUMPDEST POP PUSH1 0x40 DUP1 MLOAD PUSH1 0xA0 DUP2 ADD DUP3 MSTORE SWAP7 DUP8 MSTORE PUSH1 0x20 DUP1 DUP9 ADD SWAP7 DUP8 MSTORE DUP8 DUP3 ADD SWAP6 DUP7 MSTORE PUSH1 0x60 DUP9 ADD SWAP5 DUP6 MSTORE PUSH1 0x0 PUSH1 0x80 DUP10 ADD DUP2 DUP2 MSTORE DUP5 DUP3 MSTORE PUSH1 0x9 SWAP1 SWAP3 MSTORE SWAP2 DUP3 KECCAK256 SWAP8 MLOAD DUP9 SSTORE SWAP6 MLOAD PUSH1 0x1 DUP1 DUP10 ADD SWAP2 SWAP1 SWAP2 SSTORE SWAP5 MLOAD PUSH1 0x2 DUP9 ADD SSTORE SWAP3 MLOAD PUSH1 0x3 DUP1 DUP9 ADD SWAP2 SWAP1 SWAP2 SSTORE SWAP5 MLOAD PUSH1 0x4 SWAP1 SWAP7 ADD DUP1 SLOAD PUSH1 0xFF NOT AND SWAP7 ISZERO ISZERO SWAP7 SWAP1 SWAP7 OR SWAP1 SWAP6 SSTORE POP DUP3 SLOAD SWAP2 DUP3 ADD DUP4 SSTORE SWAP2 SWAP1 SWAP2 MSTORE PUSH32 0xC2575A0E9E593C00F959F8C92F12DB2869C3395A3B0502D05E2516446F71F85B ADD DUP2 SWAP1 SSTORE SWAP1 JUMP JUMPDEST PUSH1 0x1 PUSH1 0x1 PUSH1 0xA0 SHL SUB DUP2 AND DUP2 EQ PUSH2 0x1E81 JUMPI PUSH1 0x0 DUP1 REVERT JUMPDEST POP JUMP JUMPDEST PUSH1 0x0 PUSH1 0x20 DUP3 DUP5 SUB SLT ISZERO PUSH2 0x1E96 JUMPI PUSH1 0x0 DUP1 REVERT JUMPDEST DUP2 CALLDATALOAD PUSH2 0x1EA1 DUP2 PUSH2 0x1E6C JUMP JUMPDEST SWAP4 SWAP3 POP POP POP JUMP JUMPDEST PUSH1 0x20 DUP1 DUP3 MSTORE DUP3 MLOAD DUP3 DUP3 ADD DUP2 SWAP1 MSTORE PUSH1 0x0 SWAP2 SWAP1 PUSH1 0x40 SWAP1 DUP2 DUP6 ADD SWAP1 DUP7 DUP5 ADD DUP6 JUMPDEST DUP3 DUP2 LT ISZERO PUSH2 0x1F1F JUMPI DUP2 MLOAD DUP1 MLOAD PUSH1 0x1 PUSH1 0x1 PUSH1 0xA0 SHL SUB SWAP1 DUP2 AND DUP7 MSTORE DUP8 DUP3 ADD MLOAD AND DUP8 DUP7 ADD MSTORE DUP6 DUP2 ADD MLOAD DUP7 DUP7 ADD MSTORE PUSH1 0x60 DUP1 DUP3 ADD MLOAD SWAP1 DUP7 ADD MSTORE PUSH1 0x80 DUP1 DUP3 ADD MLOAD SWAP1 DUP7 ADD MSTORE PUSH1 0xA0 SWAP1 DUP2 ADD MLOAD SWAP1 DUP6 ADD MSTORE PUSH1 0xC0 SWAP1 SWAP4 ADD SWAP3 SWAP1 DUP6 ADD SWAP1 PUSH1 0x1 ADD PUSH2 0x1EC5 JUMP JUMPDEST POP SWAP2 SWAP8 SWAP7 POP POP POP POP POP POP POP JUMP JUMPDEST PUSH1 0x0 PUSH1 0x20 DUP3 DUP5 SUB SLT ISZERO PUSH2 0x1F3E JUMPI PUSH1 0x0 DUP1 REVERT JUMPDEST POP CALLDATALOAD SWAP2 SWAP1 POP JUMP JUMPDEST DUP1 ISZERO ISZERO DUP2 EQ PUSH2 0x1E81 JUMPI PUSH1 0x0 DUP1 REVERT JUMPDEST PUSH1 0x0 DUP1 PUSH1 0x0 DUP1 PUSH1 0x0 DUP1 PUSH1 0xC0 DUP8 DUP10 SUB SLT ISZERO PUSH2 0x1F6C JUMPI PUSH1 0x0 DUP1 REVERT JUMPDEST DUP7 CALLDATALOAD PUSH2 0x1F77 DUP2 PUSH2 0x1E6C JUMP JUMPDEST SWAP6 POP PUSH1 0x20 DUP8 ADD CALLDATALOAD PUSH2 0x1F87 DUP2 PUSH2 0x1E6C JUMP JUMPDEST SWAP5 POP PUSH1 0x40 DUP8 ADD CALLDATALOAD SWAP4 POP PUSH1 0x60 DUP8 ADD CALLDATALOAD SWAP3 POP PUSH1 0x80 DUP8 ADD CALLDATALOAD SWAP2 POP PUSH1 0xA0 DUP8 ADD CALLDATALOAD PUSH2 0x1FAC DUP2 PUSH2 0x1F45 JUMP JUMPDEST DUP1 SWAP2 POP POP SWAP3 SWAP6 POP SWAP3 SWAP6 POP SWAP3 SWAP6 JUMP JUMPDEST PUSH4 0x4E487B71 PUSH1 0xE0 SHL PUSH1 0x0 MSTORE PUSH1 0x32 PUSH1 0x4 MSTORE PUSH1 0x24 PUSH1 0x0 REVERT JUMPDEST PUSH4 0x4E487B71 PUSH1 0xE0 SHL PUSH1 0x0 MSTORE PUSH1 0x11 PUSH1 0x4 MSTORE PUSH1 0x24 PUSH1 0x0 REVERT JUMPDEST PUSH1 0x0 PUSH1 0x1 DUP3 ADD PUSH2 0x1FF8 JUMPI PUSH2 0x1FF8 PUSH2 0x1FD0 JUMP JUMPDEST POP PUSH1 0x1 ADD SWAP1 JUMP JUMPDEST PUSH1 0x20 DUP1 DUP3 MSTORE PUSH1 0x1F SWAP1 DUP3 ADD MSTORE PUSH32 0x5265656E7472616E637947756172643A207265656E7472616E742063616C6C00 PUSH1 0x40 DUP3 ADD MSTORE PUSH1 0x60 ADD SWAP1 JUMP JUMPDEST PUSH1 0x0 PUSH1 0x20 DUP3 DUP5 SUB SLT ISZERO PUSH2 0x2048 JUMPI PUSH1 0x0 DUP1 REVERT JUMPDEST POP MLOAD SWAP2 SWAP1 POP JUMP JUMPDEST PUSH1 0x0 PUSH1 0x20 DUP3 DUP5 SUB SLT ISZERO PUSH2 0x2061 JUMPI PUSH1 0x0 DUP1 REVERT JUMPDEST DUP2 MLOAD PUSH2 0x1EA1 DUP2 PUSH2 0x1F45 JUMP JUMPDEST DUP2 DUP2 SUB DUP2 DUP2 GT ISZERO PUSH2 0x207F JUMPI PUSH2 0x207F PUSH2 0x1FD0 JUMP JUMPDEST SWAP3 SWAP2 POP POP JUMP JUMPDEST PUSH1 0x20 DUP1 DUP3 MSTORE PUSH1 0x2 SWAP1 DUP3 ADD MSTORE PUSH2 0x4D31 PUSH1 0xF0 SHL PUSH1 0x40 DUP3 ADD MSTORE PUSH1 0x60 ADD SWAP1 JUMP JUMPDEST DUP1 DUP3 MUL DUP2 ISZERO DUP3 DUP3 DIV DUP5 EQ OR PUSH2 0x207F JUMPI PUSH2 0x207F PUSH2 0x1FD0 JUMP JUMPDEST PUSH1 0x0 DUP3 PUSH2 0x20D5 JUMPI PUSH4 0x4E487B71 PUSH1 0xE0 SHL PUSH1 0x0 MSTORE PUSH1 0x12 PUSH1 0x4 MSTORE PUSH1 0x24 PUSH1 0x0 REVERT JUMPDEST POP DIV SWAP1 JUMP JUMPDEST DUP1 DUP3 ADD DUP1 DUP3 GT ISZERO PUSH2 0x207F JUMPI PUSH2 0x207F PUSH2 0x1FD0 JUMP JUMPDEST PUSH1 0x0 PUSH1 0x20 DUP3 DUP5 SUB SLT ISZERO PUSH2 0x20FF JUMPI PUSH1 0x0 DUP1 REVERT JUMPDEST DUP2 MLOAD PUSH2 0x1EA1 DUP2 PUSH2 0x1E6C JUMP INVALID LOG2 PUSH5 0x6970667358 0x22 SLT KECCAK256 0xD5 0xC4 0xEA PUSH8 0x31A717BBE5B8C3C5 0xE8 CODECOPY PUSH11 0x878170C4CD2DD13C911AD8 0xD0 SIGNEXTEND 0xE3 0xC0 JUMPI LT PUSH5 0x736F6C6343 STOP ADDMOD GT STOP CALLER "
				},
				"gasEstimates": {
					"creation": {
						"codeDepositCost": "1702400",
						"executionCost": "infinite",
						"totalCost": "infinite"
					},
					"external": {
						"addBet(address,address,uint256,uint256,uint256,bool)": "infinite",
						"cancelMarket()": "infinite",
						"cancelPending(bytes32)": "infinite",
						"getBalance(address)": "2608",
						"getUserBets(address)": "infinite",
						"settle(uint256)": "infinite",
						"settleBet(bytes32)": "infinite",
						"start()": "26576",
						"status()": "2285",
						"withdraw(address)": "infinite"
					},
					"internal": {
						"_cancelPair(bytes32)": "infinite",
						"_createBet(address,address,uint256,uint256,uint256,uint256)": "infinite",
						"_createPair(bytes32,bytes32,uint256,uint256)": "infinite",
						"_settlePair(bytes32)": "infinite"
					}
				},
				"methodIdentifiers": {
					"addBet(address,address,uint256,uint256,uint256,bool)": "78d65b2f",
					"cancelMarket()": "6bfefd6b",
					"cancelPending(bytes32)": "893372ca",
					"getBalance(address)": "f8b2cb4f",
					"getUserBets(address)": "2d56657d",
					"settle(uint256)": "8df82800",
					"settleBet(bytes32)": "675f6537",
					"start()": "be9a6555",
					"status()": "200d2ed2",
					"withdraw(address)": "51cff8d9"
				}
			},
			"storageLayout": {
				"storage": [
					{
						"astId": 10,
						"contract": "contracts/Market.sol:Market",
						"label": "_status",
						"offset": 0,
						"slot": "0",
						"type": "t_uint256"
					},
					{
						"astId": 128,
						"contract": "contracts/Market.sol:Market",
						"label": "factory",
						"offset": 0,
						"slot": "1",
						"type": "t_address"
					},
					{
						"astId": 132,
						"contract": "contracts/Market.sol:Market",
						"label": "status",
						"offset": 0,
						"slot": "2",
						"type": "t_uint256"
					},
					{
						"astId": 135,
						"contract": "contracts/Market.sol:Market",
						"label": "pairs",
						"offset": 0,
						"slot": "3",
						"type": "t_array(t_bytes32)dyn_storage"
					},
					{
						"astId": 138,
						"contract": "contracts/Market.sol:Market",
						"label": "bets",
						"offset": 0,
						"slot": "4",
						"type": "t_array(t_bytes32)dyn_storage"
					},
					{
						"astId": 141,
						"contract": "contracts/Market.sol:Market",
						"label": "pendingBets",
						"offset": 0,
						"slot": "5",
						"type": "t_array(t_bytes32)dyn_storage"
					},
					{
						"astId": 156,
						"contract": "contracts/Market.sol:Market",
						"label": "bal",
						"offset": 0,
						"slot": "6",
						"type": "t_mapping(t_address,t_uint256)"
					},
					{
						"astId": 161,
						"contract": "contracts/Market.sol:Market",
						"label": "betsInfo",
						"offset": 0,
						"slot": "7",
						"type": "t_mapping(t_bytes32,t_struct(MarketBet)1486_storage)"
					},
					{
						"astId": 166,
						"contract": "contracts/Market.sol:Market",
						"label": "userBets",
						"offset": 0,
						"slot": "8",
						"type": "t_mapping(t_address,t_array(t_bytes32)dyn_storage)"
					},
					{
						"astId": 171,
						"contract": "contracts/Market.sol:Market",
						"label": "pairsInfo",
						"offset": 0,
						"slot": "9",
						"type": "t_mapping(t_bytes32,t_struct(MarketPair)152_storage)"
					},
					{
						"astId": 176,
						"contract": "contracts/Market.sol:Market",
						"label": "betPairs",
						"offset": 0,
						"slot": "10",
						"type": "t_mapping(t_bytes32,t_array(t_bytes32)dyn_storage)"
					}
				],
				"types": {
					"t_address": {
						"encoding": "inplace",
						"label": "address",
						"numberOfBytes": "20"
					},
					"t_array(t_bytes32)dyn_storage": {
						"base": "t_bytes32",
						"encoding": "dynamic_array",
						"label": "bytes32[]",
						"numberOfBytes": "32"
					},
					"t_bool": {
						"encoding": "inplace",
						"label": "bool",
						"numberOfBytes": "1"
					},
					"t_bytes32": {
						"encoding": "inplace",
						"label": "bytes32",
						"numberOfBytes": "32"
					},
					"t_mapping(t_address,t_array(t_bytes32)dyn_storage)": {
						"encoding": "mapping",
						"key": "t_address",
						"label": "mapping(address => bytes32[])",
						"numberOfBytes": "32",
						"value": "t_array(t_bytes32)dyn_storage"
					},
					"t_mapping(t_address,t_uint256)": {
						"encoding": "mapping",
						"key": "t_address",
						"label": "mapping(address => uint256)",
						"numberOfBytes": "32",
						"value": "t_uint256"
					},
					"t_mapping(t_bytes32,t_array(t_bytes32)dyn_storage)": {
						"encoding": "mapping",
						"key": "t_bytes32",
						"label": "mapping(bytes32 => bytes32[])",
						"numberOfBytes": "32",
						"value": "t_array(t_bytes32)dyn_storage"
					},
					"t_mapping(t_bytes32,t_struct(MarketBet)1486_storage)": {
						"encoding": "mapping",
						"key": "t_bytes32",
						"label": "mapping(bytes32 => struct IMarket.MarketBet)",
						"numberOfBytes": "32",
						"value": "t_struct(MarketBet)1486_storage"
					},
					"t_mapping(t_bytes32,t_struct(MarketPair)152_storage)": {
						"encoding": "mapping",
						"key": "t_bytes32",
						"label": "mapping(bytes32 => struct Market.MarketPair)",
						"numberOfBytes": "32",
						"value": "t_struct(MarketPair)152_storage"
					},
					"t_struct(MarketBet)1486_storage": {
						"encoding": "inplace",
						"label": "struct IMarket.MarketBet",
						"members": [
							{
								"astId": 1475,
								"contract": "contracts/Market.sol:Market",
								"label": "better",
								"offset": 0,
								"slot": "0",
								"type": "t_address"
							},
							{
								"astId": 1477,
								"contract": "contracts/Market.sol:Market",
								"label": "affiliate",
								"offset": 0,
								"slot": "1",
								"type": "t_address"
							},
							{
								"astId": 1479,
								"contract": "contracts/Market.sol:Market",
								"label": "stake",
								"offset": 0,
								"slot": "2",
								"type": "t_uint256"
							},
							{
								"astId": 1481,
								"contract": "contracts/Market.sol:Market",
								"label": "matched",
								"offset": 0,
								"slot": "3",
								"type": "t_uint256"
							},
							{
								"astId": 1483,
								"contract": "contracts/Market.sol:Market",
								"label": "odds",
								"offset": 0,
								"slot": "4",
								"type": "t_uint256"
							},
							{
								"astId": 1485,
								"contract": "contracts/Market.sol:Market",
								"label": "side",
								"offset": 0,
								"slot": "5",
								"type": "t_uint256"
							}
						],
						"numberOfBytes": "192"
					},
					"t_struct(MarketPair)152_storage": {
						"encoding": "inplace",
						"label": "struct Market.MarketPair",
						"members": [
							{
								"astId": 143,
								"contract": "contracts/Market.sol:Market",
								"label": "betHashA",
								"offset": 0,
								"slot": "0",
								"type": "t_bytes32"
							},
							{
								"astId": 145,
								"contract": "contracts/Market.sol:Market",
								"label": "betHashB",
								"offset": 0,
								"slot": "1",
								"type": "t_bytes32"
							},
							{
								"astId": 147,
								"contract": "contracts/Market.sol:Market",
								"label": "amountA",
								"offset": 0,
								"slot": "2",
								"type": "t_uint256"
							},
							{
								"astId": 149,
								"contract": "contracts/Market.sol:Market",
								"label": "amountB",
								"offset": 0,
								"slot": "3",
								"type": "t_uint256"
							},
							{
								"astId": 151,
								"contract": "contracts/Market.sol:Market",
								"label": "settled",
								"offset": 0,
								"slot": "4",
								"type": "t_bool"
							}
						],
						"numberOfBytes": "160"
					},
					"t_uint256": {
						"encoding": "inplace",
						"label": "uint256",
						"numberOfBytes": "32"
					}
				}
			},
			"userdoc": {
				"kind": "user",
				"methods": {},
				"version": 1
			}
		}
	}
}