{
	"contracts/Market.sol": {
		"Market": {
			"abi": [
				{
					"inputs": [],
					"stateMutability": "nonpayable",
					"type": "constructor"
				},
				{
					"anonymous": false,
					"inputs": [
						{
							"indexed": false,
							"internalType": "address",
							"name": "better",
							"type": "address"
						},
						{
							"indexed": false,
							"internalType": "address",
							"name": "marketAddr",
							"type": "address"
						},
						{
							"indexed": false,
							"internalType": "bytes32",
							"name": "hash",
							"type": "bytes32"
						},
						{
							"indexed": false,
							"internalType": "uint256",
							"name": "stake",
							"type": "uint256"
						},
						{
							"indexed": false,
							"internalType": "uint256",
							"name": "odds",
							"type": "uint256"
						},
						{
							"indexed": false,
							"internalType": "uint256",
							"name": "side",
							"type": "uint256"
						}
					],
					"name": "BetCreated",
					"type": "event"
				},
				{
					"anonymous": false,
					"inputs": [
						{
							"indexed": false,
							"internalType": "bytes32",
							"name": "betHashA",
							"type": "bytes32"
						},
						{
							"indexed": false,
							"internalType": "bytes32",
							"name": "betHashB",
							"type": "bytes32"
						},
						{
							"indexed": false,
							"internalType": "uint256",
							"name": "amountA",
							"type": "uint256"
						},
						{
							"indexed": false,
							"internalType": "uint256",
							"name": "amountB",
							"type": "uint256"
						}
					],
					"name": "PairCreated",
					"type": "event"
				},
				{
					"inputs": [
						{
							"internalType": "address",
							"name": "_better",
							"type": "address"
						},
						{
							"internalType": "address",
							"name": "_affiliate",
							"type": "address"
						},
						{
							"internalType": "uint256",
							"name": "_stake",
							"type": "uint256"
						},
						{
							"internalType": "uint256",
							"name": "_odds",
							"type": "uint256"
						},
						{
							"internalType": "uint256",
							"name": "_side",
							"type": "uint256"
						},
						{
							"internalType": "bool",
							"name": "_instant",
							"type": "bool"
						}
					],
					"name": "addBet",
					"outputs": [
						{
							"internalType": "bytes32",
							"name": "",
							"type": "bytes32"
						}
					],
					"stateMutability": "nonpayable",
					"type": "function"
				},
				{
					"inputs": [],
					"name": "app",
					"outputs": [
						{
							"internalType": "contract IWeb3BetsFO",
							"name": "",
							"type": "address"
						}
					],
					"stateMutability": "view",
					"type": "function"
				},
				{
					"inputs": [],
					"name": "cancelMarket",
					"outputs": [
						{
							"internalType": "bool",
							"name": "",
							"type": "bool"
						}
					],
					"stateMutability": "nonpayable",
					"type": "function"
				},
				{
					"inputs": [
						{
							"internalType": "bytes32",
							"name": "_bet",
							"type": "bytes32"
						}
					],
					"name": "cancelPending",
					"outputs": [],
					"stateMutability": "nonpayable",
					"type": "function"
				},
				{
					"inputs": [],
					"name": "factory",
					"outputs": [
						{
							"internalType": "address",
							"name": "",
							"type": "address"
						}
					],
					"stateMutability": "view",
					"type": "function"
				},
				{
					"inputs": [
						{
							"internalType": "address",
							"name": "_user",
							"type": "address"
						}
					],
					"name": "getBalance",
					"outputs": [
						{
							"internalType": "uint256",
							"name": "",
							"type": "uint256"
						}
					],
					"stateMutability": "view",
					"type": "function"
				},
				{
					"inputs": [
						{
							"internalType": "address",
							"name": "_user",
							"type": "address"
						}
					],
					"name": "getUserBets",
					"outputs": [
						{
							"components": [
								{
									"internalType": "address",
									"name": "better",
									"type": "address"
								},
								{
									"internalType": "address",
									"name": "affiliate",
									"type": "address"
								},
								{
									"internalType": "uint256",
									"name": "stake",
									"type": "uint256"
								},
								{
									"internalType": "uint256",
									"name": "matched",
									"type": "uint256"
								},
								{
									"internalType": "uint256",
									"name": "odds",
									"type": "uint256"
								},
								{
									"internalType": "uint256",
									"name": "side",
									"type": "uint256"
								}
							],
							"internalType": "struct IMarket.MarketBet[]",
							"name": "",
							"type": "tuple[]"
						}
					],
					"stateMutability": "view",
					"type": "function"
				},
				{
					"inputs": [
						{
							"internalType": "uint256",
							"name": "_winningSide",
							"type": "uint256"
						}
					],
					"name": "settle",
					"outputs": [
						{
							"internalType": "bool",
							"name": "",
							"type": "bool"
						}
					],
					"stateMutability": "nonpayable",
					"type": "function"
				},
				{
					"inputs": [
						{
							"internalType": "bytes32",
							"name": "_bet",
							"type": "bytes32"
						}
					],
					"name": "settleBet",
					"outputs": [],
					"stateMutability": "nonpayable",
					"type": "function"
				},
				{
					"inputs": [],
					"name": "status",
					"outputs": [
						{
							"internalType": "uint256",
							"name": "",
							"type": "uint256"
						}
					],
					"stateMutability": "view",
					"type": "function"
				},
				{
					"inputs": [],
					"name": "token",
					"outputs": [
						{
							"internalType": "contract IERC20",
							"name": "",
							"type": "address"
						}
					],
					"stateMutability": "view",
					"type": "function"
				},
				{
					"inputs": [
						{
							"internalType": "address",
							"name": "_addr",
							"type": "address"
						}
					],
					"name": "withdraw",
					"outputs": [
						{
							"internalType": "bool",
							"name": "",
							"type": "bool"
						}
					],
					"stateMutability": "nonpayable",
					"type": "function"
				}
			],
			"devdoc": {
				"kind": "dev",
				"methods": {},
				"version": 1
			},
			"evm": {
				"assembly": "    /* \"contracts/Market.sol\":194:10947  contract Market is IMarket, ReentrancyGuard {... */\n  mstore(0x40, 0xc0)\n    /* \"contracts/Market.sol\":664:665  0 */\n  0x00\n    /* \"contracts/Market.sol\":631:665  uint256 public override status = 0 */\n  0x05\n  sstore\n    /* \"contracts/Market.sol\":1162:1169  factory */\n  and(sub(shl(0xa0, 0x01), 0x01), sload(0x01))\n    /* \"contracts/Market.sol\":1115:1170  IWeb3BetsFO immutable public app = IWeb3BetsFO(factory) */\n  0xa0\n  mstore\n    /* \"contracts/Market.sol\":1611:1717  constructor() {... */\n  callvalue\n  dup1\n  iszero\n  tag_1\n  jumpi\n  0x00\n  dup1\n  revert\ntag_1:\n  pop\n    /* \"@openzeppelin/contracts/security/ReentrancyGuard.sol\":1701:1702  1 */\n  0x01\n    /* \"@openzeppelin/contracts/security/ReentrancyGuard.sol\":1806:1813  _status */\n  0x00\n    /* \"@openzeppelin/contracts/security/ReentrancyGuard.sol\":1806:1828  _status = _NOT_ENTERED */\n  dup2\n  swap1\n  sstore\n    /* \"contracts/Market.sol\":1635:1655  factory = msg.sender */\n  dup1\n  sload\n  not(sub(shl(0xa0, 0x01), 0x01))\n  and\n    /* \"contracts/Market.sol\":1645:1655  msg.sender */\n  caller\n    /* \"contracts/Market.sol\":1635:1655  factory = msg.sender */\n  swap1\n  dup2\n  or\n  swap1\n  swap2\n  sstore\n    /* \"contracts/Market.sol\":1680:1709  IWeb3BetsFO(factory).scAddr() */\n  0x40\n  dup1\n  mload\n  shl(0xe3, 0x966ed9)\n  dup2\n  mstore\n  swap1\n  mload\n    /* \"contracts/Market.sol\":1680:1707  IWeb3BetsFO(factory).scAddr */\n  0x04b376c8\n  swap2\n    /* \"contracts/Market.sol\":1680:1709  IWeb3BetsFO(factory).scAddr() */\n  0x04\n  dup1\n  dup3\n  add\n  swap3\n  0x20\n  swap3\n  swap1\n  swap2\n  swap1\n  dup3\n  swap1\n  sub\n  add\n  dup2\n    /* \"contracts/Market.sol\":1645:1655  msg.sender */\n  dup7\n    /* \"contracts/Market.sol\":1680:1709  IWeb3BetsFO(factory).scAddr() */\n  gas\n  staticcall\n  iszero\n  dup1\n  iszero\n  tag_7\n  jumpi\n  returndatasize\n  0x00\n  dup1\n  returndatacopy\n  revert(0x00, returndatasize)\ntag_7:\n  pop\n  pop\n  pop\n  pop\n  mload(0x40)\n  returndatasize\n  not(0x1f)\n  0x1f\n  dup3\n  add\n  and\n  dup3\n  add\n  dup1\n  0x40\n  mstore\n  pop\n  dup2\n  add\n  swap1\n  tag_8\n  swap2\n  swap1\n  tag_9\n  jump\t// in\ntag_8:\n  sub(shl(0xa0, 0x01), 0x01)\n    /* \"contracts/Market.sol\":1665:1710  token = IERC20(IWeb3BetsFO(factory).scAddr()) */\n  and\n  0x80\n  mstore\n    /* \"contracts/Market.sol\":194:10947  contract Market is IMarket, ReentrancyGuard {... */\n  jump(tag_11)\n    /* \"#utility.yul\":14:304   */\ntag_9:\n    /* \"#utility.yul\":84:90   */\n  0x00\n    /* \"#utility.yul\":137:139   */\n  0x20\n    /* \"#utility.yul\":125:134   */\n  dup3\n    /* \"#utility.yul\":116:123   */\n  dup5\n    /* \"#utility.yul\":112:135   */\n  sub\n    /* \"#utility.yul\":108:140   */\n  slt\n    /* \"#utility.yul\":105:157   */\n  iszero\n  tag_13\n  jumpi\n    /* \"#utility.yul\":153:154   */\n  0x00\n    /* \"#utility.yul\":150:151   */\n  dup1\n    /* \"#utility.yul\":143:155   */\n  revert\n    /* \"#utility.yul\":105:157   */\ntag_13:\n    /* \"#utility.yul\":179:195   */\n  dup2\n  mload\n  sub(shl(0xa0, 0x01), 0x01)\n    /* \"#utility.yul\":224:255   */\n  dup2\n  and\n    /* \"#utility.yul\":214:256   */\n  dup2\n  eq\n    /* \"#utility.yul\":204:274   */\n  tag_14\n  jumpi\n    /* \"#utility.yul\":270:271   */\n  0x00\n    /* \"#utility.yul\":267:268   */\n  dup1\n    /* \"#utility.yul\":260:272   */\n  revert\n    /* \"#utility.yul\":204:274   */\ntag_14:\n    /* \"#utility.yul\":293:298   */\n  swap4\n    /* \"#utility.yul\":14:304   */\n  swap3\n  pop\n  pop\n  pop\n  jump\t// out\ntag_11:\n    /* \"contracts/Market.sol\":194:10947  contract Market is IMarket, ReentrancyGuard {... */\n  mload(0x80)\n  mload(0xa0)\n  codecopy(0x00, dataOffset(sub_0), dataSize(sub_0))\n  0x00\n  assignImmutable(\"0xb7700257a9e4b89511ea592d7ef488a6959d733cec4df010484e5af3e427a407\")\n  0x00\n  assignImmutable(\"0x26fde711c36747908dcce028baf2d3e8303b2122f2368e04f010a3f01eaa4df4\")\n  return(0x00, dataSize(sub_0))\nstop\n\nsub_0: assembly {\n        /* \"contracts/Market.sol\":194:10947  contract Market is IMarket, ReentrancyGuard {... */\n      mstore(0x40, 0x80)\n      callvalue\n      dup1\n      iszero\n      tag_1\n      jumpi\n      0x00\n      dup1\n      revert\n    tag_1:\n      pop\n      jumpi(tag_2, lt(calldatasize, 0x04))\n      shr(0xe0, calldataload(0x00))\n      dup1\n      0x893372ca\n      gt\n      tag_15\n      jumpi\n      dup1\n      0x893372ca\n      eq\n      tag_9\n      jumpi\n      dup1\n      0x8df82800\n      eq\n      tag_10\n      jumpi\n      dup1\n      0xb76564bd\n      eq\n      tag_11\n      jumpi\n      dup1\n      0xc45a0155\n      eq\n      tag_12\n      jumpi\n      dup1\n      0xf8b2cb4f\n      eq\n      tag_13\n      jumpi\n      dup1\n      0xfc0c546a\n      eq\n      tag_14\n      jumpi\n      0x00\n      dup1\n      revert\n    tag_15:\n      dup1\n      0x200d2ed2\n      eq\n      tag_3\n      jumpi\n      dup1\n      0x2d56657d\n      eq\n      tag_4\n      jumpi\n      dup1\n      0x51cff8d9\n      eq\n      tag_5\n      jumpi\n      dup1\n      0x675f6537\n      eq\n      tag_6\n      jumpi\n      dup1\n      0x6bfefd6b\n      eq\n      tag_7\n      jumpi\n      dup1\n      0x78d65b2f\n      eq\n      tag_8\n      jumpi\n    tag_2:\n      0x00\n      dup1\n      revert\n        /* \"contracts/Market.sol\":631:665  uint256 public override status = 0 */\n    tag_3:\n      tag_16\n      sload(0x05)\n      dup2\n      jump\n    tag_16:\n      mload(0x40)\n        /* \"#utility.yul\":160:185   */\n      swap1\n      dup2\n      mstore\n        /* \"#utility.yul\":148:150   */\n      0x20\n        /* \"#utility.yul\":133:151   */\n      add\n        /* \"contracts/Market.sol\":631:665  uint256 public override status = 0 */\n    tag_18:\n      mload(0x40)\n      dup1\n      swap2\n      sub\n      swap1\n      return\n        /* \"contracts/Market.sol\":1838:2150  function getUserBets(address _user) external view override returns(MarketBet[] memory) {... */\n    tag_4:\n      tag_20\n      tag_21\n      calldatasize\n      0x04\n      tag_22\n      jump\t// in\n    tag_21:\n      tag_23\n      jump\t// in\n    tag_20:\n      mload(0x40)\n      tag_18\n      swap2\n      swap1\n      tag_25\n      jump\t// in\n        /* \"contracts/Market.sol\":2156:2527  function withdraw(address _addr) public override nonReentrant returns(bool) {... */\n    tag_5:\n      tag_26\n      tag_27\n      calldatasize\n      0x04\n      tag_22\n      jump\t// in\n    tag_27:\n      tag_28\n      jump\t// in\n    tag_26:\n      mload(0x40)\n        /* \"#utility.yul\":1901:1915   */\n      swap1\n      iszero\n        /* \"#utility.yul\":1894:1916   */\n      iszero\n        /* \"#utility.yul\":1876:1917   */\n      dup2\n      mstore\n        /* \"#utility.yul\":1864:1866   */\n      0x20\n        /* \"#utility.yul\":1849:1867   */\n      add\n        /* \"contracts/Market.sol\":2156:2527  function withdraw(address _addr) public override nonReentrant returns(bool) {... */\n      tag_18\n        /* \"#utility.yul\":1736:1923   */\n      jump\n        /* \"contracts/Market.sol\":3047:3294  function settleBet(bytes32 _bet) external override {... */\n    tag_6:\n      tag_31\n      tag_32\n      calldatasize\n      0x04\n      tag_33\n      jump\t// in\n    tag_32:\n      tag_34\n      jump\t// in\n    tag_31:\n      stop\n        /* \"contracts/Market.sol\":3644:3889  function cancelMarket() external override onlyFactory returns(bool) ... */\n    tag_7:\n      tag_26\n      tag_36\n      jump\t// in\n        /* \"contracts/Market.sol\":3895:7725  function addBet(... */\n    tag_8:\n      tag_16\n      tag_39\n      calldatasize\n      0x04\n      tag_40\n      jump\t// in\n    tag_39:\n      tag_41\n      jump\t// in\n        /* \"contracts/Market.sol\":2535:3041  function cancelPending(bytes32 _bet) external override nonReentrant {... */\n    tag_9:\n      tag_31\n      tag_45\n      calldatasize\n      0x04\n      tag_33\n      jump\t// in\n    tag_45:\n      tag_46\n      jump\t// in\n        /* \"contracts/Market.sol\":3300:3638  function settle(uint256 _winningSide)... */\n    tag_10:\n      tag_26\n      tag_48\n      calldatasize\n      0x04\n      tag_33\n      jump\t// in\n    tag_48:\n      tag_50\n      jump\t// in\n        /* \"contracts/Market.sol\":1115:1170  IWeb3BetsFO immutable public app = IWeb3BetsFO(factory) */\n    tag_11:\n      tag_52\n      immutable(\"0xb7700257a9e4b89511ea592d7ef488a6959d733cec4df010484e5af3e427a407\")\n      dup2\n      jump\n    tag_52:\n      mload(0x40)\n      sub(shl(0xa0, 0x01), 0x01)\n        /* \"#utility.yul\":3522:3554   */\n      swap1\n      swap2\n      and\n        /* \"#utility.yul\":3504:3555   */\n      dup2\n      mstore\n        /* \"#utility.yul\":3492:3494   */\n      0x20\n        /* \"#utility.yul\":3477:3495   */\n      add\n        /* \"contracts/Market.sol\":1115:1170  IWeb3BetsFO immutable public app = IWeb3BetsFO(factory) */\n      tag_18\n        /* \"#utility.yul\":3338:3561   */\n      jump\n        /* \"contracts/Market.sol\":244:275  address public override factory */\n    tag_12:\n      sload(0x01)\n      tag_52\n      swap1\n      sub(shl(0xa0, 0x01), 0x01)\n      and\n      dup2\n      jump\n        /* \"contracts/Market.sol\":1723:1832  function getBalance(address _user) external view override returns(uint256) {... */\n    tag_13:\n      tag_16\n      tag_61\n      calldatasize\n      0x04\n      tag_22\n      jump\t// in\n    tag_61:\n      sub(shl(0xa0, 0x01), 0x01)\n        /* \"contracts/Market.sol\":1815:1825  bal[_user] */\n      and\n        /* \"contracts/Market.sol\":1789:1796  uint256 */\n      0x00\n        /* \"contracts/Market.sol\":1815:1825  bal[_user] */\n      swap1\n      dup2\n      mstore\n        /* \"contracts/Market.sol\":1815:1818  bal */\n      0x06\n        /* \"contracts/Market.sol\":1815:1825  bal[_user] */\n      0x20\n      mstore\n      0x40\n      swap1\n      keccak256\n      sload\n      swap1\n        /* \"contracts/Market.sol\":1723:1832  function getBalance(address _user) external view override returns(uint256) {... */\n      jump\n        /* \"contracts/Market.sol\":1080:1109  IERC20 immutable public token */\n    tag_14:\n      tag_52\n      immutable(\"0x26fde711c36747908dcce028baf2d3e8303b2122f2368e04f010a3f01eaa4df4\")\n      dup2\n      jump\n        /* \"contracts/Market.sol\":1838:2150  function getUserBets(address _user) external view override returns(MarketBet[] memory) {... */\n    tag_23:\n      sub(shl(0xa0, 0x01), 0x01)\n        /* \"contracts/Market.sol\":1998:2013  userBets[_user] */\n      dup2\n      and\n        /* \"contracts/Market.sol\":1973:1995  bytes32[] memory _bets */\n      0x00\n        /* \"contracts/Market.sol\":1998:2013  userBets[_user] */\n      swap1\n      dup2\n      mstore\n        /* \"contracts/Market.sol\":1998:2006  userBets */\n      0x08\n        /* \"contracts/Market.sol\":1998:2013  userBets[_user] */\n      0x20\n      swap1\n      dup2\n      mstore\n      0x40\n      dup1\n      dup4\n      keccak256\n        /* \"contracts/Market.sol\":1973:2013  bytes32[] memory _bets = userBets[_user] */\n      dup1\n      sload\n      dup3\n      mload\n      dup2\n      dup6\n      mul\n      dup2\n      add\n      dup6\n      add\n      swap1\n      swap4\n      mstore\n      dup1\n      dup4\n      mstore\n        /* \"contracts/Market.sol\":1905:1923  MarketBet[] memory */\n      0x60\n      swap5\n      dup6\n      swap5\n        /* \"contracts/Market.sol\":1973:1995  bytes32[] memory _bets */\n      swap1\n      swap4\n        /* \"contracts/Market.sol\":1973:2013  bytes32[] memory _bets = userBets[_user] */\n      swap3\n        /* \"contracts/Market.sol\":1998:2013  userBets[_user] */\n      swap2\n        /* \"contracts/Market.sol\":1973:2013  bytes32[] memory _bets = userBets[_user] */\n      swap1\n      dup4\n      add\n        /* \"contracts/Market.sol\":1998:2013  userBets[_user] */\n      dup3\n        /* \"contracts/Market.sol\":1973:2013  bytes32[] memory _bets = userBets[_user] */\n      dup3\n      dup1\n      iszero\n      tag_69\n      jumpi\n      0x20\n      mul\n      dup3\n      add\n      swap2\n      swap1\n      0x00\n      mstore\n      keccak256(0x00, 0x20)\n      swap1\n    tag_70:\n      dup2\n      sload\n      dup2\n      mstore\n      0x20\n      add\n      swap1\n      0x01\n      add\n      swap1\n      dup1\n      dup4\n      gt\n      tag_70\n      jumpi\n    tag_69:\n      pop\n      pop\n      pop\n      pop\n      pop\n      swap1\n      pop\n        /* \"contracts/Market.sol\":2027:2033  uint i */\n      0x00\n        /* \"contracts/Market.sol\":2023:2118  for(uint i = 0; i < bets.length; i++){... */\n    tag_71:\n        /* \"contracts/Market.sol\":2043:2047  bets */\n      0x03\n        /* \"contracts/Market.sol\":2043:2054  bets.length */\n      sload\n        /* \"contracts/Market.sol\":2039:2054  i < bets.length */\n      dup2\n      lt\n        /* \"contracts/Market.sol\":2023:2118  for(uint i = 0; i < bets.length; i++){... */\n      iszero\n      tag_72\n      jumpi\n        /* \"contracts/Market.sol\":2089:2097  betsInfo */\n      0x07\n        /* \"contracts/Market.sol\":2089:2107  betsInfo[_bets[i]] */\n      0x00\n        /* \"contracts/Market.sol\":2098:2103  _bets */\n      dup4\n        /* \"contracts/Market.sol\":2104:2105  i */\n      dup4\n        /* \"contracts/Market.sol\":2098:2106  _bets[i] */\n      dup2\n      mload\n      dup2\n      lt\n      tag_75\n      jumpi\n      tag_75\n      tag_76\n      jump\t// in\n    tag_75:\n      0x20\n      swap1\n      dup2\n      mul\n      swap2\n      swap1\n      swap2\n      add\n      dup2\n      add\n      mload\n        /* \"contracts/Market.sol\":2089:2107  betsInfo[_bets[i]] */\n      dup3\n      mstore\n      dup2\n      dup2\n      add\n      swap3\n      swap1\n      swap3\n      mstore\n      0x40\n      swap1\n      dup2\n      add\n      0x00\n      keccak256\n        /* \"contracts/Market.sol\":2074:2107  _userBets[i] = betsInfo[_bets[i]] */\n      dup2\n      mload\n      0xc0\n      dup2\n      add\n      dup4\n      mstore\n      dup2\n      sload\n      sub(shl(0xa0, 0x01), 0x01)\n      swap1\n      dup2\n      and\n      dup3\n      mstore\n      0x01\n      dup4\n      add\n      sload\n      and\n      swap4\n      dup2\n      add\n      swap4\n      swap1\n      swap4\n      mstore\n      0x02\n      dup2\n      add\n      sload\n      swap2\n      dup4\n      add\n      swap2\n      swap1\n      swap2\n      mstore\n      0x03\n      dup2\n      add\n      sload\n      0x60\n      dup4\n      add\n      mstore\n      0x04\n      dup2\n      add\n      sload\n      0x80\n      dup4\n      add\n      mstore\n      0x05\n      add\n      sload\n      0xa0\n      dup3\n      add\n      mstore\n        /* \"contracts/Market.sol\":2074:2086  _userBets[i] */\n      dup4\n      mload\n        /* \"contracts/Market.sol\":2074:2083  _userBets */\n      dup5\n      swap1\n        /* \"contracts/Market.sol\":2084:2085  i */\n      dup4\n      swap1\n        /* \"contracts/Market.sol\":2074:2086  _userBets[i] */\n      dup2\n      lt\n      tag_78\n      jumpi\n      tag_78\n      tag_76\n      jump\t// in\n    tag_78:\n      0x20\n      mul\n      0x20\n      add\n      add\n        /* \"contracts/Market.sol\":2074:2107  _userBets[i] = betsInfo[_bets[i]] */\n      dup2\n      swap1\n      mstore\n      pop\n        /* \"contracts/Market.sol\":2056:2059  i++ */\n      dup1\n      dup1\n      tag_79\n      swap1\n      tag_80\n      jump\t// in\n    tag_79:\n      swap2\n      pop\n      pop\n        /* \"contracts/Market.sol\":2023:2118  for(uint i = 0; i < bets.length; i++){... */\n      jump(tag_71)\n    tag_72:\n      pop\n        /* \"contracts/Market.sol\":2134:2143  _userBets */\n      swap1\n      swap4\n        /* \"contracts/Market.sol\":1838:2150  function getUserBets(address _user) external view override returns(MarketBet[] memory) {... */\n      swap3\n      pop\n      pop\n      pop\n      jump\t// out\n        /* \"contracts/Market.sol\":2156:2527  function withdraw(address _addr) public override nonReentrant returns(bool) {... */\n    tag_28:\n        /* \"contracts/Market.sol\":2226:2230  bool */\n      0x00\n        /* \"@openzeppelin/contracts/security/ReentrancyGuard.sol\":1744:1745  2 */\n      0x02\n        /* \"@openzeppelin/contracts/security/ReentrancyGuard.sol\":2325:2332  _status */\n      sload(0x00)\n        /* \"@openzeppelin/contracts/security/ReentrancyGuard.sol\":2325:2344  _status != _ENTERED */\n      sub\n        /* \"@openzeppelin/contracts/security/ReentrancyGuard.sol\":2317:2380  require(_status != _ENTERED, \"ReentrancyGuard: reentrant call\") */\n      tag_82\n      jumpi\n      mload(0x40)\n      shl(0xe5, 0x461bcd)\n      dup2\n      mstore\n      0x04\n      add\n      tag_83\n      swap1\n      tag_84\n      jump\t// in\n    tag_83:\n      mload(0x40)\n      dup1\n      swap2\n      sub\n      swap1\n      revert\n    tag_82:\n        /* \"@openzeppelin/contracts/security/ReentrancyGuard.sol\":1744:1745  2 */\n      0x02\n        /* \"@openzeppelin/contracts/security/ReentrancyGuard.sol\":2455:2462  _status */\n      0x00\n        /* \"@openzeppelin/contracts/security/ReentrancyGuard.sol\":2455:2473  _status = _ENTERED */\n      swap1\n      dup2\n      sstore\n      sub(shl(0xa0, 0x01), 0x01)\n        /* \"contracts/Market.sol\":2264:2274  bal[_addr] */\n      dup4\n      dup2\n      and\n      dup3\n      mstore\n        /* \"contracts/Market.sol\":2264:2267  bal */\n      0x06\n        /* \"contracts/Market.sol\":2264:2274  bal[_addr] */\n      0x20\n      mstore\n      0x40\n      swap2\n      dup3\n      swap1\n      keccak256\n      sload\n        /* \"contracts/Market.sol\":2292:2322  token.balanceOf(address(this)) */\n      swap2\n      mload\n      shl(0xe0, 0x70a08231)\n      dup2\n      mstore\n        /* \"contracts/Market.sol\":2316:2320  this */\n      address\n        /* \"contracts/Market.sol\":2292:2322  token.balanceOf(address(this)) */\n      0x04\n      dup3\n      add\n        /* \"#utility.yul\":3504:3555   */\n      mstore\n        /* \"contracts/Market.sol\":2264:2274  bal[_addr] */\n      dup3\n      swap2\n        /* \"contracts/Market.sol\":2292:2297  token */\n      immutable(\"0x26fde711c36747908dcce028baf2d3e8303b2122f2368e04f010a3f01eaa4df4\")\n        /* \"contracts/Market.sol\":2292:2307  token.balanceOf */\n      and\n      swap1\n      0x70a08231\n      swap1\n        /* \"#utility.yul\":3477:3495   */\n      0x24\n      add\n        /* \"contracts/Market.sol\":2292:2322  token.balanceOf(address(this)) */\n      0x20\n      mload(0x40)\n      dup1\n      dup4\n      sub\n      dup2\n      dup7\n      gas\n      staticcall\n      iszero\n      dup1\n      iszero\n      tag_88\n      jumpi\n      returndatasize\n      0x00\n      dup1\n      returndatacopy\n      revert(0x00, returndatasize)\n    tag_88:\n      pop\n      pop\n      pop\n      pop\n      mload(0x40)\n      returndatasize\n      not(0x1f)\n      0x1f\n      dup3\n      add\n      and\n      dup3\n      add\n      dup1\n      0x40\n      mstore\n      pop\n      dup2\n      add\n      swap1\n      tag_89\n      swap2\n      swap1\n      tag_90\n      jump\t// in\n    tag_89:\n        /* \"contracts/Market.sol\":2292:2336  token.balanceOf(address(this)) > availAmount */\n      gt\n        /* \"contracts/Market.sol\":2292:2355  token.balanceOf(address(this)) > availAmount && availAmount > 0 */\n      dup1\n      iszero\n      tag_91\n      jumpi\n      pop\n        /* \"contracts/Market.sol\":2354:2355  0 */\n      0x00\n        /* \"contracts/Market.sol\":2340:2351  availAmount */\n      dup2\n        /* \"contracts/Market.sol\":2340:2355  availAmount > 0 */\n      gt\n        /* \"contracts/Market.sol\":2292:2355  token.balanceOf(address(this)) > availAmount && availAmount > 0 */\n    tag_91:\n        /* \"contracts/Market.sol\":2284:2366  require(token.balanceOf(address(this)) > availAmount && availAmount > 0, \"< fund\") */\n      tag_92\n      jumpi\n      mload(0x40)\n      shl(0xe5, 0x461bcd)\n      dup2\n      mstore\n        /* \"#utility.yul\":5151:5153   */\n      0x20\n        /* \"contracts/Market.sol\":2284:2366  require(token.balanceOf(address(this)) > availAmount && availAmount > 0, \"< fund\") */\n      0x04\n      dup3\n      add\n        /* \"#utility.yul\":5133:5154   */\n      mstore\n        /* \"#utility.yul\":5190:5191   */\n      0x06\n        /* \"#utility.yul\":5170:5188   */\n      0x24\n      dup3\n      add\n        /* \"#utility.yul\":5163:5192   */\n      mstore\n      shl(0xd2, 0x0f08199d5b99)\n        /* \"#utility.yul\":5208:5226   */\n      0x44\n      dup3\n      add\n        /* \"#utility.yul\":5201:5237   */\n      mstore\n        /* \"#utility.yul\":5254:5272   */\n      0x64\n      add\n        /* \"contracts/Market.sol\":2284:2366  require(token.balanceOf(address(this)) > availAmount && availAmount > 0, \"< fund\") */\n      tag_83\n        /* \"#utility.yul\":4949:5278   */\n      jump\n        /* \"contracts/Market.sol\":2284:2366  require(token.balanceOf(address(this)) > availAmount && availAmount > 0, \"< fund\") */\n    tag_92:\n        /* \"contracts/Market.sol\":2391:2425  token.transfer(_addr, availAmount) */\n      mload(0x40)\n      shl(0xe0, 0xa9059cbb)\n      dup2\n      mstore\n      sub(shl(0xa0, 0x01), 0x01)\n        /* \"#utility.yul\":5475:5507   */\n      dup5\n      dup2\n      and\n        /* \"contracts/Market.sol\":2391:2425  token.transfer(_addr, availAmount) */\n      0x04\n      dup4\n      add\n        /* \"#utility.yul\":5457:5508   */\n      mstore\n        /* \"#utility.yul\":5524:5542   */\n      0x24\n      dup3\n      add\n        /* \"#utility.yul\":5517:5551   */\n      dup4\n      swap1\n      mstore\n        /* \"contracts/Market.sol\":2376:2388  bool success */\n      0x00\n      swap2\n        /* \"contracts/Market.sol\":2391:2396  token */\n      immutable(\"0x26fde711c36747908dcce028baf2d3e8303b2122f2368e04f010a3f01eaa4df4\")\n        /* \"contracts/Market.sol\":2391:2405  token.transfer */\n      swap1\n      swap2\n      and\n      swap1\n      0xa9059cbb\n      swap1\n        /* \"#utility.yul\":5430:5448   */\n      0x44\n      add\n        /* \"contracts/Market.sol\":2391:2425  token.transfer(_addr, availAmount) */\n      0x20\n      mload(0x40)\n      dup1\n      dup4\n      sub\n      dup2\n      0x00\n      dup8\n      gas\n      call\n      iszero\n      dup1\n      iszero\n      tag_98\n      jumpi\n      returndatasize\n      0x00\n      dup1\n      returndatacopy\n      revert(0x00, returndatasize)\n    tag_98:\n      pop\n      pop\n      pop\n      pop\n      mload(0x40)\n      returndatasize\n      not(0x1f)\n      0x1f\n      dup3\n      add\n      and\n      dup3\n      add\n      dup1\n      0x40\n      mstore\n      pop\n      dup2\n      add\n      swap1\n      tag_99\n      swap2\n      swap1\n      tag_100\n      jump\t// in\n    tag_99:\n        /* \"contracts/Market.sol\":2376:2425  bool success = token.transfer(_addr, availAmount) */\n      swap1\n      pop\n        /* \"contracts/Market.sol\":2443:2450  success */\n      dup1\n        /* \"contracts/Market.sol\":2435:2464  require(success, \"Tx Failed\") */\n      tag_101\n      jumpi\n      mload(0x40)\n      shl(0xe5, 0x461bcd)\n      dup2\n      mstore\n        /* \"#utility.yul\":6014:6016   */\n      0x20\n        /* \"contracts/Market.sol\":2435:2464  require(success, \"Tx Failed\") */\n      0x04\n      dup3\n      add\n        /* \"#utility.yul\":5996:6017   */\n      mstore\n        /* \"#utility.yul\":6053:6054   */\n      0x09\n        /* \"#utility.yul\":6033:6051   */\n      0x24\n      dup3\n      add\n        /* \"#utility.yul\":6026:6055   */\n      mstore\n      shl(0xba, 0x151e0811985a5b1959)\n        /* \"#utility.yul\":6071:6089   */\n      0x44\n      dup3\n      add\n        /* \"#utility.yul\":6064:6103   */\n      mstore\n        /* \"#utility.yul\":6120:6138   */\n      0x64\n      add\n        /* \"contracts/Market.sol\":2435:2464  require(success, \"Tx Failed\") */\n      tag_83\n        /* \"#utility.yul\":5812:6144   */\n      jump\n        /* \"contracts/Market.sol\":2435:2464  require(success, \"Tx Failed\") */\n    tag_101:\n      sub(shl(0xa0, 0x01), 0x01)\n        /* \"contracts/Market.sol\":2474:2484  bal[_addr] */\n      dup5\n      and\n      0x00\n      swap1\n      dup2\n      mstore\n        /* \"contracts/Market.sol\":2474:2477  bal */\n      0x06\n        /* \"contracts/Market.sol\":2474:2484  bal[_addr] */\n      0x20\n      mstore\n      0x40\n      dup2\n      keccak256\n        /* \"contracts/Market.sol\":2474:2499  bal[_addr] -= availAmount */\n      dup1\n      sload\n        /* \"contracts/Market.sol\":2488:2499  availAmount */\n      dup5\n      swap3\n        /* \"contracts/Market.sol\":2474:2484  bal[_addr] */\n      swap1\n        /* \"contracts/Market.sol\":2474:2499  bal[_addr] -= availAmount */\n      tag_104\n      swap1\n        /* \"contracts/Market.sol\":2488:2499  availAmount */\n      dup5\n      swap1\n        /* \"contracts/Market.sol\":2474:2499  bal[_addr] -= availAmount */\n      tag_105\n      jump\t// in\n    tag_104:\n      swap1\n      swap2\n      sstore\n      pop\n        /* \"contracts/Market.sol\":2516:2520  true */\n      0x01\n      swap4\n      pop\n      pop\n      pop\n      pop\n        /* \"@openzeppelin/contracts/security/ReentrancyGuard.sol\":1701:1702  1 */\n      0x01\n        /* \"@openzeppelin/contracts/security/ReentrancyGuard.sol\":2628:2635  _status */\n      0x00\n        /* \"@openzeppelin/contracts/security/ReentrancyGuard.sol\":2628:2650  _status = _NOT_ENTERED */\n      sstore\n        /* \"contracts/Market.sol\":2156:2527  function withdraw(address _addr) public override nonReentrant returns(bool) {... */\n      swap2\n      swap1\n      pop\n      jump\t// out\n        /* \"contracts/Market.sol\":3047:3294  function settleBet(bytes32 _bet) external override {... */\n    tag_34:\n        /* \"contracts/Market.sol\":3108:3131  bytes32[] memory _pairs */\n      0x00\n        /* \"contracts/Market.sol\":3134:3148  betPairs[_bet] */\n      dup2\n      dup2\n      mstore\n        /* \"contracts/Market.sol\":3134:3142  betPairs */\n      0x0a\n        /* \"contracts/Market.sol\":3134:3148  betPairs[_bet] */\n      0x20\n      swap1\n      dup2\n      mstore\n      0x40\n      dup1\n      dup4\n      keccak256\n        /* \"contracts/Market.sol\":3108:3148  bytes32[] memory _pairs = betPairs[_bet] */\n      dup1\n      sload\n      dup3\n      mload\n      dup2\n      dup6\n      mul\n      dup2\n      add\n      dup6\n      add\n      swap1\n      swap4\n      mstore\n      dup1\n      dup4\n      mstore\n      swap2\n      swap3\n        /* \"contracts/Market.sol\":3134:3148  betPairs[_bet] */\n      swap1\n      swap2\n        /* \"contracts/Market.sol\":3108:3148  bytes32[] memory _pairs = betPairs[_bet] */\n      swap1\n      dup4\n      add\n        /* \"contracts/Market.sol\":3134:3148  betPairs[_bet] */\n      dup3\n        /* \"contracts/Market.sol\":3108:3148  bytes32[] memory _pairs = betPairs[_bet] */\n      dup3\n      dup1\n      iszero\n      tag_107\n      jumpi\n      0x20\n      mul\n      dup3\n      add\n      swap2\n      swap1\n      0x00\n      mstore\n      keccak256(0x00, 0x20)\n      swap1\n    tag_108:\n      dup2\n      sload\n      dup2\n      mstore\n      0x20\n      add\n      swap1\n      0x01\n      add\n      swap1\n      dup1\n      dup4\n      gt\n      tag_108\n      jumpi\n    tag_107:\n      pop\n      pop\n      pop\n      pop\n      pop\n      swap1\n      pop\n        /* \"contracts/Market.sol\":3162:3168  uint i */\n      0x00\n        /* \"contracts/Market.sol\":3158:3244  for(uint i = 0; i < _pairs.length; i++){... */\n    tag_109:\n        /* \"contracts/Market.sol\":3178:3184  _pairs */\n      dup2\n        /* \"contracts/Market.sol\":3178:3191  _pairs.length */\n      mload\n        /* \"contracts/Market.sol\":3174:3175  i */\n      dup2\n        /* \"contracts/Market.sol\":3174:3191  i < _pairs.length */\n      lt\n        /* \"contracts/Market.sol\":3158:3244  for(uint i = 0; i < _pairs.length; i++){... */\n      iszero\n      tag_110\n      jumpi\n        /* \"contracts/Market.sol\":3211:3233  _settlePair(_pairs[i]) */\n      tag_112\n        /* \"contracts/Market.sol\":3223:3229  _pairs */\n      dup3\n        /* \"contracts/Market.sol\":3230:3231  i */\n      dup3\n        /* \"contracts/Market.sol\":3223:3232  _pairs[i] */\n      dup2\n      mload\n      dup2\n      lt\n      tag_114\n      jumpi\n      tag_114\n      tag_76\n      jump\t// in\n    tag_114:\n      0x20\n      mul\n      0x20\n      add\n      add\n      mload\n        /* \"contracts/Market.sol\":3211:3222  _settlePair */\n      tag_115\n        /* \"contracts/Market.sol\":3211:3233  _settlePair(_pairs[i]) */\n      jump\t// in\n    tag_112:\n        /* \"contracts/Market.sol\":3193:3196  i++ */\n      dup1\n      tag_116\n      dup2\n      tag_80\n      jump\t// in\n    tag_116:\n      swap2\n      pop\n      pop\n        /* \"contracts/Market.sol\":3158:3244  for(uint i = 0; i < _pairs.length; i++){... */\n      jump(tag_109)\n    tag_110:\n      pop\n        /* \"contracts/Market.sol\":3260:3270  msg.sender */\n      caller\n        /* \"contracts/Market.sol\":3274:3275  0 */\n      0x00\n        /* \"contracts/Market.sol\":3256:3271  bal[msg.sender] */\n      mstore\n        /* \"contracts/Market.sol\":3256:3259  bal */\n      0x06\n        /* \"contracts/Market.sol\":3256:3271  bal[msg.sender] */\n      0x20\n      mstore\n        /* \"contracts/Market.sol\":3098:3294  {... */\n      pop\n        /* \"contracts/Market.sol\":3047:3294  function settleBet(bytes32 _bet) external override {... */\n      pop\n      jump\t// out\n        /* \"contracts/Market.sol\":3644:3889  function cancelMarket() external override onlyFactory returns(bool) ... */\n    tag_36:\n        /* \"contracts/Market.sol\":1245:1252  factory */\n      sload(0x01)\n        /* \"contracts/Market.sol\":3706:3710  bool */\n      0x00\n      swap1\n      sub(shl(0xa0, 0x01), 0x01)\n        /* \"contracts/Market.sol\":1245:1252  factory */\n      and\n        /* \"contracts/Market.sol\":1231:1241  msg.sender */\n      caller\n        /* \"contracts/Market.sol\":1231:1252  msg.sender == factory */\n      eq\n        /* \"contracts/Market.sol\":1210:1285  require(... */\n      tag_119\n      jumpi\n      mload(0x40)\n      shl(0xe5, 0x461bcd)\n      dup2\n      mstore\n        /* \"#utility.yul\":6484:6486   */\n      0x20\n        /* \"contracts/Market.sol\":1210:1285  require(... */\n      0x04\n      dup3\n      add\n        /* \"#utility.yul\":6466:6487   */\n      mstore\n        /* \"#utility.yul\":6523:6524   */\n      0x07\n        /* \"#utility.yul\":6503:6521   */\n      0x24\n      dup3\n      add\n        /* \"#utility.yul\":6496:6525   */\n      mstore\n      shl(0xc8, 0x6f776e6572206f)\n        /* \"#utility.yul\":6541:6559   */\n      0x44\n      dup3\n      add\n        /* \"#utility.yul\":6534:6571   */\n      mstore\n        /* \"#utility.yul\":6588:6606   */\n      0x64\n      add\n        /* \"contracts/Market.sol\":1210:1285  require(... */\n      tag_83\n        /* \"#utility.yul\":6282:6612   */\n      jump\n        /* \"contracts/Market.sol\":1210:1285  require(... */\n    tag_119:\n        /* \"contracts/Market.sol\":3736:3742  status */\n      sload(0x05)\n        /* \"contracts/Market.sol\":3736:3747  status == 0 */\n      iszero\n        /* \"contracts/Market.sol\":3728:3748  require(status == 0) */\n      tag_123\n      jumpi\n      0x00\n      dup1\n      revert\n    tag_123:\n        /* \"contracts/Market.sol\":3762:3768  uint i */\n      0x00\n        /* \"contracts/Market.sol\":3758:3842  for(uint i = 0; i < pairs.length; i++){... */\n    tag_124:\n        /* \"contracts/Market.sol\":3778:3783  pairs */\n      0x02\n        /* \"contracts/Market.sol\":3778:3790  pairs.length */\n      sload\n        /* \"contracts/Market.sol\":3774:3790  i < pairs.length */\n      dup2\n      lt\n        /* \"contracts/Market.sol\":3758:3842  for(uint i = 0; i < pairs.length; i++){... */\n      iszero\n      tag_125\n      jumpi\n        /* \"contracts/Market.sol\":3810:3831  _cancelPair(pairs[i]) */\n      tag_127\n        /* \"contracts/Market.sol\":3822:3827  pairs */\n      0x02\n        /* \"contracts/Market.sol\":3828:3829  i */\n      dup3\n        /* \"contracts/Market.sol\":3822:3830  pairs[i] */\n      dup2\n      sload\n      dup2\n      lt\n      tag_129\n      jumpi\n      tag_129\n      tag_76\n      jump\t// in\n    tag_129:\n      swap1\n      0x00\n      mstore\n      keccak256(0x00, 0x20)\n      add\n      sload\n        /* \"contracts/Market.sol\":3810:3821  _cancelPair */\n      tag_131\n        /* \"contracts/Market.sol\":3810:3831  _cancelPair(pairs[i]) */\n      jump\t// in\n    tag_127:\n        /* \"contracts/Market.sol\":3792:3795  i++ */\n      dup1\n      tag_132\n      dup2\n      tag_80\n      jump\t// in\n    tag_132:\n      swap2\n      pop\n      pop\n        /* \"contracts/Market.sol\":3758:3842  for(uint i = 0; i < pairs.length; i++){... */\n      jump(tag_124)\n    tag_125:\n      pop\n      pop\n        /* \"contracts/Market.sol\":3860:3861  3 */\n      0x03\n        /* \"contracts/Market.sol\":3851:3857  status */\n      0x05\n        /* \"contracts/Market.sol\":3851:3861  status = 3 */\n      sstore\n        /* \"contracts/Market.sol\":3878:3882  true */\n      0x01\n        /* \"contracts/Market.sol\":3644:3889  function cancelMarket() external override onlyFactory returns(bool) ... */\n      swap1\n      jump\t// out\n        /* \"contracts/Market.sol\":3895:7725  function addBet(... */\n    tag_41:\n        /* \"contracts/Market.sol\":4121:4144  app.isBlack(msg.sender) */\n      mload(0x40)\n      shl(0xe0, 0x332daccf)\n      dup2\n      mstore\n        /* \"contracts/Market.sol\":4133:4143  msg.sender */\n      caller\n        /* \"contracts/Market.sol\":4121:4144  app.isBlack(msg.sender) */\n      0x04\n      dup3\n      add\n        /* \"#utility.yul\":3504:3555   */\n      mstore\n        /* \"contracts/Market.sol\":4089:4096  bytes32 */\n      0x00\n      swap1\n        /* \"contracts/Market.sol\":4121:4124  app */\n      immutable(\"0xb7700257a9e4b89511ea592d7ef488a6959d733cec4df010484e5af3e427a407\")\n      sub(shl(0xa0, 0x01), 0x01)\n        /* \"contracts/Market.sol\":4121:4132  app.isBlack */\n      and\n      swap1\n      0x332daccf\n      swap1\n        /* \"#utility.yul\":3477:3495   */\n      0x24\n      add\n        /* \"contracts/Market.sol\":4121:4144  app.isBlack(msg.sender) */\n      0x20\n      mload(0x40)\n      dup1\n      dup4\n      sub\n      dup2\n      dup7\n      gas\n      staticcall\n      iszero\n      dup1\n      iszero\n      tag_136\n      jumpi\n      returndatasize\n      0x00\n      dup1\n      returndatacopy\n      revert(0x00, returndatasize)\n    tag_136:\n      pop\n      pop\n      pop\n      pop\n      mload(0x40)\n      returndatasize\n      not(0x1f)\n      0x1f\n      dup3\n      add\n      and\n      dup3\n      add\n      dup1\n      0x40\n      mstore\n      pop\n      dup2\n      add\n      swap1\n      tag_137\n      swap2\n      swap1\n      tag_100\n      jump\t// in\n    tag_137:\n        /* \"contracts/Market.sol\":4120:4144  !app.isBlack(msg.sender) */\n      iszero\n        /* \"contracts/Market.sol\":4112:4158  require(!app.isBlack(msg.sender), \"blacklist\") */\n      tag_138\n      jumpi\n      mload(0x40)\n      shl(0xe5, 0x461bcd)\n      dup2\n      mstore\n        /* \"#utility.yul\":6819:6821   */\n      0x20\n        /* \"contracts/Market.sol\":4112:4158  require(!app.isBlack(msg.sender), \"blacklist\") */\n      0x04\n      dup3\n      add\n        /* \"#utility.yul\":6801:6822   */\n      mstore\n        /* \"#utility.yul\":6858:6859   */\n      0x09\n        /* \"#utility.yul\":6838:6856   */\n      0x24\n      dup3\n      add\n        /* \"#utility.yul\":6831:6860   */\n      mstore\n      shl(0xba, 0x189b1858dadb1a5cdd)\n        /* \"#utility.yul\":6876:6894   */\n      0x44\n      dup3\n      add\n        /* \"#utility.yul\":6869:6908   */\n      mstore\n        /* \"#utility.yul\":6925:6943   */\n      0x64\n      add\n        /* \"contracts/Market.sol\":4112:4158  require(!app.isBlack(msg.sender), \"blacklist\") */\n      tag_83\n        /* \"#utility.yul\":6617:6949   */\n      jump\n        /* \"contracts/Market.sol\":4112:4158  require(!app.isBlack(msg.sender), \"blacklist\") */\n    tag_138:\n        /* \"contracts/Market.sol\":4176:4181  _side */\n      dup3\n        /* \"contracts/Market.sol\":4185:4186  1 */\n      0x01\n        /* \"contracts/Market.sol\":4176:4186  _side == 1 */\n      eq\n        /* \"contracts/Market.sol\":4176:4200  _side == 1 || _side == 2 */\n      dup1\n      tag_141\n      jumpi\n      pop\n        /* \"contracts/Market.sol\":4190:4195  _side */\n      dup3\n        /* \"contracts/Market.sol\":4199:4200  2 */\n      0x02\n        /* \"contracts/Market.sol\":4190:4200  _side == 2 */\n      eq\n        /* \"contracts/Market.sol\":4176:4200  _side == 1 || _side == 2 */\n    tag_141:\n        /* \"contracts/Market.sol\":4168:4217  require(_side == 1 || _side == 2, \"invalid side\") */\n      tag_142\n      jumpi\n      mload(0x40)\n      shl(0xe5, 0x461bcd)\n      dup2\n      mstore\n        /* \"#utility.yul\":7156:7158   */\n      0x20\n        /* \"contracts/Market.sol\":4168:4217  require(_side == 1 || _side == 2, \"invalid side\") */\n      0x04\n      dup3\n      add\n        /* \"#utility.yul\":7138:7159   */\n      mstore\n        /* \"#utility.yul\":7195:7197   */\n      0x0c\n        /* \"#utility.yul\":7175:7193   */\n      0x24\n      dup3\n      add\n        /* \"#utility.yul\":7168:7198   */\n      mstore\n      shl(0xa0, 0x696e76616c69642073696465)\n        /* \"#utility.yul\":7214:7232   */\n      0x44\n      dup3\n      add\n        /* \"#utility.yul\":7207:7249   */\n      mstore\n        /* \"#utility.yul\":7266:7284   */\n      0x64\n      add\n        /* \"contracts/Market.sol\":4168:4217  require(_side == 1 || _side == 2, \"invalid side\") */\n      tag_83\n        /* \"#utility.yul\":6954:7290   */\n      jump\n        /* \"contracts/Market.sol\":4168:4217  require(_side == 1 || _side == 2, \"invalid side\") */\n    tag_142:\n        /* \"contracts/Market.sol\":4227:4242  bytes32 betHash */\n      0x00\n        /* \"contracts/Market.sol\":4245:4301  _createBet(_better, _affiliate, _stake, 0, _odds, _side) */\n      tag_145\n        /* \"contracts/Market.sol\":4256:4263  _better */\n      dup9\n        /* \"contracts/Market.sol\":4265:4275  _affiliate */\n      dup9\n        /* \"contracts/Market.sol\":4277:4283  _stake */\n      dup9\n        /* \"contracts/Market.sol\":4285:4286  0 */\n      0x00\n        /* \"contracts/Market.sol\":4288:4293  _odds */\n      dup10\n        /* \"contracts/Market.sol\":4295:4300  _side */\n      dup10\n        /* \"contracts/Market.sol\":4245:4255  _createBet */\n      tag_146\n        /* \"contracts/Market.sol\":4245:4301  _createBet(_better, _affiliate, _stake, 0, _odds, _side) */\n      jump\t// in\n    tag_145:\n        /* \"contracts/Market.sol\":4533:4544  pendingBets */\n      0x04\n        /* \"contracts/Market.sol\":4533:4551  pendingBets.length */\n      sload\n        /* \"contracts/Market.sol\":4227:4301  bytes32 betHash = _createBet(_better, _affiliate, _stake, 0, _odds, _side) */\n      swap1\n      swap2\n      pop\n        /* \"contracts/Market.sol\":4533:4555  pendingBets.length > 0 */\n      iszero\n        /* \"contracts/Market.sol\":4530:7612  if(pendingBets.length > 0){... */\n      tag_147\n      jumpi\n        /* \"contracts/Market.sol\":4587:4593  _stake */\n      dup6\n        /* \"contracts/Market.sol\":4607:7538  while(_remStake >= 1 * 10 ** 18){... */\n    tag_148:\n        /* \"contracts/Market.sol\":4626:4638  1 * 10 ** 18 */\n      0x0de0b6b3a7640000\n        /* \"contracts/Market.sol\":4613:4622  _remStake */\n      dup2\n        /* \"contracts/Market.sol\":4613:4638  _remStake >= 1 * 10 ** 18 */\n      lt\n        /* \"contracts/Market.sol\":4607:7538  while(_remStake >= 1 * 10 ** 18){... */\n      tag_149\n      jumpi\n        /* \"contracts/Market.sol\":4657:4675  uint selectedIndex */\n      0x00\n        /* \"contracts/Market.sol\":4697:4712  uint256 maxOdds */\n      dup1\n        /* \"contracts/Market.sol\":4738:4744  uint i */\n      0x00\n        /* \"contracts/Market.sol\":4734:5131  for(uint i = 0; i < pendingBets.length; i++){... */\n    tag_150:\n        /* \"contracts/Market.sol\":4754:4765  pendingBets */\n      0x04\n        /* \"contracts/Market.sol\":4754:4772  pendingBets.length */\n      sload\n        /* \"contracts/Market.sol\":4750:4772  i < pendingBets.length */\n      dup2\n      lt\n        /* \"contracts/Market.sol\":4734:5131  for(uint i = 0; i < pendingBets.length; i++){... */\n      iszero\n      tag_151\n      jumpi\n        /* \"contracts/Market.sol\":4800:4812  bytes32 pBet */\n      0x00\n        /* \"contracts/Market.sol\":4815:4826  pendingBets */\n      0x04\n        /* \"contracts/Market.sol\":4827:4828  i */\n      dup3\n        /* \"contracts/Market.sol\":4815:4829  pendingBets[i] */\n      dup2\n      sload\n      dup2\n      lt\n      tag_154\n      jumpi\n      tag_154\n      tag_76\n      jump\t// in\n    tag_154:\n      swap1\n      0x00\n      mstore\n      keccak256(0x00, 0x20)\n      add\n      sload\n        /* \"contracts/Market.sol\":4800:4829  bytes32 pBet = pendingBets[i] */\n      swap1\n      pop\n        /* \"contracts/Market.sol\":4863:4871  betsInfo */\n      0x07\n        /* \"contracts/Market.sol\":4863:4877  betsInfo[pBet] */\n      0x00\n        /* \"contracts/Market.sol\":4872:4876  pBet */\n      dup3\n        /* \"contracts/Market.sol\":4863:4877  betsInfo[pBet] */\n      dup2\n      mstore\n      0x20\n      add\n      swap1\n      dup2\n      mstore\n      0x20\n      add\n      0x00\n      keccak256\n        /* \"contracts/Market.sol\":4863:4882  betsInfo[pBet].side */\n      0x05\n      add\n      sload\n        /* \"contracts/Market.sol\":4854:4859  _side */\n      dup10\n        /* \"contracts/Market.sol\":4854:4882  _side == betsInfo[pBet].side */\n      sub\n        /* \"contracts/Market.sol\":4851:4940  if(_side == betsInfo[pBet].side){... */\n      tag_156\n      jumpi\n        /* \"contracts/Market.sol\":4909:4917  continue */\n      pop\n      jump(tag_152)\n        /* \"contracts/Market.sol\":4851:4940  if(_side == betsInfo[pBet].side){... */\n    tag_156:\n        /* \"contracts/Market.sol\":4964:4978  betsInfo[pBet] */\n      0x00\n      dup2\n      dup2\n      mstore\n        /* \"contracts/Market.sol\":4964:4972  betsInfo */\n      0x07\n        /* \"contracts/Market.sol\":4964:4978  betsInfo[pBet] */\n      0x20\n      mstore\n      0x40\n      swap1\n      keccak256\n        /* \"contracts/Market.sol\":4964:4983  betsInfo[pBet].odds */\n      0x04\n      add\n      sload\n        /* \"contracts/Market.sol\":4964:4991  betsInfo[pBet].odds>maxOdds */\n      dup4\n      lt\n        /* \"contracts/Market.sol\":4961:5113  if(betsInfo[pBet].odds>maxOdds){... */\n      iszero\n      tag_157\n      jumpi\n        /* \"contracts/Market.sol\":5028:5042  betsInfo[pBet] */\n      0x00\n      dup2\n      dup2\n      mstore\n        /* \"contracts/Market.sol\":5028:5036  betsInfo */\n      0x07\n        /* \"contracts/Market.sol\":5028:5042  betsInfo[pBet] */\n      0x20\n      mstore\n      0x40\n      swap1\n      keccak256\n        /* \"contracts/Market.sol\":5028:5047  betsInfo[pBet].odds */\n      0x04\n      add\n      sload\n        /* \"contracts/Market.sol\":5089:5090  i */\n      swap2\n      swap4\n      pop\n        /* \"contracts/Market.sol\":5028:5047  betsInfo[pBet].odds */\n      swap1\n      swap2\n      pop\n        /* \"contracts/Market.sol\":5089:5090  i */\n      dup3\n      swap1\n        /* \"contracts/Market.sol\":4961:5113  if(betsInfo[pBet].odds>maxOdds){... */\n    tag_157:\n        /* \"contracts/Market.sol\":4778:5131  {... */\n      pop\n        /* \"contracts/Market.sol\":4734:5131  for(uint i = 0; i < pendingBets.length; i++){... */\n    tag_152:\n        /* \"contracts/Market.sol\":4774:4777  i++ */\n      dup1\n      tag_158\n      dup2\n      tag_80\n      jump\t// in\n    tag_158:\n      swap2\n      pop\n      pop\n        /* \"contracts/Market.sol\":4734:5131  for(uint i = 0; i < pendingBets.length; i++){... */\n      jump(tag_150)\n    tag_151:\n      pop\n        /* \"contracts/Market.sol\":5161:5166  _odds */\n      dup8\n        /* \"contracts/Market.sol\":5151:5158  maxOdds */\n      dup2\n        /* \"contracts/Market.sol\":5151:5166  maxOdds > _odds */\n      gt\n        /* \"contracts/Market.sol\":5151:5178  maxOdds > _odds || _instant */\n      dup1\n      tag_159\n      jumpi\n      pop\n        /* \"contracts/Market.sol\":5170:5178  _instant */\n      dup6\n        /* \"contracts/Market.sol\":5151:5178  maxOdds > _odds || _instant */\n    tag_159:\n        /* \"contracts/Market.sol\":5148:7524  if(maxOdds > _odds || _instant) {... */\n      iszero\n      tag_160\n      jumpi\n        /* \"contracts/Market.sol\":5202:5222  bytes32 selectedHash */\n      0x00\n        /* \"contracts/Market.sol\":5225:5236  pendingBets */\n      0x04\n        /* \"contracts/Market.sol\":5237:5250  selectedIndex */\n      dup4\n        /* \"contracts/Market.sol\":5225:5251  pendingBets[selectedIndex] */\n      dup2\n      sload\n      dup2\n      lt\n      tag_162\n      jumpi\n      tag_162\n      tag_76\n      jump\t// in\n    tag_162:\n      0x00\n      swap2\n      dup3\n      mstore\n      0x20\n      dup1\n      dup4\n      keccak256\n      swap1\n      swap2\n      add\n      sload\n        /* \"contracts/Market.sol\":5304:5326  betsInfo[selectedHash] */\n      dup1\n      dup4\n      mstore\n        /* \"contracts/Market.sol\":5304:5312  betsInfo */\n      0x07\n        /* \"contracts/Market.sol\":5304:5326  betsInfo[selectedHash] */\n      dup3\n      mstore\n      0x40\n      dup1\n      dup5\n      keccak256\n        /* \"contracts/Market.sol\":5273:5326  MarketBet memory selectedBet = betsInfo[selectedHash] */\n      dup2\n      mload\n      0xc0\n      dup2\n      add\n      dup4\n      mstore\n      dup2\n      sload\n      sub(shl(0xa0, 0x01), 0x01)\n      swap1\n      dup2\n      and\n      dup3\n      mstore\n      0x01\n      dup1\n      dup5\n      add\n      sload\n      swap1\n      swap2\n      and\n      swap6\n      dup3\n      add\n      swap6\n      swap1\n      swap6\n      mstore\n      0x02\n      dup3\n      add\n      sload\n      swap3\n      dup2\n      add\n      swap3\n      swap1\n      swap3\n      mstore\n      0x03\n      dup2\n      add\n      sload\n      0x60\n      dup4\n      add\n      mstore\n      0x04\n      dup2\n      add\n      sload\n      0x80\n      dup4\n      add\n      mstore\n      0x05\n      add\n      sload\n      0xa0\n      dup3\n      add\n      mstore\n        /* \"contracts/Market.sol\":5225:5251  pendingBets[selectedIndex] */\n      swap1\n      swap4\n      pop\n        /* \"contracts/Market.sol\":5273:5326  MarketBet memory selectedBet = betsInfo[selectedHash] */\n      swap2\n        /* \"contracts/Market.sol\":5225:5251  pendingBets[selectedIndex] */\n      swap1\n        /* \"contracts/Market.sol\":5413:5422  _odds - 1 */\n      tag_164\n      swap1\n        /* \"contracts/Market.sol\":5413:5418  _odds */\n      dup13\n        /* \"contracts/Market.sol\":5413:5422  _odds - 1 */\n      tag_105\n      jump\t// in\n    tag_164:\n        /* \"contracts/Market.sol\":5389:5400  selectedBet */\n      dup3\n        /* \"contracts/Market.sol\":5389:5408  selectedBet.matched */\n      0x60\n      add\n      mload\n        /* \"contracts/Market.sol\":5369:5380  selectedBet */\n      dup4\n        /* \"contracts/Market.sol\":5369:5386  selectedBet.stake */\n      0x40\n      add\n      mload\n        /* \"contracts/Market.sol\":5369:5408  selectedBet.stake - selectedBet.matched */\n      tag_165\n      swap2\n      swap1\n      tag_105\n      jump\t// in\n    tag_165:\n        /* \"contracts/Market.sol\":5368:5423  (selectedBet.stake - selectedBet.matched) / (_odds - 1) */\n      tag_166\n      swap2\n      swap1\n      tag_167\n      jump\t// in\n    tag_166:\n        /* \"contracts/Market.sol\":5348:5423  uint offeredStake = (selectedBet.stake - selectedBet.matched) / (_odds - 1) */\n      swap1\n      pop\n        /* \"contracts/Market.sol\":5445:5462  uint betterAmount */\n      0x00\n        /* \"contracts/Market.sol\":5484:5500  uint makerAmount */\n      dup1\n        /* \"contracts/Market.sol\":5522:5538  bytes32 pairHash */\n      0x00\n        /* \"contracts/Market.sol\":5579:5585  _stake */\n      dup15\n        /* \"contracts/Market.sol\":5563:5575  offeredStake */\n      dup5\n        /* \"contracts/Market.sol\":5563:5585  offeredStake <= _stake */\n      gt\n        /* \"contracts/Market.sol\":5560:6927  if(offeredStake <= _stake) {... */\n      tag_168\n      jumpi\n        /* \"contracts/Market.sol\":5628:5640  offeredStake */\n      dup4\n      swap3\n      pop\n        /* \"contracts/Market.sol\":5696:5705  _odds - 1 */\n      tag_169\n        /* \"contracts/Market.sol\":5704:5705  1 */\n      0x01\n        /* \"contracts/Market.sol\":5696:5701  _odds */\n      dup16\n        /* \"contracts/Market.sol\":5696:5705  _odds - 1 */\n      tag_105\n      jump\t// in\n    tag_169:\n        /* \"contracts/Market.sol\":5680:5706  offeredStake * (_odds - 1) */\n      tag_170\n      swap1\n        /* \"contracts/Market.sol\":5680:5692  offeredStake */\n      dup6\n        /* \"contracts/Market.sol\":5680:5706  offeredStake * (_odds - 1) */\n      tag_171\n      jump\t// in\n    tag_170:\n        /* \"contracts/Market.sol\":5666:5706  makerAmount = offeredStake * (_odds - 1) */\n      swap2\n      pop\n        /* \"contracts/Market.sol\":5735:5740  _side */\n      dup13\n        /* \"contracts/Market.sol\":5744:5745  1 */\n      0x01\n        /* \"contracts/Market.sol\":5735:5745  _side == 1 */\n      sub\n        /* \"contracts/Market.sol\":5732:6228  if(_side == 1){... */\n      tag_172\n      jumpi\n        /* \"contracts/Market.sol\":5787:5845  _createPair(betHash,selectedHash,betterAmount,makerAmount) */\n      tag_173\n        /* \"contracts/Market.sol\":5799:5806  betHash */\n      dup11\n        /* \"contracts/Market.sol\":5807:5819  selectedHash */\n      dup8\n        /* \"contracts/Market.sol\":5820:5832  betterAmount */\n      dup6\n        /* \"contracts/Market.sol\":5833:5844  makerAmount */\n      dup6\n        /* \"contracts/Market.sol\":5787:5798  _createPair */\n      tag_174\n        /* \"contracts/Market.sol\":5787:5845  _createPair(betHash,selectedHash,betterAmount,makerAmount) */\n      jump\t// in\n    tag_173:\n        /* \"contracts/Market.sol\":5880:5938  PairCreated(betHash,selectedHash,betterAmount,makerAmount) */\n      0x40\n      dup1\n      mload\n        /* \"#utility.yul\":7921:7946   */\n      dup13\n      dup2\n      mstore\n        /* \"#utility.yul\":7977:7979   */\n      0x20\n        /* \"#utility.yul\":7962:7980   */\n      dup2\n      add\n        /* \"#utility.yul\":7955:7989   */\n      dup10\n      swap1\n      mstore\n        /* \"#utility.yul\":8005:8023   */\n      swap1\n      dup2\n      add\n        /* \"#utility.yul\":7998:8032   */\n      dup6\n      swap1\n      mstore\n        /* \"#utility.yul\":8063:8065   */\n      0x60\n        /* \"#utility.yul\":8048:8066   */\n      dup2\n      add\n        /* \"#utility.yul\":8041:8075   */\n      dup5\n      swap1\n      mstore\n        /* \"contracts/Market.sol\":5776:5845  pairHash = _createPair(betHash,selectedHash,betterAmount,makerAmount) */\n      swap1\n      swap2\n      pop\n        /* \"contracts/Market.sol\":5880:5938  PairCreated(betHash,selectedHash,betterAmount,makerAmount) */\n      0x5de48bb383b4a2aaad84721b80d93429b813651b0eefbd59d32018cfe28215dc\n      swap1\n        /* \"#utility.yul\":7908:7911   */\n      0x80\n        /* \"#utility.yul\":7893:7912   */\n      add\n        /* \"contracts/Market.sol\":5880:5938  PairCreated(betHash,selectedHash,betterAmount,makerAmount) */\n    tag_175:\n      mload(0x40)\n      dup1\n      swap2\n      sub\n      swap1\n      log1\n        /* \"contracts/Market.sol\":5560:6927  if(offeredStake <= _stake) {... */\n      jump(tag_188)\n        /* \"contracts/Market.sol\":5732:6228  if(_side == 1){... */\n    tag_172:\n        /* \"contracts/Market.sol\":5998:6003  _side */\n      dup13\n        /* \"contracts/Market.sol\":6007:6008  2 */\n      0x02\n        /* \"contracts/Market.sol\":5998:6008  _side == 2 */\n      sub\n        /* \"contracts/Market.sol\":5995:6228  if(_side == 2){... */\n      tag_178\n      jumpi\n        /* \"contracts/Market.sol\":6050:6108  _createPair(selectedHash,betHash,makerAmount,betterAmount) */\n      tag_179\n        /* \"contracts/Market.sol\":6062:6074  selectedHash */\n      dup7\n        /* \"contracts/Market.sol\":6075:6082  betHash */\n      dup12\n        /* \"contracts/Market.sol\":6083:6094  makerAmount */\n      dup5\n        /* \"contracts/Market.sol\":6095:6107  betterAmount */\n      dup7\n        /* \"contracts/Market.sol\":6050:6061  _createPair */\n      tag_174\n        /* \"contracts/Market.sol\":6050:6108  _createPair(selectedHash,betHash,makerAmount,betterAmount) */\n      jump\t// in\n    tag_179:\n        /* \"contracts/Market.sol\":6143:6201  PairCreated(selectedHash,betHash,makerAmount,betterAmount) */\n      0x40\n      dup1\n      mload\n        /* \"#utility.yul\":7921:7946   */\n      dup9\n      dup2\n      mstore\n        /* \"#utility.yul\":7977:7979   */\n      0x20\n        /* \"#utility.yul\":7962:7980   */\n      dup2\n      add\n        /* \"#utility.yul\":7955:7989   */\n      dup14\n      swap1\n      mstore\n        /* \"#utility.yul\":8005:8023   */\n      swap1\n      dup2\n      add\n        /* \"#utility.yul\":7998:8032   */\n      dup5\n      swap1\n      mstore\n        /* \"#utility.yul\":8063:8065   */\n      0x60\n        /* \"#utility.yul\":8048:8066   */\n      dup2\n      add\n        /* \"#utility.yul\":8041:8075   */\n      dup6\n      swap1\n      mstore\n        /* \"contracts/Market.sol\":6039:6108  pairHash = _createPair(selectedHash,betHash,makerAmount,betterAmount) */\n      swap1\n      swap2\n      pop\n        /* \"contracts/Market.sol\":6143:6201  PairCreated(selectedHash,betHash,makerAmount,betterAmount) */\n      0x5de48bb383b4a2aaad84721b80d93429b813651b0eefbd59d32018cfe28215dc\n      swap1\n        /* \"#utility.yul\":7908:7911   */\n      0x80\n        /* \"#utility.yul\":7893:7912   */\n      add\n        /* \"contracts/Market.sol\":6143:6201  PairCreated(selectedHash,betHash,makerAmount,betterAmount) */\n      tag_175\n        /* \"#utility.yul\":7690:8081   */\n      jump\n        /* \"contracts/Market.sol\":5995:6228  if(_side == 2){... */\n    tag_178:\n        /* \"contracts/Market.sol\":5560:6927  if(offeredStake <= _stake) {... */\n      jump(tag_188)\n    tag_168:\n        /* \"contracts/Market.sol\":6317:6323  _stake */\n      dup15\n      swap3\n      pop\n        /* \"contracts/Market.sol\":6373:6382  _odds - 1 */\n      tag_182\n        /* \"contracts/Market.sol\":6381:6382  1 */\n      0x01\n        /* \"contracts/Market.sol\":6373:6378  _odds */\n      dup16\n        /* \"contracts/Market.sol\":6373:6382  _odds - 1 */\n      tag_105\n      jump\t// in\n    tag_182:\n        /* \"contracts/Market.sol\":6363:6369  _stake */\n      dup16\n        /* \"contracts/Market.sol\":6363:6383  _stake * (_odds - 1) */\n      tag_183\n      swap2\n      swap1\n      tag_171\n      jump\t// in\n    tag_183:\n        /* \"contracts/Market.sol\":6349:6383  makerAmount = _stake * (_odds - 1) */\n      swap2\n      pop\n        /* \"contracts/Market.sol\":6412:6417  _side */\n      dup13\n        /* \"contracts/Market.sol\":6421:6422  1 */\n      0x01\n        /* \"contracts/Market.sol\":6412:6422  _side == 1 */\n      sub\n        /* \"contracts/Market.sol\":6409:6905  if(_side == 1){... */\n      tag_184\n      jumpi\n        /* \"contracts/Market.sol\":6464:6522  _createPair(betHash,selectedHash,betterAmount,makerAmount) */\n      tag_173\n        /* \"contracts/Market.sol\":6476:6483  betHash */\n      dup11\n        /* \"contracts/Market.sol\":6484:6496  selectedHash */\n      dup8\n        /* \"contracts/Market.sol\":6497:6509  betterAmount */\n      dup6\n        /* \"contracts/Market.sol\":6510:6521  makerAmount */\n      dup6\n        /* \"contracts/Market.sol\":6464:6475  _createPair */\n      tag_174\n        /* \"contracts/Market.sol\":6464:6522  _createPair(betHash,selectedHash,betterAmount,makerAmount) */\n      jump\t// in\n        /* \"contracts/Market.sol\":6409:6905  if(_side == 1){... */\n    tag_184:\n        /* \"contracts/Market.sol\":6675:6680  _side */\n      dup13\n        /* \"contracts/Market.sol\":6684:6685  2 */\n      0x02\n        /* \"contracts/Market.sol\":6675:6685  _side == 2 */\n      sub\n        /* \"contracts/Market.sol\":6672:6905  if(_side == 2){... */\n      tag_188\n      jumpi\n        /* \"contracts/Market.sol\":6727:6785  _createPair(selectedHash,betHash,makerAmount,betterAmount) */\n      tag_189\n        /* \"contracts/Market.sol\":6739:6751  selectedHash */\n      dup7\n        /* \"contracts/Market.sol\":6752:6759  betHash */\n      dup12\n        /* \"contracts/Market.sol\":6760:6771  makerAmount */\n      dup5\n        /* \"contracts/Market.sol\":6772:6784  betterAmount */\n      dup7\n        /* \"contracts/Market.sol\":6727:6738  _createPair */\n      tag_174\n        /* \"contracts/Market.sol\":6727:6785  _createPair(selectedHash,betHash,makerAmount,betterAmount) */\n      jump\t// in\n    tag_189:\n        /* \"contracts/Market.sol\":6820:6878  PairCreated(selectedHash,betHash,makerAmount,betterAmount) */\n      0x40\n      dup1\n      mload\n        /* \"#utility.yul\":7921:7946   */\n      dup9\n      dup2\n      mstore\n        /* \"#utility.yul\":7977:7979   */\n      0x20\n        /* \"#utility.yul\":7962:7980   */\n      dup2\n      add\n        /* \"#utility.yul\":7955:7989   */\n      dup14\n      swap1\n      mstore\n        /* \"#utility.yul\":8005:8023   */\n      swap1\n      dup2\n      add\n        /* \"#utility.yul\":7998:8032   */\n      dup5\n      swap1\n      mstore\n        /* \"#utility.yul\":8063:8065   */\n      0x60\n        /* \"#utility.yul\":8048:8066   */\n      dup2\n      add\n        /* \"#utility.yul\":8041:8075   */\n      dup6\n      swap1\n      mstore\n        /* \"contracts/Market.sol\":6716:6785  pairHash = _createPair(selectedHash,betHash,makerAmount,betterAmount) */\n      swap1\n      swap2\n      pop\n        /* \"contracts/Market.sol\":6820:6878  PairCreated(selectedHash,betHash,makerAmount,betterAmount) */\n      0x5de48bb383b4a2aaad84721b80d93429b813651b0eefbd59d32018cfe28215dc\n      swap1\n        /* \"#utility.yul\":7908:7911   */\n      0x80\n        /* \"#utility.yul\":7893:7912   */\n      add\n        /* \"contracts/Market.sol\":6820:6878  PairCreated(selectedHash,betHash,makerAmount,betterAmount) */\n      mload(0x40)\n      dup1\n      swap2\n      sub\n      swap1\n      log1\n        /* \"contracts/Market.sol\":6672:6905  if(_side == 2){... */\n    tag_188:\n        /* \"contracts/Market.sol\":6948:6965  betPairs[betHash] */\n      0x00\n      dup11\n      dup2\n      mstore\n        /* \"contracts/Market.sol\":6948:6956  betPairs */\n      0x0a\n        /* \"contracts/Market.sol\":6948:6965  betPairs[betHash] */\n      0x20\n      swap1\n      dup2\n      mstore\n      0x40\n      dup1\n      dup4\n      keccak256\n        /* \"contracts/Market.sol\":6948:6980  betPairs[betHash].push(pairHash) */\n      dup1\n      sload\n      0x01\n      dup2\n      dup2\n      add\n      dup4\n      sstore\n      swap2\n      dup6\n      mstore\n      dup4\n      dup6\n      keccak256\n      add\n      dup6\n      swap1\n      sstore\n        /* \"contracts/Market.sol\":7002:7024  betPairs[selectedHash] */\n      dup10\n      dup5\n      mstore\n      dup2\n      dup5\n      keccak256\n        /* \"contracts/Market.sol\":7002:7039  betPairs[selectedHash].push(pairHash) */\n      dup1\n      sload\n      swap2\n      dup3\n      add\n      dup2\n      sstore\n      dup5\n      mstore\n      dup3\n      dup5\n      keccak256\n      add\n      dup5\n      swap1\n      sstore\n        /* \"contracts/Market.sol\":7061:7078  betsInfo[betHash] */\n      dup13\n      dup4\n      mstore\n        /* \"contracts/Market.sol\":7061:7069  betsInfo */\n      0x07\n        /* \"contracts/Market.sol\":7061:7078  betsInfo[betHash] */\n      swap1\n      swap2\n      mstore\n      dup2\n      keccak256\n        /* \"contracts/Market.sol\":7061:7086  betsInfo[betHash].matched */\n      0x03\n      add\n        /* \"contracts/Market.sol\":7061:7102  betsInfo[betHash].matched += betterAmount */\n      dup1\n      sload\n        /* \"contracts/Market.sol\":7090:7102  betterAmount */\n      dup6\n      swap3\n        /* \"contracts/Market.sol\":6948:6965  betPairs[betHash] */\n      swap1\n        /* \"contracts/Market.sol\":7061:7102  betsInfo[betHash].matched += betterAmount */\n      tag_193\n      swap1\n        /* \"contracts/Market.sol\":7090:7102  betterAmount */\n      dup5\n      swap1\n        /* \"contracts/Market.sol\":7061:7102  betsInfo[betHash].matched += betterAmount */\n      tag_194\n      jump\t// in\n    tag_193:\n      swap1\n      swap2\n      sstore\n      pop\n      pop\n        /* \"contracts/Market.sol\":7124:7146  betsInfo[selectedHash] */\n      0x00\n      dup7\n      dup2\n      mstore\n        /* \"contracts/Market.sol\":7124:7132  betsInfo */\n      0x07\n        /* \"contracts/Market.sol\":7124:7146  betsInfo[selectedHash] */\n      0x20\n      mstore\n      0x40\n      dup2\n      keccak256\n        /* \"contracts/Market.sol\":7124:7154  betsInfo[selectedHash].matched */\n      0x03\n      add\n        /* \"contracts/Market.sol\":7124:7169  betsInfo[selectedHash].matched += makerAmount */\n      dup1\n      sload\n        /* \"contracts/Market.sol\":7158:7169  makerAmount */\n      dup5\n      swap3\n        /* \"contracts/Market.sol\":7124:7146  betsInfo[selectedHash] */\n      swap1\n        /* \"contracts/Market.sol\":7124:7169  betsInfo[selectedHash].matched += makerAmount */\n      tag_195\n      swap1\n        /* \"contracts/Market.sol\":7158:7169  makerAmount */\n      dup5\n      swap1\n        /* \"contracts/Market.sol\":7124:7169  betsInfo[selectedHash].matched += makerAmount */\n      tag_194\n      jump\t// in\n    tag_195:\n      swap1\n      swap2\n      sstore\n      pop\n      pop\n        /* \"contracts/Market.sol\":7225:7247  betsInfo[selectedHash] */\n      0x00\n      dup7\n      dup2\n      mstore\n        /* \"contracts/Market.sol\":7225:7233  betsInfo */\n      0x07\n        /* \"contracts/Market.sol\":7225:7247  betsInfo[selectedHash] */\n      0x20\n      mstore\n      0x40\n      swap1\n      keccak256\n        /* \"contracts/Market.sol\":7225:7255  betsInfo[selectedHash].matched */\n      0x03\n      dup2\n      add\n      sload\n        /* \"contracts/Market.sol\":7194:7222  betsInfo[selectedHash].stake */\n      0x02\n      swap1\n      swap2\n      add\n      sload\n        /* \"contracts/Market.sol\":7194:7255  betsInfo[selectedHash].stake - betsInfo[selectedHash].matched */\n      tag_196\n      swap2\n        /* \"contracts/Market.sol\":7225:7255  betsInfo[selectedHash].matched */\n      swap1\n        /* \"contracts/Market.sol\":7194:7255  betsInfo[selectedHash].stake - betsInfo[selectedHash].matched */\n      tag_105\n      jump\t// in\n    tag_196:\n        /* \"contracts/Market.sol\":7259:7260  0 */\n      0x00\n        /* \"contracts/Market.sol\":7194:7260  betsInfo[selectedHash].stake - betsInfo[selectedHash].matched == 0 */\n      sub\n        /* \"contracts/Market.sol\":7191:7344  if(betsInfo[selectedHash].stake - betsInfo[selectedHash].matched == 0) {... */\n      tag_197\n      jumpi\n        /* \"contracts/Market.sol\":7295:7306  pendingBets */\n      0x04\n        /* \"contracts/Market.sol\":7307:7320  selectedIndex */\n      dup9\n        /* \"contracts/Market.sol\":7295:7321  pendingBets[selectedIndex] */\n      dup2\n      sload\n      dup2\n      lt\n      tag_199\n      jumpi\n      tag_199\n      tag_76\n      jump\t// in\n    tag_199:\n      0x00\n      swap2\n      dup3\n      mstore\n      0x20\n      dup3\n      keccak256\n      add\n        /* \"contracts/Market.sol\":7288:7321  delete pendingBets[selectedIndex] */\n      sstore\n        /* \"contracts/Market.sol\":7191:7344  if(betsInfo[selectedHash].stake - betsInfo[selectedHash].matched == 0) {... */\n    tag_197:\n        /* \"contracts/Market.sol\":7365:7390  _remStake -= betterAmount */\n      tag_201\n        /* \"contracts/Market.sol\":7378:7390  betterAmount */\n      dup4\n        /* \"contracts/Market.sol\":7365:7390  _remStake -= betterAmount */\n      dup11\n      tag_105\n      jump\t// in\n    tag_201:\n      swap9\n      pop\n        /* \"contracts/Market.sol\":5180:7409  {... */\n      pop\n      pop\n      pop\n      pop\n      pop\n      pop\n        /* \"contracts/Market.sol\":5148:7524  if(maxOdds > _odds || _instant) {... */\n      jump(tag_202)\n    tag_160:\n      pop\n      pop\n        /* \"contracts/Market.sol\":7453:7464  pendingBets */\n      0x04\n        /* \"contracts/Market.sol\":7453:7478  pendingBets.push(betHash) */\n      dup1\n      sload\n      0x01\n      dup2\n      add\n      dup3\n      sstore\n      0x00\n      swap2\n      swap1\n      swap2\n      mstore\n      0x8a35acfbc15ff81a39ae7d344fd709f28e8600b4aa8c65c6b64bfe7fe36bd19b\n      add\n      dup3\n      swap1\n      sstore\n        /* \"contracts/Market.sol\":7500:7505  break */\n      jump(tag_149)\n        /* \"contracts/Market.sol\":5148:7524  if(maxOdds > _odds || _instant) {... */\n    tag_202:\n        /* \"contracts/Market.sol\":4639:7538  {... */\n      pop\n      pop\n        /* \"contracts/Market.sol\":4607:7538  while(_remStake >= 1 * 10 ** 18){... */\n      jump(tag_148)\n    tag_149:\n        /* \"contracts/Market.sol\":4556:7548  {... */\n      pop\n        /* \"contracts/Market.sol\":4530:7612  if(pendingBets.length > 0){... */\n      jump(tag_204)\n    tag_147:\n        /* \"contracts/Market.sol\":7576:7587  pendingBets */\n      0x04\n        /* \"contracts/Market.sol\":7576:7601  pendingBets.push(betHash) */\n      dup1\n      sload\n      0x01\n      dup2\n      add\n      dup3\n      sstore\n      0x00\n      swap2\n      swap1\n      swap2\n      mstore\n      0x8a35acfbc15ff81a39ae7d344fd709f28e8600b4aa8c65c6b64bfe7fe36bd19b\n      add\n      dup2\n      swap1\n      sstore\n        /* \"contracts/Market.sol\":4530:7612  if(pendingBets.length > 0){... */\n    tag_204:\n        /* \"contracts/Market.sol\":7626:7694  BetCreated(msg.sender, address(this), betHash, _stake, _odds, _side) */\n      0x40\n      dup1\n      mload\n        /* \"contracts/Market.sol\":7637:7647  msg.sender */\n      caller\n        /* \"#utility.yul\":8541:8575   */\n      dup2\n      mstore\n        /* \"contracts/Market.sol\":7657:7661  this */\n      address\n        /* \"#utility.yul\":8606:8608   */\n      0x20\n        /* \"#utility.yul\":8591:8609   */\n      dup3\n      add\n        /* \"#utility.yul\":8584:8627   */\n      mstore\n        /* \"#utility.yul\":8643:8661   */\n      swap1\n      dup2\n      add\n        /* \"#utility.yul\":8636:8670   */\n      dup3\n      swap1\n      mstore\n        /* \"#utility.yul\":8701:8703   */\n      0x60\n        /* \"#utility.yul\":8686:8704   */\n      dup2\n      add\n        /* \"#utility.yul\":8679:8713   */\n      dup8\n      swap1\n      mstore\n        /* \"#utility.yul\":8744:8747   */\n      0x80\n        /* \"#utility.yul\":8729:8748   */\n      dup2\n      add\n        /* \"#utility.yul\":8722:8757   */\n      dup7\n      swap1\n      mstore\n        /* \"#utility.yul\":8521:8524   */\n      0xa0\n        /* \"#utility.yul\":8773:8792   */\n      dup2\n      add\n        /* \"#utility.yul\":8766:8801   */\n      dup6\n      swap1\n      mstore\n        /* \"contracts/Market.sol\":7626:7694  BetCreated(msg.sender, address(this), betHash, _stake, _odds, _side) */\n      0x618f358bb45538682ade624a4a1959053d9dabd20fe300508034b879681b37be\n      swap1\n        /* \"#utility.yul\":8490:8493   */\n      0xc0\n        /* \"#utility.yul\":8475:8494   */\n      add\n        /* \"contracts/Market.sol\":7626:7694  BetCreated(msg.sender, address(this), betHash, _stake, _odds, _side) */\n      mload(0x40)\n      dup1\n      swap2\n      sub\n      swap1\n      log1\n        /* \"contracts/Market.sol\":7711:7718  betHash */\n      swap8\n        /* \"contracts/Market.sol\":3895:7725  function addBet(... */\n      swap7\n      pop\n      pop\n      pop\n      pop\n      pop\n      pop\n      pop\n      jump\t// out\n        /* \"contracts/Market.sol\":2535:3041  function cancelPending(bytes32 _bet) external override nonReentrant {... */\n    tag_46:\n        /* \"@openzeppelin/contracts/security/ReentrancyGuard.sol\":1744:1745  2 */\n      0x02\n        /* \"@openzeppelin/contracts/security/ReentrancyGuard.sol\":2325:2332  _status */\n      sload(0x00)\n        /* \"@openzeppelin/contracts/security/ReentrancyGuard.sol\":2325:2344  _status != _ENTERED */\n      sub\n        /* \"@openzeppelin/contracts/security/ReentrancyGuard.sol\":2317:2380  require(_status != _ENTERED, \"ReentrancyGuard: reentrant call\") */\n      tag_209\n      jumpi\n      mload(0x40)\n      shl(0xe5, 0x461bcd)\n      dup2\n      mstore\n      0x04\n      add\n      tag_83\n      swap1\n      tag_84\n      jump\t// in\n    tag_209:\n        /* \"@openzeppelin/contracts/security/ReentrancyGuard.sol\":1744:1745  2 */\n      0x02\n        /* \"@openzeppelin/contracts/security/ReentrancyGuard.sol\":2455:2462  _status */\n      0x00\n        /* \"@openzeppelin/contracts/security/ReentrancyGuard.sol\":2455:2473  _status = _ENTERED */\n      dup2\n      dup2\n      sstore\n        /* \"contracts/Market.sol\":2636:2650  betsInfo[_bet] */\n      dup3\n      dup2\n      mstore\n        /* \"contracts/Market.sol\":2636:2644  betsInfo */\n      0x07\n        /* \"contracts/Market.sol\":2636:2650  betsInfo[_bet] */\n      0x20\n      swap1\n      dup2\n      mstore\n      0x40\n      swap2\n      dup3\n      swap1\n      keccak256\n        /* \"contracts/Market.sol\":2613:2650  MarketBet memory bet = betsInfo[_bet] */\n      dup3\n      mload\n      0xc0\n      dup2\n      add\n      dup5\n      mstore\n      dup2\n      sload\n      sub(shl(0xa0, 0x01), 0x01)\n      swap1\n      dup2\n      and\n      dup1\n      dup4\n      mstore\n      0x01\n      dup5\n      add\n      sload\n      swap1\n      swap2\n      and\n      swap4\n      dup3\n      add\n      swap4\n      swap1\n      swap4\n      mstore\n      swap4\n      dup2\n      add\n      sload\n      swap3\n      dup5\n      add\n      swap3\n      swap1\n      swap3\n      mstore\n      0x03\n      dup3\n      add\n      sload\n      0x60\n      dup5\n      add\n      mstore\n      0x04\n      dup3\n      add\n      sload\n      0x80\n      dup5\n      add\n      mstore\n      0x05\n      swap1\n      swap2\n      add\n      sload\n      0xa0\n      dup4\n      add\n      mstore\n        /* \"contracts/Market.sol\":2668:2678  msg.sender */\n      caller\n        /* \"contracts/Market.sol\":2668:2692  msg.sender == bet.better */\n      eq\n        /* \"contracts/Market.sol\":2660:2711  require(msg.sender == bet.better, \"bet owner only\") */\n      tag_212\n      jumpi\n      mload(0x40)\n      shl(0xe5, 0x461bcd)\n      dup2\n      mstore\n        /* \"#utility.yul\":9014:9016   */\n      0x20\n        /* \"contracts/Market.sol\":2660:2711  require(msg.sender == bet.better, \"bet owner only\") */\n      0x04\n      dup3\n      add\n        /* \"#utility.yul\":8996:9017   */\n      mstore\n        /* \"#utility.yul\":9053:9055   */\n      0x0e\n        /* \"#utility.yul\":9033:9051   */\n      0x24\n      dup3\n      add\n        /* \"#utility.yul\":9026:9056   */\n      mstore\n      shl(0x90, 0x626574206f776e6572206f6e6c79)\n        /* \"#utility.yul\":9072:9090   */\n      0x44\n      dup3\n      add\n        /* \"#utility.yul\":9065:9109   */\n      mstore\n        /* \"#utility.yul\":9126:9144   */\n      0x64\n      add\n        /* \"contracts/Market.sol\":2660:2711  require(msg.sender == bet.better, \"bet owner only\") */\n      tag_83\n        /* \"#utility.yul\":8812:9150   */\n      jump\n        /* \"contracts/Market.sol\":2660:2711  require(msg.sender == bet.better, \"bet owner only\") */\n    tag_212:\n        /* \"contracts/Market.sol\":2721:2734  uint remStake */\n      0x00\n        /* \"contracts/Market.sol\":2749:2752  bet */\n      dup2\n        /* \"contracts/Market.sol\":2749:2760  bet.matched */\n      0x60\n      add\n      mload\n        /* \"contracts/Market.sol\":2737:2740  bet */\n      dup3\n        /* \"contracts/Market.sol\":2737:2746  bet.stake */\n      0x40\n      add\n      mload\n        /* \"contracts/Market.sol\":2737:2760  bet.stake - bet.matched */\n      tag_215\n      swap2\n      swap1\n      tag_105\n      jump\t// in\n    tag_215:\n        /* \"contracts/Market.sol\":2774:2784  bet.better */\n      dup3\n      mload\n      sub(shl(0xa0, 0x01), 0x01)\n        /* \"contracts/Market.sol\":2770:2785  bal[bet.better] */\n      and\n      0x00\n      swap1\n      dup2\n      mstore\n        /* \"contracts/Market.sol\":2770:2773  bal */\n      0x06\n        /* \"contracts/Market.sol\":2770:2785  bal[bet.better] */\n      0x20\n      swap1\n      dup2\n      mstore\n      0x40\n      dup1\n      dup4\n      keccak256\n        /* \"contracts/Market.sol\":2770:2796  bal[bet.better] = remStake */\n      dup5\n      swap1\n      sstore\n        /* \"contracts/Market.sol\":2831:2840  bet.stake */\n      dup1\n      dup7\n      add\n      mload\n        /* \"contracts/Market.sol\":2806:2820  betsInfo[_bet] */\n      dup8\n      dup5\n      mstore\n        /* \"contracts/Market.sol\":2806:2814  betsInfo */\n      0x07\n        /* \"contracts/Market.sol\":2806:2820  betsInfo[_bet] */\n      swap1\n      swap3\n      mstore\n      dup3\n      keccak256\n        /* \"contracts/Market.sol\":2806:2828  betsInfo[_bet].matched */\n      0x03\n      add\n        /* \"contracts/Market.sol\":2806:2840  betsInfo[_bet].matched = bet.stake */\n      sstore\n        /* \"contracts/Market.sol\":2721:2760  uint remStake = bet.stake - bet.matched */\n      swap1\n      swap2\n      pop\n        /* \"contracts/Market.sol\":2886:3035  for(uint i = 0; i < pendingBets.length; i++){... */\n    tag_216:\n        /* \"contracts/Market.sol\":2906:2917  pendingBets */\n      0x04\n        /* \"contracts/Market.sol\":2906:2924  pendingBets.length */\n      sload\n        /* \"contracts/Market.sol\":2902:2924  i < pendingBets.length */\n      dup2\n      lt\n        /* \"contracts/Market.sol\":2886:3035  for(uint i = 0; i < pendingBets.length; i++){... */\n      iszero\n      tag_217\n      jumpi\n        /* \"contracts/Market.sol\":2965:2969  _bet */\n      dup4\n        /* \"contracts/Market.sol\":2947:2958  pendingBets */\n      0x04\n        /* \"contracts/Market.sol\":2959:2960  i */\n      dup3\n        /* \"contracts/Market.sol\":2947:2961  pendingBets[i] */\n      dup2\n      sload\n      dup2\n      lt\n      tag_220\n      jumpi\n      tag_220\n      tag_76\n      jump\t// in\n    tag_220:\n      swap1\n      0x00\n      mstore\n      keccak256(0x00, 0x20)\n      add\n      sload\n        /* \"contracts/Market.sol\":2947:2969  pendingBets[i] == _bet */\n      sub\n        /* \"contracts/Market.sol\":2944:3025  if(pendingBets[i] == _bet) {... */\n      tag_222\n      jumpi\n        /* \"contracts/Market.sol\":2996:3007  pendingBets */\n      0x04\n        /* \"contracts/Market.sol\":3008:3009  i */\n      dup2\n        /* \"contracts/Market.sol\":2996:3010  pendingBets[i] */\n      dup2\n      sload\n      dup2\n      lt\n      tag_224\n      jumpi\n      tag_224\n      tag_76\n      jump\t// in\n    tag_224:\n      0x00\n      swap2\n      dup3\n      mstore\n      0x20\n      dup3\n      keccak256\n      add\n        /* \"contracts/Market.sol\":2989:3010  delete pendingBets[i] */\n      sstore\n        /* \"contracts/Market.sol\":2944:3025  if(pendingBets[i] == _bet) {... */\n    tag_222:\n        /* \"contracts/Market.sol\":2926:2929  i++ */\n      dup1\n      tag_226\n      dup2\n      tag_80\n      jump\t// in\n    tag_226:\n      swap2\n      pop\n      pop\n        /* \"contracts/Market.sol\":2886:3035  for(uint i = 0; i < pendingBets.length; i++){... */\n      jump(tag_216)\n    tag_217:\n      pop\n      pop\n        /* \"@openzeppelin/contracts/security/ReentrancyGuard.sol\":1701:1702  1 */\n      0x01\n        /* \"@openzeppelin/contracts/security/ReentrancyGuard.sol\":2628:2635  _status */\n      0x00\n        /* \"@openzeppelin/contracts/security/ReentrancyGuard.sol\":2628:2650  _status = _NOT_ENTERED */\n      sstore\n      pop\n      pop\n        /* \"contracts/Market.sol\":2535:3041  function cancelPending(bytes32 _bet) external override nonReentrant {... */\n      jump\t// out\n        /* \"contracts/Market.sol\":3300:3638  function settle(uint256 _winningSide)... */\n    tag_50:\n        /* \"contracts/Market.sol\":1245:1252  factory */\n      sload(0x01)\n        /* \"contracts/Market.sol\":3391:3395  bool */\n      0x00\n      swap1\n      sub(shl(0xa0, 0x01), 0x01)\n        /* \"contracts/Market.sol\":1245:1252  factory */\n      and\n        /* \"contracts/Market.sol\":1231:1241  msg.sender */\n      caller\n        /* \"contracts/Market.sol\":1231:1252  msg.sender == factory */\n      eq\n        /* \"contracts/Market.sol\":1210:1285  require(... */\n      tag_228\n      jumpi\n      mload(0x40)\n      shl(0xe5, 0x461bcd)\n      dup2\n      mstore\n        /* \"#utility.yul\":6484:6486   */\n      0x20\n        /* \"contracts/Market.sol\":1210:1285  require(... */\n      0x04\n      dup3\n      add\n        /* \"#utility.yul\":6466:6487   */\n      mstore\n        /* \"#utility.yul\":6523:6524   */\n      0x07\n        /* \"#utility.yul\":6503:6521   */\n      0x24\n      dup3\n      add\n        /* \"#utility.yul\":6496:6525   */\n      mstore\n      shl(0xc8, 0x6f776e6572206f)\n        /* \"#utility.yul\":6541:6559   */\n      0x44\n      dup3\n      add\n        /* \"#utility.yul\":6534:6571   */\n      mstore\n        /* \"#utility.yul\":6588:6606   */\n      0x64\n      add\n        /* \"contracts/Market.sol\":1210:1285  require(... */\n      tag_83\n        /* \"#utility.yul\":6282:6612   */\n      jump\n        /* \"contracts/Market.sol\":1210:1285  require(... */\n    tag_228:\n        /* \"contracts/Market.sol\":3420:3426  status */\n      sload(0x05)\n        /* \"contracts/Market.sol\":3420:3431  status == 0 */\n      iszero\n        /* \"contracts/Market.sol\":3420:3475  status == 0 && (_winningSide == 1 || _winningSide == 2) */\n      dup1\n      iszero\n      tag_232\n      jumpi\n      pop\n        /* \"contracts/Market.sol\":3436:3448  _winningSide */\n      dup2\n        /* \"contracts/Market.sol\":3452:3453  1 */\n      0x01\n        /* \"contracts/Market.sol\":3436:3453  _winningSide == 1 */\n      eq\n        /* \"contracts/Market.sol\":3436:3474  _winningSide == 1 || _winningSide == 2 */\n      dup1\n      tag_232\n      jumpi\n      pop\n        /* \"contracts/Market.sol\":3457:3469  _winningSide */\n      dup2\n        /* \"contracts/Market.sol\":3473:3474  2 */\n      0x02\n        /* \"contracts/Market.sol\":3457:3474  _winningSide == 2 */\n      eq\n        /* \"contracts/Market.sol\":3436:3474  _winningSide == 1 || _winningSide == 2 */\n    tag_232:\n        /* \"contracts/Market.sol\":3411:3486  require (status == 0 && (_winningSide == 1 || _winningSide == 2), \"!x win\") */\n      tag_233\n      jumpi\n      mload(0x40)\n      shl(0xe5, 0x461bcd)\n      dup2\n      mstore\n        /* \"#utility.yul\":9357:9359   */\n      0x20\n        /* \"contracts/Market.sol\":3411:3486  require (status == 0 && (_winningSide == 1 || _winningSide == 2), \"!x win\") */\n      0x04\n      dup3\n      add\n        /* \"#utility.yul\":9339:9360   */\n      mstore\n        /* \"#utility.yul\":9396:9397   */\n      0x06\n        /* \"#utility.yul\":9376:9394   */\n      0x24\n      dup3\n      add\n        /* \"#utility.yul\":9369:9398   */\n      mstore\n      shl(0xd1, 0x10bc103bb4b7)\n        /* \"#utility.yul\":9414:9432   */\n      0x44\n      dup3\n      add\n        /* \"#utility.yul\":9407:9443   */\n      mstore\n        /* \"#utility.yul\":9460:9478   */\n      0x64\n      add\n        /* \"contracts/Market.sol\":3411:3486  require (status == 0 && (_winningSide == 1 || _winningSide == 2), \"!x win\") */\n      tag_83\n        /* \"#utility.yul\":9155:9484   */\n      jump\n        /* \"contracts/Market.sol\":3411:3486  require (status == 0 && (_winningSide == 1 || _winningSide == 2), \"!x win\") */\n    tag_233:\n        /* \"contracts/Market.sol\":3496:3502  status */\n      0x05\n        /* \"contracts/Market.sol\":3496:3517  status = _winningSide */\n      dup3\n      swap1\n      sstore\n        /* \"contracts/Market.sol\":3531:3537  uint i */\n      0x00\n        /* \"contracts/Market.sol\":3527:3611  for(uint i = 0; i < pairs.length; i++){... */\n    tag_236:\n        /* \"contracts/Market.sol\":3547:3552  pairs */\n      0x02\n        /* \"contracts/Market.sol\":3547:3559  pairs.length */\n      sload\n        /* \"contracts/Market.sol\":3543:3559  i < pairs.length */\n      dup2\n      lt\n        /* \"contracts/Market.sol\":3527:3611  for(uint i = 0; i < pairs.length; i++){... */\n      iszero\n      tag_237\n      jumpi\n        /* \"contracts/Market.sol\":3579:3600  _settlePair(pairs[i]) */\n      tag_239\n        /* \"contracts/Market.sol\":3591:3596  pairs */\n      0x02\n        /* \"contracts/Market.sol\":3597:3598  i */\n      dup3\n        /* \"contracts/Market.sol\":3591:3599  pairs[i] */\n      dup2\n      sload\n      dup2\n      lt\n      tag_241\n      jumpi\n      tag_241\n      tag_76\n      jump\t// in\n    tag_241:\n      swap1\n      0x00\n      mstore\n      keccak256(0x00, 0x20)\n      add\n      sload\n        /* \"contracts/Market.sol\":3579:3590  _settlePair */\n      tag_115\n        /* \"contracts/Market.sol\":3579:3600  _settlePair(pairs[i]) */\n      jump\t// in\n    tag_239:\n        /* \"contracts/Market.sol\":3561:3564  i++ */\n      dup1\n      tag_243\n      dup2\n      tag_80\n      jump\t// in\n    tag_243:\n      swap2\n      pop\n      pop\n        /* \"contracts/Market.sol\":3527:3611  for(uint i = 0; i < pairs.length; i++){... */\n      jump(tag_236)\n    tag_237:\n      pop\n        /* \"contracts/Market.sol\":3627:3631  true */\n      0x01\n      swap3\n        /* \"contracts/Market.sol\":3300:3638  function settle(uint256 _winningSide)... */\n      swap2\n      pop\n      pop\n      jump\t// out\n        /* \"contracts/Market.sol\":8089:9483  function _settlePair(bytes32 _pair) private nonReentrant {... */\n    tag_115:\n        /* \"@openzeppelin/contracts/security/ReentrancyGuard.sol\":1744:1745  2 */\n      0x02\n        /* \"@openzeppelin/contracts/security/ReentrancyGuard.sol\":2325:2332  _status */\n      sload(0x00)\n        /* \"@openzeppelin/contracts/security/ReentrancyGuard.sol\":2325:2344  _status != _ENTERED */\n      sub\n        /* \"@openzeppelin/contracts/security/ReentrancyGuard.sol\":2317:2380  require(_status != _ENTERED, \"ReentrancyGuard: reentrant call\") */\n      tag_246\n      jumpi\n      mload(0x40)\n      shl(0xe5, 0x461bcd)\n      dup2\n      mstore\n      0x04\n      add\n      tag_83\n      swap1\n      tag_84\n      jump\t// in\n    tag_246:\n        /* \"@openzeppelin/contracts/security/ReentrancyGuard.sol\":1744:1745  2 */\n      0x02\n        /* \"@openzeppelin/contracts/security/ReentrancyGuard.sol\":2455:2462  _status */\n      0x00\n        /* \"@openzeppelin/contracts/security/ReentrancyGuard.sol\":2455:2473  _status = _ENTERED */\n      swap1\n      dup2\n      sstore\n        /* \"contracts/Market.sol\":8165:8181  pairsInfo[_pair] */\n      dup2\n      dup2\n      mstore\n        /* \"contracts/Market.sol\":8165:8174  pairsInfo */\n      0x09\n        /* \"contracts/Market.sol\":8165:8181  pairsInfo[_pair] */\n      0x20\n      mstore\n      0x40\n      swap1\n      keccak256\n        /* \"contracts/Market.sol\":8165:8189  pairsInfo[_pair].settled */\n      0x04\n      add\n      sload\n      0xff\n      and\n        /* \"contracts/Market.sol\":8164:8189  !pairsInfo[_pair].settled */\n      iszero\n        /* \"contracts/Market.sol\":8156:8209  require(!pairsInfo[_pair].settled, \"already settled\") */\n      tag_249\n      jumpi\n      mload(0x40)\n      shl(0xe5, 0x461bcd)\n      dup2\n      mstore\n        /* \"#utility.yul\":9691:9693   */\n      0x20\n        /* \"contracts/Market.sol\":8156:8209  require(!pairsInfo[_pair].settled, \"already settled\") */\n      0x04\n      dup3\n      add\n        /* \"#utility.yul\":9673:9694   */\n      mstore\n        /* \"#utility.yul\":9730:9732   */\n      0x0f\n        /* \"#utility.yul\":9710:9728   */\n      0x24\n      dup3\n      add\n        /* \"#utility.yul\":9703:9733   */\n      mstore\n      shl(0x8a, 0x185b1c9958591e481cd95d1d1b1959)\n        /* \"#utility.yul\":9749:9767   */\n      0x44\n      dup3\n      add\n        /* \"#utility.yul\":9742:9787   */\n      mstore\n        /* \"#utility.yul\":9804:9822   */\n      0x64\n      add\n        /* \"contracts/Market.sol\":8156:8209  require(!pairsInfo[_pair].settled, \"already settled\") */\n      tag_83\n        /* \"#utility.yul\":9489:9828   */\n      jump\n        /* \"contracts/Market.sol\":8156:8209  require(!pairsInfo[_pair].settled, \"already settled\") */\n    tag_249:\n        /* \"contracts/Market.sol\":8227:8233  status */\n      sload(0x05)\n        /* \"contracts/Market.sol\":8237:8238  1 */\n      0x01\n        /* \"contracts/Market.sol\":8227:8238  status == 1 */\n      eq\n        /* \"contracts/Market.sol\":8227:8253  status == 1 || status == 2 */\n      dup1\n      tag_252\n      jumpi\n      pop\n        /* \"contracts/Market.sol\":8242:8248  status */\n      sload(0x05)\n        /* \"contracts/Market.sol\":8252:8253  2 */\n      0x02\n        /* \"contracts/Market.sol\":8242:8253  status == 2 */\n      eq\n        /* \"contracts/Market.sol\":8227:8253  status == 1 || status == 2 */\n    tag_252:\n        /* \"contracts/Market.sol\":8219:8269  require(status == 1 || status == 2, \"win not set\") */\n      tag_253\n      jumpi\n      mload(0x40)\n      shl(0xe5, 0x461bcd)\n      dup2\n      mstore\n        /* \"#utility.yul\":10035:10037   */\n      0x20\n        /* \"contracts/Market.sol\":8219:8269  require(status == 1 || status == 2, \"win not set\") */\n      0x04\n      dup3\n      add\n        /* \"#utility.yul\":10017:10038   */\n      mstore\n        /* \"#utility.yul\":10074:10076   */\n      0x0b\n        /* \"#utility.yul\":10054:10072   */\n      0x24\n      dup3\n      add\n        /* \"#utility.yul\":10047:10077   */\n      mstore\n      shl(0xaa, 0x1dda5b881b9bdd081cd95d)\n        /* \"#utility.yul\":10093:10111   */\n      0x44\n      dup3\n      add\n        /* \"#utility.yul\":10086:10127   */\n      mstore\n        /* \"#utility.yul\":10144:10162   */\n      0x64\n      add\n        /* \"contracts/Market.sol\":8219:8269  require(status == 1 || status == 2, \"win not set\") */\n      tag_83\n        /* \"#utility.yul\":9833:10168   */\n      jump\n        /* \"contracts/Market.sol\":8219:8269  require(status == 1 || status == 2, \"win not set\") */\n    tag_253:\n        /* \"contracts/Market.sol\":8279:8293  address winner */\n      0x00\n        /* \"contracts/Market.sol\":8303:8320  address affiliate */\n      dup1\n        /* \"contracts/Market.sol\":8330:8347  uint256 winAmount */\n      0x00\n        /* \"contracts/Market.sol\":8357:8374  uint256 vigAmount */\n      dup1\n        /* \"contracts/Market.sol\":8387:8393  status */\n      sload(0x05)\n        /* \"contracts/Market.sol\":8397:8398  1 */\n      0x01\n        /* \"contracts/Market.sol\":8387:8398  status == 1 */\n      sub\n        /* \"contracts/Market.sol\":8384:9121  if(status == 1){... */\n      tag_256\n      jumpi\n        /* \"contracts/Market.sol\":8422:8457  betsInfo[pairsInfo[_pair].betHashA] */\n      0x00\n        /* \"contracts/Market.sol\":8431:8447  pairsInfo[_pair] */\n      dup6\n      dup2\n      mstore\n        /* \"contracts/Market.sol\":8431:8440  pairsInfo */\n      0x09\n        /* \"contracts/Market.sol\":8431:8447  pairsInfo[_pair] */\n      0x20\n      swap1\n      dup2\n      mstore\n      0x40\n      dup1\n      dup4\n      keccak256\n        /* \"contracts/Market.sol\":8431:8456  pairsInfo[_pair].betHashA */\n      sload\n        /* \"contracts/Market.sol\":8422:8457  betsInfo[pairsInfo[_pair].betHashA] */\n      dup4\n      mstore\n        /* \"contracts/Market.sol\":8422:8430  betsInfo */\n      0x07\n        /* \"contracts/Market.sol\":8422:8457  betsInfo[pairsInfo[_pair].betHashA] */\n      dup3\n      mstore\n      swap2\n      dup3\n      swap1\n      keccak256\n        /* \"contracts/Market.sol\":8422:8464  betsInfo[pairsInfo[_pair].betHashA].better */\n      sload\n        /* \"contracts/Market.sol\":8552:8561  app.vig() */\n      dup3\n      mload\n      shl(0xe0, 0x55c4a8bf)\n      dup2\n      mstore\n      swap3\n      mload\n      sub(shl(0xa0, 0x01), 0x01)\n        /* \"contracts/Market.sol\":8422:8464  betsInfo[pairsInfo[_pair].betHashA].better */\n      swap2\n      dup3\n      and\n      swap8\n      pop\n        /* \"contracts/Market.sol\":8565:8568  100 */\n      0x64\n      swap4\n        /* \"contracts/Market.sol\":8552:8555  app */\n      immutable(\"0xb7700257a9e4b89511ea592d7ef488a6959d733cec4df010484e5af3e427a407\")\n        /* \"contracts/Market.sol\":8552:8559  app.vig */\n      swap1\n      swap3\n      and\n      swap3\n      0x55c4a8bf\n      swap3\n        /* \"contracts/Market.sol\":8552:8561  app.vig() */\n      0x04\n      dup1\n      dup3\n      add\n      swap4\n      swap2\n      dup3\n      swap1\n      sub\n      add\n      dup2\n        /* \"contracts/Market.sol\":8552:8559  app.vig */\n      dup7\n        /* \"contracts/Market.sol\":8552:8561  app.vig() */\n      gas\n      staticcall\n      iszero\n      dup1\n      iszero\n      tag_258\n      jumpi\n      returndatasize\n      0x00\n      dup1\n      returndatacopy\n      revert(0x00, returndatasize)\n    tag_258:\n      pop\n      pop\n      pop\n      pop\n      mload(0x40)\n      returndatasize\n      not(0x1f)\n      0x1f\n      dup3\n      add\n      and\n      dup3\n      add\n      dup1\n      0x40\n      mstore\n      pop\n      dup2\n      add\n      swap1\n      tag_259\n      swap2\n      swap1\n      tag_90\n      jump\t// in\n    tag_259:\n        /* \"contracts/Market.sol\":8546:8561  100 - app.vig() */\n      tag_260\n      swap1\n        /* \"contracts/Market.sol\":8546:8549  100 */\n      0x64\n        /* \"contracts/Market.sol\":8546:8561  100 - app.vig() */\n      tag_105\n      jump\t// in\n    tag_260:\n        /* \"contracts/Market.sol\":8518:8534  pairsInfo[_pair] */\n      0x00\n      dup8\n      dup2\n      mstore\n        /* \"contracts/Market.sol\":8518:8527  pairsInfo */\n      0x09\n        /* \"contracts/Market.sol\":8518:8534  pairsInfo[_pair] */\n      0x20\n      mstore\n      0x40\n      swap1\n      keccak256\n        /* \"contracts/Market.sol\":8518:8542  pairsInfo[_pair].amountB */\n      0x03\n      add\n      sload\n        /* \"contracts/Market.sol\":8518:8562  pairsInfo[_pair].amountB * (100 - app.vig()) */\n      tag_261\n      swap2\n      swap1\n      tag_171\n      jump\t// in\n    tag_261:\n        /* \"contracts/Market.sol\":8518:8568  pairsInfo[_pair].amountB * (100 - app.vig()) / 100 */\n      tag_262\n      swap2\n      swap1\n      tag_167\n      jump\t// in\n    tag_262:\n        /* \"contracts/Market.sol\":8490:8506  pairsInfo[_pair] */\n      0x00\n      dup7\n      dup2\n      mstore\n        /* \"contracts/Market.sol\":8490:8499  pairsInfo */\n      0x09\n        /* \"contracts/Market.sol\":8490:8506  pairsInfo[_pair] */\n      0x20\n      mstore\n      0x40\n      swap1\n      keccak256\n        /* \"contracts/Market.sol\":8490:8514  pairsInfo[_pair].amountA */\n      0x02\n      add\n      sload\n        /* \"contracts/Market.sol\":8490:8569  pairsInfo[_pair].amountA + (pairsInfo[_pair].amountB * (100 - app.vig()) / 100) */\n      tag_263\n      swap2\n      swap1\n      tag_194\n      jump\t// in\n    tag_263:\n        /* \"contracts/Market.sol\":8478:8569  winAmount = pairsInfo[_pair].amountA + (pairsInfo[_pair].amountB * (100 - app.vig()) / 100) */\n      swap2\n      pop\n        /* \"contracts/Market.sol\":8634:8637  100 */\n      0x64\n        /* \"contracts/Market.sol\":8622:8625  app */\n      immutable(\"0xb7700257a9e4b89511ea592d7ef488a6959d733cec4df010484e5af3e427a407\")\n      sub(shl(0xa0, 0x01), 0x01)\n        /* \"contracts/Market.sol\":8622:8629  app.vig */\n      and\n      0x55c4a8bf\n        /* \"contracts/Market.sol\":8622:8631  app.vig() */\n      mload(0x40)\n      dup2\n      0xffffffff\n      and\n      0xe0\n      shl\n      dup2\n      mstore\n      0x04\n      add\n      0x20\n      mload(0x40)\n      dup1\n      dup4\n      sub\n      dup2\n      dup7\n      gas\n      staticcall\n      iszero\n      dup1\n      iszero\n      tag_265\n      jumpi\n      returndatasize\n      0x00\n      dup1\n      returndatacopy\n      revert(0x00, returndatasize)\n    tag_265:\n      pop\n      pop\n      pop\n      pop\n      mload(0x40)\n      returndatasize\n      not(0x1f)\n      0x1f\n      dup3\n      add\n      and\n      dup3\n      add\n      dup1\n      0x40\n      mstore\n      pop\n      dup2\n      add\n      swap1\n      tag_266\n      swap2\n      swap1\n      tag_90\n      jump\t// in\n    tag_266:\n        /* \"contracts/Market.sol\":8595:8611  pairsInfo[_pair] */\n      0x00\n      dup8\n      dup2\n      mstore\n        /* \"contracts/Market.sol\":8595:8604  pairsInfo */\n      0x09\n        /* \"contracts/Market.sol\":8595:8611  pairsInfo[_pair] */\n      0x20\n      mstore\n      0x40\n      swap1\n      keccak256\n        /* \"contracts/Market.sol\":8595:8619  pairsInfo[_pair].amountB */\n      0x03\n      add\n      sload\n        /* \"contracts/Market.sol\":8595:8631  pairsInfo[_pair].amountB * app.vig() */\n      tag_267\n      swap2\n      swap1\n      tag_171\n      jump\t// in\n    tag_267:\n        /* \"contracts/Market.sol\":8595:8637  pairsInfo[_pair].amountB * app.vig() / 100 */\n      tag_268\n      swap2\n      swap1\n      tag_167\n      jump\t// in\n    tag_268:\n        /* \"contracts/Market.sol\":8663:8698  betsInfo[pairsInfo[_pair].betHashA] */\n      0x00\n        /* \"contracts/Market.sol\":8672:8688  pairsInfo[_pair] */\n      dup7\n      dup2\n      mstore\n        /* \"contracts/Market.sol\":8672:8681  pairsInfo */\n      0x09\n        /* \"contracts/Market.sol\":8672:8688  pairsInfo[_pair] */\n      0x20\n      swap1\n      dup2\n      mstore\n      0x40\n      dup1\n      dup4\n      keccak256\n        /* \"contracts/Market.sol\":8672:8697  pairsInfo[_pair].betHashA */\n      sload\n        /* \"contracts/Market.sol\":8663:8698  betsInfo[pairsInfo[_pair].betHashA] */\n      dup4\n      mstore\n        /* \"contracts/Market.sol\":8663:8671  betsInfo */\n      0x07\n        /* \"contracts/Market.sol\":8663:8698  betsInfo[pairsInfo[_pair].betHashA] */\n      swap1\n      swap2\n      mstore\n      swap1\n      keccak256\n        /* \"contracts/Market.sol\":8663:8708  betsInfo[pairsInfo[_pair].betHashA].affiliate */\n      0x01\n      add\n      sload\n      sub(shl(0xa0, 0x01), 0x01)\n      and\n      swap4\n      pop\n        /* \"contracts/Market.sol\":8583:8637  vigAmount = pairsInfo[_pair].amountB * app.vig() / 100 */\n      swap1\n      pop\n        /* \"contracts/Market.sol\":8384:9121  if(status == 1){... */\n      jump(tag_283)\n    tag_256:\n        /* \"contracts/Market.sol\":8736:8742  status */\n      sload(0x05)\n        /* \"contracts/Market.sol\":8746:8747  2 */\n      0x02\n        /* \"contracts/Market.sol\":8736:8747  status == 2 */\n      sub\n        /* \"contracts/Market.sol\":8733:9121  if(status == 2){... */\n      tag_270\n      jumpi\n        /* \"contracts/Market.sol\":8771:8806  betsInfo[pairsInfo[_pair].betHashB] */\n      0x00\n        /* \"contracts/Market.sol\":8780:8796  pairsInfo[_pair] */\n      dup6\n      dup2\n      mstore\n        /* \"contracts/Market.sol\":8780:8789  pairsInfo */\n      0x09\n        /* \"contracts/Market.sol\":8780:8796  pairsInfo[_pair] */\n      0x20\n      swap1\n      dup2\n      mstore\n      0x40\n      dup1\n      dup4\n      keccak256\n        /* \"contracts/Market.sol\":8780:8805  pairsInfo[_pair].betHashB */\n      0x01\n      add\n      sload\n        /* \"contracts/Market.sol\":8771:8806  betsInfo[pairsInfo[_pair].betHashB] */\n      dup4\n      mstore\n        /* \"contracts/Market.sol\":8771:8779  betsInfo */\n      0x07\n        /* \"contracts/Market.sol\":8771:8806  betsInfo[pairsInfo[_pair].betHashB] */\n      dup3\n      mstore\n      swap2\n      dup3\n      swap1\n      keccak256\n        /* \"contracts/Market.sol\":8771:8813  betsInfo[pairsInfo[_pair].betHashB].better */\n      sload\n        /* \"contracts/Market.sol\":8901:8910  app.vig() */\n      dup3\n      mload\n      shl(0xe0, 0x55c4a8bf)\n      dup2\n      mstore\n      swap3\n      mload\n      sub(shl(0xa0, 0x01), 0x01)\n        /* \"contracts/Market.sol\":8771:8813  betsInfo[pairsInfo[_pair].betHashB].better */\n      swap2\n      dup3\n      and\n      swap8\n      pop\n        /* \"contracts/Market.sol\":8914:8917  100 */\n      0x64\n      swap4\n        /* \"contracts/Market.sol\":8901:8904  app */\n      immutable(\"0xb7700257a9e4b89511ea592d7ef488a6959d733cec4df010484e5af3e427a407\")\n        /* \"contracts/Market.sol\":8901:8908  app.vig */\n      swap1\n      swap3\n      and\n      swap3\n      0x55c4a8bf\n      swap3\n        /* \"contracts/Market.sol\":8901:8910  app.vig() */\n      0x04\n      dup1\n      dup3\n      add\n      swap4\n      swap2\n      dup3\n      swap1\n      sub\n      add\n      dup2\n        /* \"contracts/Market.sol\":8901:8908  app.vig */\n      dup7\n        /* \"contracts/Market.sol\":8901:8910  app.vig() */\n      gas\n      staticcall\n      iszero\n      dup1\n      iszero\n      tag_272\n      jumpi\n      returndatasize\n      0x00\n      dup1\n      returndatacopy\n      revert(0x00, returndatasize)\n    tag_272:\n      pop\n      pop\n      pop\n      pop\n      mload(0x40)\n      returndatasize\n      not(0x1f)\n      0x1f\n      dup3\n      add\n      and\n      dup3\n      add\n      dup1\n      0x40\n      mstore\n      pop\n      dup2\n      add\n      swap1\n      tag_273\n      swap2\n      swap1\n      tag_90\n      jump\t// in\n    tag_273:\n        /* \"contracts/Market.sol\":8895:8910  100 - app.vig() */\n      tag_274\n      swap1\n        /* \"contracts/Market.sol\":8895:8898  100 */\n      0x64\n        /* \"contracts/Market.sol\":8895:8910  100 - app.vig() */\n      tag_105\n      jump\t// in\n    tag_274:\n        /* \"contracts/Market.sol\":8867:8883  pairsInfo[_pair] */\n      0x00\n      dup8\n      dup2\n      mstore\n        /* \"contracts/Market.sol\":8867:8876  pairsInfo */\n      0x09\n        /* \"contracts/Market.sol\":8867:8883  pairsInfo[_pair] */\n      0x20\n      mstore\n      0x40\n      swap1\n      keccak256\n        /* \"contracts/Market.sol\":8867:8891  pairsInfo[_pair].amountA */\n      0x02\n      add\n      sload\n        /* \"contracts/Market.sol\":8867:8911  pairsInfo[_pair].amountA * (100 - app.vig()) */\n      tag_275\n      swap2\n      swap1\n      tag_171\n      jump\t// in\n    tag_275:\n        /* \"contracts/Market.sol\":8867:8917  pairsInfo[_pair].amountA * (100 - app.vig()) / 100 */\n      tag_276\n      swap2\n      swap1\n      tag_167\n      jump\t// in\n    tag_276:\n        /* \"contracts/Market.sol\":8839:8855  pairsInfo[_pair] */\n      0x00\n      dup7\n      dup2\n      mstore\n        /* \"contracts/Market.sol\":8839:8848  pairsInfo */\n      0x09\n        /* \"contracts/Market.sol\":8839:8855  pairsInfo[_pair] */\n      0x20\n      mstore\n      0x40\n      swap1\n      keccak256\n        /* \"contracts/Market.sol\":8839:8863  pairsInfo[_pair].amountB */\n      0x03\n      add\n      sload\n        /* \"contracts/Market.sol\":8839:8918  pairsInfo[_pair].amountB + (pairsInfo[_pair].amountA * (100 - app.vig()) / 100) */\n      tag_277\n      swap2\n      swap1\n      tag_194\n      jump\t// in\n    tag_277:\n        /* \"contracts/Market.sol\":8827:8918  winAmount = pairsInfo[_pair].amountB + (pairsInfo[_pair].amountA * (100 - app.vig()) / 100) */\n      swap2\n      pop\n        /* \"contracts/Market.sol\":8983:8986  100 */\n      0x64\n        /* \"contracts/Market.sol\":8971:8974  app */\n      immutable(\"0xb7700257a9e4b89511ea592d7ef488a6959d733cec4df010484e5af3e427a407\")\n      sub(shl(0xa0, 0x01), 0x01)\n        /* \"contracts/Market.sol\":8971:8978  app.vig */\n      and\n      0x55c4a8bf\n        /* \"contracts/Market.sol\":8971:8980  app.vig() */\n      mload(0x40)\n      dup2\n      0xffffffff\n      and\n      0xe0\n      shl\n      dup2\n      mstore\n      0x04\n      add\n      0x20\n      mload(0x40)\n      dup1\n      dup4\n      sub\n      dup2\n      dup7\n      gas\n      staticcall\n      iszero\n      dup1\n      iszero\n      tag_279\n      jumpi\n      returndatasize\n      0x00\n      dup1\n      returndatacopy\n      revert(0x00, returndatasize)\n    tag_279:\n      pop\n      pop\n      pop\n      pop\n      mload(0x40)\n      returndatasize\n      not(0x1f)\n      0x1f\n      dup3\n      add\n      and\n      dup3\n      add\n      dup1\n      0x40\n      mstore\n      pop\n      dup2\n      add\n      swap1\n      tag_280\n      swap2\n      swap1\n      tag_90\n      jump\t// in\n    tag_280:\n        /* \"contracts/Market.sol\":8944:8960  pairsInfo[_pair] */\n      0x00\n      dup8\n      dup2\n      mstore\n        /* \"contracts/Market.sol\":8944:8953  pairsInfo */\n      0x09\n        /* \"contracts/Market.sol\":8944:8960  pairsInfo[_pair] */\n      0x20\n      mstore\n      0x40\n      swap1\n      keccak256\n        /* \"contracts/Market.sol\":8944:8968  pairsInfo[_pair].amountA */\n      0x02\n      add\n      sload\n        /* \"contracts/Market.sol\":8944:8980  pairsInfo[_pair].amountA * app.vig() */\n      tag_281\n      swap2\n      swap1\n      tag_171\n      jump\t// in\n    tag_281:\n        /* \"contracts/Market.sol\":8944:8986  pairsInfo[_pair].amountA * app.vig() / 100 */\n      tag_282\n      swap2\n      swap1\n      tag_167\n      jump\t// in\n    tag_282:\n        /* \"contracts/Market.sol\":9012:9047  betsInfo[pairsInfo[_pair].betHashB] */\n      0x00\n        /* \"contracts/Market.sol\":9021:9037  pairsInfo[_pair] */\n      dup7\n      dup2\n      mstore\n        /* \"contracts/Market.sol\":9021:9030  pairsInfo */\n      0x09\n        /* \"contracts/Market.sol\":9021:9037  pairsInfo[_pair] */\n      0x20\n      swap1\n      dup2\n      mstore\n      0x40\n      dup1\n      dup4\n      keccak256\n        /* \"contracts/Market.sol\":9021:9046  pairsInfo[_pair].betHashB */\n      0x01\n      swap1\n      dup2\n      add\n      sload\n        /* \"contracts/Market.sol\":9012:9047  betsInfo[pairsInfo[_pair].betHashB] */\n      dup5\n      mstore\n        /* \"contracts/Market.sol\":9012:9020  betsInfo */\n      0x07\n        /* \"contracts/Market.sol\":9012:9047  betsInfo[pairsInfo[_pair].betHashB] */\n      swap1\n      swap3\n      mstore\n      swap1\n      swap2\n      keccak256\n        /* \"contracts/Market.sol\":9012:9057  betsInfo[pairsInfo[_pair].betHashB].affiliate */\n      add\n      sload\n      sub(shl(0xa0, 0x01), 0x01)\n      and\n      swap4\n      pop\n        /* \"contracts/Market.sol\":8932:8986  vigAmount = pairsInfo[_pair].amountA * app.vig() / 100 */\n      swap1\n      pop\n        /* \"contracts/Market.sol\":8733:9121  if(status == 2){... */\n      jump(tag_283)\n    tag_270:\n        /* \"contracts/Market.sol\":9095:9110  revert(\"x win\") */\n      mload(0x40)\n      shl(0xe5, 0x461bcd)\n      dup2\n      mstore\n        /* \"#utility.yul\":10375:10377   */\n      0x20\n        /* \"contracts/Market.sol\":9095:9110  revert(\"x win\") */\n      0x04\n      dup3\n      add\n        /* \"#utility.yul\":10357:10378   */\n      mstore\n        /* \"#utility.yul\":10414:10415   */\n      0x05\n        /* \"#utility.yul\":10394:10412   */\n      0x24\n      dup3\n      add\n        /* \"#utility.yul\":10387:10416   */\n      mstore\n      shl(0xd9, 0x3c103bb4b7)\n        /* \"#utility.yul\":10432:10450   */\n      0x44\n      dup3\n      add\n        /* \"#utility.yul\":10425:10460   */\n      mstore\n        /* \"#utility.yul\":10477:10495   */\n      0x64\n      add\n        /* \"contracts/Market.sol\":9095:9110  revert(\"x win\") */\n      tag_83\n        /* \"#utility.yul\":10173:10501   */\n      jump\n        /* \"contracts/Market.sol\":8733:9121  if(status == 2){... */\n    tag_283:\n      sub(shl(0xa0, 0x01), 0x01)\n        /* \"contracts/Market.sol\":9133:9158  affiliate == address(0x0) */\n      dup4\n      and\n        /* \"contracts/Market.sol\":9130:9209  if(affiliate == address(0x0)){... */\n      tag_286\n      jumpi\n        /* \"contracts/Market.sol\":9185:9188  app */\n      immutable(\"0xb7700257a9e4b89511ea592d7ef488a6959d733cec4df010484e5af3e427a407\")\n      sub(shl(0xa0, 0x01), 0x01)\n        /* \"contracts/Market.sol\":9185:9196  app.ecoAddr */\n      and\n      0x09953b2f\n        /* \"contracts/Market.sol\":9185:9198  app.ecoAddr() */\n      mload(0x40)\n      dup2\n      0xffffffff\n      and\n      0xe0\n      shl\n      dup2\n      mstore\n      0x04\n      add\n      0x20\n      mload(0x40)\n      dup1\n      dup4\n      sub\n      dup2\n      dup7\n      gas\n      staticcall\n      iszero\n      dup1\n      iszero\n      tag_288\n      jumpi\n      returndatasize\n      0x00\n      dup1\n      returndatacopy\n      revert(0x00, returndatasize)\n    tag_288:\n      pop\n      pop\n      pop\n      pop\n      mload(0x40)\n      returndatasize\n      not(0x1f)\n      0x1f\n      dup3\n      add\n      and\n      dup3\n      add\n      dup1\n      0x40\n      mstore\n      pop\n      dup2\n      add\n      swap1\n      tag_289\n      swap2\n      swap1\n      tag_290\n      jump\t// in\n    tag_289:\n        /* \"contracts/Market.sol\":9173:9198  affiliate = app.ecoAddr() */\n      swap3\n      pop\n        /* \"contracts/Market.sol\":9130:9209  if(affiliate == address(0x0)){... */\n    tag_286:\n      sub(shl(0xa0, 0x01), 0x01)\n        /* \"contracts/Market.sol\":9218:9229  bal[winner] */\n      dup5\n      and\n      0x00\n      swap1\n      dup2\n      mstore\n        /* \"contracts/Market.sol\":9218:9221  bal */\n      0x06\n        /* \"contracts/Market.sol\":9218:9229  bal[winner] */\n      0x20\n      mstore\n      0x40\n      dup2\n      keccak256\n        /* \"contracts/Market.sol\":9218:9242  bal[winner] += winAmount */\n      dup1\n      sload\n        /* \"contracts/Market.sol\":9233:9242  winAmount */\n      dup5\n      swap3\n        /* \"contracts/Market.sol\":9218:9229  bal[winner] */\n      swap1\n        /* \"contracts/Market.sol\":9218:9242  bal[winner] += winAmount */\n      tag_291\n      swap1\n        /* \"contracts/Market.sol\":9233:9242  winAmount */\n      dup5\n      swap1\n        /* \"contracts/Market.sol\":9218:9242  bal[winner] += winAmount */\n      tag_194\n      jump\t// in\n    tag_291:\n      swap3\n      pop\n      pop\n      dup2\n      swap1\n      sstore\n      pop\n        /* \"contracts/Market.sol\":9300:9303  100 */\n      0x64\n        /* \"contracts/Market.sol\":9287:9290  app */\n      immutable(\"0xb7700257a9e4b89511ea592d7ef488a6959d733cec4df010484e5af3e427a407\")\n      sub(shl(0xa0, 0x01), 0x01)\n        /* \"contracts/Market.sol\":9287:9295  app.hVig */\n      and\n      0x6a0ccd9d\n        /* \"contracts/Market.sol\":9287:9297  app.hVig() */\n      mload(0x40)\n      dup2\n      0xffffffff\n      and\n      0xe0\n      shl\n      dup2\n      mstore\n      0x04\n      add\n      0x20\n      mload(0x40)\n      dup1\n      dup4\n      sub\n      dup2\n      dup7\n      gas\n      staticcall\n      iszero\n      dup1\n      iszero\n      tag_293\n      jumpi\n      returndatasize\n      0x00\n      dup1\n      returndatacopy\n      revert(0x00, returndatasize)\n    tag_293:\n      pop\n      pop\n      pop\n      pop\n      mload(0x40)\n      returndatasize\n      not(0x1f)\n      0x1f\n      dup3\n      add\n      and\n      dup3\n      add\n      dup1\n      0x40\n      mstore\n      pop\n      dup2\n      add\n      swap1\n      tag_294\n      swap2\n      swap1\n      tag_90\n      jump\t// in\n    tag_294:\n        /* \"contracts/Market.sol\":9275:9297  vigAmount * app.hVig() */\n      tag_295\n      swap1\n        /* \"contracts/Market.sol\":9275:9284  vigAmount */\n      dup4\n        /* \"contracts/Market.sol\":9275:9297  vigAmount * app.hVig() */\n      tag_171\n      jump\t// in\n    tag_295:\n        /* \"contracts/Market.sol\":9275:9303  vigAmount * app.hVig() / 100 */\n      tag_296\n      swap2\n      swap1\n      tag_167\n      jump\t// in\n    tag_296:\n        /* \"contracts/Market.sol\":9252:9255  bal */\n      0x06\n        /* \"contracts/Market.sol\":9252:9271  bal[app.holdAddr()] */\n      0x00\n        /* \"contracts/Market.sol\":9256:9259  app */\n      immutable(\"0xb7700257a9e4b89511ea592d7ef488a6959d733cec4df010484e5af3e427a407\")\n      sub(shl(0xa0, 0x01), 0x01)\n        /* \"contracts/Market.sol\":9256:9268  app.holdAddr */\n      and\n      0xb7640a54\n        /* \"contracts/Market.sol\":9256:9270  app.holdAddr() */\n      mload(0x40)\n      dup2\n      0xffffffff\n      and\n      0xe0\n      shl\n      dup2\n      mstore\n      0x04\n      add\n      0x20\n      mload(0x40)\n      dup1\n      dup4\n      sub\n      dup2\n      dup7\n      gas\n      staticcall\n      iszero\n      dup1\n      iszero\n      tag_298\n      jumpi\n      returndatasize\n      0x00\n      dup1\n      returndatacopy\n      revert(0x00, returndatasize)\n    tag_298:\n      pop\n      pop\n      pop\n      pop\n      mload(0x40)\n      returndatasize\n      not(0x1f)\n      0x1f\n      dup3\n      add\n      and\n      dup3\n      add\n      dup1\n      0x40\n      mstore\n      pop\n      dup2\n      add\n      swap1\n      tag_299\n      swap2\n      swap1\n      tag_290\n      jump\t// in\n    tag_299:\n      sub(shl(0xa0, 0x01), 0x01)\n        /* \"contracts/Market.sol\":9252:9271  bal[app.holdAddr()] */\n      and\n      sub(shl(0xa0, 0x01), 0x01)\n      and\n      dup2\n      mstore\n      0x20\n      add\n      swap1\n      dup2\n      mstore\n      0x20\n      add\n      0x00\n      keccak256\n      0x00\n        /* \"contracts/Market.sol\":9252:9303  bal[app.holdAddr()] += vigAmount * app.hVig() / 100 */\n      dup3\n      dup3\n      sload\n      tag_300\n      swap2\n      swap1\n      tag_194\n      jump\t// in\n    tag_300:\n      swap3\n      pop\n      pop\n      dup2\n      swap1\n      sstore\n      pop\n        /* \"contracts/Market.sol\":9360:9363  100 */\n      0x64\n        /* \"contracts/Market.sol\":9347:9350  app */\n      immutable(\"0xb7700257a9e4b89511ea592d7ef488a6959d733cec4df010484e5af3e427a407\")\n      sub(shl(0xa0, 0x01), 0x01)\n        /* \"contracts/Market.sol\":9347:9355  app.eVig */\n      and\n      0x28576d45\n        /* \"contracts/Market.sol\":9347:9357  app.eVig() */\n      mload(0x40)\n      dup2\n      0xffffffff\n      and\n      0xe0\n      shl\n      dup2\n      mstore\n      0x04\n      add\n      0x20\n      mload(0x40)\n      dup1\n      dup4\n      sub\n      dup2\n      dup7\n      gas\n      staticcall\n      iszero\n      dup1\n      iszero\n      tag_302\n      jumpi\n      returndatasize\n      0x00\n      dup1\n      returndatacopy\n      revert(0x00, returndatasize)\n    tag_302:\n      pop\n      pop\n      pop\n      pop\n      mload(0x40)\n      returndatasize\n      not(0x1f)\n      0x1f\n      dup3\n      add\n      and\n      dup3\n      add\n      dup1\n      0x40\n      mstore\n      pop\n      dup2\n      add\n      swap1\n      tag_303\n      swap2\n      swap1\n      tag_90\n      jump\t// in\n    tag_303:\n        /* \"contracts/Market.sol\":9335:9357  vigAmount * app.eVig() */\n      tag_304\n      swap1\n        /* \"contracts/Market.sol\":9335:9344  vigAmount */\n      dup4\n        /* \"contracts/Market.sol\":9335:9357  vigAmount * app.eVig() */\n      tag_171\n      jump\t// in\n    tag_304:\n        /* \"contracts/Market.sol\":9335:9363  vigAmount * app.eVig() / 100 */\n      tag_305\n      swap2\n      swap1\n      tag_167\n      jump\t// in\n    tag_305:\n        /* \"contracts/Market.sol\":9313:9316  bal */\n      0x06\n        /* \"contracts/Market.sol\":9313:9331  bal[app.ecoAddr()] */\n      0x00\n        /* \"contracts/Market.sol\":9317:9320  app */\n      immutable(\"0xb7700257a9e4b89511ea592d7ef488a6959d733cec4df010484e5af3e427a407\")\n      sub(shl(0xa0, 0x01), 0x01)\n        /* \"contracts/Market.sol\":9317:9328  app.ecoAddr */\n      and\n      0x09953b2f\n        /* \"contracts/Market.sol\":9317:9330  app.ecoAddr() */\n      mload(0x40)\n      dup2\n      0xffffffff\n      and\n      0xe0\n      shl\n      dup2\n      mstore\n      0x04\n      add\n      0x20\n      mload(0x40)\n      dup1\n      dup4\n      sub\n      dup2\n      dup7\n      gas\n      staticcall\n      iszero\n      dup1\n      iszero\n      tag_307\n      jumpi\n      returndatasize\n      0x00\n      dup1\n      returndatacopy\n      revert(0x00, returndatasize)\n    tag_307:\n      pop\n      pop\n      pop\n      pop\n      mload(0x40)\n      returndatasize\n      not(0x1f)\n      0x1f\n      dup3\n      add\n      and\n      dup3\n      add\n      dup1\n      0x40\n      mstore\n      pop\n      dup2\n      add\n      swap1\n      tag_308\n      swap2\n      swap1\n      tag_290\n      jump\t// in\n    tag_308:\n      sub(shl(0xa0, 0x01), 0x01)\n        /* \"contracts/Market.sol\":9313:9331  bal[app.ecoAddr()] */\n      and\n      sub(shl(0xa0, 0x01), 0x01)\n      and\n      dup2\n      mstore\n      0x20\n      add\n      swap1\n      dup2\n      mstore\n      0x20\n      add\n      0x00\n      keccak256\n      0x00\n        /* \"contracts/Market.sol\":9313:9363  bal[app.ecoAddr()] += vigAmount * app.eVig() / 100 */\n      dup3\n      dup3\n      sload\n      tag_309\n      swap2\n      swap1\n      tag_194\n      jump\t// in\n    tag_309:\n      swap3\n      pop\n      pop\n      dup2\n      swap1\n      sstore\n      pop\n        /* \"contracts/Market.sol\":9416:9419  100 */\n      0x64\n        /* \"contracts/Market.sol\":9403:9406  app */\n      immutable(\"0xb7700257a9e4b89511ea592d7ef488a6959d733cec4df010484e5af3e427a407\")\n      sub(shl(0xa0, 0x01), 0x01)\n        /* \"contracts/Market.sol\":9403:9411  app.aVig */\n      and\n      0x54cd1a5c\n        /* \"contracts/Market.sol\":9403:9413  app.aVig() */\n      mload(0x40)\n      dup2\n      0xffffffff\n      and\n      0xe0\n      shl\n      dup2\n      mstore\n      0x04\n      add\n      0x20\n      mload(0x40)\n      dup1\n      dup4\n      sub\n      dup2\n      dup7\n      gas\n      staticcall\n      iszero\n      dup1\n      iszero\n      tag_311\n      jumpi\n      returndatasize\n      0x00\n      dup1\n      returndatacopy\n      revert(0x00, returndatasize)\n    tag_311:\n      pop\n      pop\n      pop\n      pop\n      mload(0x40)\n      returndatasize\n      not(0x1f)\n      0x1f\n      dup3\n      add\n      and\n      dup3\n      add\n      dup1\n      0x40\n      mstore\n      pop\n      dup2\n      add\n      swap1\n      tag_312\n      swap2\n      swap1\n      tag_90\n      jump\t// in\n    tag_312:\n        /* \"contracts/Market.sol\":9391:9413  vigAmount * app.aVig() */\n      tag_313\n      swap1\n        /* \"contracts/Market.sol\":9391:9400  vigAmount */\n      dup4\n        /* \"contracts/Market.sol\":9391:9413  vigAmount * app.aVig() */\n      tag_171\n      jump\t// in\n    tag_313:\n        /* \"contracts/Market.sol\":9391:9419  vigAmount * app.aVig() / 100 */\n      tag_314\n      swap2\n      swap1\n      tag_167\n      jump\t// in\n    tag_314:\n      sub(shl(0xa0, 0x01), 0x01)\n        /* \"contracts/Market.sol\":9373:9387  bal[affiliate] */\n      dup5\n      and\n      0x00\n      swap1\n      dup2\n      mstore\n        /* \"contracts/Market.sol\":9373:9376  bal */\n      0x06\n        /* \"contracts/Market.sol\":9373:9387  bal[affiliate] */\n      0x20\n      mstore\n      0x40\n      dup2\n      keccak256\n        /* \"contracts/Market.sol\":9373:9419  bal[affiliate] += vigAmount * app.aVig() / 100 */\n      dup1\n      sload\n        /* \"contracts/Market.sol\":9373:9387  bal[affiliate] */\n      swap1\n      swap2\n      swap1\n        /* \"contracts/Market.sol\":9373:9419  bal[affiliate] += vigAmount * app.aVig() / 100 */\n      tag_315\n      swap1\n      dup5\n      swap1\n      tag_194\n      jump\t// in\n    tag_315:\n      swap1\n      swap2\n      sstore\n      pop\n      pop\n      pop\n        /* \"contracts/Market.sol\":9429:9445  pairsInfo[_pair] */\n      0x00\n      dup5\n      dup2\n      mstore\n        /* \"contracts/Market.sol\":9429:9438  pairsInfo */\n      0x09\n        /* \"contracts/Market.sol\":9429:9445  pairsInfo[_pair] */\n      0x20\n      mstore\n      0x40\n      swap1\n      keccak256\n        /* \"contracts/Market.sol\":9429:9453  pairsInfo[_pair].settled */\n      0x04\n      add\n        /* \"contracts/Market.sol\":9429:9460  pairsInfo[_pair].settled = true */\n      dup1\n      sload\n      not(0xff)\n      and\n        /* \"contracts/Market.sol\":9456:9460  true */\n      0x01\n        /* \"contracts/Market.sol\":9429:9460  pairsInfo[_pair].settled = true */\n      or\n      swap1\n      sstore\n      pop\n      pop\n      pop\n      pop\n        /* \"@openzeppelin/contracts/security/ReentrancyGuard.sol\":1701:1702  1 */\n      0x01\n        /* \"@openzeppelin/contracts/security/ReentrancyGuard.sol\":2628:2635  _status */\n      0x00\n        /* \"@openzeppelin/contracts/security/ReentrancyGuard.sol\":2628:2650  _status = _NOT_ENTERED */\n      sstore\n        /* \"contracts/Market.sol\":8089:9483  function _settlePair(bytes32 _pair) private nonReentrant {... */\n      jump\t// out\n        /* \"contracts/Market.sol\":7731:8079  function _cancelPair(bytes32 _pair) private {... */\n    tag_131:\n        /* \"contracts/Market.sol\":7785:7800  address betterA */\n      0x00\n        /* \"contracts/Market.sol\":7812:7828  pairsInfo[_pair] */\n      dup2\n      dup2\n      mstore\n        /* \"contracts/Market.sol\":7812:7821  pairsInfo */\n      0x09\n        /* \"contracts/Market.sol\":7812:7828  pairsInfo[_pair] */\n      0x20\n      swap1\n      dup2\n      mstore\n      0x40\n      dup1\n      dup4\n      keccak256\n        /* \"contracts/Market.sol\":7812:7837  pairsInfo[_pair].betHashA */\n      dup1\n      sload\n        /* \"contracts/Market.sol\":7803:7838  betsInfo[pairsInfo[_pair].betHashA] */\n      dup5\n      mstore\n        /* \"contracts/Market.sol\":7803:7811  betsInfo */\n      0x07\n        /* \"contracts/Market.sol\":7803:7838  betsInfo[pairsInfo[_pair].betHashA] */\n      dup4\n      mstore\n      dup2\n      dup5\n      keccak256\n        /* \"contracts/Market.sol\":7803:7845  betsInfo[pairsInfo[_pair].betHashA].better */\n      sload\n      0x01\n        /* \"contracts/Market.sol\":7882:7907  pairsInfo[_pair].betHashB */\n      dup3\n      add\n      sload\n        /* \"contracts/Market.sol\":7873:7908  betsInfo[pairsInfo[_pair].betHashB] */\n      dup6\n      mstore\n      dup3\n      dup6\n      keccak256\n        /* \"contracts/Market.sol\":7873:7915  betsInfo[pairsInfo[_pair].betHashB].better */\n      sload\n        /* \"contracts/Market.sol\":7941:7965  pairsInfo[_pair].amountA */\n      0x02\n      swap1\n      swap3\n      add\n      sload\n      sub(shl(0xa0, 0x01), 0x01)\n        /* \"contracts/Market.sol\":7803:7845  betsInfo[pairsInfo[_pair].betHashA].better */\n      swap2\n      dup3\n      and\n        /* \"contracts/Market.sol\":7925:7937  bal[betterA] */\n      dup1\n      dup8\n      mstore\n        /* \"contracts/Market.sol\":7925:7928  bal */\n      0x06\n        /* \"contracts/Market.sol\":7925:7937  bal[betterA] */\n      swap1\n      swap6\n      mstore\n      swap3\n      dup6\n      keccak256\n        /* \"contracts/Market.sol\":7925:7965  bal[betterA] += pairsInfo[_pair].amountA */\n      dup1\n      sload\n        /* \"contracts/Market.sol\":7803:7845  betsInfo[pairsInfo[_pair].betHashA].better */\n      swap5\n      swap6\n        /* \"contracts/Market.sol\":7873:7915  betsInfo[pairsInfo[_pair].betHashB].better */\n      swap2\n      swap1\n      swap3\n      and\n      swap4\n        /* \"contracts/Market.sol\":7925:7965  bal[betterA] += pairsInfo[_pair].amountA */\n      tag_317\n      swap1\n        /* \"contracts/Market.sol\":7941:7965  pairsInfo[_pair].amountA */\n      dup5\n      swap1\n        /* \"contracts/Market.sol\":7925:7965  bal[betterA] += pairsInfo[_pair].amountA */\n      tag_194\n      jump\t// in\n    tag_317:\n      swap1\n      swap2\n      sstore\n      pop\n      pop\n        /* \"contracts/Market.sol\":7991:8007  pairsInfo[_pair] */\n      0x00\n      dup4\n      dup2\n      mstore\n        /* \"contracts/Market.sol\":7991:8000  pairsInfo */\n      0x09\n        /* \"contracts/Market.sol\":7991:8007  pairsInfo[_pair] */\n      0x20\n      swap1\n      dup2\n      mstore\n      0x40\n      dup1\n      dup4\n      keccak256\n        /* \"contracts/Market.sol\":7991:8015  pairsInfo[_pair].amountB */\n      0x03\n      add\n      sload\n      sub(shl(0xa0, 0x01), 0x01)\n        /* \"contracts/Market.sol\":7975:7987  bal[betterB] */\n      dup6\n      and\n      dup5\n      mstore\n        /* \"contracts/Market.sol\":7975:7978  bal */\n      0x06\n        /* \"contracts/Market.sol\":7975:7987  bal[betterB] */\n      swap1\n      swap3\n      mstore\n      dup3\n      keccak256\n        /* \"contracts/Market.sol\":7975:8015  bal[betterB] += pairsInfo[_pair].amountB */\n      dup1\n      sload\n        /* \"contracts/Market.sol\":7991:8015  pairsInfo[_pair].amountB */\n      swap2\n      swap3\n        /* \"contracts/Market.sol\":7975:7987  bal[betterB] */\n      swap1\n      swap2\n        /* \"contracts/Market.sol\":7975:8015  bal[betterB] += pairsInfo[_pair].amountB */\n      tag_318\n      swap1\n        /* \"contracts/Market.sol\":7991:8015  pairsInfo[_pair].amountB */\n      dup5\n      swap1\n        /* \"contracts/Market.sol\":7975:8015  bal[betterB] += pairsInfo[_pair].amountB */\n      tag_194\n      jump\t// in\n    tag_318:\n      swap1\n      swap2\n      sstore\n      pop\n      pop\n      pop\n        /* \"contracts/Market.sol\":8025:8041  pairsInfo[_pair] */\n      0x00\n      swap2\n      dup3\n      mstore\n      pop\n        /* \"contracts/Market.sol\":8025:8034  pairsInfo */\n      0x09\n        /* \"contracts/Market.sol\":8025:8041  pairsInfo[_pair] */\n      0x20\n      mstore\n      0x40\n      swap1\n      keccak256\n        /* \"contracts/Market.sol\":8025:8049  pairsInfo[_pair].settled */\n      0x04\n      add\n        /* \"contracts/Market.sol\":8025:8056  pairsInfo[_pair].settled = true */\n      dup1\n      sload\n      not(0xff)\n      and\n        /* \"contracts/Market.sol\":8052:8056  true */\n      0x01\n        /* \"contracts/Market.sol\":8025:8056  pairsInfo[_pair].settled = true */\n      or\n      swap1\n      sstore\n        /* \"contracts/Market.sol\":7731:8079  function _cancelPair(bytes32 _pair) private {... */\n      jump\t// out\n        /* \"contracts/Market.sol\":9489:10249  function _createBet(... */\n    tag_146:\n        /* \"contracts/Market.sol\":9688:9695  bytes32 */\n      0x00\n        /* \"contracts/Market.sol\":9711:9726  bytes32 betHash */\n      dup1\n        /* \"contracts/Market.sol\":9736:10058  while(true){... */\n    tag_320:\n        /* \"contracts/Market.sol\":9871:9875  bets */\n      0x03\n        /* \"contracts/Market.sol\":9871:9882  bets.length */\n      sload\n        /* \"contracts/Market.sol\":9781:9963  abi.encodePacked(... */\n      mload(0x40)\n      not(0xffffffffffffffffffffffff)\n        /* \"#utility.yul\":11073:11075   */\n      0x60\n        /* \"#utility.yul\":11069:11084   */\n      dup12\n      dup2\n      shl\n        /* \"#utility.yul\":11065:11089   */\n      dup3\n      and\n        /* \"contracts/Market.sol\":9781:9963  abi.encodePacked(... */\n      0x20\n      dup5\n      add\n        /* \"#utility.yul\":11053:11090   */\n      mstore\n        /* \"contracts/Market.sol\":9848:9852  this */\n      address\n        /* \"#utility.yul\":11124:11139   */\n      swap1\n      shl\n        /* \"#utility.yul\":11120:11144   */\n      and\n        /* \"#utility.yul\":11106:11118   */\n      0x34\n      dup3\n      add\n        /* \"#utility.yul\":11099:11145   */\n      mstore\n        /* \"#utility.yul\":11161:11173   */\n      0x48\n      dup2\n      add\n        /* \"#utility.yul\":11154:11182   */\n      swap2\n      swap1\n      swap2\n      mstore\n        /* \"contracts/Market.sol\":9900:9915  block.timestamp */\n      timestamp\n        /* \"#utility.yul\":11198:11210   */\n      0x68\n      dup3\n      add\n        /* \"#utility.yul\":11191:11219   */\n      mstore\n        /* \"contracts/Market.sol\":9933:9949  block.difficulty */\n      difficulty\n        /* \"#utility.yul\":11235:11248   */\n      0x88\n      dup3\n      add\n        /* \"#utility.yul\":11228:11257   */\n      mstore\n        /* \"#utility.yul\":11273:11286   */\n      0xa8\n      add\n        /* \"contracts/Market.sol\":9781:9963  abi.encodePacked(... */\n      0x40\n      dup1\n      mload\n      not(0x1f)\n      dup2\n      dup5\n      sub\n      add\n      dup2\n      mstore\n      swap2\n      dup2\n      mstore\n        /* \"contracts/Market.sol\":9771:9964  keccak256(abi.encodePacked(... */\n      dup2\n      mload\n        /* \"contracts/Market.sol\":9781:9963  abi.encodePacked(... */\n      0x20\n        /* \"contracts/Market.sol\":9771:9964  keccak256(abi.encodePacked(... */\n      swap3\n      dup4\n      add\n      keccak256\n        /* \"contracts/Market.sol\":9981:9998  betsInfo[betHash] */\n      0x00\n      dup2\n      dup2\n      mstore\n        /* \"contracts/Market.sol\":9981:9989  betsInfo */\n      0x07\n        /* \"contracts/Market.sol\":9981:9998  betsInfo[betHash] */\n      swap1\n      swap4\n      mstore\n      swap2\n      keccak256\n        /* \"contracts/Market.sol\":9981:10004  betsInfo[betHash].stake */\n      0x02\n      add\n      sload\n        /* \"contracts/Market.sol\":9771:9964  keccak256(abi.encodePacked(... */\n      swap1\n      swap2\n      pop\n        /* \"contracts/Market.sol\":9736:10058  while(true){... */\n      tag_320\n        /* \"contracts/Market.sol\":9978:10048  if(betsInfo[betHash].stake == 0){... */\n      jumpi\n        /* \"contracts/Market.sol\":10087:10149  MarketBet(_better, _affiliate, _stake, _matched, _odds, _side) */\n      0x40\n      dup1\n      mload\n      0xc0\n      dup2\n      add\n      dup3\n      mstore\n      sub(shl(0xa0, 0x01), 0x01)\n      swap10\n      dup11\n      and\n      dup1\n      dup3\n      mstore\n      swap9\n      dup11\n      and\n      0x20\n      dup1\n      dup4\n      add\n      swap2\n      dup3\n      mstore\n      dup3\n      dup5\n      add\n      swap10\n      dup11\n      mstore\n      0x60\n      dup4\n      add\n      swap9\n      dup10\n      mstore\n      0x80\n      dup4\n      add\n      swap8\n      dup9\n      mstore\n      0xa0\n      dup4\n      add\n      swap7\n      dup8\n      mstore\n      0x00\n        /* \"contracts/Market.sol\":10067:10084  betsInfo[betHash] */\n      dup6\n      dup2\n      mstore\n        /* \"contracts/Market.sol\":10067:10075  betsInfo */\n      0x07\n        /* \"contracts/Market.sol\":10067:10084  betsInfo[betHash] */\n      dup3\n      mstore\n      dup5\n      dup2\n      keccak256\n        /* \"contracts/Market.sol\":10067:10149  betsInfo[betHash] = MarketBet(_better, _affiliate, _stake, _matched, _odds, _side) */\n      swap4\n      mload\n      dup5\n      sload\n      swap1\n      dup15\n      and\n      not(sub(shl(0xa0, 0x01), 0x01))\n      swap2\n      dup3\n      and\n      or\n      dup6\n      sstore\n      swap3\n      mload\n      0x01\n      dup1\n      dup7\n      add\n      dup1\n      sload\n      swap3\n      swap1\n      swap16\n      and\n      swap2\n      swap1\n      swap5\n      and\n      or\n      swap1\n      swap13\n      sstore\n      swap9\n      mload\n      0x02\n      dup4\n      add\n      sstore\n      swap7\n      mload\n      0x03\n      dup1\n      dup4\n      add\n      swap2\n      swap1\n      swap2\n      sstore\n      swap6\n      mload\n      0x04\n      dup3\n      add\n      sstore\n      swap4\n      mload\n      0x05\n      swap1\n      swap5\n      add\n      swap4\n      swap1\n      swap4\n      sstore\n        /* \"contracts/Market.sol\":10159:10177  bets.push(betHash) */\n      dup4\n      sload\n      dup1\n      dup7\n      add\n      swap1\n      swap5\n      sstore\n      0xc2575a0e9e593c00f959f8c92f12db2869c3395a3b0502d05e2516446f71f85b\n      swap1\n      swap4\n      add\n      dup4\n      swap1\n      sstore\n      pop\n        /* \"contracts/Market.sol\":10187:10204  userBets[_better] */\n      swap4\n      dup6\n      mstore\n        /* \"contracts/Market.sol\":10187:10195  userBets */\n      0x08\n        /* \"contracts/Market.sol\":10187:10204  userBets[_better] */\n      dup4\n      mstore\n      swap3\n      dup5\n      keccak256\n        /* \"contracts/Market.sol\":10187:10218  userBets[_better].push(betHash) */\n      dup1\n      sload\n      swap2\n      dup3\n      add\n      dup2\n      sstore\n      dup5\n      mstore\n      swap3\n      keccak256\n      swap1\n      swap2\n      add\n      dup2\n      swap1\n      sstore\n        /* \"contracts/Market.sol\":10067:10084  betsInfo[betHash] */\n      swap1\n        /* \"contracts/Market.sol\":9489:10249  function _createBet(... */\n      jump\t// out\n        /* \"contracts/Market.sol\":10255:10940  function _createPair(... */\n    tag_174:\n        /* \"contracts/Market.sol\":10413:10420  bytes32 */\n      0x00\n        /* \"contracts/Market.sol\":10436:10452  bytes32 pairHash */\n      dup1\n        /* \"contracts/Market.sol\":10462:10788  while(true){... */\n    tag_328:\n        /* \"contracts/Market.sol\":10596:10601  pairs */\n      0x02\n        /* \"contracts/Market.sol\":10596:10608  pairs.length */\n      sload\n        /* \"contracts/Market.sol\":10508:10689  abi.encodePacked(... */\n      0x40\n      dup1\n      mload\n      0x20\n      dup2\n      add\n        /* \"#utility.yul\":11538:11557   */\n      dup10\n      swap1\n      mstore\n        /* \"#utility.yul\":11573:11585   */\n      swap1\n      dup2\n      add\n        /* \"#utility.yul\":11566:11594   */\n      dup8\n      swap1\n      mstore\n        /* \"#utility.yul\":11610:11622   */\n      0x60\n      dup2\n      add\n        /* \"#utility.yul\":11603:11631   */\n      swap2\n      swap1\n      swap2\n      mstore\n        /* \"contracts/Market.sol\":10626:10641  block.timestamp */\n      timestamp\n        /* \"#utility.yul\":11647:11659   */\n      0x80\n      dup3\n      add\n        /* \"#utility.yul\":11640:11668   */\n      mstore\n        /* \"contracts/Market.sol\":10659:10675  block.difficulty */\n      difficulty\n        /* \"#utility.yul\":11684:11697   */\n      0xa0\n      dup3\n      add\n        /* \"#utility.yul\":11677:11706   */\n      mstore\n        /* \"#utility.yul\":11722:11735   */\n      0xc0\n      add\n        /* \"contracts/Market.sol\":10508:10689  abi.encodePacked(... */\n      0x40\n      dup1\n      mload\n      not(0x1f)\n      dup2\n      dup5\n      sub\n      add\n      dup2\n      mstore\n      swap2\n      dup2\n      mstore\n        /* \"contracts/Market.sol\":10498:10690  keccak256(abi.encodePacked(... */\n      dup2\n      mload\n        /* \"contracts/Market.sol\":10508:10689  abi.encodePacked(... */\n      0x20\n        /* \"contracts/Market.sol\":10498:10690  keccak256(abi.encodePacked(... */\n      swap3\n      dup4\n      add\n      keccak256\n        /* \"contracts/Market.sol\":10707:10726  pairsInfo[pairHash] */\n      0x00\n      dup2\n      dup2\n      mstore\n        /* \"contracts/Market.sol\":10707:10716  pairsInfo */\n      0x09\n        /* \"contracts/Market.sol\":10707:10726  pairsInfo[pairHash] */\n      swap1\n      swap4\n      mstore\n      swap2\n      keccak256\n        /* \"contracts/Market.sol\":10707:10734  pairsInfo[pairHash].amountA */\n      0x02\n      add\n      sload\n        /* \"contracts/Market.sol\":10498:10690  keccak256(abi.encodePacked(... */\n      swap1\n      swap2\n      pop\n        /* \"contracts/Market.sol\":10462:10788  while(true){... */\n      tag_328\n        /* \"contracts/Market.sol\":10704:10778  if(pairsInfo[pairHash].amountA == 0){... */\n      jumpi\n        /* \"contracts/Market.sol\":10819:10878  MarketPair(_betHashA, _betHashB, _amountA, _amountB, false) */\n      0x40\n      dup1\n      mload\n      0xa0\n      dup2\n      add\n      dup3\n      mstore\n      swap7\n      dup8\n      mstore\n      0x20\n      dup1\n      dup9\n      add\n      swap7\n      dup8\n      mstore\n      dup8\n      dup3\n      add\n      swap6\n      dup7\n      mstore\n      0x60\n      dup9\n      add\n      swap5\n      dup6\n      mstore\n      0x00\n      0x80\n      dup10\n      add\n      dup2\n      dup2\n      mstore\n        /* \"contracts/Market.sol\":10797:10816  pairsInfo[pairHash] */\n      dup5\n      dup3\n      mstore\n        /* \"contracts/Market.sol\":10797:10806  pairsInfo */\n      0x09\n        /* \"contracts/Market.sol\":10797:10816  pairsInfo[pairHash] */\n      swap1\n      swap3\n      mstore\n      swap2\n      dup3\n      keccak256\n        /* \"contracts/Market.sol\":10797:10878  pairsInfo[pairHash] = MarketPair(_betHashA, _betHashB, _amountA, _amountB, false) */\n      swap8\n      mload\n      dup9\n      sstore\n      swap6\n      mload\n        /* \"contracts/Market.sol\":10819:10878  MarketPair(_betHashA, _betHashB, _amountA, _amountB, false) */\n      0x01\n        /* \"contracts/Market.sol\":10797:10878  pairsInfo[pairHash] = MarketPair(_betHashA, _betHashB, _amountA, _amountB, false) */\n      dup1\n      dup10\n      add\n      swap2\n      swap1\n      swap2\n      sstore\n      swap5\n      mload\n      0x02\n      dup1\n      dup10\n      add\n      swap2\n      swap1\n      swap2\n      sstore\n      swap4\n      mload\n      0x03\n      dup9\n      add\n      sstore\n      swap5\n      mload\n      0x04\n      swap1\n      swap7\n      add\n      dup1\n      sload\n      not(0xff)\n      and\n      swap7\n      iszero\n      iszero\n      swap7\n      swap1\n      swap7\n      or\n      swap1\n      swap6\n      sstore\n      pop\n        /* \"contracts/Market.sol\":10888:10908  pairs.push(pairHash) */\n      dup1\n      sload\n      swap2\n      dup3\n      add\n      dup2\n      sstore\n      swap1\n      swap2\n      mstore\n      0x405787fa12a823e0f2b7631cc41b3ba8828b3321ca811111fa75cd3aa3bb5ace\n      add\n      dup2\n      swap1\n      sstore\n        /* \"contracts/Market.sol\":10797:10816  pairsInfo[pairHash] */\n      swap1\n        /* \"contracts/Market.sol\":10255:10940  function _createPair(... */\n      jump\t// out\n        /* \"#utility.yul\":196:327   */\n    tag_334:\n      sub(shl(0xa0, 0x01), 0x01)\n        /* \"#utility.yul\":271:302   */\n      dup2\n      and\n        /* \"#utility.yul\":261:303   */\n      dup2\n      eq\n        /* \"#utility.yul\":251:321   */\n      tag_340\n      jumpi\n        /* \"#utility.yul\":317:318   */\n      0x00\n        /* \"#utility.yul\":314:315   */\n      dup1\n        /* \"#utility.yul\":307:319   */\n      revert\n        /* \"#utility.yul\":251:321   */\n    tag_340:\n        /* \"#utility.yul\":196:327   */\n      pop\n      jump\t// out\n        /* \"#utility.yul\":332:579   */\n    tag_22:\n        /* \"#utility.yul\":391:397   */\n      0x00\n        /* \"#utility.yul\":444:446   */\n      0x20\n        /* \"#utility.yul\":432:441   */\n      dup3\n        /* \"#utility.yul\":423:430   */\n      dup5\n        /* \"#utility.yul\":419:442   */\n      sub\n        /* \"#utility.yul\":415:447   */\n      slt\n        /* \"#utility.yul\":412:464   */\n      iszero\n      tag_342\n      jumpi\n        /* \"#utility.yul\":460:461   */\n      0x00\n        /* \"#utility.yul\":457:458   */\n      dup1\n        /* \"#utility.yul\":450:462   */\n      revert\n        /* \"#utility.yul\":412:464   */\n    tag_342:\n        /* \"#utility.yul\":499:508   */\n      dup2\n        /* \"#utility.yul\":486:509   */\n      calldataload\n        /* \"#utility.yul\":518:549   */\n      tag_343\n        /* \"#utility.yul\":543:548   */\n      dup2\n        /* \"#utility.yul\":518:549   */\n      tag_334\n      jump\t// in\n    tag_343:\n        /* \"#utility.yul\":568:573   */\n      swap4\n        /* \"#utility.yul\":332:579   */\n      swap3\n      pop\n      pop\n      pop\n      jump\t// out\n        /* \"#utility.yul\":584:1731   */\n    tag_25:\n        /* \"#utility.yul\":809:811   */\n      0x20\n        /* \"#utility.yul\":861:882   */\n      dup1\n      dup3\n      mstore\n        /* \"#utility.yul\":931:944   */\n      dup3\n      mload\n        /* \"#utility.yul\":834:852   */\n      dup3\n      dup3\n      add\n        /* \"#utility.yul\":953:975   */\n      dup2\n      swap1\n      mstore\n        /* \"#utility.yul\":780:784   */\n      0x00\n      swap2\n        /* \"#utility.yul\":809:811   */\n      swap1\n        /* \"#utility.yul\":994:996   */\n      0x40\n      swap1\n        /* \"#utility.yul\":1012:1030   */\n      dup2\n      dup6\n      add\n      swap1\n        /* \"#utility.yul\":1053:1068   */\n      dup7\n      dup5\n      add\n        /* \"#utility.yul\":780:784   */\n      dup6\n        /* \"#utility.yul\":1096:1705   */\n    tag_345:\n        /* \"#utility.yul\":1110:1116   */\n      dup3\n        /* \"#utility.yul\":1107:1108   */\n      dup2\n        /* \"#utility.yul\":1104:1117   */\n      lt\n        /* \"#utility.yul\":1096:1705   */\n      iszero\n      tag_347\n      jumpi\n        /* \"#utility.yul\":1169:1182   */\n      dup2\n      mload\n        /* \"#utility.yul\":1253:1262   */\n      dup1\n      mload\n      sub(shl(0xa0, 0x01), 0x01)\n        /* \"#utility.yul\":1249:1267   */\n      swap1\n      dup2\n      and\n        /* \"#utility.yul\":1237:1268   */\n      dup7\n      mstore\n        /* \"#utility.yul\":1312:1323   */\n      dup8\n      dup3\n      add\n        /* \"#utility.yul\":1306:1324   */\n      mload\n        /* \"#utility.yul\":1302:1329   */\n      and\n        /* \"#utility.yul\":1288:1300   */\n      dup8\n      dup7\n      add\n        /* \"#utility.yul\":1281:1330   */\n      mstore\n        /* \"#utility.yul\":1370:1381   */\n      dup6\n      dup2\n      add\n        /* \"#utility.yul\":1364:1382   */\n      mload\n        /* \"#utility.yul\":1350:1362   */\n      dup7\n      dup7\n      add\n        /* \"#utility.yul\":1343:1383   */\n      mstore\n        /* \"#utility.yul\":1406:1410   */\n      0x60\n        /* \"#utility.yul\":1450:1461   */\n      dup1\n      dup3\n      add\n        /* \"#utility.yul\":1444:1462   */\n      mload\n        /* \"#utility.yul\":1430:1442   */\n      swap1\n      dup7\n      add\n        /* \"#utility.yul\":1423:1463   */\n      mstore\n        /* \"#utility.yul\":1486:1490   */\n      0x80\n        /* \"#utility.yul\":1530:1541   */\n      dup1\n      dup3\n      add\n        /* \"#utility.yul\":1524:1542   */\n      mload\n        /* \"#utility.yul\":1510:1522   */\n      swap1\n      dup7\n      add\n        /* \"#utility.yul\":1503:1543   */\n      mstore\n        /* \"#utility.yul\":1213:1216   */\n      0xa0\n        /* \"#utility.yul\":1610:1621   */\n      swap1\n      dup2\n      add\n        /* \"#utility.yul\":1604:1622   */\n      mload\n        /* \"#utility.yul\":1590:1602   */\n      swap1\n      dup6\n      add\n        /* \"#utility.yul\":1583:1623   */\n      mstore\n        /* \"#utility.yul\":1652:1656   */\n      0xc0\n        /* \"#utility.yul\":1643:1657   */\n      swap1\n      swap4\n      add\n      swap3\n        /* \"#utility.yul\":1680:1695   */\n      swap1\n      dup6\n      add\n      swap1\n        /* \"#utility.yul\":1222:1223   */\n      0x01\n        /* \"#utility.yul\":1125:1134   */\n      add\n        /* \"#utility.yul\":1096:1705   */\n      jump(tag_345)\n    tag_347:\n      pop\n        /* \"#utility.yul\":1722:1725   */\n      swap2\n      swap8\n        /* \"#utility.yul\":584:1731   */\n      swap7\n      pop\n      pop\n      pop\n      pop\n      pop\n      pop\n      pop\n      jump\t// out\n        /* \"#utility.yul\":1928:2108   */\n    tag_33:\n        /* \"#utility.yul\":1987:1993   */\n      0x00\n        /* \"#utility.yul\":2040:2042   */\n      0x20\n        /* \"#utility.yul\":2028:2037   */\n      dup3\n        /* \"#utility.yul\":2019:2026   */\n      dup5\n        /* \"#utility.yul\":2015:2038   */\n      sub\n        /* \"#utility.yul\":2011:2043   */\n      slt\n        /* \"#utility.yul\":2008:2060   */\n      iszero\n      tag_350\n      jumpi\n        /* \"#utility.yul\":2056:2057   */\n      0x00\n        /* \"#utility.yul\":2053:2054   */\n      dup1\n        /* \"#utility.yul\":2046:2058   */\n      revert\n        /* \"#utility.yul\":2008:2060   */\n    tag_350:\n      pop\n        /* \"#utility.yul\":2079:2102   */\n      calldataload\n      swap2\n        /* \"#utility.yul\":1928:2108   */\n      swap1\n      pop\n      jump\t// out\n        /* \"#utility.yul\":2113:2231   */\n    tag_335:\n        /* \"#utility.yul\":2199:2204   */\n      dup1\n        /* \"#utility.yul\":2192:2205   */\n      iszero\n        /* \"#utility.yul\":2185:2206   */\n      iszero\n        /* \"#utility.yul\":2178:2183   */\n      dup2\n        /* \"#utility.yul\":2175:2207   */\n      eq\n        /* \"#utility.yul\":2165:2225   */\n      tag_340\n      jumpi\n        /* \"#utility.yul\":2221:2222   */\n      0x00\n        /* \"#utility.yul\":2218:2219   */\n      dup1\n        /* \"#utility.yul\":2211:2223   */\n      revert\n        /* \"#utility.yul\":2236:2966   */\n    tag_40:\n        /* \"#utility.yul\":2337:2343   */\n      0x00\n        /* \"#utility.yul\":2345:2351   */\n      dup1\n        /* \"#utility.yul\":2353:2359   */\n      0x00\n        /* \"#utility.yul\":2361:2367   */\n      dup1\n        /* \"#utility.yul\":2369:2375   */\n      0x00\n        /* \"#utility.yul\":2377:2383   */\n      dup1\n        /* \"#utility.yul\":2430:2433   */\n      0xc0\n        /* \"#utility.yul\":2418:2427   */\n      dup8\n        /* \"#utility.yul\":2409:2416   */\n      dup10\n        /* \"#utility.yul\":2405:2428   */\n      sub\n        /* \"#utility.yul\":2401:2434   */\n      slt\n        /* \"#utility.yul\":2398:2451   */\n      iszero\n      tag_354\n      jumpi\n        /* \"#utility.yul\":2447:2448   */\n      0x00\n        /* \"#utility.yul\":2444:2445   */\n      dup1\n        /* \"#utility.yul\":2437:2449   */\n      revert\n        /* \"#utility.yul\":2398:2451   */\n    tag_354:\n        /* \"#utility.yul\":2486:2495   */\n      dup7\n        /* \"#utility.yul\":2473:2496   */\n      calldataload\n        /* \"#utility.yul\":2505:2536   */\n      tag_355\n        /* \"#utility.yul\":2530:2535   */\n      dup2\n        /* \"#utility.yul\":2505:2536   */\n      tag_334\n      jump\t// in\n    tag_355:\n        /* \"#utility.yul\":2555:2560   */\n      swap6\n      pop\n        /* \"#utility.yul\":2612:2614   */\n      0x20\n        /* \"#utility.yul\":2597:2615   */\n      dup8\n      add\n        /* \"#utility.yul\":2584:2616   */\n      calldataload\n        /* \"#utility.yul\":2625:2658   */\n      tag_356\n        /* \"#utility.yul\":2584:2616   */\n      dup2\n        /* \"#utility.yul\":2625:2658   */\n      tag_334\n      jump\t// in\n    tag_356:\n        /* \"#utility.yul\":2677:2684   */\n      swap5\n      pop\n        /* \"#utility.yul\":2731:2733   */\n      0x40\n        /* \"#utility.yul\":2716:2734   */\n      dup8\n      add\n        /* \"#utility.yul\":2703:2735   */\n      calldataload\n      swap4\n      pop\n        /* \"#utility.yul\":2782:2784   */\n      0x60\n        /* \"#utility.yul\":2767:2785   */\n      dup8\n      add\n        /* \"#utility.yul\":2754:2786   */\n      calldataload\n      swap3\n      pop\n        /* \"#utility.yul\":2833:2836   */\n      0x80\n        /* \"#utility.yul\":2818:2837   */\n      dup8\n      add\n        /* \"#utility.yul\":2805:2838   */\n      calldataload\n      swap2\n      pop\n        /* \"#utility.yul\":2890:2893   */\n      0xa0\n        /* \"#utility.yul\":2875:2894   */\n      dup8\n      add\n        /* \"#utility.yul\":2862:2895   */\n      calldataload\n        /* \"#utility.yul\":2904:2934   */\n      tag_357\n        /* \"#utility.yul\":2862:2895   */\n      dup2\n        /* \"#utility.yul\":2904:2934   */\n      tag_335\n      jump\t// in\n    tag_357:\n        /* \"#utility.yul\":2953:2960   */\n      dup1\n        /* \"#utility.yul\":2943:2960   */\n      swap2\n      pop\n      pop\n        /* \"#utility.yul\":2236:2966   */\n      swap3\n      swap6\n      pop\n      swap3\n      swap6\n      pop\n      swap3\n      swap6\n      jump\t// out\n        /* \"#utility.yul\":3996:4123   */\n    tag_76:\n        /* \"#utility.yul\":4057:4067   */\n      0x4e487b71\n        /* \"#utility.yul\":4052:4055   */\n      0xe0\n        /* \"#utility.yul\":4048:4068   */\n      shl\n        /* \"#utility.yul\":4045:4046   */\n      0x00\n        /* \"#utility.yul\":4038:4069   */\n      mstore\n        /* \"#utility.yul\":4088:4092   */\n      0x32\n        /* \"#utility.yul\":4085:4086   */\n      0x04\n        /* \"#utility.yul\":4078:4093   */\n      mstore\n        /* \"#utility.yul\":4112:4116   */\n      0x24\n        /* \"#utility.yul\":4109:4110   */\n      0x00\n        /* \"#utility.yul\":4102:4117   */\n      revert\n        /* \"#utility.yul\":4128:4255   */\n    tag_336:\n        /* \"#utility.yul\":4189:4199   */\n      0x4e487b71\n        /* \"#utility.yul\":4184:4187   */\n      0xe0\n        /* \"#utility.yul\":4180:4200   */\n      shl\n        /* \"#utility.yul\":4177:4178   */\n      0x00\n        /* \"#utility.yul\":4170:4201   */\n      mstore\n        /* \"#utility.yul\":4220:4224   */\n      0x11\n        /* \"#utility.yul\":4217:4218   */\n      0x04\n        /* \"#utility.yul\":4210:4225   */\n      mstore\n        /* \"#utility.yul\":4244:4248   */\n      0x24\n        /* \"#utility.yul\":4241:4242   */\n      0x00\n        /* \"#utility.yul\":4234:4249   */\n      revert\n        /* \"#utility.yul\":4260:4395   */\n    tag_80:\n        /* \"#utility.yul\":4299:4302   */\n      0x00\n        /* \"#utility.yul\":4320:4337   */\n      0x01\n      dup3\n      add\n        /* \"#utility.yul\":4317:4360   */\n      tag_368\n      jumpi\n        /* \"#utility.yul\":4340:4358   */\n      tag_368\n      tag_336\n      jump\t// in\n    tag_368:\n      pop\n        /* \"#utility.yul\":4387:4388   */\n      0x01\n        /* \"#utility.yul\":4376:4389   */\n      add\n      swap1\n        /* \"#utility.yul\":4260:4395   */\n      jump\t// out\n        /* \"#utility.yul\":4400:4755   */\n    tag_84:\n        /* \"#utility.yul\":4602:4604   */\n      0x20\n        /* \"#utility.yul\":4584:4605   */\n      dup1\n      dup3\n      mstore\n        /* \"#utility.yul\":4641:4643   */\n      0x1f\n        /* \"#utility.yul\":4621:4639   */\n      swap1\n      dup3\n      add\n        /* \"#utility.yul\":4614:4644   */\n      mstore\n        /* \"#utility.yul\":4680:4713   */\n      0x5265656e7472616e637947756172643a207265656e7472616e742063616c6c00\n        /* \"#utility.yul\":4675:4677   */\n      0x40\n        /* \"#utility.yul\":4660:4678   */\n      dup3\n      add\n        /* \"#utility.yul\":4653:4714   */\n      mstore\n        /* \"#utility.yul\":4746:4748   */\n      0x60\n        /* \"#utility.yul\":4731:4749   */\n      add\n      swap1\n        /* \"#utility.yul\":4400:4755   */\n      jump\t// out\n        /* \"#utility.yul\":4760:4944   */\n    tag_90:\n        /* \"#utility.yul\":4830:4836   */\n      0x00\n        /* \"#utility.yul\":4883:4885   */\n      0x20\n        /* \"#utility.yul\":4871:4880   */\n      dup3\n        /* \"#utility.yul\":4862:4869   */\n      dup5\n        /* \"#utility.yul\":4858:4881   */\n      sub\n        /* \"#utility.yul\":4854:4886   */\n      slt\n        /* \"#utility.yul\":4851:4903   */\n      iszero\n      tag_371\n      jumpi\n        /* \"#utility.yul\":4899:4900   */\n      0x00\n        /* \"#utility.yul\":4896:4897   */\n      dup1\n        /* \"#utility.yul\":4889:4901   */\n      revert\n        /* \"#utility.yul\":4851:4903   */\n    tag_371:\n      pop\n        /* \"#utility.yul\":4922:4938   */\n      mload\n      swap2\n        /* \"#utility.yul\":4760:4944   */\n      swap1\n      pop\n      jump\t// out\n        /* \"#utility.yul\":5562:5807   */\n    tag_100:\n        /* \"#utility.yul\":5629:5635   */\n      0x00\n        /* \"#utility.yul\":5682:5684   */\n      0x20\n        /* \"#utility.yul\":5670:5679   */\n      dup3\n        /* \"#utility.yul\":5661:5668   */\n      dup5\n        /* \"#utility.yul\":5657:5680   */\n      sub\n        /* \"#utility.yul\":5653:5685   */\n      slt\n        /* \"#utility.yul\":5650:5702   */\n      iszero\n      tag_375\n      jumpi\n        /* \"#utility.yul\":5698:5699   */\n      0x00\n        /* \"#utility.yul\":5695:5696   */\n      dup1\n        /* \"#utility.yul\":5688:5700   */\n      revert\n        /* \"#utility.yul\":5650:5702   */\n    tag_375:\n        /* \"#utility.yul\":5730:5739   */\n      dup2\n        /* \"#utility.yul\":5724:5740   */\n      mload\n        /* \"#utility.yul\":5749:5777   */\n      tag_343\n        /* \"#utility.yul\":5771:5776   */\n      dup2\n        /* \"#utility.yul\":5749:5777   */\n      tag_335\n      jump\t// in\n        /* \"#utility.yul\":6149:6277   */\n    tag_105:\n        /* \"#utility.yul\":6216:6225   */\n      dup2\n      dup2\n      sub\n        /* \"#utility.yul\":6237:6248   */\n      dup2\n      dup2\n      gt\n        /* \"#utility.yul\":6234:6271   */\n      iszero\n      tag_380\n      jumpi\n        /* \"#utility.yul\":6251:6269   */\n      tag_380\n      tag_336\n      jump\t// in\n    tag_380:\n        /* \"#utility.yul\":6149:6277   */\n      swap3\n      swap2\n      pop\n      pop\n      jump\t// out\n        /* \"#utility.yul\":7295:7512   */\n    tag_167:\n        /* \"#utility.yul\":7335:7336   */\n      0x00\n        /* \"#utility.yul\":7361:7362   */\n      dup3\n        /* \"#utility.yul\":7351:7483   */\n      tag_385\n      jumpi\n        /* \"#utility.yul\":7405:7415   */\n      0x4e487b71\n        /* \"#utility.yul\":7400:7403   */\n      0xe0\n        /* \"#utility.yul\":7396:7416   */\n      shl\n        /* \"#utility.yul\":7393:7394   */\n      0x00\n        /* \"#utility.yul\":7386:7417   */\n      mstore\n        /* \"#utility.yul\":7440:7444   */\n      0x12\n        /* \"#utility.yul\":7437:7438   */\n      0x04\n        /* \"#utility.yul\":7430:7445   */\n      mstore\n        /* \"#utility.yul\":7468:7472   */\n      0x24\n        /* \"#utility.yul\":7465:7466   */\n      0x00\n        /* \"#utility.yul\":7458:7473   */\n      revert\n        /* \"#utility.yul\":7351:7483   */\n    tag_385:\n      pop\n        /* \"#utility.yul\":7497:7506   */\n      div\n      swap1\n        /* \"#utility.yul\":7295:7512   */\n      jump\t// out\n        /* \"#utility.yul\":7517:7685   */\n    tag_171:\n        /* \"#utility.yul\":7590:7599   */\n      dup1\n      dup3\n      mul\n        /* \"#utility.yul\":7621:7630   */\n      dup2\n      iszero\n        /* \"#utility.yul\":7638:7653   */\n      dup3\n      dup3\n      div\n        /* \"#utility.yul\":7632:7654   */\n      dup5\n      eq\n        /* \"#utility.yul\":7618:7655   */\n      or\n        /* \"#utility.yul\":7608:7679   */\n      tag_380\n      jumpi\n        /* \"#utility.yul\":7659:7677   */\n      tag_380\n      tag_336\n      jump\t// in\n        /* \"#utility.yul\":8086:8211   */\n    tag_194:\n        /* \"#utility.yul\":8151:8160   */\n      dup1\n      dup3\n      add\n        /* \"#utility.yul\":8172:8182   */\n      dup1\n      dup3\n      gt\n        /* \"#utility.yul\":8169:8205   */\n      iszero\n      tag_380\n      jumpi\n        /* \"#utility.yul\":8185:8203   */\n      tag_380\n      tag_336\n      jump\t// in\n        /* \"#utility.yul\":10506:10757   */\n    tag_290:\n        /* \"#utility.yul\":10576:10582   */\n      0x00\n        /* \"#utility.yul\":10629:10631   */\n      0x20\n        /* \"#utility.yul\":10617:10626   */\n      dup3\n        /* \"#utility.yul\":10608:10615   */\n      dup5\n        /* \"#utility.yul\":10604:10627   */\n      sub\n        /* \"#utility.yul\":10600:10632   */\n      slt\n        /* \"#utility.yul\":10597:10649   */\n      iszero\n      tag_400\n      jumpi\n        /* \"#utility.yul\":10645:10646   */\n      0x00\n        /* \"#utility.yul\":10642:10643   */\n      dup1\n        /* \"#utility.yul\":10635:10647   */\n      revert\n        /* \"#utility.yul\":10597:10649   */\n    tag_400:\n        /* \"#utility.yul\":10677:10686   */\n      dup2\n        /* \"#utility.yul\":10671:10687   */\n      mload\n        /* \"#utility.yul\":10696:10727   */\n      tag_343\n        /* \"#utility.yul\":10721:10726   */\n      dup2\n        /* \"#utility.yul\":10696:10727   */\n      tag_334\n      jump\t// in\n\n    auxdata: 0xa26469706673582212204111b58b2832413a56c557cfc9b12f7122a946ff5944624c94ba4f915746938264736f6c63430008110033\n}\n",
				"bytecode": {
					"linkReferences": {},
					"object": "60c060405260006005556001546001600160a01b031660a05234801561002457600080fd5b506001600081905580546001600160a01b031916339081179091556040805162966ed960e31b815290516304b376c8916004808201926020929091908290030181865afa158015610079573d6000803e3d6000fd5b505050506040513d601f19601f8201168201806040525081019061009d91906100ae565b6001600160a01b03166080526100de565b6000602082840312156100c057600080fd5b81516001600160a01b03811681146100d757600080fd5b9392505050565b60805160a051611dd26200015f60003960008181610173015281816106cc01528181611003015281816110c3015281816111e4015281816112a4015281816113bf015281816114750152818161150f015281816115c901528181611663015261171d0152600081816101ee015281816103a7015261047d0152611dd26000f3fe608060405234801561001057600080fd5b50600436106100b45760003560e01c8063893372ca11610071578063893372ca146101485780638df828001461015b578063b76564bd1461016e578063c45a0155146101ad578063f8b2cb4f146101c0578063fc0c546a146101e957600080fd5b8063200d2ed2146100b95780632d56657d146100d557806351cff8d9146100f5578063675f6537146101185780636bfefd6b1461012d57806378d65b2f14610135575b600080fd5b6100c260055481565b6040519081526020015b60405180910390f35b6100e86100e3366004611b32565b610210565b6040516100cc9190611b56565b610108610103366004611b32565b610344565b60405190151581526020016100cc565b61012b610126366004611bda565b610564565b005b61010861060f565b6100c2610143366004611c01565b6106b4565b61012b610156366004611bda565b610c87565b610108610169366004611bda565b610e05565b6101957f000000000000000000000000000000000000000000000000000000000000000081565b6040516001600160a01b0390911681526020016100cc565b600154610195906001600160a01b031681565b6100c26101ce366004611b32565b6001600160a01b031660009081526006602052604090205490565b6101957f000000000000000000000000000000000000000000000000000000000000000081565b6001600160a01b038116600090815260086020908152604080832080548251818502810185019093528083526060948594909392919083018282801561027557602002820191906000526020600020905b815481526020019060010190808311610261575b5050505050905060005b60035481101561033b576007600083838151811061029f5761029f611c68565b6020908102919091018101518252818101929092526040908101600020815160c08101835281546001600160a01b0390811682526001830154169381019390935260028101549183019190915260038101546060830152600481015460808301526005015460a0820152835184908390811061031d5761031d611c68565b6020026020010181905250808061033390611c94565b91505061027f565b50909392505050565b60006002600054036103715760405162461bcd60e51b815260040161036890611cad565b60405180910390fd5b600260009081556001600160a01b03838116825260066020526040918290205491516370a0823160e01b815230600482015282917f000000000000000000000000000000000000000000000000000000000000000016906370a0823190602401602060405180830381865afa1580156103ee573d6000803e3d6000fd5b505050506040513d601f19601f820116820180604052508101906104129190611ce4565b11801561041f5750600081115b6104545760405162461bcd60e51b81526020600482015260066024820152650f08199d5b9960d21b6044820152606401610368565b60405163a9059cbb60e01b81526001600160a01b038481166004830152602482018390526000917f00000000000000000000000000000000000000000000000000000000000000009091169063a9059cbb906044016020604051808303816000875af11580156104c8573d6000803e3d6000fd5b505050506040513d601f19601f820116820180604052508101906104ec9190611cfd565b9050806105275760405162461bcd60e51b8152602060048201526009602482015268151e0811985a5b195960ba1b6044820152606401610368565b6001600160a01b0384166000908152600660205260408120805484929061054f908490611d1a565b90915550600193505050506001600055919050565b6000818152600a60209081526040808320805482518185028101850190935280835291929091908301828280156105ba57602002820191906000526020600020905b8154815260200190600101908083116105a6575b5050505050905060005b8151811015610601576105ef8282815181106105e2576105e2611c68565b6020026020010151610eee565b806105f981611c94565b9150506105c4565b503360005260066020525050565b6001546000906001600160a01b031633146106565760405162461bcd60e51b81526020600482015260076024820152666f776e6572206f60c81b6044820152606401610368565b6005541561066357600080fd5b60005b6002548110156106a8576106966002828154811061068657610686611c68565b9060005260206000200154611806565b806106a081611c94565b915050610666565b50506003600555600190565b60405163332daccf60e01b81523360048201526000907f00000000000000000000000000000000000000000000000000000000000000006001600160a01b03169063332daccf90602401602060405180830381865afa15801561071b573d6000803e3d6000fd5b505050506040513d601f19601f8201168201806040525081019061073f9190611cfd565b156107785760405162461bcd60e51b8152602060048201526009602482015268189b1858dadb1a5cdd60ba1b6044820152606401610368565b82600114806107875750826002145b6107c25760405162461bcd60e51b815260206004820152600c60248201526b696e76616c6964207369646560a01b6044820152606401610368565b60006107d3888888600089896118c1565b60045490915015610bf157855b670de0b6b3a76400008110610beb5760008060005b60045481101561088c5760006004828154811061081457610814611c68565b9060005260206000200154905060076000828152602001908152602001600020600501548903610844575061087a565b6000818152600760205260409020600401548310156108785760008181526007602052604090206004015491935090915082905b505b8061088481611c94565b9150506107f5565b50878111806108985750855b15610ba8576000600483815481106108b2576108b2611c68565b6000918252602080832090910154808352600782526040808420815160c08101835281546001600160a01b0390811682526001808401549091169582019590955260028201549281019290925260038101546060830152600481015460808301526005015460a0820152909350919061092b908c611d1a565b8260600151836040015161093f9190611d1a565b6109499190611d33565b905060008060008e8411610a375783925061096560018f611d1a565b61096f9085611d55565b91508c6001036109d6576109858a878585611a1b565b604080518c815260208101899052908101859052606081018490529091507f5de48bb383b4a2aaad84721b80d93429b813651b0eefbd59d32018cfe28215dc906080015b60405180910390a1610ac6565b8c600203610a32576109ea868b8486611a1b565b60408051888152602081018d9052908101849052606081018590529091507f5de48bb383b4a2aaad84721b80d93429b813651b0eefbd59d32018cfe28215dc906080016109c9565b610ac6565b8e9250610a4560018f611d1a565b8f610a509190611d55565b91508c600103610a66576109858a878585611a1b565b8c600203610ac657610a7a868b8486611a1b565b60408051888152602081018d9052908101849052606081018590529091507f5de48bb383b4a2aaad84721b80d93429b813651b0eefbd59d32018cfe28215dc9060800160405180910390a15b60008a8152600a6020908152604080832080546001818101835591855283852001859055898452818420805491820181558452828420018490558c8352600790915281206003018054859290610b1d908490611d6c565b909155505060008681526007602052604081206003018054849290610b43908490611d6c565b909155505060008681526007602052604090206003810154600290910154610b6b9190611d1a565b600003610b915760048881548110610b8557610b85611c68565b60009182526020822001555b610b9b838a611d1a565b9850505050505050610be4565b5050600480546001810182556000919091527f8a35acfbc15ff81a39ae7d344fd709f28e8600b4aa8c65c6b64bfe7fe36bd19b01829055610beb565b50506107e0565b50610c27565b600480546001810182556000919091527f8a35acfbc15ff81a39ae7d344fd709f28e8600b4aa8c65c6b64bfe7fe36bd19b018190555b60408051338152306020820152908101829052606081018790526080810186905260a081018590527f618f358bb45538682ade624a4a1959053d9dabd20fe300508034b879681b37be9060c00160405180910390a1979650505050505050565b600260005403610ca95760405162461bcd60e51b815260040161036890611cad565b6002600081815582815260076020908152604091829020825160c08101845281546001600160a01b039081168083526001840154909116938201939093529381015492840192909252600382015460608401526004820154608084015260059091015460a08301523314610d505760405162461bcd60e51b815260206004820152600e60248201526d626574206f776e6572206f6e6c7960901b6044820152606401610368565b600081606001518260400151610d669190611d1a565b82516001600160a01b031660009081526006602090815260408083208490558086015187845260079092528220600301559091505b600454811015610dfa578360048281548110610db957610db9611c68565b906000526020600020015403610de85760048181548110610ddc57610ddc611c68565b60009182526020822001555b80610df281611c94565b915050610d9b565b505060016000555050565b6001546000906001600160a01b03163314610e4c5760405162461bcd60e51b81526020600482015260076024820152666f776e6572206f60c81b6044820152606401610368565b600554158015610e6657508160011480610e665750816002145b610e9b5760405162461bcd60e51b815260206004820152600660248201526510bc103bb4b760d11b6044820152606401610368565b600582905560005b600254811015610ee557610ed360028281548110610ec357610ec3611c68565b9060005260206000200154610eee565b80610edd81611c94565b915050610ea3565b50600192915050565b600260005403610f105760405162461bcd60e51b815260040161036890611cad565b600260009081558181526009602052604090206004015460ff1615610f695760405162461bcd60e51b815260206004820152600f60248201526e185b1c9958591e481cd95d1d1b1959608a1b6044820152606401610368565b60055460011480610f7c57506005546002145b610fb65760405162461bcd60e51b815260206004820152600b60248201526a1dda5b881b9bdd081cd95d60aa1b6044820152606401610368565b60008060008060055460010361119a57600085815260096020908152604080832054835260078252918290205482516355c4a8bf60e01b815292516001600160a01b0391821697506064937f0000000000000000000000000000000000000000000000000000000000000000909216926355c4a8bf92600480820193918290030181865afa15801561104c573d6000803e3d6000fd5b505050506040513d601f19601f820116820180604052508101906110709190611ce4565b61107b906064611d1a565b6000878152600960205260409020600301546110979190611d55565b6110a19190611d33565b6000868152600960205260409020600201546110bd9190611d6c565b915060647f00000000000000000000000000000000000000000000000000000000000000006001600160a01b03166355c4a8bf6040518163ffffffff1660e01b8152600401602060405180830381865afa15801561111f573d6000803e3d6000fd5b505050506040513d601f19601f820116820180604052508101906111439190611ce4565b60008781526009602052604090206003015461115f9190611d55565b6111699190611d33565b600086815260096020908152604080832054835260079091529020600101546001600160a01b0316935090506113af565b60055460020361137f57600085815260096020908152604080832060010154835260078252918290205482516355c4a8bf60e01b815292516001600160a01b0391821697506064937f0000000000000000000000000000000000000000000000000000000000000000909216926355c4a8bf92600480820193918290030181865afa15801561122d573d6000803e3d6000fd5b505050506040513d601f19601f820116820180604052508101906112519190611ce4565b61125c906064611d1a565b6000878152600960205260409020600201546112789190611d55565b6112829190611d33565b60008681526009602052604090206003015461129e9190611d6c565b915060647f00000000000000000000000000000000000000000000000000000000000000006001600160a01b03166355c4a8bf6040518163ffffffff1660e01b8152600401602060405180830381865afa158015611300573d6000803e3d6000fd5b505050506040513d601f19601f820116820180604052508101906113249190611ce4565b6000878152600960205260409020600201546113409190611d55565b61134a9190611d33565b60008681526009602090815260408083206001908101548452600790925290912001546001600160a01b0316935090506113af565b60405162461bcd60e51b81526020600482015260056024820152643c103bb4b760d91b6044820152606401610368565b6001600160a01b038316611442577f00000000000000000000000000000000000000000000000000000000000000006001600160a01b03166309953b2f6040518163ffffffff1660e01b8152600401602060405180830381865afa15801561141b573d6000803e3d6000fd5b505050506040513d601f19601f8201168201806040525081019061143f9190611d7f565b92505b6001600160a01b0384166000908152600660205260408120805484929061146a908490611d6c565b9250508190555060647f00000000000000000000000000000000000000000000000000000000000000006001600160a01b0316636a0ccd9d6040518163ffffffff1660e01b8152600401602060405180830381865afa1580156114d1573d6000803e3d6000fd5b505050506040513d601f19601f820116820180604052508101906114f59190611ce4565b6114ff9083611d55565b6115099190611d33565b600660007f00000000000000000000000000000000000000000000000000000000000000006001600160a01b031663b7640a546040518163ffffffff1660e01b8152600401602060405180830381865afa15801561156b573d6000803e3d6000fd5b505050506040513d601f19601f8201168201806040525081019061158f9190611d7f565b6001600160a01b03166001600160a01b0316815260200190815260200160002060008282546115be9190611d6c565b9250508190555060647f00000000000000000000000000000000000000000000000000000000000000006001600160a01b03166328576d456040518163ffffffff1660e01b8152600401602060405180830381865afa158015611625573d6000803e3d6000fd5b505050506040513d601f19601f820116820180604052508101906116499190611ce4565b6116539083611d55565b61165d9190611d33565b600660007f00000000000000000000000000000000000000000000000000000000000000006001600160a01b03166309953b2f6040518163ffffffff1660e01b8152600401602060405180830381865afa1580156116bf573d6000803e3d6000fd5b505050506040513d601f19601f820116820180604052508101906116e39190611d7f565b6001600160a01b03166001600160a01b0316815260200190815260200160002060008282546117129190611d6c565b9250508190555060647f00000000000000000000000000000000000000000000000000000000000000006001600160a01b03166354cd1a5c6040518163ffffffff1660e01b8152600401602060405180830381865afa158015611779573d6000803e3d6000fd5b505050506040513d601f19601f8201168201806040525081019061179d9190611ce4565b6117a79083611d55565b6117b19190611d33565b6001600160a01b038416600090815260066020526040812080549091906117d9908490611d6c565b9091555050506000848152600960205260409020600401805460ff19166001179055505050506001600055565b600081815260096020908152604080832080548452600783528184205460018201548552828520546002909201546001600160a01b03918216808752600690955292852080549495919092169361185e908490611d6c565b90915550506000838152600960209081526040808320600301546001600160a01b03851684526006909252822080549192909161189c908490611d6c565b909155505050600091825250600960205260409020600401805460ff19166001179055565b6000805b6003546040516bffffffffffffffffffffffff1960608b811b8216602084015230901b166034820152604881019190915242606882015244608882015260a80160408051601f198184030181529181528151602092830120600081815260079093529120600201549091506118c5576040805160c0810182526001600160a01b03998a16808252988a166020808301918252828401998a52606083019889526080830197885260a0830196875260008581526007825284812093518454908e166001600160a01b031991821617855592516001808601805492909f169190941617909c5598516002830155965160038083019190915595516004820155935160059094019390935583548086019094557fc2575a0e9e593c00f959f8c92f12db2869c3395a3b0502d05e2516446f71f85b9093018390555093855260088352928420805491820181558452922090910181905590565b6000805b600254604080516020810189905290810187905260608101919091524260808201524460a082015260c00160408051601f19818403018152918152815160209283012060008181526009909352912060020154909150611a1f576040805160a081018252968752602080880196875287820195865260608801948552600060808901818152848252600990925291822097518855955160018089019190915594516002808901919091559351600388015594516004909601805460ff19169615159690961790955550805491820181559091527f405787fa12a823e0f2b7631cc41b3ba8828b3321ca811111fa75cd3aa3bb5ace0181905590565b6001600160a01b0381168114611b2f57600080fd5b50565b600060208284031215611b4457600080fd5b8135611b4f81611b1a565b9392505050565b602080825282518282018190526000919060409081850190868401855b82811015611bcd57815180516001600160a01b0390811686528782015116878601528581015186860152606080820151908601526080808201519086015260a0908101519085015260c09093019290850190600101611b73565b5091979650505050505050565b600060208284031215611bec57600080fd5b5035919050565b8015158114611b2f57600080fd5b60008060008060008060c08789031215611c1a57600080fd5b8635611c2581611b1a565b95506020870135611c3581611b1a565b945060408701359350606087013592506080870135915060a0870135611c5a81611bf3565b809150509295509295509295565b634e487b7160e01b600052603260045260246000fd5b634e487b7160e01b600052601160045260246000fd5b600060018201611ca657611ca6611c7e565b5060010190565b6020808252601f908201527f5265656e7472616e637947756172643a207265656e7472616e742063616c6c00604082015260600190565b600060208284031215611cf657600080fd5b5051919050565b600060208284031215611d0f57600080fd5b8151611b4f81611bf3565b81810381811115611d2d57611d2d611c7e565b92915050565b600082611d5057634e487b7160e01b600052601260045260246000fd5b500490565b8082028115828204841417611d2d57611d2d611c7e565b80820180821115611d2d57611d2d611c7e565b600060208284031215611d9157600080fd5b8151611b4f81611b1a56fea26469706673582212204111b58b2832413a56c557cfc9b12f7122a946ff5944624c94ba4f915746938264736f6c63430008110033",
					"opcodes": "PUSH1 0xC0 PUSH1 0x40 MSTORE PUSH1 0x0 PUSH1 0x5 SSTORE PUSH1 0x1 SLOAD PUSH1 0x1 PUSH1 0x1 PUSH1 0xA0 SHL SUB AND PUSH1 0xA0 MSTORE CALLVALUE DUP1 ISZERO PUSH2 0x24 JUMPI PUSH1 0x0 DUP1 REVERT JUMPDEST POP PUSH1 0x1 PUSH1 0x0 DUP2 SWAP1 SSTORE DUP1 SLOAD PUSH1 0x1 PUSH1 0x1 PUSH1 0xA0 SHL SUB NOT AND CALLER SWAP1 DUP2 OR SWAP1 SWAP2 SSTORE PUSH1 0x40 DUP1 MLOAD PUSH3 0x966ED9 PUSH1 0xE3 SHL DUP2 MSTORE SWAP1 MLOAD PUSH4 0x4B376C8 SWAP2 PUSH1 0x4 DUP1 DUP3 ADD SWAP3 PUSH1 0x20 SWAP3 SWAP1 SWAP2 SWAP1 DUP3 SWAP1 SUB ADD DUP2 DUP7 GAS STATICCALL ISZERO DUP1 ISZERO PUSH2 0x79 JUMPI RETURNDATASIZE PUSH1 0x0 DUP1 RETURNDATACOPY RETURNDATASIZE PUSH1 0x0 REVERT JUMPDEST POP POP POP POP PUSH1 0x40 MLOAD RETURNDATASIZE PUSH1 0x1F NOT PUSH1 0x1F DUP3 ADD AND DUP3 ADD DUP1 PUSH1 0x40 MSTORE POP DUP2 ADD SWAP1 PUSH2 0x9D SWAP2 SWAP1 PUSH2 0xAE JUMP JUMPDEST PUSH1 0x1 PUSH1 0x1 PUSH1 0xA0 SHL SUB AND PUSH1 0x80 MSTORE PUSH2 0xDE JUMP JUMPDEST PUSH1 0x0 PUSH1 0x20 DUP3 DUP5 SUB SLT ISZERO PUSH2 0xC0 JUMPI PUSH1 0x0 DUP1 REVERT JUMPDEST DUP2 MLOAD PUSH1 0x1 PUSH1 0x1 PUSH1 0xA0 SHL SUB DUP2 AND DUP2 EQ PUSH2 0xD7 JUMPI PUSH1 0x0 DUP1 REVERT JUMPDEST SWAP4 SWAP3 POP POP POP JUMP JUMPDEST PUSH1 0x80 MLOAD PUSH1 0xA0 MLOAD PUSH2 0x1DD2 PUSH3 0x15F PUSH1 0x0 CODECOPY PUSH1 0x0 DUP2 DUP2 PUSH2 0x173 ADD MSTORE DUP2 DUP2 PUSH2 0x6CC ADD MSTORE DUP2 DUP2 PUSH2 0x1003 ADD MSTORE DUP2 DUP2 PUSH2 0x10C3 ADD MSTORE DUP2 DUP2 PUSH2 0x11E4 ADD MSTORE DUP2 DUP2 PUSH2 0x12A4 ADD MSTORE DUP2 DUP2 PUSH2 0x13BF ADD MSTORE DUP2 DUP2 PUSH2 0x1475 ADD MSTORE DUP2 DUP2 PUSH2 0x150F ADD MSTORE DUP2 DUP2 PUSH2 0x15C9 ADD MSTORE DUP2 DUP2 PUSH2 0x1663 ADD MSTORE PUSH2 0x171D ADD MSTORE PUSH1 0x0 DUP2 DUP2 PUSH2 0x1EE ADD MSTORE DUP2 DUP2 PUSH2 0x3A7 ADD MSTORE PUSH2 0x47D ADD MSTORE PUSH2 0x1DD2 PUSH1 0x0 RETURN INVALID PUSH1 0x80 PUSH1 0x40 MSTORE CALLVALUE DUP1 ISZERO PUSH2 0x10 JUMPI PUSH1 0x0 DUP1 REVERT JUMPDEST POP PUSH1 0x4 CALLDATASIZE LT PUSH2 0xB4 JUMPI PUSH1 0x0 CALLDATALOAD PUSH1 0xE0 SHR DUP1 PUSH4 0x893372CA GT PUSH2 0x71 JUMPI DUP1 PUSH4 0x893372CA EQ PUSH2 0x148 JUMPI DUP1 PUSH4 0x8DF82800 EQ PUSH2 0x15B JUMPI DUP1 PUSH4 0xB76564BD EQ PUSH2 0x16E JUMPI DUP1 PUSH4 0xC45A0155 EQ PUSH2 0x1AD JUMPI DUP1 PUSH4 0xF8B2CB4F EQ PUSH2 0x1C0 JUMPI DUP1 PUSH4 0xFC0C546A EQ PUSH2 0x1E9 JUMPI PUSH1 0x0 DUP1 REVERT JUMPDEST DUP1 PUSH4 0x200D2ED2 EQ PUSH2 0xB9 JUMPI DUP1 PUSH4 0x2D56657D EQ PUSH2 0xD5 JUMPI DUP1 PUSH4 0x51CFF8D9 EQ PUSH2 0xF5 JUMPI DUP1 PUSH4 0x675F6537 EQ PUSH2 0x118 JUMPI DUP1 PUSH4 0x6BFEFD6B EQ PUSH2 0x12D JUMPI DUP1 PUSH4 0x78D65B2F EQ PUSH2 0x135 JUMPI JUMPDEST PUSH1 0x0 DUP1 REVERT JUMPDEST PUSH2 0xC2 PUSH1 0x5 SLOAD DUP2 JUMP JUMPDEST PUSH1 0x40 MLOAD SWAP1 DUP2 MSTORE PUSH1 0x20 ADD JUMPDEST PUSH1 0x40 MLOAD DUP1 SWAP2 SUB SWAP1 RETURN JUMPDEST PUSH2 0xE8 PUSH2 0xE3 CALLDATASIZE PUSH1 0x4 PUSH2 0x1B32 JUMP JUMPDEST PUSH2 0x210 JUMP JUMPDEST PUSH1 0x40 MLOAD PUSH2 0xCC SWAP2 SWAP1 PUSH2 0x1B56 JUMP JUMPDEST PUSH2 0x108 PUSH2 0x103 CALLDATASIZE PUSH1 0x4 PUSH2 0x1B32 JUMP JUMPDEST PUSH2 0x344 JUMP JUMPDEST PUSH1 0x40 MLOAD SWAP1 ISZERO ISZERO DUP2 MSTORE PUSH1 0x20 ADD PUSH2 0xCC JUMP JUMPDEST PUSH2 0x12B PUSH2 0x126 CALLDATASIZE PUSH1 0x4 PUSH2 0x1BDA JUMP JUMPDEST PUSH2 0x564 JUMP JUMPDEST STOP JUMPDEST PUSH2 0x108 PUSH2 0x60F JUMP JUMPDEST PUSH2 0xC2 PUSH2 0x143 CALLDATASIZE PUSH1 0x4 PUSH2 0x1C01 JUMP JUMPDEST PUSH2 0x6B4 JUMP JUMPDEST PUSH2 0x12B PUSH2 0x156 CALLDATASIZE PUSH1 0x4 PUSH2 0x1BDA JUMP JUMPDEST PUSH2 0xC87 JUMP JUMPDEST PUSH2 0x108 PUSH2 0x169 CALLDATASIZE PUSH1 0x4 PUSH2 0x1BDA JUMP JUMPDEST PUSH2 0xE05 JUMP JUMPDEST PUSH2 0x195 PUSH32 0x0 DUP2 JUMP JUMPDEST PUSH1 0x40 MLOAD PUSH1 0x1 PUSH1 0x1 PUSH1 0xA0 SHL SUB SWAP1 SWAP2 AND DUP2 MSTORE PUSH1 0x20 ADD PUSH2 0xCC JUMP JUMPDEST PUSH1 0x1 SLOAD PUSH2 0x195 SWAP1 PUSH1 0x1 PUSH1 0x1 PUSH1 0xA0 SHL SUB AND DUP2 JUMP JUMPDEST PUSH2 0xC2 PUSH2 0x1CE CALLDATASIZE PUSH1 0x4 PUSH2 0x1B32 JUMP JUMPDEST PUSH1 0x1 PUSH1 0x1 PUSH1 0xA0 SHL SUB AND PUSH1 0x0 SWAP1 DUP2 MSTORE PUSH1 0x6 PUSH1 0x20 MSTORE PUSH1 0x40 SWAP1 KECCAK256 SLOAD SWAP1 JUMP JUMPDEST PUSH2 0x195 PUSH32 0x0 DUP2 JUMP JUMPDEST PUSH1 0x1 PUSH1 0x1 PUSH1 0xA0 SHL SUB DUP2 AND PUSH1 0x0 SWAP1 DUP2 MSTORE PUSH1 0x8 PUSH1 0x20 SWAP1 DUP2 MSTORE PUSH1 0x40 DUP1 DUP4 KECCAK256 DUP1 SLOAD DUP3 MLOAD DUP2 DUP6 MUL DUP2 ADD DUP6 ADD SWAP1 SWAP4 MSTORE DUP1 DUP4 MSTORE PUSH1 0x60 SWAP5 DUP6 SWAP5 SWAP1 SWAP4 SWAP3 SWAP2 SWAP1 DUP4 ADD DUP3 DUP3 DUP1 ISZERO PUSH2 0x275 JUMPI PUSH1 0x20 MUL DUP3 ADD SWAP2 SWAP1 PUSH1 0x0 MSTORE PUSH1 0x20 PUSH1 0x0 KECCAK256 SWAP1 JUMPDEST DUP2 SLOAD DUP2 MSTORE PUSH1 0x20 ADD SWAP1 PUSH1 0x1 ADD SWAP1 DUP1 DUP4 GT PUSH2 0x261 JUMPI JUMPDEST POP POP POP POP POP SWAP1 POP PUSH1 0x0 JUMPDEST PUSH1 0x3 SLOAD DUP2 LT ISZERO PUSH2 0x33B JUMPI PUSH1 0x7 PUSH1 0x0 DUP4 DUP4 DUP2 MLOAD DUP2 LT PUSH2 0x29F JUMPI PUSH2 0x29F PUSH2 0x1C68 JUMP JUMPDEST PUSH1 0x20 SWAP1 DUP2 MUL SWAP2 SWAP1 SWAP2 ADD DUP2 ADD MLOAD DUP3 MSTORE DUP2 DUP2 ADD SWAP3 SWAP1 SWAP3 MSTORE PUSH1 0x40 SWAP1 DUP2 ADD PUSH1 0x0 KECCAK256 DUP2 MLOAD PUSH1 0xC0 DUP2 ADD DUP4 MSTORE DUP2 SLOAD PUSH1 0x1 PUSH1 0x1 PUSH1 0xA0 SHL SUB SWAP1 DUP2 AND DUP3 MSTORE PUSH1 0x1 DUP4 ADD SLOAD AND SWAP4 DUP2 ADD SWAP4 SWAP1 SWAP4 MSTORE PUSH1 0x2 DUP2 ADD SLOAD SWAP2 DUP4 ADD SWAP2 SWAP1 SWAP2 MSTORE PUSH1 0x3 DUP2 ADD SLOAD PUSH1 0x60 DUP4 ADD MSTORE PUSH1 0x4 DUP2 ADD SLOAD PUSH1 0x80 DUP4 ADD MSTORE PUSH1 0x5 ADD SLOAD PUSH1 0xA0 DUP3 ADD MSTORE DUP4 MLOAD DUP5 SWAP1 DUP4 SWAP1 DUP2 LT PUSH2 0x31D JUMPI PUSH2 0x31D PUSH2 0x1C68 JUMP JUMPDEST PUSH1 0x20 MUL PUSH1 0x20 ADD ADD DUP2 SWAP1 MSTORE POP DUP1 DUP1 PUSH2 0x333 SWAP1 PUSH2 0x1C94 JUMP JUMPDEST SWAP2 POP POP PUSH2 0x27F JUMP JUMPDEST POP SWAP1 SWAP4 SWAP3 POP POP POP JUMP JUMPDEST PUSH1 0x0 PUSH1 0x2 PUSH1 0x0 SLOAD SUB PUSH2 0x371 JUMPI PUSH1 0x40 MLOAD PUSH3 0x461BCD PUSH1 0xE5 SHL DUP2 MSTORE PUSH1 0x4 ADD PUSH2 0x368 SWAP1 PUSH2 0x1CAD JUMP JUMPDEST PUSH1 0x40 MLOAD DUP1 SWAP2 SUB SWAP1 REVERT JUMPDEST PUSH1 0x2 PUSH1 0x0 SWAP1 DUP2 SSTORE PUSH1 0x1 PUSH1 0x1 PUSH1 0xA0 SHL SUB DUP4 DUP2 AND DUP3 MSTORE PUSH1 0x6 PUSH1 0x20 MSTORE PUSH1 0x40 SWAP2 DUP3 SWAP1 KECCAK256 SLOAD SWAP2 MLOAD PUSH4 0x70A08231 PUSH1 0xE0 SHL DUP2 MSTORE ADDRESS PUSH1 0x4 DUP3 ADD MSTORE DUP3 SWAP2 PUSH32 0x0 AND SWAP1 PUSH4 0x70A08231 SWAP1 PUSH1 0x24 ADD PUSH1 0x20 PUSH1 0x40 MLOAD DUP1 DUP4 SUB DUP2 DUP7 GAS STATICCALL ISZERO DUP1 ISZERO PUSH2 0x3EE JUMPI RETURNDATASIZE PUSH1 0x0 DUP1 RETURNDATACOPY RETURNDATASIZE PUSH1 0x0 REVERT JUMPDEST POP POP POP POP PUSH1 0x40 MLOAD RETURNDATASIZE PUSH1 0x1F NOT PUSH1 0x1F DUP3 ADD AND DUP3 ADD DUP1 PUSH1 0x40 MSTORE POP DUP2 ADD SWAP1 PUSH2 0x412 SWAP2 SWAP1 PUSH2 0x1CE4 JUMP JUMPDEST GT DUP1 ISZERO PUSH2 0x41F JUMPI POP PUSH1 0x0 DUP2 GT JUMPDEST PUSH2 0x454 JUMPI PUSH1 0x40 MLOAD PUSH3 0x461BCD PUSH1 0xE5 SHL DUP2 MSTORE PUSH1 0x20 PUSH1 0x4 DUP3 ADD MSTORE PUSH1 0x6 PUSH1 0x24 DUP3 ADD MSTORE PUSH6 0xF08199D5B99 PUSH1 0xD2 SHL PUSH1 0x44 DUP3 ADD MSTORE PUSH1 0x64 ADD PUSH2 0x368 JUMP JUMPDEST PUSH1 0x40 MLOAD PUSH4 0xA9059CBB PUSH1 0xE0 SHL DUP2 MSTORE PUSH1 0x1 PUSH1 0x1 PUSH1 0xA0 SHL SUB DUP5 DUP2 AND PUSH1 0x4 DUP4 ADD MSTORE PUSH1 0x24 DUP3 ADD DUP4 SWAP1 MSTORE PUSH1 0x0 SWAP2 PUSH32 0x0 SWAP1 SWAP2 AND SWAP1 PUSH4 0xA9059CBB SWAP1 PUSH1 0x44 ADD PUSH1 0x20 PUSH1 0x40 MLOAD DUP1 DUP4 SUB DUP2 PUSH1 0x0 DUP8 GAS CALL ISZERO DUP1 ISZERO PUSH2 0x4C8 JUMPI RETURNDATASIZE PUSH1 0x0 DUP1 RETURNDATACOPY RETURNDATASIZE PUSH1 0x0 REVERT JUMPDEST POP POP POP POP PUSH1 0x40 MLOAD RETURNDATASIZE PUSH1 0x1F NOT PUSH1 0x1F DUP3 ADD AND DUP3 ADD DUP1 PUSH1 0x40 MSTORE POP DUP2 ADD SWAP1 PUSH2 0x4EC SWAP2 SWAP1 PUSH2 0x1CFD JUMP JUMPDEST SWAP1 POP DUP1 PUSH2 0x527 JUMPI PUSH1 0x40 MLOAD PUSH3 0x461BCD PUSH1 0xE5 SHL DUP2 MSTORE PUSH1 0x20 PUSH1 0x4 DUP3 ADD MSTORE PUSH1 0x9 PUSH1 0x24 DUP3 ADD MSTORE PUSH9 0x151E0811985A5B1959 PUSH1 0xBA SHL PUSH1 0x44 DUP3 ADD MSTORE PUSH1 0x64 ADD PUSH2 0x368 JUMP JUMPDEST PUSH1 0x1 PUSH1 0x1 PUSH1 0xA0 SHL SUB DUP5 AND PUSH1 0x0 SWAP1 DUP2 MSTORE PUSH1 0x6 PUSH1 0x20 MSTORE PUSH1 0x40 DUP2 KECCAK256 DUP1 SLOAD DUP5 SWAP3 SWAP1 PUSH2 0x54F SWAP1 DUP5 SWAP1 PUSH2 0x1D1A JUMP JUMPDEST SWAP1 SWAP2 SSTORE POP PUSH1 0x1 SWAP4 POP POP POP POP PUSH1 0x1 PUSH1 0x0 SSTORE SWAP2 SWAP1 POP JUMP JUMPDEST PUSH1 0x0 DUP2 DUP2 MSTORE PUSH1 0xA PUSH1 0x20 SWAP1 DUP2 MSTORE PUSH1 0x40 DUP1 DUP4 KECCAK256 DUP1 SLOAD DUP3 MLOAD DUP2 DUP6 MUL DUP2 ADD DUP6 ADD SWAP1 SWAP4 MSTORE DUP1 DUP4 MSTORE SWAP2 SWAP3 SWAP1 SWAP2 SWAP1 DUP4 ADD DUP3 DUP3 DUP1 ISZERO PUSH2 0x5BA JUMPI PUSH1 0x20 MUL DUP3 ADD SWAP2 SWAP1 PUSH1 0x0 MSTORE PUSH1 0x20 PUSH1 0x0 KECCAK256 SWAP1 JUMPDEST DUP2 SLOAD DUP2 MSTORE PUSH1 0x20 ADD SWAP1 PUSH1 0x1 ADD SWAP1 DUP1 DUP4 GT PUSH2 0x5A6 JUMPI JUMPDEST POP POP POP POP POP SWAP1 POP PUSH1 0x0 JUMPDEST DUP2 MLOAD DUP2 LT ISZERO PUSH2 0x601 JUMPI PUSH2 0x5EF DUP3 DUP3 DUP2 MLOAD DUP2 LT PUSH2 0x5E2 JUMPI PUSH2 0x5E2 PUSH2 0x1C68 JUMP JUMPDEST PUSH1 0x20 MUL PUSH1 0x20 ADD ADD MLOAD PUSH2 0xEEE JUMP JUMPDEST DUP1 PUSH2 0x5F9 DUP2 PUSH2 0x1C94 JUMP JUMPDEST SWAP2 POP POP PUSH2 0x5C4 JUMP JUMPDEST POP CALLER PUSH1 0x0 MSTORE PUSH1 0x6 PUSH1 0x20 MSTORE POP POP JUMP JUMPDEST PUSH1 0x1 SLOAD PUSH1 0x0 SWAP1 PUSH1 0x1 PUSH1 0x1 PUSH1 0xA0 SHL SUB AND CALLER EQ PUSH2 0x656 JUMPI PUSH1 0x40 MLOAD PUSH3 0x461BCD PUSH1 0xE5 SHL DUP2 MSTORE PUSH1 0x20 PUSH1 0x4 DUP3 ADD MSTORE PUSH1 0x7 PUSH1 0x24 DUP3 ADD MSTORE PUSH7 0x6F776E6572206F PUSH1 0xC8 SHL PUSH1 0x44 DUP3 ADD MSTORE PUSH1 0x64 ADD PUSH2 0x368 JUMP JUMPDEST PUSH1 0x5 SLOAD ISZERO PUSH2 0x663 JUMPI PUSH1 0x0 DUP1 REVERT JUMPDEST PUSH1 0x0 JUMPDEST PUSH1 0x2 SLOAD DUP2 LT ISZERO PUSH2 0x6A8 JUMPI PUSH2 0x696 PUSH1 0x2 DUP3 DUP2 SLOAD DUP2 LT PUSH2 0x686 JUMPI PUSH2 0x686 PUSH2 0x1C68 JUMP JUMPDEST SWAP1 PUSH1 0x0 MSTORE PUSH1 0x20 PUSH1 0x0 KECCAK256 ADD SLOAD PUSH2 0x1806 JUMP JUMPDEST DUP1 PUSH2 0x6A0 DUP2 PUSH2 0x1C94 JUMP JUMPDEST SWAP2 POP POP PUSH2 0x666 JUMP JUMPDEST POP POP PUSH1 0x3 PUSH1 0x5 SSTORE PUSH1 0x1 SWAP1 JUMP JUMPDEST PUSH1 0x40 MLOAD PUSH4 0x332DACCF PUSH1 0xE0 SHL DUP2 MSTORE CALLER PUSH1 0x4 DUP3 ADD MSTORE PUSH1 0x0 SWAP1 PUSH32 0x0 PUSH1 0x1 PUSH1 0x1 PUSH1 0xA0 SHL SUB AND SWAP1 PUSH4 0x332DACCF SWAP1 PUSH1 0x24 ADD PUSH1 0x20 PUSH1 0x40 MLOAD DUP1 DUP4 SUB DUP2 DUP7 GAS STATICCALL ISZERO DUP1 ISZERO PUSH2 0x71B JUMPI RETURNDATASIZE PUSH1 0x0 DUP1 RETURNDATACOPY RETURNDATASIZE PUSH1 0x0 REVERT JUMPDEST POP POP POP POP PUSH1 0x40 MLOAD RETURNDATASIZE PUSH1 0x1F NOT PUSH1 0x1F DUP3 ADD AND DUP3 ADD DUP1 PUSH1 0x40 MSTORE POP DUP2 ADD SWAP1 PUSH2 0x73F SWAP2 SWAP1 PUSH2 0x1CFD JUMP JUMPDEST ISZERO PUSH2 0x778 JUMPI PUSH1 0x40 MLOAD PUSH3 0x461BCD PUSH1 0xE5 SHL DUP2 MSTORE PUSH1 0x20 PUSH1 0x4 DUP3 ADD MSTORE PUSH1 0x9 PUSH1 0x24 DUP3 ADD MSTORE PUSH9 0x189B1858DADB1A5CDD PUSH1 0xBA SHL PUSH1 0x44 DUP3 ADD MSTORE PUSH1 0x64 ADD PUSH2 0x368 JUMP JUMPDEST DUP3 PUSH1 0x1 EQ DUP1 PUSH2 0x787 JUMPI POP DUP3 PUSH1 0x2 EQ JUMPDEST PUSH2 0x7C2 JUMPI PUSH1 0x40 MLOAD PUSH3 0x461BCD PUSH1 0xE5 SHL DUP2 MSTORE PUSH1 0x20 PUSH1 0x4 DUP3 ADD MSTORE PUSH1 0xC PUSH1 0x24 DUP3 ADD MSTORE PUSH12 0x696E76616C69642073696465 PUSH1 0xA0 SHL PUSH1 0x44 DUP3 ADD MSTORE PUSH1 0x64 ADD PUSH2 0x368 JUMP JUMPDEST PUSH1 0x0 PUSH2 0x7D3 DUP9 DUP9 DUP9 PUSH1 0x0 DUP10 DUP10 PUSH2 0x18C1 JUMP JUMPDEST PUSH1 0x4 SLOAD SWAP1 SWAP2 POP ISZERO PUSH2 0xBF1 JUMPI DUP6 JUMPDEST PUSH8 0xDE0B6B3A7640000 DUP2 LT PUSH2 0xBEB JUMPI PUSH1 0x0 DUP1 PUSH1 0x0 JUMPDEST PUSH1 0x4 SLOAD DUP2 LT ISZERO PUSH2 0x88C JUMPI PUSH1 0x0 PUSH1 0x4 DUP3 DUP2 SLOAD DUP2 LT PUSH2 0x814 JUMPI PUSH2 0x814 PUSH2 0x1C68 JUMP JUMPDEST SWAP1 PUSH1 0x0 MSTORE PUSH1 0x20 PUSH1 0x0 KECCAK256 ADD SLOAD SWAP1 POP PUSH1 0x7 PUSH1 0x0 DUP3 DUP2 MSTORE PUSH1 0x20 ADD SWAP1 DUP2 MSTORE PUSH1 0x20 ADD PUSH1 0x0 KECCAK256 PUSH1 0x5 ADD SLOAD DUP10 SUB PUSH2 0x844 JUMPI POP PUSH2 0x87A JUMP JUMPDEST PUSH1 0x0 DUP2 DUP2 MSTORE PUSH1 0x7 PUSH1 0x20 MSTORE PUSH1 0x40 SWAP1 KECCAK256 PUSH1 0x4 ADD SLOAD DUP4 LT ISZERO PUSH2 0x878 JUMPI PUSH1 0x0 DUP2 DUP2 MSTORE PUSH1 0x7 PUSH1 0x20 MSTORE PUSH1 0x40 SWAP1 KECCAK256 PUSH1 0x4 ADD SLOAD SWAP2 SWAP4 POP SWAP1 SWAP2 POP DUP3 SWAP1 JUMPDEST POP JUMPDEST DUP1 PUSH2 0x884 DUP2 PUSH2 0x1C94 JUMP JUMPDEST SWAP2 POP POP PUSH2 0x7F5 JUMP JUMPDEST POP DUP8 DUP2 GT DUP1 PUSH2 0x898 JUMPI POP DUP6 JUMPDEST ISZERO PUSH2 0xBA8 JUMPI PUSH1 0x0 PUSH1 0x4 DUP4 DUP2 SLOAD DUP2 LT PUSH2 0x8B2 JUMPI PUSH2 0x8B2 PUSH2 0x1C68 JUMP JUMPDEST PUSH1 0x0 SWAP2 DUP3 MSTORE PUSH1 0x20 DUP1 DUP4 KECCAK256 SWAP1 SWAP2 ADD SLOAD DUP1 DUP4 MSTORE PUSH1 0x7 DUP3 MSTORE PUSH1 0x40 DUP1 DUP5 KECCAK256 DUP2 MLOAD PUSH1 0xC0 DUP2 ADD DUP4 MSTORE DUP2 SLOAD PUSH1 0x1 PUSH1 0x1 PUSH1 0xA0 SHL SUB SWAP1 DUP2 AND DUP3 MSTORE PUSH1 0x1 DUP1 DUP5 ADD SLOAD SWAP1 SWAP2 AND SWAP6 DUP3 ADD SWAP6 SWAP1 SWAP6 MSTORE PUSH1 0x2 DUP3 ADD SLOAD SWAP3 DUP2 ADD SWAP3 SWAP1 SWAP3 MSTORE PUSH1 0x3 DUP2 ADD SLOAD PUSH1 0x60 DUP4 ADD MSTORE PUSH1 0x4 DUP2 ADD SLOAD PUSH1 0x80 DUP4 ADD MSTORE PUSH1 0x5 ADD SLOAD PUSH1 0xA0 DUP3 ADD MSTORE SWAP1 SWAP4 POP SWAP2 SWAP1 PUSH2 0x92B SWAP1 DUP13 PUSH2 0x1D1A JUMP JUMPDEST DUP3 PUSH1 0x60 ADD MLOAD DUP4 PUSH1 0x40 ADD MLOAD PUSH2 0x93F SWAP2 SWAP1 PUSH2 0x1D1A JUMP JUMPDEST PUSH2 0x949 SWAP2 SWAP1 PUSH2 0x1D33 JUMP JUMPDEST SWAP1 POP PUSH1 0x0 DUP1 PUSH1 0x0 DUP15 DUP5 GT PUSH2 0xA37 JUMPI DUP4 SWAP3 POP PUSH2 0x965 PUSH1 0x1 DUP16 PUSH2 0x1D1A JUMP JUMPDEST PUSH2 0x96F SWAP1 DUP6 PUSH2 0x1D55 JUMP JUMPDEST SWAP2 POP DUP13 PUSH1 0x1 SUB PUSH2 0x9D6 JUMPI PUSH2 0x985 DUP11 DUP8 DUP6 DUP6 PUSH2 0x1A1B JUMP JUMPDEST PUSH1 0x40 DUP1 MLOAD DUP13 DUP2 MSTORE PUSH1 0x20 DUP2 ADD DUP10 SWAP1 MSTORE SWAP1 DUP2 ADD DUP6 SWAP1 MSTORE PUSH1 0x60 DUP2 ADD DUP5 SWAP1 MSTORE SWAP1 SWAP2 POP PUSH32 0x5DE48BB383B4A2AAAD84721B80D93429B813651B0EEFBD59D32018CFE28215DC SWAP1 PUSH1 0x80 ADD JUMPDEST PUSH1 0x40 MLOAD DUP1 SWAP2 SUB SWAP1 LOG1 PUSH2 0xAC6 JUMP JUMPDEST DUP13 PUSH1 0x2 SUB PUSH2 0xA32 JUMPI PUSH2 0x9EA DUP7 DUP12 DUP5 DUP7 PUSH2 0x1A1B JUMP JUMPDEST PUSH1 0x40 DUP1 MLOAD DUP9 DUP2 MSTORE PUSH1 0x20 DUP2 ADD DUP14 SWAP1 MSTORE SWAP1 DUP2 ADD DUP5 SWAP1 MSTORE PUSH1 0x60 DUP2 ADD DUP6 SWAP1 MSTORE SWAP1 SWAP2 POP PUSH32 0x5DE48BB383B4A2AAAD84721B80D93429B813651B0EEFBD59D32018CFE28215DC SWAP1 PUSH1 0x80 ADD PUSH2 0x9C9 JUMP JUMPDEST PUSH2 0xAC6 JUMP JUMPDEST DUP15 SWAP3 POP PUSH2 0xA45 PUSH1 0x1 DUP16 PUSH2 0x1D1A JUMP JUMPDEST DUP16 PUSH2 0xA50 SWAP2 SWAP1 PUSH2 0x1D55 JUMP JUMPDEST SWAP2 POP DUP13 PUSH1 0x1 SUB PUSH2 0xA66 JUMPI PUSH2 0x985 DUP11 DUP8 DUP6 DUP6 PUSH2 0x1A1B JUMP JUMPDEST DUP13 PUSH1 0x2 SUB PUSH2 0xAC6 JUMPI PUSH2 0xA7A DUP7 DUP12 DUP5 DUP7 PUSH2 0x1A1B JUMP JUMPDEST PUSH1 0x40 DUP1 MLOAD DUP9 DUP2 MSTORE PUSH1 0x20 DUP2 ADD DUP14 SWAP1 MSTORE SWAP1 DUP2 ADD DUP5 SWAP1 MSTORE PUSH1 0x60 DUP2 ADD DUP6 SWAP1 MSTORE SWAP1 SWAP2 POP PUSH32 0x5DE48BB383B4A2AAAD84721B80D93429B813651B0EEFBD59D32018CFE28215DC SWAP1 PUSH1 0x80 ADD PUSH1 0x40 MLOAD DUP1 SWAP2 SUB SWAP1 LOG1 JUMPDEST PUSH1 0x0 DUP11 DUP2 MSTORE PUSH1 0xA PUSH1 0x20 SWAP1 DUP2 MSTORE PUSH1 0x40 DUP1 DUP4 KECCAK256 DUP1 SLOAD PUSH1 0x1 DUP2 DUP2 ADD DUP4 SSTORE SWAP2 DUP6 MSTORE DUP4 DUP6 KECCAK256 ADD DUP6 SWAP1 SSTORE DUP10 DUP5 MSTORE DUP2 DUP5 KECCAK256 DUP1 SLOAD SWAP2 DUP3 ADD DUP2 SSTORE DUP5 MSTORE DUP3 DUP5 KECCAK256 ADD DUP5 SWAP1 SSTORE DUP13 DUP4 MSTORE PUSH1 0x7 SWAP1 SWAP2 MSTORE DUP2 KECCAK256 PUSH1 0x3 ADD DUP1 SLOAD DUP6 SWAP3 SWAP1 PUSH2 0xB1D SWAP1 DUP5 SWAP1 PUSH2 0x1D6C JUMP JUMPDEST SWAP1 SWAP2 SSTORE POP POP PUSH1 0x0 DUP7 DUP2 MSTORE PUSH1 0x7 PUSH1 0x20 MSTORE PUSH1 0x40 DUP2 KECCAK256 PUSH1 0x3 ADD DUP1 SLOAD DUP5 SWAP3 SWAP1 PUSH2 0xB43 SWAP1 DUP5 SWAP1 PUSH2 0x1D6C JUMP JUMPDEST SWAP1 SWAP2 SSTORE POP POP PUSH1 0x0 DUP7 DUP2 MSTORE PUSH1 0x7 PUSH1 0x20 MSTORE PUSH1 0x40 SWAP1 KECCAK256 PUSH1 0x3 DUP2 ADD SLOAD PUSH1 0x2 SWAP1 SWAP2 ADD SLOAD PUSH2 0xB6B SWAP2 SWAP1 PUSH2 0x1D1A JUMP JUMPDEST PUSH1 0x0 SUB PUSH2 0xB91 JUMPI PUSH1 0x4 DUP9 DUP2 SLOAD DUP2 LT PUSH2 0xB85 JUMPI PUSH2 0xB85 PUSH2 0x1C68 JUMP JUMPDEST PUSH1 0x0 SWAP2 DUP3 MSTORE PUSH1 0x20 DUP3 KECCAK256 ADD SSTORE JUMPDEST PUSH2 0xB9B DUP4 DUP11 PUSH2 0x1D1A JUMP JUMPDEST SWAP9 POP POP POP POP POP POP POP PUSH2 0xBE4 JUMP JUMPDEST POP POP PUSH1 0x4 DUP1 SLOAD PUSH1 0x1 DUP2 ADD DUP3 SSTORE PUSH1 0x0 SWAP2 SWAP1 SWAP2 MSTORE PUSH32 0x8A35ACFBC15FF81A39AE7D344FD709F28E8600B4AA8C65C6B64BFE7FE36BD19B ADD DUP3 SWAP1 SSTORE PUSH2 0xBEB JUMP JUMPDEST POP POP PUSH2 0x7E0 JUMP JUMPDEST POP PUSH2 0xC27 JUMP JUMPDEST PUSH1 0x4 DUP1 SLOAD PUSH1 0x1 DUP2 ADD DUP3 SSTORE PUSH1 0x0 SWAP2 SWAP1 SWAP2 MSTORE PUSH32 0x8A35ACFBC15FF81A39AE7D344FD709F28E8600B4AA8C65C6B64BFE7FE36BD19B ADD DUP2 SWAP1 SSTORE JUMPDEST PUSH1 0x40 DUP1 MLOAD CALLER DUP2 MSTORE ADDRESS PUSH1 0x20 DUP3 ADD MSTORE SWAP1 DUP2 ADD DUP3 SWAP1 MSTORE PUSH1 0x60 DUP2 ADD DUP8 SWAP1 MSTORE PUSH1 0x80 DUP2 ADD DUP7 SWAP1 MSTORE PUSH1 0xA0 DUP2 ADD DUP6 SWAP1 MSTORE PUSH32 0x618F358BB45538682ADE624A4A1959053D9DABD20FE300508034B879681B37BE SWAP1 PUSH1 0xC0 ADD PUSH1 0x40 MLOAD DUP1 SWAP2 SUB SWAP1 LOG1 SWAP8 SWAP7 POP POP POP POP POP POP POP JUMP JUMPDEST PUSH1 0x2 PUSH1 0x0 SLOAD SUB PUSH2 0xCA9 JUMPI PUSH1 0x40 MLOAD PUSH3 0x461BCD PUSH1 0xE5 SHL DUP2 MSTORE PUSH1 0x4 ADD PUSH2 0x368 SWAP1 PUSH2 0x1CAD JUMP JUMPDEST PUSH1 0x2 PUSH1 0x0 DUP2 DUP2 SSTORE DUP3 DUP2 MSTORE PUSH1 0x7 PUSH1 0x20 SWAP1 DUP2 MSTORE PUSH1 0x40 SWAP2 DUP3 SWAP1 KECCAK256 DUP3 MLOAD PUSH1 0xC0 DUP2 ADD DUP5 MSTORE DUP2 SLOAD PUSH1 0x1 PUSH1 0x1 PUSH1 0xA0 SHL SUB SWAP1 DUP2 AND DUP1 DUP4 MSTORE PUSH1 0x1 DUP5 ADD SLOAD SWAP1 SWAP2 AND SWAP4 DUP3 ADD SWAP4 SWAP1 SWAP4 MSTORE SWAP4 DUP2 ADD SLOAD SWAP3 DUP5 ADD SWAP3 SWAP1 SWAP3 MSTORE PUSH1 0x3 DUP3 ADD SLOAD PUSH1 0x60 DUP5 ADD MSTORE PUSH1 0x4 DUP3 ADD SLOAD PUSH1 0x80 DUP5 ADD MSTORE PUSH1 0x5 SWAP1 SWAP2 ADD SLOAD PUSH1 0xA0 DUP4 ADD MSTORE CALLER EQ PUSH2 0xD50 JUMPI PUSH1 0x40 MLOAD PUSH3 0x461BCD PUSH1 0xE5 SHL DUP2 MSTORE PUSH1 0x20 PUSH1 0x4 DUP3 ADD MSTORE PUSH1 0xE PUSH1 0x24 DUP3 ADD MSTORE PUSH14 0x626574206F776E6572206F6E6C79 PUSH1 0x90 SHL PUSH1 0x44 DUP3 ADD MSTORE PUSH1 0x64 ADD PUSH2 0x368 JUMP JUMPDEST PUSH1 0x0 DUP2 PUSH1 0x60 ADD MLOAD DUP3 PUSH1 0x40 ADD MLOAD PUSH2 0xD66 SWAP2 SWAP1 PUSH2 0x1D1A JUMP JUMPDEST DUP3 MLOAD PUSH1 0x1 PUSH1 0x1 PUSH1 0xA0 SHL SUB AND PUSH1 0x0 SWAP1 DUP2 MSTORE PUSH1 0x6 PUSH1 0x20 SWAP1 DUP2 MSTORE PUSH1 0x40 DUP1 DUP4 KECCAK256 DUP5 SWAP1 SSTORE DUP1 DUP7 ADD MLOAD DUP8 DUP5 MSTORE PUSH1 0x7 SWAP1 SWAP3 MSTORE DUP3 KECCAK256 PUSH1 0x3 ADD SSTORE SWAP1 SWAP2 POP JUMPDEST PUSH1 0x4 SLOAD DUP2 LT ISZERO PUSH2 0xDFA JUMPI DUP4 PUSH1 0x4 DUP3 DUP2 SLOAD DUP2 LT PUSH2 0xDB9 JUMPI PUSH2 0xDB9 PUSH2 0x1C68 JUMP JUMPDEST SWAP1 PUSH1 0x0 MSTORE PUSH1 0x20 PUSH1 0x0 KECCAK256 ADD SLOAD SUB PUSH2 0xDE8 JUMPI PUSH1 0x4 DUP2 DUP2 SLOAD DUP2 LT PUSH2 0xDDC JUMPI PUSH2 0xDDC PUSH2 0x1C68 JUMP JUMPDEST PUSH1 0x0 SWAP2 DUP3 MSTORE PUSH1 0x20 DUP3 KECCAK256 ADD SSTORE JUMPDEST DUP1 PUSH2 0xDF2 DUP2 PUSH2 0x1C94 JUMP JUMPDEST SWAP2 POP POP PUSH2 0xD9B JUMP JUMPDEST POP POP PUSH1 0x1 PUSH1 0x0 SSTORE POP POP JUMP JUMPDEST PUSH1 0x1 SLOAD PUSH1 0x0 SWAP1 PUSH1 0x1 PUSH1 0x1 PUSH1 0xA0 SHL SUB AND CALLER EQ PUSH2 0xE4C JUMPI PUSH1 0x40 MLOAD PUSH3 0x461BCD PUSH1 0xE5 SHL DUP2 MSTORE PUSH1 0x20 PUSH1 0x4 DUP3 ADD MSTORE PUSH1 0x7 PUSH1 0x24 DUP3 ADD MSTORE PUSH7 0x6F776E6572206F PUSH1 0xC8 SHL PUSH1 0x44 DUP3 ADD MSTORE PUSH1 0x64 ADD PUSH2 0x368 JUMP JUMPDEST PUSH1 0x5 SLOAD ISZERO DUP1 ISZERO PUSH2 0xE66 JUMPI POP DUP2 PUSH1 0x1 EQ DUP1 PUSH2 0xE66 JUMPI POP DUP2 PUSH1 0x2 EQ JUMPDEST PUSH2 0xE9B JUMPI PUSH1 0x40 MLOAD PUSH3 0x461BCD PUSH1 0xE5 SHL DUP2 MSTORE PUSH1 0x20 PUSH1 0x4 DUP3 ADD MSTORE PUSH1 0x6 PUSH1 0x24 DUP3 ADD MSTORE PUSH6 0x10BC103BB4B7 PUSH1 0xD1 SHL PUSH1 0x44 DUP3 ADD MSTORE PUSH1 0x64 ADD PUSH2 0x368 JUMP JUMPDEST PUSH1 0x5 DUP3 SWAP1 SSTORE PUSH1 0x0 JUMPDEST PUSH1 0x2 SLOAD DUP2 LT ISZERO PUSH2 0xEE5 JUMPI PUSH2 0xED3 PUSH1 0x2 DUP3 DUP2 SLOAD DUP2 LT PUSH2 0xEC3 JUMPI PUSH2 0xEC3 PUSH2 0x1C68 JUMP JUMPDEST SWAP1 PUSH1 0x0 MSTORE PUSH1 0x20 PUSH1 0x0 KECCAK256 ADD SLOAD PUSH2 0xEEE JUMP JUMPDEST DUP1 PUSH2 0xEDD DUP2 PUSH2 0x1C94 JUMP JUMPDEST SWAP2 POP POP PUSH2 0xEA3 JUMP JUMPDEST POP PUSH1 0x1 SWAP3 SWAP2 POP POP JUMP JUMPDEST PUSH1 0x2 PUSH1 0x0 SLOAD SUB PUSH2 0xF10 JUMPI PUSH1 0x40 MLOAD PUSH3 0x461BCD PUSH1 0xE5 SHL DUP2 MSTORE PUSH1 0x4 ADD PUSH2 0x368 SWAP1 PUSH2 0x1CAD JUMP JUMPDEST PUSH1 0x2 PUSH1 0x0 SWAP1 DUP2 SSTORE DUP2 DUP2 MSTORE PUSH1 0x9 PUSH1 0x20 MSTORE PUSH1 0x40 SWAP1 KECCAK256 PUSH1 0x4 ADD SLOAD PUSH1 0xFF AND ISZERO PUSH2 0xF69 JUMPI PUSH1 0x40 MLOAD PUSH3 0x461BCD PUSH1 0xE5 SHL DUP2 MSTORE PUSH1 0x20 PUSH1 0x4 DUP3 ADD MSTORE PUSH1 0xF PUSH1 0x24 DUP3 ADD MSTORE PUSH15 0x185B1C9958591E481CD95D1D1B1959 PUSH1 0x8A SHL PUSH1 0x44 DUP3 ADD MSTORE PUSH1 0x64 ADD PUSH2 0x368 JUMP JUMPDEST PUSH1 0x5 SLOAD PUSH1 0x1 EQ DUP1 PUSH2 0xF7C JUMPI POP PUSH1 0x5 SLOAD PUSH1 0x2 EQ JUMPDEST PUSH2 0xFB6 JUMPI PUSH1 0x40 MLOAD PUSH3 0x461BCD PUSH1 0xE5 SHL DUP2 MSTORE PUSH1 0x20 PUSH1 0x4 DUP3 ADD MSTORE PUSH1 0xB PUSH1 0x24 DUP3 ADD MSTORE PUSH11 0x1DDA5B881B9BDD081CD95D PUSH1 0xAA SHL PUSH1 0x44 DUP3 ADD MSTORE PUSH1 0x64 ADD PUSH2 0x368 JUMP JUMPDEST PUSH1 0x0 DUP1 PUSH1 0x0 DUP1 PUSH1 0x5 SLOAD PUSH1 0x1 SUB PUSH2 0x119A JUMPI PUSH1 0x0 DUP6 DUP2 MSTORE PUSH1 0x9 PUSH1 0x20 SWAP1 DUP2 MSTORE PUSH1 0x40 DUP1 DUP4 KECCAK256 SLOAD DUP4 MSTORE PUSH1 0x7 DUP3 MSTORE SWAP2 DUP3 SWAP1 KECCAK256 SLOAD DUP3 MLOAD PUSH4 0x55C4A8BF PUSH1 0xE0 SHL DUP2 MSTORE SWAP3 MLOAD PUSH1 0x1 PUSH1 0x1 PUSH1 0xA0 SHL SUB SWAP2 DUP3 AND SWAP8 POP PUSH1 0x64 SWAP4 PUSH32 0x0 SWAP1 SWAP3 AND SWAP3 PUSH4 0x55C4A8BF SWAP3 PUSH1 0x4 DUP1 DUP3 ADD SWAP4 SWAP2 DUP3 SWAP1 SUB ADD DUP2 DUP7 GAS STATICCALL ISZERO DUP1 ISZERO PUSH2 0x104C JUMPI RETURNDATASIZE PUSH1 0x0 DUP1 RETURNDATACOPY RETURNDATASIZE PUSH1 0x0 REVERT JUMPDEST POP POP POP POP PUSH1 0x40 MLOAD RETURNDATASIZE PUSH1 0x1F NOT PUSH1 0x1F DUP3 ADD AND DUP3 ADD DUP1 PUSH1 0x40 MSTORE POP DUP2 ADD SWAP1 PUSH2 0x1070 SWAP2 SWAP1 PUSH2 0x1CE4 JUMP JUMPDEST PUSH2 0x107B SWAP1 PUSH1 0x64 PUSH2 0x1D1A JUMP JUMPDEST PUSH1 0x0 DUP8 DUP2 MSTORE PUSH1 0x9 PUSH1 0x20 MSTORE PUSH1 0x40 SWAP1 KECCAK256 PUSH1 0x3 ADD SLOAD PUSH2 0x1097 SWAP2 SWAP1 PUSH2 0x1D55 JUMP JUMPDEST PUSH2 0x10A1 SWAP2 SWAP1 PUSH2 0x1D33 JUMP JUMPDEST PUSH1 0x0 DUP7 DUP2 MSTORE PUSH1 0x9 PUSH1 0x20 MSTORE PUSH1 0x40 SWAP1 KECCAK256 PUSH1 0x2 ADD SLOAD PUSH2 0x10BD SWAP2 SWAP1 PUSH2 0x1D6C JUMP JUMPDEST SWAP2 POP PUSH1 0x64 PUSH32 0x0 PUSH1 0x1 PUSH1 0x1 PUSH1 0xA0 SHL SUB AND PUSH4 0x55C4A8BF PUSH1 0x40 MLOAD DUP2 PUSH4 0xFFFFFFFF AND PUSH1 0xE0 SHL DUP2 MSTORE PUSH1 0x4 ADD PUSH1 0x20 PUSH1 0x40 MLOAD DUP1 DUP4 SUB DUP2 DUP7 GAS STATICCALL ISZERO DUP1 ISZERO PUSH2 0x111F JUMPI RETURNDATASIZE PUSH1 0x0 DUP1 RETURNDATACOPY RETURNDATASIZE PUSH1 0x0 REVERT JUMPDEST POP POP POP POP PUSH1 0x40 MLOAD RETURNDATASIZE PUSH1 0x1F NOT PUSH1 0x1F DUP3 ADD AND DUP3 ADD DUP1 PUSH1 0x40 MSTORE POP DUP2 ADD SWAP1 PUSH2 0x1143 SWAP2 SWAP1 PUSH2 0x1CE4 JUMP JUMPDEST PUSH1 0x0 DUP8 DUP2 MSTORE PUSH1 0x9 PUSH1 0x20 MSTORE PUSH1 0x40 SWAP1 KECCAK256 PUSH1 0x3 ADD SLOAD PUSH2 0x115F SWAP2 SWAP1 PUSH2 0x1D55 JUMP JUMPDEST PUSH2 0x1169 SWAP2 SWAP1 PUSH2 0x1D33 JUMP JUMPDEST PUSH1 0x0 DUP7 DUP2 MSTORE PUSH1 0x9 PUSH1 0x20 SWAP1 DUP2 MSTORE PUSH1 0x40 DUP1 DUP4 KECCAK256 SLOAD DUP4 MSTORE PUSH1 0x7 SWAP1 SWAP2 MSTORE SWAP1 KECCAK256 PUSH1 0x1 ADD SLOAD PUSH1 0x1 PUSH1 0x1 PUSH1 0xA0 SHL SUB AND SWAP4 POP SWAP1 POP PUSH2 0x13AF JUMP JUMPDEST PUSH1 0x5 SLOAD PUSH1 0x2 SUB PUSH2 0x137F JUMPI PUSH1 0x0 DUP6 DUP2 MSTORE PUSH1 0x9 PUSH1 0x20 SWAP1 DUP2 MSTORE PUSH1 0x40 DUP1 DUP4 KECCAK256 PUSH1 0x1 ADD SLOAD DUP4 MSTORE PUSH1 0x7 DUP3 MSTORE SWAP2 DUP3 SWAP1 KECCAK256 SLOAD DUP3 MLOAD PUSH4 0x55C4A8BF PUSH1 0xE0 SHL DUP2 MSTORE SWAP3 MLOAD PUSH1 0x1 PUSH1 0x1 PUSH1 0xA0 SHL SUB SWAP2 DUP3 AND SWAP8 POP PUSH1 0x64 SWAP4 PUSH32 0x0 SWAP1 SWAP3 AND SWAP3 PUSH4 0x55C4A8BF SWAP3 PUSH1 0x4 DUP1 DUP3 ADD SWAP4 SWAP2 DUP3 SWAP1 SUB ADD DUP2 DUP7 GAS STATICCALL ISZERO DUP1 ISZERO PUSH2 0x122D JUMPI RETURNDATASIZE PUSH1 0x0 DUP1 RETURNDATACOPY RETURNDATASIZE PUSH1 0x0 REVERT JUMPDEST POP POP POP POP PUSH1 0x40 MLOAD RETURNDATASIZE PUSH1 0x1F NOT PUSH1 0x1F DUP3 ADD AND DUP3 ADD DUP1 PUSH1 0x40 MSTORE POP DUP2 ADD SWAP1 PUSH2 0x1251 SWAP2 SWAP1 PUSH2 0x1CE4 JUMP JUMPDEST PUSH2 0x125C SWAP1 PUSH1 0x64 PUSH2 0x1D1A JUMP JUMPDEST PUSH1 0x0 DUP8 DUP2 MSTORE PUSH1 0x9 PUSH1 0x20 MSTORE PUSH1 0x40 SWAP1 KECCAK256 PUSH1 0x2 ADD SLOAD PUSH2 0x1278 SWAP2 SWAP1 PUSH2 0x1D55 JUMP JUMPDEST PUSH2 0x1282 SWAP2 SWAP1 PUSH2 0x1D33 JUMP JUMPDEST PUSH1 0x0 DUP7 DUP2 MSTORE PUSH1 0x9 PUSH1 0x20 MSTORE PUSH1 0x40 SWAP1 KECCAK256 PUSH1 0x3 ADD SLOAD PUSH2 0x129E SWAP2 SWAP1 PUSH2 0x1D6C JUMP JUMPDEST SWAP2 POP PUSH1 0x64 PUSH32 0x0 PUSH1 0x1 PUSH1 0x1 PUSH1 0xA0 SHL SUB AND PUSH4 0x55C4A8BF PUSH1 0x40 MLOAD DUP2 PUSH4 0xFFFFFFFF AND PUSH1 0xE0 SHL DUP2 MSTORE PUSH1 0x4 ADD PUSH1 0x20 PUSH1 0x40 MLOAD DUP1 DUP4 SUB DUP2 DUP7 GAS STATICCALL ISZERO DUP1 ISZERO PUSH2 0x1300 JUMPI RETURNDATASIZE PUSH1 0x0 DUP1 RETURNDATACOPY RETURNDATASIZE PUSH1 0x0 REVERT JUMPDEST POP POP POP POP PUSH1 0x40 MLOAD RETURNDATASIZE PUSH1 0x1F NOT PUSH1 0x1F DUP3 ADD AND DUP3 ADD DUP1 PUSH1 0x40 MSTORE POP DUP2 ADD SWAP1 PUSH2 0x1324 SWAP2 SWAP1 PUSH2 0x1CE4 JUMP JUMPDEST PUSH1 0x0 DUP8 DUP2 MSTORE PUSH1 0x9 PUSH1 0x20 MSTORE PUSH1 0x40 SWAP1 KECCAK256 PUSH1 0x2 ADD SLOAD PUSH2 0x1340 SWAP2 SWAP1 PUSH2 0x1D55 JUMP JUMPDEST PUSH2 0x134A SWAP2 SWAP1 PUSH2 0x1D33 JUMP JUMPDEST PUSH1 0x0 DUP7 DUP2 MSTORE PUSH1 0x9 PUSH1 0x20 SWAP1 DUP2 MSTORE PUSH1 0x40 DUP1 DUP4 KECCAK256 PUSH1 0x1 SWAP1 DUP2 ADD SLOAD DUP5 MSTORE PUSH1 0x7 SWAP1 SWAP3 MSTORE SWAP1 SWAP2 KECCAK256 ADD SLOAD PUSH1 0x1 PUSH1 0x1 PUSH1 0xA0 SHL SUB AND SWAP4 POP SWAP1 POP PUSH2 0x13AF JUMP JUMPDEST PUSH1 0x40 MLOAD PUSH3 0x461BCD PUSH1 0xE5 SHL DUP2 MSTORE PUSH1 0x20 PUSH1 0x4 DUP3 ADD MSTORE PUSH1 0x5 PUSH1 0x24 DUP3 ADD MSTORE PUSH5 0x3C103BB4B7 PUSH1 0xD9 SHL PUSH1 0x44 DUP3 ADD MSTORE PUSH1 0x64 ADD PUSH2 0x368 JUMP JUMPDEST PUSH1 0x1 PUSH1 0x1 PUSH1 0xA0 SHL SUB DUP4 AND PUSH2 0x1442 JUMPI PUSH32 0x0 PUSH1 0x1 PUSH1 0x1 PUSH1 0xA0 SHL SUB AND PUSH4 0x9953B2F PUSH1 0x40 MLOAD DUP2 PUSH4 0xFFFFFFFF AND PUSH1 0xE0 SHL DUP2 MSTORE PUSH1 0x4 ADD PUSH1 0x20 PUSH1 0x40 MLOAD DUP1 DUP4 SUB DUP2 DUP7 GAS STATICCALL ISZERO DUP1 ISZERO PUSH2 0x141B JUMPI RETURNDATASIZE PUSH1 0x0 DUP1 RETURNDATACOPY RETURNDATASIZE PUSH1 0x0 REVERT JUMPDEST POP POP POP POP PUSH1 0x40 MLOAD RETURNDATASIZE PUSH1 0x1F NOT PUSH1 0x1F DUP3 ADD AND DUP3 ADD DUP1 PUSH1 0x40 MSTORE POP DUP2 ADD SWAP1 PUSH2 0x143F SWAP2 SWAP1 PUSH2 0x1D7F JUMP JUMPDEST SWAP3 POP JUMPDEST PUSH1 0x1 PUSH1 0x1 PUSH1 0xA0 SHL SUB DUP5 AND PUSH1 0x0 SWAP1 DUP2 MSTORE PUSH1 0x6 PUSH1 0x20 MSTORE PUSH1 0x40 DUP2 KECCAK256 DUP1 SLOAD DUP5 SWAP3 SWAP1 PUSH2 0x146A SWAP1 DUP5 SWAP1 PUSH2 0x1D6C JUMP JUMPDEST SWAP3 POP POP DUP2 SWAP1 SSTORE POP PUSH1 0x64 PUSH32 0x0 PUSH1 0x1 PUSH1 0x1 PUSH1 0xA0 SHL SUB AND PUSH4 0x6A0CCD9D PUSH1 0x40 MLOAD DUP2 PUSH4 0xFFFFFFFF AND PUSH1 0xE0 SHL DUP2 MSTORE PUSH1 0x4 ADD PUSH1 0x20 PUSH1 0x40 MLOAD DUP1 DUP4 SUB DUP2 DUP7 GAS STATICCALL ISZERO DUP1 ISZERO PUSH2 0x14D1 JUMPI RETURNDATASIZE PUSH1 0x0 DUP1 RETURNDATACOPY RETURNDATASIZE PUSH1 0x0 REVERT JUMPDEST POP POP POP POP PUSH1 0x40 MLOAD RETURNDATASIZE PUSH1 0x1F NOT PUSH1 0x1F DUP3 ADD AND DUP3 ADD DUP1 PUSH1 0x40 MSTORE POP DUP2 ADD SWAP1 PUSH2 0x14F5 SWAP2 SWAP1 PUSH2 0x1CE4 JUMP JUMPDEST PUSH2 0x14FF SWAP1 DUP4 PUSH2 0x1D55 JUMP JUMPDEST PUSH2 0x1509 SWAP2 SWAP1 PUSH2 0x1D33 JUMP JUMPDEST PUSH1 0x6 PUSH1 0x0 PUSH32 0x0 PUSH1 0x1 PUSH1 0x1 PUSH1 0xA0 SHL SUB AND PUSH4 0xB7640A54 PUSH1 0x40 MLOAD DUP2 PUSH4 0xFFFFFFFF AND PUSH1 0xE0 SHL DUP2 MSTORE PUSH1 0x4 ADD PUSH1 0x20 PUSH1 0x40 MLOAD DUP1 DUP4 SUB DUP2 DUP7 GAS STATICCALL ISZERO DUP1 ISZERO PUSH2 0x156B JUMPI RETURNDATASIZE PUSH1 0x0 DUP1 RETURNDATACOPY RETURNDATASIZE PUSH1 0x0 REVERT JUMPDEST POP POP POP POP PUSH1 0x40 MLOAD RETURNDATASIZE PUSH1 0x1F NOT PUSH1 0x1F DUP3 ADD AND DUP3 ADD DUP1 PUSH1 0x40 MSTORE POP DUP2 ADD SWAP1 PUSH2 0x158F SWAP2 SWAP1 PUSH2 0x1D7F JUMP JUMPDEST PUSH1 0x1 PUSH1 0x1 PUSH1 0xA0 SHL SUB AND PUSH1 0x1 PUSH1 0x1 PUSH1 0xA0 SHL SUB AND DUP2 MSTORE PUSH1 0x20 ADD SWAP1 DUP2 MSTORE PUSH1 0x20 ADD PUSH1 0x0 KECCAK256 PUSH1 0x0 DUP3 DUP3 SLOAD PUSH2 0x15BE SWAP2 SWAP1 PUSH2 0x1D6C JUMP JUMPDEST SWAP3 POP POP DUP2 SWAP1 SSTORE POP PUSH1 0x64 PUSH32 0x0 PUSH1 0x1 PUSH1 0x1 PUSH1 0xA0 SHL SUB AND PUSH4 0x28576D45 PUSH1 0x40 MLOAD DUP2 PUSH4 0xFFFFFFFF AND PUSH1 0xE0 SHL DUP2 MSTORE PUSH1 0x4 ADD PUSH1 0x20 PUSH1 0x40 MLOAD DUP1 DUP4 SUB DUP2 DUP7 GAS STATICCALL ISZERO DUP1 ISZERO PUSH2 0x1625 JUMPI RETURNDATASIZE PUSH1 0x0 DUP1 RETURNDATACOPY RETURNDATASIZE PUSH1 0x0 REVERT JUMPDEST POP POP POP POP PUSH1 0x40 MLOAD RETURNDATASIZE PUSH1 0x1F NOT PUSH1 0x1F DUP3 ADD AND DUP3 ADD DUP1 PUSH1 0x40 MSTORE POP DUP2 ADD SWAP1 PUSH2 0x1649 SWAP2 SWAP1 PUSH2 0x1CE4 JUMP JUMPDEST PUSH2 0x1653 SWAP1 DUP4 PUSH2 0x1D55 JUMP JUMPDEST PUSH2 0x165D SWAP2 SWAP1 PUSH2 0x1D33 JUMP JUMPDEST PUSH1 0x6 PUSH1 0x0 PUSH32 0x0 PUSH1 0x1 PUSH1 0x1 PUSH1 0xA0 SHL SUB AND PUSH4 0x9953B2F PUSH1 0x40 MLOAD DUP2 PUSH4 0xFFFFFFFF AND PUSH1 0xE0 SHL DUP2 MSTORE PUSH1 0x4 ADD PUSH1 0x20 PUSH1 0x40 MLOAD DUP1 DUP4 SUB DUP2 DUP7 GAS STATICCALL ISZERO DUP1 ISZERO PUSH2 0x16BF JUMPI RETURNDATASIZE PUSH1 0x0 DUP1 RETURNDATACOPY RETURNDATASIZE PUSH1 0x0 REVERT JUMPDEST POP POP POP POP PUSH1 0x40 MLOAD RETURNDATASIZE PUSH1 0x1F NOT PUSH1 0x1F DUP3 ADD AND DUP3 ADD DUP1 PUSH1 0x40 MSTORE POP DUP2 ADD SWAP1 PUSH2 0x16E3 SWAP2 SWAP1 PUSH2 0x1D7F JUMP JUMPDEST PUSH1 0x1 PUSH1 0x1 PUSH1 0xA0 SHL SUB AND PUSH1 0x1 PUSH1 0x1 PUSH1 0xA0 SHL SUB AND DUP2 MSTORE PUSH1 0x20 ADD SWAP1 DUP2 MSTORE PUSH1 0x20 ADD PUSH1 0x0 KECCAK256 PUSH1 0x0 DUP3 DUP3 SLOAD PUSH2 0x1712 SWAP2 SWAP1 PUSH2 0x1D6C JUMP JUMPDEST SWAP3 POP POP DUP2 SWAP1 SSTORE POP PUSH1 0x64 PUSH32 0x0 PUSH1 0x1 PUSH1 0x1 PUSH1 0xA0 SHL SUB AND PUSH4 0x54CD1A5C PUSH1 0x40 MLOAD DUP2 PUSH4 0xFFFFFFFF AND PUSH1 0xE0 SHL DUP2 MSTORE PUSH1 0x4 ADD PUSH1 0x20 PUSH1 0x40 MLOAD DUP1 DUP4 SUB DUP2 DUP7 GAS STATICCALL ISZERO DUP1 ISZERO PUSH2 0x1779 JUMPI RETURNDATASIZE PUSH1 0x0 DUP1 RETURNDATACOPY RETURNDATASIZE PUSH1 0x0 REVERT JUMPDEST POP POP POP POP PUSH1 0x40 MLOAD RETURNDATASIZE PUSH1 0x1F NOT PUSH1 0x1F DUP3 ADD AND DUP3 ADD DUP1 PUSH1 0x40 MSTORE POP DUP2 ADD SWAP1 PUSH2 0x179D SWAP2 SWAP1 PUSH2 0x1CE4 JUMP JUMPDEST PUSH2 0x17A7 SWAP1 DUP4 PUSH2 0x1D55 JUMP JUMPDEST PUSH2 0x17B1 SWAP2 SWAP1 PUSH2 0x1D33 JUMP JUMPDEST PUSH1 0x1 PUSH1 0x1 PUSH1 0xA0 SHL SUB DUP5 AND PUSH1 0x0 SWAP1 DUP2 MSTORE PUSH1 0x6 PUSH1 0x20 MSTORE PUSH1 0x40 DUP2 KECCAK256 DUP1 SLOAD SWAP1 SWAP2 SWAP1 PUSH2 0x17D9 SWAP1 DUP5 SWAP1 PUSH2 0x1D6C JUMP JUMPDEST SWAP1 SWAP2 SSTORE POP POP POP PUSH1 0x0 DUP5 DUP2 MSTORE PUSH1 0x9 PUSH1 0x20 MSTORE PUSH1 0x40 SWAP1 KECCAK256 PUSH1 0x4 ADD DUP1 SLOAD PUSH1 0xFF NOT AND PUSH1 0x1 OR SWAP1 SSTORE POP POP POP POP PUSH1 0x1 PUSH1 0x0 SSTORE JUMP JUMPDEST PUSH1 0x0 DUP2 DUP2 MSTORE PUSH1 0x9 PUSH1 0x20 SWAP1 DUP2 MSTORE PUSH1 0x40 DUP1 DUP4 KECCAK256 DUP1 SLOAD DUP5 MSTORE PUSH1 0x7 DUP4 MSTORE DUP2 DUP5 KECCAK256 SLOAD PUSH1 0x1 DUP3 ADD SLOAD DUP6 MSTORE DUP3 DUP6 KECCAK256 SLOAD PUSH1 0x2 SWAP1 SWAP3 ADD SLOAD PUSH1 0x1 PUSH1 0x1 PUSH1 0xA0 SHL SUB SWAP2 DUP3 AND DUP1 DUP8 MSTORE PUSH1 0x6 SWAP1 SWAP6 MSTORE SWAP3 DUP6 KECCAK256 DUP1 SLOAD SWAP5 SWAP6 SWAP2 SWAP1 SWAP3 AND SWAP4 PUSH2 0x185E SWAP1 DUP5 SWAP1 PUSH2 0x1D6C JUMP JUMPDEST SWAP1 SWAP2 SSTORE POP POP PUSH1 0x0 DUP4 DUP2 MSTORE PUSH1 0x9 PUSH1 0x20 SWAP1 DUP2 MSTORE PUSH1 0x40 DUP1 DUP4 KECCAK256 PUSH1 0x3 ADD SLOAD PUSH1 0x1 PUSH1 0x1 PUSH1 0xA0 SHL SUB DUP6 AND DUP5 MSTORE PUSH1 0x6 SWAP1 SWAP3 MSTORE DUP3 KECCAK256 DUP1 SLOAD SWAP2 SWAP3 SWAP1 SWAP2 PUSH2 0x189C SWAP1 DUP5 SWAP1 PUSH2 0x1D6C JUMP JUMPDEST SWAP1 SWAP2 SSTORE POP POP POP PUSH1 0x0 SWAP2 DUP3 MSTORE POP PUSH1 0x9 PUSH1 0x20 MSTORE PUSH1 0x40 SWAP1 KECCAK256 PUSH1 0x4 ADD DUP1 SLOAD PUSH1 0xFF NOT AND PUSH1 0x1 OR SWAP1 SSTORE JUMP JUMPDEST PUSH1 0x0 DUP1 JUMPDEST PUSH1 0x3 SLOAD PUSH1 0x40 MLOAD PUSH12 0xFFFFFFFFFFFFFFFFFFFFFFFF NOT PUSH1 0x60 DUP12 DUP2 SHL DUP3 AND PUSH1 0x20 DUP5 ADD MSTORE ADDRESS SWAP1 SHL AND PUSH1 0x34 DUP3 ADD MSTORE PUSH1 0x48 DUP2 ADD SWAP2 SWAP1 SWAP2 MSTORE TIMESTAMP PUSH1 0x68 DUP3 ADD MSTORE DIFFICULTY PUSH1 0x88 DUP3 ADD MSTORE PUSH1 0xA8 ADD PUSH1 0x40 DUP1 MLOAD PUSH1 0x1F NOT DUP2 DUP5 SUB ADD DUP2 MSTORE SWAP2 DUP2 MSTORE DUP2 MLOAD PUSH1 0x20 SWAP3 DUP4 ADD KECCAK256 PUSH1 0x0 DUP2 DUP2 MSTORE PUSH1 0x7 SWAP1 SWAP4 MSTORE SWAP2 KECCAK256 PUSH1 0x2 ADD SLOAD SWAP1 SWAP2 POP PUSH2 0x18C5 JUMPI PUSH1 0x40 DUP1 MLOAD PUSH1 0xC0 DUP2 ADD DUP3 MSTORE PUSH1 0x1 PUSH1 0x1 PUSH1 0xA0 SHL SUB SWAP10 DUP11 AND DUP1 DUP3 MSTORE SWAP9 DUP11 AND PUSH1 0x20 DUP1 DUP4 ADD SWAP2 DUP3 MSTORE DUP3 DUP5 ADD SWAP10 DUP11 MSTORE PUSH1 0x60 DUP4 ADD SWAP9 DUP10 MSTORE PUSH1 0x80 DUP4 ADD SWAP8 DUP9 MSTORE PUSH1 0xA0 DUP4 ADD SWAP7 DUP8 MSTORE PUSH1 0x0 DUP6 DUP2 MSTORE PUSH1 0x7 DUP3 MSTORE DUP5 DUP2 KECCAK256 SWAP4 MLOAD DUP5 SLOAD SWAP1 DUP15 AND PUSH1 0x1 PUSH1 0x1 PUSH1 0xA0 SHL SUB NOT SWAP2 DUP3 AND OR DUP6 SSTORE SWAP3 MLOAD PUSH1 0x1 DUP1 DUP7 ADD DUP1 SLOAD SWAP3 SWAP1 SWAP16 AND SWAP2 SWAP1 SWAP5 AND OR SWAP1 SWAP13 SSTORE SWAP9 MLOAD PUSH1 0x2 DUP4 ADD SSTORE SWAP7 MLOAD PUSH1 0x3 DUP1 DUP4 ADD SWAP2 SWAP1 SWAP2 SSTORE SWAP6 MLOAD PUSH1 0x4 DUP3 ADD SSTORE SWAP4 MLOAD PUSH1 0x5 SWAP1 SWAP5 ADD SWAP4 SWAP1 SWAP4 SSTORE DUP4 SLOAD DUP1 DUP7 ADD SWAP1 SWAP5 SSTORE PUSH32 0xC2575A0E9E593C00F959F8C92F12DB2869C3395A3B0502D05E2516446F71F85B SWAP1 SWAP4 ADD DUP4 SWAP1 SSTORE POP SWAP4 DUP6 MSTORE PUSH1 0x8 DUP4 MSTORE SWAP3 DUP5 KECCAK256 DUP1 SLOAD SWAP2 DUP3 ADD DUP2 SSTORE DUP5 MSTORE SWAP3 KECCAK256 SWAP1 SWAP2 ADD DUP2 SWAP1 SSTORE SWAP1 JUMP JUMPDEST PUSH1 0x0 DUP1 JUMPDEST PUSH1 0x2 SLOAD PUSH1 0x40 DUP1 MLOAD PUSH1 0x20 DUP2 ADD DUP10 SWAP1 MSTORE SWAP1 DUP2 ADD DUP8 SWAP1 MSTORE PUSH1 0x60 DUP2 ADD SWAP2 SWAP1 SWAP2 MSTORE TIMESTAMP PUSH1 0x80 DUP3 ADD MSTORE DIFFICULTY PUSH1 0xA0 DUP3 ADD MSTORE PUSH1 0xC0 ADD PUSH1 0x40 DUP1 MLOAD PUSH1 0x1F NOT DUP2 DUP5 SUB ADD DUP2 MSTORE SWAP2 DUP2 MSTORE DUP2 MLOAD PUSH1 0x20 SWAP3 DUP4 ADD KECCAK256 PUSH1 0x0 DUP2 DUP2 MSTORE PUSH1 0x9 SWAP1 SWAP4 MSTORE SWAP2 KECCAK256 PUSH1 0x2 ADD SLOAD SWAP1 SWAP2 POP PUSH2 0x1A1F JUMPI PUSH1 0x40 DUP1 MLOAD PUSH1 0xA0 DUP2 ADD DUP3 MSTORE SWAP7 DUP8 MSTORE PUSH1 0x20 DUP1 DUP9 ADD SWAP7 DUP8 MSTORE DUP8 DUP3 ADD SWAP6 DUP7 MSTORE PUSH1 0x60 DUP9 ADD SWAP5 DUP6 MSTORE PUSH1 0x0 PUSH1 0x80 DUP10 ADD DUP2 DUP2 MSTORE DUP5 DUP3 MSTORE PUSH1 0x9 SWAP1 SWAP3 MSTORE SWAP2 DUP3 KECCAK256 SWAP8 MLOAD DUP9 SSTORE SWAP6 MLOAD PUSH1 0x1 DUP1 DUP10 ADD SWAP2 SWAP1 SWAP2 SSTORE SWAP5 MLOAD PUSH1 0x2 DUP1 DUP10 ADD SWAP2 SWAP1 SWAP2 SSTORE SWAP4 MLOAD PUSH1 0x3 DUP9 ADD SSTORE SWAP5 MLOAD PUSH1 0x4 SWAP1 SWAP7 ADD DUP1 SLOAD PUSH1 0xFF NOT AND SWAP7 ISZERO ISZERO SWAP7 SWAP1 SWAP7 OR SWAP1 SWAP6 SSTORE POP DUP1 SLOAD SWAP2 DUP3 ADD DUP2 SSTORE SWAP1 SWAP2 MSTORE PUSH32 0x405787FA12A823E0F2B7631CC41B3BA8828B3321CA811111FA75CD3AA3BB5ACE ADD DUP2 SWAP1 SSTORE SWAP1 JUMP JUMPDEST PUSH1 0x1 PUSH1 0x1 PUSH1 0xA0 SHL SUB DUP2 AND DUP2 EQ PUSH2 0x1B2F JUMPI PUSH1 0x0 DUP1 REVERT JUMPDEST POP JUMP JUMPDEST PUSH1 0x0 PUSH1 0x20 DUP3 DUP5 SUB SLT ISZERO PUSH2 0x1B44 JUMPI PUSH1 0x0 DUP1 REVERT JUMPDEST DUP2 CALLDATALOAD PUSH2 0x1B4F DUP2 PUSH2 0x1B1A JUMP JUMPDEST SWAP4 SWAP3 POP POP POP JUMP JUMPDEST PUSH1 0x20 DUP1 DUP3 MSTORE DUP3 MLOAD DUP3 DUP3 ADD DUP2 SWAP1 MSTORE PUSH1 0x0 SWAP2 SWAP1 PUSH1 0x40 SWAP1 DUP2 DUP6 ADD SWAP1 DUP7 DUP5 ADD DUP6 JUMPDEST DUP3 DUP2 LT ISZERO PUSH2 0x1BCD JUMPI DUP2 MLOAD DUP1 MLOAD PUSH1 0x1 PUSH1 0x1 PUSH1 0xA0 SHL SUB SWAP1 DUP2 AND DUP7 MSTORE DUP8 DUP3 ADD MLOAD AND DUP8 DUP7 ADD MSTORE DUP6 DUP2 ADD MLOAD DUP7 DUP7 ADD MSTORE PUSH1 0x60 DUP1 DUP3 ADD MLOAD SWAP1 DUP7 ADD MSTORE PUSH1 0x80 DUP1 DUP3 ADD MLOAD SWAP1 DUP7 ADD MSTORE PUSH1 0xA0 SWAP1 DUP2 ADD MLOAD SWAP1 DUP6 ADD MSTORE PUSH1 0xC0 SWAP1 SWAP4 ADD SWAP3 SWAP1 DUP6 ADD SWAP1 PUSH1 0x1 ADD PUSH2 0x1B73 JUMP JUMPDEST POP SWAP2 SWAP8 SWAP7 POP POP POP POP POP POP POP JUMP JUMPDEST PUSH1 0x0 PUSH1 0x20 DUP3 DUP5 SUB SLT ISZERO PUSH2 0x1BEC JUMPI PUSH1 0x0 DUP1 REVERT JUMPDEST POP CALLDATALOAD SWAP2 SWAP1 POP JUMP JUMPDEST DUP1 ISZERO ISZERO DUP2 EQ PUSH2 0x1B2F JUMPI PUSH1 0x0 DUP1 REVERT JUMPDEST PUSH1 0x0 DUP1 PUSH1 0x0 DUP1 PUSH1 0x0 DUP1 PUSH1 0xC0 DUP8 DUP10 SUB SLT ISZERO PUSH2 0x1C1A JUMPI PUSH1 0x0 DUP1 REVERT JUMPDEST DUP7 CALLDATALOAD PUSH2 0x1C25 DUP2 PUSH2 0x1B1A JUMP JUMPDEST SWAP6 POP PUSH1 0x20 DUP8 ADD CALLDATALOAD PUSH2 0x1C35 DUP2 PUSH2 0x1B1A JUMP JUMPDEST SWAP5 POP PUSH1 0x40 DUP8 ADD CALLDATALOAD SWAP4 POP PUSH1 0x60 DUP8 ADD CALLDATALOAD SWAP3 POP PUSH1 0x80 DUP8 ADD CALLDATALOAD SWAP2 POP PUSH1 0xA0 DUP8 ADD CALLDATALOAD PUSH2 0x1C5A DUP2 PUSH2 0x1BF3 JUMP JUMPDEST DUP1 SWAP2 POP POP SWAP3 SWAP6 POP SWAP3 SWAP6 POP SWAP3 SWAP6 JUMP JUMPDEST PUSH4 0x4E487B71 PUSH1 0xE0 SHL PUSH1 0x0 MSTORE PUSH1 0x32 PUSH1 0x4 MSTORE PUSH1 0x24 PUSH1 0x0 REVERT JUMPDEST PUSH4 0x4E487B71 PUSH1 0xE0 SHL PUSH1 0x0 MSTORE PUSH1 0x11 PUSH1 0x4 MSTORE PUSH1 0x24 PUSH1 0x0 REVERT JUMPDEST PUSH1 0x0 PUSH1 0x1 DUP3 ADD PUSH2 0x1CA6 JUMPI PUSH2 0x1CA6 PUSH2 0x1C7E JUMP JUMPDEST POP PUSH1 0x1 ADD SWAP1 JUMP JUMPDEST PUSH1 0x20 DUP1 DUP3 MSTORE PUSH1 0x1F SWAP1 DUP3 ADD MSTORE PUSH32 0x5265656E7472616E637947756172643A207265656E7472616E742063616C6C00 PUSH1 0x40 DUP3 ADD MSTORE PUSH1 0x60 ADD SWAP1 JUMP JUMPDEST PUSH1 0x0 PUSH1 0x20 DUP3 DUP5 SUB SLT ISZERO PUSH2 0x1CF6 JUMPI PUSH1 0x0 DUP1 REVERT JUMPDEST POP MLOAD SWAP2 SWAP1 POP JUMP JUMPDEST PUSH1 0x0 PUSH1 0x20 DUP3 DUP5 SUB SLT ISZERO PUSH2 0x1D0F JUMPI PUSH1 0x0 DUP1 REVERT JUMPDEST DUP2 MLOAD PUSH2 0x1B4F DUP2 PUSH2 0x1BF3 JUMP JUMPDEST DUP2 DUP2 SUB DUP2 DUP2 GT ISZERO PUSH2 0x1D2D JUMPI PUSH2 0x1D2D PUSH2 0x1C7E JUMP JUMPDEST SWAP3 SWAP2 POP POP JUMP JUMPDEST PUSH1 0x0 DUP3 PUSH2 0x1D50 JUMPI PUSH4 0x4E487B71 PUSH1 0xE0 SHL PUSH1 0x0 MSTORE PUSH1 0x12 PUSH1 0x4 MSTORE PUSH1 0x24 PUSH1 0x0 REVERT JUMPDEST POP DIV SWAP1 JUMP JUMPDEST DUP1 DUP3 MUL DUP2 ISZERO DUP3 DUP3 DIV DUP5 EQ OR PUSH2 0x1D2D JUMPI PUSH2 0x1D2D PUSH2 0x1C7E JUMP JUMPDEST DUP1 DUP3 ADD DUP1 DUP3 GT ISZERO PUSH2 0x1D2D JUMPI PUSH2 0x1D2D PUSH2 0x1C7E JUMP JUMPDEST PUSH1 0x0 PUSH1 0x20 DUP3 DUP5 SUB SLT ISZERO PUSH2 0x1D91 JUMPI PUSH1 0x0 DUP1 REVERT JUMPDEST DUP2 MLOAD PUSH2 0x1B4F DUP2 PUSH2 0x1B1A JUMP INVALID LOG2 PUSH5 0x6970667358 0x22 SLT KECCAK256 COINBASE GT 0xB5 DUP12 0x28 ORIGIN COINBASE GASPRICE JUMP 0xC5 JUMPI 0xCF 0xC9 0xB1 0x2F PUSH18 0x22A946FF5944624C94BA4F91574693826473 PUSH16 0x6C634300081100330000000000000000 "
				},
				"gasEstimates": {
					"creation": {
						"codeDepositCost": "1526800",
						"executionCost": "infinite",
						"totalCost": "infinite"
					},
					"external": {
						"addBet(address,address,uint256,uint256,uint256,bool)": "infinite",
						"app()": "infinite",
						"cancelMarket()": "infinite",
						"cancelPending(bytes32)": "infinite",
						"factory()": "2403",
						"getBalance(address)": "2608",
						"getUserBets(address)": "infinite",
						"settle(uint256)": "infinite",
						"settleBet(bytes32)": "infinite",
						"status()": "2285",
						"token()": "infinite",
						"withdraw(address)": "infinite"
					},
					"internal": {
						"_cancelPair(bytes32)": "infinite",
						"_createBet(address,address,uint256,uint256,uint256,uint256)": "infinite",
						"_createPair(bytes32,bytes32,uint256,uint256)": "infinite",
						"_settlePair(bytes32)": "infinite"
					}
				},
				"methodIdentifiers": {
					"addBet(address,address,uint256,uint256,uint256,bool)": "78d65b2f",
					"app()": "b76564bd",
					"cancelMarket()": "6bfefd6b",
					"cancelPending(bytes32)": "893372ca",
					"factory()": "c45a0155",
					"getBalance(address)": "f8b2cb4f",
					"getUserBets(address)": "2d56657d",
					"settle(uint256)": "8df82800",
					"settleBet(bytes32)": "675f6537",
					"status()": "200d2ed2",
					"token()": "fc0c546a",
					"withdraw(address)": "51cff8d9"
				}
			},
			"storageLayout": {
				"storage": [
					{
						"astId": 10,
						"contract": "contracts/Market.sol:Market",
						"label": "_status",
						"offset": 0,
						"slot": "0",
						"type": "t_uint256"
					},
					{
						"astId": 129,
						"contract": "contracts/Market.sol:Market",
						"label": "factory",
						"offset": 0,
						"slot": "1",
						"type": "t_address"
					},
					{
						"astId": 132,
						"contract": "contracts/Market.sol:Market",
						"label": "pairs",
						"offset": 0,
						"slot": "2",
						"type": "t_array(t_bytes32)dyn_storage"
					},
					{
						"astId": 135,
						"contract": "contracts/Market.sol:Market",
						"label": "bets",
						"offset": 0,
						"slot": "3",
						"type": "t_array(t_bytes32)dyn_storage"
					},
					{
						"astId": 138,
						"contract": "contracts/Market.sol:Market",
						"label": "pendingBets",
						"offset": 0,
						"slot": "4",
						"type": "t_array(t_bytes32)dyn_storage"
					},
					{
						"astId": 142,
						"contract": "contracts/Market.sol:Market",
						"label": "status",
						"offset": 0,
						"slot": "5",
						"type": "t_uint256"
					},
					{
						"astId": 157,
						"contract": "contracts/Market.sol:Market",
						"label": "bal",
						"offset": 0,
						"slot": "6",
						"type": "t_mapping(t_address,t_uint256)"
					},
					{
						"astId": 162,
						"contract": "contracts/Market.sol:Market",
						"label": "betsInfo",
						"offset": 0,
						"slot": "7",
						"type": "t_mapping(t_bytes32,t_struct(MarketBet)1377_storage)"
					},
					{
						"astId": 167,
						"contract": "contracts/Market.sol:Market",
						"label": "userBets",
						"offset": 0,
						"slot": "8",
						"type": "t_mapping(t_address,t_array(t_bytes32)dyn_storage)"
					},
					{
						"astId": 172,
						"contract": "contracts/Market.sol:Market",
						"label": "pairsInfo",
						"offset": 0,
						"slot": "9",
						"type": "t_mapping(t_bytes32,t_struct(MarketPair)153_storage)"
					},
					{
						"astId": 177,
						"contract": "contracts/Market.sol:Market",
						"label": "betPairs",
						"offset": 0,
						"slot": "10",
						"type": "t_mapping(t_bytes32,t_array(t_bytes32)dyn_storage)"
					}
				],
				"types": {
					"t_address": {
						"encoding": "inplace",
						"label": "address",
						"numberOfBytes": "20"
					},
					"t_array(t_bytes32)dyn_storage": {
						"base": "t_bytes32",
						"encoding": "dynamic_array",
						"label": "bytes32[]",
						"numberOfBytes": "32"
					},
					"t_bool": {
						"encoding": "inplace",
						"label": "bool",
						"numberOfBytes": "1"
					},
					"t_bytes32": {
						"encoding": "inplace",
						"label": "bytes32",
						"numberOfBytes": "32"
					},
					"t_mapping(t_address,t_array(t_bytes32)dyn_storage)": {
						"encoding": "mapping",
						"key": "t_address",
						"label": "mapping(address => bytes32[])",
						"numberOfBytes": "32",
						"value": "t_array(t_bytes32)dyn_storage"
					},
					"t_mapping(t_address,t_uint256)": {
						"encoding": "mapping",
						"key": "t_address",
						"label": "mapping(address => uint256)",
						"numberOfBytes": "32",
						"value": "t_uint256"
					},
					"t_mapping(t_bytes32,t_array(t_bytes32)dyn_storage)": {
						"encoding": "mapping",
						"key": "t_bytes32",
						"label": "mapping(bytes32 => bytes32[])",
						"numberOfBytes": "32",
						"value": "t_array(t_bytes32)dyn_storage"
					},
					"t_mapping(t_bytes32,t_struct(MarketBet)1377_storage)": {
						"encoding": "mapping",
						"key": "t_bytes32",
						"label": "mapping(bytes32 => struct IMarket.MarketBet)",
						"numberOfBytes": "32",
						"value": "t_struct(MarketBet)1377_storage"
					},
					"t_mapping(t_bytes32,t_struct(MarketPair)153_storage)": {
						"encoding": "mapping",
						"key": "t_bytes32",
						"label": "mapping(bytes32 => struct Market.MarketPair)",
						"numberOfBytes": "32",
						"value": "t_struct(MarketPair)153_storage"
					},
					"t_struct(MarketBet)1377_storage": {
						"encoding": "inplace",
						"label": "struct IMarket.MarketBet",
						"members": [
							{
								"astId": 1366,
								"contract": "contracts/Market.sol:Market",
								"label": "better",
								"offset": 0,
								"slot": "0",
								"type": "t_address"
							},
							{
								"astId": 1368,
								"contract": "contracts/Market.sol:Market",
								"label": "affiliate",
								"offset": 0,
								"slot": "1",
								"type": "t_address"
							},
							{
								"astId": 1370,
								"contract": "contracts/Market.sol:Market",
								"label": "stake",
								"offset": 0,
								"slot": "2",
								"type": "t_uint256"
							},
							{
								"astId": 1372,
								"contract": "contracts/Market.sol:Market",
								"label": "matched",
								"offset": 0,
								"slot": "3",
								"type": "t_uint256"
							},
							{
								"astId": 1374,
								"contract": "contracts/Market.sol:Market",
								"label": "odds",
								"offset": 0,
								"slot": "4",
								"type": "t_uint256"
							},
							{
								"astId": 1376,
								"contract": "contracts/Market.sol:Market",
								"label": "side",
								"offset": 0,
								"slot": "5",
								"type": "t_uint256"
							}
						],
						"numberOfBytes": "192"
					},
					"t_struct(MarketPair)153_storage": {
						"encoding": "inplace",
						"label": "struct Market.MarketPair",
						"members": [
							{
								"astId": 144,
								"contract": "contracts/Market.sol:Market",
								"label": "betHashA",
								"offset": 0,
								"slot": "0",
								"type": "t_bytes32"
							},
							{
								"astId": 146,
								"contract": "contracts/Market.sol:Market",
								"label": "betHashB",
								"offset": 0,
								"slot": "1",
								"type": "t_bytes32"
							},
							{
								"astId": 148,
								"contract": "contracts/Market.sol:Market",
								"label": "amountA",
								"offset": 0,
								"slot": "2",
								"type": "t_uint256"
							},
							{
								"astId": 150,
								"contract": "contracts/Market.sol:Market",
								"label": "amountB",
								"offset": 0,
								"slot": "3",
								"type": "t_uint256"
							},
							{
								"astId": 152,
								"contract": "contracts/Market.sol:Market",
								"label": "settled",
								"offset": 0,
								"slot": "4",
								"type": "t_bool"
							}
						],
						"numberOfBytes": "160"
					},
					"t_uint256": {
						"encoding": "inplace",
						"label": "uint256",
						"numberOfBytes": "32"
					}
				}
			},
			"userdoc": {
				"kind": "user",
				"methods": {},
				"version": 1
			}
		}
	}
}