{
	"contracts/Market.sol": {
		"Market": {
			"abi": [
				{
					"inputs": [
						{
							"internalType": "bytes32",
							"name": "event_",
							"type": "bytes32"
						}
					],
					"stateMutability": "nonpayable",
					"type": "constructor"
				},
				{
					"anonymous": false,
					"inputs": [
						{
							"indexed": false,
							"internalType": "address",
							"name": "better",
							"type": "address"
						},
						{
							"indexed": false,
							"internalType": "address",
							"name": "marketAddr",
							"type": "address"
						},
						{
							"indexed": false,
							"internalType": "bytes32",
							"name": "hash",
							"type": "bytes32"
						},
						{
							"indexed": false,
							"internalType": "uint256",
							"name": "stake",
							"type": "uint256"
						},
						{
							"indexed": false,
							"internalType": "uint256",
							"name": "odds",
							"type": "uint256"
						},
						{
							"indexed": false,
							"internalType": "uint256",
							"name": "side",
							"type": "uint256"
						}
					],
					"name": "BetCreated",
					"type": "event"
				},
				{
					"anonymous": false,
					"inputs": [
						{
							"indexed": false,
							"internalType": "address",
							"name": "beneficiary",
							"type": "address"
						},
						{
							"indexed": false,
							"internalType": "uint256",
							"name": "value",
							"type": "uint256"
						}
					],
					"name": "Withdraw",
					"type": "event"
				},
				{
					"inputs": [
						{
							"internalType": "address",
							"name": "_affiliate",
							"type": "address"
						},
						{
							"internalType": "uint256",
							"name": "_stake",
							"type": "uint256"
						},
						{
							"internalType": "uint256",
							"name": "_odds",
							"type": "uint256"
						},
						{
							"internalType": "uint256",
							"name": "_side",
							"type": "uint256"
						},
						{
							"internalType": "bool",
							"name": "_instant",
							"type": "bool"
						}
					],
					"name": "addBet",
					"outputs": [
						{
							"internalType": "bytes32",
							"name": "",
							"type": "bytes32"
						}
					],
					"stateMutability": "nonpayable",
					"type": "function"
				},
				{
					"inputs": [],
					"name": "cancel",
					"outputs": [
						{
							"internalType": "bool",
							"name": "",
							"type": "bool"
						}
					],
					"stateMutability": "nonpayable",
					"type": "function"
				},
				{
					"inputs": [
						{
							"internalType": "bytes32",
							"name": "_bet",
							"type": "bytes32"
						}
					],
					"name": "cancelBet",
					"outputs": [],
					"stateMutability": "nonpayable",
					"type": "function"
				},
				{
					"inputs": [],
					"name": "cancelPlusPairs",
					"outputs": [
						{
							"internalType": "bool",
							"name": "",
							"type": "bool"
						}
					],
					"stateMutability": "nonpayable",
					"type": "function"
				},
				{
					"inputs": [
						{
							"internalType": "address",
							"name": "_user",
							"type": "address"
						}
					],
					"name": "getBalance",
					"outputs": [
						{
							"internalType": "uint256",
							"name": "",
							"type": "uint256"
						}
					],
					"stateMutability": "view",
					"type": "function"
				},
				{
					"inputs": [
						{
							"internalType": "bytes32",
							"name": "_bet",
							"type": "bytes32"
						}
					],
					"name": "getBet",
					"outputs": [
						{
							"components": [
								{
									"internalType": "address",
									"name": "better",
									"type": "address"
								},
								{
									"internalType": "address",
									"name": "affiliate",
									"type": "address"
								},
								{
									"internalType": "uint256",
									"name": "stake",
									"type": "uint256"
								},
								{
									"internalType": "uint256",
									"name": "matched",
									"type": "uint256"
								},
								{
									"internalType": "uint256",
									"name": "odds",
									"type": "uint256"
								},
								{
									"internalType": "uint256",
									"name": "side",
									"type": "uint256"
								}
							],
							"internalType": "struct Struct.MarketBet",
							"name": "",
							"type": "tuple"
						}
					],
					"stateMutability": "view",
					"type": "function"
				},
				{
					"inputs": [
						{
							"internalType": "bytes32",
							"name": "_bet",
							"type": "bytes32"
						}
					],
					"name": "getBetPairs",
					"outputs": [
						{
							"internalType": "bytes32[]",
							"name": "",
							"type": "bytes32[]"
						}
					],
					"stateMutability": "view",
					"type": "function"
				},
				{
					"inputs": [],
					"name": "getBets",
					"outputs": [
						{
							"internalType": "bytes32[]",
							"name": "",
							"type": "bytes32[]"
						}
					],
					"stateMutability": "view",
					"type": "function"
				},
				{
					"inputs": [
						{
							"internalType": "bytes32",
							"name": "_pair",
							"type": "bytes32"
						}
					],
					"name": "getPair",
					"outputs": [
						{
							"components": [
								{
									"internalType": "bytes32",
									"name": "betHashA",
									"type": "bytes32"
								},
								{
									"internalType": "bytes32",
									"name": "betHashB",
									"type": "bytes32"
								},
								{
									"internalType": "uint256",
									"name": "amountA",
									"type": "uint256"
								},
								{
									"internalType": "uint256",
									"name": "amountB",
									"type": "uint256"
								},
								{
									"internalType": "bool",
									"name": "settled",
									"type": "bool"
								}
							],
							"internalType": "struct Struct.MarketPair",
							"name": "",
							"type": "tuple"
						}
					],
					"stateMutability": "view",
					"type": "function"
				},
				{
					"inputs": [],
					"name": "getPairs",
					"outputs": [
						{
							"internalType": "bytes32[]",
							"name": "",
							"type": "bytes32[]"
						}
					],
					"stateMutability": "view",
					"type": "function"
				},
				{
					"inputs": [
						{
							"internalType": "address",
							"name": "_user",
							"type": "address"
						}
					],
					"name": "getUserBets",
					"outputs": [
						{
							"internalType": "bytes32[]",
							"name": "",
							"type": "bytes32[]"
						}
					],
					"stateMutability": "view",
					"type": "function"
				},
				{
					"inputs": [
						{
							"internalType": "uint256",
							"name": "_winningSide",
							"type": "uint256"
						}
					],
					"name": "setWinningSide",
					"outputs": [
						{
							"internalType": "bool",
							"name": "",
							"type": "bool"
						}
					],
					"stateMutability": "nonpayable",
					"type": "function"
				},
				{
					"inputs": [
						{
							"internalType": "uint256",
							"name": "_winningSide",
							"type": "uint256"
						}
					],
					"name": "settle",
					"outputs": [
						{
							"internalType": "bool",
							"name": "",
							"type": "bool"
						}
					],
					"stateMutability": "nonpayable",
					"type": "function"
				},
				{
					"inputs": [
						{
							"internalType": "bytes32",
							"name": "_bet",
							"type": "bytes32"
						}
					],
					"name": "settleBet",
					"outputs": [],
					"stateMutability": "nonpayable",
					"type": "function"
				},
				{
					"inputs": [],
					"name": "status",
					"outputs": [
						{
							"internalType": "uint256",
							"name": "",
							"type": "uint256"
						}
					],
					"stateMutability": "view",
					"type": "function"
				},
				{
					"inputs": [],
					"name": "stopNewBet",
					"outputs": [
						{
							"internalType": "bool",
							"name": "",
							"type": "bool"
						}
					],
					"stateMutability": "nonpayable",
					"type": "function"
				},
				{
					"inputs": [
						{
							"internalType": "address",
							"name": "_user",
							"type": "address"
						}
					],
					"name": "withdraw",
					"outputs": [
						{
							"internalType": "bool",
							"name": "",
							"type": "bool"
						}
					],
					"stateMutability": "nonpayable",
					"type": "function"
				},
				{
					"inputs": [
						{
							"internalType": "bytes32",
							"name": "_bet",
							"type": "bytes32"
						}
					],
					"name": "withdrawPending",
					"outputs": [],
					"stateMutability": "nonpayable",
					"type": "function"
				}
			],
			"devdoc": {
				"kind": "dev",
				"methods": {
					"cancelBet(bytes32)": {
						"details": "cancel all pairs in `_bet`, "
					},
					"getBalance(address)": {
						"details": "Returns the amount of tokens owned by `_user` in this market."
					},
					"getBet(bytes32)": {
						"details": "Returns details of `_bet`."
					},
					"getBetPairs(bytes32)": {
						"details": "Returns hash IDs of all the bets placed by `_user`."
					},
					"getBets()": {
						"details": "Returns details of `_bet`."
					},
					"getPair(bytes32)": {
						"details": "Returns details of `_bet`."
					},
					"getPairs()": {
						"details": "Returns details of `_bet`."
					},
					"getUserBets(address)": {
						"details": "Returns hash IDs of all the bets placed by `_user`."
					},
					"setWinningSide(uint256)": {
						"details": "assign `_winningSide` to `status` "
					},
					"settle(uint256)": {
						"details": "assign `_winningSide` to `status` "
					},
					"settleBet(bytes32)": {
						"details": "settle all pairs in `_bet`, "
					},
					"withdraw(address)": {
						"details": "transfer bal[`_user`] to `_user`, bal"
					},
					"withdrawPending(bytes32)": {
						"details": "refund all unmatched stake in `_bet`, and withraw for caller address"
					}
				},
				"version": 1
			},
			"evm": {
				"assembly": "    /* \"contracts/Market.sol\":194:15642  contract Market is IMarket, ReentrancyGuard {... */\n  mstore(0x40, 0xa0)\n    /* \"contracts/Market.sol\":306:355  IWeb3BetsFO private app = IWeb3BetsFO(msg.sender) */\n  0x0b\n  dup1\n  sload\n  not(sub(shl(0xa0, 0x01), 0x01))\n  and\n    /* \"contracts/Market.sol\":344:354  msg.sender */\n  caller\n    /* \"contracts/Market.sol\":306:355  IWeb3BetsFO private app = IWeb3BetsFO(msg.sender) */\n  or\n  swap1\n  sstore\n    /* \"contracts/Market.sol\":1443:1811  constructor(bytes32 event_) {... */\n  callvalue\n  dup1\n  iszero\n  tag_1\n  jumpi\n  0x00\n  dup1\n  revert\ntag_1:\n  pop\n  mload(0x40)\n  sub(codesize, bytecodeSize)\n  dup1\n  bytecodeSize\n  dup4\n  codecopy\n  dup2\n  add\n  0x40\n  dup2\n  swap1\n  mstore\n  tag_2\n  swap2\n  tag_3\n  jump\t// in\ntag_2:\n    /* \"@openzeppelin/contracts/security/ReentrancyGuard.sol\":1701:1702  1 */\n  0x01\n    /* \"@openzeppelin/contracts/security/ReentrancyGuard.sol\":1806:1813  _status */\n  0x00\n    /* \"@openzeppelin/contracts/security/ReentrancyGuard.sol\":1806:1828  _status = _NOT_ENTERED */\n  sstore\n    /* \"contracts/Market.sol\":1485:1766  Struct.App(... */\n  0x40\n  dup1\n  mload\n  0x0140\n  dup2\n  add\n  dup3\n  mstore\n  dup3\n  dup2\n  mstore\n    /* \"contracts/Market.sol\":1529:1539  msg.sender */\n  caller\n    /* \"contracts/Market.sol\":1485:1766  Struct.App(... */\n  0x20\n  dup3\n  add\n  mstore\n    /* \"contracts/Market.sol\":1553:1556  app */\n  sload(0x0b)\n    /* \"contracts/Market.sol\":1553:1578  app.getEventOwner(event_) */\n  dup3\n  mload\n  shl(0xe3, 0x1e558333)\n  dup2\n  mstore\n  0x04\n  dup2\n  add\n    /* \"#utility.yul\":873:898   */\n  dup6\n  swap1\n  mstore\n    /* \"contracts/Market.sol\":1485:1766  Struct.App(... */\n  swap2\n  swap3\n  dup4\n  add\n  swap2\n  sub(shl(0xa0, 0x01), 0x01)\n    /* \"contracts/Market.sol\":1553:1556  app */\n  swap1\n  swap2\n  and\n  swap1\n    /* \"contracts/Market.sol\":1553:1570  app.getEventOwner */\n  0xf2ac1998\n  swap1\n    /* \"#utility.yul\":846:864   */\n  0x24\n  add\n    /* \"contracts/Market.sol\":1553:1578  app.getEventOwner(event_) */\n  0x20\n  mload(0x40)\n  dup1\n  dup4\n  sub\n  dup2\n  dup7\n  dup1\n  extcodesize\n  iszero\n  dup1\n  iszero\n  tag_10\n  jumpi\n  0x00\n  dup1\n  revert\ntag_10:\n  pop\n  gas\n  staticcall\n  iszero\n  dup1\n  iszero\n  tag_12\n  jumpi\n  returndatasize\n  0x00\n  dup1\n  returndatacopy\n  revert(0x00, returndatasize)\ntag_12:\n  pop\n  pop\n  pop\n  pop\n  mload(0x40)\n  returndatasize\n  not(0x1f)\n  0x1f\n  dup3\n  add\n  and\n  dup3\n  add\n  dup1\n  0x40\n  mstore\n  pop\n  dup2\n  add\n  swap1\n  tag_13\n  swap2\n  swap1\n  tag_14\n  jump\t// in\ntag_13:\n  sub(shl(0xa0, 0x01), 0x01)\n    /* \"contracts/Market.sol\":1485:1766  Struct.App(... */\n  and\n  dup2\n  mstore\n  0x20\n  add\n    /* \"contracts/Market.sol\":1592:1595  app */\n  0x0b\n  0x00\n  swap1\n  sload\n  swap1\n  0x0100\n  exp\n  swap1\n  div\n  sub(shl(0xa0, 0x01), 0x01)\n  and\n  sub(shl(0xa0, 0x01), 0x01)\n    /* \"contracts/Market.sol\":1592:1604  app.holdAddr */\n  and\n  0xb7640a54\n    /* \"contracts/Market.sol\":1592:1606  app.holdAddr() */\n  mload(0x40)\n  dup2\n  0xffffffff\n  and\n  0xe0\n  shl\n  dup2\n  mstore\n  0x04\n  add\n  0x20\n  mload(0x40)\n  dup1\n  dup4\n  sub\n  dup2\n  dup7\n  dup1\n  extcodesize\n  iszero\n  dup1\n  iszero\n  tag_15\n  jumpi\n  0x00\n  dup1\n  revert\ntag_15:\n  pop\n  gas\n  staticcall\n  iszero\n  dup1\n  iszero\n  tag_17\n  jumpi\n  returndatasize\n  0x00\n  dup1\n  returndatacopy\n  revert(0x00, returndatasize)\ntag_17:\n  pop\n  pop\n  pop\n  pop\n  mload(0x40)\n  returndatasize\n  not(0x1f)\n  0x1f\n  dup3\n  add\n  and\n  dup3\n  add\n  dup1\n  0x40\n  mstore\n  pop\n  dup2\n  add\n  swap1\n  tag_18\n  swap2\n  swap1\n  tag_14\n  jump\t// in\ntag_18:\n  sub(shl(0xa0, 0x01), 0x01)\n    /* \"contracts/Market.sol\":1485:1766  Struct.App(... */\n  and\n  dup2\n  mstore\n  0x20\n  add\n    /* \"contracts/Market.sol\":1620:1623  app */\n  0x0b\n  0x00\n  swap1\n  sload\n  swap1\n  0x0100\n  exp\n  swap1\n  div\n  sub(shl(0xa0, 0x01), 0x01)\n  and\n  sub(shl(0xa0, 0x01), 0x01)\n    /* \"contracts/Market.sol\":1620:1631  app.ecoAddr */\n  and\n  0x09953b2f\n    /* \"contracts/Market.sol\":1620:1633  app.ecoAddr() */\n  mload(0x40)\n  dup2\n  0xffffffff\n  and\n  0xe0\n  shl\n  dup2\n  mstore\n  0x04\n  add\n  0x20\n  mload(0x40)\n  dup1\n  dup4\n  sub\n  dup2\n  dup7\n  dup1\n  extcodesize\n  iszero\n  dup1\n  iszero\n  tag_19\n  jumpi\n  0x00\n  dup1\n  revert\ntag_19:\n  pop\n  gas\n  staticcall\n  iszero\n  dup1\n  iszero\n  tag_21\n  jumpi\n  returndatasize\n  0x00\n  dup1\n  returndatacopy\n  revert(0x00, returndatasize)\ntag_21:\n  pop\n  pop\n  pop\n  pop\n  mload(0x40)\n  returndatasize\n  not(0x1f)\n  0x1f\n  dup3\n  add\n  and\n  dup3\n  add\n  dup1\n  0x40\n  mstore\n  pop\n  dup2\n  add\n  swap1\n  tag_22\n  swap2\n  swap1\n  tag_14\n  jump\t// in\ntag_22:\n  sub(shl(0xa0, 0x01), 0x01)\n    /* \"contracts/Market.sol\":1485:1766  Struct.App(... */\n  and\n  dup2\n  mstore\n  0x20\n  add\n    /* \"contracts/Market.sol\":1647:1650  app */\n  0x0b\n  0x00\n  swap1\n  sload\n  swap1\n  0x0100\n  exp\n  swap1\n  div\n  sub(shl(0xa0, 0x01), 0x01)\n  and\n  sub(shl(0xa0, 0x01), 0x01)\n    /* \"contracts/Market.sol\":1647:1659  app.minStake */\n  and\n  0x375b3c0a\n    /* \"contracts/Market.sol\":1647:1661  app.minStake() */\n  mload(0x40)\n  dup2\n  0xffffffff\n  and\n  0xe0\n  shl\n  dup2\n  mstore\n  0x04\n  add\n  0x20\n  mload(0x40)\n  dup1\n  dup4\n  sub\n  dup2\n  dup7\n  dup1\n  extcodesize\n  iszero\n  dup1\n  iszero\n  tag_23\n  jumpi\n  0x00\n  dup1\n  revert\ntag_23:\n  pop\n  gas\n  staticcall\n  iszero\n  dup1\n  iszero\n  tag_25\n  jumpi\n  returndatasize\n  0x00\n  dup1\n  returndatacopy\n  revert(0x00, returndatasize)\ntag_25:\n  pop\n  pop\n  pop\n  pop\n  mload(0x40)\n  returndatasize\n  not(0x1f)\n  0x1f\n  dup3\n  add\n  and\n  dup3\n  add\n  dup1\n  0x40\n  mstore\n  pop\n  dup2\n  add\n  swap1\n  tag_26\n  swap2\n  swap1\n  tag_3\n  jump\t// in\ntag_26:\n    /* \"contracts/Market.sol\":1485:1766  Struct.App(... */\n  dup2\n  mstore\n    /* \"contracts/Market.sol\":1675:1678  app */\n  sload(0x0b)\n    /* \"contracts/Market.sol\":1675:1684  app.vig() */\n  0x40\n  dup1\n  mload\n  shl(0xe0, 0x55c4a8bf)\n  dup2\n  mstore\n  swap1\n  mload\n    /* \"contracts/Market.sol\":1485:1766  Struct.App(... */\n  0x20\n  swap4\n  dup5\n  add\n  swap4\n  sub(shl(0xa0, 0x01), 0x01)\n    /* \"contracts/Market.sol\":1675:1678  app */\n  swap1\n  swap4\n  and\n  swap3\n    /* \"contracts/Market.sol\":1675:1682  app.vig */\n  0x55c4a8bf\n  swap3\n    /* \"contracts/Market.sol\":1675:1684  app.vig() */\n  0x04\n  dup1\n  dup3\n  add\n  swap4\n  swap2\n  dup3\n  swap1\n  sub\n  add\n  dup2\n    /* \"contracts/Market.sol\":1675:1678  app */\n  dup7\n    /* \"contracts/Market.sol\":1675:1684  app.vig() */\n  dup1\n  extcodesize\n  iszero\n  dup1\n  iszero\n  tag_28\n  jumpi\n  0x00\n  dup1\n  revert\ntag_28:\n  pop\n  gas\n  staticcall\n  iszero\n  dup1\n  iszero\n  tag_30\n  jumpi\n  returndatasize\n  0x00\n  dup1\n  returndatacopy\n  revert(0x00, returndatasize)\ntag_30:\n  pop\n  pop\n  pop\n  pop\n  mload(0x40)\n  returndatasize\n  not(0x1f)\n  0x1f\n  dup3\n  add\n  and\n  dup3\n  add\n  dup1\n  0x40\n  mstore\n  pop\n  dup2\n  add\n  swap1\n  tag_31\n  swap2\n  swap1\n  tag_3\n  jump\t// in\ntag_31:\n    /* \"contracts/Market.sol\":1485:1766  Struct.App(... */\n  dup2\n  mstore\n    /* \"contracts/Market.sol\":1698:1701  app */\n  sload(0x0b)\n    /* \"contracts/Market.sol\":1698:1708  app.aVig() */\n  0x40\n  dup1\n  mload\n  shl(0xe2, 0x15334697)\n  dup2\n  mstore\n  swap1\n  mload\n    /* \"contracts/Market.sol\":1485:1766  Struct.App(... */\n  0x20\n  swap4\n  dup5\n  add\n  swap4\n  sub(shl(0xa0, 0x01), 0x01)\n    /* \"contracts/Market.sol\":1698:1701  app */\n  swap1\n  swap4\n  and\n  swap3\n    /* \"contracts/Market.sol\":1698:1706  app.aVig */\n  0x54cd1a5c\n  swap3\n    /* \"contracts/Market.sol\":1698:1708  app.aVig() */\n  0x04\n  dup1\n  dup3\n  add\n  swap4\n  swap2\n  dup3\n  swap1\n  sub\n  add\n  dup2\n    /* \"contracts/Market.sol\":1698:1701  app */\n  dup7\n    /* \"contracts/Market.sol\":1698:1708  app.aVig() */\n  dup1\n  extcodesize\n  iszero\n  dup1\n  iszero\n  tag_32\n  jumpi\n  0x00\n  dup1\n  revert\ntag_32:\n  pop\n  gas\n  staticcall\n  iszero\n  dup1\n  iszero\n  tag_34\n  jumpi\n  returndatasize\n  0x00\n  dup1\n  returndatacopy\n  revert(0x00, returndatasize)\ntag_34:\n  pop\n  pop\n  pop\n  pop\n  mload(0x40)\n  returndatasize\n  not(0x1f)\n  0x1f\n  dup3\n  add\n  and\n  dup3\n  add\n  dup1\n  0x40\n  mstore\n  pop\n  dup2\n  add\n  swap1\n  tag_35\n  swap2\n  swap1\n  tag_3\n  jump\t// in\ntag_35:\n    /* \"contracts/Market.sol\":1485:1766  Struct.App(... */\n  dup2\n  mstore\n    /* \"contracts/Market.sol\":1722:1725  app */\n  sload(0x0b)\n    /* \"contracts/Market.sol\":1722:1732  app.eVig() */\n  0x40\n  dup1\n  mload\n  shl(0xe0, 0x28576d45)\n  dup2\n  mstore\n  swap1\n  mload\n    /* \"contracts/Market.sol\":1485:1766  Struct.App(... */\n  0x20\n  swap4\n  dup5\n  add\n  swap4\n  sub(shl(0xa0, 0x01), 0x01)\n    /* \"contracts/Market.sol\":1722:1725  app */\n  swap1\n  swap4\n  and\n  swap3\n    /* \"contracts/Market.sol\":1722:1730  app.eVig */\n  0x28576d45\n  swap3\n    /* \"contracts/Market.sol\":1722:1732  app.eVig() */\n  0x04\n  dup1\n  dup3\n  add\n  swap4\n  swap2\n  dup3\n  swap1\n  sub\n  add\n  dup2\n    /* \"contracts/Market.sol\":1722:1725  app */\n  dup7\n    /* \"contracts/Market.sol\":1722:1732  app.eVig() */\n  dup1\n  extcodesize\n  iszero\n  dup1\n  iszero\n  tag_36\n  jumpi\n  0x00\n  dup1\n  revert\ntag_36:\n  pop\n  gas\n  staticcall\n  iszero\n  dup1\n  iszero\n  tag_38\n  jumpi\n  returndatasize\n  0x00\n  dup1\n  returndatacopy\n  revert(0x00, returndatasize)\ntag_38:\n  pop\n  pop\n  pop\n  pop\n  mload(0x40)\n  returndatasize\n  not(0x1f)\n  0x1f\n  dup3\n  add\n  and\n  dup3\n  add\n  dup1\n  0x40\n  mstore\n  pop\n  dup2\n  add\n  swap1\n  tag_39\n  swap2\n  swap1\n  tag_3\n  jump\t// in\ntag_39:\n    /* \"contracts/Market.sol\":1485:1766  Struct.App(... */\n  dup2\n  mstore\n    /* \"contracts/Market.sol\":1746:1749  app */\n  sload(0x0b)\n    /* \"contracts/Market.sol\":1746:1756  app.hVig() */\n  0x40\n  dup1\n  mload\n  shl(0xe0, 0x6a0ccd9d)\n  dup2\n  mstore\n  swap1\n  mload\n    /* \"contracts/Market.sol\":1485:1766  Struct.App(... */\n  0x20\n  swap4\n  dup5\n  add\n  swap4\n  sub(shl(0xa0, 0x01), 0x01)\n    /* \"contracts/Market.sol\":1746:1749  app */\n  swap1\n  swap4\n  and\n  swap3\n    /* \"contracts/Market.sol\":1746:1754  app.hVig */\n  0x6a0ccd9d\n  swap3\n    /* \"contracts/Market.sol\":1746:1756  app.hVig() */\n  0x04\n  dup1\n  dup3\n  add\n  swap4\n  swap2\n  dup3\n  swap1\n  sub\n  add\n  dup2\n    /* \"contracts/Market.sol\":1746:1749  app */\n  dup7\n    /* \"contracts/Market.sol\":1746:1756  app.hVig() */\n  dup1\n  extcodesize\n  iszero\n  dup1\n  iszero\n  tag_40\n  jumpi\n  0x00\n  dup1\n  revert\ntag_40:\n  pop\n  gas\n  staticcall\n  iszero\n  dup1\n  iszero\n  tag_42\n  jumpi\n  returndatasize\n  0x00\n  dup1\n  returndatacopy\n  revert(0x00, returndatasize)\ntag_42:\n  pop\n  pop\n  pop\n  pop\n  mload(0x40)\n  returndatasize\n  not(0x1f)\n  0x1f\n  dup3\n  add\n  and\n  dup3\n  add\n  dup1\n  0x40\n  mstore\n  pop\n  dup2\n  add\n  swap1\n  tag_43\n  swap2\n  swap1\n  tag_3\n  jump\t// in\ntag_43:\n    /* \"contracts/Market.sol\":1485:1766  Struct.App(... */\n  swap1\n  mstore\n    /* \"contracts/Market.sol\":1481:1766  a = Struct.App(... */\n  dup1\n  mload\n    /* \"contracts/Market.sol\":1481:1482  a */\n  0x01\n    /* \"contracts/Market.sol\":1481:1766  a = Struct.App(... */\n  sstore\n  0x20\n  dup1\n  dup3\n  add\n  mload\n  0x02\n  dup1\n  sload\n  not(sub(shl(0xa0, 0x01), 0x01))\n  swap1\n  dup2\n  and\n  sub(shl(0xa0, 0x01), 0x01)\n  swap4\n  dup5\n  and\n  or\n  swap1\n  swap2\n  sstore\n  0x40\n  dup1\n  dup6\n  add\n  mload\n  0x03\n  dup1\n  sload\n  dup5\n  and\n  swap2\n  dup6\n  and\n  swap2\n  swap1\n  swap2\n  or\n  swap1\n  sstore\n  0x60\n  dup6\n  add\n  mload\n  0x04\n  dup1\n  sload\n  dup5\n  and\n  swap2\n  dup6\n  and\n  swap2\n  swap1\n  swap2\n  or\n  dup2\n  sstore\n  0x80\n  dup7\n  add\n  mload\n  0x05\n  dup1\n  sload\n  swap1\n  swap5\n  and\n  swap1\n  dup6\n  and\n  or\n  swap1\n  swap3\n  sstore\n  0xa0\n  dup6\n  add\n  mload\n  0x06\n  sstore\n  0xc0\n  dup6\n  add\n  mload\n  0x07\n  sstore\n  0xe0\n  dup6\n  add\n  mload\n  0x08\n  sstore\n  0x0100\n  dup6\n  add\n  mload\n  0x09\n  sstore\n  0x0120\n  swap1\n  swap5\n  add\n  mload\n  0x0a\n  sstore\n    /* \"contracts/Market.sol\":1791:1794  app */\n  sload(0x0b)\n    /* \"contracts/Market.sol\":1791:1803  app.scAddr() */\n  dup5\n  mload\n  shl(0xe3, 0x966ed9)\n  dup2\n  mstore\n  swap5\n  mload\n    /* \"contracts/Market.sol\":1791:1794  app */\n  swap3\n  and\n  swap4\n    /* \"contracts/Market.sol\":1791:1801  app.scAddr */\n  0x04b376c8\n  swap4\n    /* \"contracts/Market.sol\":1791:1803  app.scAddr() */\n  dup2\n  dup4\n  add\n  swap4\n    /* \"contracts/Market.sol\":1481:1766  a = Struct.App(... */\n  swap1\n  swap3\n    /* \"contracts/Market.sol\":1791:1803  app.scAddr() */\n  swap1\n  swap2\n  dup3\n  swap1\n  sub\n  add\n  dup2\n    /* \"contracts/Market.sol\":1791:1794  app */\n  dup7\n    /* \"contracts/Market.sol\":1791:1803  app.scAddr() */\n  dup1\n  extcodesize\n  iszero\n  dup1\n  iszero\n  tag_44\n  jumpi\n  0x00\n  dup1\n  revert\ntag_44:\n  pop\n  gas\n  staticcall\n  iszero\n  dup1\n  iszero\n  tag_46\n  jumpi\n  returndatasize\n  0x00\n  dup1\n  returndatacopy\n  revert(0x00, returndatasize)\ntag_46:\n  pop\n  pop\n  pop\n  pop\n  mload(0x40)\n  returndatasize\n  not(0x1f)\n  0x1f\n  dup3\n  add\n  and\n  dup3\n  add\n  dup1\n  0x40\n  mstore\n  pop\n  dup2\n  add\n  swap1\n  tag_47\n  swap2\n  swap1\n  tag_14\n  jump\t// in\ntag_47:\n    /* \"contracts/Market.sol\":1776:1804  token = IERC20(app.scAddr()) */\n  0x60\n  shl\n  not(sub(shl(0x60, 0x01), 0x01))\n  and\n  0x80\n  mstore\n  pop\n    /* \"contracts/Market.sol\":194:15642  contract Market is IMarket, ReentrancyGuard {... */\n  jump(tag_49)\n    /* \"#utility.yul\":14:324   */\ntag_14:\n    /* \"#utility.yul\":84:90   */\n  0x00\n    /* \"#utility.yul\":137:139   */\n  0x20\n    /* \"#utility.yul\":125:134   */\n  dup3\n    /* \"#utility.yul\":116:123   */\n  dup5\n    /* \"#utility.yul\":112:135   */\n  sub\n    /* \"#utility.yul\":108:140   */\n  slt\n    /* \"#utility.yul\":105:107   */\n  iszero\n  tag_51\n  jumpi\n    /* \"#utility.yul\":158:164   */\n  dup1\n    /* \"#utility.yul\":150:156   */\n  dup2\n    /* \"#utility.yul\":143:165   */\n  revert\n    /* \"#utility.yul\":105:107   */\ntag_51:\n    /* \"#utility.yul\":189:205   */\n  dup2\n  mload\n  sub(shl(0xa0, 0x01), 0x01)\n    /* \"#utility.yul\":234:265   */\n  dup2\n  and\n    /* \"#utility.yul\":224:266   */\n  dup2\n  eq\n    /* \"#utility.yul\":214:216   */\n  tag_52\n  jumpi\n    /* \"#utility.yul\":285:291   */\n  dup2\n    /* \"#utility.yul\":277:283   */\n  dup3\n    /* \"#utility.yul\":270:292   */\n  revert\n    /* \"#utility.yul\":214:216   */\ntag_52:\n    /* \"#utility.yul\":313:318   */\n  swap4\n    /* \"#utility.yul\":95:324   */\n  swap3\n  pop\n  pop\n  pop\n  jump\t// out\n    /* \"#utility.yul\":329:523   */\ntag_3:\n    /* \"#utility.yul\":399:405   */\n  0x00\n    /* \"#utility.yul\":452:454   */\n  0x20\n    /* \"#utility.yul\":440:449   */\n  dup3\n    /* \"#utility.yul\":431:438   */\n  dup5\n    /* \"#utility.yul\":427:450   */\n  sub\n    /* \"#utility.yul\":423:455   */\n  slt\n    /* \"#utility.yul\":420:422   */\n  iszero\n  tag_54\n  jumpi\n    /* \"#utility.yul\":473:479   */\n  dup1\n    /* \"#utility.yul\":465:471   */\n  dup2\n    /* \"#utility.yul\":458:480   */\n  revert\n    /* \"#utility.yul\":420:422   */\ntag_54:\n  pop\n    /* \"#utility.yul\":501:517   */\n  mload\n  swap2\n    /* \"#utility.yul\":410:523   */\n  swap1\n  pop\n  jump\t// out\n    /* \"#utility.yul\":828:904   */\ntag_49:\n    /* \"contracts/Market.sol\":194:15642  contract Market is IMarket, ReentrancyGuard {... */\n  shr(0x60, mload(0x80))\n  codecopy(0x00, dataOffset(sub_0), dataSize(sub_0))\n  0x00\n  assignImmutable(\"0xe7fcf89c34605f23590ff58513f1080dc375dd06cc5e256320151057827a258a\")\n  return(0x00, dataSize(sub_0))\nstop\n\nsub_0: assembly {\n        /* \"contracts/Market.sol\":194:15642  contract Market is IMarket, ReentrancyGuard {... */\n      mstore(0x40, 0x80)\n      callvalue\n      dup1\n      iszero\n      tag_1\n      jumpi\n      0x00\n      dup1\n      revert\n    tag_1:\n      pop\n      jumpi(tag_2, lt(calldatasize, 0x04))\n      shr(0xe0, calldataload(0x00))\n      dup1\n      0x7d7f9232\n      gt\n      tag_21\n      jumpi\n      dup1\n      0xb8e5303d\n      gt\n      tag_22\n      jumpi\n      dup1\n      0xb8e5303d\n      eq\n      tag_16\n      jumpi\n      dup1\n      0xba8006c6\n      eq\n      tag_17\n      jumpi\n      dup1\n      0xd0ed7295\n      eq\n      tag_18\n      jumpi\n      dup1\n      0xea8a1af0\n      eq\n      tag_19\n      jumpi\n      dup1\n      0xf8b2cb4f\n      eq\n      tag_20\n      jumpi\n      0x00\n      dup1\n      revert\n    tag_22:\n      dup1\n      0x7d7f9232\n      eq\n      tag_12\n      jumpi\n      dup1\n      0x8df82800\n      eq\n      tag_13\n      jumpi\n      dup1\n      0xa6afd5fd\n      eq\n      tag_14\n      jumpi\n      dup1\n      0xae8cd090\n      eq\n      tag_15\n      jumpi\n      0x00\n      dup1\n      revert\n    tag_21:\n      dup1\n      0x37e8c09e\n      gt\n      tag_23\n      jumpi\n      dup1\n      0x37e8c09e\n      eq\n      tag_7\n      jumpi\n      dup1\n      0x51cff8d9\n      eq\n      tag_8\n      jumpi\n      dup1\n      0x675f6537\n      eq\n      tag_9\n      jumpi\n      dup1\n      0x6bef0267\n      eq\n      tag_10\n      jumpi\n      dup1\n      0x767eb5ef\n      eq\n      tag_11\n      jumpi\n      0x00\n      dup1\n      revert\n    tag_23:\n      dup1\n      0x200d2ed2\n      eq\n      tag_3\n      jumpi\n      dup1\n      0x25c22a45\n      eq\n      tag_4\n      jumpi\n      dup1\n      0x2940ff1e\n      eq\n      tag_5\n      jumpi\n      dup1\n      0x2d56657d\n      eq\n      tag_6\n      jumpi\n    tag_2:\n      0x00\n      dup1\n      revert\n        /* \"contracts/Market.sol\":473:503  uint256 public override status */\n    tag_3:\n      tag_24\n      sload(0x0c)\n      dup2\n      jump\n    tag_24:\n      mload(0x40)\n        /* \"#utility.yul\":5512:5537   */\n      swap1\n      dup2\n      mstore\n        /* \"#utility.yul\":5500:5502   */\n      0x20\n        /* \"#utility.yul\":5485:5503   */\n      add\n        /* \"contracts/Market.sol\":473:503  uint256 public override status */\n    tag_26:\n      mload(0x40)\n      dup1\n      swap2\n      sub\n      swap1\n      return\n        /* \"contracts/Market.sol\":2677:2813  function getBetPairs(bytes32 _bet) ... */\n    tag_4:\n      tag_28\n      tag_29\n      calldatasize\n      0x04\n      tag_30\n      jump\t// in\n    tag_29:\n      tag_31\n      jump\t// in\n    tag_28:\n      mload(0x40)\n      tag_26\n      swap2\n      swap1\n      tag_33\n      jump\t// in\n        /* \"contracts/Market.sol\":4240:4491  function cancelBet(bytes32 _bet) external override {... */\n    tag_5:\n      tag_34\n      tag_35\n      calldatasize\n      0x04\n      tag_30\n      jump\t// in\n    tag_35:\n      tag_36\n      jump\t// in\n    tag_34:\n      stop\n        /* \"contracts/Market.sol\":2098:2236  function getUserBets(address _user) ... */\n    tag_6:\n      tag_28\n      tag_38\n      calldatasize\n      0x04\n      tag_39\n      jump\t// in\n    tag_38:\n      tag_40\n      jump\t// in\n        /* \"contracts/Market.sol\":2455:2593  function getBet(bytes32 _bet) ... */\n    tag_7:\n      tag_42\n      tag_43\n      calldatasize\n      0x04\n      tag_30\n      jump\t// in\n    tag_43:\n      tag_44\n      jump\t// in\n    tag_42:\n      mload(0x40)\n      tag_26\n      swap2\n      swap1\n        /* \"#utility.yul\":9955:9968   */\n      dup2\n      mload\n      sub(shl(0xa0, 0x01), 0x01)\n        /* \"#utility.yul\":9951:9973   */\n      swap1\n      dup2\n      and\n        /* \"#utility.yul\":9933:9974   */\n      dup3\n      mstore\n        /* \"#utility.yul\":10034:10038   */\n      0x20\n        /* \"#utility.yul\":10022:10039   */\n      dup1\n      dup5\n      add\n        /* \"#utility.yul\":10016:10040   */\n      mload\n        /* \"#utility.yul\":10012:10045   */\n      swap1\n      swap2\n      and\n        /* \"#utility.yul\":9990:10010   */\n      swap1\n      dup3\n      add\n        /* \"#utility.yul\":9983:10046   */\n      mstore\n        /* \"#utility.yul\":10102:10106   */\n      0x40\n        /* \"#utility.yul\":10090:10107   */\n      dup1\n      dup4\n      add\n        /* \"#utility.yul\":10084:10108   */\n      mload\n        /* \"#utility.yul\":10062:10082   */\n      swap1\n      dup3\n      add\n        /* \"#utility.yul\":10055:10109   */\n      mstore\n        /* \"#utility.yul\":10165:10169   */\n      0x60\n        /* \"#utility.yul\":10153:10170   */\n      dup1\n      dup4\n      add\n        /* \"#utility.yul\":10147:10171   */\n      mload\n        /* \"#utility.yul\":10125:10145   */\n      swap1\n      dup3\n      add\n        /* \"#utility.yul\":10118:10172   */\n      mstore\n        /* \"#utility.yul\":10228:10232   */\n      0x80\n        /* \"#utility.yul\":10216:10233   */\n      dup1\n      dup4\n      add\n        /* \"#utility.yul\":10210:10234   */\n      mload\n        /* \"#utility.yul\":10188:10208   */\n      swap1\n      dup3\n      add\n        /* \"#utility.yul\":10181:10235   */\n      mstore\n        /* \"#utility.yul\":9913:9916   */\n      0xa0\n        /* \"#utility.yul\":10279:10296   */\n      swap2\n      dup3\n      add\n        /* \"#utility.yul\":10273:10297   */\n      mload\n        /* \"#utility.yul\":10251:10271   */\n      swap2\n      dup2\n      add\n        /* \"#utility.yul\":10244:10298   */\n      swap2\n      swap1\n      swap2\n      mstore\n        /* \"#utility.yul\":9882:9885   */\n      0xc0\n        /* \"#utility.yul\":9867:9886   */\n      add\n      swap1\n        /* \"#utility.yul\":9849:10304   */\n      jump\n        /* \"contracts/Market.sol\":3238:3687  function withdraw(address _user) public override nonReentrant returns(bool) {... */\n    tag_8:\n      tag_47\n      tag_48\n      calldatasize\n      0x04\n      tag_39\n      jump\t// in\n    tag_48:\n      tag_49\n      jump\t// in\n    tag_47:\n      mload(0x40)\n        /* \"#utility.yul\":5339:5353   */\n      swap1\n      iszero\n        /* \"#utility.yul\":5332:5354   */\n      iszero\n        /* \"#utility.yul\":5314:5355   */\n      dup2\n      mstore\n        /* \"#utility.yul\":5302:5304   */\n      0x20\n        /* \"#utility.yul\":5287:5305   */\n      add\n        /* \"contracts/Market.sol\":3238:3687  function withdraw(address _user) public override nonReentrant returns(bool) {... */\n      tag_26\n        /* \"#utility.yul\":5269:5361   */\n      jump\n        /* \"contracts/Market.sol\":4552:4872  function settleBet(bytes32 _bet) external override {... */\n    tag_9:\n      tag_34\n      tag_53\n      calldatasize\n      0x04\n      tag_30\n      jump\t// in\n    tag_53:\n      tag_54\n      jump\t// in\n        /* \"contracts/Market.sol\":6475:6682  function stopNewBet() external override onlyFactory returns(bool){... */\n    tag_10:\n      tag_47\n      tag_56\n      jump\t// in\n        /* \"contracts/Market.sol\":2872:2975  function getPairs() external view override returns(bytes32[] memory) ... */\n    tag_11:\n      tag_28\n      tag_59\n      jump\t// in\n        /* \"contracts/Market.sol\":3790:4179  function withdrawPending(bytes32 _bet) public override {... */\n    tag_12:\n      tag_34\n      tag_62\n      calldatasize\n      0x04\n      tag_30\n      jump\t// in\n    tag_62:\n      tag_63\n      jump\t// in\n        /* \"contracts/Market.sol\":5438:5849  function settle(uint256 _winningSide)... */\n    tag_13:\n      tag_47\n      tag_65\n      calldatasize\n      0x04\n      tag_30\n      jump\t// in\n    tag_65:\n      tag_67\n      jump\t// in\n        /* \"contracts/Market.sol\":2295:2396  function getBets() external view override returns(bytes32[] memory) ... */\n    tag_14:\n      tag_28\n      tag_70\n      jump\t// in\n        /* \"contracts/Market.sol\":6086:6469  function cancelPlusPairs() external override onlyFactory returns(bool) ... */\n    tag_15:\n      tag_47\n      tag_73\n      jump\t// in\n        /* \"contracts/Market.sol\":3034:3168  function getPair(bytes32 _pair) external view override returns(Struct.MarketPair memory) ... */\n    tag_16:\n      tag_75\n      tag_76\n      calldatasize\n      0x04\n      tag_30\n      jump\t// in\n    tag_76:\n      0x40\n      dup1\n      mload\n      0xa0\n      dup2\n      add\n      dup3\n      mstore\n      0x00\n      dup1\n      dup3\n      mstore\n      0x20\n      dup3\n      add\n      dup2\n      swap1\n      mstore\n      swap2\n      dup2\n      add\n      dup3\n      swap1\n      mstore\n      0x60\n      dup2\n      add\n      dup3\n      swap1\n      mstore\n      0x80\n      dup2\n      add\n      swap2\n      swap1\n      swap2\n      mstore\n      pop\n        /* \"contracts/Market.sol\":3145:3161  pairsInfo[_pair] */\n      0x00\n      swap1\n      dup2\n      mstore\n        /* \"contracts/Market.sol\":3145:3154  pairsInfo */\n      0x13\n        /* \"contracts/Market.sol\":3145:3161  pairsInfo[_pair] */\n      0x20\n      swap1\n      dup2\n      mstore\n      0x40\n      swap2\n      dup3\n      swap1\n      keccak256\n        /* \"contracts/Market.sol\":3138:3161  return pairsInfo[_pair] */\n      dup3\n      mload\n      0xa0\n      dup2\n      add\n      dup5\n      mstore\n      dup2\n      sload\n      dup2\n      mstore\n      0x01\n      dup3\n      add\n      sload\n      swap3\n      dup2\n      add\n      swap3\n      swap1\n      swap3\n      mstore\n      0x02\n      dup2\n      add\n      sload\n      swap3\n      dup3\n      add\n      swap3\n      swap1\n      swap3\n      mstore\n      0x03\n      dup3\n      add\n      sload\n      0x60\n      dup3\n      add\n      mstore\n      0x04\n      swap1\n      swap2\n      add\n      sload\n      0xff\n      and\n      iszero\n      iszero\n      0x80\n      dup3\n      add\n      mstore\n      swap1\n        /* \"contracts/Market.sol\":3034:3168  function getPair(bytes32 _pair) external view override returns(Struct.MarketPair memory) ... */\n      jump\n    tag_75:\n      mload(0x40)\n      tag_26\n      swap2\n      swap1\n        /* \"#utility.yul\":10457:10461   */\n      0x00\n        /* \"#utility.yul\":10499:10502   */\n      0xa0\n        /* \"#utility.yul\":10488:10497   */\n      dup3\n        /* \"#utility.yul\":10484:10503   */\n      add\n        /* \"#utility.yul\":10476:10503   */\n      swap1\n      pop\n        /* \"#utility.yul\":10536:10542   */\n      dup3\n        /* \"#utility.yul\":10530:10543   */\n      mload\n        /* \"#utility.yul\":10519:10528   */\n      dup3\n        /* \"#utility.yul\":10512:10544   */\n      mstore\n        /* \"#utility.yul\":10600:10604   */\n      0x20\n        /* \"#utility.yul\":10592:10598   */\n      dup4\n        /* \"#utility.yul\":10588:10605   */\n      add\n        /* \"#utility.yul\":10582:10606   */\n      mload\n        /* \"#utility.yul\":10575:10579   */\n      0x20\n        /* \"#utility.yul\":10564:10573   */\n      dup4\n        /* \"#utility.yul\":10560:10580   */\n      add\n        /* \"#utility.yul\":10553:10607   */\n      mstore\n        /* \"#utility.yul\":10663:10667   */\n      0x40\n        /* \"#utility.yul\":10655:10661   */\n      dup4\n        /* \"#utility.yul\":10651:10668   */\n      add\n        /* \"#utility.yul\":10645:10669   */\n      mload\n        /* \"#utility.yul\":10638:10642   */\n      0x40\n        /* \"#utility.yul\":10627:10636   */\n      dup4\n        /* \"#utility.yul\":10623:10643   */\n      add\n        /* \"#utility.yul\":10616:10670   */\n      mstore\n        /* \"#utility.yul\":10726:10730   */\n      0x60\n        /* \"#utility.yul\":10718:10724   */\n      dup4\n        /* \"#utility.yul\":10714:10731   */\n      add\n        /* \"#utility.yul\":10708:10732   */\n      mload\n        /* \"#utility.yul\":10701:10705   */\n      0x60\n        /* \"#utility.yul\":10690:10699   */\n      dup4\n        /* \"#utility.yul\":10686:10706   */\n      add\n        /* \"#utility.yul\":10679:10733   */\n      mstore\n        /* \"#utility.yul\":10803:10807   */\n      0x80\n        /* \"#utility.yul\":10795:10801   */\n      dup4\n        /* \"#utility.yul\":10791:10808   */\n      add\n        /* \"#utility.yul\":10785:10809   */\n      mload\n        /* \"#utility.yul\":10778:10810   */\n      iszero\n        /* \"#utility.yul\":10771:10811   */\n      iszero\n        /* \"#utility.yul\":10764:10768   */\n      0x80\n        /* \"#utility.yul\":10753:10762   */\n      dup4\n        /* \"#utility.yul\":10749:10769   */\n      add\n        /* \"#utility.yul\":10742:10812   */\n      mstore\n        /* \"#utility.yul\":10466:10818   */\n      swap3\n      swap2\n      pop\n      pop\n      jump\n        /* \"contracts/Market.sol\":6688:9443  function addBet(... */\n    tag_17:\n      tag_24\n      tag_81\n      calldatasize\n      0x04\n      tag_82\n      jump\t// in\n    tag_81:\n      tag_83\n      jump\t// in\n        /* \"contracts/Market.sol\":4939:5371  function setWinningSide(uint256 _winningSide)... */\n    tag_18:\n      tag_47\n      tag_87\n      calldatasize\n      0x04\n      tag_30\n      jump\t// in\n    tag_87:\n      tag_88\n      jump\t// in\n        /* \"contracts/Market.sol\":5855:6080  function cancel() external override onlyFactory returns(bool) ... */\n    tag_19:\n      tag_47\n      tag_91\n      jump\t// in\n        /* \"contracts/Market.sol\":1905:2014  function getBalance(address _user) external view override returns(uint256) {... */\n    tag_20:\n      tag_24\n      tag_94\n      calldatasize\n      0x04\n      tag_39\n      jump\t// in\n    tag_94:\n      sub(shl(0xa0, 0x01), 0x01)\n        /* \"contracts/Market.sol\":1997:2007  bal[_user] */\n      and\n        /* \"contracts/Market.sol\":1971:1978  uint256 */\n      0x00\n        /* \"contracts/Market.sol\":1997:2007  bal[_user] */\n      swap1\n      dup2\n      mstore\n        /* \"contracts/Market.sol\":1997:2000  bal */\n      0x0d\n        /* \"contracts/Market.sol\":1997:2007  bal[_user] */\n      0x20\n      mstore\n      0x40\n      swap1\n      keccak256\n      sload\n      swap1\n        /* \"contracts/Market.sol\":1905:2014  function getBalance(address _user) external view override returns(uint256) {... */\n      jump\n        /* \"contracts/Market.sol\":2677:2813  function getBetPairs(bytes32 _bet) ... */\n    tag_31:\n        /* \"contracts/Market.sol\":2792:2806  betPairs[_bet] */\n      0x00\n      dup2\n      dup2\n      mstore\n        /* \"contracts/Market.sol\":2792:2800  betPairs */\n      0x12\n        /* \"contracts/Market.sol\":2792:2806  betPairs[_bet] */\n      0x20\n      swap1\n      dup2\n      mstore\n      0x40\n      swap2\n      dup3\n      swap1\n      keccak256\n        /* \"contracts/Market.sol\":2785:2806  return betPairs[_bet] */\n      dup1\n      sload\n      dup4\n      mload\n      dup2\n      dup5\n      mul\n      dup2\n      add\n      dup5\n      add\n      swap1\n      swap5\n      mstore\n      dup1\n      dup5\n      mstore\n        /* \"contracts/Market.sol\":2752:2768  bytes32[] memory */\n      0x60\n      swap4\n        /* \"contracts/Market.sol\":2785:2806  return betPairs[_bet] */\n      swap3\n      dup4\n      add\n        /* \"contracts/Market.sol\":2792:2806  betPairs[_bet] */\n      dup3\n        /* \"contracts/Market.sol\":2785:2806  return betPairs[_bet] */\n      dup3\n      dup1\n      iszero\n      tag_98\n      jumpi\n      0x20\n      mul\n      dup3\n      add\n      swap2\n      swap1\n      0x00\n      mstore\n      keccak256(0x00, 0x20)\n      swap1\n    tag_99:\n      dup2\n      sload\n      dup2\n      mstore\n      0x20\n      add\n      swap1\n      0x01\n      add\n      swap1\n      dup1\n      dup4\n      gt\n      tag_99\n      jumpi\n    tag_98:\n      pop\n      pop\n      pop\n      pop\n      pop\n      swap1\n      pop\n        /* \"contracts/Market.sol\":2677:2813  function getBetPairs(bytes32 _bet) ... */\n      swap2\n      swap1\n      pop\n      jump\t// out\n        /* \"contracts/Market.sol\":4240:4491  function cancelBet(bytes32 _bet) external override {... */\n    tag_36:\n        /* \"contracts/Market.sol\":4323:4337  betsInfo[_bet] */\n      0x00\n      dup2\n      dup2\n      mstore\n        /* \"contracts/Market.sol\":4323:4331  betsInfo */\n      0x10\n        /* \"contracts/Market.sol\":4323:4337  betsInfo[_bet] */\n      0x20\n      mstore\n      0x40\n      swap1\n      keccak256\n        /* \"contracts/Market.sol\":4323:4344  betsInfo[_bet].better */\n      sload\n      sub(shl(0xa0, 0x01), 0x01)\n      and\n        /* \"contracts/Market.sol\":4309:4319  msg.sender */\n      caller\n        /* \"contracts/Market.sol\":4309:4344  msg.sender == betsInfo[_bet].better */\n      eq\n        /* \"contracts/Market.sol\":4301:4368  require(msg.sender == betsInfo[_bet].better, \"unauthorized caller\") */\n      tag_101\n      jumpi\n      mload(0x40)\n      shl(0xe5, 0x461bcd)\n      dup2\n      mstore\n        /* \"#utility.yul\":6800:6802   */\n      0x20\n        /* \"contracts/Market.sol\":4301:4368  require(msg.sender == betsInfo[_bet].better, \"unauthorized caller\") */\n      0x04\n      dup3\n      add\n        /* \"#utility.yul\":6782:6803   */\n      mstore\n        /* \"#utility.yul\":6839:6841   */\n      0x13\n        /* \"#utility.yul\":6819:6837   */\n      0x24\n      dup3\n      add\n        /* \"#utility.yul\":6812:6842   */\n      mstore\n      shl(0x69, 0x3ab730baba3437b934bd32b21031b0b63632b9)\n        /* \"#utility.yul\":6858:6876   */\n      0x44\n      dup3\n      add\n        /* \"#utility.yul\":6851:6900   */\n      mstore\n        /* \"#utility.yul\":6917:6935   */\n      0x64\n      add\n        /* \"contracts/Market.sol\":4301:4368  require(msg.sender == betsInfo[_bet].better, \"unauthorized caller\") */\n    tag_102:\n      mload(0x40)\n      dup1\n      swap2\n      sub\n      swap1\n      revert\n    tag_101:\n        /* \"contracts/Market.sol\":4381:4387  status */\n      sload(0x0c)\n        /* \"contracts/Market.sol\":4381:4392  status == 0 */\n      iszero\n      dup1\n        /* \"contracts/Market.sol\":4381:4407  status == 0 || status == 3 */\n      tag_104\n      jumpi\n      pop\n        /* \"contracts/Market.sol\":4396:4402  status */\n      sload(0x0c)\n        /* \"contracts/Market.sol\":4406:4407  3 */\n      0x03\n        /* \"contracts/Market.sol\":4396:4407  status == 3 */\n      eq\n        /* \"contracts/Market.sol\":4381:4407  status == 0 || status == 3 */\n    tag_104:\n        /* \"contracts/Market.sol\":4378:4454  if(status == 0 || status == 3){... */\n      iszero\n      tag_105\n      jumpi\n        /* \"contracts/Market.sol\":4422:4443  _cancelBetPairs(_bet) */\n      tag_106\n        /* \"contracts/Market.sol\":4438:4442  _bet */\n      dup2\n        /* \"contracts/Market.sol\":4422:4437  _cancelBetPairs */\n      tag_107\n        /* \"contracts/Market.sol\":4422:4443  _cancelBetPairs(_bet) */\n      jump\t// in\n    tag_106:\n      pop\n        /* \"contracts/Market.sol\":4378:4454  if(status == 0 || status == 3){... */\n    tag_105:\n        /* \"contracts/Market.sol\":4463:4484  withdrawPending(_bet) */\n      tag_108\n        /* \"contracts/Market.sol\":4479:4483  _bet */\n      dup2\n        /* \"contracts/Market.sol\":4463:4478  withdrawPending */\n      tag_63\n        /* \"contracts/Market.sol\":4463:4484  withdrawPending(_bet) */\n      jump\t// in\n    tag_108:\n        /* \"contracts/Market.sol\":4240:4491  function cancelBet(bytes32 _bet) external override {... */\n      pop\n      jump\t// out\n        /* \"contracts/Market.sol\":2098:2236  function getUserBets(address _user) ... */\n    tag_40:\n      sub(shl(0xa0, 0x01), 0x01)\n        /* \"contracts/Market.sol\":2214:2229  userBets[_user] */\n      dup2\n      and\n      0x00\n      swap1\n      dup2\n      mstore\n        /* \"contracts/Market.sol\":2214:2222  userBets */\n      0x0f\n        /* \"contracts/Market.sol\":2214:2229  userBets[_user] */\n      0x20\n      swap1\n      dup2\n      mstore\n      0x40\n      swap2\n      dup3\n      swap1\n      keccak256\n        /* \"contracts/Market.sol\":2207:2229  return userBets[_user] */\n      dup1\n      sload\n      dup4\n      mload\n      dup2\n      dup5\n      mul\n      dup2\n      add\n      dup5\n      add\n      swap1\n      swap5\n      mstore\n      dup1\n      dup5\n      mstore\n        /* \"contracts/Market.sol\":2174:2190  bytes32[] memory */\n      0x60\n      swap4\n        /* \"contracts/Market.sol\":2207:2229  return userBets[_user] */\n      swap3\n      dup4\n      add\n        /* \"contracts/Market.sol\":2214:2229  userBets[_user] */\n      dup3\n        /* \"contracts/Market.sol\":2207:2229  return userBets[_user] */\n      dup3\n      dup1\n      iszero\n      tag_98\n      jumpi\n      0x20\n      mul\n      dup3\n      add\n      swap2\n      swap1\n      0x00\n      mstore\n      keccak256(0x00, 0x20)\n      swap1\n      dup2\n      sload\n      dup2\n      mstore\n      0x20\n      add\n      swap1\n      0x01\n      add\n      swap1\n      dup1\n      dup4\n      gt\n      tag_99\n      jumpi\n      pop\n      pop\n      pop\n      pop\n      pop\n      swap1\n      pop\n        /* \"contracts/Market.sol\":2098:2236  function getUserBets(address _user) ... */\n      swap2\n      swap1\n      pop\n      jump\t// out\n        /* \"contracts/Market.sol\":2455:2593  function getBet(bytes32 _bet) ... */\n    tag_44:\n        /* \"contracts/Market.sol\":2525:2548  Struct.MarketBet memory */\n      tag_112\n      mload(0x40)\n      dup1\n      0xc0\n      add\n      0x40\n      mstore\n      dup1\n      and(sub(shl(0xa0, 0x01), 0x01), 0x00)\n      dup2\n      mstore\n      0x20\n      add\n      and(sub(shl(0xa0, 0x01), 0x01), 0x00)\n      dup2\n      mstore\n      0x20\n      add\n      0x00\n      dup2\n      mstore\n      0x20\n      add\n      0x00\n      dup2\n      mstore\n      0x20\n      add\n      0x00\n      dup2\n      mstore\n      0x20\n      add\n      0x00\n      dup2\n      mstore\n      pop\n      swap1\n      jump\n    tag_112:\n      pop\n        /* \"contracts/Market.sol\":2572:2586  betsInfo[_bet] */\n      0x00\n      swap1\n      dup2\n      mstore\n        /* \"contracts/Market.sol\":2572:2580  betsInfo */\n      0x10\n        /* \"contracts/Market.sol\":2572:2586  betsInfo[_bet] */\n      0x20\n      swap1\n      dup2\n      mstore\n      0x40\n      swap2\n      dup3\n      swap1\n      keccak256\n        /* \"contracts/Market.sol\":2565:2586  return betsInfo[_bet] */\n      dup3\n      mload\n      0xc0\n      dup2\n      add\n      dup5\n      mstore\n      dup2\n      sload\n      sub(shl(0xa0, 0x01), 0x01)\n      swap1\n      dup2\n      and\n      dup3\n      mstore\n      0x01\n      dup4\n      add\n      sload\n      and\n      swap3\n      dup2\n      add\n      swap3\n      swap1\n      swap3\n      mstore\n      0x02\n      dup2\n      add\n      sload\n      swap3\n      dup3\n      add\n      swap3\n      swap1\n      swap3\n      mstore\n      0x03\n      dup3\n      add\n      sload\n      0x60\n      dup3\n      add\n      mstore\n      0x04\n      dup3\n      add\n      sload\n      0x80\n      dup3\n      add\n      mstore\n      0x05\n      swap1\n      swap2\n      add\n      sload\n      0xa0\n      dup3\n      add\n      mstore\n      swap1\n        /* \"contracts/Market.sol\":2455:2593  function getBet(bytes32 _bet) ... */\n      jump\t// out\n        /* \"contracts/Market.sol\":3238:3687  function withdraw(address _user) public override nonReentrant returns(bool) {... */\n    tag_49:\n        /* \"contracts/Market.sol\":3308:3312  bool */\n      0x00\n        /* \"@openzeppelin/contracts/security/ReentrancyGuard.sol\":1744:1745  2 */\n      0x02\n        /* \"@openzeppelin/contracts/security/ReentrancyGuard.sol\":2325:2332  _status */\n      sload(0x00)\n        /* \"@openzeppelin/contracts/security/ReentrancyGuard.sol\":2325:2344  _status != _ENTERED */\n      eq\n      iszero\n        /* \"@openzeppelin/contracts/security/ReentrancyGuard.sol\":2317:2380  require(_status != _ENTERED, \"ReentrancyGuard: reentrant call\") */\n      tag_116\n      jumpi\n      mload(0x40)\n      shl(0xe5, 0x461bcd)\n      dup2\n      mstore\n        /* \"#utility.yul\":9536:9538   */\n      0x20\n        /* \"@openzeppelin/contracts/security/ReentrancyGuard.sol\":2317:2380  require(_status != _ENTERED, \"ReentrancyGuard: reentrant call\") */\n      0x04\n      dup3\n      add\n        /* \"#utility.yul\":9518:9539   */\n      mstore\n        /* \"#utility.yul\":9575:9577   */\n      0x1f\n        /* \"#utility.yul\":9555:9573   */\n      0x24\n      dup3\n      add\n        /* \"#utility.yul\":9548:9578   */\n      mstore\n        /* \"#utility.yul\":9614:9647   */\n      0x5265656e7472616e637947756172643a207265656e7472616e742063616c6c00\n        /* \"#utility.yul\":9594:9612   */\n      0x44\n      dup3\n      add\n        /* \"#utility.yul\":9587:9648   */\n      mstore\n        /* \"#utility.yul\":9665:9683   */\n      0x64\n      add\n        /* \"@openzeppelin/contracts/security/ReentrancyGuard.sol\":2317:2380  require(_status != _ENTERED, \"ReentrancyGuard: reentrant call\") */\n      tag_102\n        /* \"#utility.yul\":9508:9689   */\n      jump\n        /* \"@openzeppelin/contracts/security/ReentrancyGuard.sol\":2317:2380  require(_status != _ENTERED, \"ReentrancyGuard: reentrant call\") */\n    tag_116:\n        /* \"@openzeppelin/contracts/security/ReentrancyGuard.sol\":1744:1745  2 */\n      0x02\n        /* \"@openzeppelin/contracts/security/ReentrancyGuard.sol\":2455:2462  _status */\n      0x00\n        /* \"@openzeppelin/contracts/security/ReentrancyGuard.sol\":2455:2473  _status = _ENTERED */\n      swap1\n      dup2\n      sstore\n      sub(shl(0xa0, 0x01), 0x01)\n        /* \"contracts/Market.sol\":3379:3389  bal[_user] */\n      dup4\n      dup2\n      and\n      dup3\n      mstore\n        /* \"contracts/Market.sol\":3379:3382  bal */\n      0x0d\n        /* \"contracts/Market.sol\":3379:3389  bal[_user] */\n      0x20\n      mstore\n      0x40\n      swap2\n      dup3\n      swap1\n      keccak256\n      sload\n        /* \"contracts/Market.sol\":3345:3375  token.balanceOf(address(this)) */\n      swap2\n      mload\n      shl(0xe0, 0x70a08231)\n      dup2\n      mstore\n        /* \"contracts/Market.sol\":3369:3373  this */\n      address\n        /* \"contracts/Market.sol\":3345:3375  token.balanceOf(address(this)) */\n      0x04\n      dup3\n      add\n        /* \"#utility.yul\":2908:2959   */\n      mstore\n        /* \"contracts/Market.sol\":3345:3350  token */\n      immutable(\"0xe7fcf89c34605f23590ff58513f1080dc375dd06cc5e256320151057827a258a\")\n        /* \"contracts/Market.sol\":3345:3360  token.balanceOf */\n      swap1\n      swap2\n      and\n      swap1\n      0x70a08231\n      swap1\n        /* \"#utility.yul\":2881:2899   */\n      0x24\n      add\n        /* \"contracts/Market.sol\":3345:3375  token.balanceOf(address(this)) */\n      0x20\n      mload(0x40)\n      dup1\n      dup4\n      sub\n      dup2\n      dup7\n      dup1\n      extcodesize\n      iszero\n      dup1\n      iszero\n      tag_122\n      jumpi\n      0x00\n      dup1\n      revert\n    tag_122:\n      pop\n      gas\n      staticcall\n      iszero\n      dup1\n      iszero\n      tag_124\n      jumpi\n      returndatasize\n      0x00\n      dup1\n      returndatacopy\n      revert(0x00, returndatasize)\n    tag_124:\n      pop\n      pop\n      pop\n      pop\n      mload(0x40)\n      returndatasize\n      not(0x1f)\n      0x1f\n      dup3\n      add\n      and\n      dup3\n      add\n      dup1\n      0x40\n      mstore\n      pop\n      dup2\n      add\n      swap1\n      tag_125\n      swap2\n      swap1\n      tag_126\n      jump\t// in\n    tag_125:\n        /* \"contracts/Market.sol\":3345:3389  token.balanceOf(address(this)) >= bal[_user] */\n      lt\n      iszero\n        /* \"contracts/Market.sol\":3345:3407  token.balanceOf(address(this)) >= bal[_user] && bal[_user] > 0 */\n      dup1\n      iszero\n      tag_127\n      jumpi\n      pop\n      sub(shl(0xa0, 0x01), 0x01)\n        /* \"contracts/Market.sol\":3393:3403  bal[_user] */\n      dup3\n      and\n        /* \"contracts/Market.sol\":3406:3407  0 */\n      0x00\n        /* \"contracts/Market.sol\":3393:3403  bal[_user] */\n      swap1\n      dup2\n      mstore\n        /* \"contracts/Market.sol\":3393:3396  bal */\n      0x0d\n        /* \"contracts/Market.sol\":3393:3403  bal[_user] */\n      0x20\n      mstore\n      0x40\n      swap1\n      keccak256\n      sload\n        /* \"contracts/Market.sol\":3393:3407  bal[_user] > 0 */\n      iszero\n      iszero\n        /* \"contracts/Market.sol\":3345:3407  token.balanceOf(address(this)) >= bal[_user] && bal[_user] > 0 */\n    tag_127:\n        /* \"contracts/Market.sol\":3324:3435  require(... */\n      tag_128\n      jumpi\n      mload(0x40)\n      shl(0xe5, 0x461bcd)\n      dup2\n      mstore\n        /* \"#utility.yul\":7843:7845   */\n      0x20\n        /* \"contracts/Market.sol\":3324:3435  require(... */\n      0x04\n      dup3\n      add\n        /* \"#utility.yul\":7825:7846   */\n      mstore\n        /* \"#utility.yul\":7882:7883   */\n      0x02\n        /* \"#utility.yul\":7862:7880   */\n      0x24\n      dup3\n      add\n        /* \"#utility.yul\":7855:7884   */\n      mstore\n      shl(0xf0, 0x4d33)\n        /* \"#utility.yul\":7900:7918   */\n      0x44\n      dup3\n      add\n        /* \"#utility.yul\":7893:7925   */\n      mstore\n        /* \"#utility.yul\":7942:7960   */\n      0x64\n      add\n        /* \"contracts/Market.sol\":3324:3435  require(... */\n      tag_102\n        /* \"#utility.yul\":7815:7966   */\n      jump\n        /* \"contracts/Market.sol\":3324:3435  require(... */\n    tag_128:\n      sub(shl(0xa0, 0x01), 0x01)\n        /* \"contracts/Market.sol\":3467:3477  bal[_user] */\n      dup3\n      dup2\n      and\n        /* \"contracts/Market.sol\":3445:3464  uint256 availAmount */\n      0x00\n        /* \"contracts/Market.sol\":3467:3477  bal[_user] */\n      dup2\n      dup2\n      mstore\n        /* \"contracts/Market.sol\":3467:3470  bal */\n      0x0d\n        /* \"contracts/Market.sol\":3467:3477  bal[_user] */\n      0x20\n      mstore\n      0x40\n      dup1\n      dup3\n      keccak256\n      dup1\n      sload\n        /* \"contracts/Market.sol\":3487:3501  bal[_user] = 0 */\n      swap1\n      dup4\n      swap1\n      sstore\n        /* \"contracts/Market.sol\":3526:3560  token.transfer(_user, availAmount) */\n      swap1\n      mload\n      shl(0xe0, 0xa9059cbb)\n      dup2\n      mstore\n      0x04\n      dup2\n      add\n        /* \"#utility.yul\":4429:4480   */\n      swap4\n      swap1\n      swap4\n      mstore\n        /* \"#utility.yul\":4496:4514   */\n      0x24\n      dup4\n      add\n        /* \"#utility.yul\":4489:4523   */\n      dup2\n      swap1\n      mstore\n        /* \"contracts/Market.sol\":3467:3477  bal[_user] */\n      swap3\n        /* \"contracts/Market.sol\":3445:3464  uint256 availAmount */\n      swap1\n      swap2\n        /* \"contracts/Market.sol\":3526:3531  token */\n      immutable(\"0xe7fcf89c34605f23590ff58513f1080dc375dd06cc5e256320151057827a258a\")\n        /* \"contracts/Market.sol\":3526:3540  token.transfer */\n      swap1\n      swap2\n      and\n      swap1\n      0xa9059cbb\n      swap1\n        /* \"#utility.yul\":4402:4420   */\n      0x44\n      add\n        /* \"contracts/Market.sol\":3526:3560  token.transfer(_user, availAmount) */\n      0x20\n      mload(0x40)\n      dup1\n      dup4\n      sub\n      dup2\n      0x00\n      dup8\n      dup1\n      extcodesize\n      iszero\n      dup1\n      iszero\n      tag_133\n      jumpi\n      0x00\n      dup1\n      revert\n    tag_133:\n      pop\n      gas\n      call\n      iszero\n      dup1\n      iszero\n      tag_135\n      jumpi\n      returndatasize\n      0x00\n      dup1\n      returndatacopy\n      revert(0x00, returndatasize)\n    tag_135:\n      pop\n      pop\n      pop\n      pop\n      mload(0x40)\n      returndatasize\n      not(0x1f)\n      0x1f\n      dup3\n      add\n      and\n      dup3\n      add\n      dup1\n      0x40\n      mstore\n      pop\n      dup2\n      add\n      swap1\n      tag_136\n      swap2\n      swap1\n      tag_137\n      jump\t// in\n    tag_136:\n        /* \"contracts/Market.sol\":3511:3560  bool success = token.transfer(_user, availAmount) */\n      swap1\n      pop\n        /* \"contracts/Market.sol\":3578:3585  success */\n      dup1\n        /* \"contracts/Market.sol\":3570:3615  require(success, \"transfer to caller failed\") */\n      tag_138\n      jumpi\n      mload(0x40)\n      shl(0xe5, 0x461bcd)\n      dup2\n      mstore\n        /* \"#utility.yul\":7489:7491   */\n      0x20\n        /* \"contracts/Market.sol\":3570:3615  require(success, \"transfer to caller failed\") */\n      0x04\n      dup3\n      add\n        /* \"#utility.yul\":7471:7492   */\n      mstore\n        /* \"#utility.yul\":7528:7530   */\n      0x19\n        /* \"#utility.yul\":7508:7526   */\n      0x24\n      dup3\n      add\n        /* \"#utility.yul\":7501:7531   */\n      mstore\n        /* \"#utility.yul\":7567:7594   */\n      0x7472616e7366657220746f2063616c6c6572206661696c656400000000000000\n        /* \"#utility.yul\":7547:7565   */\n      0x44\n      dup3\n      add\n        /* \"#utility.yul\":7540:7595   */\n      mstore\n        /* \"#utility.yul\":7612:7630   */\n      0x64\n      add\n        /* \"contracts/Market.sol\":3570:3615  require(success, \"transfer to caller failed\") */\n      tag_102\n        /* \"#utility.yul\":7461:7636   */\n      jump\n        /* \"contracts/Market.sol\":3570:3615  require(success, \"transfer to caller failed\") */\n    tag_138:\n        /* \"contracts/Market.sol\":3631:3659  Withdraw(_user, availAmount) */\n      0x40\n      dup1\n      mload\n      sub(shl(0xa0, 0x01), 0x01)\n        /* \"#utility.yul\":4447:4479   */\n      dup7\n      and\n        /* \"#utility.yul\":4429:4480   */\n      dup2\n      mstore\n        /* \"#utility.yul\":4511:4513   */\n      0x20\n        /* \"#utility.yul\":4496:4514   */\n      dup2\n      add\n        /* \"#utility.yul\":4489:4523   */\n      dup5\n      swap1\n      mstore\n        /* \"contracts/Market.sol\":3631:3659  Withdraw(_user, availAmount) */\n      0x884edad9ce6fa2440d8a54cc123490eb96d2768479d49ff9c7366125a9424364\n      swap2\n        /* \"#utility.yul\":4402:4420   */\n      add\n        /* \"contracts/Market.sol\":3631:3659  Withdraw(_user, availAmount) */\n      mload(0x40)\n      dup1\n      swap2\n      sub\n      swap1\n      log1\n        /* \"contracts/Market.sol\":3676:3680  true */\n      0x01\n        /* \"contracts/Market.sol\":3669:3680  return true */\n      swap3\n      pop\n      pop\n      pop\n        /* \"@openzeppelin/contracts/security/ReentrancyGuard.sol\":2484:2485  _ */\n    tag_119:\n        /* \"@openzeppelin/contracts/security/ReentrancyGuard.sol\":1701:1702  1 */\n      0x01\n        /* \"@openzeppelin/contracts/security/ReentrancyGuard.sol\":2628:2635  _status */\n      0x00\n        /* \"@openzeppelin/contracts/security/ReentrancyGuard.sol\":2628:2650  _status = _NOT_ENTERED */\n      sstore\n        /* \"contracts/Market.sol\":3238:3687  function withdraw(address _user) public override nonReentrant returns(bool) {... */\n      swap2\n      swap1\n      pop\n      jump\t// out\n        /* \"contracts/Market.sol\":4552:4872  function settleBet(bytes32 _bet) external override {... */\n    tag_54:\n        /* \"contracts/Market.sol\":4613:4636  bytes32[] memory _pairs */\n      0x00\n        /* \"contracts/Market.sol\":4639:4653  betPairs[_bet] */\n      dup2\n      dup2\n      mstore\n        /* \"contracts/Market.sol\":4639:4647  betPairs */\n      0x12\n        /* \"contracts/Market.sol\":4639:4653  betPairs[_bet] */\n      0x20\n      swap1\n      dup2\n      mstore\n      0x40\n      dup1\n      dup4\n      keccak256\n        /* \"contracts/Market.sol\":4613:4653  bytes32[] memory _pairs = betPairs[_bet] */\n      dup1\n      sload\n      dup3\n      mload\n      dup2\n      dup6\n      mul\n      dup2\n      add\n      dup6\n      add\n      swap1\n      swap4\n      mstore\n      dup1\n      dup4\n      mstore\n      swap2\n      swap3\n        /* \"contracts/Market.sol\":4639:4653  betPairs[_bet] */\n      swap1\n      swap2\n        /* \"contracts/Market.sol\":4613:4653  bytes32[] memory _pairs = betPairs[_bet] */\n      swap1\n      dup4\n      add\n        /* \"contracts/Market.sol\":4639:4653  betPairs[_bet] */\n      dup3\n        /* \"contracts/Market.sol\":4613:4653  bytes32[] memory _pairs = betPairs[_bet] */\n      dup3\n      dup1\n      iszero\n      tag_143\n      jumpi\n      0x20\n      mul\n      dup3\n      add\n      swap2\n      swap1\n      0x00\n      mstore\n      keccak256(0x00, 0x20)\n      swap1\n    tag_144:\n      dup2\n      sload\n      dup2\n      mstore\n      0x20\n      add\n      swap1\n      0x01\n      add\n      swap1\n      dup1\n      dup4\n      gt\n      tag_144\n      jumpi\n    tag_143:\n      pop\n      pop\n        /* \"contracts/Market.sol\":4682:4695  _pairs.length */\n      dup4\n      mload\n        /* \"contracts/Market.sol\":4613:4653  bytes32[] memory _pairs = betPairs[_bet] */\n      swap4\n      swap5\n      pop\n        /* \"contracts/Market.sol\":4663:4679  uint pairsLength */\n      0x00\n      swap3\n      pop\n      pop\n      pop\n        /* \"contracts/Market.sol\":4705:4789  for(uint i = 0; i < pairsLength; i++){... */\n    tag_145:\n        /* \"contracts/Market.sol\":4725:4736  pairsLength */\n      dup2\n        /* \"contracts/Market.sol\":4721:4722  i */\n      dup2\n        /* \"contracts/Market.sol\":4721:4736  i < pairsLength */\n      lt\n        /* \"contracts/Market.sol\":4705:4789  for(uint i = 0; i < pairsLength; i++){... */\n      iszero\n      tag_146\n      jumpi\n        /* \"contracts/Market.sol\":4756:4778  _settlePair(_pairs[i]) */\n      tag_148\n        /* \"contracts/Market.sol\":4768:4774  _pairs */\n      dup4\n        /* \"contracts/Market.sol\":4775:4776  i */\n      dup3\n        /* \"contracts/Market.sol\":4768:4777  _pairs[i] */\n      dup2\n      mload\n      dup2\n      lt\n      tag_149\n      jumpi\n      mstore(0x00, shl(0xe0, 0x4e487b71))\n      mstore(0x04, 0x32)\n      revert(0x00, 0x24)\n    tag_149:\n      0x20\n      mul\n      0x20\n      add\n      add\n      mload\n        /* \"contracts/Market.sol\":4756:4767  _settlePair */\n      tag_150\n        /* \"contracts/Market.sol\":4756:4778  _settlePair(_pairs[i]) */\n      jump\t// in\n    tag_148:\n      pop\n        /* \"contracts/Market.sol\":4738:4741  i++ */\n      dup1\n      tag_151\n      dup2\n      tag_152\n      jump\t// in\n    tag_151:\n      swap2\n      pop\n      pop\n        /* \"contracts/Market.sol\":4705:4789  for(uint i = 0; i < pairsLength; i++){... */\n      jump(tag_145)\n    tag_146:\n      pop\n        /* \"contracts/Market.sol\":4805:4815  msg.sender */\n      caller\n        /* \"contracts/Market.sol\":4819:4820  0 */\n      0x00\n        /* \"contracts/Market.sol\":4801:4816  bal[msg.sender] */\n      swap1\n      dup2\n      mstore\n        /* \"contracts/Market.sol\":4801:4804  bal */\n      0x0d\n        /* \"contracts/Market.sol\":4801:4816  bal[msg.sender] */\n      0x20\n      mstore\n      0x40\n      swap1\n      keccak256\n      sload\n        /* \"contracts/Market.sol\":4801:4820  bal[msg.sender] > 0 */\n      iszero\n        /* \"contracts/Market.sol\":4798:4866  if(bal[msg.sender] > 0){... */\n      tag_153\n      jumpi\n        /* \"contracts/Market.sol\":4835:4855  withdraw(msg.sender) */\n      tag_154\n        /* \"contracts/Market.sol\":4844:4854  msg.sender */\n      caller\n        /* \"contracts/Market.sol\":4835:4843  withdraw */\n      tag_49\n        /* \"contracts/Market.sol\":4835:4855  withdraw(msg.sender) */\n      jump\t// in\n    tag_154:\n      pop\n        /* \"contracts/Market.sol\":4798:4866  if(bal[msg.sender] > 0){... */\n    tag_153:\n        /* \"contracts/Market.sol\":4552:4872  function settleBet(bytes32 _bet) external override {... */\n      pop\n      pop\n      pop\n      jump\t// out\n        /* \"contracts/Market.sol\":6475:6682  function stopNewBet() external override onlyFactory returns(bool){... */\n    tag_56:\n        /* \"contracts/Market.sol\":1103:1115  a.eventOwner */\n      sload(0x03)\n        /* \"contracts/Market.sol\":6535:6539  bool */\n      0x00\n      swap1\n      sub(shl(0xa0, 0x01), 0x01)\n        /* \"contracts/Market.sol\":1103:1115  a.eventOwner */\n      and\n        /* \"contracts/Market.sol\":1089:1099  msg.sender */\n      caller\n        /* \"contracts/Market.sol\":1089:1115  msg.sender == a.eventOwner */\n      eq\n      dup1\n        /* \"contracts/Market.sol\":1089:1142  msg.sender == a.eventOwner || msg.sender == a.factory */\n      tag_156\n      jumpi\n      pop\n        /* \"contracts/Market.sol\":1133:1142  a.factory */\n      and(sub(shl(0xa0, 0x01), 0x01), sload(0x02))\n        /* \"contracts/Market.sol\":1119:1129  msg.sender */\n      caller\n        /* \"contracts/Market.sol\":1119:1142  msg.sender == a.factory */\n      eq\n        /* \"contracts/Market.sol\":1089:1142  msg.sender == a.eventOwner || msg.sender == a.factory */\n    tag_156:\n        /* \"contracts/Market.sol\":1068:1170  require(... */\n      tag_157\n      jumpi\n      mload(0x40)\n      shl(0xe5, 0x461bcd)\n      dup2\n      mstore\n      0x04\n      add\n      tag_102\n      swap1\n      tag_159\n      jump\t// in\n    tag_157:\n        /* \"contracts/Market.sol\":6553:6559  status */\n      sload(0x0c)\n        /* \"contracts/Market.sol\":6550:6676  if(status == 0){... */\n      tag_161\n      jumpi\n      pop\n        /* \"contracts/Market.sol\":6588:6589  4 */\n      0x04\n        /* \"contracts/Market.sol\":6579:6585  status */\n      0x0c\n        /* \"contracts/Market.sol\":6579:6589  status = 4 */\n      sstore\n        /* \"contracts/Market.sol\":6610:6614  true */\n      0x01\n        /* \"contracts/Market.sol\":6475:6682  function stopNewBet() external override onlyFactory returns(bool){... */\n      swap1\n      jump\t// out\n        /* \"contracts/Market.sol\":6550:6676  if(status == 0){... */\n    tag_161:\n      pop\n        /* \"contracts/Market.sol\":6660:6665  false */\n      0x00\n        /* \"contracts/Market.sol\":6475:6682  function stopNewBet() external override onlyFactory returns(bool){... */\n      swap1\n      jump\t// out\n        /* \"contracts/Market.sol\":2872:2975  function getPairs() external view override returns(bytes32[] memory) ... */\n    tag_59:\n        /* \"contracts/Market.sol\":2923:2939  bytes32[] memory */\n      0x60\n        /* \"contracts/Market.sol\":2963:2968  pairs */\n      0x11\n        /* \"contracts/Market.sol\":2956:2968  return pairs */\n      dup1\n      sload\n      dup1\n      0x20\n      mul\n      0x20\n      add\n      mload(0x40)\n      swap1\n      dup2\n      add\n      0x40\n      mstore\n      dup1\n      swap3\n      swap2\n      swap1\n      dup2\n      dup2\n      mstore\n      0x20\n      add\n      dup3\n      dup1\n      sload\n      dup1\n      iszero\n      tag_164\n      jumpi\n      0x20\n      mul\n      dup3\n      add\n      swap2\n      swap1\n      0x00\n      mstore\n      keccak256(0x00, 0x20)\n      swap1\n    tag_165:\n      dup2\n      sload\n      dup2\n      mstore\n      0x20\n      add\n      swap1\n      0x01\n      add\n      swap1\n      dup1\n      dup4\n      gt\n      tag_165\n      jumpi\n    tag_164:\n      pop\n      pop\n      pop\n      pop\n      pop\n      swap1\n      pop\n        /* \"contracts/Market.sol\":2872:2975  function getPairs() external view override returns(bytes32[] memory) ... */\n      swap1\n      jump\t// out\n        /* \"contracts/Market.sol\":3790:4179  function withdrawPending(bytes32 _bet) public override {... */\n    tag_63:\n        /* \"contracts/Market.sol\":3855:3882  Struct.MarketBet memory bet */\n      0x00\n        /* \"contracts/Market.sol\":3885:3899  betsInfo[_bet] */\n      dup2\n      dup2\n      mstore\n        /* \"contracts/Market.sol\":3885:3893  betsInfo */\n      0x10\n        /* \"contracts/Market.sol\":3885:3899  betsInfo[_bet] */\n      0x20\n      swap1\n      dup2\n      mstore\n      0x40\n      swap2\n      dup3\n      swap1\n      keccak256\n        /* \"contracts/Market.sol\":3855:3899  Struct.MarketBet memory bet = betsInfo[_bet] */\n      dup3\n      mload\n      0xc0\n      dup2\n      add\n      dup5\n      mstore\n      dup2\n      sload\n      sub(shl(0xa0, 0x01), 0x01)\n      swap1\n      dup2\n      and\n      dup1\n      dup4\n      mstore\n      0x01\n      dup5\n      add\n      sload\n      swap1\n      swap2\n      and\n      swap4\n      dup3\n      add\n      swap4\n      swap1\n      swap4\n      mstore\n      0x02\n      dup3\n      add\n      sload\n      swap4\n      dup2\n      add\n      swap4\n      swap1\n      swap4\n      mstore\n      0x03\n      dup2\n      add\n      sload\n      0x60\n      dup5\n      add\n      mstore\n      0x04\n      dup2\n      add\n      sload\n      0x80\n      dup5\n      add\n      mstore\n      0x05\n      add\n      sload\n      0xa0\n      dup4\n      add\n      mstore\n        /* \"contracts/Market.sol\":3917:3927  msg.sender */\n      caller\n        /* \"contracts/Market.sol\":3917:3941  msg.sender == bet.better */\n      eq\n        /* \"contracts/Market.sol\":3909:3965  require(msg.sender == bet.better, \"unauthorized caller\") */\n      tag_167\n      jumpi\n      mload(0x40)\n      shl(0xe5, 0x461bcd)\n      dup2\n      mstore\n        /* \"#utility.yul\":6800:6802   */\n      0x20\n        /* \"contracts/Market.sol\":3909:3965  require(msg.sender == bet.better, \"unauthorized caller\") */\n      0x04\n      dup3\n      add\n        /* \"#utility.yul\":6782:6803   */\n      mstore\n        /* \"#utility.yul\":6839:6841   */\n      0x13\n        /* \"#utility.yul\":6819:6837   */\n      0x24\n      dup3\n      add\n        /* \"#utility.yul\":6812:6842   */\n      mstore\n      shl(0x69, 0x3ab730baba3437b934bd32b21031b0b63632b9)\n        /* \"#utility.yul\":6858:6876   */\n      0x44\n      dup3\n      add\n        /* \"#utility.yul\":6851:6900   */\n      mstore\n        /* \"#utility.yul\":6917:6935   */\n      0x64\n      add\n        /* \"contracts/Market.sol\":3909:3965  require(msg.sender == bet.better, \"unauthorized caller\") */\n      tag_102\n        /* \"#utility.yul\":6772:6941   */\n      jump\n        /* \"contracts/Market.sol\":3909:3965  require(msg.sender == bet.better, \"unauthorized caller\") */\n    tag_167:\n        /* \"contracts/Market.sol\":3975:3988  uint remStake */\n      0x00\n        /* \"contracts/Market.sol\":4003:4006  bet */\n      dup2\n        /* \"contracts/Market.sol\":4003:4014  bet.matched */\n      0x60\n      add\n      mload\n        /* \"contracts/Market.sol\":3991:3994  bet */\n      dup3\n        /* \"contracts/Market.sol\":3991:4000  bet.stake */\n      0x40\n      add\n      mload\n        /* \"contracts/Market.sol\":3991:4014  bet.stake - bet.matched */\n      tag_169\n      swap2\n      swap1\n      tag_170\n      jump\t// in\n    tag_169:\n        /* \"contracts/Market.sol\":4028:4038  bet.better */\n      dup3\n      mload\n      sub(shl(0xa0, 0x01), 0x01)\n        /* \"contracts/Market.sol\":4024:4039  bal[bet.better] */\n      and\n      0x00\n      swap1\n      dup2\n      mstore\n        /* \"contracts/Market.sol\":4024:4027  bal */\n      0x0d\n        /* \"contracts/Market.sol\":4024:4039  bal[bet.better] */\n      0x20\n      mstore\n      0x40\n      dup2\n      keccak256\n        /* \"contracts/Market.sol\":4024:4051  bal[bet.better] += remStake */\n      dup1\n      sload\n        /* \"contracts/Market.sol\":3975:4014  uint remStake = bet.stake - bet.matched */\n      swap3\n      swap4\n      pop\n      dup4\n      swap3\n        /* \"contracts/Market.sol\":4024:4039  bal[bet.better] */\n      swap1\n      swap2\n      swap1\n        /* \"contracts/Market.sol\":4024:4051  bal[bet.better] += remStake */\n      tag_171\n      swap1\n        /* \"contracts/Market.sol\":3975:4014  uint remStake = bet.stake - bet.matched */\n      dup5\n      swap1\n        /* \"contracts/Market.sol\":4024:4051  bal[bet.better] += remStake */\n      tag_172\n      jump\t// in\n    tag_171:\n      swap1\n      swap2\n      sstore\n      pop\n      pop\n        /* \"contracts/Market.sol\":4086:4095  bet.stake */\n      0x40\n      dup1\n      dup4\n      add\n      mload\n        /* \"contracts/Market.sol\":4061:4075  betsInfo[_bet] */\n      0x00\n      dup6\n      dup2\n      mstore\n        /* \"contracts/Market.sol\":4061:4069  betsInfo */\n      0x10\n        /* \"contracts/Market.sol\":4061:4075  betsInfo[_bet] */\n      0x20\n      swap1\n      dup2\n      mstore\n      dup4\n      dup3\n      keccak256\n        /* \"contracts/Market.sol\":4061:4083  betsInfo[_bet].matched */\n      0x03\n      add\n        /* \"contracts/Market.sol\":4061:4095  betsInfo[_bet].matched = bet.stake */\n      swap3\n      swap1\n      swap3\n      sstore\n        /* \"contracts/Market.sol\":4112:4122  msg.sender */\n      caller\n        /* \"contracts/Market.sol\":4108:4123  bal[msg.sender] */\n      dup2\n      mstore\n        /* \"contracts/Market.sol\":4108:4111  bal */\n      0x0d\n        /* \"contracts/Market.sol\":4108:4123  bal[msg.sender] */\n      swap1\n      swap2\n      mstore\n      keccak256\n      sload\n        /* \"contracts/Market.sol\":4108:4127  bal[msg.sender] > 0 */\n      iszero\n        /* \"contracts/Market.sol\":4105:4173  if(bal[msg.sender] > 0){... */\n      tag_153\n      jumpi\n        /* \"contracts/Market.sol\":4142:4162  withdraw(msg.sender) */\n      tag_154\n        /* \"contracts/Market.sol\":4151:4161  msg.sender */\n      caller\n        /* \"contracts/Market.sol\":4142:4150  withdraw */\n      tag_49\n        /* \"contracts/Market.sol\":4142:4162  withdraw(msg.sender) */\n      jump\t// in\n        /* \"contracts/Market.sol\":5438:5849  function settle(uint256 _winningSide)... */\n    tag_67:\n        /* \"contracts/Market.sol\":1103:1115  a.eventOwner */\n      sload(0x03)\n        /* \"contracts/Market.sol\":5546:5550  bool */\n      0x00\n      swap1\n      sub(shl(0xa0, 0x01), 0x01)\n        /* \"contracts/Market.sol\":1103:1115  a.eventOwner */\n      and\n        /* \"contracts/Market.sol\":1089:1099  msg.sender */\n      caller\n        /* \"contracts/Market.sol\":1089:1115  msg.sender == a.eventOwner */\n      eq\n      dup1\n        /* \"contracts/Market.sol\":1089:1142  msg.sender == a.eventOwner || msg.sender == a.factory */\n      tag_176\n      jumpi\n      pop\n        /* \"contracts/Market.sol\":1133:1142  a.factory */\n      and(sub(shl(0xa0, 0x01), 0x01), sload(0x02))\n        /* \"contracts/Market.sol\":1119:1129  msg.sender */\n      caller\n        /* \"contracts/Market.sol\":1119:1142  msg.sender == a.factory */\n      eq\n        /* \"contracts/Market.sol\":1089:1142  msg.sender == a.eventOwner || msg.sender == a.factory */\n    tag_176:\n        /* \"contracts/Market.sol\":1068:1170  require(... */\n      tag_177\n      jumpi\n      mload(0x40)\n      shl(0xe5, 0x461bcd)\n      dup2\n      mstore\n      0x04\n      add\n      tag_102\n      swap1\n      tag_159\n      jump\t// in\n    tag_177:\n        /* \"contracts/Market.sol\":5569:5597  setWinningSide(_winningSide) */\n      tag_180\n        /* \"contracts/Market.sol\":5584:5596  _winningSide */\n      dup3\n        /* \"contracts/Market.sol\":5569:5583  setWinningSide */\n      tag_88\n        /* \"contracts/Market.sol\":5569:5597  setWinningSide(_winningSide) */\n      jump\t// in\n    tag_180:\n        /* \"contracts/Market.sol\":5566:5834  if(setWinningSide(_winningSide)){... */\n      iszero\n      tag_181\n      jumpi\n        /* \"contracts/Market.sol\":5631:5636  pairs */\n      0x11\n        /* \"contracts/Market.sol\":5631:5643  pairs.length */\n      sload\n        /* \"contracts/Market.sol\":5612:5628  uint pairsLength */\n      0x00\n        /* \"contracts/Market.sol\":5657:5748  for(uint i = 0; i < pairsLength; i++){... */\n    tag_182:\n        /* \"contracts/Market.sol\":5677:5688  pairsLength */\n      dup2\n        /* \"contracts/Market.sol\":5673:5674  i */\n      dup2\n        /* \"contracts/Market.sol\":5673:5688  i < pairsLength */\n      lt\n        /* \"contracts/Market.sol\":5657:5748  for(uint i = 0; i < pairsLength; i++){... */\n      iszero\n      tag_183\n      jumpi\n        /* \"contracts/Market.sol\":5712:5733  _settlePair(pairs[i]) */\n      tag_185\n        /* \"contracts/Market.sol\":5724:5729  pairs */\n      0x11\n        /* \"contracts/Market.sol\":5730:5731  i */\n      dup3\n        /* \"contracts/Market.sol\":5724:5732  pairs[i] */\n      dup2\n      sload\n      dup2\n      lt\n      tag_186\n      jumpi\n      mstore(0x00, shl(0xe0, 0x4e487b71))\n      mstore(0x04, 0x32)\n      revert(0x00, 0x24)\n    tag_186:\n      swap1\n      0x00\n      mstore\n      keccak256(0x00, 0x20)\n      add\n      sload\n        /* \"contracts/Market.sol\":5712:5723  _settlePair */\n      tag_150\n        /* \"contracts/Market.sol\":5712:5733  _settlePair(pairs[i]) */\n      jump\t// in\n    tag_185:\n      pop\n        /* \"contracts/Market.sol\":5690:5693  i++ */\n      dup1\n      tag_188\n      dup2\n      tag_152\n      jump\t// in\n    tag_188:\n      swap2\n      pop\n      pop\n        /* \"contracts/Market.sol\":5657:5748  for(uint i = 0; i < pairsLength; i++){... */\n      jump(tag_182)\n    tag_183:\n      pop\n        /* \"contracts/Market.sol\":5768:5772  true */\n      0x01\n      swap4\n        /* \"contracts/Market.sol\":5438:5849  function settle(uint256 _winningSide)... */\n      swap3\n      pop\n      pop\n      pop\n      jump\t// out\n        /* \"contracts/Market.sol\":5566:5834  if(setWinningSide(_winningSide)){... */\n    tag_181:\n      pop\n        /* \"contracts/Market.sol\":5818:5823  false */\n      0x00\n        /* \"contracts/Market.sol\":5566:5834  if(setWinningSide(_winningSide)){... */\n    tag_189:\n        /* \"contracts/Market.sol\":5438:5849  function settle(uint256 _winningSide)... */\n      swap2\n      swap1\n      pop\n      jump\t// out\n        /* \"contracts/Market.sol\":2295:2396  function getBets() external view override returns(bytes32[] memory) ... */\n    tag_70:\n        /* \"contracts/Market.sol\":2345:2361  bytes32[] memory */\n      0x60\n        /* \"contracts/Market.sol\":2385:2389  bets */\n      0x0e\n        /* \"contracts/Market.sol\":2378:2389  return bets */\n      dup1\n      sload\n      dup1\n      0x20\n      mul\n      0x20\n      add\n      mload(0x40)\n      swap1\n      dup2\n      add\n      0x40\n      mstore\n      dup1\n      swap3\n      swap2\n      swap1\n      dup2\n      dup2\n      mstore\n      0x20\n      add\n      dup3\n      dup1\n      sload\n      dup1\n      iszero\n      tag_164\n      jumpi\n      0x20\n      mul\n      dup3\n      add\n      swap2\n      swap1\n      0x00\n      mstore\n      keccak256(0x00, 0x20)\n      swap1\n      dup2\n      sload\n      dup2\n      mstore\n      0x20\n      add\n      swap1\n      0x01\n      add\n      swap1\n      dup1\n      dup4\n      gt\n      tag_165\n      jumpi\n      pop\n      pop\n      pop\n      pop\n      pop\n      swap1\n      pop\n        /* \"contracts/Market.sol\":2295:2396  function getBets() external view override returns(bytes32[] memory) ... */\n      swap1\n      jump\t// out\n        /* \"contracts/Market.sol\":6086:6469  function cancelPlusPairs() external override onlyFactory returns(bool) ... */\n    tag_73:\n        /* \"contracts/Market.sol\":1103:1115  a.eventOwner */\n      sload(0x03)\n        /* \"contracts/Market.sol\":6151:6155  bool */\n      0x00\n      swap1\n      sub(shl(0xa0, 0x01), 0x01)\n        /* \"contracts/Market.sol\":1103:1115  a.eventOwner */\n      and\n        /* \"contracts/Market.sol\":1089:1099  msg.sender */\n      caller\n        /* \"contracts/Market.sol\":1089:1115  msg.sender == a.eventOwner */\n      eq\n      dup1\n        /* \"contracts/Market.sol\":1089:1142  msg.sender == a.eventOwner || msg.sender == a.factory */\n      tag_194\n      jumpi\n      pop\n        /* \"contracts/Market.sol\":1133:1142  a.factory */\n      and(sub(shl(0xa0, 0x01), 0x01), sload(0x02))\n        /* \"contracts/Market.sol\":1119:1129  msg.sender */\n      caller\n        /* \"contracts/Market.sol\":1119:1142  msg.sender == a.factory */\n      eq\n        /* \"contracts/Market.sol\":1089:1142  msg.sender == a.eventOwner || msg.sender == a.factory */\n    tag_194:\n        /* \"contracts/Market.sol\":1068:1170  require(... */\n      tag_195\n      jumpi\n      mload(0x40)\n      shl(0xe5, 0x461bcd)\n      dup2\n      mstore\n      0x04\n      add\n      tag_102\n      swap1\n      tag_159\n      jump\t// in\n    tag_195:\n        /* \"contracts/Market.sol\":6176:6182  status */\n      sload(0x0c)\n        /* \"contracts/Market.sol\":6176:6187  status == 0 */\n      iszero\n      dup1\n        /* \"contracts/Market.sol\":6176:6202  status == 0 || status == 4 */\n      tag_198\n      jumpi\n      pop\n        /* \"contracts/Market.sol\":6191:6197  status */\n      sload(0x0c)\n        /* \"contracts/Market.sol\":6201:6202  4 */\n      0x04\n        /* \"contracts/Market.sol\":6191:6202  status == 4 */\n      eq\n        /* \"contracts/Market.sol\":6176:6202  status == 0 || status == 4 */\n    tag_198:\n        /* \"contracts/Market.sol\":6173:6463  if(status == 0 || status == 4){... */\n      iszero\n      tag_161\n      jumpi\n        /* \"contracts/Market.sol\":6236:6241  pairs */\n      0x11\n        /* \"contracts/Market.sol\":6236:6248  pairs.length */\n      sload\n        /* \"contracts/Market.sol\":6217:6233  uint pairsLength */\n      0x00\n        /* \"contracts/Market.sol\":6262:6353  for(uint i = 0; i < pairsLength; i++){... */\n    tag_200:\n        /* \"contracts/Market.sol\":6282:6293  pairsLength */\n      dup2\n        /* \"contracts/Market.sol\":6278:6279  i */\n      dup2\n        /* \"contracts/Market.sol\":6278:6293  i < pairsLength */\n      lt\n        /* \"contracts/Market.sol\":6262:6353  for(uint i = 0; i < pairsLength; i++){... */\n      iszero\n      tag_201\n      jumpi\n        /* \"contracts/Market.sol\":6317:6338  _cancelPair(pairs[i]) */\n      tag_203\n        /* \"contracts/Market.sol\":6329:6334  pairs */\n      0x11\n        /* \"contracts/Market.sol\":6335:6336  i */\n      dup3\n        /* \"contracts/Market.sol\":6329:6337  pairs[i] */\n      dup2\n      sload\n      dup2\n      lt\n      tag_204\n      jumpi\n      mstore(0x00, shl(0xe0, 0x4e487b71))\n      mstore(0x04, 0x32)\n      revert(0x00, 0x24)\n    tag_204:\n      swap1\n      0x00\n      mstore\n      keccak256(0x00, 0x20)\n      add\n      sload\n        /* \"contracts/Market.sol\":6317:6328  _cancelPair */\n      tag_206\n        /* \"contracts/Market.sol\":6317:6338  _cancelPair(pairs[i]) */\n      jump\t// in\n    tag_203:\n      pop\n        /* \"contracts/Market.sol\":6295:6298  i++ */\n      dup1\n      tag_207\n      dup2\n      tag_152\n      jump\t// in\n    tag_207:\n      swap2\n      pop\n      pop\n        /* \"contracts/Market.sol\":6262:6353  for(uint i = 0; i < pairsLength; i++){... */\n      jump(tag_200)\n    tag_201:\n      pop\n      pop\n        /* \"contracts/Market.sol\":6375:6376  3 */\n      0x03\n        /* \"contracts/Market.sol\":6366:6372  status */\n      0x0c\n        /* \"contracts/Market.sol\":6366:6376  status = 3 */\n      sstore\n      pop\n        /* \"contracts/Market.sol\":6397:6401  true */\n      0x01\n        /* \"contracts/Market.sol\":6475:6682  function stopNewBet() external override onlyFactory returns(bool){... */\n      swap1\n      jump\t// out\n        /* \"contracts/Market.sol\":6688:9443  function addBet(... */\n    tag_83:\n        /* \"contracts/Market.sol\":982:985  app */\n      sload(0x0b)\n        /* \"contracts/Market.sol\":982:1005  app.isBlack(msg.sender) */\n      mload(0x40)\n      shl(0xe0, 0x332daccf)\n      dup2\n      mstore\n        /* \"contracts/Market.sol\":994:1004  msg.sender */\n      caller\n        /* \"contracts/Market.sol\":982:1005  app.isBlack(msg.sender) */\n      0x04\n      dup3\n      add\n        /* \"#utility.yul\":2908:2959   */\n      mstore\n        /* \"contracts/Market.sol\":6883:6890  bytes32 */\n      0x00\n      swap2\n      sub(shl(0xa0, 0x01), 0x01)\n        /* \"contracts/Market.sol\":982:985  app */\n      and\n      swap1\n        /* \"contracts/Market.sol\":982:993  app.isBlack */\n      0x332daccf\n      swap1\n        /* \"#utility.yul\":2881:2899   */\n      0x24\n      add\n        /* \"contracts/Market.sol\":982:1005  app.isBlack(msg.sender) */\n      0x20\n      mload(0x40)\n      dup1\n      dup4\n      sub\n      dup2\n      dup7\n      dup1\n      extcodesize\n      iszero\n      dup1\n      iszero\n      tag_214\n      jumpi\n      0x00\n      dup1\n      revert\n    tag_214:\n      pop\n      gas\n      staticcall\n      iszero\n      dup1\n      iszero\n      tag_216\n      jumpi\n      returndatasize\n      0x00\n      dup1\n      returndatacopy\n      revert(0x00, returndatasize)\n    tag_216:\n      pop\n      pop\n      pop\n      pop\n      mload(0x40)\n      returndatasize\n      not(0x1f)\n      0x1f\n      dup3\n      add\n      and\n      dup3\n      add\n      dup1\n      0x40\n      mstore\n      pop\n      dup2\n      add\n      swap1\n      tag_217\n      swap2\n      swap1\n      tag_137\n      jump\t// in\n    tag_217:\n        /* \"contracts/Market.sol\":981:1005  !app.isBlack(msg.sender) */\n      iszero\n        /* \"contracts/Market.sol\":973:1012  require(!app.isBlack(msg.sender), \"M1\") */\n      tag_218\n      jumpi\n      mload(0x40)\n      shl(0xe5, 0x461bcd)\n      dup2\n      mstore\n        /* \"#utility.yul\":8527:8529   */\n      0x20\n        /* \"contracts/Market.sol\":973:1012  require(!app.isBlack(msg.sender), \"M1\") */\n      0x04\n      dup3\n      add\n        /* \"#utility.yul\":8509:8530   */\n      mstore\n        /* \"#utility.yul\":8566:8567   */\n      0x02\n        /* \"#utility.yul\":8546:8564   */\n      0x24\n      dup3\n      add\n        /* \"#utility.yul\":8539:8568   */\n      mstore\n      shl(0xf0, 0x4d31)\n        /* \"#utility.yul\":8584:8602   */\n      0x44\n      dup3\n      add\n        /* \"#utility.yul\":8577:8609   */\n      mstore\n        /* \"#utility.yul\":8626:8644   */\n      0x64\n      add\n        /* \"contracts/Market.sol\":973:1012  require(!app.isBlack(msg.sender), \"M1\") */\n      tag_102\n        /* \"#utility.yul\":8499:8650   */\n      jump\n        /* \"contracts/Market.sol\":973:1012  require(!app.isBlack(msg.sender), \"M1\") */\n    tag_218:\n        /* \"contracts/Market.sol\":6914:6920  status */\n      sload(0x0c)\n        /* \"contracts/Market.sol\":6914:6925  status == 0 */\n      iszero\n        /* \"contracts/Market.sol\":6906:6947  require(status == 0, \"market not active\") */\n      tag_222\n      jumpi\n      mload(0x40)\n      shl(0xe5, 0x461bcd)\n      dup2\n      mstore\n        /* \"#utility.yul\":6098:6100   */\n      0x20\n        /* \"contracts/Market.sol\":6906:6947  require(status == 0, \"market not active\") */\n      0x04\n      dup3\n      add\n        /* \"#utility.yul\":6080:6101   */\n      mstore\n        /* \"#utility.yul\":6137:6139   */\n      0x11\n        /* \"#utility.yul\":6117:6135   */\n      0x24\n      dup3\n      add\n        /* \"#utility.yul\":6110:6140   */\n      mstore\n      shl(0x78, 0x6d61726b6574206e6f7420616374697665)\n        /* \"#utility.yul\":6156:6174   */\n      0x44\n      dup3\n      add\n        /* \"#utility.yul\":6149:6196   */\n      mstore\n        /* \"#utility.yul\":6213:6231   */\n      0x64\n      add\n        /* \"contracts/Market.sol\":6906:6947  require(status == 0, \"market not active\") */\n      tag_102\n        /* \"#utility.yul\":6070:6237   */\n      jump\n        /* \"contracts/Market.sol\":6906:6947  require(status == 0, \"market not active\") */\n    tag_222:\n        /* \"contracts/Market.sol\":6965:6970  _side */\n      dup3\n        /* \"contracts/Market.sol\":6974:6975  1 */\n      0x01\n        /* \"contracts/Market.sol\":6965:6975  _side == 1 */\n      eq\n        /* \"contracts/Market.sol\":6965:6989  _side == 1 || _side == 2 */\n      dup1\n      tag_225\n      jumpi\n      pop\n        /* \"contracts/Market.sol\":6979:6984  _side */\n      dup3\n        /* \"contracts/Market.sol\":6988:6989  2 */\n      0x02\n        /* \"contracts/Market.sol\":6979:6989  _side == 2 */\n      eq\n        /* \"contracts/Market.sol\":6965:6989  _side == 1 || _side == 2 */\n    tag_225:\n        /* \"contracts/Market.sol\":6957:7006  require(_side == 1 || _side == 2, \"invalid side\") */\n      tag_226\n      jumpi\n      mload(0x40)\n      shl(0xe5, 0x461bcd)\n      dup2\n      mstore\n        /* \"#utility.yul\":7148:7150   */\n      0x20\n        /* \"contracts/Market.sol\":6957:7006  require(_side == 1 || _side == 2, \"invalid side\") */\n      0x04\n      dup3\n      add\n        /* \"#utility.yul\":7130:7151   */\n      mstore\n        /* \"#utility.yul\":7187:7189   */\n      0x0c\n        /* \"#utility.yul\":7167:7185   */\n      0x24\n      dup3\n      add\n        /* \"#utility.yul\":7160:7190   */\n      mstore\n      shl(0xa0, 0x696e76616c69642073696465)\n        /* \"#utility.yul\":7206:7224   */\n      0x44\n      dup3\n      add\n        /* \"#utility.yul\":7199:7241   */\n      mstore\n        /* \"#utility.yul\":7258:7276   */\n      0x64\n      add\n        /* \"contracts/Market.sol\":6957:7006  require(_side == 1 || _side == 2, \"invalid side\") */\n      tag_102\n        /* \"#utility.yul\":7120:7282   */\n      jump\n        /* \"contracts/Market.sol\":6957:7006  require(_side == 1 || _side == 2, \"invalid side\") */\n    tag_226:\n        /* \"contracts/Market.sol\":7024:7051  token.balanceOf(msg.sender) */\n      mload(0x40)\n      shl(0xe0, 0x70a08231)\n      dup2\n      mstore\n        /* \"contracts/Market.sol\":7040:7050  msg.sender */\n      caller\n        /* \"contracts/Market.sol\":7024:7051  token.balanceOf(msg.sender) */\n      0x04\n      dup3\n      add\n        /* \"#utility.yul\":2908:2959   */\n      mstore\n        /* \"contracts/Market.sol\":7055:7061  _stake */\n      dup6\n      swap1\n        /* \"contracts/Market.sol\":7024:7029  token */\n      immutable(\"0xe7fcf89c34605f23590ff58513f1080dc375dd06cc5e256320151057827a258a\")\n      sub(shl(0xa0, 0x01), 0x01)\n        /* \"contracts/Market.sol\":7024:7039  token.balanceOf */\n      and\n      swap1\n      0x70a08231\n      swap1\n        /* \"#utility.yul\":2881:2899   */\n      0x24\n      add\n        /* \"contracts/Market.sol\":7024:7051  token.balanceOf(msg.sender) */\n      0x20\n      mload(0x40)\n      dup1\n      dup4\n      sub\n      dup2\n      dup7\n      dup1\n      extcodesize\n      iszero\n      dup1\n      iszero\n      tag_230\n      jumpi\n      0x00\n      dup1\n      revert\n    tag_230:\n      pop\n      gas\n      staticcall\n      iszero\n      dup1\n      iszero\n      tag_232\n      jumpi\n      returndatasize\n      0x00\n      dup1\n      returndatacopy\n      revert(0x00, returndatasize)\n    tag_232:\n      pop\n      pop\n      pop\n      pop\n      mload(0x40)\n      returndatasize\n      not(0x1f)\n      0x1f\n      dup3\n      add\n      and\n      dup3\n      add\n      dup1\n      0x40\n      mstore\n      pop\n      dup2\n      add\n      swap1\n      tag_233\n      swap2\n      swap1\n      tag_126\n      jump\t// in\n    tag_233:\n        /* \"contracts/Market.sol\":7024:7061  token.balanceOf(msg.sender) >= _stake */\n      lt\n      iszero\n        /* \"contracts/Market.sol\":7016:7090  require(token.balanceOf(msg.sender) >= _stake,\"not enough token balalnce\") */\n      tag_234\n      jumpi\n      mload(0x40)\n      shl(0xe5, 0x461bcd)\n      dup2\n      mstore\n        /* \"#utility.yul\":8173:8175   */\n      0x20\n        /* \"contracts/Market.sol\":7016:7090  require(token.balanceOf(msg.sender) >= _stake,\"not enough token balalnce\") */\n      0x04\n      dup3\n      add\n        /* \"#utility.yul\":8155:8176   */\n      mstore\n        /* \"#utility.yul\":8212:8214   */\n      0x19\n        /* \"#utility.yul\":8192:8210   */\n      0x24\n      dup3\n      add\n        /* \"#utility.yul\":8185:8215   */\n      mstore\n        /* \"#utility.yul\":8251:8278   */\n      0x6e6f7420656e6f75676820746f6b656e2062616c616c6e636500000000000000\n        /* \"#utility.yul\":8231:8249   */\n      0x44\n      dup3\n      add\n        /* \"#utility.yul\":8224:8279   */\n      mstore\n        /* \"#utility.yul\":8296:8314   */\n      0x64\n      add\n        /* \"contracts/Market.sol\":7016:7090  require(token.balanceOf(msg.sender) >= _stake,\"not enough token balalnce\") */\n      tag_102\n        /* \"#utility.yul\":8145:8320   */\n      jump\n        /* \"contracts/Market.sol\":7016:7090  require(token.balanceOf(msg.sender) >= _stake,\"not enough token balalnce\") */\n    tag_234:\n        /* \"contracts/Market.sol\":7108:7150  token.allowance(msg.sender, address(this)) */\n      mload(0x40)\n      shl(0xe1, 0x6eb1769f)\n      dup2\n      mstore\n        /* \"contracts/Market.sol\":7124:7134  msg.sender */\n      caller\n        /* \"contracts/Market.sol\":7108:7150  token.allowance(msg.sender, address(this)) */\n      0x04\n      dup3\n      add\n        /* \"#utility.yul\":3182:3216   */\n      mstore\n        /* \"contracts/Market.sol\":7144:7148  this */\n      address\n        /* \"#utility.yul\":3232:3250   */\n      0x24\n      dup3\n      add\n        /* \"#utility.yul\":3225:3268   */\n      mstore\n        /* \"contracts/Market.sol\":7154:7160  _stake */\n      dup6\n      swap1\n        /* \"contracts/Market.sol\":7108:7113  token */\n      immutable(\"0xe7fcf89c34605f23590ff58513f1080dc375dd06cc5e256320151057827a258a\")\n      sub(shl(0xa0, 0x01), 0x01)\n        /* \"contracts/Market.sol\":7108:7123  token.allowance */\n      and\n      swap1\n      0xdd62ed3e\n      swap1\n        /* \"#utility.yul\":3117:3135   */\n      0x44\n      add\n        /* \"contracts/Market.sol\":7108:7150  token.allowance(msg.sender, address(this)) */\n      0x20\n      mload(0x40)\n      dup1\n      dup4\n      sub\n      dup2\n      dup7\n      dup1\n      extcodesize\n      iszero\n      dup1\n      iszero\n      tag_239\n      jumpi\n      0x00\n      dup1\n      revert\n    tag_239:\n      pop\n      gas\n      staticcall\n      iszero\n      dup1\n      iszero\n      tag_241\n      jumpi\n      returndatasize\n      0x00\n      dup1\n      returndatacopy\n      revert(0x00, returndatasize)\n    tag_241:\n      pop\n      pop\n      pop\n      pop\n      mload(0x40)\n      returndatasize\n      not(0x1f)\n      0x1f\n      dup3\n      add\n      and\n      dup3\n      add\n      dup1\n      0x40\n      mstore\n      pop\n      dup2\n      add\n      swap1\n      tag_242\n      swap2\n      swap1\n      tag_126\n      jump\t// in\n    tag_242:\n        /* \"contracts/Market.sol\":7108:7160  token.allowance(msg.sender, address(this)) >= _stake */\n      lt\n      iszero\n        /* \"contracts/Market.sol\":7100:7184  require(token.allowance(msg.sender, address(this)) >= _stake,\"not enough allowance\") */\n      tag_243\n      jumpi\n      mload(0x40)\n      shl(0xe5, 0x461bcd)\n      dup2\n      mstore\n        /* \"#utility.yul\":8857:8859   */\n      0x20\n        /* \"contracts/Market.sol\":7100:7184  require(token.allowance(msg.sender, address(this)) >= _stake,\"not enough allowance\") */\n      0x04\n      dup3\n      add\n        /* \"#utility.yul\":8839:8860   */\n      mstore\n        /* \"#utility.yul\":8896:8898   */\n      0x14\n        /* \"#utility.yul\":8876:8894   */\n      0x24\n      dup3\n      add\n        /* \"#utility.yul\":8869:8899   */\n      mstore\n      shl(0x60, 0x6e6f7420656e6f75676820616c6c6f77616e6365)\n        /* \"#utility.yul\":8915:8933   */\n      0x44\n      dup3\n      add\n        /* \"#utility.yul\":8908:8958   */\n      mstore\n        /* \"#utility.yul\":8975:8993   */\n      0x64\n      add\n        /* \"contracts/Market.sol\":7100:7184  require(token.allowance(msg.sender, address(this)) >= _stake,\"not enough allowance\") */\n      tag_102\n        /* \"#utility.yul\":8829:8999   */\n      jump\n        /* \"contracts/Market.sol\":7100:7184  require(token.allowance(msg.sender, address(this)) >= _stake,\"not enough allowance\") */\n    tag_243:\n        /* \"contracts/Market.sol\":7212:7222  a.minStake */\n      sload(0x06)\n        /* \"contracts/Market.sol\":7202:7222  _stake >= a.minStake */\n      dup6\n      lt\n      iszero\n        /* \"contracts/Market.sol\":7194:7245  require(_stake >= a.minStake,\"less than min stake\") */\n      tag_246\n      jumpi\n      mload(0x40)\n      shl(0xe5, 0x461bcd)\n      dup2\n      mstore\n        /* \"#utility.yul\":5750:5752   */\n      0x20\n        /* \"contracts/Market.sol\":7194:7245  require(_stake >= a.minStake,\"less than min stake\") */\n      0x04\n      dup3\n      add\n        /* \"#utility.yul\":5732:5753   */\n      mstore\n        /* \"#utility.yul\":5789:5791   */\n      0x13\n        /* \"#utility.yul\":5769:5787   */\n      0x24\n      dup3\n      add\n        /* \"#utility.yul\":5762:5792   */\n      mstore\n      shl(0x68, 0x6c657373207468616e206d696e207374616b65)\n        /* \"#utility.yul\":5808:5826   */\n      0x44\n      dup3\n      add\n        /* \"#utility.yul\":5801:5850   */\n      mstore\n        /* \"#utility.yul\":5867:5885   */\n      0x64\n      add\n        /* \"contracts/Market.sol\":7194:7245  require(_stake >= a.minStake,\"less than min stake\") */\n      tag_102\n        /* \"#utility.yul\":5722:5891   */\n      jump\n        /* \"contracts/Market.sol\":7194:7245  require(_stake >= a.minStake,\"less than min stake\") */\n    tag_246:\n        /* \"contracts/Market.sol\":7276:7329  token.transferFrom(msg.sender, address(this), _stake) */\n      mload(0x40)\n      shl(0xe0, 0x23b872dd)\n      dup2\n      mstore\n        /* \"contracts/Market.sol\":7295:7305  msg.sender */\n      caller\n        /* \"contracts/Market.sol\":7276:7329  token.transferFrom(msg.sender, address(this), _stake) */\n      0x04\n      dup3\n      add\n        /* \"#utility.yul\":4115:4149   */\n      mstore\n        /* \"contracts/Market.sol\":7315:7319  this */\n      address\n        /* \"#utility.yul\":4165:4183   */\n      0x24\n      dup3\n      add\n        /* \"#utility.yul\":4158:4201   */\n      mstore\n        /* \"#utility.yul\":4217:4235   */\n      0x44\n      dup2\n      add\n        /* \"#utility.yul\":4210:4244   */\n      dup7\n      swap1\n      mstore\n        /* \"contracts/Market.sol\":7276:7281  token */\n      immutable(\"0xe7fcf89c34605f23590ff58513f1080dc375dd06cc5e256320151057827a258a\")\n      sub(shl(0xa0, 0x01), 0x01)\n        /* \"contracts/Market.sol\":7276:7294  token.transferFrom */\n      and\n      swap1\n      0x23b872dd\n      swap1\n        /* \"#utility.yul\":4050:4068   */\n      0x64\n      add\n        /* \"contracts/Market.sol\":7276:7329  token.transferFrom(msg.sender, address(this), _stake) */\n      0x20\n      mload(0x40)\n      dup1\n      dup4\n      sub\n      dup2\n      0x00\n      dup8\n      dup1\n      extcodesize\n      iszero\n      dup1\n      iszero\n      tag_251\n      jumpi\n      0x00\n      dup1\n      revert\n    tag_251:\n      pop\n      gas\n      call\n      iszero\n      dup1\n      iszero\n      tag_253\n      jumpi\n      returndatasize\n      0x00\n      dup1\n      returndatacopy\n      revert(0x00, returndatasize)\n    tag_253:\n      pop\n      pop\n      pop\n      pop\n      mload(0x40)\n      returndatasize\n      not(0x1f)\n      0x1f\n      dup3\n      add\n      and\n      dup3\n      add\n      dup1\n      0x40\n      mstore\n      pop\n      dup2\n      add\n      swap1\n      tag_254\n      swap2\n      swap1\n      tag_137\n      jump\t// in\n    tag_254:\n        /* \"contracts/Market.sol\":7255:7382  require(... */\n      tag_255\n      jumpi\n      mload(0x40)\n      shl(0xe5, 0x461bcd)\n      dup2\n      mstore\n        /* \"#utility.yul\":6444:6446   */\n      0x20\n        /* \"contracts/Market.sol\":7255:7382  require(... */\n      0x04\n      dup3\n      add\n        /* \"#utility.yul\":6426:6447   */\n      mstore\n        /* \"#utility.yul\":6483:6485   */\n      0x1b\n        /* \"#utility.yul\":6463:6481   */\n      0x24\n      dup3\n      add\n        /* \"#utility.yul\":6456:6486   */\n      mstore\n        /* \"#utility.yul\":6522:6551   */\n      0x7472616e736665722066726f6d2063616c6c6572206661696c65640000000000\n        /* \"#utility.yul\":6502:6520   */\n      0x44\n      dup3\n      add\n        /* \"#utility.yul\":6495:6552   */\n      mstore\n        /* \"#utility.yul\":6569:6587   */\n      0x64\n      add\n        /* \"contracts/Market.sol\":7255:7382  require(... */\n      tag_102\n        /* \"#utility.yul\":6416:6593   */\n      jump\n        /* \"contracts/Market.sol\":7255:7382  require(... */\n    tag_255:\n        /* \"contracts/Market.sol\":7392:7407  bytes32 betHash */\n      0x00\n        /* \"contracts/Market.sol\":7410:7575  _createBet(... */\n      tag_258\n        /* \"contracts/Market.sol\":7434:7444  msg.sender */\n      caller\n        /* \"contracts/Market.sol\":7458:7468  _affiliate */\n      dup9\n        /* \"contracts/Market.sol\":7482:7488  _stake */\n      dup9\n        /* \"contracts/Market.sol\":7392:7407  bytes32 betHash */\n      dup5\n        /* \"contracts/Market.sol\":7534:7545  _odds - 100 */\n      tag_259\n        /* \"contracts/Market.sol\":7542:7545  100 */\n      0x64\n        /* \"contracts/Market.sol\":7534:7539  _odds */\n      dup12\n        /* \"contracts/Market.sol\":7534:7545  _odds - 100 */\n      tag_170\n      jump\t// in\n    tag_259:\n        /* \"contracts/Market.sol\":7518:7529  _odds * 100 */\n      tag_260\n        /* \"contracts/Market.sol\":7518:7523  _odds */\n      dup12\n        /* \"contracts/Market.sol\":7526:7529  100 */\n      0x64\n        /* \"contracts/Market.sol\":7518:7529  _odds * 100 */\n      tag_261\n      jump\t// in\n    tag_260:\n        /* \"contracts/Market.sol\":7517:7546  (_odds * 100) / (_odds - 100) */\n      tag_262\n      swap2\n      swap1\n      tag_263\n      jump\t// in\n    tag_262:\n        /* \"contracts/Market.sol\":7560:7565  _side */\n      dup10\n        /* \"contracts/Market.sol\":7410:7420  _createBet */\n      tag_264\n        /* \"contracts/Market.sol\":7410:7575  _createBet(... */\n      jump\t// in\n    tag_258:\n        /* \"contracts/Market.sol\":7821:7825  bets */\n      0x0e\n        /* \"contracts/Market.sol\":7821:7832  bets.length */\n      sload\n        /* \"contracts/Market.sol\":7392:7575  bytes32 betHash = _createBet(... */\n      swap1\n      swap2\n      pop\n        /* \"contracts/Market.sol\":7821:7836  bets.length > 0 */\n      iszero\n        /* \"contracts/Market.sol\":7818:9330  if(bets.length > 0){... */\n      tag_265\n      jumpi\n        /* \"contracts/Market.sol\":7909:7913  bets */\n      0x0e\n        /* \"contracts/Market.sol\":7909:7920  bets.length */\n      sload\n        /* \"contracts/Market.sol\":7868:7874  _stake */\n      dup7\n      swap1\n        /* \"contracts/Market.sol\":7934:9320  while(_remStake >= a.minStake){... */\n    tag_266:\n        /* \"contracts/Market.sol\":7953:7963  a.minStake */\n      sload(0x06)\n        /* \"contracts/Market.sol\":7940:7963  _remStake >= a.minStake */\n      dup3\n      lt\n        /* \"contracts/Market.sol\":7934:9320  while(_remStake >= a.minStake){... */\n      tag_267\n      jumpi\n        /* \"contracts/Market.sol\":7982:8000  uint selectedIndex */\n      0x00\n        /* \"contracts/Market.sol\":8022:8037  uint256 maxOdds */\n      dup1\n        /* \"contracts/Market.sol\":8063:8069  uint i */\n      0x00\n        /* \"contracts/Market.sol\":8059:8658  for(uint i = 0; i < betsLength; i++){... */\n    tag_268:\n        /* \"contracts/Market.sol\":8079:8089  betsLength */\n      dup4\n        /* \"contracts/Market.sol\":8075:8076  i */\n      dup2\n        /* \"contracts/Market.sol\":8075:8089  i < betsLength */\n      lt\n        /* \"contracts/Market.sol\":8059:8658  for(uint i = 0; i < betsLength; i++){... */\n      iszero\n      tag_269\n      jumpi\n        /* \"contracts/Market.sol\":8117:8128  bytes32 bet */\n      0x00\n        /* \"contracts/Market.sol\":8131:8135  bets */\n      0x0e\n        /* \"contracts/Market.sol\":8136:8137  i */\n      dup3\n        /* \"contracts/Market.sol\":8131:8138  bets[i] */\n      dup2\n      sload\n      dup2\n      lt\n      tag_271\n      jumpi\n      mstore(0x00, shl(0xe0, 0x4e487b71))\n      mstore(0x04, 0x32)\n      revert(0x00, 0x24)\n    tag_271:\n      swap1\n      0x00\n      mstore\n      keccak256(0x00, 0x20)\n      add\n      sload\n        /* \"contracts/Market.sol\":8117:8138  bytes32 bet = bets[i] */\n      swap1\n      pop\n        /* \"contracts/Market.sol\":8172:8180  betsInfo */\n      0x10\n        /* \"contracts/Market.sol\":8172:8185  betsInfo[bet] */\n      0x00\n        /* \"contracts/Market.sol\":8181:8184  bet */\n      dup3\n        /* \"contracts/Market.sol\":8172:8185  betsInfo[bet] */\n      dup2\n      mstore\n      0x20\n      add\n      swap1\n      dup2\n      mstore\n      0x20\n      add\n      0x00\n      keccak256\n        /* \"contracts/Market.sol\":8172:8190  betsInfo[bet].side */\n      0x05\n      add\n      sload\n        /* \"contracts/Market.sol\":8163:8168  _side */\n      dup11\n        /* \"contracts/Market.sol\":8163:8190  _side == betsInfo[bet].side */\n      eq\n        /* \"contracts/Market.sol\":8160:8248  if(_side == betsInfo[bet].side){... */\n      iszero\n      tag_273\n      jumpi\n        /* \"contracts/Market.sol\":8217:8225  continue */\n      pop\n      jump(tag_270)\n        /* \"contracts/Market.sol\":8160:8248  if(_side == betsInfo[bet].side){... */\n    tag_273:\n        /* \"contracts/Market.sol\":8389:8402  betsInfo[bet] */\n      0x00\n      dup2\n      dup2\n      mstore\n        /* \"contracts/Market.sol\":8389:8397  betsInfo */\n      0x10\n        /* \"contracts/Market.sol\":8389:8402  betsInfo[bet] */\n      0x20\n      mstore\n      0x40\n      swap1\n      keccak256\n        /* \"contracts/Market.sol\":8389:8409  betsInfo[bet].better */\n      sload\n      sub(shl(0xa0, 0x01), 0x01)\n      and\n        /* \"contracts/Market.sol\":8375:8385  msg.sender */\n      caller\n        /* \"contracts/Market.sol\":8375:8409  msg.sender == betsInfo[bet].better */\n      eq\n        /* \"contracts/Market.sol\":8372:8467  if(msg.sender == betsInfo[bet].better){... */\n      iszero\n      tag_274\n      jumpi\n        /* \"contracts/Market.sol\":8436:8444  continue */\n      pop\n      jump(tag_270)\n        /* \"contracts/Market.sol\":8372:8467  if(msg.sender == betsInfo[bet].better){... */\n    tag_274:\n        /* \"contracts/Market.sol\":8491:8504  betsInfo[bet] */\n      0x00\n      dup2\n      dup2\n      mstore\n        /* \"contracts/Market.sol\":8491:8499  betsInfo */\n      0x10\n        /* \"contracts/Market.sol\":8491:8504  betsInfo[bet] */\n      0x20\n      mstore\n      0x40\n      swap1\n      keccak256\n        /* \"contracts/Market.sol\":8491:8509  betsInfo[bet].odds */\n      0x04\n      add\n      sload\n        /* \"contracts/Market.sol\":8491:8519  betsInfo[bet].odds > maxOdds */\n      dup4\n      lt\n        /* \"contracts/Market.sol\":8488:8640  if(betsInfo[bet].odds > maxOdds){... */\n      iszero\n      tag_275\n      jumpi\n        /* \"contracts/Market.sol\":8556:8569  betsInfo[bet] */\n      0x00\n      dup2\n      dup2\n      mstore\n        /* \"contracts/Market.sol\":8556:8564  betsInfo */\n      0x10\n        /* \"contracts/Market.sol\":8556:8569  betsInfo[bet] */\n      0x20\n      mstore\n      0x40\n      swap1\n      keccak256\n        /* \"contracts/Market.sol\":8556:8574  betsInfo[bet].odds */\n      0x04\n      add\n      sload\n        /* \"contracts/Market.sol\":8616:8617  i */\n      swap2\n      swap4\n      pop\n        /* \"contracts/Market.sol\":8556:8574  betsInfo[bet].odds */\n      swap1\n      swap2\n      pop\n        /* \"contracts/Market.sol\":8616:8617  i */\n      dup3\n      swap1\n        /* \"contracts/Market.sol\":8488:8640  if(betsInfo[bet].odds > maxOdds){... */\n    tag_275:\n        /* \"contracts/Market.sol\":8059:8658  for(uint i = 0; i < betsLength; i++){... */\n      pop\n    tag_270:\n        /* \"contracts/Market.sol\":8091:8094  i++ */\n      dup1\n      tag_276\n      dup2\n      tag_152\n      jump\t// in\n    tag_276:\n      swap2\n      pop\n      pop\n        /* \"contracts/Market.sol\":8059:8658  for(uint i = 0; i < betsLength; i++){... */\n      jump(tag_268)\n    tag_269:\n      pop\n        /* \"contracts/Market.sol\":8675:8695  uint256 betterAmount */\n      0x00\n        /* \"contracts/Market.sol\":8731:8736  _odds */\n      dup10\n        /* \"contracts/Market.sol\":8720:8727  maxOdds */\n      dup3\n        /* \"contracts/Market.sol\":8720:8736  maxOdds >= _odds */\n      lt\n      iszero\n        /* \"contracts/Market.sol\":8720:8765  maxOdds >= _odds || (maxOdds > 0 && _instant) */\n      dup1\n      tag_278\n      jumpi\n      pop\n        /* \"contracts/Market.sol\":8751:8752  0 */\n      0x00\n        /* \"contracts/Market.sol\":8741:8748  maxOdds */\n      dup3\n        /* \"contracts/Market.sol\":8741:8752  maxOdds > 0 */\n      gt\n        /* \"contracts/Market.sol\":8741:8764  maxOdds > 0 && _instant */\n      dup1\n      iszero\n      tag_278\n      jumpi\n      pop\n        /* \"contracts/Market.sol\":8756:8764  _instant */\n      dup8\n        /* \"contracts/Market.sol\":8741:8764  maxOdds > 0 && _instant */\n    tag_278:\n        /* \"contracts/Market.sol\":8717:9263  if(maxOdds >= _odds || (maxOdds > 0 && _instant)) {... */\n      iszero\n      tag_279\n      jumpi\n        /* \"contracts/Market.sol\":8789:8809  bytes32 selectedHash */\n      0x00\n        /* \"contracts/Market.sol\":8812:8816  bets */\n      0x0e\n        /* \"contracts/Market.sol\":8817:8830  selectedIndex */\n      dup5\n        /* \"contracts/Market.sol\":8812:8831  bets[selectedIndex] */\n      dup2\n      sload\n      dup2\n      lt\n      tag_280\n      jumpi\n      mstore(0x00, shl(0xe0, 0x4e487b71))\n      mstore(0x04, 0x32)\n      revert(0x00, 0x24)\n    tag_280:\n      0x00\n      swap2\n      dup3\n      mstore\n      0x20\n      dup1\n      dup4\n      keccak256\n      swap1\n      swap2\n      add\n      sload\n        /* \"contracts/Market.sol\":8891:8913  betsInfo[selectedHash] */\n      dup1\n      dup4\n      mstore\n        /* \"contracts/Market.sol\":8891:8899  betsInfo */\n      0x10\n        /* \"contracts/Market.sol\":8891:8913  betsInfo[selectedHash] */\n      dup3\n      mstore\n      0x40\n      dup1\n      dup5\n      keccak256\n        /* \"contracts/Market.sol\":8853:8913  Struct.MarketBet memory selectedBet = betsInfo[selectedHash] */\n      dup2\n      mload\n      0xc0\n      dup2\n      add\n      dup4\n      mstore\n      dup2\n      sload\n      sub(shl(0xa0, 0x01), 0x01)\n      swap1\n      dup2\n      and\n      dup3\n      mstore\n      0x01\n      dup4\n      add\n      sload\n      and\n      swap5\n      dup2\n      add\n      swap5\n      swap1\n      swap5\n      mstore\n      0x02\n      dup2\n      add\n      sload\n      swap2\n      dup5\n      add\n      swap2\n      swap1\n      swap2\n      mstore\n      0x03\n      dup2\n      add\n      sload\n      0x60\n      dup5\n      add\n      mstore\n      0x04\n      dup2\n      add\n      sload\n      0x80\n      dup5\n      add\n      mstore\n      0x05\n      add\n      sload\n      0xa0\n      dup4\n      add\n      mstore\n        /* \"contracts/Market.sol\":8812:8831  bets[selectedIndex] */\n      swap3\n      pop\n        /* \"contracts/Market.sol\":8853:8913  Struct.MarketBet memory selectedBet = betsInfo[selectedHash] */\n      swap1\n        /* \"contracts/Market.sol\":9000:9011  _odds - 100 */\n      tag_282\n        /* \"contracts/Market.sol\":9008:9011  100 */\n      0x64\n        /* \"contracts/Market.sol\":9000:9005  _odds */\n      dup15\n        /* \"contracts/Market.sol\":9000:9011  _odds - 100 */\n      tag_170\n      jump\t// in\n    tag_282:\n        /* \"contracts/Market.sol\":8976:8987  selectedBet */\n      dup3\n        /* \"contracts/Market.sol\":8976:8995  selectedBet.matched */\n      0x60\n      add\n      mload\n        /* \"contracts/Market.sol\":8956:8967  selectedBet */\n      dup4\n        /* \"contracts/Market.sol\":8956:8973  selectedBet.stake */\n      0x40\n      add\n      mload\n        /* \"contracts/Market.sol\":8956:8995  selectedBet.stake - selectedBet.matched */\n      tag_283\n      swap2\n      swap1\n      tag_170\n      jump\t// in\n    tag_283:\n        /* \"contracts/Market.sol\":8955:9012  (selectedBet.stake - selectedBet.matched) / (_odds - 100) */\n      tag_284\n      swap2\n      swap1\n      tag_263\n      jump\t// in\n    tag_284:\n        /* \"contracts/Market.sol\":8935:9012  uint offeredStake = (selectedBet.stake - selectedBet.matched) / (_odds - 100) */\n      swap1\n      pop\n        /* \"contracts/Market.sol\":9034:9053  offeredStake *= 100 */\n      tag_285\n        /* \"contracts/Market.sol\":9050:9053  100 */\n      0x64\n        /* \"contracts/Market.sol\":8935:9012  uint offeredStake = (selectedBet.stake - selectedBet.matched) / (_odds - 100) */\n      dup3\n        /* \"contracts/Market.sol\":9034:9053  offeredStake *= 100 */\n      tag_261\n      jump\t// in\n    tag_285:\n      swap1\n      pop\n        /* \"contracts/Market.sol\":9111:9176  _match(_stake, offeredStake, _odds, _side, betHash, selectedHash) */\n      tag_286\n        /* \"contracts/Market.sol\":9118:9124  _stake */\n      dup15\n        /* \"contracts/Market.sol\":9126:9138  offeredStake */\n      dup3\n        /* \"contracts/Market.sol\":9140:9145  _odds */\n      dup16\n        /* \"contracts/Market.sol\":9147:9152  _side */\n      dup16\n        /* \"contracts/Market.sol\":9154:9161  betHash */\n      dup14\n        /* \"contracts/Market.sol\":9163:9175  selectedHash */\n      dup9\n        /* \"contracts/Market.sol\":9111:9117  _match */\n      tag_287\n        /* \"contracts/Market.sol\":9111:9176  _match(_stake, offeredStake, _odds, _side, betHash, selectedHash) */\n      jump\t// in\n    tag_286:\n        /* \"contracts/Market.sol\":9096:9176  betterAmount = _match(_stake, offeredStake, _odds, _side, betHash, selectedHash) */\n      swap4\n      pop\n        /* \"contracts/Market.sol\":8717:9263  if(maxOdds >= _odds || (maxOdds > 0 && _instant)) {... */\n      pop\n      pop\n      pop\n      jump(tag_288)\n    tag_279:\n        /* \"contracts/Market.sol\":9239:9244  break */\n      pop\n      pop\n      pop\n      jump(tag_267)\n        /* \"contracts/Market.sol\":8717:9263  if(maxOdds >= _odds || (maxOdds > 0 && _instant)) {... */\n    tag_288:\n        /* \"contracts/Market.sol\":9280:9305  _remStake -= betterAmount */\n      tag_289\n        /* \"contracts/Market.sol\":9293:9305  betterAmount */\n      dup2\n        /* \"contracts/Market.sol\":9280:9305  _remStake -= betterAmount */\n      dup7\n      tag_170\n      jump\t// in\n    tag_289:\n      swap5\n      pop\n        /* \"contracts/Market.sol\":7934:9320  while(_remStake >= a.minStake){... */\n      pop\n      pop\n      pop\n      jump(tag_266)\n    tag_267:\n        /* \"contracts/Market.sol\":7818:9330  if(bets.length > 0){... */\n      pop\n      pop\n    tag_265:\n        /* \"contracts/Market.sol\":9344:9412  BetCreated(msg.sender, address(this), betHash, _stake, _odds, _side) */\n      0x40\n      dup1\n      mload\n        /* \"contracts/Market.sol\":9355:9365  msg.sender */\n      caller\n        /* \"#utility.yul\":3604:3638   */\n      dup2\n      mstore\n        /* \"contracts/Market.sol\":9375:9379  this */\n      address\n        /* \"#utility.yul\":3669:3671   */\n      0x20\n        /* \"#utility.yul\":3654:3672   */\n      dup3\n      add\n        /* \"#utility.yul\":3647:3690   */\n      mstore\n        /* \"#utility.yul\":3706:3724   */\n      swap1\n      dup2\n      add\n        /* \"#utility.yul\":3699:3733   */\n      dup3\n      swap1\n      mstore\n        /* \"#utility.yul\":3764:3766   */\n      0x60\n        /* \"#utility.yul\":3749:3767   */\n      dup2\n      add\n        /* \"#utility.yul\":3742:3776   */\n      dup8\n      swap1\n      mstore\n        /* \"#utility.yul\":3807:3810   */\n      0x80\n        /* \"#utility.yul\":3792:3811   */\n      dup2\n      add\n        /* \"#utility.yul\":3785:3820   */\n      dup7\n      swap1\n      mstore\n        /* \"#utility.yul\":3584:3587   */\n      0xa0\n        /* \"#utility.yul\":3836:3855   */\n      dup2\n      add\n        /* \"#utility.yul\":3829:3864   */\n      dup6\n      swap1\n      mstore\n        /* \"contracts/Market.sol\":9344:9412  BetCreated(msg.sender, address(this), betHash, _stake, _odds, _side) */\n      0x618f358bb45538682ade624a4a1959053d9dabd20fe300508034b879681b37be\n      swap1\n        /* \"#utility.yul\":3553:3556   */\n      0xc0\n        /* \"#utility.yul\":3538:3557   */\n      add\n        /* \"contracts/Market.sol\":9344:9412  BetCreated(msg.sender, address(this), betHash, _stake, _odds, _side) */\n      mload(0x40)\n      dup1\n      swap2\n      sub\n      swap1\n      log1\n        /* \"contracts/Market.sol\":9429:9436  betHash */\n      swap7\n        /* \"contracts/Market.sol\":6688:9443  function addBet(... */\n      swap6\n      pop\n      pop\n      pop\n      pop\n      pop\n      pop\n      jump\t// out\n        /* \"contracts/Market.sol\":4939:5371  function setWinningSide(uint256 _winningSide)... */\n    tag_88:\n        /* \"contracts/Market.sol\":1103:1115  a.eventOwner */\n      sload(0x03)\n        /* \"contracts/Market.sol\":5053:5057  bool */\n      0x00\n      swap1\n      sub(shl(0xa0, 0x01), 0x01)\n        /* \"contracts/Market.sol\":1103:1115  a.eventOwner */\n      and\n        /* \"contracts/Market.sol\":1089:1099  msg.sender */\n      caller\n        /* \"contracts/Market.sol\":1089:1115  msg.sender == a.eventOwner */\n      eq\n      dup1\n        /* \"contracts/Market.sol\":1089:1142  msg.sender == a.eventOwner || msg.sender == a.factory */\n      tag_293\n      jumpi\n      pop\n        /* \"contracts/Market.sol\":1133:1142  a.factory */\n      and(sub(shl(0xa0, 0x01), 0x01), sload(0x02))\n        /* \"contracts/Market.sol\":1119:1129  msg.sender */\n      caller\n        /* \"contracts/Market.sol\":1119:1142  msg.sender == a.factory */\n      eq\n        /* \"contracts/Market.sol\":1089:1142  msg.sender == a.eventOwner || msg.sender == a.factory */\n    tag_293:\n        /* \"contracts/Market.sol\":1068:1170  require(... */\n      tag_294\n      jumpi\n      mload(0x40)\n      shl(0xe5, 0x461bcd)\n      dup2\n      mstore\n      0x04\n      add\n      tag_102\n      swap1\n      tag_159\n      jump\t// in\n    tag_294:\n        /* \"contracts/Market.sol\":5090:5096  status */\n      sload(0x0c)\n        /* \"contracts/Market.sol\":5090:5101  status == 0 */\n      iszero\n      dup1\n        /* \"contracts/Market.sol\":5090:5116  status == 0 || status == 1 */\n      tag_297\n      jumpi\n      pop\n        /* \"contracts/Market.sol\":5105:5111  status */\n      sload(0x0c)\n        /* \"contracts/Market.sol\":5115:5116  1 */\n      0x01\n        /* \"contracts/Market.sol\":5105:5116  status == 1 */\n      eq\n        /* \"contracts/Market.sol\":5090:5116  status == 0 || status == 1 */\n    tag_297:\n        /* \"contracts/Market.sol\":5090:5131  status == 0 || status == 1 || status == 2 */\n      dup1\n      tag_298\n      jumpi\n      pop\n        /* \"contracts/Market.sol\":5120:5126  status */\n      sload(0x0c)\n        /* \"contracts/Market.sol\":5130:5131  2 */\n      0x02\n        /* \"contracts/Market.sol\":5120:5131  status == 2 */\n      eq\n        /* \"contracts/Market.sol\":5090:5131  status == 0 || status == 1 || status == 2 */\n    tag_298:\n        /* \"contracts/Market.sol\":5090:5146  status == 0 || status == 1 || status == 2 || status == 4 */\n      dup1\n      tag_299\n      jumpi\n      pop\n        /* \"contracts/Market.sol\":5135:5141  status */\n      sload(0x0c)\n        /* \"contracts/Market.sol\":5145:5146  4 */\n      0x04\n        /* \"contracts/Market.sol\":5135:5146  status == 4 */\n      eq\n        /* \"contracts/Market.sol\":5090:5146  status == 0 || status == 1 || status == 2 || status == 4 */\n    tag_299:\n        /* \"contracts/Market.sol\":5089:5215  (status == 0 || status == 1 || status == 2 || status == 4)... */\n      dup1\n      iszero\n      tag_301\n      jumpi\n      pop\n        /* \"contracts/Market.sol\":5176:5188  _winningSide */\n      dup2\n        /* \"contracts/Market.sol\":5192:5193  1 */\n      0x01\n        /* \"contracts/Market.sol\":5176:5193  _winningSide == 1 */\n      eq\n        /* \"contracts/Market.sol\":5176:5214  _winningSide == 1 || _winningSide == 2 */\n      dup1\n      tag_301\n      jumpi\n      pop\n        /* \"contracts/Market.sol\":5197:5209  _winningSide */\n      dup2\n        /* \"contracts/Market.sol\":5213:5214  2 */\n      0x02\n        /* \"contracts/Market.sol\":5197:5214  _winningSide == 2 */\n      eq\n        /* \"contracts/Market.sol\":5176:5214  _winningSide == 1 || _winningSide == 2 */\n    tag_301:\n        /* \"contracts/Market.sol\":5073:5356  if(... */\n      iszero\n      tag_181\n      jumpi\n      pop\n        /* \"contracts/Market.sol\":5248:5254  status */\n      0x0c\n        /* \"contracts/Market.sol\":5248:5269  status = _winningSide */\n      sstore\n        /* \"contracts/Market.sol\":5290:5294  true */\n      0x01\n      swap1\n        /* \"contracts/Market.sol\":5438:5849  function settle(uint256 _winningSide)... */\n      jump\t// out\n        /* \"contracts/Market.sol\":5855:6080  function cancel() external override onlyFactory returns(bool) ... */\n    tag_91:\n        /* \"contracts/Market.sol\":1103:1115  a.eventOwner */\n      sload(0x03)\n        /* \"contracts/Market.sol\":5911:5915  bool */\n      0x00\n      swap1\n      sub(shl(0xa0, 0x01), 0x01)\n        /* \"contracts/Market.sol\":1103:1115  a.eventOwner */\n      and\n        /* \"contracts/Market.sol\":1089:1099  msg.sender */\n      caller\n        /* \"contracts/Market.sol\":1089:1115  msg.sender == a.eventOwner */\n      eq\n      dup1\n        /* \"contracts/Market.sol\":1089:1142  msg.sender == a.eventOwner || msg.sender == a.factory */\n      tag_305\n      jumpi\n      pop\n        /* \"contracts/Market.sol\":1133:1142  a.factory */\n      and(sub(shl(0xa0, 0x01), 0x01), sload(0x02))\n        /* \"contracts/Market.sol\":1119:1129  msg.sender */\n      caller\n        /* \"contracts/Market.sol\":1119:1142  msg.sender == a.factory */\n      eq\n        /* \"contracts/Market.sol\":1089:1142  msg.sender == a.eventOwner || msg.sender == a.factory */\n    tag_305:\n        /* \"contracts/Market.sol\":1068:1170  require(... */\n      tag_306\n      jumpi\n      mload(0x40)\n      shl(0xe5, 0x461bcd)\n      dup2\n      mstore\n      0x04\n      add\n      tag_102\n      swap1\n      tag_159\n      jump\t// in\n    tag_306:\n        /* \"contracts/Market.sol\":5936:5942  status */\n      sload(0x0c)\n        /* \"contracts/Market.sol\":5936:5947  status == 0 */\n      iszero\n      dup1\n        /* \"contracts/Market.sol\":5936:5962  status == 0 || status == 4 */\n      tag_309\n      jumpi\n      pop\n        /* \"contracts/Market.sol\":5951:5957  status */\n      sload(0x0c)\n        /* \"contracts/Market.sol\":5961:5962  4 */\n      0x04\n        /* \"contracts/Market.sol\":5951:5962  status == 4 */\n      eq\n        /* \"contracts/Market.sol\":5936:5962  status == 0 || status == 4 */\n    tag_309:\n        /* \"contracts/Market.sol\":5933:6074  if(status == 0 || status == 4){... */\n      iszero\n      tag_161\n      jumpi\n      pop\n        /* \"contracts/Market.sol\":5986:5987  3 */\n      0x03\n        /* \"contracts/Market.sol\":5977:5983  status */\n      0x0c\n        /* \"contracts/Market.sol\":5977:5987  status = 3 */\n      sstore\n        /* \"contracts/Market.sol\":6008:6012  true */\n      0x01\n        /* \"contracts/Market.sol\":6475:6682  function stopNewBet() external override onlyFactory returns(bool){... */\n      swap1\n      jump\t// out\n        /* \"contracts/Market.sol\":10840:12292  function _cancelBetPairs(bytes32 _bet) private returns(bool) {... */\n    tag_107:\n        /* \"contracts/Market.sol\":10895:10899  bool */\n      0x00\n        /* \"contracts/Market.sol\":10941:10955  betsInfo[_bet] */\n      dup2\n      dup2\n      mstore\n        /* \"contracts/Market.sol\":10941:10949  betsInfo */\n      0x10\n        /* \"contracts/Market.sol\":10941:10955  betsInfo[_bet] */\n      0x20\n      swap1\n      dup2\n      mstore\n      0x40\n      dup1\n      dup4\n      keccak256\n        /* \"contracts/Market.sol\":10911:10955  Struct.MarketBet memory bet = betsInfo[_bet] */\n      dup2\n      mload\n      0xc0\n      dup2\n      add\n      dup4\n      mstore\n      dup2\n      sload\n      sub(shl(0xa0, 0x01), 0x01)\n      swap1\n      dup2\n      and\n      dup3\n      mstore\n      0x01\n      dup4\n      add\n      sload\n      and\n      dup2\n      dup6\n      add\n      mstore\n      0x02\n      dup3\n      add\n      sload\n      dup2\n      dup5\n      add\n      mstore\n      0x03\n      dup3\n      add\n      sload\n      0x60\n      dup3\n      add\n      mstore\n      0x04\n      dup3\n      add\n      sload\n      0x80\n      dup3\n      add\n      mstore\n      0x05\n      swap1\n      swap2\n      add\n      sload\n      0xa0\n      dup3\n      add\n      mstore\n        /* \"contracts/Market.sol\":10991:11005  betPairs[_bet] */\n      dup5\n      dup5\n      mstore\n        /* \"contracts/Market.sol\":10991:10999  betPairs */\n      0x12\n        /* \"contracts/Market.sol\":10991:11005  betPairs[_bet] */\n      dup4\n      mstore\n      dup2\n      dup5\n      keccak256\n        /* \"contracts/Market.sol\":10965:11005  bytes32[] memory _pairs = betPairs[_bet] */\n      dup1\n      sload\n      dup4\n      mload\n      dup2\n      dup7\n      mul\n      dup2\n      add\n      dup7\n      add\n      swap1\n      swap5\n      mstore\n      dup1\n      dup5\n      mstore\n        /* \"contracts/Market.sol\":10911:10955  Struct.MarketBet memory bet = betsInfo[_bet] */\n      swap2\n      swap4\n        /* \"contracts/Market.sol\":10895:10899  bool */\n      dup6\n      swap4\n        /* \"contracts/Market.sol\":10965:11005  bytes32[] memory _pairs = betPairs[_bet] */\n      swap3\n      swap1\n      dup4\n      add\n        /* \"contracts/Market.sol\":10991:11005  betPairs[_bet] */\n      dup3\n        /* \"contracts/Market.sol\":10965:11005  bytes32[] memory _pairs = betPairs[_bet] */\n      dup3\n      dup1\n      iszero\n      tag_314\n      jumpi\n      0x20\n      mul\n      dup3\n      add\n      swap2\n      swap1\n      0x00\n      mstore\n      keccak256(0x00, 0x20)\n      swap1\n    tag_315:\n      dup2\n      sload\n      dup2\n      mstore\n      0x20\n      add\n      swap1\n      0x01\n      add\n      swap1\n      dup1\n      dup4\n      gt\n      tag_315\n      jumpi\n    tag_314:\n      pop\n      pop\n        /* \"contracts/Market.sol\":11034:11047  _pairs.length */\n      dup4\n      mload\n        /* \"contracts/Market.sol\":10965:11005  bytes32[] memory _pairs = betPairs[_bet] */\n      swap4\n      swap5\n      pop\n        /* \"contracts/Market.sol\":11015:11031  uint pairsLength */\n      0x00\n      swap3\n      pop\n      pop\n      pop\n        /* \"contracts/Market.sol\":11057:12265  for(uint i = 0; i < pairsLength; i++){... */\n    tag_316:\n        /* \"contracts/Market.sol\":11077:11088  pairsLength */\n      dup2\n        /* \"contracts/Market.sol\":11073:11074  i */\n      dup2\n        /* \"contracts/Market.sol\":11073:11088  i < pairsLength */\n      lt\n        /* \"contracts/Market.sol\":11057:12265  for(uint i = 0; i < pairsLength; i++){... */\n      iszero\n      tag_317\n      jumpi\n        /* \"contracts/Market.sol\":11111:11120  pairsInfo */\n      0x13\n        /* \"contracts/Market.sol\":11111:11131  pairsInfo[_pairs[i]] */\n      0x00\n        /* \"contracts/Market.sol\":11121:11127  _pairs */\n      dup5\n        /* \"contracts/Market.sol\":11128:11129  i */\n      dup4\n        /* \"contracts/Market.sol\":11121:11130  _pairs[i] */\n      dup2\n      mload\n      dup2\n      lt\n      tag_319\n      jumpi\n      mstore(0x00, shl(0xe0, 0x4e487b71))\n      mstore(0x04, 0x32)\n      revert(0x00, 0x24)\n    tag_319:\n      0x20\n      swap1\n      dup2\n      mul\n      swap2\n      swap1\n      swap2\n      add\n      dup2\n      add\n      mload\n        /* \"contracts/Market.sol\":11111:11131  pairsInfo[_pairs[i]] */\n      dup3\n      mstore\n      dup2\n      add\n      swap2\n      swap1\n      swap2\n      mstore\n      0x40\n      add\n      0x00\n      keccak256\n        /* \"contracts/Market.sol\":11111:11139  pairsInfo[_pairs[i]].settled */\n      0x04\n      add\n      sload\n      0xff\n      and\n        /* \"contracts/Market.sol\":11108:11181  if(pairsInfo[_pairs[i]].settled){... */\n      iszero\n      tag_320\n      jumpi\n        /* \"contracts/Market.sol\":11158:11166  continue */\n      jump(tag_318)\n        /* \"contracts/Market.sol\":11108:11181  if(pairsInfo[_pairs[i]].settled){... */\n    tag_320:\n        /* \"contracts/Market.sol\":11194:11216  bytes32 counterBetHash */\n      0x00\n        /* \"contracts/Market.sol\":11230:11251  uint256 counterAmount */\n      dup1\n        /* \"contracts/Market.sol\":11265:11283  uint256 thisAmount */\n      0x00\n        /* \"contracts/Market.sol\":11297:11318  address counterBetter */\n      dup1\n        /* \"contracts/Market.sol\":11335:11338  bet */\n      dup8\n        /* \"contracts/Market.sol\":11335:11343  bet.side */\n      0xa0\n      add\n      mload\n        /* \"contracts/Market.sol\":11347:11348  1 */\n      0x01\n        /* \"contracts/Market.sol\":11335:11348  bet.side == 1 */\n      eq\n        /* \"contracts/Market.sol\":11332:11786  if(bet.side == 1) {... */\n      iszero\n      tag_321\n      jumpi\n        /* \"contracts/Market.sol\":11381:11390  pairsInfo */\n      0x13\n        /* \"contracts/Market.sol\":11381:11401  pairsInfo[_pairs[i]] */\n      0x00\n        /* \"contracts/Market.sol\":11391:11397  _pairs */\n      dup9\n        /* \"contracts/Market.sol\":11398:11399  i */\n      dup8\n        /* \"contracts/Market.sol\":11391:11400  _pairs[i] */\n      dup2\n      mload\n      dup2\n      lt\n      tag_322\n      jumpi\n      mstore(0x00, shl(0xe0, 0x4e487b71))\n      mstore(0x04, 0x32)\n      revert(0x00, 0x24)\n    tag_322:\n      0x20\n      mul\n      0x20\n      add\n      add\n      mload\n        /* \"contracts/Market.sol\":11381:11401  pairsInfo[_pairs[i]] */\n      dup2\n      mstore\n      0x20\n      add\n      swap1\n      dup2\n      mstore\n      0x20\n      add\n      0x00\n      keccak256\n        /* \"contracts/Market.sol\":11381:11409  pairsInfo[_pairs[i]].amountA */\n      0x02\n      add\n      sload\n        /* \"contracts/Market.sol\":11368:11409  thisAmount = pairsInfo[_pairs[i]].amountA */\n      swap2\n      pop\n        /* \"contracts/Market.sol\":11444:11453  pairsInfo */\n      0x13\n        /* \"contracts/Market.sol\":11444:11464  pairsInfo[_pairs[i]] */\n      0x00\n        /* \"contracts/Market.sol\":11454:11460  _pairs */\n      dup9\n        /* \"contracts/Market.sol\":11461:11462  i */\n      dup8\n        /* \"contracts/Market.sol\":11454:11463  _pairs[i] */\n      dup2\n      mload\n      dup2\n      lt\n      tag_323\n      jumpi\n      mstore(0x00, shl(0xe0, 0x4e487b71))\n      mstore(0x04, 0x32)\n      revert(0x00, 0x24)\n    tag_323:\n      0x20\n      mul\n      0x20\n      add\n      add\n      mload\n        /* \"contracts/Market.sol\":11444:11464  pairsInfo[_pairs[i]] */\n      dup2\n      mstore\n      0x20\n      add\n      swap1\n      dup2\n      mstore\n      0x20\n      add\n      0x00\n      keccak256\n        /* \"contracts/Market.sol\":11444:11473  pairsInfo[_pairs[i]].betHashB */\n      0x01\n      add\n      sload\n        /* \"contracts/Market.sol\":11427:11473  counterBetHash = pairsInfo[_pairs[i]].betHashB */\n      swap4\n      pop\n        /* \"contracts/Market.sol\":11507:11516  pairsInfo */\n      0x13\n        /* \"contracts/Market.sol\":11507:11527  pairsInfo[_pairs[i]] */\n      0x00\n        /* \"contracts/Market.sol\":11517:11523  _pairs */\n      dup9\n        /* \"contracts/Market.sol\":11524:11525  i */\n      dup8\n        /* \"contracts/Market.sol\":11517:11526  _pairs[i] */\n      dup2\n      mload\n      dup2\n      lt\n      tag_324\n      jumpi\n      mstore(0x00, shl(0xe0, 0x4e487b71))\n      mstore(0x04, 0x32)\n      revert(0x00, 0x24)\n    tag_324:\n      0x20\n      mul\n      0x20\n      add\n      add\n      mload\n        /* \"contracts/Market.sol\":11507:11527  pairsInfo[_pairs[i]] */\n      dup2\n      mstore\n      0x20\n      add\n      swap1\n      dup2\n      mstore\n      0x20\n      add\n      0x00\n      keccak256\n        /* \"contracts/Market.sol\":11507:11535  pairsInfo[_pairs[i]].amountB */\n      0x03\n      add\n      sload\n        /* \"contracts/Market.sol\":11491:11535  counterAmount = pairsInfo[_pairs[i]].amountB */\n      swap3\n      pop\n        /* \"contracts/Market.sol\":11332:11786  if(bet.side == 1) {... */\n      jump(tag_326)\n    tag_321:\n        /* \"contracts/Market.sol\":11571:11574  bet */\n      dup8\n        /* \"contracts/Market.sol\":11571:11579  bet.side */\n      0xa0\n      add\n      mload\n        /* \"contracts/Market.sol\":11583:11584  2 */\n      0x02\n        /* \"contracts/Market.sol\":11571:11584  bet.side == 2 */\n      eq\n        /* \"contracts/Market.sol\":11568:11786  if(bet.side == 2) {... */\n      iszero\n      tag_326\n      jumpi\n        /* \"contracts/Market.sol\":11617:11626  pairsInfo */\n      0x13\n        /* \"contracts/Market.sol\":11617:11637  pairsInfo[_pairs[i]] */\n      0x00\n        /* \"contracts/Market.sol\":11627:11633  _pairs */\n      dup9\n        /* \"contracts/Market.sol\":11634:11635  i */\n      dup8\n        /* \"contracts/Market.sol\":11627:11636  _pairs[i] */\n      dup2\n      mload\n      dup2\n      lt\n      tag_327\n      jumpi\n      mstore(0x00, shl(0xe0, 0x4e487b71))\n      mstore(0x04, 0x32)\n      revert(0x00, 0x24)\n    tag_327:\n      0x20\n      mul\n      0x20\n      add\n      add\n      mload\n        /* \"contracts/Market.sol\":11617:11637  pairsInfo[_pairs[i]] */\n      dup2\n      mstore\n      0x20\n      add\n      swap1\n      dup2\n      mstore\n      0x20\n      add\n      0x00\n      keccak256\n        /* \"contracts/Market.sol\":11617:11645  pairsInfo[_pairs[i]].amountB */\n      0x03\n      add\n      sload\n        /* \"contracts/Market.sol\":11604:11645  thisAmount = pairsInfo[_pairs[i]].amountB */\n      swap2\n      pop\n        /* \"contracts/Market.sol\":11680:11689  pairsInfo */\n      0x13\n        /* \"contracts/Market.sol\":11680:11700  pairsInfo[_pairs[i]] */\n      0x00\n        /* \"contracts/Market.sol\":11690:11696  _pairs */\n      dup9\n        /* \"contracts/Market.sol\":11697:11698  i */\n      dup8\n        /* \"contracts/Market.sol\":11690:11699  _pairs[i] */\n      dup2\n      mload\n      dup2\n      lt\n      tag_328\n      jumpi\n      mstore(0x00, shl(0xe0, 0x4e487b71))\n      mstore(0x04, 0x32)\n      revert(0x00, 0x24)\n    tag_328:\n      0x20\n      mul\n      0x20\n      add\n      add\n      mload\n        /* \"contracts/Market.sol\":11680:11700  pairsInfo[_pairs[i]] */\n      dup2\n      mstore\n      0x20\n      add\n      swap1\n      dup2\n      mstore\n      0x20\n      add\n      0x00\n      keccak256\n        /* \"contracts/Market.sol\":11680:11709  pairsInfo[_pairs[i]].betHashA */\n      0x00\n      add\n      sload\n        /* \"contracts/Market.sol\":11663:11709  counterBetHash = pairsInfo[_pairs[i]].betHashA */\n      swap4\n      pop\n        /* \"contracts/Market.sol\":11743:11752  pairsInfo */\n      0x13\n        /* \"contracts/Market.sol\":11743:11763  pairsInfo[_pairs[i]] */\n      0x00\n        /* \"contracts/Market.sol\":11753:11759  _pairs */\n      dup9\n        /* \"contracts/Market.sol\":11760:11761  i */\n      dup8\n        /* \"contracts/Market.sol\":11753:11762  _pairs[i] */\n      dup2\n      mload\n      dup2\n      lt\n      tag_329\n      jumpi\n      mstore(0x00, shl(0xe0, 0x4e487b71))\n      mstore(0x04, 0x32)\n      revert(0x00, 0x24)\n    tag_329:\n      0x20\n      mul\n      0x20\n      add\n      add\n      mload\n        /* \"contracts/Market.sol\":11743:11763  pairsInfo[_pairs[i]] */\n      dup2\n      mstore\n      0x20\n      add\n      swap1\n      dup2\n      mstore\n      0x20\n      add\n      0x00\n      keccak256\n        /* \"contracts/Market.sol\":11743:11771  pairsInfo[_pairs[i]].amountA */\n      0x02\n      add\n      sload\n        /* \"contracts/Market.sol\":11727:11771  counterAmount = pairsInfo[_pairs[i]].amountA */\n      swap3\n      pop\n        /* \"contracts/Market.sol\":11568:11786  if(bet.side == 2) {... */\n    tag_326:\n      pop\n        /* \"contracts/Market.sol\":11815:11839  betsInfo[counterBetHash] */\n      0x00\n      dup4\n      dup2\n      mstore\n        /* \"contracts/Market.sol\":11815:11823  betsInfo */\n      0x10\n        /* \"contracts/Market.sol\":11815:11839  betsInfo[counterBetHash] */\n      0x20\n      mstore\n      0x40\n      swap1\n      keccak256\n        /* \"contracts/Market.sol\":11815:11846  betsInfo[counterBetHash].better */\n      sload\n        /* \"contracts/Market.sol\":11899:11904  a.vig */\n      sload(0x07)\n      sub(shl(0xa0, 0x01), 0x01)\n        /* \"contracts/Market.sol\":11815:11846  betsInfo[counterBetHash].better */\n      swap1\n      swap2\n      and\n      swap1\n        /* \"contracts/Market.sol\":11908:11911  100 */\n      0x64\n      swap1\n        /* \"contracts/Market.sol\":11893:11904  100 - a.vig */\n      tag_330\n      swap1\n        /* \"contracts/Market.sol\":11908:11911  100 */\n      dup3\n        /* \"contracts/Market.sol\":11893:11904  100 - a.vig */\n      tag_170\n      jump\t// in\n    tag_330:\n        /* \"contracts/Market.sol\":11879:11905  thisAmount * (100 - a.vig) */\n      tag_331\n      swap1\n        /* \"contracts/Market.sol\":11879:11889  thisAmount */\n      dup5\n        /* \"contracts/Market.sol\":11879:11905  thisAmount * (100 - a.vig) */\n      tag_261\n      jump\t// in\n    tag_331:\n        /* \"contracts/Market.sol\":11879:11911  thisAmount * (100 - a.vig) / 100 */\n      tag_332\n      swap2\n      swap1\n      tag_263\n      jump\t// in\n    tag_332:\n        /* \"contracts/Market.sol\":11864:11874  bet.better */\n      dup9\n      mload\n      sub(shl(0xa0, 0x01), 0x01)\n        /* \"contracts/Market.sol\":11860:11875  bal[bet.better] */\n      and\n      0x00\n      swap1\n      dup2\n      mstore\n        /* \"contracts/Market.sol\":11860:11863  bal */\n      0x0d\n        /* \"contracts/Market.sol\":11860:11875  bal[bet.better] */\n      0x20\n      mstore\n      0x40\n      dup2\n      keccak256\n        /* \"contracts/Market.sol\":11860:11911  bal[bet.better] += thisAmount * (100 - a.vig) / 100 */\n      dup1\n      sload\n        /* \"contracts/Market.sol\":11860:11875  bal[bet.better] */\n      swap1\n      swap2\n      swap1\n        /* \"contracts/Market.sol\":11860:11911  bal[bet.better] += thisAmount * (100 - a.vig) / 100 */\n      tag_333\n      swap1\n      dup5\n      swap1\n      tag_172\n      jump\t// in\n    tag_333:\n      swap1\n      swap2\n      sstore\n      pop\n      pop\n        /* \"contracts/Market.sol\":11925:11949  betsInfo[counterBetHash] */\n      0x00\n      dup5\n      dup2\n      mstore\n        /* \"contracts/Market.sol\":11925:11933  betsInfo */\n      0x10\n        /* \"contracts/Market.sol\":11925:11949  betsInfo[counterBetHash] */\n      0x20\n      mstore\n      0x40\n      dup2\n      keccak256\n        /* \"contracts/Market.sol\":11925:11957  betsInfo[counterBetHash].matched */\n      0x03\n      add\n        /* \"contracts/Market.sol\":11925:11974  betsInfo[counterBetHash].matched -= counterAmount */\n      dup1\n      sload\n        /* \"contracts/Market.sol\":11961:11974  counterAmount */\n      dup6\n      swap3\n        /* \"contracts/Market.sol\":11925:11949  betsInfo[counterBetHash] */\n      swap1\n        /* \"contracts/Market.sol\":11925:11974  betsInfo[counterBetHash].matched -= counterAmount */\n      tag_334\n      swap1\n        /* \"contracts/Market.sol\":11961:11974  counterAmount */\n      dup5\n      swap1\n        /* \"contracts/Market.sol\":11925:11974  betsInfo[counterBetHash].matched -= counterAmount */\n      tag_170\n      jump\t// in\n    tag_334:\n      swap1\n      swap2\n      sstore\n      pop\n      pop\n        /* \"contracts/Market.sol\":12021:12026  a.vig */\n      sload(0x07)\n        /* \"contracts/Market.sol\":11988:12005  uint256 vigAmount */\n      0x00\n      swap1\n        /* \"contracts/Market.sol\":12029:12032  100 */\n      0x64\n      swap1\n        /* \"contracts/Market.sol\":12008:12026  thisAmount * a.vig */\n      tag_335\n      swap1\n        /* \"contracts/Market.sol\":12008:12018  thisAmount */\n      dup6\n        /* \"contracts/Market.sol\":12008:12026  thisAmount * a.vig */\n      tag_261\n      jump\t// in\n    tag_335:\n        /* \"contracts/Market.sol\":12008:12032  thisAmount * a.vig / 100 */\n      tag_336\n      swap2\n      swap1\n      tag_263\n      jump\t// in\n    tag_336:\n        /* \"contracts/Market.sol\":12077:12083  a.hVig */\n      sload(0x0a)\n        /* \"contracts/Market.sol\":11988:12032  uint256 vigAmount = thisAmount * a.vig / 100 */\n      swap1\n      swap2\n      pop\n        /* \"contracts/Market.sol\":12086:12089  100 */\n      0x64\n      swap1\n        /* \"contracts/Market.sol\":12065:12083  vigAmount * a.hVig */\n      tag_337\n      swap1\n        /* \"contracts/Market.sol\":11988:12032  uint256 vigAmount = thisAmount * a.vig / 100 */\n      dup4\n        /* \"contracts/Market.sol\":12065:12083  vigAmount * a.hVig */\n      tag_261\n      jump\t// in\n    tag_337:\n        /* \"contracts/Market.sol\":12065:12089  vigAmount * a.hVig / 100 */\n      tag_338\n      swap2\n      swap1\n      tag_263\n      jump\t// in\n    tag_338:\n        /* \"contracts/Market.sol\":12050:12060  a.holdAddr */\n      and(sub(shl(0xa0, 0x01), 0x01), sload(0x04))\n        /* \"contracts/Market.sol\":12046:12061  bal[a.holdAddr] */\n      0x00\n      swap1\n      dup2\n      mstore\n        /* \"contracts/Market.sol\":12046:12049  bal */\n      0x0d\n        /* \"contracts/Market.sol\":12046:12061  bal[a.holdAddr] */\n      0x20\n      mstore\n      0x40\n      dup2\n      keccak256\n        /* \"contracts/Market.sol\":12046:12089  bal[a.holdAddr] += vigAmount * a.hVig / 100 */\n      dup1\n      sload\n        /* \"contracts/Market.sol\":12046:12061  bal[a.holdAddr] */\n      swap1\n      swap2\n      swap1\n        /* \"contracts/Market.sol\":12046:12089  bal[a.holdAddr] += vigAmount * a.hVig / 100 */\n      tag_339\n      swap1\n      dup5\n      swap1\n      tag_172\n      jump\t// in\n    tag_339:\n      swap1\n      swap2\n      sstore\n      pop\n      pop\n        /* \"contracts/Market.sol\":12133:12139  a.eVig */\n      sload(0x09)\n        /* \"contracts/Market.sol\":12142:12145  100 */\n      0x64\n      swap1\n        /* \"contracts/Market.sol\":12121:12139  vigAmount * a.eVig */\n      tag_340\n      swap1\n        /* \"contracts/Market.sol\":12121:12130  vigAmount */\n      dup4\n        /* \"contracts/Market.sol\":12121:12139  vigAmount * a.eVig */\n      tag_261\n      jump\t// in\n    tag_340:\n        /* \"contracts/Market.sol\":12121:12145  vigAmount * a.eVig / 100 */\n      tag_341\n      swap2\n      swap1\n      tag_263\n      jump\t// in\n    tag_341:\n        /* \"contracts/Market.sol\":12107:12116  a.ecoAddr */\n      and(sub(shl(0xa0, 0x01), 0x01), sload(0x05))\n        /* \"contracts/Market.sol\":12103:12117  bal[a.ecoAddr] */\n      0x00\n      swap1\n      dup2\n      mstore\n        /* \"contracts/Market.sol\":12103:12106  bal */\n      0x0d\n        /* \"contracts/Market.sol\":12103:12117  bal[a.ecoAddr] */\n      0x20\n      mstore\n      0x40\n      dup2\n      keccak256\n        /* \"contracts/Market.sol\":12103:12145  bal[a.ecoAddr] += vigAmount * a.eVig / 100 */\n      dup1\n      sload\n        /* \"contracts/Market.sol\":12103:12117  bal[a.ecoAddr] */\n      swap1\n      swap2\n      swap1\n        /* \"contracts/Market.sol\":12103:12145  bal[a.ecoAddr] += vigAmount * a.eVig / 100 */\n      tag_342\n      swap1\n      dup5\n      swap1\n      tag_172\n      jump\t// in\n    tag_342:\n      swap1\n      swap2\n      sstore\n      pop\n      pop\n        /* \"contracts/Market.sol\":12193:12199  a.aVig */\n      sload(0x08)\n        /* \"contracts/Market.sol\":12202:12205  100 */\n      0x64\n      swap1\n        /* \"contracts/Market.sol\":12181:12199  vigAmount * a.aVig */\n      tag_343\n      swap1\n        /* \"contracts/Market.sol\":12181:12190  vigAmount */\n      dup4\n        /* \"contracts/Market.sol\":12181:12199  vigAmount * a.aVig */\n      tag_261\n      jump\t// in\n    tag_343:\n        /* \"contracts/Market.sol\":12181:12205  vigAmount * a.aVig / 100 */\n      tag_344\n      swap2\n      swap1\n      tag_263\n      jump\t// in\n    tag_344:\n        /* \"contracts/Market.sol\":12163:12176  bet.affiliate */\n      0x20\n      dup1\n      dup12\n      add\n      mload\n      sub(shl(0xa0, 0x01), 0x01)\n        /* \"contracts/Market.sol\":12159:12177  bal[bet.affiliate] */\n      and\n      0x00\n      swap1\n      dup2\n      mstore\n        /* \"contracts/Market.sol\":12159:12162  bal */\n      0x0d\n        /* \"contracts/Market.sol\":12159:12177  bal[bet.affiliate] */\n      swap1\n      swap2\n      mstore\n      0x40\n      dup2\n      keccak256\n        /* \"contracts/Market.sol\":12159:12205  bal[bet.affiliate] += vigAmount * a.aVig / 100 */\n      dup1\n      sload\n        /* \"contracts/Market.sol\":12159:12177  bal[bet.affiliate] */\n      swap1\n      swap2\n      swap1\n        /* \"contracts/Market.sol\":12159:12205  bal[bet.affiliate] += vigAmount * a.aVig / 100 */\n      tag_345\n      swap1\n      dup5\n      swap1\n      tag_172\n      jump\t// in\n    tag_345:\n      swap3\n      pop\n      pop\n      dup2\n      swap1\n      sstore\n      pop\n        /* \"contracts/Market.sol\":12250:12254  true */\n      0x01\n        /* \"contracts/Market.sol\":12219:12228  pairsInfo */\n      0x13\n        /* \"contracts/Market.sol\":12219:12239  pairsInfo[_pairs[i]] */\n      0x00\n        /* \"contracts/Market.sol\":12229:12235  _pairs */\n      dup11\n        /* \"contracts/Market.sol\":12236:12237  i */\n      dup10\n        /* \"contracts/Market.sol\":12229:12238  _pairs[i] */\n      dup2\n      mload\n      dup2\n      lt\n      tag_346\n      jumpi\n      mstore(0x00, shl(0xe0, 0x4e487b71))\n      mstore(0x04, 0x32)\n      revert(0x00, 0x24)\n    tag_346:\n      0x20\n      mul\n      0x20\n      add\n      add\n      mload\n        /* \"contracts/Market.sol\":12219:12239  pairsInfo[_pairs[i]] */\n      dup2\n      mstore\n      0x20\n      add\n      swap1\n      dup2\n      mstore\n      0x20\n      add\n      0x00\n      keccak256\n        /* \"contracts/Market.sol\":12219:12247  pairsInfo[_pairs[i]].settled */\n      0x04\n      add\n      0x00\n        /* \"contracts/Market.sol\":12219:12254  pairsInfo[_pairs[i]].settled = true */\n      0x0100\n      exp\n      dup2\n      sload\n      dup2\n      0xff\n      mul\n      not\n      and\n      swap1\n      dup4\n      iszero\n      iszero\n      mul\n      or\n      swap1\n      sstore\n      pop\n        /* \"contracts/Market.sol\":11057:12265  for(uint i = 0; i < pairsLength; i++){... */\n      pop\n      pop\n      pop\n      pop\n      pop\n    tag_318:\n        /* \"contracts/Market.sol\":11090:11093  i++ */\n      dup1\n      tag_347\n      dup2\n      tag_152\n      jump\t// in\n    tag_347:\n      swap2\n      pop\n      pop\n        /* \"contracts/Market.sol\":11057:12265  for(uint i = 0; i < pairsLength; i++){... */\n      jump(tag_316)\n    tag_317:\n      pop\n        /* \"contracts/Market.sol\":12281:12285  true */\n      0x01\n      swap6\n        /* \"contracts/Market.sol\":10840:12292  function _cancelBetPairs(bytes32 _bet) private returns(bool) {... */\n      swap5\n      pop\n      pop\n      pop\n      pop\n      pop\n      jump\t// out\n        /* \"contracts/Market.sol\":12749:13986  function _settlePair(bytes32 _pair) private nonReentrant returns(bool) {... */\n    tag_150:\n        /* \"contracts/Market.sol\":12814:12818  bool */\n      0x00\n        /* \"@openzeppelin/contracts/security/ReentrancyGuard.sol\":1744:1745  2 */\n      0x02\n        /* \"@openzeppelin/contracts/security/ReentrancyGuard.sol\":2325:2332  _status */\n      sload(0x00)\n        /* \"@openzeppelin/contracts/security/ReentrancyGuard.sol\":2325:2344  _status != _ENTERED */\n      eq\n      iszero\n        /* \"@openzeppelin/contracts/security/ReentrancyGuard.sol\":2317:2380  require(_status != _ENTERED, \"ReentrancyGuard: reentrant call\") */\n      tag_349\n      jumpi\n      mload(0x40)\n      shl(0xe5, 0x461bcd)\n      dup2\n      mstore\n        /* \"#utility.yul\":9536:9538   */\n      0x20\n        /* \"@openzeppelin/contracts/security/ReentrancyGuard.sol\":2317:2380  require(_status != _ENTERED, \"ReentrancyGuard: reentrant call\") */\n      0x04\n      dup3\n      add\n        /* \"#utility.yul\":9518:9539   */\n      mstore\n        /* \"#utility.yul\":9575:9577   */\n      0x1f\n        /* \"#utility.yul\":9555:9573   */\n      0x24\n      dup3\n      add\n        /* \"#utility.yul\":9548:9578   */\n      mstore\n        /* \"#utility.yul\":9614:9647   */\n      0x5265656e7472616e637947756172643a207265656e7472616e742063616c6c00\n        /* \"#utility.yul\":9594:9612   */\n      0x44\n      dup3\n      add\n        /* \"#utility.yul\":9587:9648   */\n      mstore\n        /* \"#utility.yul\":9665:9683   */\n      0x64\n      add\n        /* \"@openzeppelin/contracts/security/ReentrancyGuard.sol\":2317:2380  require(_status != _ENTERED, \"ReentrancyGuard: reentrant call\") */\n      tag_102\n        /* \"#utility.yul\":9508:9689   */\n      jump\n        /* \"@openzeppelin/contracts/security/ReentrancyGuard.sol\":2317:2380  require(_status != _ENTERED, \"ReentrancyGuard: reentrant call\") */\n    tag_349:\n        /* \"@openzeppelin/contracts/security/ReentrancyGuard.sol\":1744:1745  2 */\n      0x02\n        /* \"@openzeppelin/contracts/security/ReentrancyGuard.sol\":2455:2462  _status */\n      0x00\n        /* \"@openzeppelin/contracts/security/ReentrancyGuard.sol\":2455:2473  _status = _ENTERED */\n      swap1\n      dup2\n      sstore\n        /* \"contracts/Market.sol\":12833:12849  pairsInfo[_pair] */\n      dup3\n      dup2\n      mstore\n        /* \"contracts/Market.sol\":12833:12842  pairsInfo */\n      0x13\n        /* \"contracts/Market.sol\":12833:12849  pairsInfo[_pair] */\n      0x20\n      mstore\n      0x40\n      swap1\n      keccak256\n        /* \"contracts/Market.sol\":12833:12857  pairsInfo[_pair].settled */\n      0x04\n      add\n      sload\n      0xff\n      and\n        /* \"contracts/Market.sol\":12830:12895  if(pairsInfo[_pair].settled){... */\n      iszero\n      tag_352\n      jumpi\n      pop\n        /* \"contracts/Market.sol\":12879:12884  false */\n      0x00\n        /* \"contracts/Market.sol\":12872:12884  return false */\n      jump(tag_119)\n        /* \"contracts/Market.sol\":12830:12895  if(pairsInfo[_pair].settled){... */\n    tag_352:\n        /* \"contracts/Market.sol\":12904:12918  address winner */\n      0x00\n        /* \"contracts/Market.sol\":12928:12945  address affiliate */\n      dup1\n        /* \"contracts/Market.sol\":12955:12972  uint256 winAmount */\n      0x00\n        /* \"contracts/Market.sol\":12982:12999  uint256 vigAmount */\n      dup1\n        /* \"contracts/Market.sol\":13012:13018  status */\n      sload(0x0c)\n        /* \"contracts/Market.sol\":13022:13023  1 */\n      0x01\n        /* \"contracts/Market.sol\":13012:13023  status == 1 */\n      eq\n        /* \"contracts/Market.sol\":13009:13727  if(status == 1){... */\n      iszero\n      tag_353\n      jumpi\n        /* \"contracts/Market.sol\":13047:13082  betsInfo[pairsInfo[_pair].betHashA] */\n      0x00\n        /* \"contracts/Market.sol\":13056:13072  pairsInfo[_pair] */\n      dup7\n      dup2\n      mstore\n        /* \"contracts/Market.sol\":13056:13065  pairsInfo */\n      0x13\n        /* \"contracts/Market.sol\":13056:13072  pairsInfo[_pair] */\n      0x20\n      swap1\n      dup2\n      mstore\n      0x40\n      dup1\n      dup4\n      keccak256\n        /* \"contracts/Market.sol\":13056:13081  pairsInfo[_pair].betHashA */\n      sload\n        /* \"contracts/Market.sol\":13047:13082  betsInfo[pairsInfo[_pair].betHashA] */\n      dup4\n      mstore\n        /* \"contracts/Market.sol\":13047:13055  betsInfo */\n      0x10\n        /* \"contracts/Market.sol\":13047:13082  betsInfo[pairsInfo[_pair].betHashA] */\n      swap1\n      swap2\n      mstore\n      swap1\n      keccak256\n        /* \"contracts/Market.sol\":13047:13089  betsInfo[pairsInfo[_pair].betHashA].better */\n      sload\n        /* \"contracts/Market.sol\":13177:13182  a.vig */\n      sload(0x07)\n      sub(shl(0xa0, 0x01), 0x01)\n        /* \"contracts/Market.sol\":13047:13089  betsInfo[pairsInfo[_pair].betHashA].better */\n      swap1\n      swap2\n      and\n      swap5\n      pop\n        /* \"contracts/Market.sol\":13186:13189  100 */\n      0x64\n      swap1\n        /* \"contracts/Market.sol\":13171:13182  100 - a.vig */\n      tag_354\n      swap1\n        /* \"contracts/Market.sol\":13186:13189  100 */\n      dup3\n        /* \"contracts/Market.sol\":13171:13182  100 - a.vig */\n      tag_170\n      jump\t// in\n    tag_354:\n        /* \"contracts/Market.sol\":13143:13159  pairsInfo[_pair] */\n      0x00\n      dup9\n      dup2\n      mstore\n        /* \"contracts/Market.sol\":13143:13152  pairsInfo */\n      0x13\n        /* \"contracts/Market.sol\":13143:13159  pairsInfo[_pair] */\n      0x20\n      mstore\n      0x40\n      swap1\n      keccak256\n        /* \"contracts/Market.sol\":13143:13167  pairsInfo[_pair].amountB */\n      0x03\n      add\n      sload\n        /* \"contracts/Market.sol\":13143:13183  pairsInfo[_pair].amountB * (100 - a.vig) */\n      tag_355\n      swap2\n      swap1\n      tag_261\n      jump\t// in\n    tag_355:\n        /* \"contracts/Market.sol\":13143:13189  pairsInfo[_pair].amountB * (100 - a.vig) / 100 */\n      tag_356\n      swap2\n      swap1\n      tag_263\n      jump\t// in\n    tag_356:\n        /* \"contracts/Market.sol\":13115:13131  pairsInfo[_pair] */\n      0x00\n      dup8\n      dup2\n      mstore\n        /* \"contracts/Market.sol\":13115:13124  pairsInfo */\n      0x13\n        /* \"contracts/Market.sol\":13115:13131  pairsInfo[_pair] */\n      0x20\n      mstore\n      0x40\n      swap1\n      keccak256\n        /* \"contracts/Market.sol\":13115:13139  pairsInfo[_pair].amountA */\n      0x02\n      add\n      sload\n        /* \"contracts/Market.sol\":13115:13190  pairsInfo[_pair].amountA + (pairsInfo[_pair].amountB * (100 - a.vig) / 100) */\n      tag_357\n      swap2\n      swap1\n      tag_172\n      jump\t// in\n    tag_357:\n        /* \"contracts/Market.sol\":13243:13248  a.vig */\n      sload(0x07)\n        /* \"contracts/Market.sol\":13216:13232  pairsInfo[_pair] */\n      0x00\n      dup9\n      dup2\n      mstore\n        /* \"contracts/Market.sol\":13216:13225  pairsInfo */\n      0x13\n        /* \"contracts/Market.sol\":13216:13232  pairsInfo[_pair] */\n      0x20\n      mstore\n      0x40\n      swap1\n      keccak256\n        /* \"contracts/Market.sol\":13216:13240  pairsInfo[_pair].amountB */\n      0x03\n      add\n      sload\n        /* \"contracts/Market.sol\":13103:13190  winAmount = pairsInfo[_pair].amountA + (pairsInfo[_pair].amountB * (100 - a.vig) / 100) */\n      swap2\n      swap4\n      pop\n        /* \"contracts/Market.sol\":13251:13254  100 */\n      0x64\n      swap2\n        /* \"contracts/Market.sol\":13216:13248  pairsInfo[_pair].amountB * a.vig */\n      tag_358\n      swap2\n        /* \"contracts/Market.sol\":13243:13248  a.vig */\n      swap1\n        /* \"contracts/Market.sol\":13216:13248  pairsInfo[_pair].amountB * a.vig */\n      tag_261\n      jump\t// in\n    tag_358:\n        /* \"contracts/Market.sol\":13216:13254  pairsInfo[_pair].amountB * a.vig / 100 */\n      tag_359\n      swap2\n      swap1\n      tag_263\n      jump\t// in\n    tag_359:\n        /* \"contracts/Market.sol\":13280:13315  betsInfo[pairsInfo[_pair].betHashA] */\n      0x00\n        /* \"contracts/Market.sol\":13289:13305  pairsInfo[_pair] */\n      dup8\n      dup2\n      mstore\n        /* \"contracts/Market.sol\":13289:13298  pairsInfo */\n      0x13\n        /* \"contracts/Market.sol\":13289:13305  pairsInfo[_pair] */\n      0x20\n      swap1\n      dup2\n      mstore\n      0x40\n      dup1\n      dup4\n      keccak256\n        /* \"contracts/Market.sol\":13289:13314  pairsInfo[_pair].betHashA */\n      sload\n        /* \"contracts/Market.sol\":13280:13315  betsInfo[pairsInfo[_pair].betHashA] */\n      dup4\n      mstore\n        /* \"contracts/Market.sol\":13280:13288  betsInfo */\n      0x10\n        /* \"contracts/Market.sol\":13280:13315  betsInfo[pairsInfo[_pair].betHashA] */\n      swap1\n      swap2\n      mstore\n      swap1\n      keccak256\n        /* \"contracts/Market.sol\":13280:13325  betsInfo[pairsInfo[_pair].betHashA].affiliate */\n      0x01\n      add\n      sload\n      sub(shl(0xa0, 0x01), 0x01)\n      and\n      swap4\n      pop\n        /* \"contracts/Market.sol\":13204:13254  vigAmount = pairsInfo[_pair].amountB * a.vig / 100 */\n      swap1\n      pop\n        /* \"contracts/Market.sol\":13009:13727  if(status == 1){... */\n      jump(tag_368)\n    tag_353:\n        /* \"contracts/Market.sol\":13353:13359  status */\n      sload(0x0c)\n        /* \"contracts/Market.sol\":13363:13364  2 */\n      0x02\n        /* \"contracts/Market.sol\":13353:13364  status == 2 */\n      eq\n        /* \"contracts/Market.sol\":13350:13727  if(status == 2){... */\n      iszero\n      tag_361\n      jumpi\n        /* \"contracts/Market.sol\":13388:13423  betsInfo[pairsInfo[_pair].betHashB] */\n      0x00\n        /* \"contracts/Market.sol\":13397:13413  pairsInfo[_pair] */\n      dup7\n      dup2\n      mstore\n        /* \"contracts/Market.sol\":13397:13406  pairsInfo */\n      0x13\n        /* \"contracts/Market.sol\":13397:13413  pairsInfo[_pair] */\n      0x20\n      swap1\n      dup2\n      mstore\n      0x40\n      dup1\n      dup4\n      keccak256\n        /* \"contracts/Market.sol\":13397:13422  pairsInfo[_pair].betHashB */\n      0x01\n      add\n      sload\n        /* \"contracts/Market.sol\":13388:13423  betsInfo[pairsInfo[_pair].betHashB] */\n      dup4\n      mstore\n        /* \"contracts/Market.sol\":13388:13396  betsInfo */\n      0x10\n        /* \"contracts/Market.sol\":13388:13423  betsInfo[pairsInfo[_pair].betHashB] */\n      swap1\n      swap2\n      mstore\n      swap1\n      keccak256\n        /* \"contracts/Market.sol\":13388:13430  betsInfo[pairsInfo[_pair].betHashB].better */\n      sload\n        /* \"contracts/Market.sol\":13518:13523  a.vig */\n      sload(0x07)\n      sub(shl(0xa0, 0x01), 0x01)\n        /* \"contracts/Market.sol\":13388:13430  betsInfo[pairsInfo[_pair].betHashB].better */\n      swap1\n      swap2\n      and\n      swap5\n      pop\n        /* \"contracts/Market.sol\":13527:13530  100 */\n      0x64\n      swap1\n        /* \"contracts/Market.sol\":13512:13523  100 - a.vig */\n      tag_362\n      swap1\n        /* \"contracts/Market.sol\":13527:13530  100 */\n      dup3\n        /* \"contracts/Market.sol\":13512:13523  100 - a.vig */\n      tag_170\n      jump\t// in\n    tag_362:\n        /* \"contracts/Market.sol\":13484:13500  pairsInfo[_pair] */\n      0x00\n      dup9\n      dup2\n      mstore\n        /* \"contracts/Market.sol\":13484:13493  pairsInfo */\n      0x13\n        /* \"contracts/Market.sol\":13484:13500  pairsInfo[_pair] */\n      0x20\n      mstore\n      0x40\n      swap1\n      keccak256\n        /* \"contracts/Market.sol\":13484:13508  pairsInfo[_pair].amountA */\n      0x02\n      add\n      sload\n        /* \"contracts/Market.sol\":13484:13524  pairsInfo[_pair].amountA * (100 - a.vig) */\n      tag_363\n      swap2\n      swap1\n      tag_261\n      jump\t// in\n    tag_363:\n        /* \"contracts/Market.sol\":13484:13530  pairsInfo[_pair].amountA * (100 - a.vig) / 100 */\n      tag_364\n      swap2\n      swap1\n      tag_263\n      jump\t// in\n    tag_364:\n        /* \"contracts/Market.sol\":13456:13472  pairsInfo[_pair] */\n      0x00\n      dup8\n      dup2\n      mstore\n        /* \"contracts/Market.sol\":13456:13465  pairsInfo */\n      0x13\n        /* \"contracts/Market.sol\":13456:13472  pairsInfo[_pair] */\n      0x20\n      mstore\n      0x40\n      swap1\n      keccak256\n        /* \"contracts/Market.sol\":13456:13480  pairsInfo[_pair].amountB */\n      0x03\n      add\n      sload\n        /* \"contracts/Market.sol\":13456:13531  pairsInfo[_pair].amountB + (pairsInfo[_pair].amountA * (100 - a.vig) / 100) */\n      tag_365\n      swap2\n      swap1\n      tag_172\n      jump\t// in\n    tag_365:\n        /* \"contracts/Market.sol\":13584:13589  a.vig */\n      sload(0x07)\n        /* \"contracts/Market.sol\":13557:13573  pairsInfo[_pair] */\n      0x00\n      dup9\n      dup2\n      mstore\n        /* \"contracts/Market.sol\":13557:13566  pairsInfo */\n      0x13\n        /* \"contracts/Market.sol\":13557:13573  pairsInfo[_pair] */\n      0x20\n      mstore\n      0x40\n      swap1\n      keccak256\n        /* \"contracts/Market.sol\":13557:13581  pairsInfo[_pair].amountA */\n      0x02\n      add\n      sload\n        /* \"contracts/Market.sol\":13444:13531  winAmount = pairsInfo[_pair].amountB + (pairsInfo[_pair].amountA * (100 - a.vig) / 100) */\n      swap2\n      swap4\n      pop\n        /* \"contracts/Market.sol\":13592:13595  100 */\n      0x64\n      swap2\n        /* \"contracts/Market.sol\":13557:13589  pairsInfo[_pair].amountA * a.vig */\n      tag_366\n      swap2\n        /* \"contracts/Market.sol\":13584:13589  a.vig */\n      swap1\n        /* \"contracts/Market.sol\":13557:13589  pairsInfo[_pair].amountA * a.vig */\n      tag_261\n      jump\t// in\n    tag_366:\n        /* \"contracts/Market.sol\":13557:13595  pairsInfo[_pair].amountA * a.vig / 100 */\n      tag_367\n      swap2\n      swap1\n      tag_263\n      jump\t// in\n    tag_367:\n        /* \"contracts/Market.sol\":13621:13656  betsInfo[pairsInfo[_pair].betHashB] */\n      0x00\n        /* \"contracts/Market.sol\":13630:13646  pairsInfo[_pair] */\n      dup8\n      dup2\n      mstore\n        /* \"contracts/Market.sol\":13630:13639  pairsInfo */\n      0x13\n        /* \"contracts/Market.sol\":13630:13646  pairsInfo[_pair] */\n      0x20\n      swap1\n      dup2\n      mstore\n      0x40\n      dup1\n      dup4\n      keccak256\n        /* \"contracts/Market.sol\":13630:13655  pairsInfo[_pair].betHashB */\n      0x01\n      swap1\n      dup2\n      add\n      sload\n        /* \"contracts/Market.sol\":13621:13656  betsInfo[pairsInfo[_pair].betHashB] */\n      dup5\n      mstore\n        /* \"contracts/Market.sol\":13621:13629  betsInfo */\n      0x10\n        /* \"contracts/Market.sol\":13621:13656  betsInfo[pairsInfo[_pair].betHashB] */\n      swap1\n      swap3\n      mstore\n      swap1\n      swap2\n      keccak256\n        /* \"contracts/Market.sol\":13621:13666  betsInfo[pairsInfo[_pair].betHashB].affiliate */\n      add\n      sload\n      sub(shl(0xa0, 0x01), 0x01)\n      and\n      swap4\n      pop\n        /* \"contracts/Market.sol\":13545:13595  vigAmount = pairsInfo[_pair].amountA * a.vig / 100 */\n      swap1\n      pop\n        /* \"contracts/Market.sol\":13350:13727  if(status == 2){... */\n      jump(tag_368)\n    tag_361:\n        /* \"contracts/Market.sol\":13711:13716  false */\n      0x00\n        /* \"contracts/Market.sol\":13704:13716  return false */\n      swap5\n      pop\n      pop\n      pop\n      pop\n      pop\n      jump(tag_119)\n        /* \"contracts/Market.sol\":13350:13727  if(status == 2){... */\n    tag_368:\n      sub(shl(0xa0, 0x01), 0x01)\n        /* \"contracts/Market.sol\":13736:13747  bal[winner] */\n      dup5\n      and\n      0x00\n      swap1\n      dup2\n      mstore\n        /* \"contracts/Market.sol\":13736:13739  bal */\n      0x0d\n        /* \"contracts/Market.sol\":13736:13747  bal[winner] */\n      0x20\n      mstore\n      0x40\n      dup2\n      keccak256\n        /* \"contracts/Market.sol\":13736:13760  bal[winner] += winAmount */\n      dup1\n      sload\n        /* \"contracts/Market.sol\":13751:13760  winAmount */\n      dup5\n      swap3\n        /* \"contracts/Market.sol\":13736:13747  bal[winner] */\n      swap1\n        /* \"contracts/Market.sol\":13736:13760  bal[winner] += winAmount */\n      tag_369\n      swap1\n        /* \"contracts/Market.sol\":13751:13760  winAmount */\n      dup5\n      swap1\n        /* \"contracts/Market.sol\":13736:13760  bal[winner] += winAmount */\n      tag_172\n      jump\t// in\n    tag_369:\n      swap1\n      swap2\n      sstore\n      pop\n      pop\n        /* \"contracts/Market.sol\":13801:13807  a.hVig */\n      sload(0x0a)\n        /* \"contracts/Market.sol\":13810:13813  100 */\n      0x64\n      swap1\n        /* \"contracts/Market.sol\":13789:13807  vigAmount * a.hVig */\n      tag_370\n      swap1\n        /* \"contracts/Market.sol\":13789:13798  vigAmount */\n      dup4\n        /* \"contracts/Market.sol\":13789:13807  vigAmount * a.hVig */\n      tag_261\n      jump\t// in\n    tag_370:\n        /* \"contracts/Market.sol\":13789:13813  vigAmount * a.hVig / 100 */\n      tag_371\n      swap2\n      swap1\n      tag_263\n      jump\t// in\n    tag_371:\n        /* \"contracts/Market.sol\":13774:13784  a.holdAddr */\n      and(sub(shl(0xa0, 0x01), 0x01), sload(0x04))\n        /* \"contracts/Market.sol\":13770:13785  bal[a.holdAddr] */\n      0x00\n      swap1\n      dup2\n      mstore\n        /* \"contracts/Market.sol\":13770:13773  bal */\n      0x0d\n        /* \"contracts/Market.sol\":13770:13785  bal[a.holdAddr] */\n      0x20\n      mstore\n      0x40\n      dup2\n      keccak256\n        /* \"contracts/Market.sol\":13770:13813  bal[a.holdAddr] += vigAmount * a.hVig / 100 */\n      dup1\n      sload\n        /* \"contracts/Market.sol\":13770:13785  bal[a.holdAddr] */\n      swap1\n      swap2\n      swap1\n        /* \"contracts/Market.sol\":13770:13813  bal[a.holdAddr] += vigAmount * a.hVig / 100 */\n      tag_372\n      swap1\n      dup5\n      swap1\n      tag_172\n      jump\t// in\n    tag_372:\n      swap1\n      swap2\n      sstore\n      pop\n      pop\n        /* \"contracts/Market.sol\":13853:13859  a.eVig */\n      sload(0x09)\n        /* \"contracts/Market.sol\":13862:13865  100 */\n      0x64\n      swap1\n        /* \"contracts/Market.sol\":13841:13859  vigAmount * a.eVig */\n      tag_373\n      swap1\n        /* \"contracts/Market.sol\":13841:13850  vigAmount */\n      dup4\n        /* \"contracts/Market.sol\":13841:13859  vigAmount * a.eVig */\n      tag_261\n      jump\t// in\n    tag_373:\n        /* \"contracts/Market.sol\":13841:13865  vigAmount * a.eVig / 100 */\n      tag_374\n      swap2\n      swap1\n      tag_263\n      jump\t// in\n    tag_374:\n        /* \"contracts/Market.sol\":13827:13836  a.ecoAddr */\n      and(sub(shl(0xa0, 0x01), 0x01), sload(0x05))\n        /* \"contracts/Market.sol\":13823:13837  bal[a.ecoAddr] */\n      0x00\n      swap1\n      dup2\n      mstore\n        /* \"contracts/Market.sol\":13823:13826  bal */\n      0x0d\n        /* \"contracts/Market.sol\":13823:13837  bal[a.ecoAddr] */\n      0x20\n      mstore\n      0x40\n      dup2\n      keccak256\n        /* \"contracts/Market.sol\":13823:13865  bal[a.ecoAddr] += vigAmount * a.eVig / 100 */\n      dup1\n      sload\n        /* \"contracts/Market.sol\":13823:13837  bal[a.ecoAddr] */\n      swap1\n      swap2\n      swap1\n        /* \"contracts/Market.sol\":13823:13865  bal[a.ecoAddr] += vigAmount * a.eVig / 100 */\n      tag_375\n      swap1\n      dup5\n      swap1\n      tag_172\n      jump\t// in\n    tag_375:\n      swap1\n      swap2\n      sstore\n      pop\n      pop\n        /* \"contracts/Market.sol\":13905:13911  a.aVig */\n      sload(0x08)\n        /* \"contracts/Market.sol\":13914:13917  100 */\n      0x64\n      swap1\n        /* \"contracts/Market.sol\":13893:13911  vigAmount * a.aVig */\n      tag_376\n      swap1\n        /* \"contracts/Market.sol\":13893:13902  vigAmount */\n      dup4\n        /* \"contracts/Market.sol\":13893:13911  vigAmount * a.aVig */\n      tag_261\n      jump\t// in\n    tag_376:\n        /* \"contracts/Market.sol\":13893:13917  vigAmount * a.aVig / 100 */\n      tag_377\n      swap2\n      swap1\n      tag_263\n      jump\t// in\n    tag_377:\n      sub(shl(0xa0, 0x01), 0x01)\n        /* \"contracts/Market.sol\":13875:13889  bal[affiliate] */\n      dup5\n      and\n      0x00\n      swap1\n      dup2\n      mstore\n        /* \"contracts/Market.sol\":13875:13878  bal */\n      0x0d\n        /* \"contracts/Market.sol\":13875:13889  bal[affiliate] */\n      0x20\n      mstore\n      0x40\n      dup2\n      keccak256\n        /* \"contracts/Market.sol\":13875:13917  bal[affiliate] += vigAmount * a.aVig / 100 */\n      dup1\n      sload\n        /* \"contracts/Market.sol\":13875:13889  bal[affiliate] */\n      swap1\n      swap2\n      swap1\n        /* \"contracts/Market.sol\":13875:13917  bal[affiliate] += vigAmount * a.aVig / 100 */\n      tag_378\n      swap1\n      dup5\n      swap1\n      tag_172\n      jump\t// in\n    tag_378:\n      swap1\n      swap2\n      sstore\n      pop\n      pop\n      pop\n        /* \"contracts/Market.sol\":13927:13943  pairsInfo[_pair] */\n      0x00\n      swap5\n      dup6\n      mstore\n      pop\n      pop\n        /* \"contracts/Market.sol\":13927:13936  pairsInfo */\n      0x13\n        /* \"contracts/Market.sol\":13927:13943  pairsInfo[_pair] */\n      0x20\n      mstore\n      pop\n      pop\n      0x40\n      dup2\n      keccak256\n        /* \"contracts/Market.sol\":13927:13951  pairsInfo[_pair].settled */\n      0x04\n      add\n        /* \"contracts/Market.sol\":13927:13958  pairsInfo[_pair].settled = true */\n      dup1\n      sload\n      not(0xff)\n      and\n        /* \"contracts/Market.sol\":13954:13958  true */\n      0x01\n        /* \"contracts/Market.sol\":13927:13958  pairsInfo[_pair].settled = true */\n      swap1\n      dup2\n      or\n      swap1\n      swap2\n      sstore\n        /* \"@openzeppelin/contracts/security/ReentrancyGuard.sol\":2628:2650  _status = _NOT_ENTERED */\n      swap1\n      dup2\n      swap1\n      sstore\n        /* \"contracts/Market.sol\":13954:13958  true */\n      swap1\n        /* \"contracts/Market.sol\":12749:13986  function _settlePair(bytes32 _pair) private nonReentrant returns(bool) {... */\n      jump\t// out\n        /* \"contracts/Market.sol\":12298:12739  function _cancelPair(bytes32 _pair) private returns(bool) {... */\n    tag_206:\n        /* \"contracts/Market.sol\":12350:12354  bool */\n      0x00\n        /* \"contracts/Market.sol\":12369:12385  pairsInfo[_pair] */\n      dup2\n      dup2\n      mstore\n        /* \"contracts/Market.sol\":12369:12378  pairsInfo */\n      0x13\n        /* \"contracts/Market.sol\":12369:12385  pairsInfo[_pair] */\n      0x20\n      mstore\n      0x40\n      dup2\n      keccak256\n        /* \"contracts/Market.sol\":12369:12393  pairsInfo[_pair].settled */\n      0x04\n      add\n      sload\n      0xff\n      and\n        /* \"contracts/Market.sol\":12366:12431  if(pairsInfo[_pair].settled){... */\n      iszero\n      tag_380\n      jumpi\n      pop\n        /* \"contracts/Market.sol\":12415:12420  false */\n      0x00\n      swap2\n        /* \"contracts/Market.sol\":12298:12739  function _cancelPair(bytes32 _pair) private returns(bool) {... */\n      swap1\n      pop\n      jump\t// out\n        /* \"contracts/Market.sol\":12366:12431  if(pairsInfo[_pair].settled){... */\n    tag_380:\n        /* \"contracts/Market.sol\":12440:12455  address betterA */\n      0x00\n        /* \"contracts/Market.sol\":12467:12483  pairsInfo[_pair] */\n      dup3\n      dup2\n      mstore\n        /* \"contracts/Market.sol\":12467:12476  pairsInfo */\n      0x13\n        /* \"contracts/Market.sol\":12467:12483  pairsInfo[_pair] */\n      0x20\n      swap1\n      dup2\n      mstore\n      0x40\n      dup1\n      dup4\n      keccak256\n        /* \"contracts/Market.sol\":12467:12492  pairsInfo[_pair].betHashA */\n      dup1\n      sload\n        /* \"contracts/Market.sol\":12458:12493  betsInfo[pairsInfo[_pair].betHashA] */\n      dup5\n      mstore\n        /* \"contracts/Market.sol\":12458:12466  betsInfo */\n      0x10\n        /* \"contracts/Market.sol\":12458:12493  betsInfo[pairsInfo[_pair].betHashA] */\n      dup4\n      mstore\n      dup2\n      dup5\n      keccak256\n        /* \"contracts/Market.sol\":12458:12500  betsInfo[pairsInfo[_pair].betHashA].better */\n      sload\n      0x01\n        /* \"contracts/Market.sol\":12537:12562  pairsInfo[_pair].betHashB */\n      dup3\n      add\n      sload\n        /* \"contracts/Market.sol\":12528:12563  betsInfo[pairsInfo[_pair].betHashB] */\n      dup6\n      mstore\n      dup3\n      dup6\n      keccak256\n        /* \"contracts/Market.sol\":12528:12570  betsInfo[pairsInfo[_pair].betHashB].better */\n      sload\n        /* \"contracts/Market.sol\":12596:12620  pairsInfo[_pair].amountA */\n      0x02\n      swap1\n      swap3\n      add\n      sload\n      sub(shl(0xa0, 0x01), 0x01)\n        /* \"contracts/Market.sol\":12458:12500  betsInfo[pairsInfo[_pair].betHashA].better */\n      swap2\n      dup3\n      and\n        /* \"contracts/Market.sol\":12580:12592  bal[betterA] */\n      dup1\n      dup8\n      mstore\n        /* \"contracts/Market.sol\":12580:12583  bal */\n      0x0d\n        /* \"contracts/Market.sol\":12580:12592  bal[betterA] */\n      swap1\n      swap6\n      mstore\n      swap3\n      dup6\n      keccak256\n        /* \"contracts/Market.sol\":12580:12620  bal[betterA] += pairsInfo[_pair].amountA */\n      dup1\n      sload\n        /* \"contracts/Market.sol\":12458:12500  betsInfo[pairsInfo[_pair].betHashA].better */\n      swap5\n      swap6\n        /* \"contracts/Market.sol\":12528:12570  betsInfo[pairsInfo[_pair].betHashB].better */\n      swap2\n      swap1\n      swap3\n      and\n      swap4\n        /* \"contracts/Market.sol\":12580:12620  bal[betterA] += pairsInfo[_pair].amountA */\n      tag_381\n      swap1\n        /* \"contracts/Market.sol\":12596:12620  pairsInfo[_pair].amountA */\n      dup5\n      swap1\n        /* \"contracts/Market.sol\":12580:12620  bal[betterA] += pairsInfo[_pair].amountA */\n      tag_172\n      jump\t// in\n    tag_381:\n      swap1\n      swap2\n      sstore\n      pop\n      pop\n        /* \"contracts/Market.sol\":12646:12662  pairsInfo[_pair] */\n      0x00\n      dup5\n      dup2\n      mstore\n        /* \"contracts/Market.sol\":12646:12655  pairsInfo */\n      0x13\n        /* \"contracts/Market.sol\":12646:12662  pairsInfo[_pair] */\n      0x20\n      swap1\n      dup2\n      mstore\n      0x40\n      dup1\n      dup4\n      keccak256\n        /* \"contracts/Market.sol\":12646:12670  pairsInfo[_pair].amountB */\n      0x03\n      add\n      sload\n      sub(shl(0xa0, 0x01), 0x01)\n        /* \"contracts/Market.sol\":12630:12642  bal[betterB] */\n      dup6\n      and\n      dup5\n      mstore\n        /* \"contracts/Market.sol\":12630:12633  bal */\n      0x0d\n        /* \"contracts/Market.sol\":12630:12642  bal[betterB] */\n      swap1\n      swap3\n      mstore\n      dup3\n      keccak256\n        /* \"contracts/Market.sol\":12630:12670  bal[betterB] += pairsInfo[_pair].amountB */\n      dup1\n      sload\n        /* \"contracts/Market.sol\":12646:12670  pairsInfo[_pair].amountB */\n      swap2\n      swap3\n        /* \"contracts/Market.sol\":12630:12642  bal[betterB] */\n      swap1\n      swap2\n        /* \"contracts/Market.sol\":12630:12670  bal[betterB] += pairsInfo[_pair].amountB */\n      tag_382\n      swap1\n        /* \"contracts/Market.sol\":12646:12670  pairsInfo[_pair].amountB */\n      dup5\n      swap1\n        /* \"contracts/Market.sol\":12630:12670  bal[betterB] += pairsInfo[_pair].amountB */\n      tag_172\n      jump\t// in\n    tag_382:\n      swap1\n      swap2\n      sstore\n      pop\n      pop\n      pop\n        /* \"contracts/Market.sol\":12680:12696  pairsInfo[_pair] */\n      0x00\n      swap3\n      dup4\n      mstore\n      pop\n      pop\n        /* \"contracts/Market.sol\":12680:12689  pairsInfo */\n      0x13\n        /* \"contracts/Market.sol\":12680:12696  pairsInfo[_pair] */\n      0x20\n      mstore\n      0x40\n      swap1\n      keccak256\n        /* \"contracts/Market.sol\":12680:12704  pairsInfo[_pair].settled */\n      0x04\n      add\n        /* \"contracts/Market.sol\":12680:12711  pairsInfo[_pair].settled = true */\n      dup1\n      sload\n      not(0xff)\n      and\n        /* \"contracts/Market.sol\":12707:12711  true */\n      0x01\n        /* \"contracts/Market.sol\":12680:12711  pairsInfo[_pair].settled = true */\n      swap1\n      dup2\n      or\n      swap1\n      swap2\n      sstore\n        /* \"contracts/Market.sol\":12707:12711  true */\n      swap1\n        /* \"contracts/Market.sol\":12298:12739  function _cancelPair(bytes32 _pair) private returns(bool) {... */\n      jump\t// out\n        /* \"contracts/Market.sol\":13992:14890  function _createBet(... */\n    tag_264:\n        /* \"contracts/Market.sol\":14191:14198  bytes32 */\n      0x00\n        /* \"contracts/Market.sol\":14214:14229  bytes32 betHash */\n      dup1\n        /* \"contracts/Market.sol\":14239:14245  uint i */\n      0x00\n        /* \"contracts/Market.sol\":14259:14608  while(i >= 0){... */\n    tag_384:\n        /* \"contracts/Market.sol\":14396:14400  bets */\n      0x0e\n        /* \"contracts/Market.sol\":14396:14407  bets.length */\n      sload\n        /* \"contracts/Market.sol\":14340:14347  _better */\n      dup10\n      swap1\n        /* \"contracts/Market.sol\":14373:14377  this */\n      address\n      swap1\n        /* \"contracts/Market.sol\":14414:14415  i */\n      dup4\n      swap1\n        /* \"contracts/Market.sol\":14396:14411  bets.length + 1 */\n      tag_386\n      swap1\n        /* \"contracts/Market.sol\":14410:14411  1 */\n      0x01\n        /* \"contracts/Market.sol\":14396:14411  bets.length + 1 */\n      tag_172\n      jump\t// in\n    tag_386:\n        /* \"contracts/Market.sol\":14396:14415  bets.length + 1 + i */\n      tag_387\n      swap2\n      swap1\n      tag_172\n      jump\t// in\n    tag_387:\n        /* \"contracts/Market.sol\":14306:14496  abi.encodePacked(... */\n      mload(0x40)\n      not(0xffffffffffffffffffffffff)\n        /* \"#utility.yul\":2089:2091   */\n      0x60\n        /* \"#utility.yul\":2085:2100   */\n      swap5\n      dup6\n      shl\n        /* \"#utility.yul\":2081:2105   */\n      dup2\n      and\n        /* \"contracts/Market.sol\":14306:14496  abi.encodePacked(... */\n      0x20\n      dup4\n      add\n        /* \"#utility.yul\":2069:2106   */\n      mstore\n        /* \"#utility.yul\":2140:2155   */\n      swap3\n      swap1\n      swap4\n      shl\n        /* \"#utility.yul\":2136:2160   */\n      swap1\n      swap2\n      and\n        /* \"#utility.yul\":2122:2134   */\n      0x34\n      dup4\n      add\n        /* \"#utility.yul\":2115:2161   */\n      mstore\n        /* \"#utility.yul\":2177:2189   */\n      0x48\n      dup3\n      add\n        /* \"#utility.yul\":2170:2198   */\n      mstore\n        /* \"contracts/Market.sol\":14433:14448  block.timestamp */\n      timestamp\n        /* \"#utility.yul\":2214:2226   */\n      0x68\n      dup3\n      add\n        /* \"#utility.yul\":2207:2235   */\n      mstore\n        /* \"contracts/Market.sol\":14466:14482  block.difficulty */\n      difficulty\n        /* \"#utility.yul\":2251:2264   */\n      0x88\n      dup3\n      add\n        /* \"#utility.yul\":2244:2273   */\n      mstore\n        /* \"#utility.yul\":2289:2302   */\n      0xa8\n      add\n        /* \"contracts/Market.sol\":14306:14496  abi.encodePacked(... */\n      0x40\n      dup1\n      mload\n      not(0x1f)\n      dup2\n      dup5\n      sub\n      add\n      dup2\n      mstore\n      swap2\n      dup2\n      mstore\n        /* \"contracts/Market.sol\":14296:14497  keccak256(abi.encodePacked(... */\n      dup2\n      mload\n        /* \"contracts/Market.sol\":14306:14496  abi.encodePacked(... */\n      0x20\n        /* \"contracts/Market.sol\":14296:14497  keccak256(abi.encodePacked(... */\n      swap3\n      dup4\n      add\n      keccak256\n        /* \"contracts/Market.sol\":14514:14531  betsInfo[betHash] */\n      0x00\n      dup2\n      dup2\n      mstore\n        /* \"contracts/Market.sol\":14514:14522  betsInfo */\n      0x10\n        /* \"contracts/Market.sol\":14514:14531  betsInfo[betHash] */\n      swap1\n      swap4\n      mstore\n      swap2\n      keccak256\n        /* \"contracts/Market.sol\":14514:14537  betsInfo[betHash].stake */\n      0x02\n      add\n      sload\n        /* \"contracts/Market.sol\":14296:14497  keccak256(abi.encodePacked(... */\n      swap1\n      swap3\n      pop\n        /* \"contracts/Market.sol\":14511:14581  if(betsInfo[betHash].stake == 0){... */\n      tag_390\n      jumpi\n        /* \"contracts/Market.sol\":14561:14566  break */\n      jump(tag_385)\n        /* \"contracts/Market.sol\":14511:14581  if(betsInfo[betHash].stake == 0){... */\n    tag_390:\n        /* \"contracts/Market.sol\":14594:14597  i++ */\n      dup1\n      tag_391\n      dup2\n      tag_152\n      jump\t// in\n    tag_391:\n      swap2\n      pop\n      pop\n        /* \"contracts/Market.sol\":14259:14608  while(i >= 0){... */\n      jump(tag_384)\n    tag_385:\n      sub(shl(0xa0, 0x01), 0x01)\n        /* \"contracts/Market.sol\":14620:14644  _affiliate == address(0) */\n      dup9\n      and\n        /* \"contracts/Market.sol\":14617:14692  if(_affiliate == address(0)){... */\n      tag_392\n      jumpi\n        /* \"contracts/Market.sol\":14672:14681  a.ecoAddr */\n      and(sub(shl(0xa0, 0x01), 0x01), sload(0x05))\n      swap8\n      pop\n        /* \"contracts/Market.sol\":14617:14692  if(_affiliate == address(0)){... */\n    tag_392:\n      pop\n        /* \"contracts/Market.sol\":14721:14790  Struct.MarketBet(_better, _affiliate, _stake, _matched, _odds, _side) */\n      0x40\n      dup1\n      mload\n      0xc0\n      dup2\n      add\n      dup3\n      mstore\n      sub(shl(0xa0, 0x01), 0x01)\n      swap10\n      dup11\n      and\n      dup1\n      dup3\n      mstore\n      swap9\n      dup11\n      and\n      0x20\n      dup1\n      dup4\n      add\n      swap2\n      dup3\n      mstore\n      dup3\n      dup5\n      add\n      swap10\n      dup11\n      mstore\n      0x60\n      dup4\n      add\n      swap9\n      dup10\n      mstore\n      0x80\n      dup4\n      add\n      swap8\n      dup9\n      mstore\n      0xa0\n      dup4\n      add\n      swap7\n      dup8\n      mstore\n      0x00\n        /* \"contracts/Market.sol\":14701:14718  betsInfo[betHash] */\n      dup6\n      dup2\n      mstore\n        /* \"contracts/Market.sol\":14701:14709  betsInfo */\n      0x10\n        /* \"contracts/Market.sol\":14701:14718  betsInfo[betHash] */\n      dup3\n      mstore\n      dup5\n      dup2\n      keccak256\n        /* \"contracts/Market.sol\":14701:14790  betsInfo[betHash] = Struct.MarketBet(_better, _affiliate, _stake, _matched, _odds, _side) */\n      swap4\n      mload\n      dup5\n      sload\n      swap1\n      dup15\n      and\n      not(sub(shl(0xa0, 0x01), 0x01))\n      swap2\n      dup3\n      and\n      or\n      dup6\n      sstore\n      swap3\n      mload\n      0x01\n      dup1\n      dup7\n      add\n      dup1\n      sload\n      swap3\n      swap1\n      swap16\n      and\n      swap2\n      swap1\n      swap5\n      and\n      or\n      swap1\n      swap13\n      sstore\n      swap9\n      mload\n      0x02\n      dup4\n      add\n      sstore\n      swap7\n      mload\n      0x03\n      dup3\n      add\n      sstore\n      swap5\n      mload\n      0x04\n      dup7\n      add\n      sstore\n      swap3\n      mload\n      0x05\n      swap1\n      swap5\n      add\n      swap4\n      swap1\n      swap4\n      sstore\n      pop\n        /* \"contracts/Market.sol\":14800:14804  bets */\n      0x0e\n        /* \"contracts/Market.sol\":14800:14818  bets.push(betHash) */\n      dup1\n      sload\n      dup1\n      dup6\n      add\n      swap1\n      swap2\n      sstore\n      0xbb7b4a454dc3493923482f07822329ed19e8244eff582cc204f8554c3620c3fd\n      add\n      dup3\n      swap1\n      sstore\n        /* \"contracts/Market.sol\":14828:14845  userBets[_better] */\n      swap4\n      dup6\n      mstore\n        /* \"contracts/Market.sol\":14828:14836  userBets */\n      0x0f\n        /* \"contracts/Market.sol\":14828:14845  userBets[_better] */\n      dup4\n      mstore\n      swap3\n      dup5\n      keccak256\n        /* \"contracts/Market.sol\":14828:14859  userBets[_better].push(betHash) */\n      dup1\n      sload\n      swap2\n      dup3\n      add\n      dup2\n      sstore\n      dup5\n      mstore\n      swap3\n      keccak256\n      swap1\n      swap2\n      add\n      dup2\n      swap1\n      sstore\n        /* \"contracts/Market.sol\":14701:14718  betsInfo[betHash] */\n      swap1\n        /* \"contracts/Market.sol\":13992:14890  function _createBet(... */\n      jump\t// out\n        /* \"contracts/Market.sol\":9449:10834  function _match(... */\n    tag_287:\n        /* \"contracts/Market.sol\":9646:9653  uint256 */\n      0x00\n        /* \"contracts/Market.sol\":9669:9689  uint256 betterAmount */\n      dup1\n        /* \"contracts/Market.sol\":9699:9718  uint256 makerAmount */\n      0x00\n        /* \"contracts/Market.sol\":9728:9744  bytes32 pairHash */\n      dup1\n        /* \"contracts/Market.sol\":9774:9780  _stake */\n      dup10\n        /* \"contracts/Market.sol\":9757:9770  _offeredStake */\n      dup10\n        /* \"contracts/Market.sol\":9757:9780  _offeredStake <= _stake */\n      gt\n        /* \"contracts/Market.sol\":9754:10600  if(_offeredStake <= _stake) {... */\n      tag_396\n      jumpi\n        /* \"contracts/Market.sol\":9811:9824  _offeredStake */\n      dup9\n      swap3\n      pop\n        /* \"contracts/Market.sol\":9869:9880  _odds - 100 */\n      tag_397\n        /* \"contracts/Market.sol\":9877:9880  100 */\n      0x64\n        /* \"contracts/Market.sol\":9869:9874  _odds */\n      dup10\n        /* \"contracts/Market.sol\":9869:9880  _odds - 100 */\n      tag_170\n      jump\t// in\n    tag_397:\n        /* \"contracts/Market.sol\":9852:9881  _offeredStake * (_odds - 100) */\n      tag_398\n      swap1\n        /* \"contracts/Market.sol\":9852:9865  _offeredStake */\n      dup11\n        /* \"contracts/Market.sol\":9852:9881  _offeredStake * (_odds - 100) */\n      tag_261\n      jump\t// in\n    tag_398:\n        /* \"contracts/Market.sol\":9838:9881  makerAmount = _offeredStake * (_odds - 100) */\n      swap2\n      pop\n        /* \"contracts/Market.sol\":9895:9913  makerAmount /= 100 */\n      tag_399\n        /* \"contracts/Market.sol\":9910:9913  100 */\n      0x64\n        /* \"contracts/Market.sol\":9838:9881  makerAmount = _offeredStake * (_odds - 100) */\n      dup4\n        /* \"contracts/Market.sol\":9895:9913  makerAmount /= 100 */\n      tag_263\n      jump\t// in\n    tag_399:\n      swap2\n      pop\n        /* \"contracts/Market.sol\":9930:9935  _side */\n      dup7\n        /* \"contracts/Market.sol\":9939:9940  1 */\n      0x01\n        /* \"contracts/Market.sol\":9930:9940  _side == 1 */\n      eq\n        /* \"contracts/Market.sol\":9927:10181  if(_side == 1){... */\n      iszero\n      tag_400\n      jumpi\n        /* \"contracts/Market.sol\":9970:10030  _createPair(_betHash,_selectedHash,betterAmount,makerAmount) */\n      tag_401\n        /* \"contracts/Market.sol\":9982:9990  _betHash */\n      dup7\n        /* \"contracts/Market.sol\":9991:10004  _selectedHash */\n      dup7\n        /* \"contracts/Market.sol\":10005:10017  betterAmount */\n      dup6\n        /* \"contracts/Market.sol\":10018:10029  makerAmount */\n      dup6\n        /* \"contracts/Market.sol\":9970:9981  _createPair */\n      tag_402\n        /* \"contracts/Market.sol\":9970:10030  _createPair(_betHash,_selectedHash,betterAmount,makerAmount) */\n      jump\t// in\n    tag_401:\n        /* \"contracts/Market.sol\":9959:10030  pairHash = _createPair(_betHash,_selectedHash,betterAmount,makerAmount) */\n      swap1\n      pop\n        /* \"contracts/Market.sol\":9754:10600  if(_offeredStake <= _stake) {... */\n      jump(tag_413)\n        /* \"contracts/Market.sol\":9927:10181  if(_side == 1){... */\n    tag_400:\n        /* \"contracts/Market.sol\":10066:10071  _side */\n      dup7\n        /* \"contracts/Market.sol\":10075:10076  2 */\n      0x02\n        /* \"contracts/Market.sol\":10066:10076  _side == 2 */\n      eq\n        /* \"contracts/Market.sol\":10063:10181  if(_side == 2){... */\n      iszero\n      tag_404\n      jumpi\n        /* \"contracts/Market.sol\":10106:10166  _createPair(_selectedHash,_betHash,makerAmount,betterAmount) */\n      tag_401\n        /* \"contracts/Market.sol\":10118:10131  _selectedHash */\n      dup6\n        /* \"contracts/Market.sol\":10132:10140  _betHash */\n      dup8\n        /* \"contracts/Market.sol\":10141:10152  makerAmount */\n      dup5\n        /* \"contracts/Market.sol\":10153:10165  betterAmount */\n      dup7\n        /* \"contracts/Market.sol\":10106:10117  _createPair */\n      tag_402\n        /* \"contracts/Market.sol\":10106:10166  _createPair(_selectedHash,_betHash,makerAmount,betterAmount) */\n      jump\t// in\n        /* \"contracts/Market.sol\":10063:10181  if(_side == 2){... */\n    tag_404:\n        /* \"contracts/Market.sol\":9754:10600  if(_offeredStake <= _stake) {... */\n      jump(tag_413)\n    tag_396:\n        /* \"contracts/Market.sol\":10234:10240  _stake */\n      dup10\n      swap3\n      pop\n        /* \"contracts/Market.sol\":10278:10289  _odds - 100 */\n      tag_407\n        /* \"contracts/Market.sol\":10286:10289  100 */\n      0x64\n        /* \"contracts/Market.sol\":10278:10283  _odds */\n      dup10\n        /* \"contracts/Market.sol\":10278:10289  _odds - 100 */\n      tag_170\n      jump\t// in\n    tag_407:\n        /* \"contracts/Market.sol\":10268:10290  _stake * (_odds - 100) */\n      tag_408\n      swap1\n        /* \"contracts/Market.sol\":10268:10274  _stake */\n      dup12\n        /* \"contracts/Market.sol\":10268:10290  _stake * (_odds - 100) */\n      tag_261\n      jump\t// in\n    tag_408:\n        /* \"contracts/Market.sol\":10254:10290  makerAmount = _stake * (_odds - 100) */\n      swap2\n      pop\n        /* \"contracts/Market.sol\":10304:10322  makerAmount /= 100 */\n      tag_409\n        /* \"contracts/Market.sol\":10319:10322  100 */\n      0x64\n        /* \"contracts/Market.sol\":10254:10290  makerAmount = _stake * (_odds - 100) */\n      dup4\n        /* \"contracts/Market.sol\":10304:10322  makerAmount /= 100 */\n      tag_263\n      jump\t// in\n    tag_409:\n      swap2\n      pop\n        /* \"contracts/Market.sol\":10339:10344  _side */\n      dup7\n        /* \"contracts/Market.sol\":10348:10349  1 */\n      0x01\n        /* \"contracts/Market.sol\":10339:10349  _side == 1 */\n      eq\n        /* \"contracts/Market.sol\":10336:10590  if(_side == 1){... */\n      iszero\n      tag_410\n      jumpi\n        /* \"contracts/Market.sol\":10379:10439  _createPair(_betHash,_selectedHash,betterAmount,makerAmount) */\n      tag_401\n        /* \"contracts/Market.sol\":10391:10399  _betHash */\n      dup7\n        /* \"contracts/Market.sol\":10400:10413  _selectedHash */\n      dup7\n        /* \"contracts/Market.sol\":10414:10426  betterAmount */\n      dup6\n        /* \"contracts/Market.sol\":10427:10438  makerAmount */\n      dup6\n        /* \"contracts/Market.sol\":10379:10390  _createPair */\n      tag_402\n        /* \"contracts/Market.sol\":10379:10439  _createPair(_betHash,_selectedHash,betterAmount,makerAmount) */\n      jump\t// in\n        /* \"contracts/Market.sol\":10336:10590  if(_side == 1){... */\n    tag_410:\n        /* \"contracts/Market.sol\":10475:10480  _side */\n      dup7\n        /* \"contracts/Market.sol\":10484:10485  2 */\n      0x02\n        /* \"contracts/Market.sol\":10475:10485  _side == 2 */\n      eq\n        /* \"contracts/Market.sol\":10472:10590  if(_side == 2){... */\n      iszero\n      tag_413\n      jumpi\n        /* \"contracts/Market.sol\":10515:10575  _createPair(_selectedHash,_betHash,makerAmount,betterAmount) */\n      tag_414\n        /* \"contracts/Market.sol\":10527:10540  _selectedHash */\n      dup6\n        /* \"contracts/Market.sol\":10541:10549  _betHash */\n      dup8\n        /* \"contracts/Market.sol\":10550:10561  makerAmount */\n      dup5\n        /* \"contracts/Market.sol\":10562:10574  betterAmount */\n      dup7\n        /* \"contracts/Market.sol\":10515:10526  _createPair */\n      tag_402\n        /* \"contracts/Market.sol\":10515:10575  _createPair(_selectedHash,_betHash,makerAmount,betterAmount) */\n      jump\t// in\n    tag_414:\n        /* \"contracts/Market.sol\":10504:10575  pairHash = _createPair(_selectedHash,_betHash,makerAmount,betterAmount) */\n      swap1\n      pop\n        /* \"contracts/Market.sol\":10472:10590  if(_side == 2){... */\n    tag_413:\n        /* \"contracts/Market.sol\":10609:10627  betPairs[_betHash] */\n      0x00\n      dup7\n      dup2\n      mstore\n        /* \"contracts/Market.sol\":10609:10617  betPairs */\n      0x12\n        /* \"contracts/Market.sol\":10609:10627  betPairs[_betHash] */\n      0x20\n      swap1\n      dup2\n      mstore\n      0x40\n      dup1\n      dup4\n      keccak256\n        /* \"contracts/Market.sol\":10609:10642  betPairs[_betHash].push(pairHash) */\n      dup1\n      sload\n      0x01\n      dup2\n      dup2\n      add\n      dup4\n      sstore\n      swap2\n      dup6\n      mstore\n      dup4\n      dup6\n      keccak256\n      add\n      dup6\n      swap1\n      sstore\n        /* \"contracts/Market.sol\":10652:10675  betPairs[_selectedHash] */\n      dup9\n      dup5\n      mstore\n      dup2\n      dup5\n      keccak256\n        /* \"contracts/Market.sol\":10652:10690  betPairs[_selectedHash].push(pairHash) */\n      dup1\n      sload\n      swap2\n      dup3\n      add\n      dup2\n      sstore\n      dup5\n      mstore\n      dup3\n      dup5\n      keccak256\n      add\n      dup5\n      swap1\n      sstore\n        /* \"contracts/Market.sol\":10700:10718  betsInfo[_betHash] */\n      dup9\n      dup4\n      mstore\n        /* \"contracts/Market.sol\":10700:10708  betsInfo */\n      0x10\n        /* \"contracts/Market.sol\":10700:10718  betsInfo[_betHash] */\n      swap1\n      swap2\n      mstore\n      dup2\n      keccak256\n        /* \"contracts/Market.sol\":10700:10726  betsInfo[_betHash].matched */\n      0x03\n      add\n        /* \"contracts/Market.sol\":10700:10742  betsInfo[_betHash].matched += betterAmount */\n      dup1\n      sload\n        /* \"contracts/Market.sol\":10730:10742  betterAmount */\n      dup6\n      swap3\n        /* \"contracts/Market.sol\":10609:10627  betPairs[_betHash] */\n      swap1\n        /* \"contracts/Market.sol\":10700:10742  betsInfo[_betHash].matched += betterAmount */\n      tag_417\n      swap1\n        /* \"contracts/Market.sol\":10730:10742  betterAmount */\n      dup5\n      swap1\n        /* \"contracts/Market.sol\":10700:10742  betsInfo[_betHash].matched += betterAmount */\n      tag_172\n      jump\t// in\n    tag_417:\n      swap1\n      swap2\n      sstore\n      pop\n      pop\n        /* \"contracts/Market.sol\":10752:10775  betsInfo[_selectedHash] */\n      0x00\n      dup6\n      dup2\n      mstore\n        /* \"contracts/Market.sol\":10752:10760  betsInfo */\n      0x10\n        /* \"contracts/Market.sol\":10752:10775  betsInfo[_selectedHash] */\n      0x20\n      mstore\n      0x40\n      dup2\n      keccak256\n        /* \"contracts/Market.sol\":10752:10783  betsInfo[_selectedHash].matched */\n      0x03\n      add\n        /* \"contracts/Market.sol\":10752:10798  betsInfo[_selectedHash].matched += makerAmount */\n      dup1\n      sload\n        /* \"contracts/Market.sol\":10787:10798  makerAmount */\n      dup5\n      swap3\n        /* \"contracts/Market.sol\":10752:10775  betsInfo[_selectedHash] */\n      swap1\n        /* \"contracts/Market.sol\":10752:10798  betsInfo[_selectedHash].matched += makerAmount */\n      tag_418\n      swap1\n        /* \"contracts/Market.sol\":10787:10798  makerAmount */\n      dup5\n      swap1\n        /* \"contracts/Market.sol\":10752:10798  betsInfo[_selectedHash].matched += makerAmount */\n      tag_172\n      jump\t// in\n    tag_418:\n      swap1\n      swap2\n      sstore\n      pop\n        /* \"contracts/Market.sol\":10815:10827  betterAmount */\n      swap3\n      swap11\n        /* \"contracts/Market.sol\":9449:10834  function _match(... */\n      swap10\n      pop\n      pop\n      pop\n      pop\n      pop\n      pop\n      pop\n      pop\n      pop\n      pop\n      jump\t// out\n        /* \"contracts/Market.sol\":14896:15635  function _createPair(... */\n    tag_402:\n        /* \"contracts/Market.sol\":15054:15061  bytes32 */\n      0x00\n        /* \"contracts/Market.sol\":15077:15093  bytes32 pairHash */\n      dup1\n        /* \"contracts/Market.sol\":15103:15109  uint i */\n      0x00\n        /* \"contracts/Market.sol\":15123:15476  while(i >= 0){... */\n    tag_420:\n        /* \"contracts/Market.sol\":15259:15264  pairs */\n      0x11\n        /* \"contracts/Market.sol\":15259:15271  pairs.length */\n      sload\n        /* \"contracts/Market.sol\":15205:15214  _betHashA */\n      dup8\n      swap1\n        /* \"contracts/Market.sol\":15232:15241  _betHashB */\n      dup8\n      swap1\n        /* \"contracts/Market.sol\":15278:15279  i */\n      dup4\n      swap1\n        /* \"contracts/Market.sol\":15259:15275  pairs.length + 1 */\n      tag_422\n      swap1\n        /* \"contracts/Market.sol\":15274:15275  1 */\n      0x01\n        /* \"contracts/Market.sol\":15259:15275  pairs.length + 1 */\n      tag_172\n      jump\t// in\n    tag_422:\n        /* \"contracts/Market.sol\":15259:15279  pairs.length + 1 + i */\n      tag_423\n      swap2\n      swap1\n      tag_172\n      jump\t// in\n    tag_423:\n        /* \"contracts/Market.sol\":15171:15360  abi.encodePacked(... */\n      0x40\n      dup1\n      mload\n      0x20\n      dup2\n      add\n        /* \"#utility.yul\":2554:2573   */\n      swap5\n      swap1\n      swap5\n      mstore\n        /* \"#utility.yul\":2589:2601   */\n      dup4\n      add\n        /* \"#utility.yul\":2582:2610   */\n      swap2\n      swap1\n      swap2\n      mstore\n        /* \"#utility.yul\":2626:2638   */\n      0x60\n      dup3\n      add\n        /* \"#utility.yul\":2619:2647   */\n      mstore\n        /* \"contracts/Market.sol\":15297:15312  block.timestamp */\n      timestamp\n        /* \"#utility.yul\":2663:2675   */\n      0x80\n      dup3\n      add\n        /* \"#utility.yul\":2656:2684   */\n      mstore\n        /* \"contracts/Market.sol\":15330:15346  block.difficulty */\n      difficulty\n        /* \"#utility.yul\":2700:2713   */\n      0xa0\n      dup3\n      add\n        /* \"#utility.yul\":2693:2722   */\n      mstore\n        /* \"#utility.yul\":2738:2751   */\n      0xc0\n      add\n        /* \"contracts/Market.sol\":15171:15360  abi.encodePacked(... */\n      0x40\n      dup1\n      mload\n      not(0x1f)\n      dup2\n      dup5\n      sub\n      add\n      dup2\n      mstore\n      swap2\n      dup2\n      mstore\n        /* \"contracts/Market.sol\":15161:15361  keccak256(abi.encodePacked(... */\n      dup2\n      mload\n        /* \"contracts/Market.sol\":15171:15360  abi.encodePacked(... */\n      0x20\n        /* \"contracts/Market.sol\":15161:15361  keccak256(abi.encodePacked(... */\n      swap3\n      dup4\n      add\n      keccak256\n        /* \"contracts/Market.sol\":15378:15397  pairsInfo[pairHash] */\n      0x00\n      dup2\n      dup2\n      mstore\n        /* \"contracts/Market.sol\":15378:15387  pairsInfo */\n      0x13\n        /* \"contracts/Market.sol\":15378:15397  pairsInfo[pairHash] */\n      swap1\n      swap4\n      mstore\n      swap2\n      keccak256\n        /* \"contracts/Market.sol\":15378:15405  pairsInfo[pairHash].amountA */\n      0x02\n      add\n      sload\n        /* \"contracts/Market.sol\":15161:15361  keccak256(abi.encodePacked(... */\n      swap1\n      swap3\n      pop\n        /* \"contracts/Market.sol\":15375:15449  if(pairsInfo[pairHash].amountA == 0){... */\n      tag_426\n      jumpi\n        /* \"contracts/Market.sol\":15429:15434  break */\n      jump(tag_421)\n        /* \"contracts/Market.sol\":15375:15449  if(pairsInfo[pairHash].amountA == 0){... */\n    tag_426:\n        /* \"contracts/Market.sol\":15462:15465  i++ */\n      dup1\n      tag_427\n      dup2\n      tag_152\n      jump\t// in\n    tag_427:\n      swap2\n      pop\n      pop\n        /* \"contracts/Market.sol\":15123:15476  while(i >= 0){... */\n      jump(tag_420)\n    tag_421:\n      pop\n        /* \"contracts/Market.sol\":15507:15573  Struct.MarketPair(_betHashA, _betHashB, _amountA, _amountB, false) */\n      0x40\n      dup1\n      mload\n      0xa0\n      dup2\n      add\n      dup3\n      mstore\n      swap7\n      dup8\n      mstore\n      0x20\n      dup1\n      dup9\n      add\n      swap7\n      dup8\n      mstore\n      dup8\n      dup3\n      add\n      swap6\n      dup7\n      mstore\n      0x60\n      dup9\n      add\n      swap5\n      dup6\n      mstore\n      0x00\n      0x80\n      dup10\n      add\n      dup2\n      dup2\n      mstore\n        /* \"contracts/Market.sol\":15485:15504  pairsInfo[pairHash] */\n      dup5\n      dup3\n      mstore\n        /* \"contracts/Market.sol\":15485:15494  pairsInfo */\n      0x13\n        /* \"contracts/Market.sol\":15485:15504  pairsInfo[pairHash] */\n      swap1\n      swap3\n      mstore\n      swap2\n      dup3\n      keccak256\n        /* \"contracts/Market.sol\":15485:15573  pairsInfo[pairHash] = Struct.MarketPair(_betHashA, _betHashB, _amountA, _amountB, false) */\n      swap8\n      mload\n      dup9\n      sstore\n      swap6\n      mload\n        /* \"contracts/Market.sol\":15507:15573  Struct.MarketPair(_betHashA, _betHashB, _amountA, _amountB, false) */\n      0x01\n        /* \"contracts/Market.sol\":15485:15573  pairsInfo[pairHash] = Struct.MarketPair(_betHashA, _betHashB, _amountA, _amountB, false) */\n      dup1\n      dup10\n      add\n      swap2\n      swap1\n      swap2\n      sstore\n      swap5\n      mload\n      0x02\n      dup9\n      add\n      sstore\n      swap3\n      mload\n      0x03\n      dup8\n      add\n      sstore\n      swap4\n      mload\n      0x04\n      swap1\n      swap6\n      add\n      dup1\n      sload\n      not(0xff)\n      and\n      swap6\n      iszero\n      iszero\n      swap6\n      swap1\n      swap6\n      or\n      swap1\n      swap5\n      sstore\n        /* \"contracts/Market.sol\":15583:15588  pairs */\n      0x11\n        /* \"contracts/Market.sol\":15583:15603  pairs.push(pairHash) */\n      dup1\n      sload\n      swap3\n      dup4\n      add\n      dup2\n      sstore\n      swap1\n      mstore\n      0x31ecc21a745e3968a04e9570e4425bc18fa8019c68028196b546d1669c200c68\n      add\n      dup2\n      swap1\n      sstore\n        /* \"contracts/Market.sol\":15485:15504  pairsInfo[pairHash] */\n      swap2\n        /* \"contracts/Market.sol\":14896:15635  function _createPair(... */\n      swap1\n      pop\n      jump\t// out\n        /* \"#utility.yul\":14:187   */\n    tag_430:\n        /* \"#utility.yul\":82:102   */\n      dup1\n      calldataload\n      sub(shl(0xa0, 0x01), 0x01)\n        /* \"#utility.yul\":131:162   */\n      dup2\n      and\n        /* \"#utility.yul\":121:163   */\n      dup2\n      eq\n        /* \"#utility.yul\":111:113   */\n      tag_189\n      jumpi\n        /* \"#utility.yul\":177:178   */\n      0x00\n        /* \"#utility.yul\":174:175   */\n      dup1\n        /* \"#utility.yul\":167:179   */\n      revert\n        /* \"#utility.yul\":192:388   */\n    tag_39:\n        /* \"#utility.yul\":251:257   */\n      0x00\n        /* \"#utility.yul\":304:306   */\n      0x20\n        /* \"#utility.yul\":292:301   */\n      dup3\n        /* \"#utility.yul\":283:290   */\n      dup5\n        /* \"#utility.yul\":279:302   */\n      sub\n        /* \"#utility.yul\":275:307   */\n      slt\n        /* \"#utility.yul\":272:274   */\n      iszero\n      tag_434\n      jumpi\n        /* \"#utility.yul\":325:331   */\n      dup1\n        /* \"#utility.yul\":317:323   */\n      dup2\n        /* \"#utility.yul\":310:332   */\n      revert\n        /* \"#utility.yul\":272:274   */\n    tag_434:\n        /* \"#utility.yul\":353:382   */\n      tag_435\n        /* \"#utility.yul\":372:381   */\n      dup3\n        /* \"#utility.yul\":353:382   */\n      tag_430\n      jump\t// in\n    tag_435:\n        /* \"#utility.yul\":343:382   */\n      swap4\n        /* \"#utility.yul\":262:388   */\n      swap3\n      pop\n      pop\n      pop\n      jump\t// out\n        /* \"#utility.yul\":393:924   */\n    tag_82:\n        /* \"#utility.yul\":485:491   */\n      0x00\n        /* \"#utility.yul\":493:499   */\n      dup1\n        /* \"#utility.yul\":501:507   */\n      0x00\n        /* \"#utility.yul\":509:515   */\n      dup1\n        /* \"#utility.yul\":517:523   */\n      0x00\n        /* \"#utility.yul\":570:573   */\n      0xa0\n        /* \"#utility.yul\":558:567   */\n      dup7\n        /* \"#utility.yul\":549:556   */\n      dup9\n        /* \"#utility.yul\":545:568   */\n      sub\n        /* \"#utility.yul\":541:574   */\n      slt\n        /* \"#utility.yul\":538:540   */\n      iszero\n      tag_437\n      jumpi\n        /* \"#utility.yul\":592:598   */\n      dup1\n        /* \"#utility.yul\":584:590   */\n      dup2\n        /* \"#utility.yul\":577:599   */\n      revert\n        /* \"#utility.yul\":538:540   */\n    tag_437:\n        /* \"#utility.yul\":620:649   */\n      tag_438\n        /* \"#utility.yul\":639:648   */\n      dup7\n        /* \"#utility.yul\":620:649   */\n      tag_430\n      jump\t// in\n    tag_438:\n        /* \"#utility.yul\":610:649   */\n      swap5\n      pop\n        /* \"#utility.yul\":696:698   */\n      0x20\n        /* \"#utility.yul\":685:694   */\n      dup7\n        /* \"#utility.yul\":681:699   */\n      add\n        /* \"#utility.yul\":668:700   */\n      calldataload\n        /* \"#utility.yul\":658:700   */\n      swap4\n      pop\n        /* \"#utility.yul\":747:749   */\n      0x40\n        /* \"#utility.yul\":736:745   */\n      dup7\n        /* \"#utility.yul\":732:750   */\n      add\n        /* \"#utility.yul\":719:751   */\n      calldataload\n        /* \"#utility.yul\":709:751   */\n      swap3\n      pop\n        /* \"#utility.yul\":798:800   */\n      0x60\n        /* \"#utility.yul\":787:796   */\n      dup7\n        /* \"#utility.yul\":783:801   */\n      add\n        /* \"#utility.yul\":770:802   */\n      calldataload\n        /* \"#utility.yul\":760:802   */\n      swap2\n      pop\n        /* \"#utility.yul\":852:855   */\n      0x80\n        /* \"#utility.yul\":841:850   */\n      dup7\n        /* \"#utility.yul\":837:856   */\n      add\n        /* \"#utility.yul\":824:857   */\n      calldataload\n        /* \"#utility.yul\":866:894   */\n      tag_439\n        /* \"#utility.yul\":888:893   */\n      dup2\n        /* \"#utility.yul\":866:894   */\n      tag_440\n      jump\t// in\n    tag_439:\n        /* \"#utility.yul\":913:918   */\n      dup1\n        /* \"#utility.yul\":903:918   */\n      swap2\n      pop\n      pop\n        /* \"#utility.yul\":528:924   */\n      swap3\n      swap6\n      pop\n      swap3\n      swap6\n      swap1\n      swap4\n      pop\n      jump\t// out\n        /* \"#utility.yul\":929:1184   */\n    tag_137:\n        /* \"#utility.yul\":996:1002   */\n      0x00\n        /* \"#utility.yul\":1049:1051   */\n      0x20\n        /* \"#utility.yul\":1037:1046   */\n      dup3\n        /* \"#utility.yul\":1028:1035   */\n      dup5\n        /* \"#utility.yul\":1024:1047   */\n      sub\n        /* \"#utility.yul\":1020:1052   */\n      slt\n        /* \"#utility.yul\":1017:1019   */\n      iszero\n      tag_442\n      jumpi\n        /* \"#utility.yul\":1070:1076   */\n      dup1\n        /* \"#utility.yul\":1062:1068   */\n      dup2\n        /* \"#utility.yul\":1055:1077   */\n      revert\n        /* \"#utility.yul\":1017:1019   */\n    tag_442:\n        /* \"#utility.yul\":1107:1116   */\n      dup2\n        /* \"#utility.yul\":1101:1117   */\n      mload\n        /* \"#utility.yul\":1126:1154   */\n      tag_435\n        /* \"#utility.yul\":1148:1153   */\n      dup2\n        /* \"#utility.yul\":1126:1154   */\n      tag_440\n      jump\t// in\n        /* \"#utility.yul\":1189:1379   */\n    tag_30:\n        /* \"#utility.yul\":1248:1254   */\n      0x00\n        /* \"#utility.yul\":1301:1303   */\n      0x20\n        /* \"#utility.yul\":1289:1298   */\n      dup3\n        /* \"#utility.yul\":1280:1287   */\n      dup5\n        /* \"#utility.yul\":1276:1299   */\n      sub\n        /* \"#utility.yul\":1272:1304   */\n      slt\n        /* \"#utility.yul\":1269:1271   */\n      iszero\n      tag_445\n      jumpi\n        /* \"#utility.yul\":1322:1328   */\n      dup1\n        /* \"#utility.yul\":1314:1320   */\n      dup2\n        /* \"#utility.yul\":1307:1329   */\n      revert\n        /* \"#utility.yul\":1269:1271   */\n    tag_445:\n      pop\n        /* \"#utility.yul\":1350:1373   */\n      calldataload\n      swap2\n        /* \"#utility.yul\":1259:1379   */\n      swap1\n      pop\n      jump\t// out\n        /* \"#utility.yul\":1579:1773   */\n    tag_126:\n        /* \"#utility.yul\":1649:1655   */\n      0x00\n        /* \"#utility.yul\":1702:1704   */\n      0x20\n        /* \"#utility.yul\":1690:1699   */\n      dup3\n        /* \"#utility.yul\":1681:1688   */\n      dup5\n        /* \"#utility.yul\":1677:1700   */\n      sub\n        /* \"#utility.yul\":1673:1705   */\n      slt\n        /* \"#utility.yul\":1670:1672   */\n      iszero\n      tag_449\n      jumpi\n        /* \"#utility.yul\":1723:1729   */\n      dup1\n        /* \"#utility.yul\":1715:1721   */\n      dup2\n        /* \"#utility.yul\":1708:1730   */\n      revert\n        /* \"#utility.yul\":1670:1672   */\n    tag_449:\n      pop\n        /* \"#utility.yul\":1751:1767   */\n      mload\n      swap2\n        /* \"#utility.yul\":1660:1773   */\n      swap1\n      pop\n      jump\t// out\n        /* \"#utility.yul\":4534:5169   */\n    tag_33:\n        /* \"#utility.yul\":4705:4707   */\n      0x20\n        /* \"#utility.yul\":4757:4778   */\n      dup1\n      dup3\n      mstore\n        /* \"#utility.yul\":4827:4840   */\n      dup3\n      mload\n        /* \"#utility.yul\":4730:4748   */\n      dup3\n      dup3\n      add\n        /* \"#utility.yul\":4849:4871   */\n      dup2\n      swap1\n      mstore\n        /* \"#utility.yul\":4676:4680   */\n      0x00\n      swap2\n        /* \"#utility.yul\":4705:4707   */\n      swap1\n        /* \"#utility.yul\":4928:4943   */\n      dup5\n      dup3\n      add\n      swap1\n        /* \"#utility.yul\":4902:4904   */\n      0x40\n        /* \"#utility.yul\":4887:4905   */\n      dup6\n      add\n      swap1\n        /* \"#utility.yul\":4676:4680   */\n      dup5\n        /* \"#utility.yul\":4974:5143   */\n    tag_458:\n        /* \"#utility.yul\":4988:4994   */\n      dup2\n        /* \"#utility.yul\":4985:4986   */\n      dup2\n        /* \"#utility.yul\":4982:4995   */\n      lt\n        /* \"#utility.yul\":4974:5143   */\n      iszero\n      tag_460\n      jumpi\n        /* \"#utility.yul\":5049:5062   */\n      dup4\n      mload\n        /* \"#utility.yul\":5037:5063   */\n      dup4\n      mstore\n        /* \"#utility.yul\":5118:5133   */\n      swap3\n      dup5\n      add\n      swap3\n        /* \"#utility.yul\":5083:5095   */\n      swap2\n      dup5\n      add\n      swap2\n        /* \"#utility.yul\":5010:5011   */\n      0x01\n        /* \"#utility.yul\":5003:5012   */\n      add\n        /* \"#utility.yul\":4974:5143   */\n      jump(tag_458)\n    tag_460:\n      pop\n        /* \"#utility.yul\":5160:5163   */\n      swap1\n      swap7\n        /* \"#utility.yul\":4685:5169   */\n      swap6\n      pop\n      pop\n      pop\n      pop\n      pop\n      pop\n      jump\t// out\n        /* \"#utility.yul\":9004:9329   */\n    tag_159:\n        /* \"#utility.yul\":9206:9208   */\n      0x20\n        /* \"#utility.yul\":9188:9209   */\n      dup1\n      dup3\n      mstore\n        /* \"#utility.yul\":9245:9246   */\n      0x02\n        /* \"#utility.yul\":9225:9243   */\n      swap1\n      dup3\n      add\n        /* \"#utility.yul\":9218:9247   */\n      mstore\n      shl(0xf1, 0x2699)\n        /* \"#utility.yul\":9278:9280   */\n      0x40\n        /* \"#utility.yul\":9263:9281   */\n      dup3\n      add\n        /* \"#utility.yul\":9256:9288   */\n      mstore\n        /* \"#utility.yul\":9320:9322   */\n      0x60\n        /* \"#utility.yul\":9305:9323   */\n      add\n      swap1\n        /* \"#utility.yul\":9178:9329   */\n      jump\t// out\n        /* \"#utility.yul\":11005:11133   */\n    tag_172:\n        /* \"#utility.yul\":11045:11048   */\n      0x00\n        /* \"#utility.yul\":11076:11077   */\n      dup3\n        /* \"#utility.yul\":11072:11078   */\n      not\n        /* \"#utility.yul\":11069:11070   */\n      dup3\n        /* \"#utility.yul\":11066:11079   */\n      gt\n        /* \"#utility.yul\":11063:11065   */\n      iszero\n      tag_480\n      jumpi\n        /* \"#utility.yul\":11082:11100   */\n      tag_480\n      tag_481\n      jump\t// in\n    tag_480:\n      pop\n        /* \"#utility.yul\":11118:11127   */\n      add\n      swap1\n        /* \"#utility.yul\":11053:11133   */\n      jump\t// out\n        /* \"#utility.yul\":11138:11355   */\n    tag_263:\n        /* \"#utility.yul\":11178:11179   */\n      0x00\n        /* \"#utility.yul\":11204:11205   */\n      dup3\n        /* \"#utility.yul\":11194:11196   */\n      tag_483\n      jumpi\n      shl(0xe0, 0x4e487b71)\n        /* \"#utility.yul\":11229:11260   */\n      dup2\n      mstore\n        /* \"#utility.yul\":11283:11287   */\n      0x12\n        /* \"#utility.yul\":11280:11281   */\n      0x04\n        /* \"#utility.yul\":11273:11288   */\n      mstore\n        /* \"#utility.yul\":11311:11315   */\n      0x24\n        /* \"#utility.yul\":11236:11237   */\n      dup2\n        /* \"#utility.yul\":11301:11316   */\n      revert\n        /* \"#utility.yul\":11194:11196   */\n    tag_483:\n      pop\n        /* \"#utility.yul\":11340:11349   */\n      div\n      swap1\n        /* \"#utility.yul\":11184:11355   */\n      jump\t// out\n        /* \"#utility.yul\":11360:11528   */\n    tag_261:\n        /* \"#utility.yul\":11400:11407   */\n      0x00\n        /* \"#utility.yul\":11466:11467   */\n      dup2\n        /* \"#utility.yul\":11462:11463   */\n      0x00\n        /* \"#utility.yul\":11458:11464   */\n      not\n        /* \"#utility.yul\":11454:11468   */\n      div\n        /* \"#utility.yul\":11451:11452   */\n      dup4\n        /* \"#utility.yul\":11448:11469   */\n      gt\n        /* \"#utility.yul\":11443:11444   */\n      dup3\n        /* \"#utility.yul\":11436:11445   */\n      iszero\n        /* \"#utility.yul\":11429:11446   */\n      iszero\n        /* \"#utility.yul\":11425:11470   */\n      and\n        /* \"#utility.yul\":11422:11424   */\n      iszero\n      tag_486\n      jumpi\n        /* \"#utility.yul\":11473:11491   */\n      tag_486\n      tag_481\n      jump\t// in\n    tag_486:\n      pop\n        /* \"#utility.yul\":11513:11522   */\n      mul\n      swap1\n        /* \"#utility.yul\":11412:11528   */\n      jump\t// out\n        /* \"#utility.yul\":11533:11658   */\n    tag_170:\n        /* \"#utility.yul\":11573:11577   */\n      0x00\n        /* \"#utility.yul\":11601:11602   */\n      dup3\n        /* \"#utility.yul\":11598:11599   */\n      dup3\n        /* \"#utility.yul\":11595:11603   */\n      lt\n        /* \"#utility.yul\":11592:11594   */\n      iszero\n      tag_489\n      jumpi\n        /* \"#utility.yul\":11606:11624   */\n      tag_489\n      tag_481\n      jump\t// in\n    tag_489:\n      pop\n        /* \"#utility.yul\":11643:11652   */\n      sub\n      swap1\n        /* \"#utility.yul\":11582:11658   */\n      jump\t// out\n        /* \"#utility.yul\":11663:11798   */\n    tag_152:\n        /* \"#utility.yul\":11702:11705   */\n      0x00\n      not(0x00)\n        /* \"#utility.yul\":11723:11740   */\n      dup3\n      eq\n        /* \"#utility.yul\":11720:11722   */\n      iszero\n      tag_492\n      jumpi\n        /* \"#utility.yul\":11743:11761   */\n      tag_492\n      tag_481\n      jump\t// in\n    tag_492:\n      pop\n        /* \"#utility.yul\":11790:11791   */\n      0x01\n        /* \"#utility.yul\":11779:11792   */\n      add\n      swap1\n        /* \"#utility.yul\":11710:11798   */\n      jump\t// out\n        /* \"#utility.yul\":11803:11930   */\n    tag_481:\n        /* \"#utility.yul\":11864:11874   */\n      0x4e487b71\n        /* \"#utility.yul\":11859:11862   */\n      0xe0\n        /* \"#utility.yul\":11855:11875   */\n      shl\n        /* \"#utility.yul\":11852:11853   */\n      0x00\n        /* \"#utility.yul\":11845:11876   */\n      mstore\n        /* \"#utility.yul\":11895:11899   */\n      0x11\n        /* \"#utility.yul\":11892:11893   */\n      0x04\n        /* \"#utility.yul\":11885:11900   */\n      mstore\n        /* \"#utility.yul\":11919:11923   */\n      0x24\n        /* \"#utility.yul\":11916:11917   */\n      0x00\n        /* \"#utility.yul\":11909:11924   */\n      revert\n        /* \"#utility.yul\":11935:12053   */\n    tag_440:\n        /* \"#utility.yul\":12021:12026   */\n      dup1\n        /* \"#utility.yul\":12014:12027   */\n      iszero\n        /* \"#utility.yul\":12007:12028   */\n      iszero\n        /* \"#utility.yul\":12000:12005   */\n      dup2\n        /* \"#utility.yul\":11997:12029   */\n      eq\n        /* \"#utility.yul\":11987:11989   */\n      tag_108\n      jumpi\n        /* \"#utility.yul\":12043:12044   */\n      0x00\n        /* \"#utility.yul\":12040:12041   */\n      dup1\n        /* \"#utility.yul\":12033:12045   */\n      revert\n\n    auxdata: 0xa2646970667358221220fd99d4729a52f87d664d3f71612e9af67b1d27e31351e584e248a1f784f919c264736f6c63430008040033\n}\n",
				"bytecode": {
					"linkReferences": {},
					"object": "60a0604052600b80546001600160a01b031916331790553480156200002357600080fd5b5060405162002a5b38038062002a5b833981016040819052620000469162000606565b60016000556040805161014081018252828152336020820152600b548251631e55833360e31b81526004810185905291928301916001600160a01b039091169063f2ac19989060240160206040518083038186803b158015620000a857600080fd5b505afa158015620000bd573d6000803e3d6000fd5b505050506040513d601f19601f82011682018060405250810190620000e39190620005d6565b6001600160a01b03168152602001600b60009054906101000a90046001600160a01b03166001600160a01b031663b7640a546040518163ffffffff1660e01b815260040160206040518083038186803b1580156200014057600080fd5b505afa15801562000155573d6000803e3d6000fd5b505050506040513d601f19601f820116820180604052508101906200017b9190620005d6565b6001600160a01b03168152602001600b60009054906101000a90046001600160a01b03166001600160a01b03166309953b2f6040518163ffffffff1660e01b815260040160206040518083038186803b158015620001d857600080fd5b505afa158015620001ed573d6000803e3d6000fd5b505050506040513d601f19601f82011682018060405250810190620002139190620005d6565b6001600160a01b03168152602001600b60009054906101000a90046001600160a01b03166001600160a01b031663375b3c0a6040518163ffffffff1660e01b815260040160206040518083038186803b1580156200027057600080fd5b505afa15801562000285573d6000803e3d6000fd5b505050506040513d601f19601f82011682018060405250810190620002ab919062000606565b8152600b54604080516355c4a8bf60e01b815290516020938401936001600160a01b03909316926355c4a8bf9260048082019391829003018186803b158015620002f457600080fd5b505afa15801562000309573d6000803e3d6000fd5b505050506040513d601f19601f820116820180604052508101906200032f919062000606565b8152600b5460408051631533469760e21b815290516020938401936001600160a01b03909316926354cd1a5c9260048082019391829003018186803b1580156200037857600080fd5b505afa1580156200038d573d6000803e3d6000fd5b505050506040513d601f19601f82011682018060405250810190620003b3919062000606565b8152600b54604080516328576d4560e01b815290516020938401936001600160a01b03909316926328576d459260048082019391829003018186803b158015620003fc57600080fd5b505afa15801562000411573d6000803e3d6000fd5b505050506040513d601f19601f8201168201806040525081019062000437919062000606565b8152600b5460408051636a0ccd9d60e01b815290516020938401936001600160a01b0390931692636a0ccd9d9260048082019391829003018186803b1580156200048057600080fd5b505afa15801562000495573d6000803e3d6000fd5b505050506040513d601f19601f82011682018060405250810190620004bb919062000606565b90528051600155602080820151600280546001600160a01b03199081166001600160a01b039384161790915560408085015160038054841691851691909117905560608501516004805484169185169190911781556080860151600580549094169085161790925560a085015160065560c085015160075560e085015160085561010085015160095561012090940151600a55600b54845162966ed960e31b815294519216936304b376c8938183019390929091829003018186803b1580156200058457600080fd5b505afa15801562000599573d6000803e3d6000fd5b505050506040513d601f19601f82011682018060405250810190620005bf9190620005d6565b60601b6001600160601b031916608052506200061f565b600060208284031215620005e8578081fd5b81516001600160a01b0381168114620005ff578182fd5b9392505050565b60006020828403121562000618578081fd5b5051919050565b60805160601c6124016200065a6000396000818161061e0152818161073001528181610e1501528181610f02015261103301526124016000f3fe608060405234801561001057600080fd5b50600436106101165760003560e01c80637d7f9232116100a2578063b8e5303d11610071578063b8e5303d14610263578063ba8006c614610334578063d0ed729514610347578063ea8a1af01461035a578063f8b2cb4f1461036257600080fd5b80637d7f92321461022d5780638df8280014610240578063a6afd5fd14610253578063ae8cd0901461025b57600080fd5b806337e8c09e116100e957806337e8c09e1461017f57806351cff8d9146101e7578063675f65371461020a5780636bef02671461021d578063767eb5ef1461022557600080fd5b8063200d2ed21461011b57806325c22a45146101375780632940ff1e146101575780632d56657d1461016c575b600080fd5b610124600c5481565b6040519081526020015b60405180910390f35b61014a61014536600461228e565b61038b565b60405161012e91906122be565b61016a61016536600461228e565b6103ed565b005b61014a61017a3660046121fe565b61047b565b61019261018d36600461228e565b6104e5565b60405161012e919081516001600160a01b0390811682526020808401519091169082015260408083015190820152606080830151908201526080808301519082015260a0918201519181019190915260c00190565b6101fa6101f53660046121fe565b610595565b604051901515815260200161012e565b61016a61021836600461228e565b610850565b6101fa610925565b61014a61097f565b61016a61023b36600461228e565b6109d7565b6101fa61024e36600461228e565b610afa565b61014a610bb2565b6101fa610c08565b6102f061027136600461228e565b6040805160a08101825260008082526020820181905291810182905260608101829052608081019190915250600090815260136020908152604091829020825160a081018452815481526001820154928101929092526002810154928201929092526003820154606082015260049091015460ff161515608082015290565b60405161012e9190600060a0820190508251825260208301516020830152604083015160408301526060830151606083015260808301511515608083015292915050565b61012461034236600461221f565b610cc2565b6101fa61035536600461228e565b611395565b6101fa611426565b6101246103703660046121fe565b6001600160a01b03166000908152600d602052604090205490565b6000818152601260209081526040918290208054835181840281018401909452808452606093928301828280156103e157602002820191906000526020600020905b8154815260200190600101908083116103cd575b50505050509050919050565b6000818152601060205260409020546001600160a01b0316331461044e5760405162461bcd60e51b81526020600482015260136024820152723ab730baba3437b934bd32b21031b0b63632b960691b60448201526064015b60405180910390fd5b600c54158061045f5750600c546003145b1561046f5761046d81611489565b505b610478816109d7565b50565b6001600160a01b0381166000908152600f60209081526040918290208054835181840281018401909452808452606093928301828280156103e157602002820191906000526020600020908154815260200190600101908083116103cd5750505050509050919050565b6105306040518060c0016040528060006001600160a01b0316815260200160006001600160a01b03168152602001600081526020016000815260200160008152602001600081525090565b50600090815260106020908152604091829020825160c08101845281546001600160a01b03908116825260018301541692810192909252600281015492820192909252600382015460608201526004820154608082015260059091015460a082015290565b6000600260005414156105ea5760405162461bcd60e51b815260206004820152601f60248201527f5265656e7472616e637947756172643a207265656e7472616e742063616c6c006044820152606401610445565b600260009081556001600160a01b038381168252600d6020526040918290205491516370a0823160e01b81523060048201527f0000000000000000000000000000000000000000000000000000000000000000909116906370a082319060240160206040518083038186803b15801561066257600080fd5b505afa158015610676573d6000803e3d6000fd5b505050506040513d601f19601f8201168201806040525081019061069a91906122a6565b101580156106bf57506001600160a01b0382166000908152600d602052604090205415155b6106f05760405162461bcd60e51b81526020600482015260026024820152614d3360f01b6044820152606401610445565b6001600160a01b038281166000818152600d6020526040808220805490839055905163a9059cbb60e01b81526004810193909352602483018190529290917f00000000000000000000000000000000000000000000000000000000000000009091169063a9059cbb90604401602060405180830381600087803b15801561077657600080fd5b505af115801561078a573d6000803e3d6000fd5b505050506040513d601f19601f820116820180604052508101906107ae9190612272565b9050806107fd5760405162461bcd60e51b815260206004820152601960248201527f7472616e7366657220746f2063616c6c6572206661696c6564000000000000006044820152606401610445565b604080516001600160a01b0386168152602081018490527f884edad9ce6fa2440d8a54cc123490eb96d2768479d49ff9c7366125a9424364910160405180910390a16001925050505b6001600055919050565b6000818152601260209081526040808320805482518185028101850190935280835291929091908301828280156108a657602002820191906000526020600020905b815481526020019060010190808311610892575b505083519394506000925050505b818110156108ff576108ec8382815181106108df57634e487b7160e01b600052603260045260246000fd5b602002602001015161194c565b50806108f78161238c565b9150506108b4565b50336000908152600d6020526040902054156109205761091e33610595565b505b505050565b6003546000906001600160a01b031633148061094b57506002546001600160a01b031633145b6109675760405162461bcd60e51b815260040161044590612302565b600c5461097957506004600c55600190565b50600090565b606060118054806020026020016040519081016040528092919081815260200182805480156109cd57602002820191906000526020600020905b8154815260200190600101908083116109b9575b5050505050905090565b600081815260106020908152604091829020825160c08101845281546001600160a01b0390811680835260018401549091169382019390935260028201549381019390935260038101546060840152600481015460808401526005015460a08301523314610a7d5760405162461bcd60e51b81526020600482015260136024820152723ab730baba3437b934bd32b21031b0b63632b960691b6044820152606401610445565b600081606001518260400151610a939190612375565b82516001600160a01b03166000908152600d6020526040812080549293508392909190610ac190849061231e565b909155505060408083015160008581526010602090815283822060030192909255338152600d9091522054156109205761091e33610595565b6003546000906001600160a01b0316331480610b2057506002546001600160a01b031633145b610b3c5760405162461bcd60e51b815260040161044590612302565b610b4582611395565b15610ba95760115460005b81811015610b9f57610b8c60118281548110610b7c57634e487b7160e01b600052603260045260246000fd5b906000526020600020015461194c565b5080610b978161238c565b915050610b50565b5060019392505050565b5060005b919050565b6060600e8054806020026020016040519081016040528092919081815260200182805480156109cd57602002820191906000526020600020908154815260200190600101908083116109b9575050505050905090565b6003546000906001600160a01b0316331480610c2e57506002546001600160a01b031633145b610c4a5760405162461bcd60e51b815260040161044590612302565b600c541580610c5b5750600c546004145b156109795760115460005b81811015610cb557610ca260118281548110610c9257634e487b7160e01b600052603260045260246000fd5b9060005260206000200154611cdf565b5080610cad8161238c565b915050610c66565b50506003600c5550600190565b600b5460405163332daccf60e01b81523360048201526000916001600160a01b03169063332daccf9060240160206040518083038186803b158015610d0657600080fd5b505afa158015610d1a573d6000803e3d6000fd5b505050506040513d601f19601f82011682018060405250810190610d3e9190612272565b15610d705760405162461bcd60e51b81526020600482015260026024820152614d3160f01b6044820152606401610445565b600c5415610db45760405162461bcd60e51b81526020600482015260116024820152706d61726b6574206e6f742061637469766560781b6044820152606401610445565b8260011480610dc35750826002145b610dfe5760405162461bcd60e51b815260206004820152600c60248201526b696e76616c6964207369646560a01b6044820152606401610445565b6040516370a0823160e01b815233600482015285907f00000000000000000000000000000000000000000000000000000000000000006001600160a01b0316906370a082319060240160206040518083038186803b158015610e5f57600080fd5b505afa158015610e73573d6000803e3d6000fd5b505050506040513d601f19601f82011682018060405250810190610e9791906122a6565b1015610ee55760405162461bcd60e51b815260206004820152601960248201527f6e6f7420656e6f75676820746f6b656e2062616c616c6e6365000000000000006044820152606401610445565b604051636eb1769f60e11b815233600482015230602482015285907f00000000000000000000000000000000000000000000000000000000000000006001600160a01b03169063dd62ed3e9060440160206040518083038186803b158015610f4c57600080fd5b505afa158015610f60573d6000803e3d6000fd5b505050506040513d601f19601f82011682018060405250810190610f8491906122a6565b1015610fc95760405162461bcd60e51b81526020600482015260146024820152736e6f7420656e6f75676820616c6c6f77616e636560601b6044820152606401610445565b6006548510156110115760405162461bcd60e51b81526020600482015260136024820152726c657373207468616e206d696e207374616b6560681b6044820152606401610445565b6040516323b872dd60e01b8152336004820152306024820152604481018690527f00000000000000000000000000000000000000000000000000000000000000006001600160a01b0316906323b872dd90606401602060405180830381600087803b15801561107f57600080fd5b505af1158015611093573d6000803e3d6000fd5b505050506040513d601f19601f820116820180604052508101906110b79190612272565b6111035760405162461bcd60e51b815260206004820152601b60248201527f7472616e736665722066726f6d2063616c6c6572206661696c656400000000006044820152606401610445565b60006111323388888461111760648b612375565b6111228b6064612356565b61112c9190612336565b89611dc1565b600e549091501561133657600e5486905b60065482106113335760008060005b8381101561121b576000600e828154811061117d57634e487b7160e01b600052603260045260246000fd5b9060005260206000200154905060106000828152602001908152602001600020600501548a14156111ae5750611209565b6000818152601060205260409020546001600160a01b03163314156111d35750611209565b6000818152601060205260409020600401548310156112075760008181526010602052604090206004015491935090915082905b505b806112138161238c565b915050611152565b506000898210158061123557506000821180156112355750875b15611317576000600e848154811061125d57634e487b7160e01b600052603260045260246000fd5b6000918252602080832090910154808352601082526040808420815160c08101835281546001600160a01b0390811682526001830154169481019490945260028101549184019190915260038101546060840152600481015460808401526005015460a08301529250906112d260648e612375565b826060015183604001516112e69190612375565b6112f09190612336565b90506112fd606482612356565b905061130d8e828f8f8d88611f69565b935050505061131f565b505050611333565b6113298186612375565b9450505050611143565b50505b60408051338152306020820152908101829052606081018790526080810186905260a081018590527f618f358bb45538682ade624a4a1959053d9dabd20fe300508034b879681b37be9060c00160405180910390a19695505050505050565b6003546000906001600160a01b03163314806113bb57506002546001600160a01b031633145b6113d75760405162461bcd60e51b815260040161044590612302565b600c5415806113e85750600c546001145b806113f55750600c546002145b806114025750600c546004145b8015611418575081600114806114185750816002145b15610ba95750600c55600190565b6003546000906001600160a01b031633148061144c57506002546001600160a01b031633145b6114685760405162461bcd60e51b815260040161044590612302565b600c5415806114795750600c546004145b1561097957506003600c55600190565b6000818152601060209081526040808320815160c08101835281546001600160a01b03908116825260018301541681850152600282015481840152600382015460608201526004820154608082015260059091015460a082015284845260128352818420805483518186028101860190945280845291938593929083018282801561153357602002820191906000526020600020905b81548152602001906001019080831161151f575b505083519394506000925050505b81811015611940576013600084838151811061156d57634e487b7160e01b600052603260045260246000fd5b60209081029190910181015182528101919091526040016000206004015460ff16156115985761192e565b6000806000808760a001516001141561167057601360008887815181106115cf57634e487b7160e01b600052603260045260246000fd5b602002602001015181526020019081526020016000206002015491506013600088878151811061160f57634e487b7160e01b600052603260045260246000fd5b602002602001015181526020019081526020016000206001015493506013600088878151811061164f57634e487b7160e01b600052603260045260246000fd5b6020026020010151815260200190815260200160002060030154925061173e565b8760a001516002141561173e57601360008887815181106116a157634e487b7160e01b600052603260045260246000fd5b60200260200101518152602001908152602001600020600301549150601360008887815181106116e157634e487b7160e01b600052603260045260246000fd5b602002602001015181526020019081526020016000206000015493506013600088878151811061172157634e487b7160e01b600052603260045260246000fd5b602002602001015181526020019081526020016000206002015492505b506000838152601060205260409020546007546001600160a01b039091169060649061176a9082612375565b6117749084612356565b61177e9190612336565b88516001600160a01b03166000908152600d6020526040812080549091906117a790849061231e565b9091555050600084815260106020526040812060030180548592906117cd908490612375565b90915550506007546000906064906117e59085612356565b6117ef9190612336565b600a549091506064906118029083612356565b61180c9190612336565b6004546001600160a01b03166000908152600d60205260408120805490919061183690849061231e565b909155505060095460649061184b9083612356565b6118559190612336565b6005546001600160a01b03166000908152600d60205260408120805490919061187f90849061231e565b90915550506008546064906118949083612356565b61189e9190612336565b6020808b01516001600160a01b03166000908152600d9091526040812080549091906118cb90849061231e565b925050819055506001601360008a89815181106118f857634e487b7160e01b600052603260045260246000fd5b6020026020010151815260200190815260200160002060040160006101000a81548160ff02191690831515021790555050505050505b806119388161238c565b915050611541565b50600195945050505050565b6000600260005414156119a15760405162461bcd60e51b815260206004820152601f60248201527f5265656e7472616e637947756172643a207265656e7472616e742063616c6c006044820152606401610445565b600260009081558281526013602052604090206004015460ff16156119c857506000610846565b600080600080600c5460011415611ab457600086815260136020908152604080832054835260109091529020546007546001600160a01b039091169450606490611a129082612375565b600088815260136020526040902060030154611a2e9190612356565b611a389190612336565b600087815260136020526040902060020154611a54919061231e565b600754600088815260136020526040902060030154919350606491611a799190612356565b611a839190612336565b600087815260136020908152604080832054835260109091529020600101546001600160a01b031693509050611bae565b600c5460021415611ba157600086815260136020908152604080832060010154835260109091529020546007546001600160a01b039091169450606490611afb9082612375565b600088815260136020526040902060020154611b179190612356565b611b219190612336565b600087815260136020526040902060030154611b3d919061231e565b600754600088815260136020526040902060020154919350606491611b629190612356565b611b6c9190612336565b60008781526013602090815260408083206001908101548452601090925290912001546001600160a01b031693509050611bae565b6000945050505050610846565b6001600160a01b0384166000908152600d602052604081208054849290611bd690849061231e565b9091555050600a54606490611beb9083612356565b611bf59190612336565b6004546001600160a01b03166000908152600d602052604081208054909190611c1f90849061231e565b9091555050600954606490611c349083612356565b611c3e9190612336565b6005546001600160a01b03166000908152600d602052604081208054909190611c6890849061231e565b9091555050600854606490611c7d9083612356565b611c879190612336565b6001600160a01b0384166000908152600d602052604081208054909190611caf90849061231e565b909155505050600094855250506013602052505060408120600401805460ff191660019081179091559081905590565b60008181526013602052604081206004015460ff1615611d0157506000919050565b600082815260136020908152604080832080548452601083528184205460018201548552828520546002909201546001600160a01b03918216808752600d909552928520805494959190921693611d5990849061231e565b90915550506000848152601360209081526040808320600301546001600160a01b0385168452600d9092528220805491929091611d9790849061231e565b90915550505060009283525050601360205260409020600401805460ff1916600190811790915590565b60008060005b600e54899030908390611ddb90600161231e565b611de5919061231e565b6040516bffffffffffffffffffffffff19606094851b811660208301529290931b9091166034830152604882015242606882015244608882015260a80160408051601f19818403018152918152815160209283012060008181526010909352912060020154909250611e5657611e68565b80611e608161238c565b915050611dc7565b6001600160a01b038816611e85576005546001600160a01b031697505b506040805160c0810182526001600160a01b03998a16808252988a166020808301918252828401998a52606083019889526080830197885260a0830196875260008581526010825284812093518454908e166001600160a01b031991821617855592516001808601805492909f169190941617909c55985160028301559651600382015594516004860155925160059094019390935550600e80548085019091557fbb7b4a454dc3493923482f07822329ed19e8244eff582cc204f8554c3620c3fd01829055938552600f8352928420805491820181558452922090910181905590565b600080600080898911611fd357889250611f84606489612375565b611f8e908a612356565b9150611f9b606483612336565b91508660011415611fb957611fb2868685856120b7565b9050612027565b8660021415611fce57611fb2858784866120b7565b612027565b899250611fe1606489612375565b611feb908b612356565b9150611ff8606483612336565b9150866001141561200f57611fb2868685856120b7565b866002141561202757612024858784866120b7565b90505b6000868152601260209081526040808320805460018181018355918552838520018590558884528184208054918201815584528284200184905588835260109091528120600301805485929061207e90849061231e565b9091555050600085815260106020526040812060030180548492906120a490849061231e565b90915550929a9950505050505050505050565b60008060005b6011548790879083906120d190600161231e565b6120db919061231e565b60408051602081019490945283019190915260608201524260808201524460a082015260c00160408051601f1981840301815291815281516020928301206000818152601390935291206002015490925061213557612147565b8061213f8161238c565b9150506120bd565b506040805160a0810182529687526020808801968752878201958652606088019485526000608089018181528482526013909252918220975188559551600180890191909155945160028801559251600387015593516004909501805460ff19169515159590951790945560118054928301815590527f31ecc21a745e3968a04e9570e4425bc18fa8019c68028196b546d1669c200c6801819055919050565b80356001600160a01b0381168114610bad57600080fd5b60006020828403121561220f578081fd5b612218826121e7565b9392505050565b600080600080600060a08688031215612236578081fd5b61223f866121e7565b94506020860135935060408601359250606086013591506080860135612264816123bd565b809150509295509295909350565b600060208284031215612283578081fd5b8151612218816123bd565b60006020828403121561229f578081fd5b5035919050565b6000602082840312156122b7578081fd5b5051919050565b6020808252825182820181905260009190848201906040850190845b818110156122f6578351835292840192918401916001016122da565b50909695505050505050565b602080825260029082015261269960f11b604082015260600190565b60008219821115612331576123316123a7565b500190565b60008261235157634e487b7160e01b81526012600452602481fd5b500490565b6000816000190483118215151615612370576123706123a7565b500290565b600082821015612387576123876123a7565b500390565b60006000198214156123a0576123a06123a7565b5060010190565b634e487b7160e01b600052601160045260246000fd5b801515811461047857600080fdfea2646970667358221220fd99d4729a52f87d664d3f71612e9af67b1d27e31351e584e248a1f784f919c264736f6c63430008040033",
					"opcodes": "PUSH1 0xA0 PUSH1 0x40 MSTORE PUSH1 0xB DUP1 SLOAD PUSH1 0x1 PUSH1 0x1 PUSH1 0xA0 SHL SUB NOT AND CALLER OR SWAP1 SSTORE CALLVALUE DUP1 ISZERO PUSH3 0x23 JUMPI PUSH1 0x0 DUP1 REVERT JUMPDEST POP PUSH1 0x40 MLOAD PUSH3 0x2A5B CODESIZE SUB DUP1 PUSH3 0x2A5B DUP4 CODECOPY DUP2 ADD PUSH1 0x40 DUP2 SWAP1 MSTORE PUSH3 0x46 SWAP2 PUSH3 0x606 JUMP JUMPDEST PUSH1 0x1 PUSH1 0x0 SSTORE PUSH1 0x40 DUP1 MLOAD PUSH2 0x140 DUP2 ADD DUP3 MSTORE DUP3 DUP2 MSTORE CALLER PUSH1 0x20 DUP3 ADD MSTORE PUSH1 0xB SLOAD DUP3 MLOAD PUSH4 0x1E558333 PUSH1 0xE3 SHL DUP2 MSTORE PUSH1 0x4 DUP2 ADD DUP6 SWAP1 MSTORE SWAP2 SWAP3 DUP4 ADD SWAP2 PUSH1 0x1 PUSH1 0x1 PUSH1 0xA0 SHL SUB SWAP1 SWAP2 AND SWAP1 PUSH4 0xF2AC1998 SWAP1 PUSH1 0x24 ADD PUSH1 0x20 PUSH1 0x40 MLOAD DUP1 DUP4 SUB DUP2 DUP7 DUP1 EXTCODESIZE ISZERO DUP1 ISZERO PUSH3 0xA8 JUMPI PUSH1 0x0 DUP1 REVERT JUMPDEST POP GAS STATICCALL ISZERO DUP1 ISZERO PUSH3 0xBD JUMPI RETURNDATASIZE PUSH1 0x0 DUP1 RETURNDATACOPY RETURNDATASIZE PUSH1 0x0 REVERT JUMPDEST POP POP POP POP PUSH1 0x40 MLOAD RETURNDATASIZE PUSH1 0x1F NOT PUSH1 0x1F DUP3 ADD AND DUP3 ADD DUP1 PUSH1 0x40 MSTORE POP DUP2 ADD SWAP1 PUSH3 0xE3 SWAP2 SWAP1 PUSH3 0x5D6 JUMP JUMPDEST PUSH1 0x1 PUSH1 0x1 PUSH1 0xA0 SHL SUB AND DUP2 MSTORE PUSH1 0x20 ADD PUSH1 0xB PUSH1 0x0 SWAP1 SLOAD SWAP1 PUSH2 0x100 EXP SWAP1 DIV PUSH1 0x1 PUSH1 0x1 PUSH1 0xA0 SHL SUB AND PUSH1 0x1 PUSH1 0x1 PUSH1 0xA0 SHL SUB AND PUSH4 0xB7640A54 PUSH1 0x40 MLOAD DUP2 PUSH4 0xFFFFFFFF AND PUSH1 0xE0 SHL DUP2 MSTORE PUSH1 0x4 ADD PUSH1 0x20 PUSH1 0x40 MLOAD DUP1 DUP4 SUB DUP2 DUP7 DUP1 EXTCODESIZE ISZERO DUP1 ISZERO PUSH3 0x140 JUMPI PUSH1 0x0 DUP1 REVERT JUMPDEST POP GAS STATICCALL ISZERO DUP1 ISZERO PUSH3 0x155 JUMPI RETURNDATASIZE PUSH1 0x0 DUP1 RETURNDATACOPY RETURNDATASIZE PUSH1 0x0 REVERT JUMPDEST POP POP POP POP PUSH1 0x40 MLOAD RETURNDATASIZE PUSH1 0x1F NOT PUSH1 0x1F DUP3 ADD AND DUP3 ADD DUP1 PUSH1 0x40 MSTORE POP DUP2 ADD SWAP1 PUSH3 0x17B SWAP2 SWAP1 PUSH3 0x5D6 JUMP JUMPDEST PUSH1 0x1 PUSH1 0x1 PUSH1 0xA0 SHL SUB AND DUP2 MSTORE PUSH1 0x20 ADD PUSH1 0xB PUSH1 0x0 SWAP1 SLOAD SWAP1 PUSH2 0x100 EXP SWAP1 DIV PUSH1 0x1 PUSH1 0x1 PUSH1 0xA0 SHL SUB AND PUSH1 0x1 PUSH1 0x1 PUSH1 0xA0 SHL SUB AND PUSH4 0x9953B2F PUSH1 0x40 MLOAD DUP2 PUSH4 0xFFFFFFFF AND PUSH1 0xE0 SHL DUP2 MSTORE PUSH1 0x4 ADD PUSH1 0x20 PUSH1 0x40 MLOAD DUP1 DUP4 SUB DUP2 DUP7 DUP1 EXTCODESIZE ISZERO DUP1 ISZERO PUSH3 0x1D8 JUMPI PUSH1 0x0 DUP1 REVERT JUMPDEST POP GAS STATICCALL ISZERO DUP1 ISZERO PUSH3 0x1ED JUMPI RETURNDATASIZE PUSH1 0x0 DUP1 RETURNDATACOPY RETURNDATASIZE PUSH1 0x0 REVERT JUMPDEST POP POP POP POP PUSH1 0x40 MLOAD RETURNDATASIZE PUSH1 0x1F NOT PUSH1 0x1F DUP3 ADD AND DUP3 ADD DUP1 PUSH1 0x40 MSTORE POP DUP2 ADD SWAP1 PUSH3 0x213 SWAP2 SWAP1 PUSH3 0x5D6 JUMP JUMPDEST PUSH1 0x1 PUSH1 0x1 PUSH1 0xA0 SHL SUB AND DUP2 MSTORE PUSH1 0x20 ADD PUSH1 0xB PUSH1 0x0 SWAP1 SLOAD SWAP1 PUSH2 0x100 EXP SWAP1 DIV PUSH1 0x1 PUSH1 0x1 PUSH1 0xA0 SHL SUB AND PUSH1 0x1 PUSH1 0x1 PUSH1 0xA0 SHL SUB AND PUSH4 0x375B3C0A PUSH1 0x40 MLOAD DUP2 PUSH4 0xFFFFFFFF AND PUSH1 0xE0 SHL DUP2 MSTORE PUSH1 0x4 ADD PUSH1 0x20 PUSH1 0x40 MLOAD DUP1 DUP4 SUB DUP2 DUP7 DUP1 EXTCODESIZE ISZERO DUP1 ISZERO PUSH3 0x270 JUMPI PUSH1 0x0 DUP1 REVERT JUMPDEST POP GAS STATICCALL ISZERO DUP1 ISZERO PUSH3 0x285 JUMPI RETURNDATASIZE PUSH1 0x0 DUP1 RETURNDATACOPY RETURNDATASIZE PUSH1 0x0 REVERT JUMPDEST POP POP POP POP PUSH1 0x40 MLOAD RETURNDATASIZE PUSH1 0x1F NOT PUSH1 0x1F DUP3 ADD AND DUP3 ADD DUP1 PUSH1 0x40 MSTORE POP DUP2 ADD SWAP1 PUSH3 0x2AB SWAP2 SWAP1 PUSH3 0x606 JUMP JUMPDEST DUP2 MSTORE PUSH1 0xB SLOAD PUSH1 0x40 DUP1 MLOAD PUSH4 0x55C4A8BF PUSH1 0xE0 SHL DUP2 MSTORE SWAP1 MLOAD PUSH1 0x20 SWAP4 DUP5 ADD SWAP4 PUSH1 0x1 PUSH1 0x1 PUSH1 0xA0 SHL SUB SWAP1 SWAP4 AND SWAP3 PUSH4 0x55C4A8BF SWAP3 PUSH1 0x4 DUP1 DUP3 ADD SWAP4 SWAP2 DUP3 SWAP1 SUB ADD DUP2 DUP7 DUP1 EXTCODESIZE ISZERO DUP1 ISZERO PUSH3 0x2F4 JUMPI PUSH1 0x0 DUP1 REVERT JUMPDEST POP GAS STATICCALL ISZERO DUP1 ISZERO PUSH3 0x309 JUMPI RETURNDATASIZE PUSH1 0x0 DUP1 RETURNDATACOPY RETURNDATASIZE PUSH1 0x0 REVERT JUMPDEST POP POP POP POP PUSH1 0x40 MLOAD RETURNDATASIZE PUSH1 0x1F NOT PUSH1 0x1F DUP3 ADD AND DUP3 ADD DUP1 PUSH1 0x40 MSTORE POP DUP2 ADD SWAP1 PUSH3 0x32F SWAP2 SWAP1 PUSH3 0x606 JUMP JUMPDEST DUP2 MSTORE PUSH1 0xB SLOAD PUSH1 0x40 DUP1 MLOAD PUSH4 0x15334697 PUSH1 0xE2 SHL DUP2 MSTORE SWAP1 MLOAD PUSH1 0x20 SWAP4 DUP5 ADD SWAP4 PUSH1 0x1 PUSH1 0x1 PUSH1 0xA0 SHL SUB SWAP1 SWAP4 AND SWAP3 PUSH4 0x54CD1A5C SWAP3 PUSH1 0x4 DUP1 DUP3 ADD SWAP4 SWAP2 DUP3 SWAP1 SUB ADD DUP2 DUP7 DUP1 EXTCODESIZE ISZERO DUP1 ISZERO PUSH3 0x378 JUMPI PUSH1 0x0 DUP1 REVERT JUMPDEST POP GAS STATICCALL ISZERO DUP1 ISZERO PUSH3 0x38D JUMPI RETURNDATASIZE PUSH1 0x0 DUP1 RETURNDATACOPY RETURNDATASIZE PUSH1 0x0 REVERT JUMPDEST POP POP POP POP PUSH1 0x40 MLOAD RETURNDATASIZE PUSH1 0x1F NOT PUSH1 0x1F DUP3 ADD AND DUP3 ADD DUP1 PUSH1 0x40 MSTORE POP DUP2 ADD SWAP1 PUSH3 0x3B3 SWAP2 SWAP1 PUSH3 0x606 JUMP JUMPDEST DUP2 MSTORE PUSH1 0xB SLOAD PUSH1 0x40 DUP1 MLOAD PUSH4 0x28576D45 PUSH1 0xE0 SHL DUP2 MSTORE SWAP1 MLOAD PUSH1 0x20 SWAP4 DUP5 ADD SWAP4 PUSH1 0x1 PUSH1 0x1 PUSH1 0xA0 SHL SUB SWAP1 SWAP4 AND SWAP3 PUSH4 0x28576D45 SWAP3 PUSH1 0x4 DUP1 DUP3 ADD SWAP4 SWAP2 DUP3 SWAP1 SUB ADD DUP2 DUP7 DUP1 EXTCODESIZE ISZERO DUP1 ISZERO PUSH3 0x3FC JUMPI PUSH1 0x0 DUP1 REVERT JUMPDEST POP GAS STATICCALL ISZERO DUP1 ISZERO PUSH3 0x411 JUMPI RETURNDATASIZE PUSH1 0x0 DUP1 RETURNDATACOPY RETURNDATASIZE PUSH1 0x0 REVERT JUMPDEST POP POP POP POP PUSH1 0x40 MLOAD RETURNDATASIZE PUSH1 0x1F NOT PUSH1 0x1F DUP3 ADD AND DUP3 ADD DUP1 PUSH1 0x40 MSTORE POP DUP2 ADD SWAP1 PUSH3 0x437 SWAP2 SWAP1 PUSH3 0x606 JUMP JUMPDEST DUP2 MSTORE PUSH1 0xB SLOAD PUSH1 0x40 DUP1 MLOAD PUSH4 0x6A0CCD9D PUSH1 0xE0 SHL DUP2 MSTORE SWAP1 MLOAD PUSH1 0x20 SWAP4 DUP5 ADD SWAP4 PUSH1 0x1 PUSH1 0x1 PUSH1 0xA0 SHL SUB SWAP1 SWAP4 AND SWAP3 PUSH4 0x6A0CCD9D SWAP3 PUSH1 0x4 DUP1 DUP3 ADD SWAP4 SWAP2 DUP3 SWAP1 SUB ADD DUP2 DUP7 DUP1 EXTCODESIZE ISZERO DUP1 ISZERO PUSH3 0x480 JUMPI PUSH1 0x0 DUP1 REVERT JUMPDEST POP GAS STATICCALL ISZERO DUP1 ISZERO PUSH3 0x495 JUMPI RETURNDATASIZE PUSH1 0x0 DUP1 RETURNDATACOPY RETURNDATASIZE PUSH1 0x0 REVERT JUMPDEST POP POP POP POP PUSH1 0x40 MLOAD RETURNDATASIZE PUSH1 0x1F NOT PUSH1 0x1F DUP3 ADD AND DUP3 ADD DUP1 PUSH1 0x40 MSTORE POP DUP2 ADD SWAP1 PUSH3 0x4BB SWAP2 SWAP1 PUSH3 0x606 JUMP JUMPDEST SWAP1 MSTORE DUP1 MLOAD PUSH1 0x1 SSTORE PUSH1 0x20 DUP1 DUP3 ADD MLOAD PUSH1 0x2 DUP1 SLOAD PUSH1 0x1 PUSH1 0x1 PUSH1 0xA0 SHL SUB NOT SWAP1 DUP2 AND PUSH1 0x1 PUSH1 0x1 PUSH1 0xA0 SHL SUB SWAP4 DUP5 AND OR SWAP1 SWAP2 SSTORE PUSH1 0x40 DUP1 DUP6 ADD MLOAD PUSH1 0x3 DUP1 SLOAD DUP5 AND SWAP2 DUP6 AND SWAP2 SWAP1 SWAP2 OR SWAP1 SSTORE PUSH1 0x60 DUP6 ADD MLOAD PUSH1 0x4 DUP1 SLOAD DUP5 AND SWAP2 DUP6 AND SWAP2 SWAP1 SWAP2 OR DUP2 SSTORE PUSH1 0x80 DUP7 ADD MLOAD PUSH1 0x5 DUP1 SLOAD SWAP1 SWAP5 AND SWAP1 DUP6 AND OR SWAP1 SWAP3 SSTORE PUSH1 0xA0 DUP6 ADD MLOAD PUSH1 0x6 SSTORE PUSH1 0xC0 DUP6 ADD MLOAD PUSH1 0x7 SSTORE PUSH1 0xE0 DUP6 ADD MLOAD PUSH1 0x8 SSTORE PUSH2 0x100 DUP6 ADD MLOAD PUSH1 0x9 SSTORE PUSH2 0x120 SWAP1 SWAP5 ADD MLOAD PUSH1 0xA SSTORE PUSH1 0xB SLOAD DUP5 MLOAD PUSH3 0x966ED9 PUSH1 0xE3 SHL DUP2 MSTORE SWAP5 MLOAD SWAP3 AND SWAP4 PUSH4 0x4B376C8 SWAP4 DUP2 DUP4 ADD SWAP4 SWAP1 SWAP3 SWAP1 SWAP2 DUP3 SWAP1 SUB ADD DUP2 DUP7 DUP1 EXTCODESIZE ISZERO DUP1 ISZERO PUSH3 0x584 JUMPI PUSH1 0x0 DUP1 REVERT JUMPDEST POP GAS STATICCALL ISZERO DUP1 ISZERO PUSH3 0x599 JUMPI RETURNDATASIZE PUSH1 0x0 DUP1 RETURNDATACOPY RETURNDATASIZE PUSH1 0x0 REVERT JUMPDEST POP POP POP POP PUSH1 0x40 MLOAD RETURNDATASIZE PUSH1 0x1F NOT PUSH1 0x1F DUP3 ADD AND DUP3 ADD DUP1 PUSH1 0x40 MSTORE POP DUP2 ADD SWAP1 PUSH3 0x5BF SWAP2 SWAP1 PUSH3 0x5D6 JUMP JUMPDEST PUSH1 0x60 SHL PUSH1 0x1 PUSH1 0x1 PUSH1 0x60 SHL SUB NOT AND PUSH1 0x80 MSTORE POP PUSH3 0x61F JUMP JUMPDEST PUSH1 0x0 PUSH1 0x20 DUP3 DUP5 SUB SLT ISZERO PUSH3 0x5E8 JUMPI DUP1 DUP2 REVERT JUMPDEST DUP2 MLOAD PUSH1 0x1 PUSH1 0x1 PUSH1 0xA0 SHL SUB DUP2 AND DUP2 EQ PUSH3 0x5FF JUMPI DUP2 DUP3 REVERT JUMPDEST SWAP4 SWAP3 POP POP POP JUMP JUMPDEST PUSH1 0x0 PUSH1 0x20 DUP3 DUP5 SUB SLT ISZERO PUSH3 0x618 JUMPI DUP1 DUP2 REVERT JUMPDEST POP MLOAD SWAP2 SWAP1 POP JUMP JUMPDEST PUSH1 0x80 MLOAD PUSH1 0x60 SHR PUSH2 0x2401 PUSH3 0x65A PUSH1 0x0 CODECOPY PUSH1 0x0 DUP2 DUP2 PUSH2 0x61E ADD MSTORE DUP2 DUP2 PUSH2 0x730 ADD MSTORE DUP2 DUP2 PUSH2 0xE15 ADD MSTORE DUP2 DUP2 PUSH2 0xF02 ADD MSTORE PUSH2 0x1033 ADD MSTORE PUSH2 0x2401 PUSH1 0x0 RETURN INVALID PUSH1 0x80 PUSH1 0x40 MSTORE CALLVALUE DUP1 ISZERO PUSH2 0x10 JUMPI PUSH1 0x0 DUP1 REVERT JUMPDEST POP PUSH1 0x4 CALLDATASIZE LT PUSH2 0x116 JUMPI PUSH1 0x0 CALLDATALOAD PUSH1 0xE0 SHR DUP1 PUSH4 0x7D7F9232 GT PUSH2 0xA2 JUMPI DUP1 PUSH4 0xB8E5303D GT PUSH2 0x71 JUMPI DUP1 PUSH4 0xB8E5303D EQ PUSH2 0x263 JUMPI DUP1 PUSH4 0xBA8006C6 EQ PUSH2 0x334 JUMPI DUP1 PUSH4 0xD0ED7295 EQ PUSH2 0x347 JUMPI DUP1 PUSH4 0xEA8A1AF0 EQ PUSH2 0x35A JUMPI DUP1 PUSH4 0xF8B2CB4F EQ PUSH2 0x362 JUMPI PUSH1 0x0 DUP1 REVERT JUMPDEST DUP1 PUSH4 0x7D7F9232 EQ PUSH2 0x22D JUMPI DUP1 PUSH4 0x8DF82800 EQ PUSH2 0x240 JUMPI DUP1 PUSH4 0xA6AFD5FD EQ PUSH2 0x253 JUMPI DUP1 PUSH4 0xAE8CD090 EQ PUSH2 0x25B JUMPI PUSH1 0x0 DUP1 REVERT JUMPDEST DUP1 PUSH4 0x37E8C09E GT PUSH2 0xE9 JUMPI DUP1 PUSH4 0x37E8C09E EQ PUSH2 0x17F JUMPI DUP1 PUSH4 0x51CFF8D9 EQ PUSH2 0x1E7 JUMPI DUP1 PUSH4 0x675F6537 EQ PUSH2 0x20A JUMPI DUP1 PUSH4 0x6BEF0267 EQ PUSH2 0x21D JUMPI DUP1 PUSH4 0x767EB5EF EQ PUSH2 0x225 JUMPI PUSH1 0x0 DUP1 REVERT JUMPDEST DUP1 PUSH4 0x200D2ED2 EQ PUSH2 0x11B JUMPI DUP1 PUSH4 0x25C22A45 EQ PUSH2 0x137 JUMPI DUP1 PUSH4 0x2940FF1E EQ PUSH2 0x157 JUMPI DUP1 PUSH4 0x2D56657D EQ PUSH2 0x16C JUMPI JUMPDEST PUSH1 0x0 DUP1 REVERT JUMPDEST PUSH2 0x124 PUSH1 0xC SLOAD DUP2 JUMP JUMPDEST PUSH1 0x40 MLOAD SWAP1 DUP2 MSTORE PUSH1 0x20 ADD JUMPDEST PUSH1 0x40 MLOAD DUP1 SWAP2 SUB SWAP1 RETURN JUMPDEST PUSH2 0x14A PUSH2 0x145 CALLDATASIZE PUSH1 0x4 PUSH2 0x228E JUMP JUMPDEST PUSH2 0x38B JUMP JUMPDEST PUSH1 0x40 MLOAD PUSH2 0x12E SWAP2 SWAP1 PUSH2 0x22BE JUMP JUMPDEST PUSH2 0x16A PUSH2 0x165 CALLDATASIZE PUSH1 0x4 PUSH2 0x228E JUMP JUMPDEST PUSH2 0x3ED JUMP JUMPDEST STOP JUMPDEST PUSH2 0x14A PUSH2 0x17A CALLDATASIZE PUSH1 0x4 PUSH2 0x21FE JUMP JUMPDEST PUSH2 0x47B JUMP JUMPDEST PUSH2 0x192 PUSH2 0x18D CALLDATASIZE PUSH1 0x4 PUSH2 0x228E JUMP JUMPDEST PUSH2 0x4E5 JUMP JUMPDEST PUSH1 0x40 MLOAD PUSH2 0x12E SWAP2 SWAP1 DUP2 MLOAD PUSH1 0x1 PUSH1 0x1 PUSH1 0xA0 SHL SUB SWAP1 DUP2 AND DUP3 MSTORE PUSH1 0x20 DUP1 DUP5 ADD MLOAD SWAP1 SWAP2 AND SWAP1 DUP3 ADD MSTORE PUSH1 0x40 DUP1 DUP4 ADD MLOAD SWAP1 DUP3 ADD MSTORE PUSH1 0x60 DUP1 DUP4 ADD MLOAD SWAP1 DUP3 ADD MSTORE PUSH1 0x80 DUP1 DUP4 ADD MLOAD SWAP1 DUP3 ADD MSTORE PUSH1 0xA0 SWAP2 DUP3 ADD MLOAD SWAP2 DUP2 ADD SWAP2 SWAP1 SWAP2 MSTORE PUSH1 0xC0 ADD SWAP1 JUMP JUMPDEST PUSH2 0x1FA PUSH2 0x1F5 CALLDATASIZE PUSH1 0x4 PUSH2 0x21FE JUMP JUMPDEST PUSH2 0x595 JUMP JUMPDEST PUSH1 0x40 MLOAD SWAP1 ISZERO ISZERO DUP2 MSTORE PUSH1 0x20 ADD PUSH2 0x12E JUMP JUMPDEST PUSH2 0x16A PUSH2 0x218 CALLDATASIZE PUSH1 0x4 PUSH2 0x228E JUMP JUMPDEST PUSH2 0x850 JUMP JUMPDEST PUSH2 0x1FA PUSH2 0x925 JUMP JUMPDEST PUSH2 0x14A PUSH2 0x97F JUMP JUMPDEST PUSH2 0x16A PUSH2 0x23B CALLDATASIZE PUSH1 0x4 PUSH2 0x228E JUMP JUMPDEST PUSH2 0x9D7 JUMP JUMPDEST PUSH2 0x1FA PUSH2 0x24E CALLDATASIZE PUSH1 0x4 PUSH2 0x228E JUMP JUMPDEST PUSH2 0xAFA JUMP JUMPDEST PUSH2 0x14A PUSH2 0xBB2 JUMP JUMPDEST PUSH2 0x1FA PUSH2 0xC08 JUMP JUMPDEST PUSH2 0x2F0 PUSH2 0x271 CALLDATASIZE PUSH1 0x4 PUSH2 0x228E JUMP JUMPDEST PUSH1 0x40 DUP1 MLOAD PUSH1 0xA0 DUP2 ADD DUP3 MSTORE PUSH1 0x0 DUP1 DUP3 MSTORE PUSH1 0x20 DUP3 ADD DUP2 SWAP1 MSTORE SWAP2 DUP2 ADD DUP3 SWAP1 MSTORE PUSH1 0x60 DUP2 ADD DUP3 SWAP1 MSTORE PUSH1 0x80 DUP2 ADD SWAP2 SWAP1 SWAP2 MSTORE POP PUSH1 0x0 SWAP1 DUP2 MSTORE PUSH1 0x13 PUSH1 0x20 SWAP1 DUP2 MSTORE PUSH1 0x40 SWAP2 DUP3 SWAP1 KECCAK256 DUP3 MLOAD PUSH1 0xA0 DUP2 ADD DUP5 MSTORE DUP2 SLOAD DUP2 MSTORE PUSH1 0x1 DUP3 ADD SLOAD SWAP3 DUP2 ADD SWAP3 SWAP1 SWAP3 MSTORE PUSH1 0x2 DUP2 ADD SLOAD SWAP3 DUP3 ADD SWAP3 SWAP1 SWAP3 MSTORE PUSH1 0x3 DUP3 ADD SLOAD PUSH1 0x60 DUP3 ADD MSTORE PUSH1 0x4 SWAP1 SWAP2 ADD SLOAD PUSH1 0xFF AND ISZERO ISZERO PUSH1 0x80 DUP3 ADD MSTORE SWAP1 JUMP JUMPDEST PUSH1 0x40 MLOAD PUSH2 0x12E SWAP2 SWAP1 PUSH1 0x0 PUSH1 0xA0 DUP3 ADD SWAP1 POP DUP3 MLOAD DUP3 MSTORE PUSH1 0x20 DUP4 ADD MLOAD PUSH1 0x20 DUP4 ADD MSTORE PUSH1 0x40 DUP4 ADD MLOAD PUSH1 0x40 DUP4 ADD MSTORE PUSH1 0x60 DUP4 ADD MLOAD PUSH1 0x60 DUP4 ADD MSTORE PUSH1 0x80 DUP4 ADD MLOAD ISZERO ISZERO PUSH1 0x80 DUP4 ADD MSTORE SWAP3 SWAP2 POP POP JUMP JUMPDEST PUSH2 0x124 PUSH2 0x342 CALLDATASIZE PUSH1 0x4 PUSH2 0x221F JUMP JUMPDEST PUSH2 0xCC2 JUMP JUMPDEST PUSH2 0x1FA PUSH2 0x355 CALLDATASIZE PUSH1 0x4 PUSH2 0x228E JUMP JUMPDEST PUSH2 0x1395 JUMP JUMPDEST PUSH2 0x1FA PUSH2 0x1426 JUMP JUMPDEST PUSH2 0x124 PUSH2 0x370 CALLDATASIZE PUSH1 0x4 PUSH2 0x21FE JUMP JUMPDEST PUSH1 0x1 PUSH1 0x1 PUSH1 0xA0 SHL SUB AND PUSH1 0x0 SWAP1 DUP2 MSTORE PUSH1 0xD PUSH1 0x20 MSTORE PUSH1 0x40 SWAP1 KECCAK256 SLOAD SWAP1 JUMP JUMPDEST PUSH1 0x0 DUP2 DUP2 MSTORE PUSH1 0x12 PUSH1 0x20 SWAP1 DUP2 MSTORE PUSH1 0x40 SWAP2 DUP3 SWAP1 KECCAK256 DUP1 SLOAD DUP4 MLOAD DUP2 DUP5 MUL DUP2 ADD DUP5 ADD SWAP1 SWAP5 MSTORE DUP1 DUP5 MSTORE PUSH1 0x60 SWAP4 SWAP3 DUP4 ADD DUP3 DUP3 DUP1 ISZERO PUSH2 0x3E1 JUMPI PUSH1 0x20 MUL DUP3 ADD SWAP2 SWAP1 PUSH1 0x0 MSTORE PUSH1 0x20 PUSH1 0x0 KECCAK256 SWAP1 JUMPDEST DUP2 SLOAD DUP2 MSTORE PUSH1 0x20 ADD SWAP1 PUSH1 0x1 ADD SWAP1 DUP1 DUP4 GT PUSH2 0x3CD JUMPI JUMPDEST POP POP POP POP POP SWAP1 POP SWAP2 SWAP1 POP JUMP JUMPDEST PUSH1 0x0 DUP2 DUP2 MSTORE PUSH1 0x10 PUSH1 0x20 MSTORE PUSH1 0x40 SWAP1 KECCAK256 SLOAD PUSH1 0x1 PUSH1 0x1 PUSH1 0xA0 SHL SUB AND CALLER EQ PUSH2 0x44E JUMPI PUSH1 0x40 MLOAD PUSH3 0x461BCD PUSH1 0xE5 SHL DUP2 MSTORE PUSH1 0x20 PUSH1 0x4 DUP3 ADD MSTORE PUSH1 0x13 PUSH1 0x24 DUP3 ADD MSTORE PUSH19 0x3AB730BABA3437B934BD32B21031B0B63632B9 PUSH1 0x69 SHL PUSH1 0x44 DUP3 ADD MSTORE PUSH1 0x64 ADD JUMPDEST PUSH1 0x40 MLOAD DUP1 SWAP2 SUB SWAP1 REVERT JUMPDEST PUSH1 0xC SLOAD ISZERO DUP1 PUSH2 0x45F JUMPI POP PUSH1 0xC SLOAD PUSH1 0x3 EQ JUMPDEST ISZERO PUSH2 0x46F JUMPI PUSH2 0x46D DUP2 PUSH2 0x1489 JUMP JUMPDEST POP JUMPDEST PUSH2 0x478 DUP2 PUSH2 0x9D7 JUMP JUMPDEST POP JUMP JUMPDEST PUSH1 0x1 PUSH1 0x1 PUSH1 0xA0 SHL SUB DUP2 AND PUSH1 0x0 SWAP1 DUP2 MSTORE PUSH1 0xF PUSH1 0x20 SWAP1 DUP2 MSTORE PUSH1 0x40 SWAP2 DUP3 SWAP1 KECCAK256 DUP1 SLOAD DUP4 MLOAD DUP2 DUP5 MUL DUP2 ADD DUP5 ADD SWAP1 SWAP5 MSTORE DUP1 DUP5 MSTORE PUSH1 0x60 SWAP4 SWAP3 DUP4 ADD DUP3 DUP3 DUP1 ISZERO PUSH2 0x3E1 JUMPI PUSH1 0x20 MUL DUP3 ADD SWAP2 SWAP1 PUSH1 0x0 MSTORE PUSH1 0x20 PUSH1 0x0 KECCAK256 SWAP1 DUP2 SLOAD DUP2 MSTORE PUSH1 0x20 ADD SWAP1 PUSH1 0x1 ADD SWAP1 DUP1 DUP4 GT PUSH2 0x3CD JUMPI POP POP POP POP POP SWAP1 POP SWAP2 SWAP1 POP JUMP JUMPDEST PUSH2 0x530 PUSH1 0x40 MLOAD DUP1 PUSH1 0xC0 ADD PUSH1 0x40 MSTORE DUP1 PUSH1 0x0 PUSH1 0x1 PUSH1 0x1 PUSH1 0xA0 SHL SUB AND DUP2 MSTORE PUSH1 0x20 ADD PUSH1 0x0 PUSH1 0x1 PUSH1 0x1 PUSH1 0xA0 SHL SUB AND DUP2 MSTORE PUSH1 0x20 ADD PUSH1 0x0 DUP2 MSTORE PUSH1 0x20 ADD PUSH1 0x0 DUP2 MSTORE PUSH1 0x20 ADD PUSH1 0x0 DUP2 MSTORE PUSH1 0x20 ADD PUSH1 0x0 DUP2 MSTORE POP SWAP1 JUMP JUMPDEST POP PUSH1 0x0 SWAP1 DUP2 MSTORE PUSH1 0x10 PUSH1 0x20 SWAP1 DUP2 MSTORE PUSH1 0x40 SWAP2 DUP3 SWAP1 KECCAK256 DUP3 MLOAD PUSH1 0xC0 DUP2 ADD DUP5 MSTORE DUP2 SLOAD PUSH1 0x1 PUSH1 0x1 PUSH1 0xA0 SHL SUB SWAP1 DUP2 AND DUP3 MSTORE PUSH1 0x1 DUP4 ADD SLOAD AND SWAP3 DUP2 ADD SWAP3 SWAP1 SWAP3 MSTORE PUSH1 0x2 DUP2 ADD SLOAD SWAP3 DUP3 ADD SWAP3 SWAP1 SWAP3 MSTORE PUSH1 0x3 DUP3 ADD SLOAD PUSH1 0x60 DUP3 ADD MSTORE PUSH1 0x4 DUP3 ADD SLOAD PUSH1 0x80 DUP3 ADD MSTORE PUSH1 0x5 SWAP1 SWAP2 ADD SLOAD PUSH1 0xA0 DUP3 ADD MSTORE SWAP1 JUMP JUMPDEST PUSH1 0x0 PUSH1 0x2 PUSH1 0x0 SLOAD EQ ISZERO PUSH2 0x5EA JUMPI PUSH1 0x40 MLOAD PUSH3 0x461BCD PUSH1 0xE5 SHL DUP2 MSTORE PUSH1 0x20 PUSH1 0x4 DUP3 ADD MSTORE PUSH1 0x1F PUSH1 0x24 DUP3 ADD MSTORE PUSH32 0x5265656E7472616E637947756172643A207265656E7472616E742063616C6C00 PUSH1 0x44 DUP3 ADD MSTORE PUSH1 0x64 ADD PUSH2 0x445 JUMP JUMPDEST PUSH1 0x2 PUSH1 0x0 SWAP1 DUP2 SSTORE PUSH1 0x1 PUSH1 0x1 PUSH1 0xA0 SHL SUB DUP4 DUP2 AND DUP3 MSTORE PUSH1 0xD PUSH1 0x20 MSTORE PUSH1 0x40 SWAP2 DUP3 SWAP1 KECCAK256 SLOAD SWAP2 MLOAD PUSH4 0x70A08231 PUSH1 0xE0 SHL DUP2 MSTORE ADDRESS PUSH1 0x4 DUP3 ADD MSTORE PUSH32 0x0 SWAP1 SWAP2 AND SWAP1 PUSH4 0x70A08231 SWAP1 PUSH1 0x24 ADD PUSH1 0x20 PUSH1 0x40 MLOAD DUP1 DUP4 SUB DUP2 DUP7 DUP1 EXTCODESIZE ISZERO DUP1 ISZERO PUSH2 0x662 JUMPI PUSH1 0x0 DUP1 REVERT JUMPDEST POP GAS STATICCALL ISZERO DUP1 ISZERO PUSH2 0x676 JUMPI RETURNDATASIZE PUSH1 0x0 DUP1 RETURNDATACOPY RETURNDATASIZE PUSH1 0x0 REVERT JUMPDEST POP POP POP POP PUSH1 0x40 MLOAD RETURNDATASIZE PUSH1 0x1F NOT PUSH1 0x1F DUP3 ADD AND DUP3 ADD DUP1 PUSH1 0x40 MSTORE POP DUP2 ADD SWAP1 PUSH2 0x69A SWAP2 SWAP1 PUSH2 0x22A6 JUMP JUMPDEST LT ISZERO DUP1 ISZERO PUSH2 0x6BF JUMPI POP PUSH1 0x1 PUSH1 0x1 PUSH1 0xA0 SHL SUB DUP3 AND PUSH1 0x0 SWAP1 DUP2 MSTORE PUSH1 0xD PUSH1 0x20 MSTORE PUSH1 0x40 SWAP1 KECCAK256 SLOAD ISZERO ISZERO JUMPDEST PUSH2 0x6F0 JUMPI PUSH1 0x40 MLOAD PUSH3 0x461BCD PUSH1 0xE5 SHL DUP2 MSTORE PUSH1 0x20 PUSH1 0x4 DUP3 ADD MSTORE PUSH1 0x2 PUSH1 0x24 DUP3 ADD MSTORE PUSH2 0x4D33 PUSH1 0xF0 SHL PUSH1 0x44 DUP3 ADD MSTORE PUSH1 0x64 ADD PUSH2 0x445 JUMP JUMPDEST PUSH1 0x1 PUSH1 0x1 PUSH1 0xA0 SHL SUB DUP3 DUP2 AND PUSH1 0x0 DUP2 DUP2 MSTORE PUSH1 0xD PUSH1 0x20 MSTORE PUSH1 0x40 DUP1 DUP3 KECCAK256 DUP1 SLOAD SWAP1 DUP4 SWAP1 SSTORE SWAP1 MLOAD PUSH4 0xA9059CBB PUSH1 0xE0 SHL DUP2 MSTORE PUSH1 0x4 DUP2 ADD SWAP4 SWAP1 SWAP4 MSTORE PUSH1 0x24 DUP4 ADD DUP2 SWAP1 MSTORE SWAP3 SWAP1 SWAP2 PUSH32 0x0 SWAP1 SWAP2 AND SWAP1 PUSH4 0xA9059CBB SWAP1 PUSH1 0x44 ADD PUSH1 0x20 PUSH1 0x40 MLOAD DUP1 DUP4 SUB DUP2 PUSH1 0x0 DUP8 DUP1 EXTCODESIZE ISZERO DUP1 ISZERO PUSH2 0x776 JUMPI PUSH1 0x0 DUP1 REVERT JUMPDEST POP GAS CALL ISZERO DUP1 ISZERO PUSH2 0x78A JUMPI RETURNDATASIZE PUSH1 0x0 DUP1 RETURNDATACOPY RETURNDATASIZE PUSH1 0x0 REVERT JUMPDEST POP POP POP POP PUSH1 0x40 MLOAD RETURNDATASIZE PUSH1 0x1F NOT PUSH1 0x1F DUP3 ADD AND DUP3 ADD DUP1 PUSH1 0x40 MSTORE POP DUP2 ADD SWAP1 PUSH2 0x7AE SWAP2 SWAP1 PUSH2 0x2272 JUMP JUMPDEST SWAP1 POP DUP1 PUSH2 0x7FD JUMPI PUSH1 0x40 MLOAD PUSH3 0x461BCD PUSH1 0xE5 SHL DUP2 MSTORE PUSH1 0x20 PUSH1 0x4 DUP3 ADD MSTORE PUSH1 0x19 PUSH1 0x24 DUP3 ADD MSTORE PUSH32 0x7472616E7366657220746F2063616C6C6572206661696C656400000000000000 PUSH1 0x44 DUP3 ADD MSTORE PUSH1 0x64 ADD PUSH2 0x445 JUMP JUMPDEST PUSH1 0x40 DUP1 MLOAD PUSH1 0x1 PUSH1 0x1 PUSH1 0xA0 SHL SUB DUP7 AND DUP2 MSTORE PUSH1 0x20 DUP2 ADD DUP5 SWAP1 MSTORE PUSH32 0x884EDAD9CE6FA2440D8A54CC123490EB96D2768479D49FF9C7366125A9424364 SWAP2 ADD PUSH1 0x40 MLOAD DUP1 SWAP2 SUB SWAP1 LOG1 PUSH1 0x1 SWAP3 POP POP POP JUMPDEST PUSH1 0x1 PUSH1 0x0 SSTORE SWAP2 SWAP1 POP JUMP JUMPDEST PUSH1 0x0 DUP2 DUP2 MSTORE PUSH1 0x12 PUSH1 0x20 SWAP1 DUP2 MSTORE PUSH1 0x40 DUP1 DUP4 KECCAK256 DUP1 SLOAD DUP3 MLOAD DUP2 DUP6 MUL DUP2 ADD DUP6 ADD SWAP1 SWAP4 MSTORE DUP1 DUP4 MSTORE SWAP2 SWAP3 SWAP1 SWAP2 SWAP1 DUP4 ADD DUP3 DUP3 DUP1 ISZERO PUSH2 0x8A6 JUMPI PUSH1 0x20 MUL DUP3 ADD SWAP2 SWAP1 PUSH1 0x0 MSTORE PUSH1 0x20 PUSH1 0x0 KECCAK256 SWAP1 JUMPDEST DUP2 SLOAD DUP2 MSTORE PUSH1 0x20 ADD SWAP1 PUSH1 0x1 ADD SWAP1 DUP1 DUP4 GT PUSH2 0x892 JUMPI JUMPDEST POP POP DUP4 MLOAD SWAP4 SWAP5 POP PUSH1 0x0 SWAP3 POP POP POP JUMPDEST DUP2 DUP2 LT ISZERO PUSH2 0x8FF JUMPI PUSH2 0x8EC DUP4 DUP3 DUP2 MLOAD DUP2 LT PUSH2 0x8DF JUMPI PUSH4 0x4E487B71 PUSH1 0xE0 SHL PUSH1 0x0 MSTORE PUSH1 0x32 PUSH1 0x4 MSTORE PUSH1 0x24 PUSH1 0x0 REVERT JUMPDEST PUSH1 0x20 MUL PUSH1 0x20 ADD ADD MLOAD PUSH2 0x194C JUMP JUMPDEST POP DUP1 PUSH2 0x8F7 DUP2 PUSH2 0x238C JUMP JUMPDEST SWAP2 POP POP PUSH2 0x8B4 JUMP JUMPDEST POP CALLER PUSH1 0x0 SWAP1 DUP2 MSTORE PUSH1 0xD PUSH1 0x20 MSTORE PUSH1 0x40 SWAP1 KECCAK256 SLOAD ISZERO PUSH2 0x920 JUMPI PUSH2 0x91E CALLER PUSH2 0x595 JUMP JUMPDEST POP JUMPDEST POP POP POP JUMP JUMPDEST PUSH1 0x3 SLOAD PUSH1 0x0 SWAP1 PUSH1 0x1 PUSH1 0x1 PUSH1 0xA0 SHL SUB AND CALLER EQ DUP1 PUSH2 0x94B JUMPI POP PUSH1 0x2 SLOAD PUSH1 0x1 PUSH1 0x1 PUSH1 0xA0 SHL SUB AND CALLER EQ JUMPDEST PUSH2 0x967 JUMPI PUSH1 0x40 MLOAD PUSH3 0x461BCD PUSH1 0xE5 SHL DUP2 MSTORE PUSH1 0x4 ADD PUSH2 0x445 SWAP1 PUSH2 0x2302 JUMP JUMPDEST PUSH1 0xC SLOAD PUSH2 0x979 JUMPI POP PUSH1 0x4 PUSH1 0xC SSTORE PUSH1 0x1 SWAP1 JUMP JUMPDEST POP PUSH1 0x0 SWAP1 JUMP JUMPDEST PUSH1 0x60 PUSH1 0x11 DUP1 SLOAD DUP1 PUSH1 0x20 MUL PUSH1 0x20 ADD PUSH1 0x40 MLOAD SWAP1 DUP2 ADD PUSH1 0x40 MSTORE DUP1 SWAP3 SWAP2 SWAP1 DUP2 DUP2 MSTORE PUSH1 0x20 ADD DUP3 DUP1 SLOAD DUP1 ISZERO PUSH2 0x9CD JUMPI PUSH1 0x20 MUL DUP3 ADD SWAP2 SWAP1 PUSH1 0x0 MSTORE PUSH1 0x20 PUSH1 0x0 KECCAK256 SWAP1 JUMPDEST DUP2 SLOAD DUP2 MSTORE PUSH1 0x20 ADD SWAP1 PUSH1 0x1 ADD SWAP1 DUP1 DUP4 GT PUSH2 0x9B9 JUMPI JUMPDEST POP POP POP POP POP SWAP1 POP SWAP1 JUMP JUMPDEST PUSH1 0x0 DUP2 DUP2 MSTORE PUSH1 0x10 PUSH1 0x20 SWAP1 DUP2 MSTORE PUSH1 0x40 SWAP2 DUP3 SWAP1 KECCAK256 DUP3 MLOAD PUSH1 0xC0 DUP2 ADD DUP5 MSTORE DUP2 SLOAD PUSH1 0x1 PUSH1 0x1 PUSH1 0xA0 SHL SUB SWAP1 DUP2 AND DUP1 DUP4 MSTORE PUSH1 0x1 DUP5 ADD SLOAD SWAP1 SWAP2 AND SWAP4 DUP3 ADD SWAP4 SWAP1 SWAP4 MSTORE PUSH1 0x2 DUP3 ADD SLOAD SWAP4 DUP2 ADD SWAP4 SWAP1 SWAP4 MSTORE PUSH1 0x3 DUP2 ADD SLOAD PUSH1 0x60 DUP5 ADD MSTORE PUSH1 0x4 DUP2 ADD SLOAD PUSH1 0x80 DUP5 ADD MSTORE PUSH1 0x5 ADD SLOAD PUSH1 0xA0 DUP4 ADD MSTORE CALLER EQ PUSH2 0xA7D JUMPI PUSH1 0x40 MLOAD PUSH3 0x461BCD PUSH1 0xE5 SHL DUP2 MSTORE PUSH1 0x20 PUSH1 0x4 DUP3 ADD MSTORE PUSH1 0x13 PUSH1 0x24 DUP3 ADD MSTORE PUSH19 0x3AB730BABA3437B934BD32B21031B0B63632B9 PUSH1 0x69 SHL PUSH1 0x44 DUP3 ADD MSTORE PUSH1 0x64 ADD PUSH2 0x445 JUMP JUMPDEST PUSH1 0x0 DUP2 PUSH1 0x60 ADD MLOAD DUP3 PUSH1 0x40 ADD MLOAD PUSH2 0xA93 SWAP2 SWAP1 PUSH2 0x2375 JUMP JUMPDEST DUP3 MLOAD PUSH1 0x1 PUSH1 0x1 PUSH1 0xA0 SHL SUB AND PUSH1 0x0 SWAP1 DUP2 MSTORE PUSH1 0xD PUSH1 0x20 MSTORE PUSH1 0x40 DUP2 KECCAK256 DUP1 SLOAD SWAP3 SWAP4 POP DUP4 SWAP3 SWAP1 SWAP2 SWAP1 PUSH2 0xAC1 SWAP1 DUP5 SWAP1 PUSH2 0x231E JUMP JUMPDEST SWAP1 SWAP2 SSTORE POP POP PUSH1 0x40 DUP1 DUP4 ADD MLOAD PUSH1 0x0 DUP6 DUP2 MSTORE PUSH1 0x10 PUSH1 0x20 SWAP1 DUP2 MSTORE DUP4 DUP3 KECCAK256 PUSH1 0x3 ADD SWAP3 SWAP1 SWAP3 SSTORE CALLER DUP2 MSTORE PUSH1 0xD SWAP1 SWAP2 MSTORE KECCAK256 SLOAD ISZERO PUSH2 0x920 JUMPI PUSH2 0x91E CALLER PUSH2 0x595 JUMP JUMPDEST PUSH1 0x3 SLOAD PUSH1 0x0 SWAP1 PUSH1 0x1 PUSH1 0x1 PUSH1 0xA0 SHL SUB AND CALLER EQ DUP1 PUSH2 0xB20 JUMPI POP PUSH1 0x2 SLOAD PUSH1 0x1 PUSH1 0x1 PUSH1 0xA0 SHL SUB AND CALLER EQ JUMPDEST PUSH2 0xB3C JUMPI PUSH1 0x40 MLOAD PUSH3 0x461BCD PUSH1 0xE5 SHL DUP2 MSTORE PUSH1 0x4 ADD PUSH2 0x445 SWAP1 PUSH2 0x2302 JUMP JUMPDEST PUSH2 0xB45 DUP3 PUSH2 0x1395 JUMP JUMPDEST ISZERO PUSH2 0xBA9 JUMPI PUSH1 0x11 SLOAD PUSH1 0x0 JUMPDEST DUP2 DUP2 LT ISZERO PUSH2 0xB9F JUMPI PUSH2 0xB8C PUSH1 0x11 DUP3 DUP2 SLOAD DUP2 LT PUSH2 0xB7C JUMPI PUSH4 0x4E487B71 PUSH1 0xE0 SHL PUSH1 0x0 MSTORE PUSH1 0x32 PUSH1 0x4 MSTORE PUSH1 0x24 PUSH1 0x0 REVERT JUMPDEST SWAP1 PUSH1 0x0 MSTORE PUSH1 0x20 PUSH1 0x0 KECCAK256 ADD SLOAD PUSH2 0x194C JUMP JUMPDEST POP DUP1 PUSH2 0xB97 DUP2 PUSH2 0x238C JUMP JUMPDEST SWAP2 POP POP PUSH2 0xB50 JUMP JUMPDEST POP PUSH1 0x1 SWAP4 SWAP3 POP POP POP JUMP JUMPDEST POP PUSH1 0x0 JUMPDEST SWAP2 SWAP1 POP JUMP JUMPDEST PUSH1 0x60 PUSH1 0xE DUP1 SLOAD DUP1 PUSH1 0x20 MUL PUSH1 0x20 ADD PUSH1 0x40 MLOAD SWAP1 DUP2 ADD PUSH1 0x40 MSTORE DUP1 SWAP3 SWAP2 SWAP1 DUP2 DUP2 MSTORE PUSH1 0x20 ADD DUP3 DUP1 SLOAD DUP1 ISZERO PUSH2 0x9CD JUMPI PUSH1 0x20 MUL DUP3 ADD SWAP2 SWAP1 PUSH1 0x0 MSTORE PUSH1 0x20 PUSH1 0x0 KECCAK256 SWAP1 DUP2 SLOAD DUP2 MSTORE PUSH1 0x20 ADD SWAP1 PUSH1 0x1 ADD SWAP1 DUP1 DUP4 GT PUSH2 0x9B9 JUMPI POP POP POP POP POP SWAP1 POP SWAP1 JUMP JUMPDEST PUSH1 0x3 SLOAD PUSH1 0x0 SWAP1 PUSH1 0x1 PUSH1 0x1 PUSH1 0xA0 SHL SUB AND CALLER EQ DUP1 PUSH2 0xC2E JUMPI POP PUSH1 0x2 SLOAD PUSH1 0x1 PUSH1 0x1 PUSH1 0xA0 SHL SUB AND CALLER EQ JUMPDEST PUSH2 0xC4A JUMPI PUSH1 0x40 MLOAD PUSH3 0x461BCD PUSH1 0xE5 SHL DUP2 MSTORE PUSH1 0x4 ADD PUSH2 0x445 SWAP1 PUSH2 0x2302 JUMP JUMPDEST PUSH1 0xC SLOAD ISZERO DUP1 PUSH2 0xC5B JUMPI POP PUSH1 0xC SLOAD PUSH1 0x4 EQ JUMPDEST ISZERO PUSH2 0x979 JUMPI PUSH1 0x11 SLOAD PUSH1 0x0 JUMPDEST DUP2 DUP2 LT ISZERO PUSH2 0xCB5 JUMPI PUSH2 0xCA2 PUSH1 0x11 DUP3 DUP2 SLOAD DUP2 LT PUSH2 0xC92 JUMPI PUSH4 0x4E487B71 PUSH1 0xE0 SHL PUSH1 0x0 MSTORE PUSH1 0x32 PUSH1 0x4 MSTORE PUSH1 0x24 PUSH1 0x0 REVERT JUMPDEST SWAP1 PUSH1 0x0 MSTORE PUSH1 0x20 PUSH1 0x0 KECCAK256 ADD SLOAD PUSH2 0x1CDF JUMP JUMPDEST POP DUP1 PUSH2 0xCAD DUP2 PUSH2 0x238C JUMP JUMPDEST SWAP2 POP POP PUSH2 0xC66 JUMP JUMPDEST POP POP PUSH1 0x3 PUSH1 0xC SSTORE POP PUSH1 0x1 SWAP1 JUMP JUMPDEST PUSH1 0xB SLOAD PUSH1 0x40 MLOAD PUSH4 0x332DACCF PUSH1 0xE0 SHL DUP2 MSTORE CALLER PUSH1 0x4 DUP3 ADD MSTORE PUSH1 0x0 SWAP2 PUSH1 0x1 PUSH1 0x1 PUSH1 0xA0 SHL SUB AND SWAP1 PUSH4 0x332DACCF SWAP1 PUSH1 0x24 ADD PUSH1 0x20 PUSH1 0x40 MLOAD DUP1 DUP4 SUB DUP2 DUP7 DUP1 EXTCODESIZE ISZERO DUP1 ISZERO PUSH2 0xD06 JUMPI PUSH1 0x0 DUP1 REVERT JUMPDEST POP GAS STATICCALL ISZERO DUP1 ISZERO PUSH2 0xD1A JUMPI RETURNDATASIZE PUSH1 0x0 DUP1 RETURNDATACOPY RETURNDATASIZE PUSH1 0x0 REVERT JUMPDEST POP POP POP POP PUSH1 0x40 MLOAD RETURNDATASIZE PUSH1 0x1F NOT PUSH1 0x1F DUP3 ADD AND DUP3 ADD DUP1 PUSH1 0x40 MSTORE POP DUP2 ADD SWAP1 PUSH2 0xD3E SWAP2 SWAP1 PUSH2 0x2272 JUMP JUMPDEST ISZERO PUSH2 0xD70 JUMPI PUSH1 0x40 MLOAD PUSH3 0x461BCD PUSH1 0xE5 SHL DUP2 MSTORE PUSH1 0x20 PUSH1 0x4 DUP3 ADD MSTORE PUSH1 0x2 PUSH1 0x24 DUP3 ADD MSTORE PUSH2 0x4D31 PUSH1 0xF0 SHL PUSH1 0x44 DUP3 ADD MSTORE PUSH1 0x64 ADD PUSH2 0x445 JUMP JUMPDEST PUSH1 0xC SLOAD ISZERO PUSH2 0xDB4 JUMPI PUSH1 0x40 MLOAD PUSH3 0x461BCD PUSH1 0xE5 SHL DUP2 MSTORE PUSH1 0x20 PUSH1 0x4 DUP3 ADD MSTORE PUSH1 0x11 PUSH1 0x24 DUP3 ADD MSTORE PUSH17 0x6D61726B6574206E6F7420616374697665 PUSH1 0x78 SHL PUSH1 0x44 DUP3 ADD MSTORE PUSH1 0x64 ADD PUSH2 0x445 JUMP JUMPDEST DUP3 PUSH1 0x1 EQ DUP1 PUSH2 0xDC3 JUMPI POP DUP3 PUSH1 0x2 EQ JUMPDEST PUSH2 0xDFE JUMPI PUSH1 0x40 MLOAD PUSH3 0x461BCD PUSH1 0xE5 SHL DUP2 MSTORE PUSH1 0x20 PUSH1 0x4 DUP3 ADD MSTORE PUSH1 0xC PUSH1 0x24 DUP3 ADD MSTORE PUSH12 0x696E76616C69642073696465 PUSH1 0xA0 SHL PUSH1 0x44 DUP3 ADD MSTORE PUSH1 0x64 ADD PUSH2 0x445 JUMP JUMPDEST PUSH1 0x40 MLOAD PUSH4 0x70A08231 PUSH1 0xE0 SHL DUP2 MSTORE CALLER PUSH1 0x4 DUP3 ADD MSTORE DUP6 SWAP1 PUSH32 0x0 PUSH1 0x1 PUSH1 0x1 PUSH1 0xA0 SHL SUB AND SWAP1 PUSH4 0x70A08231 SWAP1 PUSH1 0x24 ADD PUSH1 0x20 PUSH1 0x40 MLOAD DUP1 DUP4 SUB DUP2 DUP7 DUP1 EXTCODESIZE ISZERO DUP1 ISZERO PUSH2 0xE5F JUMPI PUSH1 0x0 DUP1 REVERT JUMPDEST POP GAS STATICCALL ISZERO DUP1 ISZERO PUSH2 0xE73 JUMPI RETURNDATASIZE PUSH1 0x0 DUP1 RETURNDATACOPY RETURNDATASIZE PUSH1 0x0 REVERT JUMPDEST POP POP POP POP PUSH1 0x40 MLOAD RETURNDATASIZE PUSH1 0x1F NOT PUSH1 0x1F DUP3 ADD AND DUP3 ADD DUP1 PUSH1 0x40 MSTORE POP DUP2 ADD SWAP1 PUSH2 0xE97 SWAP2 SWAP1 PUSH2 0x22A6 JUMP JUMPDEST LT ISZERO PUSH2 0xEE5 JUMPI PUSH1 0x40 MLOAD PUSH3 0x461BCD PUSH1 0xE5 SHL DUP2 MSTORE PUSH1 0x20 PUSH1 0x4 DUP3 ADD MSTORE PUSH1 0x19 PUSH1 0x24 DUP3 ADD MSTORE PUSH32 0x6E6F7420656E6F75676820746F6B656E2062616C616C6E636500000000000000 PUSH1 0x44 DUP3 ADD MSTORE PUSH1 0x64 ADD PUSH2 0x445 JUMP JUMPDEST PUSH1 0x40 MLOAD PUSH4 0x6EB1769F PUSH1 0xE1 SHL DUP2 MSTORE CALLER PUSH1 0x4 DUP3 ADD MSTORE ADDRESS PUSH1 0x24 DUP3 ADD MSTORE DUP6 SWAP1 PUSH32 0x0 PUSH1 0x1 PUSH1 0x1 PUSH1 0xA0 SHL SUB AND SWAP1 PUSH4 0xDD62ED3E SWAP1 PUSH1 0x44 ADD PUSH1 0x20 PUSH1 0x40 MLOAD DUP1 DUP4 SUB DUP2 DUP7 DUP1 EXTCODESIZE ISZERO DUP1 ISZERO PUSH2 0xF4C JUMPI PUSH1 0x0 DUP1 REVERT JUMPDEST POP GAS STATICCALL ISZERO DUP1 ISZERO PUSH2 0xF60 JUMPI RETURNDATASIZE PUSH1 0x0 DUP1 RETURNDATACOPY RETURNDATASIZE PUSH1 0x0 REVERT JUMPDEST POP POP POP POP PUSH1 0x40 MLOAD RETURNDATASIZE PUSH1 0x1F NOT PUSH1 0x1F DUP3 ADD AND DUP3 ADD DUP1 PUSH1 0x40 MSTORE POP DUP2 ADD SWAP1 PUSH2 0xF84 SWAP2 SWAP1 PUSH2 0x22A6 JUMP JUMPDEST LT ISZERO PUSH2 0xFC9 JUMPI PUSH1 0x40 MLOAD PUSH3 0x461BCD PUSH1 0xE5 SHL DUP2 MSTORE PUSH1 0x20 PUSH1 0x4 DUP3 ADD MSTORE PUSH1 0x14 PUSH1 0x24 DUP3 ADD MSTORE PUSH20 0x6E6F7420656E6F75676820616C6C6F77616E6365 PUSH1 0x60 SHL PUSH1 0x44 DUP3 ADD MSTORE PUSH1 0x64 ADD PUSH2 0x445 JUMP JUMPDEST PUSH1 0x6 SLOAD DUP6 LT ISZERO PUSH2 0x1011 JUMPI PUSH1 0x40 MLOAD PUSH3 0x461BCD PUSH1 0xE5 SHL DUP2 MSTORE PUSH1 0x20 PUSH1 0x4 DUP3 ADD MSTORE PUSH1 0x13 PUSH1 0x24 DUP3 ADD MSTORE PUSH19 0x6C657373207468616E206D696E207374616B65 PUSH1 0x68 SHL PUSH1 0x44 DUP3 ADD MSTORE PUSH1 0x64 ADD PUSH2 0x445 JUMP JUMPDEST PUSH1 0x40 MLOAD PUSH4 0x23B872DD PUSH1 0xE0 SHL DUP2 MSTORE CALLER PUSH1 0x4 DUP3 ADD MSTORE ADDRESS PUSH1 0x24 DUP3 ADD MSTORE PUSH1 0x44 DUP2 ADD DUP7 SWAP1 MSTORE PUSH32 0x0 PUSH1 0x1 PUSH1 0x1 PUSH1 0xA0 SHL SUB AND SWAP1 PUSH4 0x23B872DD SWAP1 PUSH1 0x64 ADD PUSH1 0x20 PUSH1 0x40 MLOAD DUP1 DUP4 SUB DUP2 PUSH1 0x0 DUP8 DUP1 EXTCODESIZE ISZERO DUP1 ISZERO PUSH2 0x107F JUMPI PUSH1 0x0 DUP1 REVERT JUMPDEST POP GAS CALL ISZERO DUP1 ISZERO PUSH2 0x1093 JUMPI RETURNDATASIZE PUSH1 0x0 DUP1 RETURNDATACOPY RETURNDATASIZE PUSH1 0x0 REVERT JUMPDEST POP POP POP POP PUSH1 0x40 MLOAD RETURNDATASIZE PUSH1 0x1F NOT PUSH1 0x1F DUP3 ADD AND DUP3 ADD DUP1 PUSH1 0x40 MSTORE POP DUP2 ADD SWAP1 PUSH2 0x10B7 SWAP2 SWAP1 PUSH2 0x2272 JUMP JUMPDEST PUSH2 0x1103 JUMPI PUSH1 0x40 MLOAD PUSH3 0x461BCD PUSH1 0xE5 SHL DUP2 MSTORE PUSH1 0x20 PUSH1 0x4 DUP3 ADD MSTORE PUSH1 0x1B PUSH1 0x24 DUP3 ADD MSTORE PUSH32 0x7472616E736665722066726F6D2063616C6C6572206661696C65640000000000 PUSH1 0x44 DUP3 ADD MSTORE PUSH1 0x64 ADD PUSH2 0x445 JUMP JUMPDEST PUSH1 0x0 PUSH2 0x1132 CALLER DUP9 DUP9 DUP5 PUSH2 0x1117 PUSH1 0x64 DUP12 PUSH2 0x2375 JUMP JUMPDEST PUSH2 0x1122 DUP12 PUSH1 0x64 PUSH2 0x2356 JUMP JUMPDEST PUSH2 0x112C SWAP2 SWAP1 PUSH2 0x2336 JUMP JUMPDEST DUP10 PUSH2 0x1DC1 JUMP JUMPDEST PUSH1 0xE SLOAD SWAP1 SWAP2 POP ISZERO PUSH2 0x1336 JUMPI PUSH1 0xE SLOAD DUP7 SWAP1 JUMPDEST PUSH1 0x6 SLOAD DUP3 LT PUSH2 0x1333 JUMPI PUSH1 0x0 DUP1 PUSH1 0x0 JUMPDEST DUP4 DUP2 LT ISZERO PUSH2 0x121B JUMPI PUSH1 0x0 PUSH1 0xE DUP3 DUP2 SLOAD DUP2 LT PUSH2 0x117D JUMPI PUSH4 0x4E487B71 PUSH1 0xE0 SHL PUSH1 0x0 MSTORE PUSH1 0x32 PUSH1 0x4 MSTORE PUSH1 0x24 PUSH1 0x0 REVERT JUMPDEST SWAP1 PUSH1 0x0 MSTORE PUSH1 0x20 PUSH1 0x0 KECCAK256 ADD SLOAD SWAP1 POP PUSH1 0x10 PUSH1 0x0 DUP3 DUP2 MSTORE PUSH1 0x20 ADD SWAP1 DUP2 MSTORE PUSH1 0x20 ADD PUSH1 0x0 KECCAK256 PUSH1 0x5 ADD SLOAD DUP11 EQ ISZERO PUSH2 0x11AE JUMPI POP PUSH2 0x1209 JUMP JUMPDEST PUSH1 0x0 DUP2 DUP2 MSTORE PUSH1 0x10 PUSH1 0x20 MSTORE PUSH1 0x40 SWAP1 KECCAK256 SLOAD PUSH1 0x1 PUSH1 0x1 PUSH1 0xA0 SHL SUB AND CALLER EQ ISZERO PUSH2 0x11D3 JUMPI POP PUSH2 0x1209 JUMP JUMPDEST PUSH1 0x0 DUP2 DUP2 MSTORE PUSH1 0x10 PUSH1 0x20 MSTORE PUSH1 0x40 SWAP1 KECCAK256 PUSH1 0x4 ADD SLOAD DUP4 LT ISZERO PUSH2 0x1207 JUMPI PUSH1 0x0 DUP2 DUP2 MSTORE PUSH1 0x10 PUSH1 0x20 MSTORE PUSH1 0x40 SWAP1 KECCAK256 PUSH1 0x4 ADD SLOAD SWAP2 SWAP4 POP SWAP1 SWAP2 POP DUP3 SWAP1 JUMPDEST POP JUMPDEST DUP1 PUSH2 0x1213 DUP2 PUSH2 0x238C JUMP JUMPDEST SWAP2 POP POP PUSH2 0x1152 JUMP JUMPDEST POP PUSH1 0x0 DUP10 DUP3 LT ISZERO DUP1 PUSH2 0x1235 JUMPI POP PUSH1 0x0 DUP3 GT DUP1 ISZERO PUSH2 0x1235 JUMPI POP DUP8 JUMPDEST ISZERO PUSH2 0x1317 JUMPI PUSH1 0x0 PUSH1 0xE DUP5 DUP2 SLOAD DUP2 LT PUSH2 0x125D JUMPI PUSH4 0x4E487B71 PUSH1 0xE0 SHL PUSH1 0x0 MSTORE PUSH1 0x32 PUSH1 0x4 MSTORE PUSH1 0x24 PUSH1 0x0 REVERT JUMPDEST PUSH1 0x0 SWAP2 DUP3 MSTORE PUSH1 0x20 DUP1 DUP4 KECCAK256 SWAP1 SWAP2 ADD SLOAD DUP1 DUP4 MSTORE PUSH1 0x10 DUP3 MSTORE PUSH1 0x40 DUP1 DUP5 KECCAK256 DUP2 MLOAD PUSH1 0xC0 DUP2 ADD DUP4 MSTORE DUP2 SLOAD PUSH1 0x1 PUSH1 0x1 PUSH1 0xA0 SHL SUB SWAP1 DUP2 AND DUP3 MSTORE PUSH1 0x1 DUP4 ADD SLOAD AND SWAP5 DUP2 ADD SWAP5 SWAP1 SWAP5 MSTORE PUSH1 0x2 DUP2 ADD SLOAD SWAP2 DUP5 ADD SWAP2 SWAP1 SWAP2 MSTORE PUSH1 0x3 DUP2 ADD SLOAD PUSH1 0x60 DUP5 ADD MSTORE PUSH1 0x4 DUP2 ADD SLOAD PUSH1 0x80 DUP5 ADD MSTORE PUSH1 0x5 ADD SLOAD PUSH1 0xA0 DUP4 ADD MSTORE SWAP3 POP SWAP1 PUSH2 0x12D2 PUSH1 0x64 DUP15 PUSH2 0x2375 JUMP JUMPDEST DUP3 PUSH1 0x60 ADD MLOAD DUP4 PUSH1 0x40 ADD MLOAD PUSH2 0x12E6 SWAP2 SWAP1 PUSH2 0x2375 JUMP JUMPDEST PUSH2 0x12F0 SWAP2 SWAP1 PUSH2 0x2336 JUMP JUMPDEST SWAP1 POP PUSH2 0x12FD PUSH1 0x64 DUP3 PUSH2 0x2356 JUMP JUMPDEST SWAP1 POP PUSH2 0x130D DUP15 DUP3 DUP16 DUP16 DUP14 DUP9 PUSH2 0x1F69 JUMP JUMPDEST SWAP4 POP POP POP POP PUSH2 0x131F JUMP JUMPDEST POP POP POP PUSH2 0x1333 JUMP JUMPDEST PUSH2 0x1329 DUP2 DUP7 PUSH2 0x2375 JUMP JUMPDEST SWAP5 POP POP POP POP PUSH2 0x1143 JUMP JUMPDEST POP POP JUMPDEST PUSH1 0x40 DUP1 MLOAD CALLER DUP2 MSTORE ADDRESS PUSH1 0x20 DUP3 ADD MSTORE SWAP1 DUP2 ADD DUP3 SWAP1 MSTORE PUSH1 0x60 DUP2 ADD DUP8 SWAP1 MSTORE PUSH1 0x80 DUP2 ADD DUP7 SWAP1 MSTORE PUSH1 0xA0 DUP2 ADD DUP6 SWAP1 MSTORE PUSH32 0x618F358BB45538682ADE624A4A1959053D9DABD20FE300508034B879681B37BE SWAP1 PUSH1 0xC0 ADD PUSH1 0x40 MLOAD DUP1 SWAP2 SUB SWAP1 LOG1 SWAP7 SWAP6 POP POP POP POP POP POP JUMP JUMPDEST PUSH1 0x3 SLOAD PUSH1 0x0 SWAP1 PUSH1 0x1 PUSH1 0x1 PUSH1 0xA0 SHL SUB AND CALLER EQ DUP1 PUSH2 0x13BB JUMPI POP PUSH1 0x2 SLOAD PUSH1 0x1 PUSH1 0x1 PUSH1 0xA0 SHL SUB AND CALLER EQ JUMPDEST PUSH2 0x13D7 JUMPI PUSH1 0x40 MLOAD PUSH3 0x461BCD PUSH1 0xE5 SHL DUP2 MSTORE PUSH1 0x4 ADD PUSH2 0x445 SWAP1 PUSH2 0x2302 JUMP JUMPDEST PUSH1 0xC SLOAD ISZERO DUP1 PUSH2 0x13E8 JUMPI POP PUSH1 0xC SLOAD PUSH1 0x1 EQ JUMPDEST DUP1 PUSH2 0x13F5 JUMPI POP PUSH1 0xC SLOAD PUSH1 0x2 EQ JUMPDEST DUP1 PUSH2 0x1402 JUMPI POP PUSH1 0xC SLOAD PUSH1 0x4 EQ JUMPDEST DUP1 ISZERO PUSH2 0x1418 JUMPI POP DUP2 PUSH1 0x1 EQ DUP1 PUSH2 0x1418 JUMPI POP DUP2 PUSH1 0x2 EQ JUMPDEST ISZERO PUSH2 0xBA9 JUMPI POP PUSH1 0xC SSTORE PUSH1 0x1 SWAP1 JUMP JUMPDEST PUSH1 0x3 SLOAD PUSH1 0x0 SWAP1 PUSH1 0x1 PUSH1 0x1 PUSH1 0xA0 SHL SUB AND CALLER EQ DUP1 PUSH2 0x144C JUMPI POP PUSH1 0x2 SLOAD PUSH1 0x1 PUSH1 0x1 PUSH1 0xA0 SHL SUB AND CALLER EQ JUMPDEST PUSH2 0x1468 JUMPI PUSH1 0x40 MLOAD PUSH3 0x461BCD PUSH1 0xE5 SHL DUP2 MSTORE PUSH1 0x4 ADD PUSH2 0x445 SWAP1 PUSH2 0x2302 JUMP JUMPDEST PUSH1 0xC SLOAD ISZERO DUP1 PUSH2 0x1479 JUMPI POP PUSH1 0xC SLOAD PUSH1 0x4 EQ JUMPDEST ISZERO PUSH2 0x979 JUMPI POP PUSH1 0x3 PUSH1 0xC SSTORE PUSH1 0x1 SWAP1 JUMP JUMPDEST PUSH1 0x0 DUP2 DUP2 MSTORE PUSH1 0x10 PUSH1 0x20 SWAP1 DUP2 MSTORE PUSH1 0x40 DUP1 DUP4 KECCAK256 DUP2 MLOAD PUSH1 0xC0 DUP2 ADD DUP4 MSTORE DUP2 SLOAD PUSH1 0x1 PUSH1 0x1 PUSH1 0xA0 SHL SUB SWAP1 DUP2 AND DUP3 MSTORE PUSH1 0x1 DUP4 ADD SLOAD AND DUP2 DUP6 ADD MSTORE PUSH1 0x2 DUP3 ADD SLOAD DUP2 DUP5 ADD MSTORE PUSH1 0x3 DUP3 ADD SLOAD PUSH1 0x60 DUP3 ADD MSTORE PUSH1 0x4 DUP3 ADD SLOAD PUSH1 0x80 DUP3 ADD MSTORE PUSH1 0x5 SWAP1 SWAP2 ADD SLOAD PUSH1 0xA0 DUP3 ADD MSTORE DUP5 DUP5 MSTORE PUSH1 0x12 DUP4 MSTORE DUP2 DUP5 KECCAK256 DUP1 SLOAD DUP4 MLOAD DUP2 DUP7 MUL DUP2 ADD DUP7 ADD SWAP1 SWAP5 MSTORE DUP1 DUP5 MSTORE SWAP2 SWAP4 DUP6 SWAP4 SWAP3 SWAP1 DUP4 ADD DUP3 DUP3 DUP1 ISZERO PUSH2 0x1533 JUMPI PUSH1 0x20 MUL DUP3 ADD SWAP2 SWAP1 PUSH1 0x0 MSTORE PUSH1 0x20 PUSH1 0x0 KECCAK256 SWAP1 JUMPDEST DUP2 SLOAD DUP2 MSTORE PUSH1 0x20 ADD SWAP1 PUSH1 0x1 ADD SWAP1 DUP1 DUP4 GT PUSH2 0x151F JUMPI JUMPDEST POP POP DUP4 MLOAD SWAP4 SWAP5 POP PUSH1 0x0 SWAP3 POP POP POP JUMPDEST DUP2 DUP2 LT ISZERO PUSH2 0x1940 JUMPI PUSH1 0x13 PUSH1 0x0 DUP5 DUP4 DUP2 MLOAD DUP2 LT PUSH2 0x156D JUMPI PUSH4 0x4E487B71 PUSH1 0xE0 SHL PUSH1 0x0 MSTORE PUSH1 0x32 PUSH1 0x4 MSTORE PUSH1 0x24 PUSH1 0x0 REVERT JUMPDEST PUSH1 0x20 SWAP1 DUP2 MUL SWAP2 SWAP1 SWAP2 ADD DUP2 ADD MLOAD DUP3 MSTORE DUP2 ADD SWAP2 SWAP1 SWAP2 MSTORE PUSH1 0x40 ADD PUSH1 0x0 KECCAK256 PUSH1 0x4 ADD SLOAD PUSH1 0xFF AND ISZERO PUSH2 0x1598 JUMPI PUSH2 0x192E JUMP JUMPDEST PUSH1 0x0 DUP1 PUSH1 0x0 DUP1 DUP8 PUSH1 0xA0 ADD MLOAD PUSH1 0x1 EQ ISZERO PUSH2 0x1670 JUMPI PUSH1 0x13 PUSH1 0x0 DUP9 DUP8 DUP2 MLOAD DUP2 LT PUSH2 0x15CF JUMPI PUSH4 0x4E487B71 PUSH1 0xE0 SHL PUSH1 0x0 MSTORE PUSH1 0x32 PUSH1 0x4 MSTORE PUSH1 0x24 PUSH1 0x0 REVERT JUMPDEST PUSH1 0x20 MUL PUSH1 0x20 ADD ADD MLOAD DUP2 MSTORE PUSH1 0x20 ADD SWAP1 DUP2 MSTORE PUSH1 0x20 ADD PUSH1 0x0 KECCAK256 PUSH1 0x2 ADD SLOAD SWAP2 POP PUSH1 0x13 PUSH1 0x0 DUP9 DUP8 DUP2 MLOAD DUP2 LT PUSH2 0x160F JUMPI PUSH4 0x4E487B71 PUSH1 0xE0 SHL PUSH1 0x0 MSTORE PUSH1 0x32 PUSH1 0x4 MSTORE PUSH1 0x24 PUSH1 0x0 REVERT JUMPDEST PUSH1 0x20 MUL PUSH1 0x20 ADD ADD MLOAD DUP2 MSTORE PUSH1 0x20 ADD SWAP1 DUP2 MSTORE PUSH1 0x20 ADD PUSH1 0x0 KECCAK256 PUSH1 0x1 ADD SLOAD SWAP4 POP PUSH1 0x13 PUSH1 0x0 DUP9 DUP8 DUP2 MLOAD DUP2 LT PUSH2 0x164F JUMPI PUSH4 0x4E487B71 PUSH1 0xE0 SHL PUSH1 0x0 MSTORE PUSH1 0x32 PUSH1 0x4 MSTORE PUSH1 0x24 PUSH1 0x0 REVERT JUMPDEST PUSH1 0x20 MUL PUSH1 0x20 ADD ADD MLOAD DUP2 MSTORE PUSH1 0x20 ADD SWAP1 DUP2 MSTORE PUSH1 0x20 ADD PUSH1 0x0 KECCAK256 PUSH1 0x3 ADD SLOAD SWAP3 POP PUSH2 0x173E JUMP JUMPDEST DUP8 PUSH1 0xA0 ADD MLOAD PUSH1 0x2 EQ ISZERO PUSH2 0x173E JUMPI PUSH1 0x13 PUSH1 0x0 DUP9 DUP8 DUP2 MLOAD DUP2 LT PUSH2 0x16A1 JUMPI PUSH4 0x4E487B71 PUSH1 0xE0 SHL PUSH1 0x0 MSTORE PUSH1 0x32 PUSH1 0x4 MSTORE PUSH1 0x24 PUSH1 0x0 REVERT JUMPDEST PUSH1 0x20 MUL PUSH1 0x20 ADD ADD MLOAD DUP2 MSTORE PUSH1 0x20 ADD SWAP1 DUP2 MSTORE PUSH1 0x20 ADD PUSH1 0x0 KECCAK256 PUSH1 0x3 ADD SLOAD SWAP2 POP PUSH1 0x13 PUSH1 0x0 DUP9 DUP8 DUP2 MLOAD DUP2 LT PUSH2 0x16E1 JUMPI PUSH4 0x4E487B71 PUSH1 0xE0 SHL PUSH1 0x0 MSTORE PUSH1 0x32 PUSH1 0x4 MSTORE PUSH1 0x24 PUSH1 0x0 REVERT JUMPDEST PUSH1 0x20 MUL PUSH1 0x20 ADD ADD MLOAD DUP2 MSTORE PUSH1 0x20 ADD SWAP1 DUP2 MSTORE PUSH1 0x20 ADD PUSH1 0x0 KECCAK256 PUSH1 0x0 ADD SLOAD SWAP4 POP PUSH1 0x13 PUSH1 0x0 DUP9 DUP8 DUP2 MLOAD DUP2 LT PUSH2 0x1721 JUMPI PUSH4 0x4E487B71 PUSH1 0xE0 SHL PUSH1 0x0 MSTORE PUSH1 0x32 PUSH1 0x4 MSTORE PUSH1 0x24 PUSH1 0x0 REVERT JUMPDEST PUSH1 0x20 MUL PUSH1 0x20 ADD ADD MLOAD DUP2 MSTORE PUSH1 0x20 ADD SWAP1 DUP2 MSTORE PUSH1 0x20 ADD PUSH1 0x0 KECCAK256 PUSH1 0x2 ADD SLOAD SWAP3 POP JUMPDEST POP PUSH1 0x0 DUP4 DUP2 MSTORE PUSH1 0x10 PUSH1 0x20 MSTORE PUSH1 0x40 SWAP1 KECCAK256 SLOAD PUSH1 0x7 SLOAD PUSH1 0x1 PUSH1 0x1 PUSH1 0xA0 SHL SUB SWAP1 SWAP2 AND SWAP1 PUSH1 0x64 SWAP1 PUSH2 0x176A SWAP1 DUP3 PUSH2 0x2375 JUMP JUMPDEST PUSH2 0x1774 SWAP1 DUP5 PUSH2 0x2356 JUMP JUMPDEST PUSH2 0x177E SWAP2 SWAP1 PUSH2 0x2336 JUMP JUMPDEST DUP9 MLOAD PUSH1 0x1 PUSH1 0x1 PUSH1 0xA0 SHL SUB AND PUSH1 0x0 SWAP1 DUP2 MSTORE PUSH1 0xD PUSH1 0x20 MSTORE PUSH1 0x40 DUP2 KECCAK256 DUP1 SLOAD SWAP1 SWAP2 SWAP1 PUSH2 0x17A7 SWAP1 DUP5 SWAP1 PUSH2 0x231E JUMP JUMPDEST SWAP1 SWAP2 SSTORE POP POP PUSH1 0x0 DUP5 DUP2 MSTORE PUSH1 0x10 PUSH1 0x20 MSTORE PUSH1 0x40 DUP2 KECCAK256 PUSH1 0x3 ADD DUP1 SLOAD DUP6 SWAP3 SWAP1 PUSH2 0x17CD SWAP1 DUP5 SWAP1 PUSH2 0x2375 JUMP JUMPDEST SWAP1 SWAP2 SSTORE POP POP PUSH1 0x7 SLOAD PUSH1 0x0 SWAP1 PUSH1 0x64 SWAP1 PUSH2 0x17E5 SWAP1 DUP6 PUSH2 0x2356 JUMP JUMPDEST PUSH2 0x17EF SWAP2 SWAP1 PUSH2 0x2336 JUMP JUMPDEST PUSH1 0xA SLOAD SWAP1 SWAP2 POP PUSH1 0x64 SWAP1 PUSH2 0x1802 SWAP1 DUP4 PUSH2 0x2356 JUMP JUMPDEST PUSH2 0x180C SWAP2 SWAP1 PUSH2 0x2336 JUMP JUMPDEST PUSH1 0x4 SLOAD PUSH1 0x1 PUSH1 0x1 PUSH1 0xA0 SHL SUB AND PUSH1 0x0 SWAP1 DUP2 MSTORE PUSH1 0xD PUSH1 0x20 MSTORE PUSH1 0x40 DUP2 KECCAK256 DUP1 SLOAD SWAP1 SWAP2 SWAP1 PUSH2 0x1836 SWAP1 DUP5 SWAP1 PUSH2 0x231E JUMP JUMPDEST SWAP1 SWAP2 SSTORE POP POP PUSH1 0x9 SLOAD PUSH1 0x64 SWAP1 PUSH2 0x184B SWAP1 DUP4 PUSH2 0x2356 JUMP JUMPDEST PUSH2 0x1855 SWAP2 SWAP1 PUSH2 0x2336 JUMP JUMPDEST PUSH1 0x5 SLOAD PUSH1 0x1 PUSH1 0x1 PUSH1 0xA0 SHL SUB AND PUSH1 0x0 SWAP1 DUP2 MSTORE PUSH1 0xD PUSH1 0x20 MSTORE PUSH1 0x40 DUP2 KECCAK256 DUP1 SLOAD SWAP1 SWAP2 SWAP1 PUSH2 0x187F SWAP1 DUP5 SWAP1 PUSH2 0x231E JUMP JUMPDEST SWAP1 SWAP2 SSTORE POP POP PUSH1 0x8 SLOAD PUSH1 0x64 SWAP1 PUSH2 0x1894 SWAP1 DUP4 PUSH2 0x2356 JUMP JUMPDEST PUSH2 0x189E SWAP2 SWAP1 PUSH2 0x2336 JUMP JUMPDEST PUSH1 0x20 DUP1 DUP12 ADD MLOAD PUSH1 0x1 PUSH1 0x1 PUSH1 0xA0 SHL SUB AND PUSH1 0x0 SWAP1 DUP2 MSTORE PUSH1 0xD SWAP1 SWAP2 MSTORE PUSH1 0x40 DUP2 KECCAK256 DUP1 SLOAD SWAP1 SWAP2 SWAP1 PUSH2 0x18CB SWAP1 DUP5 SWAP1 PUSH2 0x231E JUMP JUMPDEST SWAP3 POP POP DUP2 SWAP1 SSTORE POP PUSH1 0x1 PUSH1 0x13 PUSH1 0x0 DUP11 DUP10 DUP2 MLOAD DUP2 LT PUSH2 0x18F8 JUMPI PUSH4 0x4E487B71 PUSH1 0xE0 SHL PUSH1 0x0 MSTORE PUSH1 0x32 PUSH1 0x4 MSTORE PUSH1 0x24 PUSH1 0x0 REVERT JUMPDEST PUSH1 0x20 MUL PUSH1 0x20 ADD ADD MLOAD DUP2 MSTORE PUSH1 0x20 ADD SWAP1 DUP2 MSTORE PUSH1 0x20 ADD PUSH1 0x0 KECCAK256 PUSH1 0x4 ADD PUSH1 0x0 PUSH2 0x100 EXP DUP2 SLOAD DUP2 PUSH1 0xFF MUL NOT AND SWAP1 DUP4 ISZERO ISZERO MUL OR SWAP1 SSTORE POP POP POP POP POP POP JUMPDEST DUP1 PUSH2 0x1938 DUP2 PUSH2 0x238C JUMP JUMPDEST SWAP2 POP POP PUSH2 0x1541 JUMP JUMPDEST POP PUSH1 0x1 SWAP6 SWAP5 POP POP POP POP POP JUMP JUMPDEST PUSH1 0x0 PUSH1 0x2 PUSH1 0x0 SLOAD EQ ISZERO PUSH2 0x19A1 JUMPI PUSH1 0x40 MLOAD PUSH3 0x461BCD PUSH1 0xE5 SHL DUP2 MSTORE PUSH1 0x20 PUSH1 0x4 DUP3 ADD MSTORE PUSH1 0x1F PUSH1 0x24 DUP3 ADD MSTORE PUSH32 0x5265656E7472616E637947756172643A207265656E7472616E742063616C6C00 PUSH1 0x44 DUP3 ADD MSTORE PUSH1 0x64 ADD PUSH2 0x445 JUMP JUMPDEST PUSH1 0x2 PUSH1 0x0 SWAP1 DUP2 SSTORE DUP3 DUP2 MSTORE PUSH1 0x13 PUSH1 0x20 MSTORE PUSH1 0x40 SWAP1 KECCAK256 PUSH1 0x4 ADD SLOAD PUSH1 0xFF AND ISZERO PUSH2 0x19C8 JUMPI POP PUSH1 0x0 PUSH2 0x846 JUMP JUMPDEST PUSH1 0x0 DUP1 PUSH1 0x0 DUP1 PUSH1 0xC SLOAD PUSH1 0x1 EQ ISZERO PUSH2 0x1AB4 JUMPI PUSH1 0x0 DUP7 DUP2 MSTORE PUSH1 0x13 PUSH1 0x20 SWAP1 DUP2 MSTORE PUSH1 0x40 DUP1 DUP4 KECCAK256 SLOAD DUP4 MSTORE PUSH1 0x10 SWAP1 SWAP2 MSTORE SWAP1 KECCAK256 SLOAD PUSH1 0x7 SLOAD PUSH1 0x1 PUSH1 0x1 PUSH1 0xA0 SHL SUB SWAP1 SWAP2 AND SWAP5 POP PUSH1 0x64 SWAP1 PUSH2 0x1A12 SWAP1 DUP3 PUSH2 0x2375 JUMP JUMPDEST PUSH1 0x0 DUP9 DUP2 MSTORE PUSH1 0x13 PUSH1 0x20 MSTORE PUSH1 0x40 SWAP1 KECCAK256 PUSH1 0x3 ADD SLOAD PUSH2 0x1A2E SWAP2 SWAP1 PUSH2 0x2356 JUMP JUMPDEST PUSH2 0x1A38 SWAP2 SWAP1 PUSH2 0x2336 JUMP JUMPDEST PUSH1 0x0 DUP8 DUP2 MSTORE PUSH1 0x13 PUSH1 0x20 MSTORE PUSH1 0x40 SWAP1 KECCAK256 PUSH1 0x2 ADD SLOAD PUSH2 0x1A54 SWAP2 SWAP1 PUSH2 0x231E JUMP JUMPDEST PUSH1 0x7 SLOAD PUSH1 0x0 DUP9 DUP2 MSTORE PUSH1 0x13 PUSH1 0x20 MSTORE PUSH1 0x40 SWAP1 KECCAK256 PUSH1 0x3 ADD SLOAD SWAP2 SWAP4 POP PUSH1 0x64 SWAP2 PUSH2 0x1A79 SWAP2 SWAP1 PUSH2 0x2356 JUMP JUMPDEST PUSH2 0x1A83 SWAP2 SWAP1 PUSH2 0x2336 JUMP JUMPDEST PUSH1 0x0 DUP8 DUP2 MSTORE PUSH1 0x13 PUSH1 0x20 SWAP1 DUP2 MSTORE PUSH1 0x40 DUP1 DUP4 KECCAK256 SLOAD DUP4 MSTORE PUSH1 0x10 SWAP1 SWAP2 MSTORE SWAP1 KECCAK256 PUSH1 0x1 ADD SLOAD PUSH1 0x1 PUSH1 0x1 PUSH1 0xA0 SHL SUB AND SWAP4 POP SWAP1 POP PUSH2 0x1BAE JUMP JUMPDEST PUSH1 0xC SLOAD PUSH1 0x2 EQ ISZERO PUSH2 0x1BA1 JUMPI PUSH1 0x0 DUP7 DUP2 MSTORE PUSH1 0x13 PUSH1 0x20 SWAP1 DUP2 MSTORE PUSH1 0x40 DUP1 DUP4 KECCAK256 PUSH1 0x1 ADD SLOAD DUP4 MSTORE PUSH1 0x10 SWAP1 SWAP2 MSTORE SWAP1 KECCAK256 SLOAD PUSH1 0x7 SLOAD PUSH1 0x1 PUSH1 0x1 PUSH1 0xA0 SHL SUB SWAP1 SWAP2 AND SWAP5 POP PUSH1 0x64 SWAP1 PUSH2 0x1AFB SWAP1 DUP3 PUSH2 0x2375 JUMP JUMPDEST PUSH1 0x0 DUP9 DUP2 MSTORE PUSH1 0x13 PUSH1 0x20 MSTORE PUSH1 0x40 SWAP1 KECCAK256 PUSH1 0x2 ADD SLOAD PUSH2 0x1B17 SWAP2 SWAP1 PUSH2 0x2356 JUMP JUMPDEST PUSH2 0x1B21 SWAP2 SWAP1 PUSH2 0x2336 JUMP JUMPDEST PUSH1 0x0 DUP8 DUP2 MSTORE PUSH1 0x13 PUSH1 0x20 MSTORE PUSH1 0x40 SWAP1 KECCAK256 PUSH1 0x3 ADD SLOAD PUSH2 0x1B3D SWAP2 SWAP1 PUSH2 0x231E JUMP JUMPDEST PUSH1 0x7 SLOAD PUSH1 0x0 DUP9 DUP2 MSTORE PUSH1 0x13 PUSH1 0x20 MSTORE PUSH1 0x40 SWAP1 KECCAK256 PUSH1 0x2 ADD SLOAD SWAP2 SWAP4 POP PUSH1 0x64 SWAP2 PUSH2 0x1B62 SWAP2 SWAP1 PUSH2 0x2356 JUMP JUMPDEST PUSH2 0x1B6C SWAP2 SWAP1 PUSH2 0x2336 JUMP JUMPDEST PUSH1 0x0 DUP8 DUP2 MSTORE PUSH1 0x13 PUSH1 0x20 SWAP1 DUP2 MSTORE PUSH1 0x40 DUP1 DUP4 KECCAK256 PUSH1 0x1 SWAP1 DUP2 ADD SLOAD DUP5 MSTORE PUSH1 0x10 SWAP1 SWAP3 MSTORE SWAP1 SWAP2 KECCAK256 ADD SLOAD PUSH1 0x1 PUSH1 0x1 PUSH1 0xA0 SHL SUB AND SWAP4 POP SWAP1 POP PUSH2 0x1BAE JUMP JUMPDEST PUSH1 0x0 SWAP5 POP POP POP POP POP PUSH2 0x846 JUMP JUMPDEST PUSH1 0x1 PUSH1 0x1 PUSH1 0xA0 SHL SUB DUP5 AND PUSH1 0x0 SWAP1 DUP2 MSTORE PUSH1 0xD PUSH1 0x20 MSTORE PUSH1 0x40 DUP2 KECCAK256 DUP1 SLOAD DUP5 SWAP3 SWAP1 PUSH2 0x1BD6 SWAP1 DUP5 SWAP1 PUSH2 0x231E JUMP JUMPDEST SWAP1 SWAP2 SSTORE POP POP PUSH1 0xA SLOAD PUSH1 0x64 SWAP1 PUSH2 0x1BEB SWAP1 DUP4 PUSH2 0x2356 JUMP JUMPDEST PUSH2 0x1BF5 SWAP2 SWAP1 PUSH2 0x2336 JUMP JUMPDEST PUSH1 0x4 SLOAD PUSH1 0x1 PUSH1 0x1 PUSH1 0xA0 SHL SUB AND PUSH1 0x0 SWAP1 DUP2 MSTORE PUSH1 0xD PUSH1 0x20 MSTORE PUSH1 0x40 DUP2 KECCAK256 DUP1 SLOAD SWAP1 SWAP2 SWAP1 PUSH2 0x1C1F SWAP1 DUP5 SWAP1 PUSH2 0x231E JUMP JUMPDEST SWAP1 SWAP2 SSTORE POP POP PUSH1 0x9 SLOAD PUSH1 0x64 SWAP1 PUSH2 0x1C34 SWAP1 DUP4 PUSH2 0x2356 JUMP JUMPDEST PUSH2 0x1C3E SWAP2 SWAP1 PUSH2 0x2336 JUMP JUMPDEST PUSH1 0x5 SLOAD PUSH1 0x1 PUSH1 0x1 PUSH1 0xA0 SHL SUB AND PUSH1 0x0 SWAP1 DUP2 MSTORE PUSH1 0xD PUSH1 0x20 MSTORE PUSH1 0x40 DUP2 KECCAK256 DUP1 SLOAD SWAP1 SWAP2 SWAP1 PUSH2 0x1C68 SWAP1 DUP5 SWAP1 PUSH2 0x231E JUMP JUMPDEST SWAP1 SWAP2 SSTORE POP POP PUSH1 0x8 SLOAD PUSH1 0x64 SWAP1 PUSH2 0x1C7D SWAP1 DUP4 PUSH2 0x2356 JUMP JUMPDEST PUSH2 0x1C87 SWAP2 SWAP1 PUSH2 0x2336 JUMP JUMPDEST PUSH1 0x1 PUSH1 0x1 PUSH1 0xA0 SHL SUB DUP5 AND PUSH1 0x0 SWAP1 DUP2 MSTORE PUSH1 0xD PUSH1 0x20 MSTORE PUSH1 0x40 DUP2 KECCAK256 DUP1 SLOAD SWAP1 SWAP2 SWAP1 PUSH2 0x1CAF SWAP1 DUP5 SWAP1 PUSH2 0x231E JUMP JUMPDEST SWAP1 SWAP2 SSTORE POP POP POP PUSH1 0x0 SWAP5 DUP6 MSTORE POP POP PUSH1 0x13 PUSH1 0x20 MSTORE POP POP PUSH1 0x40 DUP2 KECCAK256 PUSH1 0x4 ADD DUP1 SLOAD PUSH1 0xFF NOT AND PUSH1 0x1 SWAP1 DUP2 OR SWAP1 SWAP2 SSTORE SWAP1 DUP2 SWAP1 SSTORE SWAP1 JUMP JUMPDEST PUSH1 0x0 DUP2 DUP2 MSTORE PUSH1 0x13 PUSH1 0x20 MSTORE PUSH1 0x40 DUP2 KECCAK256 PUSH1 0x4 ADD SLOAD PUSH1 0xFF AND ISZERO PUSH2 0x1D01 JUMPI POP PUSH1 0x0 SWAP2 SWAP1 POP JUMP JUMPDEST PUSH1 0x0 DUP3 DUP2 MSTORE PUSH1 0x13 PUSH1 0x20 SWAP1 DUP2 MSTORE PUSH1 0x40 DUP1 DUP4 KECCAK256 DUP1 SLOAD DUP5 MSTORE PUSH1 0x10 DUP4 MSTORE DUP2 DUP5 KECCAK256 SLOAD PUSH1 0x1 DUP3 ADD SLOAD DUP6 MSTORE DUP3 DUP6 KECCAK256 SLOAD PUSH1 0x2 SWAP1 SWAP3 ADD SLOAD PUSH1 0x1 PUSH1 0x1 PUSH1 0xA0 SHL SUB SWAP2 DUP3 AND DUP1 DUP8 MSTORE PUSH1 0xD SWAP1 SWAP6 MSTORE SWAP3 DUP6 KECCAK256 DUP1 SLOAD SWAP5 SWAP6 SWAP2 SWAP1 SWAP3 AND SWAP4 PUSH2 0x1D59 SWAP1 DUP5 SWAP1 PUSH2 0x231E JUMP JUMPDEST SWAP1 SWAP2 SSTORE POP POP PUSH1 0x0 DUP5 DUP2 MSTORE PUSH1 0x13 PUSH1 0x20 SWAP1 DUP2 MSTORE PUSH1 0x40 DUP1 DUP4 KECCAK256 PUSH1 0x3 ADD SLOAD PUSH1 0x1 PUSH1 0x1 PUSH1 0xA0 SHL SUB DUP6 AND DUP5 MSTORE PUSH1 0xD SWAP1 SWAP3 MSTORE DUP3 KECCAK256 DUP1 SLOAD SWAP2 SWAP3 SWAP1 SWAP2 PUSH2 0x1D97 SWAP1 DUP5 SWAP1 PUSH2 0x231E JUMP JUMPDEST SWAP1 SWAP2 SSTORE POP POP POP PUSH1 0x0 SWAP3 DUP4 MSTORE POP POP PUSH1 0x13 PUSH1 0x20 MSTORE PUSH1 0x40 SWAP1 KECCAK256 PUSH1 0x4 ADD DUP1 SLOAD PUSH1 0xFF NOT AND PUSH1 0x1 SWAP1 DUP2 OR SWAP1 SWAP2 SSTORE SWAP1 JUMP JUMPDEST PUSH1 0x0 DUP1 PUSH1 0x0 JUMPDEST PUSH1 0xE SLOAD DUP10 SWAP1 ADDRESS SWAP1 DUP4 SWAP1 PUSH2 0x1DDB SWAP1 PUSH1 0x1 PUSH2 0x231E JUMP JUMPDEST PUSH2 0x1DE5 SWAP2 SWAP1 PUSH2 0x231E JUMP JUMPDEST PUSH1 0x40 MLOAD PUSH12 0xFFFFFFFFFFFFFFFFFFFFFFFF NOT PUSH1 0x60 SWAP5 DUP6 SHL DUP2 AND PUSH1 0x20 DUP4 ADD MSTORE SWAP3 SWAP1 SWAP4 SHL SWAP1 SWAP2 AND PUSH1 0x34 DUP4 ADD MSTORE PUSH1 0x48 DUP3 ADD MSTORE TIMESTAMP PUSH1 0x68 DUP3 ADD MSTORE DIFFICULTY PUSH1 0x88 DUP3 ADD MSTORE PUSH1 0xA8 ADD PUSH1 0x40 DUP1 MLOAD PUSH1 0x1F NOT DUP2 DUP5 SUB ADD DUP2 MSTORE SWAP2 DUP2 MSTORE DUP2 MLOAD PUSH1 0x20 SWAP3 DUP4 ADD KECCAK256 PUSH1 0x0 DUP2 DUP2 MSTORE PUSH1 0x10 SWAP1 SWAP4 MSTORE SWAP2 KECCAK256 PUSH1 0x2 ADD SLOAD SWAP1 SWAP3 POP PUSH2 0x1E56 JUMPI PUSH2 0x1E68 JUMP JUMPDEST DUP1 PUSH2 0x1E60 DUP2 PUSH2 0x238C JUMP JUMPDEST SWAP2 POP POP PUSH2 0x1DC7 JUMP JUMPDEST PUSH1 0x1 PUSH1 0x1 PUSH1 0xA0 SHL SUB DUP9 AND PUSH2 0x1E85 JUMPI PUSH1 0x5 SLOAD PUSH1 0x1 PUSH1 0x1 PUSH1 0xA0 SHL SUB AND SWAP8 POP JUMPDEST POP PUSH1 0x40 DUP1 MLOAD PUSH1 0xC0 DUP2 ADD DUP3 MSTORE PUSH1 0x1 PUSH1 0x1 PUSH1 0xA0 SHL SUB SWAP10 DUP11 AND DUP1 DUP3 MSTORE SWAP9 DUP11 AND PUSH1 0x20 DUP1 DUP4 ADD SWAP2 DUP3 MSTORE DUP3 DUP5 ADD SWAP10 DUP11 MSTORE PUSH1 0x60 DUP4 ADD SWAP9 DUP10 MSTORE PUSH1 0x80 DUP4 ADD SWAP8 DUP9 MSTORE PUSH1 0xA0 DUP4 ADD SWAP7 DUP8 MSTORE PUSH1 0x0 DUP6 DUP2 MSTORE PUSH1 0x10 DUP3 MSTORE DUP5 DUP2 KECCAK256 SWAP4 MLOAD DUP5 SLOAD SWAP1 DUP15 AND PUSH1 0x1 PUSH1 0x1 PUSH1 0xA0 SHL SUB NOT SWAP2 DUP3 AND OR DUP6 SSTORE SWAP3 MLOAD PUSH1 0x1 DUP1 DUP7 ADD DUP1 SLOAD SWAP3 SWAP1 SWAP16 AND SWAP2 SWAP1 SWAP5 AND OR SWAP1 SWAP13 SSTORE SWAP9 MLOAD PUSH1 0x2 DUP4 ADD SSTORE SWAP7 MLOAD PUSH1 0x3 DUP3 ADD SSTORE SWAP5 MLOAD PUSH1 0x4 DUP7 ADD SSTORE SWAP3 MLOAD PUSH1 0x5 SWAP1 SWAP5 ADD SWAP4 SWAP1 SWAP4 SSTORE POP PUSH1 0xE DUP1 SLOAD DUP1 DUP6 ADD SWAP1 SWAP2 SSTORE PUSH32 0xBB7B4A454DC3493923482F07822329ED19E8244EFF582CC204F8554C3620C3FD ADD DUP3 SWAP1 SSTORE SWAP4 DUP6 MSTORE PUSH1 0xF DUP4 MSTORE SWAP3 DUP5 KECCAK256 DUP1 SLOAD SWAP2 DUP3 ADD DUP2 SSTORE DUP5 MSTORE SWAP3 KECCAK256 SWAP1 SWAP2 ADD DUP2 SWAP1 SSTORE SWAP1 JUMP JUMPDEST PUSH1 0x0 DUP1 PUSH1 0x0 DUP1 DUP10 DUP10 GT PUSH2 0x1FD3 JUMPI DUP9 SWAP3 POP PUSH2 0x1F84 PUSH1 0x64 DUP10 PUSH2 0x2375 JUMP JUMPDEST PUSH2 0x1F8E SWAP1 DUP11 PUSH2 0x2356 JUMP JUMPDEST SWAP2 POP PUSH2 0x1F9B PUSH1 0x64 DUP4 PUSH2 0x2336 JUMP JUMPDEST SWAP2 POP DUP7 PUSH1 0x1 EQ ISZERO PUSH2 0x1FB9 JUMPI PUSH2 0x1FB2 DUP7 DUP7 DUP6 DUP6 PUSH2 0x20B7 JUMP JUMPDEST SWAP1 POP PUSH2 0x2027 JUMP JUMPDEST DUP7 PUSH1 0x2 EQ ISZERO PUSH2 0x1FCE JUMPI PUSH2 0x1FB2 DUP6 DUP8 DUP5 DUP7 PUSH2 0x20B7 JUMP JUMPDEST PUSH2 0x2027 JUMP JUMPDEST DUP10 SWAP3 POP PUSH2 0x1FE1 PUSH1 0x64 DUP10 PUSH2 0x2375 JUMP JUMPDEST PUSH2 0x1FEB SWAP1 DUP12 PUSH2 0x2356 JUMP JUMPDEST SWAP2 POP PUSH2 0x1FF8 PUSH1 0x64 DUP4 PUSH2 0x2336 JUMP JUMPDEST SWAP2 POP DUP7 PUSH1 0x1 EQ ISZERO PUSH2 0x200F JUMPI PUSH2 0x1FB2 DUP7 DUP7 DUP6 DUP6 PUSH2 0x20B7 JUMP JUMPDEST DUP7 PUSH1 0x2 EQ ISZERO PUSH2 0x2027 JUMPI PUSH2 0x2024 DUP6 DUP8 DUP5 DUP7 PUSH2 0x20B7 JUMP JUMPDEST SWAP1 POP JUMPDEST PUSH1 0x0 DUP7 DUP2 MSTORE PUSH1 0x12 PUSH1 0x20 SWAP1 DUP2 MSTORE PUSH1 0x40 DUP1 DUP4 KECCAK256 DUP1 SLOAD PUSH1 0x1 DUP2 DUP2 ADD DUP4 SSTORE SWAP2 DUP6 MSTORE DUP4 DUP6 KECCAK256 ADD DUP6 SWAP1 SSTORE DUP9 DUP5 MSTORE DUP2 DUP5 KECCAK256 DUP1 SLOAD SWAP2 DUP3 ADD DUP2 SSTORE DUP5 MSTORE DUP3 DUP5 KECCAK256 ADD DUP5 SWAP1 SSTORE DUP9 DUP4 MSTORE PUSH1 0x10 SWAP1 SWAP2 MSTORE DUP2 KECCAK256 PUSH1 0x3 ADD DUP1 SLOAD DUP6 SWAP3 SWAP1 PUSH2 0x207E SWAP1 DUP5 SWAP1 PUSH2 0x231E JUMP JUMPDEST SWAP1 SWAP2 SSTORE POP POP PUSH1 0x0 DUP6 DUP2 MSTORE PUSH1 0x10 PUSH1 0x20 MSTORE PUSH1 0x40 DUP2 KECCAK256 PUSH1 0x3 ADD DUP1 SLOAD DUP5 SWAP3 SWAP1 PUSH2 0x20A4 SWAP1 DUP5 SWAP1 PUSH2 0x231E JUMP JUMPDEST SWAP1 SWAP2 SSTORE POP SWAP3 SWAP11 SWAP10 POP POP POP POP POP POP POP POP POP POP JUMP JUMPDEST PUSH1 0x0 DUP1 PUSH1 0x0 JUMPDEST PUSH1 0x11 SLOAD DUP8 SWAP1 DUP8 SWAP1 DUP4 SWAP1 PUSH2 0x20D1 SWAP1 PUSH1 0x1 PUSH2 0x231E JUMP JUMPDEST PUSH2 0x20DB SWAP2 SWAP1 PUSH2 0x231E JUMP JUMPDEST PUSH1 0x40 DUP1 MLOAD PUSH1 0x20 DUP2 ADD SWAP5 SWAP1 SWAP5 MSTORE DUP4 ADD SWAP2 SWAP1 SWAP2 MSTORE PUSH1 0x60 DUP3 ADD MSTORE TIMESTAMP PUSH1 0x80 DUP3 ADD MSTORE DIFFICULTY PUSH1 0xA0 DUP3 ADD MSTORE PUSH1 0xC0 ADD PUSH1 0x40 DUP1 MLOAD PUSH1 0x1F NOT DUP2 DUP5 SUB ADD DUP2 MSTORE SWAP2 DUP2 MSTORE DUP2 MLOAD PUSH1 0x20 SWAP3 DUP4 ADD KECCAK256 PUSH1 0x0 DUP2 DUP2 MSTORE PUSH1 0x13 SWAP1 SWAP4 MSTORE SWAP2 KECCAK256 PUSH1 0x2 ADD SLOAD SWAP1 SWAP3 POP PUSH2 0x2135 JUMPI PUSH2 0x2147 JUMP JUMPDEST DUP1 PUSH2 0x213F DUP2 PUSH2 0x238C JUMP JUMPDEST SWAP2 POP POP PUSH2 0x20BD JUMP JUMPDEST POP PUSH1 0x40 DUP1 MLOAD PUSH1 0xA0 DUP2 ADD DUP3 MSTORE SWAP7 DUP8 MSTORE PUSH1 0x20 DUP1 DUP9 ADD SWAP7 DUP8 MSTORE DUP8 DUP3 ADD SWAP6 DUP7 MSTORE PUSH1 0x60 DUP9 ADD SWAP5 DUP6 MSTORE PUSH1 0x0 PUSH1 0x80 DUP10 ADD DUP2 DUP2 MSTORE DUP5 DUP3 MSTORE PUSH1 0x13 SWAP1 SWAP3 MSTORE SWAP2 DUP3 KECCAK256 SWAP8 MLOAD DUP9 SSTORE SWAP6 MLOAD PUSH1 0x1 DUP1 DUP10 ADD SWAP2 SWAP1 SWAP2 SSTORE SWAP5 MLOAD PUSH1 0x2 DUP9 ADD SSTORE SWAP3 MLOAD PUSH1 0x3 DUP8 ADD SSTORE SWAP4 MLOAD PUSH1 0x4 SWAP1 SWAP6 ADD DUP1 SLOAD PUSH1 0xFF NOT AND SWAP6 ISZERO ISZERO SWAP6 SWAP1 SWAP6 OR SWAP1 SWAP5 SSTORE PUSH1 0x11 DUP1 SLOAD SWAP3 DUP4 ADD DUP2 SSTORE SWAP1 MSTORE PUSH32 0x31ECC21A745E3968A04E9570E4425BC18FA8019C68028196B546D1669C200C68 ADD DUP2 SWAP1 SSTORE SWAP2 SWAP1 POP JUMP JUMPDEST DUP1 CALLDATALOAD PUSH1 0x1 PUSH1 0x1 PUSH1 0xA0 SHL SUB DUP2 AND DUP2 EQ PUSH2 0xBAD JUMPI PUSH1 0x0 DUP1 REVERT JUMPDEST PUSH1 0x0 PUSH1 0x20 DUP3 DUP5 SUB SLT ISZERO PUSH2 0x220F JUMPI DUP1 DUP2 REVERT JUMPDEST PUSH2 0x2218 DUP3 PUSH2 0x21E7 JUMP JUMPDEST SWAP4 SWAP3 POP POP POP JUMP JUMPDEST PUSH1 0x0 DUP1 PUSH1 0x0 DUP1 PUSH1 0x0 PUSH1 0xA0 DUP7 DUP9 SUB SLT ISZERO PUSH2 0x2236 JUMPI DUP1 DUP2 REVERT JUMPDEST PUSH2 0x223F DUP7 PUSH2 0x21E7 JUMP JUMPDEST SWAP5 POP PUSH1 0x20 DUP7 ADD CALLDATALOAD SWAP4 POP PUSH1 0x40 DUP7 ADD CALLDATALOAD SWAP3 POP PUSH1 0x60 DUP7 ADD CALLDATALOAD SWAP2 POP PUSH1 0x80 DUP7 ADD CALLDATALOAD PUSH2 0x2264 DUP2 PUSH2 0x23BD JUMP JUMPDEST DUP1 SWAP2 POP POP SWAP3 SWAP6 POP SWAP3 SWAP6 SWAP1 SWAP4 POP JUMP JUMPDEST PUSH1 0x0 PUSH1 0x20 DUP3 DUP5 SUB SLT ISZERO PUSH2 0x2283 JUMPI DUP1 DUP2 REVERT JUMPDEST DUP2 MLOAD PUSH2 0x2218 DUP2 PUSH2 0x23BD JUMP JUMPDEST PUSH1 0x0 PUSH1 0x20 DUP3 DUP5 SUB SLT ISZERO PUSH2 0x229F JUMPI DUP1 DUP2 REVERT JUMPDEST POP CALLDATALOAD SWAP2 SWAP1 POP JUMP JUMPDEST PUSH1 0x0 PUSH1 0x20 DUP3 DUP5 SUB SLT ISZERO PUSH2 0x22B7 JUMPI DUP1 DUP2 REVERT JUMPDEST POP MLOAD SWAP2 SWAP1 POP JUMP JUMPDEST PUSH1 0x20 DUP1 DUP3 MSTORE DUP3 MLOAD DUP3 DUP3 ADD DUP2 SWAP1 MSTORE PUSH1 0x0 SWAP2 SWAP1 DUP5 DUP3 ADD SWAP1 PUSH1 0x40 DUP6 ADD SWAP1 DUP5 JUMPDEST DUP2 DUP2 LT ISZERO PUSH2 0x22F6 JUMPI DUP4 MLOAD DUP4 MSTORE SWAP3 DUP5 ADD SWAP3 SWAP2 DUP5 ADD SWAP2 PUSH1 0x1 ADD PUSH2 0x22DA JUMP JUMPDEST POP SWAP1 SWAP7 SWAP6 POP POP POP POP POP POP JUMP JUMPDEST PUSH1 0x20 DUP1 DUP3 MSTORE PUSH1 0x2 SWAP1 DUP3 ADD MSTORE PUSH2 0x2699 PUSH1 0xF1 SHL PUSH1 0x40 DUP3 ADD MSTORE PUSH1 0x60 ADD SWAP1 JUMP JUMPDEST PUSH1 0x0 DUP3 NOT DUP3 GT ISZERO PUSH2 0x2331 JUMPI PUSH2 0x2331 PUSH2 0x23A7 JUMP JUMPDEST POP ADD SWAP1 JUMP JUMPDEST PUSH1 0x0 DUP3 PUSH2 0x2351 JUMPI PUSH4 0x4E487B71 PUSH1 0xE0 SHL DUP2 MSTORE PUSH1 0x12 PUSH1 0x4 MSTORE PUSH1 0x24 DUP2 REVERT JUMPDEST POP DIV SWAP1 JUMP JUMPDEST PUSH1 0x0 DUP2 PUSH1 0x0 NOT DIV DUP4 GT DUP3 ISZERO ISZERO AND ISZERO PUSH2 0x2370 JUMPI PUSH2 0x2370 PUSH2 0x23A7 JUMP JUMPDEST POP MUL SWAP1 JUMP JUMPDEST PUSH1 0x0 DUP3 DUP3 LT ISZERO PUSH2 0x2387 JUMPI PUSH2 0x2387 PUSH2 0x23A7 JUMP JUMPDEST POP SUB SWAP1 JUMP JUMPDEST PUSH1 0x0 PUSH1 0x0 NOT DUP3 EQ ISZERO PUSH2 0x23A0 JUMPI PUSH2 0x23A0 PUSH2 0x23A7 JUMP JUMPDEST POP PUSH1 0x1 ADD SWAP1 JUMP JUMPDEST PUSH4 0x4E487B71 PUSH1 0xE0 SHL PUSH1 0x0 MSTORE PUSH1 0x11 PUSH1 0x4 MSTORE PUSH1 0x24 PUSH1 0x0 REVERT JUMPDEST DUP1 ISZERO ISZERO DUP2 EQ PUSH2 0x478 JUMPI PUSH1 0x0 DUP1 REVERT INVALID LOG2 PUSH5 0x6970667358 0x22 SLT KECCAK256 REVERT SWAP10 0xD4 PUSH19 0x9A52F87D664D3F71612E9AF67B1D27E31351E5 DUP5 0xE2 0x48 LOG1 0xF7 DUP5 0xF9 NOT 0xC2 PUSH5 0x736F6C6343 STOP ADDMOD DIV STOP CALLER "
				},
				"gasEstimates": {
					"creation": {
						"codeDepositCost": "1843400",
						"executionCost": "infinite",
						"totalCost": "infinite"
					},
					"external": {
						"addBet(address,uint256,uint256,uint256,bool)": "infinite",
						"cancel()": "23650",
						"cancelBet(bytes32)": "infinite",
						"cancelPlusPairs()": "infinite",
						"getBalance(address)": "1336",
						"getBet(bytes32)": "5771",
						"getBetPairs(bytes32)": "infinite",
						"getBets()": "infinite",
						"getPair(bytes32)": "4806",
						"getPairs()": "infinite",
						"getUserBets(address)": "infinite",
						"setWinningSide(uint256)": "25416",
						"settle(uint256)": "infinite",
						"settleBet(bytes32)": "infinite",
						"status()": "1008",
						"stopNewBet()": "22817",
						"withdraw(address)": "infinite",
						"withdrawPending(bytes32)": "infinite"
					},
					"internal": {
						"_cancelBetPairs(bytes32)": "infinite",
						"_cancelPair(bytes32)": "infinite",
						"_createBet(address,address,uint256,uint256,uint256,uint256)": "infinite",
						"_createPair(bytes32,bytes32,uint256,uint256)": "infinite",
						"_match(uint256,uint256,uint256,uint256,bytes32,bytes32)": "infinite",
						"_settlePair(bytes32)": "infinite"
					}
				},
				"methodIdentifiers": {
					"addBet(address,uint256,uint256,uint256,bool)": "ba8006c6",
					"cancel()": "ea8a1af0",
					"cancelBet(bytes32)": "2940ff1e",
					"cancelPlusPairs()": "ae8cd090",
					"getBalance(address)": "f8b2cb4f",
					"getBet(bytes32)": "37e8c09e",
					"getBetPairs(bytes32)": "25c22a45",
					"getBets()": "a6afd5fd",
					"getPair(bytes32)": "b8e5303d",
					"getPairs()": "767eb5ef",
					"getUserBets(address)": "2d56657d",
					"setWinningSide(uint256)": "d0ed7295",
					"settle(uint256)": "8df82800",
					"settleBet(bytes32)": "675f6537",
					"status()": "200d2ed2",
					"stopNewBet()": "6bef0267",
					"withdraw(address)": "51cff8d9",
					"withdrawPending(bytes32)": "7d7f9232"
				}
			},
			"storageLayout": {
				"storage": [
					{
						"astId": 10,
						"contract": "contracts/Market.sol:Market",
						"label": "_status",
						"offset": 0,
						"slot": "0",
						"type": "t_uint256"
					},
					{
						"astId": 129,
						"contract": "contracts/Market.sol:Market",
						"label": "a",
						"offset": 0,
						"slot": "1",
						"type": "t_struct(App)2099_storage"
					},
					{
						"astId": 139,
						"contract": "contracts/Market.sol:Market",
						"label": "app",
						"offset": 0,
						"slot": "11",
						"type": "t_contract(IWeb3BetsFO)2076"
					},
					{
						"astId": 142,
						"contract": "contracts/Market.sol:Market",
						"label": "status",
						"offset": 0,
						"slot": "12",
						"type": "t_uint256"
					},
					{
						"astId": 146,
						"contract": "contracts/Market.sol:Market",
						"label": "bal",
						"offset": 0,
						"slot": "13",
						"type": "t_mapping(t_address,t_uint256)"
					},
					{
						"astId": 149,
						"contract": "contracts/Market.sol:Market",
						"label": "bets",
						"offset": 0,
						"slot": "14",
						"type": "t_array(t_bytes32)dyn_storage"
					},
					{
						"astId": 154,
						"contract": "contracts/Market.sol:Market",
						"label": "userBets",
						"offset": 0,
						"slot": "15",
						"type": "t_mapping(t_address,t_array(t_bytes32)dyn_storage)"
					},
					{
						"astId": 159,
						"contract": "contracts/Market.sol:Market",
						"label": "betsInfo",
						"offset": 0,
						"slot": "16",
						"type": "t_mapping(t_bytes32,t_struct(MarketBet)2112_storage)"
					},
					{
						"astId": 162,
						"contract": "contracts/Market.sol:Market",
						"label": "pairs",
						"offset": 0,
						"slot": "17",
						"type": "t_array(t_bytes32)dyn_storage"
					},
					{
						"astId": 167,
						"contract": "contracts/Market.sol:Market",
						"label": "betPairs",
						"offset": 0,
						"slot": "18",
						"type": "t_mapping(t_bytes32,t_array(t_bytes32)dyn_storage)"
					},
					{
						"astId": 172,
						"contract": "contracts/Market.sol:Market",
						"label": "pairsInfo",
						"offset": 0,
						"slot": "19",
						"type": "t_mapping(t_bytes32,t_struct(MarketPair)2123_storage)"
					}
				],
				"types": {
					"t_address": {
						"encoding": "inplace",
						"label": "address",
						"numberOfBytes": "20"
					},
					"t_array(t_bytes32)dyn_storage": {
						"base": "t_bytes32",
						"encoding": "dynamic_array",
						"label": "bytes32[]",
						"numberOfBytes": "32"
					},
					"t_bool": {
						"encoding": "inplace",
						"label": "bool",
						"numberOfBytes": "1"
					},
					"t_bytes32": {
						"encoding": "inplace",
						"label": "bytes32",
						"numberOfBytes": "32"
					},
					"t_contract(IWeb3BetsFO)2076": {
						"encoding": "inplace",
						"label": "contract IWeb3BetsFO",
						"numberOfBytes": "20"
					},
					"t_mapping(t_address,t_array(t_bytes32)dyn_storage)": {
						"encoding": "mapping",
						"key": "t_address",
						"label": "mapping(address => bytes32[])",
						"numberOfBytes": "32",
						"value": "t_array(t_bytes32)dyn_storage"
					},
					"t_mapping(t_address,t_uint256)": {
						"encoding": "mapping",
						"key": "t_address",
						"label": "mapping(address => uint256)",
						"numberOfBytes": "32",
						"value": "t_uint256"
					},
					"t_mapping(t_bytes32,t_array(t_bytes32)dyn_storage)": {
						"encoding": "mapping",
						"key": "t_bytes32",
						"label": "mapping(bytes32 => bytes32[])",
						"numberOfBytes": "32",
						"value": "t_array(t_bytes32)dyn_storage"
					},
					"t_mapping(t_bytes32,t_struct(MarketBet)2112_storage)": {
						"encoding": "mapping",
						"key": "t_bytes32",
						"label": "mapping(bytes32 => struct Struct.MarketBet)",
						"numberOfBytes": "32",
						"value": "t_struct(MarketBet)2112_storage"
					},
					"t_mapping(t_bytes32,t_struct(MarketPair)2123_storage)": {
						"encoding": "mapping",
						"key": "t_bytes32",
						"label": "mapping(bytes32 => struct Struct.MarketPair)",
						"numberOfBytes": "32",
						"value": "t_struct(MarketPair)2123_storage"
					},
					"t_struct(App)2099_storage": {
						"encoding": "inplace",
						"label": "struct Struct.App",
						"members": [
							{
								"astId": 2080,
								"contract": "contracts/Market.sol:Market",
								"label": "eventHash",
								"offset": 0,
								"slot": "0",
								"type": "t_bytes32"
							},
							{
								"astId": 2082,
								"contract": "contracts/Market.sol:Market",
								"label": "factory",
								"offset": 0,
								"slot": "1",
								"type": "t_address"
							},
							{
								"astId": 2084,
								"contract": "contracts/Market.sol:Market",
								"label": "eventOwner",
								"offset": 0,
								"slot": "2",
								"type": "t_address"
							},
							{
								"astId": 2086,
								"contract": "contracts/Market.sol:Market",
								"label": "holdAddr",
								"offset": 0,
								"slot": "3",
								"type": "t_address"
							},
							{
								"astId": 2088,
								"contract": "contracts/Market.sol:Market",
								"label": "ecoAddr",
								"offset": 0,
								"slot": "4",
								"type": "t_address"
							},
							{
								"astId": 2090,
								"contract": "contracts/Market.sol:Market",
								"label": "minStake",
								"offset": 0,
								"slot": "5",
								"type": "t_uint256"
							},
							{
								"astId": 2092,
								"contract": "contracts/Market.sol:Market",
								"label": "vig",
								"offset": 0,
								"slot": "6",
								"type": "t_uint256"
							},
							{
								"astId": 2094,
								"contract": "contracts/Market.sol:Market",
								"label": "aVig",
								"offset": 0,
								"slot": "7",
								"type": "t_uint256"
							},
							{
								"astId": 2096,
								"contract": "contracts/Market.sol:Market",
								"label": "eVig",
								"offset": 0,
								"slot": "8",
								"type": "t_uint256"
							},
							{
								"astId": 2098,
								"contract": "contracts/Market.sol:Market",
								"label": "hVig",
								"offset": 0,
								"slot": "9",
								"type": "t_uint256"
							}
						],
						"numberOfBytes": "320"
					},
					"t_struct(MarketBet)2112_storage": {
						"encoding": "inplace",
						"label": "struct Struct.MarketBet",
						"members": [
							{
								"astId": 2101,
								"contract": "contracts/Market.sol:Market",
								"label": "better",
								"offset": 0,
								"slot": "0",
								"type": "t_address"
							},
							{
								"astId": 2103,
								"contract": "contracts/Market.sol:Market",
								"label": "affiliate",
								"offset": 0,
								"slot": "1",
								"type": "t_address"
							},
							{
								"astId": 2105,
								"contract": "contracts/Market.sol:Market",
								"label": "stake",
								"offset": 0,
								"slot": "2",
								"type": "t_uint256"
							},
							{
								"astId": 2107,
								"contract": "contracts/Market.sol:Market",
								"label": "matched",
								"offset": 0,
								"slot": "3",
								"type": "t_uint256"
							},
							{
								"astId": 2109,
								"contract": "contracts/Market.sol:Market",
								"label": "odds",
								"offset": 0,
								"slot": "4",
								"type": "t_uint256"
							},
							{
								"astId": 2111,
								"contract": "contracts/Market.sol:Market",
								"label": "side",
								"offset": 0,
								"slot": "5",
								"type": "t_uint256"
							}
						],
						"numberOfBytes": "192"
					},
					"t_struct(MarketPair)2123_storage": {
						"encoding": "inplace",
						"label": "struct Struct.MarketPair",
						"members": [
							{
								"astId": 2114,
								"contract": "contracts/Market.sol:Market",
								"label": "betHashA",
								"offset": 0,
								"slot": "0",
								"type": "t_bytes32"
							},
							{
								"astId": 2116,
								"contract": "contracts/Market.sol:Market",
								"label": "betHashB",
								"offset": 0,
								"slot": "1",
								"type": "t_bytes32"
							},
							{
								"astId": 2118,
								"contract": "contracts/Market.sol:Market",
								"label": "amountA",
								"offset": 0,
								"slot": "2",
								"type": "t_uint256"
							},
							{
								"astId": 2120,
								"contract": "contracts/Market.sol:Market",
								"label": "amountB",
								"offset": 0,
								"slot": "3",
								"type": "t_uint256"
							},
							{
								"astId": 2122,
								"contract": "contracts/Market.sol:Market",
								"label": "settled",
								"offset": 0,
								"slot": "4",
								"type": "t_bool"
							}
						],
						"numberOfBytes": "160"
					},
					"t_uint256": {
						"encoding": "inplace",
						"label": "uint256",
						"numberOfBytes": "32"
					}
				}
			},
			"userdoc": {
				"kind": "user",
				"methods": {},
				"version": 1
			}
		}
	}
}