{
	"contracts/Market.sol": {
		"Market": {
			"abi": [
				{
					"inputs": [
						{
							"internalType": "address",
							"name": "owner_",
							"type": "address"
						}
					],
					"stateMutability": "nonpayable",
					"type": "constructor"
				},
				{
					"anonymous": false,
					"inputs": [
						{
							"indexed": false,
							"internalType": "address",
							"name": "better",
							"type": "address"
						},
						{
							"indexed": false,
							"internalType": "address",
							"name": "marketAddr",
							"type": "address"
						},
						{
							"indexed": false,
							"internalType": "bytes32",
							"name": "hash",
							"type": "bytes32"
						},
						{
							"indexed": false,
							"internalType": "uint256",
							"name": "stake",
							"type": "uint256"
						},
						{
							"indexed": false,
							"internalType": "uint256",
							"name": "odds",
							"type": "uint256"
						},
						{
							"indexed": false,
							"internalType": "uint256",
							"name": "side",
							"type": "uint256"
						}
					],
					"name": "BetCreated",
					"type": "event"
				},
				{
					"anonymous": false,
					"inputs": [
						{
							"indexed": false,
							"internalType": "bytes32",
							"name": "betHashA",
							"type": "bytes32"
						},
						{
							"indexed": false,
							"internalType": "bytes32",
							"name": "betHashB",
							"type": "bytes32"
						},
						{
							"indexed": false,
							"internalType": "uint256",
							"name": "amountA",
							"type": "uint256"
						},
						{
							"indexed": false,
							"internalType": "uint256",
							"name": "amountB",
							"type": "uint256"
						}
					],
					"name": "PairCreated",
					"type": "event"
				},
				{
					"anonymous": false,
					"inputs": [
						{
							"indexed": false,
							"internalType": "address",
							"name": "beneficiary",
							"type": "address"
						},
						{
							"indexed": false,
							"internalType": "uint256",
							"name": "value",
							"type": "uint256"
						}
					],
					"name": "Withdraw",
					"type": "event"
				},
				{
					"inputs": [
						{
							"internalType": "address",
							"name": "_better",
							"type": "address"
						},
						{
							"internalType": "address",
							"name": "_affiliate",
							"type": "address"
						},
						{
							"internalType": "uint256",
							"name": "_stake",
							"type": "uint256"
						},
						{
							"internalType": "uint256",
							"name": "_odds",
							"type": "uint256"
						},
						{
							"internalType": "uint256",
							"name": "_side",
							"type": "uint256"
						},
						{
							"internalType": "bool",
							"name": "_instant",
							"type": "bool"
						}
					],
					"name": "addBet",
					"outputs": [
						{
							"internalType": "bytes32",
							"name": "",
							"type": "bytes32"
						}
					],
					"stateMutability": "nonpayable",
					"type": "function"
				},
				{
					"inputs": [
						{
							"internalType": "bytes32",
							"name": "_bet",
							"type": "bytes32"
						}
					],
					"name": "cancelBet",
					"outputs": [],
					"stateMutability": "nonpayable",
					"type": "function"
				},
				{
					"inputs": [],
					"name": "cancelMarket",
					"outputs": [
						{
							"internalType": "bool",
							"name": "",
							"type": "bool"
						}
					],
					"stateMutability": "nonpayable",
					"type": "function"
				},
				{
					"inputs": [
						{
							"internalType": "bytes32",
							"name": "_bet",
							"type": "bytes32"
						}
					],
					"name": "cashOut",
					"outputs": [],
					"stateMutability": "nonpayable",
					"type": "function"
				},
				{
					"inputs": [
						{
							"internalType": "address",
							"name": "_user",
							"type": "address"
						}
					],
					"name": "getBalance",
					"outputs": [
						{
							"internalType": "uint256",
							"name": "",
							"type": "uint256"
						}
					],
					"stateMutability": "view",
					"type": "function"
				},
				{
					"inputs": [
						{
							"internalType": "address",
							"name": "_user",
							"type": "address"
						}
					],
					"name": "getUserBets",
					"outputs": [
						{
							"components": [
								{
									"internalType": "address",
									"name": "better",
									"type": "address"
								},
								{
									"internalType": "address",
									"name": "affiliate",
									"type": "address"
								},
								{
									"internalType": "uint256",
									"name": "stake",
									"type": "uint256"
								},
								{
									"internalType": "uint256",
									"name": "matched",
									"type": "uint256"
								},
								{
									"internalType": "uint256",
									"name": "odds",
									"type": "uint256"
								},
								{
									"internalType": "uint256",
									"name": "side",
									"type": "uint256"
								}
							],
							"internalType": "struct IMarket.MarketBet[]",
							"name": "",
							"type": "tuple[]"
						}
					],
					"stateMutability": "view",
					"type": "function"
				},
				{
					"inputs": [
						{
							"internalType": "uint256",
							"name": "_winningSide",
							"type": "uint256"
						}
					],
					"name": "settle",
					"outputs": [
						{
							"internalType": "bool",
							"name": "",
							"type": "bool"
						}
					],
					"stateMutability": "nonpayable",
					"type": "function"
				},
				{
					"inputs": [
						{
							"internalType": "bytes32",
							"name": "_bet",
							"type": "bytes32"
						}
					],
					"name": "settleBet",
					"outputs": [],
					"stateMutability": "nonpayable",
					"type": "function"
				},
				{
					"inputs": [],
					"name": "start",
					"outputs": [
						{
							"internalType": "bool",
							"name": "",
							"type": "bool"
						}
					],
					"stateMutability": "nonpayable",
					"type": "function"
				},
				{
					"inputs": [],
					"name": "status",
					"outputs": [
						{
							"internalType": "uint256",
							"name": "",
							"type": "uint256"
						}
					],
					"stateMutability": "view",
					"type": "function"
				},
				{
					"inputs": [
						{
							"internalType": "address",
							"name": "_addr",
							"type": "address"
						}
					],
					"name": "withdraw",
					"outputs": [
						{
							"internalType": "bool",
							"name": "",
							"type": "bool"
						}
					],
					"stateMutability": "nonpayable",
					"type": "function"
				}
			],
			"devdoc": {
				"kind": "dev",
				"methods": {},
				"version": 1
			},
			"evm": {
				"assembly": "    /* \"contracts/Market.sol\":194:12616  contract Market is IMarket, ReentrancyGuard {... */\n  mstore(0x40, 0xc0)\n    /* \"contracts/Market.sol\":439:440  0 */\n  0x00\n    /* \"contracts/Market.sol\":406:440  uint256 public override status = 0 */\n  0x03\n  sstore\n    /* \"contracts/Market.sol\":1192:1199  factory */\n  sload(0x02)\n    /* \"contracts/Market.sol\":1144:1200  IWeb3BetsFO immutable private app = IWeb3BetsFO(factory) */\n  0x60\n  shl\n  not(sub(shl(0x60, 0x01), 0x01))\n  and\n  0xa0\n  mstore\n    /* \"contracts/Market.sol\":1825:1969  constructor(address owner_) {... */\n  callvalue\n  dup1\n  iszero\n  tag_1\n  jumpi\n  0x00\n  dup1\n  revert\ntag_1:\n  pop\n  mload(0x40)\n  sub(codesize, bytecodeSize)\n  dup1\n  bytecodeSize\n  dup4\n  codecopy\n  dup2\n  add\n  0x40\n  dup2\n  swap1\n  mstore\n  tag_2\n  swap2\n  tag_3\n  jump\t// in\ntag_2:\n    /* \"@openzeppelin/contracts/security/ReentrancyGuard.sol\":1701:1702  1 */\n  0x01\n    /* \"@openzeppelin/contracts/security/ReentrancyGuard.sol\":1806:1813  _status */\n  0x00\n    /* \"@openzeppelin/contracts/security/ReentrancyGuard.sol\":1806:1828  _status = _NOT_ENTERED */\n  dup2\n  swap1\n  sstore\n    /* \"contracts/Market.sol\":1863:1877  owner = owner_ */\n  dup1\n  sload\n  not(sub(shl(0xa0, 0x01), 0x01))\n  swap1\n  dup2\n  and\n  sub(shl(0xa0, 0x01), 0x01)\n  dup5\n  and\n  or\n  swap1\n  swap2\n  sstore\n    /* \"contracts/Market.sol\":1887:1894  factory */\n  0x02\n    /* \"contracts/Market.sol\":1887:1907  factory = msg.sender */\n  dup1\n  sload\n    /* \"contracts/Market.sol\":1897:1907  msg.sender */\n  caller\n    /* \"contracts/Market.sol\":1887:1907  factory = msg.sender */\n  swap3\n  and\n  dup3\n  or\n  swap1\n  sstore\n    /* \"contracts/Market.sol\":1932:1961  IWeb3BetsFO(factory).scAddr() */\n  0x40\n  dup1\n  mload\n  shl(0xe3, 0x966ed9)\n  dup2\n  mstore\n  swap1\n  mload\n    /* \"contracts/Market.sol\":1932:1959  IWeb3BetsFO(factory).scAddr */\n  0x04b376c8\n  swap2\n    /* \"contracts/Market.sol\":1932:1961  IWeb3BetsFO(factory).scAddr() */\n  0x04\n  dup1\n  dup3\n  add\n  swap3\n  0x20\n  swap3\n  swap1\n  swap2\n  swap1\n  dup3\n  swap1\n  sub\n  add\n  dup2\n    /* \"contracts/Market.sol\":1897:1907  msg.sender */\n  dup7\n    /* \"contracts/Market.sol\":1932:1961  IWeb3BetsFO(factory).scAddr() */\n  dup1\n  extcodesize\n  iszero\n  dup1\n  iszero\n  tag_8\n  jumpi\n  0x00\n  dup1\n  revert\ntag_8:\n  pop\n  gas\n  staticcall\n  iszero\n  dup1\n  iszero\n  tag_10\n  jumpi\n  returndatasize\n  0x00\n  dup1\n  returndatacopy\n  revert(0x00, returndatasize)\ntag_10:\n  pop\n  pop\n  pop\n  pop\n  mload(0x40)\n  returndatasize\n  not(0x1f)\n  0x1f\n  dup3\n  add\n  and\n  dup3\n  add\n  dup1\n  0x40\n  mstore\n  pop\n  dup2\n  add\n  swap1\n  tag_11\n  swap2\n  swap1\n  tag_3\n  jump\t// in\ntag_11:\n    /* \"contracts/Market.sol\":1917:1962  token = IERC20(IWeb3BetsFO(factory).scAddr()) */\n  0x60\n  shl\n  not(sub(shl(0x60, 0x01), 0x01))\n  and\n  0x80\n  mstore\n  pop\n    /* \"contracts/Market.sol\":194:12616  contract Market is IMarket, ReentrancyGuard {... */\n  jump(tag_13)\n    /* \"#utility.yul\":14:324   */\ntag_3:\n    /* \"#utility.yul\":84:90   */\n  0x00\n    /* \"#utility.yul\":137:139   */\n  0x20\n    /* \"#utility.yul\":125:134   */\n  dup3\n    /* \"#utility.yul\":116:123   */\n  dup5\n    /* \"#utility.yul\":112:135   */\n  sub\n    /* \"#utility.yul\":108:140   */\n  slt\n    /* \"#utility.yul\":105:107   */\n  iszero\n  tag_15\n  jumpi\n    /* \"#utility.yul\":158:164   */\n  dup1\n    /* \"#utility.yul\":150:156   */\n  dup2\n    /* \"#utility.yul\":143:165   */\n  revert\n    /* \"#utility.yul\":105:107   */\ntag_15:\n    /* \"#utility.yul\":189:205   */\n  dup2\n  mload\n  sub(shl(0xa0, 0x01), 0x01)\n    /* \"#utility.yul\":234:265   */\n  dup2\n  and\n    /* \"#utility.yul\":224:266   */\n  dup2\n  eq\n    /* \"#utility.yul\":214:216   */\n  tag_16\n  jumpi\n    /* \"#utility.yul\":285:291   */\n  dup2\n    /* \"#utility.yul\":277:283   */\n  dup3\n    /* \"#utility.yul\":270:292   */\n  revert\n    /* \"#utility.yul\":214:216   */\ntag_16:\n    /* \"#utility.yul\":313:318   */\n  swap4\n    /* \"#utility.yul\":95:324   */\n  swap3\n  pop\n  pop\n  pop\n  jump\t// out\ntag_13:\n    /* \"contracts/Market.sol\":194:12616  contract Market is IMarket, ReentrancyGuard {... */\n  shr(0x60, mload(0x80))\n  shr(0x60, mload(0xa0))\n  codecopy(0x00, dataOffset(sub_0), dataSize(sub_0))\n  0x00\n  assignImmutable(\"0x911a39fbf665a24ad3b6efc185d4b936bbda1900793ae2f7c00f4d18bdd96685\")\n  0x00\n  assignImmutable(\"0xb35cf579f54ccafa8cda334bf8f538b0f7a8230c902d5a84be1ea7996ef7fb49\")\n  return(0x00, dataSize(sub_0))\nstop\n\nsub_0: assembly {\n        /* \"contracts/Market.sol\":194:12616  contract Market is IMarket, ReentrancyGuard {... */\n      mstore(0x40, 0x80)\n      callvalue\n      dup1\n      iszero\n      tag_1\n      jumpi\n      0x00\n      dup1\n      revert\n    tag_1:\n      pop\n      jumpi(tag_2, lt(calldatasize, 0x04))\n      shr(0xe0, calldataload(0x00))\n      dup1\n      0x6bfefd6b\n      gt\n      tag_14\n      jumpi\n      dup1\n      0x6bfefd6b\n      eq\n      tag_8\n      jumpi\n      dup1\n      0x78d65b2f\n      eq\n      tag_9\n      jumpi\n      dup1\n      0x8df82800\n      eq\n      tag_10\n      jumpi\n      dup1\n      0xbe9a6555\n      eq\n      tag_11\n      jumpi\n      dup1\n      0xc87b3171\n      eq\n      tag_12\n      jumpi\n      dup1\n      0xf8b2cb4f\n      eq\n      tag_13\n      jumpi\n      0x00\n      dup1\n      revert\n    tag_14:\n      dup1\n      0x200d2ed2\n      eq\n      tag_3\n      jumpi\n      dup1\n      0x2940ff1e\n      eq\n      tag_4\n      jumpi\n      dup1\n      0x2d56657d\n      eq\n      tag_5\n      jumpi\n      dup1\n      0x51cff8d9\n      eq\n      tag_6\n      jumpi\n      dup1\n      0x675f6537\n      eq\n      tag_7\n      jumpi\n    tag_2:\n      0x00\n      dup1\n      revert\n        /* \"contracts/Market.sol\":406:440  uint256 public override status = 0 */\n    tag_3:\n      tag_15\n      sload(0x03)\n      dup2\n      jump\n    tag_15:\n      mload(0x40)\n        /* \"#utility.yul\":6385:6410   */\n      swap1\n      dup2\n      mstore\n        /* \"#utility.yul\":6373:6375   */\n      0x20\n        /* \"#utility.yul\":6358:6376   */\n      add\n        /* \"contracts/Market.sol\":406:440  uint256 public override status = 0 */\n    tag_17:\n      mload(0x40)\n      dup1\n      swap2\n      sub\n      swap1\n      return\n        /* \"contracts/Market.sol\":2859:3416  function cancelBet(bytes32 _bet) external override {... */\n    tag_4:\n      tag_19\n      tag_20\n      calldatasize\n      0x04\n      tag_21\n      jump\t// in\n    tag_20:\n      tag_22\n      jump\t// in\n    tag_19:\n      stop\n        /* \"contracts/Market.sol\":2090:2440  function getUserBets(address _user) external view override returns(MarketBet[] memory) {... */\n    tag_5:\n      tag_23\n      tag_24\n      calldatasize\n      0x04\n      tag_25\n      jump\t// in\n    tag_24:\n      tag_26\n      jump\t// in\n    tag_23:\n      mload(0x40)\n      tag_17\n      swap2\n      swap1\n      tag_28\n      jump\t// in\n        /* \"contracts/Market.sol\":2446:2851  function withdraw(address _addr) public override nonReentrant returns(bool) {... */\n    tag_6:\n      tag_29\n      tag_30\n      calldatasize\n      0x04\n      tag_25\n      jump\t// in\n    tag_30:\n      tag_31\n      jump\t// in\n    tag_29:\n      mload(0x40)\n        /* \"#utility.yul\":6212:6226   */\n      swap1\n      iszero\n        /* \"#utility.yul\":6205:6227   */\n      iszero\n        /* \"#utility.yul\":6187:6228   */\n      dup2\n      mstore\n        /* \"#utility.yul\":6175:6177   */\n      0x20\n        /* \"#utility.yul\":6160:6178   */\n      add\n        /* \"contracts/Market.sol\":2446:2851  function withdraw(address _addr) public override nonReentrant returns(bool) {... */\n      tag_17\n        /* \"#utility.yul\":6142:6234   */\n      jump\n        /* \"contracts/Market.sol\":3715:4035  function settleBet(bytes32 _bet) external override {... */\n    tag_7:\n      tag_19\n      tag_35\n      calldatasize\n      0x04\n      tag_21\n      jump\t// in\n    tag_35:\n      tag_36\n      jump\t// in\n        /* \"contracts/Market.sol\":4537:4917  function cancelMarket() external override onlyFactory returns(bool) ... */\n    tag_8:\n      tag_29\n      tag_38\n      jump\t// in\n        /* \"contracts/Market.sol\":5131:9335  function addBet(... */\n    tag_9:\n      tag_15\n      tag_41\n      calldatasize\n      0x04\n      tag_42\n      jump\t// in\n    tag_41:\n      tag_43\n      jump\t// in\n        /* \"contracts/Market.sol\":4041:4531  function settle(uint256 _winningSide)... */\n    tag_10:\n      tag_29\n      tag_47\n      calldatasize\n      0x04\n      tag_21\n      jump\t// in\n    tag_47:\n      tag_49\n      jump\t// in\n        /* \"contracts/Market.sol\":4923:5125  function start() external override onlyFactory returns(bool){... */\n    tag_11:\n      tag_29\n      tag_52\n      jump\t// in\n        /* \"contracts/Market.sol\":3422:3709  function cashOut(bytes32 _bet) external {... */\n    tag_12:\n      tag_19\n      tag_55\n      calldatasize\n      0x04\n      tag_21\n      jump\t// in\n    tag_55:\n      tag_56\n      jump\t// in\n        /* \"contracts/Market.sol\":1975:2084  function getBalance(address _user) external view override returns(uint256) {... */\n    tag_13:\n      tag_15\n      tag_58\n      calldatasize\n      0x04\n      tag_25\n      jump\t// in\n    tag_58:\n      sub(shl(0xa0, 0x01), 0x01)\n        /* \"contracts/Market.sol\":2067:2077  bal[_user] */\n      and\n        /* \"contracts/Market.sol\":2041:2048  uint256 */\n      0x00\n        /* \"contracts/Market.sol\":2067:2077  bal[_user] */\n      swap1\n      dup2\n      mstore\n        /* \"contracts/Market.sol\":2067:2070  bal */\n      0x07\n        /* \"contracts/Market.sol\":2067:2077  bal[_user] */\n      0x20\n      mstore\n      0x40\n      swap1\n      keccak256\n      sload\n      swap1\n        /* \"contracts/Market.sol\":1975:2084  function getBalance(address _user) external view override returns(uint256) {... */\n      jump\n        /* \"contracts/Market.sol\":2859:3416  function cancelBet(bytes32 _bet) external override {... */\n    tag_22:\n        /* \"contracts/Market.sol\":2920:2940  MarketBet memory bet */\n      0x00\n        /* \"contracts/Market.sol\":2943:2957  betsInfo[_bet] */\n      dup2\n      dup2\n      mstore\n        /* \"contracts/Market.sol\":2943:2951  betsInfo */\n      0x08\n        /* \"contracts/Market.sol\":2943:2957  betsInfo[_bet] */\n      0x20\n      swap1\n      dup2\n      mstore\n      0x40\n      swap2\n      dup3\n      swap1\n      keccak256\n        /* \"contracts/Market.sol\":2920:2957  MarketBet memory bet = betsInfo[_bet] */\n      dup3\n      mload\n      0xc0\n      dup2\n      add\n      dup5\n      mstore\n      dup2\n      sload\n      sub(shl(0xa0, 0x01), 0x01)\n      swap1\n      dup2\n      and\n      dup1\n      dup4\n      mstore\n      0x01\n      dup5\n      add\n      sload\n      swap1\n      swap2\n      and\n      swap4\n      dup3\n      add\n      swap4\n      swap1\n      swap4\n      mstore\n      0x02\n      dup3\n      add\n      sload\n      swap4\n      dup2\n      add\n      swap4\n      swap1\n      swap4\n      mstore\n      0x03\n      dup2\n      add\n      sload\n      0x60\n      dup5\n      add\n      mstore\n      0x04\n      dup2\n      add\n      sload\n      0x80\n      dup5\n      add\n      mstore\n      0x05\n      add\n      sload\n      0xa0\n      dup4\n      add\n      mstore\n        /* \"contracts/Market.sol\":2975:2985  msg.sender */\n      caller\n        /* \"contracts/Market.sol\":2975:2999  msg.sender == bet.better */\n      eq\n        /* \"contracts/Market.sol\":2967:3006  require(msg.sender == bet.better, \"M4\") */\n      tag_62\n      jumpi\n      mload(0x40)\n      shl(0xe5, 0x461bcd)\n      dup2\n      mstore\n        /* \"#utility.yul\":8670:8672   */\n      0x20\n        /* \"contracts/Market.sol\":2967:3006  require(msg.sender == bet.better, \"M4\") */\n      0x04\n      dup3\n      add\n        /* \"#utility.yul\":8652:8673   */\n      mstore\n        /* \"#utility.yul\":8709:8710   */\n      0x02\n        /* \"#utility.yul\":8689:8707   */\n      0x24\n      dup3\n      add\n        /* \"#utility.yul\":8682:8711   */\n      mstore\n      shl(0xf2, 0x134d)\n        /* \"#utility.yul\":8727:8745   */\n      0x44\n      dup3\n      add\n        /* \"#utility.yul\":8720:8752   */\n      mstore\n        /* \"#utility.yul\":8769:8787   */\n      0x64\n      add\n        /* \"contracts/Market.sol\":2967:3006  require(msg.sender == bet.better, \"M4\") */\n    tag_63:\n      mload(0x40)\n      dup1\n      swap2\n      sub\n      swap1\n      revert\n    tag_62:\n        /* \"contracts/Market.sol\":3016:3029  uint remStake */\n      0x00\n        /* \"contracts/Market.sol\":3044:3047  bet */\n      dup2\n        /* \"contracts/Market.sol\":3044:3055  bet.matched */\n      0x60\n      add\n      mload\n        /* \"contracts/Market.sol\":3032:3035  bet */\n      dup3\n        /* \"contracts/Market.sol\":3032:3041  bet.stake */\n      0x40\n      add\n      mload\n        /* \"contracts/Market.sol\":3032:3055  bet.stake - bet.matched */\n      tag_65\n      swap2\n      swap1\n      tag_66\n      jump\t// in\n    tag_65:\n        /* \"contracts/Market.sol\":3069:3079  bet.better */\n      dup3\n      mload\n      sub(shl(0xa0, 0x01), 0x01)\n        /* \"contracts/Market.sol\":3065:3080  bal[bet.better] */\n      and\n      0x00\n      swap1\n      dup2\n      mstore\n        /* \"contracts/Market.sol\":3065:3068  bal */\n      0x07\n        /* \"contracts/Market.sol\":3065:3080  bal[bet.better] */\n      0x20\n      mstore\n      0x40\n      dup2\n      keccak256\n        /* \"contracts/Market.sol\":3065:3092  bal[bet.better] += remStake */\n      dup1\n      sload\n        /* \"contracts/Market.sol\":3016:3055  uint remStake = bet.stake - bet.matched */\n      swap3\n      swap4\n      pop\n      dup4\n      swap3\n        /* \"contracts/Market.sol\":3065:3080  bal[bet.better] */\n      swap1\n      swap2\n      swap1\n        /* \"contracts/Market.sol\":3065:3092  bal[bet.better] += remStake */\n      tag_67\n      swap1\n        /* \"contracts/Market.sol\":3016:3055  uint remStake = bet.stake - bet.matched */\n      dup5\n      swap1\n        /* \"contracts/Market.sol\":3065:3092  bal[bet.better] += remStake */\n      tag_68\n      jump\t// in\n    tag_67:\n      swap1\n      swap2\n      sstore\n      pop\n      pop\n        /* \"contracts/Market.sol\":3127:3136  bet.stake */\n      0x40\n      dup1\n      dup4\n      add\n      mload\n        /* \"contracts/Market.sol\":3102:3116  betsInfo[_bet] */\n      0x00\n      dup6\n      dup2\n      mstore\n        /* \"contracts/Market.sol\":3102:3110  betsInfo */\n      0x08\n        /* \"contracts/Market.sol\":3102:3116  betsInfo[_bet] */\n      0x20\n      mstore\n      swap2\n      dup3\n      keccak256\n        /* \"contracts/Market.sol\":3102:3124  betsInfo[_bet].matched */\n      0x03\n      add\n        /* \"contracts/Market.sol\":3102:3136  betsInfo[_bet].matched = bet.stake */\n      sstore\n        /* \"contracts/Market.sol\":3164:3175  pendingBets */\n      0x06\n        /* \"contracts/Market.sol\":3164:3182  pendingBets.length */\n      sload\n      swap1\n        /* \"contracts/Market.sol\":3192:3333  for(uint i = 0; i < betsLength; i++){... */\n    tag_69:\n        /* \"contracts/Market.sol\":3212:3222  betsLength */\n      dup2\n        /* \"contracts/Market.sol\":3208:3209  i */\n      dup2\n        /* \"contracts/Market.sol\":3208:3222  i < betsLength */\n      lt\n        /* \"contracts/Market.sol\":3192:3333  for(uint i = 0; i < betsLength; i++){... */\n      iszero\n      tag_70\n      jumpi\n        /* \"contracts/Market.sol\":3263:3267  _bet */\n      dup5\n        /* \"contracts/Market.sol\":3245:3256  pendingBets */\n      0x06\n        /* \"contracts/Market.sol\":3257:3258  i */\n      dup3\n        /* \"contracts/Market.sol\":3245:3259  pendingBets[i] */\n      dup2\n      sload\n      dup2\n      lt\n      tag_72\n      jumpi\n      mstore(0x00, shl(0xe0, 0x4e487b71))\n      mstore(0x04, 0x32)\n      revert(0x00, 0x24)\n    tag_72:\n      swap1\n      0x00\n      mstore\n      keccak256(0x00, 0x20)\n      add\n      sload\n        /* \"contracts/Market.sol\":3245:3267  pendingBets[i] == _bet */\n      eq\n        /* \"contracts/Market.sol\":3242:3323  if(pendingBets[i] == _bet) {... */\n      iszero\n      tag_74\n      jumpi\n        /* \"contracts/Market.sol\":3294:3305  pendingBets */\n      0x06\n        /* \"contracts/Market.sol\":3306:3307  i */\n      dup2\n        /* \"contracts/Market.sol\":3294:3308  pendingBets[i] */\n      dup2\n      sload\n      dup2\n      lt\n      tag_75\n      jumpi\n      mstore(0x00, shl(0xe0, 0x4e487b71))\n      mstore(0x04, 0x32)\n      revert(0x00, 0x24)\n    tag_75:\n      0x00\n      swap2\n      dup3\n      mstore\n      0x20\n      dup3\n      keccak256\n      add\n        /* \"contracts/Market.sol\":3287:3308  delete pendingBets[i] */\n      sstore\n        /* \"contracts/Market.sol\":3242:3323  if(pendingBets[i] == _bet) {... */\n    tag_74:\n        /* \"contracts/Market.sol\":3224:3227  i++ */\n      dup1\n      tag_77\n      dup2\n      tag_78\n      jump\t// in\n    tag_77:\n      swap2\n      pop\n      pop\n        /* \"contracts/Market.sol\":3192:3333  for(uint i = 0; i < betsLength; i++){... */\n      jump(tag_69)\n    tag_70:\n      pop\n        /* \"contracts/Market.sol\":3349:3359  msg.sender */\n      caller\n        /* \"contracts/Market.sol\":3363:3364  0 */\n      0x00\n        /* \"contracts/Market.sol\":3345:3360  bal[msg.sender] */\n      swap1\n      dup2\n      mstore\n        /* \"contracts/Market.sol\":3345:3348  bal */\n      0x07\n        /* \"contracts/Market.sol\":3345:3360  bal[msg.sender] */\n      0x20\n      mstore\n      0x40\n      swap1\n      keccak256\n      sload\n        /* \"contracts/Market.sol\":3345:3364  bal[msg.sender] > 0 */\n      iszero\n        /* \"contracts/Market.sol\":3342:3410  if(bal[msg.sender] > 0){... */\n      tag_79\n      jumpi\n        /* \"contracts/Market.sol\":3379:3399  withdraw(msg.sender) */\n      tag_80\n        /* \"contracts/Market.sol\":3388:3398  msg.sender */\n      caller\n        /* \"contracts/Market.sol\":3379:3387  withdraw */\n      tag_31\n        /* \"contracts/Market.sol\":3379:3399  withdraw(msg.sender) */\n      jump\t// in\n    tag_80:\n      pop\n        /* \"contracts/Market.sol\":3342:3410  if(bal[msg.sender] > 0){... */\n    tag_79:\n        /* \"contracts/Market.sol\":2859:3416  function cancelBet(bytes32 _bet) external override {... */\n      pop\n      pop\n      pop\n      pop\n      jump\t// out\n        /* \"contracts/Market.sol\":2090:2440  function getUserBets(address _user) external view override returns(MarketBet[] memory) {... */\n    tag_26:\n      sub(shl(0xa0, 0x01), 0x01)\n        /* \"contracts/Market.sol\":2250:2265  userBets[_user] */\n      dup2\n      and\n        /* \"contracts/Market.sol\":2225:2247  bytes32[] memory _bets */\n      0x00\n        /* \"contracts/Market.sol\":2250:2265  userBets[_user] */\n      swap1\n      dup2\n      mstore\n        /* \"contracts/Market.sol\":2250:2258  userBets */\n      0x09\n        /* \"contracts/Market.sol\":2250:2265  userBets[_user] */\n      0x20\n      swap1\n      dup2\n      mstore\n      0x40\n      dup1\n      dup4\n      keccak256\n        /* \"contracts/Market.sol\":2225:2265  bytes32[] memory _bets = userBets[_user] */\n      dup1\n      sload\n      dup3\n      mload\n      dup2\n      dup6\n      mul\n      dup2\n      add\n      dup6\n      add\n      swap1\n      swap4\n      mstore\n      dup1\n      dup4\n      mstore\n        /* \"contracts/Market.sol\":2157:2175  MarketBet[] memory */\n      0x60\n      swap5\n      dup6\n      swap5\n        /* \"contracts/Market.sol\":2225:2247  bytes32[] memory _bets */\n      swap1\n      swap4\n        /* \"contracts/Market.sol\":2225:2265  bytes32[] memory _bets = userBets[_user] */\n      swap3\n        /* \"contracts/Market.sol\":2250:2265  userBets[_user] */\n      swap2\n        /* \"contracts/Market.sol\":2225:2265  bytes32[] memory _bets = userBets[_user] */\n      swap1\n      dup4\n      add\n        /* \"contracts/Market.sol\":2250:2265  userBets[_user] */\n      dup3\n        /* \"contracts/Market.sol\":2225:2265  bytes32[] memory _bets = userBets[_user] */\n      dup3\n      dup1\n      iszero\n      tag_82\n      jumpi\n      0x20\n      mul\n      dup3\n      add\n      swap2\n      swap1\n      0x00\n      mstore\n      keccak256(0x00, 0x20)\n      swap1\n    tag_83:\n      dup2\n      sload\n      dup2\n      mstore\n      0x20\n      add\n      swap1\n      0x01\n      add\n      swap1\n      dup1\n      dup4\n      gt\n      tag_83\n      jumpi\n    tag_82:\n      pop\n      pop\n        /* \"contracts/Market.sol\":2293:2297  bets */\n      0x05\n        /* \"contracts/Market.sol\":2293:2304  bets.length */\n      sload\n        /* \"contracts/Market.sol\":2225:2265  bytes32[] memory _bets = userBets[_user] */\n      swap4\n      swap5\n      pop\n        /* \"contracts/Market.sol\":2275:2290  uint betsLength */\n      0x00\n      swap3\n      pop\n      pop\n      pop\n        /* \"contracts/Market.sol\":2314:2408  for(uint i = 0; i < betsLength; i++){... */\n    tag_84:\n        /* \"contracts/Market.sol\":2334:2344  betsLength */\n      dup2\n        /* \"contracts/Market.sol\":2330:2331  i */\n      dup2\n        /* \"contracts/Market.sol\":2330:2344  i < betsLength */\n      lt\n        /* \"contracts/Market.sol\":2314:2408  for(uint i = 0; i < betsLength; i++){... */\n      iszero\n      tag_85\n      jumpi\n        /* \"contracts/Market.sol\":2379:2387  betsInfo */\n      0x08\n        /* \"contracts/Market.sol\":2379:2397  betsInfo[_bets[i]] */\n      0x00\n        /* \"contracts/Market.sol\":2388:2393  _bets */\n      dup5\n        /* \"contracts/Market.sol\":2394:2395  i */\n      dup4\n        /* \"contracts/Market.sol\":2388:2396  _bets[i] */\n      dup2\n      mload\n      dup2\n      lt\n      tag_87\n      jumpi\n      mstore(0x00, shl(0xe0, 0x4e487b71))\n      mstore(0x04, 0x32)\n      revert(0x00, 0x24)\n    tag_87:\n      0x20\n      swap1\n      dup2\n      mul\n      swap2\n      swap1\n      swap2\n      add\n      dup2\n      add\n      mload\n        /* \"contracts/Market.sol\":2379:2397  betsInfo[_bets[i]] */\n      dup3\n      mstore\n      dup2\n      dup2\n      add\n      swap3\n      swap1\n      swap3\n      mstore\n      0x40\n      swap1\n      dup2\n      add\n      0x00\n      keccak256\n        /* \"contracts/Market.sol\":2364:2397  _userBets[i] = betsInfo[_bets[i]] */\n      dup2\n      mload\n      0xc0\n      dup2\n      add\n      dup4\n      mstore\n      dup2\n      sload\n      sub(shl(0xa0, 0x01), 0x01)\n      swap1\n      dup2\n      and\n      dup3\n      mstore\n      0x01\n      dup4\n      add\n      sload\n      and\n      swap4\n      dup2\n      add\n      swap4\n      swap1\n      swap4\n      mstore\n      0x02\n      dup2\n      add\n      sload\n      swap2\n      dup4\n      add\n      swap2\n      swap1\n      swap2\n      mstore\n      0x03\n      dup2\n      add\n      sload\n      0x60\n      dup4\n      add\n      mstore\n      0x04\n      dup2\n      add\n      sload\n      0x80\n      dup4\n      add\n      mstore\n      0x05\n      add\n      sload\n      0xa0\n      dup3\n      add\n      mstore\n        /* \"contracts/Market.sol\":2364:2376  _userBets[i] */\n      dup5\n      mload\n        /* \"contracts/Market.sol\":2364:2373  _userBets */\n      dup6\n      swap1\n        /* \"contracts/Market.sol\":2374:2375  i */\n      dup4\n      swap1\n        /* \"contracts/Market.sol\":2364:2376  _userBets[i] */\n      dup2\n      lt\n      tag_88\n      jumpi\n      mstore(0x00, shl(0xe0, 0x4e487b71))\n      mstore(0x04, 0x32)\n      revert(0x00, 0x24)\n    tag_88:\n      0x20\n      mul\n      0x20\n      add\n      add\n        /* \"contracts/Market.sol\":2364:2397  _userBets[i] = betsInfo[_bets[i]] */\n      dup2\n      swap1\n      mstore\n      pop\n        /* \"contracts/Market.sol\":2346:2349  i++ */\n      dup1\n      dup1\n      tag_89\n      swap1\n      tag_78\n      jump\t// in\n    tag_89:\n      swap2\n      pop\n      pop\n        /* \"contracts/Market.sol\":2314:2408  for(uint i = 0; i < betsLength; i++){... */\n      jump(tag_84)\n    tag_85:\n      pop\n        /* \"contracts/Market.sol\":2424:2433  _userBets */\n      swap2\n      swap5\n        /* \"contracts/Market.sol\":2090:2440  function getUserBets(address _user) external view override returns(MarketBet[] memory) {... */\n      swap4\n      pop\n      pop\n      pop\n      pop\n      jump\t// out\n        /* \"contracts/Market.sol\":2446:2851  function withdraw(address _addr) public override nonReentrant returns(bool) {... */\n    tag_31:\n        /* \"contracts/Market.sol\":2516:2520  bool */\n      0x00\n        /* \"@openzeppelin/contracts/security/ReentrancyGuard.sol\":1744:1745  2 */\n      0x02\n        /* \"@openzeppelin/contracts/security/ReentrancyGuard.sol\":2325:2332  _status */\n      sload(0x00)\n        /* \"@openzeppelin/contracts/security/ReentrancyGuard.sol\":2325:2344  _status != _ENTERED */\n      eq\n      iszero\n        /* \"@openzeppelin/contracts/security/ReentrancyGuard.sol\":2317:2380  require(_status != _ENTERED, \"ReentrancyGuard: reentrant call\") */\n      tag_91\n      jumpi\n      mload(0x40)\n      shl(0xe5, 0x461bcd)\n      dup2\n      mstore\n        /* \"#utility.yul\":9330:9332   */\n      0x20\n        /* \"@openzeppelin/contracts/security/ReentrancyGuard.sol\":2317:2380  require(_status != _ENTERED, \"ReentrancyGuard: reentrant call\") */\n      0x04\n      dup3\n      add\n        /* \"#utility.yul\":9312:9333   */\n      mstore\n        /* \"#utility.yul\":9369:9371   */\n      0x1f\n        /* \"#utility.yul\":9349:9367   */\n      0x24\n      dup3\n      add\n        /* \"#utility.yul\":9342:9372   */\n      mstore\n        /* \"#utility.yul\":9408:9441   */\n      0x5265656e7472616e637947756172643a207265656e7472616e742063616c6c00\n        /* \"#utility.yul\":9388:9406   */\n      0x44\n      dup3\n      add\n        /* \"#utility.yul\":9381:9442   */\n      mstore\n        /* \"#utility.yul\":9459:9477   */\n      0x64\n      add\n        /* \"@openzeppelin/contracts/security/ReentrancyGuard.sol\":2317:2380  require(_status != _ENTERED, \"ReentrancyGuard: reentrant call\") */\n      tag_63\n        /* \"#utility.yul\":9302:9483   */\n      jump\n        /* \"@openzeppelin/contracts/security/ReentrancyGuard.sol\":2317:2380  require(_status != _ENTERED, \"ReentrancyGuard: reentrant call\") */\n    tag_91:\n        /* \"@openzeppelin/contracts/security/ReentrancyGuard.sol\":1744:1745  2 */\n      0x02\n        /* \"@openzeppelin/contracts/security/ReentrancyGuard.sol\":2455:2462  _status */\n      0x00\n        /* \"@openzeppelin/contracts/security/ReentrancyGuard.sol\":2455:2473  _status = _ENTERED */\n      swap1\n      dup2\n      sstore\n      sub(shl(0xa0, 0x01), 0x01)\n        /* \"contracts/Market.sol\":2554:2564  bal[_addr] */\n      dup4\n      dup2\n      and\n      dup3\n      mstore\n        /* \"contracts/Market.sol\":2554:2557  bal */\n      0x07\n        /* \"contracts/Market.sol\":2554:2564  bal[_addr] */\n      0x20\n      mstore\n      0x40\n      swap2\n      dup3\n      swap1\n      keccak256\n      sload\n        /* \"contracts/Market.sol\":2582:2612  token.balanceOf(address(this)) */\n      swap2\n      mload\n      shl(0xe0, 0x70a08231)\n      dup2\n      mstore\n        /* \"contracts/Market.sol\":2606:2610  this */\n      address\n        /* \"contracts/Market.sol\":2582:2612  token.balanceOf(address(this)) */\n      0x04\n      dup3\n      add\n        /* \"#utility.yul\":3266:3317   */\n      mstore\n        /* \"contracts/Market.sol\":2554:2564  bal[_addr] */\n      dup3\n      swap2\n        /* \"contracts/Market.sol\":2582:2587  token */\n      immutable(\"0xb35cf579f54ccafa8cda334bf8f538b0f7a8230c902d5a84be1ea7996ef7fb49\")\n        /* \"contracts/Market.sol\":2582:2597  token.balanceOf */\n      and\n      swap1\n      0x70a08231\n      swap1\n        /* \"#utility.yul\":3239:3257   */\n      0x24\n      add\n        /* \"contracts/Market.sol\":2582:2612  token.balanceOf(address(this)) */\n      0x20\n      mload(0x40)\n      dup1\n      dup4\n      sub\n      dup2\n      dup7\n      dup1\n      extcodesize\n      iszero\n      dup1\n      iszero\n      tag_97\n      jumpi\n      0x00\n      dup1\n      revert\n    tag_97:\n      pop\n      gas\n      staticcall\n      iszero\n      dup1\n      iszero\n      tag_99\n      jumpi\n      returndatasize\n      0x00\n      dup1\n      returndatacopy\n      revert(0x00, returndatasize)\n    tag_99:\n      pop\n      pop\n      pop\n      pop\n      mload(0x40)\n      returndatasize\n      not(0x1f)\n      0x1f\n      dup3\n      add\n      and\n      dup3\n      add\n      dup1\n      0x40\n      mstore\n      pop\n      dup2\n      add\n      swap1\n      tag_100\n      swap2\n      swap1\n      tag_101\n      jump\t// in\n    tag_100:\n        /* \"contracts/Market.sol\":2582:2627  token.balanceOf(address(this)) >= availAmount */\n      lt\n      iszero\n        /* \"contracts/Market.sol\":2582:2646  token.balanceOf(address(this)) >= availAmount && availAmount > 0 */\n      dup1\n      iszero\n      tag_102\n      jumpi\n      pop\n        /* \"contracts/Market.sol\":2645:2646  0 */\n      0x00\n        /* \"contracts/Market.sol\":2631:2642  availAmount */\n      dup2\n        /* \"contracts/Market.sol\":2631:2646  availAmount > 0 */\n      gt\n        /* \"contracts/Market.sol\":2582:2646  token.balanceOf(address(this)) >= availAmount && availAmount > 0 */\n    tag_102:\n        /* \"contracts/Market.sol\":2574:2653  require(token.balanceOf(address(this)) >= availAmount && availAmount > 0, \"M2\") */\n      tag_103\n      jumpi\n      mload(0x40)\n      shl(0xe5, 0x461bcd)\n      dup2\n      mstore\n        /* \"#utility.yul\":9000:9002   */\n      0x20\n        /* \"contracts/Market.sol\":2574:2653  require(token.balanceOf(address(this)) >= availAmount && availAmount > 0, \"M2\") */\n      0x04\n      dup3\n      add\n        /* \"#utility.yul\":8982:9003   */\n      mstore\n        /* \"#utility.yul\":9039:9040   */\n      0x02\n        /* \"#utility.yul\":9019:9037   */\n      0x24\n      dup3\n      add\n        /* \"#utility.yul\":9012:9041   */\n      mstore\n      shl(0xf1, 0x2699)\n        /* \"#utility.yul\":9057:9075   */\n      0x44\n      dup3\n      add\n        /* \"#utility.yul\":9050:9082   */\n      mstore\n        /* \"#utility.yul\":9099:9117   */\n      0x64\n      add\n        /* \"contracts/Market.sol\":2574:2653  require(token.balanceOf(address(this)) >= availAmount && availAmount > 0, \"M2\") */\n      tag_63\n        /* \"#utility.yul\":8972:9123   */\n      jump\n        /* \"contracts/Market.sol\":2574:2653  require(token.balanceOf(address(this)) >= availAmount && availAmount > 0, \"M2\") */\n    tag_103:\n      sub(shl(0xa0, 0x01), 0x01)\n        /* \"contracts/Market.sol\":2663:2673  bal[_addr] */\n      dup4\n      and\n      0x00\n      swap1\n      dup2\n      mstore\n        /* \"contracts/Market.sol\":2663:2666  bal */\n      0x07\n        /* \"contracts/Market.sol\":2663:2673  bal[_addr] */\n      0x20\n      mstore\n      0x40\n      dup2\n      keccak256\n        /* \"contracts/Market.sol\":2663:2688  bal[_addr] -= availAmount */\n      dup1\n      sload\n        /* \"contracts/Market.sol\":2677:2688  availAmount */\n      dup4\n      swap3\n        /* \"contracts/Market.sol\":2663:2673  bal[_addr] */\n      swap1\n        /* \"contracts/Market.sol\":2663:2688  bal[_addr] -= availAmount */\n      tag_106\n      swap1\n        /* \"contracts/Market.sol\":2677:2688  availAmount */\n      dup5\n      swap1\n        /* \"contracts/Market.sol\":2663:2688  bal[_addr] -= availAmount */\n      tag_66\n      jump\t// in\n    tag_106:\n      swap1\n      swap2\n      sstore\n      pop\n      pop\n        /* \"contracts/Market.sol\":2713:2747  token.transfer(_addr, availAmount) */\n      mload(0x40)\n      shl(0xe0, 0xa9059cbb)\n      dup2\n      mstore\n      sub(shl(0xa0, 0x01), 0x01)\n        /* \"#utility.yul\":4805:4837   */\n      dup5\n      dup2\n      and\n        /* \"contracts/Market.sol\":2713:2747  token.transfer(_addr, availAmount) */\n      0x04\n      dup4\n      add\n        /* \"#utility.yul\":4787:4838   */\n      mstore\n        /* \"#utility.yul\":4854:4872   */\n      0x24\n      dup3\n      add\n        /* \"#utility.yul\":4847:4881   */\n      dup4\n      swap1\n      mstore\n        /* \"contracts/Market.sol\":2698:2710  bool success */\n      0x00\n      swap2\n        /* \"contracts/Market.sol\":2713:2718  token */\n      immutable(\"0xb35cf579f54ccafa8cda334bf8f538b0f7a8230c902d5a84be1ea7996ef7fb49\")\n        /* \"contracts/Market.sol\":2713:2727  token.transfer */\n      swap1\n      swap2\n      and\n      swap1\n      0xa9059cbb\n      swap1\n        /* \"#utility.yul\":4760:4778   */\n      0x44\n      add\n        /* \"contracts/Market.sol\":2713:2747  token.transfer(_addr, availAmount) */\n      0x20\n      mload(0x40)\n      dup1\n      dup4\n      sub\n      dup2\n      0x00\n      dup8\n      dup1\n      extcodesize\n      iszero\n      dup1\n      iszero\n      tag_109\n      jumpi\n      0x00\n      dup1\n      revert\n    tag_109:\n      pop\n      gas\n      call\n      iszero\n      dup1\n      iszero\n      tag_111\n      jumpi\n      returndatasize\n      0x00\n      dup1\n      returndatacopy\n      revert(0x00, returndatasize)\n    tag_111:\n      pop\n      pop\n      pop\n      pop\n      mload(0x40)\n      returndatasize\n      not(0x1f)\n      0x1f\n      dup3\n      add\n      and\n      dup3\n      add\n      dup1\n      0x40\n      mstore\n      pop\n      dup2\n      add\n      swap1\n      tag_112\n      swap2\n      swap1\n      tag_113\n      jump\t// in\n    tag_112:\n        /* \"contracts/Market.sol\":2698:2747  bool success = token.transfer(_addr, availAmount) */\n      swap1\n      pop\n        /* \"contracts/Market.sol\":2765:2772  success */\n      dup1\n        /* \"contracts/Market.sol\":2757:2779  require(success, \"M3\") */\n      tag_114\n      jumpi\n      mload(0x40)\n      shl(0xe5, 0x461bcd)\n      dup2\n      mstore\n        /* \"#utility.yul\":7349:7351   */\n      0x20\n        /* \"contracts/Market.sol\":2757:2779  require(success, \"M3\") */\n      0x04\n      dup3\n      add\n        /* \"#utility.yul\":7331:7352   */\n      mstore\n        /* \"#utility.yul\":7388:7389   */\n      0x02\n        /* \"#utility.yul\":7368:7386   */\n      0x24\n      dup3\n      add\n        /* \"#utility.yul\":7361:7390   */\n      mstore\n      shl(0xf0, 0x4d33)\n        /* \"#utility.yul\":7406:7424   */\n      0x44\n      dup3\n      add\n        /* \"#utility.yul\":7399:7431   */\n      mstore\n        /* \"#utility.yul\":7448:7466   */\n      0x64\n      add\n        /* \"contracts/Market.sol\":2757:2779  require(success, \"M3\") */\n      tag_63\n        /* \"#utility.yul\":7321:7472   */\n      jump\n        /* \"contracts/Market.sol\":2757:2779  require(success, \"M3\") */\n    tag_114:\n        /* \"contracts/Market.sol\":2795:2823  Withdraw(_addr, availAmount) */\n      0x40\n      dup1\n      mload\n      sub(shl(0xa0, 0x01), 0x01)\n        /* \"#utility.yul\":4805:4837   */\n      dup7\n      and\n        /* \"#utility.yul\":4787:4838   */\n      dup2\n      mstore\n        /* \"#utility.yul\":4869:4871   */\n      0x20\n        /* \"#utility.yul\":4854:4872   */\n      dup2\n      add\n        /* \"#utility.yul\":4847:4881   */\n      dup5\n      swap1\n      mstore\n        /* \"contracts/Market.sol\":2795:2823  Withdraw(_addr, availAmount) */\n      0x884edad9ce6fa2440d8a54cc123490eb96d2768479d49ff9c7366125a9424364\n      swap2\n        /* \"#utility.yul\":4760:4778   */\n      add\n        /* \"contracts/Market.sol\":2795:2823  Withdraw(_addr, availAmount) */\n      mload(0x40)\n      dup1\n      swap2\n      sub\n      swap1\n      log1\n        /* \"contracts/Market.sol\":2840:2844  true */\n      0x01\n        /* \"contracts/Market.sol\":2833:2844  return true */\n      swap3\n      pop\n      pop\n      pop\n        /* \"@openzeppelin/contracts/security/ReentrancyGuard.sol\":2484:2485  _ */\n    tag_94:\n        /* \"@openzeppelin/contracts/security/ReentrancyGuard.sol\":1701:1702  1 */\n      0x01\n        /* \"@openzeppelin/contracts/security/ReentrancyGuard.sol\":2628:2635  _status */\n      0x00\n        /* \"@openzeppelin/contracts/security/ReentrancyGuard.sol\":2628:2650  _status = _NOT_ENTERED */\n      sstore\n        /* \"contracts/Market.sol\":2446:2851  function withdraw(address _addr) public override nonReentrant returns(bool) {... */\n      swap2\n      swap1\n      pop\n      jump\t// out\n        /* \"contracts/Market.sol\":3715:4035  function settleBet(bytes32 _bet) external override {... */\n    tag_36:\n        /* \"contracts/Market.sol\":3776:3799  bytes32[] memory _pairs */\n      0x00\n        /* \"contracts/Market.sol\":3802:3816  betPairs[_bet] */\n      dup2\n      dup2\n      mstore\n        /* \"contracts/Market.sol\":3802:3810  betPairs */\n      0x0b\n        /* \"contracts/Market.sol\":3802:3816  betPairs[_bet] */\n      0x20\n      swap1\n      dup2\n      mstore\n      0x40\n      dup1\n      dup4\n      keccak256\n        /* \"contracts/Market.sol\":3776:3816  bytes32[] memory _pairs = betPairs[_bet] */\n      dup1\n      sload\n      dup3\n      mload\n      dup2\n      dup6\n      mul\n      dup2\n      add\n      dup6\n      add\n      swap1\n      swap4\n      mstore\n      dup1\n      dup4\n      mstore\n      swap2\n      swap3\n        /* \"contracts/Market.sol\":3802:3816  betPairs[_bet] */\n      swap1\n      swap2\n        /* \"contracts/Market.sol\":3776:3816  bytes32[] memory _pairs = betPairs[_bet] */\n      swap1\n      dup4\n      add\n        /* \"contracts/Market.sol\":3802:3816  betPairs[_bet] */\n      dup3\n        /* \"contracts/Market.sol\":3776:3816  bytes32[] memory _pairs = betPairs[_bet] */\n      dup3\n      dup1\n      iszero\n      tag_119\n      jumpi\n      0x20\n      mul\n      dup3\n      add\n      swap2\n      swap1\n      0x00\n      mstore\n      keccak256(0x00, 0x20)\n      swap1\n    tag_120:\n      dup2\n      sload\n      dup2\n      mstore\n      0x20\n      add\n      swap1\n      0x01\n      add\n      swap1\n      dup1\n      dup4\n      gt\n      tag_120\n      jumpi\n    tag_119:\n      pop\n      pop\n        /* \"contracts/Market.sol\":3845:3858  _pairs.length */\n      dup4\n      mload\n        /* \"contracts/Market.sol\":3776:3816  bytes32[] memory _pairs = betPairs[_bet] */\n      swap4\n      swap5\n      pop\n        /* \"contracts/Market.sol\":3826:3842  uint pairsLength */\n      0x00\n      swap3\n      pop\n      pop\n      pop\n        /* \"contracts/Market.sol\":3868:3952  for(uint i = 0; i < pairsLength; i++){... */\n    tag_121:\n        /* \"contracts/Market.sol\":3888:3899  pairsLength */\n      dup2\n        /* \"contracts/Market.sol\":3884:3885  i */\n      dup2\n        /* \"contracts/Market.sol\":3884:3899  i < pairsLength */\n      lt\n        /* \"contracts/Market.sol\":3868:3952  for(uint i = 0; i < pairsLength; i++){... */\n      iszero\n      tag_122\n      jumpi\n        /* \"contracts/Market.sol\":3919:3941  _settlePair(_pairs[i]) */\n      tag_124\n        /* \"contracts/Market.sol\":3931:3937  _pairs */\n      dup4\n        /* \"contracts/Market.sol\":3938:3939  i */\n      dup3\n        /* \"contracts/Market.sol\":3931:3940  _pairs[i] */\n      dup2\n      mload\n      dup2\n      lt\n      tag_125\n      jumpi\n      mstore(0x00, shl(0xe0, 0x4e487b71))\n      mstore(0x04, 0x32)\n      revert(0x00, 0x24)\n    tag_125:\n      0x20\n      mul\n      0x20\n      add\n      add\n      mload\n        /* \"contracts/Market.sol\":3919:3930  _settlePair */\n      tag_126\n        /* \"contracts/Market.sol\":3919:3941  _settlePair(_pairs[i]) */\n      jump\t// in\n    tag_124:\n      pop\n        /* \"contracts/Market.sol\":3901:3904  i++ */\n      dup1\n      tag_127\n      dup2\n      tag_78\n      jump\t// in\n    tag_127:\n      swap2\n      pop\n      pop\n        /* \"contracts/Market.sol\":3868:3952  for(uint i = 0; i < pairsLength; i++){... */\n      jump(tag_121)\n    tag_122:\n      pop\n        /* \"contracts/Market.sol\":3968:3978  msg.sender */\n      caller\n        /* \"contracts/Market.sol\":3982:3983  0 */\n      0x00\n        /* \"contracts/Market.sol\":3964:3979  bal[msg.sender] */\n      swap1\n      dup2\n      mstore\n        /* \"contracts/Market.sol\":3964:3967  bal */\n      0x07\n        /* \"contracts/Market.sol\":3964:3979  bal[msg.sender] */\n      0x20\n      mstore\n      0x40\n      swap1\n      keccak256\n      sload\n        /* \"contracts/Market.sol\":3964:3983  bal[msg.sender] > 0 */\n      iszero\n        /* \"contracts/Market.sol\":3961:4029  if(bal[msg.sender] > 0){... */\n      tag_128\n      jumpi\n        /* \"contracts/Market.sol\":3998:4018  withdraw(msg.sender) */\n      tag_79\n        /* \"contracts/Market.sol\":4007:4017  msg.sender */\n      caller\n        /* \"contracts/Market.sol\":3998:4006  withdraw */\n      tag_31\n        /* \"contracts/Market.sol\":3998:4018  withdraw(msg.sender) */\n      jump\t// in\n        /* \"contracts/Market.sol\":3961:4029  if(bal[msg.sender] > 0){... */\n    tag_128:\n        /* \"contracts/Market.sol\":3715:4035  function settleBet(bytes32 _bet) external override {... */\n      pop\n      pop\n      pop\n      jump\t// out\n        /* \"contracts/Market.sol\":4537:4917  function cancelMarket() external override onlyFactory returns(bool) ... */\n    tag_38:\n        /* \"contracts/Market.sol\":1275:1280  owner */\n      sload(0x01)\n        /* \"contracts/Market.sol\":4599:4603  bool */\n      0x00\n      swap1\n      sub(shl(0xa0, 0x01), 0x01)\n        /* \"contracts/Market.sol\":1275:1280  owner */\n      and\n        /* \"contracts/Market.sol\":1261:1271  msg.sender */\n      caller\n        /* \"contracts/Market.sol\":1261:1280  msg.sender == owner */\n      eq\n      dup1\n        /* \"contracts/Market.sol\":1261:1343  msg.sender == owner ... */\n      tag_131\n      jumpi\n      pop\n        /* \"contracts/Market.sol\":1324:1327  app */\n      immutable(\"0x911a39fbf665a24ad3b6efc185d4b936bbda1900793ae2f7c00f4d18bdd96685\")\n      sub(shl(0xa0, 0x01), 0x01)\n        /* \"contracts/Market.sol\":1324:1341  app.contractOwner */\n      and\n      0xce606ee0\n        /* \"contracts/Market.sol\":1324:1343  app.contractOwner() */\n      mload(0x40)\n      dup2\n      0xffffffff\n      and\n      0xe0\n      shl\n      dup2\n      mstore\n      0x04\n      add\n      0x20\n      mload(0x40)\n      dup1\n      dup4\n      sub\n      dup2\n      dup7\n      dup1\n      extcodesize\n      iszero\n      dup1\n      iszero\n      tag_132\n      jumpi\n      0x00\n      dup1\n      revert\n    tag_132:\n      pop\n      gas\n      staticcall\n      iszero\n      dup1\n      iszero\n      tag_134\n      jumpi\n      returndatasize\n      0x00\n      dup1\n      returndatacopy\n      revert(0x00, returndatasize)\n    tag_134:\n      pop\n      pop\n      pop\n      pop\n      mload(0x40)\n      returndatasize\n      not(0x1f)\n      0x1f\n      dup3\n      add\n      and\n      dup3\n      add\n      dup1\n      0x40\n      mstore\n      pop\n      dup2\n      add\n      swap1\n      tag_135\n      swap2\n      swap1\n      tag_136\n      jump\t// in\n    tag_135:\n      sub(shl(0xa0, 0x01), 0x01)\n        /* \"contracts/Market.sol\":1310:1343  msg.sender == app.contractOwner() */\n      and\n        /* \"contracts/Market.sol\":1310:1320  msg.sender */\n      caller\n      sub(shl(0xa0, 0x01), 0x01)\n        /* \"contracts/Market.sol\":1310:1343  msg.sender == app.contractOwner() */\n      and\n      eq\n        /* \"contracts/Market.sol\":1261:1343  msg.sender == owner ... */\n    tag_131:\n        /* \"contracts/Market.sol\":1261:1392  msg.sender == owner ... */\n      dup1\n      tag_137\n      jumpi\n      pop\n        /* \"contracts/Market.sol\":1385:1392  factory */\n      and(sub(shl(0xa0, 0x01), 0x01), sload(0x02))\n        /* \"contracts/Market.sol\":1371:1381  msg.sender */\n      caller\n        /* \"contracts/Market.sol\":1371:1392  msg.sender == factory */\n      eq\n        /* \"contracts/Market.sol\":1261:1392  msg.sender == owner ... */\n    tag_137:\n        /* \"contracts/Market.sol\":1240:1420  require(... */\n      tag_138\n      jumpi\n      mload(0x40)\n      shl(0xe5, 0x461bcd)\n      dup2\n      mstore\n      0x04\n      add\n      tag_63\n      swap1\n      tag_140\n      jump\t// in\n    tag_138:\n        /* \"contracts/Market.sol\":4624:4630  status */\n      sload(0x03)\n        /* \"contracts/Market.sol\":4624:4635  status == 0 */\n      iszero\n      dup1\n        /* \"contracts/Market.sol\":4624:4650  status == 0 || status == 4 */\n      tag_142\n      jumpi\n      pop\n        /* \"contracts/Market.sol\":4639:4645  status */\n      sload(0x03)\n        /* \"contracts/Market.sol\":4649:4650  4 */\n      0x04\n        /* \"contracts/Market.sol\":4639:4650  status == 4 */\n      eq\n        /* \"contracts/Market.sol\":4624:4650  status == 0 || status == 4 */\n    tag_142:\n        /* \"contracts/Market.sol\":4621:4911  if(status == 0 || status == 4){... */\n      iszero\n      tag_143\n      jumpi\n        /* \"contracts/Market.sol\":4684:4689  pairs */\n      0x04\n        /* \"contracts/Market.sol\":4684:4696  pairs.length */\n      sload\n        /* \"contracts/Market.sol\":4665:4681  uint pairsLength */\n      0x00\n        /* \"contracts/Market.sol\":4710:4801  for(uint i = 0; i < pairsLength; i++){... */\n    tag_144:\n        /* \"contracts/Market.sol\":4730:4741  pairsLength */\n      dup2\n        /* \"contracts/Market.sol\":4726:4727  i */\n      dup2\n        /* \"contracts/Market.sol\":4726:4741  i < pairsLength */\n      lt\n        /* \"contracts/Market.sol\":4710:4801  for(uint i = 0; i < pairsLength; i++){... */\n      iszero\n      tag_145\n      jumpi\n        /* \"contracts/Market.sol\":4765:4786  _cancelPair(pairs[i]) */\n      tag_147\n        /* \"contracts/Market.sol\":4777:4782  pairs */\n      0x04\n        /* \"contracts/Market.sol\":4783:4784  i */\n      dup3\n        /* \"contracts/Market.sol\":4777:4785  pairs[i] */\n      dup2\n      sload\n      dup2\n      lt\n      tag_148\n      jumpi\n      mstore(0x00, shl(0xe0, 0x4e487b71))\n      mstore(0x04, 0x32)\n      revert(0x00, 0x24)\n    tag_148:\n      swap1\n      0x00\n      mstore\n      keccak256(0x00, 0x20)\n      add\n      sload\n        /* \"contracts/Market.sol\":4765:4776  _cancelPair */\n      tag_150\n        /* \"contracts/Market.sol\":4765:4786  _cancelPair(pairs[i]) */\n      jump\t// in\n    tag_147:\n        /* \"contracts/Market.sol\":4743:4746  i++ */\n      dup1\n      tag_151\n      dup2\n      tag_78\n      jump\t// in\n    tag_151:\n      swap2\n      pop\n      pop\n        /* \"contracts/Market.sol\":4710:4801  for(uint i = 0; i < pairsLength; i++){... */\n      jump(tag_144)\n    tag_145:\n      pop\n      pop\n        /* \"contracts/Market.sol\":4823:4824  3 */\n      0x03\n        /* \"contracts/Market.sol\":4814:4824  status = 3 */\n      dup1\n      sstore\n      pop\n        /* \"contracts/Market.sol\":4845:4849  true */\n      0x01\n        /* \"contracts/Market.sol\":4537:4917  function cancelMarket() external override onlyFactory returns(bool) ... */\n      swap1\n      jump\t// out\n        /* \"contracts/Market.sol\":4621:4911  if(status == 0 || status == 4){... */\n    tag_143:\n      pop\n        /* \"contracts/Market.sol\":4895:4900  false */\n      0x00\n        /* \"contracts/Market.sol\":4537:4917  function cancelMarket() external override onlyFactory returns(bool) ... */\n      swap1\n      jump\t// out\n        /* \"contracts/Market.sol\":5131:9335  function addBet(... */\n    tag_43:\n        /* \"contracts/Market.sol\":5370:5393  app.isBlack(msg.sender) */\n      mload(0x40)\n      shl(0xe0, 0x332daccf)\n      dup2\n      mstore\n        /* \"contracts/Market.sol\":5382:5392  msg.sender */\n      caller\n        /* \"contracts/Market.sol\":5370:5393  app.isBlack(msg.sender) */\n      0x04\n      dup3\n      add\n        /* \"#utility.yul\":3266:3317   */\n      mstore\n        /* \"contracts/Market.sol\":5338:5345  bytes32 */\n      0x00\n      swap1\n        /* \"contracts/Market.sol\":5370:5373  app */\n      immutable(\"0x911a39fbf665a24ad3b6efc185d4b936bbda1900793ae2f7c00f4d18bdd96685\")\n      sub(shl(0xa0, 0x01), 0x01)\n        /* \"contracts/Market.sol\":5370:5381  app.isBlack */\n      and\n      swap1\n      0x332daccf\n      swap1\n        /* \"#utility.yul\":3239:3257   */\n      0x24\n      add\n        /* \"contracts/Market.sol\":5370:5393  app.isBlack(msg.sender) */\n      0x20\n      mload(0x40)\n      dup1\n      dup4\n      sub\n      dup2\n      dup7\n      dup1\n      extcodesize\n      iszero\n      dup1\n      iszero\n      tag_155\n      jumpi\n      0x00\n      dup1\n      revert\n    tag_155:\n      pop\n      gas\n      staticcall\n      iszero\n      dup1\n      iszero\n      tag_157\n      jumpi\n      returndatasize\n      0x00\n      dup1\n      returndatacopy\n      revert(0x00, returndatasize)\n    tag_157:\n      pop\n      pop\n      pop\n      pop\n      mload(0x40)\n      returndatasize\n      not(0x1f)\n      0x1f\n      dup3\n      add\n      and\n      dup3\n      add\n      dup1\n      0x40\n      mstore\n      pop\n      dup2\n      add\n      swap1\n      tag_158\n      swap2\n      swap1\n      tag_113\n      jump\t// in\n    tag_158:\n        /* \"contracts/Market.sol\":5369:5393  !app.isBlack(msg.sender) */\n      iszero\n        /* \"contracts/Market.sol\":5369:5408  !app.isBlack(msg.sender) && status == 0 */\n      dup1\n      iszero\n      tag_159\n      jumpi\n      pop\n        /* \"contracts/Market.sol\":5397:5403  status */\n      sload(0x03)\n        /* \"contracts/Market.sol\":5397:5408  status == 0 */\n      iszero\n        /* \"contracts/Market.sol\":5369:5408  !app.isBlack(msg.sender) && status == 0 */\n    tag_159:\n        /* \"contracts/Market.sol\":5361:5415  require(!app.isBlack(msg.sender) && status == 0, \"M8\") */\n      tag_160\n      jumpi\n      mload(0x40)\n      shl(0xe5, 0x461bcd)\n      dup2\n      mstore\n        /* \"#utility.yul\":7019:7021   */\n      0x20\n        /* \"contracts/Market.sol\":5361:5415  require(!app.isBlack(msg.sender) && status == 0, \"M8\") */\n      0x04\n      dup3\n      add\n        /* \"#utility.yul\":7001:7022   */\n      mstore\n        /* \"#utility.yul\":7058:7059   */\n      0x02\n        /* \"#utility.yul\":7038:7056   */\n      0x24\n      dup3\n      add\n        /* \"#utility.yul\":7031:7060   */\n      mstore\n      shl(0xf3, 0x09a7)\n        /* \"#utility.yul\":7076:7094   */\n      0x44\n      dup3\n      add\n        /* \"#utility.yul\":7069:7101   */\n      mstore\n        /* \"#utility.yul\":7118:7136   */\n      0x64\n      add\n        /* \"contracts/Market.sol\":5361:5415  require(!app.isBlack(msg.sender) && status == 0, \"M8\") */\n      tag_63\n        /* \"#utility.yul\":6991:7142   */\n      jump\n        /* \"contracts/Market.sol\":5361:5415  require(!app.isBlack(msg.sender) && status == 0, \"M8\") */\n    tag_160:\n        /* \"contracts/Market.sol\":5433:5438  _side */\n      dup3\n        /* \"contracts/Market.sol\":5442:5443  1 */\n      0x01\n        /* \"contracts/Market.sol\":5433:5443  _side == 1 */\n      eq\n        /* \"contracts/Market.sol\":5433:5457  _side == 1 || _side == 2 */\n      dup1\n      tag_163\n      jumpi\n      pop\n        /* \"contracts/Market.sol\":5447:5452  _side */\n      dup3\n        /* \"contracts/Market.sol\":5456:5457  2 */\n      0x02\n        /* \"contracts/Market.sol\":5447:5457  _side == 2 */\n      eq\n        /* \"contracts/Market.sol\":5433:5457  _side == 1 || _side == 2 */\n    tag_163:\n        /* \"contracts/Market.sol\":5425:5464  require(_side == 1 || _side == 2, \"M9\") */\n      tag_164\n      jumpi\n      mload(0x40)\n      shl(0xe5, 0x461bcd)\n      dup2\n      mstore\n        /* \"#utility.yul\":7679:7681   */\n      0x20\n        /* \"contracts/Market.sol\":5425:5464  require(_side == 1 || _side == 2, \"M9\") */\n      0x04\n      dup3\n      add\n        /* \"#utility.yul\":7661:7682   */\n      mstore\n        /* \"#utility.yul\":7718:7719   */\n      0x02\n        /* \"#utility.yul\":7698:7716   */\n      0x24\n      dup3\n      add\n        /* \"#utility.yul\":7691:7720   */\n      mstore\n      shl(0xf0, 0x4d39)\n        /* \"#utility.yul\":7736:7754   */\n      0x44\n      dup3\n      add\n        /* \"#utility.yul\":7729:7761   */\n      mstore\n        /* \"#utility.yul\":7778:7796   */\n      0x64\n      add\n        /* \"contracts/Market.sol\":5425:5464  require(_side == 1 || _side == 2, \"M9\") */\n      tag_63\n        /* \"#utility.yul\":7651:7802   */\n      jump\n        /* \"contracts/Market.sol\":5425:5464  require(_side == 1 || _side == 2, \"M9\") */\n    tag_164:\n        /* \"contracts/Market.sol\":5482:5524  token.allowance(msg.sender, address(this)) */\n      mload(0x40)\n      shl(0xe1, 0x6eb1769f)\n      dup2\n      mstore\n        /* \"contracts/Market.sol\":5498:5508  msg.sender */\n      caller\n        /* \"contracts/Market.sol\":5482:5524  token.allowance(msg.sender, address(this)) */\n      0x04\n      dup3\n      add\n        /* \"#utility.yul\":3540:3574   */\n      mstore\n        /* \"contracts/Market.sol\":5518:5522  this */\n      address\n        /* \"#utility.yul\":3590:3608   */\n      0x24\n      dup3\n      add\n        /* \"#utility.yul\":3583:3626   */\n      mstore\n        /* \"contracts/Market.sol\":5528:5534  _stake */\n      dup6\n      swap1\n        /* \"contracts/Market.sol\":5482:5487  token */\n      immutable(\"0xb35cf579f54ccafa8cda334bf8f538b0f7a8230c902d5a84be1ea7996ef7fb49\")\n      sub(shl(0xa0, 0x01), 0x01)\n        /* \"contracts/Market.sol\":5482:5497  token.allowance */\n      and\n      swap1\n      0xdd62ed3e\n      swap1\n        /* \"#utility.yul\":3475:3493   */\n      0x44\n      add\n        /* \"contracts/Market.sol\":5482:5524  token.allowance(msg.sender, address(this)) */\n      0x20\n      mload(0x40)\n      dup1\n      dup4\n      sub\n      dup2\n      dup7\n      dup1\n      extcodesize\n      iszero\n      dup1\n      iszero\n      tag_169\n      jumpi\n      0x00\n      dup1\n      revert\n    tag_169:\n      pop\n      gas\n      staticcall\n      iszero\n      dup1\n      iszero\n      tag_171\n      jumpi\n      returndatasize\n      0x00\n      dup1\n      returndatacopy\n      revert(0x00, returndatasize)\n    tag_171:\n      pop\n      pop\n      pop\n      pop\n      mload(0x40)\n      returndatasize\n      not(0x1f)\n      0x1f\n      dup3\n      add\n      and\n      dup3\n      add\n      dup1\n      0x40\n      mstore\n      pop\n      dup2\n      add\n      swap1\n      tag_172\n      swap2\n      swap1\n      tag_101\n      jump\t// in\n    tag_172:\n        /* \"contracts/Market.sol\":5482:5534  token.allowance(msg.sender, address(this)) >= _stake */\n      lt\n      iszero\n        /* \"contracts/Market.sol\":5482:5562  token.allowance(msg.sender, address(this)) >= _stake && _stake >= app.minStake() */\n      dup1\n      iszero\n      tag_173\n      jumpi\n      pop\n        /* \"contracts/Market.sol\":5548:5551  app */\n      immutable(\"0x911a39fbf665a24ad3b6efc185d4b936bbda1900793ae2f7c00f4d18bdd96685\")\n      sub(shl(0xa0, 0x01), 0x01)\n        /* \"contracts/Market.sol\":5548:5560  app.minStake */\n      and\n      0x375b3c0a\n        /* \"contracts/Market.sol\":5548:5562  app.minStake() */\n      mload(0x40)\n      dup2\n      0xffffffff\n      and\n      0xe0\n      shl\n      dup2\n      mstore\n      0x04\n      add\n      0x20\n      mload(0x40)\n      dup1\n      dup4\n      sub\n      dup2\n      dup7\n      dup1\n      extcodesize\n      iszero\n      dup1\n      iszero\n      tag_174\n      jumpi\n      0x00\n      dup1\n      revert\n    tag_174:\n      pop\n      gas\n      staticcall\n      iszero\n      dup1\n      iszero\n      tag_176\n      jumpi\n      returndatasize\n      0x00\n      dup1\n      returndatacopy\n      revert(0x00, returndatasize)\n    tag_176:\n      pop\n      pop\n      pop\n      pop\n      mload(0x40)\n      returndatasize\n      not(0x1f)\n      0x1f\n      dup3\n      add\n      and\n      dup3\n      add\n      dup1\n      0x40\n      mstore\n      pop\n      dup2\n      add\n      swap1\n      tag_177\n      swap2\n      swap1\n      tag_101\n      jump\t// in\n    tag_177:\n        /* \"contracts/Market.sol\":5538:5544  _stake */\n      dup6\n        /* \"contracts/Market.sol\":5538:5562  _stake >= app.minStake() */\n      lt\n      iszero\n        /* \"contracts/Market.sol\":5482:5562  token.allowance(msg.sender, address(this)) >= _stake && _stake >= app.minStake() */\n    tag_173:\n        /* \"contracts/Market.sol\":5474:5570  require(token.allowance(msg.sender, address(this)) >= _stake && _stake >= app.minStake(), \"M10\") */\n      tag_178\n      jumpi\n      mload(0x40)\n      shl(0xe5, 0x461bcd)\n      dup2\n      mstore\n        /* \"#utility.yul\":8009:8011   */\n      0x20\n        /* \"contracts/Market.sol\":5474:5570  require(token.allowance(msg.sender, address(this)) >= _stake && _stake >= app.minStake(), \"M10\") */\n      0x04\n      dup3\n      add\n        /* \"#utility.yul\":7991:8012   */\n      mstore\n        /* \"#utility.yul\":8048:8049   */\n      0x03\n        /* \"#utility.yul\":8028:8046   */\n      0x24\n      dup3\n      add\n        /* \"#utility.yul\":8021:8050   */\n      mstore\n      shl(0xec, 0x04d313)\n        /* \"#utility.yul\":8066:8084   */\n      0x44\n      dup3\n      add\n        /* \"#utility.yul\":8059:8092   */\n      mstore\n        /* \"#utility.yul\":8109:8127   */\n      0x64\n      add\n        /* \"contracts/Market.sol\":5474:5570  require(token.allowance(msg.sender, address(this)) >= _stake && _stake >= app.minStake(), \"M10\") */\n      tag_63\n        /* \"#utility.yul\":7981:8133   */\n      jump\n        /* \"contracts/Market.sol\":5474:5570  require(token.allowance(msg.sender, address(this)) >= _stake && _stake >= app.minStake(), \"M10\") */\n    tag_178:\n        /* \"contracts/Market.sol\":5588:5641  token.transferFrom(msg.sender, address(this), _stake) */\n      mload(0x40)\n      shl(0xe0, 0x23b872dd)\n      dup2\n      mstore\n        /* \"contracts/Market.sol\":5607:5617  msg.sender */\n      caller\n        /* \"contracts/Market.sol\":5588:5641  token.transferFrom(msg.sender, address(this), _stake) */\n      0x04\n      dup3\n      add\n        /* \"#utility.yul\":4473:4507   */\n      mstore\n        /* \"contracts/Market.sol\":5627:5631  this */\n      address\n        /* \"#utility.yul\":4523:4541   */\n      0x24\n      dup3\n      add\n        /* \"#utility.yul\":4516:4559   */\n      mstore\n        /* \"#utility.yul\":4575:4593   */\n      0x44\n      dup2\n      add\n        /* \"#utility.yul\":4568:4602   */\n      dup7\n      swap1\n      mstore\n        /* \"contracts/Market.sol\":5588:5593  token */\n      immutable(\"0xb35cf579f54ccafa8cda334bf8f538b0f7a8230c902d5a84be1ea7996ef7fb49\")\n      sub(shl(0xa0, 0x01), 0x01)\n        /* \"contracts/Market.sol\":5588:5606  token.transferFrom */\n      and\n      swap1\n      0x23b872dd\n      swap1\n        /* \"#utility.yul\":4408:4426   */\n      0x64\n      add\n        /* \"contracts/Market.sol\":5588:5641  token.transferFrom(msg.sender, address(this), _stake) */\n      0x20\n      mload(0x40)\n      dup1\n      dup4\n      sub\n      dup2\n      0x00\n      dup8\n      dup1\n      extcodesize\n      iszero\n      dup1\n      iszero\n      tag_183\n      jumpi\n      0x00\n      dup1\n      revert\n    tag_183:\n      pop\n      gas\n      call\n      iszero\n      dup1\n      iszero\n      tag_185\n      jumpi\n      returndatasize\n      0x00\n      dup1\n      returndatacopy\n      revert(0x00, returndatasize)\n    tag_185:\n      pop\n      pop\n      pop\n      pop\n      mload(0x40)\n      returndatasize\n      not(0x1f)\n      0x1f\n      dup3\n      add\n      and\n      dup3\n      add\n      dup1\n      0x40\n      mstore\n      pop\n      dup2\n      add\n      swap1\n      tag_186\n      swap2\n      swap1\n      tag_113\n      jump\t// in\n    tag_186:\n        /* \"contracts/Market.sol\":5580:5649  require(token.transferFrom(msg.sender, address(this), _stake), \"M11\") */\n      tag_187\n      jumpi\n      mload(0x40)\n      shl(0xe5, 0x461bcd)\n      dup2\n      mstore\n        /* \"#utility.yul\":9690:9692   */\n      0x20\n        /* \"contracts/Market.sol\":5580:5649  require(token.transferFrom(msg.sender, address(this), _stake), \"M11\") */\n      0x04\n      dup3\n      add\n        /* \"#utility.yul\":9672:9693   */\n      mstore\n        /* \"#utility.yul\":9729:9730   */\n      0x03\n        /* \"#utility.yul\":9709:9727   */\n      0x24\n      dup3\n      add\n        /* \"#utility.yul\":9702:9731   */\n      mstore\n      shl(0xe8, 0x4d3131)\n        /* \"#utility.yul\":9747:9765   */\n      0x44\n      dup3\n      add\n        /* \"#utility.yul\":9740:9773   */\n      mstore\n        /* \"#utility.yul\":9790:9808   */\n      0x64\n      add\n        /* \"contracts/Market.sol\":5580:5649  require(token.transferFrom(msg.sender, address(this), _stake), \"M11\") */\n      tag_63\n        /* \"#utility.yul\":9662:9814   */\n      jump\n        /* \"contracts/Market.sol\":5580:5649  require(token.transferFrom(msg.sender, address(this), _stake), \"M11\") */\n    tag_187:\n        /* \"contracts/Market.sol\":5659:5674  bytes32 betHash */\n      0x00\n        /* \"contracts/Market.sol\":5677:5757  _createBet(_better, _affiliate, _stake, 0, (_odds * 100) / (_odds - 100), _side) */\n      tag_190\n        /* \"contracts/Market.sol\":5688:5695  _better */\n      dup9\n        /* \"contracts/Market.sol\":5697:5707  _affiliate */\n      dup9\n        /* \"contracts/Market.sol\":5709:5715  _stake */\n      dup9\n        /* \"contracts/Market.sol\":5659:5674  bytes32 betHash */\n      dup5\n        /* \"contracts/Market.sol\":5737:5748  _odds - 100 */\n      tag_191\n        /* \"contracts/Market.sol\":5745:5748  100 */\n      0x64\n        /* \"contracts/Market.sol\":5737:5742  _odds */\n      dup12\n        /* \"contracts/Market.sol\":5737:5748  _odds - 100 */\n      tag_66\n      jump\t// in\n    tag_191:\n        /* \"contracts/Market.sol\":5721:5732  _odds * 100 */\n      tag_192\n        /* \"contracts/Market.sol\":5721:5726  _odds */\n      dup12\n        /* \"contracts/Market.sol\":5729:5732  100 */\n      0x64\n        /* \"contracts/Market.sol\":5721:5732  _odds * 100 */\n      tag_193\n      jump\t// in\n    tag_192:\n        /* \"contracts/Market.sol\":5720:5749  (_odds * 100) / (_odds - 100) */\n      tag_194\n      swap2\n      swap1\n      tag_195\n      jump\t// in\n    tag_194:\n        /* \"contracts/Market.sol\":5751:5756  _side */\n      dup10\n        /* \"contracts/Market.sol\":5677:5687  _createBet */\n      tag_196\n        /* \"contracts/Market.sol\":5677:5757  _createBet(_better, _affiliate, _stake, 0, (_odds * 100) / (_odds - 100), _side) */\n      jump\t// in\n    tag_190:\n        /* \"contracts/Market.sol\":5989:6000  pendingBets */\n      0x06\n        /* \"contracts/Market.sol\":5989:6007  pendingBets.length */\n      sload\n        /* \"contracts/Market.sol\":5659:5757  bytes32 betHash = _createBet(_better, _affiliate, _stake, 0, (_odds * 100) / (_odds - 100), _side) */\n      swap1\n      swap2\n      pop\n        /* \"contracts/Market.sol\":5989:6011  pendingBets.length > 0 */\n      iszero\n        /* \"contracts/Market.sol\":5986:9222  if(pendingBets.length > 0){... */\n      tag_197\n      jumpi\n        /* \"contracts/Market.sol\":6043:6049  _stake */\n      dup6\n        /* \"contracts/Market.sol\":6063:9148  while(_remStake >= app.minStake()){... */\n    tag_198:\n        /* \"contracts/Market.sol\":6082:6085  app */\n      immutable(\"0x911a39fbf665a24ad3b6efc185d4b936bbda1900793ae2f7c00f4d18bdd96685\")\n      sub(shl(0xa0, 0x01), 0x01)\n        /* \"contracts/Market.sol\":6082:6094  app.minStake */\n      and\n      0x375b3c0a\n        /* \"contracts/Market.sol\":6082:6096  app.minStake() */\n      mload(0x40)\n      dup2\n      0xffffffff\n      and\n      0xe0\n      shl\n      dup2\n      mstore\n      0x04\n      add\n      0x20\n      mload(0x40)\n      dup1\n      dup4\n      sub\n      dup2\n      dup7\n      dup1\n      extcodesize\n      iszero\n      dup1\n      iszero\n      tag_200\n      jumpi\n      0x00\n      dup1\n      revert\n    tag_200:\n      pop\n      gas\n      staticcall\n      iszero\n      dup1\n      iszero\n      tag_202\n      jumpi\n      returndatasize\n      0x00\n      dup1\n      returndatacopy\n      revert(0x00, returndatasize)\n    tag_202:\n      pop\n      pop\n      pop\n      pop\n      mload(0x40)\n      returndatasize\n      not(0x1f)\n      0x1f\n      dup3\n      add\n      and\n      dup3\n      add\n      dup1\n      0x40\n      mstore\n      pop\n      dup2\n      add\n      swap1\n      tag_203\n      swap2\n      swap1\n      tag_101\n      jump\t// in\n    tag_203:\n        /* \"contracts/Market.sol\":6069:6078  _remStake */\n      dup2\n        /* \"contracts/Market.sol\":6069:6096  _remStake >= app.minStake() */\n      lt\n        /* \"contracts/Market.sol\":6063:9148  while(_remStake >= app.minStake()){... */\n      tag_199\n      jumpi\n        /* \"contracts/Market.sol\":6115:6133  uint selectedIndex */\n      0x00\n        /* \"contracts/Market.sol\":6155:6170  uint256 maxOdds */\n      dup1\n        /* \"contracts/Market.sol\":6196:6202  uint i */\n      0x00\n        /* \"contracts/Market.sol\":6192:6589  for(uint i = 0; i < pendingBets.length; i++){... */\n    tag_204:\n        /* \"contracts/Market.sol\":6212:6223  pendingBets */\n      0x06\n        /* \"contracts/Market.sol\":6212:6230  pendingBets.length */\n      sload\n        /* \"contracts/Market.sol\":6208:6230  i < pendingBets.length */\n      dup2\n      lt\n        /* \"contracts/Market.sol\":6192:6589  for(uint i = 0; i < pendingBets.length; i++){... */\n      iszero\n      tag_205\n      jumpi\n        /* \"contracts/Market.sol\":6258:6270  bytes32 pBet */\n      0x00\n        /* \"contracts/Market.sol\":6273:6284  pendingBets */\n      0x06\n        /* \"contracts/Market.sol\":6285:6286  i */\n      dup3\n        /* \"contracts/Market.sol\":6273:6287  pendingBets[i] */\n      dup2\n      sload\n      dup2\n      lt\n      tag_207\n      jumpi\n      mstore(0x00, shl(0xe0, 0x4e487b71))\n      mstore(0x04, 0x32)\n      revert(0x00, 0x24)\n    tag_207:\n      swap1\n      0x00\n      mstore\n      keccak256(0x00, 0x20)\n      add\n      sload\n        /* \"contracts/Market.sol\":6258:6287  bytes32 pBet = pendingBets[i] */\n      swap1\n      pop\n        /* \"contracts/Market.sol\":6321:6329  betsInfo */\n      0x08\n        /* \"contracts/Market.sol\":6321:6335  betsInfo[pBet] */\n      0x00\n        /* \"contracts/Market.sol\":6330:6334  pBet */\n      dup3\n        /* \"contracts/Market.sol\":6321:6335  betsInfo[pBet] */\n      dup2\n      mstore\n      0x20\n      add\n      swap1\n      dup2\n      mstore\n      0x20\n      add\n      0x00\n      keccak256\n        /* \"contracts/Market.sol\":6321:6340  betsInfo[pBet].side */\n      0x05\n      add\n      sload\n        /* \"contracts/Market.sol\":6312:6317  _side */\n      dup10\n        /* \"contracts/Market.sol\":6312:6340  _side == betsInfo[pBet].side */\n      eq\n        /* \"contracts/Market.sol\":6309:6398  if(_side == betsInfo[pBet].side){... */\n      iszero\n      tag_209\n      jumpi\n        /* \"contracts/Market.sol\":6367:6375  continue */\n      pop\n      jump(tag_206)\n        /* \"contracts/Market.sol\":6309:6398  if(_side == betsInfo[pBet].side){... */\n    tag_209:\n        /* \"contracts/Market.sol\":6422:6436  betsInfo[pBet] */\n      0x00\n      dup2\n      dup2\n      mstore\n        /* \"contracts/Market.sol\":6422:6430  betsInfo */\n      0x08\n        /* \"contracts/Market.sol\":6422:6436  betsInfo[pBet] */\n      0x20\n      mstore\n      0x40\n      swap1\n      keccak256\n        /* \"contracts/Market.sol\":6422:6441  betsInfo[pBet].odds */\n      0x04\n      add\n      sload\n        /* \"contracts/Market.sol\":6422:6449  betsInfo[pBet].odds>maxOdds */\n      dup4\n      lt\n        /* \"contracts/Market.sol\":6419:6571  if(betsInfo[pBet].odds>maxOdds){... */\n      iszero\n      tag_210\n      jumpi\n        /* \"contracts/Market.sol\":6486:6500  betsInfo[pBet] */\n      0x00\n      dup2\n      dup2\n      mstore\n        /* \"contracts/Market.sol\":6486:6494  betsInfo */\n      0x08\n        /* \"contracts/Market.sol\":6486:6500  betsInfo[pBet] */\n      0x20\n      mstore\n      0x40\n      swap1\n      keccak256\n        /* \"contracts/Market.sol\":6486:6505  betsInfo[pBet].odds */\n      0x04\n      add\n      sload\n        /* \"contracts/Market.sol\":6547:6548  i */\n      swap2\n      swap4\n      pop\n        /* \"contracts/Market.sol\":6486:6505  betsInfo[pBet].odds */\n      swap1\n      swap2\n      pop\n        /* \"contracts/Market.sol\":6547:6548  i */\n      dup3\n      swap1\n        /* \"contracts/Market.sol\":6419:6571  if(betsInfo[pBet].odds>maxOdds){... */\n    tag_210:\n        /* \"contracts/Market.sol\":6192:6589  for(uint i = 0; i < pendingBets.length; i++){... */\n      pop\n    tag_206:\n        /* \"contracts/Market.sol\":6232:6235  i++ */\n      dup1\n      tag_211\n      dup2\n      tag_78\n      jump\t// in\n    tag_211:\n      swap2\n      pop\n      pop\n        /* \"contracts/Market.sol\":6192:6589  for(uint i = 0; i < pendingBets.length; i++){... */\n      jump(tag_204)\n    tag_205:\n      pop\n        /* \"contracts/Market.sol\":6619:6624  _odds */\n      dup8\n        /* \"contracts/Market.sol\":6609:6616  maxOdds */\n      dup2\n        /* \"contracts/Market.sol\":6609:6624  maxOdds > _odds */\n      gt\n        /* \"contracts/Market.sol\":6609:6653  maxOdds > _odds || (maxOdds > 0 && _instant) */\n      dup1\n      tag_213\n      jumpi\n      pop\n        /* \"contracts/Market.sol\":6639:6640  0 */\n      0x00\n        /* \"contracts/Market.sol\":6629:6636  maxOdds */\n      dup2\n        /* \"contracts/Market.sol\":6629:6640  maxOdds > 0 */\n      gt\n        /* \"contracts/Market.sol\":6629:6652  maxOdds > 0 && _instant */\n      dup1\n      iszero\n      tag_213\n      jumpi\n      pop\n        /* \"contracts/Market.sol\":6644:6652  _instant */\n      dup6\n        /* \"contracts/Market.sol\":6629:6652  maxOdds > 0 && _instant */\n    tag_213:\n        /* \"contracts/Market.sol\":6606:9134  if(maxOdds > _odds || (maxOdds > 0 && _instant)) {... */\n      iszero\n      tag_214\n      jumpi\n        /* \"contracts/Market.sol\":6677:6697  bytes32 selectedHash */\n      0x00\n        /* \"contracts/Market.sol\":6700:6711  pendingBets */\n      0x06\n        /* \"contracts/Market.sol\":6712:6725  selectedIndex */\n      dup4\n        /* \"contracts/Market.sol\":6700:6726  pendingBets[selectedIndex] */\n      dup2\n      sload\n      dup2\n      lt\n      tag_215\n      jumpi\n      mstore(0x00, shl(0xe0, 0x4e487b71))\n      mstore(0x04, 0x32)\n      revert(0x00, 0x24)\n    tag_215:\n      0x00\n      swap2\n      dup3\n      mstore\n      0x20\n      dup1\n      dup4\n      keccak256\n      swap1\n      swap2\n      add\n      sload\n        /* \"contracts/Market.sol\":6779:6801  betsInfo[selectedHash] */\n      dup1\n      dup4\n      mstore\n        /* \"contracts/Market.sol\":6779:6787  betsInfo */\n      0x08\n        /* \"contracts/Market.sol\":6779:6801  betsInfo[selectedHash] */\n      dup3\n      mstore\n      0x40\n      dup1\n      dup5\n      keccak256\n        /* \"contracts/Market.sol\":6748:6801  MarketBet memory selectedBet = betsInfo[selectedHash] */\n      dup2\n      mload\n      0xc0\n      dup2\n      add\n      dup4\n      mstore\n      dup2\n      sload\n      sub(shl(0xa0, 0x01), 0x01)\n      swap1\n      dup2\n      and\n      dup3\n      mstore\n      0x01\n      dup4\n      add\n      sload\n      and\n      swap5\n      dup2\n      add\n      swap5\n      swap1\n      swap5\n      mstore\n      0x02\n      dup2\n      add\n      sload\n      swap2\n      dup5\n      add\n      swap2\n      swap1\n      swap2\n      mstore\n      0x03\n      dup2\n      add\n      sload\n      0x60\n      dup5\n      add\n      mstore\n      0x04\n      dup2\n      add\n      sload\n      0x80\n      dup5\n      add\n      mstore\n      0x05\n      add\n      sload\n      0xa0\n      dup4\n      add\n      mstore\n        /* \"contracts/Market.sol\":6700:6726  pendingBets[selectedIndex] */\n      swap3\n      pop\n        /* \"contracts/Market.sol\":6748:6801  MarketBet memory selectedBet = betsInfo[selectedHash] */\n      swap1\n        /* \"contracts/Market.sol\":6888:6899  _odds - 100 */\n      tag_217\n        /* \"contracts/Market.sol\":6896:6899  100 */\n      0x64\n        /* \"contracts/Market.sol\":6888:6893  _odds */\n      dup13\n        /* \"contracts/Market.sol\":6888:6899  _odds - 100 */\n      tag_66\n      jump\t// in\n    tag_217:\n        /* \"contracts/Market.sol\":6864:6875  selectedBet */\n      dup3\n        /* \"contracts/Market.sol\":6864:6883  selectedBet.matched */\n      0x60\n      add\n      mload\n        /* \"contracts/Market.sol\":6844:6855  selectedBet */\n      dup4\n        /* \"contracts/Market.sol\":6844:6861  selectedBet.stake */\n      0x40\n      add\n      mload\n        /* \"contracts/Market.sol\":6844:6883  selectedBet.stake - selectedBet.matched */\n      tag_218\n      swap2\n      swap1\n      tag_66\n      jump\t// in\n    tag_218:\n        /* \"contracts/Market.sol\":6843:6900  (selectedBet.stake - selectedBet.matched) / (_odds - 100) */\n      tag_219\n      swap2\n      swap1\n      tag_195\n      jump\t// in\n    tag_219:\n        /* \"contracts/Market.sol\":6823:6900  uint offeredStake = (selectedBet.stake - selectedBet.matched) / (_odds - 100) */\n      swap1\n      pop\n        /* \"contracts/Market.sol\":6922:6941  offeredStake *= 100 */\n      tag_220\n        /* \"contracts/Market.sol\":6938:6941  100 */\n      0x64\n        /* \"contracts/Market.sol\":6823:6900  uint offeredStake = (selectedBet.stake - selectedBet.matched) / (_odds - 100) */\n      dup3\n        /* \"contracts/Market.sol\":6922:6941  offeredStake *= 100 */\n      tag_193\n      jump\t// in\n    tag_220:\n      swap1\n      pop\n        /* \"contracts/Market.sol\":6963:6980  uint betterAmount */\n      0x00\n        /* \"contracts/Market.sol\":7002:7018  uint makerAmount */\n      dup1\n        /* \"contracts/Market.sol\":7040:7056  bytes32 pairHash */\n      0x00\n        /* \"contracts/Market.sol\":7097:7103  _stake */\n      dup15\n        /* \"contracts/Market.sol\":7081:7093  offeredStake */\n      dup5\n        /* \"contracts/Market.sol\":7081:7103  offeredStake <= _stake */\n      gt\n        /* \"contracts/Market.sol\":7078:8537  if(offeredStake <= _stake) {... */\n      tag_221\n      jumpi\n        /* \"contracts/Market.sol\":7146:7158  offeredStake */\n      dup4\n      swap3\n      pop\n        /* \"contracts/Market.sol\":7214:7225  _odds - 100 */\n      tag_222\n        /* \"contracts/Market.sol\":7222:7225  100 */\n      0x64\n        /* \"contracts/Market.sol\":7214:7219  _odds */\n      dup16\n        /* \"contracts/Market.sol\":7214:7225  _odds - 100 */\n      tag_66\n      jump\t// in\n    tag_222:\n        /* \"contracts/Market.sol\":7198:7226  offeredStake * (_odds - 100) */\n      tag_223\n      swap1\n        /* \"contracts/Market.sol\":7198:7210  offeredStake */\n      dup6\n        /* \"contracts/Market.sol\":7198:7226  offeredStake * (_odds - 100) */\n      tag_193\n      jump\t// in\n    tag_223:\n        /* \"contracts/Market.sol\":7184:7226  makerAmount = offeredStake * (_odds - 100) */\n      swap2\n      pop\n        /* \"contracts/Market.sol\":7252:7270  makerAmount /= 100 */\n      tag_224\n        /* \"contracts/Market.sol\":7267:7270  100 */\n      0x64\n        /* \"contracts/Market.sol\":7184:7226  makerAmount = offeredStake * (_odds - 100) */\n      dup4\n        /* \"contracts/Market.sol\":7252:7270  makerAmount /= 100 */\n      tag_195\n      jump\t// in\n    tag_224:\n      swap2\n      pop\n        /* \"contracts/Market.sol\":7299:7304  _side */\n      dup13\n        /* \"contracts/Market.sol\":7308:7309  1 */\n      0x01\n        /* \"contracts/Market.sol\":7299:7309  _side == 1 */\n      eq\n        /* \"contracts/Market.sol\":7296:7792  if(_side == 1){... */\n      iszero\n      tag_225\n      jumpi\n        /* \"contracts/Market.sol\":7351:7409  _createPair(betHash,selectedHash,betterAmount,makerAmount) */\n      tag_226\n        /* \"contracts/Market.sol\":7363:7370  betHash */\n      dup11\n        /* \"contracts/Market.sol\":7371:7383  selectedHash */\n      dup8\n        /* \"contracts/Market.sol\":7384:7396  betterAmount */\n      dup6\n        /* \"contracts/Market.sol\":7397:7408  makerAmount */\n      dup6\n        /* \"contracts/Market.sol\":7351:7362  _createPair */\n      tag_227\n        /* \"contracts/Market.sol\":7351:7409  _createPair(betHash,selectedHash,betterAmount,makerAmount) */\n      jump\t// in\n    tag_226:\n        /* \"contracts/Market.sol\":7444:7502  PairCreated(betHash,selectedHash,betterAmount,makerAmount) */\n      0x40\n      dup1\n      mload\n        /* \"#utility.yul\":6652:6677   */\n      dup13\n      dup2\n      mstore\n        /* \"#utility.yul\":6708:6710   */\n      0x20\n        /* \"#utility.yul\":6693:6711   */\n      dup2\n      add\n        /* \"#utility.yul\":6686:6720   */\n      dup10\n      swap1\n      mstore\n        /* \"#utility.yul\":6736:6754   */\n      swap1\n      dup2\n      add\n        /* \"#utility.yul\":6729:6763   */\n      dup6\n      swap1\n      mstore\n        /* \"#utility.yul\":6794:6796   */\n      0x60\n        /* \"#utility.yul\":6779:6797   */\n      dup2\n      add\n        /* \"#utility.yul\":6772:6806   */\n      dup5\n      swap1\n      mstore\n        /* \"contracts/Market.sol\":7340:7409  pairHash = _createPair(betHash,selectedHash,betterAmount,makerAmount) */\n      swap1\n      swap2\n      pop\n        /* \"contracts/Market.sol\":7444:7502  PairCreated(betHash,selectedHash,betterAmount,makerAmount) */\n      0x5de48bb383b4a2aaad84721b80d93429b813651b0eefbd59d32018cfe28215dc\n      swap1\n        /* \"#utility.yul\":6639:6642   */\n      0x80\n        /* \"#utility.yul\":6624:6643   */\n      add\n        /* \"contracts/Market.sol\":7444:7502  PairCreated(betHash,selectedHash,betterAmount,makerAmount) */\n    tag_228:\n      mload(0x40)\n      dup1\n      swap2\n      sub\n      swap1\n      log1\n        /* \"contracts/Market.sol\":7078:8537  if(offeredStake <= _stake) {... */\n      jump(tag_242)\n        /* \"contracts/Market.sol\":7296:7792  if(_side == 1){... */\n    tag_225:\n        /* \"contracts/Market.sol\":7562:7567  _side */\n      dup13\n        /* \"contracts/Market.sol\":7571:7572  2 */\n      0x02\n        /* \"contracts/Market.sol\":7562:7572  _side == 2 */\n      eq\n        /* \"contracts/Market.sol\":7559:7792  if(_side == 2){... */\n      iszero\n      tag_231\n      jumpi\n        /* \"contracts/Market.sol\":7614:7672  _createPair(selectedHash,betHash,makerAmount,betterAmount) */\n      tag_232\n        /* \"contracts/Market.sol\":7626:7638  selectedHash */\n      dup7\n        /* \"contracts/Market.sol\":7639:7646  betHash */\n      dup12\n        /* \"contracts/Market.sol\":7647:7658  makerAmount */\n      dup5\n        /* \"contracts/Market.sol\":7659:7671  betterAmount */\n      dup7\n        /* \"contracts/Market.sol\":7614:7625  _createPair */\n      tag_227\n        /* \"contracts/Market.sol\":7614:7672  _createPair(selectedHash,betHash,makerAmount,betterAmount) */\n      jump\t// in\n    tag_232:\n        /* \"contracts/Market.sol\":7707:7765  PairCreated(selectedHash,betHash,makerAmount,betterAmount) */\n      0x40\n      dup1\n      mload\n        /* \"#utility.yul\":6652:6677   */\n      dup9\n      dup2\n      mstore\n        /* \"#utility.yul\":6708:6710   */\n      0x20\n        /* \"#utility.yul\":6693:6711   */\n      dup2\n      add\n        /* \"#utility.yul\":6686:6720   */\n      dup14\n      swap1\n      mstore\n        /* \"#utility.yul\":6736:6754   */\n      swap1\n      dup2\n      add\n        /* \"#utility.yul\":6729:6763   */\n      dup5\n      swap1\n      mstore\n        /* \"#utility.yul\":6794:6796   */\n      0x60\n        /* \"#utility.yul\":6779:6797   */\n      dup2\n      add\n        /* \"#utility.yul\":6772:6806   */\n      dup6\n      swap1\n      mstore\n        /* \"contracts/Market.sol\":7603:7672  pairHash = _createPair(selectedHash,betHash,makerAmount,betterAmount) */\n      swap1\n      swap2\n      pop\n        /* \"contracts/Market.sol\":7707:7765  PairCreated(selectedHash,betHash,makerAmount,betterAmount) */\n      0x5de48bb383b4a2aaad84721b80d93429b813651b0eefbd59d32018cfe28215dc\n      swap1\n        /* \"#utility.yul\":6639:6642   */\n      0x80\n        /* \"#utility.yul\":6624:6643   */\n      add\n        /* \"contracts/Market.sol\":7707:7765  PairCreated(selectedHash,betHash,makerAmount,betterAmount) */\n      tag_228\n        /* \"#utility.yul\":6606:6812   */\n      jump\n        /* \"contracts/Market.sol\":7559:7792  if(_side == 2){... */\n    tag_231:\n        /* \"contracts/Market.sol\":7078:8537  if(offeredStake <= _stake) {... */\n      jump(tag_242)\n    tag_221:\n        /* \"contracts/Market.sol\":7881:7887  _stake */\n      dup15\n      swap3\n      pop\n        /* \"contracts/Market.sol\":7937:7948  _odds - 100 */\n      tag_235\n        /* \"contracts/Market.sol\":7945:7948  100 */\n      0x64\n        /* \"contracts/Market.sol\":7937:7942  _odds */\n      dup16\n        /* \"contracts/Market.sol\":7937:7948  _odds - 100 */\n      tag_66\n      jump\t// in\n    tag_235:\n        /* \"contracts/Market.sol\":7927:7933  _stake */\n      dup16\n        /* \"contracts/Market.sol\":7927:7949  _stake * (_odds - 100) */\n      tag_236\n      swap2\n      swap1\n      tag_193\n      jump\t// in\n    tag_236:\n        /* \"contracts/Market.sol\":7913:7949  makerAmount = _stake * (_odds - 100) */\n      swap2\n      pop\n        /* \"contracts/Market.sol\":7975:7993  makerAmount /= 100 */\n      tag_237\n        /* \"contracts/Market.sol\":7990:7993  100 */\n      0x64\n        /* \"contracts/Market.sol\":7913:7949  makerAmount = _stake * (_odds - 100) */\n      dup4\n        /* \"contracts/Market.sol\":7975:7993  makerAmount /= 100 */\n      tag_195\n      jump\t// in\n    tag_237:\n      swap2\n      pop\n        /* \"contracts/Market.sol\":8022:8027  _side */\n      dup13\n        /* \"contracts/Market.sol\":8031:8032  1 */\n      0x01\n        /* \"contracts/Market.sol\":8022:8032  _side == 1 */\n      eq\n        /* \"contracts/Market.sol\":8019:8515  if(_side == 1){... */\n      iszero\n      tag_238\n      jumpi\n        /* \"contracts/Market.sol\":8074:8132  _createPair(betHash,selectedHash,betterAmount,makerAmount) */\n      tag_226\n        /* \"contracts/Market.sol\":8086:8093  betHash */\n      dup11\n        /* \"contracts/Market.sol\":8094:8106  selectedHash */\n      dup8\n        /* \"contracts/Market.sol\":8107:8119  betterAmount */\n      dup6\n        /* \"contracts/Market.sol\":8120:8131  makerAmount */\n      dup6\n        /* \"contracts/Market.sol\":8074:8085  _createPair */\n      tag_227\n        /* \"contracts/Market.sol\":8074:8132  _createPair(betHash,selectedHash,betterAmount,makerAmount) */\n      jump\t// in\n        /* \"contracts/Market.sol\":8019:8515  if(_side == 1){... */\n    tag_238:\n        /* \"contracts/Market.sol\":8285:8290  _side */\n      dup13\n        /* \"contracts/Market.sol\":8294:8295  2 */\n      0x02\n        /* \"contracts/Market.sol\":8285:8295  _side == 2 */\n      eq\n        /* \"contracts/Market.sol\":8282:8515  if(_side == 2){... */\n      iszero\n      tag_242\n      jumpi\n        /* \"contracts/Market.sol\":8337:8395  _createPair(selectedHash,betHash,makerAmount,betterAmount) */\n      tag_243\n        /* \"contracts/Market.sol\":8349:8361  selectedHash */\n      dup7\n        /* \"contracts/Market.sol\":8362:8369  betHash */\n      dup12\n        /* \"contracts/Market.sol\":8370:8381  makerAmount */\n      dup5\n        /* \"contracts/Market.sol\":8382:8394  betterAmount */\n      dup7\n        /* \"contracts/Market.sol\":8337:8348  _createPair */\n      tag_227\n        /* \"contracts/Market.sol\":8337:8395  _createPair(selectedHash,betHash,makerAmount,betterAmount) */\n      jump\t// in\n    tag_243:\n        /* \"contracts/Market.sol\":8430:8488  PairCreated(selectedHash,betHash,makerAmount,betterAmount) */\n      0x40\n      dup1\n      mload\n        /* \"#utility.yul\":6652:6677   */\n      dup9\n      dup2\n      mstore\n        /* \"#utility.yul\":6708:6710   */\n      0x20\n        /* \"#utility.yul\":6693:6711   */\n      dup2\n      add\n        /* \"#utility.yul\":6686:6720   */\n      dup14\n      swap1\n      mstore\n        /* \"#utility.yul\":6736:6754   */\n      swap1\n      dup2\n      add\n        /* \"#utility.yul\":6729:6763   */\n      dup5\n      swap1\n      mstore\n        /* \"#utility.yul\":6794:6796   */\n      0x60\n        /* \"#utility.yul\":6779:6797   */\n      dup2\n      add\n        /* \"#utility.yul\":6772:6806   */\n      dup6\n      swap1\n      mstore\n        /* \"contracts/Market.sol\":8326:8395  pairHash = _createPair(selectedHash,betHash,makerAmount,betterAmount) */\n      swap1\n      swap2\n      pop\n        /* \"contracts/Market.sol\":8430:8488  PairCreated(selectedHash,betHash,makerAmount,betterAmount) */\n      0x5de48bb383b4a2aaad84721b80d93429b813651b0eefbd59d32018cfe28215dc\n      swap1\n        /* \"#utility.yul\":6639:6642   */\n      0x80\n        /* \"#utility.yul\":6624:6643   */\n      add\n        /* \"contracts/Market.sol\":8430:8488  PairCreated(selectedHash,betHash,makerAmount,betterAmount) */\n      mload(0x40)\n      dup1\n      swap2\n      sub\n      swap1\n      log1\n        /* \"contracts/Market.sol\":8282:8515  if(_side == 2){... */\n    tag_242:\n        /* \"contracts/Market.sol\":8558:8575  betPairs[betHash] */\n      0x00\n      dup11\n      dup2\n      mstore\n        /* \"contracts/Market.sol\":8558:8566  betPairs */\n      0x0b\n        /* \"contracts/Market.sol\":8558:8575  betPairs[betHash] */\n      0x20\n      swap1\n      dup2\n      mstore\n      0x40\n      dup1\n      dup4\n      keccak256\n        /* \"contracts/Market.sol\":8558:8590  betPairs[betHash].push(pairHash) */\n      dup1\n      sload\n      0x01\n      dup2\n      dup2\n      add\n      dup4\n      sstore\n      swap2\n      dup6\n      mstore\n      dup4\n      dup6\n      keccak256\n      add\n      dup6\n      swap1\n      sstore\n        /* \"contracts/Market.sol\":8612:8634  betPairs[selectedHash] */\n      dup10\n      dup5\n      mstore\n      dup2\n      dup5\n      keccak256\n        /* \"contracts/Market.sol\":8612:8649  betPairs[selectedHash].push(pairHash) */\n      dup1\n      sload\n      swap2\n      dup3\n      add\n      dup2\n      sstore\n      dup5\n      mstore\n      dup3\n      dup5\n      keccak256\n      add\n      dup5\n      swap1\n      sstore\n        /* \"contracts/Market.sol\":8671:8688  betsInfo[betHash] */\n      dup13\n      dup4\n      mstore\n        /* \"contracts/Market.sol\":8671:8679  betsInfo */\n      0x08\n        /* \"contracts/Market.sol\":8671:8688  betsInfo[betHash] */\n      swap1\n      swap2\n      mstore\n      dup2\n      keccak256\n        /* \"contracts/Market.sol\":8671:8696  betsInfo[betHash].matched */\n      0x03\n      add\n        /* \"contracts/Market.sol\":8671:8712  betsInfo[betHash].matched += betterAmount */\n      dup1\n      sload\n        /* \"contracts/Market.sol\":8700:8712  betterAmount */\n      dup6\n      swap3\n        /* \"contracts/Market.sol\":8558:8575  betPairs[betHash] */\n      swap1\n        /* \"contracts/Market.sol\":8671:8712  betsInfo[betHash].matched += betterAmount */\n      tag_247\n      swap1\n        /* \"contracts/Market.sol\":8700:8712  betterAmount */\n      dup5\n      swap1\n        /* \"contracts/Market.sol\":8671:8712  betsInfo[betHash].matched += betterAmount */\n      tag_68\n      jump\t// in\n    tag_247:\n      swap1\n      swap2\n      sstore\n      pop\n      pop\n        /* \"contracts/Market.sol\":8734:8756  betsInfo[selectedHash] */\n      0x00\n      dup7\n      dup2\n      mstore\n        /* \"contracts/Market.sol\":8734:8742  betsInfo */\n      0x08\n        /* \"contracts/Market.sol\":8734:8756  betsInfo[selectedHash] */\n      0x20\n      mstore\n      0x40\n      dup2\n      keccak256\n        /* \"contracts/Market.sol\":8734:8764  betsInfo[selectedHash].matched */\n      0x03\n      add\n        /* \"contracts/Market.sol\":8734:8779  betsInfo[selectedHash].matched += makerAmount */\n      dup1\n      sload\n        /* \"contracts/Market.sol\":8768:8779  makerAmount */\n      dup5\n      swap3\n        /* \"contracts/Market.sol\":8734:8756  betsInfo[selectedHash] */\n      swap1\n        /* \"contracts/Market.sol\":8734:8779  betsInfo[selectedHash].matched += makerAmount */\n      tag_248\n      swap1\n        /* \"contracts/Market.sol\":8768:8779  makerAmount */\n      dup5\n      swap1\n        /* \"contracts/Market.sol\":8734:8779  betsInfo[selectedHash].matched += makerAmount */\n      tag_68\n      jump\t// in\n    tag_248:\n      swap1\n      swap2\n      sstore\n      pop\n      pop\n        /* \"contracts/Market.sol\":8835:8857  betsInfo[selectedHash] */\n      0x00\n      dup7\n      dup2\n      mstore\n        /* \"contracts/Market.sol\":8835:8843  betsInfo */\n      0x08\n        /* \"contracts/Market.sol\":8835:8857  betsInfo[selectedHash] */\n      0x20\n      mstore\n      0x40\n      swap1\n      keccak256\n        /* \"contracts/Market.sol\":8835:8865  betsInfo[selectedHash].matched */\n      0x03\n      dup2\n      add\n      sload\n        /* \"contracts/Market.sol\":8804:8832  betsInfo[selectedHash].stake */\n      0x02\n      swap1\n      swap2\n      add\n      sload\n        /* \"contracts/Market.sol\":8804:8865  betsInfo[selectedHash].stake - betsInfo[selectedHash].matched */\n      tag_249\n      swap2\n        /* \"contracts/Market.sol\":8835:8865  betsInfo[selectedHash].matched */\n      swap1\n        /* \"contracts/Market.sol\":8804:8865  betsInfo[selectedHash].stake - betsInfo[selectedHash].matched */\n      tag_66\n      jump\t// in\n    tag_249:\n        /* \"contracts/Market.sol\":8801:8954  if(betsInfo[selectedHash].stake - betsInfo[selectedHash].matched == 0) {... */\n      tag_250\n      jumpi\n        /* \"contracts/Market.sol\":8905:8916  pendingBets */\n      0x06\n        /* \"contracts/Market.sol\":8917:8930  selectedIndex */\n      dup9\n        /* \"contracts/Market.sol\":8905:8931  pendingBets[selectedIndex] */\n      dup2\n      sload\n      dup2\n      lt\n      tag_251\n      jumpi\n      mstore(0x00, shl(0xe0, 0x4e487b71))\n      mstore(0x04, 0x32)\n      revert(0x00, 0x24)\n    tag_251:\n      0x00\n      swap2\n      dup3\n      mstore\n      0x20\n      dup3\n      keccak256\n      add\n        /* \"contracts/Market.sol\":8898:8931  delete pendingBets[selectedIndex] */\n      sstore\n        /* \"contracts/Market.sol\":8801:8954  if(betsInfo[selectedHash].stake - betsInfo[selectedHash].matched == 0) {... */\n    tag_250:\n        /* \"contracts/Market.sol\":8975:9000  _remStake -= betterAmount */\n      tag_253\n        /* \"contracts/Market.sol\":8988:9000  betterAmount */\n      dup4\n        /* \"contracts/Market.sol\":8975:9000  _remStake -= betterAmount */\n      dup11\n      tag_66\n      jump\t// in\n    tag_253:\n      swap9\n      pop\n        /* \"contracts/Market.sol\":6606:9134  if(maxOdds > _odds || (maxOdds > 0 && _instant)) {... */\n      pop\n      pop\n      pop\n      pop\n      pop\n      pop\n      jump(tag_254)\n    tag_214:\n      pop\n      pop\n        /* \"contracts/Market.sol\":9063:9074  pendingBets */\n      0x06\n        /* \"contracts/Market.sol\":9063:9088  pendingBets.push(betHash) */\n      dup1\n      sload\n      0x01\n      dup2\n      add\n      dup3\n      sstore\n      0x00\n      swap2\n      swap1\n      swap2\n      mstore\n      0xf652222313e28459528d920b65115c16c04f3efc82aaedc97be59f3f377c0d3f\n      add\n      dup3\n      swap1\n      sstore\n        /* \"contracts/Market.sol\":9110:9115  break */\n      jump(tag_199)\n        /* \"contracts/Market.sol\":6606:9134  if(maxOdds > _odds || (maxOdds > 0 && _instant)) {... */\n    tag_254:\n        /* \"contracts/Market.sol\":6063:9148  while(_remStake >= app.minStake()){... */\n      pop\n      pop\n      jump(tag_198)\n    tag_199:\n        /* \"contracts/Market.sol\":5986:9222  if(pendingBets.length > 0){... */\n      pop\n      jump(tag_256)\n    tag_197:\n        /* \"contracts/Market.sol\":9186:9197  pendingBets */\n      0x06\n        /* \"contracts/Market.sol\":9186:9211  pendingBets.push(betHash) */\n      dup1\n      sload\n      0x01\n      dup2\n      add\n      dup3\n      sstore\n      0x00\n      swap2\n      swap1\n      swap2\n      mstore\n      0xf652222313e28459528d920b65115c16c04f3efc82aaedc97be59f3f377c0d3f\n      add\n      dup2\n      swap1\n      sstore\n        /* \"contracts/Market.sol\":5986:9222  if(pendingBets.length > 0){... */\n    tag_256:\n        /* \"contracts/Market.sol\":9236:9304  BetCreated(msg.sender, address(this), betHash, _stake, _odds, _side) */\n      0x40\n      dup1\n      mload\n        /* \"contracts/Market.sol\":9247:9257  msg.sender */\n      caller\n        /* \"#utility.yul\":3962:3996   */\n      dup2\n      mstore\n        /* \"contracts/Market.sol\":9267:9271  this */\n      address\n        /* \"#utility.yul\":4027:4029   */\n      0x20\n        /* \"#utility.yul\":4012:4030   */\n      dup3\n      add\n        /* \"#utility.yul\":4005:4048   */\n      mstore\n        /* \"#utility.yul\":4064:4082   */\n      swap1\n      dup2\n      add\n        /* \"#utility.yul\":4057:4091   */\n      dup3\n      swap1\n      mstore\n        /* \"#utility.yul\":4122:4124   */\n      0x60\n        /* \"#utility.yul\":4107:4125   */\n      dup2\n      add\n        /* \"#utility.yul\":4100:4134   */\n      dup8\n      swap1\n      mstore\n        /* \"#utility.yul\":4165:4168   */\n      0x80\n        /* \"#utility.yul\":4150:4169   */\n      dup2\n      add\n        /* \"#utility.yul\":4143:4178   */\n      dup7\n      swap1\n      mstore\n        /* \"#utility.yul\":3942:3945   */\n      0xa0\n        /* \"#utility.yul\":4194:4213   */\n      dup2\n      add\n        /* \"#utility.yul\":4187:4222   */\n      dup6\n      swap1\n      mstore\n        /* \"contracts/Market.sol\":9236:9304  BetCreated(msg.sender, address(this), betHash, _stake, _odds, _side) */\n      0x618f358bb45538682ade624a4a1959053d9dabd20fe300508034b879681b37be\n      swap1\n        /* \"#utility.yul\":3911:3914   */\n      0xc0\n        /* \"#utility.yul\":3896:3915   */\n      add\n        /* \"contracts/Market.sol\":9236:9304  BetCreated(msg.sender, address(this), betHash, _stake, _odds, _side) */\n      mload(0x40)\n      dup1\n      swap2\n      sub\n      swap1\n      log1\n        /* \"contracts/Market.sol\":9321:9328  betHash */\n      swap8\n        /* \"contracts/Market.sol\":5131:9335  function addBet(... */\n      swap7\n      pop\n      pop\n      pop\n      pop\n      pop\n      pop\n      pop\n      jump\t// out\n        /* \"contracts/Market.sol\":4041:4531  function settle(uint256 _winningSide)... */\n    tag_49:\n        /* \"contracts/Market.sol\":1275:1280  owner */\n      sload(0x01)\n        /* \"contracts/Market.sol\":4149:4153  bool */\n      0x00\n      swap1\n      sub(shl(0xa0, 0x01), 0x01)\n        /* \"contracts/Market.sol\":1275:1280  owner */\n      and\n        /* \"contracts/Market.sol\":1261:1271  msg.sender */\n      caller\n        /* \"contracts/Market.sol\":1261:1280  msg.sender == owner */\n      eq\n      dup1\n        /* \"contracts/Market.sol\":1261:1343  msg.sender == owner ... */\n      tag_261\n      jumpi\n      pop\n        /* \"contracts/Market.sol\":1324:1327  app */\n      immutable(\"0x911a39fbf665a24ad3b6efc185d4b936bbda1900793ae2f7c00f4d18bdd96685\")\n      sub(shl(0xa0, 0x01), 0x01)\n        /* \"contracts/Market.sol\":1324:1341  app.contractOwner */\n      and\n      0xce606ee0\n        /* \"contracts/Market.sol\":1324:1343  app.contractOwner() */\n      mload(0x40)\n      dup2\n      0xffffffff\n      and\n      0xe0\n      shl\n      dup2\n      mstore\n      0x04\n      add\n      0x20\n      mload(0x40)\n      dup1\n      dup4\n      sub\n      dup2\n      dup7\n      dup1\n      extcodesize\n      iszero\n      dup1\n      iszero\n      tag_262\n      jumpi\n      0x00\n      dup1\n      revert\n    tag_262:\n      pop\n      gas\n      staticcall\n      iszero\n      dup1\n      iszero\n      tag_264\n      jumpi\n      returndatasize\n      0x00\n      dup1\n      returndatacopy\n      revert(0x00, returndatasize)\n    tag_264:\n      pop\n      pop\n      pop\n      pop\n      mload(0x40)\n      returndatasize\n      not(0x1f)\n      0x1f\n      dup3\n      add\n      and\n      dup3\n      add\n      dup1\n      0x40\n      mstore\n      pop\n      dup2\n      add\n      swap1\n      tag_265\n      swap2\n      swap1\n      tag_136\n      jump\t// in\n    tag_265:\n      sub(shl(0xa0, 0x01), 0x01)\n        /* \"contracts/Market.sol\":1310:1343  msg.sender == app.contractOwner() */\n      and\n        /* \"contracts/Market.sol\":1310:1320  msg.sender */\n      caller\n      sub(shl(0xa0, 0x01), 0x01)\n        /* \"contracts/Market.sol\":1310:1343  msg.sender == app.contractOwner() */\n      and\n      eq\n        /* \"contracts/Market.sol\":1261:1343  msg.sender == owner ... */\n    tag_261:\n        /* \"contracts/Market.sol\":1261:1392  msg.sender == owner ... */\n      dup1\n      tag_266\n      jumpi\n      pop\n        /* \"contracts/Market.sol\":1385:1392  factory */\n      and(sub(shl(0xa0, 0x01), 0x01), sload(0x02))\n        /* \"contracts/Market.sol\":1371:1381  msg.sender */\n      caller\n        /* \"contracts/Market.sol\":1371:1392  msg.sender == factory */\n      eq\n        /* \"contracts/Market.sol\":1261:1392  msg.sender == owner ... */\n    tag_266:\n        /* \"contracts/Market.sol\":1240:1420  require(... */\n      tag_267\n      jumpi\n      mload(0x40)\n      shl(0xe5, 0x461bcd)\n      dup2\n      mstore\n      0x04\n      add\n      tag_63\n      swap1\n      tag_140\n      jump\t// in\n    tag_267:\n        /* \"contracts/Market.sol\":4173:4179  status */\n      sload(0x03)\n        /* \"contracts/Market.sol\":4173:4184  status == 0 */\n      iszero\n      dup1\n        /* \"contracts/Market.sol\":4173:4199  status == 0 || status == 4 */\n      tag_270\n      jumpi\n      pop\n        /* \"contracts/Market.sol\":4188:4194  status */\n      sload(0x03)\n        /* \"contracts/Market.sol\":4198:4199  4 */\n      0x04\n        /* \"contracts/Market.sol\":4188:4199  status == 4 */\n      eq\n        /* \"contracts/Market.sol\":4173:4199  status == 0 || status == 4 */\n    tag_270:\n        /* \"contracts/Market.sol\":4172:4244  (status == 0 || status == 4) && (_winningSide == 1 || _winningSide == 2) */\n      dup1\n      iszero\n      tag_272\n      jumpi\n      pop\n        /* \"contracts/Market.sol\":4205:4217  _winningSide */\n      dup2\n        /* \"contracts/Market.sol\":4221:4222  1 */\n      0x01\n        /* \"contracts/Market.sol\":4205:4222  _winningSide == 1 */\n      eq\n        /* \"contracts/Market.sol\":4205:4243  _winningSide == 1 || _winningSide == 2 */\n      dup1\n      tag_272\n      jumpi\n      pop\n        /* \"contracts/Market.sol\":4226:4238  _winningSide */\n      dup2\n        /* \"contracts/Market.sol\":4242:4243  2 */\n      0x02\n        /* \"contracts/Market.sol\":4226:4243  _winningSide == 2 */\n      eq\n        /* \"contracts/Market.sol\":4205:4243  _winningSide == 1 || _winningSide == 2 */\n    tag_272:\n        /* \"contracts/Market.sol\":4169:4516  if((status == 0 || status == 4) && (_winningSide == 1 || _winningSide == 2)){... */\n      iszero\n      tag_273\n      jumpi\n        /* \"contracts/Market.sol\":4259:4265  status */\n      0x03\n        /* \"contracts/Market.sol\":4259:4280  status = _winningSide */\n      dup3\n      swap1\n      sstore\n        /* \"contracts/Market.sol\":4313:4318  pairs */\n      0x04\n        /* \"contracts/Market.sol\":4313:4325  pairs.length */\n      sload\n        /* \"contracts/Market.sol\":4294:4310  uint pairsLength */\n      0x00\n        /* \"contracts/Market.sol\":4339:4430  for(uint i = 0; i < pairsLength; i++){... */\n    tag_274:\n        /* \"contracts/Market.sol\":4359:4370  pairsLength */\n      dup2\n        /* \"contracts/Market.sol\":4355:4356  i */\n      dup2\n        /* \"contracts/Market.sol\":4355:4370  i < pairsLength */\n      lt\n        /* \"contracts/Market.sol\":4339:4430  for(uint i = 0; i < pairsLength; i++){... */\n      iszero\n      tag_275\n      jumpi\n        /* \"contracts/Market.sol\":4394:4415  _settlePair(pairs[i]) */\n      tag_277\n        /* \"contracts/Market.sol\":4406:4411  pairs */\n      0x04\n        /* \"contracts/Market.sol\":4412:4413  i */\n      dup3\n        /* \"contracts/Market.sol\":4406:4414  pairs[i] */\n      dup2\n      sload\n      dup2\n      lt\n      tag_278\n      jumpi\n      mstore(0x00, shl(0xe0, 0x4e487b71))\n      mstore(0x04, 0x32)\n      revert(0x00, 0x24)\n    tag_278:\n      swap1\n      0x00\n      mstore\n      keccak256(0x00, 0x20)\n      add\n      sload\n        /* \"contracts/Market.sol\":4394:4405  _settlePair */\n      tag_126\n        /* \"contracts/Market.sol\":4394:4415  _settlePair(pairs[i]) */\n      jump\t// in\n    tag_277:\n      pop\n        /* \"contracts/Market.sol\":4372:4375  i++ */\n      dup1\n      tag_280\n      dup2\n      tag_78\n      jump\t// in\n    tag_280:\n      swap2\n      pop\n      pop\n        /* \"contracts/Market.sol\":4339:4430  for(uint i = 0; i < pairsLength; i++){... */\n      jump(tag_274)\n    tag_275:\n      pop\n        /* \"contracts/Market.sol\":4450:4454  true */\n      0x01\n      swap4\n        /* \"contracts/Market.sol\":4041:4531  function settle(uint256 _winningSide)... */\n      swap3\n      pop\n      pop\n      pop\n      jump\t// out\n        /* \"contracts/Market.sol\":4169:4516  if((status == 0 || status == 4) && (_winningSide == 1 || _winningSide == 2)){... */\n    tag_273:\n      pop\n        /* \"contracts/Market.sol\":4500:4505  false */\n      0x00\n        /* \"contracts/Market.sol\":4041:4531  function settle(uint256 _winningSide)... */\n      swap2\n      swap1\n      pop\n      jump\t// out\n        /* \"contracts/Market.sol\":4923:5125  function start() external override onlyFactory returns(bool){... */\n    tag_52:\n        /* \"contracts/Market.sol\":1275:1280  owner */\n      sload(0x01)\n        /* \"contracts/Market.sol\":4978:4982  bool */\n      0x00\n      swap1\n      sub(shl(0xa0, 0x01), 0x01)\n        /* \"contracts/Market.sol\":1275:1280  owner */\n      and\n        /* \"contracts/Market.sol\":1261:1271  msg.sender */\n      caller\n        /* \"contracts/Market.sol\":1261:1280  msg.sender == owner */\n      eq\n      dup1\n        /* \"contracts/Market.sol\":1261:1343  msg.sender == owner ... */\n      tag_283\n      jumpi\n      pop\n        /* \"contracts/Market.sol\":1324:1327  app */\n      immutable(\"0x911a39fbf665a24ad3b6efc185d4b936bbda1900793ae2f7c00f4d18bdd96685\")\n      sub(shl(0xa0, 0x01), 0x01)\n        /* \"contracts/Market.sol\":1324:1341  app.contractOwner */\n      and\n      0xce606ee0\n        /* \"contracts/Market.sol\":1324:1343  app.contractOwner() */\n      mload(0x40)\n      dup2\n      0xffffffff\n      and\n      0xe0\n      shl\n      dup2\n      mstore\n      0x04\n      add\n      0x20\n      mload(0x40)\n      dup1\n      dup4\n      sub\n      dup2\n      dup7\n      dup1\n      extcodesize\n      iszero\n      dup1\n      iszero\n      tag_284\n      jumpi\n      0x00\n      dup1\n      revert\n    tag_284:\n      pop\n      gas\n      staticcall\n      iszero\n      dup1\n      iszero\n      tag_286\n      jumpi\n      returndatasize\n      0x00\n      dup1\n      returndatacopy\n      revert(0x00, returndatasize)\n    tag_286:\n      pop\n      pop\n      pop\n      pop\n      mload(0x40)\n      returndatasize\n      not(0x1f)\n      0x1f\n      dup3\n      add\n      and\n      dup3\n      add\n      dup1\n      0x40\n      mstore\n      pop\n      dup2\n      add\n      swap1\n      tag_287\n      swap2\n      swap1\n      tag_136\n      jump\t// in\n    tag_287:\n      sub(shl(0xa0, 0x01), 0x01)\n        /* \"contracts/Market.sol\":1310:1343  msg.sender == app.contractOwner() */\n      and\n        /* \"contracts/Market.sol\":1310:1320  msg.sender */\n      caller\n      sub(shl(0xa0, 0x01), 0x01)\n        /* \"contracts/Market.sol\":1310:1343  msg.sender == app.contractOwner() */\n      and\n      eq\n        /* \"contracts/Market.sol\":1261:1343  msg.sender == owner ... */\n    tag_283:\n        /* \"contracts/Market.sol\":1261:1392  msg.sender == owner ... */\n      dup1\n      tag_288\n      jumpi\n      pop\n        /* \"contracts/Market.sol\":1385:1392  factory */\n      and(sub(shl(0xa0, 0x01), 0x01), sload(0x02))\n        /* \"contracts/Market.sol\":1371:1381  msg.sender */\n      caller\n        /* \"contracts/Market.sol\":1371:1392  msg.sender == factory */\n      eq\n        /* \"contracts/Market.sol\":1261:1392  msg.sender == owner ... */\n    tag_288:\n        /* \"contracts/Market.sol\":1240:1420  require(... */\n      tag_289\n      jumpi\n      mload(0x40)\n      shl(0xe5, 0x461bcd)\n      dup2\n      mstore\n      0x04\n      add\n      tag_63\n      swap1\n      tag_140\n      jump\t// in\n    tag_289:\n        /* \"contracts/Market.sol\":4996:5002  status */\n      sload(0x03)\n        /* \"contracts/Market.sol\":4993:5119  if(status == 0){... */\n      tag_143\n      jumpi\n      pop\n        /* \"contracts/Market.sol\":5031:5032  4 */\n      0x04\n        /* \"contracts/Market.sol\":5022:5028  status */\n      0x03\n        /* \"contracts/Market.sol\":5022:5032  status = 4 */\n      sstore\n        /* \"contracts/Market.sol\":5053:5057  true */\n      0x01\n        /* \"contracts/Market.sol\":4537:4917  function cancelMarket() external override onlyFactory returns(bool) ... */\n      swap1\n      jump\t// out\n        /* \"contracts/Market.sol\":3422:3709  function cashOut(bytes32 _bet) external {... */\n    tag_56:\n        /* \"contracts/Market.sol\":3475:3481  status */\n      sload(0x03)\n        /* \"contracts/Market.sol\":3472:3703  if(status == 0){... */\n      tag_295\n      jumpi\n        /* \"contracts/Market.sol\":3501:3524  bytes32[] memory _pairs */\n      0x00\n        /* \"contracts/Market.sol\":3527:3541  betPairs[_bet] */\n      dup2\n      dup2\n      mstore\n        /* \"contracts/Market.sol\":3527:3535  betPairs */\n      0x0b\n        /* \"contracts/Market.sol\":3527:3541  betPairs[_bet] */\n      0x20\n      swap1\n      dup2\n      mstore\n      0x40\n      dup1\n      dup4\n      keccak256\n        /* \"contracts/Market.sol\":3501:3541  bytes32[] memory _pairs = betPairs[_bet] */\n      dup1\n      sload\n      dup3\n      mload\n      dup2\n      dup6\n      mul\n      dup2\n      add\n      dup6\n      add\n      swap1\n      swap4\n      mstore\n      dup1\n      dup4\n      mstore\n      swap2\n      swap3\n        /* \"contracts/Market.sol\":3527:3541  betPairs[_bet] */\n      swap1\n      swap2\n        /* \"contracts/Market.sol\":3501:3541  bytes32[] memory _pairs = betPairs[_bet] */\n      swap1\n      dup4\n      add\n        /* \"contracts/Market.sol\":3527:3541  betPairs[_bet] */\n      dup3\n        /* \"contracts/Market.sol\":3501:3541  bytes32[] memory _pairs = betPairs[_bet] */\n      dup3\n      dup1\n      iszero\n      tag_296\n      jumpi\n      0x20\n      mul\n      dup3\n      add\n      swap2\n      swap1\n      0x00\n      mstore\n      keccak256(0x00, 0x20)\n      swap1\n    tag_297:\n      dup2\n      sload\n      dup2\n      mstore\n      0x20\n      add\n      swap1\n      0x01\n      add\n      swap1\n      dup1\n      dup4\n      gt\n      tag_297\n      jumpi\n    tag_296:\n      pop\n      pop\n        /* \"contracts/Market.sol\":3574:3587  _pairs.length */\n      dup4\n      mload\n        /* \"contracts/Market.sol\":3501:3541  bytes32[] memory _pairs = betPairs[_bet] */\n      swap4\n      swap5\n      pop\n        /* \"contracts/Market.sol\":3555:3571  uint pairsLength */\n      0x00\n      swap3\n      pop\n      pop\n      pop\n        /* \"contracts/Market.sol\":3601:3693  for(uint i = 0; i < pairsLength; i++){... */\n    tag_298:\n        /* \"contracts/Market.sol\":3621:3632  pairsLength */\n      dup2\n        /* \"contracts/Market.sol\":3617:3618  i */\n      dup2\n        /* \"contracts/Market.sol\":3617:3632  i < pairsLength */\n      lt\n        /* \"contracts/Market.sol\":3601:3693  for(uint i = 0; i < pairsLength; i++){... */\n      iszero\n      tag_79\n      jumpi\n        /* \"contracts/Market.sol\":3656:3678  _settlePair(_pairs[i]) */\n      tag_301\n        /* \"contracts/Market.sol\":3668:3674  _pairs */\n      dup4\n        /* \"contracts/Market.sol\":3675:3676  i */\n      dup3\n        /* \"contracts/Market.sol\":3668:3677  _pairs[i] */\n      dup2\n      mload\n      dup2\n      lt\n      tag_125\n      jumpi\n      mstore(0x00, shl(0xe0, 0x4e487b71))\n      mstore(0x04, 0x32)\n      revert(0x00, 0x24)\n        /* \"contracts/Market.sol\":3656:3678  _settlePair(_pairs[i]) */\n    tag_301:\n      pop\n        /* \"contracts/Market.sol\":3634:3637  i++ */\n      dup1\n      tag_303\n      dup2\n      tag_78\n      jump\t// in\n    tag_303:\n      swap2\n      pop\n      pop\n        /* \"contracts/Market.sol\":3601:3693  for(uint i = 0; i < pairsLength; i++){... */\n      jump(tag_298)\n        /* \"contracts/Market.sol\":3472:3703  if(status == 0){... */\n    tag_295:\n        /* \"contracts/Market.sol\":3422:3709  function cashOut(bytes32 _bet) external {... */\n      pop\n      jump\t// out\n        /* \"contracts/Market.sol\":9699:11058  function _settlePair(bytes32 _pair) private nonReentrant returns(bool) {... */\n    tag_126:\n        /* \"contracts/Market.sol\":9764:9768  bool */\n      0x00\n        /* \"@openzeppelin/contracts/security/ReentrancyGuard.sol\":1744:1745  2 */\n      0x02\n        /* \"@openzeppelin/contracts/security/ReentrancyGuard.sol\":2325:2332  _status */\n      sload(0x00)\n        /* \"@openzeppelin/contracts/security/ReentrancyGuard.sol\":2325:2344  _status != _ENTERED */\n      eq\n      iszero\n        /* \"@openzeppelin/contracts/security/ReentrancyGuard.sol\":2317:2380  require(_status != _ENTERED, \"ReentrancyGuard: reentrant call\") */\n      tag_306\n      jumpi\n      mload(0x40)\n      shl(0xe5, 0x461bcd)\n      dup2\n      mstore\n        /* \"#utility.yul\":9330:9332   */\n      0x20\n        /* \"@openzeppelin/contracts/security/ReentrancyGuard.sol\":2317:2380  require(_status != _ENTERED, \"ReentrancyGuard: reentrant call\") */\n      0x04\n      dup3\n      add\n        /* \"#utility.yul\":9312:9333   */\n      mstore\n        /* \"#utility.yul\":9369:9371   */\n      0x1f\n        /* \"#utility.yul\":9349:9367   */\n      0x24\n      dup3\n      add\n        /* \"#utility.yul\":9342:9372   */\n      mstore\n        /* \"#utility.yul\":9408:9441   */\n      0x5265656e7472616e637947756172643a207265656e7472616e742063616c6c00\n        /* \"#utility.yul\":9388:9406   */\n      0x44\n      dup3\n      add\n        /* \"#utility.yul\":9381:9442   */\n      mstore\n        /* \"#utility.yul\":9459:9477   */\n      0x64\n      add\n        /* \"@openzeppelin/contracts/security/ReentrancyGuard.sol\":2317:2380  require(_status != _ENTERED, \"ReentrancyGuard: reentrant call\") */\n      tag_63\n        /* \"#utility.yul\":9302:9483   */\n      jump\n        /* \"@openzeppelin/contracts/security/ReentrancyGuard.sol\":2317:2380  require(_status != _ENTERED, \"ReentrancyGuard: reentrant call\") */\n    tag_306:\n        /* \"@openzeppelin/contracts/security/ReentrancyGuard.sol\":1744:1745  2 */\n      0x02\n        /* \"@openzeppelin/contracts/security/ReentrancyGuard.sol\":2455:2462  _status */\n      0x00\n        /* \"@openzeppelin/contracts/security/ReentrancyGuard.sol\":2455:2473  _status = _ENTERED */\n      swap1\n      dup2\n      sstore\n        /* \"contracts/Market.sol\":9783:9799  pairsInfo[_pair] */\n      dup3\n      dup2\n      mstore\n        /* \"contracts/Market.sol\":9783:9792  pairsInfo */\n      0x0a\n        /* \"contracts/Market.sol\":9783:9799  pairsInfo[_pair] */\n      0x20\n      mstore\n      0x40\n      swap1\n      keccak256\n        /* \"contracts/Market.sol\":9783:9807  pairsInfo[_pair].settled */\n      0x04\n      add\n      sload\n      0xff\n      and\n        /* \"contracts/Market.sol\":9780:9845  if(pairsInfo[_pair].settled){... */\n      iszero\n      tag_309\n      jumpi\n      pop\n        /* \"contracts/Market.sol\":9829:9834  false */\n      0x00\n        /* \"contracts/Market.sol\":9822:9834  return false */\n      jump(tag_94)\n        /* \"contracts/Market.sol\":9780:9845  if(pairsInfo[_pair].settled){... */\n    tag_309:\n        /* \"contracts/Market.sol\":9854:9868  address winner */\n      0x00\n        /* \"contracts/Market.sol\":9878:9895  address affiliate */\n      dup1\n        /* \"contracts/Market.sol\":9905:9922  uint256 winAmount */\n      0x00\n        /* \"contracts/Market.sol\":9932:9949  uint256 vigAmount */\n      dup1\n        /* \"contracts/Market.sol\":9962:9968  status */\n      sload(0x03)\n        /* \"contracts/Market.sol\":9972:9973  1 */\n      0x01\n        /* \"contracts/Market.sol\":9962:9973  status == 1 */\n      eq\n        /* \"contracts/Market.sol\":9959:10693  if(status == 1){... */\n      iszero\n      tag_310\n      jumpi\n        /* \"contracts/Market.sol\":9997:10032  betsInfo[pairsInfo[_pair].betHashA] */\n      0x00\n        /* \"contracts/Market.sol\":10006:10022  pairsInfo[_pair] */\n      dup7\n      dup2\n      mstore\n        /* \"contracts/Market.sol\":10006:10015  pairsInfo */\n      0x0a\n        /* \"contracts/Market.sol\":10006:10022  pairsInfo[_pair] */\n      0x20\n      swap1\n      dup2\n      mstore\n      0x40\n      dup1\n      dup4\n      keccak256\n        /* \"contracts/Market.sol\":10006:10031  pairsInfo[_pair].betHashA */\n      sload\n        /* \"contracts/Market.sol\":9997:10032  betsInfo[pairsInfo[_pair].betHashA] */\n      dup4\n      mstore\n        /* \"contracts/Market.sol\":9997:10005  betsInfo */\n      0x08\n        /* \"contracts/Market.sol\":9997:10032  betsInfo[pairsInfo[_pair].betHashA] */\n      dup3\n      mstore\n      swap2\n      dup3\n      swap1\n      keccak256\n        /* \"contracts/Market.sol\":9997:10039  betsInfo[pairsInfo[_pair].betHashA].better */\n      sload\n        /* \"contracts/Market.sol\":10127:10136  app.vig() */\n      dup3\n      mload\n      shl(0xe0, 0x55c4a8bf)\n      dup2\n      mstore\n      swap3\n      mload\n      sub(shl(0xa0, 0x01), 0x01)\n        /* \"contracts/Market.sol\":9997:10039  betsInfo[pairsInfo[_pair].betHashA].better */\n      swap2\n      dup3\n      and\n      swap8\n      pop\n        /* \"contracts/Market.sol\":10140:10143  100 */\n      0x64\n      swap4\n        /* \"contracts/Market.sol\":10127:10130  app */\n      immutable(\"0x911a39fbf665a24ad3b6efc185d4b936bbda1900793ae2f7c00f4d18bdd96685\")\n        /* \"contracts/Market.sol\":10127:10134  app.vig */\n      swap1\n      swap3\n      and\n      swap3\n      0x55c4a8bf\n      swap3\n        /* \"contracts/Market.sol\":10127:10136  app.vig() */\n      0x04\n      dup1\n      dup3\n      add\n      swap4\n      swap2\n      dup3\n      swap1\n      sub\n      add\n      dup2\n        /* \"contracts/Market.sol\":10127:10134  app.vig */\n      dup7\n        /* \"contracts/Market.sol\":10127:10136  app.vig() */\n      dup1\n      extcodesize\n      iszero\n      dup1\n      iszero\n      tag_311\n      jumpi\n      0x00\n      dup1\n      revert\n    tag_311:\n      pop\n      gas\n      staticcall\n      iszero\n      dup1\n      iszero\n      tag_313\n      jumpi\n      returndatasize\n      0x00\n      dup1\n      returndatacopy\n      revert(0x00, returndatasize)\n    tag_313:\n      pop\n      pop\n      pop\n      pop\n      mload(0x40)\n      returndatasize\n      not(0x1f)\n      0x1f\n      dup3\n      add\n      and\n      dup3\n      add\n      dup1\n      0x40\n      mstore\n      pop\n      dup2\n      add\n      swap1\n      tag_314\n      swap2\n      swap1\n      tag_101\n      jump\t// in\n    tag_314:\n        /* \"contracts/Market.sol\":10121:10136  100 - app.vig() */\n      tag_315\n      swap1\n        /* \"contracts/Market.sol\":10121:10124  100 */\n      0x64\n        /* \"contracts/Market.sol\":10121:10136  100 - app.vig() */\n      tag_66\n      jump\t// in\n    tag_315:\n        /* \"contracts/Market.sol\":10093:10109  pairsInfo[_pair] */\n      0x00\n      dup9\n      dup2\n      mstore\n        /* \"contracts/Market.sol\":10093:10102  pairsInfo */\n      0x0a\n        /* \"contracts/Market.sol\":10093:10109  pairsInfo[_pair] */\n      0x20\n      mstore\n      0x40\n      swap1\n      keccak256\n        /* \"contracts/Market.sol\":10093:10117  pairsInfo[_pair].amountB */\n      0x03\n      add\n      sload\n        /* \"contracts/Market.sol\":10093:10137  pairsInfo[_pair].amountB * (100 - app.vig()) */\n      tag_316\n      swap2\n      swap1\n      tag_193\n      jump\t// in\n    tag_316:\n        /* \"contracts/Market.sol\":10093:10143  pairsInfo[_pair].amountB * (100 - app.vig()) / 100 */\n      tag_317\n      swap2\n      swap1\n      tag_195\n      jump\t// in\n    tag_317:\n        /* \"contracts/Market.sol\":10065:10081  pairsInfo[_pair] */\n      0x00\n      dup8\n      dup2\n      mstore\n        /* \"contracts/Market.sol\":10065:10074  pairsInfo */\n      0x0a\n        /* \"contracts/Market.sol\":10065:10081  pairsInfo[_pair] */\n      0x20\n      mstore\n      0x40\n      swap1\n      keccak256\n        /* \"contracts/Market.sol\":10065:10089  pairsInfo[_pair].amountA */\n      0x02\n      add\n      sload\n        /* \"contracts/Market.sol\":10065:10144  pairsInfo[_pair].amountA + (pairsInfo[_pair].amountB * (100 - app.vig()) / 100) */\n      tag_318\n      swap2\n      swap1\n      tag_68\n      jump\t// in\n    tag_318:\n        /* \"contracts/Market.sol\":10053:10144  winAmount = pairsInfo[_pair].amountA + (pairsInfo[_pair].amountB * (100 - app.vig()) / 100) */\n      swap2\n      pop\n        /* \"contracts/Market.sol\":10209:10212  100 */\n      0x64\n        /* \"contracts/Market.sol\":10197:10200  app */\n      immutable(\"0x911a39fbf665a24ad3b6efc185d4b936bbda1900793ae2f7c00f4d18bdd96685\")\n      sub(shl(0xa0, 0x01), 0x01)\n        /* \"contracts/Market.sol\":10197:10204  app.vig */\n      and\n      0x55c4a8bf\n        /* \"contracts/Market.sol\":10197:10206  app.vig() */\n      mload(0x40)\n      dup2\n      0xffffffff\n      and\n      0xe0\n      shl\n      dup2\n      mstore\n      0x04\n      add\n      0x20\n      mload(0x40)\n      dup1\n      dup4\n      sub\n      dup2\n      dup7\n      dup1\n      extcodesize\n      iszero\n      dup1\n      iszero\n      tag_319\n      jumpi\n      0x00\n      dup1\n      revert\n    tag_319:\n      pop\n      gas\n      staticcall\n      iszero\n      dup1\n      iszero\n      tag_321\n      jumpi\n      returndatasize\n      0x00\n      dup1\n      returndatacopy\n      revert(0x00, returndatasize)\n    tag_321:\n      pop\n      pop\n      pop\n      pop\n      mload(0x40)\n      returndatasize\n      not(0x1f)\n      0x1f\n      dup3\n      add\n      and\n      dup3\n      add\n      dup1\n      0x40\n      mstore\n      pop\n      dup2\n      add\n      swap1\n      tag_322\n      swap2\n      swap1\n      tag_101\n      jump\t// in\n    tag_322:\n        /* \"contracts/Market.sol\":10170:10186  pairsInfo[_pair] */\n      0x00\n      dup9\n      dup2\n      mstore\n        /* \"contracts/Market.sol\":10170:10179  pairsInfo */\n      0x0a\n        /* \"contracts/Market.sol\":10170:10186  pairsInfo[_pair] */\n      0x20\n      mstore\n      0x40\n      swap1\n      keccak256\n        /* \"contracts/Market.sol\":10170:10194  pairsInfo[_pair].amountB */\n      0x03\n      add\n      sload\n        /* \"contracts/Market.sol\":10170:10206  pairsInfo[_pair].amountB * app.vig() */\n      tag_323\n      swap2\n      swap1\n      tag_193\n      jump\t// in\n    tag_323:\n        /* \"contracts/Market.sol\":10170:10212  pairsInfo[_pair].amountB * app.vig() / 100 */\n      tag_324\n      swap2\n      swap1\n      tag_195\n      jump\t// in\n    tag_324:\n        /* \"contracts/Market.sol\":10238:10273  betsInfo[pairsInfo[_pair].betHashA] */\n      0x00\n        /* \"contracts/Market.sol\":10247:10263  pairsInfo[_pair] */\n      dup8\n      dup2\n      mstore\n        /* \"contracts/Market.sol\":10247:10256  pairsInfo */\n      0x0a\n        /* \"contracts/Market.sol\":10247:10263  pairsInfo[_pair] */\n      0x20\n      swap1\n      dup2\n      mstore\n      0x40\n      dup1\n      dup4\n      keccak256\n        /* \"contracts/Market.sol\":10247:10272  pairsInfo[_pair].betHashA */\n      sload\n        /* \"contracts/Market.sol\":10238:10273  betsInfo[pairsInfo[_pair].betHashA] */\n      dup4\n      mstore\n        /* \"contracts/Market.sol\":10238:10246  betsInfo */\n      0x08\n        /* \"contracts/Market.sol\":10238:10273  betsInfo[pairsInfo[_pair].betHashA] */\n      swap1\n      swap2\n      mstore\n      swap1\n      keccak256\n        /* \"contracts/Market.sol\":10238:10283  betsInfo[pairsInfo[_pair].betHashA].affiliate */\n      0x01\n      add\n      sload\n      sub(shl(0xa0, 0x01), 0x01)\n      and\n      swap4\n      pop\n        /* \"contracts/Market.sol\":10158:10212  vigAmount = pairsInfo[_pair].amountB * app.vig() / 100 */\n      swap1\n      pop\n        /* \"contracts/Market.sol\":9959:10693  if(status == 1){... */\n      jump(tag_341)\n    tag_310:\n        /* \"contracts/Market.sol\":10311:10317  status */\n      sload(0x03)\n        /* \"contracts/Market.sol\":10321:10322  2 */\n      0x02\n        /* \"contracts/Market.sol\":10311:10322  status == 2 */\n      eq\n        /* \"contracts/Market.sol\":10308:10693  if(status == 2){... */\n      iszero\n      tag_326\n      jumpi\n        /* \"contracts/Market.sol\":10346:10381  betsInfo[pairsInfo[_pair].betHashB] */\n      0x00\n        /* \"contracts/Market.sol\":10355:10371  pairsInfo[_pair] */\n      dup7\n      dup2\n      mstore\n        /* \"contracts/Market.sol\":10355:10364  pairsInfo */\n      0x0a\n        /* \"contracts/Market.sol\":10355:10371  pairsInfo[_pair] */\n      0x20\n      swap1\n      dup2\n      mstore\n      0x40\n      dup1\n      dup4\n      keccak256\n        /* \"contracts/Market.sol\":10355:10380  pairsInfo[_pair].betHashB */\n      0x01\n      add\n      sload\n        /* \"contracts/Market.sol\":10346:10381  betsInfo[pairsInfo[_pair].betHashB] */\n      dup4\n      mstore\n        /* \"contracts/Market.sol\":10346:10354  betsInfo */\n      0x08\n        /* \"contracts/Market.sol\":10346:10381  betsInfo[pairsInfo[_pair].betHashB] */\n      dup3\n      mstore\n      swap2\n      dup3\n      swap1\n      keccak256\n        /* \"contracts/Market.sol\":10346:10388  betsInfo[pairsInfo[_pair].betHashB].better */\n      sload\n        /* \"contracts/Market.sol\":10476:10485  app.vig() */\n      dup3\n      mload\n      shl(0xe0, 0x55c4a8bf)\n      dup2\n      mstore\n      swap3\n      mload\n      sub(shl(0xa0, 0x01), 0x01)\n        /* \"contracts/Market.sol\":10346:10388  betsInfo[pairsInfo[_pair].betHashB].better */\n      swap2\n      dup3\n      and\n      swap8\n      pop\n        /* \"contracts/Market.sol\":10489:10492  100 */\n      0x64\n      swap4\n        /* \"contracts/Market.sol\":10476:10479  app */\n      immutable(\"0x911a39fbf665a24ad3b6efc185d4b936bbda1900793ae2f7c00f4d18bdd96685\")\n        /* \"contracts/Market.sol\":10476:10483  app.vig */\n      swap1\n      swap3\n      and\n      swap3\n      0x55c4a8bf\n      swap3\n        /* \"contracts/Market.sol\":10476:10485  app.vig() */\n      0x04\n      dup1\n      dup3\n      add\n      swap4\n      swap2\n      dup3\n      swap1\n      sub\n      add\n      dup2\n        /* \"contracts/Market.sol\":10476:10483  app.vig */\n      dup7\n        /* \"contracts/Market.sol\":10476:10485  app.vig() */\n      dup1\n      extcodesize\n      iszero\n      dup1\n      iszero\n      tag_327\n      jumpi\n      0x00\n      dup1\n      revert\n    tag_327:\n      pop\n      gas\n      staticcall\n      iszero\n      dup1\n      iszero\n      tag_329\n      jumpi\n      returndatasize\n      0x00\n      dup1\n      returndatacopy\n      revert(0x00, returndatasize)\n    tag_329:\n      pop\n      pop\n      pop\n      pop\n      mload(0x40)\n      returndatasize\n      not(0x1f)\n      0x1f\n      dup3\n      add\n      and\n      dup3\n      add\n      dup1\n      0x40\n      mstore\n      pop\n      dup2\n      add\n      swap1\n      tag_330\n      swap2\n      swap1\n      tag_101\n      jump\t// in\n    tag_330:\n        /* \"contracts/Market.sol\":10470:10485  100 - app.vig() */\n      tag_331\n      swap1\n        /* \"contracts/Market.sol\":10470:10473  100 */\n      0x64\n        /* \"contracts/Market.sol\":10470:10485  100 - app.vig() */\n      tag_66\n      jump\t// in\n    tag_331:\n        /* \"contracts/Market.sol\":10442:10458  pairsInfo[_pair] */\n      0x00\n      dup9\n      dup2\n      mstore\n        /* \"contracts/Market.sol\":10442:10451  pairsInfo */\n      0x0a\n        /* \"contracts/Market.sol\":10442:10458  pairsInfo[_pair] */\n      0x20\n      mstore\n      0x40\n      swap1\n      keccak256\n        /* \"contracts/Market.sol\":10442:10466  pairsInfo[_pair].amountA */\n      0x02\n      add\n      sload\n        /* \"contracts/Market.sol\":10442:10486  pairsInfo[_pair].amountA * (100 - app.vig()) */\n      tag_332\n      swap2\n      swap1\n      tag_193\n      jump\t// in\n    tag_332:\n        /* \"contracts/Market.sol\":10442:10492  pairsInfo[_pair].amountA * (100 - app.vig()) / 100 */\n      tag_333\n      swap2\n      swap1\n      tag_195\n      jump\t// in\n    tag_333:\n        /* \"contracts/Market.sol\":10414:10430  pairsInfo[_pair] */\n      0x00\n      dup8\n      dup2\n      mstore\n        /* \"contracts/Market.sol\":10414:10423  pairsInfo */\n      0x0a\n        /* \"contracts/Market.sol\":10414:10430  pairsInfo[_pair] */\n      0x20\n      mstore\n      0x40\n      swap1\n      keccak256\n        /* \"contracts/Market.sol\":10414:10438  pairsInfo[_pair].amountB */\n      0x03\n      add\n      sload\n        /* \"contracts/Market.sol\":10414:10493  pairsInfo[_pair].amountB + (pairsInfo[_pair].amountA * (100 - app.vig()) / 100) */\n      tag_334\n      swap2\n      swap1\n      tag_68\n      jump\t// in\n    tag_334:\n        /* \"contracts/Market.sol\":10402:10493  winAmount = pairsInfo[_pair].amountB + (pairsInfo[_pair].amountA * (100 - app.vig()) / 100) */\n      swap2\n      pop\n        /* \"contracts/Market.sol\":10558:10561  100 */\n      0x64\n        /* \"contracts/Market.sol\":10546:10549  app */\n      immutable(\"0x911a39fbf665a24ad3b6efc185d4b936bbda1900793ae2f7c00f4d18bdd96685\")\n      sub(shl(0xa0, 0x01), 0x01)\n        /* \"contracts/Market.sol\":10546:10553  app.vig */\n      and\n      0x55c4a8bf\n        /* \"contracts/Market.sol\":10546:10555  app.vig() */\n      mload(0x40)\n      dup2\n      0xffffffff\n      and\n      0xe0\n      shl\n      dup2\n      mstore\n      0x04\n      add\n      0x20\n      mload(0x40)\n      dup1\n      dup4\n      sub\n      dup2\n      dup7\n      dup1\n      extcodesize\n      iszero\n      dup1\n      iszero\n      tag_335\n      jumpi\n      0x00\n      dup1\n      revert\n    tag_335:\n      pop\n      gas\n      staticcall\n      iszero\n      dup1\n      iszero\n      tag_337\n      jumpi\n      returndatasize\n      0x00\n      dup1\n      returndatacopy\n      revert(0x00, returndatasize)\n    tag_337:\n      pop\n      pop\n      pop\n      pop\n      mload(0x40)\n      returndatasize\n      not(0x1f)\n      0x1f\n      dup3\n      add\n      and\n      dup3\n      add\n      dup1\n      0x40\n      mstore\n      pop\n      dup2\n      add\n      swap1\n      tag_338\n      swap2\n      swap1\n      tag_101\n      jump\t// in\n    tag_338:\n        /* \"contracts/Market.sol\":10519:10535  pairsInfo[_pair] */\n      0x00\n      dup9\n      dup2\n      mstore\n        /* \"contracts/Market.sol\":10519:10528  pairsInfo */\n      0x0a\n        /* \"contracts/Market.sol\":10519:10535  pairsInfo[_pair] */\n      0x20\n      mstore\n      0x40\n      swap1\n      keccak256\n        /* \"contracts/Market.sol\":10519:10543  pairsInfo[_pair].amountA */\n      0x02\n      add\n      sload\n        /* \"contracts/Market.sol\":10519:10555  pairsInfo[_pair].amountA * app.vig() */\n      tag_339\n      swap2\n      swap1\n      tag_193\n      jump\t// in\n    tag_339:\n        /* \"contracts/Market.sol\":10519:10561  pairsInfo[_pair].amountA * app.vig() / 100 */\n      tag_340\n      swap2\n      swap1\n      tag_195\n      jump\t// in\n    tag_340:\n        /* \"contracts/Market.sol\":10587:10622  betsInfo[pairsInfo[_pair].betHashB] */\n      0x00\n        /* \"contracts/Market.sol\":10596:10612  pairsInfo[_pair] */\n      dup8\n      dup2\n      mstore\n        /* \"contracts/Market.sol\":10596:10605  pairsInfo */\n      0x0a\n        /* \"contracts/Market.sol\":10596:10612  pairsInfo[_pair] */\n      0x20\n      swap1\n      dup2\n      mstore\n      0x40\n      dup1\n      dup4\n      keccak256\n        /* \"contracts/Market.sol\":10596:10621  pairsInfo[_pair].betHashB */\n      0x01\n      swap1\n      dup2\n      add\n      sload\n        /* \"contracts/Market.sol\":10587:10622  betsInfo[pairsInfo[_pair].betHashB] */\n      dup5\n      mstore\n        /* \"contracts/Market.sol\":10587:10595  betsInfo */\n      0x08\n        /* \"contracts/Market.sol\":10587:10622  betsInfo[pairsInfo[_pair].betHashB] */\n      swap1\n      swap3\n      mstore\n      swap1\n      swap2\n      keccak256\n        /* \"contracts/Market.sol\":10587:10632  betsInfo[pairsInfo[_pair].betHashB].affiliate */\n      add\n      sload\n      sub(shl(0xa0, 0x01), 0x01)\n      and\n      swap4\n      pop\n        /* \"contracts/Market.sol\":10507:10561  vigAmount = pairsInfo[_pair].amountA * app.vig() / 100 */\n      swap1\n      pop\n        /* \"contracts/Market.sol\":10308:10693  if(status == 2){... */\n      jump(tag_341)\n    tag_326:\n        /* \"contracts/Market.sol\":10677:10682  false */\n      0x00\n        /* \"contracts/Market.sol\":10670:10682  return false */\n      swap5\n      pop\n      pop\n      pop\n      pop\n      pop\n      jump(tag_94)\n        /* \"contracts/Market.sol\":10308:10693  if(status == 2){... */\n    tag_341:\n      sub(shl(0xa0, 0x01), 0x01)\n        /* \"contracts/Market.sol\":10705:10728  affiliate == address(0) */\n      dup4\n      and\n        /* \"contracts/Market.sol\":10702:10779  if(affiliate == address(0)){... */\n      tag_342\n      jumpi\n        /* \"contracts/Market.sol\":10755:10758  app */\n      immutable(\"0x911a39fbf665a24ad3b6efc185d4b936bbda1900793ae2f7c00f4d18bdd96685\")\n      sub(shl(0xa0, 0x01), 0x01)\n        /* \"contracts/Market.sol\":10755:10766  app.ecoAddr */\n      and\n      0x09953b2f\n        /* \"contracts/Market.sol\":10755:10768  app.ecoAddr() */\n      mload(0x40)\n      dup2\n      0xffffffff\n      and\n      0xe0\n      shl\n      dup2\n      mstore\n      0x04\n      add\n      0x20\n      mload(0x40)\n      dup1\n      dup4\n      sub\n      dup2\n      dup7\n      dup1\n      extcodesize\n      iszero\n      dup1\n      iszero\n      tag_343\n      jumpi\n      0x00\n      dup1\n      revert\n    tag_343:\n      pop\n      gas\n      staticcall\n      iszero\n      dup1\n      iszero\n      tag_345\n      jumpi\n      returndatasize\n      0x00\n      dup1\n      returndatacopy\n      revert(0x00, returndatasize)\n    tag_345:\n      pop\n      pop\n      pop\n      pop\n      mload(0x40)\n      returndatasize\n      not(0x1f)\n      0x1f\n      dup3\n      add\n      and\n      dup3\n      add\n      dup1\n      0x40\n      mstore\n      pop\n      dup2\n      add\n      swap1\n      tag_346\n      swap2\n      swap1\n      tag_136\n      jump\t// in\n    tag_346:\n        /* \"contracts/Market.sol\":10743:10768  affiliate = app.ecoAddr() */\n      swap3\n      pop\n        /* \"contracts/Market.sol\":10702:10779  if(affiliate == address(0)){... */\n    tag_342:\n      sub(shl(0xa0, 0x01), 0x01)\n        /* \"contracts/Market.sol\":10788:10799  bal[winner] */\n      dup5\n      and\n      0x00\n      swap1\n      dup2\n      mstore\n        /* \"contracts/Market.sol\":10788:10791  bal */\n      0x07\n        /* \"contracts/Market.sol\":10788:10799  bal[winner] */\n      0x20\n      mstore\n      0x40\n      dup2\n      keccak256\n        /* \"contracts/Market.sol\":10788:10812  bal[winner] += winAmount */\n      dup1\n      sload\n        /* \"contracts/Market.sol\":10803:10812  winAmount */\n      dup5\n      swap3\n        /* \"contracts/Market.sol\":10788:10799  bal[winner] */\n      swap1\n        /* \"contracts/Market.sol\":10788:10812  bal[winner] += winAmount */\n      tag_347\n      swap1\n        /* \"contracts/Market.sol\":10803:10812  winAmount */\n      dup5\n      swap1\n        /* \"contracts/Market.sol\":10788:10812  bal[winner] += winAmount */\n      tag_68\n      jump\t// in\n    tag_347:\n      swap3\n      pop\n      pop\n      dup2\n      swap1\n      sstore\n      pop\n        /* \"contracts/Market.sol\":10870:10873  100 */\n      0x64\n        /* \"contracts/Market.sol\":10857:10860  app */\n      immutable(\"0x911a39fbf665a24ad3b6efc185d4b936bbda1900793ae2f7c00f4d18bdd96685\")\n      sub(shl(0xa0, 0x01), 0x01)\n        /* \"contracts/Market.sol\":10857:10865  app.hVig */\n      and\n      0x6a0ccd9d\n        /* \"contracts/Market.sol\":10857:10867  app.hVig() */\n      mload(0x40)\n      dup2\n      0xffffffff\n      and\n      0xe0\n      shl\n      dup2\n      mstore\n      0x04\n      add\n      0x20\n      mload(0x40)\n      dup1\n      dup4\n      sub\n      dup2\n      dup7\n      dup1\n      extcodesize\n      iszero\n      dup1\n      iszero\n      tag_348\n      jumpi\n      0x00\n      dup1\n      revert\n    tag_348:\n      pop\n      gas\n      staticcall\n      iszero\n      dup1\n      iszero\n      tag_350\n      jumpi\n      returndatasize\n      0x00\n      dup1\n      returndatacopy\n      revert(0x00, returndatasize)\n    tag_350:\n      pop\n      pop\n      pop\n      pop\n      mload(0x40)\n      returndatasize\n      not(0x1f)\n      0x1f\n      dup3\n      add\n      and\n      dup3\n      add\n      dup1\n      0x40\n      mstore\n      pop\n      dup2\n      add\n      swap1\n      tag_351\n      swap2\n      swap1\n      tag_101\n      jump\t// in\n    tag_351:\n        /* \"contracts/Market.sol\":10845:10867  vigAmount * app.hVig() */\n      tag_352\n      swap1\n        /* \"contracts/Market.sol\":10845:10854  vigAmount */\n      dup4\n        /* \"contracts/Market.sol\":10845:10867  vigAmount * app.hVig() */\n      tag_193\n      jump\t// in\n    tag_352:\n        /* \"contracts/Market.sol\":10845:10873  vigAmount * app.hVig() / 100 */\n      tag_353\n      swap2\n      swap1\n      tag_195\n      jump\t// in\n    tag_353:\n        /* \"contracts/Market.sol\":10822:10825  bal */\n      0x07\n        /* \"contracts/Market.sol\":10822:10841  bal[app.holdAddr()] */\n      0x00\n        /* \"contracts/Market.sol\":10826:10829  app */\n      immutable(\"0x911a39fbf665a24ad3b6efc185d4b936bbda1900793ae2f7c00f4d18bdd96685\")\n      sub(shl(0xa0, 0x01), 0x01)\n        /* \"contracts/Market.sol\":10826:10838  app.holdAddr */\n      and\n      0xb7640a54\n        /* \"contracts/Market.sol\":10826:10840  app.holdAddr() */\n      mload(0x40)\n      dup2\n      0xffffffff\n      and\n      0xe0\n      shl\n      dup2\n      mstore\n      0x04\n      add\n      0x20\n      mload(0x40)\n      dup1\n      dup4\n      sub\n      dup2\n      dup7\n      dup1\n      extcodesize\n      iszero\n      dup1\n      iszero\n      tag_354\n      jumpi\n      0x00\n      dup1\n      revert\n    tag_354:\n      pop\n      gas\n      staticcall\n      iszero\n      dup1\n      iszero\n      tag_356\n      jumpi\n      returndatasize\n      0x00\n      dup1\n      returndatacopy\n      revert(0x00, returndatasize)\n    tag_356:\n      pop\n      pop\n      pop\n      pop\n      mload(0x40)\n      returndatasize\n      not(0x1f)\n      0x1f\n      dup3\n      add\n      and\n      dup3\n      add\n      dup1\n      0x40\n      mstore\n      pop\n      dup2\n      add\n      swap1\n      tag_357\n      swap2\n      swap1\n      tag_136\n      jump\t// in\n    tag_357:\n      sub(shl(0xa0, 0x01), 0x01)\n        /* \"contracts/Market.sol\":10822:10841  bal[app.holdAddr()] */\n      and\n      sub(shl(0xa0, 0x01), 0x01)\n      and\n      dup2\n      mstore\n      0x20\n      add\n      swap1\n      dup2\n      mstore\n      0x20\n      add\n      0x00\n      keccak256\n      0x00\n        /* \"contracts/Market.sol\":10822:10873  bal[app.holdAddr()] += vigAmount * app.hVig() / 100 */\n      dup3\n      dup3\n      sload\n      tag_358\n      swap2\n      swap1\n      tag_68\n      jump\t// in\n    tag_358:\n      swap3\n      pop\n      pop\n      dup2\n      swap1\n      sstore\n      pop\n        /* \"contracts/Market.sol\":10930:10933  100 */\n      0x64\n        /* \"contracts/Market.sol\":10917:10920  app */\n      immutable(\"0x911a39fbf665a24ad3b6efc185d4b936bbda1900793ae2f7c00f4d18bdd96685\")\n      sub(shl(0xa0, 0x01), 0x01)\n        /* \"contracts/Market.sol\":10917:10925  app.eVig */\n      and\n      0x28576d45\n        /* \"contracts/Market.sol\":10917:10927  app.eVig() */\n      mload(0x40)\n      dup2\n      0xffffffff\n      and\n      0xe0\n      shl\n      dup2\n      mstore\n      0x04\n      add\n      0x20\n      mload(0x40)\n      dup1\n      dup4\n      sub\n      dup2\n      dup7\n      dup1\n      extcodesize\n      iszero\n      dup1\n      iszero\n      tag_359\n      jumpi\n      0x00\n      dup1\n      revert\n    tag_359:\n      pop\n      gas\n      staticcall\n      iszero\n      dup1\n      iszero\n      tag_361\n      jumpi\n      returndatasize\n      0x00\n      dup1\n      returndatacopy\n      revert(0x00, returndatasize)\n    tag_361:\n      pop\n      pop\n      pop\n      pop\n      mload(0x40)\n      returndatasize\n      not(0x1f)\n      0x1f\n      dup3\n      add\n      and\n      dup3\n      add\n      dup1\n      0x40\n      mstore\n      pop\n      dup2\n      add\n      swap1\n      tag_362\n      swap2\n      swap1\n      tag_101\n      jump\t// in\n    tag_362:\n        /* \"contracts/Market.sol\":10905:10927  vigAmount * app.eVig() */\n      tag_363\n      swap1\n        /* \"contracts/Market.sol\":10905:10914  vigAmount */\n      dup4\n        /* \"contracts/Market.sol\":10905:10927  vigAmount * app.eVig() */\n      tag_193\n      jump\t// in\n    tag_363:\n        /* \"contracts/Market.sol\":10905:10933  vigAmount * app.eVig() / 100 */\n      tag_364\n      swap2\n      swap1\n      tag_195\n      jump\t// in\n    tag_364:\n        /* \"contracts/Market.sol\":10883:10886  bal */\n      0x07\n        /* \"contracts/Market.sol\":10883:10901  bal[app.ecoAddr()] */\n      0x00\n        /* \"contracts/Market.sol\":10887:10890  app */\n      immutable(\"0x911a39fbf665a24ad3b6efc185d4b936bbda1900793ae2f7c00f4d18bdd96685\")\n      sub(shl(0xa0, 0x01), 0x01)\n        /* \"contracts/Market.sol\":10887:10898  app.ecoAddr */\n      and\n      0x09953b2f\n        /* \"contracts/Market.sol\":10887:10900  app.ecoAddr() */\n      mload(0x40)\n      dup2\n      0xffffffff\n      and\n      0xe0\n      shl\n      dup2\n      mstore\n      0x04\n      add\n      0x20\n      mload(0x40)\n      dup1\n      dup4\n      sub\n      dup2\n      dup7\n      dup1\n      extcodesize\n      iszero\n      dup1\n      iszero\n      tag_365\n      jumpi\n      0x00\n      dup1\n      revert\n    tag_365:\n      pop\n      gas\n      staticcall\n      iszero\n      dup1\n      iszero\n      tag_367\n      jumpi\n      returndatasize\n      0x00\n      dup1\n      returndatacopy\n      revert(0x00, returndatasize)\n    tag_367:\n      pop\n      pop\n      pop\n      pop\n      mload(0x40)\n      returndatasize\n      not(0x1f)\n      0x1f\n      dup3\n      add\n      and\n      dup3\n      add\n      dup1\n      0x40\n      mstore\n      pop\n      dup2\n      add\n      swap1\n      tag_368\n      swap2\n      swap1\n      tag_136\n      jump\t// in\n    tag_368:\n      sub(shl(0xa0, 0x01), 0x01)\n        /* \"contracts/Market.sol\":10883:10901  bal[app.ecoAddr()] */\n      and\n      sub(shl(0xa0, 0x01), 0x01)\n      and\n      dup2\n      mstore\n      0x20\n      add\n      swap1\n      dup2\n      mstore\n      0x20\n      add\n      0x00\n      keccak256\n      0x00\n        /* \"contracts/Market.sol\":10883:10933  bal[app.ecoAddr()] += vigAmount * app.eVig() / 100 */\n      dup3\n      dup3\n      sload\n      tag_369\n      swap2\n      swap1\n      tag_68\n      jump\t// in\n    tag_369:\n      swap3\n      pop\n      pop\n      dup2\n      swap1\n      sstore\n      pop\n        /* \"contracts/Market.sol\":10986:10989  100 */\n      0x64\n        /* \"contracts/Market.sol\":10973:10976  app */\n      immutable(\"0x911a39fbf665a24ad3b6efc185d4b936bbda1900793ae2f7c00f4d18bdd96685\")\n      sub(shl(0xa0, 0x01), 0x01)\n        /* \"contracts/Market.sol\":10973:10981  app.aVig */\n      and\n      0x54cd1a5c\n        /* \"contracts/Market.sol\":10973:10983  app.aVig() */\n      mload(0x40)\n      dup2\n      0xffffffff\n      and\n      0xe0\n      shl\n      dup2\n      mstore\n      0x04\n      add\n      0x20\n      mload(0x40)\n      dup1\n      dup4\n      sub\n      dup2\n      dup7\n      dup1\n      extcodesize\n      iszero\n      dup1\n      iszero\n      tag_370\n      jumpi\n      0x00\n      dup1\n      revert\n    tag_370:\n      pop\n      gas\n      staticcall\n      iszero\n      dup1\n      iszero\n      tag_372\n      jumpi\n      returndatasize\n      0x00\n      dup1\n      returndatacopy\n      revert(0x00, returndatasize)\n    tag_372:\n      pop\n      pop\n      pop\n      pop\n      mload(0x40)\n      returndatasize\n      not(0x1f)\n      0x1f\n      dup3\n      add\n      and\n      dup3\n      add\n      dup1\n      0x40\n      mstore\n      pop\n      dup2\n      add\n      swap1\n      tag_373\n      swap2\n      swap1\n      tag_101\n      jump\t// in\n    tag_373:\n        /* \"contracts/Market.sol\":10961:10983  vigAmount * app.aVig() */\n      tag_374\n      swap1\n        /* \"contracts/Market.sol\":10961:10970  vigAmount */\n      dup4\n        /* \"contracts/Market.sol\":10961:10983  vigAmount * app.aVig() */\n      tag_193\n      jump\t// in\n    tag_374:\n        /* \"contracts/Market.sol\":10961:10989  vigAmount * app.aVig() / 100 */\n      tag_375\n      swap2\n      swap1\n      tag_195\n      jump\t// in\n    tag_375:\n      sub(shl(0xa0, 0x01), 0x01)\n        /* \"contracts/Market.sol\":10943:10957  bal[affiliate] */\n      dup5\n      and\n      0x00\n      swap1\n      dup2\n      mstore\n        /* \"contracts/Market.sol\":10943:10946  bal */\n      0x07\n        /* \"contracts/Market.sol\":10943:10957  bal[affiliate] */\n      0x20\n      mstore\n      0x40\n      dup2\n      keccak256\n        /* \"contracts/Market.sol\":10943:10989  bal[affiliate] += vigAmount * app.aVig() / 100 */\n      dup1\n      sload\n        /* \"contracts/Market.sol\":10943:10957  bal[affiliate] */\n      swap1\n      swap2\n      swap1\n        /* \"contracts/Market.sol\":10943:10989  bal[affiliate] += vigAmount * app.aVig() / 100 */\n      tag_376\n      swap1\n      dup5\n      swap1\n      tag_68\n      jump\t// in\n    tag_376:\n      swap1\n      swap2\n      sstore\n      pop\n      pop\n      pop\n        /* \"contracts/Market.sol\":10999:11015  pairsInfo[_pair] */\n      0x00\n      swap5\n      dup6\n      mstore\n      pop\n      pop\n        /* \"contracts/Market.sol\":10999:11008  pairsInfo */\n      0x0a\n        /* \"contracts/Market.sol\":10999:11015  pairsInfo[_pair] */\n      0x20\n      mstore\n      pop\n      pop\n      0x40\n      dup2\n      keccak256\n        /* \"contracts/Market.sol\":10999:11023  pairsInfo[_pair].settled */\n      0x04\n      add\n        /* \"contracts/Market.sol\":10999:11030  pairsInfo[_pair].settled = true */\n      dup1\n      sload\n      not(0xff)\n      and\n        /* \"contracts/Market.sol\":11026:11030  true */\n      0x01\n        /* \"contracts/Market.sol\":10999:11030  pairsInfo[_pair].settled = true */\n      swap1\n      dup2\n      or\n      swap1\n      swap2\n      sstore\n        /* \"@openzeppelin/contracts/security/ReentrancyGuard.sol\":2628:2650  _status = _NOT_ENTERED */\n      swap1\n      dup2\n      swap1\n      sstore\n        /* \"contracts/Market.sol\":11026:11030  true */\n      swap1\n        /* \"contracts/Market.sol\":9699:11058  function _settlePair(bytes32 _pair) private nonReentrant returns(bool) {... */\n      jump\t// out\n        /* \"contracts/Market.sol\":9341:9689  function _cancelPair(bytes32 _pair) private {... */\n    tag_150:\n        /* \"contracts/Market.sol\":9395:9410  address betterA */\n      0x00\n        /* \"contracts/Market.sol\":9422:9438  pairsInfo[_pair] */\n      dup2\n      dup2\n      mstore\n        /* \"contracts/Market.sol\":9422:9431  pairsInfo */\n      0x0a\n        /* \"contracts/Market.sol\":9422:9438  pairsInfo[_pair] */\n      0x20\n      swap1\n      dup2\n      mstore\n      0x40\n      dup1\n      dup4\n      keccak256\n        /* \"contracts/Market.sol\":9422:9447  pairsInfo[_pair].betHashA */\n      dup1\n      sload\n        /* \"contracts/Market.sol\":9413:9448  betsInfo[pairsInfo[_pair].betHashA] */\n      dup5\n      mstore\n        /* \"contracts/Market.sol\":9413:9421  betsInfo */\n      0x08\n        /* \"contracts/Market.sol\":9413:9448  betsInfo[pairsInfo[_pair].betHashA] */\n      dup4\n      mstore\n      dup2\n      dup5\n      keccak256\n        /* \"contracts/Market.sol\":9413:9455  betsInfo[pairsInfo[_pair].betHashA].better */\n      sload\n      0x01\n        /* \"contracts/Market.sol\":9492:9517  pairsInfo[_pair].betHashB */\n      dup3\n      add\n      sload\n        /* \"contracts/Market.sol\":9483:9518  betsInfo[pairsInfo[_pair].betHashB] */\n      dup6\n      mstore\n      dup3\n      dup6\n      keccak256\n        /* \"contracts/Market.sol\":9483:9525  betsInfo[pairsInfo[_pair].betHashB].better */\n      sload\n        /* \"contracts/Market.sol\":9551:9575  pairsInfo[_pair].amountA */\n      0x02\n      swap1\n      swap3\n      add\n      sload\n      sub(shl(0xa0, 0x01), 0x01)\n        /* \"contracts/Market.sol\":9413:9455  betsInfo[pairsInfo[_pair].betHashA].better */\n      swap2\n      dup3\n      and\n        /* \"contracts/Market.sol\":9535:9547  bal[betterA] */\n      dup1\n      dup8\n      mstore\n        /* \"contracts/Market.sol\":9535:9538  bal */\n      0x07\n        /* \"contracts/Market.sol\":9535:9547  bal[betterA] */\n      swap1\n      swap6\n      mstore\n      swap3\n      dup6\n      keccak256\n        /* \"contracts/Market.sol\":9535:9575  bal[betterA] += pairsInfo[_pair].amountA */\n      dup1\n      sload\n        /* \"contracts/Market.sol\":9413:9455  betsInfo[pairsInfo[_pair].betHashA].better */\n      swap5\n      swap6\n        /* \"contracts/Market.sol\":9483:9525  betsInfo[pairsInfo[_pair].betHashB].better */\n      swap2\n      swap1\n      swap3\n      and\n      swap4\n        /* \"contracts/Market.sol\":9535:9575  bal[betterA] += pairsInfo[_pair].amountA */\n      tag_378\n      swap1\n        /* \"contracts/Market.sol\":9551:9575  pairsInfo[_pair].amountA */\n      dup5\n      swap1\n        /* \"contracts/Market.sol\":9535:9575  bal[betterA] += pairsInfo[_pair].amountA */\n      tag_68\n      jump\t// in\n    tag_378:\n      swap1\n      swap2\n      sstore\n      pop\n      pop\n        /* \"contracts/Market.sol\":9601:9617  pairsInfo[_pair] */\n      0x00\n      dup4\n      dup2\n      mstore\n        /* \"contracts/Market.sol\":9601:9610  pairsInfo */\n      0x0a\n        /* \"contracts/Market.sol\":9601:9617  pairsInfo[_pair] */\n      0x20\n      swap1\n      dup2\n      mstore\n      0x40\n      dup1\n      dup4\n      keccak256\n        /* \"contracts/Market.sol\":9601:9625  pairsInfo[_pair].amountB */\n      0x03\n      add\n      sload\n      sub(shl(0xa0, 0x01), 0x01)\n        /* \"contracts/Market.sol\":9585:9597  bal[betterB] */\n      dup6\n      and\n      dup5\n      mstore\n        /* \"contracts/Market.sol\":9585:9588  bal */\n      0x07\n        /* \"contracts/Market.sol\":9585:9597  bal[betterB] */\n      swap1\n      swap3\n      mstore\n      dup3\n      keccak256\n        /* \"contracts/Market.sol\":9585:9625  bal[betterB] += pairsInfo[_pair].amountB */\n      dup1\n      sload\n        /* \"contracts/Market.sol\":9601:9625  pairsInfo[_pair].amountB */\n      swap2\n      swap3\n        /* \"contracts/Market.sol\":9585:9597  bal[betterB] */\n      swap1\n      swap2\n        /* \"contracts/Market.sol\":9585:9625  bal[betterB] += pairsInfo[_pair].amountB */\n      tag_379\n      swap1\n        /* \"contracts/Market.sol\":9601:9625  pairsInfo[_pair].amountB */\n      dup5\n      swap1\n        /* \"contracts/Market.sol\":9585:9625  bal[betterB] += pairsInfo[_pair].amountB */\n      tag_68\n      jump\t// in\n    tag_379:\n      swap1\n      swap2\n      sstore\n      pop\n      pop\n      pop\n        /* \"contracts/Market.sol\":9635:9651  pairsInfo[_pair] */\n      0x00\n      swap2\n      dup3\n      mstore\n      pop\n        /* \"contracts/Market.sol\":9635:9644  pairsInfo */\n      0x0a\n        /* \"contracts/Market.sol\":9635:9651  pairsInfo[_pair] */\n      0x20\n      mstore\n      0x40\n      swap1\n      keccak256\n        /* \"contracts/Market.sol\":9635:9659  pairsInfo[_pair].settled */\n      0x04\n      add\n        /* \"contracts/Market.sol\":9635:9666  pairsInfo[_pair].settled = true */\n      dup1\n      sload\n      not(0xff)\n      and\n        /* \"contracts/Market.sol\":9662:9666  true */\n      0x01\n        /* \"contracts/Market.sol\":9635:9666  pairsInfo[_pair].settled = true */\n      or\n      swap1\n      sstore\n        /* \"contracts/Market.sol\":9341:9689  function _cancelPair(bytes32 _pair) private {... */\n      jump\t// out\n        /* \"contracts/Market.sol\":11064:11871  function _createBet(... */\n    tag_196:\n        /* \"contracts/Market.sol\":11263:11270  bytes32 */\n      0x00\n        /* \"contracts/Market.sol\":11286:11301  bytes32 betHash */\n      dup1\n        /* \"contracts/Market.sol\":11311:11317  uint i */\n      0x00\n        /* \"contracts/Market.sol\":11331:11680  while(i >= 0){... */\n    tag_381:\n        /* \"contracts/Market.sol\":11468:11472  bets */\n      0x05\n        /* \"contracts/Market.sol\":11468:11479  bets.length */\n      sload\n        /* \"contracts/Market.sol\":11412:11419  _better */\n      dup10\n      swap1\n        /* \"contracts/Market.sol\":11445:11449  this */\n      address\n      swap1\n        /* \"contracts/Market.sol\":11486:11487  i */\n      dup4\n      swap1\n        /* \"contracts/Market.sol\":11468:11483  bets.length + 1 */\n      tag_383\n      swap1\n        /* \"contracts/Market.sol\":11482:11483  1 */\n      0x01\n        /* \"contracts/Market.sol\":11468:11483  bets.length + 1 */\n      tag_68\n      jump\t// in\n    tag_383:\n        /* \"contracts/Market.sol\":11468:11487  bets.length + 1 + i */\n      tag_384\n      swap2\n      swap1\n      tag_68\n      jump\t// in\n    tag_384:\n        /* \"contracts/Market.sol\":11378:11568  abi.encodePacked(... */\n      mload(0x40)\n      not(0xffffffffffffffffffffffff)\n        /* \"#utility.yul\":2447:2449   */\n      0x60\n        /* \"#utility.yul\":2443:2458   */\n      swap5\n      dup6\n      shl\n        /* \"#utility.yul\":2439:2463   */\n      dup2\n      and\n        /* \"contracts/Market.sol\":11378:11568  abi.encodePacked(... */\n      0x20\n      dup4\n      add\n        /* \"#utility.yul\":2427:2464   */\n      mstore\n        /* \"#utility.yul\":2498:2513   */\n      swap3\n      swap1\n      swap4\n      shl\n        /* \"#utility.yul\":2494:2518   */\n      swap1\n      swap2\n      and\n        /* \"#utility.yul\":2480:2492   */\n      0x34\n      dup4\n      add\n        /* \"#utility.yul\":2473:2519   */\n      mstore\n        /* \"#utility.yul\":2535:2547   */\n      0x48\n      dup3\n      add\n        /* \"#utility.yul\":2528:2556   */\n      mstore\n        /* \"contracts/Market.sol\":11505:11520  block.timestamp */\n      timestamp\n        /* \"#utility.yul\":2572:2584   */\n      0x68\n      dup3\n      add\n        /* \"#utility.yul\":2565:2593   */\n      mstore\n        /* \"contracts/Market.sol\":11538:11554  block.difficulty */\n      difficulty\n        /* \"#utility.yul\":2609:2622   */\n      0x88\n      dup3\n      add\n        /* \"#utility.yul\":2602:2631   */\n      mstore\n        /* \"#utility.yul\":2647:2660   */\n      0xa8\n      add\n        /* \"contracts/Market.sol\":11378:11568  abi.encodePacked(... */\n      0x40\n      dup1\n      mload\n      not(0x1f)\n      dup2\n      dup5\n      sub\n      add\n      dup2\n      mstore\n      swap2\n      dup2\n      mstore\n        /* \"contracts/Market.sol\":11368:11569  keccak256(abi.encodePacked(... */\n      dup2\n      mload\n        /* \"contracts/Market.sol\":11378:11568  abi.encodePacked(... */\n      0x20\n        /* \"contracts/Market.sol\":11368:11569  keccak256(abi.encodePacked(... */\n      swap3\n      dup4\n      add\n      keccak256\n        /* \"contracts/Market.sol\":11586:11603  betsInfo[betHash] */\n      0x00\n      dup2\n      dup2\n      mstore\n        /* \"contracts/Market.sol\":11586:11594  betsInfo */\n      0x08\n        /* \"contracts/Market.sol\":11586:11603  betsInfo[betHash] */\n      swap1\n      swap4\n      mstore\n      swap2\n      keccak256\n        /* \"contracts/Market.sol\":11586:11609  betsInfo[betHash].stake */\n      0x02\n      add\n      sload\n        /* \"contracts/Market.sol\":11368:11569  keccak256(abi.encodePacked(... */\n      swap1\n      swap3\n      pop\n        /* \"contracts/Market.sol\":11583:11653  if(betsInfo[betHash].stake == 0){... */\n      tag_387\n      jumpi\n        /* \"contracts/Market.sol\":11633:11638  break */\n      jump(tag_382)\n        /* \"contracts/Market.sol\":11583:11653  if(betsInfo[betHash].stake == 0){... */\n    tag_387:\n        /* \"contracts/Market.sol\":11666:11669  i++ */\n      dup1\n      tag_388\n      dup2\n      tag_78\n      jump\t// in\n    tag_388:\n      swap2\n      pop\n      pop\n        /* \"contracts/Market.sol\":11331:11680  while(i >= 0){... */\n      jump(tag_381)\n    tag_382:\n      pop\n        /* \"contracts/Market.sol\":11709:11771  MarketBet(_better, _affiliate, _stake, _matched, _odds, _side) */\n      0x40\n      dup1\n      mload\n      0xc0\n      dup2\n      add\n      dup3\n      mstore\n      sub(shl(0xa0, 0x01), 0x01)\n      swap10\n      dup11\n      and\n      dup1\n      dup3\n      mstore\n      swap9\n      dup11\n      and\n      0x20\n      dup1\n      dup4\n      add\n      swap2\n      dup3\n      mstore\n      dup3\n      dup5\n      add\n      swap10\n      dup11\n      mstore\n      0x60\n      dup4\n      add\n      swap9\n      dup10\n      mstore\n      0x80\n      dup4\n      add\n      swap8\n      dup9\n      mstore\n      0xa0\n      dup4\n      add\n      swap7\n      dup8\n      mstore\n      0x00\n        /* \"contracts/Market.sol\":11689:11706  betsInfo[betHash] */\n      dup6\n      dup2\n      mstore\n        /* \"contracts/Market.sol\":11689:11697  betsInfo */\n      0x08\n        /* \"contracts/Market.sol\":11689:11706  betsInfo[betHash] */\n      dup3\n      mstore\n      dup5\n      dup2\n      keccak256\n        /* \"contracts/Market.sol\":11689:11771  betsInfo[betHash] = MarketBet(_better, _affiliate, _stake, _matched, _odds, _side) */\n      swap4\n      mload\n      dup5\n      sload\n      swap1\n      dup15\n      and\n      not(sub(shl(0xa0, 0x01), 0x01))\n      swap2\n      dup3\n      and\n      or\n      dup6\n      sstore\n      swap3\n      mload\n      0x01\n      dup1\n      dup7\n      add\n      dup1\n      sload\n      swap3\n      swap1\n      swap16\n      and\n      swap2\n      swap1\n      swap5\n      and\n      or\n      swap1\n      swap13\n      sstore\n      swap9\n      mload\n      0x02\n      dup4\n      add\n      sstore\n      swap7\n      mload\n      0x03\n      dup3\n      add\n      sstore\n      swap5\n      mload\n      0x04\n      dup7\n      add\n      sstore\n      swap3\n      mload\n      0x05\n      swap5\n      dup6\n      add\n      sstore\n        /* \"contracts/Market.sol\":11781:11799  bets.push(betHash) */\n      dup4\n      sload\n      dup1\n      dup7\n      add\n      swap1\n      swap5\n      sstore\n      0x036b6384b5eca791c62761152d0c79bb0604c104a5fb6f4eb0703f3154bb3db0\n      swap1\n      swap4\n      add\n      dup4\n      swap1\n      sstore\n      pop\n        /* \"contracts/Market.sol\":11809:11826  userBets[_better] */\n      swap4\n      dup6\n      mstore\n        /* \"contracts/Market.sol\":11809:11817  userBets */\n      0x09\n        /* \"contracts/Market.sol\":11809:11826  userBets[_better] */\n      dup4\n      mstore\n      swap3\n      dup5\n      keccak256\n        /* \"contracts/Market.sol\":11809:11840  userBets[_better].push(betHash) */\n      dup1\n      sload\n      swap2\n      dup3\n      add\n      dup2\n      sstore\n      dup5\n      mstore\n      swap3\n      keccak256\n      swap1\n      swap2\n      add\n      dup2\n      swap1\n      sstore\n        /* \"contracts/Market.sol\":11689:11706  betsInfo[betHash] */\n      swap1\n        /* \"contracts/Market.sol\":11064:11871  function _createBet(... */\n      jump\t// out\n        /* \"contracts/Market.sol\":11877:12609  function _createPair(... */\n    tag_227:\n        /* \"contracts/Market.sol\":12035:12042  bytes32 */\n      0x00\n        /* \"contracts/Market.sol\":12058:12074  bytes32 pairHash */\n      dup1\n        /* \"contracts/Market.sol\":12084:12090  uint i */\n      0x00\n        /* \"contracts/Market.sol\":12104:12457  while(i >= 0){... */\n    tag_392:\n        /* \"contracts/Market.sol\":12240:12245  pairs */\n      0x04\n        /* \"contracts/Market.sol\":12240:12252  pairs.length */\n      sload\n        /* \"contracts/Market.sol\":12186:12195  _betHashA */\n      dup8\n      swap1\n        /* \"contracts/Market.sol\":12213:12222  _betHashB */\n      dup8\n      swap1\n        /* \"contracts/Market.sol\":12259:12260  i */\n      dup4\n      swap1\n        /* \"contracts/Market.sol\":12240:12256  pairs.length + 1 */\n      tag_394\n      swap1\n        /* \"contracts/Market.sol\":12255:12256  1 */\n      0x01\n        /* \"contracts/Market.sol\":12240:12256  pairs.length + 1 */\n      tag_68\n      jump\t// in\n    tag_394:\n        /* \"contracts/Market.sol\":12240:12260  pairs.length + 1 + i */\n      tag_395\n      swap2\n      swap1\n      tag_68\n      jump\t// in\n    tag_395:\n        /* \"contracts/Market.sol\":12152:12341  abi.encodePacked(... */\n      0x40\n      dup1\n      mload\n      0x20\n      dup2\n      add\n        /* \"#utility.yul\":2912:2931   */\n      swap5\n      swap1\n      swap5\n      mstore\n        /* \"#utility.yul\":2947:2959   */\n      dup4\n      add\n        /* \"#utility.yul\":2940:2968   */\n      swap2\n      swap1\n      swap2\n      mstore\n        /* \"#utility.yul\":2984:2996   */\n      0x60\n      dup3\n      add\n        /* \"#utility.yul\":2977:3005   */\n      mstore\n        /* \"contracts/Market.sol\":12278:12293  block.timestamp */\n      timestamp\n        /* \"#utility.yul\":3021:3033   */\n      0x80\n      dup3\n      add\n        /* \"#utility.yul\":3014:3042   */\n      mstore\n        /* \"contracts/Market.sol\":12311:12327  block.difficulty */\n      difficulty\n        /* \"#utility.yul\":3058:3071   */\n      0xa0\n      dup3\n      add\n        /* \"#utility.yul\":3051:3080   */\n      mstore\n        /* \"#utility.yul\":3096:3109   */\n      0xc0\n      add\n        /* \"contracts/Market.sol\":12152:12341  abi.encodePacked(... */\n      0x40\n      dup1\n      mload\n      not(0x1f)\n      dup2\n      dup5\n      sub\n      add\n      dup2\n      mstore\n      swap2\n      dup2\n      mstore\n        /* \"contracts/Market.sol\":12142:12342  keccak256(abi.encodePacked(... */\n      dup2\n      mload\n        /* \"contracts/Market.sol\":12152:12341  abi.encodePacked(... */\n      0x20\n        /* \"contracts/Market.sol\":12142:12342  keccak256(abi.encodePacked(... */\n      swap3\n      dup4\n      add\n      keccak256\n        /* \"contracts/Market.sol\":12359:12378  pairsInfo[pairHash] */\n      0x00\n      dup2\n      dup2\n      mstore\n        /* \"contracts/Market.sol\":12359:12368  pairsInfo */\n      0x0a\n        /* \"contracts/Market.sol\":12359:12378  pairsInfo[pairHash] */\n      swap1\n      swap4\n      mstore\n      swap2\n      keccak256\n        /* \"contracts/Market.sol\":12359:12386  pairsInfo[pairHash].amountA */\n      0x02\n      add\n      sload\n        /* \"contracts/Market.sol\":12142:12342  keccak256(abi.encodePacked(... */\n      swap1\n      swap3\n      pop\n        /* \"contracts/Market.sol\":12356:12430  if(pairsInfo[pairHash].amountA == 0){... */\n      tag_398\n      jumpi\n        /* \"contracts/Market.sol\":12410:12415  break */\n      jump(tag_393)\n        /* \"contracts/Market.sol\":12356:12430  if(pairsInfo[pairHash].amountA == 0){... */\n    tag_398:\n        /* \"contracts/Market.sol\":12443:12446  i++ */\n      dup1\n      tag_399\n      dup2\n      tag_78\n      jump\t// in\n    tag_399:\n      swap2\n      pop\n      pop\n        /* \"contracts/Market.sol\":12104:12457  while(i >= 0){... */\n      jump(tag_392)\n    tag_393:\n      pop\n        /* \"contracts/Market.sol\":12488:12547  MarketPair(_betHashA, _betHashB, _amountA, _amountB, false) */\n      0x40\n      dup1\n      mload\n      0xa0\n      dup2\n      add\n      dup3\n      mstore\n      swap7\n      dup8\n      mstore\n      0x20\n      dup1\n      dup9\n      add\n      swap7\n      dup8\n      mstore\n      dup8\n      dup3\n      add\n      swap6\n      dup7\n      mstore\n      0x60\n      dup9\n      add\n      swap5\n      dup6\n      mstore\n      0x00\n      0x80\n      dup10\n      add\n      dup2\n      dup2\n      mstore\n        /* \"contracts/Market.sol\":12466:12485  pairsInfo[pairHash] */\n      dup5\n      dup3\n      mstore\n        /* \"contracts/Market.sol\":12466:12475  pairsInfo */\n      0x0a\n        /* \"contracts/Market.sol\":12466:12485  pairsInfo[pairHash] */\n      swap1\n      swap3\n      mstore\n      swap2\n      dup3\n      keccak256\n        /* \"contracts/Market.sol\":12466:12547  pairsInfo[pairHash] = MarketPair(_betHashA, _betHashB, _amountA, _amountB, false) */\n      swap8\n      mload\n      dup9\n      sstore\n      swap6\n      mload\n        /* \"contracts/Market.sol\":12488:12547  MarketPair(_betHashA, _betHashB, _amountA, _amountB, false) */\n      0x01\n        /* \"contracts/Market.sol\":12466:12547  pairsInfo[pairHash] = MarketPair(_betHashA, _betHashB, _amountA, _amountB, false) */\n      dup1\n      dup10\n      add\n      swap2\n      swap1\n      swap2\n      sstore\n      swap5\n      mload\n      0x02\n      dup9\n      add\n      sstore\n      swap3\n      mload\n      0x03\n      dup8\n      add\n      sstore\n      swap4\n      mload\n      0x04\n      swap6\n      dup7\n      add\n      dup1\n      sload\n      not(0xff)\n      and\n      swap2\n      iszero\n      iszero\n      swap2\n      swap1\n      swap2\n      or\n      swap1\n      sstore\n      pop\n        /* \"contracts/Market.sol\":12557:12577  pairs.push(pairHash) */\n      dup4\n      sload\n      swap2\n      dup3\n      add\n      dup5\n      sstore\n      swap3\n      swap1\n      swap3\n      mstore\n      0x8a35acfbc15ff81a39ae7d344fd709f28e8600b4aa8c65c6b64bfe7fe36bd19b\n      swap1\n      swap2\n      add\n      dup2\n      swap1\n      sstore\n        /* \"contracts/Market.sol\":12466:12485  pairsInfo[pairHash] */\n      swap1\n        /* \"contracts/Market.sol\":11877:12609  function _createPair(... */\n      jump\t// out\n        /* \"#utility.yul\":14:271   */\n    tag_25:\n        /* \"#utility.yul\":73:79   */\n      0x00\n        /* \"#utility.yul\":126:128   */\n      0x20\n        /* \"#utility.yul\":114:123   */\n      dup3\n        /* \"#utility.yul\":105:112   */\n      dup5\n        /* \"#utility.yul\":101:124   */\n      sub\n        /* \"#utility.yul\":97:129   */\n      slt\n        /* \"#utility.yul\":94:96   */\n      iszero\n      tag_403\n      jumpi\n        /* \"#utility.yul\":147:153   */\n      dup1\n        /* \"#utility.yul\":139:145   */\n      dup2\n        /* \"#utility.yul\":132:154   */\n      revert\n        /* \"#utility.yul\":94:96   */\n    tag_403:\n        /* \"#utility.yul\":191:200   */\n      dup2\n        /* \"#utility.yul\":178:201   */\n      calldataload\n        /* \"#utility.yul\":210:241   */\n      tag_404\n        /* \"#utility.yul\":235:240   */\n      dup2\n        /* \"#utility.yul\":210:241   */\n      tag_405\n      jump\t// in\n    tag_404:\n        /* \"#utility.yul\":260:265   */\n      swap4\n        /* \"#utility.yul\":84:271   */\n      swap3\n      pop\n      pop\n      pop\n      jump\t// out\n        /* \"#utility.yul\":276:537   */\n    tag_136:\n        /* \"#utility.yul\":346:352   */\n      0x00\n        /* \"#utility.yul\":399:401   */\n      0x20\n        /* \"#utility.yul\":387:396   */\n      dup3\n        /* \"#utility.yul\":378:385   */\n      dup5\n        /* \"#utility.yul\":374:397   */\n      sub\n        /* \"#utility.yul\":370:402   */\n      slt\n        /* \"#utility.yul\":367:369   */\n      iszero\n      tag_407\n      jumpi\n        /* \"#utility.yul\":420:426   */\n      dup1\n        /* \"#utility.yul\":412:418   */\n      dup2\n        /* \"#utility.yul\":405:427   */\n      revert\n        /* \"#utility.yul\":367:369   */\n    tag_407:\n        /* \"#utility.yul\":457:466   */\n      dup2\n        /* \"#utility.yul\":451:467   */\n      mload\n        /* \"#utility.yul\":476:507   */\n      tag_404\n        /* \"#utility.yul\":501:506   */\n      dup2\n        /* \"#utility.yul\":476:507   */\n      tag_405\n      jump\t// in\n        /* \"#utility.yul\":542:1282   */\n    tag_42:\n        /* \"#utility.yul\":643:649   */\n      0x00\n        /* \"#utility.yul\":651:657   */\n      dup1\n        /* \"#utility.yul\":659:665   */\n      0x00\n        /* \"#utility.yul\":667:673   */\n      dup1\n        /* \"#utility.yul\":675:681   */\n      0x00\n        /* \"#utility.yul\":683:689   */\n      dup1\n        /* \"#utility.yul\":736:739   */\n      0xc0\n        /* \"#utility.yul\":724:733   */\n      dup8\n        /* \"#utility.yul\":715:722   */\n      dup10\n        /* \"#utility.yul\":711:734   */\n      sub\n        /* \"#utility.yul\":707:740   */\n      slt\n        /* \"#utility.yul\":704:706   */\n      iszero\n      tag_410\n      jumpi\n        /* \"#utility.yul\":758:764   */\n      dup2\n        /* \"#utility.yul\":750:756   */\n      dup3\n        /* \"#utility.yul\":743:765   */\n      revert\n        /* \"#utility.yul\":704:706   */\n    tag_410:\n        /* \"#utility.yul\":802:811   */\n      dup7\n        /* \"#utility.yul\":789:812   */\n      calldataload\n        /* \"#utility.yul\":821:852   */\n      tag_411\n        /* \"#utility.yul\":846:851   */\n      dup2\n        /* \"#utility.yul\":821:852   */\n      tag_405\n      jump\t// in\n    tag_411:\n        /* \"#utility.yul\":871:876   */\n      swap6\n      pop\n        /* \"#utility.yul\":928:930   */\n      0x20\n        /* \"#utility.yul\":913:931   */\n      dup8\n      add\n        /* \"#utility.yul\":900:932   */\n      calldataload\n        /* \"#utility.yul\":941:974   */\n      tag_412\n        /* \"#utility.yul\":900:932   */\n      dup2\n        /* \"#utility.yul\":941:974   */\n      tag_405\n      jump\t// in\n    tag_412:\n        /* \"#utility.yul\":993:1000   */\n      swap5\n      pop\n        /* \"#utility.yul\":1047:1049   */\n      0x40\n        /* \"#utility.yul\":1032:1050   */\n      dup8\n      add\n        /* \"#utility.yul\":1019:1051   */\n      calldataload\n      swap4\n      pop\n        /* \"#utility.yul\":1098:1100   */\n      0x60\n        /* \"#utility.yul\":1083:1101   */\n      dup8\n      add\n        /* \"#utility.yul\":1070:1102   */\n      calldataload\n      swap3\n      pop\n        /* \"#utility.yul\":1149:1152   */\n      0x80\n        /* \"#utility.yul\":1134:1153   */\n      dup8\n      add\n        /* \"#utility.yul\":1121:1154   */\n      calldataload\n      swap2\n      pop\n        /* \"#utility.yul\":1206:1209   */\n      0xa0\n        /* \"#utility.yul\":1191:1210   */\n      dup8\n      add\n        /* \"#utility.yul\":1178:1211   */\n      calldataload\n        /* \"#utility.yul\":1220:1250   */\n      tag_413\n        /* \"#utility.yul\":1178:1211   */\n      dup2\n        /* \"#utility.yul\":1220:1250   */\n      tag_414\n      jump\t// in\n    tag_413:\n        /* \"#utility.yul\":1269:1276   */\n      dup1\n        /* \"#utility.yul\":1259:1276   */\n      swap2\n      pop\n      pop\n        /* \"#utility.yul\":694:1282   */\n      swap3\n      swap6\n      pop\n      swap3\n      swap6\n      pop\n      swap3\n      swap6\n      jump\t// out\n        /* \"#utility.yul\":1287:1542   */\n    tag_113:\n        /* \"#utility.yul\":1354:1360   */\n      0x00\n        /* \"#utility.yul\":1407:1409   */\n      0x20\n        /* \"#utility.yul\":1395:1404   */\n      dup3\n        /* \"#utility.yul\":1386:1393   */\n      dup5\n        /* \"#utility.yul\":1382:1405   */\n      sub\n        /* \"#utility.yul\":1378:1410   */\n      slt\n        /* \"#utility.yul\":1375:1377   */\n      iszero\n      tag_416\n      jumpi\n        /* \"#utility.yul\":1428:1434   */\n      dup1\n        /* \"#utility.yul\":1420:1426   */\n      dup2\n        /* \"#utility.yul\":1413:1435   */\n      revert\n        /* \"#utility.yul\":1375:1377   */\n    tag_416:\n        /* \"#utility.yul\":1465:1474   */\n      dup2\n        /* \"#utility.yul\":1459:1475   */\n      mload\n        /* \"#utility.yul\":1484:1512   */\n      tag_404\n        /* \"#utility.yul\":1506:1511   */\n      dup2\n        /* \"#utility.yul\":1484:1512   */\n      tag_414\n      jump\t// in\n        /* \"#utility.yul\":1547:1737   */\n    tag_21:\n        /* \"#utility.yul\":1606:1612   */\n      0x00\n        /* \"#utility.yul\":1659:1661   */\n      0x20\n        /* \"#utility.yul\":1647:1656   */\n      dup3\n        /* \"#utility.yul\":1638:1645   */\n      dup5\n        /* \"#utility.yul\":1634:1657   */\n      sub\n        /* \"#utility.yul\":1630:1662   */\n      slt\n        /* \"#utility.yul\":1627:1629   */\n      iszero\n      tag_419\n      jumpi\n        /* \"#utility.yul\":1680:1686   */\n      dup1\n        /* \"#utility.yul\":1672:1678   */\n      dup2\n        /* \"#utility.yul\":1665:1687   */\n      revert\n        /* \"#utility.yul\":1627:1629   */\n    tag_419:\n      pop\n        /* \"#utility.yul\":1708:1731   */\n      calldataload\n      swap2\n        /* \"#utility.yul\":1617:1737   */\n      swap1\n      pop\n      jump\t// out\n        /* \"#utility.yul\":1937:2131   */\n    tag_101:\n        /* \"#utility.yul\":2007:2013   */\n      0x00\n        /* \"#utility.yul\":2060:2062   */\n      0x20\n        /* \"#utility.yul\":2048:2057   */\n      dup3\n        /* \"#utility.yul\":2039:2046   */\n      dup5\n        /* \"#utility.yul\":2035:2058   */\n      sub\n        /* \"#utility.yul\":2031:2063   */\n      slt\n        /* \"#utility.yul\":2028:2030   */\n      iszero\n      tag_423\n      jumpi\n        /* \"#utility.yul\":2081:2087   */\n      dup1\n        /* \"#utility.yul\":2073:2079   */\n      dup2\n        /* \"#utility.yul\":2066:2088   */\n      revert\n        /* \"#utility.yul\":2028:2030   */\n    tag_423:\n      pop\n        /* \"#utility.yul\":2109:2125   */\n      mload\n      swap2\n        /* \"#utility.yul\":2018:2131   */\n      swap1\n      pop\n      jump\t// out\n        /* \"#utility.yul\":4892:6042   */\n    tag_28:\n        /* \"#utility.yul\":5117:5119   */\n      0x20\n        /* \"#utility.yul\":5169:5190   */\n      dup1\n      dup3\n      mstore\n        /* \"#utility.yul\":5239:5252   */\n      dup3\n      mload\n        /* \"#utility.yul\":5142:5160   */\n      dup3\n      dup3\n      add\n        /* \"#utility.yul\":5261:5283   */\n      dup2\n      swap1\n      mstore\n        /* \"#utility.yul\":5088:5092   */\n      0x00\n      swap2\n        /* \"#utility.yul\":5117:5119   */\n      swap1\n        /* \"#utility.yul\":5302:5304   */\n      0x40\n      swap1\n        /* \"#utility.yul\":5320:5338   */\n      dup2\n      dup6\n      add\n      swap1\n        /* \"#utility.yul\":5361:5376   */\n      dup7\n      dup5\n      add\n        /* \"#utility.yul\":5088:5092   */\n      dup6\n        /* \"#utility.yul\":5407:6016   */\n    tag_432:\n        /* \"#utility.yul\":5421:5427   */\n      dup3\n        /* \"#utility.yul\":5418:5419   */\n      dup2\n        /* \"#utility.yul\":5415:5428   */\n      lt\n        /* \"#utility.yul\":5407:6016   */\n      iszero\n      tag_434\n      jumpi\n        /* \"#utility.yul\":5480:5493   */\n      dup2\n      mload\n        /* \"#utility.yul\":5564:5573   */\n      dup1\n      mload\n      sub(shl(0xa0, 0x01), 0x01)\n        /* \"#utility.yul\":5560:5578   */\n      swap1\n      dup2\n      and\n        /* \"#utility.yul\":5548:5579   */\n      dup7\n      mstore\n        /* \"#utility.yul\":5623:5634   */\n      dup8\n      dup3\n      add\n        /* \"#utility.yul\":5617:5635   */\n      mload\n        /* \"#utility.yul\":5613:5640   */\n      and\n        /* \"#utility.yul\":5599:5611   */\n      dup8\n      dup7\n      add\n        /* \"#utility.yul\":5592:5641   */\n      mstore\n        /* \"#utility.yul\":5681:5692   */\n      dup6\n      dup2\n      add\n        /* \"#utility.yul\":5675:5693   */\n      mload\n        /* \"#utility.yul\":5661:5673   */\n      dup7\n      dup7\n      add\n        /* \"#utility.yul\":5654:5694   */\n      mstore\n        /* \"#utility.yul\":5717:5721   */\n      0x60\n        /* \"#utility.yul\":5761:5772   */\n      dup1\n      dup3\n      add\n        /* \"#utility.yul\":5755:5773   */\n      mload\n        /* \"#utility.yul\":5741:5753   */\n      swap1\n      dup7\n      add\n        /* \"#utility.yul\":5734:5774   */\n      mstore\n        /* \"#utility.yul\":5797:5801   */\n      0x80\n        /* \"#utility.yul\":5841:5852   */\n      dup1\n      dup3\n      add\n        /* \"#utility.yul\":5835:5853   */\n      mload\n        /* \"#utility.yul\":5821:5833   */\n      swap1\n      dup7\n      add\n        /* \"#utility.yul\":5814:5854   */\n      mstore\n        /* \"#utility.yul\":5524:5527   */\n      0xa0\n        /* \"#utility.yul\":5921:5932   */\n      swap1\n      dup2\n      add\n        /* \"#utility.yul\":5915:5933   */\n      mload\n        /* \"#utility.yul\":5901:5913   */\n      swap1\n      dup6\n      add\n        /* \"#utility.yul\":5894:5934   */\n      mstore\n        /* \"#utility.yul\":5963:5967   */\n      0xc0\n        /* \"#utility.yul\":5954:5968   */\n      swap1\n      swap4\n      add\n      swap3\n        /* \"#utility.yul\":5991:6006   */\n      swap1\n      dup6\n      add\n      swap1\n        /* \"#utility.yul\":5533:5534   */\n      0x01\n        /* \"#utility.yul\":5436:5445   */\n      add\n        /* \"#utility.yul\":5407:6016   */\n      jump(tag_432)\n    tag_434:\n      pop\n        /* \"#utility.yul\":6033:6036   */\n      swap2\n      swap8\n        /* \"#utility.yul\":5097:6042   */\n      swap7\n      pop\n      pop\n      pop\n      pop\n      pop\n      pop\n      pop\n      jump\t// out\n        /* \"#utility.yul\":8138:8463   */\n    tag_140:\n        /* \"#utility.yul\":8340:8342   */\n      0x20\n        /* \"#utility.yul\":8322:8343   */\n      dup1\n      dup3\n      mstore\n        /* \"#utility.yul\":8379:8380   */\n      0x02\n        /* \"#utility.yul\":8359:8377   */\n      swap1\n      dup3\n      add\n        /* \"#utility.yul\":8352:8381   */\n      mstore\n      shl(0xf0, 0x4d31)\n        /* \"#utility.yul\":8412:8414   */\n      0x40\n        /* \"#utility.yul\":8397:8415   */\n      dup3\n      add\n        /* \"#utility.yul\":8390:8422   */\n      mstore\n        /* \"#utility.yul\":8454:8456   */\n      0x60\n        /* \"#utility.yul\":8439:8457   */\n      add\n      swap1\n        /* \"#utility.yul\":8312:8463   */\n      jump\t// out\n        /* \"#utility.yul\":10001:10129   */\n    tag_68:\n        /* \"#utility.yul\":10041:10044   */\n      0x00\n        /* \"#utility.yul\":10072:10073   */\n      dup3\n        /* \"#utility.yul\":10068:10074   */\n      not\n        /* \"#utility.yul\":10065:10066   */\n      dup3\n        /* \"#utility.yul\":10062:10075   */\n      gt\n        /* \"#utility.yul\":10059:10061   */\n      iszero\n      tag_450\n      jumpi\n        /* \"#utility.yul\":10078:10096   */\n      tag_450\n      tag_451\n      jump\t// in\n    tag_450:\n      pop\n        /* \"#utility.yul\":10114:10123   */\n      add\n      swap1\n        /* \"#utility.yul\":10049:10129   */\n      jump\t// out\n        /* \"#utility.yul\":10134:10351   */\n    tag_195:\n        /* \"#utility.yul\":10174:10175   */\n      0x00\n        /* \"#utility.yul\":10200:10201   */\n      dup3\n        /* \"#utility.yul\":10190:10192   */\n      tag_453\n      jumpi\n      shl(0xe0, 0x4e487b71)\n        /* \"#utility.yul\":10225:10256   */\n      dup2\n      mstore\n        /* \"#utility.yul\":10279:10283   */\n      0x12\n        /* \"#utility.yul\":10276:10277   */\n      0x04\n        /* \"#utility.yul\":10269:10284   */\n      mstore\n        /* \"#utility.yul\":10307:10311   */\n      0x24\n        /* \"#utility.yul\":10232:10233   */\n      dup2\n        /* \"#utility.yul\":10297:10312   */\n      revert\n        /* \"#utility.yul\":10190:10192   */\n    tag_453:\n      pop\n        /* \"#utility.yul\":10336:10345   */\n      div\n      swap1\n        /* \"#utility.yul\":10180:10351   */\n      jump\t// out\n        /* \"#utility.yul\":10356:10524   */\n    tag_193:\n        /* \"#utility.yul\":10396:10403   */\n      0x00\n        /* \"#utility.yul\":10462:10463   */\n      dup2\n        /* \"#utility.yul\":10458:10459   */\n      0x00\n        /* \"#utility.yul\":10454:10460   */\n      not\n        /* \"#utility.yul\":10450:10464   */\n      div\n        /* \"#utility.yul\":10447:10448   */\n      dup4\n        /* \"#utility.yul\":10444:10465   */\n      gt\n        /* \"#utility.yul\":10439:10440   */\n      dup3\n        /* \"#utility.yul\":10432:10441   */\n      iszero\n        /* \"#utility.yul\":10425:10442   */\n      iszero\n        /* \"#utility.yul\":10421:10466   */\n      and\n        /* \"#utility.yul\":10418:10420   */\n      iszero\n      tag_456\n      jumpi\n        /* \"#utility.yul\":10469:10487   */\n      tag_456\n      tag_451\n      jump\t// in\n    tag_456:\n      pop\n        /* \"#utility.yul\":10509:10518   */\n      mul\n      swap1\n        /* \"#utility.yul\":10408:10524   */\n      jump\t// out\n        /* \"#utility.yul\":10529:10654   */\n    tag_66:\n        /* \"#utility.yul\":10569:10573   */\n      0x00\n        /* \"#utility.yul\":10597:10598   */\n      dup3\n        /* \"#utility.yul\":10594:10595   */\n      dup3\n        /* \"#utility.yul\":10591:10599   */\n      lt\n        /* \"#utility.yul\":10588:10590   */\n      iszero\n      tag_459\n      jumpi\n        /* \"#utility.yul\":10602:10620   */\n      tag_459\n      tag_451\n      jump\t// in\n    tag_459:\n      pop\n        /* \"#utility.yul\":10639:10648   */\n      sub\n      swap1\n        /* \"#utility.yul\":10578:10654   */\n      jump\t// out\n        /* \"#utility.yul\":10659:10794   */\n    tag_78:\n        /* \"#utility.yul\":10698:10701   */\n      0x00\n      not(0x00)\n        /* \"#utility.yul\":10719:10736   */\n      dup3\n      eq\n        /* \"#utility.yul\":10716:10718   */\n      iszero\n      tag_462\n      jumpi\n        /* \"#utility.yul\":10739:10757   */\n      tag_462\n      tag_451\n      jump\t// in\n    tag_462:\n      pop\n        /* \"#utility.yul\":10786:10787   */\n      0x01\n        /* \"#utility.yul\":10775:10788   */\n      add\n      swap1\n        /* \"#utility.yul\":10706:10794   */\n      jump\t// out\n        /* \"#utility.yul\":10799:10926   */\n    tag_451:\n        /* \"#utility.yul\":10860:10870   */\n      0x4e487b71\n        /* \"#utility.yul\":10855:10858   */\n      0xe0\n        /* \"#utility.yul\":10851:10871   */\n      shl\n        /* \"#utility.yul\":10848:10849   */\n      0x00\n        /* \"#utility.yul\":10841:10872   */\n      mstore\n        /* \"#utility.yul\":10891:10895   */\n      0x11\n        /* \"#utility.yul\":10888:10889   */\n      0x04\n        /* \"#utility.yul\":10881:10896   */\n      mstore\n        /* \"#utility.yul\":10915:10919   */\n      0x24\n        /* \"#utility.yul\":10912:10913   */\n      0x00\n        /* \"#utility.yul\":10905:10920   */\n      revert\n        /* \"#utility.yul\":10931:11062   */\n    tag_405:\n      sub(shl(0xa0, 0x01), 0x01)\n        /* \"#utility.yul\":11006:11037   */\n      dup2\n      and\n        /* \"#utility.yul\":10996:11038   */\n      dup2\n      eq\n        /* \"#utility.yul\":10986:10988   */\n      tag_295\n      jumpi\n        /* \"#utility.yul\":11052:11053   */\n      0x00\n        /* \"#utility.yul\":11049:11050   */\n      dup1\n        /* \"#utility.yul\":11042:11054   */\n      revert\n        /* \"#utility.yul\":11067:11185   */\n    tag_414:\n        /* \"#utility.yul\":11153:11158   */\n      dup1\n        /* \"#utility.yul\":11146:11159   */\n      iszero\n        /* \"#utility.yul\":11139:11160   */\n      iszero\n        /* \"#utility.yul\":11132:11137   */\n      dup2\n        /* \"#utility.yul\":11129:11161   */\n      eq\n        /* \"#utility.yul\":11119:11121   */\n      tag_295\n      jumpi\n        /* \"#utility.yul\":11175:11176   */\n      0x00\n        /* \"#utility.yul\":11172:11173   */\n      dup1\n        /* \"#utility.yul\":11165:11177   */\n      revert\n\n    auxdata: 0xa26469706673582212208f5190af09906f36c9b1d4efa322b19b770e11df0446043dfb9e06dbc55e759d64736f6c63430008040033\n}\n",
				"bytecode": {
					"linkReferences": {},
					"object": "60c0604052600060035560025460601b6001600160601b03191660a0523480156200002957600080fd5b50604051620026e9380380620026e98339810160408190526200004c9162000102565b6001600081905580546001600160a01b03199081166001600160a01b0384161790915560028054339216821790556040805162966ed960e31b815290516304b376c891600480820192602092909190829003018186803b158015620000b057600080fd5b505afa158015620000c5573d6000803e3d6000fd5b505050506040513d601f19601f82011682018060405250810190620000eb919062000102565b60601b6001600160601b0319166080525062000132565b60006020828403121562000114578081fd5b81516001600160a01b03811681146200012b578182fd5b9392505050565b60805160601c60a05160601c61250d620001dc600039600081816108260152818161098f01528181610b3901528181610d14015281816112b40152818161143a0152818161169701528181611766015281816118970152818161196601528181611a6d01528181611b3201528181611bdb01528181611ca401528181611d4d0152611e160152600081816105260152818161063501528181610aac0152610c20015261250d6000f3fe608060405234801561001057600080fd5b50600436106100a95760003560e01c80636bfefd6b116100715780636bfefd6b1461013557806378d65b2f1461013d5780638df8280014610150578063be9a655514610163578063c87b31711461016b578063f8b2cb4f1461017e57600080fd5b8063200d2ed2146100ae5780632940ff1e146100ca5780632d56657d146100df57806351cff8d9146100ff578063675f653714610122575b600080fd5b6100b760035481565b6040519081526020015b60405180910390f35b6100dd6100d8366004612345565b6101a7565b005b6100f26100ed366004612284565b610347565b6040516100c19190612375565b61011261010d366004612284565b61049b565b60405190151581526020016100c1565b6100dd610130366004612345565b61073a565b61011261080d565b6100b761014b3660046122c3565b610977565b61011261015e366004612345565b61129b565b610112611421565b6100dd610179366004612345565b611521565b6100b761018c366004612284565b6001600160a01b031660009081526007602052604090205490565b600081815260086020908152604091829020825160c08101845281546001600160a01b0390811680835260018401549091169382019390935260028201549381019390935260038101546060840152600481015460808401526005015460a083015233146102415760405162461bcd60e51b8152602060048201526002602482015261134d60f21b60448201526064015b60405180910390fd5b600081606001518260400151610257919061246c565b82516001600160a01b0316600090815260076020526040812080549293508392909190610285908490612415565b90915550506040808301516000858152600860205291822060030155600654905b818110156103205784600682815481106102d057634e487b7160e01b600052603260045260246000fd5b9060005260206000200154141561030e576006818154811061030257634e487b7160e01b600052603260045260246000fd5b60009182526020822001555b8061031881612483565b9150506102a6565b5033600090815260076020526040902054156103415761033f3361049b565b505b50505050565b6001600160a01b03811660009081526009602090815260408083208054825181850281018501909352808352606094859490939291908301828280156103ac57602002820191906000526020600020905b815481526020019060010190808311610398575b50506005549394506000925050505b8181101561049157600860008483815181106103e757634e487b7160e01b600052603260045260246000fd5b6020908102919091018101518252818101929092526040908101600020815160c08101835281546001600160a01b0390811682526001830154169381019390935260028101549183019190915260038101546060830152600481015460808301526005015460a0820152845185908390811061047357634e487b7160e01b600052603260045260246000fd5b6020026020010181905250808061048990612483565b9150506103bb565b5091949350505050565b6000600260005414156104f05760405162461bcd60e51b815260206004820152601f60248201527f5265656e7472616e637947756172643a207265656e7472616e742063616c6c006044820152606401610238565b600260009081556001600160a01b03838116825260076020526040918290205491516370a0823160e01b815230600482015282917f000000000000000000000000000000000000000000000000000000000000000016906370a082319060240160206040518083038186803b15801561056857600080fd5b505afa15801561057c573d6000803e3d6000fd5b505050506040513d601f19601f820116820180604052508101906105a0919061235d565b101580156105ae5750600081115b6105df5760405162461bcd60e51b8152602060048201526002602482015261269960f11b6044820152606401610238565b6001600160a01b0383166000908152600760205260408120805483929061060790849061246c565b909155505060405163a9059cbb60e01b81526001600160a01b038481166004830152602482018390526000917f00000000000000000000000000000000000000000000000000000000000000009091169063a9059cbb90604401602060405180830381600087803b15801561067b57600080fd5b505af115801561068f573d6000803e3d6000fd5b505050506040513d601f19601f820116820180604052508101906106b39190612329565b9050806106e75760405162461bcd60e51b81526020600482015260026024820152614d3360f01b6044820152606401610238565b604080516001600160a01b0386168152602081018490527f884edad9ce6fa2440d8a54cc123490eb96d2768479d49ff9c7366125a9424364910160405180910390a16001925050505b6001600055919050565b6000818152600b602090815260408083208054825181850281018501909352808352919290919083018282801561079057602002820191906000526020600020905b81548152602001906001019080831161077c575b505083519394506000925050505b818110156107e9576107d68382815181106107c957634e487b7160e01b600052603260045260246000fd5b60200260200101516115cd565b50806107e181612483565b91505061079e565b503360009081526007602052604090205415610808576103413361049b565b505050565b6001546000906001600160a01b03163314806108ca57507f00000000000000000000000000000000000000000000000000000000000000006001600160a01b031663ce606ee06040518163ffffffff1660e01b815260040160206040518083038186803b15801561087d57600080fd5b505afa158015610891573d6000803e3d6000fd5b505050506040513d601f19601f820116820180604052508101906108b591906122a7565b6001600160a01b0316336001600160a01b0316145b806108df57506002546001600160a01b031633145b6108fb5760405162461bcd60e51b8152600401610238906123f9565b600354158061090c57506003546004145b156109715760045460005b81811015610965576109536004828154811061094357634e487b7160e01b600052603260045260246000fd5b9060005260206000200154611f11565b8061095d81612483565b915050610917565b50506003805550600190565b50600090565b60405163332daccf60e01b81523360048201526000907f00000000000000000000000000000000000000000000000000000000000000006001600160a01b03169063332daccf9060240160206040518083038186803b1580156109d957600080fd5b505afa1580156109ed573d6000803e3d6000fd5b505050506040513d601f19601f82011682018060405250810190610a119190612329565b158015610a1e5750600354155b610a4f5760405162461bcd60e51b815260206004820152600260248201526109a760f31b6044820152606401610238565b8260011480610a5e5750826002145b610a8f5760405162461bcd60e51b81526020600482015260026024820152614d3960f01b6044820152606401610238565b604051636eb1769f60e11b815233600482015230602482015285907f00000000000000000000000000000000000000000000000000000000000000006001600160a01b03169063dd62ed3e9060440160206040518083038186803b158015610af657600080fd5b505afa158015610b0a573d6000803e3d6000fd5b505050506040513d601f19601f82011682018060405250810190610b2e919061235d565b10158015610bcc57507f00000000000000000000000000000000000000000000000000000000000000006001600160a01b031663375b3c0a6040518163ffffffff1660e01b815260040160206040518083038186803b158015610b9057600080fd5b505afa158015610ba4573d6000803e3d6000fd5b505050506040513d601f19601f82011682018060405250810190610bc8919061235d565b8510155b610bfe5760405162461bcd60e51b815260206004820152600360248201526204d31360ec1b6044820152606401610238565b6040516323b872dd60e01b8152336004820152306024820152604481018690527f00000000000000000000000000000000000000000000000000000000000000006001600160a01b0316906323b872dd90606401602060405180830381600087803b158015610c6c57600080fd5b505af1158015610c80573d6000803e3d6000fd5b505050506040513d601f19601f82011682018060405250810190610ca49190612329565b610cd65760405162461bcd60e51b81526020600482015260036024820152624d313160e81b6044820152606401610238565b6000610d0588888884610cea60648b61246c565b610cf58b606461244d565b610cff919061242d565b89611fcc565b6006549091501561120557855b7f00000000000000000000000000000000000000000000000000000000000000006001600160a01b031663375b3c0a6040518163ffffffff1660e01b815260040160206040518083038186803b158015610d6b57600080fd5b505afa158015610d7f573d6000803e3d6000fd5b505050506040513d601f19601f82011682018060405250810190610da3919061235d565b81106111ff5760008060005b600654811015610e5557600060068281548110610ddc57634e487b7160e01b600052603260045260246000fd5b906000526020600020015490506008600082815260200190815260200160002060050154891415610e0d5750610e43565b600081815260086020526040902060040154831015610e415760008181526008602052604090206004015491935090915082905b505b80610e4d81612483565b915050610daf565b5087811180610e6c5750600081118015610e6c5750855b156111bc57600060068381548110610e9457634e487b7160e01b600052603260045260246000fd5b6000918252602080832090910154808352600882526040808420815160c08101835281546001600160a01b0390811682526001830154169481019490945260028101549184019190915260038101546060840152600481015460808401526005015460a0830152925090610f0960648c61246c565b82606001518360400151610f1d919061246c565b610f27919061242d565b9050610f3460648261244d565b905060008060008e841161103157839250610f5060648f61246c565b610f5a908561244d565b9150610f6760648361242d565b91508c60011415610fcf57610f7e8a878585612154565b604080518c815260208101899052908101859052606081018490529091507f5de48bb383b4a2aaad84721b80d93429b813651b0eefbd59d32018cfe28215dc906080015b60405180910390a16110cf565b8c6002141561102c57610fe4868b8486612154565b60408051888152602081018d9052908101849052606081018590529091507f5de48bb383b4a2aaad84721b80d93429b813651b0eefbd59d32018cfe28215dc90608001610fc2565b6110cf565b8e925061103f60648f61246c565b8f61104a919061244d565b915061105760648361242d565b91508c6001141561106e57610f7e8a878585612154565b8c600214156110cf57611083868b8486612154565b60408051888152602081018d9052908101849052606081018590529091507f5de48bb383b4a2aaad84721b80d93429b813651b0eefbd59d32018cfe28215dc9060800160405180910390a15b60008a8152600b6020908152604080832080546001818101835591855283852001859055898452818420805491820181558452828420018490558c8352600890915281206003018054859290611126908490612415565b90915550506000868152600860205260408120600301805484929061114c908490612415565b909155505060008681526008602052604090206003810154600290910154611174919061246c565b6111a5576006888154811061119957634e487b7160e01b600052603260045260246000fd5b60009182526020822001555b6111af838a61246c565b98505050505050506111f8565b5050600680546001810182556000919091527ff652222313e28459528d920b65115c16c04f3efc82aaedc97be59f3f377c0d3f018290556111ff565b5050610d12565b5061123b565b600680546001810182556000919091527ff652222313e28459528d920b65115c16c04f3efc82aaedc97be59f3f377c0d3f018190555b60408051338152306020820152908101829052606081018790526080810186905260a081018590527f618f358bb45538682ade624a4a1959053d9dabd20fe300508034b879681b37be9060c00160405180910390a1979650505050505050565b6001546000906001600160a01b031633148061135857507f00000000000000000000000000000000000000000000000000000000000000006001600160a01b031663ce606ee06040518163ffffffff1660e01b815260040160206040518083038186803b15801561130b57600080fd5b505afa15801561131f573d6000803e3d6000fd5b505050506040513d601f19601f8201168201806040525081019061134391906122a7565b6001600160a01b0316336001600160a01b0316145b8061136d57506002546001600160a01b031633145b6113895760405162461bcd60e51b8152600401610238906123f9565b600354158061139a57506003546004145b80156113b0575081600114806113b05750816002145b1561141957600382905560045460005b8181101561140f576113fc600482815481106113ec57634e487b7160e01b600052603260045260246000fd5b90600052602060002001546115cd565b508061140781612483565b9150506113c0565b5060019392505050565b506000919050565b6001546000906001600160a01b03163314806114de57507f00000000000000000000000000000000000000000000000000000000000000006001600160a01b031663ce606ee06040518163ffffffff1660e01b815260040160206040518083038186803b15801561149157600080fd5b505afa1580156114a5573d6000803e3d6000fd5b505050506040513d601f19601f820116820180604052508101906114c991906122a7565b6001600160a01b0316336001600160a01b0316145b806114f357506002546001600160a01b031633145b61150f5760405162461bcd60e51b8152600401610238906123f9565b60035461097157506004600355600190565b6003546115ca576000818152600b602090815260408083208054825181850281018501909352808352919290919083018282801561157e57602002820191906000526020600020905b81548152602001906001019080831161156a575b505083519394506000925050505b81811015610341576115b78382815181106107c957634e487b7160e01b600052603260045260246000fd5b50806115c281612483565b91505061158c565b50565b6000600260005414156116225760405162461bcd60e51b815260206004820152601f60248201527f5265656e7472616e637947756172643a207265656e7472616e742063616c6c006044820152606401610238565b60026000908155828152600a602052604090206004015460ff161561164957506000610730565b6000806000806003546001141561184c576000868152600a6020908152604080832054835260088252918290205482516355c4a8bf60e01b815292516001600160a01b0391821697506064937f0000000000000000000000000000000000000000000000000000000000000000909216926355c4a8bf9260048082019391829003018186803b1580156116db57600080fd5b505afa1580156116ef573d6000803e3d6000fd5b505050506040513d601f19601f82011682018060405250810190611713919061235d565b61171e90606461246c565b6000888152600a602052604090206003015461173a919061244d565b611744919061242d565b6000878152600a60205260409020600201546117609190612415565b915060647f00000000000000000000000000000000000000000000000000000000000000006001600160a01b03166355c4a8bf6040518163ffffffff1660e01b815260040160206040518083038186803b1580156117bd57600080fd5b505afa1580156117d1573d6000803e3d6000fd5b505050506040513d601f19601f820116820180604052508101906117f5919061235d565b6000888152600a6020526040902060030154611811919061244d565b61181b919061242d565b6000878152600a6020908152604080832054835260089091529020600101546001600160a01b031693509050611a5d565b60035460021415611a50576000868152600a6020908152604080832060010154835260088252918290205482516355c4a8bf60e01b815292516001600160a01b0391821697506064937f0000000000000000000000000000000000000000000000000000000000000000909216926355c4a8bf9260048082019391829003018186803b1580156118db57600080fd5b505afa1580156118ef573d6000803e3d6000fd5b505050506040513d601f19601f82011682018060405250810190611913919061235d565b61191e90606461246c565b6000888152600a602052604090206002015461193a919061244d565b611944919061242d565b6000878152600a60205260409020600301546119609190612415565b915060647f00000000000000000000000000000000000000000000000000000000000000006001600160a01b03166355c4a8bf6040518163ffffffff1660e01b815260040160206040518083038186803b1580156119bd57600080fd5b505afa1580156119d1573d6000803e3d6000fd5b505050506040513d601f19601f820116820180604052508101906119f5919061235d565b6000888152600a6020526040902060020154611a11919061244d565b611a1b919061242d565b6000878152600a602090815260408083206001908101548452600890925290912001546001600160a01b031693509050611a5d565b6000945050505050610730565b6001600160a01b038316611aff577f00000000000000000000000000000000000000000000000000000000000000006001600160a01b03166309953b2f6040518163ffffffff1660e01b815260040160206040518083038186803b158015611ac457600080fd5b505afa158015611ad8573d6000803e3d6000fd5b505050506040513d601f19601f82011682018060405250810190611afc91906122a7565b92505b6001600160a01b03841660009081526007602052604081208054849290611b27908490612415565b9250508190555060647f00000000000000000000000000000000000000000000000000000000000000006001600160a01b0316636a0ccd9d6040518163ffffffff1660e01b815260040160206040518083038186803b158015611b8957600080fd5b505afa158015611b9d573d6000803e3d6000fd5b505050506040513d601f19601f82011682018060405250810190611bc1919061235d565b611bcb908361244d565b611bd5919061242d565b600760007f00000000000000000000000000000000000000000000000000000000000000006001600160a01b031663b7640a546040518163ffffffff1660e01b815260040160206040518083038186803b158015611c3257600080fd5b505afa158015611c46573d6000803e3d6000fd5b505050506040513d601f19601f82011682018060405250810190611c6a91906122a7565b6001600160a01b03166001600160a01b031681526020019081526020016000206000828254611c999190612415565b9250508190555060647f00000000000000000000000000000000000000000000000000000000000000006001600160a01b03166328576d456040518163ffffffff1660e01b815260040160206040518083038186803b158015611cfb57600080fd5b505afa158015611d0f573d6000803e3d6000fd5b505050506040513d601f19601f82011682018060405250810190611d33919061235d565b611d3d908361244d565b611d47919061242d565b600760007f00000000000000000000000000000000000000000000000000000000000000006001600160a01b03166309953b2f6040518163ffffffff1660e01b815260040160206040518083038186803b158015611da457600080fd5b505afa158015611db8573d6000803e3d6000fd5b505050506040513d601f19601f82011682018060405250810190611ddc91906122a7565b6001600160a01b03166001600160a01b031681526020019081526020016000206000828254611e0b9190612415565b9250508190555060647f00000000000000000000000000000000000000000000000000000000000000006001600160a01b03166354cd1a5c6040518163ffffffff1660e01b815260040160206040518083038186803b158015611e6d57600080fd5b505afa158015611e81573d6000803e3d6000fd5b505050506040513d601f19601f82011682018060405250810190611ea5919061235d565b611eaf908361244d565b611eb9919061242d565b6001600160a01b03841660009081526007602052604081208054909190611ee1908490612415565b90915550505060009485525050600a602052505060408120600401805460ff191660019081179091559081905590565b6000818152600a6020908152604080832080548452600883528184205460018201548552828520546002909201546001600160a01b039182168087526007909552928520805494959190921693611f69908490612415565b90915550506000838152600a60209081526040808320600301546001600160a01b038516845260079092528220805491929091611fa7908490612415565b909155505050600091825250600a60205260409020600401805460ff19166001179055565b60008060005b600554899030908390611fe6906001612415565b611ff09190612415565b6040516bffffffffffffffffffffffff19606094851b811660208301529290931b9091166034830152604882015242606882015244608882015260a80160408051601f1981840301815291815281516020928301206000818152600890935291206002015490925061206157612073565b8061206b81612483565b915050611fd2565b506040805160c0810182526001600160a01b03998a16808252988a166020808301918252828401998a52606083019889526080830197885260a0830196875260008581526008825284812093518454908e166001600160a01b031991821617855592516001808601805492909f169190941617909c55985160028301559651600382015594516004860155925160059485015583548086019094557f036b6384b5eca791c62761152d0c79bb0604c104a5fb6f4eb0703f3154bb3db09093018390555093855260098352928420805491820181558452922090910181905590565b60008060005b60045487908790839061216e906001612415565b6121789190612415565b60408051602081019490945283019190915260608201524260808201524460a082015260c00160408051601f1981840301815291815281516020928301206000818152600a9093529120600201549092506121d2576121e4565b806121dc81612483565b91505061215a565b506040805160a081018252968752602080880196875287820195865260608801948552600060808901818152848252600a909252918220975188559551600180890191909155945160028801559251600387015593516004958601805460ff19169115159190911790555083549182018455929092527f8a35acfbc15ff81a39ae7d344fd709f28e8600b4aa8c65c6b64bfe7fe36bd19b90910181905590565b600060208284031215612295578081fd5b81356122a0816124b4565b9392505050565b6000602082840312156122b8578081fd5b81516122a0816124b4565b60008060008060008060c087890312156122db578182fd5b86356122e6816124b4565b955060208701356122f6816124b4565b945060408701359350606087013592506080870135915060a087013561231b816124c9565b809150509295509295509295565b60006020828403121561233a578081fd5b81516122a0816124c9565b600060208284031215612356578081fd5b5035919050565b60006020828403121561236e578081fd5b5051919050565b602080825282518282018190526000919060409081850190868401855b828110156123ec57815180516001600160a01b0390811686528782015116878601528581015186860152606080820151908601526080808201519086015260a0908101519085015260c09093019290850190600101612392565b5091979650505050505050565b6020808252600290820152614d3160f01b604082015260600190565b600082198211156124285761242861249e565b500190565b60008261244857634e487b7160e01b81526012600452602481fd5b500490565b60008160001904831182151516156124675761246761249e565b500290565b60008282101561247e5761247e61249e565b500390565b60006000198214156124975761249761249e565b5060010190565b634e487b7160e01b600052601160045260246000fd5b6001600160a01b03811681146115ca57600080fd5b80151581146115ca57600080fdfea26469706673582212208f5190af09906f36c9b1d4efa322b19b770e11df0446043dfb9e06dbc55e759d64736f6c63430008040033",
					"opcodes": "PUSH1 0xC0 PUSH1 0x40 MSTORE PUSH1 0x0 PUSH1 0x3 SSTORE PUSH1 0x2 SLOAD PUSH1 0x60 SHL PUSH1 0x1 PUSH1 0x1 PUSH1 0x60 SHL SUB NOT AND PUSH1 0xA0 MSTORE CALLVALUE DUP1 ISZERO PUSH3 0x29 JUMPI PUSH1 0x0 DUP1 REVERT JUMPDEST POP PUSH1 0x40 MLOAD PUSH3 0x26E9 CODESIZE SUB DUP1 PUSH3 0x26E9 DUP4 CODECOPY DUP2 ADD PUSH1 0x40 DUP2 SWAP1 MSTORE PUSH3 0x4C SWAP2 PUSH3 0x102 JUMP JUMPDEST PUSH1 0x1 PUSH1 0x0 DUP2 SWAP1 SSTORE DUP1 SLOAD PUSH1 0x1 PUSH1 0x1 PUSH1 0xA0 SHL SUB NOT SWAP1 DUP2 AND PUSH1 0x1 PUSH1 0x1 PUSH1 0xA0 SHL SUB DUP5 AND OR SWAP1 SWAP2 SSTORE PUSH1 0x2 DUP1 SLOAD CALLER SWAP3 AND DUP3 OR SWAP1 SSTORE PUSH1 0x40 DUP1 MLOAD PUSH3 0x966ED9 PUSH1 0xE3 SHL DUP2 MSTORE SWAP1 MLOAD PUSH4 0x4B376C8 SWAP2 PUSH1 0x4 DUP1 DUP3 ADD SWAP3 PUSH1 0x20 SWAP3 SWAP1 SWAP2 SWAP1 DUP3 SWAP1 SUB ADD DUP2 DUP7 DUP1 EXTCODESIZE ISZERO DUP1 ISZERO PUSH3 0xB0 JUMPI PUSH1 0x0 DUP1 REVERT JUMPDEST POP GAS STATICCALL ISZERO DUP1 ISZERO PUSH3 0xC5 JUMPI RETURNDATASIZE PUSH1 0x0 DUP1 RETURNDATACOPY RETURNDATASIZE PUSH1 0x0 REVERT JUMPDEST POP POP POP POP PUSH1 0x40 MLOAD RETURNDATASIZE PUSH1 0x1F NOT PUSH1 0x1F DUP3 ADD AND DUP3 ADD DUP1 PUSH1 0x40 MSTORE POP DUP2 ADD SWAP1 PUSH3 0xEB SWAP2 SWAP1 PUSH3 0x102 JUMP JUMPDEST PUSH1 0x60 SHL PUSH1 0x1 PUSH1 0x1 PUSH1 0x60 SHL SUB NOT AND PUSH1 0x80 MSTORE POP PUSH3 0x132 JUMP JUMPDEST PUSH1 0x0 PUSH1 0x20 DUP3 DUP5 SUB SLT ISZERO PUSH3 0x114 JUMPI DUP1 DUP2 REVERT JUMPDEST DUP2 MLOAD PUSH1 0x1 PUSH1 0x1 PUSH1 0xA0 SHL SUB DUP2 AND DUP2 EQ PUSH3 0x12B JUMPI DUP2 DUP3 REVERT JUMPDEST SWAP4 SWAP3 POP POP POP JUMP JUMPDEST PUSH1 0x80 MLOAD PUSH1 0x60 SHR PUSH1 0xA0 MLOAD PUSH1 0x60 SHR PUSH2 0x250D PUSH3 0x1DC PUSH1 0x0 CODECOPY PUSH1 0x0 DUP2 DUP2 PUSH2 0x826 ADD MSTORE DUP2 DUP2 PUSH2 0x98F ADD MSTORE DUP2 DUP2 PUSH2 0xB39 ADD MSTORE DUP2 DUP2 PUSH2 0xD14 ADD MSTORE DUP2 DUP2 PUSH2 0x12B4 ADD MSTORE DUP2 DUP2 PUSH2 0x143A ADD MSTORE DUP2 DUP2 PUSH2 0x1697 ADD MSTORE DUP2 DUP2 PUSH2 0x1766 ADD MSTORE DUP2 DUP2 PUSH2 0x1897 ADD MSTORE DUP2 DUP2 PUSH2 0x1966 ADD MSTORE DUP2 DUP2 PUSH2 0x1A6D ADD MSTORE DUP2 DUP2 PUSH2 0x1B32 ADD MSTORE DUP2 DUP2 PUSH2 0x1BDB ADD MSTORE DUP2 DUP2 PUSH2 0x1CA4 ADD MSTORE DUP2 DUP2 PUSH2 0x1D4D ADD MSTORE PUSH2 0x1E16 ADD MSTORE PUSH1 0x0 DUP2 DUP2 PUSH2 0x526 ADD MSTORE DUP2 DUP2 PUSH2 0x635 ADD MSTORE DUP2 DUP2 PUSH2 0xAAC ADD MSTORE PUSH2 0xC20 ADD MSTORE PUSH2 0x250D PUSH1 0x0 RETURN INVALID PUSH1 0x80 PUSH1 0x40 MSTORE CALLVALUE DUP1 ISZERO PUSH2 0x10 JUMPI PUSH1 0x0 DUP1 REVERT JUMPDEST POP PUSH1 0x4 CALLDATASIZE LT PUSH2 0xA9 JUMPI PUSH1 0x0 CALLDATALOAD PUSH1 0xE0 SHR DUP1 PUSH4 0x6BFEFD6B GT PUSH2 0x71 JUMPI DUP1 PUSH4 0x6BFEFD6B EQ PUSH2 0x135 JUMPI DUP1 PUSH4 0x78D65B2F EQ PUSH2 0x13D JUMPI DUP1 PUSH4 0x8DF82800 EQ PUSH2 0x150 JUMPI DUP1 PUSH4 0xBE9A6555 EQ PUSH2 0x163 JUMPI DUP1 PUSH4 0xC87B3171 EQ PUSH2 0x16B JUMPI DUP1 PUSH4 0xF8B2CB4F EQ PUSH2 0x17E JUMPI PUSH1 0x0 DUP1 REVERT JUMPDEST DUP1 PUSH4 0x200D2ED2 EQ PUSH2 0xAE JUMPI DUP1 PUSH4 0x2940FF1E EQ PUSH2 0xCA JUMPI DUP1 PUSH4 0x2D56657D EQ PUSH2 0xDF JUMPI DUP1 PUSH4 0x51CFF8D9 EQ PUSH2 0xFF JUMPI DUP1 PUSH4 0x675F6537 EQ PUSH2 0x122 JUMPI JUMPDEST PUSH1 0x0 DUP1 REVERT JUMPDEST PUSH2 0xB7 PUSH1 0x3 SLOAD DUP2 JUMP JUMPDEST PUSH1 0x40 MLOAD SWAP1 DUP2 MSTORE PUSH1 0x20 ADD JUMPDEST PUSH1 0x40 MLOAD DUP1 SWAP2 SUB SWAP1 RETURN JUMPDEST PUSH2 0xDD PUSH2 0xD8 CALLDATASIZE PUSH1 0x4 PUSH2 0x2345 JUMP JUMPDEST PUSH2 0x1A7 JUMP JUMPDEST STOP JUMPDEST PUSH2 0xF2 PUSH2 0xED CALLDATASIZE PUSH1 0x4 PUSH2 0x2284 JUMP JUMPDEST PUSH2 0x347 JUMP JUMPDEST PUSH1 0x40 MLOAD PUSH2 0xC1 SWAP2 SWAP1 PUSH2 0x2375 JUMP JUMPDEST PUSH2 0x112 PUSH2 0x10D CALLDATASIZE PUSH1 0x4 PUSH2 0x2284 JUMP JUMPDEST PUSH2 0x49B JUMP JUMPDEST PUSH1 0x40 MLOAD SWAP1 ISZERO ISZERO DUP2 MSTORE PUSH1 0x20 ADD PUSH2 0xC1 JUMP JUMPDEST PUSH2 0xDD PUSH2 0x130 CALLDATASIZE PUSH1 0x4 PUSH2 0x2345 JUMP JUMPDEST PUSH2 0x73A JUMP JUMPDEST PUSH2 0x112 PUSH2 0x80D JUMP JUMPDEST PUSH2 0xB7 PUSH2 0x14B CALLDATASIZE PUSH1 0x4 PUSH2 0x22C3 JUMP JUMPDEST PUSH2 0x977 JUMP JUMPDEST PUSH2 0x112 PUSH2 0x15E CALLDATASIZE PUSH1 0x4 PUSH2 0x2345 JUMP JUMPDEST PUSH2 0x129B JUMP JUMPDEST PUSH2 0x112 PUSH2 0x1421 JUMP JUMPDEST PUSH2 0xDD PUSH2 0x179 CALLDATASIZE PUSH1 0x4 PUSH2 0x2345 JUMP JUMPDEST PUSH2 0x1521 JUMP JUMPDEST PUSH2 0xB7 PUSH2 0x18C CALLDATASIZE PUSH1 0x4 PUSH2 0x2284 JUMP JUMPDEST PUSH1 0x1 PUSH1 0x1 PUSH1 0xA0 SHL SUB AND PUSH1 0x0 SWAP1 DUP2 MSTORE PUSH1 0x7 PUSH1 0x20 MSTORE PUSH1 0x40 SWAP1 KECCAK256 SLOAD SWAP1 JUMP JUMPDEST PUSH1 0x0 DUP2 DUP2 MSTORE PUSH1 0x8 PUSH1 0x20 SWAP1 DUP2 MSTORE PUSH1 0x40 SWAP2 DUP3 SWAP1 KECCAK256 DUP3 MLOAD PUSH1 0xC0 DUP2 ADD DUP5 MSTORE DUP2 SLOAD PUSH1 0x1 PUSH1 0x1 PUSH1 0xA0 SHL SUB SWAP1 DUP2 AND DUP1 DUP4 MSTORE PUSH1 0x1 DUP5 ADD SLOAD SWAP1 SWAP2 AND SWAP4 DUP3 ADD SWAP4 SWAP1 SWAP4 MSTORE PUSH1 0x2 DUP3 ADD SLOAD SWAP4 DUP2 ADD SWAP4 SWAP1 SWAP4 MSTORE PUSH1 0x3 DUP2 ADD SLOAD PUSH1 0x60 DUP5 ADD MSTORE PUSH1 0x4 DUP2 ADD SLOAD PUSH1 0x80 DUP5 ADD MSTORE PUSH1 0x5 ADD SLOAD PUSH1 0xA0 DUP4 ADD MSTORE CALLER EQ PUSH2 0x241 JUMPI PUSH1 0x40 MLOAD PUSH3 0x461BCD PUSH1 0xE5 SHL DUP2 MSTORE PUSH1 0x20 PUSH1 0x4 DUP3 ADD MSTORE PUSH1 0x2 PUSH1 0x24 DUP3 ADD MSTORE PUSH2 0x134D PUSH1 0xF2 SHL PUSH1 0x44 DUP3 ADD MSTORE PUSH1 0x64 ADD JUMPDEST PUSH1 0x40 MLOAD DUP1 SWAP2 SUB SWAP1 REVERT JUMPDEST PUSH1 0x0 DUP2 PUSH1 0x60 ADD MLOAD DUP3 PUSH1 0x40 ADD MLOAD PUSH2 0x257 SWAP2 SWAP1 PUSH2 0x246C JUMP JUMPDEST DUP3 MLOAD PUSH1 0x1 PUSH1 0x1 PUSH1 0xA0 SHL SUB AND PUSH1 0x0 SWAP1 DUP2 MSTORE PUSH1 0x7 PUSH1 0x20 MSTORE PUSH1 0x40 DUP2 KECCAK256 DUP1 SLOAD SWAP3 SWAP4 POP DUP4 SWAP3 SWAP1 SWAP2 SWAP1 PUSH2 0x285 SWAP1 DUP5 SWAP1 PUSH2 0x2415 JUMP JUMPDEST SWAP1 SWAP2 SSTORE POP POP PUSH1 0x40 DUP1 DUP4 ADD MLOAD PUSH1 0x0 DUP6 DUP2 MSTORE PUSH1 0x8 PUSH1 0x20 MSTORE SWAP2 DUP3 KECCAK256 PUSH1 0x3 ADD SSTORE PUSH1 0x6 SLOAD SWAP1 JUMPDEST DUP2 DUP2 LT ISZERO PUSH2 0x320 JUMPI DUP5 PUSH1 0x6 DUP3 DUP2 SLOAD DUP2 LT PUSH2 0x2D0 JUMPI PUSH4 0x4E487B71 PUSH1 0xE0 SHL PUSH1 0x0 MSTORE PUSH1 0x32 PUSH1 0x4 MSTORE PUSH1 0x24 PUSH1 0x0 REVERT JUMPDEST SWAP1 PUSH1 0x0 MSTORE PUSH1 0x20 PUSH1 0x0 KECCAK256 ADD SLOAD EQ ISZERO PUSH2 0x30E JUMPI PUSH1 0x6 DUP2 DUP2 SLOAD DUP2 LT PUSH2 0x302 JUMPI PUSH4 0x4E487B71 PUSH1 0xE0 SHL PUSH1 0x0 MSTORE PUSH1 0x32 PUSH1 0x4 MSTORE PUSH1 0x24 PUSH1 0x0 REVERT JUMPDEST PUSH1 0x0 SWAP2 DUP3 MSTORE PUSH1 0x20 DUP3 KECCAK256 ADD SSTORE JUMPDEST DUP1 PUSH2 0x318 DUP2 PUSH2 0x2483 JUMP JUMPDEST SWAP2 POP POP PUSH2 0x2A6 JUMP JUMPDEST POP CALLER PUSH1 0x0 SWAP1 DUP2 MSTORE PUSH1 0x7 PUSH1 0x20 MSTORE PUSH1 0x40 SWAP1 KECCAK256 SLOAD ISZERO PUSH2 0x341 JUMPI PUSH2 0x33F CALLER PUSH2 0x49B JUMP JUMPDEST POP JUMPDEST POP POP POP POP JUMP JUMPDEST PUSH1 0x1 PUSH1 0x1 PUSH1 0xA0 SHL SUB DUP2 AND PUSH1 0x0 SWAP1 DUP2 MSTORE PUSH1 0x9 PUSH1 0x20 SWAP1 DUP2 MSTORE PUSH1 0x40 DUP1 DUP4 KECCAK256 DUP1 SLOAD DUP3 MLOAD DUP2 DUP6 MUL DUP2 ADD DUP6 ADD SWAP1 SWAP4 MSTORE DUP1 DUP4 MSTORE PUSH1 0x60 SWAP5 DUP6 SWAP5 SWAP1 SWAP4 SWAP3 SWAP2 SWAP1 DUP4 ADD DUP3 DUP3 DUP1 ISZERO PUSH2 0x3AC JUMPI PUSH1 0x20 MUL DUP3 ADD SWAP2 SWAP1 PUSH1 0x0 MSTORE PUSH1 0x20 PUSH1 0x0 KECCAK256 SWAP1 JUMPDEST DUP2 SLOAD DUP2 MSTORE PUSH1 0x20 ADD SWAP1 PUSH1 0x1 ADD SWAP1 DUP1 DUP4 GT PUSH2 0x398 JUMPI JUMPDEST POP POP PUSH1 0x5 SLOAD SWAP4 SWAP5 POP PUSH1 0x0 SWAP3 POP POP POP JUMPDEST DUP2 DUP2 LT ISZERO PUSH2 0x491 JUMPI PUSH1 0x8 PUSH1 0x0 DUP5 DUP4 DUP2 MLOAD DUP2 LT PUSH2 0x3E7 JUMPI PUSH4 0x4E487B71 PUSH1 0xE0 SHL PUSH1 0x0 MSTORE PUSH1 0x32 PUSH1 0x4 MSTORE PUSH1 0x24 PUSH1 0x0 REVERT JUMPDEST PUSH1 0x20 SWAP1 DUP2 MUL SWAP2 SWAP1 SWAP2 ADD DUP2 ADD MLOAD DUP3 MSTORE DUP2 DUP2 ADD SWAP3 SWAP1 SWAP3 MSTORE PUSH1 0x40 SWAP1 DUP2 ADD PUSH1 0x0 KECCAK256 DUP2 MLOAD PUSH1 0xC0 DUP2 ADD DUP4 MSTORE DUP2 SLOAD PUSH1 0x1 PUSH1 0x1 PUSH1 0xA0 SHL SUB SWAP1 DUP2 AND DUP3 MSTORE PUSH1 0x1 DUP4 ADD SLOAD AND SWAP4 DUP2 ADD SWAP4 SWAP1 SWAP4 MSTORE PUSH1 0x2 DUP2 ADD SLOAD SWAP2 DUP4 ADD SWAP2 SWAP1 SWAP2 MSTORE PUSH1 0x3 DUP2 ADD SLOAD PUSH1 0x60 DUP4 ADD MSTORE PUSH1 0x4 DUP2 ADD SLOAD PUSH1 0x80 DUP4 ADD MSTORE PUSH1 0x5 ADD SLOAD PUSH1 0xA0 DUP3 ADD MSTORE DUP5 MLOAD DUP6 SWAP1 DUP4 SWAP1 DUP2 LT PUSH2 0x473 JUMPI PUSH4 0x4E487B71 PUSH1 0xE0 SHL PUSH1 0x0 MSTORE PUSH1 0x32 PUSH1 0x4 MSTORE PUSH1 0x24 PUSH1 0x0 REVERT JUMPDEST PUSH1 0x20 MUL PUSH1 0x20 ADD ADD DUP2 SWAP1 MSTORE POP DUP1 DUP1 PUSH2 0x489 SWAP1 PUSH2 0x2483 JUMP JUMPDEST SWAP2 POP POP PUSH2 0x3BB JUMP JUMPDEST POP SWAP2 SWAP5 SWAP4 POP POP POP POP JUMP JUMPDEST PUSH1 0x0 PUSH1 0x2 PUSH1 0x0 SLOAD EQ ISZERO PUSH2 0x4F0 JUMPI PUSH1 0x40 MLOAD PUSH3 0x461BCD PUSH1 0xE5 SHL DUP2 MSTORE PUSH1 0x20 PUSH1 0x4 DUP3 ADD MSTORE PUSH1 0x1F PUSH1 0x24 DUP3 ADD MSTORE PUSH32 0x5265656E7472616E637947756172643A207265656E7472616E742063616C6C00 PUSH1 0x44 DUP3 ADD MSTORE PUSH1 0x64 ADD PUSH2 0x238 JUMP JUMPDEST PUSH1 0x2 PUSH1 0x0 SWAP1 DUP2 SSTORE PUSH1 0x1 PUSH1 0x1 PUSH1 0xA0 SHL SUB DUP4 DUP2 AND DUP3 MSTORE PUSH1 0x7 PUSH1 0x20 MSTORE PUSH1 0x40 SWAP2 DUP3 SWAP1 KECCAK256 SLOAD SWAP2 MLOAD PUSH4 0x70A08231 PUSH1 0xE0 SHL DUP2 MSTORE ADDRESS PUSH1 0x4 DUP3 ADD MSTORE DUP3 SWAP2 PUSH32 0x0 AND SWAP1 PUSH4 0x70A08231 SWAP1 PUSH1 0x24 ADD PUSH1 0x20 PUSH1 0x40 MLOAD DUP1 DUP4 SUB DUP2 DUP7 DUP1 EXTCODESIZE ISZERO DUP1 ISZERO PUSH2 0x568 JUMPI PUSH1 0x0 DUP1 REVERT JUMPDEST POP GAS STATICCALL ISZERO DUP1 ISZERO PUSH2 0x57C JUMPI RETURNDATASIZE PUSH1 0x0 DUP1 RETURNDATACOPY RETURNDATASIZE PUSH1 0x0 REVERT JUMPDEST POP POP POP POP PUSH1 0x40 MLOAD RETURNDATASIZE PUSH1 0x1F NOT PUSH1 0x1F DUP3 ADD AND DUP3 ADD DUP1 PUSH1 0x40 MSTORE POP DUP2 ADD SWAP1 PUSH2 0x5A0 SWAP2 SWAP1 PUSH2 0x235D JUMP JUMPDEST LT ISZERO DUP1 ISZERO PUSH2 0x5AE JUMPI POP PUSH1 0x0 DUP2 GT JUMPDEST PUSH2 0x5DF JUMPI PUSH1 0x40 MLOAD PUSH3 0x461BCD PUSH1 0xE5 SHL DUP2 MSTORE PUSH1 0x20 PUSH1 0x4 DUP3 ADD MSTORE PUSH1 0x2 PUSH1 0x24 DUP3 ADD MSTORE PUSH2 0x2699 PUSH1 0xF1 SHL PUSH1 0x44 DUP3 ADD MSTORE PUSH1 0x64 ADD PUSH2 0x238 JUMP JUMPDEST PUSH1 0x1 PUSH1 0x1 PUSH1 0xA0 SHL SUB DUP4 AND PUSH1 0x0 SWAP1 DUP2 MSTORE PUSH1 0x7 PUSH1 0x20 MSTORE PUSH1 0x40 DUP2 KECCAK256 DUP1 SLOAD DUP4 SWAP3 SWAP1 PUSH2 0x607 SWAP1 DUP5 SWAP1 PUSH2 0x246C JUMP JUMPDEST SWAP1 SWAP2 SSTORE POP POP PUSH1 0x40 MLOAD PUSH4 0xA9059CBB PUSH1 0xE0 SHL DUP2 MSTORE PUSH1 0x1 PUSH1 0x1 PUSH1 0xA0 SHL SUB DUP5 DUP2 AND PUSH1 0x4 DUP4 ADD MSTORE PUSH1 0x24 DUP3 ADD DUP4 SWAP1 MSTORE PUSH1 0x0 SWAP2 PUSH32 0x0 SWAP1 SWAP2 AND SWAP1 PUSH4 0xA9059CBB SWAP1 PUSH1 0x44 ADD PUSH1 0x20 PUSH1 0x40 MLOAD DUP1 DUP4 SUB DUP2 PUSH1 0x0 DUP8 DUP1 EXTCODESIZE ISZERO DUP1 ISZERO PUSH2 0x67B JUMPI PUSH1 0x0 DUP1 REVERT JUMPDEST POP GAS CALL ISZERO DUP1 ISZERO PUSH2 0x68F JUMPI RETURNDATASIZE PUSH1 0x0 DUP1 RETURNDATACOPY RETURNDATASIZE PUSH1 0x0 REVERT JUMPDEST POP POP POP POP PUSH1 0x40 MLOAD RETURNDATASIZE PUSH1 0x1F NOT PUSH1 0x1F DUP3 ADD AND DUP3 ADD DUP1 PUSH1 0x40 MSTORE POP DUP2 ADD SWAP1 PUSH2 0x6B3 SWAP2 SWAP1 PUSH2 0x2329 JUMP JUMPDEST SWAP1 POP DUP1 PUSH2 0x6E7 JUMPI PUSH1 0x40 MLOAD PUSH3 0x461BCD PUSH1 0xE5 SHL DUP2 MSTORE PUSH1 0x20 PUSH1 0x4 DUP3 ADD MSTORE PUSH1 0x2 PUSH1 0x24 DUP3 ADD MSTORE PUSH2 0x4D33 PUSH1 0xF0 SHL PUSH1 0x44 DUP3 ADD MSTORE PUSH1 0x64 ADD PUSH2 0x238 JUMP JUMPDEST PUSH1 0x40 DUP1 MLOAD PUSH1 0x1 PUSH1 0x1 PUSH1 0xA0 SHL SUB DUP7 AND DUP2 MSTORE PUSH1 0x20 DUP2 ADD DUP5 SWAP1 MSTORE PUSH32 0x884EDAD9CE6FA2440D8A54CC123490EB96D2768479D49FF9C7366125A9424364 SWAP2 ADD PUSH1 0x40 MLOAD DUP1 SWAP2 SUB SWAP1 LOG1 PUSH1 0x1 SWAP3 POP POP POP JUMPDEST PUSH1 0x1 PUSH1 0x0 SSTORE SWAP2 SWAP1 POP JUMP JUMPDEST PUSH1 0x0 DUP2 DUP2 MSTORE PUSH1 0xB PUSH1 0x20 SWAP1 DUP2 MSTORE PUSH1 0x40 DUP1 DUP4 KECCAK256 DUP1 SLOAD DUP3 MLOAD DUP2 DUP6 MUL DUP2 ADD DUP6 ADD SWAP1 SWAP4 MSTORE DUP1 DUP4 MSTORE SWAP2 SWAP3 SWAP1 SWAP2 SWAP1 DUP4 ADD DUP3 DUP3 DUP1 ISZERO PUSH2 0x790 JUMPI PUSH1 0x20 MUL DUP3 ADD SWAP2 SWAP1 PUSH1 0x0 MSTORE PUSH1 0x20 PUSH1 0x0 KECCAK256 SWAP1 JUMPDEST DUP2 SLOAD DUP2 MSTORE PUSH1 0x20 ADD SWAP1 PUSH1 0x1 ADD SWAP1 DUP1 DUP4 GT PUSH2 0x77C JUMPI JUMPDEST POP POP DUP4 MLOAD SWAP4 SWAP5 POP PUSH1 0x0 SWAP3 POP POP POP JUMPDEST DUP2 DUP2 LT ISZERO PUSH2 0x7E9 JUMPI PUSH2 0x7D6 DUP4 DUP3 DUP2 MLOAD DUP2 LT PUSH2 0x7C9 JUMPI PUSH4 0x4E487B71 PUSH1 0xE0 SHL PUSH1 0x0 MSTORE PUSH1 0x32 PUSH1 0x4 MSTORE PUSH1 0x24 PUSH1 0x0 REVERT JUMPDEST PUSH1 0x20 MUL PUSH1 0x20 ADD ADD MLOAD PUSH2 0x15CD JUMP JUMPDEST POP DUP1 PUSH2 0x7E1 DUP2 PUSH2 0x2483 JUMP JUMPDEST SWAP2 POP POP PUSH2 0x79E JUMP JUMPDEST POP CALLER PUSH1 0x0 SWAP1 DUP2 MSTORE PUSH1 0x7 PUSH1 0x20 MSTORE PUSH1 0x40 SWAP1 KECCAK256 SLOAD ISZERO PUSH2 0x808 JUMPI PUSH2 0x341 CALLER PUSH2 0x49B JUMP JUMPDEST POP POP POP JUMP JUMPDEST PUSH1 0x1 SLOAD PUSH1 0x0 SWAP1 PUSH1 0x1 PUSH1 0x1 PUSH1 0xA0 SHL SUB AND CALLER EQ DUP1 PUSH2 0x8CA JUMPI POP PUSH32 0x0 PUSH1 0x1 PUSH1 0x1 PUSH1 0xA0 SHL SUB AND PUSH4 0xCE606EE0 PUSH1 0x40 MLOAD DUP2 PUSH4 0xFFFFFFFF AND PUSH1 0xE0 SHL DUP2 MSTORE PUSH1 0x4 ADD PUSH1 0x20 PUSH1 0x40 MLOAD DUP1 DUP4 SUB DUP2 DUP7 DUP1 EXTCODESIZE ISZERO DUP1 ISZERO PUSH2 0x87D JUMPI PUSH1 0x0 DUP1 REVERT JUMPDEST POP GAS STATICCALL ISZERO DUP1 ISZERO PUSH2 0x891 JUMPI RETURNDATASIZE PUSH1 0x0 DUP1 RETURNDATACOPY RETURNDATASIZE PUSH1 0x0 REVERT JUMPDEST POP POP POP POP PUSH1 0x40 MLOAD RETURNDATASIZE PUSH1 0x1F NOT PUSH1 0x1F DUP3 ADD AND DUP3 ADD DUP1 PUSH1 0x40 MSTORE POP DUP2 ADD SWAP1 PUSH2 0x8B5 SWAP2 SWAP1 PUSH2 0x22A7 JUMP JUMPDEST PUSH1 0x1 PUSH1 0x1 PUSH1 0xA0 SHL SUB AND CALLER PUSH1 0x1 PUSH1 0x1 PUSH1 0xA0 SHL SUB AND EQ JUMPDEST DUP1 PUSH2 0x8DF JUMPI POP PUSH1 0x2 SLOAD PUSH1 0x1 PUSH1 0x1 PUSH1 0xA0 SHL SUB AND CALLER EQ JUMPDEST PUSH2 0x8FB JUMPI PUSH1 0x40 MLOAD PUSH3 0x461BCD PUSH1 0xE5 SHL DUP2 MSTORE PUSH1 0x4 ADD PUSH2 0x238 SWAP1 PUSH2 0x23F9 JUMP JUMPDEST PUSH1 0x3 SLOAD ISZERO DUP1 PUSH2 0x90C JUMPI POP PUSH1 0x3 SLOAD PUSH1 0x4 EQ JUMPDEST ISZERO PUSH2 0x971 JUMPI PUSH1 0x4 SLOAD PUSH1 0x0 JUMPDEST DUP2 DUP2 LT ISZERO PUSH2 0x965 JUMPI PUSH2 0x953 PUSH1 0x4 DUP3 DUP2 SLOAD DUP2 LT PUSH2 0x943 JUMPI PUSH4 0x4E487B71 PUSH1 0xE0 SHL PUSH1 0x0 MSTORE PUSH1 0x32 PUSH1 0x4 MSTORE PUSH1 0x24 PUSH1 0x0 REVERT JUMPDEST SWAP1 PUSH1 0x0 MSTORE PUSH1 0x20 PUSH1 0x0 KECCAK256 ADD SLOAD PUSH2 0x1F11 JUMP JUMPDEST DUP1 PUSH2 0x95D DUP2 PUSH2 0x2483 JUMP JUMPDEST SWAP2 POP POP PUSH2 0x917 JUMP JUMPDEST POP POP PUSH1 0x3 DUP1 SSTORE POP PUSH1 0x1 SWAP1 JUMP JUMPDEST POP PUSH1 0x0 SWAP1 JUMP JUMPDEST PUSH1 0x40 MLOAD PUSH4 0x332DACCF PUSH1 0xE0 SHL DUP2 MSTORE CALLER PUSH1 0x4 DUP3 ADD MSTORE PUSH1 0x0 SWAP1 PUSH32 0x0 PUSH1 0x1 PUSH1 0x1 PUSH1 0xA0 SHL SUB AND SWAP1 PUSH4 0x332DACCF SWAP1 PUSH1 0x24 ADD PUSH1 0x20 PUSH1 0x40 MLOAD DUP1 DUP4 SUB DUP2 DUP7 DUP1 EXTCODESIZE ISZERO DUP1 ISZERO PUSH2 0x9D9 JUMPI PUSH1 0x0 DUP1 REVERT JUMPDEST POP GAS STATICCALL ISZERO DUP1 ISZERO PUSH2 0x9ED JUMPI RETURNDATASIZE PUSH1 0x0 DUP1 RETURNDATACOPY RETURNDATASIZE PUSH1 0x0 REVERT JUMPDEST POP POP POP POP PUSH1 0x40 MLOAD RETURNDATASIZE PUSH1 0x1F NOT PUSH1 0x1F DUP3 ADD AND DUP3 ADD DUP1 PUSH1 0x40 MSTORE POP DUP2 ADD SWAP1 PUSH2 0xA11 SWAP2 SWAP1 PUSH2 0x2329 JUMP JUMPDEST ISZERO DUP1 ISZERO PUSH2 0xA1E JUMPI POP PUSH1 0x3 SLOAD ISZERO JUMPDEST PUSH2 0xA4F JUMPI PUSH1 0x40 MLOAD PUSH3 0x461BCD PUSH1 0xE5 SHL DUP2 MSTORE PUSH1 0x20 PUSH1 0x4 DUP3 ADD MSTORE PUSH1 0x2 PUSH1 0x24 DUP3 ADD MSTORE PUSH2 0x9A7 PUSH1 0xF3 SHL PUSH1 0x44 DUP3 ADD MSTORE PUSH1 0x64 ADD PUSH2 0x238 JUMP JUMPDEST DUP3 PUSH1 0x1 EQ DUP1 PUSH2 0xA5E JUMPI POP DUP3 PUSH1 0x2 EQ JUMPDEST PUSH2 0xA8F JUMPI PUSH1 0x40 MLOAD PUSH3 0x461BCD PUSH1 0xE5 SHL DUP2 MSTORE PUSH1 0x20 PUSH1 0x4 DUP3 ADD MSTORE PUSH1 0x2 PUSH1 0x24 DUP3 ADD MSTORE PUSH2 0x4D39 PUSH1 0xF0 SHL PUSH1 0x44 DUP3 ADD MSTORE PUSH1 0x64 ADD PUSH2 0x238 JUMP JUMPDEST PUSH1 0x40 MLOAD PUSH4 0x6EB1769F PUSH1 0xE1 SHL DUP2 MSTORE CALLER PUSH1 0x4 DUP3 ADD MSTORE ADDRESS PUSH1 0x24 DUP3 ADD MSTORE DUP6 SWAP1 PUSH32 0x0 PUSH1 0x1 PUSH1 0x1 PUSH1 0xA0 SHL SUB AND SWAP1 PUSH4 0xDD62ED3E SWAP1 PUSH1 0x44 ADD PUSH1 0x20 PUSH1 0x40 MLOAD DUP1 DUP4 SUB DUP2 DUP7 DUP1 EXTCODESIZE ISZERO DUP1 ISZERO PUSH2 0xAF6 JUMPI PUSH1 0x0 DUP1 REVERT JUMPDEST POP GAS STATICCALL ISZERO DUP1 ISZERO PUSH2 0xB0A JUMPI RETURNDATASIZE PUSH1 0x0 DUP1 RETURNDATACOPY RETURNDATASIZE PUSH1 0x0 REVERT JUMPDEST POP POP POP POP PUSH1 0x40 MLOAD RETURNDATASIZE PUSH1 0x1F NOT PUSH1 0x1F DUP3 ADD AND DUP3 ADD DUP1 PUSH1 0x40 MSTORE POP DUP2 ADD SWAP1 PUSH2 0xB2E SWAP2 SWAP1 PUSH2 0x235D JUMP JUMPDEST LT ISZERO DUP1 ISZERO PUSH2 0xBCC JUMPI POP PUSH32 0x0 PUSH1 0x1 PUSH1 0x1 PUSH1 0xA0 SHL SUB AND PUSH4 0x375B3C0A PUSH1 0x40 MLOAD DUP2 PUSH4 0xFFFFFFFF AND PUSH1 0xE0 SHL DUP2 MSTORE PUSH1 0x4 ADD PUSH1 0x20 PUSH1 0x40 MLOAD DUP1 DUP4 SUB DUP2 DUP7 DUP1 EXTCODESIZE ISZERO DUP1 ISZERO PUSH2 0xB90 JUMPI PUSH1 0x0 DUP1 REVERT JUMPDEST POP GAS STATICCALL ISZERO DUP1 ISZERO PUSH2 0xBA4 JUMPI RETURNDATASIZE PUSH1 0x0 DUP1 RETURNDATACOPY RETURNDATASIZE PUSH1 0x0 REVERT JUMPDEST POP POP POP POP PUSH1 0x40 MLOAD RETURNDATASIZE PUSH1 0x1F NOT PUSH1 0x1F DUP3 ADD AND DUP3 ADD DUP1 PUSH1 0x40 MSTORE POP DUP2 ADD SWAP1 PUSH2 0xBC8 SWAP2 SWAP1 PUSH2 0x235D JUMP JUMPDEST DUP6 LT ISZERO JUMPDEST PUSH2 0xBFE JUMPI PUSH1 0x40 MLOAD PUSH3 0x461BCD PUSH1 0xE5 SHL DUP2 MSTORE PUSH1 0x20 PUSH1 0x4 DUP3 ADD MSTORE PUSH1 0x3 PUSH1 0x24 DUP3 ADD MSTORE PUSH3 0x4D313 PUSH1 0xEC SHL PUSH1 0x44 DUP3 ADD MSTORE PUSH1 0x64 ADD PUSH2 0x238 JUMP JUMPDEST PUSH1 0x40 MLOAD PUSH4 0x23B872DD PUSH1 0xE0 SHL DUP2 MSTORE CALLER PUSH1 0x4 DUP3 ADD MSTORE ADDRESS PUSH1 0x24 DUP3 ADD MSTORE PUSH1 0x44 DUP2 ADD DUP7 SWAP1 MSTORE PUSH32 0x0 PUSH1 0x1 PUSH1 0x1 PUSH1 0xA0 SHL SUB AND SWAP1 PUSH4 0x23B872DD SWAP1 PUSH1 0x64 ADD PUSH1 0x20 PUSH1 0x40 MLOAD DUP1 DUP4 SUB DUP2 PUSH1 0x0 DUP8 DUP1 EXTCODESIZE ISZERO DUP1 ISZERO PUSH2 0xC6C JUMPI PUSH1 0x0 DUP1 REVERT JUMPDEST POP GAS CALL ISZERO DUP1 ISZERO PUSH2 0xC80 JUMPI RETURNDATASIZE PUSH1 0x0 DUP1 RETURNDATACOPY RETURNDATASIZE PUSH1 0x0 REVERT JUMPDEST POP POP POP POP PUSH1 0x40 MLOAD RETURNDATASIZE PUSH1 0x1F NOT PUSH1 0x1F DUP3 ADD AND DUP3 ADD DUP1 PUSH1 0x40 MSTORE POP DUP2 ADD SWAP1 PUSH2 0xCA4 SWAP2 SWAP1 PUSH2 0x2329 JUMP JUMPDEST PUSH2 0xCD6 JUMPI PUSH1 0x40 MLOAD PUSH3 0x461BCD PUSH1 0xE5 SHL DUP2 MSTORE PUSH1 0x20 PUSH1 0x4 DUP3 ADD MSTORE PUSH1 0x3 PUSH1 0x24 DUP3 ADD MSTORE PUSH3 0x4D3131 PUSH1 0xE8 SHL PUSH1 0x44 DUP3 ADD MSTORE PUSH1 0x64 ADD PUSH2 0x238 JUMP JUMPDEST PUSH1 0x0 PUSH2 0xD05 DUP9 DUP9 DUP9 DUP5 PUSH2 0xCEA PUSH1 0x64 DUP12 PUSH2 0x246C JUMP JUMPDEST PUSH2 0xCF5 DUP12 PUSH1 0x64 PUSH2 0x244D JUMP JUMPDEST PUSH2 0xCFF SWAP2 SWAP1 PUSH2 0x242D JUMP JUMPDEST DUP10 PUSH2 0x1FCC JUMP JUMPDEST PUSH1 0x6 SLOAD SWAP1 SWAP2 POP ISZERO PUSH2 0x1205 JUMPI DUP6 JUMPDEST PUSH32 0x0 PUSH1 0x1 PUSH1 0x1 PUSH1 0xA0 SHL SUB AND PUSH4 0x375B3C0A PUSH1 0x40 MLOAD DUP2 PUSH4 0xFFFFFFFF AND PUSH1 0xE0 SHL DUP2 MSTORE PUSH1 0x4 ADD PUSH1 0x20 PUSH1 0x40 MLOAD DUP1 DUP4 SUB DUP2 DUP7 DUP1 EXTCODESIZE ISZERO DUP1 ISZERO PUSH2 0xD6B JUMPI PUSH1 0x0 DUP1 REVERT JUMPDEST POP GAS STATICCALL ISZERO DUP1 ISZERO PUSH2 0xD7F JUMPI RETURNDATASIZE PUSH1 0x0 DUP1 RETURNDATACOPY RETURNDATASIZE PUSH1 0x0 REVERT JUMPDEST POP POP POP POP PUSH1 0x40 MLOAD RETURNDATASIZE PUSH1 0x1F NOT PUSH1 0x1F DUP3 ADD AND DUP3 ADD DUP1 PUSH1 0x40 MSTORE POP DUP2 ADD SWAP1 PUSH2 0xDA3 SWAP2 SWAP1 PUSH2 0x235D JUMP JUMPDEST DUP2 LT PUSH2 0x11FF JUMPI PUSH1 0x0 DUP1 PUSH1 0x0 JUMPDEST PUSH1 0x6 SLOAD DUP2 LT ISZERO PUSH2 0xE55 JUMPI PUSH1 0x0 PUSH1 0x6 DUP3 DUP2 SLOAD DUP2 LT PUSH2 0xDDC JUMPI PUSH4 0x4E487B71 PUSH1 0xE0 SHL PUSH1 0x0 MSTORE PUSH1 0x32 PUSH1 0x4 MSTORE PUSH1 0x24 PUSH1 0x0 REVERT JUMPDEST SWAP1 PUSH1 0x0 MSTORE PUSH1 0x20 PUSH1 0x0 KECCAK256 ADD SLOAD SWAP1 POP PUSH1 0x8 PUSH1 0x0 DUP3 DUP2 MSTORE PUSH1 0x20 ADD SWAP1 DUP2 MSTORE PUSH1 0x20 ADD PUSH1 0x0 KECCAK256 PUSH1 0x5 ADD SLOAD DUP10 EQ ISZERO PUSH2 0xE0D JUMPI POP PUSH2 0xE43 JUMP JUMPDEST PUSH1 0x0 DUP2 DUP2 MSTORE PUSH1 0x8 PUSH1 0x20 MSTORE PUSH1 0x40 SWAP1 KECCAK256 PUSH1 0x4 ADD SLOAD DUP4 LT ISZERO PUSH2 0xE41 JUMPI PUSH1 0x0 DUP2 DUP2 MSTORE PUSH1 0x8 PUSH1 0x20 MSTORE PUSH1 0x40 SWAP1 KECCAK256 PUSH1 0x4 ADD SLOAD SWAP2 SWAP4 POP SWAP1 SWAP2 POP DUP3 SWAP1 JUMPDEST POP JUMPDEST DUP1 PUSH2 0xE4D DUP2 PUSH2 0x2483 JUMP JUMPDEST SWAP2 POP POP PUSH2 0xDAF JUMP JUMPDEST POP DUP8 DUP2 GT DUP1 PUSH2 0xE6C JUMPI POP PUSH1 0x0 DUP2 GT DUP1 ISZERO PUSH2 0xE6C JUMPI POP DUP6 JUMPDEST ISZERO PUSH2 0x11BC JUMPI PUSH1 0x0 PUSH1 0x6 DUP4 DUP2 SLOAD DUP2 LT PUSH2 0xE94 JUMPI PUSH4 0x4E487B71 PUSH1 0xE0 SHL PUSH1 0x0 MSTORE PUSH1 0x32 PUSH1 0x4 MSTORE PUSH1 0x24 PUSH1 0x0 REVERT JUMPDEST PUSH1 0x0 SWAP2 DUP3 MSTORE PUSH1 0x20 DUP1 DUP4 KECCAK256 SWAP1 SWAP2 ADD SLOAD DUP1 DUP4 MSTORE PUSH1 0x8 DUP3 MSTORE PUSH1 0x40 DUP1 DUP5 KECCAK256 DUP2 MLOAD PUSH1 0xC0 DUP2 ADD DUP4 MSTORE DUP2 SLOAD PUSH1 0x1 PUSH1 0x1 PUSH1 0xA0 SHL SUB SWAP1 DUP2 AND DUP3 MSTORE PUSH1 0x1 DUP4 ADD SLOAD AND SWAP5 DUP2 ADD SWAP5 SWAP1 SWAP5 MSTORE PUSH1 0x2 DUP2 ADD SLOAD SWAP2 DUP5 ADD SWAP2 SWAP1 SWAP2 MSTORE PUSH1 0x3 DUP2 ADD SLOAD PUSH1 0x60 DUP5 ADD MSTORE PUSH1 0x4 DUP2 ADD SLOAD PUSH1 0x80 DUP5 ADD MSTORE PUSH1 0x5 ADD SLOAD PUSH1 0xA0 DUP4 ADD MSTORE SWAP3 POP SWAP1 PUSH2 0xF09 PUSH1 0x64 DUP13 PUSH2 0x246C JUMP JUMPDEST DUP3 PUSH1 0x60 ADD MLOAD DUP4 PUSH1 0x40 ADD MLOAD PUSH2 0xF1D SWAP2 SWAP1 PUSH2 0x246C JUMP JUMPDEST PUSH2 0xF27 SWAP2 SWAP1 PUSH2 0x242D JUMP JUMPDEST SWAP1 POP PUSH2 0xF34 PUSH1 0x64 DUP3 PUSH2 0x244D JUMP JUMPDEST SWAP1 POP PUSH1 0x0 DUP1 PUSH1 0x0 DUP15 DUP5 GT PUSH2 0x1031 JUMPI DUP4 SWAP3 POP PUSH2 0xF50 PUSH1 0x64 DUP16 PUSH2 0x246C JUMP JUMPDEST PUSH2 0xF5A SWAP1 DUP6 PUSH2 0x244D JUMP JUMPDEST SWAP2 POP PUSH2 0xF67 PUSH1 0x64 DUP4 PUSH2 0x242D JUMP JUMPDEST SWAP2 POP DUP13 PUSH1 0x1 EQ ISZERO PUSH2 0xFCF JUMPI PUSH2 0xF7E DUP11 DUP8 DUP6 DUP6 PUSH2 0x2154 JUMP JUMPDEST PUSH1 0x40 DUP1 MLOAD DUP13 DUP2 MSTORE PUSH1 0x20 DUP2 ADD DUP10 SWAP1 MSTORE SWAP1 DUP2 ADD DUP6 SWAP1 MSTORE PUSH1 0x60 DUP2 ADD DUP5 SWAP1 MSTORE SWAP1 SWAP2 POP PUSH32 0x5DE48BB383B4A2AAAD84721B80D93429B813651B0EEFBD59D32018CFE28215DC SWAP1 PUSH1 0x80 ADD JUMPDEST PUSH1 0x40 MLOAD DUP1 SWAP2 SUB SWAP1 LOG1 PUSH2 0x10CF JUMP JUMPDEST DUP13 PUSH1 0x2 EQ ISZERO PUSH2 0x102C JUMPI PUSH2 0xFE4 DUP7 DUP12 DUP5 DUP7 PUSH2 0x2154 JUMP JUMPDEST PUSH1 0x40 DUP1 MLOAD DUP9 DUP2 MSTORE PUSH1 0x20 DUP2 ADD DUP14 SWAP1 MSTORE SWAP1 DUP2 ADD DUP5 SWAP1 MSTORE PUSH1 0x60 DUP2 ADD DUP6 SWAP1 MSTORE SWAP1 SWAP2 POP PUSH32 0x5DE48BB383B4A2AAAD84721B80D93429B813651B0EEFBD59D32018CFE28215DC SWAP1 PUSH1 0x80 ADD PUSH2 0xFC2 JUMP JUMPDEST PUSH2 0x10CF JUMP JUMPDEST DUP15 SWAP3 POP PUSH2 0x103F PUSH1 0x64 DUP16 PUSH2 0x246C JUMP JUMPDEST DUP16 PUSH2 0x104A SWAP2 SWAP1 PUSH2 0x244D JUMP JUMPDEST SWAP2 POP PUSH2 0x1057 PUSH1 0x64 DUP4 PUSH2 0x242D JUMP JUMPDEST SWAP2 POP DUP13 PUSH1 0x1 EQ ISZERO PUSH2 0x106E JUMPI PUSH2 0xF7E DUP11 DUP8 DUP6 DUP6 PUSH2 0x2154 JUMP JUMPDEST DUP13 PUSH1 0x2 EQ ISZERO PUSH2 0x10CF JUMPI PUSH2 0x1083 DUP7 DUP12 DUP5 DUP7 PUSH2 0x2154 JUMP JUMPDEST PUSH1 0x40 DUP1 MLOAD DUP9 DUP2 MSTORE PUSH1 0x20 DUP2 ADD DUP14 SWAP1 MSTORE SWAP1 DUP2 ADD DUP5 SWAP1 MSTORE PUSH1 0x60 DUP2 ADD DUP6 SWAP1 MSTORE SWAP1 SWAP2 POP PUSH32 0x5DE48BB383B4A2AAAD84721B80D93429B813651B0EEFBD59D32018CFE28215DC SWAP1 PUSH1 0x80 ADD PUSH1 0x40 MLOAD DUP1 SWAP2 SUB SWAP1 LOG1 JUMPDEST PUSH1 0x0 DUP11 DUP2 MSTORE PUSH1 0xB PUSH1 0x20 SWAP1 DUP2 MSTORE PUSH1 0x40 DUP1 DUP4 KECCAK256 DUP1 SLOAD PUSH1 0x1 DUP2 DUP2 ADD DUP4 SSTORE SWAP2 DUP6 MSTORE DUP4 DUP6 KECCAK256 ADD DUP6 SWAP1 SSTORE DUP10 DUP5 MSTORE DUP2 DUP5 KECCAK256 DUP1 SLOAD SWAP2 DUP3 ADD DUP2 SSTORE DUP5 MSTORE DUP3 DUP5 KECCAK256 ADD DUP5 SWAP1 SSTORE DUP13 DUP4 MSTORE PUSH1 0x8 SWAP1 SWAP2 MSTORE DUP2 KECCAK256 PUSH1 0x3 ADD DUP1 SLOAD DUP6 SWAP3 SWAP1 PUSH2 0x1126 SWAP1 DUP5 SWAP1 PUSH2 0x2415 JUMP JUMPDEST SWAP1 SWAP2 SSTORE POP POP PUSH1 0x0 DUP7 DUP2 MSTORE PUSH1 0x8 PUSH1 0x20 MSTORE PUSH1 0x40 DUP2 KECCAK256 PUSH1 0x3 ADD DUP1 SLOAD DUP5 SWAP3 SWAP1 PUSH2 0x114C SWAP1 DUP5 SWAP1 PUSH2 0x2415 JUMP JUMPDEST SWAP1 SWAP2 SSTORE POP POP PUSH1 0x0 DUP7 DUP2 MSTORE PUSH1 0x8 PUSH1 0x20 MSTORE PUSH1 0x40 SWAP1 KECCAK256 PUSH1 0x3 DUP2 ADD SLOAD PUSH1 0x2 SWAP1 SWAP2 ADD SLOAD PUSH2 0x1174 SWAP2 SWAP1 PUSH2 0x246C JUMP JUMPDEST PUSH2 0x11A5 JUMPI PUSH1 0x6 DUP9 DUP2 SLOAD DUP2 LT PUSH2 0x1199 JUMPI PUSH4 0x4E487B71 PUSH1 0xE0 SHL PUSH1 0x0 MSTORE PUSH1 0x32 PUSH1 0x4 MSTORE PUSH1 0x24 PUSH1 0x0 REVERT JUMPDEST PUSH1 0x0 SWAP2 DUP3 MSTORE PUSH1 0x20 DUP3 KECCAK256 ADD SSTORE JUMPDEST PUSH2 0x11AF DUP4 DUP11 PUSH2 0x246C JUMP JUMPDEST SWAP9 POP POP POP POP POP POP POP PUSH2 0x11F8 JUMP JUMPDEST POP POP PUSH1 0x6 DUP1 SLOAD PUSH1 0x1 DUP2 ADD DUP3 SSTORE PUSH1 0x0 SWAP2 SWAP1 SWAP2 MSTORE PUSH32 0xF652222313E28459528D920B65115C16C04F3EFC82AAEDC97BE59F3F377C0D3F ADD DUP3 SWAP1 SSTORE PUSH2 0x11FF JUMP JUMPDEST POP POP PUSH2 0xD12 JUMP JUMPDEST POP PUSH2 0x123B JUMP JUMPDEST PUSH1 0x6 DUP1 SLOAD PUSH1 0x1 DUP2 ADD DUP3 SSTORE PUSH1 0x0 SWAP2 SWAP1 SWAP2 MSTORE PUSH32 0xF652222313E28459528D920B65115C16C04F3EFC82AAEDC97BE59F3F377C0D3F ADD DUP2 SWAP1 SSTORE JUMPDEST PUSH1 0x40 DUP1 MLOAD CALLER DUP2 MSTORE ADDRESS PUSH1 0x20 DUP3 ADD MSTORE SWAP1 DUP2 ADD DUP3 SWAP1 MSTORE PUSH1 0x60 DUP2 ADD DUP8 SWAP1 MSTORE PUSH1 0x80 DUP2 ADD DUP7 SWAP1 MSTORE PUSH1 0xA0 DUP2 ADD DUP6 SWAP1 MSTORE PUSH32 0x618F358BB45538682ADE624A4A1959053D9DABD20FE300508034B879681B37BE SWAP1 PUSH1 0xC0 ADD PUSH1 0x40 MLOAD DUP1 SWAP2 SUB SWAP1 LOG1 SWAP8 SWAP7 POP POP POP POP POP POP POP JUMP JUMPDEST PUSH1 0x1 SLOAD PUSH1 0x0 SWAP1 PUSH1 0x1 PUSH1 0x1 PUSH1 0xA0 SHL SUB AND CALLER EQ DUP1 PUSH2 0x1358 JUMPI POP PUSH32 0x0 PUSH1 0x1 PUSH1 0x1 PUSH1 0xA0 SHL SUB AND PUSH4 0xCE606EE0 PUSH1 0x40 MLOAD DUP2 PUSH4 0xFFFFFFFF AND PUSH1 0xE0 SHL DUP2 MSTORE PUSH1 0x4 ADD PUSH1 0x20 PUSH1 0x40 MLOAD DUP1 DUP4 SUB DUP2 DUP7 DUP1 EXTCODESIZE ISZERO DUP1 ISZERO PUSH2 0x130B JUMPI PUSH1 0x0 DUP1 REVERT JUMPDEST POP GAS STATICCALL ISZERO DUP1 ISZERO PUSH2 0x131F JUMPI RETURNDATASIZE PUSH1 0x0 DUP1 RETURNDATACOPY RETURNDATASIZE PUSH1 0x0 REVERT JUMPDEST POP POP POP POP PUSH1 0x40 MLOAD RETURNDATASIZE PUSH1 0x1F NOT PUSH1 0x1F DUP3 ADD AND DUP3 ADD DUP1 PUSH1 0x40 MSTORE POP DUP2 ADD SWAP1 PUSH2 0x1343 SWAP2 SWAP1 PUSH2 0x22A7 JUMP JUMPDEST PUSH1 0x1 PUSH1 0x1 PUSH1 0xA0 SHL SUB AND CALLER PUSH1 0x1 PUSH1 0x1 PUSH1 0xA0 SHL SUB AND EQ JUMPDEST DUP1 PUSH2 0x136D JUMPI POP PUSH1 0x2 SLOAD PUSH1 0x1 PUSH1 0x1 PUSH1 0xA0 SHL SUB AND CALLER EQ JUMPDEST PUSH2 0x1389 JUMPI PUSH1 0x40 MLOAD PUSH3 0x461BCD PUSH1 0xE5 SHL DUP2 MSTORE PUSH1 0x4 ADD PUSH2 0x238 SWAP1 PUSH2 0x23F9 JUMP JUMPDEST PUSH1 0x3 SLOAD ISZERO DUP1 PUSH2 0x139A JUMPI POP PUSH1 0x3 SLOAD PUSH1 0x4 EQ JUMPDEST DUP1 ISZERO PUSH2 0x13B0 JUMPI POP DUP2 PUSH1 0x1 EQ DUP1 PUSH2 0x13B0 JUMPI POP DUP2 PUSH1 0x2 EQ JUMPDEST ISZERO PUSH2 0x1419 JUMPI PUSH1 0x3 DUP3 SWAP1 SSTORE PUSH1 0x4 SLOAD PUSH1 0x0 JUMPDEST DUP2 DUP2 LT ISZERO PUSH2 0x140F JUMPI PUSH2 0x13FC PUSH1 0x4 DUP3 DUP2 SLOAD DUP2 LT PUSH2 0x13EC JUMPI PUSH4 0x4E487B71 PUSH1 0xE0 SHL PUSH1 0x0 MSTORE PUSH1 0x32 PUSH1 0x4 MSTORE PUSH1 0x24 PUSH1 0x0 REVERT JUMPDEST SWAP1 PUSH1 0x0 MSTORE PUSH1 0x20 PUSH1 0x0 KECCAK256 ADD SLOAD PUSH2 0x15CD JUMP JUMPDEST POP DUP1 PUSH2 0x1407 DUP2 PUSH2 0x2483 JUMP JUMPDEST SWAP2 POP POP PUSH2 0x13C0 JUMP JUMPDEST POP PUSH1 0x1 SWAP4 SWAP3 POP POP POP JUMP JUMPDEST POP PUSH1 0x0 SWAP2 SWAP1 POP JUMP JUMPDEST PUSH1 0x1 SLOAD PUSH1 0x0 SWAP1 PUSH1 0x1 PUSH1 0x1 PUSH1 0xA0 SHL SUB AND CALLER EQ DUP1 PUSH2 0x14DE JUMPI POP PUSH32 0x0 PUSH1 0x1 PUSH1 0x1 PUSH1 0xA0 SHL SUB AND PUSH4 0xCE606EE0 PUSH1 0x40 MLOAD DUP2 PUSH4 0xFFFFFFFF AND PUSH1 0xE0 SHL DUP2 MSTORE PUSH1 0x4 ADD PUSH1 0x20 PUSH1 0x40 MLOAD DUP1 DUP4 SUB DUP2 DUP7 DUP1 EXTCODESIZE ISZERO DUP1 ISZERO PUSH2 0x1491 JUMPI PUSH1 0x0 DUP1 REVERT JUMPDEST POP GAS STATICCALL ISZERO DUP1 ISZERO PUSH2 0x14A5 JUMPI RETURNDATASIZE PUSH1 0x0 DUP1 RETURNDATACOPY RETURNDATASIZE PUSH1 0x0 REVERT JUMPDEST POP POP POP POP PUSH1 0x40 MLOAD RETURNDATASIZE PUSH1 0x1F NOT PUSH1 0x1F DUP3 ADD AND DUP3 ADD DUP1 PUSH1 0x40 MSTORE POP DUP2 ADD SWAP1 PUSH2 0x14C9 SWAP2 SWAP1 PUSH2 0x22A7 JUMP JUMPDEST PUSH1 0x1 PUSH1 0x1 PUSH1 0xA0 SHL SUB AND CALLER PUSH1 0x1 PUSH1 0x1 PUSH1 0xA0 SHL SUB AND EQ JUMPDEST DUP1 PUSH2 0x14F3 JUMPI POP PUSH1 0x2 SLOAD PUSH1 0x1 PUSH1 0x1 PUSH1 0xA0 SHL SUB AND CALLER EQ JUMPDEST PUSH2 0x150F JUMPI PUSH1 0x40 MLOAD PUSH3 0x461BCD PUSH1 0xE5 SHL DUP2 MSTORE PUSH1 0x4 ADD PUSH2 0x238 SWAP1 PUSH2 0x23F9 JUMP JUMPDEST PUSH1 0x3 SLOAD PUSH2 0x971 JUMPI POP PUSH1 0x4 PUSH1 0x3 SSTORE PUSH1 0x1 SWAP1 JUMP JUMPDEST PUSH1 0x3 SLOAD PUSH2 0x15CA JUMPI PUSH1 0x0 DUP2 DUP2 MSTORE PUSH1 0xB PUSH1 0x20 SWAP1 DUP2 MSTORE PUSH1 0x40 DUP1 DUP4 KECCAK256 DUP1 SLOAD DUP3 MLOAD DUP2 DUP6 MUL DUP2 ADD DUP6 ADD SWAP1 SWAP4 MSTORE DUP1 DUP4 MSTORE SWAP2 SWAP3 SWAP1 SWAP2 SWAP1 DUP4 ADD DUP3 DUP3 DUP1 ISZERO PUSH2 0x157E JUMPI PUSH1 0x20 MUL DUP3 ADD SWAP2 SWAP1 PUSH1 0x0 MSTORE PUSH1 0x20 PUSH1 0x0 KECCAK256 SWAP1 JUMPDEST DUP2 SLOAD DUP2 MSTORE PUSH1 0x20 ADD SWAP1 PUSH1 0x1 ADD SWAP1 DUP1 DUP4 GT PUSH2 0x156A JUMPI JUMPDEST POP POP DUP4 MLOAD SWAP4 SWAP5 POP PUSH1 0x0 SWAP3 POP POP POP JUMPDEST DUP2 DUP2 LT ISZERO PUSH2 0x341 JUMPI PUSH2 0x15B7 DUP4 DUP3 DUP2 MLOAD DUP2 LT PUSH2 0x7C9 JUMPI PUSH4 0x4E487B71 PUSH1 0xE0 SHL PUSH1 0x0 MSTORE PUSH1 0x32 PUSH1 0x4 MSTORE PUSH1 0x24 PUSH1 0x0 REVERT JUMPDEST POP DUP1 PUSH2 0x15C2 DUP2 PUSH2 0x2483 JUMP JUMPDEST SWAP2 POP POP PUSH2 0x158C JUMP JUMPDEST POP JUMP JUMPDEST PUSH1 0x0 PUSH1 0x2 PUSH1 0x0 SLOAD EQ ISZERO PUSH2 0x1622 JUMPI PUSH1 0x40 MLOAD PUSH3 0x461BCD PUSH1 0xE5 SHL DUP2 MSTORE PUSH1 0x20 PUSH1 0x4 DUP3 ADD MSTORE PUSH1 0x1F PUSH1 0x24 DUP3 ADD MSTORE PUSH32 0x5265656E7472616E637947756172643A207265656E7472616E742063616C6C00 PUSH1 0x44 DUP3 ADD MSTORE PUSH1 0x64 ADD PUSH2 0x238 JUMP JUMPDEST PUSH1 0x2 PUSH1 0x0 SWAP1 DUP2 SSTORE DUP3 DUP2 MSTORE PUSH1 0xA PUSH1 0x20 MSTORE PUSH1 0x40 SWAP1 KECCAK256 PUSH1 0x4 ADD SLOAD PUSH1 0xFF AND ISZERO PUSH2 0x1649 JUMPI POP PUSH1 0x0 PUSH2 0x730 JUMP JUMPDEST PUSH1 0x0 DUP1 PUSH1 0x0 DUP1 PUSH1 0x3 SLOAD PUSH1 0x1 EQ ISZERO PUSH2 0x184C JUMPI PUSH1 0x0 DUP7 DUP2 MSTORE PUSH1 0xA PUSH1 0x20 SWAP1 DUP2 MSTORE PUSH1 0x40 DUP1 DUP4 KECCAK256 SLOAD DUP4 MSTORE PUSH1 0x8 DUP3 MSTORE SWAP2 DUP3 SWAP1 KECCAK256 SLOAD DUP3 MLOAD PUSH4 0x55C4A8BF PUSH1 0xE0 SHL DUP2 MSTORE SWAP3 MLOAD PUSH1 0x1 PUSH1 0x1 PUSH1 0xA0 SHL SUB SWAP2 DUP3 AND SWAP8 POP PUSH1 0x64 SWAP4 PUSH32 0x0 SWAP1 SWAP3 AND SWAP3 PUSH4 0x55C4A8BF SWAP3 PUSH1 0x4 DUP1 DUP3 ADD SWAP4 SWAP2 DUP3 SWAP1 SUB ADD DUP2 DUP7 DUP1 EXTCODESIZE ISZERO DUP1 ISZERO PUSH2 0x16DB JUMPI PUSH1 0x0 DUP1 REVERT JUMPDEST POP GAS STATICCALL ISZERO DUP1 ISZERO PUSH2 0x16EF JUMPI RETURNDATASIZE PUSH1 0x0 DUP1 RETURNDATACOPY RETURNDATASIZE PUSH1 0x0 REVERT JUMPDEST POP POP POP POP PUSH1 0x40 MLOAD RETURNDATASIZE PUSH1 0x1F NOT PUSH1 0x1F DUP3 ADD AND DUP3 ADD DUP1 PUSH1 0x40 MSTORE POP DUP2 ADD SWAP1 PUSH2 0x1713 SWAP2 SWAP1 PUSH2 0x235D JUMP JUMPDEST PUSH2 0x171E SWAP1 PUSH1 0x64 PUSH2 0x246C JUMP JUMPDEST PUSH1 0x0 DUP9 DUP2 MSTORE PUSH1 0xA PUSH1 0x20 MSTORE PUSH1 0x40 SWAP1 KECCAK256 PUSH1 0x3 ADD SLOAD PUSH2 0x173A SWAP2 SWAP1 PUSH2 0x244D JUMP JUMPDEST PUSH2 0x1744 SWAP2 SWAP1 PUSH2 0x242D JUMP JUMPDEST PUSH1 0x0 DUP8 DUP2 MSTORE PUSH1 0xA PUSH1 0x20 MSTORE PUSH1 0x40 SWAP1 KECCAK256 PUSH1 0x2 ADD SLOAD PUSH2 0x1760 SWAP2 SWAP1 PUSH2 0x2415 JUMP JUMPDEST SWAP2 POP PUSH1 0x64 PUSH32 0x0 PUSH1 0x1 PUSH1 0x1 PUSH1 0xA0 SHL SUB AND PUSH4 0x55C4A8BF PUSH1 0x40 MLOAD DUP2 PUSH4 0xFFFFFFFF AND PUSH1 0xE0 SHL DUP2 MSTORE PUSH1 0x4 ADD PUSH1 0x20 PUSH1 0x40 MLOAD DUP1 DUP4 SUB DUP2 DUP7 DUP1 EXTCODESIZE ISZERO DUP1 ISZERO PUSH2 0x17BD JUMPI PUSH1 0x0 DUP1 REVERT JUMPDEST POP GAS STATICCALL ISZERO DUP1 ISZERO PUSH2 0x17D1 JUMPI RETURNDATASIZE PUSH1 0x0 DUP1 RETURNDATACOPY RETURNDATASIZE PUSH1 0x0 REVERT JUMPDEST POP POP POP POP PUSH1 0x40 MLOAD RETURNDATASIZE PUSH1 0x1F NOT PUSH1 0x1F DUP3 ADD AND DUP3 ADD DUP1 PUSH1 0x40 MSTORE POP DUP2 ADD SWAP1 PUSH2 0x17F5 SWAP2 SWAP1 PUSH2 0x235D JUMP JUMPDEST PUSH1 0x0 DUP9 DUP2 MSTORE PUSH1 0xA PUSH1 0x20 MSTORE PUSH1 0x40 SWAP1 KECCAK256 PUSH1 0x3 ADD SLOAD PUSH2 0x1811 SWAP2 SWAP1 PUSH2 0x244D JUMP JUMPDEST PUSH2 0x181B SWAP2 SWAP1 PUSH2 0x242D JUMP JUMPDEST PUSH1 0x0 DUP8 DUP2 MSTORE PUSH1 0xA PUSH1 0x20 SWAP1 DUP2 MSTORE PUSH1 0x40 DUP1 DUP4 KECCAK256 SLOAD DUP4 MSTORE PUSH1 0x8 SWAP1 SWAP2 MSTORE SWAP1 KECCAK256 PUSH1 0x1 ADD SLOAD PUSH1 0x1 PUSH1 0x1 PUSH1 0xA0 SHL SUB AND SWAP4 POP SWAP1 POP PUSH2 0x1A5D JUMP JUMPDEST PUSH1 0x3 SLOAD PUSH1 0x2 EQ ISZERO PUSH2 0x1A50 JUMPI PUSH1 0x0 DUP7 DUP2 MSTORE PUSH1 0xA PUSH1 0x20 SWAP1 DUP2 MSTORE PUSH1 0x40 DUP1 DUP4 KECCAK256 PUSH1 0x1 ADD SLOAD DUP4 MSTORE PUSH1 0x8 DUP3 MSTORE SWAP2 DUP3 SWAP1 KECCAK256 SLOAD DUP3 MLOAD PUSH4 0x55C4A8BF PUSH1 0xE0 SHL DUP2 MSTORE SWAP3 MLOAD PUSH1 0x1 PUSH1 0x1 PUSH1 0xA0 SHL SUB SWAP2 DUP3 AND SWAP8 POP PUSH1 0x64 SWAP4 PUSH32 0x0 SWAP1 SWAP3 AND SWAP3 PUSH4 0x55C4A8BF SWAP3 PUSH1 0x4 DUP1 DUP3 ADD SWAP4 SWAP2 DUP3 SWAP1 SUB ADD DUP2 DUP7 DUP1 EXTCODESIZE ISZERO DUP1 ISZERO PUSH2 0x18DB JUMPI PUSH1 0x0 DUP1 REVERT JUMPDEST POP GAS STATICCALL ISZERO DUP1 ISZERO PUSH2 0x18EF JUMPI RETURNDATASIZE PUSH1 0x0 DUP1 RETURNDATACOPY RETURNDATASIZE PUSH1 0x0 REVERT JUMPDEST POP POP POP POP PUSH1 0x40 MLOAD RETURNDATASIZE PUSH1 0x1F NOT PUSH1 0x1F DUP3 ADD AND DUP3 ADD DUP1 PUSH1 0x40 MSTORE POP DUP2 ADD SWAP1 PUSH2 0x1913 SWAP2 SWAP1 PUSH2 0x235D JUMP JUMPDEST PUSH2 0x191E SWAP1 PUSH1 0x64 PUSH2 0x246C JUMP JUMPDEST PUSH1 0x0 DUP9 DUP2 MSTORE PUSH1 0xA PUSH1 0x20 MSTORE PUSH1 0x40 SWAP1 KECCAK256 PUSH1 0x2 ADD SLOAD PUSH2 0x193A SWAP2 SWAP1 PUSH2 0x244D JUMP JUMPDEST PUSH2 0x1944 SWAP2 SWAP1 PUSH2 0x242D JUMP JUMPDEST PUSH1 0x0 DUP8 DUP2 MSTORE PUSH1 0xA PUSH1 0x20 MSTORE PUSH1 0x40 SWAP1 KECCAK256 PUSH1 0x3 ADD SLOAD PUSH2 0x1960 SWAP2 SWAP1 PUSH2 0x2415 JUMP JUMPDEST SWAP2 POP PUSH1 0x64 PUSH32 0x0 PUSH1 0x1 PUSH1 0x1 PUSH1 0xA0 SHL SUB AND PUSH4 0x55C4A8BF PUSH1 0x40 MLOAD DUP2 PUSH4 0xFFFFFFFF AND PUSH1 0xE0 SHL DUP2 MSTORE PUSH1 0x4 ADD PUSH1 0x20 PUSH1 0x40 MLOAD DUP1 DUP4 SUB DUP2 DUP7 DUP1 EXTCODESIZE ISZERO DUP1 ISZERO PUSH2 0x19BD JUMPI PUSH1 0x0 DUP1 REVERT JUMPDEST POP GAS STATICCALL ISZERO DUP1 ISZERO PUSH2 0x19D1 JUMPI RETURNDATASIZE PUSH1 0x0 DUP1 RETURNDATACOPY RETURNDATASIZE PUSH1 0x0 REVERT JUMPDEST POP POP POP POP PUSH1 0x40 MLOAD RETURNDATASIZE PUSH1 0x1F NOT PUSH1 0x1F DUP3 ADD AND DUP3 ADD DUP1 PUSH1 0x40 MSTORE POP DUP2 ADD SWAP1 PUSH2 0x19F5 SWAP2 SWAP1 PUSH2 0x235D JUMP JUMPDEST PUSH1 0x0 DUP9 DUP2 MSTORE PUSH1 0xA PUSH1 0x20 MSTORE PUSH1 0x40 SWAP1 KECCAK256 PUSH1 0x2 ADD SLOAD PUSH2 0x1A11 SWAP2 SWAP1 PUSH2 0x244D JUMP JUMPDEST PUSH2 0x1A1B SWAP2 SWAP1 PUSH2 0x242D JUMP JUMPDEST PUSH1 0x0 DUP8 DUP2 MSTORE PUSH1 0xA PUSH1 0x20 SWAP1 DUP2 MSTORE PUSH1 0x40 DUP1 DUP4 KECCAK256 PUSH1 0x1 SWAP1 DUP2 ADD SLOAD DUP5 MSTORE PUSH1 0x8 SWAP1 SWAP3 MSTORE SWAP1 SWAP2 KECCAK256 ADD SLOAD PUSH1 0x1 PUSH1 0x1 PUSH1 0xA0 SHL SUB AND SWAP4 POP SWAP1 POP PUSH2 0x1A5D JUMP JUMPDEST PUSH1 0x0 SWAP5 POP POP POP POP POP PUSH2 0x730 JUMP JUMPDEST PUSH1 0x1 PUSH1 0x1 PUSH1 0xA0 SHL SUB DUP4 AND PUSH2 0x1AFF JUMPI PUSH32 0x0 PUSH1 0x1 PUSH1 0x1 PUSH1 0xA0 SHL SUB AND PUSH4 0x9953B2F PUSH1 0x40 MLOAD DUP2 PUSH4 0xFFFFFFFF AND PUSH1 0xE0 SHL DUP2 MSTORE PUSH1 0x4 ADD PUSH1 0x20 PUSH1 0x40 MLOAD DUP1 DUP4 SUB DUP2 DUP7 DUP1 EXTCODESIZE ISZERO DUP1 ISZERO PUSH2 0x1AC4 JUMPI PUSH1 0x0 DUP1 REVERT JUMPDEST POP GAS STATICCALL ISZERO DUP1 ISZERO PUSH2 0x1AD8 JUMPI RETURNDATASIZE PUSH1 0x0 DUP1 RETURNDATACOPY RETURNDATASIZE PUSH1 0x0 REVERT JUMPDEST POP POP POP POP PUSH1 0x40 MLOAD RETURNDATASIZE PUSH1 0x1F NOT PUSH1 0x1F DUP3 ADD AND DUP3 ADD DUP1 PUSH1 0x40 MSTORE POP DUP2 ADD SWAP1 PUSH2 0x1AFC SWAP2 SWAP1 PUSH2 0x22A7 JUMP JUMPDEST SWAP3 POP JUMPDEST PUSH1 0x1 PUSH1 0x1 PUSH1 0xA0 SHL SUB DUP5 AND PUSH1 0x0 SWAP1 DUP2 MSTORE PUSH1 0x7 PUSH1 0x20 MSTORE PUSH1 0x40 DUP2 KECCAK256 DUP1 SLOAD DUP5 SWAP3 SWAP1 PUSH2 0x1B27 SWAP1 DUP5 SWAP1 PUSH2 0x2415 JUMP JUMPDEST SWAP3 POP POP DUP2 SWAP1 SSTORE POP PUSH1 0x64 PUSH32 0x0 PUSH1 0x1 PUSH1 0x1 PUSH1 0xA0 SHL SUB AND PUSH4 0x6A0CCD9D PUSH1 0x40 MLOAD DUP2 PUSH4 0xFFFFFFFF AND PUSH1 0xE0 SHL DUP2 MSTORE PUSH1 0x4 ADD PUSH1 0x20 PUSH1 0x40 MLOAD DUP1 DUP4 SUB DUP2 DUP7 DUP1 EXTCODESIZE ISZERO DUP1 ISZERO PUSH2 0x1B89 JUMPI PUSH1 0x0 DUP1 REVERT JUMPDEST POP GAS STATICCALL ISZERO DUP1 ISZERO PUSH2 0x1B9D JUMPI RETURNDATASIZE PUSH1 0x0 DUP1 RETURNDATACOPY RETURNDATASIZE PUSH1 0x0 REVERT JUMPDEST POP POP POP POP PUSH1 0x40 MLOAD RETURNDATASIZE PUSH1 0x1F NOT PUSH1 0x1F DUP3 ADD AND DUP3 ADD DUP1 PUSH1 0x40 MSTORE POP DUP2 ADD SWAP1 PUSH2 0x1BC1 SWAP2 SWAP1 PUSH2 0x235D JUMP JUMPDEST PUSH2 0x1BCB SWAP1 DUP4 PUSH2 0x244D JUMP JUMPDEST PUSH2 0x1BD5 SWAP2 SWAP1 PUSH2 0x242D JUMP JUMPDEST PUSH1 0x7 PUSH1 0x0 PUSH32 0x0 PUSH1 0x1 PUSH1 0x1 PUSH1 0xA0 SHL SUB AND PUSH4 0xB7640A54 PUSH1 0x40 MLOAD DUP2 PUSH4 0xFFFFFFFF AND PUSH1 0xE0 SHL DUP2 MSTORE PUSH1 0x4 ADD PUSH1 0x20 PUSH1 0x40 MLOAD DUP1 DUP4 SUB DUP2 DUP7 DUP1 EXTCODESIZE ISZERO DUP1 ISZERO PUSH2 0x1C32 JUMPI PUSH1 0x0 DUP1 REVERT JUMPDEST POP GAS STATICCALL ISZERO DUP1 ISZERO PUSH2 0x1C46 JUMPI RETURNDATASIZE PUSH1 0x0 DUP1 RETURNDATACOPY RETURNDATASIZE PUSH1 0x0 REVERT JUMPDEST POP POP POP POP PUSH1 0x40 MLOAD RETURNDATASIZE PUSH1 0x1F NOT PUSH1 0x1F DUP3 ADD AND DUP3 ADD DUP1 PUSH1 0x40 MSTORE POP DUP2 ADD SWAP1 PUSH2 0x1C6A SWAP2 SWAP1 PUSH2 0x22A7 JUMP JUMPDEST PUSH1 0x1 PUSH1 0x1 PUSH1 0xA0 SHL SUB AND PUSH1 0x1 PUSH1 0x1 PUSH1 0xA0 SHL SUB AND DUP2 MSTORE PUSH1 0x20 ADD SWAP1 DUP2 MSTORE PUSH1 0x20 ADD PUSH1 0x0 KECCAK256 PUSH1 0x0 DUP3 DUP3 SLOAD PUSH2 0x1C99 SWAP2 SWAP1 PUSH2 0x2415 JUMP JUMPDEST SWAP3 POP POP DUP2 SWAP1 SSTORE POP PUSH1 0x64 PUSH32 0x0 PUSH1 0x1 PUSH1 0x1 PUSH1 0xA0 SHL SUB AND PUSH4 0x28576D45 PUSH1 0x40 MLOAD DUP2 PUSH4 0xFFFFFFFF AND PUSH1 0xE0 SHL DUP2 MSTORE PUSH1 0x4 ADD PUSH1 0x20 PUSH1 0x40 MLOAD DUP1 DUP4 SUB DUP2 DUP7 DUP1 EXTCODESIZE ISZERO DUP1 ISZERO PUSH2 0x1CFB JUMPI PUSH1 0x0 DUP1 REVERT JUMPDEST POP GAS STATICCALL ISZERO DUP1 ISZERO PUSH2 0x1D0F JUMPI RETURNDATASIZE PUSH1 0x0 DUP1 RETURNDATACOPY RETURNDATASIZE PUSH1 0x0 REVERT JUMPDEST POP POP POP POP PUSH1 0x40 MLOAD RETURNDATASIZE PUSH1 0x1F NOT PUSH1 0x1F DUP3 ADD AND DUP3 ADD DUP1 PUSH1 0x40 MSTORE POP DUP2 ADD SWAP1 PUSH2 0x1D33 SWAP2 SWAP1 PUSH2 0x235D JUMP JUMPDEST PUSH2 0x1D3D SWAP1 DUP4 PUSH2 0x244D JUMP JUMPDEST PUSH2 0x1D47 SWAP2 SWAP1 PUSH2 0x242D JUMP JUMPDEST PUSH1 0x7 PUSH1 0x0 PUSH32 0x0 PUSH1 0x1 PUSH1 0x1 PUSH1 0xA0 SHL SUB AND PUSH4 0x9953B2F PUSH1 0x40 MLOAD DUP2 PUSH4 0xFFFFFFFF AND PUSH1 0xE0 SHL DUP2 MSTORE PUSH1 0x4 ADD PUSH1 0x20 PUSH1 0x40 MLOAD DUP1 DUP4 SUB DUP2 DUP7 DUP1 EXTCODESIZE ISZERO DUP1 ISZERO PUSH2 0x1DA4 JUMPI PUSH1 0x0 DUP1 REVERT JUMPDEST POP GAS STATICCALL ISZERO DUP1 ISZERO PUSH2 0x1DB8 JUMPI RETURNDATASIZE PUSH1 0x0 DUP1 RETURNDATACOPY RETURNDATASIZE PUSH1 0x0 REVERT JUMPDEST POP POP POP POP PUSH1 0x40 MLOAD RETURNDATASIZE PUSH1 0x1F NOT PUSH1 0x1F DUP3 ADD AND DUP3 ADD DUP1 PUSH1 0x40 MSTORE POP DUP2 ADD SWAP1 PUSH2 0x1DDC SWAP2 SWAP1 PUSH2 0x22A7 JUMP JUMPDEST PUSH1 0x1 PUSH1 0x1 PUSH1 0xA0 SHL SUB AND PUSH1 0x1 PUSH1 0x1 PUSH1 0xA0 SHL SUB AND DUP2 MSTORE PUSH1 0x20 ADD SWAP1 DUP2 MSTORE PUSH1 0x20 ADD PUSH1 0x0 KECCAK256 PUSH1 0x0 DUP3 DUP3 SLOAD PUSH2 0x1E0B SWAP2 SWAP1 PUSH2 0x2415 JUMP JUMPDEST SWAP3 POP POP DUP2 SWAP1 SSTORE POP PUSH1 0x64 PUSH32 0x0 PUSH1 0x1 PUSH1 0x1 PUSH1 0xA0 SHL SUB AND PUSH4 0x54CD1A5C PUSH1 0x40 MLOAD DUP2 PUSH4 0xFFFFFFFF AND PUSH1 0xE0 SHL DUP2 MSTORE PUSH1 0x4 ADD PUSH1 0x20 PUSH1 0x40 MLOAD DUP1 DUP4 SUB DUP2 DUP7 DUP1 EXTCODESIZE ISZERO DUP1 ISZERO PUSH2 0x1E6D JUMPI PUSH1 0x0 DUP1 REVERT JUMPDEST POP GAS STATICCALL ISZERO DUP1 ISZERO PUSH2 0x1E81 JUMPI RETURNDATASIZE PUSH1 0x0 DUP1 RETURNDATACOPY RETURNDATASIZE PUSH1 0x0 REVERT JUMPDEST POP POP POP POP PUSH1 0x40 MLOAD RETURNDATASIZE PUSH1 0x1F NOT PUSH1 0x1F DUP3 ADD AND DUP3 ADD DUP1 PUSH1 0x40 MSTORE POP DUP2 ADD SWAP1 PUSH2 0x1EA5 SWAP2 SWAP1 PUSH2 0x235D JUMP JUMPDEST PUSH2 0x1EAF SWAP1 DUP4 PUSH2 0x244D JUMP JUMPDEST PUSH2 0x1EB9 SWAP2 SWAP1 PUSH2 0x242D JUMP JUMPDEST PUSH1 0x1 PUSH1 0x1 PUSH1 0xA0 SHL SUB DUP5 AND PUSH1 0x0 SWAP1 DUP2 MSTORE PUSH1 0x7 PUSH1 0x20 MSTORE PUSH1 0x40 DUP2 KECCAK256 DUP1 SLOAD SWAP1 SWAP2 SWAP1 PUSH2 0x1EE1 SWAP1 DUP5 SWAP1 PUSH2 0x2415 JUMP JUMPDEST SWAP1 SWAP2 SSTORE POP POP POP PUSH1 0x0 SWAP5 DUP6 MSTORE POP POP PUSH1 0xA PUSH1 0x20 MSTORE POP POP PUSH1 0x40 DUP2 KECCAK256 PUSH1 0x4 ADD DUP1 SLOAD PUSH1 0xFF NOT AND PUSH1 0x1 SWAP1 DUP2 OR SWAP1 SWAP2 SSTORE SWAP1 DUP2 SWAP1 SSTORE SWAP1 JUMP JUMPDEST PUSH1 0x0 DUP2 DUP2 MSTORE PUSH1 0xA PUSH1 0x20 SWAP1 DUP2 MSTORE PUSH1 0x40 DUP1 DUP4 KECCAK256 DUP1 SLOAD DUP5 MSTORE PUSH1 0x8 DUP4 MSTORE DUP2 DUP5 KECCAK256 SLOAD PUSH1 0x1 DUP3 ADD SLOAD DUP6 MSTORE DUP3 DUP6 KECCAK256 SLOAD PUSH1 0x2 SWAP1 SWAP3 ADD SLOAD PUSH1 0x1 PUSH1 0x1 PUSH1 0xA0 SHL SUB SWAP2 DUP3 AND DUP1 DUP8 MSTORE PUSH1 0x7 SWAP1 SWAP6 MSTORE SWAP3 DUP6 KECCAK256 DUP1 SLOAD SWAP5 SWAP6 SWAP2 SWAP1 SWAP3 AND SWAP4 PUSH2 0x1F69 SWAP1 DUP5 SWAP1 PUSH2 0x2415 JUMP JUMPDEST SWAP1 SWAP2 SSTORE POP POP PUSH1 0x0 DUP4 DUP2 MSTORE PUSH1 0xA PUSH1 0x20 SWAP1 DUP2 MSTORE PUSH1 0x40 DUP1 DUP4 KECCAK256 PUSH1 0x3 ADD SLOAD PUSH1 0x1 PUSH1 0x1 PUSH1 0xA0 SHL SUB DUP6 AND DUP5 MSTORE PUSH1 0x7 SWAP1 SWAP3 MSTORE DUP3 KECCAK256 DUP1 SLOAD SWAP2 SWAP3 SWAP1 SWAP2 PUSH2 0x1FA7 SWAP1 DUP5 SWAP1 PUSH2 0x2415 JUMP JUMPDEST SWAP1 SWAP2 SSTORE POP POP POP PUSH1 0x0 SWAP2 DUP3 MSTORE POP PUSH1 0xA PUSH1 0x20 MSTORE PUSH1 0x40 SWAP1 KECCAK256 PUSH1 0x4 ADD DUP1 SLOAD PUSH1 0xFF NOT AND PUSH1 0x1 OR SWAP1 SSTORE JUMP JUMPDEST PUSH1 0x0 DUP1 PUSH1 0x0 JUMPDEST PUSH1 0x5 SLOAD DUP10 SWAP1 ADDRESS SWAP1 DUP4 SWAP1 PUSH2 0x1FE6 SWAP1 PUSH1 0x1 PUSH2 0x2415 JUMP JUMPDEST PUSH2 0x1FF0 SWAP2 SWAP1 PUSH2 0x2415 JUMP JUMPDEST PUSH1 0x40 MLOAD PUSH12 0xFFFFFFFFFFFFFFFFFFFFFFFF NOT PUSH1 0x60 SWAP5 DUP6 SHL DUP2 AND PUSH1 0x20 DUP4 ADD MSTORE SWAP3 SWAP1 SWAP4 SHL SWAP1 SWAP2 AND PUSH1 0x34 DUP4 ADD MSTORE PUSH1 0x48 DUP3 ADD MSTORE TIMESTAMP PUSH1 0x68 DUP3 ADD MSTORE DIFFICULTY PUSH1 0x88 DUP3 ADD MSTORE PUSH1 0xA8 ADD PUSH1 0x40 DUP1 MLOAD PUSH1 0x1F NOT DUP2 DUP5 SUB ADD DUP2 MSTORE SWAP2 DUP2 MSTORE DUP2 MLOAD PUSH1 0x20 SWAP3 DUP4 ADD KECCAK256 PUSH1 0x0 DUP2 DUP2 MSTORE PUSH1 0x8 SWAP1 SWAP4 MSTORE SWAP2 KECCAK256 PUSH1 0x2 ADD SLOAD SWAP1 SWAP3 POP PUSH2 0x2061 JUMPI PUSH2 0x2073 JUMP JUMPDEST DUP1 PUSH2 0x206B DUP2 PUSH2 0x2483 JUMP JUMPDEST SWAP2 POP POP PUSH2 0x1FD2 JUMP JUMPDEST POP PUSH1 0x40 DUP1 MLOAD PUSH1 0xC0 DUP2 ADD DUP3 MSTORE PUSH1 0x1 PUSH1 0x1 PUSH1 0xA0 SHL SUB SWAP10 DUP11 AND DUP1 DUP3 MSTORE SWAP9 DUP11 AND PUSH1 0x20 DUP1 DUP4 ADD SWAP2 DUP3 MSTORE DUP3 DUP5 ADD SWAP10 DUP11 MSTORE PUSH1 0x60 DUP4 ADD SWAP9 DUP10 MSTORE PUSH1 0x80 DUP4 ADD SWAP8 DUP9 MSTORE PUSH1 0xA0 DUP4 ADD SWAP7 DUP8 MSTORE PUSH1 0x0 DUP6 DUP2 MSTORE PUSH1 0x8 DUP3 MSTORE DUP5 DUP2 KECCAK256 SWAP4 MLOAD DUP5 SLOAD SWAP1 DUP15 AND PUSH1 0x1 PUSH1 0x1 PUSH1 0xA0 SHL SUB NOT SWAP2 DUP3 AND OR DUP6 SSTORE SWAP3 MLOAD PUSH1 0x1 DUP1 DUP7 ADD DUP1 SLOAD SWAP3 SWAP1 SWAP16 AND SWAP2 SWAP1 SWAP5 AND OR SWAP1 SWAP13 SSTORE SWAP9 MLOAD PUSH1 0x2 DUP4 ADD SSTORE SWAP7 MLOAD PUSH1 0x3 DUP3 ADD SSTORE SWAP5 MLOAD PUSH1 0x4 DUP7 ADD SSTORE SWAP3 MLOAD PUSH1 0x5 SWAP5 DUP6 ADD SSTORE DUP4 SLOAD DUP1 DUP7 ADD SWAP1 SWAP5 SSTORE PUSH32 0x36B6384B5ECA791C62761152D0C79BB0604C104A5FB6F4EB0703F3154BB3DB0 SWAP1 SWAP4 ADD DUP4 SWAP1 SSTORE POP SWAP4 DUP6 MSTORE PUSH1 0x9 DUP4 MSTORE SWAP3 DUP5 KECCAK256 DUP1 SLOAD SWAP2 DUP3 ADD DUP2 SSTORE DUP5 MSTORE SWAP3 KECCAK256 SWAP1 SWAP2 ADD DUP2 SWAP1 SSTORE SWAP1 JUMP JUMPDEST PUSH1 0x0 DUP1 PUSH1 0x0 JUMPDEST PUSH1 0x4 SLOAD DUP8 SWAP1 DUP8 SWAP1 DUP4 SWAP1 PUSH2 0x216E SWAP1 PUSH1 0x1 PUSH2 0x2415 JUMP JUMPDEST PUSH2 0x2178 SWAP2 SWAP1 PUSH2 0x2415 JUMP JUMPDEST PUSH1 0x40 DUP1 MLOAD PUSH1 0x20 DUP2 ADD SWAP5 SWAP1 SWAP5 MSTORE DUP4 ADD SWAP2 SWAP1 SWAP2 MSTORE PUSH1 0x60 DUP3 ADD MSTORE TIMESTAMP PUSH1 0x80 DUP3 ADD MSTORE DIFFICULTY PUSH1 0xA0 DUP3 ADD MSTORE PUSH1 0xC0 ADD PUSH1 0x40 DUP1 MLOAD PUSH1 0x1F NOT DUP2 DUP5 SUB ADD DUP2 MSTORE SWAP2 DUP2 MSTORE DUP2 MLOAD PUSH1 0x20 SWAP3 DUP4 ADD KECCAK256 PUSH1 0x0 DUP2 DUP2 MSTORE PUSH1 0xA SWAP1 SWAP4 MSTORE SWAP2 KECCAK256 PUSH1 0x2 ADD SLOAD SWAP1 SWAP3 POP PUSH2 0x21D2 JUMPI PUSH2 0x21E4 JUMP JUMPDEST DUP1 PUSH2 0x21DC DUP2 PUSH2 0x2483 JUMP JUMPDEST SWAP2 POP POP PUSH2 0x215A JUMP JUMPDEST POP PUSH1 0x40 DUP1 MLOAD PUSH1 0xA0 DUP2 ADD DUP3 MSTORE SWAP7 DUP8 MSTORE PUSH1 0x20 DUP1 DUP9 ADD SWAP7 DUP8 MSTORE DUP8 DUP3 ADD SWAP6 DUP7 MSTORE PUSH1 0x60 DUP9 ADD SWAP5 DUP6 MSTORE PUSH1 0x0 PUSH1 0x80 DUP10 ADD DUP2 DUP2 MSTORE DUP5 DUP3 MSTORE PUSH1 0xA SWAP1 SWAP3 MSTORE SWAP2 DUP3 KECCAK256 SWAP8 MLOAD DUP9 SSTORE SWAP6 MLOAD PUSH1 0x1 DUP1 DUP10 ADD SWAP2 SWAP1 SWAP2 SSTORE SWAP5 MLOAD PUSH1 0x2 DUP9 ADD SSTORE SWAP3 MLOAD PUSH1 0x3 DUP8 ADD SSTORE SWAP4 MLOAD PUSH1 0x4 SWAP6 DUP7 ADD DUP1 SLOAD PUSH1 0xFF NOT AND SWAP2 ISZERO ISZERO SWAP2 SWAP1 SWAP2 OR SWAP1 SSTORE POP DUP4 SLOAD SWAP2 DUP3 ADD DUP5 SSTORE SWAP3 SWAP1 SWAP3 MSTORE PUSH32 0x8A35ACFBC15FF81A39AE7D344FD709F28E8600B4AA8C65C6B64BFE7FE36BD19B SWAP1 SWAP2 ADD DUP2 SWAP1 SSTORE SWAP1 JUMP JUMPDEST PUSH1 0x0 PUSH1 0x20 DUP3 DUP5 SUB SLT ISZERO PUSH2 0x2295 JUMPI DUP1 DUP2 REVERT JUMPDEST DUP2 CALLDATALOAD PUSH2 0x22A0 DUP2 PUSH2 0x24B4 JUMP JUMPDEST SWAP4 SWAP3 POP POP POP JUMP JUMPDEST PUSH1 0x0 PUSH1 0x20 DUP3 DUP5 SUB SLT ISZERO PUSH2 0x22B8 JUMPI DUP1 DUP2 REVERT JUMPDEST DUP2 MLOAD PUSH2 0x22A0 DUP2 PUSH2 0x24B4 JUMP JUMPDEST PUSH1 0x0 DUP1 PUSH1 0x0 DUP1 PUSH1 0x0 DUP1 PUSH1 0xC0 DUP8 DUP10 SUB SLT ISZERO PUSH2 0x22DB JUMPI DUP2 DUP3 REVERT JUMPDEST DUP7 CALLDATALOAD PUSH2 0x22E6 DUP2 PUSH2 0x24B4 JUMP JUMPDEST SWAP6 POP PUSH1 0x20 DUP8 ADD CALLDATALOAD PUSH2 0x22F6 DUP2 PUSH2 0x24B4 JUMP JUMPDEST SWAP5 POP PUSH1 0x40 DUP8 ADD CALLDATALOAD SWAP4 POP PUSH1 0x60 DUP8 ADD CALLDATALOAD SWAP3 POP PUSH1 0x80 DUP8 ADD CALLDATALOAD SWAP2 POP PUSH1 0xA0 DUP8 ADD CALLDATALOAD PUSH2 0x231B DUP2 PUSH2 0x24C9 JUMP JUMPDEST DUP1 SWAP2 POP POP SWAP3 SWAP6 POP SWAP3 SWAP6 POP SWAP3 SWAP6 JUMP JUMPDEST PUSH1 0x0 PUSH1 0x20 DUP3 DUP5 SUB SLT ISZERO PUSH2 0x233A JUMPI DUP1 DUP2 REVERT JUMPDEST DUP2 MLOAD PUSH2 0x22A0 DUP2 PUSH2 0x24C9 JUMP JUMPDEST PUSH1 0x0 PUSH1 0x20 DUP3 DUP5 SUB SLT ISZERO PUSH2 0x2356 JUMPI DUP1 DUP2 REVERT JUMPDEST POP CALLDATALOAD SWAP2 SWAP1 POP JUMP JUMPDEST PUSH1 0x0 PUSH1 0x20 DUP3 DUP5 SUB SLT ISZERO PUSH2 0x236E JUMPI DUP1 DUP2 REVERT JUMPDEST POP MLOAD SWAP2 SWAP1 POP JUMP JUMPDEST PUSH1 0x20 DUP1 DUP3 MSTORE DUP3 MLOAD DUP3 DUP3 ADD DUP2 SWAP1 MSTORE PUSH1 0x0 SWAP2 SWAP1 PUSH1 0x40 SWAP1 DUP2 DUP6 ADD SWAP1 DUP7 DUP5 ADD DUP6 JUMPDEST DUP3 DUP2 LT ISZERO PUSH2 0x23EC JUMPI DUP2 MLOAD DUP1 MLOAD PUSH1 0x1 PUSH1 0x1 PUSH1 0xA0 SHL SUB SWAP1 DUP2 AND DUP7 MSTORE DUP8 DUP3 ADD MLOAD AND DUP8 DUP7 ADD MSTORE DUP6 DUP2 ADD MLOAD DUP7 DUP7 ADD MSTORE PUSH1 0x60 DUP1 DUP3 ADD MLOAD SWAP1 DUP7 ADD MSTORE PUSH1 0x80 DUP1 DUP3 ADD MLOAD SWAP1 DUP7 ADD MSTORE PUSH1 0xA0 SWAP1 DUP2 ADD MLOAD SWAP1 DUP6 ADD MSTORE PUSH1 0xC0 SWAP1 SWAP4 ADD SWAP3 SWAP1 DUP6 ADD SWAP1 PUSH1 0x1 ADD PUSH2 0x2392 JUMP JUMPDEST POP SWAP2 SWAP8 SWAP7 POP POP POP POP POP POP POP JUMP JUMPDEST PUSH1 0x20 DUP1 DUP3 MSTORE PUSH1 0x2 SWAP1 DUP3 ADD MSTORE PUSH2 0x4D31 PUSH1 0xF0 SHL PUSH1 0x40 DUP3 ADD MSTORE PUSH1 0x60 ADD SWAP1 JUMP JUMPDEST PUSH1 0x0 DUP3 NOT DUP3 GT ISZERO PUSH2 0x2428 JUMPI PUSH2 0x2428 PUSH2 0x249E JUMP JUMPDEST POP ADD SWAP1 JUMP JUMPDEST PUSH1 0x0 DUP3 PUSH2 0x2448 JUMPI PUSH4 0x4E487B71 PUSH1 0xE0 SHL DUP2 MSTORE PUSH1 0x12 PUSH1 0x4 MSTORE PUSH1 0x24 DUP2 REVERT JUMPDEST POP DIV SWAP1 JUMP JUMPDEST PUSH1 0x0 DUP2 PUSH1 0x0 NOT DIV DUP4 GT DUP3 ISZERO ISZERO AND ISZERO PUSH2 0x2467 JUMPI PUSH2 0x2467 PUSH2 0x249E JUMP JUMPDEST POP MUL SWAP1 JUMP JUMPDEST PUSH1 0x0 DUP3 DUP3 LT ISZERO PUSH2 0x247E JUMPI PUSH2 0x247E PUSH2 0x249E JUMP JUMPDEST POP SUB SWAP1 JUMP JUMPDEST PUSH1 0x0 PUSH1 0x0 NOT DUP3 EQ ISZERO PUSH2 0x2497 JUMPI PUSH2 0x2497 PUSH2 0x249E JUMP JUMPDEST POP PUSH1 0x1 ADD SWAP1 JUMP JUMPDEST PUSH4 0x4E487B71 PUSH1 0xE0 SHL PUSH1 0x0 MSTORE PUSH1 0x11 PUSH1 0x4 MSTORE PUSH1 0x24 PUSH1 0x0 REVERT JUMPDEST PUSH1 0x1 PUSH1 0x1 PUSH1 0xA0 SHL SUB DUP2 AND DUP2 EQ PUSH2 0x15CA JUMPI PUSH1 0x0 DUP1 REVERT JUMPDEST DUP1 ISZERO ISZERO DUP2 EQ PUSH2 0x15CA JUMPI PUSH1 0x0 DUP1 REVERT INVALID LOG2 PUSH5 0x6970667358 0x22 SLT KECCAK256 DUP16 MLOAD SWAP1 0xAF MULMOD SWAP1 PUSH16 0x36C9B1D4EFA322B19B770E11DF044604 RETURNDATASIZE 0xFB SWAP15 MOD 0xDB 0xC5 0x5E PUSH22 0x9D64736F6C6343000804003300000000000000000000 "
				},
				"gasEstimates": {
					"creation": {
						"codeDepositCost": "1897000",
						"executionCost": "infinite",
						"totalCost": "infinite"
					},
					"external": {
						"addBet(address,address,uint256,uint256,uint256,bool)": "infinite",
						"cancelBet(bytes32)": "infinite",
						"cancelMarket()": "infinite",
						"cashOut(bytes32)": "infinite",
						"getBalance(address)": "1330",
						"getUserBets(address)": "infinite",
						"settle(uint256)": "infinite",
						"settleBet(bytes32)": "infinite",
						"start()": "infinite",
						"status()": "985",
						"withdraw(address)": "infinite"
					},
					"internal": {
						"_cancelPair(bytes32)": "infinite",
						"_createBet(address,address,uint256,uint256,uint256,uint256)": "infinite",
						"_createPair(bytes32,bytes32,uint256,uint256)": "infinite",
						"_settlePair(bytes32)": "infinite"
					}
				},
				"methodIdentifiers": {
					"addBet(address,address,uint256,uint256,uint256,bool)": "78d65b2f",
					"cancelBet(bytes32)": "2940ff1e",
					"cancelMarket()": "6bfefd6b",
					"cashOut(bytes32)": "c87b3171",
					"getBalance(address)": "f8b2cb4f",
					"getUserBets(address)": "2d56657d",
					"settle(uint256)": "8df82800",
					"settleBet(bytes32)": "675f6537",
					"start()": "be9a6555",
					"status()": "200d2ed2",
					"withdraw(address)": "51cff8d9"
				}
			},
			"storageLayout": {
				"storage": [
					{
						"astId": 10,
						"contract": "contracts/Market.sol:Market",
						"label": "_status",
						"offset": 0,
						"slot": "0",
						"type": "t_uint256"
					},
					{
						"astId": 128,
						"contract": "contracts/Market.sol:Market",
						"label": "owner",
						"offset": 0,
						"slot": "1",
						"type": "t_address"
					},
					{
						"astId": 130,
						"contract": "contracts/Market.sol:Market",
						"label": "factory",
						"offset": 0,
						"slot": "2",
						"type": "t_address"
					},
					{
						"astId": 134,
						"contract": "contracts/Market.sol:Market",
						"label": "status",
						"offset": 0,
						"slot": "3",
						"type": "t_uint256"
					},
					{
						"astId": 137,
						"contract": "contracts/Market.sol:Market",
						"label": "pairs",
						"offset": 0,
						"slot": "4",
						"type": "t_array(t_bytes32)dyn_storage"
					},
					{
						"astId": 140,
						"contract": "contracts/Market.sol:Market",
						"label": "bets",
						"offset": 0,
						"slot": "5",
						"type": "t_array(t_bytes32)dyn_storage"
					},
					{
						"astId": 143,
						"contract": "contracts/Market.sol:Market",
						"label": "pendingBets",
						"offset": 0,
						"slot": "6",
						"type": "t_array(t_bytes32)dyn_storage"
					},
					{
						"astId": 158,
						"contract": "contracts/Market.sol:Market",
						"label": "bal",
						"offset": 0,
						"slot": "7",
						"type": "t_mapping(t_address,t_uint256)"
					},
					{
						"astId": 163,
						"contract": "contracts/Market.sol:Market",
						"label": "betsInfo",
						"offset": 0,
						"slot": "8",
						"type": "t_mapping(t_bytes32,t_struct(MarketBet)1600_storage)"
					},
					{
						"astId": 168,
						"contract": "contracts/Market.sol:Market",
						"label": "userBets",
						"offset": 0,
						"slot": "9",
						"type": "t_mapping(t_address,t_array(t_bytes32)dyn_storage)"
					},
					{
						"astId": 173,
						"contract": "contracts/Market.sol:Market",
						"label": "pairsInfo",
						"offset": 0,
						"slot": "10",
						"type": "t_mapping(t_bytes32,t_struct(MarketPair)154_storage)"
					},
					{
						"astId": 178,
						"contract": "contracts/Market.sol:Market",
						"label": "betPairs",
						"offset": 0,
						"slot": "11",
						"type": "t_mapping(t_bytes32,t_array(t_bytes32)dyn_storage)"
					}
				],
				"types": {
					"t_address": {
						"encoding": "inplace",
						"label": "address",
						"numberOfBytes": "20"
					},
					"t_array(t_bytes32)dyn_storage": {
						"base": "t_bytes32",
						"encoding": "dynamic_array",
						"label": "bytes32[]",
						"numberOfBytes": "32"
					},
					"t_bool": {
						"encoding": "inplace",
						"label": "bool",
						"numberOfBytes": "1"
					},
					"t_bytes32": {
						"encoding": "inplace",
						"label": "bytes32",
						"numberOfBytes": "32"
					},
					"t_mapping(t_address,t_array(t_bytes32)dyn_storage)": {
						"encoding": "mapping",
						"key": "t_address",
						"label": "mapping(address => bytes32[])",
						"numberOfBytes": "32",
						"value": "t_array(t_bytes32)dyn_storage"
					},
					"t_mapping(t_address,t_uint256)": {
						"encoding": "mapping",
						"key": "t_address",
						"label": "mapping(address => uint256)",
						"numberOfBytes": "32",
						"value": "t_uint256"
					},
					"t_mapping(t_bytes32,t_array(t_bytes32)dyn_storage)": {
						"encoding": "mapping",
						"key": "t_bytes32",
						"label": "mapping(bytes32 => bytes32[])",
						"numberOfBytes": "32",
						"value": "t_array(t_bytes32)dyn_storage"
					},
					"t_mapping(t_bytes32,t_struct(MarketBet)1600_storage)": {
						"encoding": "mapping",
						"key": "t_bytes32",
						"label": "mapping(bytes32 => struct IMarket.MarketBet)",
						"numberOfBytes": "32",
						"value": "t_struct(MarketBet)1600_storage"
					},
					"t_mapping(t_bytes32,t_struct(MarketPair)154_storage)": {
						"encoding": "mapping",
						"key": "t_bytes32",
						"label": "mapping(bytes32 => struct Market.MarketPair)",
						"numberOfBytes": "32",
						"value": "t_struct(MarketPair)154_storage"
					},
					"t_struct(MarketBet)1600_storage": {
						"encoding": "inplace",
						"label": "struct IMarket.MarketBet",
						"members": [
							{
								"astId": 1589,
								"contract": "contracts/Market.sol:Market",
								"label": "better",
								"offset": 0,
								"slot": "0",
								"type": "t_address"
							},
							{
								"astId": 1591,
								"contract": "contracts/Market.sol:Market",
								"label": "affiliate",
								"offset": 0,
								"slot": "1",
								"type": "t_address"
							},
							{
								"astId": 1593,
								"contract": "contracts/Market.sol:Market",
								"label": "stake",
								"offset": 0,
								"slot": "2",
								"type": "t_uint256"
							},
							{
								"astId": 1595,
								"contract": "contracts/Market.sol:Market",
								"label": "matched",
								"offset": 0,
								"slot": "3",
								"type": "t_uint256"
							},
							{
								"astId": 1597,
								"contract": "contracts/Market.sol:Market",
								"label": "odds",
								"offset": 0,
								"slot": "4",
								"type": "t_uint256"
							},
							{
								"astId": 1599,
								"contract": "contracts/Market.sol:Market",
								"label": "side",
								"offset": 0,
								"slot": "5",
								"type": "t_uint256"
							}
						],
						"numberOfBytes": "192"
					},
					"t_struct(MarketPair)154_storage": {
						"encoding": "inplace",
						"label": "struct Market.MarketPair",
						"members": [
							{
								"astId": 145,
								"contract": "contracts/Market.sol:Market",
								"label": "betHashA",
								"offset": 0,
								"slot": "0",
								"type": "t_bytes32"
							},
							{
								"astId": 147,
								"contract": "contracts/Market.sol:Market",
								"label": "betHashB",
								"offset": 0,
								"slot": "1",
								"type": "t_bytes32"
							},
							{
								"astId": 149,
								"contract": "contracts/Market.sol:Market",
								"label": "amountA",
								"offset": 0,
								"slot": "2",
								"type": "t_uint256"
							},
							{
								"astId": 151,
								"contract": "contracts/Market.sol:Market",
								"label": "amountB",
								"offset": 0,
								"slot": "3",
								"type": "t_uint256"
							},
							{
								"astId": 153,
								"contract": "contracts/Market.sol:Market",
								"label": "settled",
								"offset": 0,
								"slot": "4",
								"type": "t_bool"
							}
						],
						"numberOfBytes": "160"
					},
					"t_uint256": {
						"encoding": "inplace",
						"label": "uint256",
						"numberOfBytes": "32"
					}
				}
			},
			"userdoc": {
				"kind": "user",
				"methods": {},
				"version": 1
			}
		}
	}
}