{
	"contracts/BetPair.sol": {
		"BetPair": {
			"abi": [
				{
					"inputs": [
						{
							"internalType": "address",
							"name": "marketAddress_",
							"type": "address"
						},
						{
							"internalType": "address",
							"name": "sideABetAddress_",
							"type": "address"
						},
						{
							"internalType": "address",
							"name": "sideBBetAddress_",
							"type": "address"
						},
						{
							"internalType": "uint256",
							"name": "amountA_",
							"type": "uint256"
						},
						{
							"internalType": "uint256",
							"name": "amountB_",
							"type": "uint256"
						}
					],
					"stateMutability": "nonpayable",
					"type": "constructor"
				},
				{
					"inputs": [],
					"name": "amountA",
					"outputs": [
						{
							"internalType": "uint256",
							"name": "",
							"type": "uint256"
						}
					],
					"stateMutability": "view",
					"type": "function"
				},
				{
					"inputs": [],
					"name": "amountB",
					"outputs": [
						{
							"internalType": "uint256",
							"name": "",
							"type": "uint256"
						}
					],
					"stateMutability": "view",
					"type": "function"
				},
				{
					"inputs": [],
					"name": "marketAddress",
					"outputs": [
						{
							"internalType": "address",
							"name": "",
							"type": "address"
						}
					],
					"stateMutability": "view",
					"type": "function"
				},
				{
					"inputs": [
						{
							"internalType": "address",
							"name": "_stableCoin",
							"type": "address"
						},
						{
							"internalType": "address",
							"name": "_web3betsAddress",
							"type": "address"
						}
					],
					"name": "settlePair",
					"outputs": [
						{
							"internalType": "bool",
							"name": "",
							"type": "bool"
						}
					],
					"stateMutability": "nonpayable",
					"type": "function"
				},
				{
					"inputs": [],
					"name": "sideABetAddress",
					"outputs": [
						{
							"internalType": "address",
							"name": "",
							"type": "address"
						}
					],
					"stateMutability": "view",
					"type": "function"
				},
				{
					"inputs": [],
					"name": "sideBBetAddress",
					"outputs": [
						{
							"internalType": "address",
							"name": "",
							"type": "address"
						}
					],
					"stateMutability": "view",
					"type": "function"
				},
				{
					"inputs": [],
					"name": "winnerAddress",
					"outputs": [
						{
							"internalType": "address",
							"name": "",
							"type": "address"
						}
					],
					"stateMutability": "view",
					"type": "function"
				},
				{
					"inputs": [],
					"name": "winnerBet",
					"outputs": [
						{
							"internalType": "address",
							"name": "",
							"type": "address"
						}
					],
					"stateMutability": "view",
					"type": "function"
				}
			],
			"devdoc": {
				"kind": "dev",
				"methods": {},
				"version": 1
			},
			"evm": {
				"assembly": "    /* \"contracts/BetPair.sol\":321:2754  contract BetPair is IBetPair {... */\n  mstore(0x40, 0x80)\n    /* \"contracts/BetPair.sol\":764:779  web3betsAddress */\n  sload(0x00)\n    /* \"contracts/BetPair.sol\":721:780  IWeb3BetsFO private web3bets = IWeb3BetsFO(web3betsAddress) */\n  0x08\n  dup1\n  sload\n  not(sub(shl(0xa0, 0x01), 0x01))\n  and\n  sub(shl(0xa0, 0x01), 0x01)\n    /* \"contracts/BetPair.sol\":764:779  web3betsAddress */\n  swap1\n  swap3\n  and\n    /* \"contracts/BetPair.sol\":721:780  IWeb3BetsFO private web3bets = IWeb3BetsFO(web3betsAddress) */\n  swap2\n  swap1\n  swap2\n  or\n  swap1\n  sstore\n    /* \"contracts/BetPair.sol\":827:1303  constructor (... */\n  callvalue\n  dup1\n  iszero\n  tag_1\n  jumpi\n  0x00\n  dup1\n  revert\ntag_1:\n  pop\n  mload(0x40)\n  sub(codesize, bytecodeSize)\n  dup1\n  bytecodeSize\n  dup4\n  codecopy\n  dup2\n  add\n  0x40\n  dup2\n  swap1\n  mstore\n  tag_2\n  swap2\n  tag_3\n  jump\t// in\ntag_2:\n    /* \"contracts/BetPair.sol\":1024:1032  web3bets */\n  0x08\n  0x00\n  swap1\n  sload\n  swap1\n  0x0100\n  exp\n  swap1\n  div\n  sub(shl(0xa0, 0x01), 0x01)\n  and\n  sub(shl(0xa0, 0x01), 0x01)\n    /* \"contracts/BetPair.sol\":1024:1040  web3bets.factory */\n  and\n  0xc45a0155\n    /* \"contracts/BetPair.sol\":1024:1042  web3bets.factory() */\n  mload(0x40)\n  dup2\n  0xffffffff\n  and\n  0xe0\n  shl\n  dup2\n  mstore\n  0x04\n  add\n  0x20\n  mload(0x40)\n  dup1\n  dup4\n  sub\n  dup2\n  dup7\n  dup1\n  extcodesize\n  iszero\n  dup1\n  iszero\n  tag_6\n  jumpi\n  0x00\n  dup1\n  revert\ntag_6:\n  pop\n  gas\n  staticcall\n  iszero\n  dup1\n  iszero\n  tag_8\n  jumpi\n  returndatasize\n  0x00\n  dup1\n  returndatacopy\n  revert(0x00, returndatasize)\ntag_8:\n  pop\n  pop\n  pop\n  pop\n  mload(0x40)\n  returndatasize\n  not(0x1f)\n  0x1f\n  dup3\n  add\n  and\n  dup3\n  add\n  dup1\n  0x40\n  mstore\n  pop\n  dup2\n  add\n  swap1\n  tag_9\n  swap2\n  swap1\n  tag_10\n  jump\t// in\ntag_9:\n  sub(shl(0xa0, 0x01), 0x01)\n    /* \"contracts/BetPair.sol\":1010:1042  msg.sender == web3bets.factory() */\n  and\n    /* \"contracts/BetPair.sol\":1010:1020  msg.sender */\n  caller\n  sub(shl(0xa0, 0x01), 0x01)\n    /* \"contracts/BetPair.sol\":1010:1042  msg.sender == web3bets.factory() */\n  and\n  eq\n    /* \"contracts/BetPair.sol\":1002:1112  require(msg.sender == web3bets.factory(), \"only web3bets fixedodds factory contract can create this contract\") */\n  tag_11\n  jumpi\n  mload(0x40)\n  shl(0xe5, 0x461bcd)\n  dup2\n  mstore\n    /* \"#utility.yul\":1138:1140   */\n  0x20\n    /* \"contracts/BetPair.sol\":1002:1112  require(msg.sender == web3bets.factory(), \"only web3bets fixedodds factory contract can create this contract\") */\n  0x04\n  dup3\n  add\n    /* \"#utility.yul\":1120:1141   */\n  mstore\n    /* \"#utility.yul\":1177:1179   */\n  0x41\n    /* \"#utility.yul\":1157:1175   */\n  0x24\n  dup3\n  add\n    /* \"#utility.yul\":1150:1180   */\n  mstore\n    /* \"#utility.yul\":1216:1250   */\n  0x6f6e6c792077656233626574732066697865646f64647320666163746f727920\n    /* \"#utility.yul\":1196:1214   */\n  0x44\n  dup3\n  add\n    /* \"#utility.yul\":1189:1251   */\n  mstore\n    /* \"#utility.yul\":1287:1321   */\n  0x636f6e74726163742063616e20637265617465207468697320636f6e74726163\n    /* \"#utility.yul\":1267:1285   */\n  0x64\n  dup3\n  add\n    /* \"#utility.yul\":1260:1322   */\n  mstore\n  shl(0xfa, 0x1d)\n    /* \"#utility.yul\":1338:1357   */\n  0x84\n  dup3\n  add\n    /* \"#utility.yul\":1331:1363   */\n  mstore\n    /* \"#utility.yul\":1380:1399   */\n  0xa4\n  add\n    /* \"contracts/BetPair.sol\":1002:1112  require(msg.sender == web3bets.factory(), \"only web3bets fixedodds factory contract can create this contract\") */\n  mload(0x40)\n  dup1\n  swap2\n  sub\n  swap1\n  revert\ntag_11:\n    /* \"contracts/BetPair.sol\":1122:1135  marketAddress */\n  0x01\n    /* \"contracts/BetPair.sol\":1122:1152  marketAddress = marketAddress_ */\n  dup1\n  sload\n  not(sub(shl(0xa0, 0x01), 0x01))\n  swap1\n  dup2\n  and\n  sub(shl(0xa0, 0x01), 0x01)\n  swap8\n  dup9\n  and\n  or\n  swap1\n  swap2\n  sstore\n    /* \"contracts/BetPair.sol\":1162:1177  sideABetAddress */\n  0x02\n    /* \"contracts/BetPair.sol\":1162:1196  sideABetAddress = sideABetAddress_ */\n  dup1\n  sload\n  dup3\n  and\n  swap6\n  dup8\n  and\n  swap6\n  swap1\n  swap6\n  or\n  swap1\n  swap5\n  sstore\n    /* \"contracts/BetPair.sol\":1206:1221  sideBBetAddress */\n  0x03\n    /* \"contracts/BetPair.sol\":1206:1240  sideBBetAddress = sideBBetAddress_ */\n  dup1\n  sload\n  swap1\n  swap5\n  and\n  swap3\n  swap1\n  swap5\n  and\n  swap2\n  swap1\n  swap2\n  or\n  swap1\n  swap2\n  sstore\n    /* \"contracts/BetPair.sol\":1250:1257  amountA */\n  0x06\n    /* \"contracts/BetPair.sol\":1250:1268  amountA = amountA_ */\n  sstore\n    /* \"contracts/BetPair.sol\":1278:1285  amountB */\n  0x07\n    /* \"contracts/BetPair.sol\":1278:1296  amountB = amountB_ */\n  sstore\n    /* \"contracts/BetPair.sol\":321:2754  contract BetPair is IBetPair {... */\n  jump(tag_15)\n    /* \"#utility.yul\":14:191   */\ntag_16:\n    /* \"#utility.yul\":93:106   */\n  dup1\n  mload\n  sub(shl(0xa0, 0x01), 0x01)\n    /* \"#utility.yul\":135:166   */\n  dup2\n  and\n    /* \"#utility.yul\":125:167   */\n  dup2\n  eq\n    /* \"#utility.yul\":115:117   */\n  tag_18\n  jumpi\n    /* \"#utility.yul\":181:182   */\n  0x00\n    /* \"#utility.yul\":178:179   */\n  dup1\n    /* \"#utility.yul\":171:183   */\n  revert\n    /* \"#utility.yul\":115:117   */\ntag_18:\n    /* \"#utility.yul\":74:191   */\n  swap2\n  swap1\n  pop\n  jump\t// out\n    /* \"#utility.yul\":196:414   */\ntag_10:\n    /* \"#utility.yul\":266:272   */\n  0x00\n    /* \"#utility.yul\":319:321   */\n  0x20\n    /* \"#utility.yul\":307:316   */\n  dup3\n    /* \"#utility.yul\":298:305   */\n  dup5\n    /* \"#utility.yul\":294:317   */\n  sub\n    /* \"#utility.yul\":290:322   */\n  slt\n    /* \"#utility.yul\":287:289   */\n  iszero\n  tag_20\n  jumpi\n    /* \"#utility.yul\":340:346   */\n  dup1\n    /* \"#utility.yul\":332:338   */\n  dup2\n    /* \"#utility.yul\":325:347   */\n  revert\n    /* \"#utility.yul\":287:289   */\ntag_20:\n    /* \"#utility.yul\":368:408   */\n  tag_21\n    /* \"#utility.yul\":398:407   */\n  dup3\n    /* \"#utility.yul\":368:408   */\n  tag_16\n  jump\t// in\ntag_21:\n    /* \"#utility.yul\":358:408   */\n  swap4\n    /* \"#utility.yul\":277:414   */\n  swap3\n  pop\n  pop\n  pop\n  jump\t// out\n    /* \"#utility.yul\":419:931   */\ntag_3:\n    /* \"#utility.yul\":525:531   */\n  0x00\n    /* \"#utility.yul\":533:539   */\n  dup1\n    /* \"#utility.yul\":541:547   */\n  0x00\n    /* \"#utility.yul\":549:555   */\n  dup1\n    /* \"#utility.yul\":557:563   */\n  0x00\n    /* \"#utility.yul\":610:613   */\n  0xa0\n    /* \"#utility.yul\":598:607   */\n  dup7\n    /* \"#utility.yul\":589:596   */\n  dup9\n    /* \"#utility.yul\":585:608   */\n  sub\n    /* \"#utility.yul\":581:614   */\n  slt\n    /* \"#utility.yul\":578:580   */\n  iszero\n  tag_23\n  jumpi\n    /* \"#utility.yul\":632:638   */\n  dup1\n    /* \"#utility.yul\":624:630   */\n  dup2\n    /* \"#utility.yul\":617:639   */\n  revert\n    /* \"#utility.yul\":578:580   */\ntag_23:\n    /* \"#utility.yul\":660:700   */\n  tag_24\n    /* \"#utility.yul\":690:699   */\n  dup7\n    /* \"#utility.yul\":660:700   */\n  tag_16\n  jump\t// in\ntag_24:\n    /* \"#utility.yul\":650:700   */\n  swap5\n  pop\n    /* \"#utility.yul\":719:768   */\n  tag_25\n    /* \"#utility.yul\":764:766   */\n  0x20\n    /* \"#utility.yul\":753:762   */\n  dup8\n    /* \"#utility.yul\":749:767   */\n  add\n    /* \"#utility.yul\":719:768   */\n  tag_16\n  jump\t// in\ntag_25:\n    /* \"#utility.yul\":709:768   */\n  swap4\n  pop\n    /* \"#utility.yul\":787:836   */\n  tag_26\n    /* \"#utility.yul\":832:834   */\n  0x40\n    /* \"#utility.yul\":821:830   */\n  dup8\n    /* \"#utility.yul\":817:835   */\n  add\n    /* \"#utility.yul\":787:836   */\n  tag_16\n  jump\t// in\ntag_26:\n    /* \"#utility.yul\":876:878   */\n  0x60\n    /* \"#utility.yul\":861:879   */\n  dup8\n  add\n    /* \"#utility.yul\":855:880   */\n  mload\n    /* \"#utility.yul\":920:923   */\n  0x80\n    /* \"#utility.yul\":905:924   */\n  swap1\n  swap8\n  add\n    /* \"#utility.yul\":899:925   */\n  mload\n    /* \"#utility.yul\":568:931   */\n  swap6\n  swap9\n  swap5\n  swap8\n  pop\n    /* \"#utility.yul\":777:836   */\n  swap6\n    /* \"#utility.yul\":855:880   */\n  swap5\n    /* \"#utility.yul\":899:925   */\n  swap4\n    /* \"#utility.yul\":568:931   */\n  swap3\n  pop\n  pop\n  pop\n  jump\t// out\n    /* \"#utility.yul\":1110:1405   */\ntag_15:\n    /* \"contracts/BetPair.sol\":321:2754  contract BetPair is IBetPair {... */\n  dataSize(sub_0)\n  dup1\n  dataOffset(sub_0)\n  0x00\n  codecopy\n  0x00\n  return\nstop\n\nsub_0: assembly {\n        /* \"contracts/BetPair.sol\":321:2754  contract BetPair is IBetPair {... */\n      mstore(0x40, 0x80)\n      callvalue\n      dup1\n      iszero\n      tag_1\n      jumpi\n      0x00\n      dup1\n      revert\n    tag_1:\n      pop\n      jumpi(tag_2, lt(calldatasize, 0x04))\n      shr(0xe0, calldataload(0x00))\n      dup1\n      0x95623641\n      gt\n      tag_11\n      jumpi\n      dup1\n      0x95623641\n      eq\n      tag_7\n      jumpi\n      dup1\n      0x9c7af579\n      eq\n      tag_8\n      jumpi\n      dup1\n      0xbaa1a3ec\n      eq\n      tag_9\n      jumpi\n      dup1\n      0xed7a4e0b\n      eq\n      tag_10\n      jumpi\n      0x00\n      dup1\n      revert\n    tag_11:\n      dup1\n      0x156dcbf0\n      eq\n      tag_3\n      jumpi\n      dup1\n      0x20781828\n      eq\n      tag_4\n      jumpi\n      dup1\n      0x2efe91ef\n      eq\n      tag_5\n      jumpi\n      dup1\n      0x6b396719\n      eq\n      tag_6\n      jumpi\n    tag_2:\n      0x00\n      dup1\n      revert\n        /* \"contracts/BetPair.sol\":651:679  uint public override amountA */\n    tag_3:\n      tag_12\n      sload(0x06)\n      dup2\n      jump\n    tag_12:\n      mload(0x40)\n        /* \"#utility.yul\":6245:6270   */\n      swap1\n      dup2\n      mstore\n        /* \"#utility.yul\":6233:6235   */\n      0x20\n        /* \"#utility.yul\":6218:6236   */\n      add\n        /* \"contracts/BetPair.sol\":651:679  uint public override amountA */\n    tag_14:\n      mload(0x40)\n      dup1\n      swap2\n      sub\n      swap1\n      return\n        /* \"contracts/BetPair.sol\":517:556  address public override sideBBetAddress */\n    tag_4:\n      sload(0x03)\n      tag_16\n      swap1\n      sub(shl(0xa0, 0x01), 0x01)\n      and\n      dup2\n      jump\n    tag_16:\n      mload(0x40)\n      sub(shl(0xa0, 0x01), 0x01)\n        /* \"#utility.yul\":3158:3190   */\n      swap1\n      swap2\n      and\n        /* \"#utility.yul\":3140:3191   */\n      dup2\n      mstore\n        /* \"#utility.yul\":3128:3130   */\n      0x20\n        /* \"#utility.yul\":3113:3131   */\n      add\n        /* \"contracts/BetPair.sol\":517:556  address public override sideBBetAddress */\n      tag_14\n        /* \"#utility.yul\":3095:3197   */\n      jump\n        /* \"contracts/BetPair.sol\":686:714  uint public override amountB */\n    tag_5:\n      tag_12\n      sload(0x07)\n      dup2\n      jump\n        /* \"contracts/BetPair.sol\":1309:2752  function settlePair(address _stableCoin, address _web3betsAddress) external override returns(bool) {... */\n    tag_6:\n      tag_23\n      tag_24\n      calldatasize\n      0x04\n      tag_25\n      jump\t// in\n    tag_24:\n      tag_26\n      jump\t// in\n    tag_23:\n      mload(0x40)\n        /* \"#utility.yul\":3747:3761   */\n      swap1\n      iszero\n        /* \"#utility.yul\":3740:3762   */\n      iszero\n        /* \"#utility.yul\":3722:3763   */\n      dup2\n      mstore\n        /* \"#utility.yul\":3710:3712   */\n      0x20\n        /* \"#utility.yul\":3695:3713   */\n      add\n        /* \"contracts/BetPair.sol\":1309:2752  function settlePair(address _stableCoin, address _web3betsAddress) external override returns(bool) {... */\n      tag_14\n        /* \"#utility.yul\":3677:3769   */\n      jump\n        /* \"contracts/BetPair.sol\":427:464  address public override marketAddress */\n    tag_7:\n      sload(0x01)\n      tag_16\n      swap1\n      sub(shl(0xa0, 0x01), 0x01)\n      and\n      dup2\n      jump\n        /* \"contracts/BetPair.sol\":471:510  address public override sideABetAddress */\n    tag_8:\n      sload(0x02)\n      tag_16\n      swap1\n      sub(shl(0xa0, 0x01), 0x01)\n      and\n      dup2\n      jump\n        /* \"contracts/BetPair.sol\":567:600  address public override winnerBet */\n    tag_9:\n      sload(0x04)\n      tag_16\n      swap1\n      sub(shl(0xa0, 0x01), 0x01)\n      and\n      dup2\n      jump\n        /* \"contracts/BetPair.sol\":607:644  address public override winnerAddress */\n    tag_10:\n      sload(0x05)\n      tag_16\n      swap1\n      sub(shl(0xa0, 0x01), 0x01)\n      and\n      dup2\n      jump\n        /* \"contracts/BetPair.sol\":1309:2752  function settlePair(address _stableCoin, address _web3betsAddress) external override returns(bool) {... */\n    tag_26:\n        /* \"contracts/BetPair.sol\":1443:1456  marketAddress */\n      sload(0x01)\n        /* \"contracts/BetPair.sol\":1475:1501  market.hasSetWinningSide() */\n      0x40\n      dup1\n      mload\n      shl(0xe2, 0x2f6498c3)\n      dup2\n      mstore\n      swap1\n      mload\n        /* \"contracts/BetPair.sol\":1402:1406  bool */\n      0x00\n      swap3\n      sub(shl(0xa0, 0x01), 0x01)\n        /* \"contracts/BetPair.sol\":1443:1456  marketAddress */\n      and\n      swap2\n      dup3\n      swap2\n        /* \"contracts/BetPair.sol\":1475:1499  market.hasSetWinningSide */\n      0xbd92630c\n      swap2\n        /* \"contracts/BetPair.sol\":1475:1501  market.hasSetWinningSide() */\n      0x04\n      dup1\n      dup3\n      add\n      swap3\n      0x20\n      swap3\n      swap1\n      swap2\n      swap1\n      dup3\n      swap1\n      sub\n      add\n      dup2\n        /* \"contracts/BetPair.sol\":1443:1456  marketAddress */\n      dup7\n        /* \"contracts/BetPair.sol\":1475:1501  market.hasSetWinningSide() */\n      dup1\n      extcodesize\n      iszero\n      dup1\n      iszero\n      tag_42\n      jumpi\n      0x00\n      dup1\n      revert\n    tag_42:\n      pop\n      gas\n      staticcall\n      iszero\n      dup1\n      iszero\n      tag_44\n      jumpi\n      returndatasize\n      0x00\n      dup1\n      returndatacopy\n      revert(0x00, returndatasize)\n    tag_44:\n      pop\n      pop\n      pop\n      pop\n      mload(0x40)\n      returndatasize\n      not(0x1f)\n      0x1f\n      dup3\n      add\n      and\n      dup3\n      add\n      dup1\n      0x40\n      mstore\n      pop\n      dup2\n      add\n      swap1\n      tag_45\n      swap2\n      swap1\n      tag_46\n      jump\t// in\n    tag_45:\n        /* \"contracts/BetPair.sol\":1467:1534  require(market.hasSetWinningSide(), \"Markets has not been settled\") */\n      tag_47\n      jumpi\n      mload(0x40)\n      shl(0xe5, 0x461bcd)\n      dup2\n      mstore\n        /* \"#utility.yul\":4364:4366   */\n      0x20\n        /* \"contracts/BetPair.sol\":1467:1534  require(market.hasSetWinningSide(), \"Markets has not been settled\") */\n      0x04\n      dup3\n      add\n        /* \"#utility.yul\":4346:4367   */\n      mstore\n        /* \"#utility.yul\":4403:4405   */\n      0x1c\n        /* \"#utility.yul\":4383:4401   */\n      0x24\n      dup3\n      add\n        /* \"#utility.yul\":4376:4406   */\n      mstore\n        /* \"#utility.yul\":4442:4472   */\n      0x4d61726b65747320686173206e6f74206265656e20736574746c656400000000\n        /* \"#utility.yul\":4422:4440   */\n      0x44\n      dup3\n      add\n        /* \"#utility.yul\":4415:4473   */\n      mstore\n        /* \"#utility.yul\":4490:4508   */\n      0x64\n      add\n        /* \"contracts/BetPair.sol\":1467:1534  require(market.hasSetWinningSide(), \"Markets has not been settled\") */\n    tag_48:\n      mload(0x40)\n      dup1\n      swap2\n      sub\n      swap1\n      revert\n    tag_47:\n        /* \"contracts/BetPair.sol\":1610:1635  abi.encodePacked(\"sideA\") */\n      mload(0x40)\n      shl(0xd8, 0x7369646541)\n      0x20\n      dup3\n      add\n        /* \"#utility.yul\":2676:2696   */\n      mstore\n        /* \"#utility.yul\":2712:2723   */\n      0x25\n      add\n        /* \"contracts/BetPair.sol\":1610:1635  abi.encodePacked(\"sideA\") */\n      mload(0x40)\n      0x20\n      dup2\n      dup4\n      sub\n      sub\n      dup2\n      mstore\n      swap1\n      0x40\n      mstore\n        /* \"contracts/BetPair.sol\":1600:1636  keccak256(abi.encodePacked(\"sideA\")) */\n      dup1\n      mload\n      swap1\n      0x20\n      add\n      keccak256\n        /* \"contracts/BetPair.sol\":1574:1580  market */\n      dup2\n      sub(shl(0xa0, 0x01), 0x01)\n        /* \"contracts/BetPair.sol\":1574:1592  market.winningSide */\n      and\n      0xfbf06338\n        /* \"contracts/BetPair.sol\":1574:1594  market.winningSide() */\n      mload(0x40)\n      dup2\n      0xffffffff\n      and\n      0xe0\n      shl\n      dup2\n      mstore\n      0x04\n      add\n      0x00\n      mload(0x40)\n      dup1\n      dup4\n      sub\n      dup2\n      dup7\n      dup1\n      extcodesize\n      iszero\n      dup1\n      iszero\n      tag_52\n      jumpi\n      0x00\n      dup1\n      revert\n    tag_52:\n      pop\n      gas\n      staticcall\n      iszero\n      dup1\n      iszero\n      tag_54\n      jumpi\n      returndatasize\n      0x00\n      dup1\n      returndatacopy\n      revert(0x00, returndatasize)\n    tag_54:\n      pop\n      pop\n      pop\n      pop\n      mload(0x40)\n      returndatasize\n      0x00\n      dup3\n      returndatacopy\n      0x1f\n      returndatasize\n      swap1\n      dup2\n      add\n      not(0x1f)\n      and\n      dup3\n      add\n      0x40\n      mstore\n      tag_55\n      swap2\n      swap1\n      dup2\n      add\n      swap1\n      tag_56\n      jump\t// in\n    tag_55:\n        /* \"contracts/BetPair.sol\":1557:1595  abi.encodePacked(market.winningSide()) */\n      add(0x20, mload(0x40))\n      tag_57\n      swap2\n      swap1\n      tag_123\n      jump\t// in\n    tag_57:\n      mload(0x40)\n      0x20\n      dup2\n      dup4\n      sub\n      sub\n      dup2\n      mstore\n      swap1\n      0x40\n      mstore\n        /* \"contracts/BetPair.sol\":1547:1596  keccak256(abi.encodePacked(market.winningSide())) */\n      dup1\n      mload\n      swap1\n      0x20\n      add\n      keccak256\n        /* \"contracts/BetPair.sol\":1547:1636  keccak256(abi.encodePacked(market.winningSide())) == keccak256(abi.encodePacked(\"sideA\")) */\n      eq\n        /* \"contracts/BetPair.sol\":1544:2725  if(keccak256(abi.encodePacked(market.winningSide())) == keccak256(abi.encodePacked(\"sideA\"))){... */\n      iszero\n      tag_59\n      jumpi\n        /* \"contracts/BetPair.sol\":1663:1678  sideABetAddress */\n      sload(0x02)\n        /* \"contracts/BetPair.sol\":1651:1660  winnerBet */\n      0x04\n        /* \"contracts/BetPair.sol\":1651:1678  winnerBet = sideABetAddress */\n      dup1\n      sload\n      not(sub(shl(0xa0, 0x01), 0x01))\n      and\n      sub(shl(0xa0, 0x01), 0x01)\n        /* \"contracts/BetPair.sol\":1663:1678  sideABetAddress */\n      swap1\n      swap3\n      and\n        /* \"contracts/BetPair.sol\":1651:1678  winnerBet = sideABetAddress */\n      swap2\n      dup3\n      or\n      dup2\n      sstore\n        /* \"contracts/BetPair.sol\":1755:1774  _winnerBet.better() */\n      0x40\n      dup1\n      mload\n      shl(0xe2, 0x1c631f51)\n      dup2\n      mstore\n      swap1\n      mload\n        /* \"contracts/BetPair.sol\":1663:1678  sideABetAddress */\n      dup4\n      swap3\n        /* \"contracts/BetPair.sol\":1755:1772  _winnerBet.better */\n      0x718c7d44\n      swap3\n        /* \"contracts/BetPair.sol\":1755:1774  _winnerBet.better() */\n      dup1\n      dup3\n      add\n      swap3\n      0x20\n      swap3\n      swap1\n      swap2\n      dup3\n      swap1\n      sub\n      add\n      dup2\n        /* \"contracts/BetPair.sol\":1663:1678  sideABetAddress */\n      dup7\n        /* \"contracts/BetPair.sol\":1755:1774  _winnerBet.better() */\n      dup1\n      extcodesize\n      iszero\n      dup1\n      iszero\n      tag_60\n      jumpi\n      0x00\n      dup1\n      revert\n    tag_60:\n      pop\n      gas\n      staticcall\n      iszero\n      dup1\n      iszero\n      tag_62\n      jumpi\n      returndatasize\n      0x00\n      dup1\n      returndatacopy\n      revert(0x00, returndatasize)\n    tag_62:\n      pop\n      pop\n      pop\n      pop\n      mload(0x40)\n      returndatasize\n      not(0x1f)\n      0x1f\n      dup3\n      add\n      and\n      dup3\n      add\n      dup1\n      0x40\n      mstore\n      pop\n      dup2\n      add\n      swap1\n      tag_63\n      swap2\n      swap1\n      tag_64\n      jump\t// in\n    tag_63:\n        /* \"contracts/BetPair.sol\":1739:1752  winnerAddress */\n      0x05\n        /* \"contracts/BetPair.sol\":1739:1774  winnerAddress = _winnerBet.better() */\n      dup1\n      sload\n      not(sub(shl(0xa0, 0x01), 0x01))\n      swap1\n      dup2\n      and\n      sub(shl(0xa0, 0x01), 0x01)\n      swap4\n      dup5\n      and\n      swap1\n      dup2\n      or\n      swap1\n      swap3\n      sstore\n        /* \"contracts/BetPair.sol\":1789:1807  _stableCoinWrapper */\n      0x09\n        /* \"contracts/BetPair.sol\":1789:1829  _stableCoinWrapper = IERC20(_stableCoin) */\n      dup1\n      sload\n      swap1\n      swap2\n      and\n      dup9\n      dup5\n      and\n      or\n      dup2\n      sstore\n      0x01\n        /* \"contracts/BetPair.sol\":1879:1892  marketAddress */\n      sload\n        /* \"contracts/BetPair.sol\":1920:1927  amountB */\n      sload(0x07)\n        /* \"contracts/BetPair.sol\":1843:1939  _stableCoinWrapper.safeTransferFrom(marketAddress, winnerAddress, amountA + (amountB * 9 / 10) ) */\n      tag_65\n      swap5\n        /* \"contracts/BetPair.sol\":1879:1892  marketAddress */\n      swap2\n      swap1\n      swap2\n      and\n      swap3\n        /* \"contracts/BetPair.sol\":1739:1774  winnerAddress = _winnerBet.better() */\n      swap2\n        /* \"contracts/BetPair.sol\":1934:1936  10 */\n      0x0a\n      swap2\n        /* \"contracts/BetPair.sol\":1920:1931  amountB * 9 */\n      tag_66\n      swap2\n      tag_67\n      jump\t// in\n    tag_66:\n        /* \"contracts/BetPair.sol\":1920:1936  amountB * 9 / 10 */\n      tag_68\n      swap2\n      swap1\n      tag_69\n      jump\t// in\n    tag_68:\n        /* \"contracts/BetPair.sol\":1909:1916  amountA */\n      sload(0x06)\n        /* \"contracts/BetPair.sol\":1909:1937  amountA + (amountB * 9 / 10) */\n      tag_70\n      swap2\n      swap1\n      tag_71\n      jump\t// in\n    tag_70:\n        /* \"contracts/BetPair.sol\":1843:1861  _stableCoinWrapper */\n      and(sub(shl(0xa0, 0x01), 0x01), sload(0x09))\n      swap3\n        /* \"contracts/BetPair.sol\":1843:1939  _stableCoinWrapper.safeTransferFrom(marketAddress, winnerAddress, amountA + (amountB * 9 / 10) ) */\n      swap2\n      swap1\n        /* \"contracts/BetPair.sol\":1843:1878  _stableCoinWrapper.safeTransferFrom */\n      tag_72\n        /* \"contracts/BetPair.sol\":1843:1939  _stableCoinWrapper.safeTransferFrom(marketAddress, winnerAddress, amountA + (amountB * 9 / 10) ) */\n      jump\t// in\n    tag_65:\n        /* \"contracts/BetPair.sol\":1989:2004  sideBBetAddress */\n      sload(0x03)\n        /* \"contracts/BetPair.sol\":2024:2031  amountB */\n      sload(0x07)\n        /* \"contracts/BetPair.sol\":1953:2037  _stableCoinWrapper.safeTransferFrom(sideBBetAddress, _web3betsAddress, amountB / 10) */\n      tag_73\n      swap2\n      sub(shl(0xa0, 0x01), 0x01)\n        /* \"contracts/BetPair.sol\":1989:2004  sideBBetAddress */\n      and\n      swap1\n        /* \"contracts/BetPair.sol\":2006:2022  _web3betsAddress */\n      dup7\n      swap1\n        /* \"contracts/BetPair.sol\":2024:2036  amountB / 10 */\n      tag_70\n      swap1\n        /* \"contracts/BetPair.sol\":2034:2036  10 */\n      0x0a\n      swap1\n        /* \"contracts/BetPair.sol\":2024:2036  amountB / 10 */\n      tag_69\n      jump\t// in\n        /* \"contracts/BetPair.sol\":1953:2037  _stableCoinWrapper.safeTransferFrom(sideBBetAddress, _web3betsAddress, amountB / 10) */\n    tag_73:\n        /* \"contracts/BetPair.sol\":1544:2725  if(keccak256(abi.encodePacked(market.winningSide())) == keccak256(abi.encodePacked(\"sideA\"))){... */\n      pop\n      jump(tag_94)\n    tag_59:\n        /* \"contracts/BetPair.sol\":2128:2153  abi.encodePacked(\"sideB\") */\n      mload(0x40)\n      shl(0xd9, 0x39b4b232a1)\n      0x20\n      dup3\n      add\n        /* \"#utility.yul\":2936:2956   */\n      mstore\n        /* \"#utility.yul\":2972:2983   */\n      0x25\n      add\n        /* \"contracts/BetPair.sol\":2128:2153  abi.encodePacked(\"sideB\") */\n      mload(0x40)\n      0x20\n      dup2\n      dup4\n      sub\n      sub\n      dup2\n      mstore\n      swap1\n      0x40\n      mstore\n        /* \"contracts/BetPair.sol\":2118:2154  keccak256(abi.encodePacked(\"sideB\")) */\n      dup1\n      mload\n      swap1\n      0x20\n      add\n      keccak256\n        /* \"contracts/BetPair.sol\":2092:2098  market */\n      dup2\n      sub(shl(0xa0, 0x01), 0x01)\n        /* \"contracts/BetPair.sol\":2092:2110  market.winningSide */\n      and\n      0xfbf06338\n        /* \"contracts/BetPair.sol\":2092:2112  market.winningSide() */\n      mload(0x40)\n      dup2\n      0xffffffff\n      and\n      0xe0\n      shl\n      dup2\n      mstore\n      0x04\n      add\n      0x00\n      mload(0x40)\n      dup1\n      dup4\n      sub\n      dup2\n      dup7\n      dup1\n      extcodesize\n      iszero\n      dup1\n      iszero\n      tag_78\n      jumpi\n      0x00\n      dup1\n      revert\n    tag_78:\n      pop\n      gas\n      staticcall\n      iszero\n      dup1\n      iszero\n      tag_80\n      jumpi\n      returndatasize\n      0x00\n      dup1\n      returndatacopy\n      revert(0x00, returndatasize)\n    tag_80:\n      pop\n      pop\n      pop\n      pop\n      mload(0x40)\n      returndatasize\n      0x00\n      dup3\n      returndatacopy\n      0x1f\n      returndatasize\n      swap1\n      dup2\n      add\n      not(0x1f)\n      and\n      dup3\n      add\n      0x40\n      mstore\n      tag_81\n      swap2\n      swap1\n      dup2\n      add\n      swap1\n      tag_56\n      jump\t// in\n    tag_81:\n        /* \"contracts/BetPair.sol\":2075:2113  abi.encodePacked(market.winningSide()) */\n      add(0x20, mload(0x40))\n      tag_82\n      swap2\n      swap1\n      tag_123\n      jump\t// in\n    tag_82:\n      mload(0x40)\n      0x20\n      dup2\n      dup4\n      sub\n      sub\n      dup2\n      mstore\n      swap1\n      0x40\n      mstore\n        /* \"contracts/BetPair.sol\":2065:2114  keccak256(abi.encodePacked(market.winningSide())) */\n      dup1\n      mload\n      swap1\n      0x20\n      add\n      keccak256\n        /* \"contracts/BetPair.sol\":2065:2154  keccak256(abi.encodePacked(market.winningSide())) == keccak256(abi.encodePacked(\"sideB\")) */\n      eq\n        /* \"contracts/BetPair.sol\":2062:2725  if(keccak256(abi.encodePacked(market.winningSide())) == keccak256(abi.encodePacked(\"sideB\"))){... */\n      iszero\n      tag_83\n      jumpi\n        /* \"contracts/BetPair.sol\":2181:2196  sideBBetAddress */\n      sload(0x03)\n        /* \"contracts/BetPair.sol\":2169:2178  winnerBet */\n      0x04\n        /* \"contracts/BetPair.sol\":2169:2196  winnerBet = sideBBetAddress */\n      dup1\n      sload\n      not(sub(shl(0xa0, 0x01), 0x01))\n      and\n      sub(shl(0xa0, 0x01), 0x01)\n        /* \"contracts/BetPair.sol\":2181:2196  sideBBetAddress */\n      swap1\n      swap3\n      and\n        /* \"contracts/BetPair.sol\":2169:2196  winnerBet = sideBBetAddress */\n      swap2\n      dup3\n      or\n      dup2\n      sstore\n        /* \"contracts/BetPair.sol\":2273:2292  _winnerBet.better() */\n      0x40\n      dup1\n      mload\n      shl(0xe2, 0x1c631f51)\n      dup2\n      mstore\n      swap1\n      mload\n        /* \"contracts/BetPair.sol\":2181:2196  sideBBetAddress */\n      dup4\n      swap3\n        /* \"contracts/BetPair.sol\":2273:2290  _winnerBet.better */\n      0x718c7d44\n      swap3\n        /* \"contracts/BetPair.sol\":2273:2292  _winnerBet.better() */\n      dup1\n      dup3\n      add\n      swap3\n      0x20\n      swap3\n      swap1\n      swap2\n      dup3\n      swap1\n      sub\n      add\n      dup2\n        /* \"contracts/BetPair.sol\":2181:2196  sideBBetAddress */\n      dup7\n        /* \"contracts/BetPair.sol\":2273:2292  _winnerBet.better() */\n      dup1\n      extcodesize\n      iszero\n      dup1\n      iszero\n      tag_84\n      jumpi\n      0x00\n      dup1\n      revert\n    tag_84:\n      pop\n      gas\n      staticcall\n      iszero\n      dup1\n      iszero\n      tag_86\n      jumpi\n      returndatasize\n      0x00\n      dup1\n      returndatacopy\n      revert(0x00, returndatasize)\n    tag_86:\n      pop\n      pop\n      pop\n      pop\n      mload(0x40)\n      returndatasize\n      not(0x1f)\n      0x1f\n      dup3\n      add\n      and\n      dup3\n      add\n      dup1\n      0x40\n      mstore\n      pop\n      dup2\n      add\n      swap1\n      tag_87\n      swap2\n      swap1\n      tag_64\n      jump\t// in\n    tag_87:\n        /* \"contracts/BetPair.sol\":2257:2270  winnerAddress */\n      0x05\n        /* \"contracts/BetPair.sol\":2257:2292  winnerAddress = _winnerBet.better() */\n      dup1\n      sload\n      sub(shl(0xa0, 0x01), 0x01)\n      swap3\n      dup4\n      and\n      not(sub(shl(0xa0, 0x01), 0x01))\n      swap2\n      dup3\n      and\n      dup2\n      or\n      swap1\n      swap3\n      sstore\n        /* \"contracts/BetPair.sol\":2307:2325  _stableCoinWrapper */\n      0x09\n        /* \"contracts/BetPair.sol\":2307:2347  _stableCoinWrapper = IERC20(_stableCoin) */\n      dup1\n      sload\n      dup10\n      dup6\n      and\n      swap3\n      and\n      dup3\n      or\n      swap1\n      sstore\n        /* \"contracts/BetPair.sol\":2397:2412  sideABetAddress */\n      sload(0x02)\n        /* \"contracts/BetPair.sol\":2429:2436  amountA */\n      sload(0x06)\n        /* \"contracts/BetPair.sol\":2361:2437  _stableCoinWrapper.safeTransferFrom(sideABetAddress, winnerAddress, amountA) */\n      tag_88\n      swap5\n        /* \"contracts/BetPair.sol\":2307:2347  _stableCoinWrapper = IERC20(_stableCoin) */\n      swap3\n      swap4\n        /* \"contracts/BetPair.sol\":2397:2412  sideABetAddress */\n      swap2\n      swap1\n      swap3\n      and\n      swap2\n        /* \"contracts/BetPair.sol\":2361:2396  _stableCoinWrapper.safeTransferFrom */\n      tag_72\n        /* \"contracts/BetPair.sol\":2361:2437  _stableCoinWrapper.safeTransferFrom(sideABetAddress, winnerAddress, amountA) */\n      jump\t// in\n    tag_88:\n        /* \"contracts/BetPair.sol\":2487:2502  sideBBetAddress */\n      sload(0x03)\n        /* \"contracts/BetPair.sol\":2504:2517  winnerAddress */\n      sload(0x05)\n        /* \"contracts/BetPair.sol\":2519:2526  amountB */\n      sload(0x07)\n        /* \"contracts/BetPair.sol\":2451:2536  _stableCoinWrapper.safeTransferFrom(sideBBetAddress, winnerAddress, amountB * 9 / 10) */\n      tag_89\n      swap3\n      sub(shl(0xa0, 0x01), 0x01)\n        /* \"contracts/BetPair.sol\":2487:2502  sideBBetAddress */\n      swap1\n      dup2\n      and\n      swap3\n        /* \"contracts/BetPair.sol\":2504:2517  winnerAddress */\n      and\n      swap1\n        /* \"contracts/BetPair.sol\":2533:2535  10 */\n      0x0a\n      swap1\n        /* \"contracts/BetPair.sol\":2519:2530  amountB * 9 */\n      tag_90\n      swap1\n        /* \"contracts/BetPair.sol\":2529:2530  9 */\n      0x09\n        /* \"contracts/BetPair.sol\":2519:2530  amountB * 9 */\n      tag_67\n      jump\t// in\n    tag_90:\n        /* \"contracts/BetPair.sol\":2519:2535  amountB * 9 / 10 */\n      tag_70\n      swap2\n      swap1\n      tag_69\n      jump\t// in\n        /* \"contracts/BetPair.sol\":2451:2536  _stableCoinWrapper.safeTransferFrom(sideBBetAddress, winnerAddress, amountB * 9 / 10) */\n    tag_89:\n        /* \"contracts/BetPair.sol\":2586:2601  sideBBetAddress */\n      sload(0x03)\n        /* \"contracts/BetPair.sol\":2603:2616  winnerAddress */\n      sload(0x05)\n        /* \"contracts/BetPair.sol\":2618:2625  amountB */\n      sload(0x07)\n        /* \"contracts/BetPair.sol\":2550:2631  _stableCoinWrapper.safeTransferFrom(sideBBetAddress, winnerAddress, amountB / 10) */\n      tag_73\n      swap3\n      sub(shl(0xa0, 0x01), 0x01)\n        /* \"contracts/BetPair.sol\":2586:2601  sideBBetAddress */\n      swap1\n      dup2\n      and\n      swap3\n        /* \"contracts/BetPair.sol\":2603:2616  winnerAddress */\n      and\n      swap1\n        /* \"contracts/BetPair.sol\":2618:2630  amountB / 10 */\n      tag_70\n      swap1\n        /* \"contracts/BetPair.sol\":2628:2630  10 */\n      0x0a\n      swap1\n        /* \"contracts/BetPair.sol\":2618:2630  amountB / 10 */\n      tag_69\n      jump\t// in\n        /* \"contracts/BetPair.sol\":2062:2725  if(keccak256(abi.encodePacked(market.winningSide())) == keccak256(abi.encodePacked(\"sideB\"))){... */\n    tag_83:\n        /* \"contracts/BetPair.sol\":2669:2714  revert(\"event admin entered  invalid winner\") */\n      mload(0x40)\n      shl(0xe5, 0x461bcd)\n      dup2\n      mstore\n        /* \"#utility.yul\":5897:5899   */\n      0x20\n        /* \"contracts/BetPair.sol\":2669:2714  revert(\"event admin entered  invalid winner\") */\n      0x04\n      dup3\n      add\n        /* \"#utility.yul\":5879:5900   */\n      mstore\n        /* \"#utility.yul\":5936:5938   */\n      0x23\n        /* \"#utility.yul\":5916:5934   */\n      0x24\n      dup3\n      add\n        /* \"#utility.yul\":5909:5939   */\n      mstore\n        /* \"#utility.yul\":5975:6009   */\n      0x6576656e742061646d696e20656e74657265642020696e76616c69642077696e\n        /* \"#utility.yul\":5955:5973   */\n      0x44\n      dup3\n      add\n        /* \"#utility.yul\":5948:6010   */\n      mstore\n      shl(0xe9, 0x3732b9)\n        /* \"#utility.yul\":6026:6044   */\n      0x64\n      dup3\n      add\n        /* \"#utility.yul\":6019:6052   */\n      mstore\n        /* \"#utility.yul\":6069:6088   */\n      0x84\n      add\n        /* \"contracts/BetPair.sol\":2669:2714  revert(\"event admin entered  invalid winner\") */\n      tag_48\n        /* \"#utility.yul\":5869:6094   */\n      jump\n        /* \"contracts/BetPair.sol\":2062:2725  if(keccak256(abi.encodePacked(market.winningSide())) == keccak256(abi.encodePacked(\"sideB\"))){... */\n    tag_94:\n      pop\n        /* \"contracts/BetPair.sol\":2741:2745  true */\n      0x01\n      swap4\n        /* \"contracts/BetPair.sol\":1309:2752  function settlePair(address _stableCoin, address _web3betsAddress) external override returns(bool) {... */\n      swap3\n      pop\n      pop\n      pop\n      jump\t// out\n        /* \"@openzeppelin/contracts/token/ERC20/utils/SafeERC20.sol\":974:1215  function safeTransferFrom(... */\n    tag_72:\n        /* \"@openzeppelin/contracts/token/ERC20/utils/SafeERC20.sol\":1139:1207  abi.encodeWithSelector(token.transferFrom.selector, from, to, value) */\n      0x40\n      dup1\n      mload\n      sub(shl(0xa0, 0x01), 0x01)\n        /* \"#utility.yul\":3460:3475   */\n      dup6\n      dup2\n      and\n        /* \"@openzeppelin/contracts/token/ERC20/utils/SafeERC20.sol\":1139:1207  abi.encodeWithSelector(token.transferFrom.selector, from, to, value) */\n      0x24\n      dup4\n      add\n        /* \"#utility.yul\":3442:3476   */\n      mstore\n        /* \"#utility.yul\":3512:3527   */\n      dup5\n      and\n        /* \"#utility.yul\":3492:3510   */\n      0x44\n      dup3\n      add\n        /* \"#utility.yul\":3485:3528   */\n      mstore\n        /* \"#utility.yul\":3544:3562   */\n      0x64\n      dup1\n      dup3\n      add\n        /* \"#utility.yul\":3537:3571   */\n      dup5\n      swap1\n      mstore\n        /* \"@openzeppelin/contracts/token/ERC20/utils/SafeERC20.sol\":1139:1207  abi.encodeWithSelector(token.transferFrom.selector, from, to, value) */\n      dup3\n      mload\n      dup1\n      dup4\n      sub\n      swap1\n      swap2\n      add\n      dup2\n      mstore\n        /* \"#utility.yul\":3377:3395   */\n      0x84\n      swap1\n      swap2\n      add\n        /* \"@openzeppelin/contracts/token/ERC20/utils/SafeERC20.sol\":1139:1207  abi.encodeWithSelector(token.transferFrom.selector, from, to, value) */\n      swap1\n      swap2\n      mstore\n      0x20\n      dup2\n      add\n      dup1\n      mload\n      sub(shl(0xe0, 0x01), 0x01)\n      and\n      shl(0xe0, 0x23b872dd)\n      or\n      swap1\n      mstore\n        /* \"@openzeppelin/contracts/token/ERC20/utils/SafeERC20.sol\":1112:1208  _callOptionalReturn(token, abi.encodeWithSelector(token.transferFrom.selector, from, to, value)) */\n      tag_98\n      swap1\n        /* \"@openzeppelin/contracts/token/ERC20/utils/SafeERC20.sol\":1132:1137  token */\n      dup6\n      swap1\n        /* \"@openzeppelin/contracts/token/ERC20/utils/SafeERC20.sol\":1112:1131  _callOptionalReturn */\n      tag_101\n        /* \"@openzeppelin/contracts/token/ERC20/utils/SafeERC20.sol\":1112:1208  _callOptionalReturn(token, abi.encodeWithSelector(token.transferFrom.selector, from, to, value)) */\n      jump\t// in\n    tag_98:\n        /* \"@openzeppelin/contracts/token/ERC20/utils/SafeERC20.sol\":974:1215  function safeTransferFrom(... */\n      pop\n      pop\n      pop\n      pop\n      jump\t// out\n        /* \"@openzeppelin/contracts/token/ERC20/utils/SafeERC20.sol\":3747:4453  function _callOptionalReturn(IERC20 token, bytes memory data) private {... */\n    tag_101:\n        /* \"@openzeppelin/contracts/token/ERC20/utils/SafeERC20.sol\":4166:4189  bytes memory returndata */\n      0x00\n        /* \"@openzeppelin/contracts/token/ERC20/utils/SafeERC20.sol\":4192:4261  address(token).functionCall(data, \"SafeERC20: low-level call failed\") */\n      tag_103\n        /* \"@openzeppelin/contracts/token/ERC20/utils/SafeERC20.sol\":4220:4224  data */\n      dup3\n        /* \"@openzeppelin/contracts/token/ERC20/utils/SafeERC20.sol\":4192:4261  address(token).functionCall(data, \"SafeERC20: low-level call failed\") */\n      mload(0x40)\n      dup1\n      0x40\n      add\n      0x40\n      mstore\n      dup1\n      0x20\n      dup2\n      mstore\n      0x20\n      add\n      0x5361666545524332303a206c6f772d6c6576656c2063616c6c206661696c6564\n      dup2\n      mstore\n      pop\n        /* \"@openzeppelin/contracts/token/ERC20/utils/SafeERC20.sol\":4200:4205  token */\n      dup6\n      sub(shl(0xa0, 0x01), 0x01)\n        /* \"@openzeppelin/contracts/token/ERC20/utils/SafeERC20.sol\":4192:4219  address(token).functionCall */\n      and\n      tag_104\n      swap1\n        /* \"@openzeppelin/contracts/token/ERC20/utils/SafeERC20.sol\":4192:4261  address(token).functionCall(data, \"SafeERC20: low-level call failed\") */\n      swap3\n      swap2\n      swap1\n      0xffffffff\n      and\n      jump\t// in\n    tag_103:\n        /* \"@openzeppelin/contracts/token/ERC20/utils/SafeERC20.sol\":4275:4292  returndata.length */\n      dup1\n      mload\n        /* \"@openzeppelin/contracts/token/ERC20/utils/SafeERC20.sol\":4166:4261  bytes memory returndata = address(token).functionCall(data, \"SafeERC20: low-level call failed\") */\n      swap1\n      swap2\n      pop\n        /* \"@openzeppelin/contracts/token/ERC20/utils/SafeERC20.sol\":4275:4296  returndata.length > 0 */\n      iszero\n        /* \"@openzeppelin/contracts/token/ERC20/utils/SafeERC20.sol\":4271:4447  if (returndata.length > 0) {... */\n      tag_107\n      jumpi\n        /* \"@openzeppelin/contracts/token/ERC20/utils/SafeERC20.sol\":4370:4380  returndata */\n      dup1\n        /* \"@openzeppelin/contracts/token/ERC20/utils/SafeERC20.sol\":4359:4389  abi.decode(returndata, (bool)) */\n      dup1\n      0x20\n      add\n      swap1\n      mload\n      dup2\n      add\n      swap1\n      tag_106\n      swap2\n      swap1\n      tag_46\n      jump\t// in\n    tag_106:\n        /* \"@openzeppelin/contracts/token/ERC20/utils/SafeERC20.sol\":4351:4436  require(abi.decode(returndata, (bool)), \"SafeERC20: ERC20 operation did not succeed\") */\n      tag_107\n      jumpi\n      mload(0x40)\n      shl(0xe5, 0x461bcd)\n      dup2\n      mstore\n        /* \"#utility.yul\":5486:5488   */\n      0x20\n        /* \"@openzeppelin/contracts/token/ERC20/utils/SafeERC20.sol\":4351:4436  require(abi.decode(returndata, (bool)), \"SafeERC20: ERC20 operation did not succeed\") */\n      0x04\n      dup3\n      add\n        /* \"#utility.yul\":5468:5489   */\n      mstore\n        /* \"#utility.yul\":5525:5527   */\n      0x2a\n        /* \"#utility.yul\":5505:5523   */\n      0x24\n      dup3\n      add\n        /* \"#utility.yul\":5498:5528   */\n      mstore\n        /* \"#utility.yul\":5564:5598   */\n      0x5361666545524332303a204552433230206f7065726174696f6e20646964206e\n        /* \"#utility.yul\":5544:5562   */\n      0x44\n      dup3\n      add\n        /* \"#utility.yul\":5537:5599   */\n      mstore\n      shl(0xb2, 0x1bdd081cdd58d8d95959)\n        /* \"#utility.yul\":5615:5633   */\n      0x64\n      dup3\n      add\n        /* \"#utility.yul\":5608:5648   */\n      mstore\n        /* \"#utility.yul\":5665:5684   */\n      0x84\n      add\n        /* \"@openzeppelin/contracts/token/ERC20/utils/SafeERC20.sol\":4351:4436  require(abi.decode(returndata, (bool)), \"SafeERC20: ERC20 operation did not succeed\") */\n      tag_48\n        /* \"#utility.yul\":5458:5690   */\n      jump\n        /* \"@openzeppelin/contracts/token/ERC20/utils/SafeERC20.sol\":4351:4436  require(abi.decode(returndata, (bool)), \"SafeERC20: ERC20 operation did not succeed\") */\n    tag_107:\n        /* \"@openzeppelin/contracts/token/ERC20/utils/SafeERC20.sol\":3747:4453  function _callOptionalReturn(IERC20 token, bytes memory data) private {... */\n      pop\n      pop\n      pop\n      jump\t// out\n        /* \"@openzeppelin/contracts/utils/Address.sol\":3861:4084  function functionCall(... */\n    tag_104:\n        /* \"@openzeppelin/contracts/utils/Address.sol\":3994:4006  bytes memory */\n      0x60\n        /* \"@openzeppelin/contracts/utils/Address.sol\":4025:4077  functionCallWithValue(target, data, 0, errorMessage) */\n      tag_111\n        /* \"@openzeppelin/contracts/utils/Address.sol\":4047:4053  target */\n      dup5\n        /* \"@openzeppelin/contracts/utils/Address.sol\":4055:4059  data */\n      dup5\n        /* \"@openzeppelin/contracts/utils/Address.sol\":4061:4062  0 */\n      0x00\n        /* \"@openzeppelin/contracts/utils/Address.sol\":4064:4076  errorMessage */\n      dup6\n        /* \"@openzeppelin/contracts/utils/Address.sol\":4025:4046  functionCallWithValue */\n      tag_112\n        /* \"@openzeppelin/contracts/utils/Address.sol\":4025:4077  functionCallWithValue(target, data, 0, errorMessage) */\n      jump\t// in\n    tag_111:\n        /* \"@openzeppelin/contracts/utils/Address.sol\":4018:4077  return functionCallWithValue(target, data, 0, errorMessage) */\n      swap1\n      pop\n        /* \"@openzeppelin/contracts/utils/Address.sol\":3861:4084  function functionCall(... */\n    tag_110:\n      swap4\n      swap3\n      pop\n      pop\n      pop\n      jump\t// out\n        /* \"@openzeppelin/contracts/utils/Address.sol\":4948:5447  function functionCallWithValue(... */\n    tag_112:\n        /* \"@openzeppelin/contracts/utils/Address.sol\":5113:5125  bytes memory */\n      0x60\n        /* \"@openzeppelin/contracts/utils/Address.sol\":5170:5175  value */\n      dup3\n        /* \"@openzeppelin/contracts/utils/Address.sol\":5145:5166  address(this).balance */\n      selfbalance\n        /* \"@openzeppelin/contracts/utils/Address.sol\":5145:5175  address(this).balance >= value */\n      lt\n      iszero\n        /* \"@openzeppelin/contracts/utils/Address.sol\":5137:5218  require(address(this).balance >= value, \"Address: insufficient balance for call\") */\n      tag_114\n      jumpi\n      mload(0x40)\n      shl(0xe5, 0x461bcd)\n      dup2\n      mstore\n        /* \"#utility.yul\":4721:4723   */\n      0x20\n        /* \"@openzeppelin/contracts/utils/Address.sol\":5137:5218  require(address(this).balance >= value, \"Address: insufficient balance for call\") */\n      0x04\n      dup3\n      add\n        /* \"#utility.yul\":4703:4724   */\n      mstore\n        /* \"#utility.yul\":4760:4762   */\n      0x26\n        /* \"#utility.yul\":4740:4758   */\n      0x24\n      dup3\n      add\n        /* \"#utility.yul\":4733:4763   */\n      mstore\n        /* \"#utility.yul\":4799:4833   */\n      0x416464726573733a20696e73756666696369656e742062616c616e636520666f\n        /* \"#utility.yul\":4779:4797   */\n      0x44\n      dup3\n      add\n        /* \"#utility.yul\":4772:4834   */\n      mstore\n      shl(0xd2, 0x1c8818d85b1b)\n        /* \"#utility.yul\":4850:4868   */\n      0x64\n      dup3\n      add\n        /* \"#utility.yul\":4843:4879   */\n      mstore\n        /* \"#utility.yul\":4896:4915   */\n      0x84\n      add\n        /* \"@openzeppelin/contracts/utils/Address.sol\":5137:5218  require(address(this).balance >= value, \"Address: insufficient balance for call\") */\n      tag_48\n        /* \"#utility.yul\":4693:4921   */\n      jump\n        /* \"@openzeppelin/contracts/utils/Address.sol\":5137:5218  require(address(this).balance >= value, \"Address: insufficient balance for call\") */\n    tag_114:\n      sub(shl(0xa0, 0x01), 0x01)\n        /* \"@openzeppelin/contracts/utils/Address.sol\":1465:1484  account.code.length */\n      dup6\n      and\n      extcodesize\n        /* \"@openzeppelin/contracts/utils/Address.sol\":5228:5288  require(isContract(target), \"Address: call to non-contract\") */\n      tag_119\n      jumpi\n      mload(0x40)\n      shl(0xe5, 0x461bcd)\n      dup2\n      mstore\n        /* \"#utility.yul\":5128:5130   */\n      0x20\n        /* \"@openzeppelin/contracts/utils/Address.sol\":5228:5288  require(isContract(target), \"Address: call to non-contract\") */\n      0x04\n      dup3\n      add\n        /* \"#utility.yul\":5110:5131   */\n      mstore\n        /* \"#utility.yul\":5167:5169   */\n      0x1d\n        /* \"#utility.yul\":5147:5165   */\n      0x24\n      dup3\n      add\n        /* \"#utility.yul\":5140:5170   */\n      mstore\n        /* \"#utility.yul\":5206:5237   */\n      0x416464726573733a2063616c6c20746f206e6f6e2d636f6e7472616374000000\n        /* \"#utility.yul\":5186:5204   */\n      0x44\n      dup3\n      add\n        /* \"#utility.yul\":5179:5238   */\n      mstore\n        /* \"#utility.yul\":5255:5273   */\n      0x64\n      add\n        /* \"@openzeppelin/contracts/utils/Address.sol\":5228:5288  require(isContract(target), \"Address: call to non-contract\") */\n      tag_48\n        /* \"#utility.yul\":5100:5279   */\n      jump\n        /* \"@openzeppelin/contracts/utils/Address.sol\":5228:5288  require(isContract(target), \"Address: call to non-contract\") */\n    tag_119:\n        /* \"@openzeppelin/contracts/utils/Address.sol\":5300:5312  bool success */\n      0x00\n        /* \"@openzeppelin/contracts/utils/Address.sol\":5314:5337  bytes memory returndata */\n      dup1\n        /* \"@openzeppelin/contracts/utils/Address.sol\":5341:5347  target */\n      dup7\n      sub(shl(0xa0, 0x01), 0x01)\n        /* \"@openzeppelin/contracts/utils/Address.sol\":5341:5352  target.call */\n      and\n        /* \"@openzeppelin/contracts/utils/Address.sol\":5360:5365  value */\n      dup6\n        /* \"@openzeppelin/contracts/utils/Address.sol\":5367:5371  data */\n      dup8\n        /* \"@openzeppelin/contracts/utils/Address.sol\":5341:5372  target.call{value: value}(data) */\n      mload(0x40)\n      tag_122\n      swap2\n      swap1\n      tag_123\n      jump\t// in\n    tag_122:\n      0x00\n      mload(0x40)\n      dup1\n      dup4\n      sub\n      dup2\n      dup6\n      dup8\n      gas\n      call\n      swap3\n      pop\n      pop\n      pop\n      returndatasize\n      dup1\n      0x00\n      dup2\n      eq\n      tag_126\n      jumpi\n      mload(0x40)\n      swap2\n      pop\n      and(add(returndatasize, 0x3f), not(0x1f))\n      dup3\n      add\n      0x40\n      mstore\n      returndatasize\n      dup3\n      mstore\n      returndatasize\n      0x00\n      0x20\n      dup5\n      add\n      returndatacopy\n      jump(tag_125)\n    tag_126:\n      0x60\n      swap2\n      pop\n    tag_125:\n      pop\n        /* \"@openzeppelin/contracts/utils/Address.sol\":5299:5372  (bool success, bytes memory returndata) = target.call{value: value}(data) */\n      swap2\n      pop\n      swap2\n      pop\n        /* \"@openzeppelin/contracts/utils/Address.sol\":5389:5440  verifyCallResult(success, returndata, errorMessage) */\n      tag_127\n        /* \"@openzeppelin/contracts/utils/Address.sol\":5406:5413  success */\n      dup3\n        /* \"@openzeppelin/contracts/utils/Address.sol\":5415:5425  returndata */\n      dup3\n        /* \"@openzeppelin/contracts/utils/Address.sol\":5427:5439  errorMessage */\n      dup7\n        /* \"@openzeppelin/contracts/utils/Address.sol\":5389:5405  verifyCallResult */\n      tag_128\n        /* \"@openzeppelin/contracts/utils/Address.sol\":5389:5440  verifyCallResult(success, returndata, errorMessage) */\n      jump\t// in\n    tag_127:\n        /* \"@openzeppelin/contracts/utils/Address.sol\":5382:5440  return verifyCallResult(success, returndata, errorMessage) */\n      swap8\n        /* \"@openzeppelin/contracts/utils/Address.sol\":4948:5447  function functionCallWithValue(... */\n      swap7\n      pop\n      pop\n      pop\n      pop\n      pop\n      pop\n      pop\n      jump\t// out\n        /* \"@openzeppelin/contracts/utils/Address.sol\":7561:8303  function verifyCallResult(... */\n    tag_128:\n        /* \"@openzeppelin/contracts/utils/Address.sol\":7707:7719  bytes memory */\n      0x60\n        /* \"@openzeppelin/contracts/utils/Address.sol\":7735:7742  success */\n      dup4\n        /* \"@openzeppelin/contracts/utils/Address.sol\":7731:8297  if (success) {... */\n      iszero\n      tag_131\n      jumpi\n      pop\n        /* \"@openzeppelin/contracts/utils/Address.sol\":7765:7775  returndata */\n      dup2\n        /* \"@openzeppelin/contracts/utils/Address.sol\":7758:7775  return returndata */\n      jump(tag_110)\n        /* \"@openzeppelin/contracts/utils/Address.sol\":7731:8297  if (success) {... */\n    tag_131:\n        /* \"@openzeppelin/contracts/utils/Address.sol\":7876:7893  returndata.length */\n      dup3\n      mload\n        /* \"@openzeppelin/contracts/utils/Address.sol\":7876:7897  returndata.length > 0 */\n      iszero\n        /* \"@openzeppelin/contracts/utils/Address.sol\":7872:8287  if (returndata.length > 0) {... */\n      tag_133\n      jumpi\n        /* \"@openzeppelin/contracts/utils/Address.sol\":8120:8130  returndata */\n      dup3\n        /* \"@openzeppelin/contracts/utils/Address.sol\":8114:8131  mload(returndata) */\n      mload\n        /* \"@openzeppelin/contracts/utils/Address.sol\":8180:8195  returndata_size */\n      dup1\n        /* \"@openzeppelin/contracts/utils/Address.sol\":8167:8177  returndata */\n      dup5\n        /* \"@openzeppelin/contracts/utils/Address.sol\":8163:8165  32 */\n      0x20\n        /* \"@openzeppelin/contracts/utils/Address.sol\":8159:8178  add(32, returndata) */\n      add\n        /* \"@openzeppelin/contracts/utils/Address.sol\":8152:8196  revert(add(32, returndata), returndata_size) */\n      revert\n        /* \"@openzeppelin/contracts/utils/Address.sol\":8069:8214  {... */\n    tag_133:\n        /* \"@openzeppelin/contracts/utils/Address.sol\":8259:8271  errorMessage */\n      dup2\n        /* \"@openzeppelin/contracts/utils/Address.sol\":8252:8272  revert(errorMessage) */\n      mload(0x40)\n      shl(0xe5, 0x461bcd)\n      dup2\n      mstore\n      0x04\n      add\n      tag_48\n      swap2\n      swap1\n      tag_136\n      jump\t// in\n        /* \"#utility.yul\":14:275   */\n    tag_64:\n        /* \"#utility.yul\":84:90   */\n      0x00\n        /* \"#utility.yul\":137:139   */\n      0x20\n        /* \"#utility.yul\":125:134   */\n      dup3\n        /* \"#utility.yul\":116:123   */\n      dup5\n        /* \"#utility.yul\":112:135   */\n      sub\n        /* \"#utility.yul\":108:140   */\n      slt\n        /* \"#utility.yul\":105:107   */\n      iszero\n      tag_139\n      jumpi\n        /* \"#utility.yul\":158:164   */\n      dup1\n        /* \"#utility.yul\":150:156   */\n      dup2\n        /* \"#utility.yul\":143:165   */\n      revert\n        /* \"#utility.yul\":105:107   */\n    tag_139:\n        /* \"#utility.yul\":195:204   */\n      dup2\n        /* \"#utility.yul\":189:205   */\n      mload\n        /* \"#utility.yul\":214:245   */\n      tag_110\n        /* \"#utility.yul\":239:244   */\n      dup2\n        /* \"#utility.yul\":214:245   */\n      tag_141\n      jump\t// in\n        /* \"#utility.yul\":280:678   */\n    tag_25:\n        /* \"#utility.yul\":348:354   */\n      0x00\n        /* \"#utility.yul\":356:362   */\n      dup1\n        /* \"#utility.yul\":409:411   */\n      0x40\n        /* \"#utility.yul\":397:406   */\n      dup4\n        /* \"#utility.yul\":388:395   */\n      dup6\n        /* \"#utility.yul\":384:407   */\n      sub\n        /* \"#utility.yul\":380:412   */\n      slt\n        /* \"#utility.yul\":377:379   */\n      iszero\n      tag_143\n      jumpi\n        /* \"#utility.yul\":430:436   */\n      dup1\n        /* \"#utility.yul\":422:428   */\n      dup2\n        /* \"#utility.yul\":415:437   */\n      revert\n        /* \"#utility.yul\":377:379   */\n    tag_143:\n        /* \"#utility.yul\":474:483   */\n      dup3\n        /* \"#utility.yul\":461:484   */\n      calldataload\n        /* \"#utility.yul\":493:524   */\n      tag_144\n        /* \"#utility.yul\":518:523   */\n      dup2\n        /* \"#utility.yul\":493:524   */\n      tag_141\n      jump\t// in\n    tag_144:\n        /* \"#utility.yul\":543:548   */\n      swap2\n      pop\n        /* \"#utility.yul\":600:602   */\n      0x20\n        /* \"#utility.yul\":585:603   */\n      dup4\n      add\n        /* \"#utility.yul\":572:604   */\n      calldataload\n        /* \"#utility.yul\":613:646   */\n      tag_145\n        /* \"#utility.yul\":572:604   */\n      dup2\n        /* \"#utility.yul\":613:646   */\n      tag_141\n      jump\t// in\n    tag_145:\n        /* \"#utility.yul\":665:672   */\n      dup1\n        /* \"#utility.yul\":655:672   */\n      swap2\n      pop\n      pop\n        /* \"#utility.yul\":367:678   */\n      swap3\n      pop\n      swap3\n      swap1\n      pop\n      jump\t// out\n        /* \"#utility.yul\":683:980   */\n    tag_46:\n        /* \"#utility.yul\":750:756   */\n      0x00\n        /* \"#utility.yul\":803:805   */\n      0x20\n        /* \"#utility.yul\":791:800   */\n      dup3\n        /* \"#utility.yul\":782:789   */\n      dup5\n        /* \"#utility.yul\":778:801   */\n      sub\n        /* \"#utility.yul\":774:806   */\n      slt\n        /* \"#utility.yul\":771:773   */\n      iszero\n      tag_147\n      jumpi\n        /* \"#utility.yul\":824:830   */\n      dup1\n        /* \"#utility.yul\":816:822   */\n      dup2\n        /* \"#utility.yul\":809:831   */\n      revert\n        /* \"#utility.yul\":771:773   */\n    tag_147:\n        /* \"#utility.yul\":861:870   */\n      dup2\n        /* \"#utility.yul\":855:871   */\n      mload\n        /* \"#utility.yul\":914:919   */\n      dup1\n        /* \"#utility.yul\":907:920   */\n      iszero\n        /* \"#utility.yul\":900:921   */\n      iszero\n        /* \"#utility.yul\":893:898   */\n      dup2\n        /* \"#utility.yul\":890:922   */\n      eq\n        /* \"#utility.yul\":880:882   */\n      tag_110\n      jumpi\n        /* \"#utility.yul\":941:947   */\n      dup2\n        /* \"#utility.yul\":933:939   */\n      dup3\n        /* \"#utility.yul\":926:948   */\n      revert\n        /* \"#utility.yul\":985:1909   */\n    tag_56:\n        /* \"#utility.yul\":1065:1071   */\n      0x00\n        /* \"#utility.yul\":1118:1120   */\n      0x20\n        /* \"#utility.yul\":1106:1115   */\n      dup3\n        /* \"#utility.yul\":1097:1104   */\n      dup5\n        /* \"#utility.yul\":1093:1116   */\n      sub\n        /* \"#utility.yul\":1089:1121   */\n      slt\n        /* \"#utility.yul\":1086:1088   */\n      iszero\n      tag_150\n      jumpi\n        /* \"#utility.yul\":1139:1145   */\n      dup1\n        /* \"#utility.yul\":1131:1137   */\n      dup2\n        /* \"#utility.yul\":1124:1146   */\n      revert\n        /* \"#utility.yul\":1086:1088   */\n    tag_150:\n        /* \"#utility.yul\":1177:1186   */\n      dup2\n        /* \"#utility.yul\":1171:1187   */\n      mload\n        /* \"#utility.yul\":1206:1224   */\n      0xffffffffffffffff\n        /* \"#utility.yul\":1247:1249   */\n      dup1\n        /* \"#utility.yul\":1239:1245   */\n      dup3\n        /* \"#utility.yul\":1236:1250   */\n      gt\n        /* \"#utility.yul\":1233:1235   */\n      iszero\n      tag_151\n      jumpi\n        /* \"#utility.yul\":1268:1274   */\n      dup3\n        /* \"#utility.yul\":1260:1266   */\n      dup4\n        /* \"#utility.yul\":1253:1275   */\n      revert\n        /* \"#utility.yul\":1233:1235   */\n    tag_151:\n        /* \"#utility.yul\":1311:1317   */\n      dup2\n        /* \"#utility.yul\":1300:1309   */\n      dup5\n        /* \"#utility.yul\":1296:1318   */\n      add\n        /* \"#utility.yul\":1286:1318   */\n      swap2\n      pop\n        /* \"#utility.yul\":1356:1363   */\n      dup5\n        /* \"#utility.yul\":1349:1353   */\n      0x1f\n        /* \"#utility.yul\":1345:1347   */\n      dup4\n        /* \"#utility.yul\":1341:1354   */\n      add\n        /* \"#utility.yul\":1337:1364   */\n      slt\n        /* \"#utility.yul\":1327:1329   */\n      tag_152\n      jumpi\n        /* \"#utility.yul\":1383:1389   */\n      dup3\n        /* \"#utility.yul\":1375:1381   */\n      dup4\n        /* \"#utility.yul\":1368:1390   */\n      revert\n        /* \"#utility.yul\":1327:1329   */\n    tag_152:\n        /* \"#utility.yul\":1417:1419   */\n      dup2\n        /* \"#utility.yul\":1411:1420   */\n      mload\n        /* \"#utility.yul\":1439:1441   */\n      dup2\n        /* \"#utility.yul\":1435:1437   */\n      dup2\n        /* \"#utility.yul\":1432:1442   */\n      gt\n        /* \"#utility.yul\":1429:1431   */\n      iszero\n      tag_154\n      jumpi\n        /* \"#utility.yul\":1445:1463   */\n      tag_154\n      tag_155\n      jump\t// in\n    tag_154:\n        /* \"#utility.yul\":1520:1522   */\n      0x40\n        /* \"#utility.yul\":1514:1523   */\n      mload\n        /* \"#utility.yul\":1488:1490   */\n      0x1f\n        /* \"#utility.yul\":1574:1587   */\n      dup3\n      add\n      not(0x1f)\n        /* \"#utility.yul\":1570:1592   */\n      swap1\n      dup2\n      and\n        /* \"#utility.yul\":1594:1596   */\n      0x3f\n        /* \"#utility.yul\":1566:1597   */\n      add\n        /* \"#utility.yul\":1562:1602   */\n      and\n        /* \"#utility.yul\":1550:1603   */\n      dup2\n      add\n      swap1\n        /* \"#utility.yul\":1618:1636   */\n      dup4\n      dup3\n      gt\n        /* \"#utility.yul\":1638:1660   */\n      dup2\n      dup4\n      lt\n        /* \"#utility.yul\":1615:1661   */\n      or\n        /* \"#utility.yul\":1612:1614   */\n      iszero\n      tag_157\n      jumpi\n        /* \"#utility.yul\":1664:1682   */\n      tag_157\n      tag_155\n      jump\t// in\n    tag_157:\n        /* \"#utility.yul\":1704:1714   */\n      dup2\n        /* \"#utility.yul\":1700:1702   */\n      0x40\n        /* \"#utility.yul\":1693:1715   */\n      mstore\n        /* \"#utility.yul\":1739:1741   */\n      dup3\n        /* \"#utility.yul\":1731:1737   */\n      dup2\n        /* \"#utility.yul\":1724:1742   */\n      mstore\n        /* \"#utility.yul\":1779:1786   */\n      dup8\n        /* \"#utility.yul\":1774:1776   */\n      0x20\n        /* \"#utility.yul\":1769:1771   */\n      dup5\n        /* \"#utility.yul\":1765:1767   */\n      dup8\n        /* \"#utility.yul\":1761:1772   */\n      add\n        /* \"#utility.yul\":1757:1777   */\n      add\n        /* \"#utility.yul\":1754:1787   */\n      gt\n        /* \"#utility.yul\":1751:1753   */\n      iszero\n      tag_158\n      jumpi\n        /* \"#utility.yul\":1805:1811   */\n      dup6\n        /* \"#utility.yul\":1797:1803   */\n      dup7\n        /* \"#utility.yul\":1790:1812   */\n      revert\n        /* \"#utility.yul\":1751:1753   */\n    tag_158:\n        /* \"#utility.yul\":1823:1878   */\n      tag_127\n        /* \"#utility.yul\":1875:1877   */\n      dup4\n        /* \"#utility.yul\":1870:1872   */\n      0x20\n        /* \"#utility.yul\":1862:1868   */\n      dup4\n        /* \"#utility.yul\":1858:1873   */\n      add\n        /* \"#utility.yul\":1853:1855   */\n      0x20\n        /* \"#utility.yul\":1849:1851   */\n      dup9\n        /* \"#utility.yul\":1845:1856   */\n      add\n        /* \"#utility.yul\":1823:1878   */\n      tag_160\n      jump\t// in\n        /* \"#utility.yul\":1914:2188   */\n    tag_123:\n        /* \"#utility.yul\":2043:2046   */\n      0x00\n        /* \"#utility.yul\":2081:2087   */\n      dup3\n        /* \"#utility.yul\":2075:2088   */\n      mload\n        /* \"#utility.yul\":2097:2150   */\n      tag_162\n        /* \"#utility.yul\":2143:2149   */\n      dup2\n        /* \"#utility.yul\":2138:2141   */\n      dup5\n        /* \"#utility.yul\":2131:2135   */\n      0x20\n        /* \"#utility.yul\":2123:2129   */\n      dup8\n        /* \"#utility.yul\":2119:2136   */\n      add\n        /* \"#utility.yul\":2097:2150   */\n      tag_160\n      jump\t// in\n    tag_162:\n        /* \"#utility.yul\":2166:2182   */\n      swap2\n      swap1\n      swap2\n      add\n      swap3\n        /* \"#utility.yul\":2051:2188   */\n      swap2\n      pop\n      pop\n      jump\t// out\n        /* \"#utility.yul\":3774:4157   */\n    tag_136:\n        /* \"#utility.yul\":3923:3925   */\n      0x20\n        /* \"#utility.yul\":3912:3921   */\n      dup2\n        /* \"#utility.yul\":3905:3926   */\n      mstore\n        /* \"#utility.yul\":3886:3890   */\n      0x00\n        /* \"#utility.yul\":3955:3961   */\n      dup3\n        /* \"#utility.yul\":3949:3962   */\n      mload\n        /* \"#utility.yul\":3998:4004   */\n      dup1\n        /* \"#utility.yul\":3993:3995   */\n      0x20\n        /* \"#utility.yul\":3982:3991   */\n      dup5\n        /* \"#utility.yul\":3978:3996   */\n      add\n        /* \"#utility.yul\":3971:4005   */\n      mstore\n        /* \"#utility.yul\":4014:4080   */\n      tag_171\n        /* \"#utility.yul\":4073:4079   */\n      dup2\n        /* \"#utility.yul\":4068:4070   */\n      0x40\n        /* \"#utility.yul\":4057:4066   */\n      dup6\n        /* \"#utility.yul\":4053:4071   */\n      add\n        /* \"#utility.yul\":4048:4050   */\n      0x20\n        /* \"#utility.yul\":4040:4046   */\n      dup8\n        /* \"#utility.yul\":4036:4051   */\n      add\n        /* \"#utility.yul\":4014:4080   */\n      tag_160\n      jump\t// in\n    tag_171:\n        /* \"#utility.yul\":4141:4143   */\n      0x1f\n        /* \"#utility.yul\":4120:4135   */\n      add\n      not(0x1f)\n        /* \"#utility.yul\":4116:4145   */\n      and\n        /* \"#utility.yul\":4101:4146   */\n      swap2\n      swap1\n      swap2\n      add\n        /* \"#utility.yul\":4148:4150   */\n      0x40\n        /* \"#utility.yul\":4097:4151   */\n      add\n      swap3\n        /* \"#utility.yul\":3895:4157   */\n      swap2\n      pop\n      pop\n      jump\t// out\n        /* \"#utility.yul\":6281:6409   */\n    tag_71:\n        /* \"#utility.yul\":6321:6324   */\n      0x00\n        /* \"#utility.yul\":6352:6353   */\n      dup3\n        /* \"#utility.yul\":6348:6354   */\n      not\n        /* \"#utility.yul\":6345:6346   */\n      dup3\n        /* \"#utility.yul\":6342:6355   */\n      gt\n        /* \"#utility.yul\":6339:6341   */\n      iszero\n      tag_180\n      jumpi\n        /* \"#utility.yul\":6358:6376   */\n      tag_180\n      tag_181\n      jump\t// in\n    tag_180:\n      pop\n        /* \"#utility.yul\":6394:6403   */\n      add\n      swap1\n        /* \"#utility.yul\":6329:6409   */\n      jump\t// out\n        /* \"#utility.yul\":6414:6631   */\n    tag_69:\n        /* \"#utility.yul\":6454:6455   */\n      0x00\n        /* \"#utility.yul\":6480:6481   */\n      dup3\n        /* \"#utility.yul\":6470:6472   */\n      tag_183\n      jumpi\n      shl(0xe0, 0x4e487b71)\n        /* \"#utility.yul\":6505:6536   */\n      dup2\n      mstore\n        /* \"#utility.yul\":6559:6563   */\n      0x12\n        /* \"#utility.yul\":6556:6557   */\n      0x04\n        /* \"#utility.yul\":6549:6564   */\n      mstore\n        /* \"#utility.yul\":6587:6591   */\n      0x24\n        /* \"#utility.yul\":6512:6513   */\n      dup2\n        /* \"#utility.yul\":6577:6592   */\n      revert\n        /* \"#utility.yul\":6470:6472   */\n    tag_183:\n      pop\n        /* \"#utility.yul\":6616:6625   */\n      div\n      swap1\n        /* \"#utility.yul\":6460:6631   */\n      jump\t// out\n        /* \"#utility.yul\":6636:6804   */\n    tag_67:\n        /* \"#utility.yul\":6676:6683   */\n      0x00\n        /* \"#utility.yul\":6742:6743   */\n      dup2\n        /* \"#utility.yul\":6738:6739   */\n      0x00\n        /* \"#utility.yul\":6734:6740   */\n      not\n        /* \"#utility.yul\":6730:6744   */\n      div\n        /* \"#utility.yul\":6727:6728   */\n      dup4\n        /* \"#utility.yul\":6724:6745   */\n      gt\n        /* \"#utility.yul\":6719:6720   */\n      dup3\n        /* \"#utility.yul\":6712:6721   */\n      iszero\n        /* \"#utility.yul\":6705:6722   */\n      iszero\n        /* \"#utility.yul\":6701:6746   */\n      and\n        /* \"#utility.yul\":6698:6700   */\n      iszero\n      tag_186\n      jumpi\n        /* \"#utility.yul\":6749:6767   */\n      tag_186\n      tag_181\n      jump\t// in\n    tag_186:\n      pop\n        /* \"#utility.yul\":6789:6798   */\n      mul\n      swap1\n        /* \"#utility.yul\":6688:6804   */\n      jump\t// out\n        /* \"#utility.yul\":6809:7067   */\n    tag_160:\n        /* \"#utility.yul\":6881:6882   */\n      0x00\n        /* \"#utility.yul\":6891:7004   */\n    tag_188:\n        /* \"#utility.yul\":6905:6911   */\n      dup4\n        /* \"#utility.yul\":6902:6903   */\n      dup2\n        /* \"#utility.yul\":6899:6912   */\n      lt\n        /* \"#utility.yul\":6891:7004   */\n      iszero\n      tag_190\n      jumpi\n        /* \"#utility.yul\":6981:6992   */\n      dup2\n      dup2\n      add\n        /* \"#utility.yul\":6975:6993   */\n      mload\n        /* \"#utility.yul\":6962:6973   */\n      dup4\n      dup3\n      add\n        /* \"#utility.yul\":6955:6994   */\n      mstore\n        /* \"#utility.yul\":6927:6929   */\n      0x20\n        /* \"#utility.yul\":6920:6930   */\n      add\n        /* \"#utility.yul\":6891:7004   */\n      jump(tag_188)\n    tag_190:\n        /* \"#utility.yul\":7022:7028   */\n      dup4\n        /* \"#utility.yul\":7019:7020   */\n      dup2\n        /* \"#utility.yul\":7016:7029   */\n      gt\n        /* \"#utility.yul\":7013:7015   */\n      iszero\n      tag_98\n      jumpi\n      pop\n      pop\n        /* \"#utility.yul\":7057:7058   */\n      0x00\n        /* \"#utility.yul\":7039:7055   */\n      swap2\n      add\n        /* \"#utility.yul\":7032:7059   */\n      mstore\n        /* \"#utility.yul\":6862:7067   */\n      jump\t// out\n        /* \"#utility.yul\":7072:7199   */\n    tag_181:\n        /* \"#utility.yul\":7133:7143   */\n      0x4e487b71\n        /* \"#utility.yul\":7128:7131   */\n      0xe0\n        /* \"#utility.yul\":7124:7144   */\n      shl\n        /* \"#utility.yul\":7121:7122   */\n      0x00\n        /* \"#utility.yul\":7114:7145   */\n      mstore\n        /* \"#utility.yul\":7164:7168   */\n      0x11\n        /* \"#utility.yul\":7161:7162   */\n      0x04\n        /* \"#utility.yul\":7154:7169   */\n      mstore\n        /* \"#utility.yul\":7188:7192   */\n      0x24\n        /* \"#utility.yul\":7185:7186   */\n      0x00\n        /* \"#utility.yul\":7178:7193   */\n      revert\n        /* \"#utility.yul\":7204:7331   */\n    tag_155:\n        /* \"#utility.yul\":7265:7275   */\n      0x4e487b71\n        /* \"#utility.yul\":7260:7263   */\n      0xe0\n        /* \"#utility.yul\":7256:7276   */\n      shl\n        /* \"#utility.yul\":7253:7254   */\n      0x00\n        /* \"#utility.yul\":7246:7277   */\n      mstore\n        /* \"#utility.yul\":7296:7300   */\n      0x41\n        /* \"#utility.yul\":7293:7294   */\n      0x04\n        /* \"#utility.yul\":7286:7301   */\n      mstore\n        /* \"#utility.yul\":7320:7324   */\n      0x24\n        /* \"#utility.yul\":7317:7318   */\n      0x00\n        /* \"#utility.yul\":7310:7325   */\n      revert\n        /* \"#utility.yul\":7336:7467   */\n    tag_141:\n      sub(shl(0xa0, 0x01), 0x01)\n        /* \"#utility.yul\":7411:7442   */\n      dup2\n      and\n        /* \"#utility.yul\":7401:7443   */\n      dup2\n      eq\n        /* \"#utility.yul\":7391:7393   */\n      tag_195\n      jumpi\n        /* \"#utility.yul\":7457:7458   */\n      0x00\n        /* \"#utility.yul\":7454:7455   */\n      dup1\n        /* \"#utility.yul\":7447:7459   */\n      revert\n        /* \"#utility.yul\":7391:7393   */\n    tag_195:\n        /* \"#utility.yul\":7381:7467   */\n      pop\n      jump\t// out\n\n    auxdata: 0xa26469706673582212202128fd3b2acdf2ffb0d52eb5b0d0100da6ef8de150deee69c5cc11b220bd356e64736f6c63430008040033\n}\n",
				"bytecode": {
					"linkReferences": {},
					"object": "6080604052600054600880546001600160a01b0319166001600160a01b0390921691909117905534801561003257600080fd5b50604051610dd7380380610dd7833981016040819052610051916101f4565b600860009054906101000a90046001600160a01b03166001600160a01b031663c45a01556040518163ffffffff1660e01b815260040160206040518083038186803b15801561009f57600080fd5b505afa1580156100b3573d6000803e3d6000fd5b505050506040513d601f19601f820116820180604052508101906100d791906101d3565b6001600160a01b0316336001600160a01b03161461016b5760405162461bcd60e51b815260206004820152604160248201527f6f6e6c792077656233626574732066697865646f64647320666163746f72792060448201527f636f6e74726163742063616e20637265617465207468697320636f6e747261636064820152601d60fa1b608482015260a40160405180910390fd5b600180546001600160a01b03199081166001600160a01b039788161790915560028054821695871695909517909455600380549094169290941691909117909155600655600755610249565b80516001600160a01b03811681146101ce57600080fd5b919050565b6000602082840312156101e4578081fd5b6101ed826101b7565b9392505050565b600080600080600060a0868803121561020b578081fd5b610214866101b7565b9450610222602087016101b7565b9350610230604087016101b7565b6060870151608090970151959894975095949392505050565b610b7f806102586000396000f3fe608060405234801561001057600080fd5b50600436106100885760003560e01c8063956236411161005b57806395623641146101005780639c7af57914610113578063baa1a3ec14610126578063ed7a4e0b1461013957600080fd5b8063156dcbf01461008d57806320781828146100a95780632efe91ef146100d45780636b396719146100dd575b600080fd5b61009660065481565b6040519081526020015b60405180910390f35b6003546100bc906001600160a01b031681565b6040516001600160a01b0390911681526020016100a0565b61009660075481565b6100f06100eb36600461093d565b61014c565b60405190151581526020016100a0565b6001546100bc906001600160a01b031681565b6002546100bc906001600160a01b031681565b6004546100bc906001600160a01b031681565b6005546100bc906001600160a01b031681565b60015460408051632f6498c360e21b815290516000926001600160a01b031691829163bd92630c91600480820192602092909190829003018186803b15801561019457600080fd5b505afa1580156101a8573d6000803e3d6000fd5b505050506040513d601f19601f820116820180604052508101906101cc9190610975565b61021d5760405162461bcd60e51b815260206004820152601c60248201527f4d61726b65747320686173206e6f74206265656e20736574746c65640000000060448201526064015b60405180910390fd5b60405164736964654160d81b602082015260250160405160208183030381529060405280519060200120816001600160a01b031663fbf063386040518163ffffffff1660e01b815260040160006040518083038186803b15801561028057600080fd5b505afa158015610294573d6000803e3d6000fd5b505050506040513d6000823e601f3d908101601f191682016040526102bc9190810190610995565b6040516020016102cc9190610a33565b60405160208183030381529060405280519060200120141561041357600254600480546001600160a01b0319166001600160a01b03909216918217815560408051631c631f5160e21b81529051839263718c7d4492808201926020929091829003018186803b15801561033e57600080fd5b505afa158015610352573d6000803e3d6000fd5b505050506040513d601f19601f820116820180604052508101906103769190610921565b600580546001600160a01b03199081166001600160a01b03938416908117909255600980549091168884161781556001546007546103eb94919091169291600a916103c091610aba565b6103ca9190610a9a565b6006546103d79190610a82565b6009546001600160a01b0316929190610667565b60035460075461040d916001600160a01b03169086906103d790600a90610a9a565b5061065d565b6040516439b4b232a160d91b602082015260250160405160208183030381529060405280519060200120816001600160a01b031663fbf063386040518163ffffffff1660e01b815260040160006040518083038186803b15801561047657600080fd5b505afa15801561048a573d6000803e3d6000fd5b505050506040513d6000823e601f3d908101601f191682016040526104b29190810190610995565b6040516020016104c29190610a33565b60405160208183030381529060405280519060200120141561060957600354600480546001600160a01b0319166001600160a01b03909216918217815560408051631c631f5160e21b81529051839263718c7d4492808201926020929091829003018186803b15801561053457600080fd5b505afa158015610548573d6000803e3d6000fd5b505050506040513d601f19601f8201168201806040525081019061056c9190610921565b600580546001600160a01b039283166001600160a01b03199182168117909255600980548985169216821790556002546006546105af9492939190921691610667565b6003546005546007546105e2926001600160a01b03908116921690600a906105d8906009610aba565b6103d79190610a9a565b60035460055460075461040d926001600160a01b039081169216906103d790600a90610a9a565b60405162461bcd60e51b815260206004820152602360248201527f6576656e742061646d696e20656e74657265642020696e76616c69642077696e6044820152623732b960e91b6064820152608401610214565b5060019392505050565b604080516001600160a01b0385811660248301528416604482015260648082018490528251808303909101815260849091019091526020810180516001600160e01b03166323b872dd60e01b1790526106c19085906106c7565b50505050565b600061071c826040518060400160405280602081526020017f5361666545524332303a206c6f772d6c6576656c2063616c6c206661696c6564815250856001600160a01b031661079e9092919063ffffffff16565b805190915015610799578080602001905181019061073a9190610975565b6107995760405162461bcd60e51b815260206004820152602a60248201527f5361666545524332303a204552433230206f7065726174696f6e20646964206e6044820152691bdd081cdd58d8d9595960b21b6064820152608401610214565b505050565b60606107ad84846000856107b7565b90505b9392505050565b6060824710156108185760405162461bcd60e51b815260206004820152602660248201527f416464726573733a20696e73756666696369656e742062616c616e636520666f6044820152651c8818d85b1b60d21b6064820152608401610214565b6001600160a01b0385163b61086f5760405162461bcd60e51b815260206004820152601d60248201527f416464726573733a2063616c6c20746f206e6f6e2d636f6e74726163740000006044820152606401610214565b600080866001600160a01b0316858760405161088b9190610a33565b60006040518083038185875af1925050503d80600081146108c8576040519150601f19603f3d011682016040523d82523d6000602084013e6108cd565b606091505b50915091506108dd8282866108e8565b979650505050505050565b606083156108f75750816107b0565b8251156109075782518084602001fd5b8160405162461bcd60e51b81526004016102149190610a4f565b600060208284031215610932578081fd5b81516107b081610b31565b6000806040838503121561094f578081fd5b823561095a81610b31565b9150602083013561096a81610b31565b809150509250929050565b600060208284031215610986578081fd5b815180151581146107b0578182fd5b6000602082840312156109a6578081fd5b815167ffffffffffffffff808211156109bd578283fd5b818401915084601f8301126109d0578283fd5b8151818111156109e2576109e2610b1b565b604051601f8201601f19908116603f01168101908382118183101715610a0a57610a0a610b1b565b81604052828152876020848701011115610a22578586fd5b6108dd836020830160208801610ad9565b60008251610a45818460208701610ad9565b9190910192915050565b6020815260008251806020840152610a6e816040850160208701610ad9565b601f01601f19169190910160400192915050565b60008219821115610a9557610a95610b05565b500190565b600082610ab557634e487b7160e01b81526012600452602481fd5b500490565b6000816000190483118215151615610ad457610ad4610b05565b500290565b60005b83811015610af4578181015183820152602001610adc565b838111156106c15750506000910152565b634e487b7160e01b600052601160045260246000fd5b634e487b7160e01b600052604160045260246000fd5b6001600160a01b0381168114610b4657600080fd5b5056fea26469706673582212202128fd3b2acdf2ffb0d52eb5b0d0100da6ef8de150deee69c5cc11b220bd356e64736f6c63430008040033",
					"opcodes": "PUSH1 0x80 PUSH1 0x40 MSTORE PUSH1 0x0 SLOAD PUSH1 0x8 DUP1 SLOAD PUSH1 0x1 PUSH1 0x1 PUSH1 0xA0 SHL SUB NOT AND PUSH1 0x1 PUSH1 0x1 PUSH1 0xA0 SHL SUB SWAP1 SWAP3 AND SWAP2 SWAP1 SWAP2 OR SWAP1 SSTORE CALLVALUE DUP1 ISZERO PUSH2 0x32 JUMPI PUSH1 0x0 DUP1 REVERT JUMPDEST POP PUSH1 0x40 MLOAD PUSH2 0xDD7 CODESIZE SUB DUP1 PUSH2 0xDD7 DUP4 CODECOPY DUP2 ADD PUSH1 0x40 DUP2 SWAP1 MSTORE PUSH2 0x51 SWAP2 PUSH2 0x1F4 JUMP JUMPDEST PUSH1 0x8 PUSH1 0x0 SWAP1 SLOAD SWAP1 PUSH2 0x100 EXP SWAP1 DIV PUSH1 0x1 PUSH1 0x1 PUSH1 0xA0 SHL SUB AND PUSH1 0x1 PUSH1 0x1 PUSH1 0xA0 SHL SUB AND PUSH4 0xC45A0155 PUSH1 0x40 MLOAD DUP2 PUSH4 0xFFFFFFFF AND PUSH1 0xE0 SHL DUP2 MSTORE PUSH1 0x4 ADD PUSH1 0x20 PUSH1 0x40 MLOAD DUP1 DUP4 SUB DUP2 DUP7 DUP1 EXTCODESIZE ISZERO DUP1 ISZERO PUSH2 0x9F JUMPI PUSH1 0x0 DUP1 REVERT JUMPDEST POP GAS STATICCALL ISZERO DUP1 ISZERO PUSH2 0xB3 JUMPI RETURNDATASIZE PUSH1 0x0 DUP1 RETURNDATACOPY RETURNDATASIZE PUSH1 0x0 REVERT JUMPDEST POP POP POP POP PUSH1 0x40 MLOAD RETURNDATASIZE PUSH1 0x1F NOT PUSH1 0x1F DUP3 ADD AND DUP3 ADD DUP1 PUSH1 0x40 MSTORE POP DUP2 ADD SWAP1 PUSH2 0xD7 SWAP2 SWAP1 PUSH2 0x1D3 JUMP JUMPDEST PUSH1 0x1 PUSH1 0x1 PUSH1 0xA0 SHL SUB AND CALLER PUSH1 0x1 PUSH1 0x1 PUSH1 0xA0 SHL SUB AND EQ PUSH2 0x16B JUMPI PUSH1 0x40 MLOAD PUSH3 0x461BCD PUSH1 0xE5 SHL DUP2 MSTORE PUSH1 0x20 PUSH1 0x4 DUP3 ADD MSTORE PUSH1 0x41 PUSH1 0x24 DUP3 ADD MSTORE PUSH32 0x6F6E6C792077656233626574732066697865646F64647320666163746F727920 PUSH1 0x44 DUP3 ADD MSTORE PUSH32 0x636F6E74726163742063616E20637265617465207468697320636F6E74726163 PUSH1 0x64 DUP3 ADD MSTORE PUSH1 0x1D PUSH1 0xFA SHL PUSH1 0x84 DUP3 ADD MSTORE PUSH1 0xA4 ADD PUSH1 0x40 MLOAD DUP1 SWAP2 SUB SWAP1 REVERT JUMPDEST PUSH1 0x1 DUP1 SLOAD PUSH1 0x1 PUSH1 0x1 PUSH1 0xA0 SHL SUB NOT SWAP1 DUP2 AND PUSH1 0x1 PUSH1 0x1 PUSH1 0xA0 SHL SUB SWAP8 DUP9 AND OR SWAP1 SWAP2 SSTORE PUSH1 0x2 DUP1 SLOAD DUP3 AND SWAP6 DUP8 AND SWAP6 SWAP1 SWAP6 OR SWAP1 SWAP5 SSTORE PUSH1 0x3 DUP1 SLOAD SWAP1 SWAP5 AND SWAP3 SWAP1 SWAP5 AND SWAP2 SWAP1 SWAP2 OR SWAP1 SWAP2 SSTORE PUSH1 0x6 SSTORE PUSH1 0x7 SSTORE PUSH2 0x249 JUMP JUMPDEST DUP1 MLOAD PUSH1 0x1 PUSH1 0x1 PUSH1 0xA0 SHL SUB DUP2 AND DUP2 EQ PUSH2 0x1CE JUMPI PUSH1 0x0 DUP1 REVERT JUMPDEST SWAP2 SWAP1 POP JUMP JUMPDEST PUSH1 0x0 PUSH1 0x20 DUP3 DUP5 SUB SLT ISZERO PUSH2 0x1E4 JUMPI DUP1 DUP2 REVERT JUMPDEST PUSH2 0x1ED DUP3 PUSH2 0x1B7 JUMP JUMPDEST SWAP4 SWAP3 POP POP POP JUMP JUMPDEST PUSH1 0x0 DUP1 PUSH1 0x0 DUP1 PUSH1 0x0 PUSH1 0xA0 DUP7 DUP9 SUB SLT ISZERO PUSH2 0x20B JUMPI DUP1 DUP2 REVERT JUMPDEST PUSH2 0x214 DUP7 PUSH2 0x1B7 JUMP JUMPDEST SWAP5 POP PUSH2 0x222 PUSH1 0x20 DUP8 ADD PUSH2 0x1B7 JUMP JUMPDEST SWAP4 POP PUSH2 0x230 PUSH1 0x40 DUP8 ADD PUSH2 0x1B7 JUMP JUMPDEST PUSH1 0x60 DUP8 ADD MLOAD PUSH1 0x80 SWAP1 SWAP8 ADD MLOAD SWAP6 SWAP9 SWAP5 SWAP8 POP SWAP6 SWAP5 SWAP4 SWAP3 POP POP POP JUMP JUMPDEST PUSH2 0xB7F DUP1 PUSH2 0x258 PUSH1 0x0 CODECOPY PUSH1 0x0 RETURN INVALID PUSH1 0x80 PUSH1 0x40 MSTORE CALLVALUE DUP1 ISZERO PUSH2 0x10 JUMPI PUSH1 0x0 DUP1 REVERT JUMPDEST POP PUSH1 0x4 CALLDATASIZE LT PUSH2 0x88 JUMPI PUSH1 0x0 CALLDATALOAD PUSH1 0xE0 SHR DUP1 PUSH4 0x95623641 GT PUSH2 0x5B JUMPI DUP1 PUSH4 0x95623641 EQ PUSH2 0x100 JUMPI DUP1 PUSH4 0x9C7AF579 EQ PUSH2 0x113 JUMPI DUP1 PUSH4 0xBAA1A3EC EQ PUSH2 0x126 JUMPI DUP1 PUSH4 0xED7A4E0B EQ PUSH2 0x139 JUMPI PUSH1 0x0 DUP1 REVERT JUMPDEST DUP1 PUSH4 0x156DCBF0 EQ PUSH2 0x8D JUMPI DUP1 PUSH4 0x20781828 EQ PUSH2 0xA9 JUMPI DUP1 PUSH4 0x2EFE91EF EQ PUSH2 0xD4 JUMPI DUP1 PUSH4 0x6B396719 EQ PUSH2 0xDD JUMPI JUMPDEST PUSH1 0x0 DUP1 REVERT JUMPDEST PUSH2 0x96 PUSH1 0x6 SLOAD DUP2 JUMP JUMPDEST PUSH1 0x40 MLOAD SWAP1 DUP2 MSTORE PUSH1 0x20 ADD JUMPDEST PUSH1 0x40 MLOAD DUP1 SWAP2 SUB SWAP1 RETURN JUMPDEST PUSH1 0x3 SLOAD PUSH2 0xBC SWAP1 PUSH1 0x1 PUSH1 0x1 PUSH1 0xA0 SHL SUB AND DUP2 JUMP JUMPDEST PUSH1 0x40 MLOAD PUSH1 0x1 PUSH1 0x1 PUSH1 0xA0 SHL SUB SWAP1 SWAP2 AND DUP2 MSTORE PUSH1 0x20 ADD PUSH2 0xA0 JUMP JUMPDEST PUSH2 0x96 PUSH1 0x7 SLOAD DUP2 JUMP JUMPDEST PUSH2 0xF0 PUSH2 0xEB CALLDATASIZE PUSH1 0x4 PUSH2 0x93D JUMP JUMPDEST PUSH2 0x14C JUMP JUMPDEST PUSH1 0x40 MLOAD SWAP1 ISZERO ISZERO DUP2 MSTORE PUSH1 0x20 ADD PUSH2 0xA0 JUMP JUMPDEST PUSH1 0x1 SLOAD PUSH2 0xBC SWAP1 PUSH1 0x1 PUSH1 0x1 PUSH1 0xA0 SHL SUB AND DUP2 JUMP JUMPDEST PUSH1 0x2 SLOAD PUSH2 0xBC SWAP1 PUSH1 0x1 PUSH1 0x1 PUSH1 0xA0 SHL SUB AND DUP2 JUMP JUMPDEST PUSH1 0x4 SLOAD PUSH2 0xBC SWAP1 PUSH1 0x1 PUSH1 0x1 PUSH1 0xA0 SHL SUB AND DUP2 JUMP JUMPDEST PUSH1 0x5 SLOAD PUSH2 0xBC SWAP1 PUSH1 0x1 PUSH1 0x1 PUSH1 0xA0 SHL SUB AND DUP2 JUMP JUMPDEST PUSH1 0x1 SLOAD PUSH1 0x40 DUP1 MLOAD PUSH4 0x2F6498C3 PUSH1 0xE2 SHL DUP2 MSTORE SWAP1 MLOAD PUSH1 0x0 SWAP3 PUSH1 0x1 PUSH1 0x1 PUSH1 0xA0 SHL SUB AND SWAP2 DUP3 SWAP2 PUSH4 0xBD92630C SWAP2 PUSH1 0x4 DUP1 DUP3 ADD SWAP3 PUSH1 0x20 SWAP3 SWAP1 SWAP2 SWAP1 DUP3 SWAP1 SUB ADD DUP2 DUP7 DUP1 EXTCODESIZE ISZERO DUP1 ISZERO PUSH2 0x194 JUMPI PUSH1 0x0 DUP1 REVERT JUMPDEST POP GAS STATICCALL ISZERO DUP1 ISZERO PUSH2 0x1A8 JUMPI RETURNDATASIZE PUSH1 0x0 DUP1 RETURNDATACOPY RETURNDATASIZE PUSH1 0x0 REVERT JUMPDEST POP POP POP POP PUSH1 0x40 MLOAD RETURNDATASIZE PUSH1 0x1F NOT PUSH1 0x1F DUP3 ADD AND DUP3 ADD DUP1 PUSH1 0x40 MSTORE POP DUP2 ADD SWAP1 PUSH2 0x1CC SWAP2 SWAP1 PUSH2 0x975 JUMP JUMPDEST PUSH2 0x21D JUMPI PUSH1 0x40 MLOAD PUSH3 0x461BCD PUSH1 0xE5 SHL DUP2 MSTORE PUSH1 0x20 PUSH1 0x4 DUP3 ADD MSTORE PUSH1 0x1C PUSH1 0x24 DUP3 ADD MSTORE PUSH32 0x4D61726B65747320686173206E6F74206265656E20736574746C656400000000 PUSH1 0x44 DUP3 ADD MSTORE PUSH1 0x64 ADD JUMPDEST PUSH1 0x40 MLOAD DUP1 SWAP2 SUB SWAP1 REVERT JUMPDEST PUSH1 0x40 MLOAD PUSH5 0x7369646541 PUSH1 0xD8 SHL PUSH1 0x20 DUP3 ADD MSTORE PUSH1 0x25 ADD PUSH1 0x40 MLOAD PUSH1 0x20 DUP2 DUP4 SUB SUB DUP2 MSTORE SWAP1 PUSH1 0x40 MSTORE DUP1 MLOAD SWAP1 PUSH1 0x20 ADD KECCAK256 DUP2 PUSH1 0x1 PUSH1 0x1 PUSH1 0xA0 SHL SUB AND PUSH4 0xFBF06338 PUSH1 0x40 MLOAD DUP2 PUSH4 0xFFFFFFFF AND PUSH1 0xE0 SHL DUP2 MSTORE PUSH1 0x4 ADD PUSH1 0x0 PUSH1 0x40 MLOAD DUP1 DUP4 SUB DUP2 DUP7 DUP1 EXTCODESIZE ISZERO DUP1 ISZERO PUSH2 0x280 JUMPI PUSH1 0x0 DUP1 REVERT JUMPDEST POP GAS STATICCALL ISZERO DUP1 ISZERO PUSH2 0x294 JUMPI RETURNDATASIZE PUSH1 0x0 DUP1 RETURNDATACOPY RETURNDATASIZE PUSH1 0x0 REVERT JUMPDEST POP POP POP POP PUSH1 0x40 MLOAD RETURNDATASIZE PUSH1 0x0 DUP3 RETURNDATACOPY PUSH1 0x1F RETURNDATASIZE SWAP1 DUP2 ADD PUSH1 0x1F NOT AND DUP3 ADD PUSH1 0x40 MSTORE PUSH2 0x2BC SWAP2 SWAP1 DUP2 ADD SWAP1 PUSH2 0x995 JUMP JUMPDEST PUSH1 0x40 MLOAD PUSH1 0x20 ADD PUSH2 0x2CC SWAP2 SWAP1 PUSH2 0xA33 JUMP JUMPDEST PUSH1 0x40 MLOAD PUSH1 0x20 DUP2 DUP4 SUB SUB DUP2 MSTORE SWAP1 PUSH1 0x40 MSTORE DUP1 MLOAD SWAP1 PUSH1 0x20 ADD KECCAK256 EQ ISZERO PUSH2 0x413 JUMPI PUSH1 0x2 SLOAD PUSH1 0x4 DUP1 SLOAD PUSH1 0x1 PUSH1 0x1 PUSH1 0xA0 SHL SUB NOT AND PUSH1 0x1 PUSH1 0x1 PUSH1 0xA0 SHL SUB SWAP1 SWAP3 AND SWAP2 DUP3 OR DUP2 SSTORE PUSH1 0x40 DUP1 MLOAD PUSH4 0x1C631F51 PUSH1 0xE2 SHL DUP2 MSTORE SWAP1 MLOAD DUP4 SWAP3 PUSH4 0x718C7D44 SWAP3 DUP1 DUP3 ADD SWAP3 PUSH1 0x20 SWAP3 SWAP1 SWAP2 DUP3 SWAP1 SUB ADD DUP2 DUP7 DUP1 EXTCODESIZE ISZERO DUP1 ISZERO PUSH2 0x33E JUMPI PUSH1 0x0 DUP1 REVERT JUMPDEST POP GAS STATICCALL ISZERO DUP1 ISZERO PUSH2 0x352 JUMPI RETURNDATASIZE PUSH1 0x0 DUP1 RETURNDATACOPY RETURNDATASIZE PUSH1 0x0 REVERT JUMPDEST POP POP POP POP PUSH1 0x40 MLOAD RETURNDATASIZE PUSH1 0x1F NOT PUSH1 0x1F DUP3 ADD AND DUP3 ADD DUP1 PUSH1 0x40 MSTORE POP DUP2 ADD SWAP1 PUSH2 0x376 SWAP2 SWAP1 PUSH2 0x921 JUMP JUMPDEST PUSH1 0x5 DUP1 SLOAD PUSH1 0x1 PUSH1 0x1 PUSH1 0xA0 SHL SUB NOT SWAP1 DUP2 AND PUSH1 0x1 PUSH1 0x1 PUSH1 0xA0 SHL SUB SWAP4 DUP5 AND SWAP1 DUP2 OR SWAP1 SWAP3 SSTORE PUSH1 0x9 DUP1 SLOAD SWAP1 SWAP2 AND DUP9 DUP5 AND OR DUP2 SSTORE PUSH1 0x1 SLOAD PUSH1 0x7 SLOAD PUSH2 0x3EB SWAP5 SWAP2 SWAP1 SWAP2 AND SWAP3 SWAP2 PUSH1 0xA SWAP2 PUSH2 0x3C0 SWAP2 PUSH2 0xABA JUMP JUMPDEST PUSH2 0x3CA SWAP2 SWAP1 PUSH2 0xA9A JUMP JUMPDEST PUSH1 0x6 SLOAD PUSH2 0x3D7 SWAP2 SWAP1 PUSH2 0xA82 JUMP JUMPDEST PUSH1 0x9 SLOAD PUSH1 0x1 PUSH1 0x1 PUSH1 0xA0 SHL SUB AND SWAP3 SWAP2 SWAP1 PUSH2 0x667 JUMP JUMPDEST PUSH1 0x3 SLOAD PUSH1 0x7 SLOAD PUSH2 0x40D SWAP2 PUSH1 0x1 PUSH1 0x1 PUSH1 0xA0 SHL SUB AND SWAP1 DUP7 SWAP1 PUSH2 0x3D7 SWAP1 PUSH1 0xA SWAP1 PUSH2 0xA9A JUMP JUMPDEST POP PUSH2 0x65D JUMP JUMPDEST PUSH1 0x40 MLOAD PUSH5 0x39B4B232A1 PUSH1 0xD9 SHL PUSH1 0x20 DUP3 ADD MSTORE PUSH1 0x25 ADD PUSH1 0x40 MLOAD PUSH1 0x20 DUP2 DUP4 SUB SUB DUP2 MSTORE SWAP1 PUSH1 0x40 MSTORE DUP1 MLOAD SWAP1 PUSH1 0x20 ADD KECCAK256 DUP2 PUSH1 0x1 PUSH1 0x1 PUSH1 0xA0 SHL SUB AND PUSH4 0xFBF06338 PUSH1 0x40 MLOAD DUP2 PUSH4 0xFFFFFFFF AND PUSH1 0xE0 SHL DUP2 MSTORE PUSH1 0x4 ADD PUSH1 0x0 PUSH1 0x40 MLOAD DUP1 DUP4 SUB DUP2 DUP7 DUP1 EXTCODESIZE ISZERO DUP1 ISZERO PUSH2 0x476 JUMPI PUSH1 0x0 DUP1 REVERT JUMPDEST POP GAS STATICCALL ISZERO DUP1 ISZERO PUSH2 0x48A JUMPI RETURNDATASIZE PUSH1 0x0 DUP1 RETURNDATACOPY RETURNDATASIZE PUSH1 0x0 REVERT JUMPDEST POP POP POP POP PUSH1 0x40 MLOAD RETURNDATASIZE PUSH1 0x0 DUP3 RETURNDATACOPY PUSH1 0x1F RETURNDATASIZE SWAP1 DUP2 ADD PUSH1 0x1F NOT AND DUP3 ADD PUSH1 0x40 MSTORE PUSH2 0x4B2 SWAP2 SWAP1 DUP2 ADD SWAP1 PUSH2 0x995 JUMP JUMPDEST PUSH1 0x40 MLOAD PUSH1 0x20 ADD PUSH2 0x4C2 SWAP2 SWAP1 PUSH2 0xA33 JUMP JUMPDEST PUSH1 0x40 MLOAD PUSH1 0x20 DUP2 DUP4 SUB SUB DUP2 MSTORE SWAP1 PUSH1 0x40 MSTORE DUP1 MLOAD SWAP1 PUSH1 0x20 ADD KECCAK256 EQ ISZERO PUSH2 0x609 JUMPI PUSH1 0x3 SLOAD PUSH1 0x4 DUP1 SLOAD PUSH1 0x1 PUSH1 0x1 PUSH1 0xA0 SHL SUB NOT AND PUSH1 0x1 PUSH1 0x1 PUSH1 0xA0 SHL SUB SWAP1 SWAP3 AND SWAP2 DUP3 OR DUP2 SSTORE PUSH1 0x40 DUP1 MLOAD PUSH4 0x1C631F51 PUSH1 0xE2 SHL DUP2 MSTORE SWAP1 MLOAD DUP4 SWAP3 PUSH4 0x718C7D44 SWAP3 DUP1 DUP3 ADD SWAP3 PUSH1 0x20 SWAP3 SWAP1 SWAP2 DUP3 SWAP1 SUB ADD DUP2 DUP7 DUP1 EXTCODESIZE ISZERO DUP1 ISZERO PUSH2 0x534 JUMPI PUSH1 0x0 DUP1 REVERT JUMPDEST POP GAS STATICCALL ISZERO DUP1 ISZERO PUSH2 0x548 JUMPI RETURNDATASIZE PUSH1 0x0 DUP1 RETURNDATACOPY RETURNDATASIZE PUSH1 0x0 REVERT JUMPDEST POP POP POP POP PUSH1 0x40 MLOAD RETURNDATASIZE PUSH1 0x1F NOT PUSH1 0x1F DUP3 ADD AND DUP3 ADD DUP1 PUSH1 0x40 MSTORE POP DUP2 ADD SWAP1 PUSH2 0x56C SWAP2 SWAP1 PUSH2 0x921 JUMP JUMPDEST PUSH1 0x5 DUP1 SLOAD PUSH1 0x1 PUSH1 0x1 PUSH1 0xA0 SHL SUB SWAP3 DUP4 AND PUSH1 0x1 PUSH1 0x1 PUSH1 0xA0 SHL SUB NOT SWAP2 DUP3 AND DUP2 OR SWAP1 SWAP3 SSTORE PUSH1 0x9 DUP1 SLOAD DUP10 DUP6 AND SWAP3 AND DUP3 OR SWAP1 SSTORE PUSH1 0x2 SLOAD PUSH1 0x6 SLOAD PUSH2 0x5AF SWAP5 SWAP3 SWAP4 SWAP2 SWAP1 SWAP3 AND SWAP2 PUSH2 0x667 JUMP JUMPDEST PUSH1 0x3 SLOAD PUSH1 0x5 SLOAD PUSH1 0x7 SLOAD PUSH2 0x5E2 SWAP3 PUSH1 0x1 PUSH1 0x1 PUSH1 0xA0 SHL SUB SWAP1 DUP2 AND SWAP3 AND SWAP1 PUSH1 0xA SWAP1 PUSH2 0x5D8 SWAP1 PUSH1 0x9 PUSH2 0xABA JUMP JUMPDEST PUSH2 0x3D7 SWAP2 SWAP1 PUSH2 0xA9A JUMP JUMPDEST PUSH1 0x3 SLOAD PUSH1 0x5 SLOAD PUSH1 0x7 SLOAD PUSH2 0x40D SWAP3 PUSH1 0x1 PUSH1 0x1 PUSH1 0xA0 SHL SUB SWAP1 DUP2 AND SWAP3 AND SWAP1 PUSH2 0x3D7 SWAP1 PUSH1 0xA SWAP1 PUSH2 0xA9A JUMP JUMPDEST PUSH1 0x40 MLOAD PUSH3 0x461BCD PUSH1 0xE5 SHL DUP2 MSTORE PUSH1 0x20 PUSH1 0x4 DUP3 ADD MSTORE PUSH1 0x23 PUSH1 0x24 DUP3 ADD MSTORE PUSH32 0x6576656E742061646D696E20656E74657265642020696E76616C69642077696E PUSH1 0x44 DUP3 ADD MSTORE PUSH3 0x3732B9 PUSH1 0xE9 SHL PUSH1 0x64 DUP3 ADD MSTORE PUSH1 0x84 ADD PUSH2 0x214 JUMP JUMPDEST POP PUSH1 0x1 SWAP4 SWAP3 POP POP POP JUMP JUMPDEST PUSH1 0x40 DUP1 MLOAD PUSH1 0x1 PUSH1 0x1 PUSH1 0xA0 SHL SUB DUP6 DUP2 AND PUSH1 0x24 DUP4 ADD MSTORE DUP5 AND PUSH1 0x44 DUP3 ADD MSTORE PUSH1 0x64 DUP1 DUP3 ADD DUP5 SWAP1 MSTORE DUP3 MLOAD DUP1 DUP4 SUB SWAP1 SWAP2 ADD DUP2 MSTORE PUSH1 0x84 SWAP1 SWAP2 ADD SWAP1 SWAP2 MSTORE PUSH1 0x20 DUP2 ADD DUP1 MLOAD PUSH1 0x1 PUSH1 0x1 PUSH1 0xE0 SHL SUB AND PUSH4 0x23B872DD PUSH1 0xE0 SHL OR SWAP1 MSTORE PUSH2 0x6C1 SWAP1 DUP6 SWAP1 PUSH2 0x6C7 JUMP JUMPDEST POP POP POP POP JUMP JUMPDEST PUSH1 0x0 PUSH2 0x71C DUP3 PUSH1 0x40 MLOAD DUP1 PUSH1 0x40 ADD PUSH1 0x40 MSTORE DUP1 PUSH1 0x20 DUP2 MSTORE PUSH1 0x20 ADD PUSH32 0x5361666545524332303A206C6F772D6C6576656C2063616C6C206661696C6564 DUP2 MSTORE POP DUP6 PUSH1 0x1 PUSH1 0x1 PUSH1 0xA0 SHL SUB AND PUSH2 0x79E SWAP1 SWAP3 SWAP2 SWAP1 PUSH4 0xFFFFFFFF AND JUMP JUMPDEST DUP1 MLOAD SWAP1 SWAP2 POP ISZERO PUSH2 0x799 JUMPI DUP1 DUP1 PUSH1 0x20 ADD SWAP1 MLOAD DUP2 ADD SWAP1 PUSH2 0x73A SWAP2 SWAP1 PUSH2 0x975 JUMP JUMPDEST PUSH2 0x799 JUMPI PUSH1 0x40 MLOAD PUSH3 0x461BCD PUSH1 0xE5 SHL DUP2 MSTORE PUSH1 0x20 PUSH1 0x4 DUP3 ADD MSTORE PUSH1 0x2A PUSH1 0x24 DUP3 ADD MSTORE PUSH32 0x5361666545524332303A204552433230206F7065726174696F6E20646964206E PUSH1 0x44 DUP3 ADD MSTORE PUSH10 0x1BDD081CDD58D8D95959 PUSH1 0xB2 SHL PUSH1 0x64 DUP3 ADD MSTORE PUSH1 0x84 ADD PUSH2 0x214 JUMP JUMPDEST POP POP POP JUMP JUMPDEST PUSH1 0x60 PUSH2 0x7AD DUP5 DUP5 PUSH1 0x0 DUP6 PUSH2 0x7B7 JUMP JUMPDEST SWAP1 POP JUMPDEST SWAP4 SWAP3 POP POP POP JUMP JUMPDEST PUSH1 0x60 DUP3 SELFBALANCE LT ISZERO PUSH2 0x818 JUMPI PUSH1 0x40 MLOAD PUSH3 0x461BCD PUSH1 0xE5 SHL DUP2 MSTORE PUSH1 0x20 PUSH1 0x4 DUP3 ADD MSTORE PUSH1 0x26 PUSH1 0x24 DUP3 ADD MSTORE PUSH32 0x416464726573733A20696E73756666696369656E742062616C616E636520666F PUSH1 0x44 DUP3 ADD MSTORE PUSH6 0x1C8818D85B1B PUSH1 0xD2 SHL PUSH1 0x64 DUP3 ADD MSTORE PUSH1 0x84 ADD PUSH2 0x214 JUMP JUMPDEST PUSH1 0x1 PUSH1 0x1 PUSH1 0xA0 SHL SUB DUP6 AND EXTCODESIZE PUSH2 0x86F JUMPI PUSH1 0x40 MLOAD PUSH3 0x461BCD PUSH1 0xE5 SHL DUP2 MSTORE PUSH1 0x20 PUSH1 0x4 DUP3 ADD MSTORE PUSH1 0x1D PUSH1 0x24 DUP3 ADD MSTORE PUSH32 0x416464726573733A2063616C6C20746F206E6F6E2D636F6E7472616374000000 PUSH1 0x44 DUP3 ADD MSTORE PUSH1 0x64 ADD PUSH2 0x214 JUMP JUMPDEST PUSH1 0x0 DUP1 DUP7 PUSH1 0x1 PUSH1 0x1 PUSH1 0xA0 SHL SUB AND DUP6 DUP8 PUSH1 0x40 MLOAD PUSH2 0x88B SWAP2 SWAP1 PUSH2 0xA33 JUMP JUMPDEST PUSH1 0x0 PUSH1 0x40 MLOAD DUP1 DUP4 SUB DUP2 DUP6 DUP8 GAS CALL SWAP3 POP POP POP RETURNDATASIZE DUP1 PUSH1 0x0 DUP2 EQ PUSH2 0x8C8 JUMPI PUSH1 0x40 MLOAD SWAP2 POP PUSH1 0x1F NOT PUSH1 0x3F RETURNDATASIZE ADD AND DUP3 ADD PUSH1 0x40 MSTORE RETURNDATASIZE DUP3 MSTORE RETURNDATASIZE PUSH1 0x0 PUSH1 0x20 DUP5 ADD RETURNDATACOPY PUSH2 0x8CD JUMP JUMPDEST PUSH1 0x60 SWAP2 POP JUMPDEST POP SWAP2 POP SWAP2 POP PUSH2 0x8DD DUP3 DUP3 DUP7 PUSH2 0x8E8 JUMP JUMPDEST SWAP8 SWAP7 POP POP POP POP POP POP POP JUMP JUMPDEST PUSH1 0x60 DUP4 ISZERO PUSH2 0x8F7 JUMPI POP DUP2 PUSH2 0x7B0 JUMP JUMPDEST DUP3 MLOAD ISZERO PUSH2 0x907 JUMPI DUP3 MLOAD DUP1 DUP5 PUSH1 0x20 ADD REVERT JUMPDEST DUP2 PUSH1 0x40 MLOAD PUSH3 0x461BCD PUSH1 0xE5 SHL DUP2 MSTORE PUSH1 0x4 ADD PUSH2 0x214 SWAP2 SWAP1 PUSH2 0xA4F JUMP JUMPDEST PUSH1 0x0 PUSH1 0x20 DUP3 DUP5 SUB SLT ISZERO PUSH2 0x932 JUMPI DUP1 DUP2 REVERT JUMPDEST DUP2 MLOAD PUSH2 0x7B0 DUP2 PUSH2 0xB31 JUMP JUMPDEST PUSH1 0x0 DUP1 PUSH1 0x40 DUP4 DUP6 SUB SLT ISZERO PUSH2 0x94F JUMPI DUP1 DUP2 REVERT JUMPDEST DUP3 CALLDATALOAD PUSH2 0x95A DUP2 PUSH2 0xB31 JUMP JUMPDEST SWAP2 POP PUSH1 0x20 DUP4 ADD CALLDATALOAD PUSH2 0x96A DUP2 PUSH2 0xB31 JUMP JUMPDEST DUP1 SWAP2 POP POP SWAP3 POP SWAP3 SWAP1 POP JUMP JUMPDEST PUSH1 0x0 PUSH1 0x20 DUP3 DUP5 SUB SLT ISZERO PUSH2 0x986 JUMPI DUP1 DUP2 REVERT JUMPDEST DUP2 MLOAD DUP1 ISZERO ISZERO DUP2 EQ PUSH2 0x7B0 JUMPI DUP2 DUP3 REVERT JUMPDEST PUSH1 0x0 PUSH1 0x20 DUP3 DUP5 SUB SLT ISZERO PUSH2 0x9A6 JUMPI DUP1 DUP2 REVERT JUMPDEST DUP2 MLOAD PUSH8 0xFFFFFFFFFFFFFFFF DUP1 DUP3 GT ISZERO PUSH2 0x9BD JUMPI DUP3 DUP4 REVERT JUMPDEST DUP2 DUP5 ADD SWAP2 POP DUP5 PUSH1 0x1F DUP4 ADD SLT PUSH2 0x9D0 JUMPI DUP3 DUP4 REVERT JUMPDEST DUP2 MLOAD DUP2 DUP2 GT ISZERO PUSH2 0x9E2 JUMPI PUSH2 0x9E2 PUSH2 0xB1B JUMP JUMPDEST PUSH1 0x40 MLOAD PUSH1 0x1F DUP3 ADD PUSH1 0x1F NOT SWAP1 DUP2 AND PUSH1 0x3F ADD AND DUP2 ADD SWAP1 DUP4 DUP3 GT DUP2 DUP4 LT OR ISZERO PUSH2 0xA0A JUMPI PUSH2 0xA0A PUSH2 0xB1B JUMP JUMPDEST DUP2 PUSH1 0x40 MSTORE DUP3 DUP2 MSTORE DUP8 PUSH1 0x20 DUP5 DUP8 ADD ADD GT ISZERO PUSH2 0xA22 JUMPI DUP6 DUP7 REVERT JUMPDEST PUSH2 0x8DD DUP4 PUSH1 0x20 DUP4 ADD PUSH1 0x20 DUP9 ADD PUSH2 0xAD9 JUMP JUMPDEST PUSH1 0x0 DUP3 MLOAD PUSH2 0xA45 DUP2 DUP5 PUSH1 0x20 DUP8 ADD PUSH2 0xAD9 JUMP JUMPDEST SWAP2 SWAP1 SWAP2 ADD SWAP3 SWAP2 POP POP JUMP JUMPDEST PUSH1 0x20 DUP2 MSTORE PUSH1 0x0 DUP3 MLOAD DUP1 PUSH1 0x20 DUP5 ADD MSTORE PUSH2 0xA6E DUP2 PUSH1 0x40 DUP6 ADD PUSH1 0x20 DUP8 ADD PUSH2 0xAD9 JUMP JUMPDEST PUSH1 0x1F ADD PUSH1 0x1F NOT AND SWAP2 SWAP1 SWAP2 ADD PUSH1 0x40 ADD SWAP3 SWAP2 POP POP JUMP JUMPDEST PUSH1 0x0 DUP3 NOT DUP3 GT ISZERO PUSH2 0xA95 JUMPI PUSH2 0xA95 PUSH2 0xB05 JUMP JUMPDEST POP ADD SWAP1 JUMP JUMPDEST PUSH1 0x0 DUP3 PUSH2 0xAB5 JUMPI PUSH4 0x4E487B71 PUSH1 0xE0 SHL DUP2 MSTORE PUSH1 0x12 PUSH1 0x4 MSTORE PUSH1 0x24 DUP2 REVERT JUMPDEST POP DIV SWAP1 JUMP JUMPDEST PUSH1 0x0 DUP2 PUSH1 0x0 NOT DIV DUP4 GT DUP3 ISZERO ISZERO AND ISZERO PUSH2 0xAD4 JUMPI PUSH2 0xAD4 PUSH2 0xB05 JUMP JUMPDEST POP MUL SWAP1 JUMP JUMPDEST PUSH1 0x0 JUMPDEST DUP4 DUP2 LT ISZERO PUSH2 0xAF4 JUMPI DUP2 DUP2 ADD MLOAD DUP4 DUP3 ADD MSTORE PUSH1 0x20 ADD PUSH2 0xADC JUMP JUMPDEST DUP4 DUP2 GT ISZERO PUSH2 0x6C1 JUMPI POP POP PUSH1 0x0 SWAP2 ADD MSTORE JUMP JUMPDEST PUSH4 0x4E487B71 PUSH1 0xE0 SHL PUSH1 0x0 MSTORE PUSH1 0x11 PUSH1 0x4 MSTORE PUSH1 0x24 PUSH1 0x0 REVERT JUMPDEST PUSH4 0x4E487B71 PUSH1 0xE0 SHL PUSH1 0x0 MSTORE PUSH1 0x41 PUSH1 0x4 MSTORE PUSH1 0x24 PUSH1 0x0 REVERT JUMPDEST PUSH1 0x1 PUSH1 0x1 PUSH1 0xA0 SHL SUB DUP2 AND DUP2 EQ PUSH2 0xB46 JUMPI PUSH1 0x0 DUP1 REVERT JUMPDEST POP JUMP INVALID LOG2 PUSH5 0x6970667358 0x22 SLT KECCAK256 0x21 0x28 REVERT EXTCODESIZE 0x2A 0xCD CALLCODE SELFDESTRUCT 0xB0 0xD5 0x2E 0xB5 0xB0 0xD0 LT 0xD 0xA6 0xEF DUP14 0xE1 POP 0xDE 0xEE PUSH10 0xC5CC11B220BD356E6473 PUSH16 0x6C634300080400330000000000000000 "
				},
				"gasEstimates": {
					"creation": {
						"codeDepositCost": "588600",
						"executionCost": "infinite",
						"totalCost": "infinite"
					},
					"external": {
						"amountA()": "985",
						"amountB()": "1029",
						"marketAddress()": "1037",
						"settlePair(address,address)": "infinite",
						"sideABetAddress()": "1059",
						"sideBBetAddress()": "1060",
						"winnerAddress()": "1103",
						"winnerBet()": "1081"
					}
				},
				"methodIdentifiers": {
					"amountA()": "156dcbf0",
					"amountB()": "2efe91ef",
					"marketAddress()": "95623641",
					"settlePair(address,address)": "6b396719",
					"sideABetAddress()": "9c7af579",
					"sideBBetAddress()": "20781828",
					"winnerAddress()": "ed7a4e0b",
					"winnerBet()": "baa1a3ec"
				}
			},
			"storageLayout": {
				"storage": [
					{
						"astId": 705,
						"contract": "contracts/BetPair.sol:BetPair",
						"label": "web3betsAddress",
						"offset": 0,
						"slot": "0",
						"type": "t_address"
					},
					{
						"astId": 708,
						"contract": "contracts/BetPair.sol:BetPair",
						"label": "marketAddress",
						"offset": 0,
						"slot": "1",
						"type": "t_address"
					},
					{
						"astId": 711,
						"contract": "contracts/BetPair.sol:BetPair",
						"label": "sideABetAddress",
						"offset": 0,
						"slot": "2",
						"type": "t_address"
					},
					{
						"astId": 714,
						"contract": "contracts/BetPair.sol:BetPair",
						"label": "sideBBetAddress",
						"offset": 0,
						"slot": "3",
						"type": "t_address"
					},
					{
						"astId": 717,
						"contract": "contracts/BetPair.sol:BetPair",
						"label": "winnerBet",
						"offset": 0,
						"slot": "4",
						"type": "t_address"
					},
					{
						"astId": 720,
						"contract": "contracts/BetPair.sol:BetPair",
						"label": "winnerAddress",
						"offset": 0,
						"slot": "5",
						"type": "t_address"
					},
					{
						"astId": 723,
						"contract": "contracts/BetPair.sol:BetPair",
						"label": "amountA",
						"offset": 0,
						"slot": "6",
						"type": "t_uint256"
					},
					{
						"astId": 726,
						"contract": "contracts/BetPair.sol:BetPair",
						"label": "amountB",
						"offset": 0,
						"slot": "7",
						"type": "t_uint256"
					},
					{
						"astId": 732,
						"contract": "contracts/BetPair.sol:BetPair",
						"label": "web3bets",
						"offset": 0,
						"slot": "8",
						"type": "t_contract(IWeb3BetsFO)1213"
					},
					{
						"astId": 735,
						"contract": "contracts/BetPair.sol:BetPair",
						"label": "_stableCoinWrapper",
						"offset": 0,
						"slot": "9",
						"type": "t_contract(IERC20)77"
					}
				],
				"types": {
					"t_address": {
						"encoding": "inplace",
						"label": "address",
						"numberOfBytes": "20"
					},
					"t_contract(IERC20)77": {
						"encoding": "inplace",
						"label": "contract IERC20",
						"numberOfBytes": "20"
					},
					"t_contract(IWeb3BetsFO)1213": {
						"encoding": "inplace",
						"label": "contract IWeb3BetsFO",
						"numberOfBytes": "20"
					},
					"t_uint256": {
						"encoding": "inplace",
						"label": "uint256",
						"numberOfBytes": "32"
					}
				}
			},
			"userdoc": {
				"kind": "user",
				"methods": {},
				"version": 1
			}
		}
	}
}