{
	"contracts/BetPair.sol": {
		"BetPair": {
			"abi": [
				{
					"inputs": [
						{
							"internalType": "address",
							"name": "market_",
							"type": "address"
						},
						{
							"internalType": "address",
							"name": "sideABet_",
							"type": "address"
						},
						{
							"internalType": "address",
							"name": "sideBBet_",
							"type": "address"
						},
						{
							"internalType": "uint256",
							"name": "amountA_",
							"type": "uint256"
						},
						{
							"internalType": "uint256",
							"name": "amountB_",
							"type": "uint256"
						}
					],
					"stateMutability": "nonpayable",
					"type": "constructor"
				},
				{
					"inputs": [],
					"name": "amountA",
					"outputs": [
						{
							"internalType": "uint256",
							"name": "",
							"type": "uint256"
						}
					],
					"stateMutability": "view",
					"type": "function"
				},
				{
					"inputs": [],
					"name": "amountB",
					"outputs": [
						{
							"internalType": "uint256",
							"name": "",
							"type": "uint256"
						}
					],
					"stateMutability": "view",
					"type": "function"
				},
				{
					"inputs": [],
					"name": "market",
					"outputs": [
						{
							"internalType": "address",
							"name": "",
							"type": "address"
						}
					],
					"stateMutability": "view",
					"type": "function"
				},
				{
					"inputs": [],
					"name": "settled",
					"outputs": [
						{
							"internalType": "bool",
							"name": "",
							"type": "bool"
						}
					],
					"stateMutability": "view",
					"type": "function"
				},
				{
					"inputs": [],
					"name": "sideABet",
					"outputs": [
						{
							"internalType": "address",
							"name": "",
							"type": "address"
						}
					],
					"stateMutability": "view",
					"type": "function"
				},
				{
					"inputs": [],
					"name": "sideBBet",
					"outputs": [
						{
							"internalType": "address",
							"name": "",
							"type": "address"
						}
					],
					"stateMutability": "view",
					"type": "function"
				}
			],
			"devdoc": {
				"kind": "dev",
				"methods": {},
				"version": 1
			},
			"evm": {
				"assembly": "    /* \"contracts/BetPair.sol\":163:910  contract BetPair is IBetPair {... */\n  mstore(0x40, 0x80)\n    /* \"contracts/BetPair.sol\":414:450  bool public override settled = false */\n  0x06\n  dup1\n  sload\n    /* \"contracts/BetPair.sol\":445:450  false */\n  0x00\n    /* \"contracts/BetPair.sol\":500:507  w3bAddr */\n  sload\n  sub(shl(0xa0, 0x01), 0x01)\n  and\n    /* \"contracts/BetPair.sol\":414:450  bool public override settled = false */\n  0x0100\n    /* \"contracts/BetPair.sol\":457:508  IWeb3BetsFO private web3bets = IWeb3BetsFO(w3bAddr) */\n  mul\n  not(sub(shl(0xa8, 0x01), 0x01))\n  swap1\n  swap2\n  and\n  or\n  swap1\n  sstore\n    /* \"contracts/BetPair.sol\":515:903  constructor (... */\n  callvalue\n  dup1\n  iszero\n  tag_1\n  jumpi\n  0x00\n  dup1\n  revert\ntag_1:\n  pop\n  mload(0x40)\n  sub(codesize, bytecodeSize)\n  dup1\n  bytecodeSize\n  dup4\n  codecopy\n  dup2\n  add\n  0x40\n  dup2\n  swap1\n  mstore\n  tag_2\n  swap2\n  tag_3\n  jump\t// in\ntag_2:\n    /* \"contracts/BetPair.sol\":691:699  web3bets */\n  0x06\n  0x01\n  swap1\n  sload\n  swap1\n  0x0100\n  exp\n  swap1\n  div\n  sub(shl(0xa0, 0x01), 0x01)\n  and\n  sub(shl(0xa0, 0x01), 0x01)\n    /* \"contracts/BetPair.sol\":691:713  web3bets.marketFactory */\n  and\n  0x06ae7095\n    /* \"contracts/BetPair.sol\":691:715  web3bets.marketFactory() */\n  mload(0x40)\n  dup2\n  0xffffffff\n  and\n  0xe0\n  shl\n  dup2\n  mstore\n  0x04\n  add\n  0x20\n  mload(0x40)\n  dup1\n  dup4\n  sub\n  dup2\n  dup7\n  dup1\n  extcodesize\n  iszero\n  dup1\n  iszero\n  tag_6\n  jumpi\n  0x00\n  dup1\n  revert\ntag_6:\n  pop\n  gas\n  staticcall\n  iszero\n  dup1\n  iszero\n  tag_8\n  jumpi\n  returndatasize\n  0x00\n  dup1\n  returndatacopy\n  revert(0x00, returndatasize)\ntag_8:\n  pop\n  pop\n  pop\n  pop\n  mload(0x40)\n  returndatasize\n  not(0x1f)\n  0x1f\n  dup3\n  add\n  and\n  dup3\n  add\n  dup1\n  0x40\n  mstore\n  pop\n  dup2\n  add\n  swap1\n  tag_9\n  swap2\n  swap1\n  tag_10\n  jump\t// in\ntag_9:\n  sub(shl(0xa0, 0x01), 0x01)\n    /* \"contracts/BetPair.sol\":677:715  msg.sender == web3bets.marketFactory() */\n  and\n    /* \"contracts/BetPair.sol\":677:687  msg.sender */\n  caller\n  sub(shl(0xa0, 0x01), 0x01)\n    /* \"contracts/BetPair.sol\":677:715  msg.sender == web3bets.marketFactory() */\n  and\n  eq\n    /* \"contracts/BetPair.sol\":669:754  require(msg.sender == web3bets.marketFactory(), \"only market factory can match bets\") */\n  tag_11\n  jumpi\n  mload(0x40)\n  shl(0xe5, 0x461bcd)\n  dup2\n  mstore\n    /* \"#utility.yul\":1138:1140   */\n  0x20\n    /* \"contracts/BetPair.sol\":669:754  require(msg.sender == web3bets.marketFactory(), \"only market factory can match bets\") */\n  0x04\n  dup3\n  add\n    /* \"#utility.yul\":1120:1141   */\n  mstore\n    /* \"#utility.yul\":1177:1179   */\n  0x22\n    /* \"#utility.yul\":1157:1175   */\n  0x24\n  dup3\n  add\n    /* \"#utility.yul\":1150:1180   */\n  mstore\n    /* \"#utility.yul\":1216:1250   */\n  0x6f6e6c79206d61726b657420666163746f72792063616e206d61746368206265\n    /* \"#utility.yul\":1196:1214   */\n  0x44\n  dup3\n  add\n    /* \"#utility.yul\":1189:1251   */\n  mstore\n  shl(0xf0, 0x7473)\n    /* \"#utility.yul\":1267:1285   */\n  0x64\n  dup3\n  add\n    /* \"#utility.yul\":1260:1292   */\n  mstore\n    /* \"#utility.yul\":1309:1328   */\n  0x84\n  add\n    /* \"contracts/BetPair.sol\":669:754  require(msg.sender == web3bets.marketFactory(), \"only market factory can match bets\") */\n  mload(0x40)\n  dup1\n  swap2\n  sub\n  swap1\n  revert\ntag_11:\n    /* \"contracts/BetPair.sol\":764:770  market */\n  0x01\n    /* \"contracts/BetPair.sol\":764:780  market = market_ */\n  dup1\n  sload\n  not(sub(shl(0xa0, 0x01), 0x01))\n  swap1\n  dup2\n  and\n  sub(shl(0xa0, 0x01), 0x01)\n  swap8\n  dup9\n  and\n  or\n  swap1\n  swap2\n  sstore\n    /* \"contracts/BetPair.sol\":790:798  sideABet */\n  0x02\n    /* \"contracts/BetPair.sol\":790:810  sideABet = sideABet_ */\n  dup1\n  sload\n  dup3\n  and\n  swap6\n  dup8\n  and\n  swap6\n  swap1\n  swap6\n  or\n  swap1\n  swap5\n  sstore\n    /* \"contracts/BetPair.sol\":820:828  sideBBet */\n  0x03\n    /* \"contracts/BetPair.sol\":820:840  sideBBet = sideBBet_ */\n  dup1\n  sload\n  swap1\n  swap5\n  and\n  swap3\n  swap1\n  swap5\n  and\n  swap2\n  swap1\n  swap2\n  or\n  swap1\n  swap2\n  sstore\n    /* \"contracts/BetPair.sol\":850:857  amountA */\n  0x04\n    /* \"contracts/BetPair.sol\":850:868  amountA = amountA_ */\n  sstore\n    /* \"contracts/BetPair.sol\":878:885  amountB */\n  0x05\n    /* \"contracts/BetPair.sol\":878:896  amountB = amountB_ */\n  sstore\n    /* \"contracts/BetPair.sol\":163:910  contract BetPair is IBetPair {... */\n  jump(tag_15)\n    /* \"#utility.yul\":14:191   */\ntag_16:\n    /* \"#utility.yul\":93:106   */\n  dup1\n  mload\n  sub(shl(0xa0, 0x01), 0x01)\n    /* \"#utility.yul\":135:166   */\n  dup2\n  and\n    /* \"#utility.yul\":125:167   */\n  dup2\n  eq\n    /* \"#utility.yul\":115:117   */\n  tag_18\n  jumpi\n    /* \"#utility.yul\":181:182   */\n  0x00\n    /* \"#utility.yul\":178:179   */\n  dup1\n    /* \"#utility.yul\":171:183   */\n  revert\n    /* \"#utility.yul\":115:117   */\ntag_18:\n    /* \"#utility.yul\":74:191   */\n  swap2\n  swap1\n  pop\n  jump\t// out\n    /* \"#utility.yul\":196:414   */\ntag_10:\n    /* \"#utility.yul\":266:272   */\n  0x00\n    /* \"#utility.yul\":319:321   */\n  0x20\n    /* \"#utility.yul\":307:316   */\n  dup3\n    /* \"#utility.yul\":298:305   */\n  dup5\n    /* \"#utility.yul\":294:317   */\n  sub\n    /* \"#utility.yul\":290:322   */\n  slt\n    /* \"#utility.yul\":287:289   */\n  iszero\n  tag_20\n  jumpi\n    /* \"#utility.yul\":340:346   */\n  dup1\n    /* \"#utility.yul\":332:338   */\n  dup2\n    /* \"#utility.yul\":325:347   */\n  revert\n    /* \"#utility.yul\":287:289   */\ntag_20:\n    /* \"#utility.yul\":368:408   */\n  tag_21\n    /* \"#utility.yul\":398:407   */\n  dup3\n    /* \"#utility.yul\":368:408   */\n  tag_16\n  jump\t// in\ntag_21:\n    /* \"#utility.yul\":358:408   */\n  swap4\n    /* \"#utility.yul\":277:414   */\n  swap3\n  pop\n  pop\n  pop\n  jump\t// out\n    /* \"#utility.yul\":419:931   */\ntag_3:\n    /* \"#utility.yul\":525:531   */\n  0x00\n    /* \"#utility.yul\":533:539   */\n  dup1\n    /* \"#utility.yul\":541:547   */\n  0x00\n    /* \"#utility.yul\":549:555   */\n  dup1\n    /* \"#utility.yul\":557:563   */\n  0x00\n    /* \"#utility.yul\":610:613   */\n  0xa0\n    /* \"#utility.yul\":598:607   */\n  dup7\n    /* \"#utility.yul\":589:596   */\n  dup9\n    /* \"#utility.yul\":585:608   */\n  sub\n    /* \"#utility.yul\":581:614   */\n  slt\n    /* \"#utility.yul\":578:580   */\n  iszero\n  tag_23\n  jumpi\n    /* \"#utility.yul\":632:638   */\n  dup1\n    /* \"#utility.yul\":624:630   */\n  dup2\n    /* \"#utility.yul\":617:639   */\n  revert\n    /* \"#utility.yul\":578:580   */\ntag_23:\n    /* \"#utility.yul\":660:700   */\n  tag_24\n    /* \"#utility.yul\":690:699   */\n  dup7\n    /* \"#utility.yul\":660:700   */\n  tag_16\n  jump\t// in\ntag_24:\n    /* \"#utility.yul\":650:700   */\n  swap5\n  pop\n    /* \"#utility.yul\":719:768   */\n  tag_25\n    /* \"#utility.yul\":764:766   */\n  0x20\n    /* \"#utility.yul\":753:762   */\n  dup8\n    /* \"#utility.yul\":749:767   */\n  add\n    /* \"#utility.yul\":719:768   */\n  tag_16\n  jump\t// in\ntag_25:\n    /* \"#utility.yul\":709:768   */\n  swap4\n  pop\n    /* \"#utility.yul\":787:836   */\n  tag_26\n    /* \"#utility.yul\":832:834   */\n  0x40\n    /* \"#utility.yul\":821:830   */\n  dup8\n    /* \"#utility.yul\":817:835   */\n  add\n    /* \"#utility.yul\":787:836   */\n  tag_16\n  jump\t// in\ntag_26:\n    /* \"#utility.yul\":876:878   */\n  0x60\n    /* \"#utility.yul\":861:879   */\n  dup8\n  add\n    /* \"#utility.yul\":855:880   */\n  mload\n    /* \"#utility.yul\":920:923   */\n  0x80\n    /* \"#utility.yul\":905:924   */\n  swap1\n  swap8\n  add\n    /* \"#utility.yul\":899:925   */\n  mload\n    /* \"#utility.yul\":568:931   */\n  swap6\n  swap9\n  swap5\n  swap8\n  pop\n    /* \"#utility.yul\":777:836   */\n  swap6\n    /* \"#utility.yul\":855:880   */\n  swap5\n    /* \"#utility.yul\":899:925   */\n  swap4\n    /* \"#utility.yul\":568:931   */\n  swap3\n  pop\n  pop\n  pop\n  jump\t// out\n    /* \"#utility.yul\":1110:1334   */\ntag_15:\n    /* \"contracts/BetPair.sol\":163:910  contract BetPair is IBetPair {... */\n  dataSize(sub_0)\n  dup1\n  dataOffset(sub_0)\n  0x00\n  codecopy\n  0x00\n  return\nstop\n\nsub_0: assembly {\n        /* \"contracts/BetPair.sol\":163:910  contract BetPair is IBetPair {... */\n      mstore(0x40, 0x80)\n      callvalue\n      dup1\n      iszero\n      tag_1\n      jumpi\n      0x00\n      dup1\n      revert\n    tag_1:\n      pop\n      jumpi(tag_2, lt(calldatasize, 0x04))\n      shr(0xe0, calldataload(0x00))\n      dup1\n      0x0f765e6d\n      eq\n      tag_3\n      jumpi\n      dup1\n      0x156dcbf0\n      eq\n      tag_4\n      jumpi\n      dup1\n      0x15e894ab\n      eq\n      tag_5\n      jumpi\n      dup1\n      0x2efe91ef\n      eq\n      tag_6\n      jumpi\n      dup1\n      0x80f55605\n      eq\n      tag_7\n      jumpi\n      dup1\n      0x8f775839\n      eq\n      tag_8\n      jumpi\n    tag_2:\n      0x00\n      dup1\n      revert\n        /* \"contracts/BetPair.sol\":305:337  address public override sideBBet */\n    tag_3:\n      sload(0x03)\n      tag_9\n      swap1\n      sub(shl(0xa0, 0x01), 0x01)\n      and\n      dup2\n      jump\n    tag_9:\n      mload(0x40)\n      sub(shl(0xa0, 0x01), 0x01)\n        /* \"#utility.yul\":178:210   */\n      swap1\n      swap2\n      and\n        /* \"#utility.yul\":160:211   */\n      dup2\n      mstore\n        /* \"#utility.yul\":148:150   */\n      0x20\n        /* \"#utility.yul\":133:151   */\n      add\n        /* \"contracts/BetPair.sol\":305:337  address public override sideBBet */\n    tag_11:\n      mload(0x40)\n      dup1\n      swap2\n      sub\n      swap1\n      return\n        /* \"contracts/BetPair.sol\":344:372  uint public override amountA */\n    tag_4:\n      tag_13\n      sload(0x04)\n      dup2\n      jump\n    tag_13:\n      mload(0x40)\n        /* \"#utility.yul\":560:585   */\n      swap1\n      dup2\n      mstore\n        /* \"#utility.yul\":548:550   */\n      0x20\n        /* \"#utility.yul\":533:551   */\n      add\n        /* \"contracts/BetPair.sol\":344:372  uint public override amountA */\n      tag_11\n        /* \"#utility.yul\":515:591   */\n      jump\n        /* \"contracts/BetPair.sol\":266:298  address public override sideABet */\n    tag_5:\n      sload(0x02)\n      tag_9\n      swap1\n      sub(shl(0xa0, 0x01), 0x01)\n      and\n      dup2\n      jump\n        /* \"contracts/BetPair.sol\":379:407  uint public override amountB */\n    tag_6:\n      tag_13\n      sload(0x05)\n      dup2\n      jump\n        /* \"contracts/BetPair.sol\":229:259  address public override market */\n    tag_7:\n      sload(0x01)\n      tag_9\n      swap1\n      sub(shl(0xa0, 0x01), 0x01)\n      and\n      dup2\n      jump\n        /* \"contracts/BetPair.sol\":414:450  bool public override settled = false */\n    tag_8:\n      sload(0x06)\n      tag_26\n      swap1\n      0xff\n      and\n      dup2\n      jump\n    tag_26:\n      mload(0x40)\n        /* \"#utility.yul\":387:401   */\n      swap1\n      iszero\n        /* \"#utility.yul\":380:402   */\n      iszero\n        /* \"#utility.yul\":362:403   */\n      dup2\n      mstore\n        /* \"#utility.yul\":350:352   */\n      0x20\n        /* \"#utility.yul\":335:353   */\n      add\n        /* \"contracts/BetPair.sol\":414:450  bool public override settled = false */\n      tag_11\n        /* \"#utility.yul\":317:409   */\n      jump\n\n    auxdata: 0xa264697066735822122040bc3ae47781bcf67043c037e91bfe0c2863ba4e5b94b5bf8f78e0654fbf2ed664736f6c63430008040033\n}\n",
				"bytecode": {
					"linkReferences": {},
					"object": "6080604052600680546000546001600160a01b0316610100026001600160a81b031990911617905534801561003357600080fd5b50604051610354380380610354833981016040819052610052916101d0565b600660019054906101000a90046001600160a01b03166001600160a01b03166306ae70956040518163ffffffff1660e01b815260040160206040518083038186803b1580156100a057600080fd5b505afa1580156100b4573d6000803e3d6000fd5b505050506040513d601f19601f820116820180604052508101906100d891906101af565b6001600160a01b0316336001600160a01b0316146101475760405162461bcd60e51b815260206004820152602260248201527f6f6e6c79206d61726b657420666163746f72792063616e206d61746368206265604482015261747360f01b606482015260840160405180910390fd5b600180546001600160a01b03199081166001600160a01b039788161790915560028054821695871695909517909455600380549094169290941691909117909155600455600555610225565b80516001600160a01b03811681146101aa57600080fd5b919050565b6000602082840312156101c0578081fd5b6101c982610193565b9392505050565b600080600080600060a086880312156101e7578081fd5b6101f086610193565b94506101fe60208701610193565b935061020c60408701610193565b6060870151608090970151959894975095949392505050565b610120806102346000396000f3fe6080604052348015600f57600080fd5b5060043610605a5760003560e01c80630f765e6d14605f578063156dcbf014608e57806315e894ab1460a35780632efe91ef1460b557806380f556051460bd5780638f7758391460cf575b600080fd5b6003546071906001600160a01b031681565b6040516001600160a01b0390911681526020015b60405180910390f35b609660045481565b6040519081526020016085565b6002546071906001600160a01b031681565b609660055481565b6001546071906001600160a01b031681565b60065460db9060ff1681565b6040519015158152602001608556fea264697066735822122040bc3ae47781bcf67043c037e91bfe0c2863ba4e5b94b5bf8f78e0654fbf2ed664736f6c63430008040033",
					"opcodes": "PUSH1 0x80 PUSH1 0x40 MSTORE PUSH1 0x6 DUP1 SLOAD PUSH1 0x0 SLOAD PUSH1 0x1 PUSH1 0x1 PUSH1 0xA0 SHL SUB AND PUSH2 0x100 MUL PUSH1 0x1 PUSH1 0x1 PUSH1 0xA8 SHL SUB NOT SWAP1 SWAP2 AND OR SWAP1 SSTORE CALLVALUE DUP1 ISZERO PUSH2 0x33 JUMPI PUSH1 0x0 DUP1 REVERT JUMPDEST POP PUSH1 0x40 MLOAD PUSH2 0x354 CODESIZE SUB DUP1 PUSH2 0x354 DUP4 CODECOPY DUP2 ADD PUSH1 0x40 DUP2 SWAP1 MSTORE PUSH2 0x52 SWAP2 PUSH2 0x1D0 JUMP JUMPDEST PUSH1 0x6 PUSH1 0x1 SWAP1 SLOAD SWAP1 PUSH2 0x100 EXP SWAP1 DIV PUSH1 0x1 PUSH1 0x1 PUSH1 0xA0 SHL SUB AND PUSH1 0x1 PUSH1 0x1 PUSH1 0xA0 SHL SUB AND PUSH4 0x6AE7095 PUSH1 0x40 MLOAD DUP2 PUSH4 0xFFFFFFFF AND PUSH1 0xE0 SHL DUP2 MSTORE PUSH1 0x4 ADD PUSH1 0x20 PUSH1 0x40 MLOAD DUP1 DUP4 SUB DUP2 DUP7 DUP1 EXTCODESIZE ISZERO DUP1 ISZERO PUSH2 0xA0 JUMPI PUSH1 0x0 DUP1 REVERT JUMPDEST POP GAS STATICCALL ISZERO DUP1 ISZERO PUSH2 0xB4 JUMPI RETURNDATASIZE PUSH1 0x0 DUP1 RETURNDATACOPY RETURNDATASIZE PUSH1 0x0 REVERT JUMPDEST POP POP POP POP PUSH1 0x40 MLOAD RETURNDATASIZE PUSH1 0x1F NOT PUSH1 0x1F DUP3 ADD AND DUP3 ADD DUP1 PUSH1 0x40 MSTORE POP DUP2 ADD SWAP1 PUSH2 0xD8 SWAP2 SWAP1 PUSH2 0x1AF JUMP JUMPDEST PUSH1 0x1 PUSH1 0x1 PUSH1 0xA0 SHL SUB AND CALLER PUSH1 0x1 PUSH1 0x1 PUSH1 0xA0 SHL SUB AND EQ PUSH2 0x147 JUMPI PUSH1 0x40 MLOAD PUSH3 0x461BCD PUSH1 0xE5 SHL DUP2 MSTORE PUSH1 0x20 PUSH1 0x4 DUP3 ADD MSTORE PUSH1 0x22 PUSH1 0x24 DUP3 ADD MSTORE PUSH32 0x6F6E6C79206D61726B657420666163746F72792063616E206D61746368206265 PUSH1 0x44 DUP3 ADD MSTORE PUSH2 0x7473 PUSH1 0xF0 SHL PUSH1 0x64 DUP3 ADD MSTORE PUSH1 0x84 ADD PUSH1 0x40 MLOAD DUP1 SWAP2 SUB SWAP1 REVERT JUMPDEST PUSH1 0x1 DUP1 SLOAD PUSH1 0x1 PUSH1 0x1 PUSH1 0xA0 SHL SUB NOT SWAP1 DUP2 AND PUSH1 0x1 PUSH1 0x1 PUSH1 0xA0 SHL SUB SWAP8 DUP9 AND OR SWAP1 SWAP2 SSTORE PUSH1 0x2 DUP1 SLOAD DUP3 AND SWAP6 DUP8 AND SWAP6 SWAP1 SWAP6 OR SWAP1 SWAP5 SSTORE PUSH1 0x3 DUP1 SLOAD SWAP1 SWAP5 AND SWAP3 SWAP1 SWAP5 AND SWAP2 SWAP1 SWAP2 OR SWAP1 SWAP2 SSTORE PUSH1 0x4 SSTORE PUSH1 0x5 SSTORE PUSH2 0x225 JUMP JUMPDEST DUP1 MLOAD PUSH1 0x1 PUSH1 0x1 PUSH1 0xA0 SHL SUB DUP2 AND DUP2 EQ PUSH2 0x1AA JUMPI PUSH1 0x0 DUP1 REVERT JUMPDEST SWAP2 SWAP1 POP JUMP JUMPDEST PUSH1 0x0 PUSH1 0x20 DUP3 DUP5 SUB SLT ISZERO PUSH2 0x1C0 JUMPI DUP1 DUP2 REVERT JUMPDEST PUSH2 0x1C9 DUP3 PUSH2 0x193 JUMP JUMPDEST SWAP4 SWAP3 POP POP POP JUMP JUMPDEST PUSH1 0x0 DUP1 PUSH1 0x0 DUP1 PUSH1 0x0 PUSH1 0xA0 DUP7 DUP9 SUB SLT ISZERO PUSH2 0x1E7 JUMPI DUP1 DUP2 REVERT JUMPDEST PUSH2 0x1F0 DUP7 PUSH2 0x193 JUMP JUMPDEST SWAP5 POP PUSH2 0x1FE PUSH1 0x20 DUP8 ADD PUSH2 0x193 JUMP JUMPDEST SWAP4 POP PUSH2 0x20C PUSH1 0x40 DUP8 ADD PUSH2 0x193 JUMP JUMPDEST PUSH1 0x60 DUP8 ADD MLOAD PUSH1 0x80 SWAP1 SWAP8 ADD MLOAD SWAP6 SWAP9 SWAP5 SWAP8 POP SWAP6 SWAP5 SWAP4 SWAP3 POP POP POP JUMP JUMPDEST PUSH2 0x120 DUP1 PUSH2 0x234 PUSH1 0x0 CODECOPY PUSH1 0x0 RETURN INVALID PUSH1 0x80 PUSH1 0x40 MSTORE CALLVALUE DUP1 ISZERO PUSH1 0xF JUMPI PUSH1 0x0 DUP1 REVERT JUMPDEST POP PUSH1 0x4 CALLDATASIZE LT PUSH1 0x5A JUMPI PUSH1 0x0 CALLDATALOAD PUSH1 0xE0 SHR DUP1 PUSH4 0xF765E6D EQ PUSH1 0x5F JUMPI DUP1 PUSH4 0x156DCBF0 EQ PUSH1 0x8E JUMPI DUP1 PUSH4 0x15E894AB EQ PUSH1 0xA3 JUMPI DUP1 PUSH4 0x2EFE91EF EQ PUSH1 0xB5 JUMPI DUP1 PUSH4 0x80F55605 EQ PUSH1 0xBD JUMPI DUP1 PUSH4 0x8F775839 EQ PUSH1 0xCF JUMPI JUMPDEST PUSH1 0x0 DUP1 REVERT JUMPDEST PUSH1 0x3 SLOAD PUSH1 0x71 SWAP1 PUSH1 0x1 PUSH1 0x1 PUSH1 0xA0 SHL SUB AND DUP2 JUMP JUMPDEST PUSH1 0x40 MLOAD PUSH1 0x1 PUSH1 0x1 PUSH1 0xA0 SHL SUB SWAP1 SWAP2 AND DUP2 MSTORE PUSH1 0x20 ADD JUMPDEST PUSH1 0x40 MLOAD DUP1 SWAP2 SUB SWAP1 RETURN JUMPDEST PUSH1 0x96 PUSH1 0x4 SLOAD DUP2 JUMP JUMPDEST PUSH1 0x40 MLOAD SWAP1 DUP2 MSTORE PUSH1 0x20 ADD PUSH1 0x85 JUMP JUMPDEST PUSH1 0x2 SLOAD PUSH1 0x71 SWAP1 PUSH1 0x1 PUSH1 0x1 PUSH1 0xA0 SHL SUB AND DUP2 JUMP JUMPDEST PUSH1 0x96 PUSH1 0x5 SLOAD DUP2 JUMP JUMPDEST PUSH1 0x1 SLOAD PUSH1 0x71 SWAP1 PUSH1 0x1 PUSH1 0x1 PUSH1 0xA0 SHL SUB AND DUP2 JUMP JUMPDEST PUSH1 0x6 SLOAD PUSH1 0xDB SWAP1 PUSH1 0xFF AND DUP2 JUMP JUMPDEST PUSH1 0x40 MLOAD SWAP1 ISZERO ISZERO DUP2 MSTORE PUSH1 0x20 ADD PUSH1 0x85 JUMP INVALID LOG2 PUSH5 0x6970667358 0x22 SLT KECCAK256 BLOCKHASH 0xBC GASPRICE 0xE4 PUSH24 0x81BCF67043C037E91BFE0C2863BA4E5B94B5BF8F78E0654F 0xBF 0x2E 0xD6 PUSH5 0x736F6C6343 STOP ADDMOD DIV STOP CALLER "
				},
				"gasEstimates": {
					"creation": {
						"codeDepositCost": "57600",
						"executionCost": "infinite",
						"totalCost": "infinite"
					},
					"external": {
						"amountA()": "995",
						"amountB()": "1039",
						"market()": "1092",
						"settled()": "1098",
						"sideABet()": "1048",
						"sideBBet()": "1004"
					}
				},
				"methodIdentifiers": {
					"amountA()": "156dcbf0",
					"amountB()": "2efe91ef",
					"market()": "80f55605",
					"settled()": "8f775839",
					"sideABet()": "15e894ab",
					"sideBBet()": "0f765e6d"
				}
			},
			"storageLayout": {
				"storage": [
					{
						"astId": 8,
						"contract": "contracts/BetPair.sol:BetPair",
						"label": "w3bAddr",
						"offset": 0,
						"slot": "0",
						"type": "t_address"
					},
					{
						"astId": 11,
						"contract": "contracts/BetPair.sol:BetPair",
						"label": "market",
						"offset": 0,
						"slot": "1",
						"type": "t_address"
					},
					{
						"astId": 14,
						"contract": "contracts/BetPair.sol:BetPair",
						"label": "sideABet",
						"offset": 0,
						"slot": "2",
						"type": "t_address"
					},
					{
						"astId": 17,
						"contract": "contracts/BetPair.sol:BetPair",
						"label": "sideBBet",
						"offset": 0,
						"slot": "3",
						"type": "t_address"
					},
					{
						"astId": 20,
						"contract": "contracts/BetPair.sol:BetPair",
						"label": "amountA",
						"offset": 0,
						"slot": "4",
						"type": "t_uint256"
					},
					{
						"astId": 23,
						"contract": "contracts/BetPair.sol:BetPair",
						"label": "amountB",
						"offset": 0,
						"slot": "5",
						"type": "t_uint256"
					},
					{
						"astId": 27,
						"contract": "contracts/BetPair.sol:BetPair",
						"label": "settled",
						"offset": 0,
						"slot": "6",
						"type": "t_bool"
					},
					{
						"astId": 33,
						"contract": "contracts/BetPair.sol:BetPair",
						"label": "web3bets",
						"offset": 1,
						"slot": "6",
						"type": "t_contract(IWeb3BetsFO)238"
					}
				],
				"types": {
					"t_address": {
						"encoding": "inplace",
						"label": "address",
						"numberOfBytes": "20"
					},
					"t_bool": {
						"encoding": "inplace",
						"label": "bool",
						"numberOfBytes": "1"
					},
					"t_contract(IWeb3BetsFO)238": {
						"encoding": "inplace",
						"label": "contract IWeb3BetsFO",
						"numberOfBytes": "20"
					},
					"t_uint256": {
						"encoding": "inplace",
						"label": "uint256",
						"numberOfBytes": "32"
					}
				}
			},
			"userdoc": {
				"kind": "user",
				"methods": {},
				"version": 1
			}
		}
	}
}