{
	"contracts/Market.sol": {
		"Market": {
			"abi": [
				{
					"inputs": [
						{
							"internalType": "bytes32",
							"name": "event_",
							"type": "bytes32"
						}
					],
					"stateMutability": "nonpayable",
					"type": "constructor"
				},
				{
					"anonymous": false,
					"inputs": [
						{
							"indexed": false,
							"internalType": "address",
							"name": "better",
							"type": "address"
						},
						{
							"indexed": false,
							"internalType": "address",
							"name": "marketAddr",
							"type": "address"
						},
						{
							"indexed": false,
							"internalType": "bytes32",
							"name": "hash",
							"type": "bytes32"
						},
						{
							"indexed": false,
							"internalType": "uint256",
							"name": "stake",
							"type": "uint256"
						},
						{
							"indexed": false,
							"internalType": "uint256",
							"name": "odds",
							"type": "uint256"
						},
						{
							"indexed": false,
							"internalType": "uint256",
							"name": "side",
							"type": "uint256"
						}
					],
					"name": "BetCreated",
					"type": "event"
				},
				{
					"anonymous": false,
					"inputs": [
						{
							"indexed": false,
							"internalType": "address",
							"name": "beneficiary",
							"type": "address"
						},
						{
							"indexed": false,
							"internalType": "uint256",
							"name": "value",
							"type": "uint256"
						}
					],
					"name": "Withdraw",
					"type": "event"
				},
				{
					"inputs": [
						{
							"internalType": "address",
							"name": "_affiliate",
							"type": "address"
						},
						{
							"internalType": "uint256",
							"name": "_stake",
							"type": "uint256"
						},
						{
							"internalType": "uint256",
							"name": "_odds",
							"type": "uint256"
						},
						{
							"internalType": "uint256",
							"name": "_side",
							"type": "uint256"
						},
						{
							"internalType": "bool",
							"name": "_instant",
							"type": "bool"
						}
					],
					"name": "addBet",
					"outputs": [
						{
							"internalType": "bytes32",
							"name": "",
							"type": "bytes32"
						}
					],
					"stateMutability": "nonpayable",
					"type": "function"
				},
				{
					"inputs": [],
					"name": "cancel",
					"outputs": [
						{
							"internalType": "bool",
							"name": "",
							"type": "bool"
						}
					],
					"stateMutability": "nonpayable",
					"type": "function"
				},
				{
					"inputs": [
						{
							"internalType": "bytes32",
							"name": "_bet",
							"type": "bytes32"
						}
					],
					"name": "cancelBet",
					"outputs": [],
					"stateMutability": "nonpayable",
					"type": "function"
				},
				{
					"inputs": [],
					"name": "cancelPlusPairs",
					"outputs": [
						{
							"internalType": "bool",
							"name": "",
							"type": "bool"
						}
					],
					"stateMutability": "nonpayable",
					"type": "function"
				},
				{
					"inputs": [
						{
							"internalType": "address",
							"name": "_user",
							"type": "address"
						}
					],
					"name": "getBalance",
					"outputs": [
						{
							"internalType": "uint256",
							"name": "",
							"type": "uint256"
						}
					],
					"stateMutability": "view",
					"type": "function"
				},
				{
					"inputs": [
						{
							"internalType": "bytes32",
							"name": "_bet",
							"type": "bytes32"
						}
					],
					"name": "getBet",
					"outputs": [
						{
							"components": [
								{
									"internalType": "address",
									"name": "better",
									"type": "address"
								},
								{
									"internalType": "address",
									"name": "affiliate",
									"type": "address"
								},
								{
									"internalType": "uint256",
									"name": "stake",
									"type": "uint256"
								},
								{
									"internalType": "uint256",
									"name": "matched",
									"type": "uint256"
								},
								{
									"internalType": "uint256",
									"name": "odds",
									"type": "uint256"
								},
								{
									"internalType": "uint256",
									"name": "side",
									"type": "uint256"
								}
							],
							"internalType": "struct Struct.MarketBet",
							"name": "",
							"type": "tuple"
						}
					],
					"stateMutability": "view",
					"type": "function"
				},
				{
					"inputs": [
						{
							"internalType": "bytes32",
							"name": "_bet",
							"type": "bytes32"
						}
					],
					"name": "getBetPairs",
					"outputs": [
						{
							"internalType": "bytes32[]",
							"name": "",
							"type": "bytes32[]"
						}
					],
					"stateMutability": "view",
					"type": "function"
				},
				{
					"inputs": [],
					"name": "getBets",
					"outputs": [
						{
							"internalType": "bytes32[]",
							"name": "",
							"type": "bytes32[]"
						}
					],
					"stateMutability": "view",
					"type": "function"
				},
				{
					"inputs": [
						{
							"internalType": "bytes32",
							"name": "_pair",
							"type": "bytes32"
						}
					],
					"name": "getPair",
					"outputs": [
						{
							"components": [
								{
									"internalType": "bytes32",
									"name": "betHashA",
									"type": "bytes32"
								},
								{
									"internalType": "bytes32",
									"name": "betHashB",
									"type": "bytes32"
								},
								{
									"internalType": "uint256",
									"name": "amountA",
									"type": "uint256"
								},
								{
									"internalType": "uint256",
									"name": "amountB",
									"type": "uint256"
								},
								{
									"internalType": "bool",
									"name": "settled",
									"type": "bool"
								}
							],
							"internalType": "struct Struct.MarketPair",
							"name": "",
							"type": "tuple"
						}
					],
					"stateMutability": "view",
					"type": "function"
				},
				{
					"inputs": [],
					"name": "getPairs",
					"outputs": [
						{
							"internalType": "bytes32[]",
							"name": "",
							"type": "bytes32[]"
						}
					],
					"stateMutability": "view",
					"type": "function"
				},
				{
					"inputs": [
						{
							"internalType": "address",
							"name": "_user",
							"type": "address"
						}
					],
					"name": "getUserBets",
					"outputs": [
						{
							"internalType": "bytes32[]",
							"name": "",
							"type": "bytes32[]"
						}
					],
					"stateMutability": "view",
					"type": "function"
				},
				{
					"inputs": [],
					"name": "marketEvent",
					"outputs": [
						{
							"internalType": "bytes32",
							"name": "",
							"type": "bytes32"
						}
					],
					"stateMutability": "view",
					"type": "function"
				},
				{
					"inputs": [
						{
							"internalType": "uint256",
							"name": "_winningSide",
							"type": "uint256"
						}
					],
					"name": "setWinningSide",
					"outputs": [
						{
							"internalType": "bool",
							"name": "",
							"type": "bool"
						}
					],
					"stateMutability": "nonpayable",
					"type": "function"
				},
				{
					"inputs": [
						{
							"internalType": "uint256",
							"name": "_winningSide",
							"type": "uint256"
						}
					],
					"name": "settle",
					"outputs": [
						{
							"internalType": "bool",
							"name": "",
							"type": "bool"
						}
					],
					"stateMutability": "nonpayable",
					"type": "function"
				},
				{
					"inputs": [
						{
							"internalType": "bytes32",
							"name": "_bet",
							"type": "bytes32"
						}
					],
					"name": "settleBet",
					"outputs": [],
					"stateMutability": "nonpayable",
					"type": "function"
				},
				{
					"inputs": [],
					"name": "status",
					"outputs": [
						{
							"internalType": "uint256",
							"name": "",
							"type": "uint256"
						}
					],
					"stateMutability": "view",
					"type": "function"
				},
				{
					"inputs": [],
					"name": "stopNewBet",
					"outputs": [
						{
							"internalType": "bool",
							"name": "",
							"type": "bool"
						}
					],
					"stateMutability": "nonpayable",
					"type": "function"
				},
				{
					"inputs": [
						{
							"internalType": "address",
							"name": "_user",
							"type": "address"
						}
					],
					"name": "withdraw",
					"outputs": [
						{
							"internalType": "bool",
							"name": "",
							"type": "bool"
						}
					],
					"stateMutability": "nonpayable",
					"type": "function"
				},
				{
					"inputs": [
						{
							"internalType": "bytes32",
							"name": "_bet",
							"type": "bytes32"
						}
					],
					"name": "withdrawPending",
					"outputs": [],
					"stateMutability": "nonpayable",
					"type": "function"
				}
			],
			"devdoc": {
				"kind": "dev",
				"methods": {
					"cancelBet(bytes32)": {
						"details": "cancel all pairs in `_bet`, "
					},
					"getBalance(address)": {
						"details": "Returns the amount of tokens owned by `_user` in this market."
					},
					"getBet(bytes32)": {
						"details": "Returns details of `_bet`."
					},
					"getBetPairs(bytes32)": {
						"details": "Returns hash IDs of all the bets placed by `_user`."
					},
					"getBets()": {
						"details": "Returns details of `_bet`."
					},
					"getPair(bytes32)": {
						"details": "Returns details of `_bet`."
					},
					"getPairs()": {
						"details": "Returns details of `_bet`."
					},
					"getUserBets(address)": {
						"details": "Returns hash IDs of all the bets placed by `_user`."
					},
					"setWinningSide(uint256)": {
						"details": "assign `_winningSide` to `status` "
					},
					"settle(uint256)": {
						"details": "assign `_winningSide` to `status` "
					},
					"settleBet(bytes32)": {
						"details": "settle all pairs in `_bet`, "
					},
					"withdraw(address)": {
						"details": "transfer bal[`_user`] to `_user`, bal"
					},
					"withdrawPending(bytes32)": {
						"details": "refund all unmatched stake in `_bet`, and withraw for caller address"
					}
				},
				"version": 1
			},
			"evm": {
				"assembly": "    /* \"contracts/Market.sol\":194:15308  contract Market is IMarket, ReentrancyGuard {... */\n  0xc0\n  0x40\n  dup2\n  swap1\n  mstore\n    /* \"contracts/Market.sol\":469:470  0 */\n  0x00\n    /* \"contracts/Market.sol\":436:470  uint256 public override status = 0 */\n  0x02\n  sstore\n    /* \"contracts/Market.sol\":947:954  factory */\n  sload(0x01)\n    /* \"contracts/Market.sol\":909:955  IWeb3BetsFO private app = IWeb3BetsFO(factory) */\n  0x0a\n  dup1\n  sload\n  not(sub(shl(0xa0, 0x01), 0x01))\n  and\n  sub(shl(0xa0, 0x01), 0x01)\n    /* \"contracts/Market.sol\":947:954  factory */\n  swap1\n  swap3\n  and\n    /* \"contracts/Market.sol\":909:955  IWeb3BetsFO private app = IWeb3BetsFO(factory) */\n  swap2\n  dup3\n  or\n  swap1\n  sstore\n  shl(0xe3, 0x966ed9)\n    /* \"contracts/Market.sol\":1001:1013  app.scAddr() */\n  dup3\n  mstore\n    /* \"contracts/Market.sol\":947:954  factory */\n  swap1\n    /* \"contracts/Market.sol\":1001:1011  app.scAddr */\n  0x04b376c8\n  swap1\n    /* \"contracts/Market.sol\":1001:1013  app.scAddr() */\n  0xc4\n  swap1\n  0x20\n  swap1\n  0x04\n    /* \"contracts/Market.sol\":194:15308  contract Market is IMarket, ReentrancyGuard {... */\n  dup2\n    /* \"contracts/Market.sol\":947:954  factory */\n  dup7\n    /* \"contracts/Market.sol\":1001:1013  app.scAddr() */\n  dup1\n  extcodesize\n  iszero\n  dup1\n  iszero\n  tag_1\n  jumpi\n  0x00\n  dup1\n  revert\ntag_1:\n  pop\n  gas\n  staticcall\n  iszero\n  dup1\n  iszero\n  tag_3\n  jumpi\n  returndatasize\n  0x00\n  dup1\n  returndatacopy\n  revert(0x00, returndatasize)\ntag_3:\n  pop\n  pop\n  pop\n  pop\n  mload(0x40)\n  returndatasize\n  not(0x1f)\n  0x1f\n  dup3\n  add\n  and\n  dup3\n  add\n  dup1\n  0x40\n  mstore\n  pop\n  dup2\n  add\n  swap1\n  tag_4\n  swap2\n  swap1\n  tag_5\n  jump\t// in\ntag_4:\n    /* \"contracts/Market.sol\":961:1014  IERC20 immutable private token = IERC20(app.scAddr()) */\n  0x60\n  shl\n  not(sub(shl(0x60, 0x01), 0x01))\n  and\n  0xa0\n  mstore\n    /* \"contracts/Market.sol\":1464:1559  constructor(bytes32 event_) {... */\n  callvalue\n  dup1\n  iszero\n  tag_6\n  jumpi\n  0x00\n  dup1\n  revert\ntag_6:\n  pop\n  mload(0x40)\n  sub(codesize, bytecodeSize)\n  dup1\n  bytecodeSize\n  dup4\n  codecopy\n  dup2\n  add\n  0x40\n  dup2\n  swap1\n  mstore\n  tag_7\n  swap2\n  tag_8\n  jump\t// in\ntag_7:\n    /* \"@openzeppelin/contracts/security/ReentrancyGuard.sol\":1701:1702  1 */\n  0x01\n    /* \"@openzeppelin/contracts/security/ReentrancyGuard.sol\":1806:1813  _status */\n  0x00\n    /* \"@openzeppelin/contracts/security/ReentrancyGuard.sol\":1806:1828  _status = _NOT_ENTERED */\n  dup2\n  swap1\n  sstore\n    /* \"contracts/Market.sol\":1502:1522  marketEvent = event_ */\n  0x80\n  swap2\n  swap1\n  swap2\n  mstore\n    /* \"contracts/Market.sol\":1532:1552  factory = msg.sender */\n  dup1\n  sload\n  not(sub(shl(0xa0, 0x01), 0x01))\n  and\n    /* \"contracts/Market.sol\":1542:1552  msg.sender */\n  caller\n    /* \"contracts/Market.sol\":1532:1552  factory = msg.sender */\n  or\n  swap1\n  sstore\n    /* \"contracts/Market.sol\":194:15308  contract Market is IMarket, ReentrancyGuard {... */\n  jump(tag_14)\n    /* \"#utility.yul\":14:324   */\ntag_5:\n    /* \"#utility.yul\":84:90   */\n  0x00\n    /* \"#utility.yul\":137:139   */\n  0x20\n    /* \"#utility.yul\":125:134   */\n  dup3\n    /* \"#utility.yul\":116:123   */\n  dup5\n    /* \"#utility.yul\":112:135   */\n  sub\n    /* \"#utility.yul\":108:140   */\n  slt\n    /* \"#utility.yul\":105:107   */\n  iszero\n  tag_16\n  jumpi\n    /* \"#utility.yul\":158:164   */\n  dup1\n    /* \"#utility.yul\":150:156   */\n  dup2\n    /* \"#utility.yul\":143:165   */\n  revert\n    /* \"#utility.yul\":105:107   */\ntag_16:\n    /* \"#utility.yul\":189:205   */\n  dup2\n  mload\n  sub(shl(0xa0, 0x01), 0x01)\n    /* \"#utility.yul\":234:265   */\n  dup2\n  and\n    /* \"#utility.yul\":224:266   */\n  dup2\n  eq\n    /* \"#utility.yul\":214:216   */\n  tag_17\n  jumpi\n    /* \"#utility.yul\":285:291   */\n  dup2\n    /* \"#utility.yul\":277:283   */\n  dup3\n    /* \"#utility.yul\":270:292   */\n  revert\n    /* \"#utility.yul\":214:216   */\ntag_17:\n    /* \"#utility.yul\":313:318   */\n  swap4\n    /* \"#utility.yul\":95:324   */\n  swap3\n  pop\n  pop\n  pop\n  jump\t// out\n    /* \"#utility.yul\":329:523   */\ntag_8:\n    /* \"#utility.yul\":399:405   */\n  0x00\n    /* \"#utility.yul\":452:454   */\n  0x20\n    /* \"#utility.yul\":440:449   */\n  dup3\n    /* \"#utility.yul\":431:438   */\n  dup5\n    /* \"#utility.yul\":427:450   */\n  sub\n    /* \"#utility.yul\":423:455   */\n  slt\n    /* \"#utility.yul\":420:422   */\n  iszero\n  tag_19\n  jumpi\n    /* \"#utility.yul\":473:479   */\n  dup1\n    /* \"#utility.yul\":465:471   */\n  dup2\n    /* \"#utility.yul\":458:480   */\n  revert\n    /* \"#utility.yul\":420:422   */\ntag_19:\n  pop\n    /* \"#utility.yul\":501:517   */\n  mload\n  swap2\n    /* \"#utility.yul\":410:523   */\n  swap1\n  pop\n  jump\t// out\ntag_14:\n    /* \"contracts/Market.sol\":194:15308  contract Market is IMarket, ReentrancyGuard {... */\n  mload(0x80)\n  shr(0x60, mload(0xa0))\n  codecopy(0x00, dataOffset(sub_0), dataSize(sub_0))\n  0x00\n  assignImmutable(\"0xb82efe928ba8047fc73c44199ae87270ba92aad773ed77645c6bc82e384fdb71\")\n  0x00\n  assignImmutable(\"0x535306ee4b42c92aecd0e71fca98572064f049c2babb2769faa3bbd87d67ec2d\")\n  return(0x00, dataSize(sub_0))\nstop\n\nsub_0: assembly {\n        /* \"contracts/Market.sol\":194:15308  contract Market is IMarket, ReentrancyGuard {... */\n      mstore(0x40, 0x80)\n      callvalue\n      dup1\n      iszero\n      tag_1\n      jumpi\n      0x00\n      dup1\n      revert\n    tag_1:\n      pop\n      jumpi(tag_2, lt(calldatasize, 0x04))\n      shr(0xe0, calldataload(0x00))\n      dup1\n      0x7a47d494\n      gt\n      tag_22\n      jumpi\n      dup1\n      0xb8e5303d\n      gt\n      tag_23\n      jumpi\n      dup1\n      0xb8e5303d\n      eq\n      tag_17\n      jumpi\n      dup1\n      0xba8006c6\n      eq\n      tag_18\n      jumpi\n      dup1\n      0xd0ed7295\n      eq\n      tag_19\n      jumpi\n      dup1\n      0xea8a1af0\n      eq\n      tag_20\n      jumpi\n      dup1\n      0xf8b2cb4f\n      eq\n      tag_21\n      jumpi\n      0x00\n      dup1\n      revert\n    tag_23:\n      dup1\n      0x7a47d494\n      eq\n      tag_12\n      jumpi\n      dup1\n      0x7d7f9232\n      eq\n      tag_13\n      jumpi\n      dup1\n      0x8df82800\n      eq\n      tag_14\n      jumpi\n      dup1\n      0xa6afd5fd\n      eq\n      tag_15\n      jumpi\n      dup1\n      0xae8cd090\n      eq\n      tag_16\n      jumpi\n      0x00\n      dup1\n      revert\n    tag_22:\n      dup1\n      0x37e8c09e\n      gt\n      tag_24\n      jumpi\n      dup1\n      0x37e8c09e\n      eq\n      tag_7\n      jumpi\n      dup1\n      0x51cff8d9\n      eq\n      tag_8\n      jumpi\n      dup1\n      0x675f6537\n      eq\n      tag_9\n      jumpi\n      dup1\n      0x6bef0267\n      eq\n      tag_10\n      jumpi\n      dup1\n      0x767eb5ef\n      eq\n      tag_11\n      jumpi\n      0x00\n      dup1\n      revert\n    tag_24:\n      dup1\n      0x200d2ed2\n      eq\n      tag_3\n      jumpi\n      dup1\n      0x25c22a45\n      eq\n      tag_4\n      jumpi\n      dup1\n      0x2940ff1e\n      eq\n      tag_5\n      jumpi\n      dup1\n      0x2d56657d\n      eq\n      tag_6\n      jumpi\n    tag_2:\n      0x00\n      dup1\n      revert\n        /* \"contracts/Market.sol\":436:470  uint256 public override status = 0 */\n    tag_3:\n      tag_25\n      sload(0x02)\n      dup2\n      jump\n    tag_25:\n      mload(0x40)\n        /* \"#utility.yul\":5728:5753   */\n      swap1\n      dup2\n      mstore\n        /* \"#utility.yul\":5716:5718   */\n      0x20\n        /* \"#utility.yul\":5701:5719   */\n      add\n        /* \"contracts/Market.sol\":436:470  uint256 public override status = 0 */\n    tag_27:\n      mload(0x40)\n      dup1\n      swap2\n      sub\n      swap1\n      return\n        /* \"contracts/Market.sol\":2425:2561  function getBetPairs(bytes32 _bet) ... */\n    tag_4:\n      tag_29\n      tag_30\n      calldatasize\n      0x04\n      tag_31\n      jump\t// in\n    tag_30:\n      tag_32\n      jump\t// in\n    tag_29:\n      mload(0x40)\n      tag_27\n      swap2\n      swap1\n      tag_34\n      jump\t// in\n        /* \"contracts/Market.sol\":4006:4257  function cancelBet(bytes32 _bet) external override {... */\n    tag_5:\n      tag_35\n      tag_36\n      calldatasize\n      0x04\n      tag_31\n      jump\t// in\n    tag_36:\n      tag_37\n      jump\t// in\n    tag_35:\n      stop\n        /* \"contracts/Market.sol\":1846:1984  function getUserBets(address _user) ... */\n    tag_6:\n      tag_29\n      tag_39\n      calldatasize\n      0x04\n      tag_40\n      jump\t// in\n    tag_39:\n      tag_41\n      jump\t// in\n        /* \"contracts/Market.sol\":2203:2341  function getBet(bytes32 _bet) ... */\n    tag_7:\n      tag_43\n      tag_44\n      calldatasize\n      0x04\n      tag_31\n      jump\t// in\n    tag_44:\n      tag_45\n      jump\t// in\n    tag_43:\n      mload(0x40)\n      tag_27\n      swap2\n      swap1\n        /* \"#utility.yul\":10217:10230   */\n      dup2\n      mload\n      sub(shl(0xa0, 0x01), 0x01)\n        /* \"#utility.yul\":10213:10235   */\n      swap1\n      dup2\n      and\n        /* \"#utility.yul\":10195:10236   */\n      dup3\n      mstore\n        /* \"#utility.yul\":10296:10300   */\n      0x20\n        /* \"#utility.yul\":10284:10301   */\n      dup1\n      dup5\n      add\n        /* \"#utility.yul\":10278:10302   */\n      mload\n        /* \"#utility.yul\":10274:10307   */\n      swap1\n      swap2\n      and\n        /* \"#utility.yul\":10252:10272   */\n      swap1\n      dup3\n      add\n        /* \"#utility.yul\":10245:10308   */\n      mstore\n        /* \"#utility.yul\":10364:10368   */\n      0x40\n        /* \"#utility.yul\":10352:10369   */\n      dup1\n      dup4\n      add\n        /* \"#utility.yul\":10346:10370   */\n      mload\n        /* \"#utility.yul\":10324:10344   */\n      swap1\n      dup3\n      add\n        /* \"#utility.yul\":10317:10371   */\n      mstore\n        /* \"#utility.yul\":10427:10431   */\n      0x60\n        /* \"#utility.yul\":10415:10432   */\n      dup1\n      dup4\n      add\n        /* \"#utility.yul\":10409:10433   */\n      mload\n        /* \"#utility.yul\":10387:10407   */\n      swap1\n      dup3\n      add\n        /* \"#utility.yul\":10380:10434   */\n      mstore\n        /* \"#utility.yul\":10490:10494   */\n      0x80\n        /* \"#utility.yul\":10478:10495   */\n      dup1\n      dup4\n      add\n        /* \"#utility.yul\":10472:10496   */\n      mload\n        /* \"#utility.yul\":10450:10470   */\n      swap1\n      dup3\n      add\n        /* \"#utility.yul\":10443:10497   */\n      mstore\n        /* \"#utility.yul\":10175:10178   */\n      0xa0\n        /* \"#utility.yul\":10541:10558   */\n      swap2\n      dup3\n      add\n        /* \"#utility.yul\":10535:10559   */\n      mload\n        /* \"#utility.yul\":10513:10533   */\n      swap2\n      dup2\n      add\n        /* \"#utility.yul\":10506:10560   */\n      swap2\n      swap1\n      swap2\n      mstore\n        /* \"#utility.yul\":10144:10147   */\n      0xc0\n        /* \"#utility.yul\":10129:10148   */\n      add\n      swap1\n        /* \"#utility.yul\":10111:10566   */\n      jump\n        /* \"contracts/Market.sol\":2986:3453  function withdraw(address _user) public override nonReentrant returns(bool) {... */\n    tag_8:\n      tag_48\n      tag_49\n      calldatasize\n      0x04\n      tag_40\n      jump\t// in\n    tag_49:\n      tag_50\n      jump\t// in\n    tag_48:\n      mload(0x40)\n        /* \"#utility.yul\":5555:5569   */\n      swap1\n      iszero\n        /* \"#utility.yul\":5548:5570   */\n      iszero\n        /* \"#utility.yul\":5530:5571   */\n      dup2\n      mstore\n        /* \"#utility.yul\":5518:5520   */\n      0x20\n        /* \"#utility.yul\":5503:5521   */\n      add\n        /* \"contracts/Market.sol\":2986:3453  function withdraw(address _user) public override nonReentrant returns(bool) {... */\n      tag_27\n        /* \"#utility.yul\":5485:5577   */\n      jump\n        /* \"contracts/Market.sol\":4318:4638  function settleBet(bytes32 _bet) external override {... */\n    tag_9:\n      tag_35\n      tag_54\n      calldatasize\n      0x04\n      tag_31\n      jump\t// in\n    tag_54:\n      tag_55\n      jump\t// in\n        /* \"contracts/Market.sol\":6241:6448  function stopNewBet() external override onlyFactory returns(bool){... */\n    tag_10:\n      tag_48\n      tag_57\n      jump\t// in\n        /* \"contracts/Market.sol\":2620:2723  function getPairs() external view override returns(bytes32[] memory) ... */\n    tag_11:\n      tag_29\n      tag_60\n      jump\t// in\n        /* \"contracts/Market.sol\":244:289  bytes32 immutable public override marketEvent */\n    tag_12:\n      tag_25\n      immutable(\"0x535306ee4b42c92aecd0e71fca98572064f049c2babb2769faa3bbd87d67ec2d\")\n      dup2\n      jump\n        /* \"contracts/Market.sol\":3556:3945  function withdrawPending(bytes32 _bet) public override {... */\n    tag_13:\n      tag_35\n      tag_67\n      calldatasize\n      0x04\n      tag_31\n      jump\t// in\n    tag_67:\n      tag_68\n      jump\t// in\n        /* \"contracts/Market.sol\":5204:5615  function settle(uint256 _winningSide)... */\n    tag_14:\n      tag_48\n      tag_70\n      calldatasize\n      0x04\n      tag_31\n      jump\t// in\n    tag_70:\n      tag_72\n      jump\t// in\n        /* \"contracts/Market.sol\":2043:2144  function getBets() external view override returns(bytes32[] memory) ... */\n    tag_15:\n      tag_29\n      tag_75\n      jump\t// in\n        /* \"contracts/Market.sol\":5852:6235  function cancelPlusPairs() external override onlyFactory returns(bool) ... */\n    tag_16:\n      tag_48\n      tag_78\n      jump\t// in\n        /* \"contracts/Market.sol\":2782:2916  function getPair(bytes32 _pair) external view override returns(Struct.MarketPair memory) ... */\n    tag_17:\n      tag_80\n      tag_81\n      calldatasize\n      0x04\n      tag_31\n      jump\t// in\n    tag_81:\n      0x40\n      dup1\n      mload\n      0xa0\n      dup2\n      add\n      dup3\n      mstore\n      0x00\n      dup1\n      dup3\n      mstore\n      0x20\n      dup3\n      add\n      dup2\n      swap1\n      mstore\n      swap2\n      dup2\n      add\n      dup3\n      swap1\n      mstore\n      0x60\n      dup2\n      add\n      dup3\n      swap1\n      mstore\n      0x80\n      dup2\n      add\n      swap2\n      swap1\n      swap2\n      mstore\n      pop\n        /* \"contracts/Market.sol\":2893:2909  pairsInfo[_pair] */\n      0x00\n      swap1\n      dup2\n      mstore\n        /* \"contracts/Market.sol\":2893:2902  pairsInfo */\n      0x08\n        /* \"contracts/Market.sol\":2893:2909  pairsInfo[_pair] */\n      0x20\n      swap1\n      dup2\n      mstore\n      0x40\n      swap2\n      dup3\n      swap1\n      keccak256\n        /* \"contracts/Market.sol\":2886:2909  return pairsInfo[_pair] */\n      dup3\n      mload\n      0xa0\n      dup2\n      add\n      dup5\n      mstore\n      dup2\n      sload\n      dup2\n      mstore\n      0x01\n      dup3\n      add\n      sload\n      swap3\n      dup2\n      add\n      swap3\n      swap1\n      swap3\n      mstore\n      0x02\n      dup2\n      add\n      sload\n      swap3\n      dup3\n      add\n      swap3\n      swap1\n      swap3\n      mstore\n      0x03\n      dup3\n      add\n      sload\n      0x60\n      dup3\n      add\n      mstore\n      0x04\n      swap1\n      swap2\n      add\n      sload\n      0xff\n      and\n      iszero\n      iszero\n      0x80\n      dup3\n      add\n      mstore\n      swap1\n        /* \"contracts/Market.sol\":2782:2916  function getPair(bytes32 _pair) external view override returns(Struct.MarketPair memory) ... */\n      jump\n    tag_80:\n      mload(0x40)\n      tag_27\n      swap2\n      swap1\n        /* \"#utility.yul\":10719:10723   */\n      0x00\n        /* \"#utility.yul\":10761:10764   */\n      0xa0\n        /* \"#utility.yul\":10750:10759   */\n      dup3\n        /* \"#utility.yul\":10746:10765   */\n      add\n        /* \"#utility.yul\":10738:10765   */\n      swap1\n      pop\n        /* \"#utility.yul\":10798:10804   */\n      dup3\n        /* \"#utility.yul\":10792:10805   */\n      mload\n        /* \"#utility.yul\":10781:10790   */\n      dup3\n        /* \"#utility.yul\":10774:10806   */\n      mstore\n        /* \"#utility.yul\":10862:10866   */\n      0x20\n        /* \"#utility.yul\":10854:10860   */\n      dup4\n        /* \"#utility.yul\":10850:10867   */\n      add\n        /* \"#utility.yul\":10844:10868   */\n      mload\n        /* \"#utility.yul\":10837:10841   */\n      0x20\n        /* \"#utility.yul\":10826:10835   */\n      dup4\n        /* \"#utility.yul\":10822:10842   */\n      add\n        /* \"#utility.yul\":10815:10869   */\n      mstore\n        /* \"#utility.yul\":10925:10929   */\n      0x40\n        /* \"#utility.yul\":10917:10923   */\n      dup4\n        /* \"#utility.yul\":10913:10930   */\n      add\n        /* \"#utility.yul\":10907:10931   */\n      mload\n        /* \"#utility.yul\":10900:10904   */\n      0x40\n        /* \"#utility.yul\":10889:10898   */\n      dup4\n        /* \"#utility.yul\":10885:10905   */\n      add\n        /* \"#utility.yul\":10878:10932   */\n      mstore\n        /* \"#utility.yul\":10988:10992   */\n      0x60\n        /* \"#utility.yul\":10980:10986   */\n      dup4\n        /* \"#utility.yul\":10976:10993   */\n      add\n        /* \"#utility.yul\":10970:10994   */\n      mload\n        /* \"#utility.yul\":10963:10967   */\n      0x60\n        /* \"#utility.yul\":10952:10961   */\n      dup4\n        /* \"#utility.yul\":10948:10968   */\n      add\n        /* \"#utility.yul\":10941:10995   */\n      mstore\n        /* \"#utility.yul\":11065:11069   */\n      0x80\n        /* \"#utility.yul\":11057:11063   */\n      dup4\n        /* \"#utility.yul\":11053:11070   */\n      add\n        /* \"#utility.yul\":11047:11071   */\n      mload\n        /* \"#utility.yul\":11040:11072   */\n      iszero\n        /* \"#utility.yul\":11033:11073   */\n      iszero\n        /* \"#utility.yul\":11026:11030   */\n      0x80\n        /* \"#utility.yul\":11015:11024   */\n      dup4\n        /* \"#utility.yul\":11011:11031   */\n      add\n        /* \"#utility.yul\":11004:11074   */\n      mstore\n        /* \"#utility.yul\":10728:11080   */\n      swap3\n      swap2\n      pop\n      pop\n      jump\n        /* \"contracts/Market.sol\":6454:9041  function addBet(... */\n    tag_18:\n      tag_25\n      tag_86\n      calldatasize\n      0x04\n      tag_87\n      jump\t// in\n    tag_86:\n      tag_88\n      jump\t// in\n        /* \"contracts/Market.sol\":4705:5137  function setWinningSide(uint256 _winningSide)... */\n    tag_19:\n      tag_48\n      tag_91\n      calldatasize\n      0x04\n      tag_31\n      jump\t// in\n    tag_91:\n      tag_92\n      jump\t// in\n        /* \"contracts/Market.sol\":5621:5846  function cancel() external override onlyFactory returns(bool) ... */\n    tag_20:\n      tag_48\n      tag_95\n      jump\t// in\n        /* \"contracts/Market.sol\":1653:1762  function getBalance(address _user) external view override returns(uint256) {... */\n    tag_21:\n      tag_25\n      tag_98\n      calldatasize\n      0x04\n      tag_40\n      jump\t// in\n    tag_98:\n      sub(shl(0xa0, 0x01), 0x01)\n        /* \"contracts/Market.sol\":1745:1755  bal[_user] */\n      and\n        /* \"contracts/Market.sol\":1719:1726  uint256 */\n      0x00\n        /* \"contracts/Market.sol\":1745:1755  bal[_user] */\n      swap1\n      dup2\n      mstore\n        /* \"contracts/Market.sol\":1745:1748  bal */\n      0x05\n        /* \"contracts/Market.sol\":1745:1755  bal[_user] */\n      0x20\n      mstore\n      0x40\n      swap1\n      keccak256\n      sload\n      swap1\n        /* \"contracts/Market.sol\":1653:1762  function getBalance(address _user) external view override returns(uint256) {... */\n      jump\n        /* \"contracts/Market.sol\":2425:2561  function getBetPairs(bytes32 _bet) ... */\n    tag_32:\n        /* \"contracts/Market.sol\":2540:2554  betPairs[_bet] */\n      0x00\n      dup2\n      dup2\n      mstore\n        /* \"contracts/Market.sol\":2540:2548  betPairs */\n      0x09\n        /* \"contracts/Market.sol\":2540:2554  betPairs[_bet] */\n      0x20\n      swap1\n      dup2\n      mstore\n      0x40\n      swap2\n      dup3\n      swap1\n      keccak256\n        /* \"contracts/Market.sol\":2533:2554  return betPairs[_bet] */\n      dup1\n      sload\n      dup4\n      mload\n      dup2\n      dup5\n      mul\n      dup2\n      add\n      dup5\n      add\n      swap1\n      swap5\n      mstore\n      dup1\n      dup5\n      mstore\n        /* \"contracts/Market.sol\":2500:2516  bytes32[] memory */\n      0x60\n      swap4\n        /* \"contracts/Market.sol\":2533:2554  return betPairs[_bet] */\n      swap3\n      dup4\n      add\n        /* \"contracts/Market.sol\":2540:2554  betPairs[_bet] */\n      dup3\n        /* \"contracts/Market.sol\":2533:2554  return betPairs[_bet] */\n      dup3\n      dup1\n      iszero\n      tag_102\n      jumpi\n      0x20\n      mul\n      dup3\n      add\n      swap2\n      swap1\n      0x00\n      mstore\n      keccak256(0x00, 0x20)\n      swap1\n    tag_103:\n      dup2\n      sload\n      dup2\n      mstore\n      0x20\n      add\n      swap1\n      0x01\n      add\n      swap1\n      dup1\n      dup4\n      gt\n      tag_103\n      jumpi\n    tag_102:\n      pop\n      pop\n      pop\n      pop\n      pop\n      swap1\n      pop\n        /* \"contracts/Market.sol\":2425:2561  function getBetPairs(bytes32 _bet) ... */\n      swap2\n      swap1\n      pop\n      jump\t// out\n        /* \"contracts/Market.sol\":4006:4257  function cancelBet(bytes32 _bet) external override {... */\n    tag_37:\n        /* \"contracts/Market.sol\":4089:4103  betsInfo[_bet] */\n      0x00\n      dup2\n      dup2\n      mstore\n        /* \"contracts/Market.sol\":4089:4097  betsInfo */\n      0x06\n        /* \"contracts/Market.sol\":4089:4103  betsInfo[_bet] */\n      0x20\n      mstore\n      0x40\n      swap1\n      keccak256\n        /* \"contracts/Market.sol\":4089:4110  betsInfo[_bet].better */\n      sload\n      sub(shl(0xa0, 0x01), 0x01)\n      and\n        /* \"contracts/Market.sol\":4075:4085  msg.sender */\n      caller\n        /* \"contracts/Market.sol\":4075:4110  msg.sender == betsInfo[_bet].better */\n      eq\n        /* \"contracts/Market.sol\":4067:4134  require(msg.sender == betsInfo[_bet].better, \"unauthorized caller\") */\n      tag_105\n      jumpi\n      mload(0x40)\n      shl(0xe5, 0x461bcd)\n      dup2\n      mstore\n        /* \"#utility.yul\":7016:7018   */\n      0x20\n        /* \"contracts/Market.sol\":4067:4134  require(msg.sender == betsInfo[_bet].better, \"unauthorized caller\") */\n      0x04\n      dup3\n      add\n        /* \"#utility.yul\":6998:7019   */\n      mstore\n        /* \"#utility.yul\":7055:7057   */\n      0x13\n        /* \"#utility.yul\":7035:7053   */\n      0x24\n      dup3\n      add\n        /* \"#utility.yul\":7028:7058   */\n      mstore\n      shl(0x69, 0x3ab730baba3437b934bd32b21031b0b63632b9)\n        /* \"#utility.yul\":7074:7092   */\n      0x44\n      dup3\n      add\n        /* \"#utility.yul\":7067:7116   */\n      mstore\n        /* \"#utility.yul\":7133:7151   */\n      0x64\n      add\n        /* \"contracts/Market.sol\":4067:4134  require(msg.sender == betsInfo[_bet].better, \"unauthorized caller\") */\n    tag_106:\n      mload(0x40)\n      dup1\n      swap2\n      sub\n      swap1\n      revert\n    tag_105:\n        /* \"contracts/Market.sol\":4147:4153  status */\n      sload(0x02)\n        /* \"contracts/Market.sol\":4147:4158  status == 0 */\n      iszero\n      dup1\n        /* \"contracts/Market.sol\":4147:4173  status == 0 || status == 3 */\n      tag_108\n      jumpi\n      pop\n        /* \"contracts/Market.sol\":4162:4168  status */\n      sload(0x02)\n        /* \"contracts/Market.sol\":4172:4173  3 */\n      0x03\n        /* \"contracts/Market.sol\":4162:4173  status == 3 */\n      eq\n        /* \"contracts/Market.sol\":4147:4173  status == 0 || status == 3 */\n    tag_108:\n        /* \"contracts/Market.sol\":4144:4220  if(status == 0 || status == 3){... */\n      iszero\n      tag_109\n      jumpi\n        /* \"contracts/Market.sol\":4188:4209  _cancelBetPairs(_bet) */\n      tag_110\n        /* \"contracts/Market.sol\":4204:4208  _bet */\n      dup2\n        /* \"contracts/Market.sol\":4188:4203  _cancelBetPairs */\n      tag_111\n        /* \"contracts/Market.sol\":4188:4209  _cancelBetPairs(_bet) */\n      jump\t// in\n    tag_110:\n      pop\n        /* \"contracts/Market.sol\":4144:4220  if(status == 0 || status == 3){... */\n    tag_109:\n        /* \"contracts/Market.sol\":4229:4250  withdrawPending(_bet) */\n      tag_112\n        /* \"contracts/Market.sol\":4245:4249  _bet */\n      dup2\n        /* \"contracts/Market.sol\":4229:4244  withdrawPending */\n      tag_68\n        /* \"contracts/Market.sol\":4229:4250  withdrawPending(_bet) */\n      jump\t// in\n    tag_112:\n        /* \"contracts/Market.sol\":4006:4257  function cancelBet(bytes32 _bet) external override {... */\n      pop\n      jump\t// out\n        /* \"contracts/Market.sol\":1846:1984  function getUserBets(address _user) ... */\n    tag_41:\n      sub(shl(0xa0, 0x01), 0x01)\n        /* \"contracts/Market.sol\":1962:1977  userBets[_user] */\n      dup2\n      and\n      0x00\n      swap1\n      dup2\n      mstore\n        /* \"contracts/Market.sol\":1962:1970  userBets */\n      0x07\n        /* \"contracts/Market.sol\":1962:1977  userBets[_user] */\n      0x20\n      swap1\n      dup2\n      mstore\n      0x40\n      swap2\n      dup3\n      swap1\n      keccak256\n        /* \"contracts/Market.sol\":1955:1977  return userBets[_user] */\n      dup1\n      sload\n      dup4\n      mload\n      dup2\n      dup5\n      mul\n      dup2\n      add\n      dup5\n      add\n      swap1\n      swap5\n      mstore\n      dup1\n      dup5\n      mstore\n        /* \"contracts/Market.sol\":1922:1938  bytes32[] memory */\n      0x60\n      swap4\n        /* \"contracts/Market.sol\":1955:1977  return userBets[_user] */\n      swap3\n      dup4\n      add\n        /* \"contracts/Market.sol\":1962:1977  userBets[_user] */\n      dup3\n        /* \"contracts/Market.sol\":1955:1977  return userBets[_user] */\n      dup3\n      dup1\n      iszero\n      tag_102\n      jumpi\n      0x20\n      mul\n      dup3\n      add\n      swap2\n      swap1\n      0x00\n      mstore\n      keccak256(0x00, 0x20)\n      swap1\n      dup2\n      sload\n      dup2\n      mstore\n      0x20\n      add\n      swap1\n      0x01\n      add\n      swap1\n      dup1\n      dup4\n      gt\n      tag_103\n      jumpi\n      pop\n      pop\n      pop\n      pop\n      pop\n      swap1\n      pop\n        /* \"contracts/Market.sol\":1846:1984  function getUserBets(address _user) ... */\n      swap2\n      swap1\n      pop\n      jump\t// out\n        /* \"contracts/Market.sol\":2203:2341  function getBet(bytes32 _bet) ... */\n    tag_45:\n        /* \"contracts/Market.sol\":2273:2296  Struct.MarketBet memory */\n      tag_116\n      mload(0x40)\n      dup1\n      0xc0\n      add\n      0x40\n      mstore\n      dup1\n      and(sub(shl(0xa0, 0x01), 0x01), 0x00)\n      dup2\n      mstore\n      0x20\n      add\n      and(sub(shl(0xa0, 0x01), 0x01), 0x00)\n      dup2\n      mstore\n      0x20\n      add\n      0x00\n      dup2\n      mstore\n      0x20\n      add\n      0x00\n      dup2\n      mstore\n      0x20\n      add\n      0x00\n      dup2\n      mstore\n      0x20\n      add\n      0x00\n      dup2\n      mstore\n      pop\n      swap1\n      jump\n    tag_116:\n      pop\n        /* \"contracts/Market.sol\":2320:2334  betsInfo[_bet] */\n      0x00\n      swap1\n      dup2\n      mstore\n        /* \"contracts/Market.sol\":2320:2328  betsInfo */\n      0x06\n        /* \"contracts/Market.sol\":2320:2334  betsInfo[_bet] */\n      0x20\n      swap1\n      dup2\n      mstore\n      0x40\n      swap2\n      dup3\n      swap1\n      keccak256\n        /* \"contracts/Market.sol\":2313:2334  return betsInfo[_bet] */\n      dup3\n      mload\n      0xc0\n      dup2\n      add\n      dup5\n      mstore\n      dup2\n      sload\n      sub(shl(0xa0, 0x01), 0x01)\n      swap1\n      dup2\n      and\n      dup3\n      mstore\n      0x01\n      dup4\n      add\n      sload\n      and\n      swap3\n      dup2\n      add\n      swap3\n      swap1\n      swap3\n      mstore\n      0x02\n      dup2\n      add\n      sload\n      swap3\n      dup3\n      add\n      swap3\n      swap1\n      swap3\n      mstore\n      0x03\n      dup3\n      add\n      sload\n      0x60\n      dup3\n      add\n      mstore\n      0x04\n      dup3\n      add\n      sload\n      0x80\n      dup3\n      add\n      mstore\n      0x05\n      swap1\n      swap2\n      add\n      sload\n      0xa0\n      dup3\n      add\n      mstore\n      swap1\n        /* \"contracts/Market.sol\":2203:2341  function getBet(bytes32 _bet) ... */\n      jump\t// out\n        /* \"contracts/Market.sol\":2986:3453  function withdraw(address _user) public override nonReentrant returns(bool) {... */\n    tag_50:\n        /* \"contracts/Market.sol\":3056:3060  bool */\n      0x00\n        /* \"@openzeppelin/contracts/security/ReentrancyGuard.sol\":1744:1745  2 */\n      0x02\n        /* \"@openzeppelin/contracts/security/ReentrancyGuard.sol\":2325:2332  _status */\n      sload(0x00)\n        /* \"@openzeppelin/contracts/security/ReentrancyGuard.sol\":2325:2344  _status != _ENTERED */\n      eq\n      iszero\n        /* \"@openzeppelin/contracts/security/ReentrancyGuard.sol\":2317:2380  require(_status != _ENTERED, \"ReentrancyGuard: reentrant call\") */\n      tag_120\n      jumpi\n      mload(0x40)\n      shl(0xe5, 0x461bcd)\n      dup2\n      mstore\n        /* \"#utility.yul\":9798:9800   */\n      0x20\n        /* \"@openzeppelin/contracts/security/ReentrancyGuard.sol\":2317:2380  require(_status != _ENTERED, \"ReentrancyGuard: reentrant call\") */\n      0x04\n      dup3\n      add\n        /* \"#utility.yul\":9780:9801   */\n      mstore\n        /* \"#utility.yul\":9837:9839   */\n      0x1f\n        /* \"#utility.yul\":9817:9835   */\n      0x24\n      dup3\n      add\n        /* \"#utility.yul\":9810:9840   */\n      mstore\n        /* \"#utility.yul\":9876:9909   */\n      0x5265656e7472616e637947756172643a207265656e7472616e742063616c6c00\n        /* \"#utility.yul\":9856:9874   */\n      0x44\n      dup3\n      add\n        /* \"#utility.yul\":9849:9910   */\n      mstore\n        /* \"#utility.yul\":9927:9945   */\n      0x64\n      add\n        /* \"@openzeppelin/contracts/security/ReentrancyGuard.sol\":2317:2380  require(_status != _ENTERED, \"ReentrancyGuard: reentrant call\") */\n      tag_106\n        /* \"#utility.yul\":9770:9951   */\n      jump\n        /* \"@openzeppelin/contracts/security/ReentrancyGuard.sol\":2317:2380  require(_status != _ENTERED, \"ReentrancyGuard: reentrant call\") */\n    tag_120:\n        /* \"@openzeppelin/contracts/security/ReentrancyGuard.sol\":1744:1745  2 */\n      0x02\n        /* \"@openzeppelin/contracts/security/ReentrancyGuard.sol\":2455:2462  _status */\n      0x00\n        /* \"@openzeppelin/contracts/security/ReentrancyGuard.sol\":2455:2473  _status = _ENTERED */\n      swap1\n      dup2\n      sstore\n      sub(shl(0xa0, 0x01), 0x01)\n        /* \"contracts/Market.sol\":3127:3137  bal[_user] */\n      dup4\n      dup2\n      and\n      dup3\n      mstore\n        /* \"contracts/Market.sol\":3127:3130  bal */\n      0x05\n        /* \"contracts/Market.sol\":3127:3137  bal[_user] */\n      0x20\n      mstore\n      0x40\n      swap2\n      dup3\n      swap1\n      keccak256\n      sload\n        /* \"contracts/Market.sol\":3093:3123  token.balanceOf(address(this)) */\n      swap2\n      mload\n      shl(0xe0, 0x70a08231)\n      dup2\n      mstore\n        /* \"contracts/Market.sol\":3117:3121  this */\n      address\n        /* \"contracts/Market.sol\":3093:3123  token.balanceOf(address(this)) */\n      0x04\n      dup3\n      add\n        /* \"#utility.yul\":3124:3175   */\n      mstore\n        /* \"contracts/Market.sol\":3093:3098  token */\n      immutable(\"0xb82efe928ba8047fc73c44199ae87270ba92aad773ed77645c6bc82e384fdb71\")\n        /* \"contracts/Market.sol\":3093:3108  token.balanceOf */\n      swap1\n      swap2\n      and\n      swap1\n      0x70a08231\n      swap1\n        /* \"#utility.yul\":3097:3115   */\n      0x24\n      add\n        /* \"contracts/Market.sol\":3093:3123  token.balanceOf(address(this)) */\n      0x20\n      mload(0x40)\n      dup1\n      dup4\n      sub\n      dup2\n      dup7\n      dup1\n      extcodesize\n      iszero\n      dup1\n      iszero\n      tag_126\n      jumpi\n      0x00\n      dup1\n      revert\n    tag_126:\n      pop\n      gas\n      staticcall\n      iszero\n      dup1\n      iszero\n      tag_128\n      jumpi\n      returndatasize\n      0x00\n      dup1\n      returndatacopy\n      revert(0x00, returndatasize)\n    tag_128:\n      pop\n      pop\n      pop\n      pop\n      mload(0x40)\n      returndatasize\n      not(0x1f)\n      0x1f\n      dup3\n      add\n      and\n      dup3\n      add\n      dup1\n      0x40\n      mstore\n      pop\n      dup2\n      add\n      swap1\n      tag_129\n      swap2\n      swap1\n      tag_130\n      jump\t// in\n    tag_129:\n        /* \"contracts/Market.sol\":3093:3137  token.balanceOf(address(this)) >= bal[_user] */\n      lt\n      iszero\n        /* \"contracts/Market.sol\":3093:3155  token.balanceOf(address(this)) >= bal[_user] && bal[_user] > 0 */\n      dup1\n      iszero\n      tag_131\n      jumpi\n      pop\n      sub(shl(0xa0, 0x01), 0x01)\n        /* \"contracts/Market.sol\":3141:3151  bal[_user] */\n      dup3\n      and\n        /* \"contracts/Market.sol\":3154:3155  0 */\n      0x00\n        /* \"contracts/Market.sol\":3141:3151  bal[_user] */\n      swap1\n      dup2\n      mstore\n        /* \"contracts/Market.sol\":3141:3144  bal */\n      0x05\n        /* \"contracts/Market.sol\":3141:3151  bal[_user] */\n      0x20\n      mstore\n      0x40\n      swap1\n      keccak256\n      sload\n        /* \"contracts/Market.sol\":3141:3155  bal[_user] > 0 */\n      iszero\n      iszero\n        /* \"contracts/Market.sol\":3093:3155  token.balanceOf(address(this)) >= bal[_user] && bal[_user] > 0 */\n    tag_131:\n        /* \"contracts/Market.sol\":3072:3201  require(... */\n      tag_132\n      jumpi\n      mload(0x40)\n      shl(0xe5, 0x461bcd)\n      dup2\n      mstore\n        /* \"#utility.yul\":8409:8411   */\n      0x20\n        /* \"contracts/Market.sol\":3072:3201  require(... */\n      0x04\n      dup3\n      add\n        /* \"#utility.yul\":8391:8412   */\n      mstore\n        /* \"#utility.yul\":8448:8450   */\n      0x14\n        /* \"#utility.yul\":8428:8446   */\n      0x24\n      dup3\n      add\n        /* \"#utility.yul\":8421:8451   */\n      mstore\n      shl(0x60, 0x7a65726f2076616c756520617661696c61626c65)\n        /* \"#utility.yul\":8467:8485   */\n      0x44\n      dup3\n      add\n        /* \"#utility.yul\":8460:8510   */\n      mstore\n        /* \"#utility.yul\":8527:8545   */\n      0x64\n      add\n        /* \"contracts/Market.sol\":3072:3201  require(... */\n      tag_106\n        /* \"#utility.yul\":8381:8551   */\n      jump\n        /* \"contracts/Market.sol\":3072:3201  require(... */\n    tag_132:\n      sub(shl(0xa0, 0x01), 0x01)\n        /* \"contracts/Market.sol\":3233:3243  bal[_user] */\n      dup3\n      dup2\n      and\n        /* \"contracts/Market.sol\":3211:3230  uint256 availAmount */\n      0x00\n        /* \"contracts/Market.sol\":3233:3243  bal[_user] */\n      dup2\n      dup2\n      mstore\n        /* \"contracts/Market.sol\":3233:3236  bal */\n      0x05\n        /* \"contracts/Market.sol\":3233:3243  bal[_user] */\n      0x20\n      mstore\n      0x40\n      dup1\n      dup3\n      keccak256\n      dup1\n      sload\n        /* \"contracts/Market.sol\":3253:3267  bal[_user] = 0 */\n      swap1\n      dup4\n      swap1\n      sstore\n        /* \"contracts/Market.sol\":3292:3326  token.transfer(_user, availAmount) */\n      swap1\n      mload\n      shl(0xe0, 0xa9059cbb)\n      dup2\n      mstore\n      0x04\n      dup2\n      add\n        /* \"#utility.yul\":4645:4696   */\n      swap4\n      swap1\n      swap4\n      mstore\n        /* \"#utility.yul\":4712:4730   */\n      0x24\n      dup4\n      add\n        /* \"#utility.yul\":4705:4739   */\n      dup2\n      swap1\n      mstore\n        /* \"contracts/Market.sol\":3233:3243  bal[_user] */\n      swap3\n        /* \"contracts/Market.sol\":3211:3230  uint256 availAmount */\n      swap1\n      swap2\n        /* \"contracts/Market.sol\":3292:3297  token */\n      immutable(\"0xb82efe928ba8047fc73c44199ae87270ba92aad773ed77645c6bc82e384fdb71\")\n        /* \"contracts/Market.sol\":3292:3306  token.transfer */\n      swap1\n      swap2\n      and\n      swap1\n      0xa9059cbb\n      swap1\n        /* \"#utility.yul\":4618:4636   */\n      0x44\n      add\n        /* \"contracts/Market.sol\":3292:3326  token.transfer(_user, availAmount) */\n      0x20\n      mload(0x40)\n      dup1\n      dup4\n      sub\n      dup2\n      0x00\n      dup8\n      dup1\n      extcodesize\n      iszero\n      dup1\n      iszero\n      tag_137\n      jumpi\n      0x00\n      dup1\n      revert\n    tag_137:\n      pop\n      gas\n      call\n      iszero\n      dup1\n      iszero\n      tag_139\n      jumpi\n      returndatasize\n      0x00\n      dup1\n      returndatacopy\n      revert(0x00, returndatasize)\n    tag_139:\n      pop\n      pop\n      pop\n      pop\n      mload(0x40)\n      returndatasize\n      not(0x1f)\n      0x1f\n      dup3\n      add\n      and\n      dup3\n      add\n      dup1\n      0x40\n      mstore\n      pop\n      dup2\n      add\n      swap1\n      tag_140\n      swap2\n      swap1\n      tag_141\n      jump\t// in\n    tag_140:\n        /* \"contracts/Market.sol\":3277:3326  bool success = token.transfer(_user, availAmount) */\n      swap1\n      pop\n        /* \"contracts/Market.sol\":3344:3351  success */\n      dup1\n        /* \"contracts/Market.sol\":3336:3381  require(success, \"transfer to caller failed\") */\n      tag_142\n      jumpi\n      mload(0x40)\n      shl(0xe5, 0x461bcd)\n      dup2\n      mstore\n        /* \"#utility.yul\":8055:8057   */\n      0x20\n        /* \"contracts/Market.sol\":3336:3381  require(success, \"transfer to caller failed\") */\n      0x04\n      dup3\n      add\n        /* \"#utility.yul\":8037:8058   */\n      mstore\n        /* \"#utility.yul\":8094:8096   */\n      0x19\n        /* \"#utility.yul\":8074:8092   */\n      0x24\n      dup3\n      add\n        /* \"#utility.yul\":8067:8097   */\n      mstore\n        /* \"#utility.yul\":8133:8160   */\n      0x7472616e7366657220746f2063616c6c6572206661696c656400000000000000\n        /* \"#utility.yul\":8113:8131   */\n      0x44\n      dup3\n      add\n        /* \"#utility.yul\":8106:8161   */\n      mstore\n        /* \"#utility.yul\":8178:8196   */\n      0x64\n      add\n        /* \"contracts/Market.sol\":3336:3381  require(success, \"transfer to caller failed\") */\n      tag_106\n        /* \"#utility.yul\":8027:8202   */\n      jump\n        /* \"contracts/Market.sol\":3336:3381  require(success, \"transfer to caller failed\") */\n    tag_142:\n        /* \"contracts/Market.sol\":3397:3425  Withdraw(_user, availAmount) */\n      0x40\n      dup1\n      mload\n      sub(shl(0xa0, 0x01), 0x01)\n        /* \"#utility.yul\":4663:4695   */\n      dup7\n      and\n        /* \"#utility.yul\":4645:4696   */\n      dup2\n      mstore\n        /* \"#utility.yul\":4727:4729   */\n      0x20\n        /* \"#utility.yul\":4712:4730   */\n      dup2\n      add\n        /* \"#utility.yul\":4705:4739   */\n      dup5\n      swap1\n      mstore\n        /* \"contracts/Market.sol\":3397:3425  Withdraw(_user, availAmount) */\n      0x884edad9ce6fa2440d8a54cc123490eb96d2768479d49ff9c7366125a9424364\n      swap2\n        /* \"#utility.yul\":4618:4636   */\n      add\n        /* \"contracts/Market.sol\":3397:3425  Withdraw(_user, availAmount) */\n      mload(0x40)\n      dup1\n      swap2\n      sub\n      swap1\n      log1\n        /* \"contracts/Market.sol\":3442:3446  true */\n      0x01\n        /* \"contracts/Market.sol\":3435:3446  return true */\n      swap3\n      pop\n      pop\n      pop\n        /* \"@openzeppelin/contracts/security/ReentrancyGuard.sol\":2484:2485  _ */\n    tag_123:\n        /* \"@openzeppelin/contracts/security/ReentrancyGuard.sol\":1701:1702  1 */\n      0x01\n        /* \"@openzeppelin/contracts/security/ReentrancyGuard.sol\":2628:2635  _status */\n      0x00\n        /* \"@openzeppelin/contracts/security/ReentrancyGuard.sol\":2628:2650  _status = _NOT_ENTERED */\n      sstore\n        /* \"contracts/Market.sol\":2986:3453  function withdraw(address _user) public override nonReentrant returns(bool) {... */\n      swap2\n      swap1\n      pop\n      jump\t// out\n        /* \"contracts/Market.sol\":4318:4638  function settleBet(bytes32 _bet) external override {... */\n    tag_55:\n        /* \"contracts/Market.sol\":4379:4402  bytes32[] memory _pairs */\n      0x00\n        /* \"contracts/Market.sol\":4405:4419  betPairs[_bet] */\n      dup2\n      dup2\n      mstore\n        /* \"contracts/Market.sol\":4405:4413  betPairs */\n      0x09\n        /* \"contracts/Market.sol\":4405:4419  betPairs[_bet] */\n      0x20\n      swap1\n      dup2\n      mstore\n      0x40\n      dup1\n      dup4\n      keccak256\n        /* \"contracts/Market.sol\":4379:4419  bytes32[] memory _pairs = betPairs[_bet] */\n      dup1\n      sload\n      dup3\n      mload\n      dup2\n      dup6\n      mul\n      dup2\n      add\n      dup6\n      add\n      swap1\n      swap4\n      mstore\n      dup1\n      dup4\n      mstore\n      swap2\n      swap3\n        /* \"contracts/Market.sol\":4405:4419  betPairs[_bet] */\n      swap1\n      swap2\n        /* \"contracts/Market.sol\":4379:4419  bytes32[] memory _pairs = betPairs[_bet] */\n      swap1\n      dup4\n      add\n        /* \"contracts/Market.sol\":4405:4419  betPairs[_bet] */\n      dup3\n        /* \"contracts/Market.sol\":4379:4419  bytes32[] memory _pairs = betPairs[_bet] */\n      dup3\n      dup1\n      iszero\n      tag_147\n      jumpi\n      0x20\n      mul\n      dup3\n      add\n      swap2\n      swap1\n      0x00\n      mstore\n      keccak256(0x00, 0x20)\n      swap1\n    tag_148:\n      dup2\n      sload\n      dup2\n      mstore\n      0x20\n      add\n      swap1\n      0x01\n      add\n      swap1\n      dup1\n      dup4\n      gt\n      tag_148\n      jumpi\n    tag_147:\n      pop\n      pop\n        /* \"contracts/Market.sol\":4448:4461  _pairs.length */\n      dup4\n      mload\n        /* \"contracts/Market.sol\":4379:4419  bytes32[] memory _pairs = betPairs[_bet] */\n      swap4\n      swap5\n      pop\n        /* \"contracts/Market.sol\":4429:4445  uint pairsLength */\n      0x00\n      swap3\n      pop\n      pop\n      pop\n        /* \"contracts/Market.sol\":4471:4555  for(uint i = 0; i < pairsLength; i++){... */\n    tag_149:\n        /* \"contracts/Market.sol\":4491:4502  pairsLength */\n      dup2\n        /* \"contracts/Market.sol\":4487:4488  i */\n      dup2\n        /* \"contracts/Market.sol\":4487:4502  i < pairsLength */\n      lt\n        /* \"contracts/Market.sol\":4471:4555  for(uint i = 0; i < pairsLength; i++){... */\n      iszero\n      tag_150\n      jumpi\n        /* \"contracts/Market.sol\":4522:4544  _settlePair(_pairs[i]) */\n      tag_152\n        /* \"contracts/Market.sol\":4534:4540  _pairs */\n      dup4\n        /* \"contracts/Market.sol\":4541:4542  i */\n      dup3\n        /* \"contracts/Market.sol\":4534:4543  _pairs[i] */\n      dup2\n      mload\n      dup2\n      lt\n      tag_153\n      jumpi\n      mstore(0x00, shl(0xe0, 0x4e487b71))\n      mstore(0x04, 0x32)\n      revert(0x00, 0x24)\n    tag_153:\n      0x20\n      mul\n      0x20\n      add\n      add\n      mload\n        /* \"contracts/Market.sol\":4522:4533  _settlePair */\n      tag_154\n        /* \"contracts/Market.sol\":4522:4544  _settlePair(_pairs[i]) */\n      jump\t// in\n    tag_152:\n      pop\n        /* \"contracts/Market.sol\":4504:4507  i++ */\n      dup1\n      tag_155\n      dup2\n      tag_156\n      jump\t// in\n    tag_155:\n      swap2\n      pop\n      pop\n        /* \"contracts/Market.sol\":4471:4555  for(uint i = 0; i < pairsLength; i++){... */\n      jump(tag_149)\n    tag_150:\n      pop\n        /* \"contracts/Market.sol\":4571:4581  msg.sender */\n      caller\n        /* \"contracts/Market.sol\":4585:4586  0 */\n      0x00\n        /* \"contracts/Market.sol\":4567:4582  bal[msg.sender] */\n      swap1\n      dup2\n      mstore\n        /* \"contracts/Market.sol\":4567:4570  bal */\n      0x05\n        /* \"contracts/Market.sol\":4567:4582  bal[msg.sender] */\n      0x20\n      mstore\n      0x40\n      swap1\n      keccak256\n      sload\n        /* \"contracts/Market.sol\":4567:4586  bal[msg.sender] > 0 */\n      iszero\n        /* \"contracts/Market.sol\":4564:4632  if(bal[msg.sender] > 0){... */\n      tag_157\n      jumpi\n        /* \"contracts/Market.sol\":4601:4621  withdraw(msg.sender) */\n      tag_158\n        /* \"contracts/Market.sol\":4610:4620  msg.sender */\n      caller\n        /* \"contracts/Market.sol\":4601:4609  withdraw */\n      tag_50\n        /* \"contracts/Market.sol\":4601:4621  withdraw(msg.sender) */\n      jump\t// in\n    tag_158:\n      pop\n        /* \"contracts/Market.sol\":4564:4632  if(bal[msg.sender] > 0){... */\n    tag_157:\n        /* \"contracts/Market.sol\":4318:4638  function settleBet(bytes32 _bet) external override {... */\n      pop\n      pop\n      pop\n      jump\t// out\n        /* \"contracts/Market.sol\":6241:6448  function stopNewBet() external override onlyFactory returns(bool){... */\n    tag_57:\n        /* \"contracts/Market.sol\":1089:1092  app */\n      sload(0x0a)\n        /* \"contracts/Market.sol\":1089:1119  app.getEventOwner(marketEvent) */\n      mload(0x40)\n      shl(0xe3, 0x1e558333)\n      dup2\n      mstore\n        /* \"contracts/Market.sol\":1107:1118  marketEvent */\n      immutable(\"0x535306ee4b42c92aecd0e71fca98572064f049c2babb2769faa3bbd87d67ec2d\")\n        /* \"contracts/Market.sol\":1089:1119  app.getEventOwner(marketEvent) */\n      0x04\n      dup3\n      add\n        /* \"#utility.yul\":5728:5753   */\n      mstore\n        /* \"contracts/Market.sol\":6301:6305  bool */\n      0x00\n      swap2\n      sub(shl(0xa0, 0x01), 0x01)\n        /* \"contracts/Market.sol\":1089:1092  app */\n      and\n      swap1\n        /* \"contracts/Market.sol\":1089:1106  app.getEventOwner */\n      0xf2ac1998\n      swap1\n        /* \"#utility.yul\":5701:5719   */\n      0x24\n      add\n        /* \"contracts/Market.sol\":1089:1119  app.getEventOwner(marketEvent) */\n      0x20\n      mload(0x40)\n      dup1\n      dup4\n      sub\n      dup2\n      dup7\n      dup1\n      extcodesize\n      iszero\n      dup1\n      iszero\n      tag_161\n      jumpi\n      0x00\n      dup1\n      revert\n    tag_161:\n      pop\n      gas\n      staticcall\n      iszero\n      dup1\n      iszero\n      tag_163\n      jumpi\n      returndatasize\n      0x00\n      dup1\n      returndatacopy\n      revert(0x00, returndatasize)\n    tag_163:\n      pop\n      pop\n      pop\n      pop\n      mload(0x40)\n      returndatasize\n      not(0x1f)\n      0x1f\n      dup3\n      add\n      and\n      dup3\n      add\n      dup1\n      0x40\n      mstore\n      pop\n      dup2\n      add\n      swap1\n      tag_164\n      swap2\n      swap1\n      tag_165\n      jump\t// in\n    tag_164:\n      sub(shl(0xa0, 0x01), 0x01)\n        /* \"contracts/Market.sol\":1075:1119  msg.sender == app.getEventOwner(marketEvent) */\n      and\n        /* \"contracts/Market.sol\":1075:1085  msg.sender */\n      caller\n      sub(shl(0xa0, 0x01), 0x01)\n        /* \"contracts/Market.sol\":1075:1119  msg.sender == app.getEventOwner(marketEvent) */\n      and\n      eq\n        /* \"contracts/Market.sol\":1075:1144  msg.sender == app.getEventOwner(marketEvent) || msg.sender == factory */\n      dup1\n      tag_166\n      jumpi\n      pop\n        /* \"contracts/Market.sol\":1137:1144  factory */\n      and(sub(shl(0xa0, 0x01), 0x01), sload(0x01))\n        /* \"contracts/Market.sol\":1123:1133  msg.sender */\n      caller\n        /* \"contracts/Market.sol\":1123:1144  msg.sender == factory */\n      eq\n        /* \"contracts/Market.sol\":1075:1144  msg.sender == app.getEventOwner(marketEvent) || msg.sender == factory */\n    tag_166:\n        /* \"contracts/Market.sol\":1054:1191  require(... */\n      tag_167\n      jumpi\n      mload(0x40)\n      shl(0xe5, 0x461bcd)\n      dup2\n      mstore\n      0x04\n      add\n      tag_106\n      swap1\n      tag_169\n      jump\t// in\n    tag_167:\n        /* \"contracts/Market.sol\":6319:6325  status */\n      sload(0x02)\n        /* \"contracts/Market.sol\":6316:6442  if(status == 0){... */\n      tag_171\n      jumpi\n      pop\n        /* \"contracts/Market.sol\":6354:6355  4 */\n      0x04\n        /* \"contracts/Market.sol\":6345:6351  status */\n      0x02\n        /* \"contracts/Market.sol\":6345:6355  status = 4 */\n      sstore\n        /* \"contracts/Market.sol\":6376:6380  true */\n      0x01\n        /* \"contracts/Market.sol\":6241:6448  function stopNewBet() external override onlyFactory returns(bool){... */\n      swap1\n      jump\t// out\n        /* \"contracts/Market.sol\":6316:6442  if(status == 0){... */\n    tag_171:\n      pop\n        /* \"contracts/Market.sol\":6426:6431  false */\n      0x00\n        /* \"contracts/Market.sol\":6241:6448  function stopNewBet() external override onlyFactory returns(bool){... */\n      swap1\n      jump\t// out\n        /* \"contracts/Market.sol\":2620:2723  function getPairs() external view override returns(bytes32[] memory) ... */\n    tag_60:\n        /* \"contracts/Market.sol\":2671:2687  bytes32[] memory */\n      0x60\n        /* \"contracts/Market.sol\":2711:2716  pairs */\n      0x03\n        /* \"contracts/Market.sol\":2704:2716  return pairs */\n      dup1\n      sload\n      dup1\n      0x20\n      mul\n      0x20\n      add\n      mload(0x40)\n      swap1\n      dup2\n      add\n      0x40\n      mstore\n      dup1\n      swap3\n      swap2\n      swap1\n      dup2\n      dup2\n      mstore\n      0x20\n      add\n      dup3\n      dup1\n      sload\n      dup1\n      iszero\n      tag_174\n      jumpi\n      0x20\n      mul\n      dup3\n      add\n      swap2\n      swap1\n      0x00\n      mstore\n      keccak256(0x00, 0x20)\n      swap1\n    tag_175:\n      dup2\n      sload\n      dup2\n      mstore\n      0x20\n      add\n      swap1\n      0x01\n      add\n      swap1\n      dup1\n      dup4\n      gt\n      tag_175\n      jumpi\n    tag_174:\n      pop\n      pop\n      pop\n      pop\n      pop\n      swap1\n      pop\n        /* \"contracts/Market.sol\":2620:2723  function getPairs() external view override returns(bytes32[] memory) ... */\n      swap1\n      jump\t// out\n        /* \"contracts/Market.sol\":3556:3945  function withdrawPending(bytes32 _bet) public override {... */\n    tag_68:\n        /* \"contracts/Market.sol\":3621:3648  Struct.MarketBet memory bet */\n      0x00\n        /* \"contracts/Market.sol\":3651:3665  betsInfo[_bet] */\n      dup2\n      dup2\n      mstore\n        /* \"contracts/Market.sol\":3651:3659  betsInfo */\n      0x06\n        /* \"contracts/Market.sol\":3651:3665  betsInfo[_bet] */\n      0x20\n      swap1\n      dup2\n      mstore\n      0x40\n      swap2\n      dup3\n      swap1\n      keccak256\n        /* \"contracts/Market.sol\":3621:3665  Struct.MarketBet memory bet = betsInfo[_bet] */\n      dup3\n      mload\n      0xc0\n      dup2\n      add\n      dup5\n      mstore\n      dup2\n      sload\n      sub(shl(0xa0, 0x01), 0x01)\n      swap1\n      dup2\n      and\n      dup1\n      dup4\n      mstore\n      0x01\n      dup5\n      add\n      sload\n      swap1\n      swap2\n      and\n      swap4\n      dup3\n      add\n      swap4\n      swap1\n      swap4\n      mstore\n      0x02\n      dup3\n      add\n      sload\n      swap4\n      dup2\n      add\n      swap4\n      swap1\n      swap4\n      mstore\n      0x03\n      dup2\n      add\n      sload\n      0x60\n      dup5\n      add\n      mstore\n      0x04\n      dup2\n      add\n      sload\n      0x80\n      dup5\n      add\n      mstore\n      0x05\n      add\n      sload\n      0xa0\n      dup4\n      add\n      mstore\n        /* \"contracts/Market.sol\":3683:3693  msg.sender */\n      caller\n        /* \"contracts/Market.sol\":3683:3707  msg.sender == bet.better */\n      eq\n        /* \"contracts/Market.sol\":3675:3731  require(msg.sender == bet.better, \"unauthorized caller\") */\n      tag_177\n      jumpi\n      mload(0x40)\n      shl(0xe5, 0x461bcd)\n      dup2\n      mstore\n        /* \"#utility.yul\":7016:7018   */\n      0x20\n        /* \"contracts/Market.sol\":3675:3731  require(msg.sender == bet.better, \"unauthorized caller\") */\n      0x04\n      dup3\n      add\n        /* \"#utility.yul\":6998:7019   */\n      mstore\n        /* \"#utility.yul\":7055:7057   */\n      0x13\n        /* \"#utility.yul\":7035:7053   */\n      0x24\n      dup3\n      add\n        /* \"#utility.yul\":7028:7058   */\n      mstore\n      shl(0x69, 0x3ab730baba3437b934bd32b21031b0b63632b9)\n        /* \"#utility.yul\":7074:7092   */\n      0x44\n      dup3\n      add\n        /* \"#utility.yul\":7067:7116   */\n      mstore\n        /* \"#utility.yul\":7133:7151   */\n      0x64\n      add\n        /* \"contracts/Market.sol\":3675:3731  require(msg.sender == bet.better, \"unauthorized caller\") */\n      tag_106\n        /* \"#utility.yul\":6988:7157   */\n      jump\n        /* \"contracts/Market.sol\":3675:3731  require(msg.sender == bet.better, \"unauthorized caller\") */\n    tag_177:\n        /* \"contracts/Market.sol\":3741:3754  uint remStake */\n      0x00\n        /* \"contracts/Market.sol\":3769:3772  bet */\n      dup2\n        /* \"contracts/Market.sol\":3769:3780  bet.matched */\n      0x60\n      add\n      mload\n        /* \"contracts/Market.sol\":3757:3760  bet */\n      dup3\n        /* \"contracts/Market.sol\":3757:3766  bet.stake */\n      0x40\n      add\n      mload\n        /* \"contracts/Market.sol\":3757:3780  bet.stake - bet.matched */\n      tag_179\n      swap2\n      swap1\n      tag_180\n      jump\t// in\n    tag_179:\n        /* \"contracts/Market.sol\":3794:3804  bet.better */\n      dup3\n      mload\n      sub(shl(0xa0, 0x01), 0x01)\n        /* \"contracts/Market.sol\":3790:3805  bal[bet.better] */\n      and\n      0x00\n      swap1\n      dup2\n      mstore\n        /* \"contracts/Market.sol\":3790:3793  bal */\n      0x05\n        /* \"contracts/Market.sol\":3790:3805  bal[bet.better] */\n      0x20\n      mstore\n      0x40\n      dup2\n      keccak256\n        /* \"contracts/Market.sol\":3790:3817  bal[bet.better] += remStake */\n      dup1\n      sload\n        /* \"contracts/Market.sol\":3741:3780  uint remStake = bet.stake - bet.matched */\n      swap3\n      swap4\n      pop\n      dup4\n      swap3\n        /* \"contracts/Market.sol\":3790:3805  bal[bet.better] */\n      swap1\n      swap2\n      swap1\n        /* \"contracts/Market.sol\":3790:3817  bal[bet.better] += remStake */\n      tag_181\n      swap1\n        /* \"contracts/Market.sol\":3741:3780  uint remStake = bet.stake - bet.matched */\n      dup5\n      swap1\n        /* \"contracts/Market.sol\":3790:3817  bal[bet.better] += remStake */\n      tag_182\n      jump\t// in\n    tag_181:\n      swap1\n      swap2\n      sstore\n      pop\n      pop\n        /* \"contracts/Market.sol\":3852:3861  bet.stake */\n      0x40\n      dup1\n      dup4\n      add\n      mload\n        /* \"contracts/Market.sol\":3827:3841  betsInfo[_bet] */\n      0x00\n      dup6\n      dup2\n      mstore\n        /* \"contracts/Market.sol\":3827:3835  betsInfo */\n      0x06\n        /* \"contracts/Market.sol\":3827:3841  betsInfo[_bet] */\n      0x20\n      swap1\n      dup2\n      mstore\n      dup4\n      dup3\n      keccak256\n        /* \"contracts/Market.sol\":3827:3849  betsInfo[_bet].matched */\n      0x03\n      add\n        /* \"contracts/Market.sol\":3827:3861  betsInfo[_bet].matched = bet.stake */\n      swap3\n      swap1\n      swap3\n      sstore\n        /* \"contracts/Market.sol\":3878:3888  msg.sender */\n      caller\n        /* \"contracts/Market.sol\":3874:3889  bal[msg.sender] */\n      dup2\n      mstore\n        /* \"contracts/Market.sol\":3874:3877  bal */\n      0x05\n        /* \"contracts/Market.sol\":3874:3889  bal[msg.sender] */\n      swap1\n      swap2\n      mstore\n      keccak256\n      sload\n        /* \"contracts/Market.sol\":3874:3893  bal[msg.sender] > 0 */\n      iszero\n        /* \"contracts/Market.sol\":3871:3939  if(bal[msg.sender] > 0){... */\n      tag_157\n      jumpi\n        /* \"contracts/Market.sol\":3908:3928  withdraw(msg.sender) */\n      tag_158\n        /* \"contracts/Market.sol\":3917:3927  msg.sender */\n      caller\n        /* \"contracts/Market.sol\":3908:3916  withdraw */\n      tag_50\n        /* \"contracts/Market.sol\":3908:3928  withdraw(msg.sender) */\n      jump\t// in\n        /* \"contracts/Market.sol\":5204:5615  function settle(uint256 _winningSide)... */\n    tag_72:\n        /* \"contracts/Market.sol\":1089:1092  app */\n      sload(0x0a)\n        /* \"contracts/Market.sol\":1089:1119  app.getEventOwner(marketEvent) */\n      mload(0x40)\n      shl(0xe3, 0x1e558333)\n      dup2\n      mstore\n        /* \"contracts/Market.sol\":1107:1118  marketEvent */\n      immutable(\"0x535306ee4b42c92aecd0e71fca98572064f049c2babb2769faa3bbd87d67ec2d\")\n        /* \"contracts/Market.sol\":1089:1119  app.getEventOwner(marketEvent) */\n      0x04\n      dup3\n      add\n        /* \"#utility.yul\":5728:5753   */\n      mstore\n        /* \"contracts/Market.sol\":5312:5316  bool */\n      0x00\n      swap2\n      sub(shl(0xa0, 0x01), 0x01)\n        /* \"contracts/Market.sol\":1089:1092  app */\n      and\n      swap1\n        /* \"contracts/Market.sol\":1089:1106  app.getEventOwner */\n      0xf2ac1998\n      swap1\n        /* \"#utility.yul\":5701:5719   */\n      0x24\n      add\n        /* \"contracts/Market.sol\":1089:1119  app.getEventOwner(marketEvent) */\n      0x20\n      mload(0x40)\n      dup1\n      dup4\n      sub\n      dup2\n      dup7\n      dup1\n      extcodesize\n      iszero\n      dup1\n      iszero\n      tag_187\n      jumpi\n      0x00\n      dup1\n      revert\n    tag_187:\n      pop\n      gas\n      staticcall\n      iszero\n      dup1\n      iszero\n      tag_189\n      jumpi\n      returndatasize\n      0x00\n      dup1\n      returndatacopy\n      revert(0x00, returndatasize)\n    tag_189:\n      pop\n      pop\n      pop\n      pop\n      mload(0x40)\n      returndatasize\n      not(0x1f)\n      0x1f\n      dup3\n      add\n      and\n      dup3\n      add\n      dup1\n      0x40\n      mstore\n      pop\n      dup2\n      add\n      swap1\n      tag_190\n      swap2\n      swap1\n      tag_165\n      jump\t// in\n    tag_190:\n      sub(shl(0xa0, 0x01), 0x01)\n        /* \"contracts/Market.sol\":1075:1119  msg.sender == app.getEventOwner(marketEvent) */\n      and\n        /* \"contracts/Market.sol\":1075:1085  msg.sender */\n      caller\n      sub(shl(0xa0, 0x01), 0x01)\n        /* \"contracts/Market.sol\":1075:1119  msg.sender == app.getEventOwner(marketEvent) */\n      and\n      eq\n        /* \"contracts/Market.sol\":1075:1144  msg.sender == app.getEventOwner(marketEvent) || msg.sender == factory */\n      dup1\n      tag_191\n      jumpi\n      pop\n        /* \"contracts/Market.sol\":1137:1144  factory */\n      and(sub(shl(0xa0, 0x01), 0x01), sload(0x01))\n        /* \"contracts/Market.sol\":1123:1133  msg.sender */\n      caller\n        /* \"contracts/Market.sol\":1123:1144  msg.sender == factory */\n      eq\n        /* \"contracts/Market.sol\":1075:1144  msg.sender == app.getEventOwner(marketEvent) || msg.sender == factory */\n    tag_191:\n        /* \"contracts/Market.sol\":1054:1191  require(... */\n      tag_192\n      jumpi\n      mload(0x40)\n      shl(0xe5, 0x461bcd)\n      dup2\n      mstore\n      0x04\n      add\n      tag_106\n      swap1\n      tag_169\n      jump\t// in\n    tag_192:\n        /* \"contracts/Market.sol\":5335:5363  setWinningSide(_winningSide) */\n      tag_195\n        /* \"contracts/Market.sol\":5350:5362  _winningSide */\n      dup3\n        /* \"contracts/Market.sol\":5335:5349  setWinningSide */\n      tag_92\n        /* \"contracts/Market.sol\":5335:5363  setWinningSide(_winningSide) */\n      jump\t// in\n    tag_195:\n        /* \"contracts/Market.sol\":5332:5600  if(setWinningSide(_winningSide)){... */\n      iszero\n      tag_196\n      jumpi\n        /* \"contracts/Market.sol\":5397:5402  pairs */\n      0x03\n        /* \"contracts/Market.sol\":5397:5409  pairs.length */\n      sload\n        /* \"contracts/Market.sol\":5378:5394  uint pairsLength */\n      0x00\n        /* \"contracts/Market.sol\":5423:5514  for(uint i = 0; i < pairsLength; i++){... */\n    tag_197:\n        /* \"contracts/Market.sol\":5443:5454  pairsLength */\n      dup2\n        /* \"contracts/Market.sol\":5439:5440  i */\n      dup2\n        /* \"contracts/Market.sol\":5439:5454  i < pairsLength */\n      lt\n        /* \"contracts/Market.sol\":5423:5514  for(uint i = 0; i < pairsLength; i++){... */\n      iszero\n      tag_198\n      jumpi\n        /* \"contracts/Market.sol\":5478:5499  _settlePair(pairs[i]) */\n      tag_200\n        /* \"contracts/Market.sol\":5490:5495  pairs */\n      0x03\n        /* \"contracts/Market.sol\":5496:5497  i */\n      dup3\n        /* \"contracts/Market.sol\":5490:5498  pairs[i] */\n      dup2\n      sload\n      dup2\n      lt\n      tag_201\n      jumpi\n      mstore(0x00, shl(0xe0, 0x4e487b71))\n      mstore(0x04, 0x32)\n      revert(0x00, 0x24)\n    tag_201:\n      swap1\n      0x00\n      mstore\n      keccak256(0x00, 0x20)\n      add\n      sload\n        /* \"contracts/Market.sol\":5478:5489  _settlePair */\n      tag_154\n        /* \"contracts/Market.sol\":5478:5499  _settlePair(pairs[i]) */\n      jump\t// in\n    tag_200:\n      pop\n        /* \"contracts/Market.sol\":5456:5459  i++ */\n      dup1\n      tag_203\n      dup2\n      tag_156\n      jump\t// in\n    tag_203:\n      swap2\n      pop\n      pop\n        /* \"contracts/Market.sol\":5423:5514  for(uint i = 0; i < pairsLength; i++){... */\n      jump(tag_197)\n    tag_198:\n      pop\n        /* \"contracts/Market.sol\":5534:5538  true */\n      0x01\n      swap4\n        /* \"contracts/Market.sol\":5204:5615  function settle(uint256 _winningSide)... */\n      swap3\n      pop\n      pop\n      pop\n      jump\t// out\n        /* \"contracts/Market.sol\":5332:5600  if(setWinningSide(_winningSide)){... */\n    tag_196:\n      pop\n        /* \"contracts/Market.sol\":5584:5589  false */\n      0x00\n        /* \"contracts/Market.sol\":5204:5615  function settle(uint256 _winningSide)... */\n      swap2\n      swap1\n      pop\n      jump\t// out\n        /* \"contracts/Market.sol\":2043:2144  function getBets() external view override returns(bytes32[] memory) ... */\n    tag_75:\n        /* \"contracts/Market.sol\":2093:2109  bytes32[] memory */\n      0x60\n        /* \"contracts/Market.sol\":2133:2137  bets */\n      0x04\n        /* \"contracts/Market.sol\":2126:2137  return bets */\n      dup1\n      sload\n      dup1\n      0x20\n      mul\n      0x20\n      add\n      mload(0x40)\n      swap1\n      dup2\n      add\n      0x40\n      mstore\n      dup1\n      swap3\n      swap2\n      swap1\n      dup2\n      dup2\n      mstore\n      0x20\n      add\n      dup3\n      dup1\n      sload\n      dup1\n      iszero\n      tag_174\n      jumpi\n      0x20\n      mul\n      dup3\n      add\n      swap2\n      swap1\n      0x00\n      mstore\n      keccak256(0x00, 0x20)\n      swap1\n      dup2\n      sload\n      dup2\n      mstore\n      0x20\n      add\n      swap1\n      0x01\n      add\n      swap1\n      dup1\n      dup4\n      gt\n      tag_175\n      jumpi\n      pop\n      pop\n      pop\n      pop\n      pop\n      swap1\n      pop\n        /* \"contracts/Market.sol\":2043:2144  function getBets() external view override returns(bytes32[] memory) ... */\n      swap1\n      jump\t// out\n        /* \"contracts/Market.sol\":5852:6235  function cancelPlusPairs() external override onlyFactory returns(bool) ... */\n    tag_78:\n        /* \"contracts/Market.sol\":1089:1092  app */\n      sload(0x0a)\n        /* \"contracts/Market.sol\":1089:1119  app.getEventOwner(marketEvent) */\n      mload(0x40)\n      shl(0xe3, 0x1e558333)\n      dup2\n      mstore\n        /* \"contracts/Market.sol\":1107:1118  marketEvent */\n      immutable(\"0x535306ee4b42c92aecd0e71fca98572064f049c2babb2769faa3bbd87d67ec2d\")\n        /* \"contracts/Market.sol\":1089:1119  app.getEventOwner(marketEvent) */\n      0x04\n      dup3\n      add\n        /* \"#utility.yul\":5728:5753   */\n      mstore\n        /* \"contracts/Market.sol\":5917:5921  bool */\n      0x00\n      swap2\n      sub(shl(0xa0, 0x01), 0x01)\n        /* \"contracts/Market.sol\":1089:1092  app */\n      and\n      swap1\n        /* \"contracts/Market.sol\":1089:1106  app.getEventOwner */\n      0xf2ac1998\n      swap1\n        /* \"#utility.yul\":5701:5719   */\n      0x24\n      add\n        /* \"contracts/Market.sol\":1089:1119  app.getEventOwner(marketEvent) */\n      0x20\n      mload(0x40)\n      dup1\n      dup4\n      sub\n      dup2\n      dup7\n      dup1\n      extcodesize\n      iszero\n      dup1\n      iszero\n      tag_210\n      jumpi\n      0x00\n      dup1\n      revert\n    tag_210:\n      pop\n      gas\n      staticcall\n      iszero\n      dup1\n      iszero\n      tag_212\n      jumpi\n      returndatasize\n      0x00\n      dup1\n      returndatacopy\n      revert(0x00, returndatasize)\n    tag_212:\n      pop\n      pop\n      pop\n      pop\n      mload(0x40)\n      returndatasize\n      not(0x1f)\n      0x1f\n      dup3\n      add\n      and\n      dup3\n      add\n      dup1\n      0x40\n      mstore\n      pop\n      dup2\n      add\n      swap1\n      tag_213\n      swap2\n      swap1\n      tag_165\n      jump\t// in\n    tag_213:\n      sub(shl(0xa0, 0x01), 0x01)\n        /* \"contracts/Market.sol\":1075:1119  msg.sender == app.getEventOwner(marketEvent) */\n      and\n        /* \"contracts/Market.sol\":1075:1085  msg.sender */\n      caller\n      sub(shl(0xa0, 0x01), 0x01)\n        /* \"contracts/Market.sol\":1075:1119  msg.sender == app.getEventOwner(marketEvent) */\n      and\n      eq\n        /* \"contracts/Market.sol\":1075:1144  msg.sender == app.getEventOwner(marketEvent) || msg.sender == factory */\n      dup1\n      tag_214\n      jumpi\n      pop\n        /* \"contracts/Market.sol\":1137:1144  factory */\n      and(sub(shl(0xa0, 0x01), 0x01), sload(0x01))\n        /* \"contracts/Market.sol\":1123:1133  msg.sender */\n      caller\n        /* \"contracts/Market.sol\":1123:1144  msg.sender == factory */\n      eq\n        /* \"contracts/Market.sol\":1075:1144  msg.sender == app.getEventOwner(marketEvent) || msg.sender == factory */\n    tag_214:\n        /* \"contracts/Market.sol\":1054:1191  require(... */\n      tag_215\n      jumpi\n      mload(0x40)\n      shl(0xe5, 0x461bcd)\n      dup2\n      mstore\n      0x04\n      add\n      tag_106\n      swap1\n      tag_169\n      jump\t// in\n    tag_215:\n        /* \"contracts/Market.sol\":5942:5948  status */\n      sload(0x02)\n        /* \"contracts/Market.sol\":5942:5953  status == 0 */\n      iszero\n      dup1\n        /* \"contracts/Market.sol\":5942:5968  status == 0 || status == 4 */\n      tag_218\n      jumpi\n      pop\n        /* \"contracts/Market.sol\":5957:5963  status */\n      sload(0x02)\n        /* \"contracts/Market.sol\":5967:5968  4 */\n      0x04\n        /* \"contracts/Market.sol\":5957:5968  status == 4 */\n      eq\n        /* \"contracts/Market.sol\":5942:5968  status == 0 || status == 4 */\n    tag_218:\n        /* \"contracts/Market.sol\":5939:6229  if(status == 0 || status == 4){... */\n      iszero\n      tag_171\n      jumpi\n        /* \"contracts/Market.sol\":6002:6007  pairs */\n      0x03\n        /* \"contracts/Market.sol\":6002:6014  pairs.length */\n      sload\n        /* \"contracts/Market.sol\":5983:5999  uint pairsLength */\n      0x00\n        /* \"contracts/Market.sol\":6028:6119  for(uint i = 0; i < pairsLength; i++){... */\n    tag_220:\n        /* \"contracts/Market.sol\":6048:6059  pairsLength */\n      dup2\n        /* \"contracts/Market.sol\":6044:6045  i */\n      dup2\n        /* \"contracts/Market.sol\":6044:6059  i < pairsLength */\n      lt\n        /* \"contracts/Market.sol\":6028:6119  for(uint i = 0; i < pairsLength; i++){... */\n      iszero\n      tag_221\n      jumpi\n        /* \"contracts/Market.sol\":6083:6104  _cancelPair(pairs[i]) */\n      tag_223\n        /* \"contracts/Market.sol\":6095:6100  pairs */\n      0x03\n        /* \"contracts/Market.sol\":6101:6102  i */\n      dup3\n        /* \"contracts/Market.sol\":6095:6103  pairs[i] */\n      dup2\n      sload\n      dup2\n      lt\n      tag_224\n      jumpi\n      mstore(0x00, shl(0xe0, 0x4e487b71))\n      mstore(0x04, 0x32)\n      revert(0x00, 0x24)\n    tag_224:\n      swap1\n      0x00\n      mstore\n      keccak256(0x00, 0x20)\n      add\n      sload\n        /* \"contracts/Market.sol\":6083:6094  _cancelPair */\n      tag_226\n        /* \"contracts/Market.sol\":6083:6104  _cancelPair(pairs[i]) */\n      jump\t// in\n    tag_223:\n      pop\n        /* \"contracts/Market.sol\":6061:6064  i++ */\n      dup1\n      tag_227\n      dup2\n      tag_156\n      jump\t// in\n    tag_227:\n      swap2\n      pop\n      pop\n        /* \"contracts/Market.sol\":6028:6119  for(uint i = 0; i < pairsLength; i++){... */\n      jump(tag_220)\n    tag_221:\n      pop\n      pop\n        /* \"contracts/Market.sol\":6141:6142  3 */\n      0x03\n        /* \"contracts/Market.sol\":6132:6138  status */\n      0x02\n        /* \"contracts/Market.sol\":6132:6142  status = 3 */\n      sstore\n      pop\n        /* \"contracts/Market.sol\":6163:6167  true */\n      0x01\n        /* \"contracts/Market.sol\":6241:6448  function stopNewBet() external override onlyFactory returns(bool){... */\n      swap1\n      jump\t// out\n        /* \"contracts/Market.sol\":6454:9041  function addBet(... */\n    tag_88:\n        /* \"contracts/Market.sol\":6668:6671  app */\n      sload(0x0a)\n        /* \"contracts/Market.sol\":6668:6691  app.isBlack(msg.sender) */\n      mload(0x40)\n      shl(0xe0, 0x332daccf)\n      dup2\n      mstore\n        /* \"contracts/Market.sol\":6680:6690  msg.sender */\n      caller\n        /* \"contracts/Market.sol\":6668:6691  app.isBlack(msg.sender) */\n      0x04\n      dup3\n      add\n        /* \"#utility.yul\":3124:3175   */\n      mstore\n        /* \"contracts/Market.sol\":6636:6643  bytes32 */\n      0x00\n      swap2\n      sub(shl(0xa0, 0x01), 0x01)\n        /* \"contracts/Market.sol\":6668:6671  app */\n      and\n      swap1\n        /* \"contracts/Market.sol\":6668:6679  app.isBlack */\n      0x332daccf\n      swap1\n        /* \"#utility.yul\":3097:3115   */\n      0x24\n      add\n        /* \"contracts/Market.sol\":6668:6691  app.isBlack(msg.sender) */\n      0x20\n      mload(0x40)\n      dup1\n      dup4\n      sub\n      dup2\n      dup7\n      dup1\n      extcodesize\n      iszero\n      dup1\n      iszero\n      tag_234\n      jumpi\n      0x00\n      dup1\n      revert\n    tag_234:\n      pop\n      gas\n      staticcall\n      iszero\n      dup1\n      iszero\n      tag_236\n      jumpi\n      returndatasize\n      0x00\n      dup1\n      returndatacopy\n      revert(0x00, returndatasize)\n    tag_236:\n      pop\n      pop\n      pop\n      pop\n      mload(0x40)\n      returndatasize\n      not(0x1f)\n      0x1f\n      dup3\n      add\n      and\n      dup3\n      add\n      dup1\n      0x40\n      mstore\n      pop\n      dup2\n      add\n      swap1\n      tag_237\n      swap2\n      swap1\n      tag_141\n      jump\t// in\n    tag_237:\n        /* \"contracts/Market.sol\":6667:6691  !app.isBlack(msg.sender) */\n      iszero\n        /* \"contracts/Market.sol\":6659:6705  require(!app.isBlack(msg.sender), \"blacklist\") */\n      tag_238\n      jumpi\n      mload(0x40)\n      shl(0xe5, 0x461bcd)\n      dup2\n      mstore\n        /* \"#utility.yul\":9461:9463   */\n      0x20\n        /* \"contracts/Market.sol\":6659:6705  require(!app.isBlack(msg.sender), \"blacklist\") */\n      0x04\n      dup3\n      add\n        /* \"#utility.yul\":9443:9464   */\n      mstore\n        /* \"#utility.yul\":9500:9501   */\n      0x09\n        /* \"#utility.yul\":9480:9498   */\n      0x24\n      dup3\n      add\n        /* \"#utility.yul\":9473:9502   */\n      mstore\n      shl(0xba, 0x189b1858dadb1a5cdd)\n        /* \"#utility.yul\":9518:9536   */\n      0x44\n      dup3\n      add\n        /* \"#utility.yul\":9511:9550   */\n      mstore\n        /* \"#utility.yul\":9567:9585   */\n      0x64\n      add\n        /* \"contracts/Market.sol\":6659:6705  require(!app.isBlack(msg.sender), \"blacklist\") */\n      tag_106\n        /* \"#utility.yul\":9433:9591   */\n      jump\n        /* \"contracts/Market.sol\":6659:6705  require(!app.isBlack(msg.sender), \"blacklist\") */\n    tag_238:\n        /* \"contracts/Market.sol\":6723:6729  status */\n      sload(0x02)\n        /* \"contracts/Market.sol\":6723:6734  status == 0 */\n      iszero\n        /* \"contracts/Market.sol\":6715:6756  require(status == 0, \"market not active\") */\n      tag_241\n      jumpi\n      mload(0x40)\n      shl(0xe5, 0x461bcd)\n      dup2\n      mstore\n        /* \"#utility.yul\":6314:6316   */\n      0x20\n        /* \"contracts/Market.sol\":6715:6756  require(status == 0, \"market not active\") */\n      0x04\n      dup3\n      add\n        /* \"#utility.yul\":6296:6317   */\n      mstore\n        /* \"#utility.yul\":6353:6355   */\n      0x11\n        /* \"#utility.yul\":6333:6351   */\n      0x24\n      dup3\n      add\n        /* \"#utility.yul\":6326:6356   */\n      mstore\n      shl(0x78, 0x6d61726b6574206e6f7420616374697665)\n        /* \"#utility.yul\":6372:6390   */\n      0x44\n      dup3\n      add\n        /* \"#utility.yul\":6365:6412   */\n      mstore\n        /* \"#utility.yul\":6429:6447   */\n      0x64\n      add\n        /* \"contracts/Market.sol\":6715:6756  require(status == 0, \"market not active\") */\n      tag_106\n        /* \"#utility.yul\":6286:6453   */\n      jump\n        /* \"contracts/Market.sol\":6715:6756  require(status == 0, \"market not active\") */\n    tag_241:\n        /* \"contracts/Market.sol\":6774:6779  _side */\n      dup3\n        /* \"contracts/Market.sol\":6783:6784  1 */\n      0x01\n        /* \"contracts/Market.sol\":6774:6784  _side == 1 */\n      eq\n        /* \"contracts/Market.sol\":6774:6798  _side == 1 || _side == 2 */\n      dup1\n      tag_244\n      jumpi\n      pop\n        /* \"contracts/Market.sol\":6788:6793  _side */\n      dup3\n        /* \"contracts/Market.sol\":6797:6798  2 */\n      0x02\n        /* \"contracts/Market.sol\":6788:6798  _side == 2 */\n      eq\n        /* \"contracts/Market.sol\":6774:6798  _side == 1 || _side == 2 */\n    tag_244:\n        /* \"contracts/Market.sol\":6766:6815  require(_side == 1 || _side == 2, \"invalid side\") */\n      tag_245\n      jumpi\n      mload(0x40)\n      shl(0xe5, 0x461bcd)\n      dup2\n      mstore\n        /* \"#utility.yul\":7714:7716   */\n      0x20\n        /* \"contracts/Market.sol\":6766:6815  require(_side == 1 || _side == 2, \"invalid side\") */\n      0x04\n      dup3\n      add\n        /* \"#utility.yul\":7696:7717   */\n      mstore\n        /* \"#utility.yul\":7753:7755   */\n      0x0c\n        /* \"#utility.yul\":7733:7751   */\n      0x24\n      dup3\n      add\n        /* \"#utility.yul\":7726:7756   */\n      mstore\n      shl(0xa0, 0x696e76616c69642073696465)\n        /* \"#utility.yul\":7772:7790   */\n      0x44\n      dup3\n      add\n        /* \"#utility.yul\":7765:7807   */\n      mstore\n        /* \"#utility.yul\":7824:7842   */\n      0x64\n      add\n        /* \"contracts/Market.sol\":6766:6815  require(_side == 1 || _side == 2, \"invalid side\") */\n      tag_106\n        /* \"#utility.yul\":7686:7848   */\n      jump\n        /* \"contracts/Market.sol\":6766:6815  require(_side == 1 || _side == 2, \"invalid side\") */\n    tag_245:\n        /* \"contracts/Market.sol\":6833:6860  token.balanceOf(msg.sender) */\n      mload(0x40)\n      shl(0xe0, 0x70a08231)\n      dup2\n      mstore\n        /* \"contracts/Market.sol\":6849:6859  msg.sender */\n      caller\n        /* \"contracts/Market.sol\":6833:6860  token.balanceOf(msg.sender) */\n      0x04\n      dup3\n      add\n        /* \"#utility.yul\":3124:3175   */\n      mstore\n        /* \"contracts/Market.sol\":6864:6870  _stake */\n      dup6\n      swap1\n        /* \"contracts/Market.sol\":6833:6838  token */\n      immutable(\"0xb82efe928ba8047fc73c44199ae87270ba92aad773ed77645c6bc82e384fdb71\")\n      sub(shl(0xa0, 0x01), 0x01)\n        /* \"contracts/Market.sol\":6833:6848  token.balanceOf */\n      and\n      swap1\n      0x70a08231\n      swap1\n        /* \"#utility.yul\":3097:3115   */\n      0x24\n      add\n        /* \"contracts/Market.sol\":6833:6860  token.balanceOf(msg.sender) */\n      0x20\n      mload(0x40)\n      dup1\n      dup4\n      sub\n      dup2\n      dup7\n      dup1\n      extcodesize\n      iszero\n      dup1\n      iszero\n      tag_249\n      jumpi\n      0x00\n      dup1\n      revert\n    tag_249:\n      pop\n      gas\n      staticcall\n      iszero\n      dup1\n      iszero\n      tag_251\n      jumpi\n      returndatasize\n      0x00\n      dup1\n      returndatacopy\n      revert(0x00, returndatasize)\n    tag_251:\n      pop\n      pop\n      pop\n      pop\n      mload(0x40)\n      returndatasize\n      not(0x1f)\n      0x1f\n      dup3\n      add\n      and\n      dup3\n      add\n      dup1\n      0x40\n      mstore\n      pop\n      dup2\n      add\n      swap1\n      tag_252\n      swap2\n      swap1\n      tag_130\n      jump\t// in\n    tag_252:\n        /* \"contracts/Market.sol\":6833:6870  token.balanceOf(msg.sender) >= _stake */\n      lt\n      iszero\n        /* \"contracts/Market.sol\":6825:6899  require(token.balanceOf(msg.sender) >= _stake,\"not enough token balalnce\") */\n      tag_253\n      jumpi\n      mload(0x40)\n      shl(0xe5, 0x461bcd)\n      dup2\n      mstore\n        /* \"#utility.yul\":8758:8760   */\n      0x20\n        /* \"contracts/Market.sol\":6825:6899  require(token.balanceOf(msg.sender) >= _stake,\"not enough token balalnce\") */\n      0x04\n      dup3\n      add\n        /* \"#utility.yul\":8740:8761   */\n      mstore\n        /* \"#utility.yul\":8797:8799   */\n      0x19\n        /* \"#utility.yul\":8777:8795   */\n      0x24\n      dup3\n      add\n        /* \"#utility.yul\":8770:8800   */\n      mstore\n        /* \"#utility.yul\":8836:8863   */\n      0x6e6f7420656e6f75676820746f6b656e2062616c616c6e636500000000000000\n        /* \"#utility.yul\":8816:8834   */\n      0x44\n      dup3\n      add\n        /* \"#utility.yul\":8809:8864   */\n      mstore\n        /* \"#utility.yul\":8881:8899   */\n      0x64\n      add\n        /* \"contracts/Market.sol\":6825:6899  require(token.balanceOf(msg.sender) >= _stake,\"not enough token balalnce\") */\n      tag_106\n        /* \"#utility.yul\":8730:8905   */\n      jump\n        /* \"contracts/Market.sol\":6825:6899  require(token.balanceOf(msg.sender) >= _stake,\"not enough token balalnce\") */\n    tag_253:\n        /* \"contracts/Market.sol\":6917:6959  token.allowance(msg.sender, address(this)) */\n      mload(0x40)\n      shl(0xe1, 0x6eb1769f)\n      dup2\n      mstore\n        /* \"contracts/Market.sol\":6933:6943  msg.sender */\n      caller\n        /* \"contracts/Market.sol\":6917:6959  token.allowance(msg.sender, address(this)) */\n      0x04\n      dup3\n      add\n        /* \"#utility.yul\":3398:3432   */\n      mstore\n        /* \"contracts/Market.sol\":6953:6957  this */\n      address\n        /* \"#utility.yul\":3448:3466   */\n      0x24\n      dup3\n      add\n        /* \"#utility.yul\":3441:3484   */\n      mstore\n        /* \"contracts/Market.sol\":6963:6969  _stake */\n      dup6\n      swap1\n        /* \"contracts/Market.sol\":6917:6922  token */\n      immutable(\"0xb82efe928ba8047fc73c44199ae87270ba92aad773ed77645c6bc82e384fdb71\")\n      sub(shl(0xa0, 0x01), 0x01)\n        /* \"contracts/Market.sol\":6917:6932  token.allowance */\n      and\n      swap1\n      0xdd62ed3e\n      swap1\n        /* \"#utility.yul\":3333:3351   */\n      0x44\n      add\n        /* \"contracts/Market.sol\":6917:6959  token.allowance(msg.sender, address(this)) */\n      0x20\n      mload(0x40)\n      dup1\n      dup4\n      sub\n      dup2\n      dup7\n      dup1\n      extcodesize\n      iszero\n      dup1\n      iszero\n      tag_258\n      jumpi\n      0x00\n      dup1\n      revert\n    tag_258:\n      pop\n      gas\n      staticcall\n      iszero\n      dup1\n      iszero\n      tag_260\n      jumpi\n      returndatasize\n      0x00\n      dup1\n      returndatacopy\n      revert(0x00, returndatasize)\n    tag_260:\n      pop\n      pop\n      pop\n      pop\n      mload(0x40)\n      returndatasize\n      not(0x1f)\n      0x1f\n      dup3\n      add\n      and\n      dup3\n      add\n      dup1\n      0x40\n      mstore\n      pop\n      dup2\n      add\n      swap1\n      tag_261\n      swap2\n      swap1\n      tag_130\n      jump\t// in\n    tag_261:\n        /* \"contracts/Market.sol\":6917:6969  token.allowance(msg.sender, address(this)) >= _stake */\n      lt\n      iszero\n        /* \"contracts/Market.sol\":6909:6993  require(token.allowance(msg.sender, address(this)) >= _stake,\"not enough allowance\") */\n      tag_262\n      jumpi\n      mload(0x40)\n      shl(0xe5, 0x461bcd)\n      dup2\n      mstore\n        /* \"#utility.yul\":9112:9114   */\n      0x20\n        /* \"contracts/Market.sol\":6909:6993  require(token.allowance(msg.sender, address(this)) >= _stake,\"not enough allowance\") */\n      0x04\n      dup3\n      add\n        /* \"#utility.yul\":9094:9115   */\n      mstore\n        /* \"#utility.yul\":9151:9153   */\n      0x14\n        /* \"#utility.yul\":9131:9149   */\n      0x24\n      dup3\n      add\n        /* \"#utility.yul\":9124:9154   */\n      mstore\n      shl(0x60, 0x6e6f7420656e6f75676820616c6c6f77616e6365)\n        /* \"#utility.yul\":9170:9188   */\n      0x44\n      dup3\n      add\n        /* \"#utility.yul\":9163:9213   */\n      mstore\n        /* \"#utility.yul\":9230:9248   */\n      0x64\n      add\n        /* \"contracts/Market.sol\":6909:6993  require(token.allowance(msg.sender, address(this)) >= _stake,\"not enough allowance\") */\n      tag_106\n        /* \"#utility.yul\":9084:9254   */\n      jump\n        /* \"contracts/Market.sol\":6909:6993  require(token.allowance(msg.sender, address(this)) >= _stake,\"not enough allowance\") */\n    tag_262:\n        /* \"contracts/Market.sol\":7021:7024  app */\n      0x0a\n      0x00\n      swap1\n      sload\n      swap1\n      0x0100\n      exp\n      swap1\n      div\n      sub(shl(0xa0, 0x01), 0x01)\n      and\n      sub(shl(0xa0, 0x01), 0x01)\n        /* \"contracts/Market.sol\":7021:7033  app.minStake */\n      and\n      0x375b3c0a\n        /* \"contracts/Market.sol\":7021:7035  app.minStake() */\n      mload(0x40)\n      dup2\n      0xffffffff\n      and\n      0xe0\n      shl\n      dup2\n      mstore\n      0x04\n      add\n      0x20\n      mload(0x40)\n      dup1\n      dup4\n      sub\n      dup2\n      dup7\n      dup1\n      extcodesize\n      iszero\n      dup1\n      iszero\n      tag_265\n      jumpi\n      0x00\n      dup1\n      revert\n    tag_265:\n      pop\n      gas\n      staticcall\n      iszero\n      dup1\n      iszero\n      tag_267\n      jumpi\n      returndatasize\n      0x00\n      dup1\n      returndatacopy\n      revert(0x00, returndatasize)\n    tag_267:\n      pop\n      pop\n      pop\n      pop\n      mload(0x40)\n      returndatasize\n      not(0x1f)\n      0x1f\n      dup3\n      add\n      and\n      dup3\n      add\n      dup1\n      0x40\n      mstore\n      pop\n      dup2\n      add\n      swap1\n      tag_268\n      swap2\n      swap1\n      tag_130\n      jump\t// in\n    tag_268:\n        /* \"contracts/Market.sol\":7011:7017  _stake */\n      dup6\n        /* \"contracts/Market.sol\":7011:7035  _stake >= app.minStake() */\n      lt\n      iszero\n        /* \"contracts/Market.sol\":7003:7058  require(_stake >= app.minStake(),\"less than min stake\") */\n      tag_269\n      jumpi\n      mload(0x40)\n      shl(0xe5, 0x461bcd)\n      dup2\n      mstore\n        /* \"#utility.yul\":5966:5968   */\n      0x20\n        /* \"contracts/Market.sol\":7003:7058  require(_stake >= app.minStake(),\"less than min stake\") */\n      0x04\n      dup3\n      add\n        /* \"#utility.yul\":5948:5969   */\n      mstore\n        /* \"#utility.yul\":6005:6007   */\n      0x13\n        /* \"#utility.yul\":5985:6003   */\n      0x24\n      dup3\n      add\n        /* \"#utility.yul\":5978:6008   */\n      mstore\n      shl(0x68, 0x6c657373207468616e206d696e207374616b65)\n        /* \"#utility.yul\":6024:6042   */\n      0x44\n      dup3\n      add\n        /* \"#utility.yul\":6017:6066   */\n      mstore\n        /* \"#utility.yul\":6083:6101   */\n      0x64\n      add\n        /* \"contracts/Market.sol\":7003:7058  require(_stake >= app.minStake(),\"less than min stake\") */\n      tag_106\n        /* \"#utility.yul\":5938:6107   */\n      jump\n        /* \"contracts/Market.sol\":7003:7058  require(_stake >= app.minStake(),\"less than min stake\") */\n    tag_269:\n        /* \"contracts/Market.sol\":7089:7142  token.transferFrom(msg.sender, address(this), _stake) */\n      mload(0x40)\n      shl(0xe0, 0x23b872dd)\n      dup2\n      mstore\n        /* \"contracts/Market.sol\":7108:7118  msg.sender */\n      caller\n        /* \"contracts/Market.sol\":7089:7142  token.transferFrom(msg.sender, address(this), _stake) */\n      0x04\n      dup3\n      add\n        /* \"#utility.yul\":4331:4365   */\n      mstore\n        /* \"contracts/Market.sol\":7128:7132  this */\n      address\n        /* \"#utility.yul\":4381:4399   */\n      0x24\n      dup3\n      add\n        /* \"#utility.yul\":4374:4417   */\n      mstore\n        /* \"#utility.yul\":4433:4451   */\n      0x44\n      dup2\n      add\n        /* \"#utility.yul\":4426:4460   */\n      dup7\n      swap1\n      mstore\n        /* \"contracts/Market.sol\":7089:7094  token */\n      immutable(\"0xb82efe928ba8047fc73c44199ae87270ba92aad773ed77645c6bc82e384fdb71\")\n      sub(shl(0xa0, 0x01), 0x01)\n        /* \"contracts/Market.sol\":7089:7107  token.transferFrom */\n      and\n      swap1\n      0x23b872dd\n      swap1\n        /* \"#utility.yul\":4266:4284   */\n      0x64\n      add\n        /* \"contracts/Market.sol\":7089:7142  token.transferFrom(msg.sender, address(this), _stake) */\n      0x20\n      mload(0x40)\n      dup1\n      dup4\n      sub\n      dup2\n      0x00\n      dup8\n      dup1\n      extcodesize\n      iszero\n      dup1\n      iszero\n      tag_274\n      jumpi\n      0x00\n      dup1\n      revert\n    tag_274:\n      pop\n      gas\n      call\n      iszero\n      dup1\n      iszero\n      tag_276\n      jumpi\n      returndatasize\n      0x00\n      dup1\n      returndatacopy\n      revert(0x00, returndatasize)\n    tag_276:\n      pop\n      pop\n      pop\n      pop\n      mload(0x40)\n      returndatasize\n      not(0x1f)\n      0x1f\n      dup3\n      add\n      and\n      dup3\n      add\n      dup1\n      0x40\n      mstore\n      pop\n      dup2\n      add\n      swap1\n      tag_277\n      swap2\n      swap1\n      tag_141\n      jump\t// in\n    tag_277:\n        /* \"contracts/Market.sol\":7068:7195  require(... */\n      tag_278\n      jumpi\n      mload(0x40)\n      shl(0xe5, 0x461bcd)\n      dup2\n      mstore\n        /* \"#utility.yul\":6660:6662   */\n      0x20\n        /* \"contracts/Market.sol\":7068:7195  require(... */\n      0x04\n      dup3\n      add\n        /* \"#utility.yul\":6642:6663   */\n      mstore\n        /* \"#utility.yul\":6699:6701   */\n      0x1b\n        /* \"#utility.yul\":6679:6697   */\n      0x24\n      dup3\n      add\n        /* \"#utility.yul\":6672:6702   */\n      mstore\n        /* \"#utility.yul\":6738:6767   */\n      0x7472616e736665722066726f6d2063616c6c6572206661696c65640000000000\n        /* \"#utility.yul\":6718:6736   */\n      0x44\n      dup3\n      add\n        /* \"#utility.yul\":6711:6768   */\n      mstore\n        /* \"#utility.yul\":6785:6803   */\n      0x64\n      add\n        /* \"contracts/Market.sol\":7068:7195  require(... */\n      tag_106\n        /* \"#utility.yul\":6632:6809   */\n      jump\n        /* \"contracts/Market.sol\":7068:7195  require(... */\n    tag_278:\n        /* \"contracts/Market.sol\":7205:7220  bytes32 betHash */\n      0x00\n        /* \"contracts/Market.sol\":7223:7388  _createBet(... */\n      tag_281\n        /* \"contracts/Market.sol\":7247:7257  msg.sender */\n      caller\n        /* \"contracts/Market.sol\":7271:7281  _affiliate */\n      dup9\n        /* \"contracts/Market.sol\":7295:7301  _stake */\n      dup9\n        /* \"contracts/Market.sol\":7205:7220  bytes32 betHash */\n      dup5\n        /* \"contracts/Market.sol\":7347:7358  _odds - 100 */\n      tag_282\n        /* \"contracts/Market.sol\":7355:7358  100 */\n      0x64\n        /* \"contracts/Market.sol\":7347:7352  _odds */\n      dup12\n        /* \"contracts/Market.sol\":7347:7358  _odds - 100 */\n      tag_180\n      jump\t// in\n    tag_282:\n        /* \"contracts/Market.sol\":7331:7342  _odds * 100 */\n      tag_283\n        /* \"contracts/Market.sol\":7331:7336  _odds */\n      dup12\n        /* \"contracts/Market.sol\":7339:7342  100 */\n      0x64\n        /* \"contracts/Market.sol\":7331:7342  _odds * 100 */\n      tag_284\n      jump\t// in\n    tag_283:\n        /* \"contracts/Market.sol\":7330:7359  (_odds * 100) / (_odds - 100) */\n      tag_285\n      swap2\n      swap1\n      tag_286\n      jump\t// in\n    tag_285:\n        /* \"contracts/Market.sol\":7373:7378  _side */\n      dup10\n        /* \"contracts/Market.sol\":7223:7233  _createBet */\n      tag_287\n        /* \"contracts/Market.sol\":7223:7388  _createBet(... */\n      jump\t// in\n    tag_281:\n        /* \"contracts/Market.sol\":7634:7638  bets */\n      0x04\n        /* \"contracts/Market.sol\":7634:7645  bets.length */\n      sload\n        /* \"contracts/Market.sol\":7205:7388  bytes32 betHash = _createBet(... */\n      swap1\n      swap2\n      pop\n        /* \"contracts/Market.sol\":7634:7649  bets.length > 0 */\n      iszero\n        /* \"contracts/Market.sol\":7631:8928  if(bets.length > 0){... */\n      tag_288\n      jumpi\n        /* \"contracts/Market.sol\":7722:7726  bets */\n      0x04\n        /* \"contracts/Market.sol\":7722:7733  bets.length */\n      sload\n        /* \"contracts/Market.sol\":7681:7687  _stake */\n      dup7\n      swap1\n        /* \"contracts/Market.sol\":7747:8918  while(_remStake >= app.minStake()){... */\n    tag_289:\n        /* \"contracts/Market.sol\":7766:7769  app */\n      0x0a\n      0x00\n      swap1\n      sload\n      swap1\n      0x0100\n      exp\n      swap1\n      div\n      sub(shl(0xa0, 0x01), 0x01)\n      and\n      sub(shl(0xa0, 0x01), 0x01)\n        /* \"contracts/Market.sol\":7766:7778  app.minStake */\n      and\n      0x375b3c0a\n        /* \"contracts/Market.sol\":7766:7780  app.minStake() */\n      mload(0x40)\n      dup2\n      0xffffffff\n      and\n      0xe0\n      shl\n      dup2\n      mstore\n      0x04\n      add\n      0x20\n      mload(0x40)\n      dup1\n      dup4\n      sub\n      dup2\n      dup7\n      dup1\n      extcodesize\n      iszero\n      dup1\n      iszero\n      tag_291\n      jumpi\n      0x00\n      dup1\n      revert\n    tag_291:\n      pop\n      gas\n      staticcall\n      iszero\n      dup1\n      iszero\n      tag_293\n      jumpi\n      returndatasize\n      0x00\n      dup1\n      returndatacopy\n      revert(0x00, returndatasize)\n    tag_293:\n      pop\n      pop\n      pop\n      pop\n      mload(0x40)\n      returndatasize\n      not(0x1f)\n      0x1f\n      dup3\n      add\n      and\n      dup3\n      add\n      dup1\n      0x40\n      mstore\n      pop\n      dup2\n      add\n      swap1\n      tag_294\n      swap2\n      swap1\n      tag_130\n      jump\t// in\n    tag_294:\n        /* \"contracts/Market.sol\":7753:7762  _remStake */\n      dup3\n        /* \"contracts/Market.sol\":7753:7780  _remStake >= app.minStake() */\n      lt\n        /* \"contracts/Market.sol\":7747:8918  while(_remStake >= app.minStake()){... */\n      tag_290\n      jumpi\n        /* \"contracts/Market.sol\":7799:7817  uint selectedIndex */\n      0x00\n        /* \"contracts/Market.sol\":7839:7854  uint256 maxOdds */\n      dup1\n        /* \"contracts/Market.sol\":7880:7886  uint i */\n      0x00\n        /* \"contracts/Market.sol\":7876:8256  for(uint i = 0; i < betsLength; i++){... */\n    tag_295:\n        /* \"contracts/Market.sol\":7896:7906  betsLength */\n      dup4\n        /* \"contracts/Market.sol\":7892:7893  i */\n      dup2\n        /* \"contracts/Market.sol\":7892:7906  i < betsLength */\n      lt\n        /* \"contracts/Market.sol\":7876:8256  for(uint i = 0; i < betsLength; i++){... */\n      iszero\n      tag_296\n      jumpi\n        /* \"contracts/Market.sol\":7934:7945  bytes32 bet */\n      0x00\n        /* \"contracts/Market.sol\":7948:7952  bets */\n      0x04\n        /* \"contracts/Market.sol\":7953:7954  i */\n      dup3\n        /* \"contracts/Market.sol\":7948:7955  bets[i] */\n      dup2\n      sload\n      dup2\n      lt\n      tag_298\n      jumpi\n      mstore(0x00, shl(0xe0, 0x4e487b71))\n      mstore(0x04, 0x32)\n      revert(0x00, 0x24)\n    tag_298:\n      swap1\n      0x00\n      mstore\n      keccak256(0x00, 0x20)\n      add\n      sload\n        /* \"contracts/Market.sol\":7934:7955  bytes32 bet = bets[i] */\n      swap1\n      pop\n        /* \"contracts/Market.sol\":7989:7997  betsInfo */\n      0x06\n        /* \"contracts/Market.sol\":7989:8002  betsInfo[bet] */\n      0x00\n        /* \"contracts/Market.sol\":7998:8001  bet */\n      dup3\n        /* \"contracts/Market.sol\":7989:8002  betsInfo[bet] */\n      dup2\n      mstore\n      0x20\n      add\n      swap1\n      dup2\n      mstore\n      0x20\n      add\n      0x00\n      keccak256\n        /* \"contracts/Market.sol\":7989:8007  betsInfo[bet].side */\n      0x05\n      add\n      sload\n        /* \"contracts/Market.sol\":7980:7985  _side */\n      dup11\n        /* \"contracts/Market.sol\":7980:8007  _side == betsInfo[bet].side */\n      eq\n        /* \"contracts/Market.sol\":7977:8065  if(_side == betsInfo[bet].side){... */\n      iszero\n      tag_300\n      jumpi\n        /* \"contracts/Market.sol\":8034:8042  continue */\n      pop\n      jump(tag_297)\n        /* \"contracts/Market.sol\":7977:8065  if(_side == betsInfo[bet].side){... */\n    tag_300:\n        /* \"contracts/Market.sol\":8089:8102  betsInfo[bet] */\n      0x00\n      dup2\n      dup2\n      mstore\n        /* \"contracts/Market.sol\":8089:8097  betsInfo */\n      0x06\n        /* \"contracts/Market.sol\":8089:8102  betsInfo[bet] */\n      0x20\n      mstore\n      0x40\n      swap1\n      keccak256\n        /* \"contracts/Market.sol\":8089:8107  betsInfo[bet].odds */\n      0x04\n      add\n      sload\n        /* \"contracts/Market.sol\":8089:8117  betsInfo[bet].odds > maxOdds */\n      dup4\n      lt\n        /* \"contracts/Market.sol\":8086:8238  if(betsInfo[bet].odds > maxOdds){... */\n      iszero\n      tag_301\n      jumpi\n        /* \"contracts/Market.sol\":8154:8167  betsInfo[bet] */\n      0x00\n      dup2\n      dup2\n      mstore\n        /* \"contracts/Market.sol\":8154:8162  betsInfo */\n      0x06\n        /* \"contracts/Market.sol\":8154:8167  betsInfo[bet] */\n      0x20\n      mstore\n      0x40\n      swap1\n      keccak256\n        /* \"contracts/Market.sol\":8154:8172  betsInfo[bet].odds */\n      0x04\n      add\n      sload\n        /* \"contracts/Market.sol\":8214:8215  i */\n      swap2\n      swap4\n      pop\n        /* \"contracts/Market.sol\":8154:8172  betsInfo[bet].odds */\n      swap1\n      swap2\n      pop\n        /* \"contracts/Market.sol\":8214:8215  i */\n      dup3\n      swap1\n        /* \"contracts/Market.sol\":8086:8238  if(betsInfo[bet].odds > maxOdds){... */\n    tag_301:\n        /* \"contracts/Market.sol\":7876:8256  for(uint i = 0; i < betsLength; i++){... */\n      pop\n    tag_297:\n        /* \"contracts/Market.sol\":7908:7911  i++ */\n      dup1\n      tag_302\n      dup2\n      tag_156\n      jump\t// in\n    tag_302:\n      swap2\n      pop\n      pop\n        /* \"contracts/Market.sol\":7876:8256  for(uint i = 0; i < betsLength; i++){... */\n      jump(tag_295)\n    tag_296:\n      pop\n        /* \"contracts/Market.sol\":8273:8293  uint256 betterAmount */\n      0x00\n        /* \"contracts/Market.sol\":8329:8334  _odds */\n      dup10\n        /* \"contracts/Market.sol\":8318:8325  maxOdds */\n      dup3\n        /* \"contracts/Market.sol\":8318:8334  maxOdds >= _odds */\n      lt\n      iszero\n        /* \"contracts/Market.sol\":8318:8363  maxOdds >= _odds || (maxOdds > 0 && _instant) */\n      dup1\n      tag_304\n      jumpi\n      pop\n        /* \"contracts/Market.sol\":8349:8350  0 */\n      0x00\n        /* \"contracts/Market.sol\":8339:8346  maxOdds */\n      dup3\n        /* \"contracts/Market.sol\":8339:8350  maxOdds > 0 */\n      gt\n        /* \"contracts/Market.sol\":8339:8362  maxOdds > 0 && _instant */\n      dup1\n      iszero\n      tag_304\n      jumpi\n      pop\n        /* \"contracts/Market.sol\":8354:8362  _instant */\n      dup8\n        /* \"contracts/Market.sol\":8339:8362  maxOdds > 0 && _instant */\n    tag_304:\n        /* \"contracts/Market.sol\":8315:8861  if(maxOdds >= _odds || (maxOdds > 0 && _instant)) {... */\n      iszero\n      tag_305\n      jumpi\n        /* \"contracts/Market.sol\":8387:8407  bytes32 selectedHash */\n      0x00\n        /* \"contracts/Market.sol\":8410:8414  bets */\n      0x04\n        /* \"contracts/Market.sol\":8415:8428  selectedIndex */\n      dup5\n        /* \"contracts/Market.sol\":8410:8429  bets[selectedIndex] */\n      dup2\n      sload\n      dup2\n      lt\n      tag_306\n      jumpi\n      mstore(0x00, shl(0xe0, 0x4e487b71))\n      mstore(0x04, 0x32)\n      revert(0x00, 0x24)\n    tag_306:\n      0x00\n      swap2\n      dup3\n      mstore\n      0x20\n      dup1\n      dup4\n      keccak256\n      swap1\n      swap2\n      add\n      sload\n        /* \"contracts/Market.sol\":8489:8511  betsInfo[selectedHash] */\n      dup1\n      dup4\n      mstore\n        /* \"contracts/Market.sol\":8489:8497  betsInfo */\n      0x06\n        /* \"contracts/Market.sol\":8489:8511  betsInfo[selectedHash] */\n      dup3\n      mstore\n      0x40\n      dup1\n      dup5\n      keccak256\n        /* \"contracts/Market.sol\":8451:8511  Struct.MarketBet memory selectedBet = betsInfo[selectedHash] */\n      dup2\n      mload\n      0xc0\n      dup2\n      add\n      dup4\n      mstore\n      dup2\n      sload\n      sub(shl(0xa0, 0x01), 0x01)\n      swap1\n      dup2\n      and\n      dup3\n      mstore\n      0x01\n      dup4\n      add\n      sload\n      and\n      swap5\n      dup2\n      add\n      swap5\n      swap1\n      swap5\n      mstore\n      0x02\n      dup2\n      add\n      sload\n      swap2\n      dup5\n      add\n      swap2\n      swap1\n      swap2\n      mstore\n      0x03\n      dup2\n      add\n      sload\n      0x60\n      dup5\n      add\n      mstore\n      0x04\n      dup2\n      add\n      sload\n      0x80\n      dup5\n      add\n      mstore\n      0x05\n      add\n      sload\n      0xa0\n      dup4\n      add\n      mstore\n        /* \"contracts/Market.sol\":8410:8429  bets[selectedIndex] */\n      swap3\n      pop\n        /* \"contracts/Market.sol\":8451:8511  Struct.MarketBet memory selectedBet = betsInfo[selectedHash] */\n      swap1\n        /* \"contracts/Market.sol\":8598:8609  _odds - 100 */\n      tag_308\n        /* \"contracts/Market.sol\":8606:8609  100 */\n      0x64\n        /* \"contracts/Market.sol\":8598:8603  _odds */\n      dup15\n        /* \"contracts/Market.sol\":8598:8609  _odds - 100 */\n      tag_180\n      jump\t// in\n    tag_308:\n        /* \"contracts/Market.sol\":8574:8585  selectedBet */\n      dup3\n        /* \"contracts/Market.sol\":8574:8593  selectedBet.matched */\n      0x60\n      add\n      mload\n        /* \"contracts/Market.sol\":8554:8565  selectedBet */\n      dup4\n        /* \"contracts/Market.sol\":8554:8571  selectedBet.stake */\n      0x40\n      add\n      mload\n        /* \"contracts/Market.sol\":8554:8593  selectedBet.stake - selectedBet.matched */\n      tag_309\n      swap2\n      swap1\n      tag_180\n      jump\t// in\n    tag_309:\n        /* \"contracts/Market.sol\":8553:8610  (selectedBet.stake - selectedBet.matched) / (_odds - 100) */\n      tag_310\n      swap2\n      swap1\n      tag_286\n      jump\t// in\n    tag_310:\n        /* \"contracts/Market.sol\":8533:8610  uint offeredStake = (selectedBet.stake - selectedBet.matched) / (_odds - 100) */\n      swap1\n      pop\n        /* \"contracts/Market.sol\":8632:8651  offeredStake *= 100 */\n      tag_311\n        /* \"contracts/Market.sol\":8648:8651  100 */\n      0x64\n        /* \"contracts/Market.sol\":8533:8610  uint offeredStake = (selectedBet.stake - selectedBet.matched) / (_odds - 100) */\n      dup3\n        /* \"contracts/Market.sol\":8632:8651  offeredStake *= 100 */\n      tag_284\n      jump\t// in\n    tag_311:\n      swap1\n      pop\n        /* \"contracts/Market.sol\":8709:8774  _match(_stake, offeredStake, _odds, _side, betHash, selectedHash) */\n      tag_312\n        /* \"contracts/Market.sol\":8716:8722  _stake */\n      dup15\n        /* \"contracts/Market.sol\":8724:8736  offeredStake */\n      dup3\n        /* \"contracts/Market.sol\":8738:8743  _odds */\n      dup16\n        /* \"contracts/Market.sol\":8745:8750  _side */\n      dup16\n        /* \"contracts/Market.sol\":8752:8759  betHash */\n      dup14\n        /* \"contracts/Market.sol\":8761:8773  selectedHash */\n      dup9\n        /* \"contracts/Market.sol\":8709:8715  _match */\n      tag_313\n        /* \"contracts/Market.sol\":8709:8774  _match(_stake, offeredStake, _odds, _side, betHash, selectedHash) */\n      jump\t// in\n    tag_312:\n        /* \"contracts/Market.sol\":8694:8774  betterAmount = _match(_stake, offeredStake, _odds, _side, betHash, selectedHash) */\n      swap4\n      pop\n        /* \"contracts/Market.sol\":8315:8861  if(maxOdds >= _odds || (maxOdds > 0 && _instant)) {... */\n      pop\n      pop\n      pop\n      jump(tag_314)\n    tag_305:\n        /* \"contracts/Market.sol\":8837:8842  break */\n      pop\n      pop\n      pop\n      jump(tag_290)\n        /* \"contracts/Market.sol\":8315:8861  if(maxOdds >= _odds || (maxOdds > 0 && _instant)) {... */\n    tag_314:\n        /* \"contracts/Market.sol\":8878:8903  _remStake -= betterAmount */\n      tag_315\n        /* \"contracts/Market.sol\":8891:8903  betterAmount */\n      dup2\n        /* \"contracts/Market.sol\":8878:8903  _remStake -= betterAmount */\n      dup7\n      tag_180\n      jump\t// in\n    tag_315:\n      swap5\n      pop\n        /* \"contracts/Market.sol\":7747:8918  while(_remStake >= app.minStake()){... */\n      pop\n      pop\n      pop\n      jump(tag_289)\n    tag_290:\n        /* \"contracts/Market.sol\":7631:8928  if(bets.length > 0){... */\n      pop\n      pop\n    tag_288:\n        /* \"contracts/Market.sol\":8942:9010  BetCreated(msg.sender, address(this), betHash, _stake, _odds, _side) */\n      0x40\n      dup1\n      mload\n        /* \"contracts/Market.sol\":8953:8963  msg.sender */\n      caller\n        /* \"#utility.yul\":3820:3854   */\n      dup2\n      mstore\n        /* \"contracts/Market.sol\":8973:8977  this */\n      address\n        /* \"#utility.yul\":3885:3887   */\n      0x20\n        /* \"#utility.yul\":3870:3888   */\n      dup3\n      add\n        /* \"#utility.yul\":3863:3906   */\n      mstore\n        /* \"#utility.yul\":3922:3940   */\n      swap1\n      dup2\n      add\n        /* \"#utility.yul\":3915:3949   */\n      dup3\n      swap1\n      mstore\n        /* \"#utility.yul\":3980:3982   */\n      0x60\n        /* \"#utility.yul\":3965:3983   */\n      dup2\n      add\n        /* \"#utility.yul\":3958:3992   */\n      dup8\n      swap1\n      mstore\n        /* \"#utility.yul\":4023:4026   */\n      0x80\n        /* \"#utility.yul\":4008:4027   */\n      dup2\n      add\n        /* \"#utility.yul\":4001:4036   */\n      dup7\n      swap1\n      mstore\n        /* \"#utility.yul\":3800:3803   */\n      0xa0\n        /* \"#utility.yul\":4052:4071   */\n      dup2\n      add\n        /* \"#utility.yul\":4045:4080   */\n      dup6\n      swap1\n      mstore\n        /* \"contracts/Market.sol\":8942:9010  BetCreated(msg.sender, address(this), betHash, _stake, _odds, _side) */\n      0x618f358bb45538682ade624a4a1959053d9dabd20fe300508034b879681b37be\n      swap1\n        /* \"#utility.yul\":3769:3772   */\n      0xc0\n        /* \"#utility.yul\":3754:3773   */\n      add\n        /* \"contracts/Market.sol\":8942:9010  BetCreated(msg.sender, address(this), betHash, _stake, _odds, _side) */\n      mload(0x40)\n      dup1\n      swap2\n      sub\n      swap1\n      log1\n        /* \"contracts/Market.sol\":9027:9034  betHash */\n      swap7\n        /* \"contracts/Market.sol\":6454:9041  function addBet(... */\n      swap6\n      pop\n      pop\n      pop\n      pop\n      pop\n      pop\n      jump\t// out\n        /* \"contracts/Market.sol\":4705:5137  function setWinningSide(uint256 _winningSide)... */\n    tag_92:\n        /* \"contracts/Market.sol\":1089:1092  app */\n      sload(0x0a)\n        /* \"contracts/Market.sol\":1089:1119  app.getEventOwner(marketEvent) */\n      mload(0x40)\n      shl(0xe3, 0x1e558333)\n      dup2\n      mstore\n        /* \"contracts/Market.sol\":1107:1118  marketEvent */\n      immutable(\"0x535306ee4b42c92aecd0e71fca98572064f049c2babb2769faa3bbd87d67ec2d\")\n        /* \"contracts/Market.sol\":1089:1119  app.getEventOwner(marketEvent) */\n      0x04\n      dup3\n      add\n        /* \"#utility.yul\":5728:5753   */\n      mstore\n        /* \"contracts/Market.sol\":4819:4823  bool */\n      0x00\n      swap2\n      sub(shl(0xa0, 0x01), 0x01)\n        /* \"contracts/Market.sol\":1089:1092  app */\n      and\n      swap1\n        /* \"contracts/Market.sol\":1089:1106  app.getEventOwner */\n      0xf2ac1998\n      swap1\n        /* \"#utility.yul\":5701:5719   */\n      0x24\n      add\n        /* \"contracts/Market.sol\":1089:1119  app.getEventOwner(marketEvent) */\n      0x20\n      mload(0x40)\n      dup1\n      dup4\n      sub\n      dup2\n      dup7\n      dup1\n      extcodesize\n      iszero\n      dup1\n      iszero\n      tag_320\n      jumpi\n      0x00\n      dup1\n      revert\n    tag_320:\n      pop\n      gas\n      staticcall\n      iszero\n      dup1\n      iszero\n      tag_322\n      jumpi\n      returndatasize\n      0x00\n      dup1\n      returndatacopy\n      revert(0x00, returndatasize)\n    tag_322:\n      pop\n      pop\n      pop\n      pop\n      mload(0x40)\n      returndatasize\n      not(0x1f)\n      0x1f\n      dup3\n      add\n      and\n      dup3\n      add\n      dup1\n      0x40\n      mstore\n      pop\n      dup2\n      add\n      swap1\n      tag_323\n      swap2\n      swap1\n      tag_165\n      jump\t// in\n    tag_323:\n      sub(shl(0xa0, 0x01), 0x01)\n        /* \"contracts/Market.sol\":1075:1119  msg.sender == app.getEventOwner(marketEvent) */\n      and\n        /* \"contracts/Market.sol\":1075:1085  msg.sender */\n      caller\n      sub(shl(0xa0, 0x01), 0x01)\n        /* \"contracts/Market.sol\":1075:1119  msg.sender == app.getEventOwner(marketEvent) */\n      and\n      eq\n        /* \"contracts/Market.sol\":1075:1144  msg.sender == app.getEventOwner(marketEvent) || msg.sender == factory */\n      dup1\n      tag_324\n      jumpi\n      pop\n        /* \"contracts/Market.sol\":1137:1144  factory */\n      and(sub(shl(0xa0, 0x01), 0x01), sload(0x01))\n        /* \"contracts/Market.sol\":1123:1133  msg.sender */\n      caller\n        /* \"contracts/Market.sol\":1123:1144  msg.sender == factory */\n      eq\n        /* \"contracts/Market.sol\":1075:1144  msg.sender == app.getEventOwner(marketEvent) || msg.sender == factory */\n    tag_324:\n        /* \"contracts/Market.sol\":1054:1191  require(... */\n      tag_325\n      jumpi\n      mload(0x40)\n      shl(0xe5, 0x461bcd)\n      dup2\n      mstore\n      0x04\n      add\n      tag_106\n      swap1\n      tag_169\n      jump\t// in\n    tag_325:\n        /* \"contracts/Market.sol\":4856:4862  status */\n      sload(0x02)\n        /* \"contracts/Market.sol\":4856:4867  status == 0 */\n      iszero\n      dup1\n        /* \"contracts/Market.sol\":4856:4882  status == 0 || status == 1 */\n      tag_328\n      jumpi\n      pop\n        /* \"contracts/Market.sol\":4871:4877  status */\n      sload(0x02)\n        /* \"contracts/Market.sol\":4881:4882  1 */\n      0x01\n        /* \"contracts/Market.sol\":4871:4882  status == 1 */\n      eq\n        /* \"contracts/Market.sol\":4856:4882  status == 0 || status == 1 */\n    tag_328:\n        /* \"contracts/Market.sol\":4856:4897  status == 0 || status == 1 || status == 2 */\n      dup1\n      tag_329\n      jumpi\n      pop\n        /* \"contracts/Market.sol\":4886:4892  status */\n      sload(0x02)\n        /* \"contracts/Market.sol\":4896:4897  2 */\n      0x02\n        /* \"contracts/Market.sol\":4886:4897  status == 2 */\n      eq\n        /* \"contracts/Market.sol\":4856:4897  status == 0 || status == 1 || status == 2 */\n    tag_329:\n        /* \"contracts/Market.sol\":4856:4912  status == 0 || status == 1 || status == 2 || status == 4 */\n      dup1\n      tag_330\n      jumpi\n      pop\n        /* \"contracts/Market.sol\":4901:4907  status */\n      sload(0x02)\n        /* \"contracts/Market.sol\":4911:4912  4 */\n      0x04\n        /* \"contracts/Market.sol\":4901:4912  status == 4 */\n      eq\n        /* \"contracts/Market.sol\":4856:4912  status == 0 || status == 1 || status == 2 || status == 4 */\n    tag_330:\n        /* \"contracts/Market.sol\":4855:4981  (status == 0 || status == 1 || status == 2 || status == 4)... */\n      dup1\n      iszero\n      tag_332\n      jumpi\n      pop\n        /* \"contracts/Market.sol\":4942:4954  _winningSide */\n      dup2\n        /* \"contracts/Market.sol\":4958:4959  1 */\n      0x01\n        /* \"contracts/Market.sol\":4942:4959  _winningSide == 1 */\n      eq\n        /* \"contracts/Market.sol\":4942:4980  _winningSide == 1 || _winningSide == 2 */\n      dup1\n      tag_332\n      jumpi\n      pop\n        /* \"contracts/Market.sol\":4963:4975  _winningSide */\n      dup2\n        /* \"contracts/Market.sol\":4979:4980  2 */\n      0x02\n        /* \"contracts/Market.sol\":4963:4980  _winningSide == 2 */\n      eq\n        /* \"contracts/Market.sol\":4942:4980  _winningSide == 1 || _winningSide == 2 */\n    tag_332:\n        /* \"contracts/Market.sol\":4839:5122  if(... */\n      iszero\n      tag_196\n      jumpi\n      pop\n        /* \"contracts/Market.sol\":5014:5020  status */\n      0x02\n        /* \"contracts/Market.sol\":5014:5035  status = _winningSide */\n      sstore\n        /* \"contracts/Market.sol\":5056:5060  true */\n      0x01\n      swap1\n        /* \"contracts/Market.sol\":5204:5615  function settle(uint256 _winningSide)... */\n      jump\t// out\n        /* \"contracts/Market.sol\":5621:5846  function cancel() external override onlyFactory returns(bool) ... */\n    tag_95:\n        /* \"contracts/Market.sol\":1089:1092  app */\n      sload(0x0a)\n        /* \"contracts/Market.sol\":1089:1119  app.getEventOwner(marketEvent) */\n      mload(0x40)\n      shl(0xe3, 0x1e558333)\n      dup2\n      mstore\n        /* \"contracts/Market.sol\":1107:1118  marketEvent */\n      immutable(\"0x535306ee4b42c92aecd0e71fca98572064f049c2babb2769faa3bbd87d67ec2d\")\n        /* \"contracts/Market.sol\":1089:1119  app.getEventOwner(marketEvent) */\n      0x04\n      dup3\n      add\n        /* \"#utility.yul\":5728:5753   */\n      mstore\n        /* \"contracts/Market.sol\":5677:5681  bool */\n      0x00\n      swap2\n      sub(shl(0xa0, 0x01), 0x01)\n        /* \"contracts/Market.sol\":1089:1092  app */\n      and\n      swap1\n        /* \"contracts/Market.sol\":1089:1106  app.getEventOwner */\n      0xf2ac1998\n      swap1\n        /* \"#utility.yul\":5701:5719   */\n      0x24\n      add\n        /* \"contracts/Market.sol\":1089:1119  app.getEventOwner(marketEvent) */\n      0x20\n      mload(0x40)\n      dup1\n      dup4\n      sub\n      dup2\n      dup7\n      dup1\n      extcodesize\n      iszero\n      dup1\n      iszero\n      tag_337\n      jumpi\n      0x00\n      dup1\n      revert\n    tag_337:\n      pop\n      gas\n      staticcall\n      iszero\n      dup1\n      iszero\n      tag_339\n      jumpi\n      returndatasize\n      0x00\n      dup1\n      returndatacopy\n      revert(0x00, returndatasize)\n    tag_339:\n      pop\n      pop\n      pop\n      pop\n      mload(0x40)\n      returndatasize\n      not(0x1f)\n      0x1f\n      dup3\n      add\n      and\n      dup3\n      add\n      dup1\n      0x40\n      mstore\n      pop\n      dup2\n      add\n      swap1\n      tag_340\n      swap2\n      swap1\n      tag_165\n      jump\t// in\n    tag_340:\n      sub(shl(0xa0, 0x01), 0x01)\n        /* \"contracts/Market.sol\":1075:1119  msg.sender == app.getEventOwner(marketEvent) */\n      and\n        /* \"contracts/Market.sol\":1075:1085  msg.sender */\n      caller\n      sub(shl(0xa0, 0x01), 0x01)\n        /* \"contracts/Market.sol\":1075:1119  msg.sender == app.getEventOwner(marketEvent) */\n      and\n      eq\n        /* \"contracts/Market.sol\":1075:1144  msg.sender == app.getEventOwner(marketEvent) || msg.sender == factory */\n      dup1\n      tag_341\n      jumpi\n      pop\n        /* \"contracts/Market.sol\":1137:1144  factory */\n      and(sub(shl(0xa0, 0x01), 0x01), sload(0x01))\n        /* \"contracts/Market.sol\":1123:1133  msg.sender */\n      caller\n        /* \"contracts/Market.sol\":1123:1144  msg.sender == factory */\n      eq\n        /* \"contracts/Market.sol\":1075:1144  msg.sender == app.getEventOwner(marketEvent) || msg.sender == factory */\n    tag_341:\n        /* \"contracts/Market.sol\":1054:1191  require(... */\n      tag_342\n      jumpi\n      mload(0x40)\n      shl(0xe5, 0x461bcd)\n      dup2\n      mstore\n      0x04\n      add\n      tag_106\n      swap1\n      tag_169\n      jump\t// in\n    tag_342:\n        /* \"contracts/Market.sol\":5702:5708  status */\n      sload(0x02)\n        /* \"contracts/Market.sol\":5702:5713  status == 0 */\n      iszero\n      dup1\n        /* \"contracts/Market.sol\":5702:5728  status == 0 || status == 4 */\n      tag_345\n      jumpi\n      pop\n        /* \"contracts/Market.sol\":5717:5723  status */\n      sload(0x02)\n        /* \"contracts/Market.sol\":5727:5728  4 */\n      0x04\n        /* \"contracts/Market.sol\":5717:5728  status == 4 */\n      eq\n        /* \"contracts/Market.sol\":5702:5728  status == 0 || status == 4 */\n    tag_345:\n        /* \"contracts/Market.sol\":5699:5840  if(status == 0 || status == 4){... */\n      iszero\n      tag_171\n      jumpi\n      pop\n        /* \"contracts/Market.sol\":5752:5753  3 */\n      0x03\n        /* \"contracts/Market.sol\":5743:5749  status */\n      0x02\n        /* \"contracts/Market.sol\":5743:5753  status = 3 */\n      sstore\n        /* \"contracts/Market.sol\":5774:5778  true */\n      0x01\n        /* \"contracts/Market.sol\":6241:6448  function stopNewBet() external override onlyFactory returns(bool){... */\n      swap1\n      jump\t// out\n        /* \"contracts/Market.sol\":10438:11918  function _cancelBetPairs(bytes32 _bet) private returns(bool) {... */\n    tag_111:\n        /* \"contracts/Market.sol\":10493:10497  bool */\n      0x00\n        /* \"contracts/Market.sol\":10539:10553  betsInfo[_bet] */\n      dup2\n      dup2\n      mstore\n        /* \"contracts/Market.sol\":10539:10547  betsInfo */\n      0x06\n        /* \"contracts/Market.sol\":10539:10553  betsInfo[_bet] */\n      0x20\n      swap1\n      dup2\n      mstore\n      0x40\n      dup1\n      dup4\n      keccak256\n        /* \"contracts/Market.sol\":10509:10553  Struct.MarketBet memory bet = betsInfo[_bet] */\n      dup2\n      mload\n      0xc0\n      dup2\n      add\n      dup4\n      mstore\n      dup2\n      sload\n      sub(shl(0xa0, 0x01), 0x01)\n      swap1\n      dup2\n      and\n      dup3\n      mstore\n      0x01\n      dup4\n      add\n      sload\n      and\n      dup2\n      dup6\n      add\n      mstore\n      0x02\n      dup3\n      add\n      sload\n      dup2\n      dup5\n      add\n      mstore\n      0x03\n      dup3\n      add\n      sload\n      0x60\n      dup3\n      add\n      mstore\n      0x04\n      dup3\n      add\n      sload\n      0x80\n      dup3\n      add\n      mstore\n      0x05\n      swap1\n      swap2\n      add\n      sload\n      0xa0\n      dup3\n      add\n      mstore\n        /* \"contracts/Market.sol\":10589:10603  betPairs[_bet] */\n      dup5\n      dup5\n      mstore\n        /* \"contracts/Market.sol\":10589:10597  betPairs */\n      0x09\n        /* \"contracts/Market.sol\":10589:10603  betPairs[_bet] */\n      dup4\n      mstore\n      dup2\n      dup5\n      keccak256\n        /* \"contracts/Market.sol\":10563:10603  bytes32[] memory _pairs = betPairs[_bet] */\n      dup1\n      sload\n      dup4\n      mload\n      dup2\n      dup7\n      mul\n      dup2\n      add\n      dup7\n      add\n      swap1\n      swap5\n      mstore\n      dup1\n      dup5\n      mstore\n        /* \"contracts/Market.sol\":10509:10553  Struct.MarketBet memory bet = betsInfo[_bet] */\n      swap2\n      swap4\n        /* \"contracts/Market.sol\":10493:10497  bool */\n      dup6\n      swap4\n        /* \"contracts/Market.sol\":10563:10603  bytes32[] memory _pairs = betPairs[_bet] */\n      swap3\n      swap1\n      dup4\n      add\n        /* \"contracts/Market.sol\":10589:10603  betPairs[_bet] */\n      dup3\n        /* \"contracts/Market.sol\":10563:10603  bytes32[] memory _pairs = betPairs[_bet] */\n      dup3\n      dup1\n      iszero\n      tag_350\n      jumpi\n      0x20\n      mul\n      dup3\n      add\n      swap2\n      swap1\n      0x00\n      mstore\n      keccak256(0x00, 0x20)\n      swap1\n    tag_351:\n      dup2\n      sload\n      dup2\n      mstore\n      0x20\n      add\n      swap1\n      0x01\n      add\n      swap1\n      dup1\n      dup4\n      gt\n      tag_351\n      jumpi\n    tag_350:\n      pop\n      pop\n        /* \"contracts/Market.sol\":10632:10645  _pairs.length */\n      dup4\n      mload\n        /* \"contracts/Market.sol\":10563:10603  bytes32[] memory _pairs = betPairs[_bet] */\n      swap4\n      swap5\n      pop\n        /* \"contracts/Market.sol\":10613:10629  uint pairsLength */\n      0x00\n      swap3\n      pop\n      pop\n      pop\n        /* \"contracts/Market.sol\":10655:11891  for(uint i = 0; i < pairsLength; i++){... */\n    tag_352:\n        /* \"contracts/Market.sol\":10675:10686  pairsLength */\n      dup2\n        /* \"contracts/Market.sol\":10671:10672  i */\n      dup2\n        /* \"contracts/Market.sol\":10671:10686  i < pairsLength */\n      lt\n        /* \"contracts/Market.sol\":10655:11891  for(uint i = 0; i < pairsLength; i++){... */\n      iszero\n      tag_353\n      jumpi\n        /* \"contracts/Market.sol\":10709:10718  pairsInfo */\n      0x08\n        /* \"contracts/Market.sol\":10709:10729  pairsInfo[_pairs[i]] */\n      0x00\n        /* \"contracts/Market.sol\":10719:10725  _pairs */\n      dup5\n        /* \"contracts/Market.sol\":10726:10727  i */\n      dup4\n        /* \"contracts/Market.sol\":10719:10728  _pairs[i] */\n      dup2\n      mload\n      dup2\n      lt\n      tag_355\n      jumpi\n      mstore(0x00, shl(0xe0, 0x4e487b71))\n      mstore(0x04, 0x32)\n      revert(0x00, 0x24)\n    tag_355:\n      0x20\n      swap1\n      dup2\n      mul\n      swap2\n      swap1\n      swap2\n      add\n      dup2\n      add\n      mload\n        /* \"contracts/Market.sol\":10709:10729  pairsInfo[_pairs[i]] */\n      dup3\n      mstore\n      dup2\n      add\n      swap2\n      swap1\n      swap2\n      mstore\n      0x40\n      add\n      0x00\n      keccak256\n        /* \"contracts/Market.sol\":10709:10737  pairsInfo[_pairs[i]].settled */\n      0x04\n      add\n      sload\n      0xff\n      and\n        /* \"contracts/Market.sol\":10706:10779  if(pairsInfo[_pairs[i]].settled){... */\n      iszero\n      tag_356\n      jumpi\n        /* \"contracts/Market.sol\":10756:10764  continue */\n      jump(tag_354)\n        /* \"contracts/Market.sol\":10706:10779  if(pairsInfo[_pairs[i]].settled){... */\n    tag_356:\n        /* \"contracts/Market.sol\":10792:10814  bytes32 counterBetHash */\n      0x00\n        /* \"contracts/Market.sol\":10828:10849  uint256 counterAmount */\n      dup1\n        /* \"contracts/Market.sol\":10863:10881  uint256 thisAmount */\n      0x00\n        /* \"contracts/Market.sol\":10895:10916  address counterBetter */\n      dup1\n        /* \"contracts/Market.sol\":10933:10936  bet */\n      dup8\n        /* \"contracts/Market.sol\":10933:10941  bet.side */\n      0xa0\n      add\n      mload\n        /* \"contracts/Market.sol\":10945:10946  1 */\n      0x01\n        /* \"contracts/Market.sol\":10933:10946  bet.side == 1 */\n      eq\n        /* \"contracts/Market.sol\":10930:11384  if(bet.side == 1) {... */\n      iszero\n      tag_357\n      jumpi\n        /* \"contracts/Market.sol\":10979:10988  pairsInfo */\n      0x08\n        /* \"contracts/Market.sol\":10979:10999  pairsInfo[_pairs[i]] */\n      0x00\n        /* \"contracts/Market.sol\":10989:10995  _pairs */\n      dup9\n        /* \"contracts/Market.sol\":10996:10997  i */\n      dup8\n        /* \"contracts/Market.sol\":10989:10998  _pairs[i] */\n      dup2\n      mload\n      dup2\n      lt\n      tag_358\n      jumpi\n      mstore(0x00, shl(0xe0, 0x4e487b71))\n      mstore(0x04, 0x32)\n      revert(0x00, 0x24)\n    tag_358:\n      0x20\n      mul\n      0x20\n      add\n      add\n      mload\n        /* \"contracts/Market.sol\":10979:10999  pairsInfo[_pairs[i]] */\n      dup2\n      mstore\n      0x20\n      add\n      swap1\n      dup2\n      mstore\n      0x20\n      add\n      0x00\n      keccak256\n        /* \"contracts/Market.sol\":10979:11007  pairsInfo[_pairs[i]].amountA */\n      0x02\n      add\n      sload\n        /* \"contracts/Market.sol\":10966:11007  thisAmount = pairsInfo[_pairs[i]].amountA */\n      swap2\n      pop\n        /* \"contracts/Market.sol\":11042:11051  pairsInfo */\n      0x08\n        /* \"contracts/Market.sol\":11042:11062  pairsInfo[_pairs[i]] */\n      0x00\n        /* \"contracts/Market.sol\":11052:11058  _pairs */\n      dup9\n        /* \"contracts/Market.sol\":11059:11060  i */\n      dup8\n        /* \"contracts/Market.sol\":11052:11061  _pairs[i] */\n      dup2\n      mload\n      dup2\n      lt\n      tag_359\n      jumpi\n      mstore(0x00, shl(0xe0, 0x4e487b71))\n      mstore(0x04, 0x32)\n      revert(0x00, 0x24)\n    tag_359:\n      0x20\n      mul\n      0x20\n      add\n      add\n      mload\n        /* \"contracts/Market.sol\":11042:11062  pairsInfo[_pairs[i]] */\n      dup2\n      mstore\n      0x20\n      add\n      swap1\n      dup2\n      mstore\n      0x20\n      add\n      0x00\n      keccak256\n        /* \"contracts/Market.sol\":11042:11071  pairsInfo[_pairs[i]].betHashB */\n      0x01\n      add\n      sload\n        /* \"contracts/Market.sol\":11025:11071  counterBetHash = pairsInfo[_pairs[i]].betHashB */\n      swap4\n      pop\n        /* \"contracts/Market.sol\":11105:11114  pairsInfo */\n      0x08\n        /* \"contracts/Market.sol\":11105:11125  pairsInfo[_pairs[i]] */\n      0x00\n        /* \"contracts/Market.sol\":11115:11121  _pairs */\n      dup9\n        /* \"contracts/Market.sol\":11122:11123  i */\n      dup8\n        /* \"contracts/Market.sol\":11115:11124  _pairs[i] */\n      dup2\n      mload\n      dup2\n      lt\n      tag_360\n      jumpi\n      mstore(0x00, shl(0xe0, 0x4e487b71))\n      mstore(0x04, 0x32)\n      revert(0x00, 0x24)\n    tag_360:\n      0x20\n      mul\n      0x20\n      add\n      add\n      mload\n        /* \"contracts/Market.sol\":11105:11125  pairsInfo[_pairs[i]] */\n      dup2\n      mstore\n      0x20\n      add\n      swap1\n      dup2\n      mstore\n      0x20\n      add\n      0x00\n      keccak256\n        /* \"contracts/Market.sol\":11105:11133  pairsInfo[_pairs[i]].amountB */\n      0x03\n      add\n      sload\n        /* \"contracts/Market.sol\":11089:11133  counterAmount = pairsInfo[_pairs[i]].amountB */\n      swap3\n      pop\n        /* \"contracts/Market.sol\":10930:11384  if(bet.side == 1) {... */\n      jump(tag_362)\n    tag_357:\n        /* \"contracts/Market.sol\":11169:11172  bet */\n      dup8\n        /* \"contracts/Market.sol\":11169:11177  bet.side */\n      0xa0\n      add\n      mload\n        /* \"contracts/Market.sol\":11181:11182  2 */\n      0x02\n        /* \"contracts/Market.sol\":11169:11182  bet.side == 2 */\n      eq\n        /* \"contracts/Market.sol\":11166:11384  if(bet.side == 2) {... */\n      iszero\n      tag_362\n      jumpi\n        /* \"contracts/Market.sol\":11215:11224  pairsInfo */\n      0x08\n        /* \"contracts/Market.sol\":11215:11235  pairsInfo[_pairs[i]] */\n      0x00\n        /* \"contracts/Market.sol\":11225:11231  _pairs */\n      dup9\n        /* \"contracts/Market.sol\":11232:11233  i */\n      dup8\n        /* \"contracts/Market.sol\":11225:11234  _pairs[i] */\n      dup2\n      mload\n      dup2\n      lt\n      tag_363\n      jumpi\n      mstore(0x00, shl(0xe0, 0x4e487b71))\n      mstore(0x04, 0x32)\n      revert(0x00, 0x24)\n    tag_363:\n      0x20\n      mul\n      0x20\n      add\n      add\n      mload\n        /* \"contracts/Market.sol\":11215:11235  pairsInfo[_pairs[i]] */\n      dup2\n      mstore\n      0x20\n      add\n      swap1\n      dup2\n      mstore\n      0x20\n      add\n      0x00\n      keccak256\n        /* \"contracts/Market.sol\":11215:11243  pairsInfo[_pairs[i]].amountB */\n      0x03\n      add\n      sload\n        /* \"contracts/Market.sol\":11202:11243  thisAmount = pairsInfo[_pairs[i]].amountB */\n      swap2\n      pop\n        /* \"contracts/Market.sol\":11278:11287  pairsInfo */\n      0x08\n        /* \"contracts/Market.sol\":11278:11298  pairsInfo[_pairs[i]] */\n      0x00\n        /* \"contracts/Market.sol\":11288:11294  _pairs */\n      dup9\n        /* \"contracts/Market.sol\":11295:11296  i */\n      dup8\n        /* \"contracts/Market.sol\":11288:11297  _pairs[i] */\n      dup2\n      mload\n      dup2\n      lt\n      tag_364\n      jumpi\n      mstore(0x00, shl(0xe0, 0x4e487b71))\n      mstore(0x04, 0x32)\n      revert(0x00, 0x24)\n    tag_364:\n      0x20\n      mul\n      0x20\n      add\n      add\n      mload\n        /* \"contracts/Market.sol\":11278:11298  pairsInfo[_pairs[i]] */\n      dup2\n      mstore\n      0x20\n      add\n      swap1\n      dup2\n      mstore\n      0x20\n      add\n      0x00\n      keccak256\n        /* \"contracts/Market.sol\":11278:11307  pairsInfo[_pairs[i]].betHashA */\n      0x00\n      add\n      sload\n        /* \"contracts/Market.sol\":11261:11307  counterBetHash = pairsInfo[_pairs[i]].betHashA */\n      swap4\n      pop\n        /* \"contracts/Market.sol\":11341:11350  pairsInfo */\n      0x08\n        /* \"contracts/Market.sol\":11341:11361  pairsInfo[_pairs[i]] */\n      0x00\n        /* \"contracts/Market.sol\":11351:11357  _pairs */\n      dup9\n        /* \"contracts/Market.sol\":11358:11359  i */\n      dup8\n        /* \"contracts/Market.sol\":11351:11360  _pairs[i] */\n      dup2\n      mload\n      dup2\n      lt\n      tag_365\n      jumpi\n      mstore(0x00, shl(0xe0, 0x4e487b71))\n      mstore(0x04, 0x32)\n      revert(0x00, 0x24)\n    tag_365:\n      0x20\n      mul\n      0x20\n      add\n      add\n      mload\n        /* \"contracts/Market.sol\":11341:11361  pairsInfo[_pairs[i]] */\n      dup2\n      mstore\n      0x20\n      add\n      swap1\n      dup2\n      mstore\n      0x20\n      add\n      0x00\n      keccak256\n        /* \"contracts/Market.sol\":11341:11369  pairsInfo[_pairs[i]].amountA */\n      0x02\n      add\n      sload\n        /* \"contracts/Market.sol\":11325:11369  counterAmount = pairsInfo[_pairs[i]].amountA */\n      swap3\n      pop\n        /* \"contracts/Market.sol\":11166:11384  if(bet.side == 2) {... */\n    tag_362:\n      pop\n        /* \"contracts/Market.sol\":11413:11437  betsInfo[counterBetHash] */\n      0x00\n      dup4\n      dup2\n      mstore\n        /* \"contracts/Market.sol\":11413:11421  betsInfo */\n      0x06\n        /* \"contracts/Market.sol\":11413:11437  betsInfo[counterBetHash] */\n      0x20\n      swap1\n      dup2\n      mstore\n      0x40\n      swap2\n      dup3\n      swap1\n      keccak256\n        /* \"contracts/Market.sol\":11413:11444  betsInfo[counterBetHash].better */\n      sload\n        /* \"contracts/Market.sol\":11497:11500  app */\n      sload(0x0a)\n        /* \"contracts/Market.sol\":11497:11506  app.vig() */\n      dup4\n      mload\n      shl(0xe0, 0x55c4a8bf)\n      dup2\n      mstore\n      swap4\n      mload\n      sub(shl(0xa0, 0x01), 0x01)\n        /* \"contracts/Market.sol\":11413:11444  betsInfo[counterBetHash].better */\n      swap3\n      dup4\n      and\n      swap5\n        /* \"contracts/Market.sol\":11510:11513  100 */\n      0x64\n      swap5\n        /* \"contracts/Market.sol\":11497:11500  app */\n      swap4\n      swap1\n      swap3\n      and\n      swap3\n        /* \"contracts/Market.sol\":11497:11504  app.vig */\n      0x55c4a8bf\n      swap3\n        /* \"contracts/Market.sol\":11497:11506  app.vig() */\n      0x04\n      dup1\n      dup3\n      add\n      swap4\n      swap2\n      dup3\n      swap1\n      sub\n      add\n      dup2\n        /* \"contracts/Market.sol\":11497:11500  app */\n      dup7\n        /* \"contracts/Market.sol\":11497:11506  app.vig() */\n      dup1\n      extcodesize\n      iszero\n      dup1\n      iszero\n      tag_366\n      jumpi\n      0x00\n      dup1\n      revert\n    tag_366:\n      pop\n      gas\n      staticcall\n      iszero\n      dup1\n      iszero\n      tag_368\n      jumpi\n      returndatasize\n      0x00\n      dup1\n      returndatacopy\n      revert(0x00, returndatasize)\n    tag_368:\n      pop\n      pop\n      pop\n      pop\n      mload(0x40)\n      returndatasize\n      not(0x1f)\n      0x1f\n      dup3\n      add\n      and\n      dup3\n      add\n      dup1\n      0x40\n      mstore\n      pop\n      dup2\n      add\n      swap1\n      tag_369\n      swap2\n      swap1\n      tag_130\n      jump\t// in\n    tag_369:\n        /* \"contracts/Market.sol\":11491:11506  100 - app.vig() */\n      tag_370\n      swap1\n        /* \"contracts/Market.sol\":11491:11494  100 */\n      0x64\n        /* \"contracts/Market.sol\":11491:11506  100 - app.vig() */\n      tag_180\n      jump\t// in\n    tag_370:\n        /* \"contracts/Market.sol\":11477:11507  thisAmount * (100 - app.vig()) */\n      tag_371\n      swap1\n        /* \"contracts/Market.sol\":11477:11487  thisAmount */\n      dup5\n        /* \"contracts/Market.sol\":11477:11507  thisAmount * (100 - app.vig()) */\n      tag_284\n      jump\t// in\n    tag_371:\n        /* \"contracts/Market.sol\":11477:11513  thisAmount * (100 - app.vig()) / 100 */\n      tag_372\n      swap2\n      swap1\n      tag_286\n      jump\t// in\n    tag_372:\n        /* \"contracts/Market.sol\":11462:11472  bet.better */\n      dup9\n      mload\n      sub(shl(0xa0, 0x01), 0x01)\n        /* \"contracts/Market.sol\":11458:11473  bal[bet.better] */\n      and\n      0x00\n      swap1\n      dup2\n      mstore\n        /* \"contracts/Market.sol\":11458:11461  bal */\n      0x05\n        /* \"contracts/Market.sol\":11458:11473  bal[bet.better] */\n      0x20\n      mstore\n      0x40\n      dup2\n      keccak256\n        /* \"contracts/Market.sol\":11458:11513  bal[bet.better] += thisAmount * (100 - app.vig()) / 100 */\n      dup1\n      sload\n        /* \"contracts/Market.sol\":11458:11473  bal[bet.better] */\n      swap1\n      swap2\n      swap1\n        /* \"contracts/Market.sol\":11458:11513  bal[bet.better] += thisAmount * (100 - app.vig()) / 100 */\n      tag_373\n      swap1\n      dup5\n      swap1\n      tag_182\n      jump\t// in\n    tag_373:\n      swap1\n      swap2\n      sstore\n      pop\n      pop\n        /* \"contracts/Market.sol\":11527:11551  betsInfo[counterBetHash] */\n      0x00\n      dup5\n      dup2\n      mstore\n        /* \"contracts/Market.sol\":11527:11535  betsInfo */\n      0x06\n        /* \"contracts/Market.sol\":11527:11551  betsInfo[counterBetHash] */\n      0x20\n      mstore\n      0x40\n      dup2\n      keccak256\n        /* \"contracts/Market.sol\":11527:11559  betsInfo[counterBetHash].matched */\n      0x03\n      add\n        /* \"contracts/Market.sol\":11527:11576  betsInfo[counterBetHash].matched -= counterAmount */\n      dup1\n      sload\n        /* \"contracts/Market.sol\":11563:11576  counterAmount */\n      dup6\n      swap3\n        /* \"contracts/Market.sol\":11527:11551  betsInfo[counterBetHash] */\n      swap1\n        /* \"contracts/Market.sol\":11527:11576  betsInfo[counterBetHash].matched -= counterAmount */\n      tag_374\n      swap1\n        /* \"contracts/Market.sol\":11563:11576  counterAmount */\n      dup5\n      swap1\n        /* \"contracts/Market.sol\":11527:11576  betsInfo[counterBetHash].matched -= counterAmount */\n      tag_180\n      jump\t// in\n    tag_374:\n      swap3\n      pop\n      pop\n      dup2\n      swap1\n      sstore\n      pop\n        /* \"contracts/Market.sol\":11590:11607  uint256 vigAmount */\n      0x00\n        /* \"contracts/Market.sol\":11635:11638  100 */\n      0x64\n        /* \"contracts/Market.sol\":11623:11626  app */\n      0x0a\n      0x00\n      swap1\n      sload\n      swap1\n      0x0100\n      exp\n      swap1\n      div\n      sub(shl(0xa0, 0x01), 0x01)\n      and\n      sub(shl(0xa0, 0x01), 0x01)\n        /* \"contracts/Market.sol\":11623:11630  app.vig */\n      and\n      0x55c4a8bf\n        /* \"contracts/Market.sol\":11623:11632  app.vig() */\n      mload(0x40)\n      dup2\n      0xffffffff\n      and\n      0xe0\n      shl\n      dup2\n      mstore\n      0x04\n      add\n      0x20\n      mload(0x40)\n      dup1\n      dup4\n      sub\n      dup2\n      dup7\n      dup1\n      extcodesize\n      iszero\n      dup1\n      iszero\n      tag_375\n      jumpi\n      0x00\n      dup1\n      revert\n    tag_375:\n      pop\n      gas\n      staticcall\n      iszero\n      dup1\n      iszero\n      tag_377\n      jumpi\n      returndatasize\n      0x00\n      dup1\n      returndatacopy\n      revert(0x00, returndatasize)\n    tag_377:\n      pop\n      pop\n      pop\n      pop\n      mload(0x40)\n      returndatasize\n      not(0x1f)\n      0x1f\n      dup3\n      add\n      and\n      dup3\n      add\n      dup1\n      0x40\n      mstore\n      pop\n      dup2\n      add\n      swap1\n      tag_378\n      swap2\n      swap1\n      tag_130\n      jump\t// in\n    tag_378:\n        /* \"contracts/Market.sol\":11610:11632  thisAmount * app.vig() */\n      tag_379\n      swap1\n        /* \"contracts/Market.sol\":11610:11620  thisAmount */\n      dup6\n        /* \"contracts/Market.sol\":11610:11632  thisAmount * app.vig() */\n      tag_284\n      jump\t// in\n    tag_379:\n        /* \"contracts/Market.sol\":11610:11638  thisAmount * app.vig() / 100 */\n      tag_380\n      swap2\n      swap1\n      tag_286\n      jump\t// in\n    tag_380:\n        /* \"contracts/Market.sol\":11590:11638  uint256 vigAmount = thisAmount * app.vig() / 100 */\n      swap1\n      pop\n        /* \"contracts/Market.sol\":11700:11703  100 */\n      0x64\n        /* \"contracts/Market.sol\":11687:11690  app */\n      0x0a\n      0x00\n      swap1\n      sload\n      swap1\n      0x0100\n      exp\n      swap1\n      div\n      sub(shl(0xa0, 0x01), 0x01)\n      and\n      sub(shl(0xa0, 0x01), 0x01)\n        /* \"contracts/Market.sol\":11687:11695  app.hVig */\n      and\n      0x6a0ccd9d\n        /* \"contracts/Market.sol\":11687:11697  app.hVig() */\n      mload(0x40)\n      dup2\n      0xffffffff\n      and\n      0xe0\n      shl\n      dup2\n      mstore\n      0x04\n      add\n      0x20\n      mload(0x40)\n      dup1\n      dup4\n      sub\n      dup2\n      dup7\n      dup1\n      extcodesize\n      iszero\n      dup1\n      iszero\n      tag_381\n      jumpi\n      0x00\n      dup1\n      revert\n    tag_381:\n      pop\n      gas\n      staticcall\n      iszero\n      dup1\n      iszero\n      tag_383\n      jumpi\n      returndatasize\n      0x00\n      dup1\n      returndatacopy\n      revert(0x00, returndatasize)\n    tag_383:\n      pop\n      pop\n      pop\n      pop\n      mload(0x40)\n      returndatasize\n      not(0x1f)\n      0x1f\n      dup3\n      add\n      and\n      dup3\n      add\n      dup1\n      0x40\n      mstore\n      pop\n      dup2\n      add\n      swap1\n      tag_384\n      swap2\n      swap1\n      tag_130\n      jump\t// in\n    tag_384:\n        /* \"contracts/Market.sol\":11675:11697  vigAmount * app.hVig() */\n      tag_385\n      swap1\n        /* \"contracts/Market.sol\":11675:11684  vigAmount */\n      dup4\n        /* \"contracts/Market.sol\":11675:11697  vigAmount * app.hVig() */\n      tag_284\n      jump\t// in\n    tag_385:\n        /* \"contracts/Market.sol\":11675:11703  vigAmount * app.hVig() / 100 */\n      tag_386\n      swap2\n      swap1\n      tag_286\n      jump\t// in\n    tag_386:\n        /* \"contracts/Market.sol\":11652:11655  bal */\n      0x05\n        /* \"contracts/Market.sol\":11652:11671  bal[app.holdAddr()] */\n      0x00\n        /* \"contracts/Market.sol\":11656:11659  app */\n      0x0a\n      0x00\n      swap1\n      sload\n      swap1\n      0x0100\n      exp\n      swap1\n      div\n      sub(shl(0xa0, 0x01), 0x01)\n      and\n      sub(shl(0xa0, 0x01), 0x01)\n        /* \"contracts/Market.sol\":11656:11668  app.holdAddr */\n      and\n      0xb7640a54\n        /* \"contracts/Market.sol\":11656:11670  app.holdAddr() */\n      mload(0x40)\n      dup2\n      0xffffffff\n      and\n      0xe0\n      shl\n      dup2\n      mstore\n      0x04\n      add\n      0x20\n      mload(0x40)\n      dup1\n      dup4\n      sub\n      dup2\n      dup7\n      dup1\n      extcodesize\n      iszero\n      dup1\n      iszero\n      tag_387\n      jumpi\n      0x00\n      dup1\n      revert\n    tag_387:\n      pop\n      gas\n      staticcall\n      iszero\n      dup1\n      iszero\n      tag_389\n      jumpi\n      returndatasize\n      0x00\n      dup1\n      returndatacopy\n      revert(0x00, returndatasize)\n    tag_389:\n      pop\n      pop\n      pop\n      pop\n      mload(0x40)\n      returndatasize\n      not(0x1f)\n      0x1f\n      dup3\n      add\n      and\n      dup3\n      add\n      dup1\n      0x40\n      mstore\n      pop\n      dup2\n      add\n      swap1\n      tag_390\n      swap2\n      swap1\n      tag_165\n      jump\t// in\n    tag_390:\n      sub(shl(0xa0, 0x01), 0x01)\n        /* \"contracts/Market.sol\":11652:11671  bal[app.holdAddr()] */\n      and\n      sub(shl(0xa0, 0x01), 0x01)\n      and\n      dup2\n      mstore\n      0x20\n      add\n      swap1\n      dup2\n      mstore\n      0x20\n      add\n      0x00\n      keccak256\n      0x00\n        /* \"contracts/Market.sol\":11652:11703  bal[app.holdAddr()] += vigAmount * app.hVig() / 100 */\n      dup3\n      dup3\n      sload\n      tag_391\n      swap2\n      swap1\n      tag_182\n      jump\t// in\n    tag_391:\n      swap1\n      swap2\n      sstore\n      pop\n      pop\n        /* \"contracts/Market.sol\":11751:11754  app */\n      sload(0x0a)\n        /* \"contracts/Market.sol\":11751:11761  app.eVig() */\n      0x40\n      dup1\n      mload\n      shl(0xe0, 0x28576d45)\n      dup2\n      mstore\n      swap1\n      mload\n        /* \"contracts/Market.sol\":11764:11767  100 */\n      0x64\n      swap3\n      sub(shl(0xa0, 0x01), 0x01)\n        /* \"contracts/Market.sol\":11751:11754  app */\n      and\n      swap2\n        /* \"contracts/Market.sol\":11751:11759  app.eVig */\n      0x28576d45\n      swap2\n        /* \"contracts/Market.sol\":11751:11761  app.eVig() */\n      0x04\n      dup1\n      dup4\n      add\n      swap3\n      0x20\n      swap3\n      swap2\n      swap1\n      dup3\n      swap1\n      sub\n      add\n      dup2\n        /* \"contracts/Market.sol\":11751:11754  app */\n      dup7\n        /* \"contracts/Market.sol\":11751:11761  app.eVig() */\n      dup1\n      extcodesize\n      iszero\n      dup1\n      iszero\n      tag_392\n      jumpi\n      0x00\n      dup1\n      revert\n    tag_392:\n      pop\n      gas\n      staticcall\n      iszero\n      dup1\n      iszero\n      tag_394\n      jumpi\n      returndatasize\n      0x00\n      dup1\n      returndatacopy\n      revert(0x00, returndatasize)\n    tag_394:\n      pop\n      pop\n      pop\n      pop\n      mload(0x40)\n      returndatasize\n      not(0x1f)\n      0x1f\n      dup3\n      add\n      and\n      dup3\n      add\n      dup1\n      0x40\n      mstore\n      pop\n      dup2\n      add\n      swap1\n      tag_395\n      swap2\n      swap1\n      tag_130\n      jump\t// in\n    tag_395:\n        /* \"contracts/Market.sol\":11739:11761  vigAmount * app.eVig() */\n      tag_396\n      swap1\n        /* \"contracts/Market.sol\":11739:11748  vigAmount */\n      dup4\n        /* \"contracts/Market.sol\":11739:11761  vigAmount * app.eVig() */\n      tag_284\n      jump\t// in\n    tag_396:\n        /* \"contracts/Market.sol\":11739:11767  vigAmount * app.eVig() / 100 */\n      tag_397\n      swap2\n      swap1\n      tag_286\n      jump\t// in\n    tag_397:\n        /* \"contracts/Market.sol\":11717:11720  bal */\n      0x05\n        /* \"contracts/Market.sol\":11717:11735  bal[app.ecoAddr()] */\n      0x00\n        /* \"contracts/Market.sol\":11721:11724  app */\n      0x0a\n      0x00\n      swap1\n      sload\n      swap1\n      0x0100\n      exp\n      swap1\n      div\n      sub(shl(0xa0, 0x01), 0x01)\n      and\n      sub(shl(0xa0, 0x01), 0x01)\n        /* \"contracts/Market.sol\":11721:11732  app.ecoAddr */\n      and\n      0x09953b2f\n        /* \"contracts/Market.sol\":11721:11734  app.ecoAddr() */\n      mload(0x40)\n      dup2\n      0xffffffff\n      and\n      0xe0\n      shl\n      dup2\n      mstore\n      0x04\n      add\n      0x20\n      mload(0x40)\n      dup1\n      dup4\n      sub\n      dup2\n      dup7\n      dup1\n      extcodesize\n      iszero\n      dup1\n      iszero\n      tag_398\n      jumpi\n      0x00\n      dup1\n      revert\n    tag_398:\n      pop\n      gas\n      staticcall\n      iszero\n      dup1\n      iszero\n      tag_400\n      jumpi\n      returndatasize\n      0x00\n      dup1\n      returndatacopy\n      revert(0x00, returndatasize)\n    tag_400:\n      pop\n      pop\n      pop\n      pop\n      mload(0x40)\n      returndatasize\n      not(0x1f)\n      0x1f\n      dup3\n      add\n      and\n      dup3\n      add\n      dup1\n      0x40\n      mstore\n      pop\n      dup2\n      add\n      swap1\n      tag_401\n      swap2\n      swap1\n      tag_165\n      jump\t// in\n    tag_401:\n      sub(shl(0xa0, 0x01), 0x01)\n        /* \"contracts/Market.sol\":11717:11735  bal[app.ecoAddr()] */\n      and\n      sub(shl(0xa0, 0x01), 0x01)\n      and\n      dup2\n      mstore\n      0x20\n      add\n      swap1\n      dup2\n      mstore\n      0x20\n      add\n      0x00\n      keccak256\n      0x00\n        /* \"contracts/Market.sol\":11717:11767  bal[app.ecoAddr()] += vigAmount * app.eVig() / 100 */\n      dup3\n      dup3\n      sload\n      tag_402\n      swap2\n      swap1\n      tag_182\n      jump\t// in\n    tag_402:\n      swap1\n      swap2\n      sstore\n      pop\n      pop\n        /* \"contracts/Market.sol\":11815:11818  app */\n      sload(0x0a)\n        /* \"contracts/Market.sol\":11815:11825  app.aVig() */\n      0x40\n      dup1\n      mload\n      shl(0xe2, 0x15334697)\n      dup2\n      mstore\n      swap1\n      mload\n        /* \"contracts/Market.sol\":11828:11831  100 */\n      0x64\n      swap3\n      sub(shl(0xa0, 0x01), 0x01)\n        /* \"contracts/Market.sol\":11815:11818  app */\n      and\n      swap2\n        /* \"contracts/Market.sol\":11815:11823  app.aVig */\n      0x54cd1a5c\n      swap2\n        /* \"contracts/Market.sol\":11815:11825  app.aVig() */\n      0x04\n      dup1\n      dup4\n      add\n      swap3\n      0x20\n      swap3\n      swap2\n      swap1\n      dup3\n      swap1\n      sub\n      add\n      dup2\n        /* \"contracts/Market.sol\":11815:11818  app */\n      dup7\n        /* \"contracts/Market.sol\":11815:11825  app.aVig() */\n      dup1\n      extcodesize\n      iszero\n      dup1\n      iszero\n      tag_403\n      jumpi\n      0x00\n      dup1\n      revert\n    tag_403:\n      pop\n      gas\n      staticcall\n      iszero\n      dup1\n      iszero\n      tag_405\n      jumpi\n      returndatasize\n      0x00\n      dup1\n      returndatacopy\n      revert(0x00, returndatasize)\n    tag_405:\n      pop\n      pop\n      pop\n      pop\n      mload(0x40)\n      returndatasize\n      not(0x1f)\n      0x1f\n      dup3\n      add\n      and\n      dup3\n      add\n      dup1\n      0x40\n      mstore\n      pop\n      dup2\n      add\n      swap1\n      tag_406\n      swap2\n      swap1\n      tag_130\n      jump\t// in\n    tag_406:\n        /* \"contracts/Market.sol\":11803:11825  vigAmount * app.aVig() */\n      tag_407\n      swap1\n        /* \"contracts/Market.sol\":11803:11812  vigAmount */\n      dup4\n        /* \"contracts/Market.sol\":11803:11825  vigAmount * app.aVig() */\n      tag_284\n      jump\t// in\n    tag_407:\n        /* \"contracts/Market.sol\":11803:11831  vigAmount * app.aVig() / 100 */\n      tag_408\n      swap2\n      swap1\n      tag_286\n      jump\t// in\n    tag_408:\n        /* \"contracts/Market.sol\":11785:11798  bet.affiliate */\n      0x20\n      dup1\n      dup12\n      add\n      mload\n      sub(shl(0xa0, 0x01), 0x01)\n        /* \"contracts/Market.sol\":11781:11799  bal[bet.affiliate] */\n      and\n      0x00\n      swap1\n      dup2\n      mstore\n        /* \"contracts/Market.sol\":11781:11784  bal */\n      0x05\n        /* \"contracts/Market.sol\":11781:11799  bal[bet.affiliate] */\n      swap1\n      swap2\n      mstore\n      0x40\n      dup2\n      keccak256\n        /* \"contracts/Market.sol\":11781:11831  bal[bet.affiliate] += vigAmount * app.aVig() / 100 */\n      dup1\n      sload\n        /* \"contracts/Market.sol\":11781:11799  bal[bet.affiliate] */\n      swap1\n      swap2\n      swap1\n        /* \"contracts/Market.sol\":11781:11831  bal[bet.affiliate] += vigAmount * app.aVig() / 100 */\n      tag_409\n      swap1\n      dup5\n      swap1\n      tag_182\n      jump\t// in\n    tag_409:\n      swap3\n      pop\n      pop\n      dup2\n      swap1\n      sstore\n      pop\n        /* \"contracts/Market.sol\":11876:11880  true */\n      0x01\n        /* \"contracts/Market.sol\":11845:11854  pairsInfo */\n      0x08\n        /* \"contracts/Market.sol\":11845:11865  pairsInfo[_pairs[i]] */\n      0x00\n        /* \"contracts/Market.sol\":11855:11861  _pairs */\n      dup11\n        /* \"contracts/Market.sol\":11862:11863  i */\n      dup10\n        /* \"contracts/Market.sol\":11855:11864  _pairs[i] */\n      dup2\n      mload\n      dup2\n      lt\n      tag_410\n      jumpi\n      mstore(0x00, shl(0xe0, 0x4e487b71))\n      mstore(0x04, 0x32)\n      revert(0x00, 0x24)\n    tag_410:\n      0x20\n      mul\n      0x20\n      add\n      add\n      mload\n        /* \"contracts/Market.sol\":11845:11865  pairsInfo[_pairs[i]] */\n      dup2\n      mstore\n      0x20\n      add\n      swap1\n      dup2\n      mstore\n      0x20\n      add\n      0x00\n      keccak256\n        /* \"contracts/Market.sol\":11845:11873  pairsInfo[_pairs[i]].settled */\n      0x04\n      add\n      0x00\n        /* \"contracts/Market.sol\":11845:11880  pairsInfo[_pairs[i]].settled = true */\n      0x0100\n      exp\n      dup2\n      sload\n      dup2\n      0xff\n      mul\n      not\n      and\n      swap1\n      dup4\n      iszero\n      iszero\n      mul\n      or\n      swap1\n      sstore\n      pop\n        /* \"contracts/Market.sol\":10655:11891  for(uint i = 0; i < pairsLength; i++){... */\n      pop\n      pop\n      pop\n      pop\n      pop\n    tag_354:\n        /* \"contracts/Market.sol\":10688:10691  i++ */\n      dup1\n      tag_411\n      dup2\n      tag_156\n      jump\t// in\n    tag_411:\n      swap2\n      pop\n      pop\n        /* \"contracts/Market.sol\":10655:11891  for(uint i = 0; i < pairsLength; i++){... */\n      jump(tag_352)\n    tag_353:\n      pop\n        /* \"contracts/Market.sol\":11907:11911  true */\n      0x01\n      swap6\n        /* \"contracts/Market.sol\":10438:11918  function _cancelBetPairs(bytes32 _bet) private returns(bool) {... */\n      swap5\n      pop\n      pop\n      pop\n      pop\n      pop\n      jump\t// out\n        /* \"contracts/Market.sol\":12375:13648  function _settlePair(bytes32 _pair) private nonReentrant returns(bool) {... */\n    tag_154:\n        /* \"contracts/Market.sol\":12440:12444  bool */\n      0x00\n        /* \"@openzeppelin/contracts/security/ReentrancyGuard.sol\":1744:1745  2 */\n      0x02\n        /* \"@openzeppelin/contracts/security/ReentrancyGuard.sol\":2325:2332  _status */\n      sload(0x00)\n        /* \"@openzeppelin/contracts/security/ReentrancyGuard.sol\":2325:2344  _status != _ENTERED */\n      eq\n      iszero\n        /* \"@openzeppelin/contracts/security/ReentrancyGuard.sol\":2317:2380  require(_status != _ENTERED, \"ReentrancyGuard: reentrant call\") */\n      tag_413\n      jumpi\n      mload(0x40)\n      shl(0xe5, 0x461bcd)\n      dup2\n      mstore\n        /* \"#utility.yul\":9798:9800   */\n      0x20\n        /* \"@openzeppelin/contracts/security/ReentrancyGuard.sol\":2317:2380  require(_status != _ENTERED, \"ReentrancyGuard: reentrant call\") */\n      0x04\n      dup3\n      add\n        /* \"#utility.yul\":9780:9801   */\n      mstore\n        /* \"#utility.yul\":9837:9839   */\n      0x1f\n        /* \"#utility.yul\":9817:9835   */\n      0x24\n      dup3\n      add\n        /* \"#utility.yul\":9810:9840   */\n      mstore\n        /* \"#utility.yul\":9876:9909   */\n      0x5265656e7472616e637947756172643a207265656e7472616e742063616c6c00\n        /* \"#utility.yul\":9856:9874   */\n      0x44\n      dup3\n      add\n        /* \"#utility.yul\":9849:9910   */\n      mstore\n        /* \"#utility.yul\":9927:9945   */\n      0x64\n      add\n        /* \"@openzeppelin/contracts/security/ReentrancyGuard.sol\":2317:2380  require(_status != _ENTERED, \"ReentrancyGuard: reentrant call\") */\n      tag_106\n        /* \"#utility.yul\":9770:9951   */\n      jump\n        /* \"@openzeppelin/contracts/security/ReentrancyGuard.sol\":2317:2380  require(_status != _ENTERED, \"ReentrancyGuard: reentrant call\") */\n    tag_413:\n        /* \"@openzeppelin/contracts/security/ReentrancyGuard.sol\":1744:1745  2 */\n      0x02\n        /* \"@openzeppelin/contracts/security/ReentrancyGuard.sol\":2455:2462  _status */\n      0x00\n        /* \"@openzeppelin/contracts/security/ReentrancyGuard.sol\":2455:2473  _status = _ENTERED */\n      swap1\n      dup2\n      sstore\n        /* \"contracts/Market.sol\":12459:12475  pairsInfo[_pair] */\n      dup3\n      dup2\n      mstore\n        /* \"contracts/Market.sol\":12459:12468  pairsInfo */\n      0x08\n        /* \"contracts/Market.sol\":12459:12475  pairsInfo[_pair] */\n      0x20\n      mstore\n      0x40\n      swap1\n      keccak256\n        /* \"contracts/Market.sol\":12459:12483  pairsInfo[_pair].settled */\n      0x04\n      add\n      sload\n      0xff\n      and\n        /* \"contracts/Market.sol\":12456:12521  if(pairsInfo[_pair].settled){... */\n      iszero\n      tag_416\n      jumpi\n      pop\n        /* \"contracts/Market.sol\":12505:12510  false */\n      0x00\n        /* \"contracts/Market.sol\":12498:12510  return false */\n      jump(tag_123)\n        /* \"contracts/Market.sol\":12456:12521  if(pairsInfo[_pair].settled){... */\n    tag_416:\n        /* \"contracts/Market.sol\":12530:12544  address winner */\n      0x00\n        /* \"contracts/Market.sol\":12554:12571  address affiliate */\n      dup1\n        /* \"contracts/Market.sol\":12581:12598  uint256 winAmount */\n      0x00\n        /* \"contracts/Market.sol\":12608:12625  uint256 vigAmount */\n      dup1\n        /* \"contracts/Market.sol\":12638:12644  status */\n      sload(0x02)\n        /* \"contracts/Market.sol\":12648:12649  1 */\n      0x01\n        /* \"contracts/Market.sol\":12638:12649  status == 1 */\n      eq\n        /* \"contracts/Market.sol\":12635:13369  if(status == 1){... */\n      iszero\n      tag_417\n      jumpi\n        /* \"contracts/Market.sol\":12673:12708  betsInfo[pairsInfo[_pair].betHashA] */\n      0x00\n        /* \"contracts/Market.sol\":12682:12698  pairsInfo[_pair] */\n      dup7\n      dup2\n      mstore\n        /* \"contracts/Market.sol\":12682:12691  pairsInfo */\n      0x08\n        /* \"contracts/Market.sol\":12682:12698  pairsInfo[_pair] */\n      0x20\n      swap1\n      dup2\n      mstore\n      0x40\n      dup1\n      dup4\n      keccak256\n        /* \"contracts/Market.sol\":12682:12707  pairsInfo[_pair].betHashA */\n      sload\n        /* \"contracts/Market.sol\":12673:12708  betsInfo[pairsInfo[_pair].betHashA] */\n      dup4\n      mstore\n        /* \"contracts/Market.sol\":12673:12681  betsInfo */\n      0x06\n        /* \"contracts/Market.sol\":12673:12708  betsInfo[pairsInfo[_pair].betHashA] */\n      dup3\n      mstore\n      swap2\n      dup3\n      swap1\n      keccak256\n        /* \"contracts/Market.sol\":12673:12715  betsInfo[pairsInfo[_pair].betHashA].better */\n      sload\n        /* \"contracts/Market.sol\":12803:12806  app */\n      sload(0x0a)\n        /* \"contracts/Market.sol\":12803:12812  app.vig() */\n      dup4\n      mload\n      shl(0xe0, 0x55c4a8bf)\n      dup2\n      mstore\n      swap4\n      mload\n      sub(shl(0xa0, 0x01), 0x01)\n        /* \"contracts/Market.sol\":12673:12715  betsInfo[pairsInfo[_pair].betHashA].better */\n      swap3\n      dup4\n      and\n      swap9\n      pop\n        /* \"contracts/Market.sol\":12816:12819  100 */\n      0x64\n      swap5\n        /* \"contracts/Market.sol\":12803:12806  app */\n      swap2\n      swap1\n      swap3\n      and\n      swap3\n        /* \"contracts/Market.sol\":12803:12810  app.vig */\n      0x55c4a8bf\n      swap3\n        /* \"contracts/Market.sol\":12803:12812  app.vig() */\n      0x04\n      dup1\n      dup5\n      add\n      swap4\n      dup3\n      swap1\n      sub\n      add\n      dup2\n        /* \"contracts/Market.sol\":12803:12806  app */\n      dup7\n        /* \"contracts/Market.sol\":12803:12812  app.vig() */\n      dup1\n      extcodesize\n      iszero\n      dup1\n      iszero\n      tag_418\n      jumpi\n      0x00\n      dup1\n      revert\n    tag_418:\n      pop\n      gas\n      staticcall\n      iszero\n      dup1\n      iszero\n      tag_420\n      jumpi\n      returndatasize\n      0x00\n      dup1\n      returndatacopy\n      revert(0x00, returndatasize)\n    tag_420:\n      pop\n      pop\n      pop\n      pop\n      mload(0x40)\n      returndatasize\n      not(0x1f)\n      0x1f\n      dup3\n      add\n      and\n      dup3\n      add\n      dup1\n      0x40\n      mstore\n      pop\n      dup2\n      add\n      swap1\n      tag_421\n      swap2\n      swap1\n      tag_130\n      jump\t// in\n    tag_421:\n        /* \"contracts/Market.sol\":12797:12812  100 - app.vig() */\n      tag_422\n      swap1\n        /* \"contracts/Market.sol\":12797:12800  100 */\n      0x64\n        /* \"contracts/Market.sol\":12797:12812  100 - app.vig() */\n      tag_180\n      jump\t// in\n    tag_422:\n        /* \"contracts/Market.sol\":12769:12785  pairsInfo[_pair] */\n      0x00\n      dup9\n      dup2\n      mstore\n        /* \"contracts/Market.sol\":12769:12778  pairsInfo */\n      0x08\n        /* \"contracts/Market.sol\":12769:12785  pairsInfo[_pair] */\n      0x20\n      mstore\n      0x40\n      swap1\n      keccak256\n        /* \"contracts/Market.sol\":12769:12793  pairsInfo[_pair].amountB */\n      0x03\n      add\n      sload\n        /* \"contracts/Market.sol\":12769:12813  pairsInfo[_pair].amountB * (100 - app.vig()) */\n      tag_423\n      swap2\n      swap1\n      tag_284\n      jump\t// in\n    tag_423:\n        /* \"contracts/Market.sol\":12769:12819  pairsInfo[_pair].amountB * (100 - app.vig()) / 100 */\n      tag_424\n      swap2\n      swap1\n      tag_286\n      jump\t// in\n    tag_424:\n        /* \"contracts/Market.sol\":12741:12757  pairsInfo[_pair] */\n      0x00\n      dup8\n      dup2\n      mstore\n        /* \"contracts/Market.sol\":12741:12750  pairsInfo */\n      0x08\n        /* \"contracts/Market.sol\":12741:12757  pairsInfo[_pair] */\n      0x20\n      mstore\n      0x40\n      swap1\n      keccak256\n        /* \"contracts/Market.sol\":12741:12765  pairsInfo[_pair].amountA */\n      0x02\n      add\n      sload\n        /* \"contracts/Market.sol\":12741:12820  pairsInfo[_pair].amountA + (pairsInfo[_pair].amountB * (100 - app.vig()) / 100) */\n      tag_425\n      swap2\n      swap1\n      tag_182\n      jump\t// in\n    tag_425:\n        /* \"contracts/Market.sol\":12729:12820  winAmount = pairsInfo[_pair].amountA + (pairsInfo[_pair].amountB * (100 - app.vig()) / 100) */\n      swap2\n      pop\n        /* \"contracts/Market.sol\":12885:12888  100 */\n      0x64\n        /* \"contracts/Market.sol\":12873:12876  app */\n      0x0a\n      0x00\n      swap1\n      sload\n      swap1\n      0x0100\n      exp\n      swap1\n      div\n      sub(shl(0xa0, 0x01), 0x01)\n      and\n      sub(shl(0xa0, 0x01), 0x01)\n        /* \"contracts/Market.sol\":12873:12880  app.vig */\n      and\n      0x55c4a8bf\n        /* \"contracts/Market.sol\":12873:12882  app.vig() */\n      mload(0x40)\n      dup2\n      0xffffffff\n      and\n      0xe0\n      shl\n      dup2\n      mstore\n      0x04\n      add\n      0x20\n      mload(0x40)\n      dup1\n      dup4\n      sub\n      dup2\n      dup7\n      dup1\n      extcodesize\n      iszero\n      dup1\n      iszero\n      tag_426\n      jumpi\n      0x00\n      dup1\n      revert\n    tag_426:\n      pop\n      gas\n      staticcall\n      iszero\n      dup1\n      iszero\n      tag_428\n      jumpi\n      returndatasize\n      0x00\n      dup1\n      returndatacopy\n      revert(0x00, returndatasize)\n    tag_428:\n      pop\n      pop\n      pop\n      pop\n      mload(0x40)\n      returndatasize\n      not(0x1f)\n      0x1f\n      dup3\n      add\n      and\n      dup3\n      add\n      dup1\n      0x40\n      mstore\n      pop\n      dup2\n      add\n      swap1\n      tag_429\n      swap2\n      swap1\n      tag_130\n      jump\t// in\n    tag_429:\n        /* \"contracts/Market.sol\":12846:12862  pairsInfo[_pair] */\n      0x00\n      dup9\n      dup2\n      mstore\n        /* \"contracts/Market.sol\":12846:12855  pairsInfo */\n      0x08\n        /* \"contracts/Market.sol\":12846:12862  pairsInfo[_pair] */\n      0x20\n      mstore\n      0x40\n      swap1\n      keccak256\n        /* \"contracts/Market.sol\":12846:12870  pairsInfo[_pair].amountB */\n      0x03\n      add\n      sload\n        /* \"contracts/Market.sol\":12846:12882  pairsInfo[_pair].amountB * app.vig() */\n      tag_430\n      swap2\n      swap1\n      tag_284\n      jump\t// in\n    tag_430:\n        /* \"contracts/Market.sol\":12846:12888  pairsInfo[_pair].amountB * app.vig() / 100 */\n      tag_431\n      swap2\n      swap1\n      tag_286\n      jump\t// in\n    tag_431:\n        /* \"contracts/Market.sol\":12914:12949  betsInfo[pairsInfo[_pair].betHashA] */\n      0x00\n        /* \"contracts/Market.sol\":12923:12939  pairsInfo[_pair] */\n      dup8\n      dup2\n      mstore\n        /* \"contracts/Market.sol\":12923:12932  pairsInfo */\n      0x08\n        /* \"contracts/Market.sol\":12923:12939  pairsInfo[_pair] */\n      0x20\n      swap1\n      dup2\n      mstore\n      0x40\n      dup1\n      dup4\n      keccak256\n        /* \"contracts/Market.sol\":12923:12948  pairsInfo[_pair].betHashA */\n      sload\n        /* \"contracts/Market.sol\":12914:12949  betsInfo[pairsInfo[_pair].betHashA] */\n      dup4\n      mstore\n        /* \"contracts/Market.sol\":12914:12922  betsInfo */\n      0x06\n        /* \"contracts/Market.sol\":12914:12949  betsInfo[pairsInfo[_pair].betHashA] */\n      swap1\n      swap2\n      mstore\n      swap1\n      keccak256\n        /* \"contracts/Market.sol\":12914:12959  betsInfo[pairsInfo[_pair].betHashA].affiliate */\n      0x01\n      add\n      sload\n      sub(shl(0xa0, 0x01), 0x01)\n      and\n      swap4\n      pop\n        /* \"contracts/Market.sol\":12834:12888  vigAmount = pairsInfo[_pair].amountB * app.vig() / 100 */\n      swap1\n      pop\n        /* \"contracts/Market.sol\":12635:13369  if(status == 1){... */\n      jump(tag_448)\n    tag_417:\n        /* \"contracts/Market.sol\":12987:12993  status */\n      sload(0x02)\n        /* \"contracts/Market.sol\":12997:12998  2 */\n      0x02\n        /* \"contracts/Market.sol\":12987:12998  status == 2 */\n      eq\n        /* \"contracts/Market.sol\":12984:13369  if(status == 2){... */\n      iszero\n      tag_433\n      jumpi\n        /* \"contracts/Market.sol\":13022:13057  betsInfo[pairsInfo[_pair].betHashB] */\n      0x00\n        /* \"contracts/Market.sol\":13031:13047  pairsInfo[_pair] */\n      dup7\n      dup2\n      mstore\n        /* \"contracts/Market.sol\":13031:13040  pairsInfo */\n      0x08\n        /* \"contracts/Market.sol\":13031:13047  pairsInfo[_pair] */\n      0x20\n      swap1\n      dup2\n      mstore\n      0x40\n      dup1\n      dup4\n      keccak256\n        /* \"contracts/Market.sol\":13031:13056  pairsInfo[_pair].betHashB */\n      0x01\n      add\n      sload\n        /* \"contracts/Market.sol\":13022:13057  betsInfo[pairsInfo[_pair].betHashB] */\n      dup4\n      mstore\n        /* \"contracts/Market.sol\":13022:13030  betsInfo */\n      0x06\n        /* \"contracts/Market.sol\":13022:13057  betsInfo[pairsInfo[_pair].betHashB] */\n      dup3\n      mstore\n      swap2\n      dup3\n      swap1\n      keccak256\n        /* \"contracts/Market.sol\":13022:13064  betsInfo[pairsInfo[_pair].betHashB].better */\n      sload\n        /* \"contracts/Market.sol\":13152:13155  app */\n      sload(0x0a)\n        /* \"contracts/Market.sol\":13152:13161  app.vig() */\n      dup4\n      mload\n      shl(0xe0, 0x55c4a8bf)\n      dup2\n      mstore\n      swap4\n      mload\n      sub(shl(0xa0, 0x01), 0x01)\n        /* \"contracts/Market.sol\":13022:13064  betsInfo[pairsInfo[_pair].betHashB].better */\n      swap3\n      dup4\n      and\n      swap9\n      pop\n        /* \"contracts/Market.sol\":13165:13168  100 */\n      0x64\n      swap5\n        /* \"contracts/Market.sol\":13152:13155  app */\n      swap2\n      swap1\n      swap3\n      and\n      swap3\n        /* \"contracts/Market.sol\":13152:13159  app.vig */\n      0x55c4a8bf\n      swap3\n        /* \"contracts/Market.sol\":13152:13161  app.vig() */\n      0x04\n      dup1\n      dup5\n      add\n      swap4\n      dup3\n      swap1\n      sub\n      add\n      dup2\n        /* \"contracts/Market.sol\":13152:13155  app */\n      dup7\n        /* \"contracts/Market.sol\":13152:13161  app.vig() */\n      dup1\n      extcodesize\n      iszero\n      dup1\n      iszero\n      tag_434\n      jumpi\n      0x00\n      dup1\n      revert\n    tag_434:\n      pop\n      gas\n      staticcall\n      iszero\n      dup1\n      iszero\n      tag_436\n      jumpi\n      returndatasize\n      0x00\n      dup1\n      returndatacopy\n      revert(0x00, returndatasize)\n    tag_436:\n      pop\n      pop\n      pop\n      pop\n      mload(0x40)\n      returndatasize\n      not(0x1f)\n      0x1f\n      dup3\n      add\n      and\n      dup3\n      add\n      dup1\n      0x40\n      mstore\n      pop\n      dup2\n      add\n      swap1\n      tag_437\n      swap2\n      swap1\n      tag_130\n      jump\t// in\n    tag_437:\n        /* \"contracts/Market.sol\":13146:13161  100 - app.vig() */\n      tag_438\n      swap1\n        /* \"contracts/Market.sol\":13146:13149  100 */\n      0x64\n        /* \"contracts/Market.sol\":13146:13161  100 - app.vig() */\n      tag_180\n      jump\t// in\n    tag_438:\n        /* \"contracts/Market.sol\":13118:13134  pairsInfo[_pair] */\n      0x00\n      dup9\n      dup2\n      mstore\n        /* \"contracts/Market.sol\":13118:13127  pairsInfo */\n      0x08\n        /* \"contracts/Market.sol\":13118:13134  pairsInfo[_pair] */\n      0x20\n      mstore\n      0x40\n      swap1\n      keccak256\n        /* \"contracts/Market.sol\":13118:13142  pairsInfo[_pair].amountA */\n      0x02\n      add\n      sload\n        /* \"contracts/Market.sol\":13118:13162  pairsInfo[_pair].amountA * (100 - app.vig()) */\n      tag_439\n      swap2\n      swap1\n      tag_284\n      jump\t// in\n    tag_439:\n        /* \"contracts/Market.sol\":13118:13168  pairsInfo[_pair].amountA * (100 - app.vig()) / 100 */\n      tag_440\n      swap2\n      swap1\n      tag_286\n      jump\t// in\n    tag_440:\n        /* \"contracts/Market.sol\":13090:13106  pairsInfo[_pair] */\n      0x00\n      dup8\n      dup2\n      mstore\n        /* \"contracts/Market.sol\":13090:13099  pairsInfo */\n      0x08\n        /* \"contracts/Market.sol\":13090:13106  pairsInfo[_pair] */\n      0x20\n      mstore\n      0x40\n      swap1\n      keccak256\n        /* \"contracts/Market.sol\":13090:13114  pairsInfo[_pair].amountB */\n      0x03\n      add\n      sload\n        /* \"contracts/Market.sol\":13090:13169  pairsInfo[_pair].amountB + (pairsInfo[_pair].amountA * (100 - app.vig()) / 100) */\n      tag_441\n      swap2\n      swap1\n      tag_182\n      jump\t// in\n    tag_441:\n        /* \"contracts/Market.sol\":13078:13169  winAmount = pairsInfo[_pair].amountB + (pairsInfo[_pair].amountA * (100 - app.vig()) / 100) */\n      swap2\n      pop\n        /* \"contracts/Market.sol\":13234:13237  100 */\n      0x64\n        /* \"contracts/Market.sol\":13222:13225  app */\n      0x0a\n      0x00\n      swap1\n      sload\n      swap1\n      0x0100\n      exp\n      swap1\n      div\n      sub(shl(0xa0, 0x01), 0x01)\n      and\n      sub(shl(0xa0, 0x01), 0x01)\n        /* \"contracts/Market.sol\":13222:13229  app.vig */\n      and\n      0x55c4a8bf\n        /* \"contracts/Market.sol\":13222:13231  app.vig() */\n      mload(0x40)\n      dup2\n      0xffffffff\n      and\n      0xe0\n      shl\n      dup2\n      mstore\n      0x04\n      add\n      0x20\n      mload(0x40)\n      dup1\n      dup4\n      sub\n      dup2\n      dup7\n      dup1\n      extcodesize\n      iszero\n      dup1\n      iszero\n      tag_442\n      jumpi\n      0x00\n      dup1\n      revert\n    tag_442:\n      pop\n      gas\n      staticcall\n      iszero\n      dup1\n      iszero\n      tag_444\n      jumpi\n      returndatasize\n      0x00\n      dup1\n      returndatacopy\n      revert(0x00, returndatasize)\n    tag_444:\n      pop\n      pop\n      pop\n      pop\n      mload(0x40)\n      returndatasize\n      not(0x1f)\n      0x1f\n      dup3\n      add\n      and\n      dup3\n      add\n      dup1\n      0x40\n      mstore\n      pop\n      dup2\n      add\n      swap1\n      tag_445\n      swap2\n      swap1\n      tag_130\n      jump\t// in\n    tag_445:\n        /* \"contracts/Market.sol\":13195:13211  pairsInfo[_pair] */\n      0x00\n      dup9\n      dup2\n      mstore\n        /* \"contracts/Market.sol\":13195:13204  pairsInfo */\n      0x08\n        /* \"contracts/Market.sol\":13195:13211  pairsInfo[_pair] */\n      0x20\n      mstore\n      0x40\n      swap1\n      keccak256\n        /* \"contracts/Market.sol\":13195:13219  pairsInfo[_pair].amountA */\n      0x02\n      add\n      sload\n        /* \"contracts/Market.sol\":13195:13231  pairsInfo[_pair].amountA * app.vig() */\n      tag_446\n      swap2\n      swap1\n      tag_284\n      jump\t// in\n    tag_446:\n        /* \"contracts/Market.sol\":13195:13237  pairsInfo[_pair].amountA * app.vig() / 100 */\n      tag_447\n      swap2\n      swap1\n      tag_286\n      jump\t// in\n    tag_447:\n        /* \"contracts/Market.sol\":13263:13298  betsInfo[pairsInfo[_pair].betHashB] */\n      0x00\n        /* \"contracts/Market.sol\":13272:13288  pairsInfo[_pair] */\n      dup8\n      dup2\n      mstore\n        /* \"contracts/Market.sol\":13272:13281  pairsInfo */\n      0x08\n        /* \"contracts/Market.sol\":13272:13288  pairsInfo[_pair] */\n      0x20\n      swap1\n      dup2\n      mstore\n      0x40\n      dup1\n      dup4\n      keccak256\n        /* \"contracts/Market.sol\":13272:13297  pairsInfo[_pair].betHashB */\n      0x01\n      swap1\n      dup2\n      add\n      sload\n        /* \"contracts/Market.sol\":13263:13298  betsInfo[pairsInfo[_pair].betHashB] */\n      dup5\n      mstore\n        /* \"contracts/Market.sol\":13263:13271  betsInfo */\n      0x06\n        /* \"contracts/Market.sol\":13263:13298  betsInfo[pairsInfo[_pair].betHashB] */\n      swap1\n      swap3\n      mstore\n      swap1\n      swap2\n      keccak256\n        /* \"contracts/Market.sol\":13263:13308  betsInfo[pairsInfo[_pair].betHashB].affiliate */\n      add\n      sload\n      sub(shl(0xa0, 0x01), 0x01)\n      and\n      swap4\n      pop\n        /* \"contracts/Market.sol\":13183:13237  vigAmount = pairsInfo[_pair].amountA * app.vig() / 100 */\n      swap1\n      pop\n        /* \"contracts/Market.sol\":12984:13369  if(status == 2){... */\n      jump(tag_448)\n    tag_433:\n        /* \"contracts/Market.sol\":13353:13358  false */\n      0x00\n        /* \"contracts/Market.sol\":13346:13358  return false */\n      swap5\n      pop\n      pop\n      pop\n      pop\n      pop\n      jump(tag_123)\n        /* \"contracts/Market.sol\":12984:13369  if(status == 2){... */\n    tag_448:\n      sub(shl(0xa0, 0x01), 0x01)\n        /* \"contracts/Market.sol\":13378:13389  bal[winner] */\n      dup5\n      and\n      0x00\n      swap1\n      dup2\n      mstore\n        /* \"contracts/Market.sol\":13378:13381  bal */\n      0x05\n        /* \"contracts/Market.sol\":13378:13389  bal[winner] */\n      0x20\n      mstore\n      0x40\n      dup2\n      keccak256\n        /* \"contracts/Market.sol\":13378:13402  bal[winner] += winAmount */\n      dup1\n      sload\n        /* \"contracts/Market.sol\":13393:13402  winAmount */\n      dup5\n      swap3\n        /* \"contracts/Market.sol\":13378:13389  bal[winner] */\n      swap1\n        /* \"contracts/Market.sol\":13378:13402  bal[winner] += winAmount */\n      tag_449\n      swap1\n        /* \"contracts/Market.sol\":13393:13402  winAmount */\n      dup5\n      swap1\n        /* \"contracts/Market.sol\":13378:13402  bal[winner] += winAmount */\n      tag_182\n      jump\t// in\n    tag_449:\n      swap1\n      swap2\n      sstore\n      pop\n      pop\n        /* \"contracts/Market.sol\":13447:13450  app */\n      sload(0x0a)\n        /* \"contracts/Market.sol\":13447:13457  app.hVig() */\n      0x40\n      dup1\n      mload\n      shl(0xe0, 0x6a0ccd9d)\n      dup2\n      mstore\n      swap1\n      mload\n        /* \"contracts/Market.sol\":13460:13463  100 */\n      0x64\n      swap3\n      sub(shl(0xa0, 0x01), 0x01)\n        /* \"contracts/Market.sol\":13447:13450  app */\n      and\n      swap2\n        /* \"contracts/Market.sol\":13447:13455  app.hVig */\n      0x6a0ccd9d\n      swap2\n        /* \"contracts/Market.sol\":13447:13457  app.hVig() */\n      0x04\n      dup1\n      dup4\n      add\n      swap3\n      0x20\n      swap3\n      swap2\n      swap1\n      dup3\n      swap1\n      sub\n      add\n      dup2\n        /* \"contracts/Market.sol\":13447:13450  app */\n      dup7\n        /* \"contracts/Market.sol\":13447:13457  app.hVig() */\n      dup1\n      extcodesize\n      iszero\n      dup1\n      iszero\n      tag_450\n      jumpi\n      0x00\n      dup1\n      revert\n    tag_450:\n      pop\n      gas\n      staticcall\n      iszero\n      dup1\n      iszero\n      tag_452\n      jumpi\n      returndatasize\n      0x00\n      dup1\n      returndatacopy\n      revert(0x00, returndatasize)\n    tag_452:\n      pop\n      pop\n      pop\n      pop\n      mload(0x40)\n      returndatasize\n      not(0x1f)\n      0x1f\n      dup3\n      add\n      and\n      dup3\n      add\n      dup1\n      0x40\n      mstore\n      pop\n      dup2\n      add\n      swap1\n      tag_453\n      swap2\n      swap1\n      tag_130\n      jump\t// in\n    tag_453:\n        /* \"contracts/Market.sol\":13435:13457  vigAmount * app.hVig() */\n      tag_454\n      swap1\n        /* \"contracts/Market.sol\":13435:13444  vigAmount */\n      dup4\n        /* \"contracts/Market.sol\":13435:13457  vigAmount * app.hVig() */\n      tag_284\n      jump\t// in\n    tag_454:\n        /* \"contracts/Market.sol\":13435:13463  vigAmount * app.hVig() / 100 */\n      tag_455\n      swap2\n      swap1\n      tag_286\n      jump\t// in\n    tag_455:\n        /* \"contracts/Market.sol\":13412:13415  bal */\n      0x05\n        /* \"contracts/Market.sol\":13412:13431  bal[app.holdAddr()] */\n      0x00\n        /* \"contracts/Market.sol\":13416:13419  app */\n      0x0a\n      0x00\n      swap1\n      sload\n      swap1\n      0x0100\n      exp\n      swap1\n      div\n      sub(shl(0xa0, 0x01), 0x01)\n      and\n      sub(shl(0xa0, 0x01), 0x01)\n        /* \"contracts/Market.sol\":13416:13428  app.holdAddr */\n      and\n      0xb7640a54\n        /* \"contracts/Market.sol\":13416:13430  app.holdAddr() */\n      mload(0x40)\n      dup2\n      0xffffffff\n      and\n      0xe0\n      shl\n      dup2\n      mstore\n      0x04\n      add\n      0x20\n      mload(0x40)\n      dup1\n      dup4\n      sub\n      dup2\n      dup7\n      dup1\n      extcodesize\n      iszero\n      dup1\n      iszero\n      tag_456\n      jumpi\n      0x00\n      dup1\n      revert\n    tag_456:\n      pop\n      gas\n      staticcall\n      iszero\n      dup1\n      iszero\n      tag_458\n      jumpi\n      returndatasize\n      0x00\n      dup1\n      returndatacopy\n      revert(0x00, returndatasize)\n    tag_458:\n      pop\n      pop\n      pop\n      pop\n      mload(0x40)\n      returndatasize\n      not(0x1f)\n      0x1f\n      dup3\n      add\n      and\n      dup3\n      add\n      dup1\n      0x40\n      mstore\n      pop\n      dup2\n      add\n      swap1\n      tag_459\n      swap2\n      swap1\n      tag_165\n      jump\t// in\n    tag_459:\n      sub(shl(0xa0, 0x01), 0x01)\n        /* \"contracts/Market.sol\":13412:13431  bal[app.holdAddr()] */\n      and\n      sub(shl(0xa0, 0x01), 0x01)\n      and\n      dup2\n      mstore\n      0x20\n      add\n      swap1\n      dup2\n      mstore\n      0x20\n      add\n      0x00\n      keccak256\n      0x00\n        /* \"contracts/Market.sol\":13412:13463  bal[app.holdAddr()] += vigAmount * app.hVig() / 100 */\n      dup3\n      dup3\n      sload\n      tag_460\n      swap2\n      swap1\n      tag_182\n      jump\t// in\n    tag_460:\n      swap1\n      swap2\n      sstore\n      pop\n      pop\n        /* \"contracts/Market.sol\":13507:13510  app */\n      sload(0x0a)\n        /* \"contracts/Market.sol\":13507:13517  app.eVig() */\n      0x40\n      dup1\n      mload\n      shl(0xe0, 0x28576d45)\n      dup2\n      mstore\n      swap1\n      mload\n        /* \"contracts/Market.sol\":13520:13523  100 */\n      0x64\n      swap3\n      sub(shl(0xa0, 0x01), 0x01)\n        /* \"contracts/Market.sol\":13507:13510  app */\n      and\n      swap2\n        /* \"contracts/Market.sol\":13507:13515  app.eVig */\n      0x28576d45\n      swap2\n        /* \"contracts/Market.sol\":13507:13517  app.eVig() */\n      0x04\n      dup1\n      dup4\n      add\n      swap3\n      0x20\n      swap3\n      swap2\n      swap1\n      dup3\n      swap1\n      sub\n      add\n      dup2\n        /* \"contracts/Market.sol\":13507:13510  app */\n      dup7\n        /* \"contracts/Market.sol\":13507:13517  app.eVig() */\n      dup1\n      extcodesize\n      iszero\n      dup1\n      iszero\n      tag_461\n      jumpi\n      0x00\n      dup1\n      revert\n    tag_461:\n      pop\n      gas\n      staticcall\n      iszero\n      dup1\n      iszero\n      tag_463\n      jumpi\n      returndatasize\n      0x00\n      dup1\n      returndatacopy\n      revert(0x00, returndatasize)\n    tag_463:\n      pop\n      pop\n      pop\n      pop\n      mload(0x40)\n      returndatasize\n      not(0x1f)\n      0x1f\n      dup3\n      add\n      and\n      dup3\n      add\n      dup1\n      0x40\n      mstore\n      pop\n      dup2\n      add\n      swap1\n      tag_464\n      swap2\n      swap1\n      tag_130\n      jump\t// in\n    tag_464:\n        /* \"contracts/Market.sol\":13495:13517  vigAmount * app.eVig() */\n      tag_465\n      swap1\n        /* \"contracts/Market.sol\":13495:13504  vigAmount */\n      dup4\n        /* \"contracts/Market.sol\":13495:13517  vigAmount * app.eVig() */\n      tag_284\n      jump\t// in\n    tag_465:\n        /* \"contracts/Market.sol\":13495:13523  vigAmount * app.eVig() / 100 */\n      tag_466\n      swap2\n      swap1\n      tag_286\n      jump\t// in\n    tag_466:\n        /* \"contracts/Market.sol\":13473:13476  bal */\n      0x05\n        /* \"contracts/Market.sol\":13473:13491  bal[app.ecoAddr()] */\n      0x00\n        /* \"contracts/Market.sol\":13477:13480  app */\n      0x0a\n      0x00\n      swap1\n      sload\n      swap1\n      0x0100\n      exp\n      swap1\n      div\n      sub(shl(0xa0, 0x01), 0x01)\n      and\n      sub(shl(0xa0, 0x01), 0x01)\n        /* \"contracts/Market.sol\":13477:13488  app.ecoAddr */\n      and\n      0x09953b2f\n        /* \"contracts/Market.sol\":13477:13490  app.ecoAddr() */\n      mload(0x40)\n      dup2\n      0xffffffff\n      and\n      0xe0\n      shl\n      dup2\n      mstore\n      0x04\n      add\n      0x20\n      mload(0x40)\n      dup1\n      dup4\n      sub\n      dup2\n      dup7\n      dup1\n      extcodesize\n      iszero\n      dup1\n      iszero\n      tag_467\n      jumpi\n      0x00\n      dup1\n      revert\n    tag_467:\n      pop\n      gas\n      staticcall\n      iszero\n      dup1\n      iszero\n      tag_469\n      jumpi\n      returndatasize\n      0x00\n      dup1\n      returndatacopy\n      revert(0x00, returndatasize)\n    tag_469:\n      pop\n      pop\n      pop\n      pop\n      mload(0x40)\n      returndatasize\n      not(0x1f)\n      0x1f\n      dup3\n      add\n      and\n      dup3\n      add\n      dup1\n      0x40\n      mstore\n      pop\n      dup2\n      add\n      swap1\n      tag_470\n      swap2\n      swap1\n      tag_165\n      jump\t// in\n    tag_470:\n      sub(shl(0xa0, 0x01), 0x01)\n        /* \"contracts/Market.sol\":13473:13491  bal[app.ecoAddr()] */\n      and\n      sub(shl(0xa0, 0x01), 0x01)\n      and\n      dup2\n      mstore\n      0x20\n      add\n      swap1\n      dup2\n      mstore\n      0x20\n      add\n      0x00\n      keccak256\n      0x00\n        /* \"contracts/Market.sol\":13473:13523  bal[app.ecoAddr()] += vigAmount * app.eVig() / 100 */\n      dup3\n      dup3\n      sload\n      tag_471\n      swap2\n      swap1\n      tag_182\n      jump\t// in\n    tag_471:\n      swap1\n      swap2\n      sstore\n      pop\n      pop\n        /* \"contracts/Market.sol\":13563:13566  app */\n      sload(0x0a)\n        /* \"contracts/Market.sol\":13563:13573  app.aVig() */\n      0x40\n      dup1\n      mload\n      shl(0xe2, 0x15334697)\n      dup2\n      mstore\n      swap1\n      mload\n        /* \"contracts/Market.sol\":13576:13579  100 */\n      0x64\n      swap3\n      sub(shl(0xa0, 0x01), 0x01)\n        /* \"contracts/Market.sol\":13563:13566  app */\n      and\n      swap2\n        /* \"contracts/Market.sol\":13563:13571  app.aVig */\n      0x54cd1a5c\n      swap2\n        /* \"contracts/Market.sol\":13563:13573  app.aVig() */\n      0x04\n      dup1\n      dup4\n      add\n      swap3\n      0x20\n      swap3\n      swap2\n      swap1\n      dup3\n      swap1\n      sub\n      add\n      dup2\n        /* \"contracts/Market.sol\":13563:13566  app */\n      dup7\n        /* \"contracts/Market.sol\":13563:13573  app.aVig() */\n      dup1\n      extcodesize\n      iszero\n      dup1\n      iszero\n      tag_472\n      jumpi\n      0x00\n      dup1\n      revert\n    tag_472:\n      pop\n      gas\n      staticcall\n      iszero\n      dup1\n      iszero\n      tag_474\n      jumpi\n      returndatasize\n      0x00\n      dup1\n      returndatacopy\n      revert(0x00, returndatasize)\n    tag_474:\n      pop\n      pop\n      pop\n      pop\n      mload(0x40)\n      returndatasize\n      not(0x1f)\n      0x1f\n      dup3\n      add\n      and\n      dup3\n      add\n      dup1\n      0x40\n      mstore\n      pop\n      dup2\n      add\n      swap1\n      tag_475\n      swap2\n      swap1\n      tag_130\n      jump\t// in\n    tag_475:\n        /* \"contracts/Market.sol\":13551:13573  vigAmount * app.aVig() */\n      tag_476\n      swap1\n        /* \"contracts/Market.sol\":13551:13560  vigAmount */\n      dup4\n        /* \"contracts/Market.sol\":13551:13573  vigAmount * app.aVig() */\n      tag_284\n      jump\t// in\n    tag_476:\n        /* \"contracts/Market.sol\":13551:13579  vigAmount * app.aVig() / 100 */\n      tag_477\n      swap2\n      swap1\n      tag_286\n      jump\t// in\n    tag_477:\n      sub(shl(0xa0, 0x01), 0x01)\n        /* \"contracts/Market.sol\":13533:13547  bal[affiliate] */\n      dup5\n      and\n      0x00\n      swap1\n      dup2\n      mstore\n        /* \"contracts/Market.sol\":13533:13536  bal */\n      0x05\n        /* \"contracts/Market.sol\":13533:13547  bal[affiliate] */\n      0x20\n      mstore\n      0x40\n      dup2\n      keccak256\n        /* \"contracts/Market.sol\":13533:13579  bal[affiliate] += vigAmount * app.aVig() / 100 */\n      dup1\n      sload\n        /* \"contracts/Market.sol\":13533:13547  bal[affiliate] */\n      swap1\n      swap2\n      swap1\n        /* \"contracts/Market.sol\":13533:13579  bal[affiliate] += vigAmount * app.aVig() / 100 */\n      tag_478\n      swap1\n      dup5\n      swap1\n      tag_182\n      jump\t// in\n    tag_478:\n      swap1\n      swap2\n      sstore\n      pop\n      pop\n      pop\n        /* \"contracts/Market.sol\":13589:13605  pairsInfo[_pair] */\n      0x00\n      swap5\n      dup6\n      mstore\n      pop\n      pop\n        /* \"contracts/Market.sol\":13589:13598  pairsInfo */\n      0x08\n        /* \"contracts/Market.sol\":13589:13605  pairsInfo[_pair] */\n      0x20\n      mstore\n      pop\n      pop\n      0x40\n      dup2\n      keccak256\n        /* \"contracts/Market.sol\":13589:13613  pairsInfo[_pair].settled */\n      0x04\n      add\n        /* \"contracts/Market.sol\":13589:13620  pairsInfo[_pair].settled = true */\n      dup1\n      sload\n      not(0xff)\n      and\n        /* \"contracts/Market.sol\":13616:13620  true */\n      0x01\n        /* \"contracts/Market.sol\":13589:13620  pairsInfo[_pair].settled = true */\n      swap1\n      dup2\n      or\n      swap1\n      swap2\n      sstore\n        /* \"@openzeppelin/contracts/security/ReentrancyGuard.sol\":2628:2650  _status = _NOT_ENTERED */\n      swap1\n      dup2\n      swap1\n      sstore\n        /* \"contracts/Market.sol\":13616:13620  true */\n      swap1\n        /* \"contracts/Market.sol\":12375:13648  function _settlePair(bytes32 _pair) private nonReentrant returns(bool) {... */\n      jump\t// out\n        /* \"contracts/Market.sol\":11924:12365  function _cancelPair(bytes32 _pair) private returns(bool) {... */\n    tag_226:\n        /* \"contracts/Market.sol\":11976:11980  bool */\n      0x00\n        /* \"contracts/Market.sol\":11995:12011  pairsInfo[_pair] */\n      dup2\n      dup2\n      mstore\n        /* \"contracts/Market.sol\":11995:12004  pairsInfo */\n      0x08\n        /* \"contracts/Market.sol\":11995:12011  pairsInfo[_pair] */\n      0x20\n      mstore\n      0x40\n      dup2\n      keccak256\n        /* \"contracts/Market.sol\":11995:12019  pairsInfo[_pair].settled */\n      0x04\n      add\n      sload\n      0xff\n      and\n        /* \"contracts/Market.sol\":11992:12057  if(pairsInfo[_pair].settled){... */\n      iszero\n      tag_480\n      jumpi\n      pop\n        /* \"contracts/Market.sol\":12041:12046  false */\n      0x00\n      swap2\n        /* \"contracts/Market.sol\":11924:12365  function _cancelPair(bytes32 _pair) private returns(bool) {... */\n      swap1\n      pop\n      jump\t// out\n        /* \"contracts/Market.sol\":11992:12057  if(pairsInfo[_pair].settled){... */\n    tag_480:\n        /* \"contracts/Market.sol\":12066:12081  address betterA */\n      0x00\n        /* \"contracts/Market.sol\":12093:12109  pairsInfo[_pair] */\n      dup3\n      dup2\n      mstore\n        /* \"contracts/Market.sol\":12093:12102  pairsInfo */\n      0x08\n        /* \"contracts/Market.sol\":12093:12109  pairsInfo[_pair] */\n      0x20\n      swap1\n      dup2\n      mstore\n      0x40\n      dup1\n      dup4\n      keccak256\n        /* \"contracts/Market.sol\":12093:12118  pairsInfo[_pair].betHashA */\n      dup1\n      sload\n        /* \"contracts/Market.sol\":12084:12119  betsInfo[pairsInfo[_pair].betHashA] */\n      dup5\n      mstore\n        /* \"contracts/Market.sol\":12084:12092  betsInfo */\n      0x06\n        /* \"contracts/Market.sol\":12084:12119  betsInfo[pairsInfo[_pair].betHashA] */\n      dup4\n      mstore\n      dup2\n      dup5\n      keccak256\n        /* \"contracts/Market.sol\":12084:12126  betsInfo[pairsInfo[_pair].betHashA].better */\n      sload\n      0x01\n        /* \"contracts/Market.sol\":12163:12188  pairsInfo[_pair].betHashB */\n      dup3\n      add\n      sload\n        /* \"contracts/Market.sol\":12154:12189  betsInfo[pairsInfo[_pair].betHashB] */\n      dup6\n      mstore\n      dup3\n      dup6\n      keccak256\n        /* \"contracts/Market.sol\":12154:12196  betsInfo[pairsInfo[_pair].betHashB].better */\n      sload\n        /* \"contracts/Market.sol\":12222:12246  pairsInfo[_pair].amountA */\n      0x02\n      swap1\n      swap3\n      add\n      sload\n      sub(shl(0xa0, 0x01), 0x01)\n        /* \"contracts/Market.sol\":12084:12126  betsInfo[pairsInfo[_pair].betHashA].better */\n      swap2\n      dup3\n      and\n        /* \"contracts/Market.sol\":12206:12218  bal[betterA] */\n      dup1\n      dup8\n      mstore\n        /* \"contracts/Market.sol\":12206:12209  bal */\n      0x05\n        /* \"contracts/Market.sol\":12206:12218  bal[betterA] */\n      swap1\n      swap6\n      mstore\n      swap3\n      dup6\n      keccak256\n        /* \"contracts/Market.sol\":12206:12246  bal[betterA] += pairsInfo[_pair].amountA */\n      dup1\n      sload\n        /* \"contracts/Market.sol\":12084:12126  betsInfo[pairsInfo[_pair].betHashA].better */\n      swap5\n      swap6\n        /* \"contracts/Market.sol\":12154:12196  betsInfo[pairsInfo[_pair].betHashB].better */\n      swap2\n      swap1\n      swap3\n      and\n      swap4\n        /* \"contracts/Market.sol\":12206:12246  bal[betterA] += pairsInfo[_pair].amountA */\n      tag_481\n      swap1\n        /* \"contracts/Market.sol\":12222:12246  pairsInfo[_pair].amountA */\n      dup5\n      swap1\n        /* \"contracts/Market.sol\":12206:12246  bal[betterA] += pairsInfo[_pair].amountA */\n      tag_182\n      jump\t// in\n    tag_481:\n      swap1\n      swap2\n      sstore\n      pop\n      pop\n        /* \"contracts/Market.sol\":12272:12288  pairsInfo[_pair] */\n      0x00\n      dup5\n      dup2\n      mstore\n        /* \"contracts/Market.sol\":12272:12281  pairsInfo */\n      0x08\n        /* \"contracts/Market.sol\":12272:12288  pairsInfo[_pair] */\n      0x20\n      swap1\n      dup2\n      mstore\n      0x40\n      dup1\n      dup4\n      keccak256\n        /* \"contracts/Market.sol\":12272:12296  pairsInfo[_pair].amountB */\n      0x03\n      add\n      sload\n      sub(shl(0xa0, 0x01), 0x01)\n        /* \"contracts/Market.sol\":12256:12268  bal[betterB] */\n      dup6\n      and\n      dup5\n      mstore\n        /* \"contracts/Market.sol\":12256:12259  bal */\n      0x05\n        /* \"contracts/Market.sol\":12256:12268  bal[betterB] */\n      swap1\n      swap3\n      mstore\n      dup3\n      keccak256\n        /* \"contracts/Market.sol\":12256:12296  bal[betterB] += pairsInfo[_pair].amountB */\n      dup1\n      sload\n        /* \"contracts/Market.sol\":12272:12296  pairsInfo[_pair].amountB */\n      swap2\n      swap3\n        /* \"contracts/Market.sol\":12256:12268  bal[betterB] */\n      swap1\n      swap2\n        /* \"contracts/Market.sol\":12256:12296  bal[betterB] += pairsInfo[_pair].amountB */\n      tag_482\n      swap1\n        /* \"contracts/Market.sol\":12272:12296  pairsInfo[_pair].amountB */\n      dup5\n      swap1\n        /* \"contracts/Market.sol\":12256:12296  bal[betterB] += pairsInfo[_pair].amountB */\n      tag_182\n      jump\t// in\n    tag_482:\n      swap1\n      swap2\n      sstore\n      pop\n      pop\n      pop\n        /* \"contracts/Market.sol\":12306:12322  pairsInfo[_pair] */\n      0x00\n      swap3\n      dup4\n      mstore\n      pop\n      pop\n        /* \"contracts/Market.sol\":12306:12315  pairsInfo */\n      0x08\n        /* \"contracts/Market.sol\":12306:12322  pairsInfo[_pair] */\n      0x20\n      mstore\n      0x40\n      swap1\n      keccak256\n        /* \"contracts/Market.sol\":12306:12330  pairsInfo[_pair].settled */\n      0x04\n      add\n        /* \"contracts/Market.sol\":12306:12337  pairsInfo[_pair].settled = true */\n      dup1\n      sload\n      not(0xff)\n      and\n        /* \"contracts/Market.sol\":12333:12337  true */\n      0x01\n        /* \"contracts/Market.sol\":12306:12337  pairsInfo[_pair].settled = true */\n      swap1\n      dup2\n      or\n      swap1\n      swap2\n      sstore\n        /* \"contracts/Market.sol\":12333:12337  true */\n      swap1\n        /* \"contracts/Market.sol\":11924:12365  function _cancelPair(bytes32 _pair) private returns(bool) {... */\n      jump\t// out\n        /* \"contracts/Market.sol\":13654:14556  function _createBet(... */\n    tag_287:\n        /* \"contracts/Market.sol\":13853:13860  bytes32 */\n      0x00\n        /* \"contracts/Market.sol\":13876:13891  bytes32 betHash */\n      dup1\n        /* \"contracts/Market.sol\":13901:13907  uint i */\n      0x00\n        /* \"contracts/Market.sol\":13921:14270  while(i >= 0){... */\n    tag_484:\n        /* \"contracts/Market.sol\":14058:14062  bets */\n      0x04\n        /* \"contracts/Market.sol\":14058:14069  bets.length */\n      sload\n        /* \"contracts/Market.sol\":14002:14009  _better */\n      dup10\n      swap1\n        /* \"contracts/Market.sol\":14035:14039  this */\n      address\n      swap1\n        /* \"contracts/Market.sol\":14076:14077  i */\n      dup4\n      swap1\n        /* \"contracts/Market.sol\":14058:14073  bets.length + 1 */\n      tag_486\n      swap1\n        /* \"contracts/Market.sol\":14072:14073  1 */\n      0x01\n        /* \"contracts/Market.sol\":14058:14073  bets.length + 1 */\n      tag_182\n      jump\t// in\n    tag_486:\n        /* \"contracts/Market.sol\":14058:14077  bets.length + 1 + i */\n      tag_487\n      swap2\n      swap1\n      tag_182\n      jump\t// in\n    tag_487:\n        /* \"contracts/Market.sol\":13968:14158  abi.encodePacked(... */\n      mload(0x40)\n      not(0xffffffffffffffffffffffff)\n        /* \"#utility.yul\":2305:2307   */\n      0x60\n        /* \"#utility.yul\":2301:2316   */\n      swap5\n      dup6\n      shl\n        /* \"#utility.yul\":2297:2321   */\n      dup2\n      and\n        /* \"contracts/Market.sol\":13968:14158  abi.encodePacked(... */\n      0x20\n      dup4\n      add\n        /* \"#utility.yul\":2285:2322   */\n      mstore\n        /* \"#utility.yul\":2356:2371   */\n      swap3\n      swap1\n      swap4\n      shl\n        /* \"#utility.yul\":2352:2376   */\n      swap1\n      swap2\n      and\n        /* \"#utility.yul\":2338:2350   */\n      0x34\n      dup4\n      add\n        /* \"#utility.yul\":2331:2377   */\n      mstore\n        /* \"#utility.yul\":2393:2405   */\n      0x48\n      dup3\n      add\n        /* \"#utility.yul\":2386:2414   */\n      mstore\n        /* \"contracts/Market.sol\":14095:14110  block.timestamp */\n      timestamp\n        /* \"#utility.yul\":2430:2442   */\n      0x68\n      dup3\n      add\n        /* \"#utility.yul\":2423:2451   */\n      mstore\n        /* \"contracts/Market.sol\":14128:14144  block.difficulty */\n      difficulty\n        /* \"#utility.yul\":2467:2480   */\n      0x88\n      dup3\n      add\n        /* \"#utility.yul\":2460:2489   */\n      mstore\n        /* \"#utility.yul\":2505:2518   */\n      0xa8\n      add\n        /* \"contracts/Market.sol\":13968:14158  abi.encodePacked(... */\n      0x40\n      dup1\n      mload\n      not(0x1f)\n      dup2\n      dup5\n      sub\n      add\n      dup2\n      mstore\n      swap2\n      dup2\n      mstore\n        /* \"contracts/Market.sol\":13958:14159  keccak256(abi.encodePacked(... */\n      dup2\n      mload\n        /* \"contracts/Market.sol\":13968:14158  abi.encodePacked(... */\n      0x20\n        /* \"contracts/Market.sol\":13958:14159  keccak256(abi.encodePacked(... */\n      swap3\n      dup4\n      add\n      keccak256\n        /* \"contracts/Market.sol\":14176:14193  betsInfo[betHash] */\n      0x00\n      dup2\n      dup2\n      mstore\n        /* \"contracts/Market.sol\":14176:14184  betsInfo */\n      0x06\n        /* \"contracts/Market.sol\":14176:14193  betsInfo[betHash] */\n      swap1\n      swap4\n      mstore\n      swap2\n      keccak256\n        /* \"contracts/Market.sol\":14176:14199  betsInfo[betHash].stake */\n      0x02\n      add\n      sload\n        /* \"contracts/Market.sol\":13958:14159  keccak256(abi.encodePacked(... */\n      swap1\n      swap3\n      pop\n        /* \"contracts/Market.sol\":14173:14243  if(betsInfo[betHash].stake == 0){... */\n      tag_490\n      jumpi\n        /* \"contracts/Market.sol\":14223:14228  break */\n      jump(tag_485)\n        /* \"contracts/Market.sol\":14173:14243  if(betsInfo[betHash].stake == 0){... */\n    tag_490:\n        /* \"contracts/Market.sol\":14256:14259  i++ */\n      dup1\n      tag_491\n      dup2\n      tag_156\n      jump\t// in\n    tag_491:\n      swap2\n      pop\n      pop\n        /* \"contracts/Market.sol\":13921:14270  while(i >= 0){... */\n      jump(tag_484)\n    tag_485:\n      sub(shl(0xa0, 0x01), 0x01)\n        /* \"contracts/Market.sol\":14282:14306  _affiliate == address(0) */\n      dup9\n      and\n        /* \"contracts/Market.sol\":14279:14358  if(_affiliate == address(0)){... */\n      tag_492\n      jumpi\n        /* \"contracts/Market.sol\":14334:14337  app */\n      0x0a\n      0x00\n      swap1\n      sload\n      swap1\n      0x0100\n      exp\n      swap1\n      div\n      sub(shl(0xa0, 0x01), 0x01)\n      and\n      sub(shl(0xa0, 0x01), 0x01)\n        /* \"contracts/Market.sol\":14334:14345  app.ecoAddr */\n      and\n      0x09953b2f\n        /* \"contracts/Market.sol\":14334:14347  app.ecoAddr() */\n      mload(0x40)\n      dup2\n      0xffffffff\n      and\n      0xe0\n      shl\n      dup2\n      mstore\n      0x04\n      add\n      0x20\n      mload(0x40)\n      dup1\n      dup4\n      sub\n      dup2\n      dup7\n      dup1\n      extcodesize\n      iszero\n      dup1\n      iszero\n      tag_493\n      jumpi\n      0x00\n      dup1\n      revert\n    tag_493:\n      pop\n      gas\n      staticcall\n      iszero\n      dup1\n      iszero\n      tag_495\n      jumpi\n      returndatasize\n      0x00\n      dup1\n      returndatacopy\n      revert(0x00, returndatasize)\n    tag_495:\n      pop\n      pop\n      pop\n      pop\n      mload(0x40)\n      returndatasize\n      not(0x1f)\n      0x1f\n      dup3\n      add\n      and\n      dup3\n      add\n      dup1\n      0x40\n      mstore\n      pop\n      dup2\n      add\n      swap1\n      tag_496\n      swap2\n      swap1\n      tag_165\n      jump\t// in\n    tag_496:\n        /* \"contracts/Market.sol\":14321:14347  _affiliate = app.ecoAddr() */\n      swap8\n      pop\n        /* \"contracts/Market.sol\":14279:14358  if(_affiliate == address(0)){... */\n    tag_492:\n      pop\n        /* \"contracts/Market.sol\":14387:14456  Struct.MarketBet(_better, _affiliate, _stake, _matched, _odds, _side) */\n      0x40\n      dup1\n      mload\n      0xc0\n      dup2\n      add\n      dup3\n      mstore\n      sub(shl(0xa0, 0x01), 0x01)\n      swap10\n      dup11\n      and\n      dup1\n      dup3\n      mstore\n      swap9\n      dup11\n      and\n      0x20\n      dup1\n      dup4\n      add\n      swap2\n      dup3\n      mstore\n      dup3\n      dup5\n      add\n      swap10\n      dup11\n      mstore\n      0x60\n      dup4\n      add\n      swap9\n      dup10\n      mstore\n      0x80\n      dup4\n      add\n      swap8\n      dup9\n      mstore\n      0xa0\n      dup4\n      add\n      swap7\n      dup8\n      mstore\n      0x00\n        /* \"contracts/Market.sol\":14367:14384  betsInfo[betHash] */\n      dup6\n      dup2\n      mstore\n        /* \"contracts/Market.sol\":14367:14375  betsInfo */\n      0x06\n        /* \"contracts/Market.sol\":14367:14384  betsInfo[betHash] */\n      dup3\n      mstore\n      dup5\n      dup2\n      keccak256\n        /* \"contracts/Market.sol\":14367:14456  betsInfo[betHash] = Struct.MarketBet(_better, _affiliate, _stake, _matched, _odds, _side) */\n      swap4\n      mload\n      dup5\n      sload\n      swap1\n      dup15\n      and\n      not(sub(shl(0xa0, 0x01), 0x01))\n      swap2\n      dup3\n      and\n      or\n      dup6\n      sstore\n      swap3\n      mload\n      0x01\n      dup1\n      dup7\n      add\n      dup1\n      sload\n      swap3\n      swap1\n      swap16\n      and\n      swap2\n      swap1\n      swap5\n      and\n      or\n      swap1\n      swap13\n      sstore\n      swap9\n      mload\n      0x02\n      dup4\n      add\n      sstore\n      swap7\n      mload\n      0x03\n      dup3\n      add\n      sstore\n      swap5\n      mload\n      0x04\n      dup1\n      dup8\n      add\n      swap2\n      swap1\n      swap2\n      sstore\n      swap4\n      mload\n      0x05\n      swap1\n      swap6\n      add\n      swap5\n      swap1\n      swap5\n      sstore\n        /* \"contracts/Market.sol\":14466:14484  bets.push(betHash) */\n      dup3\n      sload\n      dup1\n      dup7\n      add\n      swap1\n      swap4\n      sstore\n      0x8a35acfbc15ff81a39ae7d344fd709f28e8600b4aa8c65c6b64bfe7fe36bd19b\n      swap1\n      swap3\n      add\n      dup3\n      swap1\n      sstore\n      pop\n        /* \"contracts/Market.sol\":14494:14511  userBets[_better] */\n      swap4\n      dup6\n      mstore\n        /* \"contracts/Market.sol\":14494:14502  userBets */\n      0x07\n        /* \"contracts/Market.sol\":14494:14511  userBets[_better] */\n      dup4\n      mstore\n      dup5\n      keccak256\n        /* \"contracts/Market.sol\":14494:14525  userBets[_better].push(betHash) */\n      dup1\n      sload\n      swap2\n      dup3\n      add\n      dup2\n      sstore\n      dup5\n      mstore\n      swap3\n      keccak256\n      swap1\n      swap2\n      add\n      dup2\n      swap1\n      sstore\n        /* \"contracts/Market.sol\":14367:14384  betsInfo[betHash] */\n      swap1\n        /* \"contracts/Market.sol\":13654:14556  function _createBet(... */\n      jump\t// out\n        /* \"contracts/Market.sol\":9047:10432  function _match(... */\n    tag_313:\n        /* \"contracts/Market.sol\":9244:9251  uint256 */\n      0x00\n        /* \"contracts/Market.sol\":9267:9287  uint256 betterAmount */\n      dup1\n        /* \"contracts/Market.sol\":9297:9316  uint256 makerAmount */\n      0x00\n        /* \"contracts/Market.sol\":9326:9342  bytes32 pairHash */\n      dup1\n        /* \"contracts/Market.sol\":9372:9378  _stake */\n      dup10\n        /* \"contracts/Market.sol\":9355:9368  _offeredStake */\n      dup10\n        /* \"contracts/Market.sol\":9355:9378  _offeredStake <= _stake */\n      gt\n        /* \"contracts/Market.sol\":9352:10198  if(_offeredStake <= _stake) {... */\n      tag_500\n      jumpi\n        /* \"contracts/Market.sol\":9409:9422  _offeredStake */\n      dup9\n      swap3\n      pop\n        /* \"contracts/Market.sol\":9467:9478  _odds - 100 */\n      tag_501\n        /* \"contracts/Market.sol\":9475:9478  100 */\n      0x64\n        /* \"contracts/Market.sol\":9467:9472  _odds */\n      dup10\n        /* \"contracts/Market.sol\":9467:9478  _odds - 100 */\n      tag_180\n      jump\t// in\n    tag_501:\n        /* \"contracts/Market.sol\":9450:9479  _offeredStake * (_odds - 100) */\n      tag_502\n      swap1\n        /* \"contracts/Market.sol\":9450:9463  _offeredStake */\n      dup11\n        /* \"contracts/Market.sol\":9450:9479  _offeredStake * (_odds - 100) */\n      tag_284\n      jump\t// in\n    tag_502:\n        /* \"contracts/Market.sol\":9436:9479  makerAmount = _offeredStake * (_odds - 100) */\n      swap2\n      pop\n        /* \"contracts/Market.sol\":9493:9511  makerAmount /= 100 */\n      tag_503\n        /* \"contracts/Market.sol\":9508:9511  100 */\n      0x64\n        /* \"contracts/Market.sol\":9436:9479  makerAmount = _offeredStake * (_odds - 100) */\n      dup4\n        /* \"contracts/Market.sol\":9493:9511  makerAmount /= 100 */\n      tag_286\n      jump\t// in\n    tag_503:\n      swap2\n      pop\n        /* \"contracts/Market.sol\":9528:9533  _side */\n      dup7\n        /* \"contracts/Market.sol\":9537:9538  1 */\n      0x01\n        /* \"contracts/Market.sol\":9528:9538  _side == 1 */\n      eq\n        /* \"contracts/Market.sol\":9525:9779  if(_side == 1){... */\n      iszero\n      tag_504\n      jumpi\n        /* \"contracts/Market.sol\":9568:9628  _createPair(_betHash,_selectedHash,betterAmount,makerAmount) */\n      tag_505\n        /* \"contracts/Market.sol\":9580:9588  _betHash */\n      dup7\n        /* \"contracts/Market.sol\":9589:9602  _selectedHash */\n      dup7\n        /* \"contracts/Market.sol\":9603:9615  betterAmount */\n      dup6\n        /* \"contracts/Market.sol\":9616:9627  makerAmount */\n      dup6\n        /* \"contracts/Market.sol\":9568:9579  _createPair */\n      tag_506\n        /* \"contracts/Market.sol\":9568:9628  _createPair(_betHash,_selectedHash,betterAmount,makerAmount) */\n      jump\t// in\n    tag_505:\n        /* \"contracts/Market.sol\":9557:9628  pairHash = _createPair(_betHash,_selectedHash,betterAmount,makerAmount) */\n      swap1\n      pop\n        /* \"contracts/Market.sol\":9352:10198  if(_offeredStake <= _stake) {... */\n      jump(tag_517)\n        /* \"contracts/Market.sol\":9525:9779  if(_side == 1){... */\n    tag_504:\n        /* \"contracts/Market.sol\":9664:9669  _side */\n      dup7\n        /* \"contracts/Market.sol\":9673:9674  2 */\n      0x02\n        /* \"contracts/Market.sol\":9664:9674  _side == 2 */\n      eq\n        /* \"contracts/Market.sol\":9661:9779  if(_side == 2){... */\n      iszero\n      tag_508\n      jumpi\n        /* \"contracts/Market.sol\":9704:9764  _createPair(_selectedHash,_betHash,makerAmount,betterAmount) */\n      tag_505\n        /* \"contracts/Market.sol\":9716:9729  _selectedHash */\n      dup6\n        /* \"contracts/Market.sol\":9730:9738  _betHash */\n      dup8\n        /* \"contracts/Market.sol\":9739:9750  makerAmount */\n      dup5\n        /* \"contracts/Market.sol\":9751:9763  betterAmount */\n      dup7\n        /* \"contracts/Market.sol\":9704:9715  _createPair */\n      tag_506\n        /* \"contracts/Market.sol\":9704:9764  _createPair(_selectedHash,_betHash,makerAmount,betterAmount) */\n      jump\t// in\n        /* \"contracts/Market.sol\":9661:9779  if(_side == 2){... */\n    tag_508:\n        /* \"contracts/Market.sol\":9352:10198  if(_offeredStake <= _stake) {... */\n      jump(tag_517)\n    tag_500:\n        /* \"contracts/Market.sol\":9832:9838  _stake */\n      dup10\n      swap3\n      pop\n        /* \"contracts/Market.sol\":9876:9887  _odds - 100 */\n      tag_511\n        /* \"contracts/Market.sol\":9884:9887  100 */\n      0x64\n        /* \"contracts/Market.sol\":9876:9881  _odds */\n      dup10\n        /* \"contracts/Market.sol\":9876:9887  _odds - 100 */\n      tag_180\n      jump\t// in\n    tag_511:\n        /* \"contracts/Market.sol\":9866:9888  _stake * (_odds - 100) */\n      tag_512\n      swap1\n        /* \"contracts/Market.sol\":9866:9872  _stake */\n      dup12\n        /* \"contracts/Market.sol\":9866:9888  _stake * (_odds - 100) */\n      tag_284\n      jump\t// in\n    tag_512:\n        /* \"contracts/Market.sol\":9852:9888  makerAmount = _stake * (_odds - 100) */\n      swap2\n      pop\n        /* \"contracts/Market.sol\":9902:9920  makerAmount /= 100 */\n      tag_513\n        /* \"contracts/Market.sol\":9917:9920  100 */\n      0x64\n        /* \"contracts/Market.sol\":9852:9888  makerAmount = _stake * (_odds - 100) */\n      dup4\n        /* \"contracts/Market.sol\":9902:9920  makerAmount /= 100 */\n      tag_286\n      jump\t// in\n    tag_513:\n      swap2\n      pop\n        /* \"contracts/Market.sol\":9937:9942  _side */\n      dup7\n        /* \"contracts/Market.sol\":9946:9947  1 */\n      0x01\n        /* \"contracts/Market.sol\":9937:9947  _side == 1 */\n      eq\n        /* \"contracts/Market.sol\":9934:10188  if(_side == 1){... */\n      iszero\n      tag_514\n      jumpi\n        /* \"contracts/Market.sol\":9977:10037  _createPair(_betHash,_selectedHash,betterAmount,makerAmount) */\n      tag_505\n        /* \"contracts/Market.sol\":9989:9997  _betHash */\n      dup7\n        /* \"contracts/Market.sol\":9998:10011  _selectedHash */\n      dup7\n        /* \"contracts/Market.sol\":10012:10024  betterAmount */\n      dup6\n        /* \"contracts/Market.sol\":10025:10036  makerAmount */\n      dup6\n        /* \"contracts/Market.sol\":9977:9988  _createPair */\n      tag_506\n        /* \"contracts/Market.sol\":9977:10037  _createPair(_betHash,_selectedHash,betterAmount,makerAmount) */\n      jump\t// in\n        /* \"contracts/Market.sol\":9934:10188  if(_side == 1){... */\n    tag_514:\n        /* \"contracts/Market.sol\":10073:10078  _side */\n      dup7\n        /* \"contracts/Market.sol\":10082:10083  2 */\n      0x02\n        /* \"contracts/Market.sol\":10073:10083  _side == 2 */\n      eq\n        /* \"contracts/Market.sol\":10070:10188  if(_side == 2){... */\n      iszero\n      tag_517\n      jumpi\n        /* \"contracts/Market.sol\":10113:10173  _createPair(_selectedHash,_betHash,makerAmount,betterAmount) */\n      tag_518\n        /* \"contracts/Market.sol\":10125:10138  _selectedHash */\n      dup6\n        /* \"contracts/Market.sol\":10139:10147  _betHash */\n      dup8\n        /* \"contracts/Market.sol\":10148:10159  makerAmount */\n      dup5\n        /* \"contracts/Market.sol\":10160:10172  betterAmount */\n      dup7\n        /* \"contracts/Market.sol\":10113:10124  _createPair */\n      tag_506\n        /* \"contracts/Market.sol\":10113:10173  _createPair(_selectedHash,_betHash,makerAmount,betterAmount) */\n      jump\t// in\n    tag_518:\n        /* \"contracts/Market.sol\":10102:10173  pairHash = _createPair(_selectedHash,_betHash,makerAmount,betterAmount) */\n      swap1\n      pop\n        /* \"contracts/Market.sol\":10070:10188  if(_side == 2){... */\n    tag_517:\n        /* \"contracts/Market.sol\":10207:10225  betPairs[_betHash] */\n      0x00\n      dup7\n      dup2\n      mstore\n        /* \"contracts/Market.sol\":10207:10215  betPairs */\n      0x09\n        /* \"contracts/Market.sol\":10207:10225  betPairs[_betHash] */\n      0x20\n      swap1\n      dup2\n      mstore\n      0x40\n      dup1\n      dup4\n      keccak256\n        /* \"contracts/Market.sol\":10207:10240  betPairs[_betHash].push(pairHash) */\n      dup1\n      sload\n      0x01\n      dup2\n      dup2\n      add\n      dup4\n      sstore\n      swap2\n      dup6\n      mstore\n      dup4\n      dup6\n      keccak256\n      add\n      dup6\n      swap1\n      sstore\n        /* \"contracts/Market.sol\":10250:10273  betPairs[_selectedHash] */\n      dup9\n      dup5\n      mstore\n      dup2\n      dup5\n      keccak256\n        /* \"contracts/Market.sol\":10250:10288  betPairs[_selectedHash].push(pairHash) */\n      dup1\n      sload\n      swap2\n      dup3\n      add\n      dup2\n      sstore\n      dup5\n      mstore\n      dup3\n      dup5\n      keccak256\n      add\n      dup5\n      swap1\n      sstore\n        /* \"contracts/Market.sol\":10298:10316  betsInfo[_betHash] */\n      dup9\n      dup4\n      mstore\n        /* \"contracts/Market.sol\":10298:10306  betsInfo */\n      0x06\n        /* \"contracts/Market.sol\":10298:10316  betsInfo[_betHash] */\n      swap1\n      swap2\n      mstore\n      dup2\n      keccak256\n        /* \"contracts/Market.sol\":10298:10324  betsInfo[_betHash].matched */\n      0x03\n      add\n        /* \"contracts/Market.sol\":10298:10340  betsInfo[_betHash].matched += betterAmount */\n      dup1\n      sload\n        /* \"contracts/Market.sol\":10328:10340  betterAmount */\n      dup6\n      swap3\n        /* \"contracts/Market.sol\":10207:10225  betPairs[_betHash] */\n      swap1\n        /* \"contracts/Market.sol\":10298:10340  betsInfo[_betHash].matched += betterAmount */\n      tag_521\n      swap1\n        /* \"contracts/Market.sol\":10328:10340  betterAmount */\n      dup5\n      swap1\n        /* \"contracts/Market.sol\":10298:10340  betsInfo[_betHash].matched += betterAmount */\n      tag_182\n      jump\t// in\n    tag_521:\n      swap1\n      swap2\n      sstore\n      pop\n      pop\n        /* \"contracts/Market.sol\":10350:10373  betsInfo[_selectedHash] */\n      0x00\n      dup6\n      dup2\n      mstore\n        /* \"contracts/Market.sol\":10350:10358  betsInfo */\n      0x06\n        /* \"contracts/Market.sol\":10350:10373  betsInfo[_selectedHash] */\n      0x20\n      mstore\n      0x40\n      dup2\n      keccak256\n        /* \"contracts/Market.sol\":10350:10381  betsInfo[_selectedHash].matched */\n      0x03\n      add\n        /* \"contracts/Market.sol\":10350:10396  betsInfo[_selectedHash].matched += makerAmount */\n      dup1\n      sload\n        /* \"contracts/Market.sol\":10385:10396  makerAmount */\n      dup5\n      swap3\n        /* \"contracts/Market.sol\":10350:10373  betsInfo[_selectedHash] */\n      swap1\n        /* \"contracts/Market.sol\":10350:10396  betsInfo[_selectedHash].matched += makerAmount */\n      tag_522\n      swap1\n        /* \"contracts/Market.sol\":10385:10396  makerAmount */\n      dup5\n      swap1\n        /* \"contracts/Market.sol\":10350:10396  betsInfo[_selectedHash].matched += makerAmount */\n      tag_182\n      jump\t// in\n    tag_522:\n      swap1\n      swap2\n      sstore\n      pop\n        /* \"contracts/Market.sol\":10413:10425  betterAmount */\n      swap3\n      swap11\n        /* \"contracts/Market.sol\":9047:10432  function _match(... */\n      swap10\n      pop\n      pop\n      pop\n      pop\n      pop\n      pop\n      pop\n      pop\n      pop\n      pop\n      jump\t// out\n        /* \"contracts/Market.sol\":14562:15301  function _createPair(... */\n    tag_506:\n        /* \"contracts/Market.sol\":14720:14727  bytes32 */\n      0x00\n        /* \"contracts/Market.sol\":14743:14759  bytes32 pairHash */\n      dup1\n        /* \"contracts/Market.sol\":14769:14775  uint i */\n      0x00\n        /* \"contracts/Market.sol\":14789:15142  while(i >= 0){... */\n    tag_524:\n        /* \"contracts/Market.sol\":14925:14930  pairs */\n      0x03\n        /* \"contracts/Market.sol\":14925:14937  pairs.length */\n      sload\n        /* \"contracts/Market.sol\":14871:14880  _betHashA */\n      dup8\n      swap1\n        /* \"contracts/Market.sol\":14898:14907  _betHashB */\n      dup8\n      swap1\n        /* \"contracts/Market.sol\":14944:14945  i */\n      dup4\n      swap1\n        /* \"contracts/Market.sol\":14925:14941  pairs.length + 1 */\n      tag_526\n      swap1\n        /* \"contracts/Market.sol\":14940:14941  1 */\n      0x01\n        /* \"contracts/Market.sol\":14925:14941  pairs.length + 1 */\n      tag_182\n      jump\t// in\n    tag_526:\n        /* \"contracts/Market.sol\":14925:14945  pairs.length + 1 + i */\n      tag_527\n      swap2\n      swap1\n      tag_182\n      jump\t// in\n    tag_527:\n        /* \"contracts/Market.sol\":14837:15026  abi.encodePacked(... */\n      0x40\n      dup1\n      mload\n      0x20\n      dup2\n      add\n        /* \"#utility.yul\":2770:2789   */\n      swap5\n      swap1\n      swap5\n      mstore\n        /* \"#utility.yul\":2805:2817   */\n      dup4\n      add\n        /* \"#utility.yul\":2798:2826   */\n      swap2\n      swap1\n      swap2\n      mstore\n        /* \"#utility.yul\":2842:2854   */\n      0x60\n      dup3\n      add\n        /* \"#utility.yul\":2835:2863   */\n      mstore\n        /* \"contracts/Market.sol\":14963:14978  block.timestamp */\n      timestamp\n        /* \"#utility.yul\":2879:2891   */\n      0x80\n      dup3\n      add\n        /* \"#utility.yul\":2872:2900   */\n      mstore\n        /* \"contracts/Market.sol\":14996:15012  block.difficulty */\n      difficulty\n        /* \"#utility.yul\":2916:2929   */\n      0xa0\n      dup3\n      add\n        /* \"#utility.yul\":2909:2938   */\n      mstore\n        /* \"#utility.yul\":2954:2967   */\n      0xc0\n      add\n        /* \"contracts/Market.sol\":14837:15026  abi.encodePacked(... */\n      0x40\n      dup1\n      mload\n      not(0x1f)\n      dup2\n      dup5\n      sub\n      add\n      dup2\n      mstore\n      swap2\n      dup2\n      mstore\n        /* \"contracts/Market.sol\":14827:15027  keccak256(abi.encodePacked(... */\n      dup2\n      mload\n        /* \"contracts/Market.sol\":14837:15026  abi.encodePacked(... */\n      0x20\n        /* \"contracts/Market.sol\":14827:15027  keccak256(abi.encodePacked(... */\n      swap3\n      dup4\n      add\n      keccak256\n        /* \"contracts/Market.sol\":15044:15063  pairsInfo[pairHash] */\n      0x00\n      dup2\n      dup2\n      mstore\n        /* \"contracts/Market.sol\":15044:15053  pairsInfo */\n      0x08\n        /* \"contracts/Market.sol\":15044:15063  pairsInfo[pairHash] */\n      swap1\n      swap4\n      mstore\n      swap2\n      keccak256\n        /* \"contracts/Market.sol\":15044:15071  pairsInfo[pairHash].amountA */\n      0x02\n      add\n      sload\n        /* \"contracts/Market.sol\":14827:15027  keccak256(abi.encodePacked(... */\n      swap1\n      swap3\n      pop\n        /* \"contracts/Market.sol\":15041:15115  if(pairsInfo[pairHash].amountA == 0){... */\n      tag_530\n      jumpi\n        /* \"contracts/Market.sol\":15095:15100  break */\n      jump(tag_525)\n        /* \"contracts/Market.sol\":15041:15115  if(pairsInfo[pairHash].amountA == 0){... */\n    tag_530:\n        /* \"contracts/Market.sol\":15128:15131  i++ */\n      dup1\n      tag_531\n      dup2\n      tag_156\n      jump\t// in\n    tag_531:\n      swap2\n      pop\n      pop\n        /* \"contracts/Market.sol\":14789:15142  while(i >= 0){... */\n      jump(tag_524)\n    tag_525:\n      pop\n        /* \"contracts/Market.sol\":15173:15239  Struct.MarketPair(_betHashA, _betHashB, _amountA, _amountB, false) */\n      0x40\n      dup1\n      mload\n      0xa0\n      dup2\n      add\n      dup3\n      mstore\n      swap7\n      dup8\n      mstore\n      0x20\n      dup1\n      dup9\n      add\n      swap7\n      dup8\n      mstore\n      dup8\n      dup3\n      add\n      swap6\n      dup7\n      mstore\n      0x60\n      dup9\n      add\n      swap5\n      dup6\n      mstore\n      0x00\n      0x80\n      dup10\n      add\n      dup2\n      dup2\n      mstore\n        /* \"contracts/Market.sol\":15151:15170  pairsInfo[pairHash] */\n      dup5\n      dup3\n      mstore\n        /* \"contracts/Market.sol\":15151:15160  pairsInfo */\n      0x08\n        /* \"contracts/Market.sol\":15151:15170  pairsInfo[pairHash] */\n      swap1\n      swap3\n      mstore\n      swap2\n      dup3\n      keccak256\n        /* \"contracts/Market.sol\":15151:15239  pairsInfo[pairHash] = Struct.MarketPair(_betHashA, _betHashB, _amountA, _amountB, false) */\n      swap8\n      mload\n      dup9\n      sstore\n      swap6\n      mload\n        /* \"contracts/Market.sol\":15173:15239  Struct.MarketPair(_betHashA, _betHashB, _amountA, _amountB, false) */\n      0x01\n        /* \"contracts/Market.sol\":15151:15239  pairsInfo[pairHash] = Struct.MarketPair(_betHashA, _betHashB, _amountA, _amountB, false) */\n      dup1\n      dup10\n      add\n      swap2\n      swap1\n      swap2\n      sstore\n      swap5\n      mload\n      0x02\n      dup9\n      add\n      sstore\n      swap3\n      mload\n      0x03\n      dup1\n      dup9\n      add\n      swap2\n      swap1\n      swap2\n      sstore\n      swap5\n      mload\n      0x04\n      swap1\n      swap7\n      add\n      dup1\n      sload\n      not(0xff)\n      and\n      swap7\n      iszero\n      iszero\n      swap7\n      swap1\n      swap7\n      or\n      swap1\n      swap6\n      sstore\n      pop\n        /* \"contracts/Market.sol\":15249:15269  pairs.push(pairHash) */\n      dup3\n      sload\n      swap2\n      dup3\n      add\n      dup4\n      sstore\n      swap2\n      swap1\n      swap2\n      mstore\n      0xc2575a0e9e593c00f959f8c92f12db2869c3395a3b0502d05e2516446f71f85b\n      add\n      dup2\n      swap1\n      sstore\n        /* \"contracts/Market.sol\":15151:15170  pairsInfo[pairHash] */\n      swap1\n        /* \"contracts/Market.sol\":14562:15301  function _createPair(... */\n      jump\t// out\n        /* \"#utility.yul\":14:271   */\n    tag_40:\n        /* \"#utility.yul\":73:79   */\n      0x00\n        /* \"#utility.yul\":126:128   */\n      0x20\n        /* \"#utility.yul\":114:123   */\n      dup3\n        /* \"#utility.yul\":105:112   */\n      dup5\n        /* \"#utility.yul\":101:124   */\n      sub\n        /* \"#utility.yul\":97:129   */\n      slt\n        /* \"#utility.yul\":94:96   */\n      iszero\n      tag_535\n      jumpi\n        /* \"#utility.yul\":147:153   */\n      dup1\n        /* \"#utility.yul\":139:145   */\n      dup2\n        /* \"#utility.yul\":132:154   */\n      revert\n        /* \"#utility.yul\":94:96   */\n    tag_535:\n        /* \"#utility.yul\":191:200   */\n      dup2\n        /* \"#utility.yul\":178:201   */\n      calldataload\n        /* \"#utility.yul\":210:241   */\n      tag_536\n        /* \"#utility.yul\":235:240   */\n      dup2\n        /* \"#utility.yul\":210:241   */\n      tag_537\n      jump\t// in\n    tag_536:\n        /* \"#utility.yul\":260:265   */\n      swap4\n        /* \"#utility.yul\":84:271   */\n      swap3\n      pop\n      pop\n      pop\n      jump\t// out\n        /* \"#utility.yul\":276:537   */\n    tag_165:\n        /* \"#utility.yul\":346:352   */\n      0x00\n        /* \"#utility.yul\":399:401   */\n      0x20\n        /* \"#utility.yul\":387:396   */\n      dup3\n        /* \"#utility.yul\":378:385   */\n      dup5\n        /* \"#utility.yul\":374:397   */\n      sub\n        /* \"#utility.yul\":370:402   */\n      slt\n        /* \"#utility.yul\":367:369   */\n      iszero\n      tag_539\n      jumpi\n        /* \"#utility.yul\":420:426   */\n      dup1\n        /* \"#utility.yul\":412:418   */\n      dup2\n        /* \"#utility.yul\":405:427   */\n      revert\n        /* \"#utility.yul\":367:369   */\n    tag_539:\n        /* \"#utility.yul\":457:466   */\n      dup2\n        /* \"#utility.yul\":451:467   */\n      mload\n        /* \"#utility.yul\":476:507   */\n      tag_536\n        /* \"#utility.yul\":501:506   */\n      dup2\n        /* \"#utility.yul\":476:507   */\n      tag_537\n      jump\t// in\n        /* \"#utility.yul\":542:1140   */\n    tag_87:\n        /* \"#utility.yul\":634:640   */\n      0x00\n        /* \"#utility.yul\":642:648   */\n      dup1\n        /* \"#utility.yul\":650:656   */\n      0x00\n        /* \"#utility.yul\":658:664   */\n      dup1\n        /* \"#utility.yul\":666:672   */\n      0x00\n        /* \"#utility.yul\":719:722   */\n      0xa0\n        /* \"#utility.yul\":707:716   */\n      dup7\n        /* \"#utility.yul\":698:705   */\n      dup9\n        /* \"#utility.yul\":694:717   */\n      sub\n        /* \"#utility.yul\":690:723   */\n      slt\n        /* \"#utility.yul\":687:689   */\n      iszero\n      tag_542\n      jumpi\n        /* \"#utility.yul\":741:747   */\n      dup1\n        /* \"#utility.yul\":733:739   */\n      dup2\n        /* \"#utility.yul\":726:748   */\n      revert\n        /* \"#utility.yul\":687:689   */\n    tag_542:\n        /* \"#utility.yul\":785:794   */\n      dup6\n        /* \"#utility.yul\":772:795   */\n      calldataload\n        /* \"#utility.yul\":804:835   */\n      tag_543\n        /* \"#utility.yul\":829:834   */\n      dup2\n        /* \"#utility.yul\":804:835   */\n      tag_537\n      jump\t// in\n    tag_543:\n        /* \"#utility.yul\":854:859   */\n      swap5\n      pop\n        /* \"#utility.yul\":906:908   */\n      0x20\n        /* \"#utility.yul\":891:909   */\n      dup7\n      add\n        /* \"#utility.yul\":878:910   */\n      calldataload\n      swap4\n      pop\n        /* \"#utility.yul\":957:959   */\n      0x40\n        /* \"#utility.yul\":942:960   */\n      dup7\n      add\n        /* \"#utility.yul\":929:961   */\n      calldataload\n      swap3\n      pop\n        /* \"#utility.yul\":1008:1010   */\n      0x60\n        /* \"#utility.yul\":993:1011   */\n      dup7\n      add\n        /* \"#utility.yul\":980:1012   */\n      calldataload\n      swap2\n      pop\n        /* \"#utility.yul\":1064:1067   */\n      0x80\n        /* \"#utility.yul\":1049:1068   */\n      dup7\n      add\n        /* \"#utility.yul\":1036:1069   */\n      calldataload\n        /* \"#utility.yul\":1078:1108   */\n      tag_544\n        /* \"#utility.yul\":1036:1069   */\n      dup2\n        /* \"#utility.yul\":1078:1108   */\n      tag_545\n      jump\t// in\n    tag_544:\n        /* \"#utility.yul\":1127:1134   */\n      dup1\n        /* \"#utility.yul\":1117:1134   */\n      swap2\n      pop\n      pop\n        /* \"#utility.yul\":677:1140   */\n      swap3\n      swap6\n      pop\n      swap3\n      swap6\n      swap1\n      swap4\n      pop\n      jump\t// out\n        /* \"#utility.yul\":1145:1400   */\n    tag_141:\n        /* \"#utility.yul\":1212:1218   */\n      0x00\n        /* \"#utility.yul\":1265:1267   */\n      0x20\n        /* \"#utility.yul\":1253:1262   */\n      dup3\n        /* \"#utility.yul\":1244:1251   */\n      dup5\n        /* \"#utility.yul\":1240:1263   */\n      sub\n        /* \"#utility.yul\":1236:1268   */\n      slt\n        /* \"#utility.yul\":1233:1235   */\n      iszero\n      tag_547\n      jumpi\n        /* \"#utility.yul\":1286:1292   */\n      dup1\n        /* \"#utility.yul\":1278:1284   */\n      dup2\n        /* \"#utility.yul\":1271:1293   */\n      revert\n        /* \"#utility.yul\":1233:1235   */\n    tag_547:\n        /* \"#utility.yul\":1323:1332   */\n      dup2\n        /* \"#utility.yul\":1317:1333   */\n      mload\n        /* \"#utility.yul\":1342:1370   */\n      tag_536\n        /* \"#utility.yul\":1364:1369   */\n      dup2\n        /* \"#utility.yul\":1342:1370   */\n      tag_545\n      jump\t// in\n        /* \"#utility.yul\":1405:1595   */\n    tag_31:\n        /* \"#utility.yul\":1464:1470   */\n      0x00\n        /* \"#utility.yul\":1517:1519   */\n      0x20\n        /* \"#utility.yul\":1505:1514   */\n      dup3\n        /* \"#utility.yul\":1496:1503   */\n      dup5\n        /* \"#utility.yul\":1492:1515   */\n      sub\n        /* \"#utility.yul\":1488:1520   */\n      slt\n        /* \"#utility.yul\":1485:1487   */\n      iszero\n      tag_550\n      jumpi\n        /* \"#utility.yul\":1538:1544   */\n      dup1\n        /* \"#utility.yul\":1530:1536   */\n      dup2\n        /* \"#utility.yul\":1523:1545   */\n      revert\n        /* \"#utility.yul\":1485:1487   */\n    tag_550:\n      pop\n        /* \"#utility.yul\":1566:1589   */\n      calldataload\n      swap2\n        /* \"#utility.yul\":1475:1595   */\n      swap1\n      pop\n      jump\t// out\n        /* \"#utility.yul\":1795:1989   */\n    tag_130:\n        /* \"#utility.yul\":1865:1871   */\n      0x00\n        /* \"#utility.yul\":1918:1920   */\n      0x20\n        /* \"#utility.yul\":1906:1915   */\n      dup3\n        /* \"#utility.yul\":1897:1904   */\n      dup5\n        /* \"#utility.yul\":1893:1916   */\n      sub\n        /* \"#utility.yul\":1889:1921   */\n      slt\n        /* \"#utility.yul\":1886:1888   */\n      iszero\n      tag_554\n      jumpi\n        /* \"#utility.yul\":1939:1945   */\n      dup1\n        /* \"#utility.yul\":1931:1937   */\n      dup2\n        /* \"#utility.yul\":1924:1946   */\n      revert\n        /* \"#utility.yul\":1886:1888   */\n    tag_554:\n      pop\n        /* \"#utility.yul\":1967:1983   */\n      mload\n      swap2\n        /* \"#utility.yul\":1876:1989   */\n      swap1\n      pop\n      jump\t// out\n        /* \"#utility.yul\":4750:5385   */\n    tag_34:\n        /* \"#utility.yul\":4921:4923   */\n      0x20\n        /* \"#utility.yul\":4973:4994   */\n      dup1\n      dup3\n      mstore\n        /* \"#utility.yul\":5043:5056   */\n      dup3\n      mload\n        /* \"#utility.yul\":4946:4964   */\n      dup3\n      dup3\n      add\n        /* \"#utility.yul\":5065:5087   */\n      dup2\n      swap1\n      mstore\n        /* \"#utility.yul\":4892:4896   */\n      0x00\n      swap2\n        /* \"#utility.yul\":4921:4923   */\n      swap1\n        /* \"#utility.yul\":5144:5159   */\n      dup5\n      dup3\n      add\n      swap1\n        /* \"#utility.yul\":5118:5120   */\n      0x40\n        /* \"#utility.yul\":5103:5121   */\n      dup6\n      add\n      swap1\n        /* \"#utility.yul\":4892:4896   */\n      dup5\n        /* \"#utility.yul\":5190:5359   */\n    tag_563:\n        /* \"#utility.yul\":5204:5210   */\n      dup2\n        /* \"#utility.yul\":5201:5202   */\n      dup2\n        /* \"#utility.yul\":5198:5211   */\n      lt\n        /* \"#utility.yul\":5190:5359   */\n      iszero\n      tag_565\n      jumpi\n        /* \"#utility.yul\":5265:5278   */\n      dup4\n      mload\n        /* \"#utility.yul\":5253:5279   */\n      dup4\n      mstore\n        /* \"#utility.yul\":5334:5349   */\n      swap3\n      dup5\n      add\n      swap3\n        /* \"#utility.yul\":5299:5311   */\n      swap2\n      dup5\n      add\n      swap2\n        /* \"#utility.yul\":5226:5227   */\n      0x01\n        /* \"#utility.yul\":5219:5228   */\n      add\n        /* \"#utility.yul\":5190:5359   */\n      jump(tag_563)\n    tag_565:\n      pop\n        /* \"#utility.yul\":5376:5379   */\n      swap1\n      swap7\n        /* \"#utility.yul\":4901:5385   */\n      swap6\n      pop\n      pop\n      pop\n      pop\n      pop\n      pop\n      jump\t// out\n        /* \"#utility.yul\":7162:7507   */\n    tag_169:\n        /* \"#utility.yul\":7364:7366   */\n      0x20\n        /* \"#utility.yul\":7346:7367   */\n      dup1\n      dup3\n      mstore\n        /* \"#utility.yul\":7403:7405   */\n      0x15\n        /* \"#utility.yul\":7383:7401   */\n      swap1\n      dup3\n      add\n        /* \"#utility.yul\":7376:7406   */\n      mstore\n      shl(0x5a, 0x18d85b1b195c881b9bdd08185d5d1a1bdc9a5e9959)\n        /* \"#utility.yul\":7437:7439   */\n      0x40\n        /* \"#utility.yul\":7422:7440   */\n      dup3\n      add\n        /* \"#utility.yul\":7415:7466   */\n      mstore\n        /* \"#utility.yul\":7498:7500   */\n      0x60\n        /* \"#utility.yul\":7483:7501   */\n      add\n      swap1\n        /* \"#utility.yul\":7336:7507   */\n      jump\t// out\n        /* \"#utility.yul\":11267:11395   */\n    tag_182:\n        /* \"#utility.yul\":11307:11310   */\n      0x00\n        /* \"#utility.yul\":11338:11339   */\n      dup3\n        /* \"#utility.yul\":11334:11340   */\n      not\n        /* \"#utility.yul\":11331:11332   */\n      dup3\n        /* \"#utility.yul\":11328:11341   */\n      gt\n        /* \"#utility.yul\":11325:11327   */\n      iszero\n      tag_585\n      jumpi\n        /* \"#utility.yul\":11344:11362   */\n      tag_585\n      tag_586\n      jump\t// in\n    tag_585:\n      pop\n        /* \"#utility.yul\":11380:11389   */\n      add\n      swap1\n        /* \"#utility.yul\":11315:11395   */\n      jump\t// out\n        /* \"#utility.yul\":11400:11617   */\n    tag_286:\n        /* \"#utility.yul\":11440:11441   */\n      0x00\n        /* \"#utility.yul\":11466:11467   */\n      dup3\n        /* \"#utility.yul\":11456:11458   */\n      tag_588\n      jumpi\n      shl(0xe0, 0x4e487b71)\n        /* \"#utility.yul\":11491:11522   */\n      dup2\n      mstore\n        /* \"#utility.yul\":11545:11549   */\n      0x12\n        /* \"#utility.yul\":11542:11543   */\n      0x04\n        /* \"#utility.yul\":11535:11550   */\n      mstore\n        /* \"#utility.yul\":11573:11577   */\n      0x24\n        /* \"#utility.yul\":11498:11499   */\n      dup2\n        /* \"#utility.yul\":11563:11578   */\n      revert\n        /* \"#utility.yul\":11456:11458   */\n    tag_588:\n      pop\n        /* \"#utility.yul\":11602:11611   */\n      div\n      swap1\n        /* \"#utility.yul\":11446:11617   */\n      jump\t// out\n        /* \"#utility.yul\":11622:11790   */\n    tag_284:\n        /* \"#utility.yul\":11662:11669   */\n      0x00\n        /* \"#utility.yul\":11728:11729   */\n      dup2\n        /* \"#utility.yul\":11724:11725   */\n      0x00\n        /* \"#utility.yul\":11720:11726   */\n      not\n        /* \"#utility.yul\":11716:11730   */\n      div\n        /* \"#utility.yul\":11713:11714   */\n      dup4\n        /* \"#utility.yul\":11710:11731   */\n      gt\n        /* \"#utility.yul\":11705:11706   */\n      dup3\n        /* \"#utility.yul\":11698:11707   */\n      iszero\n        /* \"#utility.yul\":11691:11708   */\n      iszero\n        /* \"#utility.yul\":11687:11732   */\n      and\n        /* \"#utility.yul\":11684:11686   */\n      iszero\n      tag_591\n      jumpi\n        /* \"#utility.yul\":11735:11753   */\n      tag_591\n      tag_586\n      jump\t// in\n    tag_591:\n      pop\n        /* \"#utility.yul\":11775:11784   */\n      mul\n      swap1\n        /* \"#utility.yul\":11674:11790   */\n      jump\t// out\n        /* \"#utility.yul\":11795:11920   */\n    tag_180:\n        /* \"#utility.yul\":11835:11839   */\n      0x00\n        /* \"#utility.yul\":11863:11864   */\n      dup3\n        /* \"#utility.yul\":11860:11861   */\n      dup3\n        /* \"#utility.yul\":11857:11865   */\n      lt\n        /* \"#utility.yul\":11854:11856   */\n      iszero\n      tag_594\n      jumpi\n        /* \"#utility.yul\":11868:11886   */\n      tag_594\n      tag_586\n      jump\t// in\n    tag_594:\n      pop\n        /* \"#utility.yul\":11905:11914   */\n      sub\n      swap1\n        /* \"#utility.yul\":11844:11920   */\n      jump\t// out\n        /* \"#utility.yul\":11925:12060   */\n    tag_156:\n        /* \"#utility.yul\":11964:11967   */\n      0x00\n      not(0x00)\n        /* \"#utility.yul\":11985:12002   */\n      dup3\n      eq\n        /* \"#utility.yul\":11982:11984   */\n      iszero\n      tag_597\n      jumpi\n        /* \"#utility.yul\":12005:12023   */\n      tag_597\n      tag_586\n      jump\t// in\n    tag_597:\n      pop\n        /* \"#utility.yul\":12052:12053   */\n      0x01\n        /* \"#utility.yul\":12041:12054   */\n      add\n      swap1\n        /* \"#utility.yul\":11972:12060   */\n      jump\t// out\n        /* \"#utility.yul\":12065:12192   */\n    tag_586:\n        /* \"#utility.yul\":12126:12136   */\n      0x4e487b71\n        /* \"#utility.yul\":12121:12124   */\n      0xe0\n        /* \"#utility.yul\":12117:12137   */\n      shl\n        /* \"#utility.yul\":12114:12115   */\n      0x00\n        /* \"#utility.yul\":12107:12138   */\n      mstore\n        /* \"#utility.yul\":12157:12161   */\n      0x11\n        /* \"#utility.yul\":12154:12155   */\n      0x04\n        /* \"#utility.yul\":12147:12162   */\n      mstore\n        /* \"#utility.yul\":12181:12185   */\n      0x24\n        /* \"#utility.yul\":12178:12179   */\n      0x00\n        /* \"#utility.yul\":12171:12186   */\n      revert\n        /* \"#utility.yul\":12197:12328   */\n    tag_537:\n      sub(shl(0xa0, 0x01), 0x01)\n        /* \"#utility.yul\":12272:12303   */\n      dup2\n      and\n        /* \"#utility.yul\":12262:12304   */\n      dup2\n      eq\n        /* \"#utility.yul\":12252:12254   */\n      tag_112\n      jumpi\n        /* \"#utility.yul\":12318:12319   */\n      0x00\n        /* \"#utility.yul\":12315:12316   */\n      dup1\n        /* \"#utility.yul\":12308:12320   */\n      revert\n        /* \"#utility.yul\":12333:12451   */\n    tag_545:\n        /* \"#utility.yul\":12419:12424   */\n      dup1\n        /* \"#utility.yul\":12412:12425   */\n      iszero\n        /* \"#utility.yul\":12405:12426   */\n      iszero\n        /* \"#utility.yul\":12398:12403   */\n      dup2\n        /* \"#utility.yul\":12395:12427   */\n      eq\n        /* \"#utility.yul\":12385:12387   */\n      tag_112\n      jumpi\n        /* \"#utility.yul\":12441:12442   */\n      0x00\n        /* \"#utility.yul\":12438:12439   */\n      dup1\n        /* \"#utility.yul\":12431:12443   */\n      revert\n\n    auxdata: 0xa26469706673582212207963030a62dd711e6fb11fd2b0ed7a4f5aa86349c1767554100639792cc9d31464736f6c63430008040033\n}\n",
				"bytecode": {
					"linkReferences": {},
					"object": "60c060408190526000600255600154600a80546001600160a01b0319166001600160a01b03909216918217905562966ed960e31b8252906304b376c89060c49060209060048186803b1580156200005557600080fd5b505afa1580156200006a573d6000803e3d6000fd5b505050506040513d601f19601f82011682018060405250810190620000909190620000f3565b60601b6001600160601b03191660a052348015620000ad57600080fd5b506040516200327c3803806200327c833981016040819052620000d09162000123565b6001600081905560809190915280546001600160a01b031916331790556200013c565b60006020828403121562000105578081fd5b81516001600160a01b03811681146200011c578182fd5b9392505050565b60006020828403121562000135578081fd5b5051919050565b60805160a05160601c6130d8620001a460003960008181610650015281816107740152818161103c0152818161112901526112dd01526000818161023d0152818161097b01528181610bef01528181610d9b015281816116af01526117df01526130d86000f3fe608060405234801561001057600080fd5b50600436106101215760003560e01c80637a47d494116100ad578063b8e5303d11610071578063b8e5303d14610295578063ba8006c614610366578063d0ed729514610379578063ea8a1af01461038c578063f8b2cb4f1461039457600080fd5b80637a47d494146102385780637d7f92321461025f5780638df8280014610272578063a6afd5fd14610285578063ae8cd0901461028d57600080fd5b806337e8c09e116100f457806337e8c09e1461018a57806351cff8d9146101f2578063675f6537146102155780636bef026714610228578063767eb5ef1461023057600080fd5b8063200d2ed21461012657806325c22a45146101425780632940ff1e146101625780632d56657d14610177575b600080fd5b61012f60025481565b6040519081526020015b60405180910390f35b610155610150366004612f3d565b6103bd565b6040516101399190612f6d565b610175610170366004612f3d565b61041f565b005b610155610185366004612e8d565b6104ad565b61019d610198366004612f3d565b610517565b604051610139919081516001600160a01b0390811682526020808401519091169082015260408083015190820152606080830151908201526080808301519082015260a0918201519181019190915260c00190565b610205610200366004612e8d565b6105c7565b6040519015158152602001610139565b610175610223366004612f3d565b610894565b610205610969565b610155610a62565b61012f7f000000000000000000000000000000000000000000000000000000000000000081565b61017561026d366004612f3d565b610aba565b610205610280366004612f3d565b610bdd565b610155610d33565b610205610d89565b6103226102a3366004612f3d565b6040805160a08101825260008082526020820181905291810182905260608101829052608081019190915250600090815260086020908152604091829020825160a081018452815481526001820154928101929092526002810154928201929092526003820154606082015260049091015460ff161515608082015290565b6040516101399190600060a0820190508251825260208301516020830152604083015160408301526060830151606083015260808301511515608083015292915050565b61012f610374366004612ecc565b610ee2565b610205610387366004612f3d565b61169d565b6102056117cd565b61012f6103a2366004612e8d565b6001600160a01b031660009081526005602052604090205490565b60008181526009602090815260409182902080548351818402810184019094528084526060939283018282801561041357602002820191906000526020600020905b8154815260200190600101908083116103ff575b50505050509050919050565b6000818152600660205260409020546001600160a01b031633146104805760405162461bcd60e51b81526020600482015260136024820152723ab730baba3437b934bd32b21031b0b63632b960691b60448201526064015b60405180910390fd5b600254158061049157506002546003145b156104a15761049f816118cf565b505b6104aa81610aba565b50565b6001600160a01b03811660009081526007602090815260409182902080548351818402810184019094528084526060939283018282801561041357602002820191906000526020600020908154815260200190600101908083116103ff5750505050509050919050565b6105626040518060c0016040528060006001600160a01b0316815260200160006001600160a01b03168152602001600081526020016000815260200160008152602001600081525090565b50600090815260066020908152604091829020825160c08101845281546001600160a01b03908116825260018301541692810192909252600281015492820192909252600382015460608201526004820154608082015260059091015460a082015290565b60006002600054141561061c5760405162461bcd60e51b815260206004820152601f60248201527f5265656e7472616e637947756172643a207265656e7472616e742063616c6c006044820152606401610477565b600260009081556001600160a01b03838116825260056020526040918290205491516370a0823160e01b81523060048201527f0000000000000000000000000000000000000000000000000000000000000000909116906370a082319060240160206040518083038186803b15801561069457600080fd5b505afa1580156106a8573d6000803e3d6000fd5b505050506040513d601f19601f820116820180604052508101906106cc9190612f55565b101580156106f157506001600160a01b03821660009081526005602052604090205415155b6107345760405162461bcd60e51b81526020600482015260146024820152737a65726f2076616c756520617661696c61626c6560601b6044820152606401610477565b6001600160a01b03828116600081815260056020526040808220805490839055905163a9059cbb60e01b81526004810193909352602483018190529290917f00000000000000000000000000000000000000000000000000000000000000009091169063a9059cbb90604401602060405180830381600087803b1580156107ba57600080fd5b505af11580156107ce573d6000803e3d6000fd5b505050506040513d601f19601f820116820180604052508101906107f29190612f21565b9050806108415760405162461bcd60e51b815260206004820152601960248201527f7472616e7366657220746f2063616c6c6572206661696c6564000000000000006044820152606401610477565b604080516001600160a01b0386168152602081018490527f884edad9ce6fa2440d8a54cc123490eb96d2768479d49ff9c7366125a9424364910160405180910390a16001925050505b6001600055919050565b6000818152600960209081526040808320805482518185028101850190935280835291929091908301828280156108ea57602002820191906000526020600020905b8154815260200190600101908083116108d6575b505083519394506000925050505b818110156109435761093083828151811061092357634e487b7160e01b600052603260045260246000fd5b6020026020010151612113565b508061093b8161304e565b9150506108f8565b50336000908152600560205260409020541561096457610962336105c7565b505b505050565b600a54604051631e55833360e31b81527f000000000000000000000000000000000000000000000000000000000000000060048201526000916001600160a01b03169063f2ac19989060240160206040518083038186803b1580156109cd57600080fd5b505afa1580156109e1573d6000803e3d6000fd5b505050506040513d601f19601f82011682018060405250810190610a059190612eb0565b6001600160a01b0316336001600160a01b03161480610a2e57506001546001600160a01b031633145b610a4a5760405162461bcd60e51b815260040161047790612fb1565b600254610a5c57506004600255600190565b50600090565b60606003805480602002602001604051908101604052809291908181526020018280548015610ab057602002820191906000526020600020905b815481526020019060010190808311610a9c575b5050505050905090565b600081815260066020908152604091829020825160c08101845281546001600160a01b0390811680835260018401549091169382019390935260028201549381019390935260038101546060840152600481015460808401526005015460a08301523314610b605760405162461bcd60e51b81526020600482015260136024820152723ab730baba3437b934bd32b21031b0b63632b960691b6044820152606401610477565b600081606001518260400151610b769190613037565b82516001600160a01b0316600090815260056020526040812080549293508392909190610ba4908490612fe0565b909155505060408083015160008581526006602090815283822060030192909255338152600590915220541561096457610962336105c7565b600a54604051631e55833360e31b81527f000000000000000000000000000000000000000000000000000000000000000060048201526000916001600160a01b03169063f2ac19989060240160206040518083038186803b158015610c4157600080fd5b505afa158015610c55573d6000803e3d6000fd5b505050506040513d601f19601f82011682018060405250810190610c799190612eb0565b6001600160a01b0316336001600160a01b03161480610ca257506001546001600160a01b031633145b610cbe5760405162461bcd60e51b815260040161047790612fb1565b610cc78261169d565b15610d2b5760035460005b81811015610d2157610d0e60038281548110610cfe57634e487b7160e01b600052603260045260246000fd5b9060005260206000200154612113565b5080610d198161304e565b915050610cd2565b5060019392505050565b506000919050565b60606004805480602002602001604051908101604052809291908181526020018280548015610ab05760200282019190600052602060002090815481526020019060010190808311610a9c575050505050905090565b600a54604051631e55833360e31b81527f000000000000000000000000000000000000000000000000000000000000000060048201526000916001600160a01b03169063f2ac19989060240160206040518083038186803b158015610ded57600080fd5b505afa158015610e01573d6000803e3d6000fd5b505050506040513d601f19601f82011682018060405250810190610e259190612eb0565b6001600160a01b0316336001600160a01b03161480610e4e57506001546001600160a01b031633145b610e6a5760405162461bcd60e51b815260040161047790612fb1565b6002541580610e7b57506002546004145b15610a5c5760035460005b81811015610ed557610ec260038281548110610eb257634e487b7160e01b600052603260045260246000fd5b9060005260206000200154612905565b5080610ecd8161304e565b915050610e86565b5050600360025550600190565b600a5460405163332daccf60e01b81523360048201526000916001600160a01b03169063332daccf9060240160206040518083038186803b158015610f2657600080fd5b505afa158015610f3a573d6000803e3d6000fd5b505050506040513d601f19601f82011682018060405250810190610f5e9190612f21565b15610f975760405162461bcd60e51b8152602060048201526009602482015268189b1858dadb1a5cdd60ba1b6044820152606401610477565b60025415610fdb5760405162461bcd60e51b81526020600482015260116024820152706d61726b6574206e6f742061637469766560781b6044820152606401610477565b8260011480610fea5750826002145b6110255760405162461bcd60e51b815260206004820152600c60248201526b696e76616c6964207369646560a01b6044820152606401610477565b6040516370a0823160e01b815233600482015285907f00000000000000000000000000000000000000000000000000000000000000006001600160a01b0316906370a082319060240160206040518083038186803b15801561108657600080fd5b505afa15801561109a573d6000803e3d6000fd5b505050506040513d601f19601f820116820180604052508101906110be9190612f55565b101561110c5760405162461bcd60e51b815260206004820152601960248201527f6e6f7420656e6f75676820746f6b656e2062616c616c6e6365000000000000006044820152606401610477565b604051636eb1769f60e11b815233600482015230602482015285907f00000000000000000000000000000000000000000000000000000000000000006001600160a01b03169063dd62ed3e9060440160206040518083038186803b15801561117357600080fd5b505afa158015611187573d6000803e3d6000fd5b505050506040513d601f19601f820116820180604052508101906111ab9190612f55565b10156111f05760405162461bcd60e51b81526020600482015260146024820152736e6f7420656e6f75676820616c6c6f77616e636560601b6044820152606401610477565b600a60009054906101000a90046001600160a01b03166001600160a01b031663375b3c0a6040518163ffffffff1660e01b815260040160206040518083038186803b15801561123e57600080fd5b505afa158015611252573d6000803e3d6000fd5b505050506040513d601f19601f820116820180604052508101906112769190612f55565b8510156112bb5760405162461bcd60e51b81526020600482015260136024820152726c657373207468616e206d696e207374616b6560681b6044820152606401610477565b6040516323b872dd60e01b8152336004820152306024820152604481018690527f00000000000000000000000000000000000000000000000000000000000000006001600160a01b0316906323b872dd90606401602060405180830381600087803b15801561132957600080fd5b505af115801561133d573d6000803e3d6000fd5b505050506040513d601f19601f820116820180604052508101906113619190612f21565b6113ad5760405162461bcd60e51b815260206004820152601b60248201527f7472616e736665722066726f6d2063616c6c6572206661696c656400000000006044820152606401610477565b60006113dc338888846113c160648b613037565b6113cc8b6064613018565b6113d69190612ff8565b896129e7565b6004549091501561163e5760045486905b600a60009054906101000a90046001600160a01b03166001600160a01b031663375b3c0a6040518163ffffffff1660e01b815260040160206040518083038186803b15801561143b57600080fd5b505afa15801561144f573d6000803e3d6000fd5b505050506040513d601f19601f820116820180604052508101906114739190612f55565b821061163b5760008060005b83811015611523576000600482815481106114aa57634e487b7160e01b600052603260045260246000fd5b9060005260206000200154905060066000828152602001908152602001600020600501548a14156114db5750611511565b60008181526006602052604090206004015483101561150f5760008181526006602052604090206004015491935090915082905b505b8061151b8161304e565b91505061147f565b506000898210158061153d575060008211801561153d5750875b1561161f5760006004848154811061156557634e487b7160e01b600052603260045260246000fd5b6000918252602080832090910154808352600682526040808420815160c08101835281546001600160a01b0390811682526001830154169481019490945260028101549184019190915260038101546060840152600481015460808401526005015460a08301529250906115da60648e613037565b826060015183604001516115ee9190613037565b6115f89190612ff8565b9050611605606482613018565b90506116158e828f8f8d88612c0c565b9350505050611627565b50505061163b565b6116318186613037565b94505050506113ed565b50505b60408051338152306020820152908101829052606081018790526080810186905260a081018590527f618f358bb45538682ade624a4a1959053d9dabd20fe300508034b879681b37be9060c00160405180910390a19695505050505050565b600a54604051631e55833360e31b81527f000000000000000000000000000000000000000000000000000000000000000060048201526000916001600160a01b03169063f2ac19989060240160206040518083038186803b15801561170157600080fd5b505afa158015611715573d6000803e3d6000fd5b505050506040513d601f19601f820116820180604052508101906117399190612eb0565b6001600160a01b0316336001600160a01b0316148061176257506001546001600160a01b031633145b61177e5760405162461bcd60e51b815260040161047790612fb1565b600254158061178f57506002546001145b8061179c57506002546002145b806117a957506002546004145b80156117bf575081600114806117bf5750816002145b15610d2b5750600255600190565b600a54604051631e55833360e31b81527f000000000000000000000000000000000000000000000000000000000000000060048201526000916001600160a01b03169063f2ac19989060240160206040518083038186803b15801561183157600080fd5b505afa158015611845573d6000803e3d6000fd5b505050506040513d601f19601f820116820180604052508101906118699190612eb0565b6001600160a01b0316336001600160a01b0316148061189257506001546001600160a01b031633145b6118ae5760405162461bcd60e51b815260040161047790612fb1565b60025415806118bf57506002546004145b15610a5c57506003600255600190565b6000818152600660209081526040808320815160c08101835281546001600160a01b03908116825260018301541681850152600282015481840152600382015460608201526004820154608082015260059091015460a082015284845260098352818420805483518186028101860190945280845291938593929083018282801561197957602002820191906000526020600020905b815481526020019060010190808311611965575b505083519394506000925050505b8181101561210757600860008483815181106119b357634e487b7160e01b600052603260045260246000fd5b60209081029190910181015182528101919091526040016000206004015460ff16156119de576120f5565b6000806000808760a0015160011415611ab65760086000888781518110611a1557634e487b7160e01b600052603260045260246000fd5b6020026020010151815260200190815260200160002060020154915060086000888781518110611a5557634e487b7160e01b600052603260045260246000fd5b6020026020010151815260200190815260200160002060010154935060086000888781518110611a9557634e487b7160e01b600052603260045260246000fd5b60200260200101518152602001908152602001600020600301549250611b84565b8760a0015160021415611b845760086000888781518110611ae757634e487b7160e01b600052603260045260246000fd5b6020026020010151815260200190815260200160002060030154915060086000888781518110611b2757634e487b7160e01b600052603260045260246000fd5b6020026020010151815260200190815260200160002060000154935060086000888781518110611b6757634e487b7160e01b600052603260045260246000fd5b602002602001015181526020019081526020016000206002015492505b5060008381526006602090815260409182902054600a5483516355c4a8bf60e01b815293516001600160a01b039283169460649493909216926355c4a8bf9260048082019391829003018186803b158015611bde57600080fd5b505afa158015611bf2573d6000803e3d6000fd5b505050506040513d601f19601f82011682018060405250810190611c169190612f55565b611c21906064613037565b611c2b9084613018565b611c359190612ff8565b88516001600160a01b031660009081526005602052604081208054909190611c5e908490612fe0565b909155505060008481526006602052604081206003018054859290611c84908490613037565b9250508190555060006064600a60009054906101000a90046001600160a01b03166001600160a01b03166355c4a8bf6040518163ffffffff1660e01b815260040160206040518083038186803b158015611cdd57600080fd5b505afa158015611cf1573d6000803e3d6000fd5b505050506040513d601f19601f82011682018060405250810190611d159190612f55565b611d1f9085613018565b611d299190612ff8565b90506064600a60009054906101000a90046001600160a01b03166001600160a01b0316636a0ccd9d6040518163ffffffff1660e01b815260040160206040518083038186803b158015611d7b57600080fd5b505afa158015611d8f573d6000803e3d6000fd5b505050506040513d601f19601f82011682018060405250810190611db39190612f55565b611dbd9083613018565b611dc79190612ff8565b60056000600a60009054906101000a90046001600160a01b03166001600160a01b031663b7640a546040518163ffffffff1660e01b815260040160206040518083038186803b158015611e1957600080fd5b505afa158015611e2d573d6000803e3d6000fd5b505050506040513d601f19601f82011682018060405250810190611e519190612eb0565b6001600160a01b03166001600160a01b031681526020019081526020016000206000828254611e809190612fe0565b9091555050600a54604080516328576d4560e01b815290516064926001600160a01b0316916328576d45916004808301926020929190829003018186803b158015611eca57600080fd5b505afa158015611ede573d6000803e3d6000fd5b505050506040513d601f19601f82011682018060405250810190611f029190612f55565b611f0c9083613018565b611f169190612ff8565b60056000600a60009054906101000a90046001600160a01b03166001600160a01b03166309953b2f6040518163ffffffff1660e01b815260040160206040518083038186803b158015611f6857600080fd5b505afa158015611f7c573d6000803e3d6000fd5b505050506040513d601f19601f82011682018060405250810190611fa09190612eb0565b6001600160a01b03166001600160a01b031681526020019081526020016000206000828254611fcf9190612fe0565b9091555050600a5460408051631533469760e21b815290516064926001600160a01b0316916354cd1a5c916004808301926020929190829003018186803b15801561201957600080fd5b505afa15801561202d573d6000803e3d6000fd5b505050506040513d601f19601f820116820180604052508101906120519190612f55565b61205b9083613018565b6120659190612ff8565b6020808b01516001600160a01b031660009081526005909152604081208054909190612092908490612fe0565b925050819055506001600860008a89815181106120bf57634e487b7160e01b600052603260045260246000fd5b6020026020010151815260200190815260200160002060040160006101000a81548160ff02191690831515021790555050505050505b806120ff8161304e565b915050611987565b50600195945050505050565b6000600260005414156121685760405162461bcd60e51b815260206004820152601f60248201527f5265656e7472616e637947756172643a207265656e7472616e742063616c6c006044820152606401610477565b600260009081558281526008602052604090206004015460ff161561218f5750600061088a565b60008060008060025460011415612369576000868152600860209081526040808320548352600682529182902054600a5483516355c4a8bf60e01b815293516001600160a01b03928316985060649491909216926355c4a8bf92600480840193829003018186803b15801561220357600080fd5b505afa158015612217573d6000803e3d6000fd5b505050506040513d601f19601f8201168201806040525081019061223b9190612f55565b612246906064613037565b6000888152600860205260409020600301546122629190613018565b61226c9190612ff8565b6000878152600860205260409020600201546122889190612fe0565b91506064600a60009054906101000a90046001600160a01b03166001600160a01b03166355c4a8bf6040518163ffffffff1660e01b815260040160206040518083038186803b1580156122da57600080fd5b505afa1580156122ee573d6000803e3d6000fd5b505050506040513d601f19601f820116820180604052508101906123129190612f55565b60008881526008602052604090206003015461232e9190613018565b6123389190612ff8565b600087815260086020908152604080832054835260069091529020600101546001600160a01b031693509050612551565b60025460021415612544576000868152600860209081526040808320600101548352600682529182902054600a5483516355c4a8bf60e01b815293516001600160a01b03928316985060649491909216926355c4a8bf92600480840193829003018186803b1580156123da57600080fd5b505afa1580156123ee573d6000803e3d6000fd5b505050506040513d601f19601f820116820180604052508101906124129190612f55565b61241d906064613037565b6000888152600860205260409020600201546124399190613018565b6124439190612ff8565b60008781526008602052604090206003015461245f9190612fe0565b91506064600a60009054906101000a90046001600160a01b03166001600160a01b03166355c4a8bf6040518163ffffffff1660e01b815260040160206040518083038186803b1580156124b157600080fd5b505afa1580156124c5573d6000803e3d6000fd5b505050506040513d601f19601f820116820180604052508101906124e99190612f55565b6000888152600860205260409020600201546125059190613018565b61250f9190612ff8565b60008781526008602090815260408083206001908101548452600690925290912001546001600160a01b031693509050612551565b600094505050505061088a565b6001600160a01b03841660009081526005602052604081208054849290612579908490612fe0565b9091555050600a5460408051636a0ccd9d60e01b815290516064926001600160a01b031691636a0ccd9d916004808301926020929190829003018186803b1580156125c357600080fd5b505afa1580156125d7573d6000803e3d6000fd5b505050506040513d601f19601f820116820180604052508101906125fb9190612f55565b6126059083613018565b61260f9190612ff8565b60056000600a60009054906101000a90046001600160a01b03166001600160a01b031663b7640a546040518163ffffffff1660e01b815260040160206040518083038186803b15801561266157600080fd5b505afa158015612675573d6000803e3d6000fd5b505050506040513d601f19601f820116820180604052508101906126999190612eb0565b6001600160a01b03166001600160a01b0316815260200190815260200160002060008282546126c89190612fe0565b9091555050600a54604080516328576d4560e01b815290516064926001600160a01b0316916328576d45916004808301926020929190829003018186803b15801561271257600080fd5b505afa158015612726573d6000803e3d6000fd5b505050506040513d601f19601f8201168201806040525081019061274a9190612f55565b6127549083613018565b61275e9190612ff8565b60056000600a60009054906101000a90046001600160a01b03166001600160a01b03166309953b2f6040518163ffffffff1660e01b815260040160206040518083038186803b1580156127b057600080fd5b505afa1580156127c4573d6000803e3d6000fd5b505050506040513d601f19601f820116820180604052508101906127e89190612eb0565b6001600160a01b03166001600160a01b0316815260200190815260200160002060008282546128179190612fe0565b9091555050600a5460408051631533469760e21b815290516064926001600160a01b0316916354cd1a5c916004808301926020929190829003018186803b15801561286157600080fd5b505afa158015612875573d6000803e3d6000fd5b505050506040513d601f19601f820116820180604052508101906128999190612f55565b6128a39083613018565b6128ad9190612ff8565b6001600160a01b038416600090815260056020526040812080549091906128d5908490612fe0565b909155505050600094855250506008602052505060408120600401805460ff191660019081179091559081905590565b60008181526008602052604081206004015460ff161561292757506000919050565b600082815260086020908152604080832080548452600683528184205460018201548552828520546002909201546001600160a01b03918216808752600590955292852080549495919092169361297f908490612fe0565b90915550506000848152600860209081526040808320600301546001600160a01b0385168452600590925282208054919290916129bd908490612fe0565b90915550505060009283525050600860205260409020600401805460ff1916600190811790915590565b60008060005b600454899030908390612a01906001612fe0565b612a0b9190612fe0565b6040516bffffffffffffffffffffffff19606094851b811660208301529290931b9091166034830152604882015242606882015244608882015260a80160408051601f19818403018152918152815160209283012060008181526006909352912060020154909250612a7c57612a8e565b80612a868161304e565b9150506129ed565b6001600160a01b038816612b2557600a60009054906101000a90046001600160a01b03166001600160a01b03166309953b2f6040518163ffffffff1660e01b815260040160206040518083038186803b158015612aea57600080fd5b505afa158015612afe573d6000803e3d6000fd5b505050506040513d601f19601f82011682018060405250810190612b229190612eb0565b97505b506040805160c0810182526001600160a01b03998a16808252988a166020808301918252828401998a52606083019889526080830197885260a0830196875260008581526006825284812093518454908e166001600160a01b031991821617855592516001808601805492909f169190941617909c5598516002830155965160038201559451600480870191909155935160059095019490945582548086019093557f8a35acfbc15ff81a39ae7d344fd709f28e8600b4aa8c65c6b64bfe7fe36bd19b90920182905550938552600783528420805491820181558452922090910181905590565b600080600080898911612c7657889250612c27606489613037565b612c31908a613018565b9150612c3e606483612ff8565b91508660011415612c5c57612c5586868585612d5a565b9050612cca565b8660021415612c7157612c5585878486612d5a565b612cca565b899250612c84606489613037565b612c8e908b613018565b9150612c9b606483612ff8565b91508660011415612cb257612c5586868585612d5a565b8660021415612cca57612cc785878486612d5a565b90505b60008681526009602090815260408083208054600181810183559185528385200185905588845281842080549182018155845282842001849055888352600690915281206003018054859290612d21908490612fe0565b909155505060008581526006602052604081206003018054849290612d47908490612fe0565b90915550929a9950505050505050505050565b60008060005b600354879087908390612d74906001612fe0565b612d7e9190612fe0565b60408051602081019490945283019190915260608201524260808201524460a082015260c00160408051601f19818403018152918152815160209283012060008181526008909352912060020154909250612dd857612dea565b80612de28161304e565b915050612d60565b506040805160a081018252968752602080880196875287820195865260608801948552600060808901818152848252600890925291822097518855955160018089019190915594516002880155925160038088019190915594516004909601805460ff1916961515969096179095555082549182018355919091527fc2575a0e9e593c00f959f8c92f12db2869c3395a3b0502d05e2516446f71f85b0181905590565b600060208284031215612e9e578081fd5b8135612ea98161307f565b9392505050565b600060208284031215612ec1578081fd5b8151612ea98161307f565b600080600080600060a08688031215612ee3578081fd5b8535612eee8161307f565b94506020860135935060408601359250606086013591506080860135612f1381613094565b809150509295509295909350565b600060208284031215612f32578081fd5b8151612ea981613094565b600060208284031215612f4e578081fd5b5035919050565b600060208284031215612f66578081fd5b5051919050565b6020808252825182820181905260009190848201906040850190845b81811015612fa557835183529284019291840191600101612f89565b50909695505050505050565b60208082526015908201527418d85b1b195c881b9bdd08185d5d1a1bdc9a5e9959605a1b604082015260600190565b60008219821115612ff357612ff3613069565b500190565b60008261301357634e487b7160e01b81526012600452602481fd5b500490565b600081600019048311821515161561303257613032613069565b500290565b60008282101561304957613049613069565b500390565b600060001982141561306257613062613069565b5060010190565b634e487b7160e01b600052601160045260246000fd5b6001600160a01b03811681146104aa57600080fd5b80151581146104aa57600080fdfea26469706673582212207963030a62dd711e6fb11fd2b0ed7a4f5aa86349c1767554100639792cc9d31464736f6c63430008040033",
					"opcodes": "PUSH1 0xC0 PUSH1 0x40 DUP2 SWAP1 MSTORE PUSH1 0x0 PUSH1 0x2 SSTORE PUSH1 0x1 SLOAD PUSH1 0xA DUP1 SLOAD PUSH1 0x1 PUSH1 0x1 PUSH1 0xA0 SHL SUB NOT AND PUSH1 0x1 PUSH1 0x1 PUSH1 0xA0 SHL SUB SWAP1 SWAP3 AND SWAP2 DUP3 OR SWAP1 SSTORE PUSH3 0x966ED9 PUSH1 0xE3 SHL DUP3 MSTORE SWAP1 PUSH4 0x4B376C8 SWAP1 PUSH1 0xC4 SWAP1 PUSH1 0x20 SWAP1 PUSH1 0x4 DUP2 DUP7 DUP1 EXTCODESIZE ISZERO DUP1 ISZERO PUSH3 0x55 JUMPI PUSH1 0x0 DUP1 REVERT JUMPDEST POP GAS STATICCALL ISZERO DUP1 ISZERO PUSH3 0x6A JUMPI RETURNDATASIZE PUSH1 0x0 DUP1 RETURNDATACOPY RETURNDATASIZE PUSH1 0x0 REVERT JUMPDEST POP POP POP POP PUSH1 0x40 MLOAD RETURNDATASIZE PUSH1 0x1F NOT PUSH1 0x1F DUP3 ADD AND DUP3 ADD DUP1 PUSH1 0x40 MSTORE POP DUP2 ADD SWAP1 PUSH3 0x90 SWAP2 SWAP1 PUSH3 0xF3 JUMP JUMPDEST PUSH1 0x60 SHL PUSH1 0x1 PUSH1 0x1 PUSH1 0x60 SHL SUB NOT AND PUSH1 0xA0 MSTORE CALLVALUE DUP1 ISZERO PUSH3 0xAD JUMPI PUSH1 0x0 DUP1 REVERT JUMPDEST POP PUSH1 0x40 MLOAD PUSH3 0x327C CODESIZE SUB DUP1 PUSH3 0x327C DUP4 CODECOPY DUP2 ADD PUSH1 0x40 DUP2 SWAP1 MSTORE PUSH3 0xD0 SWAP2 PUSH3 0x123 JUMP JUMPDEST PUSH1 0x1 PUSH1 0x0 DUP2 SWAP1 SSTORE PUSH1 0x80 SWAP2 SWAP1 SWAP2 MSTORE DUP1 SLOAD PUSH1 0x1 PUSH1 0x1 PUSH1 0xA0 SHL SUB NOT AND CALLER OR SWAP1 SSTORE PUSH3 0x13C JUMP JUMPDEST PUSH1 0x0 PUSH1 0x20 DUP3 DUP5 SUB SLT ISZERO PUSH3 0x105 JUMPI DUP1 DUP2 REVERT JUMPDEST DUP2 MLOAD PUSH1 0x1 PUSH1 0x1 PUSH1 0xA0 SHL SUB DUP2 AND DUP2 EQ PUSH3 0x11C JUMPI DUP2 DUP3 REVERT JUMPDEST SWAP4 SWAP3 POP POP POP JUMP JUMPDEST PUSH1 0x0 PUSH1 0x20 DUP3 DUP5 SUB SLT ISZERO PUSH3 0x135 JUMPI DUP1 DUP2 REVERT JUMPDEST POP MLOAD SWAP2 SWAP1 POP JUMP JUMPDEST PUSH1 0x80 MLOAD PUSH1 0xA0 MLOAD PUSH1 0x60 SHR PUSH2 0x30D8 PUSH3 0x1A4 PUSH1 0x0 CODECOPY PUSH1 0x0 DUP2 DUP2 PUSH2 0x650 ADD MSTORE DUP2 DUP2 PUSH2 0x774 ADD MSTORE DUP2 DUP2 PUSH2 0x103C ADD MSTORE DUP2 DUP2 PUSH2 0x1129 ADD MSTORE PUSH2 0x12DD ADD MSTORE PUSH1 0x0 DUP2 DUP2 PUSH2 0x23D ADD MSTORE DUP2 DUP2 PUSH2 0x97B ADD MSTORE DUP2 DUP2 PUSH2 0xBEF ADD MSTORE DUP2 DUP2 PUSH2 0xD9B ADD MSTORE DUP2 DUP2 PUSH2 0x16AF ADD MSTORE PUSH2 0x17DF ADD MSTORE PUSH2 0x30D8 PUSH1 0x0 RETURN INVALID PUSH1 0x80 PUSH1 0x40 MSTORE CALLVALUE DUP1 ISZERO PUSH2 0x10 JUMPI PUSH1 0x0 DUP1 REVERT JUMPDEST POP PUSH1 0x4 CALLDATASIZE LT PUSH2 0x121 JUMPI PUSH1 0x0 CALLDATALOAD PUSH1 0xE0 SHR DUP1 PUSH4 0x7A47D494 GT PUSH2 0xAD JUMPI DUP1 PUSH4 0xB8E5303D GT PUSH2 0x71 JUMPI DUP1 PUSH4 0xB8E5303D EQ PUSH2 0x295 JUMPI DUP1 PUSH4 0xBA8006C6 EQ PUSH2 0x366 JUMPI DUP1 PUSH4 0xD0ED7295 EQ PUSH2 0x379 JUMPI DUP1 PUSH4 0xEA8A1AF0 EQ PUSH2 0x38C JUMPI DUP1 PUSH4 0xF8B2CB4F EQ PUSH2 0x394 JUMPI PUSH1 0x0 DUP1 REVERT JUMPDEST DUP1 PUSH4 0x7A47D494 EQ PUSH2 0x238 JUMPI DUP1 PUSH4 0x7D7F9232 EQ PUSH2 0x25F JUMPI DUP1 PUSH4 0x8DF82800 EQ PUSH2 0x272 JUMPI DUP1 PUSH4 0xA6AFD5FD EQ PUSH2 0x285 JUMPI DUP1 PUSH4 0xAE8CD090 EQ PUSH2 0x28D JUMPI PUSH1 0x0 DUP1 REVERT JUMPDEST DUP1 PUSH4 0x37E8C09E GT PUSH2 0xF4 JUMPI DUP1 PUSH4 0x37E8C09E EQ PUSH2 0x18A JUMPI DUP1 PUSH4 0x51CFF8D9 EQ PUSH2 0x1F2 JUMPI DUP1 PUSH4 0x675F6537 EQ PUSH2 0x215 JUMPI DUP1 PUSH4 0x6BEF0267 EQ PUSH2 0x228 JUMPI DUP1 PUSH4 0x767EB5EF EQ PUSH2 0x230 JUMPI PUSH1 0x0 DUP1 REVERT JUMPDEST DUP1 PUSH4 0x200D2ED2 EQ PUSH2 0x126 JUMPI DUP1 PUSH4 0x25C22A45 EQ PUSH2 0x142 JUMPI DUP1 PUSH4 0x2940FF1E EQ PUSH2 0x162 JUMPI DUP1 PUSH4 0x2D56657D EQ PUSH2 0x177 JUMPI JUMPDEST PUSH1 0x0 DUP1 REVERT JUMPDEST PUSH2 0x12F PUSH1 0x2 SLOAD DUP2 JUMP JUMPDEST PUSH1 0x40 MLOAD SWAP1 DUP2 MSTORE PUSH1 0x20 ADD JUMPDEST PUSH1 0x40 MLOAD DUP1 SWAP2 SUB SWAP1 RETURN JUMPDEST PUSH2 0x155 PUSH2 0x150 CALLDATASIZE PUSH1 0x4 PUSH2 0x2F3D JUMP JUMPDEST PUSH2 0x3BD JUMP JUMPDEST PUSH1 0x40 MLOAD PUSH2 0x139 SWAP2 SWAP1 PUSH2 0x2F6D JUMP JUMPDEST PUSH2 0x175 PUSH2 0x170 CALLDATASIZE PUSH1 0x4 PUSH2 0x2F3D JUMP JUMPDEST PUSH2 0x41F JUMP JUMPDEST STOP JUMPDEST PUSH2 0x155 PUSH2 0x185 CALLDATASIZE PUSH1 0x4 PUSH2 0x2E8D JUMP JUMPDEST PUSH2 0x4AD JUMP JUMPDEST PUSH2 0x19D PUSH2 0x198 CALLDATASIZE PUSH1 0x4 PUSH2 0x2F3D JUMP JUMPDEST PUSH2 0x517 JUMP JUMPDEST PUSH1 0x40 MLOAD PUSH2 0x139 SWAP2 SWAP1 DUP2 MLOAD PUSH1 0x1 PUSH1 0x1 PUSH1 0xA0 SHL SUB SWAP1 DUP2 AND DUP3 MSTORE PUSH1 0x20 DUP1 DUP5 ADD MLOAD SWAP1 SWAP2 AND SWAP1 DUP3 ADD MSTORE PUSH1 0x40 DUP1 DUP4 ADD MLOAD SWAP1 DUP3 ADD MSTORE PUSH1 0x60 DUP1 DUP4 ADD MLOAD SWAP1 DUP3 ADD MSTORE PUSH1 0x80 DUP1 DUP4 ADD MLOAD SWAP1 DUP3 ADD MSTORE PUSH1 0xA0 SWAP2 DUP3 ADD MLOAD SWAP2 DUP2 ADD SWAP2 SWAP1 SWAP2 MSTORE PUSH1 0xC0 ADD SWAP1 JUMP JUMPDEST PUSH2 0x205 PUSH2 0x200 CALLDATASIZE PUSH1 0x4 PUSH2 0x2E8D JUMP JUMPDEST PUSH2 0x5C7 JUMP JUMPDEST PUSH1 0x40 MLOAD SWAP1 ISZERO ISZERO DUP2 MSTORE PUSH1 0x20 ADD PUSH2 0x139 JUMP JUMPDEST PUSH2 0x175 PUSH2 0x223 CALLDATASIZE PUSH1 0x4 PUSH2 0x2F3D JUMP JUMPDEST PUSH2 0x894 JUMP JUMPDEST PUSH2 0x205 PUSH2 0x969 JUMP JUMPDEST PUSH2 0x155 PUSH2 0xA62 JUMP JUMPDEST PUSH2 0x12F PUSH32 0x0 DUP2 JUMP JUMPDEST PUSH2 0x175 PUSH2 0x26D CALLDATASIZE PUSH1 0x4 PUSH2 0x2F3D JUMP JUMPDEST PUSH2 0xABA JUMP JUMPDEST PUSH2 0x205 PUSH2 0x280 CALLDATASIZE PUSH1 0x4 PUSH2 0x2F3D JUMP JUMPDEST PUSH2 0xBDD JUMP JUMPDEST PUSH2 0x155 PUSH2 0xD33 JUMP JUMPDEST PUSH2 0x205 PUSH2 0xD89 JUMP JUMPDEST PUSH2 0x322 PUSH2 0x2A3 CALLDATASIZE PUSH1 0x4 PUSH2 0x2F3D JUMP JUMPDEST PUSH1 0x40 DUP1 MLOAD PUSH1 0xA0 DUP2 ADD DUP3 MSTORE PUSH1 0x0 DUP1 DUP3 MSTORE PUSH1 0x20 DUP3 ADD DUP2 SWAP1 MSTORE SWAP2 DUP2 ADD DUP3 SWAP1 MSTORE PUSH1 0x60 DUP2 ADD DUP3 SWAP1 MSTORE PUSH1 0x80 DUP2 ADD SWAP2 SWAP1 SWAP2 MSTORE POP PUSH1 0x0 SWAP1 DUP2 MSTORE PUSH1 0x8 PUSH1 0x20 SWAP1 DUP2 MSTORE PUSH1 0x40 SWAP2 DUP3 SWAP1 KECCAK256 DUP3 MLOAD PUSH1 0xA0 DUP2 ADD DUP5 MSTORE DUP2 SLOAD DUP2 MSTORE PUSH1 0x1 DUP3 ADD SLOAD SWAP3 DUP2 ADD SWAP3 SWAP1 SWAP3 MSTORE PUSH1 0x2 DUP2 ADD SLOAD SWAP3 DUP3 ADD SWAP3 SWAP1 SWAP3 MSTORE PUSH1 0x3 DUP3 ADD SLOAD PUSH1 0x60 DUP3 ADD MSTORE PUSH1 0x4 SWAP1 SWAP2 ADD SLOAD PUSH1 0xFF AND ISZERO ISZERO PUSH1 0x80 DUP3 ADD MSTORE SWAP1 JUMP JUMPDEST PUSH1 0x40 MLOAD PUSH2 0x139 SWAP2 SWAP1 PUSH1 0x0 PUSH1 0xA0 DUP3 ADD SWAP1 POP DUP3 MLOAD DUP3 MSTORE PUSH1 0x20 DUP4 ADD MLOAD PUSH1 0x20 DUP4 ADD MSTORE PUSH1 0x40 DUP4 ADD MLOAD PUSH1 0x40 DUP4 ADD MSTORE PUSH1 0x60 DUP4 ADD MLOAD PUSH1 0x60 DUP4 ADD MSTORE PUSH1 0x80 DUP4 ADD MLOAD ISZERO ISZERO PUSH1 0x80 DUP4 ADD MSTORE SWAP3 SWAP2 POP POP JUMP JUMPDEST PUSH2 0x12F PUSH2 0x374 CALLDATASIZE PUSH1 0x4 PUSH2 0x2ECC JUMP JUMPDEST PUSH2 0xEE2 JUMP JUMPDEST PUSH2 0x205 PUSH2 0x387 CALLDATASIZE PUSH1 0x4 PUSH2 0x2F3D JUMP JUMPDEST PUSH2 0x169D JUMP JUMPDEST PUSH2 0x205 PUSH2 0x17CD JUMP JUMPDEST PUSH2 0x12F PUSH2 0x3A2 CALLDATASIZE PUSH1 0x4 PUSH2 0x2E8D JUMP JUMPDEST PUSH1 0x1 PUSH1 0x1 PUSH1 0xA0 SHL SUB AND PUSH1 0x0 SWAP1 DUP2 MSTORE PUSH1 0x5 PUSH1 0x20 MSTORE PUSH1 0x40 SWAP1 KECCAK256 SLOAD SWAP1 JUMP JUMPDEST PUSH1 0x0 DUP2 DUP2 MSTORE PUSH1 0x9 PUSH1 0x20 SWAP1 DUP2 MSTORE PUSH1 0x40 SWAP2 DUP3 SWAP1 KECCAK256 DUP1 SLOAD DUP4 MLOAD DUP2 DUP5 MUL DUP2 ADD DUP5 ADD SWAP1 SWAP5 MSTORE DUP1 DUP5 MSTORE PUSH1 0x60 SWAP4 SWAP3 DUP4 ADD DUP3 DUP3 DUP1 ISZERO PUSH2 0x413 JUMPI PUSH1 0x20 MUL DUP3 ADD SWAP2 SWAP1 PUSH1 0x0 MSTORE PUSH1 0x20 PUSH1 0x0 KECCAK256 SWAP1 JUMPDEST DUP2 SLOAD DUP2 MSTORE PUSH1 0x20 ADD SWAP1 PUSH1 0x1 ADD SWAP1 DUP1 DUP4 GT PUSH2 0x3FF JUMPI JUMPDEST POP POP POP POP POP SWAP1 POP SWAP2 SWAP1 POP JUMP JUMPDEST PUSH1 0x0 DUP2 DUP2 MSTORE PUSH1 0x6 PUSH1 0x20 MSTORE PUSH1 0x40 SWAP1 KECCAK256 SLOAD PUSH1 0x1 PUSH1 0x1 PUSH1 0xA0 SHL SUB AND CALLER EQ PUSH2 0x480 JUMPI PUSH1 0x40 MLOAD PUSH3 0x461BCD PUSH1 0xE5 SHL DUP2 MSTORE PUSH1 0x20 PUSH1 0x4 DUP3 ADD MSTORE PUSH1 0x13 PUSH1 0x24 DUP3 ADD MSTORE PUSH19 0x3AB730BABA3437B934BD32B21031B0B63632B9 PUSH1 0x69 SHL PUSH1 0x44 DUP3 ADD MSTORE PUSH1 0x64 ADD JUMPDEST PUSH1 0x40 MLOAD DUP1 SWAP2 SUB SWAP1 REVERT JUMPDEST PUSH1 0x2 SLOAD ISZERO DUP1 PUSH2 0x491 JUMPI POP PUSH1 0x2 SLOAD PUSH1 0x3 EQ JUMPDEST ISZERO PUSH2 0x4A1 JUMPI PUSH2 0x49F DUP2 PUSH2 0x18CF JUMP JUMPDEST POP JUMPDEST PUSH2 0x4AA DUP2 PUSH2 0xABA JUMP JUMPDEST POP JUMP JUMPDEST PUSH1 0x1 PUSH1 0x1 PUSH1 0xA0 SHL SUB DUP2 AND PUSH1 0x0 SWAP1 DUP2 MSTORE PUSH1 0x7 PUSH1 0x20 SWAP1 DUP2 MSTORE PUSH1 0x40 SWAP2 DUP3 SWAP1 KECCAK256 DUP1 SLOAD DUP4 MLOAD DUP2 DUP5 MUL DUP2 ADD DUP5 ADD SWAP1 SWAP5 MSTORE DUP1 DUP5 MSTORE PUSH1 0x60 SWAP4 SWAP3 DUP4 ADD DUP3 DUP3 DUP1 ISZERO PUSH2 0x413 JUMPI PUSH1 0x20 MUL DUP3 ADD SWAP2 SWAP1 PUSH1 0x0 MSTORE PUSH1 0x20 PUSH1 0x0 KECCAK256 SWAP1 DUP2 SLOAD DUP2 MSTORE PUSH1 0x20 ADD SWAP1 PUSH1 0x1 ADD SWAP1 DUP1 DUP4 GT PUSH2 0x3FF JUMPI POP POP POP POP POP SWAP1 POP SWAP2 SWAP1 POP JUMP JUMPDEST PUSH2 0x562 PUSH1 0x40 MLOAD DUP1 PUSH1 0xC0 ADD PUSH1 0x40 MSTORE DUP1 PUSH1 0x0 PUSH1 0x1 PUSH1 0x1 PUSH1 0xA0 SHL SUB AND DUP2 MSTORE PUSH1 0x20 ADD PUSH1 0x0 PUSH1 0x1 PUSH1 0x1 PUSH1 0xA0 SHL SUB AND DUP2 MSTORE PUSH1 0x20 ADD PUSH1 0x0 DUP2 MSTORE PUSH1 0x20 ADD PUSH1 0x0 DUP2 MSTORE PUSH1 0x20 ADD PUSH1 0x0 DUP2 MSTORE PUSH1 0x20 ADD PUSH1 0x0 DUP2 MSTORE POP SWAP1 JUMP JUMPDEST POP PUSH1 0x0 SWAP1 DUP2 MSTORE PUSH1 0x6 PUSH1 0x20 SWAP1 DUP2 MSTORE PUSH1 0x40 SWAP2 DUP3 SWAP1 KECCAK256 DUP3 MLOAD PUSH1 0xC0 DUP2 ADD DUP5 MSTORE DUP2 SLOAD PUSH1 0x1 PUSH1 0x1 PUSH1 0xA0 SHL SUB SWAP1 DUP2 AND DUP3 MSTORE PUSH1 0x1 DUP4 ADD SLOAD AND SWAP3 DUP2 ADD SWAP3 SWAP1 SWAP3 MSTORE PUSH1 0x2 DUP2 ADD SLOAD SWAP3 DUP3 ADD SWAP3 SWAP1 SWAP3 MSTORE PUSH1 0x3 DUP3 ADD SLOAD PUSH1 0x60 DUP3 ADD MSTORE PUSH1 0x4 DUP3 ADD SLOAD PUSH1 0x80 DUP3 ADD MSTORE PUSH1 0x5 SWAP1 SWAP2 ADD SLOAD PUSH1 0xA0 DUP3 ADD MSTORE SWAP1 JUMP JUMPDEST PUSH1 0x0 PUSH1 0x2 PUSH1 0x0 SLOAD EQ ISZERO PUSH2 0x61C JUMPI PUSH1 0x40 MLOAD PUSH3 0x461BCD PUSH1 0xE5 SHL DUP2 MSTORE PUSH1 0x20 PUSH1 0x4 DUP3 ADD MSTORE PUSH1 0x1F PUSH1 0x24 DUP3 ADD MSTORE PUSH32 0x5265656E7472616E637947756172643A207265656E7472616E742063616C6C00 PUSH1 0x44 DUP3 ADD MSTORE PUSH1 0x64 ADD PUSH2 0x477 JUMP JUMPDEST PUSH1 0x2 PUSH1 0x0 SWAP1 DUP2 SSTORE PUSH1 0x1 PUSH1 0x1 PUSH1 0xA0 SHL SUB DUP4 DUP2 AND DUP3 MSTORE PUSH1 0x5 PUSH1 0x20 MSTORE PUSH1 0x40 SWAP2 DUP3 SWAP1 KECCAK256 SLOAD SWAP2 MLOAD PUSH4 0x70A08231 PUSH1 0xE0 SHL DUP2 MSTORE ADDRESS PUSH1 0x4 DUP3 ADD MSTORE PUSH32 0x0 SWAP1 SWAP2 AND SWAP1 PUSH4 0x70A08231 SWAP1 PUSH1 0x24 ADD PUSH1 0x20 PUSH1 0x40 MLOAD DUP1 DUP4 SUB DUP2 DUP7 DUP1 EXTCODESIZE ISZERO DUP1 ISZERO PUSH2 0x694 JUMPI PUSH1 0x0 DUP1 REVERT JUMPDEST POP GAS STATICCALL ISZERO DUP1 ISZERO PUSH2 0x6A8 JUMPI RETURNDATASIZE PUSH1 0x0 DUP1 RETURNDATACOPY RETURNDATASIZE PUSH1 0x0 REVERT JUMPDEST POP POP POP POP PUSH1 0x40 MLOAD RETURNDATASIZE PUSH1 0x1F NOT PUSH1 0x1F DUP3 ADD AND DUP3 ADD DUP1 PUSH1 0x40 MSTORE POP DUP2 ADD SWAP1 PUSH2 0x6CC SWAP2 SWAP1 PUSH2 0x2F55 JUMP JUMPDEST LT ISZERO DUP1 ISZERO PUSH2 0x6F1 JUMPI POP PUSH1 0x1 PUSH1 0x1 PUSH1 0xA0 SHL SUB DUP3 AND PUSH1 0x0 SWAP1 DUP2 MSTORE PUSH1 0x5 PUSH1 0x20 MSTORE PUSH1 0x40 SWAP1 KECCAK256 SLOAD ISZERO ISZERO JUMPDEST PUSH2 0x734 JUMPI PUSH1 0x40 MLOAD PUSH3 0x461BCD PUSH1 0xE5 SHL DUP2 MSTORE PUSH1 0x20 PUSH1 0x4 DUP3 ADD MSTORE PUSH1 0x14 PUSH1 0x24 DUP3 ADD MSTORE PUSH20 0x7A65726F2076616C756520617661696C61626C65 PUSH1 0x60 SHL PUSH1 0x44 DUP3 ADD MSTORE PUSH1 0x64 ADD PUSH2 0x477 JUMP JUMPDEST PUSH1 0x1 PUSH1 0x1 PUSH1 0xA0 SHL SUB DUP3 DUP2 AND PUSH1 0x0 DUP2 DUP2 MSTORE PUSH1 0x5 PUSH1 0x20 MSTORE PUSH1 0x40 DUP1 DUP3 KECCAK256 DUP1 SLOAD SWAP1 DUP4 SWAP1 SSTORE SWAP1 MLOAD PUSH4 0xA9059CBB PUSH1 0xE0 SHL DUP2 MSTORE PUSH1 0x4 DUP2 ADD SWAP4 SWAP1 SWAP4 MSTORE PUSH1 0x24 DUP4 ADD DUP2 SWAP1 MSTORE SWAP3 SWAP1 SWAP2 PUSH32 0x0 SWAP1 SWAP2 AND SWAP1 PUSH4 0xA9059CBB SWAP1 PUSH1 0x44 ADD PUSH1 0x20 PUSH1 0x40 MLOAD DUP1 DUP4 SUB DUP2 PUSH1 0x0 DUP8 DUP1 EXTCODESIZE ISZERO DUP1 ISZERO PUSH2 0x7BA JUMPI PUSH1 0x0 DUP1 REVERT JUMPDEST POP GAS CALL ISZERO DUP1 ISZERO PUSH2 0x7CE JUMPI RETURNDATASIZE PUSH1 0x0 DUP1 RETURNDATACOPY RETURNDATASIZE PUSH1 0x0 REVERT JUMPDEST POP POP POP POP PUSH1 0x40 MLOAD RETURNDATASIZE PUSH1 0x1F NOT PUSH1 0x1F DUP3 ADD AND DUP3 ADD DUP1 PUSH1 0x40 MSTORE POP DUP2 ADD SWAP1 PUSH2 0x7F2 SWAP2 SWAP1 PUSH2 0x2F21 JUMP JUMPDEST SWAP1 POP DUP1 PUSH2 0x841 JUMPI PUSH1 0x40 MLOAD PUSH3 0x461BCD PUSH1 0xE5 SHL DUP2 MSTORE PUSH1 0x20 PUSH1 0x4 DUP3 ADD MSTORE PUSH1 0x19 PUSH1 0x24 DUP3 ADD MSTORE PUSH32 0x7472616E7366657220746F2063616C6C6572206661696C656400000000000000 PUSH1 0x44 DUP3 ADD MSTORE PUSH1 0x64 ADD PUSH2 0x477 JUMP JUMPDEST PUSH1 0x40 DUP1 MLOAD PUSH1 0x1 PUSH1 0x1 PUSH1 0xA0 SHL SUB DUP7 AND DUP2 MSTORE PUSH1 0x20 DUP2 ADD DUP5 SWAP1 MSTORE PUSH32 0x884EDAD9CE6FA2440D8A54CC123490EB96D2768479D49FF9C7366125A9424364 SWAP2 ADD PUSH1 0x40 MLOAD DUP1 SWAP2 SUB SWAP1 LOG1 PUSH1 0x1 SWAP3 POP POP POP JUMPDEST PUSH1 0x1 PUSH1 0x0 SSTORE SWAP2 SWAP1 POP JUMP JUMPDEST PUSH1 0x0 DUP2 DUP2 MSTORE PUSH1 0x9 PUSH1 0x20 SWAP1 DUP2 MSTORE PUSH1 0x40 DUP1 DUP4 KECCAK256 DUP1 SLOAD DUP3 MLOAD DUP2 DUP6 MUL DUP2 ADD DUP6 ADD SWAP1 SWAP4 MSTORE DUP1 DUP4 MSTORE SWAP2 SWAP3 SWAP1 SWAP2 SWAP1 DUP4 ADD DUP3 DUP3 DUP1 ISZERO PUSH2 0x8EA JUMPI PUSH1 0x20 MUL DUP3 ADD SWAP2 SWAP1 PUSH1 0x0 MSTORE PUSH1 0x20 PUSH1 0x0 KECCAK256 SWAP1 JUMPDEST DUP2 SLOAD DUP2 MSTORE PUSH1 0x20 ADD SWAP1 PUSH1 0x1 ADD SWAP1 DUP1 DUP4 GT PUSH2 0x8D6 JUMPI JUMPDEST POP POP DUP4 MLOAD SWAP4 SWAP5 POP PUSH1 0x0 SWAP3 POP POP POP JUMPDEST DUP2 DUP2 LT ISZERO PUSH2 0x943 JUMPI PUSH2 0x930 DUP4 DUP3 DUP2 MLOAD DUP2 LT PUSH2 0x923 JUMPI PUSH4 0x4E487B71 PUSH1 0xE0 SHL PUSH1 0x0 MSTORE PUSH1 0x32 PUSH1 0x4 MSTORE PUSH1 0x24 PUSH1 0x0 REVERT JUMPDEST PUSH1 0x20 MUL PUSH1 0x20 ADD ADD MLOAD PUSH2 0x2113 JUMP JUMPDEST POP DUP1 PUSH2 0x93B DUP2 PUSH2 0x304E JUMP JUMPDEST SWAP2 POP POP PUSH2 0x8F8 JUMP JUMPDEST POP CALLER PUSH1 0x0 SWAP1 DUP2 MSTORE PUSH1 0x5 PUSH1 0x20 MSTORE PUSH1 0x40 SWAP1 KECCAK256 SLOAD ISZERO PUSH2 0x964 JUMPI PUSH2 0x962 CALLER PUSH2 0x5C7 JUMP JUMPDEST POP JUMPDEST POP POP POP JUMP JUMPDEST PUSH1 0xA SLOAD PUSH1 0x40 MLOAD PUSH4 0x1E558333 PUSH1 0xE3 SHL DUP2 MSTORE PUSH32 0x0 PUSH1 0x4 DUP3 ADD MSTORE PUSH1 0x0 SWAP2 PUSH1 0x1 PUSH1 0x1 PUSH1 0xA0 SHL SUB AND SWAP1 PUSH4 0xF2AC1998 SWAP1 PUSH1 0x24 ADD PUSH1 0x20 PUSH1 0x40 MLOAD DUP1 DUP4 SUB DUP2 DUP7 DUP1 EXTCODESIZE ISZERO DUP1 ISZERO PUSH2 0x9CD JUMPI PUSH1 0x0 DUP1 REVERT JUMPDEST POP GAS STATICCALL ISZERO DUP1 ISZERO PUSH2 0x9E1 JUMPI RETURNDATASIZE PUSH1 0x0 DUP1 RETURNDATACOPY RETURNDATASIZE PUSH1 0x0 REVERT JUMPDEST POP POP POP POP PUSH1 0x40 MLOAD RETURNDATASIZE PUSH1 0x1F NOT PUSH1 0x1F DUP3 ADD AND DUP3 ADD DUP1 PUSH1 0x40 MSTORE POP DUP2 ADD SWAP1 PUSH2 0xA05 SWAP2 SWAP1 PUSH2 0x2EB0 JUMP JUMPDEST PUSH1 0x1 PUSH1 0x1 PUSH1 0xA0 SHL SUB AND CALLER PUSH1 0x1 PUSH1 0x1 PUSH1 0xA0 SHL SUB AND EQ DUP1 PUSH2 0xA2E JUMPI POP PUSH1 0x1 SLOAD PUSH1 0x1 PUSH1 0x1 PUSH1 0xA0 SHL SUB AND CALLER EQ JUMPDEST PUSH2 0xA4A JUMPI PUSH1 0x40 MLOAD PUSH3 0x461BCD PUSH1 0xE5 SHL DUP2 MSTORE PUSH1 0x4 ADD PUSH2 0x477 SWAP1 PUSH2 0x2FB1 JUMP JUMPDEST PUSH1 0x2 SLOAD PUSH2 0xA5C JUMPI POP PUSH1 0x4 PUSH1 0x2 SSTORE PUSH1 0x1 SWAP1 JUMP JUMPDEST POP PUSH1 0x0 SWAP1 JUMP JUMPDEST PUSH1 0x60 PUSH1 0x3 DUP1 SLOAD DUP1 PUSH1 0x20 MUL PUSH1 0x20 ADD PUSH1 0x40 MLOAD SWAP1 DUP2 ADD PUSH1 0x40 MSTORE DUP1 SWAP3 SWAP2 SWAP1 DUP2 DUP2 MSTORE PUSH1 0x20 ADD DUP3 DUP1 SLOAD DUP1 ISZERO PUSH2 0xAB0 JUMPI PUSH1 0x20 MUL DUP3 ADD SWAP2 SWAP1 PUSH1 0x0 MSTORE PUSH1 0x20 PUSH1 0x0 KECCAK256 SWAP1 JUMPDEST DUP2 SLOAD DUP2 MSTORE PUSH1 0x20 ADD SWAP1 PUSH1 0x1 ADD SWAP1 DUP1 DUP4 GT PUSH2 0xA9C JUMPI JUMPDEST POP POP POP POP POP SWAP1 POP SWAP1 JUMP JUMPDEST PUSH1 0x0 DUP2 DUP2 MSTORE PUSH1 0x6 PUSH1 0x20 SWAP1 DUP2 MSTORE PUSH1 0x40 SWAP2 DUP3 SWAP1 KECCAK256 DUP3 MLOAD PUSH1 0xC0 DUP2 ADD DUP5 MSTORE DUP2 SLOAD PUSH1 0x1 PUSH1 0x1 PUSH1 0xA0 SHL SUB SWAP1 DUP2 AND DUP1 DUP4 MSTORE PUSH1 0x1 DUP5 ADD SLOAD SWAP1 SWAP2 AND SWAP4 DUP3 ADD SWAP4 SWAP1 SWAP4 MSTORE PUSH1 0x2 DUP3 ADD SLOAD SWAP4 DUP2 ADD SWAP4 SWAP1 SWAP4 MSTORE PUSH1 0x3 DUP2 ADD SLOAD PUSH1 0x60 DUP5 ADD MSTORE PUSH1 0x4 DUP2 ADD SLOAD PUSH1 0x80 DUP5 ADD MSTORE PUSH1 0x5 ADD SLOAD PUSH1 0xA0 DUP4 ADD MSTORE CALLER EQ PUSH2 0xB60 JUMPI PUSH1 0x40 MLOAD PUSH3 0x461BCD PUSH1 0xE5 SHL DUP2 MSTORE PUSH1 0x20 PUSH1 0x4 DUP3 ADD MSTORE PUSH1 0x13 PUSH1 0x24 DUP3 ADD MSTORE PUSH19 0x3AB730BABA3437B934BD32B21031B0B63632B9 PUSH1 0x69 SHL PUSH1 0x44 DUP3 ADD MSTORE PUSH1 0x64 ADD PUSH2 0x477 JUMP JUMPDEST PUSH1 0x0 DUP2 PUSH1 0x60 ADD MLOAD DUP3 PUSH1 0x40 ADD MLOAD PUSH2 0xB76 SWAP2 SWAP1 PUSH2 0x3037 JUMP JUMPDEST DUP3 MLOAD PUSH1 0x1 PUSH1 0x1 PUSH1 0xA0 SHL SUB AND PUSH1 0x0 SWAP1 DUP2 MSTORE PUSH1 0x5 PUSH1 0x20 MSTORE PUSH1 0x40 DUP2 KECCAK256 DUP1 SLOAD SWAP3 SWAP4 POP DUP4 SWAP3 SWAP1 SWAP2 SWAP1 PUSH2 0xBA4 SWAP1 DUP5 SWAP1 PUSH2 0x2FE0 JUMP JUMPDEST SWAP1 SWAP2 SSTORE POP POP PUSH1 0x40 DUP1 DUP4 ADD MLOAD PUSH1 0x0 DUP6 DUP2 MSTORE PUSH1 0x6 PUSH1 0x20 SWAP1 DUP2 MSTORE DUP4 DUP3 KECCAK256 PUSH1 0x3 ADD SWAP3 SWAP1 SWAP3 SSTORE CALLER DUP2 MSTORE PUSH1 0x5 SWAP1 SWAP2 MSTORE KECCAK256 SLOAD ISZERO PUSH2 0x964 JUMPI PUSH2 0x962 CALLER PUSH2 0x5C7 JUMP JUMPDEST PUSH1 0xA SLOAD PUSH1 0x40 MLOAD PUSH4 0x1E558333 PUSH1 0xE3 SHL DUP2 MSTORE PUSH32 0x0 PUSH1 0x4 DUP3 ADD MSTORE PUSH1 0x0 SWAP2 PUSH1 0x1 PUSH1 0x1 PUSH1 0xA0 SHL SUB AND SWAP1 PUSH4 0xF2AC1998 SWAP1 PUSH1 0x24 ADD PUSH1 0x20 PUSH1 0x40 MLOAD DUP1 DUP4 SUB DUP2 DUP7 DUP1 EXTCODESIZE ISZERO DUP1 ISZERO PUSH2 0xC41 JUMPI PUSH1 0x0 DUP1 REVERT JUMPDEST POP GAS STATICCALL ISZERO DUP1 ISZERO PUSH2 0xC55 JUMPI RETURNDATASIZE PUSH1 0x0 DUP1 RETURNDATACOPY RETURNDATASIZE PUSH1 0x0 REVERT JUMPDEST POP POP POP POP PUSH1 0x40 MLOAD RETURNDATASIZE PUSH1 0x1F NOT PUSH1 0x1F DUP3 ADD AND DUP3 ADD DUP1 PUSH1 0x40 MSTORE POP DUP2 ADD SWAP1 PUSH2 0xC79 SWAP2 SWAP1 PUSH2 0x2EB0 JUMP JUMPDEST PUSH1 0x1 PUSH1 0x1 PUSH1 0xA0 SHL SUB AND CALLER PUSH1 0x1 PUSH1 0x1 PUSH1 0xA0 SHL SUB AND EQ DUP1 PUSH2 0xCA2 JUMPI POP PUSH1 0x1 SLOAD PUSH1 0x1 PUSH1 0x1 PUSH1 0xA0 SHL SUB AND CALLER EQ JUMPDEST PUSH2 0xCBE JUMPI PUSH1 0x40 MLOAD PUSH3 0x461BCD PUSH1 0xE5 SHL DUP2 MSTORE PUSH1 0x4 ADD PUSH2 0x477 SWAP1 PUSH2 0x2FB1 JUMP JUMPDEST PUSH2 0xCC7 DUP3 PUSH2 0x169D JUMP JUMPDEST ISZERO PUSH2 0xD2B JUMPI PUSH1 0x3 SLOAD PUSH1 0x0 JUMPDEST DUP2 DUP2 LT ISZERO PUSH2 0xD21 JUMPI PUSH2 0xD0E PUSH1 0x3 DUP3 DUP2 SLOAD DUP2 LT PUSH2 0xCFE JUMPI PUSH4 0x4E487B71 PUSH1 0xE0 SHL PUSH1 0x0 MSTORE PUSH1 0x32 PUSH1 0x4 MSTORE PUSH1 0x24 PUSH1 0x0 REVERT JUMPDEST SWAP1 PUSH1 0x0 MSTORE PUSH1 0x20 PUSH1 0x0 KECCAK256 ADD SLOAD PUSH2 0x2113 JUMP JUMPDEST POP DUP1 PUSH2 0xD19 DUP2 PUSH2 0x304E JUMP JUMPDEST SWAP2 POP POP PUSH2 0xCD2 JUMP JUMPDEST POP PUSH1 0x1 SWAP4 SWAP3 POP POP POP JUMP JUMPDEST POP PUSH1 0x0 SWAP2 SWAP1 POP JUMP JUMPDEST PUSH1 0x60 PUSH1 0x4 DUP1 SLOAD DUP1 PUSH1 0x20 MUL PUSH1 0x20 ADD PUSH1 0x40 MLOAD SWAP1 DUP2 ADD PUSH1 0x40 MSTORE DUP1 SWAP3 SWAP2 SWAP1 DUP2 DUP2 MSTORE PUSH1 0x20 ADD DUP3 DUP1 SLOAD DUP1 ISZERO PUSH2 0xAB0 JUMPI PUSH1 0x20 MUL DUP3 ADD SWAP2 SWAP1 PUSH1 0x0 MSTORE PUSH1 0x20 PUSH1 0x0 KECCAK256 SWAP1 DUP2 SLOAD DUP2 MSTORE PUSH1 0x20 ADD SWAP1 PUSH1 0x1 ADD SWAP1 DUP1 DUP4 GT PUSH2 0xA9C JUMPI POP POP POP POP POP SWAP1 POP SWAP1 JUMP JUMPDEST PUSH1 0xA SLOAD PUSH1 0x40 MLOAD PUSH4 0x1E558333 PUSH1 0xE3 SHL DUP2 MSTORE PUSH32 0x0 PUSH1 0x4 DUP3 ADD MSTORE PUSH1 0x0 SWAP2 PUSH1 0x1 PUSH1 0x1 PUSH1 0xA0 SHL SUB AND SWAP1 PUSH4 0xF2AC1998 SWAP1 PUSH1 0x24 ADD PUSH1 0x20 PUSH1 0x40 MLOAD DUP1 DUP4 SUB DUP2 DUP7 DUP1 EXTCODESIZE ISZERO DUP1 ISZERO PUSH2 0xDED JUMPI PUSH1 0x0 DUP1 REVERT JUMPDEST POP GAS STATICCALL ISZERO DUP1 ISZERO PUSH2 0xE01 JUMPI RETURNDATASIZE PUSH1 0x0 DUP1 RETURNDATACOPY RETURNDATASIZE PUSH1 0x0 REVERT JUMPDEST POP POP POP POP PUSH1 0x40 MLOAD RETURNDATASIZE PUSH1 0x1F NOT PUSH1 0x1F DUP3 ADD AND DUP3 ADD DUP1 PUSH1 0x40 MSTORE POP DUP2 ADD SWAP1 PUSH2 0xE25 SWAP2 SWAP1 PUSH2 0x2EB0 JUMP JUMPDEST PUSH1 0x1 PUSH1 0x1 PUSH1 0xA0 SHL SUB AND CALLER PUSH1 0x1 PUSH1 0x1 PUSH1 0xA0 SHL SUB AND EQ DUP1 PUSH2 0xE4E JUMPI POP PUSH1 0x1 SLOAD PUSH1 0x1 PUSH1 0x1 PUSH1 0xA0 SHL SUB AND CALLER EQ JUMPDEST PUSH2 0xE6A JUMPI PUSH1 0x40 MLOAD PUSH3 0x461BCD PUSH1 0xE5 SHL DUP2 MSTORE PUSH1 0x4 ADD PUSH2 0x477 SWAP1 PUSH2 0x2FB1 JUMP JUMPDEST PUSH1 0x2 SLOAD ISZERO DUP1 PUSH2 0xE7B JUMPI POP PUSH1 0x2 SLOAD PUSH1 0x4 EQ JUMPDEST ISZERO PUSH2 0xA5C JUMPI PUSH1 0x3 SLOAD PUSH1 0x0 JUMPDEST DUP2 DUP2 LT ISZERO PUSH2 0xED5 JUMPI PUSH2 0xEC2 PUSH1 0x3 DUP3 DUP2 SLOAD DUP2 LT PUSH2 0xEB2 JUMPI PUSH4 0x4E487B71 PUSH1 0xE0 SHL PUSH1 0x0 MSTORE PUSH1 0x32 PUSH1 0x4 MSTORE PUSH1 0x24 PUSH1 0x0 REVERT JUMPDEST SWAP1 PUSH1 0x0 MSTORE PUSH1 0x20 PUSH1 0x0 KECCAK256 ADD SLOAD PUSH2 0x2905 JUMP JUMPDEST POP DUP1 PUSH2 0xECD DUP2 PUSH2 0x304E JUMP JUMPDEST SWAP2 POP POP PUSH2 0xE86 JUMP JUMPDEST POP POP PUSH1 0x3 PUSH1 0x2 SSTORE POP PUSH1 0x1 SWAP1 JUMP JUMPDEST PUSH1 0xA SLOAD PUSH1 0x40 MLOAD PUSH4 0x332DACCF PUSH1 0xE0 SHL DUP2 MSTORE CALLER PUSH1 0x4 DUP3 ADD MSTORE PUSH1 0x0 SWAP2 PUSH1 0x1 PUSH1 0x1 PUSH1 0xA0 SHL SUB AND SWAP1 PUSH4 0x332DACCF SWAP1 PUSH1 0x24 ADD PUSH1 0x20 PUSH1 0x40 MLOAD DUP1 DUP4 SUB DUP2 DUP7 DUP1 EXTCODESIZE ISZERO DUP1 ISZERO PUSH2 0xF26 JUMPI PUSH1 0x0 DUP1 REVERT JUMPDEST POP GAS STATICCALL ISZERO DUP1 ISZERO PUSH2 0xF3A JUMPI RETURNDATASIZE PUSH1 0x0 DUP1 RETURNDATACOPY RETURNDATASIZE PUSH1 0x0 REVERT JUMPDEST POP POP POP POP PUSH1 0x40 MLOAD RETURNDATASIZE PUSH1 0x1F NOT PUSH1 0x1F DUP3 ADD AND DUP3 ADD DUP1 PUSH1 0x40 MSTORE POP DUP2 ADD SWAP1 PUSH2 0xF5E SWAP2 SWAP1 PUSH2 0x2F21 JUMP JUMPDEST ISZERO PUSH2 0xF97 JUMPI PUSH1 0x40 MLOAD PUSH3 0x461BCD PUSH1 0xE5 SHL DUP2 MSTORE PUSH1 0x20 PUSH1 0x4 DUP3 ADD MSTORE PUSH1 0x9 PUSH1 0x24 DUP3 ADD MSTORE PUSH9 0x189B1858DADB1A5CDD PUSH1 0xBA SHL PUSH1 0x44 DUP3 ADD MSTORE PUSH1 0x64 ADD PUSH2 0x477 JUMP JUMPDEST PUSH1 0x2 SLOAD ISZERO PUSH2 0xFDB JUMPI PUSH1 0x40 MLOAD PUSH3 0x461BCD PUSH1 0xE5 SHL DUP2 MSTORE PUSH1 0x20 PUSH1 0x4 DUP3 ADD MSTORE PUSH1 0x11 PUSH1 0x24 DUP3 ADD MSTORE PUSH17 0x6D61726B6574206E6F7420616374697665 PUSH1 0x78 SHL PUSH1 0x44 DUP3 ADD MSTORE PUSH1 0x64 ADD PUSH2 0x477 JUMP JUMPDEST DUP3 PUSH1 0x1 EQ DUP1 PUSH2 0xFEA JUMPI POP DUP3 PUSH1 0x2 EQ JUMPDEST PUSH2 0x1025 JUMPI PUSH1 0x40 MLOAD PUSH3 0x461BCD PUSH1 0xE5 SHL DUP2 MSTORE PUSH1 0x20 PUSH1 0x4 DUP3 ADD MSTORE PUSH1 0xC PUSH1 0x24 DUP3 ADD MSTORE PUSH12 0x696E76616C69642073696465 PUSH1 0xA0 SHL PUSH1 0x44 DUP3 ADD MSTORE PUSH1 0x64 ADD PUSH2 0x477 JUMP JUMPDEST PUSH1 0x40 MLOAD PUSH4 0x70A08231 PUSH1 0xE0 SHL DUP2 MSTORE CALLER PUSH1 0x4 DUP3 ADD MSTORE DUP6 SWAP1 PUSH32 0x0 PUSH1 0x1 PUSH1 0x1 PUSH1 0xA0 SHL SUB AND SWAP1 PUSH4 0x70A08231 SWAP1 PUSH1 0x24 ADD PUSH1 0x20 PUSH1 0x40 MLOAD DUP1 DUP4 SUB DUP2 DUP7 DUP1 EXTCODESIZE ISZERO DUP1 ISZERO PUSH2 0x1086 JUMPI PUSH1 0x0 DUP1 REVERT JUMPDEST POP GAS STATICCALL ISZERO DUP1 ISZERO PUSH2 0x109A JUMPI RETURNDATASIZE PUSH1 0x0 DUP1 RETURNDATACOPY RETURNDATASIZE PUSH1 0x0 REVERT JUMPDEST POP POP POP POP PUSH1 0x40 MLOAD RETURNDATASIZE PUSH1 0x1F NOT PUSH1 0x1F DUP3 ADD AND DUP3 ADD DUP1 PUSH1 0x40 MSTORE POP DUP2 ADD SWAP1 PUSH2 0x10BE SWAP2 SWAP1 PUSH2 0x2F55 JUMP JUMPDEST LT ISZERO PUSH2 0x110C JUMPI PUSH1 0x40 MLOAD PUSH3 0x461BCD PUSH1 0xE5 SHL DUP2 MSTORE PUSH1 0x20 PUSH1 0x4 DUP3 ADD MSTORE PUSH1 0x19 PUSH1 0x24 DUP3 ADD MSTORE PUSH32 0x6E6F7420656E6F75676820746F6B656E2062616C616C6E636500000000000000 PUSH1 0x44 DUP3 ADD MSTORE PUSH1 0x64 ADD PUSH2 0x477 JUMP JUMPDEST PUSH1 0x40 MLOAD PUSH4 0x6EB1769F PUSH1 0xE1 SHL DUP2 MSTORE CALLER PUSH1 0x4 DUP3 ADD MSTORE ADDRESS PUSH1 0x24 DUP3 ADD MSTORE DUP6 SWAP1 PUSH32 0x0 PUSH1 0x1 PUSH1 0x1 PUSH1 0xA0 SHL SUB AND SWAP1 PUSH4 0xDD62ED3E SWAP1 PUSH1 0x44 ADD PUSH1 0x20 PUSH1 0x40 MLOAD DUP1 DUP4 SUB DUP2 DUP7 DUP1 EXTCODESIZE ISZERO DUP1 ISZERO PUSH2 0x1173 JUMPI PUSH1 0x0 DUP1 REVERT JUMPDEST POP GAS STATICCALL ISZERO DUP1 ISZERO PUSH2 0x1187 JUMPI RETURNDATASIZE PUSH1 0x0 DUP1 RETURNDATACOPY RETURNDATASIZE PUSH1 0x0 REVERT JUMPDEST POP POP POP POP PUSH1 0x40 MLOAD RETURNDATASIZE PUSH1 0x1F NOT PUSH1 0x1F DUP3 ADD AND DUP3 ADD DUP1 PUSH1 0x40 MSTORE POP DUP2 ADD SWAP1 PUSH2 0x11AB SWAP2 SWAP1 PUSH2 0x2F55 JUMP JUMPDEST LT ISZERO PUSH2 0x11F0 JUMPI PUSH1 0x40 MLOAD PUSH3 0x461BCD PUSH1 0xE5 SHL DUP2 MSTORE PUSH1 0x20 PUSH1 0x4 DUP3 ADD MSTORE PUSH1 0x14 PUSH1 0x24 DUP3 ADD MSTORE PUSH20 0x6E6F7420656E6F75676820616C6C6F77616E6365 PUSH1 0x60 SHL PUSH1 0x44 DUP3 ADD MSTORE PUSH1 0x64 ADD PUSH2 0x477 JUMP JUMPDEST PUSH1 0xA PUSH1 0x0 SWAP1 SLOAD SWAP1 PUSH2 0x100 EXP SWAP1 DIV PUSH1 0x1 PUSH1 0x1 PUSH1 0xA0 SHL SUB AND PUSH1 0x1 PUSH1 0x1 PUSH1 0xA0 SHL SUB AND PUSH4 0x375B3C0A PUSH1 0x40 MLOAD DUP2 PUSH4 0xFFFFFFFF AND PUSH1 0xE0 SHL DUP2 MSTORE PUSH1 0x4 ADD PUSH1 0x20 PUSH1 0x40 MLOAD DUP1 DUP4 SUB DUP2 DUP7 DUP1 EXTCODESIZE ISZERO DUP1 ISZERO PUSH2 0x123E JUMPI PUSH1 0x0 DUP1 REVERT JUMPDEST POP GAS STATICCALL ISZERO DUP1 ISZERO PUSH2 0x1252 JUMPI RETURNDATASIZE PUSH1 0x0 DUP1 RETURNDATACOPY RETURNDATASIZE PUSH1 0x0 REVERT JUMPDEST POP POP POP POP PUSH1 0x40 MLOAD RETURNDATASIZE PUSH1 0x1F NOT PUSH1 0x1F DUP3 ADD AND DUP3 ADD DUP1 PUSH1 0x40 MSTORE POP DUP2 ADD SWAP1 PUSH2 0x1276 SWAP2 SWAP1 PUSH2 0x2F55 JUMP JUMPDEST DUP6 LT ISZERO PUSH2 0x12BB JUMPI PUSH1 0x40 MLOAD PUSH3 0x461BCD PUSH1 0xE5 SHL DUP2 MSTORE PUSH1 0x20 PUSH1 0x4 DUP3 ADD MSTORE PUSH1 0x13 PUSH1 0x24 DUP3 ADD MSTORE PUSH19 0x6C657373207468616E206D696E207374616B65 PUSH1 0x68 SHL PUSH1 0x44 DUP3 ADD MSTORE PUSH1 0x64 ADD PUSH2 0x477 JUMP JUMPDEST PUSH1 0x40 MLOAD PUSH4 0x23B872DD PUSH1 0xE0 SHL DUP2 MSTORE CALLER PUSH1 0x4 DUP3 ADD MSTORE ADDRESS PUSH1 0x24 DUP3 ADD MSTORE PUSH1 0x44 DUP2 ADD DUP7 SWAP1 MSTORE PUSH32 0x0 PUSH1 0x1 PUSH1 0x1 PUSH1 0xA0 SHL SUB AND SWAP1 PUSH4 0x23B872DD SWAP1 PUSH1 0x64 ADD PUSH1 0x20 PUSH1 0x40 MLOAD DUP1 DUP4 SUB DUP2 PUSH1 0x0 DUP8 DUP1 EXTCODESIZE ISZERO DUP1 ISZERO PUSH2 0x1329 JUMPI PUSH1 0x0 DUP1 REVERT JUMPDEST POP GAS CALL ISZERO DUP1 ISZERO PUSH2 0x133D JUMPI RETURNDATASIZE PUSH1 0x0 DUP1 RETURNDATACOPY RETURNDATASIZE PUSH1 0x0 REVERT JUMPDEST POP POP POP POP PUSH1 0x40 MLOAD RETURNDATASIZE PUSH1 0x1F NOT PUSH1 0x1F DUP3 ADD AND DUP3 ADD DUP1 PUSH1 0x40 MSTORE POP DUP2 ADD SWAP1 PUSH2 0x1361 SWAP2 SWAP1 PUSH2 0x2F21 JUMP JUMPDEST PUSH2 0x13AD JUMPI PUSH1 0x40 MLOAD PUSH3 0x461BCD PUSH1 0xE5 SHL DUP2 MSTORE PUSH1 0x20 PUSH1 0x4 DUP3 ADD MSTORE PUSH1 0x1B PUSH1 0x24 DUP3 ADD MSTORE PUSH32 0x7472616E736665722066726F6D2063616C6C6572206661696C65640000000000 PUSH1 0x44 DUP3 ADD MSTORE PUSH1 0x64 ADD PUSH2 0x477 JUMP JUMPDEST PUSH1 0x0 PUSH2 0x13DC CALLER DUP9 DUP9 DUP5 PUSH2 0x13C1 PUSH1 0x64 DUP12 PUSH2 0x3037 JUMP JUMPDEST PUSH2 0x13CC DUP12 PUSH1 0x64 PUSH2 0x3018 JUMP JUMPDEST PUSH2 0x13D6 SWAP2 SWAP1 PUSH2 0x2FF8 JUMP JUMPDEST DUP10 PUSH2 0x29E7 JUMP JUMPDEST PUSH1 0x4 SLOAD SWAP1 SWAP2 POP ISZERO PUSH2 0x163E JUMPI PUSH1 0x4 SLOAD DUP7 SWAP1 JUMPDEST PUSH1 0xA PUSH1 0x0 SWAP1 SLOAD SWAP1 PUSH2 0x100 EXP SWAP1 DIV PUSH1 0x1 PUSH1 0x1 PUSH1 0xA0 SHL SUB AND PUSH1 0x1 PUSH1 0x1 PUSH1 0xA0 SHL SUB AND PUSH4 0x375B3C0A PUSH1 0x40 MLOAD DUP2 PUSH4 0xFFFFFFFF AND PUSH1 0xE0 SHL DUP2 MSTORE PUSH1 0x4 ADD PUSH1 0x20 PUSH1 0x40 MLOAD DUP1 DUP4 SUB DUP2 DUP7 DUP1 EXTCODESIZE ISZERO DUP1 ISZERO PUSH2 0x143B JUMPI PUSH1 0x0 DUP1 REVERT JUMPDEST POP GAS STATICCALL ISZERO DUP1 ISZERO PUSH2 0x144F JUMPI RETURNDATASIZE PUSH1 0x0 DUP1 RETURNDATACOPY RETURNDATASIZE PUSH1 0x0 REVERT JUMPDEST POP POP POP POP PUSH1 0x40 MLOAD RETURNDATASIZE PUSH1 0x1F NOT PUSH1 0x1F DUP3 ADD AND DUP3 ADD DUP1 PUSH1 0x40 MSTORE POP DUP2 ADD SWAP1 PUSH2 0x1473 SWAP2 SWAP1 PUSH2 0x2F55 JUMP JUMPDEST DUP3 LT PUSH2 0x163B JUMPI PUSH1 0x0 DUP1 PUSH1 0x0 JUMPDEST DUP4 DUP2 LT ISZERO PUSH2 0x1523 JUMPI PUSH1 0x0 PUSH1 0x4 DUP3 DUP2 SLOAD DUP2 LT PUSH2 0x14AA JUMPI PUSH4 0x4E487B71 PUSH1 0xE0 SHL PUSH1 0x0 MSTORE PUSH1 0x32 PUSH1 0x4 MSTORE PUSH1 0x24 PUSH1 0x0 REVERT JUMPDEST SWAP1 PUSH1 0x0 MSTORE PUSH1 0x20 PUSH1 0x0 KECCAK256 ADD SLOAD SWAP1 POP PUSH1 0x6 PUSH1 0x0 DUP3 DUP2 MSTORE PUSH1 0x20 ADD SWAP1 DUP2 MSTORE PUSH1 0x20 ADD PUSH1 0x0 KECCAK256 PUSH1 0x5 ADD SLOAD DUP11 EQ ISZERO PUSH2 0x14DB JUMPI POP PUSH2 0x1511 JUMP JUMPDEST PUSH1 0x0 DUP2 DUP2 MSTORE PUSH1 0x6 PUSH1 0x20 MSTORE PUSH1 0x40 SWAP1 KECCAK256 PUSH1 0x4 ADD SLOAD DUP4 LT ISZERO PUSH2 0x150F JUMPI PUSH1 0x0 DUP2 DUP2 MSTORE PUSH1 0x6 PUSH1 0x20 MSTORE PUSH1 0x40 SWAP1 KECCAK256 PUSH1 0x4 ADD SLOAD SWAP2 SWAP4 POP SWAP1 SWAP2 POP DUP3 SWAP1 JUMPDEST POP JUMPDEST DUP1 PUSH2 0x151B DUP2 PUSH2 0x304E JUMP JUMPDEST SWAP2 POP POP PUSH2 0x147F JUMP JUMPDEST POP PUSH1 0x0 DUP10 DUP3 LT ISZERO DUP1 PUSH2 0x153D JUMPI POP PUSH1 0x0 DUP3 GT DUP1 ISZERO PUSH2 0x153D JUMPI POP DUP8 JUMPDEST ISZERO PUSH2 0x161F JUMPI PUSH1 0x0 PUSH1 0x4 DUP5 DUP2 SLOAD DUP2 LT PUSH2 0x1565 JUMPI PUSH4 0x4E487B71 PUSH1 0xE0 SHL PUSH1 0x0 MSTORE PUSH1 0x32 PUSH1 0x4 MSTORE PUSH1 0x24 PUSH1 0x0 REVERT JUMPDEST PUSH1 0x0 SWAP2 DUP3 MSTORE PUSH1 0x20 DUP1 DUP4 KECCAK256 SWAP1 SWAP2 ADD SLOAD DUP1 DUP4 MSTORE PUSH1 0x6 DUP3 MSTORE PUSH1 0x40 DUP1 DUP5 KECCAK256 DUP2 MLOAD PUSH1 0xC0 DUP2 ADD DUP4 MSTORE DUP2 SLOAD PUSH1 0x1 PUSH1 0x1 PUSH1 0xA0 SHL SUB SWAP1 DUP2 AND DUP3 MSTORE PUSH1 0x1 DUP4 ADD SLOAD AND SWAP5 DUP2 ADD SWAP5 SWAP1 SWAP5 MSTORE PUSH1 0x2 DUP2 ADD SLOAD SWAP2 DUP5 ADD SWAP2 SWAP1 SWAP2 MSTORE PUSH1 0x3 DUP2 ADD SLOAD PUSH1 0x60 DUP5 ADD MSTORE PUSH1 0x4 DUP2 ADD SLOAD PUSH1 0x80 DUP5 ADD MSTORE PUSH1 0x5 ADD SLOAD PUSH1 0xA0 DUP4 ADD MSTORE SWAP3 POP SWAP1 PUSH2 0x15DA PUSH1 0x64 DUP15 PUSH2 0x3037 JUMP JUMPDEST DUP3 PUSH1 0x60 ADD MLOAD DUP4 PUSH1 0x40 ADD MLOAD PUSH2 0x15EE SWAP2 SWAP1 PUSH2 0x3037 JUMP JUMPDEST PUSH2 0x15F8 SWAP2 SWAP1 PUSH2 0x2FF8 JUMP JUMPDEST SWAP1 POP PUSH2 0x1605 PUSH1 0x64 DUP3 PUSH2 0x3018 JUMP JUMPDEST SWAP1 POP PUSH2 0x1615 DUP15 DUP3 DUP16 DUP16 DUP14 DUP9 PUSH2 0x2C0C JUMP JUMPDEST SWAP4 POP POP POP POP PUSH2 0x1627 JUMP JUMPDEST POP POP POP PUSH2 0x163B JUMP JUMPDEST PUSH2 0x1631 DUP2 DUP7 PUSH2 0x3037 JUMP JUMPDEST SWAP5 POP POP POP POP PUSH2 0x13ED JUMP JUMPDEST POP POP JUMPDEST PUSH1 0x40 DUP1 MLOAD CALLER DUP2 MSTORE ADDRESS PUSH1 0x20 DUP3 ADD MSTORE SWAP1 DUP2 ADD DUP3 SWAP1 MSTORE PUSH1 0x60 DUP2 ADD DUP8 SWAP1 MSTORE PUSH1 0x80 DUP2 ADD DUP7 SWAP1 MSTORE PUSH1 0xA0 DUP2 ADD DUP6 SWAP1 MSTORE PUSH32 0x618F358BB45538682ADE624A4A1959053D9DABD20FE300508034B879681B37BE SWAP1 PUSH1 0xC0 ADD PUSH1 0x40 MLOAD DUP1 SWAP2 SUB SWAP1 LOG1 SWAP7 SWAP6 POP POP POP POP POP POP JUMP JUMPDEST PUSH1 0xA SLOAD PUSH1 0x40 MLOAD PUSH4 0x1E558333 PUSH1 0xE3 SHL DUP2 MSTORE PUSH32 0x0 PUSH1 0x4 DUP3 ADD MSTORE PUSH1 0x0 SWAP2 PUSH1 0x1 PUSH1 0x1 PUSH1 0xA0 SHL SUB AND SWAP1 PUSH4 0xF2AC1998 SWAP1 PUSH1 0x24 ADD PUSH1 0x20 PUSH1 0x40 MLOAD DUP1 DUP4 SUB DUP2 DUP7 DUP1 EXTCODESIZE ISZERO DUP1 ISZERO PUSH2 0x1701 JUMPI PUSH1 0x0 DUP1 REVERT JUMPDEST POP GAS STATICCALL ISZERO DUP1 ISZERO PUSH2 0x1715 JUMPI RETURNDATASIZE PUSH1 0x0 DUP1 RETURNDATACOPY RETURNDATASIZE PUSH1 0x0 REVERT JUMPDEST POP POP POP POP PUSH1 0x40 MLOAD RETURNDATASIZE PUSH1 0x1F NOT PUSH1 0x1F DUP3 ADD AND DUP3 ADD DUP1 PUSH1 0x40 MSTORE POP DUP2 ADD SWAP1 PUSH2 0x1739 SWAP2 SWAP1 PUSH2 0x2EB0 JUMP JUMPDEST PUSH1 0x1 PUSH1 0x1 PUSH1 0xA0 SHL SUB AND CALLER PUSH1 0x1 PUSH1 0x1 PUSH1 0xA0 SHL SUB AND EQ DUP1 PUSH2 0x1762 JUMPI POP PUSH1 0x1 SLOAD PUSH1 0x1 PUSH1 0x1 PUSH1 0xA0 SHL SUB AND CALLER EQ JUMPDEST PUSH2 0x177E JUMPI PUSH1 0x40 MLOAD PUSH3 0x461BCD PUSH1 0xE5 SHL DUP2 MSTORE PUSH1 0x4 ADD PUSH2 0x477 SWAP1 PUSH2 0x2FB1 JUMP JUMPDEST PUSH1 0x2 SLOAD ISZERO DUP1 PUSH2 0x178F JUMPI POP PUSH1 0x2 SLOAD PUSH1 0x1 EQ JUMPDEST DUP1 PUSH2 0x179C JUMPI POP PUSH1 0x2 SLOAD PUSH1 0x2 EQ JUMPDEST DUP1 PUSH2 0x17A9 JUMPI POP PUSH1 0x2 SLOAD PUSH1 0x4 EQ JUMPDEST DUP1 ISZERO PUSH2 0x17BF JUMPI POP DUP2 PUSH1 0x1 EQ DUP1 PUSH2 0x17BF JUMPI POP DUP2 PUSH1 0x2 EQ JUMPDEST ISZERO PUSH2 0xD2B JUMPI POP PUSH1 0x2 SSTORE PUSH1 0x1 SWAP1 JUMP JUMPDEST PUSH1 0xA SLOAD PUSH1 0x40 MLOAD PUSH4 0x1E558333 PUSH1 0xE3 SHL DUP2 MSTORE PUSH32 0x0 PUSH1 0x4 DUP3 ADD MSTORE PUSH1 0x0 SWAP2 PUSH1 0x1 PUSH1 0x1 PUSH1 0xA0 SHL SUB AND SWAP1 PUSH4 0xF2AC1998 SWAP1 PUSH1 0x24 ADD PUSH1 0x20 PUSH1 0x40 MLOAD DUP1 DUP4 SUB DUP2 DUP7 DUP1 EXTCODESIZE ISZERO DUP1 ISZERO PUSH2 0x1831 JUMPI PUSH1 0x0 DUP1 REVERT JUMPDEST POP GAS STATICCALL ISZERO DUP1 ISZERO PUSH2 0x1845 JUMPI RETURNDATASIZE PUSH1 0x0 DUP1 RETURNDATACOPY RETURNDATASIZE PUSH1 0x0 REVERT JUMPDEST POP POP POP POP PUSH1 0x40 MLOAD RETURNDATASIZE PUSH1 0x1F NOT PUSH1 0x1F DUP3 ADD AND DUP3 ADD DUP1 PUSH1 0x40 MSTORE POP DUP2 ADD SWAP1 PUSH2 0x1869 SWAP2 SWAP1 PUSH2 0x2EB0 JUMP JUMPDEST PUSH1 0x1 PUSH1 0x1 PUSH1 0xA0 SHL SUB AND CALLER PUSH1 0x1 PUSH1 0x1 PUSH1 0xA0 SHL SUB AND EQ DUP1 PUSH2 0x1892 JUMPI POP PUSH1 0x1 SLOAD PUSH1 0x1 PUSH1 0x1 PUSH1 0xA0 SHL SUB AND CALLER EQ JUMPDEST PUSH2 0x18AE JUMPI PUSH1 0x40 MLOAD PUSH3 0x461BCD PUSH1 0xE5 SHL DUP2 MSTORE PUSH1 0x4 ADD PUSH2 0x477 SWAP1 PUSH2 0x2FB1 JUMP JUMPDEST PUSH1 0x2 SLOAD ISZERO DUP1 PUSH2 0x18BF JUMPI POP PUSH1 0x2 SLOAD PUSH1 0x4 EQ JUMPDEST ISZERO PUSH2 0xA5C JUMPI POP PUSH1 0x3 PUSH1 0x2 SSTORE PUSH1 0x1 SWAP1 JUMP JUMPDEST PUSH1 0x0 DUP2 DUP2 MSTORE PUSH1 0x6 PUSH1 0x20 SWAP1 DUP2 MSTORE PUSH1 0x40 DUP1 DUP4 KECCAK256 DUP2 MLOAD PUSH1 0xC0 DUP2 ADD DUP4 MSTORE DUP2 SLOAD PUSH1 0x1 PUSH1 0x1 PUSH1 0xA0 SHL SUB SWAP1 DUP2 AND DUP3 MSTORE PUSH1 0x1 DUP4 ADD SLOAD AND DUP2 DUP6 ADD MSTORE PUSH1 0x2 DUP3 ADD SLOAD DUP2 DUP5 ADD MSTORE PUSH1 0x3 DUP3 ADD SLOAD PUSH1 0x60 DUP3 ADD MSTORE PUSH1 0x4 DUP3 ADD SLOAD PUSH1 0x80 DUP3 ADD MSTORE PUSH1 0x5 SWAP1 SWAP2 ADD SLOAD PUSH1 0xA0 DUP3 ADD MSTORE DUP5 DUP5 MSTORE PUSH1 0x9 DUP4 MSTORE DUP2 DUP5 KECCAK256 DUP1 SLOAD DUP4 MLOAD DUP2 DUP7 MUL DUP2 ADD DUP7 ADD SWAP1 SWAP5 MSTORE DUP1 DUP5 MSTORE SWAP2 SWAP4 DUP6 SWAP4 SWAP3 SWAP1 DUP4 ADD DUP3 DUP3 DUP1 ISZERO PUSH2 0x1979 JUMPI PUSH1 0x20 MUL DUP3 ADD SWAP2 SWAP1 PUSH1 0x0 MSTORE PUSH1 0x20 PUSH1 0x0 KECCAK256 SWAP1 JUMPDEST DUP2 SLOAD DUP2 MSTORE PUSH1 0x20 ADD SWAP1 PUSH1 0x1 ADD SWAP1 DUP1 DUP4 GT PUSH2 0x1965 JUMPI JUMPDEST POP POP DUP4 MLOAD SWAP4 SWAP5 POP PUSH1 0x0 SWAP3 POP POP POP JUMPDEST DUP2 DUP2 LT ISZERO PUSH2 0x2107 JUMPI PUSH1 0x8 PUSH1 0x0 DUP5 DUP4 DUP2 MLOAD DUP2 LT PUSH2 0x19B3 JUMPI PUSH4 0x4E487B71 PUSH1 0xE0 SHL PUSH1 0x0 MSTORE PUSH1 0x32 PUSH1 0x4 MSTORE PUSH1 0x24 PUSH1 0x0 REVERT JUMPDEST PUSH1 0x20 SWAP1 DUP2 MUL SWAP2 SWAP1 SWAP2 ADD DUP2 ADD MLOAD DUP3 MSTORE DUP2 ADD SWAP2 SWAP1 SWAP2 MSTORE PUSH1 0x40 ADD PUSH1 0x0 KECCAK256 PUSH1 0x4 ADD SLOAD PUSH1 0xFF AND ISZERO PUSH2 0x19DE JUMPI PUSH2 0x20F5 JUMP JUMPDEST PUSH1 0x0 DUP1 PUSH1 0x0 DUP1 DUP8 PUSH1 0xA0 ADD MLOAD PUSH1 0x1 EQ ISZERO PUSH2 0x1AB6 JUMPI PUSH1 0x8 PUSH1 0x0 DUP9 DUP8 DUP2 MLOAD DUP2 LT PUSH2 0x1A15 JUMPI PUSH4 0x4E487B71 PUSH1 0xE0 SHL PUSH1 0x0 MSTORE PUSH1 0x32 PUSH1 0x4 MSTORE PUSH1 0x24 PUSH1 0x0 REVERT JUMPDEST PUSH1 0x20 MUL PUSH1 0x20 ADD ADD MLOAD DUP2 MSTORE PUSH1 0x20 ADD SWAP1 DUP2 MSTORE PUSH1 0x20 ADD PUSH1 0x0 KECCAK256 PUSH1 0x2 ADD SLOAD SWAP2 POP PUSH1 0x8 PUSH1 0x0 DUP9 DUP8 DUP2 MLOAD DUP2 LT PUSH2 0x1A55 JUMPI PUSH4 0x4E487B71 PUSH1 0xE0 SHL PUSH1 0x0 MSTORE PUSH1 0x32 PUSH1 0x4 MSTORE PUSH1 0x24 PUSH1 0x0 REVERT JUMPDEST PUSH1 0x20 MUL PUSH1 0x20 ADD ADD MLOAD DUP2 MSTORE PUSH1 0x20 ADD SWAP1 DUP2 MSTORE PUSH1 0x20 ADD PUSH1 0x0 KECCAK256 PUSH1 0x1 ADD SLOAD SWAP4 POP PUSH1 0x8 PUSH1 0x0 DUP9 DUP8 DUP2 MLOAD DUP2 LT PUSH2 0x1A95 JUMPI PUSH4 0x4E487B71 PUSH1 0xE0 SHL PUSH1 0x0 MSTORE PUSH1 0x32 PUSH1 0x4 MSTORE PUSH1 0x24 PUSH1 0x0 REVERT JUMPDEST PUSH1 0x20 MUL PUSH1 0x20 ADD ADD MLOAD DUP2 MSTORE PUSH1 0x20 ADD SWAP1 DUP2 MSTORE PUSH1 0x20 ADD PUSH1 0x0 KECCAK256 PUSH1 0x3 ADD SLOAD SWAP3 POP PUSH2 0x1B84 JUMP JUMPDEST DUP8 PUSH1 0xA0 ADD MLOAD PUSH1 0x2 EQ ISZERO PUSH2 0x1B84 JUMPI PUSH1 0x8 PUSH1 0x0 DUP9 DUP8 DUP2 MLOAD DUP2 LT PUSH2 0x1AE7 JUMPI PUSH4 0x4E487B71 PUSH1 0xE0 SHL PUSH1 0x0 MSTORE PUSH1 0x32 PUSH1 0x4 MSTORE PUSH1 0x24 PUSH1 0x0 REVERT JUMPDEST PUSH1 0x20 MUL PUSH1 0x20 ADD ADD MLOAD DUP2 MSTORE PUSH1 0x20 ADD SWAP1 DUP2 MSTORE PUSH1 0x20 ADD PUSH1 0x0 KECCAK256 PUSH1 0x3 ADD SLOAD SWAP2 POP PUSH1 0x8 PUSH1 0x0 DUP9 DUP8 DUP2 MLOAD DUP2 LT PUSH2 0x1B27 JUMPI PUSH4 0x4E487B71 PUSH1 0xE0 SHL PUSH1 0x0 MSTORE PUSH1 0x32 PUSH1 0x4 MSTORE PUSH1 0x24 PUSH1 0x0 REVERT JUMPDEST PUSH1 0x20 MUL PUSH1 0x20 ADD ADD MLOAD DUP2 MSTORE PUSH1 0x20 ADD SWAP1 DUP2 MSTORE PUSH1 0x20 ADD PUSH1 0x0 KECCAK256 PUSH1 0x0 ADD SLOAD SWAP4 POP PUSH1 0x8 PUSH1 0x0 DUP9 DUP8 DUP2 MLOAD DUP2 LT PUSH2 0x1B67 JUMPI PUSH4 0x4E487B71 PUSH1 0xE0 SHL PUSH1 0x0 MSTORE PUSH1 0x32 PUSH1 0x4 MSTORE PUSH1 0x24 PUSH1 0x0 REVERT JUMPDEST PUSH1 0x20 MUL PUSH1 0x20 ADD ADD MLOAD DUP2 MSTORE PUSH1 0x20 ADD SWAP1 DUP2 MSTORE PUSH1 0x20 ADD PUSH1 0x0 KECCAK256 PUSH1 0x2 ADD SLOAD SWAP3 POP JUMPDEST POP PUSH1 0x0 DUP4 DUP2 MSTORE PUSH1 0x6 PUSH1 0x20 SWAP1 DUP2 MSTORE PUSH1 0x40 SWAP2 DUP3 SWAP1 KECCAK256 SLOAD PUSH1 0xA SLOAD DUP4 MLOAD PUSH4 0x55C4A8BF PUSH1 0xE0 SHL DUP2 MSTORE SWAP4 MLOAD PUSH1 0x1 PUSH1 0x1 PUSH1 0xA0 SHL SUB SWAP3 DUP4 AND SWAP5 PUSH1 0x64 SWAP5 SWAP4 SWAP1 SWAP3 AND SWAP3 PUSH4 0x55C4A8BF SWAP3 PUSH1 0x4 DUP1 DUP3 ADD SWAP4 SWAP2 DUP3 SWAP1 SUB ADD DUP2 DUP7 DUP1 EXTCODESIZE ISZERO DUP1 ISZERO PUSH2 0x1BDE JUMPI PUSH1 0x0 DUP1 REVERT JUMPDEST POP GAS STATICCALL ISZERO DUP1 ISZERO PUSH2 0x1BF2 JUMPI RETURNDATASIZE PUSH1 0x0 DUP1 RETURNDATACOPY RETURNDATASIZE PUSH1 0x0 REVERT JUMPDEST POP POP POP POP PUSH1 0x40 MLOAD RETURNDATASIZE PUSH1 0x1F NOT PUSH1 0x1F DUP3 ADD AND DUP3 ADD DUP1 PUSH1 0x40 MSTORE POP DUP2 ADD SWAP1 PUSH2 0x1C16 SWAP2 SWAP1 PUSH2 0x2F55 JUMP JUMPDEST PUSH2 0x1C21 SWAP1 PUSH1 0x64 PUSH2 0x3037 JUMP JUMPDEST PUSH2 0x1C2B SWAP1 DUP5 PUSH2 0x3018 JUMP JUMPDEST PUSH2 0x1C35 SWAP2 SWAP1 PUSH2 0x2FF8 JUMP JUMPDEST DUP9 MLOAD PUSH1 0x1 PUSH1 0x1 PUSH1 0xA0 SHL SUB AND PUSH1 0x0 SWAP1 DUP2 MSTORE PUSH1 0x5 PUSH1 0x20 MSTORE PUSH1 0x40 DUP2 KECCAK256 DUP1 SLOAD SWAP1 SWAP2 SWAP1 PUSH2 0x1C5E SWAP1 DUP5 SWAP1 PUSH2 0x2FE0 JUMP JUMPDEST SWAP1 SWAP2 SSTORE POP POP PUSH1 0x0 DUP5 DUP2 MSTORE PUSH1 0x6 PUSH1 0x20 MSTORE PUSH1 0x40 DUP2 KECCAK256 PUSH1 0x3 ADD DUP1 SLOAD DUP6 SWAP3 SWAP1 PUSH2 0x1C84 SWAP1 DUP5 SWAP1 PUSH2 0x3037 JUMP JUMPDEST SWAP3 POP POP DUP2 SWAP1 SSTORE POP PUSH1 0x0 PUSH1 0x64 PUSH1 0xA PUSH1 0x0 SWAP1 SLOAD SWAP1 PUSH2 0x100 EXP SWAP1 DIV PUSH1 0x1 PUSH1 0x1 PUSH1 0xA0 SHL SUB AND PUSH1 0x1 PUSH1 0x1 PUSH1 0xA0 SHL SUB AND PUSH4 0x55C4A8BF PUSH1 0x40 MLOAD DUP2 PUSH4 0xFFFFFFFF AND PUSH1 0xE0 SHL DUP2 MSTORE PUSH1 0x4 ADD PUSH1 0x20 PUSH1 0x40 MLOAD DUP1 DUP4 SUB DUP2 DUP7 DUP1 EXTCODESIZE ISZERO DUP1 ISZERO PUSH2 0x1CDD JUMPI PUSH1 0x0 DUP1 REVERT JUMPDEST POP GAS STATICCALL ISZERO DUP1 ISZERO PUSH2 0x1CF1 JUMPI RETURNDATASIZE PUSH1 0x0 DUP1 RETURNDATACOPY RETURNDATASIZE PUSH1 0x0 REVERT JUMPDEST POP POP POP POP PUSH1 0x40 MLOAD RETURNDATASIZE PUSH1 0x1F NOT PUSH1 0x1F DUP3 ADD AND DUP3 ADD DUP1 PUSH1 0x40 MSTORE POP DUP2 ADD SWAP1 PUSH2 0x1D15 SWAP2 SWAP1 PUSH2 0x2F55 JUMP JUMPDEST PUSH2 0x1D1F SWAP1 DUP6 PUSH2 0x3018 JUMP JUMPDEST PUSH2 0x1D29 SWAP2 SWAP1 PUSH2 0x2FF8 JUMP JUMPDEST SWAP1 POP PUSH1 0x64 PUSH1 0xA PUSH1 0x0 SWAP1 SLOAD SWAP1 PUSH2 0x100 EXP SWAP1 DIV PUSH1 0x1 PUSH1 0x1 PUSH1 0xA0 SHL SUB AND PUSH1 0x1 PUSH1 0x1 PUSH1 0xA0 SHL SUB AND PUSH4 0x6A0CCD9D PUSH1 0x40 MLOAD DUP2 PUSH4 0xFFFFFFFF AND PUSH1 0xE0 SHL DUP2 MSTORE PUSH1 0x4 ADD PUSH1 0x20 PUSH1 0x40 MLOAD DUP1 DUP4 SUB DUP2 DUP7 DUP1 EXTCODESIZE ISZERO DUP1 ISZERO PUSH2 0x1D7B JUMPI PUSH1 0x0 DUP1 REVERT JUMPDEST POP GAS STATICCALL ISZERO DUP1 ISZERO PUSH2 0x1D8F JUMPI RETURNDATASIZE PUSH1 0x0 DUP1 RETURNDATACOPY RETURNDATASIZE PUSH1 0x0 REVERT JUMPDEST POP POP POP POP PUSH1 0x40 MLOAD RETURNDATASIZE PUSH1 0x1F NOT PUSH1 0x1F DUP3 ADD AND DUP3 ADD DUP1 PUSH1 0x40 MSTORE POP DUP2 ADD SWAP1 PUSH2 0x1DB3 SWAP2 SWAP1 PUSH2 0x2F55 JUMP JUMPDEST PUSH2 0x1DBD SWAP1 DUP4 PUSH2 0x3018 JUMP JUMPDEST PUSH2 0x1DC7 SWAP2 SWAP1 PUSH2 0x2FF8 JUMP JUMPDEST PUSH1 0x5 PUSH1 0x0 PUSH1 0xA PUSH1 0x0 SWAP1 SLOAD SWAP1 PUSH2 0x100 EXP SWAP1 DIV PUSH1 0x1 PUSH1 0x1 PUSH1 0xA0 SHL SUB AND PUSH1 0x1 PUSH1 0x1 PUSH1 0xA0 SHL SUB AND PUSH4 0xB7640A54 PUSH1 0x40 MLOAD DUP2 PUSH4 0xFFFFFFFF AND PUSH1 0xE0 SHL DUP2 MSTORE PUSH1 0x4 ADD PUSH1 0x20 PUSH1 0x40 MLOAD DUP1 DUP4 SUB DUP2 DUP7 DUP1 EXTCODESIZE ISZERO DUP1 ISZERO PUSH2 0x1E19 JUMPI PUSH1 0x0 DUP1 REVERT JUMPDEST POP GAS STATICCALL ISZERO DUP1 ISZERO PUSH2 0x1E2D JUMPI RETURNDATASIZE PUSH1 0x0 DUP1 RETURNDATACOPY RETURNDATASIZE PUSH1 0x0 REVERT JUMPDEST POP POP POP POP PUSH1 0x40 MLOAD RETURNDATASIZE PUSH1 0x1F NOT PUSH1 0x1F DUP3 ADD AND DUP3 ADD DUP1 PUSH1 0x40 MSTORE POP DUP2 ADD SWAP1 PUSH2 0x1E51 SWAP2 SWAP1 PUSH2 0x2EB0 JUMP JUMPDEST PUSH1 0x1 PUSH1 0x1 PUSH1 0xA0 SHL SUB AND PUSH1 0x1 PUSH1 0x1 PUSH1 0xA0 SHL SUB AND DUP2 MSTORE PUSH1 0x20 ADD SWAP1 DUP2 MSTORE PUSH1 0x20 ADD PUSH1 0x0 KECCAK256 PUSH1 0x0 DUP3 DUP3 SLOAD PUSH2 0x1E80 SWAP2 SWAP1 PUSH2 0x2FE0 JUMP JUMPDEST SWAP1 SWAP2 SSTORE POP POP PUSH1 0xA SLOAD PUSH1 0x40 DUP1 MLOAD PUSH4 0x28576D45 PUSH1 0xE0 SHL DUP2 MSTORE SWAP1 MLOAD PUSH1 0x64 SWAP3 PUSH1 0x1 PUSH1 0x1 PUSH1 0xA0 SHL SUB AND SWAP2 PUSH4 0x28576D45 SWAP2 PUSH1 0x4 DUP1 DUP4 ADD SWAP3 PUSH1 0x20 SWAP3 SWAP2 SWAP1 DUP3 SWAP1 SUB ADD DUP2 DUP7 DUP1 EXTCODESIZE ISZERO DUP1 ISZERO PUSH2 0x1ECA JUMPI PUSH1 0x0 DUP1 REVERT JUMPDEST POP GAS STATICCALL ISZERO DUP1 ISZERO PUSH2 0x1EDE JUMPI RETURNDATASIZE PUSH1 0x0 DUP1 RETURNDATACOPY RETURNDATASIZE PUSH1 0x0 REVERT JUMPDEST POP POP POP POP PUSH1 0x40 MLOAD RETURNDATASIZE PUSH1 0x1F NOT PUSH1 0x1F DUP3 ADD AND DUP3 ADD DUP1 PUSH1 0x40 MSTORE POP DUP2 ADD SWAP1 PUSH2 0x1F02 SWAP2 SWAP1 PUSH2 0x2F55 JUMP JUMPDEST PUSH2 0x1F0C SWAP1 DUP4 PUSH2 0x3018 JUMP JUMPDEST PUSH2 0x1F16 SWAP2 SWAP1 PUSH2 0x2FF8 JUMP JUMPDEST PUSH1 0x5 PUSH1 0x0 PUSH1 0xA PUSH1 0x0 SWAP1 SLOAD SWAP1 PUSH2 0x100 EXP SWAP1 DIV PUSH1 0x1 PUSH1 0x1 PUSH1 0xA0 SHL SUB AND PUSH1 0x1 PUSH1 0x1 PUSH1 0xA0 SHL SUB AND PUSH4 0x9953B2F PUSH1 0x40 MLOAD DUP2 PUSH4 0xFFFFFFFF AND PUSH1 0xE0 SHL DUP2 MSTORE PUSH1 0x4 ADD PUSH1 0x20 PUSH1 0x40 MLOAD DUP1 DUP4 SUB DUP2 DUP7 DUP1 EXTCODESIZE ISZERO DUP1 ISZERO PUSH2 0x1F68 JUMPI PUSH1 0x0 DUP1 REVERT JUMPDEST POP GAS STATICCALL ISZERO DUP1 ISZERO PUSH2 0x1F7C JUMPI RETURNDATASIZE PUSH1 0x0 DUP1 RETURNDATACOPY RETURNDATASIZE PUSH1 0x0 REVERT JUMPDEST POP POP POP POP PUSH1 0x40 MLOAD RETURNDATASIZE PUSH1 0x1F NOT PUSH1 0x1F DUP3 ADD AND DUP3 ADD DUP1 PUSH1 0x40 MSTORE POP DUP2 ADD SWAP1 PUSH2 0x1FA0 SWAP2 SWAP1 PUSH2 0x2EB0 JUMP JUMPDEST PUSH1 0x1 PUSH1 0x1 PUSH1 0xA0 SHL SUB AND PUSH1 0x1 PUSH1 0x1 PUSH1 0xA0 SHL SUB AND DUP2 MSTORE PUSH1 0x20 ADD SWAP1 DUP2 MSTORE PUSH1 0x20 ADD PUSH1 0x0 KECCAK256 PUSH1 0x0 DUP3 DUP3 SLOAD PUSH2 0x1FCF SWAP2 SWAP1 PUSH2 0x2FE0 JUMP JUMPDEST SWAP1 SWAP2 SSTORE POP POP PUSH1 0xA SLOAD PUSH1 0x40 DUP1 MLOAD PUSH4 0x15334697 PUSH1 0xE2 SHL DUP2 MSTORE SWAP1 MLOAD PUSH1 0x64 SWAP3 PUSH1 0x1 PUSH1 0x1 PUSH1 0xA0 SHL SUB AND SWAP2 PUSH4 0x54CD1A5C SWAP2 PUSH1 0x4 DUP1 DUP4 ADD SWAP3 PUSH1 0x20 SWAP3 SWAP2 SWAP1 DUP3 SWAP1 SUB ADD DUP2 DUP7 DUP1 EXTCODESIZE ISZERO DUP1 ISZERO PUSH2 0x2019 JUMPI PUSH1 0x0 DUP1 REVERT JUMPDEST POP GAS STATICCALL ISZERO DUP1 ISZERO PUSH2 0x202D JUMPI RETURNDATASIZE PUSH1 0x0 DUP1 RETURNDATACOPY RETURNDATASIZE PUSH1 0x0 REVERT JUMPDEST POP POP POP POP PUSH1 0x40 MLOAD RETURNDATASIZE PUSH1 0x1F NOT PUSH1 0x1F DUP3 ADD AND DUP3 ADD DUP1 PUSH1 0x40 MSTORE POP DUP2 ADD SWAP1 PUSH2 0x2051 SWAP2 SWAP1 PUSH2 0x2F55 JUMP JUMPDEST PUSH2 0x205B SWAP1 DUP4 PUSH2 0x3018 JUMP JUMPDEST PUSH2 0x2065 SWAP2 SWAP1 PUSH2 0x2FF8 JUMP JUMPDEST PUSH1 0x20 DUP1 DUP12 ADD MLOAD PUSH1 0x1 PUSH1 0x1 PUSH1 0xA0 SHL SUB AND PUSH1 0x0 SWAP1 DUP2 MSTORE PUSH1 0x5 SWAP1 SWAP2 MSTORE PUSH1 0x40 DUP2 KECCAK256 DUP1 SLOAD SWAP1 SWAP2 SWAP1 PUSH2 0x2092 SWAP1 DUP5 SWAP1 PUSH2 0x2FE0 JUMP JUMPDEST SWAP3 POP POP DUP2 SWAP1 SSTORE POP PUSH1 0x1 PUSH1 0x8 PUSH1 0x0 DUP11 DUP10 DUP2 MLOAD DUP2 LT PUSH2 0x20BF JUMPI PUSH4 0x4E487B71 PUSH1 0xE0 SHL PUSH1 0x0 MSTORE PUSH1 0x32 PUSH1 0x4 MSTORE PUSH1 0x24 PUSH1 0x0 REVERT JUMPDEST PUSH1 0x20 MUL PUSH1 0x20 ADD ADD MLOAD DUP2 MSTORE PUSH1 0x20 ADD SWAP1 DUP2 MSTORE PUSH1 0x20 ADD PUSH1 0x0 KECCAK256 PUSH1 0x4 ADD PUSH1 0x0 PUSH2 0x100 EXP DUP2 SLOAD DUP2 PUSH1 0xFF MUL NOT AND SWAP1 DUP4 ISZERO ISZERO MUL OR SWAP1 SSTORE POP POP POP POP POP POP JUMPDEST DUP1 PUSH2 0x20FF DUP2 PUSH2 0x304E JUMP JUMPDEST SWAP2 POP POP PUSH2 0x1987 JUMP JUMPDEST POP PUSH1 0x1 SWAP6 SWAP5 POP POP POP POP POP JUMP JUMPDEST PUSH1 0x0 PUSH1 0x2 PUSH1 0x0 SLOAD EQ ISZERO PUSH2 0x2168 JUMPI PUSH1 0x40 MLOAD PUSH3 0x461BCD PUSH1 0xE5 SHL DUP2 MSTORE PUSH1 0x20 PUSH1 0x4 DUP3 ADD MSTORE PUSH1 0x1F PUSH1 0x24 DUP3 ADD MSTORE PUSH32 0x5265656E7472616E637947756172643A207265656E7472616E742063616C6C00 PUSH1 0x44 DUP3 ADD MSTORE PUSH1 0x64 ADD PUSH2 0x477 JUMP JUMPDEST PUSH1 0x2 PUSH1 0x0 SWAP1 DUP2 SSTORE DUP3 DUP2 MSTORE PUSH1 0x8 PUSH1 0x20 MSTORE PUSH1 0x40 SWAP1 KECCAK256 PUSH1 0x4 ADD SLOAD PUSH1 0xFF AND ISZERO PUSH2 0x218F JUMPI POP PUSH1 0x0 PUSH2 0x88A JUMP JUMPDEST PUSH1 0x0 DUP1 PUSH1 0x0 DUP1 PUSH1 0x2 SLOAD PUSH1 0x1 EQ ISZERO PUSH2 0x2369 JUMPI PUSH1 0x0 DUP7 DUP2 MSTORE PUSH1 0x8 PUSH1 0x20 SWAP1 DUP2 MSTORE PUSH1 0x40 DUP1 DUP4 KECCAK256 SLOAD DUP4 MSTORE PUSH1 0x6 DUP3 MSTORE SWAP2 DUP3 SWAP1 KECCAK256 SLOAD PUSH1 0xA SLOAD DUP4 MLOAD PUSH4 0x55C4A8BF PUSH1 0xE0 SHL DUP2 MSTORE SWAP4 MLOAD PUSH1 0x1 PUSH1 0x1 PUSH1 0xA0 SHL SUB SWAP3 DUP4 AND SWAP9 POP PUSH1 0x64 SWAP5 SWAP2 SWAP1 SWAP3 AND SWAP3 PUSH4 0x55C4A8BF SWAP3 PUSH1 0x4 DUP1 DUP5 ADD SWAP4 DUP3 SWAP1 SUB ADD DUP2 DUP7 DUP1 EXTCODESIZE ISZERO DUP1 ISZERO PUSH2 0x2203 JUMPI PUSH1 0x0 DUP1 REVERT JUMPDEST POP GAS STATICCALL ISZERO DUP1 ISZERO PUSH2 0x2217 JUMPI RETURNDATASIZE PUSH1 0x0 DUP1 RETURNDATACOPY RETURNDATASIZE PUSH1 0x0 REVERT JUMPDEST POP POP POP POP PUSH1 0x40 MLOAD RETURNDATASIZE PUSH1 0x1F NOT PUSH1 0x1F DUP3 ADD AND DUP3 ADD DUP1 PUSH1 0x40 MSTORE POP DUP2 ADD SWAP1 PUSH2 0x223B SWAP2 SWAP1 PUSH2 0x2F55 JUMP JUMPDEST PUSH2 0x2246 SWAP1 PUSH1 0x64 PUSH2 0x3037 JUMP JUMPDEST PUSH1 0x0 DUP9 DUP2 MSTORE PUSH1 0x8 PUSH1 0x20 MSTORE PUSH1 0x40 SWAP1 KECCAK256 PUSH1 0x3 ADD SLOAD PUSH2 0x2262 SWAP2 SWAP1 PUSH2 0x3018 JUMP JUMPDEST PUSH2 0x226C SWAP2 SWAP1 PUSH2 0x2FF8 JUMP JUMPDEST PUSH1 0x0 DUP8 DUP2 MSTORE PUSH1 0x8 PUSH1 0x20 MSTORE PUSH1 0x40 SWAP1 KECCAK256 PUSH1 0x2 ADD SLOAD PUSH2 0x2288 SWAP2 SWAP1 PUSH2 0x2FE0 JUMP JUMPDEST SWAP2 POP PUSH1 0x64 PUSH1 0xA PUSH1 0x0 SWAP1 SLOAD SWAP1 PUSH2 0x100 EXP SWAP1 DIV PUSH1 0x1 PUSH1 0x1 PUSH1 0xA0 SHL SUB AND PUSH1 0x1 PUSH1 0x1 PUSH1 0xA0 SHL SUB AND PUSH4 0x55C4A8BF PUSH1 0x40 MLOAD DUP2 PUSH4 0xFFFFFFFF AND PUSH1 0xE0 SHL DUP2 MSTORE PUSH1 0x4 ADD PUSH1 0x20 PUSH1 0x40 MLOAD DUP1 DUP4 SUB DUP2 DUP7 DUP1 EXTCODESIZE ISZERO DUP1 ISZERO PUSH2 0x22DA JUMPI PUSH1 0x0 DUP1 REVERT JUMPDEST POP GAS STATICCALL ISZERO DUP1 ISZERO PUSH2 0x22EE JUMPI RETURNDATASIZE PUSH1 0x0 DUP1 RETURNDATACOPY RETURNDATASIZE PUSH1 0x0 REVERT JUMPDEST POP POP POP POP PUSH1 0x40 MLOAD RETURNDATASIZE PUSH1 0x1F NOT PUSH1 0x1F DUP3 ADD AND DUP3 ADD DUP1 PUSH1 0x40 MSTORE POP DUP2 ADD SWAP1 PUSH2 0x2312 SWAP2 SWAP1 PUSH2 0x2F55 JUMP JUMPDEST PUSH1 0x0 DUP9 DUP2 MSTORE PUSH1 0x8 PUSH1 0x20 MSTORE PUSH1 0x40 SWAP1 KECCAK256 PUSH1 0x3 ADD SLOAD PUSH2 0x232E SWAP2 SWAP1 PUSH2 0x3018 JUMP JUMPDEST PUSH2 0x2338 SWAP2 SWAP1 PUSH2 0x2FF8 JUMP JUMPDEST PUSH1 0x0 DUP8 DUP2 MSTORE PUSH1 0x8 PUSH1 0x20 SWAP1 DUP2 MSTORE PUSH1 0x40 DUP1 DUP4 KECCAK256 SLOAD DUP4 MSTORE PUSH1 0x6 SWAP1 SWAP2 MSTORE SWAP1 KECCAK256 PUSH1 0x1 ADD SLOAD PUSH1 0x1 PUSH1 0x1 PUSH1 0xA0 SHL SUB AND SWAP4 POP SWAP1 POP PUSH2 0x2551 JUMP JUMPDEST PUSH1 0x2 SLOAD PUSH1 0x2 EQ ISZERO PUSH2 0x2544 JUMPI PUSH1 0x0 DUP7 DUP2 MSTORE PUSH1 0x8 PUSH1 0x20 SWAP1 DUP2 MSTORE PUSH1 0x40 DUP1 DUP4 KECCAK256 PUSH1 0x1 ADD SLOAD DUP4 MSTORE PUSH1 0x6 DUP3 MSTORE SWAP2 DUP3 SWAP1 KECCAK256 SLOAD PUSH1 0xA SLOAD DUP4 MLOAD PUSH4 0x55C4A8BF PUSH1 0xE0 SHL DUP2 MSTORE SWAP4 MLOAD PUSH1 0x1 PUSH1 0x1 PUSH1 0xA0 SHL SUB SWAP3 DUP4 AND SWAP9 POP PUSH1 0x64 SWAP5 SWAP2 SWAP1 SWAP3 AND SWAP3 PUSH4 0x55C4A8BF SWAP3 PUSH1 0x4 DUP1 DUP5 ADD SWAP4 DUP3 SWAP1 SUB ADD DUP2 DUP7 DUP1 EXTCODESIZE ISZERO DUP1 ISZERO PUSH2 0x23DA JUMPI PUSH1 0x0 DUP1 REVERT JUMPDEST POP GAS STATICCALL ISZERO DUP1 ISZERO PUSH2 0x23EE JUMPI RETURNDATASIZE PUSH1 0x0 DUP1 RETURNDATACOPY RETURNDATASIZE PUSH1 0x0 REVERT JUMPDEST POP POP POP POP PUSH1 0x40 MLOAD RETURNDATASIZE PUSH1 0x1F NOT PUSH1 0x1F DUP3 ADD AND DUP3 ADD DUP1 PUSH1 0x40 MSTORE POP DUP2 ADD SWAP1 PUSH2 0x2412 SWAP2 SWAP1 PUSH2 0x2F55 JUMP JUMPDEST PUSH2 0x241D SWAP1 PUSH1 0x64 PUSH2 0x3037 JUMP JUMPDEST PUSH1 0x0 DUP9 DUP2 MSTORE PUSH1 0x8 PUSH1 0x20 MSTORE PUSH1 0x40 SWAP1 KECCAK256 PUSH1 0x2 ADD SLOAD PUSH2 0x2439 SWAP2 SWAP1 PUSH2 0x3018 JUMP JUMPDEST PUSH2 0x2443 SWAP2 SWAP1 PUSH2 0x2FF8 JUMP JUMPDEST PUSH1 0x0 DUP8 DUP2 MSTORE PUSH1 0x8 PUSH1 0x20 MSTORE PUSH1 0x40 SWAP1 KECCAK256 PUSH1 0x3 ADD SLOAD PUSH2 0x245F SWAP2 SWAP1 PUSH2 0x2FE0 JUMP JUMPDEST SWAP2 POP PUSH1 0x64 PUSH1 0xA PUSH1 0x0 SWAP1 SLOAD SWAP1 PUSH2 0x100 EXP SWAP1 DIV PUSH1 0x1 PUSH1 0x1 PUSH1 0xA0 SHL SUB AND PUSH1 0x1 PUSH1 0x1 PUSH1 0xA0 SHL SUB AND PUSH4 0x55C4A8BF PUSH1 0x40 MLOAD DUP2 PUSH4 0xFFFFFFFF AND PUSH1 0xE0 SHL DUP2 MSTORE PUSH1 0x4 ADD PUSH1 0x20 PUSH1 0x40 MLOAD DUP1 DUP4 SUB DUP2 DUP7 DUP1 EXTCODESIZE ISZERO DUP1 ISZERO PUSH2 0x24B1 JUMPI PUSH1 0x0 DUP1 REVERT JUMPDEST POP GAS STATICCALL ISZERO DUP1 ISZERO PUSH2 0x24C5 JUMPI RETURNDATASIZE PUSH1 0x0 DUP1 RETURNDATACOPY RETURNDATASIZE PUSH1 0x0 REVERT JUMPDEST POP POP POP POP PUSH1 0x40 MLOAD RETURNDATASIZE PUSH1 0x1F NOT PUSH1 0x1F DUP3 ADD AND DUP3 ADD DUP1 PUSH1 0x40 MSTORE POP DUP2 ADD SWAP1 PUSH2 0x24E9 SWAP2 SWAP1 PUSH2 0x2F55 JUMP JUMPDEST PUSH1 0x0 DUP9 DUP2 MSTORE PUSH1 0x8 PUSH1 0x20 MSTORE PUSH1 0x40 SWAP1 KECCAK256 PUSH1 0x2 ADD SLOAD PUSH2 0x2505 SWAP2 SWAP1 PUSH2 0x3018 JUMP JUMPDEST PUSH2 0x250F SWAP2 SWAP1 PUSH2 0x2FF8 JUMP JUMPDEST PUSH1 0x0 DUP8 DUP2 MSTORE PUSH1 0x8 PUSH1 0x20 SWAP1 DUP2 MSTORE PUSH1 0x40 DUP1 DUP4 KECCAK256 PUSH1 0x1 SWAP1 DUP2 ADD SLOAD DUP5 MSTORE PUSH1 0x6 SWAP1 SWAP3 MSTORE SWAP1 SWAP2 KECCAK256 ADD SLOAD PUSH1 0x1 PUSH1 0x1 PUSH1 0xA0 SHL SUB AND SWAP4 POP SWAP1 POP PUSH2 0x2551 JUMP JUMPDEST PUSH1 0x0 SWAP5 POP POP POP POP POP PUSH2 0x88A JUMP JUMPDEST PUSH1 0x1 PUSH1 0x1 PUSH1 0xA0 SHL SUB DUP5 AND PUSH1 0x0 SWAP1 DUP2 MSTORE PUSH1 0x5 PUSH1 0x20 MSTORE PUSH1 0x40 DUP2 KECCAK256 DUP1 SLOAD DUP5 SWAP3 SWAP1 PUSH2 0x2579 SWAP1 DUP5 SWAP1 PUSH2 0x2FE0 JUMP JUMPDEST SWAP1 SWAP2 SSTORE POP POP PUSH1 0xA SLOAD PUSH1 0x40 DUP1 MLOAD PUSH4 0x6A0CCD9D PUSH1 0xE0 SHL DUP2 MSTORE SWAP1 MLOAD PUSH1 0x64 SWAP3 PUSH1 0x1 PUSH1 0x1 PUSH1 0xA0 SHL SUB AND SWAP2 PUSH4 0x6A0CCD9D SWAP2 PUSH1 0x4 DUP1 DUP4 ADD SWAP3 PUSH1 0x20 SWAP3 SWAP2 SWAP1 DUP3 SWAP1 SUB ADD DUP2 DUP7 DUP1 EXTCODESIZE ISZERO DUP1 ISZERO PUSH2 0x25C3 JUMPI PUSH1 0x0 DUP1 REVERT JUMPDEST POP GAS STATICCALL ISZERO DUP1 ISZERO PUSH2 0x25D7 JUMPI RETURNDATASIZE PUSH1 0x0 DUP1 RETURNDATACOPY RETURNDATASIZE PUSH1 0x0 REVERT JUMPDEST POP POP POP POP PUSH1 0x40 MLOAD RETURNDATASIZE PUSH1 0x1F NOT PUSH1 0x1F DUP3 ADD AND DUP3 ADD DUP1 PUSH1 0x40 MSTORE POP DUP2 ADD SWAP1 PUSH2 0x25FB SWAP2 SWAP1 PUSH2 0x2F55 JUMP JUMPDEST PUSH2 0x2605 SWAP1 DUP4 PUSH2 0x3018 JUMP JUMPDEST PUSH2 0x260F SWAP2 SWAP1 PUSH2 0x2FF8 JUMP JUMPDEST PUSH1 0x5 PUSH1 0x0 PUSH1 0xA PUSH1 0x0 SWAP1 SLOAD SWAP1 PUSH2 0x100 EXP SWAP1 DIV PUSH1 0x1 PUSH1 0x1 PUSH1 0xA0 SHL SUB AND PUSH1 0x1 PUSH1 0x1 PUSH1 0xA0 SHL SUB AND PUSH4 0xB7640A54 PUSH1 0x40 MLOAD DUP2 PUSH4 0xFFFFFFFF AND PUSH1 0xE0 SHL DUP2 MSTORE PUSH1 0x4 ADD PUSH1 0x20 PUSH1 0x40 MLOAD DUP1 DUP4 SUB DUP2 DUP7 DUP1 EXTCODESIZE ISZERO DUP1 ISZERO PUSH2 0x2661 JUMPI PUSH1 0x0 DUP1 REVERT JUMPDEST POP GAS STATICCALL ISZERO DUP1 ISZERO PUSH2 0x2675 JUMPI RETURNDATASIZE PUSH1 0x0 DUP1 RETURNDATACOPY RETURNDATASIZE PUSH1 0x0 REVERT JUMPDEST POP POP POP POP PUSH1 0x40 MLOAD RETURNDATASIZE PUSH1 0x1F NOT PUSH1 0x1F DUP3 ADD AND DUP3 ADD DUP1 PUSH1 0x40 MSTORE POP DUP2 ADD SWAP1 PUSH2 0x2699 SWAP2 SWAP1 PUSH2 0x2EB0 JUMP JUMPDEST PUSH1 0x1 PUSH1 0x1 PUSH1 0xA0 SHL SUB AND PUSH1 0x1 PUSH1 0x1 PUSH1 0xA0 SHL SUB AND DUP2 MSTORE PUSH1 0x20 ADD SWAP1 DUP2 MSTORE PUSH1 0x20 ADD PUSH1 0x0 KECCAK256 PUSH1 0x0 DUP3 DUP3 SLOAD PUSH2 0x26C8 SWAP2 SWAP1 PUSH2 0x2FE0 JUMP JUMPDEST SWAP1 SWAP2 SSTORE POP POP PUSH1 0xA SLOAD PUSH1 0x40 DUP1 MLOAD PUSH4 0x28576D45 PUSH1 0xE0 SHL DUP2 MSTORE SWAP1 MLOAD PUSH1 0x64 SWAP3 PUSH1 0x1 PUSH1 0x1 PUSH1 0xA0 SHL SUB AND SWAP2 PUSH4 0x28576D45 SWAP2 PUSH1 0x4 DUP1 DUP4 ADD SWAP3 PUSH1 0x20 SWAP3 SWAP2 SWAP1 DUP3 SWAP1 SUB ADD DUP2 DUP7 DUP1 EXTCODESIZE ISZERO DUP1 ISZERO PUSH2 0x2712 JUMPI PUSH1 0x0 DUP1 REVERT JUMPDEST POP GAS STATICCALL ISZERO DUP1 ISZERO PUSH2 0x2726 JUMPI RETURNDATASIZE PUSH1 0x0 DUP1 RETURNDATACOPY RETURNDATASIZE PUSH1 0x0 REVERT JUMPDEST POP POP POP POP PUSH1 0x40 MLOAD RETURNDATASIZE PUSH1 0x1F NOT PUSH1 0x1F DUP3 ADD AND DUP3 ADD DUP1 PUSH1 0x40 MSTORE POP DUP2 ADD SWAP1 PUSH2 0x274A SWAP2 SWAP1 PUSH2 0x2F55 JUMP JUMPDEST PUSH2 0x2754 SWAP1 DUP4 PUSH2 0x3018 JUMP JUMPDEST PUSH2 0x275E SWAP2 SWAP1 PUSH2 0x2FF8 JUMP JUMPDEST PUSH1 0x5 PUSH1 0x0 PUSH1 0xA PUSH1 0x0 SWAP1 SLOAD SWAP1 PUSH2 0x100 EXP SWAP1 DIV PUSH1 0x1 PUSH1 0x1 PUSH1 0xA0 SHL SUB AND PUSH1 0x1 PUSH1 0x1 PUSH1 0xA0 SHL SUB AND PUSH4 0x9953B2F PUSH1 0x40 MLOAD DUP2 PUSH4 0xFFFFFFFF AND PUSH1 0xE0 SHL DUP2 MSTORE PUSH1 0x4 ADD PUSH1 0x20 PUSH1 0x40 MLOAD DUP1 DUP4 SUB DUP2 DUP7 DUP1 EXTCODESIZE ISZERO DUP1 ISZERO PUSH2 0x27B0 JUMPI PUSH1 0x0 DUP1 REVERT JUMPDEST POP GAS STATICCALL ISZERO DUP1 ISZERO PUSH2 0x27C4 JUMPI RETURNDATASIZE PUSH1 0x0 DUP1 RETURNDATACOPY RETURNDATASIZE PUSH1 0x0 REVERT JUMPDEST POP POP POP POP PUSH1 0x40 MLOAD RETURNDATASIZE PUSH1 0x1F NOT PUSH1 0x1F DUP3 ADD AND DUP3 ADD DUP1 PUSH1 0x40 MSTORE POP DUP2 ADD SWAP1 PUSH2 0x27E8 SWAP2 SWAP1 PUSH2 0x2EB0 JUMP JUMPDEST PUSH1 0x1 PUSH1 0x1 PUSH1 0xA0 SHL SUB AND PUSH1 0x1 PUSH1 0x1 PUSH1 0xA0 SHL SUB AND DUP2 MSTORE PUSH1 0x20 ADD SWAP1 DUP2 MSTORE PUSH1 0x20 ADD PUSH1 0x0 KECCAK256 PUSH1 0x0 DUP3 DUP3 SLOAD PUSH2 0x2817 SWAP2 SWAP1 PUSH2 0x2FE0 JUMP JUMPDEST SWAP1 SWAP2 SSTORE POP POP PUSH1 0xA SLOAD PUSH1 0x40 DUP1 MLOAD PUSH4 0x15334697 PUSH1 0xE2 SHL DUP2 MSTORE SWAP1 MLOAD PUSH1 0x64 SWAP3 PUSH1 0x1 PUSH1 0x1 PUSH1 0xA0 SHL SUB AND SWAP2 PUSH4 0x54CD1A5C SWAP2 PUSH1 0x4 DUP1 DUP4 ADD SWAP3 PUSH1 0x20 SWAP3 SWAP2 SWAP1 DUP3 SWAP1 SUB ADD DUP2 DUP7 DUP1 EXTCODESIZE ISZERO DUP1 ISZERO PUSH2 0x2861 JUMPI PUSH1 0x0 DUP1 REVERT JUMPDEST POP GAS STATICCALL ISZERO DUP1 ISZERO PUSH2 0x2875 JUMPI RETURNDATASIZE PUSH1 0x0 DUP1 RETURNDATACOPY RETURNDATASIZE PUSH1 0x0 REVERT JUMPDEST POP POP POP POP PUSH1 0x40 MLOAD RETURNDATASIZE PUSH1 0x1F NOT PUSH1 0x1F DUP3 ADD AND DUP3 ADD DUP1 PUSH1 0x40 MSTORE POP DUP2 ADD SWAP1 PUSH2 0x2899 SWAP2 SWAP1 PUSH2 0x2F55 JUMP JUMPDEST PUSH2 0x28A3 SWAP1 DUP4 PUSH2 0x3018 JUMP JUMPDEST PUSH2 0x28AD SWAP2 SWAP1 PUSH2 0x2FF8 JUMP JUMPDEST PUSH1 0x1 PUSH1 0x1 PUSH1 0xA0 SHL SUB DUP5 AND PUSH1 0x0 SWAP1 DUP2 MSTORE PUSH1 0x5 PUSH1 0x20 MSTORE PUSH1 0x40 DUP2 KECCAK256 DUP1 SLOAD SWAP1 SWAP2 SWAP1 PUSH2 0x28D5 SWAP1 DUP5 SWAP1 PUSH2 0x2FE0 JUMP JUMPDEST SWAP1 SWAP2 SSTORE POP POP POP PUSH1 0x0 SWAP5 DUP6 MSTORE POP POP PUSH1 0x8 PUSH1 0x20 MSTORE POP POP PUSH1 0x40 DUP2 KECCAK256 PUSH1 0x4 ADD DUP1 SLOAD PUSH1 0xFF NOT AND PUSH1 0x1 SWAP1 DUP2 OR SWAP1 SWAP2 SSTORE SWAP1 DUP2 SWAP1 SSTORE SWAP1 JUMP JUMPDEST PUSH1 0x0 DUP2 DUP2 MSTORE PUSH1 0x8 PUSH1 0x20 MSTORE PUSH1 0x40 DUP2 KECCAK256 PUSH1 0x4 ADD SLOAD PUSH1 0xFF AND ISZERO PUSH2 0x2927 JUMPI POP PUSH1 0x0 SWAP2 SWAP1 POP JUMP JUMPDEST PUSH1 0x0 DUP3 DUP2 MSTORE PUSH1 0x8 PUSH1 0x20 SWAP1 DUP2 MSTORE PUSH1 0x40 DUP1 DUP4 KECCAK256 DUP1 SLOAD DUP5 MSTORE PUSH1 0x6 DUP4 MSTORE DUP2 DUP5 KECCAK256 SLOAD PUSH1 0x1 DUP3 ADD SLOAD DUP6 MSTORE DUP3 DUP6 KECCAK256 SLOAD PUSH1 0x2 SWAP1 SWAP3 ADD SLOAD PUSH1 0x1 PUSH1 0x1 PUSH1 0xA0 SHL SUB SWAP2 DUP3 AND DUP1 DUP8 MSTORE PUSH1 0x5 SWAP1 SWAP6 MSTORE SWAP3 DUP6 KECCAK256 DUP1 SLOAD SWAP5 SWAP6 SWAP2 SWAP1 SWAP3 AND SWAP4 PUSH2 0x297F SWAP1 DUP5 SWAP1 PUSH2 0x2FE0 JUMP JUMPDEST SWAP1 SWAP2 SSTORE POP POP PUSH1 0x0 DUP5 DUP2 MSTORE PUSH1 0x8 PUSH1 0x20 SWAP1 DUP2 MSTORE PUSH1 0x40 DUP1 DUP4 KECCAK256 PUSH1 0x3 ADD SLOAD PUSH1 0x1 PUSH1 0x1 PUSH1 0xA0 SHL SUB DUP6 AND DUP5 MSTORE PUSH1 0x5 SWAP1 SWAP3 MSTORE DUP3 KECCAK256 DUP1 SLOAD SWAP2 SWAP3 SWAP1 SWAP2 PUSH2 0x29BD SWAP1 DUP5 SWAP1 PUSH2 0x2FE0 JUMP JUMPDEST SWAP1 SWAP2 SSTORE POP POP POP PUSH1 0x0 SWAP3 DUP4 MSTORE POP POP PUSH1 0x8 PUSH1 0x20 MSTORE PUSH1 0x40 SWAP1 KECCAK256 PUSH1 0x4 ADD DUP1 SLOAD PUSH1 0xFF NOT AND PUSH1 0x1 SWAP1 DUP2 OR SWAP1 SWAP2 SSTORE SWAP1 JUMP JUMPDEST PUSH1 0x0 DUP1 PUSH1 0x0 JUMPDEST PUSH1 0x4 SLOAD DUP10 SWAP1 ADDRESS SWAP1 DUP4 SWAP1 PUSH2 0x2A01 SWAP1 PUSH1 0x1 PUSH2 0x2FE0 JUMP JUMPDEST PUSH2 0x2A0B SWAP2 SWAP1 PUSH2 0x2FE0 JUMP JUMPDEST PUSH1 0x40 MLOAD PUSH12 0xFFFFFFFFFFFFFFFFFFFFFFFF NOT PUSH1 0x60 SWAP5 DUP6 SHL DUP2 AND PUSH1 0x20 DUP4 ADD MSTORE SWAP3 SWAP1 SWAP4 SHL SWAP1 SWAP2 AND PUSH1 0x34 DUP4 ADD MSTORE PUSH1 0x48 DUP3 ADD MSTORE TIMESTAMP PUSH1 0x68 DUP3 ADD MSTORE DIFFICULTY PUSH1 0x88 DUP3 ADD MSTORE PUSH1 0xA8 ADD PUSH1 0x40 DUP1 MLOAD PUSH1 0x1F NOT DUP2 DUP5 SUB ADD DUP2 MSTORE SWAP2 DUP2 MSTORE DUP2 MLOAD PUSH1 0x20 SWAP3 DUP4 ADD KECCAK256 PUSH1 0x0 DUP2 DUP2 MSTORE PUSH1 0x6 SWAP1 SWAP4 MSTORE SWAP2 KECCAK256 PUSH1 0x2 ADD SLOAD SWAP1 SWAP3 POP PUSH2 0x2A7C JUMPI PUSH2 0x2A8E JUMP JUMPDEST DUP1 PUSH2 0x2A86 DUP2 PUSH2 0x304E JUMP JUMPDEST SWAP2 POP POP PUSH2 0x29ED JUMP JUMPDEST PUSH1 0x1 PUSH1 0x1 PUSH1 0xA0 SHL SUB DUP9 AND PUSH2 0x2B25 JUMPI PUSH1 0xA PUSH1 0x0 SWAP1 SLOAD SWAP1 PUSH2 0x100 EXP SWAP1 DIV PUSH1 0x1 PUSH1 0x1 PUSH1 0xA0 SHL SUB AND PUSH1 0x1 PUSH1 0x1 PUSH1 0xA0 SHL SUB AND PUSH4 0x9953B2F PUSH1 0x40 MLOAD DUP2 PUSH4 0xFFFFFFFF AND PUSH1 0xE0 SHL DUP2 MSTORE PUSH1 0x4 ADD PUSH1 0x20 PUSH1 0x40 MLOAD DUP1 DUP4 SUB DUP2 DUP7 DUP1 EXTCODESIZE ISZERO DUP1 ISZERO PUSH2 0x2AEA JUMPI PUSH1 0x0 DUP1 REVERT JUMPDEST POP GAS STATICCALL ISZERO DUP1 ISZERO PUSH2 0x2AFE JUMPI RETURNDATASIZE PUSH1 0x0 DUP1 RETURNDATACOPY RETURNDATASIZE PUSH1 0x0 REVERT JUMPDEST POP POP POP POP PUSH1 0x40 MLOAD RETURNDATASIZE PUSH1 0x1F NOT PUSH1 0x1F DUP3 ADD AND DUP3 ADD DUP1 PUSH1 0x40 MSTORE POP DUP2 ADD SWAP1 PUSH2 0x2B22 SWAP2 SWAP1 PUSH2 0x2EB0 JUMP JUMPDEST SWAP8 POP JUMPDEST POP PUSH1 0x40 DUP1 MLOAD PUSH1 0xC0 DUP2 ADD DUP3 MSTORE PUSH1 0x1 PUSH1 0x1 PUSH1 0xA0 SHL SUB SWAP10 DUP11 AND DUP1 DUP3 MSTORE SWAP9 DUP11 AND PUSH1 0x20 DUP1 DUP4 ADD SWAP2 DUP3 MSTORE DUP3 DUP5 ADD SWAP10 DUP11 MSTORE PUSH1 0x60 DUP4 ADD SWAP9 DUP10 MSTORE PUSH1 0x80 DUP4 ADD SWAP8 DUP9 MSTORE PUSH1 0xA0 DUP4 ADD SWAP7 DUP8 MSTORE PUSH1 0x0 DUP6 DUP2 MSTORE PUSH1 0x6 DUP3 MSTORE DUP5 DUP2 KECCAK256 SWAP4 MLOAD DUP5 SLOAD SWAP1 DUP15 AND PUSH1 0x1 PUSH1 0x1 PUSH1 0xA0 SHL SUB NOT SWAP2 DUP3 AND OR DUP6 SSTORE SWAP3 MLOAD PUSH1 0x1 DUP1 DUP7 ADD DUP1 SLOAD SWAP3 SWAP1 SWAP16 AND SWAP2 SWAP1 SWAP5 AND OR SWAP1 SWAP13 SSTORE SWAP9 MLOAD PUSH1 0x2 DUP4 ADD SSTORE SWAP7 MLOAD PUSH1 0x3 DUP3 ADD SSTORE SWAP5 MLOAD PUSH1 0x4 DUP1 DUP8 ADD SWAP2 SWAP1 SWAP2 SSTORE SWAP4 MLOAD PUSH1 0x5 SWAP1 SWAP6 ADD SWAP5 SWAP1 SWAP5 SSTORE DUP3 SLOAD DUP1 DUP7 ADD SWAP1 SWAP4 SSTORE PUSH32 0x8A35ACFBC15FF81A39AE7D344FD709F28E8600B4AA8C65C6B64BFE7FE36BD19B SWAP1 SWAP3 ADD DUP3 SWAP1 SSTORE POP SWAP4 DUP6 MSTORE PUSH1 0x7 DUP4 MSTORE DUP5 KECCAK256 DUP1 SLOAD SWAP2 DUP3 ADD DUP2 SSTORE DUP5 MSTORE SWAP3 KECCAK256 SWAP1 SWAP2 ADD DUP2 SWAP1 SSTORE SWAP1 JUMP JUMPDEST PUSH1 0x0 DUP1 PUSH1 0x0 DUP1 DUP10 DUP10 GT PUSH2 0x2C76 JUMPI DUP9 SWAP3 POP PUSH2 0x2C27 PUSH1 0x64 DUP10 PUSH2 0x3037 JUMP JUMPDEST PUSH2 0x2C31 SWAP1 DUP11 PUSH2 0x3018 JUMP JUMPDEST SWAP2 POP PUSH2 0x2C3E PUSH1 0x64 DUP4 PUSH2 0x2FF8 JUMP JUMPDEST SWAP2 POP DUP7 PUSH1 0x1 EQ ISZERO PUSH2 0x2C5C JUMPI PUSH2 0x2C55 DUP7 DUP7 DUP6 DUP6 PUSH2 0x2D5A JUMP JUMPDEST SWAP1 POP PUSH2 0x2CCA JUMP JUMPDEST DUP7 PUSH1 0x2 EQ ISZERO PUSH2 0x2C71 JUMPI PUSH2 0x2C55 DUP6 DUP8 DUP5 DUP7 PUSH2 0x2D5A JUMP JUMPDEST PUSH2 0x2CCA JUMP JUMPDEST DUP10 SWAP3 POP PUSH2 0x2C84 PUSH1 0x64 DUP10 PUSH2 0x3037 JUMP JUMPDEST PUSH2 0x2C8E SWAP1 DUP12 PUSH2 0x3018 JUMP JUMPDEST SWAP2 POP PUSH2 0x2C9B PUSH1 0x64 DUP4 PUSH2 0x2FF8 JUMP JUMPDEST SWAP2 POP DUP7 PUSH1 0x1 EQ ISZERO PUSH2 0x2CB2 JUMPI PUSH2 0x2C55 DUP7 DUP7 DUP6 DUP6 PUSH2 0x2D5A JUMP JUMPDEST DUP7 PUSH1 0x2 EQ ISZERO PUSH2 0x2CCA JUMPI PUSH2 0x2CC7 DUP6 DUP8 DUP5 DUP7 PUSH2 0x2D5A JUMP JUMPDEST SWAP1 POP JUMPDEST PUSH1 0x0 DUP7 DUP2 MSTORE PUSH1 0x9 PUSH1 0x20 SWAP1 DUP2 MSTORE PUSH1 0x40 DUP1 DUP4 KECCAK256 DUP1 SLOAD PUSH1 0x1 DUP2 DUP2 ADD DUP4 SSTORE SWAP2 DUP6 MSTORE DUP4 DUP6 KECCAK256 ADD DUP6 SWAP1 SSTORE DUP9 DUP5 MSTORE DUP2 DUP5 KECCAK256 DUP1 SLOAD SWAP2 DUP3 ADD DUP2 SSTORE DUP5 MSTORE DUP3 DUP5 KECCAK256 ADD DUP5 SWAP1 SSTORE DUP9 DUP4 MSTORE PUSH1 0x6 SWAP1 SWAP2 MSTORE DUP2 KECCAK256 PUSH1 0x3 ADD DUP1 SLOAD DUP6 SWAP3 SWAP1 PUSH2 0x2D21 SWAP1 DUP5 SWAP1 PUSH2 0x2FE0 JUMP JUMPDEST SWAP1 SWAP2 SSTORE POP POP PUSH1 0x0 DUP6 DUP2 MSTORE PUSH1 0x6 PUSH1 0x20 MSTORE PUSH1 0x40 DUP2 KECCAK256 PUSH1 0x3 ADD DUP1 SLOAD DUP5 SWAP3 SWAP1 PUSH2 0x2D47 SWAP1 DUP5 SWAP1 PUSH2 0x2FE0 JUMP JUMPDEST SWAP1 SWAP2 SSTORE POP SWAP3 SWAP11 SWAP10 POP POP POP POP POP POP POP POP POP POP JUMP JUMPDEST PUSH1 0x0 DUP1 PUSH1 0x0 JUMPDEST PUSH1 0x3 SLOAD DUP8 SWAP1 DUP8 SWAP1 DUP4 SWAP1 PUSH2 0x2D74 SWAP1 PUSH1 0x1 PUSH2 0x2FE0 JUMP JUMPDEST PUSH2 0x2D7E SWAP2 SWAP1 PUSH2 0x2FE0 JUMP JUMPDEST PUSH1 0x40 DUP1 MLOAD PUSH1 0x20 DUP2 ADD SWAP5 SWAP1 SWAP5 MSTORE DUP4 ADD SWAP2 SWAP1 SWAP2 MSTORE PUSH1 0x60 DUP3 ADD MSTORE TIMESTAMP PUSH1 0x80 DUP3 ADD MSTORE DIFFICULTY PUSH1 0xA0 DUP3 ADD MSTORE PUSH1 0xC0 ADD PUSH1 0x40 DUP1 MLOAD PUSH1 0x1F NOT DUP2 DUP5 SUB ADD DUP2 MSTORE SWAP2 DUP2 MSTORE DUP2 MLOAD PUSH1 0x20 SWAP3 DUP4 ADD KECCAK256 PUSH1 0x0 DUP2 DUP2 MSTORE PUSH1 0x8 SWAP1 SWAP4 MSTORE SWAP2 KECCAK256 PUSH1 0x2 ADD SLOAD SWAP1 SWAP3 POP PUSH2 0x2DD8 JUMPI PUSH2 0x2DEA JUMP JUMPDEST DUP1 PUSH2 0x2DE2 DUP2 PUSH2 0x304E JUMP JUMPDEST SWAP2 POP POP PUSH2 0x2D60 JUMP JUMPDEST POP PUSH1 0x40 DUP1 MLOAD PUSH1 0xA0 DUP2 ADD DUP3 MSTORE SWAP7 DUP8 MSTORE PUSH1 0x20 DUP1 DUP9 ADD SWAP7 DUP8 MSTORE DUP8 DUP3 ADD SWAP6 DUP7 MSTORE PUSH1 0x60 DUP9 ADD SWAP5 DUP6 MSTORE PUSH1 0x0 PUSH1 0x80 DUP10 ADD DUP2 DUP2 MSTORE DUP5 DUP3 MSTORE PUSH1 0x8 SWAP1 SWAP3 MSTORE SWAP2 DUP3 KECCAK256 SWAP8 MLOAD DUP9 SSTORE SWAP6 MLOAD PUSH1 0x1 DUP1 DUP10 ADD SWAP2 SWAP1 SWAP2 SSTORE SWAP5 MLOAD PUSH1 0x2 DUP9 ADD SSTORE SWAP3 MLOAD PUSH1 0x3 DUP1 DUP9 ADD SWAP2 SWAP1 SWAP2 SSTORE SWAP5 MLOAD PUSH1 0x4 SWAP1 SWAP7 ADD DUP1 SLOAD PUSH1 0xFF NOT AND SWAP7 ISZERO ISZERO SWAP7 SWAP1 SWAP7 OR SWAP1 SWAP6 SSTORE POP DUP3 SLOAD SWAP2 DUP3 ADD DUP4 SSTORE SWAP2 SWAP1 SWAP2 MSTORE PUSH32 0xC2575A0E9E593C00F959F8C92F12DB2869C3395A3B0502D05E2516446F71F85B ADD DUP2 SWAP1 SSTORE SWAP1 JUMP JUMPDEST PUSH1 0x0 PUSH1 0x20 DUP3 DUP5 SUB SLT ISZERO PUSH2 0x2E9E JUMPI DUP1 DUP2 REVERT JUMPDEST DUP2 CALLDATALOAD PUSH2 0x2EA9 DUP2 PUSH2 0x307F JUMP JUMPDEST SWAP4 SWAP3 POP POP POP JUMP JUMPDEST PUSH1 0x0 PUSH1 0x20 DUP3 DUP5 SUB SLT ISZERO PUSH2 0x2EC1 JUMPI DUP1 DUP2 REVERT JUMPDEST DUP2 MLOAD PUSH2 0x2EA9 DUP2 PUSH2 0x307F JUMP JUMPDEST PUSH1 0x0 DUP1 PUSH1 0x0 DUP1 PUSH1 0x0 PUSH1 0xA0 DUP7 DUP9 SUB SLT ISZERO PUSH2 0x2EE3 JUMPI DUP1 DUP2 REVERT JUMPDEST DUP6 CALLDATALOAD PUSH2 0x2EEE DUP2 PUSH2 0x307F JUMP JUMPDEST SWAP5 POP PUSH1 0x20 DUP7 ADD CALLDATALOAD SWAP4 POP PUSH1 0x40 DUP7 ADD CALLDATALOAD SWAP3 POP PUSH1 0x60 DUP7 ADD CALLDATALOAD SWAP2 POP PUSH1 0x80 DUP7 ADD CALLDATALOAD PUSH2 0x2F13 DUP2 PUSH2 0x3094 JUMP JUMPDEST DUP1 SWAP2 POP POP SWAP3 SWAP6 POP SWAP3 SWAP6 SWAP1 SWAP4 POP JUMP JUMPDEST PUSH1 0x0 PUSH1 0x20 DUP3 DUP5 SUB SLT ISZERO PUSH2 0x2F32 JUMPI DUP1 DUP2 REVERT JUMPDEST DUP2 MLOAD PUSH2 0x2EA9 DUP2 PUSH2 0x3094 JUMP JUMPDEST PUSH1 0x0 PUSH1 0x20 DUP3 DUP5 SUB SLT ISZERO PUSH2 0x2F4E JUMPI DUP1 DUP2 REVERT JUMPDEST POP CALLDATALOAD SWAP2 SWAP1 POP JUMP JUMPDEST PUSH1 0x0 PUSH1 0x20 DUP3 DUP5 SUB SLT ISZERO PUSH2 0x2F66 JUMPI DUP1 DUP2 REVERT JUMPDEST POP MLOAD SWAP2 SWAP1 POP JUMP JUMPDEST PUSH1 0x20 DUP1 DUP3 MSTORE DUP3 MLOAD DUP3 DUP3 ADD DUP2 SWAP1 MSTORE PUSH1 0x0 SWAP2 SWAP1 DUP5 DUP3 ADD SWAP1 PUSH1 0x40 DUP6 ADD SWAP1 DUP5 JUMPDEST DUP2 DUP2 LT ISZERO PUSH2 0x2FA5 JUMPI DUP4 MLOAD DUP4 MSTORE SWAP3 DUP5 ADD SWAP3 SWAP2 DUP5 ADD SWAP2 PUSH1 0x1 ADD PUSH2 0x2F89 JUMP JUMPDEST POP SWAP1 SWAP7 SWAP6 POP POP POP POP POP POP JUMP JUMPDEST PUSH1 0x20 DUP1 DUP3 MSTORE PUSH1 0x15 SWAP1 DUP3 ADD MSTORE PUSH21 0x18D85B1B195C881B9BDD08185D5D1A1BDC9A5E9959 PUSH1 0x5A SHL PUSH1 0x40 DUP3 ADD MSTORE PUSH1 0x60 ADD SWAP1 JUMP JUMPDEST PUSH1 0x0 DUP3 NOT DUP3 GT ISZERO PUSH2 0x2FF3 JUMPI PUSH2 0x2FF3 PUSH2 0x3069 JUMP JUMPDEST POP ADD SWAP1 JUMP JUMPDEST PUSH1 0x0 DUP3 PUSH2 0x3013 JUMPI PUSH4 0x4E487B71 PUSH1 0xE0 SHL DUP2 MSTORE PUSH1 0x12 PUSH1 0x4 MSTORE PUSH1 0x24 DUP2 REVERT JUMPDEST POP DIV SWAP1 JUMP JUMPDEST PUSH1 0x0 DUP2 PUSH1 0x0 NOT DIV DUP4 GT DUP3 ISZERO ISZERO AND ISZERO PUSH2 0x3032 JUMPI PUSH2 0x3032 PUSH2 0x3069 JUMP JUMPDEST POP MUL SWAP1 JUMP JUMPDEST PUSH1 0x0 DUP3 DUP3 LT ISZERO PUSH2 0x3049 JUMPI PUSH2 0x3049 PUSH2 0x3069 JUMP JUMPDEST POP SUB SWAP1 JUMP JUMPDEST PUSH1 0x0 PUSH1 0x0 NOT DUP3 EQ ISZERO PUSH2 0x3062 JUMPI PUSH2 0x3062 PUSH2 0x3069 JUMP JUMPDEST POP PUSH1 0x1 ADD SWAP1 JUMP JUMPDEST PUSH4 0x4E487B71 PUSH1 0xE0 SHL PUSH1 0x0 MSTORE PUSH1 0x11 PUSH1 0x4 MSTORE PUSH1 0x24 PUSH1 0x0 REVERT JUMPDEST PUSH1 0x1 PUSH1 0x1 PUSH1 0xA0 SHL SUB DUP2 AND DUP2 EQ PUSH2 0x4AA JUMPI PUSH1 0x0 DUP1 REVERT JUMPDEST DUP1 ISZERO ISZERO DUP2 EQ PUSH2 0x4AA JUMPI PUSH1 0x0 DUP1 REVERT INVALID LOG2 PUSH5 0x6970667358 0x22 SLT KECCAK256 PUSH26 0x63030A62DD711E6FB11FD2B0ED7A4F5AA86349C1767554100639 PUSH26 0x2CC9D31464736F6C634300080400330000000000000000000000 "
				},
				"gasEstimates": {
					"creation": {
						"codeDepositCost": "2500800",
						"executionCost": "infinite",
						"totalCost": "infinite"
					},
					"external": {
						"addBet(address,uint256,uint256,uint256,bool)": "infinite",
						"cancel()": "infinite",
						"cancelBet(bytes32)": "infinite",
						"cancelPlusPairs()": "infinite",
						"getBalance(address)": "1330",
						"getBet(bytes32)": "5771",
						"getBetPairs(bytes32)": "infinite",
						"getBets()": "infinite",
						"getPair(bytes32)": "4806",
						"getPairs()": "infinite",
						"getUserBets(address)": "infinite",
						"marketEvent()": "infinite",
						"setWinningSide(uint256)": "infinite",
						"settle(uint256)": "infinite",
						"settleBet(bytes32)": "infinite",
						"status()": "1008",
						"stopNewBet()": "infinite",
						"withdraw(address)": "infinite",
						"withdrawPending(bytes32)": "infinite"
					},
					"internal": {
						"_cancelBetPairs(bytes32)": "infinite",
						"_cancelPair(bytes32)": "infinite",
						"_createBet(address,address,uint256,uint256,uint256,uint256)": "infinite",
						"_createPair(bytes32,bytes32,uint256,uint256)": "infinite",
						"_match(uint256,uint256,uint256,uint256,bytes32,bytes32)": "infinite",
						"_settlePair(bytes32)": "infinite"
					}
				},
				"methodIdentifiers": {
					"addBet(address,uint256,uint256,uint256,bool)": "ba8006c6",
					"cancel()": "ea8a1af0",
					"cancelBet(bytes32)": "2940ff1e",
					"cancelPlusPairs()": "ae8cd090",
					"getBalance(address)": "f8b2cb4f",
					"getBet(bytes32)": "37e8c09e",
					"getBetPairs(bytes32)": "25c22a45",
					"getBets()": "a6afd5fd",
					"getPair(bytes32)": "b8e5303d",
					"getPairs()": "767eb5ef",
					"getUserBets(address)": "2d56657d",
					"marketEvent()": "7a47d494",
					"setWinningSide(uint256)": "d0ed7295",
					"settle(uint256)": "8df82800",
					"settleBet(bytes32)": "675f6537",
					"status()": "200d2ed2",
					"stopNewBet()": "6bef0267",
					"withdraw(address)": "51cff8d9",
					"withdrawPending(bytes32)": "7d7f9232"
				}
			},
			"storageLayout": {
				"storage": [
					{
						"astId": 10,
						"contract": "contracts/Market.sol:Market",
						"label": "_status",
						"offset": 0,
						"slot": "0",
						"type": "t_uint256"
					},
					{
						"astId": 131,
						"contract": "contracts/Market.sol:Market",
						"label": "factory",
						"offset": 0,
						"slot": "1",
						"type": "t_address"
					},
					{
						"astId": 135,
						"contract": "contracts/Market.sol:Market",
						"label": "status",
						"offset": 0,
						"slot": "2",
						"type": "t_uint256"
					},
					{
						"astId": 138,
						"contract": "contracts/Market.sol:Market",
						"label": "pairs",
						"offset": 0,
						"slot": "3",
						"type": "t_array(t_bytes32)dyn_storage"
					},
					{
						"astId": 141,
						"contract": "contracts/Market.sol:Market",
						"label": "bets",
						"offset": 0,
						"slot": "4",
						"type": "t_array(t_bytes32)dyn_storage"
					},
					{
						"astId": 145,
						"contract": "contracts/Market.sol:Market",
						"label": "bal",
						"offset": 0,
						"slot": "5",
						"type": "t_mapping(t_address,t_uint256)"
					},
					{
						"astId": 150,
						"contract": "contracts/Market.sol:Market",
						"label": "betsInfo",
						"offset": 0,
						"slot": "6",
						"type": "t_mapping(t_bytes32,t_struct(MarketBet)2074_storage)"
					},
					{
						"astId": 155,
						"contract": "contracts/Market.sol:Market",
						"label": "userBets",
						"offset": 0,
						"slot": "7",
						"type": "t_mapping(t_address,t_array(t_bytes32)dyn_storage)"
					},
					{
						"astId": 160,
						"contract": "contracts/Market.sol:Market",
						"label": "pairsInfo",
						"offset": 0,
						"slot": "8",
						"type": "t_mapping(t_bytes32,t_struct(MarketPair)2085_storage)"
					},
					{
						"astId": 165,
						"contract": "contracts/Market.sol:Market",
						"label": "betPairs",
						"offset": 0,
						"slot": "9",
						"type": "t_mapping(t_bytes32,t_array(t_bytes32)dyn_storage)"
					},
					{
						"astId": 171,
						"contract": "contracts/Market.sol:Market",
						"label": "app",
						"offset": 0,
						"slot": "10",
						"type": "t_contract(IWeb3BetsFO)2059"
					}
				],
				"types": {
					"t_address": {
						"encoding": "inplace",
						"label": "address",
						"numberOfBytes": "20"
					},
					"t_array(t_bytes32)dyn_storage": {
						"base": "t_bytes32",
						"encoding": "dynamic_array",
						"label": "bytes32[]",
						"numberOfBytes": "32"
					},
					"t_bool": {
						"encoding": "inplace",
						"label": "bool",
						"numberOfBytes": "1"
					},
					"t_bytes32": {
						"encoding": "inplace",
						"label": "bytes32",
						"numberOfBytes": "32"
					},
					"t_contract(IWeb3BetsFO)2059": {
						"encoding": "inplace",
						"label": "contract IWeb3BetsFO",
						"numberOfBytes": "20"
					},
					"t_mapping(t_address,t_array(t_bytes32)dyn_storage)": {
						"encoding": "mapping",
						"key": "t_address",
						"label": "mapping(address => bytes32[])",
						"numberOfBytes": "32",
						"value": "t_array(t_bytes32)dyn_storage"
					},
					"t_mapping(t_address,t_uint256)": {
						"encoding": "mapping",
						"key": "t_address",
						"label": "mapping(address => uint256)",
						"numberOfBytes": "32",
						"value": "t_uint256"
					},
					"t_mapping(t_bytes32,t_array(t_bytes32)dyn_storage)": {
						"encoding": "mapping",
						"key": "t_bytes32",
						"label": "mapping(bytes32 => bytes32[])",
						"numberOfBytes": "32",
						"value": "t_array(t_bytes32)dyn_storage"
					},
					"t_mapping(t_bytes32,t_struct(MarketBet)2074_storage)": {
						"encoding": "mapping",
						"key": "t_bytes32",
						"label": "mapping(bytes32 => struct Struct.MarketBet)",
						"numberOfBytes": "32",
						"value": "t_struct(MarketBet)2074_storage"
					},
					"t_mapping(t_bytes32,t_struct(MarketPair)2085_storage)": {
						"encoding": "mapping",
						"key": "t_bytes32",
						"label": "mapping(bytes32 => struct Struct.MarketPair)",
						"numberOfBytes": "32",
						"value": "t_struct(MarketPair)2085_storage"
					},
					"t_struct(MarketBet)2074_storage": {
						"encoding": "inplace",
						"label": "struct Struct.MarketBet",
						"members": [
							{
								"astId": 2063,
								"contract": "contracts/Market.sol:Market",
								"label": "better",
								"offset": 0,
								"slot": "0",
								"type": "t_address"
							},
							{
								"astId": 2065,
								"contract": "contracts/Market.sol:Market",
								"label": "affiliate",
								"offset": 0,
								"slot": "1",
								"type": "t_address"
							},
							{
								"astId": 2067,
								"contract": "contracts/Market.sol:Market",
								"label": "stake",
								"offset": 0,
								"slot": "2",
								"type": "t_uint256"
							},
							{
								"astId": 2069,
								"contract": "contracts/Market.sol:Market",
								"label": "matched",
								"offset": 0,
								"slot": "3",
								"type": "t_uint256"
							},
							{
								"astId": 2071,
								"contract": "contracts/Market.sol:Market",
								"label": "odds",
								"offset": 0,
								"slot": "4",
								"type": "t_uint256"
							},
							{
								"astId": 2073,
								"contract": "contracts/Market.sol:Market",
								"label": "side",
								"offset": 0,
								"slot": "5",
								"type": "t_uint256"
							}
						],
						"numberOfBytes": "192"
					},
					"t_struct(MarketPair)2085_storage": {
						"encoding": "inplace",
						"label": "struct Struct.MarketPair",
						"members": [
							{
								"astId": 2076,
								"contract": "contracts/Market.sol:Market",
								"label": "betHashA",
								"offset": 0,
								"slot": "0",
								"type": "t_bytes32"
							},
							{
								"astId": 2078,
								"contract": "contracts/Market.sol:Market",
								"label": "betHashB",
								"offset": 0,
								"slot": "1",
								"type": "t_bytes32"
							},
							{
								"astId": 2080,
								"contract": "contracts/Market.sol:Market",
								"label": "amountA",
								"offset": 0,
								"slot": "2",
								"type": "t_uint256"
							},
							{
								"astId": 2082,
								"contract": "contracts/Market.sol:Market",
								"label": "amountB",
								"offset": 0,
								"slot": "3",
								"type": "t_uint256"
							},
							{
								"astId": 2084,
								"contract": "contracts/Market.sol:Market",
								"label": "settled",
								"offset": 0,
								"slot": "4",
								"type": "t_bool"
							}
						],
						"numberOfBytes": "160"
					},
					"t_uint256": {
						"encoding": "inplace",
						"label": "uint256",
						"numberOfBytes": "32"
					}
				}
			},
			"userdoc": {
				"kind": "user",
				"methods": {},
				"version": 1
			}
		}
	}
}