{
	"contracts/Market.sol": {
		"Market": {
			"abi": [
				{
					"inputs": [
						{
							"internalType": "address",
							"name": "owner_",
							"type": "address"
						}
					],
					"stateMutability": "nonpayable",
					"type": "constructor"
				},
				{
					"anonymous": false,
					"inputs": [
						{
							"indexed": false,
							"internalType": "address",
							"name": "better",
							"type": "address"
						},
						{
							"indexed": false,
							"internalType": "address",
							"name": "marketAddr",
							"type": "address"
						},
						{
							"indexed": false,
							"internalType": "bytes32",
							"name": "hash",
							"type": "bytes32"
						},
						{
							"indexed": false,
							"internalType": "uint256",
							"name": "stake",
							"type": "uint256"
						},
						{
							"indexed": false,
							"internalType": "uint256",
							"name": "odds",
							"type": "uint256"
						},
						{
							"indexed": false,
							"internalType": "uint256",
							"name": "side",
							"type": "uint256"
						}
					],
					"name": "BetCreated",
					"type": "event"
				},
				{
					"anonymous": false,
					"inputs": [
						{
							"indexed": false,
							"internalType": "bytes32",
							"name": "betHashA",
							"type": "bytes32"
						},
						{
							"indexed": false,
							"internalType": "bytes32",
							"name": "betHashB",
							"type": "bytes32"
						},
						{
							"indexed": false,
							"internalType": "uint256",
							"name": "amountA",
							"type": "uint256"
						},
						{
							"indexed": false,
							"internalType": "uint256",
							"name": "amountB",
							"type": "uint256"
						}
					],
					"name": "PairCreated",
					"type": "event"
				},
				{
					"anonymous": false,
					"inputs": [
						{
							"indexed": false,
							"internalType": "address",
							"name": "beneficiary",
							"type": "address"
						},
						{
							"indexed": false,
							"internalType": "uint256",
							"name": "value",
							"type": "uint256"
						}
					],
					"name": "Withdraw",
					"type": "event"
				},
				{
					"inputs": [
						{
							"internalType": "address",
							"name": "_better",
							"type": "address"
						},
						{
							"internalType": "address",
							"name": "_affiliate",
							"type": "address"
						},
						{
							"internalType": "uint256",
							"name": "_stake",
							"type": "uint256"
						},
						{
							"internalType": "uint256",
							"name": "_odds",
							"type": "uint256"
						},
						{
							"internalType": "uint256",
							"name": "_side",
							"type": "uint256"
						},
						{
							"internalType": "bool",
							"name": "_instant",
							"type": "bool"
						}
					],
					"name": "addBet",
					"outputs": [
						{
							"internalType": "bytes32",
							"name": "",
							"type": "bytes32"
						}
					],
					"stateMutability": "nonpayable",
					"type": "function"
				},
				{
					"inputs": [
						{
							"internalType": "bytes32",
							"name": "_bet",
							"type": "bytes32"
						}
					],
					"name": "cancelBet",
					"outputs": [],
					"stateMutability": "nonpayable",
					"type": "function"
				},
				{
					"inputs": [],
					"name": "cancelMarket",
					"outputs": [
						{
							"internalType": "bool",
							"name": "",
							"type": "bool"
						}
					],
					"stateMutability": "nonpayable",
					"type": "function"
				},
				{
					"inputs": [
						{
							"internalType": "address",
							"name": "_user",
							"type": "address"
						}
					],
					"name": "getBalance",
					"outputs": [
						{
							"internalType": "uint256",
							"name": "",
							"type": "uint256"
						}
					],
					"stateMutability": "view",
					"type": "function"
				},
				{
					"inputs": [
						{
							"internalType": "address",
							"name": "_user",
							"type": "address"
						}
					],
					"name": "getUserBets",
					"outputs": [
						{
							"components": [
								{
									"internalType": "address",
									"name": "better",
									"type": "address"
								},
								{
									"internalType": "address",
									"name": "affiliate",
									"type": "address"
								},
								{
									"internalType": "uint256",
									"name": "stake",
									"type": "uint256"
								},
								{
									"internalType": "uint256",
									"name": "matched",
									"type": "uint256"
								},
								{
									"internalType": "uint256",
									"name": "odds",
									"type": "uint256"
								},
								{
									"internalType": "uint256",
									"name": "side",
									"type": "uint256"
								}
							],
							"internalType": "struct IMarket.MarketBet[]",
							"name": "",
							"type": "tuple[]"
						}
					],
					"stateMutability": "view",
					"type": "function"
				},
				{
					"inputs": [
						{
							"internalType": "uint256",
							"name": "_winningSide",
							"type": "uint256"
						}
					],
					"name": "settle",
					"outputs": [
						{
							"internalType": "bool",
							"name": "",
							"type": "bool"
						}
					],
					"stateMutability": "nonpayable",
					"type": "function"
				},
				{
					"inputs": [
						{
							"internalType": "bytes32",
							"name": "_bet",
							"type": "bytes32"
						}
					],
					"name": "settleBet",
					"outputs": [],
					"stateMutability": "nonpayable",
					"type": "function"
				},
				{
					"inputs": [],
					"name": "start",
					"outputs": [
						{
							"internalType": "bool",
							"name": "",
							"type": "bool"
						}
					],
					"stateMutability": "nonpayable",
					"type": "function"
				},
				{
					"inputs": [],
					"name": "status",
					"outputs": [
						{
							"internalType": "uint256",
							"name": "",
							"type": "uint256"
						}
					],
					"stateMutability": "view",
					"type": "function"
				},
				{
					"inputs": [
						{
							"internalType": "address",
							"name": "_addr",
							"type": "address"
						}
					],
					"name": "withdraw",
					"outputs": [
						{
							"internalType": "bool",
							"name": "",
							"type": "bool"
						}
					],
					"stateMutability": "nonpayable",
					"type": "function"
				},
				{
					"inputs": [
						{
							"internalType": "bytes32",
							"name": "_bet",
							"type": "bytes32"
						}
					],
					"name": "withdrawPending",
					"outputs": [],
					"stateMutability": "nonpayable",
					"type": "function"
				}
			],
			"devdoc": {
				"kind": "dev",
				"methods": {},
				"version": 1
			},
			"evm": {
				"assembly": "    /* \"contracts/Market.sol\":194:13302  contract Market is IMarket, ReentrancyGuard {... */\n  mstore(0x40, 0xc0)\n    /* \"contracts/Market.sol\":439:440  0 */\n  0x00\n    /* \"contracts/Market.sol\":406:440  uint256 public override status = 0 */\n  0x03\n  sstore\n    /* \"contracts/Market.sol\":1192:1199  factory */\n  sload(0x02)\n    /* \"contracts/Market.sol\":1144:1200  IWeb3BetsFO immutable private app = IWeb3BetsFO(factory) */\n  0x60\n  shl\n  not(sub(shl(0x60, 0x01), 0x01))\n  and\n  0xa0\n  mstore\n    /* \"contracts/Market.sol\":1825:1969  constructor(address owner_) {... */\n  callvalue\n  dup1\n  iszero\n  tag_1\n  jumpi\n  0x00\n  dup1\n  revert\ntag_1:\n  pop\n  mload(0x40)\n  sub(codesize, bytecodeSize)\n  dup1\n  bytecodeSize\n  dup4\n  codecopy\n  dup2\n  add\n  0x40\n  dup2\n  swap1\n  mstore\n  tag_2\n  swap2\n  tag_3\n  jump\t// in\ntag_2:\n    /* \"@openzeppelin/contracts/security/ReentrancyGuard.sol\":1701:1702  1 */\n  0x01\n    /* \"@openzeppelin/contracts/security/ReentrancyGuard.sol\":1806:1813  _status */\n  0x00\n    /* \"@openzeppelin/contracts/security/ReentrancyGuard.sol\":1806:1828  _status = _NOT_ENTERED */\n  dup2\n  swap1\n  sstore\n    /* \"contracts/Market.sol\":1863:1877  owner = owner_ */\n  dup1\n  sload\n  not(sub(shl(0xa0, 0x01), 0x01))\n  swap1\n  dup2\n  and\n  sub(shl(0xa0, 0x01), 0x01)\n  dup5\n  and\n  or\n  swap1\n  swap2\n  sstore\n    /* \"contracts/Market.sol\":1887:1894  factory */\n  0x02\n    /* \"contracts/Market.sol\":1887:1907  factory = msg.sender */\n  dup1\n  sload\n    /* \"contracts/Market.sol\":1897:1907  msg.sender */\n  caller\n    /* \"contracts/Market.sol\":1887:1907  factory = msg.sender */\n  swap3\n  and\n  dup3\n  or\n  swap1\n  sstore\n    /* \"contracts/Market.sol\":1932:1961  IWeb3BetsFO(factory).scAddr() */\n  0x40\n  dup1\n  mload\n  shl(0xe3, 0x966ed9)\n  dup2\n  mstore\n  swap1\n  mload\n    /* \"contracts/Market.sol\":1932:1959  IWeb3BetsFO(factory).scAddr */\n  0x04b376c8\n  swap2\n    /* \"contracts/Market.sol\":1932:1961  IWeb3BetsFO(factory).scAddr() */\n  0x04\n  dup1\n  dup3\n  add\n  swap3\n  0x20\n  swap3\n  swap1\n  swap2\n  swap1\n  dup3\n  swap1\n  sub\n  add\n  dup2\n    /* \"contracts/Market.sol\":1897:1907  msg.sender */\n  dup7\n    /* \"contracts/Market.sol\":1932:1961  IWeb3BetsFO(factory).scAddr() */\n  dup1\n  extcodesize\n  iszero\n  dup1\n  iszero\n  tag_8\n  jumpi\n  0x00\n  dup1\n  revert\ntag_8:\n  pop\n  gas\n  staticcall\n  iszero\n  dup1\n  iszero\n  tag_10\n  jumpi\n  returndatasize\n  0x00\n  dup1\n  returndatacopy\n  revert(0x00, returndatasize)\ntag_10:\n  pop\n  pop\n  pop\n  pop\n  mload(0x40)\n  returndatasize\n  not(0x1f)\n  0x1f\n  dup3\n  add\n  and\n  dup3\n  add\n  dup1\n  0x40\n  mstore\n  pop\n  dup2\n  add\n  swap1\n  tag_11\n  swap2\n  swap1\n  tag_3\n  jump\t// in\ntag_11:\n    /* \"contracts/Market.sol\":1917:1962  token = IERC20(IWeb3BetsFO(factory).scAddr()) */\n  0x60\n  shl\n  not(sub(shl(0x60, 0x01), 0x01))\n  and\n  0x80\n  mstore\n  pop\n    /* \"contracts/Market.sol\":194:13302  contract Market is IMarket, ReentrancyGuard {... */\n  jump(tag_13)\n    /* \"#utility.yul\":14:324   */\ntag_3:\n    /* \"#utility.yul\":84:90   */\n  0x00\n    /* \"#utility.yul\":137:139   */\n  0x20\n    /* \"#utility.yul\":125:134   */\n  dup3\n    /* \"#utility.yul\":116:123   */\n  dup5\n    /* \"#utility.yul\":112:135   */\n  sub\n    /* \"#utility.yul\":108:140   */\n  slt\n    /* \"#utility.yul\":105:107   */\n  iszero\n  tag_15\n  jumpi\n    /* \"#utility.yul\":158:164   */\n  dup1\n    /* \"#utility.yul\":150:156   */\n  dup2\n    /* \"#utility.yul\":143:165   */\n  revert\n    /* \"#utility.yul\":105:107   */\ntag_15:\n    /* \"#utility.yul\":189:205   */\n  dup2\n  mload\n  sub(shl(0xa0, 0x01), 0x01)\n    /* \"#utility.yul\":234:265   */\n  dup2\n  and\n    /* \"#utility.yul\":224:266   */\n  dup2\n  eq\n    /* \"#utility.yul\":214:216   */\n  tag_16\n  jumpi\n    /* \"#utility.yul\":285:291   */\n  dup2\n    /* \"#utility.yul\":277:283   */\n  dup3\n    /* \"#utility.yul\":270:292   */\n  revert\n    /* \"#utility.yul\":214:216   */\ntag_16:\n    /* \"#utility.yul\":313:318   */\n  swap4\n    /* \"#utility.yul\":95:324   */\n  swap3\n  pop\n  pop\n  pop\n  jump\t// out\ntag_13:\n    /* \"contracts/Market.sol\":194:13302  contract Market is IMarket, ReentrancyGuard {... */\n  shr(0x60, mload(0x80))\n  shr(0x60, mload(0xa0))\n  codecopy(0x00, dataOffset(sub_0), dataSize(sub_0))\n  0x00\n  assignImmutable(\"0x911a39fbf665a24ad3b6efc185d4b936bbda1900793ae2f7c00f4d18bdd96685\")\n  0x00\n  assignImmutable(\"0xb35cf579f54ccafa8cda334bf8f538b0f7a8230c902d5a84be1ea7996ef7fb49\")\n  return(0x00, dataSize(sub_0))\nstop\n\nsub_0: assembly {\n        /* \"contracts/Market.sol\":194:13302  contract Market is IMarket, ReentrancyGuard {... */\n      mstore(0x40, 0x80)\n      callvalue\n      dup1\n      iszero\n      tag_1\n      jumpi\n      0x00\n      dup1\n      revert\n    tag_1:\n      pop\n      jumpi(tag_2, lt(calldatasize, 0x04))\n      shr(0xe0, calldataload(0x00))\n      dup1\n      0x6bfefd6b\n      gt\n      tag_14\n      jumpi\n      dup1\n      0x6bfefd6b\n      eq\n      tag_8\n      jumpi\n      dup1\n      0x78d65b2f\n      eq\n      tag_9\n      jumpi\n      dup1\n      0x7d7f9232\n      eq\n      tag_10\n      jumpi\n      dup1\n      0x8df82800\n      eq\n      tag_11\n      jumpi\n      dup1\n      0xbe9a6555\n      eq\n      tag_12\n      jumpi\n      dup1\n      0xf8b2cb4f\n      eq\n      tag_13\n      jumpi\n      0x00\n      dup1\n      revert\n    tag_14:\n      dup1\n      0x200d2ed2\n      eq\n      tag_3\n      jumpi\n      dup1\n      0x2940ff1e\n      eq\n      tag_4\n      jumpi\n      dup1\n      0x2d56657d\n      eq\n      tag_5\n      jumpi\n      dup1\n      0x51cff8d9\n      eq\n      tag_6\n      jumpi\n      dup1\n      0x675f6537\n      eq\n      tag_7\n      jumpi\n    tag_2:\n      0x00\n      dup1\n      revert\n        /* \"contracts/Market.sol\":406:440  uint256 public override status = 0 */\n    tag_3:\n      tag_15\n      sload(0x03)\n      dup2\n      jump\n    tag_15:\n      mload(0x40)\n        /* \"#utility.yul\":6385:6410   */\n      swap1\n      dup2\n      mstore\n        /* \"#utility.yul\":6373:6375   */\n      0x20\n        /* \"#utility.yul\":6358:6376   */\n      add\n        /* \"contracts/Market.sol\":406:440  uint256 public override status = 0 */\n    tag_17:\n      mload(0x40)\n      dup1\n      swap2\n      sub\n      swap1\n      return\n        /* \"contracts/Market.sol\":3428:4395  function cancelBet(bytes32 _bet) external {... */\n    tag_4:\n      tag_19\n      tag_20\n      calldatasize\n      0x04\n      tag_21\n      jump\t// in\n    tag_20:\n      tag_22\n      jump\t// in\n    tag_19:\n      stop\n        /* \"contracts/Market.sol\":2090:2440  function getUserBets(address _user) external view override returns(MarketBet[] memory) {... */\n    tag_5:\n      tag_23\n      tag_24\n      calldatasize\n      0x04\n      tag_25\n      jump\t// in\n    tag_24:\n      tag_26\n      jump\t// in\n    tag_23:\n      mload(0x40)\n      tag_17\n      swap2\n      swap1\n      tag_28\n      jump\t// in\n        /* \"contracts/Market.sol\":2446:2851  function withdraw(address _addr) public override nonReentrant returns(bool) {... */\n    tag_6:\n      tag_29\n      tag_30\n      calldatasize\n      0x04\n      tag_25\n      jump\t// in\n    tag_30:\n      tag_31\n      jump\t// in\n    tag_29:\n      mload(0x40)\n        /* \"#utility.yul\":6212:6226   */\n      swap1\n      iszero\n        /* \"#utility.yul\":6205:6227   */\n      iszero\n        /* \"#utility.yul\":6187:6228   */\n      dup2\n      mstore\n        /* \"#utility.yul\":6175:6177   */\n      0x20\n        /* \"#utility.yul\":6160:6178   */\n      add\n        /* \"contracts/Market.sol\":2446:2851  function withdraw(address _addr) public override nonReentrant returns(bool) {... */\n      tag_17\n        /* \"#utility.yul\":6142:6234   */\n      jump\n        /* \"contracts/Market.sol\":4401:4721  function settleBet(bytes32 _bet) external override {... */\n    tag_7:\n      tag_19\n      tag_35\n      calldatasize\n      0x04\n      tag_21\n      jump\t// in\n    tag_35:\n      tag_36\n      jump\t// in\n        /* \"contracts/Market.sol\":5223:5603  function cancelMarket() external override onlyFactory returns(bool) ... */\n    tag_8:\n      tag_29\n      tag_38\n      jump\t// in\n        /* \"contracts/Market.sol\":5817:10021  function addBet(... */\n    tag_9:\n      tag_15\n      tag_41\n      calldatasize\n      0x04\n      tag_42\n      jump\t// in\n    tag_41:\n      tag_43\n      jump\t// in\n        /* \"contracts/Market.sol\":2859:3422  function withdrawPending(bytes32 _bet) external override {... */\n    tag_10:\n      tag_19\n      tag_47\n      calldatasize\n      0x04\n      tag_21\n      jump\t// in\n    tag_47:\n      tag_48\n      jump\t// in\n        /* \"contracts/Market.sol\":4727:5217  function settle(uint256 _winningSide)... */\n    tag_11:\n      tag_29\n      tag_50\n      calldatasize\n      0x04\n      tag_21\n      jump\t// in\n    tag_50:\n      tag_52\n      jump\t// in\n        /* \"contracts/Market.sol\":5609:5811  function start() external override onlyFactory returns(bool){... */\n    tag_12:\n      tag_29\n      tag_55\n      jump\t// in\n        /* \"contracts/Market.sol\":1975:2084  function getBalance(address _user) external view override returns(uint256) {... */\n    tag_13:\n      tag_15\n      tag_58\n      calldatasize\n      0x04\n      tag_25\n      jump\t// in\n    tag_58:\n      sub(shl(0xa0, 0x01), 0x01)\n        /* \"contracts/Market.sol\":2067:2077  bal[_user] */\n      and\n        /* \"contracts/Market.sol\":2041:2048  uint256 */\n      0x00\n        /* \"contracts/Market.sol\":2067:2077  bal[_user] */\n      swap1\n      dup2\n      mstore\n        /* \"contracts/Market.sol\":2067:2070  bal */\n      0x07\n        /* \"contracts/Market.sol\":2067:2077  bal[_user] */\n      0x20\n      mstore\n      0x40\n      swap1\n      keccak256\n      sload\n      swap1\n        /* \"contracts/Market.sol\":1975:2084  function getBalance(address _user) external view override returns(uint256) {... */\n      jump\n        /* \"contracts/Market.sol\":3428:4395  function cancelBet(bytes32 _bet) external {... */\n    tag_22:\n        /* \"contracts/Market.sol\":3483:3489  status */\n      sload(0x03)\n        /* \"contracts/Market.sol\":3480:4389  if(status == 0){... */\n      tag_62\n      jumpi\n        /* \"contracts/Market.sol\":3509:3529  MarketBet memory bet */\n      0x00\n        /* \"contracts/Market.sol\":3532:3546  betsInfo[_bet] */\n      dup2\n      dup2\n      mstore\n        /* \"contracts/Market.sol\":3532:3540  betsInfo */\n      0x08\n        /* \"contracts/Market.sol\":3532:3546  betsInfo[_bet] */\n      0x20\n      swap1\n      dup2\n      mstore\n      0x40\n      dup1\n      dup4\n      keccak256\n        /* \"contracts/Market.sol\":3509:3546  MarketBet memory bet = betsInfo[_bet] */\n      dup2\n      mload\n      0xc0\n      dup2\n      add\n      dup4\n      mstore\n      dup2\n      sload\n      sub(shl(0xa0, 0x01), 0x01)\n      swap1\n      dup2\n      and\n      dup3\n      mstore\n      0x01\n      dup4\n      add\n      sload\n      and\n      dup2\n      dup6\n      add\n      mstore\n      0x02\n      dup3\n      add\n      sload\n      dup2\n      dup5\n      add\n      mstore\n      0x03\n      dup3\n      add\n      sload\n      0x60\n      dup3\n      add\n      mstore\n      0x04\n      dup3\n      add\n      sload\n      0x80\n      dup3\n      add\n      mstore\n      0x05\n      swap1\n      swap2\n      add\n      sload\n      0xa0\n      dup3\n      add\n      mstore\n        /* \"contracts/Market.sol\":3586:3600  betPairs[_bet] */\n      dup5\n      dup5\n      mstore\n        /* \"contracts/Market.sol\":3586:3594  betPairs */\n      0x0b\n        /* \"contracts/Market.sol\":3586:3600  betPairs[_bet] */\n      dup4\n      mstore\n      dup2\n      dup5\n      keccak256\n        /* \"contracts/Market.sol\":3560:3600  bytes32[] memory _pairs = betPairs[_bet] */\n      dup1\n      sload\n      dup4\n      mload\n      dup2\n      dup7\n      mul\n      dup2\n      add\n      dup7\n      add\n      swap1\n      swap5\n      mstore\n      dup1\n      dup5\n      mstore\n        /* \"contracts/Market.sol\":3509:3546  MarketBet memory bet = betsInfo[_bet] */\n      swap2\n      swap5\n        /* \"contracts/Market.sol\":3509:3529  MarketBet memory bet */\n      swap4\n        /* \"contracts/Market.sol\":3586:3600  betPairs[_bet] */\n      swap1\n      swap2\n        /* \"contracts/Market.sol\":3560:3600  bytes32[] memory _pairs = betPairs[_bet] */\n      swap1\n      dup4\n      add\n        /* \"contracts/Market.sol\":3586:3600  betPairs[_bet] */\n      dup3\n        /* \"contracts/Market.sol\":3560:3600  bytes32[] memory _pairs = betPairs[_bet] */\n      dup3\n      dup1\n      iszero\n      tag_63\n      jumpi\n      0x20\n      mul\n      dup3\n      add\n      swap2\n      swap1\n      0x00\n      mstore\n      keccak256(0x00, 0x20)\n      swap1\n    tag_64:\n      dup2\n      sload\n      dup2\n      mstore\n      0x20\n      add\n      swap1\n      0x01\n      add\n      swap1\n      dup1\n      dup4\n      gt\n      tag_64\n      jumpi\n    tag_63:\n      pop\n      pop\n        /* \"contracts/Market.sol\":3633:3646  _pairs.length */\n      dup4\n      mload\n        /* \"contracts/Market.sol\":3560:3600  bytes32[] memory _pairs = betPairs[_bet] */\n      swap4\n      swap5\n      pop\n        /* \"contracts/Market.sol\":3614:3630  uint pairsLength */\n      0x00\n      swap3\n      pop\n      pop\n      pop\n        /* \"contracts/Market.sol\":3660:4379  for(uint i = 0; i < pairsLength; i++){... */\n    tag_65:\n        /* \"contracts/Market.sol\":3680:3691  pairsLength */\n      dup2\n        /* \"contracts/Market.sol\":3676:3677  i */\n      dup2\n        /* \"contracts/Market.sol\":3676:3691  i < pairsLength */\n      lt\n        /* \"contracts/Market.sol\":3660:4379  for(uint i = 0; i < pairsLength; i++){... */\n      iszero\n      tag_66\n      jumpi\n        /* \"contracts/Market.sol\":3715:3737  bytes32 counterBetHash */\n      0x00\n        /* \"contracts/Market.sol\":3755:3770  bytes32 betHash */\n      dup1\n        /* \"contracts/Market.sol\":3791:3794  bet */\n      dup6\n        /* \"contracts/Market.sol\":3791:3799  bet.side */\n      0xa0\n      add\n      mload\n        /* \"contracts/Market.sol\":3803:3804  1 */\n      0x01\n        /* \"contracts/Market.sol\":3791:3804  bet.side == 1 */\n      eq\n        /* \"contracts/Market.sol\":3788:4230  if(bet.side == 1) {... */\n      iszero\n      tag_68\n      jumpi\n        /* \"contracts/Market.sol\":3838:3847  pairsInfo */\n      0x0a\n        /* \"contracts/Market.sol\":3838:3858  pairsInfo[_pairs[i]] */\n      0x00\n        /* \"contracts/Market.sol\":3848:3854  _pairs */\n      dup7\n        /* \"contracts/Market.sol\":3855:3856  i */\n      dup6\n        /* \"contracts/Market.sol\":3848:3857  _pairs[i] */\n      dup2\n      mload\n      dup2\n      lt\n      tag_69\n      jumpi\n      mstore(0x00, shl(0xe0, 0x4e487b71))\n      mstore(0x04, 0x32)\n      revert(0x00, 0x24)\n    tag_69:\n      0x20\n      mul\n      0x20\n      add\n      add\n      mload\n        /* \"contracts/Market.sol\":3838:3858  pairsInfo[_pairs[i]] */\n      dup2\n      mstore\n      0x20\n      add\n      swap1\n      dup2\n      mstore\n      0x20\n      add\n      0x00\n      keccak256\n        /* \"contracts/Market.sol\":3838:3867  pairsInfo[_pairs[i]].betHashA */\n      0x00\n      add\n      sload\n        /* \"contracts/Market.sol\":3828:3867  betHash = pairsInfo[_pairs[i]].betHashA */\n      swap1\n      pop\n        /* \"contracts/Market.sol\":3906:3915  pairsInfo */\n      0x0a\n        /* \"contracts/Market.sol\":3906:3926  pairsInfo[_pairs[i]] */\n      0x00\n        /* \"contracts/Market.sol\":3916:3922  _pairs */\n      dup7\n        /* \"contracts/Market.sol\":3923:3924  i */\n      dup6\n        /* \"contracts/Market.sol\":3916:3925  _pairs[i] */\n      dup2\n      mload\n      dup2\n      lt\n      tag_70\n      jumpi\n      mstore(0x00, shl(0xe0, 0x4e487b71))\n      mstore(0x04, 0x32)\n      revert(0x00, 0x24)\n    tag_70:\n      0x20\n      mul\n      0x20\n      add\n      add\n      mload\n        /* \"contracts/Market.sol\":3906:3926  pairsInfo[_pairs[i]] */\n      dup2\n      mstore\n      0x20\n      add\n      swap1\n      dup2\n      mstore\n      0x20\n      add\n      0x00\n      keccak256\n        /* \"contracts/Market.sol\":3906:3935  pairsInfo[_pairs[i]].betHashB */\n      0x01\n      add\n      sload\n        /* \"contracts/Market.sol\":3889:3935  counterBetHash = pairsInfo[_pairs[i]].betHashB */\n      swap2\n      pop\n        /* \"contracts/Market.sol\":3788:4230  if(bet.side == 1) {... */\n      jump(tag_75)\n    tag_68:\n        /* \"contracts/Market.sol\":3979:3982  bet */\n      dup6\n        /* \"contracts/Market.sol\":3979:3987  bet.side */\n      0xa0\n      add\n      mload\n        /* \"contracts/Market.sol\":3991:3992  2 */\n      0x02\n        /* \"contracts/Market.sol\":3979:3992  bet.side == 2 */\n      eq\n        /* \"contracts/Market.sol\":3976:4230  if(bet.side == 2) {... */\n      iszero\n      tag_72\n      jumpi\n        /* \"contracts/Market.sol\":4026:4035  pairsInfo */\n      0x0a\n        /* \"contracts/Market.sol\":4026:4046  pairsInfo[_pairs[i]] */\n      0x00\n        /* \"contracts/Market.sol\":4036:4042  _pairs */\n      dup7\n        /* \"contracts/Market.sol\":4043:4044  i */\n      dup6\n        /* \"contracts/Market.sol\":4036:4045  _pairs[i] */\n      dup2\n      mload\n      dup2\n      lt\n      tag_69\n      jumpi\n      mstore(0x00, shl(0xe0, 0x4e487b71))\n      mstore(0x04, 0x32)\n      revert(0x00, 0x24)\n        /* \"contracts/Market.sol\":3976:4230  if(bet.side == 2) {... */\n    tag_72:\n        /* \"contracts/Market.sol\":4186:4211  revert(\"E: invalid side\") */\n      mload(0x40)\n      shl(0xe5, 0x461bcd)\n      dup2\n      mstore\n        /* \"#utility.yul\":8670:8672   */\n      0x20\n        /* \"contracts/Market.sol\":4186:4211  revert(\"E: invalid side\") */\n      0x04\n      dup3\n      add\n        /* \"#utility.yul\":8652:8673   */\n      mstore\n        /* \"#utility.yul\":8709:8711   */\n      0x0f\n        /* \"#utility.yul\":8689:8707   */\n      0x24\n      dup3\n      add\n        /* \"#utility.yul\":8682:8712   */\n      mstore\n      shl(0x88, 0x453a20696e76616c69642073696465)\n        /* \"#utility.yul\":8728:8746   */\n      0x44\n      dup3\n      add\n        /* \"#utility.yul\":8721:8766   */\n      mstore\n        /* \"#utility.yul\":8783:8801   */\n      0x64\n      add\n        /* \"contracts/Market.sol\":4186:4211  revert(\"E: invalid side\") */\n    tag_76:\n      mload(0x40)\n      dup1\n      swap2\n      sub\n      swap1\n      revert\n        /* \"contracts/Market.sol\":3976:4230  if(bet.side == 2) {... */\n    tag_75:\n        /* \"contracts/Market.sol\":3660:4379  for(uint i = 0; i < pairsLength; i++){... */\n      pop\n      pop\n        /* \"contracts/Market.sol\":3693:3696  i++ */\n      dup1\n      dup1\n      tag_78\n      swap1\n      tag_79\n      jump\t// in\n    tag_78:\n      swap2\n      pop\n      pop\n        /* \"contracts/Market.sol\":3660:4379  for(uint i = 0; i < pairsLength; i++){... */\n      jump(tag_65)\n    tag_66:\n      pop\n        /* \"contracts/Market.sol\":3480:4389  if(status == 0){... */\n      pop\n      pop\n      pop\n    tag_62:\n        /* \"contracts/Market.sol\":3428:4395  function cancelBet(bytes32 _bet) external {... */\n      pop\n      jump\t// out\n        /* \"contracts/Market.sol\":2090:2440  function getUserBets(address _user) external view override returns(MarketBet[] memory) {... */\n    tag_26:\n      sub(shl(0xa0, 0x01), 0x01)\n        /* \"contracts/Market.sol\":2250:2265  userBets[_user] */\n      dup2\n      and\n        /* \"contracts/Market.sol\":2225:2247  bytes32[] memory _bets */\n      0x00\n        /* \"contracts/Market.sol\":2250:2265  userBets[_user] */\n      swap1\n      dup2\n      mstore\n        /* \"contracts/Market.sol\":2250:2258  userBets */\n      0x09\n        /* \"contracts/Market.sol\":2250:2265  userBets[_user] */\n      0x20\n      swap1\n      dup2\n      mstore\n      0x40\n      dup1\n      dup4\n      keccak256\n        /* \"contracts/Market.sol\":2225:2265  bytes32[] memory _bets = userBets[_user] */\n      dup1\n      sload\n      dup3\n      mload\n      dup2\n      dup6\n      mul\n      dup2\n      add\n      dup6\n      add\n      swap1\n      swap4\n      mstore\n      dup1\n      dup4\n      mstore\n        /* \"contracts/Market.sol\":2157:2175  MarketBet[] memory */\n      0x60\n      swap5\n      dup6\n      swap5\n        /* \"contracts/Market.sol\":2225:2247  bytes32[] memory _bets */\n      swap1\n      swap4\n        /* \"contracts/Market.sol\":2225:2265  bytes32[] memory _bets = userBets[_user] */\n      swap3\n        /* \"contracts/Market.sol\":2250:2265  userBets[_user] */\n      swap2\n        /* \"contracts/Market.sol\":2225:2265  bytes32[] memory _bets = userBets[_user] */\n      swap1\n      dup4\n      add\n        /* \"contracts/Market.sol\":2250:2265  userBets[_user] */\n      dup3\n        /* \"contracts/Market.sol\":2225:2265  bytes32[] memory _bets = userBets[_user] */\n      dup3\n      dup1\n      iszero\n      tag_81\n      jumpi\n      0x20\n      mul\n      dup3\n      add\n      swap2\n      swap1\n      0x00\n      mstore\n      keccak256(0x00, 0x20)\n      swap1\n    tag_82:\n      dup2\n      sload\n      dup2\n      mstore\n      0x20\n      add\n      swap1\n      0x01\n      add\n      swap1\n      dup1\n      dup4\n      gt\n      tag_82\n      jumpi\n    tag_81:\n      pop\n      pop\n        /* \"contracts/Market.sol\":2293:2297  bets */\n      0x05\n        /* \"contracts/Market.sol\":2293:2304  bets.length */\n      sload\n        /* \"contracts/Market.sol\":2225:2265  bytes32[] memory _bets = userBets[_user] */\n      swap4\n      swap5\n      pop\n        /* \"contracts/Market.sol\":2275:2290  uint betsLength */\n      0x00\n      swap3\n      pop\n      pop\n      pop\n        /* \"contracts/Market.sol\":2314:2408  for(uint i = 0; i < betsLength; i++){... */\n    tag_83:\n        /* \"contracts/Market.sol\":2334:2344  betsLength */\n      dup2\n        /* \"contracts/Market.sol\":2330:2331  i */\n      dup2\n        /* \"contracts/Market.sol\":2330:2344  i < betsLength */\n      lt\n        /* \"contracts/Market.sol\":2314:2408  for(uint i = 0; i < betsLength; i++){... */\n      iszero\n      tag_84\n      jumpi\n        /* \"contracts/Market.sol\":2379:2387  betsInfo */\n      0x08\n        /* \"contracts/Market.sol\":2379:2397  betsInfo[_bets[i]] */\n      0x00\n        /* \"contracts/Market.sol\":2388:2393  _bets */\n      dup5\n        /* \"contracts/Market.sol\":2394:2395  i */\n      dup4\n        /* \"contracts/Market.sol\":2388:2396  _bets[i] */\n      dup2\n      mload\n      dup2\n      lt\n      tag_86\n      jumpi\n      mstore(0x00, shl(0xe0, 0x4e487b71))\n      mstore(0x04, 0x32)\n      revert(0x00, 0x24)\n    tag_86:\n      0x20\n      swap1\n      dup2\n      mul\n      swap2\n      swap1\n      swap2\n      add\n      dup2\n      add\n      mload\n        /* \"contracts/Market.sol\":2379:2397  betsInfo[_bets[i]] */\n      dup3\n      mstore\n      dup2\n      dup2\n      add\n      swap3\n      swap1\n      swap3\n      mstore\n      0x40\n      swap1\n      dup2\n      add\n      0x00\n      keccak256\n        /* \"contracts/Market.sol\":2364:2397  _userBets[i] = betsInfo[_bets[i]] */\n      dup2\n      mload\n      0xc0\n      dup2\n      add\n      dup4\n      mstore\n      dup2\n      sload\n      sub(shl(0xa0, 0x01), 0x01)\n      swap1\n      dup2\n      and\n      dup3\n      mstore\n      0x01\n      dup4\n      add\n      sload\n      and\n      swap4\n      dup2\n      add\n      swap4\n      swap1\n      swap4\n      mstore\n      0x02\n      dup2\n      add\n      sload\n      swap2\n      dup4\n      add\n      swap2\n      swap1\n      swap2\n      mstore\n      0x03\n      dup2\n      add\n      sload\n      0x60\n      dup4\n      add\n      mstore\n      0x04\n      dup2\n      add\n      sload\n      0x80\n      dup4\n      add\n      mstore\n      0x05\n      add\n      sload\n      0xa0\n      dup3\n      add\n      mstore\n        /* \"contracts/Market.sol\":2364:2376  _userBets[i] */\n      dup5\n      mload\n        /* \"contracts/Market.sol\":2364:2373  _userBets */\n      dup6\n      swap1\n        /* \"contracts/Market.sol\":2374:2375  i */\n      dup4\n      swap1\n        /* \"contracts/Market.sol\":2364:2376  _userBets[i] */\n      dup2\n      lt\n      tag_87\n      jumpi\n      mstore(0x00, shl(0xe0, 0x4e487b71))\n      mstore(0x04, 0x32)\n      revert(0x00, 0x24)\n    tag_87:\n      0x20\n      mul\n      0x20\n      add\n      add\n        /* \"contracts/Market.sol\":2364:2397  _userBets[i] = betsInfo[_bets[i]] */\n      dup2\n      swap1\n      mstore\n      pop\n        /* \"contracts/Market.sol\":2346:2349  i++ */\n      dup1\n      dup1\n      tag_88\n      swap1\n      tag_79\n      jump\t// in\n    tag_88:\n      swap2\n      pop\n      pop\n        /* \"contracts/Market.sol\":2314:2408  for(uint i = 0; i < betsLength; i++){... */\n      jump(tag_83)\n    tag_84:\n      pop\n        /* \"contracts/Market.sol\":2424:2433  _userBets */\n      swap2\n      swap5\n        /* \"contracts/Market.sol\":2090:2440  function getUserBets(address _user) external view override returns(MarketBet[] memory) {... */\n      swap4\n      pop\n      pop\n      pop\n      pop\n      jump\t// out\n        /* \"contracts/Market.sol\":2446:2851  function withdraw(address _addr) public override nonReentrant returns(bool) {... */\n    tag_31:\n        /* \"contracts/Market.sol\":2516:2520  bool */\n      0x00\n        /* \"@openzeppelin/contracts/security/ReentrancyGuard.sol\":1744:1745  2 */\n      0x02\n        /* \"@openzeppelin/contracts/security/ReentrancyGuard.sol\":2325:2332  _status */\n      sload(0x00)\n        /* \"@openzeppelin/contracts/security/ReentrancyGuard.sol\":2325:2344  _status != _ENTERED */\n      eq\n      iszero\n        /* \"@openzeppelin/contracts/security/ReentrancyGuard.sol\":2317:2380  require(_status != _ENTERED, \"ReentrancyGuard: reentrant call\") */\n      tag_90\n      jumpi\n      mload(0x40)\n      shl(0xe5, 0x461bcd)\n      dup2\n      mstore\n        /* \"#utility.yul\":9674:9676   */\n      0x20\n        /* \"@openzeppelin/contracts/security/ReentrancyGuard.sol\":2317:2380  require(_status != _ENTERED, \"ReentrancyGuard: reentrant call\") */\n      0x04\n      dup3\n      add\n        /* \"#utility.yul\":9656:9677   */\n      mstore\n        /* \"#utility.yul\":9713:9715   */\n      0x1f\n        /* \"#utility.yul\":9693:9711   */\n      0x24\n      dup3\n      add\n        /* \"#utility.yul\":9686:9716   */\n      mstore\n        /* \"#utility.yul\":9752:9785   */\n      0x5265656e7472616e637947756172643a207265656e7472616e742063616c6c00\n        /* \"#utility.yul\":9732:9750   */\n      0x44\n      dup3\n      add\n        /* \"#utility.yul\":9725:9786   */\n      mstore\n        /* \"#utility.yul\":9803:9821   */\n      0x64\n      add\n        /* \"@openzeppelin/contracts/security/ReentrancyGuard.sol\":2317:2380  require(_status != _ENTERED, \"ReentrancyGuard: reentrant call\") */\n      tag_76\n        /* \"#utility.yul\":9646:9827   */\n      jump\n        /* \"@openzeppelin/contracts/security/ReentrancyGuard.sol\":2317:2380  require(_status != _ENTERED, \"ReentrancyGuard: reentrant call\") */\n    tag_90:\n        /* \"@openzeppelin/contracts/security/ReentrancyGuard.sol\":1744:1745  2 */\n      0x02\n        /* \"@openzeppelin/contracts/security/ReentrancyGuard.sol\":2455:2462  _status */\n      0x00\n        /* \"@openzeppelin/contracts/security/ReentrancyGuard.sol\":2455:2473  _status = _ENTERED */\n      swap1\n      dup2\n      sstore\n      sub(shl(0xa0, 0x01), 0x01)\n        /* \"contracts/Market.sol\":2554:2564  bal[_addr] */\n      dup4\n      dup2\n      and\n      dup3\n      mstore\n        /* \"contracts/Market.sol\":2554:2557  bal */\n      0x07\n        /* \"contracts/Market.sol\":2554:2564  bal[_addr] */\n      0x20\n      mstore\n      0x40\n      swap2\n      dup3\n      swap1\n      keccak256\n      sload\n        /* \"contracts/Market.sol\":2582:2612  token.balanceOf(address(this)) */\n      swap2\n      mload\n      shl(0xe0, 0x70a08231)\n      dup2\n      mstore\n        /* \"contracts/Market.sol\":2606:2610  this */\n      address\n        /* \"contracts/Market.sol\":2582:2612  token.balanceOf(address(this)) */\n      0x04\n      dup3\n      add\n        /* \"#utility.yul\":3266:3317   */\n      mstore\n        /* \"contracts/Market.sol\":2554:2564  bal[_addr] */\n      dup3\n      swap2\n        /* \"contracts/Market.sol\":2582:2587  token */\n      immutable(\"0xb35cf579f54ccafa8cda334bf8f538b0f7a8230c902d5a84be1ea7996ef7fb49\")\n        /* \"contracts/Market.sol\":2582:2597  token.balanceOf */\n      and\n      swap1\n      0x70a08231\n      swap1\n        /* \"#utility.yul\":3239:3257   */\n      0x24\n      add\n        /* \"contracts/Market.sol\":2582:2612  token.balanceOf(address(this)) */\n      0x20\n      mload(0x40)\n      dup1\n      dup4\n      sub\n      dup2\n      dup7\n      dup1\n      extcodesize\n      iszero\n      dup1\n      iszero\n      tag_96\n      jumpi\n      0x00\n      dup1\n      revert\n    tag_96:\n      pop\n      gas\n      staticcall\n      iszero\n      dup1\n      iszero\n      tag_98\n      jumpi\n      returndatasize\n      0x00\n      dup1\n      returndatacopy\n      revert(0x00, returndatasize)\n    tag_98:\n      pop\n      pop\n      pop\n      pop\n      mload(0x40)\n      returndatasize\n      not(0x1f)\n      0x1f\n      dup3\n      add\n      and\n      dup3\n      add\n      dup1\n      0x40\n      mstore\n      pop\n      dup2\n      add\n      swap1\n      tag_99\n      swap2\n      swap1\n      tag_100\n      jump\t// in\n    tag_99:\n        /* \"contracts/Market.sol\":2582:2627  token.balanceOf(address(this)) >= availAmount */\n      lt\n      iszero\n        /* \"contracts/Market.sol\":2582:2646  token.balanceOf(address(this)) >= availAmount && availAmount > 0 */\n      dup1\n      iszero\n      tag_101\n      jumpi\n      pop\n        /* \"contracts/Market.sol\":2645:2646  0 */\n      0x00\n        /* \"contracts/Market.sol\":2631:2642  availAmount */\n      dup2\n        /* \"contracts/Market.sol\":2631:2646  availAmount > 0 */\n      gt\n        /* \"contracts/Market.sol\":2582:2646  token.balanceOf(address(this)) >= availAmount && availAmount > 0 */\n    tag_101:\n        /* \"contracts/Market.sol\":2574:2653  require(token.balanceOf(address(this)) >= availAmount && availAmount > 0, \"M2\") */\n      tag_102\n      jumpi\n      mload(0x40)\n      shl(0xe5, 0x461bcd)\n      dup2\n      mstore\n        /* \"#utility.yul\":9344:9346   */\n      0x20\n        /* \"contracts/Market.sol\":2574:2653  require(token.balanceOf(address(this)) >= availAmount && availAmount > 0, \"M2\") */\n      0x04\n      dup3\n      add\n        /* \"#utility.yul\":9326:9347   */\n      mstore\n        /* \"#utility.yul\":9383:9384   */\n      0x02\n        /* \"#utility.yul\":9363:9381   */\n      0x24\n      dup3\n      add\n        /* \"#utility.yul\":9356:9385   */\n      mstore\n      shl(0xf1, 0x2699)\n        /* \"#utility.yul\":9401:9419   */\n      0x44\n      dup3\n      add\n        /* \"#utility.yul\":9394:9426   */\n      mstore\n        /* \"#utility.yul\":9443:9461   */\n      0x64\n      add\n        /* \"contracts/Market.sol\":2574:2653  require(token.balanceOf(address(this)) >= availAmount && availAmount > 0, \"M2\") */\n      tag_76\n        /* \"#utility.yul\":9316:9467   */\n      jump\n        /* \"contracts/Market.sol\":2574:2653  require(token.balanceOf(address(this)) >= availAmount && availAmount > 0, \"M2\") */\n    tag_102:\n      sub(shl(0xa0, 0x01), 0x01)\n        /* \"contracts/Market.sol\":2663:2673  bal[_addr] */\n      dup4\n      and\n      0x00\n      swap1\n      dup2\n      mstore\n        /* \"contracts/Market.sol\":2663:2666  bal */\n      0x07\n        /* \"contracts/Market.sol\":2663:2673  bal[_addr] */\n      0x20\n      mstore\n      0x40\n      dup2\n      keccak256\n        /* \"contracts/Market.sol\":2663:2688  bal[_addr] -= availAmount */\n      dup1\n      sload\n        /* \"contracts/Market.sol\":2677:2688  availAmount */\n      dup4\n      swap3\n        /* \"contracts/Market.sol\":2663:2673  bal[_addr] */\n      swap1\n        /* \"contracts/Market.sol\":2663:2688  bal[_addr] -= availAmount */\n      tag_105\n      swap1\n        /* \"contracts/Market.sol\":2677:2688  availAmount */\n      dup5\n      swap1\n        /* \"contracts/Market.sol\":2663:2688  bal[_addr] -= availAmount */\n      tag_106\n      jump\t// in\n    tag_105:\n      swap1\n      swap2\n      sstore\n      pop\n      pop\n        /* \"contracts/Market.sol\":2713:2747  token.transfer(_addr, availAmount) */\n      mload(0x40)\n      shl(0xe0, 0xa9059cbb)\n      dup2\n      mstore\n      sub(shl(0xa0, 0x01), 0x01)\n        /* \"#utility.yul\":4805:4837   */\n      dup5\n      dup2\n      and\n        /* \"contracts/Market.sol\":2713:2747  token.transfer(_addr, availAmount) */\n      0x04\n      dup4\n      add\n        /* \"#utility.yul\":4787:4838   */\n      mstore\n        /* \"#utility.yul\":4854:4872   */\n      0x24\n      dup3\n      add\n        /* \"#utility.yul\":4847:4881   */\n      dup4\n      swap1\n      mstore\n        /* \"contracts/Market.sol\":2698:2710  bool success */\n      0x00\n      swap2\n        /* \"contracts/Market.sol\":2713:2718  token */\n      immutable(\"0xb35cf579f54ccafa8cda334bf8f538b0f7a8230c902d5a84be1ea7996ef7fb49\")\n        /* \"contracts/Market.sol\":2713:2727  token.transfer */\n      swap1\n      swap2\n      and\n      swap1\n      0xa9059cbb\n      swap1\n        /* \"#utility.yul\":4760:4778   */\n      0x44\n      add\n        /* \"contracts/Market.sol\":2713:2747  token.transfer(_addr, availAmount) */\n      0x20\n      mload(0x40)\n      dup1\n      dup4\n      sub\n      dup2\n      0x00\n      dup8\n      dup1\n      extcodesize\n      iszero\n      dup1\n      iszero\n      tag_109\n      jumpi\n      0x00\n      dup1\n      revert\n    tag_109:\n      pop\n      gas\n      call\n      iszero\n      dup1\n      iszero\n      tag_111\n      jumpi\n      returndatasize\n      0x00\n      dup1\n      returndatacopy\n      revert(0x00, returndatasize)\n    tag_111:\n      pop\n      pop\n      pop\n      pop\n      mload(0x40)\n      returndatasize\n      not(0x1f)\n      0x1f\n      dup3\n      add\n      and\n      dup3\n      add\n      dup1\n      0x40\n      mstore\n      pop\n      dup2\n      add\n      swap1\n      tag_112\n      swap2\n      swap1\n      tag_113\n      jump\t// in\n    tag_112:\n        /* \"contracts/Market.sol\":2698:2747  bool success = token.transfer(_addr, availAmount) */\n      swap1\n      pop\n        /* \"contracts/Market.sol\":2765:2772  success */\n      dup1\n        /* \"contracts/Market.sol\":2757:2779  require(success, \"M3\") */\n      tag_114\n      jumpi\n      mload(0x40)\n      shl(0xe5, 0x461bcd)\n      dup2\n      mstore\n        /* \"#utility.yul\":7349:7351   */\n      0x20\n        /* \"contracts/Market.sol\":2757:2779  require(success, \"M3\") */\n      0x04\n      dup3\n      add\n        /* \"#utility.yul\":7331:7352   */\n      mstore\n        /* \"#utility.yul\":7388:7389   */\n      0x02\n        /* \"#utility.yul\":7368:7386   */\n      0x24\n      dup3\n      add\n        /* \"#utility.yul\":7361:7390   */\n      mstore\n      shl(0xf0, 0x4d33)\n        /* \"#utility.yul\":7406:7424   */\n      0x44\n      dup3\n      add\n        /* \"#utility.yul\":7399:7431   */\n      mstore\n        /* \"#utility.yul\":7448:7466   */\n      0x64\n      add\n        /* \"contracts/Market.sol\":2757:2779  require(success, \"M3\") */\n      tag_76\n        /* \"#utility.yul\":7321:7472   */\n      jump\n        /* \"contracts/Market.sol\":2757:2779  require(success, \"M3\") */\n    tag_114:\n        /* \"contracts/Market.sol\":2795:2823  Withdraw(_addr, availAmount) */\n      0x40\n      dup1\n      mload\n      sub(shl(0xa0, 0x01), 0x01)\n        /* \"#utility.yul\":4805:4837   */\n      dup7\n      and\n        /* \"#utility.yul\":4787:4838   */\n      dup2\n      mstore\n        /* \"#utility.yul\":4869:4871   */\n      0x20\n        /* \"#utility.yul\":4854:4872   */\n      dup2\n      add\n        /* \"#utility.yul\":4847:4881   */\n      dup5\n      swap1\n      mstore\n        /* \"contracts/Market.sol\":2795:2823  Withdraw(_addr, availAmount) */\n      0x884edad9ce6fa2440d8a54cc123490eb96d2768479d49ff9c7366125a9424364\n      swap2\n        /* \"#utility.yul\":4760:4778   */\n      add\n        /* \"contracts/Market.sol\":2795:2823  Withdraw(_addr, availAmount) */\n      mload(0x40)\n      dup1\n      swap2\n      sub\n      swap1\n      log1\n        /* \"contracts/Market.sol\":2840:2844  true */\n      0x01\n        /* \"contracts/Market.sol\":2833:2844  return true */\n      swap3\n      pop\n      pop\n      pop\n        /* \"@openzeppelin/contracts/security/ReentrancyGuard.sol\":2484:2485  _ */\n    tag_93:\n        /* \"@openzeppelin/contracts/security/ReentrancyGuard.sol\":1701:1702  1 */\n      0x01\n        /* \"@openzeppelin/contracts/security/ReentrancyGuard.sol\":2628:2635  _status */\n      0x00\n        /* \"@openzeppelin/contracts/security/ReentrancyGuard.sol\":2628:2650  _status = _NOT_ENTERED */\n      sstore\n        /* \"contracts/Market.sol\":2446:2851  function withdraw(address _addr) public override nonReentrant returns(bool) {... */\n      swap2\n      swap1\n      pop\n      jump\t// out\n        /* \"contracts/Market.sol\":4401:4721  function settleBet(bytes32 _bet) external override {... */\n    tag_36:\n        /* \"contracts/Market.sol\":4462:4485  bytes32[] memory _pairs */\n      0x00\n        /* \"contracts/Market.sol\":4488:4502  betPairs[_bet] */\n      dup2\n      dup2\n      mstore\n        /* \"contracts/Market.sol\":4488:4496  betPairs */\n      0x0b\n        /* \"contracts/Market.sol\":4488:4502  betPairs[_bet] */\n      0x20\n      swap1\n      dup2\n      mstore\n      0x40\n      dup1\n      dup4\n      keccak256\n        /* \"contracts/Market.sol\":4462:4502  bytes32[] memory _pairs = betPairs[_bet] */\n      dup1\n      sload\n      dup3\n      mload\n      dup2\n      dup6\n      mul\n      dup2\n      add\n      dup6\n      add\n      swap1\n      swap4\n      mstore\n      dup1\n      dup4\n      mstore\n      swap2\n      swap3\n        /* \"contracts/Market.sol\":4488:4502  betPairs[_bet] */\n      swap1\n      swap2\n        /* \"contracts/Market.sol\":4462:4502  bytes32[] memory _pairs = betPairs[_bet] */\n      swap1\n      dup4\n      add\n        /* \"contracts/Market.sol\":4488:4502  betPairs[_bet] */\n      dup3\n        /* \"contracts/Market.sol\":4462:4502  bytes32[] memory _pairs = betPairs[_bet] */\n      dup3\n      dup1\n      iszero\n      tag_119\n      jumpi\n      0x20\n      mul\n      dup3\n      add\n      swap2\n      swap1\n      0x00\n      mstore\n      keccak256(0x00, 0x20)\n      swap1\n    tag_120:\n      dup2\n      sload\n      dup2\n      mstore\n      0x20\n      add\n      swap1\n      0x01\n      add\n      swap1\n      dup1\n      dup4\n      gt\n      tag_120\n      jumpi\n    tag_119:\n      pop\n      pop\n        /* \"contracts/Market.sol\":4531:4544  _pairs.length */\n      dup4\n      mload\n        /* \"contracts/Market.sol\":4462:4502  bytes32[] memory _pairs = betPairs[_bet] */\n      swap4\n      swap5\n      pop\n        /* \"contracts/Market.sol\":4512:4528  uint pairsLength */\n      0x00\n      swap3\n      pop\n      pop\n      pop\n        /* \"contracts/Market.sol\":4554:4638  for(uint i = 0; i < pairsLength; i++){... */\n    tag_121:\n        /* \"contracts/Market.sol\":4574:4585  pairsLength */\n      dup2\n        /* \"contracts/Market.sol\":4570:4571  i */\n      dup2\n        /* \"contracts/Market.sol\":4570:4585  i < pairsLength */\n      lt\n        /* \"contracts/Market.sol\":4554:4638  for(uint i = 0; i < pairsLength; i++){... */\n      iszero\n      tag_122\n      jumpi\n        /* \"contracts/Market.sol\":4605:4627  _settlePair(_pairs[i]) */\n      tag_124\n        /* \"contracts/Market.sol\":4617:4623  _pairs */\n      dup4\n        /* \"contracts/Market.sol\":4624:4625  i */\n      dup3\n        /* \"contracts/Market.sol\":4617:4626  _pairs[i] */\n      dup2\n      mload\n      dup2\n      lt\n      tag_125\n      jumpi\n      mstore(0x00, shl(0xe0, 0x4e487b71))\n      mstore(0x04, 0x32)\n      revert(0x00, 0x24)\n    tag_125:\n      0x20\n      mul\n      0x20\n      add\n      add\n      mload\n        /* \"contracts/Market.sol\":4605:4616  _settlePair */\n      tag_126\n        /* \"contracts/Market.sol\":4605:4627  _settlePair(_pairs[i]) */\n      jump\t// in\n    tag_124:\n      pop\n        /* \"contracts/Market.sol\":4587:4590  i++ */\n      dup1\n      tag_127\n      dup2\n      tag_79\n      jump\t// in\n    tag_127:\n      swap2\n      pop\n      pop\n        /* \"contracts/Market.sol\":4554:4638  for(uint i = 0; i < pairsLength; i++){... */\n      jump(tag_121)\n    tag_122:\n      pop\n        /* \"contracts/Market.sol\":4654:4664  msg.sender */\n      caller\n        /* \"contracts/Market.sol\":4668:4669  0 */\n      0x00\n        /* \"contracts/Market.sol\":4650:4665  bal[msg.sender] */\n      swap1\n      dup2\n      mstore\n        /* \"contracts/Market.sol\":4650:4653  bal */\n      0x07\n        /* \"contracts/Market.sol\":4650:4665  bal[msg.sender] */\n      0x20\n      mstore\n      0x40\n      swap1\n      keccak256\n      sload\n        /* \"contracts/Market.sol\":4650:4669  bal[msg.sender] > 0 */\n      iszero\n        /* \"contracts/Market.sol\":4647:4715  if(bal[msg.sender] > 0){... */\n      tag_128\n      jumpi\n        /* \"contracts/Market.sol\":4684:4704  withdraw(msg.sender) */\n      tag_129\n        /* \"contracts/Market.sol\":4693:4703  msg.sender */\n      caller\n        /* \"contracts/Market.sol\":4684:4692  withdraw */\n      tag_31\n        /* \"contracts/Market.sol\":4684:4704  withdraw(msg.sender) */\n      jump\t// in\n    tag_129:\n      pop\n        /* \"contracts/Market.sol\":4647:4715  if(bal[msg.sender] > 0){... */\n    tag_128:\n        /* \"contracts/Market.sol\":4401:4721  function settleBet(bytes32 _bet) external override {... */\n      pop\n      pop\n      pop\n      jump\t// out\n        /* \"contracts/Market.sol\":5223:5603  function cancelMarket() external override onlyFactory returns(bool) ... */\n    tag_38:\n        /* \"contracts/Market.sol\":1275:1280  owner */\n      sload(0x01)\n        /* \"contracts/Market.sol\":5285:5289  bool */\n      0x00\n      swap1\n      sub(shl(0xa0, 0x01), 0x01)\n        /* \"contracts/Market.sol\":1275:1280  owner */\n      and\n        /* \"contracts/Market.sol\":1261:1271  msg.sender */\n      caller\n        /* \"contracts/Market.sol\":1261:1280  msg.sender == owner */\n      eq\n      dup1\n        /* \"contracts/Market.sol\":1261:1343  msg.sender == owner ... */\n      tag_131\n      jumpi\n      pop\n        /* \"contracts/Market.sol\":1324:1327  app */\n      immutable(\"0x911a39fbf665a24ad3b6efc185d4b936bbda1900793ae2f7c00f4d18bdd96685\")\n      sub(shl(0xa0, 0x01), 0x01)\n        /* \"contracts/Market.sol\":1324:1341  app.contractOwner */\n      and\n      0xce606ee0\n        /* \"contracts/Market.sol\":1324:1343  app.contractOwner() */\n      mload(0x40)\n      dup2\n      0xffffffff\n      and\n      0xe0\n      shl\n      dup2\n      mstore\n      0x04\n      add\n      0x20\n      mload(0x40)\n      dup1\n      dup4\n      sub\n      dup2\n      dup7\n      dup1\n      extcodesize\n      iszero\n      dup1\n      iszero\n      tag_132\n      jumpi\n      0x00\n      dup1\n      revert\n    tag_132:\n      pop\n      gas\n      staticcall\n      iszero\n      dup1\n      iszero\n      tag_134\n      jumpi\n      returndatasize\n      0x00\n      dup1\n      returndatacopy\n      revert(0x00, returndatasize)\n    tag_134:\n      pop\n      pop\n      pop\n      pop\n      mload(0x40)\n      returndatasize\n      not(0x1f)\n      0x1f\n      dup3\n      add\n      and\n      dup3\n      add\n      dup1\n      0x40\n      mstore\n      pop\n      dup2\n      add\n      swap1\n      tag_135\n      swap2\n      swap1\n      tag_136\n      jump\t// in\n    tag_135:\n      sub(shl(0xa0, 0x01), 0x01)\n        /* \"contracts/Market.sol\":1310:1343  msg.sender == app.contractOwner() */\n      and\n        /* \"contracts/Market.sol\":1310:1320  msg.sender */\n      caller\n      sub(shl(0xa0, 0x01), 0x01)\n        /* \"contracts/Market.sol\":1310:1343  msg.sender == app.contractOwner() */\n      and\n      eq\n        /* \"contracts/Market.sol\":1261:1343  msg.sender == owner ... */\n    tag_131:\n        /* \"contracts/Market.sol\":1261:1392  msg.sender == owner ... */\n      dup1\n      tag_137\n      jumpi\n      pop\n        /* \"contracts/Market.sol\":1385:1392  factory */\n      and(sub(shl(0xa0, 0x01), 0x01), sload(0x02))\n        /* \"contracts/Market.sol\":1371:1381  msg.sender */\n      caller\n        /* \"contracts/Market.sol\":1371:1392  msg.sender == factory */\n      eq\n        /* \"contracts/Market.sol\":1261:1392  msg.sender == owner ... */\n    tag_137:\n        /* \"contracts/Market.sol\":1240:1420  require(... */\n      tag_138\n      jumpi\n      mload(0x40)\n      shl(0xe5, 0x461bcd)\n      dup2\n      mstore\n      0x04\n      add\n      tag_76\n      swap1\n      tag_140\n      jump\t// in\n    tag_138:\n        /* \"contracts/Market.sol\":5310:5316  status */\n      sload(0x03)\n        /* \"contracts/Market.sol\":5310:5321  status == 0 */\n      iszero\n      dup1\n        /* \"contracts/Market.sol\":5310:5336  status == 0 || status == 4 */\n      tag_142\n      jumpi\n      pop\n        /* \"contracts/Market.sol\":5325:5331  status */\n      sload(0x03)\n        /* \"contracts/Market.sol\":5335:5336  4 */\n      0x04\n        /* \"contracts/Market.sol\":5325:5336  status == 4 */\n      eq\n        /* \"contracts/Market.sol\":5310:5336  status == 0 || status == 4 */\n    tag_142:\n        /* \"contracts/Market.sol\":5307:5597  if(status == 0 || status == 4){... */\n      iszero\n      tag_143\n      jumpi\n        /* \"contracts/Market.sol\":5370:5375  pairs */\n      0x04\n        /* \"contracts/Market.sol\":5370:5382  pairs.length */\n      sload\n        /* \"contracts/Market.sol\":5351:5367  uint pairsLength */\n      0x00\n        /* \"contracts/Market.sol\":5396:5487  for(uint i = 0; i < pairsLength; i++){... */\n    tag_144:\n        /* \"contracts/Market.sol\":5416:5427  pairsLength */\n      dup2\n        /* \"contracts/Market.sol\":5412:5413  i */\n      dup2\n        /* \"contracts/Market.sol\":5412:5427  i < pairsLength */\n      lt\n        /* \"contracts/Market.sol\":5396:5487  for(uint i = 0; i < pairsLength; i++){... */\n      iszero\n      tag_145\n      jumpi\n        /* \"contracts/Market.sol\":5451:5472  _cancelPair(pairs[i]) */\n      tag_147\n        /* \"contracts/Market.sol\":5463:5468  pairs */\n      0x04\n        /* \"contracts/Market.sol\":5469:5470  i */\n      dup3\n        /* \"contracts/Market.sol\":5463:5471  pairs[i] */\n      dup2\n      sload\n      dup2\n      lt\n      tag_148\n      jumpi\n      mstore(0x00, shl(0xe0, 0x4e487b71))\n      mstore(0x04, 0x32)\n      revert(0x00, 0x24)\n    tag_148:\n      swap1\n      0x00\n      mstore\n      keccak256(0x00, 0x20)\n      add\n      sload\n        /* \"contracts/Market.sol\":5451:5462  _cancelPair */\n      tag_150\n        /* \"contracts/Market.sol\":5451:5472  _cancelPair(pairs[i]) */\n      jump\t// in\n    tag_147:\n        /* \"contracts/Market.sol\":5429:5432  i++ */\n      dup1\n      tag_151\n      dup2\n      tag_79\n      jump\t// in\n    tag_151:\n      swap2\n      pop\n      pop\n        /* \"contracts/Market.sol\":5396:5487  for(uint i = 0; i < pairsLength; i++){... */\n      jump(tag_144)\n    tag_145:\n      pop\n      pop\n        /* \"contracts/Market.sol\":5509:5510  3 */\n      0x03\n        /* \"contracts/Market.sol\":5500:5510  status = 3 */\n      dup1\n      sstore\n      pop\n        /* \"contracts/Market.sol\":5531:5535  true */\n      0x01\n        /* \"contracts/Market.sol\":5223:5603  function cancelMarket() external override onlyFactory returns(bool) ... */\n      swap1\n      jump\t// out\n        /* \"contracts/Market.sol\":5307:5597  if(status == 0 || status == 4){... */\n    tag_143:\n      pop\n        /* \"contracts/Market.sol\":5581:5586  false */\n      0x00\n        /* \"contracts/Market.sol\":5223:5603  function cancelMarket() external override onlyFactory returns(bool) ... */\n      swap1\n      jump\t// out\n        /* \"contracts/Market.sol\":5817:10021  function addBet(... */\n    tag_43:\n        /* \"contracts/Market.sol\":6056:6079  app.isBlack(msg.sender) */\n      mload(0x40)\n      shl(0xe0, 0x332daccf)\n      dup2\n      mstore\n        /* \"contracts/Market.sol\":6068:6078  msg.sender */\n      caller\n        /* \"contracts/Market.sol\":6056:6079  app.isBlack(msg.sender) */\n      0x04\n      dup3\n      add\n        /* \"#utility.yul\":3266:3317   */\n      mstore\n        /* \"contracts/Market.sol\":6024:6031  bytes32 */\n      0x00\n      swap1\n        /* \"contracts/Market.sol\":6056:6059  app */\n      immutable(\"0x911a39fbf665a24ad3b6efc185d4b936bbda1900793ae2f7c00f4d18bdd96685\")\n      sub(shl(0xa0, 0x01), 0x01)\n        /* \"contracts/Market.sol\":6056:6067  app.isBlack */\n      and\n      swap1\n      0x332daccf\n      swap1\n        /* \"#utility.yul\":3239:3257   */\n      0x24\n      add\n        /* \"contracts/Market.sol\":6056:6079  app.isBlack(msg.sender) */\n      0x20\n      mload(0x40)\n      dup1\n      dup4\n      sub\n      dup2\n      dup7\n      dup1\n      extcodesize\n      iszero\n      dup1\n      iszero\n      tag_155\n      jumpi\n      0x00\n      dup1\n      revert\n    tag_155:\n      pop\n      gas\n      staticcall\n      iszero\n      dup1\n      iszero\n      tag_157\n      jumpi\n      returndatasize\n      0x00\n      dup1\n      returndatacopy\n      revert(0x00, returndatasize)\n    tag_157:\n      pop\n      pop\n      pop\n      pop\n      mload(0x40)\n      returndatasize\n      not(0x1f)\n      0x1f\n      dup3\n      add\n      and\n      dup3\n      add\n      dup1\n      0x40\n      mstore\n      pop\n      dup2\n      add\n      swap1\n      tag_158\n      swap2\n      swap1\n      tag_113\n      jump\t// in\n    tag_158:\n        /* \"contracts/Market.sol\":6055:6079  !app.isBlack(msg.sender) */\n      iszero\n        /* \"contracts/Market.sol\":6055:6094  !app.isBlack(msg.sender) && status == 0 */\n      dup1\n      iszero\n      tag_159\n      jumpi\n      pop\n        /* \"contracts/Market.sol\":6083:6089  status */\n      sload(0x03)\n        /* \"contracts/Market.sol\":6083:6094  status == 0 */\n      iszero\n        /* \"contracts/Market.sol\":6055:6094  !app.isBlack(msg.sender) && status == 0 */\n    tag_159:\n        /* \"contracts/Market.sol\":6047:6101  require(!app.isBlack(msg.sender) && status == 0, \"M8\") */\n      tag_160\n      jumpi\n      mload(0x40)\n      shl(0xe5, 0x461bcd)\n      dup2\n      mstore\n        /* \"#utility.yul\":7019:7021   */\n      0x20\n        /* \"contracts/Market.sol\":6047:6101  require(!app.isBlack(msg.sender) && status == 0, \"M8\") */\n      0x04\n      dup3\n      add\n        /* \"#utility.yul\":7001:7022   */\n      mstore\n        /* \"#utility.yul\":7058:7059   */\n      0x02\n        /* \"#utility.yul\":7038:7056   */\n      0x24\n      dup3\n      add\n        /* \"#utility.yul\":7031:7060   */\n      mstore\n      shl(0xf3, 0x09a7)\n        /* \"#utility.yul\":7076:7094   */\n      0x44\n      dup3\n      add\n        /* \"#utility.yul\":7069:7101   */\n      mstore\n        /* \"#utility.yul\":7118:7136   */\n      0x64\n      add\n        /* \"contracts/Market.sol\":6047:6101  require(!app.isBlack(msg.sender) && status == 0, \"M8\") */\n      tag_76\n        /* \"#utility.yul\":6991:7142   */\n      jump\n        /* \"contracts/Market.sol\":6047:6101  require(!app.isBlack(msg.sender) && status == 0, \"M8\") */\n    tag_160:\n        /* \"contracts/Market.sol\":6119:6124  _side */\n      dup3\n        /* \"contracts/Market.sol\":6128:6129  1 */\n      0x01\n        /* \"contracts/Market.sol\":6119:6129  _side == 1 */\n      eq\n        /* \"contracts/Market.sol\":6119:6143  _side == 1 || _side == 2 */\n      dup1\n      tag_163\n      jumpi\n      pop\n        /* \"contracts/Market.sol\":6133:6138  _side */\n      dup3\n        /* \"contracts/Market.sol\":6142:6143  2 */\n      0x02\n        /* \"contracts/Market.sol\":6133:6143  _side == 2 */\n      eq\n        /* \"contracts/Market.sol\":6119:6143  _side == 1 || _side == 2 */\n    tag_163:\n        /* \"contracts/Market.sol\":6111:6150  require(_side == 1 || _side == 2, \"M9\") */\n      tag_164\n      jumpi\n      mload(0x40)\n      shl(0xe5, 0x461bcd)\n      dup2\n      mstore\n        /* \"#utility.yul\":7679:7681   */\n      0x20\n        /* \"contracts/Market.sol\":6111:6150  require(_side == 1 || _side == 2, \"M9\") */\n      0x04\n      dup3\n      add\n        /* \"#utility.yul\":7661:7682   */\n      mstore\n        /* \"#utility.yul\":7718:7719   */\n      0x02\n        /* \"#utility.yul\":7698:7716   */\n      0x24\n      dup3\n      add\n        /* \"#utility.yul\":7691:7720   */\n      mstore\n      shl(0xf0, 0x4d39)\n        /* \"#utility.yul\":7736:7754   */\n      0x44\n      dup3\n      add\n        /* \"#utility.yul\":7729:7761   */\n      mstore\n        /* \"#utility.yul\":7778:7796   */\n      0x64\n      add\n        /* \"contracts/Market.sol\":6111:6150  require(_side == 1 || _side == 2, \"M9\") */\n      tag_76\n        /* \"#utility.yul\":7651:7802   */\n      jump\n        /* \"contracts/Market.sol\":6111:6150  require(_side == 1 || _side == 2, \"M9\") */\n    tag_164:\n        /* \"contracts/Market.sol\":6168:6210  token.allowance(msg.sender, address(this)) */\n      mload(0x40)\n      shl(0xe1, 0x6eb1769f)\n      dup2\n      mstore\n        /* \"contracts/Market.sol\":6184:6194  msg.sender */\n      caller\n        /* \"contracts/Market.sol\":6168:6210  token.allowance(msg.sender, address(this)) */\n      0x04\n      dup3\n      add\n        /* \"#utility.yul\":3540:3574   */\n      mstore\n        /* \"contracts/Market.sol\":6204:6208  this */\n      address\n        /* \"#utility.yul\":3590:3608   */\n      0x24\n      dup3\n      add\n        /* \"#utility.yul\":3583:3626   */\n      mstore\n        /* \"contracts/Market.sol\":6214:6220  _stake */\n      dup6\n      swap1\n        /* \"contracts/Market.sol\":6168:6173  token */\n      immutable(\"0xb35cf579f54ccafa8cda334bf8f538b0f7a8230c902d5a84be1ea7996ef7fb49\")\n      sub(shl(0xa0, 0x01), 0x01)\n        /* \"contracts/Market.sol\":6168:6183  token.allowance */\n      and\n      swap1\n      0xdd62ed3e\n      swap1\n        /* \"#utility.yul\":3475:3493   */\n      0x44\n      add\n        /* \"contracts/Market.sol\":6168:6210  token.allowance(msg.sender, address(this)) */\n      0x20\n      mload(0x40)\n      dup1\n      dup4\n      sub\n      dup2\n      dup7\n      dup1\n      extcodesize\n      iszero\n      dup1\n      iszero\n      tag_169\n      jumpi\n      0x00\n      dup1\n      revert\n    tag_169:\n      pop\n      gas\n      staticcall\n      iszero\n      dup1\n      iszero\n      tag_171\n      jumpi\n      returndatasize\n      0x00\n      dup1\n      returndatacopy\n      revert(0x00, returndatasize)\n    tag_171:\n      pop\n      pop\n      pop\n      pop\n      mload(0x40)\n      returndatasize\n      not(0x1f)\n      0x1f\n      dup3\n      add\n      and\n      dup3\n      add\n      dup1\n      0x40\n      mstore\n      pop\n      dup2\n      add\n      swap1\n      tag_172\n      swap2\n      swap1\n      tag_100\n      jump\t// in\n    tag_172:\n        /* \"contracts/Market.sol\":6168:6220  token.allowance(msg.sender, address(this)) >= _stake */\n      lt\n      iszero\n        /* \"contracts/Market.sol\":6168:6248  token.allowance(msg.sender, address(this)) >= _stake && _stake >= app.minStake() */\n      dup1\n      iszero\n      tag_173\n      jumpi\n      pop\n        /* \"contracts/Market.sol\":6234:6237  app */\n      immutable(\"0x911a39fbf665a24ad3b6efc185d4b936bbda1900793ae2f7c00f4d18bdd96685\")\n      sub(shl(0xa0, 0x01), 0x01)\n        /* \"contracts/Market.sol\":6234:6246  app.minStake */\n      and\n      0x375b3c0a\n        /* \"contracts/Market.sol\":6234:6248  app.minStake() */\n      mload(0x40)\n      dup2\n      0xffffffff\n      and\n      0xe0\n      shl\n      dup2\n      mstore\n      0x04\n      add\n      0x20\n      mload(0x40)\n      dup1\n      dup4\n      sub\n      dup2\n      dup7\n      dup1\n      extcodesize\n      iszero\n      dup1\n      iszero\n      tag_174\n      jumpi\n      0x00\n      dup1\n      revert\n    tag_174:\n      pop\n      gas\n      staticcall\n      iszero\n      dup1\n      iszero\n      tag_176\n      jumpi\n      returndatasize\n      0x00\n      dup1\n      returndatacopy\n      revert(0x00, returndatasize)\n    tag_176:\n      pop\n      pop\n      pop\n      pop\n      mload(0x40)\n      returndatasize\n      not(0x1f)\n      0x1f\n      dup3\n      add\n      and\n      dup3\n      add\n      dup1\n      0x40\n      mstore\n      pop\n      dup2\n      add\n      swap1\n      tag_177\n      swap2\n      swap1\n      tag_100\n      jump\t// in\n    tag_177:\n        /* \"contracts/Market.sol\":6224:6230  _stake */\n      dup6\n        /* \"contracts/Market.sol\":6224:6248  _stake >= app.minStake() */\n      lt\n      iszero\n        /* \"contracts/Market.sol\":6168:6248  token.allowance(msg.sender, address(this)) >= _stake && _stake >= app.minStake() */\n    tag_173:\n        /* \"contracts/Market.sol\":6160:6256  require(token.allowance(msg.sender, address(this)) >= _stake && _stake >= app.minStake(), \"M10\") */\n      tag_178\n      jumpi\n      mload(0x40)\n      shl(0xe5, 0x461bcd)\n      dup2\n      mstore\n        /* \"#utility.yul\":8009:8011   */\n      0x20\n        /* \"contracts/Market.sol\":6160:6256  require(token.allowance(msg.sender, address(this)) >= _stake && _stake >= app.minStake(), \"M10\") */\n      0x04\n      dup3\n      add\n        /* \"#utility.yul\":7991:8012   */\n      mstore\n        /* \"#utility.yul\":8048:8049   */\n      0x03\n        /* \"#utility.yul\":8028:8046   */\n      0x24\n      dup3\n      add\n        /* \"#utility.yul\":8021:8050   */\n      mstore\n      shl(0xec, 0x04d313)\n        /* \"#utility.yul\":8066:8084   */\n      0x44\n      dup3\n      add\n        /* \"#utility.yul\":8059:8092   */\n      mstore\n        /* \"#utility.yul\":8109:8127   */\n      0x64\n      add\n        /* \"contracts/Market.sol\":6160:6256  require(token.allowance(msg.sender, address(this)) >= _stake && _stake >= app.minStake(), \"M10\") */\n      tag_76\n        /* \"#utility.yul\":7981:8133   */\n      jump\n        /* \"contracts/Market.sol\":6160:6256  require(token.allowance(msg.sender, address(this)) >= _stake && _stake >= app.minStake(), \"M10\") */\n    tag_178:\n        /* \"contracts/Market.sol\":6274:6327  token.transferFrom(msg.sender, address(this), _stake) */\n      mload(0x40)\n      shl(0xe0, 0x23b872dd)\n      dup2\n      mstore\n        /* \"contracts/Market.sol\":6293:6303  msg.sender */\n      caller\n        /* \"contracts/Market.sol\":6274:6327  token.transferFrom(msg.sender, address(this), _stake) */\n      0x04\n      dup3\n      add\n        /* \"#utility.yul\":4473:4507   */\n      mstore\n        /* \"contracts/Market.sol\":6313:6317  this */\n      address\n        /* \"#utility.yul\":4523:4541   */\n      0x24\n      dup3\n      add\n        /* \"#utility.yul\":4516:4559   */\n      mstore\n        /* \"#utility.yul\":4575:4593   */\n      0x44\n      dup2\n      add\n        /* \"#utility.yul\":4568:4602   */\n      dup7\n      swap1\n      mstore\n        /* \"contracts/Market.sol\":6274:6279  token */\n      immutable(\"0xb35cf579f54ccafa8cda334bf8f538b0f7a8230c902d5a84be1ea7996ef7fb49\")\n      sub(shl(0xa0, 0x01), 0x01)\n        /* \"contracts/Market.sol\":6274:6292  token.transferFrom */\n      and\n      swap1\n      0x23b872dd\n      swap1\n        /* \"#utility.yul\":4408:4426   */\n      0x64\n      add\n        /* \"contracts/Market.sol\":6274:6327  token.transferFrom(msg.sender, address(this), _stake) */\n      0x20\n      mload(0x40)\n      dup1\n      dup4\n      sub\n      dup2\n      0x00\n      dup8\n      dup1\n      extcodesize\n      iszero\n      dup1\n      iszero\n      tag_183\n      jumpi\n      0x00\n      dup1\n      revert\n    tag_183:\n      pop\n      gas\n      call\n      iszero\n      dup1\n      iszero\n      tag_185\n      jumpi\n      returndatasize\n      0x00\n      dup1\n      returndatacopy\n      revert(0x00, returndatasize)\n    tag_185:\n      pop\n      pop\n      pop\n      pop\n      mload(0x40)\n      returndatasize\n      not(0x1f)\n      0x1f\n      dup3\n      add\n      and\n      dup3\n      add\n      dup1\n      0x40\n      mstore\n      pop\n      dup2\n      add\n      swap1\n      tag_186\n      swap2\n      swap1\n      tag_113\n      jump\t// in\n    tag_186:\n        /* \"contracts/Market.sol\":6266:6335  require(token.transferFrom(msg.sender, address(this), _stake), \"M11\") */\n      tag_187\n      jumpi\n      mload(0x40)\n      shl(0xe5, 0x461bcd)\n      dup2\n      mstore\n        /* \"#utility.yul\":10034:10036   */\n      0x20\n        /* \"contracts/Market.sol\":6266:6335  require(token.transferFrom(msg.sender, address(this), _stake), \"M11\") */\n      0x04\n      dup3\n      add\n        /* \"#utility.yul\":10016:10037   */\n      mstore\n        /* \"#utility.yul\":10073:10074   */\n      0x03\n        /* \"#utility.yul\":10053:10071   */\n      0x24\n      dup3\n      add\n        /* \"#utility.yul\":10046:10075   */\n      mstore\n      shl(0xe8, 0x4d3131)\n        /* \"#utility.yul\":10091:10109   */\n      0x44\n      dup3\n      add\n        /* \"#utility.yul\":10084:10117   */\n      mstore\n        /* \"#utility.yul\":10134:10152   */\n      0x64\n      add\n        /* \"contracts/Market.sol\":6266:6335  require(token.transferFrom(msg.sender, address(this), _stake), \"M11\") */\n      tag_76\n        /* \"#utility.yul\":10006:10158   */\n      jump\n        /* \"contracts/Market.sol\":6266:6335  require(token.transferFrom(msg.sender, address(this), _stake), \"M11\") */\n    tag_187:\n        /* \"contracts/Market.sol\":6345:6360  bytes32 betHash */\n      0x00\n        /* \"contracts/Market.sol\":6363:6443  _createBet(_better, _affiliate, _stake, 0, (_odds * 100) / (_odds - 100), _side) */\n      tag_190\n        /* \"contracts/Market.sol\":6374:6381  _better */\n      dup9\n        /* \"contracts/Market.sol\":6383:6393  _affiliate */\n      dup9\n        /* \"contracts/Market.sol\":6395:6401  _stake */\n      dup9\n        /* \"contracts/Market.sol\":6345:6360  bytes32 betHash */\n      dup5\n        /* \"contracts/Market.sol\":6423:6434  _odds - 100 */\n      tag_191\n        /* \"contracts/Market.sol\":6431:6434  100 */\n      0x64\n        /* \"contracts/Market.sol\":6423:6428  _odds */\n      dup12\n        /* \"contracts/Market.sol\":6423:6434  _odds - 100 */\n      tag_106\n      jump\t// in\n    tag_191:\n        /* \"contracts/Market.sol\":6407:6418  _odds * 100 */\n      tag_192\n        /* \"contracts/Market.sol\":6407:6412  _odds */\n      dup12\n        /* \"contracts/Market.sol\":6415:6418  100 */\n      0x64\n        /* \"contracts/Market.sol\":6407:6418  _odds * 100 */\n      tag_193\n      jump\t// in\n    tag_192:\n        /* \"contracts/Market.sol\":6406:6435  (_odds * 100) / (_odds - 100) */\n      tag_194\n      swap2\n      swap1\n      tag_195\n      jump\t// in\n    tag_194:\n        /* \"contracts/Market.sol\":6437:6442  _side */\n      dup10\n        /* \"contracts/Market.sol\":6363:6373  _createBet */\n      tag_196\n        /* \"contracts/Market.sol\":6363:6443  _createBet(_better, _affiliate, _stake, 0, (_odds * 100) / (_odds - 100), _side) */\n      jump\t// in\n    tag_190:\n        /* \"contracts/Market.sol\":6675:6686  pendingBets */\n      0x06\n        /* \"contracts/Market.sol\":6675:6693  pendingBets.length */\n      sload\n        /* \"contracts/Market.sol\":6345:6443  bytes32 betHash = _createBet(_better, _affiliate, _stake, 0, (_odds * 100) / (_odds - 100), _side) */\n      swap1\n      swap2\n      pop\n        /* \"contracts/Market.sol\":6675:6697  pendingBets.length > 0 */\n      iszero\n        /* \"contracts/Market.sol\":6672:9908  if(pendingBets.length > 0){... */\n      tag_197\n      jumpi\n        /* \"contracts/Market.sol\":6729:6735  _stake */\n      dup6\n        /* \"contracts/Market.sol\":6749:9834  while(_remStake >= app.minStake()){... */\n    tag_198:\n        /* \"contracts/Market.sol\":6768:6771  app */\n      immutable(\"0x911a39fbf665a24ad3b6efc185d4b936bbda1900793ae2f7c00f4d18bdd96685\")\n      sub(shl(0xa0, 0x01), 0x01)\n        /* \"contracts/Market.sol\":6768:6780  app.minStake */\n      and\n      0x375b3c0a\n        /* \"contracts/Market.sol\":6768:6782  app.minStake() */\n      mload(0x40)\n      dup2\n      0xffffffff\n      and\n      0xe0\n      shl\n      dup2\n      mstore\n      0x04\n      add\n      0x20\n      mload(0x40)\n      dup1\n      dup4\n      sub\n      dup2\n      dup7\n      dup1\n      extcodesize\n      iszero\n      dup1\n      iszero\n      tag_200\n      jumpi\n      0x00\n      dup1\n      revert\n    tag_200:\n      pop\n      gas\n      staticcall\n      iszero\n      dup1\n      iszero\n      tag_202\n      jumpi\n      returndatasize\n      0x00\n      dup1\n      returndatacopy\n      revert(0x00, returndatasize)\n    tag_202:\n      pop\n      pop\n      pop\n      pop\n      mload(0x40)\n      returndatasize\n      not(0x1f)\n      0x1f\n      dup3\n      add\n      and\n      dup3\n      add\n      dup1\n      0x40\n      mstore\n      pop\n      dup2\n      add\n      swap1\n      tag_203\n      swap2\n      swap1\n      tag_100\n      jump\t// in\n    tag_203:\n        /* \"contracts/Market.sol\":6755:6764  _remStake */\n      dup2\n        /* \"contracts/Market.sol\":6755:6782  _remStake >= app.minStake() */\n      lt\n        /* \"contracts/Market.sol\":6749:9834  while(_remStake >= app.minStake()){... */\n      tag_199\n      jumpi\n        /* \"contracts/Market.sol\":6801:6819  uint selectedIndex */\n      0x00\n        /* \"contracts/Market.sol\":6841:6856  uint256 maxOdds */\n      dup1\n        /* \"contracts/Market.sol\":6882:6888  uint i */\n      0x00\n        /* \"contracts/Market.sol\":6878:7275  for(uint i = 0; i < pendingBets.length; i++){... */\n    tag_204:\n        /* \"contracts/Market.sol\":6898:6909  pendingBets */\n      0x06\n        /* \"contracts/Market.sol\":6898:6916  pendingBets.length */\n      sload\n        /* \"contracts/Market.sol\":6894:6916  i < pendingBets.length */\n      dup2\n      lt\n        /* \"contracts/Market.sol\":6878:7275  for(uint i = 0; i < pendingBets.length; i++){... */\n      iszero\n      tag_205\n      jumpi\n        /* \"contracts/Market.sol\":6944:6956  bytes32 pBet */\n      0x00\n        /* \"contracts/Market.sol\":6959:6970  pendingBets */\n      0x06\n        /* \"contracts/Market.sol\":6971:6972  i */\n      dup3\n        /* \"contracts/Market.sol\":6959:6973  pendingBets[i] */\n      dup2\n      sload\n      dup2\n      lt\n      tag_207\n      jumpi\n      mstore(0x00, shl(0xe0, 0x4e487b71))\n      mstore(0x04, 0x32)\n      revert(0x00, 0x24)\n    tag_207:\n      swap1\n      0x00\n      mstore\n      keccak256(0x00, 0x20)\n      add\n      sload\n        /* \"contracts/Market.sol\":6944:6973  bytes32 pBet = pendingBets[i] */\n      swap1\n      pop\n        /* \"contracts/Market.sol\":7007:7015  betsInfo */\n      0x08\n        /* \"contracts/Market.sol\":7007:7021  betsInfo[pBet] */\n      0x00\n        /* \"contracts/Market.sol\":7016:7020  pBet */\n      dup3\n        /* \"contracts/Market.sol\":7007:7021  betsInfo[pBet] */\n      dup2\n      mstore\n      0x20\n      add\n      swap1\n      dup2\n      mstore\n      0x20\n      add\n      0x00\n      keccak256\n        /* \"contracts/Market.sol\":7007:7026  betsInfo[pBet].side */\n      0x05\n      add\n      sload\n        /* \"contracts/Market.sol\":6998:7003  _side */\n      dup10\n        /* \"contracts/Market.sol\":6998:7026  _side == betsInfo[pBet].side */\n      eq\n        /* \"contracts/Market.sol\":6995:7084  if(_side == betsInfo[pBet].side){... */\n      iszero\n      tag_209\n      jumpi\n        /* \"contracts/Market.sol\":7053:7061  continue */\n      pop\n      jump(tag_206)\n        /* \"contracts/Market.sol\":6995:7084  if(_side == betsInfo[pBet].side){... */\n    tag_209:\n        /* \"contracts/Market.sol\":7108:7122  betsInfo[pBet] */\n      0x00\n      dup2\n      dup2\n      mstore\n        /* \"contracts/Market.sol\":7108:7116  betsInfo */\n      0x08\n        /* \"contracts/Market.sol\":7108:7122  betsInfo[pBet] */\n      0x20\n      mstore\n      0x40\n      swap1\n      keccak256\n        /* \"contracts/Market.sol\":7108:7127  betsInfo[pBet].odds */\n      0x04\n      add\n      sload\n        /* \"contracts/Market.sol\":7108:7135  betsInfo[pBet].odds>maxOdds */\n      dup4\n      lt\n        /* \"contracts/Market.sol\":7105:7257  if(betsInfo[pBet].odds>maxOdds){... */\n      iszero\n      tag_210\n      jumpi\n        /* \"contracts/Market.sol\":7172:7186  betsInfo[pBet] */\n      0x00\n      dup2\n      dup2\n      mstore\n        /* \"contracts/Market.sol\":7172:7180  betsInfo */\n      0x08\n        /* \"contracts/Market.sol\":7172:7186  betsInfo[pBet] */\n      0x20\n      mstore\n      0x40\n      swap1\n      keccak256\n        /* \"contracts/Market.sol\":7172:7191  betsInfo[pBet].odds */\n      0x04\n      add\n      sload\n        /* \"contracts/Market.sol\":7233:7234  i */\n      swap2\n      swap4\n      pop\n        /* \"contracts/Market.sol\":7172:7191  betsInfo[pBet].odds */\n      swap1\n      swap2\n      pop\n        /* \"contracts/Market.sol\":7233:7234  i */\n      dup3\n      swap1\n        /* \"contracts/Market.sol\":7105:7257  if(betsInfo[pBet].odds>maxOdds){... */\n    tag_210:\n        /* \"contracts/Market.sol\":6878:7275  for(uint i = 0; i < pendingBets.length; i++){... */\n      pop\n    tag_206:\n        /* \"contracts/Market.sol\":6918:6921  i++ */\n      dup1\n      tag_211\n      dup2\n      tag_79\n      jump\t// in\n    tag_211:\n      swap2\n      pop\n      pop\n        /* \"contracts/Market.sol\":6878:7275  for(uint i = 0; i < pendingBets.length; i++){... */\n      jump(tag_204)\n    tag_205:\n      pop\n        /* \"contracts/Market.sol\":7305:7310  _odds */\n      dup8\n        /* \"contracts/Market.sol\":7295:7302  maxOdds */\n      dup2\n        /* \"contracts/Market.sol\":7295:7310  maxOdds > _odds */\n      gt\n        /* \"contracts/Market.sol\":7295:7339  maxOdds > _odds || (maxOdds > 0 && _instant) */\n      dup1\n      tag_213\n      jumpi\n      pop\n        /* \"contracts/Market.sol\":7325:7326  0 */\n      0x00\n        /* \"contracts/Market.sol\":7315:7322  maxOdds */\n      dup2\n        /* \"contracts/Market.sol\":7315:7326  maxOdds > 0 */\n      gt\n        /* \"contracts/Market.sol\":7315:7338  maxOdds > 0 && _instant */\n      dup1\n      iszero\n      tag_213\n      jumpi\n      pop\n        /* \"contracts/Market.sol\":7330:7338  _instant */\n      dup6\n        /* \"contracts/Market.sol\":7315:7338  maxOdds > 0 && _instant */\n    tag_213:\n        /* \"contracts/Market.sol\":7292:9820  if(maxOdds > _odds || (maxOdds > 0 && _instant)) {... */\n      iszero\n      tag_214\n      jumpi\n        /* \"contracts/Market.sol\":7363:7383  bytes32 selectedHash */\n      0x00\n        /* \"contracts/Market.sol\":7386:7397  pendingBets */\n      0x06\n        /* \"contracts/Market.sol\":7398:7411  selectedIndex */\n      dup4\n        /* \"contracts/Market.sol\":7386:7412  pendingBets[selectedIndex] */\n      dup2\n      sload\n      dup2\n      lt\n      tag_215\n      jumpi\n      mstore(0x00, shl(0xe0, 0x4e487b71))\n      mstore(0x04, 0x32)\n      revert(0x00, 0x24)\n    tag_215:\n      0x00\n      swap2\n      dup3\n      mstore\n      0x20\n      dup1\n      dup4\n      keccak256\n      swap1\n      swap2\n      add\n      sload\n        /* \"contracts/Market.sol\":7465:7487  betsInfo[selectedHash] */\n      dup1\n      dup4\n      mstore\n        /* \"contracts/Market.sol\":7465:7473  betsInfo */\n      0x08\n        /* \"contracts/Market.sol\":7465:7487  betsInfo[selectedHash] */\n      dup3\n      mstore\n      0x40\n      dup1\n      dup5\n      keccak256\n        /* \"contracts/Market.sol\":7434:7487  MarketBet memory selectedBet = betsInfo[selectedHash] */\n      dup2\n      mload\n      0xc0\n      dup2\n      add\n      dup4\n      mstore\n      dup2\n      sload\n      sub(shl(0xa0, 0x01), 0x01)\n      swap1\n      dup2\n      and\n      dup3\n      mstore\n      0x01\n      dup4\n      add\n      sload\n      and\n      swap5\n      dup2\n      add\n      swap5\n      swap1\n      swap5\n      mstore\n      0x02\n      dup2\n      add\n      sload\n      swap2\n      dup5\n      add\n      swap2\n      swap1\n      swap2\n      mstore\n      0x03\n      dup2\n      add\n      sload\n      0x60\n      dup5\n      add\n      mstore\n      0x04\n      dup2\n      add\n      sload\n      0x80\n      dup5\n      add\n      mstore\n      0x05\n      add\n      sload\n      0xa0\n      dup4\n      add\n      mstore\n        /* \"contracts/Market.sol\":7386:7412  pendingBets[selectedIndex] */\n      swap3\n      pop\n        /* \"contracts/Market.sol\":7434:7487  MarketBet memory selectedBet = betsInfo[selectedHash] */\n      swap1\n        /* \"contracts/Market.sol\":7574:7585  _odds - 100 */\n      tag_217\n        /* \"contracts/Market.sol\":7582:7585  100 */\n      0x64\n        /* \"contracts/Market.sol\":7574:7579  _odds */\n      dup13\n        /* \"contracts/Market.sol\":7574:7585  _odds - 100 */\n      tag_106\n      jump\t// in\n    tag_217:\n        /* \"contracts/Market.sol\":7550:7561  selectedBet */\n      dup3\n        /* \"contracts/Market.sol\":7550:7569  selectedBet.matched */\n      0x60\n      add\n      mload\n        /* \"contracts/Market.sol\":7530:7541  selectedBet */\n      dup4\n        /* \"contracts/Market.sol\":7530:7547  selectedBet.stake */\n      0x40\n      add\n      mload\n        /* \"contracts/Market.sol\":7530:7569  selectedBet.stake - selectedBet.matched */\n      tag_218\n      swap2\n      swap1\n      tag_106\n      jump\t// in\n    tag_218:\n        /* \"contracts/Market.sol\":7529:7586  (selectedBet.stake - selectedBet.matched) / (_odds - 100) */\n      tag_219\n      swap2\n      swap1\n      tag_195\n      jump\t// in\n    tag_219:\n        /* \"contracts/Market.sol\":7509:7586  uint offeredStake = (selectedBet.stake - selectedBet.matched) / (_odds - 100) */\n      swap1\n      pop\n        /* \"contracts/Market.sol\":7608:7627  offeredStake *= 100 */\n      tag_220\n        /* \"contracts/Market.sol\":7624:7627  100 */\n      0x64\n        /* \"contracts/Market.sol\":7509:7586  uint offeredStake = (selectedBet.stake - selectedBet.matched) / (_odds - 100) */\n      dup3\n        /* \"contracts/Market.sol\":7608:7627  offeredStake *= 100 */\n      tag_193\n      jump\t// in\n    tag_220:\n      swap1\n      pop\n        /* \"contracts/Market.sol\":7649:7666  uint betterAmount */\n      0x00\n        /* \"contracts/Market.sol\":7688:7704  uint makerAmount */\n      dup1\n        /* \"contracts/Market.sol\":7726:7742  bytes32 pairHash */\n      0x00\n        /* \"contracts/Market.sol\":7783:7789  _stake */\n      dup15\n        /* \"contracts/Market.sol\":7767:7779  offeredStake */\n      dup5\n        /* \"contracts/Market.sol\":7767:7789  offeredStake <= _stake */\n      gt\n        /* \"contracts/Market.sol\":7764:9223  if(offeredStake <= _stake) {... */\n      tag_221\n      jumpi\n        /* \"contracts/Market.sol\":7832:7844  offeredStake */\n      dup4\n      swap3\n      pop\n        /* \"contracts/Market.sol\":7900:7911  _odds - 100 */\n      tag_222\n        /* \"contracts/Market.sol\":7908:7911  100 */\n      0x64\n        /* \"contracts/Market.sol\":7900:7905  _odds */\n      dup16\n        /* \"contracts/Market.sol\":7900:7911  _odds - 100 */\n      tag_106\n      jump\t// in\n    tag_222:\n        /* \"contracts/Market.sol\":7884:7912  offeredStake * (_odds - 100) */\n      tag_223\n      swap1\n        /* \"contracts/Market.sol\":7884:7896  offeredStake */\n      dup6\n        /* \"contracts/Market.sol\":7884:7912  offeredStake * (_odds - 100) */\n      tag_193\n      jump\t// in\n    tag_223:\n        /* \"contracts/Market.sol\":7870:7912  makerAmount = offeredStake * (_odds - 100) */\n      swap2\n      pop\n        /* \"contracts/Market.sol\":7938:7956  makerAmount /= 100 */\n      tag_224\n        /* \"contracts/Market.sol\":7953:7956  100 */\n      0x64\n        /* \"contracts/Market.sol\":7870:7912  makerAmount = offeredStake * (_odds - 100) */\n      dup4\n        /* \"contracts/Market.sol\":7938:7956  makerAmount /= 100 */\n      tag_195\n      jump\t// in\n    tag_224:\n      swap2\n      pop\n        /* \"contracts/Market.sol\":7985:7990  _side */\n      dup13\n        /* \"contracts/Market.sol\":7994:7995  1 */\n      0x01\n        /* \"contracts/Market.sol\":7985:7995  _side == 1 */\n      eq\n        /* \"contracts/Market.sol\":7982:8478  if(_side == 1){... */\n      iszero\n      tag_225\n      jumpi\n        /* \"contracts/Market.sol\":8037:8095  _createPair(betHash,selectedHash,betterAmount,makerAmount) */\n      tag_226\n        /* \"contracts/Market.sol\":8049:8056  betHash */\n      dup11\n        /* \"contracts/Market.sol\":8057:8069  selectedHash */\n      dup8\n        /* \"contracts/Market.sol\":8070:8082  betterAmount */\n      dup6\n        /* \"contracts/Market.sol\":8083:8094  makerAmount */\n      dup6\n        /* \"contracts/Market.sol\":8037:8048  _createPair */\n      tag_227\n        /* \"contracts/Market.sol\":8037:8095  _createPair(betHash,selectedHash,betterAmount,makerAmount) */\n      jump\t// in\n    tag_226:\n        /* \"contracts/Market.sol\":8130:8188  PairCreated(betHash,selectedHash,betterAmount,makerAmount) */\n      0x40\n      dup1\n      mload\n        /* \"#utility.yul\":6652:6677   */\n      dup13\n      dup2\n      mstore\n        /* \"#utility.yul\":6708:6710   */\n      0x20\n        /* \"#utility.yul\":6693:6711   */\n      dup2\n      add\n        /* \"#utility.yul\":6686:6720   */\n      dup10\n      swap1\n      mstore\n        /* \"#utility.yul\":6736:6754   */\n      swap1\n      dup2\n      add\n        /* \"#utility.yul\":6729:6763   */\n      dup6\n      swap1\n      mstore\n        /* \"#utility.yul\":6794:6796   */\n      0x60\n        /* \"#utility.yul\":6779:6797   */\n      dup2\n      add\n        /* \"#utility.yul\":6772:6806   */\n      dup5\n      swap1\n      mstore\n        /* \"contracts/Market.sol\":8026:8095  pairHash = _createPair(betHash,selectedHash,betterAmount,makerAmount) */\n      swap1\n      swap2\n      pop\n        /* \"contracts/Market.sol\":8130:8188  PairCreated(betHash,selectedHash,betterAmount,makerAmount) */\n      0x5de48bb383b4a2aaad84721b80d93429b813651b0eefbd59d32018cfe28215dc\n      swap1\n        /* \"#utility.yul\":6639:6642   */\n      0x80\n        /* \"#utility.yul\":6624:6643   */\n      add\n        /* \"contracts/Market.sol\":8130:8188  PairCreated(betHash,selectedHash,betterAmount,makerAmount) */\n    tag_228:\n      mload(0x40)\n      dup1\n      swap2\n      sub\n      swap1\n      log1\n        /* \"contracts/Market.sol\":7764:9223  if(offeredStake <= _stake) {... */\n      jump(tag_242)\n        /* \"contracts/Market.sol\":7982:8478  if(_side == 1){... */\n    tag_225:\n        /* \"contracts/Market.sol\":8248:8253  _side */\n      dup13\n        /* \"contracts/Market.sol\":8257:8258  2 */\n      0x02\n        /* \"contracts/Market.sol\":8248:8258  _side == 2 */\n      eq\n        /* \"contracts/Market.sol\":8245:8478  if(_side == 2){... */\n      iszero\n      tag_231\n      jumpi\n        /* \"contracts/Market.sol\":8300:8358  _createPair(selectedHash,betHash,makerAmount,betterAmount) */\n      tag_232\n        /* \"contracts/Market.sol\":8312:8324  selectedHash */\n      dup7\n        /* \"contracts/Market.sol\":8325:8332  betHash */\n      dup12\n        /* \"contracts/Market.sol\":8333:8344  makerAmount */\n      dup5\n        /* \"contracts/Market.sol\":8345:8357  betterAmount */\n      dup7\n        /* \"contracts/Market.sol\":8300:8311  _createPair */\n      tag_227\n        /* \"contracts/Market.sol\":8300:8358  _createPair(selectedHash,betHash,makerAmount,betterAmount) */\n      jump\t// in\n    tag_232:\n        /* \"contracts/Market.sol\":8393:8451  PairCreated(selectedHash,betHash,makerAmount,betterAmount) */\n      0x40\n      dup1\n      mload\n        /* \"#utility.yul\":6652:6677   */\n      dup9\n      dup2\n      mstore\n        /* \"#utility.yul\":6708:6710   */\n      0x20\n        /* \"#utility.yul\":6693:6711   */\n      dup2\n      add\n        /* \"#utility.yul\":6686:6720   */\n      dup14\n      swap1\n      mstore\n        /* \"#utility.yul\":6736:6754   */\n      swap1\n      dup2\n      add\n        /* \"#utility.yul\":6729:6763   */\n      dup5\n      swap1\n      mstore\n        /* \"#utility.yul\":6794:6796   */\n      0x60\n        /* \"#utility.yul\":6779:6797   */\n      dup2\n      add\n        /* \"#utility.yul\":6772:6806   */\n      dup6\n      swap1\n      mstore\n        /* \"contracts/Market.sol\":8289:8358  pairHash = _createPair(selectedHash,betHash,makerAmount,betterAmount) */\n      swap1\n      swap2\n      pop\n        /* \"contracts/Market.sol\":8393:8451  PairCreated(selectedHash,betHash,makerAmount,betterAmount) */\n      0x5de48bb383b4a2aaad84721b80d93429b813651b0eefbd59d32018cfe28215dc\n      swap1\n        /* \"#utility.yul\":6639:6642   */\n      0x80\n        /* \"#utility.yul\":6624:6643   */\n      add\n        /* \"contracts/Market.sol\":8393:8451  PairCreated(selectedHash,betHash,makerAmount,betterAmount) */\n      tag_228\n        /* \"#utility.yul\":6606:6812   */\n      jump\n        /* \"contracts/Market.sol\":8245:8478  if(_side == 2){... */\n    tag_231:\n        /* \"contracts/Market.sol\":7764:9223  if(offeredStake <= _stake) {... */\n      jump(tag_242)\n    tag_221:\n        /* \"contracts/Market.sol\":8567:8573  _stake */\n      dup15\n      swap3\n      pop\n        /* \"contracts/Market.sol\":8623:8634  _odds - 100 */\n      tag_235\n        /* \"contracts/Market.sol\":8631:8634  100 */\n      0x64\n        /* \"contracts/Market.sol\":8623:8628  _odds */\n      dup16\n        /* \"contracts/Market.sol\":8623:8634  _odds - 100 */\n      tag_106\n      jump\t// in\n    tag_235:\n        /* \"contracts/Market.sol\":8613:8619  _stake */\n      dup16\n        /* \"contracts/Market.sol\":8613:8635  _stake * (_odds - 100) */\n      tag_236\n      swap2\n      swap1\n      tag_193\n      jump\t// in\n    tag_236:\n        /* \"contracts/Market.sol\":8599:8635  makerAmount = _stake * (_odds - 100) */\n      swap2\n      pop\n        /* \"contracts/Market.sol\":8661:8679  makerAmount /= 100 */\n      tag_237\n        /* \"contracts/Market.sol\":8676:8679  100 */\n      0x64\n        /* \"contracts/Market.sol\":8599:8635  makerAmount = _stake * (_odds - 100) */\n      dup4\n        /* \"contracts/Market.sol\":8661:8679  makerAmount /= 100 */\n      tag_195\n      jump\t// in\n    tag_237:\n      swap2\n      pop\n        /* \"contracts/Market.sol\":8708:8713  _side */\n      dup13\n        /* \"contracts/Market.sol\":8717:8718  1 */\n      0x01\n        /* \"contracts/Market.sol\":8708:8718  _side == 1 */\n      eq\n        /* \"contracts/Market.sol\":8705:9201  if(_side == 1){... */\n      iszero\n      tag_238\n      jumpi\n        /* \"contracts/Market.sol\":8760:8818  _createPair(betHash,selectedHash,betterAmount,makerAmount) */\n      tag_226\n        /* \"contracts/Market.sol\":8772:8779  betHash */\n      dup11\n        /* \"contracts/Market.sol\":8780:8792  selectedHash */\n      dup8\n        /* \"contracts/Market.sol\":8793:8805  betterAmount */\n      dup6\n        /* \"contracts/Market.sol\":8806:8817  makerAmount */\n      dup6\n        /* \"contracts/Market.sol\":8760:8771  _createPair */\n      tag_227\n        /* \"contracts/Market.sol\":8760:8818  _createPair(betHash,selectedHash,betterAmount,makerAmount) */\n      jump\t// in\n        /* \"contracts/Market.sol\":8705:9201  if(_side == 1){... */\n    tag_238:\n        /* \"contracts/Market.sol\":8971:8976  _side */\n      dup13\n        /* \"contracts/Market.sol\":8980:8981  2 */\n      0x02\n        /* \"contracts/Market.sol\":8971:8981  _side == 2 */\n      eq\n        /* \"contracts/Market.sol\":8968:9201  if(_side == 2){... */\n      iszero\n      tag_242\n      jumpi\n        /* \"contracts/Market.sol\":9023:9081  _createPair(selectedHash,betHash,makerAmount,betterAmount) */\n      tag_243\n        /* \"contracts/Market.sol\":9035:9047  selectedHash */\n      dup7\n        /* \"contracts/Market.sol\":9048:9055  betHash */\n      dup12\n        /* \"contracts/Market.sol\":9056:9067  makerAmount */\n      dup5\n        /* \"contracts/Market.sol\":9068:9080  betterAmount */\n      dup7\n        /* \"contracts/Market.sol\":9023:9034  _createPair */\n      tag_227\n        /* \"contracts/Market.sol\":9023:9081  _createPair(selectedHash,betHash,makerAmount,betterAmount) */\n      jump\t// in\n    tag_243:\n        /* \"contracts/Market.sol\":9116:9174  PairCreated(selectedHash,betHash,makerAmount,betterAmount) */\n      0x40\n      dup1\n      mload\n        /* \"#utility.yul\":6652:6677   */\n      dup9\n      dup2\n      mstore\n        /* \"#utility.yul\":6708:6710   */\n      0x20\n        /* \"#utility.yul\":6693:6711   */\n      dup2\n      add\n        /* \"#utility.yul\":6686:6720   */\n      dup14\n      swap1\n      mstore\n        /* \"#utility.yul\":6736:6754   */\n      swap1\n      dup2\n      add\n        /* \"#utility.yul\":6729:6763   */\n      dup5\n      swap1\n      mstore\n        /* \"#utility.yul\":6794:6796   */\n      0x60\n        /* \"#utility.yul\":6779:6797   */\n      dup2\n      add\n        /* \"#utility.yul\":6772:6806   */\n      dup6\n      swap1\n      mstore\n        /* \"contracts/Market.sol\":9012:9081  pairHash = _createPair(selectedHash,betHash,makerAmount,betterAmount) */\n      swap1\n      swap2\n      pop\n        /* \"contracts/Market.sol\":9116:9174  PairCreated(selectedHash,betHash,makerAmount,betterAmount) */\n      0x5de48bb383b4a2aaad84721b80d93429b813651b0eefbd59d32018cfe28215dc\n      swap1\n        /* \"#utility.yul\":6639:6642   */\n      0x80\n        /* \"#utility.yul\":6624:6643   */\n      add\n        /* \"contracts/Market.sol\":9116:9174  PairCreated(selectedHash,betHash,makerAmount,betterAmount) */\n      mload(0x40)\n      dup1\n      swap2\n      sub\n      swap1\n      log1\n        /* \"contracts/Market.sol\":8968:9201  if(_side == 2){... */\n    tag_242:\n        /* \"contracts/Market.sol\":9244:9261  betPairs[betHash] */\n      0x00\n      dup11\n      dup2\n      mstore\n        /* \"contracts/Market.sol\":9244:9252  betPairs */\n      0x0b\n        /* \"contracts/Market.sol\":9244:9261  betPairs[betHash] */\n      0x20\n      swap1\n      dup2\n      mstore\n      0x40\n      dup1\n      dup4\n      keccak256\n        /* \"contracts/Market.sol\":9244:9276  betPairs[betHash].push(pairHash) */\n      dup1\n      sload\n      0x01\n      dup2\n      dup2\n      add\n      dup4\n      sstore\n      swap2\n      dup6\n      mstore\n      dup4\n      dup6\n      keccak256\n      add\n      dup6\n      swap1\n      sstore\n        /* \"contracts/Market.sol\":9298:9320  betPairs[selectedHash] */\n      dup10\n      dup5\n      mstore\n      dup2\n      dup5\n      keccak256\n        /* \"contracts/Market.sol\":9298:9335  betPairs[selectedHash].push(pairHash) */\n      dup1\n      sload\n      swap2\n      dup3\n      add\n      dup2\n      sstore\n      dup5\n      mstore\n      dup3\n      dup5\n      keccak256\n      add\n      dup5\n      swap1\n      sstore\n        /* \"contracts/Market.sol\":9357:9374  betsInfo[betHash] */\n      dup13\n      dup4\n      mstore\n        /* \"contracts/Market.sol\":9357:9365  betsInfo */\n      0x08\n        /* \"contracts/Market.sol\":9357:9374  betsInfo[betHash] */\n      swap1\n      swap2\n      mstore\n      dup2\n      keccak256\n        /* \"contracts/Market.sol\":9357:9382  betsInfo[betHash].matched */\n      0x03\n      add\n        /* \"contracts/Market.sol\":9357:9398  betsInfo[betHash].matched += betterAmount */\n      dup1\n      sload\n        /* \"contracts/Market.sol\":9386:9398  betterAmount */\n      dup6\n      swap3\n        /* \"contracts/Market.sol\":9244:9261  betPairs[betHash] */\n      swap1\n        /* \"contracts/Market.sol\":9357:9398  betsInfo[betHash].matched += betterAmount */\n      tag_247\n      swap1\n        /* \"contracts/Market.sol\":9386:9398  betterAmount */\n      dup5\n      swap1\n        /* \"contracts/Market.sol\":9357:9398  betsInfo[betHash].matched += betterAmount */\n      tag_248\n      jump\t// in\n    tag_247:\n      swap1\n      swap2\n      sstore\n      pop\n      pop\n        /* \"contracts/Market.sol\":9420:9442  betsInfo[selectedHash] */\n      0x00\n      dup7\n      dup2\n      mstore\n        /* \"contracts/Market.sol\":9420:9428  betsInfo */\n      0x08\n        /* \"contracts/Market.sol\":9420:9442  betsInfo[selectedHash] */\n      0x20\n      mstore\n      0x40\n      dup2\n      keccak256\n        /* \"contracts/Market.sol\":9420:9450  betsInfo[selectedHash].matched */\n      0x03\n      add\n        /* \"contracts/Market.sol\":9420:9465  betsInfo[selectedHash].matched += makerAmount */\n      dup1\n      sload\n        /* \"contracts/Market.sol\":9454:9465  makerAmount */\n      dup5\n      swap3\n        /* \"contracts/Market.sol\":9420:9442  betsInfo[selectedHash] */\n      swap1\n        /* \"contracts/Market.sol\":9420:9465  betsInfo[selectedHash].matched += makerAmount */\n      tag_249\n      swap1\n        /* \"contracts/Market.sol\":9454:9465  makerAmount */\n      dup5\n      swap1\n        /* \"contracts/Market.sol\":9420:9465  betsInfo[selectedHash].matched += makerAmount */\n      tag_248\n      jump\t// in\n    tag_249:\n      swap1\n      swap2\n      sstore\n      pop\n      pop\n        /* \"contracts/Market.sol\":9521:9543  betsInfo[selectedHash] */\n      0x00\n      dup7\n      dup2\n      mstore\n        /* \"contracts/Market.sol\":9521:9529  betsInfo */\n      0x08\n        /* \"contracts/Market.sol\":9521:9543  betsInfo[selectedHash] */\n      0x20\n      mstore\n      0x40\n      swap1\n      keccak256\n        /* \"contracts/Market.sol\":9521:9551  betsInfo[selectedHash].matched */\n      0x03\n      dup2\n      add\n      sload\n        /* \"contracts/Market.sol\":9490:9518  betsInfo[selectedHash].stake */\n      0x02\n      swap1\n      swap2\n      add\n      sload\n        /* \"contracts/Market.sol\":9490:9551  betsInfo[selectedHash].stake - betsInfo[selectedHash].matched */\n      tag_250\n      swap2\n        /* \"contracts/Market.sol\":9521:9551  betsInfo[selectedHash].matched */\n      swap1\n        /* \"contracts/Market.sol\":9490:9551  betsInfo[selectedHash].stake - betsInfo[selectedHash].matched */\n      tag_106\n      jump\t// in\n    tag_250:\n        /* \"contracts/Market.sol\":9487:9640  if(betsInfo[selectedHash].stake - betsInfo[selectedHash].matched == 0) {... */\n      tag_251\n      jumpi\n        /* \"contracts/Market.sol\":9591:9602  pendingBets */\n      0x06\n        /* \"contracts/Market.sol\":9603:9616  selectedIndex */\n      dup9\n        /* \"contracts/Market.sol\":9591:9617  pendingBets[selectedIndex] */\n      dup2\n      sload\n      dup2\n      lt\n      tag_252\n      jumpi\n      mstore(0x00, shl(0xe0, 0x4e487b71))\n      mstore(0x04, 0x32)\n      revert(0x00, 0x24)\n    tag_252:\n      0x00\n      swap2\n      dup3\n      mstore\n      0x20\n      dup3\n      keccak256\n      add\n        /* \"contracts/Market.sol\":9584:9617  delete pendingBets[selectedIndex] */\n      sstore\n        /* \"contracts/Market.sol\":9487:9640  if(betsInfo[selectedHash].stake - betsInfo[selectedHash].matched == 0) {... */\n    tag_251:\n        /* \"contracts/Market.sol\":9661:9686  _remStake -= betterAmount */\n      tag_254\n        /* \"contracts/Market.sol\":9674:9686  betterAmount */\n      dup4\n        /* \"contracts/Market.sol\":9661:9686  _remStake -= betterAmount */\n      dup11\n      tag_106\n      jump\t// in\n    tag_254:\n      swap9\n      pop\n        /* \"contracts/Market.sol\":7292:9820  if(maxOdds > _odds || (maxOdds > 0 && _instant)) {... */\n      pop\n      pop\n      pop\n      pop\n      pop\n      pop\n      jump(tag_255)\n    tag_214:\n      pop\n      pop\n        /* \"contracts/Market.sol\":9749:9760  pendingBets */\n      0x06\n        /* \"contracts/Market.sol\":9749:9774  pendingBets.push(betHash) */\n      dup1\n      sload\n      0x01\n      dup2\n      add\n      dup3\n      sstore\n      0x00\n      swap2\n      swap1\n      swap2\n      mstore\n      0xf652222313e28459528d920b65115c16c04f3efc82aaedc97be59f3f377c0d3f\n      add\n      dup3\n      swap1\n      sstore\n        /* \"contracts/Market.sol\":9796:9801  break */\n      jump(tag_199)\n        /* \"contracts/Market.sol\":7292:9820  if(maxOdds > _odds || (maxOdds > 0 && _instant)) {... */\n    tag_255:\n        /* \"contracts/Market.sol\":6749:9834  while(_remStake >= app.minStake()){... */\n      pop\n      pop\n      jump(tag_198)\n    tag_199:\n        /* \"contracts/Market.sol\":6672:9908  if(pendingBets.length > 0){... */\n      pop\n      jump(tag_257)\n    tag_197:\n        /* \"contracts/Market.sol\":9872:9883  pendingBets */\n      0x06\n        /* \"contracts/Market.sol\":9872:9897  pendingBets.push(betHash) */\n      dup1\n      sload\n      0x01\n      dup2\n      add\n      dup3\n      sstore\n      0x00\n      swap2\n      swap1\n      swap2\n      mstore\n      0xf652222313e28459528d920b65115c16c04f3efc82aaedc97be59f3f377c0d3f\n      add\n      dup2\n      swap1\n      sstore\n        /* \"contracts/Market.sol\":6672:9908  if(pendingBets.length > 0){... */\n    tag_257:\n        /* \"contracts/Market.sol\":9922:9990  BetCreated(msg.sender, address(this), betHash, _stake, _odds, _side) */\n      0x40\n      dup1\n      mload\n        /* \"contracts/Market.sol\":9933:9943  msg.sender */\n      caller\n        /* \"#utility.yul\":3962:3996   */\n      dup2\n      mstore\n        /* \"contracts/Market.sol\":9953:9957  this */\n      address\n        /* \"#utility.yul\":4027:4029   */\n      0x20\n        /* \"#utility.yul\":4012:4030   */\n      dup3\n      add\n        /* \"#utility.yul\":4005:4048   */\n      mstore\n        /* \"#utility.yul\":4064:4082   */\n      swap1\n      dup2\n      add\n        /* \"#utility.yul\":4057:4091   */\n      dup3\n      swap1\n      mstore\n        /* \"#utility.yul\":4122:4124   */\n      0x60\n        /* \"#utility.yul\":4107:4125   */\n      dup2\n      add\n        /* \"#utility.yul\":4100:4134   */\n      dup8\n      swap1\n      mstore\n        /* \"#utility.yul\":4165:4168   */\n      0x80\n        /* \"#utility.yul\":4150:4169   */\n      dup2\n      add\n        /* \"#utility.yul\":4143:4178   */\n      dup7\n      swap1\n      mstore\n        /* \"#utility.yul\":3942:3945   */\n      0xa0\n        /* \"#utility.yul\":4194:4213   */\n      dup2\n      add\n        /* \"#utility.yul\":4187:4222   */\n      dup6\n      swap1\n      mstore\n        /* \"contracts/Market.sol\":9922:9990  BetCreated(msg.sender, address(this), betHash, _stake, _odds, _side) */\n      0x618f358bb45538682ade624a4a1959053d9dabd20fe300508034b879681b37be\n      swap1\n        /* \"#utility.yul\":3911:3914   */\n      0xc0\n        /* \"#utility.yul\":3896:3915   */\n      add\n        /* \"contracts/Market.sol\":9922:9990  BetCreated(msg.sender, address(this), betHash, _stake, _odds, _side) */\n      mload(0x40)\n      dup1\n      swap2\n      sub\n      swap1\n      log1\n        /* \"contracts/Market.sol\":10007:10014  betHash */\n      swap8\n        /* \"contracts/Market.sol\":5817:10021  function addBet(... */\n      swap7\n      pop\n      pop\n      pop\n      pop\n      pop\n      pop\n      pop\n      jump\t// out\n        /* \"contracts/Market.sol\":2859:3422  function withdrawPending(bytes32 _bet) external override {... */\n    tag_48:\n        /* \"contracts/Market.sol\":2926:2946  MarketBet memory bet */\n      0x00\n        /* \"contracts/Market.sol\":2949:2963  betsInfo[_bet] */\n      dup2\n      dup2\n      mstore\n        /* \"contracts/Market.sol\":2949:2957  betsInfo */\n      0x08\n        /* \"contracts/Market.sol\":2949:2963  betsInfo[_bet] */\n      0x20\n      swap1\n      dup2\n      mstore\n      0x40\n      swap2\n      dup3\n      swap1\n      keccak256\n        /* \"contracts/Market.sol\":2926:2963  MarketBet memory bet = betsInfo[_bet] */\n      dup3\n      mload\n      0xc0\n      dup2\n      add\n      dup5\n      mstore\n      dup2\n      sload\n      sub(shl(0xa0, 0x01), 0x01)\n      swap1\n      dup2\n      and\n      dup1\n      dup4\n      mstore\n      0x01\n      dup5\n      add\n      sload\n      swap1\n      swap2\n      and\n      swap4\n      dup3\n      add\n      swap4\n      swap1\n      swap4\n      mstore\n      0x02\n      dup3\n      add\n      sload\n      swap4\n      dup2\n      add\n      swap4\n      swap1\n      swap4\n      mstore\n      0x03\n      dup2\n      add\n      sload\n      0x60\n      dup5\n      add\n      mstore\n      0x04\n      dup2\n      add\n      sload\n      0x80\n      dup5\n      add\n      mstore\n      0x05\n      add\n      sload\n      0xa0\n      dup4\n      add\n      mstore\n        /* \"contracts/Market.sol\":2981:2991  msg.sender */\n      caller\n        /* \"contracts/Market.sol\":2981:3005  msg.sender == bet.better */\n      eq\n        /* \"contracts/Market.sol\":2973:3012  require(msg.sender == bet.better, \"M4\") */\n      tag_262\n      jumpi\n      mload(0x40)\n      shl(0xe5, 0x461bcd)\n      dup2\n      mstore\n        /* \"#utility.yul\":9014:9016   */\n      0x20\n        /* \"contracts/Market.sol\":2973:3012  require(msg.sender == bet.better, \"M4\") */\n      0x04\n      dup3\n      add\n        /* \"#utility.yul\":8996:9017   */\n      mstore\n        /* \"#utility.yul\":9053:9054   */\n      0x02\n        /* \"#utility.yul\":9033:9051   */\n      0x24\n      dup3\n      add\n        /* \"#utility.yul\":9026:9055   */\n      mstore\n      shl(0xf2, 0x134d)\n        /* \"#utility.yul\":9071:9089   */\n      0x44\n      dup3\n      add\n        /* \"#utility.yul\":9064:9096   */\n      mstore\n        /* \"#utility.yul\":9113:9131   */\n      0x64\n      add\n        /* \"contracts/Market.sol\":2973:3012  require(msg.sender == bet.better, \"M4\") */\n      tag_76\n        /* \"#utility.yul\":8986:9137   */\n      jump\n        /* \"contracts/Market.sol\":2973:3012  require(msg.sender == bet.better, \"M4\") */\n    tag_262:\n        /* \"contracts/Market.sol\":3022:3035  uint remStake */\n      0x00\n        /* \"contracts/Market.sol\":3050:3053  bet */\n      dup2\n        /* \"contracts/Market.sol\":3050:3061  bet.matched */\n      0x60\n      add\n      mload\n        /* \"contracts/Market.sol\":3038:3041  bet */\n      dup3\n        /* \"contracts/Market.sol\":3038:3047  bet.stake */\n      0x40\n      add\n      mload\n        /* \"contracts/Market.sol\":3038:3061  bet.stake - bet.matched */\n      tag_265\n      swap2\n      swap1\n      tag_106\n      jump\t// in\n    tag_265:\n        /* \"contracts/Market.sol\":3075:3085  bet.better */\n      dup3\n      mload\n      sub(shl(0xa0, 0x01), 0x01)\n        /* \"contracts/Market.sol\":3071:3086  bal[bet.better] */\n      and\n      0x00\n      swap1\n      dup2\n      mstore\n        /* \"contracts/Market.sol\":3071:3074  bal */\n      0x07\n        /* \"contracts/Market.sol\":3071:3086  bal[bet.better] */\n      0x20\n      mstore\n      0x40\n      dup2\n      keccak256\n        /* \"contracts/Market.sol\":3071:3098  bal[bet.better] += remStake */\n      dup1\n      sload\n        /* \"contracts/Market.sol\":3022:3061  uint remStake = bet.stake - bet.matched */\n      swap3\n      swap4\n      pop\n      dup4\n      swap3\n        /* \"contracts/Market.sol\":3071:3086  bal[bet.better] */\n      swap1\n      swap2\n      swap1\n        /* \"contracts/Market.sol\":3071:3098  bal[bet.better] += remStake */\n      tag_266\n      swap1\n        /* \"contracts/Market.sol\":3022:3061  uint remStake = bet.stake - bet.matched */\n      dup5\n      swap1\n        /* \"contracts/Market.sol\":3071:3098  bal[bet.better] += remStake */\n      tag_248\n      jump\t// in\n    tag_266:\n      swap1\n      swap2\n      sstore\n      pop\n      pop\n        /* \"contracts/Market.sol\":3133:3142  bet.stake */\n      0x40\n      dup1\n      dup4\n      add\n      mload\n        /* \"contracts/Market.sol\":3108:3122  betsInfo[_bet] */\n      0x00\n      dup6\n      dup2\n      mstore\n        /* \"contracts/Market.sol\":3108:3116  betsInfo */\n      0x08\n        /* \"contracts/Market.sol\":3108:3122  betsInfo[_bet] */\n      0x20\n      mstore\n      swap2\n      dup3\n      keccak256\n        /* \"contracts/Market.sol\":3108:3130  betsInfo[_bet].matched */\n      0x03\n      add\n        /* \"contracts/Market.sol\":3108:3142  betsInfo[_bet].matched = bet.stake */\n      sstore\n        /* \"contracts/Market.sol\":3170:3181  pendingBets */\n      0x06\n        /* \"contracts/Market.sol\":3170:3188  pendingBets.length */\n      sload\n      swap1\n        /* \"contracts/Market.sol\":3198:3339  for(uint i = 0; i < betsLength; i++){... */\n    tag_267:\n        /* \"contracts/Market.sol\":3218:3228  betsLength */\n      dup2\n        /* \"contracts/Market.sol\":3214:3215  i */\n      dup2\n        /* \"contracts/Market.sol\":3214:3228  i < betsLength */\n      lt\n        /* \"contracts/Market.sol\":3198:3339  for(uint i = 0; i < betsLength; i++){... */\n      iszero\n      tag_268\n      jumpi\n        /* \"contracts/Market.sol\":3269:3273  _bet */\n      dup5\n        /* \"contracts/Market.sol\":3251:3262  pendingBets */\n      0x06\n        /* \"contracts/Market.sol\":3263:3264  i */\n      dup3\n        /* \"contracts/Market.sol\":3251:3265  pendingBets[i] */\n      dup2\n      sload\n      dup2\n      lt\n      tag_270\n      jumpi\n      mstore(0x00, shl(0xe0, 0x4e487b71))\n      mstore(0x04, 0x32)\n      revert(0x00, 0x24)\n    tag_270:\n      swap1\n      0x00\n      mstore\n      keccak256(0x00, 0x20)\n      add\n      sload\n        /* \"contracts/Market.sol\":3251:3273  pendingBets[i] == _bet */\n      eq\n        /* \"contracts/Market.sol\":3248:3329  if(pendingBets[i] == _bet) {... */\n      iszero\n      tag_272\n      jumpi\n        /* \"contracts/Market.sol\":3300:3311  pendingBets */\n      0x06\n        /* \"contracts/Market.sol\":3312:3313  i */\n      dup2\n        /* \"contracts/Market.sol\":3300:3314  pendingBets[i] */\n      dup2\n      sload\n      dup2\n      lt\n      tag_273\n      jumpi\n      mstore(0x00, shl(0xe0, 0x4e487b71))\n      mstore(0x04, 0x32)\n      revert(0x00, 0x24)\n    tag_273:\n      0x00\n      swap2\n      dup3\n      mstore\n      0x20\n      dup3\n      keccak256\n      add\n        /* \"contracts/Market.sol\":3293:3314  delete pendingBets[i] */\n      sstore\n        /* \"contracts/Market.sol\":3248:3329  if(pendingBets[i] == _bet) {... */\n    tag_272:\n        /* \"contracts/Market.sol\":3230:3233  i++ */\n      dup1\n      tag_275\n      dup2\n      tag_79\n      jump\t// in\n    tag_275:\n      swap2\n      pop\n      pop\n        /* \"contracts/Market.sol\":3198:3339  for(uint i = 0; i < betsLength; i++){... */\n      jump(tag_267)\n    tag_268:\n      pop\n        /* \"contracts/Market.sol\":3355:3365  msg.sender */\n      caller\n        /* \"contracts/Market.sol\":3369:3370  0 */\n      0x00\n        /* \"contracts/Market.sol\":3351:3366  bal[msg.sender] */\n      swap1\n      dup2\n      mstore\n        /* \"contracts/Market.sol\":3351:3354  bal */\n      0x07\n        /* \"contracts/Market.sol\":3351:3366  bal[msg.sender] */\n      0x20\n      mstore\n      0x40\n      swap1\n      keccak256\n      sload\n        /* \"contracts/Market.sol\":3351:3370  bal[msg.sender] > 0 */\n      iszero\n        /* \"contracts/Market.sol\":3348:3416  if(bal[msg.sender] > 0){... */\n      tag_129\n      jumpi\n        /* \"contracts/Market.sol\":3385:3405  withdraw(msg.sender) */\n      tag_66\n        /* \"contracts/Market.sol\":3394:3404  msg.sender */\n      caller\n        /* \"contracts/Market.sol\":3385:3393  withdraw */\n      tag_31\n        /* \"contracts/Market.sol\":3385:3405  withdraw(msg.sender) */\n      jump\t// in\n        /* \"contracts/Market.sol\":4727:5217  function settle(uint256 _winningSide)... */\n    tag_52:\n        /* \"contracts/Market.sol\":1275:1280  owner */\n      sload(0x01)\n        /* \"contracts/Market.sol\":4835:4839  bool */\n      0x00\n      swap1\n      sub(shl(0xa0, 0x01), 0x01)\n        /* \"contracts/Market.sol\":1275:1280  owner */\n      and\n        /* \"contracts/Market.sol\":1261:1271  msg.sender */\n      caller\n        /* \"contracts/Market.sol\":1261:1280  msg.sender == owner */\n      eq\n      dup1\n        /* \"contracts/Market.sol\":1261:1343  msg.sender == owner ... */\n      tag_279\n      jumpi\n      pop\n        /* \"contracts/Market.sol\":1324:1327  app */\n      immutable(\"0x911a39fbf665a24ad3b6efc185d4b936bbda1900793ae2f7c00f4d18bdd96685\")\n      sub(shl(0xa0, 0x01), 0x01)\n        /* \"contracts/Market.sol\":1324:1341  app.contractOwner */\n      and\n      0xce606ee0\n        /* \"contracts/Market.sol\":1324:1343  app.contractOwner() */\n      mload(0x40)\n      dup2\n      0xffffffff\n      and\n      0xe0\n      shl\n      dup2\n      mstore\n      0x04\n      add\n      0x20\n      mload(0x40)\n      dup1\n      dup4\n      sub\n      dup2\n      dup7\n      dup1\n      extcodesize\n      iszero\n      dup1\n      iszero\n      tag_280\n      jumpi\n      0x00\n      dup1\n      revert\n    tag_280:\n      pop\n      gas\n      staticcall\n      iszero\n      dup1\n      iszero\n      tag_282\n      jumpi\n      returndatasize\n      0x00\n      dup1\n      returndatacopy\n      revert(0x00, returndatasize)\n    tag_282:\n      pop\n      pop\n      pop\n      pop\n      mload(0x40)\n      returndatasize\n      not(0x1f)\n      0x1f\n      dup3\n      add\n      and\n      dup3\n      add\n      dup1\n      0x40\n      mstore\n      pop\n      dup2\n      add\n      swap1\n      tag_283\n      swap2\n      swap1\n      tag_136\n      jump\t// in\n    tag_283:\n      sub(shl(0xa0, 0x01), 0x01)\n        /* \"contracts/Market.sol\":1310:1343  msg.sender == app.contractOwner() */\n      and\n        /* \"contracts/Market.sol\":1310:1320  msg.sender */\n      caller\n      sub(shl(0xa0, 0x01), 0x01)\n        /* \"contracts/Market.sol\":1310:1343  msg.sender == app.contractOwner() */\n      and\n      eq\n        /* \"contracts/Market.sol\":1261:1343  msg.sender == owner ... */\n    tag_279:\n        /* \"contracts/Market.sol\":1261:1392  msg.sender == owner ... */\n      dup1\n      tag_284\n      jumpi\n      pop\n        /* \"contracts/Market.sol\":1385:1392  factory */\n      and(sub(shl(0xa0, 0x01), 0x01), sload(0x02))\n        /* \"contracts/Market.sol\":1371:1381  msg.sender */\n      caller\n        /* \"contracts/Market.sol\":1371:1392  msg.sender == factory */\n      eq\n        /* \"contracts/Market.sol\":1261:1392  msg.sender == owner ... */\n    tag_284:\n        /* \"contracts/Market.sol\":1240:1420  require(... */\n      tag_285\n      jumpi\n      mload(0x40)\n      shl(0xe5, 0x461bcd)\n      dup2\n      mstore\n      0x04\n      add\n      tag_76\n      swap1\n      tag_140\n      jump\t// in\n    tag_285:\n        /* \"contracts/Market.sol\":4859:4865  status */\n      sload(0x03)\n        /* \"contracts/Market.sol\":4859:4870  status == 0 */\n      iszero\n      dup1\n        /* \"contracts/Market.sol\":4859:4885  status == 0 || status == 4 */\n      tag_288\n      jumpi\n      pop\n        /* \"contracts/Market.sol\":4874:4880  status */\n      sload(0x03)\n        /* \"contracts/Market.sol\":4884:4885  4 */\n      0x04\n        /* \"contracts/Market.sol\":4874:4885  status == 4 */\n      eq\n        /* \"contracts/Market.sol\":4859:4885  status == 0 || status == 4 */\n    tag_288:\n        /* \"contracts/Market.sol\":4858:4930  (status == 0 || status == 4) && (_winningSide == 1 || _winningSide == 2) */\n      dup1\n      iszero\n      tag_290\n      jumpi\n      pop\n        /* \"contracts/Market.sol\":4891:4903  _winningSide */\n      dup2\n        /* \"contracts/Market.sol\":4907:4908  1 */\n      0x01\n        /* \"contracts/Market.sol\":4891:4908  _winningSide == 1 */\n      eq\n        /* \"contracts/Market.sol\":4891:4929  _winningSide == 1 || _winningSide == 2 */\n      dup1\n      tag_290\n      jumpi\n      pop\n        /* \"contracts/Market.sol\":4912:4924  _winningSide */\n      dup2\n        /* \"contracts/Market.sol\":4928:4929  2 */\n      0x02\n        /* \"contracts/Market.sol\":4912:4929  _winningSide == 2 */\n      eq\n        /* \"contracts/Market.sol\":4891:4929  _winningSide == 1 || _winningSide == 2 */\n    tag_290:\n        /* \"contracts/Market.sol\":4855:5202  if((status == 0 || status == 4) && (_winningSide == 1 || _winningSide == 2)){... */\n      iszero\n      tag_291\n      jumpi\n        /* \"contracts/Market.sol\":4945:4951  status */\n      0x03\n        /* \"contracts/Market.sol\":4945:4966  status = _winningSide */\n      dup3\n      swap1\n      sstore\n        /* \"contracts/Market.sol\":4999:5004  pairs */\n      0x04\n        /* \"contracts/Market.sol\":4999:5011  pairs.length */\n      sload\n        /* \"contracts/Market.sol\":4980:4996  uint pairsLength */\n      0x00\n        /* \"contracts/Market.sol\":5025:5116  for(uint i = 0; i < pairsLength; i++){... */\n    tag_292:\n        /* \"contracts/Market.sol\":5045:5056  pairsLength */\n      dup2\n        /* \"contracts/Market.sol\":5041:5042  i */\n      dup2\n        /* \"contracts/Market.sol\":5041:5056  i < pairsLength */\n      lt\n        /* \"contracts/Market.sol\":5025:5116  for(uint i = 0; i < pairsLength; i++){... */\n      iszero\n      tag_293\n      jumpi\n        /* \"contracts/Market.sol\":5080:5101  _settlePair(pairs[i]) */\n      tag_295\n        /* \"contracts/Market.sol\":5092:5097  pairs */\n      0x04\n        /* \"contracts/Market.sol\":5098:5099  i */\n      dup3\n        /* \"contracts/Market.sol\":5092:5100  pairs[i] */\n      dup2\n      sload\n      dup2\n      lt\n      tag_296\n      jumpi\n      mstore(0x00, shl(0xe0, 0x4e487b71))\n      mstore(0x04, 0x32)\n      revert(0x00, 0x24)\n    tag_296:\n      swap1\n      0x00\n      mstore\n      keccak256(0x00, 0x20)\n      add\n      sload\n        /* \"contracts/Market.sol\":5080:5091  _settlePair */\n      tag_126\n        /* \"contracts/Market.sol\":5080:5101  _settlePair(pairs[i]) */\n      jump\t// in\n    tag_295:\n      pop\n        /* \"contracts/Market.sol\":5058:5061  i++ */\n      dup1\n      tag_298\n      dup2\n      tag_79\n      jump\t// in\n    tag_298:\n      swap2\n      pop\n      pop\n        /* \"contracts/Market.sol\":5025:5116  for(uint i = 0; i < pairsLength; i++){... */\n      jump(tag_292)\n    tag_293:\n      pop\n        /* \"contracts/Market.sol\":5136:5140  true */\n      0x01\n      swap4\n        /* \"contracts/Market.sol\":4727:5217  function settle(uint256 _winningSide)... */\n      swap3\n      pop\n      pop\n      pop\n      jump\t// out\n        /* \"contracts/Market.sol\":4855:5202  if((status == 0 || status == 4) && (_winningSide == 1 || _winningSide == 2)){... */\n    tag_291:\n      pop\n        /* \"contracts/Market.sol\":5186:5191  false */\n      0x00\n        /* \"contracts/Market.sol\":4727:5217  function settle(uint256 _winningSide)... */\n      swap2\n      swap1\n      pop\n      jump\t// out\n        /* \"contracts/Market.sol\":5609:5811  function start() external override onlyFactory returns(bool){... */\n    tag_55:\n        /* \"contracts/Market.sol\":1275:1280  owner */\n      sload(0x01)\n        /* \"contracts/Market.sol\":5664:5668  bool */\n      0x00\n      swap1\n      sub(shl(0xa0, 0x01), 0x01)\n        /* \"contracts/Market.sol\":1275:1280  owner */\n      and\n        /* \"contracts/Market.sol\":1261:1271  msg.sender */\n      caller\n        /* \"contracts/Market.sol\":1261:1280  msg.sender == owner */\n      eq\n      dup1\n        /* \"contracts/Market.sol\":1261:1343  msg.sender == owner ... */\n      tag_301\n      jumpi\n      pop\n        /* \"contracts/Market.sol\":1324:1327  app */\n      immutable(\"0x911a39fbf665a24ad3b6efc185d4b936bbda1900793ae2f7c00f4d18bdd96685\")\n      sub(shl(0xa0, 0x01), 0x01)\n        /* \"contracts/Market.sol\":1324:1341  app.contractOwner */\n      and\n      0xce606ee0\n        /* \"contracts/Market.sol\":1324:1343  app.contractOwner() */\n      mload(0x40)\n      dup2\n      0xffffffff\n      and\n      0xe0\n      shl\n      dup2\n      mstore\n      0x04\n      add\n      0x20\n      mload(0x40)\n      dup1\n      dup4\n      sub\n      dup2\n      dup7\n      dup1\n      extcodesize\n      iszero\n      dup1\n      iszero\n      tag_302\n      jumpi\n      0x00\n      dup1\n      revert\n    tag_302:\n      pop\n      gas\n      staticcall\n      iszero\n      dup1\n      iszero\n      tag_304\n      jumpi\n      returndatasize\n      0x00\n      dup1\n      returndatacopy\n      revert(0x00, returndatasize)\n    tag_304:\n      pop\n      pop\n      pop\n      pop\n      mload(0x40)\n      returndatasize\n      not(0x1f)\n      0x1f\n      dup3\n      add\n      and\n      dup3\n      add\n      dup1\n      0x40\n      mstore\n      pop\n      dup2\n      add\n      swap1\n      tag_305\n      swap2\n      swap1\n      tag_136\n      jump\t// in\n    tag_305:\n      sub(shl(0xa0, 0x01), 0x01)\n        /* \"contracts/Market.sol\":1310:1343  msg.sender == app.contractOwner() */\n      and\n        /* \"contracts/Market.sol\":1310:1320  msg.sender */\n      caller\n      sub(shl(0xa0, 0x01), 0x01)\n        /* \"contracts/Market.sol\":1310:1343  msg.sender == app.contractOwner() */\n      and\n      eq\n        /* \"contracts/Market.sol\":1261:1343  msg.sender == owner ... */\n    tag_301:\n        /* \"contracts/Market.sol\":1261:1392  msg.sender == owner ... */\n      dup1\n      tag_306\n      jumpi\n      pop\n        /* \"contracts/Market.sol\":1385:1392  factory */\n      and(sub(shl(0xa0, 0x01), 0x01), sload(0x02))\n        /* \"contracts/Market.sol\":1371:1381  msg.sender */\n      caller\n        /* \"contracts/Market.sol\":1371:1392  msg.sender == factory */\n      eq\n        /* \"contracts/Market.sol\":1261:1392  msg.sender == owner ... */\n    tag_306:\n        /* \"contracts/Market.sol\":1240:1420  require(... */\n      tag_307\n      jumpi\n      mload(0x40)\n      shl(0xe5, 0x461bcd)\n      dup2\n      mstore\n      0x04\n      add\n      tag_76\n      swap1\n      tag_140\n      jump\t// in\n    tag_307:\n        /* \"contracts/Market.sol\":5682:5688  status */\n      sload(0x03)\n        /* \"contracts/Market.sol\":5679:5805  if(status == 0){... */\n      tag_143\n      jumpi\n      pop\n        /* \"contracts/Market.sol\":5717:5718  4 */\n      0x04\n        /* \"contracts/Market.sol\":5708:5714  status */\n      0x03\n        /* \"contracts/Market.sol\":5708:5718  status = 4 */\n      sstore\n        /* \"contracts/Market.sol\":5739:5743  true */\n      0x01\n        /* \"contracts/Market.sol\":5223:5603  function cancelMarket() external override onlyFactory returns(bool) ... */\n      swap1\n      jump\t// out\n        /* \"contracts/Market.sol\":10385:11744  function _settlePair(bytes32 _pair) private nonReentrant returns(bool) {... */\n    tag_126:\n        /* \"contracts/Market.sol\":10450:10454  bool */\n      0x00\n        /* \"@openzeppelin/contracts/security/ReentrancyGuard.sol\":1744:1745  2 */\n      0x02\n        /* \"@openzeppelin/contracts/security/ReentrancyGuard.sol\":2325:2332  _status */\n      sload(0x00)\n        /* \"@openzeppelin/contracts/security/ReentrancyGuard.sol\":2325:2344  _status != _ENTERED */\n      eq\n      iszero\n        /* \"@openzeppelin/contracts/security/ReentrancyGuard.sol\":2317:2380  require(_status != _ENTERED, \"ReentrancyGuard: reentrant call\") */\n      tag_314\n      jumpi\n      mload(0x40)\n      shl(0xe5, 0x461bcd)\n      dup2\n      mstore\n        /* \"#utility.yul\":9674:9676   */\n      0x20\n        /* \"@openzeppelin/contracts/security/ReentrancyGuard.sol\":2317:2380  require(_status != _ENTERED, \"ReentrancyGuard: reentrant call\") */\n      0x04\n      dup3\n      add\n        /* \"#utility.yul\":9656:9677   */\n      mstore\n        /* \"#utility.yul\":9713:9715   */\n      0x1f\n        /* \"#utility.yul\":9693:9711   */\n      0x24\n      dup3\n      add\n        /* \"#utility.yul\":9686:9716   */\n      mstore\n        /* \"#utility.yul\":9752:9785   */\n      0x5265656e7472616e637947756172643a207265656e7472616e742063616c6c00\n        /* \"#utility.yul\":9732:9750   */\n      0x44\n      dup3\n      add\n        /* \"#utility.yul\":9725:9786   */\n      mstore\n        /* \"#utility.yul\":9803:9821   */\n      0x64\n      add\n        /* \"@openzeppelin/contracts/security/ReentrancyGuard.sol\":2317:2380  require(_status != _ENTERED, \"ReentrancyGuard: reentrant call\") */\n      tag_76\n        /* \"#utility.yul\":9646:9827   */\n      jump\n        /* \"@openzeppelin/contracts/security/ReentrancyGuard.sol\":2317:2380  require(_status != _ENTERED, \"ReentrancyGuard: reentrant call\") */\n    tag_314:\n        /* \"@openzeppelin/contracts/security/ReentrancyGuard.sol\":1744:1745  2 */\n      0x02\n        /* \"@openzeppelin/contracts/security/ReentrancyGuard.sol\":2455:2462  _status */\n      0x00\n        /* \"@openzeppelin/contracts/security/ReentrancyGuard.sol\":2455:2473  _status = _ENTERED */\n      swap1\n      dup2\n      sstore\n        /* \"contracts/Market.sol\":10469:10485  pairsInfo[_pair] */\n      dup3\n      dup2\n      mstore\n        /* \"contracts/Market.sol\":10469:10478  pairsInfo */\n      0x0a\n        /* \"contracts/Market.sol\":10469:10485  pairsInfo[_pair] */\n      0x20\n      mstore\n      0x40\n      swap1\n      keccak256\n        /* \"contracts/Market.sol\":10469:10493  pairsInfo[_pair].settled */\n      0x04\n      add\n      sload\n      0xff\n      and\n        /* \"contracts/Market.sol\":10466:10531  if(pairsInfo[_pair].settled){... */\n      iszero\n      tag_317\n      jumpi\n      pop\n        /* \"contracts/Market.sol\":10515:10520  false */\n      0x00\n        /* \"contracts/Market.sol\":10508:10520  return false */\n      jump(tag_93)\n        /* \"contracts/Market.sol\":10466:10531  if(pairsInfo[_pair].settled){... */\n    tag_317:\n        /* \"contracts/Market.sol\":10540:10554  address winner */\n      0x00\n        /* \"contracts/Market.sol\":10564:10581  address affiliate */\n      dup1\n        /* \"contracts/Market.sol\":10591:10608  uint256 winAmount */\n      0x00\n        /* \"contracts/Market.sol\":10618:10635  uint256 vigAmount */\n      dup1\n        /* \"contracts/Market.sol\":10648:10654  status */\n      sload(0x03)\n        /* \"contracts/Market.sol\":10658:10659  1 */\n      0x01\n        /* \"contracts/Market.sol\":10648:10659  status == 1 */\n      eq\n        /* \"contracts/Market.sol\":10645:11379  if(status == 1){... */\n      iszero\n      tag_318\n      jumpi\n        /* \"contracts/Market.sol\":10683:10718  betsInfo[pairsInfo[_pair].betHashA] */\n      0x00\n        /* \"contracts/Market.sol\":10692:10708  pairsInfo[_pair] */\n      dup7\n      dup2\n      mstore\n        /* \"contracts/Market.sol\":10692:10701  pairsInfo */\n      0x0a\n        /* \"contracts/Market.sol\":10692:10708  pairsInfo[_pair] */\n      0x20\n      swap1\n      dup2\n      mstore\n      0x40\n      dup1\n      dup4\n      keccak256\n        /* \"contracts/Market.sol\":10692:10717  pairsInfo[_pair].betHashA */\n      sload\n        /* \"contracts/Market.sol\":10683:10718  betsInfo[pairsInfo[_pair].betHashA] */\n      dup4\n      mstore\n        /* \"contracts/Market.sol\":10683:10691  betsInfo */\n      0x08\n        /* \"contracts/Market.sol\":10683:10718  betsInfo[pairsInfo[_pair].betHashA] */\n      dup3\n      mstore\n      swap2\n      dup3\n      swap1\n      keccak256\n        /* \"contracts/Market.sol\":10683:10725  betsInfo[pairsInfo[_pair].betHashA].better */\n      sload\n        /* \"contracts/Market.sol\":10813:10822  app.vig() */\n      dup3\n      mload\n      shl(0xe0, 0x55c4a8bf)\n      dup2\n      mstore\n      swap3\n      mload\n      sub(shl(0xa0, 0x01), 0x01)\n        /* \"contracts/Market.sol\":10683:10725  betsInfo[pairsInfo[_pair].betHashA].better */\n      swap2\n      dup3\n      and\n      swap8\n      pop\n        /* \"contracts/Market.sol\":10826:10829  100 */\n      0x64\n      swap4\n        /* \"contracts/Market.sol\":10813:10816  app */\n      immutable(\"0x911a39fbf665a24ad3b6efc185d4b936bbda1900793ae2f7c00f4d18bdd96685\")\n        /* \"contracts/Market.sol\":10813:10820  app.vig */\n      swap1\n      swap3\n      and\n      swap3\n      0x55c4a8bf\n      swap3\n        /* \"contracts/Market.sol\":10813:10822  app.vig() */\n      0x04\n      dup1\n      dup3\n      add\n      swap4\n      swap2\n      dup3\n      swap1\n      sub\n      add\n      dup2\n        /* \"contracts/Market.sol\":10813:10820  app.vig */\n      dup7\n        /* \"contracts/Market.sol\":10813:10822  app.vig() */\n      dup1\n      extcodesize\n      iszero\n      dup1\n      iszero\n      tag_319\n      jumpi\n      0x00\n      dup1\n      revert\n    tag_319:\n      pop\n      gas\n      staticcall\n      iszero\n      dup1\n      iszero\n      tag_321\n      jumpi\n      returndatasize\n      0x00\n      dup1\n      returndatacopy\n      revert(0x00, returndatasize)\n    tag_321:\n      pop\n      pop\n      pop\n      pop\n      mload(0x40)\n      returndatasize\n      not(0x1f)\n      0x1f\n      dup3\n      add\n      and\n      dup3\n      add\n      dup1\n      0x40\n      mstore\n      pop\n      dup2\n      add\n      swap1\n      tag_322\n      swap2\n      swap1\n      tag_100\n      jump\t// in\n    tag_322:\n        /* \"contracts/Market.sol\":10807:10822  100 - app.vig() */\n      tag_323\n      swap1\n        /* \"contracts/Market.sol\":10807:10810  100 */\n      0x64\n        /* \"contracts/Market.sol\":10807:10822  100 - app.vig() */\n      tag_106\n      jump\t// in\n    tag_323:\n        /* \"contracts/Market.sol\":10779:10795  pairsInfo[_pair] */\n      0x00\n      dup9\n      dup2\n      mstore\n        /* \"contracts/Market.sol\":10779:10788  pairsInfo */\n      0x0a\n        /* \"contracts/Market.sol\":10779:10795  pairsInfo[_pair] */\n      0x20\n      mstore\n      0x40\n      swap1\n      keccak256\n        /* \"contracts/Market.sol\":10779:10803  pairsInfo[_pair].amountB */\n      0x03\n      add\n      sload\n        /* \"contracts/Market.sol\":10779:10823  pairsInfo[_pair].amountB * (100 - app.vig()) */\n      tag_324\n      swap2\n      swap1\n      tag_193\n      jump\t// in\n    tag_324:\n        /* \"contracts/Market.sol\":10779:10829  pairsInfo[_pair].amountB * (100 - app.vig()) / 100 */\n      tag_325\n      swap2\n      swap1\n      tag_195\n      jump\t// in\n    tag_325:\n        /* \"contracts/Market.sol\":10751:10767  pairsInfo[_pair] */\n      0x00\n      dup8\n      dup2\n      mstore\n        /* \"contracts/Market.sol\":10751:10760  pairsInfo */\n      0x0a\n        /* \"contracts/Market.sol\":10751:10767  pairsInfo[_pair] */\n      0x20\n      mstore\n      0x40\n      swap1\n      keccak256\n        /* \"contracts/Market.sol\":10751:10775  pairsInfo[_pair].amountA */\n      0x02\n      add\n      sload\n        /* \"contracts/Market.sol\":10751:10830  pairsInfo[_pair].amountA + (pairsInfo[_pair].amountB * (100 - app.vig()) / 100) */\n      tag_326\n      swap2\n      swap1\n      tag_248\n      jump\t// in\n    tag_326:\n        /* \"contracts/Market.sol\":10739:10830  winAmount = pairsInfo[_pair].amountA + (pairsInfo[_pair].amountB * (100 - app.vig()) / 100) */\n      swap2\n      pop\n        /* \"contracts/Market.sol\":10895:10898  100 */\n      0x64\n        /* \"contracts/Market.sol\":10883:10886  app */\n      immutable(\"0x911a39fbf665a24ad3b6efc185d4b936bbda1900793ae2f7c00f4d18bdd96685\")\n      sub(shl(0xa0, 0x01), 0x01)\n        /* \"contracts/Market.sol\":10883:10890  app.vig */\n      and\n      0x55c4a8bf\n        /* \"contracts/Market.sol\":10883:10892  app.vig() */\n      mload(0x40)\n      dup2\n      0xffffffff\n      and\n      0xe0\n      shl\n      dup2\n      mstore\n      0x04\n      add\n      0x20\n      mload(0x40)\n      dup1\n      dup4\n      sub\n      dup2\n      dup7\n      dup1\n      extcodesize\n      iszero\n      dup1\n      iszero\n      tag_327\n      jumpi\n      0x00\n      dup1\n      revert\n    tag_327:\n      pop\n      gas\n      staticcall\n      iszero\n      dup1\n      iszero\n      tag_329\n      jumpi\n      returndatasize\n      0x00\n      dup1\n      returndatacopy\n      revert(0x00, returndatasize)\n    tag_329:\n      pop\n      pop\n      pop\n      pop\n      mload(0x40)\n      returndatasize\n      not(0x1f)\n      0x1f\n      dup3\n      add\n      and\n      dup3\n      add\n      dup1\n      0x40\n      mstore\n      pop\n      dup2\n      add\n      swap1\n      tag_330\n      swap2\n      swap1\n      tag_100\n      jump\t// in\n    tag_330:\n        /* \"contracts/Market.sol\":10856:10872  pairsInfo[_pair] */\n      0x00\n      dup9\n      dup2\n      mstore\n        /* \"contracts/Market.sol\":10856:10865  pairsInfo */\n      0x0a\n        /* \"contracts/Market.sol\":10856:10872  pairsInfo[_pair] */\n      0x20\n      mstore\n      0x40\n      swap1\n      keccak256\n        /* \"contracts/Market.sol\":10856:10880  pairsInfo[_pair].amountB */\n      0x03\n      add\n      sload\n        /* \"contracts/Market.sol\":10856:10892  pairsInfo[_pair].amountB * app.vig() */\n      tag_331\n      swap2\n      swap1\n      tag_193\n      jump\t// in\n    tag_331:\n        /* \"contracts/Market.sol\":10856:10898  pairsInfo[_pair].amountB * app.vig() / 100 */\n      tag_332\n      swap2\n      swap1\n      tag_195\n      jump\t// in\n    tag_332:\n        /* \"contracts/Market.sol\":10924:10959  betsInfo[pairsInfo[_pair].betHashA] */\n      0x00\n        /* \"contracts/Market.sol\":10933:10949  pairsInfo[_pair] */\n      dup8\n      dup2\n      mstore\n        /* \"contracts/Market.sol\":10933:10942  pairsInfo */\n      0x0a\n        /* \"contracts/Market.sol\":10933:10949  pairsInfo[_pair] */\n      0x20\n      swap1\n      dup2\n      mstore\n      0x40\n      dup1\n      dup4\n      keccak256\n        /* \"contracts/Market.sol\":10933:10958  pairsInfo[_pair].betHashA */\n      sload\n        /* \"contracts/Market.sol\":10924:10959  betsInfo[pairsInfo[_pair].betHashA] */\n      dup4\n      mstore\n        /* \"contracts/Market.sol\":10924:10932  betsInfo */\n      0x08\n        /* \"contracts/Market.sol\":10924:10959  betsInfo[pairsInfo[_pair].betHashA] */\n      swap1\n      swap2\n      mstore\n      swap1\n      keccak256\n        /* \"contracts/Market.sol\":10924:10969  betsInfo[pairsInfo[_pair].betHashA].affiliate */\n      0x01\n      add\n      sload\n      sub(shl(0xa0, 0x01), 0x01)\n      and\n      swap4\n      pop\n        /* \"contracts/Market.sol\":10844:10898  vigAmount = pairsInfo[_pair].amountB * app.vig() / 100 */\n      swap1\n      pop\n        /* \"contracts/Market.sol\":10645:11379  if(status == 1){... */\n      jump(tag_349)\n    tag_318:\n        /* \"contracts/Market.sol\":10997:11003  status */\n      sload(0x03)\n        /* \"contracts/Market.sol\":11007:11008  2 */\n      0x02\n        /* \"contracts/Market.sol\":10997:11008  status == 2 */\n      eq\n        /* \"contracts/Market.sol\":10994:11379  if(status == 2){... */\n      iszero\n      tag_334\n      jumpi\n        /* \"contracts/Market.sol\":11032:11067  betsInfo[pairsInfo[_pair].betHashB] */\n      0x00\n        /* \"contracts/Market.sol\":11041:11057  pairsInfo[_pair] */\n      dup7\n      dup2\n      mstore\n        /* \"contracts/Market.sol\":11041:11050  pairsInfo */\n      0x0a\n        /* \"contracts/Market.sol\":11041:11057  pairsInfo[_pair] */\n      0x20\n      swap1\n      dup2\n      mstore\n      0x40\n      dup1\n      dup4\n      keccak256\n        /* \"contracts/Market.sol\":11041:11066  pairsInfo[_pair].betHashB */\n      0x01\n      add\n      sload\n        /* \"contracts/Market.sol\":11032:11067  betsInfo[pairsInfo[_pair].betHashB] */\n      dup4\n      mstore\n        /* \"contracts/Market.sol\":11032:11040  betsInfo */\n      0x08\n        /* \"contracts/Market.sol\":11032:11067  betsInfo[pairsInfo[_pair].betHashB] */\n      dup3\n      mstore\n      swap2\n      dup3\n      swap1\n      keccak256\n        /* \"contracts/Market.sol\":11032:11074  betsInfo[pairsInfo[_pair].betHashB].better */\n      sload\n        /* \"contracts/Market.sol\":11162:11171  app.vig() */\n      dup3\n      mload\n      shl(0xe0, 0x55c4a8bf)\n      dup2\n      mstore\n      swap3\n      mload\n      sub(shl(0xa0, 0x01), 0x01)\n        /* \"contracts/Market.sol\":11032:11074  betsInfo[pairsInfo[_pair].betHashB].better */\n      swap2\n      dup3\n      and\n      swap8\n      pop\n        /* \"contracts/Market.sol\":11175:11178  100 */\n      0x64\n      swap4\n        /* \"contracts/Market.sol\":11162:11165  app */\n      immutable(\"0x911a39fbf665a24ad3b6efc185d4b936bbda1900793ae2f7c00f4d18bdd96685\")\n        /* \"contracts/Market.sol\":11162:11169  app.vig */\n      swap1\n      swap3\n      and\n      swap3\n      0x55c4a8bf\n      swap3\n        /* \"contracts/Market.sol\":11162:11171  app.vig() */\n      0x04\n      dup1\n      dup3\n      add\n      swap4\n      swap2\n      dup3\n      swap1\n      sub\n      add\n      dup2\n        /* \"contracts/Market.sol\":11162:11169  app.vig */\n      dup7\n        /* \"contracts/Market.sol\":11162:11171  app.vig() */\n      dup1\n      extcodesize\n      iszero\n      dup1\n      iszero\n      tag_335\n      jumpi\n      0x00\n      dup1\n      revert\n    tag_335:\n      pop\n      gas\n      staticcall\n      iszero\n      dup1\n      iszero\n      tag_337\n      jumpi\n      returndatasize\n      0x00\n      dup1\n      returndatacopy\n      revert(0x00, returndatasize)\n    tag_337:\n      pop\n      pop\n      pop\n      pop\n      mload(0x40)\n      returndatasize\n      not(0x1f)\n      0x1f\n      dup3\n      add\n      and\n      dup3\n      add\n      dup1\n      0x40\n      mstore\n      pop\n      dup2\n      add\n      swap1\n      tag_338\n      swap2\n      swap1\n      tag_100\n      jump\t// in\n    tag_338:\n        /* \"contracts/Market.sol\":11156:11171  100 - app.vig() */\n      tag_339\n      swap1\n        /* \"contracts/Market.sol\":11156:11159  100 */\n      0x64\n        /* \"contracts/Market.sol\":11156:11171  100 - app.vig() */\n      tag_106\n      jump\t// in\n    tag_339:\n        /* \"contracts/Market.sol\":11128:11144  pairsInfo[_pair] */\n      0x00\n      dup9\n      dup2\n      mstore\n        /* \"contracts/Market.sol\":11128:11137  pairsInfo */\n      0x0a\n        /* \"contracts/Market.sol\":11128:11144  pairsInfo[_pair] */\n      0x20\n      mstore\n      0x40\n      swap1\n      keccak256\n        /* \"contracts/Market.sol\":11128:11152  pairsInfo[_pair].amountA */\n      0x02\n      add\n      sload\n        /* \"contracts/Market.sol\":11128:11172  pairsInfo[_pair].amountA * (100 - app.vig()) */\n      tag_340\n      swap2\n      swap1\n      tag_193\n      jump\t// in\n    tag_340:\n        /* \"contracts/Market.sol\":11128:11178  pairsInfo[_pair].amountA * (100 - app.vig()) / 100 */\n      tag_341\n      swap2\n      swap1\n      tag_195\n      jump\t// in\n    tag_341:\n        /* \"contracts/Market.sol\":11100:11116  pairsInfo[_pair] */\n      0x00\n      dup8\n      dup2\n      mstore\n        /* \"contracts/Market.sol\":11100:11109  pairsInfo */\n      0x0a\n        /* \"contracts/Market.sol\":11100:11116  pairsInfo[_pair] */\n      0x20\n      mstore\n      0x40\n      swap1\n      keccak256\n        /* \"contracts/Market.sol\":11100:11124  pairsInfo[_pair].amountB */\n      0x03\n      add\n      sload\n        /* \"contracts/Market.sol\":11100:11179  pairsInfo[_pair].amountB + (pairsInfo[_pair].amountA * (100 - app.vig()) / 100) */\n      tag_342\n      swap2\n      swap1\n      tag_248\n      jump\t// in\n    tag_342:\n        /* \"contracts/Market.sol\":11088:11179  winAmount = pairsInfo[_pair].amountB + (pairsInfo[_pair].amountA * (100 - app.vig()) / 100) */\n      swap2\n      pop\n        /* \"contracts/Market.sol\":11244:11247  100 */\n      0x64\n        /* \"contracts/Market.sol\":11232:11235  app */\n      immutable(\"0x911a39fbf665a24ad3b6efc185d4b936bbda1900793ae2f7c00f4d18bdd96685\")\n      sub(shl(0xa0, 0x01), 0x01)\n        /* \"contracts/Market.sol\":11232:11239  app.vig */\n      and\n      0x55c4a8bf\n        /* \"contracts/Market.sol\":11232:11241  app.vig() */\n      mload(0x40)\n      dup2\n      0xffffffff\n      and\n      0xe0\n      shl\n      dup2\n      mstore\n      0x04\n      add\n      0x20\n      mload(0x40)\n      dup1\n      dup4\n      sub\n      dup2\n      dup7\n      dup1\n      extcodesize\n      iszero\n      dup1\n      iszero\n      tag_343\n      jumpi\n      0x00\n      dup1\n      revert\n    tag_343:\n      pop\n      gas\n      staticcall\n      iszero\n      dup1\n      iszero\n      tag_345\n      jumpi\n      returndatasize\n      0x00\n      dup1\n      returndatacopy\n      revert(0x00, returndatasize)\n    tag_345:\n      pop\n      pop\n      pop\n      pop\n      mload(0x40)\n      returndatasize\n      not(0x1f)\n      0x1f\n      dup3\n      add\n      and\n      dup3\n      add\n      dup1\n      0x40\n      mstore\n      pop\n      dup2\n      add\n      swap1\n      tag_346\n      swap2\n      swap1\n      tag_100\n      jump\t// in\n    tag_346:\n        /* \"contracts/Market.sol\":11205:11221  pairsInfo[_pair] */\n      0x00\n      dup9\n      dup2\n      mstore\n        /* \"contracts/Market.sol\":11205:11214  pairsInfo */\n      0x0a\n        /* \"contracts/Market.sol\":11205:11221  pairsInfo[_pair] */\n      0x20\n      mstore\n      0x40\n      swap1\n      keccak256\n        /* \"contracts/Market.sol\":11205:11229  pairsInfo[_pair].amountA */\n      0x02\n      add\n      sload\n        /* \"contracts/Market.sol\":11205:11241  pairsInfo[_pair].amountA * app.vig() */\n      tag_347\n      swap2\n      swap1\n      tag_193\n      jump\t// in\n    tag_347:\n        /* \"contracts/Market.sol\":11205:11247  pairsInfo[_pair].amountA * app.vig() / 100 */\n      tag_348\n      swap2\n      swap1\n      tag_195\n      jump\t// in\n    tag_348:\n        /* \"contracts/Market.sol\":11273:11308  betsInfo[pairsInfo[_pair].betHashB] */\n      0x00\n        /* \"contracts/Market.sol\":11282:11298  pairsInfo[_pair] */\n      dup8\n      dup2\n      mstore\n        /* \"contracts/Market.sol\":11282:11291  pairsInfo */\n      0x0a\n        /* \"contracts/Market.sol\":11282:11298  pairsInfo[_pair] */\n      0x20\n      swap1\n      dup2\n      mstore\n      0x40\n      dup1\n      dup4\n      keccak256\n        /* \"contracts/Market.sol\":11282:11307  pairsInfo[_pair].betHashB */\n      0x01\n      swap1\n      dup2\n      add\n      sload\n        /* \"contracts/Market.sol\":11273:11308  betsInfo[pairsInfo[_pair].betHashB] */\n      dup5\n      mstore\n        /* \"contracts/Market.sol\":11273:11281  betsInfo */\n      0x08\n        /* \"contracts/Market.sol\":11273:11308  betsInfo[pairsInfo[_pair].betHashB] */\n      swap1\n      swap3\n      mstore\n      swap1\n      swap2\n      keccak256\n        /* \"contracts/Market.sol\":11273:11318  betsInfo[pairsInfo[_pair].betHashB].affiliate */\n      add\n      sload\n      sub(shl(0xa0, 0x01), 0x01)\n      and\n      swap4\n      pop\n        /* \"contracts/Market.sol\":11193:11247  vigAmount = pairsInfo[_pair].amountA * app.vig() / 100 */\n      swap1\n      pop\n        /* \"contracts/Market.sol\":10994:11379  if(status == 2){... */\n      jump(tag_349)\n    tag_334:\n        /* \"contracts/Market.sol\":11363:11368  false */\n      0x00\n        /* \"contracts/Market.sol\":11356:11368  return false */\n      swap5\n      pop\n      pop\n      pop\n      pop\n      pop\n      jump(tag_93)\n        /* \"contracts/Market.sol\":10994:11379  if(status == 2){... */\n    tag_349:\n      sub(shl(0xa0, 0x01), 0x01)\n        /* \"contracts/Market.sol\":11391:11414  affiliate == address(0) */\n      dup4\n      and\n        /* \"contracts/Market.sol\":11388:11465  if(affiliate == address(0)){... */\n      tag_350\n      jumpi\n        /* \"contracts/Market.sol\":11441:11444  app */\n      immutable(\"0x911a39fbf665a24ad3b6efc185d4b936bbda1900793ae2f7c00f4d18bdd96685\")\n      sub(shl(0xa0, 0x01), 0x01)\n        /* \"contracts/Market.sol\":11441:11452  app.ecoAddr */\n      and\n      0x09953b2f\n        /* \"contracts/Market.sol\":11441:11454  app.ecoAddr() */\n      mload(0x40)\n      dup2\n      0xffffffff\n      and\n      0xe0\n      shl\n      dup2\n      mstore\n      0x04\n      add\n      0x20\n      mload(0x40)\n      dup1\n      dup4\n      sub\n      dup2\n      dup7\n      dup1\n      extcodesize\n      iszero\n      dup1\n      iszero\n      tag_351\n      jumpi\n      0x00\n      dup1\n      revert\n    tag_351:\n      pop\n      gas\n      staticcall\n      iszero\n      dup1\n      iszero\n      tag_353\n      jumpi\n      returndatasize\n      0x00\n      dup1\n      returndatacopy\n      revert(0x00, returndatasize)\n    tag_353:\n      pop\n      pop\n      pop\n      pop\n      mload(0x40)\n      returndatasize\n      not(0x1f)\n      0x1f\n      dup3\n      add\n      and\n      dup3\n      add\n      dup1\n      0x40\n      mstore\n      pop\n      dup2\n      add\n      swap1\n      tag_354\n      swap2\n      swap1\n      tag_136\n      jump\t// in\n    tag_354:\n        /* \"contracts/Market.sol\":11429:11454  affiliate = app.ecoAddr() */\n      swap3\n      pop\n        /* \"contracts/Market.sol\":11388:11465  if(affiliate == address(0)){... */\n    tag_350:\n      sub(shl(0xa0, 0x01), 0x01)\n        /* \"contracts/Market.sol\":11474:11485  bal[winner] */\n      dup5\n      and\n      0x00\n      swap1\n      dup2\n      mstore\n        /* \"contracts/Market.sol\":11474:11477  bal */\n      0x07\n        /* \"contracts/Market.sol\":11474:11485  bal[winner] */\n      0x20\n      mstore\n      0x40\n      dup2\n      keccak256\n        /* \"contracts/Market.sol\":11474:11498  bal[winner] += winAmount */\n      dup1\n      sload\n        /* \"contracts/Market.sol\":11489:11498  winAmount */\n      dup5\n      swap3\n        /* \"contracts/Market.sol\":11474:11485  bal[winner] */\n      swap1\n        /* \"contracts/Market.sol\":11474:11498  bal[winner] += winAmount */\n      tag_355\n      swap1\n        /* \"contracts/Market.sol\":11489:11498  winAmount */\n      dup5\n      swap1\n        /* \"contracts/Market.sol\":11474:11498  bal[winner] += winAmount */\n      tag_248\n      jump\t// in\n    tag_355:\n      swap3\n      pop\n      pop\n      dup2\n      swap1\n      sstore\n      pop\n        /* \"contracts/Market.sol\":11556:11559  100 */\n      0x64\n        /* \"contracts/Market.sol\":11543:11546  app */\n      immutable(\"0x911a39fbf665a24ad3b6efc185d4b936bbda1900793ae2f7c00f4d18bdd96685\")\n      sub(shl(0xa0, 0x01), 0x01)\n        /* \"contracts/Market.sol\":11543:11551  app.hVig */\n      and\n      0x6a0ccd9d\n        /* \"contracts/Market.sol\":11543:11553  app.hVig() */\n      mload(0x40)\n      dup2\n      0xffffffff\n      and\n      0xe0\n      shl\n      dup2\n      mstore\n      0x04\n      add\n      0x20\n      mload(0x40)\n      dup1\n      dup4\n      sub\n      dup2\n      dup7\n      dup1\n      extcodesize\n      iszero\n      dup1\n      iszero\n      tag_356\n      jumpi\n      0x00\n      dup1\n      revert\n    tag_356:\n      pop\n      gas\n      staticcall\n      iszero\n      dup1\n      iszero\n      tag_358\n      jumpi\n      returndatasize\n      0x00\n      dup1\n      returndatacopy\n      revert(0x00, returndatasize)\n    tag_358:\n      pop\n      pop\n      pop\n      pop\n      mload(0x40)\n      returndatasize\n      not(0x1f)\n      0x1f\n      dup3\n      add\n      and\n      dup3\n      add\n      dup1\n      0x40\n      mstore\n      pop\n      dup2\n      add\n      swap1\n      tag_359\n      swap2\n      swap1\n      tag_100\n      jump\t// in\n    tag_359:\n        /* \"contracts/Market.sol\":11531:11553  vigAmount * app.hVig() */\n      tag_360\n      swap1\n        /* \"contracts/Market.sol\":11531:11540  vigAmount */\n      dup4\n        /* \"contracts/Market.sol\":11531:11553  vigAmount * app.hVig() */\n      tag_193\n      jump\t// in\n    tag_360:\n        /* \"contracts/Market.sol\":11531:11559  vigAmount * app.hVig() / 100 */\n      tag_361\n      swap2\n      swap1\n      tag_195\n      jump\t// in\n    tag_361:\n        /* \"contracts/Market.sol\":11508:11511  bal */\n      0x07\n        /* \"contracts/Market.sol\":11508:11527  bal[app.holdAddr()] */\n      0x00\n        /* \"contracts/Market.sol\":11512:11515  app */\n      immutable(\"0x911a39fbf665a24ad3b6efc185d4b936bbda1900793ae2f7c00f4d18bdd96685\")\n      sub(shl(0xa0, 0x01), 0x01)\n        /* \"contracts/Market.sol\":11512:11524  app.holdAddr */\n      and\n      0xb7640a54\n        /* \"contracts/Market.sol\":11512:11526  app.holdAddr() */\n      mload(0x40)\n      dup2\n      0xffffffff\n      and\n      0xe0\n      shl\n      dup2\n      mstore\n      0x04\n      add\n      0x20\n      mload(0x40)\n      dup1\n      dup4\n      sub\n      dup2\n      dup7\n      dup1\n      extcodesize\n      iszero\n      dup1\n      iszero\n      tag_362\n      jumpi\n      0x00\n      dup1\n      revert\n    tag_362:\n      pop\n      gas\n      staticcall\n      iszero\n      dup1\n      iszero\n      tag_364\n      jumpi\n      returndatasize\n      0x00\n      dup1\n      returndatacopy\n      revert(0x00, returndatasize)\n    tag_364:\n      pop\n      pop\n      pop\n      pop\n      mload(0x40)\n      returndatasize\n      not(0x1f)\n      0x1f\n      dup3\n      add\n      and\n      dup3\n      add\n      dup1\n      0x40\n      mstore\n      pop\n      dup2\n      add\n      swap1\n      tag_365\n      swap2\n      swap1\n      tag_136\n      jump\t// in\n    tag_365:\n      sub(shl(0xa0, 0x01), 0x01)\n        /* \"contracts/Market.sol\":11508:11527  bal[app.holdAddr()] */\n      and\n      sub(shl(0xa0, 0x01), 0x01)\n      and\n      dup2\n      mstore\n      0x20\n      add\n      swap1\n      dup2\n      mstore\n      0x20\n      add\n      0x00\n      keccak256\n      0x00\n        /* \"contracts/Market.sol\":11508:11559  bal[app.holdAddr()] += vigAmount * app.hVig() / 100 */\n      dup3\n      dup3\n      sload\n      tag_366\n      swap2\n      swap1\n      tag_248\n      jump\t// in\n    tag_366:\n      swap3\n      pop\n      pop\n      dup2\n      swap1\n      sstore\n      pop\n        /* \"contracts/Market.sol\":11616:11619  100 */\n      0x64\n        /* \"contracts/Market.sol\":11603:11606  app */\n      immutable(\"0x911a39fbf665a24ad3b6efc185d4b936bbda1900793ae2f7c00f4d18bdd96685\")\n      sub(shl(0xa0, 0x01), 0x01)\n        /* \"contracts/Market.sol\":11603:11611  app.eVig */\n      and\n      0x28576d45\n        /* \"contracts/Market.sol\":11603:11613  app.eVig() */\n      mload(0x40)\n      dup2\n      0xffffffff\n      and\n      0xe0\n      shl\n      dup2\n      mstore\n      0x04\n      add\n      0x20\n      mload(0x40)\n      dup1\n      dup4\n      sub\n      dup2\n      dup7\n      dup1\n      extcodesize\n      iszero\n      dup1\n      iszero\n      tag_367\n      jumpi\n      0x00\n      dup1\n      revert\n    tag_367:\n      pop\n      gas\n      staticcall\n      iszero\n      dup1\n      iszero\n      tag_369\n      jumpi\n      returndatasize\n      0x00\n      dup1\n      returndatacopy\n      revert(0x00, returndatasize)\n    tag_369:\n      pop\n      pop\n      pop\n      pop\n      mload(0x40)\n      returndatasize\n      not(0x1f)\n      0x1f\n      dup3\n      add\n      and\n      dup3\n      add\n      dup1\n      0x40\n      mstore\n      pop\n      dup2\n      add\n      swap1\n      tag_370\n      swap2\n      swap1\n      tag_100\n      jump\t// in\n    tag_370:\n        /* \"contracts/Market.sol\":11591:11613  vigAmount * app.eVig() */\n      tag_371\n      swap1\n        /* \"contracts/Market.sol\":11591:11600  vigAmount */\n      dup4\n        /* \"contracts/Market.sol\":11591:11613  vigAmount * app.eVig() */\n      tag_193\n      jump\t// in\n    tag_371:\n        /* \"contracts/Market.sol\":11591:11619  vigAmount * app.eVig() / 100 */\n      tag_372\n      swap2\n      swap1\n      tag_195\n      jump\t// in\n    tag_372:\n        /* \"contracts/Market.sol\":11569:11572  bal */\n      0x07\n        /* \"contracts/Market.sol\":11569:11587  bal[app.ecoAddr()] */\n      0x00\n        /* \"contracts/Market.sol\":11573:11576  app */\n      immutable(\"0x911a39fbf665a24ad3b6efc185d4b936bbda1900793ae2f7c00f4d18bdd96685\")\n      sub(shl(0xa0, 0x01), 0x01)\n        /* \"contracts/Market.sol\":11573:11584  app.ecoAddr */\n      and\n      0x09953b2f\n        /* \"contracts/Market.sol\":11573:11586  app.ecoAddr() */\n      mload(0x40)\n      dup2\n      0xffffffff\n      and\n      0xe0\n      shl\n      dup2\n      mstore\n      0x04\n      add\n      0x20\n      mload(0x40)\n      dup1\n      dup4\n      sub\n      dup2\n      dup7\n      dup1\n      extcodesize\n      iszero\n      dup1\n      iszero\n      tag_373\n      jumpi\n      0x00\n      dup1\n      revert\n    tag_373:\n      pop\n      gas\n      staticcall\n      iszero\n      dup1\n      iszero\n      tag_375\n      jumpi\n      returndatasize\n      0x00\n      dup1\n      returndatacopy\n      revert(0x00, returndatasize)\n    tag_375:\n      pop\n      pop\n      pop\n      pop\n      mload(0x40)\n      returndatasize\n      not(0x1f)\n      0x1f\n      dup3\n      add\n      and\n      dup3\n      add\n      dup1\n      0x40\n      mstore\n      pop\n      dup2\n      add\n      swap1\n      tag_376\n      swap2\n      swap1\n      tag_136\n      jump\t// in\n    tag_376:\n      sub(shl(0xa0, 0x01), 0x01)\n        /* \"contracts/Market.sol\":11569:11587  bal[app.ecoAddr()] */\n      and\n      sub(shl(0xa0, 0x01), 0x01)\n      and\n      dup2\n      mstore\n      0x20\n      add\n      swap1\n      dup2\n      mstore\n      0x20\n      add\n      0x00\n      keccak256\n      0x00\n        /* \"contracts/Market.sol\":11569:11619  bal[app.ecoAddr()] += vigAmount * app.eVig() / 100 */\n      dup3\n      dup3\n      sload\n      tag_377\n      swap2\n      swap1\n      tag_248\n      jump\t// in\n    tag_377:\n      swap3\n      pop\n      pop\n      dup2\n      swap1\n      sstore\n      pop\n        /* \"contracts/Market.sol\":11672:11675  100 */\n      0x64\n        /* \"contracts/Market.sol\":11659:11662  app */\n      immutable(\"0x911a39fbf665a24ad3b6efc185d4b936bbda1900793ae2f7c00f4d18bdd96685\")\n      sub(shl(0xa0, 0x01), 0x01)\n        /* \"contracts/Market.sol\":11659:11667  app.aVig */\n      and\n      0x54cd1a5c\n        /* \"contracts/Market.sol\":11659:11669  app.aVig() */\n      mload(0x40)\n      dup2\n      0xffffffff\n      and\n      0xe0\n      shl\n      dup2\n      mstore\n      0x04\n      add\n      0x20\n      mload(0x40)\n      dup1\n      dup4\n      sub\n      dup2\n      dup7\n      dup1\n      extcodesize\n      iszero\n      dup1\n      iszero\n      tag_378\n      jumpi\n      0x00\n      dup1\n      revert\n    tag_378:\n      pop\n      gas\n      staticcall\n      iszero\n      dup1\n      iszero\n      tag_380\n      jumpi\n      returndatasize\n      0x00\n      dup1\n      returndatacopy\n      revert(0x00, returndatasize)\n    tag_380:\n      pop\n      pop\n      pop\n      pop\n      mload(0x40)\n      returndatasize\n      not(0x1f)\n      0x1f\n      dup3\n      add\n      and\n      dup3\n      add\n      dup1\n      0x40\n      mstore\n      pop\n      dup2\n      add\n      swap1\n      tag_381\n      swap2\n      swap1\n      tag_100\n      jump\t// in\n    tag_381:\n        /* \"contracts/Market.sol\":11647:11669  vigAmount * app.aVig() */\n      tag_382\n      swap1\n        /* \"contracts/Market.sol\":11647:11656  vigAmount */\n      dup4\n        /* \"contracts/Market.sol\":11647:11669  vigAmount * app.aVig() */\n      tag_193\n      jump\t// in\n    tag_382:\n        /* \"contracts/Market.sol\":11647:11675  vigAmount * app.aVig() / 100 */\n      tag_383\n      swap2\n      swap1\n      tag_195\n      jump\t// in\n    tag_383:\n      sub(shl(0xa0, 0x01), 0x01)\n        /* \"contracts/Market.sol\":11629:11643  bal[affiliate] */\n      dup5\n      and\n      0x00\n      swap1\n      dup2\n      mstore\n        /* \"contracts/Market.sol\":11629:11632  bal */\n      0x07\n        /* \"contracts/Market.sol\":11629:11643  bal[affiliate] */\n      0x20\n      mstore\n      0x40\n      dup2\n      keccak256\n        /* \"contracts/Market.sol\":11629:11675  bal[affiliate] += vigAmount * app.aVig() / 100 */\n      dup1\n      sload\n        /* \"contracts/Market.sol\":11629:11643  bal[affiliate] */\n      swap1\n      swap2\n      swap1\n        /* \"contracts/Market.sol\":11629:11675  bal[affiliate] += vigAmount * app.aVig() / 100 */\n      tag_384\n      swap1\n      dup5\n      swap1\n      tag_248\n      jump\t// in\n    tag_384:\n      swap1\n      swap2\n      sstore\n      pop\n      pop\n      pop\n        /* \"contracts/Market.sol\":11685:11701  pairsInfo[_pair] */\n      0x00\n      swap5\n      dup6\n      mstore\n      pop\n      pop\n        /* \"contracts/Market.sol\":11685:11694  pairsInfo */\n      0x0a\n        /* \"contracts/Market.sol\":11685:11701  pairsInfo[_pair] */\n      0x20\n      mstore\n      pop\n      pop\n      0x40\n      dup2\n      keccak256\n        /* \"contracts/Market.sol\":11685:11709  pairsInfo[_pair].settled */\n      0x04\n      add\n        /* \"contracts/Market.sol\":11685:11716  pairsInfo[_pair].settled = true */\n      dup1\n      sload\n      not(0xff)\n      and\n        /* \"contracts/Market.sol\":11712:11716  true */\n      0x01\n        /* \"contracts/Market.sol\":11685:11716  pairsInfo[_pair].settled = true */\n      swap1\n      dup2\n      or\n      swap1\n      swap2\n      sstore\n        /* \"@openzeppelin/contracts/security/ReentrancyGuard.sol\":2628:2650  _status = _NOT_ENTERED */\n      swap1\n      dup2\n      swap1\n      sstore\n        /* \"contracts/Market.sol\":11712:11716  true */\n      swap1\n        /* \"contracts/Market.sol\":10385:11744  function _settlePair(bytes32 _pair) private nonReentrant returns(bool) {... */\n      jump\t// out\n        /* \"contracts/Market.sol\":10027:10375  function _cancelPair(bytes32 _pair) private {... */\n    tag_150:\n        /* \"contracts/Market.sol\":10081:10096  address betterA */\n      0x00\n        /* \"contracts/Market.sol\":10108:10124  pairsInfo[_pair] */\n      dup2\n      dup2\n      mstore\n        /* \"contracts/Market.sol\":10108:10117  pairsInfo */\n      0x0a\n        /* \"contracts/Market.sol\":10108:10124  pairsInfo[_pair] */\n      0x20\n      swap1\n      dup2\n      mstore\n      0x40\n      dup1\n      dup4\n      keccak256\n        /* \"contracts/Market.sol\":10108:10133  pairsInfo[_pair].betHashA */\n      dup1\n      sload\n        /* \"contracts/Market.sol\":10099:10134  betsInfo[pairsInfo[_pair].betHashA] */\n      dup5\n      mstore\n        /* \"contracts/Market.sol\":10099:10107  betsInfo */\n      0x08\n        /* \"contracts/Market.sol\":10099:10134  betsInfo[pairsInfo[_pair].betHashA] */\n      dup4\n      mstore\n      dup2\n      dup5\n      keccak256\n        /* \"contracts/Market.sol\":10099:10141  betsInfo[pairsInfo[_pair].betHashA].better */\n      sload\n      0x01\n        /* \"contracts/Market.sol\":10178:10203  pairsInfo[_pair].betHashB */\n      dup3\n      add\n      sload\n        /* \"contracts/Market.sol\":10169:10204  betsInfo[pairsInfo[_pair].betHashB] */\n      dup6\n      mstore\n      dup3\n      dup6\n      keccak256\n        /* \"contracts/Market.sol\":10169:10211  betsInfo[pairsInfo[_pair].betHashB].better */\n      sload\n        /* \"contracts/Market.sol\":10237:10261  pairsInfo[_pair].amountA */\n      0x02\n      swap1\n      swap3\n      add\n      sload\n      sub(shl(0xa0, 0x01), 0x01)\n        /* \"contracts/Market.sol\":10099:10141  betsInfo[pairsInfo[_pair].betHashA].better */\n      swap2\n      dup3\n      and\n        /* \"contracts/Market.sol\":10221:10233  bal[betterA] */\n      dup1\n      dup8\n      mstore\n        /* \"contracts/Market.sol\":10221:10224  bal */\n      0x07\n        /* \"contracts/Market.sol\":10221:10233  bal[betterA] */\n      swap1\n      swap6\n      mstore\n      swap3\n      dup6\n      keccak256\n        /* \"contracts/Market.sol\":10221:10261  bal[betterA] += pairsInfo[_pair].amountA */\n      dup1\n      sload\n        /* \"contracts/Market.sol\":10099:10141  betsInfo[pairsInfo[_pair].betHashA].better */\n      swap5\n      swap6\n        /* \"contracts/Market.sol\":10169:10211  betsInfo[pairsInfo[_pair].betHashB].better */\n      swap2\n      swap1\n      swap3\n      and\n      swap4\n        /* \"contracts/Market.sol\":10221:10261  bal[betterA] += pairsInfo[_pair].amountA */\n      tag_386\n      swap1\n        /* \"contracts/Market.sol\":10237:10261  pairsInfo[_pair].amountA */\n      dup5\n      swap1\n        /* \"contracts/Market.sol\":10221:10261  bal[betterA] += pairsInfo[_pair].amountA */\n      tag_248\n      jump\t// in\n    tag_386:\n      swap1\n      swap2\n      sstore\n      pop\n      pop\n        /* \"contracts/Market.sol\":10287:10303  pairsInfo[_pair] */\n      0x00\n      dup4\n      dup2\n      mstore\n        /* \"contracts/Market.sol\":10287:10296  pairsInfo */\n      0x0a\n        /* \"contracts/Market.sol\":10287:10303  pairsInfo[_pair] */\n      0x20\n      swap1\n      dup2\n      mstore\n      0x40\n      dup1\n      dup4\n      keccak256\n        /* \"contracts/Market.sol\":10287:10311  pairsInfo[_pair].amountB */\n      0x03\n      add\n      sload\n      sub(shl(0xa0, 0x01), 0x01)\n        /* \"contracts/Market.sol\":10271:10283  bal[betterB] */\n      dup6\n      and\n      dup5\n      mstore\n        /* \"contracts/Market.sol\":10271:10274  bal */\n      0x07\n        /* \"contracts/Market.sol\":10271:10283  bal[betterB] */\n      swap1\n      swap3\n      mstore\n      dup3\n      keccak256\n        /* \"contracts/Market.sol\":10271:10311  bal[betterB] += pairsInfo[_pair].amountB */\n      dup1\n      sload\n        /* \"contracts/Market.sol\":10287:10311  pairsInfo[_pair].amountB */\n      swap2\n      swap3\n        /* \"contracts/Market.sol\":10271:10283  bal[betterB] */\n      swap1\n      swap2\n        /* \"contracts/Market.sol\":10271:10311  bal[betterB] += pairsInfo[_pair].amountB */\n      tag_387\n      swap1\n        /* \"contracts/Market.sol\":10287:10311  pairsInfo[_pair].amountB */\n      dup5\n      swap1\n        /* \"contracts/Market.sol\":10271:10311  bal[betterB] += pairsInfo[_pair].amountB */\n      tag_248\n      jump\t// in\n    tag_387:\n      swap1\n      swap2\n      sstore\n      pop\n      pop\n      pop\n        /* \"contracts/Market.sol\":10321:10337  pairsInfo[_pair] */\n      0x00\n      swap2\n      dup3\n      mstore\n      pop\n        /* \"contracts/Market.sol\":10321:10330  pairsInfo */\n      0x0a\n        /* \"contracts/Market.sol\":10321:10337  pairsInfo[_pair] */\n      0x20\n      mstore\n      0x40\n      swap1\n      keccak256\n        /* \"contracts/Market.sol\":10321:10345  pairsInfo[_pair].settled */\n      0x04\n      add\n        /* \"contracts/Market.sol\":10321:10352  pairsInfo[_pair].settled = true */\n      dup1\n      sload\n      not(0xff)\n      and\n        /* \"contracts/Market.sol\":10348:10352  true */\n      0x01\n        /* \"contracts/Market.sol\":10321:10352  pairsInfo[_pair].settled = true */\n      or\n      swap1\n      sstore\n        /* \"contracts/Market.sol\":10027:10375  function _cancelPair(bytes32 _pair) private {... */\n      jump\t// out\n        /* \"contracts/Market.sol\":11750:12557  function _createBet(... */\n    tag_196:\n        /* \"contracts/Market.sol\":11949:11956  bytes32 */\n      0x00\n        /* \"contracts/Market.sol\":11972:11987  bytes32 betHash */\n      dup1\n        /* \"contracts/Market.sol\":11997:12003  uint i */\n      0x00\n        /* \"contracts/Market.sol\":12017:12366  while(i >= 0){... */\n    tag_389:\n        /* \"contracts/Market.sol\":12154:12158  bets */\n      0x05\n        /* \"contracts/Market.sol\":12154:12165  bets.length */\n      sload\n        /* \"contracts/Market.sol\":12098:12105  _better */\n      dup10\n      swap1\n        /* \"contracts/Market.sol\":12131:12135  this */\n      address\n      swap1\n        /* \"contracts/Market.sol\":12172:12173  i */\n      dup4\n      swap1\n        /* \"contracts/Market.sol\":12154:12169  bets.length + 1 */\n      tag_391\n      swap1\n        /* \"contracts/Market.sol\":12168:12169  1 */\n      0x01\n        /* \"contracts/Market.sol\":12154:12169  bets.length + 1 */\n      tag_248\n      jump\t// in\n    tag_391:\n        /* \"contracts/Market.sol\":12154:12173  bets.length + 1 + i */\n      tag_392\n      swap2\n      swap1\n      tag_248\n      jump\t// in\n    tag_392:\n        /* \"contracts/Market.sol\":12064:12254  abi.encodePacked(... */\n      mload(0x40)\n      not(0xffffffffffffffffffffffff)\n        /* \"#utility.yul\":2447:2449   */\n      0x60\n        /* \"#utility.yul\":2443:2458   */\n      swap5\n      dup6\n      shl\n        /* \"#utility.yul\":2439:2463   */\n      dup2\n      and\n        /* \"contracts/Market.sol\":12064:12254  abi.encodePacked(... */\n      0x20\n      dup4\n      add\n        /* \"#utility.yul\":2427:2464   */\n      mstore\n        /* \"#utility.yul\":2498:2513   */\n      swap3\n      swap1\n      swap4\n      shl\n        /* \"#utility.yul\":2494:2518   */\n      swap1\n      swap2\n      and\n        /* \"#utility.yul\":2480:2492   */\n      0x34\n      dup4\n      add\n        /* \"#utility.yul\":2473:2519   */\n      mstore\n        /* \"#utility.yul\":2535:2547   */\n      0x48\n      dup3\n      add\n        /* \"#utility.yul\":2528:2556   */\n      mstore\n        /* \"contracts/Market.sol\":12191:12206  block.timestamp */\n      timestamp\n        /* \"#utility.yul\":2572:2584   */\n      0x68\n      dup3\n      add\n        /* \"#utility.yul\":2565:2593   */\n      mstore\n        /* \"contracts/Market.sol\":12224:12240  block.difficulty */\n      difficulty\n        /* \"#utility.yul\":2609:2622   */\n      0x88\n      dup3\n      add\n        /* \"#utility.yul\":2602:2631   */\n      mstore\n        /* \"#utility.yul\":2647:2660   */\n      0xa8\n      add\n        /* \"contracts/Market.sol\":12064:12254  abi.encodePacked(... */\n      0x40\n      dup1\n      mload\n      not(0x1f)\n      dup2\n      dup5\n      sub\n      add\n      dup2\n      mstore\n      swap2\n      dup2\n      mstore\n        /* \"contracts/Market.sol\":12054:12255  keccak256(abi.encodePacked(... */\n      dup2\n      mload\n        /* \"contracts/Market.sol\":12064:12254  abi.encodePacked(... */\n      0x20\n        /* \"contracts/Market.sol\":12054:12255  keccak256(abi.encodePacked(... */\n      swap3\n      dup4\n      add\n      keccak256\n        /* \"contracts/Market.sol\":12272:12289  betsInfo[betHash] */\n      0x00\n      dup2\n      dup2\n      mstore\n        /* \"contracts/Market.sol\":12272:12280  betsInfo */\n      0x08\n        /* \"contracts/Market.sol\":12272:12289  betsInfo[betHash] */\n      swap1\n      swap4\n      mstore\n      swap2\n      keccak256\n        /* \"contracts/Market.sol\":12272:12295  betsInfo[betHash].stake */\n      0x02\n      add\n      sload\n        /* \"contracts/Market.sol\":12054:12255  keccak256(abi.encodePacked(... */\n      swap1\n      swap3\n      pop\n        /* \"contracts/Market.sol\":12269:12339  if(betsInfo[betHash].stake == 0){... */\n      tag_395\n      jumpi\n        /* \"contracts/Market.sol\":12319:12324  break */\n      jump(tag_390)\n        /* \"contracts/Market.sol\":12269:12339  if(betsInfo[betHash].stake == 0){... */\n    tag_395:\n        /* \"contracts/Market.sol\":12352:12355  i++ */\n      dup1\n      tag_396\n      dup2\n      tag_79\n      jump\t// in\n    tag_396:\n      swap2\n      pop\n      pop\n        /* \"contracts/Market.sol\":12017:12366  while(i >= 0){... */\n      jump(tag_389)\n    tag_390:\n      pop\n        /* \"contracts/Market.sol\":12395:12457  MarketBet(_better, _affiliate, _stake, _matched, _odds, _side) */\n      0x40\n      dup1\n      mload\n      0xc0\n      dup2\n      add\n      dup3\n      mstore\n      sub(shl(0xa0, 0x01), 0x01)\n      swap10\n      dup11\n      and\n      dup1\n      dup3\n      mstore\n      swap9\n      dup11\n      and\n      0x20\n      dup1\n      dup4\n      add\n      swap2\n      dup3\n      mstore\n      dup3\n      dup5\n      add\n      swap10\n      dup11\n      mstore\n      0x60\n      dup4\n      add\n      swap9\n      dup10\n      mstore\n      0x80\n      dup4\n      add\n      swap8\n      dup9\n      mstore\n      0xa0\n      dup4\n      add\n      swap7\n      dup8\n      mstore\n      0x00\n        /* \"contracts/Market.sol\":12375:12392  betsInfo[betHash] */\n      dup6\n      dup2\n      mstore\n        /* \"contracts/Market.sol\":12375:12383  betsInfo */\n      0x08\n        /* \"contracts/Market.sol\":12375:12392  betsInfo[betHash] */\n      dup3\n      mstore\n      dup5\n      dup2\n      keccak256\n        /* \"contracts/Market.sol\":12375:12457  betsInfo[betHash] = MarketBet(_better, _affiliate, _stake, _matched, _odds, _side) */\n      swap4\n      mload\n      dup5\n      sload\n      swap1\n      dup15\n      and\n      not(sub(shl(0xa0, 0x01), 0x01))\n      swap2\n      dup3\n      and\n      or\n      dup6\n      sstore\n      swap3\n      mload\n      0x01\n      dup1\n      dup7\n      add\n      dup1\n      sload\n      swap3\n      swap1\n      swap16\n      and\n      swap2\n      swap1\n      swap5\n      and\n      or\n      swap1\n      swap13\n      sstore\n      swap9\n      mload\n      0x02\n      dup4\n      add\n      sstore\n      swap7\n      mload\n      0x03\n      dup3\n      add\n      sstore\n      swap5\n      mload\n      0x04\n      dup7\n      add\n      sstore\n      swap3\n      mload\n      0x05\n      swap5\n      dup6\n      add\n      sstore\n        /* \"contracts/Market.sol\":12467:12485  bets.push(betHash) */\n      dup4\n      sload\n      dup1\n      dup7\n      add\n      swap1\n      swap5\n      sstore\n      0x036b6384b5eca791c62761152d0c79bb0604c104a5fb6f4eb0703f3154bb3db0\n      swap1\n      swap4\n      add\n      dup4\n      swap1\n      sstore\n      pop\n        /* \"contracts/Market.sol\":12495:12512  userBets[_better] */\n      swap4\n      dup6\n      mstore\n        /* \"contracts/Market.sol\":12495:12503  userBets */\n      0x09\n        /* \"contracts/Market.sol\":12495:12512  userBets[_better] */\n      dup4\n      mstore\n      swap3\n      dup5\n      keccak256\n        /* \"contracts/Market.sol\":12495:12526  userBets[_better].push(betHash) */\n      dup1\n      sload\n      swap2\n      dup3\n      add\n      dup2\n      sstore\n      dup5\n      mstore\n      swap3\n      keccak256\n      swap1\n      swap2\n      add\n      dup2\n      swap1\n      sstore\n        /* \"contracts/Market.sol\":12375:12392  betsInfo[betHash] */\n      swap1\n        /* \"contracts/Market.sol\":11750:12557  function _createBet(... */\n      jump\t// out\n        /* \"contracts/Market.sol\":12563:13295  function _createPair(... */\n    tag_227:\n        /* \"contracts/Market.sol\":12721:12728  bytes32 */\n      0x00\n        /* \"contracts/Market.sol\":12744:12760  bytes32 pairHash */\n      dup1\n        /* \"contracts/Market.sol\":12770:12776  uint i */\n      0x00\n        /* \"contracts/Market.sol\":12790:13143  while(i >= 0){... */\n    tag_400:\n        /* \"contracts/Market.sol\":12926:12931  pairs */\n      0x04\n        /* \"contracts/Market.sol\":12926:12938  pairs.length */\n      sload\n        /* \"contracts/Market.sol\":12872:12881  _betHashA */\n      dup8\n      swap1\n        /* \"contracts/Market.sol\":12899:12908  _betHashB */\n      dup8\n      swap1\n        /* \"contracts/Market.sol\":12945:12946  i */\n      dup4\n      swap1\n        /* \"contracts/Market.sol\":12926:12942  pairs.length + 1 */\n      tag_402\n      swap1\n        /* \"contracts/Market.sol\":12941:12942  1 */\n      0x01\n        /* \"contracts/Market.sol\":12926:12942  pairs.length + 1 */\n      tag_248\n      jump\t// in\n    tag_402:\n        /* \"contracts/Market.sol\":12926:12946  pairs.length + 1 + i */\n      tag_403\n      swap2\n      swap1\n      tag_248\n      jump\t// in\n    tag_403:\n        /* \"contracts/Market.sol\":12838:13027  abi.encodePacked(... */\n      0x40\n      dup1\n      mload\n      0x20\n      dup2\n      add\n        /* \"#utility.yul\":2912:2931   */\n      swap5\n      swap1\n      swap5\n      mstore\n        /* \"#utility.yul\":2947:2959   */\n      dup4\n      add\n        /* \"#utility.yul\":2940:2968   */\n      swap2\n      swap1\n      swap2\n      mstore\n        /* \"#utility.yul\":2984:2996   */\n      0x60\n      dup3\n      add\n        /* \"#utility.yul\":2977:3005   */\n      mstore\n        /* \"contracts/Market.sol\":12964:12979  block.timestamp */\n      timestamp\n        /* \"#utility.yul\":3021:3033   */\n      0x80\n      dup3\n      add\n        /* \"#utility.yul\":3014:3042   */\n      mstore\n        /* \"contracts/Market.sol\":12997:13013  block.difficulty */\n      difficulty\n        /* \"#utility.yul\":3058:3071   */\n      0xa0\n      dup3\n      add\n        /* \"#utility.yul\":3051:3080   */\n      mstore\n        /* \"#utility.yul\":3096:3109   */\n      0xc0\n      add\n        /* \"contracts/Market.sol\":12838:13027  abi.encodePacked(... */\n      0x40\n      dup1\n      mload\n      not(0x1f)\n      dup2\n      dup5\n      sub\n      add\n      dup2\n      mstore\n      swap2\n      dup2\n      mstore\n        /* \"contracts/Market.sol\":12828:13028  keccak256(abi.encodePacked(... */\n      dup2\n      mload\n        /* \"contracts/Market.sol\":12838:13027  abi.encodePacked(... */\n      0x20\n        /* \"contracts/Market.sol\":12828:13028  keccak256(abi.encodePacked(... */\n      swap3\n      dup4\n      add\n      keccak256\n        /* \"contracts/Market.sol\":13045:13064  pairsInfo[pairHash] */\n      0x00\n      dup2\n      dup2\n      mstore\n        /* \"contracts/Market.sol\":13045:13054  pairsInfo */\n      0x0a\n        /* \"contracts/Market.sol\":13045:13064  pairsInfo[pairHash] */\n      swap1\n      swap4\n      mstore\n      swap2\n      keccak256\n        /* \"contracts/Market.sol\":13045:13072  pairsInfo[pairHash].amountA */\n      0x02\n      add\n      sload\n        /* \"contracts/Market.sol\":12828:13028  keccak256(abi.encodePacked(... */\n      swap1\n      swap3\n      pop\n        /* \"contracts/Market.sol\":13042:13116  if(pairsInfo[pairHash].amountA == 0){... */\n      tag_406\n      jumpi\n        /* \"contracts/Market.sol\":13096:13101  break */\n      jump(tag_401)\n        /* \"contracts/Market.sol\":13042:13116  if(pairsInfo[pairHash].amountA == 0){... */\n    tag_406:\n        /* \"contracts/Market.sol\":13129:13132  i++ */\n      dup1\n      tag_407\n      dup2\n      tag_79\n      jump\t// in\n    tag_407:\n      swap2\n      pop\n      pop\n        /* \"contracts/Market.sol\":12790:13143  while(i >= 0){... */\n      jump(tag_400)\n    tag_401:\n      pop\n        /* \"contracts/Market.sol\":13174:13233  MarketPair(_betHashA, _betHashB, _amountA, _amountB, false) */\n      0x40\n      dup1\n      mload\n      0xa0\n      dup2\n      add\n      dup3\n      mstore\n      swap7\n      dup8\n      mstore\n      0x20\n      dup1\n      dup9\n      add\n      swap7\n      dup8\n      mstore\n      dup8\n      dup3\n      add\n      swap6\n      dup7\n      mstore\n      0x60\n      dup9\n      add\n      swap5\n      dup6\n      mstore\n      0x00\n      0x80\n      dup10\n      add\n      dup2\n      dup2\n      mstore\n        /* \"contracts/Market.sol\":13152:13171  pairsInfo[pairHash] */\n      dup5\n      dup3\n      mstore\n        /* \"contracts/Market.sol\":13152:13161  pairsInfo */\n      0x0a\n        /* \"contracts/Market.sol\":13152:13171  pairsInfo[pairHash] */\n      swap1\n      swap3\n      mstore\n      swap2\n      dup3\n      keccak256\n        /* \"contracts/Market.sol\":13152:13233  pairsInfo[pairHash] = MarketPair(_betHashA, _betHashB, _amountA, _amountB, false) */\n      swap8\n      mload\n      dup9\n      sstore\n      swap6\n      mload\n        /* \"contracts/Market.sol\":13174:13233  MarketPair(_betHashA, _betHashB, _amountA, _amountB, false) */\n      0x01\n        /* \"contracts/Market.sol\":13152:13233  pairsInfo[pairHash] = MarketPair(_betHashA, _betHashB, _amountA, _amountB, false) */\n      dup1\n      dup10\n      add\n      swap2\n      swap1\n      swap2\n      sstore\n      swap5\n      mload\n      0x02\n      dup9\n      add\n      sstore\n      swap3\n      mload\n      0x03\n      dup8\n      add\n      sstore\n      swap4\n      mload\n      0x04\n      swap6\n      dup7\n      add\n      dup1\n      sload\n      not(0xff)\n      and\n      swap2\n      iszero\n      iszero\n      swap2\n      swap1\n      swap2\n      or\n      swap1\n      sstore\n      pop\n        /* \"contracts/Market.sol\":13243:13263  pairs.push(pairHash) */\n      dup4\n      sload\n      swap2\n      dup3\n      add\n      dup5\n      sstore\n      swap3\n      swap1\n      swap3\n      mstore\n      0x8a35acfbc15ff81a39ae7d344fd709f28e8600b4aa8c65c6b64bfe7fe36bd19b\n      swap1\n      swap2\n      add\n      dup2\n      swap1\n      sstore\n        /* \"contracts/Market.sol\":13152:13171  pairsInfo[pairHash] */\n      swap1\n        /* \"contracts/Market.sol\":12563:13295  function _createPair(... */\n      jump\t// out\n        /* \"#utility.yul\":14:271   */\n    tag_25:\n        /* \"#utility.yul\":73:79   */\n      0x00\n        /* \"#utility.yul\":126:128   */\n      0x20\n        /* \"#utility.yul\":114:123   */\n      dup3\n        /* \"#utility.yul\":105:112   */\n      dup5\n        /* \"#utility.yul\":101:124   */\n      sub\n        /* \"#utility.yul\":97:129   */\n      slt\n        /* \"#utility.yul\":94:96   */\n      iszero\n      tag_411\n      jumpi\n        /* \"#utility.yul\":147:153   */\n      dup1\n        /* \"#utility.yul\":139:145   */\n      dup2\n        /* \"#utility.yul\":132:154   */\n      revert\n        /* \"#utility.yul\":94:96   */\n    tag_411:\n        /* \"#utility.yul\":191:200   */\n      dup2\n        /* \"#utility.yul\":178:201   */\n      calldataload\n        /* \"#utility.yul\":210:241   */\n      tag_412\n        /* \"#utility.yul\":235:240   */\n      dup2\n        /* \"#utility.yul\":210:241   */\n      tag_413\n      jump\t// in\n    tag_412:\n        /* \"#utility.yul\":260:265   */\n      swap4\n        /* \"#utility.yul\":84:271   */\n      swap3\n      pop\n      pop\n      pop\n      jump\t// out\n        /* \"#utility.yul\":276:537   */\n    tag_136:\n        /* \"#utility.yul\":346:352   */\n      0x00\n        /* \"#utility.yul\":399:401   */\n      0x20\n        /* \"#utility.yul\":387:396   */\n      dup3\n        /* \"#utility.yul\":378:385   */\n      dup5\n        /* \"#utility.yul\":374:397   */\n      sub\n        /* \"#utility.yul\":370:402   */\n      slt\n        /* \"#utility.yul\":367:369   */\n      iszero\n      tag_415\n      jumpi\n        /* \"#utility.yul\":420:426   */\n      dup1\n        /* \"#utility.yul\":412:418   */\n      dup2\n        /* \"#utility.yul\":405:427   */\n      revert\n        /* \"#utility.yul\":367:369   */\n    tag_415:\n        /* \"#utility.yul\":457:466   */\n      dup2\n        /* \"#utility.yul\":451:467   */\n      mload\n        /* \"#utility.yul\":476:507   */\n      tag_412\n        /* \"#utility.yul\":501:506   */\n      dup2\n        /* \"#utility.yul\":476:507   */\n      tag_413\n      jump\t// in\n        /* \"#utility.yul\":542:1282   */\n    tag_42:\n        /* \"#utility.yul\":643:649   */\n      0x00\n        /* \"#utility.yul\":651:657   */\n      dup1\n        /* \"#utility.yul\":659:665   */\n      0x00\n        /* \"#utility.yul\":667:673   */\n      dup1\n        /* \"#utility.yul\":675:681   */\n      0x00\n        /* \"#utility.yul\":683:689   */\n      dup1\n        /* \"#utility.yul\":736:739   */\n      0xc0\n        /* \"#utility.yul\":724:733   */\n      dup8\n        /* \"#utility.yul\":715:722   */\n      dup10\n        /* \"#utility.yul\":711:734   */\n      sub\n        /* \"#utility.yul\":707:740   */\n      slt\n        /* \"#utility.yul\":704:706   */\n      iszero\n      tag_418\n      jumpi\n        /* \"#utility.yul\":758:764   */\n      dup2\n        /* \"#utility.yul\":750:756   */\n      dup3\n        /* \"#utility.yul\":743:765   */\n      revert\n        /* \"#utility.yul\":704:706   */\n    tag_418:\n        /* \"#utility.yul\":802:811   */\n      dup7\n        /* \"#utility.yul\":789:812   */\n      calldataload\n        /* \"#utility.yul\":821:852   */\n      tag_419\n        /* \"#utility.yul\":846:851   */\n      dup2\n        /* \"#utility.yul\":821:852   */\n      tag_413\n      jump\t// in\n    tag_419:\n        /* \"#utility.yul\":871:876   */\n      swap6\n      pop\n        /* \"#utility.yul\":928:930   */\n      0x20\n        /* \"#utility.yul\":913:931   */\n      dup8\n      add\n        /* \"#utility.yul\":900:932   */\n      calldataload\n        /* \"#utility.yul\":941:974   */\n      tag_420\n        /* \"#utility.yul\":900:932   */\n      dup2\n        /* \"#utility.yul\":941:974   */\n      tag_413\n      jump\t// in\n    tag_420:\n        /* \"#utility.yul\":993:1000   */\n      swap5\n      pop\n        /* \"#utility.yul\":1047:1049   */\n      0x40\n        /* \"#utility.yul\":1032:1050   */\n      dup8\n      add\n        /* \"#utility.yul\":1019:1051   */\n      calldataload\n      swap4\n      pop\n        /* \"#utility.yul\":1098:1100   */\n      0x60\n        /* \"#utility.yul\":1083:1101   */\n      dup8\n      add\n        /* \"#utility.yul\":1070:1102   */\n      calldataload\n      swap3\n      pop\n        /* \"#utility.yul\":1149:1152   */\n      0x80\n        /* \"#utility.yul\":1134:1153   */\n      dup8\n      add\n        /* \"#utility.yul\":1121:1154   */\n      calldataload\n      swap2\n      pop\n        /* \"#utility.yul\":1206:1209   */\n      0xa0\n        /* \"#utility.yul\":1191:1210   */\n      dup8\n      add\n        /* \"#utility.yul\":1178:1211   */\n      calldataload\n        /* \"#utility.yul\":1220:1250   */\n      tag_421\n        /* \"#utility.yul\":1178:1211   */\n      dup2\n        /* \"#utility.yul\":1220:1250   */\n      tag_422\n      jump\t// in\n    tag_421:\n        /* \"#utility.yul\":1269:1276   */\n      dup1\n        /* \"#utility.yul\":1259:1276   */\n      swap2\n      pop\n      pop\n        /* \"#utility.yul\":694:1282   */\n      swap3\n      swap6\n      pop\n      swap3\n      swap6\n      pop\n      swap3\n      swap6\n      jump\t// out\n        /* \"#utility.yul\":1287:1542   */\n    tag_113:\n        /* \"#utility.yul\":1354:1360   */\n      0x00\n        /* \"#utility.yul\":1407:1409   */\n      0x20\n        /* \"#utility.yul\":1395:1404   */\n      dup3\n        /* \"#utility.yul\":1386:1393   */\n      dup5\n        /* \"#utility.yul\":1382:1405   */\n      sub\n        /* \"#utility.yul\":1378:1410   */\n      slt\n        /* \"#utility.yul\":1375:1377   */\n      iszero\n      tag_424\n      jumpi\n        /* \"#utility.yul\":1428:1434   */\n      dup1\n        /* \"#utility.yul\":1420:1426   */\n      dup2\n        /* \"#utility.yul\":1413:1435   */\n      revert\n        /* \"#utility.yul\":1375:1377   */\n    tag_424:\n        /* \"#utility.yul\":1465:1474   */\n      dup2\n        /* \"#utility.yul\":1459:1475   */\n      mload\n        /* \"#utility.yul\":1484:1512   */\n      tag_412\n        /* \"#utility.yul\":1506:1511   */\n      dup2\n        /* \"#utility.yul\":1484:1512   */\n      tag_422\n      jump\t// in\n        /* \"#utility.yul\":1547:1737   */\n    tag_21:\n        /* \"#utility.yul\":1606:1612   */\n      0x00\n        /* \"#utility.yul\":1659:1661   */\n      0x20\n        /* \"#utility.yul\":1647:1656   */\n      dup3\n        /* \"#utility.yul\":1638:1645   */\n      dup5\n        /* \"#utility.yul\":1634:1657   */\n      sub\n        /* \"#utility.yul\":1630:1662   */\n      slt\n        /* \"#utility.yul\":1627:1629   */\n      iszero\n      tag_427\n      jumpi\n        /* \"#utility.yul\":1680:1686   */\n      dup1\n        /* \"#utility.yul\":1672:1678   */\n      dup2\n        /* \"#utility.yul\":1665:1687   */\n      revert\n        /* \"#utility.yul\":1627:1629   */\n    tag_427:\n      pop\n        /* \"#utility.yul\":1708:1731   */\n      calldataload\n      swap2\n        /* \"#utility.yul\":1617:1737   */\n      swap1\n      pop\n      jump\t// out\n        /* \"#utility.yul\":1937:2131   */\n    tag_100:\n        /* \"#utility.yul\":2007:2013   */\n      0x00\n        /* \"#utility.yul\":2060:2062   */\n      0x20\n        /* \"#utility.yul\":2048:2057   */\n      dup3\n        /* \"#utility.yul\":2039:2046   */\n      dup5\n        /* \"#utility.yul\":2035:2058   */\n      sub\n        /* \"#utility.yul\":2031:2063   */\n      slt\n        /* \"#utility.yul\":2028:2030   */\n      iszero\n      tag_431\n      jumpi\n        /* \"#utility.yul\":2081:2087   */\n      dup1\n        /* \"#utility.yul\":2073:2079   */\n      dup2\n        /* \"#utility.yul\":2066:2088   */\n      revert\n        /* \"#utility.yul\":2028:2030   */\n    tag_431:\n      pop\n        /* \"#utility.yul\":2109:2125   */\n      mload\n      swap2\n        /* \"#utility.yul\":2018:2131   */\n      swap1\n      pop\n      jump\t// out\n        /* \"#utility.yul\":4892:6042   */\n    tag_28:\n        /* \"#utility.yul\":5117:5119   */\n      0x20\n        /* \"#utility.yul\":5169:5190   */\n      dup1\n      dup3\n      mstore\n        /* \"#utility.yul\":5239:5252   */\n      dup3\n      mload\n        /* \"#utility.yul\":5142:5160   */\n      dup3\n      dup3\n      add\n        /* \"#utility.yul\":5261:5283   */\n      dup2\n      swap1\n      mstore\n        /* \"#utility.yul\":5088:5092   */\n      0x00\n      swap2\n        /* \"#utility.yul\":5117:5119   */\n      swap1\n        /* \"#utility.yul\":5302:5304   */\n      0x40\n      swap1\n        /* \"#utility.yul\":5320:5338   */\n      dup2\n      dup6\n      add\n      swap1\n        /* \"#utility.yul\":5361:5376   */\n      dup7\n      dup5\n      add\n        /* \"#utility.yul\":5088:5092   */\n      dup6\n        /* \"#utility.yul\":5407:6016   */\n    tag_440:\n        /* \"#utility.yul\":5421:5427   */\n      dup3\n        /* \"#utility.yul\":5418:5419   */\n      dup2\n        /* \"#utility.yul\":5415:5428   */\n      lt\n        /* \"#utility.yul\":5407:6016   */\n      iszero\n      tag_442\n      jumpi\n        /* \"#utility.yul\":5480:5493   */\n      dup2\n      mload\n        /* \"#utility.yul\":5564:5573   */\n      dup1\n      mload\n      sub(shl(0xa0, 0x01), 0x01)\n        /* \"#utility.yul\":5560:5578   */\n      swap1\n      dup2\n      and\n        /* \"#utility.yul\":5548:5579   */\n      dup7\n      mstore\n        /* \"#utility.yul\":5623:5634   */\n      dup8\n      dup3\n      add\n        /* \"#utility.yul\":5617:5635   */\n      mload\n        /* \"#utility.yul\":5613:5640   */\n      and\n        /* \"#utility.yul\":5599:5611   */\n      dup8\n      dup7\n      add\n        /* \"#utility.yul\":5592:5641   */\n      mstore\n        /* \"#utility.yul\":5681:5692   */\n      dup6\n      dup2\n      add\n        /* \"#utility.yul\":5675:5693   */\n      mload\n        /* \"#utility.yul\":5661:5673   */\n      dup7\n      dup7\n      add\n        /* \"#utility.yul\":5654:5694   */\n      mstore\n        /* \"#utility.yul\":5717:5721   */\n      0x60\n        /* \"#utility.yul\":5761:5772   */\n      dup1\n      dup3\n      add\n        /* \"#utility.yul\":5755:5773   */\n      mload\n        /* \"#utility.yul\":5741:5753   */\n      swap1\n      dup7\n      add\n        /* \"#utility.yul\":5734:5774   */\n      mstore\n        /* \"#utility.yul\":5797:5801   */\n      0x80\n        /* \"#utility.yul\":5841:5852   */\n      dup1\n      dup3\n      add\n        /* \"#utility.yul\":5835:5853   */\n      mload\n        /* \"#utility.yul\":5821:5833   */\n      swap1\n      dup7\n      add\n        /* \"#utility.yul\":5814:5854   */\n      mstore\n        /* \"#utility.yul\":5524:5527   */\n      0xa0\n        /* \"#utility.yul\":5921:5932   */\n      swap1\n      dup2\n      add\n        /* \"#utility.yul\":5915:5933   */\n      mload\n        /* \"#utility.yul\":5901:5913   */\n      swap1\n      dup6\n      add\n        /* \"#utility.yul\":5894:5934   */\n      mstore\n        /* \"#utility.yul\":5963:5967   */\n      0xc0\n        /* \"#utility.yul\":5954:5968   */\n      swap1\n      swap4\n      add\n      swap3\n        /* \"#utility.yul\":5991:6006   */\n      swap1\n      dup6\n      add\n      swap1\n        /* \"#utility.yul\":5533:5534   */\n      0x01\n        /* \"#utility.yul\":5436:5445   */\n      add\n        /* \"#utility.yul\":5407:6016   */\n      jump(tag_440)\n    tag_442:\n      pop\n        /* \"#utility.yul\":6033:6036   */\n      swap2\n      swap8\n        /* \"#utility.yul\":5097:6042   */\n      swap7\n      pop\n      pop\n      pop\n      pop\n      pop\n      pop\n      pop\n      jump\t// out\n        /* \"#utility.yul\":8138:8463   */\n    tag_140:\n        /* \"#utility.yul\":8340:8342   */\n      0x20\n        /* \"#utility.yul\":8322:8343   */\n      dup1\n      dup3\n      mstore\n        /* \"#utility.yul\":8379:8380   */\n      0x02\n        /* \"#utility.yul\":8359:8377   */\n      swap1\n      dup3\n      add\n        /* \"#utility.yul\":8352:8381   */\n      mstore\n      shl(0xf0, 0x4d31)\n        /* \"#utility.yul\":8412:8414   */\n      0x40\n        /* \"#utility.yul\":8397:8415   */\n      dup3\n      add\n        /* \"#utility.yul\":8390:8422   */\n      mstore\n        /* \"#utility.yul\":8454:8456   */\n      0x60\n        /* \"#utility.yul\":8439:8457   */\n      add\n      swap1\n        /* \"#utility.yul\":8312:8463   */\n      jump\t// out\n        /* \"#utility.yul\":10345:10473   */\n    tag_248:\n        /* \"#utility.yul\":10385:10388   */\n      0x00\n        /* \"#utility.yul\":10416:10417   */\n      dup3\n        /* \"#utility.yul\":10412:10418   */\n      not\n        /* \"#utility.yul\":10409:10410   */\n      dup3\n        /* \"#utility.yul\":10406:10419   */\n      gt\n        /* \"#utility.yul\":10403:10405   */\n      iszero\n      tag_459\n      jumpi\n        /* \"#utility.yul\":10422:10440   */\n      tag_459\n      tag_460\n      jump\t// in\n    tag_459:\n      pop\n        /* \"#utility.yul\":10458:10467   */\n      add\n      swap1\n        /* \"#utility.yul\":10393:10473   */\n      jump\t// out\n        /* \"#utility.yul\":10478:10695   */\n    tag_195:\n        /* \"#utility.yul\":10518:10519   */\n      0x00\n        /* \"#utility.yul\":10544:10545   */\n      dup3\n        /* \"#utility.yul\":10534:10536   */\n      tag_462\n      jumpi\n      shl(0xe0, 0x4e487b71)\n        /* \"#utility.yul\":10569:10600   */\n      dup2\n      mstore\n        /* \"#utility.yul\":10623:10627   */\n      0x12\n        /* \"#utility.yul\":10620:10621   */\n      0x04\n        /* \"#utility.yul\":10613:10628   */\n      mstore\n        /* \"#utility.yul\":10651:10655   */\n      0x24\n        /* \"#utility.yul\":10576:10577   */\n      dup2\n        /* \"#utility.yul\":10641:10656   */\n      revert\n        /* \"#utility.yul\":10534:10536   */\n    tag_462:\n      pop\n        /* \"#utility.yul\":10680:10689   */\n      div\n      swap1\n        /* \"#utility.yul\":10524:10695   */\n      jump\t// out\n        /* \"#utility.yul\":10700:10868   */\n    tag_193:\n        /* \"#utility.yul\":10740:10747   */\n      0x00\n        /* \"#utility.yul\":10806:10807   */\n      dup2\n        /* \"#utility.yul\":10802:10803   */\n      0x00\n        /* \"#utility.yul\":10798:10804   */\n      not\n        /* \"#utility.yul\":10794:10808   */\n      div\n        /* \"#utility.yul\":10791:10792   */\n      dup4\n        /* \"#utility.yul\":10788:10809   */\n      gt\n        /* \"#utility.yul\":10783:10784   */\n      dup3\n        /* \"#utility.yul\":10776:10785   */\n      iszero\n        /* \"#utility.yul\":10769:10786   */\n      iszero\n        /* \"#utility.yul\":10765:10810   */\n      and\n        /* \"#utility.yul\":10762:10764   */\n      iszero\n      tag_465\n      jumpi\n        /* \"#utility.yul\":10813:10831   */\n      tag_465\n      tag_460\n      jump\t// in\n    tag_465:\n      pop\n        /* \"#utility.yul\":10853:10862   */\n      mul\n      swap1\n        /* \"#utility.yul\":10752:10868   */\n      jump\t// out\n        /* \"#utility.yul\":10873:10998   */\n    tag_106:\n        /* \"#utility.yul\":10913:10917   */\n      0x00\n        /* \"#utility.yul\":10941:10942   */\n      dup3\n        /* \"#utility.yul\":10938:10939   */\n      dup3\n        /* \"#utility.yul\":10935:10943   */\n      lt\n        /* \"#utility.yul\":10932:10934   */\n      iszero\n      tag_468\n      jumpi\n        /* \"#utility.yul\":10946:10964   */\n      tag_468\n      tag_460\n      jump\t// in\n    tag_468:\n      pop\n        /* \"#utility.yul\":10983:10992   */\n      sub\n      swap1\n        /* \"#utility.yul\":10922:10998   */\n      jump\t// out\n        /* \"#utility.yul\":11003:11138   */\n    tag_79:\n        /* \"#utility.yul\":11042:11045   */\n      0x00\n      not(0x00)\n        /* \"#utility.yul\":11063:11080   */\n      dup3\n      eq\n        /* \"#utility.yul\":11060:11062   */\n      iszero\n      tag_471\n      jumpi\n        /* \"#utility.yul\":11083:11101   */\n      tag_471\n      tag_460\n      jump\t// in\n    tag_471:\n      pop\n        /* \"#utility.yul\":11130:11131   */\n      0x01\n        /* \"#utility.yul\":11119:11132   */\n      add\n      swap1\n        /* \"#utility.yul\":11050:11138   */\n      jump\t// out\n        /* \"#utility.yul\":11143:11270   */\n    tag_460:\n        /* \"#utility.yul\":11204:11214   */\n      0x4e487b71\n        /* \"#utility.yul\":11199:11202   */\n      0xe0\n        /* \"#utility.yul\":11195:11215   */\n      shl\n        /* \"#utility.yul\":11192:11193   */\n      0x00\n        /* \"#utility.yul\":11185:11216   */\n      mstore\n        /* \"#utility.yul\":11235:11239   */\n      0x11\n        /* \"#utility.yul\":11232:11233   */\n      0x04\n        /* \"#utility.yul\":11225:11240   */\n      mstore\n        /* \"#utility.yul\":11259:11263   */\n      0x24\n        /* \"#utility.yul\":11256:11257   */\n      0x00\n        /* \"#utility.yul\":11249:11264   */\n      revert\n        /* \"#utility.yul\":11275:11406   */\n    tag_413:\n      sub(shl(0xa0, 0x01), 0x01)\n        /* \"#utility.yul\":11350:11381   */\n      dup2\n      and\n        /* \"#utility.yul\":11340:11382   */\n      dup2\n      eq\n        /* \"#utility.yul\":11330:11332   */\n      tag_62\n      jumpi\n        /* \"#utility.yul\":11396:11397   */\n      0x00\n        /* \"#utility.yul\":11393:11394   */\n      dup1\n        /* \"#utility.yul\":11386:11398   */\n      revert\n        /* \"#utility.yul\":11411:11529   */\n    tag_422:\n        /* \"#utility.yul\":11497:11502   */\n      dup1\n        /* \"#utility.yul\":11490:11503   */\n      iszero\n        /* \"#utility.yul\":11483:11504   */\n      iszero\n        /* \"#utility.yul\":11476:11481   */\n      dup2\n        /* \"#utility.yul\":11473:11505   */\n      eq\n        /* \"#utility.yul\":11463:11465   */\n      tag_62\n      jumpi\n        /* \"#utility.yul\":11519:11520   */\n      0x00\n        /* \"#utility.yul\":11516:11517   */\n      dup1\n        /* \"#utility.yul\":11509:11521   */\n      revert\n\n    auxdata: 0xa2646970667358221220861a3021eb66c06cd2e3d64e239c1c45d33bc597a35f2149110fa74d124c71dd64736f6c63430008040033\n}\n",
				"bytecode": {
					"linkReferences": {},
					"object": "60c0604052600060035560025460601b6001600160601b03191660a0523480156200002957600080fd5b506040516200281b3803806200281b8339810160408190526200004c9162000102565b6001600081905580546001600160a01b03199081166001600160a01b0384161790915560028054339216821790556040805162966ed960e31b815290516304b376c891600480820192602092909190829003018186803b158015620000b057600080fd5b505afa158015620000c5573d6000803e3d6000fd5b505050506040513d601f19601f82011682018060405250810190620000eb919062000102565b60601b6001600160601b0319166080525062000132565b60006020828403121562000114578081fd5b81516001600160a01b03811681146200012b578182fd5b9392505050565b60805160601c60a05160601c61263f620001dc60003960008181610871015281816109da01528181610b8401528181610d5f0152818161149201528181611618015281816117c901528181611898015281816119c901528181611a9801528181611b9f01528181611c6401528181611d0d01528181611dd601528181611e7f0152611f4801526000818161056f0152818161067e01528181610af70152610c6b015261263f6000f3fe608060405234801561001057600080fd5b50600436106100a95760003560e01c80636bfefd6b116100715780636bfefd6b1461013557806378d65b2f1461013d5780637d7f9232146101505780638df8280014610163578063be9a655514610176578063f8b2cb4f1461017e57600080fd5b8063200d2ed2146100ae5780632940ff1e146100ca5780632d56657d146100df57806351cff8d9146100ff578063675f653714610122575b600080fd5b6100b760035481565b6040519081526020015b60405180910390f35b6100dd6100d8366004612477565b6101a7565b005b6100f26100ed3660046123b6565b610390565b6040516100c191906124a7565b61011261010d3660046123b6565b6104e4565b60405190151581526020016100c1565b6100dd610130366004612477565b610783565b610112610858565b6100b761014b3660046123f5565b6109c2565b6100dd61015e366004612477565b6112e6565b610112610171366004612477565b611479565b6101126115ff565b6100b761018c3660046123b6565b6001600160a01b031660009081526007602052604090205490565b60035461038d576000818152600860209081526040808320815160c08101835281546001600160a01b03908116825260018301541681850152600282015481840152600382015460608201526004820154608082015260059091015460a0820152848452600b8352818420805483518186028101860190945280845291949390919083018282801561025857602002820191906000526020600020905b815481526020019060010190808311610244575b505083519394506000925050505b81811015610388576000808560a001516001141561030357600a60008685815181106102a257634e487b7160e01b600052603260045260246000fd5b60200260200101518152602001908152602001600020600001549050600a60008685815181106102e257634e487b7160e01b600052603260045260246000fd5b60200260200101518152602001908152602001600020600101549150610373565b8560a001516002141561033457600a60008685815181106102a257634e487b7160e01b600052603260045260246000fd5b60405162461bcd60e51b815260206004820152600f60248201526e453a20696e76616c6964207369646560881b60448201526064015b60405180910390fd5b50508080610380906125b5565b915050610266565b505050505b50565b6001600160a01b03811660009081526009602090815260408083208054825181850281018501909352808352606094859490939291908301828280156103f557602002820191906000526020600020905b8154815260200190600101908083116103e1575b50506005549394506000925050505b818110156104da576008600084838151811061043057634e487b7160e01b600052603260045260246000fd5b6020908102919091018101518252818101929092526040908101600020815160c08101835281546001600160a01b0390811682526001830154169381019390935260028101549183019190915260038101546060830152600481015460808301526005015460a082015284518590839081106104bc57634e487b7160e01b600052603260045260246000fd5b602002602001018190525080806104d2906125b5565b915050610404565b5091949350505050565b6000600260005414156105395760405162461bcd60e51b815260206004820152601f60248201527f5265656e7472616e637947756172643a207265656e7472616e742063616c6c00604482015260640161036a565b600260009081556001600160a01b03838116825260076020526040918290205491516370a0823160e01b815230600482015282917f000000000000000000000000000000000000000000000000000000000000000016906370a082319060240160206040518083038186803b1580156105b157600080fd5b505afa1580156105c5573d6000803e3d6000fd5b505050506040513d601f19601f820116820180604052508101906105e9919061248f565b101580156105f75750600081115b6106285760405162461bcd60e51b8152602060048201526002602482015261269960f11b604482015260640161036a565b6001600160a01b0383166000908152600760205260408120805483929061065090849061259e565b909155505060405163a9059cbb60e01b81526001600160a01b038481166004830152602482018390526000917f00000000000000000000000000000000000000000000000000000000000000009091169063a9059cbb90604401602060405180830381600087803b1580156106c457600080fd5b505af11580156106d8573d6000803e3d6000fd5b505050506040513d601f19601f820116820180604052508101906106fc919061245b565b9050806107305760405162461bcd60e51b81526020600482015260026024820152614d3360f01b604482015260640161036a565b604080516001600160a01b0386168152602081018490527f884edad9ce6fa2440d8a54cc123490eb96d2768479d49ff9c7366125a9424364910160405180910390a16001925050505b6001600055919050565b6000818152600b60209081526040808320805482518185028101850190935280835291929091908301828280156107d957602002820191906000526020600020905b8154815260200190600101908083116107c5575b505083519394506000925050505b818110156108325761081f83828151811061081257634e487b7160e01b600052603260045260246000fd5b60200260200101516116ff565b508061082a816125b5565b9150506107e7565b50336000908152600760205260409020541561085357610851336104e4565b505b505050565b6001546000906001600160a01b031633148061091557507f00000000000000000000000000000000000000000000000000000000000000006001600160a01b031663ce606ee06040518163ffffffff1660e01b815260040160206040518083038186803b1580156108c857600080fd5b505afa1580156108dc573d6000803e3d6000fd5b505050506040513d601f19601f8201168201806040525081019061090091906123d9565b6001600160a01b0316336001600160a01b0316145b8061092a57506002546001600160a01b031633145b6109465760405162461bcd60e51b815260040161036a9061252b565b600354158061095757506003546004145b156109bc5760045460005b818110156109b05761099e6004828154811061098e57634e487b7160e01b600052603260045260246000fd5b9060005260206000200154612043565b806109a8816125b5565b915050610962565b50506003805550600190565b50600090565b60405163332daccf60e01b81523360048201526000907f00000000000000000000000000000000000000000000000000000000000000006001600160a01b03169063332daccf9060240160206040518083038186803b158015610a2457600080fd5b505afa158015610a38573d6000803e3d6000fd5b505050506040513d601f19601f82011682018060405250810190610a5c919061245b565b158015610a695750600354155b610a9a5760405162461bcd60e51b815260206004820152600260248201526109a760f31b604482015260640161036a565b8260011480610aa95750826002145b610ada5760405162461bcd60e51b81526020600482015260026024820152614d3960f01b604482015260640161036a565b604051636eb1769f60e11b815233600482015230602482015285907f00000000000000000000000000000000000000000000000000000000000000006001600160a01b03169063dd62ed3e9060440160206040518083038186803b158015610b4157600080fd5b505afa158015610b55573d6000803e3d6000fd5b505050506040513d601f19601f82011682018060405250810190610b79919061248f565b10158015610c1757507f00000000000000000000000000000000000000000000000000000000000000006001600160a01b031663375b3c0a6040518163ffffffff1660e01b815260040160206040518083038186803b158015610bdb57600080fd5b505afa158015610bef573d6000803e3d6000fd5b505050506040513d601f19601f82011682018060405250810190610c13919061248f565b8510155b610c495760405162461bcd60e51b815260206004820152600360248201526204d31360ec1b604482015260640161036a565b6040516323b872dd60e01b8152336004820152306024820152604481018690527f00000000000000000000000000000000000000000000000000000000000000006001600160a01b0316906323b872dd90606401602060405180830381600087803b158015610cb757600080fd5b505af1158015610ccb573d6000803e3d6000fd5b505050506040513d601f19601f82011682018060405250810190610cef919061245b565b610d215760405162461bcd60e51b81526020600482015260036024820152624d313160e81b604482015260640161036a565b6000610d5088888884610d3560648b61259e565b610d408b606461257f565b610d4a919061255f565b896120fe565b6006549091501561125057855b7f00000000000000000000000000000000000000000000000000000000000000006001600160a01b031663375b3c0a6040518163ffffffff1660e01b815260040160206040518083038186803b158015610db657600080fd5b505afa158015610dca573d6000803e3d6000fd5b505050506040513d601f19601f82011682018060405250810190610dee919061248f565b811061124a5760008060005b600654811015610ea057600060068281548110610e2757634e487b7160e01b600052603260045260246000fd5b906000526020600020015490506008600082815260200190815260200160002060050154891415610e585750610e8e565b600081815260086020526040902060040154831015610e8c5760008181526008602052604090206004015491935090915082905b505b80610e98816125b5565b915050610dfa565b5087811180610eb75750600081118015610eb75750855b1561120757600060068381548110610edf57634e487b7160e01b600052603260045260246000fd5b6000918252602080832090910154808352600882526040808420815160c08101835281546001600160a01b0390811682526001830154169481019490945260028101549184019190915260038101546060840152600481015460808401526005015460a0830152925090610f5460648c61259e565b82606001518360400151610f68919061259e565b610f72919061255f565b9050610f7f60648261257f565b905060008060008e841161107c57839250610f9b60648f61259e565b610fa5908561257f565b9150610fb260648361255f565b91508c6001141561101a57610fc98a878585612286565b604080518c815260208101899052908101859052606081018490529091507f5de48bb383b4a2aaad84721b80d93429b813651b0eefbd59d32018cfe28215dc906080015b60405180910390a161111a565b8c600214156110775761102f868b8486612286565b60408051888152602081018d9052908101849052606081018590529091507f5de48bb383b4a2aaad84721b80d93429b813651b0eefbd59d32018cfe28215dc9060800161100d565b61111a565b8e925061108a60648f61259e565b8f611095919061257f565b91506110a260648361255f565b91508c600114156110b957610fc98a878585612286565b8c6002141561111a576110ce868b8486612286565b60408051888152602081018d9052908101849052606081018590529091507f5de48bb383b4a2aaad84721b80d93429b813651b0eefbd59d32018cfe28215dc9060800160405180910390a15b60008a8152600b6020908152604080832080546001818101835591855283852001859055898452818420805491820181558452828420018490558c8352600890915281206003018054859290611171908490612547565b909155505060008681526008602052604081206003018054849290611197908490612547565b9091555050600086815260086020526040902060038101546002909101546111bf919061259e565b6111f057600688815481106111e457634e487b7160e01b600052603260045260246000fd5b60009182526020822001555b6111fa838a61259e565b9850505050505050611243565b5050600680546001810182556000919091527ff652222313e28459528d920b65115c16c04f3efc82aaedc97be59f3f377c0d3f0182905561124a565b5050610d5d565b50611286565b600680546001810182556000919091527ff652222313e28459528d920b65115c16c04f3efc82aaedc97be59f3f377c0d3f018190555b60408051338152306020820152908101829052606081018790526080810186905260a081018590527f618f358bb45538682ade624a4a1959053d9dabd20fe300508034b879681b37be9060c00160405180910390a1979650505050505050565b600081815260086020908152604091829020825160c08101845281546001600160a01b0390811680835260018401549091169382019390935260028201549381019390935260038101546060840152600481015460808401526005015460a0830152331461137b5760405162461bcd60e51b8152602060048201526002602482015261134d60f21b604482015260640161036a565b600081606001518260400151611391919061259e565b82516001600160a01b03166000908152600760205260408120805492935083929091906113bf908490612547565b90915550506040808301516000858152600860205291822060030155600654905b8181101561145a57846006828154811061140a57634e487b7160e01b600052603260045260246000fd5b90600052602060002001541415611448576006818154811061143c57634e487b7160e01b600052603260045260246000fd5b60009182526020822001555b80611452816125b5565b9150506113e0565b50336000908152600760205260409020541561085157610388336104e4565b6001546000906001600160a01b031633148061153657507f00000000000000000000000000000000000000000000000000000000000000006001600160a01b031663ce606ee06040518163ffffffff1660e01b815260040160206040518083038186803b1580156114e957600080fd5b505afa1580156114fd573d6000803e3d6000fd5b505050506040513d601f19601f8201168201806040525081019061152191906123d9565b6001600160a01b0316336001600160a01b0316145b8061154b57506002546001600160a01b031633145b6115675760405162461bcd60e51b815260040161036a9061252b565b600354158061157857506003546004145b801561158e5750816001148061158e5750816002145b156115f757600382905560045460005b818110156115ed576115da600482815481106115ca57634e487b7160e01b600052603260045260246000fd5b90600052602060002001546116ff565b50806115e5816125b5565b91505061159e565b5060019392505050565b506000919050565b6001546000906001600160a01b03163314806116bc57507f00000000000000000000000000000000000000000000000000000000000000006001600160a01b031663ce606ee06040518163ffffffff1660e01b815260040160206040518083038186803b15801561166f57600080fd5b505afa158015611683573d6000803e3d6000fd5b505050506040513d601f19601f820116820180604052508101906116a791906123d9565b6001600160a01b0316336001600160a01b0316145b806116d157506002546001600160a01b031633145b6116ed5760405162461bcd60e51b815260040161036a9061252b565b6003546109bc57506004600355600190565b6000600260005414156117545760405162461bcd60e51b815260206004820152601f60248201527f5265656e7472616e637947756172643a207265656e7472616e742063616c6c00604482015260640161036a565b60026000908155828152600a602052604090206004015460ff161561177b57506000610779565b6000806000806003546001141561197e576000868152600a6020908152604080832054835260088252918290205482516355c4a8bf60e01b815292516001600160a01b0391821697506064937f0000000000000000000000000000000000000000000000000000000000000000909216926355c4a8bf9260048082019391829003018186803b15801561180d57600080fd5b505afa158015611821573d6000803e3d6000fd5b505050506040513d601f19601f82011682018060405250810190611845919061248f565b61185090606461259e565b6000888152600a602052604090206003015461186c919061257f565b611876919061255f565b6000878152600a60205260409020600201546118929190612547565b915060647f00000000000000000000000000000000000000000000000000000000000000006001600160a01b03166355c4a8bf6040518163ffffffff1660e01b815260040160206040518083038186803b1580156118ef57600080fd5b505afa158015611903573d6000803e3d6000fd5b505050506040513d601f19601f82011682018060405250810190611927919061248f565b6000888152600a6020526040902060030154611943919061257f565b61194d919061255f565b6000878152600a6020908152604080832054835260089091529020600101546001600160a01b031693509050611b8f565b60035460021415611b82576000868152600a6020908152604080832060010154835260088252918290205482516355c4a8bf60e01b815292516001600160a01b0391821697506064937f0000000000000000000000000000000000000000000000000000000000000000909216926355c4a8bf9260048082019391829003018186803b158015611a0d57600080fd5b505afa158015611a21573d6000803e3d6000fd5b505050506040513d601f19601f82011682018060405250810190611a45919061248f565b611a5090606461259e565b6000888152600a6020526040902060020154611a6c919061257f565b611a76919061255f565b6000878152600a6020526040902060030154611a929190612547565b915060647f00000000000000000000000000000000000000000000000000000000000000006001600160a01b03166355c4a8bf6040518163ffffffff1660e01b815260040160206040518083038186803b158015611aef57600080fd5b505afa158015611b03573d6000803e3d6000fd5b505050506040513d601f19601f82011682018060405250810190611b27919061248f565b6000888152600a6020526040902060020154611b43919061257f565b611b4d919061255f565b6000878152600a602090815260408083206001908101548452600890925290912001546001600160a01b031693509050611b8f565b6000945050505050610779565b6001600160a01b038316611c31577f00000000000000000000000000000000000000000000000000000000000000006001600160a01b03166309953b2f6040518163ffffffff1660e01b815260040160206040518083038186803b158015611bf657600080fd5b505afa158015611c0a573d6000803e3d6000fd5b505050506040513d601f19601f82011682018060405250810190611c2e91906123d9565b92505b6001600160a01b03841660009081526007602052604081208054849290611c59908490612547565b9250508190555060647f00000000000000000000000000000000000000000000000000000000000000006001600160a01b0316636a0ccd9d6040518163ffffffff1660e01b815260040160206040518083038186803b158015611cbb57600080fd5b505afa158015611ccf573d6000803e3d6000fd5b505050506040513d601f19601f82011682018060405250810190611cf3919061248f565b611cfd908361257f565b611d07919061255f565b600760007f00000000000000000000000000000000000000000000000000000000000000006001600160a01b031663b7640a546040518163ffffffff1660e01b815260040160206040518083038186803b158015611d6457600080fd5b505afa158015611d78573d6000803e3d6000fd5b505050506040513d601f19601f82011682018060405250810190611d9c91906123d9565b6001600160a01b03166001600160a01b031681526020019081526020016000206000828254611dcb9190612547565b9250508190555060647f00000000000000000000000000000000000000000000000000000000000000006001600160a01b03166328576d456040518163ffffffff1660e01b815260040160206040518083038186803b158015611e2d57600080fd5b505afa158015611e41573d6000803e3d6000fd5b505050506040513d601f19601f82011682018060405250810190611e65919061248f565b611e6f908361257f565b611e79919061255f565b600760007f00000000000000000000000000000000000000000000000000000000000000006001600160a01b03166309953b2f6040518163ffffffff1660e01b815260040160206040518083038186803b158015611ed657600080fd5b505afa158015611eea573d6000803e3d6000fd5b505050506040513d601f19601f82011682018060405250810190611f0e91906123d9565b6001600160a01b03166001600160a01b031681526020019081526020016000206000828254611f3d9190612547565b9250508190555060647f00000000000000000000000000000000000000000000000000000000000000006001600160a01b03166354cd1a5c6040518163ffffffff1660e01b815260040160206040518083038186803b158015611f9f57600080fd5b505afa158015611fb3573d6000803e3d6000fd5b505050506040513d601f19601f82011682018060405250810190611fd7919061248f565b611fe1908361257f565b611feb919061255f565b6001600160a01b03841660009081526007602052604081208054909190612013908490612547565b90915550505060009485525050600a602052505060408120600401805460ff191660019081179091559081905590565b6000818152600a6020908152604080832080548452600883528184205460018201548552828520546002909201546001600160a01b03918216808752600790955292852080549495919092169361209b908490612547565b90915550506000838152600a60209081526040808320600301546001600160a01b0385168452600790925282208054919290916120d9908490612547565b909155505050600091825250600a60205260409020600401805460ff19166001179055565b60008060005b600554899030908390612118906001612547565b6121229190612547565b6040516bffffffffffffffffffffffff19606094851b811660208301529290931b9091166034830152604882015242606882015244608882015260a80160408051601f19818403018152918152815160209283012060008181526008909352912060020154909250612193576121a5565b8061219d816125b5565b915050612104565b506040805160c0810182526001600160a01b03998a16808252988a166020808301918252828401998a52606083019889526080830197885260a0830196875260008581526008825284812093518454908e166001600160a01b031991821617855592516001808601805492909f169190941617909c55985160028301559651600382015594516004860155925160059485015583548086019094557f036b6384b5eca791c62761152d0c79bb0604c104a5fb6f4eb0703f3154bb3db09093018390555093855260098352928420805491820181558452922090910181905590565b60008060005b6004548790879083906122a0906001612547565b6122aa9190612547565b60408051602081019490945283019190915260608201524260808201524460a082015260c00160408051601f1981840301815291815281516020928301206000818152600a90935291206002015490925061230457612316565b8061230e816125b5565b91505061228c565b506040805160a081018252968752602080880196875287820195865260608801948552600060808901818152848252600a909252918220975188559551600180890191909155945160028801559251600387015593516004958601805460ff19169115159190911790555083549182018455929092527f8a35acfbc15ff81a39ae7d344fd709f28e8600b4aa8c65c6b64bfe7fe36bd19b90910181905590565b6000602082840312156123c7578081fd5b81356123d2816125e6565b9392505050565b6000602082840312156123ea578081fd5b81516123d2816125e6565b60008060008060008060c0878903121561240d578182fd5b8635612418816125e6565b95506020870135612428816125e6565b945060408701359350606087013592506080870135915060a087013561244d816125fb565b809150509295509295509295565b60006020828403121561246c578081fd5b81516123d2816125fb565b600060208284031215612488578081fd5b5035919050565b6000602082840312156124a0578081fd5b5051919050565b602080825282518282018190526000919060409081850190868401855b8281101561251e57815180516001600160a01b0390811686528782015116878601528581015186860152606080820151908601526080808201519086015260a0908101519085015260c090930192908501906001016124c4565b5091979650505050505050565b6020808252600290820152614d3160f01b604082015260600190565b6000821982111561255a5761255a6125d0565b500190565b60008261257a57634e487b7160e01b81526012600452602481fd5b500490565b6000816000190483118215151615612599576125996125d0565b500290565b6000828210156125b0576125b06125d0565b500390565b60006000198214156125c9576125c96125d0565b5060010190565b634e487b7160e01b600052601160045260246000fd5b6001600160a01b038116811461038d57600080fd5b801515811461038d57600080fdfea2646970667358221220861a3021eb66c06cd2e3d64e239c1c45d33bc597a35f2149110fa74d124c71dd64736f6c63430008040033",
					"opcodes": "PUSH1 0xC0 PUSH1 0x40 MSTORE PUSH1 0x0 PUSH1 0x3 SSTORE PUSH1 0x2 SLOAD PUSH1 0x60 SHL PUSH1 0x1 PUSH1 0x1 PUSH1 0x60 SHL SUB NOT AND PUSH1 0xA0 MSTORE CALLVALUE DUP1 ISZERO PUSH3 0x29 JUMPI PUSH1 0x0 DUP1 REVERT JUMPDEST POP PUSH1 0x40 MLOAD PUSH3 0x281B CODESIZE SUB DUP1 PUSH3 0x281B DUP4 CODECOPY DUP2 ADD PUSH1 0x40 DUP2 SWAP1 MSTORE PUSH3 0x4C SWAP2 PUSH3 0x102 JUMP JUMPDEST PUSH1 0x1 PUSH1 0x0 DUP2 SWAP1 SSTORE DUP1 SLOAD PUSH1 0x1 PUSH1 0x1 PUSH1 0xA0 SHL SUB NOT SWAP1 DUP2 AND PUSH1 0x1 PUSH1 0x1 PUSH1 0xA0 SHL SUB DUP5 AND OR SWAP1 SWAP2 SSTORE PUSH1 0x2 DUP1 SLOAD CALLER SWAP3 AND DUP3 OR SWAP1 SSTORE PUSH1 0x40 DUP1 MLOAD PUSH3 0x966ED9 PUSH1 0xE3 SHL DUP2 MSTORE SWAP1 MLOAD PUSH4 0x4B376C8 SWAP2 PUSH1 0x4 DUP1 DUP3 ADD SWAP3 PUSH1 0x20 SWAP3 SWAP1 SWAP2 SWAP1 DUP3 SWAP1 SUB ADD DUP2 DUP7 DUP1 EXTCODESIZE ISZERO DUP1 ISZERO PUSH3 0xB0 JUMPI PUSH1 0x0 DUP1 REVERT JUMPDEST POP GAS STATICCALL ISZERO DUP1 ISZERO PUSH3 0xC5 JUMPI RETURNDATASIZE PUSH1 0x0 DUP1 RETURNDATACOPY RETURNDATASIZE PUSH1 0x0 REVERT JUMPDEST POP POP POP POP PUSH1 0x40 MLOAD RETURNDATASIZE PUSH1 0x1F NOT PUSH1 0x1F DUP3 ADD AND DUP3 ADD DUP1 PUSH1 0x40 MSTORE POP DUP2 ADD SWAP1 PUSH3 0xEB SWAP2 SWAP1 PUSH3 0x102 JUMP JUMPDEST PUSH1 0x60 SHL PUSH1 0x1 PUSH1 0x1 PUSH1 0x60 SHL SUB NOT AND PUSH1 0x80 MSTORE POP PUSH3 0x132 JUMP JUMPDEST PUSH1 0x0 PUSH1 0x20 DUP3 DUP5 SUB SLT ISZERO PUSH3 0x114 JUMPI DUP1 DUP2 REVERT JUMPDEST DUP2 MLOAD PUSH1 0x1 PUSH1 0x1 PUSH1 0xA0 SHL SUB DUP2 AND DUP2 EQ PUSH3 0x12B JUMPI DUP2 DUP3 REVERT JUMPDEST SWAP4 SWAP3 POP POP POP JUMP JUMPDEST PUSH1 0x80 MLOAD PUSH1 0x60 SHR PUSH1 0xA0 MLOAD PUSH1 0x60 SHR PUSH2 0x263F PUSH3 0x1DC PUSH1 0x0 CODECOPY PUSH1 0x0 DUP2 DUP2 PUSH2 0x871 ADD MSTORE DUP2 DUP2 PUSH2 0x9DA ADD MSTORE DUP2 DUP2 PUSH2 0xB84 ADD MSTORE DUP2 DUP2 PUSH2 0xD5F ADD MSTORE DUP2 DUP2 PUSH2 0x1492 ADD MSTORE DUP2 DUP2 PUSH2 0x1618 ADD MSTORE DUP2 DUP2 PUSH2 0x17C9 ADD MSTORE DUP2 DUP2 PUSH2 0x1898 ADD MSTORE DUP2 DUP2 PUSH2 0x19C9 ADD MSTORE DUP2 DUP2 PUSH2 0x1A98 ADD MSTORE DUP2 DUP2 PUSH2 0x1B9F ADD MSTORE DUP2 DUP2 PUSH2 0x1C64 ADD MSTORE DUP2 DUP2 PUSH2 0x1D0D ADD MSTORE DUP2 DUP2 PUSH2 0x1DD6 ADD MSTORE DUP2 DUP2 PUSH2 0x1E7F ADD MSTORE PUSH2 0x1F48 ADD MSTORE PUSH1 0x0 DUP2 DUP2 PUSH2 0x56F ADD MSTORE DUP2 DUP2 PUSH2 0x67E ADD MSTORE DUP2 DUP2 PUSH2 0xAF7 ADD MSTORE PUSH2 0xC6B ADD MSTORE PUSH2 0x263F PUSH1 0x0 RETURN INVALID PUSH1 0x80 PUSH1 0x40 MSTORE CALLVALUE DUP1 ISZERO PUSH2 0x10 JUMPI PUSH1 0x0 DUP1 REVERT JUMPDEST POP PUSH1 0x4 CALLDATASIZE LT PUSH2 0xA9 JUMPI PUSH1 0x0 CALLDATALOAD PUSH1 0xE0 SHR DUP1 PUSH4 0x6BFEFD6B GT PUSH2 0x71 JUMPI DUP1 PUSH4 0x6BFEFD6B EQ PUSH2 0x135 JUMPI DUP1 PUSH4 0x78D65B2F EQ PUSH2 0x13D JUMPI DUP1 PUSH4 0x7D7F9232 EQ PUSH2 0x150 JUMPI DUP1 PUSH4 0x8DF82800 EQ PUSH2 0x163 JUMPI DUP1 PUSH4 0xBE9A6555 EQ PUSH2 0x176 JUMPI DUP1 PUSH4 0xF8B2CB4F EQ PUSH2 0x17E JUMPI PUSH1 0x0 DUP1 REVERT JUMPDEST DUP1 PUSH4 0x200D2ED2 EQ PUSH2 0xAE JUMPI DUP1 PUSH4 0x2940FF1E EQ PUSH2 0xCA JUMPI DUP1 PUSH4 0x2D56657D EQ PUSH2 0xDF JUMPI DUP1 PUSH4 0x51CFF8D9 EQ PUSH2 0xFF JUMPI DUP1 PUSH4 0x675F6537 EQ PUSH2 0x122 JUMPI JUMPDEST PUSH1 0x0 DUP1 REVERT JUMPDEST PUSH2 0xB7 PUSH1 0x3 SLOAD DUP2 JUMP JUMPDEST PUSH1 0x40 MLOAD SWAP1 DUP2 MSTORE PUSH1 0x20 ADD JUMPDEST PUSH1 0x40 MLOAD DUP1 SWAP2 SUB SWAP1 RETURN JUMPDEST PUSH2 0xDD PUSH2 0xD8 CALLDATASIZE PUSH1 0x4 PUSH2 0x2477 JUMP JUMPDEST PUSH2 0x1A7 JUMP JUMPDEST STOP JUMPDEST PUSH2 0xF2 PUSH2 0xED CALLDATASIZE PUSH1 0x4 PUSH2 0x23B6 JUMP JUMPDEST PUSH2 0x390 JUMP JUMPDEST PUSH1 0x40 MLOAD PUSH2 0xC1 SWAP2 SWAP1 PUSH2 0x24A7 JUMP JUMPDEST PUSH2 0x112 PUSH2 0x10D CALLDATASIZE PUSH1 0x4 PUSH2 0x23B6 JUMP JUMPDEST PUSH2 0x4E4 JUMP JUMPDEST PUSH1 0x40 MLOAD SWAP1 ISZERO ISZERO DUP2 MSTORE PUSH1 0x20 ADD PUSH2 0xC1 JUMP JUMPDEST PUSH2 0xDD PUSH2 0x130 CALLDATASIZE PUSH1 0x4 PUSH2 0x2477 JUMP JUMPDEST PUSH2 0x783 JUMP JUMPDEST PUSH2 0x112 PUSH2 0x858 JUMP JUMPDEST PUSH2 0xB7 PUSH2 0x14B CALLDATASIZE PUSH1 0x4 PUSH2 0x23F5 JUMP JUMPDEST PUSH2 0x9C2 JUMP JUMPDEST PUSH2 0xDD PUSH2 0x15E CALLDATASIZE PUSH1 0x4 PUSH2 0x2477 JUMP JUMPDEST PUSH2 0x12E6 JUMP JUMPDEST PUSH2 0x112 PUSH2 0x171 CALLDATASIZE PUSH1 0x4 PUSH2 0x2477 JUMP JUMPDEST PUSH2 0x1479 JUMP JUMPDEST PUSH2 0x112 PUSH2 0x15FF JUMP JUMPDEST PUSH2 0xB7 PUSH2 0x18C CALLDATASIZE PUSH1 0x4 PUSH2 0x23B6 JUMP JUMPDEST PUSH1 0x1 PUSH1 0x1 PUSH1 0xA0 SHL SUB AND PUSH1 0x0 SWAP1 DUP2 MSTORE PUSH1 0x7 PUSH1 0x20 MSTORE PUSH1 0x40 SWAP1 KECCAK256 SLOAD SWAP1 JUMP JUMPDEST PUSH1 0x3 SLOAD PUSH2 0x38D JUMPI PUSH1 0x0 DUP2 DUP2 MSTORE PUSH1 0x8 PUSH1 0x20 SWAP1 DUP2 MSTORE PUSH1 0x40 DUP1 DUP4 KECCAK256 DUP2 MLOAD PUSH1 0xC0 DUP2 ADD DUP4 MSTORE DUP2 SLOAD PUSH1 0x1 PUSH1 0x1 PUSH1 0xA0 SHL SUB SWAP1 DUP2 AND DUP3 MSTORE PUSH1 0x1 DUP4 ADD SLOAD AND DUP2 DUP6 ADD MSTORE PUSH1 0x2 DUP3 ADD SLOAD DUP2 DUP5 ADD MSTORE PUSH1 0x3 DUP3 ADD SLOAD PUSH1 0x60 DUP3 ADD MSTORE PUSH1 0x4 DUP3 ADD SLOAD PUSH1 0x80 DUP3 ADD MSTORE PUSH1 0x5 SWAP1 SWAP2 ADD SLOAD PUSH1 0xA0 DUP3 ADD MSTORE DUP5 DUP5 MSTORE PUSH1 0xB DUP4 MSTORE DUP2 DUP5 KECCAK256 DUP1 SLOAD DUP4 MLOAD DUP2 DUP7 MUL DUP2 ADD DUP7 ADD SWAP1 SWAP5 MSTORE DUP1 DUP5 MSTORE SWAP2 SWAP5 SWAP4 SWAP1 SWAP2 SWAP1 DUP4 ADD DUP3 DUP3 DUP1 ISZERO PUSH2 0x258 JUMPI PUSH1 0x20 MUL DUP3 ADD SWAP2 SWAP1 PUSH1 0x0 MSTORE PUSH1 0x20 PUSH1 0x0 KECCAK256 SWAP1 JUMPDEST DUP2 SLOAD DUP2 MSTORE PUSH1 0x20 ADD SWAP1 PUSH1 0x1 ADD SWAP1 DUP1 DUP4 GT PUSH2 0x244 JUMPI JUMPDEST POP POP DUP4 MLOAD SWAP4 SWAP5 POP PUSH1 0x0 SWAP3 POP POP POP JUMPDEST DUP2 DUP2 LT ISZERO PUSH2 0x388 JUMPI PUSH1 0x0 DUP1 DUP6 PUSH1 0xA0 ADD MLOAD PUSH1 0x1 EQ ISZERO PUSH2 0x303 JUMPI PUSH1 0xA PUSH1 0x0 DUP7 DUP6 DUP2 MLOAD DUP2 LT PUSH2 0x2A2 JUMPI PUSH4 0x4E487B71 PUSH1 0xE0 SHL PUSH1 0x0 MSTORE PUSH1 0x32 PUSH1 0x4 MSTORE PUSH1 0x24 PUSH1 0x0 REVERT JUMPDEST PUSH1 0x20 MUL PUSH1 0x20 ADD ADD MLOAD DUP2 MSTORE PUSH1 0x20 ADD SWAP1 DUP2 MSTORE PUSH1 0x20 ADD PUSH1 0x0 KECCAK256 PUSH1 0x0 ADD SLOAD SWAP1 POP PUSH1 0xA PUSH1 0x0 DUP7 DUP6 DUP2 MLOAD DUP2 LT PUSH2 0x2E2 JUMPI PUSH4 0x4E487B71 PUSH1 0xE0 SHL PUSH1 0x0 MSTORE PUSH1 0x32 PUSH1 0x4 MSTORE PUSH1 0x24 PUSH1 0x0 REVERT JUMPDEST PUSH1 0x20 MUL PUSH1 0x20 ADD ADD MLOAD DUP2 MSTORE PUSH1 0x20 ADD SWAP1 DUP2 MSTORE PUSH1 0x20 ADD PUSH1 0x0 KECCAK256 PUSH1 0x1 ADD SLOAD SWAP2 POP PUSH2 0x373 JUMP JUMPDEST DUP6 PUSH1 0xA0 ADD MLOAD PUSH1 0x2 EQ ISZERO PUSH2 0x334 JUMPI PUSH1 0xA PUSH1 0x0 DUP7 DUP6 DUP2 MLOAD DUP2 LT PUSH2 0x2A2 JUMPI PUSH4 0x4E487B71 PUSH1 0xE0 SHL PUSH1 0x0 MSTORE PUSH1 0x32 PUSH1 0x4 MSTORE PUSH1 0x24 PUSH1 0x0 REVERT JUMPDEST PUSH1 0x40 MLOAD PUSH3 0x461BCD PUSH1 0xE5 SHL DUP2 MSTORE PUSH1 0x20 PUSH1 0x4 DUP3 ADD MSTORE PUSH1 0xF PUSH1 0x24 DUP3 ADD MSTORE PUSH15 0x453A20696E76616C69642073696465 PUSH1 0x88 SHL PUSH1 0x44 DUP3 ADD MSTORE PUSH1 0x64 ADD JUMPDEST PUSH1 0x40 MLOAD DUP1 SWAP2 SUB SWAP1 REVERT JUMPDEST POP POP DUP1 DUP1 PUSH2 0x380 SWAP1 PUSH2 0x25B5 JUMP JUMPDEST SWAP2 POP POP PUSH2 0x266 JUMP JUMPDEST POP POP POP POP JUMPDEST POP JUMP JUMPDEST PUSH1 0x1 PUSH1 0x1 PUSH1 0xA0 SHL SUB DUP2 AND PUSH1 0x0 SWAP1 DUP2 MSTORE PUSH1 0x9 PUSH1 0x20 SWAP1 DUP2 MSTORE PUSH1 0x40 DUP1 DUP4 KECCAK256 DUP1 SLOAD DUP3 MLOAD DUP2 DUP6 MUL DUP2 ADD DUP6 ADD SWAP1 SWAP4 MSTORE DUP1 DUP4 MSTORE PUSH1 0x60 SWAP5 DUP6 SWAP5 SWAP1 SWAP4 SWAP3 SWAP2 SWAP1 DUP4 ADD DUP3 DUP3 DUP1 ISZERO PUSH2 0x3F5 JUMPI PUSH1 0x20 MUL DUP3 ADD SWAP2 SWAP1 PUSH1 0x0 MSTORE PUSH1 0x20 PUSH1 0x0 KECCAK256 SWAP1 JUMPDEST DUP2 SLOAD DUP2 MSTORE PUSH1 0x20 ADD SWAP1 PUSH1 0x1 ADD SWAP1 DUP1 DUP4 GT PUSH2 0x3E1 JUMPI JUMPDEST POP POP PUSH1 0x5 SLOAD SWAP4 SWAP5 POP PUSH1 0x0 SWAP3 POP POP POP JUMPDEST DUP2 DUP2 LT ISZERO PUSH2 0x4DA JUMPI PUSH1 0x8 PUSH1 0x0 DUP5 DUP4 DUP2 MLOAD DUP2 LT PUSH2 0x430 JUMPI PUSH4 0x4E487B71 PUSH1 0xE0 SHL PUSH1 0x0 MSTORE PUSH1 0x32 PUSH1 0x4 MSTORE PUSH1 0x24 PUSH1 0x0 REVERT JUMPDEST PUSH1 0x20 SWAP1 DUP2 MUL SWAP2 SWAP1 SWAP2 ADD DUP2 ADD MLOAD DUP3 MSTORE DUP2 DUP2 ADD SWAP3 SWAP1 SWAP3 MSTORE PUSH1 0x40 SWAP1 DUP2 ADD PUSH1 0x0 KECCAK256 DUP2 MLOAD PUSH1 0xC0 DUP2 ADD DUP4 MSTORE DUP2 SLOAD PUSH1 0x1 PUSH1 0x1 PUSH1 0xA0 SHL SUB SWAP1 DUP2 AND DUP3 MSTORE PUSH1 0x1 DUP4 ADD SLOAD AND SWAP4 DUP2 ADD SWAP4 SWAP1 SWAP4 MSTORE PUSH1 0x2 DUP2 ADD SLOAD SWAP2 DUP4 ADD SWAP2 SWAP1 SWAP2 MSTORE PUSH1 0x3 DUP2 ADD SLOAD PUSH1 0x60 DUP4 ADD MSTORE PUSH1 0x4 DUP2 ADD SLOAD PUSH1 0x80 DUP4 ADD MSTORE PUSH1 0x5 ADD SLOAD PUSH1 0xA0 DUP3 ADD MSTORE DUP5 MLOAD DUP6 SWAP1 DUP4 SWAP1 DUP2 LT PUSH2 0x4BC JUMPI PUSH4 0x4E487B71 PUSH1 0xE0 SHL PUSH1 0x0 MSTORE PUSH1 0x32 PUSH1 0x4 MSTORE PUSH1 0x24 PUSH1 0x0 REVERT JUMPDEST PUSH1 0x20 MUL PUSH1 0x20 ADD ADD DUP2 SWAP1 MSTORE POP DUP1 DUP1 PUSH2 0x4D2 SWAP1 PUSH2 0x25B5 JUMP JUMPDEST SWAP2 POP POP PUSH2 0x404 JUMP JUMPDEST POP SWAP2 SWAP5 SWAP4 POP POP POP POP JUMP JUMPDEST PUSH1 0x0 PUSH1 0x2 PUSH1 0x0 SLOAD EQ ISZERO PUSH2 0x539 JUMPI PUSH1 0x40 MLOAD PUSH3 0x461BCD PUSH1 0xE5 SHL DUP2 MSTORE PUSH1 0x20 PUSH1 0x4 DUP3 ADD MSTORE PUSH1 0x1F PUSH1 0x24 DUP3 ADD MSTORE PUSH32 0x5265656E7472616E637947756172643A207265656E7472616E742063616C6C00 PUSH1 0x44 DUP3 ADD MSTORE PUSH1 0x64 ADD PUSH2 0x36A JUMP JUMPDEST PUSH1 0x2 PUSH1 0x0 SWAP1 DUP2 SSTORE PUSH1 0x1 PUSH1 0x1 PUSH1 0xA0 SHL SUB DUP4 DUP2 AND DUP3 MSTORE PUSH1 0x7 PUSH1 0x20 MSTORE PUSH1 0x40 SWAP2 DUP3 SWAP1 KECCAK256 SLOAD SWAP2 MLOAD PUSH4 0x70A08231 PUSH1 0xE0 SHL DUP2 MSTORE ADDRESS PUSH1 0x4 DUP3 ADD MSTORE DUP3 SWAP2 PUSH32 0x0 AND SWAP1 PUSH4 0x70A08231 SWAP1 PUSH1 0x24 ADD PUSH1 0x20 PUSH1 0x40 MLOAD DUP1 DUP4 SUB DUP2 DUP7 DUP1 EXTCODESIZE ISZERO DUP1 ISZERO PUSH2 0x5B1 JUMPI PUSH1 0x0 DUP1 REVERT JUMPDEST POP GAS STATICCALL ISZERO DUP1 ISZERO PUSH2 0x5C5 JUMPI RETURNDATASIZE PUSH1 0x0 DUP1 RETURNDATACOPY RETURNDATASIZE PUSH1 0x0 REVERT JUMPDEST POP POP POP POP PUSH1 0x40 MLOAD RETURNDATASIZE PUSH1 0x1F NOT PUSH1 0x1F DUP3 ADD AND DUP3 ADD DUP1 PUSH1 0x40 MSTORE POP DUP2 ADD SWAP1 PUSH2 0x5E9 SWAP2 SWAP1 PUSH2 0x248F JUMP JUMPDEST LT ISZERO DUP1 ISZERO PUSH2 0x5F7 JUMPI POP PUSH1 0x0 DUP2 GT JUMPDEST PUSH2 0x628 JUMPI PUSH1 0x40 MLOAD PUSH3 0x461BCD PUSH1 0xE5 SHL DUP2 MSTORE PUSH1 0x20 PUSH1 0x4 DUP3 ADD MSTORE PUSH1 0x2 PUSH1 0x24 DUP3 ADD MSTORE PUSH2 0x2699 PUSH1 0xF1 SHL PUSH1 0x44 DUP3 ADD MSTORE PUSH1 0x64 ADD PUSH2 0x36A JUMP JUMPDEST PUSH1 0x1 PUSH1 0x1 PUSH1 0xA0 SHL SUB DUP4 AND PUSH1 0x0 SWAP1 DUP2 MSTORE PUSH1 0x7 PUSH1 0x20 MSTORE PUSH1 0x40 DUP2 KECCAK256 DUP1 SLOAD DUP4 SWAP3 SWAP1 PUSH2 0x650 SWAP1 DUP5 SWAP1 PUSH2 0x259E JUMP JUMPDEST SWAP1 SWAP2 SSTORE POP POP PUSH1 0x40 MLOAD PUSH4 0xA9059CBB PUSH1 0xE0 SHL DUP2 MSTORE PUSH1 0x1 PUSH1 0x1 PUSH1 0xA0 SHL SUB DUP5 DUP2 AND PUSH1 0x4 DUP4 ADD MSTORE PUSH1 0x24 DUP3 ADD DUP4 SWAP1 MSTORE PUSH1 0x0 SWAP2 PUSH32 0x0 SWAP1 SWAP2 AND SWAP1 PUSH4 0xA9059CBB SWAP1 PUSH1 0x44 ADD PUSH1 0x20 PUSH1 0x40 MLOAD DUP1 DUP4 SUB DUP2 PUSH1 0x0 DUP8 DUP1 EXTCODESIZE ISZERO DUP1 ISZERO PUSH2 0x6C4 JUMPI PUSH1 0x0 DUP1 REVERT JUMPDEST POP GAS CALL ISZERO DUP1 ISZERO PUSH2 0x6D8 JUMPI RETURNDATASIZE PUSH1 0x0 DUP1 RETURNDATACOPY RETURNDATASIZE PUSH1 0x0 REVERT JUMPDEST POP POP POP POP PUSH1 0x40 MLOAD RETURNDATASIZE PUSH1 0x1F NOT PUSH1 0x1F DUP3 ADD AND DUP3 ADD DUP1 PUSH1 0x40 MSTORE POP DUP2 ADD SWAP1 PUSH2 0x6FC SWAP2 SWAP1 PUSH2 0x245B JUMP JUMPDEST SWAP1 POP DUP1 PUSH2 0x730 JUMPI PUSH1 0x40 MLOAD PUSH3 0x461BCD PUSH1 0xE5 SHL DUP2 MSTORE PUSH1 0x20 PUSH1 0x4 DUP3 ADD MSTORE PUSH1 0x2 PUSH1 0x24 DUP3 ADD MSTORE PUSH2 0x4D33 PUSH1 0xF0 SHL PUSH1 0x44 DUP3 ADD MSTORE PUSH1 0x64 ADD PUSH2 0x36A JUMP JUMPDEST PUSH1 0x40 DUP1 MLOAD PUSH1 0x1 PUSH1 0x1 PUSH1 0xA0 SHL SUB DUP7 AND DUP2 MSTORE PUSH1 0x20 DUP2 ADD DUP5 SWAP1 MSTORE PUSH32 0x884EDAD9CE6FA2440D8A54CC123490EB96D2768479D49FF9C7366125A9424364 SWAP2 ADD PUSH1 0x40 MLOAD DUP1 SWAP2 SUB SWAP1 LOG1 PUSH1 0x1 SWAP3 POP POP POP JUMPDEST PUSH1 0x1 PUSH1 0x0 SSTORE SWAP2 SWAP1 POP JUMP JUMPDEST PUSH1 0x0 DUP2 DUP2 MSTORE PUSH1 0xB PUSH1 0x20 SWAP1 DUP2 MSTORE PUSH1 0x40 DUP1 DUP4 KECCAK256 DUP1 SLOAD DUP3 MLOAD DUP2 DUP6 MUL DUP2 ADD DUP6 ADD SWAP1 SWAP4 MSTORE DUP1 DUP4 MSTORE SWAP2 SWAP3 SWAP1 SWAP2 SWAP1 DUP4 ADD DUP3 DUP3 DUP1 ISZERO PUSH2 0x7D9 JUMPI PUSH1 0x20 MUL DUP3 ADD SWAP2 SWAP1 PUSH1 0x0 MSTORE PUSH1 0x20 PUSH1 0x0 KECCAK256 SWAP1 JUMPDEST DUP2 SLOAD DUP2 MSTORE PUSH1 0x20 ADD SWAP1 PUSH1 0x1 ADD SWAP1 DUP1 DUP4 GT PUSH2 0x7C5 JUMPI JUMPDEST POP POP DUP4 MLOAD SWAP4 SWAP5 POP PUSH1 0x0 SWAP3 POP POP POP JUMPDEST DUP2 DUP2 LT ISZERO PUSH2 0x832 JUMPI PUSH2 0x81F DUP4 DUP3 DUP2 MLOAD DUP2 LT PUSH2 0x812 JUMPI PUSH4 0x4E487B71 PUSH1 0xE0 SHL PUSH1 0x0 MSTORE PUSH1 0x32 PUSH1 0x4 MSTORE PUSH1 0x24 PUSH1 0x0 REVERT JUMPDEST PUSH1 0x20 MUL PUSH1 0x20 ADD ADD MLOAD PUSH2 0x16FF JUMP JUMPDEST POP DUP1 PUSH2 0x82A DUP2 PUSH2 0x25B5 JUMP JUMPDEST SWAP2 POP POP PUSH2 0x7E7 JUMP JUMPDEST POP CALLER PUSH1 0x0 SWAP1 DUP2 MSTORE PUSH1 0x7 PUSH1 0x20 MSTORE PUSH1 0x40 SWAP1 KECCAK256 SLOAD ISZERO PUSH2 0x853 JUMPI PUSH2 0x851 CALLER PUSH2 0x4E4 JUMP JUMPDEST POP JUMPDEST POP POP POP JUMP JUMPDEST PUSH1 0x1 SLOAD PUSH1 0x0 SWAP1 PUSH1 0x1 PUSH1 0x1 PUSH1 0xA0 SHL SUB AND CALLER EQ DUP1 PUSH2 0x915 JUMPI POP PUSH32 0x0 PUSH1 0x1 PUSH1 0x1 PUSH1 0xA0 SHL SUB AND PUSH4 0xCE606EE0 PUSH1 0x40 MLOAD DUP2 PUSH4 0xFFFFFFFF AND PUSH1 0xE0 SHL DUP2 MSTORE PUSH1 0x4 ADD PUSH1 0x20 PUSH1 0x40 MLOAD DUP1 DUP4 SUB DUP2 DUP7 DUP1 EXTCODESIZE ISZERO DUP1 ISZERO PUSH2 0x8C8 JUMPI PUSH1 0x0 DUP1 REVERT JUMPDEST POP GAS STATICCALL ISZERO DUP1 ISZERO PUSH2 0x8DC JUMPI RETURNDATASIZE PUSH1 0x0 DUP1 RETURNDATACOPY RETURNDATASIZE PUSH1 0x0 REVERT JUMPDEST POP POP POP POP PUSH1 0x40 MLOAD RETURNDATASIZE PUSH1 0x1F NOT PUSH1 0x1F DUP3 ADD AND DUP3 ADD DUP1 PUSH1 0x40 MSTORE POP DUP2 ADD SWAP1 PUSH2 0x900 SWAP2 SWAP1 PUSH2 0x23D9 JUMP JUMPDEST PUSH1 0x1 PUSH1 0x1 PUSH1 0xA0 SHL SUB AND CALLER PUSH1 0x1 PUSH1 0x1 PUSH1 0xA0 SHL SUB AND EQ JUMPDEST DUP1 PUSH2 0x92A JUMPI POP PUSH1 0x2 SLOAD PUSH1 0x1 PUSH1 0x1 PUSH1 0xA0 SHL SUB AND CALLER EQ JUMPDEST PUSH2 0x946 JUMPI PUSH1 0x40 MLOAD PUSH3 0x461BCD PUSH1 0xE5 SHL DUP2 MSTORE PUSH1 0x4 ADD PUSH2 0x36A SWAP1 PUSH2 0x252B JUMP JUMPDEST PUSH1 0x3 SLOAD ISZERO DUP1 PUSH2 0x957 JUMPI POP PUSH1 0x3 SLOAD PUSH1 0x4 EQ JUMPDEST ISZERO PUSH2 0x9BC JUMPI PUSH1 0x4 SLOAD PUSH1 0x0 JUMPDEST DUP2 DUP2 LT ISZERO PUSH2 0x9B0 JUMPI PUSH2 0x99E PUSH1 0x4 DUP3 DUP2 SLOAD DUP2 LT PUSH2 0x98E JUMPI PUSH4 0x4E487B71 PUSH1 0xE0 SHL PUSH1 0x0 MSTORE PUSH1 0x32 PUSH1 0x4 MSTORE PUSH1 0x24 PUSH1 0x0 REVERT JUMPDEST SWAP1 PUSH1 0x0 MSTORE PUSH1 0x20 PUSH1 0x0 KECCAK256 ADD SLOAD PUSH2 0x2043 JUMP JUMPDEST DUP1 PUSH2 0x9A8 DUP2 PUSH2 0x25B5 JUMP JUMPDEST SWAP2 POP POP PUSH2 0x962 JUMP JUMPDEST POP POP PUSH1 0x3 DUP1 SSTORE POP PUSH1 0x1 SWAP1 JUMP JUMPDEST POP PUSH1 0x0 SWAP1 JUMP JUMPDEST PUSH1 0x40 MLOAD PUSH4 0x332DACCF PUSH1 0xE0 SHL DUP2 MSTORE CALLER PUSH1 0x4 DUP3 ADD MSTORE PUSH1 0x0 SWAP1 PUSH32 0x0 PUSH1 0x1 PUSH1 0x1 PUSH1 0xA0 SHL SUB AND SWAP1 PUSH4 0x332DACCF SWAP1 PUSH1 0x24 ADD PUSH1 0x20 PUSH1 0x40 MLOAD DUP1 DUP4 SUB DUP2 DUP7 DUP1 EXTCODESIZE ISZERO DUP1 ISZERO PUSH2 0xA24 JUMPI PUSH1 0x0 DUP1 REVERT JUMPDEST POP GAS STATICCALL ISZERO DUP1 ISZERO PUSH2 0xA38 JUMPI RETURNDATASIZE PUSH1 0x0 DUP1 RETURNDATACOPY RETURNDATASIZE PUSH1 0x0 REVERT JUMPDEST POP POP POP POP PUSH1 0x40 MLOAD RETURNDATASIZE PUSH1 0x1F NOT PUSH1 0x1F DUP3 ADD AND DUP3 ADD DUP1 PUSH1 0x40 MSTORE POP DUP2 ADD SWAP1 PUSH2 0xA5C SWAP2 SWAP1 PUSH2 0x245B JUMP JUMPDEST ISZERO DUP1 ISZERO PUSH2 0xA69 JUMPI POP PUSH1 0x3 SLOAD ISZERO JUMPDEST PUSH2 0xA9A JUMPI PUSH1 0x40 MLOAD PUSH3 0x461BCD PUSH1 0xE5 SHL DUP2 MSTORE PUSH1 0x20 PUSH1 0x4 DUP3 ADD MSTORE PUSH1 0x2 PUSH1 0x24 DUP3 ADD MSTORE PUSH2 0x9A7 PUSH1 0xF3 SHL PUSH1 0x44 DUP3 ADD MSTORE PUSH1 0x64 ADD PUSH2 0x36A JUMP JUMPDEST DUP3 PUSH1 0x1 EQ DUP1 PUSH2 0xAA9 JUMPI POP DUP3 PUSH1 0x2 EQ JUMPDEST PUSH2 0xADA JUMPI PUSH1 0x40 MLOAD PUSH3 0x461BCD PUSH1 0xE5 SHL DUP2 MSTORE PUSH1 0x20 PUSH1 0x4 DUP3 ADD MSTORE PUSH1 0x2 PUSH1 0x24 DUP3 ADD MSTORE PUSH2 0x4D39 PUSH1 0xF0 SHL PUSH1 0x44 DUP3 ADD MSTORE PUSH1 0x64 ADD PUSH2 0x36A JUMP JUMPDEST PUSH1 0x40 MLOAD PUSH4 0x6EB1769F PUSH1 0xE1 SHL DUP2 MSTORE CALLER PUSH1 0x4 DUP3 ADD MSTORE ADDRESS PUSH1 0x24 DUP3 ADD MSTORE DUP6 SWAP1 PUSH32 0x0 PUSH1 0x1 PUSH1 0x1 PUSH1 0xA0 SHL SUB AND SWAP1 PUSH4 0xDD62ED3E SWAP1 PUSH1 0x44 ADD PUSH1 0x20 PUSH1 0x40 MLOAD DUP1 DUP4 SUB DUP2 DUP7 DUP1 EXTCODESIZE ISZERO DUP1 ISZERO PUSH2 0xB41 JUMPI PUSH1 0x0 DUP1 REVERT JUMPDEST POP GAS STATICCALL ISZERO DUP1 ISZERO PUSH2 0xB55 JUMPI RETURNDATASIZE PUSH1 0x0 DUP1 RETURNDATACOPY RETURNDATASIZE PUSH1 0x0 REVERT JUMPDEST POP POP POP POP PUSH1 0x40 MLOAD RETURNDATASIZE PUSH1 0x1F NOT PUSH1 0x1F DUP3 ADD AND DUP3 ADD DUP1 PUSH1 0x40 MSTORE POP DUP2 ADD SWAP1 PUSH2 0xB79 SWAP2 SWAP1 PUSH2 0x248F JUMP JUMPDEST LT ISZERO DUP1 ISZERO PUSH2 0xC17 JUMPI POP PUSH32 0x0 PUSH1 0x1 PUSH1 0x1 PUSH1 0xA0 SHL SUB AND PUSH4 0x375B3C0A PUSH1 0x40 MLOAD DUP2 PUSH4 0xFFFFFFFF AND PUSH1 0xE0 SHL DUP2 MSTORE PUSH1 0x4 ADD PUSH1 0x20 PUSH1 0x40 MLOAD DUP1 DUP4 SUB DUP2 DUP7 DUP1 EXTCODESIZE ISZERO DUP1 ISZERO PUSH2 0xBDB JUMPI PUSH1 0x0 DUP1 REVERT JUMPDEST POP GAS STATICCALL ISZERO DUP1 ISZERO PUSH2 0xBEF JUMPI RETURNDATASIZE PUSH1 0x0 DUP1 RETURNDATACOPY RETURNDATASIZE PUSH1 0x0 REVERT JUMPDEST POP POP POP POP PUSH1 0x40 MLOAD RETURNDATASIZE PUSH1 0x1F NOT PUSH1 0x1F DUP3 ADD AND DUP3 ADD DUP1 PUSH1 0x40 MSTORE POP DUP2 ADD SWAP1 PUSH2 0xC13 SWAP2 SWAP1 PUSH2 0x248F JUMP JUMPDEST DUP6 LT ISZERO JUMPDEST PUSH2 0xC49 JUMPI PUSH1 0x40 MLOAD PUSH3 0x461BCD PUSH1 0xE5 SHL DUP2 MSTORE PUSH1 0x20 PUSH1 0x4 DUP3 ADD MSTORE PUSH1 0x3 PUSH1 0x24 DUP3 ADD MSTORE PUSH3 0x4D313 PUSH1 0xEC SHL PUSH1 0x44 DUP3 ADD MSTORE PUSH1 0x64 ADD PUSH2 0x36A JUMP JUMPDEST PUSH1 0x40 MLOAD PUSH4 0x23B872DD PUSH1 0xE0 SHL DUP2 MSTORE CALLER PUSH1 0x4 DUP3 ADD MSTORE ADDRESS PUSH1 0x24 DUP3 ADD MSTORE PUSH1 0x44 DUP2 ADD DUP7 SWAP1 MSTORE PUSH32 0x0 PUSH1 0x1 PUSH1 0x1 PUSH1 0xA0 SHL SUB AND SWAP1 PUSH4 0x23B872DD SWAP1 PUSH1 0x64 ADD PUSH1 0x20 PUSH1 0x40 MLOAD DUP1 DUP4 SUB DUP2 PUSH1 0x0 DUP8 DUP1 EXTCODESIZE ISZERO DUP1 ISZERO PUSH2 0xCB7 JUMPI PUSH1 0x0 DUP1 REVERT JUMPDEST POP GAS CALL ISZERO DUP1 ISZERO PUSH2 0xCCB JUMPI RETURNDATASIZE PUSH1 0x0 DUP1 RETURNDATACOPY RETURNDATASIZE PUSH1 0x0 REVERT JUMPDEST POP POP POP POP PUSH1 0x40 MLOAD RETURNDATASIZE PUSH1 0x1F NOT PUSH1 0x1F DUP3 ADD AND DUP3 ADD DUP1 PUSH1 0x40 MSTORE POP DUP2 ADD SWAP1 PUSH2 0xCEF SWAP2 SWAP1 PUSH2 0x245B JUMP JUMPDEST PUSH2 0xD21 JUMPI PUSH1 0x40 MLOAD PUSH3 0x461BCD PUSH1 0xE5 SHL DUP2 MSTORE PUSH1 0x20 PUSH1 0x4 DUP3 ADD MSTORE PUSH1 0x3 PUSH1 0x24 DUP3 ADD MSTORE PUSH3 0x4D3131 PUSH1 0xE8 SHL PUSH1 0x44 DUP3 ADD MSTORE PUSH1 0x64 ADD PUSH2 0x36A JUMP JUMPDEST PUSH1 0x0 PUSH2 0xD50 DUP9 DUP9 DUP9 DUP5 PUSH2 0xD35 PUSH1 0x64 DUP12 PUSH2 0x259E JUMP JUMPDEST PUSH2 0xD40 DUP12 PUSH1 0x64 PUSH2 0x257F JUMP JUMPDEST PUSH2 0xD4A SWAP2 SWAP1 PUSH2 0x255F JUMP JUMPDEST DUP10 PUSH2 0x20FE JUMP JUMPDEST PUSH1 0x6 SLOAD SWAP1 SWAP2 POP ISZERO PUSH2 0x1250 JUMPI DUP6 JUMPDEST PUSH32 0x0 PUSH1 0x1 PUSH1 0x1 PUSH1 0xA0 SHL SUB AND PUSH4 0x375B3C0A PUSH1 0x40 MLOAD DUP2 PUSH4 0xFFFFFFFF AND PUSH1 0xE0 SHL DUP2 MSTORE PUSH1 0x4 ADD PUSH1 0x20 PUSH1 0x40 MLOAD DUP1 DUP4 SUB DUP2 DUP7 DUP1 EXTCODESIZE ISZERO DUP1 ISZERO PUSH2 0xDB6 JUMPI PUSH1 0x0 DUP1 REVERT JUMPDEST POP GAS STATICCALL ISZERO DUP1 ISZERO PUSH2 0xDCA JUMPI RETURNDATASIZE PUSH1 0x0 DUP1 RETURNDATACOPY RETURNDATASIZE PUSH1 0x0 REVERT JUMPDEST POP POP POP POP PUSH1 0x40 MLOAD RETURNDATASIZE PUSH1 0x1F NOT PUSH1 0x1F DUP3 ADD AND DUP3 ADD DUP1 PUSH1 0x40 MSTORE POP DUP2 ADD SWAP1 PUSH2 0xDEE SWAP2 SWAP1 PUSH2 0x248F JUMP JUMPDEST DUP2 LT PUSH2 0x124A JUMPI PUSH1 0x0 DUP1 PUSH1 0x0 JUMPDEST PUSH1 0x6 SLOAD DUP2 LT ISZERO PUSH2 0xEA0 JUMPI PUSH1 0x0 PUSH1 0x6 DUP3 DUP2 SLOAD DUP2 LT PUSH2 0xE27 JUMPI PUSH4 0x4E487B71 PUSH1 0xE0 SHL PUSH1 0x0 MSTORE PUSH1 0x32 PUSH1 0x4 MSTORE PUSH1 0x24 PUSH1 0x0 REVERT JUMPDEST SWAP1 PUSH1 0x0 MSTORE PUSH1 0x20 PUSH1 0x0 KECCAK256 ADD SLOAD SWAP1 POP PUSH1 0x8 PUSH1 0x0 DUP3 DUP2 MSTORE PUSH1 0x20 ADD SWAP1 DUP2 MSTORE PUSH1 0x20 ADD PUSH1 0x0 KECCAK256 PUSH1 0x5 ADD SLOAD DUP10 EQ ISZERO PUSH2 0xE58 JUMPI POP PUSH2 0xE8E JUMP JUMPDEST PUSH1 0x0 DUP2 DUP2 MSTORE PUSH1 0x8 PUSH1 0x20 MSTORE PUSH1 0x40 SWAP1 KECCAK256 PUSH1 0x4 ADD SLOAD DUP4 LT ISZERO PUSH2 0xE8C JUMPI PUSH1 0x0 DUP2 DUP2 MSTORE PUSH1 0x8 PUSH1 0x20 MSTORE PUSH1 0x40 SWAP1 KECCAK256 PUSH1 0x4 ADD SLOAD SWAP2 SWAP4 POP SWAP1 SWAP2 POP DUP3 SWAP1 JUMPDEST POP JUMPDEST DUP1 PUSH2 0xE98 DUP2 PUSH2 0x25B5 JUMP JUMPDEST SWAP2 POP POP PUSH2 0xDFA JUMP JUMPDEST POP DUP8 DUP2 GT DUP1 PUSH2 0xEB7 JUMPI POP PUSH1 0x0 DUP2 GT DUP1 ISZERO PUSH2 0xEB7 JUMPI POP DUP6 JUMPDEST ISZERO PUSH2 0x1207 JUMPI PUSH1 0x0 PUSH1 0x6 DUP4 DUP2 SLOAD DUP2 LT PUSH2 0xEDF JUMPI PUSH4 0x4E487B71 PUSH1 0xE0 SHL PUSH1 0x0 MSTORE PUSH1 0x32 PUSH1 0x4 MSTORE PUSH1 0x24 PUSH1 0x0 REVERT JUMPDEST PUSH1 0x0 SWAP2 DUP3 MSTORE PUSH1 0x20 DUP1 DUP4 KECCAK256 SWAP1 SWAP2 ADD SLOAD DUP1 DUP4 MSTORE PUSH1 0x8 DUP3 MSTORE PUSH1 0x40 DUP1 DUP5 KECCAK256 DUP2 MLOAD PUSH1 0xC0 DUP2 ADD DUP4 MSTORE DUP2 SLOAD PUSH1 0x1 PUSH1 0x1 PUSH1 0xA0 SHL SUB SWAP1 DUP2 AND DUP3 MSTORE PUSH1 0x1 DUP4 ADD SLOAD AND SWAP5 DUP2 ADD SWAP5 SWAP1 SWAP5 MSTORE PUSH1 0x2 DUP2 ADD SLOAD SWAP2 DUP5 ADD SWAP2 SWAP1 SWAP2 MSTORE PUSH1 0x3 DUP2 ADD SLOAD PUSH1 0x60 DUP5 ADD MSTORE PUSH1 0x4 DUP2 ADD SLOAD PUSH1 0x80 DUP5 ADD MSTORE PUSH1 0x5 ADD SLOAD PUSH1 0xA0 DUP4 ADD MSTORE SWAP3 POP SWAP1 PUSH2 0xF54 PUSH1 0x64 DUP13 PUSH2 0x259E JUMP JUMPDEST DUP3 PUSH1 0x60 ADD MLOAD DUP4 PUSH1 0x40 ADD MLOAD PUSH2 0xF68 SWAP2 SWAP1 PUSH2 0x259E JUMP JUMPDEST PUSH2 0xF72 SWAP2 SWAP1 PUSH2 0x255F JUMP JUMPDEST SWAP1 POP PUSH2 0xF7F PUSH1 0x64 DUP3 PUSH2 0x257F JUMP JUMPDEST SWAP1 POP PUSH1 0x0 DUP1 PUSH1 0x0 DUP15 DUP5 GT PUSH2 0x107C JUMPI DUP4 SWAP3 POP PUSH2 0xF9B PUSH1 0x64 DUP16 PUSH2 0x259E JUMP JUMPDEST PUSH2 0xFA5 SWAP1 DUP6 PUSH2 0x257F JUMP JUMPDEST SWAP2 POP PUSH2 0xFB2 PUSH1 0x64 DUP4 PUSH2 0x255F JUMP JUMPDEST SWAP2 POP DUP13 PUSH1 0x1 EQ ISZERO PUSH2 0x101A JUMPI PUSH2 0xFC9 DUP11 DUP8 DUP6 DUP6 PUSH2 0x2286 JUMP JUMPDEST PUSH1 0x40 DUP1 MLOAD DUP13 DUP2 MSTORE PUSH1 0x20 DUP2 ADD DUP10 SWAP1 MSTORE SWAP1 DUP2 ADD DUP6 SWAP1 MSTORE PUSH1 0x60 DUP2 ADD DUP5 SWAP1 MSTORE SWAP1 SWAP2 POP PUSH32 0x5DE48BB383B4A2AAAD84721B80D93429B813651B0EEFBD59D32018CFE28215DC SWAP1 PUSH1 0x80 ADD JUMPDEST PUSH1 0x40 MLOAD DUP1 SWAP2 SUB SWAP1 LOG1 PUSH2 0x111A JUMP JUMPDEST DUP13 PUSH1 0x2 EQ ISZERO PUSH2 0x1077 JUMPI PUSH2 0x102F DUP7 DUP12 DUP5 DUP7 PUSH2 0x2286 JUMP JUMPDEST PUSH1 0x40 DUP1 MLOAD DUP9 DUP2 MSTORE PUSH1 0x20 DUP2 ADD DUP14 SWAP1 MSTORE SWAP1 DUP2 ADD DUP5 SWAP1 MSTORE PUSH1 0x60 DUP2 ADD DUP6 SWAP1 MSTORE SWAP1 SWAP2 POP PUSH32 0x5DE48BB383B4A2AAAD84721B80D93429B813651B0EEFBD59D32018CFE28215DC SWAP1 PUSH1 0x80 ADD PUSH2 0x100D JUMP JUMPDEST PUSH2 0x111A JUMP JUMPDEST DUP15 SWAP3 POP PUSH2 0x108A PUSH1 0x64 DUP16 PUSH2 0x259E JUMP JUMPDEST DUP16 PUSH2 0x1095 SWAP2 SWAP1 PUSH2 0x257F JUMP JUMPDEST SWAP2 POP PUSH2 0x10A2 PUSH1 0x64 DUP4 PUSH2 0x255F JUMP JUMPDEST SWAP2 POP DUP13 PUSH1 0x1 EQ ISZERO PUSH2 0x10B9 JUMPI PUSH2 0xFC9 DUP11 DUP8 DUP6 DUP6 PUSH2 0x2286 JUMP JUMPDEST DUP13 PUSH1 0x2 EQ ISZERO PUSH2 0x111A JUMPI PUSH2 0x10CE DUP7 DUP12 DUP5 DUP7 PUSH2 0x2286 JUMP JUMPDEST PUSH1 0x40 DUP1 MLOAD DUP9 DUP2 MSTORE PUSH1 0x20 DUP2 ADD DUP14 SWAP1 MSTORE SWAP1 DUP2 ADD DUP5 SWAP1 MSTORE PUSH1 0x60 DUP2 ADD DUP6 SWAP1 MSTORE SWAP1 SWAP2 POP PUSH32 0x5DE48BB383B4A2AAAD84721B80D93429B813651B0EEFBD59D32018CFE28215DC SWAP1 PUSH1 0x80 ADD PUSH1 0x40 MLOAD DUP1 SWAP2 SUB SWAP1 LOG1 JUMPDEST PUSH1 0x0 DUP11 DUP2 MSTORE PUSH1 0xB PUSH1 0x20 SWAP1 DUP2 MSTORE PUSH1 0x40 DUP1 DUP4 KECCAK256 DUP1 SLOAD PUSH1 0x1 DUP2 DUP2 ADD DUP4 SSTORE SWAP2 DUP6 MSTORE DUP4 DUP6 KECCAK256 ADD DUP6 SWAP1 SSTORE DUP10 DUP5 MSTORE DUP2 DUP5 KECCAK256 DUP1 SLOAD SWAP2 DUP3 ADD DUP2 SSTORE DUP5 MSTORE DUP3 DUP5 KECCAK256 ADD DUP5 SWAP1 SSTORE DUP13 DUP4 MSTORE PUSH1 0x8 SWAP1 SWAP2 MSTORE DUP2 KECCAK256 PUSH1 0x3 ADD DUP1 SLOAD DUP6 SWAP3 SWAP1 PUSH2 0x1171 SWAP1 DUP5 SWAP1 PUSH2 0x2547 JUMP JUMPDEST SWAP1 SWAP2 SSTORE POP POP PUSH1 0x0 DUP7 DUP2 MSTORE PUSH1 0x8 PUSH1 0x20 MSTORE PUSH1 0x40 DUP2 KECCAK256 PUSH1 0x3 ADD DUP1 SLOAD DUP5 SWAP3 SWAP1 PUSH2 0x1197 SWAP1 DUP5 SWAP1 PUSH2 0x2547 JUMP JUMPDEST SWAP1 SWAP2 SSTORE POP POP PUSH1 0x0 DUP7 DUP2 MSTORE PUSH1 0x8 PUSH1 0x20 MSTORE PUSH1 0x40 SWAP1 KECCAK256 PUSH1 0x3 DUP2 ADD SLOAD PUSH1 0x2 SWAP1 SWAP2 ADD SLOAD PUSH2 0x11BF SWAP2 SWAP1 PUSH2 0x259E JUMP JUMPDEST PUSH2 0x11F0 JUMPI PUSH1 0x6 DUP9 DUP2 SLOAD DUP2 LT PUSH2 0x11E4 JUMPI PUSH4 0x4E487B71 PUSH1 0xE0 SHL PUSH1 0x0 MSTORE PUSH1 0x32 PUSH1 0x4 MSTORE PUSH1 0x24 PUSH1 0x0 REVERT JUMPDEST PUSH1 0x0 SWAP2 DUP3 MSTORE PUSH1 0x20 DUP3 KECCAK256 ADD SSTORE JUMPDEST PUSH2 0x11FA DUP4 DUP11 PUSH2 0x259E JUMP JUMPDEST SWAP9 POP POP POP POP POP POP POP PUSH2 0x1243 JUMP JUMPDEST POP POP PUSH1 0x6 DUP1 SLOAD PUSH1 0x1 DUP2 ADD DUP3 SSTORE PUSH1 0x0 SWAP2 SWAP1 SWAP2 MSTORE PUSH32 0xF652222313E28459528D920B65115C16C04F3EFC82AAEDC97BE59F3F377C0D3F ADD DUP3 SWAP1 SSTORE PUSH2 0x124A JUMP JUMPDEST POP POP PUSH2 0xD5D JUMP JUMPDEST POP PUSH2 0x1286 JUMP JUMPDEST PUSH1 0x6 DUP1 SLOAD PUSH1 0x1 DUP2 ADD DUP3 SSTORE PUSH1 0x0 SWAP2 SWAP1 SWAP2 MSTORE PUSH32 0xF652222313E28459528D920B65115C16C04F3EFC82AAEDC97BE59F3F377C0D3F ADD DUP2 SWAP1 SSTORE JUMPDEST PUSH1 0x40 DUP1 MLOAD CALLER DUP2 MSTORE ADDRESS PUSH1 0x20 DUP3 ADD MSTORE SWAP1 DUP2 ADD DUP3 SWAP1 MSTORE PUSH1 0x60 DUP2 ADD DUP8 SWAP1 MSTORE PUSH1 0x80 DUP2 ADD DUP7 SWAP1 MSTORE PUSH1 0xA0 DUP2 ADD DUP6 SWAP1 MSTORE PUSH32 0x618F358BB45538682ADE624A4A1959053D9DABD20FE300508034B879681B37BE SWAP1 PUSH1 0xC0 ADD PUSH1 0x40 MLOAD DUP1 SWAP2 SUB SWAP1 LOG1 SWAP8 SWAP7 POP POP POP POP POP POP POP JUMP JUMPDEST PUSH1 0x0 DUP2 DUP2 MSTORE PUSH1 0x8 PUSH1 0x20 SWAP1 DUP2 MSTORE PUSH1 0x40 SWAP2 DUP3 SWAP1 KECCAK256 DUP3 MLOAD PUSH1 0xC0 DUP2 ADD DUP5 MSTORE DUP2 SLOAD PUSH1 0x1 PUSH1 0x1 PUSH1 0xA0 SHL SUB SWAP1 DUP2 AND DUP1 DUP4 MSTORE PUSH1 0x1 DUP5 ADD SLOAD SWAP1 SWAP2 AND SWAP4 DUP3 ADD SWAP4 SWAP1 SWAP4 MSTORE PUSH1 0x2 DUP3 ADD SLOAD SWAP4 DUP2 ADD SWAP4 SWAP1 SWAP4 MSTORE PUSH1 0x3 DUP2 ADD SLOAD PUSH1 0x60 DUP5 ADD MSTORE PUSH1 0x4 DUP2 ADD SLOAD PUSH1 0x80 DUP5 ADD MSTORE PUSH1 0x5 ADD SLOAD PUSH1 0xA0 DUP4 ADD MSTORE CALLER EQ PUSH2 0x137B JUMPI PUSH1 0x40 MLOAD PUSH3 0x461BCD PUSH1 0xE5 SHL DUP2 MSTORE PUSH1 0x20 PUSH1 0x4 DUP3 ADD MSTORE PUSH1 0x2 PUSH1 0x24 DUP3 ADD MSTORE PUSH2 0x134D PUSH1 0xF2 SHL PUSH1 0x44 DUP3 ADD MSTORE PUSH1 0x64 ADD PUSH2 0x36A JUMP JUMPDEST PUSH1 0x0 DUP2 PUSH1 0x60 ADD MLOAD DUP3 PUSH1 0x40 ADD MLOAD PUSH2 0x1391 SWAP2 SWAP1 PUSH2 0x259E JUMP JUMPDEST DUP3 MLOAD PUSH1 0x1 PUSH1 0x1 PUSH1 0xA0 SHL SUB AND PUSH1 0x0 SWAP1 DUP2 MSTORE PUSH1 0x7 PUSH1 0x20 MSTORE PUSH1 0x40 DUP2 KECCAK256 DUP1 SLOAD SWAP3 SWAP4 POP DUP4 SWAP3 SWAP1 SWAP2 SWAP1 PUSH2 0x13BF SWAP1 DUP5 SWAP1 PUSH2 0x2547 JUMP JUMPDEST SWAP1 SWAP2 SSTORE POP POP PUSH1 0x40 DUP1 DUP4 ADD MLOAD PUSH1 0x0 DUP6 DUP2 MSTORE PUSH1 0x8 PUSH1 0x20 MSTORE SWAP2 DUP3 KECCAK256 PUSH1 0x3 ADD SSTORE PUSH1 0x6 SLOAD SWAP1 JUMPDEST DUP2 DUP2 LT ISZERO PUSH2 0x145A JUMPI DUP5 PUSH1 0x6 DUP3 DUP2 SLOAD DUP2 LT PUSH2 0x140A JUMPI PUSH4 0x4E487B71 PUSH1 0xE0 SHL PUSH1 0x0 MSTORE PUSH1 0x32 PUSH1 0x4 MSTORE PUSH1 0x24 PUSH1 0x0 REVERT JUMPDEST SWAP1 PUSH1 0x0 MSTORE PUSH1 0x20 PUSH1 0x0 KECCAK256 ADD SLOAD EQ ISZERO PUSH2 0x1448 JUMPI PUSH1 0x6 DUP2 DUP2 SLOAD DUP2 LT PUSH2 0x143C JUMPI PUSH4 0x4E487B71 PUSH1 0xE0 SHL PUSH1 0x0 MSTORE PUSH1 0x32 PUSH1 0x4 MSTORE PUSH1 0x24 PUSH1 0x0 REVERT JUMPDEST PUSH1 0x0 SWAP2 DUP3 MSTORE PUSH1 0x20 DUP3 KECCAK256 ADD SSTORE JUMPDEST DUP1 PUSH2 0x1452 DUP2 PUSH2 0x25B5 JUMP JUMPDEST SWAP2 POP POP PUSH2 0x13E0 JUMP JUMPDEST POP CALLER PUSH1 0x0 SWAP1 DUP2 MSTORE PUSH1 0x7 PUSH1 0x20 MSTORE PUSH1 0x40 SWAP1 KECCAK256 SLOAD ISZERO PUSH2 0x851 JUMPI PUSH2 0x388 CALLER PUSH2 0x4E4 JUMP JUMPDEST PUSH1 0x1 SLOAD PUSH1 0x0 SWAP1 PUSH1 0x1 PUSH1 0x1 PUSH1 0xA0 SHL SUB AND CALLER EQ DUP1 PUSH2 0x1536 JUMPI POP PUSH32 0x0 PUSH1 0x1 PUSH1 0x1 PUSH1 0xA0 SHL SUB AND PUSH4 0xCE606EE0 PUSH1 0x40 MLOAD DUP2 PUSH4 0xFFFFFFFF AND PUSH1 0xE0 SHL DUP2 MSTORE PUSH1 0x4 ADD PUSH1 0x20 PUSH1 0x40 MLOAD DUP1 DUP4 SUB DUP2 DUP7 DUP1 EXTCODESIZE ISZERO DUP1 ISZERO PUSH2 0x14E9 JUMPI PUSH1 0x0 DUP1 REVERT JUMPDEST POP GAS STATICCALL ISZERO DUP1 ISZERO PUSH2 0x14FD JUMPI RETURNDATASIZE PUSH1 0x0 DUP1 RETURNDATACOPY RETURNDATASIZE PUSH1 0x0 REVERT JUMPDEST POP POP POP POP PUSH1 0x40 MLOAD RETURNDATASIZE PUSH1 0x1F NOT PUSH1 0x1F DUP3 ADD AND DUP3 ADD DUP1 PUSH1 0x40 MSTORE POP DUP2 ADD SWAP1 PUSH2 0x1521 SWAP2 SWAP1 PUSH2 0x23D9 JUMP JUMPDEST PUSH1 0x1 PUSH1 0x1 PUSH1 0xA0 SHL SUB AND CALLER PUSH1 0x1 PUSH1 0x1 PUSH1 0xA0 SHL SUB AND EQ JUMPDEST DUP1 PUSH2 0x154B JUMPI POP PUSH1 0x2 SLOAD PUSH1 0x1 PUSH1 0x1 PUSH1 0xA0 SHL SUB AND CALLER EQ JUMPDEST PUSH2 0x1567 JUMPI PUSH1 0x40 MLOAD PUSH3 0x461BCD PUSH1 0xE5 SHL DUP2 MSTORE PUSH1 0x4 ADD PUSH2 0x36A SWAP1 PUSH2 0x252B JUMP JUMPDEST PUSH1 0x3 SLOAD ISZERO DUP1 PUSH2 0x1578 JUMPI POP PUSH1 0x3 SLOAD PUSH1 0x4 EQ JUMPDEST DUP1 ISZERO PUSH2 0x158E JUMPI POP DUP2 PUSH1 0x1 EQ DUP1 PUSH2 0x158E JUMPI POP DUP2 PUSH1 0x2 EQ JUMPDEST ISZERO PUSH2 0x15F7 JUMPI PUSH1 0x3 DUP3 SWAP1 SSTORE PUSH1 0x4 SLOAD PUSH1 0x0 JUMPDEST DUP2 DUP2 LT ISZERO PUSH2 0x15ED JUMPI PUSH2 0x15DA PUSH1 0x4 DUP3 DUP2 SLOAD DUP2 LT PUSH2 0x15CA JUMPI PUSH4 0x4E487B71 PUSH1 0xE0 SHL PUSH1 0x0 MSTORE PUSH1 0x32 PUSH1 0x4 MSTORE PUSH1 0x24 PUSH1 0x0 REVERT JUMPDEST SWAP1 PUSH1 0x0 MSTORE PUSH1 0x20 PUSH1 0x0 KECCAK256 ADD SLOAD PUSH2 0x16FF JUMP JUMPDEST POP DUP1 PUSH2 0x15E5 DUP2 PUSH2 0x25B5 JUMP JUMPDEST SWAP2 POP POP PUSH2 0x159E JUMP JUMPDEST POP PUSH1 0x1 SWAP4 SWAP3 POP POP POP JUMP JUMPDEST POP PUSH1 0x0 SWAP2 SWAP1 POP JUMP JUMPDEST PUSH1 0x1 SLOAD PUSH1 0x0 SWAP1 PUSH1 0x1 PUSH1 0x1 PUSH1 0xA0 SHL SUB AND CALLER EQ DUP1 PUSH2 0x16BC JUMPI POP PUSH32 0x0 PUSH1 0x1 PUSH1 0x1 PUSH1 0xA0 SHL SUB AND PUSH4 0xCE606EE0 PUSH1 0x40 MLOAD DUP2 PUSH4 0xFFFFFFFF AND PUSH1 0xE0 SHL DUP2 MSTORE PUSH1 0x4 ADD PUSH1 0x20 PUSH1 0x40 MLOAD DUP1 DUP4 SUB DUP2 DUP7 DUP1 EXTCODESIZE ISZERO DUP1 ISZERO PUSH2 0x166F JUMPI PUSH1 0x0 DUP1 REVERT JUMPDEST POP GAS STATICCALL ISZERO DUP1 ISZERO PUSH2 0x1683 JUMPI RETURNDATASIZE PUSH1 0x0 DUP1 RETURNDATACOPY RETURNDATASIZE PUSH1 0x0 REVERT JUMPDEST POP POP POP POP PUSH1 0x40 MLOAD RETURNDATASIZE PUSH1 0x1F NOT PUSH1 0x1F DUP3 ADD AND DUP3 ADD DUP1 PUSH1 0x40 MSTORE POP DUP2 ADD SWAP1 PUSH2 0x16A7 SWAP2 SWAP1 PUSH2 0x23D9 JUMP JUMPDEST PUSH1 0x1 PUSH1 0x1 PUSH1 0xA0 SHL SUB AND CALLER PUSH1 0x1 PUSH1 0x1 PUSH1 0xA0 SHL SUB AND EQ JUMPDEST DUP1 PUSH2 0x16D1 JUMPI POP PUSH1 0x2 SLOAD PUSH1 0x1 PUSH1 0x1 PUSH1 0xA0 SHL SUB AND CALLER EQ JUMPDEST PUSH2 0x16ED JUMPI PUSH1 0x40 MLOAD PUSH3 0x461BCD PUSH1 0xE5 SHL DUP2 MSTORE PUSH1 0x4 ADD PUSH2 0x36A SWAP1 PUSH2 0x252B JUMP JUMPDEST PUSH1 0x3 SLOAD PUSH2 0x9BC JUMPI POP PUSH1 0x4 PUSH1 0x3 SSTORE PUSH1 0x1 SWAP1 JUMP JUMPDEST PUSH1 0x0 PUSH1 0x2 PUSH1 0x0 SLOAD EQ ISZERO PUSH2 0x1754 JUMPI PUSH1 0x40 MLOAD PUSH3 0x461BCD PUSH1 0xE5 SHL DUP2 MSTORE PUSH1 0x20 PUSH1 0x4 DUP3 ADD MSTORE PUSH1 0x1F PUSH1 0x24 DUP3 ADD MSTORE PUSH32 0x5265656E7472616E637947756172643A207265656E7472616E742063616C6C00 PUSH1 0x44 DUP3 ADD MSTORE PUSH1 0x64 ADD PUSH2 0x36A JUMP JUMPDEST PUSH1 0x2 PUSH1 0x0 SWAP1 DUP2 SSTORE DUP3 DUP2 MSTORE PUSH1 0xA PUSH1 0x20 MSTORE PUSH1 0x40 SWAP1 KECCAK256 PUSH1 0x4 ADD SLOAD PUSH1 0xFF AND ISZERO PUSH2 0x177B JUMPI POP PUSH1 0x0 PUSH2 0x779 JUMP JUMPDEST PUSH1 0x0 DUP1 PUSH1 0x0 DUP1 PUSH1 0x3 SLOAD PUSH1 0x1 EQ ISZERO PUSH2 0x197E JUMPI PUSH1 0x0 DUP7 DUP2 MSTORE PUSH1 0xA PUSH1 0x20 SWAP1 DUP2 MSTORE PUSH1 0x40 DUP1 DUP4 KECCAK256 SLOAD DUP4 MSTORE PUSH1 0x8 DUP3 MSTORE SWAP2 DUP3 SWAP1 KECCAK256 SLOAD DUP3 MLOAD PUSH4 0x55C4A8BF PUSH1 0xE0 SHL DUP2 MSTORE SWAP3 MLOAD PUSH1 0x1 PUSH1 0x1 PUSH1 0xA0 SHL SUB SWAP2 DUP3 AND SWAP8 POP PUSH1 0x64 SWAP4 PUSH32 0x0 SWAP1 SWAP3 AND SWAP3 PUSH4 0x55C4A8BF SWAP3 PUSH1 0x4 DUP1 DUP3 ADD SWAP4 SWAP2 DUP3 SWAP1 SUB ADD DUP2 DUP7 DUP1 EXTCODESIZE ISZERO DUP1 ISZERO PUSH2 0x180D JUMPI PUSH1 0x0 DUP1 REVERT JUMPDEST POP GAS STATICCALL ISZERO DUP1 ISZERO PUSH2 0x1821 JUMPI RETURNDATASIZE PUSH1 0x0 DUP1 RETURNDATACOPY RETURNDATASIZE PUSH1 0x0 REVERT JUMPDEST POP POP POP POP PUSH1 0x40 MLOAD RETURNDATASIZE PUSH1 0x1F NOT PUSH1 0x1F DUP3 ADD AND DUP3 ADD DUP1 PUSH1 0x40 MSTORE POP DUP2 ADD SWAP1 PUSH2 0x1845 SWAP2 SWAP1 PUSH2 0x248F JUMP JUMPDEST PUSH2 0x1850 SWAP1 PUSH1 0x64 PUSH2 0x259E JUMP JUMPDEST PUSH1 0x0 DUP9 DUP2 MSTORE PUSH1 0xA PUSH1 0x20 MSTORE PUSH1 0x40 SWAP1 KECCAK256 PUSH1 0x3 ADD SLOAD PUSH2 0x186C SWAP2 SWAP1 PUSH2 0x257F JUMP JUMPDEST PUSH2 0x1876 SWAP2 SWAP1 PUSH2 0x255F JUMP JUMPDEST PUSH1 0x0 DUP8 DUP2 MSTORE PUSH1 0xA PUSH1 0x20 MSTORE PUSH1 0x40 SWAP1 KECCAK256 PUSH1 0x2 ADD SLOAD PUSH2 0x1892 SWAP2 SWAP1 PUSH2 0x2547 JUMP JUMPDEST SWAP2 POP PUSH1 0x64 PUSH32 0x0 PUSH1 0x1 PUSH1 0x1 PUSH1 0xA0 SHL SUB AND PUSH4 0x55C4A8BF PUSH1 0x40 MLOAD DUP2 PUSH4 0xFFFFFFFF AND PUSH1 0xE0 SHL DUP2 MSTORE PUSH1 0x4 ADD PUSH1 0x20 PUSH1 0x40 MLOAD DUP1 DUP4 SUB DUP2 DUP7 DUP1 EXTCODESIZE ISZERO DUP1 ISZERO PUSH2 0x18EF JUMPI PUSH1 0x0 DUP1 REVERT JUMPDEST POP GAS STATICCALL ISZERO DUP1 ISZERO PUSH2 0x1903 JUMPI RETURNDATASIZE PUSH1 0x0 DUP1 RETURNDATACOPY RETURNDATASIZE PUSH1 0x0 REVERT JUMPDEST POP POP POP POP PUSH1 0x40 MLOAD RETURNDATASIZE PUSH1 0x1F NOT PUSH1 0x1F DUP3 ADD AND DUP3 ADD DUP1 PUSH1 0x40 MSTORE POP DUP2 ADD SWAP1 PUSH2 0x1927 SWAP2 SWAP1 PUSH2 0x248F JUMP JUMPDEST PUSH1 0x0 DUP9 DUP2 MSTORE PUSH1 0xA PUSH1 0x20 MSTORE PUSH1 0x40 SWAP1 KECCAK256 PUSH1 0x3 ADD SLOAD PUSH2 0x1943 SWAP2 SWAP1 PUSH2 0x257F JUMP JUMPDEST PUSH2 0x194D SWAP2 SWAP1 PUSH2 0x255F JUMP JUMPDEST PUSH1 0x0 DUP8 DUP2 MSTORE PUSH1 0xA PUSH1 0x20 SWAP1 DUP2 MSTORE PUSH1 0x40 DUP1 DUP4 KECCAK256 SLOAD DUP4 MSTORE PUSH1 0x8 SWAP1 SWAP2 MSTORE SWAP1 KECCAK256 PUSH1 0x1 ADD SLOAD PUSH1 0x1 PUSH1 0x1 PUSH1 0xA0 SHL SUB AND SWAP4 POP SWAP1 POP PUSH2 0x1B8F JUMP JUMPDEST PUSH1 0x3 SLOAD PUSH1 0x2 EQ ISZERO PUSH2 0x1B82 JUMPI PUSH1 0x0 DUP7 DUP2 MSTORE PUSH1 0xA PUSH1 0x20 SWAP1 DUP2 MSTORE PUSH1 0x40 DUP1 DUP4 KECCAK256 PUSH1 0x1 ADD SLOAD DUP4 MSTORE PUSH1 0x8 DUP3 MSTORE SWAP2 DUP3 SWAP1 KECCAK256 SLOAD DUP3 MLOAD PUSH4 0x55C4A8BF PUSH1 0xE0 SHL DUP2 MSTORE SWAP3 MLOAD PUSH1 0x1 PUSH1 0x1 PUSH1 0xA0 SHL SUB SWAP2 DUP3 AND SWAP8 POP PUSH1 0x64 SWAP4 PUSH32 0x0 SWAP1 SWAP3 AND SWAP3 PUSH4 0x55C4A8BF SWAP3 PUSH1 0x4 DUP1 DUP3 ADD SWAP4 SWAP2 DUP3 SWAP1 SUB ADD DUP2 DUP7 DUP1 EXTCODESIZE ISZERO DUP1 ISZERO PUSH2 0x1A0D JUMPI PUSH1 0x0 DUP1 REVERT JUMPDEST POP GAS STATICCALL ISZERO DUP1 ISZERO PUSH2 0x1A21 JUMPI RETURNDATASIZE PUSH1 0x0 DUP1 RETURNDATACOPY RETURNDATASIZE PUSH1 0x0 REVERT JUMPDEST POP POP POP POP PUSH1 0x40 MLOAD RETURNDATASIZE PUSH1 0x1F NOT PUSH1 0x1F DUP3 ADD AND DUP3 ADD DUP1 PUSH1 0x40 MSTORE POP DUP2 ADD SWAP1 PUSH2 0x1A45 SWAP2 SWAP1 PUSH2 0x248F JUMP JUMPDEST PUSH2 0x1A50 SWAP1 PUSH1 0x64 PUSH2 0x259E JUMP JUMPDEST PUSH1 0x0 DUP9 DUP2 MSTORE PUSH1 0xA PUSH1 0x20 MSTORE PUSH1 0x40 SWAP1 KECCAK256 PUSH1 0x2 ADD SLOAD PUSH2 0x1A6C SWAP2 SWAP1 PUSH2 0x257F JUMP JUMPDEST PUSH2 0x1A76 SWAP2 SWAP1 PUSH2 0x255F JUMP JUMPDEST PUSH1 0x0 DUP8 DUP2 MSTORE PUSH1 0xA PUSH1 0x20 MSTORE PUSH1 0x40 SWAP1 KECCAK256 PUSH1 0x3 ADD SLOAD PUSH2 0x1A92 SWAP2 SWAP1 PUSH2 0x2547 JUMP JUMPDEST SWAP2 POP PUSH1 0x64 PUSH32 0x0 PUSH1 0x1 PUSH1 0x1 PUSH1 0xA0 SHL SUB AND PUSH4 0x55C4A8BF PUSH1 0x40 MLOAD DUP2 PUSH4 0xFFFFFFFF AND PUSH1 0xE0 SHL DUP2 MSTORE PUSH1 0x4 ADD PUSH1 0x20 PUSH1 0x40 MLOAD DUP1 DUP4 SUB DUP2 DUP7 DUP1 EXTCODESIZE ISZERO DUP1 ISZERO PUSH2 0x1AEF JUMPI PUSH1 0x0 DUP1 REVERT JUMPDEST POP GAS STATICCALL ISZERO DUP1 ISZERO PUSH2 0x1B03 JUMPI RETURNDATASIZE PUSH1 0x0 DUP1 RETURNDATACOPY RETURNDATASIZE PUSH1 0x0 REVERT JUMPDEST POP POP POP POP PUSH1 0x40 MLOAD RETURNDATASIZE PUSH1 0x1F NOT PUSH1 0x1F DUP3 ADD AND DUP3 ADD DUP1 PUSH1 0x40 MSTORE POP DUP2 ADD SWAP1 PUSH2 0x1B27 SWAP2 SWAP1 PUSH2 0x248F JUMP JUMPDEST PUSH1 0x0 DUP9 DUP2 MSTORE PUSH1 0xA PUSH1 0x20 MSTORE PUSH1 0x40 SWAP1 KECCAK256 PUSH1 0x2 ADD SLOAD PUSH2 0x1B43 SWAP2 SWAP1 PUSH2 0x257F JUMP JUMPDEST PUSH2 0x1B4D SWAP2 SWAP1 PUSH2 0x255F JUMP JUMPDEST PUSH1 0x0 DUP8 DUP2 MSTORE PUSH1 0xA PUSH1 0x20 SWAP1 DUP2 MSTORE PUSH1 0x40 DUP1 DUP4 KECCAK256 PUSH1 0x1 SWAP1 DUP2 ADD SLOAD DUP5 MSTORE PUSH1 0x8 SWAP1 SWAP3 MSTORE SWAP1 SWAP2 KECCAK256 ADD SLOAD PUSH1 0x1 PUSH1 0x1 PUSH1 0xA0 SHL SUB AND SWAP4 POP SWAP1 POP PUSH2 0x1B8F JUMP JUMPDEST PUSH1 0x0 SWAP5 POP POP POP POP POP PUSH2 0x779 JUMP JUMPDEST PUSH1 0x1 PUSH1 0x1 PUSH1 0xA0 SHL SUB DUP4 AND PUSH2 0x1C31 JUMPI PUSH32 0x0 PUSH1 0x1 PUSH1 0x1 PUSH1 0xA0 SHL SUB AND PUSH4 0x9953B2F PUSH1 0x40 MLOAD DUP2 PUSH4 0xFFFFFFFF AND PUSH1 0xE0 SHL DUP2 MSTORE PUSH1 0x4 ADD PUSH1 0x20 PUSH1 0x40 MLOAD DUP1 DUP4 SUB DUP2 DUP7 DUP1 EXTCODESIZE ISZERO DUP1 ISZERO PUSH2 0x1BF6 JUMPI PUSH1 0x0 DUP1 REVERT JUMPDEST POP GAS STATICCALL ISZERO DUP1 ISZERO PUSH2 0x1C0A JUMPI RETURNDATASIZE PUSH1 0x0 DUP1 RETURNDATACOPY RETURNDATASIZE PUSH1 0x0 REVERT JUMPDEST POP POP POP POP PUSH1 0x40 MLOAD RETURNDATASIZE PUSH1 0x1F NOT PUSH1 0x1F DUP3 ADD AND DUP3 ADD DUP1 PUSH1 0x40 MSTORE POP DUP2 ADD SWAP1 PUSH2 0x1C2E SWAP2 SWAP1 PUSH2 0x23D9 JUMP JUMPDEST SWAP3 POP JUMPDEST PUSH1 0x1 PUSH1 0x1 PUSH1 0xA0 SHL SUB DUP5 AND PUSH1 0x0 SWAP1 DUP2 MSTORE PUSH1 0x7 PUSH1 0x20 MSTORE PUSH1 0x40 DUP2 KECCAK256 DUP1 SLOAD DUP5 SWAP3 SWAP1 PUSH2 0x1C59 SWAP1 DUP5 SWAP1 PUSH2 0x2547 JUMP JUMPDEST SWAP3 POP POP DUP2 SWAP1 SSTORE POP PUSH1 0x64 PUSH32 0x0 PUSH1 0x1 PUSH1 0x1 PUSH1 0xA0 SHL SUB AND PUSH4 0x6A0CCD9D PUSH1 0x40 MLOAD DUP2 PUSH4 0xFFFFFFFF AND PUSH1 0xE0 SHL DUP2 MSTORE PUSH1 0x4 ADD PUSH1 0x20 PUSH1 0x40 MLOAD DUP1 DUP4 SUB DUP2 DUP7 DUP1 EXTCODESIZE ISZERO DUP1 ISZERO PUSH2 0x1CBB JUMPI PUSH1 0x0 DUP1 REVERT JUMPDEST POP GAS STATICCALL ISZERO DUP1 ISZERO PUSH2 0x1CCF JUMPI RETURNDATASIZE PUSH1 0x0 DUP1 RETURNDATACOPY RETURNDATASIZE PUSH1 0x0 REVERT JUMPDEST POP POP POP POP PUSH1 0x40 MLOAD RETURNDATASIZE PUSH1 0x1F NOT PUSH1 0x1F DUP3 ADD AND DUP3 ADD DUP1 PUSH1 0x40 MSTORE POP DUP2 ADD SWAP1 PUSH2 0x1CF3 SWAP2 SWAP1 PUSH2 0x248F JUMP JUMPDEST PUSH2 0x1CFD SWAP1 DUP4 PUSH2 0x257F JUMP JUMPDEST PUSH2 0x1D07 SWAP2 SWAP1 PUSH2 0x255F JUMP JUMPDEST PUSH1 0x7 PUSH1 0x0 PUSH32 0x0 PUSH1 0x1 PUSH1 0x1 PUSH1 0xA0 SHL SUB AND PUSH4 0xB7640A54 PUSH1 0x40 MLOAD DUP2 PUSH4 0xFFFFFFFF AND PUSH1 0xE0 SHL DUP2 MSTORE PUSH1 0x4 ADD PUSH1 0x20 PUSH1 0x40 MLOAD DUP1 DUP4 SUB DUP2 DUP7 DUP1 EXTCODESIZE ISZERO DUP1 ISZERO PUSH2 0x1D64 JUMPI PUSH1 0x0 DUP1 REVERT JUMPDEST POP GAS STATICCALL ISZERO DUP1 ISZERO PUSH2 0x1D78 JUMPI RETURNDATASIZE PUSH1 0x0 DUP1 RETURNDATACOPY RETURNDATASIZE PUSH1 0x0 REVERT JUMPDEST POP POP POP POP PUSH1 0x40 MLOAD RETURNDATASIZE PUSH1 0x1F NOT PUSH1 0x1F DUP3 ADD AND DUP3 ADD DUP1 PUSH1 0x40 MSTORE POP DUP2 ADD SWAP1 PUSH2 0x1D9C SWAP2 SWAP1 PUSH2 0x23D9 JUMP JUMPDEST PUSH1 0x1 PUSH1 0x1 PUSH1 0xA0 SHL SUB AND PUSH1 0x1 PUSH1 0x1 PUSH1 0xA0 SHL SUB AND DUP2 MSTORE PUSH1 0x20 ADD SWAP1 DUP2 MSTORE PUSH1 0x20 ADD PUSH1 0x0 KECCAK256 PUSH1 0x0 DUP3 DUP3 SLOAD PUSH2 0x1DCB SWAP2 SWAP1 PUSH2 0x2547 JUMP JUMPDEST SWAP3 POP POP DUP2 SWAP1 SSTORE POP PUSH1 0x64 PUSH32 0x0 PUSH1 0x1 PUSH1 0x1 PUSH1 0xA0 SHL SUB AND PUSH4 0x28576D45 PUSH1 0x40 MLOAD DUP2 PUSH4 0xFFFFFFFF AND PUSH1 0xE0 SHL DUP2 MSTORE PUSH1 0x4 ADD PUSH1 0x20 PUSH1 0x40 MLOAD DUP1 DUP4 SUB DUP2 DUP7 DUP1 EXTCODESIZE ISZERO DUP1 ISZERO PUSH2 0x1E2D JUMPI PUSH1 0x0 DUP1 REVERT JUMPDEST POP GAS STATICCALL ISZERO DUP1 ISZERO PUSH2 0x1E41 JUMPI RETURNDATASIZE PUSH1 0x0 DUP1 RETURNDATACOPY RETURNDATASIZE PUSH1 0x0 REVERT JUMPDEST POP POP POP POP PUSH1 0x40 MLOAD RETURNDATASIZE PUSH1 0x1F NOT PUSH1 0x1F DUP3 ADD AND DUP3 ADD DUP1 PUSH1 0x40 MSTORE POP DUP2 ADD SWAP1 PUSH2 0x1E65 SWAP2 SWAP1 PUSH2 0x248F JUMP JUMPDEST PUSH2 0x1E6F SWAP1 DUP4 PUSH2 0x257F JUMP JUMPDEST PUSH2 0x1E79 SWAP2 SWAP1 PUSH2 0x255F JUMP JUMPDEST PUSH1 0x7 PUSH1 0x0 PUSH32 0x0 PUSH1 0x1 PUSH1 0x1 PUSH1 0xA0 SHL SUB AND PUSH4 0x9953B2F PUSH1 0x40 MLOAD DUP2 PUSH4 0xFFFFFFFF AND PUSH1 0xE0 SHL DUP2 MSTORE PUSH1 0x4 ADD PUSH1 0x20 PUSH1 0x40 MLOAD DUP1 DUP4 SUB DUP2 DUP7 DUP1 EXTCODESIZE ISZERO DUP1 ISZERO PUSH2 0x1ED6 JUMPI PUSH1 0x0 DUP1 REVERT JUMPDEST POP GAS STATICCALL ISZERO DUP1 ISZERO PUSH2 0x1EEA JUMPI RETURNDATASIZE PUSH1 0x0 DUP1 RETURNDATACOPY RETURNDATASIZE PUSH1 0x0 REVERT JUMPDEST POP POP POP POP PUSH1 0x40 MLOAD RETURNDATASIZE PUSH1 0x1F NOT PUSH1 0x1F DUP3 ADD AND DUP3 ADD DUP1 PUSH1 0x40 MSTORE POP DUP2 ADD SWAP1 PUSH2 0x1F0E SWAP2 SWAP1 PUSH2 0x23D9 JUMP JUMPDEST PUSH1 0x1 PUSH1 0x1 PUSH1 0xA0 SHL SUB AND PUSH1 0x1 PUSH1 0x1 PUSH1 0xA0 SHL SUB AND DUP2 MSTORE PUSH1 0x20 ADD SWAP1 DUP2 MSTORE PUSH1 0x20 ADD PUSH1 0x0 KECCAK256 PUSH1 0x0 DUP3 DUP3 SLOAD PUSH2 0x1F3D SWAP2 SWAP1 PUSH2 0x2547 JUMP JUMPDEST SWAP3 POP POP DUP2 SWAP1 SSTORE POP PUSH1 0x64 PUSH32 0x0 PUSH1 0x1 PUSH1 0x1 PUSH1 0xA0 SHL SUB AND PUSH4 0x54CD1A5C PUSH1 0x40 MLOAD DUP2 PUSH4 0xFFFFFFFF AND PUSH1 0xE0 SHL DUP2 MSTORE PUSH1 0x4 ADD PUSH1 0x20 PUSH1 0x40 MLOAD DUP1 DUP4 SUB DUP2 DUP7 DUP1 EXTCODESIZE ISZERO DUP1 ISZERO PUSH2 0x1F9F JUMPI PUSH1 0x0 DUP1 REVERT JUMPDEST POP GAS STATICCALL ISZERO DUP1 ISZERO PUSH2 0x1FB3 JUMPI RETURNDATASIZE PUSH1 0x0 DUP1 RETURNDATACOPY RETURNDATASIZE PUSH1 0x0 REVERT JUMPDEST POP POP POP POP PUSH1 0x40 MLOAD RETURNDATASIZE PUSH1 0x1F NOT PUSH1 0x1F DUP3 ADD AND DUP3 ADD DUP1 PUSH1 0x40 MSTORE POP DUP2 ADD SWAP1 PUSH2 0x1FD7 SWAP2 SWAP1 PUSH2 0x248F JUMP JUMPDEST PUSH2 0x1FE1 SWAP1 DUP4 PUSH2 0x257F JUMP JUMPDEST PUSH2 0x1FEB SWAP2 SWAP1 PUSH2 0x255F JUMP JUMPDEST PUSH1 0x1 PUSH1 0x1 PUSH1 0xA0 SHL SUB DUP5 AND PUSH1 0x0 SWAP1 DUP2 MSTORE PUSH1 0x7 PUSH1 0x20 MSTORE PUSH1 0x40 DUP2 KECCAK256 DUP1 SLOAD SWAP1 SWAP2 SWAP1 PUSH2 0x2013 SWAP1 DUP5 SWAP1 PUSH2 0x2547 JUMP JUMPDEST SWAP1 SWAP2 SSTORE POP POP POP PUSH1 0x0 SWAP5 DUP6 MSTORE POP POP PUSH1 0xA PUSH1 0x20 MSTORE POP POP PUSH1 0x40 DUP2 KECCAK256 PUSH1 0x4 ADD DUP1 SLOAD PUSH1 0xFF NOT AND PUSH1 0x1 SWAP1 DUP2 OR SWAP1 SWAP2 SSTORE SWAP1 DUP2 SWAP1 SSTORE SWAP1 JUMP JUMPDEST PUSH1 0x0 DUP2 DUP2 MSTORE PUSH1 0xA PUSH1 0x20 SWAP1 DUP2 MSTORE PUSH1 0x40 DUP1 DUP4 KECCAK256 DUP1 SLOAD DUP5 MSTORE PUSH1 0x8 DUP4 MSTORE DUP2 DUP5 KECCAK256 SLOAD PUSH1 0x1 DUP3 ADD SLOAD DUP6 MSTORE DUP3 DUP6 KECCAK256 SLOAD PUSH1 0x2 SWAP1 SWAP3 ADD SLOAD PUSH1 0x1 PUSH1 0x1 PUSH1 0xA0 SHL SUB SWAP2 DUP3 AND DUP1 DUP8 MSTORE PUSH1 0x7 SWAP1 SWAP6 MSTORE SWAP3 DUP6 KECCAK256 DUP1 SLOAD SWAP5 SWAP6 SWAP2 SWAP1 SWAP3 AND SWAP4 PUSH2 0x209B SWAP1 DUP5 SWAP1 PUSH2 0x2547 JUMP JUMPDEST SWAP1 SWAP2 SSTORE POP POP PUSH1 0x0 DUP4 DUP2 MSTORE PUSH1 0xA PUSH1 0x20 SWAP1 DUP2 MSTORE PUSH1 0x40 DUP1 DUP4 KECCAK256 PUSH1 0x3 ADD SLOAD PUSH1 0x1 PUSH1 0x1 PUSH1 0xA0 SHL SUB DUP6 AND DUP5 MSTORE PUSH1 0x7 SWAP1 SWAP3 MSTORE DUP3 KECCAK256 DUP1 SLOAD SWAP2 SWAP3 SWAP1 SWAP2 PUSH2 0x20D9 SWAP1 DUP5 SWAP1 PUSH2 0x2547 JUMP JUMPDEST SWAP1 SWAP2 SSTORE POP POP POP PUSH1 0x0 SWAP2 DUP3 MSTORE POP PUSH1 0xA PUSH1 0x20 MSTORE PUSH1 0x40 SWAP1 KECCAK256 PUSH1 0x4 ADD DUP1 SLOAD PUSH1 0xFF NOT AND PUSH1 0x1 OR SWAP1 SSTORE JUMP JUMPDEST PUSH1 0x0 DUP1 PUSH1 0x0 JUMPDEST PUSH1 0x5 SLOAD DUP10 SWAP1 ADDRESS SWAP1 DUP4 SWAP1 PUSH2 0x2118 SWAP1 PUSH1 0x1 PUSH2 0x2547 JUMP JUMPDEST PUSH2 0x2122 SWAP2 SWAP1 PUSH2 0x2547 JUMP JUMPDEST PUSH1 0x40 MLOAD PUSH12 0xFFFFFFFFFFFFFFFFFFFFFFFF NOT PUSH1 0x60 SWAP5 DUP6 SHL DUP2 AND PUSH1 0x20 DUP4 ADD MSTORE SWAP3 SWAP1 SWAP4 SHL SWAP1 SWAP2 AND PUSH1 0x34 DUP4 ADD MSTORE PUSH1 0x48 DUP3 ADD MSTORE TIMESTAMP PUSH1 0x68 DUP3 ADD MSTORE DIFFICULTY PUSH1 0x88 DUP3 ADD MSTORE PUSH1 0xA8 ADD PUSH1 0x40 DUP1 MLOAD PUSH1 0x1F NOT DUP2 DUP5 SUB ADD DUP2 MSTORE SWAP2 DUP2 MSTORE DUP2 MLOAD PUSH1 0x20 SWAP3 DUP4 ADD KECCAK256 PUSH1 0x0 DUP2 DUP2 MSTORE PUSH1 0x8 SWAP1 SWAP4 MSTORE SWAP2 KECCAK256 PUSH1 0x2 ADD SLOAD SWAP1 SWAP3 POP PUSH2 0x2193 JUMPI PUSH2 0x21A5 JUMP JUMPDEST DUP1 PUSH2 0x219D DUP2 PUSH2 0x25B5 JUMP JUMPDEST SWAP2 POP POP PUSH2 0x2104 JUMP JUMPDEST POP PUSH1 0x40 DUP1 MLOAD PUSH1 0xC0 DUP2 ADD DUP3 MSTORE PUSH1 0x1 PUSH1 0x1 PUSH1 0xA0 SHL SUB SWAP10 DUP11 AND DUP1 DUP3 MSTORE SWAP9 DUP11 AND PUSH1 0x20 DUP1 DUP4 ADD SWAP2 DUP3 MSTORE DUP3 DUP5 ADD SWAP10 DUP11 MSTORE PUSH1 0x60 DUP4 ADD SWAP9 DUP10 MSTORE PUSH1 0x80 DUP4 ADD SWAP8 DUP9 MSTORE PUSH1 0xA0 DUP4 ADD SWAP7 DUP8 MSTORE PUSH1 0x0 DUP6 DUP2 MSTORE PUSH1 0x8 DUP3 MSTORE DUP5 DUP2 KECCAK256 SWAP4 MLOAD DUP5 SLOAD SWAP1 DUP15 AND PUSH1 0x1 PUSH1 0x1 PUSH1 0xA0 SHL SUB NOT SWAP2 DUP3 AND OR DUP6 SSTORE SWAP3 MLOAD PUSH1 0x1 DUP1 DUP7 ADD DUP1 SLOAD SWAP3 SWAP1 SWAP16 AND SWAP2 SWAP1 SWAP5 AND OR SWAP1 SWAP13 SSTORE SWAP9 MLOAD PUSH1 0x2 DUP4 ADD SSTORE SWAP7 MLOAD PUSH1 0x3 DUP3 ADD SSTORE SWAP5 MLOAD PUSH1 0x4 DUP7 ADD SSTORE SWAP3 MLOAD PUSH1 0x5 SWAP5 DUP6 ADD SSTORE DUP4 SLOAD DUP1 DUP7 ADD SWAP1 SWAP5 SSTORE PUSH32 0x36B6384B5ECA791C62761152D0C79BB0604C104A5FB6F4EB0703F3154BB3DB0 SWAP1 SWAP4 ADD DUP4 SWAP1 SSTORE POP SWAP4 DUP6 MSTORE PUSH1 0x9 DUP4 MSTORE SWAP3 DUP5 KECCAK256 DUP1 SLOAD SWAP2 DUP3 ADD DUP2 SSTORE DUP5 MSTORE SWAP3 KECCAK256 SWAP1 SWAP2 ADD DUP2 SWAP1 SSTORE SWAP1 JUMP JUMPDEST PUSH1 0x0 DUP1 PUSH1 0x0 JUMPDEST PUSH1 0x4 SLOAD DUP8 SWAP1 DUP8 SWAP1 DUP4 SWAP1 PUSH2 0x22A0 SWAP1 PUSH1 0x1 PUSH2 0x2547 JUMP JUMPDEST PUSH2 0x22AA SWAP2 SWAP1 PUSH2 0x2547 JUMP JUMPDEST PUSH1 0x40 DUP1 MLOAD PUSH1 0x20 DUP2 ADD SWAP5 SWAP1 SWAP5 MSTORE DUP4 ADD SWAP2 SWAP1 SWAP2 MSTORE PUSH1 0x60 DUP3 ADD MSTORE TIMESTAMP PUSH1 0x80 DUP3 ADD MSTORE DIFFICULTY PUSH1 0xA0 DUP3 ADD MSTORE PUSH1 0xC0 ADD PUSH1 0x40 DUP1 MLOAD PUSH1 0x1F NOT DUP2 DUP5 SUB ADD DUP2 MSTORE SWAP2 DUP2 MSTORE DUP2 MLOAD PUSH1 0x20 SWAP3 DUP4 ADD KECCAK256 PUSH1 0x0 DUP2 DUP2 MSTORE PUSH1 0xA SWAP1 SWAP4 MSTORE SWAP2 KECCAK256 PUSH1 0x2 ADD SLOAD SWAP1 SWAP3 POP PUSH2 0x2304 JUMPI PUSH2 0x2316 JUMP JUMPDEST DUP1 PUSH2 0x230E DUP2 PUSH2 0x25B5 JUMP JUMPDEST SWAP2 POP POP PUSH2 0x228C JUMP JUMPDEST POP PUSH1 0x40 DUP1 MLOAD PUSH1 0xA0 DUP2 ADD DUP3 MSTORE SWAP7 DUP8 MSTORE PUSH1 0x20 DUP1 DUP9 ADD SWAP7 DUP8 MSTORE DUP8 DUP3 ADD SWAP6 DUP7 MSTORE PUSH1 0x60 DUP9 ADD SWAP5 DUP6 MSTORE PUSH1 0x0 PUSH1 0x80 DUP10 ADD DUP2 DUP2 MSTORE DUP5 DUP3 MSTORE PUSH1 0xA SWAP1 SWAP3 MSTORE SWAP2 DUP3 KECCAK256 SWAP8 MLOAD DUP9 SSTORE SWAP6 MLOAD PUSH1 0x1 DUP1 DUP10 ADD SWAP2 SWAP1 SWAP2 SSTORE SWAP5 MLOAD PUSH1 0x2 DUP9 ADD SSTORE SWAP3 MLOAD PUSH1 0x3 DUP8 ADD SSTORE SWAP4 MLOAD PUSH1 0x4 SWAP6 DUP7 ADD DUP1 SLOAD PUSH1 0xFF NOT AND SWAP2 ISZERO ISZERO SWAP2 SWAP1 SWAP2 OR SWAP1 SSTORE POP DUP4 SLOAD SWAP2 DUP3 ADD DUP5 SSTORE SWAP3 SWAP1 SWAP3 MSTORE PUSH32 0x8A35ACFBC15FF81A39AE7D344FD709F28E8600B4AA8C65C6B64BFE7FE36BD19B SWAP1 SWAP2 ADD DUP2 SWAP1 SSTORE SWAP1 JUMP JUMPDEST PUSH1 0x0 PUSH1 0x20 DUP3 DUP5 SUB SLT ISZERO PUSH2 0x23C7 JUMPI DUP1 DUP2 REVERT JUMPDEST DUP2 CALLDATALOAD PUSH2 0x23D2 DUP2 PUSH2 0x25E6 JUMP JUMPDEST SWAP4 SWAP3 POP POP POP JUMP JUMPDEST PUSH1 0x0 PUSH1 0x20 DUP3 DUP5 SUB SLT ISZERO PUSH2 0x23EA JUMPI DUP1 DUP2 REVERT JUMPDEST DUP2 MLOAD PUSH2 0x23D2 DUP2 PUSH2 0x25E6 JUMP JUMPDEST PUSH1 0x0 DUP1 PUSH1 0x0 DUP1 PUSH1 0x0 DUP1 PUSH1 0xC0 DUP8 DUP10 SUB SLT ISZERO PUSH2 0x240D JUMPI DUP2 DUP3 REVERT JUMPDEST DUP7 CALLDATALOAD PUSH2 0x2418 DUP2 PUSH2 0x25E6 JUMP JUMPDEST SWAP6 POP PUSH1 0x20 DUP8 ADD CALLDATALOAD PUSH2 0x2428 DUP2 PUSH2 0x25E6 JUMP JUMPDEST SWAP5 POP PUSH1 0x40 DUP8 ADD CALLDATALOAD SWAP4 POP PUSH1 0x60 DUP8 ADD CALLDATALOAD SWAP3 POP PUSH1 0x80 DUP8 ADD CALLDATALOAD SWAP2 POP PUSH1 0xA0 DUP8 ADD CALLDATALOAD PUSH2 0x244D DUP2 PUSH2 0x25FB JUMP JUMPDEST DUP1 SWAP2 POP POP SWAP3 SWAP6 POP SWAP3 SWAP6 POP SWAP3 SWAP6 JUMP JUMPDEST PUSH1 0x0 PUSH1 0x20 DUP3 DUP5 SUB SLT ISZERO PUSH2 0x246C JUMPI DUP1 DUP2 REVERT JUMPDEST DUP2 MLOAD PUSH2 0x23D2 DUP2 PUSH2 0x25FB JUMP JUMPDEST PUSH1 0x0 PUSH1 0x20 DUP3 DUP5 SUB SLT ISZERO PUSH2 0x2488 JUMPI DUP1 DUP2 REVERT JUMPDEST POP CALLDATALOAD SWAP2 SWAP1 POP JUMP JUMPDEST PUSH1 0x0 PUSH1 0x20 DUP3 DUP5 SUB SLT ISZERO PUSH2 0x24A0 JUMPI DUP1 DUP2 REVERT JUMPDEST POP MLOAD SWAP2 SWAP1 POP JUMP JUMPDEST PUSH1 0x20 DUP1 DUP3 MSTORE DUP3 MLOAD DUP3 DUP3 ADD DUP2 SWAP1 MSTORE PUSH1 0x0 SWAP2 SWAP1 PUSH1 0x40 SWAP1 DUP2 DUP6 ADD SWAP1 DUP7 DUP5 ADD DUP6 JUMPDEST DUP3 DUP2 LT ISZERO PUSH2 0x251E JUMPI DUP2 MLOAD DUP1 MLOAD PUSH1 0x1 PUSH1 0x1 PUSH1 0xA0 SHL SUB SWAP1 DUP2 AND DUP7 MSTORE DUP8 DUP3 ADD MLOAD AND DUP8 DUP7 ADD MSTORE DUP6 DUP2 ADD MLOAD DUP7 DUP7 ADD MSTORE PUSH1 0x60 DUP1 DUP3 ADD MLOAD SWAP1 DUP7 ADD MSTORE PUSH1 0x80 DUP1 DUP3 ADD MLOAD SWAP1 DUP7 ADD MSTORE PUSH1 0xA0 SWAP1 DUP2 ADD MLOAD SWAP1 DUP6 ADD MSTORE PUSH1 0xC0 SWAP1 SWAP4 ADD SWAP3 SWAP1 DUP6 ADD SWAP1 PUSH1 0x1 ADD PUSH2 0x24C4 JUMP JUMPDEST POP SWAP2 SWAP8 SWAP7 POP POP POP POP POP POP POP JUMP JUMPDEST PUSH1 0x20 DUP1 DUP3 MSTORE PUSH1 0x2 SWAP1 DUP3 ADD MSTORE PUSH2 0x4D31 PUSH1 0xF0 SHL PUSH1 0x40 DUP3 ADD MSTORE PUSH1 0x60 ADD SWAP1 JUMP JUMPDEST PUSH1 0x0 DUP3 NOT DUP3 GT ISZERO PUSH2 0x255A JUMPI PUSH2 0x255A PUSH2 0x25D0 JUMP JUMPDEST POP ADD SWAP1 JUMP JUMPDEST PUSH1 0x0 DUP3 PUSH2 0x257A JUMPI PUSH4 0x4E487B71 PUSH1 0xE0 SHL DUP2 MSTORE PUSH1 0x12 PUSH1 0x4 MSTORE PUSH1 0x24 DUP2 REVERT JUMPDEST POP DIV SWAP1 JUMP JUMPDEST PUSH1 0x0 DUP2 PUSH1 0x0 NOT DIV DUP4 GT DUP3 ISZERO ISZERO AND ISZERO PUSH2 0x2599 JUMPI PUSH2 0x2599 PUSH2 0x25D0 JUMP JUMPDEST POP MUL SWAP1 JUMP JUMPDEST PUSH1 0x0 DUP3 DUP3 LT ISZERO PUSH2 0x25B0 JUMPI PUSH2 0x25B0 PUSH2 0x25D0 JUMP JUMPDEST POP SUB SWAP1 JUMP JUMPDEST PUSH1 0x0 PUSH1 0x0 NOT DUP3 EQ ISZERO PUSH2 0x25C9 JUMPI PUSH2 0x25C9 PUSH2 0x25D0 JUMP JUMPDEST POP PUSH1 0x1 ADD SWAP1 JUMP JUMPDEST PUSH4 0x4E487B71 PUSH1 0xE0 SHL PUSH1 0x0 MSTORE PUSH1 0x11 PUSH1 0x4 MSTORE PUSH1 0x24 PUSH1 0x0 REVERT JUMPDEST PUSH1 0x1 PUSH1 0x1 PUSH1 0xA0 SHL SUB DUP2 AND DUP2 EQ PUSH2 0x38D JUMPI PUSH1 0x0 DUP1 REVERT JUMPDEST DUP1 ISZERO ISZERO DUP2 EQ PUSH2 0x38D JUMPI PUSH1 0x0 DUP1 REVERT INVALID LOG2 PUSH5 0x6970667358 0x22 SLT KECCAK256 DUP7 BYTE ADDRESS 0x21 0xEB PUSH7 0xC06CD2E3D64E23 SWAP13 SHR GASLIMIT 0xD3 EXTCODESIZE 0xC5 SWAP8 LOG3 0x5F 0x21 0x49 GT 0xF 0xA7 0x4D SLT 0x4C PUSH18 0xDD64736F6C63430008040033000000000000 "
				},
				"gasEstimates": {
					"creation": {
						"codeDepositCost": "1958200",
						"executionCost": "infinite",
						"totalCost": "infinite"
					},
					"external": {
						"addBet(address,address,uint256,uint256,uint256,bool)": "infinite",
						"cancelBet(bytes32)": "infinite",
						"cancelMarket()": "infinite",
						"getBalance(address)": "1330",
						"getUserBets(address)": "infinite",
						"settle(uint256)": "infinite",
						"settleBet(bytes32)": "infinite",
						"start()": "infinite",
						"status()": "985",
						"withdraw(address)": "infinite",
						"withdrawPending(bytes32)": "infinite"
					},
					"internal": {
						"_cancelPair(bytes32)": "infinite",
						"_createBet(address,address,uint256,uint256,uint256,uint256)": "infinite",
						"_createPair(bytes32,bytes32,uint256,uint256)": "infinite",
						"_settlePair(bytes32)": "infinite"
					}
				},
				"methodIdentifiers": {
					"addBet(address,address,uint256,uint256,uint256,bool)": "78d65b2f",
					"cancelBet(bytes32)": "2940ff1e",
					"cancelMarket()": "6bfefd6b",
					"getBalance(address)": "f8b2cb4f",
					"getUserBets(address)": "2d56657d",
					"settle(uint256)": "8df82800",
					"settleBet(bytes32)": "675f6537",
					"start()": "be9a6555",
					"status()": "200d2ed2",
					"withdraw(address)": "51cff8d9",
					"withdrawPending(bytes32)": "7d7f9232"
				}
			},
			"storageLayout": {
				"storage": [
					{
						"astId": 10,
						"contract": "contracts/Market.sol:Market",
						"label": "_status",
						"offset": 0,
						"slot": "0",
						"type": "t_uint256"
					},
					{
						"astId": 128,
						"contract": "contracts/Market.sol:Market",
						"label": "owner",
						"offset": 0,
						"slot": "1",
						"type": "t_address"
					},
					{
						"astId": 130,
						"contract": "contracts/Market.sol:Market",
						"label": "factory",
						"offset": 0,
						"slot": "2",
						"type": "t_address"
					},
					{
						"astId": 134,
						"contract": "contracts/Market.sol:Market",
						"label": "status",
						"offset": 0,
						"slot": "3",
						"type": "t_uint256"
					},
					{
						"astId": 137,
						"contract": "contracts/Market.sol:Market",
						"label": "pairs",
						"offset": 0,
						"slot": "4",
						"type": "t_array(t_bytes32)dyn_storage"
					},
					{
						"astId": 140,
						"contract": "contracts/Market.sol:Market",
						"label": "bets",
						"offset": 0,
						"slot": "5",
						"type": "t_array(t_bytes32)dyn_storage"
					},
					{
						"astId": 143,
						"contract": "contracts/Market.sol:Market",
						"label": "pendingBets",
						"offset": 0,
						"slot": "6",
						"type": "t_array(t_bytes32)dyn_storage"
					},
					{
						"astId": 158,
						"contract": "contracts/Market.sol:Market",
						"label": "bal",
						"offset": 0,
						"slot": "7",
						"type": "t_mapping(t_address,t_uint256)"
					},
					{
						"astId": 163,
						"contract": "contracts/Market.sol:Market",
						"label": "betsInfo",
						"offset": 0,
						"slot": "8",
						"type": "t_mapping(t_bytes32,t_struct(MarketBet)1660_storage)"
					},
					{
						"astId": 168,
						"contract": "contracts/Market.sol:Market",
						"label": "userBets",
						"offset": 0,
						"slot": "9",
						"type": "t_mapping(t_address,t_array(t_bytes32)dyn_storage)"
					},
					{
						"astId": 173,
						"contract": "contracts/Market.sol:Market",
						"label": "pairsInfo",
						"offset": 0,
						"slot": "10",
						"type": "t_mapping(t_bytes32,t_struct(MarketPair)154_storage)"
					},
					{
						"astId": 178,
						"contract": "contracts/Market.sol:Market",
						"label": "betPairs",
						"offset": 0,
						"slot": "11",
						"type": "t_mapping(t_bytes32,t_array(t_bytes32)dyn_storage)"
					}
				],
				"types": {
					"t_address": {
						"encoding": "inplace",
						"label": "address",
						"numberOfBytes": "20"
					},
					"t_array(t_bytes32)dyn_storage": {
						"base": "t_bytes32",
						"encoding": "dynamic_array",
						"label": "bytes32[]",
						"numberOfBytes": "32"
					},
					"t_bool": {
						"encoding": "inplace",
						"label": "bool",
						"numberOfBytes": "1"
					},
					"t_bytes32": {
						"encoding": "inplace",
						"label": "bytes32",
						"numberOfBytes": "32"
					},
					"t_mapping(t_address,t_array(t_bytes32)dyn_storage)": {
						"encoding": "mapping",
						"key": "t_address",
						"label": "mapping(address => bytes32[])",
						"numberOfBytes": "32",
						"value": "t_array(t_bytes32)dyn_storage"
					},
					"t_mapping(t_address,t_uint256)": {
						"encoding": "mapping",
						"key": "t_address",
						"label": "mapping(address => uint256)",
						"numberOfBytes": "32",
						"value": "t_uint256"
					},
					"t_mapping(t_bytes32,t_array(t_bytes32)dyn_storage)": {
						"encoding": "mapping",
						"key": "t_bytes32",
						"label": "mapping(bytes32 => bytes32[])",
						"numberOfBytes": "32",
						"value": "t_array(t_bytes32)dyn_storage"
					},
					"t_mapping(t_bytes32,t_struct(MarketBet)1660_storage)": {
						"encoding": "mapping",
						"key": "t_bytes32",
						"label": "mapping(bytes32 => struct IMarket.MarketBet)",
						"numberOfBytes": "32",
						"value": "t_struct(MarketBet)1660_storage"
					},
					"t_mapping(t_bytes32,t_struct(MarketPair)154_storage)": {
						"encoding": "mapping",
						"key": "t_bytes32",
						"label": "mapping(bytes32 => struct Market.MarketPair)",
						"numberOfBytes": "32",
						"value": "t_struct(MarketPair)154_storage"
					},
					"t_struct(MarketBet)1660_storage": {
						"encoding": "inplace",
						"label": "struct IMarket.MarketBet",
						"members": [
							{
								"astId": 1649,
								"contract": "contracts/Market.sol:Market",
								"label": "better",
								"offset": 0,
								"slot": "0",
								"type": "t_address"
							},
							{
								"astId": 1651,
								"contract": "contracts/Market.sol:Market",
								"label": "affiliate",
								"offset": 0,
								"slot": "1",
								"type": "t_address"
							},
							{
								"astId": 1653,
								"contract": "contracts/Market.sol:Market",
								"label": "stake",
								"offset": 0,
								"slot": "2",
								"type": "t_uint256"
							},
							{
								"astId": 1655,
								"contract": "contracts/Market.sol:Market",
								"label": "matched",
								"offset": 0,
								"slot": "3",
								"type": "t_uint256"
							},
							{
								"astId": 1657,
								"contract": "contracts/Market.sol:Market",
								"label": "odds",
								"offset": 0,
								"slot": "4",
								"type": "t_uint256"
							},
							{
								"astId": 1659,
								"contract": "contracts/Market.sol:Market",
								"label": "side",
								"offset": 0,
								"slot": "5",
								"type": "t_uint256"
							}
						],
						"numberOfBytes": "192"
					},
					"t_struct(MarketPair)154_storage": {
						"encoding": "inplace",
						"label": "struct Market.MarketPair",
						"members": [
							{
								"astId": 145,
								"contract": "contracts/Market.sol:Market",
								"label": "betHashA",
								"offset": 0,
								"slot": "0",
								"type": "t_bytes32"
							},
							{
								"astId": 147,
								"contract": "contracts/Market.sol:Market",
								"label": "betHashB",
								"offset": 0,
								"slot": "1",
								"type": "t_bytes32"
							},
							{
								"astId": 149,
								"contract": "contracts/Market.sol:Market",
								"label": "amountA",
								"offset": 0,
								"slot": "2",
								"type": "t_uint256"
							},
							{
								"astId": 151,
								"contract": "contracts/Market.sol:Market",
								"label": "amountB",
								"offset": 0,
								"slot": "3",
								"type": "t_uint256"
							},
							{
								"astId": 153,
								"contract": "contracts/Market.sol:Market",
								"label": "settled",
								"offset": 0,
								"slot": "4",
								"type": "t_bool"
							}
						],
						"numberOfBytes": "160"
					},
					"t_uint256": {
						"encoding": "inplace",
						"label": "uint256",
						"numberOfBytes": "32"
					}
				}
			},
			"userdoc": {
				"kind": "user",
				"methods": {},
				"version": 1
			}
		}
	}
}