{
	"contracts/Market.sol": {
		"Market": {
			"abi": [
				{
					"inputs": [
						{
							"internalType": "bytes32",
							"name": "event_",
							"type": "bytes32"
						}
					],
					"stateMutability": "nonpayable",
					"type": "constructor"
				},
				{
					"anonymous": false,
					"inputs": [
						{
							"indexed": false,
							"internalType": "address",
							"name": "better",
							"type": "address"
						},
						{
							"indexed": false,
							"internalType": "address",
							"name": "marketAddr",
							"type": "address"
						},
						{
							"indexed": false,
							"internalType": "bytes32",
							"name": "hash",
							"type": "bytes32"
						},
						{
							"indexed": false,
							"internalType": "uint256",
							"name": "stake",
							"type": "uint256"
						},
						{
							"indexed": false,
							"internalType": "uint256",
							"name": "odds",
							"type": "uint256"
						},
						{
							"indexed": false,
							"internalType": "uint256",
							"name": "side",
							"type": "uint256"
						}
					],
					"name": "BetCreated",
					"type": "event"
				},
				{
					"anonymous": false,
					"inputs": [
						{
							"indexed": false,
							"internalType": "address",
							"name": "beneficiary",
							"type": "address"
						},
						{
							"indexed": false,
							"internalType": "uint256",
							"name": "value",
							"type": "uint256"
						}
					],
					"name": "Withdraw",
					"type": "event"
				},
				{
					"inputs": [
						{
							"internalType": "address",
							"name": "_better",
							"type": "address"
						},
						{
							"internalType": "address",
							"name": "_affiliate",
							"type": "address"
						},
						{
							"internalType": "uint256",
							"name": "_stake",
							"type": "uint256"
						},
						{
							"internalType": "uint256",
							"name": "_odds",
							"type": "uint256"
						},
						{
							"internalType": "uint256",
							"name": "_side",
							"type": "uint256"
						},
						{
							"internalType": "bool",
							"name": "_instant",
							"type": "bool"
						}
					],
					"name": "addBet",
					"outputs": [
						{
							"internalType": "bytes32",
							"name": "",
							"type": "bytes32"
						}
					],
					"stateMutability": "nonpayable",
					"type": "function"
				},
				{
					"inputs": [],
					"name": "cancel",
					"outputs": [
						{
							"internalType": "bool",
							"name": "",
							"type": "bool"
						}
					],
					"stateMutability": "nonpayable",
					"type": "function"
				},
				{
					"inputs": [
						{
							"internalType": "bytes32",
							"name": "_bet",
							"type": "bytes32"
						}
					],
					"name": "cancelBet",
					"outputs": [],
					"stateMutability": "nonpayable",
					"type": "function"
				},
				{
					"inputs": [],
					"name": "cancelPlusPairs",
					"outputs": [
						{
							"internalType": "bool",
							"name": "",
							"type": "bool"
						}
					],
					"stateMutability": "nonpayable",
					"type": "function"
				},
				{
					"inputs": [
						{
							"internalType": "address",
							"name": "_user",
							"type": "address"
						}
					],
					"name": "getBalance",
					"outputs": [
						{
							"internalType": "uint256",
							"name": "",
							"type": "uint256"
						}
					],
					"stateMutability": "view",
					"type": "function"
				},
				{
					"inputs": [
						{
							"internalType": "bytes32",
							"name": "_bet",
							"type": "bytes32"
						}
					],
					"name": "getBet",
					"outputs": [
						{
							"components": [
								{
									"internalType": "address",
									"name": "better",
									"type": "address"
								},
								{
									"internalType": "address",
									"name": "affiliate",
									"type": "address"
								},
								{
									"internalType": "uint256",
									"name": "stake",
									"type": "uint256"
								},
								{
									"internalType": "uint256",
									"name": "matched",
									"type": "uint256"
								},
								{
									"internalType": "uint256",
									"name": "odds",
									"type": "uint256"
								},
								{
									"internalType": "uint256",
									"name": "side",
									"type": "uint256"
								}
							],
							"internalType": "struct Struct.MarketBet",
							"name": "",
							"type": "tuple"
						}
					],
					"stateMutability": "view",
					"type": "function"
				},
				{
					"inputs": [
						{
							"internalType": "address",
							"name": "_user",
							"type": "address"
						}
					],
					"name": "getUserBets",
					"outputs": [
						{
							"internalType": "bytes32[]",
							"name": "",
							"type": "bytes32[]"
						}
					],
					"stateMutability": "view",
					"type": "function"
				},
				{
					"inputs": [],
					"name": "marketEvent",
					"outputs": [
						{
							"internalType": "bytes32",
							"name": "",
							"type": "bytes32"
						}
					],
					"stateMutability": "view",
					"type": "function"
				},
				{
					"inputs": [
						{
							"internalType": "uint256",
							"name": "_winningSide",
							"type": "uint256"
						}
					],
					"name": "setWinningSide",
					"outputs": [
						{
							"internalType": "bool",
							"name": "",
							"type": "bool"
						}
					],
					"stateMutability": "nonpayable",
					"type": "function"
				},
				{
					"inputs": [
						{
							"internalType": "uint256",
							"name": "_winningSide",
							"type": "uint256"
						}
					],
					"name": "settle",
					"outputs": [
						{
							"internalType": "bool",
							"name": "",
							"type": "bool"
						}
					],
					"stateMutability": "nonpayable",
					"type": "function"
				},
				{
					"inputs": [
						{
							"internalType": "bytes32",
							"name": "_bet",
							"type": "bytes32"
						}
					],
					"name": "settleBet",
					"outputs": [],
					"stateMutability": "nonpayable",
					"type": "function"
				},
				{
					"inputs": [],
					"name": "start",
					"outputs": [
						{
							"internalType": "bool",
							"name": "",
							"type": "bool"
						}
					],
					"stateMutability": "nonpayable",
					"type": "function"
				},
				{
					"inputs": [],
					"name": "status",
					"outputs": [
						{
							"internalType": "uint256",
							"name": "",
							"type": "uint256"
						}
					],
					"stateMutability": "view",
					"type": "function"
				},
				{
					"inputs": [
						{
							"internalType": "address",
							"name": "_user",
							"type": "address"
						}
					],
					"name": "withdraw",
					"outputs": [
						{
							"internalType": "bool",
							"name": "",
							"type": "bool"
						}
					],
					"stateMutability": "nonpayable",
					"type": "function"
				},
				{
					"inputs": [
						{
							"internalType": "bytes32",
							"name": "_bet",
							"type": "bytes32"
						}
					],
					"name": "withdrawPending",
					"outputs": [],
					"stateMutability": "nonpayable",
					"type": "function"
				}
			],
			"devdoc": {
				"kind": "dev",
				"methods": {
					"cancelBet(bytes32)": {
						"details": "cancel all pairs in `_bet`, "
					},
					"getBalance(address)": {
						"details": "Returns the amount of tokens owned by `_user` in this market."
					},
					"getBet(bytes32)": {
						"details": "Returns details of `_bet`."
					},
					"getUserBets(address)": {
						"details": "Returns hash IDs of all the bets placed by `_user`."
					},
					"setWinningSide(uint256)": {
						"details": "assign `_winningSide` to `status` "
					},
					"settle(uint256)": {
						"details": "assign `_winningSide` to `status` "
					},
					"settleBet(bytes32)": {
						"details": "settle all pairs in `_bet`, "
					},
					"withdraw(address)": {
						"details": "transfer bal[`_user`] to `_user`, bal"
					},
					"withdrawPending(bytes32)": {
						"details": "refund all unmatched stake in `_bet`, and withraw for caller address"
					}
				},
				"version": 1
			},
			"evm": {
				"assembly": "    /* \"contracts/Market.sol\":194:14405  contract Market is IMarket, ReentrancyGuard {... */\n  0xc0\n  0x40\n  dup2\n  swap1\n  mstore\n    /* \"contracts/Market.sol\":463:464  0 */\n  0x00\n    /* \"contracts/Market.sol\":430:464  uint256 public override status = 0 */\n  0x02\n  sstore\n    /* \"contracts/Market.sol\":941:948  factory */\n  sload(0x01)\n    /* \"contracts/Market.sol\":903:949  IWeb3BetsFO private app = IWeb3BetsFO(factory) */\n  0x0a\n  dup1\n  sload\n  not(sub(shl(0xa0, 0x01), 0x01))\n  and\n  sub(shl(0xa0, 0x01), 0x01)\n    /* \"contracts/Market.sol\":941:948  factory */\n  swap1\n  swap3\n  and\n    /* \"contracts/Market.sol\":903:949  IWeb3BetsFO private app = IWeb3BetsFO(factory) */\n  swap2\n  dup3\n  or\n  swap1\n  sstore\n  shl(0xe3, 0x966ed9)\n    /* \"contracts/Market.sol\":995:1007  app.scAddr() */\n  dup3\n  mstore\n    /* \"contracts/Market.sol\":941:948  factory */\n  swap1\n    /* \"contracts/Market.sol\":995:1005  app.scAddr */\n  0x04b376c8\n  swap1\n    /* \"contracts/Market.sol\":995:1007  app.scAddr() */\n  0xc4\n  swap1\n  0x20\n  swap1\n  0x04\n    /* \"contracts/Market.sol\":194:14405  contract Market is IMarket, ReentrancyGuard {... */\n  dup2\n    /* \"contracts/Market.sol\":941:948  factory */\n  dup7\n    /* \"contracts/Market.sol\":995:1007  app.scAddr() */\n  dup1\n  extcodesize\n  iszero\n  dup1\n  iszero\n  tag_1\n  jumpi\n  0x00\n  dup1\n  revert\ntag_1:\n  pop\n  gas\n  staticcall\n  iszero\n  dup1\n  iszero\n  tag_3\n  jumpi\n  returndatasize\n  0x00\n  dup1\n  returndatacopy\n  revert(0x00, returndatasize)\ntag_3:\n  pop\n  pop\n  pop\n  pop\n  mload(0x40)\n  returndatasize\n  not(0x1f)\n  0x1f\n  dup3\n  add\n  and\n  dup3\n  add\n  dup1\n  0x40\n  mstore\n  pop\n  dup2\n  add\n  swap1\n  tag_4\n  swap2\n  swap1\n  tag_5\n  jump\t// in\ntag_4:\n    /* \"contracts/Market.sol\":955:1008  IERC20 immutable private token = IERC20(app.scAddr()) */\n  0x60\n  shl\n  not(sub(shl(0x60, 0x01), 0x01))\n  and\n  0xa0\n  mstore\n    /* \"contracts/Market.sol\":1458:1553  constructor(bytes32 event_) {... */\n  callvalue\n  dup1\n  iszero\n  tag_6\n  jumpi\n  0x00\n  dup1\n  revert\ntag_6:\n  pop\n  mload(0x40)\n  sub(codesize, bytecodeSize)\n  dup1\n  bytecodeSize\n  dup4\n  codecopy\n  dup2\n  add\n  0x40\n  dup2\n  swap1\n  mstore\n  tag_7\n  swap2\n  tag_8\n  jump\t// in\ntag_7:\n    /* \"@openzeppelin/contracts/security/ReentrancyGuard.sol\":1701:1702  1 */\n  0x01\n    /* \"@openzeppelin/contracts/security/ReentrancyGuard.sol\":1806:1813  _status */\n  0x00\n    /* \"@openzeppelin/contracts/security/ReentrancyGuard.sol\":1806:1828  _status = _NOT_ENTERED */\n  dup2\n  swap1\n  sstore\n    /* \"contracts/Market.sol\":1496:1516  marketEvent = event_ */\n  0x80\n  swap2\n  swap1\n  swap2\n  mstore\n    /* \"contracts/Market.sol\":1526:1546  factory = msg.sender */\n  dup1\n  sload\n  not(sub(shl(0xa0, 0x01), 0x01))\n  and\n    /* \"contracts/Market.sol\":1536:1546  msg.sender */\n  caller\n    /* \"contracts/Market.sol\":1526:1546  factory = msg.sender */\n  or\n  swap1\n  sstore\n    /* \"contracts/Market.sol\":194:14405  contract Market is IMarket, ReentrancyGuard {... */\n  jump(tag_14)\n    /* \"#utility.yul\":14:324   */\ntag_5:\n    /* \"#utility.yul\":84:90   */\n  0x00\n    /* \"#utility.yul\":137:139   */\n  0x20\n    /* \"#utility.yul\":125:134   */\n  dup3\n    /* \"#utility.yul\":116:123   */\n  dup5\n    /* \"#utility.yul\":112:135   */\n  sub\n    /* \"#utility.yul\":108:140   */\n  slt\n    /* \"#utility.yul\":105:107   */\n  iszero\n  tag_16\n  jumpi\n    /* \"#utility.yul\":158:164   */\n  dup1\n    /* \"#utility.yul\":150:156   */\n  dup2\n    /* \"#utility.yul\":143:165   */\n  revert\n    /* \"#utility.yul\":105:107   */\ntag_16:\n    /* \"#utility.yul\":189:205   */\n  dup2\n  mload\n  sub(shl(0xa0, 0x01), 0x01)\n    /* \"#utility.yul\":234:265   */\n  dup2\n  and\n    /* \"#utility.yul\":224:266   */\n  dup2\n  eq\n    /* \"#utility.yul\":214:216   */\n  tag_17\n  jumpi\n    /* \"#utility.yul\":285:291   */\n  dup2\n    /* \"#utility.yul\":277:283   */\n  dup3\n    /* \"#utility.yul\":270:292   */\n  revert\n    /* \"#utility.yul\":214:216   */\ntag_17:\n    /* \"#utility.yul\":313:318   */\n  swap4\n    /* \"#utility.yul\":95:324   */\n  swap3\n  pop\n  pop\n  pop\n  jump\t// out\n    /* \"#utility.yul\":329:523   */\ntag_8:\n    /* \"#utility.yul\":399:405   */\n  0x00\n    /* \"#utility.yul\":452:454   */\n  0x20\n    /* \"#utility.yul\":440:449   */\n  dup3\n    /* \"#utility.yul\":431:438   */\n  dup5\n    /* \"#utility.yul\":427:450   */\n  sub\n    /* \"#utility.yul\":423:455   */\n  slt\n    /* \"#utility.yul\":420:422   */\n  iszero\n  tag_19\n  jumpi\n    /* \"#utility.yul\":473:479   */\n  dup1\n    /* \"#utility.yul\":465:471   */\n  dup2\n    /* \"#utility.yul\":458:480   */\n  revert\n    /* \"#utility.yul\":420:422   */\ntag_19:\n  pop\n    /* \"#utility.yul\":501:517   */\n  mload\n  swap2\n    /* \"#utility.yul\":410:523   */\n  swap1\n  pop\n  jump\t// out\ntag_14:\n    /* \"contracts/Market.sol\":194:14405  contract Market is IMarket, ReentrancyGuard {... */\n  mload(0x80)\n  shr(0x60, mload(0xa0))\n  codecopy(0x00, dataOffset(sub_0), dataSize(sub_0))\n  0x00\n  assignImmutable(\"0xb82efe928ba8047fc73c44199ae87270ba92aad773ed77645c6bc82e384fdb71\")\n  0x00\n  assignImmutable(\"0x535306ee4b42c92aecd0e71fca98572064f049c2babb2769faa3bbd87d67ec2d\")\n  return(0x00, dataSize(sub_0))\nstop\n\nsub_0: assembly {\n        /* \"contracts/Market.sol\":194:14405  contract Market is IMarket, ReentrancyGuard {... */\n      mstore(0x40, 0x80)\n      callvalue\n      dup1\n      iszero\n      tag_1\n      jumpi\n      0x00\n      dup1\n      revert\n    tag_1:\n      pop\n      jumpi(tag_2, lt(calldatasize, 0x04))\n      shr(0xe0, calldataload(0x00))\n      dup1\n      0x7a47d494\n      gt\n      tag_18\n      jumpi\n      dup1\n      0xbe9a6555\n      gt\n      tag_19\n      jumpi\n      dup1\n      0xbe9a6555\n      eq\n      tag_14\n      jumpi\n      dup1\n      0xd0ed7295\n      eq\n      tag_15\n      jumpi\n      dup1\n      0xea8a1af0\n      eq\n      tag_16\n      jumpi\n      dup1\n      0xf8b2cb4f\n      eq\n      tag_17\n      jumpi\n      0x00\n      dup1\n      revert\n    tag_19:\n      dup1\n      0x7a47d494\n      eq\n      tag_10\n      jumpi\n      dup1\n      0x7d7f9232\n      eq\n      tag_11\n      jumpi\n      dup1\n      0x8df82800\n      eq\n      tag_12\n      jumpi\n      dup1\n      0xae8cd090\n      eq\n      tag_13\n      jumpi\n      0x00\n      dup1\n      revert\n    tag_18:\n      dup1\n      0x37e8c09e\n      gt\n      tag_20\n      jumpi\n      dup1\n      0x37e8c09e\n      eq\n      tag_6\n      jumpi\n      dup1\n      0x51cff8d9\n      eq\n      tag_7\n      jumpi\n      dup1\n      0x675f6537\n      eq\n      tag_8\n      jumpi\n      dup1\n      0x78d65b2f\n      eq\n      tag_9\n      jumpi\n      0x00\n      dup1\n      revert\n    tag_20:\n      dup1\n      0x200d2ed2\n      eq\n      tag_3\n      jumpi\n      dup1\n      0x2940ff1e\n      eq\n      tag_4\n      jumpi\n      dup1\n      0x2d56657d\n      eq\n      tag_5\n      jumpi\n    tag_2:\n      0x00\n      dup1\n      revert\n        /* \"contracts/Market.sol\":430:464  uint256 public override status = 0 */\n    tag_3:\n      tag_21\n      sload(0x02)\n      dup2\n      jump\n    tag_21:\n      mload(0x40)\n        /* \"#utility.yul\":5870:5895   */\n      swap1\n      dup2\n      mstore\n        /* \"#utility.yul\":5858:5860   */\n      0x20\n        /* \"#utility.yul\":5843:5861   */\n      add\n        /* \"contracts/Market.sol\":430:464  uint256 public override status = 0 */\n    tag_23:\n      mload(0x40)\n      dup1\n      swap2\n      sub\n      swap1\n      return\n        /* \"contracts/Market.sol\":3265:3516  function cancelBet(bytes32 _bet) external override {... */\n    tag_4:\n      tag_25\n      tag_26\n      calldatasize\n      0x04\n      tag_27\n      jump\t// in\n    tag_26:\n      tag_28\n      jump\t// in\n    tag_25:\n      stop\n        /* \"contracts/Market.sol\":1840:1978  function getUserBets(address _user) ... */\n    tag_5:\n      tag_29\n      tag_30\n      calldatasize\n      0x04\n      tag_31\n      jump\t// in\n    tag_30:\n      tag_32\n      jump\t// in\n    tag_29:\n      mload(0x40)\n      tag_23\n      swap2\n      swap1\n      tag_34\n      jump\t// in\n        /* \"contracts/Market.sol\":2037:2175  function getBet(bytes32 _bet) ... */\n    tag_6:\n      tag_35\n      tag_36\n      calldatasize\n      0x04\n      tag_27\n      jump\t// in\n    tag_36:\n      tag_37\n      jump\t// in\n    tag_35:\n      mload(0x40)\n      tag_23\n      swap2\n      swap1\n        /* \"#utility.yul\":10359:10372   */\n      dup2\n      mload\n      sub(shl(0xa0, 0x01), 0x01)\n        /* \"#utility.yul\":10355:10377   */\n      swap1\n      dup2\n      and\n        /* \"#utility.yul\":10337:10378   */\n      dup3\n      mstore\n        /* \"#utility.yul\":10438:10442   */\n      0x20\n        /* \"#utility.yul\":10426:10443   */\n      dup1\n      dup5\n      add\n        /* \"#utility.yul\":10420:10444   */\n      mload\n        /* \"#utility.yul\":10416:10449   */\n      swap1\n      swap2\n      and\n        /* \"#utility.yul\":10394:10414   */\n      swap1\n      dup3\n      add\n        /* \"#utility.yul\":10387:10450   */\n      mstore\n        /* \"#utility.yul\":10506:10510   */\n      0x40\n        /* \"#utility.yul\":10494:10511   */\n      dup1\n      dup4\n      add\n        /* \"#utility.yul\":10488:10512   */\n      mload\n        /* \"#utility.yul\":10466:10486   */\n      swap1\n      dup3\n      add\n        /* \"#utility.yul\":10459:10513   */\n      mstore\n        /* \"#utility.yul\":10569:10573   */\n      0x60\n        /* \"#utility.yul\":10557:10574   */\n      dup1\n      dup4\n      add\n        /* \"#utility.yul\":10551:10575   */\n      mload\n        /* \"#utility.yul\":10529:10549   */\n      swap1\n      dup3\n      add\n        /* \"#utility.yul\":10522:10576   */\n      mstore\n        /* \"#utility.yul\":10632:10636   */\n      0x80\n        /* \"#utility.yul\":10620:10637   */\n      dup1\n      dup4\n      add\n        /* \"#utility.yul\":10614:10638   */\n      mload\n        /* \"#utility.yul\":10592:10612   */\n      swap1\n      dup3\n      add\n        /* \"#utility.yul\":10585:10639   */\n      mstore\n        /* \"#utility.yul\":10317:10320   */\n      0xa0\n        /* \"#utility.yul\":10683:10700   */\n      swap2\n      dup3\n      add\n        /* \"#utility.yul\":10677:10701   */\n      mload\n        /* \"#utility.yul\":10655:10675   */\n      swap2\n      dup2\n      add\n        /* \"#utility.yul\":10648:10702   */\n      swap2\n      swap1\n      swap2\n      mstore\n        /* \"#utility.yul\":10286:10289   */\n      0xc0\n        /* \"#utility.yul\":10271:10290   */\n      add\n      swap1\n        /* \"#utility.yul\":10253:10708   */\n      jump\n        /* \"contracts/Market.sol\":2245:2712  function withdraw(address _user) public override nonReentrant returns(bool) {... */\n    tag_7:\n      tag_40\n      tag_41\n      calldatasize\n      0x04\n      tag_31\n      jump\t// in\n    tag_41:\n      tag_42\n      jump\t// in\n    tag_40:\n      mload(0x40)\n        /* \"#utility.yul\":5697:5711   */\n      swap1\n      iszero\n        /* \"#utility.yul\":5690:5712   */\n      iszero\n        /* \"#utility.yul\":5672:5713   */\n      dup2\n      mstore\n        /* \"#utility.yul\":5660:5662   */\n      0x20\n        /* \"#utility.yul\":5645:5663   */\n      add\n        /* \"contracts/Market.sol\":2245:2712  function withdraw(address _user) public override nonReentrant returns(bool) {... */\n      tag_23\n        /* \"#utility.yul\":5627:5719   */\n      jump\n        /* \"contracts/Market.sol\":3577:3897  function settleBet(bytes32 _bet) external override {... */\n    tag_8:\n      tag_25\n      tag_46\n      calldatasize\n      0x04\n      tag_27\n      jump\t// in\n    tag_46:\n      tag_47\n      jump\t// in\n        /* \"contracts/Market.sol\":5623:8231  function addBet(... */\n    tag_9:\n      tag_21\n      tag_49\n      calldatasize\n      0x04\n      tag_50\n      jump\t// in\n    tag_49:\n      tag_51\n      jump\t// in\n        /* \"contracts/Market.sol\":244:289  bytes32 immutable public override marketEvent */\n    tag_10:\n      tag_21\n      immutable(\"0x535306ee4b42c92aecd0e71fca98572064f049c2babb2769faa3bbd87d67ec2d\")\n      dup2\n      jump\n        /* \"contracts/Market.sol\":2815:3204  function withdrawPending(bytes32 _bet) public override {... */\n    tag_11:\n      tag_25\n      tag_58\n      calldatasize\n      0x04\n      tag_27\n      jump\t// in\n    tag_58:\n      tag_59\n      jump\t// in\n        /* \"contracts/Market.sol\":4378:4789  function settle(uint256 _winningSide)... */\n    tag_12:\n      tag_40\n      tag_61\n      calldatasize\n      0x04\n      tag_27\n      jump\t// in\n    tag_61:\n      tag_63\n      jump\t// in\n        /* \"contracts/Market.sol\":5026:5409  function cancelPlusPairs() external override onlyFactory returns(bool) ... */\n    tag_13:\n      tag_40\n      tag_66\n      jump\t// in\n        /* \"contracts/Market.sol\":5415:5617  function start() external override onlyFactory returns(bool){... */\n    tag_14:\n      tag_40\n      tag_69\n      jump\t// in\n        /* \"contracts/Market.sol\":3964:4311  function setWinningSide(uint256 _winningSide)... */\n    tag_15:\n      tag_40\n      tag_72\n      calldatasize\n      0x04\n      tag_27\n      jump\t// in\n    tag_72:\n      tag_73\n      jump\t// in\n        /* \"contracts/Market.sol\":4795:5020  function cancel() external override onlyFactory returns(bool) ... */\n    tag_16:\n      tag_40\n      tag_76\n      jump\t// in\n        /* \"contracts/Market.sol\":1647:1756  function getBalance(address _user) external view override returns(uint256) {... */\n    tag_17:\n      tag_21\n      tag_79\n      calldatasize\n      0x04\n      tag_31\n      jump\t// in\n    tag_79:\n      sub(shl(0xa0, 0x01), 0x01)\n        /* \"contracts/Market.sol\":1739:1749  bal[_user] */\n      and\n        /* \"contracts/Market.sol\":1713:1720  uint256 */\n      0x00\n        /* \"contracts/Market.sol\":1739:1749  bal[_user] */\n      swap1\n      dup2\n      mstore\n        /* \"contracts/Market.sol\":1739:1742  bal */\n      0x05\n        /* \"contracts/Market.sol\":1739:1749  bal[_user] */\n      0x20\n      mstore\n      0x40\n      swap1\n      keccak256\n      sload\n      swap1\n        /* \"contracts/Market.sol\":1647:1756  function getBalance(address _user) external view override returns(uint256) {... */\n      jump\n        /* \"contracts/Market.sol\":3265:3516  function cancelBet(bytes32 _bet) external override {... */\n    tag_28:\n        /* \"contracts/Market.sol\":3348:3362  betsInfo[_bet] */\n      0x00\n      dup2\n      dup2\n      mstore\n        /* \"contracts/Market.sol\":3348:3356  betsInfo */\n      0x06\n        /* \"contracts/Market.sol\":3348:3362  betsInfo[_bet] */\n      0x20\n      mstore\n      0x40\n      swap1\n      keccak256\n        /* \"contracts/Market.sol\":3348:3369  betsInfo[_bet].better */\n      sload\n      sub(shl(0xa0, 0x01), 0x01)\n      and\n        /* \"contracts/Market.sol\":3334:3344  msg.sender */\n      caller\n        /* \"contracts/Market.sol\":3334:3369  msg.sender == betsInfo[_bet].better */\n      eq\n        /* \"contracts/Market.sol\":3326:3393  require(msg.sender == betsInfo[_bet].better, \"unauthorized caller\") */\n      tag_83\n      jumpi\n      mload(0x40)\n      shl(0xe5, 0x461bcd)\n      dup2\n      mstore\n        /* \"#utility.yul\":7158:7160   */\n      0x20\n        /* \"contracts/Market.sol\":3326:3393  require(msg.sender == betsInfo[_bet].better, \"unauthorized caller\") */\n      0x04\n      dup3\n      add\n        /* \"#utility.yul\":7140:7161   */\n      mstore\n        /* \"#utility.yul\":7197:7199   */\n      0x13\n        /* \"#utility.yul\":7177:7195   */\n      0x24\n      dup3\n      add\n        /* \"#utility.yul\":7170:7200   */\n      mstore\n      shl(0x69, 0x3ab730baba3437b934bd32b21031b0b63632b9)\n        /* \"#utility.yul\":7216:7234   */\n      0x44\n      dup3\n      add\n        /* \"#utility.yul\":7209:7258   */\n      mstore\n        /* \"#utility.yul\":7275:7293   */\n      0x64\n      add\n        /* \"contracts/Market.sol\":3326:3393  require(msg.sender == betsInfo[_bet].better, \"unauthorized caller\") */\n    tag_84:\n      mload(0x40)\n      dup1\n      swap2\n      sub\n      swap1\n      revert\n    tag_83:\n        /* \"contracts/Market.sol\":3406:3412  status */\n      sload(0x02)\n        /* \"contracts/Market.sol\":3406:3417  status == 0 */\n      iszero\n      dup1\n        /* \"contracts/Market.sol\":3406:3432  status == 0 || status == 4 */\n      tag_86\n      jumpi\n      pop\n        /* \"contracts/Market.sol\":3421:3427  status */\n      sload(0x02)\n        /* \"contracts/Market.sol\":3431:3432  4 */\n      0x04\n        /* \"contracts/Market.sol\":3421:3432  status == 4 */\n      eq\n        /* \"contracts/Market.sol\":3406:3432  status == 0 || status == 4 */\n    tag_86:\n        /* \"contracts/Market.sol\":3403:3479  if(status == 0 || status == 4){... */\n      iszero\n      tag_87\n      jumpi\n        /* \"contracts/Market.sol\":3447:3468  _cancelBetPairs(_bet) */\n      tag_88\n        /* \"contracts/Market.sol\":3463:3467  _bet */\n      dup2\n        /* \"contracts/Market.sol\":3447:3462  _cancelBetPairs */\n      tag_89\n        /* \"contracts/Market.sol\":3447:3468  _cancelBetPairs(_bet) */\n      jump\t// in\n    tag_88:\n      pop\n        /* \"contracts/Market.sol\":3403:3479  if(status == 0 || status == 4){... */\n    tag_87:\n        /* \"contracts/Market.sol\":3488:3509  withdrawPending(_bet) */\n      tag_90\n        /* \"contracts/Market.sol\":3504:3508  _bet */\n      dup2\n        /* \"contracts/Market.sol\":3488:3503  withdrawPending */\n      tag_59\n        /* \"contracts/Market.sol\":3488:3509  withdrawPending(_bet) */\n      jump\t// in\n    tag_90:\n        /* \"contracts/Market.sol\":3265:3516  function cancelBet(bytes32 _bet) external override {... */\n      pop\n      jump\t// out\n        /* \"contracts/Market.sol\":1840:1978  function getUserBets(address _user) ... */\n    tag_32:\n      sub(shl(0xa0, 0x01), 0x01)\n        /* \"contracts/Market.sol\":1956:1971  userBets[_user] */\n      dup2\n      and\n      0x00\n      swap1\n      dup2\n      mstore\n        /* \"contracts/Market.sol\":1956:1964  userBets */\n      0x07\n        /* \"contracts/Market.sol\":1956:1971  userBets[_user] */\n      0x20\n      swap1\n      dup2\n      mstore\n      0x40\n      swap2\n      dup3\n      swap1\n      keccak256\n        /* \"contracts/Market.sol\":1949:1971  return userBets[_user] */\n      dup1\n      sload\n      dup4\n      mload\n      dup2\n      dup5\n      mul\n      dup2\n      add\n      dup5\n      add\n      swap1\n      swap5\n      mstore\n      dup1\n      dup5\n      mstore\n        /* \"contracts/Market.sol\":1916:1932  bytes32[] memory */\n      0x60\n      swap4\n        /* \"contracts/Market.sol\":1949:1971  return userBets[_user] */\n      swap3\n      dup4\n      add\n        /* \"contracts/Market.sol\":1956:1971  userBets[_user] */\n      dup3\n        /* \"contracts/Market.sol\":1949:1971  return userBets[_user] */\n      dup3\n      dup1\n      iszero\n      tag_92\n      jumpi\n      0x20\n      mul\n      dup3\n      add\n      swap2\n      swap1\n      0x00\n      mstore\n      keccak256(0x00, 0x20)\n      swap1\n    tag_93:\n      dup2\n      sload\n      dup2\n      mstore\n      0x20\n      add\n      swap1\n      0x01\n      add\n      swap1\n      dup1\n      dup4\n      gt\n      tag_93\n      jumpi\n    tag_92:\n      pop\n      pop\n      pop\n      pop\n      pop\n      swap1\n      pop\n        /* \"contracts/Market.sol\":1840:1978  function getUserBets(address _user) ... */\n      swap2\n      swap1\n      pop\n      jump\t// out\n        /* \"contracts/Market.sol\":2037:2175  function getBet(bytes32 _bet) ... */\n    tag_37:\n        /* \"contracts/Market.sol\":2107:2130  Struct.MarketBet memory */\n      tag_94\n      mload(0x40)\n      dup1\n      0xc0\n      add\n      0x40\n      mstore\n      dup1\n      and(sub(shl(0xa0, 0x01), 0x01), 0x00)\n      dup2\n      mstore\n      0x20\n      add\n      and(sub(shl(0xa0, 0x01), 0x01), 0x00)\n      dup2\n      mstore\n      0x20\n      add\n      0x00\n      dup2\n      mstore\n      0x20\n      add\n      0x00\n      dup2\n      mstore\n      0x20\n      add\n      0x00\n      dup2\n      mstore\n      0x20\n      add\n      0x00\n      dup2\n      mstore\n      pop\n      swap1\n      jump\n    tag_94:\n      pop\n        /* \"contracts/Market.sol\":2154:2168  betsInfo[_bet] */\n      0x00\n      swap1\n      dup2\n      mstore\n        /* \"contracts/Market.sol\":2154:2162  betsInfo */\n      0x06\n        /* \"contracts/Market.sol\":2154:2168  betsInfo[_bet] */\n      0x20\n      swap1\n      dup2\n      mstore\n      0x40\n      swap2\n      dup3\n      swap1\n      keccak256\n        /* \"contracts/Market.sol\":2147:2168  return betsInfo[_bet] */\n      dup3\n      mload\n      0xc0\n      dup2\n      add\n      dup5\n      mstore\n      dup2\n      sload\n      sub(shl(0xa0, 0x01), 0x01)\n      swap1\n      dup2\n      and\n      dup3\n      mstore\n      0x01\n      dup4\n      add\n      sload\n      and\n      swap3\n      dup2\n      add\n      swap3\n      swap1\n      swap3\n      mstore\n      0x02\n      dup2\n      add\n      sload\n      swap3\n      dup3\n      add\n      swap3\n      swap1\n      swap3\n      mstore\n      0x03\n      dup3\n      add\n      sload\n      0x60\n      dup3\n      add\n      mstore\n      0x04\n      dup3\n      add\n      sload\n      0x80\n      dup3\n      add\n      mstore\n      0x05\n      swap1\n      swap2\n      add\n      sload\n      0xa0\n      dup3\n      add\n      mstore\n      swap1\n        /* \"contracts/Market.sol\":2037:2175  function getBet(bytes32 _bet) ... */\n      jump\t// out\n        /* \"contracts/Market.sol\":2245:2712  function withdraw(address _user) public override nonReentrant returns(bool) {... */\n    tag_42:\n        /* \"contracts/Market.sol\":2315:2319  bool */\n      0x00\n        /* \"@openzeppelin/contracts/security/ReentrancyGuard.sol\":1744:1745  2 */\n      0x02\n        /* \"@openzeppelin/contracts/security/ReentrancyGuard.sol\":2325:2332  _status */\n      sload(0x00)\n        /* \"@openzeppelin/contracts/security/ReentrancyGuard.sol\":2325:2344  _status != _ENTERED */\n      eq\n      iszero\n        /* \"@openzeppelin/contracts/security/ReentrancyGuard.sol\":2317:2380  require(_status != _ENTERED, \"ReentrancyGuard: reentrant call\") */\n      tag_98\n      jumpi\n      mload(0x40)\n      shl(0xe5, 0x461bcd)\n      dup2\n      mstore\n        /* \"#utility.yul\":9940:9942   */\n      0x20\n        /* \"@openzeppelin/contracts/security/ReentrancyGuard.sol\":2317:2380  require(_status != _ENTERED, \"ReentrancyGuard: reentrant call\") */\n      0x04\n      dup3\n      add\n        /* \"#utility.yul\":9922:9943   */\n      mstore\n        /* \"#utility.yul\":9979:9981   */\n      0x1f\n        /* \"#utility.yul\":9959:9977   */\n      0x24\n      dup3\n      add\n        /* \"#utility.yul\":9952:9982   */\n      mstore\n        /* \"#utility.yul\":10018:10051   */\n      0x5265656e7472616e637947756172643a207265656e7472616e742063616c6c00\n        /* \"#utility.yul\":9998:10016   */\n      0x44\n      dup3\n      add\n        /* \"#utility.yul\":9991:10052   */\n      mstore\n        /* \"#utility.yul\":10069:10087   */\n      0x64\n      add\n        /* \"@openzeppelin/contracts/security/ReentrancyGuard.sol\":2317:2380  require(_status != _ENTERED, \"ReentrancyGuard: reentrant call\") */\n      tag_84\n        /* \"#utility.yul\":9912:10093   */\n      jump\n        /* \"@openzeppelin/contracts/security/ReentrancyGuard.sol\":2317:2380  require(_status != _ENTERED, \"ReentrancyGuard: reentrant call\") */\n    tag_98:\n        /* \"@openzeppelin/contracts/security/ReentrancyGuard.sol\":1744:1745  2 */\n      0x02\n        /* \"@openzeppelin/contracts/security/ReentrancyGuard.sol\":2455:2462  _status */\n      0x00\n        /* \"@openzeppelin/contracts/security/ReentrancyGuard.sol\":2455:2473  _status = _ENTERED */\n      swap1\n      dup2\n      sstore\n      sub(shl(0xa0, 0x01), 0x01)\n        /* \"contracts/Market.sol\":2386:2396  bal[_user] */\n      dup4\n      dup2\n      and\n      dup3\n      mstore\n        /* \"contracts/Market.sol\":2386:2389  bal */\n      0x05\n        /* \"contracts/Market.sol\":2386:2396  bal[_user] */\n      0x20\n      mstore\n      0x40\n      swap2\n      dup3\n      swap1\n      keccak256\n      sload\n        /* \"contracts/Market.sol\":2352:2382  token.balanceOf(address(this)) */\n      swap2\n      mload\n      shl(0xe0, 0x70a08231)\n      dup2\n      mstore\n        /* \"contracts/Market.sol\":2376:2380  this */\n      address\n        /* \"contracts/Market.sol\":2352:2382  token.balanceOf(address(this)) */\n      0x04\n      dup3\n      add\n        /* \"#utility.yul\":3266:3317   */\n      mstore\n        /* \"contracts/Market.sol\":2352:2357  token */\n      immutable(\"0xb82efe928ba8047fc73c44199ae87270ba92aad773ed77645c6bc82e384fdb71\")\n        /* \"contracts/Market.sol\":2352:2367  token.balanceOf */\n      swap1\n      swap2\n      and\n      swap1\n      0x70a08231\n      swap1\n        /* \"#utility.yul\":3239:3257   */\n      0x24\n      add\n        /* \"contracts/Market.sol\":2352:2382  token.balanceOf(address(this)) */\n      0x20\n      mload(0x40)\n      dup1\n      dup4\n      sub\n      dup2\n      dup7\n      dup1\n      extcodesize\n      iszero\n      dup1\n      iszero\n      tag_104\n      jumpi\n      0x00\n      dup1\n      revert\n    tag_104:\n      pop\n      gas\n      staticcall\n      iszero\n      dup1\n      iszero\n      tag_106\n      jumpi\n      returndatasize\n      0x00\n      dup1\n      returndatacopy\n      revert(0x00, returndatasize)\n    tag_106:\n      pop\n      pop\n      pop\n      pop\n      mload(0x40)\n      returndatasize\n      not(0x1f)\n      0x1f\n      dup3\n      add\n      and\n      dup3\n      add\n      dup1\n      0x40\n      mstore\n      pop\n      dup2\n      add\n      swap1\n      tag_107\n      swap2\n      swap1\n      tag_108\n      jump\t// in\n    tag_107:\n        /* \"contracts/Market.sol\":2352:2396  token.balanceOf(address(this)) >= bal[_user] */\n      lt\n      iszero\n        /* \"contracts/Market.sol\":2352:2414  token.balanceOf(address(this)) >= bal[_user] && bal[_user] > 0 */\n      dup1\n      iszero\n      tag_109\n      jumpi\n      pop\n      sub(shl(0xa0, 0x01), 0x01)\n        /* \"contracts/Market.sol\":2400:2410  bal[_user] */\n      dup3\n      and\n        /* \"contracts/Market.sol\":2413:2414  0 */\n      0x00\n        /* \"contracts/Market.sol\":2400:2410  bal[_user] */\n      swap1\n      dup2\n      mstore\n        /* \"contracts/Market.sol\":2400:2403  bal */\n      0x05\n        /* \"contracts/Market.sol\":2400:2410  bal[_user] */\n      0x20\n      mstore\n      0x40\n      swap1\n      keccak256\n      sload\n        /* \"contracts/Market.sol\":2400:2414  bal[_user] > 0 */\n      iszero\n      iszero\n        /* \"contracts/Market.sol\":2352:2414  token.balanceOf(address(this)) >= bal[_user] && bal[_user] > 0 */\n    tag_109:\n        /* \"contracts/Market.sol\":2331:2460  require(... */\n      tag_110\n      jumpi\n      mload(0x40)\n      shl(0xe5, 0x461bcd)\n      dup2\n      mstore\n        /* \"#utility.yul\":8551:8553   */\n      0x20\n        /* \"contracts/Market.sol\":2331:2460  require(... */\n      0x04\n      dup3\n      add\n        /* \"#utility.yul\":8533:8554   */\n      mstore\n        /* \"#utility.yul\":8590:8592   */\n      0x14\n        /* \"#utility.yul\":8570:8588   */\n      0x24\n      dup3\n      add\n        /* \"#utility.yul\":8563:8593   */\n      mstore\n      shl(0x60, 0x7a65726f2076616c756520617661696c61626c65)\n        /* \"#utility.yul\":8609:8627   */\n      0x44\n      dup3\n      add\n        /* \"#utility.yul\":8602:8652   */\n      mstore\n        /* \"#utility.yul\":8669:8687   */\n      0x64\n      add\n        /* \"contracts/Market.sol\":2331:2460  require(... */\n      tag_84\n        /* \"#utility.yul\":8523:8693   */\n      jump\n        /* \"contracts/Market.sol\":2331:2460  require(... */\n    tag_110:\n      sub(shl(0xa0, 0x01), 0x01)\n        /* \"contracts/Market.sol\":2492:2502  bal[_user] */\n      dup3\n      dup2\n      and\n        /* \"contracts/Market.sol\":2470:2489  uint256 availAmount */\n      0x00\n        /* \"contracts/Market.sol\":2492:2502  bal[_user] */\n      dup2\n      dup2\n      mstore\n        /* \"contracts/Market.sol\":2492:2495  bal */\n      0x05\n        /* \"contracts/Market.sol\":2492:2502  bal[_user] */\n      0x20\n      mstore\n      0x40\n      dup1\n      dup3\n      keccak256\n      dup1\n      sload\n        /* \"contracts/Market.sol\":2512:2526  bal[_user] = 0 */\n      swap1\n      dup4\n      swap1\n      sstore\n        /* \"contracts/Market.sol\":2551:2585  token.transfer(_user, availAmount) */\n      swap1\n      mload\n      shl(0xe0, 0xa9059cbb)\n      dup2\n      mstore\n      0x04\n      dup2\n      add\n        /* \"#utility.yul\":4787:4838   */\n      swap4\n      swap1\n      swap4\n      mstore\n        /* \"#utility.yul\":4854:4872   */\n      0x24\n      dup4\n      add\n        /* \"#utility.yul\":4847:4881   */\n      dup2\n      swap1\n      mstore\n        /* \"contracts/Market.sol\":2492:2502  bal[_user] */\n      swap3\n        /* \"contracts/Market.sol\":2470:2489  uint256 availAmount */\n      swap1\n      swap2\n        /* \"contracts/Market.sol\":2551:2556  token */\n      immutable(\"0xb82efe928ba8047fc73c44199ae87270ba92aad773ed77645c6bc82e384fdb71\")\n        /* \"contracts/Market.sol\":2551:2565  token.transfer */\n      swap1\n      swap2\n      and\n      swap1\n      0xa9059cbb\n      swap1\n        /* \"#utility.yul\":4760:4778   */\n      0x44\n      add\n        /* \"contracts/Market.sol\":2551:2585  token.transfer(_user, availAmount) */\n      0x20\n      mload(0x40)\n      dup1\n      dup4\n      sub\n      dup2\n      0x00\n      dup8\n      dup1\n      extcodesize\n      iszero\n      dup1\n      iszero\n      tag_115\n      jumpi\n      0x00\n      dup1\n      revert\n    tag_115:\n      pop\n      gas\n      call\n      iszero\n      dup1\n      iszero\n      tag_117\n      jumpi\n      returndatasize\n      0x00\n      dup1\n      returndatacopy\n      revert(0x00, returndatasize)\n    tag_117:\n      pop\n      pop\n      pop\n      pop\n      mload(0x40)\n      returndatasize\n      not(0x1f)\n      0x1f\n      dup3\n      add\n      and\n      dup3\n      add\n      dup1\n      0x40\n      mstore\n      pop\n      dup2\n      add\n      swap1\n      tag_118\n      swap2\n      swap1\n      tag_119\n      jump\t// in\n    tag_118:\n        /* \"contracts/Market.sol\":2536:2585  bool success = token.transfer(_user, availAmount) */\n      swap1\n      pop\n        /* \"contracts/Market.sol\":2603:2610  success */\n      dup1\n        /* \"contracts/Market.sol\":2595:2640  require(success, \"transfer to caller failed\") */\n      tag_120\n      jumpi\n      mload(0x40)\n      shl(0xe5, 0x461bcd)\n      dup2\n      mstore\n        /* \"#utility.yul\":8197:8199   */\n      0x20\n        /* \"contracts/Market.sol\":2595:2640  require(success, \"transfer to caller failed\") */\n      0x04\n      dup3\n      add\n        /* \"#utility.yul\":8179:8200   */\n      mstore\n        /* \"#utility.yul\":8236:8238   */\n      0x19\n        /* \"#utility.yul\":8216:8234   */\n      0x24\n      dup3\n      add\n        /* \"#utility.yul\":8209:8239   */\n      mstore\n        /* \"#utility.yul\":8275:8302   */\n      0x7472616e7366657220746f2063616c6c6572206661696c656400000000000000\n        /* \"#utility.yul\":8255:8273   */\n      0x44\n      dup3\n      add\n        /* \"#utility.yul\":8248:8303   */\n      mstore\n        /* \"#utility.yul\":8320:8338   */\n      0x64\n      add\n        /* \"contracts/Market.sol\":2595:2640  require(success, \"transfer to caller failed\") */\n      tag_84\n        /* \"#utility.yul\":8169:8344   */\n      jump\n        /* \"contracts/Market.sol\":2595:2640  require(success, \"transfer to caller failed\") */\n    tag_120:\n        /* \"contracts/Market.sol\":2656:2684  Withdraw(_user, availAmount) */\n      0x40\n      dup1\n      mload\n      sub(shl(0xa0, 0x01), 0x01)\n        /* \"#utility.yul\":4805:4837   */\n      dup7\n      and\n        /* \"#utility.yul\":4787:4838   */\n      dup2\n      mstore\n        /* \"#utility.yul\":4869:4871   */\n      0x20\n        /* \"#utility.yul\":4854:4872   */\n      dup2\n      add\n        /* \"#utility.yul\":4847:4881   */\n      dup5\n      swap1\n      mstore\n        /* \"contracts/Market.sol\":2656:2684  Withdraw(_user, availAmount) */\n      0x884edad9ce6fa2440d8a54cc123490eb96d2768479d49ff9c7366125a9424364\n      swap2\n        /* \"#utility.yul\":4760:4778   */\n      add\n        /* \"contracts/Market.sol\":2656:2684  Withdraw(_user, availAmount) */\n      mload(0x40)\n      dup1\n      swap2\n      sub\n      swap1\n      log1\n        /* \"contracts/Market.sol\":2701:2705  true */\n      0x01\n        /* \"contracts/Market.sol\":2694:2705  return true */\n      swap3\n      pop\n      pop\n      pop\n        /* \"@openzeppelin/contracts/security/ReentrancyGuard.sol\":2484:2485  _ */\n    tag_101:\n        /* \"@openzeppelin/contracts/security/ReentrancyGuard.sol\":1701:1702  1 */\n      0x01\n        /* \"@openzeppelin/contracts/security/ReentrancyGuard.sol\":2628:2635  _status */\n      0x00\n        /* \"@openzeppelin/contracts/security/ReentrancyGuard.sol\":2628:2650  _status = _NOT_ENTERED */\n      sstore\n        /* \"contracts/Market.sol\":2245:2712  function withdraw(address _user) public override nonReentrant returns(bool) {... */\n      swap2\n      swap1\n      pop\n      jump\t// out\n        /* \"contracts/Market.sol\":3577:3897  function settleBet(bytes32 _bet) external override {... */\n    tag_47:\n        /* \"contracts/Market.sol\":3638:3661  bytes32[] memory _pairs */\n      0x00\n        /* \"contracts/Market.sol\":3664:3678  betPairs[_bet] */\n      dup2\n      dup2\n      mstore\n        /* \"contracts/Market.sol\":3664:3672  betPairs */\n      0x09\n        /* \"contracts/Market.sol\":3664:3678  betPairs[_bet] */\n      0x20\n      swap1\n      dup2\n      mstore\n      0x40\n      dup1\n      dup4\n      keccak256\n        /* \"contracts/Market.sol\":3638:3678  bytes32[] memory _pairs = betPairs[_bet] */\n      dup1\n      sload\n      dup3\n      mload\n      dup2\n      dup6\n      mul\n      dup2\n      add\n      dup6\n      add\n      swap1\n      swap4\n      mstore\n      dup1\n      dup4\n      mstore\n      swap2\n      swap3\n        /* \"contracts/Market.sol\":3664:3678  betPairs[_bet] */\n      swap1\n      swap2\n        /* \"contracts/Market.sol\":3638:3678  bytes32[] memory _pairs = betPairs[_bet] */\n      swap1\n      dup4\n      add\n        /* \"contracts/Market.sol\":3664:3678  betPairs[_bet] */\n      dup3\n        /* \"contracts/Market.sol\":3638:3678  bytes32[] memory _pairs = betPairs[_bet] */\n      dup3\n      dup1\n      iszero\n      tag_125\n      jumpi\n      0x20\n      mul\n      dup3\n      add\n      swap2\n      swap1\n      0x00\n      mstore\n      keccak256(0x00, 0x20)\n      swap1\n    tag_126:\n      dup2\n      sload\n      dup2\n      mstore\n      0x20\n      add\n      swap1\n      0x01\n      add\n      swap1\n      dup1\n      dup4\n      gt\n      tag_126\n      jumpi\n    tag_125:\n      pop\n      pop\n        /* \"contracts/Market.sol\":3707:3720  _pairs.length */\n      dup4\n      mload\n        /* \"contracts/Market.sol\":3638:3678  bytes32[] memory _pairs = betPairs[_bet] */\n      swap4\n      swap5\n      pop\n        /* \"contracts/Market.sol\":3688:3704  uint pairsLength */\n      0x00\n      swap3\n      pop\n      pop\n      pop\n        /* \"contracts/Market.sol\":3730:3814  for(uint i = 0; i < pairsLength; i++){... */\n    tag_127:\n        /* \"contracts/Market.sol\":3750:3761  pairsLength */\n      dup2\n        /* \"contracts/Market.sol\":3746:3747  i */\n      dup2\n        /* \"contracts/Market.sol\":3746:3761  i < pairsLength */\n      lt\n        /* \"contracts/Market.sol\":3730:3814  for(uint i = 0; i < pairsLength; i++){... */\n      iszero\n      tag_128\n      jumpi\n        /* \"contracts/Market.sol\":3781:3803  _settlePair(_pairs[i]) */\n      tag_130\n        /* \"contracts/Market.sol\":3793:3799  _pairs */\n      dup4\n        /* \"contracts/Market.sol\":3800:3801  i */\n      dup3\n        /* \"contracts/Market.sol\":3793:3802  _pairs[i] */\n      dup2\n      mload\n      dup2\n      lt\n      tag_131\n      jumpi\n      mstore(0x00, shl(0xe0, 0x4e487b71))\n      mstore(0x04, 0x32)\n      revert(0x00, 0x24)\n    tag_131:\n      0x20\n      mul\n      0x20\n      add\n      add\n      mload\n        /* \"contracts/Market.sol\":3781:3792  _settlePair */\n      tag_132\n        /* \"contracts/Market.sol\":3781:3803  _settlePair(_pairs[i]) */\n      jump\t// in\n    tag_130:\n      pop\n        /* \"contracts/Market.sol\":3763:3766  i++ */\n      dup1\n      tag_133\n      dup2\n      tag_134\n      jump\t// in\n    tag_133:\n      swap2\n      pop\n      pop\n        /* \"contracts/Market.sol\":3730:3814  for(uint i = 0; i < pairsLength; i++){... */\n      jump(tag_127)\n    tag_128:\n      pop\n        /* \"contracts/Market.sol\":3830:3840  msg.sender */\n      caller\n        /* \"contracts/Market.sol\":3844:3845  0 */\n      0x00\n        /* \"contracts/Market.sol\":3826:3841  bal[msg.sender] */\n      swap1\n      dup2\n      mstore\n        /* \"contracts/Market.sol\":3826:3829  bal */\n      0x05\n        /* \"contracts/Market.sol\":3826:3841  bal[msg.sender] */\n      0x20\n      mstore\n      0x40\n      swap1\n      keccak256\n      sload\n        /* \"contracts/Market.sol\":3826:3845  bal[msg.sender] > 0 */\n      iszero\n        /* \"contracts/Market.sol\":3823:3891  if(bal[msg.sender] > 0){... */\n      tag_135\n      jumpi\n        /* \"contracts/Market.sol\":3860:3880  withdraw(msg.sender) */\n      tag_136\n        /* \"contracts/Market.sol\":3869:3879  msg.sender */\n      caller\n        /* \"contracts/Market.sol\":3860:3868  withdraw */\n      tag_42\n        /* \"contracts/Market.sol\":3860:3880  withdraw(msg.sender) */\n      jump\t// in\n    tag_136:\n      pop\n        /* \"contracts/Market.sol\":3823:3891  if(bal[msg.sender] > 0){... */\n    tag_135:\n        /* \"contracts/Market.sol\":3577:3897  function settleBet(bytes32 _bet) external override {... */\n      pop\n      pop\n      pop\n      jump\t// out\n        /* \"contracts/Market.sol\":5623:8231  function addBet(... */\n    tag_51:\n        /* \"contracts/Market.sol\":5862:5865  app */\n      sload(0x0a)\n        /* \"contracts/Market.sol\":5862:5885  app.isBlack(msg.sender) */\n      mload(0x40)\n      shl(0xe0, 0x332daccf)\n      dup2\n      mstore\n        /* \"contracts/Market.sol\":5874:5884  msg.sender */\n      caller\n        /* \"contracts/Market.sol\":5862:5885  app.isBlack(msg.sender) */\n      0x04\n      dup3\n      add\n        /* \"#utility.yul\":3266:3317   */\n      mstore\n        /* \"contracts/Market.sol\":5830:5837  bytes32 */\n      0x00\n      swap2\n      sub(shl(0xa0, 0x01), 0x01)\n        /* \"contracts/Market.sol\":5862:5865  app */\n      and\n      swap1\n        /* \"contracts/Market.sol\":5862:5873  app.isBlack */\n      0x332daccf\n      swap1\n        /* \"#utility.yul\":3239:3257   */\n      0x24\n      add\n        /* \"contracts/Market.sol\":5862:5885  app.isBlack(msg.sender) */\n      0x20\n      mload(0x40)\n      dup1\n      dup4\n      sub\n      dup2\n      dup7\n      dup1\n      extcodesize\n      iszero\n      dup1\n      iszero\n      tag_139\n      jumpi\n      0x00\n      dup1\n      revert\n    tag_139:\n      pop\n      gas\n      staticcall\n      iszero\n      dup1\n      iszero\n      tag_141\n      jumpi\n      returndatasize\n      0x00\n      dup1\n      returndatacopy\n      revert(0x00, returndatasize)\n    tag_141:\n      pop\n      pop\n      pop\n      pop\n      mload(0x40)\n      returndatasize\n      not(0x1f)\n      0x1f\n      dup3\n      add\n      and\n      dup3\n      add\n      dup1\n      0x40\n      mstore\n      pop\n      dup2\n      add\n      swap1\n      tag_142\n      swap2\n      swap1\n      tag_119\n      jump\t// in\n    tag_142:\n        /* \"contracts/Market.sol\":5861:5885  !app.isBlack(msg.sender) */\n      iszero\n        /* \"contracts/Market.sol\":5853:5899  require(!app.isBlack(msg.sender), \"blacklist\") */\n      tag_143\n      jumpi\n      mload(0x40)\n      shl(0xe5, 0x461bcd)\n      dup2\n      mstore\n        /* \"#utility.yul\":9603:9605   */\n      0x20\n        /* \"contracts/Market.sol\":5853:5899  require(!app.isBlack(msg.sender), \"blacklist\") */\n      0x04\n      dup3\n      add\n        /* \"#utility.yul\":9585:9606   */\n      mstore\n        /* \"#utility.yul\":9642:9643   */\n      0x09\n        /* \"#utility.yul\":9622:9640   */\n      0x24\n      dup3\n      add\n        /* \"#utility.yul\":9615:9644   */\n      mstore\n      shl(0xba, 0x189b1858dadb1a5cdd)\n        /* \"#utility.yul\":9660:9678   */\n      0x44\n      dup3\n      add\n        /* \"#utility.yul\":9653:9692   */\n      mstore\n        /* \"#utility.yul\":9709:9727   */\n      0x64\n      add\n        /* \"contracts/Market.sol\":5853:5899  require(!app.isBlack(msg.sender), \"blacklist\") */\n      tag_84\n        /* \"#utility.yul\":9575:9733   */\n      jump\n        /* \"contracts/Market.sol\":5853:5899  require(!app.isBlack(msg.sender), \"blacklist\") */\n    tag_143:\n        /* \"contracts/Market.sol\":5917:5923  status */\n      sload(0x02)\n        /* \"contracts/Market.sol\":5917:5928  status == 0 */\n      iszero\n        /* \"contracts/Market.sol\":5909:5950  require(status == 0, \"market not active\") */\n      tag_146\n      jumpi\n      mload(0x40)\n      shl(0xe5, 0x461bcd)\n      dup2\n      mstore\n        /* \"#utility.yul\":6456:6458   */\n      0x20\n        /* \"contracts/Market.sol\":5909:5950  require(status == 0, \"market not active\") */\n      0x04\n      dup3\n      add\n        /* \"#utility.yul\":6438:6459   */\n      mstore\n        /* \"#utility.yul\":6495:6497   */\n      0x11\n        /* \"#utility.yul\":6475:6493   */\n      0x24\n      dup3\n      add\n        /* \"#utility.yul\":6468:6498   */\n      mstore\n      shl(0x78, 0x6d61726b6574206e6f7420616374697665)\n        /* \"#utility.yul\":6514:6532   */\n      0x44\n      dup3\n      add\n        /* \"#utility.yul\":6507:6554   */\n      mstore\n        /* \"#utility.yul\":6571:6589   */\n      0x64\n      add\n        /* \"contracts/Market.sol\":5909:5950  require(status == 0, \"market not active\") */\n      tag_84\n        /* \"#utility.yul\":6428:6595   */\n      jump\n        /* \"contracts/Market.sol\":5909:5950  require(status == 0, \"market not active\") */\n    tag_146:\n        /* \"contracts/Market.sol\":5968:5973  _side */\n      dup3\n        /* \"contracts/Market.sol\":5977:5978  1 */\n      0x01\n        /* \"contracts/Market.sol\":5968:5978  _side == 1 */\n      eq\n        /* \"contracts/Market.sol\":5968:5992  _side == 1 || _side == 2 */\n      dup1\n      tag_149\n      jumpi\n      pop\n        /* \"contracts/Market.sol\":5982:5987  _side */\n      dup3\n        /* \"contracts/Market.sol\":5991:5992  2 */\n      0x02\n        /* \"contracts/Market.sol\":5982:5992  _side == 2 */\n      eq\n        /* \"contracts/Market.sol\":5968:5992  _side == 1 || _side == 2 */\n    tag_149:\n        /* \"contracts/Market.sol\":5960:6009  require(_side == 1 || _side == 2, \"invalid side\") */\n      tag_150\n      jumpi\n      mload(0x40)\n      shl(0xe5, 0x461bcd)\n      dup2\n      mstore\n        /* \"#utility.yul\":7856:7858   */\n      0x20\n        /* \"contracts/Market.sol\":5960:6009  require(_side == 1 || _side == 2, \"invalid side\") */\n      0x04\n      dup3\n      add\n        /* \"#utility.yul\":7838:7859   */\n      mstore\n        /* \"#utility.yul\":7895:7897   */\n      0x0c\n        /* \"#utility.yul\":7875:7893   */\n      0x24\n      dup3\n      add\n        /* \"#utility.yul\":7868:7898   */\n      mstore\n      shl(0xa0, 0x696e76616c69642073696465)\n        /* \"#utility.yul\":7914:7932   */\n      0x44\n      dup3\n      add\n        /* \"#utility.yul\":7907:7949   */\n      mstore\n        /* \"#utility.yul\":7966:7984   */\n      0x64\n      add\n        /* \"contracts/Market.sol\":5960:6009  require(_side == 1 || _side == 2, \"invalid side\") */\n      tag_84\n        /* \"#utility.yul\":7828:7990   */\n      jump\n        /* \"contracts/Market.sol\":5960:6009  require(_side == 1 || _side == 2, \"invalid side\") */\n    tag_150:\n        /* \"contracts/Market.sol\":6027:6054  token.balanceOf(msg.sender) */\n      mload(0x40)\n      shl(0xe0, 0x70a08231)\n      dup2\n      mstore\n        /* \"contracts/Market.sol\":6043:6053  msg.sender */\n      caller\n        /* \"contracts/Market.sol\":6027:6054  token.balanceOf(msg.sender) */\n      0x04\n      dup3\n      add\n        /* \"#utility.yul\":3266:3317   */\n      mstore\n        /* \"contracts/Market.sol\":6058:6064  _stake */\n      dup6\n      swap1\n        /* \"contracts/Market.sol\":6027:6032  token */\n      immutable(\"0xb82efe928ba8047fc73c44199ae87270ba92aad773ed77645c6bc82e384fdb71\")\n      sub(shl(0xa0, 0x01), 0x01)\n        /* \"contracts/Market.sol\":6027:6042  token.balanceOf */\n      and\n      swap1\n      0x70a08231\n      swap1\n        /* \"#utility.yul\":3239:3257   */\n      0x24\n      add\n        /* \"contracts/Market.sol\":6027:6054  token.balanceOf(msg.sender) */\n      0x20\n      mload(0x40)\n      dup1\n      dup4\n      sub\n      dup2\n      dup7\n      dup1\n      extcodesize\n      iszero\n      dup1\n      iszero\n      tag_154\n      jumpi\n      0x00\n      dup1\n      revert\n    tag_154:\n      pop\n      gas\n      staticcall\n      iszero\n      dup1\n      iszero\n      tag_156\n      jumpi\n      returndatasize\n      0x00\n      dup1\n      returndatacopy\n      revert(0x00, returndatasize)\n    tag_156:\n      pop\n      pop\n      pop\n      pop\n      mload(0x40)\n      returndatasize\n      not(0x1f)\n      0x1f\n      dup3\n      add\n      and\n      dup3\n      add\n      dup1\n      0x40\n      mstore\n      pop\n      dup2\n      add\n      swap1\n      tag_157\n      swap2\n      swap1\n      tag_108\n      jump\t// in\n    tag_157:\n        /* \"contracts/Market.sol\":6027:6064  token.balanceOf(msg.sender) >= _stake */\n      lt\n      iszero\n        /* \"contracts/Market.sol\":6019:6093  require(token.balanceOf(msg.sender) >= _stake,\"not enough token balalnce\") */\n      tag_158\n      jumpi\n      mload(0x40)\n      shl(0xe5, 0x461bcd)\n      dup2\n      mstore\n        /* \"#utility.yul\":8900:8902   */\n      0x20\n        /* \"contracts/Market.sol\":6019:6093  require(token.balanceOf(msg.sender) >= _stake,\"not enough token balalnce\") */\n      0x04\n      dup3\n      add\n        /* \"#utility.yul\":8882:8903   */\n      mstore\n        /* \"#utility.yul\":8939:8941   */\n      0x19\n        /* \"#utility.yul\":8919:8937   */\n      0x24\n      dup3\n      add\n        /* \"#utility.yul\":8912:8942   */\n      mstore\n        /* \"#utility.yul\":8978:9005   */\n      0x6e6f7420656e6f75676820746f6b656e2062616c616c6e636500000000000000\n        /* \"#utility.yul\":8958:8976   */\n      0x44\n      dup3\n      add\n        /* \"#utility.yul\":8951:9006   */\n      mstore\n        /* \"#utility.yul\":9023:9041   */\n      0x64\n      add\n        /* \"contracts/Market.sol\":6019:6093  require(token.balanceOf(msg.sender) >= _stake,\"not enough token balalnce\") */\n      tag_84\n        /* \"#utility.yul\":8872:9047   */\n      jump\n        /* \"contracts/Market.sol\":6019:6093  require(token.balanceOf(msg.sender) >= _stake,\"not enough token balalnce\") */\n    tag_158:\n        /* \"contracts/Market.sol\":6111:6153  token.allowance(msg.sender, address(this)) */\n      mload(0x40)\n      shl(0xe1, 0x6eb1769f)\n      dup2\n      mstore\n        /* \"contracts/Market.sol\":6127:6137  msg.sender */\n      caller\n        /* \"contracts/Market.sol\":6111:6153  token.allowance(msg.sender, address(this)) */\n      0x04\n      dup3\n      add\n        /* \"#utility.yul\":3540:3574   */\n      mstore\n        /* \"contracts/Market.sol\":6147:6151  this */\n      address\n        /* \"#utility.yul\":3590:3608   */\n      0x24\n      dup3\n      add\n        /* \"#utility.yul\":3583:3626   */\n      mstore\n        /* \"contracts/Market.sol\":6157:6163  _stake */\n      dup6\n      swap1\n        /* \"contracts/Market.sol\":6111:6116  token */\n      immutable(\"0xb82efe928ba8047fc73c44199ae87270ba92aad773ed77645c6bc82e384fdb71\")\n      sub(shl(0xa0, 0x01), 0x01)\n        /* \"contracts/Market.sol\":6111:6126  token.allowance */\n      and\n      swap1\n      0xdd62ed3e\n      swap1\n        /* \"#utility.yul\":3475:3493   */\n      0x44\n      add\n        /* \"contracts/Market.sol\":6111:6153  token.allowance(msg.sender, address(this)) */\n      0x20\n      mload(0x40)\n      dup1\n      dup4\n      sub\n      dup2\n      dup7\n      dup1\n      extcodesize\n      iszero\n      dup1\n      iszero\n      tag_163\n      jumpi\n      0x00\n      dup1\n      revert\n    tag_163:\n      pop\n      gas\n      staticcall\n      iszero\n      dup1\n      iszero\n      tag_165\n      jumpi\n      returndatasize\n      0x00\n      dup1\n      returndatacopy\n      revert(0x00, returndatasize)\n    tag_165:\n      pop\n      pop\n      pop\n      pop\n      mload(0x40)\n      returndatasize\n      not(0x1f)\n      0x1f\n      dup3\n      add\n      and\n      dup3\n      add\n      dup1\n      0x40\n      mstore\n      pop\n      dup2\n      add\n      swap1\n      tag_166\n      swap2\n      swap1\n      tag_108\n      jump\t// in\n    tag_166:\n        /* \"contracts/Market.sol\":6111:6163  token.allowance(msg.sender, address(this)) >= _stake */\n      lt\n      iszero\n        /* \"contracts/Market.sol\":6103:6187  require(token.allowance(msg.sender, address(this)) >= _stake,\"not enough allowance\") */\n      tag_167\n      jumpi\n      mload(0x40)\n      shl(0xe5, 0x461bcd)\n      dup2\n      mstore\n        /* \"#utility.yul\":9254:9256   */\n      0x20\n        /* \"contracts/Market.sol\":6103:6187  require(token.allowance(msg.sender, address(this)) >= _stake,\"not enough allowance\") */\n      0x04\n      dup3\n      add\n        /* \"#utility.yul\":9236:9257   */\n      mstore\n        /* \"#utility.yul\":9293:9295   */\n      0x14\n        /* \"#utility.yul\":9273:9291   */\n      0x24\n      dup3\n      add\n        /* \"#utility.yul\":9266:9296   */\n      mstore\n      shl(0x60, 0x6e6f7420656e6f75676820616c6c6f77616e6365)\n        /* \"#utility.yul\":9312:9330   */\n      0x44\n      dup3\n      add\n        /* \"#utility.yul\":9305:9355   */\n      mstore\n        /* \"#utility.yul\":9372:9390   */\n      0x64\n      add\n        /* \"contracts/Market.sol\":6103:6187  require(token.allowance(msg.sender, address(this)) >= _stake,\"not enough allowance\") */\n      tag_84\n        /* \"#utility.yul\":9226:9396   */\n      jump\n        /* \"contracts/Market.sol\":6103:6187  require(token.allowance(msg.sender, address(this)) >= _stake,\"not enough allowance\") */\n    tag_167:\n        /* \"contracts/Market.sol\":6215:6218  app */\n      0x0a\n      0x00\n      swap1\n      sload\n      swap1\n      0x0100\n      exp\n      swap1\n      div\n      sub(shl(0xa0, 0x01), 0x01)\n      and\n      sub(shl(0xa0, 0x01), 0x01)\n        /* \"contracts/Market.sol\":6215:6227  app.minStake */\n      and\n      0x375b3c0a\n        /* \"contracts/Market.sol\":6215:6229  app.minStake() */\n      mload(0x40)\n      dup2\n      0xffffffff\n      and\n      0xe0\n      shl\n      dup2\n      mstore\n      0x04\n      add\n      0x20\n      mload(0x40)\n      dup1\n      dup4\n      sub\n      dup2\n      dup7\n      dup1\n      extcodesize\n      iszero\n      dup1\n      iszero\n      tag_170\n      jumpi\n      0x00\n      dup1\n      revert\n    tag_170:\n      pop\n      gas\n      staticcall\n      iszero\n      dup1\n      iszero\n      tag_172\n      jumpi\n      returndatasize\n      0x00\n      dup1\n      returndatacopy\n      revert(0x00, returndatasize)\n    tag_172:\n      pop\n      pop\n      pop\n      pop\n      mload(0x40)\n      returndatasize\n      not(0x1f)\n      0x1f\n      dup3\n      add\n      and\n      dup3\n      add\n      dup1\n      0x40\n      mstore\n      pop\n      dup2\n      add\n      swap1\n      tag_173\n      swap2\n      swap1\n      tag_108\n      jump\t// in\n    tag_173:\n        /* \"contracts/Market.sol\":6205:6211  _stake */\n      dup6\n        /* \"contracts/Market.sol\":6205:6229  _stake >= app.minStake() */\n      lt\n      iszero\n        /* \"contracts/Market.sol\":6197:6252  require(_stake >= app.minStake(),\"less than min stake\") */\n      tag_174\n      jumpi\n      mload(0x40)\n      shl(0xe5, 0x461bcd)\n      dup2\n      mstore\n        /* \"#utility.yul\":6108:6110   */\n      0x20\n        /* \"contracts/Market.sol\":6197:6252  require(_stake >= app.minStake(),\"less than min stake\") */\n      0x04\n      dup3\n      add\n        /* \"#utility.yul\":6090:6111   */\n      mstore\n        /* \"#utility.yul\":6147:6149   */\n      0x13\n        /* \"#utility.yul\":6127:6145   */\n      0x24\n      dup3\n      add\n        /* \"#utility.yul\":6120:6150   */\n      mstore\n      shl(0x68, 0x6c657373207468616e206d696e207374616b65)\n        /* \"#utility.yul\":6166:6184   */\n      0x44\n      dup3\n      add\n        /* \"#utility.yul\":6159:6208   */\n      mstore\n        /* \"#utility.yul\":6225:6243   */\n      0x64\n      add\n        /* \"contracts/Market.sol\":6197:6252  require(_stake >= app.minStake(),\"less than min stake\") */\n      tag_84\n        /* \"#utility.yul\":6080:6249   */\n      jump\n        /* \"contracts/Market.sol\":6197:6252  require(_stake >= app.minStake(),\"less than min stake\") */\n    tag_174:\n        /* \"contracts/Market.sol\":6283:6336  token.transferFrom(msg.sender, address(this), _stake) */\n      mload(0x40)\n      shl(0xe0, 0x23b872dd)\n      dup2\n      mstore\n        /* \"contracts/Market.sol\":6302:6312  msg.sender */\n      caller\n        /* \"contracts/Market.sol\":6283:6336  token.transferFrom(msg.sender, address(this), _stake) */\n      0x04\n      dup3\n      add\n        /* \"#utility.yul\":4473:4507   */\n      mstore\n        /* \"contracts/Market.sol\":6322:6326  this */\n      address\n        /* \"#utility.yul\":4523:4541   */\n      0x24\n      dup3\n      add\n        /* \"#utility.yul\":4516:4559   */\n      mstore\n        /* \"#utility.yul\":4575:4593   */\n      0x44\n      dup2\n      add\n        /* \"#utility.yul\":4568:4602   */\n      dup7\n      swap1\n      mstore\n        /* \"contracts/Market.sol\":6283:6288  token */\n      immutable(\"0xb82efe928ba8047fc73c44199ae87270ba92aad773ed77645c6bc82e384fdb71\")\n      sub(shl(0xa0, 0x01), 0x01)\n        /* \"contracts/Market.sol\":6283:6301  token.transferFrom */\n      and\n      swap1\n      0x23b872dd\n      swap1\n        /* \"#utility.yul\":4408:4426   */\n      0x64\n      add\n        /* \"contracts/Market.sol\":6283:6336  token.transferFrom(msg.sender, address(this), _stake) */\n      0x20\n      mload(0x40)\n      dup1\n      dup4\n      sub\n      dup2\n      0x00\n      dup8\n      dup1\n      extcodesize\n      iszero\n      dup1\n      iszero\n      tag_179\n      jumpi\n      0x00\n      dup1\n      revert\n    tag_179:\n      pop\n      gas\n      call\n      iszero\n      dup1\n      iszero\n      tag_181\n      jumpi\n      returndatasize\n      0x00\n      dup1\n      returndatacopy\n      revert(0x00, returndatasize)\n    tag_181:\n      pop\n      pop\n      pop\n      pop\n      mload(0x40)\n      returndatasize\n      not(0x1f)\n      0x1f\n      dup3\n      add\n      and\n      dup3\n      add\n      dup1\n      0x40\n      mstore\n      pop\n      dup2\n      add\n      swap1\n      tag_182\n      swap2\n      swap1\n      tag_119\n      jump\t// in\n    tag_182:\n        /* \"contracts/Market.sol\":6262:6389  require(... */\n      tag_183\n      jumpi\n      mload(0x40)\n      shl(0xe5, 0x461bcd)\n      dup2\n      mstore\n        /* \"#utility.yul\":6802:6804   */\n      0x20\n        /* \"contracts/Market.sol\":6262:6389  require(... */\n      0x04\n      dup3\n      add\n        /* \"#utility.yul\":6784:6805   */\n      mstore\n        /* \"#utility.yul\":6841:6843   */\n      0x1b\n        /* \"#utility.yul\":6821:6839   */\n      0x24\n      dup3\n      add\n        /* \"#utility.yul\":6814:6844   */\n      mstore\n        /* \"#utility.yul\":6880:6909   */\n      0x7472616e736665722066726f6d2063616c6c6572206661696c65640000000000\n        /* \"#utility.yul\":6860:6878   */\n      0x44\n      dup3\n      add\n        /* \"#utility.yul\":6853:6910   */\n      mstore\n        /* \"#utility.yul\":6927:6945   */\n      0x64\n      add\n        /* \"contracts/Market.sol\":6262:6389  require(... */\n      tag_84\n        /* \"#utility.yul\":6774:6951   */\n      jump\n        /* \"contracts/Market.sol\":6262:6389  require(... */\n    tag_183:\n        /* \"contracts/Market.sol\":6399:6414  bytes32 betHash */\n      0x00\n        /* \"contracts/Market.sol\":6417:6579  _createBet(... */\n      tag_186\n        /* \"contracts/Market.sol\":6441:6448  _better */\n      dup9\n        /* \"contracts/Market.sol\":6462:6472  _affiliate */\n      dup9\n        /* \"contracts/Market.sol\":6486:6492  _stake */\n      dup9\n        /* \"contracts/Market.sol\":6399:6414  bytes32 betHash */\n      dup5\n        /* \"contracts/Market.sol\":6538:6549  _odds - 100 */\n      tag_187\n        /* \"contracts/Market.sol\":6546:6549  100 */\n      0x64\n        /* \"contracts/Market.sol\":6538:6543  _odds */\n      dup12\n        /* \"contracts/Market.sol\":6538:6549  _odds - 100 */\n      tag_188\n      jump\t// in\n    tag_187:\n        /* \"contracts/Market.sol\":6522:6533  _odds * 100 */\n      tag_189\n        /* \"contracts/Market.sol\":6522:6527  _odds */\n      dup12\n        /* \"contracts/Market.sol\":6530:6533  100 */\n      0x64\n        /* \"contracts/Market.sol\":6522:6533  _odds * 100 */\n      tag_190\n      jump\t// in\n    tag_189:\n        /* \"contracts/Market.sol\":6521:6550  (_odds * 100) / (_odds - 100) */\n      tag_191\n      swap2\n      swap1\n      tag_192\n      jump\t// in\n    tag_191:\n        /* \"contracts/Market.sol\":6564:6569  _side */\n      dup10\n        /* \"contracts/Market.sol\":6417:6427  _createBet */\n      tag_193\n        /* \"contracts/Market.sol\":6417:6579  _createBet(... */\n      jump\t// in\n    tag_186:\n        /* \"contracts/Market.sol\":6825:6829  bets */\n      0x04\n        /* \"contracts/Market.sol\":6825:6836  bets.length */\n      sload\n        /* \"contracts/Market.sol\":6399:6579  bytes32 betHash = _createBet(... */\n      swap1\n      swap2\n      pop\n        /* \"contracts/Market.sol\":6825:6840  bets.length > 0 */\n      iszero\n        /* \"contracts/Market.sol\":6822:8118  if(bets.length > 0){... */\n      tag_194\n      jumpi\n        /* \"contracts/Market.sol\":6913:6917  bets */\n      0x04\n        /* \"contracts/Market.sol\":6913:6924  bets.length */\n      sload\n        /* \"contracts/Market.sol\":6872:6878  _stake */\n      dup7\n      swap1\n        /* \"contracts/Market.sol\":6938:8108  while(_remStake >= app.minStake()){... */\n    tag_195:\n        /* \"contracts/Market.sol\":6957:6960  app */\n      0x0a\n      0x00\n      swap1\n      sload\n      swap1\n      0x0100\n      exp\n      swap1\n      div\n      sub(shl(0xa0, 0x01), 0x01)\n      and\n      sub(shl(0xa0, 0x01), 0x01)\n        /* \"contracts/Market.sol\":6957:6969  app.minStake */\n      and\n      0x375b3c0a\n        /* \"contracts/Market.sol\":6957:6971  app.minStake() */\n      mload(0x40)\n      dup2\n      0xffffffff\n      and\n      0xe0\n      shl\n      dup2\n      mstore\n      0x04\n      add\n      0x20\n      mload(0x40)\n      dup1\n      dup4\n      sub\n      dup2\n      dup7\n      dup1\n      extcodesize\n      iszero\n      dup1\n      iszero\n      tag_197\n      jumpi\n      0x00\n      dup1\n      revert\n    tag_197:\n      pop\n      gas\n      staticcall\n      iszero\n      dup1\n      iszero\n      tag_199\n      jumpi\n      returndatasize\n      0x00\n      dup1\n      returndatacopy\n      revert(0x00, returndatasize)\n    tag_199:\n      pop\n      pop\n      pop\n      pop\n      mload(0x40)\n      returndatasize\n      not(0x1f)\n      0x1f\n      dup3\n      add\n      and\n      dup3\n      add\n      dup1\n      0x40\n      mstore\n      pop\n      dup2\n      add\n      swap1\n      tag_200\n      swap2\n      swap1\n      tag_108\n      jump\t// in\n    tag_200:\n        /* \"contracts/Market.sol\":6944:6953  _remStake */\n      dup3\n        /* \"contracts/Market.sol\":6944:6971  _remStake >= app.minStake() */\n      lt\n        /* \"contracts/Market.sol\":6938:8108  while(_remStake >= app.minStake()){... */\n      tag_196\n      jumpi\n        /* \"contracts/Market.sol\":6990:7008  uint selectedIndex */\n      0x00\n        /* \"contracts/Market.sol\":7030:7045  uint256 maxOdds */\n      dup1\n        /* \"contracts/Market.sol\":7071:7077  uint i */\n      0x00\n        /* \"contracts/Market.sol\":7067:7447  for(uint i = 0; i < betsLength; i++){... */\n    tag_201:\n        /* \"contracts/Market.sol\":7087:7097  betsLength */\n      dup4\n        /* \"contracts/Market.sol\":7083:7084  i */\n      dup2\n        /* \"contracts/Market.sol\":7083:7097  i < betsLength */\n      lt\n        /* \"contracts/Market.sol\":7067:7447  for(uint i = 0; i < betsLength; i++){... */\n      iszero\n      tag_202\n      jumpi\n        /* \"contracts/Market.sol\":7125:7136  bytes32 bet */\n      0x00\n        /* \"contracts/Market.sol\":7139:7143  bets */\n      0x04\n        /* \"contracts/Market.sol\":7144:7145  i */\n      dup3\n        /* \"contracts/Market.sol\":7139:7146  bets[i] */\n      dup2\n      sload\n      dup2\n      lt\n      tag_204\n      jumpi\n      mstore(0x00, shl(0xe0, 0x4e487b71))\n      mstore(0x04, 0x32)\n      revert(0x00, 0x24)\n    tag_204:\n      swap1\n      0x00\n      mstore\n      keccak256(0x00, 0x20)\n      add\n      sload\n        /* \"contracts/Market.sol\":7125:7146  bytes32 bet = bets[i] */\n      swap1\n      pop\n        /* \"contracts/Market.sol\":7180:7188  betsInfo */\n      0x06\n        /* \"contracts/Market.sol\":7180:7193  betsInfo[bet] */\n      0x00\n        /* \"contracts/Market.sol\":7189:7192  bet */\n      dup3\n        /* \"contracts/Market.sol\":7180:7193  betsInfo[bet] */\n      dup2\n      mstore\n      0x20\n      add\n      swap1\n      dup2\n      mstore\n      0x20\n      add\n      0x00\n      keccak256\n        /* \"contracts/Market.sol\":7180:7198  betsInfo[bet].side */\n      0x05\n      add\n      sload\n        /* \"contracts/Market.sol\":7171:7176  _side */\n      dup11\n        /* \"contracts/Market.sol\":7171:7198  _side == betsInfo[bet].side */\n      eq\n        /* \"contracts/Market.sol\":7168:7256  if(_side == betsInfo[bet].side){... */\n      iszero\n      tag_206\n      jumpi\n        /* \"contracts/Market.sol\":7225:7233  continue */\n      pop\n      jump(tag_203)\n        /* \"contracts/Market.sol\":7168:7256  if(_side == betsInfo[bet].side){... */\n    tag_206:\n        /* \"contracts/Market.sol\":7280:7293  betsInfo[bet] */\n      0x00\n      dup2\n      dup2\n      mstore\n        /* \"contracts/Market.sol\":7280:7288  betsInfo */\n      0x06\n        /* \"contracts/Market.sol\":7280:7293  betsInfo[bet] */\n      0x20\n      mstore\n      0x40\n      swap1\n      keccak256\n        /* \"contracts/Market.sol\":7280:7298  betsInfo[bet].odds */\n      0x04\n      add\n      sload\n        /* \"contracts/Market.sol\":7280:7308  betsInfo[bet].odds > maxOdds */\n      dup4\n      lt\n        /* \"contracts/Market.sol\":7277:7429  if(betsInfo[bet].odds > maxOdds){... */\n      iszero\n      tag_207\n      jumpi\n        /* \"contracts/Market.sol\":7345:7358  betsInfo[bet] */\n      0x00\n      dup2\n      dup2\n      mstore\n        /* \"contracts/Market.sol\":7345:7353  betsInfo */\n      0x06\n        /* \"contracts/Market.sol\":7345:7358  betsInfo[bet] */\n      0x20\n      mstore\n      0x40\n      swap1\n      keccak256\n        /* \"contracts/Market.sol\":7345:7363  betsInfo[bet].odds */\n      0x04\n      add\n      sload\n        /* \"contracts/Market.sol\":7405:7406  i */\n      swap2\n      swap4\n      pop\n        /* \"contracts/Market.sol\":7345:7363  betsInfo[bet].odds */\n      swap1\n      swap2\n      pop\n        /* \"contracts/Market.sol\":7405:7406  i */\n      dup3\n      swap1\n        /* \"contracts/Market.sol\":7277:7429  if(betsInfo[bet].odds > maxOdds){... */\n    tag_207:\n        /* \"contracts/Market.sol\":7067:7447  for(uint i = 0; i < betsLength; i++){... */\n      pop\n    tag_203:\n        /* \"contracts/Market.sol\":7099:7102  i++ */\n      dup1\n      tag_208\n      dup2\n      tag_134\n      jump\t// in\n    tag_208:\n      swap2\n      pop\n      pop\n        /* \"contracts/Market.sol\":7067:7447  for(uint i = 0; i < betsLength; i++){... */\n      jump(tag_201)\n    tag_202:\n      pop\n        /* \"contracts/Market.sol\":7464:7484  uint256 betterAmount */\n      0x00\n        /* \"contracts/Market.sol\":7519:7524  _odds */\n      dup10\n        /* \"contracts/Market.sol\":7509:7516  maxOdds */\n      dup3\n        /* \"contracts/Market.sol\":7509:7524  maxOdds > _odds */\n      gt\n        /* \"contracts/Market.sol\":7509:7553  maxOdds > _odds || (maxOdds > 0 && _instant) */\n      dup1\n      tag_210\n      jumpi\n      pop\n        /* \"contracts/Market.sol\":7539:7540  0 */\n      0x00\n        /* \"contracts/Market.sol\":7529:7536  maxOdds */\n      dup3\n        /* \"contracts/Market.sol\":7529:7540  maxOdds > 0 */\n      gt\n        /* \"contracts/Market.sol\":7529:7552  maxOdds > 0 && _instant */\n      dup1\n      iszero\n      tag_210\n      jumpi\n      pop\n        /* \"contracts/Market.sol\":7544:7552  _instant */\n      dup8\n        /* \"contracts/Market.sol\":7529:7552  maxOdds > 0 && _instant */\n    tag_210:\n        /* \"contracts/Market.sol\":7506:8051  if(maxOdds > _odds || (maxOdds > 0 && _instant)) {... */\n      iszero\n      tag_211\n      jumpi\n        /* \"contracts/Market.sol\":7577:7597  bytes32 selectedHash */\n      0x00\n        /* \"contracts/Market.sol\":7600:7604  bets */\n      0x04\n        /* \"contracts/Market.sol\":7605:7618  selectedIndex */\n      dup5\n        /* \"contracts/Market.sol\":7600:7619  bets[selectedIndex] */\n      dup2\n      sload\n      dup2\n      lt\n      tag_212\n      jumpi\n      mstore(0x00, shl(0xe0, 0x4e487b71))\n      mstore(0x04, 0x32)\n      revert(0x00, 0x24)\n    tag_212:\n      0x00\n      swap2\n      dup3\n      mstore\n      0x20\n      dup1\n      dup4\n      keccak256\n      swap1\n      swap2\n      add\n      sload\n        /* \"contracts/Market.sol\":7679:7701  betsInfo[selectedHash] */\n      dup1\n      dup4\n      mstore\n        /* \"contracts/Market.sol\":7679:7687  betsInfo */\n      0x06\n        /* \"contracts/Market.sol\":7679:7701  betsInfo[selectedHash] */\n      dup3\n      mstore\n      0x40\n      dup1\n      dup5\n      keccak256\n        /* \"contracts/Market.sol\":7641:7701  Struct.MarketBet memory selectedBet = betsInfo[selectedHash] */\n      dup2\n      mload\n      0xc0\n      dup2\n      add\n      dup4\n      mstore\n      dup2\n      sload\n      sub(shl(0xa0, 0x01), 0x01)\n      swap1\n      dup2\n      and\n      dup3\n      mstore\n      0x01\n      dup4\n      add\n      sload\n      and\n      swap5\n      dup2\n      add\n      swap5\n      swap1\n      swap5\n      mstore\n      0x02\n      dup2\n      add\n      sload\n      swap2\n      dup5\n      add\n      swap2\n      swap1\n      swap2\n      mstore\n      0x03\n      dup2\n      add\n      sload\n      0x60\n      dup5\n      add\n      mstore\n      0x04\n      dup2\n      add\n      sload\n      0x80\n      dup5\n      add\n      mstore\n      0x05\n      add\n      sload\n      0xa0\n      dup4\n      add\n      mstore\n        /* \"contracts/Market.sol\":7600:7619  bets[selectedIndex] */\n      swap3\n      pop\n        /* \"contracts/Market.sol\":7641:7701  Struct.MarketBet memory selectedBet = betsInfo[selectedHash] */\n      swap1\n        /* \"contracts/Market.sol\":7788:7799  _odds - 100 */\n      tag_214\n        /* \"contracts/Market.sol\":7796:7799  100 */\n      0x64\n        /* \"contracts/Market.sol\":7788:7793  _odds */\n      dup15\n        /* \"contracts/Market.sol\":7788:7799  _odds - 100 */\n      tag_188\n      jump\t// in\n    tag_214:\n        /* \"contracts/Market.sol\":7764:7775  selectedBet */\n      dup3\n        /* \"contracts/Market.sol\":7764:7783  selectedBet.matched */\n      0x60\n      add\n      mload\n        /* \"contracts/Market.sol\":7744:7755  selectedBet */\n      dup4\n        /* \"contracts/Market.sol\":7744:7761  selectedBet.stake */\n      0x40\n      add\n      mload\n        /* \"contracts/Market.sol\":7744:7783  selectedBet.stake - selectedBet.matched */\n      tag_215\n      swap2\n      swap1\n      tag_188\n      jump\t// in\n    tag_215:\n        /* \"contracts/Market.sol\":7743:7800  (selectedBet.stake - selectedBet.matched) / (_odds - 100) */\n      tag_216\n      swap2\n      swap1\n      tag_192\n      jump\t// in\n    tag_216:\n        /* \"contracts/Market.sol\":7723:7800  uint offeredStake = (selectedBet.stake - selectedBet.matched) / (_odds - 100) */\n      swap1\n      pop\n        /* \"contracts/Market.sol\":7822:7841  offeredStake *= 100 */\n      tag_217\n        /* \"contracts/Market.sol\":7838:7841  100 */\n      0x64\n        /* \"contracts/Market.sol\":7723:7800  uint offeredStake = (selectedBet.stake - selectedBet.matched) / (_odds - 100) */\n      dup3\n        /* \"contracts/Market.sol\":7822:7841  offeredStake *= 100 */\n      tag_190\n      jump\t// in\n    tag_217:\n      swap1\n      pop\n        /* \"contracts/Market.sol\":7899:7964  _match(_stake, offeredStake, _odds, _side, betHash, selectedHash) */\n      tag_218\n        /* \"contracts/Market.sol\":7906:7912  _stake */\n      dup15\n        /* \"contracts/Market.sol\":7914:7926  offeredStake */\n      dup3\n        /* \"contracts/Market.sol\":7928:7933  _odds */\n      dup16\n        /* \"contracts/Market.sol\":7935:7940  _side */\n      dup16\n        /* \"contracts/Market.sol\":7942:7949  betHash */\n      dup14\n        /* \"contracts/Market.sol\":7951:7963  selectedHash */\n      dup9\n        /* \"contracts/Market.sol\":7899:7905  _match */\n      tag_219\n        /* \"contracts/Market.sol\":7899:7964  _match(_stake, offeredStake, _odds, _side, betHash, selectedHash) */\n      jump\t// in\n    tag_218:\n        /* \"contracts/Market.sol\":7884:7964  betterAmount = _match(_stake, offeredStake, _odds, _side, betHash, selectedHash) */\n      swap4\n      pop\n        /* \"contracts/Market.sol\":7506:8051  if(maxOdds > _odds || (maxOdds > 0 && _instant)) {... */\n      pop\n      pop\n      pop\n      jump(tag_220)\n    tag_211:\n        /* \"contracts/Market.sol\":8027:8032  break */\n      pop\n      pop\n      pop\n      jump(tag_196)\n        /* \"contracts/Market.sol\":7506:8051  if(maxOdds > _odds || (maxOdds > 0 && _instant)) {... */\n    tag_220:\n        /* \"contracts/Market.sol\":8068:8093  _remStake -= betterAmount */\n      tag_221\n        /* \"contracts/Market.sol\":8081:8093  betterAmount */\n      dup2\n        /* \"contracts/Market.sol\":8068:8093  _remStake -= betterAmount */\n      dup7\n      tag_188\n      jump\t// in\n    tag_221:\n      swap5\n      pop\n        /* \"contracts/Market.sol\":6938:8108  while(_remStake >= app.minStake()){... */\n      pop\n      pop\n      pop\n      jump(tag_195)\n    tag_196:\n        /* \"contracts/Market.sol\":6822:8118  if(bets.length > 0){... */\n      pop\n      pop\n    tag_194:\n        /* \"contracts/Market.sol\":8132:8200  BetCreated(msg.sender, address(this), betHash, _stake, _odds, _side) */\n      0x40\n      dup1\n      mload\n        /* \"contracts/Market.sol\":8143:8153  msg.sender */\n      caller\n        /* \"#utility.yul\":3962:3996   */\n      dup2\n      mstore\n        /* \"contracts/Market.sol\":8163:8167  this */\n      address\n        /* \"#utility.yul\":4027:4029   */\n      0x20\n        /* \"#utility.yul\":4012:4030   */\n      dup3\n      add\n        /* \"#utility.yul\":4005:4048   */\n      mstore\n        /* \"#utility.yul\":4064:4082   */\n      swap1\n      dup2\n      add\n        /* \"#utility.yul\":4057:4091   */\n      dup3\n      swap1\n      mstore\n        /* \"#utility.yul\":4122:4124   */\n      0x60\n        /* \"#utility.yul\":4107:4125   */\n      dup2\n      add\n        /* \"#utility.yul\":4100:4134   */\n      dup8\n      swap1\n      mstore\n        /* \"#utility.yul\":4165:4168   */\n      0x80\n        /* \"#utility.yul\":4150:4169   */\n      dup2\n      add\n        /* \"#utility.yul\":4143:4178   */\n      dup7\n      swap1\n      mstore\n        /* \"#utility.yul\":3942:3945   */\n      0xa0\n        /* \"#utility.yul\":4194:4213   */\n      dup2\n      add\n        /* \"#utility.yul\":4187:4222   */\n      dup6\n      swap1\n      mstore\n        /* \"contracts/Market.sol\":8132:8200  BetCreated(msg.sender, address(this), betHash, _stake, _odds, _side) */\n      0x618f358bb45538682ade624a4a1959053d9dabd20fe300508034b879681b37be\n      swap1\n        /* \"#utility.yul\":3911:3914   */\n      0xc0\n        /* \"#utility.yul\":3896:3915   */\n      add\n        /* \"contracts/Market.sol\":8132:8200  BetCreated(msg.sender, address(this), betHash, _stake, _odds, _side) */\n      mload(0x40)\n      dup1\n      swap2\n      sub\n      swap1\n      log1\n        /* \"contracts/Market.sol\":8217:8224  betHash */\n      swap8\n        /* \"contracts/Market.sol\":5623:8231  function addBet(... */\n      swap7\n      pop\n      pop\n      pop\n      pop\n      pop\n      pop\n      pop\n      jump\t// out\n        /* \"contracts/Market.sol\":2815:3204  function withdrawPending(bytes32 _bet) public override {... */\n    tag_59:\n        /* \"contracts/Market.sol\":2880:2907  Struct.MarketBet memory bet */\n      0x00\n        /* \"contracts/Market.sol\":2910:2924  betsInfo[_bet] */\n      dup2\n      dup2\n      mstore\n        /* \"contracts/Market.sol\":2910:2918  betsInfo */\n      0x06\n        /* \"contracts/Market.sol\":2910:2924  betsInfo[_bet] */\n      0x20\n      swap1\n      dup2\n      mstore\n      0x40\n      swap2\n      dup3\n      swap1\n      keccak256\n        /* \"contracts/Market.sol\":2880:2924  Struct.MarketBet memory bet = betsInfo[_bet] */\n      dup3\n      mload\n      0xc0\n      dup2\n      add\n      dup5\n      mstore\n      dup2\n      sload\n      sub(shl(0xa0, 0x01), 0x01)\n      swap1\n      dup2\n      and\n      dup1\n      dup4\n      mstore\n      0x01\n      dup5\n      add\n      sload\n      swap1\n      swap2\n      and\n      swap4\n      dup3\n      add\n      swap4\n      swap1\n      swap4\n      mstore\n      0x02\n      dup3\n      add\n      sload\n      swap4\n      dup2\n      add\n      swap4\n      swap1\n      swap4\n      mstore\n      0x03\n      dup2\n      add\n      sload\n      0x60\n      dup5\n      add\n      mstore\n      0x04\n      dup2\n      add\n      sload\n      0x80\n      dup5\n      add\n      mstore\n      0x05\n      add\n      sload\n      0xa0\n      dup4\n      add\n      mstore\n        /* \"contracts/Market.sol\":2942:2952  msg.sender */\n      caller\n        /* \"contracts/Market.sol\":2942:2966  msg.sender == bet.better */\n      eq\n        /* \"contracts/Market.sol\":2934:2990  require(msg.sender == bet.better, \"unauthorized caller\") */\n      tag_225\n      jumpi\n      mload(0x40)\n      shl(0xe5, 0x461bcd)\n      dup2\n      mstore\n        /* \"#utility.yul\":7158:7160   */\n      0x20\n        /* \"contracts/Market.sol\":2934:2990  require(msg.sender == bet.better, \"unauthorized caller\") */\n      0x04\n      dup3\n      add\n        /* \"#utility.yul\":7140:7161   */\n      mstore\n        /* \"#utility.yul\":7197:7199   */\n      0x13\n        /* \"#utility.yul\":7177:7195   */\n      0x24\n      dup3\n      add\n        /* \"#utility.yul\":7170:7200   */\n      mstore\n      shl(0x69, 0x3ab730baba3437b934bd32b21031b0b63632b9)\n        /* \"#utility.yul\":7216:7234   */\n      0x44\n      dup3\n      add\n        /* \"#utility.yul\":7209:7258   */\n      mstore\n        /* \"#utility.yul\":7275:7293   */\n      0x64\n      add\n        /* \"contracts/Market.sol\":2934:2990  require(msg.sender == bet.better, \"unauthorized caller\") */\n      tag_84\n        /* \"#utility.yul\":7130:7299   */\n      jump\n        /* \"contracts/Market.sol\":2934:2990  require(msg.sender == bet.better, \"unauthorized caller\") */\n    tag_225:\n        /* \"contracts/Market.sol\":3000:3013  uint remStake */\n      0x00\n        /* \"contracts/Market.sol\":3028:3031  bet */\n      dup2\n        /* \"contracts/Market.sol\":3028:3039  bet.matched */\n      0x60\n      add\n      mload\n        /* \"contracts/Market.sol\":3016:3019  bet */\n      dup3\n        /* \"contracts/Market.sol\":3016:3025  bet.stake */\n      0x40\n      add\n      mload\n        /* \"contracts/Market.sol\":3016:3039  bet.stake - bet.matched */\n      tag_227\n      swap2\n      swap1\n      tag_188\n      jump\t// in\n    tag_227:\n        /* \"contracts/Market.sol\":3053:3063  bet.better */\n      dup3\n      mload\n      sub(shl(0xa0, 0x01), 0x01)\n        /* \"contracts/Market.sol\":3049:3064  bal[bet.better] */\n      and\n      0x00\n      swap1\n      dup2\n      mstore\n        /* \"contracts/Market.sol\":3049:3052  bal */\n      0x05\n        /* \"contracts/Market.sol\":3049:3064  bal[bet.better] */\n      0x20\n      mstore\n      0x40\n      dup2\n      keccak256\n        /* \"contracts/Market.sol\":3049:3076  bal[bet.better] += remStake */\n      dup1\n      sload\n        /* \"contracts/Market.sol\":3000:3039  uint remStake = bet.stake - bet.matched */\n      swap3\n      swap4\n      pop\n      dup4\n      swap3\n        /* \"contracts/Market.sol\":3049:3064  bal[bet.better] */\n      swap1\n      swap2\n      swap1\n        /* \"contracts/Market.sol\":3049:3076  bal[bet.better] += remStake */\n      tag_228\n      swap1\n        /* \"contracts/Market.sol\":3000:3039  uint remStake = bet.stake - bet.matched */\n      dup5\n      swap1\n        /* \"contracts/Market.sol\":3049:3076  bal[bet.better] += remStake */\n      tag_229\n      jump\t// in\n    tag_228:\n      swap1\n      swap2\n      sstore\n      pop\n      pop\n        /* \"contracts/Market.sol\":3111:3120  bet.stake */\n      0x40\n      dup1\n      dup4\n      add\n      mload\n        /* \"contracts/Market.sol\":3086:3100  betsInfo[_bet] */\n      0x00\n      dup6\n      dup2\n      mstore\n        /* \"contracts/Market.sol\":3086:3094  betsInfo */\n      0x06\n        /* \"contracts/Market.sol\":3086:3100  betsInfo[_bet] */\n      0x20\n      swap1\n      dup2\n      mstore\n      dup4\n      dup3\n      keccak256\n        /* \"contracts/Market.sol\":3086:3108  betsInfo[_bet].matched */\n      0x03\n      add\n        /* \"contracts/Market.sol\":3086:3120  betsInfo[_bet].matched = bet.stake */\n      swap3\n      swap1\n      swap3\n      sstore\n        /* \"contracts/Market.sol\":3137:3147  msg.sender */\n      caller\n        /* \"contracts/Market.sol\":3133:3148  bal[msg.sender] */\n      dup2\n      mstore\n        /* \"contracts/Market.sol\":3133:3136  bal */\n      0x05\n        /* \"contracts/Market.sol\":3133:3148  bal[msg.sender] */\n      swap1\n      swap2\n      mstore\n      keccak256\n      sload\n        /* \"contracts/Market.sol\":3133:3152  bal[msg.sender] > 0 */\n      iszero\n        /* \"contracts/Market.sol\":3130:3198  if(bal[msg.sender] > 0){... */\n      tag_135\n      jumpi\n        /* \"contracts/Market.sol\":3167:3187  withdraw(msg.sender) */\n      tag_136\n        /* \"contracts/Market.sol\":3176:3186  msg.sender */\n      caller\n        /* \"contracts/Market.sol\":3167:3175  withdraw */\n      tag_42\n        /* \"contracts/Market.sol\":3167:3187  withdraw(msg.sender) */\n      jump\t// in\n        /* \"contracts/Market.sol\":4378:4789  function settle(uint256 _winningSide)... */\n    tag_63:\n        /* \"contracts/Market.sol\":1083:1086  app */\n      sload(0x0a)\n        /* \"contracts/Market.sol\":1083:1113  app.getEventOwner(marketEvent) */\n      mload(0x40)\n      shl(0xe3, 0x1e558333)\n      dup2\n      mstore\n        /* \"contracts/Market.sol\":1101:1112  marketEvent */\n      immutable(\"0x535306ee4b42c92aecd0e71fca98572064f049c2babb2769faa3bbd87d67ec2d\")\n        /* \"contracts/Market.sol\":1083:1113  app.getEventOwner(marketEvent) */\n      0x04\n      dup3\n      add\n        /* \"#utility.yul\":5870:5895   */\n      mstore\n        /* \"contracts/Market.sol\":4486:4490  bool */\n      0x00\n      swap2\n      sub(shl(0xa0, 0x01), 0x01)\n        /* \"contracts/Market.sol\":1083:1086  app */\n      and\n      swap1\n        /* \"contracts/Market.sol\":1083:1100  app.getEventOwner */\n      0xf2ac1998\n      swap1\n        /* \"#utility.yul\":5843:5861   */\n      0x24\n      add\n        /* \"contracts/Market.sol\":1083:1113  app.getEventOwner(marketEvent) */\n      0x20\n      mload(0x40)\n      dup1\n      dup4\n      sub\n      dup2\n      dup7\n      dup1\n      extcodesize\n      iszero\n      dup1\n      iszero\n      tag_234\n      jumpi\n      0x00\n      dup1\n      revert\n    tag_234:\n      pop\n      gas\n      staticcall\n      iszero\n      dup1\n      iszero\n      tag_236\n      jumpi\n      returndatasize\n      0x00\n      dup1\n      returndatacopy\n      revert(0x00, returndatasize)\n    tag_236:\n      pop\n      pop\n      pop\n      pop\n      mload(0x40)\n      returndatasize\n      not(0x1f)\n      0x1f\n      dup3\n      add\n      and\n      dup3\n      add\n      dup1\n      0x40\n      mstore\n      pop\n      dup2\n      add\n      swap1\n      tag_237\n      swap2\n      swap1\n      tag_238\n      jump\t// in\n    tag_237:\n      sub(shl(0xa0, 0x01), 0x01)\n        /* \"contracts/Market.sol\":1069:1113  msg.sender == app.getEventOwner(marketEvent) */\n      and\n        /* \"contracts/Market.sol\":1069:1079  msg.sender */\n      caller\n      sub(shl(0xa0, 0x01), 0x01)\n        /* \"contracts/Market.sol\":1069:1113  msg.sender == app.getEventOwner(marketEvent) */\n      and\n      eq\n        /* \"contracts/Market.sol\":1069:1138  msg.sender == app.getEventOwner(marketEvent) || msg.sender == factory */\n      dup1\n      tag_239\n      jumpi\n      pop\n        /* \"contracts/Market.sol\":1131:1138  factory */\n      and(sub(shl(0xa0, 0x01), 0x01), sload(0x01))\n        /* \"contracts/Market.sol\":1117:1127  msg.sender */\n      caller\n        /* \"contracts/Market.sol\":1117:1138  msg.sender == factory */\n      eq\n        /* \"contracts/Market.sol\":1069:1138  msg.sender == app.getEventOwner(marketEvent) || msg.sender == factory */\n    tag_239:\n        /* \"contracts/Market.sol\":1048:1185  require(... */\n      tag_240\n      jumpi\n      mload(0x40)\n      shl(0xe5, 0x461bcd)\n      dup2\n      mstore\n      0x04\n      add\n      tag_84\n      swap1\n      tag_242\n      jump\t// in\n    tag_240:\n        /* \"contracts/Market.sol\":4509:4537  setWinningSide(_winningSide) */\n      tag_244\n        /* \"contracts/Market.sol\":4524:4536  _winningSide */\n      dup3\n        /* \"contracts/Market.sol\":4509:4523  setWinningSide */\n      tag_73\n        /* \"contracts/Market.sol\":4509:4537  setWinningSide(_winningSide) */\n      jump\t// in\n    tag_244:\n        /* \"contracts/Market.sol\":4506:4774  if(setWinningSide(_winningSide)){... */\n      iszero\n      tag_245\n      jumpi\n        /* \"contracts/Market.sol\":4571:4576  pairs */\n      0x03\n        /* \"contracts/Market.sol\":4571:4583  pairs.length */\n      sload\n        /* \"contracts/Market.sol\":4552:4568  uint pairsLength */\n      0x00\n        /* \"contracts/Market.sol\":4597:4688  for(uint i = 0; i < pairsLength; i++){... */\n    tag_246:\n        /* \"contracts/Market.sol\":4617:4628  pairsLength */\n      dup2\n        /* \"contracts/Market.sol\":4613:4614  i */\n      dup2\n        /* \"contracts/Market.sol\":4613:4628  i < pairsLength */\n      lt\n        /* \"contracts/Market.sol\":4597:4688  for(uint i = 0; i < pairsLength; i++){... */\n      iszero\n      tag_247\n      jumpi\n        /* \"contracts/Market.sol\":4652:4673  _settlePair(pairs[i]) */\n      tag_249\n        /* \"contracts/Market.sol\":4664:4669  pairs */\n      0x03\n        /* \"contracts/Market.sol\":4670:4671  i */\n      dup3\n        /* \"contracts/Market.sol\":4664:4672  pairs[i] */\n      dup2\n      sload\n      dup2\n      lt\n      tag_250\n      jumpi\n      mstore(0x00, shl(0xe0, 0x4e487b71))\n      mstore(0x04, 0x32)\n      revert(0x00, 0x24)\n    tag_250:\n      swap1\n      0x00\n      mstore\n      keccak256(0x00, 0x20)\n      add\n      sload\n        /* \"contracts/Market.sol\":4652:4663  _settlePair */\n      tag_132\n        /* \"contracts/Market.sol\":4652:4673  _settlePair(pairs[i]) */\n      jump\t// in\n    tag_249:\n      pop\n        /* \"contracts/Market.sol\":4630:4633  i++ */\n      dup1\n      tag_252\n      dup2\n      tag_134\n      jump\t// in\n    tag_252:\n      swap2\n      pop\n      pop\n        /* \"contracts/Market.sol\":4597:4688  for(uint i = 0; i < pairsLength; i++){... */\n      jump(tag_246)\n    tag_247:\n      pop\n        /* \"contracts/Market.sol\":4708:4712  true */\n      0x01\n      swap4\n        /* \"contracts/Market.sol\":4378:4789  function settle(uint256 _winningSide)... */\n      swap3\n      pop\n      pop\n      pop\n      jump\t// out\n        /* \"contracts/Market.sol\":4506:4774  if(setWinningSide(_winningSide)){... */\n    tag_245:\n      pop\n        /* \"contracts/Market.sol\":4758:4763  false */\n      0x00\n        /* \"contracts/Market.sol\":4378:4789  function settle(uint256 _winningSide)... */\n      swap2\n      swap1\n      pop\n      jump\t// out\n        /* \"contracts/Market.sol\":5026:5409  function cancelPlusPairs() external override onlyFactory returns(bool) ... */\n    tag_66:\n        /* \"contracts/Market.sol\":1083:1086  app */\n      sload(0x0a)\n        /* \"contracts/Market.sol\":1083:1113  app.getEventOwner(marketEvent) */\n      mload(0x40)\n      shl(0xe3, 0x1e558333)\n      dup2\n      mstore\n        /* \"contracts/Market.sol\":1101:1112  marketEvent */\n      immutable(\"0x535306ee4b42c92aecd0e71fca98572064f049c2babb2769faa3bbd87d67ec2d\")\n        /* \"contracts/Market.sol\":1083:1113  app.getEventOwner(marketEvent) */\n      0x04\n      dup3\n      add\n        /* \"#utility.yul\":5870:5895   */\n      mstore\n        /* \"contracts/Market.sol\":5091:5095  bool */\n      0x00\n      swap2\n      sub(shl(0xa0, 0x01), 0x01)\n        /* \"contracts/Market.sol\":1083:1086  app */\n      and\n      swap1\n        /* \"contracts/Market.sol\":1083:1100  app.getEventOwner */\n      0xf2ac1998\n      swap1\n        /* \"#utility.yul\":5843:5861   */\n      0x24\n      add\n        /* \"contracts/Market.sol\":1083:1113  app.getEventOwner(marketEvent) */\n      0x20\n      mload(0x40)\n      dup1\n      dup4\n      sub\n      dup2\n      dup7\n      dup1\n      extcodesize\n      iszero\n      dup1\n      iszero\n      tag_256\n      jumpi\n      0x00\n      dup1\n      revert\n    tag_256:\n      pop\n      gas\n      staticcall\n      iszero\n      dup1\n      iszero\n      tag_258\n      jumpi\n      returndatasize\n      0x00\n      dup1\n      returndatacopy\n      revert(0x00, returndatasize)\n    tag_258:\n      pop\n      pop\n      pop\n      pop\n      mload(0x40)\n      returndatasize\n      not(0x1f)\n      0x1f\n      dup3\n      add\n      and\n      dup3\n      add\n      dup1\n      0x40\n      mstore\n      pop\n      dup2\n      add\n      swap1\n      tag_259\n      swap2\n      swap1\n      tag_238\n      jump\t// in\n    tag_259:\n      sub(shl(0xa0, 0x01), 0x01)\n        /* \"contracts/Market.sol\":1069:1113  msg.sender == app.getEventOwner(marketEvent) */\n      and\n        /* \"contracts/Market.sol\":1069:1079  msg.sender */\n      caller\n      sub(shl(0xa0, 0x01), 0x01)\n        /* \"contracts/Market.sol\":1069:1113  msg.sender == app.getEventOwner(marketEvent) */\n      and\n      eq\n        /* \"contracts/Market.sol\":1069:1138  msg.sender == app.getEventOwner(marketEvent) || msg.sender == factory */\n      dup1\n      tag_260\n      jumpi\n      pop\n        /* \"contracts/Market.sol\":1131:1138  factory */\n      and(sub(shl(0xa0, 0x01), 0x01), sload(0x01))\n        /* \"contracts/Market.sol\":1117:1127  msg.sender */\n      caller\n        /* \"contracts/Market.sol\":1117:1138  msg.sender == factory */\n      eq\n        /* \"contracts/Market.sol\":1069:1138  msg.sender == app.getEventOwner(marketEvent) || msg.sender == factory */\n    tag_260:\n        /* \"contracts/Market.sol\":1048:1185  require(... */\n      tag_261\n      jumpi\n      mload(0x40)\n      shl(0xe5, 0x461bcd)\n      dup2\n      mstore\n      0x04\n      add\n      tag_84\n      swap1\n      tag_242\n      jump\t// in\n    tag_261:\n        /* \"contracts/Market.sol\":5116:5122  status */\n      sload(0x02)\n        /* \"contracts/Market.sol\":5116:5127  status == 0 */\n      iszero\n      dup1\n        /* \"contracts/Market.sol\":5116:5142  status == 0 || status == 4 */\n      tag_264\n      jumpi\n      pop\n        /* \"contracts/Market.sol\":5131:5137  status */\n      sload(0x02)\n        /* \"contracts/Market.sol\":5141:5142  4 */\n      0x04\n        /* \"contracts/Market.sol\":5131:5142  status == 4 */\n      eq\n        /* \"contracts/Market.sol\":5116:5142  status == 0 || status == 4 */\n    tag_264:\n        /* \"contracts/Market.sol\":5113:5403  if(status == 0 || status == 4){... */\n      iszero\n      tag_265\n      jumpi\n        /* \"contracts/Market.sol\":5176:5181  pairs */\n      0x03\n        /* \"contracts/Market.sol\":5176:5188  pairs.length */\n      sload\n        /* \"contracts/Market.sol\":5157:5173  uint pairsLength */\n      0x00\n        /* \"contracts/Market.sol\":5202:5293  for(uint i = 0; i < pairsLength; i++){... */\n    tag_266:\n        /* \"contracts/Market.sol\":5222:5233  pairsLength */\n      dup2\n        /* \"contracts/Market.sol\":5218:5219  i */\n      dup2\n        /* \"contracts/Market.sol\":5218:5233  i < pairsLength */\n      lt\n        /* \"contracts/Market.sol\":5202:5293  for(uint i = 0; i < pairsLength; i++){... */\n      iszero\n      tag_267\n      jumpi\n        /* \"contracts/Market.sol\":5257:5278  _cancelPair(pairs[i]) */\n      tag_269\n        /* \"contracts/Market.sol\":5269:5274  pairs */\n      0x03\n        /* \"contracts/Market.sol\":5275:5276  i */\n      dup3\n        /* \"contracts/Market.sol\":5269:5277  pairs[i] */\n      dup2\n      sload\n      dup2\n      lt\n      tag_270\n      jumpi\n      mstore(0x00, shl(0xe0, 0x4e487b71))\n      mstore(0x04, 0x32)\n      revert(0x00, 0x24)\n    tag_270:\n      swap1\n      0x00\n      mstore\n      keccak256(0x00, 0x20)\n      add\n      sload\n        /* \"contracts/Market.sol\":5257:5268  _cancelPair */\n      tag_272\n        /* \"contracts/Market.sol\":5257:5278  _cancelPair(pairs[i]) */\n      jump\t// in\n    tag_269:\n        /* \"contracts/Market.sol\":5235:5238  i++ */\n      dup1\n      tag_273\n      dup2\n      tag_134\n      jump\t// in\n    tag_273:\n      swap2\n      pop\n      pop\n        /* \"contracts/Market.sol\":5202:5293  for(uint i = 0; i < pairsLength; i++){... */\n      jump(tag_266)\n    tag_267:\n      pop\n      pop\n        /* \"contracts/Market.sol\":5315:5316  3 */\n      0x03\n        /* \"contracts/Market.sol\":5306:5312  status */\n      0x02\n        /* \"contracts/Market.sol\":5306:5316  status = 3 */\n      sstore\n      pop\n        /* \"contracts/Market.sol\":5337:5341  true */\n      0x01\n        /* \"contracts/Market.sol\":5026:5409  function cancelPlusPairs() external override onlyFactory returns(bool) ... */\n      swap1\n      jump\t// out\n        /* \"contracts/Market.sol\":5113:5403  if(status == 0 || status == 4){... */\n    tag_265:\n      pop\n        /* \"contracts/Market.sol\":5387:5392  false */\n      0x00\n        /* \"contracts/Market.sol\":5026:5409  function cancelPlusPairs() external override onlyFactory returns(bool) ... */\n      swap1\n      jump\t// out\n        /* \"contracts/Market.sol\":5415:5617  function start() external override onlyFactory returns(bool){... */\n    tag_69:\n        /* \"contracts/Market.sol\":1083:1086  app */\n      sload(0x0a)\n        /* \"contracts/Market.sol\":1083:1113  app.getEventOwner(marketEvent) */\n      mload(0x40)\n      shl(0xe3, 0x1e558333)\n      dup2\n      mstore\n        /* \"contracts/Market.sol\":1101:1112  marketEvent */\n      immutable(\"0x535306ee4b42c92aecd0e71fca98572064f049c2babb2769faa3bbd87d67ec2d\")\n        /* \"contracts/Market.sol\":1083:1113  app.getEventOwner(marketEvent) */\n      0x04\n      dup3\n      add\n        /* \"#utility.yul\":5870:5895   */\n      mstore\n        /* \"contracts/Market.sol\":5470:5474  bool */\n      0x00\n      swap2\n      sub(shl(0xa0, 0x01), 0x01)\n        /* \"contracts/Market.sol\":1083:1086  app */\n      and\n      swap1\n        /* \"contracts/Market.sol\":1083:1100  app.getEventOwner */\n      0xf2ac1998\n      swap1\n        /* \"#utility.yul\":5843:5861   */\n      0x24\n      add\n        /* \"contracts/Market.sol\":1083:1113  app.getEventOwner(marketEvent) */\n      0x20\n      mload(0x40)\n      dup1\n      dup4\n      sub\n      dup2\n      dup7\n      dup1\n      extcodesize\n      iszero\n      dup1\n      iszero\n      tag_277\n      jumpi\n      0x00\n      dup1\n      revert\n    tag_277:\n      pop\n      gas\n      staticcall\n      iszero\n      dup1\n      iszero\n      tag_279\n      jumpi\n      returndatasize\n      0x00\n      dup1\n      returndatacopy\n      revert(0x00, returndatasize)\n    tag_279:\n      pop\n      pop\n      pop\n      pop\n      mload(0x40)\n      returndatasize\n      not(0x1f)\n      0x1f\n      dup3\n      add\n      and\n      dup3\n      add\n      dup1\n      0x40\n      mstore\n      pop\n      dup2\n      add\n      swap1\n      tag_280\n      swap2\n      swap1\n      tag_238\n      jump\t// in\n    tag_280:\n      sub(shl(0xa0, 0x01), 0x01)\n        /* \"contracts/Market.sol\":1069:1113  msg.sender == app.getEventOwner(marketEvent) */\n      and\n        /* \"contracts/Market.sol\":1069:1079  msg.sender */\n      caller\n      sub(shl(0xa0, 0x01), 0x01)\n        /* \"contracts/Market.sol\":1069:1113  msg.sender == app.getEventOwner(marketEvent) */\n      and\n      eq\n        /* \"contracts/Market.sol\":1069:1138  msg.sender == app.getEventOwner(marketEvent) || msg.sender == factory */\n      dup1\n      tag_281\n      jumpi\n      pop\n        /* \"contracts/Market.sol\":1131:1138  factory */\n      and(sub(shl(0xa0, 0x01), 0x01), sload(0x01))\n        /* \"contracts/Market.sol\":1117:1127  msg.sender */\n      caller\n        /* \"contracts/Market.sol\":1117:1138  msg.sender == factory */\n      eq\n        /* \"contracts/Market.sol\":1069:1138  msg.sender == app.getEventOwner(marketEvent) || msg.sender == factory */\n    tag_281:\n        /* \"contracts/Market.sol\":1048:1185  require(... */\n      tag_282\n      jumpi\n      mload(0x40)\n      shl(0xe5, 0x461bcd)\n      dup2\n      mstore\n      0x04\n      add\n      tag_84\n      swap1\n      tag_242\n      jump\t// in\n    tag_282:\n        /* \"contracts/Market.sol\":5488:5494  status */\n      sload(0x02)\n        /* \"contracts/Market.sol\":5485:5611  if(status == 0){... */\n      tag_265\n      jumpi\n      pop\n        /* \"contracts/Market.sol\":5523:5524  4 */\n      0x04\n        /* \"contracts/Market.sol\":5514:5520  status */\n      0x02\n        /* \"contracts/Market.sol\":5514:5524  status = 4 */\n      sstore\n        /* \"contracts/Market.sol\":5545:5549  true */\n      0x01\n        /* \"contracts/Market.sol\":5026:5409  function cancelPlusPairs() external override onlyFactory returns(bool) ... */\n      swap1\n      jump\t// out\n        /* \"contracts/Market.sol\":3964:4311  function setWinningSide(uint256 _winningSide)... */\n    tag_73:\n        /* \"contracts/Market.sol\":1083:1086  app */\n      sload(0x0a)\n        /* \"contracts/Market.sol\":1083:1113  app.getEventOwner(marketEvent) */\n      mload(0x40)\n      shl(0xe3, 0x1e558333)\n      dup2\n      mstore\n        /* \"contracts/Market.sol\":1101:1112  marketEvent */\n      immutable(\"0x535306ee4b42c92aecd0e71fca98572064f049c2babb2769faa3bbd87d67ec2d\")\n        /* \"contracts/Market.sol\":1083:1113  app.getEventOwner(marketEvent) */\n      0x04\n      dup3\n      add\n        /* \"#utility.yul\":5870:5895   */\n      mstore\n        /* \"contracts/Market.sol\":4078:4082  bool */\n      0x00\n      swap2\n      sub(shl(0xa0, 0x01), 0x01)\n        /* \"contracts/Market.sol\":1083:1086  app */\n      and\n      swap1\n        /* \"contracts/Market.sol\":1083:1100  app.getEventOwner */\n      0xf2ac1998\n      swap1\n        /* \"#utility.yul\":5843:5861   */\n      0x24\n      add\n        /* \"contracts/Market.sol\":1083:1113  app.getEventOwner(marketEvent) */\n      0x20\n      mload(0x40)\n      dup1\n      dup4\n      sub\n      dup2\n      dup7\n      dup1\n      extcodesize\n      iszero\n      dup1\n      iszero\n      tag_289\n      jumpi\n      0x00\n      dup1\n      revert\n    tag_289:\n      pop\n      gas\n      staticcall\n      iszero\n      dup1\n      iszero\n      tag_291\n      jumpi\n      returndatasize\n      0x00\n      dup1\n      returndatacopy\n      revert(0x00, returndatasize)\n    tag_291:\n      pop\n      pop\n      pop\n      pop\n      mload(0x40)\n      returndatasize\n      not(0x1f)\n      0x1f\n      dup3\n      add\n      and\n      dup3\n      add\n      dup1\n      0x40\n      mstore\n      pop\n      dup2\n      add\n      swap1\n      tag_292\n      swap2\n      swap1\n      tag_238\n      jump\t// in\n    tag_292:\n      sub(shl(0xa0, 0x01), 0x01)\n        /* \"contracts/Market.sol\":1069:1113  msg.sender == app.getEventOwner(marketEvent) */\n      and\n        /* \"contracts/Market.sol\":1069:1079  msg.sender */\n      caller\n      sub(shl(0xa0, 0x01), 0x01)\n        /* \"contracts/Market.sol\":1069:1113  msg.sender == app.getEventOwner(marketEvent) */\n      and\n      eq\n        /* \"contracts/Market.sol\":1069:1138  msg.sender == app.getEventOwner(marketEvent) || msg.sender == factory */\n      dup1\n      tag_293\n      jumpi\n      pop\n        /* \"contracts/Market.sol\":1131:1138  factory */\n      and(sub(shl(0xa0, 0x01), 0x01), sload(0x01))\n        /* \"contracts/Market.sol\":1117:1127  msg.sender */\n      caller\n        /* \"contracts/Market.sol\":1117:1138  msg.sender == factory */\n      eq\n        /* \"contracts/Market.sol\":1069:1138  msg.sender == app.getEventOwner(marketEvent) || msg.sender == factory */\n    tag_293:\n        /* \"contracts/Market.sol\":1048:1185  require(... */\n      tag_294\n      jumpi\n      mload(0x40)\n      shl(0xe5, 0x461bcd)\n      dup2\n      mstore\n      0x04\n      add\n      tag_84\n      swap1\n      tag_242\n      jump\t// in\n    tag_294:\n        /* \"contracts/Market.sol\":4102:4108  status */\n      sload(0x02)\n        /* \"contracts/Market.sol\":4102:4113  status == 0 */\n      iszero\n      dup1\n        /* \"contracts/Market.sol\":4102:4128  status == 0 || status == 4 */\n      tag_297\n      jumpi\n      pop\n        /* \"contracts/Market.sol\":4117:4123  status */\n      sload(0x02)\n        /* \"contracts/Market.sol\":4127:4128  4 */\n      0x04\n        /* \"contracts/Market.sol\":4117:4128  status == 4 */\n      eq\n        /* \"contracts/Market.sol\":4102:4128  status == 0 || status == 4 */\n    tag_297:\n        /* \"contracts/Market.sol\":4101:4173  (status == 0 || status == 4) && (_winningSide == 1 || _winningSide == 2) */\n      dup1\n      iszero\n      tag_299\n      jumpi\n      pop\n        /* \"contracts/Market.sol\":4134:4146  _winningSide */\n      dup2\n        /* \"contracts/Market.sol\":4150:4151  1 */\n      0x01\n        /* \"contracts/Market.sol\":4134:4151  _winningSide == 1 */\n      eq\n        /* \"contracts/Market.sol\":4134:4172  _winningSide == 1 || _winningSide == 2 */\n      dup1\n      tag_299\n      jumpi\n      pop\n        /* \"contracts/Market.sol\":4155:4167  _winningSide */\n      dup2\n        /* \"contracts/Market.sol\":4171:4172  2 */\n      0x02\n        /* \"contracts/Market.sol\":4155:4172  _winningSide == 2 */\n      eq\n        /* \"contracts/Market.sol\":4134:4172  _winningSide == 1 || _winningSide == 2 */\n    tag_299:\n        /* \"contracts/Market.sol\":4098:4296  if((status == 0 || status == 4) && (_winningSide == 1 || _winningSide == 2)){... */\n      iszero\n      tag_245\n      jumpi\n      pop\n        /* \"contracts/Market.sol\":4188:4194  status */\n      0x02\n        /* \"contracts/Market.sol\":4188:4209  status = _winningSide */\n      sstore\n        /* \"contracts/Market.sol\":4230:4234  true */\n      0x01\n      swap1\n        /* \"contracts/Market.sol\":4378:4789  function settle(uint256 _winningSide)... */\n      jump\t// out\n        /* \"contracts/Market.sol\":4795:5020  function cancel() external override onlyFactory returns(bool) ... */\n    tag_76:\n        /* \"contracts/Market.sol\":1083:1086  app */\n      sload(0x0a)\n        /* \"contracts/Market.sol\":1083:1113  app.getEventOwner(marketEvent) */\n      mload(0x40)\n      shl(0xe3, 0x1e558333)\n      dup2\n      mstore\n        /* \"contracts/Market.sol\":1101:1112  marketEvent */\n      immutable(\"0x535306ee4b42c92aecd0e71fca98572064f049c2babb2769faa3bbd87d67ec2d\")\n        /* \"contracts/Market.sol\":1083:1113  app.getEventOwner(marketEvent) */\n      0x04\n      dup3\n      add\n        /* \"#utility.yul\":5870:5895   */\n      mstore\n        /* \"contracts/Market.sol\":4851:4855  bool */\n      0x00\n      swap2\n      sub(shl(0xa0, 0x01), 0x01)\n        /* \"contracts/Market.sol\":1083:1086  app */\n      and\n      swap1\n        /* \"contracts/Market.sol\":1083:1100  app.getEventOwner */\n      0xf2ac1998\n      swap1\n        /* \"#utility.yul\":5843:5861   */\n      0x24\n      add\n        /* \"contracts/Market.sol\":1083:1113  app.getEventOwner(marketEvent) */\n      0x20\n      mload(0x40)\n      dup1\n      dup4\n      sub\n      dup2\n      dup7\n      dup1\n      extcodesize\n      iszero\n      dup1\n      iszero\n      tag_304\n      jumpi\n      0x00\n      dup1\n      revert\n    tag_304:\n      pop\n      gas\n      staticcall\n      iszero\n      dup1\n      iszero\n      tag_306\n      jumpi\n      returndatasize\n      0x00\n      dup1\n      returndatacopy\n      revert(0x00, returndatasize)\n    tag_306:\n      pop\n      pop\n      pop\n      pop\n      mload(0x40)\n      returndatasize\n      not(0x1f)\n      0x1f\n      dup3\n      add\n      and\n      dup3\n      add\n      dup1\n      0x40\n      mstore\n      pop\n      dup2\n      add\n      swap1\n      tag_307\n      swap2\n      swap1\n      tag_238\n      jump\t// in\n    tag_307:\n      sub(shl(0xa0, 0x01), 0x01)\n        /* \"contracts/Market.sol\":1069:1113  msg.sender == app.getEventOwner(marketEvent) */\n      and\n        /* \"contracts/Market.sol\":1069:1079  msg.sender */\n      caller\n      sub(shl(0xa0, 0x01), 0x01)\n        /* \"contracts/Market.sol\":1069:1113  msg.sender == app.getEventOwner(marketEvent) */\n      and\n      eq\n        /* \"contracts/Market.sol\":1069:1138  msg.sender == app.getEventOwner(marketEvent) || msg.sender == factory */\n      dup1\n      tag_308\n      jumpi\n      pop\n        /* \"contracts/Market.sol\":1131:1138  factory */\n      and(sub(shl(0xa0, 0x01), 0x01), sload(0x01))\n        /* \"contracts/Market.sol\":1117:1127  msg.sender */\n      caller\n        /* \"contracts/Market.sol\":1117:1138  msg.sender == factory */\n      eq\n        /* \"contracts/Market.sol\":1069:1138  msg.sender == app.getEventOwner(marketEvent) || msg.sender == factory */\n    tag_308:\n        /* \"contracts/Market.sol\":1048:1185  require(... */\n      tag_309\n      jumpi\n      mload(0x40)\n      shl(0xe5, 0x461bcd)\n      dup2\n      mstore\n      0x04\n      add\n      tag_84\n      swap1\n      tag_242\n      jump\t// in\n    tag_309:\n        /* \"contracts/Market.sol\":4876:4882  status */\n      sload(0x02)\n        /* \"contracts/Market.sol\":4876:4887  status == 0 */\n      iszero\n      dup1\n        /* \"contracts/Market.sol\":4876:4902  status == 0 || status == 4 */\n      tag_312\n      jumpi\n      pop\n        /* \"contracts/Market.sol\":4891:4897  status */\n      sload(0x02)\n        /* \"contracts/Market.sol\":4901:4902  4 */\n      0x04\n        /* \"contracts/Market.sol\":4891:4902  status == 4 */\n      eq\n        /* \"contracts/Market.sol\":4876:4902  status == 0 || status == 4 */\n    tag_312:\n        /* \"contracts/Market.sol\":4873:5014  if(status == 0 || status == 4){... */\n      iszero\n      tag_265\n      jumpi\n      pop\n        /* \"contracts/Market.sol\":4926:4927  3 */\n      0x03\n        /* \"contracts/Market.sol\":4917:4923  status */\n      0x02\n        /* \"contracts/Market.sol\":4917:4927  status = 3 */\n      sstore\n        /* \"contracts/Market.sol\":4948:4952  true */\n      0x01\n        /* \"contracts/Market.sol\":5026:5409  function cancelPlusPairs() external override onlyFactory returns(bool) ... */\n      swap1\n      jump\t// out\n        /* \"contracts/Market.sol\":9628:11108  function _cancelBetPairs(bytes32 _bet) private returns(bool) {... */\n    tag_89:\n        /* \"contracts/Market.sol\":9683:9687  bool */\n      0x00\n        /* \"contracts/Market.sol\":9729:9743  betsInfo[_bet] */\n      dup2\n      dup2\n      mstore\n        /* \"contracts/Market.sol\":9729:9737  betsInfo */\n      0x06\n        /* \"contracts/Market.sol\":9729:9743  betsInfo[_bet] */\n      0x20\n      swap1\n      dup2\n      mstore\n      0x40\n      dup1\n      dup4\n      keccak256\n        /* \"contracts/Market.sol\":9699:9743  Struct.MarketBet memory bet = betsInfo[_bet] */\n      dup2\n      mload\n      0xc0\n      dup2\n      add\n      dup4\n      mstore\n      dup2\n      sload\n      sub(shl(0xa0, 0x01), 0x01)\n      swap1\n      dup2\n      and\n      dup3\n      mstore\n      0x01\n      dup4\n      add\n      sload\n      and\n      dup2\n      dup6\n      add\n      mstore\n      0x02\n      dup3\n      add\n      sload\n      dup2\n      dup5\n      add\n      mstore\n      0x03\n      dup3\n      add\n      sload\n      0x60\n      dup3\n      add\n      mstore\n      0x04\n      dup3\n      add\n      sload\n      0x80\n      dup3\n      add\n      mstore\n      0x05\n      swap1\n      swap2\n      add\n      sload\n      0xa0\n      dup3\n      add\n      mstore\n        /* \"contracts/Market.sol\":9779:9793  betPairs[_bet] */\n      dup5\n      dup5\n      mstore\n        /* \"contracts/Market.sol\":9779:9787  betPairs */\n      0x09\n        /* \"contracts/Market.sol\":9779:9793  betPairs[_bet] */\n      dup4\n      mstore\n      dup2\n      dup5\n      keccak256\n        /* \"contracts/Market.sol\":9753:9793  bytes32[] memory _pairs = betPairs[_bet] */\n      dup1\n      sload\n      dup4\n      mload\n      dup2\n      dup7\n      mul\n      dup2\n      add\n      dup7\n      add\n      swap1\n      swap5\n      mstore\n      dup1\n      dup5\n      mstore\n        /* \"contracts/Market.sol\":9699:9743  Struct.MarketBet memory bet = betsInfo[_bet] */\n      swap2\n      swap4\n        /* \"contracts/Market.sol\":9683:9687  bool */\n      dup6\n      swap4\n        /* \"contracts/Market.sol\":9753:9793  bytes32[] memory _pairs = betPairs[_bet] */\n      swap3\n      swap1\n      dup4\n      add\n        /* \"contracts/Market.sol\":9779:9793  betPairs[_bet] */\n      dup3\n        /* \"contracts/Market.sol\":9753:9793  bytes32[] memory _pairs = betPairs[_bet] */\n      dup3\n      dup1\n      iszero\n      tag_317\n      jumpi\n      0x20\n      mul\n      dup3\n      add\n      swap2\n      swap1\n      0x00\n      mstore\n      keccak256(0x00, 0x20)\n      swap1\n    tag_318:\n      dup2\n      sload\n      dup2\n      mstore\n      0x20\n      add\n      swap1\n      0x01\n      add\n      swap1\n      dup1\n      dup4\n      gt\n      tag_318\n      jumpi\n    tag_317:\n      pop\n      pop\n        /* \"contracts/Market.sol\":9822:9835  _pairs.length */\n      dup4\n      mload\n        /* \"contracts/Market.sol\":9753:9793  bytes32[] memory _pairs = betPairs[_bet] */\n      swap4\n      swap5\n      pop\n        /* \"contracts/Market.sol\":9803:9819  uint pairsLength */\n      0x00\n      swap3\n      pop\n      pop\n      pop\n        /* \"contracts/Market.sol\":9845:11081  for(uint i = 0; i < pairsLength; i++){... */\n    tag_319:\n        /* \"contracts/Market.sol\":9865:9876  pairsLength */\n      dup2\n        /* \"contracts/Market.sol\":9861:9862  i */\n      dup2\n        /* \"contracts/Market.sol\":9861:9876  i < pairsLength */\n      lt\n        /* \"contracts/Market.sol\":9845:11081  for(uint i = 0; i < pairsLength; i++){... */\n      iszero\n      tag_320\n      jumpi\n        /* \"contracts/Market.sol\":9899:9908  pairsInfo */\n      0x08\n        /* \"contracts/Market.sol\":9899:9919  pairsInfo[_pairs[i]] */\n      0x00\n        /* \"contracts/Market.sol\":9909:9915  _pairs */\n      dup5\n        /* \"contracts/Market.sol\":9916:9917  i */\n      dup4\n        /* \"contracts/Market.sol\":9909:9918  _pairs[i] */\n      dup2\n      mload\n      dup2\n      lt\n      tag_322\n      jumpi\n      mstore(0x00, shl(0xe0, 0x4e487b71))\n      mstore(0x04, 0x32)\n      revert(0x00, 0x24)\n    tag_322:\n      0x20\n      swap1\n      dup2\n      mul\n      swap2\n      swap1\n      swap2\n      add\n      dup2\n      add\n      mload\n        /* \"contracts/Market.sol\":9899:9919  pairsInfo[_pairs[i]] */\n      dup3\n      mstore\n      dup2\n      add\n      swap2\n      swap1\n      swap2\n      mstore\n      0x40\n      add\n      0x00\n      keccak256\n        /* \"contracts/Market.sol\":9899:9927  pairsInfo[_pairs[i]].settled */\n      0x04\n      add\n      sload\n      0xff\n      and\n        /* \"contracts/Market.sol\":9896:9969  if(pairsInfo[_pairs[i]].settled){... */\n      iszero\n      tag_323\n      jumpi\n        /* \"contracts/Market.sol\":9946:9954  continue */\n      jump(tag_321)\n        /* \"contracts/Market.sol\":9896:9969  if(pairsInfo[_pairs[i]].settled){... */\n    tag_323:\n        /* \"contracts/Market.sol\":9982:10004  bytes32 counterBetHash */\n      0x00\n        /* \"contracts/Market.sol\":10018:10039  uint256 counterAmount */\n      dup1\n        /* \"contracts/Market.sol\":10053:10071  uint256 thisAmount */\n      0x00\n        /* \"contracts/Market.sol\":10085:10106  address counterBetter */\n      dup1\n        /* \"contracts/Market.sol\":10123:10126  bet */\n      dup8\n        /* \"contracts/Market.sol\":10123:10131  bet.side */\n      0xa0\n      add\n      mload\n        /* \"contracts/Market.sol\":10135:10136  1 */\n      0x01\n        /* \"contracts/Market.sol\":10123:10136  bet.side == 1 */\n      eq\n        /* \"contracts/Market.sol\":10120:10574  if(bet.side == 1) {... */\n      iszero\n      tag_324\n      jumpi\n        /* \"contracts/Market.sol\":10169:10178  pairsInfo */\n      0x08\n        /* \"contracts/Market.sol\":10169:10189  pairsInfo[_pairs[i]] */\n      0x00\n        /* \"contracts/Market.sol\":10179:10185  _pairs */\n      dup9\n        /* \"contracts/Market.sol\":10186:10187  i */\n      dup8\n        /* \"contracts/Market.sol\":10179:10188  _pairs[i] */\n      dup2\n      mload\n      dup2\n      lt\n      tag_325\n      jumpi\n      mstore(0x00, shl(0xe0, 0x4e487b71))\n      mstore(0x04, 0x32)\n      revert(0x00, 0x24)\n    tag_325:\n      0x20\n      mul\n      0x20\n      add\n      add\n      mload\n        /* \"contracts/Market.sol\":10169:10189  pairsInfo[_pairs[i]] */\n      dup2\n      mstore\n      0x20\n      add\n      swap1\n      dup2\n      mstore\n      0x20\n      add\n      0x00\n      keccak256\n        /* \"contracts/Market.sol\":10169:10197  pairsInfo[_pairs[i]].amountA */\n      0x02\n      add\n      sload\n        /* \"contracts/Market.sol\":10156:10197  thisAmount = pairsInfo[_pairs[i]].amountA */\n      swap2\n      pop\n        /* \"contracts/Market.sol\":10232:10241  pairsInfo */\n      0x08\n        /* \"contracts/Market.sol\":10232:10252  pairsInfo[_pairs[i]] */\n      0x00\n        /* \"contracts/Market.sol\":10242:10248  _pairs */\n      dup9\n        /* \"contracts/Market.sol\":10249:10250  i */\n      dup8\n        /* \"contracts/Market.sol\":10242:10251  _pairs[i] */\n      dup2\n      mload\n      dup2\n      lt\n      tag_326\n      jumpi\n      mstore(0x00, shl(0xe0, 0x4e487b71))\n      mstore(0x04, 0x32)\n      revert(0x00, 0x24)\n    tag_326:\n      0x20\n      mul\n      0x20\n      add\n      add\n      mload\n        /* \"contracts/Market.sol\":10232:10252  pairsInfo[_pairs[i]] */\n      dup2\n      mstore\n      0x20\n      add\n      swap1\n      dup2\n      mstore\n      0x20\n      add\n      0x00\n      keccak256\n        /* \"contracts/Market.sol\":10232:10261  pairsInfo[_pairs[i]].betHashB */\n      0x01\n      add\n      sload\n        /* \"contracts/Market.sol\":10215:10261  counterBetHash = pairsInfo[_pairs[i]].betHashB */\n      swap4\n      pop\n        /* \"contracts/Market.sol\":10295:10304  pairsInfo */\n      0x08\n        /* \"contracts/Market.sol\":10295:10315  pairsInfo[_pairs[i]] */\n      0x00\n        /* \"contracts/Market.sol\":10305:10311  _pairs */\n      dup9\n        /* \"contracts/Market.sol\":10312:10313  i */\n      dup8\n        /* \"contracts/Market.sol\":10305:10314  _pairs[i] */\n      dup2\n      mload\n      dup2\n      lt\n      tag_327\n      jumpi\n      mstore(0x00, shl(0xe0, 0x4e487b71))\n      mstore(0x04, 0x32)\n      revert(0x00, 0x24)\n    tag_327:\n      0x20\n      mul\n      0x20\n      add\n      add\n      mload\n        /* \"contracts/Market.sol\":10295:10315  pairsInfo[_pairs[i]] */\n      dup2\n      mstore\n      0x20\n      add\n      swap1\n      dup2\n      mstore\n      0x20\n      add\n      0x00\n      keccak256\n        /* \"contracts/Market.sol\":10295:10323  pairsInfo[_pairs[i]].amountB */\n      0x03\n      add\n      sload\n        /* \"contracts/Market.sol\":10279:10323  counterAmount = pairsInfo[_pairs[i]].amountB */\n      swap3\n      pop\n        /* \"contracts/Market.sol\":10120:10574  if(bet.side == 1) {... */\n      jump(tag_329)\n    tag_324:\n        /* \"contracts/Market.sol\":10359:10362  bet */\n      dup8\n        /* \"contracts/Market.sol\":10359:10367  bet.side */\n      0xa0\n      add\n      mload\n        /* \"contracts/Market.sol\":10371:10372  2 */\n      0x02\n        /* \"contracts/Market.sol\":10359:10372  bet.side == 2 */\n      eq\n        /* \"contracts/Market.sol\":10356:10574  if(bet.side == 2) {... */\n      iszero\n      tag_329\n      jumpi\n        /* \"contracts/Market.sol\":10405:10414  pairsInfo */\n      0x08\n        /* \"contracts/Market.sol\":10405:10425  pairsInfo[_pairs[i]] */\n      0x00\n        /* \"contracts/Market.sol\":10415:10421  _pairs */\n      dup9\n        /* \"contracts/Market.sol\":10422:10423  i */\n      dup8\n        /* \"contracts/Market.sol\":10415:10424  _pairs[i] */\n      dup2\n      mload\n      dup2\n      lt\n      tag_330\n      jumpi\n      mstore(0x00, shl(0xe0, 0x4e487b71))\n      mstore(0x04, 0x32)\n      revert(0x00, 0x24)\n    tag_330:\n      0x20\n      mul\n      0x20\n      add\n      add\n      mload\n        /* \"contracts/Market.sol\":10405:10425  pairsInfo[_pairs[i]] */\n      dup2\n      mstore\n      0x20\n      add\n      swap1\n      dup2\n      mstore\n      0x20\n      add\n      0x00\n      keccak256\n        /* \"contracts/Market.sol\":10405:10433  pairsInfo[_pairs[i]].amountB */\n      0x03\n      add\n      sload\n        /* \"contracts/Market.sol\":10392:10433  thisAmount = pairsInfo[_pairs[i]].amountB */\n      swap2\n      pop\n        /* \"contracts/Market.sol\":10468:10477  pairsInfo */\n      0x08\n        /* \"contracts/Market.sol\":10468:10488  pairsInfo[_pairs[i]] */\n      0x00\n        /* \"contracts/Market.sol\":10478:10484  _pairs */\n      dup9\n        /* \"contracts/Market.sol\":10485:10486  i */\n      dup8\n        /* \"contracts/Market.sol\":10478:10487  _pairs[i] */\n      dup2\n      mload\n      dup2\n      lt\n      tag_331\n      jumpi\n      mstore(0x00, shl(0xe0, 0x4e487b71))\n      mstore(0x04, 0x32)\n      revert(0x00, 0x24)\n    tag_331:\n      0x20\n      mul\n      0x20\n      add\n      add\n      mload\n        /* \"contracts/Market.sol\":10468:10488  pairsInfo[_pairs[i]] */\n      dup2\n      mstore\n      0x20\n      add\n      swap1\n      dup2\n      mstore\n      0x20\n      add\n      0x00\n      keccak256\n        /* \"contracts/Market.sol\":10468:10497  pairsInfo[_pairs[i]].betHashA */\n      0x00\n      add\n      sload\n        /* \"contracts/Market.sol\":10451:10497  counterBetHash = pairsInfo[_pairs[i]].betHashA */\n      swap4\n      pop\n        /* \"contracts/Market.sol\":10531:10540  pairsInfo */\n      0x08\n        /* \"contracts/Market.sol\":10531:10551  pairsInfo[_pairs[i]] */\n      0x00\n        /* \"contracts/Market.sol\":10541:10547  _pairs */\n      dup9\n        /* \"contracts/Market.sol\":10548:10549  i */\n      dup8\n        /* \"contracts/Market.sol\":10541:10550  _pairs[i] */\n      dup2\n      mload\n      dup2\n      lt\n      tag_332\n      jumpi\n      mstore(0x00, shl(0xe0, 0x4e487b71))\n      mstore(0x04, 0x32)\n      revert(0x00, 0x24)\n    tag_332:\n      0x20\n      mul\n      0x20\n      add\n      add\n      mload\n        /* \"contracts/Market.sol\":10531:10551  pairsInfo[_pairs[i]] */\n      dup2\n      mstore\n      0x20\n      add\n      swap1\n      dup2\n      mstore\n      0x20\n      add\n      0x00\n      keccak256\n        /* \"contracts/Market.sol\":10531:10559  pairsInfo[_pairs[i]].amountA */\n      0x02\n      add\n      sload\n        /* \"contracts/Market.sol\":10515:10559  counterAmount = pairsInfo[_pairs[i]].amountA */\n      swap3\n      pop\n        /* \"contracts/Market.sol\":10356:10574  if(bet.side == 2) {... */\n    tag_329:\n      pop\n        /* \"contracts/Market.sol\":10603:10627  betsInfo[counterBetHash] */\n      0x00\n      dup4\n      dup2\n      mstore\n        /* \"contracts/Market.sol\":10603:10611  betsInfo */\n      0x06\n        /* \"contracts/Market.sol\":10603:10627  betsInfo[counterBetHash] */\n      0x20\n      swap1\n      dup2\n      mstore\n      0x40\n      swap2\n      dup3\n      swap1\n      keccak256\n        /* \"contracts/Market.sol\":10603:10634  betsInfo[counterBetHash].better */\n      sload\n        /* \"contracts/Market.sol\":10687:10690  app */\n      sload(0x0a)\n        /* \"contracts/Market.sol\":10687:10696  app.vig() */\n      dup4\n      mload\n      shl(0xe0, 0x55c4a8bf)\n      dup2\n      mstore\n      swap4\n      mload\n      sub(shl(0xa0, 0x01), 0x01)\n        /* \"contracts/Market.sol\":10603:10634  betsInfo[counterBetHash].better */\n      swap3\n      dup4\n      and\n      swap5\n        /* \"contracts/Market.sol\":10700:10703  100 */\n      0x64\n      swap5\n        /* \"contracts/Market.sol\":10687:10690  app */\n      swap4\n      swap1\n      swap3\n      and\n      swap3\n        /* \"contracts/Market.sol\":10687:10694  app.vig */\n      0x55c4a8bf\n      swap3\n        /* \"contracts/Market.sol\":10687:10696  app.vig() */\n      0x04\n      dup1\n      dup3\n      add\n      swap4\n      swap2\n      dup3\n      swap1\n      sub\n      add\n      dup2\n        /* \"contracts/Market.sol\":10687:10690  app */\n      dup7\n        /* \"contracts/Market.sol\":10687:10696  app.vig() */\n      dup1\n      extcodesize\n      iszero\n      dup1\n      iszero\n      tag_333\n      jumpi\n      0x00\n      dup1\n      revert\n    tag_333:\n      pop\n      gas\n      staticcall\n      iszero\n      dup1\n      iszero\n      tag_335\n      jumpi\n      returndatasize\n      0x00\n      dup1\n      returndatacopy\n      revert(0x00, returndatasize)\n    tag_335:\n      pop\n      pop\n      pop\n      pop\n      mload(0x40)\n      returndatasize\n      not(0x1f)\n      0x1f\n      dup3\n      add\n      and\n      dup3\n      add\n      dup1\n      0x40\n      mstore\n      pop\n      dup2\n      add\n      swap1\n      tag_336\n      swap2\n      swap1\n      tag_108\n      jump\t// in\n    tag_336:\n        /* \"contracts/Market.sol\":10681:10696  100 - app.vig() */\n      tag_337\n      swap1\n        /* \"contracts/Market.sol\":10681:10684  100 */\n      0x64\n        /* \"contracts/Market.sol\":10681:10696  100 - app.vig() */\n      tag_188\n      jump\t// in\n    tag_337:\n        /* \"contracts/Market.sol\":10667:10697  thisAmount * (100 - app.vig()) */\n      tag_338\n      swap1\n        /* \"contracts/Market.sol\":10667:10677  thisAmount */\n      dup5\n        /* \"contracts/Market.sol\":10667:10697  thisAmount * (100 - app.vig()) */\n      tag_190\n      jump\t// in\n    tag_338:\n        /* \"contracts/Market.sol\":10667:10703  thisAmount * (100 - app.vig()) / 100 */\n      tag_339\n      swap2\n      swap1\n      tag_192\n      jump\t// in\n    tag_339:\n        /* \"contracts/Market.sol\":10652:10662  bet.better */\n      dup9\n      mload\n      sub(shl(0xa0, 0x01), 0x01)\n        /* \"contracts/Market.sol\":10648:10663  bal[bet.better] */\n      and\n      0x00\n      swap1\n      dup2\n      mstore\n        /* \"contracts/Market.sol\":10648:10651  bal */\n      0x05\n        /* \"contracts/Market.sol\":10648:10663  bal[bet.better] */\n      0x20\n      mstore\n      0x40\n      dup2\n      keccak256\n        /* \"contracts/Market.sol\":10648:10703  bal[bet.better] += thisAmount * (100 - app.vig()) / 100 */\n      dup1\n      sload\n        /* \"contracts/Market.sol\":10648:10663  bal[bet.better] */\n      swap1\n      swap2\n      swap1\n        /* \"contracts/Market.sol\":10648:10703  bal[bet.better] += thisAmount * (100 - app.vig()) / 100 */\n      tag_340\n      swap1\n      dup5\n      swap1\n      tag_229\n      jump\t// in\n    tag_340:\n      swap1\n      swap2\n      sstore\n      pop\n      pop\n        /* \"contracts/Market.sol\":10717:10741  betsInfo[counterBetHash] */\n      0x00\n      dup5\n      dup2\n      mstore\n        /* \"contracts/Market.sol\":10717:10725  betsInfo */\n      0x06\n        /* \"contracts/Market.sol\":10717:10741  betsInfo[counterBetHash] */\n      0x20\n      mstore\n      0x40\n      dup2\n      keccak256\n        /* \"contracts/Market.sol\":10717:10749  betsInfo[counterBetHash].matched */\n      0x03\n      add\n        /* \"contracts/Market.sol\":10717:10766  betsInfo[counterBetHash].matched -= counterAmount */\n      dup1\n      sload\n        /* \"contracts/Market.sol\":10753:10766  counterAmount */\n      dup6\n      swap3\n        /* \"contracts/Market.sol\":10717:10741  betsInfo[counterBetHash] */\n      swap1\n        /* \"contracts/Market.sol\":10717:10766  betsInfo[counterBetHash].matched -= counterAmount */\n      tag_341\n      swap1\n        /* \"contracts/Market.sol\":10753:10766  counterAmount */\n      dup5\n      swap1\n        /* \"contracts/Market.sol\":10717:10766  betsInfo[counterBetHash].matched -= counterAmount */\n      tag_188\n      jump\t// in\n    tag_341:\n      swap3\n      pop\n      pop\n      dup2\n      swap1\n      sstore\n      pop\n        /* \"contracts/Market.sol\":10780:10797  uint256 vigAmount */\n      0x00\n        /* \"contracts/Market.sol\":10825:10828  100 */\n      0x64\n        /* \"contracts/Market.sol\":10813:10816  app */\n      0x0a\n      0x00\n      swap1\n      sload\n      swap1\n      0x0100\n      exp\n      swap1\n      div\n      sub(shl(0xa0, 0x01), 0x01)\n      and\n      sub(shl(0xa0, 0x01), 0x01)\n        /* \"contracts/Market.sol\":10813:10820  app.vig */\n      and\n      0x55c4a8bf\n        /* \"contracts/Market.sol\":10813:10822  app.vig() */\n      mload(0x40)\n      dup2\n      0xffffffff\n      and\n      0xe0\n      shl\n      dup2\n      mstore\n      0x04\n      add\n      0x20\n      mload(0x40)\n      dup1\n      dup4\n      sub\n      dup2\n      dup7\n      dup1\n      extcodesize\n      iszero\n      dup1\n      iszero\n      tag_342\n      jumpi\n      0x00\n      dup1\n      revert\n    tag_342:\n      pop\n      gas\n      staticcall\n      iszero\n      dup1\n      iszero\n      tag_344\n      jumpi\n      returndatasize\n      0x00\n      dup1\n      returndatacopy\n      revert(0x00, returndatasize)\n    tag_344:\n      pop\n      pop\n      pop\n      pop\n      mload(0x40)\n      returndatasize\n      not(0x1f)\n      0x1f\n      dup3\n      add\n      and\n      dup3\n      add\n      dup1\n      0x40\n      mstore\n      pop\n      dup2\n      add\n      swap1\n      tag_345\n      swap2\n      swap1\n      tag_108\n      jump\t// in\n    tag_345:\n        /* \"contracts/Market.sol\":10800:10822  thisAmount * app.vig() */\n      tag_346\n      swap1\n        /* \"contracts/Market.sol\":10800:10810  thisAmount */\n      dup6\n        /* \"contracts/Market.sol\":10800:10822  thisAmount * app.vig() */\n      tag_190\n      jump\t// in\n    tag_346:\n        /* \"contracts/Market.sol\":10800:10828  thisAmount * app.vig() / 100 */\n      tag_347\n      swap2\n      swap1\n      tag_192\n      jump\t// in\n    tag_347:\n        /* \"contracts/Market.sol\":10780:10828  uint256 vigAmount = thisAmount * app.vig() / 100 */\n      swap1\n      pop\n        /* \"contracts/Market.sol\":10890:10893  100 */\n      0x64\n        /* \"contracts/Market.sol\":10877:10880  app */\n      0x0a\n      0x00\n      swap1\n      sload\n      swap1\n      0x0100\n      exp\n      swap1\n      div\n      sub(shl(0xa0, 0x01), 0x01)\n      and\n      sub(shl(0xa0, 0x01), 0x01)\n        /* \"contracts/Market.sol\":10877:10885  app.hVig */\n      and\n      0x6a0ccd9d\n        /* \"contracts/Market.sol\":10877:10887  app.hVig() */\n      mload(0x40)\n      dup2\n      0xffffffff\n      and\n      0xe0\n      shl\n      dup2\n      mstore\n      0x04\n      add\n      0x20\n      mload(0x40)\n      dup1\n      dup4\n      sub\n      dup2\n      dup7\n      dup1\n      extcodesize\n      iszero\n      dup1\n      iszero\n      tag_348\n      jumpi\n      0x00\n      dup1\n      revert\n    tag_348:\n      pop\n      gas\n      staticcall\n      iszero\n      dup1\n      iszero\n      tag_350\n      jumpi\n      returndatasize\n      0x00\n      dup1\n      returndatacopy\n      revert(0x00, returndatasize)\n    tag_350:\n      pop\n      pop\n      pop\n      pop\n      mload(0x40)\n      returndatasize\n      not(0x1f)\n      0x1f\n      dup3\n      add\n      and\n      dup3\n      add\n      dup1\n      0x40\n      mstore\n      pop\n      dup2\n      add\n      swap1\n      tag_351\n      swap2\n      swap1\n      tag_108\n      jump\t// in\n    tag_351:\n        /* \"contracts/Market.sol\":10865:10887  vigAmount * app.hVig() */\n      tag_352\n      swap1\n        /* \"contracts/Market.sol\":10865:10874  vigAmount */\n      dup4\n        /* \"contracts/Market.sol\":10865:10887  vigAmount * app.hVig() */\n      tag_190\n      jump\t// in\n    tag_352:\n        /* \"contracts/Market.sol\":10865:10893  vigAmount * app.hVig() / 100 */\n      tag_353\n      swap2\n      swap1\n      tag_192\n      jump\t// in\n    tag_353:\n        /* \"contracts/Market.sol\":10842:10845  bal */\n      0x05\n        /* \"contracts/Market.sol\":10842:10861  bal[app.holdAddr()] */\n      0x00\n        /* \"contracts/Market.sol\":10846:10849  app */\n      0x0a\n      0x00\n      swap1\n      sload\n      swap1\n      0x0100\n      exp\n      swap1\n      div\n      sub(shl(0xa0, 0x01), 0x01)\n      and\n      sub(shl(0xa0, 0x01), 0x01)\n        /* \"contracts/Market.sol\":10846:10858  app.holdAddr */\n      and\n      0xb7640a54\n        /* \"contracts/Market.sol\":10846:10860  app.holdAddr() */\n      mload(0x40)\n      dup2\n      0xffffffff\n      and\n      0xe0\n      shl\n      dup2\n      mstore\n      0x04\n      add\n      0x20\n      mload(0x40)\n      dup1\n      dup4\n      sub\n      dup2\n      dup7\n      dup1\n      extcodesize\n      iszero\n      dup1\n      iszero\n      tag_354\n      jumpi\n      0x00\n      dup1\n      revert\n    tag_354:\n      pop\n      gas\n      staticcall\n      iszero\n      dup1\n      iszero\n      tag_356\n      jumpi\n      returndatasize\n      0x00\n      dup1\n      returndatacopy\n      revert(0x00, returndatasize)\n    tag_356:\n      pop\n      pop\n      pop\n      pop\n      mload(0x40)\n      returndatasize\n      not(0x1f)\n      0x1f\n      dup3\n      add\n      and\n      dup3\n      add\n      dup1\n      0x40\n      mstore\n      pop\n      dup2\n      add\n      swap1\n      tag_357\n      swap2\n      swap1\n      tag_238\n      jump\t// in\n    tag_357:\n      sub(shl(0xa0, 0x01), 0x01)\n        /* \"contracts/Market.sol\":10842:10861  bal[app.holdAddr()] */\n      and\n      sub(shl(0xa0, 0x01), 0x01)\n      and\n      dup2\n      mstore\n      0x20\n      add\n      swap1\n      dup2\n      mstore\n      0x20\n      add\n      0x00\n      keccak256\n      0x00\n        /* \"contracts/Market.sol\":10842:10893  bal[app.holdAddr()] += vigAmount * app.hVig() / 100 */\n      dup3\n      dup3\n      sload\n      tag_358\n      swap2\n      swap1\n      tag_229\n      jump\t// in\n    tag_358:\n      swap1\n      swap2\n      sstore\n      pop\n      pop\n        /* \"contracts/Market.sol\":10941:10944  app */\n      sload(0x0a)\n        /* \"contracts/Market.sol\":10941:10951  app.eVig() */\n      0x40\n      dup1\n      mload\n      shl(0xe0, 0x28576d45)\n      dup2\n      mstore\n      swap1\n      mload\n        /* \"contracts/Market.sol\":10954:10957  100 */\n      0x64\n      swap3\n      sub(shl(0xa0, 0x01), 0x01)\n        /* \"contracts/Market.sol\":10941:10944  app */\n      and\n      swap2\n        /* \"contracts/Market.sol\":10941:10949  app.eVig */\n      0x28576d45\n      swap2\n        /* \"contracts/Market.sol\":10941:10951  app.eVig() */\n      0x04\n      dup1\n      dup4\n      add\n      swap3\n      0x20\n      swap3\n      swap2\n      swap1\n      dup3\n      swap1\n      sub\n      add\n      dup2\n        /* \"contracts/Market.sol\":10941:10944  app */\n      dup7\n        /* \"contracts/Market.sol\":10941:10951  app.eVig() */\n      dup1\n      extcodesize\n      iszero\n      dup1\n      iszero\n      tag_359\n      jumpi\n      0x00\n      dup1\n      revert\n    tag_359:\n      pop\n      gas\n      staticcall\n      iszero\n      dup1\n      iszero\n      tag_361\n      jumpi\n      returndatasize\n      0x00\n      dup1\n      returndatacopy\n      revert(0x00, returndatasize)\n    tag_361:\n      pop\n      pop\n      pop\n      pop\n      mload(0x40)\n      returndatasize\n      not(0x1f)\n      0x1f\n      dup3\n      add\n      and\n      dup3\n      add\n      dup1\n      0x40\n      mstore\n      pop\n      dup2\n      add\n      swap1\n      tag_362\n      swap2\n      swap1\n      tag_108\n      jump\t// in\n    tag_362:\n        /* \"contracts/Market.sol\":10929:10951  vigAmount * app.eVig() */\n      tag_363\n      swap1\n        /* \"contracts/Market.sol\":10929:10938  vigAmount */\n      dup4\n        /* \"contracts/Market.sol\":10929:10951  vigAmount * app.eVig() */\n      tag_190\n      jump\t// in\n    tag_363:\n        /* \"contracts/Market.sol\":10929:10957  vigAmount * app.eVig() / 100 */\n      tag_364\n      swap2\n      swap1\n      tag_192\n      jump\t// in\n    tag_364:\n        /* \"contracts/Market.sol\":10907:10910  bal */\n      0x05\n        /* \"contracts/Market.sol\":10907:10925  bal[app.ecoAddr()] */\n      0x00\n        /* \"contracts/Market.sol\":10911:10914  app */\n      0x0a\n      0x00\n      swap1\n      sload\n      swap1\n      0x0100\n      exp\n      swap1\n      div\n      sub(shl(0xa0, 0x01), 0x01)\n      and\n      sub(shl(0xa0, 0x01), 0x01)\n        /* \"contracts/Market.sol\":10911:10922  app.ecoAddr */\n      and\n      0x09953b2f\n        /* \"contracts/Market.sol\":10911:10924  app.ecoAddr() */\n      mload(0x40)\n      dup2\n      0xffffffff\n      and\n      0xe0\n      shl\n      dup2\n      mstore\n      0x04\n      add\n      0x20\n      mload(0x40)\n      dup1\n      dup4\n      sub\n      dup2\n      dup7\n      dup1\n      extcodesize\n      iszero\n      dup1\n      iszero\n      tag_365\n      jumpi\n      0x00\n      dup1\n      revert\n    tag_365:\n      pop\n      gas\n      staticcall\n      iszero\n      dup1\n      iszero\n      tag_367\n      jumpi\n      returndatasize\n      0x00\n      dup1\n      returndatacopy\n      revert(0x00, returndatasize)\n    tag_367:\n      pop\n      pop\n      pop\n      pop\n      mload(0x40)\n      returndatasize\n      not(0x1f)\n      0x1f\n      dup3\n      add\n      and\n      dup3\n      add\n      dup1\n      0x40\n      mstore\n      pop\n      dup2\n      add\n      swap1\n      tag_368\n      swap2\n      swap1\n      tag_238\n      jump\t// in\n    tag_368:\n      sub(shl(0xa0, 0x01), 0x01)\n        /* \"contracts/Market.sol\":10907:10925  bal[app.ecoAddr()] */\n      and\n      sub(shl(0xa0, 0x01), 0x01)\n      and\n      dup2\n      mstore\n      0x20\n      add\n      swap1\n      dup2\n      mstore\n      0x20\n      add\n      0x00\n      keccak256\n      0x00\n        /* \"contracts/Market.sol\":10907:10957  bal[app.ecoAddr()] += vigAmount * app.eVig() / 100 */\n      dup3\n      dup3\n      sload\n      tag_369\n      swap2\n      swap1\n      tag_229\n      jump\t// in\n    tag_369:\n      swap1\n      swap2\n      sstore\n      pop\n      pop\n        /* \"contracts/Market.sol\":11005:11008  app */\n      sload(0x0a)\n        /* \"contracts/Market.sol\":11005:11015  app.aVig() */\n      0x40\n      dup1\n      mload\n      shl(0xe2, 0x15334697)\n      dup2\n      mstore\n      swap1\n      mload\n        /* \"contracts/Market.sol\":11018:11021  100 */\n      0x64\n      swap3\n      sub(shl(0xa0, 0x01), 0x01)\n        /* \"contracts/Market.sol\":11005:11008  app */\n      and\n      swap2\n        /* \"contracts/Market.sol\":11005:11013  app.aVig */\n      0x54cd1a5c\n      swap2\n        /* \"contracts/Market.sol\":11005:11015  app.aVig() */\n      0x04\n      dup1\n      dup4\n      add\n      swap3\n      0x20\n      swap3\n      swap2\n      swap1\n      dup3\n      swap1\n      sub\n      add\n      dup2\n        /* \"contracts/Market.sol\":11005:11008  app */\n      dup7\n        /* \"contracts/Market.sol\":11005:11015  app.aVig() */\n      dup1\n      extcodesize\n      iszero\n      dup1\n      iszero\n      tag_370\n      jumpi\n      0x00\n      dup1\n      revert\n    tag_370:\n      pop\n      gas\n      staticcall\n      iszero\n      dup1\n      iszero\n      tag_372\n      jumpi\n      returndatasize\n      0x00\n      dup1\n      returndatacopy\n      revert(0x00, returndatasize)\n    tag_372:\n      pop\n      pop\n      pop\n      pop\n      mload(0x40)\n      returndatasize\n      not(0x1f)\n      0x1f\n      dup3\n      add\n      and\n      dup3\n      add\n      dup1\n      0x40\n      mstore\n      pop\n      dup2\n      add\n      swap1\n      tag_373\n      swap2\n      swap1\n      tag_108\n      jump\t// in\n    tag_373:\n        /* \"contracts/Market.sol\":10993:11015  vigAmount * app.aVig() */\n      tag_374\n      swap1\n        /* \"contracts/Market.sol\":10993:11002  vigAmount */\n      dup4\n        /* \"contracts/Market.sol\":10993:11015  vigAmount * app.aVig() */\n      tag_190\n      jump\t// in\n    tag_374:\n        /* \"contracts/Market.sol\":10993:11021  vigAmount * app.aVig() / 100 */\n      tag_375\n      swap2\n      swap1\n      tag_192\n      jump\t// in\n    tag_375:\n        /* \"contracts/Market.sol\":10975:10988  bet.affiliate */\n      0x20\n      dup1\n      dup12\n      add\n      mload\n      sub(shl(0xa0, 0x01), 0x01)\n        /* \"contracts/Market.sol\":10971:10989  bal[bet.affiliate] */\n      and\n      0x00\n      swap1\n      dup2\n      mstore\n        /* \"contracts/Market.sol\":10971:10974  bal */\n      0x05\n        /* \"contracts/Market.sol\":10971:10989  bal[bet.affiliate] */\n      swap1\n      swap2\n      mstore\n      0x40\n      dup2\n      keccak256\n        /* \"contracts/Market.sol\":10971:11021  bal[bet.affiliate] += vigAmount * app.aVig() / 100 */\n      dup1\n      sload\n        /* \"contracts/Market.sol\":10971:10989  bal[bet.affiliate] */\n      swap1\n      swap2\n      swap1\n        /* \"contracts/Market.sol\":10971:11021  bal[bet.affiliate] += vigAmount * app.aVig() / 100 */\n      tag_376\n      swap1\n      dup5\n      swap1\n      tag_229\n      jump\t// in\n    tag_376:\n      swap3\n      pop\n      pop\n      dup2\n      swap1\n      sstore\n      pop\n        /* \"contracts/Market.sol\":11066:11070  true */\n      0x01\n        /* \"contracts/Market.sol\":11035:11044  pairsInfo */\n      0x08\n        /* \"contracts/Market.sol\":11035:11055  pairsInfo[_pairs[i]] */\n      0x00\n        /* \"contracts/Market.sol\":11045:11051  _pairs */\n      dup11\n        /* \"contracts/Market.sol\":11052:11053  i */\n      dup10\n        /* \"contracts/Market.sol\":11045:11054  _pairs[i] */\n      dup2\n      mload\n      dup2\n      lt\n      tag_377\n      jumpi\n      mstore(0x00, shl(0xe0, 0x4e487b71))\n      mstore(0x04, 0x32)\n      revert(0x00, 0x24)\n    tag_377:\n      0x20\n      mul\n      0x20\n      add\n      add\n      mload\n        /* \"contracts/Market.sol\":11035:11055  pairsInfo[_pairs[i]] */\n      dup2\n      mstore\n      0x20\n      add\n      swap1\n      dup2\n      mstore\n      0x20\n      add\n      0x00\n      keccak256\n        /* \"contracts/Market.sol\":11035:11063  pairsInfo[_pairs[i]].settled */\n      0x04\n      add\n      0x00\n        /* \"contracts/Market.sol\":11035:11070  pairsInfo[_pairs[i]].settled = true */\n      0x0100\n      exp\n      dup2\n      sload\n      dup2\n      0xff\n      mul\n      not\n      and\n      swap1\n      dup4\n      iszero\n      iszero\n      mul\n      or\n      swap1\n      sstore\n      pop\n        /* \"contracts/Market.sol\":9845:11081  for(uint i = 0; i < pairsLength; i++){... */\n      pop\n      pop\n      pop\n      pop\n      pop\n    tag_321:\n        /* \"contracts/Market.sol\":9878:9881  i++ */\n      dup1\n      tag_378\n      dup2\n      tag_134\n      jump\t// in\n    tag_378:\n      swap2\n      pop\n      pop\n        /* \"contracts/Market.sol\":9845:11081  for(uint i = 0; i < pairsLength; i++){... */\n      jump(tag_319)\n    tag_320:\n      pop\n        /* \"contracts/Market.sol\":11097:11101  true */\n      0x01\n      swap6\n        /* \"contracts/Market.sol\":9628:11108  function _cancelBetPairs(bytes32 _bet) private returns(bool) {... */\n      swap5\n      pop\n      pop\n      pop\n      pop\n      pop\n      jump\t// out\n        /* \"contracts/Market.sol\":11472:12745  function _settlePair(bytes32 _pair) private nonReentrant returns(bool) {... */\n    tag_132:\n        /* \"contracts/Market.sol\":11537:11541  bool */\n      0x00\n        /* \"@openzeppelin/contracts/security/ReentrancyGuard.sol\":1744:1745  2 */\n      0x02\n        /* \"@openzeppelin/contracts/security/ReentrancyGuard.sol\":2325:2332  _status */\n      sload(0x00)\n        /* \"@openzeppelin/contracts/security/ReentrancyGuard.sol\":2325:2344  _status != _ENTERED */\n      eq\n      iszero\n        /* \"@openzeppelin/contracts/security/ReentrancyGuard.sol\":2317:2380  require(_status != _ENTERED, \"ReentrancyGuard: reentrant call\") */\n      tag_380\n      jumpi\n      mload(0x40)\n      shl(0xe5, 0x461bcd)\n      dup2\n      mstore\n        /* \"#utility.yul\":9940:9942   */\n      0x20\n        /* \"@openzeppelin/contracts/security/ReentrancyGuard.sol\":2317:2380  require(_status != _ENTERED, \"ReentrancyGuard: reentrant call\") */\n      0x04\n      dup3\n      add\n        /* \"#utility.yul\":9922:9943   */\n      mstore\n        /* \"#utility.yul\":9979:9981   */\n      0x1f\n        /* \"#utility.yul\":9959:9977   */\n      0x24\n      dup3\n      add\n        /* \"#utility.yul\":9952:9982   */\n      mstore\n        /* \"#utility.yul\":10018:10051   */\n      0x5265656e7472616e637947756172643a207265656e7472616e742063616c6c00\n        /* \"#utility.yul\":9998:10016   */\n      0x44\n      dup3\n      add\n        /* \"#utility.yul\":9991:10052   */\n      mstore\n        /* \"#utility.yul\":10069:10087   */\n      0x64\n      add\n        /* \"@openzeppelin/contracts/security/ReentrancyGuard.sol\":2317:2380  require(_status != _ENTERED, \"ReentrancyGuard: reentrant call\") */\n      tag_84\n        /* \"#utility.yul\":9912:10093   */\n      jump\n        /* \"@openzeppelin/contracts/security/ReentrancyGuard.sol\":2317:2380  require(_status != _ENTERED, \"ReentrancyGuard: reentrant call\") */\n    tag_380:\n        /* \"@openzeppelin/contracts/security/ReentrancyGuard.sol\":1744:1745  2 */\n      0x02\n        /* \"@openzeppelin/contracts/security/ReentrancyGuard.sol\":2455:2462  _status */\n      0x00\n        /* \"@openzeppelin/contracts/security/ReentrancyGuard.sol\":2455:2473  _status = _ENTERED */\n      swap1\n      dup2\n      sstore\n        /* \"contracts/Market.sol\":11556:11572  pairsInfo[_pair] */\n      dup3\n      dup2\n      mstore\n        /* \"contracts/Market.sol\":11556:11565  pairsInfo */\n      0x08\n        /* \"contracts/Market.sol\":11556:11572  pairsInfo[_pair] */\n      0x20\n      mstore\n      0x40\n      swap1\n      keccak256\n        /* \"contracts/Market.sol\":11556:11580  pairsInfo[_pair].settled */\n      0x04\n      add\n      sload\n      0xff\n      and\n        /* \"contracts/Market.sol\":11553:11618  if(pairsInfo[_pair].settled){... */\n      iszero\n      tag_383\n      jumpi\n      pop\n        /* \"contracts/Market.sol\":11602:11607  false */\n      0x00\n        /* \"contracts/Market.sol\":11595:11607  return false */\n      jump(tag_101)\n        /* \"contracts/Market.sol\":11553:11618  if(pairsInfo[_pair].settled){... */\n    tag_383:\n        /* \"contracts/Market.sol\":11627:11641  address winner */\n      0x00\n        /* \"contracts/Market.sol\":11651:11668  address affiliate */\n      dup1\n        /* \"contracts/Market.sol\":11678:11695  uint256 winAmount */\n      0x00\n        /* \"contracts/Market.sol\":11705:11722  uint256 vigAmount */\n      dup1\n        /* \"contracts/Market.sol\":11735:11741  status */\n      sload(0x02)\n        /* \"contracts/Market.sol\":11745:11746  1 */\n      0x01\n        /* \"contracts/Market.sol\":11735:11746  status == 1 */\n      eq\n        /* \"contracts/Market.sol\":11732:12466  if(status == 1){... */\n      iszero\n      tag_384\n      jumpi\n        /* \"contracts/Market.sol\":11770:11805  betsInfo[pairsInfo[_pair].betHashA] */\n      0x00\n        /* \"contracts/Market.sol\":11779:11795  pairsInfo[_pair] */\n      dup7\n      dup2\n      mstore\n        /* \"contracts/Market.sol\":11779:11788  pairsInfo */\n      0x08\n        /* \"contracts/Market.sol\":11779:11795  pairsInfo[_pair] */\n      0x20\n      swap1\n      dup2\n      mstore\n      0x40\n      dup1\n      dup4\n      keccak256\n        /* \"contracts/Market.sol\":11779:11804  pairsInfo[_pair].betHashA */\n      sload\n        /* \"contracts/Market.sol\":11770:11805  betsInfo[pairsInfo[_pair].betHashA] */\n      dup4\n      mstore\n        /* \"contracts/Market.sol\":11770:11778  betsInfo */\n      0x06\n        /* \"contracts/Market.sol\":11770:11805  betsInfo[pairsInfo[_pair].betHashA] */\n      dup3\n      mstore\n      swap2\n      dup3\n      swap1\n      keccak256\n        /* \"contracts/Market.sol\":11770:11812  betsInfo[pairsInfo[_pair].betHashA].better */\n      sload\n        /* \"contracts/Market.sol\":11900:11903  app */\n      sload(0x0a)\n        /* \"contracts/Market.sol\":11900:11909  app.vig() */\n      dup4\n      mload\n      shl(0xe0, 0x55c4a8bf)\n      dup2\n      mstore\n      swap4\n      mload\n      sub(shl(0xa0, 0x01), 0x01)\n        /* \"contracts/Market.sol\":11770:11812  betsInfo[pairsInfo[_pair].betHashA].better */\n      swap3\n      dup4\n      and\n      swap9\n      pop\n        /* \"contracts/Market.sol\":11913:11916  100 */\n      0x64\n      swap5\n        /* \"contracts/Market.sol\":11900:11903  app */\n      swap2\n      swap1\n      swap3\n      and\n      swap3\n        /* \"contracts/Market.sol\":11900:11907  app.vig */\n      0x55c4a8bf\n      swap3\n        /* \"contracts/Market.sol\":11900:11909  app.vig() */\n      0x04\n      dup1\n      dup5\n      add\n      swap4\n      dup3\n      swap1\n      sub\n      add\n      dup2\n        /* \"contracts/Market.sol\":11900:11903  app */\n      dup7\n        /* \"contracts/Market.sol\":11900:11909  app.vig() */\n      dup1\n      extcodesize\n      iszero\n      dup1\n      iszero\n      tag_385\n      jumpi\n      0x00\n      dup1\n      revert\n    tag_385:\n      pop\n      gas\n      staticcall\n      iszero\n      dup1\n      iszero\n      tag_387\n      jumpi\n      returndatasize\n      0x00\n      dup1\n      returndatacopy\n      revert(0x00, returndatasize)\n    tag_387:\n      pop\n      pop\n      pop\n      pop\n      mload(0x40)\n      returndatasize\n      not(0x1f)\n      0x1f\n      dup3\n      add\n      and\n      dup3\n      add\n      dup1\n      0x40\n      mstore\n      pop\n      dup2\n      add\n      swap1\n      tag_388\n      swap2\n      swap1\n      tag_108\n      jump\t// in\n    tag_388:\n        /* \"contracts/Market.sol\":11894:11909  100 - app.vig() */\n      tag_389\n      swap1\n        /* \"contracts/Market.sol\":11894:11897  100 */\n      0x64\n        /* \"contracts/Market.sol\":11894:11909  100 - app.vig() */\n      tag_188\n      jump\t// in\n    tag_389:\n        /* \"contracts/Market.sol\":11866:11882  pairsInfo[_pair] */\n      0x00\n      dup9\n      dup2\n      mstore\n        /* \"contracts/Market.sol\":11866:11875  pairsInfo */\n      0x08\n        /* \"contracts/Market.sol\":11866:11882  pairsInfo[_pair] */\n      0x20\n      mstore\n      0x40\n      swap1\n      keccak256\n        /* \"contracts/Market.sol\":11866:11890  pairsInfo[_pair].amountB */\n      0x03\n      add\n      sload\n        /* \"contracts/Market.sol\":11866:11910  pairsInfo[_pair].amountB * (100 - app.vig()) */\n      tag_390\n      swap2\n      swap1\n      tag_190\n      jump\t// in\n    tag_390:\n        /* \"contracts/Market.sol\":11866:11916  pairsInfo[_pair].amountB * (100 - app.vig()) / 100 */\n      tag_391\n      swap2\n      swap1\n      tag_192\n      jump\t// in\n    tag_391:\n        /* \"contracts/Market.sol\":11838:11854  pairsInfo[_pair] */\n      0x00\n      dup8\n      dup2\n      mstore\n        /* \"contracts/Market.sol\":11838:11847  pairsInfo */\n      0x08\n        /* \"contracts/Market.sol\":11838:11854  pairsInfo[_pair] */\n      0x20\n      mstore\n      0x40\n      swap1\n      keccak256\n        /* \"contracts/Market.sol\":11838:11862  pairsInfo[_pair].amountA */\n      0x02\n      add\n      sload\n        /* \"contracts/Market.sol\":11838:11917  pairsInfo[_pair].amountA + (pairsInfo[_pair].amountB * (100 - app.vig()) / 100) */\n      tag_392\n      swap2\n      swap1\n      tag_229\n      jump\t// in\n    tag_392:\n        /* \"contracts/Market.sol\":11826:11917  winAmount = pairsInfo[_pair].amountA + (pairsInfo[_pair].amountB * (100 - app.vig()) / 100) */\n      swap2\n      pop\n        /* \"contracts/Market.sol\":11982:11985  100 */\n      0x64\n        /* \"contracts/Market.sol\":11970:11973  app */\n      0x0a\n      0x00\n      swap1\n      sload\n      swap1\n      0x0100\n      exp\n      swap1\n      div\n      sub(shl(0xa0, 0x01), 0x01)\n      and\n      sub(shl(0xa0, 0x01), 0x01)\n        /* \"contracts/Market.sol\":11970:11977  app.vig */\n      and\n      0x55c4a8bf\n        /* \"contracts/Market.sol\":11970:11979  app.vig() */\n      mload(0x40)\n      dup2\n      0xffffffff\n      and\n      0xe0\n      shl\n      dup2\n      mstore\n      0x04\n      add\n      0x20\n      mload(0x40)\n      dup1\n      dup4\n      sub\n      dup2\n      dup7\n      dup1\n      extcodesize\n      iszero\n      dup1\n      iszero\n      tag_393\n      jumpi\n      0x00\n      dup1\n      revert\n    tag_393:\n      pop\n      gas\n      staticcall\n      iszero\n      dup1\n      iszero\n      tag_395\n      jumpi\n      returndatasize\n      0x00\n      dup1\n      returndatacopy\n      revert(0x00, returndatasize)\n    tag_395:\n      pop\n      pop\n      pop\n      pop\n      mload(0x40)\n      returndatasize\n      not(0x1f)\n      0x1f\n      dup3\n      add\n      and\n      dup3\n      add\n      dup1\n      0x40\n      mstore\n      pop\n      dup2\n      add\n      swap1\n      tag_396\n      swap2\n      swap1\n      tag_108\n      jump\t// in\n    tag_396:\n        /* \"contracts/Market.sol\":11943:11959  pairsInfo[_pair] */\n      0x00\n      dup9\n      dup2\n      mstore\n        /* \"contracts/Market.sol\":11943:11952  pairsInfo */\n      0x08\n        /* \"contracts/Market.sol\":11943:11959  pairsInfo[_pair] */\n      0x20\n      mstore\n      0x40\n      swap1\n      keccak256\n        /* \"contracts/Market.sol\":11943:11967  pairsInfo[_pair].amountB */\n      0x03\n      add\n      sload\n        /* \"contracts/Market.sol\":11943:11979  pairsInfo[_pair].amountB * app.vig() */\n      tag_397\n      swap2\n      swap1\n      tag_190\n      jump\t// in\n    tag_397:\n        /* \"contracts/Market.sol\":11943:11985  pairsInfo[_pair].amountB * app.vig() / 100 */\n      tag_398\n      swap2\n      swap1\n      tag_192\n      jump\t// in\n    tag_398:\n        /* \"contracts/Market.sol\":12011:12046  betsInfo[pairsInfo[_pair].betHashA] */\n      0x00\n        /* \"contracts/Market.sol\":12020:12036  pairsInfo[_pair] */\n      dup8\n      dup2\n      mstore\n        /* \"contracts/Market.sol\":12020:12029  pairsInfo */\n      0x08\n        /* \"contracts/Market.sol\":12020:12036  pairsInfo[_pair] */\n      0x20\n      swap1\n      dup2\n      mstore\n      0x40\n      dup1\n      dup4\n      keccak256\n        /* \"contracts/Market.sol\":12020:12045  pairsInfo[_pair].betHashA */\n      sload\n        /* \"contracts/Market.sol\":12011:12046  betsInfo[pairsInfo[_pair].betHashA] */\n      dup4\n      mstore\n        /* \"contracts/Market.sol\":12011:12019  betsInfo */\n      0x06\n        /* \"contracts/Market.sol\":12011:12046  betsInfo[pairsInfo[_pair].betHashA] */\n      swap1\n      swap2\n      mstore\n      swap1\n      keccak256\n        /* \"contracts/Market.sol\":12011:12056  betsInfo[pairsInfo[_pair].betHashA].affiliate */\n      0x01\n      add\n      sload\n      sub(shl(0xa0, 0x01), 0x01)\n      and\n      swap4\n      pop\n        /* \"contracts/Market.sol\":11931:11985  vigAmount = pairsInfo[_pair].amountB * app.vig() / 100 */\n      swap1\n      pop\n        /* \"contracts/Market.sol\":11732:12466  if(status == 1){... */\n      jump(tag_415)\n    tag_384:\n        /* \"contracts/Market.sol\":12084:12090  status */\n      sload(0x02)\n        /* \"contracts/Market.sol\":12094:12095  2 */\n      0x02\n        /* \"contracts/Market.sol\":12084:12095  status == 2 */\n      eq\n        /* \"contracts/Market.sol\":12081:12466  if(status == 2){... */\n      iszero\n      tag_400\n      jumpi\n        /* \"contracts/Market.sol\":12119:12154  betsInfo[pairsInfo[_pair].betHashB] */\n      0x00\n        /* \"contracts/Market.sol\":12128:12144  pairsInfo[_pair] */\n      dup7\n      dup2\n      mstore\n        /* \"contracts/Market.sol\":12128:12137  pairsInfo */\n      0x08\n        /* \"contracts/Market.sol\":12128:12144  pairsInfo[_pair] */\n      0x20\n      swap1\n      dup2\n      mstore\n      0x40\n      dup1\n      dup4\n      keccak256\n        /* \"contracts/Market.sol\":12128:12153  pairsInfo[_pair].betHashB */\n      0x01\n      add\n      sload\n        /* \"contracts/Market.sol\":12119:12154  betsInfo[pairsInfo[_pair].betHashB] */\n      dup4\n      mstore\n        /* \"contracts/Market.sol\":12119:12127  betsInfo */\n      0x06\n        /* \"contracts/Market.sol\":12119:12154  betsInfo[pairsInfo[_pair].betHashB] */\n      dup3\n      mstore\n      swap2\n      dup3\n      swap1\n      keccak256\n        /* \"contracts/Market.sol\":12119:12161  betsInfo[pairsInfo[_pair].betHashB].better */\n      sload\n        /* \"contracts/Market.sol\":12249:12252  app */\n      sload(0x0a)\n        /* \"contracts/Market.sol\":12249:12258  app.vig() */\n      dup4\n      mload\n      shl(0xe0, 0x55c4a8bf)\n      dup2\n      mstore\n      swap4\n      mload\n      sub(shl(0xa0, 0x01), 0x01)\n        /* \"contracts/Market.sol\":12119:12161  betsInfo[pairsInfo[_pair].betHashB].better */\n      swap3\n      dup4\n      and\n      swap9\n      pop\n        /* \"contracts/Market.sol\":12262:12265  100 */\n      0x64\n      swap5\n        /* \"contracts/Market.sol\":12249:12252  app */\n      swap2\n      swap1\n      swap3\n      and\n      swap3\n        /* \"contracts/Market.sol\":12249:12256  app.vig */\n      0x55c4a8bf\n      swap3\n        /* \"contracts/Market.sol\":12249:12258  app.vig() */\n      0x04\n      dup1\n      dup5\n      add\n      swap4\n      dup3\n      swap1\n      sub\n      add\n      dup2\n        /* \"contracts/Market.sol\":12249:12252  app */\n      dup7\n        /* \"contracts/Market.sol\":12249:12258  app.vig() */\n      dup1\n      extcodesize\n      iszero\n      dup1\n      iszero\n      tag_401\n      jumpi\n      0x00\n      dup1\n      revert\n    tag_401:\n      pop\n      gas\n      staticcall\n      iszero\n      dup1\n      iszero\n      tag_403\n      jumpi\n      returndatasize\n      0x00\n      dup1\n      returndatacopy\n      revert(0x00, returndatasize)\n    tag_403:\n      pop\n      pop\n      pop\n      pop\n      mload(0x40)\n      returndatasize\n      not(0x1f)\n      0x1f\n      dup3\n      add\n      and\n      dup3\n      add\n      dup1\n      0x40\n      mstore\n      pop\n      dup2\n      add\n      swap1\n      tag_404\n      swap2\n      swap1\n      tag_108\n      jump\t// in\n    tag_404:\n        /* \"contracts/Market.sol\":12243:12258  100 - app.vig() */\n      tag_405\n      swap1\n        /* \"contracts/Market.sol\":12243:12246  100 */\n      0x64\n        /* \"contracts/Market.sol\":12243:12258  100 - app.vig() */\n      tag_188\n      jump\t// in\n    tag_405:\n        /* \"contracts/Market.sol\":12215:12231  pairsInfo[_pair] */\n      0x00\n      dup9\n      dup2\n      mstore\n        /* \"contracts/Market.sol\":12215:12224  pairsInfo */\n      0x08\n        /* \"contracts/Market.sol\":12215:12231  pairsInfo[_pair] */\n      0x20\n      mstore\n      0x40\n      swap1\n      keccak256\n        /* \"contracts/Market.sol\":12215:12239  pairsInfo[_pair].amountA */\n      0x02\n      add\n      sload\n        /* \"contracts/Market.sol\":12215:12259  pairsInfo[_pair].amountA * (100 - app.vig()) */\n      tag_406\n      swap2\n      swap1\n      tag_190\n      jump\t// in\n    tag_406:\n        /* \"contracts/Market.sol\":12215:12265  pairsInfo[_pair].amountA * (100 - app.vig()) / 100 */\n      tag_407\n      swap2\n      swap1\n      tag_192\n      jump\t// in\n    tag_407:\n        /* \"contracts/Market.sol\":12187:12203  pairsInfo[_pair] */\n      0x00\n      dup8\n      dup2\n      mstore\n        /* \"contracts/Market.sol\":12187:12196  pairsInfo */\n      0x08\n        /* \"contracts/Market.sol\":12187:12203  pairsInfo[_pair] */\n      0x20\n      mstore\n      0x40\n      swap1\n      keccak256\n        /* \"contracts/Market.sol\":12187:12211  pairsInfo[_pair].amountB */\n      0x03\n      add\n      sload\n        /* \"contracts/Market.sol\":12187:12266  pairsInfo[_pair].amountB + (pairsInfo[_pair].amountA * (100 - app.vig()) / 100) */\n      tag_408\n      swap2\n      swap1\n      tag_229\n      jump\t// in\n    tag_408:\n        /* \"contracts/Market.sol\":12175:12266  winAmount = pairsInfo[_pair].amountB + (pairsInfo[_pair].amountA * (100 - app.vig()) / 100) */\n      swap2\n      pop\n        /* \"contracts/Market.sol\":12331:12334  100 */\n      0x64\n        /* \"contracts/Market.sol\":12319:12322  app */\n      0x0a\n      0x00\n      swap1\n      sload\n      swap1\n      0x0100\n      exp\n      swap1\n      div\n      sub(shl(0xa0, 0x01), 0x01)\n      and\n      sub(shl(0xa0, 0x01), 0x01)\n        /* \"contracts/Market.sol\":12319:12326  app.vig */\n      and\n      0x55c4a8bf\n        /* \"contracts/Market.sol\":12319:12328  app.vig() */\n      mload(0x40)\n      dup2\n      0xffffffff\n      and\n      0xe0\n      shl\n      dup2\n      mstore\n      0x04\n      add\n      0x20\n      mload(0x40)\n      dup1\n      dup4\n      sub\n      dup2\n      dup7\n      dup1\n      extcodesize\n      iszero\n      dup1\n      iszero\n      tag_409\n      jumpi\n      0x00\n      dup1\n      revert\n    tag_409:\n      pop\n      gas\n      staticcall\n      iszero\n      dup1\n      iszero\n      tag_411\n      jumpi\n      returndatasize\n      0x00\n      dup1\n      returndatacopy\n      revert(0x00, returndatasize)\n    tag_411:\n      pop\n      pop\n      pop\n      pop\n      mload(0x40)\n      returndatasize\n      not(0x1f)\n      0x1f\n      dup3\n      add\n      and\n      dup3\n      add\n      dup1\n      0x40\n      mstore\n      pop\n      dup2\n      add\n      swap1\n      tag_412\n      swap2\n      swap1\n      tag_108\n      jump\t// in\n    tag_412:\n        /* \"contracts/Market.sol\":12292:12308  pairsInfo[_pair] */\n      0x00\n      dup9\n      dup2\n      mstore\n        /* \"contracts/Market.sol\":12292:12301  pairsInfo */\n      0x08\n        /* \"contracts/Market.sol\":12292:12308  pairsInfo[_pair] */\n      0x20\n      mstore\n      0x40\n      swap1\n      keccak256\n        /* \"contracts/Market.sol\":12292:12316  pairsInfo[_pair].amountA */\n      0x02\n      add\n      sload\n        /* \"contracts/Market.sol\":12292:12328  pairsInfo[_pair].amountA * app.vig() */\n      tag_413\n      swap2\n      swap1\n      tag_190\n      jump\t// in\n    tag_413:\n        /* \"contracts/Market.sol\":12292:12334  pairsInfo[_pair].amountA * app.vig() / 100 */\n      tag_414\n      swap2\n      swap1\n      tag_192\n      jump\t// in\n    tag_414:\n        /* \"contracts/Market.sol\":12360:12395  betsInfo[pairsInfo[_pair].betHashB] */\n      0x00\n        /* \"contracts/Market.sol\":12369:12385  pairsInfo[_pair] */\n      dup8\n      dup2\n      mstore\n        /* \"contracts/Market.sol\":12369:12378  pairsInfo */\n      0x08\n        /* \"contracts/Market.sol\":12369:12385  pairsInfo[_pair] */\n      0x20\n      swap1\n      dup2\n      mstore\n      0x40\n      dup1\n      dup4\n      keccak256\n        /* \"contracts/Market.sol\":12369:12394  pairsInfo[_pair].betHashB */\n      0x01\n      swap1\n      dup2\n      add\n      sload\n        /* \"contracts/Market.sol\":12360:12395  betsInfo[pairsInfo[_pair].betHashB] */\n      dup5\n      mstore\n        /* \"contracts/Market.sol\":12360:12368  betsInfo */\n      0x06\n        /* \"contracts/Market.sol\":12360:12395  betsInfo[pairsInfo[_pair].betHashB] */\n      swap1\n      swap3\n      mstore\n      swap1\n      swap2\n      keccak256\n        /* \"contracts/Market.sol\":12360:12405  betsInfo[pairsInfo[_pair].betHashB].affiliate */\n      add\n      sload\n      sub(shl(0xa0, 0x01), 0x01)\n      and\n      swap4\n      pop\n        /* \"contracts/Market.sol\":12280:12334  vigAmount = pairsInfo[_pair].amountA * app.vig() / 100 */\n      swap1\n      pop\n        /* \"contracts/Market.sol\":12081:12466  if(status == 2){... */\n      jump(tag_415)\n    tag_400:\n        /* \"contracts/Market.sol\":12450:12455  false */\n      0x00\n        /* \"contracts/Market.sol\":12443:12455  return false */\n      swap5\n      pop\n      pop\n      pop\n      pop\n      pop\n      jump(tag_101)\n        /* \"contracts/Market.sol\":12081:12466  if(status == 2){... */\n    tag_415:\n      sub(shl(0xa0, 0x01), 0x01)\n        /* \"contracts/Market.sol\":12475:12486  bal[winner] */\n      dup5\n      and\n      0x00\n      swap1\n      dup2\n      mstore\n        /* \"contracts/Market.sol\":12475:12478  bal */\n      0x05\n        /* \"contracts/Market.sol\":12475:12486  bal[winner] */\n      0x20\n      mstore\n      0x40\n      dup2\n      keccak256\n        /* \"contracts/Market.sol\":12475:12499  bal[winner] += winAmount */\n      dup1\n      sload\n        /* \"contracts/Market.sol\":12490:12499  winAmount */\n      dup5\n      swap3\n        /* \"contracts/Market.sol\":12475:12486  bal[winner] */\n      swap1\n        /* \"contracts/Market.sol\":12475:12499  bal[winner] += winAmount */\n      tag_416\n      swap1\n        /* \"contracts/Market.sol\":12490:12499  winAmount */\n      dup5\n      swap1\n        /* \"contracts/Market.sol\":12475:12499  bal[winner] += winAmount */\n      tag_229\n      jump\t// in\n    tag_416:\n      swap1\n      swap2\n      sstore\n      pop\n      pop\n        /* \"contracts/Market.sol\":12544:12547  app */\n      sload(0x0a)\n        /* \"contracts/Market.sol\":12544:12554  app.hVig() */\n      0x40\n      dup1\n      mload\n      shl(0xe0, 0x6a0ccd9d)\n      dup2\n      mstore\n      swap1\n      mload\n        /* \"contracts/Market.sol\":12557:12560  100 */\n      0x64\n      swap3\n      sub(shl(0xa0, 0x01), 0x01)\n        /* \"contracts/Market.sol\":12544:12547  app */\n      and\n      swap2\n        /* \"contracts/Market.sol\":12544:12552  app.hVig */\n      0x6a0ccd9d\n      swap2\n        /* \"contracts/Market.sol\":12544:12554  app.hVig() */\n      0x04\n      dup1\n      dup4\n      add\n      swap3\n      0x20\n      swap3\n      swap2\n      swap1\n      dup3\n      swap1\n      sub\n      add\n      dup2\n        /* \"contracts/Market.sol\":12544:12547  app */\n      dup7\n        /* \"contracts/Market.sol\":12544:12554  app.hVig() */\n      dup1\n      extcodesize\n      iszero\n      dup1\n      iszero\n      tag_417\n      jumpi\n      0x00\n      dup1\n      revert\n    tag_417:\n      pop\n      gas\n      staticcall\n      iszero\n      dup1\n      iszero\n      tag_419\n      jumpi\n      returndatasize\n      0x00\n      dup1\n      returndatacopy\n      revert(0x00, returndatasize)\n    tag_419:\n      pop\n      pop\n      pop\n      pop\n      mload(0x40)\n      returndatasize\n      not(0x1f)\n      0x1f\n      dup3\n      add\n      and\n      dup3\n      add\n      dup1\n      0x40\n      mstore\n      pop\n      dup2\n      add\n      swap1\n      tag_420\n      swap2\n      swap1\n      tag_108\n      jump\t// in\n    tag_420:\n        /* \"contracts/Market.sol\":12532:12554  vigAmount * app.hVig() */\n      tag_421\n      swap1\n        /* \"contracts/Market.sol\":12532:12541  vigAmount */\n      dup4\n        /* \"contracts/Market.sol\":12532:12554  vigAmount * app.hVig() */\n      tag_190\n      jump\t// in\n    tag_421:\n        /* \"contracts/Market.sol\":12532:12560  vigAmount * app.hVig() / 100 */\n      tag_422\n      swap2\n      swap1\n      tag_192\n      jump\t// in\n    tag_422:\n        /* \"contracts/Market.sol\":12509:12512  bal */\n      0x05\n        /* \"contracts/Market.sol\":12509:12528  bal[app.holdAddr()] */\n      0x00\n        /* \"contracts/Market.sol\":12513:12516  app */\n      0x0a\n      0x00\n      swap1\n      sload\n      swap1\n      0x0100\n      exp\n      swap1\n      div\n      sub(shl(0xa0, 0x01), 0x01)\n      and\n      sub(shl(0xa0, 0x01), 0x01)\n        /* \"contracts/Market.sol\":12513:12525  app.holdAddr */\n      and\n      0xb7640a54\n        /* \"contracts/Market.sol\":12513:12527  app.holdAddr() */\n      mload(0x40)\n      dup2\n      0xffffffff\n      and\n      0xe0\n      shl\n      dup2\n      mstore\n      0x04\n      add\n      0x20\n      mload(0x40)\n      dup1\n      dup4\n      sub\n      dup2\n      dup7\n      dup1\n      extcodesize\n      iszero\n      dup1\n      iszero\n      tag_423\n      jumpi\n      0x00\n      dup1\n      revert\n    tag_423:\n      pop\n      gas\n      staticcall\n      iszero\n      dup1\n      iszero\n      tag_425\n      jumpi\n      returndatasize\n      0x00\n      dup1\n      returndatacopy\n      revert(0x00, returndatasize)\n    tag_425:\n      pop\n      pop\n      pop\n      pop\n      mload(0x40)\n      returndatasize\n      not(0x1f)\n      0x1f\n      dup3\n      add\n      and\n      dup3\n      add\n      dup1\n      0x40\n      mstore\n      pop\n      dup2\n      add\n      swap1\n      tag_426\n      swap2\n      swap1\n      tag_238\n      jump\t// in\n    tag_426:\n      sub(shl(0xa0, 0x01), 0x01)\n        /* \"contracts/Market.sol\":12509:12528  bal[app.holdAddr()] */\n      and\n      sub(shl(0xa0, 0x01), 0x01)\n      and\n      dup2\n      mstore\n      0x20\n      add\n      swap1\n      dup2\n      mstore\n      0x20\n      add\n      0x00\n      keccak256\n      0x00\n        /* \"contracts/Market.sol\":12509:12560  bal[app.holdAddr()] += vigAmount * app.hVig() / 100 */\n      dup3\n      dup3\n      sload\n      tag_427\n      swap2\n      swap1\n      tag_229\n      jump\t// in\n    tag_427:\n      swap1\n      swap2\n      sstore\n      pop\n      pop\n        /* \"contracts/Market.sol\":12604:12607  app */\n      sload(0x0a)\n        /* \"contracts/Market.sol\":12604:12614  app.eVig() */\n      0x40\n      dup1\n      mload\n      shl(0xe0, 0x28576d45)\n      dup2\n      mstore\n      swap1\n      mload\n        /* \"contracts/Market.sol\":12617:12620  100 */\n      0x64\n      swap3\n      sub(shl(0xa0, 0x01), 0x01)\n        /* \"contracts/Market.sol\":12604:12607  app */\n      and\n      swap2\n        /* \"contracts/Market.sol\":12604:12612  app.eVig */\n      0x28576d45\n      swap2\n        /* \"contracts/Market.sol\":12604:12614  app.eVig() */\n      0x04\n      dup1\n      dup4\n      add\n      swap3\n      0x20\n      swap3\n      swap2\n      swap1\n      dup3\n      swap1\n      sub\n      add\n      dup2\n        /* \"contracts/Market.sol\":12604:12607  app */\n      dup7\n        /* \"contracts/Market.sol\":12604:12614  app.eVig() */\n      dup1\n      extcodesize\n      iszero\n      dup1\n      iszero\n      tag_428\n      jumpi\n      0x00\n      dup1\n      revert\n    tag_428:\n      pop\n      gas\n      staticcall\n      iszero\n      dup1\n      iszero\n      tag_430\n      jumpi\n      returndatasize\n      0x00\n      dup1\n      returndatacopy\n      revert(0x00, returndatasize)\n    tag_430:\n      pop\n      pop\n      pop\n      pop\n      mload(0x40)\n      returndatasize\n      not(0x1f)\n      0x1f\n      dup3\n      add\n      and\n      dup3\n      add\n      dup1\n      0x40\n      mstore\n      pop\n      dup2\n      add\n      swap1\n      tag_431\n      swap2\n      swap1\n      tag_108\n      jump\t// in\n    tag_431:\n        /* \"contracts/Market.sol\":12592:12614  vigAmount * app.eVig() */\n      tag_432\n      swap1\n        /* \"contracts/Market.sol\":12592:12601  vigAmount */\n      dup4\n        /* \"contracts/Market.sol\":12592:12614  vigAmount * app.eVig() */\n      tag_190\n      jump\t// in\n    tag_432:\n        /* \"contracts/Market.sol\":12592:12620  vigAmount * app.eVig() / 100 */\n      tag_433\n      swap2\n      swap1\n      tag_192\n      jump\t// in\n    tag_433:\n        /* \"contracts/Market.sol\":12570:12573  bal */\n      0x05\n        /* \"contracts/Market.sol\":12570:12588  bal[app.ecoAddr()] */\n      0x00\n        /* \"contracts/Market.sol\":12574:12577  app */\n      0x0a\n      0x00\n      swap1\n      sload\n      swap1\n      0x0100\n      exp\n      swap1\n      div\n      sub(shl(0xa0, 0x01), 0x01)\n      and\n      sub(shl(0xa0, 0x01), 0x01)\n        /* \"contracts/Market.sol\":12574:12585  app.ecoAddr */\n      and\n      0x09953b2f\n        /* \"contracts/Market.sol\":12574:12587  app.ecoAddr() */\n      mload(0x40)\n      dup2\n      0xffffffff\n      and\n      0xe0\n      shl\n      dup2\n      mstore\n      0x04\n      add\n      0x20\n      mload(0x40)\n      dup1\n      dup4\n      sub\n      dup2\n      dup7\n      dup1\n      extcodesize\n      iszero\n      dup1\n      iszero\n      tag_434\n      jumpi\n      0x00\n      dup1\n      revert\n    tag_434:\n      pop\n      gas\n      staticcall\n      iszero\n      dup1\n      iszero\n      tag_436\n      jumpi\n      returndatasize\n      0x00\n      dup1\n      returndatacopy\n      revert(0x00, returndatasize)\n    tag_436:\n      pop\n      pop\n      pop\n      pop\n      mload(0x40)\n      returndatasize\n      not(0x1f)\n      0x1f\n      dup3\n      add\n      and\n      dup3\n      add\n      dup1\n      0x40\n      mstore\n      pop\n      dup2\n      add\n      swap1\n      tag_437\n      swap2\n      swap1\n      tag_238\n      jump\t// in\n    tag_437:\n      sub(shl(0xa0, 0x01), 0x01)\n        /* \"contracts/Market.sol\":12570:12588  bal[app.ecoAddr()] */\n      and\n      sub(shl(0xa0, 0x01), 0x01)\n      and\n      dup2\n      mstore\n      0x20\n      add\n      swap1\n      dup2\n      mstore\n      0x20\n      add\n      0x00\n      keccak256\n      0x00\n        /* \"contracts/Market.sol\":12570:12620  bal[app.ecoAddr()] += vigAmount * app.eVig() / 100 */\n      dup3\n      dup3\n      sload\n      tag_438\n      swap2\n      swap1\n      tag_229\n      jump\t// in\n    tag_438:\n      swap1\n      swap2\n      sstore\n      pop\n      pop\n        /* \"contracts/Market.sol\":12660:12663  app */\n      sload(0x0a)\n        /* \"contracts/Market.sol\":12660:12670  app.aVig() */\n      0x40\n      dup1\n      mload\n      shl(0xe2, 0x15334697)\n      dup2\n      mstore\n      swap1\n      mload\n        /* \"contracts/Market.sol\":12673:12676  100 */\n      0x64\n      swap3\n      sub(shl(0xa0, 0x01), 0x01)\n        /* \"contracts/Market.sol\":12660:12663  app */\n      and\n      swap2\n        /* \"contracts/Market.sol\":12660:12668  app.aVig */\n      0x54cd1a5c\n      swap2\n        /* \"contracts/Market.sol\":12660:12670  app.aVig() */\n      0x04\n      dup1\n      dup4\n      add\n      swap3\n      0x20\n      swap3\n      swap2\n      swap1\n      dup3\n      swap1\n      sub\n      add\n      dup2\n        /* \"contracts/Market.sol\":12660:12663  app */\n      dup7\n        /* \"contracts/Market.sol\":12660:12670  app.aVig() */\n      dup1\n      extcodesize\n      iszero\n      dup1\n      iszero\n      tag_439\n      jumpi\n      0x00\n      dup1\n      revert\n    tag_439:\n      pop\n      gas\n      staticcall\n      iszero\n      dup1\n      iszero\n      tag_441\n      jumpi\n      returndatasize\n      0x00\n      dup1\n      returndatacopy\n      revert(0x00, returndatasize)\n    tag_441:\n      pop\n      pop\n      pop\n      pop\n      mload(0x40)\n      returndatasize\n      not(0x1f)\n      0x1f\n      dup3\n      add\n      and\n      dup3\n      add\n      dup1\n      0x40\n      mstore\n      pop\n      dup2\n      add\n      swap1\n      tag_442\n      swap2\n      swap1\n      tag_108\n      jump\t// in\n    tag_442:\n        /* \"contracts/Market.sol\":12648:12670  vigAmount * app.aVig() */\n      tag_443\n      swap1\n        /* \"contracts/Market.sol\":12648:12657  vigAmount */\n      dup4\n        /* \"contracts/Market.sol\":12648:12670  vigAmount * app.aVig() */\n      tag_190\n      jump\t// in\n    tag_443:\n        /* \"contracts/Market.sol\":12648:12676  vigAmount * app.aVig() / 100 */\n      tag_444\n      swap2\n      swap1\n      tag_192\n      jump\t// in\n    tag_444:\n      sub(shl(0xa0, 0x01), 0x01)\n        /* \"contracts/Market.sol\":12630:12644  bal[affiliate] */\n      dup5\n      and\n      0x00\n      swap1\n      dup2\n      mstore\n        /* \"contracts/Market.sol\":12630:12633  bal */\n      0x05\n        /* \"contracts/Market.sol\":12630:12644  bal[affiliate] */\n      0x20\n      mstore\n      0x40\n      dup2\n      keccak256\n        /* \"contracts/Market.sol\":12630:12676  bal[affiliate] += vigAmount * app.aVig() / 100 */\n      dup1\n      sload\n        /* \"contracts/Market.sol\":12630:12644  bal[affiliate] */\n      swap1\n      swap2\n      swap1\n        /* \"contracts/Market.sol\":12630:12676  bal[affiliate] += vigAmount * app.aVig() / 100 */\n      tag_445\n      swap1\n      dup5\n      swap1\n      tag_229\n      jump\t// in\n    tag_445:\n      swap1\n      swap2\n      sstore\n      pop\n      pop\n      pop\n        /* \"contracts/Market.sol\":12686:12702  pairsInfo[_pair] */\n      0x00\n      swap5\n      dup6\n      mstore\n      pop\n      pop\n        /* \"contracts/Market.sol\":12686:12695  pairsInfo */\n      0x08\n        /* \"contracts/Market.sol\":12686:12702  pairsInfo[_pair] */\n      0x20\n      mstore\n      pop\n      pop\n      0x40\n      dup2\n      keccak256\n        /* \"contracts/Market.sol\":12686:12710  pairsInfo[_pair].settled */\n      0x04\n      add\n        /* \"contracts/Market.sol\":12686:12717  pairsInfo[_pair].settled = true */\n      dup1\n      sload\n      not(0xff)\n      and\n        /* \"contracts/Market.sol\":12713:12717  true */\n      0x01\n        /* \"contracts/Market.sol\":12686:12717  pairsInfo[_pair].settled = true */\n      swap1\n      dup2\n      or\n      swap1\n      swap2\n      sstore\n        /* \"@openzeppelin/contracts/security/ReentrancyGuard.sol\":2628:2650  _status = _NOT_ENTERED */\n      swap1\n      dup2\n      swap1\n      sstore\n        /* \"contracts/Market.sol\":12713:12717  true */\n      swap1\n        /* \"contracts/Market.sol\":11472:12745  function _settlePair(bytes32 _pair) private nonReentrant returns(bool) {... */\n      jump\t// out\n        /* \"contracts/Market.sol\":12751:13653  function _createBet(... */\n    tag_193:\n        /* \"contracts/Market.sol\":12950:12957  bytes32 */\n      0x00\n        /* \"contracts/Market.sol\":12973:12988  bytes32 betHash */\n      dup1\n        /* \"contracts/Market.sol\":12998:13004  uint i */\n      0x00\n        /* \"contracts/Market.sol\":13018:13367  while(i >= 0){... */\n    tag_447:\n        /* \"contracts/Market.sol\":13155:13159  bets */\n      0x04\n        /* \"contracts/Market.sol\":13155:13166  bets.length */\n      sload\n        /* \"contracts/Market.sol\":13099:13106  _better */\n      dup10\n      swap1\n        /* \"contracts/Market.sol\":13132:13136  this */\n      address\n      swap1\n        /* \"contracts/Market.sol\":13173:13174  i */\n      dup4\n      swap1\n        /* \"contracts/Market.sol\":13155:13170  bets.length + 1 */\n      tag_449\n      swap1\n        /* \"contracts/Market.sol\":13169:13170  1 */\n      0x01\n        /* \"contracts/Market.sol\":13155:13170  bets.length + 1 */\n      tag_229\n      jump\t// in\n    tag_449:\n        /* \"contracts/Market.sol\":13155:13174  bets.length + 1 + i */\n      tag_450\n      swap2\n      swap1\n      tag_229\n      jump\t// in\n    tag_450:\n        /* \"contracts/Market.sol\":13065:13255  abi.encodePacked(... */\n      mload(0x40)\n      not(0xffffffffffffffffffffffff)\n        /* \"#utility.yul\":2447:2449   */\n      0x60\n        /* \"#utility.yul\":2443:2458   */\n      swap5\n      dup6\n      shl\n        /* \"#utility.yul\":2439:2463   */\n      dup2\n      and\n        /* \"contracts/Market.sol\":13065:13255  abi.encodePacked(... */\n      0x20\n      dup4\n      add\n        /* \"#utility.yul\":2427:2464   */\n      mstore\n        /* \"#utility.yul\":2498:2513   */\n      swap3\n      swap1\n      swap4\n      shl\n        /* \"#utility.yul\":2494:2518   */\n      swap1\n      swap2\n      and\n        /* \"#utility.yul\":2480:2492   */\n      0x34\n      dup4\n      add\n        /* \"#utility.yul\":2473:2519   */\n      mstore\n        /* \"#utility.yul\":2535:2547   */\n      0x48\n      dup3\n      add\n        /* \"#utility.yul\":2528:2556   */\n      mstore\n        /* \"contracts/Market.sol\":13192:13207  block.timestamp */\n      timestamp\n        /* \"#utility.yul\":2572:2584   */\n      0x68\n      dup3\n      add\n        /* \"#utility.yul\":2565:2593   */\n      mstore\n        /* \"contracts/Market.sol\":13225:13241  block.difficulty */\n      difficulty\n        /* \"#utility.yul\":2609:2622   */\n      0x88\n      dup3\n      add\n        /* \"#utility.yul\":2602:2631   */\n      mstore\n        /* \"#utility.yul\":2647:2660   */\n      0xa8\n      add\n        /* \"contracts/Market.sol\":13065:13255  abi.encodePacked(... */\n      0x40\n      dup1\n      mload\n      not(0x1f)\n      dup2\n      dup5\n      sub\n      add\n      dup2\n      mstore\n      swap2\n      dup2\n      mstore\n        /* \"contracts/Market.sol\":13055:13256  keccak256(abi.encodePacked(... */\n      dup2\n      mload\n        /* \"contracts/Market.sol\":13065:13255  abi.encodePacked(... */\n      0x20\n        /* \"contracts/Market.sol\":13055:13256  keccak256(abi.encodePacked(... */\n      swap3\n      dup4\n      add\n      keccak256\n        /* \"contracts/Market.sol\":13273:13290  betsInfo[betHash] */\n      0x00\n      dup2\n      dup2\n      mstore\n        /* \"contracts/Market.sol\":13273:13281  betsInfo */\n      0x06\n        /* \"contracts/Market.sol\":13273:13290  betsInfo[betHash] */\n      swap1\n      swap4\n      mstore\n      swap2\n      keccak256\n        /* \"contracts/Market.sol\":13273:13296  betsInfo[betHash].stake */\n      0x02\n      add\n      sload\n        /* \"contracts/Market.sol\":13055:13256  keccak256(abi.encodePacked(... */\n      swap1\n      swap3\n      pop\n        /* \"contracts/Market.sol\":13270:13340  if(betsInfo[betHash].stake == 0){... */\n      tag_453\n      jumpi\n        /* \"contracts/Market.sol\":13320:13325  break */\n      jump(tag_448)\n        /* \"contracts/Market.sol\":13270:13340  if(betsInfo[betHash].stake == 0){... */\n    tag_453:\n        /* \"contracts/Market.sol\":13353:13356  i++ */\n      dup1\n      tag_454\n      dup2\n      tag_134\n      jump\t// in\n    tag_454:\n      swap2\n      pop\n      pop\n        /* \"contracts/Market.sol\":13018:13367  while(i >= 0){... */\n      jump(tag_447)\n    tag_448:\n      sub(shl(0xa0, 0x01), 0x01)\n        /* \"contracts/Market.sol\":13379:13403  _affiliate == address(0) */\n      dup9\n      and\n        /* \"contracts/Market.sol\":13376:13455  if(_affiliate == address(0)){... */\n      tag_455\n      jumpi\n        /* \"contracts/Market.sol\":13431:13434  app */\n      0x0a\n      0x00\n      swap1\n      sload\n      swap1\n      0x0100\n      exp\n      swap1\n      div\n      sub(shl(0xa0, 0x01), 0x01)\n      and\n      sub(shl(0xa0, 0x01), 0x01)\n        /* \"contracts/Market.sol\":13431:13442  app.ecoAddr */\n      and\n      0x09953b2f\n        /* \"contracts/Market.sol\":13431:13444  app.ecoAddr() */\n      mload(0x40)\n      dup2\n      0xffffffff\n      and\n      0xe0\n      shl\n      dup2\n      mstore\n      0x04\n      add\n      0x20\n      mload(0x40)\n      dup1\n      dup4\n      sub\n      dup2\n      dup7\n      dup1\n      extcodesize\n      iszero\n      dup1\n      iszero\n      tag_456\n      jumpi\n      0x00\n      dup1\n      revert\n    tag_456:\n      pop\n      gas\n      staticcall\n      iszero\n      dup1\n      iszero\n      tag_458\n      jumpi\n      returndatasize\n      0x00\n      dup1\n      returndatacopy\n      revert(0x00, returndatasize)\n    tag_458:\n      pop\n      pop\n      pop\n      pop\n      mload(0x40)\n      returndatasize\n      not(0x1f)\n      0x1f\n      dup3\n      add\n      and\n      dup3\n      add\n      dup1\n      0x40\n      mstore\n      pop\n      dup2\n      add\n      swap1\n      tag_459\n      swap2\n      swap1\n      tag_238\n      jump\t// in\n    tag_459:\n        /* \"contracts/Market.sol\":13418:13444  _affiliate = app.ecoAddr() */\n      swap8\n      pop\n        /* \"contracts/Market.sol\":13376:13455  if(_affiliate == address(0)){... */\n    tag_455:\n      pop\n        /* \"contracts/Market.sol\":13484:13553  Struct.MarketBet(_better, _affiliate, _stake, _matched, _odds, _side) */\n      0x40\n      dup1\n      mload\n      0xc0\n      dup2\n      add\n      dup3\n      mstore\n      sub(shl(0xa0, 0x01), 0x01)\n      swap10\n      dup11\n      and\n      dup1\n      dup3\n      mstore\n      swap9\n      dup11\n      and\n      0x20\n      dup1\n      dup4\n      add\n      swap2\n      dup3\n      mstore\n      dup3\n      dup5\n      add\n      swap10\n      dup11\n      mstore\n      0x60\n      dup4\n      add\n      swap9\n      dup10\n      mstore\n      0x80\n      dup4\n      add\n      swap8\n      dup9\n      mstore\n      0xa0\n      dup4\n      add\n      swap7\n      dup8\n      mstore\n      0x00\n        /* \"contracts/Market.sol\":13464:13481  betsInfo[betHash] */\n      dup6\n      dup2\n      mstore\n        /* \"contracts/Market.sol\":13464:13472  betsInfo */\n      0x06\n        /* \"contracts/Market.sol\":13464:13481  betsInfo[betHash] */\n      dup3\n      mstore\n      dup5\n      dup2\n      keccak256\n        /* \"contracts/Market.sol\":13464:13553  betsInfo[betHash] = Struct.MarketBet(_better, _affiliate, _stake, _matched, _odds, _side) */\n      swap4\n      mload\n      dup5\n      sload\n      swap1\n      dup15\n      and\n      not(sub(shl(0xa0, 0x01), 0x01))\n      swap2\n      dup3\n      and\n      or\n      dup6\n      sstore\n      swap3\n      mload\n      0x01\n      dup1\n      dup7\n      add\n      dup1\n      sload\n      swap3\n      swap1\n      swap16\n      and\n      swap2\n      swap1\n      swap5\n      and\n      or\n      swap1\n      swap13\n      sstore\n      swap9\n      mload\n      0x02\n      dup4\n      add\n      sstore\n      swap7\n      mload\n      0x03\n      dup3\n      add\n      sstore\n      swap5\n      mload\n      0x04\n      dup1\n      dup8\n      add\n      swap2\n      swap1\n      swap2\n      sstore\n      swap4\n      mload\n      0x05\n      swap1\n      swap6\n      add\n      swap5\n      swap1\n      swap5\n      sstore\n        /* \"contracts/Market.sol\":13563:13581  bets.push(betHash) */\n      dup3\n      sload\n      dup1\n      dup7\n      add\n      swap1\n      swap4\n      sstore\n      0x8a35acfbc15ff81a39ae7d344fd709f28e8600b4aa8c65c6b64bfe7fe36bd19b\n      swap1\n      swap3\n      add\n      dup3\n      swap1\n      sstore\n      pop\n        /* \"contracts/Market.sol\":13591:13608  userBets[_better] */\n      swap4\n      dup6\n      mstore\n        /* \"contracts/Market.sol\":13591:13599  userBets */\n      0x07\n        /* \"contracts/Market.sol\":13591:13608  userBets[_better] */\n      dup4\n      mstore\n      dup5\n      keccak256\n        /* \"contracts/Market.sol\":13591:13622  userBets[_better].push(betHash) */\n      dup1\n      sload\n      swap2\n      dup3\n      add\n      dup2\n      sstore\n      dup5\n      mstore\n      swap3\n      keccak256\n      swap1\n      swap2\n      add\n      dup2\n      swap1\n      sstore\n        /* \"contracts/Market.sol\":13464:13481  betsInfo[betHash] */\n      swap1\n        /* \"contracts/Market.sol\":12751:13653  function _createBet(... */\n      jump\t// out\n        /* \"contracts/Market.sol\":8237:9622  function _match(... */\n    tag_219:\n        /* \"contracts/Market.sol\":8434:8441  uint256 */\n      0x00\n        /* \"contracts/Market.sol\":8457:8477  uint256 betterAmount */\n      dup1\n        /* \"contracts/Market.sol\":8487:8506  uint256 makerAmount */\n      0x00\n        /* \"contracts/Market.sol\":8516:8532  bytes32 pairHash */\n      dup1\n        /* \"contracts/Market.sol\":8562:8568  _stake */\n      dup10\n        /* \"contracts/Market.sol\":8545:8558  _offeredStake */\n      dup10\n        /* \"contracts/Market.sol\":8545:8568  _offeredStake <= _stake */\n      gt\n        /* \"contracts/Market.sol\":8542:9388  if(_offeredStake <= _stake) {... */\n      tag_463\n      jumpi\n        /* \"contracts/Market.sol\":8599:8612  _offeredStake */\n      dup9\n      swap3\n      pop\n        /* \"contracts/Market.sol\":8657:8668  _odds - 100 */\n      tag_464\n        /* \"contracts/Market.sol\":8665:8668  100 */\n      0x64\n        /* \"contracts/Market.sol\":8657:8662  _odds */\n      dup10\n        /* \"contracts/Market.sol\":8657:8668  _odds - 100 */\n      tag_188\n      jump\t// in\n    tag_464:\n        /* \"contracts/Market.sol\":8640:8669  _offeredStake * (_odds - 100) */\n      tag_465\n      swap1\n        /* \"contracts/Market.sol\":8640:8653  _offeredStake */\n      dup11\n        /* \"contracts/Market.sol\":8640:8669  _offeredStake * (_odds - 100) */\n      tag_190\n      jump\t// in\n    tag_465:\n        /* \"contracts/Market.sol\":8626:8669  makerAmount = _offeredStake * (_odds - 100) */\n      swap2\n      pop\n        /* \"contracts/Market.sol\":8683:8701  makerAmount /= 100 */\n      tag_466\n        /* \"contracts/Market.sol\":8698:8701  100 */\n      0x64\n        /* \"contracts/Market.sol\":8626:8669  makerAmount = _offeredStake * (_odds - 100) */\n      dup4\n        /* \"contracts/Market.sol\":8683:8701  makerAmount /= 100 */\n      tag_192\n      jump\t// in\n    tag_466:\n      swap2\n      pop\n        /* \"contracts/Market.sol\":8718:8723  _side */\n      dup7\n        /* \"contracts/Market.sol\":8727:8728  1 */\n      0x01\n        /* \"contracts/Market.sol\":8718:8728  _side == 1 */\n      eq\n        /* \"contracts/Market.sol\":8715:8969  if(_side == 1){... */\n      iszero\n      tag_467\n      jumpi\n        /* \"contracts/Market.sol\":8758:8818  _createPair(_betHash,_selectedHash,betterAmount,makerAmount) */\n      tag_468\n        /* \"contracts/Market.sol\":8770:8778  _betHash */\n      dup7\n        /* \"contracts/Market.sol\":8779:8792  _selectedHash */\n      dup7\n        /* \"contracts/Market.sol\":8793:8805  betterAmount */\n      dup6\n        /* \"contracts/Market.sol\":8806:8817  makerAmount */\n      dup6\n        /* \"contracts/Market.sol\":8758:8769  _createPair */\n      tag_469\n        /* \"contracts/Market.sol\":8758:8818  _createPair(_betHash,_selectedHash,betterAmount,makerAmount) */\n      jump\t// in\n    tag_468:\n        /* \"contracts/Market.sol\":8747:8818  pairHash = _createPair(_betHash,_selectedHash,betterAmount,makerAmount) */\n      swap1\n      pop\n        /* \"contracts/Market.sol\":8542:9388  if(_offeredStake <= _stake) {... */\n      jump(tag_480)\n        /* \"contracts/Market.sol\":8715:8969  if(_side == 1){... */\n    tag_467:\n        /* \"contracts/Market.sol\":8854:8859  _side */\n      dup7\n        /* \"contracts/Market.sol\":8863:8864  2 */\n      0x02\n        /* \"contracts/Market.sol\":8854:8864  _side == 2 */\n      eq\n        /* \"contracts/Market.sol\":8851:8969  if(_side == 2){... */\n      iszero\n      tag_471\n      jumpi\n        /* \"contracts/Market.sol\":8894:8954  _createPair(_selectedHash,_betHash,makerAmount,betterAmount) */\n      tag_468\n        /* \"contracts/Market.sol\":8906:8919  _selectedHash */\n      dup6\n        /* \"contracts/Market.sol\":8920:8928  _betHash */\n      dup8\n        /* \"contracts/Market.sol\":8929:8940  makerAmount */\n      dup5\n        /* \"contracts/Market.sol\":8941:8953  betterAmount */\n      dup7\n        /* \"contracts/Market.sol\":8894:8905  _createPair */\n      tag_469\n        /* \"contracts/Market.sol\":8894:8954  _createPair(_selectedHash,_betHash,makerAmount,betterAmount) */\n      jump\t// in\n        /* \"contracts/Market.sol\":8851:8969  if(_side == 2){... */\n    tag_471:\n        /* \"contracts/Market.sol\":8542:9388  if(_offeredStake <= _stake) {... */\n      jump(tag_480)\n    tag_463:\n        /* \"contracts/Market.sol\":9022:9028  _stake */\n      dup10\n      swap3\n      pop\n        /* \"contracts/Market.sol\":9066:9077  _odds - 100 */\n      tag_474\n        /* \"contracts/Market.sol\":9074:9077  100 */\n      0x64\n        /* \"contracts/Market.sol\":9066:9071  _odds */\n      dup10\n        /* \"contracts/Market.sol\":9066:9077  _odds - 100 */\n      tag_188\n      jump\t// in\n    tag_474:\n        /* \"contracts/Market.sol\":9056:9078  _stake * (_odds - 100) */\n      tag_475\n      swap1\n        /* \"contracts/Market.sol\":9056:9062  _stake */\n      dup12\n        /* \"contracts/Market.sol\":9056:9078  _stake * (_odds - 100) */\n      tag_190\n      jump\t// in\n    tag_475:\n        /* \"contracts/Market.sol\":9042:9078  makerAmount = _stake * (_odds - 100) */\n      swap2\n      pop\n        /* \"contracts/Market.sol\":9092:9110  makerAmount /= 100 */\n      tag_476\n        /* \"contracts/Market.sol\":9107:9110  100 */\n      0x64\n        /* \"contracts/Market.sol\":9042:9078  makerAmount = _stake * (_odds - 100) */\n      dup4\n        /* \"contracts/Market.sol\":9092:9110  makerAmount /= 100 */\n      tag_192\n      jump\t// in\n    tag_476:\n      swap2\n      pop\n        /* \"contracts/Market.sol\":9127:9132  _side */\n      dup7\n        /* \"contracts/Market.sol\":9136:9137  1 */\n      0x01\n        /* \"contracts/Market.sol\":9127:9137  _side == 1 */\n      eq\n        /* \"contracts/Market.sol\":9124:9378  if(_side == 1){... */\n      iszero\n      tag_477\n      jumpi\n        /* \"contracts/Market.sol\":9167:9227  _createPair(_betHash,_selectedHash,betterAmount,makerAmount) */\n      tag_468\n        /* \"contracts/Market.sol\":9179:9187  _betHash */\n      dup7\n        /* \"contracts/Market.sol\":9188:9201  _selectedHash */\n      dup7\n        /* \"contracts/Market.sol\":9202:9214  betterAmount */\n      dup6\n        /* \"contracts/Market.sol\":9215:9226  makerAmount */\n      dup6\n        /* \"contracts/Market.sol\":9167:9178  _createPair */\n      tag_469\n        /* \"contracts/Market.sol\":9167:9227  _createPair(_betHash,_selectedHash,betterAmount,makerAmount) */\n      jump\t// in\n        /* \"contracts/Market.sol\":9124:9378  if(_side == 1){... */\n    tag_477:\n        /* \"contracts/Market.sol\":9263:9268  _side */\n      dup7\n        /* \"contracts/Market.sol\":9272:9273  2 */\n      0x02\n        /* \"contracts/Market.sol\":9263:9273  _side == 2 */\n      eq\n        /* \"contracts/Market.sol\":9260:9378  if(_side == 2){... */\n      iszero\n      tag_480\n      jumpi\n        /* \"contracts/Market.sol\":9303:9363  _createPair(_selectedHash,_betHash,makerAmount,betterAmount) */\n      tag_481\n        /* \"contracts/Market.sol\":9315:9328  _selectedHash */\n      dup6\n        /* \"contracts/Market.sol\":9329:9337  _betHash */\n      dup8\n        /* \"contracts/Market.sol\":9338:9349  makerAmount */\n      dup5\n        /* \"contracts/Market.sol\":9350:9362  betterAmount */\n      dup7\n        /* \"contracts/Market.sol\":9303:9314  _createPair */\n      tag_469\n        /* \"contracts/Market.sol\":9303:9363  _createPair(_selectedHash,_betHash,makerAmount,betterAmount) */\n      jump\t// in\n    tag_481:\n        /* \"contracts/Market.sol\":9292:9363  pairHash = _createPair(_selectedHash,_betHash,makerAmount,betterAmount) */\n      swap1\n      pop\n        /* \"contracts/Market.sol\":9260:9378  if(_side == 2){... */\n    tag_480:\n        /* \"contracts/Market.sol\":9397:9415  betPairs[_betHash] */\n      0x00\n      dup7\n      dup2\n      mstore\n        /* \"contracts/Market.sol\":9397:9405  betPairs */\n      0x09\n        /* \"contracts/Market.sol\":9397:9415  betPairs[_betHash] */\n      0x20\n      swap1\n      dup2\n      mstore\n      0x40\n      dup1\n      dup4\n      keccak256\n        /* \"contracts/Market.sol\":9397:9430  betPairs[_betHash].push(pairHash) */\n      dup1\n      sload\n      0x01\n      dup2\n      dup2\n      add\n      dup4\n      sstore\n      swap2\n      dup6\n      mstore\n      dup4\n      dup6\n      keccak256\n      add\n      dup6\n      swap1\n      sstore\n        /* \"contracts/Market.sol\":9440:9463  betPairs[_selectedHash] */\n      dup9\n      dup5\n      mstore\n      dup2\n      dup5\n      keccak256\n        /* \"contracts/Market.sol\":9440:9478  betPairs[_selectedHash].push(pairHash) */\n      dup1\n      sload\n      swap2\n      dup3\n      add\n      dup2\n      sstore\n      dup5\n      mstore\n      dup3\n      dup5\n      keccak256\n      add\n      dup5\n      swap1\n      sstore\n        /* \"contracts/Market.sol\":9488:9506  betsInfo[_betHash] */\n      dup9\n      dup4\n      mstore\n        /* \"contracts/Market.sol\":9488:9496  betsInfo */\n      0x06\n        /* \"contracts/Market.sol\":9488:9506  betsInfo[_betHash] */\n      swap1\n      swap2\n      mstore\n      dup2\n      keccak256\n        /* \"contracts/Market.sol\":9488:9514  betsInfo[_betHash].matched */\n      0x03\n      add\n        /* \"contracts/Market.sol\":9488:9530  betsInfo[_betHash].matched += betterAmount */\n      dup1\n      sload\n        /* \"contracts/Market.sol\":9518:9530  betterAmount */\n      dup6\n      swap3\n        /* \"contracts/Market.sol\":9397:9415  betPairs[_betHash] */\n      swap1\n        /* \"contracts/Market.sol\":9488:9530  betsInfo[_betHash].matched += betterAmount */\n      tag_484\n      swap1\n        /* \"contracts/Market.sol\":9518:9530  betterAmount */\n      dup5\n      swap1\n        /* \"contracts/Market.sol\":9488:9530  betsInfo[_betHash].matched += betterAmount */\n      tag_229\n      jump\t// in\n    tag_484:\n      swap1\n      swap2\n      sstore\n      pop\n      pop\n        /* \"contracts/Market.sol\":9540:9563  betsInfo[_selectedHash] */\n      0x00\n      dup6\n      dup2\n      mstore\n        /* \"contracts/Market.sol\":9540:9548  betsInfo */\n      0x06\n        /* \"contracts/Market.sol\":9540:9563  betsInfo[_selectedHash] */\n      0x20\n      mstore\n      0x40\n      dup2\n      keccak256\n        /* \"contracts/Market.sol\":9540:9571  betsInfo[_selectedHash].matched */\n      0x03\n      add\n        /* \"contracts/Market.sol\":9540:9586  betsInfo[_selectedHash].matched += makerAmount */\n      dup1\n      sload\n        /* \"contracts/Market.sol\":9575:9586  makerAmount */\n      dup5\n      swap3\n        /* \"contracts/Market.sol\":9540:9563  betsInfo[_selectedHash] */\n      swap1\n        /* \"contracts/Market.sol\":9540:9586  betsInfo[_selectedHash].matched += makerAmount */\n      tag_485\n      swap1\n        /* \"contracts/Market.sol\":9575:9586  makerAmount */\n      dup5\n      swap1\n        /* \"contracts/Market.sol\":9540:9586  betsInfo[_selectedHash].matched += makerAmount */\n      tag_229\n      jump\t// in\n    tag_485:\n      swap1\n      swap2\n      sstore\n      pop\n        /* \"contracts/Market.sol\":9603:9615  betterAmount */\n      swap3\n      swap11\n        /* \"contracts/Market.sol\":8237:9622  function _match(... */\n      swap10\n      pop\n      pop\n      pop\n      pop\n      pop\n      pop\n      pop\n      pop\n      pop\n      pop\n      jump\t// out\n        /* \"contracts/Market.sol\":11114:11462  function _cancelPair(bytes32 _pair) private {... */\n    tag_272:\n        /* \"contracts/Market.sol\":11168:11183  address betterA */\n      0x00\n        /* \"contracts/Market.sol\":11195:11211  pairsInfo[_pair] */\n      dup2\n      dup2\n      mstore\n        /* \"contracts/Market.sol\":11195:11204  pairsInfo */\n      0x08\n        /* \"contracts/Market.sol\":11195:11211  pairsInfo[_pair] */\n      0x20\n      swap1\n      dup2\n      mstore\n      0x40\n      dup1\n      dup4\n      keccak256\n        /* \"contracts/Market.sol\":11195:11220  pairsInfo[_pair].betHashA */\n      dup1\n      sload\n        /* \"contracts/Market.sol\":11186:11221  betsInfo[pairsInfo[_pair].betHashA] */\n      dup5\n      mstore\n        /* \"contracts/Market.sol\":11186:11194  betsInfo */\n      0x06\n        /* \"contracts/Market.sol\":11186:11221  betsInfo[pairsInfo[_pair].betHashA] */\n      dup4\n      mstore\n      dup2\n      dup5\n      keccak256\n        /* \"contracts/Market.sol\":11186:11228  betsInfo[pairsInfo[_pair].betHashA].better */\n      sload\n      0x01\n        /* \"contracts/Market.sol\":11265:11290  pairsInfo[_pair].betHashB */\n      dup3\n      add\n      sload\n        /* \"contracts/Market.sol\":11256:11291  betsInfo[pairsInfo[_pair].betHashB] */\n      dup6\n      mstore\n      dup3\n      dup6\n      keccak256\n        /* \"contracts/Market.sol\":11256:11298  betsInfo[pairsInfo[_pair].betHashB].better */\n      sload\n        /* \"contracts/Market.sol\":11324:11348  pairsInfo[_pair].amountA */\n      0x02\n      swap1\n      swap3\n      add\n      sload\n      sub(shl(0xa0, 0x01), 0x01)\n        /* \"contracts/Market.sol\":11186:11228  betsInfo[pairsInfo[_pair].betHashA].better */\n      swap2\n      dup3\n      and\n        /* \"contracts/Market.sol\":11308:11320  bal[betterA] */\n      dup1\n      dup8\n      mstore\n        /* \"contracts/Market.sol\":11308:11311  bal */\n      0x05\n        /* \"contracts/Market.sol\":11308:11320  bal[betterA] */\n      swap1\n      swap6\n      mstore\n      swap3\n      dup6\n      keccak256\n        /* \"contracts/Market.sol\":11308:11348  bal[betterA] += pairsInfo[_pair].amountA */\n      dup1\n      sload\n        /* \"contracts/Market.sol\":11186:11228  betsInfo[pairsInfo[_pair].betHashA].better */\n      swap5\n      swap6\n        /* \"contracts/Market.sol\":11256:11298  betsInfo[pairsInfo[_pair].betHashB].better */\n      swap2\n      swap1\n      swap3\n      and\n      swap4\n        /* \"contracts/Market.sol\":11308:11348  bal[betterA] += pairsInfo[_pair].amountA */\n      tag_487\n      swap1\n        /* \"contracts/Market.sol\":11324:11348  pairsInfo[_pair].amountA */\n      dup5\n      swap1\n        /* \"contracts/Market.sol\":11308:11348  bal[betterA] += pairsInfo[_pair].amountA */\n      tag_229\n      jump\t// in\n    tag_487:\n      swap1\n      swap2\n      sstore\n      pop\n      pop\n        /* \"contracts/Market.sol\":11374:11390  pairsInfo[_pair] */\n      0x00\n      dup4\n      dup2\n      mstore\n        /* \"contracts/Market.sol\":11374:11383  pairsInfo */\n      0x08\n        /* \"contracts/Market.sol\":11374:11390  pairsInfo[_pair] */\n      0x20\n      swap1\n      dup2\n      mstore\n      0x40\n      dup1\n      dup4\n      keccak256\n        /* \"contracts/Market.sol\":11374:11398  pairsInfo[_pair].amountB */\n      0x03\n      add\n      sload\n      sub(shl(0xa0, 0x01), 0x01)\n        /* \"contracts/Market.sol\":11358:11370  bal[betterB] */\n      dup6\n      and\n      dup5\n      mstore\n        /* \"contracts/Market.sol\":11358:11361  bal */\n      0x05\n        /* \"contracts/Market.sol\":11358:11370  bal[betterB] */\n      swap1\n      swap3\n      mstore\n      dup3\n      keccak256\n        /* \"contracts/Market.sol\":11358:11398  bal[betterB] += pairsInfo[_pair].amountB */\n      dup1\n      sload\n        /* \"contracts/Market.sol\":11374:11398  pairsInfo[_pair].amountB */\n      swap2\n      swap3\n        /* \"contracts/Market.sol\":11358:11370  bal[betterB] */\n      swap1\n      swap2\n        /* \"contracts/Market.sol\":11358:11398  bal[betterB] += pairsInfo[_pair].amountB */\n      tag_488\n      swap1\n        /* \"contracts/Market.sol\":11374:11398  pairsInfo[_pair].amountB */\n      dup5\n      swap1\n        /* \"contracts/Market.sol\":11358:11398  bal[betterB] += pairsInfo[_pair].amountB */\n      tag_229\n      jump\t// in\n    tag_488:\n      swap1\n      swap2\n      sstore\n      pop\n      pop\n      pop\n        /* \"contracts/Market.sol\":11408:11424  pairsInfo[_pair] */\n      0x00\n      swap2\n      dup3\n      mstore\n      pop\n        /* \"contracts/Market.sol\":11408:11417  pairsInfo */\n      0x08\n        /* \"contracts/Market.sol\":11408:11424  pairsInfo[_pair] */\n      0x20\n      mstore\n      0x40\n      swap1\n      keccak256\n        /* \"contracts/Market.sol\":11408:11432  pairsInfo[_pair].settled */\n      0x04\n      add\n        /* \"contracts/Market.sol\":11408:11439  pairsInfo[_pair].settled = true */\n      dup1\n      sload\n      not(0xff)\n      and\n        /* \"contracts/Market.sol\":11435:11439  true */\n      0x01\n        /* \"contracts/Market.sol\":11408:11439  pairsInfo[_pair].settled = true */\n      or\n      swap1\n      sstore\n        /* \"contracts/Market.sol\":11114:11462  function _cancelPair(bytes32 _pair) private {... */\n      jump\t// out\n        /* \"contracts/Market.sol\":13659:14398  function _createPair(... */\n    tag_469:\n        /* \"contracts/Market.sol\":13817:13824  bytes32 */\n      0x00\n        /* \"contracts/Market.sol\":13840:13856  bytes32 pairHash */\n      dup1\n        /* \"contracts/Market.sol\":13866:13872  uint i */\n      0x00\n        /* \"contracts/Market.sol\":13886:14239  while(i >= 0){... */\n    tag_490:\n        /* \"contracts/Market.sol\":14022:14027  pairs */\n      0x03\n        /* \"contracts/Market.sol\":14022:14034  pairs.length */\n      sload\n        /* \"contracts/Market.sol\":13968:13977  _betHashA */\n      dup8\n      swap1\n        /* \"contracts/Market.sol\":13995:14004  _betHashB */\n      dup8\n      swap1\n        /* \"contracts/Market.sol\":14041:14042  i */\n      dup4\n      swap1\n        /* \"contracts/Market.sol\":14022:14038  pairs.length + 1 */\n      tag_492\n      swap1\n        /* \"contracts/Market.sol\":14037:14038  1 */\n      0x01\n        /* \"contracts/Market.sol\":14022:14038  pairs.length + 1 */\n      tag_229\n      jump\t// in\n    tag_492:\n        /* \"contracts/Market.sol\":14022:14042  pairs.length + 1 + i */\n      tag_493\n      swap2\n      swap1\n      tag_229\n      jump\t// in\n    tag_493:\n        /* \"contracts/Market.sol\":13934:14123  abi.encodePacked(... */\n      0x40\n      dup1\n      mload\n      0x20\n      dup2\n      add\n        /* \"#utility.yul\":2912:2931   */\n      swap5\n      swap1\n      swap5\n      mstore\n        /* \"#utility.yul\":2947:2959   */\n      dup4\n      add\n        /* \"#utility.yul\":2940:2968   */\n      swap2\n      swap1\n      swap2\n      mstore\n        /* \"#utility.yul\":2984:2996   */\n      0x60\n      dup3\n      add\n        /* \"#utility.yul\":2977:3005   */\n      mstore\n        /* \"contracts/Market.sol\":14060:14075  block.timestamp */\n      timestamp\n        /* \"#utility.yul\":3021:3033   */\n      0x80\n      dup3\n      add\n        /* \"#utility.yul\":3014:3042   */\n      mstore\n        /* \"contracts/Market.sol\":14093:14109  block.difficulty */\n      difficulty\n        /* \"#utility.yul\":3058:3071   */\n      0xa0\n      dup3\n      add\n        /* \"#utility.yul\":3051:3080   */\n      mstore\n        /* \"#utility.yul\":3096:3109   */\n      0xc0\n      add\n        /* \"contracts/Market.sol\":13934:14123  abi.encodePacked(... */\n      0x40\n      dup1\n      mload\n      not(0x1f)\n      dup2\n      dup5\n      sub\n      add\n      dup2\n      mstore\n      swap2\n      dup2\n      mstore\n        /* \"contracts/Market.sol\":13924:14124  keccak256(abi.encodePacked(... */\n      dup2\n      mload\n        /* \"contracts/Market.sol\":13934:14123  abi.encodePacked(... */\n      0x20\n        /* \"contracts/Market.sol\":13924:14124  keccak256(abi.encodePacked(... */\n      swap3\n      dup4\n      add\n      keccak256\n        /* \"contracts/Market.sol\":14141:14160  pairsInfo[pairHash] */\n      0x00\n      dup2\n      dup2\n      mstore\n        /* \"contracts/Market.sol\":14141:14150  pairsInfo */\n      0x08\n        /* \"contracts/Market.sol\":14141:14160  pairsInfo[pairHash] */\n      swap1\n      swap4\n      mstore\n      swap2\n      keccak256\n        /* \"contracts/Market.sol\":14141:14168  pairsInfo[pairHash].amountA */\n      0x02\n      add\n      sload\n        /* \"contracts/Market.sol\":13924:14124  keccak256(abi.encodePacked(... */\n      swap1\n      swap3\n      pop\n        /* \"contracts/Market.sol\":14138:14212  if(pairsInfo[pairHash].amountA == 0){... */\n      tag_496\n      jumpi\n        /* \"contracts/Market.sol\":14192:14197  break */\n      jump(tag_491)\n        /* \"contracts/Market.sol\":14138:14212  if(pairsInfo[pairHash].amountA == 0){... */\n    tag_496:\n        /* \"contracts/Market.sol\":14225:14228  i++ */\n      dup1\n      tag_497\n      dup2\n      tag_134\n      jump\t// in\n    tag_497:\n      swap2\n      pop\n      pop\n        /* \"contracts/Market.sol\":13886:14239  while(i >= 0){... */\n      jump(tag_490)\n    tag_491:\n      pop\n        /* \"contracts/Market.sol\":14270:14336  Struct.MarketPair(_betHashA, _betHashB, _amountA, _amountB, false) */\n      0x40\n      dup1\n      mload\n      0xa0\n      dup2\n      add\n      dup3\n      mstore\n      swap7\n      dup8\n      mstore\n      0x20\n      dup1\n      dup9\n      add\n      swap7\n      dup8\n      mstore\n      dup8\n      dup3\n      add\n      swap6\n      dup7\n      mstore\n      0x60\n      dup9\n      add\n      swap5\n      dup6\n      mstore\n      0x00\n      0x80\n      dup10\n      add\n      dup2\n      dup2\n      mstore\n        /* \"contracts/Market.sol\":14248:14267  pairsInfo[pairHash] */\n      dup5\n      dup3\n      mstore\n        /* \"contracts/Market.sol\":14248:14257  pairsInfo */\n      0x08\n        /* \"contracts/Market.sol\":14248:14267  pairsInfo[pairHash] */\n      swap1\n      swap3\n      mstore\n      swap2\n      dup3\n      keccak256\n        /* \"contracts/Market.sol\":14248:14336  pairsInfo[pairHash] = Struct.MarketPair(_betHashA, _betHashB, _amountA, _amountB, false) */\n      swap8\n      mload\n      dup9\n      sstore\n      swap6\n      mload\n        /* \"contracts/Market.sol\":14270:14336  Struct.MarketPair(_betHashA, _betHashB, _amountA, _amountB, false) */\n      0x01\n        /* \"contracts/Market.sol\":14248:14336  pairsInfo[pairHash] = Struct.MarketPair(_betHashA, _betHashB, _amountA, _amountB, false) */\n      dup1\n      dup10\n      add\n      swap2\n      swap1\n      swap2\n      sstore\n      swap5\n      mload\n      0x02\n      dup9\n      add\n      sstore\n      swap3\n      mload\n      0x03\n      dup1\n      dup9\n      add\n      swap2\n      swap1\n      swap2\n      sstore\n      swap5\n      mload\n      0x04\n      swap1\n      swap7\n      add\n      dup1\n      sload\n      not(0xff)\n      and\n      swap7\n      iszero\n      iszero\n      swap7\n      swap1\n      swap7\n      or\n      swap1\n      swap6\n      sstore\n      pop\n        /* \"contracts/Market.sol\":14346:14366  pairs.push(pairHash) */\n      dup3\n      sload\n      swap2\n      dup3\n      add\n      dup4\n      sstore\n      swap2\n      swap1\n      swap2\n      mstore\n      0xc2575a0e9e593c00f959f8c92f12db2869c3395a3b0502d05e2516446f71f85b\n      add\n      dup2\n      swap1\n      sstore\n        /* \"contracts/Market.sol\":14248:14267  pairsInfo[pairHash] */\n      swap1\n        /* \"contracts/Market.sol\":13659:14398  function _createPair(... */\n      jump\t// out\n        /* \"#utility.yul\":14:271   */\n    tag_31:\n        /* \"#utility.yul\":73:79   */\n      0x00\n        /* \"#utility.yul\":126:128   */\n      0x20\n        /* \"#utility.yul\":114:123   */\n      dup3\n        /* \"#utility.yul\":105:112   */\n      dup5\n        /* \"#utility.yul\":101:124   */\n      sub\n        /* \"#utility.yul\":97:129   */\n      slt\n        /* \"#utility.yul\":94:96   */\n      iszero\n      tag_501\n      jumpi\n        /* \"#utility.yul\":147:153   */\n      dup1\n        /* \"#utility.yul\":139:145   */\n      dup2\n        /* \"#utility.yul\":132:154   */\n      revert\n        /* \"#utility.yul\":94:96   */\n    tag_501:\n        /* \"#utility.yul\":191:200   */\n      dup2\n        /* \"#utility.yul\":178:201   */\n      calldataload\n        /* \"#utility.yul\":210:241   */\n      tag_502\n        /* \"#utility.yul\":235:240   */\n      dup2\n        /* \"#utility.yul\":210:241   */\n      tag_503\n      jump\t// in\n    tag_502:\n        /* \"#utility.yul\":260:265   */\n      swap4\n        /* \"#utility.yul\":84:271   */\n      swap3\n      pop\n      pop\n      pop\n      jump\t// out\n        /* \"#utility.yul\":276:537   */\n    tag_238:\n        /* \"#utility.yul\":346:352   */\n      0x00\n        /* \"#utility.yul\":399:401   */\n      0x20\n        /* \"#utility.yul\":387:396   */\n      dup3\n        /* \"#utility.yul\":378:385   */\n      dup5\n        /* \"#utility.yul\":374:397   */\n      sub\n        /* \"#utility.yul\":370:402   */\n      slt\n        /* \"#utility.yul\":367:369   */\n      iszero\n      tag_505\n      jumpi\n        /* \"#utility.yul\":420:426   */\n      dup1\n        /* \"#utility.yul\":412:418   */\n      dup2\n        /* \"#utility.yul\":405:427   */\n      revert\n        /* \"#utility.yul\":367:369   */\n    tag_505:\n        /* \"#utility.yul\":457:466   */\n      dup2\n        /* \"#utility.yul\":451:467   */\n      mload\n        /* \"#utility.yul\":476:507   */\n      tag_502\n        /* \"#utility.yul\":501:506   */\n      dup2\n        /* \"#utility.yul\":476:507   */\n      tag_503\n      jump\t// in\n        /* \"#utility.yul\":542:1282   */\n    tag_50:\n        /* \"#utility.yul\":643:649   */\n      0x00\n        /* \"#utility.yul\":651:657   */\n      dup1\n        /* \"#utility.yul\":659:665   */\n      0x00\n        /* \"#utility.yul\":667:673   */\n      dup1\n        /* \"#utility.yul\":675:681   */\n      0x00\n        /* \"#utility.yul\":683:689   */\n      dup1\n        /* \"#utility.yul\":736:739   */\n      0xc0\n        /* \"#utility.yul\":724:733   */\n      dup8\n        /* \"#utility.yul\":715:722   */\n      dup10\n        /* \"#utility.yul\":711:734   */\n      sub\n        /* \"#utility.yul\":707:740   */\n      slt\n        /* \"#utility.yul\":704:706   */\n      iszero\n      tag_508\n      jumpi\n        /* \"#utility.yul\":758:764   */\n      dup2\n        /* \"#utility.yul\":750:756   */\n      dup3\n        /* \"#utility.yul\":743:765   */\n      revert\n        /* \"#utility.yul\":704:706   */\n    tag_508:\n        /* \"#utility.yul\":802:811   */\n      dup7\n        /* \"#utility.yul\":789:812   */\n      calldataload\n        /* \"#utility.yul\":821:852   */\n      tag_509\n        /* \"#utility.yul\":846:851   */\n      dup2\n        /* \"#utility.yul\":821:852   */\n      tag_503\n      jump\t// in\n    tag_509:\n        /* \"#utility.yul\":871:876   */\n      swap6\n      pop\n        /* \"#utility.yul\":928:930   */\n      0x20\n        /* \"#utility.yul\":913:931   */\n      dup8\n      add\n        /* \"#utility.yul\":900:932   */\n      calldataload\n        /* \"#utility.yul\":941:974   */\n      tag_510\n        /* \"#utility.yul\":900:932   */\n      dup2\n        /* \"#utility.yul\":941:974   */\n      tag_503\n      jump\t// in\n    tag_510:\n        /* \"#utility.yul\":993:1000   */\n      swap5\n      pop\n        /* \"#utility.yul\":1047:1049   */\n      0x40\n        /* \"#utility.yul\":1032:1050   */\n      dup8\n      add\n        /* \"#utility.yul\":1019:1051   */\n      calldataload\n      swap4\n      pop\n        /* \"#utility.yul\":1098:1100   */\n      0x60\n        /* \"#utility.yul\":1083:1101   */\n      dup8\n      add\n        /* \"#utility.yul\":1070:1102   */\n      calldataload\n      swap3\n      pop\n        /* \"#utility.yul\":1149:1152   */\n      0x80\n        /* \"#utility.yul\":1134:1153   */\n      dup8\n      add\n        /* \"#utility.yul\":1121:1154   */\n      calldataload\n      swap2\n      pop\n        /* \"#utility.yul\":1206:1209   */\n      0xa0\n        /* \"#utility.yul\":1191:1210   */\n      dup8\n      add\n        /* \"#utility.yul\":1178:1211   */\n      calldataload\n        /* \"#utility.yul\":1220:1250   */\n      tag_511\n        /* \"#utility.yul\":1178:1211   */\n      dup2\n        /* \"#utility.yul\":1220:1250   */\n      tag_512\n      jump\t// in\n    tag_511:\n        /* \"#utility.yul\":1269:1276   */\n      dup1\n        /* \"#utility.yul\":1259:1276   */\n      swap2\n      pop\n      pop\n        /* \"#utility.yul\":694:1282   */\n      swap3\n      swap6\n      pop\n      swap3\n      swap6\n      pop\n      swap3\n      swap6\n      jump\t// out\n        /* \"#utility.yul\":1287:1542   */\n    tag_119:\n        /* \"#utility.yul\":1354:1360   */\n      0x00\n        /* \"#utility.yul\":1407:1409   */\n      0x20\n        /* \"#utility.yul\":1395:1404   */\n      dup3\n        /* \"#utility.yul\":1386:1393   */\n      dup5\n        /* \"#utility.yul\":1382:1405   */\n      sub\n        /* \"#utility.yul\":1378:1410   */\n      slt\n        /* \"#utility.yul\":1375:1377   */\n      iszero\n      tag_514\n      jumpi\n        /* \"#utility.yul\":1428:1434   */\n      dup1\n        /* \"#utility.yul\":1420:1426   */\n      dup2\n        /* \"#utility.yul\":1413:1435   */\n      revert\n        /* \"#utility.yul\":1375:1377   */\n    tag_514:\n        /* \"#utility.yul\":1465:1474   */\n      dup2\n        /* \"#utility.yul\":1459:1475   */\n      mload\n        /* \"#utility.yul\":1484:1512   */\n      tag_502\n        /* \"#utility.yul\":1506:1511   */\n      dup2\n        /* \"#utility.yul\":1484:1512   */\n      tag_512\n      jump\t// in\n        /* \"#utility.yul\":1547:1737   */\n    tag_27:\n        /* \"#utility.yul\":1606:1612   */\n      0x00\n        /* \"#utility.yul\":1659:1661   */\n      0x20\n        /* \"#utility.yul\":1647:1656   */\n      dup3\n        /* \"#utility.yul\":1638:1645   */\n      dup5\n        /* \"#utility.yul\":1634:1657   */\n      sub\n        /* \"#utility.yul\":1630:1662   */\n      slt\n        /* \"#utility.yul\":1627:1629   */\n      iszero\n      tag_517\n      jumpi\n        /* \"#utility.yul\":1680:1686   */\n      dup1\n        /* \"#utility.yul\":1672:1678   */\n      dup2\n        /* \"#utility.yul\":1665:1687   */\n      revert\n        /* \"#utility.yul\":1627:1629   */\n    tag_517:\n      pop\n        /* \"#utility.yul\":1708:1731   */\n      calldataload\n      swap2\n        /* \"#utility.yul\":1617:1737   */\n      swap1\n      pop\n      jump\t// out\n        /* \"#utility.yul\":1937:2131   */\n    tag_108:\n        /* \"#utility.yul\":2007:2013   */\n      0x00\n        /* \"#utility.yul\":2060:2062   */\n      0x20\n        /* \"#utility.yul\":2048:2057   */\n      dup3\n        /* \"#utility.yul\":2039:2046   */\n      dup5\n        /* \"#utility.yul\":2035:2058   */\n      sub\n        /* \"#utility.yul\":2031:2063   */\n      slt\n        /* \"#utility.yul\":2028:2030   */\n      iszero\n      tag_521\n      jumpi\n        /* \"#utility.yul\":2081:2087   */\n      dup1\n        /* \"#utility.yul\":2073:2079   */\n      dup2\n        /* \"#utility.yul\":2066:2088   */\n      revert\n        /* \"#utility.yul\":2028:2030   */\n    tag_521:\n      pop\n        /* \"#utility.yul\":2109:2125   */\n      mload\n      swap2\n        /* \"#utility.yul\":2018:2131   */\n      swap1\n      pop\n      jump\t// out\n        /* \"#utility.yul\":4892:5527   */\n    tag_34:\n        /* \"#utility.yul\":5063:5065   */\n      0x20\n        /* \"#utility.yul\":5115:5136   */\n      dup1\n      dup3\n      mstore\n        /* \"#utility.yul\":5185:5198   */\n      dup3\n      mload\n        /* \"#utility.yul\":5088:5106   */\n      dup3\n      dup3\n      add\n        /* \"#utility.yul\":5207:5229   */\n      dup2\n      swap1\n      mstore\n        /* \"#utility.yul\":5034:5038   */\n      0x00\n      swap2\n        /* \"#utility.yul\":5063:5065   */\n      swap1\n        /* \"#utility.yul\":5286:5301   */\n      dup5\n      dup3\n      add\n      swap1\n        /* \"#utility.yul\":5260:5262   */\n      0x40\n        /* \"#utility.yul\":5245:5263   */\n      dup6\n      add\n      swap1\n        /* \"#utility.yul\":5034:5038   */\n      dup5\n        /* \"#utility.yul\":5332:5501   */\n    tag_530:\n        /* \"#utility.yul\":5346:5352   */\n      dup2\n        /* \"#utility.yul\":5343:5344   */\n      dup2\n        /* \"#utility.yul\":5340:5353   */\n      lt\n        /* \"#utility.yul\":5332:5501   */\n      iszero\n      tag_532\n      jumpi\n        /* \"#utility.yul\":5407:5420   */\n      dup4\n      mload\n        /* \"#utility.yul\":5395:5421   */\n      dup4\n      mstore\n        /* \"#utility.yul\":5476:5491   */\n      swap3\n      dup5\n      add\n      swap3\n        /* \"#utility.yul\":5441:5453   */\n      swap2\n      dup5\n      add\n      swap2\n        /* \"#utility.yul\":5368:5369   */\n      0x01\n        /* \"#utility.yul\":5361:5370   */\n      add\n        /* \"#utility.yul\":5332:5501   */\n      jump(tag_530)\n    tag_532:\n      pop\n        /* \"#utility.yul\":5518:5521   */\n      swap1\n      swap7\n        /* \"#utility.yul\":5043:5527   */\n      swap6\n      pop\n      pop\n      pop\n      pop\n      pop\n      pop\n      jump\t// out\n        /* \"#utility.yul\":7304:7649   */\n    tag_242:\n        /* \"#utility.yul\":7506:7508   */\n      0x20\n        /* \"#utility.yul\":7488:7509   */\n      dup1\n      dup3\n      mstore\n        /* \"#utility.yul\":7545:7547   */\n      0x15\n        /* \"#utility.yul\":7525:7543   */\n      swap1\n      dup3\n      add\n        /* \"#utility.yul\":7518:7548   */\n      mstore\n      shl(0x5a, 0x18d85b1b195c881b9bdd08185d5d1a1bdc9a5e9959)\n        /* \"#utility.yul\":7579:7581   */\n      0x40\n        /* \"#utility.yul\":7564:7582   */\n      dup3\n      add\n        /* \"#utility.yul\":7557:7608   */\n      mstore\n        /* \"#utility.yul\":7640:7642   */\n      0x60\n        /* \"#utility.yul\":7625:7643   */\n      add\n      swap1\n        /* \"#utility.yul\":7478:7649   */\n      jump\t// out\n        /* \"#utility.yul\":10895:11023   */\n    tag_229:\n        /* \"#utility.yul\":10935:10938   */\n      0x00\n        /* \"#utility.yul\":10966:10967   */\n      dup3\n        /* \"#utility.yul\":10962:10968   */\n      not\n        /* \"#utility.yul\":10959:10960   */\n      dup3\n        /* \"#utility.yul\":10956:10969   */\n      gt\n        /* \"#utility.yul\":10953:10955   */\n      iszero\n      tag_551\n      jumpi\n        /* \"#utility.yul\":10972:10990   */\n      tag_551\n      tag_552\n      jump\t// in\n    tag_551:\n      pop\n        /* \"#utility.yul\":11008:11017   */\n      add\n      swap1\n        /* \"#utility.yul\":10943:11023   */\n      jump\t// out\n        /* \"#utility.yul\":11028:11245   */\n    tag_192:\n        /* \"#utility.yul\":11068:11069   */\n      0x00\n        /* \"#utility.yul\":11094:11095   */\n      dup3\n        /* \"#utility.yul\":11084:11086   */\n      tag_554\n      jumpi\n      shl(0xe0, 0x4e487b71)\n        /* \"#utility.yul\":11119:11150   */\n      dup2\n      mstore\n        /* \"#utility.yul\":11173:11177   */\n      0x12\n        /* \"#utility.yul\":11170:11171   */\n      0x04\n        /* \"#utility.yul\":11163:11178   */\n      mstore\n        /* \"#utility.yul\":11201:11205   */\n      0x24\n        /* \"#utility.yul\":11126:11127   */\n      dup2\n        /* \"#utility.yul\":11191:11206   */\n      revert\n        /* \"#utility.yul\":11084:11086   */\n    tag_554:\n      pop\n        /* \"#utility.yul\":11230:11239   */\n      div\n      swap1\n        /* \"#utility.yul\":11074:11245   */\n      jump\t// out\n        /* \"#utility.yul\":11250:11418   */\n    tag_190:\n        /* \"#utility.yul\":11290:11297   */\n      0x00\n        /* \"#utility.yul\":11356:11357   */\n      dup2\n        /* \"#utility.yul\":11352:11353   */\n      0x00\n        /* \"#utility.yul\":11348:11354   */\n      not\n        /* \"#utility.yul\":11344:11358   */\n      div\n        /* \"#utility.yul\":11341:11342   */\n      dup4\n        /* \"#utility.yul\":11338:11359   */\n      gt\n        /* \"#utility.yul\":11333:11334   */\n      dup3\n        /* \"#utility.yul\":11326:11335   */\n      iszero\n        /* \"#utility.yul\":11319:11336   */\n      iszero\n        /* \"#utility.yul\":11315:11360   */\n      and\n        /* \"#utility.yul\":11312:11314   */\n      iszero\n      tag_557\n      jumpi\n        /* \"#utility.yul\":11363:11381   */\n      tag_557\n      tag_552\n      jump\t// in\n    tag_557:\n      pop\n        /* \"#utility.yul\":11403:11412   */\n      mul\n      swap1\n        /* \"#utility.yul\":11302:11418   */\n      jump\t// out\n        /* \"#utility.yul\":11423:11548   */\n    tag_188:\n        /* \"#utility.yul\":11463:11467   */\n      0x00\n        /* \"#utility.yul\":11491:11492   */\n      dup3\n        /* \"#utility.yul\":11488:11489   */\n      dup3\n        /* \"#utility.yul\":11485:11493   */\n      lt\n        /* \"#utility.yul\":11482:11484   */\n      iszero\n      tag_560\n      jumpi\n        /* \"#utility.yul\":11496:11514   */\n      tag_560\n      tag_552\n      jump\t// in\n    tag_560:\n      pop\n        /* \"#utility.yul\":11533:11542   */\n      sub\n      swap1\n        /* \"#utility.yul\":11472:11548   */\n      jump\t// out\n        /* \"#utility.yul\":11553:11688   */\n    tag_134:\n        /* \"#utility.yul\":11592:11595   */\n      0x00\n      not(0x00)\n        /* \"#utility.yul\":11613:11630   */\n      dup3\n      eq\n        /* \"#utility.yul\":11610:11612   */\n      iszero\n      tag_563\n      jumpi\n        /* \"#utility.yul\":11633:11651   */\n      tag_563\n      tag_552\n      jump\t// in\n    tag_563:\n      pop\n        /* \"#utility.yul\":11680:11681   */\n      0x01\n        /* \"#utility.yul\":11669:11682   */\n      add\n      swap1\n        /* \"#utility.yul\":11600:11688   */\n      jump\t// out\n        /* \"#utility.yul\":11693:11820   */\n    tag_552:\n        /* \"#utility.yul\":11754:11764   */\n      0x4e487b71\n        /* \"#utility.yul\":11749:11752   */\n      0xe0\n        /* \"#utility.yul\":11745:11765   */\n      shl\n        /* \"#utility.yul\":11742:11743   */\n      0x00\n        /* \"#utility.yul\":11735:11766   */\n      mstore\n        /* \"#utility.yul\":11785:11789   */\n      0x11\n        /* \"#utility.yul\":11782:11783   */\n      0x04\n        /* \"#utility.yul\":11775:11790   */\n      mstore\n        /* \"#utility.yul\":11809:11813   */\n      0x24\n        /* \"#utility.yul\":11806:11807   */\n      0x00\n        /* \"#utility.yul\":11799:11814   */\n      revert\n        /* \"#utility.yul\":11825:11956   */\n    tag_503:\n      sub(shl(0xa0, 0x01), 0x01)\n        /* \"#utility.yul\":11900:11931   */\n      dup2\n      and\n        /* \"#utility.yul\":11890:11932   */\n      dup2\n      eq\n        /* \"#utility.yul\":11880:11882   */\n      tag_90\n      jumpi\n        /* \"#utility.yul\":11946:11947   */\n      0x00\n        /* \"#utility.yul\":11943:11944   */\n      dup1\n        /* \"#utility.yul\":11936:11948   */\n      revert\n        /* \"#utility.yul\":11961:12079   */\n    tag_512:\n        /* \"#utility.yul\":12047:12052   */\n      dup1\n        /* \"#utility.yul\":12040:12053   */\n      iszero\n        /* \"#utility.yul\":12033:12054   */\n      iszero\n        /* \"#utility.yul\":12026:12031   */\n      dup2\n        /* \"#utility.yul\":12023:12055   */\n      eq\n        /* \"#utility.yul\":12013:12015   */\n      tag_90\n      jumpi\n        /* \"#utility.yul\":12069:12070   */\n      0x00\n        /* \"#utility.yul\":12066:12067   */\n      dup1\n        /* \"#utility.yul\":12059:12071   */\n      revert\n\n    auxdata: 0xa2646970667358221220e612183b200a9628db47bce2f5b701446e3e78966543abf008ec30c2e5816a4c64736f6c63430008040033\n}\n",
				"bytecode": {
					"linkReferences": {},
					"object": "60c060408190526000600255600154600a80546001600160a01b0319166001600160a01b03909216918217905562966ed960e31b8252906304b376c89060c49060209060048186803b1580156200005557600080fd5b505afa1580156200006a573d6000803e3d6000fd5b505050506040513d601f19601f82011682018060405250810190620000909190620000f3565b60601b6001600160601b03191660a052348015620000ad57600080fd5b506040516200301d3803806200301d833981016040819052620000d09162000123565b6001600081905560809190915280546001600160a01b031916331790556200013c565b60006020828403121562000105578081fd5b81516001600160a01b03811681146200011c578182fd5b9392505050565b60006020828403121562000135578081fd5b5051919050565b60805160a05160601c612e79620001a4600039600081816104d0015281816105f40152818161094301528181610a300152610be4015260008181610201015281816110d90152818161122f0152818161138d0152818161148001526115960152612e796000f3fe608060405234801561001057600080fd5b50600436106100f55760003560e01c80637a47d49411610097578063be9a655511610066578063be9a655514610251578063d0ed729514610259578063ea8a1af01461026c578063f8b2cb4f1461027457600080fd5b80637a47d494146101fc5780637d7f9232146102235780638df8280014610236578063ae8cd0901461024957600080fd5b806337e8c09e116100d357806337e8c09e1461014b57806351cff8d9146101b3578063675f6537146101d657806378d65b2f146101e957600080fd5b8063200d2ed2146100fa5780632940ff1e146101165780632d56657d1461012b575b600080fd5b61010360025481565b6040519081526020015b60405180910390f35b610129610124366004612cde565b61029d565b005b61013e610139366004612c1d565b61032b565b60405161010d9190612d0e565b61015e610159366004612cde565b610397565b60405161010d919081516001600160a01b0390811682526020808401519091169082015260408083015190820152606080830151908201526080808301519082015260a0918201519181019190915260c00190565b6101c66101c1366004612c1d565b610447565b604051901515815260200161010d565b6101296101e4366004612cde565b610714565b6101036101f7366004612c5c565b6107e9565b6101037f000000000000000000000000000000000000000000000000000000000000000081565b610129610231366004612cde565b610fa4565b6101c6610244366004612cde565b6110c7565b6101c661121d565b6101c661137b565b6101c6610267366004612cde565b61146e565b6101c6611584565b610103610282366004612c1d565b6001600160a01b031660009081526005602052604090205490565b6000818152600660205260409020546001600160a01b031633146102fe5760405162461bcd60e51b81526020600482015260136024820152723ab730baba3437b934bd32b21031b0b63632b960691b60448201526064015b60405180910390fd5b600254158061030f57506002546004145b1561031f5761031d81611686565b505b61032881610fa4565b50565b6001600160a01b03811660009081526007602090815260409182902080548351818402810184019094528084526060939283018282801561038b57602002820191906000526020600020905b815481526020019060010190808311610377575b50505050509050919050565b6103e26040518060c0016040528060006001600160a01b0316815260200160006001600160a01b03168152602001600081526020016000815260200160008152602001600081525090565b50600090815260066020908152604091829020825160c08101845281546001600160a01b03908116825260018301541692810192909252600281015492820192909252600382015460608201526004820154608082015260059091015460a082015290565b60006002600054141561049c5760405162461bcd60e51b815260206004820152601f60248201527f5265656e7472616e637947756172643a207265656e7472616e742063616c6c0060448201526064016102f5565b600260009081556001600160a01b03838116825260056020526040918290205491516370a0823160e01b81523060048201527f0000000000000000000000000000000000000000000000000000000000000000909116906370a082319060240160206040518083038186803b15801561051457600080fd5b505afa158015610528573d6000803e3d6000fd5b505050506040513d601f19601f8201168201806040525081019061054c9190612cf6565b1015801561057157506001600160a01b03821660009081526005602052604090205415155b6105b45760405162461bcd60e51b81526020600482015260146024820152737a65726f2076616c756520617661696c61626c6560601b60448201526064016102f5565b6001600160a01b03828116600081815260056020526040808220805490839055905163a9059cbb60e01b81526004810193909352602483018190529290917f00000000000000000000000000000000000000000000000000000000000000009091169063a9059cbb90604401602060405180830381600087803b15801561063a57600080fd5b505af115801561064e573d6000803e3d6000fd5b505050506040513d601f19601f820116820180604052508101906106729190612cc2565b9050806106c15760405162461bcd60e51b815260206004820152601960248201527f7472616e7366657220746f2063616c6c6572206661696c65640000000000000060448201526064016102f5565b604080516001600160a01b0386168152602081018490527f884edad9ce6fa2440d8a54cc123490eb96d2768479d49ff9c7366125a9424364910160405180910390a16001925050505b6001600055919050565b60008181526009602090815260408083208054825181850281018501909352808352919290919083018282801561076a57602002820191906000526020600020905b815481526020019060010190808311610756575b505083519394506000925050505b818110156107c3576107b08382815181106107a357634e487b7160e01b600052603260045260246000fd5b6020026020010151611eca565b50806107bb81612def565b915050610778565b5033600090815260056020526040902054156107e4576107e233610447565b505b505050565b600a5460405163332daccf60e01b81523360048201526000916001600160a01b03169063332daccf9060240160206040518083038186803b15801561082d57600080fd5b505afa158015610841573d6000803e3d6000fd5b505050506040513d601f19601f820116820180604052508101906108659190612cc2565b1561089e5760405162461bcd60e51b8152602060048201526009602482015268189b1858dadb1a5cdd60ba1b60448201526064016102f5565b600254156108e25760405162461bcd60e51b81526020600482015260116024820152706d61726b6574206e6f742061637469766560781b60448201526064016102f5565b82600114806108f15750826002145b61092c5760405162461bcd60e51b815260206004820152600c60248201526b696e76616c6964207369646560a01b60448201526064016102f5565b6040516370a0823160e01b815233600482015285907f00000000000000000000000000000000000000000000000000000000000000006001600160a01b0316906370a082319060240160206040518083038186803b15801561098d57600080fd5b505afa1580156109a1573d6000803e3d6000fd5b505050506040513d601f19601f820116820180604052508101906109c59190612cf6565b1015610a135760405162461bcd60e51b815260206004820152601960248201527f6e6f7420656e6f75676820746f6b656e2062616c616c6e63650000000000000060448201526064016102f5565b604051636eb1769f60e11b815233600482015230602482015285907f00000000000000000000000000000000000000000000000000000000000000006001600160a01b03169063dd62ed3e9060440160206040518083038186803b158015610a7a57600080fd5b505afa158015610a8e573d6000803e3d6000fd5b505050506040513d601f19601f82011682018060405250810190610ab29190612cf6565b1015610af75760405162461bcd60e51b81526020600482015260146024820152736e6f7420656e6f75676820616c6c6f77616e636560601b60448201526064016102f5565b600a60009054906101000a90046001600160a01b03166001600160a01b031663375b3c0a6040518163ffffffff1660e01b815260040160206040518083038186803b158015610b4557600080fd5b505afa158015610b59573d6000803e3d6000fd5b505050506040513d601f19601f82011682018060405250810190610b7d9190612cf6565b851015610bc25760405162461bcd60e51b81526020600482015260136024820152726c657373207468616e206d696e207374616b6560681b60448201526064016102f5565b6040516323b872dd60e01b8152336004820152306024820152604481018690527f00000000000000000000000000000000000000000000000000000000000000006001600160a01b0316906323b872dd90606401602060405180830381600087803b158015610c3057600080fd5b505af1158015610c44573d6000803e3d6000fd5b505050506040513d601f19601f82011682018060405250810190610c689190612cc2565b610cb45760405162461bcd60e51b815260206004820152601b60248201527f7472616e736665722066726f6d2063616c6c6572206661696c6564000000000060448201526064016102f5565b6000610ce388888884610cc860648b612dd8565b610cd38b6064612db9565b610cdd9190612d99565b896126bc565b60045490915015610f445760045486905b600a60009054906101000a90046001600160a01b03166001600160a01b031663375b3c0a6040518163ffffffff1660e01b815260040160206040518083038186803b158015610d4257600080fd5b505afa158015610d56573d6000803e3d6000fd5b505050506040513d601f19601f82011682018060405250810190610d7a9190612cf6565b8210610f415760008060005b83811015610e2a57600060048281548110610db157634e487b7160e01b600052603260045260246000fd5b9060005260206000200154905060066000828152602001908152602001600020600501548a1415610de25750610e18565b600081815260066020526040902060040154831015610e165760008181526006602052604090206004015491935090915082905b505b80610e2281612def565b915050610d86565b50600089821180610e435750600082118015610e435750875b15610f2557600060048481548110610e6b57634e487b7160e01b600052603260045260246000fd5b6000918252602080832090910154808352600682526040808420815160c08101835281546001600160a01b0390811682526001830154169481019490945260028101549184019190915260038101546060840152600481015460808401526005015460a0830152925090610ee060648e612dd8565b82606001518360400151610ef49190612dd8565b610efe9190612d99565b9050610f0b606482612db9565b9050610f1b8e828f8f8d886128e1565b9350505050610f2d565b505050610f41565b610f378186612dd8565b9450505050610cf4565b50505b60408051338152306020820152908101829052606081018790526080810186905260a081018590527f618f358bb45538682ade624a4a1959053d9dabd20fe300508034b879681b37be9060c00160405180910390a1979650505050505050565b600081815260066020908152604091829020825160c08101845281546001600160a01b0390811680835260018401549091169382019390935260028201549381019390935260038101546060840152600481015460808401526005015460a0830152331461104a5760405162461bcd60e51b81526020600482015260136024820152723ab730baba3437b934bd32b21031b0b63632b960691b60448201526064016102f5565b6000816060015182604001516110609190612dd8565b82516001600160a01b031660009081526005602052604081208054929350839290919061108e908490612d81565b90915550506040808301516000858152600660209081528382206003019290925533815260059091522054156107e4576107e233610447565b600a54604051631e55833360e31b81527f000000000000000000000000000000000000000000000000000000000000000060048201526000916001600160a01b03169063f2ac19989060240160206040518083038186803b15801561112b57600080fd5b505afa15801561113f573d6000803e3d6000fd5b505050506040513d601f19601f820116820180604052508101906111639190612c40565b6001600160a01b0316336001600160a01b0316148061118c57506001546001600160a01b031633145b6111a85760405162461bcd60e51b81526004016102f590612d52565b6111b18261146e565b156112155760035460005b8181101561120b576111f8600382815481106111e857634e487b7160e01b600052603260045260246000fd5b9060005260206000200154611eca565b508061120381612def565b9150506111bc565b5060019392505050565b506000919050565b600a54604051631e55833360e31b81527f000000000000000000000000000000000000000000000000000000000000000060048201526000916001600160a01b03169063f2ac19989060240160206040518083038186803b15801561128157600080fd5b505afa158015611295573d6000803e3d6000fd5b505050506040513d601f19601f820116820180604052508101906112b99190612c40565b6001600160a01b0316336001600160a01b031614806112e257506001546001600160a01b031633145b6112fe5760405162461bcd60e51b81526004016102f590612d52565b600254158061130f57506002546004145b156113755760035460005b81811015611368576113566003828154811061134657634e487b7160e01b600052603260045260246000fd5b9060005260206000200154612a2f565b8061136081612def565b91505061131a565b5050600360025550600190565b50600090565b600a54604051631e55833360e31b81527f000000000000000000000000000000000000000000000000000000000000000060048201526000916001600160a01b03169063f2ac19989060240160206040518083038186803b1580156113df57600080fd5b505afa1580156113f3573d6000803e3d6000fd5b505050506040513d601f19601f820116820180604052508101906114179190612c40565b6001600160a01b0316336001600160a01b0316148061144057506001546001600160a01b031633145b61145c5760405162461bcd60e51b81526004016102f590612d52565b60025461137557506004600255600190565b600a54604051631e55833360e31b81527f000000000000000000000000000000000000000000000000000000000000000060048201526000916001600160a01b03169063f2ac19989060240160206040518083038186803b1580156114d257600080fd5b505afa1580156114e6573d6000803e3d6000fd5b505050506040513d601f19601f8201168201806040525081019061150a9190612c40565b6001600160a01b0316336001600160a01b0316148061153357506001546001600160a01b031633145b61154f5760405162461bcd60e51b81526004016102f590612d52565b600254158061156057506002546004145b8015611576575081600114806115765750816002145b156112155750600255600190565b600a54604051631e55833360e31b81527f000000000000000000000000000000000000000000000000000000000000000060048201526000916001600160a01b03169063f2ac19989060240160206040518083038186803b1580156115e857600080fd5b505afa1580156115fc573d6000803e3d6000fd5b505050506040513d601f19601f820116820180604052508101906116209190612c40565b6001600160a01b0316336001600160a01b0316148061164957506001546001600160a01b031633145b6116655760405162461bcd60e51b81526004016102f590612d52565b600254158061167657506002546004145b1561137557506003600255600190565b6000818152600660209081526040808320815160c08101835281546001600160a01b03908116825260018301541681850152600282015481840152600382015460608201526004820154608082015260059091015460a082015284845260098352818420805483518186028101860190945280845291938593929083018282801561173057602002820191906000526020600020905b81548152602001906001019080831161171c575b505083519394506000925050505b81811015611ebe576008600084838151811061176a57634e487b7160e01b600052603260045260246000fd5b60209081029190910181015182528101919091526040016000206004015460ff161561179557611eac565b6000806000808760a001516001141561186d57600860008887815181106117cc57634e487b7160e01b600052603260045260246000fd5b602002602001015181526020019081526020016000206002015491506008600088878151811061180c57634e487b7160e01b600052603260045260246000fd5b602002602001015181526020019081526020016000206001015493506008600088878151811061184c57634e487b7160e01b600052603260045260246000fd5b6020026020010151815260200190815260200160002060030154925061193b565b8760a001516002141561193b576008600088878151811061189e57634e487b7160e01b600052603260045260246000fd5b60200260200101518152602001908152602001600020600301549150600860008887815181106118de57634e487b7160e01b600052603260045260246000fd5b602002602001015181526020019081526020016000206000015493506008600088878151811061191e57634e487b7160e01b600052603260045260246000fd5b602002602001015181526020019081526020016000206002015492505b5060008381526006602090815260409182902054600a5483516355c4a8bf60e01b815293516001600160a01b039283169460649493909216926355c4a8bf9260048082019391829003018186803b15801561199557600080fd5b505afa1580156119a9573d6000803e3d6000fd5b505050506040513d601f19601f820116820180604052508101906119cd9190612cf6565b6119d8906064612dd8565b6119e29084612db9565b6119ec9190612d99565b88516001600160a01b031660009081526005602052604081208054909190611a15908490612d81565b909155505060008481526006602052604081206003018054859290611a3b908490612dd8565b9250508190555060006064600a60009054906101000a90046001600160a01b03166001600160a01b03166355c4a8bf6040518163ffffffff1660e01b815260040160206040518083038186803b158015611a9457600080fd5b505afa158015611aa8573d6000803e3d6000fd5b505050506040513d601f19601f82011682018060405250810190611acc9190612cf6565b611ad69085612db9565b611ae09190612d99565b90506064600a60009054906101000a90046001600160a01b03166001600160a01b0316636a0ccd9d6040518163ffffffff1660e01b815260040160206040518083038186803b158015611b3257600080fd5b505afa158015611b46573d6000803e3d6000fd5b505050506040513d601f19601f82011682018060405250810190611b6a9190612cf6565b611b749083612db9565b611b7e9190612d99565b60056000600a60009054906101000a90046001600160a01b03166001600160a01b031663b7640a546040518163ffffffff1660e01b815260040160206040518083038186803b158015611bd057600080fd5b505afa158015611be4573d6000803e3d6000fd5b505050506040513d601f19601f82011682018060405250810190611c089190612c40565b6001600160a01b03166001600160a01b031681526020019081526020016000206000828254611c379190612d81565b9091555050600a54604080516328576d4560e01b815290516064926001600160a01b0316916328576d45916004808301926020929190829003018186803b158015611c8157600080fd5b505afa158015611c95573d6000803e3d6000fd5b505050506040513d601f19601f82011682018060405250810190611cb99190612cf6565b611cc39083612db9565b611ccd9190612d99565b60056000600a60009054906101000a90046001600160a01b03166001600160a01b03166309953b2f6040518163ffffffff1660e01b815260040160206040518083038186803b158015611d1f57600080fd5b505afa158015611d33573d6000803e3d6000fd5b505050506040513d601f19601f82011682018060405250810190611d579190612c40565b6001600160a01b03166001600160a01b031681526020019081526020016000206000828254611d869190612d81565b9091555050600a5460408051631533469760e21b815290516064926001600160a01b0316916354cd1a5c916004808301926020929190829003018186803b158015611dd057600080fd5b505afa158015611de4573d6000803e3d6000fd5b505050506040513d601f19601f82011682018060405250810190611e089190612cf6565b611e129083612db9565b611e1c9190612d99565b6020808b01516001600160a01b031660009081526005909152604081208054909190611e49908490612d81565b925050819055506001600860008a8981518110611e7657634e487b7160e01b600052603260045260246000fd5b6020026020010151815260200190815260200160002060040160006101000a81548160ff02191690831515021790555050505050505b80611eb681612def565b91505061173e565b50600195945050505050565b600060026000541415611f1f5760405162461bcd60e51b815260206004820152601f60248201527f5265656e7472616e637947756172643a207265656e7472616e742063616c6c0060448201526064016102f5565b600260009081558281526008602052604090206004015460ff1615611f465750600061070a565b60008060008060025460011415612120576000868152600860209081526040808320548352600682529182902054600a5483516355c4a8bf60e01b815293516001600160a01b03928316985060649491909216926355c4a8bf92600480840193829003018186803b158015611fba57600080fd5b505afa158015611fce573d6000803e3d6000fd5b505050506040513d601f19601f82011682018060405250810190611ff29190612cf6565b611ffd906064612dd8565b6000888152600860205260409020600301546120199190612db9565b6120239190612d99565b60008781526008602052604090206002015461203f9190612d81565b91506064600a60009054906101000a90046001600160a01b03166001600160a01b03166355c4a8bf6040518163ffffffff1660e01b815260040160206040518083038186803b15801561209157600080fd5b505afa1580156120a5573d6000803e3d6000fd5b505050506040513d601f19601f820116820180604052508101906120c99190612cf6565b6000888152600860205260409020600301546120e59190612db9565b6120ef9190612d99565b600087815260086020908152604080832054835260069091529020600101546001600160a01b031693509050612308565b600254600214156122fb576000868152600860209081526040808320600101548352600682529182902054600a5483516355c4a8bf60e01b815293516001600160a01b03928316985060649491909216926355c4a8bf92600480840193829003018186803b15801561219157600080fd5b505afa1580156121a5573d6000803e3d6000fd5b505050506040513d601f19601f820116820180604052508101906121c99190612cf6565b6121d4906064612dd8565b6000888152600860205260409020600201546121f09190612db9565b6121fa9190612d99565b6000878152600860205260409020600301546122169190612d81565b91506064600a60009054906101000a90046001600160a01b03166001600160a01b03166355c4a8bf6040518163ffffffff1660e01b815260040160206040518083038186803b15801561226857600080fd5b505afa15801561227c573d6000803e3d6000fd5b505050506040513d601f19601f820116820180604052508101906122a09190612cf6565b6000888152600860205260409020600201546122bc9190612db9565b6122c69190612d99565b60008781526008602090815260408083206001908101548452600690925290912001546001600160a01b031693509050612308565b600094505050505061070a565b6001600160a01b03841660009081526005602052604081208054849290612330908490612d81565b9091555050600a5460408051636a0ccd9d60e01b815290516064926001600160a01b031691636a0ccd9d916004808301926020929190829003018186803b15801561237a57600080fd5b505afa15801561238e573d6000803e3d6000fd5b505050506040513d601f19601f820116820180604052508101906123b29190612cf6565b6123bc9083612db9565b6123c69190612d99565b60056000600a60009054906101000a90046001600160a01b03166001600160a01b031663b7640a546040518163ffffffff1660e01b815260040160206040518083038186803b15801561241857600080fd5b505afa15801561242c573d6000803e3d6000fd5b505050506040513d601f19601f820116820180604052508101906124509190612c40565b6001600160a01b03166001600160a01b03168152602001908152602001600020600082825461247f9190612d81565b9091555050600a54604080516328576d4560e01b815290516064926001600160a01b0316916328576d45916004808301926020929190829003018186803b1580156124c957600080fd5b505afa1580156124dd573d6000803e3d6000fd5b505050506040513d601f19601f820116820180604052508101906125019190612cf6565b61250b9083612db9565b6125159190612d99565b60056000600a60009054906101000a90046001600160a01b03166001600160a01b03166309953b2f6040518163ffffffff1660e01b815260040160206040518083038186803b15801561256757600080fd5b505afa15801561257b573d6000803e3d6000fd5b505050506040513d601f19601f8201168201806040525081019061259f9190612c40565b6001600160a01b03166001600160a01b0316815260200190815260200160002060008282546125ce9190612d81565b9091555050600a5460408051631533469760e21b815290516064926001600160a01b0316916354cd1a5c916004808301926020929190829003018186803b15801561261857600080fd5b505afa15801561262c573d6000803e3d6000fd5b505050506040513d601f19601f820116820180604052508101906126509190612cf6565b61265a9083612db9565b6126649190612d99565b6001600160a01b0384166000908152600560205260408120805490919061268c908490612d81565b909155505050600094855250506008602052505060408120600401805460ff191660019081179091559081905590565b60008060005b6004548990309083906126d6906001612d81565b6126e09190612d81565b6040516bffffffffffffffffffffffff19606094851b811660208301529290931b9091166034830152604882015242606882015244608882015260a80160408051601f1981840301815291815281516020928301206000818152600690935291206002015490925061275157612763565b8061275b81612def565b9150506126c2565b6001600160a01b0388166127fa57600a60009054906101000a90046001600160a01b03166001600160a01b03166309953b2f6040518163ffffffff1660e01b815260040160206040518083038186803b1580156127bf57600080fd5b505afa1580156127d3573d6000803e3d6000fd5b505050506040513d601f19601f820116820180604052508101906127f79190612c40565b97505b506040805160c0810182526001600160a01b03998a16808252988a166020808301918252828401998a52606083019889526080830197885260a0830196875260008581526006825284812093518454908e166001600160a01b031991821617855592516001808601805492909f169190941617909c5598516002830155965160038201559451600480870191909155935160059095019490945582548086019093557f8a35acfbc15ff81a39ae7d344fd709f28e8600b4aa8c65c6b64bfe7fe36bd19b90920182905550938552600783528420805491820181558452922090910181905590565b60008060008089891161294b578892506128fc606489612dd8565b612906908a612db9565b9150612913606483612d99565b915086600114156129315761292a86868585612aea565b905061299f565b86600214156129465761292a85878486612aea565b61299f565b899250612959606489612dd8565b612963908b612db9565b9150612970606483612d99565b915086600114156129875761292a86868585612aea565b866002141561299f5761299c85878486612aea565b90505b600086815260096020908152604080832080546001818101835591855283852001859055888452818420805491820181558452828420018490558883526006909152812060030180548592906129f6908490612d81565b909155505060008581526006602052604081206003018054849290612a1c908490612d81565b90915550929a9950505050505050505050565b600081815260086020908152604080832080548452600683528184205460018201548552828520546002909201546001600160a01b039182168087526005909552928520805494959190921693612a87908490612d81565b90915550506000838152600860209081526040808320600301546001600160a01b038516845260059092528220805491929091612ac5908490612d81565b909155505050600091825250600860205260409020600401805460ff19166001179055565b60008060005b600354879087908390612b04906001612d81565b612b0e9190612d81565b60408051602081019490945283019190915260608201524260808201524460a082015260c00160408051601f19818403018152918152815160209283012060008181526008909352912060020154909250612b6857612b7a565b80612b7281612def565b915050612af0565b506040805160a081018252968752602080880196875287820195865260608801948552600060808901818152848252600890925291822097518855955160018089019190915594516002880155925160038088019190915594516004909601805460ff1916961515969096179095555082549182018355919091527fc2575a0e9e593c00f959f8c92f12db2869c3395a3b0502d05e2516446f71f85b0181905590565b600060208284031215612c2e578081fd5b8135612c3981612e20565b9392505050565b600060208284031215612c51578081fd5b8151612c3981612e20565b60008060008060008060c08789031215612c74578182fd5b8635612c7f81612e20565b95506020870135612c8f81612e20565b945060408701359350606087013592506080870135915060a0870135612cb481612e35565b809150509295509295509295565b600060208284031215612cd3578081fd5b8151612c3981612e35565b600060208284031215612cef578081fd5b5035919050565b600060208284031215612d07578081fd5b5051919050565b6020808252825182820181905260009190848201906040850190845b81811015612d4657835183529284019291840191600101612d2a565b50909695505050505050565b60208082526015908201527418d85b1b195c881b9bdd08185d5d1a1bdc9a5e9959605a1b604082015260600190565b60008219821115612d9457612d94612e0a565b500190565b600082612db457634e487b7160e01b81526012600452602481fd5b500490565b6000816000190483118215151615612dd357612dd3612e0a565b500290565b600082821015612dea57612dea612e0a565b500390565b6000600019821415612e0357612e03612e0a565b5060010190565b634e487b7160e01b600052601160045260246000fd5b6001600160a01b038116811461032857600080fd5b801515811461032857600080fdfea2646970667358221220e612183b200a9628db47bce2f5b701446e3e78966543abf008ec30c2e5816a4c64736f6c63430008040033",
					"opcodes": "PUSH1 0xC0 PUSH1 0x40 DUP2 SWAP1 MSTORE PUSH1 0x0 PUSH1 0x2 SSTORE PUSH1 0x1 SLOAD PUSH1 0xA DUP1 SLOAD PUSH1 0x1 PUSH1 0x1 PUSH1 0xA0 SHL SUB NOT AND PUSH1 0x1 PUSH1 0x1 PUSH1 0xA0 SHL SUB SWAP1 SWAP3 AND SWAP2 DUP3 OR SWAP1 SSTORE PUSH3 0x966ED9 PUSH1 0xE3 SHL DUP3 MSTORE SWAP1 PUSH4 0x4B376C8 SWAP1 PUSH1 0xC4 SWAP1 PUSH1 0x20 SWAP1 PUSH1 0x4 DUP2 DUP7 DUP1 EXTCODESIZE ISZERO DUP1 ISZERO PUSH3 0x55 JUMPI PUSH1 0x0 DUP1 REVERT JUMPDEST POP GAS STATICCALL ISZERO DUP1 ISZERO PUSH3 0x6A JUMPI RETURNDATASIZE PUSH1 0x0 DUP1 RETURNDATACOPY RETURNDATASIZE PUSH1 0x0 REVERT JUMPDEST POP POP POP POP PUSH1 0x40 MLOAD RETURNDATASIZE PUSH1 0x1F NOT PUSH1 0x1F DUP3 ADD AND DUP3 ADD DUP1 PUSH1 0x40 MSTORE POP DUP2 ADD SWAP1 PUSH3 0x90 SWAP2 SWAP1 PUSH3 0xF3 JUMP JUMPDEST PUSH1 0x60 SHL PUSH1 0x1 PUSH1 0x1 PUSH1 0x60 SHL SUB NOT AND PUSH1 0xA0 MSTORE CALLVALUE DUP1 ISZERO PUSH3 0xAD JUMPI PUSH1 0x0 DUP1 REVERT JUMPDEST POP PUSH1 0x40 MLOAD PUSH3 0x301D CODESIZE SUB DUP1 PUSH3 0x301D DUP4 CODECOPY DUP2 ADD PUSH1 0x40 DUP2 SWAP1 MSTORE PUSH3 0xD0 SWAP2 PUSH3 0x123 JUMP JUMPDEST PUSH1 0x1 PUSH1 0x0 DUP2 SWAP1 SSTORE PUSH1 0x80 SWAP2 SWAP1 SWAP2 MSTORE DUP1 SLOAD PUSH1 0x1 PUSH1 0x1 PUSH1 0xA0 SHL SUB NOT AND CALLER OR SWAP1 SSTORE PUSH3 0x13C JUMP JUMPDEST PUSH1 0x0 PUSH1 0x20 DUP3 DUP5 SUB SLT ISZERO PUSH3 0x105 JUMPI DUP1 DUP2 REVERT JUMPDEST DUP2 MLOAD PUSH1 0x1 PUSH1 0x1 PUSH1 0xA0 SHL SUB DUP2 AND DUP2 EQ PUSH3 0x11C JUMPI DUP2 DUP3 REVERT JUMPDEST SWAP4 SWAP3 POP POP POP JUMP JUMPDEST PUSH1 0x0 PUSH1 0x20 DUP3 DUP5 SUB SLT ISZERO PUSH3 0x135 JUMPI DUP1 DUP2 REVERT JUMPDEST POP MLOAD SWAP2 SWAP1 POP JUMP JUMPDEST PUSH1 0x80 MLOAD PUSH1 0xA0 MLOAD PUSH1 0x60 SHR PUSH2 0x2E79 PUSH3 0x1A4 PUSH1 0x0 CODECOPY PUSH1 0x0 DUP2 DUP2 PUSH2 0x4D0 ADD MSTORE DUP2 DUP2 PUSH2 0x5F4 ADD MSTORE DUP2 DUP2 PUSH2 0x943 ADD MSTORE DUP2 DUP2 PUSH2 0xA30 ADD MSTORE PUSH2 0xBE4 ADD MSTORE PUSH1 0x0 DUP2 DUP2 PUSH2 0x201 ADD MSTORE DUP2 DUP2 PUSH2 0x10D9 ADD MSTORE DUP2 DUP2 PUSH2 0x122F ADD MSTORE DUP2 DUP2 PUSH2 0x138D ADD MSTORE DUP2 DUP2 PUSH2 0x1480 ADD MSTORE PUSH2 0x1596 ADD MSTORE PUSH2 0x2E79 PUSH1 0x0 RETURN INVALID PUSH1 0x80 PUSH1 0x40 MSTORE CALLVALUE DUP1 ISZERO PUSH2 0x10 JUMPI PUSH1 0x0 DUP1 REVERT JUMPDEST POP PUSH1 0x4 CALLDATASIZE LT PUSH2 0xF5 JUMPI PUSH1 0x0 CALLDATALOAD PUSH1 0xE0 SHR DUP1 PUSH4 0x7A47D494 GT PUSH2 0x97 JUMPI DUP1 PUSH4 0xBE9A6555 GT PUSH2 0x66 JUMPI DUP1 PUSH4 0xBE9A6555 EQ PUSH2 0x251 JUMPI DUP1 PUSH4 0xD0ED7295 EQ PUSH2 0x259 JUMPI DUP1 PUSH4 0xEA8A1AF0 EQ PUSH2 0x26C JUMPI DUP1 PUSH4 0xF8B2CB4F EQ PUSH2 0x274 JUMPI PUSH1 0x0 DUP1 REVERT JUMPDEST DUP1 PUSH4 0x7A47D494 EQ PUSH2 0x1FC JUMPI DUP1 PUSH4 0x7D7F9232 EQ PUSH2 0x223 JUMPI DUP1 PUSH4 0x8DF82800 EQ PUSH2 0x236 JUMPI DUP1 PUSH4 0xAE8CD090 EQ PUSH2 0x249 JUMPI PUSH1 0x0 DUP1 REVERT JUMPDEST DUP1 PUSH4 0x37E8C09E GT PUSH2 0xD3 JUMPI DUP1 PUSH4 0x37E8C09E EQ PUSH2 0x14B JUMPI DUP1 PUSH4 0x51CFF8D9 EQ PUSH2 0x1B3 JUMPI DUP1 PUSH4 0x675F6537 EQ PUSH2 0x1D6 JUMPI DUP1 PUSH4 0x78D65B2F EQ PUSH2 0x1E9 JUMPI PUSH1 0x0 DUP1 REVERT JUMPDEST DUP1 PUSH4 0x200D2ED2 EQ PUSH2 0xFA JUMPI DUP1 PUSH4 0x2940FF1E EQ PUSH2 0x116 JUMPI DUP1 PUSH4 0x2D56657D EQ PUSH2 0x12B JUMPI JUMPDEST PUSH1 0x0 DUP1 REVERT JUMPDEST PUSH2 0x103 PUSH1 0x2 SLOAD DUP2 JUMP JUMPDEST PUSH1 0x40 MLOAD SWAP1 DUP2 MSTORE PUSH1 0x20 ADD JUMPDEST PUSH1 0x40 MLOAD DUP1 SWAP2 SUB SWAP1 RETURN JUMPDEST PUSH2 0x129 PUSH2 0x124 CALLDATASIZE PUSH1 0x4 PUSH2 0x2CDE JUMP JUMPDEST PUSH2 0x29D JUMP JUMPDEST STOP JUMPDEST PUSH2 0x13E PUSH2 0x139 CALLDATASIZE PUSH1 0x4 PUSH2 0x2C1D JUMP JUMPDEST PUSH2 0x32B JUMP JUMPDEST PUSH1 0x40 MLOAD PUSH2 0x10D SWAP2 SWAP1 PUSH2 0x2D0E JUMP JUMPDEST PUSH2 0x15E PUSH2 0x159 CALLDATASIZE PUSH1 0x4 PUSH2 0x2CDE JUMP JUMPDEST PUSH2 0x397 JUMP JUMPDEST PUSH1 0x40 MLOAD PUSH2 0x10D SWAP2 SWAP1 DUP2 MLOAD PUSH1 0x1 PUSH1 0x1 PUSH1 0xA0 SHL SUB SWAP1 DUP2 AND DUP3 MSTORE PUSH1 0x20 DUP1 DUP5 ADD MLOAD SWAP1 SWAP2 AND SWAP1 DUP3 ADD MSTORE PUSH1 0x40 DUP1 DUP4 ADD MLOAD SWAP1 DUP3 ADD MSTORE PUSH1 0x60 DUP1 DUP4 ADD MLOAD SWAP1 DUP3 ADD MSTORE PUSH1 0x80 DUP1 DUP4 ADD MLOAD SWAP1 DUP3 ADD MSTORE PUSH1 0xA0 SWAP2 DUP3 ADD MLOAD SWAP2 DUP2 ADD SWAP2 SWAP1 SWAP2 MSTORE PUSH1 0xC0 ADD SWAP1 JUMP JUMPDEST PUSH2 0x1C6 PUSH2 0x1C1 CALLDATASIZE PUSH1 0x4 PUSH2 0x2C1D JUMP JUMPDEST PUSH2 0x447 JUMP JUMPDEST PUSH1 0x40 MLOAD SWAP1 ISZERO ISZERO DUP2 MSTORE PUSH1 0x20 ADD PUSH2 0x10D JUMP JUMPDEST PUSH2 0x129 PUSH2 0x1E4 CALLDATASIZE PUSH1 0x4 PUSH2 0x2CDE JUMP JUMPDEST PUSH2 0x714 JUMP JUMPDEST PUSH2 0x103 PUSH2 0x1F7 CALLDATASIZE PUSH1 0x4 PUSH2 0x2C5C JUMP JUMPDEST PUSH2 0x7E9 JUMP JUMPDEST PUSH2 0x103 PUSH32 0x0 DUP2 JUMP JUMPDEST PUSH2 0x129 PUSH2 0x231 CALLDATASIZE PUSH1 0x4 PUSH2 0x2CDE JUMP JUMPDEST PUSH2 0xFA4 JUMP JUMPDEST PUSH2 0x1C6 PUSH2 0x244 CALLDATASIZE PUSH1 0x4 PUSH2 0x2CDE JUMP JUMPDEST PUSH2 0x10C7 JUMP JUMPDEST PUSH2 0x1C6 PUSH2 0x121D JUMP JUMPDEST PUSH2 0x1C6 PUSH2 0x137B JUMP JUMPDEST PUSH2 0x1C6 PUSH2 0x267 CALLDATASIZE PUSH1 0x4 PUSH2 0x2CDE JUMP JUMPDEST PUSH2 0x146E JUMP JUMPDEST PUSH2 0x1C6 PUSH2 0x1584 JUMP JUMPDEST PUSH2 0x103 PUSH2 0x282 CALLDATASIZE PUSH1 0x4 PUSH2 0x2C1D JUMP JUMPDEST PUSH1 0x1 PUSH1 0x1 PUSH1 0xA0 SHL SUB AND PUSH1 0x0 SWAP1 DUP2 MSTORE PUSH1 0x5 PUSH1 0x20 MSTORE PUSH1 0x40 SWAP1 KECCAK256 SLOAD SWAP1 JUMP JUMPDEST PUSH1 0x0 DUP2 DUP2 MSTORE PUSH1 0x6 PUSH1 0x20 MSTORE PUSH1 0x40 SWAP1 KECCAK256 SLOAD PUSH1 0x1 PUSH1 0x1 PUSH1 0xA0 SHL SUB AND CALLER EQ PUSH2 0x2FE JUMPI PUSH1 0x40 MLOAD PUSH3 0x461BCD PUSH1 0xE5 SHL DUP2 MSTORE PUSH1 0x20 PUSH1 0x4 DUP3 ADD MSTORE PUSH1 0x13 PUSH1 0x24 DUP3 ADD MSTORE PUSH19 0x3AB730BABA3437B934BD32B21031B0B63632B9 PUSH1 0x69 SHL PUSH1 0x44 DUP3 ADD MSTORE PUSH1 0x64 ADD JUMPDEST PUSH1 0x40 MLOAD DUP1 SWAP2 SUB SWAP1 REVERT JUMPDEST PUSH1 0x2 SLOAD ISZERO DUP1 PUSH2 0x30F JUMPI POP PUSH1 0x2 SLOAD PUSH1 0x4 EQ JUMPDEST ISZERO PUSH2 0x31F JUMPI PUSH2 0x31D DUP2 PUSH2 0x1686 JUMP JUMPDEST POP JUMPDEST PUSH2 0x328 DUP2 PUSH2 0xFA4 JUMP JUMPDEST POP JUMP JUMPDEST PUSH1 0x1 PUSH1 0x1 PUSH1 0xA0 SHL SUB DUP2 AND PUSH1 0x0 SWAP1 DUP2 MSTORE PUSH1 0x7 PUSH1 0x20 SWAP1 DUP2 MSTORE PUSH1 0x40 SWAP2 DUP3 SWAP1 KECCAK256 DUP1 SLOAD DUP4 MLOAD DUP2 DUP5 MUL DUP2 ADD DUP5 ADD SWAP1 SWAP5 MSTORE DUP1 DUP5 MSTORE PUSH1 0x60 SWAP4 SWAP3 DUP4 ADD DUP3 DUP3 DUP1 ISZERO PUSH2 0x38B JUMPI PUSH1 0x20 MUL DUP3 ADD SWAP2 SWAP1 PUSH1 0x0 MSTORE PUSH1 0x20 PUSH1 0x0 KECCAK256 SWAP1 JUMPDEST DUP2 SLOAD DUP2 MSTORE PUSH1 0x20 ADD SWAP1 PUSH1 0x1 ADD SWAP1 DUP1 DUP4 GT PUSH2 0x377 JUMPI JUMPDEST POP POP POP POP POP SWAP1 POP SWAP2 SWAP1 POP JUMP JUMPDEST PUSH2 0x3E2 PUSH1 0x40 MLOAD DUP1 PUSH1 0xC0 ADD PUSH1 0x40 MSTORE DUP1 PUSH1 0x0 PUSH1 0x1 PUSH1 0x1 PUSH1 0xA0 SHL SUB AND DUP2 MSTORE PUSH1 0x20 ADD PUSH1 0x0 PUSH1 0x1 PUSH1 0x1 PUSH1 0xA0 SHL SUB AND DUP2 MSTORE PUSH1 0x20 ADD PUSH1 0x0 DUP2 MSTORE PUSH1 0x20 ADD PUSH1 0x0 DUP2 MSTORE PUSH1 0x20 ADD PUSH1 0x0 DUP2 MSTORE PUSH1 0x20 ADD PUSH1 0x0 DUP2 MSTORE POP SWAP1 JUMP JUMPDEST POP PUSH1 0x0 SWAP1 DUP2 MSTORE PUSH1 0x6 PUSH1 0x20 SWAP1 DUP2 MSTORE PUSH1 0x40 SWAP2 DUP3 SWAP1 KECCAK256 DUP3 MLOAD PUSH1 0xC0 DUP2 ADD DUP5 MSTORE DUP2 SLOAD PUSH1 0x1 PUSH1 0x1 PUSH1 0xA0 SHL SUB SWAP1 DUP2 AND DUP3 MSTORE PUSH1 0x1 DUP4 ADD SLOAD AND SWAP3 DUP2 ADD SWAP3 SWAP1 SWAP3 MSTORE PUSH1 0x2 DUP2 ADD SLOAD SWAP3 DUP3 ADD SWAP3 SWAP1 SWAP3 MSTORE PUSH1 0x3 DUP3 ADD SLOAD PUSH1 0x60 DUP3 ADD MSTORE PUSH1 0x4 DUP3 ADD SLOAD PUSH1 0x80 DUP3 ADD MSTORE PUSH1 0x5 SWAP1 SWAP2 ADD SLOAD PUSH1 0xA0 DUP3 ADD MSTORE SWAP1 JUMP JUMPDEST PUSH1 0x0 PUSH1 0x2 PUSH1 0x0 SLOAD EQ ISZERO PUSH2 0x49C JUMPI PUSH1 0x40 MLOAD PUSH3 0x461BCD PUSH1 0xE5 SHL DUP2 MSTORE PUSH1 0x20 PUSH1 0x4 DUP3 ADD MSTORE PUSH1 0x1F PUSH1 0x24 DUP3 ADD MSTORE PUSH32 0x5265656E7472616E637947756172643A207265656E7472616E742063616C6C00 PUSH1 0x44 DUP3 ADD MSTORE PUSH1 0x64 ADD PUSH2 0x2F5 JUMP JUMPDEST PUSH1 0x2 PUSH1 0x0 SWAP1 DUP2 SSTORE PUSH1 0x1 PUSH1 0x1 PUSH1 0xA0 SHL SUB DUP4 DUP2 AND DUP3 MSTORE PUSH1 0x5 PUSH1 0x20 MSTORE PUSH1 0x40 SWAP2 DUP3 SWAP1 KECCAK256 SLOAD SWAP2 MLOAD PUSH4 0x70A08231 PUSH1 0xE0 SHL DUP2 MSTORE ADDRESS PUSH1 0x4 DUP3 ADD MSTORE PUSH32 0x0 SWAP1 SWAP2 AND SWAP1 PUSH4 0x70A08231 SWAP1 PUSH1 0x24 ADD PUSH1 0x20 PUSH1 0x40 MLOAD DUP1 DUP4 SUB DUP2 DUP7 DUP1 EXTCODESIZE ISZERO DUP1 ISZERO PUSH2 0x514 JUMPI PUSH1 0x0 DUP1 REVERT JUMPDEST POP GAS STATICCALL ISZERO DUP1 ISZERO PUSH2 0x528 JUMPI RETURNDATASIZE PUSH1 0x0 DUP1 RETURNDATACOPY RETURNDATASIZE PUSH1 0x0 REVERT JUMPDEST POP POP POP POP PUSH1 0x40 MLOAD RETURNDATASIZE PUSH1 0x1F NOT PUSH1 0x1F DUP3 ADD AND DUP3 ADD DUP1 PUSH1 0x40 MSTORE POP DUP2 ADD SWAP1 PUSH2 0x54C SWAP2 SWAP1 PUSH2 0x2CF6 JUMP JUMPDEST LT ISZERO DUP1 ISZERO PUSH2 0x571 JUMPI POP PUSH1 0x1 PUSH1 0x1 PUSH1 0xA0 SHL SUB DUP3 AND PUSH1 0x0 SWAP1 DUP2 MSTORE PUSH1 0x5 PUSH1 0x20 MSTORE PUSH1 0x40 SWAP1 KECCAK256 SLOAD ISZERO ISZERO JUMPDEST PUSH2 0x5B4 JUMPI PUSH1 0x40 MLOAD PUSH3 0x461BCD PUSH1 0xE5 SHL DUP2 MSTORE PUSH1 0x20 PUSH1 0x4 DUP3 ADD MSTORE PUSH1 0x14 PUSH1 0x24 DUP3 ADD MSTORE PUSH20 0x7A65726F2076616C756520617661696C61626C65 PUSH1 0x60 SHL PUSH1 0x44 DUP3 ADD MSTORE PUSH1 0x64 ADD PUSH2 0x2F5 JUMP JUMPDEST PUSH1 0x1 PUSH1 0x1 PUSH1 0xA0 SHL SUB DUP3 DUP2 AND PUSH1 0x0 DUP2 DUP2 MSTORE PUSH1 0x5 PUSH1 0x20 MSTORE PUSH1 0x40 DUP1 DUP3 KECCAK256 DUP1 SLOAD SWAP1 DUP4 SWAP1 SSTORE SWAP1 MLOAD PUSH4 0xA9059CBB PUSH1 0xE0 SHL DUP2 MSTORE PUSH1 0x4 DUP2 ADD SWAP4 SWAP1 SWAP4 MSTORE PUSH1 0x24 DUP4 ADD DUP2 SWAP1 MSTORE SWAP3 SWAP1 SWAP2 PUSH32 0x0 SWAP1 SWAP2 AND SWAP1 PUSH4 0xA9059CBB SWAP1 PUSH1 0x44 ADD PUSH1 0x20 PUSH1 0x40 MLOAD DUP1 DUP4 SUB DUP2 PUSH1 0x0 DUP8 DUP1 EXTCODESIZE ISZERO DUP1 ISZERO PUSH2 0x63A JUMPI PUSH1 0x0 DUP1 REVERT JUMPDEST POP GAS CALL ISZERO DUP1 ISZERO PUSH2 0x64E JUMPI RETURNDATASIZE PUSH1 0x0 DUP1 RETURNDATACOPY RETURNDATASIZE PUSH1 0x0 REVERT JUMPDEST POP POP POP POP PUSH1 0x40 MLOAD RETURNDATASIZE PUSH1 0x1F NOT PUSH1 0x1F DUP3 ADD AND DUP3 ADD DUP1 PUSH1 0x40 MSTORE POP DUP2 ADD SWAP1 PUSH2 0x672 SWAP2 SWAP1 PUSH2 0x2CC2 JUMP JUMPDEST SWAP1 POP DUP1 PUSH2 0x6C1 JUMPI PUSH1 0x40 MLOAD PUSH3 0x461BCD PUSH1 0xE5 SHL DUP2 MSTORE PUSH1 0x20 PUSH1 0x4 DUP3 ADD MSTORE PUSH1 0x19 PUSH1 0x24 DUP3 ADD MSTORE PUSH32 0x7472616E7366657220746F2063616C6C6572206661696C656400000000000000 PUSH1 0x44 DUP3 ADD MSTORE PUSH1 0x64 ADD PUSH2 0x2F5 JUMP JUMPDEST PUSH1 0x40 DUP1 MLOAD PUSH1 0x1 PUSH1 0x1 PUSH1 0xA0 SHL SUB DUP7 AND DUP2 MSTORE PUSH1 0x20 DUP2 ADD DUP5 SWAP1 MSTORE PUSH32 0x884EDAD9CE6FA2440D8A54CC123490EB96D2768479D49FF9C7366125A9424364 SWAP2 ADD PUSH1 0x40 MLOAD DUP1 SWAP2 SUB SWAP1 LOG1 PUSH1 0x1 SWAP3 POP POP POP JUMPDEST PUSH1 0x1 PUSH1 0x0 SSTORE SWAP2 SWAP1 POP JUMP JUMPDEST PUSH1 0x0 DUP2 DUP2 MSTORE PUSH1 0x9 PUSH1 0x20 SWAP1 DUP2 MSTORE PUSH1 0x40 DUP1 DUP4 KECCAK256 DUP1 SLOAD DUP3 MLOAD DUP2 DUP6 MUL DUP2 ADD DUP6 ADD SWAP1 SWAP4 MSTORE DUP1 DUP4 MSTORE SWAP2 SWAP3 SWAP1 SWAP2 SWAP1 DUP4 ADD DUP3 DUP3 DUP1 ISZERO PUSH2 0x76A JUMPI PUSH1 0x20 MUL DUP3 ADD SWAP2 SWAP1 PUSH1 0x0 MSTORE PUSH1 0x20 PUSH1 0x0 KECCAK256 SWAP1 JUMPDEST DUP2 SLOAD DUP2 MSTORE PUSH1 0x20 ADD SWAP1 PUSH1 0x1 ADD SWAP1 DUP1 DUP4 GT PUSH2 0x756 JUMPI JUMPDEST POP POP DUP4 MLOAD SWAP4 SWAP5 POP PUSH1 0x0 SWAP3 POP POP POP JUMPDEST DUP2 DUP2 LT ISZERO PUSH2 0x7C3 JUMPI PUSH2 0x7B0 DUP4 DUP3 DUP2 MLOAD DUP2 LT PUSH2 0x7A3 JUMPI PUSH4 0x4E487B71 PUSH1 0xE0 SHL PUSH1 0x0 MSTORE PUSH1 0x32 PUSH1 0x4 MSTORE PUSH1 0x24 PUSH1 0x0 REVERT JUMPDEST PUSH1 0x20 MUL PUSH1 0x20 ADD ADD MLOAD PUSH2 0x1ECA JUMP JUMPDEST POP DUP1 PUSH2 0x7BB DUP2 PUSH2 0x2DEF JUMP JUMPDEST SWAP2 POP POP PUSH2 0x778 JUMP JUMPDEST POP CALLER PUSH1 0x0 SWAP1 DUP2 MSTORE PUSH1 0x5 PUSH1 0x20 MSTORE PUSH1 0x40 SWAP1 KECCAK256 SLOAD ISZERO PUSH2 0x7E4 JUMPI PUSH2 0x7E2 CALLER PUSH2 0x447 JUMP JUMPDEST POP JUMPDEST POP POP POP JUMP JUMPDEST PUSH1 0xA SLOAD PUSH1 0x40 MLOAD PUSH4 0x332DACCF PUSH1 0xE0 SHL DUP2 MSTORE CALLER PUSH1 0x4 DUP3 ADD MSTORE PUSH1 0x0 SWAP2 PUSH1 0x1 PUSH1 0x1 PUSH1 0xA0 SHL SUB AND SWAP1 PUSH4 0x332DACCF SWAP1 PUSH1 0x24 ADD PUSH1 0x20 PUSH1 0x40 MLOAD DUP1 DUP4 SUB DUP2 DUP7 DUP1 EXTCODESIZE ISZERO DUP1 ISZERO PUSH2 0x82D JUMPI PUSH1 0x0 DUP1 REVERT JUMPDEST POP GAS STATICCALL ISZERO DUP1 ISZERO PUSH2 0x841 JUMPI RETURNDATASIZE PUSH1 0x0 DUP1 RETURNDATACOPY RETURNDATASIZE PUSH1 0x0 REVERT JUMPDEST POP POP POP POP PUSH1 0x40 MLOAD RETURNDATASIZE PUSH1 0x1F NOT PUSH1 0x1F DUP3 ADD AND DUP3 ADD DUP1 PUSH1 0x40 MSTORE POP DUP2 ADD SWAP1 PUSH2 0x865 SWAP2 SWAP1 PUSH2 0x2CC2 JUMP JUMPDEST ISZERO PUSH2 0x89E JUMPI PUSH1 0x40 MLOAD PUSH3 0x461BCD PUSH1 0xE5 SHL DUP2 MSTORE PUSH1 0x20 PUSH1 0x4 DUP3 ADD MSTORE PUSH1 0x9 PUSH1 0x24 DUP3 ADD MSTORE PUSH9 0x189B1858DADB1A5CDD PUSH1 0xBA SHL PUSH1 0x44 DUP3 ADD MSTORE PUSH1 0x64 ADD PUSH2 0x2F5 JUMP JUMPDEST PUSH1 0x2 SLOAD ISZERO PUSH2 0x8E2 JUMPI PUSH1 0x40 MLOAD PUSH3 0x461BCD PUSH1 0xE5 SHL DUP2 MSTORE PUSH1 0x20 PUSH1 0x4 DUP3 ADD MSTORE PUSH1 0x11 PUSH1 0x24 DUP3 ADD MSTORE PUSH17 0x6D61726B6574206E6F7420616374697665 PUSH1 0x78 SHL PUSH1 0x44 DUP3 ADD MSTORE PUSH1 0x64 ADD PUSH2 0x2F5 JUMP JUMPDEST DUP3 PUSH1 0x1 EQ DUP1 PUSH2 0x8F1 JUMPI POP DUP3 PUSH1 0x2 EQ JUMPDEST PUSH2 0x92C JUMPI PUSH1 0x40 MLOAD PUSH3 0x461BCD PUSH1 0xE5 SHL DUP2 MSTORE PUSH1 0x20 PUSH1 0x4 DUP3 ADD MSTORE PUSH1 0xC PUSH1 0x24 DUP3 ADD MSTORE PUSH12 0x696E76616C69642073696465 PUSH1 0xA0 SHL PUSH1 0x44 DUP3 ADD MSTORE PUSH1 0x64 ADD PUSH2 0x2F5 JUMP JUMPDEST PUSH1 0x40 MLOAD PUSH4 0x70A08231 PUSH1 0xE0 SHL DUP2 MSTORE CALLER PUSH1 0x4 DUP3 ADD MSTORE DUP6 SWAP1 PUSH32 0x0 PUSH1 0x1 PUSH1 0x1 PUSH1 0xA0 SHL SUB AND SWAP1 PUSH4 0x70A08231 SWAP1 PUSH1 0x24 ADD PUSH1 0x20 PUSH1 0x40 MLOAD DUP1 DUP4 SUB DUP2 DUP7 DUP1 EXTCODESIZE ISZERO DUP1 ISZERO PUSH2 0x98D JUMPI PUSH1 0x0 DUP1 REVERT JUMPDEST POP GAS STATICCALL ISZERO DUP1 ISZERO PUSH2 0x9A1 JUMPI RETURNDATASIZE PUSH1 0x0 DUP1 RETURNDATACOPY RETURNDATASIZE PUSH1 0x0 REVERT JUMPDEST POP POP POP POP PUSH1 0x40 MLOAD RETURNDATASIZE PUSH1 0x1F NOT PUSH1 0x1F DUP3 ADD AND DUP3 ADD DUP1 PUSH1 0x40 MSTORE POP DUP2 ADD SWAP1 PUSH2 0x9C5 SWAP2 SWAP1 PUSH2 0x2CF6 JUMP JUMPDEST LT ISZERO PUSH2 0xA13 JUMPI PUSH1 0x40 MLOAD PUSH3 0x461BCD PUSH1 0xE5 SHL DUP2 MSTORE PUSH1 0x20 PUSH1 0x4 DUP3 ADD MSTORE PUSH1 0x19 PUSH1 0x24 DUP3 ADD MSTORE PUSH32 0x6E6F7420656E6F75676820746F6B656E2062616C616C6E636500000000000000 PUSH1 0x44 DUP3 ADD MSTORE PUSH1 0x64 ADD PUSH2 0x2F5 JUMP JUMPDEST PUSH1 0x40 MLOAD PUSH4 0x6EB1769F PUSH1 0xE1 SHL DUP2 MSTORE CALLER PUSH1 0x4 DUP3 ADD MSTORE ADDRESS PUSH1 0x24 DUP3 ADD MSTORE DUP6 SWAP1 PUSH32 0x0 PUSH1 0x1 PUSH1 0x1 PUSH1 0xA0 SHL SUB AND SWAP1 PUSH4 0xDD62ED3E SWAP1 PUSH1 0x44 ADD PUSH1 0x20 PUSH1 0x40 MLOAD DUP1 DUP4 SUB DUP2 DUP7 DUP1 EXTCODESIZE ISZERO DUP1 ISZERO PUSH2 0xA7A JUMPI PUSH1 0x0 DUP1 REVERT JUMPDEST POP GAS STATICCALL ISZERO DUP1 ISZERO PUSH2 0xA8E JUMPI RETURNDATASIZE PUSH1 0x0 DUP1 RETURNDATACOPY RETURNDATASIZE PUSH1 0x0 REVERT JUMPDEST POP POP POP POP PUSH1 0x40 MLOAD RETURNDATASIZE PUSH1 0x1F NOT PUSH1 0x1F DUP3 ADD AND DUP3 ADD DUP1 PUSH1 0x40 MSTORE POP DUP2 ADD SWAP1 PUSH2 0xAB2 SWAP2 SWAP1 PUSH2 0x2CF6 JUMP JUMPDEST LT ISZERO PUSH2 0xAF7 JUMPI PUSH1 0x40 MLOAD PUSH3 0x461BCD PUSH1 0xE5 SHL DUP2 MSTORE PUSH1 0x20 PUSH1 0x4 DUP3 ADD MSTORE PUSH1 0x14 PUSH1 0x24 DUP3 ADD MSTORE PUSH20 0x6E6F7420656E6F75676820616C6C6F77616E6365 PUSH1 0x60 SHL PUSH1 0x44 DUP3 ADD MSTORE PUSH1 0x64 ADD PUSH2 0x2F5 JUMP JUMPDEST PUSH1 0xA PUSH1 0x0 SWAP1 SLOAD SWAP1 PUSH2 0x100 EXP SWAP1 DIV PUSH1 0x1 PUSH1 0x1 PUSH1 0xA0 SHL SUB AND PUSH1 0x1 PUSH1 0x1 PUSH1 0xA0 SHL SUB AND PUSH4 0x375B3C0A PUSH1 0x40 MLOAD DUP2 PUSH4 0xFFFFFFFF AND PUSH1 0xE0 SHL DUP2 MSTORE PUSH1 0x4 ADD PUSH1 0x20 PUSH1 0x40 MLOAD DUP1 DUP4 SUB DUP2 DUP7 DUP1 EXTCODESIZE ISZERO DUP1 ISZERO PUSH2 0xB45 JUMPI PUSH1 0x0 DUP1 REVERT JUMPDEST POP GAS STATICCALL ISZERO DUP1 ISZERO PUSH2 0xB59 JUMPI RETURNDATASIZE PUSH1 0x0 DUP1 RETURNDATACOPY RETURNDATASIZE PUSH1 0x0 REVERT JUMPDEST POP POP POP POP PUSH1 0x40 MLOAD RETURNDATASIZE PUSH1 0x1F NOT PUSH1 0x1F DUP3 ADD AND DUP3 ADD DUP1 PUSH1 0x40 MSTORE POP DUP2 ADD SWAP1 PUSH2 0xB7D SWAP2 SWAP1 PUSH2 0x2CF6 JUMP JUMPDEST DUP6 LT ISZERO PUSH2 0xBC2 JUMPI PUSH1 0x40 MLOAD PUSH3 0x461BCD PUSH1 0xE5 SHL DUP2 MSTORE PUSH1 0x20 PUSH1 0x4 DUP3 ADD MSTORE PUSH1 0x13 PUSH1 0x24 DUP3 ADD MSTORE PUSH19 0x6C657373207468616E206D696E207374616B65 PUSH1 0x68 SHL PUSH1 0x44 DUP3 ADD MSTORE PUSH1 0x64 ADD PUSH2 0x2F5 JUMP JUMPDEST PUSH1 0x40 MLOAD PUSH4 0x23B872DD PUSH1 0xE0 SHL DUP2 MSTORE CALLER PUSH1 0x4 DUP3 ADD MSTORE ADDRESS PUSH1 0x24 DUP3 ADD MSTORE PUSH1 0x44 DUP2 ADD DUP7 SWAP1 MSTORE PUSH32 0x0 PUSH1 0x1 PUSH1 0x1 PUSH1 0xA0 SHL SUB AND SWAP1 PUSH4 0x23B872DD SWAP1 PUSH1 0x64 ADD PUSH1 0x20 PUSH1 0x40 MLOAD DUP1 DUP4 SUB DUP2 PUSH1 0x0 DUP8 DUP1 EXTCODESIZE ISZERO DUP1 ISZERO PUSH2 0xC30 JUMPI PUSH1 0x0 DUP1 REVERT JUMPDEST POP GAS CALL ISZERO DUP1 ISZERO PUSH2 0xC44 JUMPI RETURNDATASIZE PUSH1 0x0 DUP1 RETURNDATACOPY RETURNDATASIZE PUSH1 0x0 REVERT JUMPDEST POP POP POP POP PUSH1 0x40 MLOAD RETURNDATASIZE PUSH1 0x1F NOT PUSH1 0x1F DUP3 ADD AND DUP3 ADD DUP1 PUSH1 0x40 MSTORE POP DUP2 ADD SWAP1 PUSH2 0xC68 SWAP2 SWAP1 PUSH2 0x2CC2 JUMP JUMPDEST PUSH2 0xCB4 JUMPI PUSH1 0x40 MLOAD PUSH3 0x461BCD PUSH1 0xE5 SHL DUP2 MSTORE PUSH1 0x20 PUSH1 0x4 DUP3 ADD MSTORE PUSH1 0x1B PUSH1 0x24 DUP3 ADD MSTORE PUSH32 0x7472616E736665722066726F6D2063616C6C6572206661696C65640000000000 PUSH1 0x44 DUP3 ADD MSTORE PUSH1 0x64 ADD PUSH2 0x2F5 JUMP JUMPDEST PUSH1 0x0 PUSH2 0xCE3 DUP9 DUP9 DUP9 DUP5 PUSH2 0xCC8 PUSH1 0x64 DUP12 PUSH2 0x2DD8 JUMP JUMPDEST PUSH2 0xCD3 DUP12 PUSH1 0x64 PUSH2 0x2DB9 JUMP JUMPDEST PUSH2 0xCDD SWAP2 SWAP1 PUSH2 0x2D99 JUMP JUMPDEST DUP10 PUSH2 0x26BC JUMP JUMPDEST PUSH1 0x4 SLOAD SWAP1 SWAP2 POP ISZERO PUSH2 0xF44 JUMPI PUSH1 0x4 SLOAD DUP7 SWAP1 JUMPDEST PUSH1 0xA PUSH1 0x0 SWAP1 SLOAD SWAP1 PUSH2 0x100 EXP SWAP1 DIV PUSH1 0x1 PUSH1 0x1 PUSH1 0xA0 SHL SUB AND PUSH1 0x1 PUSH1 0x1 PUSH1 0xA0 SHL SUB AND PUSH4 0x375B3C0A PUSH1 0x40 MLOAD DUP2 PUSH4 0xFFFFFFFF AND PUSH1 0xE0 SHL DUP2 MSTORE PUSH1 0x4 ADD PUSH1 0x20 PUSH1 0x40 MLOAD DUP1 DUP4 SUB DUP2 DUP7 DUP1 EXTCODESIZE ISZERO DUP1 ISZERO PUSH2 0xD42 JUMPI PUSH1 0x0 DUP1 REVERT JUMPDEST POP GAS STATICCALL ISZERO DUP1 ISZERO PUSH2 0xD56 JUMPI RETURNDATASIZE PUSH1 0x0 DUP1 RETURNDATACOPY RETURNDATASIZE PUSH1 0x0 REVERT JUMPDEST POP POP POP POP PUSH1 0x40 MLOAD RETURNDATASIZE PUSH1 0x1F NOT PUSH1 0x1F DUP3 ADD AND DUP3 ADD DUP1 PUSH1 0x40 MSTORE POP DUP2 ADD SWAP1 PUSH2 0xD7A SWAP2 SWAP1 PUSH2 0x2CF6 JUMP JUMPDEST DUP3 LT PUSH2 0xF41 JUMPI PUSH1 0x0 DUP1 PUSH1 0x0 JUMPDEST DUP4 DUP2 LT ISZERO PUSH2 0xE2A JUMPI PUSH1 0x0 PUSH1 0x4 DUP3 DUP2 SLOAD DUP2 LT PUSH2 0xDB1 JUMPI PUSH4 0x4E487B71 PUSH1 0xE0 SHL PUSH1 0x0 MSTORE PUSH1 0x32 PUSH1 0x4 MSTORE PUSH1 0x24 PUSH1 0x0 REVERT JUMPDEST SWAP1 PUSH1 0x0 MSTORE PUSH1 0x20 PUSH1 0x0 KECCAK256 ADD SLOAD SWAP1 POP PUSH1 0x6 PUSH1 0x0 DUP3 DUP2 MSTORE PUSH1 0x20 ADD SWAP1 DUP2 MSTORE PUSH1 0x20 ADD PUSH1 0x0 KECCAK256 PUSH1 0x5 ADD SLOAD DUP11 EQ ISZERO PUSH2 0xDE2 JUMPI POP PUSH2 0xE18 JUMP JUMPDEST PUSH1 0x0 DUP2 DUP2 MSTORE PUSH1 0x6 PUSH1 0x20 MSTORE PUSH1 0x40 SWAP1 KECCAK256 PUSH1 0x4 ADD SLOAD DUP4 LT ISZERO PUSH2 0xE16 JUMPI PUSH1 0x0 DUP2 DUP2 MSTORE PUSH1 0x6 PUSH1 0x20 MSTORE PUSH1 0x40 SWAP1 KECCAK256 PUSH1 0x4 ADD SLOAD SWAP2 SWAP4 POP SWAP1 SWAP2 POP DUP3 SWAP1 JUMPDEST POP JUMPDEST DUP1 PUSH2 0xE22 DUP2 PUSH2 0x2DEF JUMP JUMPDEST SWAP2 POP POP PUSH2 0xD86 JUMP JUMPDEST POP PUSH1 0x0 DUP10 DUP3 GT DUP1 PUSH2 0xE43 JUMPI POP PUSH1 0x0 DUP3 GT DUP1 ISZERO PUSH2 0xE43 JUMPI POP DUP8 JUMPDEST ISZERO PUSH2 0xF25 JUMPI PUSH1 0x0 PUSH1 0x4 DUP5 DUP2 SLOAD DUP2 LT PUSH2 0xE6B JUMPI PUSH4 0x4E487B71 PUSH1 0xE0 SHL PUSH1 0x0 MSTORE PUSH1 0x32 PUSH1 0x4 MSTORE PUSH1 0x24 PUSH1 0x0 REVERT JUMPDEST PUSH1 0x0 SWAP2 DUP3 MSTORE PUSH1 0x20 DUP1 DUP4 KECCAK256 SWAP1 SWAP2 ADD SLOAD DUP1 DUP4 MSTORE PUSH1 0x6 DUP3 MSTORE PUSH1 0x40 DUP1 DUP5 KECCAK256 DUP2 MLOAD PUSH1 0xC0 DUP2 ADD DUP4 MSTORE DUP2 SLOAD PUSH1 0x1 PUSH1 0x1 PUSH1 0xA0 SHL SUB SWAP1 DUP2 AND DUP3 MSTORE PUSH1 0x1 DUP4 ADD SLOAD AND SWAP5 DUP2 ADD SWAP5 SWAP1 SWAP5 MSTORE PUSH1 0x2 DUP2 ADD SLOAD SWAP2 DUP5 ADD SWAP2 SWAP1 SWAP2 MSTORE PUSH1 0x3 DUP2 ADD SLOAD PUSH1 0x60 DUP5 ADD MSTORE PUSH1 0x4 DUP2 ADD SLOAD PUSH1 0x80 DUP5 ADD MSTORE PUSH1 0x5 ADD SLOAD PUSH1 0xA0 DUP4 ADD MSTORE SWAP3 POP SWAP1 PUSH2 0xEE0 PUSH1 0x64 DUP15 PUSH2 0x2DD8 JUMP JUMPDEST DUP3 PUSH1 0x60 ADD MLOAD DUP4 PUSH1 0x40 ADD MLOAD PUSH2 0xEF4 SWAP2 SWAP1 PUSH2 0x2DD8 JUMP JUMPDEST PUSH2 0xEFE SWAP2 SWAP1 PUSH2 0x2D99 JUMP JUMPDEST SWAP1 POP PUSH2 0xF0B PUSH1 0x64 DUP3 PUSH2 0x2DB9 JUMP JUMPDEST SWAP1 POP PUSH2 0xF1B DUP15 DUP3 DUP16 DUP16 DUP14 DUP9 PUSH2 0x28E1 JUMP JUMPDEST SWAP4 POP POP POP POP PUSH2 0xF2D JUMP JUMPDEST POP POP POP PUSH2 0xF41 JUMP JUMPDEST PUSH2 0xF37 DUP2 DUP7 PUSH2 0x2DD8 JUMP JUMPDEST SWAP5 POP POP POP POP PUSH2 0xCF4 JUMP JUMPDEST POP POP JUMPDEST PUSH1 0x40 DUP1 MLOAD CALLER DUP2 MSTORE ADDRESS PUSH1 0x20 DUP3 ADD MSTORE SWAP1 DUP2 ADD DUP3 SWAP1 MSTORE PUSH1 0x60 DUP2 ADD DUP8 SWAP1 MSTORE PUSH1 0x80 DUP2 ADD DUP7 SWAP1 MSTORE PUSH1 0xA0 DUP2 ADD DUP6 SWAP1 MSTORE PUSH32 0x618F358BB45538682ADE624A4A1959053D9DABD20FE300508034B879681B37BE SWAP1 PUSH1 0xC0 ADD PUSH1 0x40 MLOAD DUP1 SWAP2 SUB SWAP1 LOG1 SWAP8 SWAP7 POP POP POP POP POP POP POP JUMP JUMPDEST PUSH1 0x0 DUP2 DUP2 MSTORE PUSH1 0x6 PUSH1 0x20 SWAP1 DUP2 MSTORE PUSH1 0x40 SWAP2 DUP3 SWAP1 KECCAK256 DUP3 MLOAD PUSH1 0xC0 DUP2 ADD DUP5 MSTORE DUP2 SLOAD PUSH1 0x1 PUSH1 0x1 PUSH1 0xA0 SHL SUB SWAP1 DUP2 AND DUP1 DUP4 MSTORE PUSH1 0x1 DUP5 ADD SLOAD SWAP1 SWAP2 AND SWAP4 DUP3 ADD SWAP4 SWAP1 SWAP4 MSTORE PUSH1 0x2 DUP3 ADD SLOAD SWAP4 DUP2 ADD SWAP4 SWAP1 SWAP4 MSTORE PUSH1 0x3 DUP2 ADD SLOAD PUSH1 0x60 DUP5 ADD MSTORE PUSH1 0x4 DUP2 ADD SLOAD PUSH1 0x80 DUP5 ADD MSTORE PUSH1 0x5 ADD SLOAD PUSH1 0xA0 DUP4 ADD MSTORE CALLER EQ PUSH2 0x104A JUMPI PUSH1 0x40 MLOAD PUSH3 0x461BCD PUSH1 0xE5 SHL DUP2 MSTORE PUSH1 0x20 PUSH1 0x4 DUP3 ADD MSTORE PUSH1 0x13 PUSH1 0x24 DUP3 ADD MSTORE PUSH19 0x3AB730BABA3437B934BD32B21031B0B63632B9 PUSH1 0x69 SHL PUSH1 0x44 DUP3 ADD MSTORE PUSH1 0x64 ADD PUSH2 0x2F5 JUMP JUMPDEST PUSH1 0x0 DUP2 PUSH1 0x60 ADD MLOAD DUP3 PUSH1 0x40 ADD MLOAD PUSH2 0x1060 SWAP2 SWAP1 PUSH2 0x2DD8 JUMP JUMPDEST DUP3 MLOAD PUSH1 0x1 PUSH1 0x1 PUSH1 0xA0 SHL SUB AND PUSH1 0x0 SWAP1 DUP2 MSTORE PUSH1 0x5 PUSH1 0x20 MSTORE PUSH1 0x40 DUP2 KECCAK256 DUP1 SLOAD SWAP3 SWAP4 POP DUP4 SWAP3 SWAP1 SWAP2 SWAP1 PUSH2 0x108E SWAP1 DUP5 SWAP1 PUSH2 0x2D81 JUMP JUMPDEST SWAP1 SWAP2 SSTORE POP POP PUSH1 0x40 DUP1 DUP4 ADD MLOAD PUSH1 0x0 DUP6 DUP2 MSTORE PUSH1 0x6 PUSH1 0x20 SWAP1 DUP2 MSTORE DUP4 DUP3 KECCAK256 PUSH1 0x3 ADD SWAP3 SWAP1 SWAP3 SSTORE CALLER DUP2 MSTORE PUSH1 0x5 SWAP1 SWAP2 MSTORE KECCAK256 SLOAD ISZERO PUSH2 0x7E4 JUMPI PUSH2 0x7E2 CALLER PUSH2 0x447 JUMP JUMPDEST PUSH1 0xA SLOAD PUSH1 0x40 MLOAD PUSH4 0x1E558333 PUSH1 0xE3 SHL DUP2 MSTORE PUSH32 0x0 PUSH1 0x4 DUP3 ADD MSTORE PUSH1 0x0 SWAP2 PUSH1 0x1 PUSH1 0x1 PUSH1 0xA0 SHL SUB AND SWAP1 PUSH4 0xF2AC1998 SWAP1 PUSH1 0x24 ADD PUSH1 0x20 PUSH1 0x40 MLOAD DUP1 DUP4 SUB DUP2 DUP7 DUP1 EXTCODESIZE ISZERO DUP1 ISZERO PUSH2 0x112B JUMPI PUSH1 0x0 DUP1 REVERT JUMPDEST POP GAS STATICCALL ISZERO DUP1 ISZERO PUSH2 0x113F JUMPI RETURNDATASIZE PUSH1 0x0 DUP1 RETURNDATACOPY RETURNDATASIZE PUSH1 0x0 REVERT JUMPDEST POP POP POP POP PUSH1 0x40 MLOAD RETURNDATASIZE PUSH1 0x1F NOT PUSH1 0x1F DUP3 ADD AND DUP3 ADD DUP1 PUSH1 0x40 MSTORE POP DUP2 ADD SWAP1 PUSH2 0x1163 SWAP2 SWAP1 PUSH2 0x2C40 JUMP JUMPDEST PUSH1 0x1 PUSH1 0x1 PUSH1 0xA0 SHL SUB AND CALLER PUSH1 0x1 PUSH1 0x1 PUSH1 0xA0 SHL SUB AND EQ DUP1 PUSH2 0x118C JUMPI POP PUSH1 0x1 SLOAD PUSH1 0x1 PUSH1 0x1 PUSH1 0xA0 SHL SUB AND CALLER EQ JUMPDEST PUSH2 0x11A8 JUMPI PUSH1 0x40 MLOAD PUSH3 0x461BCD PUSH1 0xE5 SHL DUP2 MSTORE PUSH1 0x4 ADD PUSH2 0x2F5 SWAP1 PUSH2 0x2D52 JUMP JUMPDEST PUSH2 0x11B1 DUP3 PUSH2 0x146E JUMP JUMPDEST ISZERO PUSH2 0x1215 JUMPI PUSH1 0x3 SLOAD PUSH1 0x0 JUMPDEST DUP2 DUP2 LT ISZERO PUSH2 0x120B JUMPI PUSH2 0x11F8 PUSH1 0x3 DUP3 DUP2 SLOAD DUP2 LT PUSH2 0x11E8 JUMPI PUSH4 0x4E487B71 PUSH1 0xE0 SHL PUSH1 0x0 MSTORE PUSH1 0x32 PUSH1 0x4 MSTORE PUSH1 0x24 PUSH1 0x0 REVERT JUMPDEST SWAP1 PUSH1 0x0 MSTORE PUSH1 0x20 PUSH1 0x0 KECCAK256 ADD SLOAD PUSH2 0x1ECA JUMP JUMPDEST POP DUP1 PUSH2 0x1203 DUP2 PUSH2 0x2DEF JUMP JUMPDEST SWAP2 POP POP PUSH2 0x11BC JUMP JUMPDEST POP PUSH1 0x1 SWAP4 SWAP3 POP POP POP JUMP JUMPDEST POP PUSH1 0x0 SWAP2 SWAP1 POP JUMP JUMPDEST PUSH1 0xA SLOAD PUSH1 0x40 MLOAD PUSH4 0x1E558333 PUSH1 0xE3 SHL DUP2 MSTORE PUSH32 0x0 PUSH1 0x4 DUP3 ADD MSTORE PUSH1 0x0 SWAP2 PUSH1 0x1 PUSH1 0x1 PUSH1 0xA0 SHL SUB AND SWAP1 PUSH4 0xF2AC1998 SWAP1 PUSH1 0x24 ADD PUSH1 0x20 PUSH1 0x40 MLOAD DUP1 DUP4 SUB DUP2 DUP7 DUP1 EXTCODESIZE ISZERO DUP1 ISZERO PUSH2 0x1281 JUMPI PUSH1 0x0 DUP1 REVERT JUMPDEST POP GAS STATICCALL ISZERO DUP1 ISZERO PUSH2 0x1295 JUMPI RETURNDATASIZE PUSH1 0x0 DUP1 RETURNDATACOPY RETURNDATASIZE PUSH1 0x0 REVERT JUMPDEST POP POP POP POP PUSH1 0x40 MLOAD RETURNDATASIZE PUSH1 0x1F NOT PUSH1 0x1F DUP3 ADD AND DUP3 ADD DUP1 PUSH1 0x40 MSTORE POP DUP2 ADD SWAP1 PUSH2 0x12B9 SWAP2 SWAP1 PUSH2 0x2C40 JUMP JUMPDEST PUSH1 0x1 PUSH1 0x1 PUSH1 0xA0 SHL SUB AND CALLER PUSH1 0x1 PUSH1 0x1 PUSH1 0xA0 SHL SUB AND EQ DUP1 PUSH2 0x12E2 JUMPI POP PUSH1 0x1 SLOAD PUSH1 0x1 PUSH1 0x1 PUSH1 0xA0 SHL SUB AND CALLER EQ JUMPDEST PUSH2 0x12FE JUMPI PUSH1 0x40 MLOAD PUSH3 0x461BCD PUSH1 0xE5 SHL DUP2 MSTORE PUSH1 0x4 ADD PUSH2 0x2F5 SWAP1 PUSH2 0x2D52 JUMP JUMPDEST PUSH1 0x2 SLOAD ISZERO DUP1 PUSH2 0x130F JUMPI POP PUSH1 0x2 SLOAD PUSH1 0x4 EQ JUMPDEST ISZERO PUSH2 0x1375 JUMPI PUSH1 0x3 SLOAD PUSH1 0x0 JUMPDEST DUP2 DUP2 LT ISZERO PUSH2 0x1368 JUMPI PUSH2 0x1356 PUSH1 0x3 DUP3 DUP2 SLOAD DUP2 LT PUSH2 0x1346 JUMPI PUSH4 0x4E487B71 PUSH1 0xE0 SHL PUSH1 0x0 MSTORE PUSH1 0x32 PUSH1 0x4 MSTORE PUSH1 0x24 PUSH1 0x0 REVERT JUMPDEST SWAP1 PUSH1 0x0 MSTORE PUSH1 0x20 PUSH1 0x0 KECCAK256 ADD SLOAD PUSH2 0x2A2F JUMP JUMPDEST DUP1 PUSH2 0x1360 DUP2 PUSH2 0x2DEF JUMP JUMPDEST SWAP2 POP POP PUSH2 0x131A JUMP JUMPDEST POP POP PUSH1 0x3 PUSH1 0x2 SSTORE POP PUSH1 0x1 SWAP1 JUMP JUMPDEST POP PUSH1 0x0 SWAP1 JUMP JUMPDEST PUSH1 0xA SLOAD PUSH1 0x40 MLOAD PUSH4 0x1E558333 PUSH1 0xE3 SHL DUP2 MSTORE PUSH32 0x0 PUSH1 0x4 DUP3 ADD MSTORE PUSH1 0x0 SWAP2 PUSH1 0x1 PUSH1 0x1 PUSH1 0xA0 SHL SUB AND SWAP1 PUSH4 0xF2AC1998 SWAP1 PUSH1 0x24 ADD PUSH1 0x20 PUSH1 0x40 MLOAD DUP1 DUP4 SUB DUP2 DUP7 DUP1 EXTCODESIZE ISZERO DUP1 ISZERO PUSH2 0x13DF JUMPI PUSH1 0x0 DUP1 REVERT JUMPDEST POP GAS STATICCALL ISZERO DUP1 ISZERO PUSH2 0x13F3 JUMPI RETURNDATASIZE PUSH1 0x0 DUP1 RETURNDATACOPY RETURNDATASIZE PUSH1 0x0 REVERT JUMPDEST POP POP POP POP PUSH1 0x40 MLOAD RETURNDATASIZE PUSH1 0x1F NOT PUSH1 0x1F DUP3 ADD AND DUP3 ADD DUP1 PUSH1 0x40 MSTORE POP DUP2 ADD SWAP1 PUSH2 0x1417 SWAP2 SWAP1 PUSH2 0x2C40 JUMP JUMPDEST PUSH1 0x1 PUSH1 0x1 PUSH1 0xA0 SHL SUB AND CALLER PUSH1 0x1 PUSH1 0x1 PUSH1 0xA0 SHL SUB AND EQ DUP1 PUSH2 0x1440 JUMPI POP PUSH1 0x1 SLOAD PUSH1 0x1 PUSH1 0x1 PUSH1 0xA0 SHL SUB AND CALLER EQ JUMPDEST PUSH2 0x145C JUMPI PUSH1 0x40 MLOAD PUSH3 0x461BCD PUSH1 0xE5 SHL DUP2 MSTORE PUSH1 0x4 ADD PUSH2 0x2F5 SWAP1 PUSH2 0x2D52 JUMP JUMPDEST PUSH1 0x2 SLOAD PUSH2 0x1375 JUMPI POP PUSH1 0x4 PUSH1 0x2 SSTORE PUSH1 0x1 SWAP1 JUMP JUMPDEST PUSH1 0xA SLOAD PUSH1 0x40 MLOAD PUSH4 0x1E558333 PUSH1 0xE3 SHL DUP2 MSTORE PUSH32 0x0 PUSH1 0x4 DUP3 ADD MSTORE PUSH1 0x0 SWAP2 PUSH1 0x1 PUSH1 0x1 PUSH1 0xA0 SHL SUB AND SWAP1 PUSH4 0xF2AC1998 SWAP1 PUSH1 0x24 ADD PUSH1 0x20 PUSH1 0x40 MLOAD DUP1 DUP4 SUB DUP2 DUP7 DUP1 EXTCODESIZE ISZERO DUP1 ISZERO PUSH2 0x14D2 JUMPI PUSH1 0x0 DUP1 REVERT JUMPDEST POP GAS STATICCALL ISZERO DUP1 ISZERO PUSH2 0x14E6 JUMPI RETURNDATASIZE PUSH1 0x0 DUP1 RETURNDATACOPY RETURNDATASIZE PUSH1 0x0 REVERT JUMPDEST POP POP POP POP PUSH1 0x40 MLOAD RETURNDATASIZE PUSH1 0x1F NOT PUSH1 0x1F DUP3 ADD AND DUP3 ADD DUP1 PUSH1 0x40 MSTORE POP DUP2 ADD SWAP1 PUSH2 0x150A SWAP2 SWAP1 PUSH2 0x2C40 JUMP JUMPDEST PUSH1 0x1 PUSH1 0x1 PUSH1 0xA0 SHL SUB AND CALLER PUSH1 0x1 PUSH1 0x1 PUSH1 0xA0 SHL SUB AND EQ DUP1 PUSH2 0x1533 JUMPI POP PUSH1 0x1 SLOAD PUSH1 0x1 PUSH1 0x1 PUSH1 0xA0 SHL SUB AND CALLER EQ JUMPDEST PUSH2 0x154F JUMPI PUSH1 0x40 MLOAD PUSH3 0x461BCD PUSH1 0xE5 SHL DUP2 MSTORE PUSH1 0x4 ADD PUSH2 0x2F5 SWAP1 PUSH2 0x2D52 JUMP JUMPDEST PUSH1 0x2 SLOAD ISZERO DUP1 PUSH2 0x1560 JUMPI POP PUSH1 0x2 SLOAD PUSH1 0x4 EQ JUMPDEST DUP1 ISZERO PUSH2 0x1576 JUMPI POP DUP2 PUSH1 0x1 EQ DUP1 PUSH2 0x1576 JUMPI POP DUP2 PUSH1 0x2 EQ JUMPDEST ISZERO PUSH2 0x1215 JUMPI POP PUSH1 0x2 SSTORE PUSH1 0x1 SWAP1 JUMP JUMPDEST PUSH1 0xA SLOAD PUSH1 0x40 MLOAD PUSH4 0x1E558333 PUSH1 0xE3 SHL DUP2 MSTORE PUSH32 0x0 PUSH1 0x4 DUP3 ADD MSTORE PUSH1 0x0 SWAP2 PUSH1 0x1 PUSH1 0x1 PUSH1 0xA0 SHL SUB AND SWAP1 PUSH4 0xF2AC1998 SWAP1 PUSH1 0x24 ADD PUSH1 0x20 PUSH1 0x40 MLOAD DUP1 DUP4 SUB DUP2 DUP7 DUP1 EXTCODESIZE ISZERO DUP1 ISZERO PUSH2 0x15E8 JUMPI PUSH1 0x0 DUP1 REVERT JUMPDEST POP GAS STATICCALL ISZERO DUP1 ISZERO PUSH2 0x15FC JUMPI RETURNDATASIZE PUSH1 0x0 DUP1 RETURNDATACOPY RETURNDATASIZE PUSH1 0x0 REVERT JUMPDEST POP POP POP POP PUSH1 0x40 MLOAD RETURNDATASIZE PUSH1 0x1F NOT PUSH1 0x1F DUP3 ADD AND DUP3 ADD DUP1 PUSH1 0x40 MSTORE POP DUP2 ADD SWAP1 PUSH2 0x1620 SWAP2 SWAP1 PUSH2 0x2C40 JUMP JUMPDEST PUSH1 0x1 PUSH1 0x1 PUSH1 0xA0 SHL SUB AND CALLER PUSH1 0x1 PUSH1 0x1 PUSH1 0xA0 SHL SUB AND EQ DUP1 PUSH2 0x1649 JUMPI POP PUSH1 0x1 SLOAD PUSH1 0x1 PUSH1 0x1 PUSH1 0xA0 SHL SUB AND CALLER EQ JUMPDEST PUSH2 0x1665 JUMPI PUSH1 0x40 MLOAD PUSH3 0x461BCD PUSH1 0xE5 SHL DUP2 MSTORE PUSH1 0x4 ADD PUSH2 0x2F5 SWAP1 PUSH2 0x2D52 JUMP JUMPDEST PUSH1 0x2 SLOAD ISZERO DUP1 PUSH2 0x1676 JUMPI POP PUSH1 0x2 SLOAD PUSH1 0x4 EQ JUMPDEST ISZERO PUSH2 0x1375 JUMPI POP PUSH1 0x3 PUSH1 0x2 SSTORE PUSH1 0x1 SWAP1 JUMP JUMPDEST PUSH1 0x0 DUP2 DUP2 MSTORE PUSH1 0x6 PUSH1 0x20 SWAP1 DUP2 MSTORE PUSH1 0x40 DUP1 DUP4 KECCAK256 DUP2 MLOAD PUSH1 0xC0 DUP2 ADD DUP4 MSTORE DUP2 SLOAD PUSH1 0x1 PUSH1 0x1 PUSH1 0xA0 SHL SUB SWAP1 DUP2 AND DUP3 MSTORE PUSH1 0x1 DUP4 ADD SLOAD AND DUP2 DUP6 ADD MSTORE PUSH1 0x2 DUP3 ADD SLOAD DUP2 DUP5 ADD MSTORE PUSH1 0x3 DUP3 ADD SLOAD PUSH1 0x60 DUP3 ADD MSTORE PUSH1 0x4 DUP3 ADD SLOAD PUSH1 0x80 DUP3 ADD MSTORE PUSH1 0x5 SWAP1 SWAP2 ADD SLOAD PUSH1 0xA0 DUP3 ADD MSTORE DUP5 DUP5 MSTORE PUSH1 0x9 DUP4 MSTORE DUP2 DUP5 KECCAK256 DUP1 SLOAD DUP4 MLOAD DUP2 DUP7 MUL DUP2 ADD DUP7 ADD SWAP1 SWAP5 MSTORE DUP1 DUP5 MSTORE SWAP2 SWAP4 DUP6 SWAP4 SWAP3 SWAP1 DUP4 ADD DUP3 DUP3 DUP1 ISZERO PUSH2 0x1730 JUMPI PUSH1 0x20 MUL DUP3 ADD SWAP2 SWAP1 PUSH1 0x0 MSTORE PUSH1 0x20 PUSH1 0x0 KECCAK256 SWAP1 JUMPDEST DUP2 SLOAD DUP2 MSTORE PUSH1 0x20 ADD SWAP1 PUSH1 0x1 ADD SWAP1 DUP1 DUP4 GT PUSH2 0x171C JUMPI JUMPDEST POP POP DUP4 MLOAD SWAP4 SWAP5 POP PUSH1 0x0 SWAP3 POP POP POP JUMPDEST DUP2 DUP2 LT ISZERO PUSH2 0x1EBE JUMPI PUSH1 0x8 PUSH1 0x0 DUP5 DUP4 DUP2 MLOAD DUP2 LT PUSH2 0x176A JUMPI PUSH4 0x4E487B71 PUSH1 0xE0 SHL PUSH1 0x0 MSTORE PUSH1 0x32 PUSH1 0x4 MSTORE PUSH1 0x24 PUSH1 0x0 REVERT JUMPDEST PUSH1 0x20 SWAP1 DUP2 MUL SWAP2 SWAP1 SWAP2 ADD DUP2 ADD MLOAD DUP3 MSTORE DUP2 ADD SWAP2 SWAP1 SWAP2 MSTORE PUSH1 0x40 ADD PUSH1 0x0 KECCAK256 PUSH1 0x4 ADD SLOAD PUSH1 0xFF AND ISZERO PUSH2 0x1795 JUMPI PUSH2 0x1EAC JUMP JUMPDEST PUSH1 0x0 DUP1 PUSH1 0x0 DUP1 DUP8 PUSH1 0xA0 ADD MLOAD PUSH1 0x1 EQ ISZERO PUSH2 0x186D JUMPI PUSH1 0x8 PUSH1 0x0 DUP9 DUP8 DUP2 MLOAD DUP2 LT PUSH2 0x17CC JUMPI PUSH4 0x4E487B71 PUSH1 0xE0 SHL PUSH1 0x0 MSTORE PUSH1 0x32 PUSH1 0x4 MSTORE PUSH1 0x24 PUSH1 0x0 REVERT JUMPDEST PUSH1 0x20 MUL PUSH1 0x20 ADD ADD MLOAD DUP2 MSTORE PUSH1 0x20 ADD SWAP1 DUP2 MSTORE PUSH1 0x20 ADD PUSH1 0x0 KECCAK256 PUSH1 0x2 ADD SLOAD SWAP2 POP PUSH1 0x8 PUSH1 0x0 DUP9 DUP8 DUP2 MLOAD DUP2 LT PUSH2 0x180C JUMPI PUSH4 0x4E487B71 PUSH1 0xE0 SHL PUSH1 0x0 MSTORE PUSH1 0x32 PUSH1 0x4 MSTORE PUSH1 0x24 PUSH1 0x0 REVERT JUMPDEST PUSH1 0x20 MUL PUSH1 0x20 ADD ADD MLOAD DUP2 MSTORE PUSH1 0x20 ADD SWAP1 DUP2 MSTORE PUSH1 0x20 ADD PUSH1 0x0 KECCAK256 PUSH1 0x1 ADD SLOAD SWAP4 POP PUSH1 0x8 PUSH1 0x0 DUP9 DUP8 DUP2 MLOAD DUP2 LT PUSH2 0x184C JUMPI PUSH4 0x4E487B71 PUSH1 0xE0 SHL PUSH1 0x0 MSTORE PUSH1 0x32 PUSH1 0x4 MSTORE PUSH1 0x24 PUSH1 0x0 REVERT JUMPDEST PUSH1 0x20 MUL PUSH1 0x20 ADD ADD MLOAD DUP2 MSTORE PUSH1 0x20 ADD SWAP1 DUP2 MSTORE PUSH1 0x20 ADD PUSH1 0x0 KECCAK256 PUSH1 0x3 ADD SLOAD SWAP3 POP PUSH2 0x193B JUMP JUMPDEST DUP8 PUSH1 0xA0 ADD MLOAD PUSH1 0x2 EQ ISZERO PUSH2 0x193B JUMPI PUSH1 0x8 PUSH1 0x0 DUP9 DUP8 DUP2 MLOAD DUP2 LT PUSH2 0x189E JUMPI PUSH4 0x4E487B71 PUSH1 0xE0 SHL PUSH1 0x0 MSTORE PUSH1 0x32 PUSH1 0x4 MSTORE PUSH1 0x24 PUSH1 0x0 REVERT JUMPDEST PUSH1 0x20 MUL PUSH1 0x20 ADD ADD MLOAD DUP2 MSTORE PUSH1 0x20 ADD SWAP1 DUP2 MSTORE PUSH1 0x20 ADD PUSH1 0x0 KECCAK256 PUSH1 0x3 ADD SLOAD SWAP2 POP PUSH1 0x8 PUSH1 0x0 DUP9 DUP8 DUP2 MLOAD DUP2 LT PUSH2 0x18DE JUMPI PUSH4 0x4E487B71 PUSH1 0xE0 SHL PUSH1 0x0 MSTORE PUSH1 0x32 PUSH1 0x4 MSTORE PUSH1 0x24 PUSH1 0x0 REVERT JUMPDEST PUSH1 0x20 MUL PUSH1 0x20 ADD ADD MLOAD DUP2 MSTORE PUSH1 0x20 ADD SWAP1 DUP2 MSTORE PUSH1 0x20 ADD PUSH1 0x0 KECCAK256 PUSH1 0x0 ADD SLOAD SWAP4 POP PUSH1 0x8 PUSH1 0x0 DUP9 DUP8 DUP2 MLOAD DUP2 LT PUSH2 0x191E JUMPI PUSH4 0x4E487B71 PUSH1 0xE0 SHL PUSH1 0x0 MSTORE PUSH1 0x32 PUSH1 0x4 MSTORE PUSH1 0x24 PUSH1 0x0 REVERT JUMPDEST PUSH1 0x20 MUL PUSH1 0x20 ADD ADD MLOAD DUP2 MSTORE PUSH1 0x20 ADD SWAP1 DUP2 MSTORE PUSH1 0x20 ADD PUSH1 0x0 KECCAK256 PUSH1 0x2 ADD SLOAD SWAP3 POP JUMPDEST POP PUSH1 0x0 DUP4 DUP2 MSTORE PUSH1 0x6 PUSH1 0x20 SWAP1 DUP2 MSTORE PUSH1 0x40 SWAP2 DUP3 SWAP1 KECCAK256 SLOAD PUSH1 0xA SLOAD DUP4 MLOAD PUSH4 0x55C4A8BF PUSH1 0xE0 SHL DUP2 MSTORE SWAP4 MLOAD PUSH1 0x1 PUSH1 0x1 PUSH1 0xA0 SHL SUB SWAP3 DUP4 AND SWAP5 PUSH1 0x64 SWAP5 SWAP4 SWAP1 SWAP3 AND SWAP3 PUSH4 0x55C4A8BF SWAP3 PUSH1 0x4 DUP1 DUP3 ADD SWAP4 SWAP2 DUP3 SWAP1 SUB ADD DUP2 DUP7 DUP1 EXTCODESIZE ISZERO DUP1 ISZERO PUSH2 0x1995 JUMPI PUSH1 0x0 DUP1 REVERT JUMPDEST POP GAS STATICCALL ISZERO DUP1 ISZERO PUSH2 0x19A9 JUMPI RETURNDATASIZE PUSH1 0x0 DUP1 RETURNDATACOPY RETURNDATASIZE PUSH1 0x0 REVERT JUMPDEST POP POP POP POP PUSH1 0x40 MLOAD RETURNDATASIZE PUSH1 0x1F NOT PUSH1 0x1F DUP3 ADD AND DUP3 ADD DUP1 PUSH1 0x40 MSTORE POP DUP2 ADD SWAP1 PUSH2 0x19CD SWAP2 SWAP1 PUSH2 0x2CF6 JUMP JUMPDEST PUSH2 0x19D8 SWAP1 PUSH1 0x64 PUSH2 0x2DD8 JUMP JUMPDEST PUSH2 0x19E2 SWAP1 DUP5 PUSH2 0x2DB9 JUMP JUMPDEST PUSH2 0x19EC SWAP2 SWAP1 PUSH2 0x2D99 JUMP JUMPDEST DUP9 MLOAD PUSH1 0x1 PUSH1 0x1 PUSH1 0xA0 SHL SUB AND PUSH1 0x0 SWAP1 DUP2 MSTORE PUSH1 0x5 PUSH1 0x20 MSTORE PUSH1 0x40 DUP2 KECCAK256 DUP1 SLOAD SWAP1 SWAP2 SWAP1 PUSH2 0x1A15 SWAP1 DUP5 SWAP1 PUSH2 0x2D81 JUMP JUMPDEST SWAP1 SWAP2 SSTORE POP POP PUSH1 0x0 DUP5 DUP2 MSTORE PUSH1 0x6 PUSH1 0x20 MSTORE PUSH1 0x40 DUP2 KECCAK256 PUSH1 0x3 ADD DUP1 SLOAD DUP6 SWAP3 SWAP1 PUSH2 0x1A3B SWAP1 DUP5 SWAP1 PUSH2 0x2DD8 JUMP JUMPDEST SWAP3 POP POP DUP2 SWAP1 SSTORE POP PUSH1 0x0 PUSH1 0x64 PUSH1 0xA PUSH1 0x0 SWAP1 SLOAD SWAP1 PUSH2 0x100 EXP SWAP1 DIV PUSH1 0x1 PUSH1 0x1 PUSH1 0xA0 SHL SUB AND PUSH1 0x1 PUSH1 0x1 PUSH1 0xA0 SHL SUB AND PUSH4 0x55C4A8BF PUSH1 0x40 MLOAD DUP2 PUSH4 0xFFFFFFFF AND PUSH1 0xE0 SHL DUP2 MSTORE PUSH1 0x4 ADD PUSH1 0x20 PUSH1 0x40 MLOAD DUP1 DUP4 SUB DUP2 DUP7 DUP1 EXTCODESIZE ISZERO DUP1 ISZERO PUSH2 0x1A94 JUMPI PUSH1 0x0 DUP1 REVERT JUMPDEST POP GAS STATICCALL ISZERO DUP1 ISZERO PUSH2 0x1AA8 JUMPI RETURNDATASIZE PUSH1 0x0 DUP1 RETURNDATACOPY RETURNDATASIZE PUSH1 0x0 REVERT JUMPDEST POP POP POP POP PUSH1 0x40 MLOAD RETURNDATASIZE PUSH1 0x1F NOT PUSH1 0x1F DUP3 ADD AND DUP3 ADD DUP1 PUSH1 0x40 MSTORE POP DUP2 ADD SWAP1 PUSH2 0x1ACC SWAP2 SWAP1 PUSH2 0x2CF6 JUMP JUMPDEST PUSH2 0x1AD6 SWAP1 DUP6 PUSH2 0x2DB9 JUMP JUMPDEST PUSH2 0x1AE0 SWAP2 SWAP1 PUSH2 0x2D99 JUMP JUMPDEST SWAP1 POP PUSH1 0x64 PUSH1 0xA PUSH1 0x0 SWAP1 SLOAD SWAP1 PUSH2 0x100 EXP SWAP1 DIV PUSH1 0x1 PUSH1 0x1 PUSH1 0xA0 SHL SUB AND PUSH1 0x1 PUSH1 0x1 PUSH1 0xA0 SHL SUB AND PUSH4 0x6A0CCD9D PUSH1 0x40 MLOAD DUP2 PUSH4 0xFFFFFFFF AND PUSH1 0xE0 SHL DUP2 MSTORE PUSH1 0x4 ADD PUSH1 0x20 PUSH1 0x40 MLOAD DUP1 DUP4 SUB DUP2 DUP7 DUP1 EXTCODESIZE ISZERO DUP1 ISZERO PUSH2 0x1B32 JUMPI PUSH1 0x0 DUP1 REVERT JUMPDEST POP GAS STATICCALL ISZERO DUP1 ISZERO PUSH2 0x1B46 JUMPI RETURNDATASIZE PUSH1 0x0 DUP1 RETURNDATACOPY RETURNDATASIZE PUSH1 0x0 REVERT JUMPDEST POP POP POP POP PUSH1 0x40 MLOAD RETURNDATASIZE PUSH1 0x1F NOT PUSH1 0x1F DUP3 ADD AND DUP3 ADD DUP1 PUSH1 0x40 MSTORE POP DUP2 ADD SWAP1 PUSH2 0x1B6A SWAP2 SWAP1 PUSH2 0x2CF6 JUMP JUMPDEST PUSH2 0x1B74 SWAP1 DUP4 PUSH2 0x2DB9 JUMP JUMPDEST PUSH2 0x1B7E SWAP2 SWAP1 PUSH2 0x2D99 JUMP JUMPDEST PUSH1 0x5 PUSH1 0x0 PUSH1 0xA PUSH1 0x0 SWAP1 SLOAD SWAP1 PUSH2 0x100 EXP SWAP1 DIV PUSH1 0x1 PUSH1 0x1 PUSH1 0xA0 SHL SUB AND PUSH1 0x1 PUSH1 0x1 PUSH1 0xA0 SHL SUB AND PUSH4 0xB7640A54 PUSH1 0x40 MLOAD DUP2 PUSH4 0xFFFFFFFF AND PUSH1 0xE0 SHL DUP2 MSTORE PUSH1 0x4 ADD PUSH1 0x20 PUSH1 0x40 MLOAD DUP1 DUP4 SUB DUP2 DUP7 DUP1 EXTCODESIZE ISZERO DUP1 ISZERO PUSH2 0x1BD0 JUMPI PUSH1 0x0 DUP1 REVERT JUMPDEST POP GAS STATICCALL ISZERO DUP1 ISZERO PUSH2 0x1BE4 JUMPI RETURNDATASIZE PUSH1 0x0 DUP1 RETURNDATACOPY RETURNDATASIZE PUSH1 0x0 REVERT JUMPDEST POP POP POP POP PUSH1 0x40 MLOAD RETURNDATASIZE PUSH1 0x1F NOT PUSH1 0x1F DUP3 ADD AND DUP3 ADD DUP1 PUSH1 0x40 MSTORE POP DUP2 ADD SWAP1 PUSH2 0x1C08 SWAP2 SWAP1 PUSH2 0x2C40 JUMP JUMPDEST PUSH1 0x1 PUSH1 0x1 PUSH1 0xA0 SHL SUB AND PUSH1 0x1 PUSH1 0x1 PUSH1 0xA0 SHL SUB AND DUP2 MSTORE PUSH1 0x20 ADD SWAP1 DUP2 MSTORE PUSH1 0x20 ADD PUSH1 0x0 KECCAK256 PUSH1 0x0 DUP3 DUP3 SLOAD PUSH2 0x1C37 SWAP2 SWAP1 PUSH2 0x2D81 JUMP JUMPDEST SWAP1 SWAP2 SSTORE POP POP PUSH1 0xA SLOAD PUSH1 0x40 DUP1 MLOAD PUSH4 0x28576D45 PUSH1 0xE0 SHL DUP2 MSTORE SWAP1 MLOAD PUSH1 0x64 SWAP3 PUSH1 0x1 PUSH1 0x1 PUSH1 0xA0 SHL SUB AND SWAP2 PUSH4 0x28576D45 SWAP2 PUSH1 0x4 DUP1 DUP4 ADD SWAP3 PUSH1 0x20 SWAP3 SWAP2 SWAP1 DUP3 SWAP1 SUB ADD DUP2 DUP7 DUP1 EXTCODESIZE ISZERO DUP1 ISZERO PUSH2 0x1C81 JUMPI PUSH1 0x0 DUP1 REVERT JUMPDEST POP GAS STATICCALL ISZERO DUP1 ISZERO PUSH2 0x1C95 JUMPI RETURNDATASIZE PUSH1 0x0 DUP1 RETURNDATACOPY RETURNDATASIZE PUSH1 0x0 REVERT JUMPDEST POP POP POP POP PUSH1 0x40 MLOAD RETURNDATASIZE PUSH1 0x1F NOT PUSH1 0x1F DUP3 ADD AND DUP3 ADD DUP1 PUSH1 0x40 MSTORE POP DUP2 ADD SWAP1 PUSH2 0x1CB9 SWAP2 SWAP1 PUSH2 0x2CF6 JUMP JUMPDEST PUSH2 0x1CC3 SWAP1 DUP4 PUSH2 0x2DB9 JUMP JUMPDEST PUSH2 0x1CCD SWAP2 SWAP1 PUSH2 0x2D99 JUMP JUMPDEST PUSH1 0x5 PUSH1 0x0 PUSH1 0xA PUSH1 0x0 SWAP1 SLOAD SWAP1 PUSH2 0x100 EXP SWAP1 DIV PUSH1 0x1 PUSH1 0x1 PUSH1 0xA0 SHL SUB AND PUSH1 0x1 PUSH1 0x1 PUSH1 0xA0 SHL SUB AND PUSH4 0x9953B2F PUSH1 0x40 MLOAD DUP2 PUSH4 0xFFFFFFFF AND PUSH1 0xE0 SHL DUP2 MSTORE PUSH1 0x4 ADD PUSH1 0x20 PUSH1 0x40 MLOAD DUP1 DUP4 SUB DUP2 DUP7 DUP1 EXTCODESIZE ISZERO DUP1 ISZERO PUSH2 0x1D1F JUMPI PUSH1 0x0 DUP1 REVERT JUMPDEST POP GAS STATICCALL ISZERO DUP1 ISZERO PUSH2 0x1D33 JUMPI RETURNDATASIZE PUSH1 0x0 DUP1 RETURNDATACOPY RETURNDATASIZE PUSH1 0x0 REVERT JUMPDEST POP POP POP POP PUSH1 0x40 MLOAD RETURNDATASIZE PUSH1 0x1F NOT PUSH1 0x1F DUP3 ADD AND DUP3 ADD DUP1 PUSH1 0x40 MSTORE POP DUP2 ADD SWAP1 PUSH2 0x1D57 SWAP2 SWAP1 PUSH2 0x2C40 JUMP JUMPDEST PUSH1 0x1 PUSH1 0x1 PUSH1 0xA0 SHL SUB AND PUSH1 0x1 PUSH1 0x1 PUSH1 0xA0 SHL SUB AND DUP2 MSTORE PUSH1 0x20 ADD SWAP1 DUP2 MSTORE PUSH1 0x20 ADD PUSH1 0x0 KECCAK256 PUSH1 0x0 DUP3 DUP3 SLOAD PUSH2 0x1D86 SWAP2 SWAP1 PUSH2 0x2D81 JUMP JUMPDEST SWAP1 SWAP2 SSTORE POP POP PUSH1 0xA SLOAD PUSH1 0x40 DUP1 MLOAD PUSH4 0x15334697 PUSH1 0xE2 SHL DUP2 MSTORE SWAP1 MLOAD PUSH1 0x64 SWAP3 PUSH1 0x1 PUSH1 0x1 PUSH1 0xA0 SHL SUB AND SWAP2 PUSH4 0x54CD1A5C SWAP2 PUSH1 0x4 DUP1 DUP4 ADD SWAP3 PUSH1 0x20 SWAP3 SWAP2 SWAP1 DUP3 SWAP1 SUB ADD DUP2 DUP7 DUP1 EXTCODESIZE ISZERO DUP1 ISZERO PUSH2 0x1DD0 JUMPI PUSH1 0x0 DUP1 REVERT JUMPDEST POP GAS STATICCALL ISZERO DUP1 ISZERO PUSH2 0x1DE4 JUMPI RETURNDATASIZE PUSH1 0x0 DUP1 RETURNDATACOPY RETURNDATASIZE PUSH1 0x0 REVERT JUMPDEST POP POP POP POP PUSH1 0x40 MLOAD RETURNDATASIZE PUSH1 0x1F NOT PUSH1 0x1F DUP3 ADD AND DUP3 ADD DUP1 PUSH1 0x40 MSTORE POP DUP2 ADD SWAP1 PUSH2 0x1E08 SWAP2 SWAP1 PUSH2 0x2CF6 JUMP JUMPDEST PUSH2 0x1E12 SWAP1 DUP4 PUSH2 0x2DB9 JUMP JUMPDEST PUSH2 0x1E1C SWAP2 SWAP1 PUSH2 0x2D99 JUMP JUMPDEST PUSH1 0x20 DUP1 DUP12 ADD MLOAD PUSH1 0x1 PUSH1 0x1 PUSH1 0xA0 SHL SUB AND PUSH1 0x0 SWAP1 DUP2 MSTORE PUSH1 0x5 SWAP1 SWAP2 MSTORE PUSH1 0x40 DUP2 KECCAK256 DUP1 SLOAD SWAP1 SWAP2 SWAP1 PUSH2 0x1E49 SWAP1 DUP5 SWAP1 PUSH2 0x2D81 JUMP JUMPDEST SWAP3 POP POP DUP2 SWAP1 SSTORE POP PUSH1 0x1 PUSH1 0x8 PUSH1 0x0 DUP11 DUP10 DUP2 MLOAD DUP2 LT PUSH2 0x1E76 JUMPI PUSH4 0x4E487B71 PUSH1 0xE0 SHL PUSH1 0x0 MSTORE PUSH1 0x32 PUSH1 0x4 MSTORE PUSH1 0x24 PUSH1 0x0 REVERT JUMPDEST PUSH1 0x20 MUL PUSH1 0x20 ADD ADD MLOAD DUP2 MSTORE PUSH1 0x20 ADD SWAP1 DUP2 MSTORE PUSH1 0x20 ADD PUSH1 0x0 KECCAK256 PUSH1 0x4 ADD PUSH1 0x0 PUSH2 0x100 EXP DUP2 SLOAD DUP2 PUSH1 0xFF MUL NOT AND SWAP1 DUP4 ISZERO ISZERO MUL OR SWAP1 SSTORE POP POP POP POP POP POP JUMPDEST DUP1 PUSH2 0x1EB6 DUP2 PUSH2 0x2DEF JUMP JUMPDEST SWAP2 POP POP PUSH2 0x173E JUMP JUMPDEST POP PUSH1 0x1 SWAP6 SWAP5 POP POP POP POP POP JUMP JUMPDEST PUSH1 0x0 PUSH1 0x2 PUSH1 0x0 SLOAD EQ ISZERO PUSH2 0x1F1F JUMPI PUSH1 0x40 MLOAD PUSH3 0x461BCD PUSH1 0xE5 SHL DUP2 MSTORE PUSH1 0x20 PUSH1 0x4 DUP3 ADD MSTORE PUSH1 0x1F PUSH1 0x24 DUP3 ADD MSTORE PUSH32 0x5265656E7472616E637947756172643A207265656E7472616E742063616C6C00 PUSH1 0x44 DUP3 ADD MSTORE PUSH1 0x64 ADD PUSH2 0x2F5 JUMP JUMPDEST PUSH1 0x2 PUSH1 0x0 SWAP1 DUP2 SSTORE DUP3 DUP2 MSTORE PUSH1 0x8 PUSH1 0x20 MSTORE PUSH1 0x40 SWAP1 KECCAK256 PUSH1 0x4 ADD SLOAD PUSH1 0xFF AND ISZERO PUSH2 0x1F46 JUMPI POP PUSH1 0x0 PUSH2 0x70A JUMP JUMPDEST PUSH1 0x0 DUP1 PUSH1 0x0 DUP1 PUSH1 0x2 SLOAD PUSH1 0x1 EQ ISZERO PUSH2 0x2120 JUMPI PUSH1 0x0 DUP7 DUP2 MSTORE PUSH1 0x8 PUSH1 0x20 SWAP1 DUP2 MSTORE PUSH1 0x40 DUP1 DUP4 KECCAK256 SLOAD DUP4 MSTORE PUSH1 0x6 DUP3 MSTORE SWAP2 DUP3 SWAP1 KECCAK256 SLOAD PUSH1 0xA SLOAD DUP4 MLOAD PUSH4 0x55C4A8BF PUSH1 0xE0 SHL DUP2 MSTORE SWAP4 MLOAD PUSH1 0x1 PUSH1 0x1 PUSH1 0xA0 SHL SUB SWAP3 DUP4 AND SWAP9 POP PUSH1 0x64 SWAP5 SWAP2 SWAP1 SWAP3 AND SWAP3 PUSH4 0x55C4A8BF SWAP3 PUSH1 0x4 DUP1 DUP5 ADD SWAP4 DUP3 SWAP1 SUB ADD DUP2 DUP7 DUP1 EXTCODESIZE ISZERO DUP1 ISZERO PUSH2 0x1FBA JUMPI PUSH1 0x0 DUP1 REVERT JUMPDEST POP GAS STATICCALL ISZERO DUP1 ISZERO PUSH2 0x1FCE JUMPI RETURNDATASIZE PUSH1 0x0 DUP1 RETURNDATACOPY RETURNDATASIZE PUSH1 0x0 REVERT JUMPDEST POP POP POP POP PUSH1 0x40 MLOAD RETURNDATASIZE PUSH1 0x1F NOT PUSH1 0x1F DUP3 ADD AND DUP3 ADD DUP1 PUSH1 0x40 MSTORE POP DUP2 ADD SWAP1 PUSH2 0x1FF2 SWAP2 SWAP1 PUSH2 0x2CF6 JUMP JUMPDEST PUSH2 0x1FFD SWAP1 PUSH1 0x64 PUSH2 0x2DD8 JUMP JUMPDEST PUSH1 0x0 DUP9 DUP2 MSTORE PUSH1 0x8 PUSH1 0x20 MSTORE PUSH1 0x40 SWAP1 KECCAK256 PUSH1 0x3 ADD SLOAD PUSH2 0x2019 SWAP2 SWAP1 PUSH2 0x2DB9 JUMP JUMPDEST PUSH2 0x2023 SWAP2 SWAP1 PUSH2 0x2D99 JUMP JUMPDEST PUSH1 0x0 DUP8 DUP2 MSTORE PUSH1 0x8 PUSH1 0x20 MSTORE PUSH1 0x40 SWAP1 KECCAK256 PUSH1 0x2 ADD SLOAD PUSH2 0x203F SWAP2 SWAP1 PUSH2 0x2D81 JUMP JUMPDEST SWAP2 POP PUSH1 0x64 PUSH1 0xA PUSH1 0x0 SWAP1 SLOAD SWAP1 PUSH2 0x100 EXP SWAP1 DIV PUSH1 0x1 PUSH1 0x1 PUSH1 0xA0 SHL SUB AND PUSH1 0x1 PUSH1 0x1 PUSH1 0xA0 SHL SUB AND PUSH4 0x55C4A8BF PUSH1 0x40 MLOAD DUP2 PUSH4 0xFFFFFFFF AND PUSH1 0xE0 SHL DUP2 MSTORE PUSH1 0x4 ADD PUSH1 0x20 PUSH1 0x40 MLOAD DUP1 DUP4 SUB DUP2 DUP7 DUP1 EXTCODESIZE ISZERO DUP1 ISZERO PUSH2 0x2091 JUMPI PUSH1 0x0 DUP1 REVERT JUMPDEST POP GAS STATICCALL ISZERO DUP1 ISZERO PUSH2 0x20A5 JUMPI RETURNDATASIZE PUSH1 0x0 DUP1 RETURNDATACOPY RETURNDATASIZE PUSH1 0x0 REVERT JUMPDEST POP POP POP POP PUSH1 0x40 MLOAD RETURNDATASIZE PUSH1 0x1F NOT PUSH1 0x1F DUP3 ADD AND DUP3 ADD DUP1 PUSH1 0x40 MSTORE POP DUP2 ADD SWAP1 PUSH2 0x20C9 SWAP2 SWAP1 PUSH2 0x2CF6 JUMP JUMPDEST PUSH1 0x0 DUP9 DUP2 MSTORE PUSH1 0x8 PUSH1 0x20 MSTORE PUSH1 0x40 SWAP1 KECCAK256 PUSH1 0x3 ADD SLOAD PUSH2 0x20E5 SWAP2 SWAP1 PUSH2 0x2DB9 JUMP JUMPDEST PUSH2 0x20EF SWAP2 SWAP1 PUSH2 0x2D99 JUMP JUMPDEST PUSH1 0x0 DUP8 DUP2 MSTORE PUSH1 0x8 PUSH1 0x20 SWAP1 DUP2 MSTORE PUSH1 0x40 DUP1 DUP4 KECCAK256 SLOAD DUP4 MSTORE PUSH1 0x6 SWAP1 SWAP2 MSTORE SWAP1 KECCAK256 PUSH1 0x1 ADD SLOAD PUSH1 0x1 PUSH1 0x1 PUSH1 0xA0 SHL SUB AND SWAP4 POP SWAP1 POP PUSH2 0x2308 JUMP JUMPDEST PUSH1 0x2 SLOAD PUSH1 0x2 EQ ISZERO PUSH2 0x22FB JUMPI PUSH1 0x0 DUP7 DUP2 MSTORE PUSH1 0x8 PUSH1 0x20 SWAP1 DUP2 MSTORE PUSH1 0x40 DUP1 DUP4 KECCAK256 PUSH1 0x1 ADD SLOAD DUP4 MSTORE PUSH1 0x6 DUP3 MSTORE SWAP2 DUP3 SWAP1 KECCAK256 SLOAD PUSH1 0xA SLOAD DUP4 MLOAD PUSH4 0x55C4A8BF PUSH1 0xE0 SHL DUP2 MSTORE SWAP4 MLOAD PUSH1 0x1 PUSH1 0x1 PUSH1 0xA0 SHL SUB SWAP3 DUP4 AND SWAP9 POP PUSH1 0x64 SWAP5 SWAP2 SWAP1 SWAP3 AND SWAP3 PUSH4 0x55C4A8BF SWAP3 PUSH1 0x4 DUP1 DUP5 ADD SWAP4 DUP3 SWAP1 SUB ADD DUP2 DUP7 DUP1 EXTCODESIZE ISZERO DUP1 ISZERO PUSH2 0x2191 JUMPI PUSH1 0x0 DUP1 REVERT JUMPDEST POP GAS STATICCALL ISZERO DUP1 ISZERO PUSH2 0x21A5 JUMPI RETURNDATASIZE PUSH1 0x0 DUP1 RETURNDATACOPY RETURNDATASIZE PUSH1 0x0 REVERT JUMPDEST POP POP POP POP PUSH1 0x40 MLOAD RETURNDATASIZE PUSH1 0x1F NOT PUSH1 0x1F DUP3 ADD AND DUP3 ADD DUP1 PUSH1 0x40 MSTORE POP DUP2 ADD SWAP1 PUSH2 0x21C9 SWAP2 SWAP1 PUSH2 0x2CF6 JUMP JUMPDEST PUSH2 0x21D4 SWAP1 PUSH1 0x64 PUSH2 0x2DD8 JUMP JUMPDEST PUSH1 0x0 DUP9 DUP2 MSTORE PUSH1 0x8 PUSH1 0x20 MSTORE PUSH1 0x40 SWAP1 KECCAK256 PUSH1 0x2 ADD SLOAD PUSH2 0x21F0 SWAP2 SWAP1 PUSH2 0x2DB9 JUMP JUMPDEST PUSH2 0x21FA SWAP2 SWAP1 PUSH2 0x2D99 JUMP JUMPDEST PUSH1 0x0 DUP8 DUP2 MSTORE PUSH1 0x8 PUSH1 0x20 MSTORE PUSH1 0x40 SWAP1 KECCAK256 PUSH1 0x3 ADD SLOAD PUSH2 0x2216 SWAP2 SWAP1 PUSH2 0x2D81 JUMP JUMPDEST SWAP2 POP PUSH1 0x64 PUSH1 0xA PUSH1 0x0 SWAP1 SLOAD SWAP1 PUSH2 0x100 EXP SWAP1 DIV PUSH1 0x1 PUSH1 0x1 PUSH1 0xA0 SHL SUB AND PUSH1 0x1 PUSH1 0x1 PUSH1 0xA0 SHL SUB AND PUSH4 0x55C4A8BF PUSH1 0x40 MLOAD DUP2 PUSH4 0xFFFFFFFF AND PUSH1 0xE0 SHL DUP2 MSTORE PUSH1 0x4 ADD PUSH1 0x20 PUSH1 0x40 MLOAD DUP1 DUP4 SUB DUP2 DUP7 DUP1 EXTCODESIZE ISZERO DUP1 ISZERO PUSH2 0x2268 JUMPI PUSH1 0x0 DUP1 REVERT JUMPDEST POP GAS STATICCALL ISZERO DUP1 ISZERO PUSH2 0x227C JUMPI RETURNDATASIZE PUSH1 0x0 DUP1 RETURNDATACOPY RETURNDATASIZE PUSH1 0x0 REVERT JUMPDEST POP POP POP POP PUSH1 0x40 MLOAD RETURNDATASIZE PUSH1 0x1F NOT PUSH1 0x1F DUP3 ADD AND DUP3 ADD DUP1 PUSH1 0x40 MSTORE POP DUP2 ADD SWAP1 PUSH2 0x22A0 SWAP2 SWAP1 PUSH2 0x2CF6 JUMP JUMPDEST PUSH1 0x0 DUP9 DUP2 MSTORE PUSH1 0x8 PUSH1 0x20 MSTORE PUSH1 0x40 SWAP1 KECCAK256 PUSH1 0x2 ADD SLOAD PUSH2 0x22BC SWAP2 SWAP1 PUSH2 0x2DB9 JUMP JUMPDEST PUSH2 0x22C6 SWAP2 SWAP1 PUSH2 0x2D99 JUMP JUMPDEST PUSH1 0x0 DUP8 DUP2 MSTORE PUSH1 0x8 PUSH1 0x20 SWAP1 DUP2 MSTORE PUSH1 0x40 DUP1 DUP4 KECCAK256 PUSH1 0x1 SWAP1 DUP2 ADD SLOAD DUP5 MSTORE PUSH1 0x6 SWAP1 SWAP3 MSTORE SWAP1 SWAP2 KECCAK256 ADD SLOAD PUSH1 0x1 PUSH1 0x1 PUSH1 0xA0 SHL SUB AND SWAP4 POP SWAP1 POP PUSH2 0x2308 JUMP JUMPDEST PUSH1 0x0 SWAP5 POP POP POP POP POP PUSH2 0x70A JUMP JUMPDEST PUSH1 0x1 PUSH1 0x1 PUSH1 0xA0 SHL SUB DUP5 AND PUSH1 0x0 SWAP1 DUP2 MSTORE PUSH1 0x5 PUSH1 0x20 MSTORE PUSH1 0x40 DUP2 KECCAK256 DUP1 SLOAD DUP5 SWAP3 SWAP1 PUSH2 0x2330 SWAP1 DUP5 SWAP1 PUSH2 0x2D81 JUMP JUMPDEST SWAP1 SWAP2 SSTORE POP POP PUSH1 0xA SLOAD PUSH1 0x40 DUP1 MLOAD PUSH4 0x6A0CCD9D PUSH1 0xE0 SHL DUP2 MSTORE SWAP1 MLOAD PUSH1 0x64 SWAP3 PUSH1 0x1 PUSH1 0x1 PUSH1 0xA0 SHL SUB AND SWAP2 PUSH4 0x6A0CCD9D SWAP2 PUSH1 0x4 DUP1 DUP4 ADD SWAP3 PUSH1 0x20 SWAP3 SWAP2 SWAP1 DUP3 SWAP1 SUB ADD DUP2 DUP7 DUP1 EXTCODESIZE ISZERO DUP1 ISZERO PUSH2 0x237A JUMPI PUSH1 0x0 DUP1 REVERT JUMPDEST POP GAS STATICCALL ISZERO DUP1 ISZERO PUSH2 0x238E JUMPI RETURNDATASIZE PUSH1 0x0 DUP1 RETURNDATACOPY RETURNDATASIZE PUSH1 0x0 REVERT JUMPDEST POP POP POP POP PUSH1 0x40 MLOAD RETURNDATASIZE PUSH1 0x1F NOT PUSH1 0x1F DUP3 ADD AND DUP3 ADD DUP1 PUSH1 0x40 MSTORE POP DUP2 ADD SWAP1 PUSH2 0x23B2 SWAP2 SWAP1 PUSH2 0x2CF6 JUMP JUMPDEST PUSH2 0x23BC SWAP1 DUP4 PUSH2 0x2DB9 JUMP JUMPDEST PUSH2 0x23C6 SWAP2 SWAP1 PUSH2 0x2D99 JUMP JUMPDEST PUSH1 0x5 PUSH1 0x0 PUSH1 0xA PUSH1 0x0 SWAP1 SLOAD SWAP1 PUSH2 0x100 EXP SWAP1 DIV PUSH1 0x1 PUSH1 0x1 PUSH1 0xA0 SHL SUB AND PUSH1 0x1 PUSH1 0x1 PUSH1 0xA0 SHL SUB AND PUSH4 0xB7640A54 PUSH1 0x40 MLOAD DUP2 PUSH4 0xFFFFFFFF AND PUSH1 0xE0 SHL DUP2 MSTORE PUSH1 0x4 ADD PUSH1 0x20 PUSH1 0x40 MLOAD DUP1 DUP4 SUB DUP2 DUP7 DUP1 EXTCODESIZE ISZERO DUP1 ISZERO PUSH2 0x2418 JUMPI PUSH1 0x0 DUP1 REVERT JUMPDEST POP GAS STATICCALL ISZERO DUP1 ISZERO PUSH2 0x242C JUMPI RETURNDATASIZE PUSH1 0x0 DUP1 RETURNDATACOPY RETURNDATASIZE PUSH1 0x0 REVERT JUMPDEST POP POP POP POP PUSH1 0x40 MLOAD RETURNDATASIZE PUSH1 0x1F NOT PUSH1 0x1F DUP3 ADD AND DUP3 ADD DUP1 PUSH1 0x40 MSTORE POP DUP2 ADD SWAP1 PUSH2 0x2450 SWAP2 SWAP1 PUSH2 0x2C40 JUMP JUMPDEST PUSH1 0x1 PUSH1 0x1 PUSH1 0xA0 SHL SUB AND PUSH1 0x1 PUSH1 0x1 PUSH1 0xA0 SHL SUB AND DUP2 MSTORE PUSH1 0x20 ADD SWAP1 DUP2 MSTORE PUSH1 0x20 ADD PUSH1 0x0 KECCAK256 PUSH1 0x0 DUP3 DUP3 SLOAD PUSH2 0x247F SWAP2 SWAP1 PUSH2 0x2D81 JUMP JUMPDEST SWAP1 SWAP2 SSTORE POP POP PUSH1 0xA SLOAD PUSH1 0x40 DUP1 MLOAD PUSH4 0x28576D45 PUSH1 0xE0 SHL DUP2 MSTORE SWAP1 MLOAD PUSH1 0x64 SWAP3 PUSH1 0x1 PUSH1 0x1 PUSH1 0xA0 SHL SUB AND SWAP2 PUSH4 0x28576D45 SWAP2 PUSH1 0x4 DUP1 DUP4 ADD SWAP3 PUSH1 0x20 SWAP3 SWAP2 SWAP1 DUP3 SWAP1 SUB ADD DUP2 DUP7 DUP1 EXTCODESIZE ISZERO DUP1 ISZERO PUSH2 0x24C9 JUMPI PUSH1 0x0 DUP1 REVERT JUMPDEST POP GAS STATICCALL ISZERO DUP1 ISZERO PUSH2 0x24DD JUMPI RETURNDATASIZE PUSH1 0x0 DUP1 RETURNDATACOPY RETURNDATASIZE PUSH1 0x0 REVERT JUMPDEST POP POP POP POP PUSH1 0x40 MLOAD RETURNDATASIZE PUSH1 0x1F NOT PUSH1 0x1F DUP3 ADD AND DUP3 ADD DUP1 PUSH1 0x40 MSTORE POP DUP2 ADD SWAP1 PUSH2 0x2501 SWAP2 SWAP1 PUSH2 0x2CF6 JUMP JUMPDEST PUSH2 0x250B SWAP1 DUP4 PUSH2 0x2DB9 JUMP JUMPDEST PUSH2 0x2515 SWAP2 SWAP1 PUSH2 0x2D99 JUMP JUMPDEST PUSH1 0x5 PUSH1 0x0 PUSH1 0xA PUSH1 0x0 SWAP1 SLOAD SWAP1 PUSH2 0x100 EXP SWAP1 DIV PUSH1 0x1 PUSH1 0x1 PUSH1 0xA0 SHL SUB AND PUSH1 0x1 PUSH1 0x1 PUSH1 0xA0 SHL SUB AND PUSH4 0x9953B2F PUSH1 0x40 MLOAD DUP2 PUSH4 0xFFFFFFFF AND PUSH1 0xE0 SHL DUP2 MSTORE PUSH1 0x4 ADD PUSH1 0x20 PUSH1 0x40 MLOAD DUP1 DUP4 SUB DUP2 DUP7 DUP1 EXTCODESIZE ISZERO DUP1 ISZERO PUSH2 0x2567 JUMPI PUSH1 0x0 DUP1 REVERT JUMPDEST POP GAS STATICCALL ISZERO DUP1 ISZERO PUSH2 0x257B JUMPI RETURNDATASIZE PUSH1 0x0 DUP1 RETURNDATACOPY RETURNDATASIZE PUSH1 0x0 REVERT JUMPDEST POP POP POP POP PUSH1 0x40 MLOAD RETURNDATASIZE PUSH1 0x1F NOT PUSH1 0x1F DUP3 ADD AND DUP3 ADD DUP1 PUSH1 0x40 MSTORE POP DUP2 ADD SWAP1 PUSH2 0x259F SWAP2 SWAP1 PUSH2 0x2C40 JUMP JUMPDEST PUSH1 0x1 PUSH1 0x1 PUSH1 0xA0 SHL SUB AND PUSH1 0x1 PUSH1 0x1 PUSH1 0xA0 SHL SUB AND DUP2 MSTORE PUSH1 0x20 ADD SWAP1 DUP2 MSTORE PUSH1 0x20 ADD PUSH1 0x0 KECCAK256 PUSH1 0x0 DUP3 DUP3 SLOAD PUSH2 0x25CE SWAP2 SWAP1 PUSH2 0x2D81 JUMP JUMPDEST SWAP1 SWAP2 SSTORE POP POP PUSH1 0xA SLOAD PUSH1 0x40 DUP1 MLOAD PUSH4 0x15334697 PUSH1 0xE2 SHL DUP2 MSTORE SWAP1 MLOAD PUSH1 0x64 SWAP3 PUSH1 0x1 PUSH1 0x1 PUSH1 0xA0 SHL SUB AND SWAP2 PUSH4 0x54CD1A5C SWAP2 PUSH1 0x4 DUP1 DUP4 ADD SWAP3 PUSH1 0x20 SWAP3 SWAP2 SWAP1 DUP3 SWAP1 SUB ADD DUP2 DUP7 DUP1 EXTCODESIZE ISZERO DUP1 ISZERO PUSH2 0x2618 JUMPI PUSH1 0x0 DUP1 REVERT JUMPDEST POP GAS STATICCALL ISZERO DUP1 ISZERO PUSH2 0x262C JUMPI RETURNDATASIZE PUSH1 0x0 DUP1 RETURNDATACOPY RETURNDATASIZE PUSH1 0x0 REVERT JUMPDEST POP POP POP POP PUSH1 0x40 MLOAD RETURNDATASIZE PUSH1 0x1F NOT PUSH1 0x1F DUP3 ADD AND DUP3 ADD DUP1 PUSH1 0x40 MSTORE POP DUP2 ADD SWAP1 PUSH2 0x2650 SWAP2 SWAP1 PUSH2 0x2CF6 JUMP JUMPDEST PUSH2 0x265A SWAP1 DUP4 PUSH2 0x2DB9 JUMP JUMPDEST PUSH2 0x2664 SWAP2 SWAP1 PUSH2 0x2D99 JUMP JUMPDEST PUSH1 0x1 PUSH1 0x1 PUSH1 0xA0 SHL SUB DUP5 AND PUSH1 0x0 SWAP1 DUP2 MSTORE PUSH1 0x5 PUSH1 0x20 MSTORE PUSH1 0x40 DUP2 KECCAK256 DUP1 SLOAD SWAP1 SWAP2 SWAP1 PUSH2 0x268C SWAP1 DUP5 SWAP1 PUSH2 0x2D81 JUMP JUMPDEST SWAP1 SWAP2 SSTORE POP POP POP PUSH1 0x0 SWAP5 DUP6 MSTORE POP POP PUSH1 0x8 PUSH1 0x20 MSTORE POP POP PUSH1 0x40 DUP2 KECCAK256 PUSH1 0x4 ADD DUP1 SLOAD PUSH1 0xFF NOT AND PUSH1 0x1 SWAP1 DUP2 OR SWAP1 SWAP2 SSTORE SWAP1 DUP2 SWAP1 SSTORE SWAP1 JUMP JUMPDEST PUSH1 0x0 DUP1 PUSH1 0x0 JUMPDEST PUSH1 0x4 SLOAD DUP10 SWAP1 ADDRESS SWAP1 DUP4 SWAP1 PUSH2 0x26D6 SWAP1 PUSH1 0x1 PUSH2 0x2D81 JUMP JUMPDEST PUSH2 0x26E0 SWAP2 SWAP1 PUSH2 0x2D81 JUMP JUMPDEST PUSH1 0x40 MLOAD PUSH12 0xFFFFFFFFFFFFFFFFFFFFFFFF NOT PUSH1 0x60 SWAP5 DUP6 SHL DUP2 AND PUSH1 0x20 DUP4 ADD MSTORE SWAP3 SWAP1 SWAP4 SHL SWAP1 SWAP2 AND PUSH1 0x34 DUP4 ADD MSTORE PUSH1 0x48 DUP3 ADD MSTORE TIMESTAMP PUSH1 0x68 DUP3 ADD MSTORE DIFFICULTY PUSH1 0x88 DUP3 ADD MSTORE PUSH1 0xA8 ADD PUSH1 0x40 DUP1 MLOAD PUSH1 0x1F NOT DUP2 DUP5 SUB ADD DUP2 MSTORE SWAP2 DUP2 MSTORE DUP2 MLOAD PUSH1 0x20 SWAP3 DUP4 ADD KECCAK256 PUSH1 0x0 DUP2 DUP2 MSTORE PUSH1 0x6 SWAP1 SWAP4 MSTORE SWAP2 KECCAK256 PUSH1 0x2 ADD SLOAD SWAP1 SWAP3 POP PUSH2 0x2751 JUMPI PUSH2 0x2763 JUMP JUMPDEST DUP1 PUSH2 0x275B DUP2 PUSH2 0x2DEF JUMP JUMPDEST SWAP2 POP POP PUSH2 0x26C2 JUMP JUMPDEST PUSH1 0x1 PUSH1 0x1 PUSH1 0xA0 SHL SUB DUP9 AND PUSH2 0x27FA JUMPI PUSH1 0xA PUSH1 0x0 SWAP1 SLOAD SWAP1 PUSH2 0x100 EXP SWAP1 DIV PUSH1 0x1 PUSH1 0x1 PUSH1 0xA0 SHL SUB AND PUSH1 0x1 PUSH1 0x1 PUSH1 0xA0 SHL SUB AND PUSH4 0x9953B2F PUSH1 0x40 MLOAD DUP2 PUSH4 0xFFFFFFFF AND PUSH1 0xE0 SHL DUP2 MSTORE PUSH1 0x4 ADD PUSH1 0x20 PUSH1 0x40 MLOAD DUP1 DUP4 SUB DUP2 DUP7 DUP1 EXTCODESIZE ISZERO DUP1 ISZERO PUSH2 0x27BF JUMPI PUSH1 0x0 DUP1 REVERT JUMPDEST POP GAS STATICCALL ISZERO DUP1 ISZERO PUSH2 0x27D3 JUMPI RETURNDATASIZE PUSH1 0x0 DUP1 RETURNDATACOPY RETURNDATASIZE PUSH1 0x0 REVERT JUMPDEST POP POP POP POP PUSH1 0x40 MLOAD RETURNDATASIZE PUSH1 0x1F NOT PUSH1 0x1F DUP3 ADD AND DUP3 ADD DUP1 PUSH1 0x40 MSTORE POP DUP2 ADD SWAP1 PUSH2 0x27F7 SWAP2 SWAP1 PUSH2 0x2C40 JUMP JUMPDEST SWAP8 POP JUMPDEST POP PUSH1 0x40 DUP1 MLOAD PUSH1 0xC0 DUP2 ADD DUP3 MSTORE PUSH1 0x1 PUSH1 0x1 PUSH1 0xA0 SHL SUB SWAP10 DUP11 AND DUP1 DUP3 MSTORE SWAP9 DUP11 AND PUSH1 0x20 DUP1 DUP4 ADD SWAP2 DUP3 MSTORE DUP3 DUP5 ADD SWAP10 DUP11 MSTORE PUSH1 0x60 DUP4 ADD SWAP9 DUP10 MSTORE PUSH1 0x80 DUP4 ADD SWAP8 DUP9 MSTORE PUSH1 0xA0 DUP4 ADD SWAP7 DUP8 MSTORE PUSH1 0x0 DUP6 DUP2 MSTORE PUSH1 0x6 DUP3 MSTORE DUP5 DUP2 KECCAK256 SWAP4 MLOAD DUP5 SLOAD SWAP1 DUP15 AND PUSH1 0x1 PUSH1 0x1 PUSH1 0xA0 SHL SUB NOT SWAP2 DUP3 AND OR DUP6 SSTORE SWAP3 MLOAD PUSH1 0x1 DUP1 DUP7 ADD DUP1 SLOAD SWAP3 SWAP1 SWAP16 AND SWAP2 SWAP1 SWAP5 AND OR SWAP1 SWAP13 SSTORE SWAP9 MLOAD PUSH1 0x2 DUP4 ADD SSTORE SWAP7 MLOAD PUSH1 0x3 DUP3 ADD SSTORE SWAP5 MLOAD PUSH1 0x4 DUP1 DUP8 ADD SWAP2 SWAP1 SWAP2 SSTORE SWAP4 MLOAD PUSH1 0x5 SWAP1 SWAP6 ADD SWAP5 SWAP1 SWAP5 SSTORE DUP3 SLOAD DUP1 DUP7 ADD SWAP1 SWAP4 SSTORE PUSH32 0x8A35ACFBC15FF81A39AE7D344FD709F28E8600B4AA8C65C6B64BFE7FE36BD19B SWAP1 SWAP3 ADD DUP3 SWAP1 SSTORE POP SWAP4 DUP6 MSTORE PUSH1 0x7 DUP4 MSTORE DUP5 KECCAK256 DUP1 SLOAD SWAP2 DUP3 ADD DUP2 SSTORE DUP5 MSTORE SWAP3 KECCAK256 SWAP1 SWAP2 ADD DUP2 SWAP1 SSTORE SWAP1 JUMP JUMPDEST PUSH1 0x0 DUP1 PUSH1 0x0 DUP1 DUP10 DUP10 GT PUSH2 0x294B JUMPI DUP9 SWAP3 POP PUSH2 0x28FC PUSH1 0x64 DUP10 PUSH2 0x2DD8 JUMP JUMPDEST PUSH2 0x2906 SWAP1 DUP11 PUSH2 0x2DB9 JUMP JUMPDEST SWAP2 POP PUSH2 0x2913 PUSH1 0x64 DUP4 PUSH2 0x2D99 JUMP JUMPDEST SWAP2 POP DUP7 PUSH1 0x1 EQ ISZERO PUSH2 0x2931 JUMPI PUSH2 0x292A DUP7 DUP7 DUP6 DUP6 PUSH2 0x2AEA JUMP JUMPDEST SWAP1 POP PUSH2 0x299F JUMP JUMPDEST DUP7 PUSH1 0x2 EQ ISZERO PUSH2 0x2946 JUMPI PUSH2 0x292A DUP6 DUP8 DUP5 DUP7 PUSH2 0x2AEA JUMP JUMPDEST PUSH2 0x299F JUMP JUMPDEST DUP10 SWAP3 POP PUSH2 0x2959 PUSH1 0x64 DUP10 PUSH2 0x2DD8 JUMP JUMPDEST PUSH2 0x2963 SWAP1 DUP12 PUSH2 0x2DB9 JUMP JUMPDEST SWAP2 POP PUSH2 0x2970 PUSH1 0x64 DUP4 PUSH2 0x2D99 JUMP JUMPDEST SWAP2 POP DUP7 PUSH1 0x1 EQ ISZERO PUSH2 0x2987 JUMPI PUSH2 0x292A DUP7 DUP7 DUP6 DUP6 PUSH2 0x2AEA JUMP JUMPDEST DUP7 PUSH1 0x2 EQ ISZERO PUSH2 0x299F JUMPI PUSH2 0x299C DUP6 DUP8 DUP5 DUP7 PUSH2 0x2AEA JUMP JUMPDEST SWAP1 POP JUMPDEST PUSH1 0x0 DUP7 DUP2 MSTORE PUSH1 0x9 PUSH1 0x20 SWAP1 DUP2 MSTORE PUSH1 0x40 DUP1 DUP4 KECCAK256 DUP1 SLOAD PUSH1 0x1 DUP2 DUP2 ADD DUP4 SSTORE SWAP2 DUP6 MSTORE DUP4 DUP6 KECCAK256 ADD DUP6 SWAP1 SSTORE DUP9 DUP5 MSTORE DUP2 DUP5 KECCAK256 DUP1 SLOAD SWAP2 DUP3 ADD DUP2 SSTORE DUP5 MSTORE DUP3 DUP5 KECCAK256 ADD DUP5 SWAP1 SSTORE DUP9 DUP4 MSTORE PUSH1 0x6 SWAP1 SWAP2 MSTORE DUP2 KECCAK256 PUSH1 0x3 ADD DUP1 SLOAD DUP6 SWAP3 SWAP1 PUSH2 0x29F6 SWAP1 DUP5 SWAP1 PUSH2 0x2D81 JUMP JUMPDEST SWAP1 SWAP2 SSTORE POP POP PUSH1 0x0 DUP6 DUP2 MSTORE PUSH1 0x6 PUSH1 0x20 MSTORE PUSH1 0x40 DUP2 KECCAK256 PUSH1 0x3 ADD DUP1 SLOAD DUP5 SWAP3 SWAP1 PUSH2 0x2A1C SWAP1 DUP5 SWAP1 PUSH2 0x2D81 JUMP JUMPDEST SWAP1 SWAP2 SSTORE POP SWAP3 SWAP11 SWAP10 POP POP POP POP POP POP POP POP POP POP JUMP JUMPDEST PUSH1 0x0 DUP2 DUP2 MSTORE PUSH1 0x8 PUSH1 0x20 SWAP1 DUP2 MSTORE PUSH1 0x40 DUP1 DUP4 KECCAK256 DUP1 SLOAD DUP5 MSTORE PUSH1 0x6 DUP4 MSTORE DUP2 DUP5 KECCAK256 SLOAD PUSH1 0x1 DUP3 ADD SLOAD DUP6 MSTORE DUP3 DUP6 KECCAK256 SLOAD PUSH1 0x2 SWAP1 SWAP3 ADD SLOAD PUSH1 0x1 PUSH1 0x1 PUSH1 0xA0 SHL SUB SWAP2 DUP3 AND DUP1 DUP8 MSTORE PUSH1 0x5 SWAP1 SWAP6 MSTORE SWAP3 DUP6 KECCAK256 DUP1 SLOAD SWAP5 SWAP6 SWAP2 SWAP1 SWAP3 AND SWAP4 PUSH2 0x2A87 SWAP1 DUP5 SWAP1 PUSH2 0x2D81 JUMP JUMPDEST SWAP1 SWAP2 SSTORE POP POP PUSH1 0x0 DUP4 DUP2 MSTORE PUSH1 0x8 PUSH1 0x20 SWAP1 DUP2 MSTORE PUSH1 0x40 DUP1 DUP4 KECCAK256 PUSH1 0x3 ADD SLOAD PUSH1 0x1 PUSH1 0x1 PUSH1 0xA0 SHL SUB DUP6 AND DUP5 MSTORE PUSH1 0x5 SWAP1 SWAP3 MSTORE DUP3 KECCAK256 DUP1 SLOAD SWAP2 SWAP3 SWAP1 SWAP2 PUSH2 0x2AC5 SWAP1 DUP5 SWAP1 PUSH2 0x2D81 JUMP JUMPDEST SWAP1 SWAP2 SSTORE POP POP POP PUSH1 0x0 SWAP2 DUP3 MSTORE POP PUSH1 0x8 PUSH1 0x20 MSTORE PUSH1 0x40 SWAP1 KECCAK256 PUSH1 0x4 ADD DUP1 SLOAD PUSH1 0xFF NOT AND PUSH1 0x1 OR SWAP1 SSTORE JUMP JUMPDEST PUSH1 0x0 DUP1 PUSH1 0x0 JUMPDEST PUSH1 0x3 SLOAD DUP8 SWAP1 DUP8 SWAP1 DUP4 SWAP1 PUSH2 0x2B04 SWAP1 PUSH1 0x1 PUSH2 0x2D81 JUMP JUMPDEST PUSH2 0x2B0E SWAP2 SWAP1 PUSH2 0x2D81 JUMP JUMPDEST PUSH1 0x40 DUP1 MLOAD PUSH1 0x20 DUP2 ADD SWAP5 SWAP1 SWAP5 MSTORE DUP4 ADD SWAP2 SWAP1 SWAP2 MSTORE PUSH1 0x60 DUP3 ADD MSTORE TIMESTAMP PUSH1 0x80 DUP3 ADD MSTORE DIFFICULTY PUSH1 0xA0 DUP3 ADD MSTORE PUSH1 0xC0 ADD PUSH1 0x40 DUP1 MLOAD PUSH1 0x1F NOT DUP2 DUP5 SUB ADD DUP2 MSTORE SWAP2 DUP2 MSTORE DUP2 MLOAD PUSH1 0x20 SWAP3 DUP4 ADD KECCAK256 PUSH1 0x0 DUP2 DUP2 MSTORE PUSH1 0x8 SWAP1 SWAP4 MSTORE SWAP2 KECCAK256 PUSH1 0x2 ADD SLOAD SWAP1 SWAP3 POP PUSH2 0x2B68 JUMPI PUSH2 0x2B7A JUMP JUMPDEST DUP1 PUSH2 0x2B72 DUP2 PUSH2 0x2DEF JUMP JUMPDEST SWAP2 POP POP PUSH2 0x2AF0 JUMP JUMPDEST POP PUSH1 0x40 DUP1 MLOAD PUSH1 0xA0 DUP2 ADD DUP3 MSTORE SWAP7 DUP8 MSTORE PUSH1 0x20 DUP1 DUP9 ADD SWAP7 DUP8 MSTORE DUP8 DUP3 ADD SWAP6 DUP7 MSTORE PUSH1 0x60 DUP9 ADD SWAP5 DUP6 MSTORE PUSH1 0x0 PUSH1 0x80 DUP10 ADD DUP2 DUP2 MSTORE DUP5 DUP3 MSTORE PUSH1 0x8 SWAP1 SWAP3 MSTORE SWAP2 DUP3 KECCAK256 SWAP8 MLOAD DUP9 SSTORE SWAP6 MLOAD PUSH1 0x1 DUP1 DUP10 ADD SWAP2 SWAP1 SWAP2 SSTORE SWAP5 MLOAD PUSH1 0x2 DUP9 ADD SSTORE SWAP3 MLOAD PUSH1 0x3 DUP1 DUP9 ADD SWAP2 SWAP1 SWAP2 SSTORE SWAP5 MLOAD PUSH1 0x4 SWAP1 SWAP7 ADD DUP1 SLOAD PUSH1 0xFF NOT AND SWAP7 ISZERO ISZERO SWAP7 SWAP1 SWAP7 OR SWAP1 SWAP6 SSTORE POP DUP3 SLOAD SWAP2 DUP3 ADD DUP4 SSTORE SWAP2 SWAP1 SWAP2 MSTORE PUSH32 0xC2575A0E9E593C00F959F8C92F12DB2869C3395A3B0502D05E2516446F71F85B ADD DUP2 SWAP1 SSTORE SWAP1 JUMP JUMPDEST PUSH1 0x0 PUSH1 0x20 DUP3 DUP5 SUB SLT ISZERO PUSH2 0x2C2E JUMPI DUP1 DUP2 REVERT JUMPDEST DUP2 CALLDATALOAD PUSH2 0x2C39 DUP2 PUSH2 0x2E20 JUMP JUMPDEST SWAP4 SWAP3 POP POP POP JUMP JUMPDEST PUSH1 0x0 PUSH1 0x20 DUP3 DUP5 SUB SLT ISZERO PUSH2 0x2C51 JUMPI DUP1 DUP2 REVERT JUMPDEST DUP2 MLOAD PUSH2 0x2C39 DUP2 PUSH2 0x2E20 JUMP JUMPDEST PUSH1 0x0 DUP1 PUSH1 0x0 DUP1 PUSH1 0x0 DUP1 PUSH1 0xC0 DUP8 DUP10 SUB SLT ISZERO PUSH2 0x2C74 JUMPI DUP2 DUP3 REVERT JUMPDEST DUP7 CALLDATALOAD PUSH2 0x2C7F DUP2 PUSH2 0x2E20 JUMP JUMPDEST SWAP6 POP PUSH1 0x20 DUP8 ADD CALLDATALOAD PUSH2 0x2C8F DUP2 PUSH2 0x2E20 JUMP JUMPDEST SWAP5 POP PUSH1 0x40 DUP8 ADD CALLDATALOAD SWAP4 POP PUSH1 0x60 DUP8 ADD CALLDATALOAD SWAP3 POP PUSH1 0x80 DUP8 ADD CALLDATALOAD SWAP2 POP PUSH1 0xA0 DUP8 ADD CALLDATALOAD PUSH2 0x2CB4 DUP2 PUSH2 0x2E35 JUMP JUMPDEST DUP1 SWAP2 POP POP SWAP3 SWAP6 POP SWAP3 SWAP6 POP SWAP3 SWAP6 JUMP JUMPDEST PUSH1 0x0 PUSH1 0x20 DUP3 DUP5 SUB SLT ISZERO PUSH2 0x2CD3 JUMPI DUP1 DUP2 REVERT JUMPDEST DUP2 MLOAD PUSH2 0x2C39 DUP2 PUSH2 0x2E35 JUMP JUMPDEST PUSH1 0x0 PUSH1 0x20 DUP3 DUP5 SUB SLT ISZERO PUSH2 0x2CEF JUMPI DUP1 DUP2 REVERT JUMPDEST POP CALLDATALOAD SWAP2 SWAP1 POP JUMP JUMPDEST PUSH1 0x0 PUSH1 0x20 DUP3 DUP5 SUB SLT ISZERO PUSH2 0x2D07 JUMPI DUP1 DUP2 REVERT JUMPDEST POP MLOAD SWAP2 SWAP1 POP JUMP JUMPDEST PUSH1 0x20 DUP1 DUP3 MSTORE DUP3 MLOAD DUP3 DUP3 ADD DUP2 SWAP1 MSTORE PUSH1 0x0 SWAP2 SWAP1 DUP5 DUP3 ADD SWAP1 PUSH1 0x40 DUP6 ADD SWAP1 DUP5 JUMPDEST DUP2 DUP2 LT ISZERO PUSH2 0x2D46 JUMPI DUP4 MLOAD DUP4 MSTORE SWAP3 DUP5 ADD SWAP3 SWAP2 DUP5 ADD SWAP2 PUSH1 0x1 ADD PUSH2 0x2D2A JUMP JUMPDEST POP SWAP1 SWAP7 SWAP6 POP POP POP POP POP POP JUMP JUMPDEST PUSH1 0x20 DUP1 DUP3 MSTORE PUSH1 0x15 SWAP1 DUP3 ADD MSTORE PUSH21 0x18D85B1B195C881B9BDD08185D5D1A1BDC9A5E9959 PUSH1 0x5A SHL PUSH1 0x40 DUP3 ADD MSTORE PUSH1 0x60 ADD SWAP1 JUMP JUMPDEST PUSH1 0x0 DUP3 NOT DUP3 GT ISZERO PUSH2 0x2D94 JUMPI PUSH2 0x2D94 PUSH2 0x2E0A JUMP JUMPDEST POP ADD SWAP1 JUMP JUMPDEST PUSH1 0x0 DUP3 PUSH2 0x2DB4 JUMPI PUSH4 0x4E487B71 PUSH1 0xE0 SHL DUP2 MSTORE PUSH1 0x12 PUSH1 0x4 MSTORE PUSH1 0x24 DUP2 REVERT JUMPDEST POP DIV SWAP1 JUMP JUMPDEST PUSH1 0x0 DUP2 PUSH1 0x0 NOT DIV DUP4 GT DUP3 ISZERO ISZERO AND ISZERO PUSH2 0x2DD3 JUMPI PUSH2 0x2DD3 PUSH2 0x2E0A JUMP JUMPDEST POP MUL SWAP1 JUMP JUMPDEST PUSH1 0x0 DUP3 DUP3 LT ISZERO PUSH2 0x2DEA JUMPI PUSH2 0x2DEA PUSH2 0x2E0A JUMP JUMPDEST POP SUB SWAP1 JUMP JUMPDEST PUSH1 0x0 PUSH1 0x0 NOT DUP3 EQ ISZERO PUSH2 0x2E03 JUMPI PUSH2 0x2E03 PUSH2 0x2E0A JUMP JUMPDEST POP PUSH1 0x1 ADD SWAP1 JUMP JUMPDEST PUSH4 0x4E487B71 PUSH1 0xE0 SHL PUSH1 0x0 MSTORE PUSH1 0x11 PUSH1 0x4 MSTORE PUSH1 0x24 PUSH1 0x0 REVERT JUMPDEST PUSH1 0x1 PUSH1 0x1 PUSH1 0xA0 SHL SUB DUP2 AND DUP2 EQ PUSH2 0x328 JUMPI PUSH1 0x0 DUP1 REVERT JUMPDEST DUP1 ISZERO ISZERO DUP2 EQ PUSH2 0x328 JUMPI PUSH1 0x0 DUP1 REVERT INVALID LOG2 PUSH5 0x6970667358 0x22 SLT KECCAK256 0xE6 SLT XOR EXTCODESIZE KECCAK256 EXP SWAP7 0x28 0xDB SELFBALANCE 0xBC 0xE2 CREATE2 0xB7 ADD DIFFICULTY PUSH15 0x3E78966543ABF008EC30C2E5816A4C PUSH5 0x736F6C6343 STOP ADDMOD DIV STOP CALLER "
				},
				"gasEstimates": {
					"creation": {
						"codeDepositCost": "2379400",
						"executionCost": "infinite",
						"totalCost": "infinite"
					},
					"external": {
						"addBet(address,address,uint256,uint256,uint256,bool)": "infinite",
						"cancel()": "infinite",
						"cancelBet(bytes32)": "infinite",
						"cancelPlusPairs()": "infinite",
						"getBalance(address)": "1308",
						"getBet(bytes32)": "5771",
						"getUserBets(address)": "infinite",
						"marketEvent()": "infinite",
						"setWinningSide(uint256)": "infinite",
						"settle(uint256)": "infinite",
						"settleBet(bytes32)": "infinite",
						"start()": "infinite",
						"status()": "1008",
						"withdraw(address)": "infinite",
						"withdrawPending(bytes32)": "infinite"
					},
					"internal": {
						"_cancelBetPairs(bytes32)": "infinite",
						"_cancelPair(bytes32)": "infinite",
						"_createBet(address,address,uint256,uint256,uint256,uint256)": "infinite",
						"_createPair(bytes32,bytes32,uint256,uint256)": "infinite",
						"_match(uint256,uint256,uint256,uint256,bytes32,bytes32)": "infinite",
						"_settlePair(bytes32)": "infinite"
					}
				},
				"methodIdentifiers": {
					"addBet(address,address,uint256,uint256,uint256,bool)": "78d65b2f",
					"cancel()": "ea8a1af0",
					"cancelBet(bytes32)": "2940ff1e",
					"cancelPlusPairs()": "ae8cd090",
					"getBalance(address)": "f8b2cb4f",
					"getBet(bytes32)": "37e8c09e",
					"getUserBets(address)": "2d56657d",
					"marketEvent()": "7a47d494",
					"setWinningSide(uint256)": "d0ed7295",
					"settle(uint256)": "8df82800",
					"settleBet(bytes32)": "675f6537",
					"start()": "be9a6555",
					"status()": "200d2ed2",
					"withdraw(address)": "51cff8d9",
					"withdrawPending(bytes32)": "7d7f9232"
				}
			},
			"storageLayout": {
				"storage": [
					{
						"astId": 10,
						"contract": "contracts/Market.sol:Market",
						"label": "_status",
						"offset": 0,
						"slot": "0",
						"type": "t_uint256"
					},
					{
						"astId": 131,
						"contract": "contracts/Market.sol:Market",
						"label": "factory",
						"offset": 0,
						"slot": "1",
						"type": "t_address"
					},
					{
						"astId": 135,
						"contract": "contracts/Market.sol:Market",
						"label": "status",
						"offset": 0,
						"slot": "2",
						"type": "t_uint256"
					},
					{
						"astId": 138,
						"contract": "contracts/Market.sol:Market",
						"label": "pairs",
						"offset": 0,
						"slot": "3",
						"type": "t_array(t_bytes32)dyn_storage"
					},
					{
						"astId": 141,
						"contract": "contracts/Market.sol:Market",
						"label": "bets",
						"offset": 0,
						"slot": "4",
						"type": "t_array(t_bytes32)dyn_storage"
					},
					{
						"astId": 145,
						"contract": "contracts/Market.sol:Market",
						"label": "bal",
						"offset": 0,
						"slot": "5",
						"type": "t_mapping(t_address,t_uint256)"
					},
					{
						"astId": 150,
						"contract": "contracts/Market.sol:Market",
						"label": "betsInfo",
						"offset": 0,
						"slot": "6",
						"type": "t_mapping(t_bytes32,t_struct(MarketBet)1978_storage)"
					},
					{
						"astId": 155,
						"contract": "contracts/Market.sol:Market",
						"label": "userBets",
						"offset": 0,
						"slot": "7",
						"type": "t_mapping(t_address,t_array(t_bytes32)dyn_storage)"
					},
					{
						"astId": 160,
						"contract": "contracts/Market.sol:Market",
						"label": "pairsInfo",
						"offset": 0,
						"slot": "8",
						"type": "t_mapping(t_bytes32,t_struct(MarketPair)1989_storage)"
					},
					{
						"astId": 165,
						"contract": "contracts/Market.sol:Market",
						"label": "betPairs",
						"offset": 0,
						"slot": "9",
						"type": "t_mapping(t_bytes32,t_array(t_bytes32)dyn_storage)"
					},
					{
						"astId": 171,
						"contract": "contracts/Market.sol:Market",
						"label": "app",
						"offset": 0,
						"slot": "10",
						"type": "t_contract(IWeb3BetsFO)1963"
					}
				],
				"types": {
					"t_address": {
						"encoding": "inplace",
						"label": "address",
						"numberOfBytes": "20"
					},
					"t_array(t_bytes32)dyn_storage": {
						"base": "t_bytes32",
						"encoding": "dynamic_array",
						"label": "bytes32[]",
						"numberOfBytes": "32"
					},
					"t_bool": {
						"encoding": "inplace",
						"label": "bool",
						"numberOfBytes": "1"
					},
					"t_bytes32": {
						"encoding": "inplace",
						"label": "bytes32",
						"numberOfBytes": "32"
					},
					"t_contract(IWeb3BetsFO)1963": {
						"encoding": "inplace",
						"label": "contract IWeb3BetsFO",
						"numberOfBytes": "20"
					},
					"t_mapping(t_address,t_array(t_bytes32)dyn_storage)": {
						"encoding": "mapping",
						"key": "t_address",
						"label": "mapping(address => bytes32[])",
						"numberOfBytes": "32",
						"value": "t_array(t_bytes32)dyn_storage"
					},
					"t_mapping(t_address,t_uint256)": {
						"encoding": "mapping",
						"key": "t_address",
						"label": "mapping(address => uint256)",
						"numberOfBytes": "32",
						"value": "t_uint256"
					},
					"t_mapping(t_bytes32,t_array(t_bytes32)dyn_storage)": {
						"encoding": "mapping",
						"key": "t_bytes32",
						"label": "mapping(bytes32 => bytes32[])",
						"numberOfBytes": "32",
						"value": "t_array(t_bytes32)dyn_storage"
					},
					"t_mapping(t_bytes32,t_struct(MarketBet)1978_storage)": {
						"encoding": "mapping",
						"key": "t_bytes32",
						"label": "mapping(bytes32 => struct Struct.MarketBet)",
						"numberOfBytes": "32",
						"value": "t_struct(MarketBet)1978_storage"
					},
					"t_mapping(t_bytes32,t_struct(MarketPair)1989_storage)": {
						"encoding": "mapping",
						"key": "t_bytes32",
						"label": "mapping(bytes32 => struct Struct.MarketPair)",
						"numberOfBytes": "32",
						"value": "t_struct(MarketPair)1989_storage"
					},
					"t_struct(MarketBet)1978_storage": {
						"encoding": "inplace",
						"label": "struct Struct.MarketBet",
						"members": [
							{
								"astId": 1967,
								"contract": "contracts/Market.sol:Market",
								"label": "better",
								"offset": 0,
								"slot": "0",
								"type": "t_address"
							},
							{
								"astId": 1969,
								"contract": "contracts/Market.sol:Market",
								"label": "affiliate",
								"offset": 0,
								"slot": "1",
								"type": "t_address"
							},
							{
								"astId": 1971,
								"contract": "contracts/Market.sol:Market",
								"label": "stake",
								"offset": 0,
								"slot": "2",
								"type": "t_uint256"
							},
							{
								"astId": 1973,
								"contract": "contracts/Market.sol:Market",
								"label": "matched",
								"offset": 0,
								"slot": "3",
								"type": "t_uint256"
							},
							{
								"astId": 1975,
								"contract": "contracts/Market.sol:Market",
								"label": "odds",
								"offset": 0,
								"slot": "4",
								"type": "t_uint256"
							},
							{
								"astId": 1977,
								"contract": "contracts/Market.sol:Market",
								"label": "side",
								"offset": 0,
								"slot": "5",
								"type": "t_uint256"
							}
						],
						"numberOfBytes": "192"
					},
					"t_struct(MarketPair)1989_storage": {
						"encoding": "inplace",
						"label": "struct Struct.MarketPair",
						"members": [
							{
								"astId": 1980,
								"contract": "contracts/Market.sol:Market",
								"label": "betHashA",
								"offset": 0,
								"slot": "0",
								"type": "t_bytes32"
							},
							{
								"astId": 1982,
								"contract": "contracts/Market.sol:Market",
								"label": "betHashB",
								"offset": 0,
								"slot": "1",
								"type": "t_bytes32"
							},
							{
								"astId": 1984,
								"contract": "contracts/Market.sol:Market",
								"label": "amountA",
								"offset": 0,
								"slot": "2",
								"type": "t_uint256"
							},
							{
								"astId": 1986,
								"contract": "contracts/Market.sol:Market",
								"label": "amountB",
								"offset": 0,
								"slot": "3",
								"type": "t_uint256"
							},
							{
								"astId": 1988,
								"contract": "contracts/Market.sol:Market",
								"label": "settled",
								"offset": 0,
								"slot": "4",
								"type": "t_bool"
							}
						],
						"numberOfBytes": "160"
					},
					"t_uint256": {
						"encoding": "inplace",
						"label": "uint256",
						"numberOfBytes": "32"
					}
				}
			},
			"userdoc": {
				"kind": "user",
				"methods": {},
				"version": 1
			}
		}
	}
}