{
	"contracts/Market.sol": {
		"Market": {
			"abi": [
				{
					"inputs": [],
					"stateMutability": "nonpayable",
					"type": "constructor"
				},
				{
					"anonymous": false,
					"inputs": [
						{
							"indexed": false,
							"internalType": "address",
							"name": "better",
							"type": "address"
						},
						{
							"indexed": false,
							"internalType": "address",
							"name": "marketAddr",
							"type": "address"
						},
						{
							"indexed": false,
							"internalType": "bytes32",
							"name": "hash",
							"type": "bytes32"
						},
						{
							"indexed": false,
							"internalType": "uint256",
							"name": "stake",
							"type": "uint256"
						},
						{
							"indexed": false,
							"internalType": "uint256",
							"name": "odds",
							"type": "uint256"
						},
						{
							"indexed": false,
							"internalType": "uint256",
							"name": "side",
							"type": "uint256"
						}
					],
					"name": "BetCreated",
					"type": "event"
				},
				{
					"anonymous": false,
					"inputs": [
						{
							"indexed": false,
							"internalType": "bytes32",
							"name": "betHashA",
							"type": "bytes32"
						},
						{
							"indexed": false,
							"internalType": "bytes32",
							"name": "betHashB",
							"type": "bytes32"
						},
						{
							"indexed": false,
							"internalType": "uint256",
							"name": "amountA",
							"type": "uint256"
						},
						{
							"indexed": false,
							"internalType": "uint256",
							"name": "amountB",
							"type": "uint256"
						}
					],
					"name": "PairCreated",
					"type": "event"
				},
				{
					"inputs": [
						{
							"internalType": "address",
							"name": "_better",
							"type": "address"
						},
						{
							"internalType": "address",
							"name": "_affiliate",
							"type": "address"
						},
						{
							"internalType": "uint256",
							"name": "_stake",
							"type": "uint256"
						},
						{
							"internalType": "uint256",
							"name": "_odds",
							"type": "uint256"
						},
						{
							"internalType": "uint256",
							"name": "_side",
							"type": "uint256"
						},
						{
							"internalType": "bool",
							"name": "_instant",
							"type": "bool"
						}
					],
					"name": "addBet",
					"outputs": [
						{
							"internalType": "bytes32",
							"name": "",
							"type": "bytes32"
						}
					],
					"stateMutability": "nonpayable",
					"type": "function"
				},
				{
					"inputs": [],
					"name": "cancelMarket",
					"outputs": [
						{
							"internalType": "bool",
							"name": "",
							"type": "bool"
						}
					],
					"stateMutability": "nonpayable",
					"type": "function"
				},
				{
					"inputs": [
						{
							"internalType": "bytes32",
							"name": "_bet",
							"type": "bytes32"
						}
					],
					"name": "cancelPending",
					"outputs": [],
					"stateMutability": "nonpayable",
					"type": "function"
				},
				{
					"inputs": [
						{
							"internalType": "address",
							"name": "_user",
							"type": "address"
						}
					],
					"name": "getBalance",
					"outputs": [
						{
							"internalType": "uint256",
							"name": "",
							"type": "uint256"
						}
					],
					"stateMutability": "view",
					"type": "function"
				},
				{
					"inputs": [
						{
							"internalType": "address",
							"name": "_user",
							"type": "address"
						}
					],
					"name": "getUserBets",
					"outputs": [
						{
							"components": [
								{
									"internalType": "address",
									"name": "better",
									"type": "address"
								},
								{
									"internalType": "address",
									"name": "affiliate",
									"type": "address"
								},
								{
									"internalType": "uint256",
									"name": "stake",
									"type": "uint256"
								},
								{
									"internalType": "uint256",
									"name": "matched",
									"type": "uint256"
								},
								{
									"internalType": "uint256",
									"name": "odds",
									"type": "uint256"
								},
								{
									"internalType": "uint256",
									"name": "side",
									"type": "uint256"
								}
							],
							"internalType": "struct IMarket.MarketBet[]",
							"name": "",
							"type": "tuple[]"
						}
					],
					"stateMutability": "view",
					"type": "function"
				},
				{
					"inputs": [
						{
							"internalType": "uint256",
							"name": "_winningSide",
							"type": "uint256"
						}
					],
					"name": "settle",
					"outputs": [
						{
							"internalType": "bool",
							"name": "",
							"type": "bool"
						}
					],
					"stateMutability": "nonpayable",
					"type": "function"
				},
				{
					"inputs": [
						{
							"internalType": "bytes32",
							"name": "_bet",
							"type": "bytes32"
						}
					],
					"name": "settleBet",
					"outputs": [],
					"stateMutability": "nonpayable",
					"type": "function"
				},
				{
					"inputs": [],
					"name": "status",
					"outputs": [
						{
							"internalType": "uint256",
							"name": "",
							"type": "uint256"
						}
					],
					"stateMutability": "view",
					"type": "function"
				},
				{
					"inputs": [
						{
							"internalType": "address",
							"name": "_addr",
							"type": "address"
						}
					],
					"name": "withdraw",
					"outputs": [
						{
							"internalType": "bool",
							"name": "",
							"type": "bool"
						}
					],
					"stateMutability": "nonpayable",
					"type": "function"
				}
			],
			"devdoc": {
				"kind": "dev",
				"methods": {},
				"version": 1
			},
			"evm": {
				"assembly": "    /* \"contracts/Market.sol\":194:10989  contract Market is IMarket, ReentrancyGuard {... */\n  mstore(0x40, 0xc0)\n    /* \"contracts/Market.sol\":412:413  0 */\n  0x00\n    /* \"contracts/Market.sol\":379:413  uint256 public override status = 0 */\n  0x02\n  sstore\n    /* \"contracts/Market.sol\":1165:1172  factory */\n  and(sub(shl(0xa0, 0x01), 0x01), sload(0x01))\n    /* \"contracts/Market.sol\":1117:1173  IWeb3BetsFO immutable private app = IWeb3BetsFO(factory) */\n  0xa0\n  mstore\n    /* \"contracts/Market.sol\":1614:1720  constructor() {... */\n  callvalue\n  dup1\n  iszero\n  tag_1\n  jumpi\n  0x00\n  dup1\n  revert\ntag_1:\n  pop\n    /* \"@openzeppelin/contracts/security/ReentrancyGuard.sol\":1701:1702  1 */\n  0x01\n    /* \"@openzeppelin/contracts/security/ReentrancyGuard.sol\":1806:1813  _status */\n  0x00\n    /* \"@openzeppelin/contracts/security/ReentrancyGuard.sol\":1806:1828  _status = _NOT_ENTERED */\n  dup2\n  swap1\n  sstore\n    /* \"contracts/Market.sol\":1638:1658  factory = msg.sender */\n  dup1\n  sload\n  not(sub(shl(0xa0, 0x01), 0x01))\n  and\n    /* \"contracts/Market.sol\":1648:1658  msg.sender */\n  caller\n    /* \"contracts/Market.sol\":1638:1658  factory = msg.sender */\n  swap1\n  dup2\n  or\n  swap1\n  swap2\n  sstore\n    /* \"contracts/Market.sol\":1683:1712  IWeb3BetsFO(factory).scAddr() */\n  0x40\n  dup1\n  mload\n  shl(0xe3, 0x966ed9)\n  dup2\n  mstore\n  swap1\n  mload\n    /* \"contracts/Market.sol\":1683:1710  IWeb3BetsFO(factory).scAddr */\n  0x04b376c8\n  swap2\n    /* \"contracts/Market.sol\":1683:1712  IWeb3BetsFO(factory).scAddr() */\n  0x04\n  dup1\n  dup3\n  add\n  swap3\n  0x20\n  swap3\n  swap1\n  swap2\n  swap1\n  dup3\n  swap1\n  sub\n  add\n  dup2\n    /* \"contracts/Market.sol\":1648:1658  msg.sender */\n  dup7\n    /* \"contracts/Market.sol\":1683:1712  IWeb3BetsFO(factory).scAddr() */\n  gas\n  staticcall\n  iszero\n  dup1\n  iszero\n  tag_7\n  jumpi\n  returndatasize\n  0x00\n  dup1\n  returndatacopy\n  revert(0x00, returndatasize)\ntag_7:\n  pop\n  pop\n  pop\n  pop\n  mload(0x40)\n  returndatasize\n  not(0x1f)\n  0x1f\n  dup3\n  add\n  and\n  dup3\n  add\n  dup1\n  0x40\n  mstore\n  pop\n  dup2\n  add\n  swap1\n  tag_8\n  swap2\n  swap1\n  tag_9\n  jump\t// in\ntag_8:\n  sub(shl(0xa0, 0x01), 0x01)\n    /* \"contracts/Market.sol\":1668:1713  token = IERC20(IWeb3BetsFO(factory).scAddr()) */\n  and\n  0x80\n  mstore\n    /* \"contracts/Market.sol\":194:10989  contract Market is IMarket, ReentrancyGuard {... */\n  jump(tag_11)\n    /* \"#utility.yul\":14:304   */\ntag_9:\n    /* \"#utility.yul\":84:90   */\n  0x00\n    /* \"#utility.yul\":137:139   */\n  0x20\n    /* \"#utility.yul\":125:134   */\n  dup3\n    /* \"#utility.yul\":116:123   */\n  dup5\n    /* \"#utility.yul\":112:135   */\n  sub\n    /* \"#utility.yul\":108:140   */\n  slt\n    /* \"#utility.yul\":105:157   */\n  iszero\n  tag_13\n  jumpi\n    /* \"#utility.yul\":153:154   */\n  0x00\n    /* \"#utility.yul\":150:151   */\n  dup1\n    /* \"#utility.yul\":143:155   */\n  revert\n    /* \"#utility.yul\":105:157   */\ntag_13:\n    /* \"#utility.yul\":179:195   */\n  dup2\n  mload\n  sub(shl(0xa0, 0x01), 0x01)\n    /* \"#utility.yul\":224:255   */\n  dup2\n  and\n    /* \"#utility.yul\":214:256   */\n  dup2\n  eq\n    /* \"#utility.yul\":204:274   */\n  tag_14\n  jumpi\n    /* \"#utility.yul\":270:271   */\n  0x00\n    /* \"#utility.yul\":267:268   */\n  dup1\n    /* \"#utility.yul\":260:272   */\n  revert\n    /* \"#utility.yul\":204:274   */\ntag_14:\n    /* \"#utility.yul\":293:298   */\n  swap4\n    /* \"#utility.yul\":14:304   */\n  swap3\n  pop\n  pop\n  pop\n  jump\t// out\ntag_11:\n    /* \"contracts/Market.sol\":194:10989  contract Market is IMarket, ReentrancyGuard {... */\n  mload(0x80)\n  mload(0xa0)\n  codecopy(0x00, dataOffset(sub_0), dataSize(sub_0))\n  0x00\n  assignImmutable(\"0xa4f21281edf90d86f21da3432ee4f5dff8abfbde6aab55afd7f9f7d4d3676c77\")\n  0x00\n  assignImmutable(\"0xb82efe928ba8047fc73c44199ae87270ba92aad773ed77645c6bc82e384fdb71\")\n  return(0x00, dataSize(sub_0))\nstop\n\nsub_0: assembly {\n        /* \"contracts/Market.sol\":194:10989  contract Market is IMarket, ReentrancyGuard {... */\n      mstore(0x40, 0x80)\n      callvalue\n      dup1\n      iszero\n      tag_1\n      jumpi\n      0x00\n      dup1\n      revert\n    tag_1:\n      pop\n      jumpi(tag_2, lt(calldatasize, 0x04))\n      shr(0xe0, calldataload(0x00))\n      dup1\n      0x6bfefd6b\n      gt\n      tag_12\n      jumpi\n      dup1\n      0x6bfefd6b\n      eq\n      tag_7\n      jumpi\n      dup1\n      0x78d65b2f\n      eq\n      tag_8\n      jumpi\n      dup1\n      0x893372ca\n      eq\n      tag_9\n      jumpi\n      dup1\n      0x8df82800\n      eq\n      tag_10\n      jumpi\n      dup1\n      0xf8b2cb4f\n      eq\n      tag_11\n      jumpi\n      0x00\n      dup1\n      revert\n    tag_12:\n      dup1\n      0x200d2ed2\n      eq\n      tag_3\n      jumpi\n      dup1\n      0x2d56657d\n      eq\n      tag_4\n      jumpi\n      dup1\n      0x51cff8d9\n      eq\n      tag_5\n      jumpi\n      dup1\n      0x675f6537\n      eq\n      tag_6\n      jumpi\n    tag_2:\n      0x00\n      dup1\n      revert\n        /* \"contracts/Market.sol\":379:413  uint256 public override status = 0 */\n    tag_3:\n      tag_13\n      sload(0x02)\n      dup2\n      jump\n    tag_13:\n      mload(0x40)\n        /* \"#utility.yul\":160:185   */\n      swap1\n      dup2\n      mstore\n        /* \"#utility.yul\":148:150   */\n      0x20\n        /* \"#utility.yul\":133:151   */\n      add\n        /* \"contracts/Market.sol\":379:413  uint256 public override status = 0 */\n    tag_15:\n      mload(0x40)\n      dup1\n      swap2\n      sub\n      swap1\n      return\n        /* \"contracts/Market.sol\":1841:2153  function getUserBets(address _user) external view override returns(MarketBet[] memory) {... */\n    tag_4:\n      tag_17\n      tag_18\n      calldatasize\n      0x04\n      tag_19\n      jump\t// in\n    tag_18:\n      tag_20\n      jump\t// in\n    tag_17:\n      mload(0x40)\n      tag_15\n      swap2\n      swap1\n      tag_22\n      jump\t// in\n        /* \"contracts/Market.sol\":2159:2530  function withdraw(address _addr) public override nonReentrant returns(bool) {... */\n    tag_5:\n      tag_23\n      tag_24\n      calldatasize\n      0x04\n      tag_19\n      jump\t// in\n    tag_24:\n      tag_25\n      jump\t// in\n    tag_23:\n      mload(0x40)\n        /* \"#utility.yul\":1901:1915   */\n      swap1\n      iszero\n        /* \"#utility.yul\":1894:1916   */\n      iszero\n        /* \"#utility.yul\":1876:1917   */\n      dup2\n      mstore\n        /* \"#utility.yul\":1864:1866   */\n      0x20\n        /* \"#utility.yul\":1849:1867   */\n      add\n        /* \"contracts/Market.sol\":2159:2530  function withdraw(address _addr) public override nonReentrant returns(bool) {... */\n      tag_15\n        /* \"#utility.yul\":1736:1923   */\n      jump\n        /* \"contracts/Market.sol\":3050:3330  function settleBet(bytes32 _bet) external override {... */\n    tag_6:\n      tag_28\n      tag_29\n      calldatasize\n      0x04\n      tag_30\n      jump\t// in\n    tag_29:\n      tag_31\n      jump\t// in\n    tag_28:\n      stop\n        /* \"contracts/Market.sol\":3697:3957  function cancelMarket() external override onlyFactory returns(bool) ... */\n    tag_7:\n      tag_23\n      tag_33\n      jump\t// in\n        /* \"contracts/Market.sol\":3963:7812  function addBet(... */\n    tag_8:\n      tag_13\n      tag_36\n      calldatasize\n      0x04\n      tag_37\n      jump\t// in\n    tag_36:\n      tag_38\n      jump\t// in\n        /* \"contracts/Market.sol\":2538:3044  function cancelPending(bytes32 _bet) external override nonReentrant {... */\n    tag_9:\n      tag_28\n      tag_42\n      calldatasize\n      0x04\n      tag_30\n      jump\t// in\n    tag_42:\n      tag_43\n      jump\t// in\n        /* \"contracts/Market.sol\":3336:3691  function settle(uint256 _winningSide)... */\n    tag_10:\n      tag_23\n      tag_45\n      calldatasize\n      0x04\n      tag_30\n      jump\t// in\n    tag_45:\n      tag_47\n      jump\t// in\n        /* \"contracts/Market.sol\":1726:1835  function getBalance(address _user) external view override returns(uint256) {... */\n    tag_11:\n      tag_13\n      tag_50\n      calldatasize\n      0x04\n      tag_19\n      jump\t// in\n    tag_50:\n      sub(shl(0xa0, 0x01), 0x01)\n        /* \"contracts/Market.sol\":1818:1828  bal[_user] */\n      and\n        /* \"contracts/Market.sol\":1792:1799  uint256 */\n      0x00\n        /* \"contracts/Market.sol\":1818:1828  bal[_user] */\n      swap1\n      dup2\n      mstore\n        /* \"contracts/Market.sol\":1818:1821  bal */\n      0x06\n        /* \"contracts/Market.sol\":1818:1828  bal[_user] */\n      0x20\n      mstore\n      0x40\n      swap1\n      keccak256\n      sload\n      swap1\n        /* \"contracts/Market.sol\":1726:1835  function getBalance(address _user) external view override returns(uint256) {... */\n      jump\n        /* \"contracts/Market.sol\":1841:2153  function getUserBets(address _user) external view override returns(MarketBet[] memory) {... */\n    tag_20:\n      sub(shl(0xa0, 0x01), 0x01)\n        /* \"contracts/Market.sol\":2001:2016  userBets[_user] */\n      dup2\n      and\n        /* \"contracts/Market.sol\":1976:1998  bytes32[] memory _bets */\n      0x00\n        /* \"contracts/Market.sol\":2001:2016  userBets[_user] */\n      swap1\n      dup2\n      mstore\n        /* \"contracts/Market.sol\":2001:2009  userBets */\n      0x08\n        /* \"contracts/Market.sol\":2001:2016  userBets[_user] */\n      0x20\n      swap1\n      dup2\n      mstore\n      0x40\n      dup1\n      dup4\n      keccak256\n        /* \"contracts/Market.sol\":1976:2016  bytes32[] memory _bets = userBets[_user] */\n      dup1\n      sload\n      dup3\n      mload\n      dup2\n      dup6\n      mul\n      dup2\n      add\n      dup6\n      add\n      swap1\n      swap4\n      mstore\n      dup1\n      dup4\n      mstore\n        /* \"contracts/Market.sol\":1908:1926  MarketBet[] memory */\n      0x60\n      swap5\n      dup6\n      swap5\n        /* \"contracts/Market.sol\":1976:1998  bytes32[] memory _bets */\n      swap1\n      swap4\n        /* \"contracts/Market.sol\":1976:2016  bytes32[] memory _bets = userBets[_user] */\n      swap3\n        /* \"contracts/Market.sol\":2001:2016  userBets[_user] */\n      swap2\n        /* \"contracts/Market.sol\":1976:2016  bytes32[] memory _bets = userBets[_user] */\n      swap1\n      dup4\n      add\n        /* \"contracts/Market.sol\":2001:2016  userBets[_user] */\n      dup3\n        /* \"contracts/Market.sol\":1976:2016  bytes32[] memory _bets = userBets[_user] */\n      dup3\n      dup1\n      iszero\n      tag_54\n      jumpi\n      0x20\n      mul\n      dup3\n      add\n      swap2\n      swap1\n      0x00\n      mstore\n      keccak256(0x00, 0x20)\n      swap1\n    tag_55:\n      dup2\n      sload\n      dup2\n      mstore\n      0x20\n      add\n      swap1\n      0x01\n      add\n      swap1\n      dup1\n      dup4\n      gt\n      tag_55\n      jumpi\n    tag_54:\n      pop\n      pop\n      pop\n      pop\n      pop\n      swap1\n      pop\n        /* \"contracts/Market.sol\":2030:2036  uint i */\n      0x00\n        /* \"contracts/Market.sol\":2026:2121  for(uint i = 0; i < bets.length; i++){... */\n    tag_56:\n        /* \"contracts/Market.sol\":2046:2050  bets */\n      0x04\n        /* \"contracts/Market.sol\":2046:2057  bets.length */\n      sload\n        /* \"contracts/Market.sol\":2042:2057  i < bets.length */\n      dup2\n      lt\n        /* \"contracts/Market.sol\":2026:2121  for(uint i = 0; i < bets.length; i++){... */\n      iszero\n      tag_57\n      jumpi\n        /* \"contracts/Market.sol\":2092:2100  betsInfo */\n      0x07\n        /* \"contracts/Market.sol\":2092:2110  betsInfo[_bets[i]] */\n      0x00\n        /* \"contracts/Market.sol\":2101:2106  _bets */\n      dup4\n        /* \"contracts/Market.sol\":2107:2108  i */\n      dup4\n        /* \"contracts/Market.sol\":2101:2109  _bets[i] */\n      dup2\n      mload\n      dup2\n      lt\n      tag_60\n      jumpi\n      tag_60\n      tag_61\n      jump\t// in\n    tag_60:\n      0x20\n      swap1\n      dup2\n      mul\n      swap2\n      swap1\n      swap2\n      add\n      dup2\n      add\n      mload\n        /* \"contracts/Market.sol\":2092:2110  betsInfo[_bets[i]] */\n      dup3\n      mstore\n      dup2\n      dup2\n      add\n      swap3\n      swap1\n      swap3\n      mstore\n      0x40\n      swap1\n      dup2\n      add\n      0x00\n      keccak256\n        /* \"contracts/Market.sol\":2077:2110  _userBets[i] = betsInfo[_bets[i]] */\n      dup2\n      mload\n      0xc0\n      dup2\n      add\n      dup4\n      mstore\n      dup2\n      sload\n      sub(shl(0xa0, 0x01), 0x01)\n      swap1\n      dup2\n      and\n      dup3\n      mstore\n      0x01\n      dup4\n      add\n      sload\n      and\n      swap4\n      dup2\n      add\n      swap4\n      swap1\n      swap4\n      mstore\n      0x02\n      dup2\n      add\n      sload\n      swap2\n      dup4\n      add\n      swap2\n      swap1\n      swap2\n      mstore\n      0x03\n      dup2\n      add\n      sload\n      0x60\n      dup4\n      add\n      mstore\n      0x04\n      dup2\n      add\n      sload\n      0x80\n      dup4\n      add\n      mstore\n      0x05\n      add\n      sload\n      0xa0\n      dup3\n      add\n      mstore\n        /* \"contracts/Market.sol\":2077:2089  _userBets[i] */\n      dup4\n      mload\n        /* \"contracts/Market.sol\":2077:2086  _userBets */\n      dup5\n      swap1\n        /* \"contracts/Market.sol\":2087:2088  i */\n      dup4\n      swap1\n        /* \"contracts/Market.sol\":2077:2089  _userBets[i] */\n      dup2\n      lt\n      tag_63\n      jumpi\n      tag_63\n      tag_61\n      jump\t// in\n    tag_63:\n      0x20\n      mul\n      0x20\n      add\n      add\n        /* \"contracts/Market.sol\":2077:2110  _userBets[i] = betsInfo[_bets[i]] */\n      dup2\n      swap1\n      mstore\n      pop\n        /* \"contracts/Market.sol\":2059:2062  i++ */\n      dup1\n      dup1\n      tag_64\n      swap1\n      tag_65\n      jump\t// in\n    tag_64:\n      swap2\n      pop\n      pop\n        /* \"contracts/Market.sol\":2026:2121  for(uint i = 0; i < bets.length; i++){... */\n      jump(tag_56)\n    tag_57:\n      pop\n        /* \"contracts/Market.sol\":2137:2146  _userBets */\n      swap1\n      swap4\n        /* \"contracts/Market.sol\":1841:2153  function getUserBets(address _user) external view override returns(MarketBet[] memory) {... */\n      swap3\n      pop\n      pop\n      pop\n      jump\t// out\n        /* \"contracts/Market.sol\":2159:2530  function withdraw(address _addr) public override nonReentrant returns(bool) {... */\n    tag_25:\n        /* \"contracts/Market.sol\":2229:2233  bool */\n      0x00\n        /* \"@openzeppelin/contracts/security/ReentrancyGuard.sol\":1744:1745  2 */\n      0x02\n        /* \"@openzeppelin/contracts/security/ReentrancyGuard.sol\":2325:2332  _status */\n      sload(0x00)\n        /* \"@openzeppelin/contracts/security/ReentrancyGuard.sol\":2325:2344  _status != _ENTERED */\n      sub\n        /* \"@openzeppelin/contracts/security/ReentrancyGuard.sol\":2317:2380  require(_status != _ENTERED, \"ReentrancyGuard: reentrant call\") */\n      tag_67\n      jumpi\n      mload(0x40)\n      shl(0xe5, 0x461bcd)\n      dup2\n      mstore\n      0x04\n      add\n      tag_68\n      swap1\n      tag_69\n      jump\t// in\n    tag_68:\n      mload(0x40)\n      dup1\n      swap2\n      sub\n      swap1\n      revert\n    tag_67:\n        /* \"@openzeppelin/contracts/security/ReentrancyGuard.sol\":1744:1745  2 */\n      0x02\n        /* \"@openzeppelin/contracts/security/ReentrancyGuard.sol\":2455:2462  _status */\n      0x00\n        /* \"@openzeppelin/contracts/security/ReentrancyGuard.sol\":2455:2473  _status = _ENTERED */\n      swap1\n      dup2\n      sstore\n      sub(shl(0xa0, 0x01), 0x01)\n        /* \"contracts/Market.sol\":2267:2277  bal[_addr] */\n      dup4\n      dup2\n      and\n      dup3\n      mstore\n        /* \"contracts/Market.sol\":2267:2270  bal */\n      0x06\n        /* \"contracts/Market.sol\":2267:2277  bal[_addr] */\n      0x20\n      mstore\n      0x40\n      swap2\n      dup3\n      swap1\n      keccak256\n      sload\n        /* \"contracts/Market.sol\":2295:2325  token.balanceOf(address(this)) */\n      swap2\n      mload\n      shl(0xe0, 0x70a08231)\n      dup2\n      mstore\n        /* \"contracts/Market.sol\":2319:2323  this */\n      address\n        /* \"contracts/Market.sol\":2295:2325  token.balanceOf(address(this)) */\n      0x04\n      dup3\n      add\n        /* \"#utility.yul\":4248:4299   */\n      mstore\n        /* \"contracts/Market.sol\":2267:2277  bal[_addr] */\n      dup3\n      swap2\n        /* \"contracts/Market.sol\":2295:2300  token */\n      immutable(\"0xb82efe928ba8047fc73c44199ae87270ba92aad773ed77645c6bc82e384fdb71\")\n        /* \"contracts/Market.sol\":2295:2310  token.balanceOf */\n      and\n      swap1\n      0x70a08231\n      swap1\n        /* \"#utility.yul\":4221:4239   */\n      0x24\n      add\n        /* \"contracts/Market.sol\":2295:2325  token.balanceOf(address(this)) */\n      0x20\n      mload(0x40)\n      dup1\n      dup4\n      sub\n      dup2\n      dup7\n      gas\n      staticcall\n      iszero\n      dup1\n      iszero\n      tag_74\n      jumpi\n      returndatasize\n      0x00\n      dup1\n      returndatacopy\n      revert(0x00, returndatasize)\n    tag_74:\n      pop\n      pop\n      pop\n      pop\n      mload(0x40)\n      returndatasize\n      not(0x1f)\n      0x1f\n      dup3\n      add\n      and\n      dup3\n      add\n      dup1\n      0x40\n      mstore\n      pop\n      dup2\n      add\n      swap1\n      tag_75\n      swap2\n      swap1\n      tag_76\n      jump\t// in\n    tag_75:\n        /* \"contracts/Market.sol\":2295:2339  token.balanceOf(address(this)) > availAmount */\n      gt\n        /* \"contracts/Market.sol\":2295:2358  token.balanceOf(address(this)) > availAmount && availAmount > 0 */\n      dup1\n      iszero\n      tag_77\n      jumpi\n      pop\n        /* \"contracts/Market.sol\":2357:2358  0 */\n      0x00\n        /* \"contracts/Market.sol\":2343:2354  availAmount */\n      dup2\n        /* \"contracts/Market.sol\":2343:2358  availAmount > 0 */\n      gt\n        /* \"contracts/Market.sol\":2295:2358  token.balanceOf(address(this)) > availAmount && availAmount > 0 */\n    tag_77:\n        /* \"contracts/Market.sol\":2287:2369  require(token.balanceOf(address(this)) > availAmount && availAmount > 0, \"< fund\") */\n      tag_78\n      jumpi\n      mload(0x40)\n      shl(0xe5, 0x461bcd)\n      dup2\n      mstore\n        /* \"#utility.yul\":4701:4703   */\n      0x20\n        /* \"contracts/Market.sol\":2287:2369  require(token.balanceOf(address(this)) > availAmount && availAmount > 0, \"< fund\") */\n      0x04\n      dup3\n      add\n        /* \"#utility.yul\":4683:4704   */\n      mstore\n        /* \"#utility.yul\":4740:4741   */\n      0x06\n        /* \"#utility.yul\":4720:4738   */\n      0x24\n      dup3\n      add\n        /* \"#utility.yul\":4713:4742   */\n      mstore\n      shl(0xd2, 0x0f08199d5b99)\n        /* \"#utility.yul\":4758:4776   */\n      0x44\n      dup3\n      add\n        /* \"#utility.yul\":4751:4787   */\n      mstore\n        /* \"#utility.yul\":4804:4822   */\n      0x64\n      add\n        /* \"contracts/Market.sol\":2287:2369  require(token.balanceOf(address(this)) > availAmount && availAmount > 0, \"< fund\") */\n      tag_68\n        /* \"#utility.yul\":4499:4828   */\n      jump\n        /* \"contracts/Market.sol\":2287:2369  require(token.balanceOf(address(this)) > availAmount && availAmount > 0, \"< fund\") */\n    tag_78:\n        /* \"contracts/Market.sol\":2394:2428  token.transfer(_addr, availAmount) */\n      mload(0x40)\n      shl(0xe0, 0xa9059cbb)\n      dup2\n      mstore\n      sub(shl(0xa0, 0x01), 0x01)\n        /* \"#utility.yul\":5025:5057   */\n      dup5\n      dup2\n      and\n        /* \"contracts/Market.sol\":2394:2428  token.transfer(_addr, availAmount) */\n      0x04\n      dup4\n      add\n        /* \"#utility.yul\":5007:5058   */\n      mstore\n        /* \"#utility.yul\":5074:5092   */\n      0x24\n      dup3\n      add\n        /* \"#utility.yul\":5067:5101   */\n      dup4\n      swap1\n      mstore\n        /* \"contracts/Market.sol\":2379:2391  bool success */\n      0x00\n      swap2\n        /* \"contracts/Market.sol\":2394:2399  token */\n      immutable(\"0xb82efe928ba8047fc73c44199ae87270ba92aad773ed77645c6bc82e384fdb71\")\n        /* \"contracts/Market.sol\":2394:2408  token.transfer */\n      swap1\n      swap2\n      and\n      swap1\n      0xa9059cbb\n      swap1\n        /* \"#utility.yul\":4980:4998   */\n      0x44\n      add\n        /* \"contracts/Market.sol\":2394:2428  token.transfer(_addr, availAmount) */\n      0x20\n      mload(0x40)\n      dup1\n      dup4\n      sub\n      dup2\n      0x00\n      dup8\n      gas\n      call\n      iszero\n      dup1\n      iszero\n      tag_84\n      jumpi\n      returndatasize\n      0x00\n      dup1\n      returndatacopy\n      revert(0x00, returndatasize)\n    tag_84:\n      pop\n      pop\n      pop\n      pop\n      mload(0x40)\n      returndatasize\n      not(0x1f)\n      0x1f\n      dup3\n      add\n      and\n      dup3\n      add\n      dup1\n      0x40\n      mstore\n      pop\n      dup2\n      add\n      swap1\n      tag_85\n      swap2\n      swap1\n      tag_86\n      jump\t// in\n    tag_85:\n        /* \"contracts/Market.sol\":2379:2428  bool success = token.transfer(_addr, availAmount) */\n      swap1\n      pop\n        /* \"contracts/Market.sol\":2446:2453  success */\n      dup1\n        /* \"contracts/Market.sol\":2438:2467  require(success, \"Tx Failed\") */\n      tag_87\n      jumpi\n      mload(0x40)\n      shl(0xe5, 0x461bcd)\n      dup2\n      mstore\n        /* \"#utility.yul\":5564:5566   */\n      0x20\n        /* \"contracts/Market.sol\":2438:2467  require(success, \"Tx Failed\") */\n      0x04\n      dup3\n      add\n        /* \"#utility.yul\":5546:5567   */\n      mstore\n        /* \"#utility.yul\":5603:5604   */\n      0x09\n        /* \"#utility.yul\":5583:5601   */\n      0x24\n      dup3\n      add\n        /* \"#utility.yul\":5576:5605   */\n      mstore\n      shl(0xba, 0x151e0811985a5b1959)\n        /* \"#utility.yul\":5621:5639   */\n      0x44\n      dup3\n      add\n        /* \"#utility.yul\":5614:5653   */\n      mstore\n        /* \"#utility.yul\":5670:5688   */\n      0x64\n      add\n        /* \"contracts/Market.sol\":2438:2467  require(success, \"Tx Failed\") */\n      tag_68\n        /* \"#utility.yul\":5362:5694   */\n      jump\n        /* \"contracts/Market.sol\":2438:2467  require(success, \"Tx Failed\") */\n    tag_87:\n      sub(shl(0xa0, 0x01), 0x01)\n        /* \"contracts/Market.sol\":2477:2487  bal[_addr] */\n      dup5\n      and\n      0x00\n      swap1\n      dup2\n      mstore\n        /* \"contracts/Market.sol\":2477:2480  bal */\n      0x06\n        /* \"contracts/Market.sol\":2477:2487  bal[_addr] */\n      0x20\n      mstore\n      0x40\n      dup2\n      keccak256\n        /* \"contracts/Market.sol\":2477:2502  bal[_addr] -= availAmount */\n      dup1\n      sload\n        /* \"contracts/Market.sol\":2491:2502  availAmount */\n      dup5\n      swap3\n        /* \"contracts/Market.sol\":2477:2487  bal[_addr] */\n      swap1\n        /* \"contracts/Market.sol\":2477:2502  bal[_addr] -= availAmount */\n      tag_90\n      swap1\n        /* \"contracts/Market.sol\":2491:2502  availAmount */\n      dup5\n      swap1\n        /* \"contracts/Market.sol\":2477:2502  bal[_addr] -= availAmount */\n      tag_91\n      jump\t// in\n    tag_90:\n      swap1\n      swap2\n      sstore\n      pop\n        /* \"contracts/Market.sol\":2519:2523  true */\n      0x01\n      swap4\n      pop\n      pop\n      pop\n      pop\n        /* \"@openzeppelin/contracts/security/ReentrancyGuard.sol\":1701:1702  1 */\n      0x01\n        /* \"@openzeppelin/contracts/security/ReentrancyGuard.sol\":2628:2635  _status */\n      0x00\n        /* \"@openzeppelin/contracts/security/ReentrancyGuard.sol\":2628:2650  _status = _NOT_ENTERED */\n      sstore\n        /* \"contracts/Market.sol\":2159:2530  function withdraw(address _addr) public override nonReentrant returns(bool) {... */\n      swap2\n      swap1\n      pop\n      jump\t// out\n        /* \"contracts/Market.sol\":3050:3330  function settleBet(bytes32 _bet) external override {... */\n    tag_31:\n        /* \"contracts/Market.sol\":3111:3134  bytes32[] memory _pairs */\n      0x00\n        /* \"contracts/Market.sol\":3137:3151  betPairs[_bet] */\n      dup2\n      dup2\n      mstore\n        /* \"contracts/Market.sol\":3137:3145  betPairs */\n      0x0a\n        /* \"contracts/Market.sol\":3137:3151  betPairs[_bet] */\n      0x20\n      swap1\n      dup2\n      mstore\n      0x40\n      dup1\n      dup4\n      keccak256\n        /* \"contracts/Market.sol\":3111:3151  bytes32[] memory _pairs = betPairs[_bet] */\n      dup1\n      sload\n      dup3\n      mload\n      dup2\n      dup6\n      mul\n      dup2\n      add\n      dup6\n      add\n      swap1\n      swap4\n      mstore\n      dup1\n      dup4\n      mstore\n      swap2\n      swap3\n        /* \"contracts/Market.sol\":3137:3151  betPairs[_bet] */\n      swap1\n      swap2\n        /* \"contracts/Market.sol\":3111:3151  bytes32[] memory _pairs = betPairs[_bet] */\n      swap1\n      dup4\n      add\n        /* \"contracts/Market.sol\":3137:3151  betPairs[_bet] */\n      dup3\n        /* \"contracts/Market.sol\":3111:3151  bytes32[] memory _pairs = betPairs[_bet] */\n      dup3\n      dup1\n      iszero\n      tag_93\n      jumpi\n      0x20\n      mul\n      dup3\n      add\n      swap2\n      swap1\n      0x00\n      mstore\n      keccak256(0x00, 0x20)\n      swap1\n    tag_94:\n      dup2\n      sload\n      dup2\n      mstore\n      0x20\n      add\n      swap1\n      0x01\n      add\n      swap1\n      dup1\n      dup4\n      gt\n      tag_94\n      jumpi\n    tag_93:\n      pop\n      pop\n      pop\n      pop\n      pop\n      swap1\n      pop\n        /* \"contracts/Market.sol\":3165:3171  uint i */\n      0x00\n        /* \"contracts/Market.sol\":3161:3247  for(uint i = 0; i < _pairs.length; i++){... */\n    tag_95:\n        /* \"contracts/Market.sol\":3181:3187  _pairs */\n      dup2\n        /* \"contracts/Market.sol\":3181:3194  _pairs.length */\n      mload\n        /* \"contracts/Market.sol\":3177:3178  i */\n      dup2\n        /* \"contracts/Market.sol\":3177:3194  i < _pairs.length */\n      lt\n        /* \"contracts/Market.sol\":3161:3247  for(uint i = 0; i < _pairs.length; i++){... */\n      iszero\n      tag_96\n      jumpi\n        /* \"contracts/Market.sol\":3214:3236  _settlePair(_pairs[i]) */\n      tag_98\n        /* \"contracts/Market.sol\":3226:3232  _pairs */\n      dup3\n        /* \"contracts/Market.sol\":3233:3234  i */\n      dup3\n        /* \"contracts/Market.sol\":3226:3235  _pairs[i] */\n      dup2\n      mload\n      dup2\n      lt\n      tag_100\n      jumpi\n      tag_100\n      tag_61\n      jump\t// in\n    tag_100:\n      0x20\n      mul\n      0x20\n      add\n      add\n      mload\n        /* \"contracts/Market.sol\":3214:3225  _settlePair */\n      tag_101\n        /* \"contracts/Market.sol\":3214:3236  _settlePair(_pairs[i]) */\n      jump\t// in\n    tag_98:\n        /* \"contracts/Market.sol\":3196:3199  i++ */\n      dup1\n      tag_102\n      dup2\n      tag_65\n      jump\t// in\n    tag_102:\n      swap2\n      pop\n      pop\n        /* \"contracts/Market.sol\":3161:3247  for(uint i = 0; i < _pairs.length; i++){... */\n      jump(tag_95)\n    tag_96:\n      pop\n        /* \"contracts/Market.sol\":3263:3273  msg.sender */\n      caller\n        /* \"contracts/Market.sol\":3277:3278  0 */\n      0x00\n        /* \"contracts/Market.sol\":3259:3274  bal[msg.sender] */\n      swap1\n      dup2\n      mstore\n        /* \"contracts/Market.sol\":3259:3262  bal */\n      0x06\n        /* \"contracts/Market.sol\":3259:3274  bal[msg.sender] */\n      0x20\n      mstore\n      0x40\n      swap1\n      keccak256\n      sload\n        /* \"contracts/Market.sol\":3259:3278  bal[msg.sender] > 0 */\n      iszero\n        /* \"contracts/Market.sol\":3256:3324  if(bal[msg.sender] > 0){... */\n      tag_103\n      jumpi\n        /* \"contracts/Market.sol\":3293:3313  withdraw(msg.sender) */\n      tag_104\n        /* \"contracts/Market.sol\":3302:3312  msg.sender */\n      caller\n        /* \"contracts/Market.sol\":3293:3301  withdraw */\n      tag_25\n        /* \"contracts/Market.sol\":3293:3313  withdraw(msg.sender) */\n      jump\t// in\n    tag_104:\n      pop\n        /* \"contracts/Market.sol\":3256:3324  if(bal[msg.sender] > 0){... */\n    tag_103:\n        /* \"contracts/Market.sol\":3101:3330  {... */\n      pop\n        /* \"contracts/Market.sol\":3050:3330  function settleBet(bytes32 _bet) external override {... */\n      pop\n      jump\t// out\n        /* \"contracts/Market.sol\":3697:3957  function cancelMarket() external override onlyFactory returns(bool) ... */\n    tag_33:\n        /* \"contracts/Market.sol\":1248:1255  factory */\n      sload(0x01)\n        /* \"contracts/Market.sol\":3759:3763  bool */\n      0x00\n      swap1\n      sub(shl(0xa0, 0x01), 0x01)\n        /* \"contracts/Market.sol\":1248:1255  factory */\n      and\n        /* \"contracts/Market.sol\":1234:1244  msg.sender */\n      caller\n        /* \"contracts/Market.sol\":1234:1255  msg.sender == factory */\n      eq\n        /* \"contracts/Market.sol\":1213:1288  require(... */\n      tag_106\n      jumpi\n      mload(0x40)\n      shl(0xe5, 0x461bcd)\n      dup2\n      mstore\n        /* \"#utility.yul\":6034:6036   */\n      0x20\n        /* \"contracts/Market.sol\":1213:1288  require(... */\n      0x04\n      dup3\n      add\n        /* \"#utility.yul\":6016:6037   */\n      mstore\n        /* \"#utility.yul\":6073:6074   */\n      0x07\n        /* \"#utility.yul\":6053:6071   */\n      0x24\n      dup3\n      add\n        /* \"#utility.yul\":6046:6075   */\n      mstore\n      shl(0xc8, 0x6f776e6572206f)\n        /* \"#utility.yul\":6091:6109   */\n      0x44\n      dup3\n      add\n        /* \"#utility.yul\":6084:6121   */\n      mstore\n        /* \"#utility.yul\":6138:6156   */\n      0x64\n      add\n        /* \"contracts/Market.sol\":1213:1288  require(... */\n      tag_68\n        /* \"#utility.yul\":5832:6162   */\n      jump\n        /* \"contracts/Market.sol\":1213:1288  require(... */\n    tag_106:\n        /* \"contracts/Market.sol\":3789:3795  status */\n      sload(0x02)\n        /* \"contracts/Market.sol\":3789:3800  status == 0 */\n      iszero\n      dup1\n        /* \"contracts/Market.sol\":3789:3815  status == 0 || status == 4 */\n      tag_110\n      jumpi\n      pop\n        /* \"contracts/Market.sol\":3804:3810  status */\n      sload(0x02)\n        /* \"contracts/Market.sol\":3814:3815  4 */\n      0x04\n        /* \"contracts/Market.sol\":3804:3815  status == 4 */\n      eq\n        /* \"contracts/Market.sol\":3789:3815  status == 0 || status == 4 */\n    tag_110:\n        /* \"contracts/Market.sol\":3781:3816  require(status == 0 || status == 4) */\n      tag_111\n      jumpi\n      0x00\n      dup1\n      revert\n    tag_111:\n        /* \"contracts/Market.sol\":3830:3836  uint i */\n      0x00\n        /* \"contracts/Market.sol\":3826:3910  for(uint i = 0; i < pairs.length; i++){... */\n    tag_112:\n        /* \"contracts/Market.sol\":3846:3851  pairs */\n      0x03\n        /* \"contracts/Market.sol\":3846:3858  pairs.length */\n      sload\n        /* \"contracts/Market.sol\":3842:3858  i < pairs.length */\n      dup2\n      lt\n        /* \"contracts/Market.sol\":3826:3910  for(uint i = 0; i < pairs.length; i++){... */\n      iszero\n      tag_113\n      jumpi\n        /* \"contracts/Market.sol\":3878:3899  _cancelPair(pairs[i]) */\n      tag_115\n        /* \"contracts/Market.sol\":3890:3895  pairs */\n      0x03\n        /* \"contracts/Market.sol\":3896:3897  i */\n      dup3\n        /* \"contracts/Market.sol\":3890:3898  pairs[i] */\n      dup2\n      sload\n      dup2\n      lt\n      tag_117\n      jumpi\n      tag_117\n      tag_61\n      jump\t// in\n    tag_117:\n      swap1\n      0x00\n      mstore\n      keccak256(0x00, 0x20)\n      add\n      sload\n        /* \"contracts/Market.sol\":3878:3889  _cancelPair */\n      tag_119\n        /* \"contracts/Market.sol\":3878:3899  _cancelPair(pairs[i]) */\n      jump\t// in\n    tag_115:\n        /* \"contracts/Market.sol\":3860:3863  i++ */\n      dup1\n      tag_120\n      dup2\n      tag_65\n      jump\t// in\n    tag_120:\n      swap2\n      pop\n      pop\n        /* \"contracts/Market.sol\":3826:3910  for(uint i = 0; i < pairs.length; i++){... */\n      jump(tag_112)\n    tag_113:\n      pop\n      pop\n        /* \"contracts/Market.sol\":3928:3929  3 */\n      0x03\n        /* \"contracts/Market.sol\":3919:3925  status */\n      0x02\n        /* \"contracts/Market.sol\":3919:3929  status = 3 */\n      sstore\n        /* \"contracts/Market.sol\":3946:3950  true */\n      0x01\n        /* \"contracts/Market.sol\":3697:3957  function cancelMarket() external override onlyFactory returns(bool) ... */\n      swap1\n      jump\t// out\n        /* \"contracts/Market.sol\":3963:7812  function addBet(... */\n    tag_38:\n        /* \"contracts/Market.sol\":4189:4212  app.isBlack(msg.sender) */\n      mload(0x40)\n      shl(0xe0, 0x332daccf)\n      dup2\n      mstore\n        /* \"contracts/Market.sol\":4201:4211  msg.sender */\n      caller\n        /* \"contracts/Market.sol\":4189:4212  app.isBlack(msg.sender) */\n      0x04\n      dup3\n      add\n        /* \"#utility.yul\":4248:4299   */\n      mstore\n        /* \"contracts/Market.sol\":4157:4164  bytes32 */\n      0x00\n      swap1\n        /* \"contracts/Market.sol\":4189:4192  app */\n      immutable(\"0xa4f21281edf90d86f21da3432ee4f5dff8abfbde6aab55afd7f9f7d4d3676c77\")\n      sub(shl(0xa0, 0x01), 0x01)\n        /* \"contracts/Market.sol\":4189:4200  app.isBlack */\n      and\n      swap1\n      0x332daccf\n      swap1\n        /* \"#utility.yul\":4221:4239   */\n      0x24\n      add\n        /* \"contracts/Market.sol\":4189:4212  app.isBlack(msg.sender) */\n      0x20\n      mload(0x40)\n      dup1\n      dup4\n      sub\n      dup2\n      dup7\n      gas\n      staticcall\n      iszero\n      dup1\n      iszero\n      tag_124\n      jumpi\n      returndatasize\n      0x00\n      dup1\n      returndatacopy\n      revert(0x00, returndatasize)\n    tag_124:\n      pop\n      pop\n      pop\n      pop\n      mload(0x40)\n      returndatasize\n      not(0x1f)\n      0x1f\n      dup3\n      add\n      and\n      dup3\n      add\n      dup1\n      0x40\n      mstore\n      pop\n      dup2\n      add\n      swap1\n      tag_125\n      swap2\n      swap1\n      tag_86\n      jump\t// in\n    tag_125:\n        /* \"contracts/Market.sol\":4188:4212  !app.isBlack(msg.sender) */\n      iszero\n        /* \"contracts/Market.sol\":4188:4227  !app.isBlack(msg.sender) && status == 0 */\n      dup1\n      iszero\n      tag_126\n      jumpi\n      pop\n        /* \"contracts/Market.sol\":4216:4222  status */\n      sload(0x02)\n        /* \"contracts/Market.sol\":4216:4227  status == 0 */\n      iszero\n        /* \"contracts/Market.sol\":4188:4227  !app.isBlack(msg.sender) && status == 0 */\n    tag_126:\n        /* \"contracts/Market.sol\":4180:4245  require(!app.isBlack(msg.sender) && status == 0, \"black or stop\") */\n      tag_127\n      jumpi\n      mload(0x40)\n      shl(0xe5, 0x461bcd)\n      dup2\n      mstore\n        /* \"#utility.yul\":6369:6371   */\n      0x20\n        /* \"contracts/Market.sol\":4180:4245  require(!app.isBlack(msg.sender) && status == 0, \"black or stop\") */\n      0x04\n      dup3\n      add\n        /* \"#utility.yul\":6351:6372   */\n      mstore\n        /* \"#utility.yul\":6408:6410   */\n      0x0d\n        /* \"#utility.yul\":6388:6406   */\n      0x24\n      dup3\n      add\n        /* \"#utility.yul\":6381:6411   */\n      mstore\n      shl(0x9c, 0x0626c61636b206f722073746f7)\n        /* \"#utility.yul\":6427:6445   */\n      0x44\n      dup3\n      add\n        /* \"#utility.yul\":6420:6463   */\n      mstore\n        /* \"#utility.yul\":6480:6498   */\n      0x64\n      add\n        /* \"contracts/Market.sol\":4180:4245  require(!app.isBlack(msg.sender) && status == 0, \"black or stop\") */\n      tag_68\n        /* \"#utility.yul\":6167:6504   */\n      jump\n        /* \"contracts/Market.sol\":4180:4245  require(!app.isBlack(msg.sender) && status == 0, \"black or stop\") */\n    tag_127:\n        /* \"contracts/Market.sol\":4263:4268  _side */\n      dup3\n        /* \"contracts/Market.sol\":4272:4273  1 */\n      0x01\n        /* \"contracts/Market.sol\":4263:4273  _side == 1 */\n      eq\n        /* \"contracts/Market.sol\":4263:4287  _side == 1 || _side == 2 */\n      dup1\n      tag_130\n      jumpi\n      pop\n        /* \"contracts/Market.sol\":4277:4282  _side */\n      dup3\n        /* \"contracts/Market.sol\":4286:4287  2 */\n      0x02\n        /* \"contracts/Market.sol\":4277:4287  _side == 2 */\n      eq\n        /* \"contracts/Market.sol\":4263:4287  _side == 1 || _side == 2 */\n    tag_130:\n        /* \"contracts/Market.sol\":4255:4304  require(_side == 1 || _side == 2, \"invalid side\") */\n      tag_131\n      jumpi\n      mload(0x40)\n      shl(0xe5, 0x461bcd)\n      dup2\n      mstore\n        /* \"#utility.yul\":6711:6713   */\n      0x20\n        /* \"contracts/Market.sol\":4255:4304  require(_side == 1 || _side == 2, \"invalid side\") */\n      0x04\n      dup3\n      add\n        /* \"#utility.yul\":6693:6714   */\n      mstore\n        /* \"#utility.yul\":6750:6752   */\n      0x0c\n        /* \"#utility.yul\":6730:6748   */\n      0x24\n      dup3\n      add\n        /* \"#utility.yul\":6723:6753   */\n      mstore\n      shl(0xa0, 0x696e76616c69642073696465)\n        /* \"#utility.yul\":6769:6787   */\n      0x44\n      dup3\n      add\n        /* \"#utility.yul\":6762:6804   */\n      mstore\n        /* \"#utility.yul\":6821:6839   */\n      0x64\n      add\n        /* \"contracts/Market.sol\":4255:4304  require(_side == 1 || _side == 2, \"invalid side\") */\n      tag_68\n        /* \"#utility.yul\":6509:6845   */\n      jump\n        /* \"contracts/Market.sol\":4255:4304  require(_side == 1 || _side == 2, \"invalid side\") */\n    tag_131:\n        /* \"contracts/Market.sol\":4314:4329  bytes32 betHash */\n      0x00\n        /* \"contracts/Market.sol\":4332:4388  _createBet(_better, _affiliate, _stake, 0, _odds, _side) */\n      tag_134\n        /* \"contracts/Market.sol\":4343:4350  _better */\n      dup9\n        /* \"contracts/Market.sol\":4352:4362  _affiliate */\n      dup9\n        /* \"contracts/Market.sol\":4364:4370  _stake */\n      dup9\n        /* \"contracts/Market.sol\":4372:4373  0 */\n      0x00\n        /* \"contracts/Market.sol\":4375:4380  _odds */\n      dup10\n        /* \"contracts/Market.sol\":4382:4387  _side */\n      dup10\n        /* \"contracts/Market.sol\":4332:4342  _createBet */\n      tag_135\n        /* \"contracts/Market.sol\":4332:4388  _createBet(_better, _affiliate, _stake, 0, _odds, _side) */\n      jump\t// in\n    tag_134:\n        /* \"contracts/Market.sol\":4620:4631  pendingBets */\n      0x05\n        /* \"contracts/Market.sol\":4620:4638  pendingBets.length */\n      sload\n        /* \"contracts/Market.sol\":4314:4388  bytes32 betHash = _createBet(_better, _affiliate, _stake, 0, _odds, _side) */\n      swap1\n      swap2\n      pop\n        /* \"contracts/Market.sol\":4620:4642  pendingBets.length > 0 */\n      iszero\n        /* \"contracts/Market.sol\":4617:7699  if(pendingBets.length > 0){... */\n      tag_136\n      jumpi\n        /* \"contracts/Market.sol\":4674:4680  _stake */\n      dup6\n        /* \"contracts/Market.sol\":4694:7625  while(_remStake >= 1 * 10 ** 18){... */\n    tag_137:\n        /* \"contracts/Market.sol\":4713:4725  1 * 10 ** 18 */\n      0x0de0b6b3a7640000\n        /* \"contracts/Market.sol\":4700:4709  _remStake */\n      dup2\n        /* \"contracts/Market.sol\":4700:4725  _remStake >= 1 * 10 ** 18 */\n      lt\n        /* \"contracts/Market.sol\":4694:7625  while(_remStake >= 1 * 10 ** 18){... */\n      tag_138\n      jumpi\n        /* \"contracts/Market.sol\":4744:4762  uint selectedIndex */\n      0x00\n        /* \"contracts/Market.sol\":4784:4799  uint256 maxOdds */\n      dup1\n        /* \"contracts/Market.sol\":4825:4831  uint i */\n      0x00\n        /* \"contracts/Market.sol\":4821:5218  for(uint i = 0; i < pendingBets.length; i++){... */\n    tag_139:\n        /* \"contracts/Market.sol\":4841:4852  pendingBets */\n      0x05\n        /* \"contracts/Market.sol\":4841:4859  pendingBets.length */\n      sload\n        /* \"contracts/Market.sol\":4837:4859  i < pendingBets.length */\n      dup2\n      lt\n        /* \"contracts/Market.sol\":4821:5218  for(uint i = 0; i < pendingBets.length; i++){... */\n      iszero\n      tag_140\n      jumpi\n        /* \"contracts/Market.sol\":4887:4899  bytes32 pBet */\n      0x00\n        /* \"contracts/Market.sol\":4902:4913  pendingBets */\n      0x05\n        /* \"contracts/Market.sol\":4914:4915  i */\n      dup3\n        /* \"contracts/Market.sol\":4902:4916  pendingBets[i] */\n      dup2\n      sload\n      dup2\n      lt\n      tag_143\n      jumpi\n      tag_143\n      tag_61\n      jump\t// in\n    tag_143:\n      swap1\n      0x00\n      mstore\n      keccak256(0x00, 0x20)\n      add\n      sload\n        /* \"contracts/Market.sol\":4887:4916  bytes32 pBet = pendingBets[i] */\n      swap1\n      pop\n        /* \"contracts/Market.sol\":4950:4958  betsInfo */\n      0x07\n        /* \"contracts/Market.sol\":4950:4964  betsInfo[pBet] */\n      0x00\n        /* \"contracts/Market.sol\":4959:4963  pBet */\n      dup3\n        /* \"contracts/Market.sol\":4950:4964  betsInfo[pBet] */\n      dup2\n      mstore\n      0x20\n      add\n      swap1\n      dup2\n      mstore\n      0x20\n      add\n      0x00\n      keccak256\n        /* \"contracts/Market.sol\":4950:4969  betsInfo[pBet].side */\n      0x05\n      add\n      sload\n        /* \"contracts/Market.sol\":4941:4946  _side */\n      dup10\n        /* \"contracts/Market.sol\":4941:4969  _side == betsInfo[pBet].side */\n      sub\n        /* \"contracts/Market.sol\":4938:5027  if(_side == betsInfo[pBet].side){... */\n      tag_145\n      jumpi\n        /* \"contracts/Market.sol\":4996:5004  continue */\n      pop\n      jump(tag_141)\n        /* \"contracts/Market.sol\":4938:5027  if(_side == betsInfo[pBet].side){... */\n    tag_145:\n        /* \"contracts/Market.sol\":5051:5065  betsInfo[pBet] */\n      0x00\n      dup2\n      dup2\n      mstore\n        /* \"contracts/Market.sol\":5051:5059  betsInfo */\n      0x07\n        /* \"contracts/Market.sol\":5051:5065  betsInfo[pBet] */\n      0x20\n      mstore\n      0x40\n      swap1\n      keccak256\n        /* \"contracts/Market.sol\":5051:5070  betsInfo[pBet].odds */\n      0x04\n      add\n      sload\n        /* \"contracts/Market.sol\":5051:5078  betsInfo[pBet].odds>maxOdds */\n      dup4\n      lt\n        /* \"contracts/Market.sol\":5048:5200  if(betsInfo[pBet].odds>maxOdds){... */\n      iszero\n      tag_146\n      jumpi\n        /* \"contracts/Market.sol\":5115:5129  betsInfo[pBet] */\n      0x00\n      dup2\n      dup2\n      mstore\n        /* \"contracts/Market.sol\":5115:5123  betsInfo */\n      0x07\n        /* \"contracts/Market.sol\":5115:5129  betsInfo[pBet] */\n      0x20\n      mstore\n      0x40\n      swap1\n      keccak256\n        /* \"contracts/Market.sol\":5115:5134  betsInfo[pBet].odds */\n      0x04\n      add\n      sload\n        /* \"contracts/Market.sol\":5176:5177  i */\n      swap2\n      swap4\n      pop\n        /* \"contracts/Market.sol\":5115:5134  betsInfo[pBet].odds */\n      swap1\n      swap2\n      pop\n        /* \"contracts/Market.sol\":5176:5177  i */\n      dup3\n      swap1\n        /* \"contracts/Market.sol\":5048:5200  if(betsInfo[pBet].odds>maxOdds){... */\n    tag_146:\n        /* \"contracts/Market.sol\":4865:5218  {... */\n      pop\n        /* \"contracts/Market.sol\":4821:5218  for(uint i = 0; i < pendingBets.length; i++){... */\n    tag_141:\n        /* \"contracts/Market.sol\":4861:4864  i++ */\n      dup1\n      tag_147\n      dup2\n      tag_65\n      jump\t// in\n    tag_147:\n      swap2\n      pop\n      pop\n        /* \"contracts/Market.sol\":4821:5218  for(uint i = 0; i < pendingBets.length; i++){... */\n      jump(tag_139)\n    tag_140:\n      pop\n        /* \"contracts/Market.sol\":5248:5253  _odds */\n      dup8\n        /* \"contracts/Market.sol\":5238:5245  maxOdds */\n      dup2\n        /* \"contracts/Market.sol\":5238:5253  maxOdds > _odds */\n      gt\n        /* \"contracts/Market.sol\":5238:5265  maxOdds > _odds || _instant */\n      dup1\n      tag_148\n      jumpi\n      pop\n        /* \"contracts/Market.sol\":5257:5265  _instant */\n      dup6\n        /* \"contracts/Market.sol\":5238:5265  maxOdds > _odds || _instant */\n    tag_148:\n        /* \"contracts/Market.sol\":5235:7611  if(maxOdds > _odds || _instant) {... */\n      iszero\n      tag_149\n      jumpi\n        /* \"contracts/Market.sol\":5289:5309  bytes32 selectedHash */\n      0x00\n        /* \"contracts/Market.sol\":5312:5323  pendingBets */\n      0x05\n        /* \"contracts/Market.sol\":5324:5337  selectedIndex */\n      dup4\n        /* \"contracts/Market.sol\":5312:5338  pendingBets[selectedIndex] */\n      dup2\n      sload\n      dup2\n      lt\n      tag_151\n      jumpi\n      tag_151\n      tag_61\n      jump\t// in\n    tag_151:\n      0x00\n      swap2\n      dup3\n      mstore\n      0x20\n      dup1\n      dup4\n      keccak256\n      swap1\n      swap2\n      add\n      sload\n        /* \"contracts/Market.sol\":5391:5413  betsInfo[selectedHash] */\n      dup1\n      dup4\n      mstore\n        /* \"contracts/Market.sol\":5391:5399  betsInfo */\n      0x07\n        /* \"contracts/Market.sol\":5391:5413  betsInfo[selectedHash] */\n      dup3\n      mstore\n      0x40\n      dup1\n      dup5\n      keccak256\n        /* \"contracts/Market.sol\":5360:5413  MarketBet memory selectedBet = betsInfo[selectedHash] */\n      dup2\n      mload\n      0xc0\n      dup2\n      add\n      dup4\n      mstore\n      dup2\n      sload\n      sub(shl(0xa0, 0x01), 0x01)\n      swap1\n      dup2\n      and\n      dup3\n      mstore\n      0x01\n      dup1\n      dup5\n      add\n      sload\n      swap1\n      swap2\n      and\n      swap6\n      dup3\n      add\n      swap6\n      swap1\n      swap6\n      mstore\n      0x02\n      dup3\n      add\n      sload\n      swap3\n      dup2\n      add\n      swap3\n      swap1\n      swap3\n      mstore\n      0x03\n      dup2\n      add\n      sload\n      0x60\n      dup4\n      add\n      mstore\n      0x04\n      dup2\n      add\n      sload\n      0x80\n      dup4\n      add\n      mstore\n      0x05\n      add\n      sload\n      0xa0\n      dup3\n      add\n      mstore\n        /* \"contracts/Market.sol\":5312:5338  pendingBets[selectedIndex] */\n      swap1\n      swap4\n      pop\n        /* \"contracts/Market.sol\":5360:5413  MarketBet memory selectedBet = betsInfo[selectedHash] */\n      swap2\n        /* \"contracts/Market.sol\":5312:5338  pendingBets[selectedIndex] */\n      swap1\n        /* \"contracts/Market.sol\":5500:5509  _odds - 1 */\n      tag_153\n      swap1\n        /* \"contracts/Market.sol\":5500:5505  _odds */\n      dup13\n        /* \"contracts/Market.sol\":5500:5509  _odds - 1 */\n      tag_91\n      jump\t// in\n    tag_153:\n        /* \"contracts/Market.sol\":5476:5487  selectedBet */\n      dup3\n        /* \"contracts/Market.sol\":5476:5495  selectedBet.matched */\n      0x60\n      add\n      mload\n        /* \"contracts/Market.sol\":5456:5467  selectedBet */\n      dup4\n        /* \"contracts/Market.sol\":5456:5473  selectedBet.stake */\n      0x40\n      add\n      mload\n        /* \"contracts/Market.sol\":5456:5495  selectedBet.stake - selectedBet.matched */\n      tag_154\n      swap2\n      swap1\n      tag_91\n      jump\t// in\n    tag_154:\n        /* \"contracts/Market.sol\":5455:5510  (selectedBet.stake - selectedBet.matched) / (_odds - 1) */\n      tag_155\n      swap2\n      swap1\n      tag_156\n      jump\t// in\n    tag_155:\n        /* \"contracts/Market.sol\":5435:5510  uint offeredStake = (selectedBet.stake - selectedBet.matched) / (_odds - 1) */\n      swap1\n      pop\n        /* \"contracts/Market.sol\":5532:5549  uint betterAmount */\n      0x00\n        /* \"contracts/Market.sol\":5571:5587  uint makerAmount */\n      dup1\n        /* \"contracts/Market.sol\":5609:5625  bytes32 pairHash */\n      0x00\n        /* \"contracts/Market.sol\":5666:5672  _stake */\n      dup15\n        /* \"contracts/Market.sol\":5650:5662  offeredStake */\n      dup5\n        /* \"contracts/Market.sol\":5650:5672  offeredStake <= _stake */\n      gt\n        /* \"contracts/Market.sol\":5647:7014  if(offeredStake <= _stake) {... */\n      tag_157\n      jumpi\n        /* \"contracts/Market.sol\":5715:5727  offeredStake */\n      dup4\n      swap3\n      pop\n        /* \"contracts/Market.sol\":5783:5792  _odds - 1 */\n      tag_158\n        /* \"contracts/Market.sol\":5791:5792  1 */\n      0x01\n        /* \"contracts/Market.sol\":5783:5788  _odds */\n      dup16\n        /* \"contracts/Market.sol\":5783:5792  _odds - 1 */\n      tag_91\n      jump\t// in\n    tag_158:\n        /* \"contracts/Market.sol\":5767:5793  offeredStake * (_odds - 1) */\n      tag_159\n      swap1\n        /* \"contracts/Market.sol\":5767:5779  offeredStake */\n      dup6\n        /* \"contracts/Market.sol\":5767:5793  offeredStake * (_odds - 1) */\n      tag_160\n      jump\t// in\n    tag_159:\n        /* \"contracts/Market.sol\":5753:5793  makerAmount = offeredStake * (_odds - 1) */\n      swap2\n      pop\n        /* \"contracts/Market.sol\":5822:5827  _side */\n      dup13\n        /* \"contracts/Market.sol\":5831:5832  1 */\n      0x01\n        /* \"contracts/Market.sol\":5822:5832  _side == 1 */\n      sub\n        /* \"contracts/Market.sol\":5819:6315  if(_side == 1){... */\n      tag_161\n      jumpi\n        /* \"contracts/Market.sol\":5874:5932  _createPair(betHash,selectedHash,betterAmount,makerAmount) */\n      tag_162\n        /* \"contracts/Market.sol\":5886:5893  betHash */\n      dup11\n        /* \"contracts/Market.sol\":5894:5906  selectedHash */\n      dup8\n        /* \"contracts/Market.sol\":5907:5919  betterAmount */\n      dup6\n        /* \"contracts/Market.sol\":5920:5931  makerAmount */\n      dup6\n        /* \"contracts/Market.sol\":5874:5885  _createPair */\n      tag_163\n        /* \"contracts/Market.sol\":5874:5932  _createPair(betHash,selectedHash,betterAmount,makerAmount) */\n      jump\t// in\n    tag_162:\n        /* \"contracts/Market.sol\":5967:6025  PairCreated(betHash,selectedHash,betterAmount,makerAmount) */\n      0x40\n      dup1\n      mload\n        /* \"#utility.yul\":7476:7501   */\n      dup13\n      dup2\n      mstore\n        /* \"#utility.yul\":7532:7534   */\n      0x20\n        /* \"#utility.yul\":7517:7535   */\n      dup2\n      add\n        /* \"#utility.yul\":7510:7544   */\n      dup10\n      swap1\n      mstore\n        /* \"#utility.yul\":7560:7578   */\n      swap1\n      dup2\n      add\n        /* \"#utility.yul\":7553:7587   */\n      dup6\n      swap1\n      mstore\n        /* \"#utility.yul\":7618:7620   */\n      0x60\n        /* \"#utility.yul\":7603:7621   */\n      dup2\n      add\n        /* \"#utility.yul\":7596:7630   */\n      dup5\n      swap1\n      mstore\n        /* \"contracts/Market.sol\":5863:5932  pairHash = _createPair(betHash,selectedHash,betterAmount,makerAmount) */\n      swap1\n      swap2\n      pop\n        /* \"contracts/Market.sol\":5967:6025  PairCreated(betHash,selectedHash,betterAmount,makerAmount) */\n      0x5de48bb383b4a2aaad84721b80d93429b813651b0eefbd59d32018cfe28215dc\n      swap1\n        /* \"#utility.yul\":7463:7466   */\n      0x80\n        /* \"#utility.yul\":7448:7467   */\n      add\n        /* \"contracts/Market.sol\":5967:6025  PairCreated(betHash,selectedHash,betterAmount,makerAmount) */\n    tag_164:\n      mload(0x40)\n      dup1\n      swap2\n      sub\n      swap1\n      log1\n        /* \"contracts/Market.sol\":5647:7014  if(offeredStake <= _stake) {... */\n      jump(tag_177)\n        /* \"contracts/Market.sol\":5819:6315  if(_side == 1){... */\n    tag_161:\n        /* \"contracts/Market.sol\":6085:6090  _side */\n      dup13\n        /* \"contracts/Market.sol\":6094:6095  2 */\n      0x02\n        /* \"contracts/Market.sol\":6085:6095  _side == 2 */\n      sub\n        /* \"contracts/Market.sol\":6082:6315  if(_side == 2){... */\n      tag_167\n      jumpi\n        /* \"contracts/Market.sol\":6137:6195  _createPair(selectedHash,betHash,makerAmount,betterAmount) */\n      tag_168\n        /* \"contracts/Market.sol\":6149:6161  selectedHash */\n      dup7\n        /* \"contracts/Market.sol\":6162:6169  betHash */\n      dup12\n        /* \"contracts/Market.sol\":6170:6181  makerAmount */\n      dup5\n        /* \"contracts/Market.sol\":6182:6194  betterAmount */\n      dup7\n        /* \"contracts/Market.sol\":6137:6148  _createPair */\n      tag_163\n        /* \"contracts/Market.sol\":6137:6195  _createPair(selectedHash,betHash,makerAmount,betterAmount) */\n      jump\t// in\n    tag_168:\n        /* \"contracts/Market.sol\":6230:6288  PairCreated(selectedHash,betHash,makerAmount,betterAmount) */\n      0x40\n      dup1\n      mload\n        /* \"#utility.yul\":7476:7501   */\n      dup9\n      dup2\n      mstore\n        /* \"#utility.yul\":7532:7534   */\n      0x20\n        /* \"#utility.yul\":7517:7535   */\n      dup2\n      add\n        /* \"#utility.yul\":7510:7544   */\n      dup14\n      swap1\n      mstore\n        /* \"#utility.yul\":7560:7578   */\n      swap1\n      dup2\n      add\n        /* \"#utility.yul\":7553:7587   */\n      dup5\n      swap1\n      mstore\n        /* \"#utility.yul\":7618:7620   */\n      0x60\n        /* \"#utility.yul\":7603:7621   */\n      dup2\n      add\n        /* \"#utility.yul\":7596:7630   */\n      dup6\n      swap1\n      mstore\n        /* \"contracts/Market.sol\":6126:6195  pairHash = _createPair(selectedHash,betHash,makerAmount,betterAmount) */\n      swap1\n      swap2\n      pop\n        /* \"contracts/Market.sol\":6230:6288  PairCreated(selectedHash,betHash,makerAmount,betterAmount) */\n      0x5de48bb383b4a2aaad84721b80d93429b813651b0eefbd59d32018cfe28215dc\n      swap1\n        /* \"#utility.yul\":7463:7466   */\n      0x80\n        /* \"#utility.yul\":7448:7467   */\n      add\n        /* \"contracts/Market.sol\":6230:6288  PairCreated(selectedHash,betHash,makerAmount,betterAmount) */\n      tag_164\n        /* \"#utility.yul\":7245:7636   */\n      jump\n        /* \"contracts/Market.sol\":6082:6315  if(_side == 2){... */\n    tag_167:\n        /* \"contracts/Market.sol\":5647:7014  if(offeredStake <= _stake) {... */\n      jump(tag_177)\n    tag_157:\n        /* \"contracts/Market.sol\":6404:6410  _stake */\n      dup15\n      swap3\n      pop\n        /* \"contracts/Market.sol\":6460:6469  _odds - 1 */\n      tag_171\n        /* \"contracts/Market.sol\":6468:6469  1 */\n      0x01\n        /* \"contracts/Market.sol\":6460:6465  _odds */\n      dup16\n        /* \"contracts/Market.sol\":6460:6469  _odds - 1 */\n      tag_91\n      jump\t// in\n    tag_171:\n        /* \"contracts/Market.sol\":6450:6456  _stake */\n      dup16\n        /* \"contracts/Market.sol\":6450:6470  _stake * (_odds - 1) */\n      tag_172\n      swap2\n      swap1\n      tag_160\n      jump\t// in\n    tag_172:\n        /* \"contracts/Market.sol\":6436:6470  makerAmount = _stake * (_odds - 1) */\n      swap2\n      pop\n        /* \"contracts/Market.sol\":6499:6504  _side */\n      dup13\n        /* \"contracts/Market.sol\":6508:6509  1 */\n      0x01\n        /* \"contracts/Market.sol\":6499:6509  _side == 1 */\n      sub\n        /* \"contracts/Market.sol\":6496:6992  if(_side == 1){... */\n      tag_173\n      jumpi\n        /* \"contracts/Market.sol\":6551:6609  _createPair(betHash,selectedHash,betterAmount,makerAmount) */\n      tag_162\n        /* \"contracts/Market.sol\":6563:6570  betHash */\n      dup11\n        /* \"contracts/Market.sol\":6571:6583  selectedHash */\n      dup8\n        /* \"contracts/Market.sol\":6584:6596  betterAmount */\n      dup6\n        /* \"contracts/Market.sol\":6597:6608  makerAmount */\n      dup6\n        /* \"contracts/Market.sol\":6551:6562  _createPair */\n      tag_163\n        /* \"contracts/Market.sol\":6551:6609  _createPair(betHash,selectedHash,betterAmount,makerAmount) */\n      jump\t// in\n        /* \"contracts/Market.sol\":6496:6992  if(_side == 1){... */\n    tag_173:\n        /* \"contracts/Market.sol\":6762:6767  _side */\n      dup13\n        /* \"contracts/Market.sol\":6771:6772  2 */\n      0x02\n        /* \"contracts/Market.sol\":6762:6772  _side == 2 */\n      sub\n        /* \"contracts/Market.sol\":6759:6992  if(_side == 2){... */\n      tag_177\n      jumpi\n        /* \"contracts/Market.sol\":6814:6872  _createPair(selectedHash,betHash,makerAmount,betterAmount) */\n      tag_178\n        /* \"contracts/Market.sol\":6826:6838  selectedHash */\n      dup7\n        /* \"contracts/Market.sol\":6839:6846  betHash */\n      dup12\n        /* \"contracts/Market.sol\":6847:6858  makerAmount */\n      dup5\n        /* \"contracts/Market.sol\":6859:6871  betterAmount */\n      dup7\n        /* \"contracts/Market.sol\":6814:6825  _createPair */\n      tag_163\n        /* \"contracts/Market.sol\":6814:6872  _createPair(selectedHash,betHash,makerAmount,betterAmount) */\n      jump\t// in\n    tag_178:\n        /* \"contracts/Market.sol\":6907:6965  PairCreated(selectedHash,betHash,makerAmount,betterAmount) */\n      0x40\n      dup1\n      mload\n        /* \"#utility.yul\":7476:7501   */\n      dup9\n      dup2\n      mstore\n        /* \"#utility.yul\":7532:7534   */\n      0x20\n        /* \"#utility.yul\":7517:7535   */\n      dup2\n      add\n        /* \"#utility.yul\":7510:7544   */\n      dup14\n      swap1\n      mstore\n        /* \"#utility.yul\":7560:7578   */\n      swap1\n      dup2\n      add\n        /* \"#utility.yul\":7553:7587   */\n      dup5\n      swap1\n      mstore\n        /* \"#utility.yul\":7618:7620   */\n      0x60\n        /* \"#utility.yul\":7603:7621   */\n      dup2\n      add\n        /* \"#utility.yul\":7596:7630   */\n      dup6\n      swap1\n      mstore\n        /* \"contracts/Market.sol\":6803:6872  pairHash = _createPair(selectedHash,betHash,makerAmount,betterAmount) */\n      swap1\n      swap2\n      pop\n        /* \"contracts/Market.sol\":6907:6965  PairCreated(selectedHash,betHash,makerAmount,betterAmount) */\n      0x5de48bb383b4a2aaad84721b80d93429b813651b0eefbd59d32018cfe28215dc\n      swap1\n        /* \"#utility.yul\":7463:7466   */\n      0x80\n        /* \"#utility.yul\":7448:7467   */\n      add\n        /* \"contracts/Market.sol\":6907:6965  PairCreated(selectedHash,betHash,makerAmount,betterAmount) */\n      mload(0x40)\n      dup1\n      swap2\n      sub\n      swap1\n      log1\n        /* \"contracts/Market.sol\":6759:6992  if(_side == 2){... */\n    tag_177:\n        /* \"contracts/Market.sol\":7035:7052  betPairs[betHash] */\n      0x00\n      dup11\n      dup2\n      mstore\n        /* \"contracts/Market.sol\":7035:7043  betPairs */\n      0x0a\n        /* \"contracts/Market.sol\":7035:7052  betPairs[betHash] */\n      0x20\n      swap1\n      dup2\n      mstore\n      0x40\n      dup1\n      dup4\n      keccak256\n        /* \"contracts/Market.sol\":7035:7067  betPairs[betHash].push(pairHash) */\n      dup1\n      sload\n      0x01\n      dup2\n      dup2\n      add\n      dup4\n      sstore\n      swap2\n      dup6\n      mstore\n      dup4\n      dup6\n      keccak256\n      add\n      dup6\n      swap1\n      sstore\n        /* \"contracts/Market.sol\":7089:7111  betPairs[selectedHash] */\n      dup10\n      dup5\n      mstore\n      dup2\n      dup5\n      keccak256\n        /* \"contracts/Market.sol\":7089:7126  betPairs[selectedHash].push(pairHash) */\n      dup1\n      sload\n      swap2\n      dup3\n      add\n      dup2\n      sstore\n      dup5\n      mstore\n      dup3\n      dup5\n      keccak256\n      add\n      dup5\n      swap1\n      sstore\n        /* \"contracts/Market.sol\":7148:7165  betsInfo[betHash] */\n      dup13\n      dup4\n      mstore\n        /* \"contracts/Market.sol\":7148:7156  betsInfo */\n      0x07\n        /* \"contracts/Market.sol\":7148:7165  betsInfo[betHash] */\n      swap1\n      swap2\n      mstore\n      dup2\n      keccak256\n        /* \"contracts/Market.sol\":7148:7173  betsInfo[betHash].matched */\n      0x03\n      add\n        /* \"contracts/Market.sol\":7148:7189  betsInfo[betHash].matched += betterAmount */\n      dup1\n      sload\n        /* \"contracts/Market.sol\":7177:7189  betterAmount */\n      dup6\n      swap3\n        /* \"contracts/Market.sol\":7035:7052  betPairs[betHash] */\n      swap1\n        /* \"contracts/Market.sol\":7148:7189  betsInfo[betHash].matched += betterAmount */\n      tag_182\n      swap1\n        /* \"contracts/Market.sol\":7177:7189  betterAmount */\n      dup5\n      swap1\n        /* \"contracts/Market.sol\":7148:7189  betsInfo[betHash].matched += betterAmount */\n      tag_183\n      jump\t// in\n    tag_182:\n      swap1\n      swap2\n      sstore\n      pop\n      pop\n        /* \"contracts/Market.sol\":7211:7233  betsInfo[selectedHash] */\n      0x00\n      dup7\n      dup2\n      mstore\n        /* \"contracts/Market.sol\":7211:7219  betsInfo */\n      0x07\n        /* \"contracts/Market.sol\":7211:7233  betsInfo[selectedHash] */\n      0x20\n      mstore\n      0x40\n      dup2\n      keccak256\n        /* \"contracts/Market.sol\":7211:7241  betsInfo[selectedHash].matched */\n      0x03\n      add\n        /* \"contracts/Market.sol\":7211:7256  betsInfo[selectedHash].matched += makerAmount */\n      dup1\n      sload\n        /* \"contracts/Market.sol\":7245:7256  makerAmount */\n      dup5\n      swap3\n        /* \"contracts/Market.sol\":7211:7233  betsInfo[selectedHash] */\n      swap1\n        /* \"contracts/Market.sol\":7211:7256  betsInfo[selectedHash].matched += makerAmount */\n      tag_184\n      swap1\n        /* \"contracts/Market.sol\":7245:7256  makerAmount */\n      dup5\n      swap1\n        /* \"contracts/Market.sol\":7211:7256  betsInfo[selectedHash].matched += makerAmount */\n      tag_183\n      jump\t// in\n    tag_184:\n      swap1\n      swap2\n      sstore\n      pop\n      pop\n        /* \"contracts/Market.sol\":7312:7334  betsInfo[selectedHash] */\n      0x00\n      dup7\n      dup2\n      mstore\n        /* \"contracts/Market.sol\":7312:7320  betsInfo */\n      0x07\n        /* \"contracts/Market.sol\":7312:7334  betsInfo[selectedHash] */\n      0x20\n      mstore\n      0x40\n      swap1\n      keccak256\n        /* \"contracts/Market.sol\":7312:7342  betsInfo[selectedHash].matched */\n      0x03\n      dup2\n      add\n      sload\n        /* \"contracts/Market.sol\":7281:7309  betsInfo[selectedHash].stake */\n      0x02\n      swap1\n      swap2\n      add\n      sload\n        /* \"contracts/Market.sol\":7281:7342  betsInfo[selectedHash].stake - betsInfo[selectedHash].matched */\n      tag_185\n      swap2\n        /* \"contracts/Market.sol\":7312:7342  betsInfo[selectedHash].matched */\n      swap1\n        /* \"contracts/Market.sol\":7281:7342  betsInfo[selectedHash].stake - betsInfo[selectedHash].matched */\n      tag_91\n      jump\t// in\n    tag_185:\n        /* \"contracts/Market.sol\":7346:7347  0 */\n      0x00\n        /* \"contracts/Market.sol\":7281:7347  betsInfo[selectedHash].stake - betsInfo[selectedHash].matched == 0 */\n      sub\n        /* \"contracts/Market.sol\":7278:7431  if(betsInfo[selectedHash].stake - betsInfo[selectedHash].matched == 0) {... */\n      tag_186\n      jumpi\n        /* \"contracts/Market.sol\":7382:7393  pendingBets */\n      0x05\n        /* \"contracts/Market.sol\":7394:7407  selectedIndex */\n      dup9\n        /* \"contracts/Market.sol\":7382:7408  pendingBets[selectedIndex] */\n      dup2\n      sload\n      dup2\n      lt\n      tag_188\n      jumpi\n      tag_188\n      tag_61\n      jump\t// in\n    tag_188:\n      0x00\n      swap2\n      dup3\n      mstore\n      0x20\n      dup3\n      keccak256\n      add\n        /* \"contracts/Market.sol\":7375:7408  delete pendingBets[selectedIndex] */\n      sstore\n        /* \"contracts/Market.sol\":7278:7431  if(betsInfo[selectedHash].stake - betsInfo[selectedHash].matched == 0) {... */\n    tag_186:\n        /* \"contracts/Market.sol\":7452:7477  _remStake -= betterAmount */\n      tag_190\n        /* \"contracts/Market.sol\":7465:7477  betterAmount */\n      dup4\n        /* \"contracts/Market.sol\":7452:7477  _remStake -= betterAmount */\n      dup11\n      tag_91\n      jump\t// in\n    tag_190:\n      swap9\n      pop\n        /* \"contracts/Market.sol\":5267:7496  {... */\n      pop\n      pop\n      pop\n      pop\n      pop\n      pop\n        /* \"contracts/Market.sol\":5235:7611  if(maxOdds > _odds || _instant) {... */\n      jump(tag_191)\n    tag_149:\n      pop\n      pop\n        /* \"contracts/Market.sol\":7540:7551  pendingBets */\n      0x05\n        /* \"contracts/Market.sol\":7540:7565  pendingBets.push(betHash) */\n      dup1\n      sload\n      0x01\n      dup2\n      add\n      dup3\n      sstore\n      0x00\n      swap2\n      swap1\n      swap2\n      mstore\n      0x036b6384b5eca791c62761152d0c79bb0604c104a5fb6f4eb0703f3154bb3db0\n      add\n      dup3\n      swap1\n      sstore\n        /* \"contracts/Market.sol\":7587:7592  break */\n      jump(tag_138)\n        /* \"contracts/Market.sol\":5235:7611  if(maxOdds > _odds || _instant) {... */\n    tag_191:\n        /* \"contracts/Market.sol\":4726:7625  {... */\n      pop\n      pop\n        /* \"contracts/Market.sol\":4694:7625  while(_remStake >= 1 * 10 ** 18){... */\n      jump(tag_137)\n    tag_138:\n        /* \"contracts/Market.sol\":4643:7635  {... */\n      pop\n        /* \"contracts/Market.sol\":4617:7699  if(pendingBets.length > 0){... */\n      jump(tag_193)\n    tag_136:\n        /* \"contracts/Market.sol\":7663:7674  pendingBets */\n      0x05\n        /* \"contracts/Market.sol\":7663:7688  pendingBets.push(betHash) */\n      dup1\n      sload\n      0x01\n      dup2\n      add\n      dup3\n      sstore\n      0x00\n      swap2\n      swap1\n      swap2\n      mstore\n      0x036b6384b5eca791c62761152d0c79bb0604c104a5fb6f4eb0703f3154bb3db0\n      add\n      dup2\n      swap1\n      sstore\n        /* \"contracts/Market.sol\":4617:7699  if(pendingBets.length > 0){... */\n    tag_193:\n        /* \"contracts/Market.sol\":7713:7781  BetCreated(msg.sender, address(this), betHash, _stake, _odds, _side) */\n      0x40\n      dup1\n      mload\n        /* \"contracts/Market.sol\":7724:7734  msg.sender */\n      caller\n        /* \"#utility.yul\":8096:8130   */\n      dup2\n      mstore\n        /* \"contracts/Market.sol\":7744:7748  this */\n      address\n        /* \"#utility.yul\":8161:8163   */\n      0x20\n        /* \"#utility.yul\":8146:8164   */\n      dup3\n      add\n        /* \"#utility.yul\":8139:8182   */\n      mstore\n        /* \"#utility.yul\":8198:8216   */\n      swap1\n      dup2\n      add\n        /* \"#utility.yul\":8191:8225   */\n      dup3\n      swap1\n      mstore\n        /* \"#utility.yul\":8256:8258   */\n      0x60\n        /* \"#utility.yul\":8241:8259   */\n      dup2\n      add\n        /* \"#utility.yul\":8234:8268   */\n      dup8\n      swap1\n      mstore\n        /* \"#utility.yul\":8299:8302   */\n      0x80\n        /* \"#utility.yul\":8284:8303   */\n      dup2\n      add\n        /* \"#utility.yul\":8277:8312   */\n      dup7\n      swap1\n      mstore\n        /* \"#utility.yul\":8076:8079   */\n      0xa0\n        /* \"#utility.yul\":8328:8347   */\n      dup2\n      add\n        /* \"#utility.yul\":8321:8356   */\n      dup6\n      swap1\n      mstore\n        /* \"contracts/Market.sol\":7713:7781  BetCreated(msg.sender, address(this), betHash, _stake, _odds, _side) */\n      0x618f358bb45538682ade624a4a1959053d9dabd20fe300508034b879681b37be\n      swap1\n        /* \"#utility.yul\":8045:8048   */\n      0xc0\n        /* \"#utility.yul\":8030:8049   */\n      add\n        /* \"contracts/Market.sol\":7713:7781  BetCreated(msg.sender, address(this), betHash, _stake, _odds, _side) */\n      mload(0x40)\n      dup1\n      swap2\n      sub\n      swap1\n      log1\n        /* \"contracts/Market.sol\":7798:7805  betHash */\n      swap8\n        /* \"contracts/Market.sol\":3963:7812  function addBet(... */\n      swap7\n      pop\n      pop\n      pop\n      pop\n      pop\n      pop\n      pop\n      jump\t// out\n        /* \"contracts/Market.sol\":2538:3044  function cancelPending(bytes32 _bet) external override nonReentrant {... */\n    tag_43:\n        /* \"@openzeppelin/contracts/security/ReentrancyGuard.sol\":1744:1745  2 */\n      0x02\n        /* \"@openzeppelin/contracts/security/ReentrancyGuard.sol\":2325:2332  _status */\n      sload(0x00)\n        /* \"@openzeppelin/contracts/security/ReentrancyGuard.sol\":2325:2344  _status != _ENTERED */\n      sub\n        /* \"@openzeppelin/contracts/security/ReentrancyGuard.sol\":2317:2380  require(_status != _ENTERED, \"ReentrancyGuard: reentrant call\") */\n      tag_198\n      jumpi\n      mload(0x40)\n      shl(0xe5, 0x461bcd)\n      dup2\n      mstore\n      0x04\n      add\n      tag_68\n      swap1\n      tag_69\n      jump\t// in\n    tag_198:\n        /* \"@openzeppelin/contracts/security/ReentrancyGuard.sol\":1744:1745  2 */\n      0x02\n        /* \"@openzeppelin/contracts/security/ReentrancyGuard.sol\":2455:2462  _status */\n      0x00\n        /* \"@openzeppelin/contracts/security/ReentrancyGuard.sol\":2455:2473  _status = _ENTERED */\n      dup2\n      dup2\n      sstore\n        /* \"contracts/Market.sol\":2639:2653  betsInfo[_bet] */\n      dup3\n      dup2\n      mstore\n        /* \"contracts/Market.sol\":2639:2647  betsInfo */\n      0x07\n        /* \"contracts/Market.sol\":2639:2653  betsInfo[_bet] */\n      0x20\n      swap1\n      dup2\n      mstore\n      0x40\n      swap2\n      dup3\n      swap1\n      keccak256\n        /* \"contracts/Market.sol\":2616:2653  MarketBet memory bet = betsInfo[_bet] */\n      dup3\n      mload\n      0xc0\n      dup2\n      add\n      dup5\n      mstore\n      dup2\n      sload\n      sub(shl(0xa0, 0x01), 0x01)\n      swap1\n      dup2\n      and\n      dup1\n      dup4\n      mstore\n      0x01\n      dup5\n      add\n      sload\n      swap1\n      swap2\n      and\n      swap4\n      dup3\n      add\n      swap4\n      swap1\n      swap4\n      mstore\n      swap4\n      dup2\n      add\n      sload\n      swap3\n      dup5\n      add\n      swap3\n      swap1\n      swap3\n      mstore\n      0x03\n      dup3\n      add\n      sload\n      0x60\n      dup5\n      add\n      mstore\n      0x04\n      dup3\n      add\n      sload\n      0x80\n      dup5\n      add\n      mstore\n      0x05\n      swap1\n      swap2\n      add\n      sload\n      0xa0\n      dup4\n      add\n      mstore\n        /* \"contracts/Market.sol\":2671:2681  msg.sender */\n      caller\n        /* \"contracts/Market.sol\":2671:2695  msg.sender == bet.better */\n      eq\n        /* \"contracts/Market.sol\":2663:2714  require(msg.sender == bet.better, \"bet owner only\") */\n      tag_201\n      jumpi\n      mload(0x40)\n      shl(0xe5, 0x461bcd)\n      dup2\n      mstore\n        /* \"#utility.yul\":8569:8571   */\n      0x20\n        /* \"contracts/Market.sol\":2663:2714  require(msg.sender == bet.better, \"bet owner only\") */\n      0x04\n      dup3\n      add\n        /* \"#utility.yul\":8551:8572   */\n      mstore\n        /* \"#utility.yul\":8608:8610   */\n      0x0e\n        /* \"#utility.yul\":8588:8606   */\n      0x24\n      dup3\n      add\n        /* \"#utility.yul\":8581:8611   */\n      mstore\n      shl(0x90, 0x626574206f776e6572206f6e6c79)\n        /* \"#utility.yul\":8627:8645   */\n      0x44\n      dup3\n      add\n        /* \"#utility.yul\":8620:8664   */\n      mstore\n        /* \"#utility.yul\":8681:8699   */\n      0x64\n      add\n        /* \"contracts/Market.sol\":2663:2714  require(msg.sender == bet.better, \"bet owner only\") */\n      tag_68\n        /* \"#utility.yul\":8367:8705   */\n      jump\n        /* \"contracts/Market.sol\":2663:2714  require(msg.sender == bet.better, \"bet owner only\") */\n    tag_201:\n        /* \"contracts/Market.sol\":2724:2737  uint remStake */\n      0x00\n        /* \"contracts/Market.sol\":2752:2755  bet */\n      dup2\n        /* \"contracts/Market.sol\":2752:2763  bet.matched */\n      0x60\n      add\n      mload\n        /* \"contracts/Market.sol\":2740:2743  bet */\n      dup3\n        /* \"contracts/Market.sol\":2740:2749  bet.stake */\n      0x40\n      add\n      mload\n        /* \"contracts/Market.sol\":2740:2763  bet.stake - bet.matched */\n      tag_204\n      swap2\n      swap1\n      tag_91\n      jump\t// in\n    tag_204:\n        /* \"contracts/Market.sol\":2777:2787  bet.better */\n      dup3\n      mload\n      sub(shl(0xa0, 0x01), 0x01)\n        /* \"contracts/Market.sol\":2773:2788  bal[bet.better] */\n      and\n      0x00\n      swap1\n      dup2\n      mstore\n        /* \"contracts/Market.sol\":2773:2776  bal */\n      0x06\n        /* \"contracts/Market.sol\":2773:2788  bal[bet.better] */\n      0x20\n      swap1\n      dup2\n      mstore\n      0x40\n      dup1\n      dup4\n      keccak256\n        /* \"contracts/Market.sol\":2773:2799  bal[bet.better] = remStake */\n      dup5\n      swap1\n      sstore\n        /* \"contracts/Market.sol\":2834:2843  bet.stake */\n      dup1\n      dup7\n      add\n      mload\n        /* \"contracts/Market.sol\":2809:2823  betsInfo[_bet] */\n      dup8\n      dup5\n      mstore\n        /* \"contracts/Market.sol\":2809:2817  betsInfo */\n      0x07\n        /* \"contracts/Market.sol\":2809:2823  betsInfo[_bet] */\n      swap1\n      swap3\n      mstore\n      dup3\n      keccak256\n        /* \"contracts/Market.sol\":2809:2831  betsInfo[_bet].matched */\n      0x03\n      add\n        /* \"contracts/Market.sol\":2809:2843  betsInfo[_bet].matched = bet.stake */\n      sstore\n        /* \"contracts/Market.sol\":2724:2763  uint remStake = bet.stake - bet.matched */\n      swap1\n      swap2\n      pop\n        /* \"contracts/Market.sol\":2889:3038  for(uint i = 0; i < pendingBets.length; i++){... */\n    tag_205:\n        /* \"contracts/Market.sol\":2909:2920  pendingBets */\n      0x05\n        /* \"contracts/Market.sol\":2909:2927  pendingBets.length */\n      sload\n        /* \"contracts/Market.sol\":2905:2927  i < pendingBets.length */\n      dup2\n      lt\n        /* \"contracts/Market.sol\":2889:3038  for(uint i = 0; i < pendingBets.length; i++){... */\n      iszero\n      tag_206\n      jumpi\n        /* \"contracts/Market.sol\":2968:2972  _bet */\n      dup4\n        /* \"contracts/Market.sol\":2950:2961  pendingBets */\n      0x05\n        /* \"contracts/Market.sol\":2962:2963  i */\n      dup3\n        /* \"contracts/Market.sol\":2950:2964  pendingBets[i] */\n      dup2\n      sload\n      dup2\n      lt\n      tag_209\n      jumpi\n      tag_209\n      tag_61\n      jump\t// in\n    tag_209:\n      swap1\n      0x00\n      mstore\n      keccak256(0x00, 0x20)\n      add\n      sload\n        /* \"contracts/Market.sol\":2950:2972  pendingBets[i] == _bet */\n      sub\n        /* \"contracts/Market.sol\":2947:3028  if(pendingBets[i] == _bet) {... */\n      tag_211\n      jumpi\n        /* \"contracts/Market.sol\":2999:3010  pendingBets */\n      0x05\n        /* \"contracts/Market.sol\":3011:3012  i */\n      dup2\n        /* \"contracts/Market.sol\":2999:3013  pendingBets[i] */\n      dup2\n      sload\n      dup2\n      lt\n      tag_213\n      jumpi\n      tag_213\n      tag_61\n      jump\t// in\n    tag_213:\n      0x00\n      swap2\n      dup3\n      mstore\n      0x20\n      dup3\n      keccak256\n      add\n        /* \"contracts/Market.sol\":2992:3013  delete pendingBets[i] */\n      sstore\n        /* \"contracts/Market.sol\":2947:3028  if(pendingBets[i] == _bet) {... */\n    tag_211:\n        /* \"contracts/Market.sol\":2929:2932  i++ */\n      dup1\n      tag_215\n      dup2\n      tag_65\n      jump\t// in\n    tag_215:\n      swap2\n      pop\n      pop\n        /* \"contracts/Market.sol\":2889:3038  for(uint i = 0; i < pendingBets.length; i++){... */\n      jump(tag_205)\n    tag_206:\n      pop\n      pop\n        /* \"@openzeppelin/contracts/security/ReentrancyGuard.sol\":1701:1702  1 */\n      0x01\n        /* \"@openzeppelin/contracts/security/ReentrancyGuard.sol\":2628:2635  _status */\n      0x00\n        /* \"@openzeppelin/contracts/security/ReentrancyGuard.sol\":2628:2650  _status = _NOT_ENTERED */\n      sstore\n      pop\n      pop\n        /* \"contracts/Market.sol\":2538:3044  function cancelPending(bytes32 _bet) external override nonReentrant {... */\n      jump\t// out\n        /* \"contracts/Market.sol\":3336:3691  function settle(uint256 _winningSide)... */\n    tag_47:\n        /* \"contracts/Market.sol\":1248:1255  factory */\n      sload(0x01)\n        /* \"contracts/Market.sol\":3427:3431  bool */\n      0x00\n      swap1\n      sub(shl(0xa0, 0x01), 0x01)\n        /* \"contracts/Market.sol\":1248:1255  factory */\n      and\n        /* \"contracts/Market.sol\":1234:1244  msg.sender */\n      caller\n        /* \"contracts/Market.sol\":1234:1255  msg.sender == factory */\n      eq\n        /* \"contracts/Market.sol\":1213:1288  require(... */\n      tag_217\n      jumpi\n      mload(0x40)\n      shl(0xe5, 0x461bcd)\n      dup2\n      mstore\n        /* \"#utility.yul\":6034:6036   */\n      0x20\n        /* \"contracts/Market.sol\":1213:1288  require(... */\n      0x04\n      dup3\n      add\n        /* \"#utility.yul\":6016:6037   */\n      mstore\n        /* \"#utility.yul\":6073:6074   */\n      0x07\n        /* \"#utility.yul\":6053:6071   */\n      0x24\n      dup3\n      add\n        /* \"#utility.yul\":6046:6075   */\n      mstore\n      shl(0xc8, 0x6f776e6572206f)\n        /* \"#utility.yul\":6091:6109   */\n      0x44\n      dup3\n      add\n        /* \"#utility.yul\":6084:6121   */\n      mstore\n        /* \"#utility.yul\":6138:6156   */\n      0x64\n      add\n        /* \"contracts/Market.sol\":1213:1288  require(... */\n      tag_68\n        /* \"#utility.yul\":5832:6162   */\n      jump\n        /* \"contracts/Market.sol\":1213:1288  require(... */\n    tag_217:\n        /* \"contracts/Market.sol\":3457:3463  status */\n      sload(0x02)\n        /* \"contracts/Market.sol\":3457:3468  status == 0 */\n      iszero\n      dup1\n        /* \"contracts/Market.sol\":3457:3483  status == 0 || status == 4 */\n      tag_220\n      jumpi\n      pop\n        /* \"contracts/Market.sol\":3472:3478  status */\n      sload(0x02)\n        /* \"contracts/Market.sol\":3482:3483  4 */\n      0x04\n        /* \"contracts/Market.sol\":3472:3483  status == 4 */\n      eq\n        /* \"contracts/Market.sol\":3457:3483  status == 0 || status == 4 */\n    tag_220:\n        /* \"contracts/Market.sol\":3456:3528  (status == 0 || status == 4) && (_winningSide == 1 || _winningSide == 2) */\n      dup1\n      iszero\n      tag_222\n      jumpi\n      pop\n        /* \"contracts/Market.sol\":3489:3501  _winningSide */\n      dup2\n        /* \"contracts/Market.sol\":3505:3506  1 */\n      0x01\n        /* \"contracts/Market.sol\":3489:3506  _winningSide == 1 */\n      eq\n        /* \"contracts/Market.sol\":3489:3527  _winningSide == 1 || _winningSide == 2 */\n      dup1\n      tag_222\n      jumpi\n      pop\n        /* \"contracts/Market.sol\":3510:3522  _winningSide */\n      dup2\n        /* \"contracts/Market.sol\":3526:3527  2 */\n      0x02\n        /* \"contracts/Market.sol\":3510:3527  _winningSide == 2 */\n      eq\n        /* \"contracts/Market.sol\":3489:3527  _winningSide == 1 || _winningSide == 2 */\n    tag_222:\n        /* \"contracts/Market.sol\":3447:3539  require ((status == 0 || status == 4) && (_winningSide == 1 || _winningSide == 2), \"!x win\") */\n      tag_223\n      jumpi\n      mload(0x40)\n      shl(0xe5, 0x461bcd)\n      dup2\n      mstore\n        /* \"#utility.yul\":8912:8914   */\n      0x20\n        /* \"contracts/Market.sol\":3447:3539  require ((status == 0 || status == 4) && (_winningSide == 1 || _winningSide == 2), \"!x win\") */\n      0x04\n      dup3\n      add\n        /* \"#utility.yul\":8894:8915   */\n      mstore\n        /* \"#utility.yul\":8951:8952   */\n      0x06\n        /* \"#utility.yul\":8931:8949   */\n      0x24\n      dup3\n      add\n        /* \"#utility.yul\":8924:8953   */\n      mstore\n      shl(0xd1, 0x10bc103bb4b7)\n        /* \"#utility.yul\":8969:8987   */\n      0x44\n      dup3\n      add\n        /* \"#utility.yul\":8962:8998   */\n      mstore\n        /* \"#utility.yul\":9015:9033   */\n      0x64\n      add\n        /* \"contracts/Market.sol\":3447:3539  require ((status == 0 || status == 4) && (_winningSide == 1 || _winningSide == 2), \"!x win\") */\n      tag_68\n        /* \"#utility.yul\":8710:9039   */\n      jump\n        /* \"contracts/Market.sol\":3447:3539  require ((status == 0 || status == 4) && (_winningSide == 1 || _winningSide == 2), \"!x win\") */\n    tag_223:\n        /* \"contracts/Market.sol\":3549:3555  status */\n      0x02\n        /* \"contracts/Market.sol\":3549:3570  status = _winningSide */\n      dup3\n      swap1\n      sstore\n        /* \"contracts/Market.sol\":3584:3590  uint i */\n      0x00\n        /* \"contracts/Market.sol\":3580:3664  for(uint i = 0; i < pairs.length; i++){... */\n    tag_226:\n        /* \"contracts/Market.sol\":3600:3605  pairs */\n      0x03\n        /* \"contracts/Market.sol\":3600:3612  pairs.length */\n      sload\n        /* \"contracts/Market.sol\":3596:3612  i < pairs.length */\n      dup2\n      lt\n        /* \"contracts/Market.sol\":3580:3664  for(uint i = 0; i < pairs.length; i++){... */\n      iszero\n      tag_227\n      jumpi\n        /* \"contracts/Market.sol\":3632:3653  _settlePair(pairs[i]) */\n      tag_229\n        /* \"contracts/Market.sol\":3644:3649  pairs */\n      0x03\n        /* \"contracts/Market.sol\":3650:3651  i */\n      dup3\n        /* \"contracts/Market.sol\":3644:3652  pairs[i] */\n      dup2\n      sload\n      dup2\n      lt\n      tag_231\n      jumpi\n      tag_231\n      tag_61\n      jump\t// in\n    tag_231:\n      swap1\n      0x00\n      mstore\n      keccak256(0x00, 0x20)\n      add\n      sload\n        /* \"contracts/Market.sol\":3632:3643  _settlePair */\n      tag_101\n        /* \"contracts/Market.sol\":3632:3653  _settlePair(pairs[i]) */\n      jump\t// in\n    tag_229:\n        /* \"contracts/Market.sol\":3614:3617  i++ */\n      dup1\n      tag_233\n      dup2\n      tag_65\n      jump\t// in\n    tag_233:\n      swap2\n      pop\n      pop\n        /* \"contracts/Market.sol\":3580:3664  for(uint i = 0; i < pairs.length; i++){... */\n      jump(tag_226)\n    tag_227:\n      pop\n        /* \"contracts/Market.sol\":3680:3684  true */\n      0x01\n      swap3\n        /* \"contracts/Market.sol\":3336:3691  function settle(uint256 _winningSide)... */\n      swap2\n      pop\n      pop\n      jump\t// out\n        /* \"contracts/Market.sol\":8176:9525  function _settlePair(bytes32 _pair) private nonReentrant {... */\n    tag_101:\n        /* \"@openzeppelin/contracts/security/ReentrancyGuard.sol\":1744:1745  2 */\n      0x02\n        /* \"@openzeppelin/contracts/security/ReentrancyGuard.sol\":2325:2332  _status */\n      sload(0x00)\n        /* \"@openzeppelin/contracts/security/ReentrancyGuard.sol\":2325:2344  _status != _ENTERED */\n      sub\n        /* \"@openzeppelin/contracts/security/ReentrancyGuard.sol\":2317:2380  require(_status != _ENTERED, \"ReentrancyGuard: reentrant call\") */\n      tag_236\n      jumpi\n      mload(0x40)\n      shl(0xe5, 0x461bcd)\n      dup2\n      mstore\n      0x04\n      add\n      tag_68\n      swap1\n      tag_69\n      jump\t// in\n    tag_236:\n        /* \"@openzeppelin/contracts/security/ReentrancyGuard.sol\":1744:1745  2 */\n      0x02\n        /* \"@openzeppelin/contracts/security/ReentrancyGuard.sol\":2455:2462  _status */\n      0x00\n        /* \"@openzeppelin/contracts/security/ReentrancyGuard.sol\":2455:2473  _status = _ENTERED */\n      swap1\n      dup2\n      sstore\n        /* \"contracts/Market.sol\":8252:8268  pairsInfo[_pair] */\n      dup2\n      dup2\n      mstore\n        /* \"contracts/Market.sol\":8252:8261  pairsInfo */\n      0x09\n        /* \"contracts/Market.sol\":8252:8268  pairsInfo[_pair] */\n      0x20\n      mstore\n      0x40\n      swap1\n      keccak256\n        /* \"contracts/Market.sol\":8252:8276  pairsInfo[_pair].settled */\n      0x04\n      add\n      sload\n      0xff\n      and\n        /* \"contracts/Market.sol\":8251:8276  !pairsInfo[_pair].settled */\n      iszero\n        /* \"contracts/Market.sol\":8243:8296  require(!pairsInfo[_pair].settled, \"already settled\") */\n      tag_239\n      jumpi\n      mload(0x40)\n      shl(0xe5, 0x461bcd)\n      dup2\n      mstore\n        /* \"#utility.yul\":9246:9248   */\n      0x20\n        /* \"contracts/Market.sol\":8243:8296  require(!pairsInfo[_pair].settled, \"already settled\") */\n      0x04\n      dup3\n      add\n        /* \"#utility.yul\":9228:9249   */\n      mstore\n        /* \"#utility.yul\":9285:9287   */\n      0x0f\n        /* \"#utility.yul\":9265:9283   */\n      0x24\n      dup3\n      add\n        /* \"#utility.yul\":9258:9288   */\n      mstore\n      shl(0x8a, 0x185b1c9958591e481cd95d1d1b1959)\n        /* \"#utility.yul\":9304:9322   */\n      0x44\n      dup3\n      add\n        /* \"#utility.yul\":9297:9342   */\n      mstore\n        /* \"#utility.yul\":9359:9377   */\n      0x64\n      add\n        /* \"contracts/Market.sol\":8243:8296  require(!pairsInfo[_pair].settled, \"already settled\") */\n      tag_68\n        /* \"#utility.yul\":9044:9383   */\n      jump\n        /* \"contracts/Market.sol\":8243:8296  require(!pairsInfo[_pair].settled, \"already settled\") */\n    tag_239:\n        /* \"contracts/Market.sol\":8306:8320  address winner */\n      0x00\n        /* \"contracts/Market.sol\":8330:8347  address affiliate */\n      dup1\n        /* \"contracts/Market.sol\":8357:8374  uint256 winAmount */\n      0x00\n        /* \"contracts/Market.sol\":8384:8401  uint256 vigAmount */\n      dup1\n        /* \"contracts/Market.sol\":8414:8420  status */\n      sload(0x02)\n        /* \"contracts/Market.sol\":8424:8425  1 */\n      0x01\n        /* \"contracts/Market.sol\":8414:8425  status == 1 */\n      sub\n        /* \"contracts/Market.sol\":8411:9163  if(status == 1){... */\n      tag_242\n      jumpi\n        /* \"contracts/Market.sol\":8449:8484  betsInfo[pairsInfo[_pair].betHashA] */\n      0x00\n        /* \"contracts/Market.sol\":8458:8474  pairsInfo[_pair] */\n      dup6\n      dup2\n      mstore\n        /* \"contracts/Market.sol\":8458:8467  pairsInfo */\n      0x09\n        /* \"contracts/Market.sol\":8458:8474  pairsInfo[_pair] */\n      0x20\n      swap1\n      dup2\n      mstore\n      0x40\n      dup1\n      dup4\n      keccak256\n        /* \"contracts/Market.sol\":8458:8483  pairsInfo[_pair].betHashA */\n      sload\n        /* \"contracts/Market.sol\":8449:8484  betsInfo[pairsInfo[_pair].betHashA] */\n      dup4\n      mstore\n        /* \"contracts/Market.sol\":8449:8457  betsInfo */\n      0x07\n        /* \"contracts/Market.sol\":8449:8484  betsInfo[pairsInfo[_pair].betHashA] */\n      dup3\n      mstore\n      swap2\n      dup3\n      swap1\n      keccak256\n        /* \"contracts/Market.sol\":8449:8491  betsInfo[pairsInfo[_pair].betHashA].better */\n      sload\n        /* \"contracts/Market.sol\":8579:8588  app.vig() */\n      dup3\n      mload\n      shl(0xe0, 0x55c4a8bf)\n      dup2\n      mstore\n      swap3\n      mload\n      sub(shl(0xa0, 0x01), 0x01)\n        /* \"contracts/Market.sol\":8449:8491  betsInfo[pairsInfo[_pair].betHashA].better */\n      swap2\n      dup3\n      and\n      swap8\n      pop\n        /* \"contracts/Market.sol\":8592:8595  100 */\n      0x64\n      swap4\n        /* \"contracts/Market.sol\":8579:8582  app */\n      immutable(\"0xa4f21281edf90d86f21da3432ee4f5dff8abfbde6aab55afd7f9f7d4d3676c77\")\n        /* \"contracts/Market.sol\":8579:8586  app.vig */\n      swap1\n      swap3\n      and\n      swap3\n      0x55c4a8bf\n      swap3\n        /* \"contracts/Market.sol\":8579:8588  app.vig() */\n      0x04\n      dup1\n      dup3\n      add\n      swap4\n      swap2\n      dup3\n      swap1\n      sub\n      add\n      dup2\n        /* \"contracts/Market.sol\":8579:8586  app.vig */\n      dup7\n        /* \"contracts/Market.sol\":8579:8588  app.vig() */\n      gas\n      staticcall\n      iszero\n      dup1\n      iszero\n      tag_244\n      jumpi\n      returndatasize\n      0x00\n      dup1\n      returndatacopy\n      revert(0x00, returndatasize)\n    tag_244:\n      pop\n      pop\n      pop\n      pop\n      mload(0x40)\n      returndatasize\n      not(0x1f)\n      0x1f\n      dup3\n      add\n      and\n      dup3\n      add\n      dup1\n      0x40\n      mstore\n      pop\n      dup2\n      add\n      swap1\n      tag_245\n      swap2\n      swap1\n      tag_76\n      jump\t// in\n    tag_245:\n        /* \"contracts/Market.sol\":8573:8588  100 - app.vig() */\n      tag_246\n      swap1\n        /* \"contracts/Market.sol\":8573:8576  100 */\n      0x64\n        /* \"contracts/Market.sol\":8573:8588  100 - app.vig() */\n      tag_91\n      jump\t// in\n    tag_246:\n        /* \"contracts/Market.sol\":8545:8561  pairsInfo[_pair] */\n      0x00\n      dup8\n      dup2\n      mstore\n        /* \"contracts/Market.sol\":8545:8554  pairsInfo */\n      0x09\n        /* \"contracts/Market.sol\":8545:8561  pairsInfo[_pair] */\n      0x20\n      mstore\n      0x40\n      swap1\n      keccak256\n        /* \"contracts/Market.sol\":8545:8569  pairsInfo[_pair].amountB */\n      0x03\n      add\n      sload\n        /* \"contracts/Market.sol\":8545:8589  pairsInfo[_pair].amountB * (100 - app.vig()) */\n      tag_247\n      swap2\n      swap1\n      tag_160\n      jump\t// in\n    tag_247:\n        /* \"contracts/Market.sol\":8545:8595  pairsInfo[_pair].amountB * (100 - app.vig()) / 100 */\n      tag_248\n      swap2\n      swap1\n      tag_156\n      jump\t// in\n    tag_248:\n        /* \"contracts/Market.sol\":8517:8533  pairsInfo[_pair] */\n      0x00\n      dup7\n      dup2\n      mstore\n        /* \"contracts/Market.sol\":8517:8526  pairsInfo */\n      0x09\n        /* \"contracts/Market.sol\":8517:8533  pairsInfo[_pair] */\n      0x20\n      mstore\n      0x40\n      swap1\n      keccak256\n        /* \"contracts/Market.sol\":8517:8541  pairsInfo[_pair].amountA */\n      0x02\n      add\n      sload\n        /* \"contracts/Market.sol\":8517:8596  pairsInfo[_pair].amountA + (pairsInfo[_pair].amountB * (100 - app.vig()) / 100) */\n      tag_249\n      swap2\n      swap1\n      tag_183\n      jump\t// in\n    tag_249:\n        /* \"contracts/Market.sol\":8505:8596  winAmount = pairsInfo[_pair].amountA + (pairsInfo[_pair].amountB * (100 - app.vig()) / 100) */\n      swap2\n      pop\n        /* \"contracts/Market.sol\":8661:8664  100 */\n      0x64\n        /* \"contracts/Market.sol\":8649:8652  app */\n      immutable(\"0xa4f21281edf90d86f21da3432ee4f5dff8abfbde6aab55afd7f9f7d4d3676c77\")\n      sub(shl(0xa0, 0x01), 0x01)\n        /* \"contracts/Market.sol\":8649:8656  app.vig */\n      and\n      0x55c4a8bf\n        /* \"contracts/Market.sol\":8649:8658  app.vig() */\n      mload(0x40)\n      dup2\n      0xffffffff\n      and\n      0xe0\n      shl\n      dup2\n      mstore\n      0x04\n      add\n      0x20\n      mload(0x40)\n      dup1\n      dup4\n      sub\n      dup2\n      dup7\n      gas\n      staticcall\n      iszero\n      dup1\n      iszero\n      tag_251\n      jumpi\n      returndatasize\n      0x00\n      dup1\n      returndatacopy\n      revert(0x00, returndatasize)\n    tag_251:\n      pop\n      pop\n      pop\n      pop\n      mload(0x40)\n      returndatasize\n      not(0x1f)\n      0x1f\n      dup3\n      add\n      and\n      dup3\n      add\n      dup1\n      0x40\n      mstore\n      pop\n      dup2\n      add\n      swap1\n      tag_252\n      swap2\n      swap1\n      tag_76\n      jump\t// in\n    tag_252:\n        /* \"contracts/Market.sol\":8622:8638  pairsInfo[_pair] */\n      0x00\n      dup8\n      dup2\n      mstore\n        /* \"contracts/Market.sol\":8622:8631  pairsInfo */\n      0x09\n        /* \"contracts/Market.sol\":8622:8638  pairsInfo[_pair] */\n      0x20\n      mstore\n      0x40\n      swap1\n      keccak256\n        /* \"contracts/Market.sol\":8622:8646  pairsInfo[_pair].amountB */\n      0x03\n      add\n      sload\n        /* \"contracts/Market.sol\":8622:8658  pairsInfo[_pair].amountB * app.vig() */\n      tag_253\n      swap2\n      swap1\n      tag_160\n      jump\t// in\n    tag_253:\n        /* \"contracts/Market.sol\":8622:8664  pairsInfo[_pair].amountB * app.vig() / 100 */\n      tag_254\n      swap2\n      swap1\n      tag_156\n      jump\t// in\n    tag_254:\n        /* \"contracts/Market.sol\":8690:8725  betsInfo[pairsInfo[_pair].betHashA] */\n      0x00\n        /* \"contracts/Market.sol\":8699:8715  pairsInfo[_pair] */\n      dup7\n      dup2\n      mstore\n        /* \"contracts/Market.sol\":8699:8708  pairsInfo */\n      0x09\n        /* \"contracts/Market.sol\":8699:8715  pairsInfo[_pair] */\n      0x20\n      swap1\n      dup2\n      mstore\n      0x40\n      dup1\n      dup4\n      keccak256\n        /* \"contracts/Market.sol\":8699:8724  pairsInfo[_pair].betHashA */\n      sload\n        /* \"contracts/Market.sol\":8690:8725  betsInfo[pairsInfo[_pair].betHashA] */\n      dup4\n      mstore\n        /* \"contracts/Market.sol\":8690:8698  betsInfo */\n      0x07\n        /* \"contracts/Market.sol\":8690:8725  betsInfo[pairsInfo[_pair].betHashA] */\n      swap1\n      swap2\n      mstore\n      swap1\n      keccak256\n        /* \"contracts/Market.sol\":8690:8735  betsInfo[pairsInfo[_pair].betHashA].affiliate */\n      0x01\n      add\n      sload\n      sub(shl(0xa0, 0x01), 0x01)\n      and\n      swap4\n      pop\n        /* \"contracts/Market.sol\":8610:8664  vigAmount = pairsInfo[_pair].amountB * app.vig() / 100 */\n      swap1\n      pop\n        /* \"contracts/Market.sol\":8411:9163  if(status == 1){... */\n      jump(tag_269)\n    tag_242:\n        /* \"contracts/Market.sol\":8763:8769  status */\n      sload(0x02)\n        /* \"contracts/Market.sol\":8773:8774  2 */\n      0x02\n        /* \"contracts/Market.sol\":8763:8774  status == 2 */\n      sub\n        /* \"contracts/Market.sol\":8760:9163  if(status == 2){... */\n      tag_256\n      jumpi\n        /* \"contracts/Market.sol\":8798:8833  betsInfo[pairsInfo[_pair].betHashB] */\n      0x00\n        /* \"contracts/Market.sol\":8807:8823  pairsInfo[_pair] */\n      dup6\n      dup2\n      mstore\n        /* \"contracts/Market.sol\":8807:8816  pairsInfo */\n      0x09\n        /* \"contracts/Market.sol\":8807:8823  pairsInfo[_pair] */\n      0x20\n      swap1\n      dup2\n      mstore\n      0x40\n      dup1\n      dup4\n      keccak256\n        /* \"contracts/Market.sol\":8807:8832  pairsInfo[_pair].betHashB */\n      0x01\n      add\n      sload\n        /* \"contracts/Market.sol\":8798:8833  betsInfo[pairsInfo[_pair].betHashB] */\n      dup4\n      mstore\n        /* \"contracts/Market.sol\":8798:8806  betsInfo */\n      0x07\n        /* \"contracts/Market.sol\":8798:8833  betsInfo[pairsInfo[_pair].betHashB] */\n      dup3\n      mstore\n      swap2\n      dup3\n      swap1\n      keccak256\n        /* \"contracts/Market.sol\":8798:8840  betsInfo[pairsInfo[_pair].betHashB].better */\n      sload\n        /* \"contracts/Market.sol\":8928:8937  app.vig() */\n      dup3\n      mload\n      shl(0xe0, 0x55c4a8bf)\n      dup2\n      mstore\n      swap3\n      mload\n      sub(shl(0xa0, 0x01), 0x01)\n        /* \"contracts/Market.sol\":8798:8840  betsInfo[pairsInfo[_pair].betHashB].better */\n      swap2\n      dup3\n      and\n      swap8\n      pop\n        /* \"contracts/Market.sol\":8941:8944  100 */\n      0x64\n      swap4\n        /* \"contracts/Market.sol\":8928:8931  app */\n      immutable(\"0xa4f21281edf90d86f21da3432ee4f5dff8abfbde6aab55afd7f9f7d4d3676c77\")\n        /* \"contracts/Market.sol\":8928:8935  app.vig */\n      swap1\n      swap3\n      and\n      swap3\n      0x55c4a8bf\n      swap3\n        /* \"contracts/Market.sol\":8928:8937  app.vig() */\n      0x04\n      dup1\n      dup3\n      add\n      swap4\n      swap2\n      dup3\n      swap1\n      sub\n      add\n      dup2\n        /* \"contracts/Market.sol\":8928:8935  app.vig */\n      dup7\n        /* \"contracts/Market.sol\":8928:8937  app.vig() */\n      gas\n      staticcall\n      iszero\n      dup1\n      iszero\n      tag_258\n      jumpi\n      returndatasize\n      0x00\n      dup1\n      returndatacopy\n      revert(0x00, returndatasize)\n    tag_258:\n      pop\n      pop\n      pop\n      pop\n      mload(0x40)\n      returndatasize\n      not(0x1f)\n      0x1f\n      dup3\n      add\n      and\n      dup3\n      add\n      dup1\n      0x40\n      mstore\n      pop\n      dup2\n      add\n      swap1\n      tag_259\n      swap2\n      swap1\n      tag_76\n      jump\t// in\n    tag_259:\n        /* \"contracts/Market.sol\":8922:8937  100 - app.vig() */\n      tag_260\n      swap1\n        /* \"contracts/Market.sol\":8922:8925  100 */\n      0x64\n        /* \"contracts/Market.sol\":8922:8937  100 - app.vig() */\n      tag_91\n      jump\t// in\n    tag_260:\n        /* \"contracts/Market.sol\":8894:8910  pairsInfo[_pair] */\n      0x00\n      dup8\n      dup2\n      mstore\n        /* \"contracts/Market.sol\":8894:8903  pairsInfo */\n      0x09\n        /* \"contracts/Market.sol\":8894:8910  pairsInfo[_pair] */\n      0x20\n      mstore\n      0x40\n      swap1\n      keccak256\n        /* \"contracts/Market.sol\":8894:8918  pairsInfo[_pair].amountA */\n      0x02\n      add\n      sload\n        /* \"contracts/Market.sol\":8894:8938  pairsInfo[_pair].amountA * (100 - app.vig()) */\n      tag_261\n      swap2\n      swap1\n      tag_160\n      jump\t// in\n    tag_261:\n        /* \"contracts/Market.sol\":8894:8944  pairsInfo[_pair].amountA * (100 - app.vig()) / 100 */\n      tag_262\n      swap2\n      swap1\n      tag_156\n      jump\t// in\n    tag_262:\n        /* \"contracts/Market.sol\":8866:8882  pairsInfo[_pair] */\n      0x00\n      dup7\n      dup2\n      mstore\n        /* \"contracts/Market.sol\":8866:8875  pairsInfo */\n      0x09\n        /* \"contracts/Market.sol\":8866:8882  pairsInfo[_pair] */\n      0x20\n      mstore\n      0x40\n      swap1\n      keccak256\n        /* \"contracts/Market.sol\":8866:8890  pairsInfo[_pair].amountB */\n      0x03\n      add\n      sload\n        /* \"contracts/Market.sol\":8866:8945  pairsInfo[_pair].amountB + (pairsInfo[_pair].amountA * (100 - app.vig()) / 100) */\n      tag_263\n      swap2\n      swap1\n      tag_183\n      jump\t// in\n    tag_263:\n        /* \"contracts/Market.sol\":8854:8945  winAmount = pairsInfo[_pair].amountB + (pairsInfo[_pair].amountA * (100 - app.vig()) / 100) */\n      swap2\n      pop\n        /* \"contracts/Market.sol\":9010:9013  100 */\n      0x64\n        /* \"contracts/Market.sol\":8998:9001  app */\n      immutable(\"0xa4f21281edf90d86f21da3432ee4f5dff8abfbde6aab55afd7f9f7d4d3676c77\")\n      sub(shl(0xa0, 0x01), 0x01)\n        /* \"contracts/Market.sol\":8998:9005  app.vig */\n      and\n      0x55c4a8bf\n        /* \"contracts/Market.sol\":8998:9007  app.vig() */\n      mload(0x40)\n      dup2\n      0xffffffff\n      and\n      0xe0\n      shl\n      dup2\n      mstore\n      0x04\n      add\n      0x20\n      mload(0x40)\n      dup1\n      dup4\n      sub\n      dup2\n      dup7\n      gas\n      staticcall\n      iszero\n      dup1\n      iszero\n      tag_265\n      jumpi\n      returndatasize\n      0x00\n      dup1\n      returndatacopy\n      revert(0x00, returndatasize)\n    tag_265:\n      pop\n      pop\n      pop\n      pop\n      mload(0x40)\n      returndatasize\n      not(0x1f)\n      0x1f\n      dup3\n      add\n      and\n      dup3\n      add\n      dup1\n      0x40\n      mstore\n      pop\n      dup2\n      add\n      swap1\n      tag_266\n      swap2\n      swap1\n      tag_76\n      jump\t// in\n    tag_266:\n        /* \"contracts/Market.sol\":8971:8987  pairsInfo[_pair] */\n      0x00\n      dup8\n      dup2\n      mstore\n        /* \"contracts/Market.sol\":8971:8980  pairsInfo */\n      0x09\n        /* \"contracts/Market.sol\":8971:8987  pairsInfo[_pair] */\n      0x20\n      mstore\n      0x40\n      swap1\n      keccak256\n        /* \"contracts/Market.sol\":8971:8995  pairsInfo[_pair].amountA */\n      0x02\n      add\n      sload\n        /* \"contracts/Market.sol\":8971:9007  pairsInfo[_pair].amountA * app.vig() */\n      tag_267\n      swap2\n      swap1\n      tag_160\n      jump\t// in\n    tag_267:\n        /* \"contracts/Market.sol\":8971:9013  pairsInfo[_pair].amountA * app.vig() / 100 */\n      tag_268\n      swap2\n      swap1\n      tag_156\n      jump\t// in\n    tag_268:\n        /* \"contracts/Market.sol\":9039:9074  betsInfo[pairsInfo[_pair].betHashB] */\n      0x00\n        /* \"contracts/Market.sol\":9048:9064  pairsInfo[_pair] */\n      dup7\n      dup2\n      mstore\n        /* \"contracts/Market.sol\":9048:9057  pairsInfo */\n      0x09\n        /* \"contracts/Market.sol\":9048:9064  pairsInfo[_pair] */\n      0x20\n      swap1\n      dup2\n      mstore\n      0x40\n      dup1\n      dup4\n      keccak256\n        /* \"contracts/Market.sol\":9048:9073  pairsInfo[_pair].betHashB */\n      0x01\n      swap1\n      dup2\n      add\n      sload\n        /* \"contracts/Market.sol\":9039:9074  betsInfo[pairsInfo[_pair].betHashB] */\n      dup5\n      mstore\n        /* \"contracts/Market.sol\":9039:9047  betsInfo */\n      0x07\n        /* \"contracts/Market.sol\":9039:9074  betsInfo[pairsInfo[_pair].betHashB] */\n      swap1\n      swap3\n      mstore\n      swap1\n      swap2\n      keccak256\n        /* \"contracts/Market.sol\":9039:9084  betsInfo[pairsInfo[_pair].betHashB].affiliate */\n      add\n      sload\n      sub(shl(0xa0, 0x01), 0x01)\n      and\n      swap4\n      pop\n        /* \"contracts/Market.sol\":8959:9013  vigAmount = pairsInfo[_pair].amountA * app.vig() / 100 */\n      swap1\n      pop\n        /* \"contracts/Market.sol\":8760:9163  if(status == 2){... */\n      jump(tag_269)\n    tag_256:\n        /* \"contracts/Market.sol\":9122:9152  revert(\"invalid winning side\") */\n      mload(0x40)\n      shl(0xe5, 0x461bcd)\n      dup2\n      mstore\n        /* \"#utility.yul\":9590:9592   */\n      0x20\n        /* \"contracts/Market.sol\":9122:9152  revert(\"invalid winning side\") */\n      0x04\n      dup3\n      add\n        /* \"#utility.yul\":9572:9593   */\n      mstore\n        /* \"#utility.yul\":9629:9631   */\n      0x14\n        /* \"#utility.yul\":9609:9627   */\n      0x24\n      dup3\n      add\n        /* \"#utility.yul\":9602:9632   */\n      mstore\n      shl(0x60, 0x696e76616c69642077696e6e696e672073696465)\n        /* \"#utility.yul\":9648:9666   */\n      0x44\n      dup3\n      add\n        /* \"#utility.yul\":9641:9691   */\n      mstore\n        /* \"#utility.yul\":9708:9726   */\n      0x64\n      add\n        /* \"contracts/Market.sol\":9122:9152  revert(\"invalid winning side\") */\n      tag_68\n        /* \"#utility.yul\":9388:9732   */\n      jump\n        /* \"contracts/Market.sol\":8760:9163  if(status == 2){... */\n    tag_269:\n      sub(shl(0xa0, 0x01), 0x01)\n        /* \"contracts/Market.sol\":9175:9200  affiliate == address(0x0) */\n      dup4\n      and\n        /* \"contracts/Market.sol\":9172:9251  if(affiliate == address(0x0)){... */\n      tag_272\n      jumpi\n        /* \"contracts/Market.sol\":9227:9230  app */\n      immutable(\"0xa4f21281edf90d86f21da3432ee4f5dff8abfbde6aab55afd7f9f7d4d3676c77\")\n      sub(shl(0xa0, 0x01), 0x01)\n        /* \"contracts/Market.sol\":9227:9238  app.ecoAddr */\n      and\n      0x09953b2f\n        /* \"contracts/Market.sol\":9227:9240  app.ecoAddr() */\n      mload(0x40)\n      dup2\n      0xffffffff\n      and\n      0xe0\n      shl\n      dup2\n      mstore\n      0x04\n      add\n      0x20\n      mload(0x40)\n      dup1\n      dup4\n      sub\n      dup2\n      dup7\n      gas\n      staticcall\n      iszero\n      dup1\n      iszero\n      tag_274\n      jumpi\n      returndatasize\n      0x00\n      dup1\n      returndatacopy\n      revert(0x00, returndatasize)\n    tag_274:\n      pop\n      pop\n      pop\n      pop\n      mload(0x40)\n      returndatasize\n      not(0x1f)\n      0x1f\n      dup3\n      add\n      and\n      dup3\n      add\n      dup1\n      0x40\n      mstore\n      pop\n      dup2\n      add\n      swap1\n      tag_275\n      swap2\n      swap1\n      tag_276\n      jump\t// in\n    tag_275:\n        /* \"contracts/Market.sol\":9215:9240  affiliate = app.ecoAddr() */\n      swap3\n      pop\n        /* \"contracts/Market.sol\":9172:9251  if(affiliate == address(0x0)){... */\n    tag_272:\n      sub(shl(0xa0, 0x01), 0x01)\n        /* \"contracts/Market.sol\":9260:9271  bal[winner] */\n      dup5\n      and\n      0x00\n      swap1\n      dup2\n      mstore\n        /* \"contracts/Market.sol\":9260:9263  bal */\n      0x06\n        /* \"contracts/Market.sol\":9260:9271  bal[winner] */\n      0x20\n      mstore\n      0x40\n      dup2\n      keccak256\n        /* \"contracts/Market.sol\":9260:9284  bal[winner] += winAmount */\n      dup1\n      sload\n        /* \"contracts/Market.sol\":9275:9284  winAmount */\n      dup5\n      swap3\n        /* \"contracts/Market.sol\":9260:9271  bal[winner] */\n      swap1\n        /* \"contracts/Market.sol\":9260:9284  bal[winner] += winAmount */\n      tag_277\n      swap1\n        /* \"contracts/Market.sol\":9275:9284  winAmount */\n      dup5\n      swap1\n        /* \"contracts/Market.sol\":9260:9284  bal[winner] += winAmount */\n      tag_183\n      jump\t// in\n    tag_277:\n      swap3\n      pop\n      pop\n      dup2\n      swap1\n      sstore\n      pop\n        /* \"contracts/Market.sol\":9342:9345  100 */\n      0x64\n        /* \"contracts/Market.sol\":9329:9332  app */\n      immutable(\"0xa4f21281edf90d86f21da3432ee4f5dff8abfbde6aab55afd7f9f7d4d3676c77\")\n      sub(shl(0xa0, 0x01), 0x01)\n        /* \"contracts/Market.sol\":9329:9337  app.hVig */\n      and\n      0x6a0ccd9d\n        /* \"contracts/Market.sol\":9329:9339  app.hVig() */\n      mload(0x40)\n      dup2\n      0xffffffff\n      and\n      0xe0\n      shl\n      dup2\n      mstore\n      0x04\n      add\n      0x20\n      mload(0x40)\n      dup1\n      dup4\n      sub\n      dup2\n      dup7\n      gas\n      staticcall\n      iszero\n      dup1\n      iszero\n      tag_279\n      jumpi\n      returndatasize\n      0x00\n      dup1\n      returndatacopy\n      revert(0x00, returndatasize)\n    tag_279:\n      pop\n      pop\n      pop\n      pop\n      mload(0x40)\n      returndatasize\n      not(0x1f)\n      0x1f\n      dup3\n      add\n      and\n      dup3\n      add\n      dup1\n      0x40\n      mstore\n      pop\n      dup2\n      add\n      swap1\n      tag_280\n      swap2\n      swap1\n      tag_76\n      jump\t// in\n    tag_280:\n        /* \"contracts/Market.sol\":9317:9339  vigAmount * app.hVig() */\n      tag_281\n      swap1\n        /* \"contracts/Market.sol\":9317:9326  vigAmount */\n      dup4\n        /* \"contracts/Market.sol\":9317:9339  vigAmount * app.hVig() */\n      tag_160\n      jump\t// in\n    tag_281:\n        /* \"contracts/Market.sol\":9317:9345  vigAmount * app.hVig() / 100 */\n      tag_282\n      swap2\n      swap1\n      tag_156\n      jump\t// in\n    tag_282:\n        /* \"contracts/Market.sol\":9294:9297  bal */\n      0x06\n        /* \"contracts/Market.sol\":9294:9313  bal[app.holdAddr()] */\n      0x00\n        /* \"contracts/Market.sol\":9298:9301  app */\n      immutable(\"0xa4f21281edf90d86f21da3432ee4f5dff8abfbde6aab55afd7f9f7d4d3676c77\")\n      sub(shl(0xa0, 0x01), 0x01)\n        /* \"contracts/Market.sol\":9298:9310  app.holdAddr */\n      and\n      0xb7640a54\n        /* \"contracts/Market.sol\":9298:9312  app.holdAddr() */\n      mload(0x40)\n      dup2\n      0xffffffff\n      and\n      0xe0\n      shl\n      dup2\n      mstore\n      0x04\n      add\n      0x20\n      mload(0x40)\n      dup1\n      dup4\n      sub\n      dup2\n      dup7\n      gas\n      staticcall\n      iszero\n      dup1\n      iszero\n      tag_284\n      jumpi\n      returndatasize\n      0x00\n      dup1\n      returndatacopy\n      revert(0x00, returndatasize)\n    tag_284:\n      pop\n      pop\n      pop\n      pop\n      mload(0x40)\n      returndatasize\n      not(0x1f)\n      0x1f\n      dup3\n      add\n      and\n      dup3\n      add\n      dup1\n      0x40\n      mstore\n      pop\n      dup2\n      add\n      swap1\n      tag_285\n      swap2\n      swap1\n      tag_276\n      jump\t// in\n    tag_285:\n      sub(shl(0xa0, 0x01), 0x01)\n        /* \"contracts/Market.sol\":9294:9313  bal[app.holdAddr()] */\n      and\n      sub(shl(0xa0, 0x01), 0x01)\n      and\n      dup2\n      mstore\n      0x20\n      add\n      swap1\n      dup2\n      mstore\n      0x20\n      add\n      0x00\n      keccak256\n      0x00\n        /* \"contracts/Market.sol\":9294:9345  bal[app.holdAddr()] += vigAmount * app.hVig() / 100 */\n      dup3\n      dup3\n      sload\n      tag_286\n      swap2\n      swap1\n      tag_183\n      jump\t// in\n    tag_286:\n      swap3\n      pop\n      pop\n      dup2\n      swap1\n      sstore\n      pop\n        /* \"contracts/Market.sol\":9402:9405  100 */\n      0x64\n        /* \"contracts/Market.sol\":9389:9392  app */\n      immutable(\"0xa4f21281edf90d86f21da3432ee4f5dff8abfbde6aab55afd7f9f7d4d3676c77\")\n      sub(shl(0xa0, 0x01), 0x01)\n        /* \"contracts/Market.sol\":9389:9397  app.eVig */\n      and\n      0x28576d45\n        /* \"contracts/Market.sol\":9389:9399  app.eVig() */\n      mload(0x40)\n      dup2\n      0xffffffff\n      and\n      0xe0\n      shl\n      dup2\n      mstore\n      0x04\n      add\n      0x20\n      mload(0x40)\n      dup1\n      dup4\n      sub\n      dup2\n      dup7\n      gas\n      staticcall\n      iszero\n      dup1\n      iszero\n      tag_288\n      jumpi\n      returndatasize\n      0x00\n      dup1\n      returndatacopy\n      revert(0x00, returndatasize)\n    tag_288:\n      pop\n      pop\n      pop\n      pop\n      mload(0x40)\n      returndatasize\n      not(0x1f)\n      0x1f\n      dup3\n      add\n      and\n      dup3\n      add\n      dup1\n      0x40\n      mstore\n      pop\n      dup2\n      add\n      swap1\n      tag_289\n      swap2\n      swap1\n      tag_76\n      jump\t// in\n    tag_289:\n        /* \"contracts/Market.sol\":9377:9399  vigAmount * app.eVig() */\n      tag_290\n      swap1\n        /* \"contracts/Market.sol\":9377:9386  vigAmount */\n      dup4\n        /* \"contracts/Market.sol\":9377:9399  vigAmount * app.eVig() */\n      tag_160\n      jump\t// in\n    tag_290:\n        /* \"contracts/Market.sol\":9377:9405  vigAmount * app.eVig() / 100 */\n      tag_291\n      swap2\n      swap1\n      tag_156\n      jump\t// in\n    tag_291:\n        /* \"contracts/Market.sol\":9355:9358  bal */\n      0x06\n        /* \"contracts/Market.sol\":9355:9373  bal[app.ecoAddr()] */\n      0x00\n        /* \"contracts/Market.sol\":9359:9362  app */\n      immutable(\"0xa4f21281edf90d86f21da3432ee4f5dff8abfbde6aab55afd7f9f7d4d3676c77\")\n      sub(shl(0xa0, 0x01), 0x01)\n        /* \"contracts/Market.sol\":9359:9370  app.ecoAddr */\n      and\n      0x09953b2f\n        /* \"contracts/Market.sol\":9359:9372  app.ecoAddr() */\n      mload(0x40)\n      dup2\n      0xffffffff\n      and\n      0xe0\n      shl\n      dup2\n      mstore\n      0x04\n      add\n      0x20\n      mload(0x40)\n      dup1\n      dup4\n      sub\n      dup2\n      dup7\n      gas\n      staticcall\n      iszero\n      dup1\n      iszero\n      tag_293\n      jumpi\n      returndatasize\n      0x00\n      dup1\n      returndatacopy\n      revert(0x00, returndatasize)\n    tag_293:\n      pop\n      pop\n      pop\n      pop\n      mload(0x40)\n      returndatasize\n      not(0x1f)\n      0x1f\n      dup3\n      add\n      and\n      dup3\n      add\n      dup1\n      0x40\n      mstore\n      pop\n      dup2\n      add\n      swap1\n      tag_294\n      swap2\n      swap1\n      tag_276\n      jump\t// in\n    tag_294:\n      sub(shl(0xa0, 0x01), 0x01)\n        /* \"contracts/Market.sol\":9355:9373  bal[app.ecoAddr()] */\n      and\n      sub(shl(0xa0, 0x01), 0x01)\n      and\n      dup2\n      mstore\n      0x20\n      add\n      swap1\n      dup2\n      mstore\n      0x20\n      add\n      0x00\n      keccak256\n      0x00\n        /* \"contracts/Market.sol\":9355:9405  bal[app.ecoAddr()] += vigAmount * app.eVig() / 100 */\n      dup3\n      dup3\n      sload\n      tag_295\n      swap2\n      swap1\n      tag_183\n      jump\t// in\n    tag_295:\n      swap3\n      pop\n      pop\n      dup2\n      swap1\n      sstore\n      pop\n        /* \"contracts/Market.sol\":9458:9461  100 */\n      0x64\n        /* \"contracts/Market.sol\":9445:9448  app */\n      immutable(\"0xa4f21281edf90d86f21da3432ee4f5dff8abfbde6aab55afd7f9f7d4d3676c77\")\n      sub(shl(0xa0, 0x01), 0x01)\n        /* \"contracts/Market.sol\":9445:9453  app.aVig */\n      and\n      0x54cd1a5c\n        /* \"contracts/Market.sol\":9445:9455  app.aVig() */\n      mload(0x40)\n      dup2\n      0xffffffff\n      and\n      0xe0\n      shl\n      dup2\n      mstore\n      0x04\n      add\n      0x20\n      mload(0x40)\n      dup1\n      dup4\n      sub\n      dup2\n      dup7\n      gas\n      staticcall\n      iszero\n      dup1\n      iszero\n      tag_297\n      jumpi\n      returndatasize\n      0x00\n      dup1\n      returndatacopy\n      revert(0x00, returndatasize)\n    tag_297:\n      pop\n      pop\n      pop\n      pop\n      mload(0x40)\n      returndatasize\n      not(0x1f)\n      0x1f\n      dup3\n      add\n      and\n      dup3\n      add\n      dup1\n      0x40\n      mstore\n      pop\n      dup2\n      add\n      swap1\n      tag_298\n      swap2\n      swap1\n      tag_76\n      jump\t// in\n    tag_298:\n        /* \"contracts/Market.sol\":9433:9455  vigAmount * app.aVig() */\n      tag_299\n      swap1\n        /* \"contracts/Market.sol\":9433:9442  vigAmount */\n      dup4\n        /* \"contracts/Market.sol\":9433:9455  vigAmount * app.aVig() */\n      tag_160\n      jump\t// in\n    tag_299:\n        /* \"contracts/Market.sol\":9433:9461  vigAmount * app.aVig() / 100 */\n      tag_300\n      swap2\n      swap1\n      tag_156\n      jump\t// in\n    tag_300:\n      sub(shl(0xa0, 0x01), 0x01)\n        /* \"contracts/Market.sol\":9415:9429  bal[affiliate] */\n      dup5\n      and\n      0x00\n      swap1\n      dup2\n      mstore\n        /* \"contracts/Market.sol\":9415:9418  bal */\n      0x06\n        /* \"contracts/Market.sol\":9415:9429  bal[affiliate] */\n      0x20\n      mstore\n      0x40\n      dup2\n      keccak256\n        /* \"contracts/Market.sol\":9415:9461  bal[affiliate] += vigAmount * app.aVig() / 100 */\n      dup1\n      sload\n        /* \"contracts/Market.sol\":9415:9429  bal[affiliate] */\n      swap1\n      swap2\n      swap1\n        /* \"contracts/Market.sol\":9415:9461  bal[affiliate] += vigAmount * app.aVig() / 100 */\n      tag_301\n      swap1\n      dup5\n      swap1\n      tag_183\n      jump\t// in\n    tag_301:\n      swap1\n      swap2\n      sstore\n      pop\n      pop\n      pop\n        /* \"contracts/Market.sol\":9471:9487  pairsInfo[_pair] */\n      0x00\n      dup5\n      dup2\n      mstore\n        /* \"contracts/Market.sol\":9471:9480  pairsInfo */\n      0x09\n        /* \"contracts/Market.sol\":9471:9487  pairsInfo[_pair] */\n      0x20\n      mstore\n      0x40\n      swap1\n      keccak256\n        /* \"contracts/Market.sol\":9471:9495  pairsInfo[_pair].settled */\n      0x04\n      add\n        /* \"contracts/Market.sol\":9471:9502  pairsInfo[_pair].settled = true */\n      dup1\n      sload\n      not(0xff)\n      and\n        /* \"contracts/Market.sol\":9498:9502  true */\n      0x01\n        /* \"contracts/Market.sol\":9471:9502  pairsInfo[_pair].settled = true */\n      or\n      swap1\n      sstore\n      pop\n      pop\n      pop\n      pop\n        /* \"@openzeppelin/contracts/security/ReentrancyGuard.sol\":1701:1702  1 */\n      0x01\n        /* \"@openzeppelin/contracts/security/ReentrancyGuard.sol\":2628:2635  _status */\n      0x00\n        /* \"@openzeppelin/contracts/security/ReentrancyGuard.sol\":2628:2650  _status = _NOT_ENTERED */\n      sstore\n        /* \"contracts/Market.sol\":8176:9525  function _settlePair(bytes32 _pair) private nonReentrant {... */\n      jump\t// out\n        /* \"contracts/Market.sol\":7818:8166  function _cancelPair(bytes32 _pair) private {... */\n    tag_119:\n        /* \"contracts/Market.sol\":7872:7887  address betterA */\n      0x00\n        /* \"contracts/Market.sol\":7899:7915  pairsInfo[_pair] */\n      dup2\n      dup2\n      mstore\n        /* \"contracts/Market.sol\":7899:7908  pairsInfo */\n      0x09\n        /* \"contracts/Market.sol\":7899:7915  pairsInfo[_pair] */\n      0x20\n      swap1\n      dup2\n      mstore\n      0x40\n      dup1\n      dup4\n      keccak256\n        /* \"contracts/Market.sol\":7899:7924  pairsInfo[_pair].betHashA */\n      dup1\n      sload\n        /* \"contracts/Market.sol\":7890:7925  betsInfo[pairsInfo[_pair].betHashA] */\n      dup5\n      mstore\n        /* \"contracts/Market.sol\":7890:7898  betsInfo */\n      0x07\n        /* \"contracts/Market.sol\":7890:7925  betsInfo[pairsInfo[_pair].betHashA] */\n      dup4\n      mstore\n      dup2\n      dup5\n      keccak256\n        /* \"contracts/Market.sol\":7890:7932  betsInfo[pairsInfo[_pair].betHashA].better */\n      sload\n      0x01\n        /* \"contracts/Market.sol\":7969:7994  pairsInfo[_pair].betHashB */\n      dup3\n      add\n      sload\n        /* \"contracts/Market.sol\":7960:7995  betsInfo[pairsInfo[_pair].betHashB] */\n      dup6\n      mstore\n      dup3\n      dup6\n      keccak256\n        /* \"contracts/Market.sol\":7960:8002  betsInfo[pairsInfo[_pair].betHashB].better */\n      sload\n        /* \"contracts/Market.sol\":8028:8052  pairsInfo[_pair].amountA */\n      0x02\n      swap1\n      swap3\n      add\n      sload\n      sub(shl(0xa0, 0x01), 0x01)\n        /* \"contracts/Market.sol\":7890:7932  betsInfo[pairsInfo[_pair].betHashA].better */\n      swap2\n      dup3\n      and\n        /* \"contracts/Market.sol\":8012:8024  bal[betterA] */\n      dup1\n      dup8\n      mstore\n        /* \"contracts/Market.sol\":8012:8015  bal */\n      0x06\n        /* \"contracts/Market.sol\":8012:8024  bal[betterA] */\n      swap1\n      swap6\n      mstore\n      swap3\n      dup6\n      keccak256\n        /* \"contracts/Market.sol\":8012:8052  bal[betterA] += pairsInfo[_pair].amountA */\n      dup1\n      sload\n        /* \"contracts/Market.sol\":7890:7932  betsInfo[pairsInfo[_pair].betHashA].better */\n      swap5\n      swap6\n        /* \"contracts/Market.sol\":7960:8002  betsInfo[pairsInfo[_pair].betHashB].better */\n      swap2\n      swap1\n      swap3\n      and\n      swap4\n        /* \"contracts/Market.sol\":8012:8052  bal[betterA] += pairsInfo[_pair].amountA */\n      tag_303\n      swap1\n        /* \"contracts/Market.sol\":8028:8052  pairsInfo[_pair].amountA */\n      dup5\n      swap1\n        /* \"contracts/Market.sol\":8012:8052  bal[betterA] += pairsInfo[_pair].amountA */\n      tag_183\n      jump\t// in\n    tag_303:\n      swap1\n      swap2\n      sstore\n      pop\n      pop\n        /* \"contracts/Market.sol\":8078:8094  pairsInfo[_pair] */\n      0x00\n      dup4\n      dup2\n      mstore\n        /* \"contracts/Market.sol\":8078:8087  pairsInfo */\n      0x09\n        /* \"contracts/Market.sol\":8078:8094  pairsInfo[_pair] */\n      0x20\n      swap1\n      dup2\n      mstore\n      0x40\n      dup1\n      dup4\n      keccak256\n        /* \"contracts/Market.sol\":8078:8102  pairsInfo[_pair].amountB */\n      0x03\n      add\n      sload\n      sub(shl(0xa0, 0x01), 0x01)\n        /* \"contracts/Market.sol\":8062:8074  bal[betterB] */\n      dup6\n      and\n      dup5\n      mstore\n        /* \"contracts/Market.sol\":8062:8065  bal */\n      0x06\n        /* \"contracts/Market.sol\":8062:8074  bal[betterB] */\n      swap1\n      swap3\n      mstore\n      dup3\n      keccak256\n        /* \"contracts/Market.sol\":8062:8102  bal[betterB] += pairsInfo[_pair].amountB */\n      dup1\n      sload\n        /* \"contracts/Market.sol\":8078:8102  pairsInfo[_pair].amountB */\n      swap2\n      swap3\n        /* \"contracts/Market.sol\":8062:8074  bal[betterB] */\n      swap1\n      swap2\n        /* \"contracts/Market.sol\":8062:8102  bal[betterB] += pairsInfo[_pair].amountB */\n      tag_304\n      swap1\n        /* \"contracts/Market.sol\":8078:8102  pairsInfo[_pair].amountB */\n      dup5\n      swap1\n        /* \"contracts/Market.sol\":8062:8102  bal[betterB] += pairsInfo[_pair].amountB */\n      tag_183\n      jump\t// in\n    tag_304:\n      swap1\n      swap2\n      sstore\n      pop\n      pop\n      pop\n        /* \"contracts/Market.sol\":8112:8128  pairsInfo[_pair] */\n      0x00\n      swap2\n      dup3\n      mstore\n      pop\n        /* \"contracts/Market.sol\":8112:8121  pairsInfo */\n      0x09\n        /* \"contracts/Market.sol\":8112:8128  pairsInfo[_pair] */\n      0x20\n      mstore\n      0x40\n      swap1\n      keccak256\n        /* \"contracts/Market.sol\":8112:8136  pairsInfo[_pair].settled */\n      0x04\n      add\n        /* \"contracts/Market.sol\":8112:8143  pairsInfo[_pair].settled = true */\n      dup1\n      sload\n      not(0xff)\n      and\n        /* \"contracts/Market.sol\":8139:8143  true */\n      0x01\n        /* \"contracts/Market.sol\":8112:8143  pairsInfo[_pair].settled = true */\n      or\n      swap1\n      sstore\n        /* \"contracts/Market.sol\":7818:8166  function _cancelPair(bytes32 _pair) private {... */\n      jump\t// out\n        /* \"contracts/Market.sol\":9531:10291  function _createBet(... */\n    tag_135:\n        /* \"contracts/Market.sol\":9730:9737  bytes32 */\n      0x00\n        /* \"contracts/Market.sol\":9753:9768  bytes32 betHash */\n      dup1\n        /* \"contracts/Market.sol\":9778:10100  while(true){... */\n    tag_306:\n        /* \"contracts/Market.sol\":9913:9917  bets */\n      0x04\n        /* \"contracts/Market.sol\":9913:9924  bets.length */\n      sload\n        /* \"contracts/Market.sol\":9823:10005  abi.encodePacked(... */\n      mload(0x40)\n      not(0xffffffffffffffffffffffff)\n        /* \"#utility.yul\":10304:10306   */\n      0x60\n        /* \"#utility.yul\":10300:10315   */\n      dup12\n      dup2\n      shl\n        /* \"#utility.yul\":10296:10320   */\n      dup3\n      and\n        /* \"contracts/Market.sol\":9823:10005  abi.encodePacked(... */\n      0x20\n      dup5\n      add\n        /* \"#utility.yul\":10284:10321   */\n      mstore\n        /* \"contracts/Market.sol\":9890:9894  this */\n      address\n        /* \"#utility.yul\":10355:10370   */\n      swap1\n      shl\n        /* \"#utility.yul\":10351:10375   */\n      and\n        /* \"#utility.yul\":10337:10349   */\n      0x34\n      dup3\n      add\n        /* \"#utility.yul\":10330:10376   */\n      mstore\n        /* \"#utility.yul\":10392:10404   */\n      0x48\n      dup2\n      add\n        /* \"#utility.yul\":10385:10413   */\n      swap2\n      swap1\n      swap2\n      mstore\n        /* \"contracts/Market.sol\":9942:9957  block.timestamp */\n      timestamp\n        /* \"#utility.yul\":10429:10441   */\n      0x68\n      dup3\n      add\n        /* \"#utility.yul\":10422:10450   */\n      mstore\n        /* \"contracts/Market.sol\":9975:9991  block.difficulty */\n      difficulty\n        /* \"#utility.yul\":10466:10479   */\n      0x88\n      dup3\n      add\n        /* \"#utility.yul\":10459:10488   */\n      mstore\n        /* \"#utility.yul\":10504:10517   */\n      0xa8\n      add\n        /* \"contracts/Market.sol\":9823:10005  abi.encodePacked(... */\n      0x40\n      dup1\n      mload\n      not(0x1f)\n      dup2\n      dup5\n      sub\n      add\n      dup2\n      mstore\n      swap2\n      dup2\n      mstore\n        /* \"contracts/Market.sol\":9813:10006  keccak256(abi.encodePacked(... */\n      dup2\n      mload\n        /* \"contracts/Market.sol\":9823:10005  abi.encodePacked(... */\n      0x20\n        /* \"contracts/Market.sol\":9813:10006  keccak256(abi.encodePacked(... */\n      swap3\n      dup4\n      add\n      keccak256\n        /* \"contracts/Market.sol\":10023:10040  betsInfo[betHash] */\n      0x00\n      dup2\n      dup2\n      mstore\n        /* \"contracts/Market.sol\":10023:10031  betsInfo */\n      0x07\n        /* \"contracts/Market.sol\":10023:10040  betsInfo[betHash] */\n      swap1\n      swap4\n      mstore\n      swap2\n      keccak256\n        /* \"contracts/Market.sol\":10023:10046  betsInfo[betHash].stake */\n      0x02\n      add\n      sload\n        /* \"contracts/Market.sol\":9813:10006  keccak256(abi.encodePacked(... */\n      swap1\n      swap2\n      pop\n        /* \"contracts/Market.sol\":9778:10100  while(true){... */\n      tag_306\n        /* \"contracts/Market.sol\":10020:10090  if(betsInfo[betHash].stake == 0){... */\n      jumpi\n        /* \"contracts/Market.sol\":10129:10191  MarketBet(_better, _affiliate, _stake, _matched, _odds, _side) */\n      0x40\n      dup1\n      mload\n      0xc0\n      dup2\n      add\n      dup3\n      mstore\n      sub(shl(0xa0, 0x01), 0x01)\n      swap10\n      dup11\n      and\n      dup1\n      dup3\n      mstore\n      swap9\n      dup11\n      and\n      0x20\n      dup1\n      dup4\n      add\n      swap2\n      dup3\n      mstore\n      dup3\n      dup5\n      add\n      swap10\n      dup11\n      mstore\n      0x60\n      dup4\n      add\n      swap9\n      dup10\n      mstore\n      0x80\n      dup4\n      add\n      swap8\n      dup9\n      mstore\n      0xa0\n      dup4\n      add\n      swap7\n      dup8\n      mstore\n      0x00\n        /* \"contracts/Market.sol\":10109:10126  betsInfo[betHash] */\n      dup6\n      dup2\n      mstore\n        /* \"contracts/Market.sol\":10109:10117  betsInfo */\n      0x07\n        /* \"contracts/Market.sol\":10109:10126  betsInfo[betHash] */\n      dup3\n      mstore\n      dup5\n      dup2\n      keccak256\n        /* \"contracts/Market.sol\":10109:10191  betsInfo[betHash] = MarketBet(_better, _affiliate, _stake, _matched, _odds, _side) */\n      swap4\n      mload\n      dup5\n      sload\n      swap1\n      dup15\n      and\n      not(sub(shl(0xa0, 0x01), 0x01))\n      swap2\n      dup3\n      and\n      or\n      dup6\n      sstore\n      swap3\n      mload\n      0x01\n      dup1\n      dup7\n      add\n      dup1\n      sload\n      swap3\n      swap1\n      swap16\n      and\n      swap2\n      swap1\n      swap5\n      and\n      or\n      swap1\n      swap13\n      sstore\n      swap9\n      mload\n      0x02\n      dup4\n      add\n      sstore\n      swap7\n      mload\n      0x03\n      dup3\n      add\n      sstore\n      swap5\n      mload\n      0x04\n      dup1\n      dup8\n      add\n      swap2\n      swap1\n      swap2\n      sstore\n      swap4\n      mload\n      0x05\n      swap1\n      swap6\n      add\n      swap5\n      swap1\n      swap5\n      sstore\n        /* \"contracts/Market.sol\":10201:10219  bets.push(betHash) */\n      dup3\n      sload\n      dup1\n      dup7\n      add\n      swap1\n      swap4\n      sstore\n      0x8a35acfbc15ff81a39ae7d344fd709f28e8600b4aa8c65c6b64bfe7fe36bd19b\n      swap1\n      swap3\n      add\n      dup3\n      swap1\n      sstore\n      pop\n        /* \"contracts/Market.sol\":10229:10246  userBets[_better] */\n      swap4\n      dup6\n      mstore\n        /* \"contracts/Market.sol\":10229:10237  userBets */\n      0x08\n        /* \"contracts/Market.sol\":10229:10246  userBets[_better] */\n      dup4\n      mstore\n      dup5\n      keccak256\n        /* \"contracts/Market.sol\":10229:10260  userBets[_better].push(betHash) */\n      dup1\n      sload\n      swap2\n      dup3\n      add\n      dup2\n      sstore\n      dup5\n      mstore\n      swap3\n      keccak256\n      swap1\n      swap2\n      add\n      dup2\n      swap1\n      sstore\n        /* \"contracts/Market.sol\":10109:10126  betsInfo[betHash] */\n      swap1\n        /* \"contracts/Market.sol\":9531:10291  function _createBet(... */\n      jump\t// out\n        /* \"contracts/Market.sol\":10297:10982  function _createPair(... */\n    tag_163:\n        /* \"contracts/Market.sol\":10455:10462  bytes32 */\n      0x00\n        /* \"contracts/Market.sol\":10478:10494  bytes32 pairHash */\n      dup1\n        /* \"contracts/Market.sol\":10504:10830  while(true){... */\n    tag_314:\n        /* \"contracts/Market.sol\":10638:10643  pairs */\n      0x03\n        /* \"contracts/Market.sol\":10638:10650  pairs.length */\n      sload\n        /* \"contracts/Market.sol\":10550:10731  abi.encodePacked(... */\n      0x40\n      dup1\n      mload\n      0x20\n      dup2\n      add\n        /* \"#utility.yul\":10769:10788   */\n      dup10\n      swap1\n      mstore\n        /* \"#utility.yul\":10804:10816   */\n      swap1\n      dup2\n      add\n        /* \"#utility.yul\":10797:10825   */\n      dup8\n      swap1\n      mstore\n        /* \"#utility.yul\":10841:10853   */\n      0x60\n      dup2\n      add\n        /* \"#utility.yul\":10834:10862   */\n      swap2\n      swap1\n      swap2\n      mstore\n        /* \"contracts/Market.sol\":10668:10683  block.timestamp */\n      timestamp\n        /* \"#utility.yul\":10878:10890   */\n      0x80\n      dup3\n      add\n        /* \"#utility.yul\":10871:10899   */\n      mstore\n        /* \"contracts/Market.sol\":10701:10717  block.difficulty */\n      difficulty\n        /* \"#utility.yul\":10915:10928   */\n      0xa0\n      dup3\n      add\n        /* \"#utility.yul\":10908:10937   */\n      mstore\n        /* \"#utility.yul\":10953:10966   */\n      0xc0\n      add\n        /* \"contracts/Market.sol\":10550:10731  abi.encodePacked(... */\n      0x40\n      dup1\n      mload\n      not(0x1f)\n      dup2\n      dup5\n      sub\n      add\n      dup2\n      mstore\n      swap2\n      dup2\n      mstore\n        /* \"contracts/Market.sol\":10540:10732  keccak256(abi.encodePacked(... */\n      dup2\n      mload\n        /* \"contracts/Market.sol\":10550:10731  abi.encodePacked(... */\n      0x20\n        /* \"contracts/Market.sol\":10540:10732  keccak256(abi.encodePacked(... */\n      swap3\n      dup4\n      add\n      keccak256\n        /* \"contracts/Market.sol\":10749:10768  pairsInfo[pairHash] */\n      0x00\n      dup2\n      dup2\n      mstore\n        /* \"contracts/Market.sol\":10749:10758  pairsInfo */\n      0x09\n        /* \"contracts/Market.sol\":10749:10768  pairsInfo[pairHash] */\n      swap1\n      swap4\n      mstore\n      swap2\n      keccak256\n        /* \"contracts/Market.sol\":10749:10776  pairsInfo[pairHash].amountA */\n      0x02\n      add\n      sload\n        /* \"contracts/Market.sol\":10540:10732  keccak256(abi.encodePacked(... */\n      swap1\n      swap2\n      pop\n        /* \"contracts/Market.sol\":10504:10830  while(true){... */\n      tag_314\n        /* \"contracts/Market.sol\":10746:10820  if(pairsInfo[pairHash].amountA == 0){... */\n      jumpi\n        /* \"contracts/Market.sol\":10861:10920  MarketPair(_betHashA, _betHashB, _amountA, _amountB, false) */\n      0x40\n      dup1\n      mload\n      0xa0\n      dup2\n      add\n      dup3\n      mstore\n      swap7\n      dup8\n      mstore\n      0x20\n      dup1\n      dup9\n      add\n      swap7\n      dup8\n      mstore\n      dup8\n      dup3\n      add\n      swap6\n      dup7\n      mstore\n      0x60\n      dup9\n      add\n      swap5\n      dup6\n      mstore\n      0x00\n      0x80\n      dup10\n      add\n      dup2\n      dup2\n      mstore\n        /* \"contracts/Market.sol\":10839:10858  pairsInfo[pairHash] */\n      dup5\n      dup3\n      mstore\n        /* \"contracts/Market.sol\":10839:10848  pairsInfo */\n      0x09\n        /* \"contracts/Market.sol\":10839:10858  pairsInfo[pairHash] */\n      swap1\n      swap3\n      mstore\n      swap2\n      dup3\n      keccak256\n        /* \"contracts/Market.sol\":10839:10920  pairsInfo[pairHash] = MarketPair(_betHashA, _betHashB, _amountA, _amountB, false) */\n      swap8\n      mload\n      dup9\n      sstore\n      swap6\n      mload\n        /* \"contracts/Market.sol\":10861:10920  MarketPair(_betHashA, _betHashB, _amountA, _amountB, false) */\n      0x01\n        /* \"contracts/Market.sol\":10839:10920  pairsInfo[pairHash] = MarketPair(_betHashA, _betHashB, _amountA, _amountB, false) */\n      dup1\n      dup10\n      add\n      swap2\n      swap1\n      swap2\n      sstore\n      swap5\n      mload\n      0x02\n      dup9\n      add\n      sstore\n      swap3\n      mload\n      0x03\n      dup1\n      dup9\n      add\n      swap2\n      swap1\n      swap2\n      sstore\n      swap5\n      mload\n      0x04\n      swap1\n      swap7\n      add\n      dup1\n      sload\n      not(0xff)\n      and\n      swap7\n      iszero\n      iszero\n      swap7\n      swap1\n      swap7\n      or\n      swap1\n      swap6\n      sstore\n      pop\n        /* \"contracts/Market.sol\":10930:10950  pairs.push(pairHash) */\n      dup3\n      sload\n      swap2\n      dup3\n      add\n      dup4\n      sstore\n      swap2\n      swap1\n      swap2\n      mstore\n      0xc2575a0e9e593c00f959f8c92f12db2869c3395a3b0502d05e2516446f71f85b\n      add\n      dup2\n      swap1\n      sstore\n        /* \"contracts/Market.sol\":10839:10858  pairsInfo[pairHash] */\n      swap1\n        /* \"contracts/Market.sol\":10297:10982  function _createPair(... */\n      jump\t// out\n        /* \"#utility.yul\":196:327   */\n    tag_320:\n      sub(shl(0xa0, 0x01), 0x01)\n        /* \"#utility.yul\":271:302   */\n      dup2\n      and\n        /* \"#utility.yul\":261:303   */\n      dup2\n      eq\n        /* \"#utility.yul\":251:321   */\n      tag_326\n      jumpi\n        /* \"#utility.yul\":317:318   */\n      0x00\n        /* \"#utility.yul\":314:315   */\n      dup1\n        /* \"#utility.yul\":307:319   */\n      revert\n        /* \"#utility.yul\":251:321   */\n    tag_326:\n        /* \"#utility.yul\":196:327   */\n      pop\n      jump\t// out\n        /* \"#utility.yul\":332:579   */\n    tag_19:\n        /* \"#utility.yul\":391:397   */\n      0x00\n        /* \"#utility.yul\":444:446   */\n      0x20\n        /* \"#utility.yul\":432:441   */\n      dup3\n        /* \"#utility.yul\":423:430   */\n      dup5\n        /* \"#utility.yul\":419:442   */\n      sub\n        /* \"#utility.yul\":415:447   */\n      slt\n        /* \"#utility.yul\":412:464   */\n      iszero\n      tag_328\n      jumpi\n        /* \"#utility.yul\":460:461   */\n      0x00\n        /* \"#utility.yul\":457:458   */\n      dup1\n        /* \"#utility.yul\":450:462   */\n      revert\n        /* \"#utility.yul\":412:464   */\n    tag_328:\n        /* \"#utility.yul\":499:508   */\n      dup2\n        /* \"#utility.yul\":486:509   */\n      calldataload\n        /* \"#utility.yul\":518:549   */\n      tag_329\n        /* \"#utility.yul\":543:548   */\n      dup2\n        /* \"#utility.yul\":518:549   */\n      tag_320\n      jump\t// in\n    tag_329:\n        /* \"#utility.yul\":568:573   */\n      swap4\n        /* \"#utility.yul\":332:579   */\n      swap3\n      pop\n      pop\n      pop\n      jump\t// out\n        /* \"#utility.yul\":584:1731   */\n    tag_22:\n        /* \"#utility.yul\":809:811   */\n      0x20\n        /* \"#utility.yul\":861:882   */\n      dup1\n      dup3\n      mstore\n        /* \"#utility.yul\":931:944   */\n      dup3\n      mload\n        /* \"#utility.yul\":834:852   */\n      dup3\n      dup3\n      add\n        /* \"#utility.yul\":953:975   */\n      dup2\n      swap1\n      mstore\n        /* \"#utility.yul\":780:784   */\n      0x00\n      swap2\n        /* \"#utility.yul\":809:811   */\n      swap1\n        /* \"#utility.yul\":994:996   */\n      0x40\n      swap1\n        /* \"#utility.yul\":1012:1030   */\n      dup2\n      dup6\n      add\n      swap1\n        /* \"#utility.yul\":1053:1068   */\n      dup7\n      dup5\n      add\n        /* \"#utility.yul\":780:784   */\n      dup6\n        /* \"#utility.yul\":1096:1705   */\n    tag_331:\n        /* \"#utility.yul\":1110:1116   */\n      dup3\n        /* \"#utility.yul\":1107:1108   */\n      dup2\n        /* \"#utility.yul\":1104:1117   */\n      lt\n        /* \"#utility.yul\":1096:1705   */\n      iszero\n      tag_333\n      jumpi\n        /* \"#utility.yul\":1169:1182   */\n      dup2\n      mload\n        /* \"#utility.yul\":1253:1262   */\n      dup1\n      mload\n      sub(shl(0xa0, 0x01), 0x01)\n        /* \"#utility.yul\":1249:1267   */\n      swap1\n      dup2\n      and\n        /* \"#utility.yul\":1237:1268   */\n      dup7\n      mstore\n        /* \"#utility.yul\":1312:1323   */\n      dup8\n      dup3\n      add\n        /* \"#utility.yul\":1306:1324   */\n      mload\n        /* \"#utility.yul\":1302:1329   */\n      and\n        /* \"#utility.yul\":1288:1300   */\n      dup8\n      dup7\n      add\n        /* \"#utility.yul\":1281:1330   */\n      mstore\n        /* \"#utility.yul\":1370:1381   */\n      dup6\n      dup2\n      add\n        /* \"#utility.yul\":1364:1382   */\n      mload\n        /* \"#utility.yul\":1350:1362   */\n      dup7\n      dup7\n      add\n        /* \"#utility.yul\":1343:1383   */\n      mstore\n        /* \"#utility.yul\":1406:1410   */\n      0x60\n        /* \"#utility.yul\":1450:1461   */\n      dup1\n      dup3\n      add\n        /* \"#utility.yul\":1444:1462   */\n      mload\n        /* \"#utility.yul\":1430:1442   */\n      swap1\n      dup7\n      add\n        /* \"#utility.yul\":1423:1463   */\n      mstore\n        /* \"#utility.yul\":1486:1490   */\n      0x80\n        /* \"#utility.yul\":1530:1541   */\n      dup1\n      dup3\n      add\n        /* \"#utility.yul\":1524:1542   */\n      mload\n        /* \"#utility.yul\":1510:1522   */\n      swap1\n      dup7\n      add\n        /* \"#utility.yul\":1503:1543   */\n      mstore\n        /* \"#utility.yul\":1213:1216   */\n      0xa0\n        /* \"#utility.yul\":1610:1621   */\n      swap1\n      dup2\n      add\n        /* \"#utility.yul\":1604:1622   */\n      mload\n        /* \"#utility.yul\":1590:1602   */\n      swap1\n      dup6\n      add\n        /* \"#utility.yul\":1583:1623   */\n      mstore\n        /* \"#utility.yul\":1652:1656   */\n      0xc0\n        /* \"#utility.yul\":1643:1657   */\n      swap1\n      swap4\n      add\n      swap3\n        /* \"#utility.yul\":1680:1695   */\n      swap1\n      dup6\n      add\n      swap1\n        /* \"#utility.yul\":1222:1223   */\n      0x01\n        /* \"#utility.yul\":1125:1134   */\n      add\n        /* \"#utility.yul\":1096:1705   */\n      jump(tag_331)\n    tag_333:\n      pop\n        /* \"#utility.yul\":1722:1725   */\n      swap2\n      swap8\n        /* \"#utility.yul\":584:1731   */\n      swap7\n      pop\n      pop\n      pop\n      pop\n      pop\n      pop\n      pop\n      jump\t// out\n        /* \"#utility.yul\":1928:2108   */\n    tag_30:\n        /* \"#utility.yul\":1987:1993   */\n      0x00\n        /* \"#utility.yul\":2040:2042   */\n      0x20\n        /* \"#utility.yul\":2028:2037   */\n      dup3\n        /* \"#utility.yul\":2019:2026   */\n      dup5\n        /* \"#utility.yul\":2015:2038   */\n      sub\n        /* \"#utility.yul\":2011:2043   */\n      slt\n        /* \"#utility.yul\":2008:2060   */\n      iszero\n      tag_336\n      jumpi\n        /* \"#utility.yul\":2056:2057   */\n      0x00\n        /* \"#utility.yul\":2053:2054   */\n      dup1\n        /* \"#utility.yul\":2046:2058   */\n      revert\n        /* \"#utility.yul\":2008:2060   */\n    tag_336:\n      pop\n        /* \"#utility.yul\":2079:2102   */\n      calldataload\n      swap2\n        /* \"#utility.yul\":1928:2108   */\n      swap1\n      pop\n      jump\t// out\n        /* \"#utility.yul\":2113:2231   */\n    tag_321:\n        /* \"#utility.yul\":2199:2204   */\n      dup1\n        /* \"#utility.yul\":2192:2205   */\n      iszero\n        /* \"#utility.yul\":2185:2206   */\n      iszero\n        /* \"#utility.yul\":2178:2183   */\n      dup2\n        /* \"#utility.yul\":2175:2207   */\n      eq\n        /* \"#utility.yul\":2165:2225   */\n      tag_326\n      jumpi\n        /* \"#utility.yul\":2221:2222   */\n      0x00\n        /* \"#utility.yul\":2218:2219   */\n      dup1\n        /* \"#utility.yul\":2211:2223   */\n      revert\n        /* \"#utility.yul\":2236:2966   */\n    tag_37:\n        /* \"#utility.yul\":2337:2343   */\n      0x00\n        /* \"#utility.yul\":2345:2351   */\n      dup1\n        /* \"#utility.yul\":2353:2359   */\n      0x00\n        /* \"#utility.yul\":2361:2367   */\n      dup1\n        /* \"#utility.yul\":2369:2375   */\n      0x00\n        /* \"#utility.yul\":2377:2383   */\n      dup1\n        /* \"#utility.yul\":2430:2433   */\n      0xc0\n        /* \"#utility.yul\":2418:2427   */\n      dup8\n        /* \"#utility.yul\":2409:2416   */\n      dup10\n        /* \"#utility.yul\":2405:2428   */\n      sub\n        /* \"#utility.yul\":2401:2434   */\n      slt\n        /* \"#utility.yul\":2398:2451   */\n      iszero\n      tag_340\n      jumpi\n        /* \"#utility.yul\":2447:2448   */\n      0x00\n        /* \"#utility.yul\":2444:2445   */\n      dup1\n        /* \"#utility.yul\":2437:2449   */\n      revert\n        /* \"#utility.yul\":2398:2451   */\n    tag_340:\n        /* \"#utility.yul\":2486:2495   */\n      dup7\n        /* \"#utility.yul\":2473:2496   */\n      calldataload\n        /* \"#utility.yul\":2505:2536   */\n      tag_341\n        /* \"#utility.yul\":2530:2535   */\n      dup2\n        /* \"#utility.yul\":2505:2536   */\n      tag_320\n      jump\t// in\n    tag_341:\n        /* \"#utility.yul\":2555:2560   */\n      swap6\n      pop\n        /* \"#utility.yul\":2612:2614   */\n      0x20\n        /* \"#utility.yul\":2597:2615   */\n      dup8\n      add\n        /* \"#utility.yul\":2584:2616   */\n      calldataload\n        /* \"#utility.yul\":2625:2658   */\n      tag_342\n        /* \"#utility.yul\":2584:2616   */\n      dup2\n        /* \"#utility.yul\":2625:2658   */\n      tag_320\n      jump\t// in\n    tag_342:\n        /* \"#utility.yul\":2677:2684   */\n      swap5\n      pop\n        /* \"#utility.yul\":2731:2733   */\n      0x40\n        /* \"#utility.yul\":2716:2734   */\n      dup8\n      add\n        /* \"#utility.yul\":2703:2735   */\n      calldataload\n      swap4\n      pop\n        /* \"#utility.yul\":2782:2784   */\n      0x60\n        /* \"#utility.yul\":2767:2785   */\n      dup8\n      add\n        /* \"#utility.yul\":2754:2786   */\n      calldataload\n      swap3\n      pop\n        /* \"#utility.yul\":2833:2836   */\n      0x80\n        /* \"#utility.yul\":2818:2837   */\n      dup8\n      add\n        /* \"#utility.yul\":2805:2838   */\n      calldataload\n      swap2\n      pop\n        /* \"#utility.yul\":2890:2893   */\n      0xa0\n        /* \"#utility.yul\":2875:2894   */\n      dup8\n      add\n        /* \"#utility.yul\":2862:2895   */\n      calldataload\n        /* \"#utility.yul\":2904:2934   */\n      tag_343\n        /* \"#utility.yul\":2862:2895   */\n      dup2\n        /* \"#utility.yul\":2904:2934   */\n      tag_321\n      jump\t// in\n    tag_343:\n        /* \"#utility.yul\":2953:2960   */\n      dup1\n        /* \"#utility.yul\":2943:2960   */\n      swap2\n      pop\n      pop\n        /* \"#utility.yul\":2236:2966   */\n      swap3\n      swap6\n      pop\n      swap3\n      swap6\n      pop\n      swap3\n      swap6\n      jump\t// out\n        /* \"#utility.yul\":3338:3465   */\n    tag_61:\n        /* \"#utility.yul\":3399:3409   */\n      0x4e487b71\n        /* \"#utility.yul\":3394:3397   */\n      0xe0\n        /* \"#utility.yul\":3390:3410   */\n      shl\n        /* \"#utility.yul\":3387:3388   */\n      0x00\n        /* \"#utility.yul\":3380:3411   */\n      mstore\n        /* \"#utility.yul\":3430:3434   */\n      0x32\n        /* \"#utility.yul\":3427:3428   */\n      0x04\n        /* \"#utility.yul\":3420:3435   */\n      mstore\n        /* \"#utility.yul\":3454:3458   */\n      0x24\n        /* \"#utility.yul\":3451:3452   */\n      0x00\n        /* \"#utility.yul\":3444:3459   */\n      revert\n        /* \"#utility.yul\":3470:3597   */\n    tag_322:\n        /* \"#utility.yul\":3531:3541   */\n      0x4e487b71\n        /* \"#utility.yul\":3526:3529   */\n      0xe0\n        /* \"#utility.yul\":3522:3542   */\n      shl\n        /* \"#utility.yul\":3519:3520   */\n      0x00\n        /* \"#utility.yul\":3512:3543   */\n      mstore\n        /* \"#utility.yul\":3562:3566   */\n      0x11\n        /* \"#utility.yul\":3559:3560   */\n      0x04\n        /* \"#utility.yul\":3552:3567   */\n      mstore\n        /* \"#utility.yul\":3586:3590   */\n      0x24\n        /* \"#utility.yul\":3583:3584   */\n      0x00\n        /* \"#utility.yul\":3576:3591   */\n      revert\n        /* \"#utility.yul\":3602:3737   */\n    tag_65:\n        /* \"#utility.yul\":3641:3644   */\n      0x00\n        /* \"#utility.yul\":3662:3679   */\n      0x01\n      dup3\n      add\n        /* \"#utility.yul\":3659:3702   */\n      tag_351\n      jumpi\n        /* \"#utility.yul\":3682:3700   */\n      tag_351\n      tag_322\n      jump\t// in\n    tag_351:\n      pop\n        /* \"#utility.yul\":3729:3730   */\n      0x01\n        /* \"#utility.yul\":3718:3731   */\n      add\n      swap1\n        /* \"#utility.yul\":3602:3737   */\n      jump\t// out\n        /* \"#utility.yul\":3742:4097   */\n    tag_69:\n        /* \"#utility.yul\":3944:3946   */\n      0x20\n        /* \"#utility.yul\":3926:3947   */\n      dup1\n      dup3\n      mstore\n        /* \"#utility.yul\":3983:3985   */\n      0x1f\n        /* \"#utility.yul\":3963:3981   */\n      swap1\n      dup3\n      add\n        /* \"#utility.yul\":3956:3986   */\n      mstore\n        /* \"#utility.yul\":4022:4055   */\n      0x5265656e7472616e637947756172643a207265656e7472616e742063616c6c00\n        /* \"#utility.yul\":4017:4019   */\n      0x40\n        /* \"#utility.yul\":4002:4020   */\n      dup3\n      add\n        /* \"#utility.yul\":3995:4056   */\n      mstore\n        /* \"#utility.yul\":4088:4090   */\n      0x60\n        /* \"#utility.yul\":4073:4091   */\n      add\n      swap1\n        /* \"#utility.yul\":3742:4097   */\n      jump\t// out\n        /* \"#utility.yul\":4310:4494   */\n    tag_76:\n        /* \"#utility.yul\":4380:4386   */\n      0x00\n        /* \"#utility.yul\":4433:4435   */\n      0x20\n        /* \"#utility.yul\":4421:4430   */\n      dup3\n        /* \"#utility.yul\":4412:4419   */\n      dup5\n        /* \"#utility.yul\":4408:4431   */\n      sub\n        /* \"#utility.yul\":4404:4436   */\n      slt\n        /* \"#utility.yul\":4401:4453   */\n      iszero\n      tag_355\n      jumpi\n        /* \"#utility.yul\":4449:4450   */\n      0x00\n        /* \"#utility.yul\":4446:4447   */\n      dup1\n        /* \"#utility.yul\":4439:4451   */\n      revert\n        /* \"#utility.yul\":4401:4453   */\n    tag_355:\n      pop\n        /* \"#utility.yul\":4472:4488   */\n      mload\n      swap2\n        /* \"#utility.yul\":4310:4494   */\n      swap1\n      pop\n      jump\t// out\n        /* \"#utility.yul\":5112:5357   */\n    tag_86:\n        /* \"#utility.yul\":5179:5185   */\n      0x00\n        /* \"#utility.yul\":5232:5234   */\n      0x20\n        /* \"#utility.yul\":5220:5229   */\n      dup3\n        /* \"#utility.yul\":5211:5218   */\n      dup5\n        /* \"#utility.yul\":5207:5230   */\n      sub\n        /* \"#utility.yul\":5203:5235   */\n      slt\n        /* \"#utility.yul\":5200:5252   */\n      iszero\n      tag_359\n      jumpi\n        /* \"#utility.yul\":5248:5249   */\n      0x00\n        /* \"#utility.yul\":5245:5246   */\n      dup1\n        /* \"#utility.yul\":5238:5250   */\n      revert\n        /* \"#utility.yul\":5200:5252   */\n    tag_359:\n        /* \"#utility.yul\":5280:5289   */\n      dup2\n        /* \"#utility.yul\":5274:5290   */\n      mload\n        /* \"#utility.yul\":5299:5327   */\n      tag_329\n        /* \"#utility.yul\":5321:5326   */\n      dup2\n        /* \"#utility.yul\":5299:5327   */\n      tag_321\n      jump\t// in\n        /* \"#utility.yul\":5699:5827   */\n    tag_91:\n        /* \"#utility.yul\":5766:5775   */\n      dup2\n      dup2\n      sub\n        /* \"#utility.yul\":5787:5798   */\n      dup2\n      dup2\n      gt\n        /* \"#utility.yul\":5784:5821   */\n      iszero\n      tag_364\n      jumpi\n        /* \"#utility.yul\":5801:5819   */\n      tag_364\n      tag_322\n      jump\t// in\n    tag_364:\n        /* \"#utility.yul\":5699:5827   */\n      swap3\n      swap2\n      pop\n      pop\n      jump\t// out\n        /* \"#utility.yul\":6850:7067   */\n    tag_156:\n        /* \"#utility.yul\":6890:6891   */\n      0x00\n        /* \"#utility.yul\":6916:6917   */\n      dup3\n        /* \"#utility.yul\":6906:7038   */\n      tag_369\n      jumpi\n        /* \"#utility.yul\":6960:6970   */\n      0x4e487b71\n        /* \"#utility.yul\":6955:6958   */\n      0xe0\n        /* \"#utility.yul\":6951:6971   */\n      shl\n        /* \"#utility.yul\":6948:6949   */\n      0x00\n        /* \"#utility.yul\":6941:6972   */\n      mstore\n        /* \"#utility.yul\":6995:6999   */\n      0x12\n        /* \"#utility.yul\":6992:6993   */\n      0x04\n        /* \"#utility.yul\":6985:7000   */\n      mstore\n        /* \"#utility.yul\":7023:7027   */\n      0x24\n        /* \"#utility.yul\":7020:7021   */\n      0x00\n        /* \"#utility.yul\":7013:7028   */\n      revert\n        /* \"#utility.yul\":6906:7038   */\n    tag_369:\n      pop\n        /* \"#utility.yul\":7052:7061   */\n      div\n      swap1\n        /* \"#utility.yul\":6850:7067   */\n      jump\t// out\n        /* \"#utility.yul\":7072:7240   */\n    tag_160:\n        /* \"#utility.yul\":7145:7154   */\n      dup1\n      dup3\n      mul\n        /* \"#utility.yul\":7176:7185   */\n      dup2\n      iszero\n        /* \"#utility.yul\":7193:7208   */\n      dup3\n      dup3\n      div\n        /* \"#utility.yul\":7187:7209   */\n      dup5\n      eq\n        /* \"#utility.yul\":7173:7210   */\n      or\n        /* \"#utility.yul\":7163:7234   */\n      tag_364\n      jumpi\n        /* \"#utility.yul\":7214:7232   */\n      tag_364\n      tag_322\n      jump\t// in\n        /* \"#utility.yul\":7641:7766   */\n    tag_183:\n        /* \"#utility.yul\":7706:7715   */\n      dup1\n      dup3\n      add\n        /* \"#utility.yul\":7727:7737   */\n      dup1\n      dup3\n      gt\n        /* \"#utility.yul\":7724:7760   */\n      iszero\n      tag_364\n      jumpi\n        /* \"#utility.yul\":7740:7758   */\n      tag_364\n      tag_322\n      jump\t// in\n        /* \"#utility.yul\":9737:9988   */\n    tag_276:\n        /* \"#utility.yul\":9807:9813   */\n      0x00\n        /* \"#utility.yul\":9860:9862   */\n      0x20\n        /* \"#utility.yul\":9848:9857   */\n      dup3\n        /* \"#utility.yul\":9839:9846   */\n      dup5\n        /* \"#utility.yul\":9835:9858   */\n      sub\n        /* \"#utility.yul\":9831:9863   */\n      slt\n        /* \"#utility.yul\":9828:9880   */\n      iszero\n      tag_383\n      jumpi\n        /* \"#utility.yul\":9876:9877   */\n      0x00\n        /* \"#utility.yul\":9873:9874   */\n      dup1\n        /* \"#utility.yul\":9866:9878   */\n      revert\n        /* \"#utility.yul\":9828:9880   */\n    tag_383:\n        /* \"#utility.yul\":9908:9917   */\n      dup2\n        /* \"#utility.yul\":9902:9918   */\n      mload\n        /* \"#utility.yul\":9927:9958   */\n      tag_329\n        /* \"#utility.yul\":9952:9957   */\n      dup2\n        /* \"#utility.yul\":9927:9958   */\n      tag_320\n      jump\t// in\n\n    auxdata: 0xa2646970667358221220d11977f37661526b2b3d118b8cd7a90cf009a53495676f38a1230b0fdfeae13764736f6c63430008110033\n}\n",
				"bytecode": {
					"linkReferences": {},
					"object": "60c060405260006002556001546001600160a01b031660a05234801561002457600080fd5b506001600081905580546001600160a01b031916339081179091556040805162966ed960e31b815290516304b376c8916004808201926020929091908290030181865afa158015610079573d6000803e3d6000fd5b505050506040513d601f19601f8201168201806040525081019061009d91906100ae565b6001600160a01b03166080526100de565b6000602082840312156100c057600080fd5b81516001600160a01b03811681146100d757600080fd5b9392505050565b60805160a051611d3b620001516000396000818161065601528181610f5d0152818161101d0152818161113e015281816111fe01528181611328015281816113de0152818161147801528181611532015281816115cc015261168601526000818161030d01526103e30152611d3b6000f3fe608060405234801561001057600080fd5b50600436106100935760003560e01c80636bfefd6b116100665780636bfefd6b1461010c57806378d65b2f14610114578063893372ca146101275780638df828001461013a578063f8b2cb4f1461014d57600080fd5b8063200d2ed2146100985780632d56657d146100b457806351cff8d9146100d4578063675f6537146100f7575b600080fd5b6100a160025481565b6040519081526020015b60405180910390f35b6100c76100c2366004611a9b565b610176565b6040516100ab9190611abf565b6100e76100e2366004611a9b565b6102aa565b60405190151581526020016100ab565b61010a610105366004611b43565b6104ca565b005b6100e761058c565b6100a1610122366004611b6a565b61063e565b61010a610135366004611b43565b610c21565b6100e7610148366004611b43565b610d9f565b6100a161015b366004611a9b565b6001600160a01b031660009081526006602052604090205490565b6001600160a01b03811660009081526008602090815260408083208054825181850281018501909352808352606094859490939291908301828280156101db57602002820191906000526020600020905b8154815260200190600101908083116101c7575b5050505050905060005b6004548110156102a1576007600083838151811061020557610205611bd1565b6020908102919091018101518252818101929092526040908101600020815160c08101835281546001600160a01b0390811682526001830154169381019390935260028101549183019190915260038101546060830152600481015460808301526005015460a0820152835184908390811061028357610283611bd1565b6020026020010181905250808061029990611bfd565b9150506101e5565b50909392505050565b60006002600054036102d75760405162461bcd60e51b81526004016102ce90611c16565b60405180910390fd5b600260009081556001600160a01b03838116825260066020526040918290205491516370a0823160e01b815230600482015282917f000000000000000000000000000000000000000000000000000000000000000016906370a0823190602401602060405180830381865afa158015610354573d6000803e3d6000fd5b505050506040513d601f19601f820116820180604052508101906103789190611c4d565b1180156103855750600081115b6103ba5760405162461bcd60e51b81526020600482015260066024820152650f08199d5b9960d21b60448201526064016102ce565b60405163a9059cbb60e01b81526001600160a01b038481166004830152602482018390526000917f00000000000000000000000000000000000000000000000000000000000000009091169063a9059cbb906044016020604051808303816000875af115801561042e573d6000803e3d6000fd5b505050506040513d601f19601f820116820180604052508101906104529190611c66565b90508061048d5760405162461bcd60e51b8152602060048201526009602482015268151e0811985a5b195960ba1b60448201526064016102ce565b6001600160a01b038416600090815260066020526040812080548492906104b5908490611c83565b90915550600193505050506001600055919050565b6000818152600a602090815260408083208054825181850281018501909352808352919290919083018282801561052057602002820191906000526020600020905b81548152602001906001019080831161050c575b5050505050905060005b81518110156105675761055582828151811061054857610548611bd1565b6020026020010151610e95565b8061055f81611bfd565b91505061052a565b50336000908152600660205260409020541561058857610586336102aa565b505b5050565b6001546000906001600160a01b031633146105d35760405162461bcd60e51b81526020600482015260076024820152666f776e6572206f60c81b60448201526064016102ce565b60025415806105e457506002546004145b6105ed57600080fd5b60005b600354811015610632576106206003828154811061061057610610611bd1565b906000526020600020015461176f565b8061062a81611bfd565b9150506105f0565b50506003600255600190565b60405163332daccf60e01b81523360048201526000907f00000000000000000000000000000000000000000000000000000000000000006001600160a01b03169063332daccf90602401602060405180830381865afa1580156106a5573d6000803e3d6000fd5b505050506040513d601f19601f820116820180604052508101906106c99190611c66565b1580156106d65750600254155b6107125760405162461bcd60e51b815260206004820152600d60248201526c0626c61636b206f722073746f7609c1b60448201526064016102ce565b82600114806107215750826002145b61075c5760405162461bcd60e51b815260206004820152600c60248201526b696e76616c6964207369646560a01b60448201526064016102ce565b600061076d8888886000898961182a565b60055490915015610b8b57855b670de0b6b3a76400008110610b855760008060005b600554811015610826576000600582815481106107ae576107ae611bd1565b90600052602060002001549050600760008281526020019081526020016000206005015489036107de5750610814565b6000818152600760205260409020600401548310156108125760008181526007602052604090206004015491935090915082905b505b8061081e81611bfd565b91505061078f565b50878111806108325750855b15610b425760006005838154811061084c5761084c611bd1565b6000918252602080832090910154808352600782526040808420815160c08101835281546001600160a01b0390811682526001808401549091169582019590955260028201549281019290925260038101546060830152600481015460808301526005015460a082015290935091906108c5908c611c83565b826060015183604001516108d99190611c83565b6108e39190611c9c565b905060008060008e84116109d1578392506108ff60018f611c83565b6109099085611cbe565b91508c6001036109705761091f8a878585611983565b604080518c815260208101899052908101859052606081018490529091507f5de48bb383b4a2aaad84721b80d93429b813651b0eefbd59d32018cfe28215dc906080015b60405180910390a1610a60565b8c6002036109cc57610984868b8486611983565b60408051888152602081018d9052908101849052606081018590529091507f5de48bb383b4a2aaad84721b80d93429b813651b0eefbd59d32018cfe28215dc90608001610963565b610a60565b8e92506109df60018f611c83565b8f6109ea9190611cbe565b91508c600103610a005761091f8a878585611983565b8c600203610a6057610a14868b8486611983565b60408051888152602081018d9052908101849052606081018590529091507f5de48bb383b4a2aaad84721b80d93429b813651b0eefbd59d32018cfe28215dc9060800160405180910390a15b60008a8152600a6020908152604080832080546001818101835591855283852001859055898452818420805491820181558452828420018490558c8352600790915281206003018054859290610ab7908490611cd5565b909155505060008681526007602052604081206003018054849290610add908490611cd5565b909155505060008681526007602052604090206003810154600290910154610b059190611c83565b600003610b2b5760058881548110610b1f57610b1f611bd1565b60009182526020822001555b610b35838a611c83565b9850505050505050610b7e565b5050600580546001810182556000919091527f036b6384b5eca791c62761152d0c79bb0604c104a5fb6f4eb0703f3154bb3db001829055610b85565b505061077a565b50610bc1565b600580546001810182556000919091527f036b6384b5eca791c62761152d0c79bb0604c104a5fb6f4eb0703f3154bb3db0018190555b60408051338152306020820152908101829052606081018790526080810186905260a081018590527f618f358bb45538682ade624a4a1959053d9dabd20fe300508034b879681b37be9060c00160405180910390a1979650505050505050565b600260005403610c435760405162461bcd60e51b81526004016102ce90611c16565b6002600081815582815260076020908152604091829020825160c08101845281546001600160a01b039081168083526001840154909116938201939093529381015492840192909252600382015460608401526004820154608084015260059091015460a08301523314610cea5760405162461bcd60e51b815260206004820152600e60248201526d626574206f776e6572206f6e6c7960901b60448201526064016102ce565b600081606001518260400151610d009190611c83565b82516001600160a01b031660009081526006602090815260408083208490558086015187845260079092528220600301559091505b600554811015610d94578360058281548110610d5357610d53611bd1565b906000526020600020015403610d825760058181548110610d7657610d76611bd1565b60009182526020822001555b80610d8c81611bfd565b915050610d35565b505060016000555050565b6001546000906001600160a01b03163314610de65760405162461bcd60e51b81526020600482015260076024820152666f776e6572206f60c81b60448201526064016102ce565b6002541580610df757506002546004145b8015610e0d57508160011480610e0d5750816002145b610e425760405162461bcd60e51b815260206004820152600660248201526510bc103bb4b760d11b60448201526064016102ce565b600282905560005b600354811015610e8c57610e7a60038281548110610e6a57610e6a611bd1565b9060005260206000200154610e95565b80610e8481611bfd565b915050610e4a565b50600192915050565b600260005403610eb75760405162461bcd60e51b81526004016102ce90611c16565b600260009081558181526009602052604090206004015460ff1615610f105760405162461bcd60e51b815260206004820152600f60248201526e185b1c9958591e481cd95d1d1b1959608a1b60448201526064016102ce565b6000806000806002546001036110f457600085815260096020908152604080832054835260078252918290205482516355c4a8bf60e01b815292516001600160a01b0391821697506064937f0000000000000000000000000000000000000000000000000000000000000000909216926355c4a8bf92600480820193918290030181865afa158015610fa6573d6000803e3d6000fd5b505050506040513d601f19601f82011682018060405250810190610fca9190611c4d565b610fd5906064611c83565b600087815260096020526040902060030154610ff19190611cbe565b610ffb9190611c9c565b6000868152600960205260409020600201546110179190611cd5565b915060647f00000000000000000000000000000000000000000000000000000000000000006001600160a01b03166355c4a8bf6040518163ffffffff1660e01b8152600401602060405180830381865afa158015611079573d6000803e3d6000fd5b505050506040513d601f19601f8201168201806040525081019061109d9190611c4d565b6000878152600960205260409020600301546110b99190611cbe565b6110c39190611c9c565b600086815260096020908152604080832054835260079091529020600101546001600160a01b031693509050611318565b6002546002036112d957600085815260096020908152604080832060010154835260078252918290205482516355c4a8bf60e01b815292516001600160a01b0391821697506064937f0000000000000000000000000000000000000000000000000000000000000000909216926355c4a8bf92600480820193918290030181865afa158015611187573d6000803e3d6000fd5b505050506040513d601f19601f820116820180604052508101906111ab9190611c4d565b6111b6906064611c83565b6000878152600960205260409020600201546111d29190611cbe565b6111dc9190611c9c565b6000868152600960205260409020600301546111f89190611cd5565b915060647f00000000000000000000000000000000000000000000000000000000000000006001600160a01b03166355c4a8bf6040518163ffffffff1660e01b8152600401602060405180830381865afa15801561125a573d6000803e3d6000fd5b505050506040513d601f19601f8201168201806040525081019061127e9190611c4d565b60008781526009602052604090206002015461129a9190611cbe565b6112a49190611c9c565b60008681526009602090815260408083206001908101548452600790925290912001546001600160a01b031693509050611318565b60405162461bcd60e51b8152602060048201526014602482015273696e76616c69642077696e6e696e67207369646560601b60448201526064016102ce565b6001600160a01b0383166113ab577f00000000000000000000000000000000000000000000000000000000000000006001600160a01b03166309953b2f6040518163ffffffff1660e01b8152600401602060405180830381865afa158015611384573d6000803e3d6000fd5b505050506040513d601f19601f820116820180604052508101906113a89190611ce8565b92505b6001600160a01b038416600090815260066020526040812080548492906113d3908490611cd5565b9250508190555060647f00000000000000000000000000000000000000000000000000000000000000006001600160a01b0316636a0ccd9d6040518163ffffffff1660e01b8152600401602060405180830381865afa15801561143a573d6000803e3d6000fd5b505050506040513d601f19601f8201168201806040525081019061145e9190611c4d565b6114689083611cbe565b6114729190611c9c565b600660007f00000000000000000000000000000000000000000000000000000000000000006001600160a01b031663b7640a546040518163ffffffff1660e01b8152600401602060405180830381865afa1580156114d4573d6000803e3d6000fd5b505050506040513d601f19601f820116820180604052508101906114f89190611ce8565b6001600160a01b03166001600160a01b0316815260200190815260200160002060008282546115279190611cd5565b9250508190555060647f00000000000000000000000000000000000000000000000000000000000000006001600160a01b03166328576d456040518163ffffffff1660e01b8152600401602060405180830381865afa15801561158e573d6000803e3d6000fd5b505050506040513d601f19601f820116820180604052508101906115b29190611c4d565b6115bc9083611cbe565b6115c69190611c9c565b600660007f00000000000000000000000000000000000000000000000000000000000000006001600160a01b03166309953b2f6040518163ffffffff1660e01b8152600401602060405180830381865afa158015611628573d6000803e3d6000fd5b505050506040513d601f19601f8201168201806040525081019061164c9190611ce8565b6001600160a01b03166001600160a01b03168152602001908152602001600020600082825461167b9190611cd5565b9250508190555060647f00000000000000000000000000000000000000000000000000000000000000006001600160a01b03166354cd1a5c6040518163ffffffff1660e01b8152600401602060405180830381865afa1580156116e2573d6000803e3d6000fd5b505050506040513d601f19601f820116820180604052508101906117069190611c4d565b6117109083611cbe565b61171a9190611c9c565b6001600160a01b03841660009081526006602052604081208054909190611742908490611cd5565b9091555050506000848152600960205260409020600401805460ff19166001179055505050506001600055565b600081815260096020908152604080832080548452600783528184205460018201548552828520546002909201546001600160a01b0391821680875260069095529285208054949591909216936117c7908490611cd5565b90915550506000838152600960209081526040808320600301546001600160a01b038516845260069092528220805491929091611805908490611cd5565b909155505050600091825250600960205260409020600401805460ff19166001179055565b6000805b6004546040516bffffffffffffffffffffffff1960608b811b8216602084015230901b166034820152604881019190915242606882015244608882015260a80160408051601f1981840301815291815281516020928301206000818152600790935291206002015490915061182e576040805160c0810182526001600160a01b03998a16808252988a166020808301918252828401998a52606083019889526080830197885260a0830196875260008581526007825284812093518454908e166001600160a01b031991821617855592516001808601805492909f169190941617909c5598516002830155965160038201559451600480870191909155935160059095019490945582548086019093557f8a35acfbc15ff81a39ae7d344fd709f28e8600b4aa8c65c6b64bfe7fe36bd19b90920182905550938552600883528420805491820181558452922090910181905590565b6000805b600354604080516020810189905290810187905260608101919091524260808201524460a082015260c00160408051601f19818403018152918152815160209283012060008181526009909352912060020154909150611987576040805160a081018252968752602080880196875287820195865260608801948552600060808901818152848252600990925291822097518855955160018089019190915594516002880155925160038088019190915594516004909601805460ff1916961515969096179095555082549182018355919091527fc2575a0e9e593c00f959f8c92f12db2869c3395a3b0502d05e2516446f71f85b0181905590565b6001600160a01b0381168114611a9857600080fd5b50565b600060208284031215611aad57600080fd5b8135611ab881611a83565b9392505050565b602080825282518282018190526000919060409081850190868401855b82811015611b3657815180516001600160a01b0390811686528782015116878601528581015186860152606080820151908601526080808201519086015260a0908101519085015260c09093019290850190600101611adc565b5091979650505050505050565b600060208284031215611b5557600080fd5b5035919050565b8015158114611a9857600080fd5b60008060008060008060c08789031215611b8357600080fd5b8635611b8e81611a83565b95506020870135611b9e81611a83565b945060408701359350606087013592506080870135915060a0870135611bc381611b5c565b809150509295509295509295565b634e487b7160e01b600052603260045260246000fd5b634e487b7160e01b600052601160045260246000fd5b600060018201611c0f57611c0f611be7565b5060010190565b6020808252601f908201527f5265656e7472616e637947756172643a207265656e7472616e742063616c6c00604082015260600190565b600060208284031215611c5f57600080fd5b5051919050565b600060208284031215611c7857600080fd5b8151611ab881611b5c565b81810381811115611c9657611c96611be7565b92915050565b600082611cb957634e487b7160e01b600052601260045260246000fd5b500490565b8082028115828204841417611c9657611c96611be7565b80820180821115611c9657611c96611be7565b600060208284031215611cfa57600080fd5b8151611ab881611a8356fea2646970667358221220d11977f37661526b2b3d118b8cd7a90cf009a53495676f38a1230b0fdfeae13764736f6c63430008110033",
					"opcodes": "PUSH1 0xC0 PUSH1 0x40 MSTORE PUSH1 0x0 PUSH1 0x2 SSTORE PUSH1 0x1 SLOAD PUSH1 0x1 PUSH1 0x1 PUSH1 0xA0 SHL SUB AND PUSH1 0xA0 MSTORE CALLVALUE DUP1 ISZERO PUSH2 0x24 JUMPI PUSH1 0x0 DUP1 REVERT JUMPDEST POP PUSH1 0x1 PUSH1 0x0 DUP2 SWAP1 SSTORE DUP1 SLOAD PUSH1 0x1 PUSH1 0x1 PUSH1 0xA0 SHL SUB NOT AND CALLER SWAP1 DUP2 OR SWAP1 SWAP2 SSTORE PUSH1 0x40 DUP1 MLOAD PUSH3 0x966ED9 PUSH1 0xE3 SHL DUP2 MSTORE SWAP1 MLOAD PUSH4 0x4B376C8 SWAP2 PUSH1 0x4 DUP1 DUP3 ADD SWAP3 PUSH1 0x20 SWAP3 SWAP1 SWAP2 SWAP1 DUP3 SWAP1 SUB ADD DUP2 DUP7 GAS STATICCALL ISZERO DUP1 ISZERO PUSH2 0x79 JUMPI RETURNDATASIZE PUSH1 0x0 DUP1 RETURNDATACOPY RETURNDATASIZE PUSH1 0x0 REVERT JUMPDEST POP POP POP POP PUSH1 0x40 MLOAD RETURNDATASIZE PUSH1 0x1F NOT PUSH1 0x1F DUP3 ADD AND DUP3 ADD DUP1 PUSH1 0x40 MSTORE POP DUP2 ADD SWAP1 PUSH2 0x9D SWAP2 SWAP1 PUSH2 0xAE JUMP JUMPDEST PUSH1 0x1 PUSH1 0x1 PUSH1 0xA0 SHL SUB AND PUSH1 0x80 MSTORE PUSH2 0xDE JUMP JUMPDEST PUSH1 0x0 PUSH1 0x20 DUP3 DUP5 SUB SLT ISZERO PUSH2 0xC0 JUMPI PUSH1 0x0 DUP1 REVERT JUMPDEST DUP2 MLOAD PUSH1 0x1 PUSH1 0x1 PUSH1 0xA0 SHL SUB DUP2 AND DUP2 EQ PUSH2 0xD7 JUMPI PUSH1 0x0 DUP1 REVERT JUMPDEST SWAP4 SWAP3 POP POP POP JUMP JUMPDEST PUSH1 0x80 MLOAD PUSH1 0xA0 MLOAD PUSH2 0x1D3B PUSH3 0x151 PUSH1 0x0 CODECOPY PUSH1 0x0 DUP2 DUP2 PUSH2 0x656 ADD MSTORE DUP2 DUP2 PUSH2 0xF5D ADD MSTORE DUP2 DUP2 PUSH2 0x101D ADD MSTORE DUP2 DUP2 PUSH2 0x113E ADD MSTORE DUP2 DUP2 PUSH2 0x11FE ADD MSTORE DUP2 DUP2 PUSH2 0x1328 ADD MSTORE DUP2 DUP2 PUSH2 0x13DE ADD MSTORE DUP2 DUP2 PUSH2 0x1478 ADD MSTORE DUP2 DUP2 PUSH2 0x1532 ADD MSTORE DUP2 DUP2 PUSH2 0x15CC ADD MSTORE PUSH2 0x1686 ADD MSTORE PUSH1 0x0 DUP2 DUP2 PUSH2 0x30D ADD MSTORE PUSH2 0x3E3 ADD MSTORE PUSH2 0x1D3B PUSH1 0x0 RETURN INVALID PUSH1 0x80 PUSH1 0x40 MSTORE CALLVALUE DUP1 ISZERO PUSH2 0x10 JUMPI PUSH1 0x0 DUP1 REVERT JUMPDEST POP PUSH1 0x4 CALLDATASIZE LT PUSH2 0x93 JUMPI PUSH1 0x0 CALLDATALOAD PUSH1 0xE0 SHR DUP1 PUSH4 0x6BFEFD6B GT PUSH2 0x66 JUMPI DUP1 PUSH4 0x6BFEFD6B EQ PUSH2 0x10C JUMPI DUP1 PUSH4 0x78D65B2F EQ PUSH2 0x114 JUMPI DUP1 PUSH4 0x893372CA EQ PUSH2 0x127 JUMPI DUP1 PUSH4 0x8DF82800 EQ PUSH2 0x13A JUMPI DUP1 PUSH4 0xF8B2CB4F EQ PUSH2 0x14D JUMPI PUSH1 0x0 DUP1 REVERT JUMPDEST DUP1 PUSH4 0x200D2ED2 EQ PUSH2 0x98 JUMPI DUP1 PUSH4 0x2D56657D EQ PUSH2 0xB4 JUMPI DUP1 PUSH4 0x51CFF8D9 EQ PUSH2 0xD4 JUMPI DUP1 PUSH4 0x675F6537 EQ PUSH2 0xF7 JUMPI JUMPDEST PUSH1 0x0 DUP1 REVERT JUMPDEST PUSH2 0xA1 PUSH1 0x2 SLOAD DUP2 JUMP JUMPDEST PUSH1 0x40 MLOAD SWAP1 DUP2 MSTORE PUSH1 0x20 ADD JUMPDEST PUSH1 0x40 MLOAD DUP1 SWAP2 SUB SWAP1 RETURN JUMPDEST PUSH2 0xC7 PUSH2 0xC2 CALLDATASIZE PUSH1 0x4 PUSH2 0x1A9B JUMP JUMPDEST PUSH2 0x176 JUMP JUMPDEST PUSH1 0x40 MLOAD PUSH2 0xAB SWAP2 SWAP1 PUSH2 0x1ABF JUMP JUMPDEST PUSH2 0xE7 PUSH2 0xE2 CALLDATASIZE PUSH1 0x4 PUSH2 0x1A9B JUMP JUMPDEST PUSH2 0x2AA JUMP JUMPDEST PUSH1 0x40 MLOAD SWAP1 ISZERO ISZERO DUP2 MSTORE PUSH1 0x20 ADD PUSH2 0xAB JUMP JUMPDEST PUSH2 0x10A PUSH2 0x105 CALLDATASIZE PUSH1 0x4 PUSH2 0x1B43 JUMP JUMPDEST PUSH2 0x4CA JUMP JUMPDEST STOP JUMPDEST PUSH2 0xE7 PUSH2 0x58C JUMP JUMPDEST PUSH2 0xA1 PUSH2 0x122 CALLDATASIZE PUSH1 0x4 PUSH2 0x1B6A JUMP JUMPDEST PUSH2 0x63E JUMP JUMPDEST PUSH2 0x10A PUSH2 0x135 CALLDATASIZE PUSH1 0x4 PUSH2 0x1B43 JUMP JUMPDEST PUSH2 0xC21 JUMP JUMPDEST PUSH2 0xE7 PUSH2 0x148 CALLDATASIZE PUSH1 0x4 PUSH2 0x1B43 JUMP JUMPDEST PUSH2 0xD9F JUMP JUMPDEST PUSH2 0xA1 PUSH2 0x15B CALLDATASIZE PUSH1 0x4 PUSH2 0x1A9B JUMP JUMPDEST PUSH1 0x1 PUSH1 0x1 PUSH1 0xA0 SHL SUB AND PUSH1 0x0 SWAP1 DUP2 MSTORE PUSH1 0x6 PUSH1 0x20 MSTORE PUSH1 0x40 SWAP1 KECCAK256 SLOAD SWAP1 JUMP JUMPDEST PUSH1 0x1 PUSH1 0x1 PUSH1 0xA0 SHL SUB DUP2 AND PUSH1 0x0 SWAP1 DUP2 MSTORE PUSH1 0x8 PUSH1 0x20 SWAP1 DUP2 MSTORE PUSH1 0x40 DUP1 DUP4 KECCAK256 DUP1 SLOAD DUP3 MLOAD DUP2 DUP6 MUL DUP2 ADD DUP6 ADD SWAP1 SWAP4 MSTORE DUP1 DUP4 MSTORE PUSH1 0x60 SWAP5 DUP6 SWAP5 SWAP1 SWAP4 SWAP3 SWAP2 SWAP1 DUP4 ADD DUP3 DUP3 DUP1 ISZERO PUSH2 0x1DB JUMPI PUSH1 0x20 MUL DUP3 ADD SWAP2 SWAP1 PUSH1 0x0 MSTORE PUSH1 0x20 PUSH1 0x0 KECCAK256 SWAP1 JUMPDEST DUP2 SLOAD DUP2 MSTORE PUSH1 0x20 ADD SWAP1 PUSH1 0x1 ADD SWAP1 DUP1 DUP4 GT PUSH2 0x1C7 JUMPI JUMPDEST POP POP POP POP POP SWAP1 POP PUSH1 0x0 JUMPDEST PUSH1 0x4 SLOAD DUP2 LT ISZERO PUSH2 0x2A1 JUMPI PUSH1 0x7 PUSH1 0x0 DUP4 DUP4 DUP2 MLOAD DUP2 LT PUSH2 0x205 JUMPI PUSH2 0x205 PUSH2 0x1BD1 JUMP JUMPDEST PUSH1 0x20 SWAP1 DUP2 MUL SWAP2 SWAP1 SWAP2 ADD DUP2 ADD MLOAD DUP3 MSTORE DUP2 DUP2 ADD SWAP3 SWAP1 SWAP3 MSTORE PUSH1 0x40 SWAP1 DUP2 ADD PUSH1 0x0 KECCAK256 DUP2 MLOAD PUSH1 0xC0 DUP2 ADD DUP4 MSTORE DUP2 SLOAD PUSH1 0x1 PUSH1 0x1 PUSH1 0xA0 SHL SUB SWAP1 DUP2 AND DUP3 MSTORE PUSH1 0x1 DUP4 ADD SLOAD AND SWAP4 DUP2 ADD SWAP4 SWAP1 SWAP4 MSTORE PUSH1 0x2 DUP2 ADD SLOAD SWAP2 DUP4 ADD SWAP2 SWAP1 SWAP2 MSTORE PUSH1 0x3 DUP2 ADD SLOAD PUSH1 0x60 DUP4 ADD MSTORE PUSH1 0x4 DUP2 ADD SLOAD PUSH1 0x80 DUP4 ADD MSTORE PUSH1 0x5 ADD SLOAD PUSH1 0xA0 DUP3 ADD MSTORE DUP4 MLOAD DUP5 SWAP1 DUP4 SWAP1 DUP2 LT PUSH2 0x283 JUMPI PUSH2 0x283 PUSH2 0x1BD1 JUMP JUMPDEST PUSH1 0x20 MUL PUSH1 0x20 ADD ADD DUP2 SWAP1 MSTORE POP DUP1 DUP1 PUSH2 0x299 SWAP1 PUSH2 0x1BFD JUMP JUMPDEST SWAP2 POP POP PUSH2 0x1E5 JUMP JUMPDEST POP SWAP1 SWAP4 SWAP3 POP POP POP JUMP JUMPDEST PUSH1 0x0 PUSH1 0x2 PUSH1 0x0 SLOAD SUB PUSH2 0x2D7 JUMPI PUSH1 0x40 MLOAD PUSH3 0x461BCD PUSH1 0xE5 SHL DUP2 MSTORE PUSH1 0x4 ADD PUSH2 0x2CE SWAP1 PUSH2 0x1C16 JUMP JUMPDEST PUSH1 0x40 MLOAD DUP1 SWAP2 SUB SWAP1 REVERT JUMPDEST PUSH1 0x2 PUSH1 0x0 SWAP1 DUP2 SSTORE PUSH1 0x1 PUSH1 0x1 PUSH1 0xA0 SHL SUB DUP4 DUP2 AND DUP3 MSTORE PUSH1 0x6 PUSH1 0x20 MSTORE PUSH1 0x40 SWAP2 DUP3 SWAP1 KECCAK256 SLOAD SWAP2 MLOAD PUSH4 0x70A08231 PUSH1 0xE0 SHL DUP2 MSTORE ADDRESS PUSH1 0x4 DUP3 ADD MSTORE DUP3 SWAP2 PUSH32 0x0 AND SWAP1 PUSH4 0x70A08231 SWAP1 PUSH1 0x24 ADD PUSH1 0x20 PUSH1 0x40 MLOAD DUP1 DUP4 SUB DUP2 DUP7 GAS STATICCALL ISZERO DUP1 ISZERO PUSH2 0x354 JUMPI RETURNDATASIZE PUSH1 0x0 DUP1 RETURNDATACOPY RETURNDATASIZE PUSH1 0x0 REVERT JUMPDEST POP POP POP POP PUSH1 0x40 MLOAD RETURNDATASIZE PUSH1 0x1F NOT PUSH1 0x1F DUP3 ADD AND DUP3 ADD DUP1 PUSH1 0x40 MSTORE POP DUP2 ADD SWAP1 PUSH2 0x378 SWAP2 SWAP1 PUSH2 0x1C4D JUMP JUMPDEST GT DUP1 ISZERO PUSH2 0x385 JUMPI POP PUSH1 0x0 DUP2 GT JUMPDEST PUSH2 0x3BA JUMPI PUSH1 0x40 MLOAD PUSH3 0x461BCD PUSH1 0xE5 SHL DUP2 MSTORE PUSH1 0x20 PUSH1 0x4 DUP3 ADD MSTORE PUSH1 0x6 PUSH1 0x24 DUP3 ADD MSTORE PUSH6 0xF08199D5B99 PUSH1 0xD2 SHL PUSH1 0x44 DUP3 ADD MSTORE PUSH1 0x64 ADD PUSH2 0x2CE JUMP JUMPDEST PUSH1 0x40 MLOAD PUSH4 0xA9059CBB PUSH1 0xE0 SHL DUP2 MSTORE PUSH1 0x1 PUSH1 0x1 PUSH1 0xA0 SHL SUB DUP5 DUP2 AND PUSH1 0x4 DUP4 ADD MSTORE PUSH1 0x24 DUP3 ADD DUP4 SWAP1 MSTORE PUSH1 0x0 SWAP2 PUSH32 0x0 SWAP1 SWAP2 AND SWAP1 PUSH4 0xA9059CBB SWAP1 PUSH1 0x44 ADD PUSH1 0x20 PUSH1 0x40 MLOAD DUP1 DUP4 SUB DUP2 PUSH1 0x0 DUP8 GAS CALL ISZERO DUP1 ISZERO PUSH2 0x42E JUMPI RETURNDATASIZE PUSH1 0x0 DUP1 RETURNDATACOPY RETURNDATASIZE PUSH1 0x0 REVERT JUMPDEST POP POP POP POP PUSH1 0x40 MLOAD RETURNDATASIZE PUSH1 0x1F NOT PUSH1 0x1F DUP3 ADD AND DUP3 ADD DUP1 PUSH1 0x40 MSTORE POP DUP2 ADD SWAP1 PUSH2 0x452 SWAP2 SWAP1 PUSH2 0x1C66 JUMP JUMPDEST SWAP1 POP DUP1 PUSH2 0x48D JUMPI PUSH1 0x40 MLOAD PUSH3 0x461BCD PUSH1 0xE5 SHL DUP2 MSTORE PUSH1 0x20 PUSH1 0x4 DUP3 ADD MSTORE PUSH1 0x9 PUSH1 0x24 DUP3 ADD MSTORE PUSH9 0x151E0811985A5B1959 PUSH1 0xBA SHL PUSH1 0x44 DUP3 ADD MSTORE PUSH1 0x64 ADD PUSH2 0x2CE JUMP JUMPDEST PUSH1 0x1 PUSH1 0x1 PUSH1 0xA0 SHL SUB DUP5 AND PUSH1 0x0 SWAP1 DUP2 MSTORE PUSH1 0x6 PUSH1 0x20 MSTORE PUSH1 0x40 DUP2 KECCAK256 DUP1 SLOAD DUP5 SWAP3 SWAP1 PUSH2 0x4B5 SWAP1 DUP5 SWAP1 PUSH2 0x1C83 JUMP JUMPDEST SWAP1 SWAP2 SSTORE POP PUSH1 0x1 SWAP4 POP POP POP POP PUSH1 0x1 PUSH1 0x0 SSTORE SWAP2 SWAP1 POP JUMP JUMPDEST PUSH1 0x0 DUP2 DUP2 MSTORE PUSH1 0xA PUSH1 0x20 SWAP1 DUP2 MSTORE PUSH1 0x40 DUP1 DUP4 KECCAK256 DUP1 SLOAD DUP3 MLOAD DUP2 DUP6 MUL DUP2 ADD DUP6 ADD SWAP1 SWAP4 MSTORE DUP1 DUP4 MSTORE SWAP2 SWAP3 SWAP1 SWAP2 SWAP1 DUP4 ADD DUP3 DUP3 DUP1 ISZERO PUSH2 0x520 JUMPI PUSH1 0x20 MUL DUP3 ADD SWAP2 SWAP1 PUSH1 0x0 MSTORE PUSH1 0x20 PUSH1 0x0 KECCAK256 SWAP1 JUMPDEST DUP2 SLOAD DUP2 MSTORE PUSH1 0x20 ADD SWAP1 PUSH1 0x1 ADD SWAP1 DUP1 DUP4 GT PUSH2 0x50C JUMPI JUMPDEST POP POP POP POP POP SWAP1 POP PUSH1 0x0 JUMPDEST DUP2 MLOAD DUP2 LT ISZERO PUSH2 0x567 JUMPI PUSH2 0x555 DUP3 DUP3 DUP2 MLOAD DUP2 LT PUSH2 0x548 JUMPI PUSH2 0x548 PUSH2 0x1BD1 JUMP JUMPDEST PUSH1 0x20 MUL PUSH1 0x20 ADD ADD MLOAD PUSH2 0xE95 JUMP JUMPDEST DUP1 PUSH2 0x55F DUP2 PUSH2 0x1BFD JUMP JUMPDEST SWAP2 POP POP PUSH2 0x52A JUMP JUMPDEST POP CALLER PUSH1 0x0 SWAP1 DUP2 MSTORE PUSH1 0x6 PUSH1 0x20 MSTORE PUSH1 0x40 SWAP1 KECCAK256 SLOAD ISZERO PUSH2 0x588 JUMPI PUSH2 0x586 CALLER PUSH2 0x2AA JUMP JUMPDEST POP JUMPDEST POP POP JUMP JUMPDEST PUSH1 0x1 SLOAD PUSH1 0x0 SWAP1 PUSH1 0x1 PUSH1 0x1 PUSH1 0xA0 SHL SUB AND CALLER EQ PUSH2 0x5D3 JUMPI PUSH1 0x40 MLOAD PUSH3 0x461BCD PUSH1 0xE5 SHL DUP2 MSTORE PUSH1 0x20 PUSH1 0x4 DUP3 ADD MSTORE PUSH1 0x7 PUSH1 0x24 DUP3 ADD MSTORE PUSH7 0x6F776E6572206F PUSH1 0xC8 SHL PUSH1 0x44 DUP3 ADD MSTORE PUSH1 0x64 ADD PUSH2 0x2CE JUMP JUMPDEST PUSH1 0x2 SLOAD ISZERO DUP1 PUSH2 0x5E4 JUMPI POP PUSH1 0x2 SLOAD PUSH1 0x4 EQ JUMPDEST PUSH2 0x5ED JUMPI PUSH1 0x0 DUP1 REVERT JUMPDEST PUSH1 0x0 JUMPDEST PUSH1 0x3 SLOAD DUP2 LT ISZERO PUSH2 0x632 JUMPI PUSH2 0x620 PUSH1 0x3 DUP3 DUP2 SLOAD DUP2 LT PUSH2 0x610 JUMPI PUSH2 0x610 PUSH2 0x1BD1 JUMP JUMPDEST SWAP1 PUSH1 0x0 MSTORE PUSH1 0x20 PUSH1 0x0 KECCAK256 ADD SLOAD PUSH2 0x176F JUMP JUMPDEST DUP1 PUSH2 0x62A DUP2 PUSH2 0x1BFD JUMP JUMPDEST SWAP2 POP POP PUSH2 0x5F0 JUMP JUMPDEST POP POP PUSH1 0x3 PUSH1 0x2 SSTORE PUSH1 0x1 SWAP1 JUMP JUMPDEST PUSH1 0x40 MLOAD PUSH4 0x332DACCF PUSH1 0xE0 SHL DUP2 MSTORE CALLER PUSH1 0x4 DUP3 ADD MSTORE PUSH1 0x0 SWAP1 PUSH32 0x0 PUSH1 0x1 PUSH1 0x1 PUSH1 0xA0 SHL SUB AND SWAP1 PUSH4 0x332DACCF SWAP1 PUSH1 0x24 ADD PUSH1 0x20 PUSH1 0x40 MLOAD DUP1 DUP4 SUB DUP2 DUP7 GAS STATICCALL ISZERO DUP1 ISZERO PUSH2 0x6A5 JUMPI RETURNDATASIZE PUSH1 0x0 DUP1 RETURNDATACOPY RETURNDATASIZE PUSH1 0x0 REVERT JUMPDEST POP POP POP POP PUSH1 0x40 MLOAD RETURNDATASIZE PUSH1 0x1F NOT PUSH1 0x1F DUP3 ADD AND DUP3 ADD DUP1 PUSH1 0x40 MSTORE POP DUP2 ADD SWAP1 PUSH2 0x6C9 SWAP2 SWAP1 PUSH2 0x1C66 JUMP JUMPDEST ISZERO DUP1 ISZERO PUSH2 0x6D6 JUMPI POP PUSH1 0x2 SLOAD ISZERO JUMPDEST PUSH2 0x712 JUMPI PUSH1 0x40 MLOAD PUSH3 0x461BCD PUSH1 0xE5 SHL DUP2 MSTORE PUSH1 0x20 PUSH1 0x4 DUP3 ADD MSTORE PUSH1 0xD PUSH1 0x24 DUP3 ADD MSTORE PUSH13 0x626C61636B206F722073746F7 PUSH1 0x9C SHL PUSH1 0x44 DUP3 ADD MSTORE PUSH1 0x64 ADD PUSH2 0x2CE JUMP JUMPDEST DUP3 PUSH1 0x1 EQ DUP1 PUSH2 0x721 JUMPI POP DUP3 PUSH1 0x2 EQ JUMPDEST PUSH2 0x75C JUMPI PUSH1 0x40 MLOAD PUSH3 0x461BCD PUSH1 0xE5 SHL DUP2 MSTORE PUSH1 0x20 PUSH1 0x4 DUP3 ADD MSTORE PUSH1 0xC PUSH1 0x24 DUP3 ADD MSTORE PUSH12 0x696E76616C69642073696465 PUSH1 0xA0 SHL PUSH1 0x44 DUP3 ADD MSTORE PUSH1 0x64 ADD PUSH2 0x2CE JUMP JUMPDEST PUSH1 0x0 PUSH2 0x76D DUP9 DUP9 DUP9 PUSH1 0x0 DUP10 DUP10 PUSH2 0x182A JUMP JUMPDEST PUSH1 0x5 SLOAD SWAP1 SWAP2 POP ISZERO PUSH2 0xB8B JUMPI DUP6 JUMPDEST PUSH8 0xDE0B6B3A7640000 DUP2 LT PUSH2 0xB85 JUMPI PUSH1 0x0 DUP1 PUSH1 0x0 JUMPDEST PUSH1 0x5 SLOAD DUP2 LT ISZERO PUSH2 0x826 JUMPI PUSH1 0x0 PUSH1 0x5 DUP3 DUP2 SLOAD DUP2 LT PUSH2 0x7AE JUMPI PUSH2 0x7AE PUSH2 0x1BD1 JUMP JUMPDEST SWAP1 PUSH1 0x0 MSTORE PUSH1 0x20 PUSH1 0x0 KECCAK256 ADD SLOAD SWAP1 POP PUSH1 0x7 PUSH1 0x0 DUP3 DUP2 MSTORE PUSH1 0x20 ADD SWAP1 DUP2 MSTORE PUSH1 0x20 ADD PUSH1 0x0 KECCAK256 PUSH1 0x5 ADD SLOAD DUP10 SUB PUSH2 0x7DE JUMPI POP PUSH2 0x814 JUMP JUMPDEST PUSH1 0x0 DUP2 DUP2 MSTORE PUSH1 0x7 PUSH1 0x20 MSTORE PUSH1 0x40 SWAP1 KECCAK256 PUSH1 0x4 ADD SLOAD DUP4 LT ISZERO PUSH2 0x812 JUMPI PUSH1 0x0 DUP2 DUP2 MSTORE PUSH1 0x7 PUSH1 0x20 MSTORE PUSH1 0x40 SWAP1 KECCAK256 PUSH1 0x4 ADD SLOAD SWAP2 SWAP4 POP SWAP1 SWAP2 POP DUP3 SWAP1 JUMPDEST POP JUMPDEST DUP1 PUSH2 0x81E DUP2 PUSH2 0x1BFD JUMP JUMPDEST SWAP2 POP POP PUSH2 0x78F JUMP JUMPDEST POP DUP8 DUP2 GT DUP1 PUSH2 0x832 JUMPI POP DUP6 JUMPDEST ISZERO PUSH2 0xB42 JUMPI PUSH1 0x0 PUSH1 0x5 DUP4 DUP2 SLOAD DUP2 LT PUSH2 0x84C JUMPI PUSH2 0x84C PUSH2 0x1BD1 JUMP JUMPDEST PUSH1 0x0 SWAP2 DUP3 MSTORE PUSH1 0x20 DUP1 DUP4 KECCAK256 SWAP1 SWAP2 ADD SLOAD DUP1 DUP4 MSTORE PUSH1 0x7 DUP3 MSTORE PUSH1 0x40 DUP1 DUP5 KECCAK256 DUP2 MLOAD PUSH1 0xC0 DUP2 ADD DUP4 MSTORE DUP2 SLOAD PUSH1 0x1 PUSH1 0x1 PUSH1 0xA0 SHL SUB SWAP1 DUP2 AND DUP3 MSTORE PUSH1 0x1 DUP1 DUP5 ADD SLOAD SWAP1 SWAP2 AND SWAP6 DUP3 ADD SWAP6 SWAP1 SWAP6 MSTORE PUSH1 0x2 DUP3 ADD SLOAD SWAP3 DUP2 ADD SWAP3 SWAP1 SWAP3 MSTORE PUSH1 0x3 DUP2 ADD SLOAD PUSH1 0x60 DUP4 ADD MSTORE PUSH1 0x4 DUP2 ADD SLOAD PUSH1 0x80 DUP4 ADD MSTORE PUSH1 0x5 ADD SLOAD PUSH1 0xA0 DUP3 ADD MSTORE SWAP1 SWAP4 POP SWAP2 SWAP1 PUSH2 0x8C5 SWAP1 DUP13 PUSH2 0x1C83 JUMP JUMPDEST DUP3 PUSH1 0x60 ADD MLOAD DUP4 PUSH1 0x40 ADD MLOAD PUSH2 0x8D9 SWAP2 SWAP1 PUSH2 0x1C83 JUMP JUMPDEST PUSH2 0x8E3 SWAP2 SWAP1 PUSH2 0x1C9C JUMP JUMPDEST SWAP1 POP PUSH1 0x0 DUP1 PUSH1 0x0 DUP15 DUP5 GT PUSH2 0x9D1 JUMPI DUP4 SWAP3 POP PUSH2 0x8FF PUSH1 0x1 DUP16 PUSH2 0x1C83 JUMP JUMPDEST PUSH2 0x909 SWAP1 DUP6 PUSH2 0x1CBE JUMP JUMPDEST SWAP2 POP DUP13 PUSH1 0x1 SUB PUSH2 0x970 JUMPI PUSH2 0x91F DUP11 DUP8 DUP6 DUP6 PUSH2 0x1983 JUMP JUMPDEST PUSH1 0x40 DUP1 MLOAD DUP13 DUP2 MSTORE PUSH1 0x20 DUP2 ADD DUP10 SWAP1 MSTORE SWAP1 DUP2 ADD DUP6 SWAP1 MSTORE PUSH1 0x60 DUP2 ADD DUP5 SWAP1 MSTORE SWAP1 SWAP2 POP PUSH32 0x5DE48BB383B4A2AAAD84721B80D93429B813651B0EEFBD59D32018CFE28215DC SWAP1 PUSH1 0x80 ADD JUMPDEST PUSH1 0x40 MLOAD DUP1 SWAP2 SUB SWAP1 LOG1 PUSH2 0xA60 JUMP JUMPDEST DUP13 PUSH1 0x2 SUB PUSH2 0x9CC JUMPI PUSH2 0x984 DUP7 DUP12 DUP5 DUP7 PUSH2 0x1983 JUMP JUMPDEST PUSH1 0x40 DUP1 MLOAD DUP9 DUP2 MSTORE PUSH1 0x20 DUP2 ADD DUP14 SWAP1 MSTORE SWAP1 DUP2 ADD DUP5 SWAP1 MSTORE PUSH1 0x60 DUP2 ADD DUP6 SWAP1 MSTORE SWAP1 SWAP2 POP PUSH32 0x5DE48BB383B4A2AAAD84721B80D93429B813651B0EEFBD59D32018CFE28215DC SWAP1 PUSH1 0x80 ADD PUSH2 0x963 JUMP JUMPDEST PUSH2 0xA60 JUMP JUMPDEST DUP15 SWAP3 POP PUSH2 0x9DF PUSH1 0x1 DUP16 PUSH2 0x1C83 JUMP JUMPDEST DUP16 PUSH2 0x9EA SWAP2 SWAP1 PUSH2 0x1CBE JUMP JUMPDEST SWAP2 POP DUP13 PUSH1 0x1 SUB PUSH2 0xA00 JUMPI PUSH2 0x91F DUP11 DUP8 DUP6 DUP6 PUSH2 0x1983 JUMP JUMPDEST DUP13 PUSH1 0x2 SUB PUSH2 0xA60 JUMPI PUSH2 0xA14 DUP7 DUP12 DUP5 DUP7 PUSH2 0x1983 JUMP JUMPDEST PUSH1 0x40 DUP1 MLOAD DUP9 DUP2 MSTORE PUSH1 0x20 DUP2 ADD DUP14 SWAP1 MSTORE SWAP1 DUP2 ADD DUP5 SWAP1 MSTORE PUSH1 0x60 DUP2 ADD DUP6 SWAP1 MSTORE SWAP1 SWAP2 POP PUSH32 0x5DE48BB383B4A2AAAD84721B80D93429B813651B0EEFBD59D32018CFE28215DC SWAP1 PUSH1 0x80 ADD PUSH1 0x40 MLOAD DUP1 SWAP2 SUB SWAP1 LOG1 JUMPDEST PUSH1 0x0 DUP11 DUP2 MSTORE PUSH1 0xA PUSH1 0x20 SWAP1 DUP2 MSTORE PUSH1 0x40 DUP1 DUP4 KECCAK256 DUP1 SLOAD PUSH1 0x1 DUP2 DUP2 ADD DUP4 SSTORE SWAP2 DUP6 MSTORE DUP4 DUP6 KECCAK256 ADD DUP6 SWAP1 SSTORE DUP10 DUP5 MSTORE DUP2 DUP5 KECCAK256 DUP1 SLOAD SWAP2 DUP3 ADD DUP2 SSTORE DUP5 MSTORE DUP3 DUP5 KECCAK256 ADD DUP5 SWAP1 SSTORE DUP13 DUP4 MSTORE PUSH1 0x7 SWAP1 SWAP2 MSTORE DUP2 KECCAK256 PUSH1 0x3 ADD DUP1 SLOAD DUP6 SWAP3 SWAP1 PUSH2 0xAB7 SWAP1 DUP5 SWAP1 PUSH2 0x1CD5 JUMP JUMPDEST SWAP1 SWAP2 SSTORE POP POP PUSH1 0x0 DUP7 DUP2 MSTORE PUSH1 0x7 PUSH1 0x20 MSTORE PUSH1 0x40 DUP2 KECCAK256 PUSH1 0x3 ADD DUP1 SLOAD DUP5 SWAP3 SWAP1 PUSH2 0xADD SWAP1 DUP5 SWAP1 PUSH2 0x1CD5 JUMP JUMPDEST SWAP1 SWAP2 SSTORE POP POP PUSH1 0x0 DUP7 DUP2 MSTORE PUSH1 0x7 PUSH1 0x20 MSTORE PUSH1 0x40 SWAP1 KECCAK256 PUSH1 0x3 DUP2 ADD SLOAD PUSH1 0x2 SWAP1 SWAP2 ADD SLOAD PUSH2 0xB05 SWAP2 SWAP1 PUSH2 0x1C83 JUMP JUMPDEST PUSH1 0x0 SUB PUSH2 0xB2B JUMPI PUSH1 0x5 DUP9 DUP2 SLOAD DUP2 LT PUSH2 0xB1F JUMPI PUSH2 0xB1F PUSH2 0x1BD1 JUMP JUMPDEST PUSH1 0x0 SWAP2 DUP3 MSTORE PUSH1 0x20 DUP3 KECCAK256 ADD SSTORE JUMPDEST PUSH2 0xB35 DUP4 DUP11 PUSH2 0x1C83 JUMP JUMPDEST SWAP9 POP POP POP POP POP POP POP PUSH2 0xB7E JUMP JUMPDEST POP POP PUSH1 0x5 DUP1 SLOAD PUSH1 0x1 DUP2 ADD DUP3 SSTORE PUSH1 0x0 SWAP2 SWAP1 SWAP2 MSTORE PUSH32 0x36B6384B5ECA791C62761152D0C79BB0604C104A5FB6F4EB0703F3154BB3DB0 ADD DUP3 SWAP1 SSTORE PUSH2 0xB85 JUMP JUMPDEST POP POP PUSH2 0x77A JUMP JUMPDEST POP PUSH2 0xBC1 JUMP JUMPDEST PUSH1 0x5 DUP1 SLOAD PUSH1 0x1 DUP2 ADD DUP3 SSTORE PUSH1 0x0 SWAP2 SWAP1 SWAP2 MSTORE PUSH32 0x36B6384B5ECA791C62761152D0C79BB0604C104A5FB6F4EB0703F3154BB3DB0 ADD DUP2 SWAP1 SSTORE JUMPDEST PUSH1 0x40 DUP1 MLOAD CALLER DUP2 MSTORE ADDRESS PUSH1 0x20 DUP3 ADD MSTORE SWAP1 DUP2 ADD DUP3 SWAP1 MSTORE PUSH1 0x60 DUP2 ADD DUP8 SWAP1 MSTORE PUSH1 0x80 DUP2 ADD DUP7 SWAP1 MSTORE PUSH1 0xA0 DUP2 ADD DUP6 SWAP1 MSTORE PUSH32 0x618F358BB45538682ADE624A4A1959053D9DABD20FE300508034B879681B37BE SWAP1 PUSH1 0xC0 ADD PUSH1 0x40 MLOAD DUP1 SWAP2 SUB SWAP1 LOG1 SWAP8 SWAP7 POP POP POP POP POP POP POP JUMP JUMPDEST PUSH1 0x2 PUSH1 0x0 SLOAD SUB PUSH2 0xC43 JUMPI PUSH1 0x40 MLOAD PUSH3 0x461BCD PUSH1 0xE5 SHL DUP2 MSTORE PUSH1 0x4 ADD PUSH2 0x2CE SWAP1 PUSH2 0x1C16 JUMP JUMPDEST PUSH1 0x2 PUSH1 0x0 DUP2 DUP2 SSTORE DUP3 DUP2 MSTORE PUSH1 0x7 PUSH1 0x20 SWAP1 DUP2 MSTORE PUSH1 0x40 SWAP2 DUP3 SWAP1 KECCAK256 DUP3 MLOAD PUSH1 0xC0 DUP2 ADD DUP5 MSTORE DUP2 SLOAD PUSH1 0x1 PUSH1 0x1 PUSH1 0xA0 SHL SUB SWAP1 DUP2 AND DUP1 DUP4 MSTORE PUSH1 0x1 DUP5 ADD SLOAD SWAP1 SWAP2 AND SWAP4 DUP3 ADD SWAP4 SWAP1 SWAP4 MSTORE SWAP4 DUP2 ADD SLOAD SWAP3 DUP5 ADD SWAP3 SWAP1 SWAP3 MSTORE PUSH1 0x3 DUP3 ADD SLOAD PUSH1 0x60 DUP5 ADD MSTORE PUSH1 0x4 DUP3 ADD SLOAD PUSH1 0x80 DUP5 ADD MSTORE PUSH1 0x5 SWAP1 SWAP2 ADD SLOAD PUSH1 0xA0 DUP4 ADD MSTORE CALLER EQ PUSH2 0xCEA JUMPI PUSH1 0x40 MLOAD PUSH3 0x461BCD PUSH1 0xE5 SHL DUP2 MSTORE PUSH1 0x20 PUSH1 0x4 DUP3 ADD MSTORE PUSH1 0xE PUSH1 0x24 DUP3 ADD MSTORE PUSH14 0x626574206F776E6572206F6E6C79 PUSH1 0x90 SHL PUSH1 0x44 DUP3 ADD MSTORE PUSH1 0x64 ADD PUSH2 0x2CE JUMP JUMPDEST PUSH1 0x0 DUP2 PUSH1 0x60 ADD MLOAD DUP3 PUSH1 0x40 ADD MLOAD PUSH2 0xD00 SWAP2 SWAP1 PUSH2 0x1C83 JUMP JUMPDEST DUP3 MLOAD PUSH1 0x1 PUSH1 0x1 PUSH1 0xA0 SHL SUB AND PUSH1 0x0 SWAP1 DUP2 MSTORE PUSH1 0x6 PUSH1 0x20 SWAP1 DUP2 MSTORE PUSH1 0x40 DUP1 DUP4 KECCAK256 DUP5 SWAP1 SSTORE DUP1 DUP7 ADD MLOAD DUP8 DUP5 MSTORE PUSH1 0x7 SWAP1 SWAP3 MSTORE DUP3 KECCAK256 PUSH1 0x3 ADD SSTORE SWAP1 SWAP2 POP JUMPDEST PUSH1 0x5 SLOAD DUP2 LT ISZERO PUSH2 0xD94 JUMPI DUP4 PUSH1 0x5 DUP3 DUP2 SLOAD DUP2 LT PUSH2 0xD53 JUMPI PUSH2 0xD53 PUSH2 0x1BD1 JUMP JUMPDEST SWAP1 PUSH1 0x0 MSTORE PUSH1 0x20 PUSH1 0x0 KECCAK256 ADD SLOAD SUB PUSH2 0xD82 JUMPI PUSH1 0x5 DUP2 DUP2 SLOAD DUP2 LT PUSH2 0xD76 JUMPI PUSH2 0xD76 PUSH2 0x1BD1 JUMP JUMPDEST PUSH1 0x0 SWAP2 DUP3 MSTORE PUSH1 0x20 DUP3 KECCAK256 ADD SSTORE JUMPDEST DUP1 PUSH2 0xD8C DUP2 PUSH2 0x1BFD JUMP JUMPDEST SWAP2 POP POP PUSH2 0xD35 JUMP JUMPDEST POP POP PUSH1 0x1 PUSH1 0x0 SSTORE POP POP JUMP JUMPDEST PUSH1 0x1 SLOAD PUSH1 0x0 SWAP1 PUSH1 0x1 PUSH1 0x1 PUSH1 0xA0 SHL SUB AND CALLER EQ PUSH2 0xDE6 JUMPI PUSH1 0x40 MLOAD PUSH3 0x461BCD PUSH1 0xE5 SHL DUP2 MSTORE PUSH1 0x20 PUSH1 0x4 DUP3 ADD MSTORE PUSH1 0x7 PUSH1 0x24 DUP3 ADD MSTORE PUSH7 0x6F776E6572206F PUSH1 0xC8 SHL PUSH1 0x44 DUP3 ADD MSTORE PUSH1 0x64 ADD PUSH2 0x2CE JUMP JUMPDEST PUSH1 0x2 SLOAD ISZERO DUP1 PUSH2 0xDF7 JUMPI POP PUSH1 0x2 SLOAD PUSH1 0x4 EQ JUMPDEST DUP1 ISZERO PUSH2 0xE0D JUMPI POP DUP2 PUSH1 0x1 EQ DUP1 PUSH2 0xE0D JUMPI POP DUP2 PUSH1 0x2 EQ JUMPDEST PUSH2 0xE42 JUMPI PUSH1 0x40 MLOAD PUSH3 0x461BCD PUSH1 0xE5 SHL DUP2 MSTORE PUSH1 0x20 PUSH1 0x4 DUP3 ADD MSTORE PUSH1 0x6 PUSH1 0x24 DUP3 ADD MSTORE PUSH6 0x10BC103BB4B7 PUSH1 0xD1 SHL PUSH1 0x44 DUP3 ADD MSTORE PUSH1 0x64 ADD PUSH2 0x2CE JUMP JUMPDEST PUSH1 0x2 DUP3 SWAP1 SSTORE PUSH1 0x0 JUMPDEST PUSH1 0x3 SLOAD DUP2 LT ISZERO PUSH2 0xE8C JUMPI PUSH2 0xE7A PUSH1 0x3 DUP3 DUP2 SLOAD DUP2 LT PUSH2 0xE6A JUMPI PUSH2 0xE6A PUSH2 0x1BD1 JUMP JUMPDEST SWAP1 PUSH1 0x0 MSTORE PUSH1 0x20 PUSH1 0x0 KECCAK256 ADD SLOAD PUSH2 0xE95 JUMP JUMPDEST DUP1 PUSH2 0xE84 DUP2 PUSH2 0x1BFD JUMP JUMPDEST SWAP2 POP POP PUSH2 0xE4A JUMP JUMPDEST POP PUSH1 0x1 SWAP3 SWAP2 POP POP JUMP JUMPDEST PUSH1 0x2 PUSH1 0x0 SLOAD SUB PUSH2 0xEB7 JUMPI PUSH1 0x40 MLOAD PUSH3 0x461BCD PUSH1 0xE5 SHL DUP2 MSTORE PUSH1 0x4 ADD PUSH2 0x2CE SWAP1 PUSH2 0x1C16 JUMP JUMPDEST PUSH1 0x2 PUSH1 0x0 SWAP1 DUP2 SSTORE DUP2 DUP2 MSTORE PUSH1 0x9 PUSH1 0x20 MSTORE PUSH1 0x40 SWAP1 KECCAK256 PUSH1 0x4 ADD SLOAD PUSH1 0xFF AND ISZERO PUSH2 0xF10 JUMPI PUSH1 0x40 MLOAD PUSH3 0x461BCD PUSH1 0xE5 SHL DUP2 MSTORE PUSH1 0x20 PUSH1 0x4 DUP3 ADD MSTORE PUSH1 0xF PUSH1 0x24 DUP3 ADD MSTORE PUSH15 0x185B1C9958591E481CD95D1D1B1959 PUSH1 0x8A SHL PUSH1 0x44 DUP3 ADD MSTORE PUSH1 0x64 ADD PUSH2 0x2CE JUMP JUMPDEST PUSH1 0x0 DUP1 PUSH1 0x0 DUP1 PUSH1 0x2 SLOAD PUSH1 0x1 SUB PUSH2 0x10F4 JUMPI PUSH1 0x0 DUP6 DUP2 MSTORE PUSH1 0x9 PUSH1 0x20 SWAP1 DUP2 MSTORE PUSH1 0x40 DUP1 DUP4 KECCAK256 SLOAD DUP4 MSTORE PUSH1 0x7 DUP3 MSTORE SWAP2 DUP3 SWAP1 KECCAK256 SLOAD DUP3 MLOAD PUSH4 0x55C4A8BF PUSH1 0xE0 SHL DUP2 MSTORE SWAP3 MLOAD PUSH1 0x1 PUSH1 0x1 PUSH1 0xA0 SHL SUB SWAP2 DUP3 AND SWAP8 POP PUSH1 0x64 SWAP4 PUSH32 0x0 SWAP1 SWAP3 AND SWAP3 PUSH4 0x55C4A8BF SWAP3 PUSH1 0x4 DUP1 DUP3 ADD SWAP4 SWAP2 DUP3 SWAP1 SUB ADD DUP2 DUP7 GAS STATICCALL ISZERO DUP1 ISZERO PUSH2 0xFA6 JUMPI RETURNDATASIZE PUSH1 0x0 DUP1 RETURNDATACOPY RETURNDATASIZE PUSH1 0x0 REVERT JUMPDEST POP POP POP POP PUSH1 0x40 MLOAD RETURNDATASIZE PUSH1 0x1F NOT PUSH1 0x1F DUP3 ADD AND DUP3 ADD DUP1 PUSH1 0x40 MSTORE POP DUP2 ADD SWAP1 PUSH2 0xFCA SWAP2 SWAP1 PUSH2 0x1C4D JUMP JUMPDEST PUSH2 0xFD5 SWAP1 PUSH1 0x64 PUSH2 0x1C83 JUMP JUMPDEST PUSH1 0x0 DUP8 DUP2 MSTORE PUSH1 0x9 PUSH1 0x20 MSTORE PUSH1 0x40 SWAP1 KECCAK256 PUSH1 0x3 ADD SLOAD PUSH2 0xFF1 SWAP2 SWAP1 PUSH2 0x1CBE JUMP JUMPDEST PUSH2 0xFFB SWAP2 SWAP1 PUSH2 0x1C9C JUMP JUMPDEST PUSH1 0x0 DUP7 DUP2 MSTORE PUSH1 0x9 PUSH1 0x20 MSTORE PUSH1 0x40 SWAP1 KECCAK256 PUSH1 0x2 ADD SLOAD PUSH2 0x1017 SWAP2 SWAP1 PUSH2 0x1CD5 JUMP JUMPDEST SWAP2 POP PUSH1 0x64 PUSH32 0x0 PUSH1 0x1 PUSH1 0x1 PUSH1 0xA0 SHL SUB AND PUSH4 0x55C4A8BF PUSH1 0x40 MLOAD DUP2 PUSH4 0xFFFFFFFF AND PUSH1 0xE0 SHL DUP2 MSTORE PUSH1 0x4 ADD PUSH1 0x20 PUSH1 0x40 MLOAD DUP1 DUP4 SUB DUP2 DUP7 GAS STATICCALL ISZERO DUP1 ISZERO PUSH2 0x1079 JUMPI RETURNDATASIZE PUSH1 0x0 DUP1 RETURNDATACOPY RETURNDATASIZE PUSH1 0x0 REVERT JUMPDEST POP POP POP POP PUSH1 0x40 MLOAD RETURNDATASIZE PUSH1 0x1F NOT PUSH1 0x1F DUP3 ADD AND DUP3 ADD DUP1 PUSH1 0x40 MSTORE POP DUP2 ADD SWAP1 PUSH2 0x109D SWAP2 SWAP1 PUSH2 0x1C4D JUMP JUMPDEST PUSH1 0x0 DUP8 DUP2 MSTORE PUSH1 0x9 PUSH1 0x20 MSTORE PUSH1 0x40 SWAP1 KECCAK256 PUSH1 0x3 ADD SLOAD PUSH2 0x10B9 SWAP2 SWAP1 PUSH2 0x1CBE JUMP JUMPDEST PUSH2 0x10C3 SWAP2 SWAP1 PUSH2 0x1C9C JUMP JUMPDEST PUSH1 0x0 DUP7 DUP2 MSTORE PUSH1 0x9 PUSH1 0x20 SWAP1 DUP2 MSTORE PUSH1 0x40 DUP1 DUP4 KECCAK256 SLOAD DUP4 MSTORE PUSH1 0x7 SWAP1 SWAP2 MSTORE SWAP1 KECCAK256 PUSH1 0x1 ADD SLOAD PUSH1 0x1 PUSH1 0x1 PUSH1 0xA0 SHL SUB AND SWAP4 POP SWAP1 POP PUSH2 0x1318 JUMP JUMPDEST PUSH1 0x2 SLOAD PUSH1 0x2 SUB PUSH2 0x12D9 JUMPI PUSH1 0x0 DUP6 DUP2 MSTORE PUSH1 0x9 PUSH1 0x20 SWAP1 DUP2 MSTORE PUSH1 0x40 DUP1 DUP4 KECCAK256 PUSH1 0x1 ADD SLOAD DUP4 MSTORE PUSH1 0x7 DUP3 MSTORE SWAP2 DUP3 SWAP1 KECCAK256 SLOAD DUP3 MLOAD PUSH4 0x55C4A8BF PUSH1 0xE0 SHL DUP2 MSTORE SWAP3 MLOAD PUSH1 0x1 PUSH1 0x1 PUSH1 0xA0 SHL SUB SWAP2 DUP3 AND SWAP8 POP PUSH1 0x64 SWAP4 PUSH32 0x0 SWAP1 SWAP3 AND SWAP3 PUSH4 0x55C4A8BF SWAP3 PUSH1 0x4 DUP1 DUP3 ADD SWAP4 SWAP2 DUP3 SWAP1 SUB ADD DUP2 DUP7 GAS STATICCALL ISZERO DUP1 ISZERO PUSH2 0x1187 JUMPI RETURNDATASIZE PUSH1 0x0 DUP1 RETURNDATACOPY RETURNDATASIZE PUSH1 0x0 REVERT JUMPDEST POP POP POP POP PUSH1 0x40 MLOAD RETURNDATASIZE PUSH1 0x1F NOT PUSH1 0x1F DUP3 ADD AND DUP3 ADD DUP1 PUSH1 0x40 MSTORE POP DUP2 ADD SWAP1 PUSH2 0x11AB SWAP2 SWAP1 PUSH2 0x1C4D JUMP JUMPDEST PUSH2 0x11B6 SWAP1 PUSH1 0x64 PUSH2 0x1C83 JUMP JUMPDEST PUSH1 0x0 DUP8 DUP2 MSTORE PUSH1 0x9 PUSH1 0x20 MSTORE PUSH1 0x40 SWAP1 KECCAK256 PUSH1 0x2 ADD SLOAD PUSH2 0x11D2 SWAP2 SWAP1 PUSH2 0x1CBE JUMP JUMPDEST PUSH2 0x11DC SWAP2 SWAP1 PUSH2 0x1C9C JUMP JUMPDEST PUSH1 0x0 DUP7 DUP2 MSTORE PUSH1 0x9 PUSH1 0x20 MSTORE PUSH1 0x40 SWAP1 KECCAK256 PUSH1 0x3 ADD SLOAD PUSH2 0x11F8 SWAP2 SWAP1 PUSH2 0x1CD5 JUMP JUMPDEST SWAP2 POP PUSH1 0x64 PUSH32 0x0 PUSH1 0x1 PUSH1 0x1 PUSH1 0xA0 SHL SUB AND PUSH4 0x55C4A8BF PUSH1 0x40 MLOAD DUP2 PUSH4 0xFFFFFFFF AND PUSH1 0xE0 SHL DUP2 MSTORE PUSH1 0x4 ADD PUSH1 0x20 PUSH1 0x40 MLOAD DUP1 DUP4 SUB DUP2 DUP7 GAS STATICCALL ISZERO DUP1 ISZERO PUSH2 0x125A JUMPI RETURNDATASIZE PUSH1 0x0 DUP1 RETURNDATACOPY RETURNDATASIZE PUSH1 0x0 REVERT JUMPDEST POP POP POP POP PUSH1 0x40 MLOAD RETURNDATASIZE PUSH1 0x1F NOT PUSH1 0x1F DUP3 ADD AND DUP3 ADD DUP1 PUSH1 0x40 MSTORE POP DUP2 ADD SWAP1 PUSH2 0x127E SWAP2 SWAP1 PUSH2 0x1C4D JUMP JUMPDEST PUSH1 0x0 DUP8 DUP2 MSTORE PUSH1 0x9 PUSH1 0x20 MSTORE PUSH1 0x40 SWAP1 KECCAK256 PUSH1 0x2 ADD SLOAD PUSH2 0x129A SWAP2 SWAP1 PUSH2 0x1CBE JUMP JUMPDEST PUSH2 0x12A4 SWAP2 SWAP1 PUSH2 0x1C9C JUMP JUMPDEST PUSH1 0x0 DUP7 DUP2 MSTORE PUSH1 0x9 PUSH1 0x20 SWAP1 DUP2 MSTORE PUSH1 0x40 DUP1 DUP4 KECCAK256 PUSH1 0x1 SWAP1 DUP2 ADD SLOAD DUP5 MSTORE PUSH1 0x7 SWAP1 SWAP3 MSTORE SWAP1 SWAP2 KECCAK256 ADD SLOAD PUSH1 0x1 PUSH1 0x1 PUSH1 0xA0 SHL SUB AND SWAP4 POP SWAP1 POP PUSH2 0x1318 JUMP JUMPDEST PUSH1 0x40 MLOAD PUSH3 0x461BCD PUSH1 0xE5 SHL DUP2 MSTORE PUSH1 0x20 PUSH1 0x4 DUP3 ADD MSTORE PUSH1 0x14 PUSH1 0x24 DUP3 ADD MSTORE PUSH20 0x696E76616C69642077696E6E696E672073696465 PUSH1 0x60 SHL PUSH1 0x44 DUP3 ADD MSTORE PUSH1 0x64 ADD PUSH2 0x2CE JUMP JUMPDEST PUSH1 0x1 PUSH1 0x1 PUSH1 0xA0 SHL SUB DUP4 AND PUSH2 0x13AB JUMPI PUSH32 0x0 PUSH1 0x1 PUSH1 0x1 PUSH1 0xA0 SHL SUB AND PUSH4 0x9953B2F PUSH1 0x40 MLOAD DUP2 PUSH4 0xFFFFFFFF AND PUSH1 0xE0 SHL DUP2 MSTORE PUSH1 0x4 ADD PUSH1 0x20 PUSH1 0x40 MLOAD DUP1 DUP4 SUB DUP2 DUP7 GAS STATICCALL ISZERO DUP1 ISZERO PUSH2 0x1384 JUMPI RETURNDATASIZE PUSH1 0x0 DUP1 RETURNDATACOPY RETURNDATASIZE PUSH1 0x0 REVERT JUMPDEST POP POP POP POP PUSH1 0x40 MLOAD RETURNDATASIZE PUSH1 0x1F NOT PUSH1 0x1F DUP3 ADD AND DUP3 ADD DUP1 PUSH1 0x40 MSTORE POP DUP2 ADD SWAP1 PUSH2 0x13A8 SWAP2 SWAP1 PUSH2 0x1CE8 JUMP JUMPDEST SWAP3 POP JUMPDEST PUSH1 0x1 PUSH1 0x1 PUSH1 0xA0 SHL SUB DUP5 AND PUSH1 0x0 SWAP1 DUP2 MSTORE PUSH1 0x6 PUSH1 0x20 MSTORE PUSH1 0x40 DUP2 KECCAK256 DUP1 SLOAD DUP5 SWAP3 SWAP1 PUSH2 0x13D3 SWAP1 DUP5 SWAP1 PUSH2 0x1CD5 JUMP JUMPDEST SWAP3 POP POP DUP2 SWAP1 SSTORE POP PUSH1 0x64 PUSH32 0x0 PUSH1 0x1 PUSH1 0x1 PUSH1 0xA0 SHL SUB AND PUSH4 0x6A0CCD9D PUSH1 0x40 MLOAD DUP2 PUSH4 0xFFFFFFFF AND PUSH1 0xE0 SHL DUP2 MSTORE PUSH1 0x4 ADD PUSH1 0x20 PUSH1 0x40 MLOAD DUP1 DUP4 SUB DUP2 DUP7 GAS STATICCALL ISZERO DUP1 ISZERO PUSH2 0x143A JUMPI RETURNDATASIZE PUSH1 0x0 DUP1 RETURNDATACOPY RETURNDATASIZE PUSH1 0x0 REVERT JUMPDEST POP POP POP POP PUSH1 0x40 MLOAD RETURNDATASIZE PUSH1 0x1F NOT PUSH1 0x1F DUP3 ADD AND DUP3 ADD DUP1 PUSH1 0x40 MSTORE POP DUP2 ADD SWAP1 PUSH2 0x145E SWAP2 SWAP1 PUSH2 0x1C4D JUMP JUMPDEST PUSH2 0x1468 SWAP1 DUP4 PUSH2 0x1CBE JUMP JUMPDEST PUSH2 0x1472 SWAP2 SWAP1 PUSH2 0x1C9C JUMP JUMPDEST PUSH1 0x6 PUSH1 0x0 PUSH32 0x0 PUSH1 0x1 PUSH1 0x1 PUSH1 0xA0 SHL SUB AND PUSH4 0xB7640A54 PUSH1 0x40 MLOAD DUP2 PUSH4 0xFFFFFFFF AND PUSH1 0xE0 SHL DUP2 MSTORE PUSH1 0x4 ADD PUSH1 0x20 PUSH1 0x40 MLOAD DUP1 DUP4 SUB DUP2 DUP7 GAS STATICCALL ISZERO DUP1 ISZERO PUSH2 0x14D4 JUMPI RETURNDATASIZE PUSH1 0x0 DUP1 RETURNDATACOPY RETURNDATASIZE PUSH1 0x0 REVERT JUMPDEST POP POP POP POP PUSH1 0x40 MLOAD RETURNDATASIZE PUSH1 0x1F NOT PUSH1 0x1F DUP3 ADD AND DUP3 ADD DUP1 PUSH1 0x40 MSTORE POP DUP2 ADD SWAP1 PUSH2 0x14F8 SWAP2 SWAP1 PUSH2 0x1CE8 JUMP JUMPDEST PUSH1 0x1 PUSH1 0x1 PUSH1 0xA0 SHL SUB AND PUSH1 0x1 PUSH1 0x1 PUSH1 0xA0 SHL SUB AND DUP2 MSTORE PUSH1 0x20 ADD SWAP1 DUP2 MSTORE PUSH1 0x20 ADD PUSH1 0x0 KECCAK256 PUSH1 0x0 DUP3 DUP3 SLOAD PUSH2 0x1527 SWAP2 SWAP1 PUSH2 0x1CD5 JUMP JUMPDEST SWAP3 POP POP DUP2 SWAP1 SSTORE POP PUSH1 0x64 PUSH32 0x0 PUSH1 0x1 PUSH1 0x1 PUSH1 0xA0 SHL SUB AND PUSH4 0x28576D45 PUSH1 0x40 MLOAD DUP2 PUSH4 0xFFFFFFFF AND PUSH1 0xE0 SHL DUP2 MSTORE PUSH1 0x4 ADD PUSH1 0x20 PUSH1 0x40 MLOAD DUP1 DUP4 SUB DUP2 DUP7 GAS STATICCALL ISZERO DUP1 ISZERO PUSH2 0x158E JUMPI RETURNDATASIZE PUSH1 0x0 DUP1 RETURNDATACOPY RETURNDATASIZE PUSH1 0x0 REVERT JUMPDEST POP POP POP POP PUSH1 0x40 MLOAD RETURNDATASIZE PUSH1 0x1F NOT PUSH1 0x1F DUP3 ADD AND DUP3 ADD DUP1 PUSH1 0x40 MSTORE POP DUP2 ADD SWAP1 PUSH2 0x15B2 SWAP2 SWAP1 PUSH2 0x1C4D JUMP JUMPDEST PUSH2 0x15BC SWAP1 DUP4 PUSH2 0x1CBE JUMP JUMPDEST PUSH2 0x15C6 SWAP2 SWAP1 PUSH2 0x1C9C JUMP JUMPDEST PUSH1 0x6 PUSH1 0x0 PUSH32 0x0 PUSH1 0x1 PUSH1 0x1 PUSH1 0xA0 SHL SUB AND PUSH4 0x9953B2F PUSH1 0x40 MLOAD DUP2 PUSH4 0xFFFFFFFF AND PUSH1 0xE0 SHL DUP2 MSTORE PUSH1 0x4 ADD PUSH1 0x20 PUSH1 0x40 MLOAD DUP1 DUP4 SUB DUP2 DUP7 GAS STATICCALL ISZERO DUP1 ISZERO PUSH2 0x1628 JUMPI RETURNDATASIZE PUSH1 0x0 DUP1 RETURNDATACOPY RETURNDATASIZE PUSH1 0x0 REVERT JUMPDEST POP POP POP POP PUSH1 0x40 MLOAD RETURNDATASIZE PUSH1 0x1F NOT PUSH1 0x1F DUP3 ADD AND DUP3 ADD DUP1 PUSH1 0x40 MSTORE POP DUP2 ADD SWAP1 PUSH2 0x164C SWAP2 SWAP1 PUSH2 0x1CE8 JUMP JUMPDEST PUSH1 0x1 PUSH1 0x1 PUSH1 0xA0 SHL SUB AND PUSH1 0x1 PUSH1 0x1 PUSH1 0xA0 SHL SUB AND DUP2 MSTORE PUSH1 0x20 ADD SWAP1 DUP2 MSTORE PUSH1 0x20 ADD PUSH1 0x0 KECCAK256 PUSH1 0x0 DUP3 DUP3 SLOAD PUSH2 0x167B SWAP2 SWAP1 PUSH2 0x1CD5 JUMP JUMPDEST SWAP3 POP POP DUP2 SWAP1 SSTORE POP PUSH1 0x64 PUSH32 0x0 PUSH1 0x1 PUSH1 0x1 PUSH1 0xA0 SHL SUB AND PUSH4 0x54CD1A5C PUSH1 0x40 MLOAD DUP2 PUSH4 0xFFFFFFFF AND PUSH1 0xE0 SHL DUP2 MSTORE PUSH1 0x4 ADD PUSH1 0x20 PUSH1 0x40 MLOAD DUP1 DUP4 SUB DUP2 DUP7 GAS STATICCALL ISZERO DUP1 ISZERO PUSH2 0x16E2 JUMPI RETURNDATASIZE PUSH1 0x0 DUP1 RETURNDATACOPY RETURNDATASIZE PUSH1 0x0 REVERT JUMPDEST POP POP POP POP PUSH1 0x40 MLOAD RETURNDATASIZE PUSH1 0x1F NOT PUSH1 0x1F DUP3 ADD AND DUP3 ADD DUP1 PUSH1 0x40 MSTORE POP DUP2 ADD SWAP1 PUSH2 0x1706 SWAP2 SWAP1 PUSH2 0x1C4D JUMP JUMPDEST PUSH2 0x1710 SWAP1 DUP4 PUSH2 0x1CBE JUMP JUMPDEST PUSH2 0x171A SWAP2 SWAP1 PUSH2 0x1C9C JUMP JUMPDEST PUSH1 0x1 PUSH1 0x1 PUSH1 0xA0 SHL SUB DUP5 AND PUSH1 0x0 SWAP1 DUP2 MSTORE PUSH1 0x6 PUSH1 0x20 MSTORE PUSH1 0x40 DUP2 KECCAK256 DUP1 SLOAD SWAP1 SWAP2 SWAP1 PUSH2 0x1742 SWAP1 DUP5 SWAP1 PUSH2 0x1CD5 JUMP JUMPDEST SWAP1 SWAP2 SSTORE POP POP POP PUSH1 0x0 DUP5 DUP2 MSTORE PUSH1 0x9 PUSH1 0x20 MSTORE PUSH1 0x40 SWAP1 KECCAK256 PUSH1 0x4 ADD DUP1 SLOAD PUSH1 0xFF NOT AND PUSH1 0x1 OR SWAP1 SSTORE POP POP POP POP PUSH1 0x1 PUSH1 0x0 SSTORE JUMP JUMPDEST PUSH1 0x0 DUP2 DUP2 MSTORE PUSH1 0x9 PUSH1 0x20 SWAP1 DUP2 MSTORE PUSH1 0x40 DUP1 DUP4 KECCAK256 DUP1 SLOAD DUP5 MSTORE PUSH1 0x7 DUP4 MSTORE DUP2 DUP5 KECCAK256 SLOAD PUSH1 0x1 DUP3 ADD SLOAD DUP6 MSTORE DUP3 DUP6 KECCAK256 SLOAD PUSH1 0x2 SWAP1 SWAP3 ADD SLOAD PUSH1 0x1 PUSH1 0x1 PUSH1 0xA0 SHL SUB SWAP2 DUP3 AND DUP1 DUP8 MSTORE PUSH1 0x6 SWAP1 SWAP6 MSTORE SWAP3 DUP6 KECCAK256 DUP1 SLOAD SWAP5 SWAP6 SWAP2 SWAP1 SWAP3 AND SWAP4 PUSH2 0x17C7 SWAP1 DUP5 SWAP1 PUSH2 0x1CD5 JUMP JUMPDEST SWAP1 SWAP2 SSTORE POP POP PUSH1 0x0 DUP4 DUP2 MSTORE PUSH1 0x9 PUSH1 0x20 SWAP1 DUP2 MSTORE PUSH1 0x40 DUP1 DUP4 KECCAK256 PUSH1 0x3 ADD SLOAD PUSH1 0x1 PUSH1 0x1 PUSH1 0xA0 SHL SUB DUP6 AND DUP5 MSTORE PUSH1 0x6 SWAP1 SWAP3 MSTORE DUP3 KECCAK256 DUP1 SLOAD SWAP2 SWAP3 SWAP1 SWAP2 PUSH2 0x1805 SWAP1 DUP5 SWAP1 PUSH2 0x1CD5 JUMP JUMPDEST SWAP1 SWAP2 SSTORE POP POP POP PUSH1 0x0 SWAP2 DUP3 MSTORE POP PUSH1 0x9 PUSH1 0x20 MSTORE PUSH1 0x40 SWAP1 KECCAK256 PUSH1 0x4 ADD DUP1 SLOAD PUSH1 0xFF NOT AND PUSH1 0x1 OR SWAP1 SSTORE JUMP JUMPDEST PUSH1 0x0 DUP1 JUMPDEST PUSH1 0x4 SLOAD PUSH1 0x40 MLOAD PUSH12 0xFFFFFFFFFFFFFFFFFFFFFFFF NOT PUSH1 0x60 DUP12 DUP2 SHL DUP3 AND PUSH1 0x20 DUP5 ADD MSTORE ADDRESS SWAP1 SHL AND PUSH1 0x34 DUP3 ADD MSTORE PUSH1 0x48 DUP2 ADD SWAP2 SWAP1 SWAP2 MSTORE TIMESTAMP PUSH1 0x68 DUP3 ADD MSTORE DIFFICULTY PUSH1 0x88 DUP3 ADD MSTORE PUSH1 0xA8 ADD PUSH1 0x40 DUP1 MLOAD PUSH1 0x1F NOT DUP2 DUP5 SUB ADD DUP2 MSTORE SWAP2 DUP2 MSTORE DUP2 MLOAD PUSH1 0x20 SWAP3 DUP4 ADD KECCAK256 PUSH1 0x0 DUP2 DUP2 MSTORE PUSH1 0x7 SWAP1 SWAP4 MSTORE SWAP2 KECCAK256 PUSH1 0x2 ADD SLOAD SWAP1 SWAP2 POP PUSH2 0x182E JUMPI PUSH1 0x40 DUP1 MLOAD PUSH1 0xC0 DUP2 ADD DUP3 MSTORE PUSH1 0x1 PUSH1 0x1 PUSH1 0xA0 SHL SUB SWAP10 DUP11 AND DUP1 DUP3 MSTORE SWAP9 DUP11 AND PUSH1 0x20 DUP1 DUP4 ADD SWAP2 DUP3 MSTORE DUP3 DUP5 ADD SWAP10 DUP11 MSTORE PUSH1 0x60 DUP4 ADD SWAP9 DUP10 MSTORE PUSH1 0x80 DUP4 ADD SWAP8 DUP9 MSTORE PUSH1 0xA0 DUP4 ADD SWAP7 DUP8 MSTORE PUSH1 0x0 DUP6 DUP2 MSTORE PUSH1 0x7 DUP3 MSTORE DUP5 DUP2 KECCAK256 SWAP4 MLOAD DUP5 SLOAD SWAP1 DUP15 AND PUSH1 0x1 PUSH1 0x1 PUSH1 0xA0 SHL SUB NOT SWAP2 DUP3 AND OR DUP6 SSTORE SWAP3 MLOAD PUSH1 0x1 DUP1 DUP7 ADD DUP1 SLOAD SWAP3 SWAP1 SWAP16 AND SWAP2 SWAP1 SWAP5 AND OR SWAP1 SWAP13 SSTORE SWAP9 MLOAD PUSH1 0x2 DUP4 ADD SSTORE SWAP7 MLOAD PUSH1 0x3 DUP3 ADD SSTORE SWAP5 MLOAD PUSH1 0x4 DUP1 DUP8 ADD SWAP2 SWAP1 SWAP2 SSTORE SWAP4 MLOAD PUSH1 0x5 SWAP1 SWAP6 ADD SWAP5 SWAP1 SWAP5 SSTORE DUP3 SLOAD DUP1 DUP7 ADD SWAP1 SWAP4 SSTORE PUSH32 0x8A35ACFBC15FF81A39AE7D344FD709F28E8600B4AA8C65C6B64BFE7FE36BD19B SWAP1 SWAP3 ADD DUP3 SWAP1 SSTORE POP SWAP4 DUP6 MSTORE PUSH1 0x8 DUP4 MSTORE DUP5 KECCAK256 DUP1 SLOAD SWAP2 DUP3 ADD DUP2 SSTORE DUP5 MSTORE SWAP3 KECCAK256 SWAP1 SWAP2 ADD DUP2 SWAP1 SSTORE SWAP1 JUMP JUMPDEST PUSH1 0x0 DUP1 JUMPDEST PUSH1 0x3 SLOAD PUSH1 0x40 DUP1 MLOAD PUSH1 0x20 DUP2 ADD DUP10 SWAP1 MSTORE SWAP1 DUP2 ADD DUP8 SWAP1 MSTORE PUSH1 0x60 DUP2 ADD SWAP2 SWAP1 SWAP2 MSTORE TIMESTAMP PUSH1 0x80 DUP3 ADD MSTORE DIFFICULTY PUSH1 0xA0 DUP3 ADD MSTORE PUSH1 0xC0 ADD PUSH1 0x40 DUP1 MLOAD PUSH1 0x1F NOT DUP2 DUP5 SUB ADD DUP2 MSTORE SWAP2 DUP2 MSTORE DUP2 MLOAD PUSH1 0x20 SWAP3 DUP4 ADD KECCAK256 PUSH1 0x0 DUP2 DUP2 MSTORE PUSH1 0x9 SWAP1 SWAP4 MSTORE SWAP2 KECCAK256 PUSH1 0x2 ADD SLOAD SWAP1 SWAP2 POP PUSH2 0x1987 JUMPI PUSH1 0x40 DUP1 MLOAD PUSH1 0xA0 DUP2 ADD DUP3 MSTORE SWAP7 DUP8 MSTORE PUSH1 0x20 DUP1 DUP9 ADD SWAP7 DUP8 MSTORE DUP8 DUP3 ADD SWAP6 DUP7 MSTORE PUSH1 0x60 DUP9 ADD SWAP5 DUP6 MSTORE PUSH1 0x0 PUSH1 0x80 DUP10 ADD DUP2 DUP2 MSTORE DUP5 DUP3 MSTORE PUSH1 0x9 SWAP1 SWAP3 MSTORE SWAP2 DUP3 KECCAK256 SWAP8 MLOAD DUP9 SSTORE SWAP6 MLOAD PUSH1 0x1 DUP1 DUP10 ADD SWAP2 SWAP1 SWAP2 SSTORE SWAP5 MLOAD PUSH1 0x2 DUP9 ADD SSTORE SWAP3 MLOAD PUSH1 0x3 DUP1 DUP9 ADD SWAP2 SWAP1 SWAP2 SSTORE SWAP5 MLOAD PUSH1 0x4 SWAP1 SWAP7 ADD DUP1 SLOAD PUSH1 0xFF NOT AND SWAP7 ISZERO ISZERO SWAP7 SWAP1 SWAP7 OR SWAP1 SWAP6 SSTORE POP DUP3 SLOAD SWAP2 DUP3 ADD DUP4 SSTORE SWAP2 SWAP1 SWAP2 MSTORE PUSH32 0xC2575A0E9E593C00F959F8C92F12DB2869C3395A3B0502D05E2516446F71F85B ADD DUP2 SWAP1 SSTORE SWAP1 JUMP JUMPDEST PUSH1 0x1 PUSH1 0x1 PUSH1 0xA0 SHL SUB DUP2 AND DUP2 EQ PUSH2 0x1A98 JUMPI PUSH1 0x0 DUP1 REVERT JUMPDEST POP JUMP JUMPDEST PUSH1 0x0 PUSH1 0x20 DUP3 DUP5 SUB SLT ISZERO PUSH2 0x1AAD JUMPI PUSH1 0x0 DUP1 REVERT JUMPDEST DUP2 CALLDATALOAD PUSH2 0x1AB8 DUP2 PUSH2 0x1A83 JUMP JUMPDEST SWAP4 SWAP3 POP POP POP JUMP JUMPDEST PUSH1 0x20 DUP1 DUP3 MSTORE DUP3 MLOAD DUP3 DUP3 ADD DUP2 SWAP1 MSTORE PUSH1 0x0 SWAP2 SWAP1 PUSH1 0x40 SWAP1 DUP2 DUP6 ADD SWAP1 DUP7 DUP5 ADD DUP6 JUMPDEST DUP3 DUP2 LT ISZERO PUSH2 0x1B36 JUMPI DUP2 MLOAD DUP1 MLOAD PUSH1 0x1 PUSH1 0x1 PUSH1 0xA0 SHL SUB SWAP1 DUP2 AND DUP7 MSTORE DUP8 DUP3 ADD MLOAD AND DUP8 DUP7 ADD MSTORE DUP6 DUP2 ADD MLOAD DUP7 DUP7 ADD MSTORE PUSH1 0x60 DUP1 DUP3 ADD MLOAD SWAP1 DUP7 ADD MSTORE PUSH1 0x80 DUP1 DUP3 ADD MLOAD SWAP1 DUP7 ADD MSTORE PUSH1 0xA0 SWAP1 DUP2 ADD MLOAD SWAP1 DUP6 ADD MSTORE PUSH1 0xC0 SWAP1 SWAP4 ADD SWAP3 SWAP1 DUP6 ADD SWAP1 PUSH1 0x1 ADD PUSH2 0x1ADC JUMP JUMPDEST POP SWAP2 SWAP8 SWAP7 POP POP POP POP POP POP POP JUMP JUMPDEST PUSH1 0x0 PUSH1 0x20 DUP3 DUP5 SUB SLT ISZERO PUSH2 0x1B55 JUMPI PUSH1 0x0 DUP1 REVERT JUMPDEST POP CALLDATALOAD SWAP2 SWAP1 POP JUMP JUMPDEST DUP1 ISZERO ISZERO DUP2 EQ PUSH2 0x1A98 JUMPI PUSH1 0x0 DUP1 REVERT JUMPDEST PUSH1 0x0 DUP1 PUSH1 0x0 DUP1 PUSH1 0x0 DUP1 PUSH1 0xC0 DUP8 DUP10 SUB SLT ISZERO PUSH2 0x1B83 JUMPI PUSH1 0x0 DUP1 REVERT JUMPDEST DUP7 CALLDATALOAD PUSH2 0x1B8E DUP2 PUSH2 0x1A83 JUMP JUMPDEST SWAP6 POP PUSH1 0x20 DUP8 ADD CALLDATALOAD PUSH2 0x1B9E DUP2 PUSH2 0x1A83 JUMP JUMPDEST SWAP5 POP PUSH1 0x40 DUP8 ADD CALLDATALOAD SWAP4 POP PUSH1 0x60 DUP8 ADD CALLDATALOAD SWAP3 POP PUSH1 0x80 DUP8 ADD CALLDATALOAD SWAP2 POP PUSH1 0xA0 DUP8 ADD CALLDATALOAD PUSH2 0x1BC3 DUP2 PUSH2 0x1B5C JUMP JUMPDEST DUP1 SWAP2 POP POP SWAP3 SWAP6 POP SWAP3 SWAP6 POP SWAP3 SWAP6 JUMP JUMPDEST PUSH4 0x4E487B71 PUSH1 0xE0 SHL PUSH1 0x0 MSTORE PUSH1 0x32 PUSH1 0x4 MSTORE PUSH1 0x24 PUSH1 0x0 REVERT JUMPDEST PUSH4 0x4E487B71 PUSH1 0xE0 SHL PUSH1 0x0 MSTORE PUSH1 0x11 PUSH1 0x4 MSTORE PUSH1 0x24 PUSH1 0x0 REVERT JUMPDEST PUSH1 0x0 PUSH1 0x1 DUP3 ADD PUSH2 0x1C0F JUMPI PUSH2 0x1C0F PUSH2 0x1BE7 JUMP JUMPDEST POP PUSH1 0x1 ADD SWAP1 JUMP JUMPDEST PUSH1 0x20 DUP1 DUP3 MSTORE PUSH1 0x1F SWAP1 DUP3 ADD MSTORE PUSH32 0x5265656E7472616E637947756172643A207265656E7472616E742063616C6C00 PUSH1 0x40 DUP3 ADD MSTORE PUSH1 0x60 ADD SWAP1 JUMP JUMPDEST PUSH1 0x0 PUSH1 0x20 DUP3 DUP5 SUB SLT ISZERO PUSH2 0x1C5F JUMPI PUSH1 0x0 DUP1 REVERT JUMPDEST POP MLOAD SWAP2 SWAP1 POP JUMP JUMPDEST PUSH1 0x0 PUSH1 0x20 DUP3 DUP5 SUB SLT ISZERO PUSH2 0x1C78 JUMPI PUSH1 0x0 DUP1 REVERT JUMPDEST DUP2 MLOAD PUSH2 0x1AB8 DUP2 PUSH2 0x1B5C JUMP JUMPDEST DUP2 DUP2 SUB DUP2 DUP2 GT ISZERO PUSH2 0x1C96 JUMPI PUSH2 0x1C96 PUSH2 0x1BE7 JUMP JUMPDEST SWAP3 SWAP2 POP POP JUMP JUMPDEST PUSH1 0x0 DUP3 PUSH2 0x1CB9 JUMPI PUSH4 0x4E487B71 PUSH1 0xE0 SHL PUSH1 0x0 MSTORE PUSH1 0x12 PUSH1 0x4 MSTORE PUSH1 0x24 PUSH1 0x0 REVERT JUMPDEST POP DIV SWAP1 JUMP JUMPDEST DUP1 DUP3 MUL DUP2 ISZERO DUP3 DUP3 DIV DUP5 EQ OR PUSH2 0x1C96 JUMPI PUSH2 0x1C96 PUSH2 0x1BE7 JUMP JUMPDEST DUP1 DUP3 ADD DUP1 DUP3 GT ISZERO PUSH2 0x1C96 JUMPI PUSH2 0x1C96 PUSH2 0x1BE7 JUMP JUMPDEST PUSH1 0x0 PUSH1 0x20 DUP3 DUP5 SUB SLT ISZERO PUSH2 0x1CFA JUMPI PUSH1 0x0 DUP1 REVERT JUMPDEST DUP2 MLOAD PUSH2 0x1AB8 DUP2 PUSH2 0x1A83 JUMP INVALID LOG2 PUSH5 0x6970667358 0x22 SLT KECCAK256 0xD1 NOT PUSH24 0xF37661526B2B3D118B8CD7A90CF009A53495676F38A1230B 0xF 0xDF 0xEA 0xE1 CALLDATACOPY PUSH5 0x736F6C6343 STOP ADDMOD GT STOP CALLER "
				},
				"gasEstimates": {
					"creation": {
						"codeDepositCost": "1496600",
						"executionCost": "infinite",
						"totalCost": "infinite"
					},
					"external": {
						"addBet(address,address,uint256,uint256,uint256,bool)": "infinite",
						"cancelMarket()": "infinite",
						"cancelPending(bytes32)": "infinite",
						"getBalance(address)": "2608",
						"getUserBets(address)": "infinite",
						"settle(uint256)": "infinite",
						"settleBet(bytes32)": "infinite",
						"status()": "2285",
						"withdraw(address)": "infinite"
					},
					"internal": {
						"_cancelPair(bytes32)": "infinite",
						"_createBet(address,address,uint256,uint256,uint256,uint256)": "infinite",
						"_createPair(bytes32,bytes32,uint256,uint256)": "infinite",
						"_settlePair(bytes32)": "infinite"
					}
				},
				"methodIdentifiers": {
					"addBet(address,address,uint256,uint256,uint256,bool)": "78d65b2f",
					"cancelMarket()": "6bfefd6b",
					"cancelPending(bytes32)": "893372ca",
					"getBalance(address)": "f8b2cb4f",
					"getUserBets(address)": "2d56657d",
					"settle(uint256)": "8df82800",
					"settleBet(bytes32)": "675f6537",
					"status()": "200d2ed2",
					"withdraw(address)": "51cff8d9"
				}
			},
			"storageLayout": {
				"storage": [
					{
						"astId": 10,
						"contract": "contracts/Market.sol:Market",
						"label": "_status",
						"offset": 0,
						"slot": "0",
						"type": "t_uint256"
					},
					{
						"astId": 128,
						"contract": "contracts/Market.sol:Market",
						"label": "factory",
						"offset": 0,
						"slot": "1",
						"type": "t_address"
					},
					{
						"astId": 132,
						"contract": "contracts/Market.sol:Market",
						"label": "status",
						"offset": 0,
						"slot": "2",
						"type": "t_uint256"
					},
					{
						"astId": 135,
						"contract": "contracts/Market.sol:Market",
						"label": "pairs",
						"offset": 0,
						"slot": "3",
						"type": "t_array(t_bytes32)dyn_storage"
					},
					{
						"astId": 138,
						"contract": "contracts/Market.sol:Market",
						"label": "bets",
						"offset": 0,
						"slot": "4",
						"type": "t_array(t_bytes32)dyn_storage"
					},
					{
						"astId": 141,
						"contract": "contracts/Market.sol:Market",
						"label": "pendingBets",
						"offset": 0,
						"slot": "5",
						"type": "t_array(t_bytes32)dyn_storage"
					},
					{
						"astId": 156,
						"contract": "contracts/Market.sol:Market",
						"label": "bal",
						"offset": 0,
						"slot": "6",
						"type": "t_mapping(t_address,t_uint256)"
					},
					{
						"astId": 161,
						"contract": "contracts/Market.sol:Market",
						"label": "betsInfo",
						"offset": 0,
						"slot": "7",
						"type": "t_mapping(t_bytes32,t_struct(MarketBet)1824_storage)"
					},
					{
						"astId": 166,
						"contract": "contracts/Market.sol:Market",
						"label": "userBets",
						"offset": 0,
						"slot": "8",
						"type": "t_mapping(t_address,t_array(t_bytes32)dyn_storage)"
					},
					{
						"astId": 171,
						"contract": "contracts/Market.sol:Market",
						"label": "pairsInfo",
						"offset": 0,
						"slot": "9",
						"type": "t_mapping(t_bytes32,t_struct(MarketPair)152_storage)"
					},
					{
						"astId": 176,
						"contract": "contracts/Market.sol:Market",
						"label": "betPairs",
						"offset": 0,
						"slot": "10",
						"type": "t_mapping(t_bytes32,t_array(t_bytes32)dyn_storage)"
					}
				],
				"types": {
					"t_address": {
						"encoding": "inplace",
						"label": "address",
						"numberOfBytes": "20"
					},
					"t_array(t_bytes32)dyn_storage": {
						"base": "t_bytes32",
						"encoding": "dynamic_array",
						"label": "bytes32[]",
						"numberOfBytes": "32"
					},
					"t_bool": {
						"encoding": "inplace",
						"label": "bool",
						"numberOfBytes": "1"
					},
					"t_bytes32": {
						"encoding": "inplace",
						"label": "bytes32",
						"numberOfBytes": "32"
					},
					"t_mapping(t_address,t_array(t_bytes32)dyn_storage)": {
						"encoding": "mapping",
						"key": "t_address",
						"label": "mapping(address => bytes32[])",
						"numberOfBytes": "32",
						"value": "t_array(t_bytes32)dyn_storage"
					},
					"t_mapping(t_address,t_uint256)": {
						"encoding": "mapping",
						"key": "t_address",
						"label": "mapping(address => uint256)",
						"numberOfBytes": "32",
						"value": "t_uint256"
					},
					"t_mapping(t_bytes32,t_array(t_bytes32)dyn_storage)": {
						"encoding": "mapping",
						"key": "t_bytes32",
						"label": "mapping(bytes32 => bytes32[])",
						"numberOfBytes": "32",
						"value": "t_array(t_bytes32)dyn_storage"
					},
					"t_mapping(t_bytes32,t_struct(MarketBet)1824_storage)": {
						"encoding": "mapping",
						"key": "t_bytes32",
						"label": "mapping(bytes32 => struct IMarket.MarketBet)",
						"numberOfBytes": "32",
						"value": "t_struct(MarketBet)1824_storage"
					},
					"t_mapping(t_bytes32,t_struct(MarketPair)152_storage)": {
						"encoding": "mapping",
						"key": "t_bytes32",
						"label": "mapping(bytes32 => struct Market.MarketPair)",
						"numberOfBytes": "32",
						"value": "t_struct(MarketPair)152_storage"
					},
					"t_struct(MarketBet)1824_storage": {
						"encoding": "inplace",
						"label": "struct IMarket.MarketBet",
						"members": [
							{
								"astId": 1813,
								"contract": "contracts/Market.sol:Market",
								"label": "better",
								"offset": 0,
								"slot": "0",
								"type": "t_address"
							},
							{
								"astId": 1815,
								"contract": "contracts/Market.sol:Market",
								"label": "affiliate",
								"offset": 0,
								"slot": "1",
								"type": "t_address"
							},
							{
								"astId": 1817,
								"contract": "contracts/Market.sol:Market",
								"label": "stake",
								"offset": 0,
								"slot": "2",
								"type": "t_uint256"
							},
							{
								"astId": 1819,
								"contract": "contracts/Market.sol:Market",
								"label": "matched",
								"offset": 0,
								"slot": "3",
								"type": "t_uint256"
							},
							{
								"astId": 1821,
								"contract": "contracts/Market.sol:Market",
								"label": "odds",
								"offset": 0,
								"slot": "4",
								"type": "t_uint256"
							},
							{
								"astId": 1823,
								"contract": "contracts/Market.sol:Market",
								"label": "side",
								"offset": 0,
								"slot": "5",
								"type": "t_uint256"
							}
						],
						"numberOfBytes": "192"
					},
					"t_struct(MarketPair)152_storage": {
						"encoding": "inplace",
						"label": "struct Market.MarketPair",
						"members": [
							{
								"astId": 143,
								"contract": "contracts/Market.sol:Market",
								"label": "betHashA",
								"offset": 0,
								"slot": "0",
								"type": "t_bytes32"
							},
							{
								"astId": 145,
								"contract": "contracts/Market.sol:Market",
								"label": "betHashB",
								"offset": 0,
								"slot": "1",
								"type": "t_bytes32"
							},
							{
								"astId": 147,
								"contract": "contracts/Market.sol:Market",
								"label": "amountA",
								"offset": 0,
								"slot": "2",
								"type": "t_uint256"
							},
							{
								"astId": 149,
								"contract": "contracts/Market.sol:Market",
								"label": "amountB",
								"offset": 0,
								"slot": "3",
								"type": "t_uint256"
							},
							{
								"astId": 151,
								"contract": "contracts/Market.sol:Market",
								"label": "settled",
								"offset": 0,
								"slot": "4",
								"type": "t_bool"
							}
						],
						"numberOfBytes": "160"
					},
					"t_uint256": {
						"encoding": "inplace",
						"label": "uint256",
						"numberOfBytes": "32"
					}
				}
			},
			"userdoc": {
				"kind": "user",
				"methods": {},
				"version": 1
			}
		}
	}
}