{
	"contracts/Market.sol": {
		"Market": {
			"abi": [
				{
					"inputs": [],
					"stateMutability": "nonpayable",
					"type": "constructor"
				},
				{
					"anonymous": false,
					"inputs": [
						{
							"indexed": false,
							"internalType": "address",
							"name": "better",
							"type": "address"
						},
						{
							"indexed": false,
							"internalType": "address",
							"name": "marketAddr",
							"type": "address"
						},
						{
							"indexed": false,
							"internalType": "bytes32",
							"name": "hash",
							"type": "bytes32"
						},
						{
							"indexed": false,
							"internalType": "uint256",
							"name": "stake",
							"type": "uint256"
						},
						{
							"indexed": false,
							"internalType": "uint256",
							"name": "odds",
							"type": "uint256"
						},
						{
							"indexed": false,
							"internalType": "uint8",
							"name": "side",
							"type": "uint8"
						}
					],
					"name": "BetCreated",
					"type": "event"
				},
				{
					"anonymous": false,
					"inputs": [
						{
							"indexed": false,
							"internalType": "bytes32",
							"name": "betHashA",
							"type": "bytes32"
						},
						{
							"indexed": false,
							"internalType": "bytes32",
							"name": "betHashB",
							"type": "bytes32"
						},
						{
							"indexed": false,
							"internalType": "uint256",
							"name": "amountA",
							"type": "uint256"
						},
						{
							"indexed": false,
							"internalType": "uint256",
							"name": "amountB",
							"type": "uint256"
						}
					],
					"name": "PairCreated",
					"type": "event"
				},
				{
					"inputs": [
						{
							"internalType": "address",
							"name": "_better",
							"type": "address"
						},
						{
							"internalType": "address",
							"name": "_affiliate",
							"type": "address"
						},
						{
							"internalType": "uint256",
							"name": "_stake",
							"type": "uint256"
						},
						{
							"internalType": "uint256",
							"name": "_odds",
							"type": "uint256"
						},
						{
							"internalType": "uint8",
							"name": "_side",
							"type": "uint8"
						},
						{
							"internalType": "bool",
							"name": "_instant",
							"type": "bool"
						}
					],
					"name": "addBet",
					"outputs": [
						{
							"internalType": "bytes32",
							"name": "",
							"type": "bytes32"
						}
					],
					"stateMutability": "nonpayable",
					"type": "function"
				},
				{
					"inputs": [],
					"name": "app",
					"outputs": [
						{
							"internalType": "contract IWeb3BetsFO",
							"name": "",
							"type": "address"
						}
					],
					"stateMutability": "view",
					"type": "function"
				},
				{
					"inputs": [],
					"name": "cancelMarket",
					"outputs": [
						{
							"internalType": "bool",
							"name": "",
							"type": "bool"
						}
					],
					"stateMutability": "nonpayable",
					"type": "function"
				},
				{
					"inputs": [
						{
							"internalType": "bytes32",
							"name": "_bet",
							"type": "bytes32"
						}
					],
					"name": "cancelPending",
					"outputs": [],
					"stateMutability": "nonpayable",
					"type": "function"
				},
				{
					"inputs": [],
					"name": "factory",
					"outputs": [
						{
							"internalType": "address",
							"name": "",
							"type": "address"
						}
					],
					"stateMutability": "view",
					"type": "function"
				},
				{
					"inputs": [
						{
							"internalType": "address",
							"name": "_user",
							"type": "address"
						}
					],
					"name": "getBalance",
					"outputs": [
						{
							"internalType": "uint256",
							"name": "",
							"type": "uint256"
						}
					],
					"stateMutability": "view",
					"type": "function"
				},
				{
					"inputs": [
						{
							"internalType": "address",
							"name": "_user",
							"type": "address"
						}
					],
					"name": "getUserBets",
					"outputs": [
						{
							"components": [
								{
									"internalType": "address",
									"name": "better",
									"type": "address"
								},
								{
									"internalType": "address",
									"name": "affiliate",
									"type": "address"
								},
								{
									"internalType": "uint256",
									"name": "stake",
									"type": "uint256"
								},
								{
									"internalType": "uint256",
									"name": "matched",
									"type": "uint256"
								},
								{
									"internalType": "uint256",
									"name": "odds",
									"type": "uint256"
								},
								{
									"internalType": "uint8",
									"name": "side",
									"type": "uint8"
								}
							],
							"internalType": "struct IMarket.MarketBet[]",
							"name": "",
							"type": "tuple[]"
						}
					],
					"stateMutability": "view",
					"type": "function"
				},
				{
					"inputs": [
						{
							"internalType": "uint8",
							"name": "_winningSide",
							"type": "uint8"
						}
					],
					"name": "setWinningSide",
					"outputs": [
						{
							"internalType": "bool",
							"name": "",
							"type": "bool"
						}
					],
					"stateMutability": "nonpayable",
					"type": "function"
				},
				{
					"inputs": [],
					"name": "settleAllPAirs",
					"outputs": [],
					"stateMutability": "nonpayable",
					"type": "function"
				},
				{
					"inputs": [
						{
							"internalType": "bytes32",
							"name": "_bet",
							"type": "bytes32"
						}
					],
					"name": "settleBet",
					"outputs": [],
					"stateMutability": "nonpayable",
					"type": "function"
				},
				{
					"inputs": [],
					"name": "status",
					"outputs": [
						{
							"internalType": "uint8",
							"name": "",
							"type": "uint8"
						}
					],
					"stateMutability": "view",
					"type": "function"
				},
				{
					"inputs": [],
					"name": "token",
					"outputs": [
						{
							"internalType": "contract IERC20",
							"name": "",
							"type": "address"
						}
					],
					"stateMutability": "view",
					"type": "function"
				},
				{
					"inputs": [
						{
							"internalType": "address",
							"name": "_addr",
							"type": "address"
						}
					],
					"name": "withdraw",
					"outputs": [
						{
							"internalType": "bool",
							"name": "",
							"type": "bool"
						}
					],
					"stateMutability": "nonpayable",
					"type": "function"
				}
			],
			"devdoc": {
				"kind": "dev",
				"methods": {},
				"version": 1
			},
			"evm": {
				"assembly": "    /* \"contracts/Market.sol\":194:10900  contract Market is IMarket, ReentrancyGuard {... */\n  mstore(0x40, 0xc0)\n    /* \"contracts/Market.sol\":631:663  uint8 public override status = 0 */\n  0x05\n  dup1\n  sload\n  not(0xff)\n  and\n  swap1\n  sstore\n  0x01\n    /* \"contracts/Market.sol\":1160:1167  factory */\n  sload\n  sub(shl(0xa0, 0x01), 0x01)\n  and\n    /* \"contracts/Market.sol\":1113:1168  IWeb3BetsFO immutable public app = IWeb3BetsFO(factory) */\n  0xa0\n  mstore\n    /* \"contracts/Market.sol\":1607:1713  constructor() {... */\n  callvalue\n  dup1\n  iszero\n  tag_1\n  jumpi\n  0x00\n  dup1\n  revert\ntag_1:\n  pop\n    /* \"@openzeppelin/contracts/security/ReentrancyGuard.sol\":1701:1702  1 */\n  0x01\n    /* \"@openzeppelin/contracts/security/ReentrancyGuard.sol\":1806:1813  _status */\n  0x00\n    /* \"@openzeppelin/contracts/security/ReentrancyGuard.sol\":1806:1828  _status = _NOT_ENTERED */\n  dup2\n  swap1\n  sstore\n    /* \"contracts/Market.sol\":1631:1651  factory = msg.sender */\n  dup1\n  sload\n  not(sub(shl(0xa0, 0x01), 0x01))\n  and\n    /* \"contracts/Market.sol\":1641:1651  msg.sender */\n  caller\n    /* \"contracts/Market.sol\":1631:1651  factory = msg.sender */\n  swap1\n  dup2\n  or\n  swap1\n  swap2\n  sstore\n    /* \"contracts/Market.sol\":1676:1705  IWeb3BetsFO(factory).scAddr() */\n  0x40\n  dup1\n  mload\n  shl(0xe3, 0x966ed9)\n  dup2\n  mstore\n  swap1\n  mload\n    /* \"contracts/Market.sol\":1676:1703  IWeb3BetsFO(factory).scAddr */\n  0x04b376c8\n  swap2\n    /* \"contracts/Market.sol\":1676:1705  IWeb3BetsFO(factory).scAddr() */\n  0x04\n  dup1\n  dup3\n  add\n  swap3\n  0x20\n  swap3\n  swap1\n  swap2\n  swap1\n  dup3\n  swap1\n  sub\n  add\n  dup2\n    /* \"contracts/Market.sol\":1641:1651  msg.sender */\n  dup7\n    /* \"contracts/Market.sol\":1676:1705  IWeb3BetsFO(factory).scAddr() */\n  gas\n  staticcall\n  iszero\n  dup1\n  iszero\n  tag_7\n  jumpi\n  returndatasize\n  0x00\n  dup1\n  returndatacopy\n  revert(0x00, returndatasize)\ntag_7:\n  pop\n  pop\n  pop\n  pop\n  mload(0x40)\n  returndatasize\n  not(0x1f)\n  0x1f\n  dup3\n  add\n  and\n  dup3\n  add\n  dup1\n  0x40\n  mstore\n  pop\n  dup2\n  add\n  swap1\n  tag_8\n  swap2\n  swap1\n  tag_9\n  jump\t// in\ntag_8:\n  sub(shl(0xa0, 0x01), 0x01)\n    /* \"contracts/Market.sol\":1661:1706  token = IERC20(IWeb3BetsFO(factory).scAddr()) */\n  and\n  0x80\n  mstore\n    /* \"contracts/Market.sol\":194:10900  contract Market is IMarket, ReentrancyGuard {... */\n  jump(tag_11)\n    /* \"#utility.yul\":14:304   */\ntag_9:\n    /* \"#utility.yul\":84:90   */\n  0x00\n    /* \"#utility.yul\":137:139   */\n  0x20\n    /* \"#utility.yul\":125:134   */\n  dup3\n    /* \"#utility.yul\":116:123   */\n  dup5\n    /* \"#utility.yul\":112:135   */\n  sub\n    /* \"#utility.yul\":108:140   */\n  slt\n    /* \"#utility.yul\":105:157   */\n  iszero\n  tag_13\n  jumpi\n    /* \"#utility.yul\":153:154   */\n  0x00\n    /* \"#utility.yul\":150:151   */\n  dup1\n    /* \"#utility.yul\":143:155   */\n  revert\n    /* \"#utility.yul\":105:157   */\ntag_13:\n    /* \"#utility.yul\":179:195   */\n  dup2\n  mload\n  sub(shl(0xa0, 0x01), 0x01)\n    /* \"#utility.yul\":224:255   */\n  dup2\n  and\n    /* \"#utility.yul\":214:256   */\n  dup2\n  eq\n    /* \"#utility.yul\":204:274   */\n  tag_14\n  jumpi\n    /* \"#utility.yul\":270:271   */\n  0x00\n    /* \"#utility.yul\":267:268   */\n  dup1\n    /* \"#utility.yul\":260:272   */\n  revert\n    /* \"#utility.yul\":204:274   */\ntag_14:\n    /* \"#utility.yul\":293:298   */\n  swap4\n    /* \"#utility.yul\":14:304   */\n  swap3\n  pop\n  pop\n  pop\n  jump\t// out\ntag_11:\n    /* \"contracts/Market.sol\":194:10900  contract Market is IMarket, ReentrancyGuard {... */\n  mload(0x80)\n  mload(0xa0)\n  codecopy(0x00, dataOffset(sub_0), dataSize(sub_0))\n  0x00\n  assignImmutable(\"0xb7700257a9e4b89511ea592d7ef488a6959d733cec4df010484e5af3e427a407\")\n  0x00\n  assignImmutable(\"0x26fde711c36747908dcce028baf2d3e8303b2122f2368e04f010a3f01eaa4df4\")\n  return(0x00, dataSize(sub_0))\nstop\n\nsub_0: assembly {\n        /* \"contracts/Market.sol\":194:10900  contract Market is IMarket, ReentrancyGuard {... */\n      mstore(0x40, 0x80)\n      callvalue\n      dup1\n      iszero\n      tag_1\n      jumpi\n      0x00\n      dup1\n      revert\n    tag_1:\n      pop\n      jumpi(tag_2, lt(calldatasize, 0x04))\n      shr(0xe0, calldataload(0x00))\n      dup1\n      0x893372ca\n      gt\n      tag_16\n      jumpi\n      dup1\n      0xc45a0155\n      gt\n      tag_17\n      jumpi\n      dup1\n      0xc45a0155\n      eq\n      tag_12\n      jumpi\n      dup1\n      0xc7b448bd\n      eq\n      tag_13\n      jumpi\n      dup1\n      0xf8b2cb4f\n      eq\n      tag_14\n      jumpi\n      dup1\n      0xfc0c546a\n      eq\n      tag_15\n      jumpi\n      0x00\n      dup1\n      revert\n    tag_17:\n      dup1\n      0x893372ca\n      eq\n      tag_9\n      jumpi\n      dup1\n      0x8f2c4885\n      eq\n      tag_10\n      jumpi\n      dup1\n      0xb76564bd\n      eq\n      tag_11\n      jumpi\n      0x00\n      dup1\n      revert\n    tag_16:\n      dup1\n      0x0d68ecb0\n      eq\n      tag_3\n      jumpi\n      dup1\n      0x200d2ed2\n      eq\n      tag_4\n      jumpi\n      dup1\n      0x2d56657d\n      eq\n      tag_5\n      jumpi\n      dup1\n      0x51cff8d9\n      eq\n      tag_6\n      jumpi\n      dup1\n      0x675f6537\n      eq\n      tag_7\n      jumpi\n      dup1\n      0x6bfefd6b\n      eq\n      tag_8\n      jumpi\n    tag_2:\n      0x00\n      dup1\n      revert\n        /* \"contracts/Market.sol\":3036:3171  function settleAllPAirs() external {... */\n    tag_3:\n      tag_18\n      tag_19\n      jump\t// in\n    tag_18:\n      stop\n        /* \"contracts/Market.sol\":631:663  uint8 public override status = 0 */\n    tag_4:\n      sload(0x05)\n      tag_20\n      swap1\n      0xff\n      and\n      dup2\n      jump\n    tag_20:\n      mload(0x40)\n        /* \"#utility.yul\":186:190   */\n      0xff\n        /* \"#utility.yul\":174:191   */\n      swap1\n      swap2\n      and\n        /* \"#utility.yul\":156:192   */\n      dup2\n      mstore\n        /* \"#utility.yul\":144:146   */\n      0x20\n        /* \"#utility.yul\":129:147   */\n      add\n        /* \"contracts/Market.sol\":631:663  uint8 public override status = 0 */\n    tag_22:\n      mload(0x40)\n      dup1\n      swap2\n      sub\n      swap1\n      return\n        /* \"contracts/Market.sol\":1834:2146  function getUserBets(address _user) external view override returns(MarketBet[] memory) {... */\n    tag_5:\n      tag_24\n      tag_25\n      calldatasize\n      0x04\n      tag_26\n      jump\t// in\n    tag_25:\n      tag_27\n      jump\t// in\n    tag_24:\n      mload(0x40)\n      tag_22\n      swap2\n      swap1\n      tag_29\n      jump\t// in\n        /* \"contracts/Market.sol\":2152:2516  function withdraw(address _addr) external nonReentrant returns(bool) {... */\n    tag_6:\n      tag_30\n      tag_31\n      calldatasize\n      0x04\n      tag_26\n      jump\t// in\n    tag_31:\n      tag_32\n      jump\t// in\n    tag_30:\n      mload(0x40)\n        /* \"#utility.yul\":1919:1933   */\n      swap1\n      iszero\n        /* \"#utility.yul\":1912:1934   */\n      iszero\n        /* \"#utility.yul\":1894:1935   */\n      dup2\n      mstore\n        /* \"#utility.yul\":1882:1884   */\n      0x20\n        /* \"#utility.yul\":1867:1885   */\n      add\n        /* \"contracts/Market.sol\":2152:2516  function withdraw(address _addr) external nonReentrant returns(bool) {... */\n      tag_22\n        /* \"#utility.yul\":1754:1941   */\n      jump\n        /* \"contracts/Market.sol\":3177:3338  function settleBet(bytes32 _bet) external override {... */\n    tag_7:\n      tag_18\n      tag_36\n      calldatasize\n      0x04\n      tag_37\n      jump\t// in\n    tag_36:\n      tag_38\n      jump\t// in\n        /* \"contracts/Market.sol\":3601:3846  function cancelMarket() external override onlyFactory returns(bool) ... */\n    tag_8:\n      tag_30\n      tag_40\n      jump\t// in\n        /* \"contracts/Market.sol\":2524:3030  function cancelPending(bytes32 _bet) external override nonReentrant {... */\n    tag_9:\n      tag_18\n      tag_43\n      calldatasize\n      0x04\n      tag_37\n      jump\t// in\n    tag_43:\n      tag_44\n      jump\t// in\n        /* \"contracts/Market.sol\":3344:3595  function setWinningSide(uint8 _winningSide)... */\n    tag_10:\n      tag_30\n      tag_46\n      calldatasize\n      0x04\n      tag_47\n      jump\t// in\n    tag_46:\n      tag_48\n      jump\t// in\n        /* \"contracts/Market.sol\":1113:1168  IWeb3BetsFO immutable public app = IWeb3BetsFO(factory) */\n    tag_11:\n      tag_50\n      immutable(\"0xb7700257a9e4b89511ea592d7ef488a6959d733cec4df010484e5af3e427a407\")\n      dup2\n      jump\n    tag_50:\n      mload(0x40)\n      sub(shl(0xa0, 0x01), 0x01)\n        /* \"#utility.yul\":2663:2695   */\n      swap1\n      swap2\n      and\n        /* \"#utility.yul\":2645:2696   */\n      dup2\n      mstore\n        /* \"#utility.yul\":2633:2635   */\n      0x20\n        /* \"#utility.yul\":2618:2636   */\n      add\n        /* \"contracts/Market.sol\":1113:1168  IWeb3BetsFO immutable public app = IWeb3BetsFO(factory) */\n      tag_22\n        /* \"#utility.yul\":2479:2702   */\n      jump\n        /* \"contracts/Market.sol\":244:275  address public override factory */\n    tag_12:\n      sload(0x01)\n      tag_50\n      swap1\n      sub(shl(0xa0, 0x01), 0x01)\n      and\n      dup2\n      jump\n        /* \"contracts/Market.sol\":3852:7680  function addBet(... */\n    tag_13:\n      tag_58\n      tag_59\n      calldatasize\n      0x04\n      tag_60\n      jump\t// in\n    tag_59:\n      tag_61\n      jump\t// in\n    tag_58:\n      mload(0x40)\n        /* \"#utility.yul\":3921:3946   */\n      swap1\n      dup2\n      mstore\n        /* \"#utility.yul\":3909:3911   */\n      0x20\n        /* \"#utility.yul\":3894:3912   */\n      add\n        /* \"contracts/Market.sol\":3852:7680  function addBet(... */\n      tag_22\n        /* \"#utility.yul\":3775:3952   */\n      jump\n        /* \"contracts/Market.sol\":1719:1828  function getBalance(address _user) external view override returns(uint256) {... */\n    tag_14:\n      tag_58\n      tag_65\n      calldatasize\n      0x04\n      tag_26\n      jump\t// in\n    tag_65:\n      sub(shl(0xa0, 0x01), 0x01)\n        /* \"contracts/Market.sol\":1811:1821  bal[_user] */\n      and\n        /* \"contracts/Market.sol\":1785:1792  uint256 */\n      0x00\n        /* \"contracts/Market.sol\":1811:1821  bal[_user] */\n      swap1\n      dup2\n      mstore\n        /* \"contracts/Market.sol\":1811:1814  bal */\n      0x06\n        /* \"contracts/Market.sol\":1811:1821  bal[_user] */\n      0x20\n      mstore\n      0x40\n      swap1\n      keccak256\n      sload\n      swap1\n        /* \"contracts/Market.sol\":1719:1828  function getBalance(address _user) external view override returns(uint256) {... */\n      jump\n        /* \"contracts/Market.sol\":1078:1107  IERC20 immutable public token */\n    tag_15:\n      tag_50\n      immutable(\"0x26fde711c36747908dcce028baf2d3e8303b2122f2368e04f010a3f01eaa4df4\")\n      dup2\n      jump\n        /* \"contracts/Market.sol\":3036:3171  function settleAllPAirs() external {... */\n    tag_19:\n        /* \"contracts/Market.sol\":3085:3091  uint i */\n      0x00\n        /* \"contracts/Market.sol\":3081:3165  for(uint i = 0; i < pairs.length; i++){... */\n    tag_74:\n        /* \"contracts/Market.sol\":3101:3106  pairs */\n      0x02\n        /* \"contracts/Market.sol\":3101:3113  pairs.length */\n      sload\n        /* \"contracts/Market.sol\":3097:3113  i < pairs.length */\n      dup2\n      lt\n        /* \"contracts/Market.sol\":3081:3165  for(uint i = 0; i < pairs.length; i++){... */\n      iszero\n      tag_75\n      jumpi\n        /* \"contracts/Market.sol\":3133:3154  _settlePair(pairs[i]) */\n      tag_77\n        /* \"contracts/Market.sol\":3145:3150  pairs */\n      0x02\n        /* \"contracts/Market.sol\":3151:3152  i */\n      dup3\n        /* \"contracts/Market.sol\":3145:3153  pairs[i] */\n      dup2\n      sload\n      dup2\n      lt\n      tag_79\n      jumpi\n      tag_79\n      tag_80\n      jump\t// in\n    tag_79:\n      swap1\n      0x00\n      mstore\n      keccak256(0x00, 0x20)\n      add\n      sload\n        /* \"contracts/Market.sol\":3133:3144  _settlePair */\n      tag_82\n        /* \"contracts/Market.sol\":3133:3154  _settlePair(pairs[i]) */\n      jump\t// in\n    tag_77:\n        /* \"contracts/Market.sol\":3115:3118  i++ */\n      dup1\n      tag_83\n      dup2\n      tag_84\n      jump\t// in\n    tag_83:\n      swap2\n      pop\n      pop\n        /* \"contracts/Market.sol\":3081:3165  for(uint i = 0; i < pairs.length; i++){... */\n      jump(tag_74)\n    tag_75:\n      pop\n        /* \"contracts/Market.sol\":3036:3171  function settleAllPAirs() external {... */\n      jump\t// out\n        /* \"contracts/Market.sol\":1834:2146  function getUserBets(address _user) external view override returns(MarketBet[] memory) {... */\n    tag_27:\n      sub(shl(0xa0, 0x01), 0x01)\n        /* \"contracts/Market.sol\":1994:2009  userBets[_user] */\n      dup2\n      and\n        /* \"contracts/Market.sol\":1969:1991  bytes32[] memory _bets */\n      0x00\n        /* \"contracts/Market.sol\":1994:2009  userBets[_user] */\n      swap1\n      dup2\n      mstore\n        /* \"contracts/Market.sol\":1994:2002  userBets */\n      0x08\n        /* \"contracts/Market.sol\":1994:2009  userBets[_user] */\n      0x20\n      swap1\n      dup2\n      mstore\n      0x40\n      dup1\n      dup4\n      keccak256\n        /* \"contracts/Market.sol\":1969:2009  bytes32[] memory _bets = userBets[_user] */\n      dup1\n      sload\n      dup3\n      mload\n      dup2\n      dup6\n      mul\n      dup2\n      add\n      dup6\n      add\n      swap1\n      swap4\n      mstore\n      dup1\n      dup4\n      mstore\n        /* \"contracts/Market.sol\":1901:1919  MarketBet[] memory */\n      0x60\n      swap5\n      dup6\n      swap5\n        /* \"contracts/Market.sol\":1969:1991  bytes32[] memory _bets */\n      swap1\n      swap4\n        /* \"contracts/Market.sol\":1969:2009  bytes32[] memory _bets = userBets[_user] */\n      swap3\n        /* \"contracts/Market.sol\":1994:2009  userBets[_user] */\n      swap2\n        /* \"contracts/Market.sol\":1969:2009  bytes32[] memory _bets = userBets[_user] */\n      swap1\n      dup4\n      add\n        /* \"contracts/Market.sol\":1994:2009  userBets[_user] */\n      dup3\n        /* \"contracts/Market.sol\":1969:2009  bytes32[] memory _bets = userBets[_user] */\n      dup3\n      dup1\n      iszero\n      tag_86\n      jumpi\n      0x20\n      mul\n      dup3\n      add\n      swap2\n      swap1\n      0x00\n      mstore\n      keccak256(0x00, 0x20)\n      swap1\n    tag_87:\n      dup2\n      sload\n      dup2\n      mstore\n      0x20\n      add\n      swap1\n      0x01\n      add\n      swap1\n      dup1\n      dup4\n      gt\n      tag_87\n      jumpi\n    tag_86:\n      pop\n      pop\n      pop\n      pop\n      pop\n      swap1\n      pop\n        /* \"contracts/Market.sol\":2023:2029  uint i */\n      0x00\n        /* \"contracts/Market.sol\":2019:2114  for(uint i = 0; i < bets.length; i++){... */\n    tag_88:\n        /* \"contracts/Market.sol\":2039:2043  bets */\n      0x03\n        /* \"contracts/Market.sol\":2039:2050  bets.length */\n      sload\n        /* \"contracts/Market.sol\":2035:2050  i < bets.length */\n      dup2\n      lt\n        /* \"contracts/Market.sol\":2019:2114  for(uint i = 0; i < bets.length; i++){... */\n      iszero\n      tag_89\n      jumpi\n        /* \"contracts/Market.sol\":2085:2093  betsInfo */\n      0x07\n        /* \"contracts/Market.sol\":2085:2103  betsInfo[_bets[i]] */\n      0x00\n        /* \"contracts/Market.sol\":2094:2099  _bets */\n      dup4\n        /* \"contracts/Market.sol\":2100:2101  i */\n      dup4\n        /* \"contracts/Market.sol\":2094:2102  _bets[i] */\n      dup2\n      mload\n      dup2\n      lt\n      tag_92\n      jumpi\n      tag_92\n      tag_80\n      jump\t// in\n    tag_92:\n      0x20\n      swap1\n      dup2\n      mul\n      swap2\n      swap1\n      swap2\n      add\n      dup2\n      add\n      mload\n        /* \"contracts/Market.sol\":2085:2103  betsInfo[_bets[i]] */\n      dup3\n      mstore\n      dup2\n      dup2\n      add\n      swap3\n      swap1\n      swap3\n      mstore\n      0x40\n      swap1\n      dup2\n      add\n      0x00\n      keccak256\n        /* \"contracts/Market.sol\":2070:2103  _userBets[i] = betsInfo[_bets[i]] */\n      dup2\n      mload\n      0xc0\n      dup2\n      add\n      dup4\n      mstore\n      dup2\n      sload\n      sub(shl(0xa0, 0x01), 0x01)\n      swap1\n      dup2\n      and\n      dup3\n      mstore\n      0x01\n      dup4\n      add\n      sload\n      and\n      swap4\n      dup2\n      add\n      swap4\n      swap1\n      swap4\n      mstore\n      0x02\n      dup2\n      add\n      sload\n      swap2\n      dup4\n      add\n      swap2\n      swap1\n      swap2\n      mstore\n      0x03\n      dup2\n      add\n      sload\n      0x60\n      dup4\n      add\n      mstore\n      0x04\n      dup2\n      add\n      sload\n      0x80\n      dup4\n      add\n      mstore\n      0x05\n      add\n      sload\n      0xff\n      and\n      0xa0\n      dup3\n      add\n      mstore\n        /* \"contracts/Market.sol\":2070:2082  _userBets[i] */\n      dup4\n      mload\n        /* \"contracts/Market.sol\":2070:2079  _userBets */\n      dup5\n      swap1\n        /* \"contracts/Market.sol\":2080:2081  i */\n      dup4\n      swap1\n        /* \"contracts/Market.sol\":2070:2082  _userBets[i] */\n      dup2\n      lt\n      tag_94\n      jumpi\n      tag_94\n      tag_80\n      jump\t// in\n    tag_94:\n      0x20\n      mul\n      0x20\n      add\n      add\n        /* \"contracts/Market.sol\":2070:2103  _userBets[i] = betsInfo[_bets[i]] */\n      dup2\n      swap1\n      mstore\n      pop\n        /* \"contracts/Market.sol\":2052:2055  i++ */\n      dup1\n      dup1\n      tag_95\n      swap1\n      tag_84\n      jump\t// in\n    tag_95:\n      swap2\n      pop\n      pop\n        /* \"contracts/Market.sol\":2019:2114  for(uint i = 0; i < bets.length; i++){... */\n      jump(tag_88)\n    tag_89:\n      pop\n        /* \"contracts/Market.sol\":2130:2139  _userBets */\n      swap1\n      swap4\n        /* \"contracts/Market.sol\":1834:2146  function getUserBets(address _user) external view override returns(MarketBet[] memory) {... */\n      swap3\n      pop\n      pop\n      pop\n      jump\t// out\n        /* \"contracts/Market.sol\":2152:2516  function withdraw(address _addr) external nonReentrant returns(bool) {... */\n    tag_32:\n        /* \"contracts/Market.sol\":2215:2219  bool */\n      0x00\n        /* \"@openzeppelin/contracts/security/ReentrancyGuard.sol\":1744:1745  2 */\n      0x02\n        /* \"@openzeppelin/contracts/security/ReentrancyGuard.sol\":2325:2332  _status */\n      sload(0x00)\n        /* \"@openzeppelin/contracts/security/ReentrancyGuard.sol\":2325:2344  _status != _ENTERED */\n      sub\n        /* \"@openzeppelin/contracts/security/ReentrancyGuard.sol\":2317:2380  require(_status != _ENTERED, \"ReentrancyGuard: reentrant call\") */\n      tag_97\n      jumpi\n      mload(0x40)\n      shl(0xe5, 0x461bcd)\n      dup2\n      mstore\n      0x04\n      add\n      tag_98\n      swap1\n      tag_99\n      jump\t// in\n    tag_98:\n      mload(0x40)\n      dup1\n      swap2\n      sub\n      swap1\n      revert\n    tag_97:\n        /* \"@openzeppelin/contracts/security/ReentrancyGuard.sol\":1744:1745  2 */\n      0x02\n        /* \"@openzeppelin/contracts/security/ReentrancyGuard.sol\":2455:2462  _status */\n      0x00\n        /* \"@openzeppelin/contracts/security/ReentrancyGuard.sol\":2455:2473  _status = _ENTERED */\n      swap1\n      dup2\n      sstore\n      sub(shl(0xa0, 0x01), 0x01)\n        /* \"contracts/Market.sol\":2253:2263  bal[_addr] */\n      dup4\n      dup2\n      and\n      dup3\n      mstore\n        /* \"contracts/Market.sol\":2253:2256  bal */\n      0x06\n        /* \"contracts/Market.sol\":2253:2263  bal[_addr] */\n      0x20\n      mstore\n      0x40\n      swap2\n      dup3\n      swap1\n      keccak256\n      sload\n        /* \"contracts/Market.sol\":2281:2311  token.balanceOf(address(this)) */\n      swap2\n      mload\n      shl(0xe0, 0x70a08231)\n      dup2\n      mstore\n        /* \"contracts/Market.sol\":2305:2309  this */\n      address\n        /* \"contracts/Market.sol\":2281:2311  token.balanceOf(address(this)) */\n      0x04\n      dup3\n      add\n        /* \"#utility.yul\":2645:2696   */\n      mstore\n        /* \"contracts/Market.sol\":2253:2263  bal[_addr] */\n      dup3\n      swap2\n        /* \"contracts/Market.sol\":2281:2286  token */\n      immutable(\"0x26fde711c36747908dcce028baf2d3e8303b2122f2368e04f010a3f01eaa4df4\")\n        /* \"contracts/Market.sol\":2281:2296  token.balanceOf */\n      and\n      swap1\n      0x70a08231\n      swap1\n        /* \"#utility.yul\":2618:2636   */\n      0x24\n      add\n        /* \"contracts/Market.sol\":2281:2311  token.balanceOf(address(this)) */\n      0x20\n      mload(0x40)\n      dup1\n      dup4\n      sub\n      dup2\n      dup7\n      gas\n      staticcall\n      iszero\n      dup1\n      iszero\n      tag_103\n      jumpi\n      returndatasize\n      0x00\n      dup1\n      returndatacopy\n      revert(0x00, returndatasize)\n    tag_103:\n      pop\n      pop\n      pop\n      pop\n      mload(0x40)\n      returndatasize\n      not(0x1f)\n      0x1f\n      dup3\n      add\n      and\n      dup3\n      add\n      dup1\n      0x40\n      mstore\n      pop\n      dup2\n      add\n      swap1\n      tag_104\n      swap2\n      swap1\n      tag_105\n      jump\t// in\n    tag_104:\n        /* \"contracts/Market.sol\":2281:2325  token.balanceOf(address(this)) > availAmount */\n      gt\n        /* \"contracts/Market.sol\":2281:2344  token.balanceOf(address(this)) > availAmount && availAmount > 0 */\n      dup1\n      iszero\n      tag_106\n      jumpi\n      pop\n        /* \"contracts/Market.sol\":2343:2344  0 */\n      0x00\n        /* \"contracts/Market.sol\":2329:2340  availAmount */\n      dup2\n        /* \"contracts/Market.sol\":2329:2344  availAmount > 0 */\n      gt\n        /* \"contracts/Market.sol\":2281:2344  token.balanceOf(address(this)) > availAmount && availAmount > 0 */\n    tag_106:\n        /* \"contracts/Market.sol\":2273:2355  require(token.balanceOf(address(this)) > availAmount && availAmount > 0, \"< fund\") */\n      tag_107\n      jumpi\n      mload(0x40)\n      shl(0xe5, 0x461bcd)\n      dup2\n      mstore\n        /* \"#utility.yul\":5516:5518   */\n      0x20\n        /* \"contracts/Market.sol\":2273:2355  require(token.balanceOf(address(this)) > availAmount && availAmount > 0, \"< fund\") */\n      0x04\n      dup3\n      add\n        /* \"#utility.yul\":5498:5519   */\n      mstore\n        /* \"#utility.yul\":5555:5556   */\n      0x06\n        /* \"#utility.yul\":5535:5553   */\n      0x24\n      dup3\n      add\n        /* \"#utility.yul\":5528:5557   */\n      mstore\n      shl(0xd2, 0x0f08199d5b99)\n        /* \"#utility.yul\":5573:5591   */\n      0x44\n      dup3\n      add\n        /* \"#utility.yul\":5566:5602   */\n      mstore\n        /* \"#utility.yul\":5619:5637   */\n      0x64\n      add\n        /* \"contracts/Market.sol\":2273:2355  require(token.balanceOf(address(this)) > availAmount && availAmount > 0, \"< fund\") */\n      tag_98\n        /* \"#utility.yul\":5314:5643   */\n      jump\n        /* \"contracts/Market.sol\":2273:2355  require(token.balanceOf(address(this)) > availAmount && availAmount > 0, \"< fund\") */\n    tag_107:\n        /* \"contracts/Market.sol\":2380:2414  token.transfer(_addr, availAmount) */\n      mload(0x40)\n      shl(0xe0, 0xa9059cbb)\n      dup2\n      mstore\n      sub(shl(0xa0, 0x01), 0x01)\n        /* \"#utility.yul\":5840:5872   */\n      dup5\n      dup2\n      and\n        /* \"contracts/Market.sol\":2380:2414  token.transfer(_addr, availAmount) */\n      0x04\n      dup4\n      add\n        /* \"#utility.yul\":5822:5873   */\n      mstore\n        /* \"#utility.yul\":5889:5907   */\n      0x24\n      dup3\n      add\n        /* \"#utility.yul\":5882:5916   */\n      dup4\n      swap1\n      mstore\n        /* \"contracts/Market.sol\":2365:2377  bool success */\n      0x00\n      swap2\n        /* \"contracts/Market.sol\":2380:2385  token */\n      immutable(\"0x26fde711c36747908dcce028baf2d3e8303b2122f2368e04f010a3f01eaa4df4\")\n        /* \"contracts/Market.sol\":2380:2394  token.transfer */\n      swap1\n      swap2\n      and\n      swap1\n      0xa9059cbb\n      swap1\n        /* \"#utility.yul\":5795:5813   */\n      0x44\n      add\n        /* \"contracts/Market.sol\":2380:2414  token.transfer(_addr, availAmount) */\n      0x20\n      mload(0x40)\n      dup1\n      dup4\n      sub\n      dup2\n      0x00\n      dup8\n      gas\n      call\n      iszero\n      dup1\n      iszero\n      tag_113\n      jumpi\n      returndatasize\n      0x00\n      dup1\n      returndatacopy\n      revert(0x00, returndatasize)\n    tag_113:\n      pop\n      pop\n      pop\n      pop\n      mload(0x40)\n      returndatasize\n      not(0x1f)\n      0x1f\n      dup3\n      add\n      and\n      dup3\n      add\n      dup1\n      0x40\n      mstore\n      pop\n      dup2\n      add\n      swap1\n      tag_114\n      swap2\n      swap1\n      tag_115\n      jump\t// in\n    tag_114:\n        /* \"contracts/Market.sol\":2365:2414  bool success = token.transfer(_addr, availAmount) */\n      swap1\n      pop\n        /* \"contracts/Market.sol\":2432:2439  success */\n      dup1\n        /* \"contracts/Market.sol\":2424:2453  require(success, \"Tx Failed\") */\n      tag_116\n      jumpi\n      mload(0x40)\n      shl(0xe5, 0x461bcd)\n      dup2\n      mstore\n        /* \"#utility.yul\":6379:6381   */\n      0x20\n        /* \"contracts/Market.sol\":2424:2453  require(success, \"Tx Failed\") */\n      0x04\n      dup3\n      add\n        /* \"#utility.yul\":6361:6382   */\n      mstore\n        /* \"#utility.yul\":6418:6419   */\n      0x09\n        /* \"#utility.yul\":6398:6416   */\n      0x24\n      dup3\n      add\n        /* \"#utility.yul\":6391:6420   */\n      mstore\n      shl(0xba, 0x151e0811985a5b1959)\n        /* \"#utility.yul\":6436:6454   */\n      0x44\n      dup3\n      add\n        /* \"#utility.yul\":6429:6468   */\n      mstore\n        /* \"#utility.yul\":6485:6503   */\n      0x64\n      add\n        /* \"contracts/Market.sol\":2424:2453  require(success, \"Tx Failed\") */\n      tag_98\n        /* \"#utility.yul\":6177:6509   */\n      jump\n        /* \"contracts/Market.sol\":2424:2453  require(success, \"Tx Failed\") */\n    tag_116:\n      sub(shl(0xa0, 0x01), 0x01)\n        /* \"contracts/Market.sol\":2463:2473  bal[_addr] */\n      dup5\n      and\n      0x00\n      swap1\n      dup2\n      mstore\n        /* \"contracts/Market.sol\":2463:2466  bal */\n      0x06\n        /* \"contracts/Market.sol\":2463:2473  bal[_addr] */\n      0x20\n      mstore\n      0x40\n      dup2\n      keccak256\n        /* \"contracts/Market.sol\":2463:2488  bal[_addr] -= availAmount */\n      dup1\n      sload\n        /* \"contracts/Market.sol\":2477:2488  availAmount */\n      dup5\n      swap3\n        /* \"contracts/Market.sol\":2463:2473  bal[_addr] */\n      swap1\n        /* \"contracts/Market.sol\":2463:2488  bal[_addr] -= availAmount */\n      tag_119\n      swap1\n        /* \"contracts/Market.sol\":2477:2488  availAmount */\n      dup5\n      swap1\n        /* \"contracts/Market.sol\":2463:2488  bal[_addr] -= availAmount */\n      tag_120\n      jump\t// in\n    tag_119:\n      swap1\n      swap2\n      sstore\n      pop\n        /* \"contracts/Market.sol\":2505:2509  true */\n      0x01\n      swap4\n      pop\n      pop\n      pop\n      pop\n        /* \"@openzeppelin/contracts/security/ReentrancyGuard.sol\":1701:1702  1 */\n      0x01\n        /* \"@openzeppelin/contracts/security/ReentrancyGuard.sol\":2628:2635  _status */\n      0x00\n        /* \"@openzeppelin/contracts/security/ReentrancyGuard.sol\":2628:2650  _status = _NOT_ENTERED */\n      sstore\n        /* \"contracts/Market.sol\":2152:2516  function withdraw(address _addr) external nonReentrant returns(bool) {... */\n      swap2\n      swap1\n      pop\n      jump\t// out\n        /* \"contracts/Market.sol\":3177:3338  function settleBet(bytes32 _bet) external override {... */\n    tag_38:\n        /* \"contracts/Market.sol\":3243:3249  uint i */\n      0x00\n        /* \"contracts/Market.sol\":3239:3332  for(uint i = 0; i < betPairs[_bet].length; i++){... */\n    tag_122:\n        /* \"contracts/Market.sol\":3259:3273  betPairs[_bet] */\n      0x00\n      dup3\n      dup2\n      mstore\n        /* \"contracts/Market.sol\":3259:3267  betPairs */\n      0x0a\n        /* \"contracts/Market.sol\":3259:3273  betPairs[_bet] */\n      0x20\n      mstore\n      0x40\n      swap1\n      keccak256\n        /* \"contracts/Market.sol\":3259:3280  betPairs[_bet].length */\n      sload\n        /* \"contracts/Market.sol\":3255:3280  i < betPairs[_bet].length */\n      dup2\n      lt\n        /* \"contracts/Market.sol\":3239:3332  for(uint i = 0; i < betPairs[_bet].length; i++){... */\n      iszero\n      tag_123\n      jumpi\n        /* \"contracts/Market.sol\":3300:3321  _settlePair(pairs[i]) */\n      tag_125\n        /* \"contracts/Market.sol\":3312:3317  pairs */\n      0x02\n        /* \"contracts/Market.sol\":3318:3319  i */\n      dup3\n        /* \"contracts/Market.sol\":3312:3320  pairs[i] */\n      dup2\n      sload\n      dup2\n      lt\n      tag_79\n      jumpi\n      tag_79\n      tag_80\n      jump\t// in\n        /* \"contracts/Market.sol\":3300:3321  _settlePair(pairs[i]) */\n    tag_125:\n        /* \"contracts/Market.sol\":3282:3285  i++ */\n      dup1\n      tag_129\n      dup2\n      tag_84\n      jump\t// in\n    tag_129:\n      swap2\n      pop\n      pop\n        /* \"contracts/Market.sol\":3239:3332  for(uint i = 0; i < betPairs[_bet].length; i++){... */\n      jump(tag_122)\n    tag_123:\n      pop\n        /* \"contracts/Market.sol\":3177:3338  function settleBet(bytes32 _bet) external override {... */\n      pop\n      jump\t// out\n        /* \"contracts/Market.sol\":3601:3846  function cancelMarket() external override onlyFactory returns(bool) ... */\n    tag_40:\n        /* \"contracts/Market.sol\":1243:1250  factory */\n      sload(0x01)\n        /* \"contracts/Market.sol\":3663:3667  bool */\n      0x00\n      swap1\n      sub(shl(0xa0, 0x01), 0x01)\n        /* \"contracts/Market.sol\":1243:1250  factory */\n      and\n        /* \"contracts/Market.sol\":1229:1239  msg.sender */\n      caller\n        /* \"contracts/Market.sol\":1229:1250  msg.sender == factory */\n      eq\n        /* \"contracts/Market.sol\":1208:1283  require(... */\n      tag_131\n      jumpi\n      mload(0x40)\n      shl(0xe5, 0x461bcd)\n      dup2\n      mstore\n        /* \"#utility.yul\":6849:6851   */\n      0x20\n        /* \"contracts/Market.sol\":1208:1283  require(... */\n      0x04\n      dup3\n      add\n        /* \"#utility.yul\":6831:6852   */\n      mstore\n        /* \"#utility.yul\":6888:6889   */\n      0x07\n        /* \"#utility.yul\":6868:6886   */\n      0x24\n      dup3\n      add\n        /* \"#utility.yul\":6861:6890   */\n      mstore\n      shl(0xc8, 0x6f776e6572206f)\n        /* \"#utility.yul\":6906:6924   */\n      0x44\n      dup3\n      add\n        /* \"#utility.yul\":6899:6936   */\n      mstore\n        /* \"#utility.yul\":6953:6971   */\n      0x64\n      add\n        /* \"contracts/Market.sol\":1208:1283  require(... */\n      tag_98\n        /* \"#utility.yul\":6647:6977   */\n      jump\n        /* \"contracts/Market.sol\":1208:1283  require(... */\n    tag_131:\n        /* \"contracts/Market.sol\":3693:3699  status */\n      and(0xff, sload(0x05))\n        /* \"contracts/Market.sol\":3693:3704  status == 0 */\n      iszero\n        /* \"contracts/Market.sol\":3685:3705  require(status == 0) */\n      tag_135\n      jumpi\n      0x00\n      dup1\n      revert\n    tag_135:\n        /* \"contracts/Market.sol\":3719:3725  uint i */\n      0x00\n        /* \"contracts/Market.sol\":3715:3799  for(uint i = 0; i < pairs.length; i++){... */\n    tag_136:\n        /* \"contracts/Market.sol\":3735:3740  pairs */\n      0x02\n        /* \"contracts/Market.sol\":3735:3747  pairs.length */\n      sload\n        /* \"contracts/Market.sol\":3731:3747  i < pairs.length */\n      dup2\n      lt\n        /* \"contracts/Market.sol\":3715:3799  for(uint i = 0; i < pairs.length; i++){... */\n      iszero\n      tag_137\n      jumpi\n        /* \"contracts/Market.sol\":3767:3788  _cancelPair(pairs[i]) */\n      tag_139\n        /* \"contracts/Market.sol\":3779:3784  pairs */\n      0x02\n        /* \"contracts/Market.sol\":3785:3786  i */\n      dup3\n        /* \"contracts/Market.sol\":3779:3787  pairs[i] */\n      dup2\n      sload\n      dup2\n      lt\n      tag_141\n      jumpi\n      tag_141\n      tag_80\n      jump\t// in\n    tag_141:\n      swap1\n      0x00\n      mstore\n      keccak256(0x00, 0x20)\n      add\n      sload\n        /* \"contracts/Market.sol\":3767:3778  _cancelPair */\n      tag_143\n        /* \"contracts/Market.sol\":3767:3788  _cancelPair(pairs[i]) */\n      jump\t// in\n    tag_139:\n        /* \"contracts/Market.sol\":3749:3752  i++ */\n      dup1\n      tag_144\n      dup2\n      tag_84\n      jump\t// in\n    tag_144:\n      swap2\n      pop\n      pop\n        /* \"contracts/Market.sol\":3715:3799  for(uint i = 0; i < pairs.length; i++){... */\n      jump(tag_136)\n    tag_137:\n      pop\n      pop\n        /* \"contracts/Market.sol\":3808:3814  status */\n      0x05\n        /* \"contracts/Market.sol\":3808:3818  status = 3 */\n      dup1\n      sload\n      not(0xff)\n      and\n        /* \"contracts/Market.sol\":3817:3818  3 */\n      0x03\n        /* \"contracts/Market.sol\":3808:3818  status = 3 */\n      or\n      swap1\n      sstore\n      0x01\n        /* \"contracts/Market.sol\":3601:3846  function cancelMarket() external override onlyFactory returns(bool) ... */\n      swap1\n      jump\t// out\n        /* \"contracts/Market.sol\":2524:3030  function cancelPending(bytes32 _bet) external override nonReentrant {... */\n    tag_44:\n        /* \"@openzeppelin/contracts/security/ReentrancyGuard.sol\":1744:1745  2 */\n      0x02\n        /* \"@openzeppelin/contracts/security/ReentrancyGuard.sol\":2325:2332  _status */\n      sload(0x00)\n        /* \"@openzeppelin/contracts/security/ReentrancyGuard.sol\":2325:2344  _status != _ENTERED */\n      sub\n        /* \"@openzeppelin/contracts/security/ReentrancyGuard.sol\":2317:2380  require(_status != _ENTERED, \"ReentrancyGuard: reentrant call\") */\n      tag_146\n      jumpi\n      mload(0x40)\n      shl(0xe5, 0x461bcd)\n      dup2\n      mstore\n      0x04\n      add\n      tag_98\n      swap1\n      tag_99\n      jump\t// in\n    tag_146:\n        /* \"@openzeppelin/contracts/security/ReentrancyGuard.sol\":1744:1745  2 */\n      0x02\n        /* \"@openzeppelin/contracts/security/ReentrancyGuard.sol\":2455:2462  _status */\n      0x00\n        /* \"@openzeppelin/contracts/security/ReentrancyGuard.sol\":2455:2473  _status = _ENTERED */\n      dup2\n      dup2\n      sstore\n        /* \"contracts/Market.sol\":2625:2639  betsInfo[_bet] */\n      dup3\n      dup2\n      mstore\n        /* \"contracts/Market.sol\":2625:2633  betsInfo */\n      0x07\n        /* \"contracts/Market.sol\":2625:2639  betsInfo[_bet] */\n      0x20\n      swap1\n      dup2\n      mstore\n      0x40\n      swap2\n      dup3\n      swap1\n      keccak256\n        /* \"contracts/Market.sol\":2602:2639  MarketBet memory bet = betsInfo[_bet] */\n      dup3\n      mload\n      0xc0\n      dup2\n      add\n      dup5\n      mstore\n      dup2\n      sload\n      sub(shl(0xa0, 0x01), 0x01)\n      swap1\n      dup2\n      and\n      dup1\n      dup4\n      mstore\n      0x01\n      dup5\n      add\n      sload\n      swap1\n      swap2\n      and\n      swap4\n      dup3\n      add\n      swap4\n      swap1\n      swap4\n      mstore\n      swap4\n      dup2\n      add\n      sload\n      swap3\n      dup5\n      add\n      swap3\n      swap1\n      swap3\n      mstore\n      0x03\n      dup3\n      add\n      sload\n      0x60\n      dup5\n      add\n      mstore\n      0x04\n      dup3\n      add\n      sload\n      0x80\n      dup5\n      add\n      mstore\n      0x05\n      swap1\n      swap2\n      add\n      sload\n      0xff\n      and\n      0xa0\n      dup4\n      add\n      mstore\n        /* \"contracts/Market.sol\":2657:2667  msg.sender */\n      caller\n        /* \"contracts/Market.sol\":2657:2681  msg.sender == bet.better */\n      eq\n        /* \"contracts/Market.sol\":2649:2700  require(msg.sender == bet.better, \"bet owner only\") */\n      tag_149\n      jumpi\n      mload(0x40)\n      shl(0xe5, 0x461bcd)\n      dup2\n      mstore\n        /* \"#utility.yul\":7184:7186   */\n      0x20\n        /* \"contracts/Market.sol\":2649:2700  require(msg.sender == bet.better, \"bet owner only\") */\n      0x04\n      dup3\n      add\n        /* \"#utility.yul\":7166:7187   */\n      mstore\n        /* \"#utility.yul\":7223:7225   */\n      0x0e\n        /* \"#utility.yul\":7203:7221   */\n      0x24\n      dup3\n      add\n        /* \"#utility.yul\":7196:7226   */\n      mstore\n      shl(0x90, 0x626574206f776e6572206f6e6c79)\n        /* \"#utility.yul\":7242:7260   */\n      0x44\n      dup3\n      add\n        /* \"#utility.yul\":7235:7279   */\n      mstore\n        /* \"#utility.yul\":7296:7314   */\n      0x64\n      add\n        /* \"contracts/Market.sol\":2649:2700  require(msg.sender == bet.better, \"bet owner only\") */\n      tag_98\n        /* \"#utility.yul\":6982:7320   */\n      jump\n        /* \"contracts/Market.sol\":2649:2700  require(msg.sender == bet.better, \"bet owner only\") */\n    tag_149:\n        /* \"contracts/Market.sol\":2710:2723  uint remStake */\n      0x00\n        /* \"contracts/Market.sol\":2738:2741  bet */\n      dup2\n        /* \"contracts/Market.sol\":2738:2749  bet.matched */\n      0x60\n      add\n      mload\n        /* \"contracts/Market.sol\":2726:2729  bet */\n      dup3\n        /* \"contracts/Market.sol\":2726:2735  bet.stake */\n      0x40\n      add\n      mload\n        /* \"contracts/Market.sol\":2726:2749  bet.stake - bet.matched */\n      tag_152\n      swap2\n      swap1\n      tag_120\n      jump\t// in\n    tag_152:\n        /* \"contracts/Market.sol\":2763:2773  bet.better */\n      dup3\n      mload\n      sub(shl(0xa0, 0x01), 0x01)\n        /* \"contracts/Market.sol\":2759:2774  bal[bet.better] */\n      and\n      0x00\n      swap1\n      dup2\n      mstore\n        /* \"contracts/Market.sol\":2759:2762  bal */\n      0x06\n        /* \"contracts/Market.sol\":2759:2774  bal[bet.better] */\n      0x20\n      swap1\n      dup2\n      mstore\n      0x40\n      dup1\n      dup4\n      keccak256\n        /* \"contracts/Market.sol\":2759:2785  bal[bet.better] = remStake */\n      dup5\n      swap1\n      sstore\n        /* \"contracts/Market.sol\":2820:2829  bet.stake */\n      dup1\n      dup7\n      add\n      mload\n        /* \"contracts/Market.sol\":2795:2809  betsInfo[_bet] */\n      dup8\n      dup5\n      mstore\n        /* \"contracts/Market.sol\":2795:2803  betsInfo */\n      0x07\n        /* \"contracts/Market.sol\":2795:2809  betsInfo[_bet] */\n      swap1\n      swap3\n      mstore\n      dup3\n      keccak256\n        /* \"contracts/Market.sol\":2795:2817  betsInfo[_bet].matched */\n      0x03\n      add\n        /* \"contracts/Market.sol\":2795:2829  betsInfo[_bet].matched = bet.stake */\n      sstore\n        /* \"contracts/Market.sol\":2710:2749  uint remStake = bet.stake - bet.matched */\n      swap1\n      swap2\n      pop\n        /* \"contracts/Market.sol\":2875:3024  for(uint i = 0; i < pendingBets.length; i++){... */\n    tag_153:\n        /* \"contracts/Market.sol\":2895:2906  pendingBets */\n      0x04\n        /* \"contracts/Market.sol\":2895:2913  pendingBets.length */\n      sload\n        /* \"contracts/Market.sol\":2891:2913  i < pendingBets.length */\n      dup2\n      lt\n        /* \"contracts/Market.sol\":2875:3024  for(uint i = 0; i < pendingBets.length; i++){... */\n      iszero\n      tag_154\n      jumpi\n        /* \"contracts/Market.sol\":2954:2958  _bet */\n      dup4\n        /* \"contracts/Market.sol\":2936:2947  pendingBets */\n      0x04\n        /* \"contracts/Market.sol\":2948:2949  i */\n      dup3\n        /* \"contracts/Market.sol\":2936:2950  pendingBets[i] */\n      dup2\n      sload\n      dup2\n      lt\n      tag_157\n      jumpi\n      tag_157\n      tag_80\n      jump\t// in\n    tag_157:\n      swap1\n      0x00\n      mstore\n      keccak256(0x00, 0x20)\n      add\n      sload\n        /* \"contracts/Market.sol\":2936:2958  pendingBets[i] == _bet */\n      sub\n        /* \"contracts/Market.sol\":2933:3014  if(pendingBets[i] == _bet) {... */\n      tag_159\n      jumpi\n        /* \"contracts/Market.sol\":2985:2996  pendingBets */\n      0x04\n        /* \"contracts/Market.sol\":2997:2998  i */\n      dup2\n        /* \"contracts/Market.sol\":2985:2999  pendingBets[i] */\n      dup2\n      sload\n      dup2\n      lt\n      tag_161\n      jumpi\n      tag_161\n      tag_80\n      jump\t// in\n    tag_161:\n      0x00\n      swap2\n      dup3\n      mstore\n      0x20\n      dup3\n      keccak256\n      add\n        /* \"contracts/Market.sol\":2978:2999  delete pendingBets[i] */\n      sstore\n        /* \"contracts/Market.sol\":2933:3014  if(pendingBets[i] == _bet) {... */\n    tag_159:\n        /* \"contracts/Market.sol\":2915:2918  i++ */\n      dup1\n      tag_163\n      dup2\n      tag_84\n      jump\t// in\n    tag_163:\n      swap2\n      pop\n      pop\n        /* \"contracts/Market.sol\":2875:3024  for(uint i = 0; i < pendingBets.length; i++){... */\n      jump(tag_153)\n    tag_154:\n      pop\n      pop\n        /* \"@openzeppelin/contracts/security/ReentrancyGuard.sol\":1701:1702  1 */\n      0x01\n        /* \"@openzeppelin/contracts/security/ReentrancyGuard.sol\":2628:2635  _status */\n      0x00\n        /* \"@openzeppelin/contracts/security/ReentrancyGuard.sol\":2628:2650  _status = _NOT_ENTERED */\n      sstore\n      pop\n      pop\n        /* \"contracts/Market.sol\":2524:3030  function cancelPending(bytes32 _bet) external override nonReentrant {... */\n      jump\t// out\n        /* \"contracts/Market.sol\":3344:3595  function setWinningSide(uint8 _winningSide)... */\n    tag_48:\n        /* \"contracts/Market.sol\":1243:1250  factory */\n      sload(0x01)\n        /* \"contracts/Market.sol\":3441:3445  bool */\n      0x00\n      swap1\n      sub(shl(0xa0, 0x01), 0x01)\n        /* \"contracts/Market.sol\":1243:1250  factory */\n      and\n        /* \"contracts/Market.sol\":1229:1239  msg.sender */\n      caller\n        /* \"contracts/Market.sol\":1229:1250  msg.sender == factory */\n      eq\n        /* \"contracts/Market.sol\":1208:1283  require(... */\n      tag_165\n      jumpi\n      mload(0x40)\n      shl(0xe5, 0x461bcd)\n      dup2\n      mstore\n        /* \"#utility.yul\":6849:6851   */\n      0x20\n        /* \"contracts/Market.sol\":1208:1283  require(... */\n      0x04\n      dup3\n      add\n        /* \"#utility.yul\":6831:6852   */\n      mstore\n        /* \"#utility.yul\":6888:6889   */\n      0x07\n        /* \"#utility.yul\":6868:6886   */\n      0x24\n      dup3\n      add\n        /* \"#utility.yul\":6861:6890   */\n      mstore\n      shl(0xc8, 0x6f776e6572206f)\n        /* \"#utility.yul\":6906:6924   */\n      0x44\n      dup3\n      add\n        /* \"#utility.yul\":6899:6936   */\n      mstore\n        /* \"#utility.yul\":6953:6971   */\n      0x64\n      add\n        /* \"contracts/Market.sol\":1208:1283  require(... */\n      tag_98\n        /* \"#utility.yul\":6647:6977   */\n      jump\n        /* \"contracts/Market.sol\":1208:1283  require(... */\n    tag_165:\n        /* \"contracts/Market.sol\":3470:3476  status */\n      and(0xff, sload(0x05))\n        /* \"contracts/Market.sol\":3470:3481  status == 0 */\n      iszero\n        /* \"contracts/Market.sol\":3470:3525  status == 0 && (_winningSide == 1 || _winningSide == 2) */\n      dup1\n      iszero\n      tag_169\n      jumpi\n      pop\n        /* \"contracts/Market.sol\":3486:3498  _winningSide */\n      dup2\n        /* \"contracts/Market.sol\":3486:3503  _winningSide == 1 */\n      0xff\n      and\n        /* \"contracts/Market.sol\":3502:3503  1 */\n      0x01\n        /* \"contracts/Market.sol\":3486:3503  _winningSide == 1 */\n      eq\n        /* \"contracts/Market.sol\":3486:3524  _winningSide == 1 || _winningSide == 2 */\n      dup1\n      tag_169\n      jumpi\n      pop\n        /* \"contracts/Market.sol\":3507:3519  _winningSide */\n      dup2\n        /* \"contracts/Market.sol\":3507:3524  _winningSide == 2 */\n      0xff\n      and\n        /* \"contracts/Market.sol\":3523:3524  2 */\n      0x02\n        /* \"contracts/Market.sol\":3507:3524  _winningSide == 2 */\n      eq\n        /* \"contracts/Market.sol\":3486:3524  _winningSide == 1 || _winningSide == 2 */\n    tag_169:\n        /* \"contracts/Market.sol\":3461:3536  require (status == 0 && (_winningSide == 1 || _winningSide == 2), \"!x win\") */\n      tag_170\n      jumpi\n      mload(0x40)\n      shl(0xe5, 0x461bcd)\n      dup2\n      mstore\n        /* \"#utility.yul\":7527:7529   */\n      0x20\n        /* \"contracts/Market.sol\":3461:3536  require (status == 0 && (_winningSide == 1 || _winningSide == 2), \"!x win\") */\n      0x04\n      dup3\n      add\n        /* \"#utility.yul\":7509:7530   */\n      mstore\n        /* \"#utility.yul\":7566:7567   */\n      0x06\n        /* \"#utility.yul\":7546:7564   */\n      0x24\n      dup3\n      add\n        /* \"#utility.yul\":7539:7568   */\n      mstore\n      shl(0xd1, 0x10bc103bb4b7)\n        /* \"#utility.yul\":7584:7602   */\n      0x44\n      dup3\n      add\n        /* \"#utility.yul\":7577:7613   */\n      mstore\n        /* \"#utility.yul\":7630:7648   */\n      0x64\n      add\n        /* \"contracts/Market.sol\":3461:3536  require (status == 0 && (_winningSide == 1 || _winningSide == 2), \"!x win\") */\n      tag_98\n        /* \"#utility.yul\":7325:7654   */\n      jump\n        /* \"contracts/Market.sol\":3461:3536  require (status == 0 && (_winningSide == 1 || _winningSide == 2), \"!x win\") */\n    tag_170:\n      pop\n        /* \"contracts/Market.sol\":3546:3552  status */\n      0x05\n        /* \"contracts/Market.sol\":3546:3567  status = _winningSide */\n      dup1\n      sload\n      not(0xff)\n      and\n      0xff\n      dup4\n      and\n      or\n      swap1\n      sstore\n      0x01\n        /* \"contracts/Market.sol\":1293:1294  _ */\n    tag_167:\n        /* \"contracts/Market.sol\":3344:3595  function setWinningSide(uint8 _winningSide)... */\n      swap2\n      swap1\n      pop\n      jump\t// out\n        /* \"contracts/Market.sol\":3852:7680  function addBet(... */\n    tag_61:\n        /* \"contracts/Market.sol\":4076:4099  app.isBlack(msg.sender) */\n      mload(0x40)\n      shl(0xe0, 0x332daccf)\n      dup2\n      mstore\n        /* \"contracts/Market.sol\":4088:4098  msg.sender */\n      caller\n        /* \"contracts/Market.sol\":4076:4099  app.isBlack(msg.sender) */\n      0x04\n      dup3\n      add\n        /* \"#utility.yul\":2645:2696   */\n      mstore\n        /* \"contracts/Market.sol\":4044:4051  bytes32 */\n      0x00\n      swap1\n        /* \"contracts/Market.sol\":4076:4079  app */\n      immutable(\"0xb7700257a9e4b89511ea592d7ef488a6959d733cec4df010484e5af3e427a407\")\n      sub(shl(0xa0, 0x01), 0x01)\n        /* \"contracts/Market.sol\":4076:4087  app.isBlack */\n      and\n      swap1\n      0x332daccf\n      swap1\n        /* \"#utility.yul\":2618:2636   */\n      0x24\n      add\n        /* \"contracts/Market.sol\":4076:4099  app.isBlack(msg.sender) */\n      0x20\n      mload(0x40)\n      dup1\n      dup4\n      sub\n      dup2\n      dup7\n      gas\n      staticcall\n      iszero\n      dup1\n      iszero\n      tag_176\n      jumpi\n      returndatasize\n      0x00\n      dup1\n      returndatacopy\n      revert(0x00, returndatasize)\n    tag_176:\n      pop\n      pop\n      pop\n      pop\n      mload(0x40)\n      returndatasize\n      not(0x1f)\n      0x1f\n      dup3\n      add\n      and\n      dup3\n      add\n      dup1\n      0x40\n      mstore\n      pop\n      dup2\n      add\n      swap1\n      tag_177\n      swap2\n      swap1\n      tag_115\n      jump\t// in\n    tag_177:\n        /* \"contracts/Market.sol\":4075:4099  !app.isBlack(msg.sender) */\n      iszero\n        /* \"contracts/Market.sol\":4067:4113  require(!app.isBlack(msg.sender), \"blacklist\") */\n      tag_178\n      jumpi\n      mload(0x40)\n      shl(0xe5, 0x461bcd)\n      dup2\n      mstore\n        /* \"#utility.yul\":7861:7863   */\n      0x20\n        /* \"contracts/Market.sol\":4067:4113  require(!app.isBlack(msg.sender), \"blacklist\") */\n      0x04\n      dup3\n      add\n        /* \"#utility.yul\":7843:7864   */\n      mstore\n        /* \"#utility.yul\":7900:7901   */\n      0x09\n        /* \"#utility.yul\":7880:7898   */\n      0x24\n      dup3\n      add\n        /* \"#utility.yul\":7873:7902   */\n      mstore\n      shl(0xba, 0x189b1858dadb1a5cdd)\n        /* \"#utility.yul\":7918:7936   */\n      0x44\n      dup3\n      add\n        /* \"#utility.yul\":7911:7950   */\n      mstore\n        /* \"#utility.yul\":7967:7985   */\n      0x64\n      add\n        /* \"contracts/Market.sol\":4067:4113  require(!app.isBlack(msg.sender), \"blacklist\") */\n      tag_98\n        /* \"#utility.yul\":7659:7991   */\n      jump\n        /* \"contracts/Market.sol\":4067:4113  require(!app.isBlack(msg.sender), \"blacklist\") */\n    tag_178:\n        /* \"contracts/Market.sol\":4131:4136  _side */\n      dup3\n        /* \"contracts/Market.sol\":4131:4141  _side == 1 */\n      0xff\n      and\n        /* \"contracts/Market.sol\":4140:4141  1 */\n      0x01\n        /* \"contracts/Market.sol\":4131:4141  _side == 1 */\n      eq\n        /* \"contracts/Market.sol\":4131:4155  _side == 1 || _side == 2 */\n      dup1\n      tag_181\n      jumpi\n      pop\n        /* \"contracts/Market.sol\":4145:4150  _side */\n      dup3\n        /* \"contracts/Market.sol\":4145:4155  _side == 2 */\n      0xff\n      and\n        /* \"contracts/Market.sol\":4154:4155  2 */\n      0x02\n        /* \"contracts/Market.sol\":4145:4155  _side == 2 */\n      eq\n        /* \"contracts/Market.sol\":4131:4155  _side == 1 || _side == 2 */\n    tag_181:\n        /* \"contracts/Market.sol\":4123:4172  require(_side == 1 || _side == 2, \"invalid side\") */\n      tag_182\n      jumpi\n      mload(0x40)\n      shl(0xe5, 0x461bcd)\n      dup2\n      mstore\n        /* \"#utility.yul\":8198:8200   */\n      0x20\n        /* \"contracts/Market.sol\":4123:4172  require(_side == 1 || _side == 2, \"invalid side\") */\n      0x04\n      dup3\n      add\n        /* \"#utility.yul\":8180:8201   */\n      mstore\n        /* \"#utility.yul\":8237:8239   */\n      0x0c\n        /* \"#utility.yul\":8217:8235   */\n      0x24\n      dup3\n      add\n        /* \"#utility.yul\":8210:8240   */\n      mstore\n      shl(0xa0, 0x696e76616c69642073696465)\n        /* \"#utility.yul\":8256:8274   */\n      0x44\n      dup3\n      add\n        /* \"#utility.yul\":8249:8291   */\n      mstore\n        /* \"#utility.yul\":8308:8326   */\n      0x64\n      add\n        /* \"contracts/Market.sol\":4123:4172  require(_side == 1 || _side == 2, \"invalid side\") */\n      tag_98\n        /* \"#utility.yul\":7996:8332   */\n      jump\n        /* \"contracts/Market.sol\":4123:4172  require(_side == 1 || _side == 2, \"invalid side\") */\n    tag_182:\n        /* \"contracts/Market.sol\":4182:4197  bytes32 betHash */\n      0x00\n        /* \"contracts/Market.sol\":4200:4256  _createBet(_better, _affiliate, _stake, 0, _odds, _side) */\n      tag_185\n        /* \"contracts/Market.sol\":4211:4218  _better */\n      dup9\n        /* \"contracts/Market.sol\":4220:4230  _affiliate */\n      dup9\n        /* \"contracts/Market.sol\":4232:4238  _stake */\n      dup9\n        /* \"contracts/Market.sol\":4240:4241  0 */\n      0x00\n        /* \"contracts/Market.sol\":4243:4248  _odds */\n      dup10\n        /* \"contracts/Market.sol\":4250:4255  _side */\n      dup10\n        /* \"contracts/Market.sol\":4200:4210  _createBet */\n      tag_186\n        /* \"contracts/Market.sol\":4200:4256  _createBet(_better, _affiliate, _stake, 0, _odds, _side) */\n      jump\t// in\n    tag_185:\n        /* \"contracts/Market.sol\":4488:4499  pendingBets */\n      0x04\n        /* \"contracts/Market.sol\":4488:4506  pendingBets.length */\n      sload\n        /* \"contracts/Market.sol\":4182:4256  bytes32 betHash = _createBet(_better, _affiliate, _stake, 0, _odds, _side) */\n      swap1\n      swap2\n      pop\n        /* \"contracts/Market.sol\":4488:4510  pendingBets.length > 0 */\n      iszero\n        /* \"contracts/Market.sol\":4485:7567  if(pendingBets.length > 0){... */\n      tag_187\n      jumpi\n        /* \"contracts/Market.sol\":4542:4548  _stake */\n      dup6\n        /* \"contracts/Market.sol\":4562:7493  while(_remStake >= 1 * 10 ** 18){... */\n    tag_188:\n        /* \"contracts/Market.sol\":4581:4593  1 * 10 ** 18 */\n      0x0de0b6b3a7640000\n        /* \"contracts/Market.sol\":4568:4577  _remStake */\n      dup2\n        /* \"contracts/Market.sol\":4568:4593  _remStake >= 1 * 10 ** 18 */\n      lt\n        /* \"contracts/Market.sol\":4562:7493  while(_remStake >= 1 * 10 ** 18){... */\n      tag_189\n      jumpi\n        /* \"contracts/Market.sol\":4612:4630  uint selectedIndex */\n      0x00\n        /* \"contracts/Market.sol\":4652:4667  uint256 maxOdds */\n      dup1\n        /* \"contracts/Market.sol\":4693:4699  uint i */\n      0x00\n        /* \"contracts/Market.sol\":4689:5086  for(uint i = 0; i < pendingBets.length; i++){... */\n    tag_190:\n        /* \"contracts/Market.sol\":4709:4720  pendingBets */\n      0x04\n        /* \"contracts/Market.sol\":4709:4727  pendingBets.length */\n      sload\n        /* \"contracts/Market.sol\":4705:4727  i < pendingBets.length */\n      dup2\n      lt\n        /* \"contracts/Market.sol\":4689:5086  for(uint i = 0; i < pendingBets.length; i++){... */\n      iszero\n      tag_191\n      jumpi\n        /* \"contracts/Market.sol\":4755:4767  bytes32 pBet */\n      0x00\n        /* \"contracts/Market.sol\":4770:4781  pendingBets */\n      0x04\n        /* \"contracts/Market.sol\":4782:4783  i */\n      dup3\n        /* \"contracts/Market.sol\":4770:4784  pendingBets[i] */\n      dup2\n      sload\n      dup2\n      lt\n      tag_194\n      jumpi\n      tag_194\n      tag_80\n      jump\t// in\n    tag_194:\n      0x00\n      swap2\n      dup3\n      mstore\n      0x20\n      dup1\n      dup4\n      keccak256\n      swap1\n      swap2\n      add\n      sload\n        /* \"contracts/Market.sol\":4818:4832  betsInfo[pBet] */\n      dup1\n      dup4\n      mstore\n        /* \"contracts/Market.sol\":4818:4826  betsInfo */\n      0x07\n        /* \"contracts/Market.sol\":4818:4832  betsInfo[pBet] */\n      swap1\n      swap2\n      mstore\n      0x40\n      swap1\n      swap2\n      keccak256\n        /* \"contracts/Market.sol\":4818:4837  betsInfo[pBet].side */\n      0x05\n      add\n      sload\n        /* \"contracts/Market.sol\":4770:4784  pendingBets[i] */\n      swap1\n      swap2\n      pop\n        /* \"contracts/Market.sol\":4818:4837  betsInfo[pBet].side */\n      0xff\n      swap1\n      dup2\n      and\n        /* \"contracts/Market.sol\":4809:4837  _side == betsInfo[pBet].side */\n      swap1\n      dup11\n      and\n      sub\n        /* \"contracts/Market.sol\":4806:4895  if(_side == betsInfo[pBet].side){... */\n      tag_196\n      jumpi\n        /* \"contracts/Market.sol\":4864:4872  continue */\n      pop\n      jump(tag_192)\n        /* \"contracts/Market.sol\":4806:4895  if(_side == betsInfo[pBet].side){... */\n    tag_196:\n        /* \"contracts/Market.sol\":4919:4933  betsInfo[pBet] */\n      0x00\n      dup2\n      dup2\n      mstore\n        /* \"contracts/Market.sol\":4919:4927  betsInfo */\n      0x07\n        /* \"contracts/Market.sol\":4919:4933  betsInfo[pBet] */\n      0x20\n      mstore\n      0x40\n      swap1\n      keccak256\n        /* \"contracts/Market.sol\":4919:4938  betsInfo[pBet].odds */\n      0x04\n      add\n      sload\n        /* \"contracts/Market.sol\":4919:4946  betsInfo[pBet].odds>maxOdds */\n      dup4\n      lt\n        /* \"contracts/Market.sol\":4916:5068  if(betsInfo[pBet].odds>maxOdds){... */\n      iszero\n      tag_197\n      jumpi\n        /* \"contracts/Market.sol\":4983:4997  betsInfo[pBet] */\n      0x00\n      dup2\n      dup2\n      mstore\n        /* \"contracts/Market.sol\":4983:4991  betsInfo */\n      0x07\n        /* \"contracts/Market.sol\":4983:4997  betsInfo[pBet] */\n      0x20\n      mstore\n      0x40\n      swap1\n      keccak256\n        /* \"contracts/Market.sol\":4983:5002  betsInfo[pBet].odds */\n      0x04\n      add\n      sload\n        /* \"contracts/Market.sol\":5044:5045  i */\n      swap2\n      swap4\n      pop\n        /* \"contracts/Market.sol\":4983:5002  betsInfo[pBet].odds */\n      swap1\n      swap2\n      pop\n        /* \"contracts/Market.sol\":5044:5045  i */\n      dup3\n      swap1\n        /* \"contracts/Market.sol\":4916:5068  if(betsInfo[pBet].odds>maxOdds){... */\n    tag_197:\n        /* \"contracts/Market.sol\":4733:5086  {... */\n      pop\n        /* \"contracts/Market.sol\":4689:5086  for(uint i = 0; i < pendingBets.length; i++){... */\n    tag_192:\n        /* \"contracts/Market.sol\":4729:4732  i++ */\n      dup1\n      tag_198\n      dup2\n      tag_84\n      jump\t// in\n    tag_198:\n      swap2\n      pop\n      pop\n        /* \"contracts/Market.sol\":4689:5086  for(uint i = 0; i < pendingBets.length; i++){... */\n      jump(tag_190)\n    tag_191:\n      pop\n        /* \"contracts/Market.sol\":5116:5121  _odds */\n      dup8\n        /* \"contracts/Market.sol\":5106:5113  maxOdds */\n      dup2\n        /* \"contracts/Market.sol\":5106:5121  maxOdds > _odds */\n      gt\n        /* \"contracts/Market.sol\":5106:5133  maxOdds > _odds || _instant */\n      dup1\n      tag_199\n      jumpi\n      pop\n        /* \"contracts/Market.sol\":5125:5133  _instant */\n      dup6\n        /* \"contracts/Market.sol\":5106:5133  maxOdds > _odds || _instant */\n    tag_199:\n        /* \"contracts/Market.sol\":5103:7479  if(maxOdds > _odds || _instant) {... */\n      iszero\n      tag_200\n      jumpi\n        /* \"contracts/Market.sol\":5157:5177  bytes32 selectedHash */\n      0x00\n        /* \"contracts/Market.sol\":5180:5191  pendingBets */\n      0x04\n        /* \"contracts/Market.sol\":5192:5205  selectedIndex */\n      dup4\n        /* \"contracts/Market.sol\":5180:5206  pendingBets[selectedIndex] */\n      dup2\n      sload\n      dup2\n      lt\n      tag_202\n      jumpi\n      tag_202\n      tag_80\n      jump\t// in\n    tag_202:\n      0x00\n      swap2\n      dup3\n      mstore\n      0x20\n      dup1\n      dup4\n      keccak256\n      swap1\n      swap2\n      add\n      sload\n        /* \"contracts/Market.sol\":5259:5281  betsInfo[selectedHash] */\n      dup1\n      dup4\n      mstore\n        /* \"contracts/Market.sol\":5259:5267  betsInfo */\n      0x07\n        /* \"contracts/Market.sol\":5259:5281  betsInfo[selectedHash] */\n      dup3\n      mstore\n      0x40\n      dup1\n      dup5\n      keccak256\n        /* \"contracts/Market.sol\":5228:5281  MarketBet memory selectedBet = betsInfo[selectedHash] */\n      dup2\n      mload\n      0xc0\n      dup2\n      add\n      dup4\n      mstore\n      dup2\n      sload\n      sub(shl(0xa0, 0x01), 0x01)\n      swap1\n      dup2\n      and\n      dup3\n      mstore\n      0x01\n      dup1\n      dup5\n      add\n      sload\n      swap1\n      swap2\n      and\n      swap6\n      dup3\n      add\n      swap6\n      swap1\n      swap6\n      mstore\n      0x02\n      dup3\n      add\n      sload\n      swap3\n      dup2\n      add\n      swap3\n      swap1\n      swap3\n      mstore\n      0x03\n      dup2\n      add\n      sload\n      0x60\n      dup4\n      add\n      mstore\n      0x04\n      dup2\n      add\n      sload\n      0x80\n      dup4\n      add\n      mstore\n      0x05\n      add\n      sload\n      0xff\n      and\n      0xa0\n      dup3\n      add\n      mstore\n        /* \"contracts/Market.sol\":5180:5206  pendingBets[selectedIndex] */\n      swap1\n      swap4\n      pop\n        /* \"contracts/Market.sol\":5228:5281  MarketBet memory selectedBet = betsInfo[selectedHash] */\n      swap2\n        /* \"contracts/Market.sol\":5180:5206  pendingBets[selectedIndex] */\n      swap1\n        /* \"contracts/Market.sol\":5368:5377  _odds - 1 */\n      tag_204\n      swap1\n        /* \"contracts/Market.sol\":5368:5373  _odds */\n      dup13\n        /* \"contracts/Market.sol\":5368:5377  _odds - 1 */\n      tag_120\n      jump\t// in\n    tag_204:\n        /* \"contracts/Market.sol\":5344:5355  selectedBet */\n      dup3\n        /* \"contracts/Market.sol\":5344:5363  selectedBet.matched */\n      0x60\n      add\n      mload\n        /* \"contracts/Market.sol\":5324:5335  selectedBet */\n      dup4\n        /* \"contracts/Market.sol\":5324:5341  selectedBet.stake */\n      0x40\n      add\n      mload\n        /* \"contracts/Market.sol\":5324:5363  selectedBet.stake - selectedBet.matched */\n      tag_205\n      swap2\n      swap1\n      tag_120\n      jump\t// in\n    tag_205:\n        /* \"contracts/Market.sol\":5323:5378  (selectedBet.stake - selectedBet.matched) / (_odds - 1) */\n      tag_206\n      swap2\n      swap1\n      tag_207\n      jump\t// in\n    tag_206:\n        /* \"contracts/Market.sol\":5303:5378  uint offeredStake = (selectedBet.stake - selectedBet.matched) / (_odds - 1) */\n      swap1\n      pop\n        /* \"contracts/Market.sol\":5400:5417  uint betterAmount */\n      0x00\n        /* \"contracts/Market.sol\":5439:5455  uint makerAmount */\n      dup1\n        /* \"contracts/Market.sol\":5477:5493  bytes32 pairHash */\n      0x00\n        /* \"contracts/Market.sol\":5534:5540  _stake */\n      dup15\n        /* \"contracts/Market.sol\":5518:5530  offeredStake */\n      dup5\n        /* \"contracts/Market.sol\":5518:5540  offeredStake <= _stake */\n      gt\n        /* \"contracts/Market.sol\":5515:6882  if(offeredStake <= _stake) {... */\n      tag_208\n      jumpi\n        /* \"contracts/Market.sol\":5583:5595  offeredStake */\n      dup4\n      swap3\n      pop\n        /* \"contracts/Market.sol\":5651:5660  _odds - 1 */\n      tag_209\n        /* \"contracts/Market.sol\":5659:5660  1 */\n      0x01\n        /* \"contracts/Market.sol\":5651:5656  _odds */\n      dup16\n        /* \"contracts/Market.sol\":5651:5660  _odds - 1 */\n      tag_120\n      jump\t// in\n    tag_209:\n        /* \"contracts/Market.sol\":5635:5661  offeredStake * (_odds - 1) */\n      tag_210\n      swap1\n        /* \"contracts/Market.sol\":5635:5647  offeredStake */\n      dup6\n        /* \"contracts/Market.sol\":5635:5661  offeredStake * (_odds - 1) */\n      tag_211\n      jump\t// in\n    tag_210:\n        /* \"contracts/Market.sol\":5621:5661  makerAmount = offeredStake * (_odds - 1) */\n      swap2\n      pop\n        /* \"contracts/Market.sol\":5690:5695  _side */\n      dup13\n        /* \"contracts/Market.sol\":5690:5700  _side == 1 */\n      0xff\n      and\n        /* \"contracts/Market.sol\":5699:5700  1 */\n      0x01\n        /* \"contracts/Market.sol\":5690:5700  _side == 1 */\n      sub\n        /* \"contracts/Market.sol\":5687:6183  if(_side == 1){... */\n      tag_212\n      jumpi\n        /* \"contracts/Market.sol\":5742:5800  _createPair(betHash,selectedHash,betterAmount,makerAmount) */\n      tag_213\n        /* \"contracts/Market.sol\":5754:5761  betHash */\n      dup11\n        /* \"contracts/Market.sol\":5762:5774  selectedHash */\n      dup8\n        /* \"contracts/Market.sol\":5775:5787  betterAmount */\n      dup6\n        /* \"contracts/Market.sol\":5788:5799  makerAmount */\n      dup6\n        /* \"contracts/Market.sol\":5742:5753  _createPair */\n      tag_214\n        /* \"contracts/Market.sol\":5742:5800  _createPair(betHash,selectedHash,betterAmount,makerAmount) */\n      jump\t// in\n    tag_213:\n        /* \"contracts/Market.sol\":5835:5893  PairCreated(betHash,selectedHash,betterAmount,makerAmount) */\n      0x40\n      dup1\n      mload\n        /* \"#utility.yul\":8963:8988   */\n      dup13\n      dup2\n      mstore\n        /* \"#utility.yul\":9019:9021   */\n      0x20\n        /* \"#utility.yul\":9004:9022   */\n      dup2\n      add\n        /* \"#utility.yul\":8997:9031   */\n      dup10\n      swap1\n      mstore\n        /* \"#utility.yul\":9047:9065   */\n      swap1\n      dup2\n      add\n        /* \"#utility.yul\":9040:9074   */\n      dup6\n      swap1\n      mstore\n        /* \"#utility.yul\":9105:9107   */\n      0x60\n        /* \"#utility.yul\":9090:9108   */\n      dup2\n      add\n        /* \"#utility.yul\":9083:9117   */\n      dup5\n      swap1\n      mstore\n        /* \"contracts/Market.sol\":5731:5800  pairHash = _createPair(betHash,selectedHash,betterAmount,makerAmount) */\n      swap1\n      swap2\n      pop\n        /* \"contracts/Market.sol\":5835:5893  PairCreated(betHash,selectedHash,betterAmount,makerAmount) */\n      0x5de48bb383b4a2aaad84721b80d93429b813651b0eefbd59d32018cfe28215dc\n      swap1\n        /* \"#utility.yul\":8950:8953   */\n      0x80\n        /* \"#utility.yul\":8935:8954   */\n      add\n        /* \"contracts/Market.sol\":5835:5893  PairCreated(betHash,selectedHash,betterAmount,makerAmount) */\n    tag_215:\n      mload(0x40)\n      dup1\n      swap2\n      sub\n      swap1\n      log1\n        /* \"contracts/Market.sol\":5515:6882  if(offeredStake <= _stake) {... */\n      jump(tag_228)\n        /* \"contracts/Market.sol\":5687:6183  if(_side == 1){... */\n    tag_212:\n        /* \"contracts/Market.sol\":5953:5958  _side */\n      dup13\n        /* \"contracts/Market.sol\":5953:5963  _side == 2 */\n      0xff\n      and\n        /* \"contracts/Market.sol\":5962:5963  2 */\n      0x02\n        /* \"contracts/Market.sol\":5953:5963  _side == 2 */\n      sub\n        /* \"contracts/Market.sol\":5950:6183  if(_side == 2){... */\n      tag_218\n      jumpi\n        /* \"contracts/Market.sol\":6005:6063  _createPair(selectedHash,betHash,makerAmount,betterAmount) */\n      tag_219\n        /* \"contracts/Market.sol\":6017:6029  selectedHash */\n      dup7\n        /* \"contracts/Market.sol\":6030:6037  betHash */\n      dup12\n        /* \"contracts/Market.sol\":6038:6049  makerAmount */\n      dup5\n        /* \"contracts/Market.sol\":6050:6062  betterAmount */\n      dup7\n        /* \"contracts/Market.sol\":6005:6016  _createPair */\n      tag_214\n        /* \"contracts/Market.sol\":6005:6063  _createPair(selectedHash,betHash,makerAmount,betterAmount) */\n      jump\t// in\n    tag_219:\n        /* \"contracts/Market.sol\":6098:6156  PairCreated(selectedHash,betHash,makerAmount,betterAmount) */\n      0x40\n      dup1\n      mload\n        /* \"#utility.yul\":8963:8988   */\n      dup9\n      dup2\n      mstore\n        /* \"#utility.yul\":9019:9021   */\n      0x20\n        /* \"#utility.yul\":9004:9022   */\n      dup2\n      add\n        /* \"#utility.yul\":8997:9031   */\n      dup14\n      swap1\n      mstore\n        /* \"#utility.yul\":9047:9065   */\n      swap1\n      dup2\n      add\n        /* \"#utility.yul\":9040:9074   */\n      dup5\n      swap1\n      mstore\n        /* \"#utility.yul\":9105:9107   */\n      0x60\n        /* \"#utility.yul\":9090:9108   */\n      dup2\n      add\n        /* \"#utility.yul\":9083:9117   */\n      dup6\n      swap1\n      mstore\n        /* \"contracts/Market.sol\":5994:6063  pairHash = _createPair(selectedHash,betHash,makerAmount,betterAmount) */\n      swap1\n      swap2\n      pop\n        /* \"contracts/Market.sol\":6098:6156  PairCreated(selectedHash,betHash,makerAmount,betterAmount) */\n      0x5de48bb383b4a2aaad84721b80d93429b813651b0eefbd59d32018cfe28215dc\n      swap1\n        /* \"#utility.yul\":8950:8953   */\n      0x80\n        /* \"#utility.yul\":8935:8954   */\n      add\n        /* \"contracts/Market.sol\":6098:6156  PairCreated(selectedHash,betHash,makerAmount,betterAmount) */\n      tag_215\n        /* \"#utility.yul\":8732:9123   */\n      jump\n        /* \"contracts/Market.sol\":5950:6183  if(_side == 2){... */\n    tag_218:\n        /* \"contracts/Market.sol\":5515:6882  if(offeredStake <= _stake) {... */\n      jump(tag_228)\n    tag_208:\n        /* \"contracts/Market.sol\":6272:6278  _stake */\n      dup15\n      swap3\n      pop\n        /* \"contracts/Market.sol\":6328:6337  _odds - 1 */\n      tag_222\n        /* \"contracts/Market.sol\":6336:6337  1 */\n      0x01\n        /* \"contracts/Market.sol\":6328:6333  _odds */\n      dup16\n        /* \"contracts/Market.sol\":6328:6337  _odds - 1 */\n      tag_120\n      jump\t// in\n    tag_222:\n        /* \"contracts/Market.sol\":6318:6324  _stake */\n      dup16\n        /* \"contracts/Market.sol\":6318:6338  _stake * (_odds - 1) */\n      tag_223\n      swap2\n      swap1\n      tag_211\n      jump\t// in\n    tag_223:\n        /* \"contracts/Market.sol\":6304:6338  makerAmount = _stake * (_odds - 1) */\n      swap2\n      pop\n        /* \"contracts/Market.sol\":6367:6372  _side */\n      dup13\n        /* \"contracts/Market.sol\":6367:6377  _side == 1 */\n      0xff\n      and\n        /* \"contracts/Market.sol\":6376:6377  1 */\n      0x01\n        /* \"contracts/Market.sol\":6367:6377  _side == 1 */\n      sub\n        /* \"contracts/Market.sol\":6364:6860  if(_side == 1){... */\n      tag_224\n      jumpi\n        /* \"contracts/Market.sol\":6419:6477  _createPair(betHash,selectedHash,betterAmount,makerAmount) */\n      tag_213\n        /* \"contracts/Market.sol\":6431:6438  betHash */\n      dup11\n        /* \"contracts/Market.sol\":6439:6451  selectedHash */\n      dup8\n        /* \"contracts/Market.sol\":6452:6464  betterAmount */\n      dup6\n        /* \"contracts/Market.sol\":6465:6476  makerAmount */\n      dup6\n        /* \"contracts/Market.sol\":6419:6430  _createPair */\n      tag_214\n        /* \"contracts/Market.sol\":6419:6477  _createPair(betHash,selectedHash,betterAmount,makerAmount) */\n      jump\t// in\n        /* \"contracts/Market.sol\":6364:6860  if(_side == 1){... */\n    tag_224:\n        /* \"contracts/Market.sol\":6630:6635  _side */\n      dup13\n        /* \"contracts/Market.sol\":6630:6640  _side == 2 */\n      0xff\n      and\n        /* \"contracts/Market.sol\":6639:6640  2 */\n      0x02\n        /* \"contracts/Market.sol\":6630:6640  _side == 2 */\n      sub\n        /* \"contracts/Market.sol\":6627:6860  if(_side == 2){... */\n      tag_228\n      jumpi\n        /* \"contracts/Market.sol\":6682:6740  _createPair(selectedHash,betHash,makerAmount,betterAmount) */\n      tag_229\n        /* \"contracts/Market.sol\":6694:6706  selectedHash */\n      dup7\n        /* \"contracts/Market.sol\":6707:6714  betHash */\n      dup12\n        /* \"contracts/Market.sol\":6715:6726  makerAmount */\n      dup5\n        /* \"contracts/Market.sol\":6727:6739  betterAmount */\n      dup7\n        /* \"contracts/Market.sol\":6682:6693  _createPair */\n      tag_214\n        /* \"contracts/Market.sol\":6682:6740  _createPair(selectedHash,betHash,makerAmount,betterAmount) */\n      jump\t// in\n    tag_229:\n        /* \"contracts/Market.sol\":6775:6833  PairCreated(selectedHash,betHash,makerAmount,betterAmount) */\n      0x40\n      dup1\n      mload\n        /* \"#utility.yul\":8963:8988   */\n      dup9\n      dup2\n      mstore\n        /* \"#utility.yul\":9019:9021   */\n      0x20\n        /* \"#utility.yul\":9004:9022   */\n      dup2\n      add\n        /* \"#utility.yul\":8997:9031   */\n      dup14\n      swap1\n      mstore\n        /* \"#utility.yul\":9047:9065   */\n      swap1\n      dup2\n      add\n        /* \"#utility.yul\":9040:9074   */\n      dup5\n      swap1\n      mstore\n        /* \"#utility.yul\":9105:9107   */\n      0x60\n        /* \"#utility.yul\":9090:9108   */\n      dup2\n      add\n        /* \"#utility.yul\":9083:9117   */\n      dup6\n      swap1\n      mstore\n        /* \"contracts/Market.sol\":6671:6740  pairHash = _createPair(selectedHash,betHash,makerAmount,betterAmount) */\n      swap1\n      swap2\n      pop\n        /* \"contracts/Market.sol\":6775:6833  PairCreated(selectedHash,betHash,makerAmount,betterAmount) */\n      0x5de48bb383b4a2aaad84721b80d93429b813651b0eefbd59d32018cfe28215dc\n      swap1\n        /* \"#utility.yul\":8950:8953   */\n      0x80\n        /* \"#utility.yul\":8935:8954   */\n      add\n        /* \"contracts/Market.sol\":6775:6833  PairCreated(selectedHash,betHash,makerAmount,betterAmount) */\n      mload(0x40)\n      dup1\n      swap2\n      sub\n      swap1\n      log1\n        /* \"contracts/Market.sol\":6627:6860  if(_side == 2){... */\n    tag_228:\n        /* \"contracts/Market.sol\":6903:6920  betPairs[betHash] */\n      0x00\n      dup11\n      dup2\n      mstore\n        /* \"contracts/Market.sol\":6903:6911  betPairs */\n      0x0a\n        /* \"contracts/Market.sol\":6903:6920  betPairs[betHash] */\n      0x20\n      swap1\n      dup2\n      mstore\n      0x40\n      dup1\n      dup4\n      keccak256\n        /* \"contracts/Market.sol\":6903:6935  betPairs[betHash].push(pairHash) */\n      dup1\n      sload\n      0x01\n      dup2\n      dup2\n      add\n      dup4\n      sstore\n      swap2\n      dup6\n      mstore\n      dup4\n      dup6\n      keccak256\n      add\n      dup6\n      swap1\n      sstore\n        /* \"contracts/Market.sol\":6957:6979  betPairs[selectedHash] */\n      dup10\n      dup5\n      mstore\n      dup2\n      dup5\n      keccak256\n        /* \"contracts/Market.sol\":6957:6994  betPairs[selectedHash].push(pairHash) */\n      dup1\n      sload\n      swap2\n      dup3\n      add\n      dup2\n      sstore\n      dup5\n      mstore\n      dup3\n      dup5\n      keccak256\n      add\n      dup5\n      swap1\n      sstore\n        /* \"contracts/Market.sol\":7016:7033  betsInfo[betHash] */\n      dup13\n      dup4\n      mstore\n        /* \"contracts/Market.sol\":7016:7024  betsInfo */\n      0x07\n        /* \"contracts/Market.sol\":7016:7033  betsInfo[betHash] */\n      swap1\n      swap2\n      mstore\n      dup2\n      keccak256\n        /* \"contracts/Market.sol\":7016:7041  betsInfo[betHash].matched */\n      0x03\n      add\n        /* \"contracts/Market.sol\":7016:7057  betsInfo[betHash].matched += betterAmount */\n      dup1\n      sload\n        /* \"contracts/Market.sol\":7045:7057  betterAmount */\n      dup6\n      swap3\n        /* \"contracts/Market.sol\":6903:6920  betPairs[betHash] */\n      swap1\n        /* \"contracts/Market.sol\":7016:7057  betsInfo[betHash].matched += betterAmount */\n      tag_233\n      swap1\n        /* \"contracts/Market.sol\":7045:7057  betterAmount */\n      dup5\n      swap1\n        /* \"contracts/Market.sol\":7016:7057  betsInfo[betHash].matched += betterAmount */\n      tag_234\n      jump\t// in\n    tag_233:\n      swap1\n      swap2\n      sstore\n      pop\n      pop\n        /* \"contracts/Market.sol\":7079:7101  betsInfo[selectedHash] */\n      0x00\n      dup7\n      dup2\n      mstore\n        /* \"contracts/Market.sol\":7079:7087  betsInfo */\n      0x07\n        /* \"contracts/Market.sol\":7079:7101  betsInfo[selectedHash] */\n      0x20\n      mstore\n      0x40\n      dup2\n      keccak256\n        /* \"contracts/Market.sol\":7079:7109  betsInfo[selectedHash].matched */\n      0x03\n      add\n        /* \"contracts/Market.sol\":7079:7124  betsInfo[selectedHash].matched += makerAmount */\n      dup1\n      sload\n        /* \"contracts/Market.sol\":7113:7124  makerAmount */\n      dup5\n      swap3\n        /* \"contracts/Market.sol\":7079:7101  betsInfo[selectedHash] */\n      swap1\n        /* \"contracts/Market.sol\":7079:7124  betsInfo[selectedHash].matched += makerAmount */\n      tag_235\n      swap1\n        /* \"contracts/Market.sol\":7113:7124  makerAmount */\n      dup5\n      swap1\n        /* \"contracts/Market.sol\":7079:7124  betsInfo[selectedHash].matched += makerAmount */\n      tag_234\n      jump\t// in\n    tag_235:\n      swap1\n      swap2\n      sstore\n      pop\n      pop\n        /* \"contracts/Market.sol\":7180:7202  betsInfo[selectedHash] */\n      0x00\n      dup7\n      dup2\n      mstore\n        /* \"contracts/Market.sol\":7180:7188  betsInfo */\n      0x07\n        /* \"contracts/Market.sol\":7180:7202  betsInfo[selectedHash] */\n      0x20\n      mstore\n      0x40\n      swap1\n      keccak256\n        /* \"contracts/Market.sol\":7180:7210  betsInfo[selectedHash].matched */\n      0x03\n      dup2\n      add\n      sload\n        /* \"contracts/Market.sol\":7149:7177  betsInfo[selectedHash].stake */\n      0x02\n      swap1\n      swap2\n      add\n      sload\n        /* \"contracts/Market.sol\":7149:7210  betsInfo[selectedHash].stake - betsInfo[selectedHash].matched */\n      tag_236\n      swap2\n        /* \"contracts/Market.sol\":7180:7210  betsInfo[selectedHash].matched */\n      swap1\n        /* \"contracts/Market.sol\":7149:7210  betsInfo[selectedHash].stake - betsInfo[selectedHash].matched */\n      tag_120\n      jump\t// in\n    tag_236:\n        /* \"contracts/Market.sol\":7214:7215  0 */\n      0x00\n        /* \"contracts/Market.sol\":7149:7215  betsInfo[selectedHash].stake - betsInfo[selectedHash].matched == 0 */\n      sub\n        /* \"contracts/Market.sol\":7146:7299  if(betsInfo[selectedHash].stake - betsInfo[selectedHash].matched == 0) {... */\n      tag_237\n      jumpi\n        /* \"contracts/Market.sol\":7250:7261  pendingBets */\n      0x04\n        /* \"contracts/Market.sol\":7262:7275  selectedIndex */\n      dup9\n        /* \"contracts/Market.sol\":7250:7276  pendingBets[selectedIndex] */\n      dup2\n      sload\n      dup2\n      lt\n      tag_239\n      jumpi\n      tag_239\n      tag_80\n      jump\t// in\n    tag_239:\n      0x00\n      swap2\n      dup3\n      mstore\n      0x20\n      dup3\n      keccak256\n      add\n        /* \"contracts/Market.sol\":7243:7276  delete pendingBets[selectedIndex] */\n      sstore\n        /* \"contracts/Market.sol\":7146:7299  if(betsInfo[selectedHash].stake - betsInfo[selectedHash].matched == 0) {... */\n    tag_237:\n        /* \"contracts/Market.sol\":7320:7345  _remStake -= betterAmount */\n      tag_241\n        /* \"contracts/Market.sol\":7333:7345  betterAmount */\n      dup4\n        /* \"contracts/Market.sol\":7320:7345  _remStake -= betterAmount */\n      dup11\n      tag_120\n      jump\t// in\n    tag_241:\n      swap9\n      pop\n        /* \"contracts/Market.sol\":5135:7364  {... */\n      pop\n      pop\n      pop\n      pop\n      pop\n      pop\n        /* \"contracts/Market.sol\":5103:7479  if(maxOdds > _odds || _instant) {... */\n      jump(tag_242)\n    tag_200:\n      pop\n      pop\n        /* \"contracts/Market.sol\":7408:7419  pendingBets */\n      0x04\n        /* \"contracts/Market.sol\":7408:7433  pendingBets.push(betHash) */\n      dup1\n      sload\n      0x01\n      dup2\n      add\n      dup3\n      sstore\n      0x00\n      swap2\n      swap1\n      swap2\n      mstore\n      0x8a35acfbc15ff81a39ae7d344fd709f28e8600b4aa8c65c6b64bfe7fe36bd19b\n      add\n      dup3\n      swap1\n      sstore\n        /* \"contracts/Market.sol\":7455:7460  break */\n      jump(tag_189)\n        /* \"contracts/Market.sol\":5103:7479  if(maxOdds > _odds || _instant) {... */\n    tag_242:\n        /* \"contracts/Market.sol\":4594:7493  {... */\n      pop\n      pop\n        /* \"contracts/Market.sol\":4562:7493  while(_remStake >= 1 * 10 ** 18){... */\n      jump(tag_188)\n    tag_189:\n        /* \"contracts/Market.sol\":4511:7503  {... */\n      pop\n        /* \"contracts/Market.sol\":4485:7567  if(pendingBets.length > 0){... */\n      jump(tag_244)\n    tag_187:\n        /* \"contracts/Market.sol\":7531:7542  pendingBets */\n      0x04\n        /* \"contracts/Market.sol\":7531:7556  pendingBets.push(betHash) */\n      dup1\n      sload\n      0x01\n      dup2\n      add\n      dup3\n      sstore\n      0x00\n      swap2\n      swap1\n      swap2\n      mstore\n      0x8a35acfbc15ff81a39ae7d344fd709f28e8600b4aa8c65c6b64bfe7fe36bd19b\n      add\n      dup2\n      swap1\n      sstore\n        /* \"contracts/Market.sol\":4485:7567  if(pendingBets.length > 0){... */\n    tag_244:\n        /* \"contracts/Market.sol\":7581:7649  BetCreated(msg.sender, address(this), betHash, _stake, _odds, _side) */\n      0x40\n      dup1\n      mload\n        /* \"contracts/Market.sol\":7592:7602  msg.sender */\n      caller\n        /* \"#utility.yul\":9579:9613   */\n      dup2\n      mstore\n        /* \"contracts/Market.sol\":7612:7616  this */\n      address\n        /* \"#utility.yul\":9644:9646   */\n      0x20\n        /* \"#utility.yul\":9629:9647   */\n      dup3\n      add\n        /* \"#utility.yul\":9622:9665   */\n      mstore\n        /* \"#utility.yul\":9681:9699   */\n      swap1\n      dup2\n      add\n        /* \"#utility.yul\":9674:9708   */\n      dup3\n      swap1\n      mstore\n        /* \"#utility.yul\":9739:9741   */\n      0x60\n        /* \"#utility.yul\":9724:9742   */\n      dup2\n      add\n        /* \"#utility.yul\":9717:9751   */\n      dup8\n      swap1\n      mstore\n        /* \"#utility.yul\":9782:9785   */\n      0x80\n        /* \"#utility.yul\":9767:9786   */\n      dup2\n      add\n        /* \"#utility.yul\":9760:9795   */\n      dup7\n      swap1\n      mstore\n        /* \"#utility.yul\":9844:9848   */\n      0xff\n        /* \"#utility.yul\":9832:9849   */\n      dup6\n      and\n        /* \"#utility.yul\":9559:9562   */\n      0xa0\n        /* \"#utility.yul\":9811:9830   */\n      dup3\n      add\n        /* \"#utility.yul\":9804:9850   */\n      mstore\n        /* \"contracts/Market.sol\":7581:7649  BetCreated(msg.sender, address(this), betHash, _stake, _odds, _side) */\n      0xae1f00f8ca5df624acfa3bc85eccdde83b05574d6c39203c4f6e0a7f9a69ac82\n      swap1\n        /* \"#utility.yul\":9528:9531   */\n      0xc0\n        /* \"#utility.yul\":9513:9532   */\n      add\n        /* \"contracts/Market.sol\":7581:7649  BetCreated(msg.sender, address(this), betHash, _stake, _odds, _side) */\n      mload(0x40)\n      dup1\n      swap2\n      sub\n      swap1\n      log1\n        /* \"contracts/Market.sol\":7666:7673  betHash */\n      swap8\n        /* \"contracts/Market.sol\":3852:7680  function addBet(... */\n      swap7\n      pop\n      pop\n      pop\n      pop\n      pop\n      pop\n      pop\n      jump\t// out\n        /* \"contracts/Market.sol\":8044:9438  function _settlePair(bytes32 _pair) private nonReentrant {... */\n    tag_82:\n        /* \"@openzeppelin/contracts/security/ReentrancyGuard.sol\":1744:1745  2 */\n      0x02\n        /* \"@openzeppelin/contracts/security/ReentrancyGuard.sol\":2325:2332  _status */\n      sload(0x00)\n        /* \"@openzeppelin/contracts/security/ReentrancyGuard.sol\":2325:2344  _status != _ENTERED */\n      sub\n        /* \"@openzeppelin/contracts/security/ReentrancyGuard.sol\":2317:2380  require(_status != _ENTERED, \"ReentrancyGuard: reentrant call\") */\n      tag_250\n      jumpi\n      mload(0x40)\n      shl(0xe5, 0x461bcd)\n      dup2\n      mstore\n      0x04\n      add\n      tag_98\n      swap1\n      tag_99\n      jump\t// in\n    tag_250:\n        /* \"@openzeppelin/contracts/security/ReentrancyGuard.sol\":1744:1745  2 */\n      0x02\n        /* \"@openzeppelin/contracts/security/ReentrancyGuard.sol\":2455:2462  _status */\n      0x00\n        /* \"@openzeppelin/contracts/security/ReentrancyGuard.sol\":2455:2473  _status = _ENTERED */\n      swap1\n      dup2\n      sstore\n        /* \"contracts/Market.sol\":8120:8136  pairsInfo[_pair] */\n      dup2\n      dup2\n      mstore\n        /* \"contracts/Market.sol\":8120:8129  pairsInfo */\n      0x09\n        /* \"contracts/Market.sol\":8120:8136  pairsInfo[_pair] */\n      0x20\n      mstore\n      0x40\n      swap1\n      keccak256\n        /* \"contracts/Market.sol\":8120:8144  pairsInfo[_pair].settled */\n      0x04\n      add\n      sload\n      0xff\n      and\n        /* \"contracts/Market.sol\":8119:8144  !pairsInfo[_pair].settled */\n      iszero\n        /* \"contracts/Market.sol\":8111:8164  require(!pairsInfo[_pair].settled, \"already settled\") */\n      tag_253\n      jumpi\n      mload(0x40)\n      shl(0xe5, 0x461bcd)\n      dup2\n      mstore\n        /* \"#utility.yul\":10063:10065   */\n      0x20\n        /* \"contracts/Market.sol\":8111:8164  require(!pairsInfo[_pair].settled, \"already settled\") */\n      0x04\n      dup3\n      add\n        /* \"#utility.yul\":10045:10066   */\n      mstore\n        /* \"#utility.yul\":10102:10104   */\n      0x0f\n        /* \"#utility.yul\":10082:10100   */\n      0x24\n      dup3\n      add\n        /* \"#utility.yul\":10075:10105   */\n      mstore\n      shl(0x8a, 0x185b1c9958591e481cd95d1d1b1959)\n        /* \"#utility.yul\":10121:10139   */\n      0x44\n      dup3\n      add\n        /* \"#utility.yul\":10114:10159   */\n      mstore\n        /* \"#utility.yul\":10176:10194   */\n      0x64\n      add\n        /* \"contracts/Market.sol\":8111:8164  require(!pairsInfo[_pair].settled, \"already settled\") */\n      tag_98\n        /* \"#utility.yul\":9861:10200   */\n      jump\n        /* \"contracts/Market.sol\":8111:8164  require(!pairsInfo[_pair].settled, \"already settled\") */\n    tag_253:\n        /* \"contracts/Market.sol\":8182:8188  status */\n      and(0xff, sload(0x05))\n      0x01\n        /* \"contracts/Market.sol\":8182:8193  status == 1 */\n      eq\n      dup1\n        /* \"contracts/Market.sol\":8182:8208  status == 1 || status == 2 */\n      tag_256\n      jumpi\n      pop\n        /* \"contracts/Market.sol\":8197:8203  status */\n      and(0xff, sload(0x05))\n        /* \"contracts/Market.sol\":8207:8208  2 */\n      0x02\n        /* \"contracts/Market.sol\":8197:8208  status == 2 */\n      eq\n        /* \"contracts/Market.sol\":8182:8208  status == 1 || status == 2 */\n    tag_256:\n        /* \"contracts/Market.sol\":8174:8224  require(status == 1 || status == 2, \"win not set\") */\n      tag_257\n      jumpi\n      mload(0x40)\n      shl(0xe5, 0x461bcd)\n      dup2\n      mstore\n        /* \"#utility.yul\":10407:10409   */\n      0x20\n        /* \"contracts/Market.sol\":8174:8224  require(status == 1 || status == 2, \"win not set\") */\n      0x04\n      dup3\n      add\n        /* \"#utility.yul\":10389:10410   */\n      mstore\n        /* \"#utility.yul\":10446:10448   */\n      0x0b\n        /* \"#utility.yul\":10426:10444   */\n      0x24\n      dup3\n      add\n        /* \"#utility.yul\":10419:10449   */\n      mstore\n      shl(0xaa, 0x1dda5b881b9bdd081cd95d)\n        /* \"#utility.yul\":10465:10483   */\n      0x44\n      dup3\n      add\n        /* \"#utility.yul\":10458:10499   */\n      mstore\n        /* \"#utility.yul\":10516:10534   */\n      0x64\n      add\n        /* \"contracts/Market.sol\":8174:8224  require(status == 1 || status == 2, \"win not set\") */\n      tag_98\n        /* \"#utility.yul\":10205:10540   */\n      jump\n        /* \"contracts/Market.sol\":8174:8224  require(status == 1 || status == 2, \"win not set\") */\n    tag_257:\n        /* \"contracts/Market.sol\":8342:8348  status */\n      sload(0x05)\n        /* \"contracts/Market.sol\":8234:8248  address winner */\n      0x00\n      swap1\n      dup2\n      swap1\n      dup2\n      swap1\n      dup2\n      swap1\n        /* \"contracts/Market.sol\":8342:8348  status */\n      0xff\n      and\n      0x01\n        /* \"contracts/Market.sol\":8342:8353  status == 1 */\n      sub\n        /* \"contracts/Market.sol\":8339:9076  if(status == 1){... */\n      tag_260\n      jumpi\n        /* \"contracts/Market.sol\":8377:8412  betsInfo[pairsInfo[_pair].betHashA] */\n      0x00\n        /* \"contracts/Market.sol\":8386:8402  pairsInfo[_pair] */\n      dup6\n      dup2\n      mstore\n        /* \"contracts/Market.sol\":8386:8395  pairsInfo */\n      0x09\n        /* \"contracts/Market.sol\":8386:8402  pairsInfo[_pair] */\n      0x20\n      swap1\n      dup2\n      mstore\n      0x40\n      dup1\n      dup4\n      keccak256\n        /* \"contracts/Market.sol\":8386:8411  pairsInfo[_pair].betHashA */\n      sload\n        /* \"contracts/Market.sol\":8377:8412  betsInfo[pairsInfo[_pair].betHashA] */\n      dup4\n      mstore\n        /* \"contracts/Market.sol\":8377:8385  betsInfo */\n      0x07\n        /* \"contracts/Market.sol\":8377:8412  betsInfo[pairsInfo[_pair].betHashA] */\n      dup3\n      mstore\n      swap2\n      dup3\n      swap1\n      keccak256\n        /* \"contracts/Market.sol\":8377:8419  betsInfo[pairsInfo[_pair].betHashA].better */\n      sload\n        /* \"contracts/Market.sol\":8507:8516  app.vig() */\n      dup3\n      mload\n      shl(0xe0, 0x55c4a8bf)\n      dup2\n      mstore\n      swap3\n      mload\n      sub(shl(0xa0, 0x01), 0x01)\n        /* \"contracts/Market.sol\":8377:8419  betsInfo[pairsInfo[_pair].betHashA].better */\n      swap2\n      dup3\n      and\n      swap8\n      pop\n        /* \"contracts/Market.sol\":8520:8523  100 */\n      0x64\n      swap4\n        /* \"contracts/Market.sol\":8507:8510  app */\n      immutable(\"0xb7700257a9e4b89511ea592d7ef488a6959d733cec4df010484e5af3e427a407\")\n        /* \"contracts/Market.sol\":8507:8514  app.vig */\n      swap1\n      swap3\n      and\n      swap3\n      0x55c4a8bf\n      swap3\n        /* \"contracts/Market.sol\":8507:8516  app.vig() */\n      0x04\n      dup1\n      dup3\n      add\n      swap4\n      swap2\n      dup3\n      swap1\n      sub\n      add\n      dup2\n        /* \"contracts/Market.sol\":8507:8514  app.vig */\n      dup7\n        /* \"contracts/Market.sol\":8507:8516  app.vig() */\n      gas\n      staticcall\n      iszero\n      dup1\n      iszero\n      tag_262\n      jumpi\n      returndatasize\n      0x00\n      dup1\n      returndatacopy\n      revert(0x00, returndatasize)\n    tag_262:\n      pop\n      pop\n      pop\n      pop\n      mload(0x40)\n      returndatasize\n      not(0x1f)\n      0x1f\n      dup3\n      add\n      and\n      dup3\n      add\n      dup1\n      0x40\n      mstore\n      pop\n      dup2\n      add\n      swap1\n      tag_263\n      swap2\n      swap1\n      tag_105\n      jump\t// in\n    tag_263:\n        /* \"contracts/Market.sol\":8501:8516  100 - app.vig() */\n      tag_264\n      swap1\n        /* \"contracts/Market.sol\":8501:8504  100 */\n      0x64\n        /* \"contracts/Market.sol\":8501:8516  100 - app.vig() */\n      tag_120\n      jump\t// in\n    tag_264:\n        /* \"contracts/Market.sol\":8473:8489  pairsInfo[_pair] */\n      0x00\n      dup8\n      dup2\n      mstore\n        /* \"contracts/Market.sol\":8473:8482  pairsInfo */\n      0x09\n        /* \"contracts/Market.sol\":8473:8489  pairsInfo[_pair] */\n      0x20\n      mstore\n      0x40\n      swap1\n      keccak256\n        /* \"contracts/Market.sol\":8473:8497  pairsInfo[_pair].amountB */\n      0x03\n      add\n      sload\n        /* \"contracts/Market.sol\":8473:8517  pairsInfo[_pair].amountB * (100 - app.vig()) */\n      tag_265\n      swap2\n      swap1\n      tag_211\n      jump\t// in\n    tag_265:\n        /* \"contracts/Market.sol\":8473:8523  pairsInfo[_pair].amountB * (100 - app.vig()) / 100 */\n      tag_266\n      swap2\n      swap1\n      tag_207\n      jump\t// in\n    tag_266:\n        /* \"contracts/Market.sol\":8445:8461  pairsInfo[_pair] */\n      0x00\n      dup7\n      dup2\n      mstore\n        /* \"contracts/Market.sol\":8445:8454  pairsInfo */\n      0x09\n        /* \"contracts/Market.sol\":8445:8461  pairsInfo[_pair] */\n      0x20\n      mstore\n      0x40\n      swap1\n      keccak256\n        /* \"contracts/Market.sol\":8445:8469  pairsInfo[_pair].amountA */\n      0x02\n      add\n      sload\n        /* \"contracts/Market.sol\":8445:8524  pairsInfo[_pair].amountA + (pairsInfo[_pair].amountB * (100 - app.vig()) / 100) */\n      tag_267\n      swap2\n      swap1\n      tag_234\n      jump\t// in\n    tag_267:\n        /* \"contracts/Market.sol\":8433:8524  winAmount = pairsInfo[_pair].amountA + (pairsInfo[_pair].amountB * (100 - app.vig()) / 100) */\n      swap2\n      pop\n        /* \"contracts/Market.sol\":8589:8592  100 */\n      0x64\n        /* \"contracts/Market.sol\":8577:8580  app */\n      immutable(\"0xb7700257a9e4b89511ea592d7ef488a6959d733cec4df010484e5af3e427a407\")\n      sub(shl(0xa0, 0x01), 0x01)\n        /* \"contracts/Market.sol\":8577:8584  app.vig */\n      and\n      0x55c4a8bf\n        /* \"contracts/Market.sol\":8577:8586  app.vig() */\n      mload(0x40)\n      dup2\n      0xffffffff\n      and\n      0xe0\n      shl\n      dup2\n      mstore\n      0x04\n      add\n      0x20\n      mload(0x40)\n      dup1\n      dup4\n      sub\n      dup2\n      dup7\n      gas\n      staticcall\n      iszero\n      dup1\n      iszero\n      tag_269\n      jumpi\n      returndatasize\n      0x00\n      dup1\n      returndatacopy\n      revert(0x00, returndatasize)\n    tag_269:\n      pop\n      pop\n      pop\n      pop\n      mload(0x40)\n      returndatasize\n      not(0x1f)\n      0x1f\n      dup3\n      add\n      and\n      dup3\n      add\n      dup1\n      0x40\n      mstore\n      pop\n      dup2\n      add\n      swap1\n      tag_270\n      swap2\n      swap1\n      tag_105\n      jump\t// in\n    tag_270:\n        /* \"contracts/Market.sol\":8550:8566  pairsInfo[_pair] */\n      0x00\n      dup8\n      dup2\n      mstore\n        /* \"contracts/Market.sol\":8550:8559  pairsInfo */\n      0x09\n        /* \"contracts/Market.sol\":8550:8566  pairsInfo[_pair] */\n      0x20\n      mstore\n      0x40\n      swap1\n      keccak256\n        /* \"contracts/Market.sol\":8550:8574  pairsInfo[_pair].amountB */\n      0x03\n      add\n      sload\n        /* \"contracts/Market.sol\":8550:8586  pairsInfo[_pair].amountB * app.vig() */\n      tag_271\n      swap2\n      swap1\n      tag_211\n      jump\t// in\n    tag_271:\n        /* \"contracts/Market.sol\":8550:8592  pairsInfo[_pair].amountB * app.vig() / 100 */\n      tag_272\n      swap2\n      swap1\n      tag_207\n      jump\t// in\n    tag_272:\n        /* \"contracts/Market.sol\":8618:8653  betsInfo[pairsInfo[_pair].betHashA] */\n      0x00\n        /* \"contracts/Market.sol\":8627:8643  pairsInfo[_pair] */\n      dup7\n      dup2\n      mstore\n        /* \"contracts/Market.sol\":8627:8636  pairsInfo */\n      0x09\n        /* \"contracts/Market.sol\":8627:8643  pairsInfo[_pair] */\n      0x20\n      swap1\n      dup2\n      mstore\n      0x40\n      dup1\n      dup4\n      keccak256\n        /* \"contracts/Market.sol\":8627:8652  pairsInfo[_pair].betHashA */\n      sload\n        /* \"contracts/Market.sol\":8618:8653  betsInfo[pairsInfo[_pair].betHashA] */\n      dup4\n      mstore\n        /* \"contracts/Market.sol\":8618:8626  betsInfo */\n      0x07\n        /* \"contracts/Market.sol\":8618:8653  betsInfo[pairsInfo[_pair].betHashA] */\n      swap1\n      swap2\n      mstore\n      swap1\n      keccak256\n        /* \"contracts/Market.sol\":8618:8663  betsInfo[pairsInfo[_pair].betHashA].affiliate */\n      0x01\n      add\n      sload\n      sub(shl(0xa0, 0x01), 0x01)\n      and\n      swap4\n      pop\n        /* \"contracts/Market.sol\":8538:8592  vigAmount = pairsInfo[_pair].amountB * app.vig() / 100 */\n      swap1\n      pop\n        /* \"contracts/Market.sol\":8339:9076  if(status == 1){... */\n      jump(tag_287)\n    tag_260:\n        /* \"contracts/Market.sol\":8691:8697  status */\n      and(0xff, sload(0x05))\n        /* \"contracts/Market.sol\":8701:8702  2 */\n      0x02\n        /* \"contracts/Market.sol\":8691:8702  status == 2 */\n      sub\n        /* \"contracts/Market.sol\":8688:9076  if(status == 2){... */\n      tag_274\n      jumpi\n        /* \"contracts/Market.sol\":8726:8761  betsInfo[pairsInfo[_pair].betHashB] */\n      0x00\n        /* \"contracts/Market.sol\":8735:8751  pairsInfo[_pair] */\n      dup6\n      dup2\n      mstore\n        /* \"contracts/Market.sol\":8735:8744  pairsInfo */\n      0x09\n        /* \"contracts/Market.sol\":8735:8751  pairsInfo[_pair] */\n      0x20\n      swap1\n      dup2\n      mstore\n      0x40\n      dup1\n      dup4\n      keccak256\n        /* \"contracts/Market.sol\":8735:8760  pairsInfo[_pair].betHashB */\n      0x01\n      add\n      sload\n        /* \"contracts/Market.sol\":8726:8761  betsInfo[pairsInfo[_pair].betHashB] */\n      dup4\n      mstore\n        /* \"contracts/Market.sol\":8726:8734  betsInfo */\n      0x07\n        /* \"contracts/Market.sol\":8726:8761  betsInfo[pairsInfo[_pair].betHashB] */\n      dup3\n      mstore\n      swap2\n      dup3\n      swap1\n      keccak256\n        /* \"contracts/Market.sol\":8726:8768  betsInfo[pairsInfo[_pair].betHashB].better */\n      sload\n        /* \"contracts/Market.sol\":8856:8865  app.vig() */\n      dup3\n      mload\n      shl(0xe0, 0x55c4a8bf)\n      dup2\n      mstore\n      swap3\n      mload\n      sub(shl(0xa0, 0x01), 0x01)\n        /* \"contracts/Market.sol\":8726:8768  betsInfo[pairsInfo[_pair].betHashB].better */\n      swap2\n      dup3\n      and\n      swap8\n      pop\n        /* \"contracts/Market.sol\":8869:8872  100 */\n      0x64\n      swap4\n        /* \"contracts/Market.sol\":8856:8859  app */\n      immutable(\"0xb7700257a9e4b89511ea592d7ef488a6959d733cec4df010484e5af3e427a407\")\n        /* \"contracts/Market.sol\":8856:8863  app.vig */\n      swap1\n      swap3\n      and\n      swap3\n      0x55c4a8bf\n      swap3\n        /* \"contracts/Market.sol\":8856:8865  app.vig() */\n      0x04\n      dup1\n      dup3\n      add\n      swap4\n      swap2\n      dup3\n      swap1\n      sub\n      add\n      dup2\n        /* \"contracts/Market.sol\":8856:8863  app.vig */\n      dup7\n        /* \"contracts/Market.sol\":8856:8865  app.vig() */\n      gas\n      staticcall\n      iszero\n      dup1\n      iszero\n      tag_276\n      jumpi\n      returndatasize\n      0x00\n      dup1\n      returndatacopy\n      revert(0x00, returndatasize)\n    tag_276:\n      pop\n      pop\n      pop\n      pop\n      mload(0x40)\n      returndatasize\n      not(0x1f)\n      0x1f\n      dup3\n      add\n      and\n      dup3\n      add\n      dup1\n      0x40\n      mstore\n      pop\n      dup2\n      add\n      swap1\n      tag_277\n      swap2\n      swap1\n      tag_105\n      jump\t// in\n    tag_277:\n        /* \"contracts/Market.sol\":8850:8865  100 - app.vig() */\n      tag_278\n      swap1\n        /* \"contracts/Market.sol\":8850:8853  100 */\n      0x64\n        /* \"contracts/Market.sol\":8850:8865  100 - app.vig() */\n      tag_120\n      jump\t// in\n    tag_278:\n        /* \"contracts/Market.sol\":8822:8838  pairsInfo[_pair] */\n      0x00\n      dup8\n      dup2\n      mstore\n        /* \"contracts/Market.sol\":8822:8831  pairsInfo */\n      0x09\n        /* \"contracts/Market.sol\":8822:8838  pairsInfo[_pair] */\n      0x20\n      mstore\n      0x40\n      swap1\n      keccak256\n        /* \"contracts/Market.sol\":8822:8846  pairsInfo[_pair].amountA */\n      0x02\n      add\n      sload\n        /* \"contracts/Market.sol\":8822:8866  pairsInfo[_pair].amountA * (100 - app.vig()) */\n      tag_279\n      swap2\n      swap1\n      tag_211\n      jump\t// in\n    tag_279:\n        /* \"contracts/Market.sol\":8822:8872  pairsInfo[_pair].amountA * (100 - app.vig()) / 100 */\n      tag_280\n      swap2\n      swap1\n      tag_207\n      jump\t// in\n    tag_280:\n        /* \"contracts/Market.sol\":8794:8810  pairsInfo[_pair] */\n      0x00\n      dup7\n      dup2\n      mstore\n        /* \"contracts/Market.sol\":8794:8803  pairsInfo */\n      0x09\n        /* \"contracts/Market.sol\":8794:8810  pairsInfo[_pair] */\n      0x20\n      mstore\n      0x40\n      swap1\n      keccak256\n        /* \"contracts/Market.sol\":8794:8818  pairsInfo[_pair].amountB */\n      0x03\n      add\n      sload\n        /* \"contracts/Market.sol\":8794:8873  pairsInfo[_pair].amountB + (pairsInfo[_pair].amountA * (100 - app.vig()) / 100) */\n      tag_281\n      swap2\n      swap1\n      tag_234\n      jump\t// in\n    tag_281:\n        /* \"contracts/Market.sol\":8782:8873  winAmount = pairsInfo[_pair].amountB + (pairsInfo[_pair].amountA * (100 - app.vig()) / 100) */\n      swap2\n      pop\n        /* \"contracts/Market.sol\":8938:8941  100 */\n      0x64\n        /* \"contracts/Market.sol\":8926:8929  app */\n      immutable(\"0xb7700257a9e4b89511ea592d7ef488a6959d733cec4df010484e5af3e427a407\")\n      sub(shl(0xa0, 0x01), 0x01)\n        /* \"contracts/Market.sol\":8926:8933  app.vig */\n      and\n      0x55c4a8bf\n        /* \"contracts/Market.sol\":8926:8935  app.vig() */\n      mload(0x40)\n      dup2\n      0xffffffff\n      and\n      0xe0\n      shl\n      dup2\n      mstore\n      0x04\n      add\n      0x20\n      mload(0x40)\n      dup1\n      dup4\n      sub\n      dup2\n      dup7\n      gas\n      staticcall\n      iszero\n      dup1\n      iszero\n      tag_283\n      jumpi\n      returndatasize\n      0x00\n      dup1\n      returndatacopy\n      revert(0x00, returndatasize)\n    tag_283:\n      pop\n      pop\n      pop\n      pop\n      mload(0x40)\n      returndatasize\n      not(0x1f)\n      0x1f\n      dup3\n      add\n      and\n      dup3\n      add\n      dup1\n      0x40\n      mstore\n      pop\n      dup2\n      add\n      swap1\n      tag_284\n      swap2\n      swap1\n      tag_105\n      jump\t// in\n    tag_284:\n        /* \"contracts/Market.sol\":8899:8915  pairsInfo[_pair] */\n      0x00\n      dup8\n      dup2\n      mstore\n        /* \"contracts/Market.sol\":8899:8908  pairsInfo */\n      0x09\n        /* \"contracts/Market.sol\":8899:8915  pairsInfo[_pair] */\n      0x20\n      mstore\n      0x40\n      swap1\n      keccak256\n        /* \"contracts/Market.sol\":8899:8923  pairsInfo[_pair].amountA */\n      0x02\n      add\n      sload\n        /* \"contracts/Market.sol\":8899:8935  pairsInfo[_pair].amountA * app.vig() */\n      tag_285\n      swap2\n      swap1\n      tag_211\n      jump\t// in\n    tag_285:\n        /* \"contracts/Market.sol\":8899:8941  pairsInfo[_pair].amountA * app.vig() / 100 */\n      tag_286\n      swap2\n      swap1\n      tag_207\n      jump\t// in\n    tag_286:\n        /* \"contracts/Market.sol\":8967:9002  betsInfo[pairsInfo[_pair].betHashB] */\n      0x00\n        /* \"contracts/Market.sol\":8976:8992  pairsInfo[_pair] */\n      dup7\n      dup2\n      mstore\n        /* \"contracts/Market.sol\":8976:8985  pairsInfo */\n      0x09\n        /* \"contracts/Market.sol\":8976:8992  pairsInfo[_pair] */\n      0x20\n      swap1\n      dup2\n      mstore\n      0x40\n      dup1\n      dup4\n      keccak256\n        /* \"contracts/Market.sol\":8976:9001  pairsInfo[_pair].betHashB */\n      0x01\n      swap1\n      dup2\n      add\n      sload\n        /* \"contracts/Market.sol\":8967:9002  betsInfo[pairsInfo[_pair].betHashB] */\n      dup5\n      mstore\n        /* \"contracts/Market.sol\":8967:8975  betsInfo */\n      0x07\n        /* \"contracts/Market.sol\":8967:9002  betsInfo[pairsInfo[_pair].betHashB] */\n      swap1\n      swap3\n      mstore\n      swap1\n      swap2\n      keccak256\n        /* \"contracts/Market.sol\":8967:9012  betsInfo[pairsInfo[_pair].betHashB].affiliate */\n      add\n      sload\n      sub(shl(0xa0, 0x01), 0x01)\n      and\n      swap4\n      pop\n        /* \"contracts/Market.sol\":8887:8941  vigAmount = pairsInfo[_pair].amountA * app.vig() / 100 */\n      swap1\n      pop\n        /* \"contracts/Market.sol\":8688:9076  if(status == 2){... */\n      jump(tag_287)\n    tag_274:\n        /* \"contracts/Market.sol\":9050:9065  revert(\"x win\") */\n      mload(0x40)\n      shl(0xe5, 0x461bcd)\n      dup2\n      mstore\n        /* \"#utility.yul\":10747:10749   */\n      0x20\n        /* \"contracts/Market.sol\":9050:9065  revert(\"x win\") */\n      0x04\n      dup3\n      add\n        /* \"#utility.yul\":10729:10750   */\n      mstore\n        /* \"#utility.yul\":10786:10787   */\n      0x05\n        /* \"#utility.yul\":10766:10784   */\n      0x24\n      dup3\n      add\n        /* \"#utility.yul\":10759:10788   */\n      mstore\n      shl(0xd9, 0x3c103bb4b7)\n        /* \"#utility.yul\":10804:10822   */\n      0x44\n      dup3\n      add\n        /* \"#utility.yul\":10797:10832   */\n      mstore\n        /* \"#utility.yul\":10849:10867   */\n      0x64\n      add\n        /* \"contracts/Market.sol\":9050:9065  revert(\"x win\") */\n      tag_98\n        /* \"#utility.yul\":10545:10873   */\n      jump\n        /* \"contracts/Market.sol\":8688:9076  if(status == 2){... */\n    tag_287:\n      sub(shl(0xa0, 0x01), 0x01)\n        /* \"contracts/Market.sol\":9088:9113  affiliate == address(0x0) */\n      dup4\n      and\n        /* \"contracts/Market.sol\":9085:9164  if(affiliate == address(0x0)){... */\n      tag_290\n      jumpi\n        /* \"contracts/Market.sol\":9140:9143  app */\n      immutable(\"0xb7700257a9e4b89511ea592d7ef488a6959d733cec4df010484e5af3e427a407\")\n      sub(shl(0xa0, 0x01), 0x01)\n        /* \"contracts/Market.sol\":9140:9151  app.ecoAddr */\n      and\n      0x09953b2f\n        /* \"contracts/Market.sol\":9140:9153  app.ecoAddr() */\n      mload(0x40)\n      dup2\n      0xffffffff\n      and\n      0xe0\n      shl\n      dup2\n      mstore\n      0x04\n      add\n      0x20\n      mload(0x40)\n      dup1\n      dup4\n      sub\n      dup2\n      dup7\n      gas\n      staticcall\n      iszero\n      dup1\n      iszero\n      tag_292\n      jumpi\n      returndatasize\n      0x00\n      dup1\n      returndatacopy\n      revert(0x00, returndatasize)\n    tag_292:\n      pop\n      pop\n      pop\n      pop\n      mload(0x40)\n      returndatasize\n      not(0x1f)\n      0x1f\n      dup3\n      add\n      and\n      dup3\n      add\n      dup1\n      0x40\n      mstore\n      pop\n      dup2\n      add\n      swap1\n      tag_293\n      swap2\n      swap1\n      tag_294\n      jump\t// in\n    tag_293:\n        /* \"contracts/Market.sol\":9128:9153  affiliate = app.ecoAddr() */\n      swap3\n      pop\n        /* \"contracts/Market.sol\":9085:9164  if(affiliate == address(0x0)){... */\n    tag_290:\n      sub(shl(0xa0, 0x01), 0x01)\n        /* \"contracts/Market.sol\":9173:9184  bal[winner] */\n      dup5\n      and\n      0x00\n      swap1\n      dup2\n      mstore\n        /* \"contracts/Market.sol\":9173:9176  bal */\n      0x06\n        /* \"contracts/Market.sol\":9173:9184  bal[winner] */\n      0x20\n      mstore\n      0x40\n      dup2\n      keccak256\n        /* \"contracts/Market.sol\":9173:9197  bal[winner] += winAmount */\n      dup1\n      sload\n        /* \"contracts/Market.sol\":9188:9197  winAmount */\n      dup5\n      swap3\n        /* \"contracts/Market.sol\":9173:9184  bal[winner] */\n      swap1\n        /* \"contracts/Market.sol\":9173:9197  bal[winner] += winAmount */\n      tag_295\n      swap1\n        /* \"contracts/Market.sol\":9188:9197  winAmount */\n      dup5\n      swap1\n        /* \"contracts/Market.sol\":9173:9197  bal[winner] += winAmount */\n      tag_234\n      jump\t// in\n    tag_295:\n      swap3\n      pop\n      pop\n      dup2\n      swap1\n      sstore\n      pop\n        /* \"contracts/Market.sol\":9255:9258  100 */\n      0x64\n        /* \"contracts/Market.sol\":9242:9245  app */\n      immutable(\"0xb7700257a9e4b89511ea592d7ef488a6959d733cec4df010484e5af3e427a407\")\n      sub(shl(0xa0, 0x01), 0x01)\n        /* \"contracts/Market.sol\":9242:9250  app.hVig */\n      and\n      0x6a0ccd9d\n        /* \"contracts/Market.sol\":9242:9252  app.hVig() */\n      mload(0x40)\n      dup2\n      0xffffffff\n      and\n      0xe0\n      shl\n      dup2\n      mstore\n      0x04\n      add\n      0x20\n      mload(0x40)\n      dup1\n      dup4\n      sub\n      dup2\n      dup7\n      gas\n      staticcall\n      iszero\n      dup1\n      iszero\n      tag_297\n      jumpi\n      returndatasize\n      0x00\n      dup1\n      returndatacopy\n      revert(0x00, returndatasize)\n    tag_297:\n      pop\n      pop\n      pop\n      pop\n      mload(0x40)\n      returndatasize\n      not(0x1f)\n      0x1f\n      dup3\n      add\n      and\n      dup3\n      add\n      dup1\n      0x40\n      mstore\n      pop\n      dup2\n      add\n      swap1\n      tag_298\n      swap2\n      swap1\n      tag_105\n      jump\t// in\n    tag_298:\n        /* \"contracts/Market.sol\":9230:9252  vigAmount * app.hVig() */\n      tag_299\n      swap1\n        /* \"contracts/Market.sol\":9230:9239  vigAmount */\n      dup4\n        /* \"contracts/Market.sol\":9230:9252  vigAmount * app.hVig() */\n      tag_211\n      jump\t// in\n    tag_299:\n        /* \"contracts/Market.sol\":9230:9258  vigAmount * app.hVig() / 100 */\n      tag_300\n      swap2\n      swap1\n      tag_207\n      jump\t// in\n    tag_300:\n        /* \"contracts/Market.sol\":9207:9210  bal */\n      0x06\n        /* \"contracts/Market.sol\":9207:9226  bal[app.holdAddr()] */\n      0x00\n        /* \"contracts/Market.sol\":9211:9214  app */\n      immutable(\"0xb7700257a9e4b89511ea592d7ef488a6959d733cec4df010484e5af3e427a407\")\n      sub(shl(0xa0, 0x01), 0x01)\n        /* \"contracts/Market.sol\":9211:9223  app.holdAddr */\n      and\n      0xb7640a54\n        /* \"contracts/Market.sol\":9211:9225  app.holdAddr() */\n      mload(0x40)\n      dup2\n      0xffffffff\n      and\n      0xe0\n      shl\n      dup2\n      mstore\n      0x04\n      add\n      0x20\n      mload(0x40)\n      dup1\n      dup4\n      sub\n      dup2\n      dup7\n      gas\n      staticcall\n      iszero\n      dup1\n      iszero\n      tag_302\n      jumpi\n      returndatasize\n      0x00\n      dup1\n      returndatacopy\n      revert(0x00, returndatasize)\n    tag_302:\n      pop\n      pop\n      pop\n      pop\n      mload(0x40)\n      returndatasize\n      not(0x1f)\n      0x1f\n      dup3\n      add\n      and\n      dup3\n      add\n      dup1\n      0x40\n      mstore\n      pop\n      dup2\n      add\n      swap1\n      tag_303\n      swap2\n      swap1\n      tag_294\n      jump\t// in\n    tag_303:\n      sub(shl(0xa0, 0x01), 0x01)\n        /* \"contracts/Market.sol\":9207:9226  bal[app.holdAddr()] */\n      and\n      sub(shl(0xa0, 0x01), 0x01)\n      and\n      dup2\n      mstore\n      0x20\n      add\n      swap1\n      dup2\n      mstore\n      0x20\n      add\n      0x00\n      keccak256\n      0x00\n        /* \"contracts/Market.sol\":9207:9258  bal[app.holdAddr()] += vigAmount * app.hVig() / 100 */\n      dup3\n      dup3\n      sload\n      tag_304\n      swap2\n      swap1\n      tag_234\n      jump\t// in\n    tag_304:\n      swap3\n      pop\n      pop\n      dup2\n      swap1\n      sstore\n      pop\n        /* \"contracts/Market.sol\":9315:9318  100 */\n      0x64\n        /* \"contracts/Market.sol\":9302:9305  app */\n      immutable(\"0xb7700257a9e4b89511ea592d7ef488a6959d733cec4df010484e5af3e427a407\")\n      sub(shl(0xa0, 0x01), 0x01)\n        /* \"contracts/Market.sol\":9302:9310  app.eVig */\n      and\n      0x28576d45\n        /* \"contracts/Market.sol\":9302:9312  app.eVig() */\n      mload(0x40)\n      dup2\n      0xffffffff\n      and\n      0xe0\n      shl\n      dup2\n      mstore\n      0x04\n      add\n      0x20\n      mload(0x40)\n      dup1\n      dup4\n      sub\n      dup2\n      dup7\n      gas\n      staticcall\n      iszero\n      dup1\n      iszero\n      tag_306\n      jumpi\n      returndatasize\n      0x00\n      dup1\n      returndatacopy\n      revert(0x00, returndatasize)\n    tag_306:\n      pop\n      pop\n      pop\n      pop\n      mload(0x40)\n      returndatasize\n      not(0x1f)\n      0x1f\n      dup3\n      add\n      and\n      dup3\n      add\n      dup1\n      0x40\n      mstore\n      pop\n      dup2\n      add\n      swap1\n      tag_307\n      swap2\n      swap1\n      tag_105\n      jump\t// in\n    tag_307:\n        /* \"contracts/Market.sol\":9290:9312  vigAmount * app.eVig() */\n      tag_308\n      swap1\n        /* \"contracts/Market.sol\":9290:9299  vigAmount */\n      dup4\n        /* \"contracts/Market.sol\":9290:9312  vigAmount * app.eVig() */\n      tag_211\n      jump\t// in\n    tag_308:\n        /* \"contracts/Market.sol\":9290:9318  vigAmount * app.eVig() / 100 */\n      tag_309\n      swap2\n      swap1\n      tag_207\n      jump\t// in\n    tag_309:\n        /* \"contracts/Market.sol\":9268:9271  bal */\n      0x06\n        /* \"contracts/Market.sol\":9268:9286  bal[app.ecoAddr()] */\n      0x00\n        /* \"contracts/Market.sol\":9272:9275  app */\n      immutable(\"0xb7700257a9e4b89511ea592d7ef488a6959d733cec4df010484e5af3e427a407\")\n      sub(shl(0xa0, 0x01), 0x01)\n        /* \"contracts/Market.sol\":9272:9283  app.ecoAddr */\n      and\n      0x09953b2f\n        /* \"contracts/Market.sol\":9272:9285  app.ecoAddr() */\n      mload(0x40)\n      dup2\n      0xffffffff\n      and\n      0xe0\n      shl\n      dup2\n      mstore\n      0x04\n      add\n      0x20\n      mload(0x40)\n      dup1\n      dup4\n      sub\n      dup2\n      dup7\n      gas\n      staticcall\n      iszero\n      dup1\n      iszero\n      tag_311\n      jumpi\n      returndatasize\n      0x00\n      dup1\n      returndatacopy\n      revert(0x00, returndatasize)\n    tag_311:\n      pop\n      pop\n      pop\n      pop\n      mload(0x40)\n      returndatasize\n      not(0x1f)\n      0x1f\n      dup3\n      add\n      and\n      dup3\n      add\n      dup1\n      0x40\n      mstore\n      pop\n      dup2\n      add\n      swap1\n      tag_312\n      swap2\n      swap1\n      tag_294\n      jump\t// in\n    tag_312:\n      sub(shl(0xa0, 0x01), 0x01)\n        /* \"contracts/Market.sol\":9268:9286  bal[app.ecoAddr()] */\n      and\n      sub(shl(0xa0, 0x01), 0x01)\n      and\n      dup2\n      mstore\n      0x20\n      add\n      swap1\n      dup2\n      mstore\n      0x20\n      add\n      0x00\n      keccak256\n      0x00\n        /* \"contracts/Market.sol\":9268:9318  bal[app.ecoAddr()] += vigAmount * app.eVig() / 100 */\n      dup3\n      dup3\n      sload\n      tag_313\n      swap2\n      swap1\n      tag_234\n      jump\t// in\n    tag_313:\n      swap3\n      pop\n      pop\n      dup2\n      swap1\n      sstore\n      pop\n        /* \"contracts/Market.sol\":9371:9374  100 */\n      0x64\n        /* \"contracts/Market.sol\":9358:9361  app */\n      immutable(\"0xb7700257a9e4b89511ea592d7ef488a6959d733cec4df010484e5af3e427a407\")\n      sub(shl(0xa0, 0x01), 0x01)\n        /* \"contracts/Market.sol\":9358:9366  app.aVig */\n      and\n      0x54cd1a5c\n        /* \"contracts/Market.sol\":9358:9368  app.aVig() */\n      mload(0x40)\n      dup2\n      0xffffffff\n      and\n      0xe0\n      shl\n      dup2\n      mstore\n      0x04\n      add\n      0x20\n      mload(0x40)\n      dup1\n      dup4\n      sub\n      dup2\n      dup7\n      gas\n      staticcall\n      iszero\n      dup1\n      iszero\n      tag_315\n      jumpi\n      returndatasize\n      0x00\n      dup1\n      returndatacopy\n      revert(0x00, returndatasize)\n    tag_315:\n      pop\n      pop\n      pop\n      pop\n      mload(0x40)\n      returndatasize\n      not(0x1f)\n      0x1f\n      dup3\n      add\n      and\n      dup3\n      add\n      dup1\n      0x40\n      mstore\n      pop\n      dup2\n      add\n      swap1\n      tag_316\n      swap2\n      swap1\n      tag_105\n      jump\t// in\n    tag_316:\n        /* \"contracts/Market.sol\":9346:9368  vigAmount * app.aVig() */\n      tag_317\n      swap1\n        /* \"contracts/Market.sol\":9346:9355  vigAmount */\n      dup4\n        /* \"contracts/Market.sol\":9346:9368  vigAmount * app.aVig() */\n      tag_211\n      jump\t// in\n    tag_317:\n        /* \"contracts/Market.sol\":9346:9374  vigAmount * app.aVig() / 100 */\n      tag_318\n      swap2\n      swap1\n      tag_207\n      jump\t// in\n    tag_318:\n      sub(shl(0xa0, 0x01), 0x01)\n        /* \"contracts/Market.sol\":9328:9342  bal[affiliate] */\n      dup5\n      and\n      0x00\n      swap1\n      dup2\n      mstore\n        /* \"contracts/Market.sol\":9328:9331  bal */\n      0x06\n        /* \"contracts/Market.sol\":9328:9342  bal[affiliate] */\n      0x20\n      mstore\n      0x40\n      dup2\n      keccak256\n        /* \"contracts/Market.sol\":9328:9374  bal[affiliate] += vigAmount * app.aVig() / 100 */\n      dup1\n      sload\n        /* \"contracts/Market.sol\":9328:9342  bal[affiliate] */\n      swap1\n      swap2\n      swap1\n        /* \"contracts/Market.sol\":9328:9374  bal[affiliate] += vigAmount * app.aVig() / 100 */\n      tag_319\n      swap1\n      dup5\n      swap1\n      tag_234\n      jump\t// in\n    tag_319:\n      swap1\n      swap2\n      sstore\n      pop\n      pop\n      pop\n        /* \"contracts/Market.sol\":9384:9400  pairsInfo[_pair] */\n      0x00\n      dup5\n      dup2\n      mstore\n        /* \"contracts/Market.sol\":9384:9393  pairsInfo */\n      0x09\n        /* \"contracts/Market.sol\":9384:9400  pairsInfo[_pair] */\n      0x20\n      mstore\n      0x40\n      swap1\n      keccak256\n        /* \"contracts/Market.sol\":9384:9408  pairsInfo[_pair].settled */\n      0x04\n      add\n        /* \"contracts/Market.sol\":9384:9415  pairsInfo[_pair].settled = true */\n      dup1\n      sload\n      not(0xff)\n      and\n        /* \"contracts/Market.sol\":9411:9415  true */\n      0x01\n        /* \"contracts/Market.sol\":9384:9415  pairsInfo[_pair].settled = true */\n      or\n      swap1\n      sstore\n      pop\n      pop\n      pop\n      pop\n        /* \"@openzeppelin/contracts/security/ReentrancyGuard.sol\":1701:1702  1 */\n      0x01\n        /* \"@openzeppelin/contracts/security/ReentrancyGuard.sol\":2628:2635  _status */\n      0x00\n        /* \"@openzeppelin/contracts/security/ReentrancyGuard.sol\":2628:2650  _status = _NOT_ENTERED */\n      sstore\n        /* \"contracts/Market.sol\":8044:9438  function _settlePair(bytes32 _pair) private nonReentrant {... */\n      jump\t// out\n        /* \"contracts/Market.sol\":7686:8034  function _cancelPair(bytes32 _pair) private {... */\n    tag_143:\n        /* \"contracts/Market.sol\":7740:7755  address betterA */\n      0x00\n        /* \"contracts/Market.sol\":7767:7783  pairsInfo[_pair] */\n      dup2\n      dup2\n      mstore\n        /* \"contracts/Market.sol\":7767:7776  pairsInfo */\n      0x09\n        /* \"contracts/Market.sol\":7767:7783  pairsInfo[_pair] */\n      0x20\n      swap1\n      dup2\n      mstore\n      0x40\n      dup1\n      dup4\n      keccak256\n        /* \"contracts/Market.sol\":7767:7792  pairsInfo[_pair].betHashA */\n      dup1\n      sload\n        /* \"contracts/Market.sol\":7758:7793  betsInfo[pairsInfo[_pair].betHashA] */\n      dup5\n      mstore\n        /* \"contracts/Market.sol\":7758:7766  betsInfo */\n      0x07\n        /* \"contracts/Market.sol\":7758:7793  betsInfo[pairsInfo[_pair].betHashA] */\n      dup4\n      mstore\n      dup2\n      dup5\n      keccak256\n        /* \"contracts/Market.sol\":7758:7800  betsInfo[pairsInfo[_pair].betHashA].better */\n      sload\n      0x01\n        /* \"contracts/Market.sol\":7837:7862  pairsInfo[_pair].betHashB */\n      dup3\n      add\n      sload\n        /* \"contracts/Market.sol\":7828:7863  betsInfo[pairsInfo[_pair].betHashB] */\n      dup6\n      mstore\n      dup3\n      dup6\n      keccak256\n        /* \"contracts/Market.sol\":7828:7870  betsInfo[pairsInfo[_pair].betHashB].better */\n      sload\n        /* \"contracts/Market.sol\":7896:7920  pairsInfo[_pair].amountA */\n      0x02\n      swap1\n      swap3\n      add\n      sload\n      sub(shl(0xa0, 0x01), 0x01)\n        /* \"contracts/Market.sol\":7758:7800  betsInfo[pairsInfo[_pair].betHashA].better */\n      swap2\n      dup3\n      and\n        /* \"contracts/Market.sol\":7880:7892  bal[betterA] */\n      dup1\n      dup8\n      mstore\n        /* \"contracts/Market.sol\":7880:7883  bal */\n      0x06\n        /* \"contracts/Market.sol\":7880:7892  bal[betterA] */\n      swap1\n      swap6\n      mstore\n      swap3\n      dup6\n      keccak256\n        /* \"contracts/Market.sol\":7880:7920  bal[betterA] += pairsInfo[_pair].amountA */\n      dup1\n      sload\n        /* \"contracts/Market.sol\":7758:7800  betsInfo[pairsInfo[_pair].betHashA].better */\n      swap5\n      swap6\n        /* \"contracts/Market.sol\":7828:7870  betsInfo[pairsInfo[_pair].betHashB].better */\n      swap2\n      swap1\n      swap3\n      and\n      swap4\n        /* \"contracts/Market.sol\":7880:7920  bal[betterA] += pairsInfo[_pair].amountA */\n      tag_321\n      swap1\n        /* \"contracts/Market.sol\":7896:7920  pairsInfo[_pair].amountA */\n      dup5\n      swap1\n        /* \"contracts/Market.sol\":7880:7920  bal[betterA] += pairsInfo[_pair].amountA */\n      tag_234\n      jump\t// in\n    tag_321:\n      swap1\n      swap2\n      sstore\n      pop\n      pop\n        /* \"contracts/Market.sol\":7946:7962  pairsInfo[_pair] */\n      0x00\n      dup4\n      dup2\n      mstore\n        /* \"contracts/Market.sol\":7946:7955  pairsInfo */\n      0x09\n        /* \"contracts/Market.sol\":7946:7962  pairsInfo[_pair] */\n      0x20\n      swap1\n      dup2\n      mstore\n      0x40\n      dup1\n      dup4\n      keccak256\n        /* \"contracts/Market.sol\":7946:7970  pairsInfo[_pair].amountB */\n      0x03\n      add\n      sload\n      sub(shl(0xa0, 0x01), 0x01)\n        /* \"contracts/Market.sol\":7930:7942  bal[betterB] */\n      dup6\n      and\n      dup5\n      mstore\n        /* \"contracts/Market.sol\":7930:7933  bal */\n      0x06\n        /* \"contracts/Market.sol\":7930:7942  bal[betterB] */\n      swap1\n      swap3\n      mstore\n      dup3\n      keccak256\n        /* \"contracts/Market.sol\":7930:7970  bal[betterB] += pairsInfo[_pair].amountB */\n      dup1\n      sload\n        /* \"contracts/Market.sol\":7946:7970  pairsInfo[_pair].amountB */\n      swap2\n      swap3\n        /* \"contracts/Market.sol\":7930:7942  bal[betterB] */\n      swap1\n      swap2\n        /* \"contracts/Market.sol\":7930:7970  bal[betterB] += pairsInfo[_pair].amountB */\n      tag_322\n      swap1\n        /* \"contracts/Market.sol\":7946:7970  pairsInfo[_pair].amountB */\n      dup5\n      swap1\n        /* \"contracts/Market.sol\":7930:7970  bal[betterB] += pairsInfo[_pair].amountB */\n      tag_234\n      jump\t// in\n    tag_322:\n      swap1\n      swap2\n      sstore\n      pop\n      pop\n      pop\n        /* \"contracts/Market.sol\":7980:7996  pairsInfo[_pair] */\n      0x00\n      swap2\n      dup3\n      mstore\n      pop\n        /* \"contracts/Market.sol\":7980:7989  pairsInfo */\n      0x09\n        /* \"contracts/Market.sol\":7980:7996  pairsInfo[_pair] */\n      0x20\n      mstore\n      0x40\n      swap1\n      keccak256\n        /* \"contracts/Market.sol\":7980:8004  pairsInfo[_pair].settled */\n      0x04\n      add\n        /* \"contracts/Market.sol\":7980:8011  pairsInfo[_pair].settled = true */\n      dup1\n      sload\n      not(0xff)\n      and\n        /* \"contracts/Market.sol\":8007:8011  true */\n      0x01\n        /* \"contracts/Market.sol\":7980:8011  pairsInfo[_pair].settled = true */\n      or\n      swap1\n      sstore\n        /* \"contracts/Market.sol\":7686:8034  function _cancelPair(bytes32 _pair) private {... */\n      jump\t// out\n        /* \"contracts/Market.sol\":9444:10202  function _createBet(... */\n    tag_186:\n        /* \"contracts/Market.sol\":9641:9648  bytes32 */\n      0x00\n        /* \"contracts/Market.sol\":9664:9679  bytes32 betHash */\n      dup1\n        /* \"contracts/Market.sol\":9689:10011  while(true){... */\n    tag_324:\n        /* \"contracts/Market.sol\":9824:9828  bets */\n      0x03\n        /* \"contracts/Market.sol\":9824:9835  bets.length */\n      sload\n        /* \"contracts/Market.sol\":9734:9916  abi.encodePacked(... */\n      mload(0x40)\n      not(0xffffffffffffffffffffffff)\n        /* \"#utility.yul\":11445:11447   */\n      0x60\n        /* \"#utility.yul\":11441:11456   */\n      dup12\n      dup2\n      shl\n        /* \"#utility.yul\":11437:11461   */\n      dup3\n      and\n        /* \"contracts/Market.sol\":9734:9916  abi.encodePacked(... */\n      0x20\n      dup5\n      add\n        /* \"#utility.yul\":11425:11462   */\n      mstore\n        /* \"contracts/Market.sol\":9801:9805  this */\n      address\n        /* \"#utility.yul\":11496:11511   */\n      swap1\n      shl\n        /* \"#utility.yul\":11492:11516   */\n      and\n        /* \"#utility.yul\":11478:11490   */\n      0x34\n      dup3\n      add\n        /* \"#utility.yul\":11471:11517   */\n      mstore\n        /* \"#utility.yul\":11533:11545   */\n      0x48\n      dup2\n      add\n        /* \"#utility.yul\":11526:11554   */\n      swap2\n      swap1\n      swap2\n      mstore\n        /* \"contracts/Market.sol\":9853:9868  block.timestamp */\n      timestamp\n        /* \"#utility.yul\":11570:11582   */\n      0x68\n      dup3\n      add\n        /* \"#utility.yul\":11563:11591   */\n      mstore\n        /* \"contracts/Market.sol\":9886:9902  block.difficulty */\n      difficulty\n        /* \"#utility.yul\":11607:11620   */\n      0x88\n      dup3\n      add\n        /* \"#utility.yul\":11600:11629   */\n      mstore\n        /* \"#utility.yul\":11645:11658   */\n      0xa8\n      add\n        /* \"contracts/Market.sol\":9734:9916  abi.encodePacked(... */\n      0x40\n      dup1\n      mload\n      not(0x1f)\n      dup2\n      dup5\n      sub\n      add\n      dup2\n      mstore\n      swap2\n      dup2\n      mstore\n        /* \"contracts/Market.sol\":9724:9917  keccak256(abi.encodePacked(... */\n      dup2\n      mload\n        /* \"contracts/Market.sol\":9734:9916  abi.encodePacked(... */\n      0x20\n        /* \"contracts/Market.sol\":9724:9917  keccak256(abi.encodePacked(... */\n      swap3\n      dup4\n      add\n      keccak256\n        /* \"contracts/Market.sol\":9934:9951  betsInfo[betHash] */\n      0x00\n      dup2\n      dup2\n      mstore\n        /* \"contracts/Market.sol\":9934:9942  betsInfo */\n      0x07\n        /* \"contracts/Market.sol\":9934:9951  betsInfo[betHash] */\n      swap1\n      swap4\n      mstore\n      swap2\n      keccak256\n        /* \"contracts/Market.sol\":9934:9957  betsInfo[betHash].stake */\n      0x02\n      add\n      sload\n        /* \"contracts/Market.sol\":9724:9917  keccak256(abi.encodePacked(... */\n      swap1\n      swap2\n      pop\n        /* \"contracts/Market.sol\":9689:10011  while(true){... */\n      tag_324\n        /* \"contracts/Market.sol\":9931:10001  if(betsInfo[betHash].stake == 0){... */\n      jumpi\n        /* \"contracts/Market.sol\":10040:10102  MarketBet(_better, _affiliate, _stake, _matched, _odds, _side) */\n      0x40\n      dup1\n      mload\n      0xc0\n      dup2\n      add\n      dup3\n      mstore\n      sub(shl(0xa0, 0x01), 0x01)\n      dup1\n      dup12\n      and\n      dup1\n      dup4\n      mstore\n      dup11\n      dup3\n      and\n      0x20\n      dup1\n      dup6\n      add\n      swap2\n      dup3\n      mstore\n      dup5\n      dup7\n      add\n      dup13\n      dup2\n      mstore\n      0x60\n      dup7\n      add\n      dup13\n      dup2\n      mstore\n      0x80\n      dup8\n      add\n      dup13\n      dup2\n      mstore\n      0xff\n      dup1\n      dup14\n      and\n      0xa0\n      dup11\n      add\n      swap1\n      dup2\n      mstore\n      0x00\n        /* \"contracts/Market.sol\":10020:10037  betsInfo[betHash] */\n      dup13\n      dup2\n      mstore\n        /* \"contracts/Market.sol\":10020:10028  betsInfo */\n      0x07\n        /* \"contracts/Market.sol\":10020:10037  betsInfo[betHash] */\n      dup8\n      mstore\n      dup12\n      dup2\n      keccak256\n        /* \"contracts/Market.sol\":10020:10102  betsInfo[betHash] = MarketBet(_better, _affiliate, _stake, _matched, _odds, _side) */\n      swap11\n      mload\n      dup12\n      sload\n      swap1\n      dup12\n      and\n      not(sub(shl(0xa0, 0x01), 0x01))\n      swap2\n      dup3\n      and\n      or\n      dup13\n      sstore\n      swap8\n      mload\n      0x01\n      dup1\n      dup14\n      add\n      dup1\n      sload\n      swap3\n      swap1\n      swap13\n      and\n      swap2\n      swap1\n      swap10\n      and\n      or\n      swap1\n      swap10\n      sstore\n      swap4\n      mload\n      0x02\n      dup11\n      add\n      sstore\n      swap2\n      mload\n      0x03\n      dup1\n      dup11\n      add\n      swap2\n      swap1\n      swap2\n      sstore\n      swap1\n      mload\n      0x04\n      dup10\n      add\n      sstore\n      swap2\n      mload\n      0x05\n      swap1\n      swap8\n      add\n      dup1\n      sload\n      swap8\n      swap1\n      swap2\n      and\n      not(0xff)\n      swap1\n      swap8\n      and\n      swap7\n      swap1\n      swap7\n      or\n      swap1\n      swap6\n      sstore\n        /* \"contracts/Market.sol\":10112:10130  bets.push(betHash) */\n      dup5\n      sload\n      dup1\n      dup4\n      add\n      swap1\n      swap6\n      sstore\n      0xc2575a0e9e593c00f959f8c92f12db2869c3395a3b0502d05e2516446f71f85b\n      swap1\n      swap5\n      add\n      dup7\n      swap1\n      sstore\n        /* \"contracts/Market.sol\":10140:10157  userBets[_better] */\n      swap1\n      dup3\n      mstore\n        /* \"contracts/Market.sol\":10140:10148  userBets */\n      0x08\n        /* \"contracts/Market.sol\":10140:10157  userBets[_better] */\n      dup4\n      mstore\n      swap3\n      dup2\n      keccak256\n        /* \"contracts/Market.sol\":10140:10171  userBets[_better].push(betHash) */\n      dup1\n      sload\n      swap4\n      dup5\n      add\n      dup2\n      sstore\n      dup2\n      mstore\n      keccak256\n      add\n      dup2\n      swap1\n      sstore\n        /* \"contracts/Market.sol\":10029:10036  betHash */\n      swap1\n      pop\n        /* \"contracts/Market.sol\":9444:10202  function _createBet(... */\n      swap7\n      swap6\n      pop\n      pop\n      pop\n      pop\n      pop\n      pop\n      jump\t// out\n        /* \"contracts/Market.sol\":10208:10893  function _createPair(... */\n    tag_214:\n        /* \"contracts/Market.sol\":10366:10373  bytes32 */\n      0x00\n        /* \"contracts/Market.sol\":10389:10405  bytes32 pairHash */\n      dup1\n        /* \"contracts/Market.sol\":10415:10741  while(true){... */\n    tag_332:\n        /* \"contracts/Market.sol\":10549:10554  pairs */\n      0x02\n        /* \"contracts/Market.sol\":10549:10561  pairs.length */\n      sload\n        /* \"contracts/Market.sol\":10461:10642  abi.encodePacked(... */\n      0x40\n      dup1\n      mload\n      0x20\n      dup2\n      add\n        /* \"#utility.yul\":11910:11929   */\n      dup10\n      swap1\n      mstore\n        /* \"#utility.yul\":11945:11957   */\n      swap1\n      dup2\n      add\n        /* \"#utility.yul\":11938:11966   */\n      dup8\n      swap1\n      mstore\n        /* \"#utility.yul\":11982:11994   */\n      0x60\n      dup2\n      add\n        /* \"#utility.yul\":11975:12003   */\n      swap2\n      swap1\n      swap2\n      mstore\n        /* \"contracts/Market.sol\":10579:10594  block.timestamp */\n      timestamp\n        /* \"#utility.yul\":12019:12031   */\n      0x80\n      dup3\n      add\n        /* \"#utility.yul\":12012:12040   */\n      mstore\n        /* \"contracts/Market.sol\":10612:10628  block.difficulty */\n      difficulty\n        /* \"#utility.yul\":12056:12069   */\n      0xa0\n      dup3\n      add\n        /* \"#utility.yul\":12049:12078   */\n      mstore\n        /* \"#utility.yul\":12094:12107   */\n      0xc0\n      add\n        /* \"contracts/Market.sol\":10461:10642  abi.encodePacked(... */\n      0x40\n      dup1\n      mload\n      not(0x1f)\n      dup2\n      dup5\n      sub\n      add\n      dup2\n      mstore\n      swap2\n      dup2\n      mstore\n        /* \"contracts/Market.sol\":10451:10643  keccak256(abi.encodePacked(... */\n      dup2\n      mload\n        /* \"contracts/Market.sol\":10461:10642  abi.encodePacked(... */\n      0x20\n        /* \"contracts/Market.sol\":10451:10643  keccak256(abi.encodePacked(... */\n      swap3\n      dup4\n      add\n      keccak256\n        /* \"contracts/Market.sol\":10660:10679  pairsInfo[pairHash] */\n      0x00\n      dup2\n      dup2\n      mstore\n        /* \"contracts/Market.sol\":10660:10669  pairsInfo */\n      0x09\n        /* \"contracts/Market.sol\":10660:10679  pairsInfo[pairHash] */\n      swap1\n      swap4\n      mstore\n      swap2\n      keccak256\n        /* \"contracts/Market.sol\":10660:10687  pairsInfo[pairHash].amountA */\n      0x02\n      add\n      sload\n        /* \"contracts/Market.sol\":10451:10643  keccak256(abi.encodePacked(... */\n      swap1\n      swap2\n      pop\n        /* \"contracts/Market.sol\":10415:10741  while(true){... */\n      tag_332\n        /* \"contracts/Market.sol\":10657:10731  if(pairsInfo[pairHash].amountA == 0){... */\n      jumpi\n        /* \"contracts/Market.sol\":10772:10831  MarketPair(_betHashA, _betHashB, _amountA, _amountB, false) */\n      0x40\n      dup1\n      mload\n      0xa0\n      dup2\n      add\n      dup3\n      mstore\n      swap7\n      dup8\n      mstore\n      0x20\n      dup1\n      dup9\n      add\n      swap7\n      dup8\n      mstore\n      dup8\n      dup3\n      add\n      swap6\n      dup7\n      mstore\n      0x60\n      dup9\n      add\n      swap5\n      dup6\n      mstore\n      0x00\n      0x80\n      dup10\n      add\n      dup2\n      dup2\n      mstore\n        /* \"contracts/Market.sol\":10750:10769  pairsInfo[pairHash] */\n      dup5\n      dup3\n      mstore\n        /* \"contracts/Market.sol\":10750:10759  pairsInfo */\n      0x09\n        /* \"contracts/Market.sol\":10750:10769  pairsInfo[pairHash] */\n      swap1\n      swap3\n      mstore\n      swap2\n      dup3\n      keccak256\n        /* \"contracts/Market.sol\":10750:10831  pairsInfo[pairHash] = MarketPair(_betHashA, _betHashB, _amountA, _amountB, false) */\n      swap8\n      mload\n      dup9\n      sstore\n      swap6\n      mload\n        /* \"contracts/Market.sol\":10772:10831  MarketPair(_betHashA, _betHashB, _amountA, _amountB, false) */\n      0x01\n        /* \"contracts/Market.sol\":10750:10831  pairsInfo[pairHash] = MarketPair(_betHashA, _betHashB, _amountA, _amountB, false) */\n      dup1\n      dup10\n      add\n      swap2\n      swap1\n      swap2\n      sstore\n      swap5\n      mload\n      0x02\n      dup1\n      dup10\n      add\n      swap2\n      swap1\n      swap2\n      sstore\n      swap4\n      mload\n      0x03\n      dup9\n      add\n      sstore\n      swap5\n      mload\n      0x04\n      swap1\n      swap7\n      add\n      dup1\n      sload\n      not(0xff)\n      and\n      swap7\n      iszero\n      iszero\n      swap7\n      swap1\n      swap7\n      or\n      swap1\n      swap6\n      sstore\n      pop\n        /* \"contracts/Market.sol\":10841:10861  pairs.push(pairHash) */\n      dup1\n      sload\n      swap2\n      dup3\n      add\n      dup2\n      sstore\n      swap1\n      swap2\n      mstore\n      0x405787fa12a823e0f2b7631cc41b3ba8828b3321ca811111fa75cd3aa3bb5ace\n      add\n      dup2\n      swap1\n      sstore\n        /* \"contracts/Market.sol\":10750:10769  pairsInfo[pairHash] */\n      swap1\n        /* \"contracts/Market.sol\":10208:10893  function _createPair(... */\n      jump\t// out\n        /* \"#utility.yul\":203:334   */\n    tag_338:\n      sub(shl(0xa0, 0x01), 0x01)\n        /* \"#utility.yul\":278:309   */\n      dup2\n      and\n        /* \"#utility.yul\":268:310   */\n      dup2\n      eq\n        /* \"#utility.yul\":258:328   */\n      tag_75\n      jumpi\n        /* \"#utility.yul\":324:325   */\n      0x00\n        /* \"#utility.yul\":321:322   */\n      dup1\n        /* \"#utility.yul\":314:326   */\n      revert\n        /* \"#utility.yul\":339:586   */\n    tag_26:\n        /* \"#utility.yul\":398:404   */\n      0x00\n        /* \"#utility.yul\":451:453   */\n      0x20\n        /* \"#utility.yul\":439:448   */\n      dup3\n        /* \"#utility.yul\":430:437   */\n      dup5\n        /* \"#utility.yul\":426:449   */\n      sub\n        /* \"#utility.yul\":422:454   */\n      slt\n        /* \"#utility.yul\":419:471   */\n      iszero\n      tag_347\n      jumpi\n        /* \"#utility.yul\":467:468   */\n      0x00\n        /* \"#utility.yul\":464:465   */\n      dup1\n        /* \"#utility.yul\":457:469   */\n      revert\n        /* \"#utility.yul\":419:471   */\n    tag_347:\n        /* \"#utility.yul\":506:515   */\n      dup2\n        /* \"#utility.yul\":493:516   */\n      calldataload\n        /* \"#utility.yul\":525:556   */\n      tag_348\n        /* \"#utility.yul\":550:555   */\n      dup2\n        /* \"#utility.yul\":525:556   */\n      tag_338\n      jump\t// in\n    tag_348:\n        /* \"#utility.yul\":575:580   */\n      swap4\n        /* \"#utility.yul\":339:586   */\n      swap3\n      pop\n      pop\n      pop\n      jump\t// out\n        /* \"#utility.yul\":591:1749   */\n    tag_29:\n        /* \"#utility.yul\":816:818   */\n      0x20\n        /* \"#utility.yul\":868:889   */\n      dup1\n      dup3\n      mstore\n        /* \"#utility.yul\":938:951   */\n      dup3\n      mload\n        /* \"#utility.yul\":841:859   */\n      dup3\n      dup3\n      add\n        /* \"#utility.yul\":960:982   */\n      dup2\n      swap1\n      mstore\n        /* \"#utility.yul\":787:791   */\n      0x00\n      swap2\n        /* \"#utility.yul\":816:818   */\n      swap1\n        /* \"#utility.yul\":1001:1003   */\n      0x40\n      swap1\n        /* \"#utility.yul\":1019:1037   */\n      dup2\n      dup6\n      add\n      swap1\n        /* \"#utility.yul\":1060:1075   */\n      dup7\n      dup5\n      add\n        /* \"#utility.yul\":787:791   */\n      dup6\n        /* \"#utility.yul\":1103:1723   */\n    tag_350:\n        /* \"#utility.yul\":1117:1123   */\n      dup3\n        /* \"#utility.yul\":1114:1115   */\n      dup2\n        /* \"#utility.yul\":1111:1124   */\n      lt\n        /* \"#utility.yul\":1103:1723   */\n      iszero\n      tag_352\n      jumpi\n        /* \"#utility.yul\":1176:1189   */\n      dup2\n      mload\n        /* \"#utility.yul\":1260:1269   */\n      dup1\n      mload\n      sub(shl(0xa0, 0x01), 0x01)\n        /* \"#utility.yul\":1256:1274   */\n      swap1\n      dup2\n      and\n        /* \"#utility.yul\":1244:1275   */\n      dup7\n      mstore\n        /* \"#utility.yul\":1319:1330   */\n      dup8\n      dup3\n      add\n        /* \"#utility.yul\":1313:1331   */\n      mload\n        /* \"#utility.yul\":1309:1336   */\n      and\n        /* \"#utility.yul\":1295:1307   */\n      dup8\n      dup7\n      add\n        /* \"#utility.yul\":1288:1337   */\n      mstore\n        /* \"#utility.yul\":1377:1388   */\n      dup6\n      dup2\n      add\n        /* \"#utility.yul\":1371:1389   */\n      mload\n        /* \"#utility.yul\":1357:1369   */\n      dup7\n      dup7\n      add\n        /* \"#utility.yul\":1350:1390   */\n      mstore\n        /* \"#utility.yul\":1413:1417   */\n      0x60\n        /* \"#utility.yul\":1457:1468   */\n      dup1\n      dup3\n      add\n        /* \"#utility.yul\":1451:1469   */\n      mload\n        /* \"#utility.yul\":1437:1449   */\n      swap1\n      dup7\n      add\n        /* \"#utility.yul\":1430:1470   */\n      mstore\n        /* \"#utility.yul\":1493:1497   */\n      0x80\n        /* \"#utility.yul\":1537:1548   */\n      dup1\n      dup3\n      add\n        /* \"#utility.yul\":1531:1549   */\n      mload\n        /* \"#utility.yul\":1517:1529   */\n      swap1\n      dup7\n      add\n        /* \"#utility.yul\":1510:1550   */\n      mstore\n        /* \"#utility.yul\":1220:1223   */\n      0xa0\n        /* \"#utility.yul\":1621:1632   */\n      swap1\n      dup2\n      add\n        /* \"#utility.yul\":1615:1633   */\n      mload\n        /* \"#utility.yul\":1635:1639   */\n      0xff\n        /* \"#utility.yul\":1611:1640   */\n      and\n        /* \"#utility.yul\":1597:1609   */\n      swap1\n      dup6\n      add\n        /* \"#utility.yul\":1590:1641   */\n      mstore\n        /* \"#utility.yul\":1670:1674   */\n      0xc0\n        /* \"#utility.yul\":1661:1675   */\n      swap1\n      swap4\n      add\n      swap3\n        /* \"#utility.yul\":1698:1713   */\n      swap1\n      dup6\n      add\n      swap1\n        /* \"#utility.yul\":1229:1230   */\n      0x01\n        /* \"#utility.yul\":1132:1141   */\n      add\n        /* \"#utility.yul\":1103:1723   */\n      jump(tag_350)\n    tag_352:\n      pop\n        /* \"#utility.yul\":1740:1743   */\n      swap2\n      swap8\n        /* \"#utility.yul\":591:1749   */\n      swap7\n      pop\n      pop\n      pop\n      pop\n      pop\n      pop\n      pop\n      jump\t// out\n        /* \"#utility.yul\":1946:2126   */\n    tag_37:\n        /* \"#utility.yul\":2005:2011   */\n      0x00\n        /* \"#utility.yul\":2058:2060   */\n      0x20\n        /* \"#utility.yul\":2046:2055   */\n      dup3\n        /* \"#utility.yul\":2037:2044   */\n      dup5\n        /* \"#utility.yul\":2033:2056   */\n      sub\n        /* \"#utility.yul\":2029:2061   */\n      slt\n        /* \"#utility.yul\":2026:2078   */\n      iszero\n      tag_355\n      jumpi\n        /* \"#utility.yul\":2074:2075   */\n      0x00\n        /* \"#utility.yul\":2071:2072   */\n      dup1\n        /* \"#utility.yul\":2064:2076   */\n      revert\n        /* \"#utility.yul\":2026:2078   */\n    tag_355:\n      pop\n        /* \"#utility.yul\":2097:2120   */\n      calldataload\n      swap2\n        /* \"#utility.yul\":1946:2126   */\n      swap1\n      pop\n      jump\t// out\n        /* \"#utility.yul\":2131:2287   */\n    tag_339:\n        /* \"#utility.yul\":2197:2217   */\n      dup1\n      calldataload\n        /* \"#utility.yul\":2257:2261   */\n      0xff\n        /* \"#utility.yul\":2246:2262   */\n      dup2\n      and\n        /* \"#utility.yul\":2236:2263   */\n      dup2\n      eq\n        /* \"#utility.yul\":2226:2281   */\n      tag_167\n      jumpi\n        /* \"#utility.yul\":2277:2278   */\n      0x00\n        /* \"#utility.yul\":2274:2275   */\n      dup1\n        /* \"#utility.yul\":2267:2279   */\n      revert\n        /* \"#utility.yul\":2292:2474   */\n    tag_47:\n        /* \"#utility.yul\":2349:2355   */\n      0x00\n        /* \"#utility.yul\":2402:2404   */\n      0x20\n        /* \"#utility.yul\":2390:2399   */\n      dup3\n        /* \"#utility.yul\":2381:2388   */\n      dup5\n        /* \"#utility.yul\":2377:2400   */\n      sub\n        /* \"#utility.yul\":2373:2405   */\n      slt\n        /* \"#utility.yul\":2370:2422   */\n      iszero\n      tag_359\n      jumpi\n        /* \"#utility.yul\":2418:2419   */\n      0x00\n        /* \"#utility.yul\":2415:2416   */\n      dup1\n        /* \"#utility.yul\":2408:2420   */\n      revert\n        /* \"#utility.yul\":2370:2422   */\n    tag_359:\n        /* \"#utility.yul\":2441:2468   */\n      tag_348\n        /* \"#utility.yul\":2458:2467   */\n      dup3\n        /* \"#utility.yul\":2441:2468   */\n      tag_339\n      jump\t// in\n        /* \"#utility.yul\":2915:3033   */\n    tag_340:\n        /* \"#utility.yul\":3001:3006   */\n      dup1\n        /* \"#utility.yul\":2994:3007   */\n      iszero\n        /* \"#utility.yul\":2987:3008   */\n      iszero\n        /* \"#utility.yul\":2980:2985   */\n      dup2\n        /* \"#utility.yul\":2977:3009   */\n      eq\n        /* \"#utility.yul\":2967:3027   */\n      tag_75\n      jumpi\n        /* \"#utility.yul\":3023:3024   */\n      0x00\n        /* \"#utility.yul\":3020:3021   */\n      dup1\n        /* \"#utility.yul\":3013:3025   */\n      revert\n        /* \"#utility.yul\":3038:3770   */\n    tag_60:\n        /* \"#utility.yul\":3137:3143   */\n      0x00\n        /* \"#utility.yul\":3145:3151   */\n      dup1\n        /* \"#utility.yul\":3153:3159   */\n      0x00\n        /* \"#utility.yul\":3161:3167   */\n      dup1\n        /* \"#utility.yul\":3169:3175   */\n      0x00\n        /* \"#utility.yul\":3177:3183   */\n      dup1\n        /* \"#utility.yul\":3230:3233   */\n      0xc0\n        /* \"#utility.yul\":3218:3227   */\n      dup8\n        /* \"#utility.yul\":3209:3216   */\n      dup10\n        /* \"#utility.yul\":3205:3228   */\n      sub\n        /* \"#utility.yul\":3201:3234   */\n      slt\n        /* \"#utility.yul\":3198:3251   */\n      iszero\n      tag_366\n      jumpi\n        /* \"#utility.yul\":3247:3248   */\n      0x00\n        /* \"#utility.yul\":3244:3245   */\n      dup1\n        /* \"#utility.yul\":3237:3249   */\n      revert\n        /* \"#utility.yul\":3198:3251   */\n    tag_366:\n        /* \"#utility.yul\":3286:3295   */\n      dup7\n        /* \"#utility.yul\":3273:3296   */\n      calldataload\n        /* \"#utility.yul\":3305:3336   */\n      tag_367\n        /* \"#utility.yul\":3330:3335   */\n      dup2\n        /* \"#utility.yul\":3305:3336   */\n      tag_338\n      jump\t// in\n    tag_367:\n        /* \"#utility.yul\":3355:3360   */\n      swap6\n      pop\n        /* \"#utility.yul\":3412:3414   */\n      0x20\n        /* \"#utility.yul\":3397:3415   */\n      dup8\n      add\n        /* \"#utility.yul\":3384:3416   */\n      calldataload\n        /* \"#utility.yul\":3425:3458   */\n      tag_368\n        /* \"#utility.yul\":3384:3416   */\n      dup2\n        /* \"#utility.yul\":3425:3458   */\n      tag_338\n      jump\t// in\n    tag_368:\n        /* \"#utility.yul\":3477:3484   */\n      swap5\n      pop\n        /* \"#utility.yul\":3531:3533   */\n      0x40\n        /* \"#utility.yul\":3516:3534   */\n      dup8\n      add\n        /* \"#utility.yul\":3503:3535   */\n      calldataload\n      swap4\n      pop\n        /* \"#utility.yul\":3582:3584   */\n      0x60\n        /* \"#utility.yul\":3567:3585   */\n      dup8\n      add\n        /* \"#utility.yul\":3554:3586   */\n      calldataload\n      swap3\n      pop\n        /* \"#utility.yul\":3605:3642   */\n      tag_369\n        /* \"#utility.yul\":3637:3640   */\n      0x80\n        /* \"#utility.yul\":3622:3641   */\n      dup9\n      add\n        /* \"#utility.yul\":3605:3642   */\n      tag_339\n      jump\t// in\n    tag_369:\n        /* \"#utility.yul\":3595:3642   */\n      swap2\n      pop\n        /* \"#utility.yul\":3694:3697   */\n      0xa0\n        /* \"#utility.yul\":3683:3692   */\n      dup8\n        /* \"#utility.yul\":3679:3698   */\n      add\n        /* \"#utility.yul\":3666:3699   */\n      calldataload\n        /* \"#utility.yul\":3708:3738   */\n      tag_370\n        /* \"#utility.yul\":3730:3737   */\n      dup2\n        /* \"#utility.yul\":3708:3738   */\n      tag_340\n      jump\t// in\n    tag_370:\n        /* \"#utility.yul\":3757:3764   */\n      dup1\n        /* \"#utility.yul\":3747:3764   */\n      swap2\n      pop\n      pop\n        /* \"#utility.yul\":3038:3770   */\n      swap3\n      swap6\n      pop\n      swap3\n      swap6\n      pop\n      swap3\n      swap6\n      jump\t// out\n        /* \"#utility.yul\":4361:4488   */\n    tag_80:\n        /* \"#utility.yul\":4422:4432   */\n      0x4e487b71\n        /* \"#utility.yul\":4417:4420   */\n      0xe0\n        /* \"#utility.yul\":4413:4433   */\n      shl\n        /* \"#utility.yul\":4410:4411   */\n      0x00\n        /* \"#utility.yul\":4403:4434   */\n      mstore\n        /* \"#utility.yul\":4453:4457   */\n      0x32\n        /* \"#utility.yul\":4450:4451   */\n      0x04\n        /* \"#utility.yul\":4443:4458   */\n      mstore\n        /* \"#utility.yul\":4477:4481   */\n      0x24\n        /* \"#utility.yul\":4474:4475   */\n      0x00\n        /* \"#utility.yul\":4467:4482   */\n      revert\n        /* \"#utility.yul\":4493:4620   */\n    tag_341:\n        /* \"#utility.yul\":4554:4564   */\n      0x4e487b71\n        /* \"#utility.yul\":4549:4552   */\n      0xe0\n        /* \"#utility.yul\":4545:4565   */\n      shl\n        /* \"#utility.yul\":4542:4543   */\n      0x00\n        /* \"#utility.yul\":4535:4566   */\n      mstore\n        /* \"#utility.yul\":4585:4589   */\n      0x11\n        /* \"#utility.yul\":4582:4583   */\n      0x04\n        /* \"#utility.yul\":4575:4590   */\n      mstore\n        /* \"#utility.yul\":4609:4613   */\n      0x24\n        /* \"#utility.yul\":4606:4607   */\n      0x00\n        /* \"#utility.yul\":4599:4614   */\n      revert\n        /* \"#utility.yul\":4625:4760   */\n    tag_84:\n        /* \"#utility.yul\":4664:4667   */\n      0x00\n        /* \"#utility.yul\":4685:4702   */\n      0x01\n      dup3\n      add\n        /* \"#utility.yul\":4682:4725   */\n      tag_378\n      jumpi\n        /* \"#utility.yul\":4705:4723   */\n      tag_378\n      tag_341\n      jump\t// in\n    tag_378:\n      pop\n        /* \"#utility.yul\":4752:4753   */\n      0x01\n        /* \"#utility.yul\":4741:4754   */\n      add\n      swap1\n        /* \"#utility.yul\":4625:4760   */\n      jump\t// out\n        /* \"#utility.yul\":4765:5120   */\n    tag_99:\n        /* \"#utility.yul\":4967:4969   */\n      0x20\n        /* \"#utility.yul\":4949:4970   */\n      dup1\n      dup3\n      mstore\n        /* \"#utility.yul\":5006:5008   */\n      0x1f\n        /* \"#utility.yul\":4986:5004   */\n      swap1\n      dup3\n      add\n        /* \"#utility.yul\":4979:5009   */\n      mstore\n        /* \"#utility.yul\":5045:5078   */\n      0x5265656e7472616e637947756172643a207265656e7472616e742063616c6c00\n        /* \"#utility.yul\":5040:5042   */\n      0x40\n        /* \"#utility.yul\":5025:5043   */\n      dup3\n      add\n        /* \"#utility.yul\":5018:5079   */\n      mstore\n        /* \"#utility.yul\":5111:5113   */\n      0x60\n        /* \"#utility.yul\":5096:5114   */\n      add\n      swap1\n        /* \"#utility.yul\":4765:5120   */\n      jump\t// out\n        /* \"#utility.yul\":5125:5309   */\n    tag_105:\n        /* \"#utility.yul\":5195:5201   */\n      0x00\n        /* \"#utility.yul\":5248:5250   */\n      0x20\n        /* \"#utility.yul\":5236:5245   */\n      dup3\n        /* \"#utility.yul\":5227:5234   */\n      dup5\n        /* \"#utility.yul\":5223:5246   */\n      sub\n        /* \"#utility.yul\":5219:5251   */\n      slt\n        /* \"#utility.yul\":5216:5268   */\n      iszero\n      tag_381\n      jumpi\n        /* \"#utility.yul\":5264:5265   */\n      0x00\n        /* \"#utility.yul\":5261:5262   */\n      dup1\n        /* \"#utility.yul\":5254:5266   */\n      revert\n        /* \"#utility.yul\":5216:5268   */\n    tag_381:\n      pop\n        /* \"#utility.yul\":5287:5303   */\n      mload\n      swap2\n        /* \"#utility.yul\":5125:5309   */\n      swap1\n      pop\n      jump\t// out\n        /* \"#utility.yul\":5927:6172   */\n    tag_115:\n        /* \"#utility.yul\":5994:6000   */\n      0x00\n        /* \"#utility.yul\":6047:6049   */\n      0x20\n        /* \"#utility.yul\":6035:6044   */\n      dup3\n        /* \"#utility.yul\":6026:6033   */\n      dup5\n        /* \"#utility.yul\":6022:6045   */\n      sub\n        /* \"#utility.yul\":6018:6050   */\n      slt\n        /* \"#utility.yul\":6015:6067   */\n      iszero\n      tag_385\n      jumpi\n        /* \"#utility.yul\":6063:6064   */\n      0x00\n        /* \"#utility.yul\":6060:6061   */\n      dup1\n        /* \"#utility.yul\":6053:6065   */\n      revert\n        /* \"#utility.yul\":6015:6067   */\n    tag_385:\n        /* \"#utility.yul\":6095:6104   */\n      dup2\n        /* \"#utility.yul\":6089:6105   */\n      mload\n        /* \"#utility.yul\":6114:6142   */\n      tag_348\n        /* \"#utility.yul\":6136:6141   */\n      dup2\n        /* \"#utility.yul\":6114:6142   */\n      tag_340\n      jump\t// in\n        /* \"#utility.yul\":6514:6642   */\n    tag_120:\n        /* \"#utility.yul\":6581:6590   */\n      dup2\n      dup2\n      sub\n        /* \"#utility.yul\":6602:6613   */\n      dup2\n      dup2\n      gt\n        /* \"#utility.yul\":6599:6636   */\n      iszero\n      tag_390\n      jumpi\n        /* \"#utility.yul\":6616:6634   */\n      tag_390\n      tag_341\n      jump\t// in\n    tag_390:\n        /* \"#utility.yul\":6514:6642   */\n      swap3\n      swap2\n      pop\n      pop\n      jump\t// out\n        /* \"#utility.yul\":8337:8554   */\n    tag_207:\n        /* \"#utility.yul\":8377:8378   */\n      0x00\n        /* \"#utility.yul\":8403:8404   */\n      dup3\n        /* \"#utility.yul\":8393:8525   */\n      tag_397\n      jumpi\n        /* \"#utility.yul\":8447:8457   */\n      0x4e487b71\n        /* \"#utility.yul\":8442:8445   */\n      0xe0\n        /* \"#utility.yul\":8438:8458   */\n      shl\n        /* \"#utility.yul\":8435:8436   */\n      0x00\n        /* \"#utility.yul\":8428:8459   */\n      mstore\n        /* \"#utility.yul\":8482:8486   */\n      0x12\n        /* \"#utility.yul\":8479:8480   */\n      0x04\n        /* \"#utility.yul\":8472:8487   */\n      mstore\n        /* \"#utility.yul\":8510:8514   */\n      0x24\n        /* \"#utility.yul\":8507:8508   */\n      0x00\n        /* \"#utility.yul\":8500:8515   */\n      revert\n        /* \"#utility.yul\":8393:8525   */\n    tag_397:\n      pop\n        /* \"#utility.yul\":8539:8548   */\n      div\n      swap1\n        /* \"#utility.yul\":8337:8554   */\n      jump\t// out\n        /* \"#utility.yul\":8559:8727   */\n    tag_211:\n        /* \"#utility.yul\":8632:8641   */\n      dup1\n      dup3\n      mul\n        /* \"#utility.yul\":8663:8672   */\n      dup2\n      iszero\n        /* \"#utility.yul\":8680:8695   */\n      dup3\n      dup3\n      div\n        /* \"#utility.yul\":8674:8696   */\n      dup5\n      eq\n        /* \"#utility.yul\":8660:8697   */\n      or\n        /* \"#utility.yul\":8650:8721   */\n      tag_390\n      jumpi\n        /* \"#utility.yul\":8701:8719   */\n      tag_390\n      tag_341\n      jump\t// in\n        /* \"#utility.yul\":9128:9253   */\n    tag_234:\n        /* \"#utility.yul\":9193:9202   */\n      dup1\n      dup3\n      add\n        /* \"#utility.yul\":9214:9224   */\n      dup1\n      dup3\n      gt\n        /* \"#utility.yul\":9211:9247   */\n      iszero\n      tag_390\n      jumpi\n        /* \"#utility.yul\":9227:9245   */\n      tag_390\n      tag_341\n      jump\t// in\n        /* \"#utility.yul\":10878:11129   */\n    tag_294:\n        /* \"#utility.yul\":10948:10954   */\n      0x00\n        /* \"#utility.yul\":11001:11003   */\n      0x20\n        /* \"#utility.yul\":10989:10998   */\n      dup3\n        /* \"#utility.yul\":10980:10987   */\n      dup5\n        /* \"#utility.yul\":10976:10999   */\n      sub\n        /* \"#utility.yul\":10972:11004   */\n      slt\n        /* \"#utility.yul\":10969:11021   */\n      iszero\n      tag_410\n      jumpi\n        /* \"#utility.yul\":11017:11018   */\n      0x00\n        /* \"#utility.yul\":11014:11015   */\n      dup1\n        /* \"#utility.yul\":11007:11019   */\n      revert\n        /* \"#utility.yul\":10969:11021   */\n    tag_410:\n        /* \"#utility.yul\":11049:11058   */\n      dup2\n        /* \"#utility.yul\":11043:11059   */\n      mload\n        /* \"#utility.yul\":11068:11099   */\n      tag_348\n        /* \"#utility.yul\":11093:11098   */\n      dup2\n        /* \"#utility.yul\":11068:11099   */\n      tag_338\n      jump\t// in\n\n    auxdata: 0xa264697066735822122078b993c9c4be6b52f2f344be39229bc568b1bf3c0d6080a9bba9014d42e04e2564736f6c63430008110033\n}\n",
				"bytecode": {
					"linkReferences": {},
					"object": "60c06040526005805460ff191690556001546001600160a01b031660a05234801561002957600080fd5b506001600081905580546001600160a01b031916339081179091556040805162966ed960e31b815290516304b376c8916004808201926020929091908290030181865afa15801561007e573d6000803e3d6000fd5b505050506040513d601f19601f820116820180604052508101906100a291906100b3565b6001600160a01b03166080526100e3565b6000602082840312156100c557600080fd5b81516001600160a01b03811681146100dc57600080fd5b9392505050565b60805160a051611e43620001646000396000818161018b0152818161092d01528181611025015281816110e501528181611209015281816112c9015281816113e40152818161149a01528181611534015281816115ee0152818161168801526117420152600081816102270152818161042b01526105010152611e436000f3fe608060405234801561001057600080fd5b50600436106100cf5760003560e01c8063893372ca1161008c578063c45a015511610066578063c45a0155146101c5578063c7b448bd146101d8578063f8b2cb4f146101f9578063fc0c546a1461022257600080fd5b8063893372ca146101605780638f2c488514610173578063b76564bd1461018657600080fd5b80630d68ecb0146100d4578063200d2ed2146100de5780632d56657d1461010257806351cff8d914610122578063675f6537146101455780636bfefd6b14610158575b600080fd5b6100dc610249565b005b6005546100eb9060ff1681565b60405160ff90911681526020015b60405180910390f35b610115610110366004611b6d565b610291565b6040516100f99190611b91565b610135610130366004611b6d565b6103c8565b60405190151581526020016100f9565b6100dc610153366004611c18565b6105e8565b61013561062d565b6100dc61016e366004611c18565b6106dd565b610135610181366004611c42565b61085e565b6101ad7f000000000000000000000000000000000000000000000000000000000000000081565b6040516001600160a01b0390911681526020016100f9565b6001546101ad906001600160a01b031681565b6101eb6101e6366004611c6b565b610915565b6040519081526020016100f9565b6101eb610207366004611b6d565b6001600160a01b031660009081526006602052604090205490565b6101ad7f000000000000000000000000000000000000000000000000000000000000000081565b60005b60025481101561028e5761027c6002828154811061026c5761026c611cd9565b9060005260206000200154610f04565b8061028681611d05565b91505061024c565b50565b6001600160a01b03811660009081526008602090815260408083208054825181850281018501909352808352606094859490939291908301828280156102f657602002820191906000526020600020905b8154815260200190600101908083116102e2575b5050505050905060005b6003548110156103bf576007600083838151811061032057610320611cd9565b6020908102919091018101518252818101929092526040908101600020815160c08101835281546001600160a01b0390811682526001830154169381019390935260028101549183019190915260038101546060830152600481015460808301526005015460ff1660a082015283518490839081106103a1576103a1611cd9565b602002602001018190525080806103b790611d05565b915050610300565b50909392505050565b60006002600054036103f55760405162461bcd60e51b81526004016103ec90611d1e565b60405180910390fd5b600260009081556001600160a01b03838116825260066020526040918290205491516370a0823160e01b815230600482015282917f000000000000000000000000000000000000000000000000000000000000000016906370a0823190602401602060405180830381865afa158015610472573d6000803e3d6000fd5b505050506040513d601f19601f820116820180604052508101906104969190611d55565b1180156104a35750600081115b6104d85760405162461bcd60e51b81526020600482015260066024820152650f08199d5b9960d21b60448201526064016103ec565b60405163a9059cbb60e01b81526001600160a01b038481166004830152602482018390526000917f00000000000000000000000000000000000000000000000000000000000000009091169063a9059cbb906044016020604051808303816000875af115801561054c573d6000803e3d6000fd5b505050506040513d601f19601f820116820180604052508101906105709190611d6e565b9050806105ab5760405162461bcd60e51b8152602060048201526009602482015268151e0811985a5b195960ba1b60448201526064016103ec565b6001600160a01b038416600090815260066020526040812080548492906105d3908490611d8b565b90915550600193505050506001600055919050565b60005b6000828152600a6020526040902054811015610629576106176002828154811061026c5761026c611cd9565b8061062181611d05565b9150506105eb565b5050565b6001546000906001600160a01b031633146106745760405162461bcd60e51b81526020600482015260076024820152666f776e6572206f60c81b60448201526064016103ec565b60055460ff161561068457600080fd5b60005b6002548110156106c9576106b7600282815481106106a7576106a7611cd9565b906000526020600020015461182b565b806106c181611d05565b915050610687565b50506005805460ff19166003179055600190565b6002600054036106ff5760405162461bcd60e51b81526004016103ec90611d1e565b6002600081815582815260076020908152604091829020825160c08101845281546001600160a01b039081168083526001840154909116938201939093529381015492840192909252600382015460608401526004820154608084015260059091015460ff1660a083015233146107a95760405162461bcd60e51b815260206004820152600e60248201526d626574206f776e6572206f6e6c7960901b60448201526064016103ec565b6000816060015182604001516107bf9190611d8b565b82516001600160a01b031660009081526006602090815260408083208490558086015187845260079092528220600301559091505b60045481101561085357836004828154811061081257610812611cd9565b906000526020600020015403610841576004818154811061083557610835611cd9565b60009182526020822001555b8061084b81611d05565b9150506107f4565b505060016000555050565b6001546000906001600160a01b031633146108a55760405162461bcd60e51b81526020600482015260076024820152666f776e6572206f60c81b60448201526064016103ec565b60055460ff161580156108c857508160ff16600114806108c857508160ff166002145b6108fd5760405162461bcd60e51b815260206004820152600660248201526510bc103bb4b760d11b60448201526064016103ec565b506005805460ff191660ff831617905560015b919050565b60405163332daccf60e01b81523360048201526000907f00000000000000000000000000000000000000000000000000000000000000006001600160a01b03169063332daccf90602401602060405180830381865afa15801561097c573d6000803e3d6000fd5b505050506040513d601f19601f820116820180604052508101906109a09190611d6e565b156109d95760405162461bcd60e51b8152602060048201526009602482015268189b1858dadb1a5cdd60ba1b60448201526064016103ec565b8260ff16600114806109ee57508260ff166002145b610a295760405162461bcd60e51b815260206004820152600c60248201526b696e76616c6964207369646560a01b60448201526064016103ec565b6000610a3a888888600089896118e6565b60045490915015610e6c57855b670de0b6b3a76400008110610e665760008060005b600454811015610af857600060048281548110610a7b57610a7b611cd9565b6000918252602080832090910154808352600790915260409091206005015490915060ff908116908a1603610ab05750610ae6565b600081815260076020526040902060040154831015610ae45760008181526007602052604090206004015491935090915082905b505b80610af081611d05565b915050610a5c565b5087811180610b045750855b15610e2357600060048381548110610b1e57610b1e611cd9565b6000918252602080832090910154808352600782526040808420815160c08101835281546001600160a01b0390811682526001808401549091169582019590955260028201549281019290925260038101546060830152600481015460808301526005015460ff1660a08201529093509190610b9a908c611d8b565b82606001518360400151610bae9190611d8b565b610bb89190611da4565b905060008060008e8411610cac57839250610bd460018f611d8b565b610bde9085611dc6565b91508c60ff16600103610c4857610bf78a878585611a59565b604080518c815260208101899052908101859052606081018490529091507f5de48bb383b4a2aaad84721b80d93429b813651b0eefbd59d32018cfe28215dc906080015b60405180910390a1610d41565b8c60ff16600203610ca757610c5f868b8486611a59565b60408051888152602081018d9052908101849052606081018590529091507f5de48bb383b4a2aaad84721b80d93429b813651b0eefbd59d32018cfe28215dc90608001610c3b565b610d41565b8e9250610cba60018f611d8b565b8f610cc59190611dc6565b91508c60ff16600103610cde57610bf78a878585611a59565b8c60ff16600203610d4157610cf5868b8486611a59565b60408051888152602081018d9052908101849052606081018590529091507f5de48bb383b4a2aaad84721b80d93429b813651b0eefbd59d32018cfe28215dc9060800160405180910390a15b60008a8152600a6020908152604080832080546001818101835591855283852001859055898452818420805491820181558452828420018490558c8352600790915281206003018054859290610d98908490611ddd565b909155505060008681526007602052604081206003018054849290610dbe908490611ddd565b909155505060008681526007602052604090206003810154600290910154610de69190611d8b565b600003610e0c5760048881548110610e0057610e00611cd9565b60009182526020822001555b610e16838a611d8b565b9850505050505050610e5f565b5050600480546001810182556000919091527f8a35acfbc15ff81a39ae7d344fd709f28e8600b4aa8c65c6b64bfe7fe36bd19b01829055610e66565b5050610a47565b50610ea2565b600480546001810182556000919091527f8a35acfbc15ff81a39ae7d344fd709f28e8600b4aa8c65c6b64bfe7fe36bd19b018190555b60408051338152306020820152908101829052606081018790526080810186905260ff851660a08201527fae1f00f8ca5df624acfa3bc85eccdde83b05574d6c39203c4f6e0a7f9a69ac829060c00160405180910390a1979650505050505050565b600260005403610f265760405162461bcd60e51b81526004016103ec90611d1e565b600260009081558181526009602052604090206004015460ff1615610f7f5760405162461bcd60e51b815260206004820152600f60248201526e185b1c9958591e481cd95d1d1b1959608a1b60448201526064016103ec565b60055460ff1660011480610f98575060055460ff166002145b610fd25760405162461bcd60e51b815260206004820152600b60248201526a1dda5b881b9bdd081cd95d60aa1b60448201526064016103ec565b60055460009081908190819060ff166001036111bc57600085815260096020908152604080832054835260078252918290205482516355c4a8bf60e01b815292516001600160a01b0391821697506064937f0000000000000000000000000000000000000000000000000000000000000000909216926355c4a8bf92600480820193918290030181865afa15801561106e573d6000803e3d6000fd5b505050506040513d601f19601f820116820180604052508101906110929190611d55565b61109d906064611d8b565b6000878152600960205260409020600301546110b99190611dc6565b6110c39190611da4565b6000868152600960205260409020600201546110df9190611ddd565b915060647f00000000000000000000000000000000000000000000000000000000000000006001600160a01b03166355c4a8bf6040518163ffffffff1660e01b8152600401602060405180830381865afa158015611141573d6000803e3d6000fd5b505050506040513d601f19601f820116820180604052508101906111659190611d55565b6000878152600960205260409020600301546111819190611dc6565b61118b9190611da4565b600086815260096020908152604080832054835260079091529020600101546001600160a01b0316935090506113d4565b60055460ff166002036113a457600085815260096020908152604080832060010154835260078252918290205482516355c4a8bf60e01b815292516001600160a01b0391821697506064937f0000000000000000000000000000000000000000000000000000000000000000909216926355c4a8bf92600480820193918290030181865afa158015611252573d6000803e3d6000fd5b505050506040513d601f19601f820116820180604052508101906112769190611d55565b611281906064611d8b565b60008781526009602052604090206002015461129d9190611dc6565b6112a79190611da4565b6000868152600960205260409020600301546112c39190611ddd565b915060647f00000000000000000000000000000000000000000000000000000000000000006001600160a01b03166355c4a8bf6040518163ffffffff1660e01b8152600401602060405180830381865afa158015611325573d6000803e3d6000fd5b505050506040513d601f19601f820116820180604052508101906113499190611d55565b6000878152600960205260409020600201546113659190611dc6565b61136f9190611da4565b60008681526009602090815260408083206001908101548452600790925290912001546001600160a01b0316935090506113d4565b60405162461bcd60e51b81526020600482015260056024820152643c103bb4b760d91b60448201526064016103ec565b6001600160a01b038316611467577f00000000000000000000000000000000000000000000000000000000000000006001600160a01b03166309953b2f6040518163ffffffff1660e01b8152600401602060405180830381865afa158015611440573d6000803e3d6000fd5b505050506040513d601f19601f820116820180604052508101906114649190611df0565b92505b6001600160a01b0384166000908152600660205260408120805484929061148f908490611ddd565b9250508190555060647f00000000000000000000000000000000000000000000000000000000000000006001600160a01b0316636a0ccd9d6040518163ffffffff1660e01b8152600401602060405180830381865afa1580156114f6573d6000803e3d6000fd5b505050506040513d601f19601f8201168201806040525081019061151a9190611d55565b6115249083611dc6565b61152e9190611da4565b600660007f00000000000000000000000000000000000000000000000000000000000000006001600160a01b031663b7640a546040518163ffffffff1660e01b8152600401602060405180830381865afa158015611590573d6000803e3d6000fd5b505050506040513d601f19601f820116820180604052508101906115b49190611df0565b6001600160a01b03166001600160a01b0316815260200190815260200160002060008282546115e39190611ddd565b9250508190555060647f00000000000000000000000000000000000000000000000000000000000000006001600160a01b03166328576d456040518163ffffffff1660e01b8152600401602060405180830381865afa15801561164a573d6000803e3d6000fd5b505050506040513d601f19601f8201168201806040525081019061166e9190611d55565b6116789083611dc6565b6116829190611da4565b600660007f00000000000000000000000000000000000000000000000000000000000000006001600160a01b03166309953b2f6040518163ffffffff1660e01b8152600401602060405180830381865afa1580156116e4573d6000803e3d6000fd5b505050506040513d601f19601f820116820180604052508101906117089190611df0565b6001600160a01b03166001600160a01b0316815260200190815260200160002060008282546117379190611ddd565b9250508190555060647f00000000000000000000000000000000000000000000000000000000000000006001600160a01b03166354cd1a5c6040518163ffffffff1660e01b8152600401602060405180830381865afa15801561179e573d6000803e3d6000fd5b505050506040513d601f19601f820116820180604052508101906117c29190611d55565b6117cc9083611dc6565b6117d69190611da4565b6001600160a01b038416600090815260066020526040812080549091906117fe908490611ddd565b9091555050506000848152600960205260409020600401805460ff19166001179055505050506001600055565b600081815260096020908152604080832080548452600783528184205460018201548552828520546002909201546001600160a01b039182168087526006909552928520805494959190921693611883908490611ddd565b90915550506000838152600960209081526040808320600301546001600160a01b0385168452600690925282208054919290916118c1908490611ddd565b909155505050600091825250600960205260409020600401805460ff19166001179055565b6000805b6003546040516bffffffffffffffffffffffff1960608b811b8216602084015230901b166034820152604881019190915242606882015244608882015260a80160408051601f198184030181529181528151602092830120600081815260079093529120600201549091506118ea576040805160c0810182526001600160a01b03808b168083528a821660208085019182528486018c8152606086018c8152608087018c815260ff808d1660a08a0190815260008c8152600787528b81209a518b54908b166001600160a01b0319918216178c5597516001808d01805492909c169190991617909955935160028a015591516003808a0191909155905160048901559151600590970180549790911660ff199097169690961790955584548083019095557fc2575a0e9e593c00f959f8c92f12db2869c3395a3b0502d05e2516446f71f85b90940186905590825260088352928120805493840181558152200181905590509695505050505050565b6000805b600254604080516020810189905290810187905260608101919091524260808201524460a082015260c00160408051601f19818403018152918152815160209283012060008181526009909352912060020154909150611a5d576040805160a081018252968752602080880196875287820195865260608801948552600060808901818152848252600990925291822097518855955160018089019190915594516002808901919091559351600388015594516004909601805460ff19169615159690961790955550805491820181559091527f405787fa12a823e0f2b7631cc41b3ba8828b3321ca811111fa75cd3aa3bb5ace0181905590565b6001600160a01b038116811461028e57600080fd5b600060208284031215611b7f57600080fd5b8135611b8a81611b58565b9392505050565b602080825282518282018190526000919060409081850190868401855b82811015611c0b57815180516001600160a01b0390811686528782015116878601528581015186860152606080820151908601526080808201519086015260a09081015160ff169085015260c09093019290850190600101611bae565b5091979650505050505050565b600060208284031215611c2a57600080fd5b5035919050565b803560ff8116811461091057600080fd5b600060208284031215611c5457600080fd5b611b8a82611c31565b801515811461028e57600080fd5b60008060008060008060c08789031215611c8457600080fd5b8635611c8f81611b58565b95506020870135611c9f81611b58565b94506040870135935060608701359250611cbb60808801611c31565b915060a0870135611ccb81611c5d565b809150509295509295509295565b634e487b7160e01b600052603260045260246000fd5b634e487b7160e01b600052601160045260246000fd5b600060018201611d1757611d17611cef565b5060010190565b6020808252601f908201527f5265656e7472616e637947756172643a207265656e7472616e742063616c6c00604082015260600190565b600060208284031215611d6757600080fd5b5051919050565b600060208284031215611d8057600080fd5b8151611b8a81611c5d565b81810381811115611d9e57611d9e611cef565b92915050565b600082611dc157634e487b7160e01b600052601260045260246000fd5b500490565b8082028115828204841417611d9e57611d9e611cef565b80820180821115611d9e57611d9e611cef565b600060208284031215611e0257600080fd5b8151611b8a81611b5856fea264697066735822122078b993c9c4be6b52f2f344be39229bc568b1bf3c0d6080a9bba9014d42e04e2564736f6c63430008110033",
					"opcodes": "PUSH1 0xC0 PUSH1 0x40 MSTORE PUSH1 0x5 DUP1 SLOAD PUSH1 0xFF NOT AND SWAP1 SSTORE PUSH1 0x1 SLOAD PUSH1 0x1 PUSH1 0x1 PUSH1 0xA0 SHL SUB AND PUSH1 0xA0 MSTORE CALLVALUE DUP1 ISZERO PUSH2 0x29 JUMPI PUSH1 0x0 DUP1 REVERT JUMPDEST POP PUSH1 0x1 PUSH1 0x0 DUP2 SWAP1 SSTORE DUP1 SLOAD PUSH1 0x1 PUSH1 0x1 PUSH1 0xA0 SHL SUB NOT AND CALLER SWAP1 DUP2 OR SWAP1 SWAP2 SSTORE PUSH1 0x40 DUP1 MLOAD PUSH3 0x966ED9 PUSH1 0xE3 SHL DUP2 MSTORE SWAP1 MLOAD PUSH4 0x4B376C8 SWAP2 PUSH1 0x4 DUP1 DUP3 ADD SWAP3 PUSH1 0x20 SWAP3 SWAP1 SWAP2 SWAP1 DUP3 SWAP1 SUB ADD DUP2 DUP7 GAS STATICCALL ISZERO DUP1 ISZERO PUSH2 0x7E JUMPI RETURNDATASIZE PUSH1 0x0 DUP1 RETURNDATACOPY RETURNDATASIZE PUSH1 0x0 REVERT JUMPDEST POP POP POP POP PUSH1 0x40 MLOAD RETURNDATASIZE PUSH1 0x1F NOT PUSH1 0x1F DUP3 ADD AND DUP3 ADD DUP1 PUSH1 0x40 MSTORE POP DUP2 ADD SWAP1 PUSH2 0xA2 SWAP2 SWAP1 PUSH2 0xB3 JUMP JUMPDEST PUSH1 0x1 PUSH1 0x1 PUSH1 0xA0 SHL SUB AND PUSH1 0x80 MSTORE PUSH2 0xE3 JUMP JUMPDEST PUSH1 0x0 PUSH1 0x20 DUP3 DUP5 SUB SLT ISZERO PUSH2 0xC5 JUMPI PUSH1 0x0 DUP1 REVERT JUMPDEST DUP2 MLOAD PUSH1 0x1 PUSH1 0x1 PUSH1 0xA0 SHL SUB DUP2 AND DUP2 EQ PUSH2 0xDC JUMPI PUSH1 0x0 DUP1 REVERT JUMPDEST SWAP4 SWAP3 POP POP POP JUMP JUMPDEST PUSH1 0x80 MLOAD PUSH1 0xA0 MLOAD PUSH2 0x1E43 PUSH3 0x164 PUSH1 0x0 CODECOPY PUSH1 0x0 DUP2 DUP2 PUSH2 0x18B ADD MSTORE DUP2 DUP2 PUSH2 0x92D ADD MSTORE DUP2 DUP2 PUSH2 0x1025 ADD MSTORE DUP2 DUP2 PUSH2 0x10E5 ADD MSTORE DUP2 DUP2 PUSH2 0x1209 ADD MSTORE DUP2 DUP2 PUSH2 0x12C9 ADD MSTORE DUP2 DUP2 PUSH2 0x13E4 ADD MSTORE DUP2 DUP2 PUSH2 0x149A ADD MSTORE DUP2 DUP2 PUSH2 0x1534 ADD MSTORE DUP2 DUP2 PUSH2 0x15EE ADD MSTORE DUP2 DUP2 PUSH2 0x1688 ADD MSTORE PUSH2 0x1742 ADD MSTORE PUSH1 0x0 DUP2 DUP2 PUSH2 0x227 ADD MSTORE DUP2 DUP2 PUSH2 0x42B ADD MSTORE PUSH2 0x501 ADD MSTORE PUSH2 0x1E43 PUSH1 0x0 RETURN INVALID PUSH1 0x80 PUSH1 0x40 MSTORE CALLVALUE DUP1 ISZERO PUSH2 0x10 JUMPI PUSH1 0x0 DUP1 REVERT JUMPDEST POP PUSH1 0x4 CALLDATASIZE LT PUSH2 0xCF JUMPI PUSH1 0x0 CALLDATALOAD PUSH1 0xE0 SHR DUP1 PUSH4 0x893372CA GT PUSH2 0x8C JUMPI DUP1 PUSH4 0xC45A0155 GT PUSH2 0x66 JUMPI DUP1 PUSH4 0xC45A0155 EQ PUSH2 0x1C5 JUMPI DUP1 PUSH4 0xC7B448BD EQ PUSH2 0x1D8 JUMPI DUP1 PUSH4 0xF8B2CB4F EQ PUSH2 0x1F9 JUMPI DUP1 PUSH4 0xFC0C546A EQ PUSH2 0x222 JUMPI PUSH1 0x0 DUP1 REVERT JUMPDEST DUP1 PUSH4 0x893372CA EQ PUSH2 0x160 JUMPI DUP1 PUSH4 0x8F2C4885 EQ PUSH2 0x173 JUMPI DUP1 PUSH4 0xB76564BD EQ PUSH2 0x186 JUMPI PUSH1 0x0 DUP1 REVERT JUMPDEST DUP1 PUSH4 0xD68ECB0 EQ PUSH2 0xD4 JUMPI DUP1 PUSH4 0x200D2ED2 EQ PUSH2 0xDE JUMPI DUP1 PUSH4 0x2D56657D EQ PUSH2 0x102 JUMPI DUP1 PUSH4 0x51CFF8D9 EQ PUSH2 0x122 JUMPI DUP1 PUSH4 0x675F6537 EQ PUSH2 0x145 JUMPI DUP1 PUSH4 0x6BFEFD6B EQ PUSH2 0x158 JUMPI JUMPDEST PUSH1 0x0 DUP1 REVERT JUMPDEST PUSH2 0xDC PUSH2 0x249 JUMP JUMPDEST STOP JUMPDEST PUSH1 0x5 SLOAD PUSH2 0xEB SWAP1 PUSH1 0xFF AND DUP2 JUMP JUMPDEST PUSH1 0x40 MLOAD PUSH1 0xFF SWAP1 SWAP2 AND DUP2 MSTORE PUSH1 0x20 ADD JUMPDEST PUSH1 0x40 MLOAD DUP1 SWAP2 SUB SWAP1 RETURN JUMPDEST PUSH2 0x115 PUSH2 0x110 CALLDATASIZE PUSH1 0x4 PUSH2 0x1B6D JUMP JUMPDEST PUSH2 0x291 JUMP JUMPDEST PUSH1 0x40 MLOAD PUSH2 0xF9 SWAP2 SWAP1 PUSH2 0x1B91 JUMP JUMPDEST PUSH2 0x135 PUSH2 0x130 CALLDATASIZE PUSH1 0x4 PUSH2 0x1B6D JUMP JUMPDEST PUSH2 0x3C8 JUMP JUMPDEST PUSH1 0x40 MLOAD SWAP1 ISZERO ISZERO DUP2 MSTORE PUSH1 0x20 ADD PUSH2 0xF9 JUMP JUMPDEST PUSH2 0xDC PUSH2 0x153 CALLDATASIZE PUSH1 0x4 PUSH2 0x1C18 JUMP JUMPDEST PUSH2 0x5E8 JUMP JUMPDEST PUSH2 0x135 PUSH2 0x62D JUMP JUMPDEST PUSH2 0xDC PUSH2 0x16E CALLDATASIZE PUSH1 0x4 PUSH2 0x1C18 JUMP JUMPDEST PUSH2 0x6DD JUMP JUMPDEST PUSH2 0x135 PUSH2 0x181 CALLDATASIZE PUSH1 0x4 PUSH2 0x1C42 JUMP JUMPDEST PUSH2 0x85E JUMP JUMPDEST PUSH2 0x1AD PUSH32 0x0 DUP2 JUMP JUMPDEST PUSH1 0x40 MLOAD PUSH1 0x1 PUSH1 0x1 PUSH1 0xA0 SHL SUB SWAP1 SWAP2 AND DUP2 MSTORE PUSH1 0x20 ADD PUSH2 0xF9 JUMP JUMPDEST PUSH1 0x1 SLOAD PUSH2 0x1AD SWAP1 PUSH1 0x1 PUSH1 0x1 PUSH1 0xA0 SHL SUB AND DUP2 JUMP JUMPDEST PUSH2 0x1EB PUSH2 0x1E6 CALLDATASIZE PUSH1 0x4 PUSH2 0x1C6B JUMP JUMPDEST PUSH2 0x915 JUMP JUMPDEST PUSH1 0x40 MLOAD SWAP1 DUP2 MSTORE PUSH1 0x20 ADD PUSH2 0xF9 JUMP JUMPDEST PUSH2 0x1EB PUSH2 0x207 CALLDATASIZE PUSH1 0x4 PUSH2 0x1B6D JUMP JUMPDEST PUSH1 0x1 PUSH1 0x1 PUSH1 0xA0 SHL SUB AND PUSH1 0x0 SWAP1 DUP2 MSTORE PUSH1 0x6 PUSH1 0x20 MSTORE PUSH1 0x40 SWAP1 KECCAK256 SLOAD SWAP1 JUMP JUMPDEST PUSH2 0x1AD PUSH32 0x0 DUP2 JUMP JUMPDEST PUSH1 0x0 JUMPDEST PUSH1 0x2 SLOAD DUP2 LT ISZERO PUSH2 0x28E JUMPI PUSH2 0x27C PUSH1 0x2 DUP3 DUP2 SLOAD DUP2 LT PUSH2 0x26C JUMPI PUSH2 0x26C PUSH2 0x1CD9 JUMP JUMPDEST SWAP1 PUSH1 0x0 MSTORE PUSH1 0x20 PUSH1 0x0 KECCAK256 ADD SLOAD PUSH2 0xF04 JUMP JUMPDEST DUP1 PUSH2 0x286 DUP2 PUSH2 0x1D05 JUMP JUMPDEST SWAP2 POP POP PUSH2 0x24C JUMP JUMPDEST POP JUMP JUMPDEST PUSH1 0x1 PUSH1 0x1 PUSH1 0xA0 SHL SUB DUP2 AND PUSH1 0x0 SWAP1 DUP2 MSTORE PUSH1 0x8 PUSH1 0x20 SWAP1 DUP2 MSTORE PUSH1 0x40 DUP1 DUP4 KECCAK256 DUP1 SLOAD DUP3 MLOAD DUP2 DUP6 MUL DUP2 ADD DUP6 ADD SWAP1 SWAP4 MSTORE DUP1 DUP4 MSTORE PUSH1 0x60 SWAP5 DUP6 SWAP5 SWAP1 SWAP4 SWAP3 SWAP2 SWAP1 DUP4 ADD DUP3 DUP3 DUP1 ISZERO PUSH2 0x2F6 JUMPI PUSH1 0x20 MUL DUP3 ADD SWAP2 SWAP1 PUSH1 0x0 MSTORE PUSH1 0x20 PUSH1 0x0 KECCAK256 SWAP1 JUMPDEST DUP2 SLOAD DUP2 MSTORE PUSH1 0x20 ADD SWAP1 PUSH1 0x1 ADD SWAP1 DUP1 DUP4 GT PUSH2 0x2E2 JUMPI JUMPDEST POP POP POP POP POP SWAP1 POP PUSH1 0x0 JUMPDEST PUSH1 0x3 SLOAD DUP2 LT ISZERO PUSH2 0x3BF JUMPI PUSH1 0x7 PUSH1 0x0 DUP4 DUP4 DUP2 MLOAD DUP2 LT PUSH2 0x320 JUMPI PUSH2 0x320 PUSH2 0x1CD9 JUMP JUMPDEST PUSH1 0x20 SWAP1 DUP2 MUL SWAP2 SWAP1 SWAP2 ADD DUP2 ADD MLOAD DUP3 MSTORE DUP2 DUP2 ADD SWAP3 SWAP1 SWAP3 MSTORE PUSH1 0x40 SWAP1 DUP2 ADD PUSH1 0x0 KECCAK256 DUP2 MLOAD PUSH1 0xC0 DUP2 ADD DUP4 MSTORE DUP2 SLOAD PUSH1 0x1 PUSH1 0x1 PUSH1 0xA0 SHL SUB SWAP1 DUP2 AND DUP3 MSTORE PUSH1 0x1 DUP4 ADD SLOAD AND SWAP4 DUP2 ADD SWAP4 SWAP1 SWAP4 MSTORE PUSH1 0x2 DUP2 ADD SLOAD SWAP2 DUP4 ADD SWAP2 SWAP1 SWAP2 MSTORE PUSH1 0x3 DUP2 ADD SLOAD PUSH1 0x60 DUP4 ADD MSTORE PUSH1 0x4 DUP2 ADD SLOAD PUSH1 0x80 DUP4 ADD MSTORE PUSH1 0x5 ADD SLOAD PUSH1 0xFF AND PUSH1 0xA0 DUP3 ADD MSTORE DUP4 MLOAD DUP5 SWAP1 DUP4 SWAP1 DUP2 LT PUSH2 0x3A1 JUMPI PUSH2 0x3A1 PUSH2 0x1CD9 JUMP JUMPDEST PUSH1 0x20 MUL PUSH1 0x20 ADD ADD DUP2 SWAP1 MSTORE POP DUP1 DUP1 PUSH2 0x3B7 SWAP1 PUSH2 0x1D05 JUMP JUMPDEST SWAP2 POP POP PUSH2 0x300 JUMP JUMPDEST POP SWAP1 SWAP4 SWAP3 POP POP POP JUMP JUMPDEST PUSH1 0x0 PUSH1 0x2 PUSH1 0x0 SLOAD SUB PUSH2 0x3F5 JUMPI PUSH1 0x40 MLOAD PUSH3 0x461BCD PUSH1 0xE5 SHL DUP2 MSTORE PUSH1 0x4 ADD PUSH2 0x3EC SWAP1 PUSH2 0x1D1E JUMP JUMPDEST PUSH1 0x40 MLOAD DUP1 SWAP2 SUB SWAP1 REVERT JUMPDEST PUSH1 0x2 PUSH1 0x0 SWAP1 DUP2 SSTORE PUSH1 0x1 PUSH1 0x1 PUSH1 0xA0 SHL SUB DUP4 DUP2 AND DUP3 MSTORE PUSH1 0x6 PUSH1 0x20 MSTORE PUSH1 0x40 SWAP2 DUP3 SWAP1 KECCAK256 SLOAD SWAP2 MLOAD PUSH4 0x70A08231 PUSH1 0xE0 SHL DUP2 MSTORE ADDRESS PUSH1 0x4 DUP3 ADD MSTORE DUP3 SWAP2 PUSH32 0x0 AND SWAP1 PUSH4 0x70A08231 SWAP1 PUSH1 0x24 ADD PUSH1 0x20 PUSH1 0x40 MLOAD DUP1 DUP4 SUB DUP2 DUP7 GAS STATICCALL ISZERO DUP1 ISZERO PUSH2 0x472 JUMPI RETURNDATASIZE PUSH1 0x0 DUP1 RETURNDATACOPY RETURNDATASIZE PUSH1 0x0 REVERT JUMPDEST POP POP POP POP PUSH1 0x40 MLOAD RETURNDATASIZE PUSH1 0x1F NOT PUSH1 0x1F DUP3 ADD AND DUP3 ADD DUP1 PUSH1 0x40 MSTORE POP DUP2 ADD SWAP1 PUSH2 0x496 SWAP2 SWAP1 PUSH2 0x1D55 JUMP JUMPDEST GT DUP1 ISZERO PUSH2 0x4A3 JUMPI POP PUSH1 0x0 DUP2 GT JUMPDEST PUSH2 0x4D8 JUMPI PUSH1 0x40 MLOAD PUSH3 0x461BCD PUSH1 0xE5 SHL DUP2 MSTORE PUSH1 0x20 PUSH1 0x4 DUP3 ADD MSTORE PUSH1 0x6 PUSH1 0x24 DUP3 ADD MSTORE PUSH6 0xF08199D5B99 PUSH1 0xD2 SHL PUSH1 0x44 DUP3 ADD MSTORE PUSH1 0x64 ADD PUSH2 0x3EC JUMP JUMPDEST PUSH1 0x40 MLOAD PUSH4 0xA9059CBB PUSH1 0xE0 SHL DUP2 MSTORE PUSH1 0x1 PUSH1 0x1 PUSH1 0xA0 SHL SUB DUP5 DUP2 AND PUSH1 0x4 DUP4 ADD MSTORE PUSH1 0x24 DUP3 ADD DUP4 SWAP1 MSTORE PUSH1 0x0 SWAP2 PUSH32 0x0 SWAP1 SWAP2 AND SWAP1 PUSH4 0xA9059CBB SWAP1 PUSH1 0x44 ADD PUSH1 0x20 PUSH1 0x40 MLOAD DUP1 DUP4 SUB DUP2 PUSH1 0x0 DUP8 GAS CALL ISZERO DUP1 ISZERO PUSH2 0x54C JUMPI RETURNDATASIZE PUSH1 0x0 DUP1 RETURNDATACOPY RETURNDATASIZE PUSH1 0x0 REVERT JUMPDEST POP POP POP POP PUSH1 0x40 MLOAD RETURNDATASIZE PUSH1 0x1F NOT PUSH1 0x1F DUP3 ADD AND DUP3 ADD DUP1 PUSH1 0x40 MSTORE POP DUP2 ADD SWAP1 PUSH2 0x570 SWAP2 SWAP1 PUSH2 0x1D6E JUMP JUMPDEST SWAP1 POP DUP1 PUSH2 0x5AB JUMPI PUSH1 0x40 MLOAD PUSH3 0x461BCD PUSH1 0xE5 SHL DUP2 MSTORE PUSH1 0x20 PUSH1 0x4 DUP3 ADD MSTORE PUSH1 0x9 PUSH1 0x24 DUP3 ADD MSTORE PUSH9 0x151E0811985A5B1959 PUSH1 0xBA SHL PUSH1 0x44 DUP3 ADD MSTORE PUSH1 0x64 ADD PUSH2 0x3EC JUMP JUMPDEST PUSH1 0x1 PUSH1 0x1 PUSH1 0xA0 SHL SUB DUP5 AND PUSH1 0x0 SWAP1 DUP2 MSTORE PUSH1 0x6 PUSH1 0x20 MSTORE PUSH1 0x40 DUP2 KECCAK256 DUP1 SLOAD DUP5 SWAP3 SWAP1 PUSH2 0x5D3 SWAP1 DUP5 SWAP1 PUSH2 0x1D8B JUMP JUMPDEST SWAP1 SWAP2 SSTORE POP PUSH1 0x1 SWAP4 POP POP POP POP PUSH1 0x1 PUSH1 0x0 SSTORE SWAP2 SWAP1 POP JUMP JUMPDEST PUSH1 0x0 JUMPDEST PUSH1 0x0 DUP3 DUP2 MSTORE PUSH1 0xA PUSH1 0x20 MSTORE PUSH1 0x40 SWAP1 KECCAK256 SLOAD DUP2 LT ISZERO PUSH2 0x629 JUMPI PUSH2 0x617 PUSH1 0x2 DUP3 DUP2 SLOAD DUP2 LT PUSH2 0x26C JUMPI PUSH2 0x26C PUSH2 0x1CD9 JUMP JUMPDEST DUP1 PUSH2 0x621 DUP2 PUSH2 0x1D05 JUMP JUMPDEST SWAP2 POP POP PUSH2 0x5EB JUMP JUMPDEST POP POP JUMP JUMPDEST PUSH1 0x1 SLOAD PUSH1 0x0 SWAP1 PUSH1 0x1 PUSH1 0x1 PUSH1 0xA0 SHL SUB AND CALLER EQ PUSH2 0x674 JUMPI PUSH1 0x40 MLOAD PUSH3 0x461BCD PUSH1 0xE5 SHL DUP2 MSTORE PUSH1 0x20 PUSH1 0x4 DUP3 ADD MSTORE PUSH1 0x7 PUSH1 0x24 DUP3 ADD MSTORE PUSH7 0x6F776E6572206F PUSH1 0xC8 SHL PUSH1 0x44 DUP3 ADD MSTORE PUSH1 0x64 ADD PUSH2 0x3EC JUMP JUMPDEST PUSH1 0x5 SLOAD PUSH1 0xFF AND ISZERO PUSH2 0x684 JUMPI PUSH1 0x0 DUP1 REVERT JUMPDEST PUSH1 0x0 JUMPDEST PUSH1 0x2 SLOAD DUP2 LT ISZERO PUSH2 0x6C9 JUMPI PUSH2 0x6B7 PUSH1 0x2 DUP3 DUP2 SLOAD DUP2 LT PUSH2 0x6A7 JUMPI PUSH2 0x6A7 PUSH2 0x1CD9 JUMP JUMPDEST SWAP1 PUSH1 0x0 MSTORE PUSH1 0x20 PUSH1 0x0 KECCAK256 ADD SLOAD PUSH2 0x182B JUMP JUMPDEST DUP1 PUSH2 0x6C1 DUP2 PUSH2 0x1D05 JUMP JUMPDEST SWAP2 POP POP PUSH2 0x687 JUMP JUMPDEST POP POP PUSH1 0x5 DUP1 SLOAD PUSH1 0xFF NOT AND PUSH1 0x3 OR SWAP1 SSTORE PUSH1 0x1 SWAP1 JUMP JUMPDEST PUSH1 0x2 PUSH1 0x0 SLOAD SUB PUSH2 0x6FF JUMPI PUSH1 0x40 MLOAD PUSH3 0x461BCD PUSH1 0xE5 SHL DUP2 MSTORE PUSH1 0x4 ADD PUSH2 0x3EC SWAP1 PUSH2 0x1D1E JUMP JUMPDEST PUSH1 0x2 PUSH1 0x0 DUP2 DUP2 SSTORE DUP3 DUP2 MSTORE PUSH1 0x7 PUSH1 0x20 SWAP1 DUP2 MSTORE PUSH1 0x40 SWAP2 DUP3 SWAP1 KECCAK256 DUP3 MLOAD PUSH1 0xC0 DUP2 ADD DUP5 MSTORE DUP2 SLOAD PUSH1 0x1 PUSH1 0x1 PUSH1 0xA0 SHL SUB SWAP1 DUP2 AND DUP1 DUP4 MSTORE PUSH1 0x1 DUP5 ADD SLOAD SWAP1 SWAP2 AND SWAP4 DUP3 ADD SWAP4 SWAP1 SWAP4 MSTORE SWAP4 DUP2 ADD SLOAD SWAP3 DUP5 ADD SWAP3 SWAP1 SWAP3 MSTORE PUSH1 0x3 DUP3 ADD SLOAD PUSH1 0x60 DUP5 ADD MSTORE PUSH1 0x4 DUP3 ADD SLOAD PUSH1 0x80 DUP5 ADD MSTORE PUSH1 0x5 SWAP1 SWAP2 ADD SLOAD PUSH1 0xFF AND PUSH1 0xA0 DUP4 ADD MSTORE CALLER EQ PUSH2 0x7A9 JUMPI PUSH1 0x40 MLOAD PUSH3 0x461BCD PUSH1 0xE5 SHL DUP2 MSTORE PUSH1 0x20 PUSH1 0x4 DUP3 ADD MSTORE PUSH1 0xE PUSH1 0x24 DUP3 ADD MSTORE PUSH14 0x626574206F776E6572206F6E6C79 PUSH1 0x90 SHL PUSH1 0x44 DUP3 ADD MSTORE PUSH1 0x64 ADD PUSH2 0x3EC JUMP JUMPDEST PUSH1 0x0 DUP2 PUSH1 0x60 ADD MLOAD DUP3 PUSH1 0x40 ADD MLOAD PUSH2 0x7BF SWAP2 SWAP1 PUSH2 0x1D8B JUMP JUMPDEST DUP3 MLOAD PUSH1 0x1 PUSH1 0x1 PUSH1 0xA0 SHL SUB AND PUSH1 0x0 SWAP1 DUP2 MSTORE PUSH1 0x6 PUSH1 0x20 SWAP1 DUP2 MSTORE PUSH1 0x40 DUP1 DUP4 KECCAK256 DUP5 SWAP1 SSTORE DUP1 DUP7 ADD MLOAD DUP8 DUP5 MSTORE PUSH1 0x7 SWAP1 SWAP3 MSTORE DUP3 KECCAK256 PUSH1 0x3 ADD SSTORE SWAP1 SWAP2 POP JUMPDEST PUSH1 0x4 SLOAD DUP2 LT ISZERO PUSH2 0x853 JUMPI DUP4 PUSH1 0x4 DUP3 DUP2 SLOAD DUP2 LT PUSH2 0x812 JUMPI PUSH2 0x812 PUSH2 0x1CD9 JUMP JUMPDEST SWAP1 PUSH1 0x0 MSTORE PUSH1 0x20 PUSH1 0x0 KECCAK256 ADD SLOAD SUB PUSH2 0x841 JUMPI PUSH1 0x4 DUP2 DUP2 SLOAD DUP2 LT PUSH2 0x835 JUMPI PUSH2 0x835 PUSH2 0x1CD9 JUMP JUMPDEST PUSH1 0x0 SWAP2 DUP3 MSTORE PUSH1 0x20 DUP3 KECCAK256 ADD SSTORE JUMPDEST DUP1 PUSH2 0x84B DUP2 PUSH2 0x1D05 JUMP JUMPDEST SWAP2 POP POP PUSH2 0x7F4 JUMP JUMPDEST POP POP PUSH1 0x1 PUSH1 0x0 SSTORE POP POP JUMP JUMPDEST PUSH1 0x1 SLOAD PUSH1 0x0 SWAP1 PUSH1 0x1 PUSH1 0x1 PUSH1 0xA0 SHL SUB AND CALLER EQ PUSH2 0x8A5 JUMPI PUSH1 0x40 MLOAD PUSH3 0x461BCD PUSH1 0xE5 SHL DUP2 MSTORE PUSH1 0x20 PUSH1 0x4 DUP3 ADD MSTORE PUSH1 0x7 PUSH1 0x24 DUP3 ADD MSTORE PUSH7 0x6F776E6572206F PUSH1 0xC8 SHL PUSH1 0x44 DUP3 ADD MSTORE PUSH1 0x64 ADD PUSH2 0x3EC JUMP JUMPDEST PUSH1 0x5 SLOAD PUSH1 0xFF AND ISZERO DUP1 ISZERO PUSH2 0x8C8 JUMPI POP DUP2 PUSH1 0xFF AND PUSH1 0x1 EQ DUP1 PUSH2 0x8C8 JUMPI POP DUP2 PUSH1 0xFF AND PUSH1 0x2 EQ JUMPDEST PUSH2 0x8FD JUMPI PUSH1 0x40 MLOAD PUSH3 0x461BCD PUSH1 0xE5 SHL DUP2 MSTORE PUSH1 0x20 PUSH1 0x4 DUP3 ADD MSTORE PUSH1 0x6 PUSH1 0x24 DUP3 ADD MSTORE PUSH6 0x10BC103BB4B7 PUSH1 0xD1 SHL PUSH1 0x44 DUP3 ADD MSTORE PUSH1 0x64 ADD PUSH2 0x3EC JUMP JUMPDEST POP PUSH1 0x5 DUP1 SLOAD PUSH1 0xFF NOT AND PUSH1 0xFF DUP4 AND OR SWAP1 SSTORE PUSH1 0x1 JUMPDEST SWAP2 SWAP1 POP JUMP JUMPDEST PUSH1 0x40 MLOAD PUSH4 0x332DACCF PUSH1 0xE0 SHL DUP2 MSTORE CALLER PUSH1 0x4 DUP3 ADD MSTORE PUSH1 0x0 SWAP1 PUSH32 0x0 PUSH1 0x1 PUSH1 0x1 PUSH1 0xA0 SHL SUB AND SWAP1 PUSH4 0x332DACCF SWAP1 PUSH1 0x24 ADD PUSH1 0x20 PUSH1 0x40 MLOAD DUP1 DUP4 SUB DUP2 DUP7 GAS STATICCALL ISZERO DUP1 ISZERO PUSH2 0x97C JUMPI RETURNDATASIZE PUSH1 0x0 DUP1 RETURNDATACOPY RETURNDATASIZE PUSH1 0x0 REVERT JUMPDEST POP POP POP POP PUSH1 0x40 MLOAD RETURNDATASIZE PUSH1 0x1F NOT PUSH1 0x1F DUP3 ADD AND DUP3 ADD DUP1 PUSH1 0x40 MSTORE POP DUP2 ADD SWAP1 PUSH2 0x9A0 SWAP2 SWAP1 PUSH2 0x1D6E JUMP JUMPDEST ISZERO PUSH2 0x9D9 JUMPI PUSH1 0x40 MLOAD PUSH3 0x461BCD PUSH1 0xE5 SHL DUP2 MSTORE PUSH1 0x20 PUSH1 0x4 DUP3 ADD MSTORE PUSH1 0x9 PUSH1 0x24 DUP3 ADD MSTORE PUSH9 0x189B1858DADB1A5CDD PUSH1 0xBA SHL PUSH1 0x44 DUP3 ADD MSTORE PUSH1 0x64 ADD PUSH2 0x3EC JUMP JUMPDEST DUP3 PUSH1 0xFF AND PUSH1 0x1 EQ DUP1 PUSH2 0x9EE JUMPI POP DUP3 PUSH1 0xFF AND PUSH1 0x2 EQ JUMPDEST PUSH2 0xA29 JUMPI PUSH1 0x40 MLOAD PUSH3 0x461BCD PUSH1 0xE5 SHL DUP2 MSTORE PUSH1 0x20 PUSH1 0x4 DUP3 ADD MSTORE PUSH1 0xC PUSH1 0x24 DUP3 ADD MSTORE PUSH12 0x696E76616C69642073696465 PUSH1 0xA0 SHL PUSH1 0x44 DUP3 ADD MSTORE PUSH1 0x64 ADD PUSH2 0x3EC JUMP JUMPDEST PUSH1 0x0 PUSH2 0xA3A DUP9 DUP9 DUP9 PUSH1 0x0 DUP10 DUP10 PUSH2 0x18E6 JUMP JUMPDEST PUSH1 0x4 SLOAD SWAP1 SWAP2 POP ISZERO PUSH2 0xE6C JUMPI DUP6 JUMPDEST PUSH8 0xDE0B6B3A7640000 DUP2 LT PUSH2 0xE66 JUMPI PUSH1 0x0 DUP1 PUSH1 0x0 JUMPDEST PUSH1 0x4 SLOAD DUP2 LT ISZERO PUSH2 0xAF8 JUMPI PUSH1 0x0 PUSH1 0x4 DUP3 DUP2 SLOAD DUP2 LT PUSH2 0xA7B JUMPI PUSH2 0xA7B PUSH2 0x1CD9 JUMP JUMPDEST PUSH1 0x0 SWAP2 DUP3 MSTORE PUSH1 0x20 DUP1 DUP4 KECCAK256 SWAP1 SWAP2 ADD SLOAD DUP1 DUP4 MSTORE PUSH1 0x7 SWAP1 SWAP2 MSTORE PUSH1 0x40 SWAP1 SWAP2 KECCAK256 PUSH1 0x5 ADD SLOAD SWAP1 SWAP2 POP PUSH1 0xFF SWAP1 DUP2 AND SWAP1 DUP11 AND SUB PUSH2 0xAB0 JUMPI POP PUSH2 0xAE6 JUMP JUMPDEST PUSH1 0x0 DUP2 DUP2 MSTORE PUSH1 0x7 PUSH1 0x20 MSTORE PUSH1 0x40 SWAP1 KECCAK256 PUSH1 0x4 ADD SLOAD DUP4 LT ISZERO PUSH2 0xAE4 JUMPI PUSH1 0x0 DUP2 DUP2 MSTORE PUSH1 0x7 PUSH1 0x20 MSTORE PUSH1 0x40 SWAP1 KECCAK256 PUSH1 0x4 ADD SLOAD SWAP2 SWAP4 POP SWAP1 SWAP2 POP DUP3 SWAP1 JUMPDEST POP JUMPDEST DUP1 PUSH2 0xAF0 DUP2 PUSH2 0x1D05 JUMP JUMPDEST SWAP2 POP POP PUSH2 0xA5C JUMP JUMPDEST POP DUP8 DUP2 GT DUP1 PUSH2 0xB04 JUMPI POP DUP6 JUMPDEST ISZERO PUSH2 0xE23 JUMPI PUSH1 0x0 PUSH1 0x4 DUP4 DUP2 SLOAD DUP2 LT PUSH2 0xB1E JUMPI PUSH2 0xB1E PUSH2 0x1CD9 JUMP JUMPDEST PUSH1 0x0 SWAP2 DUP3 MSTORE PUSH1 0x20 DUP1 DUP4 KECCAK256 SWAP1 SWAP2 ADD SLOAD DUP1 DUP4 MSTORE PUSH1 0x7 DUP3 MSTORE PUSH1 0x40 DUP1 DUP5 KECCAK256 DUP2 MLOAD PUSH1 0xC0 DUP2 ADD DUP4 MSTORE DUP2 SLOAD PUSH1 0x1 PUSH1 0x1 PUSH1 0xA0 SHL SUB SWAP1 DUP2 AND DUP3 MSTORE PUSH1 0x1 DUP1 DUP5 ADD SLOAD SWAP1 SWAP2 AND SWAP6 DUP3 ADD SWAP6 SWAP1 SWAP6 MSTORE PUSH1 0x2 DUP3 ADD SLOAD SWAP3 DUP2 ADD SWAP3 SWAP1 SWAP3 MSTORE PUSH1 0x3 DUP2 ADD SLOAD PUSH1 0x60 DUP4 ADD MSTORE PUSH1 0x4 DUP2 ADD SLOAD PUSH1 0x80 DUP4 ADD MSTORE PUSH1 0x5 ADD SLOAD PUSH1 0xFF AND PUSH1 0xA0 DUP3 ADD MSTORE SWAP1 SWAP4 POP SWAP2 SWAP1 PUSH2 0xB9A SWAP1 DUP13 PUSH2 0x1D8B JUMP JUMPDEST DUP3 PUSH1 0x60 ADD MLOAD DUP4 PUSH1 0x40 ADD MLOAD PUSH2 0xBAE SWAP2 SWAP1 PUSH2 0x1D8B JUMP JUMPDEST PUSH2 0xBB8 SWAP2 SWAP1 PUSH2 0x1DA4 JUMP JUMPDEST SWAP1 POP PUSH1 0x0 DUP1 PUSH1 0x0 DUP15 DUP5 GT PUSH2 0xCAC JUMPI DUP4 SWAP3 POP PUSH2 0xBD4 PUSH1 0x1 DUP16 PUSH2 0x1D8B JUMP JUMPDEST PUSH2 0xBDE SWAP1 DUP6 PUSH2 0x1DC6 JUMP JUMPDEST SWAP2 POP DUP13 PUSH1 0xFF AND PUSH1 0x1 SUB PUSH2 0xC48 JUMPI PUSH2 0xBF7 DUP11 DUP8 DUP6 DUP6 PUSH2 0x1A59 JUMP JUMPDEST PUSH1 0x40 DUP1 MLOAD DUP13 DUP2 MSTORE PUSH1 0x20 DUP2 ADD DUP10 SWAP1 MSTORE SWAP1 DUP2 ADD DUP6 SWAP1 MSTORE PUSH1 0x60 DUP2 ADD DUP5 SWAP1 MSTORE SWAP1 SWAP2 POP PUSH32 0x5DE48BB383B4A2AAAD84721B80D93429B813651B0EEFBD59D32018CFE28215DC SWAP1 PUSH1 0x80 ADD JUMPDEST PUSH1 0x40 MLOAD DUP1 SWAP2 SUB SWAP1 LOG1 PUSH2 0xD41 JUMP JUMPDEST DUP13 PUSH1 0xFF AND PUSH1 0x2 SUB PUSH2 0xCA7 JUMPI PUSH2 0xC5F DUP7 DUP12 DUP5 DUP7 PUSH2 0x1A59 JUMP JUMPDEST PUSH1 0x40 DUP1 MLOAD DUP9 DUP2 MSTORE PUSH1 0x20 DUP2 ADD DUP14 SWAP1 MSTORE SWAP1 DUP2 ADD DUP5 SWAP1 MSTORE PUSH1 0x60 DUP2 ADD DUP6 SWAP1 MSTORE SWAP1 SWAP2 POP PUSH32 0x5DE48BB383B4A2AAAD84721B80D93429B813651B0EEFBD59D32018CFE28215DC SWAP1 PUSH1 0x80 ADD PUSH2 0xC3B JUMP JUMPDEST PUSH2 0xD41 JUMP JUMPDEST DUP15 SWAP3 POP PUSH2 0xCBA PUSH1 0x1 DUP16 PUSH2 0x1D8B JUMP JUMPDEST DUP16 PUSH2 0xCC5 SWAP2 SWAP1 PUSH2 0x1DC6 JUMP JUMPDEST SWAP2 POP DUP13 PUSH1 0xFF AND PUSH1 0x1 SUB PUSH2 0xCDE JUMPI PUSH2 0xBF7 DUP11 DUP8 DUP6 DUP6 PUSH2 0x1A59 JUMP JUMPDEST DUP13 PUSH1 0xFF AND PUSH1 0x2 SUB PUSH2 0xD41 JUMPI PUSH2 0xCF5 DUP7 DUP12 DUP5 DUP7 PUSH2 0x1A59 JUMP JUMPDEST PUSH1 0x40 DUP1 MLOAD DUP9 DUP2 MSTORE PUSH1 0x20 DUP2 ADD DUP14 SWAP1 MSTORE SWAP1 DUP2 ADD DUP5 SWAP1 MSTORE PUSH1 0x60 DUP2 ADD DUP6 SWAP1 MSTORE SWAP1 SWAP2 POP PUSH32 0x5DE48BB383B4A2AAAD84721B80D93429B813651B0EEFBD59D32018CFE28215DC SWAP1 PUSH1 0x80 ADD PUSH1 0x40 MLOAD DUP1 SWAP2 SUB SWAP1 LOG1 JUMPDEST PUSH1 0x0 DUP11 DUP2 MSTORE PUSH1 0xA PUSH1 0x20 SWAP1 DUP2 MSTORE PUSH1 0x40 DUP1 DUP4 KECCAK256 DUP1 SLOAD PUSH1 0x1 DUP2 DUP2 ADD DUP4 SSTORE SWAP2 DUP6 MSTORE DUP4 DUP6 KECCAK256 ADD DUP6 SWAP1 SSTORE DUP10 DUP5 MSTORE DUP2 DUP5 KECCAK256 DUP1 SLOAD SWAP2 DUP3 ADD DUP2 SSTORE DUP5 MSTORE DUP3 DUP5 KECCAK256 ADD DUP5 SWAP1 SSTORE DUP13 DUP4 MSTORE PUSH1 0x7 SWAP1 SWAP2 MSTORE DUP2 KECCAK256 PUSH1 0x3 ADD DUP1 SLOAD DUP6 SWAP3 SWAP1 PUSH2 0xD98 SWAP1 DUP5 SWAP1 PUSH2 0x1DDD JUMP JUMPDEST SWAP1 SWAP2 SSTORE POP POP PUSH1 0x0 DUP7 DUP2 MSTORE PUSH1 0x7 PUSH1 0x20 MSTORE PUSH1 0x40 DUP2 KECCAK256 PUSH1 0x3 ADD DUP1 SLOAD DUP5 SWAP3 SWAP1 PUSH2 0xDBE SWAP1 DUP5 SWAP1 PUSH2 0x1DDD JUMP JUMPDEST SWAP1 SWAP2 SSTORE POP POP PUSH1 0x0 DUP7 DUP2 MSTORE PUSH1 0x7 PUSH1 0x20 MSTORE PUSH1 0x40 SWAP1 KECCAK256 PUSH1 0x3 DUP2 ADD SLOAD PUSH1 0x2 SWAP1 SWAP2 ADD SLOAD PUSH2 0xDE6 SWAP2 SWAP1 PUSH2 0x1D8B JUMP JUMPDEST PUSH1 0x0 SUB PUSH2 0xE0C JUMPI PUSH1 0x4 DUP9 DUP2 SLOAD DUP2 LT PUSH2 0xE00 JUMPI PUSH2 0xE00 PUSH2 0x1CD9 JUMP JUMPDEST PUSH1 0x0 SWAP2 DUP3 MSTORE PUSH1 0x20 DUP3 KECCAK256 ADD SSTORE JUMPDEST PUSH2 0xE16 DUP4 DUP11 PUSH2 0x1D8B JUMP JUMPDEST SWAP9 POP POP POP POP POP POP POP PUSH2 0xE5F JUMP JUMPDEST POP POP PUSH1 0x4 DUP1 SLOAD PUSH1 0x1 DUP2 ADD DUP3 SSTORE PUSH1 0x0 SWAP2 SWAP1 SWAP2 MSTORE PUSH32 0x8A35ACFBC15FF81A39AE7D344FD709F28E8600B4AA8C65C6B64BFE7FE36BD19B ADD DUP3 SWAP1 SSTORE PUSH2 0xE66 JUMP JUMPDEST POP POP PUSH2 0xA47 JUMP JUMPDEST POP PUSH2 0xEA2 JUMP JUMPDEST PUSH1 0x4 DUP1 SLOAD PUSH1 0x1 DUP2 ADD DUP3 SSTORE PUSH1 0x0 SWAP2 SWAP1 SWAP2 MSTORE PUSH32 0x8A35ACFBC15FF81A39AE7D344FD709F28E8600B4AA8C65C6B64BFE7FE36BD19B ADD DUP2 SWAP1 SSTORE JUMPDEST PUSH1 0x40 DUP1 MLOAD CALLER DUP2 MSTORE ADDRESS PUSH1 0x20 DUP3 ADD MSTORE SWAP1 DUP2 ADD DUP3 SWAP1 MSTORE PUSH1 0x60 DUP2 ADD DUP8 SWAP1 MSTORE PUSH1 0x80 DUP2 ADD DUP7 SWAP1 MSTORE PUSH1 0xFF DUP6 AND PUSH1 0xA0 DUP3 ADD MSTORE PUSH32 0xAE1F00F8CA5DF624ACFA3BC85ECCDDE83B05574D6C39203C4F6E0A7F9A69AC82 SWAP1 PUSH1 0xC0 ADD PUSH1 0x40 MLOAD DUP1 SWAP2 SUB SWAP1 LOG1 SWAP8 SWAP7 POP POP POP POP POP POP POP JUMP JUMPDEST PUSH1 0x2 PUSH1 0x0 SLOAD SUB PUSH2 0xF26 JUMPI PUSH1 0x40 MLOAD PUSH3 0x461BCD PUSH1 0xE5 SHL DUP2 MSTORE PUSH1 0x4 ADD PUSH2 0x3EC SWAP1 PUSH2 0x1D1E JUMP JUMPDEST PUSH1 0x2 PUSH1 0x0 SWAP1 DUP2 SSTORE DUP2 DUP2 MSTORE PUSH1 0x9 PUSH1 0x20 MSTORE PUSH1 0x40 SWAP1 KECCAK256 PUSH1 0x4 ADD SLOAD PUSH1 0xFF AND ISZERO PUSH2 0xF7F JUMPI PUSH1 0x40 MLOAD PUSH3 0x461BCD PUSH1 0xE5 SHL DUP2 MSTORE PUSH1 0x20 PUSH1 0x4 DUP3 ADD MSTORE PUSH1 0xF PUSH1 0x24 DUP3 ADD MSTORE PUSH15 0x185B1C9958591E481CD95D1D1B1959 PUSH1 0x8A SHL PUSH1 0x44 DUP3 ADD MSTORE PUSH1 0x64 ADD PUSH2 0x3EC JUMP JUMPDEST PUSH1 0x5 SLOAD PUSH1 0xFF AND PUSH1 0x1 EQ DUP1 PUSH2 0xF98 JUMPI POP PUSH1 0x5 SLOAD PUSH1 0xFF AND PUSH1 0x2 EQ JUMPDEST PUSH2 0xFD2 JUMPI PUSH1 0x40 MLOAD PUSH3 0x461BCD PUSH1 0xE5 SHL DUP2 MSTORE PUSH1 0x20 PUSH1 0x4 DUP3 ADD MSTORE PUSH1 0xB PUSH1 0x24 DUP3 ADD MSTORE PUSH11 0x1DDA5B881B9BDD081CD95D PUSH1 0xAA SHL PUSH1 0x44 DUP3 ADD MSTORE PUSH1 0x64 ADD PUSH2 0x3EC JUMP JUMPDEST PUSH1 0x5 SLOAD PUSH1 0x0 SWAP1 DUP2 SWAP1 DUP2 SWAP1 DUP2 SWAP1 PUSH1 0xFF AND PUSH1 0x1 SUB PUSH2 0x11BC JUMPI PUSH1 0x0 DUP6 DUP2 MSTORE PUSH1 0x9 PUSH1 0x20 SWAP1 DUP2 MSTORE PUSH1 0x40 DUP1 DUP4 KECCAK256 SLOAD DUP4 MSTORE PUSH1 0x7 DUP3 MSTORE SWAP2 DUP3 SWAP1 KECCAK256 SLOAD DUP3 MLOAD PUSH4 0x55C4A8BF PUSH1 0xE0 SHL DUP2 MSTORE SWAP3 MLOAD PUSH1 0x1 PUSH1 0x1 PUSH1 0xA0 SHL SUB SWAP2 DUP3 AND SWAP8 POP PUSH1 0x64 SWAP4 PUSH32 0x0 SWAP1 SWAP3 AND SWAP3 PUSH4 0x55C4A8BF SWAP3 PUSH1 0x4 DUP1 DUP3 ADD SWAP4 SWAP2 DUP3 SWAP1 SUB ADD DUP2 DUP7 GAS STATICCALL ISZERO DUP1 ISZERO PUSH2 0x106E JUMPI RETURNDATASIZE PUSH1 0x0 DUP1 RETURNDATACOPY RETURNDATASIZE PUSH1 0x0 REVERT JUMPDEST POP POP POP POP PUSH1 0x40 MLOAD RETURNDATASIZE PUSH1 0x1F NOT PUSH1 0x1F DUP3 ADD AND DUP3 ADD DUP1 PUSH1 0x40 MSTORE POP DUP2 ADD SWAP1 PUSH2 0x1092 SWAP2 SWAP1 PUSH2 0x1D55 JUMP JUMPDEST PUSH2 0x109D SWAP1 PUSH1 0x64 PUSH2 0x1D8B JUMP JUMPDEST PUSH1 0x0 DUP8 DUP2 MSTORE PUSH1 0x9 PUSH1 0x20 MSTORE PUSH1 0x40 SWAP1 KECCAK256 PUSH1 0x3 ADD SLOAD PUSH2 0x10B9 SWAP2 SWAP1 PUSH2 0x1DC6 JUMP JUMPDEST PUSH2 0x10C3 SWAP2 SWAP1 PUSH2 0x1DA4 JUMP JUMPDEST PUSH1 0x0 DUP7 DUP2 MSTORE PUSH1 0x9 PUSH1 0x20 MSTORE PUSH1 0x40 SWAP1 KECCAK256 PUSH1 0x2 ADD SLOAD PUSH2 0x10DF SWAP2 SWAP1 PUSH2 0x1DDD JUMP JUMPDEST SWAP2 POP PUSH1 0x64 PUSH32 0x0 PUSH1 0x1 PUSH1 0x1 PUSH1 0xA0 SHL SUB AND PUSH4 0x55C4A8BF PUSH1 0x40 MLOAD DUP2 PUSH4 0xFFFFFFFF AND PUSH1 0xE0 SHL DUP2 MSTORE PUSH1 0x4 ADD PUSH1 0x20 PUSH1 0x40 MLOAD DUP1 DUP4 SUB DUP2 DUP7 GAS STATICCALL ISZERO DUP1 ISZERO PUSH2 0x1141 JUMPI RETURNDATASIZE PUSH1 0x0 DUP1 RETURNDATACOPY RETURNDATASIZE PUSH1 0x0 REVERT JUMPDEST POP POP POP POP PUSH1 0x40 MLOAD RETURNDATASIZE PUSH1 0x1F NOT PUSH1 0x1F DUP3 ADD AND DUP3 ADD DUP1 PUSH1 0x40 MSTORE POP DUP2 ADD SWAP1 PUSH2 0x1165 SWAP2 SWAP1 PUSH2 0x1D55 JUMP JUMPDEST PUSH1 0x0 DUP8 DUP2 MSTORE PUSH1 0x9 PUSH1 0x20 MSTORE PUSH1 0x40 SWAP1 KECCAK256 PUSH1 0x3 ADD SLOAD PUSH2 0x1181 SWAP2 SWAP1 PUSH2 0x1DC6 JUMP JUMPDEST PUSH2 0x118B SWAP2 SWAP1 PUSH2 0x1DA4 JUMP JUMPDEST PUSH1 0x0 DUP7 DUP2 MSTORE PUSH1 0x9 PUSH1 0x20 SWAP1 DUP2 MSTORE PUSH1 0x40 DUP1 DUP4 KECCAK256 SLOAD DUP4 MSTORE PUSH1 0x7 SWAP1 SWAP2 MSTORE SWAP1 KECCAK256 PUSH1 0x1 ADD SLOAD PUSH1 0x1 PUSH1 0x1 PUSH1 0xA0 SHL SUB AND SWAP4 POP SWAP1 POP PUSH2 0x13D4 JUMP JUMPDEST PUSH1 0x5 SLOAD PUSH1 0xFF AND PUSH1 0x2 SUB PUSH2 0x13A4 JUMPI PUSH1 0x0 DUP6 DUP2 MSTORE PUSH1 0x9 PUSH1 0x20 SWAP1 DUP2 MSTORE PUSH1 0x40 DUP1 DUP4 KECCAK256 PUSH1 0x1 ADD SLOAD DUP4 MSTORE PUSH1 0x7 DUP3 MSTORE SWAP2 DUP3 SWAP1 KECCAK256 SLOAD DUP3 MLOAD PUSH4 0x55C4A8BF PUSH1 0xE0 SHL DUP2 MSTORE SWAP3 MLOAD PUSH1 0x1 PUSH1 0x1 PUSH1 0xA0 SHL SUB SWAP2 DUP3 AND SWAP8 POP PUSH1 0x64 SWAP4 PUSH32 0x0 SWAP1 SWAP3 AND SWAP3 PUSH4 0x55C4A8BF SWAP3 PUSH1 0x4 DUP1 DUP3 ADD SWAP4 SWAP2 DUP3 SWAP1 SUB ADD DUP2 DUP7 GAS STATICCALL ISZERO DUP1 ISZERO PUSH2 0x1252 JUMPI RETURNDATASIZE PUSH1 0x0 DUP1 RETURNDATACOPY RETURNDATASIZE PUSH1 0x0 REVERT JUMPDEST POP POP POP POP PUSH1 0x40 MLOAD RETURNDATASIZE PUSH1 0x1F NOT PUSH1 0x1F DUP3 ADD AND DUP3 ADD DUP1 PUSH1 0x40 MSTORE POP DUP2 ADD SWAP1 PUSH2 0x1276 SWAP2 SWAP1 PUSH2 0x1D55 JUMP JUMPDEST PUSH2 0x1281 SWAP1 PUSH1 0x64 PUSH2 0x1D8B JUMP JUMPDEST PUSH1 0x0 DUP8 DUP2 MSTORE PUSH1 0x9 PUSH1 0x20 MSTORE PUSH1 0x40 SWAP1 KECCAK256 PUSH1 0x2 ADD SLOAD PUSH2 0x129D SWAP2 SWAP1 PUSH2 0x1DC6 JUMP JUMPDEST PUSH2 0x12A7 SWAP2 SWAP1 PUSH2 0x1DA4 JUMP JUMPDEST PUSH1 0x0 DUP7 DUP2 MSTORE PUSH1 0x9 PUSH1 0x20 MSTORE PUSH1 0x40 SWAP1 KECCAK256 PUSH1 0x3 ADD SLOAD PUSH2 0x12C3 SWAP2 SWAP1 PUSH2 0x1DDD JUMP JUMPDEST SWAP2 POP PUSH1 0x64 PUSH32 0x0 PUSH1 0x1 PUSH1 0x1 PUSH1 0xA0 SHL SUB AND PUSH4 0x55C4A8BF PUSH1 0x40 MLOAD DUP2 PUSH4 0xFFFFFFFF AND PUSH1 0xE0 SHL DUP2 MSTORE PUSH1 0x4 ADD PUSH1 0x20 PUSH1 0x40 MLOAD DUP1 DUP4 SUB DUP2 DUP7 GAS STATICCALL ISZERO DUP1 ISZERO PUSH2 0x1325 JUMPI RETURNDATASIZE PUSH1 0x0 DUP1 RETURNDATACOPY RETURNDATASIZE PUSH1 0x0 REVERT JUMPDEST POP POP POP POP PUSH1 0x40 MLOAD RETURNDATASIZE PUSH1 0x1F NOT PUSH1 0x1F DUP3 ADD AND DUP3 ADD DUP1 PUSH1 0x40 MSTORE POP DUP2 ADD SWAP1 PUSH2 0x1349 SWAP2 SWAP1 PUSH2 0x1D55 JUMP JUMPDEST PUSH1 0x0 DUP8 DUP2 MSTORE PUSH1 0x9 PUSH1 0x20 MSTORE PUSH1 0x40 SWAP1 KECCAK256 PUSH1 0x2 ADD SLOAD PUSH2 0x1365 SWAP2 SWAP1 PUSH2 0x1DC6 JUMP JUMPDEST PUSH2 0x136F SWAP2 SWAP1 PUSH2 0x1DA4 JUMP JUMPDEST PUSH1 0x0 DUP7 DUP2 MSTORE PUSH1 0x9 PUSH1 0x20 SWAP1 DUP2 MSTORE PUSH1 0x40 DUP1 DUP4 KECCAK256 PUSH1 0x1 SWAP1 DUP2 ADD SLOAD DUP5 MSTORE PUSH1 0x7 SWAP1 SWAP3 MSTORE SWAP1 SWAP2 KECCAK256 ADD SLOAD PUSH1 0x1 PUSH1 0x1 PUSH1 0xA0 SHL SUB AND SWAP4 POP SWAP1 POP PUSH2 0x13D4 JUMP JUMPDEST PUSH1 0x40 MLOAD PUSH3 0x461BCD PUSH1 0xE5 SHL DUP2 MSTORE PUSH1 0x20 PUSH1 0x4 DUP3 ADD MSTORE PUSH1 0x5 PUSH1 0x24 DUP3 ADD MSTORE PUSH5 0x3C103BB4B7 PUSH1 0xD9 SHL PUSH1 0x44 DUP3 ADD MSTORE PUSH1 0x64 ADD PUSH2 0x3EC JUMP JUMPDEST PUSH1 0x1 PUSH1 0x1 PUSH1 0xA0 SHL SUB DUP4 AND PUSH2 0x1467 JUMPI PUSH32 0x0 PUSH1 0x1 PUSH1 0x1 PUSH1 0xA0 SHL SUB AND PUSH4 0x9953B2F PUSH1 0x40 MLOAD DUP2 PUSH4 0xFFFFFFFF AND PUSH1 0xE0 SHL DUP2 MSTORE PUSH1 0x4 ADD PUSH1 0x20 PUSH1 0x40 MLOAD DUP1 DUP4 SUB DUP2 DUP7 GAS STATICCALL ISZERO DUP1 ISZERO PUSH2 0x1440 JUMPI RETURNDATASIZE PUSH1 0x0 DUP1 RETURNDATACOPY RETURNDATASIZE PUSH1 0x0 REVERT JUMPDEST POP POP POP POP PUSH1 0x40 MLOAD RETURNDATASIZE PUSH1 0x1F NOT PUSH1 0x1F DUP3 ADD AND DUP3 ADD DUP1 PUSH1 0x40 MSTORE POP DUP2 ADD SWAP1 PUSH2 0x1464 SWAP2 SWAP1 PUSH2 0x1DF0 JUMP JUMPDEST SWAP3 POP JUMPDEST PUSH1 0x1 PUSH1 0x1 PUSH1 0xA0 SHL SUB DUP5 AND PUSH1 0x0 SWAP1 DUP2 MSTORE PUSH1 0x6 PUSH1 0x20 MSTORE PUSH1 0x40 DUP2 KECCAK256 DUP1 SLOAD DUP5 SWAP3 SWAP1 PUSH2 0x148F SWAP1 DUP5 SWAP1 PUSH2 0x1DDD JUMP JUMPDEST SWAP3 POP POP DUP2 SWAP1 SSTORE POP PUSH1 0x64 PUSH32 0x0 PUSH1 0x1 PUSH1 0x1 PUSH1 0xA0 SHL SUB AND PUSH4 0x6A0CCD9D PUSH1 0x40 MLOAD DUP2 PUSH4 0xFFFFFFFF AND PUSH1 0xE0 SHL DUP2 MSTORE PUSH1 0x4 ADD PUSH1 0x20 PUSH1 0x40 MLOAD DUP1 DUP4 SUB DUP2 DUP7 GAS STATICCALL ISZERO DUP1 ISZERO PUSH2 0x14F6 JUMPI RETURNDATASIZE PUSH1 0x0 DUP1 RETURNDATACOPY RETURNDATASIZE PUSH1 0x0 REVERT JUMPDEST POP POP POP POP PUSH1 0x40 MLOAD RETURNDATASIZE PUSH1 0x1F NOT PUSH1 0x1F DUP3 ADD AND DUP3 ADD DUP1 PUSH1 0x40 MSTORE POP DUP2 ADD SWAP1 PUSH2 0x151A SWAP2 SWAP1 PUSH2 0x1D55 JUMP JUMPDEST PUSH2 0x1524 SWAP1 DUP4 PUSH2 0x1DC6 JUMP JUMPDEST PUSH2 0x152E SWAP2 SWAP1 PUSH2 0x1DA4 JUMP JUMPDEST PUSH1 0x6 PUSH1 0x0 PUSH32 0x0 PUSH1 0x1 PUSH1 0x1 PUSH1 0xA0 SHL SUB AND PUSH4 0xB7640A54 PUSH1 0x40 MLOAD DUP2 PUSH4 0xFFFFFFFF AND PUSH1 0xE0 SHL DUP2 MSTORE PUSH1 0x4 ADD PUSH1 0x20 PUSH1 0x40 MLOAD DUP1 DUP4 SUB DUP2 DUP7 GAS STATICCALL ISZERO DUP1 ISZERO PUSH2 0x1590 JUMPI RETURNDATASIZE PUSH1 0x0 DUP1 RETURNDATACOPY RETURNDATASIZE PUSH1 0x0 REVERT JUMPDEST POP POP POP POP PUSH1 0x40 MLOAD RETURNDATASIZE PUSH1 0x1F NOT PUSH1 0x1F DUP3 ADD AND DUP3 ADD DUP1 PUSH1 0x40 MSTORE POP DUP2 ADD SWAP1 PUSH2 0x15B4 SWAP2 SWAP1 PUSH2 0x1DF0 JUMP JUMPDEST PUSH1 0x1 PUSH1 0x1 PUSH1 0xA0 SHL SUB AND PUSH1 0x1 PUSH1 0x1 PUSH1 0xA0 SHL SUB AND DUP2 MSTORE PUSH1 0x20 ADD SWAP1 DUP2 MSTORE PUSH1 0x20 ADD PUSH1 0x0 KECCAK256 PUSH1 0x0 DUP3 DUP3 SLOAD PUSH2 0x15E3 SWAP2 SWAP1 PUSH2 0x1DDD JUMP JUMPDEST SWAP3 POP POP DUP2 SWAP1 SSTORE POP PUSH1 0x64 PUSH32 0x0 PUSH1 0x1 PUSH1 0x1 PUSH1 0xA0 SHL SUB AND PUSH4 0x28576D45 PUSH1 0x40 MLOAD DUP2 PUSH4 0xFFFFFFFF AND PUSH1 0xE0 SHL DUP2 MSTORE PUSH1 0x4 ADD PUSH1 0x20 PUSH1 0x40 MLOAD DUP1 DUP4 SUB DUP2 DUP7 GAS STATICCALL ISZERO DUP1 ISZERO PUSH2 0x164A JUMPI RETURNDATASIZE PUSH1 0x0 DUP1 RETURNDATACOPY RETURNDATASIZE PUSH1 0x0 REVERT JUMPDEST POP POP POP POP PUSH1 0x40 MLOAD RETURNDATASIZE PUSH1 0x1F NOT PUSH1 0x1F DUP3 ADD AND DUP3 ADD DUP1 PUSH1 0x40 MSTORE POP DUP2 ADD SWAP1 PUSH2 0x166E SWAP2 SWAP1 PUSH2 0x1D55 JUMP JUMPDEST PUSH2 0x1678 SWAP1 DUP4 PUSH2 0x1DC6 JUMP JUMPDEST PUSH2 0x1682 SWAP2 SWAP1 PUSH2 0x1DA4 JUMP JUMPDEST PUSH1 0x6 PUSH1 0x0 PUSH32 0x0 PUSH1 0x1 PUSH1 0x1 PUSH1 0xA0 SHL SUB AND PUSH4 0x9953B2F PUSH1 0x40 MLOAD DUP2 PUSH4 0xFFFFFFFF AND PUSH1 0xE0 SHL DUP2 MSTORE PUSH1 0x4 ADD PUSH1 0x20 PUSH1 0x40 MLOAD DUP1 DUP4 SUB DUP2 DUP7 GAS STATICCALL ISZERO DUP1 ISZERO PUSH2 0x16E4 JUMPI RETURNDATASIZE PUSH1 0x0 DUP1 RETURNDATACOPY RETURNDATASIZE PUSH1 0x0 REVERT JUMPDEST POP POP POP POP PUSH1 0x40 MLOAD RETURNDATASIZE PUSH1 0x1F NOT PUSH1 0x1F DUP3 ADD AND DUP3 ADD DUP1 PUSH1 0x40 MSTORE POP DUP2 ADD SWAP1 PUSH2 0x1708 SWAP2 SWAP1 PUSH2 0x1DF0 JUMP JUMPDEST PUSH1 0x1 PUSH1 0x1 PUSH1 0xA0 SHL SUB AND PUSH1 0x1 PUSH1 0x1 PUSH1 0xA0 SHL SUB AND DUP2 MSTORE PUSH1 0x20 ADD SWAP1 DUP2 MSTORE PUSH1 0x20 ADD PUSH1 0x0 KECCAK256 PUSH1 0x0 DUP3 DUP3 SLOAD PUSH2 0x1737 SWAP2 SWAP1 PUSH2 0x1DDD JUMP JUMPDEST SWAP3 POP POP DUP2 SWAP1 SSTORE POP PUSH1 0x64 PUSH32 0x0 PUSH1 0x1 PUSH1 0x1 PUSH1 0xA0 SHL SUB AND PUSH4 0x54CD1A5C PUSH1 0x40 MLOAD DUP2 PUSH4 0xFFFFFFFF AND PUSH1 0xE0 SHL DUP2 MSTORE PUSH1 0x4 ADD PUSH1 0x20 PUSH1 0x40 MLOAD DUP1 DUP4 SUB DUP2 DUP7 GAS STATICCALL ISZERO DUP1 ISZERO PUSH2 0x179E JUMPI RETURNDATASIZE PUSH1 0x0 DUP1 RETURNDATACOPY RETURNDATASIZE PUSH1 0x0 REVERT JUMPDEST POP POP POP POP PUSH1 0x40 MLOAD RETURNDATASIZE PUSH1 0x1F NOT PUSH1 0x1F DUP3 ADD AND DUP3 ADD DUP1 PUSH1 0x40 MSTORE POP DUP2 ADD SWAP1 PUSH2 0x17C2 SWAP2 SWAP1 PUSH2 0x1D55 JUMP JUMPDEST PUSH2 0x17CC SWAP1 DUP4 PUSH2 0x1DC6 JUMP JUMPDEST PUSH2 0x17D6 SWAP2 SWAP1 PUSH2 0x1DA4 JUMP JUMPDEST PUSH1 0x1 PUSH1 0x1 PUSH1 0xA0 SHL SUB DUP5 AND PUSH1 0x0 SWAP1 DUP2 MSTORE PUSH1 0x6 PUSH1 0x20 MSTORE PUSH1 0x40 DUP2 KECCAK256 DUP1 SLOAD SWAP1 SWAP2 SWAP1 PUSH2 0x17FE SWAP1 DUP5 SWAP1 PUSH2 0x1DDD JUMP JUMPDEST SWAP1 SWAP2 SSTORE POP POP POP PUSH1 0x0 DUP5 DUP2 MSTORE PUSH1 0x9 PUSH1 0x20 MSTORE PUSH1 0x40 SWAP1 KECCAK256 PUSH1 0x4 ADD DUP1 SLOAD PUSH1 0xFF NOT AND PUSH1 0x1 OR SWAP1 SSTORE POP POP POP POP PUSH1 0x1 PUSH1 0x0 SSTORE JUMP JUMPDEST PUSH1 0x0 DUP2 DUP2 MSTORE PUSH1 0x9 PUSH1 0x20 SWAP1 DUP2 MSTORE PUSH1 0x40 DUP1 DUP4 KECCAK256 DUP1 SLOAD DUP5 MSTORE PUSH1 0x7 DUP4 MSTORE DUP2 DUP5 KECCAK256 SLOAD PUSH1 0x1 DUP3 ADD SLOAD DUP6 MSTORE DUP3 DUP6 KECCAK256 SLOAD PUSH1 0x2 SWAP1 SWAP3 ADD SLOAD PUSH1 0x1 PUSH1 0x1 PUSH1 0xA0 SHL SUB SWAP2 DUP3 AND DUP1 DUP8 MSTORE PUSH1 0x6 SWAP1 SWAP6 MSTORE SWAP3 DUP6 KECCAK256 DUP1 SLOAD SWAP5 SWAP6 SWAP2 SWAP1 SWAP3 AND SWAP4 PUSH2 0x1883 SWAP1 DUP5 SWAP1 PUSH2 0x1DDD JUMP JUMPDEST SWAP1 SWAP2 SSTORE POP POP PUSH1 0x0 DUP4 DUP2 MSTORE PUSH1 0x9 PUSH1 0x20 SWAP1 DUP2 MSTORE PUSH1 0x40 DUP1 DUP4 KECCAK256 PUSH1 0x3 ADD SLOAD PUSH1 0x1 PUSH1 0x1 PUSH1 0xA0 SHL SUB DUP6 AND DUP5 MSTORE PUSH1 0x6 SWAP1 SWAP3 MSTORE DUP3 KECCAK256 DUP1 SLOAD SWAP2 SWAP3 SWAP1 SWAP2 PUSH2 0x18C1 SWAP1 DUP5 SWAP1 PUSH2 0x1DDD JUMP JUMPDEST SWAP1 SWAP2 SSTORE POP POP POP PUSH1 0x0 SWAP2 DUP3 MSTORE POP PUSH1 0x9 PUSH1 0x20 MSTORE PUSH1 0x40 SWAP1 KECCAK256 PUSH1 0x4 ADD DUP1 SLOAD PUSH1 0xFF NOT AND PUSH1 0x1 OR SWAP1 SSTORE JUMP JUMPDEST PUSH1 0x0 DUP1 JUMPDEST PUSH1 0x3 SLOAD PUSH1 0x40 MLOAD PUSH12 0xFFFFFFFFFFFFFFFFFFFFFFFF NOT PUSH1 0x60 DUP12 DUP2 SHL DUP3 AND PUSH1 0x20 DUP5 ADD MSTORE ADDRESS SWAP1 SHL AND PUSH1 0x34 DUP3 ADD MSTORE PUSH1 0x48 DUP2 ADD SWAP2 SWAP1 SWAP2 MSTORE TIMESTAMP PUSH1 0x68 DUP3 ADD MSTORE DIFFICULTY PUSH1 0x88 DUP3 ADD MSTORE PUSH1 0xA8 ADD PUSH1 0x40 DUP1 MLOAD PUSH1 0x1F NOT DUP2 DUP5 SUB ADD DUP2 MSTORE SWAP2 DUP2 MSTORE DUP2 MLOAD PUSH1 0x20 SWAP3 DUP4 ADD KECCAK256 PUSH1 0x0 DUP2 DUP2 MSTORE PUSH1 0x7 SWAP1 SWAP4 MSTORE SWAP2 KECCAK256 PUSH1 0x2 ADD SLOAD SWAP1 SWAP2 POP PUSH2 0x18EA JUMPI PUSH1 0x40 DUP1 MLOAD PUSH1 0xC0 DUP2 ADD DUP3 MSTORE PUSH1 0x1 PUSH1 0x1 PUSH1 0xA0 SHL SUB DUP1 DUP12 AND DUP1 DUP4 MSTORE DUP11 DUP3 AND PUSH1 0x20 DUP1 DUP6 ADD SWAP2 DUP3 MSTORE DUP5 DUP7 ADD DUP13 DUP2 MSTORE PUSH1 0x60 DUP7 ADD DUP13 DUP2 MSTORE PUSH1 0x80 DUP8 ADD DUP13 DUP2 MSTORE PUSH1 0xFF DUP1 DUP14 AND PUSH1 0xA0 DUP11 ADD SWAP1 DUP2 MSTORE PUSH1 0x0 DUP13 DUP2 MSTORE PUSH1 0x7 DUP8 MSTORE DUP12 DUP2 KECCAK256 SWAP11 MLOAD DUP12 SLOAD SWAP1 DUP12 AND PUSH1 0x1 PUSH1 0x1 PUSH1 0xA0 SHL SUB NOT SWAP2 DUP3 AND OR DUP13 SSTORE SWAP8 MLOAD PUSH1 0x1 DUP1 DUP14 ADD DUP1 SLOAD SWAP3 SWAP1 SWAP13 AND SWAP2 SWAP1 SWAP10 AND OR SWAP1 SWAP10 SSTORE SWAP4 MLOAD PUSH1 0x2 DUP11 ADD SSTORE SWAP2 MLOAD PUSH1 0x3 DUP1 DUP11 ADD SWAP2 SWAP1 SWAP2 SSTORE SWAP1 MLOAD PUSH1 0x4 DUP10 ADD SSTORE SWAP2 MLOAD PUSH1 0x5 SWAP1 SWAP8 ADD DUP1 SLOAD SWAP8 SWAP1 SWAP2 AND PUSH1 0xFF NOT SWAP1 SWAP8 AND SWAP7 SWAP1 SWAP7 OR SWAP1 SWAP6 SSTORE DUP5 SLOAD DUP1 DUP4 ADD SWAP1 SWAP6 SSTORE PUSH32 0xC2575A0E9E593C00F959F8C92F12DB2869C3395A3B0502D05E2516446F71F85B SWAP1 SWAP5 ADD DUP7 SWAP1 SSTORE SWAP1 DUP3 MSTORE PUSH1 0x8 DUP4 MSTORE SWAP3 DUP2 KECCAK256 DUP1 SLOAD SWAP4 DUP5 ADD DUP2 SSTORE DUP2 MSTORE KECCAK256 ADD DUP2 SWAP1 SSTORE SWAP1 POP SWAP7 SWAP6 POP POP POP POP POP POP JUMP JUMPDEST PUSH1 0x0 DUP1 JUMPDEST PUSH1 0x2 SLOAD PUSH1 0x40 DUP1 MLOAD PUSH1 0x20 DUP2 ADD DUP10 SWAP1 MSTORE SWAP1 DUP2 ADD DUP8 SWAP1 MSTORE PUSH1 0x60 DUP2 ADD SWAP2 SWAP1 SWAP2 MSTORE TIMESTAMP PUSH1 0x80 DUP3 ADD MSTORE DIFFICULTY PUSH1 0xA0 DUP3 ADD MSTORE PUSH1 0xC0 ADD PUSH1 0x40 DUP1 MLOAD PUSH1 0x1F NOT DUP2 DUP5 SUB ADD DUP2 MSTORE SWAP2 DUP2 MSTORE DUP2 MLOAD PUSH1 0x20 SWAP3 DUP4 ADD KECCAK256 PUSH1 0x0 DUP2 DUP2 MSTORE PUSH1 0x9 SWAP1 SWAP4 MSTORE SWAP2 KECCAK256 PUSH1 0x2 ADD SLOAD SWAP1 SWAP2 POP PUSH2 0x1A5D JUMPI PUSH1 0x40 DUP1 MLOAD PUSH1 0xA0 DUP2 ADD DUP3 MSTORE SWAP7 DUP8 MSTORE PUSH1 0x20 DUP1 DUP9 ADD SWAP7 DUP8 MSTORE DUP8 DUP3 ADD SWAP6 DUP7 MSTORE PUSH1 0x60 DUP9 ADD SWAP5 DUP6 MSTORE PUSH1 0x0 PUSH1 0x80 DUP10 ADD DUP2 DUP2 MSTORE DUP5 DUP3 MSTORE PUSH1 0x9 SWAP1 SWAP3 MSTORE SWAP2 DUP3 KECCAK256 SWAP8 MLOAD DUP9 SSTORE SWAP6 MLOAD PUSH1 0x1 DUP1 DUP10 ADD SWAP2 SWAP1 SWAP2 SSTORE SWAP5 MLOAD PUSH1 0x2 DUP1 DUP10 ADD SWAP2 SWAP1 SWAP2 SSTORE SWAP4 MLOAD PUSH1 0x3 DUP9 ADD SSTORE SWAP5 MLOAD PUSH1 0x4 SWAP1 SWAP7 ADD DUP1 SLOAD PUSH1 0xFF NOT AND SWAP7 ISZERO ISZERO SWAP7 SWAP1 SWAP7 OR SWAP1 SWAP6 SSTORE POP DUP1 SLOAD SWAP2 DUP3 ADD DUP2 SSTORE SWAP1 SWAP2 MSTORE PUSH32 0x405787FA12A823E0F2B7631CC41B3BA8828B3321CA811111FA75CD3AA3BB5ACE ADD DUP2 SWAP1 SSTORE SWAP1 JUMP JUMPDEST PUSH1 0x1 PUSH1 0x1 PUSH1 0xA0 SHL SUB DUP2 AND DUP2 EQ PUSH2 0x28E JUMPI PUSH1 0x0 DUP1 REVERT JUMPDEST PUSH1 0x0 PUSH1 0x20 DUP3 DUP5 SUB SLT ISZERO PUSH2 0x1B7F JUMPI PUSH1 0x0 DUP1 REVERT JUMPDEST DUP2 CALLDATALOAD PUSH2 0x1B8A DUP2 PUSH2 0x1B58 JUMP JUMPDEST SWAP4 SWAP3 POP POP POP JUMP JUMPDEST PUSH1 0x20 DUP1 DUP3 MSTORE DUP3 MLOAD DUP3 DUP3 ADD DUP2 SWAP1 MSTORE PUSH1 0x0 SWAP2 SWAP1 PUSH1 0x40 SWAP1 DUP2 DUP6 ADD SWAP1 DUP7 DUP5 ADD DUP6 JUMPDEST DUP3 DUP2 LT ISZERO PUSH2 0x1C0B JUMPI DUP2 MLOAD DUP1 MLOAD PUSH1 0x1 PUSH1 0x1 PUSH1 0xA0 SHL SUB SWAP1 DUP2 AND DUP7 MSTORE DUP8 DUP3 ADD MLOAD AND DUP8 DUP7 ADD MSTORE DUP6 DUP2 ADD MLOAD DUP7 DUP7 ADD MSTORE PUSH1 0x60 DUP1 DUP3 ADD MLOAD SWAP1 DUP7 ADD MSTORE PUSH1 0x80 DUP1 DUP3 ADD MLOAD SWAP1 DUP7 ADD MSTORE PUSH1 0xA0 SWAP1 DUP2 ADD MLOAD PUSH1 0xFF AND SWAP1 DUP6 ADD MSTORE PUSH1 0xC0 SWAP1 SWAP4 ADD SWAP3 SWAP1 DUP6 ADD SWAP1 PUSH1 0x1 ADD PUSH2 0x1BAE JUMP JUMPDEST POP SWAP2 SWAP8 SWAP7 POP POP POP POP POP POP POP JUMP JUMPDEST PUSH1 0x0 PUSH1 0x20 DUP3 DUP5 SUB SLT ISZERO PUSH2 0x1C2A JUMPI PUSH1 0x0 DUP1 REVERT JUMPDEST POP CALLDATALOAD SWAP2 SWAP1 POP JUMP JUMPDEST DUP1 CALLDATALOAD PUSH1 0xFF DUP2 AND DUP2 EQ PUSH2 0x910 JUMPI PUSH1 0x0 DUP1 REVERT JUMPDEST PUSH1 0x0 PUSH1 0x20 DUP3 DUP5 SUB SLT ISZERO PUSH2 0x1C54 JUMPI PUSH1 0x0 DUP1 REVERT JUMPDEST PUSH2 0x1B8A DUP3 PUSH2 0x1C31 JUMP JUMPDEST DUP1 ISZERO ISZERO DUP2 EQ PUSH2 0x28E JUMPI PUSH1 0x0 DUP1 REVERT JUMPDEST PUSH1 0x0 DUP1 PUSH1 0x0 DUP1 PUSH1 0x0 DUP1 PUSH1 0xC0 DUP8 DUP10 SUB SLT ISZERO PUSH2 0x1C84 JUMPI PUSH1 0x0 DUP1 REVERT JUMPDEST DUP7 CALLDATALOAD PUSH2 0x1C8F DUP2 PUSH2 0x1B58 JUMP JUMPDEST SWAP6 POP PUSH1 0x20 DUP8 ADD CALLDATALOAD PUSH2 0x1C9F DUP2 PUSH2 0x1B58 JUMP JUMPDEST SWAP5 POP PUSH1 0x40 DUP8 ADD CALLDATALOAD SWAP4 POP PUSH1 0x60 DUP8 ADD CALLDATALOAD SWAP3 POP PUSH2 0x1CBB PUSH1 0x80 DUP9 ADD PUSH2 0x1C31 JUMP JUMPDEST SWAP2 POP PUSH1 0xA0 DUP8 ADD CALLDATALOAD PUSH2 0x1CCB DUP2 PUSH2 0x1C5D JUMP JUMPDEST DUP1 SWAP2 POP POP SWAP3 SWAP6 POP SWAP3 SWAP6 POP SWAP3 SWAP6 JUMP JUMPDEST PUSH4 0x4E487B71 PUSH1 0xE0 SHL PUSH1 0x0 MSTORE PUSH1 0x32 PUSH1 0x4 MSTORE PUSH1 0x24 PUSH1 0x0 REVERT JUMPDEST PUSH4 0x4E487B71 PUSH1 0xE0 SHL PUSH1 0x0 MSTORE PUSH1 0x11 PUSH1 0x4 MSTORE PUSH1 0x24 PUSH1 0x0 REVERT JUMPDEST PUSH1 0x0 PUSH1 0x1 DUP3 ADD PUSH2 0x1D17 JUMPI PUSH2 0x1D17 PUSH2 0x1CEF JUMP JUMPDEST POP PUSH1 0x1 ADD SWAP1 JUMP JUMPDEST PUSH1 0x20 DUP1 DUP3 MSTORE PUSH1 0x1F SWAP1 DUP3 ADD MSTORE PUSH32 0x5265656E7472616E637947756172643A207265656E7472616E742063616C6C00 PUSH1 0x40 DUP3 ADD MSTORE PUSH1 0x60 ADD SWAP1 JUMP JUMPDEST PUSH1 0x0 PUSH1 0x20 DUP3 DUP5 SUB SLT ISZERO PUSH2 0x1D67 JUMPI PUSH1 0x0 DUP1 REVERT JUMPDEST POP MLOAD SWAP2 SWAP1 POP JUMP JUMPDEST PUSH1 0x0 PUSH1 0x20 DUP3 DUP5 SUB SLT ISZERO PUSH2 0x1D80 JUMPI PUSH1 0x0 DUP1 REVERT JUMPDEST DUP2 MLOAD PUSH2 0x1B8A DUP2 PUSH2 0x1C5D JUMP JUMPDEST DUP2 DUP2 SUB DUP2 DUP2 GT ISZERO PUSH2 0x1D9E JUMPI PUSH2 0x1D9E PUSH2 0x1CEF JUMP JUMPDEST SWAP3 SWAP2 POP POP JUMP JUMPDEST PUSH1 0x0 DUP3 PUSH2 0x1DC1 JUMPI PUSH4 0x4E487B71 PUSH1 0xE0 SHL PUSH1 0x0 MSTORE PUSH1 0x12 PUSH1 0x4 MSTORE PUSH1 0x24 PUSH1 0x0 REVERT JUMPDEST POP DIV SWAP1 JUMP JUMPDEST DUP1 DUP3 MUL DUP2 ISZERO DUP3 DUP3 DIV DUP5 EQ OR PUSH2 0x1D9E JUMPI PUSH2 0x1D9E PUSH2 0x1CEF JUMP JUMPDEST DUP1 DUP3 ADD DUP1 DUP3 GT ISZERO PUSH2 0x1D9E JUMPI PUSH2 0x1D9E PUSH2 0x1CEF JUMP JUMPDEST PUSH1 0x0 PUSH1 0x20 DUP3 DUP5 SUB SLT ISZERO PUSH2 0x1E02 JUMPI PUSH1 0x0 DUP1 REVERT JUMPDEST DUP2 MLOAD PUSH2 0x1B8A DUP2 PUSH2 0x1B58 JUMP INVALID LOG2 PUSH5 0x6970667358 0x22 SLT KECCAK256 PUSH25 0xB993C9C4BE6B52F2F344BE39229BC568B1BF3C0D6080A9BBA9 ADD 0x4D TIMESTAMP 0xE0 0x4E 0x25 PUSH5 0x736F6C6343 STOP ADDMOD GT STOP CALLER "
				},
				"gasEstimates": {
					"creation": {
						"codeDepositCost": "1549400",
						"executionCost": "infinite",
						"totalCost": "infinite"
					},
					"external": {
						"addBet(address,address,uint256,uint256,uint8,bool)": "infinite",
						"app()": "infinite",
						"cancelMarket()": "infinite",
						"cancelPending(bytes32)": "infinite",
						"factory()": "2359",
						"getBalance(address)": "2597",
						"getUserBets(address)": "infinite",
						"setWinningSide(uint8)": "infinite",
						"settleAllPAirs()": "infinite",
						"settleBet(bytes32)": "infinite",
						"status()": "2325",
						"token()": "infinite",
						"withdraw(address)": "infinite"
					},
					"internal": {
						"_cancelPair(bytes32)": "infinite",
						"_createBet(address,address,uint256,uint256,uint256,uint8)": "infinite",
						"_createPair(bytes32,bytes32,uint256,uint256)": "infinite",
						"_settlePair(bytes32)": "infinite"
					}
				},
				"methodIdentifiers": {
					"addBet(address,address,uint256,uint256,uint8,bool)": "c7b448bd",
					"app()": "b76564bd",
					"cancelMarket()": "6bfefd6b",
					"cancelPending(bytes32)": "893372ca",
					"factory()": "c45a0155",
					"getBalance(address)": "f8b2cb4f",
					"getUserBets(address)": "2d56657d",
					"setWinningSide(uint8)": "8f2c4885",
					"settleAllPAirs()": "0d68ecb0",
					"settleBet(bytes32)": "675f6537",
					"status()": "200d2ed2",
					"token()": "fc0c546a",
					"withdraw(address)": "51cff8d9"
				}
			},
			"storageLayout": {
				"storage": [
					{
						"astId": 10,
						"contract": "contracts/Market.sol:Market",
						"label": "_status",
						"offset": 0,
						"slot": "0",
						"type": "t_uint256"
					},
					{
						"astId": 129,
						"contract": "contracts/Market.sol:Market",
						"label": "factory",
						"offset": 0,
						"slot": "1",
						"type": "t_address"
					},
					{
						"astId": 132,
						"contract": "contracts/Market.sol:Market",
						"label": "pairs",
						"offset": 0,
						"slot": "2",
						"type": "t_array(t_bytes32)dyn_storage"
					},
					{
						"astId": 135,
						"contract": "contracts/Market.sol:Market",
						"label": "bets",
						"offset": 0,
						"slot": "3",
						"type": "t_array(t_bytes32)dyn_storage"
					},
					{
						"astId": 138,
						"contract": "contracts/Market.sol:Market",
						"label": "pendingBets",
						"offset": 0,
						"slot": "4",
						"type": "t_array(t_bytes32)dyn_storage"
					},
					{
						"astId": 142,
						"contract": "contracts/Market.sol:Market",
						"label": "status",
						"offset": 0,
						"slot": "5",
						"type": "t_uint8"
					},
					{
						"astId": 157,
						"contract": "contracts/Market.sol:Market",
						"label": "bal",
						"offset": 0,
						"slot": "6",
						"type": "t_mapping(t_address,t_uint256)"
					},
					{
						"astId": 162,
						"contract": "contracts/Market.sol:Market",
						"label": "betsInfo",
						"offset": 0,
						"slot": "7",
						"type": "t_mapping(t_bytes32,t_struct(MarketBet)1365_storage)"
					},
					{
						"astId": 167,
						"contract": "contracts/Market.sol:Market",
						"label": "userBets",
						"offset": 0,
						"slot": "8",
						"type": "t_mapping(t_address,t_array(t_bytes32)dyn_storage)"
					},
					{
						"astId": 172,
						"contract": "contracts/Market.sol:Market",
						"label": "pairsInfo",
						"offset": 0,
						"slot": "9",
						"type": "t_mapping(t_bytes32,t_struct(MarketPair)153_storage)"
					},
					{
						"astId": 177,
						"contract": "contracts/Market.sol:Market",
						"label": "betPairs",
						"offset": 0,
						"slot": "10",
						"type": "t_mapping(t_bytes32,t_array(t_bytes32)dyn_storage)"
					}
				],
				"types": {
					"t_address": {
						"encoding": "inplace",
						"label": "address",
						"numberOfBytes": "20"
					},
					"t_array(t_bytes32)dyn_storage": {
						"base": "t_bytes32",
						"encoding": "dynamic_array",
						"label": "bytes32[]",
						"numberOfBytes": "32"
					},
					"t_bool": {
						"encoding": "inplace",
						"label": "bool",
						"numberOfBytes": "1"
					},
					"t_bytes32": {
						"encoding": "inplace",
						"label": "bytes32",
						"numberOfBytes": "32"
					},
					"t_mapping(t_address,t_array(t_bytes32)dyn_storage)": {
						"encoding": "mapping",
						"key": "t_address",
						"label": "mapping(address => bytes32[])",
						"numberOfBytes": "32",
						"value": "t_array(t_bytes32)dyn_storage"
					},
					"t_mapping(t_address,t_uint256)": {
						"encoding": "mapping",
						"key": "t_address",
						"label": "mapping(address => uint256)",
						"numberOfBytes": "32",
						"value": "t_uint256"
					},
					"t_mapping(t_bytes32,t_array(t_bytes32)dyn_storage)": {
						"encoding": "mapping",
						"key": "t_bytes32",
						"label": "mapping(bytes32 => bytes32[])",
						"numberOfBytes": "32",
						"value": "t_array(t_bytes32)dyn_storage"
					},
					"t_mapping(t_bytes32,t_struct(MarketBet)1365_storage)": {
						"encoding": "mapping",
						"key": "t_bytes32",
						"label": "mapping(bytes32 => struct IMarket.MarketBet)",
						"numberOfBytes": "32",
						"value": "t_struct(MarketBet)1365_storage"
					},
					"t_mapping(t_bytes32,t_struct(MarketPair)153_storage)": {
						"encoding": "mapping",
						"key": "t_bytes32",
						"label": "mapping(bytes32 => struct Market.MarketPair)",
						"numberOfBytes": "32",
						"value": "t_struct(MarketPair)153_storage"
					},
					"t_struct(MarketBet)1365_storage": {
						"encoding": "inplace",
						"label": "struct IMarket.MarketBet",
						"members": [
							{
								"astId": 1354,
								"contract": "contracts/Market.sol:Market",
								"label": "better",
								"offset": 0,
								"slot": "0",
								"type": "t_address"
							},
							{
								"astId": 1356,
								"contract": "contracts/Market.sol:Market",
								"label": "affiliate",
								"offset": 0,
								"slot": "1",
								"type": "t_address"
							},
							{
								"astId": 1358,
								"contract": "contracts/Market.sol:Market",
								"label": "stake",
								"offset": 0,
								"slot": "2",
								"type": "t_uint256"
							},
							{
								"astId": 1360,
								"contract": "contracts/Market.sol:Market",
								"label": "matched",
								"offset": 0,
								"slot": "3",
								"type": "t_uint256"
							},
							{
								"astId": 1362,
								"contract": "contracts/Market.sol:Market",
								"label": "odds",
								"offset": 0,
								"slot": "4",
								"type": "t_uint256"
							},
							{
								"astId": 1364,
								"contract": "contracts/Market.sol:Market",
								"label": "side",
								"offset": 0,
								"slot": "5",
								"type": "t_uint8"
							}
						],
						"numberOfBytes": "192"
					},
					"t_struct(MarketPair)153_storage": {
						"encoding": "inplace",
						"label": "struct Market.MarketPair",
						"members": [
							{
								"astId": 144,
								"contract": "contracts/Market.sol:Market",
								"label": "betHashA",
								"offset": 0,
								"slot": "0",
								"type": "t_bytes32"
							},
							{
								"astId": 146,
								"contract": "contracts/Market.sol:Market",
								"label": "betHashB",
								"offset": 0,
								"slot": "1",
								"type": "t_bytes32"
							},
							{
								"astId": 148,
								"contract": "contracts/Market.sol:Market",
								"label": "amountA",
								"offset": 0,
								"slot": "2",
								"type": "t_uint256"
							},
							{
								"astId": 150,
								"contract": "contracts/Market.sol:Market",
								"label": "amountB",
								"offset": 0,
								"slot": "3",
								"type": "t_uint256"
							},
							{
								"astId": 152,
								"contract": "contracts/Market.sol:Market",
								"label": "settled",
								"offset": 0,
								"slot": "4",
								"type": "t_bool"
							}
						],
						"numberOfBytes": "160"
					},
					"t_uint256": {
						"encoding": "inplace",
						"label": "uint256",
						"numberOfBytes": "32"
					},
					"t_uint8": {
						"encoding": "inplace",
						"label": "uint8",
						"numberOfBytes": "1"
					}
				}
			},
			"userdoc": {
				"kind": "user",
				"methods": {},
				"version": 1
			}
		}
	}
}