{
	"contracts/Market.sol": {
		"Market": {
			"abi": [
				{
					"inputs": [
						{
							"internalType": "address",
							"name": "owner_",
							"type": "address"
						}
					],
					"stateMutability": "nonpayable",
					"type": "constructor"
				},
				{
					"anonymous": false,
					"inputs": [
						{
							"indexed": false,
							"internalType": "address",
							"name": "better",
							"type": "address"
						},
						{
							"indexed": false,
							"internalType": "address",
							"name": "marketAddr",
							"type": "address"
						},
						{
							"indexed": false,
							"internalType": "bytes32",
							"name": "hash",
							"type": "bytes32"
						},
						{
							"indexed": false,
							"internalType": "uint256",
							"name": "stake",
							"type": "uint256"
						},
						{
							"indexed": false,
							"internalType": "uint256",
							"name": "odds",
							"type": "uint256"
						},
						{
							"indexed": false,
							"internalType": "uint256",
							"name": "side",
							"type": "uint256"
						}
					],
					"name": "BetCreated",
					"type": "event"
				},
				{
					"anonymous": false,
					"inputs": [
						{
							"indexed": false,
							"internalType": "address",
							"name": "beneficiary",
							"type": "address"
						},
						{
							"indexed": false,
							"internalType": "uint256",
							"name": "value",
							"type": "uint256"
						}
					],
					"name": "Withdraw",
					"type": "event"
				},
				{
					"inputs": [
						{
							"internalType": "address",
							"name": "_better",
							"type": "address"
						},
						{
							"internalType": "address",
							"name": "_affiliate",
							"type": "address"
						},
						{
							"internalType": "uint256",
							"name": "_stake",
							"type": "uint256"
						},
						{
							"internalType": "uint256",
							"name": "_odds",
							"type": "uint256"
						},
						{
							"internalType": "uint256",
							"name": "_side",
							"type": "uint256"
						},
						{
							"internalType": "bool",
							"name": "_instant",
							"type": "bool"
						}
					],
					"name": "addBet",
					"outputs": [
						{
							"internalType": "bytes32",
							"name": "",
							"type": "bytes32"
						}
					],
					"stateMutability": "nonpayable",
					"type": "function"
				},
				{
					"inputs": [],
					"name": "cancel",
					"outputs": [
						{
							"internalType": "bool",
							"name": "",
							"type": "bool"
						}
					],
					"stateMutability": "nonpayable",
					"type": "function"
				},
				{
					"inputs": [
						{
							"internalType": "bytes32",
							"name": "_bet",
							"type": "bytes32"
						}
					],
					"name": "cancelBet",
					"outputs": [],
					"stateMutability": "nonpayable",
					"type": "function"
				},
				{
					"inputs": [
						{
							"internalType": "address",
							"name": "_user",
							"type": "address"
						}
					],
					"name": "getBalance",
					"outputs": [
						{
							"internalType": "uint256",
							"name": "",
							"type": "uint256"
						}
					],
					"stateMutability": "view",
					"type": "function"
				},
				{
					"inputs": [
						{
							"internalType": "address",
							"name": "_user",
							"type": "address"
						}
					],
					"name": "getUserBets",
					"outputs": [
						{
							"components": [
								{
									"internalType": "address",
									"name": "better",
									"type": "address"
								},
								{
									"internalType": "address",
									"name": "affiliate",
									"type": "address"
								},
								{
									"internalType": "uint256",
									"name": "stake",
									"type": "uint256"
								},
								{
									"internalType": "uint256",
									"name": "matched",
									"type": "uint256"
								},
								{
									"internalType": "uint256",
									"name": "odds",
									"type": "uint256"
								},
								{
									"internalType": "uint256",
									"name": "side",
									"type": "uint256"
								}
							],
							"internalType": "struct Struct.MarketBet[]",
							"name": "",
							"type": "tuple[]"
						}
					],
					"stateMutability": "view",
					"type": "function"
				},
				{
					"inputs": [
						{
							"internalType": "uint256",
							"name": "_winningSide",
							"type": "uint256"
						}
					],
					"name": "setWinningSide",
					"outputs": [
						{
							"internalType": "bool",
							"name": "",
							"type": "bool"
						}
					],
					"stateMutability": "nonpayable",
					"type": "function"
				},
				{
					"inputs": [
						{
							"internalType": "uint256",
							"name": "_winningSide",
							"type": "uint256"
						}
					],
					"name": "settle",
					"outputs": [
						{
							"internalType": "bool",
							"name": "",
							"type": "bool"
						}
					],
					"stateMutability": "nonpayable",
					"type": "function"
				},
				{
					"inputs": [
						{
							"internalType": "bytes32",
							"name": "_bet",
							"type": "bytes32"
						}
					],
					"name": "settleBet",
					"outputs": [],
					"stateMutability": "nonpayable",
					"type": "function"
				},
				{
					"inputs": [],
					"name": "start",
					"outputs": [
						{
							"internalType": "bool",
							"name": "",
							"type": "bool"
						}
					],
					"stateMutability": "nonpayable",
					"type": "function"
				},
				{
					"inputs": [],
					"name": "status",
					"outputs": [
						{
							"internalType": "uint256",
							"name": "",
							"type": "uint256"
						}
					],
					"stateMutability": "view",
					"type": "function"
				},
				{
					"inputs": [
						{
							"internalType": "address",
							"name": "_addr",
							"type": "address"
						}
					],
					"name": "withdraw",
					"outputs": [
						{
							"internalType": "bool",
							"name": "",
							"type": "bool"
						}
					],
					"stateMutability": "nonpayable",
					"type": "function"
				},
				{
					"inputs": [
						{
							"internalType": "bytes32",
							"name": "_bet",
							"type": "bytes32"
						}
					],
					"name": "withdrawPending",
					"outputs": [],
					"stateMutability": "nonpayable",
					"type": "function"
				}
			],
			"devdoc": {
				"kind": "dev",
				"methods": {},
				"version": 1
			},
			"evm": {
				"assembly": "    /* \"contracts/Market.sol\":194:13637  contract Market is IMarket, ReentrancyGuard {... */\n  mstore(0x40, 0xc0)\n    /* \"contracts/Market.sol\":439:440  0 */\n  0x00\n    /* \"contracts/Market.sol\":406:440  uint256 public override status = 0 */\n  0x03\n  sstore\n    /* \"contracts/Market.sol\":963:970  factory */\n  sload(0x02)\n    /* \"contracts/Market.sol\":915:971  IWeb3BetsFO immutable private app = IWeb3BetsFO(factory) */\n  0x60\n  shl\n  not(sub(shl(0x60, 0x01), 0x01))\n  and\n  0xa0\n  mstore\n    /* \"contracts/Market.sol\":1483:1627  constructor(address owner_) {... */\n  callvalue\n  dup1\n  iszero\n  tag_1\n  jumpi\n  0x00\n  dup1\n  revert\ntag_1:\n  pop\n  mload(0x40)\n  sub(codesize, bytecodeSize)\n  dup1\n  bytecodeSize\n  dup4\n  codecopy\n  dup2\n  add\n  0x40\n  dup2\n  swap1\n  mstore\n  tag_2\n  swap2\n  tag_3\n  jump\t// in\ntag_2:\n    /* \"@openzeppelin/contracts/security/ReentrancyGuard.sol\":1701:1702  1 */\n  0x01\n    /* \"@openzeppelin/contracts/security/ReentrancyGuard.sol\":1806:1813  _status */\n  0x00\n    /* \"@openzeppelin/contracts/security/ReentrancyGuard.sol\":1806:1828  _status = _NOT_ENTERED */\n  dup2\n  swap1\n  sstore\n    /* \"contracts/Market.sol\":1521:1535  owner = owner_ */\n  dup1\n  sload\n  not(sub(shl(0xa0, 0x01), 0x01))\n  swap1\n  dup2\n  and\n  sub(shl(0xa0, 0x01), 0x01)\n  dup5\n  and\n  or\n  swap1\n  swap2\n  sstore\n    /* \"contracts/Market.sol\":1545:1552  factory */\n  0x02\n    /* \"contracts/Market.sol\":1545:1565  factory = msg.sender */\n  dup1\n  sload\n    /* \"contracts/Market.sol\":1555:1565  msg.sender */\n  caller\n    /* \"contracts/Market.sol\":1545:1565  factory = msg.sender */\n  swap3\n  and\n  dup3\n  or\n  swap1\n  sstore\n    /* \"contracts/Market.sol\":1590:1619  IWeb3BetsFO(factory).scAddr() */\n  0x40\n  dup1\n  mload\n  shl(0xe3, 0x966ed9)\n  dup2\n  mstore\n  swap1\n  mload\n    /* \"contracts/Market.sol\":1590:1617  IWeb3BetsFO(factory).scAddr */\n  0x04b376c8\n  swap2\n    /* \"contracts/Market.sol\":1590:1619  IWeb3BetsFO(factory).scAddr() */\n  0x04\n  dup1\n  dup3\n  add\n  swap3\n  0x20\n  swap3\n  swap1\n  swap2\n  swap1\n  dup3\n  swap1\n  sub\n  add\n  dup2\n    /* \"contracts/Market.sol\":1555:1565  msg.sender */\n  dup7\n    /* \"contracts/Market.sol\":1590:1619  IWeb3BetsFO(factory).scAddr() */\n  dup1\n  extcodesize\n  iszero\n  dup1\n  iszero\n  tag_8\n  jumpi\n  0x00\n  dup1\n  revert\ntag_8:\n  pop\n  gas\n  staticcall\n  iszero\n  dup1\n  iszero\n  tag_10\n  jumpi\n  returndatasize\n  0x00\n  dup1\n  returndatacopy\n  revert(0x00, returndatasize)\ntag_10:\n  pop\n  pop\n  pop\n  pop\n  mload(0x40)\n  returndatasize\n  not(0x1f)\n  0x1f\n  dup3\n  add\n  and\n  dup3\n  add\n  dup1\n  0x40\n  mstore\n  pop\n  dup2\n  add\n  swap1\n  tag_11\n  swap2\n  swap1\n  tag_3\n  jump\t// in\ntag_11:\n    /* \"contracts/Market.sol\":1575:1620  token = IERC20(IWeb3BetsFO(factory).scAddr()) */\n  0x60\n  shl\n  not(sub(shl(0x60, 0x01), 0x01))\n  and\n  0x80\n  mstore\n  pop\n    /* \"contracts/Market.sol\":194:13637  contract Market is IMarket, ReentrancyGuard {... */\n  jump(tag_13)\n    /* \"#utility.yul\":14:324   */\ntag_3:\n    /* \"#utility.yul\":84:90   */\n  0x00\n    /* \"#utility.yul\":137:139   */\n  0x20\n    /* \"#utility.yul\":125:134   */\n  dup3\n    /* \"#utility.yul\":116:123   */\n  dup5\n    /* \"#utility.yul\":112:135   */\n  sub\n    /* \"#utility.yul\":108:140   */\n  slt\n    /* \"#utility.yul\":105:107   */\n  iszero\n  tag_15\n  jumpi\n    /* \"#utility.yul\":158:164   */\n  dup1\n    /* \"#utility.yul\":150:156   */\n  dup2\n    /* \"#utility.yul\":143:165   */\n  revert\n    /* \"#utility.yul\":105:107   */\ntag_15:\n    /* \"#utility.yul\":189:205   */\n  dup2\n  mload\n  sub(shl(0xa0, 0x01), 0x01)\n    /* \"#utility.yul\":234:265   */\n  dup2\n  and\n    /* \"#utility.yul\":224:266   */\n  dup2\n  eq\n    /* \"#utility.yul\":214:216   */\n  tag_16\n  jumpi\n    /* \"#utility.yul\":285:291   */\n  dup2\n    /* \"#utility.yul\":277:283   */\n  dup3\n    /* \"#utility.yul\":270:292   */\n  revert\n    /* \"#utility.yul\":214:216   */\ntag_16:\n    /* \"#utility.yul\":313:318   */\n  swap4\n    /* \"#utility.yul\":95:324   */\n  swap3\n  pop\n  pop\n  pop\n  jump\t// out\ntag_13:\n    /* \"contracts/Market.sol\":194:13637  contract Market is IMarket, ReentrancyGuard {... */\n  shr(0x60, mload(0x80))\n  shr(0x60, mload(0xa0))\n  codecopy(0x00, dataOffset(sub_0), dataSize(sub_0))\n  0x00\n  assignImmutable(\"0xd252627c3a7ddb3e9969d764fe6d38be47e2139c12c223f8ce16b1e3a5ed7dbb\")\n  0x00\n  assignImmutable(\"0x20d2ac2a28641786ba03eff53facea687b35e08e680a1b71922c6fc1ed1f2735\")\n  return(0x00, dataSize(sub_0))\nstop\n\nsub_0: assembly {\n        /* \"contracts/Market.sol\":194:13637  contract Market is IMarket, ReentrancyGuard {... */\n      mstore(0x40, 0x80)\n      callvalue\n      dup1\n      iszero\n      tag_1\n      jumpi\n      0x00\n      dup1\n      revert\n    tag_1:\n      pop\n      jumpi(tag_2, lt(calldatasize, 0x04))\n      shr(0xe0, calldataload(0x00))\n      dup1\n      0x7d7f9232\n      gt\n      tag_15\n      jumpi\n      dup1\n      0x7d7f9232\n      eq\n      tag_9\n      jumpi\n      dup1\n      0x8df82800\n      eq\n      tag_10\n      jumpi\n      dup1\n      0xbe9a6555\n      eq\n      tag_11\n      jumpi\n      dup1\n      0xd0ed7295\n      eq\n      tag_12\n      jumpi\n      dup1\n      0xea8a1af0\n      eq\n      tag_13\n      jumpi\n      dup1\n      0xf8b2cb4f\n      eq\n      tag_14\n      jumpi\n      0x00\n      dup1\n      revert\n    tag_15:\n      dup1\n      0x200d2ed2\n      eq\n      tag_3\n      jumpi\n      dup1\n      0x2940ff1e\n      eq\n      tag_4\n      jumpi\n      dup1\n      0x2d56657d\n      eq\n      tag_5\n      jumpi\n      dup1\n      0x51cff8d9\n      eq\n      tag_6\n      jumpi\n      dup1\n      0x675f6537\n      eq\n      tag_7\n      jumpi\n      dup1\n      0x78d65b2f\n      eq\n      tag_8\n      jumpi\n    tag_2:\n      0x00\n      dup1\n      revert\n        /* \"contracts/Market.sol\":406:440  uint256 public override status = 0 */\n    tag_3:\n      tag_16\n      sload(0x03)\n      dup2\n      jump\n    tag_16:\n      mload(0x40)\n        /* \"#utility.yul\":6385:6410   */\n      swap1\n      dup2\n      mstore\n        /* \"#utility.yul\":6373:6375   */\n      0x20\n        /* \"#utility.yul\":6358:6376   */\n      add\n        /* \"contracts/Market.sol\":406:440  uint256 public override status = 0 */\n    tag_18:\n      mload(0x40)\n      dup1\n      swap2\n      sub\n      swap1\n      return\n        /* \"contracts/Market.sol\":3015:3251  function cancelBet(bytes32 _bet) external override {... */\n    tag_4:\n      tag_20\n      tag_21\n      calldatasize\n      0x04\n      tag_22\n      jump\t// in\n    tag_21:\n      tag_23\n      jump\t// in\n    tag_20:\n      stop\n        /* \"contracts/Market.sol\":1748:2126  function getUserBets(address _user) ... */\n    tag_5:\n      tag_24\n      tag_25\n      calldatasize\n      0x04\n      tag_26\n      jump\t// in\n    tag_25:\n      tag_27\n      jump\t// in\n    tag_24:\n      mload(0x40)\n      tag_18\n      swap2\n      swap1\n      tag_29\n      jump\t// in\n        /* \"contracts/Market.sol\":2132:2612  function withdraw(address _addr) public override nonReentrant returns(bool) {... */\n    tag_6:\n      tag_30\n      tag_31\n      calldatasize\n      0x04\n      tag_26\n      jump\t// in\n    tag_31:\n      tag_32\n      jump\t// in\n    tag_30:\n      mload(0x40)\n        /* \"#utility.yul\":6212:6226   */\n      swap1\n      iszero\n        /* \"#utility.yul\":6205:6227   */\n      iszero\n        /* \"#utility.yul\":6187:6228   */\n      dup2\n      mstore\n        /* \"#utility.yul\":6175:6177   */\n      0x20\n        /* \"#utility.yul\":6160:6178   */\n      add\n        /* \"contracts/Market.sol\":2132:2612  function withdraw(address _addr) public override nonReentrant returns(bool) {... */\n      tag_18\n        /* \"#utility.yul\":6142:6234   */\n      jump\n        /* \"contracts/Market.sol\":3257:3577  function settleBet(bytes32 _bet) external override {... */\n    tag_7:\n      tag_20\n      tag_36\n      calldatasize\n      0x04\n      tag_22\n      jump\t// in\n    tag_36:\n      tag_37\n      jump\t// in\n        /* \"contracts/Market.sol\":4941:7549  function addBet(... */\n    tag_8:\n      tag_16\n      tag_39\n      calldatasize\n      0x04\n      tag_40\n      jump\t// in\n    tag_39:\n      tag_41\n      jump\t// in\n        /* \"contracts/Market.sol\":2620:3009  function withdrawPending(bytes32 _bet) public override {... */\n    tag_9:\n      tag_20\n      tag_45\n      calldatasize\n      0x04\n      tag_22\n      jump\t// in\n    tag_45:\n      tag_46\n      jump\t// in\n        /* \"contracts/Market.sol\":3936:4347  function settle(uint256 _winningSide)... */\n    tag_10:\n      tag_30\n      tag_48\n      calldatasize\n      0x04\n      tag_22\n      jump\t// in\n    tag_48:\n      tag_50\n      jump\t// in\n        /* \"contracts/Market.sol\":4733:4935  function start() external override onlyFactory returns(bool){... */\n    tag_11:\n      tag_30\n      tag_53\n      jump\t// in\n        /* \"contracts/Market.sol\":3583:3930  function setWinningSide(uint256 _winningSide)... */\n    tag_12:\n      tag_30\n      tag_56\n      calldatasize\n      0x04\n      tag_22\n      jump\t// in\n    tag_56:\n      tag_57\n      jump\t// in\n        /* \"contracts/Market.sol\":4353:4727  function cancel() external override onlyFactory returns(bool) ... */\n    tag_13:\n      tag_30\n      tag_60\n      jump\t// in\n        /* \"contracts/Market.sol\":1633:1742  function getBalance(address _user) external view override returns(uint256) {... */\n    tag_14:\n      tag_16\n      tag_63\n      calldatasize\n      0x04\n      tag_26\n      jump\t// in\n    tag_63:\n      sub(shl(0xa0, 0x01), 0x01)\n        /* \"contracts/Market.sol\":1725:1735  bal[_user] */\n      and\n        /* \"contracts/Market.sol\":1699:1706  uint256 */\n      0x00\n        /* \"contracts/Market.sol\":1725:1735  bal[_user] */\n      swap1\n      dup2\n      mstore\n        /* \"contracts/Market.sol\":1725:1728  bal */\n      0x06\n        /* \"contracts/Market.sol\":1725:1735  bal[_user] */\n      0x20\n      mstore\n      0x40\n      swap1\n      keccak256\n      sload\n      swap1\n        /* \"contracts/Market.sol\":1633:1742  function getBalance(address _user) external view override returns(uint256) {... */\n      jump\n        /* \"contracts/Market.sol\":3015:3251  function cancelBet(bytes32 _bet) external override {... */\n    tag_23:\n        /* \"contracts/Market.sol\":3098:3112  betsInfo[_bet] */\n      0x00\n      dup2\n      dup2\n      mstore\n        /* \"contracts/Market.sol\":3098:3106  betsInfo */\n      0x07\n        /* \"contracts/Market.sol\":3098:3112  betsInfo[_bet] */\n      0x20\n      mstore\n      0x40\n      swap1\n      keccak256\n        /* \"contracts/Market.sol\":3098:3119  betsInfo[_bet].better */\n      sload\n      sub(shl(0xa0, 0x01), 0x01)\n      and\n        /* \"contracts/Market.sol\":3084:3094  msg.sender */\n      caller\n        /* \"contracts/Market.sol\":3084:3119  msg.sender == betsInfo[_bet].better */\n      eq\n        /* \"contracts/Market.sol\":3076:3143  require(msg.sender == betsInfo[_bet].better, \"unauthorized caller\") */\n      tag_67\n      jumpi\n      mload(0x40)\n      shl(0xe5, 0x461bcd)\n      dup2\n      mstore\n        /* \"#utility.yul\":7673:7675   */\n      0x20\n        /* \"contracts/Market.sol\":3076:3143  require(msg.sender == betsInfo[_bet].better, \"unauthorized caller\") */\n      0x04\n      dup3\n      add\n        /* \"#utility.yul\":7655:7676   */\n      mstore\n        /* \"#utility.yul\":7712:7714   */\n      0x13\n        /* \"#utility.yul\":7692:7710   */\n      0x24\n      dup3\n      add\n        /* \"#utility.yul\":7685:7715   */\n      mstore\n      shl(0x69, 0x3ab730baba3437b934bd32b21031b0b63632b9)\n        /* \"#utility.yul\":7731:7749   */\n      0x44\n      dup3\n      add\n        /* \"#utility.yul\":7724:7773   */\n      mstore\n        /* \"#utility.yul\":7790:7808   */\n      0x64\n      add\n        /* \"contracts/Market.sol\":3076:3143  require(msg.sender == betsInfo[_bet].better, \"unauthorized caller\") */\n    tag_68:\n      mload(0x40)\n      dup1\n      swap2\n      sub\n      swap1\n      revert\n    tag_67:\n        /* \"contracts/Market.sol\":3156:3162  status */\n      sload(0x03)\n        /* \"contracts/Market.sol\":3153:3214  if(status == 0){... */\n      tag_70\n      jumpi\n        /* \"contracts/Market.sol\":3182:3203  _cancelBetPairs(_bet) */\n      tag_71\n        /* \"contracts/Market.sol\":3198:3202  _bet */\n      dup2\n        /* \"contracts/Market.sol\":3182:3197  _cancelBetPairs */\n      tag_72\n        /* \"contracts/Market.sol\":3182:3203  _cancelBetPairs(_bet) */\n      jump\t// in\n    tag_71:\n      pop\n        /* \"contracts/Market.sol\":3153:3214  if(status == 0){... */\n    tag_70:\n        /* \"contracts/Market.sol\":3223:3244  withdrawPending(_bet) */\n      tag_73\n        /* \"contracts/Market.sol\":3239:3243  _bet */\n      dup2\n        /* \"contracts/Market.sol\":3223:3238  withdrawPending */\n      tag_46\n        /* \"contracts/Market.sol\":3223:3244  withdrawPending(_bet) */\n      jump\t// in\n    tag_73:\n        /* \"contracts/Market.sol\":3015:3251  function cancelBet(bytes32 _bet) external override {... */\n      pop\n      jump\t// out\n        /* \"contracts/Market.sol\":1748:2126  function getUserBets(address _user) ... */\n    tag_27:\n      sub(shl(0xa0, 0x01), 0x01)\n        /* \"contracts/Market.sol\":1936:1951  userBets[_user] */\n      dup2\n      and\n        /* \"contracts/Market.sol\":1911:1933  bytes32[] memory _bets */\n      0x00\n        /* \"contracts/Market.sol\":1936:1951  userBets[_user] */\n      swap1\n      dup2\n      mstore\n        /* \"contracts/Market.sol\":1936:1944  userBets */\n      0x08\n        /* \"contracts/Market.sol\":1936:1951  userBets[_user] */\n      0x20\n      swap1\n      dup2\n      mstore\n      0x40\n      dup1\n      dup4\n      keccak256\n        /* \"contracts/Market.sol\":1911:1951  bytes32[] memory _bets = userBets[_user] */\n      dup1\n      sload\n      dup3\n      mload\n      dup2\n      dup6\n      mul\n      dup2\n      add\n      dup6\n      add\n      swap1\n      swap4\n      mstore\n      dup1\n      dup4\n      mstore\n        /* \"contracts/Market.sol\":1824:1849  Struct.MarketBet[] memory */\n      0x60\n      swap5\n      dup6\n      swap5\n        /* \"contracts/Market.sol\":1911:1933  bytes32[] memory _bets */\n      swap1\n      swap4\n        /* \"contracts/Market.sol\":1911:1951  bytes32[] memory _bets = userBets[_user] */\n      swap3\n        /* \"contracts/Market.sol\":1936:1951  userBets[_user] */\n      swap2\n        /* \"contracts/Market.sol\":1911:1951  bytes32[] memory _bets = userBets[_user] */\n      swap1\n      dup4\n      add\n        /* \"contracts/Market.sol\":1936:1951  userBets[_user] */\n      dup3\n        /* \"contracts/Market.sol\":1911:1951  bytes32[] memory _bets = userBets[_user] */\n      dup3\n      dup1\n      iszero\n      tag_75\n      jumpi\n      0x20\n      mul\n      dup3\n      add\n      swap2\n      swap1\n      0x00\n      mstore\n      keccak256(0x00, 0x20)\n      swap1\n    tag_76:\n      dup2\n      sload\n      dup2\n      mstore\n      0x20\n      add\n      swap1\n      0x01\n      add\n      swap1\n      dup1\n      dup4\n      gt\n      tag_76\n      jumpi\n    tag_75:\n      pop\n      pop\n        /* \"contracts/Market.sol\":1979:1983  bets */\n      0x05\n        /* \"contracts/Market.sol\":1979:1990  bets.length */\n      sload\n        /* \"contracts/Market.sol\":1911:1951  bytes32[] memory _bets = userBets[_user] */\n      swap4\n      swap5\n      pop\n        /* \"contracts/Market.sol\":1961:1976  uint betsLength */\n      0x00\n      swap3\n      pop\n      pop\n      pop\n        /* \"contracts/Market.sol\":2000:2094  for(uint i = 0; i < betsLength; i++){... */\n    tag_77:\n        /* \"contracts/Market.sol\":2020:2030  betsLength */\n      dup2\n        /* \"contracts/Market.sol\":2016:2017  i */\n      dup2\n        /* \"contracts/Market.sol\":2016:2030  i < betsLength */\n      lt\n        /* \"contracts/Market.sol\":2000:2094  for(uint i = 0; i < betsLength; i++){... */\n      iszero\n      tag_78\n      jumpi\n        /* \"contracts/Market.sol\":2065:2073  betsInfo */\n      0x07\n        /* \"contracts/Market.sol\":2065:2083  betsInfo[_bets[i]] */\n      0x00\n        /* \"contracts/Market.sol\":2074:2079  _bets */\n      dup5\n        /* \"contracts/Market.sol\":2080:2081  i */\n      dup4\n        /* \"contracts/Market.sol\":2074:2082  _bets[i] */\n      dup2\n      mload\n      dup2\n      lt\n      tag_80\n      jumpi\n      mstore(0x00, shl(0xe0, 0x4e487b71))\n      mstore(0x04, 0x32)\n      revert(0x00, 0x24)\n    tag_80:\n      0x20\n      swap1\n      dup2\n      mul\n      swap2\n      swap1\n      swap2\n      add\n      dup2\n      add\n      mload\n        /* \"contracts/Market.sol\":2065:2083  betsInfo[_bets[i]] */\n      dup3\n      mstore\n      dup2\n      dup2\n      add\n      swap3\n      swap1\n      swap3\n      mstore\n      0x40\n      swap1\n      dup2\n      add\n      0x00\n      keccak256\n        /* \"contracts/Market.sol\":2050:2083  _userBets[i] = betsInfo[_bets[i]] */\n      dup2\n      mload\n      0xc0\n      dup2\n      add\n      dup4\n      mstore\n      dup2\n      sload\n      sub(shl(0xa0, 0x01), 0x01)\n      swap1\n      dup2\n      and\n      dup3\n      mstore\n      0x01\n      dup4\n      add\n      sload\n      and\n      swap4\n      dup2\n      add\n      swap4\n      swap1\n      swap4\n      mstore\n      0x02\n      dup2\n      add\n      sload\n      swap2\n      dup4\n      add\n      swap2\n      swap1\n      swap2\n      mstore\n      0x03\n      dup2\n      add\n      sload\n      0x60\n      dup4\n      add\n      mstore\n      0x04\n      dup2\n      add\n      sload\n      0x80\n      dup4\n      add\n      mstore\n      0x05\n      add\n      sload\n      0xa0\n      dup3\n      add\n      mstore\n        /* \"contracts/Market.sol\":2050:2062  _userBets[i] */\n      dup5\n      mload\n        /* \"contracts/Market.sol\":2050:2059  _userBets */\n      dup6\n      swap1\n        /* \"contracts/Market.sol\":2060:2061  i */\n      dup4\n      swap1\n        /* \"contracts/Market.sol\":2050:2062  _userBets[i] */\n      dup2\n      lt\n      tag_81\n      jumpi\n      mstore(0x00, shl(0xe0, 0x4e487b71))\n      mstore(0x04, 0x32)\n      revert(0x00, 0x24)\n    tag_81:\n      0x20\n      mul\n      0x20\n      add\n      add\n        /* \"contracts/Market.sol\":2050:2083  _userBets[i] = betsInfo[_bets[i]] */\n      dup2\n      swap1\n      mstore\n      pop\n        /* \"contracts/Market.sol\":2032:2035  i++ */\n      dup1\n      dup1\n      tag_82\n      swap1\n      tag_83\n      jump\t// in\n    tag_82:\n      swap2\n      pop\n      pop\n        /* \"contracts/Market.sol\":2000:2094  for(uint i = 0; i < betsLength; i++){... */\n      jump(tag_77)\n    tag_78:\n      pop\n        /* \"contracts/Market.sol\":2110:2119  _userBets */\n      swap2\n      swap5\n        /* \"contracts/Market.sol\":1748:2126  function getUserBets(address _user) ... */\n      swap4\n      pop\n      pop\n      pop\n      pop\n      jump\t// out\n        /* \"contracts/Market.sol\":2132:2612  function withdraw(address _addr) public override nonReentrant returns(bool) {... */\n    tag_32:\n        /* \"contracts/Market.sol\":2202:2206  bool */\n      0x00\n        /* \"@openzeppelin/contracts/security/ReentrancyGuard.sol\":1744:1745  2 */\n      0x02\n        /* \"@openzeppelin/contracts/security/ReentrancyGuard.sol\":2325:2332  _status */\n      sload(0x00)\n        /* \"@openzeppelin/contracts/security/ReentrancyGuard.sol\":2325:2344  _status != _ENTERED */\n      eq\n      iszero\n        /* \"@openzeppelin/contracts/security/ReentrancyGuard.sol\":2317:2380  require(_status != _ENTERED, \"ReentrancyGuard: reentrant call\") */\n      tag_85\n      jumpi\n      mload(0x40)\n      shl(0xe5, 0x461bcd)\n      dup2\n      mstore\n        /* \"#utility.yul\":10455:10457   */\n      0x20\n        /* \"@openzeppelin/contracts/security/ReentrancyGuard.sol\":2317:2380  require(_status != _ENTERED, \"ReentrancyGuard: reentrant call\") */\n      0x04\n      dup3\n      add\n        /* \"#utility.yul\":10437:10458   */\n      mstore\n        /* \"#utility.yul\":10494:10496   */\n      0x1f\n        /* \"#utility.yul\":10474:10492   */\n      0x24\n      dup3\n      add\n        /* \"#utility.yul\":10467:10497   */\n      mstore\n        /* \"#utility.yul\":10533:10566   */\n      0x5265656e7472616e637947756172643a207265656e7472616e742063616c6c00\n        /* \"#utility.yul\":10513:10531   */\n      0x44\n      dup3\n      add\n        /* \"#utility.yul\":10506:10567   */\n      mstore\n        /* \"#utility.yul\":10584:10602   */\n      0x64\n      add\n        /* \"@openzeppelin/contracts/security/ReentrancyGuard.sol\":2317:2380  require(_status != _ENTERED, \"ReentrancyGuard: reentrant call\") */\n      tag_68\n        /* \"#utility.yul\":10427:10608   */\n      jump\n        /* \"@openzeppelin/contracts/security/ReentrancyGuard.sol\":2317:2380  require(_status != _ENTERED, \"ReentrancyGuard: reentrant call\") */\n    tag_85:\n        /* \"@openzeppelin/contracts/security/ReentrancyGuard.sol\":1744:1745  2 */\n      0x02\n        /* \"@openzeppelin/contracts/security/ReentrancyGuard.sol\":2455:2462  _status */\n      0x00\n        /* \"@openzeppelin/contracts/security/ReentrancyGuard.sol\":2455:2473  _status = _ENTERED */\n      swap1\n      dup2\n      sstore\n      sub(shl(0xa0, 0x01), 0x01)\n        /* \"contracts/Market.sol\":2240:2250  bal[_addr] */\n      dup4\n      dup2\n      and\n      dup3\n      mstore\n        /* \"contracts/Market.sol\":2240:2243  bal */\n      0x06\n        /* \"contracts/Market.sol\":2240:2250  bal[_addr] */\n      0x20\n      mstore\n      0x40\n      swap2\n      dup3\n      swap1\n      keccak256\n      sload\n        /* \"contracts/Market.sol\":2281:2311  token.balanceOf(address(this)) */\n      swap2\n      mload\n      shl(0xe0, 0x70a08231)\n      dup2\n      mstore\n        /* \"contracts/Market.sol\":2305:2309  this */\n      address\n        /* \"contracts/Market.sol\":2281:2311  token.balanceOf(address(this)) */\n      0x04\n      dup3\n      add\n        /* \"#utility.yul\":3266:3317   */\n      mstore\n        /* \"contracts/Market.sol\":2240:2250  bal[_addr] */\n      dup3\n      swap2\n        /* \"contracts/Market.sol\":2281:2286  token */\n      immutable(\"0x20d2ac2a28641786ba03eff53facea687b35e08e680a1b71922c6fc1ed1f2735\")\n        /* \"contracts/Market.sol\":2281:2296  token.balanceOf */\n      and\n      swap1\n      0x70a08231\n      swap1\n        /* \"#utility.yul\":3239:3257   */\n      0x24\n      add\n        /* \"contracts/Market.sol\":2281:2311  token.balanceOf(address(this)) */\n      0x20\n      mload(0x40)\n      dup1\n      dup4\n      sub\n      dup2\n      dup7\n      dup1\n      extcodesize\n      iszero\n      dup1\n      iszero\n      tag_91\n      jumpi\n      0x00\n      dup1\n      revert\n    tag_91:\n      pop\n      gas\n      staticcall\n      iszero\n      dup1\n      iszero\n      tag_93\n      jumpi\n      returndatasize\n      0x00\n      dup1\n      returndatacopy\n      revert(0x00, returndatasize)\n    tag_93:\n      pop\n      pop\n      pop\n      pop\n      mload(0x40)\n      returndatasize\n      not(0x1f)\n      0x1f\n      dup3\n      add\n      and\n      dup3\n      add\n      dup1\n      0x40\n      mstore\n      pop\n      dup2\n      add\n      swap1\n      tag_94\n      swap2\n      swap1\n      tag_95\n      jump\t// in\n    tag_94:\n        /* \"contracts/Market.sol\":2281:2326  token.balanceOf(address(this)) >= availAmount */\n      lt\n      iszero\n        /* \"contracts/Market.sol\":2281:2345  token.balanceOf(address(this)) >= availAmount && availAmount > 0 */\n      dup1\n      iszero\n      tag_96\n      jumpi\n      pop\n        /* \"contracts/Market.sol\":2344:2345  0 */\n      0x00\n        /* \"contracts/Market.sol\":2330:2341  availAmount */\n      dup2\n        /* \"contracts/Market.sol\":2330:2345  availAmount > 0 */\n      gt\n        /* \"contracts/Market.sol\":2281:2345  token.balanceOf(address(this)) >= availAmount && availAmount > 0 */\n    tag_96:\n        /* \"contracts/Market.sol\":2260:2391  require(... */\n      tag_97\n      jumpi\n      mload(0x40)\n      shl(0xe5, 0x461bcd)\n      dup2\n      mstore\n        /* \"#utility.yul\":9066:9068   */\n      0x20\n        /* \"contracts/Market.sol\":2260:2391  require(... */\n      0x04\n      dup3\n      add\n        /* \"#utility.yul\":9048:9069   */\n      mstore\n        /* \"#utility.yul\":9105:9107   */\n      0x14\n        /* \"#utility.yul\":9085:9103   */\n      0x24\n      dup3\n      add\n        /* \"#utility.yul\":9078:9108   */\n      mstore\n      shl(0x60, 0x7a65726f2076616c756520617661696c61626c65)\n        /* \"#utility.yul\":9124:9142   */\n      0x44\n      dup3\n      add\n        /* \"#utility.yul\":9117:9167   */\n      mstore\n        /* \"#utility.yul\":9184:9202   */\n      0x64\n      add\n        /* \"contracts/Market.sol\":2260:2391  require(... */\n      tag_68\n        /* \"#utility.yul\":9038:9208   */\n      jump\n        /* \"contracts/Market.sol\":2260:2391  require(... */\n    tag_97:\n      sub(shl(0xa0, 0x01), 0x01)\n        /* \"contracts/Market.sol\":2401:2411  bal[_addr] */\n      dup4\n      and\n      0x00\n      swap1\n      dup2\n      mstore\n        /* \"contracts/Market.sol\":2401:2404  bal */\n      0x06\n        /* \"contracts/Market.sol\":2401:2411  bal[_addr] */\n      0x20\n      mstore\n      0x40\n      dup2\n      keccak256\n        /* \"contracts/Market.sol\":2401:2426  bal[_addr] -= availAmount */\n      dup1\n      sload\n        /* \"contracts/Market.sol\":2415:2426  availAmount */\n      dup4\n      swap3\n        /* \"contracts/Market.sol\":2401:2411  bal[_addr] */\n      swap1\n        /* \"contracts/Market.sol\":2401:2426  bal[_addr] -= availAmount */\n      tag_100\n      swap1\n        /* \"contracts/Market.sol\":2415:2426  availAmount */\n      dup5\n      swap1\n        /* \"contracts/Market.sol\":2401:2426  bal[_addr] -= availAmount */\n      tag_101\n      jump\t// in\n    tag_100:\n      swap1\n      swap2\n      sstore\n      pop\n      pop\n        /* \"contracts/Market.sol\":2451:2485  token.transfer(_addr, availAmount) */\n      mload(0x40)\n      shl(0xe0, 0xa9059cbb)\n      dup2\n      mstore\n      sub(shl(0xa0, 0x01), 0x01)\n        /* \"#utility.yul\":4805:4837   */\n      dup5\n      dup2\n      and\n        /* \"contracts/Market.sol\":2451:2485  token.transfer(_addr, availAmount) */\n      0x04\n      dup4\n      add\n        /* \"#utility.yul\":4787:4838   */\n      mstore\n        /* \"#utility.yul\":4854:4872   */\n      0x24\n      dup3\n      add\n        /* \"#utility.yul\":4847:4881   */\n      dup4\n      swap1\n      mstore\n        /* \"contracts/Market.sol\":2436:2448  bool success */\n      0x00\n      swap2\n        /* \"contracts/Market.sol\":2451:2456  token */\n      immutable(\"0x20d2ac2a28641786ba03eff53facea687b35e08e680a1b71922c6fc1ed1f2735\")\n        /* \"contracts/Market.sol\":2451:2465  token.transfer */\n      swap1\n      swap2\n      and\n      swap1\n      0xa9059cbb\n      swap1\n        /* \"#utility.yul\":4760:4778   */\n      0x44\n      add\n        /* \"contracts/Market.sol\":2451:2485  token.transfer(_addr, availAmount) */\n      0x20\n      mload(0x40)\n      dup1\n      dup4\n      sub\n      dup2\n      0x00\n      dup8\n      dup1\n      extcodesize\n      iszero\n      dup1\n      iszero\n      tag_104\n      jumpi\n      0x00\n      dup1\n      revert\n    tag_104:\n      pop\n      gas\n      call\n      iszero\n      dup1\n      iszero\n      tag_106\n      jumpi\n      returndatasize\n      0x00\n      dup1\n      returndatacopy\n      revert(0x00, returndatasize)\n    tag_106:\n      pop\n      pop\n      pop\n      pop\n      mload(0x40)\n      returndatasize\n      not(0x1f)\n      0x1f\n      dup3\n      add\n      and\n      dup3\n      add\n      dup1\n      0x40\n      mstore\n      pop\n      dup2\n      add\n      swap1\n      tag_107\n      swap2\n      swap1\n      tag_108\n      jump\t// in\n    tag_107:\n        /* \"contracts/Market.sol\":2436:2485  bool success = token.transfer(_addr, availAmount) */\n      swap1\n      pop\n        /* \"contracts/Market.sol\":2503:2510  success */\n      dup1\n        /* \"contracts/Market.sol\":2495:2540  require(success, \"transfer to caller failed\") */\n      tag_109\n      jumpi\n      mload(0x40)\n      shl(0xe5, 0x461bcd)\n      dup2\n      mstore\n        /* \"#utility.yul\":8712:8714   */\n      0x20\n        /* \"contracts/Market.sol\":2495:2540  require(success, \"transfer to caller failed\") */\n      0x04\n      dup3\n      add\n        /* \"#utility.yul\":8694:8715   */\n      mstore\n        /* \"#utility.yul\":8751:8753   */\n      0x19\n        /* \"#utility.yul\":8731:8749   */\n      0x24\n      dup3\n      add\n        /* \"#utility.yul\":8724:8754   */\n      mstore\n        /* \"#utility.yul\":8790:8817   */\n      0x7472616e7366657220746f2063616c6c6572206661696c656400000000000000\n        /* \"#utility.yul\":8770:8788   */\n      0x44\n      dup3\n      add\n        /* \"#utility.yul\":8763:8818   */\n      mstore\n        /* \"#utility.yul\":8835:8853   */\n      0x64\n      add\n        /* \"contracts/Market.sol\":2495:2540  require(success, \"transfer to caller failed\") */\n      tag_68\n        /* \"#utility.yul\":8684:8859   */\n      jump\n        /* \"contracts/Market.sol\":2495:2540  require(success, \"transfer to caller failed\") */\n    tag_109:\n        /* \"contracts/Market.sol\":2556:2584  Withdraw(_addr, availAmount) */\n      0x40\n      dup1\n      mload\n      sub(shl(0xa0, 0x01), 0x01)\n        /* \"#utility.yul\":4805:4837   */\n      dup7\n      and\n        /* \"#utility.yul\":4787:4838   */\n      dup2\n      mstore\n        /* \"#utility.yul\":4869:4871   */\n      0x20\n        /* \"#utility.yul\":4854:4872   */\n      dup2\n      add\n        /* \"#utility.yul\":4847:4881   */\n      dup5\n      swap1\n      mstore\n        /* \"contracts/Market.sol\":2556:2584  Withdraw(_addr, availAmount) */\n      0x884edad9ce6fa2440d8a54cc123490eb96d2768479d49ff9c7366125a9424364\n      swap2\n        /* \"#utility.yul\":4760:4778   */\n      add\n        /* \"contracts/Market.sol\":2556:2584  Withdraw(_addr, availAmount) */\n      mload(0x40)\n      dup1\n      swap2\n      sub\n      swap1\n      log1\n        /* \"contracts/Market.sol\":2601:2605  true */\n      0x01\n        /* \"contracts/Market.sol\":2594:2605  return true */\n      swap3\n      pop\n      pop\n      pop\n        /* \"@openzeppelin/contracts/security/ReentrancyGuard.sol\":2484:2485  _ */\n    tag_88:\n        /* \"@openzeppelin/contracts/security/ReentrancyGuard.sol\":1701:1702  1 */\n      0x01\n        /* \"@openzeppelin/contracts/security/ReentrancyGuard.sol\":2628:2635  _status */\n      0x00\n        /* \"@openzeppelin/contracts/security/ReentrancyGuard.sol\":2628:2650  _status = _NOT_ENTERED */\n      sstore\n        /* \"contracts/Market.sol\":2132:2612  function withdraw(address _addr) public override nonReentrant returns(bool) {... */\n      swap2\n      swap1\n      pop\n      jump\t// out\n        /* \"contracts/Market.sol\":3257:3577  function settleBet(bytes32 _bet) external override {... */\n    tag_37:\n        /* \"contracts/Market.sol\":3318:3341  bytes32[] memory _pairs */\n      0x00\n        /* \"contracts/Market.sol\":3344:3358  betPairs[_bet] */\n      dup2\n      dup2\n      mstore\n        /* \"contracts/Market.sol\":3344:3352  betPairs */\n      0x0a\n        /* \"contracts/Market.sol\":3344:3358  betPairs[_bet] */\n      0x20\n      swap1\n      dup2\n      mstore\n      0x40\n      dup1\n      dup4\n      keccak256\n        /* \"contracts/Market.sol\":3318:3358  bytes32[] memory _pairs = betPairs[_bet] */\n      dup1\n      sload\n      dup3\n      mload\n      dup2\n      dup6\n      mul\n      dup2\n      add\n      dup6\n      add\n      swap1\n      swap4\n      mstore\n      dup1\n      dup4\n      mstore\n      swap2\n      swap3\n        /* \"contracts/Market.sol\":3344:3358  betPairs[_bet] */\n      swap1\n      swap2\n        /* \"contracts/Market.sol\":3318:3358  bytes32[] memory _pairs = betPairs[_bet] */\n      swap1\n      dup4\n      add\n        /* \"contracts/Market.sol\":3344:3358  betPairs[_bet] */\n      dup3\n        /* \"contracts/Market.sol\":3318:3358  bytes32[] memory _pairs = betPairs[_bet] */\n      dup3\n      dup1\n      iszero\n      tag_114\n      jumpi\n      0x20\n      mul\n      dup3\n      add\n      swap2\n      swap1\n      0x00\n      mstore\n      keccak256(0x00, 0x20)\n      swap1\n    tag_115:\n      dup2\n      sload\n      dup2\n      mstore\n      0x20\n      add\n      swap1\n      0x01\n      add\n      swap1\n      dup1\n      dup4\n      gt\n      tag_115\n      jumpi\n    tag_114:\n      pop\n      pop\n        /* \"contracts/Market.sol\":3387:3400  _pairs.length */\n      dup4\n      mload\n        /* \"contracts/Market.sol\":3318:3358  bytes32[] memory _pairs = betPairs[_bet] */\n      swap4\n      swap5\n      pop\n        /* \"contracts/Market.sol\":3368:3384  uint pairsLength */\n      0x00\n      swap3\n      pop\n      pop\n      pop\n        /* \"contracts/Market.sol\":3410:3494  for(uint i = 0; i < pairsLength; i++){... */\n    tag_116:\n        /* \"contracts/Market.sol\":3430:3441  pairsLength */\n      dup2\n        /* \"contracts/Market.sol\":3426:3427  i */\n      dup2\n        /* \"contracts/Market.sol\":3426:3441  i < pairsLength */\n      lt\n        /* \"contracts/Market.sol\":3410:3494  for(uint i = 0; i < pairsLength; i++){... */\n      iszero\n      tag_117\n      jumpi\n        /* \"contracts/Market.sol\":3461:3483  _settlePair(_pairs[i]) */\n      tag_119\n        /* \"contracts/Market.sol\":3473:3479  _pairs */\n      dup4\n        /* \"contracts/Market.sol\":3480:3481  i */\n      dup3\n        /* \"contracts/Market.sol\":3473:3482  _pairs[i] */\n      dup2\n      mload\n      dup2\n      lt\n      tag_120\n      jumpi\n      mstore(0x00, shl(0xe0, 0x4e487b71))\n      mstore(0x04, 0x32)\n      revert(0x00, 0x24)\n    tag_120:\n      0x20\n      mul\n      0x20\n      add\n      add\n      mload\n        /* \"contracts/Market.sol\":3461:3472  _settlePair */\n      tag_121\n        /* \"contracts/Market.sol\":3461:3483  _settlePair(_pairs[i]) */\n      jump\t// in\n    tag_119:\n      pop\n        /* \"contracts/Market.sol\":3443:3446  i++ */\n      dup1\n      tag_122\n      dup2\n      tag_83\n      jump\t// in\n    tag_122:\n      swap2\n      pop\n      pop\n        /* \"contracts/Market.sol\":3410:3494  for(uint i = 0; i < pairsLength; i++){... */\n      jump(tag_116)\n    tag_117:\n      pop\n        /* \"contracts/Market.sol\":3510:3520  msg.sender */\n      caller\n        /* \"contracts/Market.sol\":3524:3525  0 */\n      0x00\n        /* \"contracts/Market.sol\":3506:3521  bal[msg.sender] */\n      swap1\n      dup2\n      mstore\n        /* \"contracts/Market.sol\":3506:3509  bal */\n      0x06\n        /* \"contracts/Market.sol\":3506:3521  bal[msg.sender] */\n      0x20\n      mstore\n      0x40\n      swap1\n      keccak256\n      sload\n        /* \"contracts/Market.sol\":3506:3525  bal[msg.sender] > 0 */\n      iszero\n        /* \"contracts/Market.sol\":3503:3571  if(bal[msg.sender] > 0){... */\n      tag_123\n      jumpi\n        /* \"contracts/Market.sol\":3540:3560  withdraw(msg.sender) */\n      tag_124\n        /* \"contracts/Market.sol\":3549:3559  msg.sender */\n      caller\n        /* \"contracts/Market.sol\":3540:3548  withdraw */\n      tag_32\n        /* \"contracts/Market.sol\":3540:3560  withdraw(msg.sender) */\n      jump\t// in\n    tag_124:\n      pop\n        /* \"contracts/Market.sol\":3503:3571  if(bal[msg.sender] > 0){... */\n    tag_123:\n        /* \"contracts/Market.sol\":3257:3577  function settleBet(bytes32 _bet) external override {... */\n      pop\n      pop\n      pop\n      jump\t// out\n        /* \"contracts/Market.sol\":4941:7549  function addBet(... */\n    tag_41:\n        /* \"contracts/Market.sol\":5180:5203  app.isBlack(msg.sender) */\n      mload(0x40)\n      shl(0xe0, 0x332daccf)\n      dup2\n      mstore\n        /* \"contracts/Market.sol\":5192:5202  msg.sender */\n      caller\n        /* \"contracts/Market.sol\":5180:5203  app.isBlack(msg.sender) */\n      0x04\n      dup3\n      add\n        /* \"#utility.yul\":3266:3317   */\n      mstore\n        /* \"contracts/Market.sol\":5148:5155  bytes32 */\n      0x00\n      swap1\n        /* \"contracts/Market.sol\":5180:5183  app */\n      immutable(\"0xd252627c3a7ddb3e9969d764fe6d38be47e2139c12c223f8ce16b1e3a5ed7dbb\")\n      sub(shl(0xa0, 0x01), 0x01)\n        /* \"contracts/Market.sol\":5180:5191  app.isBlack */\n      and\n      swap1\n      0x332daccf\n      swap1\n        /* \"#utility.yul\":3239:3257   */\n      0x24\n      add\n        /* \"contracts/Market.sol\":5180:5203  app.isBlack(msg.sender) */\n      0x20\n      mload(0x40)\n      dup1\n      dup4\n      sub\n      dup2\n      dup7\n      dup1\n      extcodesize\n      iszero\n      dup1\n      iszero\n      tag_127\n      jumpi\n      0x00\n      dup1\n      revert\n    tag_127:\n      pop\n      gas\n      staticcall\n      iszero\n      dup1\n      iszero\n      tag_129\n      jumpi\n      returndatasize\n      0x00\n      dup1\n      returndatacopy\n      revert(0x00, returndatasize)\n    tag_129:\n      pop\n      pop\n      pop\n      pop\n      mload(0x40)\n      returndatasize\n      not(0x1f)\n      0x1f\n      dup3\n      add\n      and\n      dup3\n      add\n      dup1\n      0x40\n      mstore\n      pop\n      dup2\n      add\n      swap1\n      tag_130\n      swap2\n      swap1\n      tag_108\n      jump\t// in\n    tag_130:\n        /* \"contracts/Market.sol\":5179:5203  !app.isBlack(msg.sender) */\n      iszero\n        /* \"contracts/Market.sol\":5171:5217  require(!app.isBlack(msg.sender), \"blacklist\") */\n      tag_131\n      jumpi\n      mload(0x40)\n      shl(0xe5, 0x461bcd)\n      dup2\n      mstore\n        /* \"#utility.yul\":10118:10120   */\n      0x20\n        /* \"contracts/Market.sol\":5171:5217  require(!app.isBlack(msg.sender), \"blacklist\") */\n      0x04\n      dup3\n      add\n        /* \"#utility.yul\":10100:10121   */\n      mstore\n        /* \"#utility.yul\":10157:10158   */\n      0x09\n        /* \"#utility.yul\":10137:10155   */\n      0x24\n      dup3\n      add\n        /* \"#utility.yul\":10130:10159   */\n      mstore\n      shl(0xba, 0x189b1858dadb1a5cdd)\n        /* \"#utility.yul\":10175:10193   */\n      0x44\n      dup3\n      add\n        /* \"#utility.yul\":10168:10207   */\n      mstore\n        /* \"#utility.yul\":10224:10242   */\n      0x64\n      add\n        /* \"contracts/Market.sol\":5171:5217  require(!app.isBlack(msg.sender), \"blacklist\") */\n      tag_68\n        /* \"#utility.yul\":10090:10248   */\n      jump\n        /* \"contracts/Market.sol\":5171:5217  require(!app.isBlack(msg.sender), \"blacklist\") */\n    tag_131:\n        /* \"contracts/Market.sol\":5235:5241  status */\n      sload(0x03)\n        /* \"contracts/Market.sol\":5235:5246  status == 0 */\n      iszero\n        /* \"contracts/Market.sol\":5227:5268  require(status == 0, \"market not active\") */\n      tag_134\n      jumpi\n      mload(0x40)\n      shl(0xe5, 0x461bcd)\n      dup2\n      mstore\n        /* \"#utility.yul\":6971:6973   */\n      0x20\n        /* \"contracts/Market.sol\":5227:5268  require(status == 0, \"market not active\") */\n      0x04\n      dup3\n      add\n        /* \"#utility.yul\":6953:6974   */\n      mstore\n        /* \"#utility.yul\":7010:7012   */\n      0x11\n        /* \"#utility.yul\":6990:7008   */\n      0x24\n      dup3\n      add\n        /* \"#utility.yul\":6983:7013   */\n      mstore\n      shl(0x78, 0x6d61726b6574206e6f7420616374697665)\n        /* \"#utility.yul\":7029:7047   */\n      0x44\n      dup3\n      add\n        /* \"#utility.yul\":7022:7069   */\n      mstore\n        /* \"#utility.yul\":7086:7104   */\n      0x64\n      add\n        /* \"contracts/Market.sol\":5227:5268  require(status == 0, \"market not active\") */\n      tag_68\n        /* \"#utility.yul\":6943:7110   */\n      jump\n        /* \"contracts/Market.sol\":5227:5268  require(status == 0, \"market not active\") */\n    tag_134:\n        /* \"contracts/Market.sol\":5286:5291  _side */\n      dup3\n        /* \"contracts/Market.sol\":5295:5296  1 */\n      0x01\n        /* \"contracts/Market.sol\":5286:5296  _side == 1 */\n      eq\n        /* \"contracts/Market.sol\":5286:5310  _side == 1 || _side == 2 */\n      dup1\n      tag_137\n      jumpi\n      pop\n        /* \"contracts/Market.sol\":5300:5305  _side */\n      dup3\n        /* \"contracts/Market.sol\":5309:5310  2 */\n      0x02\n        /* \"contracts/Market.sol\":5300:5310  _side == 2 */\n      eq\n        /* \"contracts/Market.sol\":5286:5310  _side == 1 || _side == 2 */\n    tag_137:\n        /* \"contracts/Market.sol\":5278:5327  require(_side == 1 || _side == 2, \"invalid side\") */\n      tag_138\n      jumpi\n      mload(0x40)\n      shl(0xe5, 0x461bcd)\n      dup2\n      mstore\n        /* \"#utility.yul\":8371:8373   */\n      0x20\n        /* \"contracts/Market.sol\":5278:5327  require(_side == 1 || _side == 2, \"invalid side\") */\n      0x04\n      dup3\n      add\n        /* \"#utility.yul\":8353:8374   */\n      mstore\n        /* \"#utility.yul\":8410:8412   */\n      0x0c\n        /* \"#utility.yul\":8390:8408   */\n      0x24\n      dup3\n      add\n        /* \"#utility.yul\":8383:8413   */\n      mstore\n      shl(0xa0, 0x696e76616c69642073696465)\n        /* \"#utility.yul\":8429:8447   */\n      0x44\n      dup3\n      add\n        /* \"#utility.yul\":8422:8464   */\n      mstore\n        /* \"#utility.yul\":8481:8499   */\n      0x64\n      add\n        /* \"contracts/Market.sol\":5278:5327  require(_side == 1 || _side == 2, \"invalid side\") */\n      tag_68\n        /* \"#utility.yul\":8343:8505   */\n      jump\n        /* \"contracts/Market.sol\":5278:5327  require(_side == 1 || _side == 2, \"invalid side\") */\n    tag_138:\n        /* \"contracts/Market.sol\":5345:5372  token.balanceOf(msg.sender) */\n      mload(0x40)\n      shl(0xe0, 0x70a08231)\n      dup2\n      mstore\n        /* \"contracts/Market.sol\":5361:5371  msg.sender */\n      caller\n        /* \"contracts/Market.sol\":5345:5372  token.balanceOf(msg.sender) */\n      0x04\n      dup3\n      add\n        /* \"#utility.yul\":3266:3317   */\n      mstore\n        /* \"contracts/Market.sol\":5376:5382  _stake */\n      dup6\n      swap1\n        /* \"contracts/Market.sol\":5345:5350  token */\n      immutable(\"0x20d2ac2a28641786ba03eff53facea687b35e08e680a1b71922c6fc1ed1f2735\")\n      sub(shl(0xa0, 0x01), 0x01)\n        /* \"contracts/Market.sol\":5345:5360  token.balanceOf */\n      and\n      swap1\n      0x70a08231\n      swap1\n        /* \"#utility.yul\":3239:3257   */\n      0x24\n      add\n        /* \"contracts/Market.sol\":5345:5372  token.balanceOf(msg.sender) */\n      0x20\n      mload(0x40)\n      dup1\n      dup4\n      sub\n      dup2\n      dup7\n      dup1\n      extcodesize\n      iszero\n      dup1\n      iszero\n      tag_142\n      jumpi\n      0x00\n      dup1\n      revert\n    tag_142:\n      pop\n      gas\n      staticcall\n      iszero\n      dup1\n      iszero\n      tag_144\n      jumpi\n      returndatasize\n      0x00\n      dup1\n      returndatacopy\n      revert(0x00, returndatasize)\n    tag_144:\n      pop\n      pop\n      pop\n      pop\n      mload(0x40)\n      returndatasize\n      not(0x1f)\n      0x1f\n      dup3\n      add\n      and\n      dup3\n      add\n      dup1\n      0x40\n      mstore\n      pop\n      dup2\n      add\n      swap1\n      tag_145\n      swap2\n      swap1\n      tag_95\n      jump\t// in\n    tag_145:\n        /* \"contracts/Market.sol\":5345:5382  token.balanceOf(msg.sender) >= _stake */\n      lt\n      iszero\n        /* \"contracts/Market.sol\":5337:5411  require(token.balanceOf(msg.sender) >= _stake,\"not enough token balalnce\") */\n      tag_146\n      jumpi\n      mload(0x40)\n      shl(0xe5, 0x461bcd)\n      dup2\n      mstore\n        /* \"#utility.yul\":9415:9417   */\n      0x20\n        /* \"contracts/Market.sol\":5337:5411  require(token.balanceOf(msg.sender) >= _stake,\"not enough token balalnce\") */\n      0x04\n      dup3\n      add\n        /* \"#utility.yul\":9397:9418   */\n      mstore\n        /* \"#utility.yul\":9454:9456   */\n      0x19\n        /* \"#utility.yul\":9434:9452   */\n      0x24\n      dup3\n      add\n        /* \"#utility.yul\":9427:9457   */\n      mstore\n        /* \"#utility.yul\":9493:9520   */\n      0x6e6f7420656e6f75676820746f6b656e2062616c616c6e636500000000000000\n        /* \"#utility.yul\":9473:9491   */\n      0x44\n      dup3\n      add\n        /* \"#utility.yul\":9466:9521   */\n      mstore\n        /* \"#utility.yul\":9538:9556   */\n      0x64\n      add\n        /* \"contracts/Market.sol\":5337:5411  require(token.balanceOf(msg.sender) >= _stake,\"not enough token balalnce\") */\n      tag_68\n        /* \"#utility.yul\":9387:9562   */\n      jump\n        /* \"contracts/Market.sol\":5337:5411  require(token.balanceOf(msg.sender) >= _stake,\"not enough token balalnce\") */\n    tag_146:\n        /* \"contracts/Market.sol\":5429:5471  token.allowance(msg.sender, address(this)) */\n      mload(0x40)\n      shl(0xe1, 0x6eb1769f)\n      dup2\n      mstore\n        /* \"contracts/Market.sol\":5445:5455  msg.sender */\n      caller\n        /* \"contracts/Market.sol\":5429:5471  token.allowance(msg.sender, address(this)) */\n      0x04\n      dup3\n      add\n        /* \"#utility.yul\":3540:3574   */\n      mstore\n        /* \"contracts/Market.sol\":5465:5469  this */\n      address\n        /* \"#utility.yul\":3590:3608   */\n      0x24\n      dup3\n      add\n        /* \"#utility.yul\":3583:3626   */\n      mstore\n        /* \"contracts/Market.sol\":5475:5481  _stake */\n      dup6\n      swap1\n        /* \"contracts/Market.sol\":5429:5434  token */\n      immutable(\"0x20d2ac2a28641786ba03eff53facea687b35e08e680a1b71922c6fc1ed1f2735\")\n      sub(shl(0xa0, 0x01), 0x01)\n        /* \"contracts/Market.sol\":5429:5444  token.allowance */\n      and\n      swap1\n      0xdd62ed3e\n      swap1\n        /* \"#utility.yul\":3475:3493   */\n      0x44\n      add\n        /* \"contracts/Market.sol\":5429:5471  token.allowance(msg.sender, address(this)) */\n      0x20\n      mload(0x40)\n      dup1\n      dup4\n      sub\n      dup2\n      dup7\n      dup1\n      extcodesize\n      iszero\n      dup1\n      iszero\n      tag_151\n      jumpi\n      0x00\n      dup1\n      revert\n    tag_151:\n      pop\n      gas\n      staticcall\n      iszero\n      dup1\n      iszero\n      tag_153\n      jumpi\n      returndatasize\n      0x00\n      dup1\n      returndatacopy\n      revert(0x00, returndatasize)\n    tag_153:\n      pop\n      pop\n      pop\n      pop\n      mload(0x40)\n      returndatasize\n      not(0x1f)\n      0x1f\n      dup3\n      add\n      and\n      dup3\n      add\n      dup1\n      0x40\n      mstore\n      pop\n      dup2\n      add\n      swap1\n      tag_154\n      swap2\n      swap1\n      tag_95\n      jump\t// in\n    tag_154:\n        /* \"contracts/Market.sol\":5429:5481  token.allowance(msg.sender, address(this)) >= _stake */\n      lt\n      iszero\n        /* \"contracts/Market.sol\":5421:5505  require(token.allowance(msg.sender, address(this)) >= _stake,\"not enough allowance\") */\n      tag_155\n      jumpi\n      mload(0x40)\n      shl(0xe5, 0x461bcd)\n      dup2\n      mstore\n        /* \"#utility.yul\":9769:9771   */\n      0x20\n        /* \"contracts/Market.sol\":5421:5505  require(token.allowance(msg.sender, address(this)) >= _stake,\"not enough allowance\") */\n      0x04\n      dup3\n      add\n        /* \"#utility.yul\":9751:9772   */\n      mstore\n        /* \"#utility.yul\":9808:9810   */\n      0x14\n        /* \"#utility.yul\":9788:9806   */\n      0x24\n      dup3\n      add\n        /* \"#utility.yul\":9781:9811   */\n      mstore\n      shl(0x60, 0x6e6f7420656e6f75676820616c6c6f77616e6365)\n        /* \"#utility.yul\":9827:9845   */\n      0x44\n      dup3\n      add\n        /* \"#utility.yul\":9820:9870   */\n      mstore\n        /* \"#utility.yul\":9887:9905   */\n      0x64\n      add\n        /* \"contracts/Market.sol\":5421:5505  require(token.allowance(msg.sender, address(this)) >= _stake,\"not enough allowance\") */\n      tag_68\n        /* \"#utility.yul\":9741:9911   */\n      jump\n        /* \"contracts/Market.sol\":5421:5505  require(token.allowance(msg.sender, address(this)) >= _stake,\"not enough allowance\") */\n    tag_155:\n        /* \"contracts/Market.sol\":5533:5536  app */\n      immutable(\"0xd252627c3a7ddb3e9969d764fe6d38be47e2139c12c223f8ce16b1e3a5ed7dbb\")\n      sub(shl(0xa0, 0x01), 0x01)\n        /* \"contracts/Market.sol\":5533:5545  app.minStake */\n      and\n      0x375b3c0a\n        /* \"contracts/Market.sol\":5533:5547  app.minStake() */\n      mload(0x40)\n      dup2\n      0xffffffff\n      and\n      0xe0\n      shl\n      dup2\n      mstore\n      0x04\n      add\n      0x20\n      mload(0x40)\n      dup1\n      dup4\n      sub\n      dup2\n      dup7\n      dup1\n      extcodesize\n      iszero\n      dup1\n      iszero\n      tag_158\n      jumpi\n      0x00\n      dup1\n      revert\n    tag_158:\n      pop\n      gas\n      staticcall\n      iszero\n      dup1\n      iszero\n      tag_160\n      jumpi\n      returndatasize\n      0x00\n      dup1\n      returndatacopy\n      revert(0x00, returndatasize)\n    tag_160:\n      pop\n      pop\n      pop\n      pop\n      mload(0x40)\n      returndatasize\n      not(0x1f)\n      0x1f\n      dup3\n      add\n      and\n      dup3\n      add\n      dup1\n      0x40\n      mstore\n      pop\n      dup2\n      add\n      swap1\n      tag_161\n      swap2\n      swap1\n      tag_95\n      jump\t// in\n    tag_161:\n        /* \"contracts/Market.sol\":5523:5529  _stake */\n      dup6\n        /* \"contracts/Market.sol\":5523:5547  _stake >= app.minStake() */\n      lt\n      iszero\n        /* \"contracts/Market.sol\":5515:5570  require(_stake >= app.minStake(),\"less than min stake\") */\n      tag_162\n      jumpi\n      mload(0x40)\n      shl(0xe5, 0x461bcd)\n      dup2\n      mstore\n        /* \"#utility.yul\":6623:6625   */\n      0x20\n        /* \"contracts/Market.sol\":5515:5570  require(_stake >= app.minStake(),\"less than min stake\") */\n      0x04\n      dup3\n      add\n        /* \"#utility.yul\":6605:6626   */\n      mstore\n        /* \"#utility.yul\":6662:6664   */\n      0x13\n        /* \"#utility.yul\":6642:6660   */\n      0x24\n      dup3\n      add\n        /* \"#utility.yul\":6635:6665   */\n      mstore\n      shl(0x68, 0x6c657373207468616e206d696e207374616b65)\n        /* \"#utility.yul\":6681:6699   */\n      0x44\n      dup3\n      add\n        /* \"#utility.yul\":6674:6723   */\n      mstore\n        /* \"#utility.yul\":6740:6758   */\n      0x64\n      add\n        /* \"contracts/Market.sol\":5515:5570  require(_stake >= app.minStake(),\"less than min stake\") */\n      tag_68\n        /* \"#utility.yul\":6595:6764   */\n      jump\n        /* \"contracts/Market.sol\":5515:5570  require(_stake >= app.minStake(),\"less than min stake\") */\n    tag_162:\n        /* \"contracts/Market.sol\":5601:5654  token.transferFrom(msg.sender, address(this), _stake) */\n      mload(0x40)\n      shl(0xe0, 0x23b872dd)\n      dup2\n      mstore\n        /* \"contracts/Market.sol\":5620:5630  msg.sender */\n      caller\n        /* \"contracts/Market.sol\":5601:5654  token.transferFrom(msg.sender, address(this), _stake) */\n      0x04\n      dup3\n      add\n        /* \"#utility.yul\":4473:4507   */\n      mstore\n        /* \"contracts/Market.sol\":5640:5644  this */\n      address\n        /* \"#utility.yul\":4523:4541   */\n      0x24\n      dup3\n      add\n        /* \"#utility.yul\":4516:4559   */\n      mstore\n        /* \"#utility.yul\":4575:4593   */\n      0x44\n      dup2\n      add\n        /* \"#utility.yul\":4568:4602   */\n      dup7\n      swap1\n      mstore\n        /* \"contracts/Market.sol\":5601:5606  token */\n      immutable(\"0x20d2ac2a28641786ba03eff53facea687b35e08e680a1b71922c6fc1ed1f2735\")\n      sub(shl(0xa0, 0x01), 0x01)\n        /* \"contracts/Market.sol\":5601:5619  token.transferFrom */\n      and\n      swap1\n      0x23b872dd\n      swap1\n        /* \"#utility.yul\":4408:4426   */\n      0x64\n      add\n        /* \"contracts/Market.sol\":5601:5654  token.transferFrom(msg.sender, address(this), _stake) */\n      0x20\n      mload(0x40)\n      dup1\n      dup4\n      sub\n      dup2\n      0x00\n      dup8\n      dup1\n      extcodesize\n      iszero\n      dup1\n      iszero\n      tag_167\n      jumpi\n      0x00\n      dup1\n      revert\n    tag_167:\n      pop\n      gas\n      call\n      iszero\n      dup1\n      iszero\n      tag_169\n      jumpi\n      returndatasize\n      0x00\n      dup1\n      returndatacopy\n      revert(0x00, returndatasize)\n    tag_169:\n      pop\n      pop\n      pop\n      pop\n      mload(0x40)\n      returndatasize\n      not(0x1f)\n      0x1f\n      dup3\n      add\n      and\n      dup3\n      add\n      dup1\n      0x40\n      mstore\n      pop\n      dup2\n      add\n      swap1\n      tag_170\n      swap2\n      swap1\n      tag_108\n      jump\t// in\n    tag_170:\n        /* \"contracts/Market.sol\":5580:5707  require(... */\n      tag_171\n      jumpi\n      mload(0x40)\n      shl(0xe5, 0x461bcd)\n      dup2\n      mstore\n        /* \"#utility.yul\":7317:7319   */\n      0x20\n        /* \"contracts/Market.sol\":5580:5707  require(... */\n      0x04\n      dup3\n      add\n        /* \"#utility.yul\":7299:7320   */\n      mstore\n        /* \"#utility.yul\":7356:7358   */\n      0x1b\n        /* \"#utility.yul\":7336:7354   */\n      0x24\n      dup3\n      add\n        /* \"#utility.yul\":7329:7359   */\n      mstore\n        /* \"#utility.yul\":7395:7424   */\n      0x7472616e736665722066726f6d2063616c6c6572206661696c65640000000000\n        /* \"#utility.yul\":7375:7393   */\n      0x44\n      dup3\n      add\n        /* \"#utility.yul\":7368:7425   */\n      mstore\n        /* \"#utility.yul\":7442:7460   */\n      0x64\n      add\n        /* \"contracts/Market.sol\":5580:5707  require(... */\n      tag_68\n        /* \"#utility.yul\":7289:7466   */\n      jump\n        /* \"contracts/Market.sol\":5580:5707  require(... */\n    tag_171:\n        /* \"contracts/Market.sol\":5717:5732  bytes32 betHash */\n      0x00\n        /* \"contracts/Market.sol\":5735:5897  _createBet(... */\n      tag_174\n        /* \"contracts/Market.sol\":5759:5766  _better */\n      dup9\n        /* \"contracts/Market.sol\":5780:5790  _affiliate */\n      dup9\n        /* \"contracts/Market.sol\":5804:5810  _stake */\n      dup9\n        /* \"contracts/Market.sol\":5717:5732  bytes32 betHash */\n      dup5\n        /* \"contracts/Market.sol\":5856:5867  _odds - 100 */\n      tag_175\n        /* \"contracts/Market.sol\":5864:5867  100 */\n      0x64\n        /* \"contracts/Market.sol\":5856:5861  _odds */\n      dup12\n        /* \"contracts/Market.sol\":5856:5867  _odds - 100 */\n      tag_101\n      jump\t// in\n    tag_175:\n        /* \"contracts/Market.sol\":5840:5851  _odds * 100 */\n      tag_176\n        /* \"contracts/Market.sol\":5840:5845  _odds */\n      dup12\n        /* \"contracts/Market.sol\":5848:5851  100 */\n      0x64\n        /* \"contracts/Market.sol\":5840:5851  _odds * 100 */\n      tag_177\n      jump\t// in\n    tag_176:\n        /* \"contracts/Market.sol\":5839:5868  (_odds * 100) / (_odds - 100) */\n      tag_178\n      swap2\n      swap1\n      tag_179\n      jump\t// in\n    tag_178:\n        /* \"contracts/Market.sol\":5882:5887  _side */\n      dup10\n        /* \"contracts/Market.sol\":5735:5745  _createBet */\n      tag_180\n        /* \"contracts/Market.sol\":5735:5897  _createBet(... */\n      jump\t// in\n    tag_174:\n        /* \"contracts/Market.sol\":6143:6147  bets */\n      0x05\n        /* \"contracts/Market.sol\":6143:6154  bets.length */\n      sload\n        /* \"contracts/Market.sol\":5717:5897  bytes32 betHash = _createBet(... */\n      swap1\n      swap2\n      pop\n        /* \"contracts/Market.sol\":6143:6158  bets.length > 0 */\n      iszero\n        /* \"contracts/Market.sol\":6140:7436  if(bets.length > 0){... */\n      tag_181\n      jumpi\n        /* \"contracts/Market.sol\":6231:6235  bets */\n      0x05\n        /* \"contracts/Market.sol\":6231:6242  bets.length */\n      sload\n        /* \"contracts/Market.sol\":6190:6196  _stake */\n      dup7\n      swap1\n        /* \"contracts/Market.sol\":6256:7426  while(_remStake >= app.minStake()){... */\n    tag_182:\n        /* \"contracts/Market.sol\":6275:6278  app */\n      immutable(\"0xd252627c3a7ddb3e9969d764fe6d38be47e2139c12c223f8ce16b1e3a5ed7dbb\")\n      sub(shl(0xa0, 0x01), 0x01)\n        /* \"contracts/Market.sol\":6275:6287  app.minStake */\n      and\n      0x375b3c0a\n        /* \"contracts/Market.sol\":6275:6289  app.minStake() */\n      mload(0x40)\n      dup2\n      0xffffffff\n      and\n      0xe0\n      shl\n      dup2\n      mstore\n      0x04\n      add\n      0x20\n      mload(0x40)\n      dup1\n      dup4\n      sub\n      dup2\n      dup7\n      dup1\n      extcodesize\n      iszero\n      dup1\n      iszero\n      tag_184\n      jumpi\n      0x00\n      dup1\n      revert\n    tag_184:\n      pop\n      gas\n      staticcall\n      iszero\n      dup1\n      iszero\n      tag_186\n      jumpi\n      returndatasize\n      0x00\n      dup1\n      returndatacopy\n      revert(0x00, returndatasize)\n    tag_186:\n      pop\n      pop\n      pop\n      pop\n      mload(0x40)\n      returndatasize\n      not(0x1f)\n      0x1f\n      dup3\n      add\n      and\n      dup3\n      add\n      dup1\n      0x40\n      mstore\n      pop\n      dup2\n      add\n      swap1\n      tag_187\n      swap2\n      swap1\n      tag_95\n      jump\t// in\n    tag_187:\n        /* \"contracts/Market.sol\":6262:6271  _remStake */\n      dup3\n        /* \"contracts/Market.sol\":6262:6289  _remStake >= app.minStake() */\n      lt\n        /* \"contracts/Market.sol\":6256:7426  while(_remStake >= app.minStake()){... */\n      tag_183\n      jumpi\n        /* \"contracts/Market.sol\":6308:6326  uint selectedIndex */\n      0x00\n        /* \"contracts/Market.sol\":6348:6363  uint256 maxOdds */\n      dup1\n        /* \"contracts/Market.sol\":6389:6395  uint i */\n      0x00\n        /* \"contracts/Market.sol\":6385:6765  for(uint i = 0; i < betsLength; i++){... */\n    tag_188:\n        /* \"contracts/Market.sol\":6405:6415  betsLength */\n      dup4\n        /* \"contracts/Market.sol\":6401:6402  i */\n      dup2\n        /* \"contracts/Market.sol\":6401:6415  i < betsLength */\n      lt\n        /* \"contracts/Market.sol\":6385:6765  for(uint i = 0; i < betsLength; i++){... */\n      iszero\n      tag_189\n      jumpi\n        /* \"contracts/Market.sol\":6443:6454  bytes32 bet */\n      0x00\n        /* \"contracts/Market.sol\":6457:6461  bets */\n      0x05\n        /* \"contracts/Market.sol\":6462:6463  i */\n      dup3\n        /* \"contracts/Market.sol\":6457:6464  bets[i] */\n      dup2\n      sload\n      dup2\n      lt\n      tag_191\n      jumpi\n      mstore(0x00, shl(0xe0, 0x4e487b71))\n      mstore(0x04, 0x32)\n      revert(0x00, 0x24)\n    tag_191:\n      swap1\n      0x00\n      mstore\n      keccak256(0x00, 0x20)\n      add\n      sload\n        /* \"contracts/Market.sol\":6443:6464  bytes32 bet = bets[i] */\n      swap1\n      pop\n        /* \"contracts/Market.sol\":6498:6506  betsInfo */\n      0x07\n        /* \"contracts/Market.sol\":6498:6511  betsInfo[bet] */\n      0x00\n        /* \"contracts/Market.sol\":6507:6510  bet */\n      dup3\n        /* \"contracts/Market.sol\":6498:6511  betsInfo[bet] */\n      dup2\n      mstore\n      0x20\n      add\n      swap1\n      dup2\n      mstore\n      0x20\n      add\n      0x00\n      keccak256\n        /* \"contracts/Market.sol\":6498:6516  betsInfo[bet].side */\n      0x05\n      add\n      sload\n        /* \"contracts/Market.sol\":6489:6494  _side */\n      dup11\n        /* \"contracts/Market.sol\":6489:6516  _side == betsInfo[bet].side */\n      eq\n        /* \"contracts/Market.sol\":6486:6574  if(_side == betsInfo[bet].side){... */\n      iszero\n      tag_193\n      jumpi\n        /* \"contracts/Market.sol\":6543:6551  continue */\n      pop\n      jump(tag_190)\n        /* \"contracts/Market.sol\":6486:6574  if(_side == betsInfo[bet].side){... */\n    tag_193:\n        /* \"contracts/Market.sol\":6598:6611  betsInfo[bet] */\n      0x00\n      dup2\n      dup2\n      mstore\n        /* \"contracts/Market.sol\":6598:6606  betsInfo */\n      0x07\n        /* \"contracts/Market.sol\":6598:6611  betsInfo[bet] */\n      0x20\n      mstore\n      0x40\n      swap1\n      keccak256\n        /* \"contracts/Market.sol\":6598:6616  betsInfo[bet].odds */\n      0x04\n      add\n      sload\n        /* \"contracts/Market.sol\":6598:6626  betsInfo[bet].odds > maxOdds */\n      dup4\n      lt\n        /* \"contracts/Market.sol\":6595:6747  if(betsInfo[bet].odds > maxOdds){... */\n      iszero\n      tag_194\n      jumpi\n        /* \"contracts/Market.sol\":6663:6676  betsInfo[bet] */\n      0x00\n      dup2\n      dup2\n      mstore\n        /* \"contracts/Market.sol\":6663:6671  betsInfo */\n      0x07\n        /* \"contracts/Market.sol\":6663:6676  betsInfo[bet] */\n      0x20\n      mstore\n      0x40\n      swap1\n      keccak256\n        /* \"contracts/Market.sol\":6663:6681  betsInfo[bet].odds */\n      0x04\n      add\n      sload\n        /* \"contracts/Market.sol\":6723:6724  i */\n      swap2\n      swap4\n      pop\n        /* \"contracts/Market.sol\":6663:6681  betsInfo[bet].odds */\n      swap1\n      swap2\n      pop\n        /* \"contracts/Market.sol\":6723:6724  i */\n      dup3\n      swap1\n        /* \"contracts/Market.sol\":6595:6747  if(betsInfo[bet].odds > maxOdds){... */\n    tag_194:\n        /* \"contracts/Market.sol\":6385:6765  for(uint i = 0; i < betsLength; i++){... */\n      pop\n    tag_190:\n        /* \"contracts/Market.sol\":6417:6420  i++ */\n      dup1\n      tag_195\n      dup2\n      tag_83\n      jump\t// in\n    tag_195:\n      swap2\n      pop\n      pop\n        /* \"contracts/Market.sol\":6385:6765  for(uint i = 0; i < betsLength; i++){... */\n      jump(tag_188)\n    tag_189:\n      pop\n        /* \"contracts/Market.sol\":6782:6802  uint256 betterAmount */\n      0x00\n        /* \"contracts/Market.sol\":6837:6842  _odds */\n      dup10\n        /* \"contracts/Market.sol\":6827:6834  maxOdds */\n      dup3\n        /* \"contracts/Market.sol\":6827:6842  maxOdds > _odds */\n      gt\n        /* \"contracts/Market.sol\":6827:6871  maxOdds > _odds || (maxOdds > 0 && _instant) */\n      dup1\n      tag_197\n      jumpi\n      pop\n        /* \"contracts/Market.sol\":6857:6858  0 */\n      0x00\n        /* \"contracts/Market.sol\":6847:6854  maxOdds */\n      dup3\n        /* \"contracts/Market.sol\":6847:6858  maxOdds > 0 */\n      gt\n        /* \"contracts/Market.sol\":6847:6870  maxOdds > 0 && _instant */\n      dup1\n      iszero\n      tag_197\n      jumpi\n      pop\n        /* \"contracts/Market.sol\":6862:6870  _instant */\n      dup8\n        /* \"contracts/Market.sol\":6847:6870  maxOdds > 0 && _instant */\n    tag_197:\n        /* \"contracts/Market.sol\":6824:7369  if(maxOdds > _odds || (maxOdds > 0 && _instant)) {... */\n      iszero\n      tag_198\n      jumpi\n        /* \"contracts/Market.sol\":6895:6915  bytes32 selectedHash */\n      0x00\n        /* \"contracts/Market.sol\":6918:6922  bets */\n      0x05\n        /* \"contracts/Market.sol\":6923:6936  selectedIndex */\n      dup5\n        /* \"contracts/Market.sol\":6918:6937  bets[selectedIndex] */\n      dup2\n      sload\n      dup2\n      lt\n      tag_199\n      jumpi\n      mstore(0x00, shl(0xe0, 0x4e487b71))\n      mstore(0x04, 0x32)\n      revert(0x00, 0x24)\n    tag_199:\n      0x00\n      swap2\n      dup3\n      mstore\n      0x20\n      dup1\n      dup4\n      keccak256\n      swap1\n      swap2\n      add\n      sload\n        /* \"contracts/Market.sol\":6997:7019  betsInfo[selectedHash] */\n      dup1\n      dup4\n      mstore\n        /* \"contracts/Market.sol\":6997:7005  betsInfo */\n      0x07\n        /* \"contracts/Market.sol\":6997:7019  betsInfo[selectedHash] */\n      dup3\n      mstore\n      0x40\n      dup1\n      dup5\n      keccak256\n        /* \"contracts/Market.sol\":6959:7019  Struct.MarketBet memory selectedBet = betsInfo[selectedHash] */\n      dup2\n      mload\n      0xc0\n      dup2\n      add\n      dup4\n      mstore\n      dup2\n      sload\n      sub(shl(0xa0, 0x01), 0x01)\n      swap1\n      dup2\n      and\n      dup3\n      mstore\n      0x01\n      dup4\n      add\n      sload\n      and\n      swap5\n      dup2\n      add\n      swap5\n      swap1\n      swap5\n      mstore\n      0x02\n      dup2\n      add\n      sload\n      swap2\n      dup5\n      add\n      swap2\n      swap1\n      swap2\n      mstore\n      0x03\n      dup2\n      add\n      sload\n      0x60\n      dup5\n      add\n      mstore\n      0x04\n      dup2\n      add\n      sload\n      0x80\n      dup5\n      add\n      mstore\n      0x05\n      add\n      sload\n      0xa0\n      dup4\n      add\n      mstore\n        /* \"contracts/Market.sol\":6918:6937  bets[selectedIndex] */\n      swap3\n      pop\n        /* \"contracts/Market.sol\":6959:7019  Struct.MarketBet memory selectedBet = betsInfo[selectedHash] */\n      swap1\n        /* \"contracts/Market.sol\":7106:7117  _odds - 100 */\n      tag_201\n        /* \"contracts/Market.sol\":7114:7117  100 */\n      0x64\n        /* \"contracts/Market.sol\":7106:7111  _odds */\n      dup15\n        /* \"contracts/Market.sol\":7106:7117  _odds - 100 */\n      tag_101\n      jump\t// in\n    tag_201:\n        /* \"contracts/Market.sol\":7082:7093  selectedBet */\n      dup3\n        /* \"contracts/Market.sol\":7082:7101  selectedBet.matched */\n      0x60\n      add\n      mload\n        /* \"contracts/Market.sol\":7062:7073  selectedBet */\n      dup4\n        /* \"contracts/Market.sol\":7062:7079  selectedBet.stake */\n      0x40\n      add\n      mload\n        /* \"contracts/Market.sol\":7062:7101  selectedBet.stake - selectedBet.matched */\n      tag_202\n      swap2\n      swap1\n      tag_101\n      jump\t// in\n    tag_202:\n        /* \"contracts/Market.sol\":7061:7118  (selectedBet.stake - selectedBet.matched) / (_odds - 100) */\n      tag_203\n      swap2\n      swap1\n      tag_179\n      jump\t// in\n    tag_203:\n        /* \"contracts/Market.sol\":7041:7118  uint offeredStake = (selectedBet.stake - selectedBet.matched) / (_odds - 100) */\n      swap1\n      pop\n        /* \"contracts/Market.sol\":7140:7159  offeredStake *= 100 */\n      tag_204\n        /* \"contracts/Market.sol\":7156:7159  100 */\n      0x64\n        /* \"contracts/Market.sol\":7041:7118  uint offeredStake = (selectedBet.stake - selectedBet.matched) / (_odds - 100) */\n      dup3\n        /* \"contracts/Market.sol\":7140:7159  offeredStake *= 100 */\n      tag_177\n      jump\t// in\n    tag_204:\n      swap1\n      pop\n        /* \"contracts/Market.sol\":7217:7282  _match(_stake, offeredStake, _odds, _side, betHash, selectedHash) */\n      tag_205\n        /* \"contracts/Market.sol\":7224:7230  _stake */\n      dup15\n        /* \"contracts/Market.sol\":7232:7244  offeredStake */\n      dup3\n        /* \"contracts/Market.sol\":7246:7251  _odds */\n      dup16\n        /* \"contracts/Market.sol\":7253:7258  _side */\n      dup16\n        /* \"contracts/Market.sol\":7260:7267  betHash */\n      dup14\n        /* \"contracts/Market.sol\":7269:7281  selectedHash */\n      dup9\n        /* \"contracts/Market.sol\":7217:7223  _match */\n      tag_206\n        /* \"contracts/Market.sol\":7217:7282  _match(_stake, offeredStake, _odds, _side, betHash, selectedHash) */\n      jump\t// in\n    tag_205:\n        /* \"contracts/Market.sol\":7202:7282  betterAmount = _match(_stake, offeredStake, _odds, _side, betHash, selectedHash) */\n      swap4\n      pop\n        /* \"contracts/Market.sol\":6824:7369  if(maxOdds > _odds || (maxOdds > 0 && _instant)) {... */\n      pop\n      pop\n      pop\n      jump(tag_207)\n    tag_198:\n        /* \"contracts/Market.sol\":7345:7350  break */\n      pop\n      pop\n      pop\n      jump(tag_183)\n        /* \"contracts/Market.sol\":6824:7369  if(maxOdds > _odds || (maxOdds > 0 && _instant)) {... */\n    tag_207:\n        /* \"contracts/Market.sol\":7386:7411  _remStake -= betterAmount */\n      tag_208\n        /* \"contracts/Market.sol\":7399:7411  betterAmount */\n      dup2\n        /* \"contracts/Market.sol\":7386:7411  _remStake -= betterAmount */\n      dup7\n      tag_101\n      jump\t// in\n    tag_208:\n      swap5\n      pop\n        /* \"contracts/Market.sol\":6256:7426  while(_remStake >= app.minStake()){... */\n      pop\n      pop\n      pop\n      jump(tag_182)\n    tag_183:\n        /* \"contracts/Market.sol\":6140:7436  if(bets.length > 0){... */\n      pop\n      pop\n    tag_181:\n        /* \"contracts/Market.sol\":7450:7518  BetCreated(msg.sender, address(this), betHash, _stake, _odds, _side) */\n      0x40\n      dup1\n      mload\n        /* \"contracts/Market.sol\":7461:7471  msg.sender */\n      caller\n        /* \"#utility.yul\":3962:3996   */\n      dup2\n      mstore\n        /* \"contracts/Market.sol\":7481:7485  this */\n      address\n        /* \"#utility.yul\":4027:4029   */\n      0x20\n        /* \"#utility.yul\":4012:4030   */\n      dup3\n      add\n        /* \"#utility.yul\":4005:4048   */\n      mstore\n        /* \"#utility.yul\":4064:4082   */\n      swap1\n      dup2\n      add\n        /* \"#utility.yul\":4057:4091   */\n      dup3\n      swap1\n      mstore\n        /* \"#utility.yul\":4122:4124   */\n      0x60\n        /* \"#utility.yul\":4107:4125   */\n      dup2\n      add\n        /* \"#utility.yul\":4100:4134   */\n      dup8\n      swap1\n      mstore\n        /* \"#utility.yul\":4165:4168   */\n      0x80\n        /* \"#utility.yul\":4150:4169   */\n      dup2\n      add\n        /* \"#utility.yul\":4143:4178   */\n      dup7\n      swap1\n      mstore\n        /* \"#utility.yul\":3942:3945   */\n      0xa0\n        /* \"#utility.yul\":4194:4213   */\n      dup2\n      add\n        /* \"#utility.yul\":4187:4222   */\n      dup6\n      swap1\n      mstore\n        /* \"contracts/Market.sol\":7450:7518  BetCreated(msg.sender, address(this), betHash, _stake, _odds, _side) */\n      0x618f358bb45538682ade624a4a1959053d9dabd20fe300508034b879681b37be\n      swap1\n        /* \"#utility.yul\":3911:3914   */\n      0xc0\n        /* \"#utility.yul\":3896:3915   */\n      add\n        /* \"contracts/Market.sol\":7450:7518  BetCreated(msg.sender, address(this), betHash, _stake, _odds, _side) */\n      mload(0x40)\n      dup1\n      swap2\n      sub\n      swap1\n      log1\n        /* \"contracts/Market.sol\":7535:7542  betHash */\n      swap8\n        /* \"contracts/Market.sol\":4941:7549  function addBet(... */\n      swap7\n      pop\n      pop\n      pop\n      pop\n      pop\n      pop\n      pop\n      jump\t// out\n        /* \"contracts/Market.sol\":2620:3009  function withdrawPending(bytes32 _bet) public override {... */\n    tag_46:\n        /* \"contracts/Market.sol\":2685:2712  Struct.MarketBet memory bet */\n      0x00\n        /* \"contracts/Market.sol\":2715:2729  betsInfo[_bet] */\n      dup2\n      dup2\n      mstore\n        /* \"contracts/Market.sol\":2715:2723  betsInfo */\n      0x07\n        /* \"contracts/Market.sol\":2715:2729  betsInfo[_bet] */\n      0x20\n      swap1\n      dup2\n      mstore\n      0x40\n      swap2\n      dup3\n      swap1\n      keccak256\n        /* \"contracts/Market.sol\":2685:2729  Struct.MarketBet memory bet = betsInfo[_bet] */\n      dup3\n      mload\n      0xc0\n      dup2\n      add\n      dup5\n      mstore\n      dup2\n      sload\n      sub(shl(0xa0, 0x01), 0x01)\n      swap1\n      dup2\n      and\n      dup1\n      dup4\n      mstore\n      0x01\n      dup5\n      add\n      sload\n      swap1\n      swap2\n      and\n      swap4\n      dup3\n      add\n      swap4\n      swap1\n      swap4\n      mstore\n      0x02\n      dup3\n      add\n      sload\n      swap4\n      dup2\n      add\n      swap4\n      swap1\n      swap4\n      mstore\n      0x03\n      dup2\n      add\n      sload\n      0x60\n      dup5\n      add\n      mstore\n      0x04\n      dup2\n      add\n      sload\n      0x80\n      dup5\n      add\n      mstore\n      0x05\n      add\n      sload\n      0xa0\n      dup4\n      add\n      mstore\n        /* \"contracts/Market.sol\":2747:2757  msg.sender */\n      caller\n        /* \"contracts/Market.sol\":2747:2771  msg.sender == bet.better */\n      eq\n        /* \"contracts/Market.sol\":2739:2795  require(msg.sender == bet.better, \"unauthorized caller\") */\n      tag_212\n      jumpi\n      mload(0x40)\n      shl(0xe5, 0x461bcd)\n      dup2\n      mstore\n        /* \"#utility.yul\":7673:7675   */\n      0x20\n        /* \"contracts/Market.sol\":2739:2795  require(msg.sender == bet.better, \"unauthorized caller\") */\n      0x04\n      dup3\n      add\n        /* \"#utility.yul\":7655:7676   */\n      mstore\n        /* \"#utility.yul\":7712:7714   */\n      0x13\n        /* \"#utility.yul\":7692:7710   */\n      0x24\n      dup3\n      add\n        /* \"#utility.yul\":7685:7715   */\n      mstore\n      shl(0x69, 0x3ab730baba3437b934bd32b21031b0b63632b9)\n        /* \"#utility.yul\":7731:7749   */\n      0x44\n      dup3\n      add\n        /* \"#utility.yul\":7724:7773   */\n      mstore\n        /* \"#utility.yul\":7790:7808   */\n      0x64\n      add\n        /* \"contracts/Market.sol\":2739:2795  require(msg.sender == bet.better, \"unauthorized caller\") */\n      tag_68\n        /* \"#utility.yul\":7645:7814   */\n      jump\n        /* \"contracts/Market.sol\":2739:2795  require(msg.sender == bet.better, \"unauthorized caller\") */\n    tag_212:\n        /* \"contracts/Market.sol\":2805:2818  uint remStake */\n      0x00\n        /* \"contracts/Market.sol\":2833:2836  bet */\n      dup2\n        /* \"contracts/Market.sol\":2833:2844  bet.matched */\n      0x60\n      add\n      mload\n        /* \"contracts/Market.sol\":2821:2824  bet */\n      dup3\n        /* \"contracts/Market.sol\":2821:2830  bet.stake */\n      0x40\n      add\n      mload\n        /* \"contracts/Market.sol\":2821:2844  bet.stake - bet.matched */\n      tag_214\n      swap2\n      swap1\n      tag_101\n      jump\t// in\n    tag_214:\n        /* \"contracts/Market.sol\":2858:2868  bet.better */\n      dup3\n      mload\n      sub(shl(0xa0, 0x01), 0x01)\n        /* \"contracts/Market.sol\":2854:2869  bal[bet.better] */\n      and\n      0x00\n      swap1\n      dup2\n      mstore\n        /* \"contracts/Market.sol\":2854:2857  bal */\n      0x06\n        /* \"contracts/Market.sol\":2854:2869  bal[bet.better] */\n      0x20\n      mstore\n      0x40\n      dup2\n      keccak256\n        /* \"contracts/Market.sol\":2854:2881  bal[bet.better] += remStake */\n      dup1\n      sload\n        /* \"contracts/Market.sol\":2805:2844  uint remStake = bet.stake - bet.matched */\n      swap3\n      swap4\n      pop\n      dup4\n      swap3\n        /* \"contracts/Market.sol\":2854:2869  bal[bet.better] */\n      swap1\n      swap2\n      swap1\n        /* \"contracts/Market.sol\":2854:2881  bal[bet.better] += remStake */\n      tag_215\n      swap1\n        /* \"contracts/Market.sol\":2805:2844  uint remStake = bet.stake - bet.matched */\n      dup5\n      swap1\n        /* \"contracts/Market.sol\":2854:2881  bal[bet.better] += remStake */\n      tag_216\n      jump\t// in\n    tag_215:\n      swap1\n      swap2\n      sstore\n      pop\n      pop\n        /* \"contracts/Market.sol\":2916:2925  bet.stake */\n      0x40\n      dup1\n      dup4\n      add\n      mload\n        /* \"contracts/Market.sol\":2891:2905  betsInfo[_bet] */\n      0x00\n      dup6\n      dup2\n      mstore\n        /* \"contracts/Market.sol\":2891:2899  betsInfo */\n      0x07\n        /* \"contracts/Market.sol\":2891:2905  betsInfo[_bet] */\n      0x20\n      swap1\n      dup2\n      mstore\n      dup4\n      dup3\n      keccak256\n        /* \"contracts/Market.sol\":2891:2913  betsInfo[_bet].matched */\n      0x03\n      add\n        /* \"contracts/Market.sol\":2891:2925  betsInfo[_bet].matched = bet.stake */\n      swap3\n      swap1\n      swap3\n      sstore\n        /* \"contracts/Market.sol\":2942:2952  msg.sender */\n      caller\n        /* \"contracts/Market.sol\":2938:2953  bal[msg.sender] */\n      dup2\n      mstore\n        /* \"contracts/Market.sol\":2938:2941  bal */\n      0x06\n        /* \"contracts/Market.sol\":2938:2953  bal[msg.sender] */\n      swap1\n      swap2\n      mstore\n      keccak256\n      sload\n        /* \"contracts/Market.sol\":2938:2957  bal[msg.sender] > 0 */\n      iszero\n        /* \"contracts/Market.sol\":2935:3003  if(bal[msg.sender] > 0){... */\n      tag_123\n      jumpi\n        /* \"contracts/Market.sol\":2972:2992  withdraw(msg.sender) */\n      tag_124\n        /* \"contracts/Market.sol\":2981:2991  msg.sender */\n      caller\n        /* \"contracts/Market.sol\":2972:2980  withdraw */\n      tag_32\n        /* \"contracts/Market.sol\":2972:2992  withdraw(msg.sender) */\n      jump\t// in\n        /* \"contracts/Market.sol\":3936:4347  function settle(uint256 _winningSide)... */\n    tag_50:\n        /* \"contracts/Market.sol\":1046:1051  owner */\n      sload(0x01)\n        /* \"contracts/Market.sol\":4044:4048  bool */\n      0x00\n      swap1\n      sub(shl(0xa0, 0x01), 0x01)\n        /* \"contracts/Market.sol\":1046:1051  owner */\n      and\n        /* \"contracts/Market.sol\":1032:1042  msg.sender */\n      caller\n        /* \"contracts/Market.sol\":1032:1051  msg.sender == owner */\n      eq\n      dup1\n        /* \"contracts/Market.sol\":1032:1114  msg.sender == owner ... */\n      tag_220\n      jumpi\n      pop\n        /* \"contracts/Market.sol\":1095:1098  app */\n      immutable(\"0xd252627c3a7ddb3e9969d764fe6d38be47e2139c12c223f8ce16b1e3a5ed7dbb\")\n      sub(shl(0xa0, 0x01), 0x01)\n        /* \"contracts/Market.sol\":1095:1112  app.contractOwner */\n      and\n      0xce606ee0\n        /* \"contracts/Market.sol\":1095:1114  app.contractOwner() */\n      mload(0x40)\n      dup2\n      0xffffffff\n      and\n      0xe0\n      shl\n      dup2\n      mstore\n      0x04\n      add\n      0x20\n      mload(0x40)\n      dup1\n      dup4\n      sub\n      dup2\n      dup7\n      dup1\n      extcodesize\n      iszero\n      dup1\n      iszero\n      tag_221\n      jumpi\n      0x00\n      dup1\n      revert\n    tag_221:\n      pop\n      gas\n      staticcall\n      iszero\n      dup1\n      iszero\n      tag_223\n      jumpi\n      returndatasize\n      0x00\n      dup1\n      returndatacopy\n      revert(0x00, returndatasize)\n    tag_223:\n      pop\n      pop\n      pop\n      pop\n      mload(0x40)\n      returndatasize\n      not(0x1f)\n      0x1f\n      dup3\n      add\n      and\n      dup3\n      add\n      dup1\n      0x40\n      mstore\n      pop\n      dup2\n      add\n      swap1\n      tag_224\n      swap2\n      swap1\n      tag_225\n      jump\t// in\n    tag_224:\n      sub(shl(0xa0, 0x01), 0x01)\n        /* \"contracts/Market.sol\":1081:1114  msg.sender == app.contractOwner() */\n      and\n        /* \"contracts/Market.sol\":1081:1091  msg.sender */\n      caller\n      sub(shl(0xa0, 0x01), 0x01)\n        /* \"contracts/Market.sol\":1081:1114  msg.sender == app.contractOwner() */\n      and\n      eq\n        /* \"contracts/Market.sol\":1032:1114  msg.sender == owner ... */\n    tag_220:\n        /* \"contracts/Market.sol\":1032:1163  msg.sender == owner ... */\n      dup1\n      tag_226\n      jumpi\n      pop\n        /* \"contracts/Market.sol\":1156:1163  factory */\n      and(sub(shl(0xa0, 0x01), 0x01), sload(0x02))\n        /* \"contracts/Market.sol\":1142:1152  msg.sender */\n      caller\n        /* \"contracts/Market.sol\":1142:1163  msg.sender == factory */\n      eq\n        /* \"contracts/Market.sol\":1032:1163  msg.sender == owner ... */\n    tag_226:\n        /* \"contracts/Market.sol\":1011:1210  require(... */\n      tag_227\n      jumpi\n      mload(0x40)\n      shl(0xe5, 0x461bcd)\n      dup2\n      mstore\n      0x04\n      add\n      tag_68\n      swap1\n      tag_229\n      jump\t// in\n    tag_227:\n        /* \"contracts/Market.sol\":4067:4095  setWinningSide(_winningSide) */\n      tag_231\n        /* \"contracts/Market.sol\":4082:4094  _winningSide */\n      dup3\n        /* \"contracts/Market.sol\":4067:4081  setWinningSide */\n      tag_57\n        /* \"contracts/Market.sol\":4067:4095  setWinningSide(_winningSide) */\n      jump\t// in\n    tag_231:\n        /* \"contracts/Market.sol\":4064:4332  if(setWinningSide(_winningSide)){... */\n      iszero\n      tag_232\n      jumpi\n        /* \"contracts/Market.sol\":4129:4134  pairs */\n      0x04\n        /* \"contracts/Market.sol\":4129:4141  pairs.length */\n      sload\n        /* \"contracts/Market.sol\":4110:4126  uint pairsLength */\n      0x00\n        /* \"contracts/Market.sol\":4155:4246  for(uint i = 0; i < pairsLength; i++){... */\n    tag_233:\n        /* \"contracts/Market.sol\":4175:4186  pairsLength */\n      dup2\n        /* \"contracts/Market.sol\":4171:4172  i */\n      dup2\n        /* \"contracts/Market.sol\":4171:4186  i < pairsLength */\n      lt\n        /* \"contracts/Market.sol\":4155:4246  for(uint i = 0; i < pairsLength; i++){... */\n      iszero\n      tag_234\n      jumpi\n        /* \"contracts/Market.sol\":4210:4231  _settlePair(pairs[i]) */\n      tag_236\n        /* \"contracts/Market.sol\":4222:4227  pairs */\n      0x04\n        /* \"contracts/Market.sol\":4228:4229  i */\n      dup3\n        /* \"contracts/Market.sol\":4222:4230  pairs[i] */\n      dup2\n      sload\n      dup2\n      lt\n      tag_237\n      jumpi\n      mstore(0x00, shl(0xe0, 0x4e487b71))\n      mstore(0x04, 0x32)\n      revert(0x00, 0x24)\n    tag_237:\n      swap1\n      0x00\n      mstore\n      keccak256(0x00, 0x20)\n      add\n      sload\n        /* \"contracts/Market.sol\":4210:4221  _settlePair */\n      tag_121\n        /* \"contracts/Market.sol\":4210:4231  _settlePair(pairs[i]) */\n      jump\t// in\n    tag_236:\n      pop\n        /* \"contracts/Market.sol\":4188:4191  i++ */\n      dup1\n      tag_239\n      dup2\n      tag_83\n      jump\t// in\n    tag_239:\n      swap2\n      pop\n      pop\n        /* \"contracts/Market.sol\":4155:4246  for(uint i = 0; i < pairsLength; i++){... */\n      jump(tag_233)\n    tag_234:\n      pop\n        /* \"contracts/Market.sol\":4266:4270  true */\n      0x01\n      swap4\n        /* \"contracts/Market.sol\":3936:4347  function settle(uint256 _winningSide)... */\n      swap3\n      pop\n      pop\n      pop\n      jump\t// out\n        /* \"contracts/Market.sol\":4064:4332  if(setWinningSide(_winningSide)){... */\n    tag_232:\n      pop\n        /* \"contracts/Market.sol\":4316:4321  false */\n      0x00\n        /* \"contracts/Market.sol\":3936:4347  function settle(uint256 _winningSide)... */\n      swap2\n      swap1\n      pop\n      jump\t// out\n        /* \"contracts/Market.sol\":4733:4935  function start() external override onlyFactory returns(bool){... */\n    tag_53:\n        /* \"contracts/Market.sol\":1046:1051  owner */\n      sload(0x01)\n        /* \"contracts/Market.sol\":4788:4792  bool */\n      0x00\n      swap1\n      sub(shl(0xa0, 0x01), 0x01)\n        /* \"contracts/Market.sol\":1046:1051  owner */\n      and\n        /* \"contracts/Market.sol\":1032:1042  msg.sender */\n      caller\n        /* \"contracts/Market.sol\":1032:1051  msg.sender == owner */\n      eq\n      dup1\n        /* \"contracts/Market.sol\":1032:1114  msg.sender == owner ... */\n      tag_242\n      jumpi\n      pop\n        /* \"contracts/Market.sol\":1095:1098  app */\n      immutable(\"0xd252627c3a7ddb3e9969d764fe6d38be47e2139c12c223f8ce16b1e3a5ed7dbb\")\n      sub(shl(0xa0, 0x01), 0x01)\n        /* \"contracts/Market.sol\":1095:1112  app.contractOwner */\n      and\n      0xce606ee0\n        /* \"contracts/Market.sol\":1095:1114  app.contractOwner() */\n      mload(0x40)\n      dup2\n      0xffffffff\n      and\n      0xe0\n      shl\n      dup2\n      mstore\n      0x04\n      add\n      0x20\n      mload(0x40)\n      dup1\n      dup4\n      sub\n      dup2\n      dup7\n      dup1\n      extcodesize\n      iszero\n      dup1\n      iszero\n      tag_243\n      jumpi\n      0x00\n      dup1\n      revert\n    tag_243:\n      pop\n      gas\n      staticcall\n      iszero\n      dup1\n      iszero\n      tag_245\n      jumpi\n      returndatasize\n      0x00\n      dup1\n      returndatacopy\n      revert(0x00, returndatasize)\n    tag_245:\n      pop\n      pop\n      pop\n      pop\n      mload(0x40)\n      returndatasize\n      not(0x1f)\n      0x1f\n      dup3\n      add\n      and\n      dup3\n      add\n      dup1\n      0x40\n      mstore\n      pop\n      dup2\n      add\n      swap1\n      tag_246\n      swap2\n      swap1\n      tag_225\n      jump\t// in\n    tag_246:\n      sub(shl(0xa0, 0x01), 0x01)\n        /* \"contracts/Market.sol\":1081:1114  msg.sender == app.contractOwner() */\n      and\n        /* \"contracts/Market.sol\":1081:1091  msg.sender */\n      caller\n      sub(shl(0xa0, 0x01), 0x01)\n        /* \"contracts/Market.sol\":1081:1114  msg.sender == app.contractOwner() */\n      and\n      eq\n        /* \"contracts/Market.sol\":1032:1114  msg.sender == owner ... */\n    tag_242:\n        /* \"contracts/Market.sol\":1032:1163  msg.sender == owner ... */\n      dup1\n      tag_247\n      jumpi\n      pop\n        /* \"contracts/Market.sol\":1156:1163  factory */\n      and(sub(shl(0xa0, 0x01), 0x01), sload(0x02))\n        /* \"contracts/Market.sol\":1142:1152  msg.sender */\n      caller\n        /* \"contracts/Market.sol\":1142:1163  msg.sender == factory */\n      eq\n        /* \"contracts/Market.sol\":1032:1163  msg.sender == owner ... */\n    tag_247:\n        /* \"contracts/Market.sol\":1011:1210  require(... */\n      tag_248\n      jumpi\n      mload(0x40)\n      shl(0xe5, 0x461bcd)\n      dup2\n      mstore\n      0x04\n      add\n      tag_68\n      swap1\n      tag_229\n      jump\t// in\n    tag_248:\n        /* \"contracts/Market.sol\":4806:4812  status */\n      sload(0x03)\n        /* \"contracts/Market.sol\":4803:4929  if(status == 0){... */\n      tag_251\n      jumpi\n      pop\n        /* \"contracts/Market.sol\":4841:4842  4 */\n      0x04\n        /* \"contracts/Market.sol\":4832:4838  status */\n      0x03\n        /* \"contracts/Market.sol\":4832:4842  status = 4 */\n      sstore\n        /* \"contracts/Market.sol\":4863:4867  true */\n      0x01\n        /* \"contracts/Market.sol\":4733:4935  function start() external override onlyFactory returns(bool){... */\n      swap1\n      jump\t// out\n        /* \"contracts/Market.sol\":4803:4929  if(status == 0){... */\n    tag_251:\n      pop\n        /* \"contracts/Market.sol\":4913:4918  false */\n      0x00\n        /* \"contracts/Market.sol\":4733:4935  function start() external override onlyFactory returns(bool){... */\n      swap1\n      jump\t// out\n        /* \"contracts/Market.sol\":3583:3930  function setWinningSide(uint256 _winningSide)... */\n    tag_57:\n        /* \"contracts/Market.sol\":1046:1051  owner */\n      sload(0x01)\n        /* \"contracts/Market.sol\":3697:3701  bool */\n      0x00\n      swap1\n      sub(shl(0xa0, 0x01), 0x01)\n        /* \"contracts/Market.sol\":1046:1051  owner */\n      and\n        /* \"contracts/Market.sol\":1032:1042  msg.sender */\n      caller\n        /* \"contracts/Market.sol\":1032:1051  msg.sender == owner */\n      eq\n      dup1\n        /* \"contracts/Market.sol\":1032:1114  msg.sender == owner ... */\n      tag_254\n      jumpi\n      pop\n        /* \"contracts/Market.sol\":1095:1098  app */\n      immutable(\"0xd252627c3a7ddb3e9969d764fe6d38be47e2139c12c223f8ce16b1e3a5ed7dbb\")\n      sub(shl(0xa0, 0x01), 0x01)\n        /* \"contracts/Market.sol\":1095:1112  app.contractOwner */\n      and\n      0xce606ee0\n        /* \"contracts/Market.sol\":1095:1114  app.contractOwner() */\n      mload(0x40)\n      dup2\n      0xffffffff\n      and\n      0xe0\n      shl\n      dup2\n      mstore\n      0x04\n      add\n      0x20\n      mload(0x40)\n      dup1\n      dup4\n      sub\n      dup2\n      dup7\n      dup1\n      extcodesize\n      iszero\n      dup1\n      iszero\n      tag_255\n      jumpi\n      0x00\n      dup1\n      revert\n    tag_255:\n      pop\n      gas\n      staticcall\n      iszero\n      dup1\n      iszero\n      tag_257\n      jumpi\n      returndatasize\n      0x00\n      dup1\n      returndatacopy\n      revert(0x00, returndatasize)\n    tag_257:\n      pop\n      pop\n      pop\n      pop\n      mload(0x40)\n      returndatasize\n      not(0x1f)\n      0x1f\n      dup3\n      add\n      and\n      dup3\n      add\n      dup1\n      0x40\n      mstore\n      pop\n      dup2\n      add\n      swap1\n      tag_258\n      swap2\n      swap1\n      tag_225\n      jump\t// in\n    tag_258:\n      sub(shl(0xa0, 0x01), 0x01)\n        /* \"contracts/Market.sol\":1081:1114  msg.sender == app.contractOwner() */\n      and\n        /* \"contracts/Market.sol\":1081:1091  msg.sender */\n      caller\n      sub(shl(0xa0, 0x01), 0x01)\n        /* \"contracts/Market.sol\":1081:1114  msg.sender == app.contractOwner() */\n      and\n      eq\n        /* \"contracts/Market.sol\":1032:1114  msg.sender == owner ... */\n    tag_254:\n        /* \"contracts/Market.sol\":1032:1163  msg.sender == owner ... */\n      dup1\n      tag_259\n      jumpi\n      pop\n        /* \"contracts/Market.sol\":1156:1163  factory */\n      and(sub(shl(0xa0, 0x01), 0x01), sload(0x02))\n        /* \"contracts/Market.sol\":1142:1152  msg.sender */\n      caller\n        /* \"contracts/Market.sol\":1142:1163  msg.sender == factory */\n      eq\n        /* \"contracts/Market.sol\":1032:1163  msg.sender == owner ... */\n    tag_259:\n        /* \"contracts/Market.sol\":1011:1210  require(... */\n      tag_260\n      jumpi\n      mload(0x40)\n      shl(0xe5, 0x461bcd)\n      dup2\n      mstore\n      0x04\n      add\n      tag_68\n      swap1\n      tag_229\n      jump\t// in\n    tag_260:\n        /* \"contracts/Market.sol\":3721:3727  status */\n      sload(0x03)\n        /* \"contracts/Market.sol\":3721:3732  status == 0 */\n      iszero\n      dup1\n        /* \"contracts/Market.sol\":3721:3747  status == 0 || status == 4 */\n      tag_263\n      jumpi\n      pop\n        /* \"contracts/Market.sol\":3736:3742  status */\n      sload(0x03)\n        /* \"contracts/Market.sol\":3746:3747  4 */\n      0x04\n        /* \"contracts/Market.sol\":3736:3747  status == 4 */\n      eq\n        /* \"contracts/Market.sol\":3721:3747  status == 0 || status == 4 */\n    tag_263:\n        /* \"contracts/Market.sol\":3720:3792  (status == 0 || status == 4) && (_winningSide == 1 || _winningSide == 2) */\n      dup1\n      iszero\n      tag_265\n      jumpi\n      pop\n        /* \"contracts/Market.sol\":3753:3765  _winningSide */\n      dup2\n        /* \"contracts/Market.sol\":3769:3770  1 */\n      0x01\n        /* \"contracts/Market.sol\":3753:3770  _winningSide == 1 */\n      eq\n        /* \"contracts/Market.sol\":3753:3791  _winningSide == 1 || _winningSide == 2 */\n      dup1\n      tag_265\n      jumpi\n      pop\n        /* \"contracts/Market.sol\":3774:3786  _winningSide */\n      dup2\n        /* \"contracts/Market.sol\":3790:3791  2 */\n      0x02\n        /* \"contracts/Market.sol\":3774:3791  _winningSide == 2 */\n      eq\n        /* \"contracts/Market.sol\":3753:3791  _winningSide == 1 || _winningSide == 2 */\n    tag_265:\n        /* \"contracts/Market.sol\":3717:3915  if((status == 0 || status == 4) && (_winningSide == 1 || _winningSide == 2)){... */\n      iszero\n      tag_232\n      jumpi\n      pop\n        /* \"contracts/Market.sol\":3807:3813  status */\n      0x03\n        /* \"contracts/Market.sol\":3807:3828  status = _winningSide */\n      sstore\n        /* \"contracts/Market.sol\":3849:3853  true */\n      0x01\n      swap1\n        /* \"contracts/Market.sol\":3936:4347  function settle(uint256 _winningSide)... */\n      jump\t// out\n        /* \"contracts/Market.sol\":4353:4727  function cancel() external override onlyFactory returns(bool) ... */\n    tag_60:\n        /* \"contracts/Market.sol\":1046:1051  owner */\n      sload(0x01)\n        /* \"contracts/Market.sol\":4409:4413  bool */\n      0x00\n      swap1\n      sub(shl(0xa0, 0x01), 0x01)\n        /* \"contracts/Market.sol\":1046:1051  owner */\n      and\n        /* \"contracts/Market.sol\":1032:1042  msg.sender */\n      caller\n        /* \"contracts/Market.sol\":1032:1051  msg.sender == owner */\n      eq\n      dup1\n        /* \"contracts/Market.sol\":1032:1114  msg.sender == owner ... */\n      tag_269\n      jumpi\n      pop\n        /* \"contracts/Market.sol\":1095:1098  app */\n      immutable(\"0xd252627c3a7ddb3e9969d764fe6d38be47e2139c12c223f8ce16b1e3a5ed7dbb\")\n      sub(shl(0xa0, 0x01), 0x01)\n        /* \"contracts/Market.sol\":1095:1112  app.contractOwner */\n      and\n      0xce606ee0\n        /* \"contracts/Market.sol\":1095:1114  app.contractOwner() */\n      mload(0x40)\n      dup2\n      0xffffffff\n      and\n      0xe0\n      shl\n      dup2\n      mstore\n      0x04\n      add\n      0x20\n      mload(0x40)\n      dup1\n      dup4\n      sub\n      dup2\n      dup7\n      dup1\n      extcodesize\n      iszero\n      dup1\n      iszero\n      tag_270\n      jumpi\n      0x00\n      dup1\n      revert\n    tag_270:\n      pop\n      gas\n      staticcall\n      iszero\n      dup1\n      iszero\n      tag_272\n      jumpi\n      returndatasize\n      0x00\n      dup1\n      returndatacopy\n      revert(0x00, returndatasize)\n    tag_272:\n      pop\n      pop\n      pop\n      pop\n      mload(0x40)\n      returndatasize\n      not(0x1f)\n      0x1f\n      dup3\n      add\n      and\n      dup3\n      add\n      dup1\n      0x40\n      mstore\n      pop\n      dup2\n      add\n      swap1\n      tag_273\n      swap2\n      swap1\n      tag_225\n      jump\t// in\n    tag_273:\n      sub(shl(0xa0, 0x01), 0x01)\n        /* \"contracts/Market.sol\":1081:1114  msg.sender == app.contractOwner() */\n      and\n        /* \"contracts/Market.sol\":1081:1091  msg.sender */\n      caller\n      sub(shl(0xa0, 0x01), 0x01)\n        /* \"contracts/Market.sol\":1081:1114  msg.sender == app.contractOwner() */\n      and\n      eq\n        /* \"contracts/Market.sol\":1032:1114  msg.sender == owner ... */\n    tag_269:\n        /* \"contracts/Market.sol\":1032:1163  msg.sender == owner ... */\n      dup1\n      tag_274\n      jumpi\n      pop\n        /* \"contracts/Market.sol\":1156:1163  factory */\n      and(sub(shl(0xa0, 0x01), 0x01), sload(0x02))\n        /* \"contracts/Market.sol\":1142:1152  msg.sender */\n      caller\n        /* \"contracts/Market.sol\":1142:1163  msg.sender == factory */\n      eq\n        /* \"contracts/Market.sol\":1032:1163  msg.sender == owner ... */\n    tag_274:\n        /* \"contracts/Market.sol\":1011:1210  require(... */\n      tag_275\n      jumpi\n      mload(0x40)\n      shl(0xe5, 0x461bcd)\n      dup2\n      mstore\n      0x04\n      add\n      tag_68\n      swap1\n      tag_229\n      jump\t// in\n    tag_275:\n        /* \"contracts/Market.sol\":4434:4440  status */\n      sload(0x03)\n        /* \"contracts/Market.sol\":4434:4445  status == 0 */\n      iszero\n      dup1\n        /* \"contracts/Market.sol\":4434:4460  status == 0 || status == 4 */\n      tag_278\n      jumpi\n      pop\n        /* \"contracts/Market.sol\":4449:4455  status */\n      sload(0x03)\n        /* \"contracts/Market.sol\":4459:4460  4 */\n      0x04\n        /* \"contracts/Market.sol\":4449:4460  status == 4 */\n      eq\n        /* \"contracts/Market.sol\":4434:4460  status == 0 || status == 4 */\n    tag_278:\n        /* \"contracts/Market.sol\":4431:4721  if(status == 0 || status == 4){... */\n      iszero\n      tag_251\n      jumpi\n        /* \"contracts/Market.sol\":4494:4499  pairs */\n      0x04\n        /* \"contracts/Market.sol\":4494:4506  pairs.length */\n      sload\n        /* \"contracts/Market.sol\":4475:4491  uint pairsLength */\n      0x00\n        /* \"contracts/Market.sol\":4520:4611  for(uint i = 0; i < pairsLength; i++){... */\n    tag_280:\n        /* \"contracts/Market.sol\":4540:4551  pairsLength */\n      dup2\n        /* \"contracts/Market.sol\":4536:4537  i */\n      dup2\n        /* \"contracts/Market.sol\":4536:4551  i < pairsLength */\n      lt\n        /* \"contracts/Market.sol\":4520:4611  for(uint i = 0; i < pairsLength; i++){... */\n      iszero\n      tag_281\n      jumpi\n        /* \"contracts/Market.sol\":4575:4596  _cancelPair(pairs[i]) */\n      tag_283\n        /* \"contracts/Market.sol\":4587:4592  pairs */\n      0x04\n        /* \"contracts/Market.sol\":4593:4594  i */\n      dup3\n        /* \"contracts/Market.sol\":4587:4595  pairs[i] */\n      dup2\n      sload\n      dup2\n      lt\n      tag_284\n      jumpi\n      mstore(0x00, shl(0xe0, 0x4e487b71))\n      mstore(0x04, 0x32)\n      revert(0x00, 0x24)\n    tag_284:\n      swap1\n      0x00\n      mstore\n      keccak256(0x00, 0x20)\n      add\n      sload\n        /* \"contracts/Market.sol\":4575:4586  _cancelPair */\n      tag_286\n        /* \"contracts/Market.sol\":4575:4596  _cancelPair(pairs[i]) */\n      jump\t// in\n    tag_283:\n        /* \"contracts/Market.sol\":4553:4556  i++ */\n      dup1\n      tag_287\n      dup2\n      tag_83\n      jump\t// in\n    tag_287:\n      swap2\n      pop\n      pop\n        /* \"contracts/Market.sol\":4520:4611  for(uint i = 0; i < pairsLength; i++){... */\n      jump(tag_280)\n    tag_281:\n      pop\n      pop\n        /* \"contracts/Market.sol\":4633:4634  3 */\n      0x03\n        /* \"contracts/Market.sol\":4624:4634  status = 3 */\n      dup1\n      sstore\n      pop\n        /* \"contracts/Market.sol\":4655:4659  true */\n      0x01\n        /* \"contracts/Market.sol\":4733:4935  function start() external override onlyFactory returns(bool){... */\n      swap1\n      jump\t// out\n        /* \"contracts/Market.sol\":8946:10340  function _cancelBetPairs(bytes32 _bet) private returns(bool) {... */\n    tag_72:\n        /* \"contracts/Market.sol\":9001:9005  bool */\n      0x00\n        /* \"contracts/Market.sol\":9047:9061  betsInfo[_bet] */\n      dup2\n      dup2\n      mstore\n        /* \"contracts/Market.sol\":9047:9055  betsInfo */\n      0x07\n        /* \"contracts/Market.sol\":9047:9061  betsInfo[_bet] */\n      0x20\n      swap1\n      dup2\n      mstore\n      0x40\n      dup1\n      dup4\n      keccak256\n        /* \"contracts/Market.sol\":9017:9061  Struct.MarketBet memory bet = betsInfo[_bet] */\n      dup2\n      mload\n      0xc0\n      dup2\n      add\n      dup4\n      mstore\n      dup2\n      sload\n      sub(shl(0xa0, 0x01), 0x01)\n      swap1\n      dup2\n      and\n      dup3\n      mstore\n      0x01\n      dup4\n      add\n      sload\n      and\n      dup2\n      dup6\n      add\n      mstore\n      0x02\n      dup3\n      add\n      sload\n      dup2\n      dup5\n      add\n      mstore\n      0x03\n      dup3\n      add\n      sload\n      0x60\n      dup3\n      add\n      mstore\n      0x04\n      dup3\n      add\n      sload\n      0x80\n      dup3\n      add\n      mstore\n      0x05\n      swap1\n      swap2\n      add\n      sload\n      0xa0\n      dup3\n      add\n      mstore\n        /* \"contracts/Market.sol\":9097:9111  betPairs[_bet] */\n      dup5\n      dup5\n      mstore\n        /* \"contracts/Market.sol\":9097:9105  betPairs */\n      0x0a\n        /* \"contracts/Market.sol\":9097:9111  betPairs[_bet] */\n      dup4\n      mstore\n      dup2\n      dup5\n      keccak256\n        /* \"contracts/Market.sol\":9071:9111  bytes32[] memory _pairs = betPairs[_bet] */\n      dup1\n      sload\n      dup4\n      mload\n      dup2\n      dup7\n      mul\n      dup2\n      add\n      dup7\n      add\n      swap1\n      swap5\n      mstore\n      dup1\n      dup5\n      mstore\n        /* \"contracts/Market.sol\":9017:9061  Struct.MarketBet memory bet = betsInfo[_bet] */\n      swap2\n      swap4\n        /* \"contracts/Market.sol\":9001:9005  bool */\n      dup6\n      swap4\n        /* \"contracts/Market.sol\":9071:9111  bytes32[] memory _pairs = betPairs[_bet] */\n      swap3\n      swap1\n      dup4\n      add\n        /* \"contracts/Market.sol\":9097:9111  betPairs[_bet] */\n      dup3\n        /* \"contracts/Market.sol\":9071:9111  bytes32[] memory _pairs = betPairs[_bet] */\n      dup3\n      dup1\n      iszero\n      tag_291\n      jumpi\n      0x20\n      mul\n      dup3\n      add\n      swap2\n      swap1\n      0x00\n      mstore\n      keccak256(0x00, 0x20)\n      swap1\n    tag_292:\n      dup2\n      sload\n      dup2\n      mstore\n      0x20\n      add\n      swap1\n      0x01\n      add\n      swap1\n      dup1\n      dup4\n      gt\n      tag_292\n      jumpi\n    tag_291:\n      pop\n      pop\n        /* \"contracts/Market.sol\":9140:9153  _pairs.length */\n      dup4\n      mload\n        /* \"contracts/Market.sol\":9071:9111  bytes32[] memory _pairs = betPairs[_bet] */\n      swap4\n      swap5\n      pop\n        /* \"contracts/Market.sol\":9121:9137  uint pairsLength */\n      0x00\n      swap3\n      pop\n      pop\n      pop\n        /* \"contracts/Market.sol\":9163:10313  for(uint i = 0; i < pairsLength; i++){... */\n    tag_293:\n        /* \"contracts/Market.sol\":9183:9194  pairsLength */\n      dup2\n        /* \"contracts/Market.sol\":9179:9180  i */\n      dup2\n        /* \"contracts/Market.sol\":9179:9194  i < pairsLength */\n      lt\n        /* \"contracts/Market.sol\":9163:10313  for(uint i = 0; i < pairsLength; i++){... */\n      iszero\n      tag_294\n      jumpi\n        /* \"contracts/Market.sol\":9214:9236  bytes32 counterBetHash */\n      0x00\n        /* \"contracts/Market.sol\":9250:9271  uint256 counterAmount */\n      dup1\n        /* \"contracts/Market.sol\":9285:9303  uint256 thisAmount */\n      0x00\n        /* \"contracts/Market.sol\":9317:9338  address counterBetter */\n      dup1\n        /* \"contracts/Market.sol\":9355:9358  bet */\n      dup8\n        /* \"contracts/Market.sol\":9355:9363  bet.side */\n      0xa0\n      add\n      mload\n        /* \"contracts/Market.sol\":9367:9368  1 */\n      0x01\n        /* \"contracts/Market.sol\":9355:9368  bet.side == 1 */\n      eq\n        /* \"contracts/Market.sol\":9352:9806  if(bet.side == 1) {... */\n      iszero\n      tag_296\n      jumpi\n        /* \"contracts/Market.sol\":9401:9410  pairsInfo */\n      0x09\n        /* \"contracts/Market.sol\":9401:9421  pairsInfo[_pairs[i]] */\n      0x00\n        /* \"contracts/Market.sol\":9411:9417  _pairs */\n      dup9\n        /* \"contracts/Market.sol\":9418:9419  i */\n      dup8\n        /* \"contracts/Market.sol\":9411:9420  _pairs[i] */\n      dup2\n      mload\n      dup2\n      lt\n      tag_297\n      jumpi\n      mstore(0x00, shl(0xe0, 0x4e487b71))\n      mstore(0x04, 0x32)\n      revert(0x00, 0x24)\n    tag_297:\n      0x20\n      mul\n      0x20\n      add\n      add\n      mload\n        /* \"contracts/Market.sol\":9401:9421  pairsInfo[_pairs[i]] */\n      dup2\n      mstore\n      0x20\n      add\n      swap1\n      dup2\n      mstore\n      0x20\n      add\n      0x00\n      keccak256\n        /* \"contracts/Market.sol\":9401:9429  pairsInfo[_pairs[i]].amountA */\n      0x02\n      add\n      sload\n        /* \"contracts/Market.sol\":9388:9429  thisAmount = pairsInfo[_pairs[i]].amountA */\n      swap2\n      pop\n        /* \"contracts/Market.sol\":9464:9473  pairsInfo */\n      0x09\n        /* \"contracts/Market.sol\":9464:9484  pairsInfo[_pairs[i]] */\n      0x00\n        /* \"contracts/Market.sol\":9474:9480  _pairs */\n      dup9\n        /* \"contracts/Market.sol\":9481:9482  i */\n      dup8\n        /* \"contracts/Market.sol\":9474:9483  _pairs[i] */\n      dup2\n      mload\n      dup2\n      lt\n      tag_298\n      jumpi\n      mstore(0x00, shl(0xe0, 0x4e487b71))\n      mstore(0x04, 0x32)\n      revert(0x00, 0x24)\n    tag_298:\n      0x20\n      mul\n      0x20\n      add\n      add\n      mload\n        /* \"contracts/Market.sol\":9464:9484  pairsInfo[_pairs[i]] */\n      dup2\n      mstore\n      0x20\n      add\n      swap1\n      dup2\n      mstore\n      0x20\n      add\n      0x00\n      keccak256\n        /* \"contracts/Market.sol\":9464:9493  pairsInfo[_pairs[i]].betHashB */\n      0x01\n      add\n      sload\n        /* \"contracts/Market.sol\":9447:9493  counterBetHash = pairsInfo[_pairs[i]].betHashB */\n      swap4\n      pop\n        /* \"contracts/Market.sol\":9527:9536  pairsInfo */\n      0x09\n        /* \"contracts/Market.sol\":9527:9547  pairsInfo[_pairs[i]] */\n      0x00\n        /* \"contracts/Market.sol\":9537:9543  _pairs */\n      dup9\n        /* \"contracts/Market.sol\":9544:9545  i */\n      dup8\n        /* \"contracts/Market.sol\":9537:9546  _pairs[i] */\n      dup2\n      mload\n      dup2\n      lt\n      tag_299\n      jumpi\n      mstore(0x00, shl(0xe0, 0x4e487b71))\n      mstore(0x04, 0x32)\n      revert(0x00, 0x24)\n    tag_299:\n      0x20\n      mul\n      0x20\n      add\n      add\n      mload\n        /* \"contracts/Market.sol\":9527:9547  pairsInfo[_pairs[i]] */\n      dup2\n      mstore\n      0x20\n      add\n      swap1\n      dup2\n      mstore\n      0x20\n      add\n      0x00\n      keccak256\n        /* \"contracts/Market.sol\":9527:9555  pairsInfo[_pairs[i]].amountB */\n      0x03\n      add\n      sload\n        /* \"contracts/Market.sol\":9511:9555  counterAmount = pairsInfo[_pairs[i]].amountB */\n      swap3\n      pop\n        /* \"contracts/Market.sol\":9352:9806  if(bet.side == 1) {... */\n      jump(tag_301)\n    tag_296:\n        /* \"contracts/Market.sol\":9591:9594  bet */\n      dup8\n        /* \"contracts/Market.sol\":9591:9599  bet.side */\n      0xa0\n      add\n      mload\n        /* \"contracts/Market.sol\":9603:9604  2 */\n      0x02\n        /* \"contracts/Market.sol\":9591:9604  bet.side == 2 */\n      eq\n        /* \"contracts/Market.sol\":9588:9806  if(bet.side == 2) {... */\n      iszero\n      tag_301\n      jumpi\n        /* \"contracts/Market.sol\":9637:9646  pairsInfo */\n      0x09\n        /* \"contracts/Market.sol\":9637:9657  pairsInfo[_pairs[i]] */\n      0x00\n        /* \"contracts/Market.sol\":9647:9653  _pairs */\n      dup9\n        /* \"contracts/Market.sol\":9654:9655  i */\n      dup8\n        /* \"contracts/Market.sol\":9647:9656  _pairs[i] */\n      dup2\n      mload\n      dup2\n      lt\n      tag_302\n      jumpi\n      mstore(0x00, shl(0xe0, 0x4e487b71))\n      mstore(0x04, 0x32)\n      revert(0x00, 0x24)\n    tag_302:\n      0x20\n      mul\n      0x20\n      add\n      add\n      mload\n        /* \"contracts/Market.sol\":9637:9657  pairsInfo[_pairs[i]] */\n      dup2\n      mstore\n      0x20\n      add\n      swap1\n      dup2\n      mstore\n      0x20\n      add\n      0x00\n      keccak256\n        /* \"contracts/Market.sol\":9637:9665  pairsInfo[_pairs[i]].amountB */\n      0x03\n      add\n      sload\n        /* \"contracts/Market.sol\":9624:9665  thisAmount = pairsInfo[_pairs[i]].amountB */\n      swap2\n      pop\n        /* \"contracts/Market.sol\":9700:9709  pairsInfo */\n      0x09\n        /* \"contracts/Market.sol\":9700:9720  pairsInfo[_pairs[i]] */\n      0x00\n        /* \"contracts/Market.sol\":9710:9716  _pairs */\n      dup9\n        /* \"contracts/Market.sol\":9717:9718  i */\n      dup8\n        /* \"contracts/Market.sol\":9710:9719  _pairs[i] */\n      dup2\n      mload\n      dup2\n      lt\n      tag_303\n      jumpi\n      mstore(0x00, shl(0xe0, 0x4e487b71))\n      mstore(0x04, 0x32)\n      revert(0x00, 0x24)\n    tag_303:\n      0x20\n      mul\n      0x20\n      add\n      add\n      mload\n        /* \"contracts/Market.sol\":9700:9720  pairsInfo[_pairs[i]] */\n      dup2\n      mstore\n      0x20\n      add\n      swap1\n      dup2\n      mstore\n      0x20\n      add\n      0x00\n      keccak256\n        /* \"contracts/Market.sol\":9700:9729  pairsInfo[_pairs[i]].betHashA */\n      0x00\n      add\n      sload\n        /* \"contracts/Market.sol\":9683:9729  counterBetHash = pairsInfo[_pairs[i]].betHashA */\n      swap4\n      pop\n        /* \"contracts/Market.sol\":9763:9772  pairsInfo */\n      0x09\n        /* \"contracts/Market.sol\":9763:9783  pairsInfo[_pairs[i]] */\n      0x00\n        /* \"contracts/Market.sol\":9773:9779  _pairs */\n      dup9\n        /* \"contracts/Market.sol\":9780:9781  i */\n      dup8\n        /* \"contracts/Market.sol\":9773:9782  _pairs[i] */\n      dup2\n      mload\n      dup2\n      lt\n      tag_304\n      jumpi\n      mstore(0x00, shl(0xe0, 0x4e487b71))\n      mstore(0x04, 0x32)\n      revert(0x00, 0x24)\n    tag_304:\n      0x20\n      mul\n      0x20\n      add\n      add\n      mload\n        /* \"contracts/Market.sol\":9763:9783  pairsInfo[_pairs[i]] */\n      dup2\n      mstore\n      0x20\n      add\n      swap1\n      dup2\n      mstore\n      0x20\n      add\n      0x00\n      keccak256\n        /* \"contracts/Market.sol\":9763:9791  pairsInfo[_pairs[i]].amountA */\n      0x02\n      add\n      sload\n        /* \"contracts/Market.sol\":9747:9791  counterAmount = pairsInfo[_pairs[i]].amountA */\n      swap3\n      pop\n        /* \"contracts/Market.sol\":9588:9806  if(bet.side == 2) {... */\n    tag_301:\n      pop\n        /* \"contracts/Market.sol\":9835:9859  betsInfo[counterBetHash] */\n      0x00\n      dup4\n      dup2\n      mstore\n        /* \"contracts/Market.sol\":9835:9843  betsInfo */\n      0x07\n        /* \"contracts/Market.sol\":9835:9859  betsInfo[counterBetHash] */\n      0x20\n      swap1\n      dup2\n      mstore\n      0x40\n      swap2\n      dup3\n      swap1\n      keccak256\n        /* \"contracts/Market.sol\":9835:9866  betsInfo[counterBetHash].better */\n      sload\n        /* \"contracts/Market.sol\":9919:9928  app.vig() */\n      dup3\n      mload\n      shl(0xe0, 0x55c4a8bf)\n      dup2\n      mstore\n      swap3\n      mload\n      sub(shl(0xa0, 0x01), 0x01)\n        /* \"contracts/Market.sol\":9835:9866  betsInfo[counterBetHash].better */\n      swap2\n      dup3\n      and\n      swap4\n        /* \"contracts/Market.sol\":9932:9935  100 */\n      0x64\n      swap4\n        /* \"contracts/Market.sol\":9919:9922  app */\n      immutable(\"0xd252627c3a7ddb3e9969d764fe6d38be47e2139c12c223f8ce16b1e3a5ed7dbb\")\n        /* \"contracts/Market.sol\":9919:9926  app.vig */\n      swap1\n      swap4\n      and\n      swap3\n      0x55c4a8bf\n      swap3\n        /* \"contracts/Market.sol\":9919:9928  app.vig() */\n      0x04\n      dup1\n      dup5\n      add\n      swap4\n      dup3\n      swap1\n      sub\n      add\n      dup2\n        /* \"contracts/Market.sol\":9919:9926  app.vig */\n      dup7\n        /* \"contracts/Market.sol\":9919:9928  app.vig() */\n      dup1\n      extcodesize\n      iszero\n      dup1\n      iszero\n      tag_305\n      jumpi\n      0x00\n      dup1\n      revert\n    tag_305:\n      pop\n      gas\n      staticcall\n      iszero\n      dup1\n      iszero\n      tag_307\n      jumpi\n      returndatasize\n      0x00\n      dup1\n      returndatacopy\n      revert(0x00, returndatasize)\n    tag_307:\n      pop\n      pop\n      pop\n      pop\n      mload(0x40)\n      returndatasize\n      not(0x1f)\n      0x1f\n      dup3\n      add\n      and\n      dup3\n      add\n      dup1\n      0x40\n      mstore\n      pop\n      dup2\n      add\n      swap1\n      tag_308\n      swap2\n      swap1\n      tag_95\n      jump\t// in\n    tag_308:\n        /* \"contracts/Market.sol\":9913:9928  100 - app.vig() */\n      tag_309\n      swap1\n        /* \"contracts/Market.sol\":9913:9916  100 */\n      0x64\n        /* \"contracts/Market.sol\":9913:9928  100 - app.vig() */\n      tag_101\n      jump\t// in\n    tag_309:\n        /* \"contracts/Market.sol\":9899:9929  thisAmount * (100 - app.vig()) */\n      tag_310\n      swap1\n        /* \"contracts/Market.sol\":9899:9909  thisAmount */\n      dup5\n        /* \"contracts/Market.sol\":9899:9929  thisAmount * (100 - app.vig()) */\n      tag_177\n      jump\t// in\n    tag_310:\n        /* \"contracts/Market.sol\":9899:9935  thisAmount * (100 - app.vig()) / 100 */\n      tag_311\n      swap2\n      swap1\n      tag_179\n      jump\t// in\n    tag_311:\n        /* \"contracts/Market.sol\":9884:9894  bet.better */\n      dup9\n      mload\n      sub(shl(0xa0, 0x01), 0x01)\n        /* \"contracts/Market.sol\":9880:9895  bal[bet.better] */\n      and\n      0x00\n      swap1\n      dup2\n      mstore\n        /* \"contracts/Market.sol\":9880:9883  bal */\n      0x06\n        /* \"contracts/Market.sol\":9880:9895  bal[bet.better] */\n      0x20\n      mstore\n      0x40\n      dup2\n      keccak256\n        /* \"contracts/Market.sol\":9880:9935  bal[bet.better] += thisAmount * (100 - app.vig()) / 100 */\n      dup1\n      sload\n        /* \"contracts/Market.sol\":9880:9895  bal[bet.better] */\n      swap1\n      swap2\n      swap1\n        /* \"contracts/Market.sol\":9880:9935  bal[bet.better] += thisAmount * (100 - app.vig()) / 100 */\n      tag_312\n      swap1\n      dup5\n      swap1\n      tag_216\n      jump\t// in\n    tag_312:\n      swap1\n      swap2\n      sstore\n      pop\n      pop\n        /* \"contracts/Market.sol\":9949:9973  betsInfo[counterBetHash] */\n      0x00\n      dup5\n      dup2\n      mstore\n        /* \"contracts/Market.sol\":9949:9957  betsInfo */\n      0x07\n        /* \"contracts/Market.sol\":9949:9973  betsInfo[counterBetHash] */\n      0x20\n      mstore\n      0x40\n      dup2\n      keccak256\n        /* \"contracts/Market.sol\":9949:9981  betsInfo[counterBetHash].matched */\n      0x03\n      add\n        /* \"contracts/Market.sol\":9949:9998  betsInfo[counterBetHash].matched -= counterAmount */\n      dup1\n      sload\n        /* \"contracts/Market.sol\":9985:9998  counterAmount */\n      dup6\n      swap3\n        /* \"contracts/Market.sol\":9949:9973  betsInfo[counterBetHash] */\n      swap1\n        /* \"contracts/Market.sol\":9949:9998  betsInfo[counterBetHash].matched -= counterAmount */\n      tag_313\n      swap1\n        /* \"contracts/Market.sol\":9985:9998  counterAmount */\n      dup5\n      swap1\n        /* \"contracts/Market.sol\":9949:9998  betsInfo[counterBetHash].matched -= counterAmount */\n      tag_101\n      jump\t// in\n    tag_313:\n      swap3\n      pop\n      pop\n      dup2\n      swap1\n      sstore\n      pop\n        /* \"contracts/Market.sol\":10012:10029  uint256 vigAmount */\n      0x00\n        /* \"contracts/Market.sol\":10057:10060  100 */\n      0x64\n        /* \"contracts/Market.sol\":10045:10048  app */\n      immutable(\"0xd252627c3a7ddb3e9969d764fe6d38be47e2139c12c223f8ce16b1e3a5ed7dbb\")\n      sub(shl(0xa0, 0x01), 0x01)\n        /* \"contracts/Market.sol\":10045:10052  app.vig */\n      and\n      0x55c4a8bf\n        /* \"contracts/Market.sol\":10045:10054  app.vig() */\n      mload(0x40)\n      dup2\n      0xffffffff\n      and\n      0xe0\n      shl\n      dup2\n      mstore\n      0x04\n      add\n      0x20\n      mload(0x40)\n      dup1\n      dup4\n      sub\n      dup2\n      dup7\n      dup1\n      extcodesize\n      iszero\n      dup1\n      iszero\n      tag_314\n      jumpi\n      0x00\n      dup1\n      revert\n    tag_314:\n      pop\n      gas\n      staticcall\n      iszero\n      dup1\n      iszero\n      tag_316\n      jumpi\n      returndatasize\n      0x00\n      dup1\n      returndatacopy\n      revert(0x00, returndatasize)\n    tag_316:\n      pop\n      pop\n      pop\n      pop\n      mload(0x40)\n      returndatasize\n      not(0x1f)\n      0x1f\n      dup3\n      add\n      and\n      dup3\n      add\n      dup1\n      0x40\n      mstore\n      pop\n      dup2\n      add\n      swap1\n      tag_317\n      swap2\n      swap1\n      tag_95\n      jump\t// in\n    tag_317:\n        /* \"contracts/Market.sol\":10032:10054  thisAmount * app.vig() */\n      tag_318\n      swap1\n        /* \"contracts/Market.sol\":10032:10042  thisAmount */\n      dup6\n        /* \"contracts/Market.sol\":10032:10054  thisAmount * app.vig() */\n      tag_177\n      jump\t// in\n    tag_318:\n        /* \"contracts/Market.sol\":10032:10060  thisAmount * app.vig() / 100 */\n      tag_319\n      swap2\n      swap1\n      tag_179\n      jump\t// in\n    tag_319:\n        /* \"contracts/Market.sol\":10012:10060  uint256 vigAmount = thisAmount * app.vig() / 100 */\n      swap1\n      pop\n        /* \"contracts/Market.sol\":10122:10125  100 */\n      0x64\n        /* \"contracts/Market.sol\":10109:10112  app */\n      immutable(\"0xd252627c3a7ddb3e9969d764fe6d38be47e2139c12c223f8ce16b1e3a5ed7dbb\")\n      sub(shl(0xa0, 0x01), 0x01)\n        /* \"contracts/Market.sol\":10109:10117  app.hVig */\n      and\n      0x6a0ccd9d\n        /* \"contracts/Market.sol\":10109:10119  app.hVig() */\n      mload(0x40)\n      dup2\n      0xffffffff\n      and\n      0xe0\n      shl\n      dup2\n      mstore\n      0x04\n      add\n      0x20\n      mload(0x40)\n      dup1\n      dup4\n      sub\n      dup2\n      dup7\n      dup1\n      extcodesize\n      iszero\n      dup1\n      iszero\n      tag_320\n      jumpi\n      0x00\n      dup1\n      revert\n    tag_320:\n      pop\n      gas\n      staticcall\n      iszero\n      dup1\n      iszero\n      tag_322\n      jumpi\n      returndatasize\n      0x00\n      dup1\n      returndatacopy\n      revert(0x00, returndatasize)\n    tag_322:\n      pop\n      pop\n      pop\n      pop\n      mload(0x40)\n      returndatasize\n      not(0x1f)\n      0x1f\n      dup3\n      add\n      and\n      dup3\n      add\n      dup1\n      0x40\n      mstore\n      pop\n      dup2\n      add\n      swap1\n      tag_323\n      swap2\n      swap1\n      tag_95\n      jump\t// in\n    tag_323:\n        /* \"contracts/Market.sol\":10097:10119  vigAmount * app.hVig() */\n      tag_324\n      swap1\n        /* \"contracts/Market.sol\":10097:10106  vigAmount */\n      dup4\n        /* \"contracts/Market.sol\":10097:10119  vigAmount * app.hVig() */\n      tag_177\n      jump\t// in\n    tag_324:\n        /* \"contracts/Market.sol\":10097:10125  vigAmount * app.hVig() / 100 */\n      tag_325\n      swap2\n      swap1\n      tag_179\n      jump\t// in\n    tag_325:\n        /* \"contracts/Market.sol\":10074:10077  bal */\n      0x06\n        /* \"contracts/Market.sol\":10074:10093  bal[app.holdAddr()] */\n      0x00\n        /* \"contracts/Market.sol\":10078:10081  app */\n      immutable(\"0xd252627c3a7ddb3e9969d764fe6d38be47e2139c12c223f8ce16b1e3a5ed7dbb\")\n      sub(shl(0xa0, 0x01), 0x01)\n        /* \"contracts/Market.sol\":10078:10090  app.holdAddr */\n      and\n      0xb7640a54\n        /* \"contracts/Market.sol\":10078:10092  app.holdAddr() */\n      mload(0x40)\n      dup2\n      0xffffffff\n      and\n      0xe0\n      shl\n      dup2\n      mstore\n      0x04\n      add\n      0x20\n      mload(0x40)\n      dup1\n      dup4\n      sub\n      dup2\n      dup7\n      dup1\n      extcodesize\n      iszero\n      dup1\n      iszero\n      tag_326\n      jumpi\n      0x00\n      dup1\n      revert\n    tag_326:\n      pop\n      gas\n      staticcall\n      iszero\n      dup1\n      iszero\n      tag_328\n      jumpi\n      returndatasize\n      0x00\n      dup1\n      returndatacopy\n      revert(0x00, returndatasize)\n    tag_328:\n      pop\n      pop\n      pop\n      pop\n      mload(0x40)\n      returndatasize\n      not(0x1f)\n      0x1f\n      dup3\n      add\n      and\n      dup3\n      add\n      dup1\n      0x40\n      mstore\n      pop\n      dup2\n      add\n      swap1\n      tag_329\n      swap2\n      swap1\n      tag_225\n      jump\t// in\n    tag_329:\n      sub(shl(0xa0, 0x01), 0x01)\n        /* \"contracts/Market.sol\":10074:10093  bal[app.holdAddr()] */\n      and\n      sub(shl(0xa0, 0x01), 0x01)\n      and\n      dup2\n      mstore\n      0x20\n      add\n      swap1\n      dup2\n      mstore\n      0x20\n      add\n      0x00\n      keccak256\n      0x00\n        /* \"contracts/Market.sol\":10074:10125  bal[app.holdAddr()] += vigAmount * app.hVig() / 100 */\n      dup3\n      dup3\n      sload\n      tag_330\n      swap2\n      swap1\n      tag_216\n      jump\t// in\n    tag_330:\n      swap3\n      pop\n      pop\n      dup2\n      swap1\n      sstore\n      pop\n        /* \"contracts/Market.sol\":10186:10189  100 */\n      0x64\n        /* \"contracts/Market.sol\":10173:10176  app */\n      immutable(\"0xd252627c3a7ddb3e9969d764fe6d38be47e2139c12c223f8ce16b1e3a5ed7dbb\")\n      sub(shl(0xa0, 0x01), 0x01)\n        /* \"contracts/Market.sol\":10173:10181  app.eVig */\n      and\n      0x28576d45\n        /* \"contracts/Market.sol\":10173:10183  app.eVig() */\n      mload(0x40)\n      dup2\n      0xffffffff\n      and\n      0xe0\n      shl\n      dup2\n      mstore\n      0x04\n      add\n      0x20\n      mload(0x40)\n      dup1\n      dup4\n      sub\n      dup2\n      dup7\n      dup1\n      extcodesize\n      iszero\n      dup1\n      iszero\n      tag_331\n      jumpi\n      0x00\n      dup1\n      revert\n    tag_331:\n      pop\n      gas\n      staticcall\n      iszero\n      dup1\n      iszero\n      tag_333\n      jumpi\n      returndatasize\n      0x00\n      dup1\n      returndatacopy\n      revert(0x00, returndatasize)\n    tag_333:\n      pop\n      pop\n      pop\n      pop\n      mload(0x40)\n      returndatasize\n      not(0x1f)\n      0x1f\n      dup3\n      add\n      and\n      dup3\n      add\n      dup1\n      0x40\n      mstore\n      pop\n      dup2\n      add\n      swap1\n      tag_334\n      swap2\n      swap1\n      tag_95\n      jump\t// in\n    tag_334:\n        /* \"contracts/Market.sol\":10161:10183  vigAmount * app.eVig() */\n      tag_335\n      swap1\n        /* \"contracts/Market.sol\":10161:10170  vigAmount */\n      dup4\n        /* \"contracts/Market.sol\":10161:10183  vigAmount * app.eVig() */\n      tag_177\n      jump\t// in\n    tag_335:\n        /* \"contracts/Market.sol\":10161:10189  vigAmount * app.eVig() / 100 */\n      tag_336\n      swap2\n      swap1\n      tag_179\n      jump\t// in\n    tag_336:\n        /* \"contracts/Market.sol\":10139:10142  bal */\n      0x06\n        /* \"contracts/Market.sol\":10139:10157  bal[app.ecoAddr()] */\n      0x00\n        /* \"contracts/Market.sol\":10143:10146  app */\n      immutable(\"0xd252627c3a7ddb3e9969d764fe6d38be47e2139c12c223f8ce16b1e3a5ed7dbb\")\n      sub(shl(0xa0, 0x01), 0x01)\n        /* \"contracts/Market.sol\":10143:10154  app.ecoAddr */\n      and\n      0x09953b2f\n        /* \"contracts/Market.sol\":10143:10156  app.ecoAddr() */\n      mload(0x40)\n      dup2\n      0xffffffff\n      and\n      0xe0\n      shl\n      dup2\n      mstore\n      0x04\n      add\n      0x20\n      mload(0x40)\n      dup1\n      dup4\n      sub\n      dup2\n      dup7\n      dup1\n      extcodesize\n      iszero\n      dup1\n      iszero\n      tag_337\n      jumpi\n      0x00\n      dup1\n      revert\n    tag_337:\n      pop\n      gas\n      staticcall\n      iszero\n      dup1\n      iszero\n      tag_339\n      jumpi\n      returndatasize\n      0x00\n      dup1\n      returndatacopy\n      revert(0x00, returndatasize)\n    tag_339:\n      pop\n      pop\n      pop\n      pop\n      mload(0x40)\n      returndatasize\n      not(0x1f)\n      0x1f\n      dup3\n      add\n      and\n      dup3\n      add\n      dup1\n      0x40\n      mstore\n      pop\n      dup2\n      add\n      swap1\n      tag_340\n      swap2\n      swap1\n      tag_225\n      jump\t// in\n    tag_340:\n      sub(shl(0xa0, 0x01), 0x01)\n        /* \"contracts/Market.sol\":10139:10157  bal[app.ecoAddr()] */\n      and\n      sub(shl(0xa0, 0x01), 0x01)\n      and\n      dup2\n      mstore\n      0x20\n      add\n      swap1\n      dup2\n      mstore\n      0x20\n      add\n      0x00\n      keccak256\n      0x00\n        /* \"contracts/Market.sol\":10139:10189  bal[app.ecoAddr()] += vigAmount * app.eVig() / 100 */\n      dup3\n      dup3\n      sload\n      tag_341\n      swap2\n      swap1\n      tag_216\n      jump\t// in\n    tag_341:\n      swap3\n      pop\n      pop\n      dup2\n      swap1\n      sstore\n      pop\n        /* \"contracts/Market.sol\":10250:10253  100 */\n      0x64\n        /* \"contracts/Market.sol\":10237:10240  app */\n      immutable(\"0xd252627c3a7ddb3e9969d764fe6d38be47e2139c12c223f8ce16b1e3a5ed7dbb\")\n      sub(shl(0xa0, 0x01), 0x01)\n        /* \"contracts/Market.sol\":10237:10245  app.aVig */\n      and\n      0x54cd1a5c\n        /* \"contracts/Market.sol\":10237:10247  app.aVig() */\n      mload(0x40)\n      dup2\n      0xffffffff\n      and\n      0xe0\n      shl\n      dup2\n      mstore\n      0x04\n      add\n      0x20\n      mload(0x40)\n      dup1\n      dup4\n      sub\n      dup2\n      dup7\n      dup1\n      extcodesize\n      iszero\n      dup1\n      iszero\n      tag_342\n      jumpi\n      0x00\n      dup1\n      revert\n    tag_342:\n      pop\n      gas\n      staticcall\n      iszero\n      dup1\n      iszero\n      tag_344\n      jumpi\n      returndatasize\n      0x00\n      dup1\n      returndatacopy\n      revert(0x00, returndatasize)\n    tag_344:\n      pop\n      pop\n      pop\n      pop\n      mload(0x40)\n      returndatasize\n      not(0x1f)\n      0x1f\n      dup3\n      add\n      and\n      dup3\n      add\n      dup1\n      0x40\n      mstore\n      pop\n      dup2\n      add\n      swap1\n      tag_345\n      swap2\n      swap1\n      tag_95\n      jump\t// in\n    tag_345:\n        /* \"contracts/Market.sol\":10225:10247  vigAmount * app.aVig() */\n      tag_346\n      swap1\n        /* \"contracts/Market.sol\":10225:10234  vigAmount */\n      dup4\n        /* \"contracts/Market.sol\":10225:10247  vigAmount * app.aVig() */\n      tag_177\n      jump\t// in\n    tag_346:\n        /* \"contracts/Market.sol\":10225:10253  vigAmount * app.aVig() / 100 */\n      tag_347\n      swap2\n      swap1\n      tag_179\n      jump\t// in\n    tag_347:\n        /* \"contracts/Market.sol\":10207:10220  bet.affiliate */\n      0x20\n      dup1\n      dup12\n      add\n      mload\n      sub(shl(0xa0, 0x01), 0x01)\n        /* \"contracts/Market.sol\":10203:10221  bal[bet.affiliate] */\n      and\n      0x00\n      swap1\n      dup2\n      mstore\n        /* \"contracts/Market.sol\":10203:10206  bal */\n      0x06\n        /* \"contracts/Market.sol\":10203:10221  bal[bet.affiliate] */\n      swap1\n      swap2\n      mstore\n      0x40\n      dup2\n      keccak256\n        /* \"contracts/Market.sol\":10203:10253  bal[bet.affiliate] += vigAmount * app.aVig() / 100 */\n      dup1\n      sload\n        /* \"contracts/Market.sol\":10203:10221  bal[bet.affiliate] */\n      swap1\n      swap2\n      swap1\n        /* \"contracts/Market.sol\":10203:10253  bal[bet.affiliate] += vigAmount * app.aVig() / 100 */\n      tag_348\n      swap1\n      dup5\n      swap1\n      tag_216\n      jump\t// in\n    tag_348:\n      swap3\n      pop\n      pop\n      dup2\n      swap1\n      sstore\n      pop\n        /* \"contracts/Market.sol\":10298:10302  true */\n      0x01\n        /* \"contracts/Market.sol\":10267:10276  pairsInfo */\n      0x09\n        /* \"contracts/Market.sol\":10267:10287  pairsInfo[_pairs[i]] */\n      0x00\n        /* \"contracts/Market.sol\":10277:10283  _pairs */\n      dup11\n        /* \"contracts/Market.sol\":10284:10285  i */\n      dup10\n        /* \"contracts/Market.sol\":10277:10286  _pairs[i] */\n      dup2\n      mload\n      dup2\n      lt\n      tag_349\n      jumpi\n      mstore(0x00, shl(0xe0, 0x4e487b71))\n      mstore(0x04, 0x32)\n      revert(0x00, 0x24)\n    tag_349:\n      0x20\n      mul\n      0x20\n      add\n      add\n      mload\n        /* \"contracts/Market.sol\":10267:10287  pairsInfo[_pairs[i]] */\n      dup2\n      mstore\n      0x20\n      add\n      swap1\n      dup2\n      mstore\n      0x20\n      add\n      0x00\n      keccak256\n        /* \"contracts/Market.sol\":10267:10295  pairsInfo[_pairs[i]].settled */\n      0x04\n      add\n      0x00\n        /* \"contracts/Market.sol\":10267:10302  pairsInfo[_pairs[i]].settled = true */\n      0x0100\n      exp\n      dup2\n      sload\n      dup2\n      0xff\n      mul\n      not\n      and\n      swap1\n      dup4\n      iszero\n      iszero\n      mul\n      or\n      swap1\n      sstore\n      pop\n        /* \"contracts/Market.sol\":9163:10313  for(uint i = 0; i < pairsLength; i++){... */\n      pop\n      pop\n      pop\n      pop\n      pop\n        /* \"contracts/Market.sol\":9196:9199  i++ */\n      dup1\n      dup1\n      tag_350\n      swap1\n      tag_83\n      jump\t// in\n    tag_350:\n      swap2\n      pop\n      pop\n        /* \"contracts/Market.sol\":9163:10313  for(uint i = 0; i < pairsLength; i++){... */\n      jump(tag_293)\n    tag_294:\n      pop\n        /* \"contracts/Market.sol\":10329:10333  true */\n      0x01\n      swap6\n        /* \"contracts/Market.sol\":8946:10340  function _cancelBetPairs(bytes32 _bet) private returns(bool) {... */\n      swap5\n      pop\n      pop\n      pop\n      pop\n      pop\n      jump\t// out\n        /* \"contracts/Market.sol\":10704:11977  function _settlePair(bytes32 _pair) private nonReentrant returns(bool) {... */\n    tag_121:\n        /* \"contracts/Market.sol\":10769:10773  bool */\n      0x00\n        /* \"@openzeppelin/contracts/security/ReentrancyGuard.sol\":1744:1745  2 */\n      0x02\n        /* \"@openzeppelin/contracts/security/ReentrancyGuard.sol\":2325:2332  _status */\n      sload(0x00)\n        /* \"@openzeppelin/contracts/security/ReentrancyGuard.sol\":2325:2344  _status != _ENTERED */\n      eq\n      iszero\n        /* \"@openzeppelin/contracts/security/ReentrancyGuard.sol\":2317:2380  require(_status != _ENTERED, \"ReentrancyGuard: reentrant call\") */\n      tag_352\n      jumpi\n      mload(0x40)\n      shl(0xe5, 0x461bcd)\n      dup2\n      mstore\n        /* \"#utility.yul\":10455:10457   */\n      0x20\n        /* \"@openzeppelin/contracts/security/ReentrancyGuard.sol\":2317:2380  require(_status != _ENTERED, \"ReentrancyGuard: reentrant call\") */\n      0x04\n      dup3\n      add\n        /* \"#utility.yul\":10437:10458   */\n      mstore\n        /* \"#utility.yul\":10494:10496   */\n      0x1f\n        /* \"#utility.yul\":10474:10492   */\n      0x24\n      dup3\n      add\n        /* \"#utility.yul\":10467:10497   */\n      mstore\n        /* \"#utility.yul\":10533:10566   */\n      0x5265656e7472616e637947756172643a207265656e7472616e742063616c6c00\n        /* \"#utility.yul\":10513:10531   */\n      0x44\n      dup3\n      add\n        /* \"#utility.yul\":10506:10567   */\n      mstore\n        /* \"#utility.yul\":10584:10602   */\n      0x64\n      add\n        /* \"@openzeppelin/contracts/security/ReentrancyGuard.sol\":2317:2380  require(_status != _ENTERED, \"ReentrancyGuard: reentrant call\") */\n      tag_68\n        /* \"#utility.yul\":10427:10608   */\n      jump\n        /* \"@openzeppelin/contracts/security/ReentrancyGuard.sol\":2317:2380  require(_status != _ENTERED, \"ReentrancyGuard: reentrant call\") */\n    tag_352:\n        /* \"@openzeppelin/contracts/security/ReentrancyGuard.sol\":1744:1745  2 */\n      0x02\n        /* \"@openzeppelin/contracts/security/ReentrancyGuard.sol\":2455:2462  _status */\n      0x00\n        /* \"@openzeppelin/contracts/security/ReentrancyGuard.sol\":2455:2473  _status = _ENTERED */\n      swap1\n      dup2\n      sstore\n        /* \"contracts/Market.sol\":10788:10804  pairsInfo[_pair] */\n      dup3\n      dup2\n      mstore\n        /* \"contracts/Market.sol\":10788:10797  pairsInfo */\n      0x09\n        /* \"contracts/Market.sol\":10788:10804  pairsInfo[_pair] */\n      0x20\n      mstore\n      0x40\n      swap1\n      keccak256\n        /* \"contracts/Market.sol\":10788:10812  pairsInfo[_pair].settled */\n      0x04\n      add\n      sload\n      0xff\n      and\n        /* \"contracts/Market.sol\":10785:10850  if(pairsInfo[_pair].settled){... */\n      iszero\n      tag_355\n      jumpi\n      pop\n        /* \"contracts/Market.sol\":10834:10839  false */\n      0x00\n        /* \"contracts/Market.sol\":10827:10839  return false */\n      jump(tag_88)\n        /* \"contracts/Market.sol\":10785:10850  if(pairsInfo[_pair].settled){... */\n    tag_355:\n        /* \"contracts/Market.sol\":10859:10873  address winner */\n      0x00\n        /* \"contracts/Market.sol\":10883:10900  address affiliate */\n      dup1\n        /* \"contracts/Market.sol\":10910:10927  uint256 winAmount */\n      0x00\n        /* \"contracts/Market.sol\":10937:10954  uint256 vigAmount */\n      dup1\n        /* \"contracts/Market.sol\":10967:10973  status */\n      sload(0x03)\n        /* \"contracts/Market.sol\":10977:10978  1 */\n      0x01\n        /* \"contracts/Market.sol\":10967:10978  status == 1 */\n      eq\n        /* \"contracts/Market.sol\":10964:11698  if(status == 1){... */\n      iszero\n      tag_356\n      jumpi\n        /* \"contracts/Market.sol\":11002:11037  betsInfo[pairsInfo[_pair].betHashA] */\n      0x00\n        /* \"contracts/Market.sol\":11011:11027  pairsInfo[_pair] */\n      dup7\n      dup2\n      mstore\n        /* \"contracts/Market.sol\":11011:11020  pairsInfo */\n      0x09\n        /* \"contracts/Market.sol\":11011:11027  pairsInfo[_pair] */\n      0x20\n      swap1\n      dup2\n      mstore\n      0x40\n      dup1\n      dup4\n      keccak256\n        /* \"contracts/Market.sol\":11011:11036  pairsInfo[_pair].betHashA */\n      sload\n        /* \"contracts/Market.sol\":11002:11037  betsInfo[pairsInfo[_pair].betHashA] */\n      dup4\n      mstore\n        /* \"contracts/Market.sol\":11002:11010  betsInfo */\n      0x07\n        /* \"contracts/Market.sol\":11002:11037  betsInfo[pairsInfo[_pair].betHashA] */\n      dup3\n      mstore\n      swap2\n      dup3\n      swap1\n      keccak256\n        /* \"contracts/Market.sol\":11002:11044  betsInfo[pairsInfo[_pair].betHashA].better */\n      sload\n        /* \"contracts/Market.sol\":11132:11141  app.vig() */\n      dup3\n      mload\n      shl(0xe0, 0x55c4a8bf)\n      dup2\n      mstore\n      swap3\n      mload\n      sub(shl(0xa0, 0x01), 0x01)\n        /* \"contracts/Market.sol\":11002:11044  betsInfo[pairsInfo[_pair].betHashA].better */\n      swap2\n      dup3\n      and\n      swap8\n      pop\n        /* \"contracts/Market.sol\":11145:11148  100 */\n      0x64\n      swap4\n        /* \"contracts/Market.sol\":11132:11135  app */\n      immutable(\"0xd252627c3a7ddb3e9969d764fe6d38be47e2139c12c223f8ce16b1e3a5ed7dbb\")\n        /* \"contracts/Market.sol\":11132:11139  app.vig */\n      swap1\n      swap3\n      and\n      swap3\n      0x55c4a8bf\n      swap3\n        /* \"contracts/Market.sol\":11132:11141  app.vig() */\n      0x04\n      dup1\n      dup3\n      add\n      swap4\n      swap2\n      dup3\n      swap1\n      sub\n      add\n      dup2\n        /* \"contracts/Market.sol\":11132:11139  app.vig */\n      dup7\n        /* \"contracts/Market.sol\":11132:11141  app.vig() */\n      dup1\n      extcodesize\n      iszero\n      dup1\n      iszero\n      tag_357\n      jumpi\n      0x00\n      dup1\n      revert\n    tag_357:\n      pop\n      gas\n      staticcall\n      iszero\n      dup1\n      iszero\n      tag_359\n      jumpi\n      returndatasize\n      0x00\n      dup1\n      returndatacopy\n      revert(0x00, returndatasize)\n    tag_359:\n      pop\n      pop\n      pop\n      pop\n      mload(0x40)\n      returndatasize\n      not(0x1f)\n      0x1f\n      dup3\n      add\n      and\n      dup3\n      add\n      dup1\n      0x40\n      mstore\n      pop\n      dup2\n      add\n      swap1\n      tag_360\n      swap2\n      swap1\n      tag_95\n      jump\t// in\n    tag_360:\n        /* \"contracts/Market.sol\":11126:11141  100 - app.vig() */\n      tag_361\n      swap1\n        /* \"contracts/Market.sol\":11126:11129  100 */\n      0x64\n        /* \"contracts/Market.sol\":11126:11141  100 - app.vig() */\n      tag_101\n      jump\t// in\n    tag_361:\n        /* \"contracts/Market.sol\":11098:11114  pairsInfo[_pair] */\n      0x00\n      dup9\n      dup2\n      mstore\n        /* \"contracts/Market.sol\":11098:11107  pairsInfo */\n      0x09\n        /* \"contracts/Market.sol\":11098:11114  pairsInfo[_pair] */\n      0x20\n      mstore\n      0x40\n      swap1\n      keccak256\n        /* \"contracts/Market.sol\":11098:11122  pairsInfo[_pair].amountB */\n      0x03\n      add\n      sload\n        /* \"contracts/Market.sol\":11098:11142  pairsInfo[_pair].amountB * (100 - app.vig()) */\n      tag_362\n      swap2\n      swap1\n      tag_177\n      jump\t// in\n    tag_362:\n        /* \"contracts/Market.sol\":11098:11148  pairsInfo[_pair].amountB * (100 - app.vig()) / 100 */\n      tag_363\n      swap2\n      swap1\n      tag_179\n      jump\t// in\n    tag_363:\n        /* \"contracts/Market.sol\":11070:11086  pairsInfo[_pair] */\n      0x00\n      dup8\n      dup2\n      mstore\n        /* \"contracts/Market.sol\":11070:11079  pairsInfo */\n      0x09\n        /* \"contracts/Market.sol\":11070:11086  pairsInfo[_pair] */\n      0x20\n      mstore\n      0x40\n      swap1\n      keccak256\n        /* \"contracts/Market.sol\":11070:11094  pairsInfo[_pair].amountA */\n      0x02\n      add\n      sload\n        /* \"contracts/Market.sol\":11070:11149  pairsInfo[_pair].amountA + (pairsInfo[_pair].amountB * (100 - app.vig()) / 100) */\n      tag_364\n      swap2\n      swap1\n      tag_216\n      jump\t// in\n    tag_364:\n        /* \"contracts/Market.sol\":11058:11149  winAmount = pairsInfo[_pair].amountA + (pairsInfo[_pair].amountB * (100 - app.vig()) / 100) */\n      swap2\n      pop\n        /* \"contracts/Market.sol\":11214:11217  100 */\n      0x64\n        /* \"contracts/Market.sol\":11202:11205  app */\n      immutable(\"0xd252627c3a7ddb3e9969d764fe6d38be47e2139c12c223f8ce16b1e3a5ed7dbb\")\n      sub(shl(0xa0, 0x01), 0x01)\n        /* \"contracts/Market.sol\":11202:11209  app.vig */\n      and\n      0x55c4a8bf\n        /* \"contracts/Market.sol\":11202:11211  app.vig() */\n      mload(0x40)\n      dup2\n      0xffffffff\n      and\n      0xe0\n      shl\n      dup2\n      mstore\n      0x04\n      add\n      0x20\n      mload(0x40)\n      dup1\n      dup4\n      sub\n      dup2\n      dup7\n      dup1\n      extcodesize\n      iszero\n      dup1\n      iszero\n      tag_365\n      jumpi\n      0x00\n      dup1\n      revert\n    tag_365:\n      pop\n      gas\n      staticcall\n      iszero\n      dup1\n      iszero\n      tag_367\n      jumpi\n      returndatasize\n      0x00\n      dup1\n      returndatacopy\n      revert(0x00, returndatasize)\n    tag_367:\n      pop\n      pop\n      pop\n      pop\n      mload(0x40)\n      returndatasize\n      not(0x1f)\n      0x1f\n      dup3\n      add\n      and\n      dup3\n      add\n      dup1\n      0x40\n      mstore\n      pop\n      dup2\n      add\n      swap1\n      tag_368\n      swap2\n      swap1\n      tag_95\n      jump\t// in\n    tag_368:\n        /* \"contracts/Market.sol\":11175:11191  pairsInfo[_pair] */\n      0x00\n      dup9\n      dup2\n      mstore\n        /* \"contracts/Market.sol\":11175:11184  pairsInfo */\n      0x09\n        /* \"contracts/Market.sol\":11175:11191  pairsInfo[_pair] */\n      0x20\n      mstore\n      0x40\n      swap1\n      keccak256\n        /* \"contracts/Market.sol\":11175:11199  pairsInfo[_pair].amountB */\n      0x03\n      add\n      sload\n        /* \"contracts/Market.sol\":11175:11211  pairsInfo[_pair].amountB * app.vig() */\n      tag_369\n      swap2\n      swap1\n      tag_177\n      jump\t// in\n    tag_369:\n        /* \"contracts/Market.sol\":11175:11217  pairsInfo[_pair].amountB * app.vig() / 100 */\n      tag_370\n      swap2\n      swap1\n      tag_179\n      jump\t// in\n    tag_370:\n        /* \"contracts/Market.sol\":11243:11278  betsInfo[pairsInfo[_pair].betHashA] */\n      0x00\n        /* \"contracts/Market.sol\":11252:11268  pairsInfo[_pair] */\n      dup8\n      dup2\n      mstore\n        /* \"contracts/Market.sol\":11252:11261  pairsInfo */\n      0x09\n        /* \"contracts/Market.sol\":11252:11268  pairsInfo[_pair] */\n      0x20\n      swap1\n      dup2\n      mstore\n      0x40\n      dup1\n      dup4\n      keccak256\n        /* \"contracts/Market.sol\":11252:11277  pairsInfo[_pair].betHashA */\n      sload\n        /* \"contracts/Market.sol\":11243:11278  betsInfo[pairsInfo[_pair].betHashA] */\n      dup4\n      mstore\n        /* \"contracts/Market.sol\":11243:11251  betsInfo */\n      0x07\n        /* \"contracts/Market.sol\":11243:11278  betsInfo[pairsInfo[_pair].betHashA] */\n      swap1\n      swap2\n      mstore\n      swap1\n      keccak256\n        /* \"contracts/Market.sol\":11243:11288  betsInfo[pairsInfo[_pair].betHashA].affiliate */\n      0x01\n      add\n      sload\n      sub(shl(0xa0, 0x01), 0x01)\n      and\n      swap4\n      pop\n        /* \"contracts/Market.sol\":11163:11217  vigAmount = pairsInfo[_pair].amountB * app.vig() / 100 */\n      swap1\n      pop\n        /* \"contracts/Market.sol\":10964:11698  if(status == 1){... */\n      jump(tag_387)\n    tag_356:\n        /* \"contracts/Market.sol\":11316:11322  status */\n      sload(0x03)\n        /* \"contracts/Market.sol\":11326:11327  2 */\n      0x02\n        /* \"contracts/Market.sol\":11316:11327  status == 2 */\n      eq\n        /* \"contracts/Market.sol\":11313:11698  if(status == 2){... */\n      iszero\n      tag_372\n      jumpi\n        /* \"contracts/Market.sol\":11351:11386  betsInfo[pairsInfo[_pair].betHashB] */\n      0x00\n        /* \"contracts/Market.sol\":11360:11376  pairsInfo[_pair] */\n      dup7\n      dup2\n      mstore\n        /* \"contracts/Market.sol\":11360:11369  pairsInfo */\n      0x09\n        /* \"contracts/Market.sol\":11360:11376  pairsInfo[_pair] */\n      0x20\n      swap1\n      dup2\n      mstore\n      0x40\n      dup1\n      dup4\n      keccak256\n        /* \"contracts/Market.sol\":11360:11385  pairsInfo[_pair].betHashB */\n      0x01\n      add\n      sload\n        /* \"contracts/Market.sol\":11351:11386  betsInfo[pairsInfo[_pair].betHashB] */\n      dup4\n      mstore\n        /* \"contracts/Market.sol\":11351:11359  betsInfo */\n      0x07\n        /* \"contracts/Market.sol\":11351:11386  betsInfo[pairsInfo[_pair].betHashB] */\n      dup3\n      mstore\n      swap2\n      dup3\n      swap1\n      keccak256\n        /* \"contracts/Market.sol\":11351:11393  betsInfo[pairsInfo[_pair].betHashB].better */\n      sload\n        /* \"contracts/Market.sol\":11481:11490  app.vig() */\n      dup3\n      mload\n      shl(0xe0, 0x55c4a8bf)\n      dup2\n      mstore\n      swap3\n      mload\n      sub(shl(0xa0, 0x01), 0x01)\n        /* \"contracts/Market.sol\":11351:11393  betsInfo[pairsInfo[_pair].betHashB].better */\n      swap2\n      dup3\n      and\n      swap8\n      pop\n        /* \"contracts/Market.sol\":11494:11497  100 */\n      0x64\n      swap4\n        /* \"contracts/Market.sol\":11481:11484  app */\n      immutable(\"0xd252627c3a7ddb3e9969d764fe6d38be47e2139c12c223f8ce16b1e3a5ed7dbb\")\n        /* \"contracts/Market.sol\":11481:11488  app.vig */\n      swap1\n      swap3\n      and\n      swap3\n      0x55c4a8bf\n      swap3\n        /* \"contracts/Market.sol\":11481:11490  app.vig() */\n      0x04\n      dup1\n      dup3\n      add\n      swap4\n      swap2\n      dup3\n      swap1\n      sub\n      add\n      dup2\n        /* \"contracts/Market.sol\":11481:11488  app.vig */\n      dup7\n        /* \"contracts/Market.sol\":11481:11490  app.vig() */\n      dup1\n      extcodesize\n      iszero\n      dup1\n      iszero\n      tag_373\n      jumpi\n      0x00\n      dup1\n      revert\n    tag_373:\n      pop\n      gas\n      staticcall\n      iszero\n      dup1\n      iszero\n      tag_375\n      jumpi\n      returndatasize\n      0x00\n      dup1\n      returndatacopy\n      revert(0x00, returndatasize)\n    tag_375:\n      pop\n      pop\n      pop\n      pop\n      mload(0x40)\n      returndatasize\n      not(0x1f)\n      0x1f\n      dup3\n      add\n      and\n      dup3\n      add\n      dup1\n      0x40\n      mstore\n      pop\n      dup2\n      add\n      swap1\n      tag_376\n      swap2\n      swap1\n      tag_95\n      jump\t// in\n    tag_376:\n        /* \"contracts/Market.sol\":11475:11490  100 - app.vig() */\n      tag_377\n      swap1\n        /* \"contracts/Market.sol\":11475:11478  100 */\n      0x64\n        /* \"contracts/Market.sol\":11475:11490  100 - app.vig() */\n      tag_101\n      jump\t// in\n    tag_377:\n        /* \"contracts/Market.sol\":11447:11463  pairsInfo[_pair] */\n      0x00\n      dup9\n      dup2\n      mstore\n        /* \"contracts/Market.sol\":11447:11456  pairsInfo */\n      0x09\n        /* \"contracts/Market.sol\":11447:11463  pairsInfo[_pair] */\n      0x20\n      mstore\n      0x40\n      swap1\n      keccak256\n        /* \"contracts/Market.sol\":11447:11471  pairsInfo[_pair].amountA */\n      0x02\n      add\n      sload\n        /* \"contracts/Market.sol\":11447:11491  pairsInfo[_pair].amountA * (100 - app.vig()) */\n      tag_378\n      swap2\n      swap1\n      tag_177\n      jump\t// in\n    tag_378:\n        /* \"contracts/Market.sol\":11447:11497  pairsInfo[_pair].amountA * (100 - app.vig()) / 100 */\n      tag_379\n      swap2\n      swap1\n      tag_179\n      jump\t// in\n    tag_379:\n        /* \"contracts/Market.sol\":11419:11435  pairsInfo[_pair] */\n      0x00\n      dup8\n      dup2\n      mstore\n        /* \"contracts/Market.sol\":11419:11428  pairsInfo */\n      0x09\n        /* \"contracts/Market.sol\":11419:11435  pairsInfo[_pair] */\n      0x20\n      mstore\n      0x40\n      swap1\n      keccak256\n        /* \"contracts/Market.sol\":11419:11443  pairsInfo[_pair].amountB */\n      0x03\n      add\n      sload\n        /* \"contracts/Market.sol\":11419:11498  pairsInfo[_pair].amountB + (pairsInfo[_pair].amountA * (100 - app.vig()) / 100) */\n      tag_380\n      swap2\n      swap1\n      tag_216\n      jump\t// in\n    tag_380:\n        /* \"contracts/Market.sol\":11407:11498  winAmount = pairsInfo[_pair].amountB + (pairsInfo[_pair].amountA * (100 - app.vig()) / 100) */\n      swap2\n      pop\n        /* \"contracts/Market.sol\":11563:11566  100 */\n      0x64\n        /* \"contracts/Market.sol\":11551:11554  app */\n      immutable(\"0xd252627c3a7ddb3e9969d764fe6d38be47e2139c12c223f8ce16b1e3a5ed7dbb\")\n      sub(shl(0xa0, 0x01), 0x01)\n        /* \"contracts/Market.sol\":11551:11558  app.vig */\n      and\n      0x55c4a8bf\n        /* \"contracts/Market.sol\":11551:11560  app.vig() */\n      mload(0x40)\n      dup2\n      0xffffffff\n      and\n      0xe0\n      shl\n      dup2\n      mstore\n      0x04\n      add\n      0x20\n      mload(0x40)\n      dup1\n      dup4\n      sub\n      dup2\n      dup7\n      dup1\n      extcodesize\n      iszero\n      dup1\n      iszero\n      tag_381\n      jumpi\n      0x00\n      dup1\n      revert\n    tag_381:\n      pop\n      gas\n      staticcall\n      iszero\n      dup1\n      iszero\n      tag_383\n      jumpi\n      returndatasize\n      0x00\n      dup1\n      returndatacopy\n      revert(0x00, returndatasize)\n    tag_383:\n      pop\n      pop\n      pop\n      pop\n      mload(0x40)\n      returndatasize\n      not(0x1f)\n      0x1f\n      dup3\n      add\n      and\n      dup3\n      add\n      dup1\n      0x40\n      mstore\n      pop\n      dup2\n      add\n      swap1\n      tag_384\n      swap2\n      swap1\n      tag_95\n      jump\t// in\n    tag_384:\n        /* \"contracts/Market.sol\":11524:11540  pairsInfo[_pair] */\n      0x00\n      dup9\n      dup2\n      mstore\n        /* \"contracts/Market.sol\":11524:11533  pairsInfo */\n      0x09\n        /* \"contracts/Market.sol\":11524:11540  pairsInfo[_pair] */\n      0x20\n      mstore\n      0x40\n      swap1\n      keccak256\n        /* \"contracts/Market.sol\":11524:11548  pairsInfo[_pair].amountA */\n      0x02\n      add\n      sload\n        /* \"contracts/Market.sol\":11524:11560  pairsInfo[_pair].amountA * app.vig() */\n      tag_385\n      swap2\n      swap1\n      tag_177\n      jump\t// in\n    tag_385:\n        /* \"contracts/Market.sol\":11524:11566  pairsInfo[_pair].amountA * app.vig() / 100 */\n      tag_386\n      swap2\n      swap1\n      tag_179\n      jump\t// in\n    tag_386:\n        /* \"contracts/Market.sol\":11592:11627  betsInfo[pairsInfo[_pair].betHashB] */\n      0x00\n        /* \"contracts/Market.sol\":11601:11617  pairsInfo[_pair] */\n      dup8\n      dup2\n      mstore\n        /* \"contracts/Market.sol\":11601:11610  pairsInfo */\n      0x09\n        /* \"contracts/Market.sol\":11601:11617  pairsInfo[_pair] */\n      0x20\n      swap1\n      dup2\n      mstore\n      0x40\n      dup1\n      dup4\n      keccak256\n        /* \"contracts/Market.sol\":11601:11626  pairsInfo[_pair].betHashB */\n      0x01\n      swap1\n      dup2\n      add\n      sload\n        /* \"contracts/Market.sol\":11592:11627  betsInfo[pairsInfo[_pair].betHashB] */\n      dup5\n      mstore\n        /* \"contracts/Market.sol\":11592:11600  betsInfo */\n      0x07\n        /* \"contracts/Market.sol\":11592:11627  betsInfo[pairsInfo[_pair].betHashB] */\n      swap1\n      swap3\n      mstore\n      swap1\n      swap2\n      keccak256\n        /* \"contracts/Market.sol\":11592:11637  betsInfo[pairsInfo[_pair].betHashB].affiliate */\n      add\n      sload\n      sub(shl(0xa0, 0x01), 0x01)\n      and\n      swap4\n      pop\n        /* \"contracts/Market.sol\":11512:11566  vigAmount = pairsInfo[_pair].amountA * app.vig() / 100 */\n      swap1\n      pop\n        /* \"contracts/Market.sol\":11313:11698  if(status == 2){... */\n      jump(tag_387)\n    tag_372:\n        /* \"contracts/Market.sol\":11682:11687  false */\n      0x00\n        /* \"contracts/Market.sol\":11675:11687  return false */\n      swap5\n      pop\n      pop\n      pop\n      pop\n      pop\n      jump(tag_88)\n        /* \"contracts/Market.sol\":11313:11698  if(status == 2){... */\n    tag_387:\n      sub(shl(0xa0, 0x01), 0x01)\n        /* \"contracts/Market.sol\":11707:11718  bal[winner] */\n      dup5\n      and\n      0x00\n      swap1\n      dup2\n      mstore\n        /* \"contracts/Market.sol\":11707:11710  bal */\n      0x06\n        /* \"contracts/Market.sol\":11707:11718  bal[winner] */\n      0x20\n      mstore\n      0x40\n      dup2\n      keccak256\n        /* \"contracts/Market.sol\":11707:11731  bal[winner] += winAmount */\n      dup1\n      sload\n        /* \"contracts/Market.sol\":11722:11731  winAmount */\n      dup5\n      swap3\n        /* \"contracts/Market.sol\":11707:11718  bal[winner] */\n      swap1\n        /* \"contracts/Market.sol\":11707:11731  bal[winner] += winAmount */\n      tag_388\n      swap1\n        /* \"contracts/Market.sol\":11722:11731  winAmount */\n      dup5\n      swap1\n        /* \"contracts/Market.sol\":11707:11731  bal[winner] += winAmount */\n      tag_216\n      jump\t// in\n    tag_388:\n      swap3\n      pop\n      pop\n      dup2\n      swap1\n      sstore\n      pop\n        /* \"contracts/Market.sol\":11789:11792  100 */\n      0x64\n        /* \"contracts/Market.sol\":11776:11779  app */\n      immutable(\"0xd252627c3a7ddb3e9969d764fe6d38be47e2139c12c223f8ce16b1e3a5ed7dbb\")\n      sub(shl(0xa0, 0x01), 0x01)\n        /* \"contracts/Market.sol\":11776:11784  app.hVig */\n      and\n      0x6a0ccd9d\n        /* \"contracts/Market.sol\":11776:11786  app.hVig() */\n      mload(0x40)\n      dup2\n      0xffffffff\n      and\n      0xe0\n      shl\n      dup2\n      mstore\n      0x04\n      add\n      0x20\n      mload(0x40)\n      dup1\n      dup4\n      sub\n      dup2\n      dup7\n      dup1\n      extcodesize\n      iszero\n      dup1\n      iszero\n      tag_389\n      jumpi\n      0x00\n      dup1\n      revert\n    tag_389:\n      pop\n      gas\n      staticcall\n      iszero\n      dup1\n      iszero\n      tag_391\n      jumpi\n      returndatasize\n      0x00\n      dup1\n      returndatacopy\n      revert(0x00, returndatasize)\n    tag_391:\n      pop\n      pop\n      pop\n      pop\n      mload(0x40)\n      returndatasize\n      not(0x1f)\n      0x1f\n      dup3\n      add\n      and\n      dup3\n      add\n      dup1\n      0x40\n      mstore\n      pop\n      dup2\n      add\n      swap1\n      tag_392\n      swap2\n      swap1\n      tag_95\n      jump\t// in\n    tag_392:\n        /* \"contracts/Market.sol\":11764:11786  vigAmount * app.hVig() */\n      tag_393\n      swap1\n        /* \"contracts/Market.sol\":11764:11773  vigAmount */\n      dup4\n        /* \"contracts/Market.sol\":11764:11786  vigAmount * app.hVig() */\n      tag_177\n      jump\t// in\n    tag_393:\n        /* \"contracts/Market.sol\":11764:11792  vigAmount * app.hVig() / 100 */\n      tag_394\n      swap2\n      swap1\n      tag_179\n      jump\t// in\n    tag_394:\n        /* \"contracts/Market.sol\":11741:11744  bal */\n      0x06\n        /* \"contracts/Market.sol\":11741:11760  bal[app.holdAddr()] */\n      0x00\n        /* \"contracts/Market.sol\":11745:11748  app */\n      immutable(\"0xd252627c3a7ddb3e9969d764fe6d38be47e2139c12c223f8ce16b1e3a5ed7dbb\")\n      sub(shl(0xa0, 0x01), 0x01)\n        /* \"contracts/Market.sol\":11745:11757  app.holdAddr */\n      and\n      0xb7640a54\n        /* \"contracts/Market.sol\":11745:11759  app.holdAddr() */\n      mload(0x40)\n      dup2\n      0xffffffff\n      and\n      0xe0\n      shl\n      dup2\n      mstore\n      0x04\n      add\n      0x20\n      mload(0x40)\n      dup1\n      dup4\n      sub\n      dup2\n      dup7\n      dup1\n      extcodesize\n      iszero\n      dup1\n      iszero\n      tag_395\n      jumpi\n      0x00\n      dup1\n      revert\n    tag_395:\n      pop\n      gas\n      staticcall\n      iszero\n      dup1\n      iszero\n      tag_397\n      jumpi\n      returndatasize\n      0x00\n      dup1\n      returndatacopy\n      revert(0x00, returndatasize)\n    tag_397:\n      pop\n      pop\n      pop\n      pop\n      mload(0x40)\n      returndatasize\n      not(0x1f)\n      0x1f\n      dup3\n      add\n      and\n      dup3\n      add\n      dup1\n      0x40\n      mstore\n      pop\n      dup2\n      add\n      swap1\n      tag_398\n      swap2\n      swap1\n      tag_225\n      jump\t// in\n    tag_398:\n      sub(shl(0xa0, 0x01), 0x01)\n        /* \"contracts/Market.sol\":11741:11760  bal[app.holdAddr()] */\n      and\n      sub(shl(0xa0, 0x01), 0x01)\n      and\n      dup2\n      mstore\n      0x20\n      add\n      swap1\n      dup2\n      mstore\n      0x20\n      add\n      0x00\n      keccak256\n      0x00\n        /* \"contracts/Market.sol\":11741:11792  bal[app.holdAddr()] += vigAmount * app.hVig() / 100 */\n      dup3\n      dup3\n      sload\n      tag_399\n      swap2\n      swap1\n      tag_216\n      jump\t// in\n    tag_399:\n      swap3\n      pop\n      pop\n      dup2\n      swap1\n      sstore\n      pop\n        /* \"contracts/Market.sol\":11849:11852  100 */\n      0x64\n        /* \"contracts/Market.sol\":11836:11839  app */\n      immutable(\"0xd252627c3a7ddb3e9969d764fe6d38be47e2139c12c223f8ce16b1e3a5ed7dbb\")\n      sub(shl(0xa0, 0x01), 0x01)\n        /* \"contracts/Market.sol\":11836:11844  app.eVig */\n      and\n      0x28576d45\n        /* \"contracts/Market.sol\":11836:11846  app.eVig() */\n      mload(0x40)\n      dup2\n      0xffffffff\n      and\n      0xe0\n      shl\n      dup2\n      mstore\n      0x04\n      add\n      0x20\n      mload(0x40)\n      dup1\n      dup4\n      sub\n      dup2\n      dup7\n      dup1\n      extcodesize\n      iszero\n      dup1\n      iszero\n      tag_400\n      jumpi\n      0x00\n      dup1\n      revert\n    tag_400:\n      pop\n      gas\n      staticcall\n      iszero\n      dup1\n      iszero\n      tag_402\n      jumpi\n      returndatasize\n      0x00\n      dup1\n      returndatacopy\n      revert(0x00, returndatasize)\n    tag_402:\n      pop\n      pop\n      pop\n      pop\n      mload(0x40)\n      returndatasize\n      not(0x1f)\n      0x1f\n      dup3\n      add\n      and\n      dup3\n      add\n      dup1\n      0x40\n      mstore\n      pop\n      dup2\n      add\n      swap1\n      tag_403\n      swap2\n      swap1\n      tag_95\n      jump\t// in\n    tag_403:\n        /* \"contracts/Market.sol\":11824:11846  vigAmount * app.eVig() */\n      tag_404\n      swap1\n        /* \"contracts/Market.sol\":11824:11833  vigAmount */\n      dup4\n        /* \"contracts/Market.sol\":11824:11846  vigAmount * app.eVig() */\n      tag_177\n      jump\t// in\n    tag_404:\n        /* \"contracts/Market.sol\":11824:11852  vigAmount * app.eVig() / 100 */\n      tag_405\n      swap2\n      swap1\n      tag_179\n      jump\t// in\n    tag_405:\n        /* \"contracts/Market.sol\":11802:11805  bal */\n      0x06\n        /* \"contracts/Market.sol\":11802:11820  bal[app.ecoAddr()] */\n      0x00\n        /* \"contracts/Market.sol\":11806:11809  app */\n      immutable(\"0xd252627c3a7ddb3e9969d764fe6d38be47e2139c12c223f8ce16b1e3a5ed7dbb\")\n      sub(shl(0xa0, 0x01), 0x01)\n        /* \"contracts/Market.sol\":11806:11817  app.ecoAddr */\n      and\n      0x09953b2f\n        /* \"contracts/Market.sol\":11806:11819  app.ecoAddr() */\n      mload(0x40)\n      dup2\n      0xffffffff\n      and\n      0xe0\n      shl\n      dup2\n      mstore\n      0x04\n      add\n      0x20\n      mload(0x40)\n      dup1\n      dup4\n      sub\n      dup2\n      dup7\n      dup1\n      extcodesize\n      iszero\n      dup1\n      iszero\n      tag_406\n      jumpi\n      0x00\n      dup1\n      revert\n    tag_406:\n      pop\n      gas\n      staticcall\n      iszero\n      dup1\n      iszero\n      tag_408\n      jumpi\n      returndatasize\n      0x00\n      dup1\n      returndatacopy\n      revert(0x00, returndatasize)\n    tag_408:\n      pop\n      pop\n      pop\n      pop\n      mload(0x40)\n      returndatasize\n      not(0x1f)\n      0x1f\n      dup3\n      add\n      and\n      dup3\n      add\n      dup1\n      0x40\n      mstore\n      pop\n      dup2\n      add\n      swap1\n      tag_409\n      swap2\n      swap1\n      tag_225\n      jump\t// in\n    tag_409:\n      sub(shl(0xa0, 0x01), 0x01)\n        /* \"contracts/Market.sol\":11802:11820  bal[app.ecoAddr()] */\n      and\n      sub(shl(0xa0, 0x01), 0x01)\n      and\n      dup2\n      mstore\n      0x20\n      add\n      swap1\n      dup2\n      mstore\n      0x20\n      add\n      0x00\n      keccak256\n      0x00\n        /* \"contracts/Market.sol\":11802:11852  bal[app.ecoAddr()] += vigAmount * app.eVig() / 100 */\n      dup3\n      dup3\n      sload\n      tag_410\n      swap2\n      swap1\n      tag_216\n      jump\t// in\n    tag_410:\n      swap3\n      pop\n      pop\n      dup2\n      swap1\n      sstore\n      pop\n        /* \"contracts/Market.sol\":11905:11908  100 */\n      0x64\n        /* \"contracts/Market.sol\":11892:11895  app */\n      immutable(\"0xd252627c3a7ddb3e9969d764fe6d38be47e2139c12c223f8ce16b1e3a5ed7dbb\")\n      sub(shl(0xa0, 0x01), 0x01)\n        /* \"contracts/Market.sol\":11892:11900  app.aVig */\n      and\n      0x54cd1a5c\n        /* \"contracts/Market.sol\":11892:11902  app.aVig() */\n      mload(0x40)\n      dup2\n      0xffffffff\n      and\n      0xe0\n      shl\n      dup2\n      mstore\n      0x04\n      add\n      0x20\n      mload(0x40)\n      dup1\n      dup4\n      sub\n      dup2\n      dup7\n      dup1\n      extcodesize\n      iszero\n      dup1\n      iszero\n      tag_411\n      jumpi\n      0x00\n      dup1\n      revert\n    tag_411:\n      pop\n      gas\n      staticcall\n      iszero\n      dup1\n      iszero\n      tag_413\n      jumpi\n      returndatasize\n      0x00\n      dup1\n      returndatacopy\n      revert(0x00, returndatasize)\n    tag_413:\n      pop\n      pop\n      pop\n      pop\n      mload(0x40)\n      returndatasize\n      not(0x1f)\n      0x1f\n      dup3\n      add\n      and\n      dup3\n      add\n      dup1\n      0x40\n      mstore\n      pop\n      dup2\n      add\n      swap1\n      tag_414\n      swap2\n      swap1\n      tag_95\n      jump\t// in\n    tag_414:\n        /* \"contracts/Market.sol\":11880:11902  vigAmount * app.aVig() */\n      tag_415\n      swap1\n        /* \"contracts/Market.sol\":11880:11889  vigAmount */\n      dup4\n        /* \"contracts/Market.sol\":11880:11902  vigAmount * app.aVig() */\n      tag_177\n      jump\t// in\n    tag_415:\n        /* \"contracts/Market.sol\":11880:11908  vigAmount * app.aVig() / 100 */\n      tag_416\n      swap2\n      swap1\n      tag_179\n      jump\t// in\n    tag_416:\n      sub(shl(0xa0, 0x01), 0x01)\n        /* \"contracts/Market.sol\":11862:11876  bal[affiliate] */\n      dup5\n      and\n      0x00\n      swap1\n      dup2\n      mstore\n        /* \"contracts/Market.sol\":11862:11865  bal */\n      0x06\n        /* \"contracts/Market.sol\":11862:11876  bal[affiliate] */\n      0x20\n      mstore\n      0x40\n      dup2\n      keccak256\n        /* \"contracts/Market.sol\":11862:11908  bal[affiliate] += vigAmount * app.aVig() / 100 */\n      dup1\n      sload\n        /* \"contracts/Market.sol\":11862:11876  bal[affiliate] */\n      swap1\n      swap2\n      swap1\n        /* \"contracts/Market.sol\":11862:11908  bal[affiliate] += vigAmount * app.aVig() / 100 */\n      tag_417\n      swap1\n      dup5\n      swap1\n      tag_216\n      jump\t// in\n    tag_417:\n      swap1\n      swap2\n      sstore\n      pop\n      pop\n      pop\n        /* \"contracts/Market.sol\":11918:11934  pairsInfo[_pair] */\n      0x00\n      swap5\n      dup6\n      mstore\n      pop\n      pop\n        /* \"contracts/Market.sol\":11918:11927  pairsInfo */\n      0x09\n        /* \"contracts/Market.sol\":11918:11934  pairsInfo[_pair] */\n      0x20\n      mstore\n      pop\n      pop\n      0x40\n      dup2\n      keccak256\n        /* \"contracts/Market.sol\":11918:11942  pairsInfo[_pair].settled */\n      0x04\n      add\n        /* \"contracts/Market.sol\":11918:11949  pairsInfo[_pair].settled = true */\n      dup1\n      sload\n      not(0xff)\n      and\n        /* \"contracts/Market.sol\":11945:11949  true */\n      0x01\n        /* \"contracts/Market.sol\":11918:11949  pairsInfo[_pair].settled = true */\n      swap1\n      dup2\n      or\n      swap1\n      swap2\n      sstore\n        /* \"@openzeppelin/contracts/security/ReentrancyGuard.sol\":2628:2650  _status = _NOT_ENTERED */\n      swap1\n      dup2\n      swap1\n      sstore\n        /* \"contracts/Market.sol\":11945:11949  true */\n      swap1\n        /* \"contracts/Market.sol\":10704:11977  function _settlePair(bytes32 _pair) private nonReentrant returns(bool) {... */\n      jump\t// out\n        /* \"contracts/Market.sol\":11983:12885  function _createBet(... */\n    tag_180:\n        /* \"contracts/Market.sol\":12182:12189  bytes32 */\n      0x00\n        /* \"contracts/Market.sol\":12205:12220  bytes32 betHash */\n      dup1\n        /* \"contracts/Market.sol\":12230:12236  uint i */\n      0x00\n        /* \"contracts/Market.sol\":12250:12599  while(i >= 0){... */\n    tag_419:\n        /* \"contracts/Market.sol\":12387:12391  bets */\n      0x05\n        /* \"contracts/Market.sol\":12387:12398  bets.length */\n      sload\n        /* \"contracts/Market.sol\":12331:12338  _better */\n      dup10\n      swap1\n        /* \"contracts/Market.sol\":12364:12368  this */\n      address\n      swap1\n        /* \"contracts/Market.sol\":12405:12406  i */\n      dup4\n      swap1\n        /* \"contracts/Market.sol\":12387:12402  bets.length + 1 */\n      tag_421\n      swap1\n        /* \"contracts/Market.sol\":12401:12402  1 */\n      0x01\n        /* \"contracts/Market.sol\":12387:12402  bets.length + 1 */\n      tag_216\n      jump\t// in\n    tag_421:\n        /* \"contracts/Market.sol\":12387:12406  bets.length + 1 + i */\n      tag_422\n      swap2\n      swap1\n      tag_216\n      jump\t// in\n    tag_422:\n        /* \"contracts/Market.sol\":12297:12487  abi.encodePacked(... */\n      mload(0x40)\n      not(0xffffffffffffffffffffffff)\n        /* \"#utility.yul\":2447:2449   */\n      0x60\n        /* \"#utility.yul\":2443:2458   */\n      swap5\n      dup6\n      shl\n        /* \"#utility.yul\":2439:2463   */\n      dup2\n      and\n        /* \"contracts/Market.sol\":12297:12487  abi.encodePacked(... */\n      0x20\n      dup4\n      add\n        /* \"#utility.yul\":2427:2464   */\n      mstore\n        /* \"#utility.yul\":2498:2513   */\n      swap3\n      swap1\n      swap4\n      shl\n        /* \"#utility.yul\":2494:2518   */\n      swap1\n      swap2\n      and\n        /* \"#utility.yul\":2480:2492   */\n      0x34\n      dup4\n      add\n        /* \"#utility.yul\":2473:2519   */\n      mstore\n        /* \"#utility.yul\":2535:2547   */\n      0x48\n      dup3\n      add\n        /* \"#utility.yul\":2528:2556   */\n      mstore\n        /* \"contracts/Market.sol\":12424:12439  block.timestamp */\n      timestamp\n        /* \"#utility.yul\":2572:2584   */\n      0x68\n      dup3\n      add\n        /* \"#utility.yul\":2565:2593   */\n      mstore\n        /* \"contracts/Market.sol\":12457:12473  block.difficulty */\n      difficulty\n        /* \"#utility.yul\":2609:2622   */\n      0x88\n      dup3\n      add\n        /* \"#utility.yul\":2602:2631   */\n      mstore\n        /* \"#utility.yul\":2647:2660   */\n      0xa8\n      add\n        /* \"contracts/Market.sol\":12297:12487  abi.encodePacked(... */\n      0x40\n      dup1\n      mload\n      not(0x1f)\n      dup2\n      dup5\n      sub\n      add\n      dup2\n      mstore\n      swap2\n      dup2\n      mstore\n        /* \"contracts/Market.sol\":12287:12488  keccak256(abi.encodePacked(... */\n      dup2\n      mload\n        /* \"contracts/Market.sol\":12297:12487  abi.encodePacked(... */\n      0x20\n        /* \"contracts/Market.sol\":12287:12488  keccak256(abi.encodePacked(... */\n      swap3\n      dup4\n      add\n      keccak256\n        /* \"contracts/Market.sol\":12505:12522  betsInfo[betHash] */\n      0x00\n      dup2\n      dup2\n      mstore\n        /* \"contracts/Market.sol\":12505:12513  betsInfo */\n      0x07\n        /* \"contracts/Market.sol\":12505:12522  betsInfo[betHash] */\n      swap1\n      swap4\n      mstore\n      swap2\n      keccak256\n        /* \"contracts/Market.sol\":12505:12528  betsInfo[betHash].stake */\n      0x02\n      add\n      sload\n        /* \"contracts/Market.sol\":12287:12488  keccak256(abi.encodePacked(... */\n      swap1\n      swap3\n      pop\n        /* \"contracts/Market.sol\":12502:12572  if(betsInfo[betHash].stake == 0){... */\n      tag_425\n      jumpi\n        /* \"contracts/Market.sol\":12552:12557  break */\n      jump(tag_420)\n        /* \"contracts/Market.sol\":12502:12572  if(betsInfo[betHash].stake == 0){... */\n    tag_425:\n        /* \"contracts/Market.sol\":12585:12588  i++ */\n      dup1\n      tag_426\n      dup2\n      tag_83\n      jump\t// in\n    tag_426:\n      swap2\n      pop\n      pop\n        /* \"contracts/Market.sol\":12250:12599  while(i >= 0){... */\n      jump(tag_419)\n    tag_420:\n      sub(shl(0xa0, 0x01), 0x01)\n        /* \"contracts/Market.sol\":12611:12635  _affiliate == address(0) */\n      dup9\n      and\n        /* \"contracts/Market.sol\":12608:12687  if(_affiliate == address(0)){... */\n      tag_427\n      jumpi\n        /* \"contracts/Market.sol\":12663:12666  app */\n      immutable(\"0xd252627c3a7ddb3e9969d764fe6d38be47e2139c12c223f8ce16b1e3a5ed7dbb\")\n      sub(shl(0xa0, 0x01), 0x01)\n        /* \"contracts/Market.sol\":12663:12674  app.ecoAddr */\n      and\n      0x09953b2f\n        /* \"contracts/Market.sol\":12663:12676  app.ecoAddr() */\n      mload(0x40)\n      dup2\n      0xffffffff\n      and\n      0xe0\n      shl\n      dup2\n      mstore\n      0x04\n      add\n      0x20\n      mload(0x40)\n      dup1\n      dup4\n      sub\n      dup2\n      dup7\n      dup1\n      extcodesize\n      iszero\n      dup1\n      iszero\n      tag_428\n      jumpi\n      0x00\n      dup1\n      revert\n    tag_428:\n      pop\n      gas\n      staticcall\n      iszero\n      dup1\n      iszero\n      tag_430\n      jumpi\n      returndatasize\n      0x00\n      dup1\n      returndatacopy\n      revert(0x00, returndatasize)\n    tag_430:\n      pop\n      pop\n      pop\n      pop\n      mload(0x40)\n      returndatasize\n      not(0x1f)\n      0x1f\n      dup3\n      add\n      and\n      dup3\n      add\n      dup1\n      0x40\n      mstore\n      pop\n      dup2\n      add\n      swap1\n      tag_431\n      swap2\n      swap1\n      tag_225\n      jump\t// in\n    tag_431:\n        /* \"contracts/Market.sol\":12650:12676  _affiliate = app.ecoAddr() */\n      swap8\n      pop\n        /* \"contracts/Market.sol\":12608:12687  if(_affiliate == address(0)){... */\n    tag_427:\n      pop\n        /* \"contracts/Market.sol\":12716:12785  Struct.MarketBet(_better, _affiliate, _stake, _matched, _odds, _side) */\n      0x40\n      dup1\n      mload\n      0xc0\n      dup2\n      add\n      dup3\n      mstore\n      sub(shl(0xa0, 0x01), 0x01)\n      swap10\n      dup11\n      and\n      dup1\n      dup3\n      mstore\n      swap9\n      dup11\n      and\n      0x20\n      dup1\n      dup4\n      add\n      swap2\n      dup3\n      mstore\n      dup3\n      dup5\n      add\n      swap10\n      dup11\n      mstore\n      0x60\n      dup4\n      add\n      swap9\n      dup10\n      mstore\n      0x80\n      dup4\n      add\n      swap8\n      dup9\n      mstore\n      0xa0\n      dup4\n      add\n      swap7\n      dup8\n      mstore\n      0x00\n        /* \"contracts/Market.sol\":12696:12713  betsInfo[betHash] */\n      dup6\n      dup2\n      mstore\n        /* \"contracts/Market.sol\":12696:12704  betsInfo */\n      0x07\n        /* \"contracts/Market.sol\":12696:12713  betsInfo[betHash] */\n      dup3\n      mstore\n      dup5\n      dup2\n      keccak256\n        /* \"contracts/Market.sol\":12696:12785  betsInfo[betHash] = Struct.MarketBet(_better, _affiliate, _stake, _matched, _odds, _side) */\n      swap4\n      mload\n      dup5\n      sload\n      swap1\n      dup15\n      and\n      not(sub(shl(0xa0, 0x01), 0x01))\n      swap2\n      dup3\n      and\n      or\n      dup6\n      sstore\n      swap3\n      mload\n      0x01\n      dup1\n      dup7\n      add\n      dup1\n      sload\n      swap3\n      swap1\n      swap16\n      and\n      swap2\n      swap1\n      swap5\n      and\n      or\n      swap1\n      swap13\n      sstore\n      swap9\n      mload\n      0x02\n      dup4\n      add\n      sstore\n      swap7\n      mload\n      0x03\n      dup3\n      add\n      sstore\n      swap5\n      mload\n      0x04\n      dup7\n      add\n      sstore\n      swap3\n      mload\n      0x05\n      swap5\n      dup6\n      add\n      sstore\n        /* \"contracts/Market.sol\":12795:12813  bets.push(betHash) */\n      dup4\n      sload\n      dup1\n      dup7\n      add\n      swap1\n      swap5\n      sstore\n      0x036b6384b5eca791c62761152d0c79bb0604c104a5fb6f4eb0703f3154bb3db0\n      swap1\n      swap4\n      add\n      dup4\n      swap1\n      sstore\n      pop\n        /* \"contracts/Market.sol\":12823:12840  userBets[_better] */\n      swap4\n      dup6\n      mstore\n        /* \"contracts/Market.sol\":12823:12831  userBets */\n      0x08\n        /* \"contracts/Market.sol\":12823:12840  userBets[_better] */\n      dup4\n      mstore\n      swap3\n      dup5\n      keccak256\n        /* \"contracts/Market.sol\":12823:12854  userBets[_better].push(betHash) */\n      dup1\n      sload\n      swap2\n      dup3\n      add\n      dup2\n      sstore\n      dup5\n      mstore\n      swap3\n      keccak256\n      swap1\n      swap2\n      add\n      dup2\n      swap1\n      sstore\n        /* \"contracts/Market.sol\":12696:12713  betsInfo[betHash] */\n      swap1\n        /* \"contracts/Market.sol\":11983:12885  function _createBet(... */\n      jump\t// out\n        /* \"contracts/Market.sol\":7555:8940  function _match(... */\n    tag_206:\n        /* \"contracts/Market.sol\":7752:7759  uint256 */\n      0x00\n        /* \"contracts/Market.sol\":7775:7795  uint256 betterAmount */\n      dup1\n        /* \"contracts/Market.sol\":7805:7824  uint256 makerAmount */\n      0x00\n        /* \"contracts/Market.sol\":7834:7850  bytes32 pairHash */\n      dup1\n        /* \"contracts/Market.sol\":7880:7886  _stake */\n      dup10\n        /* \"contracts/Market.sol\":7863:7876  _offeredStake */\n      dup10\n        /* \"contracts/Market.sol\":7863:7886  _offeredStake <= _stake */\n      gt\n        /* \"contracts/Market.sol\":7860:8706  if(_offeredStake <= _stake) {... */\n      tag_435\n      jumpi\n        /* \"contracts/Market.sol\":7917:7930  _offeredStake */\n      dup9\n      swap3\n      pop\n        /* \"contracts/Market.sol\":7975:7986  _odds - 100 */\n      tag_436\n        /* \"contracts/Market.sol\":7983:7986  100 */\n      0x64\n        /* \"contracts/Market.sol\":7975:7980  _odds */\n      dup10\n        /* \"contracts/Market.sol\":7975:7986  _odds - 100 */\n      tag_101\n      jump\t// in\n    tag_436:\n        /* \"contracts/Market.sol\":7958:7987  _offeredStake * (_odds - 100) */\n      tag_437\n      swap1\n        /* \"contracts/Market.sol\":7958:7971  _offeredStake */\n      dup11\n        /* \"contracts/Market.sol\":7958:7987  _offeredStake * (_odds - 100) */\n      tag_177\n      jump\t// in\n    tag_437:\n        /* \"contracts/Market.sol\":7944:7987  makerAmount = _offeredStake * (_odds - 100) */\n      swap2\n      pop\n        /* \"contracts/Market.sol\":8001:8019  makerAmount /= 100 */\n      tag_438\n        /* \"contracts/Market.sol\":8016:8019  100 */\n      0x64\n        /* \"contracts/Market.sol\":7944:7987  makerAmount = _offeredStake * (_odds - 100) */\n      dup4\n        /* \"contracts/Market.sol\":8001:8019  makerAmount /= 100 */\n      tag_179\n      jump\t// in\n    tag_438:\n      swap2\n      pop\n        /* \"contracts/Market.sol\":8036:8041  _side */\n      dup7\n        /* \"contracts/Market.sol\":8045:8046  1 */\n      0x01\n        /* \"contracts/Market.sol\":8036:8046  _side == 1 */\n      eq\n        /* \"contracts/Market.sol\":8033:8287  if(_side == 1){... */\n      iszero\n      tag_439\n      jumpi\n        /* \"contracts/Market.sol\":8076:8136  _createPair(_betHash,_selectedHash,betterAmount,makerAmount) */\n      tag_440\n        /* \"contracts/Market.sol\":8088:8096  _betHash */\n      dup7\n        /* \"contracts/Market.sol\":8097:8110  _selectedHash */\n      dup7\n        /* \"contracts/Market.sol\":8111:8123  betterAmount */\n      dup6\n        /* \"contracts/Market.sol\":8124:8135  makerAmount */\n      dup6\n        /* \"contracts/Market.sol\":8076:8087  _createPair */\n      tag_441\n        /* \"contracts/Market.sol\":8076:8136  _createPair(_betHash,_selectedHash,betterAmount,makerAmount) */\n      jump\t// in\n    tag_440:\n        /* \"contracts/Market.sol\":8065:8136  pairHash = _createPair(_betHash,_selectedHash,betterAmount,makerAmount) */\n      swap1\n      pop\n        /* \"contracts/Market.sol\":7860:8706  if(_offeredStake <= _stake) {... */\n      jump(tag_452)\n        /* \"contracts/Market.sol\":8033:8287  if(_side == 1){... */\n    tag_439:\n        /* \"contracts/Market.sol\":8172:8177  _side */\n      dup7\n        /* \"contracts/Market.sol\":8181:8182  2 */\n      0x02\n        /* \"contracts/Market.sol\":8172:8182  _side == 2 */\n      eq\n        /* \"contracts/Market.sol\":8169:8287  if(_side == 2){... */\n      iszero\n      tag_443\n      jumpi\n        /* \"contracts/Market.sol\":8212:8272  _createPair(_selectedHash,_betHash,makerAmount,betterAmount) */\n      tag_440\n        /* \"contracts/Market.sol\":8224:8237  _selectedHash */\n      dup6\n        /* \"contracts/Market.sol\":8238:8246  _betHash */\n      dup8\n        /* \"contracts/Market.sol\":8247:8258  makerAmount */\n      dup5\n        /* \"contracts/Market.sol\":8259:8271  betterAmount */\n      dup7\n        /* \"contracts/Market.sol\":8212:8223  _createPair */\n      tag_441\n        /* \"contracts/Market.sol\":8212:8272  _createPair(_selectedHash,_betHash,makerAmount,betterAmount) */\n      jump\t// in\n        /* \"contracts/Market.sol\":8169:8287  if(_side == 2){... */\n    tag_443:\n        /* \"contracts/Market.sol\":7860:8706  if(_offeredStake <= _stake) {... */\n      jump(tag_452)\n    tag_435:\n        /* \"contracts/Market.sol\":8340:8346  _stake */\n      dup10\n      swap3\n      pop\n        /* \"contracts/Market.sol\":8384:8395  _odds - 100 */\n      tag_446\n        /* \"contracts/Market.sol\":8392:8395  100 */\n      0x64\n        /* \"contracts/Market.sol\":8384:8389  _odds */\n      dup10\n        /* \"contracts/Market.sol\":8384:8395  _odds - 100 */\n      tag_101\n      jump\t// in\n    tag_446:\n        /* \"contracts/Market.sol\":8374:8396  _stake * (_odds - 100) */\n      tag_447\n      swap1\n        /* \"contracts/Market.sol\":8374:8380  _stake */\n      dup12\n        /* \"contracts/Market.sol\":8374:8396  _stake * (_odds - 100) */\n      tag_177\n      jump\t// in\n    tag_447:\n        /* \"contracts/Market.sol\":8360:8396  makerAmount = _stake * (_odds - 100) */\n      swap2\n      pop\n        /* \"contracts/Market.sol\":8410:8428  makerAmount /= 100 */\n      tag_448\n        /* \"contracts/Market.sol\":8425:8428  100 */\n      0x64\n        /* \"contracts/Market.sol\":8360:8396  makerAmount = _stake * (_odds - 100) */\n      dup4\n        /* \"contracts/Market.sol\":8410:8428  makerAmount /= 100 */\n      tag_179\n      jump\t// in\n    tag_448:\n      swap2\n      pop\n        /* \"contracts/Market.sol\":8445:8450  _side */\n      dup7\n        /* \"contracts/Market.sol\":8454:8455  1 */\n      0x01\n        /* \"contracts/Market.sol\":8445:8455  _side == 1 */\n      eq\n        /* \"contracts/Market.sol\":8442:8696  if(_side == 1){... */\n      iszero\n      tag_449\n      jumpi\n        /* \"contracts/Market.sol\":8485:8545  _createPair(_betHash,_selectedHash,betterAmount,makerAmount) */\n      tag_440\n        /* \"contracts/Market.sol\":8497:8505  _betHash */\n      dup7\n        /* \"contracts/Market.sol\":8506:8519  _selectedHash */\n      dup7\n        /* \"contracts/Market.sol\":8520:8532  betterAmount */\n      dup6\n        /* \"contracts/Market.sol\":8533:8544  makerAmount */\n      dup6\n        /* \"contracts/Market.sol\":8485:8496  _createPair */\n      tag_441\n        /* \"contracts/Market.sol\":8485:8545  _createPair(_betHash,_selectedHash,betterAmount,makerAmount) */\n      jump\t// in\n        /* \"contracts/Market.sol\":8442:8696  if(_side == 1){... */\n    tag_449:\n        /* \"contracts/Market.sol\":8581:8586  _side */\n      dup7\n        /* \"contracts/Market.sol\":8590:8591  2 */\n      0x02\n        /* \"contracts/Market.sol\":8581:8591  _side == 2 */\n      eq\n        /* \"contracts/Market.sol\":8578:8696  if(_side == 2){... */\n      iszero\n      tag_452\n      jumpi\n        /* \"contracts/Market.sol\":8621:8681  _createPair(_selectedHash,_betHash,makerAmount,betterAmount) */\n      tag_453\n        /* \"contracts/Market.sol\":8633:8646  _selectedHash */\n      dup6\n        /* \"contracts/Market.sol\":8647:8655  _betHash */\n      dup8\n        /* \"contracts/Market.sol\":8656:8667  makerAmount */\n      dup5\n        /* \"contracts/Market.sol\":8668:8680  betterAmount */\n      dup7\n        /* \"contracts/Market.sol\":8621:8632  _createPair */\n      tag_441\n        /* \"contracts/Market.sol\":8621:8681  _createPair(_selectedHash,_betHash,makerAmount,betterAmount) */\n      jump\t// in\n    tag_453:\n        /* \"contracts/Market.sol\":8610:8681  pairHash = _createPair(_selectedHash,_betHash,makerAmount,betterAmount) */\n      swap1\n      pop\n        /* \"contracts/Market.sol\":8578:8696  if(_side == 2){... */\n    tag_452:\n        /* \"contracts/Market.sol\":8715:8733  betPairs[_betHash] */\n      0x00\n      dup7\n      dup2\n      mstore\n        /* \"contracts/Market.sol\":8715:8723  betPairs */\n      0x0a\n        /* \"contracts/Market.sol\":8715:8733  betPairs[_betHash] */\n      0x20\n      swap1\n      dup2\n      mstore\n      0x40\n      dup1\n      dup4\n      keccak256\n        /* \"contracts/Market.sol\":8715:8748  betPairs[_betHash].push(pairHash) */\n      dup1\n      sload\n      0x01\n      dup2\n      dup2\n      add\n      dup4\n      sstore\n      swap2\n      dup6\n      mstore\n      dup4\n      dup6\n      keccak256\n      add\n      dup6\n      swap1\n      sstore\n        /* \"contracts/Market.sol\":8758:8781  betPairs[_selectedHash] */\n      dup9\n      dup5\n      mstore\n      dup2\n      dup5\n      keccak256\n        /* \"contracts/Market.sol\":8758:8796  betPairs[_selectedHash].push(pairHash) */\n      dup1\n      sload\n      swap2\n      dup3\n      add\n      dup2\n      sstore\n      dup5\n      mstore\n      dup3\n      dup5\n      keccak256\n      add\n      dup5\n      swap1\n      sstore\n        /* \"contracts/Market.sol\":8806:8824  betsInfo[_betHash] */\n      dup9\n      dup4\n      mstore\n        /* \"contracts/Market.sol\":8806:8814  betsInfo */\n      0x07\n        /* \"contracts/Market.sol\":8806:8824  betsInfo[_betHash] */\n      swap1\n      swap2\n      mstore\n      dup2\n      keccak256\n        /* \"contracts/Market.sol\":8806:8832  betsInfo[_betHash].matched */\n      0x03\n      add\n        /* \"contracts/Market.sol\":8806:8848  betsInfo[_betHash].matched += betterAmount */\n      dup1\n      sload\n        /* \"contracts/Market.sol\":8836:8848  betterAmount */\n      dup6\n      swap3\n        /* \"contracts/Market.sol\":8715:8733  betPairs[_betHash] */\n      swap1\n        /* \"contracts/Market.sol\":8806:8848  betsInfo[_betHash].matched += betterAmount */\n      tag_456\n      swap1\n        /* \"contracts/Market.sol\":8836:8848  betterAmount */\n      dup5\n      swap1\n        /* \"contracts/Market.sol\":8806:8848  betsInfo[_betHash].matched += betterAmount */\n      tag_216\n      jump\t// in\n    tag_456:\n      swap1\n      swap2\n      sstore\n      pop\n      pop\n        /* \"contracts/Market.sol\":8858:8881  betsInfo[_selectedHash] */\n      0x00\n      dup6\n      dup2\n      mstore\n        /* \"contracts/Market.sol\":8858:8866  betsInfo */\n      0x07\n        /* \"contracts/Market.sol\":8858:8881  betsInfo[_selectedHash] */\n      0x20\n      mstore\n      0x40\n      dup2\n      keccak256\n        /* \"contracts/Market.sol\":8858:8889  betsInfo[_selectedHash].matched */\n      0x03\n      add\n        /* \"contracts/Market.sol\":8858:8904  betsInfo[_selectedHash].matched += makerAmount */\n      dup1\n      sload\n        /* \"contracts/Market.sol\":8893:8904  makerAmount */\n      dup5\n      swap3\n        /* \"contracts/Market.sol\":8858:8881  betsInfo[_selectedHash] */\n      swap1\n        /* \"contracts/Market.sol\":8858:8904  betsInfo[_selectedHash].matched += makerAmount */\n      tag_457\n      swap1\n        /* \"contracts/Market.sol\":8893:8904  makerAmount */\n      dup5\n      swap1\n        /* \"contracts/Market.sol\":8858:8904  betsInfo[_selectedHash].matched += makerAmount */\n      tag_216\n      jump\t// in\n    tag_457:\n      swap1\n      swap2\n      sstore\n      pop\n        /* \"contracts/Market.sol\":8921:8933  betterAmount */\n      swap3\n      swap11\n        /* \"contracts/Market.sol\":7555:8940  function _match(... */\n      swap10\n      pop\n      pop\n      pop\n      pop\n      pop\n      pop\n      pop\n      pop\n      pop\n      pop\n      jump\t// out\n        /* \"contracts/Market.sol\":10346:10694  function _cancelPair(bytes32 _pair) private {... */\n    tag_286:\n        /* \"contracts/Market.sol\":10400:10415  address betterA */\n      0x00\n        /* \"contracts/Market.sol\":10427:10443  pairsInfo[_pair] */\n      dup2\n      dup2\n      mstore\n        /* \"contracts/Market.sol\":10427:10436  pairsInfo */\n      0x09\n        /* \"contracts/Market.sol\":10427:10443  pairsInfo[_pair] */\n      0x20\n      swap1\n      dup2\n      mstore\n      0x40\n      dup1\n      dup4\n      keccak256\n        /* \"contracts/Market.sol\":10427:10452  pairsInfo[_pair].betHashA */\n      dup1\n      sload\n        /* \"contracts/Market.sol\":10418:10453  betsInfo[pairsInfo[_pair].betHashA] */\n      dup5\n      mstore\n        /* \"contracts/Market.sol\":10418:10426  betsInfo */\n      0x07\n        /* \"contracts/Market.sol\":10418:10453  betsInfo[pairsInfo[_pair].betHashA] */\n      dup4\n      mstore\n      dup2\n      dup5\n      keccak256\n        /* \"contracts/Market.sol\":10418:10460  betsInfo[pairsInfo[_pair].betHashA].better */\n      sload\n      0x01\n        /* \"contracts/Market.sol\":10497:10522  pairsInfo[_pair].betHashB */\n      dup3\n      add\n      sload\n        /* \"contracts/Market.sol\":10488:10523  betsInfo[pairsInfo[_pair].betHashB] */\n      dup6\n      mstore\n      dup3\n      dup6\n      keccak256\n        /* \"contracts/Market.sol\":10488:10530  betsInfo[pairsInfo[_pair].betHashB].better */\n      sload\n        /* \"contracts/Market.sol\":10556:10580  pairsInfo[_pair].amountA */\n      0x02\n      swap1\n      swap3\n      add\n      sload\n      sub(shl(0xa0, 0x01), 0x01)\n        /* \"contracts/Market.sol\":10418:10460  betsInfo[pairsInfo[_pair].betHashA].better */\n      swap2\n      dup3\n      and\n        /* \"contracts/Market.sol\":10540:10552  bal[betterA] */\n      dup1\n      dup8\n      mstore\n        /* \"contracts/Market.sol\":10540:10543  bal */\n      0x06\n        /* \"contracts/Market.sol\":10540:10552  bal[betterA] */\n      swap1\n      swap6\n      mstore\n      swap3\n      dup6\n      keccak256\n        /* \"contracts/Market.sol\":10540:10580  bal[betterA] += pairsInfo[_pair].amountA */\n      dup1\n      sload\n        /* \"contracts/Market.sol\":10418:10460  betsInfo[pairsInfo[_pair].betHashA].better */\n      swap5\n      swap6\n        /* \"contracts/Market.sol\":10488:10530  betsInfo[pairsInfo[_pair].betHashB].better */\n      swap2\n      swap1\n      swap3\n      and\n      swap4\n        /* \"contracts/Market.sol\":10540:10580  bal[betterA] += pairsInfo[_pair].amountA */\n      tag_459\n      swap1\n        /* \"contracts/Market.sol\":10556:10580  pairsInfo[_pair].amountA */\n      dup5\n      swap1\n        /* \"contracts/Market.sol\":10540:10580  bal[betterA] += pairsInfo[_pair].amountA */\n      tag_216\n      jump\t// in\n    tag_459:\n      swap1\n      swap2\n      sstore\n      pop\n      pop\n        /* \"contracts/Market.sol\":10606:10622  pairsInfo[_pair] */\n      0x00\n      dup4\n      dup2\n      mstore\n        /* \"contracts/Market.sol\":10606:10615  pairsInfo */\n      0x09\n        /* \"contracts/Market.sol\":10606:10622  pairsInfo[_pair] */\n      0x20\n      swap1\n      dup2\n      mstore\n      0x40\n      dup1\n      dup4\n      keccak256\n        /* \"contracts/Market.sol\":10606:10630  pairsInfo[_pair].amountB */\n      0x03\n      add\n      sload\n      sub(shl(0xa0, 0x01), 0x01)\n        /* \"contracts/Market.sol\":10590:10602  bal[betterB] */\n      dup6\n      and\n      dup5\n      mstore\n        /* \"contracts/Market.sol\":10590:10593  bal */\n      0x06\n        /* \"contracts/Market.sol\":10590:10602  bal[betterB] */\n      swap1\n      swap3\n      mstore\n      dup3\n      keccak256\n        /* \"contracts/Market.sol\":10590:10630  bal[betterB] += pairsInfo[_pair].amountB */\n      dup1\n      sload\n        /* \"contracts/Market.sol\":10606:10630  pairsInfo[_pair].amountB */\n      swap2\n      swap3\n        /* \"contracts/Market.sol\":10590:10602  bal[betterB] */\n      swap1\n      swap2\n        /* \"contracts/Market.sol\":10590:10630  bal[betterB] += pairsInfo[_pair].amountB */\n      tag_460\n      swap1\n        /* \"contracts/Market.sol\":10606:10630  pairsInfo[_pair].amountB */\n      dup5\n      swap1\n        /* \"contracts/Market.sol\":10590:10630  bal[betterB] += pairsInfo[_pair].amountB */\n      tag_216\n      jump\t// in\n    tag_460:\n      swap1\n      swap2\n      sstore\n      pop\n      pop\n      pop\n        /* \"contracts/Market.sol\":10640:10656  pairsInfo[_pair] */\n      0x00\n      swap2\n      dup3\n      mstore\n      pop\n        /* \"contracts/Market.sol\":10640:10649  pairsInfo */\n      0x09\n        /* \"contracts/Market.sol\":10640:10656  pairsInfo[_pair] */\n      0x20\n      mstore\n      0x40\n      swap1\n      keccak256\n        /* \"contracts/Market.sol\":10640:10664  pairsInfo[_pair].settled */\n      0x04\n      add\n        /* \"contracts/Market.sol\":10640:10671  pairsInfo[_pair].settled = true */\n      dup1\n      sload\n      not(0xff)\n      and\n        /* \"contracts/Market.sol\":10667:10671  true */\n      0x01\n        /* \"contracts/Market.sol\":10640:10671  pairsInfo[_pair].settled = true */\n      or\n      swap1\n      sstore\n        /* \"contracts/Market.sol\":10346:10694  function _cancelPair(bytes32 _pair) private {... */\n      jump\t// out\n        /* \"contracts/Market.sol\":12891:13630  function _createPair(... */\n    tag_441:\n        /* \"contracts/Market.sol\":13049:13056  bytes32 */\n      0x00\n        /* \"contracts/Market.sol\":13072:13088  bytes32 pairHash */\n      dup1\n        /* \"contracts/Market.sol\":13098:13104  uint i */\n      0x00\n        /* \"contracts/Market.sol\":13118:13471  while(i >= 0){... */\n    tag_462:\n        /* \"contracts/Market.sol\":13254:13259  pairs */\n      0x04\n        /* \"contracts/Market.sol\":13254:13266  pairs.length */\n      sload\n        /* \"contracts/Market.sol\":13200:13209  _betHashA */\n      dup8\n      swap1\n        /* \"contracts/Market.sol\":13227:13236  _betHashB */\n      dup8\n      swap1\n        /* \"contracts/Market.sol\":13273:13274  i */\n      dup4\n      swap1\n        /* \"contracts/Market.sol\":13254:13270  pairs.length + 1 */\n      tag_464\n      swap1\n        /* \"contracts/Market.sol\":13269:13270  1 */\n      0x01\n        /* \"contracts/Market.sol\":13254:13270  pairs.length + 1 */\n      tag_216\n      jump\t// in\n    tag_464:\n        /* \"contracts/Market.sol\":13254:13274  pairs.length + 1 + i */\n      tag_465\n      swap2\n      swap1\n      tag_216\n      jump\t// in\n    tag_465:\n        /* \"contracts/Market.sol\":13166:13355  abi.encodePacked(... */\n      0x40\n      dup1\n      mload\n      0x20\n      dup2\n      add\n        /* \"#utility.yul\":2912:2931   */\n      swap5\n      swap1\n      swap5\n      mstore\n        /* \"#utility.yul\":2947:2959   */\n      dup4\n      add\n        /* \"#utility.yul\":2940:2968   */\n      swap2\n      swap1\n      swap2\n      mstore\n        /* \"#utility.yul\":2984:2996   */\n      0x60\n      dup3\n      add\n        /* \"#utility.yul\":2977:3005   */\n      mstore\n        /* \"contracts/Market.sol\":13292:13307  block.timestamp */\n      timestamp\n        /* \"#utility.yul\":3021:3033   */\n      0x80\n      dup3\n      add\n        /* \"#utility.yul\":3014:3042   */\n      mstore\n        /* \"contracts/Market.sol\":13325:13341  block.difficulty */\n      difficulty\n        /* \"#utility.yul\":3058:3071   */\n      0xa0\n      dup3\n      add\n        /* \"#utility.yul\":3051:3080   */\n      mstore\n        /* \"#utility.yul\":3096:3109   */\n      0xc0\n      add\n        /* \"contracts/Market.sol\":13166:13355  abi.encodePacked(... */\n      0x40\n      dup1\n      mload\n      not(0x1f)\n      dup2\n      dup5\n      sub\n      add\n      dup2\n      mstore\n      swap2\n      dup2\n      mstore\n        /* \"contracts/Market.sol\":13156:13356  keccak256(abi.encodePacked(... */\n      dup2\n      mload\n        /* \"contracts/Market.sol\":13166:13355  abi.encodePacked(... */\n      0x20\n        /* \"contracts/Market.sol\":13156:13356  keccak256(abi.encodePacked(... */\n      swap3\n      dup4\n      add\n      keccak256\n        /* \"contracts/Market.sol\":13373:13392  pairsInfo[pairHash] */\n      0x00\n      dup2\n      dup2\n      mstore\n        /* \"contracts/Market.sol\":13373:13382  pairsInfo */\n      0x09\n        /* \"contracts/Market.sol\":13373:13392  pairsInfo[pairHash] */\n      swap1\n      swap4\n      mstore\n      swap2\n      keccak256\n        /* \"contracts/Market.sol\":13373:13400  pairsInfo[pairHash].amountA */\n      0x02\n      add\n      sload\n        /* \"contracts/Market.sol\":13156:13356  keccak256(abi.encodePacked(... */\n      swap1\n      swap3\n      pop\n        /* \"contracts/Market.sol\":13370:13444  if(pairsInfo[pairHash].amountA == 0){... */\n      tag_468\n      jumpi\n        /* \"contracts/Market.sol\":13424:13429  break */\n      jump(tag_463)\n        /* \"contracts/Market.sol\":13370:13444  if(pairsInfo[pairHash].amountA == 0){... */\n    tag_468:\n        /* \"contracts/Market.sol\":13457:13460  i++ */\n      dup1\n      tag_469\n      dup2\n      tag_83\n      jump\t// in\n    tag_469:\n      swap2\n      pop\n      pop\n        /* \"contracts/Market.sol\":13118:13471  while(i >= 0){... */\n      jump(tag_462)\n    tag_463:\n      pop\n        /* \"contracts/Market.sol\":13502:13568  Struct.MarketPair(_betHashA, _betHashB, _amountA, _amountB, false) */\n      0x40\n      dup1\n      mload\n      0xa0\n      dup2\n      add\n      dup3\n      mstore\n      swap7\n      dup8\n      mstore\n      0x20\n      dup1\n      dup9\n      add\n      swap7\n      dup8\n      mstore\n      dup8\n      dup3\n      add\n      swap6\n      dup7\n      mstore\n      0x60\n      dup9\n      add\n      swap5\n      dup6\n      mstore\n      0x00\n      0x80\n      dup10\n      add\n      dup2\n      dup2\n      mstore\n        /* \"contracts/Market.sol\":13480:13499  pairsInfo[pairHash] */\n      dup5\n      dup3\n      mstore\n        /* \"contracts/Market.sol\":13480:13489  pairsInfo */\n      0x09\n        /* \"contracts/Market.sol\":13480:13499  pairsInfo[pairHash] */\n      swap1\n      swap3\n      mstore\n      swap2\n      dup3\n      keccak256\n        /* \"contracts/Market.sol\":13480:13568  pairsInfo[pairHash] = Struct.MarketPair(_betHashA, _betHashB, _amountA, _amountB, false) */\n      swap8\n      mload\n      dup9\n      sstore\n      swap6\n      mload\n        /* \"contracts/Market.sol\":13502:13568  Struct.MarketPair(_betHashA, _betHashB, _amountA, _amountB, false) */\n      0x01\n        /* \"contracts/Market.sol\":13480:13568  pairsInfo[pairHash] = Struct.MarketPair(_betHashA, _betHashB, _amountA, _amountB, false) */\n      dup1\n      dup10\n      add\n      swap2\n      swap1\n      swap2\n      sstore\n      swap5\n      mload\n      0x02\n      dup9\n      add\n      sstore\n      swap3\n      mload\n      0x03\n      dup8\n      add\n      sstore\n      swap4\n      mload\n      0x04\n      swap6\n      dup7\n      add\n      dup1\n      sload\n      not(0xff)\n      and\n      swap2\n      iszero\n      iszero\n      swap2\n      swap1\n      swap2\n      or\n      swap1\n      sstore\n      pop\n        /* \"contracts/Market.sol\":13578:13598  pairs.push(pairHash) */\n      dup4\n      sload\n      swap2\n      dup3\n      add\n      dup5\n      sstore\n      swap3\n      swap1\n      swap3\n      mstore\n      0x8a35acfbc15ff81a39ae7d344fd709f28e8600b4aa8c65c6b64bfe7fe36bd19b\n      swap1\n      swap2\n      add\n      dup2\n      swap1\n      sstore\n        /* \"contracts/Market.sol\":13480:13499  pairsInfo[pairHash] */\n      swap1\n        /* \"contracts/Market.sol\":12891:13630  function _createPair(... */\n      jump\t// out\n        /* \"#utility.yul\":14:271   */\n    tag_26:\n        /* \"#utility.yul\":73:79   */\n      0x00\n        /* \"#utility.yul\":126:128   */\n      0x20\n        /* \"#utility.yul\":114:123   */\n      dup3\n        /* \"#utility.yul\":105:112   */\n      dup5\n        /* \"#utility.yul\":101:124   */\n      sub\n        /* \"#utility.yul\":97:129   */\n      slt\n        /* \"#utility.yul\":94:96   */\n      iszero\n      tag_473\n      jumpi\n        /* \"#utility.yul\":147:153   */\n      dup1\n        /* \"#utility.yul\":139:145   */\n      dup2\n        /* \"#utility.yul\":132:154   */\n      revert\n        /* \"#utility.yul\":94:96   */\n    tag_473:\n        /* \"#utility.yul\":191:200   */\n      dup2\n        /* \"#utility.yul\":178:201   */\n      calldataload\n        /* \"#utility.yul\":210:241   */\n      tag_474\n        /* \"#utility.yul\":235:240   */\n      dup2\n        /* \"#utility.yul\":210:241   */\n      tag_475\n      jump\t// in\n    tag_474:\n        /* \"#utility.yul\":260:265   */\n      swap4\n        /* \"#utility.yul\":84:271   */\n      swap3\n      pop\n      pop\n      pop\n      jump\t// out\n        /* \"#utility.yul\":276:537   */\n    tag_225:\n        /* \"#utility.yul\":346:352   */\n      0x00\n        /* \"#utility.yul\":399:401   */\n      0x20\n        /* \"#utility.yul\":387:396   */\n      dup3\n        /* \"#utility.yul\":378:385   */\n      dup5\n        /* \"#utility.yul\":374:397   */\n      sub\n        /* \"#utility.yul\":370:402   */\n      slt\n        /* \"#utility.yul\":367:369   */\n      iszero\n      tag_477\n      jumpi\n        /* \"#utility.yul\":420:426   */\n      dup1\n        /* \"#utility.yul\":412:418   */\n      dup2\n        /* \"#utility.yul\":405:427   */\n      revert\n        /* \"#utility.yul\":367:369   */\n    tag_477:\n        /* \"#utility.yul\":457:466   */\n      dup2\n        /* \"#utility.yul\":451:467   */\n      mload\n        /* \"#utility.yul\":476:507   */\n      tag_474\n        /* \"#utility.yul\":501:506   */\n      dup2\n        /* \"#utility.yul\":476:507   */\n      tag_475\n      jump\t// in\n        /* \"#utility.yul\":542:1282   */\n    tag_40:\n        /* \"#utility.yul\":643:649   */\n      0x00\n        /* \"#utility.yul\":651:657   */\n      dup1\n        /* \"#utility.yul\":659:665   */\n      0x00\n        /* \"#utility.yul\":667:673   */\n      dup1\n        /* \"#utility.yul\":675:681   */\n      0x00\n        /* \"#utility.yul\":683:689   */\n      dup1\n        /* \"#utility.yul\":736:739   */\n      0xc0\n        /* \"#utility.yul\":724:733   */\n      dup8\n        /* \"#utility.yul\":715:722   */\n      dup10\n        /* \"#utility.yul\":711:734   */\n      sub\n        /* \"#utility.yul\":707:740   */\n      slt\n        /* \"#utility.yul\":704:706   */\n      iszero\n      tag_480\n      jumpi\n        /* \"#utility.yul\":758:764   */\n      dup2\n        /* \"#utility.yul\":750:756   */\n      dup3\n        /* \"#utility.yul\":743:765   */\n      revert\n        /* \"#utility.yul\":704:706   */\n    tag_480:\n        /* \"#utility.yul\":802:811   */\n      dup7\n        /* \"#utility.yul\":789:812   */\n      calldataload\n        /* \"#utility.yul\":821:852   */\n      tag_481\n        /* \"#utility.yul\":846:851   */\n      dup2\n        /* \"#utility.yul\":821:852   */\n      tag_475\n      jump\t// in\n    tag_481:\n        /* \"#utility.yul\":871:876   */\n      swap6\n      pop\n        /* \"#utility.yul\":928:930   */\n      0x20\n        /* \"#utility.yul\":913:931   */\n      dup8\n      add\n        /* \"#utility.yul\":900:932   */\n      calldataload\n        /* \"#utility.yul\":941:974   */\n      tag_482\n        /* \"#utility.yul\":900:932   */\n      dup2\n        /* \"#utility.yul\":941:974   */\n      tag_475\n      jump\t// in\n    tag_482:\n        /* \"#utility.yul\":993:1000   */\n      swap5\n      pop\n        /* \"#utility.yul\":1047:1049   */\n      0x40\n        /* \"#utility.yul\":1032:1050   */\n      dup8\n      add\n        /* \"#utility.yul\":1019:1051   */\n      calldataload\n      swap4\n      pop\n        /* \"#utility.yul\":1098:1100   */\n      0x60\n        /* \"#utility.yul\":1083:1101   */\n      dup8\n      add\n        /* \"#utility.yul\":1070:1102   */\n      calldataload\n      swap3\n      pop\n        /* \"#utility.yul\":1149:1152   */\n      0x80\n        /* \"#utility.yul\":1134:1153   */\n      dup8\n      add\n        /* \"#utility.yul\":1121:1154   */\n      calldataload\n      swap2\n      pop\n        /* \"#utility.yul\":1206:1209   */\n      0xa0\n        /* \"#utility.yul\":1191:1210   */\n      dup8\n      add\n        /* \"#utility.yul\":1178:1211   */\n      calldataload\n        /* \"#utility.yul\":1220:1250   */\n      tag_483\n        /* \"#utility.yul\":1178:1211   */\n      dup2\n        /* \"#utility.yul\":1220:1250   */\n      tag_484\n      jump\t// in\n    tag_483:\n        /* \"#utility.yul\":1269:1276   */\n      dup1\n        /* \"#utility.yul\":1259:1276   */\n      swap2\n      pop\n      pop\n        /* \"#utility.yul\":694:1282   */\n      swap3\n      swap6\n      pop\n      swap3\n      swap6\n      pop\n      swap3\n      swap6\n      jump\t// out\n        /* \"#utility.yul\":1287:1542   */\n    tag_108:\n        /* \"#utility.yul\":1354:1360   */\n      0x00\n        /* \"#utility.yul\":1407:1409   */\n      0x20\n        /* \"#utility.yul\":1395:1404   */\n      dup3\n        /* \"#utility.yul\":1386:1393   */\n      dup5\n        /* \"#utility.yul\":1382:1405   */\n      sub\n        /* \"#utility.yul\":1378:1410   */\n      slt\n        /* \"#utility.yul\":1375:1377   */\n      iszero\n      tag_486\n      jumpi\n        /* \"#utility.yul\":1428:1434   */\n      dup1\n        /* \"#utility.yul\":1420:1426   */\n      dup2\n        /* \"#utility.yul\":1413:1435   */\n      revert\n        /* \"#utility.yul\":1375:1377   */\n    tag_486:\n        /* \"#utility.yul\":1465:1474   */\n      dup2\n        /* \"#utility.yul\":1459:1475   */\n      mload\n        /* \"#utility.yul\":1484:1512   */\n      tag_474\n        /* \"#utility.yul\":1506:1511   */\n      dup2\n        /* \"#utility.yul\":1484:1512   */\n      tag_484\n      jump\t// in\n        /* \"#utility.yul\":1547:1737   */\n    tag_22:\n        /* \"#utility.yul\":1606:1612   */\n      0x00\n        /* \"#utility.yul\":1659:1661   */\n      0x20\n        /* \"#utility.yul\":1647:1656   */\n      dup3\n        /* \"#utility.yul\":1638:1645   */\n      dup5\n        /* \"#utility.yul\":1634:1657   */\n      sub\n        /* \"#utility.yul\":1630:1662   */\n      slt\n        /* \"#utility.yul\":1627:1629   */\n      iszero\n      tag_489\n      jumpi\n        /* \"#utility.yul\":1680:1686   */\n      dup1\n        /* \"#utility.yul\":1672:1678   */\n      dup2\n        /* \"#utility.yul\":1665:1687   */\n      revert\n        /* \"#utility.yul\":1627:1629   */\n    tag_489:\n      pop\n        /* \"#utility.yul\":1708:1731   */\n      calldataload\n      swap2\n        /* \"#utility.yul\":1617:1737   */\n      swap1\n      pop\n      jump\t// out\n        /* \"#utility.yul\":1937:2131   */\n    tag_95:\n        /* \"#utility.yul\":2007:2013   */\n      0x00\n        /* \"#utility.yul\":2060:2062   */\n      0x20\n        /* \"#utility.yul\":2048:2057   */\n      dup3\n        /* \"#utility.yul\":2039:2046   */\n      dup5\n        /* \"#utility.yul\":2035:2058   */\n      sub\n        /* \"#utility.yul\":2031:2063   */\n      slt\n        /* \"#utility.yul\":2028:2030   */\n      iszero\n      tag_493\n      jumpi\n        /* \"#utility.yul\":2081:2087   */\n      dup1\n        /* \"#utility.yul\":2073:2079   */\n      dup2\n        /* \"#utility.yul\":2066:2088   */\n      revert\n        /* \"#utility.yul\":2028:2030   */\n    tag_493:\n      pop\n        /* \"#utility.yul\":2109:2125   */\n      mload\n      swap2\n        /* \"#utility.yul\":2018:2131   */\n      swap1\n      pop\n      jump\t// out\n        /* \"#utility.yul\":4892:6042   */\n    tag_29:\n        /* \"#utility.yul\":5117:5119   */\n      0x20\n        /* \"#utility.yul\":5169:5190   */\n      dup1\n      dup3\n      mstore\n        /* \"#utility.yul\":5239:5252   */\n      dup3\n      mload\n        /* \"#utility.yul\":5142:5160   */\n      dup3\n      dup3\n      add\n        /* \"#utility.yul\":5261:5283   */\n      dup2\n      swap1\n      mstore\n        /* \"#utility.yul\":5088:5092   */\n      0x00\n      swap2\n        /* \"#utility.yul\":5117:5119   */\n      swap1\n        /* \"#utility.yul\":5302:5304   */\n      0x40\n      swap1\n        /* \"#utility.yul\":5320:5338   */\n      dup2\n      dup6\n      add\n      swap1\n        /* \"#utility.yul\":5361:5376   */\n      dup7\n      dup5\n      add\n        /* \"#utility.yul\":5088:5092   */\n      dup6\n        /* \"#utility.yul\":5407:6016   */\n    tag_502:\n        /* \"#utility.yul\":5421:5427   */\n      dup3\n        /* \"#utility.yul\":5418:5419   */\n      dup2\n        /* \"#utility.yul\":5415:5428   */\n      lt\n        /* \"#utility.yul\":5407:6016   */\n      iszero\n      tag_504\n      jumpi\n        /* \"#utility.yul\":5480:5493   */\n      dup2\n      mload\n        /* \"#utility.yul\":5564:5573   */\n      dup1\n      mload\n      sub(shl(0xa0, 0x01), 0x01)\n        /* \"#utility.yul\":5560:5578   */\n      swap1\n      dup2\n      and\n        /* \"#utility.yul\":5548:5579   */\n      dup7\n      mstore\n        /* \"#utility.yul\":5623:5634   */\n      dup8\n      dup3\n      add\n        /* \"#utility.yul\":5617:5635   */\n      mload\n        /* \"#utility.yul\":5613:5640   */\n      and\n        /* \"#utility.yul\":5599:5611   */\n      dup8\n      dup7\n      add\n        /* \"#utility.yul\":5592:5641   */\n      mstore\n        /* \"#utility.yul\":5681:5692   */\n      dup6\n      dup2\n      add\n        /* \"#utility.yul\":5675:5693   */\n      mload\n        /* \"#utility.yul\":5661:5673   */\n      dup7\n      dup7\n      add\n        /* \"#utility.yul\":5654:5694   */\n      mstore\n        /* \"#utility.yul\":5717:5721   */\n      0x60\n        /* \"#utility.yul\":5761:5772   */\n      dup1\n      dup3\n      add\n        /* \"#utility.yul\":5755:5773   */\n      mload\n        /* \"#utility.yul\":5741:5753   */\n      swap1\n      dup7\n      add\n        /* \"#utility.yul\":5734:5774   */\n      mstore\n        /* \"#utility.yul\":5797:5801   */\n      0x80\n        /* \"#utility.yul\":5841:5852   */\n      dup1\n      dup3\n      add\n        /* \"#utility.yul\":5835:5853   */\n      mload\n        /* \"#utility.yul\":5821:5833   */\n      swap1\n      dup7\n      add\n        /* \"#utility.yul\":5814:5854   */\n      mstore\n        /* \"#utility.yul\":5524:5527   */\n      0xa0\n        /* \"#utility.yul\":5921:5932   */\n      swap1\n      dup2\n      add\n        /* \"#utility.yul\":5915:5933   */\n      mload\n        /* \"#utility.yul\":5901:5913   */\n      swap1\n      dup6\n      add\n        /* \"#utility.yul\":5894:5934   */\n      mstore\n        /* \"#utility.yul\":5963:5967   */\n      0xc0\n        /* \"#utility.yul\":5954:5968   */\n      swap1\n      swap4\n      add\n      swap3\n        /* \"#utility.yul\":5991:6006   */\n      swap1\n      dup6\n      add\n      swap1\n        /* \"#utility.yul\":5533:5534   */\n      0x01\n        /* \"#utility.yul\":5436:5445   */\n      add\n        /* \"#utility.yul\":5407:6016   */\n      jump(tag_502)\n    tag_504:\n      pop\n        /* \"#utility.yul\":6033:6036   */\n      swap2\n      swap8\n        /* \"#utility.yul\":5097:6042   */\n      swap7\n      pop\n      pop\n      pop\n      pop\n      pop\n      pop\n      pop\n      jump\t// out\n        /* \"#utility.yul\":7819:8164   */\n    tag_229:\n        /* \"#utility.yul\":8021:8023   */\n      0x20\n        /* \"#utility.yul\":8003:8024   */\n      dup1\n      dup3\n      mstore\n        /* \"#utility.yul\":8060:8062   */\n      0x15\n        /* \"#utility.yul\":8040:8058   */\n      swap1\n      dup3\n      add\n        /* \"#utility.yul\":8033:8063   */\n      mstore\n      shl(0x5a, 0x18d85b1b195c881b9bdd08185d5d1a1bdc9a5e9959)\n        /* \"#utility.yul\":8094:8096   */\n      0x40\n        /* \"#utility.yul\":8079:8097   */\n      dup3\n      add\n        /* \"#utility.yul\":8072:8123   */\n      mstore\n        /* \"#utility.yul\":8155:8157   */\n      0x60\n        /* \"#utility.yul\":8140:8158   */\n      add\n      swap1\n        /* \"#utility.yul\":7993:8164   */\n      jump\t// out\n        /* \"#utility.yul\":10795:10923   */\n    tag_216:\n        /* \"#utility.yul\":10835:10838   */\n      0x00\n        /* \"#utility.yul\":10866:10867   */\n      dup3\n        /* \"#utility.yul\":10862:10868   */\n      not\n        /* \"#utility.yul\":10859:10860   */\n      dup3\n        /* \"#utility.yul\":10856:10869   */\n      gt\n        /* \"#utility.yul\":10853:10855   */\n      iszero\n      tag_522\n      jumpi\n        /* \"#utility.yul\":10872:10890   */\n      tag_522\n      tag_523\n      jump\t// in\n    tag_522:\n      pop\n        /* \"#utility.yul\":10908:10917   */\n      add\n      swap1\n        /* \"#utility.yul\":10843:10923   */\n      jump\t// out\n        /* \"#utility.yul\":10928:11145   */\n    tag_179:\n        /* \"#utility.yul\":10968:10969   */\n      0x00\n        /* \"#utility.yul\":10994:10995   */\n      dup3\n        /* \"#utility.yul\":10984:10986   */\n      tag_525\n      jumpi\n      shl(0xe0, 0x4e487b71)\n        /* \"#utility.yul\":11019:11050   */\n      dup2\n      mstore\n        /* \"#utility.yul\":11073:11077   */\n      0x12\n        /* \"#utility.yul\":11070:11071   */\n      0x04\n        /* \"#utility.yul\":11063:11078   */\n      mstore\n        /* \"#utility.yul\":11101:11105   */\n      0x24\n        /* \"#utility.yul\":11026:11027   */\n      dup2\n        /* \"#utility.yul\":11091:11106   */\n      revert\n        /* \"#utility.yul\":10984:10986   */\n    tag_525:\n      pop\n        /* \"#utility.yul\":11130:11139   */\n      div\n      swap1\n        /* \"#utility.yul\":10974:11145   */\n      jump\t// out\n        /* \"#utility.yul\":11150:11318   */\n    tag_177:\n        /* \"#utility.yul\":11190:11197   */\n      0x00\n        /* \"#utility.yul\":11256:11257   */\n      dup2\n        /* \"#utility.yul\":11252:11253   */\n      0x00\n        /* \"#utility.yul\":11248:11254   */\n      not\n        /* \"#utility.yul\":11244:11258   */\n      div\n        /* \"#utility.yul\":11241:11242   */\n      dup4\n        /* \"#utility.yul\":11238:11259   */\n      gt\n        /* \"#utility.yul\":11233:11234   */\n      dup3\n        /* \"#utility.yul\":11226:11235   */\n      iszero\n        /* \"#utility.yul\":11219:11236   */\n      iszero\n        /* \"#utility.yul\":11215:11260   */\n      and\n        /* \"#utility.yul\":11212:11214   */\n      iszero\n      tag_528\n      jumpi\n        /* \"#utility.yul\":11263:11281   */\n      tag_528\n      tag_523\n      jump\t// in\n    tag_528:\n      pop\n        /* \"#utility.yul\":11303:11312   */\n      mul\n      swap1\n        /* \"#utility.yul\":11202:11318   */\n      jump\t// out\n        /* \"#utility.yul\":11323:11448   */\n    tag_101:\n        /* \"#utility.yul\":11363:11367   */\n      0x00\n        /* \"#utility.yul\":11391:11392   */\n      dup3\n        /* \"#utility.yul\":11388:11389   */\n      dup3\n        /* \"#utility.yul\":11385:11393   */\n      lt\n        /* \"#utility.yul\":11382:11384   */\n      iszero\n      tag_531\n      jumpi\n        /* \"#utility.yul\":11396:11414   */\n      tag_531\n      tag_523\n      jump\t// in\n    tag_531:\n      pop\n        /* \"#utility.yul\":11433:11442   */\n      sub\n      swap1\n        /* \"#utility.yul\":11372:11448   */\n      jump\t// out\n        /* \"#utility.yul\":11453:11588   */\n    tag_83:\n        /* \"#utility.yul\":11492:11495   */\n      0x00\n      not(0x00)\n        /* \"#utility.yul\":11513:11530   */\n      dup3\n      eq\n        /* \"#utility.yul\":11510:11512   */\n      iszero\n      tag_534\n      jumpi\n        /* \"#utility.yul\":11533:11551   */\n      tag_534\n      tag_523\n      jump\t// in\n    tag_534:\n      pop\n        /* \"#utility.yul\":11580:11581   */\n      0x01\n        /* \"#utility.yul\":11569:11582   */\n      add\n      swap1\n        /* \"#utility.yul\":11500:11588   */\n      jump\t// out\n        /* \"#utility.yul\":11593:11720   */\n    tag_523:\n        /* \"#utility.yul\":11654:11664   */\n      0x4e487b71\n        /* \"#utility.yul\":11649:11652   */\n      0xe0\n        /* \"#utility.yul\":11645:11665   */\n      shl\n        /* \"#utility.yul\":11642:11643   */\n      0x00\n        /* \"#utility.yul\":11635:11666   */\n      mstore\n        /* \"#utility.yul\":11685:11689   */\n      0x11\n        /* \"#utility.yul\":11682:11683   */\n      0x04\n        /* \"#utility.yul\":11675:11690   */\n      mstore\n        /* \"#utility.yul\":11709:11713   */\n      0x24\n        /* \"#utility.yul\":11706:11707   */\n      0x00\n        /* \"#utility.yul\":11699:11714   */\n      revert\n        /* \"#utility.yul\":11725:11856   */\n    tag_475:\n      sub(shl(0xa0, 0x01), 0x01)\n        /* \"#utility.yul\":11800:11831   */\n      dup2\n      and\n        /* \"#utility.yul\":11790:11832   */\n      dup2\n      eq\n        /* \"#utility.yul\":11780:11782   */\n      tag_73\n      jumpi\n        /* \"#utility.yul\":11846:11847   */\n      0x00\n        /* \"#utility.yul\":11843:11844   */\n      dup1\n        /* \"#utility.yul\":11836:11848   */\n      revert\n        /* \"#utility.yul\":11861:11979   */\n    tag_484:\n        /* \"#utility.yul\":11947:11952   */\n      dup1\n        /* \"#utility.yul\":11940:11953   */\n      iszero\n        /* \"#utility.yul\":11933:11954   */\n      iszero\n        /* \"#utility.yul\":11926:11931   */\n      dup2\n        /* \"#utility.yul\":11923:11955   */\n      eq\n        /* \"#utility.yul\":11913:11915   */\n      tag_73\n      jumpi\n        /* \"#utility.yul\":11969:11970   */\n      0x00\n        /* \"#utility.yul\":11966:11967   */\n      dup1\n        /* \"#utility.yul\":11959:11971   */\n      revert\n\n    auxdata: 0xa2646970667358221220162868e0bf5b179fe9245ec609e62722457180a6192eb5fa0e8289f5a2c01cc464736f6c63430008040033\n}\n",
				"bytecode": {
					"linkReferences": {},
					"object": "60c0604052600060035560025460601b6001600160601b03191660a0523480156200002957600080fd5b5060405162003064380380620030648339810160408190526200004c9162000102565b6001600081905580546001600160a01b03199081166001600160a01b0384161790915560028054339216821790556040805162966ed960e31b815290516304b376c891600480820192602092909190829003018186803b158015620000b057600080fd5b505afa158015620000c5573d6000803e3d6000fd5b505050506040513d601f19601f82011682018060405250810190620000eb919062000102565b60601b6001600160601b0319166080525062000132565b60006020828403121562000114578081fd5b81516001600160a01b03811681146200012b578182fd5b9392505050565b60805160601c60a05160601c612e496200021b6000396000818161075101528181610a6701528181610c6f01528181611064015281816111c7015281816112cd015281816113f0015281816117d4015281816118ca0152818161197301528181611a1c01528181611ae501528181611b8e01528181611c5701528181611e7201528181611f4101528181612072015281816121410152818161226b01528181612314015281816123dd015281816124860152818161254f015261270101526000818161042301528181610544015281816108b10152818161099e0152610b5d0152612e496000f3fe608060405234801561001057600080fd5b50600436106100b45760003560e01c80637d7f9232116100715780637d7f9232146101535780638df8280014610166578063be9a655514610179578063d0ed729514610181578063ea8a1af014610194578063f8b2cb4f1461019c57600080fd5b8063200d2ed2146100b95780632940ff1e146100d55780632d56657d146100ea57806351cff8d91461010a578063675f65371461012d57806378d65b2f14610140575b600080fd5b6100c260035481565b6040519081526020015b60405180910390f35b6100e86100e3366004612c6e565b6101c5565b005b6100fd6100f8366004612bad565b610244565b6040516100cc9190612c9e565b61011d610118366004612bad565b610398565b60405190151581526020016100cc565b6100e861013b366004612c6e565b610664565b6100c261014e366004612bec565b610739565b6100e8610161366004612c6e565b610f28565b61011d610174366004612c6e565b61104b565b61011d6111ae565b61011d61018f366004612c6e565b6112b4565b61011d6113d7565b6100c26101aa366004612bad565b6001600160a01b031660009081526006602052604090205490565b6000818152600760205260409020546001600160a01b031633146102265760405162461bcd60e51b81526020600482015260136024820152723ab730baba3437b934bd32b21031b0b63632b960691b60448201526064015b60405180910390fd5b600354610238576102368161153b565b505b61024181610f28565b50565b6001600160a01b03811660009081526008602090815260408083208054825181850281018501909352808352606094859490939291908301828280156102a957602002820191906000526020600020905b815481526020019060010190808311610295575b50506005549394506000925050505b8181101561038e57600760008483815181106102e457634e487b7160e01b600052603260045260246000fd5b6020908102919091018101518252818101929092526040908101600020815160c08101835281546001600160a01b0390811682526001830154169381019390935260028101549183019190915260038101546060830152600481015460808301526005015460a0820152845185908390811061037057634e487b7160e01b600052603260045260246000fd5b6020026020010181905250808061038690612dbf565b9150506102b8565b5091949350505050565b6000600260005414156103ed5760405162461bcd60e51b815260206004820152601f60248201527f5265656e7472616e637947756172643a207265656e7472616e742063616c6c00604482015260640161021d565b600260009081556001600160a01b03838116825260066020526040918290205491516370a0823160e01b815230600482015282917f000000000000000000000000000000000000000000000000000000000000000016906370a082319060240160206040518083038186803b15801561046557600080fd5b505afa158015610479573d6000803e3d6000fd5b505050506040513d601f19601f8201168201806040525081019061049d9190612c86565b101580156104ab5750600081115b6104ee5760405162461bcd60e51b81526020600482015260146024820152737a65726f2076616c756520617661696c61626c6560601b604482015260640161021d565b6001600160a01b03831660009081526006602052604081208054839290610516908490612da8565b909155505060405163a9059cbb60e01b81526001600160a01b038481166004830152602482018390526000917f00000000000000000000000000000000000000000000000000000000000000009091169063a9059cbb90604401602060405180830381600087803b15801561058a57600080fd5b505af115801561059e573d6000803e3d6000fd5b505050506040513d601f19601f820116820180604052508101906105c29190612c52565b9050806106115760405162461bcd60e51b815260206004820152601960248201527f7472616e7366657220746f2063616c6c6572206661696c656400000000000000604482015260640161021d565b604080516001600160a01b0386168152602081018490527f884edad9ce6fa2440d8a54cc123490eb96d2768479d49ff9c7366125a9424364910160405180910390a16001925050505b6001600055919050565b6000818152600a60209081526040808320805482518185028101850190935280835291929091908301828280156106ba57602002820191906000526020600020905b8154815260200190600101908083116106a6575b505083519394506000925050505b81811015610713576107008382815181106106f357634e487b7160e01b600052603260045260246000fd5b6020026020010151611da8565b508061070b81612dbf565b9150506106c8565b5033600090815260066020526040902054156107345761073233610398565b505b505050565b60405163332daccf60e01b81523360048201526000907f00000000000000000000000000000000000000000000000000000000000000006001600160a01b03169063332daccf9060240160206040518083038186803b15801561079b57600080fd5b505afa1580156107af573d6000803e3d6000fd5b505050506040513d601f19601f820116820180604052508101906107d39190612c52565b1561080c5760405162461bcd60e51b8152602060048201526009602482015268189b1858dadb1a5cdd60ba1b604482015260640161021d565b600354156108505760405162461bcd60e51b81526020600482015260116024820152706d61726b6574206e6f742061637469766560781b604482015260640161021d565b826001148061085f5750826002145b61089a5760405162461bcd60e51b815260206004820152600c60248201526b696e76616c6964207369646560a01b604482015260640161021d565b6040516370a0823160e01b815233600482015285907f00000000000000000000000000000000000000000000000000000000000000006001600160a01b0316906370a082319060240160206040518083038186803b1580156108fb57600080fd5b505afa15801561090f573d6000803e3d6000fd5b505050506040513d601f19601f820116820180604052508101906109339190612c86565b10156109815760405162461bcd60e51b815260206004820152601960248201527f6e6f7420656e6f75676820746f6b656e2062616c616c6e636500000000000000604482015260640161021d565b604051636eb1769f60e11b815233600482015230602482015285907f00000000000000000000000000000000000000000000000000000000000000006001600160a01b03169063dd62ed3e9060440160206040518083038186803b1580156109e857600080fd5b505afa1580156109fc573d6000803e3d6000fd5b505050506040513d601f19601f82011682018060405250810190610a209190612c86565b1015610a655760405162461bcd60e51b81526020600482015260146024820152736e6f7420656e6f75676820616c6c6f77616e636560601b604482015260640161021d565b7f00000000000000000000000000000000000000000000000000000000000000006001600160a01b031663375b3c0a6040518163ffffffff1660e01b815260040160206040518083038186803b158015610abe57600080fd5b505afa158015610ad2573d6000803e3d6000fd5b505050506040513d601f19601f82011682018060405250810190610af69190612c86565b851015610b3b5760405162461bcd60e51b81526020600482015260136024820152726c657373207468616e206d696e207374616b6560681b604482015260640161021d565b6040516323b872dd60e01b8152336004820152306024820152604481018690527f00000000000000000000000000000000000000000000000000000000000000006001600160a01b0316906323b872dd90606401602060405180830381600087803b158015610ba957600080fd5b505af1158015610bbd573d6000803e3d6000fd5b505050506040513d601f19601f82011682018060405250810190610be19190612c52565b610c2d5760405162461bcd60e51b815260206004820152601b60248201527f7472616e736665722066726f6d2063616c6c6572206661696c65640000000000604482015260640161021d565b6000610c5c88888884610c4160648b612da8565b610c4c8b6064612d89565b610c569190612d69565b8961264a565b60055490915015610ec85760055486905b7f00000000000000000000000000000000000000000000000000000000000000006001600160a01b031663375b3c0a6040518163ffffffff1660e01b815260040160206040518083038186803b158015610cc657600080fd5b505afa158015610cda573d6000803e3d6000fd5b505050506040513d601f19601f82011682018060405250810190610cfe9190612c86565b8210610ec55760008060005b83811015610dae57600060058281548110610d3557634e487b7160e01b600052603260045260246000fd5b9060005260206000200154905060076000828152602001908152602001600020600501548a1415610d665750610d9c565b600081815260076020526040902060040154831015610d9a5760008181526007602052604090206004015491935090915082905b505b80610da681612dbf565b915050610d0a565b50600089821180610dc75750600082118015610dc75750875b15610ea957600060058481548110610def57634e487b7160e01b600052603260045260246000fd5b6000918252602080832090910154808352600782526040808420815160c08101835281546001600160a01b0390811682526001830154169481019490945260028101549184019190915260038101546060840152600481015460808401526005015460a0830152925090610e6460648e612da8565b82606001518360400151610e789190612da8565b610e829190612d69565b9050610e8f606482612d89565b9050610e9f8e828f8f8d88612874565b9350505050610eb1565b505050610ec5565b610ebb8186612da8565b9450505050610c6d565b50505b60408051338152306020820152908101829052606081018790526080810186905260a081018590527f618f358bb45538682ade624a4a1959053d9dabd20fe300508034b879681b37be9060c00160405180910390a1979650505050505050565b600081815260076020908152604091829020825160c08101845281546001600160a01b0390811680835260018401549091169382019390935260028201549381019390935260038101546060840152600481015460808401526005015460a08301523314610fce5760405162461bcd60e51b81526020600482015260136024820152723ab730baba3437b934bd32b21031b0b63632b960691b604482015260640161021d565b600081606001518260400151610fe49190612da8565b82516001600160a01b0316600090815260066020526040812080549293508392909190611012908490612d51565b90915550506040808301516000858152600760209081528382206003019290925533815260069091522054156107345761073233610398565b6001546000906001600160a01b031633148061110857507f00000000000000000000000000000000000000000000000000000000000000006001600160a01b031663ce606ee06040518163ffffffff1660e01b815260040160206040518083038186803b1580156110bb57600080fd5b505afa1580156110cf573d6000803e3d6000fd5b505050506040513d601f19601f820116820180604052508101906110f39190612bd0565b6001600160a01b0316336001600160a01b0316145b8061111d57506002546001600160a01b031633145b6111395760405162461bcd60e51b815260040161021d90612d22565b611142826112b4565b156111a65760045460005b8181101561119c576111896004828154811061117957634e487b7160e01b600052603260045260246000fd5b9060005260206000200154611da8565b508061119481612dbf565b91505061114d565b5060019392505050565b506000919050565b6001546000906001600160a01b031633148061126b57507f00000000000000000000000000000000000000000000000000000000000000006001600160a01b031663ce606ee06040518163ffffffff1660e01b815260040160206040518083038186803b15801561121e57600080fd5b505afa158015611232573d6000803e3d6000fd5b505050506040513d601f19601f820116820180604052508101906112569190612bd0565b6001600160a01b0316336001600160a01b0316145b8061128057506002546001600160a01b031633145b61129c5760405162461bcd60e51b815260040161021d90612d22565b6003546112ae57506004600355600190565b50600090565b6001546000906001600160a01b031633148061137157507f00000000000000000000000000000000000000000000000000000000000000006001600160a01b031663ce606ee06040518163ffffffff1660e01b815260040160206040518083038186803b15801561132457600080fd5b505afa158015611338573d6000803e3d6000fd5b505050506040513d601f19601f8201168201806040525081019061135c9190612bd0565b6001600160a01b0316336001600160a01b0316145b8061138657506002546001600160a01b031633145b6113a25760405162461bcd60e51b815260040161021d90612d22565b60035415806113b357506003546004145b80156113c9575081600114806113c95750816002145b156111a65750600355600190565b6001546000906001600160a01b031633148061149457507f00000000000000000000000000000000000000000000000000000000000000006001600160a01b031663ce606ee06040518163ffffffff1660e01b815260040160206040518083038186803b15801561144757600080fd5b505afa15801561145b573d6000803e3d6000fd5b505050506040513d601f19601f8201168201806040525081019061147f9190612bd0565b6001600160a01b0316336001600160a01b0316145b806114a957506002546001600160a01b031633145b6114c55760405162461bcd60e51b815260040161021d90612d22565b60035415806114d657506003546004145b156112ae5760045460005b8181101561152f5761151d6004828154811061150d57634e487b7160e01b600052603260045260246000fd5b90600052602060002001546129c2565b8061152781612dbf565b9150506114e1565b50506003805550600190565b6000818152600760209081526040808320815160c08101835281546001600160a01b03908116825260018301541681850152600282015481840152600382015460608201526004820154608082015260059091015460a0820152848452600a835281842080548351818602810186019094528084529193859392908301828280156115e557602002820191906000526020600020905b8154815260200190600101908083116115d1575b505083519394506000925050505b81811015611d9c576000806000808760a00151600114156116d3576009600088878151811061163257634e487b7160e01b600052603260045260246000fd5b602002602001015181526020019081526020016000206002015491506009600088878151811061167257634e487b7160e01b600052603260045260246000fd5b60200260200101518152602001908152602001600020600101549350600960008887815181106116b257634e487b7160e01b600052603260045260246000fd5b602002602001015181526020019081526020016000206003015492506117a1565b8760a00151600214156117a1576009600088878151811061170457634e487b7160e01b600052603260045260246000fd5b602002602001015181526020019081526020016000206003015491506009600088878151811061174457634e487b7160e01b600052603260045260246000fd5b602002602001015181526020019081526020016000206000015493506009600088878151811061178457634e487b7160e01b600052603260045260246000fd5b602002602001015181526020019081526020016000206002015492505b506000838152600760209081526040918290205482516355c4a8bf60e01b815292516001600160a01b03918216936064937f0000000000000000000000000000000000000000000000000000000000000000909316926355c4a8bf92600480840193829003018186803b15801561181757600080fd5b505afa15801561182b573d6000803e3d6000fd5b505050506040513d601f19601f8201168201806040525081019061184f9190612c86565b61185a906064612da8565b6118649084612d89565b61186e9190612d69565b88516001600160a01b031660009081526006602052604081208054909190611897908490612d51565b9091555050600084815260076020526040812060030180548592906118bd908490612da8565b92505081905550600060647f00000000000000000000000000000000000000000000000000000000000000006001600160a01b03166355c4a8bf6040518163ffffffff1660e01b815260040160206040518083038186803b15801561192157600080fd5b505afa158015611935573d6000803e3d6000fd5b505050506040513d601f19601f820116820180604052508101906119599190612c86565b6119639085612d89565b61196d9190612d69565b905060647f00000000000000000000000000000000000000000000000000000000000000006001600160a01b0316636a0ccd9d6040518163ffffffff1660e01b815260040160206040518083038186803b1580156119ca57600080fd5b505afa1580156119de573d6000803e3d6000fd5b505050506040513d601f19601f82011682018060405250810190611a029190612c86565b611a0c9083612d89565b611a169190612d69565b600660007f00000000000000000000000000000000000000000000000000000000000000006001600160a01b031663b7640a546040518163ffffffff1660e01b815260040160206040518083038186803b158015611a7357600080fd5b505afa158015611a87573d6000803e3d6000fd5b505050506040513d601f19601f82011682018060405250810190611aab9190612bd0565b6001600160a01b03166001600160a01b031681526020019081526020016000206000828254611ada9190612d51565b9250508190555060647f00000000000000000000000000000000000000000000000000000000000000006001600160a01b03166328576d456040518163ffffffff1660e01b815260040160206040518083038186803b158015611b3c57600080fd5b505afa158015611b50573d6000803e3d6000fd5b505050506040513d601f19601f82011682018060405250810190611b749190612c86565b611b7e9083612d89565b611b889190612d69565b600660007f00000000000000000000000000000000000000000000000000000000000000006001600160a01b03166309953b2f6040518163ffffffff1660e01b815260040160206040518083038186803b158015611be557600080fd5b505afa158015611bf9573d6000803e3d6000fd5b505050506040513d601f19601f82011682018060405250810190611c1d9190612bd0565b6001600160a01b03166001600160a01b031681526020019081526020016000206000828254611c4c9190612d51565b9250508190555060647f00000000000000000000000000000000000000000000000000000000000000006001600160a01b03166354cd1a5c6040518163ffffffff1660e01b815260040160206040518083038186803b158015611cae57600080fd5b505afa158015611cc2573d6000803e3d6000fd5b505050506040513d601f19601f82011682018060405250810190611ce69190612c86565b611cf09083612d89565b611cfa9190612d69565b6020808b01516001600160a01b031660009081526006909152604081208054909190611d27908490612d51565b925050819055506001600960008a8981518110611d5457634e487b7160e01b600052603260045260246000fd5b6020026020010151815260200190815260200160002060040160006101000a81548160ff02191690831515021790555050505050508080611d9490612dbf565b9150506115f3565b50600195945050505050565b600060026000541415611dfd5760405162461bcd60e51b815260206004820152601f60248201527f5265656e7472616e637947756172643a207265656e7472616e742063616c6c00604482015260640161021d565b600260009081558281526009602052604090206004015460ff1615611e245750600061065a565b6000806000806003546001141561202757600086815260096020908152604080832054835260078252918290205482516355c4a8bf60e01b815292516001600160a01b0391821697506064937f0000000000000000000000000000000000000000000000000000000000000000909216926355c4a8bf9260048082019391829003018186803b158015611eb657600080fd5b505afa158015611eca573d6000803e3d6000fd5b505050506040513d601f19601f82011682018060405250810190611eee9190612c86565b611ef9906064612da8565b600088815260096020526040902060030154611f159190612d89565b611f1f9190612d69565b600087815260096020526040902060020154611f3b9190612d51565b915060647f00000000000000000000000000000000000000000000000000000000000000006001600160a01b03166355c4a8bf6040518163ffffffff1660e01b815260040160206040518083038186803b158015611f9857600080fd5b505afa158015611fac573d6000803e3d6000fd5b505050506040513d601f19601f82011682018060405250810190611fd09190612c86565b600088815260096020526040902060030154611fec9190612d89565b611ff69190612d69565b600087815260096020908152604080832054835260079091529020600101546001600160a01b031693509050612238565b6003546002141561222b57600086815260096020908152604080832060010154835260078252918290205482516355c4a8bf60e01b815292516001600160a01b0391821697506064937f0000000000000000000000000000000000000000000000000000000000000000909216926355c4a8bf9260048082019391829003018186803b1580156120b657600080fd5b505afa1580156120ca573d6000803e3d6000fd5b505050506040513d601f19601f820116820180604052508101906120ee9190612c86565b6120f9906064612da8565b6000888152600960205260409020600201546121159190612d89565b61211f9190612d69565b60008781526009602052604090206003015461213b9190612d51565b915060647f00000000000000000000000000000000000000000000000000000000000000006001600160a01b03166355c4a8bf6040518163ffffffff1660e01b815260040160206040518083038186803b15801561219857600080fd5b505afa1580156121ac573d6000803e3d6000fd5b505050506040513d601f19601f820116820180604052508101906121d09190612c86565b6000888152600960205260409020600201546121ec9190612d89565b6121f69190612d69565b60008781526009602090815260408083206001908101548452600790925290912001546001600160a01b031693509050612238565b600094505050505061065a565b6001600160a01b03841660009081526006602052604081208054849290612260908490612d51565b9250508190555060647f00000000000000000000000000000000000000000000000000000000000000006001600160a01b0316636a0ccd9d6040518163ffffffff1660e01b815260040160206040518083038186803b1580156122c257600080fd5b505afa1580156122d6573d6000803e3d6000fd5b505050506040513d601f19601f820116820180604052508101906122fa9190612c86565b6123049083612d89565b61230e9190612d69565b600660007f00000000000000000000000000000000000000000000000000000000000000006001600160a01b031663b7640a546040518163ffffffff1660e01b815260040160206040518083038186803b15801561236b57600080fd5b505afa15801561237f573d6000803e3d6000fd5b505050506040513d601f19601f820116820180604052508101906123a39190612bd0565b6001600160a01b03166001600160a01b0316815260200190815260200160002060008282546123d29190612d51565b9250508190555060647f00000000000000000000000000000000000000000000000000000000000000006001600160a01b03166328576d456040518163ffffffff1660e01b815260040160206040518083038186803b15801561243457600080fd5b505afa158015612448573d6000803e3d6000fd5b505050506040513d601f19601f8201168201806040525081019061246c9190612c86565b6124769083612d89565b6124809190612d69565b600660007f00000000000000000000000000000000000000000000000000000000000000006001600160a01b03166309953b2f6040518163ffffffff1660e01b815260040160206040518083038186803b1580156124dd57600080fd5b505afa1580156124f1573d6000803e3d6000fd5b505050506040513d601f19601f820116820180604052508101906125159190612bd0565b6001600160a01b03166001600160a01b0316815260200190815260200160002060008282546125449190612d51565b9250508190555060647f00000000000000000000000000000000000000000000000000000000000000006001600160a01b03166354cd1a5c6040518163ffffffff1660e01b815260040160206040518083038186803b1580156125a657600080fd5b505afa1580156125ba573d6000803e3d6000fd5b505050506040513d601f19601f820116820180604052508101906125de9190612c86565b6125e89083612d89565b6125f29190612d69565b6001600160a01b0384166000908152600660205260408120805490919061261a908490612d51565b909155505050600094855250506009602052505060408120600401805460ff191660019081179091559081905590565b60008060005b600554899030908390612664906001612d51565b61266e9190612d51565b6040516bffffffffffffffffffffffff19606094851b811660208301529290931b9091166034830152604882015242606882015244608882015260a80160408051601f198184030181529181528151602092830120600081815260079093529120600201549092506126df576126f1565b806126e981612dbf565b915050612650565b6001600160a01b038816612793577f00000000000000000000000000000000000000000000000000000000000000006001600160a01b03166309953b2f6040518163ffffffff1660e01b815260040160206040518083038186803b15801561275857600080fd5b505afa15801561276c573d6000803e3d6000fd5b505050506040513d601f19601f820116820180604052508101906127909190612bd0565b97505b506040805160c0810182526001600160a01b03998a16808252988a166020808301918252828401998a52606083019889526080830197885260a0830196875260008581526007825284812093518454908e166001600160a01b031991821617855592516001808601805492909f169190941617909c55985160028301559651600382015594516004860155925160059485015583548086019094557f036b6384b5eca791c62761152d0c79bb0604c104a5fb6f4eb0703f3154bb3db09093018390555093855260088352928420805491820181558452922090910181905590565b6000806000808989116128de5788925061288f606489612da8565b612899908a612d89565b91506128a6606483612d69565b915086600114156128c4576128bd86868585612a7d565b9050612932565b86600214156128d9576128bd85878486612a7d565b612932565b8992506128ec606489612da8565b6128f6908b612d89565b9150612903606483612d69565b9150866001141561291a576128bd86868585612a7d565b86600214156129325761292f85878486612a7d565b90505b6000868152600a602090815260408083208054600181810183559185528385200185905588845281842080549182018155845282842001849055888352600790915281206003018054859290612989908490612d51565b9091555050600085815260076020526040812060030180548492906129af908490612d51565b90915550929a9950505050505050505050565b600081815260096020908152604080832080548452600783528184205460018201548552828520546002909201546001600160a01b039182168087526006909552928520805494959190921693612a1a908490612d51565b90915550506000838152600960209081526040808320600301546001600160a01b038516845260069092528220805491929091612a58908490612d51565b909155505050600091825250600960205260409020600401805460ff19166001179055565b60008060005b600454879087908390612a97906001612d51565b612aa19190612d51565b60408051602081019490945283019190915260608201524260808201524460a082015260c00160408051601f19818403018152918152815160209283012060008181526009909352912060020154909250612afb57612b0d565b80612b0581612dbf565b915050612a83565b506040805160a0810182529687526020808801968752878201958652606088019485526000608089018181528482526009909252918220975188559551600180890191909155945160028801559251600387015593516004958601805460ff19169115159190911790555083549182018455929092527f8a35acfbc15ff81a39ae7d344fd709f28e8600b4aa8c65c6b64bfe7fe36bd19b90910181905590565b600060208284031215612bbe578081fd5b8135612bc981612df0565b9392505050565b600060208284031215612be1578081fd5b8151612bc981612df0565b60008060008060008060c08789031215612c04578182fd5b8635612c0f81612df0565b95506020870135612c1f81612df0565b945060408701359350606087013592506080870135915060a0870135612c4481612e05565b809150509295509295509295565b600060208284031215612c63578081fd5b8151612bc981612e05565b600060208284031215612c7f578081fd5b5035919050565b600060208284031215612c97578081fd5b5051919050565b602080825282518282018190526000919060409081850190868401855b82811015612d1557815180516001600160a01b0390811686528782015116878601528581015186860152606080820151908601526080808201519086015260a0908101519085015260c09093019290850190600101612cbb565b5091979650505050505050565b60208082526015908201527418d85b1b195c881b9bdd08185d5d1a1bdc9a5e9959605a1b604082015260600190565b60008219821115612d6457612d64612dda565b500190565b600082612d8457634e487b7160e01b81526012600452602481fd5b500490565b6000816000190483118215151615612da357612da3612dda565b500290565b600082821015612dba57612dba612dda565b500390565b6000600019821415612dd357612dd3612dda565b5060010190565b634e487b7160e01b600052601160045260246000fd5b6001600160a01b038116811461024157600080fd5b801515811461024157600080fdfea2646970667358221220162868e0bf5b179fe9245ec609e62722457180a6192eb5fa0e8289f5a2c01cc464736f6c63430008040033",
					"opcodes": "PUSH1 0xC0 PUSH1 0x40 MSTORE PUSH1 0x0 PUSH1 0x3 SSTORE PUSH1 0x2 SLOAD PUSH1 0x60 SHL PUSH1 0x1 PUSH1 0x1 PUSH1 0x60 SHL SUB NOT AND PUSH1 0xA0 MSTORE CALLVALUE DUP1 ISZERO PUSH3 0x29 JUMPI PUSH1 0x0 DUP1 REVERT JUMPDEST POP PUSH1 0x40 MLOAD PUSH3 0x3064 CODESIZE SUB DUP1 PUSH3 0x3064 DUP4 CODECOPY DUP2 ADD PUSH1 0x40 DUP2 SWAP1 MSTORE PUSH3 0x4C SWAP2 PUSH3 0x102 JUMP JUMPDEST PUSH1 0x1 PUSH1 0x0 DUP2 SWAP1 SSTORE DUP1 SLOAD PUSH1 0x1 PUSH1 0x1 PUSH1 0xA0 SHL SUB NOT SWAP1 DUP2 AND PUSH1 0x1 PUSH1 0x1 PUSH1 0xA0 SHL SUB DUP5 AND OR SWAP1 SWAP2 SSTORE PUSH1 0x2 DUP1 SLOAD CALLER SWAP3 AND DUP3 OR SWAP1 SSTORE PUSH1 0x40 DUP1 MLOAD PUSH3 0x966ED9 PUSH1 0xE3 SHL DUP2 MSTORE SWAP1 MLOAD PUSH4 0x4B376C8 SWAP2 PUSH1 0x4 DUP1 DUP3 ADD SWAP3 PUSH1 0x20 SWAP3 SWAP1 SWAP2 SWAP1 DUP3 SWAP1 SUB ADD DUP2 DUP7 DUP1 EXTCODESIZE ISZERO DUP1 ISZERO PUSH3 0xB0 JUMPI PUSH1 0x0 DUP1 REVERT JUMPDEST POP GAS STATICCALL ISZERO DUP1 ISZERO PUSH3 0xC5 JUMPI RETURNDATASIZE PUSH1 0x0 DUP1 RETURNDATACOPY RETURNDATASIZE PUSH1 0x0 REVERT JUMPDEST POP POP POP POP PUSH1 0x40 MLOAD RETURNDATASIZE PUSH1 0x1F NOT PUSH1 0x1F DUP3 ADD AND DUP3 ADD DUP1 PUSH1 0x40 MSTORE POP DUP2 ADD SWAP1 PUSH3 0xEB SWAP2 SWAP1 PUSH3 0x102 JUMP JUMPDEST PUSH1 0x60 SHL PUSH1 0x1 PUSH1 0x1 PUSH1 0x60 SHL SUB NOT AND PUSH1 0x80 MSTORE POP PUSH3 0x132 JUMP JUMPDEST PUSH1 0x0 PUSH1 0x20 DUP3 DUP5 SUB SLT ISZERO PUSH3 0x114 JUMPI DUP1 DUP2 REVERT JUMPDEST DUP2 MLOAD PUSH1 0x1 PUSH1 0x1 PUSH1 0xA0 SHL SUB DUP2 AND DUP2 EQ PUSH3 0x12B JUMPI DUP2 DUP3 REVERT JUMPDEST SWAP4 SWAP3 POP POP POP JUMP JUMPDEST PUSH1 0x80 MLOAD PUSH1 0x60 SHR PUSH1 0xA0 MLOAD PUSH1 0x60 SHR PUSH2 0x2E49 PUSH3 0x21B PUSH1 0x0 CODECOPY PUSH1 0x0 DUP2 DUP2 PUSH2 0x751 ADD MSTORE DUP2 DUP2 PUSH2 0xA67 ADD MSTORE DUP2 DUP2 PUSH2 0xC6F ADD MSTORE DUP2 DUP2 PUSH2 0x1064 ADD MSTORE DUP2 DUP2 PUSH2 0x11C7 ADD MSTORE DUP2 DUP2 PUSH2 0x12CD ADD MSTORE DUP2 DUP2 PUSH2 0x13F0 ADD MSTORE DUP2 DUP2 PUSH2 0x17D4 ADD MSTORE DUP2 DUP2 PUSH2 0x18CA ADD MSTORE DUP2 DUP2 PUSH2 0x1973 ADD MSTORE DUP2 DUP2 PUSH2 0x1A1C ADD MSTORE DUP2 DUP2 PUSH2 0x1AE5 ADD MSTORE DUP2 DUP2 PUSH2 0x1B8E ADD MSTORE DUP2 DUP2 PUSH2 0x1C57 ADD MSTORE DUP2 DUP2 PUSH2 0x1E72 ADD MSTORE DUP2 DUP2 PUSH2 0x1F41 ADD MSTORE DUP2 DUP2 PUSH2 0x2072 ADD MSTORE DUP2 DUP2 PUSH2 0x2141 ADD MSTORE DUP2 DUP2 PUSH2 0x226B ADD MSTORE DUP2 DUP2 PUSH2 0x2314 ADD MSTORE DUP2 DUP2 PUSH2 0x23DD ADD MSTORE DUP2 DUP2 PUSH2 0x2486 ADD MSTORE DUP2 DUP2 PUSH2 0x254F ADD MSTORE PUSH2 0x2701 ADD MSTORE PUSH1 0x0 DUP2 DUP2 PUSH2 0x423 ADD MSTORE DUP2 DUP2 PUSH2 0x544 ADD MSTORE DUP2 DUP2 PUSH2 0x8B1 ADD MSTORE DUP2 DUP2 PUSH2 0x99E ADD MSTORE PUSH2 0xB5D ADD MSTORE PUSH2 0x2E49 PUSH1 0x0 RETURN INVALID PUSH1 0x80 PUSH1 0x40 MSTORE CALLVALUE DUP1 ISZERO PUSH2 0x10 JUMPI PUSH1 0x0 DUP1 REVERT JUMPDEST POP PUSH1 0x4 CALLDATASIZE LT PUSH2 0xB4 JUMPI PUSH1 0x0 CALLDATALOAD PUSH1 0xE0 SHR DUP1 PUSH4 0x7D7F9232 GT PUSH2 0x71 JUMPI DUP1 PUSH4 0x7D7F9232 EQ PUSH2 0x153 JUMPI DUP1 PUSH4 0x8DF82800 EQ PUSH2 0x166 JUMPI DUP1 PUSH4 0xBE9A6555 EQ PUSH2 0x179 JUMPI DUP1 PUSH4 0xD0ED7295 EQ PUSH2 0x181 JUMPI DUP1 PUSH4 0xEA8A1AF0 EQ PUSH2 0x194 JUMPI DUP1 PUSH4 0xF8B2CB4F EQ PUSH2 0x19C JUMPI PUSH1 0x0 DUP1 REVERT JUMPDEST DUP1 PUSH4 0x200D2ED2 EQ PUSH2 0xB9 JUMPI DUP1 PUSH4 0x2940FF1E EQ PUSH2 0xD5 JUMPI DUP1 PUSH4 0x2D56657D EQ PUSH2 0xEA JUMPI DUP1 PUSH4 0x51CFF8D9 EQ PUSH2 0x10A JUMPI DUP1 PUSH4 0x675F6537 EQ PUSH2 0x12D JUMPI DUP1 PUSH4 0x78D65B2F EQ PUSH2 0x140 JUMPI JUMPDEST PUSH1 0x0 DUP1 REVERT JUMPDEST PUSH2 0xC2 PUSH1 0x3 SLOAD DUP2 JUMP JUMPDEST PUSH1 0x40 MLOAD SWAP1 DUP2 MSTORE PUSH1 0x20 ADD JUMPDEST PUSH1 0x40 MLOAD DUP1 SWAP2 SUB SWAP1 RETURN JUMPDEST PUSH2 0xE8 PUSH2 0xE3 CALLDATASIZE PUSH1 0x4 PUSH2 0x2C6E JUMP JUMPDEST PUSH2 0x1C5 JUMP JUMPDEST STOP JUMPDEST PUSH2 0xFD PUSH2 0xF8 CALLDATASIZE PUSH1 0x4 PUSH2 0x2BAD JUMP JUMPDEST PUSH2 0x244 JUMP JUMPDEST PUSH1 0x40 MLOAD PUSH2 0xCC SWAP2 SWAP1 PUSH2 0x2C9E JUMP JUMPDEST PUSH2 0x11D PUSH2 0x118 CALLDATASIZE PUSH1 0x4 PUSH2 0x2BAD JUMP JUMPDEST PUSH2 0x398 JUMP JUMPDEST PUSH1 0x40 MLOAD SWAP1 ISZERO ISZERO DUP2 MSTORE PUSH1 0x20 ADD PUSH2 0xCC JUMP JUMPDEST PUSH2 0xE8 PUSH2 0x13B CALLDATASIZE PUSH1 0x4 PUSH2 0x2C6E JUMP JUMPDEST PUSH2 0x664 JUMP JUMPDEST PUSH2 0xC2 PUSH2 0x14E CALLDATASIZE PUSH1 0x4 PUSH2 0x2BEC JUMP JUMPDEST PUSH2 0x739 JUMP JUMPDEST PUSH2 0xE8 PUSH2 0x161 CALLDATASIZE PUSH1 0x4 PUSH2 0x2C6E JUMP JUMPDEST PUSH2 0xF28 JUMP JUMPDEST PUSH2 0x11D PUSH2 0x174 CALLDATASIZE PUSH1 0x4 PUSH2 0x2C6E JUMP JUMPDEST PUSH2 0x104B JUMP JUMPDEST PUSH2 0x11D PUSH2 0x11AE JUMP JUMPDEST PUSH2 0x11D PUSH2 0x18F CALLDATASIZE PUSH1 0x4 PUSH2 0x2C6E JUMP JUMPDEST PUSH2 0x12B4 JUMP JUMPDEST PUSH2 0x11D PUSH2 0x13D7 JUMP JUMPDEST PUSH2 0xC2 PUSH2 0x1AA CALLDATASIZE PUSH1 0x4 PUSH2 0x2BAD JUMP JUMPDEST PUSH1 0x1 PUSH1 0x1 PUSH1 0xA0 SHL SUB AND PUSH1 0x0 SWAP1 DUP2 MSTORE PUSH1 0x6 PUSH1 0x20 MSTORE PUSH1 0x40 SWAP1 KECCAK256 SLOAD SWAP1 JUMP JUMPDEST PUSH1 0x0 DUP2 DUP2 MSTORE PUSH1 0x7 PUSH1 0x20 MSTORE PUSH1 0x40 SWAP1 KECCAK256 SLOAD PUSH1 0x1 PUSH1 0x1 PUSH1 0xA0 SHL SUB AND CALLER EQ PUSH2 0x226 JUMPI PUSH1 0x40 MLOAD PUSH3 0x461BCD PUSH1 0xE5 SHL DUP2 MSTORE PUSH1 0x20 PUSH1 0x4 DUP3 ADD MSTORE PUSH1 0x13 PUSH1 0x24 DUP3 ADD MSTORE PUSH19 0x3AB730BABA3437B934BD32B21031B0B63632B9 PUSH1 0x69 SHL PUSH1 0x44 DUP3 ADD MSTORE PUSH1 0x64 ADD JUMPDEST PUSH1 0x40 MLOAD DUP1 SWAP2 SUB SWAP1 REVERT JUMPDEST PUSH1 0x3 SLOAD PUSH2 0x238 JUMPI PUSH2 0x236 DUP2 PUSH2 0x153B JUMP JUMPDEST POP JUMPDEST PUSH2 0x241 DUP2 PUSH2 0xF28 JUMP JUMPDEST POP JUMP JUMPDEST PUSH1 0x1 PUSH1 0x1 PUSH1 0xA0 SHL SUB DUP2 AND PUSH1 0x0 SWAP1 DUP2 MSTORE PUSH1 0x8 PUSH1 0x20 SWAP1 DUP2 MSTORE PUSH1 0x40 DUP1 DUP4 KECCAK256 DUP1 SLOAD DUP3 MLOAD DUP2 DUP6 MUL DUP2 ADD DUP6 ADD SWAP1 SWAP4 MSTORE DUP1 DUP4 MSTORE PUSH1 0x60 SWAP5 DUP6 SWAP5 SWAP1 SWAP4 SWAP3 SWAP2 SWAP1 DUP4 ADD DUP3 DUP3 DUP1 ISZERO PUSH2 0x2A9 JUMPI PUSH1 0x20 MUL DUP3 ADD SWAP2 SWAP1 PUSH1 0x0 MSTORE PUSH1 0x20 PUSH1 0x0 KECCAK256 SWAP1 JUMPDEST DUP2 SLOAD DUP2 MSTORE PUSH1 0x20 ADD SWAP1 PUSH1 0x1 ADD SWAP1 DUP1 DUP4 GT PUSH2 0x295 JUMPI JUMPDEST POP POP PUSH1 0x5 SLOAD SWAP4 SWAP5 POP PUSH1 0x0 SWAP3 POP POP POP JUMPDEST DUP2 DUP2 LT ISZERO PUSH2 0x38E JUMPI PUSH1 0x7 PUSH1 0x0 DUP5 DUP4 DUP2 MLOAD DUP2 LT PUSH2 0x2E4 JUMPI PUSH4 0x4E487B71 PUSH1 0xE0 SHL PUSH1 0x0 MSTORE PUSH1 0x32 PUSH1 0x4 MSTORE PUSH1 0x24 PUSH1 0x0 REVERT JUMPDEST PUSH1 0x20 SWAP1 DUP2 MUL SWAP2 SWAP1 SWAP2 ADD DUP2 ADD MLOAD DUP3 MSTORE DUP2 DUP2 ADD SWAP3 SWAP1 SWAP3 MSTORE PUSH1 0x40 SWAP1 DUP2 ADD PUSH1 0x0 KECCAK256 DUP2 MLOAD PUSH1 0xC0 DUP2 ADD DUP4 MSTORE DUP2 SLOAD PUSH1 0x1 PUSH1 0x1 PUSH1 0xA0 SHL SUB SWAP1 DUP2 AND DUP3 MSTORE PUSH1 0x1 DUP4 ADD SLOAD AND SWAP4 DUP2 ADD SWAP4 SWAP1 SWAP4 MSTORE PUSH1 0x2 DUP2 ADD SLOAD SWAP2 DUP4 ADD SWAP2 SWAP1 SWAP2 MSTORE PUSH1 0x3 DUP2 ADD SLOAD PUSH1 0x60 DUP4 ADD MSTORE PUSH1 0x4 DUP2 ADD SLOAD PUSH1 0x80 DUP4 ADD MSTORE PUSH1 0x5 ADD SLOAD PUSH1 0xA0 DUP3 ADD MSTORE DUP5 MLOAD DUP6 SWAP1 DUP4 SWAP1 DUP2 LT PUSH2 0x370 JUMPI PUSH4 0x4E487B71 PUSH1 0xE0 SHL PUSH1 0x0 MSTORE PUSH1 0x32 PUSH1 0x4 MSTORE PUSH1 0x24 PUSH1 0x0 REVERT JUMPDEST PUSH1 0x20 MUL PUSH1 0x20 ADD ADD DUP2 SWAP1 MSTORE POP DUP1 DUP1 PUSH2 0x386 SWAP1 PUSH2 0x2DBF JUMP JUMPDEST SWAP2 POP POP PUSH2 0x2B8 JUMP JUMPDEST POP SWAP2 SWAP5 SWAP4 POP POP POP POP JUMP JUMPDEST PUSH1 0x0 PUSH1 0x2 PUSH1 0x0 SLOAD EQ ISZERO PUSH2 0x3ED JUMPI PUSH1 0x40 MLOAD PUSH3 0x461BCD PUSH1 0xE5 SHL DUP2 MSTORE PUSH1 0x20 PUSH1 0x4 DUP3 ADD MSTORE PUSH1 0x1F PUSH1 0x24 DUP3 ADD MSTORE PUSH32 0x5265656E7472616E637947756172643A207265656E7472616E742063616C6C00 PUSH1 0x44 DUP3 ADD MSTORE PUSH1 0x64 ADD PUSH2 0x21D JUMP JUMPDEST PUSH1 0x2 PUSH1 0x0 SWAP1 DUP2 SSTORE PUSH1 0x1 PUSH1 0x1 PUSH1 0xA0 SHL SUB DUP4 DUP2 AND DUP3 MSTORE PUSH1 0x6 PUSH1 0x20 MSTORE PUSH1 0x40 SWAP2 DUP3 SWAP1 KECCAK256 SLOAD SWAP2 MLOAD PUSH4 0x70A08231 PUSH1 0xE0 SHL DUP2 MSTORE ADDRESS PUSH1 0x4 DUP3 ADD MSTORE DUP3 SWAP2 PUSH32 0x0 AND SWAP1 PUSH4 0x70A08231 SWAP1 PUSH1 0x24 ADD PUSH1 0x20 PUSH1 0x40 MLOAD DUP1 DUP4 SUB DUP2 DUP7 DUP1 EXTCODESIZE ISZERO DUP1 ISZERO PUSH2 0x465 JUMPI PUSH1 0x0 DUP1 REVERT JUMPDEST POP GAS STATICCALL ISZERO DUP1 ISZERO PUSH2 0x479 JUMPI RETURNDATASIZE PUSH1 0x0 DUP1 RETURNDATACOPY RETURNDATASIZE PUSH1 0x0 REVERT JUMPDEST POP POP POP POP PUSH1 0x40 MLOAD RETURNDATASIZE PUSH1 0x1F NOT PUSH1 0x1F DUP3 ADD AND DUP3 ADD DUP1 PUSH1 0x40 MSTORE POP DUP2 ADD SWAP1 PUSH2 0x49D SWAP2 SWAP1 PUSH2 0x2C86 JUMP JUMPDEST LT ISZERO DUP1 ISZERO PUSH2 0x4AB JUMPI POP PUSH1 0x0 DUP2 GT JUMPDEST PUSH2 0x4EE JUMPI PUSH1 0x40 MLOAD PUSH3 0x461BCD PUSH1 0xE5 SHL DUP2 MSTORE PUSH1 0x20 PUSH1 0x4 DUP3 ADD MSTORE PUSH1 0x14 PUSH1 0x24 DUP3 ADD MSTORE PUSH20 0x7A65726F2076616C756520617661696C61626C65 PUSH1 0x60 SHL PUSH1 0x44 DUP3 ADD MSTORE PUSH1 0x64 ADD PUSH2 0x21D JUMP JUMPDEST PUSH1 0x1 PUSH1 0x1 PUSH1 0xA0 SHL SUB DUP4 AND PUSH1 0x0 SWAP1 DUP2 MSTORE PUSH1 0x6 PUSH1 0x20 MSTORE PUSH1 0x40 DUP2 KECCAK256 DUP1 SLOAD DUP4 SWAP3 SWAP1 PUSH2 0x516 SWAP1 DUP5 SWAP1 PUSH2 0x2DA8 JUMP JUMPDEST SWAP1 SWAP2 SSTORE POP POP PUSH1 0x40 MLOAD PUSH4 0xA9059CBB PUSH1 0xE0 SHL DUP2 MSTORE PUSH1 0x1 PUSH1 0x1 PUSH1 0xA0 SHL SUB DUP5 DUP2 AND PUSH1 0x4 DUP4 ADD MSTORE PUSH1 0x24 DUP3 ADD DUP4 SWAP1 MSTORE PUSH1 0x0 SWAP2 PUSH32 0x0 SWAP1 SWAP2 AND SWAP1 PUSH4 0xA9059CBB SWAP1 PUSH1 0x44 ADD PUSH1 0x20 PUSH1 0x40 MLOAD DUP1 DUP4 SUB DUP2 PUSH1 0x0 DUP8 DUP1 EXTCODESIZE ISZERO DUP1 ISZERO PUSH2 0x58A JUMPI PUSH1 0x0 DUP1 REVERT JUMPDEST POP GAS CALL ISZERO DUP1 ISZERO PUSH2 0x59E JUMPI RETURNDATASIZE PUSH1 0x0 DUP1 RETURNDATACOPY RETURNDATASIZE PUSH1 0x0 REVERT JUMPDEST POP POP POP POP PUSH1 0x40 MLOAD RETURNDATASIZE PUSH1 0x1F NOT PUSH1 0x1F DUP3 ADD AND DUP3 ADD DUP1 PUSH1 0x40 MSTORE POP DUP2 ADD SWAP1 PUSH2 0x5C2 SWAP2 SWAP1 PUSH2 0x2C52 JUMP JUMPDEST SWAP1 POP DUP1 PUSH2 0x611 JUMPI PUSH1 0x40 MLOAD PUSH3 0x461BCD PUSH1 0xE5 SHL DUP2 MSTORE PUSH1 0x20 PUSH1 0x4 DUP3 ADD MSTORE PUSH1 0x19 PUSH1 0x24 DUP3 ADD MSTORE PUSH32 0x7472616E7366657220746F2063616C6C6572206661696C656400000000000000 PUSH1 0x44 DUP3 ADD MSTORE PUSH1 0x64 ADD PUSH2 0x21D JUMP JUMPDEST PUSH1 0x40 DUP1 MLOAD PUSH1 0x1 PUSH1 0x1 PUSH1 0xA0 SHL SUB DUP7 AND DUP2 MSTORE PUSH1 0x20 DUP2 ADD DUP5 SWAP1 MSTORE PUSH32 0x884EDAD9CE6FA2440D8A54CC123490EB96D2768479D49FF9C7366125A9424364 SWAP2 ADD PUSH1 0x40 MLOAD DUP1 SWAP2 SUB SWAP1 LOG1 PUSH1 0x1 SWAP3 POP POP POP JUMPDEST PUSH1 0x1 PUSH1 0x0 SSTORE SWAP2 SWAP1 POP JUMP JUMPDEST PUSH1 0x0 DUP2 DUP2 MSTORE PUSH1 0xA PUSH1 0x20 SWAP1 DUP2 MSTORE PUSH1 0x40 DUP1 DUP4 KECCAK256 DUP1 SLOAD DUP3 MLOAD DUP2 DUP6 MUL DUP2 ADD DUP6 ADD SWAP1 SWAP4 MSTORE DUP1 DUP4 MSTORE SWAP2 SWAP3 SWAP1 SWAP2 SWAP1 DUP4 ADD DUP3 DUP3 DUP1 ISZERO PUSH2 0x6BA JUMPI PUSH1 0x20 MUL DUP3 ADD SWAP2 SWAP1 PUSH1 0x0 MSTORE PUSH1 0x20 PUSH1 0x0 KECCAK256 SWAP1 JUMPDEST DUP2 SLOAD DUP2 MSTORE PUSH1 0x20 ADD SWAP1 PUSH1 0x1 ADD SWAP1 DUP1 DUP4 GT PUSH2 0x6A6 JUMPI JUMPDEST POP POP DUP4 MLOAD SWAP4 SWAP5 POP PUSH1 0x0 SWAP3 POP POP POP JUMPDEST DUP2 DUP2 LT ISZERO PUSH2 0x713 JUMPI PUSH2 0x700 DUP4 DUP3 DUP2 MLOAD DUP2 LT PUSH2 0x6F3 JUMPI PUSH4 0x4E487B71 PUSH1 0xE0 SHL PUSH1 0x0 MSTORE PUSH1 0x32 PUSH1 0x4 MSTORE PUSH1 0x24 PUSH1 0x0 REVERT JUMPDEST PUSH1 0x20 MUL PUSH1 0x20 ADD ADD MLOAD PUSH2 0x1DA8 JUMP JUMPDEST POP DUP1 PUSH2 0x70B DUP2 PUSH2 0x2DBF JUMP JUMPDEST SWAP2 POP POP PUSH2 0x6C8 JUMP JUMPDEST POP CALLER PUSH1 0x0 SWAP1 DUP2 MSTORE PUSH1 0x6 PUSH1 0x20 MSTORE PUSH1 0x40 SWAP1 KECCAK256 SLOAD ISZERO PUSH2 0x734 JUMPI PUSH2 0x732 CALLER PUSH2 0x398 JUMP JUMPDEST POP JUMPDEST POP POP POP JUMP JUMPDEST PUSH1 0x40 MLOAD PUSH4 0x332DACCF PUSH1 0xE0 SHL DUP2 MSTORE CALLER PUSH1 0x4 DUP3 ADD MSTORE PUSH1 0x0 SWAP1 PUSH32 0x0 PUSH1 0x1 PUSH1 0x1 PUSH1 0xA0 SHL SUB AND SWAP1 PUSH4 0x332DACCF SWAP1 PUSH1 0x24 ADD PUSH1 0x20 PUSH1 0x40 MLOAD DUP1 DUP4 SUB DUP2 DUP7 DUP1 EXTCODESIZE ISZERO DUP1 ISZERO PUSH2 0x79B JUMPI PUSH1 0x0 DUP1 REVERT JUMPDEST POP GAS STATICCALL ISZERO DUP1 ISZERO PUSH2 0x7AF JUMPI RETURNDATASIZE PUSH1 0x0 DUP1 RETURNDATACOPY RETURNDATASIZE PUSH1 0x0 REVERT JUMPDEST POP POP POP POP PUSH1 0x40 MLOAD RETURNDATASIZE PUSH1 0x1F NOT PUSH1 0x1F DUP3 ADD AND DUP3 ADD DUP1 PUSH1 0x40 MSTORE POP DUP2 ADD SWAP1 PUSH2 0x7D3 SWAP2 SWAP1 PUSH2 0x2C52 JUMP JUMPDEST ISZERO PUSH2 0x80C JUMPI PUSH1 0x40 MLOAD PUSH3 0x461BCD PUSH1 0xE5 SHL DUP2 MSTORE PUSH1 0x20 PUSH1 0x4 DUP3 ADD MSTORE PUSH1 0x9 PUSH1 0x24 DUP3 ADD MSTORE PUSH9 0x189B1858DADB1A5CDD PUSH1 0xBA SHL PUSH1 0x44 DUP3 ADD MSTORE PUSH1 0x64 ADD PUSH2 0x21D JUMP JUMPDEST PUSH1 0x3 SLOAD ISZERO PUSH2 0x850 JUMPI PUSH1 0x40 MLOAD PUSH3 0x461BCD PUSH1 0xE5 SHL DUP2 MSTORE PUSH1 0x20 PUSH1 0x4 DUP3 ADD MSTORE PUSH1 0x11 PUSH1 0x24 DUP3 ADD MSTORE PUSH17 0x6D61726B6574206E6F7420616374697665 PUSH1 0x78 SHL PUSH1 0x44 DUP3 ADD MSTORE PUSH1 0x64 ADD PUSH2 0x21D JUMP JUMPDEST DUP3 PUSH1 0x1 EQ DUP1 PUSH2 0x85F JUMPI POP DUP3 PUSH1 0x2 EQ JUMPDEST PUSH2 0x89A JUMPI PUSH1 0x40 MLOAD PUSH3 0x461BCD PUSH1 0xE5 SHL DUP2 MSTORE PUSH1 0x20 PUSH1 0x4 DUP3 ADD MSTORE PUSH1 0xC PUSH1 0x24 DUP3 ADD MSTORE PUSH12 0x696E76616C69642073696465 PUSH1 0xA0 SHL PUSH1 0x44 DUP3 ADD MSTORE PUSH1 0x64 ADD PUSH2 0x21D JUMP JUMPDEST PUSH1 0x40 MLOAD PUSH4 0x70A08231 PUSH1 0xE0 SHL DUP2 MSTORE CALLER PUSH1 0x4 DUP3 ADD MSTORE DUP6 SWAP1 PUSH32 0x0 PUSH1 0x1 PUSH1 0x1 PUSH1 0xA0 SHL SUB AND SWAP1 PUSH4 0x70A08231 SWAP1 PUSH1 0x24 ADD PUSH1 0x20 PUSH1 0x40 MLOAD DUP1 DUP4 SUB DUP2 DUP7 DUP1 EXTCODESIZE ISZERO DUP1 ISZERO PUSH2 0x8FB JUMPI PUSH1 0x0 DUP1 REVERT JUMPDEST POP GAS STATICCALL ISZERO DUP1 ISZERO PUSH2 0x90F JUMPI RETURNDATASIZE PUSH1 0x0 DUP1 RETURNDATACOPY RETURNDATASIZE PUSH1 0x0 REVERT JUMPDEST POP POP POP POP PUSH1 0x40 MLOAD RETURNDATASIZE PUSH1 0x1F NOT PUSH1 0x1F DUP3 ADD AND DUP3 ADD DUP1 PUSH1 0x40 MSTORE POP DUP2 ADD SWAP1 PUSH2 0x933 SWAP2 SWAP1 PUSH2 0x2C86 JUMP JUMPDEST LT ISZERO PUSH2 0x981 JUMPI PUSH1 0x40 MLOAD PUSH3 0x461BCD PUSH1 0xE5 SHL DUP2 MSTORE PUSH1 0x20 PUSH1 0x4 DUP3 ADD MSTORE PUSH1 0x19 PUSH1 0x24 DUP3 ADD MSTORE PUSH32 0x6E6F7420656E6F75676820746F6B656E2062616C616C6E636500000000000000 PUSH1 0x44 DUP3 ADD MSTORE PUSH1 0x64 ADD PUSH2 0x21D JUMP JUMPDEST PUSH1 0x40 MLOAD PUSH4 0x6EB1769F PUSH1 0xE1 SHL DUP2 MSTORE CALLER PUSH1 0x4 DUP3 ADD MSTORE ADDRESS PUSH1 0x24 DUP3 ADD MSTORE DUP6 SWAP1 PUSH32 0x0 PUSH1 0x1 PUSH1 0x1 PUSH1 0xA0 SHL SUB AND SWAP1 PUSH4 0xDD62ED3E SWAP1 PUSH1 0x44 ADD PUSH1 0x20 PUSH1 0x40 MLOAD DUP1 DUP4 SUB DUP2 DUP7 DUP1 EXTCODESIZE ISZERO DUP1 ISZERO PUSH2 0x9E8 JUMPI PUSH1 0x0 DUP1 REVERT JUMPDEST POP GAS STATICCALL ISZERO DUP1 ISZERO PUSH2 0x9FC JUMPI RETURNDATASIZE PUSH1 0x0 DUP1 RETURNDATACOPY RETURNDATASIZE PUSH1 0x0 REVERT JUMPDEST POP POP POP POP PUSH1 0x40 MLOAD RETURNDATASIZE PUSH1 0x1F NOT PUSH1 0x1F DUP3 ADD AND DUP3 ADD DUP1 PUSH1 0x40 MSTORE POP DUP2 ADD SWAP1 PUSH2 0xA20 SWAP2 SWAP1 PUSH2 0x2C86 JUMP JUMPDEST LT ISZERO PUSH2 0xA65 JUMPI PUSH1 0x40 MLOAD PUSH3 0x461BCD PUSH1 0xE5 SHL DUP2 MSTORE PUSH1 0x20 PUSH1 0x4 DUP3 ADD MSTORE PUSH1 0x14 PUSH1 0x24 DUP3 ADD MSTORE PUSH20 0x6E6F7420656E6F75676820616C6C6F77616E6365 PUSH1 0x60 SHL PUSH1 0x44 DUP3 ADD MSTORE PUSH1 0x64 ADD PUSH2 0x21D JUMP JUMPDEST PUSH32 0x0 PUSH1 0x1 PUSH1 0x1 PUSH1 0xA0 SHL SUB AND PUSH4 0x375B3C0A PUSH1 0x40 MLOAD DUP2 PUSH4 0xFFFFFFFF AND PUSH1 0xE0 SHL DUP2 MSTORE PUSH1 0x4 ADD PUSH1 0x20 PUSH1 0x40 MLOAD DUP1 DUP4 SUB DUP2 DUP7 DUP1 EXTCODESIZE ISZERO DUP1 ISZERO PUSH2 0xABE JUMPI PUSH1 0x0 DUP1 REVERT JUMPDEST POP GAS STATICCALL ISZERO DUP1 ISZERO PUSH2 0xAD2 JUMPI RETURNDATASIZE PUSH1 0x0 DUP1 RETURNDATACOPY RETURNDATASIZE PUSH1 0x0 REVERT JUMPDEST POP POP POP POP PUSH1 0x40 MLOAD RETURNDATASIZE PUSH1 0x1F NOT PUSH1 0x1F DUP3 ADD AND DUP3 ADD DUP1 PUSH1 0x40 MSTORE POP DUP2 ADD SWAP1 PUSH2 0xAF6 SWAP2 SWAP1 PUSH2 0x2C86 JUMP JUMPDEST DUP6 LT ISZERO PUSH2 0xB3B JUMPI PUSH1 0x40 MLOAD PUSH3 0x461BCD PUSH1 0xE5 SHL DUP2 MSTORE PUSH1 0x20 PUSH1 0x4 DUP3 ADD MSTORE PUSH1 0x13 PUSH1 0x24 DUP3 ADD MSTORE PUSH19 0x6C657373207468616E206D696E207374616B65 PUSH1 0x68 SHL PUSH1 0x44 DUP3 ADD MSTORE PUSH1 0x64 ADD PUSH2 0x21D JUMP JUMPDEST PUSH1 0x40 MLOAD PUSH4 0x23B872DD PUSH1 0xE0 SHL DUP2 MSTORE CALLER PUSH1 0x4 DUP3 ADD MSTORE ADDRESS PUSH1 0x24 DUP3 ADD MSTORE PUSH1 0x44 DUP2 ADD DUP7 SWAP1 MSTORE PUSH32 0x0 PUSH1 0x1 PUSH1 0x1 PUSH1 0xA0 SHL SUB AND SWAP1 PUSH4 0x23B872DD SWAP1 PUSH1 0x64 ADD PUSH1 0x20 PUSH1 0x40 MLOAD DUP1 DUP4 SUB DUP2 PUSH1 0x0 DUP8 DUP1 EXTCODESIZE ISZERO DUP1 ISZERO PUSH2 0xBA9 JUMPI PUSH1 0x0 DUP1 REVERT JUMPDEST POP GAS CALL ISZERO DUP1 ISZERO PUSH2 0xBBD JUMPI RETURNDATASIZE PUSH1 0x0 DUP1 RETURNDATACOPY RETURNDATASIZE PUSH1 0x0 REVERT JUMPDEST POP POP POP POP PUSH1 0x40 MLOAD RETURNDATASIZE PUSH1 0x1F NOT PUSH1 0x1F DUP3 ADD AND DUP3 ADD DUP1 PUSH1 0x40 MSTORE POP DUP2 ADD SWAP1 PUSH2 0xBE1 SWAP2 SWAP1 PUSH2 0x2C52 JUMP JUMPDEST PUSH2 0xC2D JUMPI PUSH1 0x40 MLOAD PUSH3 0x461BCD PUSH1 0xE5 SHL DUP2 MSTORE PUSH1 0x20 PUSH1 0x4 DUP3 ADD MSTORE PUSH1 0x1B PUSH1 0x24 DUP3 ADD MSTORE PUSH32 0x7472616E736665722066726F6D2063616C6C6572206661696C65640000000000 PUSH1 0x44 DUP3 ADD MSTORE PUSH1 0x64 ADD PUSH2 0x21D JUMP JUMPDEST PUSH1 0x0 PUSH2 0xC5C DUP9 DUP9 DUP9 DUP5 PUSH2 0xC41 PUSH1 0x64 DUP12 PUSH2 0x2DA8 JUMP JUMPDEST PUSH2 0xC4C DUP12 PUSH1 0x64 PUSH2 0x2D89 JUMP JUMPDEST PUSH2 0xC56 SWAP2 SWAP1 PUSH2 0x2D69 JUMP JUMPDEST DUP10 PUSH2 0x264A JUMP JUMPDEST PUSH1 0x5 SLOAD SWAP1 SWAP2 POP ISZERO PUSH2 0xEC8 JUMPI PUSH1 0x5 SLOAD DUP7 SWAP1 JUMPDEST PUSH32 0x0 PUSH1 0x1 PUSH1 0x1 PUSH1 0xA0 SHL SUB AND PUSH4 0x375B3C0A PUSH1 0x40 MLOAD DUP2 PUSH4 0xFFFFFFFF AND PUSH1 0xE0 SHL DUP2 MSTORE PUSH1 0x4 ADD PUSH1 0x20 PUSH1 0x40 MLOAD DUP1 DUP4 SUB DUP2 DUP7 DUP1 EXTCODESIZE ISZERO DUP1 ISZERO PUSH2 0xCC6 JUMPI PUSH1 0x0 DUP1 REVERT JUMPDEST POP GAS STATICCALL ISZERO DUP1 ISZERO PUSH2 0xCDA JUMPI RETURNDATASIZE PUSH1 0x0 DUP1 RETURNDATACOPY RETURNDATASIZE PUSH1 0x0 REVERT JUMPDEST POP POP POP POP PUSH1 0x40 MLOAD RETURNDATASIZE PUSH1 0x1F NOT PUSH1 0x1F DUP3 ADD AND DUP3 ADD DUP1 PUSH1 0x40 MSTORE POP DUP2 ADD SWAP1 PUSH2 0xCFE SWAP2 SWAP1 PUSH2 0x2C86 JUMP JUMPDEST DUP3 LT PUSH2 0xEC5 JUMPI PUSH1 0x0 DUP1 PUSH1 0x0 JUMPDEST DUP4 DUP2 LT ISZERO PUSH2 0xDAE JUMPI PUSH1 0x0 PUSH1 0x5 DUP3 DUP2 SLOAD DUP2 LT PUSH2 0xD35 JUMPI PUSH4 0x4E487B71 PUSH1 0xE0 SHL PUSH1 0x0 MSTORE PUSH1 0x32 PUSH1 0x4 MSTORE PUSH1 0x24 PUSH1 0x0 REVERT JUMPDEST SWAP1 PUSH1 0x0 MSTORE PUSH1 0x20 PUSH1 0x0 KECCAK256 ADD SLOAD SWAP1 POP PUSH1 0x7 PUSH1 0x0 DUP3 DUP2 MSTORE PUSH1 0x20 ADD SWAP1 DUP2 MSTORE PUSH1 0x20 ADD PUSH1 0x0 KECCAK256 PUSH1 0x5 ADD SLOAD DUP11 EQ ISZERO PUSH2 0xD66 JUMPI POP PUSH2 0xD9C JUMP JUMPDEST PUSH1 0x0 DUP2 DUP2 MSTORE PUSH1 0x7 PUSH1 0x20 MSTORE PUSH1 0x40 SWAP1 KECCAK256 PUSH1 0x4 ADD SLOAD DUP4 LT ISZERO PUSH2 0xD9A JUMPI PUSH1 0x0 DUP2 DUP2 MSTORE PUSH1 0x7 PUSH1 0x20 MSTORE PUSH1 0x40 SWAP1 KECCAK256 PUSH1 0x4 ADD SLOAD SWAP2 SWAP4 POP SWAP1 SWAP2 POP DUP3 SWAP1 JUMPDEST POP JUMPDEST DUP1 PUSH2 0xDA6 DUP2 PUSH2 0x2DBF JUMP JUMPDEST SWAP2 POP POP PUSH2 0xD0A JUMP JUMPDEST POP PUSH1 0x0 DUP10 DUP3 GT DUP1 PUSH2 0xDC7 JUMPI POP PUSH1 0x0 DUP3 GT DUP1 ISZERO PUSH2 0xDC7 JUMPI POP DUP8 JUMPDEST ISZERO PUSH2 0xEA9 JUMPI PUSH1 0x0 PUSH1 0x5 DUP5 DUP2 SLOAD DUP2 LT PUSH2 0xDEF JUMPI PUSH4 0x4E487B71 PUSH1 0xE0 SHL PUSH1 0x0 MSTORE PUSH1 0x32 PUSH1 0x4 MSTORE PUSH1 0x24 PUSH1 0x0 REVERT JUMPDEST PUSH1 0x0 SWAP2 DUP3 MSTORE PUSH1 0x20 DUP1 DUP4 KECCAK256 SWAP1 SWAP2 ADD SLOAD DUP1 DUP4 MSTORE PUSH1 0x7 DUP3 MSTORE PUSH1 0x40 DUP1 DUP5 KECCAK256 DUP2 MLOAD PUSH1 0xC0 DUP2 ADD DUP4 MSTORE DUP2 SLOAD PUSH1 0x1 PUSH1 0x1 PUSH1 0xA0 SHL SUB SWAP1 DUP2 AND DUP3 MSTORE PUSH1 0x1 DUP4 ADD SLOAD AND SWAP5 DUP2 ADD SWAP5 SWAP1 SWAP5 MSTORE PUSH1 0x2 DUP2 ADD SLOAD SWAP2 DUP5 ADD SWAP2 SWAP1 SWAP2 MSTORE PUSH1 0x3 DUP2 ADD SLOAD PUSH1 0x60 DUP5 ADD MSTORE PUSH1 0x4 DUP2 ADD SLOAD PUSH1 0x80 DUP5 ADD MSTORE PUSH1 0x5 ADD SLOAD PUSH1 0xA0 DUP4 ADD MSTORE SWAP3 POP SWAP1 PUSH2 0xE64 PUSH1 0x64 DUP15 PUSH2 0x2DA8 JUMP JUMPDEST DUP3 PUSH1 0x60 ADD MLOAD DUP4 PUSH1 0x40 ADD MLOAD PUSH2 0xE78 SWAP2 SWAP1 PUSH2 0x2DA8 JUMP JUMPDEST PUSH2 0xE82 SWAP2 SWAP1 PUSH2 0x2D69 JUMP JUMPDEST SWAP1 POP PUSH2 0xE8F PUSH1 0x64 DUP3 PUSH2 0x2D89 JUMP JUMPDEST SWAP1 POP PUSH2 0xE9F DUP15 DUP3 DUP16 DUP16 DUP14 DUP9 PUSH2 0x2874 JUMP JUMPDEST SWAP4 POP POP POP POP PUSH2 0xEB1 JUMP JUMPDEST POP POP POP PUSH2 0xEC5 JUMP JUMPDEST PUSH2 0xEBB DUP2 DUP7 PUSH2 0x2DA8 JUMP JUMPDEST SWAP5 POP POP POP POP PUSH2 0xC6D JUMP JUMPDEST POP POP JUMPDEST PUSH1 0x40 DUP1 MLOAD CALLER DUP2 MSTORE ADDRESS PUSH1 0x20 DUP3 ADD MSTORE SWAP1 DUP2 ADD DUP3 SWAP1 MSTORE PUSH1 0x60 DUP2 ADD DUP8 SWAP1 MSTORE PUSH1 0x80 DUP2 ADD DUP7 SWAP1 MSTORE PUSH1 0xA0 DUP2 ADD DUP6 SWAP1 MSTORE PUSH32 0x618F358BB45538682ADE624A4A1959053D9DABD20FE300508034B879681B37BE SWAP1 PUSH1 0xC0 ADD PUSH1 0x40 MLOAD DUP1 SWAP2 SUB SWAP1 LOG1 SWAP8 SWAP7 POP POP POP POP POP POP POP JUMP JUMPDEST PUSH1 0x0 DUP2 DUP2 MSTORE PUSH1 0x7 PUSH1 0x20 SWAP1 DUP2 MSTORE PUSH1 0x40 SWAP2 DUP3 SWAP1 KECCAK256 DUP3 MLOAD PUSH1 0xC0 DUP2 ADD DUP5 MSTORE DUP2 SLOAD PUSH1 0x1 PUSH1 0x1 PUSH1 0xA0 SHL SUB SWAP1 DUP2 AND DUP1 DUP4 MSTORE PUSH1 0x1 DUP5 ADD SLOAD SWAP1 SWAP2 AND SWAP4 DUP3 ADD SWAP4 SWAP1 SWAP4 MSTORE PUSH1 0x2 DUP3 ADD SLOAD SWAP4 DUP2 ADD SWAP4 SWAP1 SWAP4 MSTORE PUSH1 0x3 DUP2 ADD SLOAD PUSH1 0x60 DUP5 ADD MSTORE PUSH1 0x4 DUP2 ADD SLOAD PUSH1 0x80 DUP5 ADD MSTORE PUSH1 0x5 ADD SLOAD PUSH1 0xA0 DUP4 ADD MSTORE CALLER EQ PUSH2 0xFCE JUMPI PUSH1 0x40 MLOAD PUSH3 0x461BCD PUSH1 0xE5 SHL DUP2 MSTORE PUSH1 0x20 PUSH1 0x4 DUP3 ADD MSTORE PUSH1 0x13 PUSH1 0x24 DUP3 ADD MSTORE PUSH19 0x3AB730BABA3437B934BD32B21031B0B63632B9 PUSH1 0x69 SHL PUSH1 0x44 DUP3 ADD MSTORE PUSH1 0x64 ADD PUSH2 0x21D JUMP JUMPDEST PUSH1 0x0 DUP2 PUSH1 0x60 ADD MLOAD DUP3 PUSH1 0x40 ADD MLOAD PUSH2 0xFE4 SWAP2 SWAP1 PUSH2 0x2DA8 JUMP JUMPDEST DUP3 MLOAD PUSH1 0x1 PUSH1 0x1 PUSH1 0xA0 SHL SUB AND PUSH1 0x0 SWAP1 DUP2 MSTORE PUSH1 0x6 PUSH1 0x20 MSTORE PUSH1 0x40 DUP2 KECCAK256 DUP1 SLOAD SWAP3 SWAP4 POP DUP4 SWAP3 SWAP1 SWAP2 SWAP1 PUSH2 0x1012 SWAP1 DUP5 SWAP1 PUSH2 0x2D51 JUMP JUMPDEST SWAP1 SWAP2 SSTORE POP POP PUSH1 0x40 DUP1 DUP4 ADD MLOAD PUSH1 0x0 DUP6 DUP2 MSTORE PUSH1 0x7 PUSH1 0x20 SWAP1 DUP2 MSTORE DUP4 DUP3 KECCAK256 PUSH1 0x3 ADD SWAP3 SWAP1 SWAP3 SSTORE CALLER DUP2 MSTORE PUSH1 0x6 SWAP1 SWAP2 MSTORE KECCAK256 SLOAD ISZERO PUSH2 0x734 JUMPI PUSH2 0x732 CALLER PUSH2 0x398 JUMP JUMPDEST PUSH1 0x1 SLOAD PUSH1 0x0 SWAP1 PUSH1 0x1 PUSH1 0x1 PUSH1 0xA0 SHL SUB AND CALLER EQ DUP1 PUSH2 0x1108 JUMPI POP PUSH32 0x0 PUSH1 0x1 PUSH1 0x1 PUSH1 0xA0 SHL SUB AND PUSH4 0xCE606EE0 PUSH1 0x40 MLOAD DUP2 PUSH4 0xFFFFFFFF AND PUSH1 0xE0 SHL DUP2 MSTORE PUSH1 0x4 ADD PUSH1 0x20 PUSH1 0x40 MLOAD DUP1 DUP4 SUB DUP2 DUP7 DUP1 EXTCODESIZE ISZERO DUP1 ISZERO PUSH2 0x10BB JUMPI PUSH1 0x0 DUP1 REVERT JUMPDEST POP GAS STATICCALL ISZERO DUP1 ISZERO PUSH2 0x10CF JUMPI RETURNDATASIZE PUSH1 0x0 DUP1 RETURNDATACOPY RETURNDATASIZE PUSH1 0x0 REVERT JUMPDEST POP POP POP POP PUSH1 0x40 MLOAD RETURNDATASIZE PUSH1 0x1F NOT PUSH1 0x1F DUP3 ADD AND DUP3 ADD DUP1 PUSH1 0x40 MSTORE POP DUP2 ADD SWAP1 PUSH2 0x10F3 SWAP2 SWAP1 PUSH2 0x2BD0 JUMP JUMPDEST PUSH1 0x1 PUSH1 0x1 PUSH1 0xA0 SHL SUB AND CALLER PUSH1 0x1 PUSH1 0x1 PUSH1 0xA0 SHL SUB AND EQ JUMPDEST DUP1 PUSH2 0x111D JUMPI POP PUSH1 0x2 SLOAD PUSH1 0x1 PUSH1 0x1 PUSH1 0xA0 SHL SUB AND CALLER EQ JUMPDEST PUSH2 0x1139 JUMPI PUSH1 0x40 MLOAD PUSH3 0x461BCD PUSH1 0xE5 SHL DUP2 MSTORE PUSH1 0x4 ADD PUSH2 0x21D SWAP1 PUSH2 0x2D22 JUMP JUMPDEST PUSH2 0x1142 DUP3 PUSH2 0x12B4 JUMP JUMPDEST ISZERO PUSH2 0x11A6 JUMPI PUSH1 0x4 SLOAD PUSH1 0x0 JUMPDEST DUP2 DUP2 LT ISZERO PUSH2 0x119C JUMPI PUSH2 0x1189 PUSH1 0x4 DUP3 DUP2 SLOAD DUP2 LT PUSH2 0x1179 JUMPI PUSH4 0x4E487B71 PUSH1 0xE0 SHL PUSH1 0x0 MSTORE PUSH1 0x32 PUSH1 0x4 MSTORE PUSH1 0x24 PUSH1 0x0 REVERT JUMPDEST SWAP1 PUSH1 0x0 MSTORE PUSH1 0x20 PUSH1 0x0 KECCAK256 ADD SLOAD PUSH2 0x1DA8 JUMP JUMPDEST POP DUP1 PUSH2 0x1194 DUP2 PUSH2 0x2DBF JUMP JUMPDEST SWAP2 POP POP PUSH2 0x114D JUMP JUMPDEST POP PUSH1 0x1 SWAP4 SWAP3 POP POP POP JUMP JUMPDEST POP PUSH1 0x0 SWAP2 SWAP1 POP JUMP JUMPDEST PUSH1 0x1 SLOAD PUSH1 0x0 SWAP1 PUSH1 0x1 PUSH1 0x1 PUSH1 0xA0 SHL SUB AND CALLER EQ DUP1 PUSH2 0x126B JUMPI POP PUSH32 0x0 PUSH1 0x1 PUSH1 0x1 PUSH1 0xA0 SHL SUB AND PUSH4 0xCE606EE0 PUSH1 0x40 MLOAD DUP2 PUSH4 0xFFFFFFFF AND PUSH1 0xE0 SHL DUP2 MSTORE PUSH1 0x4 ADD PUSH1 0x20 PUSH1 0x40 MLOAD DUP1 DUP4 SUB DUP2 DUP7 DUP1 EXTCODESIZE ISZERO DUP1 ISZERO PUSH2 0x121E JUMPI PUSH1 0x0 DUP1 REVERT JUMPDEST POP GAS STATICCALL ISZERO DUP1 ISZERO PUSH2 0x1232 JUMPI RETURNDATASIZE PUSH1 0x0 DUP1 RETURNDATACOPY RETURNDATASIZE PUSH1 0x0 REVERT JUMPDEST POP POP POP POP PUSH1 0x40 MLOAD RETURNDATASIZE PUSH1 0x1F NOT PUSH1 0x1F DUP3 ADD AND DUP3 ADD DUP1 PUSH1 0x40 MSTORE POP DUP2 ADD SWAP1 PUSH2 0x1256 SWAP2 SWAP1 PUSH2 0x2BD0 JUMP JUMPDEST PUSH1 0x1 PUSH1 0x1 PUSH1 0xA0 SHL SUB AND CALLER PUSH1 0x1 PUSH1 0x1 PUSH1 0xA0 SHL SUB AND EQ JUMPDEST DUP1 PUSH2 0x1280 JUMPI POP PUSH1 0x2 SLOAD PUSH1 0x1 PUSH1 0x1 PUSH1 0xA0 SHL SUB AND CALLER EQ JUMPDEST PUSH2 0x129C JUMPI PUSH1 0x40 MLOAD PUSH3 0x461BCD PUSH1 0xE5 SHL DUP2 MSTORE PUSH1 0x4 ADD PUSH2 0x21D SWAP1 PUSH2 0x2D22 JUMP JUMPDEST PUSH1 0x3 SLOAD PUSH2 0x12AE JUMPI POP PUSH1 0x4 PUSH1 0x3 SSTORE PUSH1 0x1 SWAP1 JUMP JUMPDEST POP PUSH1 0x0 SWAP1 JUMP JUMPDEST PUSH1 0x1 SLOAD PUSH1 0x0 SWAP1 PUSH1 0x1 PUSH1 0x1 PUSH1 0xA0 SHL SUB AND CALLER EQ DUP1 PUSH2 0x1371 JUMPI POP PUSH32 0x0 PUSH1 0x1 PUSH1 0x1 PUSH1 0xA0 SHL SUB AND PUSH4 0xCE606EE0 PUSH1 0x40 MLOAD DUP2 PUSH4 0xFFFFFFFF AND PUSH1 0xE0 SHL DUP2 MSTORE PUSH1 0x4 ADD PUSH1 0x20 PUSH1 0x40 MLOAD DUP1 DUP4 SUB DUP2 DUP7 DUP1 EXTCODESIZE ISZERO DUP1 ISZERO PUSH2 0x1324 JUMPI PUSH1 0x0 DUP1 REVERT JUMPDEST POP GAS STATICCALL ISZERO DUP1 ISZERO PUSH2 0x1338 JUMPI RETURNDATASIZE PUSH1 0x0 DUP1 RETURNDATACOPY RETURNDATASIZE PUSH1 0x0 REVERT JUMPDEST POP POP POP POP PUSH1 0x40 MLOAD RETURNDATASIZE PUSH1 0x1F NOT PUSH1 0x1F DUP3 ADD AND DUP3 ADD DUP1 PUSH1 0x40 MSTORE POP DUP2 ADD SWAP1 PUSH2 0x135C SWAP2 SWAP1 PUSH2 0x2BD0 JUMP JUMPDEST PUSH1 0x1 PUSH1 0x1 PUSH1 0xA0 SHL SUB AND CALLER PUSH1 0x1 PUSH1 0x1 PUSH1 0xA0 SHL SUB AND EQ JUMPDEST DUP1 PUSH2 0x1386 JUMPI POP PUSH1 0x2 SLOAD PUSH1 0x1 PUSH1 0x1 PUSH1 0xA0 SHL SUB AND CALLER EQ JUMPDEST PUSH2 0x13A2 JUMPI PUSH1 0x40 MLOAD PUSH3 0x461BCD PUSH1 0xE5 SHL DUP2 MSTORE PUSH1 0x4 ADD PUSH2 0x21D SWAP1 PUSH2 0x2D22 JUMP JUMPDEST PUSH1 0x3 SLOAD ISZERO DUP1 PUSH2 0x13B3 JUMPI POP PUSH1 0x3 SLOAD PUSH1 0x4 EQ JUMPDEST DUP1 ISZERO PUSH2 0x13C9 JUMPI POP DUP2 PUSH1 0x1 EQ DUP1 PUSH2 0x13C9 JUMPI POP DUP2 PUSH1 0x2 EQ JUMPDEST ISZERO PUSH2 0x11A6 JUMPI POP PUSH1 0x3 SSTORE PUSH1 0x1 SWAP1 JUMP JUMPDEST PUSH1 0x1 SLOAD PUSH1 0x0 SWAP1 PUSH1 0x1 PUSH1 0x1 PUSH1 0xA0 SHL SUB AND CALLER EQ DUP1 PUSH2 0x1494 JUMPI POP PUSH32 0x0 PUSH1 0x1 PUSH1 0x1 PUSH1 0xA0 SHL SUB AND PUSH4 0xCE606EE0 PUSH1 0x40 MLOAD DUP2 PUSH4 0xFFFFFFFF AND PUSH1 0xE0 SHL DUP2 MSTORE PUSH1 0x4 ADD PUSH1 0x20 PUSH1 0x40 MLOAD DUP1 DUP4 SUB DUP2 DUP7 DUP1 EXTCODESIZE ISZERO DUP1 ISZERO PUSH2 0x1447 JUMPI PUSH1 0x0 DUP1 REVERT JUMPDEST POP GAS STATICCALL ISZERO DUP1 ISZERO PUSH2 0x145B JUMPI RETURNDATASIZE PUSH1 0x0 DUP1 RETURNDATACOPY RETURNDATASIZE PUSH1 0x0 REVERT JUMPDEST POP POP POP POP PUSH1 0x40 MLOAD RETURNDATASIZE PUSH1 0x1F NOT PUSH1 0x1F DUP3 ADD AND DUP3 ADD DUP1 PUSH1 0x40 MSTORE POP DUP2 ADD SWAP1 PUSH2 0x147F SWAP2 SWAP1 PUSH2 0x2BD0 JUMP JUMPDEST PUSH1 0x1 PUSH1 0x1 PUSH1 0xA0 SHL SUB AND CALLER PUSH1 0x1 PUSH1 0x1 PUSH1 0xA0 SHL SUB AND EQ JUMPDEST DUP1 PUSH2 0x14A9 JUMPI POP PUSH1 0x2 SLOAD PUSH1 0x1 PUSH1 0x1 PUSH1 0xA0 SHL SUB AND CALLER EQ JUMPDEST PUSH2 0x14C5 JUMPI PUSH1 0x40 MLOAD PUSH3 0x461BCD PUSH1 0xE5 SHL DUP2 MSTORE PUSH1 0x4 ADD PUSH2 0x21D SWAP1 PUSH2 0x2D22 JUMP JUMPDEST PUSH1 0x3 SLOAD ISZERO DUP1 PUSH2 0x14D6 JUMPI POP PUSH1 0x3 SLOAD PUSH1 0x4 EQ JUMPDEST ISZERO PUSH2 0x12AE JUMPI PUSH1 0x4 SLOAD PUSH1 0x0 JUMPDEST DUP2 DUP2 LT ISZERO PUSH2 0x152F JUMPI PUSH2 0x151D PUSH1 0x4 DUP3 DUP2 SLOAD DUP2 LT PUSH2 0x150D JUMPI PUSH4 0x4E487B71 PUSH1 0xE0 SHL PUSH1 0x0 MSTORE PUSH1 0x32 PUSH1 0x4 MSTORE PUSH1 0x24 PUSH1 0x0 REVERT JUMPDEST SWAP1 PUSH1 0x0 MSTORE PUSH1 0x20 PUSH1 0x0 KECCAK256 ADD SLOAD PUSH2 0x29C2 JUMP JUMPDEST DUP1 PUSH2 0x1527 DUP2 PUSH2 0x2DBF JUMP JUMPDEST SWAP2 POP POP PUSH2 0x14E1 JUMP JUMPDEST POP POP PUSH1 0x3 DUP1 SSTORE POP PUSH1 0x1 SWAP1 JUMP JUMPDEST PUSH1 0x0 DUP2 DUP2 MSTORE PUSH1 0x7 PUSH1 0x20 SWAP1 DUP2 MSTORE PUSH1 0x40 DUP1 DUP4 KECCAK256 DUP2 MLOAD PUSH1 0xC0 DUP2 ADD DUP4 MSTORE DUP2 SLOAD PUSH1 0x1 PUSH1 0x1 PUSH1 0xA0 SHL SUB SWAP1 DUP2 AND DUP3 MSTORE PUSH1 0x1 DUP4 ADD SLOAD AND DUP2 DUP6 ADD MSTORE PUSH1 0x2 DUP3 ADD SLOAD DUP2 DUP5 ADD MSTORE PUSH1 0x3 DUP3 ADD SLOAD PUSH1 0x60 DUP3 ADD MSTORE PUSH1 0x4 DUP3 ADD SLOAD PUSH1 0x80 DUP3 ADD MSTORE PUSH1 0x5 SWAP1 SWAP2 ADD SLOAD PUSH1 0xA0 DUP3 ADD MSTORE DUP5 DUP5 MSTORE PUSH1 0xA DUP4 MSTORE DUP2 DUP5 KECCAK256 DUP1 SLOAD DUP4 MLOAD DUP2 DUP7 MUL DUP2 ADD DUP7 ADD SWAP1 SWAP5 MSTORE DUP1 DUP5 MSTORE SWAP2 SWAP4 DUP6 SWAP4 SWAP3 SWAP1 DUP4 ADD DUP3 DUP3 DUP1 ISZERO PUSH2 0x15E5 JUMPI PUSH1 0x20 MUL DUP3 ADD SWAP2 SWAP1 PUSH1 0x0 MSTORE PUSH1 0x20 PUSH1 0x0 KECCAK256 SWAP1 JUMPDEST DUP2 SLOAD DUP2 MSTORE PUSH1 0x20 ADD SWAP1 PUSH1 0x1 ADD SWAP1 DUP1 DUP4 GT PUSH2 0x15D1 JUMPI JUMPDEST POP POP DUP4 MLOAD SWAP4 SWAP5 POP PUSH1 0x0 SWAP3 POP POP POP JUMPDEST DUP2 DUP2 LT ISZERO PUSH2 0x1D9C JUMPI PUSH1 0x0 DUP1 PUSH1 0x0 DUP1 DUP8 PUSH1 0xA0 ADD MLOAD PUSH1 0x1 EQ ISZERO PUSH2 0x16D3 JUMPI PUSH1 0x9 PUSH1 0x0 DUP9 DUP8 DUP2 MLOAD DUP2 LT PUSH2 0x1632 JUMPI PUSH4 0x4E487B71 PUSH1 0xE0 SHL PUSH1 0x0 MSTORE PUSH1 0x32 PUSH1 0x4 MSTORE PUSH1 0x24 PUSH1 0x0 REVERT JUMPDEST PUSH1 0x20 MUL PUSH1 0x20 ADD ADD MLOAD DUP2 MSTORE PUSH1 0x20 ADD SWAP1 DUP2 MSTORE PUSH1 0x20 ADD PUSH1 0x0 KECCAK256 PUSH1 0x2 ADD SLOAD SWAP2 POP PUSH1 0x9 PUSH1 0x0 DUP9 DUP8 DUP2 MLOAD DUP2 LT PUSH2 0x1672 JUMPI PUSH4 0x4E487B71 PUSH1 0xE0 SHL PUSH1 0x0 MSTORE PUSH1 0x32 PUSH1 0x4 MSTORE PUSH1 0x24 PUSH1 0x0 REVERT JUMPDEST PUSH1 0x20 MUL PUSH1 0x20 ADD ADD MLOAD DUP2 MSTORE PUSH1 0x20 ADD SWAP1 DUP2 MSTORE PUSH1 0x20 ADD PUSH1 0x0 KECCAK256 PUSH1 0x1 ADD SLOAD SWAP4 POP PUSH1 0x9 PUSH1 0x0 DUP9 DUP8 DUP2 MLOAD DUP2 LT PUSH2 0x16B2 JUMPI PUSH4 0x4E487B71 PUSH1 0xE0 SHL PUSH1 0x0 MSTORE PUSH1 0x32 PUSH1 0x4 MSTORE PUSH1 0x24 PUSH1 0x0 REVERT JUMPDEST PUSH1 0x20 MUL PUSH1 0x20 ADD ADD MLOAD DUP2 MSTORE PUSH1 0x20 ADD SWAP1 DUP2 MSTORE PUSH1 0x20 ADD PUSH1 0x0 KECCAK256 PUSH1 0x3 ADD SLOAD SWAP3 POP PUSH2 0x17A1 JUMP JUMPDEST DUP8 PUSH1 0xA0 ADD MLOAD PUSH1 0x2 EQ ISZERO PUSH2 0x17A1 JUMPI PUSH1 0x9 PUSH1 0x0 DUP9 DUP8 DUP2 MLOAD DUP2 LT PUSH2 0x1704 JUMPI PUSH4 0x4E487B71 PUSH1 0xE0 SHL PUSH1 0x0 MSTORE PUSH1 0x32 PUSH1 0x4 MSTORE PUSH1 0x24 PUSH1 0x0 REVERT JUMPDEST PUSH1 0x20 MUL PUSH1 0x20 ADD ADD MLOAD DUP2 MSTORE PUSH1 0x20 ADD SWAP1 DUP2 MSTORE PUSH1 0x20 ADD PUSH1 0x0 KECCAK256 PUSH1 0x3 ADD SLOAD SWAP2 POP PUSH1 0x9 PUSH1 0x0 DUP9 DUP8 DUP2 MLOAD DUP2 LT PUSH2 0x1744 JUMPI PUSH4 0x4E487B71 PUSH1 0xE0 SHL PUSH1 0x0 MSTORE PUSH1 0x32 PUSH1 0x4 MSTORE PUSH1 0x24 PUSH1 0x0 REVERT JUMPDEST PUSH1 0x20 MUL PUSH1 0x20 ADD ADD MLOAD DUP2 MSTORE PUSH1 0x20 ADD SWAP1 DUP2 MSTORE PUSH1 0x20 ADD PUSH1 0x0 KECCAK256 PUSH1 0x0 ADD SLOAD SWAP4 POP PUSH1 0x9 PUSH1 0x0 DUP9 DUP8 DUP2 MLOAD DUP2 LT PUSH2 0x1784 JUMPI PUSH4 0x4E487B71 PUSH1 0xE0 SHL PUSH1 0x0 MSTORE PUSH1 0x32 PUSH1 0x4 MSTORE PUSH1 0x24 PUSH1 0x0 REVERT JUMPDEST PUSH1 0x20 MUL PUSH1 0x20 ADD ADD MLOAD DUP2 MSTORE PUSH1 0x20 ADD SWAP1 DUP2 MSTORE PUSH1 0x20 ADD PUSH1 0x0 KECCAK256 PUSH1 0x2 ADD SLOAD SWAP3 POP JUMPDEST POP PUSH1 0x0 DUP4 DUP2 MSTORE PUSH1 0x7 PUSH1 0x20 SWAP1 DUP2 MSTORE PUSH1 0x40 SWAP2 DUP3 SWAP1 KECCAK256 SLOAD DUP3 MLOAD PUSH4 0x55C4A8BF PUSH1 0xE0 SHL DUP2 MSTORE SWAP3 MLOAD PUSH1 0x1 PUSH1 0x1 PUSH1 0xA0 SHL SUB SWAP2 DUP3 AND SWAP4 PUSH1 0x64 SWAP4 PUSH32 0x0 SWAP1 SWAP4 AND SWAP3 PUSH4 0x55C4A8BF SWAP3 PUSH1 0x4 DUP1 DUP5 ADD SWAP4 DUP3 SWAP1 SUB ADD DUP2 DUP7 DUP1 EXTCODESIZE ISZERO DUP1 ISZERO PUSH2 0x1817 JUMPI PUSH1 0x0 DUP1 REVERT JUMPDEST POP GAS STATICCALL ISZERO DUP1 ISZERO PUSH2 0x182B JUMPI RETURNDATASIZE PUSH1 0x0 DUP1 RETURNDATACOPY RETURNDATASIZE PUSH1 0x0 REVERT JUMPDEST POP POP POP POP PUSH1 0x40 MLOAD RETURNDATASIZE PUSH1 0x1F NOT PUSH1 0x1F DUP3 ADD AND DUP3 ADD DUP1 PUSH1 0x40 MSTORE POP DUP2 ADD SWAP1 PUSH2 0x184F SWAP2 SWAP1 PUSH2 0x2C86 JUMP JUMPDEST PUSH2 0x185A SWAP1 PUSH1 0x64 PUSH2 0x2DA8 JUMP JUMPDEST PUSH2 0x1864 SWAP1 DUP5 PUSH2 0x2D89 JUMP JUMPDEST PUSH2 0x186E SWAP2 SWAP1 PUSH2 0x2D69 JUMP JUMPDEST DUP9 MLOAD PUSH1 0x1 PUSH1 0x1 PUSH1 0xA0 SHL SUB AND PUSH1 0x0 SWAP1 DUP2 MSTORE PUSH1 0x6 PUSH1 0x20 MSTORE PUSH1 0x40 DUP2 KECCAK256 DUP1 SLOAD SWAP1 SWAP2 SWAP1 PUSH2 0x1897 SWAP1 DUP5 SWAP1 PUSH2 0x2D51 JUMP JUMPDEST SWAP1 SWAP2 SSTORE POP POP PUSH1 0x0 DUP5 DUP2 MSTORE PUSH1 0x7 PUSH1 0x20 MSTORE PUSH1 0x40 DUP2 KECCAK256 PUSH1 0x3 ADD DUP1 SLOAD DUP6 SWAP3 SWAP1 PUSH2 0x18BD SWAP1 DUP5 SWAP1 PUSH2 0x2DA8 JUMP JUMPDEST SWAP3 POP POP DUP2 SWAP1 SSTORE POP PUSH1 0x0 PUSH1 0x64 PUSH32 0x0 PUSH1 0x1 PUSH1 0x1 PUSH1 0xA0 SHL SUB AND PUSH4 0x55C4A8BF PUSH1 0x40 MLOAD DUP2 PUSH4 0xFFFFFFFF AND PUSH1 0xE0 SHL DUP2 MSTORE PUSH1 0x4 ADD PUSH1 0x20 PUSH1 0x40 MLOAD DUP1 DUP4 SUB DUP2 DUP7 DUP1 EXTCODESIZE ISZERO DUP1 ISZERO PUSH2 0x1921 JUMPI PUSH1 0x0 DUP1 REVERT JUMPDEST POP GAS STATICCALL ISZERO DUP1 ISZERO PUSH2 0x1935 JUMPI RETURNDATASIZE PUSH1 0x0 DUP1 RETURNDATACOPY RETURNDATASIZE PUSH1 0x0 REVERT JUMPDEST POP POP POP POP PUSH1 0x40 MLOAD RETURNDATASIZE PUSH1 0x1F NOT PUSH1 0x1F DUP3 ADD AND DUP3 ADD DUP1 PUSH1 0x40 MSTORE POP DUP2 ADD SWAP1 PUSH2 0x1959 SWAP2 SWAP1 PUSH2 0x2C86 JUMP JUMPDEST PUSH2 0x1963 SWAP1 DUP6 PUSH2 0x2D89 JUMP JUMPDEST PUSH2 0x196D SWAP2 SWAP1 PUSH2 0x2D69 JUMP JUMPDEST SWAP1 POP PUSH1 0x64 PUSH32 0x0 PUSH1 0x1 PUSH1 0x1 PUSH1 0xA0 SHL SUB AND PUSH4 0x6A0CCD9D PUSH1 0x40 MLOAD DUP2 PUSH4 0xFFFFFFFF AND PUSH1 0xE0 SHL DUP2 MSTORE PUSH1 0x4 ADD PUSH1 0x20 PUSH1 0x40 MLOAD DUP1 DUP4 SUB DUP2 DUP7 DUP1 EXTCODESIZE ISZERO DUP1 ISZERO PUSH2 0x19CA JUMPI PUSH1 0x0 DUP1 REVERT JUMPDEST POP GAS STATICCALL ISZERO DUP1 ISZERO PUSH2 0x19DE JUMPI RETURNDATASIZE PUSH1 0x0 DUP1 RETURNDATACOPY RETURNDATASIZE PUSH1 0x0 REVERT JUMPDEST POP POP POP POP PUSH1 0x40 MLOAD RETURNDATASIZE PUSH1 0x1F NOT PUSH1 0x1F DUP3 ADD AND DUP3 ADD DUP1 PUSH1 0x40 MSTORE POP DUP2 ADD SWAP1 PUSH2 0x1A02 SWAP2 SWAP1 PUSH2 0x2C86 JUMP JUMPDEST PUSH2 0x1A0C SWAP1 DUP4 PUSH2 0x2D89 JUMP JUMPDEST PUSH2 0x1A16 SWAP2 SWAP1 PUSH2 0x2D69 JUMP JUMPDEST PUSH1 0x6 PUSH1 0x0 PUSH32 0x0 PUSH1 0x1 PUSH1 0x1 PUSH1 0xA0 SHL SUB AND PUSH4 0xB7640A54 PUSH1 0x40 MLOAD DUP2 PUSH4 0xFFFFFFFF AND PUSH1 0xE0 SHL DUP2 MSTORE PUSH1 0x4 ADD PUSH1 0x20 PUSH1 0x40 MLOAD DUP1 DUP4 SUB DUP2 DUP7 DUP1 EXTCODESIZE ISZERO DUP1 ISZERO PUSH2 0x1A73 JUMPI PUSH1 0x0 DUP1 REVERT JUMPDEST POP GAS STATICCALL ISZERO DUP1 ISZERO PUSH2 0x1A87 JUMPI RETURNDATASIZE PUSH1 0x0 DUP1 RETURNDATACOPY RETURNDATASIZE PUSH1 0x0 REVERT JUMPDEST POP POP POP POP PUSH1 0x40 MLOAD RETURNDATASIZE PUSH1 0x1F NOT PUSH1 0x1F DUP3 ADD AND DUP3 ADD DUP1 PUSH1 0x40 MSTORE POP DUP2 ADD SWAP1 PUSH2 0x1AAB SWAP2 SWAP1 PUSH2 0x2BD0 JUMP JUMPDEST PUSH1 0x1 PUSH1 0x1 PUSH1 0xA0 SHL SUB AND PUSH1 0x1 PUSH1 0x1 PUSH1 0xA0 SHL SUB AND DUP2 MSTORE PUSH1 0x20 ADD SWAP1 DUP2 MSTORE PUSH1 0x20 ADD PUSH1 0x0 KECCAK256 PUSH1 0x0 DUP3 DUP3 SLOAD PUSH2 0x1ADA SWAP2 SWAP1 PUSH2 0x2D51 JUMP JUMPDEST SWAP3 POP POP DUP2 SWAP1 SSTORE POP PUSH1 0x64 PUSH32 0x0 PUSH1 0x1 PUSH1 0x1 PUSH1 0xA0 SHL SUB AND PUSH4 0x28576D45 PUSH1 0x40 MLOAD DUP2 PUSH4 0xFFFFFFFF AND PUSH1 0xE0 SHL DUP2 MSTORE PUSH1 0x4 ADD PUSH1 0x20 PUSH1 0x40 MLOAD DUP1 DUP4 SUB DUP2 DUP7 DUP1 EXTCODESIZE ISZERO DUP1 ISZERO PUSH2 0x1B3C JUMPI PUSH1 0x0 DUP1 REVERT JUMPDEST POP GAS STATICCALL ISZERO DUP1 ISZERO PUSH2 0x1B50 JUMPI RETURNDATASIZE PUSH1 0x0 DUP1 RETURNDATACOPY RETURNDATASIZE PUSH1 0x0 REVERT JUMPDEST POP POP POP POP PUSH1 0x40 MLOAD RETURNDATASIZE PUSH1 0x1F NOT PUSH1 0x1F DUP3 ADD AND DUP3 ADD DUP1 PUSH1 0x40 MSTORE POP DUP2 ADD SWAP1 PUSH2 0x1B74 SWAP2 SWAP1 PUSH2 0x2C86 JUMP JUMPDEST PUSH2 0x1B7E SWAP1 DUP4 PUSH2 0x2D89 JUMP JUMPDEST PUSH2 0x1B88 SWAP2 SWAP1 PUSH2 0x2D69 JUMP JUMPDEST PUSH1 0x6 PUSH1 0x0 PUSH32 0x0 PUSH1 0x1 PUSH1 0x1 PUSH1 0xA0 SHL SUB AND PUSH4 0x9953B2F PUSH1 0x40 MLOAD DUP2 PUSH4 0xFFFFFFFF AND PUSH1 0xE0 SHL DUP2 MSTORE PUSH1 0x4 ADD PUSH1 0x20 PUSH1 0x40 MLOAD DUP1 DUP4 SUB DUP2 DUP7 DUP1 EXTCODESIZE ISZERO DUP1 ISZERO PUSH2 0x1BE5 JUMPI PUSH1 0x0 DUP1 REVERT JUMPDEST POP GAS STATICCALL ISZERO DUP1 ISZERO PUSH2 0x1BF9 JUMPI RETURNDATASIZE PUSH1 0x0 DUP1 RETURNDATACOPY RETURNDATASIZE PUSH1 0x0 REVERT JUMPDEST POP POP POP POP PUSH1 0x40 MLOAD RETURNDATASIZE PUSH1 0x1F NOT PUSH1 0x1F DUP3 ADD AND DUP3 ADD DUP1 PUSH1 0x40 MSTORE POP DUP2 ADD SWAP1 PUSH2 0x1C1D SWAP2 SWAP1 PUSH2 0x2BD0 JUMP JUMPDEST PUSH1 0x1 PUSH1 0x1 PUSH1 0xA0 SHL SUB AND PUSH1 0x1 PUSH1 0x1 PUSH1 0xA0 SHL SUB AND DUP2 MSTORE PUSH1 0x20 ADD SWAP1 DUP2 MSTORE PUSH1 0x20 ADD PUSH1 0x0 KECCAK256 PUSH1 0x0 DUP3 DUP3 SLOAD PUSH2 0x1C4C SWAP2 SWAP1 PUSH2 0x2D51 JUMP JUMPDEST SWAP3 POP POP DUP2 SWAP1 SSTORE POP PUSH1 0x64 PUSH32 0x0 PUSH1 0x1 PUSH1 0x1 PUSH1 0xA0 SHL SUB AND PUSH4 0x54CD1A5C PUSH1 0x40 MLOAD DUP2 PUSH4 0xFFFFFFFF AND PUSH1 0xE0 SHL DUP2 MSTORE PUSH1 0x4 ADD PUSH1 0x20 PUSH1 0x40 MLOAD DUP1 DUP4 SUB DUP2 DUP7 DUP1 EXTCODESIZE ISZERO DUP1 ISZERO PUSH2 0x1CAE JUMPI PUSH1 0x0 DUP1 REVERT JUMPDEST POP GAS STATICCALL ISZERO DUP1 ISZERO PUSH2 0x1CC2 JUMPI RETURNDATASIZE PUSH1 0x0 DUP1 RETURNDATACOPY RETURNDATASIZE PUSH1 0x0 REVERT JUMPDEST POP POP POP POP PUSH1 0x40 MLOAD RETURNDATASIZE PUSH1 0x1F NOT PUSH1 0x1F DUP3 ADD AND DUP3 ADD DUP1 PUSH1 0x40 MSTORE POP DUP2 ADD SWAP1 PUSH2 0x1CE6 SWAP2 SWAP1 PUSH2 0x2C86 JUMP JUMPDEST PUSH2 0x1CF0 SWAP1 DUP4 PUSH2 0x2D89 JUMP JUMPDEST PUSH2 0x1CFA SWAP2 SWAP1 PUSH2 0x2D69 JUMP JUMPDEST PUSH1 0x20 DUP1 DUP12 ADD MLOAD PUSH1 0x1 PUSH1 0x1 PUSH1 0xA0 SHL SUB AND PUSH1 0x0 SWAP1 DUP2 MSTORE PUSH1 0x6 SWAP1 SWAP2 MSTORE PUSH1 0x40 DUP2 KECCAK256 DUP1 SLOAD SWAP1 SWAP2 SWAP1 PUSH2 0x1D27 SWAP1 DUP5 SWAP1 PUSH2 0x2D51 JUMP JUMPDEST SWAP3 POP POP DUP2 SWAP1 SSTORE POP PUSH1 0x1 PUSH1 0x9 PUSH1 0x0 DUP11 DUP10 DUP2 MLOAD DUP2 LT PUSH2 0x1D54 JUMPI PUSH4 0x4E487B71 PUSH1 0xE0 SHL PUSH1 0x0 MSTORE PUSH1 0x32 PUSH1 0x4 MSTORE PUSH1 0x24 PUSH1 0x0 REVERT JUMPDEST PUSH1 0x20 MUL PUSH1 0x20 ADD ADD MLOAD DUP2 MSTORE PUSH1 0x20 ADD SWAP1 DUP2 MSTORE PUSH1 0x20 ADD PUSH1 0x0 KECCAK256 PUSH1 0x4 ADD PUSH1 0x0 PUSH2 0x100 EXP DUP2 SLOAD DUP2 PUSH1 0xFF MUL NOT AND SWAP1 DUP4 ISZERO ISZERO MUL OR SWAP1 SSTORE POP POP POP POP POP POP DUP1 DUP1 PUSH2 0x1D94 SWAP1 PUSH2 0x2DBF JUMP JUMPDEST SWAP2 POP POP PUSH2 0x15F3 JUMP JUMPDEST POP PUSH1 0x1 SWAP6 SWAP5 POP POP POP POP POP JUMP JUMPDEST PUSH1 0x0 PUSH1 0x2 PUSH1 0x0 SLOAD EQ ISZERO PUSH2 0x1DFD JUMPI PUSH1 0x40 MLOAD PUSH3 0x461BCD PUSH1 0xE5 SHL DUP2 MSTORE PUSH1 0x20 PUSH1 0x4 DUP3 ADD MSTORE PUSH1 0x1F PUSH1 0x24 DUP3 ADD MSTORE PUSH32 0x5265656E7472616E637947756172643A207265656E7472616E742063616C6C00 PUSH1 0x44 DUP3 ADD MSTORE PUSH1 0x64 ADD PUSH2 0x21D JUMP JUMPDEST PUSH1 0x2 PUSH1 0x0 SWAP1 DUP2 SSTORE DUP3 DUP2 MSTORE PUSH1 0x9 PUSH1 0x20 MSTORE PUSH1 0x40 SWAP1 KECCAK256 PUSH1 0x4 ADD SLOAD PUSH1 0xFF AND ISZERO PUSH2 0x1E24 JUMPI POP PUSH1 0x0 PUSH2 0x65A JUMP JUMPDEST PUSH1 0x0 DUP1 PUSH1 0x0 DUP1 PUSH1 0x3 SLOAD PUSH1 0x1 EQ ISZERO PUSH2 0x2027 JUMPI PUSH1 0x0 DUP7 DUP2 MSTORE PUSH1 0x9 PUSH1 0x20 SWAP1 DUP2 MSTORE PUSH1 0x40 DUP1 DUP4 KECCAK256 SLOAD DUP4 MSTORE PUSH1 0x7 DUP3 MSTORE SWAP2 DUP3 SWAP1 KECCAK256 SLOAD DUP3 MLOAD PUSH4 0x55C4A8BF PUSH1 0xE0 SHL DUP2 MSTORE SWAP3 MLOAD PUSH1 0x1 PUSH1 0x1 PUSH1 0xA0 SHL SUB SWAP2 DUP3 AND SWAP8 POP PUSH1 0x64 SWAP4 PUSH32 0x0 SWAP1 SWAP3 AND SWAP3 PUSH4 0x55C4A8BF SWAP3 PUSH1 0x4 DUP1 DUP3 ADD SWAP4 SWAP2 DUP3 SWAP1 SUB ADD DUP2 DUP7 DUP1 EXTCODESIZE ISZERO DUP1 ISZERO PUSH2 0x1EB6 JUMPI PUSH1 0x0 DUP1 REVERT JUMPDEST POP GAS STATICCALL ISZERO DUP1 ISZERO PUSH2 0x1ECA JUMPI RETURNDATASIZE PUSH1 0x0 DUP1 RETURNDATACOPY RETURNDATASIZE PUSH1 0x0 REVERT JUMPDEST POP POP POP POP PUSH1 0x40 MLOAD RETURNDATASIZE PUSH1 0x1F NOT PUSH1 0x1F DUP3 ADD AND DUP3 ADD DUP1 PUSH1 0x40 MSTORE POP DUP2 ADD SWAP1 PUSH2 0x1EEE SWAP2 SWAP1 PUSH2 0x2C86 JUMP JUMPDEST PUSH2 0x1EF9 SWAP1 PUSH1 0x64 PUSH2 0x2DA8 JUMP JUMPDEST PUSH1 0x0 DUP9 DUP2 MSTORE PUSH1 0x9 PUSH1 0x20 MSTORE PUSH1 0x40 SWAP1 KECCAK256 PUSH1 0x3 ADD SLOAD PUSH2 0x1F15 SWAP2 SWAP1 PUSH2 0x2D89 JUMP JUMPDEST PUSH2 0x1F1F SWAP2 SWAP1 PUSH2 0x2D69 JUMP JUMPDEST PUSH1 0x0 DUP8 DUP2 MSTORE PUSH1 0x9 PUSH1 0x20 MSTORE PUSH1 0x40 SWAP1 KECCAK256 PUSH1 0x2 ADD SLOAD PUSH2 0x1F3B SWAP2 SWAP1 PUSH2 0x2D51 JUMP JUMPDEST SWAP2 POP PUSH1 0x64 PUSH32 0x0 PUSH1 0x1 PUSH1 0x1 PUSH1 0xA0 SHL SUB AND PUSH4 0x55C4A8BF PUSH1 0x40 MLOAD DUP2 PUSH4 0xFFFFFFFF AND PUSH1 0xE0 SHL DUP2 MSTORE PUSH1 0x4 ADD PUSH1 0x20 PUSH1 0x40 MLOAD DUP1 DUP4 SUB DUP2 DUP7 DUP1 EXTCODESIZE ISZERO DUP1 ISZERO PUSH2 0x1F98 JUMPI PUSH1 0x0 DUP1 REVERT JUMPDEST POP GAS STATICCALL ISZERO DUP1 ISZERO PUSH2 0x1FAC JUMPI RETURNDATASIZE PUSH1 0x0 DUP1 RETURNDATACOPY RETURNDATASIZE PUSH1 0x0 REVERT JUMPDEST POP POP POP POP PUSH1 0x40 MLOAD RETURNDATASIZE PUSH1 0x1F NOT PUSH1 0x1F DUP3 ADD AND DUP3 ADD DUP1 PUSH1 0x40 MSTORE POP DUP2 ADD SWAP1 PUSH2 0x1FD0 SWAP2 SWAP1 PUSH2 0x2C86 JUMP JUMPDEST PUSH1 0x0 DUP9 DUP2 MSTORE PUSH1 0x9 PUSH1 0x20 MSTORE PUSH1 0x40 SWAP1 KECCAK256 PUSH1 0x3 ADD SLOAD PUSH2 0x1FEC SWAP2 SWAP1 PUSH2 0x2D89 JUMP JUMPDEST PUSH2 0x1FF6 SWAP2 SWAP1 PUSH2 0x2D69 JUMP JUMPDEST PUSH1 0x0 DUP8 DUP2 MSTORE PUSH1 0x9 PUSH1 0x20 SWAP1 DUP2 MSTORE PUSH1 0x40 DUP1 DUP4 KECCAK256 SLOAD DUP4 MSTORE PUSH1 0x7 SWAP1 SWAP2 MSTORE SWAP1 KECCAK256 PUSH1 0x1 ADD SLOAD PUSH1 0x1 PUSH1 0x1 PUSH1 0xA0 SHL SUB AND SWAP4 POP SWAP1 POP PUSH2 0x2238 JUMP JUMPDEST PUSH1 0x3 SLOAD PUSH1 0x2 EQ ISZERO PUSH2 0x222B JUMPI PUSH1 0x0 DUP7 DUP2 MSTORE PUSH1 0x9 PUSH1 0x20 SWAP1 DUP2 MSTORE PUSH1 0x40 DUP1 DUP4 KECCAK256 PUSH1 0x1 ADD SLOAD DUP4 MSTORE PUSH1 0x7 DUP3 MSTORE SWAP2 DUP3 SWAP1 KECCAK256 SLOAD DUP3 MLOAD PUSH4 0x55C4A8BF PUSH1 0xE0 SHL DUP2 MSTORE SWAP3 MLOAD PUSH1 0x1 PUSH1 0x1 PUSH1 0xA0 SHL SUB SWAP2 DUP3 AND SWAP8 POP PUSH1 0x64 SWAP4 PUSH32 0x0 SWAP1 SWAP3 AND SWAP3 PUSH4 0x55C4A8BF SWAP3 PUSH1 0x4 DUP1 DUP3 ADD SWAP4 SWAP2 DUP3 SWAP1 SUB ADD DUP2 DUP7 DUP1 EXTCODESIZE ISZERO DUP1 ISZERO PUSH2 0x20B6 JUMPI PUSH1 0x0 DUP1 REVERT JUMPDEST POP GAS STATICCALL ISZERO DUP1 ISZERO PUSH2 0x20CA JUMPI RETURNDATASIZE PUSH1 0x0 DUP1 RETURNDATACOPY RETURNDATASIZE PUSH1 0x0 REVERT JUMPDEST POP POP POP POP PUSH1 0x40 MLOAD RETURNDATASIZE PUSH1 0x1F NOT PUSH1 0x1F DUP3 ADD AND DUP3 ADD DUP1 PUSH1 0x40 MSTORE POP DUP2 ADD SWAP1 PUSH2 0x20EE SWAP2 SWAP1 PUSH2 0x2C86 JUMP JUMPDEST PUSH2 0x20F9 SWAP1 PUSH1 0x64 PUSH2 0x2DA8 JUMP JUMPDEST PUSH1 0x0 DUP9 DUP2 MSTORE PUSH1 0x9 PUSH1 0x20 MSTORE PUSH1 0x40 SWAP1 KECCAK256 PUSH1 0x2 ADD SLOAD PUSH2 0x2115 SWAP2 SWAP1 PUSH2 0x2D89 JUMP JUMPDEST PUSH2 0x211F SWAP2 SWAP1 PUSH2 0x2D69 JUMP JUMPDEST PUSH1 0x0 DUP8 DUP2 MSTORE PUSH1 0x9 PUSH1 0x20 MSTORE PUSH1 0x40 SWAP1 KECCAK256 PUSH1 0x3 ADD SLOAD PUSH2 0x213B SWAP2 SWAP1 PUSH2 0x2D51 JUMP JUMPDEST SWAP2 POP PUSH1 0x64 PUSH32 0x0 PUSH1 0x1 PUSH1 0x1 PUSH1 0xA0 SHL SUB AND PUSH4 0x55C4A8BF PUSH1 0x40 MLOAD DUP2 PUSH4 0xFFFFFFFF AND PUSH1 0xE0 SHL DUP2 MSTORE PUSH1 0x4 ADD PUSH1 0x20 PUSH1 0x40 MLOAD DUP1 DUP4 SUB DUP2 DUP7 DUP1 EXTCODESIZE ISZERO DUP1 ISZERO PUSH2 0x2198 JUMPI PUSH1 0x0 DUP1 REVERT JUMPDEST POP GAS STATICCALL ISZERO DUP1 ISZERO PUSH2 0x21AC JUMPI RETURNDATASIZE PUSH1 0x0 DUP1 RETURNDATACOPY RETURNDATASIZE PUSH1 0x0 REVERT JUMPDEST POP POP POP POP PUSH1 0x40 MLOAD RETURNDATASIZE PUSH1 0x1F NOT PUSH1 0x1F DUP3 ADD AND DUP3 ADD DUP1 PUSH1 0x40 MSTORE POP DUP2 ADD SWAP1 PUSH2 0x21D0 SWAP2 SWAP1 PUSH2 0x2C86 JUMP JUMPDEST PUSH1 0x0 DUP9 DUP2 MSTORE PUSH1 0x9 PUSH1 0x20 MSTORE PUSH1 0x40 SWAP1 KECCAK256 PUSH1 0x2 ADD SLOAD PUSH2 0x21EC SWAP2 SWAP1 PUSH2 0x2D89 JUMP JUMPDEST PUSH2 0x21F6 SWAP2 SWAP1 PUSH2 0x2D69 JUMP JUMPDEST PUSH1 0x0 DUP8 DUP2 MSTORE PUSH1 0x9 PUSH1 0x20 SWAP1 DUP2 MSTORE PUSH1 0x40 DUP1 DUP4 KECCAK256 PUSH1 0x1 SWAP1 DUP2 ADD SLOAD DUP5 MSTORE PUSH1 0x7 SWAP1 SWAP3 MSTORE SWAP1 SWAP2 KECCAK256 ADD SLOAD PUSH1 0x1 PUSH1 0x1 PUSH1 0xA0 SHL SUB AND SWAP4 POP SWAP1 POP PUSH2 0x2238 JUMP JUMPDEST PUSH1 0x0 SWAP5 POP POP POP POP POP PUSH2 0x65A JUMP JUMPDEST PUSH1 0x1 PUSH1 0x1 PUSH1 0xA0 SHL SUB DUP5 AND PUSH1 0x0 SWAP1 DUP2 MSTORE PUSH1 0x6 PUSH1 0x20 MSTORE PUSH1 0x40 DUP2 KECCAK256 DUP1 SLOAD DUP5 SWAP3 SWAP1 PUSH2 0x2260 SWAP1 DUP5 SWAP1 PUSH2 0x2D51 JUMP JUMPDEST SWAP3 POP POP DUP2 SWAP1 SSTORE POP PUSH1 0x64 PUSH32 0x0 PUSH1 0x1 PUSH1 0x1 PUSH1 0xA0 SHL SUB AND PUSH4 0x6A0CCD9D PUSH1 0x40 MLOAD DUP2 PUSH4 0xFFFFFFFF AND PUSH1 0xE0 SHL DUP2 MSTORE PUSH1 0x4 ADD PUSH1 0x20 PUSH1 0x40 MLOAD DUP1 DUP4 SUB DUP2 DUP7 DUP1 EXTCODESIZE ISZERO DUP1 ISZERO PUSH2 0x22C2 JUMPI PUSH1 0x0 DUP1 REVERT JUMPDEST POP GAS STATICCALL ISZERO DUP1 ISZERO PUSH2 0x22D6 JUMPI RETURNDATASIZE PUSH1 0x0 DUP1 RETURNDATACOPY RETURNDATASIZE PUSH1 0x0 REVERT JUMPDEST POP POP POP POP PUSH1 0x40 MLOAD RETURNDATASIZE PUSH1 0x1F NOT PUSH1 0x1F DUP3 ADD AND DUP3 ADD DUP1 PUSH1 0x40 MSTORE POP DUP2 ADD SWAP1 PUSH2 0x22FA SWAP2 SWAP1 PUSH2 0x2C86 JUMP JUMPDEST PUSH2 0x2304 SWAP1 DUP4 PUSH2 0x2D89 JUMP JUMPDEST PUSH2 0x230E SWAP2 SWAP1 PUSH2 0x2D69 JUMP JUMPDEST PUSH1 0x6 PUSH1 0x0 PUSH32 0x0 PUSH1 0x1 PUSH1 0x1 PUSH1 0xA0 SHL SUB AND PUSH4 0xB7640A54 PUSH1 0x40 MLOAD DUP2 PUSH4 0xFFFFFFFF AND PUSH1 0xE0 SHL DUP2 MSTORE PUSH1 0x4 ADD PUSH1 0x20 PUSH1 0x40 MLOAD DUP1 DUP4 SUB DUP2 DUP7 DUP1 EXTCODESIZE ISZERO DUP1 ISZERO PUSH2 0x236B JUMPI PUSH1 0x0 DUP1 REVERT JUMPDEST POP GAS STATICCALL ISZERO DUP1 ISZERO PUSH2 0x237F JUMPI RETURNDATASIZE PUSH1 0x0 DUP1 RETURNDATACOPY RETURNDATASIZE PUSH1 0x0 REVERT JUMPDEST POP POP POP POP PUSH1 0x40 MLOAD RETURNDATASIZE PUSH1 0x1F NOT PUSH1 0x1F DUP3 ADD AND DUP3 ADD DUP1 PUSH1 0x40 MSTORE POP DUP2 ADD SWAP1 PUSH2 0x23A3 SWAP2 SWAP1 PUSH2 0x2BD0 JUMP JUMPDEST PUSH1 0x1 PUSH1 0x1 PUSH1 0xA0 SHL SUB AND PUSH1 0x1 PUSH1 0x1 PUSH1 0xA0 SHL SUB AND DUP2 MSTORE PUSH1 0x20 ADD SWAP1 DUP2 MSTORE PUSH1 0x20 ADD PUSH1 0x0 KECCAK256 PUSH1 0x0 DUP3 DUP3 SLOAD PUSH2 0x23D2 SWAP2 SWAP1 PUSH2 0x2D51 JUMP JUMPDEST SWAP3 POP POP DUP2 SWAP1 SSTORE POP PUSH1 0x64 PUSH32 0x0 PUSH1 0x1 PUSH1 0x1 PUSH1 0xA0 SHL SUB AND PUSH4 0x28576D45 PUSH1 0x40 MLOAD DUP2 PUSH4 0xFFFFFFFF AND PUSH1 0xE0 SHL DUP2 MSTORE PUSH1 0x4 ADD PUSH1 0x20 PUSH1 0x40 MLOAD DUP1 DUP4 SUB DUP2 DUP7 DUP1 EXTCODESIZE ISZERO DUP1 ISZERO PUSH2 0x2434 JUMPI PUSH1 0x0 DUP1 REVERT JUMPDEST POP GAS STATICCALL ISZERO DUP1 ISZERO PUSH2 0x2448 JUMPI RETURNDATASIZE PUSH1 0x0 DUP1 RETURNDATACOPY RETURNDATASIZE PUSH1 0x0 REVERT JUMPDEST POP POP POP POP PUSH1 0x40 MLOAD RETURNDATASIZE PUSH1 0x1F NOT PUSH1 0x1F DUP3 ADD AND DUP3 ADD DUP1 PUSH1 0x40 MSTORE POP DUP2 ADD SWAP1 PUSH2 0x246C SWAP2 SWAP1 PUSH2 0x2C86 JUMP JUMPDEST PUSH2 0x2476 SWAP1 DUP4 PUSH2 0x2D89 JUMP JUMPDEST PUSH2 0x2480 SWAP2 SWAP1 PUSH2 0x2D69 JUMP JUMPDEST PUSH1 0x6 PUSH1 0x0 PUSH32 0x0 PUSH1 0x1 PUSH1 0x1 PUSH1 0xA0 SHL SUB AND PUSH4 0x9953B2F PUSH1 0x40 MLOAD DUP2 PUSH4 0xFFFFFFFF AND PUSH1 0xE0 SHL DUP2 MSTORE PUSH1 0x4 ADD PUSH1 0x20 PUSH1 0x40 MLOAD DUP1 DUP4 SUB DUP2 DUP7 DUP1 EXTCODESIZE ISZERO DUP1 ISZERO PUSH2 0x24DD JUMPI PUSH1 0x0 DUP1 REVERT JUMPDEST POP GAS STATICCALL ISZERO DUP1 ISZERO PUSH2 0x24F1 JUMPI RETURNDATASIZE PUSH1 0x0 DUP1 RETURNDATACOPY RETURNDATASIZE PUSH1 0x0 REVERT JUMPDEST POP POP POP POP PUSH1 0x40 MLOAD RETURNDATASIZE PUSH1 0x1F NOT PUSH1 0x1F DUP3 ADD AND DUP3 ADD DUP1 PUSH1 0x40 MSTORE POP DUP2 ADD SWAP1 PUSH2 0x2515 SWAP2 SWAP1 PUSH2 0x2BD0 JUMP JUMPDEST PUSH1 0x1 PUSH1 0x1 PUSH1 0xA0 SHL SUB AND PUSH1 0x1 PUSH1 0x1 PUSH1 0xA0 SHL SUB AND DUP2 MSTORE PUSH1 0x20 ADD SWAP1 DUP2 MSTORE PUSH1 0x20 ADD PUSH1 0x0 KECCAK256 PUSH1 0x0 DUP3 DUP3 SLOAD PUSH2 0x2544 SWAP2 SWAP1 PUSH2 0x2D51 JUMP JUMPDEST SWAP3 POP POP DUP2 SWAP1 SSTORE POP PUSH1 0x64 PUSH32 0x0 PUSH1 0x1 PUSH1 0x1 PUSH1 0xA0 SHL SUB AND PUSH4 0x54CD1A5C PUSH1 0x40 MLOAD DUP2 PUSH4 0xFFFFFFFF AND PUSH1 0xE0 SHL DUP2 MSTORE PUSH1 0x4 ADD PUSH1 0x20 PUSH1 0x40 MLOAD DUP1 DUP4 SUB DUP2 DUP7 DUP1 EXTCODESIZE ISZERO DUP1 ISZERO PUSH2 0x25A6 JUMPI PUSH1 0x0 DUP1 REVERT JUMPDEST POP GAS STATICCALL ISZERO DUP1 ISZERO PUSH2 0x25BA JUMPI RETURNDATASIZE PUSH1 0x0 DUP1 RETURNDATACOPY RETURNDATASIZE PUSH1 0x0 REVERT JUMPDEST POP POP POP POP PUSH1 0x40 MLOAD RETURNDATASIZE PUSH1 0x1F NOT PUSH1 0x1F DUP3 ADD AND DUP3 ADD DUP1 PUSH1 0x40 MSTORE POP DUP2 ADD SWAP1 PUSH2 0x25DE SWAP2 SWAP1 PUSH2 0x2C86 JUMP JUMPDEST PUSH2 0x25E8 SWAP1 DUP4 PUSH2 0x2D89 JUMP JUMPDEST PUSH2 0x25F2 SWAP2 SWAP1 PUSH2 0x2D69 JUMP JUMPDEST PUSH1 0x1 PUSH1 0x1 PUSH1 0xA0 SHL SUB DUP5 AND PUSH1 0x0 SWAP1 DUP2 MSTORE PUSH1 0x6 PUSH1 0x20 MSTORE PUSH1 0x40 DUP2 KECCAK256 DUP1 SLOAD SWAP1 SWAP2 SWAP1 PUSH2 0x261A SWAP1 DUP5 SWAP1 PUSH2 0x2D51 JUMP JUMPDEST SWAP1 SWAP2 SSTORE POP POP POP PUSH1 0x0 SWAP5 DUP6 MSTORE POP POP PUSH1 0x9 PUSH1 0x20 MSTORE POP POP PUSH1 0x40 DUP2 KECCAK256 PUSH1 0x4 ADD DUP1 SLOAD PUSH1 0xFF NOT AND PUSH1 0x1 SWAP1 DUP2 OR SWAP1 SWAP2 SSTORE SWAP1 DUP2 SWAP1 SSTORE SWAP1 JUMP JUMPDEST PUSH1 0x0 DUP1 PUSH1 0x0 JUMPDEST PUSH1 0x5 SLOAD DUP10 SWAP1 ADDRESS SWAP1 DUP4 SWAP1 PUSH2 0x2664 SWAP1 PUSH1 0x1 PUSH2 0x2D51 JUMP JUMPDEST PUSH2 0x266E SWAP2 SWAP1 PUSH2 0x2D51 JUMP JUMPDEST PUSH1 0x40 MLOAD PUSH12 0xFFFFFFFFFFFFFFFFFFFFFFFF NOT PUSH1 0x60 SWAP5 DUP6 SHL DUP2 AND PUSH1 0x20 DUP4 ADD MSTORE SWAP3 SWAP1 SWAP4 SHL SWAP1 SWAP2 AND PUSH1 0x34 DUP4 ADD MSTORE PUSH1 0x48 DUP3 ADD MSTORE TIMESTAMP PUSH1 0x68 DUP3 ADD MSTORE DIFFICULTY PUSH1 0x88 DUP3 ADD MSTORE PUSH1 0xA8 ADD PUSH1 0x40 DUP1 MLOAD PUSH1 0x1F NOT DUP2 DUP5 SUB ADD DUP2 MSTORE SWAP2 DUP2 MSTORE DUP2 MLOAD PUSH1 0x20 SWAP3 DUP4 ADD KECCAK256 PUSH1 0x0 DUP2 DUP2 MSTORE PUSH1 0x7 SWAP1 SWAP4 MSTORE SWAP2 KECCAK256 PUSH1 0x2 ADD SLOAD SWAP1 SWAP3 POP PUSH2 0x26DF JUMPI PUSH2 0x26F1 JUMP JUMPDEST DUP1 PUSH2 0x26E9 DUP2 PUSH2 0x2DBF JUMP JUMPDEST SWAP2 POP POP PUSH2 0x2650 JUMP JUMPDEST PUSH1 0x1 PUSH1 0x1 PUSH1 0xA0 SHL SUB DUP9 AND PUSH2 0x2793 JUMPI PUSH32 0x0 PUSH1 0x1 PUSH1 0x1 PUSH1 0xA0 SHL SUB AND PUSH4 0x9953B2F PUSH1 0x40 MLOAD DUP2 PUSH4 0xFFFFFFFF AND PUSH1 0xE0 SHL DUP2 MSTORE PUSH1 0x4 ADD PUSH1 0x20 PUSH1 0x40 MLOAD DUP1 DUP4 SUB DUP2 DUP7 DUP1 EXTCODESIZE ISZERO DUP1 ISZERO PUSH2 0x2758 JUMPI PUSH1 0x0 DUP1 REVERT JUMPDEST POP GAS STATICCALL ISZERO DUP1 ISZERO PUSH2 0x276C JUMPI RETURNDATASIZE PUSH1 0x0 DUP1 RETURNDATACOPY RETURNDATASIZE PUSH1 0x0 REVERT JUMPDEST POP POP POP POP PUSH1 0x40 MLOAD RETURNDATASIZE PUSH1 0x1F NOT PUSH1 0x1F DUP3 ADD AND DUP3 ADD DUP1 PUSH1 0x40 MSTORE POP DUP2 ADD SWAP1 PUSH2 0x2790 SWAP2 SWAP1 PUSH2 0x2BD0 JUMP JUMPDEST SWAP8 POP JUMPDEST POP PUSH1 0x40 DUP1 MLOAD PUSH1 0xC0 DUP2 ADD DUP3 MSTORE PUSH1 0x1 PUSH1 0x1 PUSH1 0xA0 SHL SUB SWAP10 DUP11 AND DUP1 DUP3 MSTORE SWAP9 DUP11 AND PUSH1 0x20 DUP1 DUP4 ADD SWAP2 DUP3 MSTORE DUP3 DUP5 ADD SWAP10 DUP11 MSTORE PUSH1 0x60 DUP4 ADD SWAP9 DUP10 MSTORE PUSH1 0x80 DUP4 ADD SWAP8 DUP9 MSTORE PUSH1 0xA0 DUP4 ADD SWAP7 DUP8 MSTORE PUSH1 0x0 DUP6 DUP2 MSTORE PUSH1 0x7 DUP3 MSTORE DUP5 DUP2 KECCAK256 SWAP4 MLOAD DUP5 SLOAD SWAP1 DUP15 AND PUSH1 0x1 PUSH1 0x1 PUSH1 0xA0 SHL SUB NOT SWAP2 DUP3 AND OR DUP6 SSTORE SWAP3 MLOAD PUSH1 0x1 DUP1 DUP7 ADD DUP1 SLOAD SWAP3 SWAP1 SWAP16 AND SWAP2 SWAP1 SWAP5 AND OR SWAP1 SWAP13 SSTORE SWAP9 MLOAD PUSH1 0x2 DUP4 ADD SSTORE SWAP7 MLOAD PUSH1 0x3 DUP3 ADD SSTORE SWAP5 MLOAD PUSH1 0x4 DUP7 ADD SSTORE SWAP3 MLOAD PUSH1 0x5 SWAP5 DUP6 ADD SSTORE DUP4 SLOAD DUP1 DUP7 ADD SWAP1 SWAP5 SSTORE PUSH32 0x36B6384B5ECA791C62761152D0C79BB0604C104A5FB6F4EB0703F3154BB3DB0 SWAP1 SWAP4 ADD DUP4 SWAP1 SSTORE POP SWAP4 DUP6 MSTORE PUSH1 0x8 DUP4 MSTORE SWAP3 DUP5 KECCAK256 DUP1 SLOAD SWAP2 DUP3 ADD DUP2 SSTORE DUP5 MSTORE SWAP3 KECCAK256 SWAP1 SWAP2 ADD DUP2 SWAP1 SSTORE SWAP1 JUMP JUMPDEST PUSH1 0x0 DUP1 PUSH1 0x0 DUP1 DUP10 DUP10 GT PUSH2 0x28DE JUMPI DUP9 SWAP3 POP PUSH2 0x288F PUSH1 0x64 DUP10 PUSH2 0x2DA8 JUMP JUMPDEST PUSH2 0x2899 SWAP1 DUP11 PUSH2 0x2D89 JUMP JUMPDEST SWAP2 POP PUSH2 0x28A6 PUSH1 0x64 DUP4 PUSH2 0x2D69 JUMP JUMPDEST SWAP2 POP DUP7 PUSH1 0x1 EQ ISZERO PUSH2 0x28C4 JUMPI PUSH2 0x28BD DUP7 DUP7 DUP6 DUP6 PUSH2 0x2A7D JUMP JUMPDEST SWAP1 POP PUSH2 0x2932 JUMP JUMPDEST DUP7 PUSH1 0x2 EQ ISZERO PUSH2 0x28D9 JUMPI PUSH2 0x28BD DUP6 DUP8 DUP5 DUP7 PUSH2 0x2A7D JUMP JUMPDEST PUSH2 0x2932 JUMP JUMPDEST DUP10 SWAP3 POP PUSH2 0x28EC PUSH1 0x64 DUP10 PUSH2 0x2DA8 JUMP JUMPDEST PUSH2 0x28F6 SWAP1 DUP12 PUSH2 0x2D89 JUMP JUMPDEST SWAP2 POP PUSH2 0x2903 PUSH1 0x64 DUP4 PUSH2 0x2D69 JUMP JUMPDEST SWAP2 POP DUP7 PUSH1 0x1 EQ ISZERO PUSH2 0x291A JUMPI PUSH2 0x28BD DUP7 DUP7 DUP6 DUP6 PUSH2 0x2A7D JUMP JUMPDEST DUP7 PUSH1 0x2 EQ ISZERO PUSH2 0x2932 JUMPI PUSH2 0x292F DUP6 DUP8 DUP5 DUP7 PUSH2 0x2A7D JUMP JUMPDEST SWAP1 POP JUMPDEST PUSH1 0x0 DUP7 DUP2 MSTORE PUSH1 0xA PUSH1 0x20 SWAP1 DUP2 MSTORE PUSH1 0x40 DUP1 DUP4 KECCAK256 DUP1 SLOAD PUSH1 0x1 DUP2 DUP2 ADD DUP4 SSTORE SWAP2 DUP6 MSTORE DUP4 DUP6 KECCAK256 ADD DUP6 SWAP1 SSTORE DUP9 DUP5 MSTORE DUP2 DUP5 KECCAK256 DUP1 SLOAD SWAP2 DUP3 ADD DUP2 SSTORE DUP5 MSTORE DUP3 DUP5 KECCAK256 ADD DUP5 SWAP1 SSTORE DUP9 DUP4 MSTORE PUSH1 0x7 SWAP1 SWAP2 MSTORE DUP2 KECCAK256 PUSH1 0x3 ADD DUP1 SLOAD DUP6 SWAP3 SWAP1 PUSH2 0x2989 SWAP1 DUP5 SWAP1 PUSH2 0x2D51 JUMP JUMPDEST SWAP1 SWAP2 SSTORE POP POP PUSH1 0x0 DUP6 DUP2 MSTORE PUSH1 0x7 PUSH1 0x20 MSTORE PUSH1 0x40 DUP2 KECCAK256 PUSH1 0x3 ADD DUP1 SLOAD DUP5 SWAP3 SWAP1 PUSH2 0x29AF SWAP1 DUP5 SWAP1 PUSH2 0x2D51 JUMP JUMPDEST SWAP1 SWAP2 SSTORE POP SWAP3 SWAP11 SWAP10 POP POP POP POP POP POP POP POP POP POP JUMP JUMPDEST PUSH1 0x0 DUP2 DUP2 MSTORE PUSH1 0x9 PUSH1 0x20 SWAP1 DUP2 MSTORE PUSH1 0x40 DUP1 DUP4 KECCAK256 DUP1 SLOAD DUP5 MSTORE PUSH1 0x7 DUP4 MSTORE DUP2 DUP5 KECCAK256 SLOAD PUSH1 0x1 DUP3 ADD SLOAD DUP6 MSTORE DUP3 DUP6 KECCAK256 SLOAD PUSH1 0x2 SWAP1 SWAP3 ADD SLOAD PUSH1 0x1 PUSH1 0x1 PUSH1 0xA0 SHL SUB SWAP2 DUP3 AND DUP1 DUP8 MSTORE PUSH1 0x6 SWAP1 SWAP6 MSTORE SWAP3 DUP6 KECCAK256 DUP1 SLOAD SWAP5 SWAP6 SWAP2 SWAP1 SWAP3 AND SWAP4 PUSH2 0x2A1A SWAP1 DUP5 SWAP1 PUSH2 0x2D51 JUMP JUMPDEST SWAP1 SWAP2 SSTORE POP POP PUSH1 0x0 DUP4 DUP2 MSTORE PUSH1 0x9 PUSH1 0x20 SWAP1 DUP2 MSTORE PUSH1 0x40 DUP1 DUP4 KECCAK256 PUSH1 0x3 ADD SLOAD PUSH1 0x1 PUSH1 0x1 PUSH1 0xA0 SHL SUB DUP6 AND DUP5 MSTORE PUSH1 0x6 SWAP1 SWAP3 MSTORE DUP3 KECCAK256 DUP1 SLOAD SWAP2 SWAP3 SWAP1 SWAP2 PUSH2 0x2A58 SWAP1 DUP5 SWAP1 PUSH2 0x2D51 JUMP JUMPDEST SWAP1 SWAP2 SSTORE POP POP POP PUSH1 0x0 SWAP2 DUP3 MSTORE POP PUSH1 0x9 PUSH1 0x20 MSTORE PUSH1 0x40 SWAP1 KECCAK256 PUSH1 0x4 ADD DUP1 SLOAD PUSH1 0xFF NOT AND PUSH1 0x1 OR SWAP1 SSTORE JUMP JUMPDEST PUSH1 0x0 DUP1 PUSH1 0x0 JUMPDEST PUSH1 0x4 SLOAD DUP8 SWAP1 DUP8 SWAP1 DUP4 SWAP1 PUSH2 0x2A97 SWAP1 PUSH1 0x1 PUSH2 0x2D51 JUMP JUMPDEST PUSH2 0x2AA1 SWAP2 SWAP1 PUSH2 0x2D51 JUMP JUMPDEST PUSH1 0x40 DUP1 MLOAD PUSH1 0x20 DUP2 ADD SWAP5 SWAP1 SWAP5 MSTORE DUP4 ADD SWAP2 SWAP1 SWAP2 MSTORE PUSH1 0x60 DUP3 ADD MSTORE TIMESTAMP PUSH1 0x80 DUP3 ADD MSTORE DIFFICULTY PUSH1 0xA0 DUP3 ADD MSTORE PUSH1 0xC0 ADD PUSH1 0x40 DUP1 MLOAD PUSH1 0x1F NOT DUP2 DUP5 SUB ADD DUP2 MSTORE SWAP2 DUP2 MSTORE DUP2 MLOAD PUSH1 0x20 SWAP3 DUP4 ADD KECCAK256 PUSH1 0x0 DUP2 DUP2 MSTORE PUSH1 0x9 SWAP1 SWAP4 MSTORE SWAP2 KECCAK256 PUSH1 0x2 ADD SLOAD SWAP1 SWAP3 POP PUSH2 0x2AFB JUMPI PUSH2 0x2B0D JUMP JUMPDEST DUP1 PUSH2 0x2B05 DUP2 PUSH2 0x2DBF JUMP JUMPDEST SWAP2 POP POP PUSH2 0x2A83 JUMP JUMPDEST POP PUSH1 0x40 DUP1 MLOAD PUSH1 0xA0 DUP2 ADD DUP3 MSTORE SWAP7 DUP8 MSTORE PUSH1 0x20 DUP1 DUP9 ADD SWAP7 DUP8 MSTORE DUP8 DUP3 ADD SWAP6 DUP7 MSTORE PUSH1 0x60 DUP9 ADD SWAP5 DUP6 MSTORE PUSH1 0x0 PUSH1 0x80 DUP10 ADD DUP2 DUP2 MSTORE DUP5 DUP3 MSTORE PUSH1 0x9 SWAP1 SWAP3 MSTORE SWAP2 DUP3 KECCAK256 SWAP8 MLOAD DUP9 SSTORE SWAP6 MLOAD PUSH1 0x1 DUP1 DUP10 ADD SWAP2 SWAP1 SWAP2 SSTORE SWAP5 MLOAD PUSH1 0x2 DUP9 ADD SSTORE SWAP3 MLOAD PUSH1 0x3 DUP8 ADD SSTORE SWAP4 MLOAD PUSH1 0x4 SWAP6 DUP7 ADD DUP1 SLOAD PUSH1 0xFF NOT AND SWAP2 ISZERO ISZERO SWAP2 SWAP1 SWAP2 OR SWAP1 SSTORE POP DUP4 SLOAD SWAP2 DUP3 ADD DUP5 SSTORE SWAP3 SWAP1 SWAP3 MSTORE PUSH32 0x8A35ACFBC15FF81A39AE7D344FD709F28E8600B4AA8C65C6B64BFE7FE36BD19B SWAP1 SWAP2 ADD DUP2 SWAP1 SSTORE SWAP1 JUMP JUMPDEST PUSH1 0x0 PUSH1 0x20 DUP3 DUP5 SUB SLT ISZERO PUSH2 0x2BBE JUMPI DUP1 DUP2 REVERT JUMPDEST DUP2 CALLDATALOAD PUSH2 0x2BC9 DUP2 PUSH2 0x2DF0 JUMP JUMPDEST SWAP4 SWAP3 POP POP POP JUMP JUMPDEST PUSH1 0x0 PUSH1 0x20 DUP3 DUP5 SUB SLT ISZERO PUSH2 0x2BE1 JUMPI DUP1 DUP2 REVERT JUMPDEST DUP2 MLOAD PUSH2 0x2BC9 DUP2 PUSH2 0x2DF0 JUMP JUMPDEST PUSH1 0x0 DUP1 PUSH1 0x0 DUP1 PUSH1 0x0 DUP1 PUSH1 0xC0 DUP8 DUP10 SUB SLT ISZERO PUSH2 0x2C04 JUMPI DUP2 DUP3 REVERT JUMPDEST DUP7 CALLDATALOAD PUSH2 0x2C0F DUP2 PUSH2 0x2DF0 JUMP JUMPDEST SWAP6 POP PUSH1 0x20 DUP8 ADD CALLDATALOAD PUSH2 0x2C1F DUP2 PUSH2 0x2DF0 JUMP JUMPDEST SWAP5 POP PUSH1 0x40 DUP8 ADD CALLDATALOAD SWAP4 POP PUSH1 0x60 DUP8 ADD CALLDATALOAD SWAP3 POP PUSH1 0x80 DUP8 ADD CALLDATALOAD SWAP2 POP PUSH1 0xA0 DUP8 ADD CALLDATALOAD PUSH2 0x2C44 DUP2 PUSH2 0x2E05 JUMP JUMPDEST DUP1 SWAP2 POP POP SWAP3 SWAP6 POP SWAP3 SWAP6 POP SWAP3 SWAP6 JUMP JUMPDEST PUSH1 0x0 PUSH1 0x20 DUP3 DUP5 SUB SLT ISZERO PUSH2 0x2C63 JUMPI DUP1 DUP2 REVERT JUMPDEST DUP2 MLOAD PUSH2 0x2BC9 DUP2 PUSH2 0x2E05 JUMP JUMPDEST PUSH1 0x0 PUSH1 0x20 DUP3 DUP5 SUB SLT ISZERO PUSH2 0x2C7F JUMPI DUP1 DUP2 REVERT JUMPDEST POP CALLDATALOAD SWAP2 SWAP1 POP JUMP JUMPDEST PUSH1 0x0 PUSH1 0x20 DUP3 DUP5 SUB SLT ISZERO PUSH2 0x2C97 JUMPI DUP1 DUP2 REVERT JUMPDEST POP MLOAD SWAP2 SWAP1 POP JUMP JUMPDEST PUSH1 0x20 DUP1 DUP3 MSTORE DUP3 MLOAD DUP3 DUP3 ADD DUP2 SWAP1 MSTORE PUSH1 0x0 SWAP2 SWAP1 PUSH1 0x40 SWAP1 DUP2 DUP6 ADD SWAP1 DUP7 DUP5 ADD DUP6 JUMPDEST DUP3 DUP2 LT ISZERO PUSH2 0x2D15 JUMPI DUP2 MLOAD DUP1 MLOAD PUSH1 0x1 PUSH1 0x1 PUSH1 0xA0 SHL SUB SWAP1 DUP2 AND DUP7 MSTORE DUP8 DUP3 ADD MLOAD AND DUP8 DUP7 ADD MSTORE DUP6 DUP2 ADD MLOAD DUP7 DUP7 ADD MSTORE PUSH1 0x60 DUP1 DUP3 ADD MLOAD SWAP1 DUP7 ADD MSTORE PUSH1 0x80 DUP1 DUP3 ADD MLOAD SWAP1 DUP7 ADD MSTORE PUSH1 0xA0 SWAP1 DUP2 ADD MLOAD SWAP1 DUP6 ADD MSTORE PUSH1 0xC0 SWAP1 SWAP4 ADD SWAP3 SWAP1 DUP6 ADD SWAP1 PUSH1 0x1 ADD PUSH2 0x2CBB JUMP JUMPDEST POP SWAP2 SWAP8 SWAP7 POP POP POP POP POP POP POP JUMP JUMPDEST PUSH1 0x20 DUP1 DUP3 MSTORE PUSH1 0x15 SWAP1 DUP3 ADD MSTORE PUSH21 0x18D85B1B195C881B9BDD08185D5D1A1BDC9A5E9959 PUSH1 0x5A SHL PUSH1 0x40 DUP3 ADD MSTORE PUSH1 0x60 ADD SWAP1 JUMP JUMPDEST PUSH1 0x0 DUP3 NOT DUP3 GT ISZERO PUSH2 0x2D64 JUMPI PUSH2 0x2D64 PUSH2 0x2DDA JUMP JUMPDEST POP ADD SWAP1 JUMP JUMPDEST PUSH1 0x0 DUP3 PUSH2 0x2D84 JUMPI PUSH4 0x4E487B71 PUSH1 0xE0 SHL DUP2 MSTORE PUSH1 0x12 PUSH1 0x4 MSTORE PUSH1 0x24 DUP2 REVERT JUMPDEST POP DIV SWAP1 JUMP JUMPDEST PUSH1 0x0 DUP2 PUSH1 0x0 NOT DIV DUP4 GT DUP3 ISZERO ISZERO AND ISZERO PUSH2 0x2DA3 JUMPI PUSH2 0x2DA3 PUSH2 0x2DDA JUMP JUMPDEST POP MUL SWAP1 JUMP JUMPDEST PUSH1 0x0 DUP3 DUP3 LT ISZERO PUSH2 0x2DBA JUMPI PUSH2 0x2DBA PUSH2 0x2DDA JUMP JUMPDEST POP SUB SWAP1 JUMP JUMPDEST PUSH1 0x0 PUSH1 0x0 NOT DUP3 EQ ISZERO PUSH2 0x2DD3 JUMPI PUSH2 0x2DD3 PUSH2 0x2DDA JUMP JUMPDEST POP PUSH1 0x1 ADD SWAP1 JUMP JUMPDEST PUSH4 0x4E487B71 PUSH1 0xE0 SHL PUSH1 0x0 MSTORE PUSH1 0x11 PUSH1 0x4 MSTORE PUSH1 0x24 PUSH1 0x0 REVERT JUMPDEST PUSH1 0x1 PUSH1 0x1 PUSH1 0xA0 SHL SUB DUP2 AND DUP2 EQ PUSH2 0x241 JUMPI PUSH1 0x0 DUP1 REVERT JUMPDEST DUP1 ISZERO ISZERO DUP2 EQ PUSH2 0x241 JUMPI PUSH1 0x0 DUP1 REVERT INVALID LOG2 PUSH5 0x6970667358 0x22 SLT KECCAK256 AND 0x28 PUSH9 0xE0BF5B179FE9245EC6 MULMOD 0xE6 0x27 0x22 GASLIMIT PUSH18 0x80A6192EB5FA0E8289F5A2C01CC464736F6C PUSH4 0x43000804 STOP CALLER "
				},
				"gasEstimates": {
					"creation": {
						"codeDepositCost": "2369800",
						"executionCost": "infinite",
						"totalCost": "infinite"
					},
					"external": {
						"addBet(address,address,uint256,uint256,uint256,bool)": "infinite",
						"cancel()": "infinite",
						"cancelBet(bytes32)": "infinite",
						"getBalance(address)": "1330",
						"getUserBets(address)": "infinite",
						"setWinningSide(uint256)": "infinite",
						"settle(uint256)": "infinite",
						"settleBet(bytes32)": "infinite",
						"start()": "infinite",
						"status()": "985",
						"withdraw(address)": "infinite",
						"withdrawPending(bytes32)": "infinite"
					},
					"internal": {
						"_cancelBetPairs(bytes32)": "infinite",
						"_cancelPair(bytes32)": "infinite",
						"_createBet(address,address,uint256,uint256,uint256,uint256)": "infinite",
						"_createPair(bytes32,bytes32,uint256,uint256)": "infinite",
						"_match(uint256,uint256,uint256,uint256,bytes32,bytes32)": "infinite",
						"_settlePair(bytes32)": "infinite"
					}
				},
				"methodIdentifiers": {
					"addBet(address,address,uint256,uint256,uint256,bool)": "78d65b2f",
					"cancel()": "ea8a1af0",
					"cancelBet(bytes32)": "2940ff1e",
					"getBalance(address)": "f8b2cb4f",
					"getUserBets(address)": "2d56657d",
					"setWinningSide(uint256)": "d0ed7295",
					"settle(uint256)": "8df82800",
					"settleBet(bytes32)": "675f6537",
					"start()": "be9a6555",
					"status()": "200d2ed2",
					"withdraw(address)": "51cff8d9",
					"withdrawPending(bytes32)": "7d7f9232"
				}
			},
			"storageLayout": {
				"storage": [
					{
						"astId": 10,
						"contract": "contracts/Market.sol:Market",
						"label": "_status",
						"offset": 0,
						"slot": "0",
						"type": "t_uint256"
					},
					{
						"astId": 128,
						"contract": "contracts/Market.sol:Market",
						"label": "owner",
						"offset": 0,
						"slot": "1",
						"type": "t_address"
					},
					{
						"astId": 130,
						"contract": "contracts/Market.sol:Market",
						"label": "factory",
						"offset": 0,
						"slot": "2",
						"type": "t_address"
					},
					{
						"astId": 134,
						"contract": "contracts/Market.sol:Market",
						"label": "status",
						"offset": 0,
						"slot": "3",
						"type": "t_uint256"
					},
					{
						"astId": 137,
						"contract": "contracts/Market.sol:Market",
						"label": "pairs",
						"offset": 0,
						"slot": "4",
						"type": "t_array(t_bytes32)dyn_storage"
					},
					{
						"astId": 140,
						"contract": "contracts/Market.sol:Market",
						"label": "bets",
						"offset": 0,
						"slot": "5",
						"type": "t_array(t_bytes32)dyn_storage"
					},
					{
						"astId": 144,
						"contract": "contracts/Market.sol:Market",
						"label": "bal",
						"offset": 0,
						"slot": "6",
						"type": "t_mapping(t_address,t_uint256)"
					},
					{
						"astId": 149,
						"contract": "contracts/Market.sol:Market",
						"label": "betsInfo",
						"offset": 0,
						"slot": "7",
						"type": "t_mapping(t_bytes32,t_struct(MarketBet)1941_storage)"
					},
					{
						"astId": 154,
						"contract": "contracts/Market.sol:Market",
						"label": "userBets",
						"offset": 0,
						"slot": "8",
						"type": "t_mapping(t_address,t_array(t_bytes32)dyn_storage)"
					},
					{
						"astId": 159,
						"contract": "contracts/Market.sol:Market",
						"label": "pairsInfo",
						"offset": 0,
						"slot": "9",
						"type": "t_mapping(t_bytes32,t_struct(MarketPair)1928_storage)"
					},
					{
						"astId": 164,
						"contract": "contracts/Market.sol:Market",
						"label": "betPairs",
						"offset": 0,
						"slot": "10",
						"type": "t_mapping(t_bytes32,t_array(t_bytes32)dyn_storage)"
					}
				],
				"types": {
					"t_address": {
						"encoding": "inplace",
						"label": "address",
						"numberOfBytes": "20"
					},
					"t_array(t_bytes32)dyn_storage": {
						"base": "t_bytes32",
						"encoding": "dynamic_array",
						"label": "bytes32[]",
						"numberOfBytes": "32"
					},
					"t_bool": {
						"encoding": "inplace",
						"label": "bool",
						"numberOfBytes": "1"
					},
					"t_bytes32": {
						"encoding": "inplace",
						"label": "bytes32",
						"numberOfBytes": "32"
					},
					"t_mapping(t_address,t_array(t_bytes32)dyn_storage)": {
						"encoding": "mapping",
						"key": "t_address",
						"label": "mapping(address => bytes32[])",
						"numberOfBytes": "32",
						"value": "t_array(t_bytes32)dyn_storage"
					},
					"t_mapping(t_address,t_uint256)": {
						"encoding": "mapping",
						"key": "t_address",
						"label": "mapping(address => uint256)",
						"numberOfBytes": "32",
						"value": "t_uint256"
					},
					"t_mapping(t_bytes32,t_array(t_bytes32)dyn_storage)": {
						"encoding": "mapping",
						"key": "t_bytes32",
						"label": "mapping(bytes32 => bytes32[])",
						"numberOfBytes": "32",
						"value": "t_array(t_bytes32)dyn_storage"
					},
					"t_mapping(t_bytes32,t_struct(MarketBet)1941_storage)": {
						"encoding": "mapping",
						"key": "t_bytes32",
						"label": "mapping(bytes32 => struct Struct.MarketBet)",
						"numberOfBytes": "32",
						"value": "t_struct(MarketBet)1941_storage"
					},
					"t_mapping(t_bytes32,t_struct(MarketPair)1928_storage)": {
						"encoding": "mapping",
						"key": "t_bytes32",
						"label": "mapping(bytes32 => struct Struct.MarketPair)",
						"numberOfBytes": "32",
						"value": "t_struct(MarketPair)1928_storage"
					},
					"t_struct(MarketBet)1941_storage": {
						"encoding": "inplace",
						"label": "struct Struct.MarketBet",
						"members": [
							{
								"astId": 1930,
								"contract": "contracts/Market.sol:Market",
								"label": "better",
								"offset": 0,
								"slot": "0",
								"type": "t_address"
							},
							{
								"astId": 1932,
								"contract": "contracts/Market.sol:Market",
								"label": "affiliate",
								"offset": 0,
								"slot": "1",
								"type": "t_address"
							},
							{
								"astId": 1934,
								"contract": "contracts/Market.sol:Market",
								"label": "stake",
								"offset": 0,
								"slot": "2",
								"type": "t_uint256"
							},
							{
								"astId": 1936,
								"contract": "contracts/Market.sol:Market",
								"label": "matched",
								"offset": 0,
								"slot": "3",
								"type": "t_uint256"
							},
							{
								"astId": 1938,
								"contract": "contracts/Market.sol:Market",
								"label": "odds",
								"offset": 0,
								"slot": "4",
								"type": "t_uint256"
							},
							{
								"astId": 1940,
								"contract": "contracts/Market.sol:Market",
								"label": "side",
								"offset": 0,
								"slot": "5",
								"type": "t_uint256"
							}
						],
						"numberOfBytes": "192"
					},
					"t_struct(MarketPair)1928_storage": {
						"encoding": "inplace",
						"label": "struct Struct.MarketPair",
						"members": [
							{
								"astId": 1919,
								"contract": "contracts/Market.sol:Market",
								"label": "betHashA",
								"offset": 0,
								"slot": "0",
								"type": "t_bytes32"
							},
							{
								"astId": 1921,
								"contract": "contracts/Market.sol:Market",
								"label": "betHashB",
								"offset": 0,
								"slot": "1",
								"type": "t_bytes32"
							},
							{
								"astId": 1923,
								"contract": "contracts/Market.sol:Market",
								"label": "amountA",
								"offset": 0,
								"slot": "2",
								"type": "t_uint256"
							},
							{
								"astId": 1925,
								"contract": "contracts/Market.sol:Market",
								"label": "amountB",
								"offset": 0,
								"slot": "3",
								"type": "t_uint256"
							},
							{
								"astId": 1927,
								"contract": "contracts/Market.sol:Market",
								"label": "settled",
								"offset": 0,
								"slot": "4",
								"type": "t_bool"
							}
						],
						"numberOfBytes": "160"
					},
					"t_uint256": {
						"encoding": "inplace",
						"label": "uint256",
						"numberOfBytes": "32"
					}
				}
			},
			"userdoc": {
				"kind": "user",
				"methods": {},
				"version": 1
			}
		}
	}
}