{
	"contracts/Bet.sol": {
		"Bet": {
			"abi": [
				{
					"inputs": [
						{
							"internalType": "address",
							"name": "caller_",
							"type": "address"
						},
						{
							"internalType": "address",
							"name": "marketAddress_",
							"type": "address"
						},
						{
							"internalType": "string",
							"name": "marketSide_",
							"type": "string"
						},
						{
							"internalType": "uint256",
							"name": "stake_",
							"type": "uint256"
						},
						{
							"internalType": "uint8",
							"name": "odds_",
							"type": "uint8"
						}
					],
					"stateMutability": "nonpayable",
					"type": "constructor"
				},
				{
					"inputs": [
						{
							"internalType": "address",
							"name": "_pairAddress",
							"type": "address"
						}
					],
					"name": "addPair",
					"outputs": [
						{
							"internalType": "bool",
							"name": "",
							"type": "bool"
						}
					],
					"stateMutability": "nonpayable",
					"type": "function"
				},
				{
					"inputs": [
						{
							"internalType": "uint256",
							"name": "",
							"type": "uint256"
						}
					],
					"name": "betPairs",
					"outputs": [
						{
							"internalType": "address",
							"name": "",
							"type": "address"
						}
					],
					"stateMutability": "view",
					"type": "function"
				},
				{
					"inputs": [],
					"name": "better",
					"outputs": [
						{
							"internalType": "address",
							"name": "",
							"type": "address"
						}
					],
					"stateMutability": "view",
					"type": "function"
				},
				{
					"inputs": [],
					"name": "getBetPairs",
					"outputs": [
						{
							"internalType": "address[]",
							"name": "",
							"type": "address[]"
						}
					],
					"stateMutability": "view",
					"type": "function"
				},
				{
					"inputs": [],
					"name": "marketAddress",
					"outputs": [
						{
							"internalType": "address",
							"name": "",
							"type": "address"
						}
					],
					"stateMutability": "view",
					"type": "function"
				},
				{
					"inputs": [],
					"name": "marketSide",
					"outputs": [
						{
							"internalType": "string",
							"name": "",
							"type": "string"
						}
					],
					"stateMutability": "view",
					"type": "function"
				},
				{
					"inputs": [],
					"name": "matched",
					"outputs": [
						{
							"internalType": "uint256",
							"name": "",
							"type": "uint256"
						}
					],
					"stateMutability": "view",
					"type": "function"
				},
				{
					"inputs": [],
					"name": "odds",
					"outputs": [
						{
							"internalType": "uint8",
							"name": "",
							"type": "uint8"
						}
					],
					"stateMutability": "view",
					"type": "function"
				},
				{
					"inputs": [
						{
							"internalType": "uint256",
							"name": "_amount",
							"type": "uint256"
						}
					],
					"name": "setMatched",
					"outputs": [
						{
							"internalType": "bool",
							"name": "",
							"type": "bool"
						}
					],
					"stateMutability": "nonpayable",
					"type": "function"
				},
				{
					"inputs": [],
					"name": "stake",
					"outputs": [
						{
							"internalType": "uint256",
							"name": "",
							"type": "uint256"
						}
					],
					"stateMutability": "view",
					"type": "function"
				},
				{
					"inputs": [],
					"name": "withdrawPending",
					"outputs": [
						{
							"internalType": "bool",
							"name": "",
							"type": "bool"
						}
					],
					"stateMutability": "nonpayable",
					"type": "function"
				}
			],
			"devdoc": {
				"kind": "dev",
				"methods": {},
				"version": 1
			},
			"evm": {
				"assembly": "    /* \"contracts/Bet.sol\":162:2558  contract Bet is IBet {... */\n  mstore(0x40, 0x80)\n    /* \"contracts/Bet.sol\":531:546  web3betsAddress */\n  sload(0x00)\n    /* \"contracts/Bet.sol\":488:547  IWeb3BetsFO private web3bets = IWeb3BetsFO(web3betsAddress) */\n  0x08\n  dup1\n  sload\n  not(sub(shl(0xa0, 0x01), 0x01))\n  and\n  sub(shl(0xa0, 0x01), 0x01)\n    /* \"contracts/Bet.sol\":531:546  web3betsAddress */\n  swap1\n  swap3\n  and\n    /* \"contracts/Bet.sol\":488:547  IWeb3BetsFO private web3bets = IWeb3BetsFO(web3betsAddress) */\n  swap2\n  swap1\n  swap2\n  or\n  swap1\n  sstore\n    /* \"contracts/Bet.sol\":887:1337  constructor(... */\n  callvalue\n  dup1\n  iszero\n  tag_1\n  jumpi\n  0x00\n  dup1\n  revert\ntag_1:\n  pop\n  mload(0x40)\n  sub(codesize, bytecodeSize)\n  dup1\n  bytecodeSize\n  dup4\n  codecopy\n  dup2\n  add\n  0x40\n  dup2\n  swap1\n  mstore\n  tag_2\n  swap2\n  tag_3\n  jump\t// in\ntag_2:\n    /* \"contracts/Bet.sol\":1074:1082  web3bets */\n  0x08\n  0x00\n  swap1\n  sload\n  swap1\n  0x0100\n  exp\n  swap1\n  div\n  sub(shl(0xa0, 0x01), 0x01)\n  and\n  sub(shl(0xa0, 0x01), 0x01)\n    /* \"contracts/Bet.sol\":1074:1090  web3bets.factory */\n  and\n  0xc45a0155\n    /* \"contracts/Bet.sol\":1074:1092  web3bets.factory() */\n  mload(0x40)\n  dup2\n  0xffffffff\n  and\n  0xe0\n  shl\n  dup2\n  mstore\n  0x04\n  add\n  0x20\n  mload(0x40)\n  dup1\n  dup4\n  sub\n  dup2\n  dup7\n  dup1\n  extcodesize\n  iszero\n  dup1\n  iszero\n  tag_6\n  jumpi\n  0x00\n  dup1\n  revert\ntag_6:\n  pop\n  gas\n  staticcall\n  iszero\n  dup1\n  iszero\n  tag_8\n  jumpi\n  returndatasize\n  0x00\n  dup1\n  returndatacopy\n  revert(0x00, returndatasize)\ntag_8:\n  pop\n  pop\n  pop\n  pop\n  mload(0x40)\n  returndatasize\n  not(0x1f)\n  0x1f\n  dup3\n  add\n  and\n  dup3\n  add\n  dup1\n  0x40\n  mstore\n  pop\n  dup2\n  add\n  swap1\n  tag_9\n  swap2\n  swap1\n  tag_10\n  jump\t// in\ntag_9:\n  sub(shl(0xa0, 0x01), 0x01)\n    /* \"contracts/Bet.sol\":1060:1092  msg.sender == web3bets.factory() */\n  and\n    /* \"contracts/Bet.sol\":1060:1070  msg.sender */\n  caller\n  sub(shl(0xa0, 0x01), 0x01)\n    /* \"contracts/Bet.sol\":1060:1092  msg.sender == web3bets.factory() */\n  and\n  eq\n    /* \"contracts/Bet.sol\":1052:1162  require(msg.sender == web3bets.factory(), \"only web3bets fixedodds factory contract can create this contract\") */\n  tag_11\n  jumpi\n  mload(0x40)\n  shl(0xe5, 0x461bcd)\n  dup2\n  mstore\n    /* \"#utility.yul\":2242:2244   */\n  0x20\n    /* \"contracts/Bet.sol\":1052:1162  require(msg.sender == web3bets.factory(), \"only web3bets fixedodds factory contract can create this contract\") */\n  0x04\n  dup3\n  add\n    /* \"#utility.yul\":2224:2245   */\n  mstore\n    /* \"#utility.yul\":2281:2283   */\n  0x41\n    /* \"#utility.yul\":2261:2279   */\n  0x24\n  dup3\n  add\n    /* \"#utility.yul\":2254:2284   */\n  mstore\n    /* \"#utility.yul\":2320:2354   */\n  0x6f6e6c792077656233626574732066697865646f64647320666163746f727920\n    /* \"#utility.yul\":2300:2318   */\n  0x44\n  dup3\n  add\n    /* \"#utility.yul\":2293:2355   */\n  mstore\n    /* \"#utility.yul\":2391:2425   */\n  0x636f6e74726163742063616e20637265617465207468697320636f6e74726163\n    /* \"#utility.yul\":2371:2389   */\n  0x64\n  dup3\n  add\n    /* \"#utility.yul\":2364:2426   */\n  mstore\n  shl(0xfa, 0x1d)\n    /* \"#utility.yul\":2442:2461   */\n  0x84\n  dup3\n  add\n    /* \"#utility.yul\":2435:2467   */\n  mstore\n    /* \"#utility.yul\":2484:2503   */\n  0xa4\n  add\n    /* \"contracts/Bet.sol\":1052:1162  require(msg.sender == web3bets.factory(), \"only web3bets fixedodds factory contract can create this contract\") */\n  mload(0x40)\n  dup1\n  swap2\n  sub\n  swap1\n  revert\ntag_11:\n    /* \"contracts/Bet.sol\":1172:1185  marketAddress */\n  0x02\n    /* \"contracts/Bet.sol\":1172:1202  marketAddress = marketAddress_ */\n  dup1\n  sload\n  not(sub(shl(0xa0, 0x01), 0x01))\n  and\n  sub(shl(0xa0, 0x01), 0x01)\n  dup7\n  and\n  or\n  swap1\n  sstore\n    /* \"contracts/Bet.sol\":1212:1236  marketSide = marketSide_ */\n  dup3\n  mload\n  tag_14\n  swap1\n    /* \"contracts/Bet.sol\":1212:1222  marketSide */\n  0x07\n  swap1\n    /* \"contracts/Bet.sol\":1212:1236  marketSide = marketSide_ */\n  0x20\n  dup7\n  add\n  swap1\n  tag_15\n  jump\t// in\ntag_14:\n  pop\n    /* \"contracts/Bet.sol\":1246:1251  stake */\n  0x03\n    /* \"contracts/Bet.sol\":1246:1260  stake = stake_ */\n  swap2\n  swap1\n  swap2\n  sstore\n    /* \"contracts/Bet.sol\":1270:1274  odds */\n  0x05\n    /* \"contracts/Bet.sol\":1270:1282  odds = odds_ */\n  dup1\n  sload\n  not(0xff)\n  and\n  0xff\n  swap1\n  swap3\n  and\n  swap2\n  swap1\n  swap2\n  or\n  swap1\n  sstore\n  pop\n  pop\n  0x01\n    /* \"contracts/Bet.sol\":1292:1308  better = caller_ */\n  dup1\n  sload\n  not(sub(shl(0xa0, 0x01), 0x01))\n  and\n  sub(shl(0xa0, 0x01), 0x01)\n  swap3\n  swap1\n  swap3\n  and\n  swap2\n  swap1\n  swap2\n  or\n  swap1\n  sstore\n  0x00\n  0x04\n    /* \"contracts/Bet.sol\":1318:1329  matched = 0 */\n  sstore\n    /* \"contracts/Bet.sol\":162:2558  contract Bet is IBet {... */\n  jump(tag_28)\ntag_15:\n  dup3\n  dup1\n  sload\n  tag_17\n  swap1\n  tag_18\n  jump\t// in\ntag_17:\n  swap1\n  0x00\n  mstore\n  keccak256(0x00, 0x20)\n  swap1\n  0x1f\n  add\n  0x20\n  swap1\n  div\n  dup2\n  add\n  swap3\n  dup3\n  tag_20\n  jumpi\n  0x00\n  dup6\n  sstore\n  jump(tag_23)\ntag_20:\n  dup3\n  0x1f\n  lt\n  tag_21\n  jumpi\n  dup1\n  mload\n  not(0xff)\n  and\n  dup4\n  dup1\n  add\n  or\n  dup6\n  sstore\n  jump(tag_23)\ntag_21:\n  dup3\n  dup1\n  add\n  0x01\n  add\n  dup6\n  sstore\n  dup3\n  iszero\n  tag_23\n  jumpi\n  swap2\n  dup3\n  add\ntag_22:\n  dup3\n  dup2\n  gt\n  iszero\n  tag_23\n  jumpi\n  dup3\n  mload\n  dup3\n  sstore\n  swap2\n  0x20\n  add\n  swap2\n  swap1\n  0x01\n  add\n  swap1\n  jump(tag_22)\ntag_23:\n  pop\n  tag_24\n  swap3\n  swap2\n  pop\n  tag_25\n  jump\t// in\ntag_24:\n  pop\n  swap1\n  jump\t// out\ntag_25:\ntag_26:\n  dup1\n  dup3\n  gt\n  iszero\n  tag_24\n  jumpi\n  0x00\n  dup2\n  sstore\n  0x01\n  add\n  jump(tag_26)\n    /* \"#utility.yul\":14:191   */\ntag_29:\n    /* \"#utility.yul\":93:106   */\n  dup1\n  mload\n  sub(shl(0xa0, 0x01), 0x01)\n    /* \"#utility.yul\":135:166   */\n  dup2\n  and\n    /* \"#utility.yul\":125:167   */\n  dup2\n  eq\n    /* \"#utility.yul\":115:117   */\n  tag_31\n  jumpi\n    /* \"#utility.yul\":181:182   */\n  0x00\n    /* \"#utility.yul\":178:179   */\n  dup1\n    /* \"#utility.yul\":171:183   */\n  revert\n    /* \"#utility.yul\":115:117   */\ntag_31:\n    /* \"#utility.yul\":74:191   */\n  swap2\n  swap1\n  pop\n  jump\t// out\n    /* \"#utility.yul\":196:356   */\ntag_32:\n    /* \"#utility.yul\":273:286   */\n  dup1\n  mload\n    /* \"#utility.yul\":326:330   */\n  0xff\n    /* \"#utility.yul\":315:331   */\n  dup2\n  and\n    /* \"#utility.yul\":305:332   */\n  dup2\n  eq\n    /* \"#utility.yul\":295:297   */\n  tag_31\n  jumpi\n    /* \"#utility.yul\":346:347   */\n  0x00\n    /* \"#utility.yul\":343:344   */\n  dup1\n    /* \"#utility.yul\":336:348   */\n  revert\n    /* \"#utility.yul\":361:579   */\ntag_10:\n    /* \"#utility.yul\":431:437   */\n  0x00\n    /* \"#utility.yul\":484:486   */\n  0x20\n    /* \"#utility.yul\":472:481   */\n  dup3\n    /* \"#utility.yul\":463:470   */\n  dup5\n    /* \"#utility.yul\":459:482   */\n  sub\n    /* \"#utility.yul\":455:487   */\n  slt\n    /* \"#utility.yul\":452:454   */\n  iszero\n  tag_36\n  jumpi\n    /* \"#utility.yul\":505:511   */\n  dup1\n    /* \"#utility.yul\":497:503   */\n  dup2\n    /* \"#utility.yul\":490:512   */\n  revert\n    /* \"#utility.yul\":452:454   */\ntag_36:\n    /* \"#utility.yul\":533:573   */\n  tag_37\n    /* \"#utility.yul\":563:572   */\n  dup3\n    /* \"#utility.yul\":533:573   */\n  tag_29\n  jump\t// in\ntag_37:\n    /* \"#utility.yul\":523:573   */\n  swap4\n    /* \"#utility.yul\":442:579   */\n  swap3\n  pop\n  pop\n  pop\n  jump\t// out\n    /* \"#utility.yul\":584:2035   */\ntag_3:\n    /* \"#utility.yul\":698:704   */\n  0x00\n    /* \"#utility.yul\":706:712   */\n  dup1\n    /* \"#utility.yul\":714:720   */\n  0x00\n    /* \"#utility.yul\":722:728   */\n  dup1\n    /* \"#utility.yul\":730:736   */\n  0x00\n    /* \"#utility.yul\":783:786   */\n  0xa0\n    /* \"#utility.yul\":771:780   */\n  dup7\n    /* \"#utility.yul\":762:769   */\n  dup9\n    /* \"#utility.yul\":758:781   */\n  sub\n    /* \"#utility.yul\":754:787   */\n  slt\n    /* \"#utility.yul\":751:753   */\n  iszero\n  tag_39\n  jumpi\n    /* \"#utility.yul\":805:811   */\n  dup1\n    /* \"#utility.yul\":797:803   */\n  dup2\n    /* \"#utility.yul\":790:812   */\n  revert\n    /* \"#utility.yul\":751:753   */\ntag_39:\n    /* \"#utility.yul\":833:873   */\n  tag_40\n    /* \"#utility.yul\":863:872   */\n  dup7\n    /* \"#utility.yul\":833:873   */\n  tag_29\n  jump\t// in\ntag_40:\n    /* \"#utility.yul\":823:873   */\n  swap5\n  pop\n    /* \"#utility.yul\":892:894   */\n  0x20\n    /* \"#utility.yul\":913:962   */\n  tag_41\n    /* \"#utility.yul\":958:960   */\n  dup2\n    /* \"#utility.yul\":947:956   */\n  dup9\n    /* \"#utility.yul\":943:961   */\n  add\n    /* \"#utility.yul\":913:962   */\n  tag_29\n  jump\t// in\ntag_41:\n    /* \"#utility.yul\":1006:1008   */\n  0x40\n    /* \"#utility.yul\":991:1009   */\n  dup9\n  add\n    /* \"#utility.yul\":985:1010   */\n  mload\n    /* \"#utility.yul\":903:962   */\n  swap1\n  swap6\n  pop\n  sub(shl(0x40, 0x01), 0x01)\n    /* \"#utility.yul\":1059:1073   */\n  dup1\n  dup3\n  gt\n    /* \"#utility.yul\":1056:1058   */\n  iszero\n  tag_42\n  jumpi\n    /* \"#utility.yul\":1091:1097   */\n  dup4\n    /* \"#utility.yul\":1083:1089   */\n  dup5\n    /* \"#utility.yul\":1076:1098   */\n  revert\n    /* \"#utility.yul\":1056:1058   */\ntag_42:\n    /* \"#utility.yul\":1134:1140   */\n  dup2\n    /* \"#utility.yul\":1123:1132   */\n  dup10\n    /* \"#utility.yul\":1119:1141   */\n  add\n    /* \"#utility.yul\":1109:1141   */\n  swap2\n  pop\n    /* \"#utility.yul\":1179:1186   */\n  dup10\n    /* \"#utility.yul\":1172:1176   */\n  0x1f\n    /* \"#utility.yul\":1168:1170   */\n  dup4\n    /* \"#utility.yul\":1164:1177   */\n  add\n    /* \"#utility.yul\":1160:1187   */\n  slt\n    /* \"#utility.yul\":1150:1152   */\n  tag_43\n  jumpi\n    /* \"#utility.yul\":1206:1212   */\n  dup4\n    /* \"#utility.yul\":1198:1204   */\n  dup5\n    /* \"#utility.yul\":1191:1213   */\n  revert\n    /* \"#utility.yul\":1150:1152   */\ntag_43:\n    /* \"#utility.yul\":1240:1242   */\n  dup2\n    /* \"#utility.yul\":1234:1243   */\n  mload\n    /* \"#utility.yul\":1262:1264   */\n  dup2\n    /* \"#utility.yul\":1258:1260   */\n  dup2\n    /* \"#utility.yul\":1255:1265   */\n  gt\n    /* \"#utility.yul\":1252:1254   */\n  iszero\n  tag_45\n  jumpi\n    /* \"#utility.yul\":1268:1286   */\n  tag_45\n  tag_46\n  jump\t// in\ntag_45:\n    /* \"#utility.yul\":1343:1345   */\n  0x40\n    /* \"#utility.yul\":1337:1346   */\n  mload\n    /* \"#utility.yul\":1311:1313   */\n  0x1f\n    /* \"#utility.yul\":1397:1410   */\n  dup3\n  add\n  not(0x1f)\n    /* \"#utility.yul\":1393:1415   */\n  swap1\n  dup2\n  and\n    /* \"#utility.yul\":1417:1419   */\n  0x3f\n    /* \"#utility.yul\":1389:1420   */\n  add\n    /* \"#utility.yul\":1385:1425   */\n  and\n    /* \"#utility.yul\":1373:1426   */\n  dup2\n  add\n  swap1\n    /* \"#utility.yul\":1441:1459   */\n  dup4\n  dup3\n  gt\n    /* \"#utility.yul\":1461:1483   */\n  dup2\n  dup4\n  lt\n    /* \"#utility.yul\":1438:1484   */\n  or\n    /* \"#utility.yul\":1435:1437   */\n  iszero\n  tag_48\n  jumpi\n    /* \"#utility.yul\":1487:1505   */\n  tag_48\n  tag_46\n  jump\t// in\ntag_48:\n    /* \"#utility.yul\":1527:1537   */\n  dup2\n    /* \"#utility.yul\":1523:1525   */\n  0x40\n    /* \"#utility.yul\":1516:1538   */\n  mstore\n    /* \"#utility.yul\":1562:1564   */\n  dup3\n    /* \"#utility.yul\":1554:1560   */\n  dup2\n    /* \"#utility.yul\":1547:1565   */\n  mstore\n    /* \"#utility.yul\":1602:1609   */\n  dup13\n    /* \"#utility.yul\":1597:1599   */\n  dup7\n    /* \"#utility.yul\":1592:1594   */\n  dup5\n    /* \"#utility.yul\":1588:1590   */\n  dup8\n    /* \"#utility.yul\":1584:1595   */\n  add\n    /* \"#utility.yul\":1580:1600   */\n  add\n    /* \"#utility.yul\":1577:1610   */\n  gt\n    /* \"#utility.yul\":1574:1576   */\n  iszero\n  tag_49\n  jumpi\n    /* \"#utility.yul\":1628:1634   */\n  dup7\n    /* \"#utility.yul\":1620:1626   */\n  dup8\n    /* \"#utility.yul\":1613:1635   */\n  revert\n    /* \"#utility.yul\":1574:1576   */\ntag_49:\n    /* \"#utility.yul\":1655:1661   */\n  dup7\n    /* \"#utility.yul\":1646:1661   */\n  swap4\n  pop\n    /* \"#utility.yul\":1670:1799   */\ntag_50:\n    /* \"#utility.yul\":1684:1686   */\n  dup3\n    /* \"#utility.yul\":1681:1682   */\n  dup5\n    /* \"#utility.yul\":1678:1687   */\n  lt\n    /* \"#utility.yul\":1670:1799   */\n  iszero\n  tag_52\n  jumpi\n    /* \"#utility.yul\":1772:1782   */\n  dup5\n  dup5\n  add\n    /* \"#utility.yul\":1768:1787   */\n  dup7\n  add\n    /* \"#utility.yul\":1762:1788   */\n  mload\n    /* \"#utility.yul\":1741:1755   */\n  dup2\n  dup6\n  add\n    /* \"#utility.yul\":1737:1760   */\n  dup8\n  add\n    /* \"#utility.yul\":1730:1789   */\n  mstore\n    /* \"#utility.yul\":1695:1705   */\n  swap3\n  dup6\n  add\n  swap3\n    /* \"#utility.yul\":1670:1799   */\n  jump(tag_50)\ntag_52:\n    /* \"#utility.yul\":1817:1819   */\n  dup3\n    /* \"#utility.yul\":1814:1815   */\n  dup5\n    /* \"#utility.yul\":1811:1820   */\n  gt\n    /* \"#utility.yul\":1808:1810   */\n  iszero\n  tag_53\n  jumpi\n    /* \"#utility.yul\":1876:1882   */\n  dup7\n    /* \"#utility.yul\":1871:1873   */\n  dup7\n    /* \"#utility.yul\":1866:1868   */\n  dup5\n    /* \"#utility.yul\":1858:1864   */\n  dup4\n    /* \"#utility.yul\":1854:1869   */\n  add\n    /* \"#utility.yul\":1850:1874   */\n  add\n    /* \"#utility.yul\":1843:1883   */\n  mstore\n    /* \"#utility.yul\":1808:1810   */\ntag_53:\n    /* \"#utility.yul\":1912:1918   */\n  dup1\n    /* \"#utility.yul\":1902:1918   */\n  swap9\n  pop\n  pop\n  pop\n  pop\n  pop\n  pop\n  pop\n    /* \"#utility.yul\":1958:1960   */\n  0x60\n    /* \"#utility.yul\":1947:1956   */\n  dup7\n    /* \"#utility.yul\":1943:1961   */\n  add\n    /* \"#utility.yul\":1937:1962   */\n  mload\n    /* \"#utility.yul\":1927:1962   */\n  swap2\n  pop\n    /* \"#utility.yul\":1981:2029   */\n  tag_54\n    /* \"#utility.yul\":2024:2027   */\n  0x80\n    /* \"#utility.yul\":2013:2022   */\n  dup8\n    /* \"#utility.yul\":2009:2028   */\n  add\n    /* \"#utility.yul\":1981:2029   */\n  tag_32\n  jump\t// in\ntag_54:\n    /* \"#utility.yul\":1971:2029   */\n  swap1\n  pop\n    /* \"#utility.yul\":741:2035   */\n  swap3\n  swap6\n  pop\n  swap3\n  swap6\n  swap1\n  swap4\n  pop\n  jump\t// out\n    /* \"#utility.yul\":2514:2894   */\ntag_18:\n    /* \"#utility.yul\":2593:2594   */\n  0x01\n    /* \"#utility.yul\":2589:2601   */\n  dup2\n  dup2\n  shr\n  swap1\n    /* \"#utility.yul\":2636:2648   */\n  dup3\n  and\n  dup1\n    /* \"#utility.yul\":2657:2659   */\n  tag_57\n  jumpi\n    /* \"#utility.yul\":2711:2715   */\n  0x7f\n    /* \"#utility.yul\":2703:2709   */\n  dup3\n    /* \"#utility.yul\":2699:2716   */\n  and\n    /* \"#utility.yul\":2689:2716   */\n  swap2\n  pop\n    /* \"#utility.yul\":2657:2659   */\ntag_57:\n    /* \"#utility.yul\":2764:2766   */\n  0x20\n    /* \"#utility.yul\":2756:2762   */\n  dup3\n    /* \"#utility.yul\":2753:2767   */\n  lt\n    /* \"#utility.yul\":2733:2751   */\n  dup2\n    /* \"#utility.yul\":2730:2768   */\n  eq\n    /* \"#utility.yul\":2727:2729   */\n  iszero\n  tag_58\n  jumpi\n    /* \"#utility.yul\":2810:2820   */\n  0x4e487b71\n    /* \"#utility.yul\":2805:2808   */\n  0xe0\n    /* \"#utility.yul\":2801:2821   */\n  shl\n    /* \"#utility.yul\":2798:2799   */\n  0x00\n    /* \"#utility.yul\":2791:2822   */\n  mstore\n    /* \"#utility.yul\":2845:2849   */\n  0x22\n    /* \"#utility.yul\":2842:2843   */\n  0x04\n    /* \"#utility.yul\":2835:2850   */\n  mstore\n    /* \"#utility.yul\":2873:2877   */\n  0x24\n    /* \"#utility.yul\":2870:2871   */\n  0x00\n    /* \"#utility.yul\":2863:2878   */\n  revert\n    /* \"#utility.yul\":2727:2729   */\ntag_58:\n  pop\n    /* \"#utility.yul\":2569:2894   */\n  swap2\n  swap1\n  pop\n  jump\t// out\n    /* \"#utility.yul\":2899:3026   */\ntag_46:\n    /* \"#utility.yul\":2960:2970   */\n  0x4e487b71\n    /* \"#utility.yul\":2955:2958   */\n  0xe0\n    /* \"#utility.yul\":2951:2971   */\n  shl\n    /* \"#utility.yul\":2948:2949   */\n  0x00\n    /* \"#utility.yul\":2941:2972   */\n  mstore\n    /* \"#utility.yul\":2991:2995   */\n  0x41\n    /* \"#utility.yul\":2988:2989   */\n  0x04\n    /* \"#utility.yul\":2981:2996   */\n  mstore\n    /* \"#utility.yul\":3015:3019   */\n  0x24\n    /* \"#utility.yul\":3012:3013   */\n  0x00\n    /* \"#utility.yul\":3005:3020   */\n  revert\n    /* \"#utility.yul\":2931:3026   */\ntag_28:\n    /* \"contracts/Bet.sol\":162:2558  contract Bet is IBet {... */\n  dataSize(sub_0)\n  dup1\n  dataOffset(sub_0)\n  0x00\n  codecopy\n  0x00\n  return\nstop\n\nsub_0: assembly {\n        /* \"contracts/Bet.sol\":162:2558  contract Bet is IBet {... */\n      mstore(0x40, 0x80)\n      callvalue\n      dup1\n      iszero\n      tag_1\n      jumpi\n      0x00\n      dup1\n      revert\n    tag_1:\n      pop\n      jumpi(tag_2, lt(calldatasize, 0x04))\n      shr(0xe0, calldataload(0x00))\n      dup1\n      0x7edbceb1\n      gt\n      tag_14\n      jumpi\n      dup1\n      0x7edbceb1\n      eq\n      tag_8\n      jumpi\n      dup1\n      0x8aac9cca\n      eq\n      tag_9\n      jumpi\n      dup1\n      0x95623641\n      eq\n      tag_10\n      jumpi\n      dup1\n      0xa89bc05b\n      eq\n      tag_11\n      jumpi\n      dup1\n      0xc2b7bbb6\n      eq\n      tag_12\n      jumpi\n      dup1\n      0xfa6ead20\n      eq\n      tag_13\n      jumpi\n      0x00\n      dup1\n      revert\n    tag_14:\n      dup1\n      0x12713ee4\n      eq\n      tag_3\n      jumpi\n      dup1\n      0x233de126\n      eq\n      tag_4\n      jumpi\n      dup1\n      0x3a4b66f1\n      eq\n      tag_5\n      jumpi\n      dup1\n      0x5a4cfc06\n      eq\n      tag_6\n      jumpi\n      dup1\n      0x718c7d44\n      eq\n      tag_7\n      jumpi\n    tag_2:\n      0x00\n      dup1\n      revert\n        /* \"contracts/Bet.sol\":1343:1447  function getBetPairs() external view override returns (address[] memory){... */\n    tag_3:\n      tag_15\n      tag_16\n      jump\t// in\n    tag_15:\n      mload(0x40)\n      tag_17\n      swap2\n      swap1\n      tag_18\n      jump\t// in\n    tag_17:\n      mload(0x40)\n      dup1\n      swap2\n      sub\n      swap1\n      return\n        /* \"contracts/Bet.sol\":382:408  uint8 public override odds */\n    tag_4:\n      sload(0x05)\n      tag_19\n      swap1\n      0xff\n      and\n      dup2\n      jump\n    tag_19:\n      mload(0x40)\n        /* \"#utility.yul\":3949:3953   */\n      0xff\n        /* \"#utility.yul\":3937:3954   */\n      swap1\n      swap2\n      and\n        /* \"#utility.yul\":3919:3955   */\n      dup2\n      mstore\n        /* \"#utility.yul\":3907:3909   */\n      0x20\n        /* \"#utility.yul\":3892:3910   */\n      add\n        /* \"contracts/Bet.sol\":382:408  uint8 public override odds */\n      tag_17\n        /* \"#utility.yul\":3874:3961   */\n      jump\n        /* \"contracts/Bet.sol\":308:337  uint256 public override stake */\n    tag_5:\n      tag_23\n      sload(0x03)\n      dup2\n      jump\n    tag_23:\n      mload(0x40)\n        /* \"#utility.yul\":3741:3766   */\n      swap1\n      dup2\n      mstore\n        /* \"#utility.yul\":3729:3731   */\n      0x20\n        /* \"#utility.yul\":3714:3732   */\n      add\n        /* \"contracts/Bet.sol\":308:337  uint256 public override stake */\n      tag_17\n        /* \"#utility.yul\":3696:3772   */\n      jump\n        /* \"contracts/Bet.sol\":2241:2374  function setMatched(uint _amount) external override onlyMarket returns(bool) {... */\n    tag_6:\n      tag_27\n      tag_28\n      calldatasize\n      0x04\n      tag_29\n      jump\t// in\n    tag_28:\n      tag_30\n      jump\t// in\n    tag_27:\n      mload(0x40)\n        /* \"#utility.yul\":1776:1790   */\n      swap1\n      iszero\n        /* \"#utility.yul\":1769:1791   */\n      iszero\n        /* \"#utility.yul\":1751:1792   */\n      dup2\n      mstore\n        /* \"#utility.yul\":1739:1741   */\n      0x20\n        /* \"#utility.yul\":1724:1742   */\n      add\n        /* \"contracts/Bet.sol\":2241:2374  function setMatched(uint _amount) external override onlyMarket returns(bool) {... */\n      tag_17\n        /* \"#utility.yul\":1706:1798   */\n      jump\n        /* \"contracts/Bet.sol\":227:257  address public override better */\n    tag_7:\n      sload(0x01)\n      tag_33\n      swap1\n      sub(shl(0xa0, 0x01), 0x01)\n      and\n      dup2\n      jump\n    tag_33:\n      mload(0x40)\n      sub(shl(0xa0, 0x01), 0x01)\n        /* \"#utility.yul\":901:933   */\n      swap1\n      swap2\n      and\n        /* \"#utility.yul\":883:934   */\n      dup2\n      mstore\n        /* \"#utility.yul\":871:873   */\n      0x20\n        /* \"#utility.yul\":856:874   */\n      add\n        /* \"contracts/Bet.sol\":227:257  address public override better */\n      tag_17\n        /* \"#utility.yul\":838:940   */\n      jump\n        /* \"contracts/Bet.sol\":2381:2556  function withdrawPending() external override onlyBetter returns(bool){... */\n    tag_8:\n      tag_27\n      tag_38\n      jump\t// in\n        /* \"contracts/Bet.sol\":344:375  uint256 public override matched */\n    tag_9:\n      tag_23\n      sload(0x04)\n      dup2\n      jump\n        /* \"contracts/Bet.sol\":264:301  address public override marketAddress */\n    tag_10:\n      sload(0x02)\n      tag_33\n      swap1\n      sub(shl(0xa0, 0x01), 0x01)\n      and\n      dup2\n      jump\n        /* \"contracts/Bet.sol\":415:440  address[] public betPairs */\n    tag_11:\n      tag_33\n      tag_47\n      calldatasize\n      0x04\n      tag_29\n      jump\t// in\n    tag_47:\n      tag_48\n      jump\t// in\n        /* \"contracts/Bet.sol\":1981:2235  function addPair(address _pairAddress) external override onlyMarket returns(bool) {... */\n    tag_12:\n      tag_27\n      tag_51\n      calldatasize\n      0x04\n      tag_52\n      jump\t// in\n    tag_51:\n      tag_53\n      jump\t// in\n        /* \"contracts/Bet.sol\":447:481  string  public override marketSide */\n    tag_13:\n      tag_55\n      tag_56\n      jump\t// in\n    tag_55:\n      mload(0x40)\n      tag_17\n      swap2\n      swap1\n      tag_58\n      jump\t// in\n        /* \"contracts/Bet.sol\":1343:1447  function getBetPairs() external view override returns (address[] memory){... */\n    tag_16:\n        /* \"contracts/Bet.sol\":1398:1414  address[] memory */\n      0x60\n        /* \"contracts/Bet.sol\":1432:1440  betPairs */\n      0x06\n        /* \"contracts/Bet.sol\":1425:1440  return betPairs */\n      dup1\n      sload\n      dup1\n      0x20\n      mul\n      0x20\n      add\n      mload(0x40)\n      swap1\n      dup2\n      add\n      0x40\n      mstore\n      dup1\n      swap3\n      swap2\n      swap1\n      dup2\n      dup2\n      mstore\n      0x20\n      add\n      dup3\n      dup1\n      sload\n      dup1\n      iszero\n      tag_60\n      jumpi\n      0x20\n      mul\n      dup3\n      add\n      swap2\n      swap1\n      0x00\n      mstore\n      keccak256(0x00, 0x20)\n      swap1\n    tag_61:\n      dup2\n      sload\n      sub(shl(0xa0, 0x01), 0x01)\n      and\n      dup2\n      mstore\n      0x01\n      swap1\n      swap2\n      add\n      swap1\n      0x20\n      add\n      dup1\n      dup4\n      gt\n      tag_61\n      jumpi\n    tag_60:\n      pop\n      pop\n      pop\n      pop\n      pop\n      swap1\n      pop\n        /* \"contracts/Bet.sol\":1343:1447  function getBetPairs() external view override returns (address[] memory){... */\n      swap1\n      jump\t// out\n        /* \"contracts/Bet.sol\":2241:2374  function setMatched(uint _amount) external override onlyMarket returns(bool) {... */\n    tag_30:\n        /* \"contracts/Bet.sol\":784:797  marketAddress */\n      sload(0x02)\n        /* \"contracts/Bet.sol\":2312:2316  bool */\n      0x00\n      swap1\n      sub(shl(0xa0, 0x01), 0x01)\n        /* \"contracts/Bet.sol\":784:797  marketAddress */\n      and\n        /* \"contracts/Bet.sol\":770:780  msg.sender */\n      caller\n        /* \"contracts/Bet.sol\":770:797  msg.sender == marketAddress */\n      eq\n        /* \"contracts/Bet.sol\":749:863  require(... */\n      tag_63\n      jumpi\n      mload(0x40)\n      shl(0xe5, 0x461bcd)\n      dup2\n      mstore\n      0x04\n      add\n      tag_64\n      swap1\n      tag_65\n      jump\t// in\n    tag_64:\n      mload(0x40)\n      dup1\n      swap2\n      sub\n      swap1\n      revert\n    tag_63:\n        /* \"contracts/Bet.sol\":2339:2346  _amount */\n      dup2\n        /* \"contracts/Bet.sol\":2328:2335  matched */\n      0x04\n      0x00\n        /* \"contracts/Bet.sol\":2328:2346  matched += _amount */\n      dup3\n      dup3\n      sload\n      tag_67\n      swap2\n      swap1\n      tag_68\n      jump\t// in\n    tag_67:\n      swap1\n      swap2\n      sstore\n      pop\n        /* \"contracts/Bet.sol\":2363:2367  true */\n      0x01\n      swap4\n        /* \"contracts/Bet.sol\":2241:2374  function setMatched(uint _amount) external override onlyMarket returns(bool) {... */\n      swap3\n      pop\n      pop\n      pop\n      jump\t// out\n        /* \"contracts/Bet.sol\":2381:2556  function withdrawPending() external override onlyBetter returns(bool){... */\n    tag_38:\n        /* \"contracts/Bet.sol\":621:627  better */\n      sload(0x01)\n        /* \"contracts/Bet.sol\":2445:2449  bool */\n      0x00\n      swap1\n      sub(shl(0xa0, 0x01), 0x01)\n        /* \"contracts/Bet.sol\":621:627  better */\n      and\n        /* \"contracts/Bet.sol\":607:617  msg.sender */\n      caller\n        /* \"contracts/Bet.sol\":607:627  msg.sender == better */\n      eq\n        /* \"contracts/Bet.sol\":586:693  require(... */\n      tag_70\n      jumpi\n      mload(0x40)\n      shl(0xe5, 0x461bcd)\n      dup2\n      mstore\n      0x04\n      add\n      tag_64\n      swap1\n      tag_65\n      jump\t// in\n    tag_70:\n        /* \"contracts/Bet.sol\":2492:2493  0 */\n      0x00\n        /* \"contracts/Bet.sol\":2468:2489  address(this).balance */\n      selfbalance\n        /* \"contracts/Bet.sol\":2468:2493  address(this).balance > 0 */\n      gt\n        /* \"contracts/Bet.sol\":2460:2519  require(address(this).balance > 0, \"This bet has no funds\") */\n      tag_73\n      jumpi\n      mload(0x40)\n      shl(0xe5, 0x461bcd)\n      dup2\n      mstore\n        /* \"#utility.yul\":2613:2615   */\n      0x20\n        /* \"contracts/Bet.sol\":2460:2519  require(address(this).balance > 0, \"This bet has no funds\") */\n      0x04\n      dup3\n      add\n        /* \"#utility.yul\":2595:2616   */\n      mstore\n        /* \"#utility.yul\":2652:2654   */\n      0x15\n        /* \"#utility.yul\":2632:2650   */\n      0x24\n      dup3\n      add\n        /* \"#utility.yul\":2625:2655   */\n      mstore\n      shl(0x58, 0x546869732062657420686173206e6f2066756e6473)\n        /* \"#utility.yul\":2671:2689   */\n      0x44\n      dup3\n      add\n        /* \"#utility.yul\":2664:2715   */\n      mstore\n        /* \"#utility.yul\":2732:2750   */\n      0x64\n      add\n        /* \"contracts/Bet.sol\":2460:2519  require(address(this).balance > 0, \"This bet has no funds\") */\n      tag_64\n        /* \"#utility.yul\":2585:2756   */\n      jump\n        /* \"contracts/Bet.sol\":2460:2519  require(address(this).balance > 0, \"This bet has no funds\") */\n    tag_73:\n      pop\n        /* \"contracts/Bet.sol\":2545:2549  true */\n      0x01\n        /* \"contracts/Bet.sol\":2381:2556  function withdrawPending() external override onlyBetter returns(bool){... */\n      swap1\n      jump\t// out\n        /* \"contracts/Bet.sol\":415:440  address[] public betPairs */\n    tag_48:\n      0x06\n      dup2\n      dup2\n      sload\n      dup2\n      lt\n      tag_76\n      jumpi\n      0x00\n      dup1\n      revert\n    tag_76:\n      0x00\n      swap2\n      dup3\n      mstore\n      0x20\n      swap1\n      swap2\n      keccak256\n      add\n      sload\n      sub(shl(0xa0, 0x01), 0x01)\n      and\n      swap1\n      pop\n      dup2\n      jump\t// out\n        /* \"contracts/Bet.sol\":1981:2235  function addPair(address _pairAddress) external override onlyMarket returns(bool) {... */\n    tag_53:\n        /* \"contracts/Bet.sol\":784:797  marketAddress */\n      sload(0x02)\n        /* \"contracts/Bet.sol\":2057:2061  bool */\n      0x00\n      swap1\n      sub(shl(0xa0, 0x01), 0x01)\n        /* \"contracts/Bet.sol\":784:797  marketAddress */\n      and\n        /* \"contracts/Bet.sol\":770:780  msg.sender */\n      caller\n        /* \"contracts/Bet.sol\":770:797  msg.sender == marketAddress */\n      eq\n        /* \"contracts/Bet.sol\":749:863  require(... */\n      tag_79\n      jumpi\n      mload(0x40)\n      shl(0xe5, 0x461bcd)\n      dup2\n      mstore\n      0x04\n      add\n      tag_64\n      swap1\n      tag_65\n      jump\t// in\n    tag_79:\n        /* \"contracts/Bet.sol\":2081:2109  isValidBetPair(_pairAddress) */\n      tag_82\n        /* \"contracts/Bet.sol\":2096:2108  _pairAddress */\n      dup3\n        /* \"contracts/Bet.sol\":2081:2095  isValidBetPair */\n      tag_83\n        /* \"contracts/Bet.sol\":2081:2109  isValidBetPair(_pairAddress) */\n      jump\t// in\n    tag_82:\n        /* \"contracts/Bet.sol\":2073:2170  require(isValidBetPair(_pairAddress), \"The address is not a valid betpair contract for this bet\") */\n      tag_84\n      jumpi\n      mload(0x40)\n      shl(0xe5, 0x461bcd)\n      dup2\n      mstore\n        /* \"#utility.yul\":2963:2965   */\n      0x20\n        /* \"contracts/Bet.sol\":2073:2170  require(isValidBetPair(_pairAddress), \"The address is not a valid betpair contract for this bet\") */\n      0x04\n      dup3\n      add\n        /* \"#utility.yul\":2945:2966   */\n      mstore\n        /* \"#utility.yul\":3002:3004   */\n      0x38\n        /* \"#utility.yul\":2982:3000   */\n      0x24\n      dup3\n      add\n        /* \"#utility.yul\":2975:3005   */\n      mstore\n        /* \"#utility.yul\":3041:3075   */\n      0x5468652061646472657373206973206e6f7420612076616c6964206265747061\n        /* \"#utility.yul\":3021:3039   */\n      0x44\n      dup3\n      add\n        /* \"#utility.yul\":3014:3076   */\n      mstore\n        /* \"#utility.yul\":3112:3138   */\n      0x697220636f6e747261637420666f722074686973206265740000000000000000\n        /* \"#utility.yul\":3092:3110   */\n      0x64\n      dup3\n      add\n        /* \"#utility.yul\":3085:3139   */\n      mstore\n        /* \"#utility.yul\":3156:3175   */\n      0x84\n      add\n        /* \"contracts/Bet.sol\":2073:2170  require(isValidBetPair(_pairAddress), \"The address is not a valid betpair contract for this bet\") */\n      tag_64\n        /* \"#utility.yul\":2935:3181   */\n      jump\n        /* \"contracts/Bet.sol\":2073:2170  require(isValidBetPair(_pairAddress), \"The address is not a valid betpair contract for this bet\") */\n    tag_84:\n      pop\n        /* \"contracts/Bet.sol\":2180:2188  betPairs */\n      0x06\n        /* \"contracts/Bet.sol\":2180:2207  betPairs.push(_pairAddress) */\n      dup1\n      sload\n      0x01\n      dup2\n      dup2\n      add\n      dup4\n      sstore\n      0x00\n      swap3\n      swap1\n      swap3\n      mstore\n      0xf652222313e28459528d920b65115c16c04f3efc82aaedc97be59f3f377c0d3f\n      add\n      dup1\n      sload\n      sub(shl(0xa0, 0x01), 0x01)\n      dup5\n      and\n      not(sub(shl(0xa0, 0x01), 0x01))\n      swap1\n      swap2\n      and\n      or\n      swap1\n      sstore\n        /* \"contracts/Bet.sol\":1981:2235  function addPair(address _pairAddress) external override onlyMarket returns(bool) {... */\n      swap2\n      swap1\n      pop\n      jump\t// out\n        /* \"contracts/Bet.sol\":447:481  string  public override marketSide */\n    tag_56:\n      0x07\n      dup1\n      sload\n      tag_88\n      swap1\n      tag_89\n      jump\t// in\n    tag_88:\n      dup1\n      0x1f\n      add\n      0x20\n      dup1\n      swap2\n      div\n      mul\n      0x20\n      add\n      mload(0x40)\n      swap1\n      dup2\n      add\n      0x40\n      mstore\n      dup1\n      swap3\n      swap2\n      swap1\n      dup2\n      dup2\n      mstore\n      0x20\n      add\n      dup3\n      dup1\n      sload\n      tag_90\n      swap1\n      tag_89\n      jump\t// in\n    tag_90:\n      dup1\n      iszero\n      tag_91\n      jumpi\n      dup1\n      0x1f\n      lt\n      tag_92\n      jumpi\n      0x0100\n      dup1\n      dup4\n      sload\n      div\n      mul\n      dup4\n      mstore\n      swap2\n      0x20\n      add\n      swap2\n      jump(tag_91)\n    tag_92:\n      dup3\n      add\n      swap2\n      swap1\n      0x00\n      mstore\n      keccak256(0x00, 0x20)\n      swap1\n    tag_93:\n      dup2\n      sload\n      dup2\n      mstore\n      swap1\n      0x01\n      add\n      swap1\n      0x20\n      add\n      dup1\n      dup4\n      gt\n      tag_93\n      jumpi\n      dup3\n      swap1\n      sub\n      0x1f\n      and\n      dup3\n      add\n      swap2\n    tag_91:\n      pop\n      pop\n      pop\n      pop\n      pop\n      dup2\n      jump\t// out\n        /* \"contracts/Bet.sol\":1453:1975  function isValidBetPair(address _addr) private view returns (bool){... */\n    tag_83:\n        /* \"contracts/Bet.sol\":1514:1518  bool */\n      0x00\n        /* \"contracts/Bet.sol\":1581:1599  extcodesize(_addr) */\n      dup2\n      extcodesize\n        /* \"contracts/Bet.sol\":1621:1629  size > 0 */\n      0xffffffff\n      dup2\n      and\n      iszero\n        /* \"contracts/Bet.sol\":1618:1969  if(size > 0){... */\n      tag_95\n      jumpi\n        /* \"contracts/Bet.sol\":1644:1660  IBetPair betPair */\n      0x00\n        /* \"contracts/Bet.sol\":1672:1677  _addr */\n      dup4\n        /* \"contracts/Bet.sol\":1644:1678  IBetPair betPair = IBetPair(_addr) */\n      swap1\n      pop\n        /* \"contracts/Bet.sol\":1692:1717  address pairMarketAddress */\n      0x00\n        /* \"contracts/Bet.sol\":1720:1727  betPair */\n      dup2\n      sub(shl(0xa0, 0x01), 0x01)\n        /* \"contracts/Bet.sol\":1720:1741  betPair.marketAddress */\n      and\n      0x95623641\n        /* \"contracts/Bet.sol\":1720:1743  betPair.marketAddress() */\n      mload(0x40)\n      dup2\n      0xffffffff\n      and\n      0xe0\n      shl\n      dup2\n      mstore\n      0x04\n      add\n      0x20\n      mload(0x40)\n      dup1\n      dup4\n      sub\n      dup2\n      dup7\n      dup1\n      extcodesize\n      iszero\n      dup1\n      iszero\n      tag_96\n      jumpi\n      0x00\n      dup1\n      revert\n    tag_96:\n      pop\n      gas\n      staticcall\n      iszero\n      dup1\n      iszero\n      tag_98\n      jumpi\n      returndatasize\n      0x00\n      dup1\n      returndatacopy\n      revert(0x00, returndatasize)\n    tag_98:\n      pop\n      pop\n      pop\n      pop\n      mload(0x40)\n      returndatasize\n      not(0x1f)\n      0x1f\n      dup3\n      add\n      and\n      dup3\n      add\n      dup1\n      0x40\n      mstore\n      pop\n      dup2\n      add\n      swap1\n      tag_99\n      swap2\n      swap1\n      tag_100\n      jump\t// in\n    tag_99:\n        /* \"contracts/Bet.sol\":1692:1743  address pairMarketAddress = betPair.marketAddress() */\n      swap1\n      pop\n        /* \"contracts/Bet.sol\":1781:1785  this */\n      address\n      sub(shl(0xa0, 0x01), 0x01)\n        /* \"contracts/Bet.sol\":1781:1799  this.marketAddress */\n      and\n      0x95623641\n        /* \"contracts/Bet.sol\":1781:1801  this.marketAddress() */\n      mload(0x40)\n      dup2\n      0xffffffff\n      and\n      0xe0\n      shl\n      dup2\n      mstore\n      0x04\n      add\n      0x20\n      mload(0x40)\n      dup1\n      dup4\n      sub\n      dup2\n      dup7\n      dup1\n      extcodesize\n      iszero\n      dup1\n      iszero\n      tag_101\n      jumpi\n      0x00\n      dup1\n      revert\n    tag_101:\n      pop\n      gas\n      staticcall\n      iszero\n      dup1\n      iszero\n      tag_103\n      jumpi\n      returndatasize\n      0x00\n      dup1\n      returndatacopy\n      revert(0x00, returndatasize)\n    tag_103:\n      pop\n      pop\n      pop\n      pop\n      mload(0x40)\n      returndatasize\n      not(0x1f)\n      0x1f\n      dup3\n      add\n      and\n      dup3\n      add\n      dup1\n      0x40\n      mstore\n      pop\n      dup2\n      add\n      swap1\n      tag_104\n      swap2\n      swap1\n      tag_100\n      jump\t// in\n    tag_104:\n      sub(shl(0xa0, 0x01), 0x01)\n        /* \"contracts/Bet.sol\":1760:1801  pairMarketAddress == this.marketAddress() */\n      and\n        /* \"contracts/Bet.sol\":1760:1777  pairMarketAddress */\n      dup2\n      sub(shl(0xa0, 0x01), 0x01)\n        /* \"contracts/Bet.sol\":1760:1801  pairMarketAddress == this.marketAddress() */\n      and\n      eq\n        /* \"contracts/Bet.sol\":1757:1908  if(pairMarketAddress == this.marketAddress()){... */\n      iszero\n      tag_105\n      jumpi\n      pop\n        /* \"contracts/Bet.sol\":1827:1831  true */\n      0x01\n      swap5\n        /* \"contracts/Bet.sol\":1453:1975  function isValidBetPair(address _addr) private view returns (bool){... */\n      swap4\n      pop\n      pop\n      pop\n      pop\n      jump\t// out\n        /* \"contracts/Bet.sol\":1757:1908  if(pairMarketAddress == this.marketAddress()){... */\n    tag_105:\n      pop\n        /* \"contracts/Bet.sol\":1888:1893  false */\n      0x00\n      swap5\n        /* \"contracts/Bet.sol\":1453:1975  function isValidBetPair(address _addr) private view returns (bool){... */\n      swap4\n      pop\n      pop\n      pop\n      pop\n      jump\t// out\n        /* \"contracts/Bet.sol\":1618:1969  if(size > 0){... */\n    tag_95:\n      pop\n        /* \"contracts/Bet.sol\":1953:1958  false */\n      0x00\n      swap3\n        /* \"contracts/Bet.sol\":1453:1975  function isValidBetPair(address _addr) private view returns (bool){... */\n      swap2\n      pop\n      pop\n      jump\t// out\n        /* \"contracts/Bet.sol\":1618:1969  if(size > 0){... */\n    tag_107:\n        /* \"contracts/Bet.sol\":1453:1975  function isValidBetPair(address _addr) private view returns (bool){... */\n      pop\n      swap2\n      swap1\n      pop\n      jump\t// out\n        /* \"#utility.yul\":14:271   */\n    tag_52:\n        /* \"#utility.yul\":73:79   */\n      0x00\n        /* \"#utility.yul\":126:128   */\n      0x20\n        /* \"#utility.yul\":114:123   */\n      dup3\n        /* \"#utility.yul\":105:112   */\n      dup5\n        /* \"#utility.yul\":101:124   */\n      sub\n        /* \"#utility.yul\":97:129   */\n      slt\n        /* \"#utility.yul\":94:96   */\n      iszero\n      tag_110\n      jumpi\n        /* \"#utility.yul\":147:153   */\n      dup1\n        /* \"#utility.yul\":139:145   */\n      dup2\n        /* \"#utility.yul\":132:154   */\n      revert\n        /* \"#utility.yul\":94:96   */\n    tag_110:\n        /* \"#utility.yul\":191:200   */\n      dup2\n        /* \"#utility.yul\":178:201   */\n      calldataload\n        /* \"#utility.yul\":210:241   */\n      tag_111\n        /* \"#utility.yul\":235:240   */\n      dup2\n        /* \"#utility.yul\":210:241   */\n      tag_112\n      jump\t// in\n    tag_111:\n        /* \"#utility.yul\":260:265   */\n      swap4\n        /* \"#utility.yul\":84:271   */\n      swap3\n      pop\n      pop\n      pop\n      jump\t// out\n        /* \"#utility.yul\":276:537   */\n    tag_100:\n        /* \"#utility.yul\":346:352   */\n      0x00\n        /* \"#utility.yul\":399:401   */\n      0x20\n        /* \"#utility.yul\":387:396   */\n      dup3\n        /* \"#utility.yul\":378:385   */\n      dup5\n        /* \"#utility.yul\":374:397   */\n      sub\n        /* \"#utility.yul\":370:402   */\n      slt\n        /* \"#utility.yul\":367:369   */\n      iszero\n      tag_114\n      jumpi\n        /* \"#utility.yul\":420:426   */\n      dup1\n        /* \"#utility.yul\":412:418   */\n      dup2\n        /* \"#utility.yul\":405:427   */\n      revert\n        /* \"#utility.yul\":367:369   */\n    tag_114:\n        /* \"#utility.yul\":457:466   */\n      dup2\n        /* \"#utility.yul\":451:467   */\n      mload\n        /* \"#utility.yul\":476:507   */\n      tag_111\n        /* \"#utility.yul\":501:506   */\n      dup2\n        /* \"#utility.yul\":476:507   */\n      tag_112\n      jump\t// in\n        /* \"#utility.yul\":542:732   */\n    tag_29:\n        /* \"#utility.yul\":601:607   */\n      0x00\n        /* \"#utility.yul\":654:656   */\n      0x20\n        /* \"#utility.yul\":642:651   */\n      dup3\n        /* \"#utility.yul\":633:640   */\n      dup5\n        /* \"#utility.yul\":629:652   */\n      sub\n        /* \"#utility.yul\":625:657   */\n      slt\n        /* \"#utility.yul\":622:624   */\n      iszero\n      tag_117\n      jumpi\n        /* \"#utility.yul\":675:681   */\n      dup1\n        /* \"#utility.yul\":667:673   */\n      dup2\n        /* \"#utility.yul\":660:682   */\n      revert\n        /* \"#utility.yul\":622:624   */\n    tag_117:\n      pop\n        /* \"#utility.yul\":703:726   */\n      calldataload\n      swap2\n        /* \"#utility.yul\":612:732   */\n      swap1\n      pop\n      jump\t// out\n        /* \"#utility.yul\":945:1606   */\n    tag_18:\n        /* \"#utility.yul\":1116:1118   */\n      0x20\n        /* \"#utility.yul\":1168:1189   */\n      dup1\n      dup3\n      mstore\n        /* \"#utility.yul\":1238:1251   */\n      dup3\n      mload\n        /* \"#utility.yul\":1141:1159   */\n      dup3\n      dup3\n      add\n        /* \"#utility.yul\":1260:1282   */\n      dup2\n      swap1\n      mstore\n        /* \"#utility.yul\":1087:1091   */\n      0x00\n      swap2\n        /* \"#utility.yul\":1116:1118   */\n      swap1\n        /* \"#utility.yul\":1339:1354   */\n      dup5\n      dup3\n      add\n      swap1\n        /* \"#utility.yul\":1313:1315   */\n      0x40\n        /* \"#utility.yul\":1298:1316   */\n      dup6\n      add\n      swap1\n        /* \"#utility.yul\":1087:1091   */\n      dup5\n        /* \"#utility.yul\":1385:1580   */\n    tag_120:\n        /* \"#utility.yul\":1399:1405   */\n      dup2\n        /* \"#utility.yul\":1396:1397   */\n      dup2\n        /* \"#utility.yul\":1393:1406   */\n      lt\n        /* \"#utility.yul\":1385:1580   */\n      iszero\n      tag_122\n      jumpi\n        /* \"#utility.yul\":1464:1477   */\n      dup4\n      mload\n      sub(shl(0xa0, 0x01), 0x01)\n        /* \"#utility.yul\":1460:1499   */\n      and\n        /* \"#utility.yul\":1448:1500   */\n      dup4\n      mstore\n        /* \"#utility.yul\":1555:1570   */\n      swap3\n      dup5\n      add\n      swap3\n        /* \"#utility.yul\":1520:1532   */\n      swap2\n      dup5\n      add\n      swap2\n        /* \"#utility.yul\":1496:1497   */\n      0x01\n        /* \"#utility.yul\":1414:1423   */\n      add\n        /* \"#utility.yul\":1385:1580   */\n      jump(tag_120)\n    tag_122:\n      pop\n        /* \"#utility.yul\":1597:1600   */\n      swap1\n      swap7\n        /* \"#utility.yul\":1096:1606   */\n      swap6\n      pop\n      pop\n      pop\n      pop\n      pop\n      pop\n      jump\t// out\n        /* \"#utility.yul\":1803:2406   */\n    tag_58:\n        /* \"#utility.yul\":1915:1919   */\n      0x00\n        /* \"#utility.yul\":1944:1946   */\n      0x20\n        /* \"#utility.yul\":1973:1975   */\n      dup1\n        /* \"#utility.yul\":1962:1971   */\n      dup4\n        /* \"#utility.yul\":1955:1976   */\n      mstore\n        /* \"#utility.yul\":2005:2011   */\n      dup4\n        /* \"#utility.yul\":1999:2012   */\n      mload\n        /* \"#utility.yul\":2048:2054   */\n      dup1\n        /* \"#utility.yul\":2043:2045   */\n      dup3\n        /* \"#utility.yul\":2032:2041   */\n      dup6\n        /* \"#utility.yul\":2028:2046   */\n      add\n        /* \"#utility.yul\":2021:2055   */\n      mstore\n        /* \"#utility.yul\":2073:2077   */\n      dup3\n        /* \"#utility.yul\":2086:2226   */\n    tag_125:\n        /* \"#utility.yul\":2100:2106   */\n      dup2\n        /* \"#utility.yul\":2097:2098   */\n      dup2\n        /* \"#utility.yul\":2094:2107   */\n      lt\n        /* \"#utility.yul\":2086:2226   */\n      iszero\n      tag_127\n      jumpi\n        /* \"#utility.yul\":2195:2209   */\n      dup6\n      dup2\n      add\n        /* \"#utility.yul\":2191:2214   */\n      dup4\n      add\n        /* \"#utility.yul\":2185:2215   */\n      mload\n        /* \"#utility.yul\":2161:2178   */\n      dup6\n      dup3\n      add\n        /* \"#utility.yul\":2180:2182   */\n      0x40\n        /* \"#utility.yul\":2157:2183   */\n      add\n        /* \"#utility.yul\":2150:2216   */\n      mstore\n        /* \"#utility.yul\":2115:2125   */\n      dup3\n      add\n        /* \"#utility.yul\":2086:2226   */\n      jump(tag_125)\n    tag_127:\n        /* \"#utility.yul\":2244:2250   */\n      dup2\n        /* \"#utility.yul\":2241:2242   */\n      dup2\n        /* \"#utility.yul\":2238:2251   */\n      gt\n        /* \"#utility.yul\":2235:2237   */\n      iszero\n      tag_128\n      jumpi\n        /* \"#utility.yul\":2314:2318   */\n      dup4\n        /* \"#utility.yul\":2309:2311   */\n      0x40\n        /* \"#utility.yul\":2300:2306   */\n      dup4\n        /* \"#utility.yul\":2289:2298   */\n      dup8\n        /* \"#utility.yul\":2285:2307   */\n      add\n        /* \"#utility.yul\":2281:2312   */\n      add\n        /* \"#utility.yul\":2274:2319   */\n      mstore\n        /* \"#utility.yul\":2235:2237   */\n    tag_128:\n      pop\n        /* \"#utility.yul\":2390:2392   */\n      0x1f\n        /* \"#utility.yul\":2369:2384   */\n      add\n      not(0x1f)\n        /* \"#utility.yul\":2365:2394   */\n      and\n        /* \"#utility.yul\":2350:2395   */\n      swap3\n      swap1\n      swap3\n      add\n        /* \"#utility.yul\":2397:2399   */\n      0x40\n        /* \"#utility.yul\":2346:2400   */\n      add\n      swap4\n        /* \"#utility.yul\":1924:2406   */\n      swap3\n      pop\n      pop\n      pop\n      jump\t// out\n        /* \"#utility.yul\":3186:3590   */\n    tag_65:\n        /* \"#utility.yul\":3388:3390   */\n      0x20\n        /* \"#utility.yul\":3370:3391   */\n      dup1\n      dup3\n      mstore\n        /* \"#utility.yul\":3427:3429   */\n      0x28\n        /* \"#utility.yul\":3407:3425   */\n      swap1\n      dup3\n      add\n        /* \"#utility.yul\":3400:3430   */\n      mstore\n        /* \"#utility.yul\":3466:3500   */\n      0x4f6e6c79206576656e74206265747465722063616e2063616c6c207468697320\n        /* \"#utility.yul\":3461:3463   */\n      0x40\n        /* \"#utility.yul\":3446:3464   */\n      dup3\n      add\n        /* \"#utility.yul\":3439:3501   */\n      mstore\n      shl(0xc1, 0x333ab731ba34b7b7)\n        /* \"#utility.yul\":3532:3534   */\n      0x60\n        /* \"#utility.yul\":3517:3535   */\n      dup3\n      add\n        /* \"#utility.yul\":3510:3548   */\n      mstore\n        /* \"#utility.yul\":3580:3583   */\n      0x80\n        /* \"#utility.yul\":3565:3584   */\n      add\n      swap1\n        /* \"#utility.yul\":3360:3590   */\n      jump\t// out\n        /* \"#utility.yul\":3966:4195   */\n    tag_68:\n        /* \"#utility.yul\":4006:4009   */\n      0x00\n        /* \"#utility.yul\":4037:4038   */\n      dup3\n        /* \"#utility.yul\":4033:4039   */\n      not\n        /* \"#utility.yul\":4030:4031   */\n      dup3\n        /* \"#utility.yul\":4027:4040   */\n      gt\n        /* \"#utility.yul\":4024:4026   */\n      iszero\n      tag_135\n      jumpi\n      shl(0xe0, 0x4e487b71)\n        /* \"#utility.yul\":4063:4096   */\n      dup2\n      mstore\n        /* \"#utility.yul\":4119:4123   */\n      0x11\n        /* \"#utility.yul\":4116:4117   */\n      0x04\n        /* \"#utility.yul\":4109:4124   */\n      mstore\n        /* \"#utility.yul\":4149:4153   */\n      0x24\n        /* \"#utility.yul\":4070:4073   */\n      dup2\n        /* \"#utility.yul\":4137:4154   */\n      revert\n        /* \"#utility.yul\":4024:4026   */\n    tag_135:\n      pop\n        /* \"#utility.yul\":4180:4189   */\n      add\n      swap1\n        /* \"#utility.yul\":4014:4195   */\n      jump\t// out\n        /* \"#utility.yul\":4200:4580   */\n    tag_89:\n        /* \"#utility.yul\":4279:4280   */\n      0x01\n        /* \"#utility.yul\":4275:4287   */\n      dup2\n      dup2\n      shr\n      swap1\n        /* \"#utility.yul\":4322:4334   */\n      dup3\n      and\n      dup1\n        /* \"#utility.yul\":4343:4345   */\n      tag_137\n      jumpi\n        /* \"#utility.yul\":4397:4401   */\n      0x7f\n        /* \"#utility.yul\":4389:4395   */\n      dup3\n        /* \"#utility.yul\":4385:4402   */\n      and\n        /* \"#utility.yul\":4375:4402   */\n      swap2\n      pop\n        /* \"#utility.yul\":4343:4345   */\n    tag_137:\n        /* \"#utility.yul\":4450:4452   */\n      0x20\n        /* \"#utility.yul\":4442:4448   */\n      dup3\n        /* \"#utility.yul\":4439:4453   */\n      lt\n        /* \"#utility.yul\":4419:4437   */\n      dup2\n        /* \"#utility.yul\":4416:4454   */\n      eq\n        /* \"#utility.yul\":4413:4415   */\n      iszero\n      tag_107\n      jumpi\n        /* \"#utility.yul\":4496:4506   */\n      0x4e487b71\n        /* \"#utility.yul\":4491:4494   */\n      0xe0\n        /* \"#utility.yul\":4487:4507   */\n      shl\n        /* \"#utility.yul\":4484:4485   */\n      0x00\n        /* \"#utility.yul\":4477:4508   */\n      mstore\n        /* \"#utility.yul\":4531:4535   */\n      0x22\n        /* \"#utility.yul\":4528:4529   */\n      0x04\n        /* \"#utility.yul\":4521:4536   */\n      mstore\n        /* \"#utility.yul\":4559:4563   */\n      0x24\n        /* \"#utility.yul\":4556:4557   */\n      0x00\n        /* \"#utility.yul\":4549:4564   */\n      revert\n        /* \"#utility.yul\":4585:4716   */\n    tag_112:\n      sub(shl(0xa0, 0x01), 0x01)\n        /* \"#utility.yul\":4660:4691   */\n      dup2\n      and\n        /* \"#utility.yul\":4650:4692   */\n      dup2\n      eq\n        /* \"#utility.yul\":4640:4642   */\n      tag_140\n      jumpi\n        /* \"#utility.yul\":4706:4707   */\n      0x00\n        /* \"#utility.yul\":4703:4704   */\n      dup1\n        /* \"#utility.yul\":4696:4708   */\n      revert\n        /* \"#utility.yul\":4640:4642   */\n    tag_140:\n        /* \"#utility.yul\":4630:4716   */\n      pop\n      jump\t// out\n\n    auxdata: 0xa264697066735822122077a1967c6454582aa4d90e5eeee5b6728e67dd1059054264099d005c85a4ae0164736f6c63430008040033\n}\n",
				"bytecode": {
					"linkReferences": {},
					"object": "6080604052600054600880546001600160a01b0319166001600160a01b039092169190911790553480156200003357600080fd5b5060405162000c1738038062000c178339810160408190526200005691620002e5565b600860009054906101000a90046001600160a01b03166001600160a01b031663c45a01556040518163ffffffff1660e01b815260040160206040518083038186803b158015620000a557600080fd5b505afa158015620000ba573d6000803e3d6000fd5b505050506040513d601f19601f82011682018060405250810190620000e09190620002c1565b6001600160a01b0316336001600160a01b031614620001755760405162461bcd60e51b815260206004820152604160248201527f6f6e6c792077656233626574732066697865646f64647320666163746f72792060448201527f636f6e74726163742063616e20637265617465207468697320636f6e747261636064820152601d60fa1b608482015260a40160405180910390fd5b600280546001600160a01b0319166001600160a01b0386161790558251620001a5906007906020860190620001ec565b506003919091556005805460ff191660ff9092169190911790555050600180546001600160a01b0319166001600160a01b0392909216919091179055600060045562000453565b828054620001fa9062000400565b90600052602060002090601f0160209004810192826200021e576000855562000269565b82601f106200023957805160ff191683800117855562000269565b8280016001018555821562000269579182015b82811115620002695782518255916020019190600101906200024c565b50620002779291506200027b565b5090565b5b808211156200027757600081556001016200027c565b80516001600160a01b0381168114620002aa57600080fd5b919050565b805160ff81168114620002aa57600080fd5b600060208284031215620002d3578081fd5b620002de8262000292565b9392505050565b600080600080600060a08688031215620002fd578081fd5b620003088662000292565b945060206200031981880162000292565b60408801519095506001600160401b038082111562000336578384fd5b818901915089601f8301126200034a578384fd5b8151818111156200035f576200035f6200043d565b604051601f8201601f19908116603f011681019083821181831017156200038a576200038a6200043d565b816040528281528c86848701011115620003a2578687fd5b8693505b82841015620003c55784840186015181850187015292850192620003a6565b82841115620003d657868684830101525b80985050505050505060608601519150620003f460808701620002af565b90509295509295909350565b600181811c908216806200041557607f821691505b602082108114156200043757634e487b7160e01b600052602260045260246000fd5b50919050565b634e487b7160e01b600052604160045260246000fd5b6107b480620004636000396000f3fe608060405234801561001057600080fd5b50600436106100a95760003560e01c80637edbceb1116100715780637edbceb1146101505780638aac9cca146101585780639562364114610161578063a89bc05b14610174578063c2b7bbb614610187578063fa6ead201461019a57600080fd5b806312713ee4146100ae578063233de126146100cc5780633a4b66f1146100eb5780635a4cfc0614610102578063718c7d4414610125575b600080fd5b6100b66101af565b6040516100c39190610625565b60405180910390f35b6005546100d99060ff1681565b60405160ff90911681526020016100c3565b6100f460035481565b6040519081526020016100c3565b61011561011036600461060d565b610211565b60405190151581526020016100c3565b600154610138906001600160a01b031681565b6040516001600160a01b0390911681526020016100c3565b610115610266565b6100f460045481565b600254610138906001600160a01b031681565b61013861018236600461060d565b6102e1565b6101156101953660046105ce565b61030b565b6101a2610407565b6040516100c39190610672565b6060600680548060200260200160405190810160405280929190818152602001828054801561020757602002820191906000526020600020905b81546001600160a01b031681526001909101906020018083116101e9575b5050505050905090565b6002546000906001600160a01b031633146102475760405162461bcd60e51b815260040161023e906106c5565b60405180910390fd5b8160046000828254610259919061070d565b9091555060019392505050565b6001546000906001600160a01b031633146102935760405162461bcd60e51b815260040161023e906106c5565b600047116102db5760405162461bcd60e51b8152602060048201526015602482015274546869732062657420686173206e6f2066756e647360581b604482015260640161023e565b50600190565b600681815481106102f157600080fd5b6000918252602090912001546001600160a01b0316905081565b6002546000906001600160a01b031633146103385760405162461bcd60e51b815260040161023e906106c5565b61034182610495565b6103b35760405162461bcd60e51b815260206004820152603860248201527f5468652061646472657373206973206e6f7420612076616c696420626574706160448201527f697220636f6e747261637420666f722074686973206265740000000000000000606482015260840161023e565b5060068054600181810183556000929092527ff652222313e28459528d920b65115c16c04f3efc82aaedc97be59f3f377c0d3f0180546001600160a01b0384166001600160a01b0319909116179055919050565b6007805461041490610731565b80601f016020809104026020016040519081016040528092919081815260200182805461044090610731565b801561048d5780601f106104625761010080835404028352916020019161048d565b820191906000526020600020905b81548152906001019060200180831161047057829003601f168201915b505050505081565b6000813b63ffffffff8116156105bf5760008390506000816001600160a01b031663956236416040518163ffffffff1660e01b815260040160206040518083038186803b1580156104e557600080fd5b505afa1580156104f9573d6000803e3d6000fd5b505050506040513d601f19601f8201168201806040525081019061051d91906105f1565b9050306001600160a01b031663956236416040518163ffffffff1660e01b815260040160206040518083038186803b15801561055857600080fd5b505afa15801561056c573d6000803e3d6000fd5b505050506040513d601f19601f8201168201806040525081019061059091906105f1565b6001600160a01b0316816001600160a01b031614156105b457506001949350505050565b506000949350505050565b50600092915050565b50919050565b6000602082840312156105df578081fd5b81356105ea81610766565b9392505050565b600060208284031215610602578081fd5b81516105ea81610766565b60006020828403121561061e578081fd5b5035919050565b6020808252825182820181905260009190848201906040850190845b818110156106665783516001600160a01b031683529284019291840191600101610641565b50909695505050505050565b6000602080835283518082850152825b8181101561069e57858101830151858201604001528201610682565b818111156106af5783604083870101525b50601f01601f1916929092016040019392505050565b60208082526028908201527f4f6e6c79206576656e74206265747465722063616e2063616c6c207468697320604082015267333ab731ba34b7b760c11b606082015260800190565b6000821982111561072c57634e487b7160e01b81526011600452602481fd5b500190565b600181811c9082168061074557607f821691505b602082108114156105c857634e487b7160e01b600052602260045260246000fd5b6001600160a01b038116811461077b57600080fd5b5056fea264697066735822122077a1967c6454582aa4d90e5eeee5b6728e67dd1059054264099d005c85a4ae0164736f6c63430008040033",
					"opcodes": "PUSH1 0x80 PUSH1 0x40 MSTORE PUSH1 0x0 SLOAD PUSH1 0x8 DUP1 SLOAD PUSH1 0x1 PUSH1 0x1 PUSH1 0xA0 SHL SUB NOT AND PUSH1 0x1 PUSH1 0x1 PUSH1 0xA0 SHL SUB SWAP1 SWAP3 AND SWAP2 SWAP1 SWAP2 OR SWAP1 SSTORE CALLVALUE DUP1 ISZERO PUSH3 0x33 JUMPI PUSH1 0x0 DUP1 REVERT JUMPDEST POP PUSH1 0x40 MLOAD PUSH3 0xC17 CODESIZE SUB DUP1 PUSH3 0xC17 DUP4 CODECOPY DUP2 ADD PUSH1 0x40 DUP2 SWAP1 MSTORE PUSH3 0x56 SWAP2 PUSH3 0x2E5 JUMP JUMPDEST PUSH1 0x8 PUSH1 0x0 SWAP1 SLOAD SWAP1 PUSH2 0x100 EXP SWAP1 DIV PUSH1 0x1 PUSH1 0x1 PUSH1 0xA0 SHL SUB AND PUSH1 0x1 PUSH1 0x1 PUSH1 0xA0 SHL SUB AND PUSH4 0xC45A0155 PUSH1 0x40 MLOAD DUP2 PUSH4 0xFFFFFFFF AND PUSH1 0xE0 SHL DUP2 MSTORE PUSH1 0x4 ADD PUSH1 0x20 PUSH1 0x40 MLOAD DUP1 DUP4 SUB DUP2 DUP7 DUP1 EXTCODESIZE ISZERO DUP1 ISZERO PUSH3 0xA5 JUMPI PUSH1 0x0 DUP1 REVERT JUMPDEST POP GAS STATICCALL ISZERO DUP1 ISZERO PUSH3 0xBA JUMPI RETURNDATASIZE PUSH1 0x0 DUP1 RETURNDATACOPY RETURNDATASIZE PUSH1 0x0 REVERT JUMPDEST POP POP POP POP PUSH1 0x40 MLOAD RETURNDATASIZE PUSH1 0x1F NOT PUSH1 0x1F DUP3 ADD AND DUP3 ADD DUP1 PUSH1 0x40 MSTORE POP DUP2 ADD SWAP1 PUSH3 0xE0 SWAP2 SWAP1 PUSH3 0x2C1 JUMP JUMPDEST PUSH1 0x1 PUSH1 0x1 PUSH1 0xA0 SHL SUB AND CALLER PUSH1 0x1 PUSH1 0x1 PUSH1 0xA0 SHL SUB AND EQ PUSH3 0x175 JUMPI PUSH1 0x40 MLOAD PUSH3 0x461BCD PUSH1 0xE5 SHL DUP2 MSTORE PUSH1 0x20 PUSH1 0x4 DUP3 ADD MSTORE PUSH1 0x41 PUSH1 0x24 DUP3 ADD MSTORE PUSH32 0x6F6E6C792077656233626574732066697865646F64647320666163746F727920 PUSH1 0x44 DUP3 ADD MSTORE PUSH32 0x636F6E74726163742063616E20637265617465207468697320636F6E74726163 PUSH1 0x64 DUP3 ADD MSTORE PUSH1 0x1D PUSH1 0xFA SHL PUSH1 0x84 DUP3 ADD MSTORE PUSH1 0xA4 ADD PUSH1 0x40 MLOAD DUP1 SWAP2 SUB SWAP1 REVERT JUMPDEST PUSH1 0x2 DUP1 SLOAD PUSH1 0x1 PUSH1 0x1 PUSH1 0xA0 SHL SUB NOT AND PUSH1 0x1 PUSH1 0x1 PUSH1 0xA0 SHL SUB DUP7 AND OR SWAP1 SSTORE DUP3 MLOAD PUSH3 0x1A5 SWAP1 PUSH1 0x7 SWAP1 PUSH1 0x20 DUP7 ADD SWAP1 PUSH3 0x1EC JUMP JUMPDEST POP PUSH1 0x3 SWAP2 SWAP1 SWAP2 SSTORE PUSH1 0x5 DUP1 SLOAD PUSH1 0xFF NOT AND PUSH1 0xFF SWAP1 SWAP3 AND SWAP2 SWAP1 SWAP2 OR SWAP1 SSTORE POP POP PUSH1 0x1 DUP1 SLOAD PUSH1 0x1 PUSH1 0x1 PUSH1 0xA0 SHL SUB NOT AND PUSH1 0x1 PUSH1 0x1 PUSH1 0xA0 SHL SUB SWAP3 SWAP1 SWAP3 AND SWAP2 SWAP1 SWAP2 OR SWAP1 SSTORE PUSH1 0x0 PUSH1 0x4 SSTORE PUSH3 0x453 JUMP JUMPDEST DUP3 DUP1 SLOAD PUSH3 0x1FA SWAP1 PUSH3 0x400 JUMP JUMPDEST SWAP1 PUSH1 0x0 MSTORE PUSH1 0x20 PUSH1 0x0 KECCAK256 SWAP1 PUSH1 0x1F ADD PUSH1 0x20 SWAP1 DIV DUP2 ADD SWAP3 DUP3 PUSH3 0x21E JUMPI PUSH1 0x0 DUP6 SSTORE PUSH3 0x269 JUMP JUMPDEST DUP3 PUSH1 0x1F LT PUSH3 0x239 JUMPI DUP1 MLOAD PUSH1 0xFF NOT AND DUP4 DUP1 ADD OR DUP6 SSTORE PUSH3 0x269 JUMP JUMPDEST DUP3 DUP1 ADD PUSH1 0x1 ADD DUP6 SSTORE DUP3 ISZERO PUSH3 0x269 JUMPI SWAP2 DUP3 ADD JUMPDEST DUP3 DUP2 GT ISZERO PUSH3 0x269 JUMPI DUP3 MLOAD DUP3 SSTORE SWAP2 PUSH1 0x20 ADD SWAP2 SWAP1 PUSH1 0x1 ADD SWAP1 PUSH3 0x24C JUMP JUMPDEST POP PUSH3 0x277 SWAP3 SWAP2 POP PUSH3 0x27B JUMP JUMPDEST POP SWAP1 JUMP JUMPDEST JUMPDEST DUP1 DUP3 GT ISZERO PUSH3 0x277 JUMPI PUSH1 0x0 DUP2 SSTORE PUSH1 0x1 ADD PUSH3 0x27C JUMP JUMPDEST DUP1 MLOAD PUSH1 0x1 PUSH1 0x1 PUSH1 0xA0 SHL SUB DUP2 AND DUP2 EQ PUSH3 0x2AA JUMPI PUSH1 0x0 DUP1 REVERT JUMPDEST SWAP2 SWAP1 POP JUMP JUMPDEST DUP1 MLOAD PUSH1 0xFF DUP2 AND DUP2 EQ PUSH3 0x2AA JUMPI PUSH1 0x0 DUP1 REVERT JUMPDEST PUSH1 0x0 PUSH1 0x20 DUP3 DUP5 SUB SLT ISZERO PUSH3 0x2D3 JUMPI DUP1 DUP2 REVERT JUMPDEST PUSH3 0x2DE DUP3 PUSH3 0x292 JUMP JUMPDEST SWAP4 SWAP3 POP POP POP JUMP JUMPDEST PUSH1 0x0 DUP1 PUSH1 0x0 DUP1 PUSH1 0x0 PUSH1 0xA0 DUP7 DUP9 SUB SLT ISZERO PUSH3 0x2FD JUMPI DUP1 DUP2 REVERT JUMPDEST PUSH3 0x308 DUP7 PUSH3 0x292 JUMP JUMPDEST SWAP5 POP PUSH1 0x20 PUSH3 0x319 DUP2 DUP9 ADD PUSH3 0x292 JUMP JUMPDEST PUSH1 0x40 DUP9 ADD MLOAD SWAP1 SWAP6 POP PUSH1 0x1 PUSH1 0x1 PUSH1 0x40 SHL SUB DUP1 DUP3 GT ISZERO PUSH3 0x336 JUMPI DUP4 DUP5 REVERT JUMPDEST DUP2 DUP10 ADD SWAP2 POP DUP10 PUSH1 0x1F DUP4 ADD SLT PUSH3 0x34A JUMPI DUP4 DUP5 REVERT JUMPDEST DUP2 MLOAD DUP2 DUP2 GT ISZERO PUSH3 0x35F JUMPI PUSH3 0x35F PUSH3 0x43D JUMP JUMPDEST PUSH1 0x40 MLOAD PUSH1 0x1F DUP3 ADD PUSH1 0x1F NOT SWAP1 DUP2 AND PUSH1 0x3F ADD AND DUP2 ADD SWAP1 DUP4 DUP3 GT DUP2 DUP4 LT OR ISZERO PUSH3 0x38A JUMPI PUSH3 0x38A PUSH3 0x43D JUMP JUMPDEST DUP2 PUSH1 0x40 MSTORE DUP3 DUP2 MSTORE DUP13 DUP7 DUP5 DUP8 ADD ADD GT ISZERO PUSH3 0x3A2 JUMPI DUP7 DUP8 REVERT JUMPDEST DUP7 SWAP4 POP JUMPDEST DUP3 DUP5 LT ISZERO PUSH3 0x3C5 JUMPI DUP5 DUP5 ADD DUP7 ADD MLOAD DUP2 DUP6 ADD DUP8 ADD MSTORE SWAP3 DUP6 ADD SWAP3 PUSH3 0x3A6 JUMP JUMPDEST DUP3 DUP5 GT ISZERO PUSH3 0x3D6 JUMPI DUP7 DUP7 DUP5 DUP4 ADD ADD MSTORE JUMPDEST DUP1 SWAP9 POP POP POP POP POP POP POP PUSH1 0x60 DUP7 ADD MLOAD SWAP2 POP PUSH3 0x3F4 PUSH1 0x80 DUP8 ADD PUSH3 0x2AF JUMP JUMPDEST SWAP1 POP SWAP3 SWAP6 POP SWAP3 SWAP6 SWAP1 SWAP4 POP JUMP JUMPDEST PUSH1 0x1 DUP2 DUP2 SHR SWAP1 DUP3 AND DUP1 PUSH3 0x415 JUMPI PUSH1 0x7F DUP3 AND SWAP2 POP JUMPDEST PUSH1 0x20 DUP3 LT DUP2 EQ ISZERO PUSH3 0x437 JUMPI PUSH4 0x4E487B71 PUSH1 0xE0 SHL PUSH1 0x0 MSTORE PUSH1 0x22 PUSH1 0x4 MSTORE PUSH1 0x24 PUSH1 0x0 REVERT JUMPDEST POP SWAP2 SWAP1 POP JUMP JUMPDEST PUSH4 0x4E487B71 PUSH1 0xE0 SHL PUSH1 0x0 MSTORE PUSH1 0x41 PUSH1 0x4 MSTORE PUSH1 0x24 PUSH1 0x0 REVERT JUMPDEST PUSH2 0x7B4 DUP1 PUSH3 0x463 PUSH1 0x0 CODECOPY PUSH1 0x0 RETURN INVALID PUSH1 0x80 PUSH1 0x40 MSTORE CALLVALUE DUP1 ISZERO PUSH2 0x10 JUMPI PUSH1 0x0 DUP1 REVERT JUMPDEST POP PUSH1 0x4 CALLDATASIZE LT PUSH2 0xA9 JUMPI PUSH1 0x0 CALLDATALOAD PUSH1 0xE0 SHR DUP1 PUSH4 0x7EDBCEB1 GT PUSH2 0x71 JUMPI DUP1 PUSH4 0x7EDBCEB1 EQ PUSH2 0x150 JUMPI DUP1 PUSH4 0x8AAC9CCA EQ PUSH2 0x158 JUMPI DUP1 PUSH4 0x95623641 EQ PUSH2 0x161 JUMPI DUP1 PUSH4 0xA89BC05B EQ PUSH2 0x174 JUMPI DUP1 PUSH4 0xC2B7BBB6 EQ PUSH2 0x187 JUMPI DUP1 PUSH4 0xFA6EAD20 EQ PUSH2 0x19A JUMPI PUSH1 0x0 DUP1 REVERT JUMPDEST DUP1 PUSH4 0x12713EE4 EQ PUSH2 0xAE JUMPI DUP1 PUSH4 0x233DE126 EQ PUSH2 0xCC JUMPI DUP1 PUSH4 0x3A4B66F1 EQ PUSH2 0xEB JUMPI DUP1 PUSH4 0x5A4CFC06 EQ PUSH2 0x102 JUMPI DUP1 PUSH4 0x718C7D44 EQ PUSH2 0x125 JUMPI JUMPDEST PUSH1 0x0 DUP1 REVERT JUMPDEST PUSH2 0xB6 PUSH2 0x1AF JUMP JUMPDEST PUSH1 0x40 MLOAD PUSH2 0xC3 SWAP2 SWAP1 PUSH2 0x625 JUMP JUMPDEST PUSH1 0x40 MLOAD DUP1 SWAP2 SUB SWAP1 RETURN JUMPDEST PUSH1 0x5 SLOAD PUSH2 0xD9 SWAP1 PUSH1 0xFF AND DUP2 JUMP JUMPDEST PUSH1 0x40 MLOAD PUSH1 0xFF SWAP1 SWAP2 AND DUP2 MSTORE PUSH1 0x20 ADD PUSH2 0xC3 JUMP JUMPDEST PUSH2 0xF4 PUSH1 0x3 SLOAD DUP2 JUMP JUMPDEST PUSH1 0x40 MLOAD SWAP1 DUP2 MSTORE PUSH1 0x20 ADD PUSH2 0xC3 JUMP JUMPDEST PUSH2 0x115 PUSH2 0x110 CALLDATASIZE PUSH1 0x4 PUSH2 0x60D JUMP JUMPDEST PUSH2 0x211 JUMP JUMPDEST PUSH1 0x40 MLOAD SWAP1 ISZERO ISZERO DUP2 MSTORE PUSH1 0x20 ADD PUSH2 0xC3 JUMP JUMPDEST PUSH1 0x1 SLOAD PUSH2 0x138 SWAP1 PUSH1 0x1 PUSH1 0x1 PUSH1 0xA0 SHL SUB AND DUP2 JUMP JUMPDEST PUSH1 0x40 MLOAD PUSH1 0x1 PUSH1 0x1 PUSH1 0xA0 SHL SUB SWAP1 SWAP2 AND DUP2 MSTORE PUSH1 0x20 ADD PUSH2 0xC3 JUMP JUMPDEST PUSH2 0x115 PUSH2 0x266 JUMP JUMPDEST PUSH2 0xF4 PUSH1 0x4 SLOAD DUP2 JUMP JUMPDEST PUSH1 0x2 SLOAD PUSH2 0x138 SWAP1 PUSH1 0x1 PUSH1 0x1 PUSH1 0xA0 SHL SUB AND DUP2 JUMP JUMPDEST PUSH2 0x138 PUSH2 0x182 CALLDATASIZE PUSH1 0x4 PUSH2 0x60D JUMP JUMPDEST PUSH2 0x2E1 JUMP JUMPDEST PUSH2 0x115 PUSH2 0x195 CALLDATASIZE PUSH1 0x4 PUSH2 0x5CE JUMP JUMPDEST PUSH2 0x30B JUMP JUMPDEST PUSH2 0x1A2 PUSH2 0x407 JUMP JUMPDEST PUSH1 0x40 MLOAD PUSH2 0xC3 SWAP2 SWAP1 PUSH2 0x672 JUMP JUMPDEST PUSH1 0x60 PUSH1 0x6 DUP1 SLOAD DUP1 PUSH1 0x20 MUL PUSH1 0x20 ADD PUSH1 0x40 MLOAD SWAP1 DUP2 ADD PUSH1 0x40 MSTORE DUP1 SWAP3 SWAP2 SWAP1 DUP2 DUP2 MSTORE PUSH1 0x20 ADD DUP3 DUP1 SLOAD DUP1 ISZERO PUSH2 0x207 JUMPI PUSH1 0x20 MUL DUP3 ADD SWAP2 SWAP1 PUSH1 0x0 MSTORE PUSH1 0x20 PUSH1 0x0 KECCAK256 SWAP1 JUMPDEST DUP2 SLOAD PUSH1 0x1 PUSH1 0x1 PUSH1 0xA0 SHL SUB AND DUP2 MSTORE PUSH1 0x1 SWAP1 SWAP2 ADD SWAP1 PUSH1 0x20 ADD DUP1 DUP4 GT PUSH2 0x1E9 JUMPI JUMPDEST POP POP POP POP POP SWAP1 POP SWAP1 JUMP JUMPDEST PUSH1 0x2 SLOAD PUSH1 0x0 SWAP1 PUSH1 0x1 PUSH1 0x1 PUSH1 0xA0 SHL SUB AND CALLER EQ PUSH2 0x247 JUMPI PUSH1 0x40 MLOAD PUSH3 0x461BCD PUSH1 0xE5 SHL DUP2 MSTORE PUSH1 0x4 ADD PUSH2 0x23E SWAP1 PUSH2 0x6C5 JUMP JUMPDEST PUSH1 0x40 MLOAD DUP1 SWAP2 SUB SWAP1 REVERT JUMPDEST DUP2 PUSH1 0x4 PUSH1 0x0 DUP3 DUP3 SLOAD PUSH2 0x259 SWAP2 SWAP1 PUSH2 0x70D JUMP JUMPDEST SWAP1 SWAP2 SSTORE POP PUSH1 0x1 SWAP4 SWAP3 POP POP POP JUMP JUMPDEST PUSH1 0x1 SLOAD PUSH1 0x0 SWAP1 PUSH1 0x1 PUSH1 0x1 PUSH1 0xA0 SHL SUB AND CALLER EQ PUSH2 0x293 JUMPI PUSH1 0x40 MLOAD PUSH3 0x461BCD PUSH1 0xE5 SHL DUP2 MSTORE PUSH1 0x4 ADD PUSH2 0x23E SWAP1 PUSH2 0x6C5 JUMP JUMPDEST PUSH1 0x0 SELFBALANCE GT PUSH2 0x2DB JUMPI PUSH1 0x40 MLOAD PUSH3 0x461BCD PUSH1 0xE5 SHL DUP2 MSTORE PUSH1 0x20 PUSH1 0x4 DUP3 ADD MSTORE PUSH1 0x15 PUSH1 0x24 DUP3 ADD MSTORE PUSH21 0x546869732062657420686173206E6F2066756E6473 PUSH1 0x58 SHL PUSH1 0x44 DUP3 ADD MSTORE PUSH1 0x64 ADD PUSH2 0x23E JUMP JUMPDEST POP PUSH1 0x1 SWAP1 JUMP JUMPDEST PUSH1 0x6 DUP2 DUP2 SLOAD DUP2 LT PUSH2 0x2F1 JUMPI PUSH1 0x0 DUP1 REVERT JUMPDEST PUSH1 0x0 SWAP2 DUP3 MSTORE PUSH1 0x20 SWAP1 SWAP2 KECCAK256 ADD SLOAD PUSH1 0x1 PUSH1 0x1 PUSH1 0xA0 SHL SUB AND SWAP1 POP DUP2 JUMP JUMPDEST PUSH1 0x2 SLOAD PUSH1 0x0 SWAP1 PUSH1 0x1 PUSH1 0x1 PUSH1 0xA0 SHL SUB AND CALLER EQ PUSH2 0x338 JUMPI PUSH1 0x40 MLOAD PUSH3 0x461BCD PUSH1 0xE5 SHL DUP2 MSTORE PUSH1 0x4 ADD PUSH2 0x23E SWAP1 PUSH2 0x6C5 JUMP JUMPDEST PUSH2 0x341 DUP3 PUSH2 0x495 JUMP JUMPDEST PUSH2 0x3B3 JUMPI PUSH1 0x40 MLOAD PUSH3 0x461BCD PUSH1 0xE5 SHL DUP2 MSTORE PUSH1 0x20 PUSH1 0x4 DUP3 ADD MSTORE PUSH1 0x38 PUSH1 0x24 DUP3 ADD MSTORE PUSH32 0x5468652061646472657373206973206E6F7420612076616C6964206265747061 PUSH1 0x44 DUP3 ADD MSTORE PUSH32 0x697220636F6E747261637420666F722074686973206265740000000000000000 PUSH1 0x64 DUP3 ADD MSTORE PUSH1 0x84 ADD PUSH2 0x23E JUMP JUMPDEST POP PUSH1 0x6 DUP1 SLOAD PUSH1 0x1 DUP2 DUP2 ADD DUP4 SSTORE PUSH1 0x0 SWAP3 SWAP1 SWAP3 MSTORE PUSH32 0xF652222313E28459528D920B65115C16C04F3EFC82AAEDC97BE59F3F377C0D3F ADD DUP1 SLOAD PUSH1 0x1 PUSH1 0x1 PUSH1 0xA0 SHL SUB DUP5 AND PUSH1 0x1 PUSH1 0x1 PUSH1 0xA0 SHL SUB NOT SWAP1 SWAP2 AND OR SWAP1 SSTORE SWAP2 SWAP1 POP JUMP JUMPDEST PUSH1 0x7 DUP1 SLOAD PUSH2 0x414 SWAP1 PUSH2 0x731 JUMP JUMPDEST DUP1 PUSH1 0x1F ADD PUSH1 0x20 DUP1 SWAP2 DIV MUL PUSH1 0x20 ADD PUSH1 0x40 MLOAD SWAP1 DUP2 ADD PUSH1 0x40 MSTORE DUP1 SWAP3 SWAP2 SWAP1 DUP2 DUP2 MSTORE PUSH1 0x20 ADD DUP3 DUP1 SLOAD PUSH2 0x440 SWAP1 PUSH2 0x731 JUMP JUMPDEST DUP1 ISZERO PUSH2 0x48D JUMPI DUP1 PUSH1 0x1F LT PUSH2 0x462 JUMPI PUSH2 0x100 DUP1 DUP4 SLOAD DIV MUL DUP4 MSTORE SWAP2 PUSH1 0x20 ADD SWAP2 PUSH2 0x48D JUMP JUMPDEST DUP3 ADD SWAP2 SWAP1 PUSH1 0x0 MSTORE PUSH1 0x20 PUSH1 0x0 KECCAK256 SWAP1 JUMPDEST DUP2 SLOAD DUP2 MSTORE SWAP1 PUSH1 0x1 ADD SWAP1 PUSH1 0x20 ADD DUP1 DUP4 GT PUSH2 0x470 JUMPI DUP3 SWAP1 SUB PUSH1 0x1F AND DUP3 ADD SWAP2 JUMPDEST POP POP POP POP POP DUP2 JUMP JUMPDEST PUSH1 0x0 DUP2 EXTCODESIZE PUSH4 0xFFFFFFFF DUP2 AND ISZERO PUSH2 0x5BF JUMPI PUSH1 0x0 DUP4 SWAP1 POP PUSH1 0x0 DUP2 PUSH1 0x1 PUSH1 0x1 PUSH1 0xA0 SHL SUB AND PUSH4 0x95623641 PUSH1 0x40 MLOAD DUP2 PUSH4 0xFFFFFFFF AND PUSH1 0xE0 SHL DUP2 MSTORE PUSH1 0x4 ADD PUSH1 0x20 PUSH1 0x40 MLOAD DUP1 DUP4 SUB DUP2 DUP7 DUP1 EXTCODESIZE ISZERO DUP1 ISZERO PUSH2 0x4E5 JUMPI PUSH1 0x0 DUP1 REVERT JUMPDEST POP GAS STATICCALL ISZERO DUP1 ISZERO PUSH2 0x4F9 JUMPI RETURNDATASIZE PUSH1 0x0 DUP1 RETURNDATACOPY RETURNDATASIZE PUSH1 0x0 REVERT JUMPDEST POP POP POP POP PUSH1 0x40 MLOAD RETURNDATASIZE PUSH1 0x1F NOT PUSH1 0x1F DUP3 ADD AND DUP3 ADD DUP1 PUSH1 0x40 MSTORE POP DUP2 ADD SWAP1 PUSH2 0x51D SWAP2 SWAP1 PUSH2 0x5F1 JUMP JUMPDEST SWAP1 POP ADDRESS PUSH1 0x1 PUSH1 0x1 PUSH1 0xA0 SHL SUB AND PUSH4 0x95623641 PUSH1 0x40 MLOAD DUP2 PUSH4 0xFFFFFFFF AND PUSH1 0xE0 SHL DUP2 MSTORE PUSH1 0x4 ADD PUSH1 0x20 PUSH1 0x40 MLOAD DUP1 DUP4 SUB DUP2 DUP7 DUP1 EXTCODESIZE ISZERO DUP1 ISZERO PUSH2 0x558 JUMPI PUSH1 0x0 DUP1 REVERT JUMPDEST POP GAS STATICCALL ISZERO DUP1 ISZERO PUSH2 0x56C JUMPI RETURNDATASIZE PUSH1 0x0 DUP1 RETURNDATACOPY RETURNDATASIZE PUSH1 0x0 REVERT JUMPDEST POP POP POP POP PUSH1 0x40 MLOAD RETURNDATASIZE PUSH1 0x1F NOT PUSH1 0x1F DUP3 ADD AND DUP3 ADD DUP1 PUSH1 0x40 MSTORE POP DUP2 ADD SWAP1 PUSH2 0x590 SWAP2 SWAP1 PUSH2 0x5F1 JUMP JUMPDEST PUSH1 0x1 PUSH1 0x1 PUSH1 0xA0 SHL SUB AND DUP2 PUSH1 0x1 PUSH1 0x1 PUSH1 0xA0 SHL SUB AND EQ ISZERO PUSH2 0x5B4 JUMPI POP PUSH1 0x1 SWAP5 SWAP4 POP POP POP POP JUMP JUMPDEST POP PUSH1 0x0 SWAP5 SWAP4 POP POP POP POP JUMP JUMPDEST POP PUSH1 0x0 SWAP3 SWAP2 POP POP JUMP JUMPDEST POP SWAP2 SWAP1 POP JUMP JUMPDEST PUSH1 0x0 PUSH1 0x20 DUP3 DUP5 SUB SLT ISZERO PUSH2 0x5DF JUMPI DUP1 DUP2 REVERT JUMPDEST DUP2 CALLDATALOAD PUSH2 0x5EA DUP2 PUSH2 0x766 JUMP JUMPDEST SWAP4 SWAP3 POP POP POP JUMP JUMPDEST PUSH1 0x0 PUSH1 0x20 DUP3 DUP5 SUB SLT ISZERO PUSH2 0x602 JUMPI DUP1 DUP2 REVERT JUMPDEST DUP2 MLOAD PUSH2 0x5EA DUP2 PUSH2 0x766 JUMP JUMPDEST PUSH1 0x0 PUSH1 0x20 DUP3 DUP5 SUB SLT ISZERO PUSH2 0x61E JUMPI DUP1 DUP2 REVERT JUMPDEST POP CALLDATALOAD SWAP2 SWAP1 POP JUMP JUMPDEST PUSH1 0x20 DUP1 DUP3 MSTORE DUP3 MLOAD DUP3 DUP3 ADD DUP2 SWAP1 MSTORE PUSH1 0x0 SWAP2 SWAP1 DUP5 DUP3 ADD SWAP1 PUSH1 0x40 DUP6 ADD SWAP1 DUP5 JUMPDEST DUP2 DUP2 LT ISZERO PUSH2 0x666 JUMPI DUP4 MLOAD PUSH1 0x1 PUSH1 0x1 PUSH1 0xA0 SHL SUB AND DUP4 MSTORE SWAP3 DUP5 ADD SWAP3 SWAP2 DUP5 ADD SWAP2 PUSH1 0x1 ADD PUSH2 0x641 JUMP JUMPDEST POP SWAP1 SWAP7 SWAP6 POP POP POP POP POP POP JUMP JUMPDEST PUSH1 0x0 PUSH1 0x20 DUP1 DUP4 MSTORE DUP4 MLOAD DUP1 DUP3 DUP6 ADD MSTORE DUP3 JUMPDEST DUP2 DUP2 LT ISZERO PUSH2 0x69E JUMPI DUP6 DUP2 ADD DUP4 ADD MLOAD DUP6 DUP3 ADD PUSH1 0x40 ADD MSTORE DUP3 ADD PUSH2 0x682 JUMP JUMPDEST DUP2 DUP2 GT ISZERO PUSH2 0x6AF JUMPI DUP4 PUSH1 0x40 DUP4 DUP8 ADD ADD MSTORE JUMPDEST POP PUSH1 0x1F ADD PUSH1 0x1F NOT AND SWAP3 SWAP1 SWAP3 ADD PUSH1 0x40 ADD SWAP4 SWAP3 POP POP POP JUMP JUMPDEST PUSH1 0x20 DUP1 DUP3 MSTORE PUSH1 0x28 SWAP1 DUP3 ADD MSTORE PUSH32 0x4F6E6C79206576656E74206265747465722063616E2063616C6C207468697320 PUSH1 0x40 DUP3 ADD MSTORE PUSH8 0x333AB731BA34B7B7 PUSH1 0xC1 SHL PUSH1 0x60 DUP3 ADD MSTORE PUSH1 0x80 ADD SWAP1 JUMP JUMPDEST PUSH1 0x0 DUP3 NOT DUP3 GT ISZERO PUSH2 0x72C JUMPI PUSH4 0x4E487B71 PUSH1 0xE0 SHL DUP2 MSTORE PUSH1 0x11 PUSH1 0x4 MSTORE PUSH1 0x24 DUP2 REVERT JUMPDEST POP ADD SWAP1 JUMP JUMPDEST PUSH1 0x1 DUP2 DUP2 SHR SWAP1 DUP3 AND DUP1 PUSH2 0x745 JUMPI PUSH1 0x7F DUP3 AND SWAP2 POP JUMPDEST PUSH1 0x20 DUP3 LT DUP2 EQ ISZERO PUSH2 0x5C8 JUMPI PUSH4 0x4E487B71 PUSH1 0xE0 SHL PUSH1 0x0 MSTORE PUSH1 0x22 PUSH1 0x4 MSTORE PUSH1 0x24 PUSH1 0x0 REVERT JUMPDEST PUSH1 0x1 PUSH1 0x1 PUSH1 0xA0 SHL SUB DUP2 AND DUP2 EQ PUSH2 0x77B JUMPI PUSH1 0x0 DUP1 REVERT JUMPDEST POP JUMP INVALID LOG2 PUSH5 0x6970667358 0x22 SLT KECCAK256 PUSH24 0xA1967C6454582AA4D90E5EEEE5B6728E67DD105905426409 SWAP14 STOP 0x5C DUP6 LOG4 0xAE ADD PUSH5 0x736F6C6343 STOP ADDMOD DIV STOP CALLER "
				},
				"gasEstimates": {
					"creation": {
						"codeDepositCost": "394400",
						"executionCost": "infinite",
						"totalCost": "infinite"
					},
					"external": {
						"addPair(address)": "infinite",
						"betPairs(uint256)": "2080",
						"better()": "1126",
						"getBetPairs()": "infinite",
						"marketAddress()": "1081",
						"marketSide()": "infinite",
						"matched()": "1017",
						"odds()": "1036",
						"setMatched(uint256)": "22105",
						"stake()": "1040",
						"withdrawPending()": "1142"
					},
					"internal": {
						"isValidBetPair(address)": "infinite"
					}
				},
				"methodIdentifiers": {
					"addPair(address)": "c2b7bbb6",
					"betPairs(uint256)": "a89bc05b",
					"better()": "718c7d44",
					"getBetPairs()": "12713ee4",
					"marketAddress()": "95623641",
					"marketSide()": "fa6ead20",
					"matched()": "8aac9cca",
					"odds()": "233de126",
					"setMatched(uint256)": "5a4cfc06",
					"stake()": "3a4b66f1",
					"withdrawPending()": "7edbceb1"
				}
			},
			"storageLayout": {
				"storage": [
					{
						"astId": 8,
						"contract": "contracts/Bet.sol:Bet",
						"label": "web3betsAddress",
						"offset": 0,
						"slot": "0",
						"type": "t_address"
					},
					{
						"astId": 11,
						"contract": "contracts/Bet.sol:Bet",
						"label": "better",
						"offset": 0,
						"slot": "1",
						"type": "t_address"
					},
					{
						"astId": 14,
						"contract": "contracts/Bet.sol:Bet",
						"label": "marketAddress",
						"offset": 0,
						"slot": "2",
						"type": "t_address"
					},
					{
						"astId": 17,
						"contract": "contracts/Bet.sol:Bet",
						"label": "stake",
						"offset": 0,
						"slot": "3",
						"type": "t_uint256"
					},
					{
						"astId": 20,
						"contract": "contracts/Bet.sol:Bet",
						"label": "matched",
						"offset": 0,
						"slot": "4",
						"type": "t_uint256"
					},
					{
						"astId": 23,
						"contract": "contracts/Bet.sol:Bet",
						"label": "odds",
						"offset": 0,
						"slot": "5",
						"type": "t_uint8"
					},
					{
						"astId": 26,
						"contract": "contracts/Bet.sol:Bet",
						"label": "betPairs",
						"offset": 0,
						"slot": "6",
						"type": "t_array(t_address)dyn_storage"
					},
					{
						"astId": 29,
						"contract": "contracts/Bet.sol:Bet",
						"label": "marketSide",
						"offset": 0,
						"slot": "7",
						"type": "t_string_storage"
					},
					{
						"astId": 35,
						"contract": "contracts/Bet.sol:Bet",
						"label": "web3bets",
						"offset": 0,
						"slot": "8",
						"type": "t_contract(IWeb3BetsFO)397"
					}
				],
				"types": {
					"t_address": {
						"encoding": "inplace",
						"label": "address",
						"numberOfBytes": "20"
					},
					"t_array(t_address)dyn_storage": {
						"base": "t_address",
						"encoding": "dynamic_array",
						"label": "address[]",
						"numberOfBytes": "32"
					},
					"t_contract(IWeb3BetsFO)397": {
						"encoding": "inplace",
						"label": "contract IWeb3BetsFO",
						"numberOfBytes": "20"
					},
					"t_string_storage": {
						"encoding": "bytes",
						"label": "string",
						"numberOfBytes": "32"
					},
					"t_uint256": {
						"encoding": "inplace",
						"label": "uint256",
						"numberOfBytes": "32"
					},
					"t_uint8": {
						"encoding": "inplace",
						"label": "uint8",
						"numberOfBytes": "1"
					}
				}
			},
			"userdoc": {
				"kind": "user",
				"methods": {},
				"version": 1
			}
		}
	}
}