{
	"contracts/Market.sol": {
		"Market": {
			"abi": [
				{
					"inputs": [],
					"stateMutability": "nonpayable",
					"type": "constructor"
				},
				{
					"anonymous": false,
					"inputs": [
						{
							"indexed": false,
							"internalType": "address",
							"name": "better",
							"type": "address"
						},
						{
							"indexed": false,
							"internalType": "address",
							"name": "marketAddr",
							"type": "address"
						},
						{
							"indexed": false,
							"internalType": "bytes32",
							"name": "hash",
							"type": "bytes32"
						},
						{
							"indexed": false,
							"internalType": "uint256",
							"name": "stake",
							"type": "uint256"
						},
						{
							"indexed": false,
							"internalType": "uint256",
							"name": "odds",
							"type": "uint256"
						},
						{
							"indexed": false,
							"internalType": "uint256",
							"name": "side",
							"type": "uint256"
						}
					],
					"name": "BetCreated",
					"type": "event"
				},
				{
					"anonymous": false,
					"inputs": [
						{
							"indexed": false,
							"internalType": "bytes32",
							"name": "betHashA",
							"type": "bytes32"
						},
						{
							"indexed": false,
							"internalType": "bytes32",
							"name": "betHashB",
							"type": "bytes32"
						},
						{
							"indexed": false,
							"internalType": "uint256",
							"name": "amountA",
							"type": "uint256"
						},
						{
							"indexed": false,
							"internalType": "uint256",
							"name": "amountB",
							"type": "uint256"
						}
					],
					"name": "PairCreated",
					"type": "event"
				},
				{
					"inputs": [
						{
							"internalType": "address",
							"name": "_better",
							"type": "address"
						},
						{
							"internalType": "address",
							"name": "_affiliate",
							"type": "address"
						},
						{
							"internalType": "uint256",
							"name": "_stake",
							"type": "uint256"
						},
						{
							"internalType": "uint256",
							"name": "_odds",
							"type": "uint256"
						},
						{
							"internalType": "uint256",
							"name": "_side",
							"type": "uint256"
						},
						{
							"internalType": "bool",
							"name": "_instant",
							"type": "bool"
						}
					],
					"name": "addBet",
					"outputs": [
						{
							"internalType": "bytes32",
							"name": "",
							"type": "bytes32"
						}
					],
					"stateMutability": "nonpayable",
					"type": "function"
				},
				{
					"inputs": [],
					"name": "cancelMarket",
					"outputs": [
						{
							"internalType": "bool",
							"name": "",
							"type": "bool"
						}
					],
					"stateMutability": "nonpayable",
					"type": "function"
				},
				{
					"inputs": [
						{
							"internalType": "bytes32",
							"name": "_bet",
							"type": "bytes32"
						}
					],
					"name": "cancelPending",
					"outputs": [],
					"stateMutability": "nonpayable",
					"type": "function"
				},
				{
					"inputs": [
						{
							"internalType": "address",
							"name": "_user",
							"type": "address"
						}
					],
					"name": "getBalance",
					"outputs": [
						{
							"internalType": "uint256",
							"name": "",
							"type": "uint256"
						}
					],
					"stateMutability": "view",
					"type": "function"
				},
				{
					"inputs": [
						{
							"internalType": "address",
							"name": "_user",
							"type": "address"
						}
					],
					"name": "getUserBets",
					"outputs": [
						{
							"components": [
								{
									"internalType": "address",
									"name": "better",
									"type": "address"
								},
								{
									"internalType": "address",
									"name": "affiliate",
									"type": "address"
								},
								{
									"internalType": "uint256",
									"name": "stake",
									"type": "uint256"
								},
								{
									"internalType": "uint256",
									"name": "matched",
									"type": "uint256"
								},
								{
									"internalType": "uint256",
									"name": "odds",
									"type": "uint256"
								},
								{
									"internalType": "uint256",
									"name": "side",
									"type": "uint256"
								}
							],
							"internalType": "struct IMarket.MarketBet[]",
							"name": "",
							"type": "tuple[]"
						}
					],
					"stateMutability": "view",
					"type": "function"
				},
				{
					"inputs": [
						{
							"internalType": "uint256",
							"name": "_winningSide",
							"type": "uint256"
						}
					],
					"name": "settle",
					"outputs": [
						{
							"internalType": "bool",
							"name": "",
							"type": "bool"
						}
					],
					"stateMutability": "nonpayable",
					"type": "function"
				},
				{
					"inputs": [
						{
							"internalType": "bytes32",
							"name": "_bet",
							"type": "bytes32"
						}
					],
					"name": "settleBet",
					"outputs": [],
					"stateMutability": "nonpayable",
					"type": "function"
				},
				{
					"inputs": [],
					"name": "start",
					"outputs": [],
					"stateMutability": "nonpayable",
					"type": "function"
				},
				{
					"inputs": [],
					"name": "status",
					"outputs": [
						{
							"internalType": "uint256",
							"name": "",
							"type": "uint256"
						}
					],
					"stateMutability": "view",
					"type": "function"
				},
				{
					"inputs": [
						{
							"internalType": "address",
							"name": "_addr",
							"type": "address"
						}
					],
					"name": "withdraw",
					"outputs": [
						{
							"internalType": "bool",
							"name": "",
							"type": "bool"
						}
					],
					"stateMutability": "nonpayable",
					"type": "function"
				}
			],
			"devdoc": {
				"kind": "dev",
				"methods": {},
				"version": 1
			},
			"evm": {
				"assembly": "    /* \"contracts/Market.sol\":194:11139  contract Market is IMarket, ReentrancyGuard {... */\n  mstore(0x40, 0xc0)\n    /* \"contracts/Market.sol\":412:413  0 */\n  0x00\n    /* \"contracts/Market.sol\":379:413  uint256 public override status = 0 */\n  0x02\n  sstore\n    /* \"contracts/Market.sol\":1165:1172  factory */\n  and(sub(shl(0xa0, 0x01), 0x01), sload(0x01))\n    /* \"contracts/Market.sol\":1117:1173  IWeb3BetsFO immutable private app = IWeb3BetsFO(factory) */\n  0xa0\n  mstore\n    /* \"contracts/Market.sol\":1609:1715  constructor() {... */\n  callvalue\n  dup1\n  iszero\n  tag_1\n  jumpi\n  0x00\n  dup1\n  revert\ntag_1:\n  pop\n    /* \"@openzeppelin/contracts/security/ReentrancyGuard.sol\":1701:1702  1 */\n  0x01\n    /* \"@openzeppelin/contracts/security/ReentrancyGuard.sol\":1806:1813  _status */\n  0x00\n    /* \"@openzeppelin/contracts/security/ReentrancyGuard.sol\":1806:1828  _status = _NOT_ENTERED */\n  dup2\n  swap1\n  sstore\n    /* \"contracts/Market.sol\":1633:1653  factory = msg.sender */\n  dup1\n  sload\n  not(sub(shl(0xa0, 0x01), 0x01))\n  and\n    /* \"contracts/Market.sol\":1643:1653  msg.sender */\n  caller\n    /* \"contracts/Market.sol\":1633:1653  factory = msg.sender */\n  swap1\n  dup2\n  or\n  swap1\n  swap2\n  sstore\n    /* \"contracts/Market.sol\":1678:1707  IWeb3BetsFO(factory).scAddr() */\n  0x40\n  dup1\n  mload\n  shl(0xe3, 0x966ed9)\n  dup2\n  mstore\n  swap1\n  mload\n    /* \"contracts/Market.sol\":1678:1705  IWeb3BetsFO(factory).scAddr */\n  0x04b376c8\n  swap2\n    /* \"contracts/Market.sol\":1678:1707  IWeb3BetsFO(factory).scAddr() */\n  0x04\n  dup1\n  dup3\n  add\n  swap3\n  0x20\n  swap3\n  swap1\n  swap2\n  swap1\n  dup3\n  swap1\n  sub\n  add\n  dup2\n    /* \"contracts/Market.sol\":1643:1653  msg.sender */\n  dup7\n    /* \"contracts/Market.sol\":1678:1707  IWeb3BetsFO(factory).scAddr() */\n  gas\n  staticcall\n  iszero\n  dup1\n  iszero\n  tag_7\n  jumpi\n  returndatasize\n  0x00\n  dup1\n  returndatacopy\n  revert(0x00, returndatasize)\ntag_7:\n  pop\n  pop\n  pop\n  pop\n  mload(0x40)\n  returndatasize\n  not(0x1f)\n  0x1f\n  dup3\n  add\n  and\n  dup3\n  add\n  dup1\n  0x40\n  mstore\n  pop\n  dup2\n  add\n  swap1\n  tag_8\n  swap2\n  swap1\n  tag_9\n  jump\t// in\ntag_8:\n  sub(shl(0xa0, 0x01), 0x01)\n    /* \"contracts/Market.sol\":1663:1708  token = IERC20(IWeb3BetsFO(factory).scAddr()) */\n  and\n  0x80\n  mstore\n    /* \"contracts/Market.sol\":194:11139  contract Market is IMarket, ReentrancyGuard {... */\n  jump(tag_11)\n    /* \"#utility.yul\":14:304   */\ntag_9:\n    /* \"#utility.yul\":84:90   */\n  0x00\n    /* \"#utility.yul\":137:139   */\n  0x20\n    /* \"#utility.yul\":125:134   */\n  dup3\n    /* \"#utility.yul\":116:123   */\n  dup5\n    /* \"#utility.yul\":112:135   */\n  sub\n    /* \"#utility.yul\":108:140   */\n  slt\n    /* \"#utility.yul\":105:157   */\n  iszero\n  tag_13\n  jumpi\n    /* \"#utility.yul\":153:154   */\n  0x00\n    /* \"#utility.yul\":150:151   */\n  dup1\n    /* \"#utility.yul\":143:155   */\n  revert\n    /* \"#utility.yul\":105:157   */\ntag_13:\n    /* \"#utility.yul\":179:195   */\n  dup2\n  mload\n  sub(shl(0xa0, 0x01), 0x01)\n    /* \"#utility.yul\":224:255   */\n  dup2\n  and\n    /* \"#utility.yul\":214:256   */\n  dup2\n  eq\n    /* \"#utility.yul\":204:274   */\n  tag_14\n  jumpi\n    /* \"#utility.yul\":270:271   */\n  0x00\n    /* \"#utility.yul\":267:268   */\n  dup1\n    /* \"#utility.yul\":260:272   */\n  revert\n    /* \"#utility.yul\":204:274   */\ntag_14:\n    /* \"#utility.yul\":293:298   */\n  swap4\n    /* \"#utility.yul\":14:304   */\n  swap3\n  pop\n  pop\n  pop\n  jump\t// out\ntag_11:\n    /* \"contracts/Market.sol\":194:11139  contract Market is IMarket, ReentrancyGuard {... */\n  mload(0x80)\n  mload(0xa0)\n  codecopy(0x00, dataOffset(sub_0), dataSize(sub_0))\n  0x00\n  assignImmutable(\"0xa4f21281edf90d86f21da3432ee4f5dff8abfbde6aab55afd7f9f7d4d3676c77\")\n  0x00\n  assignImmutable(\"0xb82efe928ba8047fc73c44199ae87270ba92aad773ed77645c6bc82e384fdb71\")\n  return(0x00, dataSize(sub_0))\nstop\n\nsub_0: assembly {\n        /* \"contracts/Market.sol\":194:11139  contract Market is IMarket, ReentrancyGuard {... */\n      mstore(0x40, 0x80)\n      callvalue\n      dup1\n      iszero\n      tag_1\n      jumpi\n      0x00\n      dup1\n      revert\n    tag_1:\n      pop\n      jumpi(tag_2, lt(calldatasize, 0x04))\n      shr(0xe0, calldataload(0x00))\n      dup1\n      0x78d65b2f\n      gt\n      tag_13\n      jumpi\n      dup1\n      0x78d65b2f\n      eq\n      tag_8\n      jumpi\n      dup1\n      0x893372ca\n      eq\n      tag_9\n      jumpi\n      dup1\n      0x8df82800\n      eq\n      tag_10\n      jumpi\n      dup1\n      0xbe9a6555\n      eq\n      tag_11\n      jumpi\n      dup1\n      0xf8b2cb4f\n      eq\n      tag_12\n      jumpi\n      0x00\n      dup1\n      revert\n    tag_13:\n      dup1\n      0x200d2ed2\n      eq\n      tag_3\n      jumpi\n      dup1\n      0x2d56657d\n      eq\n      tag_4\n      jumpi\n      dup1\n      0x51cff8d9\n      eq\n      tag_5\n      jumpi\n      dup1\n      0x675f6537\n      eq\n      tag_6\n      jumpi\n      dup1\n      0x6bfefd6b\n      eq\n      tag_7\n      jumpi\n    tag_2:\n      0x00\n      dup1\n      revert\n        /* \"contracts/Market.sol\":379:413  uint256 public override status = 0 */\n    tag_3:\n      tag_14\n      sload(0x02)\n      dup2\n      jump\n    tag_14:\n      mload(0x40)\n        /* \"#utility.yul\":160:185   */\n      swap1\n      dup2\n      mstore\n        /* \"#utility.yul\":148:150   */\n      0x20\n        /* \"#utility.yul\":133:151   */\n      add\n        /* \"contracts/Market.sol\":379:413  uint256 public override status = 0 */\n    tag_16:\n      mload(0x40)\n      dup1\n      swap2\n      sub\n      swap1\n      return\n        /* \"contracts/Market.sol\":1836:2148  function getUserBets(address _user) external view override returns(MarketBet[] memory) {... */\n    tag_4:\n      tag_18\n      tag_19\n      calldatasize\n      0x04\n      tag_20\n      jump\t// in\n    tag_19:\n      tag_21\n      jump\t// in\n    tag_18:\n      mload(0x40)\n      tag_16\n      swap2\n      swap1\n      tag_23\n      jump\t// in\n        /* \"contracts/Market.sol\":2154:2514  function withdraw(address _addr) public override nonReentrant returns(bool) {... */\n    tag_5:\n      tag_24\n      tag_25\n      calldatasize\n      0x04\n      tag_20\n      jump\t// in\n    tag_25:\n      tag_26\n      jump\t// in\n    tag_24:\n      mload(0x40)\n        /* \"#utility.yul\":1901:1915   */\n      swap1\n      iszero\n        /* \"#utility.yul\":1894:1916   */\n      iszero\n        /* \"#utility.yul\":1876:1917   */\n      dup2\n      mstore\n        /* \"#utility.yul\":1864:1866   */\n      0x20\n        /* \"#utility.yul\":1849:1867   */\n      add\n        /* \"contracts/Market.sol\":2154:2514  function withdraw(address _addr) public override nonReentrant returns(bool) {... */\n      tag_16\n        /* \"#utility.yul\":1736:1923   */\n      jump\n        /* \"contracts/Market.sol\":3022:3302  function settleBet(bytes32 _bet) external override {... */\n    tag_6:\n      tag_29\n      tag_30\n      calldatasize\n      0x04\n      tag_31\n      jump\t// in\n    tag_30:\n      tag_32\n      jump\t// in\n    tag_29:\n      stop\n        /* \"contracts/Market.sol\":3665:3931  function cancelMarket() external override onlyFactory returns(bool) ... */\n    tag_7:\n      tag_24\n      tag_34\n      jump\t// in\n        /* \"contracts/Market.sol\":4069:7897  function addBet(... */\n    tag_8:\n      tag_14\n      tag_37\n      calldatasize\n      0x04\n      tag_38\n      jump\t// in\n    tag_37:\n      tag_39\n      jump\t// in\n        /* \"contracts/Market.sol\":2522:3016  function cancelPending(bytes32 _bet) external override nonReentrant {... */\n    tag_9:\n      tag_29\n      tag_43\n      calldatasize\n      0x04\n      tag_31\n      jump\t// in\n    tag_43:\n      tag_44\n      jump\t// in\n        /* \"contracts/Market.sol\":3308:3659  function settle(uint256 _winningSide)... */\n    tag_10:\n      tag_24\n      tag_46\n      calldatasize\n      0x04\n      tag_31\n      jump\t// in\n    tag_46:\n      tag_48\n      jump\t// in\n        /* \"contracts/Market.sol\":3937:4063  function start() external override onlyFactory {... */\n    tag_11:\n      tag_29\n      tag_51\n      jump\t// in\n        /* \"contracts/Market.sol\":1721:1830  function getBalance(address _user) external view override returns(uint256) {... */\n    tag_12:\n      tag_14\n      tag_53\n      calldatasize\n      0x04\n      tag_20\n      jump\t// in\n    tag_53:\n      sub(shl(0xa0, 0x01), 0x01)\n        /* \"contracts/Market.sol\":1813:1823  bal[_user] */\n      and\n        /* \"contracts/Market.sol\":1787:1794  uint256 */\n      0x00\n        /* \"contracts/Market.sol\":1813:1823  bal[_user] */\n      swap1\n      dup2\n      mstore\n        /* \"contracts/Market.sol\":1813:1816  bal */\n      0x06\n        /* \"contracts/Market.sol\":1813:1823  bal[_user] */\n      0x20\n      mstore\n      0x40\n      swap1\n      keccak256\n      sload\n      swap1\n        /* \"contracts/Market.sol\":1721:1830  function getBalance(address _user) external view override returns(uint256) {... */\n      jump\n        /* \"contracts/Market.sol\":1836:2148  function getUserBets(address _user) external view override returns(MarketBet[] memory) {... */\n    tag_21:\n      sub(shl(0xa0, 0x01), 0x01)\n        /* \"contracts/Market.sol\":1996:2011  userBets[_user] */\n      dup2\n      and\n        /* \"contracts/Market.sol\":1971:1993  bytes32[] memory _bets */\n      0x00\n        /* \"contracts/Market.sol\":1996:2011  userBets[_user] */\n      swap1\n      dup2\n      mstore\n        /* \"contracts/Market.sol\":1996:2004  userBets */\n      0x08\n        /* \"contracts/Market.sol\":1996:2011  userBets[_user] */\n      0x20\n      swap1\n      dup2\n      mstore\n      0x40\n      dup1\n      dup4\n      keccak256\n        /* \"contracts/Market.sol\":1971:2011  bytes32[] memory _bets = userBets[_user] */\n      dup1\n      sload\n      dup3\n      mload\n      dup2\n      dup6\n      mul\n      dup2\n      add\n      dup6\n      add\n      swap1\n      swap4\n      mstore\n      dup1\n      dup4\n      mstore\n        /* \"contracts/Market.sol\":1903:1921  MarketBet[] memory */\n      0x60\n      swap5\n      dup6\n      swap5\n        /* \"contracts/Market.sol\":1971:1993  bytes32[] memory _bets */\n      swap1\n      swap4\n        /* \"contracts/Market.sol\":1971:2011  bytes32[] memory _bets = userBets[_user] */\n      swap3\n        /* \"contracts/Market.sol\":1996:2011  userBets[_user] */\n      swap2\n        /* \"contracts/Market.sol\":1971:2011  bytes32[] memory _bets = userBets[_user] */\n      swap1\n      dup4\n      add\n        /* \"contracts/Market.sol\":1996:2011  userBets[_user] */\n      dup3\n        /* \"contracts/Market.sol\":1971:2011  bytes32[] memory _bets = userBets[_user] */\n      dup3\n      dup1\n      iszero\n      tag_57\n      jumpi\n      0x20\n      mul\n      dup3\n      add\n      swap2\n      swap1\n      0x00\n      mstore\n      keccak256(0x00, 0x20)\n      swap1\n    tag_58:\n      dup2\n      sload\n      dup2\n      mstore\n      0x20\n      add\n      swap1\n      0x01\n      add\n      swap1\n      dup1\n      dup4\n      gt\n      tag_58\n      jumpi\n    tag_57:\n      pop\n      pop\n      pop\n      pop\n      pop\n      swap1\n      pop\n        /* \"contracts/Market.sol\":2025:2031  uint i */\n      0x00\n        /* \"contracts/Market.sol\":2021:2116  for(uint i = 0; i < bets.length; i++){... */\n    tag_59:\n        /* \"contracts/Market.sol\":2041:2045  bets */\n      0x04\n        /* \"contracts/Market.sol\":2041:2052  bets.length */\n      sload\n        /* \"contracts/Market.sol\":2037:2052  i < bets.length */\n      dup2\n      lt\n        /* \"contracts/Market.sol\":2021:2116  for(uint i = 0; i < bets.length; i++){... */\n      iszero\n      tag_60\n      jumpi\n        /* \"contracts/Market.sol\":2087:2095  betsInfo */\n      0x07\n        /* \"contracts/Market.sol\":2087:2105  betsInfo[_bets[i]] */\n      0x00\n        /* \"contracts/Market.sol\":2096:2101  _bets */\n      dup4\n        /* \"contracts/Market.sol\":2102:2103  i */\n      dup4\n        /* \"contracts/Market.sol\":2096:2104  _bets[i] */\n      dup2\n      mload\n      dup2\n      lt\n      tag_63\n      jumpi\n      tag_63\n      tag_64\n      jump\t// in\n    tag_63:\n      0x20\n      swap1\n      dup2\n      mul\n      swap2\n      swap1\n      swap2\n      add\n      dup2\n      add\n      mload\n        /* \"contracts/Market.sol\":2087:2105  betsInfo[_bets[i]] */\n      dup3\n      mstore\n      dup2\n      dup2\n      add\n      swap3\n      swap1\n      swap3\n      mstore\n      0x40\n      swap1\n      dup2\n      add\n      0x00\n      keccak256\n        /* \"contracts/Market.sol\":2072:2105  _userBets[i] = betsInfo[_bets[i]] */\n      dup2\n      mload\n      0xc0\n      dup2\n      add\n      dup4\n      mstore\n      dup2\n      sload\n      sub(shl(0xa0, 0x01), 0x01)\n      swap1\n      dup2\n      and\n      dup3\n      mstore\n      0x01\n      dup4\n      add\n      sload\n      and\n      swap4\n      dup2\n      add\n      swap4\n      swap1\n      swap4\n      mstore\n      0x02\n      dup2\n      add\n      sload\n      swap2\n      dup4\n      add\n      swap2\n      swap1\n      swap2\n      mstore\n      0x03\n      dup2\n      add\n      sload\n      0x60\n      dup4\n      add\n      mstore\n      0x04\n      dup2\n      add\n      sload\n      0x80\n      dup4\n      add\n      mstore\n      0x05\n      add\n      sload\n      0xa0\n      dup3\n      add\n      mstore\n        /* \"contracts/Market.sol\":2072:2084  _userBets[i] */\n      dup4\n      mload\n        /* \"contracts/Market.sol\":2072:2081  _userBets */\n      dup5\n      swap1\n        /* \"contracts/Market.sol\":2082:2083  i */\n      dup4\n      swap1\n        /* \"contracts/Market.sol\":2072:2084  _userBets[i] */\n      dup2\n      lt\n      tag_66\n      jumpi\n      tag_66\n      tag_64\n      jump\t// in\n    tag_66:\n      0x20\n      mul\n      0x20\n      add\n      add\n        /* \"contracts/Market.sol\":2072:2105  _userBets[i] = betsInfo[_bets[i]] */\n      dup2\n      swap1\n      mstore\n      pop\n        /* \"contracts/Market.sol\":2054:2057  i++ */\n      dup1\n      dup1\n      tag_67\n      swap1\n      tag_68\n      jump\t// in\n    tag_67:\n      swap2\n      pop\n      pop\n        /* \"contracts/Market.sol\":2021:2116  for(uint i = 0; i < bets.length; i++){... */\n      jump(tag_59)\n    tag_60:\n      pop\n        /* \"contracts/Market.sol\":2132:2141  _userBets */\n      swap1\n      swap4\n        /* \"contracts/Market.sol\":1836:2148  function getUserBets(address _user) external view override returns(MarketBet[] memory) {... */\n      swap3\n      pop\n      pop\n      pop\n      jump\t// out\n        /* \"contracts/Market.sol\":2154:2514  function withdraw(address _addr) public override nonReentrant returns(bool) {... */\n    tag_26:\n        /* \"contracts/Market.sol\":2224:2228  bool */\n      0x00\n        /* \"@openzeppelin/contracts/security/ReentrancyGuard.sol\":1744:1745  2 */\n      0x02\n        /* \"@openzeppelin/contracts/security/ReentrancyGuard.sol\":2325:2332  _status */\n      sload(0x00)\n        /* \"@openzeppelin/contracts/security/ReentrancyGuard.sol\":2325:2344  _status != _ENTERED */\n      sub\n        /* \"@openzeppelin/contracts/security/ReentrancyGuard.sol\":2317:2380  require(_status != _ENTERED, \"ReentrancyGuard: reentrant call\") */\n      tag_70\n      jumpi\n      mload(0x40)\n      shl(0xe5, 0x461bcd)\n      dup2\n      mstore\n      0x04\n      add\n      tag_71\n      swap1\n      tag_72\n      jump\t// in\n    tag_71:\n      mload(0x40)\n      dup1\n      swap2\n      sub\n      swap1\n      revert\n    tag_70:\n        /* \"@openzeppelin/contracts/security/ReentrancyGuard.sol\":1744:1745  2 */\n      0x02\n        /* \"@openzeppelin/contracts/security/ReentrancyGuard.sol\":2455:2462  _status */\n      0x00\n        /* \"@openzeppelin/contracts/security/ReentrancyGuard.sol\":2455:2473  _status = _ENTERED */\n      swap1\n      dup2\n      sstore\n      sub(shl(0xa0, 0x01), 0x01)\n        /* \"contracts/Market.sol\":2262:2272  bal[_addr] */\n      dup4\n      dup2\n      and\n      dup3\n      mstore\n        /* \"contracts/Market.sol\":2262:2265  bal */\n      0x06\n        /* \"contracts/Market.sol\":2262:2272  bal[_addr] */\n      0x20\n      mstore\n      0x40\n      swap2\n      dup3\n      swap1\n      keccak256\n      sload\n        /* \"contracts/Market.sol\":2290:2320  token.balanceOf(address(this)) */\n      swap2\n      mload\n      shl(0xe0, 0x70a08231)\n      dup2\n      mstore\n        /* \"contracts/Market.sol\":2314:2318  this */\n      address\n        /* \"contracts/Market.sol\":2290:2320  token.balanceOf(address(this)) */\n      0x04\n      dup3\n      add\n        /* \"#utility.yul\":4248:4299   */\n      mstore\n        /* \"contracts/Market.sol\":2262:2272  bal[_addr] */\n      dup3\n      swap2\n        /* \"contracts/Market.sol\":2290:2295  token */\n      immutable(\"0xb82efe928ba8047fc73c44199ae87270ba92aad773ed77645c6bc82e384fdb71\")\n        /* \"contracts/Market.sol\":2290:2305  token.balanceOf */\n      and\n      swap1\n      0x70a08231\n      swap1\n        /* \"#utility.yul\":4221:4239   */\n      0x24\n      add\n        /* \"contracts/Market.sol\":2290:2320  token.balanceOf(address(this)) */\n      0x20\n      mload(0x40)\n      dup1\n      dup4\n      sub\n      dup2\n      dup7\n      gas\n      staticcall\n      iszero\n      dup1\n      iszero\n      tag_77\n      jumpi\n      returndatasize\n      0x00\n      dup1\n      returndatacopy\n      revert(0x00, returndatasize)\n    tag_77:\n      pop\n      pop\n      pop\n      pop\n      mload(0x40)\n      returndatasize\n      not(0x1f)\n      0x1f\n      dup3\n      add\n      and\n      dup3\n      add\n      dup1\n      0x40\n      mstore\n      pop\n      dup2\n      add\n      swap1\n      tag_78\n      swap2\n      swap1\n      tag_79\n      jump\t// in\n    tag_78:\n        /* \"contracts/Market.sol\":2290:2334  token.balanceOf(address(this)) > availAmount */\n      gt\n        /* \"contracts/Market.sol\":2290:2353  token.balanceOf(address(this)) > availAmount && availAmount > 0 */\n      dup1\n      iszero\n      tag_80\n      jumpi\n      pop\n        /* \"contracts/Market.sol\":2352:2353  0 */\n      0x00\n        /* \"contracts/Market.sol\":2338:2349  availAmount */\n      dup2\n        /* \"contracts/Market.sol\":2338:2353  availAmount > 0 */\n      gt\n        /* \"contracts/Market.sol\":2290:2353  token.balanceOf(address(this)) > availAmount && availAmount > 0 */\n    tag_80:\n        /* \"contracts/Market.sol\":2282:2360  require(token.balanceOf(address(this)) > availAmount && availAmount > 0, \"M2\") */\n      tag_81\n      jumpi\n      mload(0x40)\n      shl(0xe5, 0x461bcd)\n      dup2\n      mstore\n        /* \"#utility.yul\":4701:4703   */\n      0x20\n        /* \"contracts/Market.sol\":2282:2360  require(token.balanceOf(address(this)) > availAmount && availAmount > 0, \"M2\") */\n      0x04\n      dup3\n      add\n        /* \"#utility.yul\":4683:4704   */\n      mstore\n        /* \"#utility.yul\":4740:4741   */\n      0x02\n        /* \"#utility.yul\":4720:4738   */\n      0x24\n      dup3\n      add\n        /* \"#utility.yul\":4713:4742   */\n      mstore\n      shl(0xf1, 0x2699)\n        /* \"#utility.yul\":4758:4776   */\n      0x44\n      dup3\n      add\n        /* \"#utility.yul\":4751:4783   */\n      mstore\n        /* \"#utility.yul\":4800:4818   */\n      0x64\n      add\n        /* \"contracts/Market.sol\":2282:2360  require(token.balanceOf(address(this)) > availAmount && availAmount > 0, \"M2\") */\n      tag_71\n        /* \"#utility.yul\":4499:4824   */\n      jump\n        /* \"contracts/Market.sol\":2282:2360  require(token.balanceOf(address(this)) > availAmount && availAmount > 0, \"M2\") */\n    tag_81:\n        /* \"contracts/Market.sol\":2385:2419  token.transfer(_addr, availAmount) */\n      mload(0x40)\n      shl(0xe0, 0xa9059cbb)\n      dup2\n      mstore\n      sub(shl(0xa0, 0x01), 0x01)\n        /* \"#utility.yul\":5021:5053   */\n      dup5\n      dup2\n      and\n        /* \"contracts/Market.sol\":2385:2419  token.transfer(_addr, availAmount) */\n      0x04\n      dup4\n      add\n        /* \"#utility.yul\":5003:5054   */\n      mstore\n        /* \"#utility.yul\":5070:5088   */\n      0x24\n      dup3\n      add\n        /* \"#utility.yul\":5063:5097   */\n      dup4\n      swap1\n      mstore\n        /* \"contracts/Market.sol\":2370:2382  bool success */\n      0x00\n      swap2\n        /* \"contracts/Market.sol\":2385:2390  token */\n      immutable(\"0xb82efe928ba8047fc73c44199ae87270ba92aad773ed77645c6bc82e384fdb71\")\n        /* \"contracts/Market.sol\":2385:2399  token.transfer */\n      swap1\n      swap2\n      and\n      swap1\n      0xa9059cbb\n      swap1\n        /* \"#utility.yul\":4976:4994   */\n      0x44\n      add\n        /* \"contracts/Market.sol\":2385:2419  token.transfer(_addr, availAmount) */\n      0x20\n      mload(0x40)\n      dup1\n      dup4\n      sub\n      dup2\n      0x00\n      dup8\n      gas\n      call\n      iszero\n      dup1\n      iszero\n      tag_87\n      jumpi\n      returndatasize\n      0x00\n      dup1\n      returndatacopy\n      revert(0x00, returndatasize)\n    tag_87:\n      pop\n      pop\n      pop\n      pop\n      mload(0x40)\n      returndatasize\n      not(0x1f)\n      0x1f\n      dup3\n      add\n      and\n      dup3\n      add\n      dup1\n      0x40\n      mstore\n      pop\n      dup2\n      add\n      swap1\n      tag_88\n      swap2\n      swap1\n      tag_89\n      jump\t// in\n    tag_88:\n        /* \"contracts/Market.sol\":2370:2419  bool success = token.transfer(_addr, availAmount) */\n      swap1\n      pop\n        /* \"contracts/Market.sol\":2437:2444  success */\n      dup1\n        /* \"contracts/Market.sol\":2429:2451  require(success, \"M3\") */\n      tag_90\n      jumpi\n      mload(0x40)\n      shl(0xe5, 0x461bcd)\n      dup2\n      mstore\n        /* \"#utility.yul\":5560:5562   */\n      0x20\n        /* \"contracts/Market.sol\":2429:2451  require(success, \"M3\") */\n      0x04\n      dup3\n      add\n        /* \"#utility.yul\":5542:5563   */\n      mstore\n        /* \"#utility.yul\":5599:5600   */\n      0x02\n        /* \"#utility.yul\":5579:5597   */\n      0x24\n      dup3\n      add\n        /* \"#utility.yul\":5572:5601   */\n      mstore\n      shl(0xf0, 0x4d33)\n        /* \"#utility.yul\":5617:5635   */\n      0x44\n      dup3\n      add\n        /* \"#utility.yul\":5610:5642   */\n      mstore\n        /* \"#utility.yul\":5659:5677   */\n      0x64\n      add\n        /* \"contracts/Market.sol\":2429:2451  require(success, \"M3\") */\n      tag_71\n        /* \"#utility.yul\":5358:5683   */\n      jump\n        /* \"contracts/Market.sol\":2429:2451  require(success, \"M3\") */\n    tag_90:\n      sub(shl(0xa0, 0x01), 0x01)\n        /* \"contracts/Market.sol\":2461:2471  bal[_addr] */\n      dup5\n      and\n      0x00\n      swap1\n      dup2\n      mstore\n        /* \"contracts/Market.sol\":2461:2464  bal */\n      0x06\n        /* \"contracts/Market.sol\":2461:2471  bal[_addr] */\n      0x20\n      mstore\n      0x40\n      dup2\n      keccak256\n        /* \"contracts/Market.sol\":2461:2486  bal[_addr] -= availAmount */\n      dup1\n      sload\n        /* \"contracts/Market.sol\":2475:2486  availAmount */\n      dup5\n      swap3\n        /* \"contracts/Market.sol\":2461:2471  bal[_addr] */\n      swap1\n        /* \"contracts/Market.sol\":2461:2486  bal[_addr] -= availAmount */\n      tag_93\n      swap1\n        /* \"contracts/Market.sol\":2475:2486  availAmount */\n      dup5\n      swap1\n        /* \"contracts/Market.sol\":2461:2486  bal[_addr] -= availAmount */\n      tag_94\n      jump\t// in\n    tag_93:\n      swap1\n      swap2\n      sstore\n      pop\n        /* \"contracts/Market.sol\":2503:2507  true */\n      0x01\n      swap4\n      pop\n      pop\n      pop\n      pop\n        /* \"@openzeppelin/contracts/security/ReentrancyGuard.sol\":1701:1702  1 */\n      0x01\n        /* \"@openzeppelin/contracts/security/ReentrancyGuard.sol\":2628:2635  _status */\n      0x00\n        /* \"@openzeppelin/contracts/security/ReentrancyGuard.sol\":2628:2650  _status = _NOT_ENTERED */\n      sstore\n        /* \"contracts/Market.sol\":2154:2514  function withdraw(address _addr) public override nonReentrant returns(bool) {... */\n      swap2\n      swap1\n      pop\n      jump\t// out\n        /* \"contracts/Market.sol\":3022:3302  function settleBet(bytes32 _bet) external override {... */\n    tag_32:\n        /* \"contracts/Market.sol\":3083:3106  bytes32[] memory _pairs */\n      0x00\n        /* \"contracts/Market.sol\":3109:3123  betPairs[_bet] */\n      dup2\n      dup2\n      mstore\n        /* \"contracts/Market.sol\":3109:3117  betPairs */\n      0x0a\n        /* \"contracts/Market.sol\":3109:3123  betPairs[_bet] */\n      0x20\n      swap1\n      dup2\n      mstore\n      0x40\n      dup1\n      dup4\n      keccak256\n        /* \"contracts/Market.sol\":3083:3123  bytes32[] memory _pairs = betPairs[_bet] */\n      dup1\n      sload\n      dup3\n      mload\n      dup2\n      dup6\n      mul\n      dup2\n      add\n      dup6\n      add\n      swap1\n      swap4\n      mstore\n      dup1\n      dup4\n      mstore\n      swap2\n      swap3\n        /* \"contracts/Market.sol\":3109:3123  betPairs[_bet] */\n      swap1\n      swap2\n        /* \"contracts/Market.sol\":3083:3123  bytes32[] memory _pairs = betPairs[_bet] */\n      swap1\n      dup4\n      add\n        /* \"contracts/Market.sol\":3109:3123  betPairs[_bet] */\n      dup3\n        /* \"contracts/Market.sol\":3083:3123  bytes32[] memory _pairs = betPairs[_bet] */\n      dup3\n      dup1\n      iszero\n      tag_96\n      jumpi\n      0x20\n      mul\n      dup3\n      add\n      swap2\n      swap1\n      0x00\n      mstore\n      keccak256(0x00, 0x20)\n      swap1\n    tag_97:\n      dup2\n      sload\n      dup2\n      mstore\n      0x20\n      add\n      swap1\n      0x01\n      add\n      swap1\n      dup1\n      dup4\n      gt\n      tag_97\n      jumpi\n    tag_96:\n      pop\n      pop\n      pop\n      pop\n      pop\n      swap1\n      pop\n        /* \"contracts/Market.sol\":3137:3143  uint i */\n      0x00\n        /* \"contracts/Market.sol\":3133:3219  for(uint i = 0; i < _pairs.length; i++){... */\n    tag_98:\n        /* \"contracts/Market.sol\":3153:3159  _pairs */\n      dup2\n        /* \"contracts/Market.sol\":3153:3166  _pairs.length */\n      mload\n        /* \"contracts/Market.sol\":3149:3150  i */\n      dup2\n        /* \"contracts/Market.sol\":3149:3166  i < _pairs.length */\n      lt\n        /* \"contracts/Market.sol\":3133:3219  for(uint i = 0; i < _pairs.length; i++){... */\n      iszero\n      tag_99\n      jumpi\n        /* \"contracts/Market.sol\":3186:3208  _settlePair(_pairs[i]) */\n      tag_101\n        /* \"contracts/Market.sol\":3198:3204  _pairs */\n      dup3\n        /* \"contracts/Market.sol\":3205:3206  i */\n      dup3\n        /* \"contracts/Market.sol\":3198:3207  _pairs[i] */\n      dup2\n      mload\n      dup2\n      lt\n      tag_103\n      jumpi\n      tag_103\n      tag_64\n      jump\t// in\n    tag_103:\n      0x20\n      mul\n      0x20\n      add\n      add\n      mload\n        /* \"contracts/Market.sol\":3186:3197  _settlePair */\n      tag_104\n        /* \"contracts/Market.sol\":3186:3208  _settlePair(_pairs[i]) */\n      jump\t// in\n    tag_101:\n        /* \"contracts/Market.sol\":3168:3171  i++ */\n      dup1\n      tag_105\n      dup2\n      tag_68\n      jump\t// in\n    tag_105:\n      swap2\n      pop\n      pop\n        /* \"contracts/Market.sol\":3133:3219  for(uint i = 0; i < _pairs.length; i++){... */\n      jump(tag_98)\n    tag_99:\n      pop\n        /* \"contracts/Market.sol\":3235:3245  msg.sender */\n      caller\n        /* \"contracts/Market.sol\":3249:3250  0 */\n      0x00\n        /* \"contracts/Market.sol\":3231:3246  bal[msg.sender] */\n      swap1\n      dup2\n      mstore\n        /* \"contracts/Market.sol\":3231:3234  bal */\n      0x06\n        /* \"contracts/Market.sol\":3231:3246  bal[msg.sender] */\n      0x20\n      mstore\n      0x40\n      swap1\n      keccak256\n      sload\n        /* \"contracts/Market.sol\":3231:3250  bal[msg.sender] > 0 */\n      iszero\n        /* \"contracts/Market.sol\":3228:3296  if(bal[msg.sender] > 0){... */\n      tag_106\n      jumpi\n        /* \"contracts/Market.sol\":3265:3285  withdraw(msg.sender) */\n      tag_107\n        /* \"contracts/Market.sol\":3274:3284  msg.sender */\n      caller\n        /* \"contracts/Market.sol\":3265:3273  withdraw */\n      tag_26\n        /* \"contracts/Market.sol\":3265:3285  withdraw(msg.sender) */\n      jump\t// in\n    tag_107:\n      pop\n        /* \"contracts/Market.sol\":3228:3296  if(bal[msg.sender] > 0){... */\n    tag_106:\n        /* \"contracts/Market.sol\":3073:3302  {... */\n      pop\n        /* \"contracts/Market.sol\":3022:3302  function settleBet(bytes32 _bet) external override {... */\n      pop\n      jump\t// out\n        /* \"contracts/Market.sol\":3665:3931  function cancelMarket() external override onlyFactory returns(bool) ... */\n    tag_34:\n        /* \"contracts/Market.sol\":1248:1255  factory */\n      sload(0x01)\n        /* \"contracts/Market.sol\":3727:3731  bool */\n      0x00\n      swap1\n      sub(shl(0xa0, 0x01), 0x01)\n        /* \"contracts/Market.sol\":1248:1255  factory */\n      and\n        /* \"contracts/Market.sol\":1234:1244  msg.sender */\n      caller\n        /* \"contracts/Market.sol\":1234:1255  msg.sender == factory */\n      eq\n        /* \"contracts/Market.sol\":1213:1283  require(... */\n      tag_109\n      jumpi\n      mload(0x40)\n      shl(0xe5, 0x461bcd)\n      dup2\n      mstore\n      0x04\n      add\n      tag_71\n      swap1\n      tag_111\n      jump\t// in\n    tag_109:\n        /* \"contracts/Market.sol\":3757:3763  status */\n      sload(0x02)\n        /* \"contracts/Market.sol\":3757:3768  status == 0 */\n      iszero\n      dup1\n        /* \"contracts/Market.sol\":3757:3783  status == 0 || status == 4 */\n      tag_113\n      jumpi\n      pop\n        /* \"contracts/Market.sol\":3772:3778  status */\n      sload(0x02)\n        /* \"contracts/Market.sol\":3782:3783  4 */\n      0x04\n        /* \"contracts/Market.sol\":3772:3783  status == 4 */\n      eq\n        /* \"contracts/Market.sol\":3757:3783  status == 0 || status == 4 */\n    tag_113:\n        /* \"contracts/Market.sol\":3749:3790  require(status == 0 || status == 4, \"M6\") */\n      tag_114\n      jumpi\n      mload(0x40)\n      shl(0xe5, 0x461bcd)\n      dup2\n      mstore\n        /* \"#utility.yul\":6353:6355   */\n      0x20\n        /* \"contracts/Market.sol\":3749:3790  require(status == 0 || status == 4, \"M6\") */\n      0x04\n      dup3\n      add\n        /* \"#utility.yul\":6335:6356   */\n      mstore\n        /* \"#utility.yul\":6392:6393   */\n      0x02\n        /* \"#utility.yul\":6372:6390   */\n      0x24\n      dup3\n      add\n        /* \"#utility.yul\":6365:6394   */\n      mstore\n      shl(0xf1, 0x269b)\n        /* \"#utility.yul\":6410:6428   */\n      0x44\n      dup3\n      add\n        /* \"#utility.yul\":6403:6435   */\n      mstore\n        /* \"#utility.yul\":6452:6470   */\n      0x64\n      add\n        /* \"contracts/Market.sol\":3749:3790  require(status == 0 || status == 4, \"M6\") */\n      tag_71\n        /* \"#utility.yul\":6151:6476   */\n      jump\n        /* \"contracts/Market.sol\":3749:3790  require(status == 0 || status == 4, \"M6\") */\n    tag_114:\n        /* \"contracts/Market.sol\":3804:3810  uint i */\n      0x00\n        /* \"contracts/Market.sol\":3800:3884  for(uint i = 0; i < pairs.length; i++){... */\n    tag_117:\n        /* \"contracts/Market.sol\":3820:3825  pairs */\n      0x03\n        /* \"contracts/Market.sol\":3820:3832  pairs.length */\n      sload\n        /* \"contracts/Market.sol\":3816:3832  i < pairs.length */\n      dup2\n      lt\n        /* \"contracts/Market.sol\":3800:3884  for(uint i = 0; i < pairs.length; i++){... */\n      iszero\n      tag_118\n      jumpi\n        /* \"contracts/Market.sol\":3852:3873  _cancelPair(pairs[i]) */\n      tag_120\n        /* \"contracts/Market.sol\":3864:3869  pairs */\n      0x03\n        /* \"contracts/Market.sol\":3870:3871  i */\n      dup3\n        /* \"contracts/Market.sol\":3864:3872  pairs[i] */\n      dup2\n      sload\n      dup2\n      lt\n      tag_122\n      jumpi\n      tag_122\n      tag_64\n      jump\t// in\n    tag_122:\n      swap1\n      0x00\n      mstore\n      keccak256(0x00, 0x20)\n      add\n      sload\n        /* \"contracts/Market.sol\":3852:3863  _cancelPair */\n      tag_124\n        /* \"contracts/Market.sol\":3852:3873  _cancelPair(pairs[i]) */\n      jump\t// in\n    tag_120:\n        /* \"contracts/Market.sol\":3834:3837  i++ */\n      dup1\n      tag_125\n      dup2\n      tag_68\n      jump\t// in\n    tag_125:\n      swap2\n      pop\n      pop\n        /* \"contracts/Market.sol\":3800:3884  for(uint i = 0; i < pairs.length; i++){... */\n      jump(tag_117)\n    tag_118:\n      pop\n      pop\n        /* \"contracts/Market.sol\":3902:3903  3 */\n      0x03\n        /* \"contracts/Market.sol\":3893:3899  status */\n      0x02\n        /* \"contracts/Market.sol\":3893:3903  status = 3 */\n      sstore\n        /* \"contracts/Market.sol\":3920:3924  true */\n      0x01\n        /* \"contracts/Market.sol\":3665:3931  function cancelMarket() external override onlyFactory returns(bool) ... */\n      swap1\n      jump\t// out\n        /* \"contracts/Market.sol\":4069:7897  function addBet(... */\n    tag_39:\n        /* \"contracts/Market.sol\":4295:4318  app.isBlack(msg.sender) */\n      mload(0x40)\n      shl(0xe0, 0x332daccf)\n      dup2\n      mstore\n        /* \"contracts/Market.sol\":4307:4317  msg.sender */\n      caller\n        /* \"contracts/Market.sol\":4295:4318  app.isBlack(msg.sender) */\n      0x04\n      dup3\n      add\n        /* \"#utility.yul\":4248:4299   */\n      mstore\n        /* \"contracts/Market.sol\":4263:4270  bytes32 */\n      0x00\n      swap1\n        /* \"contracts/Market.sol\":4295:4298  app */\n      immutable(\"0xa4f21281edf90d86f21da3432ee4f5dff8abfbde6aab55afd7f9f7d4d3676c77\")\n      sub(shl(0xa0, 0x01), 0x01)\n        /* \"contracts/Market.sol\":4295:4306  app.isBlack */\n      and\n      swap1\n      0x332daccf\n      swap1\n        /* \"#utility.yul\":4221:4239   */\n      0x24\n      add\n        /* \"contracts/Market.sol\":4295:4318  app.isBlack(msg.sender) */\n      0x20\n      mload(0x40)\n      dup1\n      dup4\n      sub\n      dup2\n      dup7\n      gas\n      staticcall\n      iszero\n      dup1\n      iszero\n      tag_129\n      jumpi\n      returndatasize\n      0x00\n      dup1\n      returndatacopy\n      revert(0x00, returndatasize)\n    tag_129:\n      pop\n      pop\n      pop\n      pop\n      mload(0x40)\n      returndatasize\n      not(0x1f)\n      0x1f\n      dup3\n      add\n      and\n      dup3\n      add\n      dup1\n      0x40\n      mstore\n      pop\n      dup2\n      add\n      swap1\n      tag_130\n      swap2\n      swap1\n      tag_89\n      jump\t// in\n    tag_130:\n        /* \"contracts/Market.sol\":4294:4318  !app.isBlack(msg.sender) */\n      iszero\n        /* \"contracts/Market.sol\":4294:4333  !app.isBlack(msg.sender) && status == 0 */\n      dup1\n      iszero\n      tag_131\n      jumpi\n      pop\n        /* \"contracts/Market.sol\":4322:4328  status */\n      sload(0x02)\n        /* \"contracts/Market.sol\":4322:4333  status == 0 */\n      iszero\n        /* \"contracts/Market.sol\":4294:4333  !app.isBlack(msg.sender) && status == 0 */\n    tag_131:\n        /* \"contracts/Market.sol\":4286:4340  require(!app.isBlack(msg.sender) && status == 0, \"M8\") */\n      tag_132\n      jumpi\n      mload(0x40)\n      shl(0xe5, 0x461bcd)\n      dup2\n      mstore\n        /* \"#utility.yul\":6683:6685   */\n      0x20\n        /* \"contracts/Market.sol\":4286:4340  require(!app.isBlack(msg.sender) && status == 0, \"M8\") */\n      0x04\n      dup3\n      add\n        /* \"#utility.yul\":6665:6686   */\n      mstore\n        /* \"#utility.yul\":6722:6723   */\n      0x02\n        /* \"#utility.yul\":6702:6720   */\n      0x24\n      dup3\n      add\n        /* \"#utility.yul\":6695:6724   */\n      mstore\n      shl(0xf3, 0x09a7)\n        /* \"#utility.yul\":6740:6758   */\n      0x44\n      dup3\n      add\n        /* \"#utility.yul\":6733:6765   */\n      mstore\n        /* \"#utility.yul\":6782:6800   */\n      0x64\n      add\n        /* \"contracts/Market.sol\":4286:4340  require(!app.isBlack(msg.sender) && status == 0, \"M8\") */\n      tag_71\n        /* \"#utility.yul\":6481:6806   */\n      jump\n        /* \"contracts/Market.sol\":4286:4340  require(!app.isBlack(msg.sender) && status == 0, \"M8\") */\n    tag_132:\n        /* \"contracts/Market.sol\":4358:4363  _side */\n      dup3\n        /* \"contracts/Market.sol\":4367:4368  1 */\n      0x01\n        /* \"contracts/Market.sol\":4358:4368  _side == 1 */\n      eq\n        /* \"contracts/Market.sol\":4358:4382  _side == 1 || _side == 2 */\n      dup1\n      tag_135\n      jumpi\n      pop\n        /* \"contracts/Market.sol\":4372:4377  _side */\n      dup3\n        /* \"contracts/Market.sol\":4381:4382  2 */\n      0x02\n        /* \"contracts/Market.sol\":4372:4382  _side == 2 */\n      eq\n        /* \"contracts/Market.sol\":4358:4382  _side == 1 || _side == 2 */\n    tag_135:\n        /* \"contracts/Market.sol\":4350:4389  require(_side == 1 || _side == 2, \"M9\") */\n      tag_136\n      jumpi\n      mload(0x40)\n      shl(0xe5, 0x461bcd)\n      dup2\n      mstore\n        /* \"#utility.yul\":7013:7015   */\n      0x20\n        /* \"contracts/Market.sol\":4350:4389  require(_side == 1 || _side == 2, \"M9\") */\n      0x04\n      dup3\n      add\n        /* \"#utility.yul\":6995:7016   */\n      mstore\n        /* \"#utility.yul\":7052:7053   */\n      0x02\n        /* \"#utility.yul\":7032:7050   */\n      0x24\n      dup3\n      add\n        /* \"#utility.yul\":7025:7054   */\n      mstore\n      shl(0xf0, 0x4d39)\n        /* \"#utility.yul\":7070:7088   */\n      0x44\n      dup3\n      add\n        /* \"#utility.yul\":7063:7095   */\n      mstore\n        /* \"#utility.yul\":7112:7130   */\n      0x64\n      add\n        /* \"contracts/Market.sol\":4350:4389  require(_side == 1 || _side == 2, \"M9\") */\n      tag_71\n        /* \"#utility.yul\":6811:7136   */\n      jump\n        /* \"contracts/Market.sol\":4350:4389  require(_side == 1 || _side == 2, \"M9\") */\n    tag_136:\n        /* \"contracts/Market.sol\":4399:4414  bytes32 betHash */\n      0x00\n        /* \"contracts/Market.sol\":4417:4473  _createBet(_better, _affiliate, _stake, 0, _odds, _side) */\n      tag_139\n        /* \"contracts/Market.sol\":4428:4435  _better */\n      dup9\n        /* \"contracts/Market.sol\":4437:4447  _affiliate */\n      dup9\n        /* \"contracts/Market.sol\":4449:4455  _stake */\n      dup9\n        /* \"contracts/Market.sol\":4457:4458  0 */\n      0x00\n        /* \"contracts/Market.sol\":4460:4465  _odds */\n      dup10\n        /* \"contracts/Market.sol\":4467:4472  _side */\n      dup10\n        /* \"contracts/Market.sol\":4417:4427  _createBet */\n      tag_140\n        /* \"contracts/Market.sol\":4417:4473  _createBet(_better, _affiliate, _stake, 0, _odds, _side) */\n      jump\t// in\n    tag_139:\n        /* \"contracts/Market.sol\":4705:4716  pendingBets */\n      0x05\n        /* \"contracts/Market.sol\":4705:4723  pendingBets.length */\n      sload\n        /* \"contracts/Market.sol\":4399:4473  bytes32 betHash = _createBet(_better, _affiliate, _stake, 0, _odds, _side) */\n      swap1\n      swap2\n      pop\n        /* \"contracts/Market.sol\":4705:4727  pendingBets.length > 0 */\n      iszero\n        /* \"contracts/Market.sol\":4702:7784  if(pendingBets.length > 0){... */\n      tag_141\n      jumpi\n        /* \"contracts/Market.sol\":4759:4765  _stake */\n      dup6\n        /* \"contracts/Market.sol\":4779:7710  while(_remStake >= 1 * 10 ** 18){... */\n    tag_142:\n        /* \"contracts/Market.sol\":4798:4810  1 * 10 ** 18 */\n      0x0de0b6b3a7640000\n        /* \"contracts/Market.sol\":4785:4794  _remStake */\n      dup2\n        /* \"contracts/Market.sol\":4785:4810  _remStake >= 1 * 10 ** 18 */\n      lt\n        /* \"contracts/Market.sol\":4779:7710  while(_remStake >= 1 * 10 ** 18){... */\n      tag_143\n      jumpi\n        /* \"contracts/Market.sol\":4829:4847  uint selectedIndex */\n      0x00\n        /* \"contracts/Market.sol\":4869:4884  uint256 maxOdds */\n      dup1\n        /* \"contracts/Market.sol\":4910:4916  uint i */\n      0x00\n        /* \"contracts/Market.sol\":4906:5303  for(uint i = 0; i < pendingBets.length; i++){... */\n    tag_144:\n        /* \"contracts/Market.sol\":4926:4937  pendingBets */\n      0x05\n        /* \"contracts/Market.sol\":4926:4944  pendingBets.length */\n      sload\n        /* \"contracts/Market.sol\":4922:4944  i < pendingBets.length */\n      dup2\n      lt\n        /* \"contracts/Market.sol\":4906:5303  for(uint i = 0; i < pendingBets.length; i++){... */\n      iszero\n      tag_145\n      jumpi\n        /* \"contracts/Market.sol\":4972:4984  bytes32 pBet */\n      0x00\n        /* \"contracts/Market.sol\":4987:4998  pendingBets */\n      0x05\n        /* \"contracts/Market.sol\":4999:5000  i */\n      dup3\n        /* \"contracts/Market.sol\":4987:5001  pendingBets[i] */\n      dup2\n      sload\n      dup2\n      lt\n      tag_148\n      jumpi\n      tag_148\n      tag_64\n      jump\t// in\n    tag_148:\n      swap1\n      0x00\n      mstore\n      keccak256(0x00, 0x20)\n      add\n      sload\n        /* \"contracts/Market.sol\":4972:5001  bytes32 pBet = pendingBets[i] */\n      swap1\n      pop\n        /* \"contracts/Market.sol\":5035:5043  betsInfo */\n      0x07\n        /* \"contracts/Market.sol\":5035:5049  betsInfo[pBet] */\n      0x00\n        /* \"contracts/Market.sol\":5044:5048  pBet */\n      dup3\n        /* \"contracts/Market.sol\":5035:5049  betsInfo[pBet] */\n      dup2\n      mstore\n      0x20\n      add\n      swap1\n      dup2\n      mstore\n      0x20\n      add\n      0x00\n      keccak256\n        /* \"contracts/Market.sol\":5035:5054  betsInfo[pBet].side */\n      0x05\n      add\n      sload\n        /* \"contracts/Market.sol\":5026:5031  _side */\n      dup10\n        /* \"contracts/Market.sol\":5026:5054  _side == betsInfo[pBet].side */\n      sub\n        /* \"contracts/Market.sol\":5023:5112  if(_side == betsInfo[pBet].side){... */\n      tag_150\n      jumpi\n        /* \"contracts/Market.sol\":5081:5089  continue */\n      pop\n      jump(tag_146)\n        /* \"contracts/Market.sol\":5023:5112  if(_side == betsInfo[pBet].side){... */\n    tag_150:\n        /* \"contracts/Market.sol\":5136:5150  betsInfo[pBet] */\n      0x00\n      dup2\n      dup2\n      mstore\n        /* \"contracts/Market.sol\":5136:5144  betsInfo */\n      0x07\n        /* \"contracts/Market.sol\":5136:5150  betsInfo[pBet] */\n      0x20\n      mstore\n      0x40\n      swap1\n      keccak256\n        /* \"contracts/Market.sol\":5136:5155  betsInfo[pBet].odds */\n      0x04\n      add\n      sload\n        /* \"contracts/Market.sol\":5136:5163  betsInfo[pBet].odds>maxOdds */\n      dup4\n      lt\n        /* \"contracts/Market.sol\":5133:5285  if(betsInfo[pBet].odds>maxOdds){... */\n      iszero\n      tag_151\n      jumpi\n        /* \"contracts/Market.sol\":5200:5214  betsInfo[pBet] */\n      0x00\n      dup2\n      dup2\n      mstore\n        /* \"contracts/Market.sol\":5200:5208  betsInfo */\n      0x07\n        /* \"contracts/Market.sol\":5200:5214  betsInfo[pBet] */\n      0x20\n      mstore\n      0x40\n      swap1\n      keccak256\n        /* \"contracts/Market.sol\":5200:5219  betsInfo[pBet].odds */\n      0x04\n      add\n      sload\n        /* \"contracts/Market.sol\":5261:5262  i */\n      swap2\n      swap4\n      pop\n        /* \"contracts/Market.sol\":5200:5219  betsInfo[pBet].odds */\n      swap1\n      swap2\n      pop\n        /* \"contracts/Market.sol\":5261:5262  i */\n      dup3\n      swap1\n        /* \"contracts/Market.sol\":5133:5285  if(betsInfo[pBet].odds>maxOdds){... */\n    tag_151:\n        /* \"contracts/Market.sol\":4950:5303  {... */\n      pop\n        /* \"contracts/Market.sol\":4906:5303  for(uint i = 0; i < pendingBets.length; i++){... */\n    tag_146:\n        /* \"contracts/Market.sol\":4946:4949  i++ */\n      dup1\n      tag_152\n      dup2\n      tag_68\n      jump\t// in\n    tag_152:\n      swap2\n      pop\n      pop\n        /* \"contracts/Market.sol\":4906:5303  for(uint i = 0; i < pendingBets.length; i++){... */\n      jump(tag_144)\n    tag_145:\n      pop\n        /* \"contracts/Market.sol\":5333:5338  _odds */\n      dup8\n        /* \"contracts/Market.sol\":5323:5330  maxOdds */\n      dup2\n        /* \"contracts/Market.sol\":5323:5338  maxOdds > _odds */\n      gt\n        /* \"contracts/Market.sol\":5323:5350  maxOdds > _odds || _instant */\n      dup1\n      tag_153\n      jumpi\n      pop\n        /* \"contracts/Market.sol\":5342:5350  _instant */\n      dup6\n        /* \"contracts/Market.sol\":5323:5350  maxOdds > _odds || _instant */\n    tag_153:\n        /* \"contracts/Market.sol\":5320:7696  if(maxOdds > _odds || _instant) {... */\n      iszero\n      tag_154\n      jumpi\n        /* \"contracts/Market.sol\":5374:5394  bytes32 selectedHash */\n      0x00\n        /* \"contracts/Market.sol\":5397:5408  pendingBets */\n      0x05\n        /* \"contracts/Market.sol\":5409:5422  selectedIndex */\n      dup4\n        /* \"contracts/Market.sol\":5397:5423  pendingBets[selectedIndex] */\n      dup2\n      sload\n      dup2\n      lt\n      tag_156\n      jumpi\n      tag_156\n      tag_64\n      jump\t// in\n    tag_156:\n      0x00\n      swap2\n      dup3\n      mstore\n      0x20\n      dup1\n      dup4\n      keccak256\n      swap1\n      swap2\n      add\n      sload\n        /* \"contracts/Market.sol\":5476:5498  betsInfo[selectedHash] */\n      dup1\n      dup4\n      mstore\n        /* \"contracts/Market.sol\":5476:5484  betsInfo */\n      0x07\n        /* \"contracts/Market.sol\":5476:5498  betsInfo[selectedHash] */\n      dup3\n      mstore\n      0x40\n      dup1\n      dup5\n      keccak256\n        /* \"contracts/Market.sol\":5445:5498  MarketBet memory selectedBet = betsInfo[selectedHash] */\n      dup2\n      mload\n      0xc0\n      dup2\n      add\n      dup4\n      mstore\n      dup2\n      sload\n      sub(shl(0xa0, 0x01), 0x01)\n      swap1\n      dup2\n      and\n      dup3\n      mstore\n      0x01\n      dup1\n      dup5\n      add\n      sload\n      swap1\n      swap2\n      and\n      swap6\n      dup3\n      add\n      swap6\n      swap1\n      swap6\n      mstore\n      0x02\n      dup3\n      add\n      sload\n      swap3\n      dup2\n      add\n      swap3\n      swap1\n      swap3\n      mstore\n      0x03\n      dup2\n      add\n      sload\n      0x60\n      dup4\n      add\n      mstore\n      0x04\n      dup2\n      add\n      sload\n      0x80\n      dup4\n      add\n      mstore\n      0x05\n      add\n      sload\n      0xa0\n      dup3\n      add\n      mstore\n        /* \"contracts/Market.sol\":5397:5423  pendingBets[selectedIndex] */\n      swap1\n      swap4\n      pop\n        /* \"contracts/Market.sol\":5445:5498  MarketBet memory selectedBet = betsInfo[selectedHash] */\n      swap2\n        /* \"contracts/Market.sol\":5397:5423  pendingBets[selectedIndex] */\n      swap1\n        /* \"contracts/Market.sol\":5585:5594  _odds - 1 */\n      tag_158\n      swap1\n        /* \"contracts/Market.sol\":5585:5590  _odds */\n      dup13\n        /* \"contracts/Market.sol\":5585:5594  _odds - 1 */\n      tag_94\n      jump\t// in\n    tag_158:\n        /* \"contracts/Market.sol\":5561:5572  selectedBet */\n      dup3\n        /* \"contracts/Market.sol\":5561:5580  selectedBet.matched */\n      0x60\n      add\n      mload\n        /* \"contracts/Market.sol\":5541:5552  selectedBet */\n      dup4\n        /* \"contracts/Market.sol\":5541:5558  selectedBet.stake */\n      0x40\n      add\n      mload\n        /* \"contracts/Market.sol\":5541:5580  selectedBet.stake - selectedBet.matched */\n      tag_159\n      swap2\n      swap1\n      tag_94\n      jump\t// in\n    tag_159:\n        /* \"contracts/Market.sol\":5540:5595  (selectedBet.stake - selectedBet.matched) / (_odds - 1) */\n      tag_160\n      swap2\n      swap1\n      tag_161\n      jump\t// in\n    tag_160:\n        /* \"contracts/Market.sol\":5520:5595  uint offeredStake = (selectedBet.stake - selectedBet.matched) / (_odds - 1) */\n      swap1\n      pop\n        /* \"contracts/Market.sol\":5617:5634  uint betterAmount */\n      0x00\n        /* \"contracts/Market.sol\":5656:5672  uint makerAmount */\n      dup1\n        /* \"contracts/Market.sol\":5694:5710  bytes32 pairHash */\n      0x00\n        /* \"contracts/Market.sol\":5751:5757  _stake */\n      dup15\n        /* \"contracts/Market.sol\":5735:5747  offeredStake */\n      dup5\n        /* \"contracts/Market.sol\":5735:5757  offeredStake <= _stake */\n      gt\n        /* \"contracts/Market.sol\":5732:7099  if(offeredStake <= _stake) {... */\n      tag_162\n      jumpi\n        /* \"contracts/Market.sol\":5800:5812  offeredStake */\n      dup4\n      swap3\n      pop\n        /* \"contracts/Market.sol\":5868:5877  _odds - 1 */\n      tag_163\n        /* \"contracts/Market.sol\":5876:5877  1 */\n      0x01\n        /* \"contracts/Market.sol\":5868:5873  _odds */\n      dup16\n        /* \"contracts/Market.sol\":5868:5877  _odds - 1 */\n      tag_94\n      jump\t// in\n    tag_163:\n        /* \"contracts/Market.sol\":5852:5878  offeredStake * (_odds - 1) */\n      tag_164\n      swap1\n        /* \"contracts/Market.sol\":5852:5864  offeredStake */\n      dup6\n        /* \"contracts/Market.sol\":5852:5878  offeredStake * (_odds - 1) */\n      tag_165\n      jump\t// in\n    tag_164:\n        /* \"contracts/Market.sol\":5838:5878  makerAmount = offeredStake * (_odds - 1) */\n      swap2\n      pop\n        /* \"contracts/Market.sol\":5907:5912  _side */\n      dup13\n        /* \"contracts/Market.sol\":5916:5917  1 */\n      0x01\n        /* \"contracts/Market.sol\":5907:5917  _side == 1 */\n      sub\n        /* \"contracts/Market.sol\":5904:6400  if(_side == 1){... */\n      tag_166\n      jumpi\n        /* \"contracts/Market.sol\":5959:6017  _createPair(betHash,selectedHash,betterAmount,makerAmount) */\n      tag_167\n        /* \"contracts/Market.sol\":5971:5978  betHash */\n      dup11\n        /* \"contracts/Market.sol\":5979:5991  selectedHash */\n      dup8\n        /* \"contracts/Market.sol\":5992:6004  betterAmount */\n      dup6\n        /* \"contracts/Market.sol\":6005:6016  makerAmount */\n      dup6\n        /* \"contracts/Market.sol\":5959:5970  _createPair */\n      tag_168\n        /* \"contracts/Market.sol\":5959:6017  _createPair(betHash,selectedHash,betterAmount,makerAmount) */\n      jump\t// in\n    tag_167:\n        /* \"contracts/Market.sol\":6052:6110  PairCreated(betHash,selectedHash,betterAmount,makerAmount) */\n      0x40\n      dup1\n      mload\n        /* \"#utility.yul\":7767:7792   */\n      dup13\n      dup2\n      mstore\n        /* \"#utility.yul\":7823:7825   */\n      0x20\n        /* \"#utility.yul\":7808:7826   */\n      dup2\n      add\n        /* \"#utility.yul\":7801:7835   */\n      dup10\n      swap1\n      mstore\n        /* \"#utility.yul\":7851:7869   */\n      swap1\n      dup2\n      add\n        /* \"#utility.yul\":7844:7878   */\n      dup6\n      swap1\n      mstore\n        /* \"#utility.yul\":7909:7911   */\n      0x60\n        /* \"#utility.yul\":7894:7912   */\n      dup2\n      add\n        /* \"#utility.yul\":7887:7921   */\n      dup5\n      swap1\n      mstore\n        /* \"contracts/Market.sol\":5948:6017  pairHash = _createPair(betHash,selectedHash,betterAmount,makerAmount) */\n      swap1\n      swap2\n      pop\n        /* \"contracts/Market.sol\":6052:6110  PairCreated(betHash,selectedHash,betterAmount,makerAmount) */\n      0x5de48bb383b4a2aaad84721b80d93429b813651b0eefbd59d32018cfe28215dc\n      swap1\n        /* \"#utility.yul\":7754:7757   */\n      0x80\n        /* \"#utility.yul\":7739:7758   */\n      add\n        /* \"contracts/Market.sol\":6052:6110  PairCreated(betHash,selectedHash,betterAmount,makerAmount) */\n    tag_169:\n      mload(0x40)\n      dup1\n      swap2\n      sub\n      swap1\n      log1\n        /* \"contracts/Market.sol\":5732:7099  if(offeredStake <= _stake) {... */\n      jump(tag_182)\n        /* \"contracts/Market.sol\":5904:6400  if(_side == 1){... */\n    tag_166:\n        /* \"contracts/Market.sol\":6170:6175  _side */\n      dup13\n        /* \"contracts/Market.sol\":6179:6180  2 */\n      0x02\n        /* \"contracts/Market.sol\":6170:6180  _side == 2 */\n      sub\n        /* \"contracts/Market.sol\":6167:6400  if(_side == 2){... */\n      tag_172\n      jumpi\n        /* \"contracts/Market.sol\":6222:6280  _createPair(selectedHash,betHash,makerAmount,betterAmount) */\n      tag_173\n        /* \"contracts/Market.sol\":6234:6246  selectedHash */\n      dup7\n        /* \"contracts/Market.sol\":6247:6254  betHash */\n      dup12\n        /* \"contracts/Market.sol\":6255:6266  makerAmount */\n      dup5\n        /* \"contracts/Market.sol\":6267:6279  betterAmount */\n      dup7\n        /* \"contracts/Market.sol\":6222:6233  _createPair */\n      tag_168\n        /* \"contracts/Market.sol\":6222:6280  _createPair(selectedHash,betHash,makerAmount,betterAmount) */\n      jump\t// in\n    tag_173:\n        /* \"contracts/Market.sol\":6315:6373  PairCreated(selectedHash,betHash,makerAmount,betterAmount) */\n      0x40\n      dup1\n      mload\n        /* \"#utility.yul\":7767:7792   */\n      dup9\n      dup2\n      mstore\n        /* \"#utility.yul\":7823:7825   */\n      0x20\n        /* \"#utility.yul\":7808:7826   */\n      dup2\n      add\n        /* \"#utility.yul\":7801:7835   */\n      dup14\n      swap1\n      mstore\n        /* \"#utility.yul\":7851:7869   */\n      swap1\n      dup2\n      add\n        /* \"#utility.yul\":7844:7878   */\n      dup5\n      swap1\n      mstore\n        /* \"#utility.yul\":7909:7911   */\n      0x60\n        /* \"#utility.yul\":7894:7912   */\n      dup2\n      add\n        /* \"#utility.yul\":7887:7921   */\n      dup6\n      swap1\n      mstore\n        /* \"contracts/Market.sol\":6211:6280  pairHash = _createPair(selectedHash,betHash,makerAmount,betterAmount) */\n      swap1\n      swap2\n      pop\n        /* \"contracts/Market.sol\":6315:6373  PairCreated(selectedHash,betHash,makerAmount,betterAmount) */\n      0x5de48bb383b4a2aaad84721b80d93429b813651b0eefbd59d32018cfe28215dc\n      swap1\n        /* \"#utility.yul\":7754:7757   */\n      0x80\n        /* \"#utility.yul\":7739:7758   */\n      add\n        /* \"contracts/Market.sol\":6315:6373  PairCreated(selectedHash,betHash,makerAmount,betterAmount) */\n      tag_169\n        /* \"#utility.yul\":7536:7927   */\n      jump\n        /* \"contracts/Market.sol\":6167:6400  if(_side == 2){... */\n    tag_172:\n        /* \"contracts/Market.sol\":5732:7099  if(offeredStake <= _stake) {... */\n      jump(tag_182)\n    tag_162:\n        /* \"contracts/Market.sol\":6489:6495  _stake */\n      dup15\n      swap3\n      pop\n        /* \"contracts/Market.sol\":6545:6554  _odds - 1 */\n      tag_176\n        /* \"contracts/Market.sol\":6553:6554  1 */\n      0x01\n        /* \"contracts/Market.sol\":6545:6550  _odds */\n      dup16\n        /* \"contracts/Market.sol\":6545:6554  _odds - 1 */\n      tag_94\n      jump\t// in\n    tag_176:\n        /* \"contracts/Market.sol\":6535:6541  _stake */\n      dup16\n        /* \"contracts/Market.sol\":6535:6555  _stake * (_odds - 1) */\n      tag_177\n      swap2\n      swap1\n      tag_165\n      jump\t// in\n    tag_177:\n        /* \"contracts/Market.sol\":6521:6555  makerAmount = _stake * (_odds - 1) */\n      swap2\n      pop\n        /* \"contracts/Market.sol\":6584:6589  _side */\n      dup13\n        /* \"contracts/Market.sol\":6593:6594  1 */\n      0x01\n        /* \"contracts/Market.sol\":6584:6594  _side == 1 */\n      sub\n        /* \"contracts/Market.sol\":6581:7077  if(_side == 1){... */\n      tag_178\n      jumpi\n        /* \"contracts/Market.sol\":6636:6694  _createPair(betHash,selectedHash,betterAmount,makerAmount) */\n      tag_167\n        /* \"contracts/Market.sol\":6648:6655  betHash */\n      dup11\n        /* \"contracts/Market.sol\":6656:6668  selectedHash */\n      dup8\n        /* \"contracts/Market.sol\":6669:6681  betterAmount */\n      dup6\n        /* \"contracts/Market.sol\":6682:6693  makerAmount */\n      dup6\n        /* \"contracts/Market.sol\":6636:6647  _createPair */\n      tag_168\n        /* \"contracts/Market.sol\":6636:6694  _createPair(betHash,selectedHash,betterAmount,makerAmount) */\n      jump\t// in\n        /* \"contracts/Market.sol\":6581:7077  if(_side == 1){... */\n    tag_178:\n        /* \"contracts/Market.sol\":6847:6852  _side */\n      dup13\n        /* \"contracts/Market.sol\":6856:6857  2 */\n      0x02\n        /* \"contracts/Market.sol\":6847:6857  _side == 2 */\n      sub\n        /* \"contracts/Market.sol\":6844:7077  if(_side == 2){... */\n      tag_182\n      jumpi\n        /* \"contracts/Market.sol\":6899:6957  _createPair(selectedHash,betHash,makerAmount,betterAmount) */\n      tag_183\n        /* \"contracts/Market.sol\":6911:6923  selectedHash */\n      dup7\n        /* \"contracts/Market.sol\":6924:6931  betHash */\n      dup12\n        /* \"contracts/Market.sol\":6932:6943  makerAmount */\n      dup5\n        /* \"contracts/Market.sol\":6944:6956  betterAmount */\n      dup7\n        /* \"contracts/Market.sol\":6899:6910  _createPair */\n      tag_168\n        /* \"contracts/Market.sol\":6899:6957  _createPair(selectedHash,betHash,makerAmount,betterAmount) */\n      jump\t// in\n    tag_183:\n        /* \"contracts/Market.sol\":6992:7050  PairCreated(selectedHash,betHash,makerAmount,betterAmount) */\n      0x40\n      dup1\n      mload\n        /* \"#utility.yul\":7767:7792   */\n      dup9\n      dup2\n      mstore\n        /* \"#utility.yul\":7823:7825   */\n      0x20\n        /* \"#utility.yul\":7808:7826   */\n      dup2\n      add\n        /* \"#utility.yul\":7801:7835   */\n      dup14\n      swap1\n      mstore\n        /* \"#utility.yul\":7851:7869   */\n      swap1\n      dup2\n      add\n        /* \"#utility.yul\":7844:7878   */\n      dup5\n      swap1\n      mstore\n        /* \"#utility.yul\":7909:7911   */\n      0x60\n        /* \"#utility.yul\":7894:7912   */\n      dup2\n      add\n        /* \"#utility.yul\":7887:7921   */\n      dup6\n      swap1\n      mstore\n        /* \"contracts/Market.sol\":6888:6957  pairHash = _createPair(selectedHash,betHash,makerAmount,betterAmount) */\n      swap1\n      swap2\n      pop\n        /* \"contracts/Market.sol\":6992:7050  PairCreated(selectedHash,betHash,makerAmount,betterAmount) */\n      0x5de48bb383b4a2aaad84721b80d93429b813651b0eefbd59d32018cfe28215dc\n      swap1\n        /* \"#utility.yul\":7754:7757   */\n      0x80\n        /* \"#utility.yul\":7739:7758   */\n      add\n        /* \"contracts/Market.sol\":6992:7050  PairCreated(selectedHash,betHash,makerAmount,betterAmount) */\n      mload(0x40)\n      dup1\n      swap2\n      sub\n      swap1\n      log1\n        /* \"contracts/Market.sol\":6844:7077  if(_side == 2){... */\n    tag_182:\n        /* \"contracts/Market.sol\":7120:7137  betPairs[betHash] */\n      0x00\n      dup11\n      dup2\n      mstore\n        /* \"contracts/Market.sol\":7120:7128  betPairs */\n      0x0a\n        /* \"contracts/Market.sol\":7120:7137  betPairs[betHash] */\n      0x20\n      swap1\n      dup2\n      mstore\n      0x40\n      dup1\n      dup4\n      keccak256\n        /* \"contracts/Market.sol\":7120:7152  betPairs[betHash].push(pairHash) */\n      dup1\n      sload\n      0x01\n      dup2\n      dup2\n      add\n      dup4\n      sstore\n      swap2\n      dup6\n      mstore\n      dup4\n      dup6\n      keccak256\n      add\n      dup6\n      swap1\n      sstore\n        /* \"contracts/Market.sol\":7174:7196  betPairs[selectedHash] */\n      dup10\n      dup5\n      mstore\n      dup2\n      dup5\n      keccak256\n        /* \"contracts/Market.sol\":7174:7211  betPairs[selectedHash].push(pairHash) */\n      dup1\n      sload\n      swap2\n      dup3\n      add\n      dup2\n      sstore\n      dup5\n      mstore\n      dup3\n      dup5\n      keccak256\n      add\n      dup5\n      swap1\n      sstore\n        /* \"contracts/Market.sol\":7233:7250  betsInfo[betHash] */\n      dup13\n      dup4\n      mstore\n        /* \"contracts/Market.sol\":7233:7241  betsInfo */\n      0x07\n        /* \"contracts/Market.sol\":7233:7250  betsInfo[betHash] */\n      swap1\n      swap2\n      mstore\n      dup2\n      keccak256\n        /* \"contracts/Market.sol\":7233:7258  betsInfo[betHash].matched */\n      0x03\n      add\n        /* \"contracts/Market.sol\":7233:7274  betsInfo[betHash].matched += betterAmount */\n      dup1\n      sload\n        /* \"contracts/Market.sol\":7262:7274  betterAmount */\n      dup6\n      swap3\n        /* \"contracts/Market.sol\":7120:7137  betPairs[betHash] */\n      swap1\n        /* \"contracts/Market.sol\":7233:7274  betsInfo[betHash].matched += betterAmount */\n      tag_187\n      swap1\n        /* \"contracts/Market.sol\":7262:7274  betterAmount */\n      dup5\n      swap1\n        /* \"contracts/Market.sol\":7233:7274  betsInfo[betHash].matched += betterAmount */\n      tag_188\n      jump\t// in\n    tag_187:\n      swap1\n      swap2\n      sstore\n      pop\n      pop\n        /* \"contracts/Market.sol\":7296:7318  betsInfo[selectedHash] */\n      0x00\n      dup7\n      dup2\n      mstore\n        /* \"contracts/Market.sol\":7296:7304  betsInfo */\n      0x07\n        /* \"contracts/Market.sol\":7296:7318  betsInfo[selectedHash] */\n      0x20\n      mstore\n      0x40\n      dup2\n      keccak256\n        /* \"contracts/Market.sol\":7296:7326  betsInfo[selectedHash].matched */\n      0x03\n      add\n        /* \"contracts/Market.sol\":7296:7341  betsInfo[selectedHash].matched += makerAmount */\n      dup1\n      sload\n        /* \"contracts/Market.sol\":7330:7341  makerAmount */\n      dup5\n      swap3\n        /* \"contracts/Market.sol\":7296:7318  betsInfo[selectedHash] */\n      swap1\n        /* \"contracts/Market.sol\":7296:7341  betsInfo[selectedHash].matched += makerAmount */\n      tag_189\n      swap1\n        /* \"contracts/Market.sol\":7330:7341  makerAmount */\n      dup5\n      swap1\n        /* \"contracts/Market.sol\":7296:7341  betsInfo[selectedHash].matched += makerAmount */\n      tag_188\n      jump\t// in\n    tag_189:\n      swap1\n      swap2\n      sstore\n      pop\n      pop\n        /* \"contracts/Market.sol\":7397:7419  betsInfo[selectedHash] */\n      0x00\n      dup7\n      dup2\n      mstore\n        /* \"contracts/Market.sol\":7397:7405  betsInfo */\n      0x07\n        /* \"contracts/Market.sol\":7397:7419  betsInfo[selectedHash] */\n      0x20\n      mstore\n      0x40\n      swap1\n      keccak256\n        /* \"contracts/Market.sol\":7397:7427  betsInfo[selectedHash].matched */\n      0x03\n      dup2\n      add\n      sload\n        /* \"contracts/Market.sol\":7366:7394  betsInfo[selectedHash].stake */\n      0x02\n      swap1\n      swap2\n      add\n      sload\n        /* \"contracts/Market.sol\":7366:7427  betsInfo[selectedHash].stake - betsInfo[selectedHash].matched */\n      tag_190\n      swap2\n        /* \"contracts/Market.sol\":7397:7427  betsInfo[selectedHash].matched */\n      swap1\n        /* \"contracts/Market.sol\":7366:7427  betsInfo[selectedHash].stake - betsInfo[selectedHash].matched */\n      tag_94\n      jump\t// in\n    tag_190:\n        /* \"contracts/Market.sol\":7431:7432  0 */\n      0x00\n        /* \"contracts/Market.sol\":7366:7432  betsInfo[selectedHash].stake - betsInfo[selectedHash].matched == 0 */\n      sub\n        /* \"contracts/Market.sol\":7363:7516  if(betsInfo[selectedHash].stake - betsInfo[selectedHash].matched == 0) {... */\n      tag_191\n      jumpi\n        /* \"contracts/Market.sol\":7467:7478  pendingBets */\n      0x05\n        /* \"contracts/Market.sol\":7479:7492  selectedIndex */\n      dup9\n        /* \"contracts/Market.sol\":7467:7493  pendingBets[selectedIndex] */\n      dup2\n      sload\n      dup2\n      lt\n      tag_193\n      jumpi\n      tag_193\n      tag_64\n      jump\t// in\n    tag_193:\n      0x00\n      swap2\n      dup3\n      mstore\n      0x20\n      dup3\n      keccak256\n      add\n        /* \"contracts/Market.sol\":7460:7493  delete pendingBets[selectedIndex] */\n      sstore\n        /* \"contracts/Market.sol\":7363:7516  if(betsInfo[selectedHash].stake - betsInfo[selectedHash].matched == 0) {... */\n    tag_191:\n        /* \"contracts/Market.sol\":7537:7562  _remStake -= betterAmount */\n      tag_195\n        /* \"contracts/Market.sol\":7550:7562  betterAmount */\n      dup4\n        /* \"contracts/Market.sol\":7537:7562  _remStake -= betterAmount */\n      dup11\n      tag_94\n      jump\t// in\n    tag_195:\n      swap9\n      pop\n        /* \"contracts/Market.sol\":5352:7581  {... */\n      pop\n      pop\n      pop\n      pop\n      pop\n      pop\n        /* \"contracts/Market.sol\":5320:7696  if(maxOdds > _odds || _instant) {... */\n      jump(tag_196)\n    tag_154:\n      pop\n      pop\n        /* \"contracts/Market.sol\":7625:7636  pendingBets */\n      0x05\n        /* \"contracts/Market.sol\":7625:7650  pendingBets.push(betHash) */\n      dup1\n      sload\n      0x01\n      dup2\n      add\n      dup3\n      sstore\n      0x00\n      swap2\n      swap1\n      swap2\n      mstore\n      0x036b6384b5eca791c62761152d0c79bb0604c104a5fb6f4eb0703f3154bb3db0\n      add\n      dup3\n      swap1\n      sstore\n        /* \"contracts/Market.sol\":7672:7677  break */\n      jump(tag_143)\n        /* \"contracts/Market.sol\":5320:7696  if(maxOdds > _odds || _instant) {... */\n    tag_196:\n        /* \"contracts/Market.sol\":4811:7710  {... */\n      pop\n      pop\n        /* \"contracts/Market.sol\":4779:7710  while(_remStake >= 1 * 10 ** 18){... */\n      jump(tag_142)\n    tag_143:\n        /* \"contracts/Market.sol\":4728:7720  {... */\n      pop\n        /* \"contracts/Market.sol\":4702:7784  if(pendingBets.length > 0){... */\n      jump(tag_198)\n    tag_141:\n        /* \"contracts/Market.sol\":7748:7759  pendingBets */\n      0x05\n        /* \"contracts/Market.sol\":7748:7773  pendingBets.push(betHash) */\n      dup1\n      sload\n      0x01\n      dup2\n      add\n      dup3\n      sstore\n      0x00\n      swap2\n      swap1\n      swap2\n      mstore\n      0x036b6384b5eca791c62761152d0c79bb0604c104a5fb6f4eb0703f3154bb3db0\n      add\n      dup2\n      swap1\n      sstore\n        /* \"contracts/Market.sol\":4702:7784  if(pendingBets.length > 0){... */\n    tag_198:\n        /* \"contracts/Market.sol\":7798:7866  BetCreated(msg.sender, address(this), betHash, _stake, _odds, _side) */\n      0x40\n      dup1\n      mload\n        /* \"contracts/Market.sol\":7809:7819  msg.sender */\n      caller\n        /* \"#utility.yul\":8387:8421   */\n      dup2\n      mstore\n        /* \"contracts/Market.sol\":7829:7833  this */\n      address\n        /* \"#utility.yul\":8452:8454   */\n      0x20\n        /* \"#utility.yul\":8437:8455   */\n      dup3\n      add\n        /* \"#utility.yul\":8430:8473   */\n      mstore\n        /* \"#utility.yul\":8489:8507   */\n      swap1\n      dup2\n      add\n        /* \"#utility.yul\":8482:8516   */\n      dup3\n      swap1\n      mstore\n        /* \"#utility.yul\":8547:8549   */\n      0x60\n        /* \"#utility.yul\":8532:8550   */\n      dup2\n      add\n        /* \"#utility.yul\":8525:8559   */\n      dup8\n      swap1\n      mstore\n        /* \"#utility.yul\":8590:8593   */\n      0x80\n        /* \"#utility.yul\":8575:8594   */\n      dup2\n      add\n        /* \"#utility.yul\":8568:8603   */\n      dup7\n      swap1\n      mstore\n        /* \"#utility.yul\":8367:8370   */\n      0xa0\n        /* \"#utility.yul\":8619:8638   */\n      dup2\n      add\n        /* \"#utility.yul\":8612:8647   */\n      dup6\n      swap1\n      mstore\n        /* \"contracts/Market.sol\":7798:7866  BetCreated(msg.sender, address(this), betHash, _stake, _odds, _side) */\n      0x618f358bb45538682ade624a4a1959053d9dabd20fe300508034b879681b37be\n      swap1\n        /* \"#utility.yul\":8336:8339   */\n      0xc0\n        /* \"#utility.yul\":8321:8340   */\n      add\n        /* \"contracts/Market.sol\":7798:7866  BetCreated(msg.sender, address(this), betHash, _stake, _odds, _side) */\n      mload(0x40)\n      dup1\n      swap2\n      sub\n      swap1\n      log1\n        /* \"contracts/Market.sol\":7883:7890  betHash */\n      swap8\n        /* \"contracts/Market.sol\":4069:7897  function addBet(... */\n      swap7\n      pop\n      pop\n      pop\n      pop\n      pop\n      pop\n      pop\n      jump\t// out\n        /* \"contracts/Market.sol\":2522:3016  function cancelPending(bytes32 _bet) external override nonReentrant {... */\n    tag_44:\n        /* \"@openzeppelin/contracts/security/ReentrancyGuard.sol\":1744:1745  2 */\n      0x02\n        /* \"@openzeppelin/contracts/security/ReentrancyGuard.sol\":2325:2332  _status */\n      sload(0x00)\n        /* \"@openzeppelin/contracts/security/ReentrancyGuard.sol\":2325:2344  _status != _ENTERED */\n      sub\n        /* \"@openzeppelin/contracts/security/ReentrancyGuard.sol\":2317:2380  require(_status != _ENTERED, \"ReentrancyGuard: reentrant call\") */\n      tag_203\n      jumpi\n      mload(0x40)\n      shl(0xe5, 0x461bcd)\n      dup2\n      mstore\n      0x04\n      add\n      tag_71\n      swap1\n      tag_72\n      jump\t// in\n    tag_203:\n        /* \"@openzeppelin/contracts/security/ReentrancyGuard.sol\":1744:1745  2 */\n      0x02\n        /* \"@openzeppelin/contracts/security/ReentrancyGuard.sol\":2455:2462  _status */\n      0x00\n        /* \"@openzeppelin/contracts/security/ReentrancyGuard.sol\":2455:2473  _status = _ENTERED */\n      dup2\n      dup2\n      sstore\n        /* \"contracts/Market.sol\":2623:2637  betsInfo[_bet] */\n      dup3\n      dup2\n      mstore\n        /* \"contracts/Market.sol\":2623:2631  betsInfo */\n      0x07\n        /* \"contracts/Market.sol\":2623:2637  betsInfo[_bet] */\n      0x20\n      swap1\n      dup2\n      mstore\n      0x40\n      swap2\n      dup3\n      swap1\n      keccak256\n        /* \"contracts/Market.sol\":2600:2637  MarketBet memory bet = betsInfo[_bet] */\n      dup3\n      mload\n      0xc0\n      dup2\n      add\n      dup5\n      mstore\n      dup2\n      sload\n      sub(shl(0xa0, 0x01), 0x01)\n      swap1\n      dup2\n      and\n      dup1\n      dup4\n      mstore\n      0x01\n      dup5\n      add\n      sload\n      swap1\n      swap2\n      and\n      swap4\n      dup3\n      add\n      swap4\n      swap1\n      swap4\n      mstore\n      swap4\n      dup2\n      add\n      sload\n      swap3\n      dup5\n      add\n      swap3\n      swap1\n      swap3\n      mstore\n      0x03\n      dup3\n      add\n      sload\n      0x60\n      dup5\n      add\n      mstore\n      0x04\n      dup3\n      add\n      sload\n      0x80\n      dup5\n      add\n      mstore\n      0x05\n      swap1\n      swap2\n      add\n      sload\n      0xa0\n      dup4\n      add\n      mstore\n        /* \"contracts/Market.sol\":2655:2665  msg.sender */\n      caller\n        /* \"contracts/Market.sol\":2655:2679  msg.sender == bet.better */\n      eq\n        /* \"contracts/Market.sol\":2647:2686  require(msg.sender == bet.better, \"M4\") */\n      tag_206\n      jumpi\n      mload(0x40)\n      shl(0xe5, 0x461bcd)\n      dup2\n      mstore\n        /* \"#utility.yul\":8860:8862   */\n      0x20\n        /* \"contracts/Market.sol\":2647:2686  require(msg.sender == bet.better, \"M4\") */\n      0x04\n      dup3\n      add\n        /* \"#utility.yul\":8842:8863   */\n      mstore\n        /* \"#utility.yul\":8899:8900   */\n      0x02\n        /* \"#utility.yul\":8879:8897   */\n      0x24\n      dup3\n      add\n        /* \"#utility.yul\":8872:8901   */\n      mstore\n      shl(0xf2, 0x134d)\n        /* \"#utility.yul\":8917:8935   */\n      0x44\n      dup3\n      add\n        /* \"#utility.yul\":8910:8942   */\n      mstore\n        /* \"#utility.yul\":8959:8977   */\n      0x64\n      add\n        /* \"contracts/Market.sol\":2647:2686  require(msg.sender == bet.better, \"M4\") */\n      tag_71\n        /* \"#utility.yul\":8658:8983   */\n      jump\n        /* \"contracts/Market.sol\":2647:2686  require(msg.sender == bet.better, \"M4\") */\n    tag_206:\n        /* \"contracts/Market.sol\":2696:2709  uint remStake */\n      0x00\n        /* \"contracts/Market.sol\":2724:2727  bet */\n      dup2\n        /* \"contracts/Market.sol\":2724:2735  bet.matched */\n      0x60\n      add\n      mload\n        /* \"contracts/Market.sol\":2712:2715  bet */\n      dup3\n        /* \"contracts/Market.sol\":2712:2721  bet.stake */\n      0x40\n      add\n      mload\n        /* \"contracts/Market.sol\":2712:2735  bet.stake - bet.matched */\n      tag_209\n      swap2\n      swap1\n      tag_94\n      jump\t// in\n    tag_209:\n        /* \"contracts/Market.sol\":2749:2759  bet.better */\n      dup3\n      mload\n      sub(shl(0xa0, 0x01), 0x01)\n        /* \"contracts/Market.sol\":2745:2760  bal[bet.better] */\n      and\n      0x00\n      swap1\n      dup2\n      mstore\n        /* \"contracts/Market.sol\":2745:2748  bal */\n      0x06\n        /* \"contracts/Market.sol\":2745:2760  bal[bet.better] */\n      0x20\n      swap1\n      dup2\n      mstore\n      0x40\n      dup1\n      dup4\n      keccak256\n        /* \"contracts/Market.sol\":2745:2771  bal[bet.better] = remStake */\n      dup5\n      swap1\n      sstore\n        /* \"contracts/Market.sol\":2806:2815  bet.stake */\n      dup1\n      dup7\n      add\n      mload\n        /* \"contracts/Market.sol\":2781:2795  betsInfo[_bet] */\n      dup8\n      dup5\n      mstore\n        /* \"contracts/Market.sol\":2781:2789  betsInfo */\n      0x07\n        /* \"contracts/Market.sol\":2781:2795  betsInfo[_bet] */\n      swap1\n      swap3\n      mstore\n      dup3\n      keccak256\n        /* \"contracts/Market.sol\":2781:2803  betsInfo[_bet].matched */\n      0x03\n      add\n        /* \"contracts/Market.sol\":2781:2815  betsInfo[_bet].matched = bet.stake */\n      sstore\n        /* \"contracts/Market.sol\":2696:2735  uint remStake = bet.stake - bet.matched */\n      swap1\n      swap2\n      pop\n        /* \"contracts/Market.sol\":2861:3010  for(uint i = 0; i < pendingBets.length; i++){... */\n    tag_210:\n        /* \"contracts/Market.sol\":2881:2892  pendingBets */\n      0x05\n        /* \"contracts/Market.sol\":2881:2899  pendingBets.length */\n      sload\n        /* \"contracts/Market.sol\":2877:2899  i < pendingBets.length */\n      dup2\n      lt\n        /* \"contracts/Market.sol\":2861:3010  for(uint i = 0; i < pendingBets.length; i++){... */\n      iszero\n      tag_211\n      jumpi\n        /* \"contracts/Market.sol\":2940:2944  _bet */\n      dup4\n        /* \"contracts/Market.sol\":2922:2933  pendingBets */\n      0x05\n        /* \"contracts/Market.sol\":2934:2935  i */\n      dup3\n        /* \"contracts/Market.sol\":2922:2936  pendingBets[i] */\n      dup2\n      sload\n      dup2\n      lt\n      tag_214\n      jumpi\n      tag_214\n      tag_64\n      jump\t// in\n    tag_214:\n      swap1\n      0x00\n      mstore\n      keccak256(0x00, 0x20)\n      add\n      sload\n        /* \"contracts/Market.sol\":2922:2944  pendingBets[i] == _bet */\n      sub\n        /* \"contracts/Market.sol\":2919:3000  if(pendingBets[i] == _bet) {... */\n      tag_216\n      jumpi\n        /* \"contracts/Market.sol\":2971:2982  pendingBets */\n      0x05\n        /* \"contracts/Market.sol\":2983:2984  i */\n      dup2\n        /* \"contracts/Market.sol\":2971:2985  pendingBets[i] */\n      dup2\n      sload\n      dup2\n      lt\n      tag_218\n      jumpi\n      tag_218\n      tag_64\n      jump\t// in\n    tag_218:\n      0x00\n      swap2\n      dup3\n      mstore\n      0x20\n      dup3\n      keccak256\n      add\n        /* \"contracts/Market.sol\":2964:2985  delete pendingBets[i] */\n      sstore\n        /* \"contracts/Market.sol\":2919:3000  if(pendingBets[i] == _bet) {... */\n    tag_216:\n        /* \"contracts/Market.sol\":2901:2904  i++ */\n      dup1\n      tag_220\n      dup2\n      tag_68\n      jump\t// in\n    tag_220:\n      swap2\n      pop\n      pop\n        /* \"contracts/Market.sol\":2861:3010  for(uint i = 0; i < pendingBets.length; i++){... */\n      jump(tag_210)\n    tag_211:\n      pop\n      pop\n        /* \"@openzeppelin/contracts/security/ReentrancyGuard.sol\":1701:1702  1 */\n      0x01\n        /* \"@openzeppelin/contracts/security/ReentrancyGuard.sol\":2628:2635  _status */\n      0x00\n        /* \"@openzeppelin/contracts/security/ReentrancyGuard.sol\":2628:2650  _status = _NOT_ENTERED */\n      sstore\n      pop\n      pop\n        /* \"contracts/Market.sol\":2522:3016  function cancelPending(bytes32 _bet) external override nonReentrant {... */\n      jump\t// out\n        /* \"contracts/Market.sol\":3308:3659  function settle(uint256 _winningSide)... */\n    tag_48:\n        /* \"contracts/Market.sol\":1248:1255  factory */\n      sload(0x01)\n        /* \"contracts/Market.sol\":3399:3403  bool */\n      0x00\n      swap1\n      sub(shl(0xa0, 0x01), 0x01)\n        /* \"contracts/Market.sol\":1248:1255  factory */\n      and\n        /* \"contracts/Market.sol\":1234:1244  msg.sender */\n      caller\n        /* \"contracts/Market.sol\":1234:1255  msg.sender == factory */\n      eq\n        /* \"contracts/Market.sol\":1213:1283  require(... */\n      tag_222\n      jumpi\n      mload(0x40)\n      shl(0xe5, 0x461bcd)\n      dup2\n      mstore\n      0x04\n      add\n      tag_71\n      swap1\n      tag_111\n      jump\t// in\n    tag_222:\n        /* \"contracts/Market.sol\":3429:3435  status */\n      sload(0x02)\n        /* \"contracts/Market.sol\":3429:3440  status == 0 */\n      iszero\n      dup1\n        /* \"contracts/Market.sol\":3429:3455  status == 0 || status == 4 */\n      tag_225\n      jumpi\n      pop\n        /* \"contracts/Market.sol\":3444:3450  status */\n      sload(0x02)\n        /* \"contracts/Market.sol\":3454:3455  4 */\n      0x04\n        /* \"contracts/Market.sol\":3444:3455  status == 4 */\n      eq\n        /* \"contracts/Market.sol\":3429:3455  status == 0 || status == 4 */\n    tag_225:\n        /* \"contracts/Market.sol\":3428:3500  (status == 0 || status == 4) && (_winningSide == 1 || _winningSide == 2) */\n      dup1\n      iszero\n      tag_227\n      jumpi\n      pop\n        /* \"contracts/Market.sol\":3461:3473  _winningSide */\n      dup2\n        /* \"contracts/Market.sol\":3477:3478  1 */\n      0x01\n        /* \"contracts/Market.sol\":3461:3478  _winningSide == 1 */\n      eq\n        /* \"contracts/Market.sol\":3461:3499  _winningSide == 1 || _winningSide == 2 */\n      dup1\n      tag_227\n      jumpi\n      pop\n        /* \"contracts/Market.sol\":3482:3494  _winningSide */\n      dup2\n        /* \"contracts/Market.sol\":3498:3499  2 */\n      0x02\n        /* \"contracts/Market.sol\":3482:3499  _winningSide == 2 */\n      eq\n        /* \"contracts/Market.sol\":3461:3499  _winningSide == 1 || _winningSide == 2 */\n    tag_227:\n        /* \"contracts/Market.sol\":3419:3507  require ((status == 0 || status == 4) && (_winningSide == 1 || _winningSide == 2), \"M5\") */\n      tag_228\n      jumpi\n      mload(0x40)\n      shl(0xe5, 0x461bcd)\n      dup2\n      mstore\n        /* \"#utility.yul\":9190:9192   */\n      0x20\n        /* \"contracts/Market.sol\":3419:3507  require ((status == 0 || status == 4) && (_winningSide == 1 || _winningSide == 2), \"M5\") */\n      0x04\n      dup3\n      add\n        /* \"#utility.yul\":9172:9193   */\n      mstore\n        /* \"#utility.yul\":9229:9230   */\n      0x02\n        /* \"#utility.yul\":9209:9227   */\n      0x24\n      dup3\n      add\n        /* \"#utility.yul\":9202:9231   */\n      mstore\n      shl(0xf0, 0x4d35)\n        /* \"#utility.yul\":9247:9265   */\n      0x44\n      dup3\n      add\n        /* \"#utility.yul\":9240:9272   */\n      mstore\n        /* \"#utility.yul\":9289:9307   */\n      0x64\n      add\n        /* \"contracts/Market.sol\":3419:3507  require ((status == 0 || status == 4) && (_winningSide == 1 || _winningSide == 2), \"M5\") */\n      tag_71\n        /* \"#utility.yul\":8988:9313   */\n      jump\n        /* \"contracts/Market.sol\":3419:3507  require ((status == 0 || status == 4) && (_winningSide == 1 || _winningSide == 2), \"M5\") */\n    tag_228:\n        /* \"contracts/Market.sol\":3517:3523  status */\n      0x02\n        /* \"contracts/Market.sol\":3517:3538  status = _winningSide */\n      dup3\n      swap1\n      sstore\n        /* \"contracts/Market.sol\":3552:3558  uint i */\n      0x00\n        /* \"contracts/Market.sol\":3548:3632  for(uint i = 0; i < pairs.length; i++){... */\n    tag_231:\n        /* \"contracts/Market.sol\":3568:3573  pairs */\n      0x03\n        /* \"contracts/Market.sol\":3568:3580  pairs.length */\n      sload\n        /* \"contracts/Market.sol\":3564:3580  i < pairs.length */\n      dup2\n      lt\n        /* \"contracts/Market.sol\":3548:3632  for(uint i = 0; i < pairs.length; i++){... */\n      iszero\n      tag_232\n      jumpi\n        /* \"contracts/Market.sol\":3600:3621  _settlePair(pairs[i]) */\n      tag_234\n        /* \"contracts/Market.sol\":3612:3617  pairs */\n      0x03\n        /* \"contracts/Market.sol\":3618:3619  i */\n      dup3\n        /* \"contracts/Market.sol\":3612:3620  pairs[i] */\n      dup2\n      sload\n      dup2\n      lt\n      tag_236\n      jumpi\n      tag_236\n      tag_64\n      jump\t// in\n    tag_236:\n      swap1\n      0x00\n      mstore\n      keccak256(0x00, 0x20)\n      add\n      sload\n        /* \"contracts/Market.sol\":3600:3611  _settlePair */\n      tag_104\n        /* \"contracts/Market.sol\":3600:3621  _settlePair(pairs[i]) */\n      jump\t// in\n    tag_234:\n        /* \"contracts/Market.sol\":3582:3585  i++ */\n      dup1\n      tag_238\n      dup2\n      tag_68\n      jump\t// in\n    tag_238:\n      swap2\n      pop\n      pop\n        /* \"contracts/Market.sol\":3548:3632  for(uint i = 0; i < pairs.length; i++){... */\n      jump(tag_231)\n    tag_232:\n      pop\n        /* \"contracts/Market.sol\":3648:3652  true */\n      0x01\n      swap3\n        /* \"contracts/Market.sol\":3308:3659  function settle(uint256 _winningSide)... */\n      swap2\n      pop\n      pop\n      jump\t// out\n        /* \"contracts/Market.sol\":3937:4063  function start() external override onlyFactory {... */\n    tag_51:\n        /* \"contracts/Market.sol\":1248:1255  factory */\n      and(sub(shl(0xa0, 0x01), 0x01), sload(0x01))\n        /* \"contracts/Market.sol\":1234:1244  msg.sender */\n      caller\n        /* \"contracts/Market.sol\":1234:1255  msg.sender == factory */\n      eq\n        /* \"contracts/Market.sol\":1213:1283  require(... */\n      tag_240\n      jumpi\n      mload(0x40)\n      shl(0xe5, 0x461bcd)\n      dup2\n      mstore\n      0x04\n      add\n      tag_71\n      swap1\n      tag_111\n      jump\t// in\n    tag_240:\n        /* \"contracts/Market.sol\":4002:4008  status */\n      sload(0x02)\n        /* \"contracts/Market.sol\":4002:4013  status == 0 */\n      iszero\n        /* \"contracts/Market.sol\":3994:4020  require(status == 0, \"M7\") */\n      tag_243\n      jumpi\n      mload(0x40)\n      shl(0xe5, 0x461bcd)\n      dup2\n      mstore\n        /* \"#utility.yul\":9520:9522   */\n      0x20\n        /* \"contracts/Market.sol\":3994:4020  require(status == 0, \"M7\") */\n      0x04\n      dup3\n      add\n        /* \"#utility.yul\":9502:9523   */\n      mstore\n        /* \"#utility.yul\":9559:9560   */\n      0x02\n        /* \"#utility.yul\":9539:9557   */\n      0x24\n      dup3\n      add\n        /* \"#utility.yul\":9532:9561   */\n      mstore\n      shl(0xf0, 0x4d37)\n        /* \"#utility.yul\":9577:9595   */\n      0x44\n      dup3\n      add\n        /* \"#utility.yul\":9570:9602   */\n      mstore\n        /* \"#utility.yul\":9619:9637   */\n      0x64\n      add\n        /* \"contracts/Market.sol\":3994:4020  require(status == 0, \"M7\") */\n      tag_71\n        /* \"#utility.yul\":9318:9643   */\n      jump\n        /* \"contracts/Market.sol\":3994:4020  require(status == 0, \"M7\") */\n    tag_243:\n        /* \"contracts/Market.sol\":4039:4040  4 */\n      0x04\n        /* \"contracts/Market.sol\":4030:4036  status */\n      0x02\n        /* \"contracts/Market.sol\":4030:4040  status = 4 */\n      sstore\n        /* \"contracts/Market.sol\":3937:4063  function start() external override onlyFactory {... */\n      jump\t// out\n        /* \"contracts/Market.sol\":8261:9581  function _settlePair(bytes32 _pair) private nonReentrant {... */\n    tag_104:\n        /* \"@openzeppelin/contracts/security/ReentrancyGuard.sol\":1744:1745  2 */\n      0x02\n        /* \"@openzeppelin/contracts/security/ReentrancyGuard.sol\":2325:2332  _status */\n      sload(0x00)\n        /* \"@openzeppelin/contracts/security/ReentrancyGuard.sol\":2325:2344  _status != _ENTERED */\n      sub\n        /* \"@openzeppelin/contracts/security/ReentrancyGuard.sol\":2317:2380  require(_status != _ENTERED, \"ReentrancyGuard: reentrant call\") */\n      tag_248\n      jumpi\n      mload(0x40)\n      shl(0xe5, 0x461bcd)\n      dup2\n      mstore\n      0x04\n      add\n      tag_71\n      swap1\n      tag_72\n      jump\t// in\n    tag_248:\n        /* \"@openzeppelin/contracts/security/ReentrancyGuard.sol\":1744:1745  2 */\n      0x02\n        /* \"@openzeppelin/contracts/security/ReentrancyGuard.sol\":2455:2462  _status */\n      0x00\n        /* \"@openzeppelin/contracts/security/ReentrancyGuard.sol\":2455:2473  _status = _ENTERED */\n      swap1\n      dup2\n      sstore\n        /* \"contracts/Market.sol\":8337:8353  pairsInfo[_pair] */\n      dup2\n      dup2\n      mstore\n        /* \"contracts/Market.sol\":8337:8346  pairsInfo */\n      0x09\n        /* \"contracts/Market.sol\":8337:8353  pairsInfo[_pair] */\n      0x20\n      mstore\n      0x40\n      swap1\n      keccak256\n        /* \"contracts/Market.sol\":8337:8361  pairsInfo[_pair].settled */\n      0x04\n      add\n      sload\n      0xff\n      and\n        /* \"contracts/Market.sol\":8336:8361  !pairsInfo[_pair].settled */\n      iszero\n        /* \"contracts/Market.sol\":8328:8369  require(!pairsInfo[_pair].settled, \"M10\") */\n      tag_251\n      jumpi\n      mload(0x40)\n      shl(0xe5, 0x461bcd)\n      dup2\n      mstore\n        /* \"#utility.yul\":9850:9852   */\n      0x20\n        /* \"contracts/Market.sol\":8328:8369  require(!pairsInfo[_pair].settled, \"M10\") */\n      0x04\n      dup3\n      add\n        /* \"#utility.yul\":9832:9853   */\n      mstore\n        /* \"#utility.yul\":9889:9890   */\n      0x03\n        /* \"#utility.yul\":9869:9887   */\n      0x24\n      dup3\n      add\n        /* \"#utility.yul\":9862:9891   */\n      mstore\n      shl(0xec, 0x04d313)\n        /* \"#utility.yul\":9907:9925   */\n      0x44\n      dup3\n      add\n        /* \"#utility.yul\":9900:9933   */\n      mstore\n        /* \"#utility.yul\":9950:9968   */\n      0x64\n      add\n        /* \"contracts/Market.sol\":8328:8369  require(!pairsInfo[_pair].settled, \"M10\") */\n      tag_71\n        /* \"#utility.yul\":9648:9974   */\n      jump\n        /* \"contracts/Market.sol\":8328:8369  require(!pairsInfo[_pair].settled, \"M10\") */\n    tag_251:\n        /* \"contracts/Market.sol\":8379:8393  address winner */\n      0x00\n        /* \"contracts/Market.sol\":8403:8420  address affiliate */\n      dup1\n        /* \"contracts/Market.sol\":8430:8447  uint256 winAmount */\n      0x00\n        /* \"contracts/Market.sol\":8457:8474  uint256 vigAmount */\n      dup1\n        /* \"contracts/Market.sol\":8487:8493  status */\n      sload(0x02)\n        /* \"contracts/Market.sol\":8497:8498  1 */\n      0x01\n        /* \"contracts/Market.sol\":8487:8498  status == 1 */\n      sub\n        /* \"contracts/Market.sol\":8484:9219  if(status == 1){... */\n      tag_254\n      jumpi\n        /* \"contracts/Market.sol\":8522:8557  betsInfo[pairsInfo[_pair].betHashA] */\n      0x00\n        /* \"contracts/Market.sol\":8531:8547  pairsInfo[_pair] */\n      dup6\n      dup2\n      mstore\n        /* \"contracts/Market.sol\":8531:8540  pairsInfo */\n      0x09\n        /* \"contracts/Market.sol\":8531:8547  pairsInfo[_pair] */\n      0x20\n      swap1\n      dup2\n      mstore\n      0x40\n      dup1\n      dup4\n      keccak256\n        /* \"contracts/Market.sol\":8531:8556  pairsInfo[_pair].betHashA */\n      sload\n        /* \"contracts/Market.sol\":8522:8557  betsInfo[pairsInfo[_pair].betHashA] */\n      dup4\n      mstore\n        /* \"contracts/Market.sol\":8522:8530  betsInfo */\n      0x07\n        /* \"contracts/Market.sol\":8522:8557  betsInfo[pairsInfo[_pair].betHashA] */\n      dup3\n      mstore\n      swap2\n      dup3\n      swap1\n      keccak256\n        /* \"contracts/Market.sol\":8522:8564  betsInfo[pairsInfo[_pair].betHashA].better */\n      sload\n        /* \"contracts/Market.sol\":8652:8661  app.vig() */\n      dup3\n      mload\n      shl(0xe0, 0x55c4a8bf)\n      dup2\n      mstore\n      swap3\n      mload\n      sub(shl(0xa0, 0x01), 0x01)\n        /* \"contracts/Market.sol\":8522:8564  betsInfo[pairsInfo[_pair].betHashA].better */\n      swap2\n      dup3\n      and\n      swap8\n      pop\n        /* \"contracts/Market.sol\":8665:8668  100 */\n      0x64\n      swap4\n        /* \"contracts/Market.sol\":8652:8655  app */\n      immutable(\"0xa4f21281edf90d86f21da3432ee4f5dff8abfbde6aab55afd7f9f7d4d3676c77\")\n        /* \"contracts/Market.sol\":8652:8659  app.vig */\n      swap1\n      swap3\n      and\n      swap3\n      0x55c4a8bf\n      swap3\n        /* \"contracts/Market.sol\":8652:8661  app.vig() */\n      0x04\n      dup1\n      dup3\n      add\n      swap4\n      swap2\n      dup3\n      swap1\n      sub\n      add\n      dup2\n        /* \"contracts/Market.sol\":8652:8659  app.vig */\n      dup7\n        /* \"contracts/Market.sol\":8652:8661  app.vig() */\n      gas\n      staticcall\n      iszero\n      dup1\n      iszero\n      tag_256\n      jumpi\n      returndatasize\n      0x00\n      dup1\n      returndatacopy\n      revert(0x00, returndatasize)\n    tag_256:\n      pop\n      pop\n      pop\n      pop\n      mload(0x40)\n      returndatasize\n      not(0x1f)\n      0x1f\n      dup3\n      add\n      and\n      dup3\n      add\n      dup1\n      0x40\n      mstore\n      pop\n      dup2\n      add\n      swap1\n      tag_257\n      swap2\n      swap1\n      tag_79\n      jump\t// in\n    tag_257:\n        /* \"contracts/Market.sol\":8646:8661  100 - app.vig() */\n      tag_258\n      swap1\n        /* \"contracts/Market.sol\":8646:8649  100 */\n      0x64\n        /* \"contracts/Market.sol\":8646:8661  100 - app.vig() */\n      tag_94\n      jump\t// in\n    tag_258:\n        /* \"contracts/Market.sol\":8618:8634  pairsInfo[_pair] */\n      0x00\n      dup8\n      dup2\n      mstore\n        /* \"contracts/Market.sol\":8618:8627  pairsInfo */\n      0x09\n        /* \"contracts/Market.sol\":8618:8634  pairsInfo[_pair] */\n      0x20\n      mstore\n      0x40\n      swap1\n      keccak256\n        /* \"contracts/Market.sol\":8618:8642  pairsInfo[_pair].amountB */\n      0x03\n      add\n      sload\n        /* \"contracts/Market.sol\":8618:8662  pairsInfo[_pair].amountB * (100 - app.vig()) */\n      tag_259\n      swap2\n      swap1\n      tag_165\n      jump\t// in\n    tag_259:\n        /* \"contracts/Market.sol\":8618:8668  pairsInfo[_pair].amountB * (100 - app.vig()) / 100 */\n      tag_260\n      swap2\n      swap1\n      tag_161\n      jump\t// in\n    tag_260:\n        /* \"contracts/Market.sol\":8590:8606  pairsInfo[_pair] */\n      0x00\n      dup7\n      dup2\n      mstore\n        /* \"contracts/Market.sol\":8590:8599  pairsInfo */\n      0x09\n        /* \"contracts/Market.sol\":8590:8606  pairsInfo[_pair] */\n      0x20\n      mstore\n      0x40\n      swap1\n      keccak256\n        /* \"contracts/Market.sol\":8590:8614  pairsInfo[_pair].amountA */\n      0x02\n      add\n      sload\n        /* \"contracts/Market.sol\":8590:8669  pairsInfo[_pair].amountA + (pairsInfo[_pair].amountB * (100 - app.vig()) / 100) */\n      tag_261\n      swap2\n      swap1\n      tag_188\n      jump\t// in\n    tag_261:\n        /* \"contracts/Market.sol\":8578:8669  winAmount = pairsInfo[_pair].amountA + (pairsInfo[_pair].amountB * (100 - app.vig()) / 100) */\n      swap2\n      pop\n        /* \"contracts/Market.sol\":8734:8737  100 */\n      0x64\n        /* \"contracts/Market.sol\":8722:8725  app */\n      immutable(\"0xa4f21281edf90d86f21da3432ee4f5dff8abfbde6aab55afd7f9f7d4d3676c77\")\n      sub(shl(0xa0, 0x01), 0x01)\n        /* \"contracts/Market.sol\":8722:8729  app.vig */\n      and\n      0x55c4a8bf\n        /* \"contracts/Market.sol\":8722:8731  app.vig() */\n      mload(0x40)\n      dup2\n      0xffffffff\n      and\n      0xe0\n      shl\n      dup2\n      mstore\n      0x04\n      add\n      0x20\n      mload(0x40)\n      dup1\n      dup4\n      sub\n      dup2\n      dup7\n      gas\n      staticcall\n      iszero\n      dup1\n      iszero\n      tag_263\n      jumpi\n      returndatasize\n      0x00\n      dup1\n      returndatacopy\n      revert(0x00, returndatasize)\n    tag_263:\n      pop\n      pop\n      pop\n      pop\n      mload(0x40)\n      returndatasize\n      not(0x1f)\n      0x1f\n      dup3\n      add\n      and\n      dup3\n      add\n      dup1\n      0x40\n      mstore\n      pop\n      dup2\n      add\n      swap1\n      tag_264\n      swap2\n      swap1\n      tag_79\n      jump\t// in\n    tag_264:\n        /* \"contracts/Market.sol\":8695:8711  pairsInfo[_pair] */\n      0x00\n      dup8\n      dup2\n      mstore\n        /* \"contracts/Market.sol\":8695:8704  pairsInfo */\n      0x09\n        /* \"contracts/Market.sol\":8695:8711  pairsInfo[_pair] */\n      0x20\n      mstore\n      0x40\n      swap1\n      keccak256\n        /* \"contracts/Market.sol\":8695:8719  pairsInfo[_pair].amountB */\n      0x03\n      add\n      sload\n        /* \"contracts/Market.sol\":8695:8731  pairsInfo[_pair].amountB * app.vig() */\n      tag_265\n      swap2\n      swap1\n      tag_165\n      jump\t// in\n    tag_265:\n        /* \"contracts/Market.sol\":8695:8737  pairsInfo[_pair].amountB * app.vig() / 100 */\n      tag_266\n      swap2\n      swap1\n      tag_161\n      jump\t// in\n    tag_266:\n        /* \"contracts/Market.sol\":8763:8798  betsInfo[pairsInfo[_pair].betHashA] */\n      0x00\n        /* \"contracts/Market.sol\":8772:8788  pairsInfo[_pair] */\n      dup7\n      dup2\n      mstore\n        /* \"contracts/Market.sol\":8772:8781  pairsInfo */\n      0x09\n        /* \"contracts/Market.sol\":8772:8788  pairsInfo[_pair] */\n      0x20\n      swap1\n      dup2\n      mstore\n      0x40\n      dup1\n      dup4\n      keccak256\n        /* \"contracts/Market.sol\":8772:8797  pairsInfo[_pair].betHashA */\n      sload\n        /* \"contracts/Market.sol\":8763:8798  betsInfo[pairsInfo[_pair].betHashA] */\n      dup4\n      mstore\n        /* \"contracts/Market.sol\":8763:8771  betsInfo */\n      0x07\n        /* \"contracts/Market.sol\":8763:8798  betsInfo[pairsInfo[_pair].betHashA] */\n      swap1\n      swap2\n      mstore\n      swap1\n      keccak256\n        /* \"contracts/Market.sol\":8763:8808  betsInfo[pairsInfo[_pair].betHashA].affiliate */\n      0x01\n      add\n      sload\n      sub(shl(0xa0, 0x01), 0x01)\n      and\n      swap4\n      pop\n        /* \"contracts/Market.sol\":8683:8737  vigAmount = pairsInfo[_pair].amountB * app.vig() / 100 */\n      swap1\n      pop\n        /* \"contracts/Market.sol\":8484:9219  if(status == 1){... */\n      jump(tag_281)\n    tag_254:\n        /* \"contracts/Market.sol\":8836:8842  status */\n      sload(0x02)\n        /* \"contracts/Market.sol\":8846:8847  2 */\n      0x02\n        /* \"contracts/Market.sol\":8836:8847  status == 2 */\n      sub\n        /* \"contracts/Market.sol\":8833:9219  if(status == 2){... */\n      tag_268\n      jumpi\n        /* \"contracts/Market.sol\":8871:8906  betsInfo[pairsInfo[_pair].betHashB] */\n      0x00\n        /* \"contracts/Market.sol\":8880:8896  pairsInfo[_pair] */\n      dup6\n      dup2\n      mstore\n        /* \"contracts/Market.sol\":8880:8889  pairsInfo */\n      0x09\n        /* \"contracts/Market.sol\":8880:8896  pairsInfo[_pair] */\n      0x20\n      swap1\n      dup2\n      mstore\n      0x40\n      dup1\n      dup4\n      keccak256\n        /* \"contracts/Market.sol\":8880:8905  pairsInfo[_pair].betHashB */\n      0x01\n      add\n      sload\n        /* \"contracts/Market.sol\":8871:8906  betsInfo[pairsInfo[_pair].betHashB] */\n      dup4\n      mstore\n        /* \"contracts/Market.sol\":8871:8879  betsInfo */\n      0x07\n        /* \"contracts/Market.sol\":8871:8906  betsInfo[pairsInfo[_pair].betHashB] */\n      dup3\n      mstore\n      swap2\n      dup3\n      swap1\n      keccak256\n        /* \"contracts/Market.sol\":8871:8913  betsInfo[pairsInfo[_pair].betHashB].better */\n      sload\n        /* \"contracts/Market.sol\":9001:9010  app.vig() */\n      dup3\n      mload\n      shl(0xe0, 0x55c4a8bf)\n      dup2\n      mstore\n      swap3\n      mload\n      sub(shl(0xa0, 0x01), 0x01)\n        /* \"contracts/Market.sol\":8871:8913  betsInfo[pairsInfo[_pair].betHashB].better */\n      swap2\n      dup3\n      and\n      swap8\n      pop\n        /* \"contracts/Market.sol\":9014:9017  100 */\n      0x64\n      swap4\n        /* \"contracts/Market.sol\":9001:9004  app */\n      immutable(\"0xa4f21281edf90d86f21da3432ee4f5dff8abfbde6aab55afd7f9f7d4d3676c77\")\n        /* \"contracts/Market.sol\":9001:9008  app.vig */\n      swap1\n      swap3\n      and\n      swap3\n      0x55c4a8bf\n      swap3\n        /* \"contracts/Market.sol\":9001:9010  app.vig() */\n      0x04\n      dup1\n      dup3\n      add\n      swap4\n      swap2\n      dup3\n      swap1\n      sub\n      add\n      dup2\n        /* \"contracts/Market.sol\":9001:9008  app.vig */\n      dup7\n        /* \"contracts/Market.sol\":9001:9010  app.vig() */\n      gas\n      staticcall\n      iszero\n      dup1\n      iszero\n      tag_270\n      jumpi\n      returndatasize\n      0x00\n      dup1\n      returndatacopy\n      revert(0x00, returndatasize)\n    tag_270:\n      pop\n      pop\n      pop\n      pop\n      mload(0x40)\n      returndatasize\n      not(0x1f)\n      0x1f\n      dup3\n      add\n      and\n      dup3\n      add\n      dup1\n      0x40\n      mstore\n      pop\n      dup2\n      add\n      swap1\n      tag_271\n      swap2\n      swap1\n      tag_79\n      jump\t// in\n    tag_271:\n        /* \"contracts/Market.sol\":8995:9010  100 - app.vig() */\n      tag_272\n      swap1\n        /* \"contracts/Market.sol\":8995:8998  100 */\n      0x64\n        /* \"contracts/Market.sol\":8995:9010  100 - app.vig() */\n      tag_94\n      jump\t// in\n    tag_272:\n        /* \"contracts/Market.sol\":8967:8983  pairsInfo[_pair] */\n      0x00\n      dup8\n      dup2\n      mstore\n        /* \"contracts/Market.sol\":8967:8976  pairsInfo */\n      0x09\n        /* \"contracts/Market.sol\":8967:8983  pairsInfo[_pair] */\n      0x20\n      mstore\n      0x40\n      swap1\n      keccak256\n        /* \"contracts/Market.sol\":8967:8991  pairsInfo[_pair].amountA */\n      0x02\n      add\n      sload\n        /* \"contracts/Market.sol\":8967:9011  pairsInfo[_pair].amountA * (100 - app.vig()) */\n      tag_273\n      swap2\n      swap1\n      tag_165\n      jump\t// in\n    tag_273:\n        /* \"contracts/Market.sol\":8967:9017  pairsInfo[_pair].amountA * (100 - app.vig()) / 100 */\n      tag_274\n      swap2\n      swap1\n      tag_161\n      jump\t// in\n    tag_274:\n        /* \"contracts/Market.sol\":8939:8955  pairsInfo[_pair] */\n      0x00\n      dup7\n      dup2\n      mstore\n        /* \"contracts/Market.sol\":8939:8948  pairsInfo */\n      0x09\n        /* \"contracts/Market.sol\":8939:8955  pairsInfo[_pair] */\n      0x20\n      mstore\n      0x40\n      swap1\n      keccak256\n        /* \"contracts/Market.sol\":8939:8963  pairsInfo[_pair].amountB */\n      0x03\n      add\n      sload\n        /* \"contracts/Market.sol\":8939:9018  pairsInfo[_pair].amountB + (pairsInfo[_pair].amountA * (100 - app.vig()) / 100) */\n      tag_275\n      swap2\n      swap1\n      tag_188\n      jump\t// in\n    tag_275:\n        /* \"contracts/Market.sol\":8927:9018  winAmount = pairsInfo[_pair].amountB + (pairsInfo[_pair].amountA * (100 - app.vig()) / 100) */\n      swap2\n      pop\n        /* \"contracts/Market.sol\":9083:9086  100 */\n      0x64\n        /* \"contracts/Market.sol\":9071:9074  app */\n      immutable(\"0xa4f21281edf90d86f21da3432ee4f5dff8abfbde6aab55afd7f9f7d4d3676c77\")\n      sub(shl(0xa0, 0x01), 0x01)\n        /* \"contracts/Market.sol\":9071:9078  app.vig */\n      and\n      0x55c4a8bf\n        /* \"contracts/Market.sol\":9071:9080  app.vig() */\n      mload(0x40)\n      dup2\n      0xffffffff\n      and\n      0xe0\n      shl\n      dup2\n      mstore\n      0x04\n      add\n      0x20\n      mload(0x40)\n      dup1\n      dup4\n      sub\n      dup2\n      dup7\n      gas\n      staticcall\n      iszero\n      dup1\n      iszero\n      tag_277\n      jumpi\n      returndatasize\n      0x00\n      dup1\n      returndatacopy\n      revert(0x00, returndatasize)\n    tag_277:\n      pop\n      pop\n      pop\n      pop\n      mload(0x40)\n      returndatasize\n      not(0x1f)\n      0x1f\n      dup3\n      add\n      and\n      dup3\n      add\n      dup1\n      0x40\n      mstore\n      pop\n      dup2\n      add\n      swap1\n      tag_278\n      swap2\n      swap1\n      tag_79\n      jump\t// in\n    tag_278:\n        /* \"contracts/Market.sol\":9044:9060  pairsInfo[_pair] */\n      0x00\n      dup8\n      dup2\n      mstore\n        /* \"contracts/Market.sol\":9044:9053  pairsInfo */\n      0x09\n        /* \"contracts/Market.sol\":9044:9060  pairsInfo[_pair] */\n      0x20\n      mstore\n      0x40\n      swap1\n      keccak256\n        /* \"contracts/Market.sol\":9044:9068  pairsInfo[_pair].amountA */\n      0x02\n      add\n      sload\n        /* \"contracts/Market.sol\":9044:9080  pairsInfo[_pair].amountA * app.vig() */\n      tag_279\n      swap2\n      swap1\n      tag_165\n      jump\t// in\n    tag_279:\n        /* \"contracts/Market.sol\":9044:9086  pairsInfo[_pair].amountA * app.vig() / 100 */\n      tag_280\n      swap2\n      swap1\n      tag_161\n      jump\t// in\n    tag_280:\n        /* \"contracts/Market.sol\":9112:9147  betsInfo[pairsInfo[_pair].betHashB] */\n      0x00\n        /* \"contracts/Market.sol\":9121:9137  pairsInfo[_pair] */\n      dup7\n      dup2\n      mstore\n        /* \"contracts/Market.sol\":9121:9130  pairsInfo */\n      0x09\n        /* \"contracts/Market.sol\":9121:9137  pairsInfo[_pair] */\n      0x20\n      swap1\n      dup2\n      mstore\n      0x40\n      dup1\n      dup4\n      keccak256\n        /* \"contracts/Market.sol\":9121:9146  pairsInfo[_pair].betHashB */\n      0x01\n      swap1\n      dup2\n      add\n      sload\n        /* \"contracts/Market.sol\":9112:9147  betsInfo[pairsInfo[_pair].betHashB] */\n      dup5\n      mstore\n        /* \"contracts/Market.sol\":9112:9120  betsInfo */\n      0x07\n        /* \"contracts/Market.sol\":9112:9147  betsInfo[pairsInfo[_pair].betHashB] */\n      swap1\n      swap3\n      mstore\n      swap1\n      swap2\n      keccak256\n        /* \"contracts/Market.sol\":9112:9157  betsInfo[pairsInfo[_pair].betHashB].affiliate */\n      add\n      sload\n      sub(shl(0xa0, 0x01), 0x01)\n      and\n      swap4\n      pop\n        /* \"contracts/Market.sol\":9032:9086  vigAmount = pairsInfo[_pair].amountA * app.vig() / 100 */\n      swap1\n      pop\n        /* \"contracts/Market.sol\":8833:9219  if(status == 2){... */\n      jump(tag_281)\n    tag_268:\n        /* \"contracts/Market.sol\":9195:9208  revert(\"M11\") */\n      mload(0x40)\n      shl(0xe5, 0x461bcd)\n      dup2\n      mstore\n        /* \"#utility.yul\":10181:10183   */\n      0x20\n        /* \"contracts/Market.sol\":9195:9208  revert(\"M11\") */\n      0x04\n      dup3\n      add\n        /* \"#utility.yul\":10163:10184   */\n      mstore\n        /* \"#utility.yul\":10220:10221   */\n      0x03\n        /* \"#utility.yul\":10200:10218   */\n      0x24\n      dup3\n      add\n        /* \"#utility.yul\":10193:10222   */\n      mstore\n      shl(0xe8, 0x4d3131)\n        /* \"#utility.yul\":10238:10256   */\n      0x44\n      dup3\n      add\n        /* \"#utility.yul\":10231:10264   */\n      mstore\n        /* \"#utility.yul\":10281:10299   */\n      0x64\n      add\n        /* \"contracts/Market.sol\":9195:9208  revert(\"M11\") */\n      tag_71\n        /* \"#utility.yul\":9979:10305   */\n      jump\n        /* \"contracts/Market.sol\":8833:9219  if(status == 2){... */\n    tag_281:\n      sub(shl(0xa0, 0x01), 0x01)\n        /* \"contracts/Market.sol\":9231:9256  affiliate == address(0x0) */\n      dup4\n      and\n        /* \"contracts/Market.sol\":9228:9307  if(affiliate == address(0x0)){... */\n      tag_284\n      jumpi\n        /* \"contracts/Market.sol\":9283:9286  app */\n      immutable(\"0xa4f21281edf90d86f21da3432ee4f5dff8abfbde6aab55afd7f9f7d4d3676c77\")\n      sub(shl(0xa0, 0x01), 0x01)\n        /* \"contracts/Market.sol\":9283:9294  app.ecoAddr */\n      and\n      0x09953b2f\n        /* \"contracts/Market.sol\":9283:9296  app.ecoAddr() */\n      mload(0x40)\n      dup2\n      0xffffffff\n      and\n      0xe0\n      shl\n      dup2\n      mstore\n      0x04\n      add\n      0x20\n      mload(0x40)\n      dup1\n      dup4\n      sub\n      dup2\n      dup7\n      gas\n      staticcall\n      iszero\n      dup1\n      iszero\n      tag_286\n      jumpi\n      returndatasize\n      0x00\n      dup1\n      returndatacopy\n      revert(0x00, returndatasize)\n    tag_286:\n      pop\n      pop\n      pop\n      pop\n      mload(0x40)\n      returndatasize\n      not(0x1f)\n      0x1f\n      dup3\n      add\n      and\n      dup3\n      add\n      dup1\n      0x40\n      mstore\n      pop\n      dup2\n      add\n      swap1\n      tag_287\n      swap2\n      swap1\n      tag_288\n      jump\t// in\n    tag_287:\n        /* \"contracts/Market.sol\":9271:9296  affiliate = app.ecoAddr() */\n      swap3\n      pop\n        /* \"contracts/Market.sol\":9228:9307  if(affiliate == address(0x0)){... */\n    tag_284:\n      sub(shl(0xa0, 0x01), 0x01)\n        /* \"contracts/Market.sol\":9316:9327  bal[winner] */\n      dup5\n      and\n      0x00\n      swap1\n      dup2\n      mstore\n        /* \"contracts/Market.sol\":9316:9319  bal */\n      0x06\n        /* \"contracts/Market.sol\":9316:9327  bal[winner] */\n      0x20\n      mstore\n      0x40\n      dup2\n      keccak256\n        /* \"contracts/Market.sol\":9316:9340  bal[winner] += winAmount */\n      dup1\n      sload\n        /* \"contracts/Market.sol\":9331:9340  winAmount */\n      dup5\n      swap3\n        /* \"contracts/Market.sol\":9316:9327  bal[winner] */\n      swap1\n        /* \"contracts/Market.sol\":9316:9340  bal[winner] += winAmount */\n      tag_289\n      swap1\n        /* \"contracts/Market.sol\":9331:9340  winAmount */\n      dup5\n      swap1\n        /* \"contracts/Market.sol\":9316:9340  bal[winner] += winAmount */\n      tag_188\n      jump\t// in\n    tag_289:\n      swap3\n      pop\n      pop\n      dup2\n      swap1\n      sstore\n      pop\n        /* \"contracts/Market.sol\":9398:9401  100 */\n      0x64\n        /* \"contracts/Market.sol\":9385:9388  app */\n      immutable(\"0xa4f21281edf90d86f21da3432ee4f5dff8abfbde6aab55afd7f9f7d4d3676c77\")\n      sub(shl(0xa0, 0x01), 0x01)\n        /* \"contracts/Market.sol\":9385:9393  app.hVig */\n      and\n      0x6a0ccd9d\n        /* \"contracts/Market.sol\":9385:9395  app.hVig() */\n      mload(0x40)\n      dup2\n      0xffffffff\n      and\n      0xe0\n      shl\n      dup2\n      mstore\n      0x04\n      add\n      0x20\n      mload(0x40)\n      dup1\n      dup4\n      sub\n      dup2\n      dup7\n      gas\n      staticcall\n      iszero\n      dup1\n      iszero\n      tag_291\n      jumpi\n      returndatasize\n      0x00\n      dup1\n      returndatacopy\n      revert(0x00, returndatasize)\n    tag_291:\n      pop\n      pop\n      pop\n      pop\n      mload(0x40)\n      returndatasize\n      not(0x1f)\n      0x1f\n      dup3\n      add\n      and\n      dup3\n      add\n      dup1\n      0x40\n      mstore\n      pop\n      dup2\n      add\n      swap1\n      tag_292\n      swap2\n      swap1\n      tag_79\n      jump\t// in\n    tag_292:\n        /* \"contracts/Market.sol\":9373:9395  vigAmount * app.hVig() */\n      tag_293\n      swap1\n        /* \"contracts/Market.sol\":9373:9382  vigAmount */\n      dup4\n        /* \"contracts/Market.sol\":9373:9395  vigAmount * app.hVig() */\n      tag_165\n      jump\t// in\n    tag_293:\n        /* \"contracts/Market.sol\":9373:9401  vigAmount * app.hVig() / 100 */\n      tag_294\n      swap2\n      swap1\n      tag_161\n      jump\t// in\n    tag_294:\n        /* \"contracts/Market.sol\":9350:9353  bal */\n      0x06\n        /* \"contracts/Market.sol\":9350:9369  bal[app.holdAddr()] */\n      0x00\n        /* \"contracts/Market.sol\":9354:9357  app */\n      immutable(\"0xa4f21281edf90d86f21da3432ee4f5dff8abfbde6aab55afd7f9f7d4d3676c77\")\n      sub(shl(0xa0, 0x01), 0x01)\n        /* \"contracts/Market.sol\":9354:9366  app.holdAddr */\n      and\n      0xb7640a54\n        /* \"contracts/Market.sol\":9354:9368  app.holdAddr() */\n      mload(0x40)\n      dup2\n      0xffffffff\n      and\n      0xe0\n      shl\n      dup2\n      mstore\n      0x04\n      add\n      0x20\n      mload(0x40)\n      dup1\n      dup4\n      sub\n      dup2\n      dup7\n      gas\n      staticcall\n      iszero\n      dup1\n      iszero\n      tag_296\n      jumpi\n      returndatasize\n      0x00\n      dup1\n      returndatacopy\n      revert(0x00, returndatasize)\n    tag_296:\n      pop\n      pop\n      pop\n      pop\n      mload(0x40)\n      returndatasize\n      not(0x1f)\n      0x1f\n      dup3\n      add\n      and\n      dup3\n      add\n      dup1\n      0x40\n      mstore\n      pop\n      dup2\n      add\n      swap1\n      tag_297\n      swap2\n      swap1\n      tag_288\n      jump\t// in\n    tag_297:\n      sub(shl(0xa0, 0x01), 0x01)\n        /* \"contracts/Market.sol\":9350:9369  bal[app.holdAddr()] */\n      and\n      sub(shl(0xa0, 0x01), 0x01)\n      and\n      dup2\n      mstore\n      0x20\n      add\n      swap1\n      dup2\n      mstore\n      0x20\n      add\n      0x00\n      keccak256\n      0x00\n        /* \"contracts/Market.sol\":9350:9401  bal[app.holdAddr()] += vigAmount * app.hVig() / 100 */\n      dup3\n      dup3\n      sload\n      tag_298\n      swap2\n      swap1\n      tag_188\n      jump\t// in\n    tag_298:\n      swap3\n      pop\n      pop\n      dup2\n      swap1\n      sstore\n      pop\n        /* \"contracts/Market.sol\":9458:9461  100 */\n      0x64\n        /* \"contracts/Market.sol\":9445:9448  app */\n      immutable(\"0xa4f21281edf90d86f21da3432ee4f5dff8abfbde6aab55afd7f9f7d4d3676c77\")\n      sub(shl(0xa0, 0x01), 0x01)\n        /* \"contracts/Market.sol\":9445:9453  app.eVig */\n      and\n      0x28576d45\n        /* \"contracts/Market.sol\":9445:9455  app.eVig() */\n      mload(0x40)\n      dup2\n      0xffffffff\n      and\n      0xe0\n      shl\n      dup2\n      mstore\n      0x04\n      add\n      0x20\n      mload(0x40)\n      dup1\n      dup4\n      sub\n      dup2\n      dup7\n      gas\n      staticcall\n      iszero\n      dup1\n      iszero\n      tag_300\n      jumpi\n      returndatasize\n      0x00\n      dup1\n      returndatacopy\n      revert(0x00, returndatasize)\n    tag_300:\n      pop\n      pop\n      pop\n      pop\n      mload(0x40)\n      returndatasize\n      not(0x1f)\n      0x1f\n      dup3\n      add\n      and\n      dup3\n      add\n      dup1\n      0x40\n      mstore\n      pop\n      dup2\n      add\n      swap1\n      tag_301\n      swap2\n      swap1\n      tag_79\n      jump\t// in\n    tag_301:\n        /* \"contracts/Market.sol\":9433:9455  vigAmount * app.eVig() */\n      tag_302\n      swap1\n        /* \"contracts/Market.sol\":9433:9442  vigAmount */\n      dup4\n        /* \"contracts/Market.sol\":9433:9455  vigAmount * app.eVig() */\n      tag_165\n      jump\t// in\n    tag_302:\n        /* \"contracts/Market.sol\":9433:9461  vigAmount * app.eVig() / 100 */\n      tag_303\n      swap2\n      swap1\n      tag_161\n      jump\t// in\n    tag_303:\n        /* \"contracts/Market.sol\":9411:9414  bal */\n      0x06\n        /* \"contracts/Market.sol\":9411:9429  bal[app.ecoAddr()] */\n      0x00\n        /* \"contracts/Market.sol\":9415:9418  app */\n      immutable(\"0xa4f21281edf90d86f21da3432ee4f5dff8abfbde6aab55afd7f9f7d4d3676c77\")\n      sub(shl(0xa0, 0x01), 0x01)\n        /* \"contracts/Market.sol\":9415:9426  app.ecoAddr */\n      and\n      0x09953b2f\n        /* \"contracts/Market.sol\":9415:9428  app.ecoAddr() */\n      mload(0x40)\n      dup2\n      0xffffffff\n      and\n      0xe0\n      shl\n      dup2\n      mstore\n      0x04\n      add\n      0x20\n      mload(0x40)\n      dup1\n      dup4\n      sub\n      dup2\n      dup7\n      gas\n      staticcall\n      iszero\n      dup1\n      iszero\n      tag_305\n      jumpi\n      returndatasize\n      0x00\n      dup1\n      returndatacopy\n      revert(0x00, returndatasize)\n    tag_305:\n      pop\n      pop\n      pop\n      pop\n      mload(0x40)\n      returndatasize\n      not(0x1f)\n      0x1f\n      dup3\n      add\n      and\n      dup3\n      add\n      dup1\n      0x40\n      mstore\n      pop\n      dup2\n      add\n      swap1\n      tag_306\n      swap2\n      swap1\n      tag_288\n      jump\t// in\n    tag_306:\n      sub(shl(0xa0, 0x01), 0x01)\n        /* \"contracts/Market.sol\":9411:9429  bal[app.ecoAddr()] */\n      and\n      sub(shl(0xa0, 0x01), 0x01)\n      and\n      dup2\n      mstore\n      0x20\n      add\n      swap1\n      dup2\n      mstore\n      0x20\n      add\n      0x00\n      keccak256\n      0x00\n        /* \"contracts/Market.sol\":9411:9461  bal[app.ecoAddr()] += vigAmount * app.eVig() / 100 */\n      dup3\n      dup3\n      sload\n      tag_307\n      swap2\n      swap1\n      tag_188\n      jump\t// in\n    tag_307:\n      swap3\n      pop\n      pop\n      dup2\n      swap1\n      sstore\n      pop\n        /* \"contracts/Market.sol\":9514:9517  100 */\n      0x64\n        /* \"contracts/Market.sol\":9501:9504  app */\n      immutable(\"0xa4f21281edf90d86f21da3432ee4f5dff8abfbde6aab55afd7f9f7d4d3676c77\")\n      sub(shl(0xa0, 0x01), 0x01)\n        /* \"contracts/Market.sol\":9501:9509  app.aVig */\n      and\n      0x54cd1a5c\n        /* \"contracts/Market.sol\":9501:9511  app.aVig() */\n      mload(0x40)\n      dup2\n      0xffffffff\n      and\n      0xe0\n      shl\n      dup2\n      mstore\n      0x04\n      add\n      0x20\n      mload(0x40)\n      dup1\n      dup4\n      sub\n      dup2\n      dup7\n      gas\n      staticcall\n      iszero\n      dup1\n      iszero\n      tag_309\n      jumpi\n      returndatasize\n      0x00\n      dup1\n      returndatacopy\n      revert(0x00, returndatasize)\n    tag_309:\n      pop\n      pop\n      pop\n      pop\n      mload(0x40)\n      returndatasize\n      not(0x1f)\n      0x1f\n      dup3\n      add\n      and\n      dup3\n      add\n      dup1\n      0x40\n      mstore\n      pop\n      dup2\n      add\n      swap1\n      tag_310\n      swap2\n      swap1\n      tag_79\n      jump\t// in\n    tag_310:\n        /* \"contracts/Market.sol\":9489:9511  vigAmount * app.aVig() */\n      tag_311\n      swap1\n        /* \"contracts/Market.sol\":9489:9498  vigAmount */\n      dup4\n        /* \"contracts/Market.sol\":9489:9511  vigAmount * app.aVig() */\n      tag_165\n      jump\t// in\n    tag_311:\n        /* \"contracts/Market.sol\":9489:9517  vigAmount * app.aVig() / 100 */\n      tag_312\n      swap2\n      swap1\n      tag_161\n      jump\t// in\n    tag_312:\n      sub(shl(0xa0, 0x01), 0x01)\n        /* \"contracts/Market.sol\":9471:9485  bal[affiliate] */\n      dup5\n      and\n      0x00\n      swap1\n      dup2\n      mstore\n        /* \"contracts/Market.sol\":9471:9474  bal */\n      0x06\n        /* \"contracts/Market.sol\":9471:9485  bal[affiliate] */\n      0x20\n      mstore\n      0x40\n      dup2\n      keccak256\n        /* \"contracts/Market.sol\":9471:9517  bal[affiliate] += vigAmount * app.aVig() / 100 */\n      dup1\n      sload\n        /* \"contracts/Market.sol\":9471:9485  bal[affiliate] */\n      swap1\n      swap2\n      swap1\n        /* \"contracts/Market.sol\":9471:9517  bal[affiliate] += vigAmount * app.aVig() / 100 */\n      tag_313\n      swap1\n      dup5\n      swap1\n      tag_188\n      jump\t// in\n    tag_313:\n      swap1\n      swap2\n      sstore\n      pop\n      pop\n      pop\n        /* \"contracts/Market.sol\":9527:9543  pairsInfo[_pair] */\n      0x00\n      dup5\n      dup2\n      mstore\n        /* \"contracts/Market.sol\":9527:9536  pairsInfo */\n      0x09\n        /* \"contracts/Market.sol\":9527:9543  pairsInfo[_pair] */\n      0x20\n      mstore\n      0x40\n      swap1\n      keccak256\n        /* \"contracts/Market.sol\":9527:9551  pairsInfo[_pair].settled */\n      0x04\n      add\n        /* \"contracts/Market.sol\":9527:9558  pairsInfo[_pair].settled = true */\n      dup1\n      sload\n      not(0xff)\n      and\n        /* \"contracts/Market.sol\":9554:9558  true */\n      0x01\n        /* \"contracts/Market.sol\":9527:9558  pairsInfo[_pair].settled = true */\n      or\n      swap1\n      sstore\n      pop\n      pop\n      pop\n      pop\n        /* \"@openzeppelin/contracts/security/ReentrancyGuard.sol\":1701:1702  1 */\n      0x01\n        /* \"@openzeppelin/contracts/security/ReentrancyGuard.sol\":2628:2635  _status */\n      0x00\n        /* \"@openzeppelin/contracts/security/ReentrancyGuard.sol\":2628:2650  _status = _NOT_ENTERED */\n      sstore\n        /* \"contracts/Market.sol\":8261:9581  function _settlePair(bytes32 _pair) private nonReentrant {... */\n      jump\t// out\n        /* \"contracts/Market.sol\":7903:8251  function _cancelPair(bytes32 _pair) private {... */\n    tag_124:\n        /* \"contracts/Market.sol\":7957:7972  address betterA */\n      0x00\n        /* \"contracts/Market.sol\":7984:8000  pairsInfo[_pair] */\n      dup2\n      dup2\n      mstore\n        /* \"contracts/Market.sol\":7984:7993  pairsInfo */\n      0x09\n        /* \"contracts/Market.sol\":7984:8000  pairsInfo[_pair] */\n      0x20\n      swap1\n      dup2\n      mstore\n      0x40\n      dup1\n      dup4\n      keccak256\n        /* \"contracts/Market.sol\":7984:8009  pairsInfo[_pair].betHashA */\n      dup1\n      sload\n        /* \"contracts/Market.sol\":7975:8010  betsInfo[pairsInfo[_pair].betHashA] */\n      dup5\n      mstore\n        /* \"contracts/Market.sol\":7975:7983  betsInfo */\n      0x07\n        /* \"contracts/Market.sol\":7975:8010  betsInfo[pairsInfo[_pair].betHashA] */\n      dup4\n      mstore\n      dup2\n      dup5\n      keccak256\n        /* \"contracts/Market.sol\":7975:8017  betsInfo[pairsInfo[_pair].betHashA].better */\n      sload\n      0x01\n        /* \"contracts/Market.sol\":8054:8079  pairsInfo[_pair].betHashB */\n      dup3\n      add\n      sload\n        /* \"contracts/Market.sol\":8045:8080  betsInfo[pairsInfo[_pair].betHashB] */\n      dup6\n      mstore\n      dup3\n      dup6\n      keccak256\n        /* \"contracts/Market.sol\":8045:8087  betsInfo[pairsInfo[_pair].betHashB].better */\n      sload\n        /* \"contracts/Market.sol\":8113:8137  pairsInfo[_pair].amountA */\n      0x02\n      swap1\n      swap3\n      add\n      sload\n      sub(shl(0xa0, 0x01), 0x01)\n        /* \"contracts/Market.sol\":7975:8017  betsInfo[pairsInfo[_pair].betHashA].better */\n      swap2\n      dup3\n      and\n        /* \"contracts/Market.sol\":8097:8109  bal[betterA] */\n      dup1\n      dup8\n      mstore\n        /* \"contracts/Market.sol\":8097:8100  bal */\n      0x06\n        /* \"contracts/Market.sol\":8097:8109  bal[betterA] */\n      swap1\n      swap6\n      mstore\n      swap3\n      dup6\n      keccak256\n        /* \"contracts/Market.sol\":8097:8137  bal[betterA] += pairsInfo[_pair].amountA */\n      dup1\n      sload\n        /* \"contracts/Market.sol\":7975:8017  betsInfo[pairsInfo[_pair].betHashA].better */\n      swap5\n      swap6\n        /* \"contracts/Market.sol\":8045:8087  betsInfo[pairsInfo[_pair].betHashB].better */\n      swap2\n      swap1\n      swap3\n      and\n      swap4\n        /* \"contracts/Market.sol\":8097:8137  bal[betterA] += pairsInfo[_pair].amountA */\n      tag_315\n      swap1\n        /* \"contracts/Market.sol\":8113:8137  pairsInfo[_pair].amountA */\n      dup5\n      swap1\n        /* \"contracts/Market.sol\":8097:8137  bal[betterA] += pairsInfo[_pair].amountA */\n      tag_188\n      jump\t// in\n    tag_315:\n      swap1\n      swap2\n      sstore\n      pop\n      pop\n        /* \"contracts/Market.sol\":8163:8179  pairsInfo[_pair] */\n      0x00\n      dup4\n      dup2\n      mstore\n        /* \"contracts/Market.sol\":8163:8172  pairsInfo */\n      0x09\n        /* \"contracts/Market.sol\":8163:8179  pairsInfo[_pair] */\n      0x20\n      swap1\n      dup2\n      mstore\n      0x40\n      dup1\n      dup4\n      keccak256\n        /* \"contracts/Market.sol\":8163:8187  pairsInfo[_pair].amountB */\n      0x03\n      add\n      sload\n      sub(shl(0xa0, 0x01), 0x01)\n        /* \"contracts/Market.sol\":8147:8159  bal[betterB] */\n      dup6\n      and\n      dup5\n      mstore\n        /* \"contracts/Market.sol\":8147:8150  bal */\n      0x06\n        /* \"contracts/Market.sol\":8147:8159  bal[betterB] */\n      swap1\n      swap3\n      mstore\n      dup3\n      keccak256\n        /* \"contracts/Market.sol\":8147:8187  bal[betterB] += pairsInfo[_pair].amountB */\n      dup1\n      sload\n        /* \"contracts/Market.sol\":8163:8187  pairsInfo[_pair].amountB */\n      swap2\n      swap3\n        /* \"contracts/Market.sol\":8147:8159  bal[betterB] */\n      swap1\n      swap2\n        /* \"contracts/Market.sol\":8147:8187  bal[betterB] += pairsInfo[_pair].amountB */\n      tag_316\n      swap1\n        /* \"contracts/Market.sol\":8163:8187  pairsInfo[_pair].amountB */\n      dup5\n      swap1\n        /* \"contracts/Market.sol\":8147:8187  bal[betterB] += pairsInfo[_pair].amountB */\n      tag_188\n      jump\t// in\n    tag_316:\n      swap1\n      swap2\n      sstore\n      pop\n      pop\n      pop\n        /* \"contracts/Market.sol\":8197:8213  pairsInfo[_pair] */\n      0x00\n      swap2\n      dup3\n      mstore\n      pop\n        /* \"contracts/Market.sol\":8197:8206  pairsInfo */\n      0x09\n        /* \"contracts/Market.sol\":8197:8213  pairsInfo[_pair] */\n      0x20\n      mstore\n      0x40\n      swap1\n      keccak256\n        /* \"contracts/Market.sol\":8197:8221  pairsInfo[_pair].settled */\n      0x04\n      add\n        /* \"contracts/Market.sol\":8197:8228  pairsInfo[_pair].settled = true */\n      dup1\n      sload\n      not(0xff)\n      and\n        /* \"contracts/Market.sol\":8224:8228  true */\n      0x01\n        /* \"contracts/Market.sol\":8197:8228  pairsInfo[_pair].settled = true */\n      or\n      swap1\n      sstore\n        /* \"contracts/Market.sol\":7903:8251  function _cancelPair(bytes32 _pair) private {... */\n      jump\t// out\n        /* \"contracts/Market.sol\":9587:10394  function _createBet(... */\n    tag_140:\n        /* \"contracts/Market.sol\":9786:9793  bytes32 */\n      0x00\n        /* \"contracts/Market.sol\":9809:9824  bytes32 betHash */\n      dup1\n        /* \"contracts/Market.sol\":9834:9840  uint i */\n      0x00\n        /* \"contracts/Market.sol\":9854:10203  while(i >= 0){... */\n    tag_318:\n        /* \"contracts/Market.sol\":9991:9995  bets */\n      0x04\n        /* \"contracts/Market.sol\":9991:10002  bets.length */\n      sload\n        /* \"contracts/Market.sol\":9935:9942  _better */\n      dup10\n      swap1\n        /* \"contracts/Market.sol\":9968:9972  this */\n      address\n      swap1\n        /* \"contracts/Market.sol\":10009:10010  i */\n      dup4\n      swap1\n        /* \"contracts/Market.sol\":9991:10006  bets.length + 1 */\n      tag_320\n      swap1\n        /* \"contracts/Market.sol\":10005:10006  1 */\n      0x01\n        /* \"contracts/Market.sol\":9991:10006  bets.length + 1 */\n      tag_188\n      jump\t// in\n    tag_320:\n        /* \"contracts/Market.sol\":9991:10010  bets.length + 1 + i */\n      tag_321\n      swap2\n      swap1\n      tag_188\n      jump\t// in\n    tag_321:\n        /* \"contracts/Market.sol\":9901:10091  abi.encodePacked(... */\n      mload(0x40)\n      not(0xffffffffffffffffffffffff)\n        /* \"#utility.yul\":10877:10879   */\n      0x60\n        /* \"#utility.yul\":10873:10888   */\n      swap5\n      dup6\n      shl\n        /* \"#utility.yul\":10869:10893   */\n      dup2\n      and\n        /* \"contracts/Market.sol\":9901:10091  abi.encodePacked(... */\n      0x20\n      dup4\n      add\n        /* \"#utility.yul\":10857:10894   */\n      mstore\n        /* \"#utility.yul\":10928:10943   */\n      swap3\n      swap1\n      swap4\n      shl\n        /* \"#utility.yul\":10924:10948   */\n      swap1\n      swap2\n      and\n        /* \"#utility.yul\":10910:10922   */\n      0x34\n      dup4\n      add\n        /* \"#utility.yul\":10903:10949   */\n      mstore\n        /* \"#utility.yul\":10965:10977   */\n      0x48\n      dup3\n      add\n        /* \"#utility.yul\":10958:10986   */\n      mstore\n        /* \"contracts/Market.sol\":10028:10043  block.timestamp */\n      timestamp\n        /* \"#utility.yul\":11002:11014   */\n      0x68\n      dup3\n      add\n        /* \"#utility.yul\":10995:11023   */\n      mstore\n        /* \"contracts/Market.sol\":10061:10077  block.difficulty */\n      difficulty\n        /* \"#utility.yul\":11039:11052   */\n      0x88\n      dup3\n      add\n        /* \"#utility.yul\":11032:11061   */\n      mstore\n        /* \"#utility.yul\":11077:11090   */\n      0xa8\n      add\n        /* \"contracts/Market.sol\":9901:10091  abi.encodePacked(... */\n      0x40\n      dup1\n      mload\n      not(0x1f)\n      dup2\n      dup5\n      sub\n      add\n      dup2\n      mstore\n      swap2\n      dup2\n      mstore\n        /* \"contracts/Market.sol\":9891:10092  keccak256(abi.encodePacked(... */\n      dup2\n      mload\n        /* \"contracts/Market.sol\":9901:10091  abi.encodePacked(... */\n      0x20\n        /* \"contracts/Market.sol\":9891:10092  keccak256(abi.encodePacked(... */\n      swap3\n      dup4\n      add\n      keccak256\n        /* \"contracts/Market.sol\":10109:10126  betsInfo[betHash] */\n      0x00\n      dup2\n      dup2\n      mstore\n        /* \"contracts/Market.sol\":10109:10117  betsInfo */\n      0x07\n        /* \"contracts/Market.sol\":10109:10126  betsInfo[betHash] */\n      swap1\n      swap4\n      mstore\n      swap2\n      keccak256\n        /* \"contracts/Market.sol\":10109:10132  betsInfo[betHash].stake */\n      0x02\n      add\n      sload\n        /* \"contracts/Market.sol\":9891:10092  keccak256(abi.encodePacked(... */\n      swap1\n      swap3\n      pop\n        /* \"contracts/Market.sol\":10106:10176  if(betsInfo[betHash].stake == 0){... */\n      iszero\n        /* \"contracts/Market.sol\":10156:10161  break */\n      tag_319\n        /* \"contracts/Market.sol\":10106:10176  if(betsInfo[betHash].stake == 0){... */\n      jumpi\n        /* \"contracts/Market.sol\":10189:10192  i++ */\n      dup1\n      tag_325\n      dup2\n      tag_68\n      jump\t// in\n    tag_325:\n      swap2\n      pop\n      pop\n        /* \"contracts/Market.sol\":9854:10203  while(i >= 0){... */\n      jump(tag_318)\n    tag_319:\n      pop\n        /* \"contracts/Market.sol\":10232:10294  MarketBet(_better, _affiliate, _stake, _matched, _odds, _side) */\n      0x40\n      dup1\n      mload\n      0xc0\n      dup2\n      add\n      dup3\n      mstore\n      sub(shl(0xa0, 0x01), 0x01)\n      swap10\n      dup11\n      and\n      dup1\n      dup3\n      mstore\n      swap9\n      dup11\n      and\n      0x20\n      dup1\n      dup4\n      add\n      swap2\n      dup3\n      mstore\n      dup3\n      dup5\n      add\n      swap10\n      dup11\n      mstore\n      0x60\n      dup4\n      add\n      swap9\n      dup10\n      mstore\n      0x80\n      dup4\n      add\n      swap8\n      dup9\n      mstore\n      0xa0\n      dup4\n      add\n      swap7\n      dup8\n      mstore\n      0x00\n        /* \"contracts/Market.sol\":10212:10229  betsInfo[betHash] */\n      dup6\n      dup2\n      mstore\n        /* \"contracts/Market.sol\":10212:10220  betsInfo */\n      0x07\n        /* \"contracts/Market.sol\":10212:10229  betsInfo[betHash] */\n      dup3\n      mstore\n      dup5\n      dup2\n      keccak256\n        /* \"contracts/Market.sol\":10212:10294  betsInfo[betHash] = MarketBet(_better, _affiliate, _stake, _matched, _odds, _side) */\n      swap4\n      mload\n      dup5\n      sload\n      swap1\n      dup15\n      and\n      not(sub(shl(0xa0, 0x01), 0x01))\n      swap2\n      dup3\n      and\n      or\n      dup6\n      sstore\n      swap3\n      mload\n      0x01\n      dup1\n      dup7\n      add\n      dup1\n      sload\n      swap3\n      swap1\n      swap16\n      and\n      swap2\n      swap1\n      swap5\n      and\n      or\n      swap1\n      swap13\n      sstore\n      swap9\n      mload\n      0x02\n      dup4\n      add\n      sstore\n      swap7\n      mload\n      0x03\n      dup3\n      add\n      sstore\n      swap5\n      mload\n      0x04\n      dup1\n      dup8\n      add\n      swap2\n      swap1\n      swap2\n      sstore\n      swap4\n      mload\n      0x05\n      swap1\n      swap6\n      add\n      swap5\n      swap1\n      swap5\n      sstore\n        /* \"contracts/Market.sol\":10304:10322  bets.push(betHash) */\n      dup3\n      sload\n      dup1\n      dup7\n      add\n      swap1\n      swap4\n      sstore\n      0x8a35acfbc15ff81a39ae7d344fd709f28e8600b4aa8c65c6b64bfe7fe36bd19b\n      swap1\n      swap3\n      add\n      dup3\n      swap1\n      sstore\n      pop\n        /* \"contracts/Market.sol\":10332:10349  userBets[_better] */\n      swap4\n      dup6\n      mstore\n        /* \"contracts/Market.sol\":10332:10340  userBets */\n      0x08\n        /* \"contracts/Market.sol\":10332:10349  userBets[_better] */\n      dup4\n      mstore\n      dup5\n      keccak256\n        /* \"contracts/Market.sol\":10332:10363  userBets[_better].push(betHash) */\n      dup1\n      sload\n      swap2\n      dup3\n      add\n      dup2\n      sstore\n      dup5\n      mstore\n      swap3\n      keccak256\n      swap1\n      swap2\n      add\n      dup2\n      swap1\n      sstore\n        /* \"contracts/Market.sol\":10212:10229  betsInfo[betHash] */\n      swap1\n        /* \"contracts/Market.sol\":9587:10394  function _createBet(... */\n      jump\t// out\n        /* \"contracts/Market.sol\":10400:11132  function _createPair(... */\n    tag_168:\n        /* \"contracts/Market.sol\":10558:10565  bytes32 */\n      0x00\n        /* \"contracts/Market.sol\":10581:10597  bytes32 pairHash */\n      dup1\n        /* \"contracts/Market.sol\":10607:10613  uint i */\n      0x00\n        /* \"contracts/Market.sol\":10627:10980  while(i >= 0){... */\n    tag_329:\n        /* \"contracts/Market.sol\":10763:10768  pairs */\n      0x03\n        /* \"contracts/Market.sol\":10763:10775  pairs.length */\n      sload\n        /* \"contracts/Market.sol\":10709:10718  _betHashA */\n      dup8\n      swap1\n        /* \"contracts/Market.sol\":10736:10745  _betHashB */\n      dup8\n      swap1\n        /* \"contracts/Market.sol\":10782:10783  i */\n      dup4\n      swap1\n        /* \"contracts/Market.sol\":10763:10779  pairs.length + 1 */\n      tag_331\n      swap1\n        /* \"contracts/Market.sol\":10778:10779  1 */\n      0x01\n        /* \"contracts/Market.sol\":10763:10779  pairs.length + 1 */\n      tag_188\n      jump\t// in\n    tag_331:\n        /* \"contracts/Market.sol\":10763:10783  pairs.length + 1 + i */\n      tag_332\n      swap2\n      swap1\n      tag_188\n      jump\t// in\n    tag_332:\n        /* \"contracts/Market.sol\":10675:10864  abi.encodePacked(... */\n      0x40\n      dup1\n      mload\n      0x20\n      dup2\n      add\n        /* \"#utility.yul\":11342:11361   */\n      swap5\n      swap1\n      swap5\n      mstore\n        /* \"#utility.yul\":11377:11389   */\n      dup4\n      add\n        /* \"#utility.yul\":11370:11398   */\n      swap2\n      swap1\n      swap2\n      mstore\n        /* \"#utility.yul\":11414:11426   */\n      0x60\n      dup3\n      add\n        /* \"#utility.yul\":11407:11435   */\n      mstore\n        /* \"contracts/Market.sol\":10801:10816  block.timestamp */\n      timestamp\n        /* \"#utility.yul\":11451:11463   */\n      0x80\n      dup3\n      add\n        /* \"#utility.yul\":11444:11472   */\n      mstore\n        /* \"contracts/Market.sol\":10834:10850  block.difficulty */\n      difficulty\n        /* \"#utility.yul\":11488:11501   */\n      0xa0\n      dup3\n      add\n        /* \"#utility.yul\":11481:11510   */\n      mstore\n        /* \"#utility.yul\":11526:11539   */\n      0xc0\n      add\n        /* \"contracts/Market.sol\":10675:10864  abi.encodePacked(... */\n      0x40\n      dup1\n      mload\n      not(0x1f)\n      dup2\n      dup5\n      sub\n      add\n      dup2\n      mstore\n      swap2\n      dup2\n      mstore\n        /* \"contracts/Market.sol\":10665:10865  keccak256(abi.encodePacked(... */\n      dup2\n      mload\n        /* \"contracts/Market.sol\":10675:10864  abi.encodePacked(... */\n      0x20\n        /* \"contracts/Market.sol\":10665:10865  keccak256(abi.encodePacked(... */\n      swap3\n      dup4\n      add\n      keccak256\n        /* \"contracts/Market.sol\":10882:10901  pairsInfo[pairHash] */\n      0x00\n      dup2\n      dup2\n      mstore\n        /* \"contracts/Market.sol\":10882:10891  pairsInfo */\n      0x09\n        /* \"contracts/Market.sol\":10882:10901  pairsInfo[pairHash] */\n      swap1\n      swap4\n      mstore\n      swap2\n      keccak256\n        /* \"contracts/Market.sol\":10882:10909  pairsInfo[pairHash].amountA */\n      0x02\n      add\n      sload\n        /* \"contracts/Market.sol\":10665:10865  keccak256(abi.encodePacked(... */\n      swap1\n      swap3\n      pop\n        /* \"contracts/Market.sol\":10879:10953  if(pairsInfo[pairHash].amountA == 0){... */\n      iszero\n        /* \"contracts/Market.sol\":10933:10938  break */\n      tag_330\n        /* \"contracts/Market.sol\":10879:10953  if(pairsInfo[pairHash].amountA == 0){... */\n      jumpi\n        /* \"contracts/Market.sol\":10966:10969  i++ */\n      dup1\n      tag_336\n      dup2\n      tag_68\n      jump\t// in\n    tag_336:\n      swap2\n      pop\n      pop\n        /* \"contracts/Market.sol\":10627:10980  while(i >= 0){... */\n      jump(tag_329)\n    tag_330:\n      pop\n        /* \"contracts/Market.sol\":11011:11070  MarketPair(_betHashA, _betHashB, _amountA, _amountB, false) */\n      0x40\n      dup1\n      mload\n      0xa0\n      dup2\n      add\n      dup3\n      mstore\n      swap7\n      dup8\n      mstore\n      0x20\n      dup1\n      dup9\n      add\n      swap7\n      dup8\n      mstore\n      dup8\n      dup3\n      add\n      swap6\n      dup7\n      mstore\n      0x60\n      dup9\n      add\n      swap5\n      dup6\n      mstore\n      0x00\n      0x80\n      dup10\n      add\n      dup2\n      dup2\n      mstore\n        /* \"contracts/Market.sol\":10989:11008  pairsInfo[pairHash] */\n      dup5\n      dup3\n      mstore\n        /* \"contracts/Market.sol\":10989:10998  pairsInfo */\n      0x09\n        /* \"contracts/Market.sol\":10989:11008  pairsInfo[pairHash] */\n      swap1\n      swap3\n      mstore\n      swap2\n      dup3\n      keccak256\n        /* \"contracts/Market.sol\":10989:11070  pairsInfo[pairHash] = MarketPair(_betHashA, _betHashB, _amountA, _amountB, false) */\n      swap8\n      mload\n      dup9\n      sstore\n      swap6\n      mload\n        /* \"contracts/Market.sol\":11011:11070  MarketPair(_betHashA, _betHashB, _amountA, _amountB, false) */\n      0x01\n        /* \"contracts/Market.sol\":10989:11070  pairsInfo[pairHash] = MarketPair(_betHashA, _betHashB, _amountA, _amountB, false) */\n      dup1\n      dup10\n      add\n      swap2\n      swap1\n      swap2\n      sstore\n      swap5\n      mload\n      0x02\n      dup9\n      add\n      sstore\n      swap3\n      mload\n      0x03\n      dup1\n      dup9\n      add\n      swap2\n      swap1\n      swap2\n      sstore\n      swap5\n      mload\n      0x04\n      swap1\n      swap7\n      add\n      dup1\n      sload\n      not(0xff)\n      and\n      swap7\n      iszero\n      iszero\n      swap7\n      swap1\n      swap7\n      or\n      swap1\n      swap6\n      sstore\n      pop\n        /* \"contracts/Market.sol\":11080:11100  pairs.push(pairHash) */\n      dup3\n      sload\n      swap2\n      dup3\n      add\n      dup4\n      sstore\n      swap2\n      swap1\n      swap2\n      mstore\n      0xc2575a0e9e593c00f959f8c92f12db2869c3395a3b0502d05e2516446f71f85b\n      add\n      dup2\n      swap1\n      sstore\n        /* \"contracts/Market.sol\":10989:11008  pairsInfo[pairHash] */\n      swap1\n        /* \"contracts/Market.sol\":10400:11132  function _createPair(... */\n      jump\t// out\n        /* \"#utility.yul\":196:327   */\n    tag_338:\n      sub(shl(0xa0, 0x01), 0x01)\n        /* \"#utility.yul\":271:302   */\n      dup2\n      and\n        /* \"#utility.yul\":261:303   */\n      dup2\n      eq\n        /* \"#utility.yul\":251:321   */\n      tag_344\n      jumpi\n        /* \"#utility.yul\":317:318   */\n      0x00\n        /* \"#utility.yul\":314:315   */\n      dup1\n        /* \"#utility.yul\":307:319   */\n      revert\n        /* \"#utility.yul\":251:321   */\n    tag_344:\n        /* \"#utility.yul\":196:327   */\n      pop\n      jump\t// out\n        /* \"#utility.yul\":332:579   */\n    tag_20:\n        /* \"#utility.yul\":391:397   */\n      0x00\n        /* \"#utility.yul\":444:446   */\n      0x20\n        /* \"#utility.yul\":432:441   */\n      dup3\n        /* \"#utility.yul\":423:430   */\n      dup5\n        /* \"#utility.yul\":419:442   */\n      sub\n        /* \"#utility.yul\":415:447   */\n      slt\n        /* \"#utility.yul\":412:464   */\n      iszero\n      tag_346\n      jumpi\n        /* \"#utility.yul\":460:461   */\n      0x00\n        /* \"#utility.yul\":457:458   */\n      dup1\n        /* \"#utility.yul\":450:462   */\n      revert\n        /* \"#utility.yul\":412:464   */\n    tag_346:\n        /* \"#utility.yul\":499:508   */\n      dup2\n        /* \"#utility.yul\":486:509   */\n      calldataload\n        /* \"#utility.yul\":518:549   */\n      tag_347\n        /* \"#utility.yul\":543:548   */\n      dup2\n        /* \"#utility.yul\":518:549   */\n      tag_338\n      jump\t// in\n    tag_347:\n        /* \"#utility.yul\":568:573   */\n      swap4\n        /* \"#utility.yul\":332:579   */\n      swap3\n      pop\n      pop\n      pop\n      jump\t// out\n        /* \"#utility.yul\":584:1731   */\n    tag_23:\n        /* \"#utility.yul\":809:811   */\n      0x20\n        /* \"#utility.yul\":861:882   */\n      dup1\n      dup3\n      mstore\n        /* \"#utility.yul\":931:944   */\n      dup3\n      mload\n        /* \"#utility.yul\":834:852   */\n      dup3\n      dup3\n      add\n        /* \"#utility.yul\":953:975   */\n      dup2\n      swap1\n      mstore\n        /* \"#utility.yul\":780:784   */\n      0x00\n      swap2\n        /* \"#utility.yul\":809:811   */\n      swap1\n        /* \"#utility.yul\":994:996   */\n      0x40\n      swap1\n        /* \"#utility.yul\":1012:1030   */\n      dup2\n      dup6\n      add\n      swap1\n        /* \"#utility.yul\":1053:1068   */\n      dup7\n      dup5\n      add\n        /* \"#utility.yul\":780:784   */\n      dup6\n        /* \"#utility.yul\":1096:1705   */\n    tag_349:\n        /* \"#utility.yul\":1110:1116   */\n      dup3\n        /* \"#utility.yul\":1107:1108   */\n      dup2\n        /* \"#utility.yul\":1104:1117   */\n      lt\n        /* \"#utility.yul\":1096:1705   */\n      iszero\n      tag_351\n      jumpi\n        /* \"#utility.yul\":1169:1182   */\n      dup2\n      mload\n        /* \"#utility.yul\":1253:1262   */\n      dup1\n      mload\n      sub(shl(0xa0, 0x01), 0x01)\n        /* \"#utility.yul\":1249:1267   */\n      swap1\n      dup2\n      and\n        /* \"#utility.yul\":1237:1268   */\n      dup7\n      mstore\n        /* \"#utility.yul\":1312:1323   */\n      dup8\n      dup3\n      add\n        /* \"#utility.yul\":1306:1324   */\n      mload\n        /* \"#utility.yul\":1302:1329   */\n      and\n        /* \"#utility.yul\":1288:1300   */\n      dup8\n      dup7\n      add\n        /* \"#utility.yul\":1281:1330   */\n      mstore\n        /* \"#utility.yul\":1370:1381   */\n      dup6\n      dup2\n      add\n        /* \"#utility.yul\":1364:1382   */\n      mload\n        /* \"#utility.yul\":1350:1362   */\n      dup7\n      dup7\n      add\n        /* \"#utility.yul\":1343:1383   */\n      mstore\n        /* \"#utility.yul\":1406:1410   */\n      0x60\n        /* \"#utility.yul\":1450:1461   */\n      dup1\n      dup3\n      add\n        /* \"#utility.yul\":1444:1462   */\n      mload\n        /* \"#utility.yul\":1430:1442   */\n      swap1\n      dup7\n      add\n        /* \"#utility.yul\":1423:1463   */\n      mstore\n        /* \"#utility.yul\":1486:1490   */\n      0x80\n        /* \"#utility.yul\":1530:1541   */\n      dup1\n      dup3\n      add\n        /* \"#utility.yul\":1524:1542   */\n      mload\n        /* \"#utility.yul\":1510:1522   */\n      swap1\n      dup7\n      add\n        /* \"#utility.yul\":1503:1543   */\n      mstore\n        /* \"#utility.yul\":1213:1216   */\n      0xa0\n        /* \"#utility.yul\":1610:1621   */\n      swap1\n      dup2\n      add\n        /* \"#utility.yul\":1604:1622   */\n      mload\n        /* \"#utility.yul\":1590:1602   */\n      swap1\n      dup6\n      add\n        /* \"#utility.yul\":1583:1623   */\n      mstore\n        /* \"#utility.yul\":1652:1656   */\n      0xc0\n        /* \"#utility.yul\":1643:1657   */\n      swap1\n      swap4\n      add\n      swap3\n        /* \"#utility.yul\":1680:1695   */\n      swap1\n      dup6\n      add\n      swap1\n        /* \"#utility.yul\":1222:1223   */\n      0x01\n        /* \"#utility.yul\":1125:1134   */\n      add\n        /* \"#utility.yul\":1096:1705   */\n      jump(tag_349)\n    tag_351:\n      pop\n        /* \"#utility.yul\":1722:1725   */\n      swap2\n      swap8\n        /* \"#utility.yul\":584:1731   */\n      swap7\n      pop\n      pop\n      pop\n      pop\n      pop\n      pop\n      pop\n      jump\t// out\n        /* \"#utility.yul\":1928:2108   */\n    tag_31:\n        /* \"#utility.yul\":1987:1993   */\n      0x00\n        /* \"#utility.yul\":2040:2042   */\n      0x20\n        /* \"#utility.yul\":2028:2037   */\n      dup3\n        /* \"#utility.yul\":2019:2026   */\n      dup5\n        /* \"#utility.yul\":2015:2038   */\n      sub\n        /* \"#utility.yul\":2011:2043   */\n      slt\n        /* \"#utility.yul\":2008:2060   */\n      iszero\n      tag_354\n      jumpi\n        /* \"#utility.yul\":2056:2057   */\n      0x00\n        /* \"#utility.yul\":2053:2054   */\n      dup1\n        /* \"#utility.yul\":2046:2058   */\n      revert\n        /* \"#utility.yul\":2008:2060   */\n    tag_354:\n      pop\n        /* \"#utility.yul\":2079:2102   */\n      calldataload\n      swap2\n        /* \"#utility.yul\":1928:2108   */\n      swap1\n      pop\n      jump\t// out\n        /* \"#utility.yul\":2113:2231   */\n    tag_339:\n        /* \"#utility.yul\":2199:2204   */\n      dup1\n        /* \"#utility.yul\":2192:2205   */\n      iszero\n        /* \"#utility.yul\":2185:2206   */\n      iszero\n        /* \"#utility.yul\":2178:2183   */\n      dup2\n        /* \"#utility.yul\":2175:2207   */\n      eq\n        /* \"#utility.yul\":2165:2225   */\n      tag_344\n      jumpi\n        /* \"#utility.yul\":2221:2222   */\n      0x00\n        /* \"#utility.yul\":2218:2219   */\n      dup1\n        /* \"#utility.yul\":2211:2223   */\n      revert\n        /* \"#utility.yul\":2236:2966   */\n    tag_38:\n        /* \"#utility.yul\":2337:2343   */\n      0x00\n        /* \"#utility.yul\":2345:2351   */\n      dup1\n        /* \"#utility.yul\":2353:2359   */\n      0x00\n        /* \"#utility.yul\":2361:2367   */\n      dup1\n        /* \"#utility.yul\":2369:2375   */\n      0x00\n        /* \"#utility.yul\":2377:2383   */\n      dup1\n        /* \"#utility.yul\":2430:2433   */\n      0xc0\n        /* \"#utility.yul\":2418:2427   */\n      dup8\n        /* \"#utility.yul\":2409:2416   */\n      dup10\n        /* \"#utility.yul\":2405:2428   */\n      sub\n        /* \"#utility.yul\":2401:2434   */\n      slt\n        /* \"#utility.yul\":2398:2451   */\n      iszero\n      tag_358\n      jumpi\n        /* \"#utility.yul\":2447:2448   */\n      0x00\n        /* \"#utility.yul\":2444:2445   */\n      dup1\n        /* \"#utility.yul\":2437:2449   */\n      revert\n        /* \"#utility.yul\":2398:2451   */\n    tag_358:\n        /* \"#utility.yul\":2486:2495   */\n      dup7\n        /* \"#utility.yul\":2473:2496   */\n      calldataload\n        /* \"#utility.yul\":2505:2536   */\n      tag_359\n        /* \"#utility.yul\":2530:2535   */\n      dup2\n        /* \"#utility.yul\":2505:2536   */\n      tag_338\n      jump\t// in\n    tag_359:\n        /* \"#utility.yul\":2555:2560   */\n      swap6\n      pop\n        /* \"#utility.yul\":2612:2614   */\n      0x20\n        /* \"#utility.yul\":2597:2615   */\n      dup8\n      add\n        /* \"#utility.yul\":2584:2616   */\n      calldataload\n        /* \"#utility.yul\":2625:2658   */\n      tag_360\n        /* \"#utility.yul\":2584:2616   */\n      dup2\n        /* \"#utility.yul\":2625:2658   */\n      tag_338\n      jump\t// in\n    tag_360:\n        /* \"#utility.yul\":2677:2684   */\n      swap5\n      pop\n        /* \"#utility.yul\":2731:2733   */\n      0x40\n        /* \"#utility.yul\":2716:2734   */\n      dup8\n      add\n        /* \"#utility.yul\":2703:2735   */\n      calldataload\n      swap4\n      pop\n        /* \"#utility.yul\":2782:2784   */\n      0x60\n        /* \"#utility.yul\":2767:2785   */\n      dup8\n      add\n        /* \"#utility.yul\":2754:2786   */\n      calldataload\n      swap3\n      pop\n        /* \"#utility.yul\":2833:2836   */\n      0x80\n        /* \"#utility.yul\":2818:2837   */\n      dup8\n      add\n        /* \"#utility.yul\":2805:2838   */\n      calldataload\n      swap2\n      pop\n        /* \"#utility.yul\":2890:2893   */\n      0xa0\n        /* \"#utility.yul\":2875:2894   */\n      dup8\n      add\n        /* \"#utility.yul\":2862:2895   */\n      calldataload\n        /* \"#utility.yul\":2904:2934   */\n      tag_361\n        /* \"#utility.yul\":2862:2895   */\n      dup2\n        /* \"#utility.yul\":2904:2934   */\n      tag_339\n      jump\t// in\n    tag_361:\n        /* \"#utility.yul\":2953:2960   */\n      dup1\n        /* \"#utility.yul\":2943:2960   */\n      swap2\n      pop\n      pop\n        /* \"#utility.yul\":2236:2966   */\n      swap3\n      swap6\n      pop\n      swap3\n      swap6\n      pop\n      swap3\n      swap6\n      jump\t// out\n        /* \"#utility.yul\":3338:3465   */\n    tag_64:\n        /* \"#utility.yul\":3399:3409   */\n      0x4e487b71\n        /* \"#utility.yul\":3394:3397   */\n      0xe0\n        /* \"#utility.yul\":3390:3410   */\n      shl\n        /* \"#utility.yul\":3387:3388   */\n      0x00\n        /* \"#utility.yul\":3380:3411   */\n      mstore\n        /* \"#utility.yul\":3430:3434   */\n      0x32\n        /* \"#utility.yul\":3427:3428   */\n      0x04\n        /* \"#utility.yul\":3420:3435   */\n      mstore\n        /* \"#utility.yul\":3454:3458   */\n      0x24\n        /* \"#utility.yul\":3451:3452   */\n      0x00\n        /* \"#utility.yul\":3444:3459   */\n      revert\n        /* \"#utility.yul\":3470:3597   */\n    tag_340:\n        /* \"#utility.yul\":3531:3541   */\n      0x4e487b71\n        /* \"#utility.yul\":3526:3529   */\n      0xe0\n        /* \"#utility.yul\":3522:3542   */\n      shl\n        /* \"#utility.yul\":3519:3520   */\n      0x00\n        /* \"#utility.yul\":3512:3543   */\n      mstore\n        /* \"#utility.yul\":3562:3566   */\n      0x11\n        /* \"#utility.yul\":3559:3560   */\n      0x04\n        /* \"#utility.yul\":3552:3567   */\n      mstore\n        /* \"#utility.yul\":3586:3590   */\n      0x24\n        /* \"#utility.yul\":3583:3584   */\n      0x00\n        /* \"#utility.yul\":3576:3591   */\n      revert\n        /* \"#utility.yul\":3602:3737   */\n    tag_68:\n        /* \"#utility.yul\":3641:3644   */\n      0x00\n        /* \"#utility.yul\":3662:3679   */\n      0x01\n      dup3\n      add\n        /* \"#utility.yul\":3659:3702   */\n      tag_369\n      jumpi\n        /* \"#utility.yul\":3682:3700   */\n      tag_369\n      tag_340\n      jump\t// in\n    tag_369:\n      pop\n        /* \"#utility.yul\":3729:3730   */\n      0x01\n        /* \"#utility.yul\":3718:3731   */\n      add\n      swap1\n        /* \"#utility.yul\":3602:3737   */\n      jump\t// out\n        /* \"#utility.yul\":3742:4097   */\n    tag_72:\n        /* \"#utility.yul\":3944:3946   */\n      0x20\n        /* \"#utility.yul\":3926:3947   */\n      dup1\n      dup3\n      mstore\n        /* \"#utility.yul\":3983:3985   */\n      0x1f\n        /* \"#utility.yul\":3963:3981   */\n      swap1\n      dup3\n      add\n        /* \"#utility.yul\":3956:3986   */\n      mstore\n        /* \"#utility.yul\":4022:4055   */\n      0x5265656e7472616e637947756172643a207265656e7472616e742063616c6c00\n        /* \"#utility.yul\":4017:4019   */\n      0x40\n        /* \"#utility.yul\":4002:4020   */\n      dup3\n      add\n        /* \"#utility.yul\":3995:4056   */\n      mstore\n        /* \"#utility.yul\":4088:4090   */\n      0x60\n        /* \"#utility.yul\":4073:4091   */\n      add\n      swap1\n        /* \"#utility.yul\":3742:4097   */\n      jump\t// out\n        /* \"#utility.yul\":4310:4494   */\n    tag_79:\n        /* \"#utility.yul\":4380:4386   */\n      0x00\n        /* \"#utility.yul\":4433:4435   */\n      0x20\n        /* \"#utility.yul\":4421:4430   */\n      dup3\n        /* \"#utility.yul\":4412:4419   */\n      dup5\n        /* \"#utility.yul\":4408:4431   */\n      sub\n        /* \"#utility.yul\":4404:4436   */\n      slt\n        /* \"#utility.yul\":4401:4453   */\n      iszero\n      tag_373\n      jumpi\n        /* \"#utility.yul\":4449:4450   */\n      0x00\n        /* \"#utility.yul\":4446:4447   */\n      dup1\n        /* \"#utility.yul\":4439:4451   */\n      revert\n        /* \"#utility.yul\":4401:4453   */\n    tag_373:\n      pop\n        /* \"#utility.yul\":4472:4488   */\n      mload\n      swap2\n        /* \"#utility.yul\":4310:4494   */\n      swap1\n      pop\n      jump\t// out\n        /* \"#utility.yul\":5108:5353   */\n    tag_89:\n        /* \"#utility.yul\":5175:5181   */\n      0x00\n        /* \"#utility.yul\":5228:5230   */\n      0x20\n        /* \"#utility.yul\":5216:5225   */\n      dup3\n        /* \"#utility.yul\":5207:5214   */\n      dup5\n        /* \"#utility.yul\":5203:5226   */\n      sub\n        /* \"#utility.yul\":5199:5231   */\n      slt\n        /* \"#utility.yul\":5196:5248   */\n      iszero\n      tag_377\n      jumpi\n        /* \"#utility.yul\":5244:5245   */\n      0x00\n        /* \"#utility.yul\":5241:5242   */\n      dup1\n        /* \"#utility.yul\":5234:5246   */\n      revert\n        /* \"#utility.yul\":5196:5248   */\n    tag_377:\n        /* \"#utility.yul\":5276:5285   */\n      dup2\n        /* \"#utility.yul\":5270:5286   */\n      mload\n        /* \"#utility.yul\":5295:5323   */\n      tag_347\n        /* \"#utility.yul\":5317:5322   */\n      dup2\n        /* \"#utility.yul\":5295:5323   */\n      tag_339\n      jump\t// in\n        /* \"#utility.yul\":5688:5816   */\n    tag_94:\n        /* \"#utility.yul\":5755:5764   */\n      dup2\n      dup2\n      sub\n        /* \"#utility.yul\":5776:5787   */\n      dup2\n      dup2\n      gt\n        /* \"#utility.yul\":5773:5810   */\n      iszero\n      tag_382\n      jumpi\n        /* \"#utility.yul\":5790:5808   */\n      tag_382\n      tag_340\n      jump\t// in\n    tag_382:\n        /* \"#utility.yul\":5688:5816   */\n      swap3\n      swap2\n      pop\n      pop\n      jump\t// out\n        /* \"#utility.yul\":5821:6146   */\n    tag_111:\n        /* \"#utility.yul\":6023:6025   */\n      0x20\n        /* \"#utility.yul\":6005:6026   */\n      dup1\n      dup3\n      mstore\n        /* \"#utility.yul\":6062:6063   */\n      0x02\n        /* \"#utility.yul\":6042:6060   */\n      swap1\n      dup3\n      add\n        /* \"#utility.yul\":6035:6064   */\n      mstore\n      shl(0xf0, 0x4d31)\n        /* \"#utility.yul\":6095:6097   */\n      0x40\n        /* \"#utility.yul\":6080:6098   */\n      dup3\n      add\n        /* \"#utility.yul\":6073:6105   */\n      mstore\n        /* \"#utility.yul\":6137:6139   */\n      0x60\n        /* \"#utility.yul\":6122:6140   */\n      add\n      swap1\n        /* \"#utility.yul\":5821:6146   */\n      jump\t// out\n        /* \"#utility.yul\":7141:7358   */\n    tag_161:\n        /* \"#utility.yul\":7181:7182   */\n      0x00\n        /* \"#utility.yul\":7207:7208   */\n      dup3\n        /* \"#utility.yul\":7197:7329   */\n      tag_388\n      jumpi\n        /* \"#utility.yul\":7251:7261   */\n      0x4e487b71\n        /* \"#utility.yul\":7246:7249   */\n      0xe0\n        /* \"#utility.yul\":7242:7262   */\n      shl\n        /* \"#utility.yul\":7239:7240   */\n      0x00\n        /* \"#utility.yul\":7232:7263   */\n      mstore\n        /* \"#utility.yul\":7286:7290   */\n      0x12\n        /* \"#utility.yul\":7283:7284   */\n      0x04\n        /* \"#utility.yul\":7276:7291   */\n      mstore\n        /* \"#utility.yul\":7314:7318   */\n      0x24\n        /* \"#utility.yul\":7311:7312   */\n      0x00\n        /* \"#utility.yul\":7304:7319   */\n      revert\n        /* \"#utility.yul\":7197:7329   */\n    tag_388:\n      pop\n        /* \"#utility.yul\":7343:7352   */\n      div\n      swap1\n        /* \"#utility.yul\":7141:7358   */\n      jump\t// out\n        /* \"#utility.yul\":7363:7531   */\n    tag_165:\n        /* \"#utility.yul\":7436:7445   */\n      dup1\n      dup3\n      mul\n        /* \"#utility.yul\":7467:7476   */\n      dup2\n      iszero\n        /* \"#utility.yul\":7484:7499   */\n      dup3\n      dup3\n      div\n        /* \"#utility.yul\":7478:7500   */\n      dup5\n      eq\n        /* \"#utility.yul\":7464:7501   */\n      or\n        /* \"#utility.yul\":7454:7525   */\n      tag_382\n      jumpi\n        /* \"#utility.yul\":7505:7523   */\n      tag_382\n      tag_340\n      jump\t// in\n        /* \"#utility.yul\":7932:8057   */\n    tag_188:\n        /* \"#utility.yul\":7997:8006   */\n      dup1\n      dup3\n      add\n        /* \"#utility.yul\":8018:8028   */\n      dup1\n      dup3\n      gt\n        /* \"#utility.yul\":8015:8051   */\n      iszero\n      tag_382\n      jumpi\n        /* \"#utility.yul\":8031:8049   */\n      tag_382\n      tag_340\n      jump\t// in\n        /* \"#utility.yul\":10310:10561   */\n    tag_288:\n        /* \"#utility.yul\":10380:10386   */\n      0x00\n        /* \"#utility.yul\":10433:10435   */\n      0x20\n        /* \"#utility.yul\":10421:10430   */\n      dup3\n        /* \"#utility.yul\":10412:10419   */\n      dup5\n        /* \"#utility.yul\":10408:10431   */\n      sub\n        /* \"#utility.yul\":10404:10436   */\n      slt\n        /* \"#utility.yul\":10401:10453   */\n      iszero\n      tag_403\n      jumpi\n        /* \"#utility.yul\":10449:10450   */\n      0x00\n        /* \"#utility.yul\":10446:10447   */\n      dup1\n        /* \"#utility.yul\":10439:10451   */\n      revert\n        /* \"#utility.yul\":10401:10453   */\n    tag_403:\n        /* \"#utility.yul\":10481:10490   */\n      dup2\n        /* \"#utility.yul\":10475:10491   */\n      mload\n        /* \"#utility.yul\":10500:10531   */\n      tag_347\n        /* \"#utility.yul\":10525:10530   */\n      dup2\n        /* \"#utility.yul\":10500:10531   */\n      tag_338\n      jump\t// in\n\n    auxdata: 0xa2646970667358221220718d493e0e4944c6ca9e25920a90aa990c0e488724ad9ad0ab4a7636659a8e2764736f6c63430008110033\n}\n",
				"bytecode": {
					"linkReferences": {},
					"object": "60c060405260006002556001546001600160a01b031660a05234801561002457600080fd5b506001600081905580546001600160a01b031916339081179091556040805162966ed960e31b815290516304b376c8916004808201926020929091908290030181865afa158015610079573d6000803e3d6000fd5b505050506040513d601f19601f8201168201806040525081019061009d91906100ae565b6001600160a01b03166080526100de565b6000602082840312156100c057600080fd5b81516001600160a01b03811681146100d757600080fd5b9392505050565b60805160a051611dd7620001516000396000818161066c01528181610f8e0152818161104e0152818161116f0152818161122f01528181611348015281816113fe0152818161149801528181611552015281816115ec01526116a601526000818161032001526103f20152611dd76000f3fe608060405234801561001057600080fd5b506004361061009e5760003560e01c806378d65b2f1161006657806378d65b2f1461011f578063893372ca146101325780638df8280014610145578063be9a655514610158578063f8b2cb4f1461016057600080fd5b8063200d2ed2146100a35780632d56657d146100bf57806351cff8d9146100df578063675f6537146101025780636bfefd6b14610117575b600080fd5b6100ac60025481565b6040519081526020015b60405180910390f35b6100d26100cd366004611b1b565b610189565b6040516100b69190611b3f565b6100f26100ed366004611b1b565b6102bd565b60405190151581526020016100b6565b610115610110366004611bc3565b6104d2565b005b6100f2610594565b6100ac61012d366004611bea565b610654565b610115610140366004611bc3565b610c22565b6100f2610153366004611bc3565b610d94565b610115610e6c565b6100ac61016e366004611b1b565b6001600160a01b031660009081526006602052604090205490565b6001600160a01b03811660009081526008602090815260408083208054825181850281018501909352808352606094859490939291908301828280156101ee57602002820191906000526020600020905b8154815260200190600101908083116101da575b5050505050905060005b6004548110156102b4576007600083838151811061021857610218611c51565b6020908102919091018101518252818101929092526040908101600020815160c08101835281546001600160a01b0390811682526001830154169381019390935260028101549183019190915260038101546060830152600481015460808301526005015460a0820152835184908390811061029657610296611c51565b602002602001018190525080806102ac90611c7d565b9150506101f8565b50909392505050565b60006002600054036102ea5760405162461bcd60e51b81526004016102e190611c96565b60405180910390fd5b600260009081556001600160a01b03838116825260066020526040918290205491516370a0823160e01b815230600482015282917f000000000000000000000000000000000000000000000000000000000000000016906370a0823190602401602060405180830381865afa158015610367573d6000803e3d6000fd5b505050506040513d601f19601f8201168201806040525081019061038b9190611ccd565b1180156103985750600081115b6103c95760405162461bcd60e51b8152602060048201526002602482015261269960f11b60448201526064016102e1565b60405163a9059cbb60e01b81526001600160a01b038481166004830152602482018390526000917f00000000000000000000000000000000000000000000000000000000000000009091169063a9059cbb906044016020604051808303816000875af115801561043d573d6000803e3d6000fd5b505050506040513d601f19601f820116820180604052508101906104619190611ce6565b9050806104955760405162461bcd60e51b81526020600482015260026024820152614d3360f01b60448201526064016102e1565b6001600160a01b038416600090815260066020526040812080548492906104bd908490611d03565b90915550600193505050506001600055919050565b6000818152600a602090815260408083208054825181850281018501909352808352919290919083018282801561052857602002820191906000526020600020905b815481526020019060010190808311610514575b5050505050905060005b815181101561056f5761055d82828151811061055057610550611c51565b6020026020010151610ed2565b8061056781611c7d565b915050610532565b5033600090815260066020526040902054156105905761058e336102bd565b505b5050565b6001546000906001600160a01b031633146105c15760405162461bcd60e51b81526004016102e190611d1c565b60025415806105d257506002546004145b6106035760405162461bcd60e51b8152602060048201526002602482015261269b60f11b60448201526064016102e1565b60005b600354811015610648576106366003828154811061062657610626611c51565b906000526020600020015461178f565b8061064081611c7d565b915050610606565b50506003600255600190565b60405163332daccf60e01b81523360048201526000907f00000000000000000000000000000000000000000000000000000000000000006001600160a01b03169063332daccf90602401602060405180830381865afa1580156106bb573d6000803e3d6000fd5b505050506040513d601f19601f820116820180604052508101906106df9190611ce6565b1580156106ec5750600254155b61071d5760405162461bcd60e51b815260206004820152600260248201526109a760f31b60448201526064016102e1565b826001148061072c5750826002145b61075d5760405162461bcd60e51b81526020600482015260026024820152614d3960f01b60448201526064016102e1565b600061076e8888886000898961184a565b60055490915015610b8c57855b670de0b6b3a76400008110610b865760008060005b600554811015610827576000600582815481106107af576107af611c51565b90600052602060002001549050600760008281526020019081526020016000206005015489036107df5750610815565b6000818152600760205260409020600401548310156108135760008181526007602052604090206004015491935090915082905b505b8061081f81611c7d565b915050610790565b50878111806108335750855b15610b435760006005838154811061084d5761084d611c51565b6000918252602080832090910154808352600782526040808420815160c08101835281546001600160a01b0390811682526001808401549091169582019590955260028201549281019290925260038101546060830152600481015460808301526005015460a082015290935091906108c6908c611d03565b826060015183604001516108da9190611d03565b6108e49190611d38565b905060008060008e84116109d25783925061090060018f611d03565b61090a9085611d5a565b91508c600103610971576109208a8785856119d4565b604080518c815260208101899052908101859052606081018490529091507f5de48bb383b4a2aaad84721b80d93429b813651b0eefbd59d32018cfe28215dc906080015b60405180910390a1610a61565b8c6002036109cd57610985868b84866119d4565b60408051888152602081018d9052908101849052606081018590529091507f5de48bb383b4a2aaad84721b80d93429b813651b0eefbd59d32018cfe28215dc90608001610964565b610a61565b8e92506109e060018f611d03565b8f6109eb9190611d5a565b91508c600103610a01576109208a8785856119d4565b8c600203610a6157610a15868b84866119d4565b60408051888152602081018d9052908101849052606081018590529091507f5de48bb383b4a2aaad84721b80d93429b813651b0eefbd59d32018cfe28215dc9060800160405180910390a15b60008a8152600a6020908152604080832080546001818101835591855283852001859055898452818420805491820181558452828420018490558c8352600790915281206003018054859290610ab8908490611d71565b909155505060008681526007602052604081206003018054849290610ade908490611d71565b909155505060008681526007602052604090206003810154600290910154610b069190611d03565b600003610b2c5760058881548110610b2057610b20611c51565b60009182526020822001555b610b36838a611d03565b9850505050505050610b7f565b5050600580546001810182556000919091527f036b6384b5eca791c62761152d0c79bb0604c104a5fb6f4eb0703f3154bb3db001829055610b86565b505061077b565b50610bc2565b600580546001810182556000919091527f036b6384b5eca791c62761152d0c79bb0604c104a5fb6f4eb0703f3154bb3db0018190555b60408051338152306020820152908101829052606081018790526080810186905260a081018590527f618f358bb45538682ade624a4a1959053d9dabd20fe300508034b879681b37be9060c00160405180910390a1979650505050505050565b600260005403610c445760405162461bcd60e51b81526004016102e190611c96565b6002600081815582815260076020908152604091829020825160c08101845281546001600160a01b039081168083526001840154909116938201939093529381015492840192909252600382015460608401526004820154608084015260059091015460a08301523314610cdf5760405162461bcd60e51b8152602060048201526002602482015261134d60f21b60448201526064016102e1565b600081606001518260400151610cf59190611d03565b82516001600160a01b031660009081526006602090815260408083208490558086015187845260079092528220600301559091505b600554811015610d89578360058281548110610d4857610d48611c51565b906000526020600020015403610d775760058181548110610d6b57610d6b611c51565b60009182526020822001555b80610d8181611c7d565b915050610d2a565b505060016000555050565b6001546000906001600160a01b03163314610dc15760405162461bcd60e51b81526004016102e190611d1c565b6002541580610dd257506002546004145b8015610de857508160011480610de85750816002145b610e195760405162461bcd60e51b81526020600482015260026024820152614d3560f01b60448201526064016102e1565b600282905560005b600354811015610e6357610e5160038281548110610e4157610e41611c51565b9060005260206000200154610ed2565b80610e5b81611c7d565b915050610e21565b50600192915050565b6001546001600160a01b03163314610e965760405162461bcd60e51b81526004016102e190611d1c565b60025415610ecb5760405162461bcd60e51b81526020600482015260026024820152614d3760f01b60448201526064016102e1565b6004600255565b600260005403610ef45760405162461bcd60e51b81526004016102e190611c96565b600260009081558181526009602052604090206004015460ff1615610f415760405162461bcd60e51b815260206004820152600360248201526204d31360ec1b60448201526064016102e1565b60008060008060025460010361112557600085815260096020908152604080832054835260078252918290205482516355c4a8bf60e01b815292516001600160a01b0391821697506064937f0000000000000000000000000000000000000000000000000000000000000000909216926355c4a8bf92600480820193918290030181865afa158015610fd7573d6000803e3d6000fd5b505050506040513d601f19601f82011682018060405250810190610ffb9190611ccd565b611006906064611d03565b6000878152600960205260409020600301546110229190611d5a565b61102c9190611d38565b6000868152600960205260409020600201546110489190611d71565b915060647f00000000000000000000000000000000000000000000000000000000000000006001600160a01b03166355c4a8bf6040518163ffffffff1660e01b8152600401602060405180830381865afa1580156110aa573d6000803e3d6000fd5b505050506040513d601f19601f820116820180604052508101906110ce9190611ccd565b6000878152600960205260409020600301546110ea9190611d5a565b6110f49190611d38565b600086815260096020908152604080832054835260079091529020600101546001600160a01b031693509050611338565b60025460020361130a57600085815260096020908152604080832060010154835260078252918290205482516355c4a8bf60e01b815292516001600160a01b0391821697506064937f0000000000000000000000000000000000000000000000000000000000000000909216926355c4a8bf92600480820193918290030181865afa1580156111b8573d6000803e3d6000fd5b505050506040513d601f19601f820116820180604052508101906111dc9190611ccd565b6111e7906064611d03565b6000878152600960205260409020600201546112039190611d5a565b61120d9190611d38565b6000868152600960205260409020600301546112299190611d71565b915060647f00000000000000000000000000000000000000000000000000000000000000006001600160a01b03166355c4a8bf6040518163ffffffff1660e01b8152600401602060405180830381865afa15801561128b573d6000803e3d6000fd5b505050506040513d601f19601f820116820180604052508101906112af9190611ccd565b6000878152600960205260409020600201546112cb9190611d5a565b6112d59190611d38565b60008681526009602090815260408083206001908101548452600790925290912001546001600160a01b031693509050611338565b60405162461bcd60e51b81526020600482015260036024820152624d313160e81b60448201526064016102e1565b6001600160a01b0383166113cb577f00000000000000000000000000000000000000000000000000000000000000006001600160a01b03166309953b2f6040518163ffffffff1660e01b8152600401602060405180830381865afa1580156113a4573d6000803e3d6000fd5b505050506040513d601f19601f820116820180604052508101906113c89190611d84565b92505b6001600160a01b038416600090815260066020526040812080548492906113f3908490611d71565b9250508190555060647f00000000000000000000000000000000000000000000000000000000000000006001600160a01b0316636a0ccd9d6040518163ffffffff1660e01b8152600401602060405180830381865afa15801561145a573d6000803e3d6000fd5b505050506040513d601f19601f8201168201806040525081019061147e9190611ccd565b6114889083611d5a565b6114929190611d38565b600660007f00000000000000000000000000000000000000000000000000000000000000006001600160a01b031663b7640a546040518163ffffffff1660e01b8152600401602060405180830381865afa1580156114f4573d6000803e3d6000fd5b505050506040513d601f19601f820116820180604052508101906115189190611d84565b6001600160a01b03166001600160a01b0316815260200190815260200160002060008282546115479190611d71565b9250508190555060647f00000000000000000000000000000000000000000000000000000000000000006001600160a01b03166328576d456040518163ffffffff1660e01b8152600401602060405180830381865afa1580156115ae573d6000803e3d6000fd5b505050506040513d601f19601f820116820180604052508101906115d29190611ccd565b6115dc9083611d5a565b6115e69190611d38565b600660007f00000000000000000000000000000000000000000000000000000000000000006001600160a01b03166309953b2f6040518163ffffffff1660e01b8152600401602060405180830381865afa158015611648573d6000803e3d6000fd5b505050506040513d601f19601f8201168201806040525081019061166c9190611d84565b6001600160a01b03166001600160a01b03168152602001908152602001600020600082825461169b9190611d71565b9250508190555060647f00000000000000000000000000000000000000000000000000000000000000006001600160a01b03166354cd1a5c6040518163ffffffff1660e01b8152600401602060405180830381865afa158015611702573d6000803e3d6000fd5b505050506040513d601f19601f820116820180604052508101906117269190611ccd565b6117309083611d5a565b61173a9190611d38565b6001600160a01b03841660009081526006602052604081208054909190611762908490611d71565b9091555050506000848152600960205260409020600401805460ff19166001179055505050506001600055565b600081815260096020908152604080832080548452600783528184205460018201548552828520546002909201546001600160a01b0391821680875260069095529285208054949591909216936117e7908490611d71565b90915550506000838152600960209081526040808320600301546001600160a01b038516845260069092528220805491929091611825908490611d71565b909155505050600091825250600960205260409020600401805460ff19166001179055565b60008060005b600454899030908390611864906001611d71565b61186e9190611d71565b6040516bffffffffffffffffffffffff19606094851b811660208301529290931b9091166034830152604882015242606882015244608882015260a80160408051601f19818403018152918152815160209283012060008181526007909352912060020154909250156118ed57806118e581611c7d565b915050611850565b506040805160c0810182526001600160a01b03998a16808252988a166020808301918252828401998a52606083019889526080830197885260a0830196875260008581526007825284812093518454908e166001600160a01b031991821617855592516001808601805492909f169190941617909c5598516002830155965160038201559451600480870191909155935160059095019490945582548086019093557f8a35acfbc15ff81a39ae7d344fd709f28e8600b4aa8c65c6b64bfe7fe36bd19b90920182905550938552600883528420805491820181558452922090910181905590565b60008060005b6003548790879083906119ee906001611d71565b6119f89190611d71565b60408051602081019490945283019190915260608201524260808201524460a082015260c00160408051601f1981840301815291815281516020928301206000818152600990935291206002015490925015611a605780611a5881611c7d565b9150506119da565b506040805160a081018252968752602080880196875287820195865260608801948552600060808901818152848252600990925291822097518855955160018089019190915594516002880155925160038088019190915594516004909601805460ff1916961515969096179095555082549182018355919091527fc2575a0e9e593c00f959f8c92f12db2869c3395a3b0502d05e2516446f71f85b0181905590565b6001600160a01b0381168114611b1857600080fd5b50565b600060208284031215611b2d57600080fd5b8135611b3881611b03565b9392505050565b602080825282518282018190526000919060409081850190868401855b82811015611bb657815180516001600160a01b0390811686528782015116878601528581015186860152606080820151908601526080808201519086015260a0908101519085015260c09093019290850190600101611b5c565b5091979650505050505050565b600060208284031215611bd557600080fd5b5035919050565b8015158114611b1857600080fd5b60008060008060008060c08789031215611c0357600080fd5b8635611c0e81611b03565b95506020870135611c1e81611b03565b945060408701359350606087013592506080870135915060a0870135611c4381611bdc565b809150509295509295509295565b634e487b7160e01b600052603260045260246000fd5b634e487b7160e01b600052601160045260246000fd5b600060018201611c8f57611c8f611c67565b5060010190565b6020808252601f908201527f5265656e7472616e637947756172643a207265656e7472616e742063616c6c00604082015260600190565b600060208284031215611cdf57600080fd5b5051919050565b600060208284031215611cf857600080fd5b8151611b3881611bdc565b81810381811115611d1657611d16611c67565b92915050565b6020808252600290820152614d3160f01b604082015260600190565b600082611d5557634e487b7160e01b600052601260045260246000fd5b500490565b8082028115828204841417611d1657611d16611c67565b80820180821115611d1657611d16611c67565b600060208284031215611d9657600080fd5b8151611b3881611b0356fea2646970667358221220718d493e0e4944c6ca9e25920a90aa990c0e488724ad9ad0ab4a7636659a8e2764736f6c63430008110033",
					"opcodes": "PUSH1 0xC0 PUSH1 0x40 MSTORE PUSH1 0x0 PUSH1 0x2 SSTORE PUSH1 0x1 SLOAD PUSH1 0x1 PUSH1 0x1 PUSH1 0xA0 SHL SUB AND PUSH1 0xA0 MSTORE CALLVALUE DUP1 ISZERO PUSH2 0x24 JUMPI PUSH1 0x0 DUP1 REVERT JUMPDEST POP PUSH1 0x1 PUSH1 0x0 DUP2 SWAP1 SSTORE DUP1 SLOAD PUSH1 0x1 PUSH1 0x1 PUSH1 0xA0 SHL SUB NOT AND CALLER SWAP1 DUP2 OR SWAP1 SWAP2 SSTORE PUSH1 0x40 DUP1 MLOAD PUSH3 0x966ED9 PUSH1 0xE3 SHL DUP2 MSTORE SWAP1 MLOAD PUSH4 0x4B376C8 SWAP2 PUSH1 0x4 DUP1 DUP3 ADD SWAP3 PUSH1 0x20 SWAP3 SWAP1 SWAP2 SWAP1 DUP3 SWAP1 SUB ADD DUP2 DUP7 GAS STATICCALL ISZERO DUP1 ISZERO PUSH2 0x79 JUMPI RETURNDATASIZE PUSH1 0x0 DUP1 RETURNDATACOPY RETURNDATASIZE PUSH1 0x0 REVERT JUMPDEST POP POP POP POP PUSH1 0x40 MLOAD RETURNDATASIZE PUSH1 0x1F NOT PUSH1 0x1F DUP3 ADD AND DUP3 ADD DUP1 PUSH1 0x40 MSTORE POP DUP2 ADD SWAP1 PUSH2 0x9D SWAP2 SWAP1 PUSH2 0xAE JUMP JUMPDEST PUSH1 0x1 PUSH1 0x1 PUSH1 0xA0 SHL SUB AND PUSH1 0x80 MSTORE PUSH2 0xDE JUMP JUMPDEST PUSH1 0x0 PUSH1 0x20 DUP3 DUP5 SUB SLT ISZERO PUSH2 0xC0 JUMPI PUSH1 0x0 DUP1 REVERT JUMPDEST DUP2 MLOAD PUSH1 0x1 PUSH1 0x1 PUSH1 0xA0 SHL SUB DUP2 AND DUP2 EQ PUSH2 0xD7 JUMPI PUSH1 0x0 DUP1 REVERT JUMPDEST SWAP4 SWAP3 POP POP POP JUMP JUMPDEST PUSH1 0x80 MLOAD PUSH1 0xA0 MLOAD PUSH2 0x1DD7 PUSH3 0x151 PUSH1 0x0 CODECOPY PUSH1 0x0 DUP2 DUP2 PUSH2 0x66C ADD MSTORE DUP2 DUP2 PUSH2 0xF8E ADD MSTORE DUP2 DUP2 PUSH2 0x104E ADD MSTORE DUP2 DUP2 PUSH2 0x116F ADD MSTORE DUP2 DUP2 PUSH2 0x122F ADD MSTORE DUP2 DUP2 PUSH2 0x1348 ADD MSTORE DUP2 DUP2 PUSH2 0x13FE ADD MSTORE DUP2 DUP2 PUSH2 0x1498 ADD MSTORE DUP2 DUP2 PUSH2 0x1552 ADD MSTORE DUP2 DUP2 PUSH2 0x15EC ADD MSTORE PUSH2 0x16A6 ADD MSTORE PUSH1 0x0 DUP2 DUP2 PUSH2 0x320 ADD MSTORE PUSH2 0x3F2 ADD MSTORE PUSH2 0x1DD7 PUSH1 0x0 RETURN INVALID PUSH1 0x80 PUSH1 0x40 MSTORE CALLVALUE DUP1 ISZERO PUSH2 0x10 JUMPI PUSH1 0x0 DUP1 REVERT JUMPDEST POP PUSH1 0x4 CALLDATASIZE LT PUSH2 0x9E JUMPI PUSH1 0x0 CALLDATALOAD PUSH1 0xE0 SHR DUP1 PUSH4 0x78D65B2F GT PUSH2 0x66 JUMPI DUP1 PUSH4 0x78D65B2F EQ PUSH2 0x11F JUMPI DUP1 PUSH4 0x893372CA EQ PUSH2 0x132 JUMPI DUP1 PUSH4 0x8DF82800 EQ PUSH2 0x145 JUMPI DUP1 PUSH4 0xBE9A6555 EQ PUSH2 0x158 JUMPI DUP1 PUSH4 0xF8B2CB4F EQ PUSH2 0x160 JUMPI PUSH1 0x0 DUP1 REVERT JUMPDEST DUP1 PUSH4 0x200D2ED2 EQ PUSH2 0xA3 JUMPI DUP1 PUSH4 0x2D56657D EQ PUSH2 0xBF JUMPI DUP1 PUSH4 0x51CFF8D9 EQ PUSH2 0xDF JUMPI DUP1 PUSH4 0x675F6537 EQ PUSH2 0x102 JUMPI DUP1 PUSH4 0x6BFEFD6B EQ PUSH2 0x117 JUMPI JUMPDEST PUSH1 0x0 DUP1 REVERT JUMPDEST PUSH2 0xAC PUSH1 0x2 SLOAD DUP2 JUMP JUMPDEST PUSH1 0x40 MLOAD SWAP1 DUP2 MSTORE PUSH1 0x20 ADD JUMPDEST PUSH1 0x40 MLOAD DUP1 SWAP2 SUB SWAP1 RETURN JUMPDEST PUSH2 0xD2 PUSH2 0xCD CALLDATASIZE PUSH1 0x4 PUSH2 0x1B1B JUMP JUMPDEST PUSH2 0x189 JUMP JUMPDEST PUSH1 0x40 MLOAD PUSH2 0xB6 SWAP2 SWAP1 PUSH2 0x1B3F JUMP JUMPDEST PUSH2 0xF2 PUSH2 0xED CALLDATASIZE PUSH1 0x4 PUSH2 0x1B1B JUMP JUMPDEST PUSH2 0x2BD JUMP JUMPDEST PUSH1 0x40 MLOAD SWAP1 ISZERO ISZERO DUP2 MSTORE PUSH1 0x20 ADD PUSH2 0xB6 JUMP JUMPDEST PUSH2 0x115 PUSH2 0x110 CALLDATASIZE PUSH1 0x4 PUSH2 0x1BC3 JUMP JUMPDEST PUSH2 0x4D2 JUMP JUMPDEST STOP JUMPDEST PUSH2 0xF2 PUSH2 0x594 JUMP JUMPDEST PUSH2 0xAC PUSH2 0x12D CALLDATASIZE PUSH1 0x4 PUSH2 0x1BEA JUMP JUMPDEST PUSH2 0x654 JUMP JUMPDEST PUSH2 0x115 PUSH2 0x140 CALLDATASIZE PUSH1 0x4 PUSH2 0x1BC3 JUMP JUMPDEST PUSH2 0xC22 JUMP JUMPDEST PUSH2 0xF2 PUSH2 0x153 CALLDATASIZE PUSH1 0x4 PUSH2 0x1BC3 JUMP JUMPDEST PUSH2 0xD94 JUMP JUMPDEST PUSH2 0x115 PUSH2 0xE6C JUMP JUMPDEST PUSH2 0xAC PUSH2 0x16E CALLDATASIZE PUSH1 0x4 PUSH2 0x1B1B JUMP JUMPDEST PUSH1 0x1 PUSH1 0x1 PUSH1 0xA0 SHL SUB AND PUSH1 0x0 SWAP1 DUP2 MSTORE PUSH1 0x6 PUSH1 0x20 MSTORE PUSH1 0x40 SWAP1 KECCAK256 SLOAD SWAP1 JUMP JUMPDEST PUSH1 0x1 PUSH1 0x1 PUSH1 0xA0 SHL SUB DUP2 AND PUSH1 0x0 SWAP1 DUP2 MSTORE PUSH1 0x8 PUSH1 0x20 SWAP1 DUP2 MSTORE PUSH1 0x40 DUP1 DUP4 KECCAK256 DUP1 SLOAD DUP3 MLOAD DUP2 DUP6 MUL DUP2 ADD DUP6 ADD SWAP1 SWAP4 MSTORE DUP1 DUP4 MSTORE PUSH1 0x60 SWAP5 DUP6 SWAP5 SWAP1 SWAP4 SWAP3 SWAP2 SWAP1 DUP4 ADD DUP3 DUP3 DUP1 ISZERO PUSH2 0x1EE JUMPI PUSH1 0x20 MUL DUP3 ADD SWAP2 SWAP1 PUSH1 0x0 MSTORE PUSH1 0x20 PUSH1 0x0 KECCAK256 SWAP1 JUMPDEST DUP2 SLOAD DUP2 MSTORE PUSH1 0x20 ADD SWAP1 PUSH1 0x1 ADD SWAP1 DUP1 DUP4 GT PUSH2 0x1DA JUMPI JUMPDEST POP POP POP POP POP SWAP1 POP PUSH1 0x0 JUMPDEST PUSH1 0x4 SLOAD DUP2 LT ISZERO PUSH2 0x2B4 JUMPI PUSH1 0x7 PUSH1 0x0 DUP4 DUP4 DUP2 MLOAD DUP2 LT PUSH2 0x218 JUMPI PUSH2 0x218 PUSH2 0x1C51 JUMP JUMPDEST PUSH1 0x20 SWAP1 DUP2 MUL SWAP2 SWAP1 SWAP2 ADD DUP2 ADD MLOAD DUP3 MSTORE DUP2 DUP2 ADD SWAP3 SWAP1 SWAP3 MSTORE PUSH1 0x40 SWAP1 DUP2 ADD PUSH1 0x0 KECCAK256 DUP2 MLOAD PUSH1 0xC0 DUP2 ADD DUP4 MSTORE DUP2 SLOAD PUSH1 0x1 PUSH1 0x1 PUSH1 0xA0 SHL SUB SWAP1 DUP2 AND DUP3 MSTORE PUSH1 0x1 DUP4 ADD SLOAD AND SWAP4 DUP2 ADD SWAP4 SWAP1 SWAP4 MSTORE PUSH1 0x2 DUP2 ADD SLOAD SWAP2 DUP4 ADD SWAP2 SWAP1 SWAP2 MSTORE PUSH1 0x3 DUP2 ADD SLOAD PUSH1 0x60 DUP4 ADD MSTORE PUSH1 0x4 DUP2 ADD SLOAD PUSH1 0x80 DUP4 ADD MSTORE PUSH1 0x5 ADD SLOAD PUSH1 0xA0 DUP3 ADD MSTORE DUP4 MLOAD DUP5 SWAP1 DUP4 SWAP1 DUP2 LT PUSH2 0x296 JUMPI PUSH2 0x296 PUSH2 0x1C51 JUMP JUMPDEST PUSH1 0x20 MUL PUSH1 0x20 ADD ADD DUP2 SWAP1 MSTORE POP DUP1 DUP1 PUSH2 0x2AC SWAP1 PUSH2 0x1C7D JUMP JUMPDEST SWAP2 POP POP PUSH2 0x1F8 JUMP JUMPDEST POP SWAP1 SWAP4 SWAP3 POP POP POP JUMP JUMPDEST PUSH1 0x0 PUSH1 0x2 PUSH1 0x0 SLOAD SUB PUSH2 0x2EA JUMPI PUSH1 0x40 MLOAD PUSH3 0x461BCD PUSH1 0xE5 SHL DUP2 MSTORE PUSH1 0x4 ADD PUSH2 0x2E1 SWAP1 PUSH2 0x1C96 JUMP JUMPDEST PUSH1 0x40 MLOAD DUP1 SWAP2 SUB SWAP1 REVERT JUMPDEST PUSH1 0x2 PUSH1 0x0 SWAP1 DUP2 SSTORE PUSH1 0x1 PUSH1 0x1 PUSH1 0xA0 SHL SUB DUP4 DUP2 AND DUP3 MSTORE PUSH1 0x6 PUSH1 0x20 MSTORE PUSH1 0x40 SWAP2 DUP3 SWAP1 KECCAK256 SLOAD SWAP2 MLOAD PUSH4 0x70A08231 PUSH1 0xE0 SHL DUP2 MSTORE ADDRESS PUSH1 0x4 DUP3 ADD MSTORE DUP3 SWAP2 PUSH32 0x0 AND SWAP1 PUSH4 0x70A08231 SWAP1 PUSH1 0x24 ADD PUSH1 0x20 PUSH1 0x40 MLOAD DUP1 DUP4 SUB DUP2 DUP7 GAS STATICCALL ISZERO DUP1 ISZERO PUSH2 0x367 JUMPI RETURNDATASIZE PUSH1 0x0 DUP1 RETURNDATACOPY RETURNDATASIZE PUSH1 0x0 REVERT JUMPDEST POP POP POP POP PUSH1 0x40 MLOAD RETURNDATASIZE PUSH1 0x1F NOT PUSH1 0x1F DUP3 ADD AND DUP3 ADD DUP1 PUSH1 0x40 MSTORE POP DUP2 ADD SWAP1 PUSH2 0x38B SWAP2 SWAP1 PUSH2 0x1CCD JUMP JUMPDEST GT DUP1 ISZERO PUSH2 0x398 JUMPI POP PUSH1 0x0 DUP2 GT JUMPDEST PUSH2 0x3C9 JUMPI PUSH1 0x40 MLOAD PUSH3 0x461BCD PUSH1 0xE5 SHL DUP2 MSTORE PUSH1 0x20 PUSH1 0x4 DUP3 ADD MSTORE PUSH1 0x2 PUSH1 0x24 DUP3 ADD MSTORE PUSH2 0x2699 PUSH1 0xF1 SHL PUSH1 0x44 DUP3 ADD MSTORE PUSH1 0x64 ADD PUSH2 0x2E1 JUMP JUMPDEST PUSH1 0x40 MLOAD PUSH4 0xA9059CBB PUSH1 0xE0 SHL DUP2 MSTORE PUSH1 0x1 PUSH1 0x1 PUSH1 0xA0 SHL SUB DUP5 DUP2 AND PUSH1 0x4 DUP4 ADD MSTORE PUSH1 0x24 DUP3 ADD DUP4 SWAP1 MSTORE PUSH1 0x0 SWAP2 PUSH32 0x0 SWAP1 SWAP2 AND SWAP1 PUSH4 0xA9059CBB SWAP1 PUSH1 0x44 ADD PUSH1 0x20 PUSH1 0x40 MLOAD DUP1 DUP4 SUB DUP2 PUSH1 0x0 DUP8 GAS CALL ISZERO DUP1 ISZERO PUSH2 0x43D JUMPI RETURNDATASIZE PUSH1 0x0 DUP1 RETURNDATACOPY RETURNDATASIZE PUSH1 0x0 REVERT JUMPDEST POP POP POP POP PUSH1 0x40 MLOAD RETURNDATASIZE PUSH1 0x1F NOT PUSH1 0x1F DUP3 ADD AND DUP3 ADD DUP1 PUSH1 0x40 MSTORE POP DUP2 ADD SWAP1 PUSH2 0x461 SWAP2 SWAP1 PUSH2 0x1CE6 JUMP JUMPDEST SWAP1 POP DUP1 PUSH2 0x495 JUMPI PUSH1 0x40 MLOAD PUSH3 0x461BCD PUSH1 0xE5 SHL DUP2 MSTORE PUSH1 0x20 PUSH1 0x4 DUP3 ADD MSTORE PUSH1 0x2 PUSH1 0x24 DUP3 ADD MSTORE PUSH2 0x4D33 PUSH1 0xF0 SHL PUSH1 0x44 DUP3 ADD MSTORE PUSH1 0x64 ADD PUSH2 0x2E1 JUMP JUMPDEST PUSH1 0x1 PUSH1 0x1 PUSH1 0xA0 SHL SUB DUP5 AND PUSH1 0x0 SWAP1 DUP2 MSTORE PUSH1 0x6 PUSH1 0x20 MSTORE PUSH1 0x40 DUP2 KECCAK256 DUP1 SLOAD DUP5 SWAP3 SWAP1 PUSH2 0x4BD SWAP1 DUP5 SWAP1 PUSH2 0x1D03 JUMP JUMPDEST SWAP1 SWAP2 SSTORE POP PUSH1 0x1 SWAP4 POP POP POP POP PUSH1 0x1 PUSH1 0x0 SSTORE SWAP2 SWAP1 POP JUMP JUMPDEST PUSH1 0x0 DUP2 DUP2 MSTORE PUSH1 0xA PUSH1 0x20 SWAP1 DUP2 MSTORE PUSH1 0x40 DUP1 DUP4 KECCAK256 DUP1 SLOAD DUP3 MLOAD DUP2 DUP6 MUL DUP2 ADD DUP6 ADD SWAP1 SWAP4 MSTORE DUP1 DUP4 MSTORE SWAP2 SWAP3 SWAP1 SWAP2 SWAP1 DUP4 ADD DUP3 DUP3 DUP1 ISZERO PUSH2 0x528 JUMPI PUSH1 0x20 MUL DUP3 ADD SWAP2 SWAP1 PUSH1 0x0 MSTORE PUSH1 0x20 PUSH1 0x0 KECCAK256 SWAP1 JUMPDEST DUP2 SLOAD DUP2 MSTORE PUSH1 0x20 ADD SWAP1 PUSH1 0x1 ADD SWAP1 DUP1 DUP4 GT PUSH2 0x514 JUMPI JUMPDEST POP POP POP POP POP SWAP1 POP PUSH1 0x0 JUMPDEST DUP2 MLOAD DUP2 LT ISZERO PUSH2 0x56F JUMPI PUSH2 0x55D DUP3 DUP3 DUP2 MLOAD DUP2 LT PUSH2 0x550 JUMPI PUSH2 0x550 PUSH2 0x1C51 JUMP JUMPDEST PUSH1 0x20 MUL PUSH1 0x20 ADD ADD MLOAD PUSH2 0xED2 JUMP JUMPDEST DUP1 PUSH2 0x567 DUP2 PUSH2 0x1C7D JUMP JUMPDEST SWAP2 POP POP PUSH2 0x532 JUMP JUMPDEST POP CALLER PUSH1 0x0 SWAP1 DUP2 MSTORE PUSH1 0x6 PUSH1 0x20 MSTORE PUSH1 0x40 SWAP1 KECCAK256 SLOAD ISZERO PUSH2 0x590 JUMPI PUSH2 0x58E CALLER PUSH2 0x2BD JUMP JUMPDEST POP JUMPDEST POP POP JUMP JUMPDEST PUSH1 0x1 SLOAD PUSH1 0x0 SWAP1 PUSH1 0x1 PUSH1 0x1 PUSH1 0xA0 SHL SUB AND CALLER EQ PUSH2 0x5C1 JUMPI PUSH1 0x40 MLOAD PUSH3 0x461BCD PUSH1 0xE5 SHL DUP2 MSTORE PUSH1 0x4 ADD PUSH2 0x2E1 SWAP1 PUSH2 0x1D1C JUMP JUMPDEST PUSH1 0x2 SLOAD ISZERO DUP1 PUSH2 0x5D2 JUMPI POP PUSH1 0x2 SLOAD PUSH1 0x4 EQ JUMPDEST PUSH2 0x603 JUMPI PUSH1 0x40 MLOAD PUSH3 0x461BCD PUSH1 0xE5 SHL DUP2 MSTORE PUSH1 0x20 PUSH1 0x4 DUP3 ADD MSTORE PUSH1 0x2 PUSH1 0x24 DUP3 ADD MSTORE PUSH2 0x269B PUSH1 0xF1 SHL PUSH1 0x44 DUP3 ADD MSTORE PUSH1 0x64 ADD PUSH2 0x2E1 JUMP JUMPDEST PUSH1 0x0 JUMPDEST PUSH1 0x3 SLOAD DUP2 LT ISZERO PUSH2 0x648 JUMPI PUSH2 0x636 PUSH1 0x3 DUP3 DUP2 SLOAD DUP2 LT PUSH2 0x626 JUMPI PUSH2 0x626 PUSH2 0x1C51 JUMP JUMPDEST SWAP1 PUSH1 0x0 MSTORE PUSH1 0x20 PUSH1 0x0 KECCAK256 ADD SLOAD PUSH2 0x178F JUMP JUMPDEST DUP1 PUSH2 0x640 DUP2 PUSH2 0x1C7D JUMP JUMPDEST SWAP2 POP POP PUSH2 0x606 JUMP JUMPDEST POP POP PUSH1 0x3 PUSH1 0x2 SSTORE PUSH1 0x1 SWAP1 JUMP JUMPDEST PUSH1 0x40 MLOAD PUSH4 0x332DACCF PUSH1 0xE0 SHL DUP2 MSTORE CALLER PUSH1 0x4 DUP3 ADD MSTORE PUSH1 0x0 SWAP1 PUSH32 0x0 PUSH1 0x1 PUSH1 0x1 PUSH1 0xA0 SHL SUB AND SWAP1 PUSH4 0x332DACCF SWAP1 PUSH1 0x24 ADD PUSH1 0x20 PUSH1 0x40 MLOAD DUP1 DUP4 SUB DUP2 DUP7 GAS STATICCALL ISZERO DUP1 ISZERO PUSH2 0x6BB JUMPI RETURNDATASIZE PUSH1 0x0 DUP1 RETURNDATACOPY RETURNDATASIZE PUSH1 0x0 REVERT JUMPDEST POP POP POP POP PUSH1 0x40 MLOAD RETURNDATASIZE PUSH1 0x1F NOT PUSH1 0x1F DUP3 ADD AND DUP3 ADD DUP1 PUSH1 0x40 MSTORE POP DUP2 ADD SWAP1 PUSH2 0x6DF SWAP2 SWAP1 PUSH2 0x1CE6 JUMP JUMPDEST ISZERO DUP1 ISZERO PUSH2 0x6EC JUMPI POP PUSH1 0x2 SLOAD ISZERO JUMPDEST PUSH2 0x71D JUMPI PUSH1 0x40 MLOAD PUSH3 0x461BCD PUSH1 0xE5 SHL DUP2 MSTORE PUSH1 0x20 PUSH1 0x4 DUP3 ADD MSTORE PUSH1 0x2 PUSH1 0x24 DUP3 ADD MSTORE PUSH2 0x9A7 PUSH1 0xF3 SHL PUSH1 0x44 DUP3 ADD MSTORE PUSH1 0x64 ADD PUSH2 0x2E1 JUMP JUMPDEST DUP3 PUSH1 0x1 EQ DUP1 PUSH2 0x72C JUMPI POP DUP3 PUSH1 0x2 EQ JUMPDEST PUSH2 0x75D JUMPI PUSH1 0x40 MLOAD PUSH3 0x461BCD PUSH1 0xE5 SHL DUP2 MSTORE PUSH1 0x20 PUSH1 0x4 DUP3 ADD MSTORE PUSH1 0x2 PUSH1 0x24 DUP3 ADD MSTORE PUSH2 0x4D39 PUSH1 0xF0 SHL PUSH1 0x44 DUP3 ADD MSTORE PUSH1 0x64 ADD PUSH2 0x2E1 JUMP JUMPDEST PUSH1 0x0 PUSH2 0x76E DUP9 DUP9 DUP9 PUSH1 0x0 DUP10 DUP10 PUSH2 0x184A JUMP JUMPDEST PUSH1 0x5 SLOAD SWAP1 SWAP2 POP ISZERO PUSH2 0xB8C JUMPI DUP6 JUMPDEST PUSH8 0xDE0B6B3A7640000 DUP2 LT PUSH2 0xB86 JUMPI PUSH1 0x0 DUP1 PUSH1 0x0 JUMPDEST PUSH1 0x5 SLOAD DUP2 LT ISZERO PUSH2 0x827 JUMPI PUSH1 0x0 PUSH1 0x5 DUP3 DUP2 SLOAD DUP2 LT PUSH2 0x7AF JUMPI PUSH2 0x7AF PUSH2 0x1C51 JUMP JUMPDEST SWAP1 PUSH1 0x0 MSTORE PUSH1 0x20 PUSH1 0x0 KECCAK256 ADD SLOAD SWAP1 POP PUSH1 0x7 PUSH1 0x0 DUP3 DUP2 MSTORE PUSH1 0x20 ADD SWAP1 DUP2 MSTORE PUSH1 0x20 ADD PUSH1 0x0 KECCAK256 PUSH1 0x5 ADD SLOAD DUP10 SUB PUSH2 0x7DF JUMPI POP PUSH2 0x815 JUMP JUMPDEST PUSH1 0x0 DUP2 DUP2 MSTORE PUSH1 0x7 PUSH1 0x20 MSTORE PUSH1 0x40 SWAP1 KECCAK256 PUSH1 0x4 ADD SLOAD DUP4 LT ISZERO PUSH2 0x813 JUMPI PUSH1 0x0 DUP2 DUP2 MSTORE PUSH1 0x7 PUSH1 0x20 MSTORE PUSH1 0x40 SWAP1 KECCAK256 PUSH1 0x4 ADD SLOAD SWAP2 SWAP4 POP SWAP1 SWAP2 POP DUP3 SWAP1 JUMPDEST POP JUMPDEST DUP1 PUSH2 0x81F DUP2 PUSH2 0x1C7D JUMP JUMPDEST SWAP2 POP POP PUSH2 0x790 JUMP JUMPDEST POP DUP8 DUP2 GT DUP1 PUSH2 0x833 JUMPI POP DUP6 JUMPDEST ISZERO PUSH2 0xB43 JUMPI PUSH1 0x0 PUSH1 0x5 DUP4 DUP2 SLOAD DUP2 LT PUSH2 0x84D JUMPI PUSH2 0x84D PUSH2 0x1C51 JUMP JUMPDEST PUSH1 0x0 SWAP2 DUP3 MSTORE PUSH1 0x20 DUP1 DUP4 KECCAK256 SWAP1 SWAP2 ADD SLOAD DUP1 DUP4 MSTORE PUSH1 0x7 DUP3 MSTORE PUSH1 0x40 DUP1 DUP5 KECCAK256 DUP2 MLOAD PUSH1 0xC0 DUP2 ADD DUP4 MSTORE DUP2 SLOAD PUSH1 0x1 PUSH1 0x1 PUSH1 0xA0 SHL SUB SWAP1 DUP2 AND DUP3 MSTORE PUSH1 0x1 DUP1 DUP5 ADD SLOAD SWAP1 SWAP2 AND SWAP6 DUP3 ADD SWAP6 SWAP1 SWAP6 MSTORE PUSH1 0x2 DUP3 ADD SLOAD SWAP3 DUP2 ADD SWAP3 SWAP1 SWAP3 MSTORE PUSH1 0x3 DUP2 ADD SLOAD PUSH1 0x60 DUP4 ADD MSTORE PUSH1 0x4 DUP2 ADD SLOAD PUSH1 0x80 DUP4 ADD MSTORE PUSH1 0x5 ADD SLOAD PUSH1 0xA0 DUP3 ADD MSTORE SWAP1 SWAP4 POP SWAP2 SWAP1 PUSH2 0x8C6 SWAP1 DUP13 PUSH2 0x1D03 JUMP JUMPDEST DUP3 PUSH1 0x60 ADD MLOAD DUP4 PUSH1 0x40 ADD MLOAD PUSH2 0x8DA SWAP2 SWAP1 PUSH2 0x1D03 JUMP JUMPDEST PUSH2 0x8E4 SWAP2 SWAP1 PUSH2 0x1D38 JUMP JUMPDEST SWAP1 POP PUSH1 0x0 DUP1 PUSH1 0x0 DUP15 DUP5 GT PUSH2 0x9D2 JUMPI DUP4 SWAP3 POP PUSH2 0x900 PUSH1 0x1 DUP16 PUSH2 0x1D03 JUMP JUMPDEST PUSH2 0x90A SWAP1 DUP6 PUSH2 0x1D5A JUMP JUMPDEST SWAP2 POP DUP13 PUSH1 0x1 SUB PUSH2 0x971 JUMPI PUSH2 0x920 DUP11 DUP8 DUP6 DUP6 PUSH2 0x19D4 JUMP JUMPDEST PUSH1 0x40 DUP1 MLOAD DUP13 DUP2 MSTORE PUSH1 0x20 DUP2 ADD DUP10 SWAP1 MSTORE SWAP1 DUP2 ADD DUP6 SWAP1 MSTORE PUSH1 0x60 DUP2 ADD DUP5 SWAP1 MSTORE SWAP1 SWAP2 POP PUSH32 0x5DE48BB383B4A2AAAD84721B80D93429B813651B0EEFBD59D32018CFE28215DC SWAP1 PUSH1 0x80 ADD JUMPDEST PUSH1 0x40 MLOAD DUP1 SWAP2 SUB SWAP1 LOG1 PUSH2 0xA61 JUMP JUMPDEST DUP13 PUSH1 0x2 SUB PUSH2 0x9CD JUMPI PUSH2 0x985 DUP7 DUP12 DUP5 DUP7 PUSH2 0x19D4 JUMP JUMPDEST PUSH1 0x40 DUP1 MLOAD DUP9 DUP2 MSTORE PUSH1 0x20 DUP2 ADD DUP14 SWAP1 MSTORE SWAP1 DUP2 ADD DUP5 SWAP1 MSTORE PUSH1 0x60 DUP2 ADD DUP6 SWAP1 MSTORE SWAP1 SWAP2 POP PUSH32 0x5DE48BB383B4A2AAAD84721B80D93429B813651B0EEFBD59D32018CFE28215DC SWAP1 PUSH1 0x80 ADD PUSH2 0x964 JUMP JUMPDEST PUSH2 0xA61 JUMP JUMPDEST DUP15 SWAP3 POP PUSH2 0x9E0 PUSH1 0x1 DUP16 PUSH2 0x1D03 JUMP JUMPDEST DUP16 PUSH2 0x9EB SWAP2 SWAP1 PUSH2 0x1D5A JUMP JUMPDEST SWAP2 POP DUP13 PUSH1 0x1 SUB PUSH2 0xA01 JUMPI PUSH2 0x920 DUP11 DUP8 DUP6 DUP6 PUSH2 0x19D4 JUMP JUMPDEST DUP13 PUSH1 0x2 SUB PUSH2 0xA61 JUMPI PUSH2 0xA15 DUP7 DUP12 DUP5 DUP7 PUSH2 0x19D4 JUMP JUMPDEST PUSH1 0x40 DUP1 MLOAD DUP9 DUP2 MSTORE PUSH1 0x20 DUP2 ADD DUP14 SWAP1 MSTORE SWAP1 DUP2 ADD DUP5 SWAP1 MSTORE PUSH1 0x60 DUP2 ADD DUP6 SWAP1 MSTORE SWAP1 SWAP2 POP PUSH32 0x5DE48BB383B4A2AAAD84721B80D93429B813651B0EEFBD59D32018CFE28215DC SWAP1 PUSH1 0x80 ADD PUSH1 0x40 MLOAD DUP1 SWAP2 SUB SWAP1 LOG1 JUMPDEST PUSH1 0x0 DUP11 DUP2 MSTORE PUSH1 0xA PUSH1 0x20 SWAP1 DUP2 MSTORE PUSH1 0x40 DUP1 DUP4 KECCAK256 DUP1 SLOAD PUSH1 0x1 DUP2 DUP2 ADD DUP4 SSTORE SWAP2 DUP6 MSTORE DUP4 DUP6 KECCAK256 ADD DUP6 SWAP1 SSTORE DUP10 DUP5 MSTORE DUP2 DUP5 KECCAK256 DUP1 SLOAD SWAP2 DUP3 ADD DUP2 SSTORE DUP5 MSTORE DUP3 DUP5 KECCAK256 ADD DUP5 SWAP1 SSTORE DUP13 DUP4 MSTORE PUSH1 0x7 SWAP1 SWAP2 MSTORE DUP2 KECCAK256 PUSH1 0x3 ADD DUP1 SLOAD DUP6 SWAP3 SWAP1 PUSH2 0xAB8 SWAP1 DUP5 SWAP1 PUSH2 0x1D71 JUMP JUMPDEST SWAP1 SWAP2 SSTORE POP POP PUSH1 0x0 DUP7 DUP2 MSTORE PUSH1 0x7 PUSH1 0x20 MSTORE PUSH1 0x40 DUP2 KECCAK256 PUSH1 0x3 ADD DUP1 SLOAD DUP5 SWAP3 SWAP1 PUSH2 0xADE SWAP1 DUP5 SWAP1 PUSH2 0x1D71 JUMP JUMPDEST SWAP1 SWAP2 SSTORE POP POP PUSH1 0x0 DUP7 DUP2 MSTORE PUSH1 0x7 PUSH1 0x20 MSTORE PUSH1 0x40 SWAP1 KECCAK256 PUSH1 0x3 DUP2 ADD SLOAD PUSH1 0x2 SWAP1 SWAP2 ADD SLOAD PUSH2 0xB06 SWAP2 SWAP1 PUSH2 0x1D03 JUMP JUMPDEST PUSH1 0x0 SUB PUSH2 0xB2C JUMPI PUSH1 0x5 DUP9 DUP2 SLOAD DUP2 LT PUSH2 0xB20 JUMPI PUSH2 0xB20 PUSH2 0x1C51 JUMP JUMPDEST PUSH1 0x0 SWAP2 DUP3 MSTORE PUSH1 0x20 DUP3 KECCAK256 ADD SSTORE JUMPDEST PUSH2 0xB36 DUP4 DUP11 PUSH2 0x1D03 JUMP JUMPDEST SWAP9 POP POP POP POP POP POP POP PUSH2 0xB7F JUMP JUMPDEST POP POP PUSH1 0x5 DUP1 SLOAD PUSH1 0x1 DUP2 ADD DUP3 SSTORE PUSH1 0x0 SWAP2 SWAP1 SWAP2 MSTORE PUSH32 0x36B6384B5ECA791C62761152D0C79BB0604C104A5FB6F4EB0703F3154BB3DB0 ADD DUP3 SWAP1 SSTORE PUSH2 0xB86 JUMP JUMPDEST POP POP PUSH2 0x77B JUMP JUMPDEST POP PUSH2 0xBC2 JUMP JUMPDEST PUSH1 0x5 DUP1 SLOAD PUSH1 0x1 DUP2 ADD DUP3 SSTORE PUSH1 0x0 SWAP2 SWAP1 SWAP2 MSTORE PUSH32 0x36B6384B5ECA791C62761152D0C79BB0604C104A5FB6F4EB0703F3154BB3DB0 ADD DUP2 SWAP1 SSTORE JUMPDEST PUSH1 0x40 DUP1 MLOAD CALLER DUP2 MSTORE ADDRESS PUSH1 0x20 DUP3 ADD MSTORE SWAP1 DUP2 ADD DUP3 SWAP1 MSTORE PUSH1 0x60 DUP2 ADD DUP8 SWAP1 MSTORE PUSH1 0x80 DUP2 ADD DUP7 SWAP1 MSTORE PUSH1 0xA0 DUP2 ADD DUP6 SWAP1 MSTORE PUSH32 0x618F358BB45538682ADE624A4A1959053D9DABD20FE300508034B879681B37BE SWAP1 PUSH1 0xC0 ADD PUSH1 0x40 MLOAD DUP1 SWAP2 SUB SWAP1 LOG1 SWAP8 SWAP7 POP POP POP POP POP POP POP JUMP JUMPDEST PUSH1 0x2 PUSH1 0x0 SLOAD SUB PUSH2 0xC44 JUMPI PUSH1 0x40 MLOAD PUSH3 0x461BCD PUSH1 0xE5 SHL DUP2 MSTORE PUSH1 0x4 ADD PUSH2 0x2E1 SWAP1 PUSH2 0x1C96 JUMP JUMPDEST PUSH1 0x2 PUSH1 0x0 DUP2 DUP2 SSTORE DUP3 DUP2 MSTORE PUSH1 0x7 PUSH1 0x20 SWAP1 DUP2 MSTORE PUSH1 0x40 SWAP2 DUP3 SWAP1 KECCAK256 DUP3 MLOAD PUSH1 0xC0 DUP2 ADD DUP5 MSTORE DUP2 SLOAD PUSH1 0x1 PUSH1 0x1 PUSH1 0xA0 SHL SUB SWAP1 DUP2 AND DUP1 DUP4 MSTORE PUSH1 0x1 DUP5 ADD SLOAD SWAP1 SWAP2 AND SWAP4 DUP3 ADD SWAP4 SWAP1 SWAP4 MSTORE SWAP4 DUP2 ADD SLOAD SWAP3 DUP5 ADD SWAP3 SWAP1 SWAP3 MSTORE PUSH1 0x3 DUP3 ADD SLOAD PUSH1 0x60 DUP5 ADD MSTORE PUSH1 0x4 DUP3 ADD SLOAD PUSH1 0x80 DUP5 ADD MSTORE PUSH1 0x5 SWAP1 SWAP2 ADD SLOAD PUSH1 0xA0 DUP4 ADD MSTORE CALLER EQ PUSH2 0xCDF JUMPI PUSH1 0x40 MLOAD PUSH3 0x461BCD PUSH1 0xE5 SHL DUP2 MSTORE PUSH1 0x20 PUSH1 0x4 DUP3 ADD MSTORE PUSH1 0x2 PUSH1 0x24 DUP3 ADD MSTORE PUSH2 0x134D PUSH1 0xF2 SHL PUSH1 0x44 DUP3 ADD MSTORE PUSH1 0x64 ADD PUSH2 0x2E1 JUMP JUMPDEST PUSH1 0x0 DUP2 PUSH1 0x60 ADD MLOAD DUP3 PUSH1 0x40 ADD MLOAD PUSH2 0xCF5 SWAP2 SWAP1 PUSH2 0x1D03 JUMP JUMPDEST DUP3 MLOAD PUSH1 0x1 PUSH1 0x1 PUSH1 0xA0 SHL SUB AND PUSH1 0x0 SWAP1 DUP2 MSTORE PUSH1 0x6 PUSH1 0x20 SWAP1 DUP2 MSTORE PUSH1 0x40 DUP1 DUP4 KECCAK256 DUP5 SWAP1 SSTORE DUP1 DUP7 ADD MLOAD DUP8 DUP5 MSTORE PUSH1 0x7 SWAP1 SWAP3 MSTORE DUP3 KECCAK256 PUSH1 0x3 ADD SSTORE SWAP1 SWAP2 POP JUMPDEST PUSH1 0x5 SLOAD DUP2 LT ISZERO PUSH2 0xD89 JUMPI DUP4 PUSH1 0x5 DUP3 DUP2 SLOAD DUP2 LT PUSH2 0xD48 JUMPI PUSH2 0xD48 PUSH2 0x1C51 JUMP JUMPDEST SWAP1 PUSH1 0x0 MSTORE PUSH1 0x20 PUSH1 0x0 KECCAK256 ADD SLOAD SUB PUSH2 0xD77 JUMPI PUSH1 0x5 DUP2 DUP2 SLOAD DUP2 LT PUSH2 0xD6B JUMPI PUSH2 0xD6B PUSH2 0x1C51 JUMP JUMPDEST PUSH1 0x0 SWAP2 DUP3 MSTORE PUSH1 0x20 DUP3 KECCAK256 ADD SSTORE JUMPDEST DUP1 PUSH2 0xD81 DUP2 PUSH2 0x1C7D JUMP JUMPDEST SWAP2 POP POP PUSH2 0xD2A JUMP JUMPDEST POP POP PUSH1 0x1 PUSH1 0x0 SSTORE POP POP JUMP JUMPDEST PUSH1 0x1 SLOAD PUSH1 0x0 SWAP1 PUSH1 0x1 PUSH1 0x1 PUSH1 0xA0 SHL SUB AND CALLER EQ PUSH2 0xDC1 JUMPI PUSH1 0x40 MLOAD PUSH3 0x461BCD PUSH1 0xE5 SHL DUP2 MSTORE PUSH1 0x4 ADD PUSH2 0x2E1 SWAP1 PUSH2 0x1D1C JUMP JUMPDEST PUSH1 0x2 SLOAD ISZERO DUP1 PUSH2 0xDD2 JUMPI POP PUSH1 0x2 SLOAD PUSH1 0x4 EQ JUMPDEST DUP1 ISZERO PUSH2 0xDE8 JUMPI POP DUP2 PUSH1 0x1 EQ DUP1 PUSH2 0xDE8 JUMPI POP DUP2 PUSH1 0x2 EQ JUMPDEST PUSH2 0xE19 JUMPI PUSH1 0x40 MLOAD PUSH3 0x461BCD PUSH1 0xE5 SHL DUP2 MSTORE PUSH1 0x20 PUSH1 0x4 DUP3 ADD MSTORE PUSH1 0x2 PUSH1 0x24 DUP3 ADD MSTORE PUSH2 0x4D35 PUSH1 0xF0 SHL PUSH1 0x44 DUP3 ADD MSTORE PUSH1 0x64 ADD PUSH2 0x2E1 JUMP JUMPDEST PUSH1 0x2 DUP3 SWAP1 SSTORE PUSH1 0x0 JUMPDEST PUSH1 0x3 SLOAD DUP2 LT ISZERO PUSH2 0xE63 JUMPI PUSH2 0xE51 PUSH1 0x3 DUP3 DUP2 SLOAD DUP2 LT PUSH2 0xE41 JUMPI PUSH2 0xE41 PUSH2 0x1C51 JUMP JUMPDEST SWAP1 PUSH1 0x0 MSTORE PUSH1 0x20 PUSH1 0x0 KECCAK256 ADD SLOAD PUSH2 0xED2 JUMP JUMPDEST DUP1 PUSH2 0xE5B DUP2 PUSH2 0x1C7D JUMP JUMPDEST SWAP2 POP POP PUSH2 0xE21 JUMP JUMPDEST POP PUSH1 0x1 SWAP3 SWAP2 POP POP JUMP JUMPDEST PUSH1 0x1 SLOAD PUSH1 0x1 PUSH1 0x1 PUSH1 0xA0 SHL SUB AND CALLER EQ PUSH2 0xE96 JUMPI PUSH1 0x40 MLOAD PUSH3 0x461BCD PUSH1 0xE5 SHL DUP2 MSTORE PUSH1 0x4 ADD PUSH2 0x2E1 SWAP1 PUSH2 0x1D1C JUMP JUMPDEST PUSH1 0x2 SLOAD ISZERO PUSH2 0xECB JUMPI PUSH1 0x40 MLOAD PUSH3 0x461BCD PUSH1 0xE5 SHL DUP2 MSTORE PUSH1 0x20 PUSH1 0x4 DUP3 ADD MSTORE PUSH1 0x2 PUSH1 0x24 DUP3 ADD MSTORE PUSH2 0x4D37 PUSH1 0xF0 SHL PUSH1 0x44 DUP3 ADD MSTORE PUSH1 0x64 ADD PUSH2 0x2E1 JUMP JUMPDEST PUSH1 0x4 PUSH1 0x2 SSTORE JUMP JUMPDEST PUSH1 0x2 PUSH1 0x0 SLOAD SUB PUSH2 0xEF4 JUMPI PUSH1 0x40 MLOAD PUSH3 0x461BCD PUSH1 0xE5 SHL DUP2 MSTORE PUSH1 0x4 ADD PUSH2 0x2E1 SWAP1 PUSH2 0x1C96 JUMP JUMPDEST PUSH1 0x2 PUSH1 0x0 SWAP1 DUP2 SSTORE DUP2 DUP2 MSTORE PUSH1 0x9 PUSH1 0x20 MSTORE PUSH1 0x40 SWAP1 KECCAK256 PUSH1 0x4 ADD SLOAD PUSH1 0xFF AND ISZERO PUSH2 0xF41 JUMPI PUSH1 0x40 MLOAD PUSH3 0x461BCD PUSH1 0xE5 SHL DUP2 MSTORE PUSH1 0x20 PUSH1 0x4 DUP3 ADD MSTORE PUSH1 0x3 PUSH1 0x24 DUP3 ADD MSTORE PUSH3 0x4D313 PUSH1 0xEC SHL PUSH1 0x44 DUP3 ADD MSTORE PUSH1 0x64 ADD PUSH2 0x2E1 JUMP JUMPDEST PUSH1 0x0 DUP1 PUSH1 0x0 DUP1 PUSH1 0x2 SLOAD PUSH1 0x1 SUB PUSH2 0x1125 JUMPI PUSH1 0x0 DUP6 DUP2 MSTORE PUSH1 0x9 PUSH1 0x20 SWAP1 DUP2 MSTORE PUSH1 0x40 DUP1 DUP4 KECCAK256 SLOAD DUP4 MSTORE PUSH1 0x7 DUP3 MSTORE SWAP2 DUP3 SWAP1 KECCAK256 SLOAD DUP3 MLOAD PUSH4 0x55C4A8BF PUSH1 0xE0 SHL DUP2 MSTORE SWAP3 MLOAD PUSH1 0x1 PUSH1 0x1 PUSH1 0xA0 SHL SUB SWAP2 DUP3 AND SWAP8 POP PUSH1 0x64 SWAP4 PUSH32 0x0 SWAP1 SWAP3 AND SWAP3 PUSH4 0x55C4A8BF SWAP3 PUSH1 0x4 DUP1 DUP3 ADD SWAP4 SWAP2 DUP3 SWAP1 SUB ADD DUP2 DUP7 GAS STATICCALL ISZERO DUP1 ISZERO PUSH2 0xFD7 JUMPI RETURNDATASIZE PUSH1 0x0 DUP1 RETURNDATACOPY RETURNDATASIZE PUSH1 0x0 REVERT JUMPDEST POP POP POP POP PUSH1 0x40 MLOAD RETURNDATASIZE PUSH1 0x1F NOT PUSH1 0x1F DUP3 ADD AND DUP3 ADD DUP1 PUSH1 0x40 MSTORE POP DUP2 ADD SWAP1 PUSH2 0xFFB SWAP2 SWAP1 PUSH2 0x1CCD JUMP JUMPDEST PUSH2 0x1006 SWAP1 PUSH1 0x64 PUSH2 0x1D03 JUMP JUMPDEST PUSH1 0x0 DUP8 DUP2 MSTORE PUSH1 0x9 PUSH1 0x20 MSTORE PUSH1 0x40 SWAP1 KECCAK256 PUSH1 0x3 ADD SLOAD PUSH2 0x1022 SWAP2 SWAP1 PUSH2 0x1D5A JUMP JUMPDEST PUSH2 0x102C SWAP2 SWAP1 PUSH2 0x1D38 JUMP JUMPDEST PUSH1 0x0 DUP7 DUP2 MSTORE PUSH1 0x9 PUSH1 0x20 MSTORE PUSH1 0x40 SWAP1 KECCAK256 PUSH1 0x2 ADD SLOAD PUSH2 0x1048 SWAP2 SWAP1 PUSH2 0x1D71 JUMP JUMPDEST SWAP2 POP PUSH1 0x64 PUSH32 0x0 PUSH1 0x1 PUSH1 0x1 PUSH1 0xA0 SHL SUB AND PUSH4 0x55C4A8BF PUSH1 0x40 MLOAD DUP2 PUSH4 0xFFFFFFFF AND PUSH1 0xE0 SHL DUP2 MSTORE PUSH1 0x4 ADD PUSH1 0x20 PUSH1 0x40 MLOAD DUP1 DUP4 SUB DUP2 DUP7 GAS STATICCALL ISZERO DUP1 ISZERO PUSH2 0x10AA JUMPI RETURNDATASIZE PUSH1 0x0 DUP1 RETURNDATACOPY RETURNDATASIZE PUSH1 0x0 REVERT JUMPDEST POP POP POP POP PUSH1 0x40 MLOAD RETURNDATASIZE PUSH1 0x1F NOT PUSH1 0x1F DUP3 ADD AND DUP3 ADD DUP1 PUSH1 0x40 MSTORE POP DUP2 ADD SWAP1 PUSH2 0x10CE SWAP2 SWAP1 PUSH2 0x1CCD JUMP JUMPDEST PUSH1 0x0 DUP8 DUP2 MSTORE PUSH1 0x9 PUSH1 0x20 MSTORE PUSH1 0x40 SWAP1 KECCAK256 PUSH1 0x3 ADD SLOAD PUSH2 0x10EA SWAP2 SWAP1 PUSH2 0x1D5A JUMP JUMPDEST PUSH2 0x10F4 SWAP2 SWAP1 PUSH2 0x1D38 JUMP JUMPDEST PUSH1 0x0 DUP7 DUP2 MSTORE PUSH1 0x9 PUSH1 0x20 SWAP1 DUP2 MSTORE PUSH1 0x40 DUP1 DUP4 KECCAK256 SLOAD DUP4 MSTORE PUSH1 0x7 SWAP1 SWAP2 MSTORE SWAP1 KECCAK256 PUSH1 0x1 ADD SLOAD PUSH1 0x1 PUSH1 0x1 PUSH1 0xA0 SHL SUB AND SWAP4 POP SWAP1 POP PUSH2 0x1338 JUMP JUMPDEST PUSH1 0x2 SLOAD PUSH1 0x2 SUB PUSH2 0x130A JUMPI PUSH1 0x0 DUP6 DUP2 MSTORE PUSH1 0x9 PUSH1 0x20 SWAP1 DUP2 MSTORE PUSH1 0x40 DUP1 DUP4 KECCAK256 PUSH1 0x1 ADD SLOAD DUP4 MSTORE PUSH1 0x7 DUP3 MSTORE SWAP2 DUP3 SWAP1 KECCAK256 SLOAD DUP3 MLOAD PUSH4 0x55C4A8BF PUSH1 0xE0 SHL DUP2 MSTORE SWAP3 MLOAD PUSH1 0x1 PUSH1 0x1 PUSH1 0xA0 SHL SUB SWAP2 DUP3 AND SWAP8 POP PUSH1 0x64 SWAP4 PUSH32 0x0 SWAP1 SWAP3 AND SWAP3 PUSH4 0x55C4A8BF SWAP3 PUSH1 0x4 DUP1 DUP3 ADD SWAP4 SWAP2 DUP3 SWAP1 SUB ADD DUP2 DUP7 GAS STATICCALL ISZERO DUP1 ISZERO PUSH2 0x11B8 JUMPI RETURNDATASIZE PUSH1 0x0 DUP1 RETURNDATACOPY RETURNDATASIZE PUSH1 0x0 REVERT JUMPDEST POP POP POP POP PUSH1 0x40 MLOAD RETURNDATASIZE PUSH1 0x1F NOT PUSH1 0x1F DUP3 ADD AND DUP3 ADD DUP1 PUSH1 0x40 MSTORE POP DUP2 ADD SWAP1 PUSH2 0x11DC SWAP2 SWAP1 PUSH2 0x1CCD JUMP JUMPDEST PUSH2 0x11E7 SWAP1 PUSH1 0x64 PUSH2 0x1D03 JUMP JUMPDEST PUSH1 0x0 DUP8 DUP2 MSTORE PUSH1 0x9 PUSH1 0x20 MSTORE PUSH1 0x40 SWAP1 KECCAK256 PUSH1 0x2 ADD SLOAD PUSH2 0x1203 SWAP2 SWAP1 PUSH2 0x1D5A JUMP JUMPDEST PUSH2 0x120D SWAP2 SWAP1 PUSH2 0x1D38 JUMP JUMPDEST PUSH1 0x0 DUP7 DUP2 MSTORE PUSH1 0x9 PUSH1 0x20 MSTORE PUSH1 0x40 SWAP1 KECCAK256 PUSH1 0x3 ADD SLOAD PUSH2 0x1229 SWAP2 SWAP1 PUSH2 0x1D71 JUMP JUMPDEST SWAP2 POP PUSH1 0x64 PUSH32 0x0 PUSH1 0x1 PUSH1 0x1 PUSH1 0xA0 SHL SUB AND PUSH4 0x55C4A8BF PUSH1 0x40 MLOAD DUP2 PUSH4 0xFFFFFFFF AND PUSH1 0xE0 SHL DUP2 MSTORE PUSH1 0x4 ADD PUSH1 0x20 PUSH1 0x40 MLOAD DUP1 DUP4 SUB DUP2 DUP7 GAS STATICCALL ISZERO DUP1 ISZERO PUSH2 0x128B JUMPI RETURNDATASIZE PUSH1 0x0 DUP1 RETURNDATACOPY RETURNDATASIZE PUSH1 0x0 REVERT JUMPDEST POP POP POP POP PUSH1 0x40 MLOAD RETURNDATASIZE PUSH1 0x1F NOT PUSH1 0x1F DUP3 ADD AND DUP3 ADD DUP1 PUSH1 0x40 MSTORE POP DUP2 ADD SWAP1 PUSH2 0x12AF SWAP2 SWAP1 PUSH2 0x1CCD JUMP JUMPDEST PUSH1 0x0 DUP8 DUP2 MSTORE PUSH1 0x9 PUSH1 0x20 MSTORE PUSH1 0x40 SWAP1 KECCAK256 PUSH1 0x2 ADD SLOAD PUSH2 0x12CB SWAP2 SWAP1 PUSH2 0x1D5A JUMP JUMPDEST PUSH2 0x12D5 SWAP2 SWAP1 PUSH2 0x1D38 JUMP JUMPDEST PUSH1 0x0 DUP7 DUP2 MSTORE PUSH1 0x9 PUSH1 0x20 SWAP1 DUP2 MSTORE PUSH1 0x40 DUP1 DUP4 KECCAK256 PUSH1 0x1 SWAP1 DUP2 ADD SLOAD DUP5 MSTORE PUSH1 0x7 SWAP1 SWAP3 MSTORE SWAP1 SWAP2 KECCAK256 ADD SLOAD PUSH1 0x1 PUSH1 0x1 PUSH1 0xA0 SHL SUB AND SWAP4 POP SWAP1 POP PUSH2 0x1338 JUMP JUMPDEST PUSH1 0x40 MLOAD PUSH3 0x461BCD PUSH1 0xE5 SHL DUP2 MSTORE PUSH1 0x20 PUSH1 0x4 DUP3 ADD MSTORE PUSH1 0x3 PUSH1 0x24 DUP3 ADD MSTORE PUSH3 0x4D3131 PUSH1 0xE8 SHL PUSH1 0x44 DUP3 ADD MSTORE PUSH1 0x64 ADD PUSH2 0x2E1 JUMP JUMPDEST PUSH1 0x1 PUSH1 0x1 PUSH1 0xA0 SHL SUB DUP4 AND PUSH2 0x13CB JUMPI PUSH32 0x0 PUSH1 0x1 PUSH1 0x1 PUSH1 0xA0 SHL SUB AND PUSH4 0x9953B2F PUSH1 0x40 MLOAD DUP2 PUSH4 0xFFFFFFFF AND PUSH1 0xE0 SHL DUP2 MSTORE PUSH1 0x4 ADD PUSH1 0x20 PUSH1 0x40 MLOAD DUP1 DUP4 SUB DUP2 DUP7 GAS STATICCALL ISZERO DUP1 ISZERO PUSH2 0x13A4 JUMPI RETURNDATASIZE PUSH1 0x0 DUP1 RETURNDATACOPY RETURNDATASIZE PUSH1 0x0 REVERT JUMPDEST POP POP POP POP PUSH1 0x40 MLOAD RETURNDATASIZE PUSH1 0x1F NOT PUSH1 0x1F DUP3 ADD AND DUP3 ADD DUP1 PUSH1 0x40 MSTORE POP DUP2 ADD SWAP1 PUSH2 0x13C8 SWAP2 SWAP1 PUSH2 0x1D84 JUMP JUMPDEST SWAP3 POP JUMPDEST PUSH1 0x1 PUSH1 0x1 PUSH1 0xA0 SHL SUB DUP5 AND PUSH1 0x0 SWAP1 DUP2 MSTORE PUSH1 0x6 PUSH1 0x20 MSTORE PUSH1 0x40 DUP2 KECCAK256 DUP1 SLOAD DUP5 SWAP3 SWAP1 PUSH2 0x13F3 SWAP1 DUP5 SWAP1 PUSH2 0x1D71 JUMP JUMPDEST SWAP3 POP POP DUP2 SWAP1 SSTORE POP PUSH1 0x64 PUSH32 0x0 PUSH1 0x1 PUSH1 0x1 PUSH1 0xA0 SHL SUB AND PUSH4 0x6A0CCD9D PUSH1 0x40 MLOAD DUP2 PUSH4 0xFFFFFFFF AND PUSH1 0xE0 SHL DUP2 MSTORE PUSH1 0x4 ADD PUSH1 0x20 PUSH1 0x40 MLOAD DUP1 DUP4 SUB DUP2 DUP7 GAS STATICCALL ISZERO DUP1 ISZERO PUSH2 0x145A JUMPI RETURNDATASIZE PUSH1 0x0 DUP1 RETURNDATACOPY RETURNDATASIZE PUSH1 0x0 REVERT JUMPDEST POP POP POP POP PUSH1 0x40 MLOAD RETURNDATASIZE PUSH1 0x1F NOT PUSH1 0x1F DUP3 ADD AND DUP3 ADD DUP1 PUSH1 0x40 MSTORE POP DUP2 ADD SWAP1 PUSH2 0x147E SWAP2 SWAP1 PUSH2 0x1CCD JUMP JUMPDEST PUSH2 0x1488 SWAP1 DUP4 PUSH2 0x1D5A JUMP JUMPDEST PUSH2 0x1492 SWAP2 SWAP1 PUSH2 0x1D38 JUMP JUMPDEST PUSH1 0x6 PUSH1 0x0 PUSH32 0x0 PUSH1 0x1 PUSH1 0x1 PUSH1 0xA0 SHL SUB AND PUSH4 0xB7640A54 PUSH1 0x40 MLOAD DUP2 PUSH4 0xFFFFFFFF AND PUSH1 0xE0 SHL DUP2 MSTORE PUSH1 0x4 ADD PUSH1 0x20 PUSH1 0x40 MLOAD DUP1 DUP4 SUB DUP2 DUP7 GAS STATICCALL ISZERO DUP1 ISZERO PUSH2 0x14F4 JUMPI RETURNDATASIZE PUSH1 0x0 DUP1 RETURNDATACOPY RETURNDATASIZE PUSH1 0x0 REVERT JUMPDEST POP POP POP POP PUSH1 0x40 MLOAD RETURNDATASIZE PUSH1 0x1F NOT PUSH1 0x1F DUP3 ADD AND DUP3 ADD DUP1 PUSH1 0x40 MSTORE POP DUP2 ADD SWAP1 PUSH2 0x1518 SWAP2 SWAP1 PUSH2 0x1D84 JUMP JUMPDEST PUSH1 0x1 PUSH1 0x1 PUSH1 0xA0 SHL SUB AND PUSH1 0x1 PUSH1 0x1 PUSH1 0xA0 SHL SUB AND DUP2 MSTORE PUSH1 0x20 ADD SWAP1 DUP2 MSTORE PUSH1 0x20 ADD PUSH1 0x0 KECCAK256 PUSH1 0x0 DUP3 DUP3 SLOAD PUSH2 0x1547 SWAP2 SWAP1 PUSH2 0x1D71 JUMP JUMPDEST SWAP3 POP POP DUP2 SWAP1 SSTORE POP PUSH1 0x64 PUSH32 0x0 PUSH1 0x1 PUSH1 0x1 PUSH1 0xA0 SHL SUB AND PUSH4 0x28576D45 PUSH1 0x40 MLOAD DUP2 PUSH4 0xFFFFFFFF AND PUSH1 0xE0 SHL DUP2 MSTORE PUSH1 0x4 ADD PUSH1 0x20 PUSH1 0x40 MLOAD DUP1 DUP4 SUB DUP2 DUP7 GAS STATICCALL ISZERO DUP1 ISZERO PUSH2 0x15AE JUMPI RETURNDATASIZE PUSH1 0x0 DUP1 RETURNDATACOPY RETURNDATASIZE PUSH1 0x0 REVERT JUMPDEST POP POP POP POP PUSH1 0x40 MLOAD RETURNDATASIZE PUSH1 0x1F NOT PUSH1 0x1F DUP3 ADD AND DUP3 ADD DUP1 PUSH1 0x40 MSTORE POP DUP2 ADD SWAP1 PUSH2 0x15D2 SWAP2 SWAP1 PUSH2 0x1CCD JUMP JUMPDEST PUSH2 0x15DC SWAP1 DUP4 PUSH2 0x1D5A JUMP JUMPDEST PUSH2 0x15E6 SWAP2 SWAP1 PUSH2 0x1D38 JUMP JUMPDEST PUSH1 0x6 PUSH1 0x0 PUSH32 0x0 PUSH1 0x1 PUSH1 0x1 PUSH1 0xA0 SHL SUB AND PUSH4 0x9953B2F PUSH1 0x40 MLOAD DUP2 PUSH4 0xFFFFFFFF AND PUSH1 0xE0 SHL DUP2 MSTORE PUSH1 0x4 ADD PUSH1 0x20 PUSH1 0x40 MLOAD DUP1 DUP4 SUB DUP2 DUP7 GAS STATICCALL ISZERO DUP1 ISZERO PUSH2 0x1648 JUMPI RETURNDATASIZE PUSH1 0x0 DUP1 RETURNDATACOPY RETURNDATASIZE PUSH1 0x0 REVERT JUMPDEST POP POP POP POP PUSH1 0x40 MLOAD RETURNDATASIZE PUSH1 0x1F NOT PUSH1 0x1F DUP3 ADD AND DUP3 ADD DUP1 PUSH1 0x40 MSTORE POP DUP2 ADD SWAP1 PUSH2 0x166C SWAP2 SWAP1 PUSH2 0x1D84 JUMP JUMPDEST PUSH1 0x1 PUSH1 0x1 PUSH1 0xA0 SHL SUB AND PUSH1 0x1 PUSH1 0x1 PUSH1 0xA0 SHL SUB AND DUP2 MSTORE PUSH1 0x20 ADD SWAP1 DUP2 MSTORE PUSH1 0x20 ADD PUSH1 0x0 KECCAK256 PUSH1 0x0 DUP3 DUP3 SLOAD PUSH2 0x169B SWAP2 SWAP1 PUSH2 0x1D71 JUMP JUMPDEST SWAP3 POP POP DUP2 SWAP1 SSTORE POP PUSH1 0x64 PUSH32 0x0 PUSH1 0x1 PUSH1 0x1 PUSH1 0xA0 SHL SUB AND PUSH4 0x54CD1A5C PUSH1 0x40 MLOAD DUP2 PUSH4 0xFFFFFFFF AND PUSH1 0xE0 SHL DUP2 MSTORE PUSH1 0x4 ADD PUSH1 0x20 PUSH1 0x40 MLOAD DUP1 DUP4 SUB DUP2 DUP7 GAS STATICCALL ISZERO DUP1 ISZERO PUSH2 0x1702 JUMPI RETURNDATASIZE PUSH1 0x0 DUP1 RETURNDATACOPY RETURNDATASIZE PUSH1 0x0 REVERT JUMPDEST POP POP POP POP PUSH1 0x40 MLOAD RETURNDATASIZE PUSH1 0x1F NOT PUSH1 0x1F DUP3 ADD AND DUP3 ADD DUP1 PUSH1 0x40 MSTORE POP DUP2 ADD SWAP1 PUSH2 0x1726 SWAP2 SWAP1 PUSH2 0x1CCD JUMP JUMPDEST PUSH2 0x1730 SWAP1 DUP4 PUSH2 0x1D5A JUMP JUMPDEST PUSH2 0x173A SWAP2 SWAP1 PUSH2 0x1D38 JUMP JUMPDEST PUSH1 0x1 PUSH1 0x1 PUSH1 0xA0 SHL SUB DUP5 AND PUSH1 0x0 SWAP1 DUP2 MSTORE PUSH1 0x6 PUSH1 0x20 MSTORE PUSH1 0x40 DUP2 KECCAK256 DUP1 SLOAD SWAP1 SWAP2 SWAP1 PUSH2 0x1762 SWAP1 DUP5 SWAP1 PUSH2 0x1D71 JUMP JUMPDEST SWAP1 SWAP2 SSTORE POP POP POP PUSH1 0x0 DUP5 DUP2 MSTORE PUSH1 0x9 PUSH1 0x20 MSTORE PUSH1 0x40 SWAP1 KECCAK256 PUSH1 0x4 ADD DUP1 SLOAD PUSH1 0xFF NOT AND PUSH1 0x1 OR SWAP1 SSTORE POP POP POP POP PUSH1 0x1 PUSH1 0x0 SSTORE JUMP JUMPDEST PUSH1 0x0 DUP2 DUP2 MSTORE PUSH1 0x9 PUSH1 0x20 SWAP1 DUP2 MSTORE PUSH1 0x40 DUP1 DUP4 KECCAK256 DUP1 SLOAD DUP5 MSTORE PUSH1 0x7 DUP4 MSTORE DUP2 DUP5 KECCAK256 SLOAD PUSH1 0x1 DUP3 ADD SLOAD DUP6 MSTORE DUP3 DUP6 KECCAK256 SLOAD PUSH1 0x2 SWAP1 SWAP3 ADD SLOAD PUSH1 0x1 PUSH1 0x1 PUSH1 0xA0 SHL SUB SWAP2 DUP3 AND DUP1 DUP8 MSTORE PUSH1 0x6 SWAP1 SWAP6 MSTORE SWAP3 DUP6 KECCAK256 DUP1 SLOAD SWAP5 SWAP6 SWAP2 SWAP1 SWAP3 AND SWAP4 PUSH2 0x17E7 SWAP1 DUP5 SWAP1 PUSH2 0x1D71 JUMP JUMPDEST SWAP1 SWAP2 SSTORE POP POP PUSH1 0x0 DUP4 DUP2 MSTORE PUSH1 0x9 PUSH1 0x20 SWAP1 DUP2 MSTORE PUSH1 0x40 DUP1 DUP4 KECCAK256 PUSH1 0x3 ADD SLOAD PUSH1 0x1 PUSH1 0x1 PUSH1 0xA0 SHL SUB DUP6 AND DUP5 MSTORE PUSH1 0x6 SWAP1 SWAP3 MSTORE DUP3 KECCAK256 DUP1 SLOAD SWAP2 SWAP3 SWAP1 SWAP2 PUSH2 0x1825 SWAP1 DUP5 SWAP1 PUSH2 0x1D71 JUMP JUMPDEST SWAP1 SWAP2 SSTORE POP POP POP PUSH1 0x0 SWAP2 DUP3 MSTORE POP PUSH1 0x9 PUSH1 0x20 MSTORE PUSH1 0x40 SWAP1 KECCAK256 PUSH1 0x4 ADD DUP1 SLOAD PUSH1 0xFF NOT AND PUSH1 0x1 OR SWAP1 SSTORE JUMP JUMPDEST PUSH1 0x0 DUP1 PUSH1 0x0 JUMPDEST PUSH1 0x4 SLOAD DUP10 SWAP1 ADDRESS SWAP1 DUP4 SWAP1 PUSH2 0x1864 SWAP1 PUSH1 0x1 PUSH2 0x1D71 JUMP JUMPDEST PUSH2 0x186E SWAP2 SWAP1 PUSH2 0x1D71 JUMP JUMPDEST PUSH1 0x40 MLOAD PUSH12 0xFFFFFFFFFFFFFFFFFFFFFFFF NOT PUSH1 0x60 SWAP5 DUP6 SHL DUP2 AND PUSH1 0x20 DUP4 ADD MSTORE SWAP3 SWAP1 SWAP4 SHL SWAP1 SWAP2 AND PUSH1 0x34 DUP4 ADD MSTORE PUSH1 0x48 DUP3 ADD MSTORE TIMESTAMP PUSH1 0x68 DUP3 ADD MSTORE DIFFICULTY PUSH1 0x88 DUP3 ADD MSTORE PUSH1 0xA8 ADD PUSH1 0x40 DUP1 MLOAD PUSH1 0x1F NOT DUP2 DUP5 SUB ADD DUP2 MSTORE SWAP2 DUP2 MSTORE DUP2 MLOAD PUSH1 0x20 SWAP3 DUP4 ADD KECCAK256 PUSH1 0x0 DUP2 DUP2 MSTORE PUSH1 0x7 SWAP1 SWAP4 MSTORE SWAP2 KECCAK256 PUSH1 0x2 ADD SLOAD SWAP1 SWAP3 POP ISZERO PUSH2 0x18ED JUMPI DUP1 PUSH2 0x18E5 DUP2 PUSH2 0x1C7D JUMP JUMPDEST SWAP2 POP POP PUSH2 0x1850 JUMP JUMPDEST POP PUSH1 0x40 DUP1 MLOAD PUSH1 0xC0 DUP2 ADD DUP3 MSTORE PUSH1 0x1 PUSH1 0x1 PUSH1 0xA0 SHL SUB SWAP10 DUP11 AND DUP1 DUP3 MSTORE SWAP9 DUP11 AND PUSH1 0x20 DUP1 DUP4 ADD SWAP2 DUP3 MSTORE DUP3 DUP5 ADD SWAP10 DUP11 MSTORE PUSH1 0x60 DUP4 ADD SWAP9 DUP10 MSTORE PUSH1 0x80 DUP4 ADD SWAP8 DUP9 MSTORE PUSH1 0xA0 DUP4 ADD SWAP7 DUP8 MSTORE PUSH1 0x0 DUP6 DUP2 MSTORE PUSH1 0x7 DUP3 MSTORE DUP5 DUP2 KECCAK256 SWAP4 MLOAD DUP5 SLOAD SWAP1 DUP15 AND PUSH1 0x1 PUSH1 0x1 PUSH1 0xA0 SHL SUB NOT SWAP2 DUP3 AND OR DUP6 SSTORE SWAP3 MLOAD PUSH1 0x1 DUP1 DUP7 ADD DUP1 SLOAD SWAP3 SWAP1 SWAP16 AND SWAP2 SWAP1 SWAP5 AND OR SWAP1 SWAP13 SSTORE SWAP9 MLOAD PUSH1 0x2 DUP4 ADD SSTORE SWAP7 MLOAD PUSH1 0x3 DUP3 ADD SSTORE SWAP5 MLOAD PUSH1 0x4 DUP1 DUP8 ADD SWAP2 SWAP1 SWAP2 SSTORE SWAP4 MLOAD PUSH1 0x5 SWAP1 SWAP6 ADD SWAP5 SWAP1 SWAP5 SSTORE DUP3 SLOAD DUP1 DUP7 ADD SWAP1 SWAP4 SSTORE PUSH32 0x8A35ACFBC15FF81A39AE7D344FD709F28E8600B4AA8C65C6B64BFE7FE36BD19B SWAP1 SWAP3 ADD DUP3 SWAP1 SSTORE POP SWAP4 DUP6 MSTORE PUSH1 0x8 DUP4 MSTORE DUP5 KECCAK256 DUP1 SLOAD SWAP2 DUP3 ADD DUP2 SSTORE DUP5 MSTORE SWAP3 KECCAK256 SWAP1 SWAP2 ADD DUP2 SWAP1 SSTORE SWAP1 JUMP JUMPDEST PUSH1 0x0 DUP1 PUSH1 0x0 JUMPDEST PUSH1 0x3 SLOAD DUP8 SWAP1 DUP8 SWAP1 DUP4 SWAP1 PUSH2 0x19EE SWAP1 PUSH1 0x1 PUSH2 0x1D71 JUMP JUMPDEST PUSH2 0x19F8 SWAP2 SWAP1 PUSH2 0x1D71 JUMP JUMPDEST PUSH1 0x40 DUP1 MLOAD PUSH1 0x20 DUP2 ADD SWAP5 SWAP1 SWAP5 MSTORE DUP4 ADD SWAP2 SWAP1 SWAP2 MSTORE PUSH1 0x60 DUP3 ADD MSTORE TIMESTAMP PUSH1 0x80 DUP3 ADD MSTORE DIFFICULTY PUSH1 0xA0 DUP3 ADD MSTORE PUSH1 0xC0 ADD PUSH1 0x40 DUP1 MLOAD PUSH1 0x1F NOT DUP2 DUP5 SUB ADD DUP2 MSTORE SWAP2 DUP2 MSTORE DUP2 MLOAD PUSH1 0x20 SWAP3 DUP4 ADD KECCAK256 PUSH1 0x0 DUP2 DUP2 MSTORE PUSH1 0x9 SWAP1 SWAP4 MSTORE SWAP2 KECCAK256 PUSH1 0x2 ADD SLOAD SWAP1 SWAP3 POP ISZERO PUSH2 0x1A60 JUMPI DUP1 PUSH2 0x1A58 DUP2 PUSH2 0x1C7D JUMP JUMPDEST SWAP2 POP POP PUSH2 0x19DA JUMP JUMPDEST POP PUSH1 0x40 DUP1 MLOAD PUSH1 0xA0 DUP2 ADD DUP3 MSTORE SWAP7 DUP8 MSTORE PUSH1 0x20 DUP1 DUP9 ADD SWAP7 DUP8 MSTORE DUP8 DUP3 ADD SWAP6 DUP7 MSTORE PUSH1 0x60 DUP9 ADD SWAP5 DUP6 MSTORE PUSH1 0x0 PUSH1 0x80 DUP10 ADD DUP2 DUP2 MSTORE DUP5 DUP3 MSTORE PUSH1 0x9 SWAP1 SWAP3 MSTORE SWAP2 DUP3 KECCAK256 SWAP8 MLOAD DUP9 SSTORE SWAP6 MLOAD PUSH1 0x1 DUP1 DUP10 ADD SWAP2 SWAP1 SWAP2 SSTORE SWAP5 MLOAD PUSH1 0x2 DUP9 ADD SSTORE SWAP3 MLOAD PUSH1 0x3 DUP1 DUP9 ADD SWAP2 SWAP1 SWAP2 SSTORE SWAP5 MLOAD PUSH1 0x4 SWAP1 SWAP7 ADD DUP1 SLOAD PUSH1 0xFF NOT AND SWAP7 ISZERO ISZERO SWAP7 SWAP1 SWAP7 OR SWAP1 SWAP6 SSTORE POP DUP3 SLOAD SWAP2 DUP3 ADD DUP4 SSTORE SWAP2 SWAP1 SWAP2 MSTORE PUSH32 0xC2575A0E9E593C00F959F8C92F12DB2869C3395A3B0502D05E2516446F71F85B ADD DUP2 SWAP1 SSTORE SWAP1 JUMP JUMPDEST PUSH1 0x1 PUSH1 0x1 PUSH1 0xA0 SHL SUB DUP2 AND DUP2 EQ PUSH2 0x1B18 JUMPI PUSH1 0x0 DUP1 REVERT JUMPDEST POP JUMP JUMPDEST PUSH1 0x0 PUSH1 0x20 DUP3 DUP5 SUB SLT ISZERO PUSH2 0x1B2D JUMPI PUSH1 0x0 DUP1 REVERT JUMPDEST DUP2 CALLDATALOAD PUSH2 0x1B38 DUP2 PUSH2 0x1B03 JUMP JUMPDEST SWAP4 SWAP3 POP POP POP JUMP JUMPDEST PUSH1 0x20 DUP1 DUP3 MSTORE DUP3 MLOAD DUP3 DUP3 ADD DUP2 SWAP1 MSTORE PUSH1 0x0 SWAP2 SWAP1 PUSH1 0x40 SWAP1 DUP2 DUP6 ADD SWAP1 DUP7 DUP5 ADD DUP6 JUMPDEST DUP3 DUP2 LT ISZERO PUSH2 0x1BB6 JUMPI DUP2 MLOAD DUP1 MLOAD PUSH1 0x1 PUSH1 0x1 PUSH1 0xA0 SHL SUB SWAP1 DUP2 AND DUP7 MSTORE DUP8 DUP3 ADD MLOAD AND DUP8 DUP7 ADD MSTORE DUP6 DUP2 ADD MLOAD DUP7 DUP7 ADD MSTORE PUSH1 0x60 DUP1 DUP3 ADD MLOAD SWAP1 DUP7 ADD MSTORE PUSH1 0x80 DUP1 DUP3 ADD MLOAD SWAP1 DUP7 ADD MSTORE PUSH1 0xA0 SWAP1 DUP2 ADD MLOAD SWAP1 DUP6 ADD MSTORE PUSH1 0xC0 SWAP1 SWAP4 ADD SWAP3 SWAP1 DUP6 ADD SWAP1 PUSH1 0x1 ADD PUSH2 0x1B5C JUMP JUMPDEST POP SWAP2 SWAP8 SWAP7 POP POP POP POP POP POP POP JUMP JUMPDEST PUSH1 0x0 PUSH1 0x20 DUP3 DUP5 SUB SLT ISZERO PUSH2 0x1BD5 JUMPI PUSH1 0x0 DUP1 REVERT JUMPDEST POP CALLDATALOAD SWAP2 SWAP1 POP JUMP JUMPDEST DUP1 ISZERO ISZERO DUP2 EQ PUSH2 0x1B18 JUMPI PUSH1 0x0 DUP1 REVERT JUMPDEST PUSH1 0x0 DUP1 PUSH1 0x0 DUP1 PUSH1 0x0 DUP1 PUSH1 0xC0 DUP8 DUP10 SUB SLT ISZERO PUSH2 0x1C03 JUMPI PUSH1 0x0 DUP1 REVERT JUMPDEST DUP7 CALLDATALOAD PUSH2 0x1C0E DUP2 PUSH2 0x1B03 JUMP JUMPDEST SWAP6 POP PUSH1 0x20 DUP8 ADD CALLDATALOAD PUSH2 0x1C1E DUP2 PUSH2 0x1B03 JUMP JUMPDEST SWAP5 POP PUSH1 0x40 DUP8 ADD CALLDATALOAD SWAP4 POP PUSH1 0x60 DUP8 ADD CALLDATALOAD SWAP3 POP PUSH1 0x80 DUP8 ADD CALLDATALOAD SWAP2 POP PUSH1 0xA0 DUP8 ADD CALLDATALOAD PUSH2 0x1C43 DUP2 PUSH2 0x1BDC JUMP JUMPDEST DUP1 SWAP2 POP POP SWAP3 SWAP6 POP SWAP3 SWAP6 POP SWAP3 SWAP6 JUMP JUMPDEST PUSH4 0x4E487B71 PUSH1 0xE0 SHL PUSH1 0x0 MSTORE PUSH1 0x32 PUSH1 0x4 MSTORE PUSH1 0x24 PUSH1 0x0 REVERT JUMPDEST PUSH4 0x4E487B71 PUSH1 0xE0 SHL PUSH1 0x0 MSTORE PUSH1 0x11 PUSH1 0x4 MSTORE PUSH1 0x24 PUSH1 0x0 REVERT JUMPDEST PUSH1 0x0 PUSH1 0x1 DUP3 ADD PUSH2 0x1C8F JUMPI PUSH2 0x1C8F PUSH2 0x1C67 JUMP JUMPDEST POP PUSH1 0x1 ADD SWAP1 JUMP JUMPDEST PUSH1 0x20 DUP1 DUP3 MSTORE PUSH1 0x1F SWAP1 DUP3 ADD MSTORE PUSH32 0x5265656E7472616E637947756172643A207265656E7472616E742063616C6C00 PUSH1 0x40 DUP3 ADD MSTORE PUSH1 0x60 ADD SWAP1 JUMP JUMPDEST PUSH1 0x0 PUSH1 0x20 DUP3 DUP5 SUB SLT ISZERO PUSH2 0x1CDF JUMPI PUSH1 0x0 DUP1 REVERT JUMPDEST POP MLOAD SWAP2 SWAP1 POP JUMP JUMPDEST PUSH1 0x0 PUSH1 0x20 DUP3 DUP5 SUB SLT ISZERO PUSH2 0x1CF8 JUMPI PUSH1 0x0 DUP1 REVERT JUMPDEST DUP2 MLOAD PUSH2 0x1B38 DUP2 PUSH2 0x1BDC JUMP JUMPDEST DUP2 DUP2 SUB DUP2 DUP2 GT ISZERO PUSH2 0x1D16 JUMPI PUSH2 0x1D16 PUSH2 0x1C67 JUMP JUMPDEST SWAP3 SWAP2 POP POP JUMP JUMPDEST PUSH1 0x20 DUP1 DUP3 MSTORE PUSH1 0x2 SWAP1 DUP3 ADD MSTORE PUSH2 0x4D31 PUSH1 0xF0 SHL PUSH1 0x40 DUP3 ADD MSTORE PUSH1 0x60 ADD SWAP1 JUMP JUMPDEST PUSH1 0x0 DUP3 PUSH2 0x1D55 JUMPI PUSH4 0x4E487B71 PUSH1 0xE0 SHL PUSH1 0x0 MSTORE PUSH1 0x12 PUSH1 0x4 MSTORE PUSH1 0x24 PUSH1 0x0 REVERT JUMPDEST POP DIV SWAP1 JUMP JUMPDEST DUP1 DUP3 MUL DUP2 ISZERO DUP3 DUP3 DIV DUP5 EQ OR PUSH2 0x1D16 JUMPI PUSH2 0x1D16 PUSH2 0x1C67 JUMP JUMPDEST DUP1 DUP3 ADD DUP1 DUP3 GT ISZERO PUSH2 0x1D16 JUMPI PUSH2 0x1D16 PUSH2 0x1C67 JUMP JUMPDEST PUSH1 0x0 PUSH1 0x20 DUP3 DUP5 SUB SLT ISZERO PUSH2 0x1D96 JUMPI PUSH1 0x0 DUP1 REVERT JUMPDEST DUP2 MLOAD PUSH2 0x1B38 DUP2 PUSH2 0x1B03 JUMP INVALID LOG2 PUSH5 0x6970667358 0x22 SLT KECCAK256 PUSH18 0x8D493E0E4944C6CA9E25920A90AA990C0E48 DUP8 0x24 0xAD SWAP11 0xD0 0xAB 0x4A PUSH23 0x36659A8E2764736F6C6343000811003300000000000000 "
				},
				"gasEstimates": {
					"creation": {
						"codeDepositCost": "1527800",
						"executionCost": "infinite",
						"totalCost": "infinite"
					},
					"external": {
						"addBet(address,address,uint256,uint256,uint256,bool)": "infinite",
						"cancelMarket()": "infinite",
						"cancelPending(bytes32)": "infinite",
						"getBalance(address)": "2608",
						"getUserBets(address)": "infinite",
						"settle(uint256)": "infinite",
						"settleBet(bytes32)": "infinite",
						"start()": "26576",
						"status()": "2285",
						"withdraw(address)": "infinite"
					},
					"internal": {
						"_cancelPair(bytes32)": "infinite",
						"_createBet(address,address,uint256,uint256,uint256,uint256)": "infinite",
						"_createPair(bytes32,bytes32,uint256,uint256)": "infinite",
						"_settlePair(bytes32)": "infinite"
					}
				},
				"methodIdentifiers": {
					"addBet(address,address,uint256,uint256,uint256,bool)": "78d65b2f",
					"cancelMarket()": "6bfefd6b",
					"cancelPending(bytes32)": "893372ca",
					"getBalance(address)": "f8b2cb4f",
					"getUserBets(address)": "2d56657d",
					"settle(uint256)": "8df82800",
					"settleBet(bytes32)": "675f6537",
					"start()": "be9a6555",
					"status()": "200d2ed2",
					"withdraw(address)": "51cff8d9"
				}
			},
			"storageLayout": {
				"storage": [
					{
						"astId": 10,
						"contract": "contracts/Market.sol:Market",
						"label": "_status",
						"offset": 0,
						"slot": "0",
						"type": "t_uint256"
					},
					{
						"astId": 128,
						"contract": "contracts/Market.sol:Market",
						"label": "factory",
						"offset": 0,
						"slot": "1",
						"type": "t_address"
					},
					{
						"astId": 132,
						"contract": "contracts/Market.sol:Market",
						"label": "status",
						"offset": 0,
						"slot": "2",
						"type": "t_uint256"
					},
					{
						"astId": 135,
						"contract": "contracts/Market.sol:Market",
						"label": "pairs",
						"offset": 0,
						"slot": "3",
						"type": "t_array(t_bytes32)dyn_storage"
					},
					{
						"astId": 138,
						"contract": "contracts/Market.sol:Market",
						"label": "bets",
						"offset": 0,
						"slot": "4",
						"type": "t_array(t_bytes32)dyn_storage"
					},
					{
						"astId": 141,
						"contract": "contracts/Market.sol:Market",
						"label": "pendingBets",
						"offset": 0,
						"slot": "5",
						"type": "t_array(t_bytes32)dyn_storage"
					},
					{
						"astId": 156,
						"contract": "contracts/Market.sol:Market",
						"label": "bal",
						"offset": 0,
						"slot": "6",
						"type": "t_mapping(t_address,t_uint256)"
					},
					{
						"astId": 161,
						"contract": "contracts/Market.sol:Market",
						"label": "betsInfo",
						"offset": 0,
						"slot": "7",
						"type": "t_mapping(t_bytes32,t_struct(MarketBet)1429_storage)"
					},
					{
						"astId": 166,
						"contract": "contracts/Market.sol:Market",
						"label": "userBets",
						"offset": 0,
						"slot": "8",
						"type": "t_mapping(t_address,t_array(t_bytes32)dyn_storage)"
					},
					{
						"astId": 171,
						"contract": "contracts/Market.sol:Market",
						"label": "pairsInfo",
						"offset": 0,
						"slot": "9",
						"type": "t_mapping(t_bytes32,t_struct(MarketPair)152_storage)"
					},
					{
						"astId": 176,
						"contract": "contracts/Market.sol:Market",
						"label": "betPairs",
						"offset": 0,
						"slot": "10",
						"type": "t_mapping(t_bytes32,t_array(t_bytes32)dyn_storage)"
					}
				],
				"types": {
					"t_address": {
						"encoding": "inplace",
						"label": "address",
						"numberOfBytes": "20"
					},
					"t_array(t_bytes32)dyn_storage": {
						"base": "t_bytes32",
						"encoding": "dynamic_array",
						"label": "bytes32[]",
						"numberOfBytes": "32"
					},
					"t_bool": {
						"encoding": "inplace",
						"label": "bool",
						"numberOfBytes": "1"
					},
					"t_bytes32": {
						"encoding": "inplace",
						"label": "bytes32",
						"numberOfBytes": "32"
					},
					"t_mapping(t_address,t_array(t_bytes32)dyn_storage)": {
						"encoding": "mapping",
						"key": "t_address",
						"label": "mapping(address => bytes32[])",
						"numberOfBytes": "32",
						"value": "t_array(t_bytes32)dyn_storage"
					},
					"t_mapping(t_address,t_uint256)": {
						"encoding": "mapping",
						"key": "t_address",
						"label": "mapping(address => uint256)",
						"numberOfBytes": "32",
						"value": "t_uint256"
					},
					"t_mapping(t_bytes32,t_array(t_bytes32)dyn_storage)": {
						"encoding": "mapping",
						"key": "t_bytes32",
						"label": "mapping(bytes32 => bytes32[])",
						"numberOfBytes": "32",
						"value": "t_array(t_bytes32)dyn_storage"
					},
					"t_mapping(t_bytes32,t_struct(MarketBet)1429_storage)": {
						"encoding": "mapping",
						"key": "t_bytes32",
						"label": "mapping(bytes32 => struct IMarket.MarketBet)",
						"numberOfBytes": "32",
						"value": "t_struct(MarketBet)1429_storage"
					},
					"t_mapping(t_bytes32,t_struct(MarketPair)152_storage)": {
						"encoding": "mapping",
						"key": "t_bytes32",
						"label": "mapping(bytes32 => struct Market.MarketPair)",
						"numberOfBytes": "32",
						"value": "t_struct(MarketPair)152_storage"
					},
					"t_struct(MarketBet)1429_storage": {
						"encoding": "inplace",
						"label": "struct IMarket.MarketBet",
						"members": [
							{
								"astId": 1418,
								"contract": "contracts/Market.sol:Market",
								"label": "better",
								"offset": 0,
								"slot": "0",
								"type": "t_address"
							},
							{
								"astId": 1420,
								"contract": "contracts/Market.sol:Market",
								"label": "affiliate",
								"offset": 0,
								"slot": "1",
								"type": "t_address"
							},
							{
								"astId": 1422,
								"contract": "contracts/Market.sol:Market",
								"label": "stake",
								"offset": 0,
								"slot": "2",
								"type": "t_uint256"
							},
							{
								"astId": 1424,
								"contract": "contracts/Market.sol:Market",
								"label": "matched",
								"offset": 0,
								"slot": "3",
								"type": "t_uint256"
							},
							{
								"astId": 1426,
								"contract": "contracts/Market.sol:Market",
								"label": "odds",
								"offset": 0,
								"slot": "4",
								"type": "t_uint256"
							},
							{
								"astId": 1428,
								"contract": "contracts/Market.sol:Market",
								"label": "side",
								"offset": 0,
								"slot": "5",
								"type": "t_uint256"
							}
						],
						"numberOfBytes": "192"
					},
					"t_struct(MarketPair)152_storage": {
						"encoding": "inplace",
						"label": "struct Market.MarketPair",
						"members": [
							{
								"astId": 143,
								"contract": "contracts/Market.sol:Market",
								"label": "betHashA",
								"offset": 0,
								"slot": "0",
								"type": "t_bytes32"
							},
							{
								"astId": 145,
								"contract": "contracts/Market.sol:Market",
								"label": "betHashB",
								"offset": 0,
								"slot": "1",
								"type": "t_bytes32"
							},
							{
								"astId": 147,
								"contract": "contracts/Market.sol:Market",
								"label": "amountA",
								"offset": 0,
								"slot": "2",
								"type": "t_uint256"
							},
							{
								"astId": 149,
								"contract": "contracts/Market.sol:Market",
								"label": "amountB",
								"offset": 0,
								"slot": "3",
								"type": "t_uint256"
							},
							{
								"astId": 151,
								"contract": "contracts/Market.sol:Market",
								"label": "settled",
								"offset": 0,
								"slot": "4",
								"type": "t_bool"
							}
						],
						"numberOfBytes": "160"
					},
					"t_uint256": {
						"encoding": "inplace",
						"label": "uint256",
						"numberOfBytes": "32"
					}
				}
			},
			"userdoc": {
				"kind": "user",
				"methods": {},
				"version": 1
			}
		}
	}
}