{
	"contracts/Market.sol": {
		"Market": {
			"abi": [
				{
					"inputs": [
						{
							"internalType": "address",
							"name": "w_",
							"type": "address"
						}
					],
					"stateMutability": "nonpayable",
					"type": "constructor"
				},
				{
					"anonymous": false,
					"inputs": [
						{
							"indexed": false,
							"internalType": "address",
							"name": "better",
							"type": "address"
						},
						{
							"indexed": false,
							"internalType": "address",
							"name": "marketAddr",
							"type": "address"
						},
						{
							"indexed": false,
							"internalType": "uint256",
							"name": "id",
							"type": "uint256"
						},
						{
							"indexed": false,
							"internalType": "uint256",
							"name": "stake",
							"type": "uint256"
						},
						{
							"indexed": false,
							"internalType": "uint256",
							"name": "odds",
							"type": "uint256"
						},
						{
							"indexed": false,
							"internalType": "uint256",
							"name": "side",
							"type": "uint256"
						}
					],
					"name": "BetCreated",
					"type": "event"
				},
				{
					"anonymous": false,
					"inputs": [
						{
							"indexed": false,
							"internalType": "uint256",
							"name": "betIdA",
							"type": "uint256"
						},
						{
							"indexed": false,
							"internalType": "uint256",
							"name": "betIdB",
							"type": "uint256"
						},
						{
							"indexed": false,
							"internalType": "uint256",
							"name": "amountA",
							"type": "uint256"
						},
						{
							"indexed": false,
							"internalType": "uint256",
							"name": "amountB",
							"type": "uint256"
						}
					],
					"name": "PairCreated",
					"type": "event"
				},
				{
					"anonymous": false,
					"inputs": [
						{
							"indexed": false,
							"internalType": "address",
							"name": "beneficiary",
							"type": "address"
						},
						{
							"indexed": false,
							"internalType": "uint256",
							"name": "value",
							"type": "uint256"
						}
					],
					"name": "Withdraw",
					"type": "event"
				},
				{
					"inputs": [
						{
							"internalType": "address",
							"name": "_affiliate",
							"type": "address"
						},
						{
							"internalType": "uint256",
							"name": "_betId",
							"type": "uint256"
						},
						{
							"internalType": "uint256",
							"name": "_stake",
							"type": "uint256"
						},
						{
							"internalType": "uint256",
							"name": "_odds",
							"type": "uint256"
						},
						{
							"internalType": "uint256",
							"name": "_side",
							"type": "uint256"
						},
						{
							"internalType": "bool",
							"name": "_instant",
							"type": "bool"
						}
					],
					"name": "addBet",
					"outputs": [],
					"stateMutability": "nonpayable",
					"type": "function"
				},
				{
					"inputs": [],
					"name": "cancel",
					"outputs": [
						{
							"internalType": "bool",
							"name": "",
							"type": "bool"
						}
					],
					"stateMutability": "nonpayable",
					"type": "function"
				},
				{
					"inputs": [
						{
							"internalType": "uint256",
							"name": "_bet",
							"type": "uint256"
						}
					],
					"name": "cancelBet",
					"outputs": [],
					"stateMutability": "nonpayable",
					"type": "function"
				},
				{
					"inputs": [],
					"name": "cancelPlusPairs",
					"outputs": [
						{
							"internalType": "bool",
							"name": "",
							"type": "bool"
						}
					],
					"stateMutability": "nonpayable",
					"type": "function"
				},
				{
					"inputs": [
						{
							"internalType": "address",
							"name": "_user",
							"type": "address"
						}
					],
					"name": "getBalance",
					"outputs": [
						{
							"internalType": "uint256",
							"name": "",
							"type": "uint256"
						}
					],
					"stateMutability": "view",
					"type": "function"
				},
				{
					"inputs": [
						{
							"internalType": "uint256",
							"name": "_bet",
							"type": "uint256"
						}
					],
					"name": "getBet",
					"outputs": [
						{
							"components": [
								{
									"internalType": "address",
									"name": "better",
									"type": "address"
								},
								{
									"internalType": "address",
									"name": "affiliate",
									"type": "address"
								},
								{
									"internalType": "uint256",
									"name": "stake",
									"type": "uint256"
								},
								{
									"internalType": "uint256",
									"name": "matched",
									"type": "uint256"
								},
								{
									"internalType": "uint256",
									"name": "odds",
									"type": "uint256"
								},
								{
									"internalType": "uint256",
									"name": "side",
									"type": "uint256"
								}
							],
							"internalType": "struct Struct.MarketBet",
							"name": "",
							"type": "tuple"
						}
					],
					"stateMutability": "view",
					"type": "function"
				},
				{
					"inputs": [
						{
							"internalType": "uint256",
							"name": "_bet",
							"type": "uint256"
						}
					],
					"name": "getBetPairs",
					"outputs": [
						{
							"internalType": "uint256[]",
							"name": "",
							"type": "uint256[]"
						}
					],
					"stateMutability": "view",
					"type": "function"
				},
				{
					"inputs": [],
					"name": "getBets",
					"outputs": [
						{
							"internalType": "uint256[]",
							"name": "",
							"type": "uint256[]"
						}
					],
					"stateMutability": "view",
					"type": "function"
				},
				{
					"inputs": [
						{
							"internalType": "uint256",
							"name": "_pair",
							"type": "uint256"
						}
					],
					"name": "getPair",
					"outputs": [
						{
							"components": [
								{
									"internalType": "uint256",
									"name": "betIdA",
									"type": "uint256"
								},
								{
									"internalType": "uint256",
									"name": "betIdB",
									"type": "uint256"
								},
								{
									"internalType": "uint256",
									"name": "amountA",
									"type": "uint256"
								},
								{
									"internalType": "uint256",
									"name": "amountB",
									"type": "uint256"
								},
								{
									"internalType": "bool",
									"name": "settled",
									"type": "bool"
								}
							],
							"internalType": "struct Struct.MarketPair",
							"name": "",
							"type": "tuple"
						}
					],
					"stateMutability": "view",
					"type": "function"
				},
				{
					"inputs": [],
					"name": "getPairs",
					"outputs": [
						{
							"internalType": "uint256[]",
							"name": "",
							"type": "uint256[]"
						}
					],
					"stateMutability": "view",
					"type": "function"
				},
				{
					"inputs": [
						{
							"internalType": "address",
							"name": "_user",
							"type": "address"
						}
					],
					"name": "getUserBets",
					"outputs": [
						{
							"internalType": "uint256[]",
							"name": "",
							"type": "uint256[]"
						}
					],
					"stateMutability": "view",
					"type": "function"
				},
				{
					"inputs": [
						{
							"internalType": "uint256",
							"name": "_winningSide",
							"type": "uint256"
						}
					],
					"name": "setWinningSide",
					"outputs": [
						{
							"internalType": "bool",
							"name": "",
							"type": "bool"
						}
					],
					"stateMutability": "nonpayable",
					"type": "function"
				},
				{
					"inputs": [
						{
							"internalType": "uint256",
							"name": "_winningSide",
							"type": "uint256"
						}
					],
					"name": "settle",
					"outputs": [
						{
							"internalType": "bool",
							"name": "",
							"type": "bool"
						}
					],
					"stateMutability": "nonpayable",
					"type": "function"
				},
				{
					"inputs": [
						{
							"internalType": "uint256",
							"name": "_bet",
							"type": "uint256"
						}
					],
					"name": "settleBet",
					"outputs": [],
					"stateMutability": "nonpayable",
					"type": "function"
				},
				{
					"inputs": [],
					"name": "status",
					"outputs": [
						{
							"internalType": "uint256",
							"name": "",
							"type": "uint256"
						}
					],
					"stateMutability": "view",
					"type": "function"
				},
				{
					"inputs": [],
					"name": "stopNewBet",
					"outputs": [
						{
							"internalType": "bool",
							"name": "",
							"type": "bool"
						}
					],
					"stateMutability": "nonpayable",
					"type": "function"
				},
				{
					"inputs": [
						{
							"internalType": "address",
							"name": "_user",
							"type": "address"
						}
					],
					"name": "withdraw",
					"outputs": [
						{
							"internalType": "bool",
							"name": "",
							"type": "bool"
						}
					],
					"stateMutability": "nonpayable",
					"type": "function"
				},
				{
					"inputs": [
						{
							"internalType": "uint256",
							"name": "_bet",
							"type": "uint256"
						}
					],
					"name": "withdrawPending",
					"outputs": [],
					"stateMutability": "nonpayable",
					"type": "function"
				}
			],
			"devdoc": {
				"kind": "dev",
				"methods": {
					"cancelBet(uint256)": {
						"details": "cancel all pairs in `_bet`, "
					},
					"getBalance(address)": {
						"details": "Returns the amount of tokens owned by `_user` in this market."
					},
					"getBet(uint256)": {
						"details": "Returns details of `_bet`."
					},
					"getBetPairs(uint256)": {
						"details": "Returns hash IDs of all the bets placed by `_user`."
					},
					"getBets()": {
						"details": "Returns details of `_bet`."
					},
					"getPair(uint256)": {
						"details": "Returns details of `_bet`."
					},
					"getPairs()": {
						"details": "Returns details of `_bet`."
					},
					"getUserBets(address)": {
						"details": "Returns hash IDs of all the bets placed by `_user`."
					},
					"setWinningSide(uint256)": {
						"details": "assign `_winningSide` to `status` "
					},
					"settle(uint256)": {
						"details": "assign `_winningSide` to `status` "
					},
					"settleBet(uint256)": {
						"details": "settle all pairs in `_bet`, "
					},
					"withdraw(address)": {
						"details": "transfer bal[`_user`] to `_user`, bal"
					},
					"withdrawPending(uint256)": {
						"details": "refund all unmatched stake in `_bet`, and withraw for caller address"
					}
				},
				"version": 1
			},
			"evm": {
				"assembly": "    /* \"contracts/Market.sol\":219:14428  contract Market is IMarket, ReentrancyGuard {... */\n  mstore(0x40, 0xc0)\n    /* \"contracts/Market.sol\":305:315  msg.sender */\n  caller\n    /* \"contracts/Market.sol\":269:315  address immutable private factory = msg.sender */\n  0x60\n  shl\n  0x80\n  mstore\n    /* \"contracts/Market.sol\":1254:1566  constructor(address w_) {... */\n  callvalue\n  dup1\n  iszero\n  tag_1\n  jumpi\n  0x00\n  dup1\n  revert\ntag_1:\n  pop\n  mload(0x40)\n  sub(codesize, bytecodeSize)\n  dup1\n  bytecodeSize\n  dup4\n  codecopy\n  dup2\n  add\n  0x40\n  dup2\n  swap1\n  mstore\n  tag_2\n  swap2\n  tag_3\n  jump\t// in\ntag_2:\n    /* \"contracts/ReentrancyGuard.sol\":1701:1702  1 */\n  0x01\n    /* \"contracts/ReentrancyGuard.sol\":1806:1813  _status */\n  0x00\n    /* \"contracts/ReentrancyGuard.sol\":1806:1828  _status = _NOT_ENTERED */\n  dup2\n  swap1\n  sstore\n    /* \"contracts/Market.sol\":1288:1309  app = IWeb3BetsFO(w_) */\n  dup1\n  sload\n  not(sub(shl(0xa0, 0x01), 0x01))\n  and\n  sub(shl(0xa0, 0x01), 0x01)\n  dup4\n  and\n  swap1\n  dup2\n  or\n  swap1\n  swap2\n  sstore\n    /* \"contracts/Market.sol\":1323:1521  Struct.App(... */\n  0x40\n  dup1\n  mload\n  0xe0\n  dup2\n  add\n  dup1\n  dup4\n  mstore\n  shl(0xe2, 0x2dd90295)\n    /* \"contracts/Market.sol\":1347:1361  app.holdAddr() */\n  swap1\n  mstore\n  swap1\n  mload\n    /* \"contracts/Market.sol\":1323:1521  Struct.App(... */\n  swap1\n  swap2\n  dup3\n  swap2\n    /* \"contracts/Market.sol\":1347:1359  app.holdAddr */\n  0xb7640a54\n  swap1\n    /* \"contracts/Market.sol\":1347:1361  app.holdAddr() */\n  0xe4\n  dup1\n  dup6\n  add\n  swap2\n  0x20\n  swap2\n  dup2\n  dup8\n  sub\n  add\n  dup2\n    /* \"contracts/Market.sol\":1288:1309  app = IWeb3BetsFO(w_) */\n  dup7\n    /* \"contracts/Market.sol\":1347:1361  app.holdAddr() */\n  dup1\n  extcodesize\n  iszero\n  dup1\n  iszero\n  tag_8\n  jumpi\n  0x00\n  dup1\n  revert\ntag_8:\n  pop\n  gas\n  staticcall\n  iszero\n  dup1\n  iszero\n  tag_10\n  jumpi\n  returndatasize\n  0x00\n  dup1\n  returndatacopy\n  revert(0x00, returndatasize)\ntag_10:\n  pop\n  pop\n  pop\n  pop\n  mload(0x40)\n  returndatasize\n  not(0x1f)\n  0x1f\n  dup3\n  add\n  and\n  dup3\n  add\n  dup1\n  0x40\n  mstore\n  pop\n  dup2\n  add\n  swap1\n  tag_11\n  swap2\n  swap1\n  tag_3\n  jump\t// in\ntag_11:\n  sub(shl(0xa0, 0x01), 0x01)\n    /* \"contracts/Market.sol\":1323:1521  Struct.App(... */\n  and\n  dup2\n  mstore\n  0x20\n  add\n    /* \"contracts/Market.sol\":1375:1378  app */\n  0x01\n  0x00\n  swap1\n  sload\n  swap1\n  0x0100\n  exp\n  swap1\n  div\n  sub(shl(0xa0, 0x01), 0x01)\n  and\n  sub(shl(0xa0, 0x01), 0x01)\n    /* \"contracts/Market.sol\":1375:1386  app.ecoAddr */\n  and\n  0x09953b2f\n    /* \"contracts/Market.sol\":1375:1388  app.ecoAddr() */\n  mload(0x40)\n  dup2\n  0xffffffff\n  and\n  0xe0\n  shl\n  dup2\n  mstore\n  0x04\n  add\n  0x20\n  mload(0x40)\n  dup1\n  dup4\n  sub\n  dup2\n  dup7\n  dup1\n  extcodesize\n  iszero\n  dup1\n  iszero\n  tag_12\n  jumpi\n  0x00\n  dup1\n  revert\ntag_12:\n  pop\n  gas\n  staticcall\n  iszero\n  dup1\n  iszero\n  tag_14\n  jumpi\n  returndatasize\n  0x00\n  dup1\n  returndatacopy\n  revert(0x00, returndatasize)\ntag_14:\n  pop\n  pop\n  pop\n  pop\n  mload(0x40)\n  returndatasize\n  not(0x1f)\n  0x1f\n  dup3\n  add\n  and\n  dup3\n  add\n  dup1\n  0x40\n  mstore\n  pop\n  dup2\n  add\n  swap1\n  tag_15\n  swap2\n  swap1\n  tag_3\n  jump\t// in\ntag_15:\n  sub(shl(0xa0, 0x01), 0x01)\n    /* \"contracts/Market.sol\":1323:1521  Struct.App(... */\n  and\n  dup2\n  mstore\n  0x20\n  add\n    /* \"contracts/Market.sol\":1402:1405  app */\n  0x01\n  0x00\n  swap1\n  sload\n  swap1\n  0x0100\n  exp\n  swap1\n  div\n  sub(shl(0xa0, 0x01), 0x01)\n  and\n  sub(shl(0xa0, 0x01), 0x01)\n    /* \"contracts/Market.sol\":1402:1414  app.minStake */\n  and\n  0x375b3c0a\n    /* \"contracts/Market.sol\":1402:1416  app.minStake() */\n  mload(0x40)\n  dup2\n  0xffffffff\n  and\n  0xe0\n  shl\n  dup2\n  mstore\n  0x04\n  add\n  0x20\n  mload(0x40)\n  dup1\n  dup4\n  sub\n  dup2\n  dup7\n  dup1\n  extcodesize\n  iszero\n  dup1\n  iszero\n  tag_16\n  jumpi\n  0x00\n  dup1\n  revert\ntag_16:\n  pop\n  gas\n  staticcall\n  iszero\n  dup1\n  iszero\n  tag_18\n  jumpi\n  returndatasize\n  0x00\n  dup1\n  returndatacopy\n  revert(0x00, returndatasize)\ntag_18:\n  pop\n  pop\n  pop\n  pop\n  mload(0x40)\n  returndatasize\n  not(0x1f)\n  0x1f\n  dup3\n  add\n  and\n  dup3\n  add\n  dup1\n  0x40\n  mstore\n  pop\n  dup2\n  add\n  swap1\n  tag_19\n  swap2\n  swap1\n  tag_20\n  jump\t// in\ntag_19:\n    /* \"contracts/Market.sol\":1323:1521  Struct.App(... */\n  dup2\n  mstore\n    /* \"contracts/Market.sol\":1430:1433  app */\n  sload(0x01)\n    /* \"contracts/Market.sol\":1430:1439  app.vig() */\n  0x40\n  dup1\n  mload\n  shl(0xe0, 0x55c4a8bf)\n  dup2\n  mstore\n  swap1\n  mload\n    /* \"contracts/Market.sol\":1323:1521  Struct.App(... */\n  0x20\n  swap4\n  dup5\n  add\n  swap4\n  sub(shl(0xa0, 0x01), 0x01)\n    /* \"contracts/Market.sol\":1430:1433  app */\n  swap1\n  swap4\n  and\n  swap3\n    /* \"contracts/Market.sol\":1430:1437  app.vig */\n  0x55c4a8bf\n  swap3\n    /* \"contracts/Market.sol\":1430:1439  app.vig() */\n  0x04\n  dup1\n  dup3\n  add\n  swap4\n  swap2\n  dup3\n  swap1\n  sub\n  add\n  dup2\n    /* \"contracts/Market.sol\":1430:1433  app */\n  dup7\n    /* \"contracts/Market.sol\":1430:1439  app.vig() */\n  dup1\n  extcodesize\n  iszero\n  dup1\n  iszero\n  tag_21\n  jumpi\n  0x00\n  dup1\n  revert\ntag_21:\n  pop\n  gas\n  staticcall\n  iszero\n  dup1\n  iszero\n  tag_23\n  jumpi\n  returndatasize\n  0x00\n  dup1\n  returndatacopy\n  revert(0x00, returndatasize)\ntag_23:\n  pop\n  pop\n  pop\n  pop\n  mload(0x40)\n  returndatasize\n  not(0x1f)\n  0x1f\n  dup3\n  add\n  and\n  dup3\n  add\n  dup1\n  0x40\n  mstore\n  pop\n  dup2\n  add\n  swap1\n  tag_24\n  swap2\n  swap1\n  tag_20\n  jump\t// in\ntag_24:\n    /* \"contracts/Market.sol\":1323:1521  Struct.App(... */\n  dup2\n  mstore\n    /* \"contracts/Market.sol\":1453:1456  app */\n  sload(0x01)\n    /* \"contracts/Market.sol\":1453:1463  app.aVig() */\n  0x40\n  dup1\n  mload\n  shl(0xe2, 0x15334697)\n  dup2\n  mstore\n  swap1\n  mload\n    /* \"contracts/Market.sol\":1323:1521  Struct.App(... */\n  0x20\n  swap4\n  dup5\n  add\n  swap4\n  sub(shl(0xa0, 0x01), 0x01)\n    /* \"contracts/Market.sol\":1453:1456  app */\n  swap1\n  swap4\n  and\n  swap3\n    /* \"contracts/Market.sol\":1453:1461  app.aVig */\n  0x54cd1a5c\n  swap3\n    /* \"contracts/Market.sol\":1453:1463  app.aVig() */\n  0x04\n  dup1\n  dup3\n  add\n  swap4\n  swap2\n  dup3\n  swap1\n  sub\n  add\n  dup2\n    /* \"contracts/Market.sol\":1453:1456  app */\n  dup7\n    /* \"contracts/Market.sol\":1453:1463  app.aVig() */\n  dup1\n  extcodesize\n  iszero\n  dup1\n  iszero\n  tag_25\n  jumpi\n  0x00\n  dup1\n  revert\ntag_25:\n  pop\n  gas\n  staticcall\n  iszero\n  dup1\n  iszero\n  tag_27\n  jumpi\n  returndatasize\n  0x00\n  dup1\n  returndatacopy\n  revert(0x00, returndatasize)\ntag_27:\n  pop\n  pop\n  pop\n  pop\n  mload(0x40)\n  returndatasize\n  not(0x1f)\n  0x1f\n  dup3\n  add\n  and\n  dup3\n  add\n  dup1\n  0x40\n  mstore\n  pop\n  dup2\n  add\n  swap1\n  tag_28\n  swap2\n  swap1\n  tag_20\n  jump\t// in\ntag_28:\n    /* \"contracts/Market.sol\":1323:1521  Struct.App(... */\n  dup2\n  mstore\n    /* \"contracts/Market.sol\":1477:1480  app */\n  sload(0x01)\n    /* \"contracts/Market.sol\":1477:1487  app.eVig() */\n  0x40\n  dup1\n  mload\n  shl(0xe0, 0x28576d45)\n  dup2\n  mstore\n  swap1\n  mload\n    /* \"contracts/Market.sol\":1323:1521  Struct.App(... */\n  0x20\n  swap4\n  dup5\n  add\n  swap4\n  sub(shl(0xa0, 0x01), 0x01)\n    /* \"contracts/Market.sol\":1477:1480  app */\n  swap1\n  swap4\n  and\n  swap3\n    /* \"contracts/Market.sol\":1477:1485  app.eVig */\n  0x28576d45\n  swap3\n    /* \"contracts/Market.sol\":1477:1487  app.eVig() */\n  0x04\n  dup1\n  dup3\n  add\n  swap4\n  swap2\n  dup3\n  swap1\n  sub\n  add\n  dup2\n    /* \"contracts/Market.sol\":1477:1480  app */\n  dup7\n    /* \"contracts/Market.sol\":1477:1487  app.eVig() */\n  dup1\n  extcodesize\n  iszero\n  dup1\n  iszero\n  tag_29\n  jumpi\n  0x00\n  dup1\n  revert\ntag_29:\n  pop\n  gas\n  staticcall\n  iszero\n  dup1\n  iszero\n  tag_31\n  jumpi\n  returndatasize\n  0x00\n  dup1\n  returndatacopy\n  revert(0x00, returndatasize)\ntag_31:\n  pop\n  pop\n  pop\n  pop\n  mload(0x40)\n  returndatasize\n  not(0x1f)\n  0x1f\n  dup3\n  add\n  and\n  dup3\n  add\n  dup1\n  0x40\n  mstore\n  pop\n  dup2\n  add\n  swap1\n  tag_32\n  swap2\n  swap1\n  tag_20\n  jump\t// in\ntag_32:\n    /* \"contracts/Market.sol\":1323:1521  Struct.App(... */\n  dup2\n  mstore\n    /* \"contracts/Market.sol\":1501:1504  app */\n  sload(0x01)\n    /* \"contracts/Market.sol\":1501:1511  app.hVig() */\n  0x40\n  dup1\n  mload\n  shl(0xe0, 0x6a0ccd9d)\n  dup2\n  mstore\n  swap1\n  mload\n    /* \"contracts/Market.sol\":1323:1521  Struct.App(... */\n  0x20\n  swap4\n  dup5\n  add\n  swap4\n  sub(shl(0xa0, 0x01), 0x01)\n    /* \"contracts/Market.sol\":1501:1504  app */\n  swap1\n  swap4\n  and\n  swap3\n    /* \"contracts/Market.sol\":1501:1509  app.hVig */\n  0x6a0ccd9d\n  swap3\n    /* \"contracts/Market.sol\":1501:1511  app.hVig() */\n  0x04\n  dup1\n  dup3\n  add\n  swap4\n  swap2\n  dup3\n  swap1\n  sub\n  add\n  dup2\n    /* \"contracts/Market.sol\":1501:1504  app */\n  dup7\n    /* \"contracts/Market.sol\":1501:1511  app.hVig() */\n  dup1\n  extcodesize\n  iszero\n  dup1\n  iszero\n  tag_33\n  jumpi\n  0x00\n  dup1\n  revert\ntag_33:\n  pop\n  gas\n  staticcall\n  iszero\n  dup1\n  iszero\n  tag_35\n  jumpi\n  returndatasize\n  0x00\n  dup1\n  returndatacopy\n  revert(0x00, returndatasize)\ntag_35:\n  pop\n  pop\n  pop\n  pop\n  mload(0x40)\n  returndatasize\n  not(0x1f)\n  0x1f\n  dup3\n  add\n  and\n  dup3\n  add\n  dup1\n  0x40\n  mstore\n  pop\n  dup2\n  add\n  swap1\n  tag_36\n  swap2\n  swap1\n  tag_20\n  jump\t// in\ntag_36:\n    /* \"contracts/Market.sol\":1323:1521  Struct.App(... */\n  swap1\n  mstore\n    /* \"contracts/Market.sol\":1319:1521  a = Struct.App(... */\n  dup1\n  mload\n    /* \"contracts/Market.sol\":1319:1320  a */\n  0x02\n    /* \"contracts/Market.sol\":1319:1521  a = Struct.App(... */\n  dup1\n  sload\n  not(sub(shl(0xa0, 0x01), 0x01))\n  swap1\n  dup2\n  and\n  sub(shl(0xa0, 0x01), 0x01)\n  swap4\n  dup5\n  and\n  or\n  swap1\n  swap2\n  sstore\n  0x20\n  dup1\n  dup5\n  add\n  mload\n  0x03\n  dup1\n  sload\n  swap1\n  swap4\n  and\n  swap1\n  dup5\n  and\n  or\n  swap1\n  swap2\n  sstore\n  0x40\n  dup1\n  dup5\n  add\n  mload\n  0x04\n  swap1\n  dup2\n  sstore\n  0x60\n  dup6\n  add\n  mload\n  0x05\n  sstore\n  0x80\n  dup6\n  add\n  mload\n  0x06\n  sstore\n  0xa0\n  dup6\n  add\n  mload\n  0x07\n  sstore\n  0xc0\n  swap1\n  swap5\n  add\n  mload\n  0x08\n  sstore\n  0x01\n    /* \"contracts/Market.sol\":1546:1549  app */\n  sload\n    /* \"contracts/Market.sol\":1546:1558  app.scAddr() */\n  dup2\n  mload\n  shl(0xe3, 0x966ed9)\n  dup2\n  mstore\n  swap2\n  mload\n    /* \"contracts/Market.sol\":1546:1549  app */\n  swap4\n  and\n  swap4\n    /* \"contracts/Market.sol\":1546:1556  app.scAddr */\n  0x04b376c8\n  swap4\n    /* \"contracts/Market.sol\":1546:1558  app.scAddr() */\n  dup3\n  dup3\n  add\n  swap4\n    /* \"contracts/Market.sol\":1319:1521  a = Struct.App(... */\n  swap3\n    /* \"contracts/Market.sol\":1546:1558  app.scAddr() */\n  swap1\n  swap2\n  swap1\n  dup3\n  swap1\n  sub\n  add\n  dup2\n    /* \"contracts/Market.sol\":1546:1549  app */\n  dup7\n    /* \"contracts/Market.sol\":1546:1558  app.scAddr() */\n  dup1\n  extcodesize\n  iszero\n  dup1\n  iszero\n  tag_37\n  jumpi\n  0x00\n  dup1\n  revert\ntag_37:\n  pop\n  gas\n  staticcall\n  iszero\n  dup1\n  iszero\n  tag_39\n  jumpi\n  returndatasize\n  0x00\n  dup1\n  returndatacopy\n  revert(0x00, returndatasize)\ntag_39:\n  pop\n  pop\n  pop\n  pop\n  mload(0x40)\n  returndatasize\n  not(0x1f)\n  0x1f\n  dup3\n  add\n  and\n  dup3\n  add\n  dup1\n  0x40\n  mstore\n  pop\n  dup2\n  add\n  swap1\n  tag_40\n  swap2\n  swap1\n  tag_3\n  jump\t// in\ntag_40:\n    /* \"contracts/Market.sol\":1531:1559  token = IERC20(app.scAddr()) */\n  0x60\n  shl\n  not(sub(shl(0x60, 0x01), 0x01))\n  and\n  0xa0\n  mstore\n  pop\n    /* \"contracts/Market.sol\":219:14428  contract Market is IMarket, ReentrancyGuard {... */\n  jump(tag_42)\n    /* \"#utility.yul\":14:324   */\ntag_3:\n    /* \"#utility.yul\":84:90   */\n  0x00\n    /* \"#utility.yul\":137:139   */\n  0x20\n    /* \"#utility.yul\":125:134   */\n  dup3\n    /* \"#utility.yul\":116:123   */\n  dup5\n    /* \"#utility.yul\":112:135   */\n  sub\n    /* \"#utility.yul\":108:140   */\n  slt\n    /* \"#utility.yul\":105:107   */\n  iszero\n  tag_44\n  jumpi\n    /* \"#utility.yul\":158:164   */\n  dup1\n    /* \"#utility.yul\":150:156   */\n  dup2\n    /* \"#utility.yul\":143:165   */\n  revert\n    /* \"#utility.yul\":105:107   */\ntag_44:\n    /* \"#utility.yul\":189:205   */\n  dup2\n  mload\n  sub(shl(0xa0, 0x01), 0x01)\n    /* \"#utility.yul\":234:265   */\n  dup2\n  and\n    /* \"#utility.yul\":224:266   */\n  dup2\n  eq\n    /* \"#utility.yul\":214:216   */\n  tag_45\n  jumpi\n    /* \"#utility.yul\":285:291   */\n  dup2\n    /* \"#utility.yul\":277:283   */\n  dup3\n    /* \"#utility.yul\":270:292   */\n  revert\n    /* \"#utility.yul\":214:216   */\ntag_45:\n    /* \"#utility.yul\":313:318   */\n  swap4\n    /* \"#utility.yul\":95:324   */\n  swap3\n  pop\n  pop\n  pop\n  jump\t// out\n    /* \"#utility.yul\":329:523   */\ntag_20:\n    /* \"#utility.yul\":399:405   */\n  0x00\n    /* \"#utility.yul\":452:454   */\n  0x20\n    /* \"#utility.yul\":440:449   */\n  dup3\n    /* \"#utility.yul\":431:438   */\n  dup5\n    /* \"#utility.yul\":427:450   */\n  sub\n    /* \"#utility.yul\":423:455   */\n  slt\n    /* \"#utility.yul\":420:422   */\n  iszero\n  tag_47\n  jumpi\n    /* \"#utility.yul\":473:479   */\n  dup1\n    /* \"#utility.yul\":465:471   */\n  dup2\n    /* \"#utility.yul\":458:480   */\n  revert\n    /* \"#utility.yul\":420:422   */\ntag_47:\n  pop\n    /* \"#utility.yul\":501:517   */\n  mload\n  swap2\n    /* \"#utility.yul\":410:523   */\n  swap1\n  pop\n  jump\t// out\ntag_42:\n    /* \"contracts/Market.sol\":219:14428  contract Market is IMarket, ReentrancyGuard {... */\n  shr(0x60, mload(0x80))\n  shr(0x60, mload(0xa0))\n  codecopy(0x00, dataOffset(sub_0), dataSize(sub_0))\n  0x00\n  assignImmutable(\"0x5b9d82bdb7ae056a203cf64bdf26f3fdec584cdfaca2ac8b4c3d0c5b66e90969\")\n  0x00\n  assignImmutable(\"0xaf057546d61dd28804ca035e688a36db5f311bb8c4c9d2e1e5e44c0555cfe3bf\")\n  return(0x00, dataSize(sub_0))\nstop\n\nsub_0: assembly {\n        /* \"contracts/Market.sol\":219:14428  contract Market is IMarket, ReentrancyGuard {... */\n      mstore(0x40, 0x80)\n      callvalue\n      dup1\n      iszero\n      tag_1\n      jumpi\n      0x00\n      dup1\n      revert\n    tag_1:\n      pop\n      jumpi(tag_2, lt(calldatasize, 0x04))\n      shr(0xe0, calldataload(0x00))\n      dup1\n      0x6bef0267\n      gt\n      tag_21\n      jumpi\n      dup1\n      0xae8cd090\n      gt\n      tag_22\n      jumpi\n      dup1\n      0xae8cd090\n      eq\n      tag_16\n      jumpi\n      dup1\n      0xbdf391cc\n      eq\n      tag_17\n      jumpi\n      dup1\n      0xd0ed7295\n      eq\n      tag_18\n      jumpi\n      dup1\n      0xea8a1af0\n      eq\n      tag_19\n      jumpi\n      dup1\n      0xf8b2cb4f\n      eq\n      tag_20\n      jumpi\n      0x00\n      dup1\n      revert\n    tag_22:\n      dup1\n      0x6bef0267\n      eq\n      tag_12\n      jumpi\n      dup1\n      0x767eb5ef\n      eq\n      tag_13\n      jumpi\n      dup1\n      0x8df82800\n      eq\n      tag_14\n      jumpi\n      dup1\n      0xa6afd5fd\n      eq\n      tag_15\n      jumpi\n      0x00\n      dup1\n      revert\n    tag_21:\n      dup1\n      0x2d56657d\n      gt\n      tag_23\n      jumpi\n      dup1\n      0x2d56657d\n      eq\n      tag_7\n      jumpi\n      dup1\n      0x2e585fd8\n      eq\n      tag_8\n      jumpi\n      dup1\n      0x357401f5\n      eq\n      tag_9\n      jumpi\n      dup1\n      0x51cff8d9\n      eq\n      tag_10\n      jumpi\n      dup1\n      0x58918e61\n      eq\n      tag_11\n      jumpi\n      0x00\n      dup1\n      revert\n    tag_23:\n      dup1\n      0x061e494f\n      eq\n      tag_3\n      jumpi\n      dup1\n      0x16fd381a\n      eq\n      tag_4\n      jumpi\n      dup1\n      0x1e56b7d3\n      eq\n      tag_5\n      jumpi\n      dup1\n      0x200d2ed2\n      eq\n      tag_6\n      jumpi\n    tag_2:\n      0x00\n      dup1\n      revert\n        /* \"contracts/Market.sol\":2210:2348  function getBet(uint256 _bet) ... */\n    tag_3:\n      tag_24\n      tag_25\n      calldatasize\n      0x04\n      tag_26\n      jump\t// in\n    tag_25:\n      tag_27\n      jump\t// in\n    tag_24:\n      mload(0x40)\n      tag_28\n      swap2\n      swap1\n        /* \"#utility.yul\":9056:9069   */\n      dup2\n      mload\n      sub(shl(0xa0, 0x01), 0x01)\n        /* \"#utility.yul\":9052:9074   */\n      swap1\n      dup2\n      and\n        /* \"#utility.yul\":9034:9075   */\n      dup3\n      mstore\n        /* \"#utility.yul\":9135:9139   */\n      0x20\n        /* \"#utility.yul\":9123:9140   */\n      dup1\n      dup5\n      add\n        /* \"#utility.yul\":9117:9141   */\n      mload\n        /* \"#utility.yul\":9113:9146   */\n      swap1\n      swap2\n      and\n        /* \"#utility.yul\":9091:9111   */\n      swap1\n      dup3\n      add\n        /* \"#utility.yul\":9084:9147   */\n      mstore\n        /* \"#utility.yul\":9203:9207   */\n      0x40\n        /* \"#utility.yul\":9191:9208   */\n      dup1\n      dup4\n      add\n        /* \"#utility.yul\":9185:9209   */\n      mload\n        /* \"#utility.yul\":9163:9183   */\n      swap1\n      dup3\n      add\n        /* \"#utility.yul\":9156:9210   */\n      mstore\n        /* \"#utility.yul\":9266:9270   */\n      0x60\n        /* \"#utility.yul\":9254:9271   */\n      dup1\n      dup4\n      add\n        /* \"#utility.yul\":9248:9272   */\n      mload\n        /* \"#utility.yul\":9226:9246   */\n      swap1\n      dup3\n      add\n        /* \"#utility.yul\":9219:9273   */\n      mstore\n        /* \"#utility.yul\":9329:9333   */\n      0x80\n        /* \"#utility.yul\":9317:9334   */\n      dup1\n      dup4\n      add\n        /* \"#utility.yul\":9311:9335   */\n      mload\n        /* \"#utility.yul\":9289:9309   */\n      swap1\n      dup3\n      add\n        /* \"#utility.yul\":9282:9336   */\n      mstore\n        /* \"#utility.yul\":9014:9017   */\n      0xa0\n        /* \"#utility.yul\":9380:9397   */\n      swap2\n      dup3\n      add\n        /* \"#utility.yul\":9374:9398   */\n      mload\n        /* \"#utility.yul\":9352:9372   */\n      swap2\n      dup2\n      add\n        /* \"#utility.yul\":9345:9399   */\n      swap2\n      swap1\n      swap2\n      mstore\n        /* \"#utility.yul\":8983:8986   */\n      0xc0\n        /* \"#utility.yul\":8968:8987   */\n      add\n      swap1\n        /* \"#utility.yul\":8950:9405   */\n      jump\n        /* \"contracts/Market.sol\":2210:2348  function getBet(uint256 _bet) ... */\n    tag_28:\n      mload(0x40)\n      dup1\n      swap2\n      sub\n      swap1\n      return\n        /* \"contracts/Market.sol\":4250:4570  function settleBet(uint256 _bet) external override {... */\n    tag_4:\n      tag_30\n      tag_31\n      calldatasize\n      0x04\n      tag_26\n      jump\t// in\n    tag_31:\n      tag_32\n      jump\t// in\n    tag_30:\n      stop\n        /* \"contracts/Market.sol\":6386:8819  function addBet(... */\n    tag_5:\n      tag_30\n      tag_34\n      calldatasize\n      0x04\n      tag_35\n      jump\t// in\n    tag_34:\n      tag_36\n      jump\t// in\n        /* \"contracts/Market.sol\":524:554  uint256 public override status */\n    tag_6:\n      tag_37\n      sload(0x09)\n      dup2\n      jump\n    tag_37:\n      mload(0x40)\n        /* \"#utility.yul\":10070:10095   */\n      swap1\n      dup2\n      mstore\n        /* \"#utility.yul\":10058:10060   */\n      0x20\n        /* \"#utility.yul\":10043:10061   */\n      add\n        /* \"contracts/Market.sol\":524:554  uint256 public override status */\n      tag_28\n        /* \"#utility.yul\":10025:10101   */\n      jump\n        /* \"contracts/Market.sol\":1853:1991  function getUserBets(address _user) ... */\n    tag_7:\n      tag_41\n      tag_42\n      calldatasize\n      0x04\n      tag_43\n      jump\t// in\n    tag_42:\n      tag_44\n      jump\t// in\n    tag_41:\n      mload(0x40)\n      tag_28\n      swap2\n      swap1\n      tag_46\n      jump\t// in\n        /* \"contracts/Market.sol\":3522:3894  function withdrawPending(uint256 _bet) public override {... */\n    tag_8:\n      tag_30\n      tag_48\n      calldatasize\n      0x04\n      tag_26\n      jump\t// in\n    tag_48:\n      tag_49\n      jump\t// in\n        /* \"contracts/Market.sol\":3955:4189  function cancelBet(uint256 _bet) external override {... */\n    tag_9:\n      tag_30\n      tag_51\n      calldatasize\n      0x04\n      tag_26\n      jump\t// in\n    tag_51:\n      tag_52\n      jump\t// in\n        /* \"contracts/Market.sol\":2993:3419  function withdraw(address _user) public override nonReentrant returns(bool) {... */\n    tag_10:\n      tag_53\n      tag_54\n      calldatasize\n      0x04\n      tag_43\n      jump\t// in\n    tag_54:\n      tag_55\n      jump\t// in\n    tag_53:\n      mload(0x40)\n        /* \"#utility.yul\":4445:4459   */\n      swap1\n      iszero\n        /* \"#utility.yul\":4438:4460   */\n      iszero\n        /* \"#utility.yul\":4420:4461   */\n      dup2\n      mstore\n        /* \"#utility.yul\":4408:4410   */\n      0x20\n        /* \"#utility.yul\":4393:4411   */\n      add\n        /* \"contracts/Market.sol\":2993:3419  function withdraw(address _user) public override nonReentrant returns(bool) {... */\n      tag_28\n        /* \"#utility.yul\":4375:4467   */\n      jump\n        /* \"contracts/Market.sol\":2432:2568  function getBetPairs(uint256 _bet) ... */\n    tag_11:\n      tag_41\n      tag_59\n      calldatasize\n      0x04\n      tag_26\n      jump\t// in\n    tag_59:\n      tag_60\n      jump\t// in\n        /* \"contracts/Market.sol\":6173:6380  function stopNewBet() external override onlyFactory returns(bool){... */\n    tag_12:\n      tag_53\n      tag_63\n      jump\t// in\n        /* \"contracts/Market.sol\":2627:2730  function getPairs() external view override returns(uint256[] memory) ... */\n    tag_13:\n      tag_41\n      tag_66\n      jump\t// in\n        /* \"contracts/Market.sol\":5136:5547  function settle(uint256 _winningSide)... */\n    tag_14:\n      tag_53\n      tag_69\n      calldatasize\n      0x04\n      tag_26\n      jump\t// in\n    tag_69:\n      tag_70\n      jump\t// in\n        /* \"contracts/Market.sol\":2050:2151  function getBets() external view override returns(uint256[] memory) ... */\n    tag_15:\n      tag_41\n      tag_73\n      jump\t// in\n        /* \"contracts/Market.sol\":5784:6167  function cancelPlusPairs() external override onlyFactory returns(bool) ... */\n    tag_16:\n      tag_53\n      tag_76\n      jump\t// in\n        /* \"contracts/Market.sol\":2789:2923  function getPair(uint256 _pair) external view override returns(Struct.MarketPair memory) ... */\n    tag_17:\n      tag_78\n      tag_79\n      calldatasize\n      0x04\n      tag_26\n      jump\t// in\n    tag_79:\n      tag_80\n      jump\t// in\n    tag_78:\n      mload(0x40)\n      tag_28\n      swap2\n      swap1\n        /* \"#utility.yul\":9558:9562   */\n      0x00\n        /* \"#utility.yul\":9600:9603   */\n      0xa0\n        /* \"#utility.yul\":9589:9598   */\n      dup3\n        /* \"#utility.yul\":9585:9604   */\n      add\n        /* \"#utility.yul\":9577:9604   */\n      swap1\n      pop\n        /* \"#utility.yul\":9637:9643   */\n      dup3\n        /* \"#utility.yul\":9631:9644   */\n      mload\n        /* \"#utility.yul\":9620:9629   */\n      dup3\n        /* \"#utility.yul\":9613:9645   */\n      mstore\n        /* \"#utility.yul\":9701:9705   */\n      0x20\n        /* \"#utility.yul\":9693:9699   */\n      dup4\n        /* \"#utility.yul\":9689:9706   */\n      add\n        /* \"#utility.yul\":9683:9707   */\n      mload\n        /* \"#utility.yul\":9676:9680   */\n      0x20\n        /* \"#utility.yul\":9665:9674   */\n      dup4\n        /* \"#utility.yul\":9661:9681   */\n      add\n        /* \"#utility.yul\":9654:9708   */\n      mstore\n        /* \"#utility.yul\":9764:9768   */\n      0x40\n        /* \"#utility.yul\":9756:9762   */\n      dup4\n        /* \"#utility.yul\":9752:9769   */\n      add\n        /* \"#utility.yul\":9746:9770   */\n      mload\n        /* \"#utility.yul\":9739:9743   */\n      0x40\n        /* \"#utility.yul\":9728:9737   */\n      dup4\n        /* \"#utility.yul\":9724:9744   */\n      add\n        /* \"#utility.yul\":9717:9771   */\n      mstore\n        /* \"#utility.yul\":9827:9831   */\n      0x60\n        /* \"#utility.yul\":9819:9825   */\n      dup4\n        /* \"#utility.yul\":9815:9832   */\n      add\n        /* \"#utility.yul\":9809:9833   */\n      mload\n        /* \"#utility.yul\":9802:9806   */\n      0x60\n        /* \"#utility.yul\":9791:9800   */\n      dup4\n        /* \"#utility.yul\":9787:9807   */\n      add\n        /* \"#utility.yul\":9780:9834   */\n      mstore\n        /* \"#utility.yul\":9904:9908   */\n      0x80\n        /* \"#utility.yul\":9896:9902   */\n      dup4\n        /* \"#utility.yul\":9892:9909   */\n      add\n        /* \"#utility.yul\":9886:9910   */\n      mload\n        /* \"#utility.yul\":9879:9911   */\n      iszero\n        /* \"#utility.yul\":9872:9912   */\n      iszero\n        /* \"#utility.yul\":9865:9869   */\n      0x80\n        /* \"#utility.yul\":9854:9863   */\n      dup4\n        /* \"#utility.yul\":9850:9870   */\n      add\n        /* \"#utility.yul\":9843:9913   */\n      mstore\n        /* \"#utility.yul\":9567:9919   */\n      swap3\n      swap2\n      pop\n      pop\n      jump\n        /* \"contracts/Market.sol\":4637:5069  function setWinningSide(uint256 _winningSide)... */\n    tag_18:\n      tag_53\n      tag_84\n      calldatasize\n      0x04\n      tag_26\n      jump\t// in\n    tag_84:\n      tag_85\n      jump\t// in\n        /* \"contracts/Market.sol\":5553:5778  function cancel() external override onlyFactory returns(bool) ... */\n    tag_19:\n      tag_53\n      tag_88\n      jump\t// in\n        /* \"contracts/Market.sol\":1660:1769  function getBalance(address _user) external view override returns(uint256) {... */\n    tag_20:\n      tag_37\n      tag_91\n      calldatasize\n      0x04\n      tag_43\n      jump\t// in\n    tag_91:\n      sub(shl(0xa0, 0x01), 0x01)\n        /* \"contracts/Market.sol\":1752:1762  bal[_user] */\n      and\n        /* \"contracts/Market.sol\":1726:1733  uint256 */\n      0x00\n        /* \"contracts/Market.sol\":1752:1762  bal[_user] */\n      swap1\n      dup2\n      mstore\n        /* \"contracts/Market.sol\":1752:1755  bal */\n      0x0a\n        /* \"contracts/Market.sol\":1752:1762  bal[_user] */\n      0x20\n      mstore\n      0x40\n      swap1\n      keccak256\n      sload\n      swap1\n        /* \"contracts/Market.sol\":1660:1769  function getBalance(address _user) external view override returns(uint256) {... */\n      jump\n        /* \"contracts/Market.sol\":2210:2348  function getBet(uint256 _bet) ... */\n    tag_27:\n        /* \"contracts/Market.sol\":2280:2303  Struct.MarketBet memory */\n      tag_94\n      mload(0x40)\n      dup1\n      0xc0\n      add\n      0x40\n      mstore\n      dup1\n      and(sub(shl(0xa0, 0x01), 0x01), 0x00)\n      dup2\n      mstore\n      0x20\n      add\n      and(sub(shl(0xa0, 0x01), 0x01), 0x00)\n      dup2\n      mstore\n      0x20\n      add\n      0x00\n      dup2\n      mstore\n      0x20\n      add\n      0x00\n      dup2\n      mstore\n      0x20\n      add\n      0x00\n      dup2\n      mstore\n      0x20\n      add\n      0x00\n      dup2\n      mstore\n      pop\n      swap1\n      jump\n    tag_94:\n      pop\n        /* \"contracts/Market.sol\":2327:2341  betsInfo[_bet] */\n      0x00\n      swap1\n      dup2\n      mstore\n        /* \"contracts/Market.sol\":2327:2335  betsInfo */\n      0x0d\n        /* \"contracts/Market.sol\":2327:2341  betsInfo[_bet] */\n      0x20\n      swap1\n      dup2\n      mstore\n      0x40\n      swap2\n      dup3\n      swap1\n      keccak256\n        /* \"contracts/Market.sol\":2320:2341  return betsInfo[_bet] */\n      dup3\n      mload\n      0xc0\n      dup2\n      add\n      dup5\n      mstore\n      dup2\n      sload\n      sub(shl(0xa0, 0x01), 0x01)\n      swap1\n      dup2\n      and\n      dup3\n      mstore\n      0x01\n      dup4\n      add\n      sload\n      and\n      swap3\n      dup2\n      add\n      swap3\n      swap1\n      swap3\n      mstore\n      0x02\n      dup2\n      add\n      sload\n      swap3\n      dup3\n      add\n      swap3\n      swap1\n      swap3\n      mstore\n      0x03\n      dup3\n      add\n      sload\n      0x60\n      dup3\n      add\n      mstore\n      0x04\n      dup3\n      add\n      sload\n      0x80\n      dup3\n      add\n      mstore\n      0x05\n      swap1\n      swap2\n      add\n      sload\n      0xa0\n      dup3\n      add\n      mstore\n      swap1\n        /* \"contracts/Market.sol\":2210:2348  function getBet(uint256 _bet) ... */\n      jump\t// out\n        /* \"contracts/Market.sol\":4250:4570  function settleBet(uint256 _bet) external override {... */\n    tag_32:\n        /* \"contracts/Market.sol\":4311:4334  uint256[] memory _pairs */\n      0x00\n        /* \"contracts/Market.sol\":4337:4351  betPairs[_bet] */\n      dup2\n      dup2\n      mstore\n        /* \"contracts/Market.sol\":4337:4345  betPairs */\n      0x0f\n        /* \"contracts/Market.sol\":4337:4351  betPairs[_bet] */\n      0x20\n      swap1\n      dup2\n      mstore\n      0x40\n      dup1\n      dup4\n      keccak256\n        /* \"contracts/Market.sol\":4311:4351  uint256[] memory _pairs = betPairs[_bet] */\n      dup1\n      sload\n      dup3\n      mload\n      dup2\n      dup6\n      mul\n      dup2\n      add\n      dup6\n      add\n      swap1\n      swap4\n      mstore\n      dup1\n      dup4\n      mstore\n      swap2\n      swap3\n        /* \"contracts/Market.sol\":4337:4351  betPairs[_bet] */\n      swap1\n      swap2\n        /* \"contracts/Market.sol\":4311:4351  uint256[] memory _pairs = betPairs[_bet] */\n      swap1\n      dup4\n      add\n        /* \"contracts/Market.sol\":4337:4351  betPairs[_bet] */\n      dup3\n        /* \"contracts/Market.sol\":4311:4351  uint256[] memory _pairs = betPairs[_bet] */\n      dup3\n      dup1\n      iszero\n      tag_98\n      jumpi\n      0x20\n      mul\n      dup3\n      add\n      swap2\n      swap1\n      0x00\n      mstore\n      keccak256(0x00, 0x20)\n      swap1\n    tag_99:\n      dup2\n      sload\n      dup2\n      mstore\n      0x20\n      add\n      swap1\n      0x01\n      add\n      swap1\n      dup1\n      dup4\n      gt\n      tag_99\n      jumpi\n    tag_98:\n      pop\n      pop\n        /* \"contracts/Market.sol\":4380:4393  _pairs.length */\n      dup4\n      mload\n        /* \"contracts/Market.sol\":4311:4351  uint256[] memory _pairs = betPairs[_bet] */\n      swap4\n      swap5\n      pop\n        /* \"contracts/Market.sol\":4361:4377  uint pairsLength */\n      0x00\n      swap3\n      pop\n      pop\n      pop\n        /* \"contracts/Market.sol\":4403:4487  for(uint i = 0; i < pairsLength; i++){... */\n    tag_100:\n        /* \"contracts/Market.sol\":4423:4434  pairsLength */\n      dup2\n        /* \"contracts/Market.sol\":4419:4420  i */\n      dup2\n        /* \"contracts/Market.sol\":4419:4434  i < pairsLength */\n      lt\n        /* \"contracts/Market.sol\":4403:4487  for(uint i = 0; i < pairsLength; i++){... */\n      iszero\n      tag_101\n      jumpi\n        /* \"contracts/Market.sol\":4454:4476  _settlePair(_pairs[i]) */\n      tag_103\n        /* \"contracts/Market.sol\":4466:4472  _pairs */\n      dup4\n        /* \"contracts/Market.sol\":4473:4474  i */\n      dup3\n        /* \"contracts/Market.sol\":4466:4475  _pairs[i] */\n      dup2\n      mload\n      dup2\n      lt\n      tag_104\n      jumpi\n      mstore(0x00, shl(0xe0, 0x4e487b71))\n      mstore(0x04, 0x32)\n      revert(0x00, 0x24)\n    tag_104:\n      0x20\n      mul\n      0x20\n      add\n      add\n      mload\n        /* \"contracts/Market.sol\":4454:4465  _settlePair */\n      tag_105\n        /* \"contracts/Market.sol\":4454:4476  _settlePair(_pairs[i]) */\n      jump\t// in\n    tag_103:\n      pop\n        /* \"contracts/Market.sol\":4436:4439  i++ */\n      dup1\n      tag_106\n      dup2\n      tag_107\n      jump\t// in\n    tag_106:\n      swap2\n      pop\n      pop\n        /* \"contracts/Market.sol\":4403:4487  for(uint i = 0; i < pairsLength; i++){... */\n      jump(tag_100)\n    tag_101:\n      pop\n        /* \"contracts/Market.sol\":4503:4513  msg.sender */\n      caller\n        /* \"contracts/Market.sol\":4517:4518  0 */\n      0x00\n        /* \"contracts/Market.sol\":4499:4514  bal[msg.sender] */\n      swap1\n      dup2\n      mstore\n        /* \"contracts/Market.sol\":4499:4502  bal */\n      0x0a\n        /* \"contracts/Market.sol\":4499:4514  bal[msg.sender] */\n      0x20\n      mstore\n      0x40\n      swap1\n      keccak256\n      sload\n        /* \"contracts/Market.sol\":4499:4518  bal[msg.sender] > 0 */\n      iszero\n        /* \"contracts/Market.sol\":4496:4564  if(bal[msg.sender] > 0){... */\n      tag_108\n      jumpi\n        /* \"contracts/Market.sol\":4533:4553  withdraw(msg.sender) */\n      tag_109\n        /* \"contracts/Market.sol\":4542:4552  msg.sender */\n      caller\n        /* \"contracts/Market.sol\":4533:4541  withdraw */\n      tag_55\n        /* \"contracts/Market.sol\":4533:4553  withdraw(msg.sender) */\n      jump\t// in\n    tag_109:\n      pop\n        /* \"contracts/Market.sol\":4496:4564  if(bal[msg.sender] > 0){... */\n    tag_108:\n        /* \"contracts/Market.sol\":4250:4570  function settleBet(uint256 _bet) external override {... */\n      pop\n      pop\n      pop\n      jump\t// out\n        /* \"contracts/Market.sol\":6386:8819  function addBet(... */\n    tag_36:\n        /* \"contracts/Market.sol\":1033:1036  app */\n      sload(0x01)\n        /* \"contracts/Market.sol\":1033:1056  app.isBlack(msg.sender) */\n      mload(0x40)\n      shl(0xe0, 0x332daccf)\n      dup2\n      mstore\n        /* \"contracts/Market.sol\":1045:1055  msg.sender */\n      caller\n        /* \"contracts/Market.sol\":1033:1056  app.isBlack(msg.sender) */\n      0x04\n      dup3\n      add\n        /* \"#utility.yul\":2014:2065   */\n      mstore\n      sub(shl(0xa0, 0x01), 0x01)\n        /* \"contracts/Market.sol\":1033:1036  app */\n      swap1\n      swap2\n      and\n      swap1\n        /* \"contracts/Market.sol\":1033:1044  app.isBlack */\n      0x332daccf\n      swap1\n        /* \"#utility.yul\":1987:2005   */\n      0x24\n      add\n        /* \"contracts/Market.sol\":1033:1056  app.isBlack(msg.sender) */\n      0x20\n      mload(0x40)\n      dup1\n      dup4\n      sub\n      dup2\n      dup7\n      dup1\n      extcodesize\n      iszero\n      dup1\n      iszero\n      tag_113\n      jumpi\n      0x00\n      dup1\n      revert\n    tag_113:\n      pop\n      gas\n      staticcall\n      iszero\n      dup1\n      iszero\n      tag_115\n      jumpi\n      returndatasize\n      0x00\n      dup1\n      returndatacopy\n      revert(0x00, returndatasize)\n    tag_115:\n      pop\n      pop\n      pop\n      pop\n      mload(0x40)\n      returndatasize\n      not(0x1f)\n      0x1f\n      dup3\n      add\n      and\n      dup3\n      add\n      dup1\n      0x40\n      mstore\n      pop\n      dup2\n      add\n      swap1\n      tag_116\n      swap2\n      swap1\n      tag_117\n      jump\t// in\n    tag_116:\n        /* \"contracts/Market.sol\":1032:1056  !app.isBlack(msg.sender) */\n      iszero\n        /* \"contracts/Market.sol\":1024:1063  require(!app.isBlack(msg.sender), \"M1\") */\n      tag_118\n      jumpi\n      mload(0x40)\n      shl(0xe5, 0x461bcd)\n      dup2\n      mstore\n        /* \"#utility.yul\":7316:7318   */\n      0x20\n        /* \"contracts/Market.sol\":1024:1063  require(!app.isBlack(msg.sender), \"M1\") */\n      0x04\n      dup3\n      add\n        /* \"#utility.yul\":7298:7319   */\n      mstore\n        /* \"#utility.yul\":7355:7356   */\n      0x02\n        /* \"#utility.yul\":7335:7353   */\n      0x24\n      dup3\n      add\n        /* \"#utility.yul\":7328:7357   */\n      mstore\n      shl(0xf0, 0x4d31)\n        /* \"#utility.yul\":7373:7391   */\n      0x44\n      dup3\n      add\n        /* \"#utility.yul\":7366:7398   */\n      mstore\n        /* \"#utility.yul\":7415:7433   */\n      0x64\n      add\n        /* \"contracts/Market.sol\":1024:1063  require(!app.isBlack(msg.sender), \"M1\") */\n    tag_119:\n      mload(0x40)\n      dup1\n      swap2\n      sub\n      swap1\n      revert\n    tag_118:\n        /* \"contracts/Market.sol\":6615:6621  status */\n      sload(0x09)\n        /* \"contracts/Market.sol\":6615:6626  status == 0 */\n      iszero\n        /* \"contracts/Market.sol\":6607:6633  require(status == 0, \"M7\") */\n      tag_122\n      jumpi\n      mload(0x40)\n      shl(0xe5, 0x461bcd)\n      dup2\n      mstore\n        /* \"#utility.yul\":6655:6657   */\n      0x20\n        /* \"contracts/Market.sol\":6607:6633  require(status == 0, \"M7\") */\n      0x04\n      dup3\n      add\n        /* \"#utility.yul\":6637:6658   */\n      mstore\n        /* \"#utility.yul\":6694:6695   */\n      0x02\n        /* \"#utility.yul\":6674:6692   */\n      0x24\n      dup3\n      add\n        /* \"#utility.yul\":6667:6696   */\n      mstore\n      shl(0xf0, 0x4d37)\n        /* \"#utility.yul\":6712:6730   */\n      0x44\n      dup3\n      add\n        /* \"#utility.yul\":6705:6737   */\n      mstore\n        /* \"#utility.yul\":6754:6772   */\n      0x64\n      add\n        /* \"contracts/Market.sol\":6607:6633  require(status == 0, \"M7\") */\n      tag_119\n        /* \"#utility.yul\":6627:6778   */\n      jump\n        /* \"contracts/Market.sol\":6607:6633  require(status == 0, \"M7\") */\n    tag_122:\n        /* \"contracts/Market.sol\":6651:6656  _side */\n      dup2\n        /* \"contracts/Market.sol\":6660:6661  1 */\n      0x01\n        /* \"contracts/Market.sol\":6651:6661  _side == 1 */\n      eq\n        /* \"contracts/Market.sol\":6651:6675  _side == 1 || _side == 2 */\n      dup1\n      tag_125\n      jumpi\n      pop\n        /* \"contracts/Market.sol\":6665:6670  _side */\n      dup2\n        /* \"contracts/Market.sol\":6674:6675  2 */\n      0x02\n        /* \"contracts/Market.sol\":6665:6675  _side == 2 */\n      eq\n        /* \"contracts/Market.sol\":6651:6675  _side == 1 || _side == 2 */\n    tag_125:\n        /* \"contracts/Market.sol\":6643:6682  require(_side == 1 || _side == 2, \"M8\") */\n      tag_126\n      jumpi\n      mload(0x40)\n      shl(0xe5, 0x461bcd)\n      dup2\n      mstore\n        /* \"#utility.yul\":5334:5336   */\n      0x20\n        /* \"contracts/Market.sol\":6643:6682  require(_side == 1 || _side == 2, \"M8\") */\n      0x04\n      dup3\n      add\n        /* \"#utility.yul\":5316:5337   */\n      mstore\n        /* \"#utility.yul\":5373:5374   */\n      0x02\n        /* \"#utility.yul\":5353:5371   */\n      0x24\n      dup3\n      add\n        /* \"#utility.yul\":5346:5375   */\n      mstore\n      shl(0xf3, 0x09a7)\n        /* \"#utility.yul\":5391:5409   */\n      0x44\n      dup3\n      add\n        /* \"#utility.yul\":5384:5416   */\n      mstore\n        /* \"#utility.yul\":5433:5451   */\n      0x64\n      add\n        /* \"contracts/Market.sol\":6643:6682  require(_side == 1 || _side == 2, \"M8\") */\n      tag_119\n        /* \"#utility.yul\":5306:5457   */\n      jump\n        /* \"contracts/Market.sol\":6643:6682  require(_side == 1 || _side == 2, \"M8\") */\n    tag_126:\n        /* \"contracts/Market.sol\":6700:6727  token.balanceOf(msg.sender) */\n      mload(0x40)\n      shl(0xe0, 0x70a08231)\n      dup2\n      mstore\n        /* \"contracts/Market.sol\":6716:6726  msg.sender */\n      caller\n        /* \"contracts/Market.sol\":6700:6727  token.balanceOf(msg.sender) */\n      0x04\n      dup3\n      add\n        /* \"#utility.yul\":2014:2065   */\n      mstore\n        /* \"contracts/Market.sol\":6731:6737  _stake */\n      dup5\n      swap1\n        /* \"contracts/Market.sol\":6700:6705  token */\n      immutable(\"0x5b9d82bdb7ae056a203cf64bdf26f3fdec584cdfaca2ac8b4c3d0c5b66e90969\")\n      sub(shl(0xa0, 0x01), 0x01)\n        /* \"contracts/Market.sol\":6700:6715  token.balanceOf */\n      and\n      swap1\n      0x70a08231\n      swap1\n        /* \"#utility.yul\":1987:2005   */\n      0x24\n      add\n        /* \"contracts/Market.sol\":6700:6727  token.balanceOf(msg.sender) */\n      0x20\n      mload(0x40)\n      dup1\n      dup4\n      sub\n      dup2\n      dup7\n      dup1\n      extcodesize\n      iszero\n      dup1\n      iszero\n      tag_130\n      jumpi\n      0x00\n      dup1\n      revert\n    tag_130:\n      pop\n      gas\n      staticcall\n      iszero\n      dup1\n      iszero\n      tag_132\n      jumpi\n      returndatasize\n      0x00\n      dup1\n      returndatacopy\n      revert(0x00, returndatasize)\n    tag_132:\n      pop\n      pop\n      pop\n      pop\n      mload(0x40)\n      returndatasize\n      not(0x1f)\n      0x1f\n      dup3\n      add\n      and\n      dup3\n      add\n      dup1\n      0x40\n      mstore\n      pop\n      dup2\n      add\n      swap1\n      tag_133\n      swap2\n      swap1\n      tag_134\n      jump\t// in\n    tag_133:\n        /* \"contracts/Market.sol\":6700:6737  token.balanceOf(msg.sender) >= _stake */\n      lt\n      iszero\n        /* \"contracts/Market.sol\":6692:6743  require(token.balanceOf(msg.sender) >= _stake,\"M9\") */\n      tag_135\n      jumpi\n      mload(0x40)\n      shl(0xe5, 0x461bcd)\n      dup2\n      mstore\n        /* \"#utility.yul\":6325:6327   */\n      0x20\n        /* \"contracts/Market.sol\":6692:6743  require(token.balanceOf(msg.sender) >= _stake,\"M9\") */\n      0x04\n      dup3\n      add\n        /* \"#utility.yul\":6307:6328   */\n      mstore\n        /* \"#utility.yul\":6364:6365   */\n      0x02\n        /* \"#utility.yul\":6344:6362   */\n      0x24\n      dup3\n      add\n        /* \"#utility.yul\":6337:6366   */\n      mstore\n      shl(0xf0, 0x4d39)\n        /* \"#utility.yul\":6382:6400   */\n      0x44\n      dup3\n      add\n        /* \"#utility.yul\":6375:6407   */\n      mstore\n        /* \"#utility.yul\":6424:6442   */\n      0x64\n      add\n        /* \"contracts/Market.sol\":6692:6743  require(token.balanceOf(msg.sender) >= _stake,\"M9\") */\n      tag_119\n        /* \"#utility.yul\":6297:6448   */\n      jump\n        /* \"contracts/Market.sol\":6692:6743  require(token.balanceOf(msg.sender) >= _stake,\"M9\") */\n    tag_135:\n        /* \"contracts/Market.sol\":6761:6803  token.allowance(msg.sender, address(this)) */\n      mload(0x40)\n      shl(0xe1, 0x6eb1769f)\n      dup2\n      mstore\n        /* \"contracts/Market.sol\":6777:6787  msg.sender */\n      caller\n        /* \"contracts/Market.sol\":6761:6803  token.allowance(msg.sender, address(this)) */\n      0x04\n      dup3\n      add\n        /* \"#utility.yul\":2288:2322   */\n      mstore\n        /* \"contracts/Market.sol\":6797:6801  this */\n      address\n        /* \"#utility.yul\":2338:2356   */\n      0x24\n      dup3\n      add\n        /* \"#utility.yul\":2331:2374   */\n      mstore\n        /* \"contracts/Market.sol\":6807:6813  _stake */\n      dup5\n      swap1\n        /* \"contracts/Market.sol\":6761:6766  token */\n      immutable(\"0x5b9d82bdb7ae056a203cf64bdf26f3fdec584cdfaca2ac8b4c3d0c5b66e90969\")\n      sub(shl(0xa0, 0x01), 0x01)\n        /* \"contracts/Market.sol\":6761:6776  token.allowance */\n      and\n      swap1\n      0xdd62ed3e\n      swap1\n        /* \"#utility.yul\":2223:2241   */\n      0x44\n      add\n        /* \"contracts/Market.sol\":6761:6803  token.allowance(msg.sender, address(this)) */\n      0x20\n      mload(0x40)\n      dup1\n      dup4\n      sub\n      dup2\n      dup7\n      dup1\n      extcodesize\n      iszero\n      dup1\n      iszero\n      tag_140\n      jumpi\n      0x00\n      dup1\n      revert\n    tag_140:\n      pop\n      gas\n      staticcall\n      iszero\n      dup1\n      iszero\n      tag_142\n      jumpi\n      returndatasize\n      0x00\n      dup1\n      returndatacopy\n      revert(0x00, returndatasize)\n    tag_142:\n      pop\n      pop\n      pop\n      pop\n      mload(0x40)\n      returndatasize\n      not(0x1f)\n      0x1f\n      dup3\n      add\n      and\n      dup3\n      add\n      dup1\n      0x40\n      mstore\n      pop\n      dup2\n      add\n      swap1\n      tag_143\n      swap2\n      swap1\n      tag_134\n      jump\t// in\n    tag_143:\n        /* \"contracts/Market.sol\":6761:6813  token.allowance(msg.sender, address(this)) >= _stake */\n      lt\n      iszero\n        /* \"contracts/Market.sol\":6753:6820  require(token.allowance(msg.sender, address(this)) >= _stake,\"M10\") */\n      tag_144\n      jumpi\n      mload(0x40)\n      shl(0xe5, 0x461bcd)\n      dup2\n      mstore\n        /* \"#utility.yul\":6985:6987   */\n      0x20\n        /* \"contracts/Market.sol\":6753:6820  require(token.allowance(msg.sender, address(this)) >= _stake,\"M10\") */\n      0x04\n      dup3\n      add\n        /* \"#utility.yul\":6967:6988   */\n      mstore\n        /* \"#utility.yul\":7024:7025   */\n      0x03\n        /* \"#utility.yul\":7004:7022   */\n      0x24\n      dup3\n      add\n        /* \"#utility.yul\":6997:7026   */\n      mstore\n      shl(0xec, 0x04d313)\n        /* \"#utility.yul\":7042:7060   */\n      0x44\n      dup3\n      add\n        /* \"#utility.yul\":7035:7068   */\n      mstore\n        /* \"#utility.yul\":7085:7103   */\n      0x64\n      add\n        /* \"contracts/Market.sol\":6753:6820  require(token.allowance(msg.sender, address(this)) >= _stake,\"M10\") */\n      tag_119\n        /* \"#utility.yul\":6957:7109   */\n      jump\n        /* \"contracts/Market.sol\":6753:6820  require(token.allowance(msg.sender, address(this)) >= _stake,\"M10\") */\n    tag_144:\n        /* \"contracts/Market.sol\":6848:6858  a.minStake */\n      sload(0x04)\n        /* \"contracts/Market.sol\":6838:6858  _stake >= a.minStake */\n      dup5\n      lt\n      iszero\n        /* \"contracts/Market.sol\":6830:6865  require(_stake >= a.minStake,\"M11\") */\n      tag_147\n      jumpi\n      mload(0x40)\n      shl(0xe5, 0x461bcd)\n      dup2\n      mstore\n        /* \"#utility.yul\":8666:8668   */\n      0x20\n        /* \"contracts/Market.sol\":6830:6865  require(_stake >= a.minStake,\"M11\") */\n      0x04\n      dup3\n      add\n        /* \"#utility.yul\":8648:8669   */\n      mstore\n        /* \"#utility.yul\":8705:8706   */\n      0x03\n        /* \"#utility.yul\":8685:8703   */\n      0x24\n      dup3\n      add\n        /* \"#utility.yul\":8678:8707   */\n      mstore\n      shl(0xe8, 0x4d3131)\n        /* \"#utility.yul\":8723:8741   */\n      0x44\n      dup3\n      add\n        /* \"#utility.yul\":8716:8749   */\n      mstore\n        /* \"#utility.yul\":8766:8784   */\n      0x64\n      add\n        /* \"contracts/Market.sol\":6830:6865  require(_stake >= a.minStake,\"M11\") */\n      tag_119\n        /* \"#utility.yul\":8638:8790   */\n      jump\n        /* \"contracts/Market.sol\":6830:6865  require(_stake >= a.minStake,\"M11\") */\n    tag_147:\n        /* \"contracts/Market.sol\":6896:6949  token.transferFrom(msg.sender, address(this), _stake) */\n      mload(0x40)\n      shl(0xe0, 0x23b872dd)\n      dup2\n      mstore\n        /* \"contracts/Market.sol\":6915:6925  msg.sender */\n      caller\n        /* \"contracts/Market.sol\":6896:6949  token.transferFrom(msg.sender, address(this), _stake) */\n      0x04\n      dup3\n      add\n        /* \"#utility.yul\":2625:2659   */\n      mstore\n        /* \"contracts/Market.sol\":6935:6939  this */\n      address\n        /* \"#utility.yul\":2675:2693   */\n      0x24\n      dup3\n      add\n        /* \"#utility.yul\":2668:2711   */\n      mstore\n        /* \"#utility.yul\":2727:2745   */\n      0x44\n      dup2\n      add\n        /* \"#utility.yul\":2720:2754   */\n      dup6\n      swap1\n      mstore\n        /* \"contracts/Market.sol\":6896:6901  token */\n      immutable(\"0x5b9d82bdb7ae056a203cf64bdf26f3fdec584cdfaca2ac8b4c3d0c5b66e90969\")\n      sub(shl(0xa0, 0x01), 0x01)\n        /* \"contracts/Market.sol\":6896:6914  token.transferFrom */\n      and\n      swap1\n      0x23b872dd\n      swap1\n        /* \"#utility.yul\":2560:2578   */\n      0x64\n      add\n        /* \"contracts/Market.sol\":6896:6949  token.transferFrom(msg.sender, address(this), _stake) */\n      0x20\n      mload(0x40)\n      dup1\n      dup4\n      sub\n      dup2\n      0x00\n      dup8\n      dup1\n      extcodesize\n      iszero\n      dup1\n      iszero\n      tag_152\n      jumpi\n      0x00\n      dup1\n      revert\n    tag_152:\n      pop\n      gas\n      call\n      iszero\n      dup1\n      iszero\n      tag_154\n      jumpi\n      returndatasize\n      0x00\n      dup1\n      returndatacopy\n      revert(0x00, returndatasize)\n    tag_154:\n      pop\n      pop\n      pop\n      pop\n      mload(0x40)\n      returndatasize\n      not(0x1f)\n      0x1f\n      dup3\n      add\n      and\n      dup3\n      add\n      dup1\n      0x40\n      mstore\n      pop\n      dup2\n      add\n      swap1\n      tag_155\n      swap2\n      swap1\n      tag_117\n      jump\t// in\n    tag_155:\n        /* \"contracts/Market.sol\":6875:6978  require(... */\n      tag_156\n      jumpi\n      mload(0x40)\n      shl(0xe5, 0x461bcd)\n      dup2\n      mstore\n        /* \"#utility.yul\":5664:5666   */\n      0x20\n        /* \"contracts/Market.sol\":6875:6978  require(... */\n      0x04\n      dup3\n      add\n        /* \"#utility.yul\":5646:5667   */\n      mstore\n        /* \"#utility.yul\":5703:5704   */\n      0x03\n        /* \"#utility.yul\":5683:5701   */\n      0x24\n      dup3\n      add\n        /* \"#utility.yul\":5676:5705   */\n      mstore\n      shl(0xe9, 0x269899)\n        /* \"#utility.yul\":5721:5739   */\n      0x44\n      dup3\n      add\n        /* \"#utility.yul\":5714:5747   */\n      mstore\n        /* \"#utility.yul\":5764:5782   */\n      0x64\n      add\n        /* \"contracts/Market.sol\":6875:6978  require(... */\n      tag_119\n        /* \"#utility.yul\":5636:5788   */\n      jump\n        /* \"contracts/Market.sol\":6875:6978  require(... */\n    tag_156:\n        /* \"contracts/Market.sol\":6988:7173  _createBet(... */\n      tag_159\n        /* \"contracts/Market.sol\":7012:7022  msg.sender */\n      caller\n        /* \"contracts/Market.sol\":7036:7046  _affiliate */\n      dup8\n        /* \"contracts/Market.sol\":7060:7066  _betId */\n      dup8\n        /* \"contracts/Market.sol\":7080:7086  _stake */\n      dup8\n        /* \"contracts/Market.sol\":7100:7101  0 */\n      0x00\n        /* \"contracts/Market.sol\":7132:7143  _odds - 100 */\n      tag_160\n        /* \"contracts/Market.sol\":7140:7143  100 */\n      0x64\n        /* \"contracts/Market.sol\":7132:7137  _odds */\n      dup11\n        /* \"contracts/Market.sol\":7132:7143  _odds - 100 */\n      tag_161\n      jump\t// in\n    tag_160:\n        /* \"contracts/Market.sol\":7116:7127  _odds * 100 */\n      tag_162\n        /* \"contracts/Market.sol\":7116:7121  _odds */\n      dup11\n        /* \"contracts/Market.sol\":7124:7127  100 */\n      0x64\n        /* \"contracts/Market.sol\":7116:7127  _odds * 100 */\n      tag_163\n      jump\t// in\n    tag_162:\n        /* \"contracts/Market.sol\":7115:7144  (_odds * 100) / (_odds - 100) */\n      tag_164\n      swap2\n      swap1\n      tag_165\n      jump\t// in\n    tag_164:\n        /* \"contracts/Market.sol\":7158:7163  _side */\n      dup9\n        /* \"contracts/Market.sol\":6988:6998  _createBet */\n      tag_166\n        /* \"contracts/Market.sol\":6988:7173  _createBet(... */\n      jump\t// in\n    tag_159:\n        /* \"contracts/Market.sol\":7188:7255  BetCreated(msg.sender, address(this), _betId, _stake, _odds, _side) */\n      0x40\n      dup1\n      mload\n        /* \"contracts/Market.sol\":7199:7209  msg.sender */\n      caller\n        /* \"#utility.yul\":3090:3124   */\n      dup2\n      mstore\n        /* \"contracts/Market.sol\":7219:7223  this */\n      address\n        /* \"#utility.yul\":3155:3157   */\n      0x20\n        /* \"#utility.yul\":3140:3158   */\n      dup3\n      add\n        /* \"#utility.yul\":3133:3176   */\n      mstore\n        /* \"#utility.yul\":3192:3210   */\n      swap1\n      dup2\n      add\n        /* \"#utility.yul\":3185:3219   */\n      dup7\n      swap1\n      mstore\n        /* \"#utility.yul\":3250:3252   */\n      0x60\n        /* \"#utility.yul\":3235:3253   */\n      dup2\n      add\n        /* \"#utility.yul\":3228:3262   */\n      dup6\n      swap1\n      mstore\n        /* \"#utility.yul\":3293:3296   */\n      0x80\n        /* \"#utility.yul\":3278:3297   */\n      dup2\n      add\n        /* \"#utility.yul\":3271:3306   */\n      dup5\n      swap1\n      mstore\n        /* \"#utility.yul\":3070:3073   */\n      0xa0\n        /* \"#utility.yul\":3322:3341   */\n      dup2\n      add\n        /* \"#utility.yul\":3315:3350   */\n      dup4\n      swap1\n      mstore\n        /* \"contracts/Market.sol\":7188:7255  BetCreated(msg.sender, address(this), _betId, _stake, _odds, _side) */\n      0x8cecf46a208e9d1ccb2b669cf853fcedfa8d0bdcd56ed4631b5cb07740bc0b85\n      swap1\n        /* \"#utility.yul\":3039:3042   */\n      0xc0\n        /* \"#utility.yul\":3024:3043   */\n      add\n        /* \"contracts/Market.sol\":7188:7255  BetCreated(msg.sender, address(this), _betId, _stake, _odds, _side) */\n      mload(0x40)\n      dup1\n      swap2\n      sub\n      swap1\n      log1\n        /* \"contracts/Market.sol\":7501:7505  bets */\n      0x0b\n        /* \"contracts/Market.sol\":7501:7512  bets.length */\n      sload\n        /* \"contracts/Market.sol\":7501:7516  bets.length > 0 */\n      iszero\n        /* \"contracts/Market.sol\":7498:8813  if(bets.length > 0){... */\n      tag_169\n      jumpi\n        /* \"contracts/Market.sol\":7552:7556  bets */\n      0x0b\n        /* \"contracts/Market.sol\":7552:7563  bets.length */\n      sload\n        /* \"contracts/Market.sol\":7577:8803  while(_stake >= a.minStake){... */\n    tag_170:\n        /* \"contracts/Market.sol\":7593:7603  a.minStake */\n      sload(0x04)\n        /* \"contracts/Market.sol\":7583:7603  _stake >= a.minStake */\n      dup6\n      lt\n        /* \"contracts/Market.sol\":7577:8803  while(_stake >= a.minStake){... */\n      tag_171\n      jumpi\n        /* \"contracts/Market.sol\":7622:7640  uint selectedIndex */\n      0x00\n        /* \"contracts/Market.sol\":7662:7677  uint256 maxOdds */\n      dup1\n        /* \"contracts/Market.sol\":7703:7709  uint i */\n      0x00\n        /* \"contracts/Market.sol\":7699:8195  for(uint i = 0; i < betsLength; i++){... */\n    tag_172:\n        /* \"contracts/Market.sol\":7719:7729  betsLength */\n      dup4\n        /* \"contracts/Market.sol\":7715:7716  i */\n      dup2\n        /* \"contracts/Market.sol\":7715:7729  i < betsLength */\n      lt\n        /* \"contracts/Market.sol\":7699:8195  for(uint i = 0; i < betsLength; i++){... */\n      iszero\n      tag_173\n      jumpi\n        /* \"contracts/Market.sol\":7757:7768  uint256 bet */\n      0x00\n        /* \"contracts/Market.sol\":7771:7775  bets */\n      0x0b\n        /* \"contracts/Market.sol\":7776:7777  i */\n      dup3\n        /* \"contracts/Market.sol\":7771:7778  bets[i] */\n      dup2\n      sload\n      dup2\n      lt\n      tag_175\n      jumpi\n      mstore(0x00, shl(0xe0, 0x4e487b71))\n      mstore(0x04, 0x32)\n      revert(0x00, 0x24)\n    tag_175:\n      swap1\n      0x00\n      mstore\n      keccak256(0x00, 0x20)\n      add\n      sload\n        /* \"contracts/Market.sol\":7757:7778  uint256 bet = bets[i] */\n      swap1\n      pop\n        /* \"contracts/Market.sol\":7812:7820  betsInfo */\n      0x0d\n        /* \"contracts/Market.sol\":7812:7825  betsInfo[bet] */\n      0x00\n        /* \"contracts/Market.sol\":7821:7824  bet */\n      dup3\n        /* \"contracts/Market.sol\":7812:7825  betsInfo[bet] */\n      dup2\n      mstore\n      0x20\n      add\n      swap1\n      dup2\n      mstore\n      0x20\n      add\n      0x00\n      keccak256\n        /* \"contracts/Market.sol\":7812:7830  betsInfo[bet].side */\n      0x05\n      add\n      sload\n        /* \"contracts/Market.sol\":7803:7808  _side */\n      dup8\n        /* \"contracts/Market.sol\":7803:7830  _side == betsInfo[bet].side */\n      eq\n        /* \"contracts/Market.sol\":7800:7888  if(_side == betsInfo[bet].side){... */\n      iszero\n      tag_177\n      jumpi\n        /* \"contracts/Market.sol\":7857:7865  continue */\n      pop\n      jump(tag_174)\n        /* \"contracts/Market.sol\":7800:7888  if(_side == betsInfo[bet].side){... */\n    tag_177:\n        /* \"contracts/Market.sol\":7926:7939  betsInfo[bet] */\n      0x00\n      dup2\n      dup2\n      mstore\n        /* \"contracts/Market.sol\":7926:7934  betsInfo */\n      0x0d\n        /* \"contracts/Market.sol\":7926:7939  betsInfo[bet] */\n      0x20\n      mstore\n      0x40\n      swap1\n      keccak256\n        /* \"contracts/Market.sol\":7926:7946  betsInfo[bet].better */\n      sload\n      sub(shl(0xa0, 0x01), 0x01)\n      and\n        /* \"contracts/Market.sol\":7912:7922  msg.sender */\n      caller\n        /* \"contracts/Market.sol\":7912:7946  msg.sender == betsInfo[bet].better */\n      eq\n        /* \"contracts/Market.sol\":7909:8004  if(msg.sender == betsInfo[bet].better){... */\n      iszero\n      tag_178\n      jumpi\n        /* \"contracts/Market.sol\":7973:7981  continue */\n      pop\n      jump(tag_174)\n        /* \"contracts/Market.sol\":7909:8004  if(msg.sender == betsInfo[bet].better){... */\n    tag_178:\n        /* \"contracts/Market.sol\":8028:8041  betsInfo[bet] */\n      0x00\n      dup2\n      dup2\n      mstore\n        /* \"contracts/Market.sol\":8028:8036  betsInfo */\n      0x0d\n        /* \"contracts/Market.sol\":8028:8041  betsInfo[bet] */\n      0x20\n      mstore\n      0x40\n      swap1\n      keccak256\n        /* \"contracts/Market.sol\":8028:8046  betsInfo[bet].odds */\n      0x04\n      add\n      sload\n        /* \"contracts/Market.sol\":8028:8056  betsInfo[bet].odds > maxOdds */\n      dup4\n      lt\n        /* \"contracts/Market.sol\":8025:8177  if(betsInfo[bet].odds > maxOdds){... */\n      iszero\n      tag_179\n      jumpi\n        /* \"contracts/Market.sol\":8093:8106  betsInfo[bet] */\n      0x00\n      dup2\n      dup2\n      mstore\n        /* \"contracts/Market.sol\":8093:8101  betsInfo */\n      0x0d\n        /* \"contracts/Market.sol\":8093:8106  betsInfo[bet] */\n      0x20\n      mstore\n      0x40\n      swap1\n      keccak256\n        /* \"contracts/Market.sol\":8093:8111  betsInfo[bet].odds */\n      0x04\n      add\n      sload\n        /* \"contracts/Market.sol\":8153:8154  i */\n      swap2\n      swap4\n      pop\n        /* \"contracts/Market.sol\":8093:8111  betsInfo[bet].odds */\n      swap1\n      swap2\n      pop\n        /* \"contracts/Market.sol\":8153:8154  i */\n      dup3\n      swap1\n        /* \"contracts/Market.sol\":8025:8177  if(betsInfo[bet].odds > maxOdds){... */\n    tag_179:\n        /* \"contracts/Market.sol\":7699:8195  for(uint i = 0; i < betsLength; i++){... */\n      pop\n    tag_174:\n        /* \"contracts/Market.sol\":7731:7734  i++ */\n      dup1\n      tag_180\n      dup2\n      tag_107\n      jump\t// in\n    tag_180:\n      swap2\n      pop\n      pop\n        /* \"contracts/Market.sol\":7699:8195  for(uint i = 0; i < betsLength; i++){... */\n      jump(tag_172)\n    tag_173:\n      pop\n        /* \"contracts/Market.sol\":8212:8232  uint256 betterAmount */\n      0x00\n        /* \"contracts/Market.sol\":8268:8273  _odds */\n      dup7\n        /* \"contracts/Market.sol\":8257:8264  maxOdds */\n      dup3\n        /* \"contracts/Market.sol\":8257:8273  maxOdds >= _odds */\n      lt\n      iszero\n        /* \"contracts/Market.sol\":8257:8302  maxOdds >= _odds || (maxOdds > 0 && _instant) */\n      dup1\n      tag_182\n      jumpi\n      pop\n        /* \"contracts/Market.sol\":8288:8289  0 */\n      0x00\n        /* \"contracts/Market.sol\":8278:8285  maxOdds */\n      dup3\n        /* \"contracts/Market.sol\":8278:8289  maxOdds > 0 */\n      gt\n        /* \"contracts/Market.sol\":8278:8301  maxOdds > 0 && _instant */\n      dup1\n      iszero\n      tag_182\n      jumpi\n      pop\n        /* \"contracts/Market.sol\":8293:8301  _instant */\n      dup5\n        /* \"contracts/Market.sol\":8278:8301  maxOdds > 0 && _instant */\n    tag_182:\n        /* \"contracts/Market.sol\":8254:8749  if(maxOdds >= _odds || (maxOdds > 0 && _instant)) {... */\n      iszero\n      tag_183\n      jumpi\n        /* \"contracts/Market.sol\":8326:8361  Struct.MarketBet memory selectedBet */\n      0x00\n        /* \"contracts/Market.sol\":8364:8372  betsInfo */\n      0x0d\n        /* \"contracts/Market.sol\":8364:8393  betsInfo[bets[selectedIndex]] */\n      0x00\n        /* \"contracts/Market.sol\":8373:8377  bets */\n      0x0b\n        /* \"contracts/Market.sol\":8378:8391  selectedIndex */\n      dup7\n        /* \"contracts/Market.sol\":8373:8392  bets[selectedIndex] */\n      dup2\n      sload\n      dup2\n      lt\n      tag_184\n      jumpi\n      mstore(0x00, shl(0xe0, 0x4e487b71))\n      mstore(0x04, 0x32)\n      revert(0x00, 0x24)\n    tag_184:\n      0x00\n      swap2\n      dup3\n      mstore\n      0x20\n      dup1\n      dup4\n      keccak256\n      swap1\n      swap2\n      add\n      sload\n        /* \"contracts/Market.sol\":8364:8393  betsInfo[bets[selectedIndex]] */\n      dup4\n      mstore\n      dup3\n      dup2\n      add\n      swap4\n      swap1\n      swap4\n      mstore\n      0x40\n      swap2\n      dup3\n      add\n      dup2\n      keccak256\n        /* \"contracts/Market.sol\":8326:8393  Struct.MarketBet memory selectedBet = betsInfo[bets[selectedIndex]] */\n      dup3\n      mload\n      0xc0\n      dup2\n      add\n      dup5\n      mstore\n      dup2\n      sload\n      sub(shl(0xa0, 0x01), 0x01)\n      swap1\n      dup2\n      and\n      dup3\n      mstore\n      0x01\n      dup4\n      add\n      sload\n      and\n      swap5\n      dup2\n      add\n      swap5\n      swap1\n      swap5\n      mstore\n      0x02\n      dup2\n      add\n      sload\n      swap3\n      dup5\n      add\n      swap3\n      swap1\n      swap3\n      mstore\n      0x03\n      dup3\n      add\n      sload\n      0x60\n      dup5\n      add\n      mstore\n      0x04\n      dup3\n      add\n      sload\n      0x80\n      dup5\n      add\n      mstore\n      0x05\n      swap1\n      swap2\n      add\n      sload\n      0xa0\n      dup4\n      add\n      mstore\n      swap1\n      swap2\n      pop\n        /* \"contracts/Market.sol\":8480:8491  _odds - 100 */\n      tag_186\n        /* \"contracts/Market.sol\":8488:8491  100 */\n      0x64\n        /* \"contracts/Market.sol\":8480:8485  _odds */\n      dup11\n        /* \"contracts/Market.sol\":8480:8491  _odds - 100 */\n      tag_161\n      jump\t// in\n    tag_186:\n        /* \"contracts/Market.sol\":8456:8467  selectedBet */\n      dup3\n        /* \"contracts/Market.sol\":8456:8475  selectedBet.matched */\n      0x60\n      add\n      mload\n        /* \"contracts/Market.sol\":8436:8447  selectedBet */\n      dup4\n        /* \"contracts/Market.sol\":8436:8453  selectedBet.stake */\n      0x40\n      add\n      mload\n        /* \"contracts/Market.sol\":8436:8475  selectedBet.stake - selectedBet.matched */\n      tag_187\n      swap2\n      swap1\n      tag_161\n      jump\t// in\n    tag_187:\n        /* \"contracts/Market.sol\":8435:8492  (selectedBet.stake - selectedBet.matched) / (_odds - 100) */\n      tag_188\n      swap2\n      swap1\n      tag_165\n      jump\t// in\n    tag_188:\n        /* \"contracts/Market.sol\":8415:8492  uint offeredStake = (selectedBet.stake - selectedBet.matched) / (_odds - 100) */\n      swap1\n      pop\n        /* \"contracts/Market.sol\":8514:8533  offeredStake *= 100 */\n      tag_189\n        /* \"contracts/Market.sol\":8530:8533  100 */\n      0x64\n        /* \"contracts/Market.sol\":8415:8492  uint offeredStake = (selectedBet.stake - selectedBet.matched) / (_odds - 100) */\n      dup3\n        /* \"contracts/Market.sol\":8514:8533  offeredStake *= 100 */\n      tag_163\n      jump\t// in\n    tag_189:\n      swap1\n      pop\n        /* \"contracts/Market.sol\":8591:8662  _match(_stake, offeredStake, _odds, _side, _betId, bets[selectedIndex]) */\n      tag_190\n        /* \"contracts/Market.sol\":8598:8604  _stake */\n      dup11\n        /* \"contracts/Market.sol\":8606:8618  offeredStake */\n      dup3\n        /* \"contracts/Market.sol\":8620:8625  _odds */\n      dup12\n        /* \"contracts/Market.sol\":8627:8632  _side */\n      dup12\n        /* \"contracts/Market.sol\":8634:8640  _betId */\n      dup16\n        /* \"contracts/Market.sol\":8642:8646  bets */\n      0x0b\n        /* \"contracts/Market.sol\":8647:8660  selectedIndex */\n      dup12\n        /* \"contracts/Market.sol\":8642:8661  bets[selectedIndex] */\n      dup2\n      sload\n      dup2\n      lt\n      tag_191\n      jumpi\n      mstore(0x00, shl(0xe0, 0x4e487b71))\n      mstore(0x04, 0x32)\n      revert(0x00, 0x24)\n    tag_191:\n      swap1\n      0x00\n      mstore\n      keccak256(0x00, 0x20)\n      add\n      sload\n        /* \"contracts/Market.sol\":8591:8597  _match */\n      tag_193\n        /* \"contracts/Market.sol\":8591:8662  _match(_stake, offeredStake, _odds, _side, _betId, bets[selectedIndex]) */\n      jump\t// in\n    tag_190:\n        /* \"contracts/Market.sol\":8576:8662  betterAmount = _match(_stake, offeredStake, _odds, _side, _betId, bets[selectedIndex]) */\n      swap3\n      pop\n        /* \"contracts/Market.sol\":8254:8749  if(maxOdds >= _odds || (maxOdds > 0 && _instant)) {... */\n      pop\n      pop\n      jump(tag_194)\n    tag_183:\n        /* \"contracts/Market.sol\":8725:8730  break */\n      pop\n      pop\n      pop\n      jump(tag_171)\n        /* \"contracts/Market.sol\":8254:8749  if(maxOdds >= _odds || (maxOdds > 0 && _instant)) {... */\n    tag_194:\n        /* \"contracts/Market.sol\":8766:8788  _stake -= betterAmount */\n      tag_195\n        /* \"contracts/Market.sol\":8776:8788  betterAmount */\n      dup2\n        /* \"contracts/Market.sol\":8766:8788  _stake -= betterAmount */\n      dup10\n      tag_161\n      jump\t// in\n    tag_195:\n      swap8\n      pop\n        /* \"contracts/Market.sol\":7577:8803  while(_stake >= a.minStake){... */\n      pop\n      pop\n      pop\n      jump(tag_170)\n    tag_171:\n        /* \"contracts/Market.sol\":7498:8813  if(bets.length > 0){... */\n      pop\n    tag_169:\n        /* \"contracts/Market.sol\":6386:8819  function addBet(... */\n      pop\n      pop\n      pop\n      pop\n      pop\n      pop\n      jump\t// out\n        /* \"contracts/Market.sol\":1853:1991  function getUserBets(address _user) ... */\n    tag_44:\n      sub(shl(0xa0, 0x01), 0x01)\n        /* \"contracts/Market.sol\":1969:1984  userBets[_user] */\n      dup2\n      and\n      0x00\n      swap1\n      dup2\n      mstore\n        /* \"contracts/Market.sol\":1969:1977  userBets */\n      0x0c\n        /* \"contracts/Market.sol\":1969:1984  userBets[_user] */\n      0x20\n      swap1\n      dup2\n      mstore\n      0x40\n      swap2\n      dup3\n      swap1\n      keccak256\n        /* \"contracts/Market.sol\":1962:1984  return userBets[_user] */\n      dup1\n      sload\n      dup4\n      mload\n      dup2\n      dup5\n      mul\n      dup2\n      add\n      dup5\n      add\n      swap1\n      swap5\n      mstore\n      dup1\n      dup5\n      mstore\n        /* \"contracts/Market.sol\":1929:1945  uint256[] memory */\n      0x60\n      swap4\n        /* \"contracts/Market.sol\":1962:1984  return userBets[_user] */\n      swap3\n      dup4\n      add\n        /* \"contracts/Market.sol\":1969:1984  userBets[_user] */\n      dup3\n        /* \"contracts/Market.sol\":1962:1984  return userBets[_user] */\n      dup3\n      dup1\n      iszero\n      tag_197\n      jumpi\n      0x20\n      mul\n      dup3\n      add\n      swap2\n      swap1\n      0x00\n      mstore\n      keccak256(0x00, 0x20)\n      swap1\n    tag_198:\n      dup2\n      sload\n      dup2\n      mstore\n      0x20\n      add\n      swap1\n      0x01\n      add\n      swap1\n      dup1\n      dup4\n      gt\n      tag_198\n      jumpi\n    tag_197:\n      pop\n      pop\n      pop\n      pop\n      pop\n      swap1\n      pop\n        /* \"contracts/Market.sol\":1853:1991  function getUserBets(address _user) ... */\n      swap2\n      swap1\n      pop\n      jump\t// out\n        /* \"contracts/Market.sol\":3522:3894  function withdrawPending(uint256 _bet) public override {... */\n    tag_49:\n        /* \"contracts/Market.sol\":3587:3614  Struct.MarketBet memory bet */\n      0x00\n        /* \"contracts/Market.sol\":3617:3631  betsInfo[_bet] */\n      dup2\n      dup2\n      mstore\n        /* \"contracts/Market.sol\":3617:3625  betsInfo */\n      0x0d\n        /* \"contracts/Market.sol\":3617:3631  betsInfo[_bet] */\n      0x20\n      swap1\n      dup2\n      mstore\n      0x40\n      swap2\n      dup3\n      swap1\n      keccak256\n        /* \"contracts/Market.sol\":3587:3631  Struct.MarketBet memory bet = betsInfo[_bet] */\n      dup3\n      mload\n      0xc0\n      dup2\n      add\n      dup5\n      mstore\n      dup2\n      sload\n      sub(shl(0xa0, 0x01), 0x01)\n      swap1\n      dup2\n      and\n      dup1\n      dup4\n      mstore\n      0x01\n      dup5\n      add\n      sload\n      swap1\n      swap2\n      and\n      swap4\n      dup3\n      add\n      swap4\n      swap1\n      swap4\n      mstore\n      0x02\n      dup3\n      add\n      sload\n      swap4\n      dup2\n      add\n      swap4\n      swap1\n      swap4\n      mstore\n      0x03\n      dup2\n      add\n      sload\n      0x60\n      dup5\n      add\n      mstore\n      0x04\n      dup2\n      add\n      sload\n      0x80\n      dup5\n      add\n      mstore\n      0x05\n      add\n      sload\n      0xa0\n      dup4\n      add\n      mstore\n        /* \"contracts/Market.sol\":3649:3659  msg.sender */\n      caller\n        /* \"contracts/Market.sol\":3649:3673  msg.sender == bet.better */\n      eq\n        /* \"contracts/Market.sol\":3641:3680  require(msg.sender == bet.better, \"M5\") */\n      tag_200\n      jumpi\n      mload(0x40)\n      shl(0xe5, 0x461bcd)\n      dup2\n      mstore\n        /* \"#utility.yul\":5004:5006   */\n      0x20\n        /* \"contracts/Market.sol\":3641:3680  require(msg.sender == bet.better, \"M5\") */\n      0x04\n      dup3\n      add\n        /* \"#utility.yul\":4986:5007   */\n      mstore\n        /* \"#utility.yul\":5043:5044   */\n      0x02\n        /* \"#utility.yul\":5023:5041   */\n      0x24\n      dup3\n      add\n        /* \"#utility.yul\":5016:5045   */\n      mstore\n      shl(0xf0, 0x4d35)\n        /* \"#utility.yul\":5061:5079   */\n      0x44\n      dup3\n      add\n        /* \"#utility.yul\":5054:5086   */\n      mstore\n        /* \"#utility.yul\":5103:5121   */\n      0x64\n      add\n        /* \"contracts/Market.sol\":3641:3680  require(msg.sender == bet.better, \"M5\") */\n      tag_119\n        /* \"#utility.yul\":4976:5127   */\n      jump\n        /* \"contracts/Market.sol\":3641:3680  require(msg.sender == bet.better, \"M5\") */\n    tag_200:\n        /* \"contracts/Market.sol\":3690:3703  uint remStake */\n      0x00\n        /* \"contracts/Market.sol\":3718:3721  bet */\n      dup2\n        /* \"contracts/Market.sol\":3718:3729  bet.matched */\n      0x60\n      add\n      mload\n        /* \"contracts/Market.sol\":3706:3709  bet */\n      dup3\n        /* \"contracts/Market.sol\":3706:3715  bet.stake */\n      0x40\n      add\n      mload\n        /* \"contracts/Market.sol\":3706:3729  bet.stake - bet.matched */\n      tag_203\n      swap2\n      swap1\n      tag_161\n      jump\t// in\n    tag_203:\n        /* \"contracts/Market.sol\":3743:3753  bet.better */\n      dup3\n      mload\n      sub(shl(0xa0, 0x01), 0x01)\n        /* \"contracts/Market.sol\":3739:3754  bal[bet.better] */\n      and\n      0x00\n      swap1\n      dup2\n      mstore\n        /* \"contracts/Market.sol\":3739:3742  bal */\n      0x0a\n        /* \"contracts/Market.sol\":3739:3754  bal[bet.better] */\n      0x20\n      mstore\n      0x40\n      dup2\n      keccak256\n        /* \"contracts/Market.sol\":3739:3766  bal[bet.better] += remStake */\n      dup1\n      sload\n        /* \"contracts/Market.sol\":3690:3729  uint remStake = bet.stake - bet.matched */\n      swap3\n      swap4\n      pop\n      dup4\n      swap3\n        /* \"contracts/Market.sol\":3739:3754  bal[bet.better] */\n      swap1\n      swap2\n      swap1\n        /* \"contracts/Market.sol\":3739:3766  bal[bet.better] += remStake */\n      tag_204\n      swap1\n        /* \"contracts/Market.sol\":3690:3729  uint remStake = bet.stake - bet.matched */\n      dup5\n      swap1\n        /* \"contracts/Market.sol\":3739:3766  bal[bet.better] += remStake */\n      tag_205\n      jump\t// in\n    tag_204:\n      swap1\n      swap2\n      sstore\n      pop\n      pop\n        /* \"contracts/Market.sol\":3801:3810  bet.stake */\n      0x40\n      dup1\n      dup4\n      add\n      mload\n        /* \"contracts/Market.sol\":3776:3790  betsInfo[_bet] */\n      0x00\n      dup6\n      dup2\n      mstore\n        /* \"contracts/Market.sol\":3776:3784  betsInfo */\n      0x0d\n        /* \"contracts/Market.sol\":3776:3790  betsInfo[_bet] */\n      0x20\n      swap1\n      dup2\n      mstore\n      dup4\n      dup3\n      keccak256\n        /* \"contracts/Market.sol\":3776:3798  betsInfo[_bet].matched */\n      0x03\n      add\n        /* \"contracts/Market.sol\":3776:3810  betsInfo[_bet].matched = bet.stake */\n      swap3\n      swap1\n      swap3\n      sstore\n        /* \"contracts/Market.sol\":3827:3837  msg.sender */\n      caller\n        /* \"contracts/Market.sol\":3823:3838  bal[msg.sender] */\n      dup2\n      mstore\n        /* \"contracts/Market.sol\":3823:3826  bal */\n      0x0a\n        /* \"contracts/Market.sol\":3823:3838  bal[msg.sender] */\n      swap1\n      swap2\n      mstore\n      keccak256\n      sload\n        /* \"contracts/Market.sol\":3823:3842  bal[msg.sender] > 0 */\n      iszero\n        /* \"contracts/Market.sol\":3820:3888  if(bal[msg.sender] > 0){... */\n      tag_108\n      jumpi\n        /* \"contracts/Market.sol\":3857:3877  withdraw(msg.sender) */\n      tag_109\n        /* \"contracts/Market.sol\":3866:3876  msg.sender */\n      caller\n        /* \"contracts/Market.sol\":3857:3865  withdraw */\n      tag_55\n        /* \"contracts/Market.sol\":3857:3877  withdraw(msg.sender) */\n      jump\t// in\n        /* \"contracts/Market.sol\":3955:4189  function cancelBet(uint256 _bet) external override {... */\n    tag_52:\n        /* \"contracts/Market.sol\":4038:4052  betsInfo[_bet] */\n      0x00\n      dup2\n      dup2\n      mstore\n        /* \"contracts/Market.sol\":4038:4046  betsInfo */\n      0x0d\n        /* \"contracts/Market.sol\":4038:4052  betsInfo[_bet] */\n      0x20\n      mstore\n      0x40\n      swap1\n      keccak256\n        /* \"contracts/Market.sol\":4038:4059  betsInfo[_bet].better */\n      sload\n      sub(shl(0xa0, 0x01), 0x01)\n      and\n        /* \"contracts/Market.sol\":4024:4034  msg.sender */\n      caller\n        /* \"contracts/Market.sol\":4024:4059  msg.sender == betsInfo[_bet].better */\n      eq\n        /* \"contracts/Market.sol\":4016:4066  require(msg.sender == betsInfo[_bet].better, \"M6\") */\n      tag_209\n      jumpi\n      mload(0x40)\n      shl(0xe5, 0x461bcd)\n      dup2\n      mstore\n        /* \"#utility.yul\":4674:4676   */\n      0x20\n        /* \"contracts/Market.sol\":4016:4066  require(msg.sender == betsInfo[_bet].better, \"M6\") */\n      0x04\n      dup3\n      add\n        /* \"#utility.yul\":4656:4677   */\n      mstore\n        /* \"#utility.yul\":4713:4714   */\n      0x02\n        /* \"#utility.yul\":4693:4711   */\n      0x24\n      dup3\n      add\n        /* \"#utility.yul\":4686:4715   */\n      mstore\n      shl(0xf1, 0x269b)\n        /* \"#utility.yul\":4731:4749   */\n      0x44\n      dup3\n      add\n        /* \"#utility.yul\":4724:4756   */\n      mstore\n        /* \"#utility.yul\":4773:4791   */\n      0x64\n      add\n        /* \"contracts/Market.sol\":4016:4066  require(msg.sender == betsInfo[_bet].better, \"M6\") */\n      tag_119\n        /* \"#utility.yul\":4646:4797   */\n      jump\n        /* \"contracts/Market.sol\":4016:4066  require(msg.sender == betsInfo[_bet].better, \"M6\") */\n    tag_209:\n        /* \"contracts/Market.sol\":4079:4085  status */\n      sload(0x09)\n        /* \"contracts/Market.sol\":4079:4090  status == 0 */\n      iszero\n      dup1\n        /* \"contracts/Market.sol\":4079:4105  status == 0 || status == 3 */\n      tag_212\n      jumpi\n      pop\n        /* \"contracts/Market.sol\":4094:4100  status */\n      sload(0x09)\n        /* \"contracts/Market.sol\":4104:4105  3 */\n      0x03\n        /* \"contracts/Market.sol\":4094:4105  status == 3 */\n      eq\n        /* \"contracts/Market.sol\":4079:4105  status == 0 || status == 3 */\n    tag_212:\n        /* \"contracts/Market.sol\":4076:4152  if(status == 0 || status == 3){... */\n      iszero\n      tag_213\n      jumpi\n        /* \"contracts/Market.sol\":4120:4141  _cancelBetPairs(_bet) */\n      tag_214\n        /* \"contracts/Market.sol\":4136:4140  _bet */\n      dup2\n        /* \"contracts/Market.sol\":4120:4135  _cancelBetPairs */\n      tag_215\n        /* \"contracts/Market.sol\":4120:4141  _cancelBetPairs(_bet) */\n      jump\t// in\n    tag_214:\n      pop\n        /* \"contracts/Market.sol\":4076:4152  if(status == 0 || status == 3){... */\n    tag_213:\n        /* \"contracts/Market.sol\":4161:4182  withdrawPending(_bet) */\n      tag_216\n        /* \"contracts/Market.sol\":4177:4181  _bet */\n      dup2\n        /* \"contracts/Market.sol\":4161:4176  withdrawPending */\n      tag_49\n        /* \"contracts/Market.sol\":4161:4182  withdrawPending(_bet) */\n      jump\t// in\n    tag_216:\n        /* \"contracts/Market.sol\":3955:4189  function cancelBet(uint256 _bet) external override {... */\n      pop\n      jump\t// out\n        /* \"contracts/Market.sol\":2993:3419  function withdraw(address _user) public override nonReentrant returns(bool) {... */\n    tag_55:\n        /* \"contracts/Market.sol\":3063:3067  bool */\n      0x00\n        /* \"contracts/ReentrancyGuard.sol\":1744:1745  2 */\n      0x02\n        /* \"contracts/ReentrancyGuard.sol\":2325:2332  _status */\n      sload(0x00)\n        /* \"contracts/ReentrancyGuard.sol\":2325:2344  _status != _ENTERED */\n      eq\n      iszero\n        /* \"contracts/ReentrancyGuard.sol\":2317:2380  require(_status != _ENTERED, \"ReentrancyGuard: reentrant call\") */\n      tag_218\n      jumpi\n      mload(0x40)\n      shl(0xe5, 0x461bcd)\n      dup2\n      mstore\n        /* \"#utility.yul\":8306:8308   */\n      0x20\n        /* \"contracts/ReentrancyGuard.sol\":2317:2380  require(_status != _ENTERED, \"ReentrancyGuard: reentrant call\") */\n      0x04\n      dup3\n      add\n        /* \"#utility.yul\":8288:8309   */\n      mstore\n        /* \"#utility.yul\":8345:8347   */\n      0x1f\n        /* \"#utility.yul\":8325:8343   */\n      0x24\n      dup3\n      add\n        /* \"#utility.yul\":8318:8348   */\n      mstore\n        /* \"#utility.yul\":8384:8417   */\n      0x5265656e7472616e637947756172643a207265656e7472616e742063616c6c00\n        /* \"#utility.yul\":8364:8382   */\n      0x44\n      dup3\n      add\n        /* \"#utility.yul\":8357:8418   */\n      mstore\n        /* \"#utility.yul\":8435:8453   */\n      0x64\n      add\n        /* \"contracts/ReentrancyGuard.sol\":2317:2380  require(_status != _ENTERED, \"ReentrancyGuard: reentrant call\") */\n      tag_119\n        /* \"#utility.yul\":8278:8459   */\n      jump\n        /* \"contracts/ReentrancyGuard.sol\":2317:2380  require(_status != _ENTERED, \"ReentrancyGuard: reentrant call\") */\n    tag_218:\n        /* \"contracts/ReentrancyGuard.sol\":1744:1745  2 */\n      0x02\n        /* \"contracts/ReentrancyGuard.sol\":2455:2462  _status */\n      0x00\n        /* \"contracts/ReentrancyGuard.sol\":2455:2473  _status = _ENTERED */\n      swap1\n      dup2\n      sstore\n      sub(shl(0xa0, 0x01), 0x01)\n        /* \"contracts/Market.sol\":3134:3144  bal[_user] */\n      dup4\n      dup2\n      and\n      dup3\n      mstore\n        /* \"contracts/Market.sol\":3134:3137  bal */\n      0x0a\n        /* \"contracts/Market.sol\":3134:3144  bal[_user] */\n      0x20\n      mstore\n      0x40\n      swap2\n      dup3\n      swap1\n      keccak256\n      sload\n        /* \"contracts/Market.sol\":3100:3130  token.balanceOf(address(this)) */\n      swap2\n      mload\n      shl(0xe0, 0x70a08231)\n      dup2\n      mstore\n        /* \"contracts/Market.sol\":3124:3128  this */\n      address\n        /* \"contracts/Market.sol\":3100:3130  token.balanceOf(address(this)) */\n      0x04\n      dup3\n      add\n        /* \"#utility.yul\":2014:2065   */\n      mstore\n        /* \"contracts/Market.sol\":3100:3105  token */\n      immutable(\"0x5b9d82bdb7ae056a203cf64bdf26f3fdec584cdfaca2ac8b4c3d0c5b66e90969\")\n        /* \"contracts/Market.sol\":3100:3115  token.balanceOf */\n      swap1\n      swap2\n      and\n      swap1\n      0x70a08231\n      swap1\n        /* \"#utility.yul\":1987:2005   */\n      0x24\n      add\n        /* \"contracts/Market.sol\":3100:3130  token.balanceOf(address(this)) */\n      0x20\n      mload(0x40)\n      dup1\n      dup4\n      sub\n      dup2\n      dup7\n      dup1\n      extcodesize\n      iszero\n      dup1\n      iszero\n      tag_223\n      jumpi\n      0x00\n      dup1\n      revert\n    tag_223:\n      pop\n      gas\n      staticcall\n      iszero\n      dup1\n      iszero\n      tag_225\n      jumpi\n      returndatasize\n      0x00\n      dup1\n      returndatacopy\n      revert(0x00, returndatasize)\n    tag_225:\n      pop\n      pop\n      pop\n      pop\n      mload(0x40)\n      returndatasize\n      not(0x1f)\n      0x1f\n      dup3\n      add\n      and\n      dup3\n      add\n      dup1\n      0x40\n      mstore\n      pop\n      dup2\n      add\n      swap1\n      tag_226\n      swap2\n      swap1\n      tag_134\n      jump\t// in\n    tag_226:\n        /* \"contracts/Market.sol\":3100:3144  token.balanceOf(address(this)) >= bal[_user] */\n      lt\n      iszero\n        /* \"contracts/Market.sol\":3100:3162  token.balanceOf(address(this)) >= bal[_user] && bal[_user] > 0 */\n      dup1\n      iszero\n      tag_227\n      jumpi\n      pop\n      sub(shl(0xa0, 0x01), 0x01)\n        /* \"contracts/Market.sol\":3148:3158  bal[_user] */\n      dup3\n      and\n        /* \"contracts/Market.sol\":3161:3162  0 */\n      0x00\n        /* \"contracts/Market.sol\":3148:3158  bal[_user] */\n      swap1\n      dup2\n      mstore\n        /* \"contracts/Market.sol\":3148:3151  bal */\n      0x0a\n        /* \"contracts/Market.sol\":3148:3158  bal[_user] */\n      0x20\n      mstore\n      0x40\n      swap1\n      keccak256\n      sload\n        /* \"contracts/Market.sol\":3148:3162  bal[_user] > 0 */\n      iszero\n      iszero\n        /* \"contracts/Market.sol\":3100:3162  token.balanceOf(address(this)) >= bal[_user] && bal[_user] > 0 */\n    tag_227:\n        /* \"contracts/Market.sol\":3079:3190  require(... */\n      tag_228\n      jumpi\n      mload(0x40)\n      shl(0xe5, 0x461bcd)\n      dup2\n      mstore\n        /* \"#utility.yul\":5995:5997   */\n      0x20\n        /* \"contracts/Market.sol\":3079:3190  require(... */\n      0x04\n      dup3\n      add\n        /* \"#utility.yul\":5977:5998   */\n      mstore\n        /* \"#utility.yul\":6034:6035   */\n      0x02\n        /* \"#utility.yul\":6014:6032   */\n      0x24\n      dup3\n      add\n        /* \"#utility.yul\":6007:6036   */\n      mstore\n      shl(0xf0, 0x4d33)\n        /* \"#utility.yul\":6052:6070   */\n      0x44\n      dup3\n      add\n        /* \"#utility.yul\":6045:6077   */\n      mstore\n        /* \"#utility.yul\":6094:6112   */\n      0x64\n      add\n        /* \"contracts/Market.sol\":3079:3190  require(... */\n      tag_119\n        /* \"#utility.yul\":5967:6118   */\n      jump\n        /* \"contracts/Market.sol\":3079:3190  require(... */\n    tag_228:\n      sub(shl(0xa0, 0x01), 0x01)\n        /* \"contracts/Market.sol\":3222:3232  bal[_user] */\n      dup3\n      dup2\n      and\n        /* \"contracts/Market.sol\":3200:3219  uint256 availAmount */\n      0x00\n        /* \"contracts/Market.sol\":3222:3232  bal[_user] */\n      dup2\n      dup2\n      mstore\n        /* \"contracts/Market.sol\":3222:3225  bal */\n      0x0a\n        /* \"contracts/Market.sol\":3222:3232  bal[_user] */\n      0x20\n      mstore\n      0x40\n      dup1\n      dup3\n      keccak256\n      dup1\n      sload\n        /* \"contracts/Market.sol\":3242:3256  bal[_user] = 0 */\n      swap1\n      dup4\n      swap1\n      sstore\n        /* \"contracts/Market.sol\":3281:3315  token.transfer(_user, availAmount) */\n      swap1\n      mload\n      shl(0xe0, 0xa9059cbb)\n      dup2\n      mstore\n      0x04\n      dup2\n      add\n        /* \"#utility.yul\":3535:3586   */\n      swap4\n      swap1\n      swap4\n      mstore\n        /* \"#utility.yul\":3602:3620   */\n      0x24\n      dup4\n      add\n        /* \"#utility.yul\":3595:3629   */\n      dup2\n      swap1\n      mstore\n        /* \"contracts/Market.sol\":3222:3232  bal[_user] */\n      swap3\n        /* \"contracts/Market.sol\":3200:3219  uint256 availAmount */\n      swap1\n      swap2\n        /* \"contracts/Market.sol\":3281:3286  token */\n      immutable(\"0x5b9d82bdb7ae056a203cf64bdf26f3fdec584cdfaca2ac8b4c3d0c5b66e90969\")\n        /* \"contracts/Market.sol\":3281:3295  token.transfer */\n      swap1\n      swap2\n      and\n      swap1\n      0xa9059cbb\n      swap1\n        /* \"#utility.yul\":3508:3526   */\n      0x44\n      add\n        /* \"contracts/Market.sol\":3281:3315  token.transfer(_user, availAmount) */\n      0x20\n      mload(0x40)\n      dup1\n      dup4\n      sub\n      dup2\n      0x00\n      dup8\n      dup1\n      extcodesize\n      iszero\n      dup1\n      iszero\n      tag_233\n      jumpi\n      0x00\n      dup1\n      revert\n    tag_233:\n      pop\n      gas\n      call\n      iszero\n      dup1\n      iszero\n      tag_235\n      jumpi\n      returndatasize\n      0x00\n      dup1\n      returndatacopy\n      revert(0x00, returndatasize)\n    tag_235:\n      pop\n      pop\n      pop\n      pop\n      mload(0x40)\n      returndatasize\n      not(0x1f)\n      0x1f\n      dup3\n      add\n      and\n      dup3\n      add\n      dup1\n      0x40\n      mstore\n      pop\n      dup2\n      add\n      swap1\n      tag_236\n      swap2\n      swap1\n      tag_117\n      jump\t// in\n    tag_236:\n        /* \"contracts/Market.sol\":3266:3315  bool success = token.transfer(_user, availAmount) */\n      swap1\n      pop\n        /* \"contracts/Market.sol\":3333:3340  success */\n      dup1\n        /* \"contracts/Market.sol\":3325:3347  require(success, \"M4\") */\n      tag_237\n      jumpi\n      mload(0x40)\n      shl(0xe5, 0x461bcd)\n      dup2\n      mstore\n        /* \"#utility.yul\":7646:7648   */\n      0x20\n        /* \"contracts/Market.sol\":3325:3347  require(success, \"M4\") */\n      0x04\n      dup3\n      add\n        /* \"#utility.yul\":7628:7649   */\n      mstore\n        /* \"#utility.yul\":7685:7686   */\n      0x02\n        /* \"#utility.yul\":7665:7683   */\n      0x24\n      dup3\n      add\n        /* \"#utility.yul\":7658:7687   */\n      mstore\n      shl(0xf2, 0x134d)\n        /* \"#utility.yul\":7703:7721   */\n      0x44\n      dup3\n      add\n        /* \"#utility.yul\":7696:7728   */\n      mstore\n        /* \"#utility.yul\":7745:7763   */\n      0x64\n      add\n        /* \"contracts/Market.sol\":3325:3347  require(success, \"M4\") */\n      tag_119\n        /* \"#utility.yul\":7618:7769   */\n      jump\n        /* \"contracts/Market.sol\":3325:3347  require(success, \"M4\") */\n    tag_237:\n        /* \"contracts/Market.sol\":3363:3391  Withdraw(_user, availAmount) */\n      0x40\n      dup1\n      mload\n      sub(shl(0xa0, 0x01), 0x01)\n        /* \"#utility.yul\":3553:3585   */\n      dup7\n      and\n        /* \"#utility.yul\":3535:3586   */\n      dup2\n      mstore\n        /* \"#utility.yul\":3617:3619   */\n      0x20\n        /* \"#utility.yul\":3602:3620   */\n      dup2\n      add\n        /* \"#utility.yul\":3595:3629   */\n      dup5\n      swap1\n      mstore\n        /* \"contracts/Market.sol\":3363:3391  Withdraw(_user, availAmount) */\n      0x884edad9ce6fa2440d8a54cc123490eb96d2768479d49ff9c7366125a9424364\n      swap2\n        /* \"#utility.yul\":3508:3526   */\n      add\n        /* \"contracts/Market.sol\":3363:3391  Withdraw(_user, availAmount) */\n      mload(0x40)\n      dup1\n      swap2\n      sub\n      swap1\n      log1\n        /* \"contracts/Market.sol\":3408:3412  true */\n      0x01\n        /* \"contracts/Market.sol\":3401:3412  return true */\n      swap3\n      pop\n      pop\n      pop\n        /* \"contracts/ReentrancyGuard.sol\":2484:2485  _ */\n    tag_221:\n        /* \"contracts/ReentrancyGuard.sol\":1701:1702  1 */\n      0x01\n        /* \"contracts/ReentrancyGuard.sol\":2628:2635  _status */\n      0x00\n        /* \"contracts/ReentrancyGuard.sol\":2628:2650  _status = _NOT_ENTERED */\n      sstore\n        /* \"contracts/Market.sol\":2993:3419  function withdraw(address _user) public override nonReentrant returns(bool) {... */\n      swap2\n      swap1\n      pop\n      jump\t// out\n        /* \"contracts/Market.sol\":2432:2568  function getBetPairs(uint256 _bet) ... */\n    tag_60:\n        /* \"contracts/Market.sol\":2547:2561  betPairs[_bet] */\n      0x00\n      dup2\n      dup2\n      mstore\n        /* \"contracts/Market.sol\":2547:2555  betPairs */\n      0x0f\n        /* \"contracts/Market.sol\":2547:2561  betPairs[_bet] */\n      0x20\n      swap1\n      dup2\n      mstore\n      0x40\n      swap2\n      dup3\n      swap1\n      keccak256\n        /* \"contracts/Market.sol\":2540:2561  return betPairs[_bet] */\n      dup1\n      sload\n      dup4\n      mload\n      dup2\n      dup5\n      mul\n      dup2\n      add\n      dup5\n      add\n      swap1\n      swap5\n      mstore\n      dup1\n      dup5\n      mstore\n        /* \"contracts/Market.sol\":2507:2523  uint256[] memory */\n      0x60\n      swap4\n        /* \"contracts/Market.sol\":2540:2561  return betPairs[_bet] */\n      swap3\n      dup4\n      add\n        /* \"contracts/Market.sol\":2547:2561  betPairs[_bet] */\n      dup3\n        /* \"contracts/Market.sol\":2540:2561  return betPairs[_bet] */\n      dup3\n      dup1\n      iszero\n      tag_197\n      jumpi\n      0x20\n      mul\n      dup3\n      add\n      swap2\n      swap1\n      0x00\n      mstore\n      keccak256(0x00, 0x20)\n      swap1\n      dup2\n      sload\n      dup2\n      mstore\n      0x20\n      add\n      swap1\n      0x01\n      add\n      swap1\n      dup1\n      dup4\n      gt\n      tag_198\n      jumpi\n      pop\n      pop\n      pop\n      pop\n      pop\n      swap1\n      pop\n        /* \"contracts/Market.sol\":2432:2568  function getBetPairs(uint256 _bet) ... */\n      swap2\n      swap1\n      pop\n      jump\t// out\n        /* \"contracts/Market.sol\":6173:6380  function stopNewBet() external override onlyFactory returns(bool){... */\n    tag_63:\n        /* \"contracts/Market.sol\":6233:6237  bool */\n      0x00\n        /* \"contracts/Market.sol\":1140:1150  msg.sender */\n      caller\n      sub(shl(0xa0, 0x01), 0x01)\n        /* \"contracts/Market.sol\":1154:1161  factory */\n      immutable(\"0xaf057546d61dd28804ca035e688a36db5f311bb8c4c9d2e1e5e44c0555cfe3bf\")\n        /* \"contracts/Market.sol\":1140:1161  msg.sender == factory */\n      and\n      eq\n      dup1\n        /* \"contracts/Market.sol\":1140:1202  msg.sender == factory || msg.sender == IEvent(factory).owner() */\n      tag_245\n      jumpi\n      pop\n        /* \"contracts/Market.sol\":1186:1193  factory */\n      immutable(\"0xaf057546d61dd28804ca035e688a36db5f311bb8c4c9d2e1e5e44c0555cfe3bf\")\n      sub(shl(0xa0, 0x01), 0x01)\n        /* \"contracts/Market.sol\":1179:1200  IEvent(factory).owner */\n      and\n      0x8da5cb5b\n        /* \"contracts/Market.sol\":1179:1202  IEvent(factory).owner() */\n      mload(0x40)\n      dup2\n      0xffffffff\n      and\n      0xe0\n      shl\n      dup2\n      mstore\n      0x04\n      add\n      0x20\n      mload(0x40)\n      dup1\n      dup4\n      sub\n      dup2\n      dup7\n      dup1\n      extcodesize\n      iszero\n      dup1\n      iszero\n      tag_246\n      jumpi\n      0x00\n      dup1\n      revert\n    tag_246:\n      pop\n      gas\n      staticcall\n      iszero\n      dup1\n      iszero\n      tag_248\n      jumpi\n      returndatasize\n      0x00\n      dup1\n      returndatacopy\n      revert(0x00, returndatasize)\n    tag_248:\n      pop\n      pop\n      pop\n      pop\n      mload(0x40)\n      returndatasize\n      not(0x1f)\n      0x1f\n      dup3\n      add\n      and\n      dup3\n      add\n      dup1\n      0x40\n      mstore\n      pop\n      dup2\n      add\n      swap1\n      tag_249\n      swap2\n      swap1\n      tag_250\n      jump\t// in\n    tag_249:\n      sub(shl(0xa0, 0x01), 0x01)\n        /* \"contracts/Market.sol\":1165:1202  msg.sender == IEvent(factory).owner() */\n      and\n        /* \"contracts/Market.sol\":1165:1175  msg.sender */\n      caller\n      sub(shl(0xa0, 0x01), 0x01)\n        /* \"contracts/Market.sol\":1165:1202  msg.sender == IEvent(factory).owner() */\n      and\n      eq\n        /* \"contracts/Market.sol\":1140:1202  msg.sender == factory || msg.sender == IEvent(factory).owner() */\n    tag_245:\n        /* \"contracts/Market.sol\":1119:1230  require(... */\n      tag_251\n      jumpi\n      mload(0x40)\n      shl(0xe5, 0x461bcd)\n      dup2\n      mstore\n      0x04\n      add\n      tag_119\n      swap1\n      tag_253\n      jump\t// in\n    tag_251:\n        /* \"contracts/Market.sol\":6251:6257  status */\n      sload(0x09)\n        /* \"contracts/Market.sol\":6248:6374  if(status == 0){... */\n      tag_255\n      jumpi\n      pop\n        /* \"contracts/Market.sol\":6286:6287  4 */\n      0x04\n        /* \"contracts/Market.sol\":6277:6283  status */\n      0x09\n        /* \"contracts/Market.sol\":6277:6287  status = 4 */\n      sstore\n        /* \"contracts/Market.sol\":6308:6312  true */\n      0x01\n        /* \"contracts/Market.sol\":6173:6380  function stopNewBet() external override onlyFactory returns(bool){... */\n      swap1\n      jump\t// out\n        /* \"contracts/Market.sol\":6248:6374  if(status == 0){... */\n    tag_255:\n      pop\n        /* \"contracts/Market.sol\":6358:6363  false */\n      0x00\n        /* \"contracts/Market.sol\":6173:6380  function stopNewBet() external override onlyFactory returns(bool){... */\n      swap1\n      jump\t// out\n        /* \"contracts/Market.sol\":2627:2730  function getPairs() external view override returns(uint256[] memory) ... */\n    tag_66:\n        /* \"contracts/Market.sol\":2678:2694  uint256[] memory */\n      0x60\n        /* \"contracts/Market.sol\":2718:2723  pairs */\n      0x0e\n        /* \"contracts/Market.sol\":2711:2723  return pairs */\n      dup1\n      sload\n      dup1\n      0x20\n      mul\n      0x20\n      add\n      mload(0x40)\n      swap1\n      dup2\n      add\n      0x40\n      mstore\n      dup1\n      swap3\n      swap2\n      swap1\n      dup2\n      dup2\n      mstore\n      0x20\n      add\n      dup3\n      dup1\n      sload\n      dup1\n      iszero\n      tag_258\n      jumpi\n      0x20\n      mul\n      dup3\n      add\n      swap2\n      swap1\n      0x00\n      mstore\n      keccak256(0x00, 0x20)\n      swap1\n    tag_259:\n      dup2\n      sload\n      dup2\n      mstore\n      0x20\n      add\n      swap1\n      0x01\n      add\n      swap1\n      dup1\n      dup4\n      gt\n      tag_259\n      jumpi\n    tag_258:\n      pop\n      pop\n      pop\n      pop\n      pop\n      swap1\n      pop\n        /* \"contracts/Market.sol\":2627:2730  function getPairs() external view override returns(uint256[] memory) ... */\n      swap1\n      jump\t// out\n        /* \"contracts/Market.sol\":5136:5547  function settle(uint256 _winningSide)... */\n    tag_70:\n        /* \"contracts/Market.sol\":5244:5248  bool */\n      0x00\n        /* \"contracts/Market.sol\":1140:1150  msg.sender */\n      caller\n      sub(shl(0xa0, 0x01), 0x01)\n        /* \"contracts/Market.sol\":1154:1161  factory */\n      immutable(\"0xaf057546d61dd28804ca035e688a36db5f311bb8c4c9d2e1e5e44c0555cfe3bf\")\n        /* \"contracts/Market.sol\":1140:1161  msg.sender == factory */\n      and\n      eq\n      dup1\n        /* \"contracts/Market.sol\":1140:1202  msg.sender == factory || msg.sender == IEvent(factory).owner() */\n      tag_261\n      jumpi\n      pop\n        /* \"contracts/Market.sol\":1186:1193  factory */\n      immutable(\"0xaf057546d61dd28804ca035e688a36db5f311bb8c4c9d2e1e5e44c0555cfe3bf\")\n      sub(shl(0xa0, 0x01), 0x01)\n        /* \"contracts/Market.sol\":1179:1200  IEvent(factory).owner */\n      and\n      0x8da5cb5b\n        /* \"contracts/Market.sol\":1179:1202  IEvent(factory).owner() */\n      mload(0x40)\n      dup2\n      0xffffffff\n      and\n      0xe0\n      shl\n      dup2\n      mstore\n      0x04\n      add\n      0x20\n      mload(0x40)\n      dup1\n      dup4\n      sub\n      dup2\n      dup7\n      dup1\n      extcodesize\n      iszero\n      dup1\n      iszero\n      tag_262\n      jumpi\n      0x00\n      dup1\n      revert\n    tag_262:\n      pop\n      gas\n      staticcall\n      iszero\n      dup1\n      iszero\n      tag_264\n      jumpi\n      returndatasize\n      0x00\n      dup1\n      returndatacopy\n      revert(0x00, returndatasize)\n    tag_264:\n      pop\n      pop\n      pop\n      pop\n      mload(0x40)\n      returndatasize\n      not(0x1f)\n      0x1f\n      dup3\n      add\n      and\n      dup3\n      add\n      dup1\n      0x40\n      mstore\n      pop\n      dup2\n      add\n      swap1\n      tag_265\n      swap2\n      swap1\n      tag_250\n      jump\t// in\n    tag_265:\n      sub(shl(0xa0, 0x01), 0x01)\n        /* \"contracts/Market.sol\":1165:1202  msg.sender == IEvent(factory).owner() */\n      and\n        /* \"contracts/Market.sol\":1165:1175  msg.sender */\n      caller\n      sub(shl(0xa0, 0x01), 0x01)\n        /* \"contracts/Market.sol\":1165:1202  msg.sender == IEvent(factory).owner() */\n      and\n      eq\n        /* \"contracts/Market.sol\":1140:1202  msg.sender == factory || msg.sender == IEvent(factory).owner() */\n    tag_261:\n        /* \"contracts/Market.sol\":1119:1230  require(... */\n      tag_266\n      jumpi\n      mload(0x40)\n      shl(0xe5, 0x461bcd)\n      dup2\n      mstore\n      0x04\n      add\n      tag_119\n      swap1\n      tag_253\n      jump\t// in\n    tag_266:\n        /* \"contracts/Market.sol\":5267:5295  setWinningSide(_winningSide) */\n      tag_269\n        /* \"contracts/Market.sol\":5282:5294  _winningSide */\n      dup3\n        /* \"contracts/Market.sol\":5267:5281  setWinningSide */\n      tag_85\n        /* \"contracts/Market.sol\":5267:5295  setWinningSide(_winningSide) */\n      jump\t// in\n    tag_269:\n        /* \"contracts/Market.sol\":5264:5532  if(setWinningSide(_winningSide)){... */\n      iszero\n      tag_270\n      jumpi\n        /* \"contracts/Market.sol\":5329:5334  pairs */\n      0x0e\n        /* \"contracts/Market.sol\":5329:5341  pairs.length */\n      sload\n        /* \"contracts/Market.sol\":5310:5326  uint pairsLength */\n      0x00\n        /* \"contracts/Market.sol\":5355:5446  for(uint i = 0; i < pairsLength; i++){... */\n    tag_271:\n        /* \"contracts/Market.sol\":5375:5386  pairsLength */\n      dup2\n        /* \"contracts/Market.sol\":5371:5372  i */\n      dup2\n        /* \"contracts/Market.sol\":5371:5386  i < pairsLength */\n      lt\n        /* \"contracts/Market.sol\":5355:5446  for(uint i = 0; i < pairsLength; i++){... */\n      iszero\n      tag_272\n      jumpi\n        /* \"contracts/Market.sol\":5410:5431  _settlePair(pairs[i]) */\n      tag_274\n        /* \"contracts/Market.sol\":5422:5427  pairs */\n      0x0e\n        /* \"contracts/Market.sol\":5428:5429  i */\n      dup3\n        /* \"contracts/Market.sol\":5422:5430  pairs[i] */\n      dup2\n      sload\n      dup2\n      lt\n      tag_275\n      jumpi\n      mstore(0x00, shl(0xe0, 0x4e487b71))\n      mstore(0x04, 0x32)\n      revert(0x00, 0x24)\n    tag_275:\n      swap1\n      0x00\n      mstore\n      keccak256(0x00, 0x20)\n      add\n      sload\n        /* \"contracts/Market.sol\":5410:5421  _settlePair */\n      tag_105\n        /* \"contracts/Market.sol\":5410:5431  _settlePair(pairs[i]) */\n      jump\t// in\n    tag_274:\n      pop\n        /* \"contracts/Market.sol\":5388:5391  i++ */\n      dup1\n      tag_277\n      dup2\n      tag_107\n      jump\t// in\n    tag_277:\n      swap2\n      pop\n      pop\n        /* \"contracts/Market.sol\":5355:5446  for(uint i = 0; i < pairsLength; i++){... */\n      jump(tag_271)\n    tag_272:\n      pop\n        /* \"contracts/Market.sol\":5466:5470  true */\n      0x01\n      swap4\n        /* \"contracts/Market.sol\":5136:5547  function settle(uint256 _winningSide)... */\n      swap3\n      pop\n      pop\n      pop\n      jump\t// out\n        /* \"contracts/Market.sol\":5264:5532  if(setWinningSide(_winningSide)){... */\n    tag_270:\n      pop\n        /* \"contracts/Market.sol\":5516:5521  false */\n      0x00\n        /* \"contracts/Market.sol\":5136:5547  function settle(uint256 _winningSide)... */\n      swap2\n      swap1\n      pop\n      jump\t// out\n        /* \"contracts/Market.sol\":2050:2151  function getBets() external view override returns(uint256[] memory) ... */\n    tag_73:\n        /* \"contracts/Market.sol\":2100:2116  uint256[] memory */\n      0x60\n        /* \"contracts/Market.sol\":2140:2144  bets */\n      0x0b\n        /* \"contracts/Market.sol\":2133:2144  return bets */\n      dup1\n      sload\n      dup1\n      0x20\n      mul\n      0x20\n      add\n      mload(0x40)\n      swap1\n      dup2\n      add\n      0x40\n      mstore\n      dup1\n      swap3\n      swap2\n      swap1\n      dup2\n      dup2\n      mstore\n      0x20\n      add\n      dup3\n      dup1\n      sload\n      dup1\n      iszero\n      tag_258\n      jumpi\n      0x20\n      mul\n      dup3\n      add\n      swap2\n      swap1\n      0x00\n      mstore\n      keccak256(0x00, 0x20)\n      swap1\n      dup2\n      sload\n      dup2\n      mstore\n      0x20\n      add\n      swap1\n      0x01\n      add\n      swap1\n      dup1\n      dup4\n      gt\n      tag_259\n      jumpi\n      pop\n      pop\n      pop\n      pop\n      pop\n      swap1\n      pop\n        /* \"contracts/Market.sol\":2050:2151  function getBets() external view override returns(uint256[] memory) ... */\n      swap1\n      jump\t// out\n        /* \"contracts/Market.sol\":5784:6167  function cancelPlusPairs() external override onlyFactory returns(bool) ... */\n    tag_76:\n        /* \"contracts/Market.sol\":5849:5853  bool */\n      0x00\n        /* \"contracts/Market.sol\":1140:1150  msg.sender */\n      caller\n      sub(shl(0xa0, 0x01), 0x01)\n        /* \"contracts/Market.sol\":1154:1161  factory */\n      immutable(\"0xaf057546d61dd28804ca035e688a36db5f311bb8c4c9d2e1e5e44c0555cfe3bf\")\n        /* \"contracts/Market.sol\":1140:1161  msg.sender == factory */\n      and\n      eq\n      dup1\n        /* \"contracts/Market.sol\":1140:1202  msg.sender == factory || msg.sender == IEvent(factory).owner() */\n      tag_283\n      jumpi\n      pop\n        /* \"contracts/Market.sol\":1186:1193  factory */\n      immutable(\"0xaf057546d61dd28804ca035e688a36db5f311bb8c4c9d2e1e5e44c0555cfe3bf\")\n      sub(shl(0xa0, 0x01), 0x01)\n        /* \"contracts/Market.sol\":1179:1200  IEvent(factory).owner */\n      and\n      0x8da5cb5b\n        /* \"contracts/Market.sol\":1179:1202  IEvent(factory).owner() */\n      mload(0x40)\n      dup2\n      0xffffffff\n      and\n      0xe0\n      shl\n      dup2\n      mstore\n      0x04\n      add\n      0x20\n      mload(0x40)\n      dup1\n      dup4\n      sub\n      dup2\n      dup7\n      dup1\n      extcodesize\n      iszero\n      dup1\n      iszero\n      tag_284\n      jumpi\n      0x00\n      dup1\n      revert\n    tag_284:\n      pop\n      gas\n      staticcall\n      iszero\n      dup1\n      iszero\n      tag_286\n      jumpi\n      returndatasize\n      0x00\n      dup1\n      returndatacopy\n      revert(0x00, returndatasize)\n    tag_286:\n      pop\n      pop\n      pop\n      pop\n      mload(0x40)\n      returndatasize\n      not(0x1f)\n      0x1f\n      dup3\n      add\n      and\n      dup3\n      add\n      dup1\n      0x40\n      mstore\n      pop\n      dup2\n      add\n      swap1\n      tag_287\n      swap2\n      swap1\n      tag_250\n      jump\t// in\n    tag_287:\n      sub(shl(0xa0, 0x01), 0x01)\n        /* \"contracts/Market.sol\":1165:1202  msg.sender == IEvent(factory).owner() */\n      and\n        /* \"contracts/Market.sol\":1165:1175  msg.sender */\n      caller\n      sub(shl(0xa0, 0x01), 0x01)\n        /* \"contracts/Market.sol\":1165:1202  msg.sender == IEvent(factory).owner() */\n      and\n      eq\n        /* \"contracts/Market.sol\":1140:1202  msg.sender == factory || msg.sender == IEvent(factory).owner() */\n    tag_283:\n        /* \"contracts/Market.sol\":1119:1230  require(... */\n      tag_288\n      jumpi\n      mload(0x40)\n      shl(0xe5, 0x461bcd)\n      dup2\n      mstore\n      0x04\n      add\n      tag_119\n      swap1\n      tag_253\n      jump\t// in\n    tag_288:\n        /* \"contracts/Market.sol\":5874:5880  status */\n      sload(0x09)\n        /* \"contracts/Market.sol\":5874:5885  status == 0 */\n      iszero\n      dup1\n        /* \"contracts/Market.sol\":5874:5900  status == 0 || status == 4 */\n      tag_291\n      jumpi\n      pop\n        /* \"contracts/Market.sol\":5889:5895  status */\n      sload(0x09)\n        /* \"contracts/Market.sol\":5899:5900  4 */\n      0x04\n        /* \"contracts/Market.sol\":5889:5900  status == 4 */\n      eq\n        /* \"contracts/Market.sol\":5874:5900  status == 0 || status == 4 */\n    tag_291:\n        /* \"contracts/Market.sol\":5871:6161  if(status == 0 || status == 4){... */\n      iszero\n      tag_255\n      jumpi\n        /* \"contracts/Market.sol\":5934:5939  pairs */\n      0x0e\n        /* \"contracts/Market.sol\":5934:5946  pairs.length */\n      sload\n        /* \"contracts/Market.sol\":5915:5931  uint pairsLength */\n      0x00\n        /* \"contracts/Market.sol\":5960:6051  for(uint i = 0; i < pairsLength; i++){... */\n    tag_293:\n        /* \"contracts/Market.sol\":5980:5991  pairsLength */\n      dup2\n        /* \"contracts/Market.sol\":5976:5977  i */\n      dup2\n        /* \"contracts/Market.sol\":5976:5991  i < pairsLength */\n      lt\n        /* \"contracts/Market.sol\":5960:6051  for(uint i = 0; i < pairsLength; i++){... */\n      iszero\n      tag_294\n      jumpi\n        /* \"contracts/Market.sol\":6015:6036  _cancelPair(pairs[i]) */\n      tag_296\n        /* \"contracts/Market.sol\":6027:6032  pairs */\n      0x0e\n        /* \"contracts/Market.sol\":6033:6034  i */\n      dup3\n        /* \"contracts/Market.sol\":6027:6035  pairs[i] */\n      dup2\n      sload\n      dup2\n      lt\n      tag_297\n      jumpi\n      mstore(0x00, shl(0xe0, 0x4e487b71))\n      mstore(0x04, 0x32)\n      revert(0x00, 0x24)\n    tag_297:\n      swap1\n      0x00\n      mstore\n      keccak256(0x00, 0x20)\n      add\n      sload\n        /* \"contracts/Market.sol\":6015:6026  _cancelPair */\n      tag_299\n        /* \"contracts/Market.sol\":6015:6036  _cancelPair(pairs[i]) */\n      jump\t// in\n    tag_296:\n      pop\n        /* \"contracts/Market.sol\":5993:5996  i++ */\n      dup1\n      tag_300\n      dup2\n      tag_107\n      jump\t// in\n    tag_300:\n      swap2\n      pop\n      pop\n        /* \"contracts/Market.sol\":5960:6051  for(uint i = 0; i < pairsLength; i++){... */\n      jump(tag_293)\n    tag_294:\n      pop\n      pop\n        /* \"contracts/Market.sol\":6073:6074  3 */\n      0x03\n        /* \"contracts/Market.sol\":6064:6070  status */\n      0x09\n        /* \"contracts/Market.sol\":6064:6074  status = 3 */\n      sstore\n      pop\n        /* \"contracts/Market.sol\":6095:6099  true */\n      0x01\n        /* \"contracts/Market.sol\":6173:6380  function stopNewBet() external override onlyFactory returns(bool){... */\n      swap1\n      jump\t// out\n        /* \"contracts/Market.sol\":2789:2923  function getPair(uint256 _pair) external view override returns(Struct.MarketPair memory) ... */\n    tag_80:\n        /* \"contracts/Market.sol\":2852:2876  Struct.MarketPair memory */\n      tag_302\n      mload(0x40)\n      dup1\n      0xa0\n      add\n      0x40\n      mstore\n      dup1\n      0x00\n      dup2\n      mstore\n      0x20\n      add\n      0x00\n      dup2\n      mstore\n      0x20\n      add\n      0x00\n      dup2\n      mstore\n      0x20\n      add\n      0x00\n      dup2\n      mstore\n      0x20\n      add\n      iszero(iszero(0x00))\n      dup2\n      mstore\n      pop\n      swap1\n      jump\n    tag_302:\n      pop\n        /* \"contracts/Market.sol\":2900:2916  pairsInfo[_pair] */\n      0x00\n      swap1\n      dup2\n      mstore\n        /* \"contracts/Market.sol\":2900:2909  pairsInfo */\n      0x10\n        /* \"contracts/Market.sol\":2900:2916  pairsInfo[_pair] */\n      0x20\n      swap1\n      dup2\n      mstore\n      0x40\n      swap2\n      dup3\n      swap1\n      keccak256\n        /* \"contracts/Market.sol\":2893:2916  return pairsInfo[_pair] */\n      dup3\n      mload\n      0xa0\n      dup2\n      add\n      dup5\n      mstore\n      dup2\n      sload\n      dup2\n      mstore\n      0x01\n      dup3\n      add\n      sload\n      swap3\n      dup2\n      add\n      swap3\n      swap1\n      swap3\n      mstore\n      0x02\n      dup2\n      add\n      sload\n      swap3\n      dup3\n      add\n      swap3\n      swap1\n      swap3\n      mstore\n      0x03\n      dup3\n      add\n      sload\n      0x60\n      dup3\n      add\n      mstore\n      0x04\n      swap1\n      swap2\n      add\n      sload\n      0xff\n      and\n      iszero\n      iszero\n      0x80\n      dup3\n      add\n      mstore\n      swap1\n        /* \"contracts/Market.sol\":2789:2923  function getPair(uint256 _pair) external view override returns(Struct.MarketPair memory) ... */\n      jump\t// out\n        /* \"contracts/Market.sol\":4637:5069  function setWinningSide(uint256 _winningSide)... */\n    tag_85:\n        /* \"contracts/Market.sol\":4751:4755  bool */\n      0x00\n        /* \"contracts/Market.sol\":1140:1150  msg.sender */\n      caller\n      sub(shl(0xa0, 0x01), 0x01)\n        /* \"contracts/Market.sol\":1154:1161  factory */\n      immutable(\"0xaf057546d61dd28804ca035e688a36db5f311bb8c4c9d2e1e5e44c0555cfe3bf\")\n        /* \"contracts/Market.sol\":1140:1161  msg.sender == factory */\n      and\n      eq\n      dup1\n        /* \"contracts/Market.sol\":1140:1202  msg.sender == factory || msg.sender == IEvent(factory).owner() */\n      tag_306\n      jumpi\n      pop\n        /* \"contracts/Market.sol\":1186:1193  factory */\n      immutable(\"0xaf057546d61dd28804ca035e688a36db5f311bb8c4c9d2e1e5e44c0555cfe3bf\")\n      sub(shl(0xa0, 0x01), 0x01)\n        /* \"contracts/Market.sol\":1179:1200  IEvent(factory).owner */\n      and\n      0x8da5cb5b\n        /* \"contracts/Market.sol\":1179:1202  IEvent(factory).owner() */\n      mload(0x40)\n      dup2\n      0xffffffff\n      and\n      0xe0\n      shl\n      dup2\n      mstore\n      0x04\n      add\n      0x20\n      mload(0x40)\n      dup1\n      dup4\n      sub\n      dup2\n      dup7\n      dup1\n      extcodesize\n      iszero\n      dup1\n      iszero\n      tag_307\n      jumpi\n      0x00\n      dup1\n      revert\n    tag_307:\n      pop\n      gas\n      staticcall\n      iszero\n      dup1\n      iszero\n      tag_309\n      jumpi\n      returndatasize\n      0x00\n      dup1\n      returndatacopy\n      revert(0x00, returndatasize)\n    tag_309:\n      pop\n      pop\n      pop\n      pop\n      mload(0x40)\n      returndatasize\n      not(0x1f)\n      0x1f\n      dup3\n      add\n      and\n      dup3\n      add\n      dup1\n      0x40\n      mstore\n      pop\n      dup2\n      add\n      swap1\n      tag_310\n      swap2\n      swap1\n      tag_250\n      jump\t// in\n    tag_310:\n      sub(shl(0xa0, 0x01), 0x01)\n        /* \"contracts/Market.sol\":1165:1202  msg.sender == IEvent(factory).owner() */\n      and\n        /* \"contracts/Market.sol\":1165:1175  msg.sender */\n      caller\n      sub(shl(0xa0, 0x01), 0x01)\n        /* \"contracts/Market.sol\":1165:1202  msg.sender == IEvent(factory).owner() */\n      and\n      eq\n        /* \"contracts/Market.sol\":1140:1202  msg.sender == factory || msg.sender == IEvent(factory).owner() */\n    tag_306:\n        /* \"contracts/Market.sol\":1119:1230  require(... */\n      tag_311\n      jumpi\n      mload(0x40)\n      shl(0xe5, 0x461bcd)\n      dup2\n      mstore\n      0x04\n      add\n      tag_119\n      swap1\n      tag_253\n      jump\t// in\n    tag_311:\n        /* \"contracts/Market.sol\":4788:4794  status */\n      sload(0x09)\n        /* \"contracts/Market.sol\":4788:4799  status == 0 */\n      iszero\n      dup1\n        /* \"contracts/Market.sol\":4788:4814  status == 0 || status == 1 */\n      tag_314\n      jumpi\n      pop\n        /* \"contracts/Market.sol\":4803:4809  status */\n      sload(0x09)\n        /* \"contracts/Market.sol\":4813:4814  1 */\n      0x01\n        /* \"contracts/Market.sol\":4803:4814  status == 1 */\n      eq\n        /* \"contracts/Market.sol\":4788:4814  status == 0 || status == 1 */\n    tag_314:\n        /* \"contracts/Market.sol\":4788:4829  status == 0 || status == 1 || status == 2 */\n      dup1\n      tag_315\n      jumpi\n      pop\n        /* \"contracts/Market.sol\":4818:4824  status */\n      sload(0x09)\n        /* \"contracts/Market.sol\":4828:4829  2 */\n      0x02\n        /* \"contracts/Market.sol\":4818:4829  status == 2 */\n      eq\n        /* \"contracts/Market.sol\":4788:4829  status == 0 || status == 1 || status == 2 */\n    tag_315:\n        /* \"contracts/Market.sol\":4788:4844  status == 0 || status == 1 || status == 2 || status == 4 */\n      dup1\n      tag_316\n      jumpi\n      pop\n        /* \"contracts/Market.sol\":4833:4839  status */\n      sload(0x09)\n        /* \"contracts/Market.sol\":4843:4844  4 */\n      0x04\n        /* \"contracts/Market.sol\":4833:4844  status == 4 */\n      eq\n        /* \"contracts/Market.sol\":4788:4844  status == 0 || status == 1 || status == 2 || status == 4 */\n    tag_316:\n        /* \"contracts/Market.sol\":4787:4913  (status == 0 || status == 1 || status == 2 || status == 4)... */\n      dup1\n      iszero\n      tag_318\n      jumpi\n      pop\n        /* \"contracts/Market.sol\":4874:4886  _winningSide */\n      dup2\n        /* \"contracts/Market.sol\":4890:4891  1 */\n      0x01\n        /* \"contracts/Market.sol\":4874:4891  _winningSide == 1 */\n      eq\n        /* \"contracts/Market.sol\":4874:4912  _winningSide == 1 || _winningSide == 2 */\n      dup1\n      tag_318\n      jumpi\n      pop\n        /* \"contracts/Market.sol\":4895:4907  _winningSide */\n      dup2\n        /* \"contracts/Market.sol\":4911:4912  2 */\n      0x02\n        /* \"contracts/Market.sol\":4895:4912  _winningSide == 2 */\n      eq\n        /* \"contracts/Market.sol\":4874:4912  _winningSide == 1 || _winningSide == 2 */\n    tag_318:\n        /* \"contracts/Market.sol\":4771:5054  if(... */\n      iszero\n      tag_270\n      jumpi\n      pop\n        /* \"contracts/Market.sol\":4946:4952  status */\n      0x09\n        /* \"contracts/Market.sol\":4946:4967  status = _winningSide */\n      sstore\n        /* \"contracts/Market.sol\":4988:4992  true */\n      0x01\n      swap1\n        /* \"contracts/Market.sol\":5136:5547  function settle(uint256 _winningSide)... */\n      jump\t// out\n        /* \"contracts/Market.sol\":5553:5778  function cancel() external override onlyFactory returns(bool) ... */\n    tag_88:\n        /* \"contracts/Market.sol\":5609:5613  bool */\n      0x00\n        /* \"contracts/Market.sol\":1140:1150  msg.sender */\n      caller\n      sub(shl(0xa0, 0x01), 0x01)\n        /* \"contracts/Market.sol\":1154:1161  factory */\n      immutable(\"0xaf057546d61dd28804ca035e688a36db5f311bb8c4c9d2e1e5e44c0555cfe3bf\")\n        /* \"contracts/Market.sol\":1140:1161  msg.sender == factory */\n      and\n      eq\n      dup1\n        /* \"contracts/Market.sol\":1140:1202  msg.sender == factory || msg.sender == IEvent(factory).owner() */\n      tag_322\n      jumpi\n      pop\n        /* \"contracts/Market.sol\":1186:1193  factory */\n      immutable(\"0xaf057546d61dd28804ca035e688a36db5f311bb8c4c9d2e1e5e44c0555cfe3bf\")\n      sub(shl(0xa0, 0x01), 0x01)\n        /* \"contracts/Market.sol\":1179:1200  IEvent(factory).owner */\n      and\n      0x8da5cb5b\n        /* \"contracts/Market.sol\":1179:1202  IEvent(factory).owner() */\n      mload(0x40)\n      dup2\n      0xffffffff\n      and\n      0xe0\n      shl\n      dup2\n      mstore\n      0x04\n      add\n      0x20\n      mload(0x40)\n      dup1\n      dup4\n      sub\n      dup2\n      dup7\n      dup1\n      extcodesize\n      iszero\n      dup1\n      iszero\n      tag_323\n      jumpi\n      0x00\n      dup1\n      revert\n    tag_323:\n      pop\n      gas\n      staticcall\n      iszero\n      dup1\n      iszero\n      tag_325\n      jumpi\n      returndatasize\n      0x00\n      dup1\n      returndatacopy\n      revert(0x00, returndatasize)\n    tag_325:\n      pop\n      pop\n      pop\n      pop\n      mload(0x40)\n      returndatasize\n      not(0x1f)\n      0x1f\n      dup3\n      add\n      and\n      dup3\n      add\n      dup1\n      0x40\n      mstore\n      pop\n      dup2\n      add\n      swap1\n      tag_326\n      swap2\n      swap1\n      tag_250\n      jump\t// in\n    tag_326:\n      sub(shl(0xa0, 0x01), 0x01)\n        /* \"contracts/Market.sol\":1165:1202  msg.sender == IEvent(factory).owner() */\n      and\n        /* \"contracts/Market.sol\":1165:1175  msg.sender */\n      caller\n      sub(shl(0xa0, 0x01), 0x01)\n        /* \"contracts/Market.sol\":1165:1202  msg.sender == IEvent(factory).owner() */\n      and\n      eq\n        /* \"contracts/Market.sol\":1140:1202  msg.sender == factory || msg.sender == IEvent(factory).owner() */\n    tag_322:\n        /* \"contracts/Market.sol\":1119:1230  require(... */\n      tag_327\n      jumpi\n      mload(0x40)\n      shl(0xe5, 0x461bcd)\n      dup2\n      mstore\n      0x04\n      add\n      tag_119\n      swap1\n      tag_253\n      jump\t// in\n    tag_327:\n        /* \"contracts/Market.sol\":5634:5640  status */\n      sload(0x09)\n        /* \"contracts/Market.sol\":5634:5645  status == 0 */\n      iszero\n      dup1\n        /* \"contracts/Market.sol\":5634:5660  status == 0 || status == 4 */\n      tag_330\n      jumpi\n      pop\n        /* \"contracts/Market.sol\":5649:5655  status */\n      sload(0x09)\n        /* \"contracts/Market.sol\":5659:5660  4 */\n      0x04\n        /* \"contracts/Market.sol\":5649:5660  status == 4 */\n      eq\n        /* \"contracts/Market.sol\":5634:5660  status == 0 || status == 4 */\n    tag_330:\n        /* \"contracts/Market.sol\":5631:5772  if(status == 0 || status == 4){... */\n      iszero\n      tag_255\n      jumpi\n      pop\n        /* \"contracts/Market.sol\":5684:5685  3 */\n      0x03\n        /* \"contracts/Market.sol\":5675:5681  status */\n      0x09\n        /* \"contracts/Market.sol\":5675:5685  status = 3 */\n      sstore\n        /* \"contracts/Market.sol\":5706:5710  true */\n      0x01\n        /* \"contracts/Market.sol\":6173:6380  function stopNewBet() external override onlyFactory returns(bool){... */\n      swap1\n      jump\t// out\n        /* \"contracts/Market.sol\":12089:13318  function _settlePair(uint256 _pair) private nonReentrant returns(bool) {... */\n    tag_105:\n        /* \"contracts/Market.sol\":12154:12158  bool */\n      0x00\n        /* \"contracts/ReentrancyGuard.sol\":1744:1745  2 */\n      0x02\n        /* \"contracts/ReentrancyGuard.sol\":2325:2332  _status */\n      sload(0x00)\n        /* \"contracts/ReentrancyGuard.sol\":2325:2344  _status != _ENTERED */\n      eq\n      iszero\n        /* \"contracts/ReentrancyGuard.sol\":2317:2380  require(_status != _ENTERED, \"ReentrancyGuard: reentrant call\") */\n      tag_335\n      jumpi\n      mload(0x40)\n      shl(0xe5, 0x461bcd)\n      dup2\n      mstore\n        /* \"#utility.yul\":8306:8308   */\n      0x20\n        /* \"contracts/ReentrancyGuard.sol\":2317:2380  require(_status != _ENTERED, \"ReentrancyGuard: reentrant call\") */\n      0x04\n      dup3\n      add\n        /* \"#utility.yul\":8288:8309   */\n      mstore\n        /* \"#utility.yul\":8345:8347   */\n      0x1f\n        /* \"#utility.yul\":8325:8343   */\n      0x24\n      dup3\n      add\n        /* \"#utility.yul\":8318:8348   */\n      mstore\n        /* \"#utility.yul\":8384:8417   */\n      0x5265656e7472616e637947756172643a207265656e7472616e742063616c6c00\n        /* \"#utility.yul\":8364:8382   */\n      0x44\n      dup3\n      add\n        /* \"#utility.yul\":8357:8418   */\n      mstore\n        /* \"#utility.yul\":8435:8453   */\n      0x64\n      add\n        /* \"contracts/ReentrancyGuard.sol\":2317:2380  require(_status != _ENTERED, \"ReentrancyGuard: reentrant call\") */\n      tag_119\n        /* \"#utility.yul\":8278:8459   */\n      jump\n        /* \"contracts/ReentrancyGuard.sol\":2317:2380  require(_status != _ENTERED, \"ReentrancyGuard: reentrant call\") */\n    tag_335:\n        /* \"contracts/ReentrancyGuard.sol\":1744:1745  2 */\n      0x02\n        /* \"contracts/ReentrancyGuard.sol\":2455:2462  _status */\n      0x00\n        /* \"contracts/ReentrancyGuard.sol\":2455:2473  _status = _ENTERED */\n      swap1\n      dup2\n      sstore\n        /* \"contracts/Market.sol\":12173:12189  pairsInfo[_pair] */\n      dup3\n      dup2\n      mstore\n        /* \"contracts/Market.sol\":12173:12182  pairsInfo */\n      0x10\n        /* \"contracts/Market.sol\":12173:12189  pairsInfo[_pair] */\n      0x20\n      mstore\n      0x40\n      swap1\n      keccak256\n        /* \"contracts/Market.sol\":12173:12197  pairsInfo[_pair].settled */\n      0x04\n      add\n      sload\n      0xff\n      and\n        /* \"contracts/Market.sol\":12170:12235  if(pairsInfo[_pair].settled){... */\n      iszero\n      tag_338\n      jumpi\n      pop\n        /* \"contracts/Market.sol\":12219:12224  false */\n      0x00\n        /* \"contracts/Market.sol\":12212:12224  return false */\n      jump(tag_221)\n        /* \"contracts/Market.sol\":12170:12235  if(pairsInfo[_pair].settled){... */\n    tag_338:\n        /* \"contracts/Market.sol\":12244:12258  address winner */\n      0x00\n        /* \"contracts/Market.sol\":12268:12285  address affiliate */\n      dup1\n        /* \"contracts/Market.sol\":12295:12312  uint256 winAmount */\n      0x00\n        /* \"contracts/Market.sol\":12322:12339  uint256 vigAmount */\n      dup1\n        /* \"contracts/Market.sol\":12352:12358  status */\n      sload(0x09)\n        /* \"contracts/Market.sol\":12362:12363  1 */\n      0x01\n        /* \"contracts/Market.sol\":12352:12363  status == 1 */\n      eq\n        /* \"contracts/Market.sol\":12349:13059  if(status == 1){... */\n      iszero\n      tag_339\n      jumpi\n        /* \"contracts/Market.sol\":12387:12420  betsInfo[pairsInfo[_pair].betIdA] */\n      0x00\n        /* \"contracts/Market.sol\":12396:12412  pairsInfo[_pair] */\n      dup7\n      dup2\n      mstore\n        /* \"contracts/Market.sol\":12396:12405  pairsInfo */\n      0x10\n        /* \"contracts/Market.sol\":12396:12412  pairsInfo[_pair] */\n      0x20\n      swap1\n      dup2\n      mstore\n      0x40\n      dup1\n      dup4\n      keccak256\n        /* \"contracts/Market.sol\":12396:12419  pairsInfo[_pair].betIdA */\n      sload\n        /* \"contracts/Market.sol\":12387:12420  betsInfo[pairsInfo[_pair].betIdA] */\n      dup4\n      mstore\n        /* \"contracts/Market.sol\":12387:12395  betsInfo */\n      0x0d\n        /* \"contracts/Market.sol\":12387:12420  betsInfo[pairsInfo[_pair].betIdA] */\n      swap1\n      swap2\n      mstore\n      swap1\n      keccak256\n        /* \"contracts/Market.sol\":12387:12427  betsInfo[pairsInfo[_pair].betIdA].better */\n      sload\n        /* \"contracts/Market.sol\":12515:12520  a.vig */\n      sload(0x05)\n      sub(shl(0xa0, 0x01), 0x01)\n        /* \"contracts/Market.sol\":12387:12427  betsInfo[pairsInfo[_pair].betIdA].better */\n      swap1\n      swap2\n      and\n      swap5\n      pop\n        /* \"contracts/Market.sol\":12524:12527  100 */\n      0x64\n      swap1\n        /* \"contracts/Market.sol\":12509:12520  100 - a.vig */\n      tag_340\n      swap1\n        /* \"contracts/Market.sol\":12524:12527  100 */\n      dup3\n        /* \"contracts/Market.sol\":12509:12520  100 - a.vig */\n      tag_161\n      jump\t// in\n    tag_340:\n        /* \"contracts/Market.sol\":12481:12497  pairsInfo[_pair] */\n      0x00\n      dup9\n      dup2\n      mstore\n        /* \"contracts/Market.sol\":12481:12490  pairsInfo */\n      0x10\n        /* \"contracts/Market.sol\":12481:12497  pairsInfo[_pair] */\n      0x20\n      mstore\n      0x40\n      swap1\n      keccak256\n        /* \"contracts/Market.sol\":12481:12505  pairsInfo[_pair].amountB */\n      0x03\n      add\n      sload\n        /* \"contracts/Market.sol\":12481:12521  pairsInfo[_pair].amountB * (100 - a.vig) */\n      tag_341\n      swap2\n      swap1\n      tag_163\n      jump\t// in\n    tag_341:\n        /* \"contracts/Market.sol\":12481:12527  pairsInfo[_pair].amountB * (100 - a.vig) / 100 */\n      tag_342\n      swap2\n      swap1\n      tag_165\n      jump\t// in\n    tag_342:\n        /* \"contracts/Market.sol\":12453:12469  pairsInfo[_pair] */\n      0x00\n      dup8\n      dup2\n      mstore\n        /* \"contracts/Market.sol\":12453:12462  pairsInfo */\n      0x10\n        /* \"contracts/Market.sol\":12453:12469  pairsInfo[_pair] */\n      0x20\n      mstore\n      0x40\n      swap1\n      keccak256\n        /* \"contracts/Market.sol\":12453:12477  pairsInfo[_pair].amountA */\n      0x02\n      add\n      sload\n        /* \"contracts/Market.sol\":12453:12528  pairsInfo[_pair].amountA + (pairsInfo[_pair].amountB * (100 - a.vig) / 100) */\n      tag_343\n      swap2\n      swap1\n      tag_205\n      jump\t// in\n    tag_343:\n        /* \"contracts/Market.sol\":12581:12586  a.vig */\n      sload(0x05)\n        /* \"contracts/Market.sol\":12554:12570  pairsInfo[_pair] */\n      0x00\n      dup9\n      dup2\n      mstore\n        /* \"contracts/Market.sol\":12554:12563  pairsInfo */\n      0x10\n        /* \"contracts/Market.sol\":12554:12570  pairsInfo[_pair] */\n      0x20\n      mstore\n      0x40\n      swap1\n      keccak256\n        /* \"contracts/Market.sol\":12581:12586  a.vig */\n      0x03\n        /* \"contracts/Market.sol\":12554:12578  pairsInfo[_pair].amountB */\n      add\n      sload\n        /* \"contracts/Market.sol\":12441:12528  winAmount = pairsInfo[_pair].amountA + (pairsInfo[_pair].amountB * (100 - a.vig) / 100) */\n      swap2\n      swap4\n      pop\n        /* \"contracts/Market.sol\":12589:12592  100 */\n      0x64\n      swap2\n        /* \"contracts/Market.sol\":12554:12586  pairsInfo[_pair].amountB * a.vig */\n      tag_344\n      swap2\n        /* \"contracts/Market.sol\":12581:12586  a.vig */\n      swap1\n        /* \"contracts/Market.sol\":12554:12586  pairsInfo[_pair].amountB * a.vig */\n      tag_163\n      jump\t// in\n    tag_344:\n        /* \"contracts/Market.sol\":12554:12592  pairsInfo[_pair].amountB * a.vig / 100 */\n      tag_345\n      swap2\n      swap1\n      tag_165\n      jump\t// in\n    tag_345:\n        /* \"contracts/Market.sol\":12618:12651  betsInfo[pairsInfo[_pair].betIdA] */\n      0x00\n        /* \"contracts/Market.sol\":12627:12643  pairsInfo[_pair] */\n      dup8\n      dup2\n      mstore\n        /* \"contracts/Market.sol\":12627:12636  pairsInfo */\n      0x10\n        /* \"contracts/Market.sol\":12627:12643  pairsInfo[_pair] */\n      0x20\n      swap1\n      dup2\n      mstore\n      0x40\n      dup1\n      dup4\n      keccak256\n        /* \"contracts/Market.sol\":12627:12650  pairsInfo[_pair].betIdA */\n      sload\n        /* \"contracts/Market.sol\":12618:12651  betsInfo[pairsInfo[_pair].betIdA] */\n      dup4\n      mstore\n        /* \"contracts/Market.sol\":12618:12626  betsInfo */\n      0x0d\n        /* \"contracts/Market.sol\":12618:12651  betsInfo[pairsInfo[_pair].betIdA] */\n      swap1\n      swap2\n      mstore\n      swap1\n      keccak256\n        /* \"contracts/Market.sol\":12618:12661  betsInfo[pairsInfo[_pair].betIdA].affiliate */\n      0x01\n      add\n      sload\n      sub(shl(0xa0, 0x01), 0x01)\n      and\n      swap4\n      pop\n        /* \"contracts/Market.sol\":12542:12592  vigAmount = pairsInfo[_pair].amountB * a.vig / 100 */\n      swap1\n      pop\n        /* \"contracts/Market.sol\":12349:13059  if(status == 1){... */\n      jump(tag_354)\n    tag_339:\n        /* \"contracts/Market.sol\":12689:12695  status */\n      sload(0x09)\n        /* \"contracts/Market.sol\":12699:12700  2 */\n      0x02\n        /* \"contracts/Market.sol\":12689:12700  status == 2 */\n      eq\n        /* \"contracts/Market.sol\":12686:13059  if(status == 2){... */\n      iszero\n      tag_347\n      jumpi\n        /* \"contracts/Market.sol\":12724:12757  betsInfo[pairsInfo[_pair].betIdB] */\n      0x00\n        /* \"contracts/Market.sol\":12733:12749  pairsInfo[_pair] */\n      dup7\n      dup2\n      mstore\n        /* \"contracts/Market.sol\":12733:12742  pairsInfo */\n      0x10\n        /* \"contracts/Market.sol\":12733:12749  pairsInfo[_pair] */\n      0x20\n      swap1\n      dup2\n      mstore\n      0x40\n      dup1\n      dup4\n      keccak256\n        /* \"contracts/Market.sol\":12733:12756  pairsInfo[_pair].betIdB */\n      0x01\n      add\n      sload\n        /* \"contracts/Market.sol\":12724:12757  betsInfo[pairsInfo[_pair].betIdB] */\n      dup4\n      mstore\n        /* \"contracts/Market.sol\":12724:12732  betsInfo */\n      0x0d\n        /* \"contracts/Market.sol\":12724:12757  betsInfo[pairsInfo[_pair].betIdB] */\n      swap1\n      swap2\n      mstore\n      swap1\n      keccak256\n        /* \"contracts/Market.sol\":12724:12764  betsInfo[pairsInfo[_pair].betIdB].better */\n      sload\n        /* \"contracts/Market.sol\":12852:12857  a.vig */\n      sload(0x05)\n      sub(shl(0xa0, 0x01), 0x01)\n        /* \"contracts/Market.sol\":12724:12764  betsInfo[pairsInfo[_pair].betIdB].better */\n      swap1\n      swap2\n      and\n      swap5\n      pop\n        /* \"contracts/Market.sol\":12861:12864  100 */\n      0x64\n      swap1\n        /* \"contracts/Market.sol\":12846:12857  100 - a.vig */\n      tag_348\n      swap1\n        /* \"contracts/Market.sol\":12861:12864  100 */\n      dup3\n        /* \"contracts/Market.sol\":12846:12857  100 - a.vig */\n      tag_161\n      jump\t// in\n    tag_348:\n        /* \"contracts/Market.sol\":12818:12834  pairsInfo[_pair] */\n      0x00\n      dup9\n      dup2\n      mstore\n        /* \"contracts/Market.sol\":12818:12827  pairsInfo */\n      0x10\n        /* \"contracts/Market.sol\":12818:12834  pairsInfo[_pair] */\n      0x20\n      mstore\n      0x40\n      swap1\n      keccak256\n        /* \"contracts/Market.sol\":12818:12842  pairsInfo[_pair].amountA */\n      0x02\n      add\n      sload\n        /* \"contracts/Market.sol\":12818:12858  pairsInfo[_pair].amountA * (100 - a.vig) */\n      tag_349\n      swap2\n      swap1\n      tag_163\n      jump\t// in\n    tag_349:\n        /* \"contracts/Market.sol\":12818:12864  pairsInfo[_pair].amountA * (100 - a.vig) / 100 */\n      tag_350\n      swap2\n      swap1\n      tag_165\n      jump\t// in\n    tag_350:\n        /* \"contracts/Market.sol\":12790:12806  pairsInfo[_pair] */\n      0x00\n      dup8\n      dup2\n      mstore\n        /* \"contracts/Market.sol\":12790:12799  pairsInfo */\n      0x10\n        /* \"contracts/Market.sol\":12790:12806  pairsInfo[_pair] */\n      0x20\n      mstore\n      0x40\n      swap1\n      keccak256\n        /* \"contracts/Market.sol\":12790:12814  pairsInfo[_pair].amountB */\n      0x03\n      add\n      sload\n        /* \"contracts/Market.sol\":12790:12865  pairsInfo[_pair].amountB + (pairsInfo[_pair].amountA * (100 - a.vig) / 100) */\n      tag_351\n      swap2\n      swap1\n      tag_205\n      jump\t// in\n    tag_351:\n        /* \"contracts/Market.sol\":12918:12923  a.vig */\n      sload(0x05)\n        /* \"contracts/Market.sol\":12891:12907  pairsInfo[_pair] */\n      0x00\n      dup9\n      dup2\n      mstore\n        /* \"contracts/Market.sol\":12891:12900  pairsInfo */\n      0x10\n        /* \"contracts/Market.sol\":12891:12907  pairsInfo[_pair] */\n      0x20\n      mstore\n      0x40\n      swap1\n      keccak256\n        /* \"contracts/Market.sol\":12918:12919  a */\n      0x02\n        /* \"contracts/Market.sol\":12891:12915  pairsInfo[_pair].amountA */\n      add\n      sload\n        /* \"contracts/Market.sol\":12778:12865  winAmount = pairsInfo[_pair].amountB + (pairsInfo[_pair].amountA * (100 - a.vig) / 100) */\n      swap2\n      swap4\n      pop\n        /* \"contracts/Market.sol\":12926:12929  100 */\n      0x64\n      swap2\n        /* \"contracts/Market.sol\":12891:12923  pairsInfo[_pair].amountA * a.vig */\n      tag_352\n      swap2\n        /* \"contracts/Market.sol\":12918:12923  a.vig */\n      swap1\n        /* \"contracts/Market.sol\":12891:12923  pairsInfo[_pair].amountA * a.vig */\n      tag_163\n      jump\t// in\n    tag_352:\n        /* \"contracts/Market.sol\":12891:12929  pairsInfo[_pair].amountA * a.vig / 100 */\n      tag_353\n      swap2\n      swap1\n      tag_165\n      jump\t// in\n    tag_353:\n        /* \"contracts/Market.sol\":12955:12988  betsInfo[pairsInfo[_pair].betIdB] */\n      0x00\n        /* \"contracts/Market.sol\":12964:12980  pairsInfo[_pair] */\n      dup8\n      dup2\n      mstore\n        /* \"contracts/Market.sol\":12964:12973  pairsInfo */\n      0x10\n        /* \"contracts/Market.sol\":12964:12980  pairsInfo[_pair] */\n      0x20\n      swap1\n      dup2\n      mstore\n      0x40\n      dup1\n      dup4\n      keccak256\n        /* \"contracts/Market.sol\":12964:12987  pairsInfo[_pair].betIdB */\n      0x01\n      swap1\n      dup2\n      add\n      sload\n        /* \"contracts/Market.sol\":12955:12988  betsInfo[pairsInfo[_pair].betIdB] */\n      dup5\n      mstore\n        /* \"contracts/Market.sol\":12955:12963  betsInfo */\n      0x0d\n        /* \"contracts/Market.sol\":12955:12988  betsInfo[pairsInfo[_pair].betIdB] */\n      swap1\n      swap3\n      mstore\n      swap1\n      swap2\n      keccak256\n        /* \"contracts/Market.sol\":12955:12998  betsInfo[pairsInfo[_pair].betIdB].affiliate */\n      add\n      sload\n      sub(shl(0xa0, 0x01), 0x01)\n      and\n      swap4\n      pop\n        /* \"contracts/Market.sol\":12879:12929  vigAmount = pairsInfo[_pair].amountA * a.vig / 100 */\n      swap1\n      pop\n        /* \"contracts/Market.sol\":12686:13059  if(status == 2){... */\n      jump(tag_354)\n    tag_347:\n        /* \"contracts/Market.sol\":13043:13048  false */\n      0x00\n        /* \"contracts/Market.sol\":13036:13048  return false */\n      swap5\n      pop\n      pop\n      pop\n      pop\n      pop\n      jump(tag_221)\n        /* \"contracts/Market.sol\":12686:13059  if(status == 2){... */\n    tag_354:\n      sub(shl(0xa0, 0x01), 0x01)\n        /* \"contracts/Market.sol\":13068:13079  bal[winner] */\n      dup5\n      and\n      0x00\n      swap1\n      dup2\n      mstore\n        /* \"contracts/Market.sol\":13068:13071  bal */\n      0x0a\n        /* \"contracts/Market.sol\":13068:13079  bal[winner] */\n      0x20\n      mstore\n      0x40\n      dup2\n      keccak256\n        /* \"contracts/Market.sol\":13068:13092  bal[winner] += winAmount */\n      dup1\n      sload\n        /* \"contracts/Market.sol\":13083:13092  winAmount */\n      dup5\n      swap3\n        /* \"contracts/Market.sol\":13068:13079  bal[winner] */\n      swap1\n        /* \"contracts/Market.sol\":13068:13092  bal[winner] += winAmount */\n      tag_355\n      swap1\n        /* \"contracts/Market.sol\":13083:13092  winAmount */\n      dup5\n      swap1\n        /* \"contracts/Market.sol\":13068:13092  bal[winner] += winAmount */\n      tag_205\n      jump\t// in\n    tag_355:\n      swap1\n      swap2\n      sstore\n      pop\n      pop\n        /* \"contracts/Market.sol\":13133:13139  a.hVig */\n      sload(0x08)\n        /* \"contracts/Market.sol\":13142:13145  100 */\n      0x64\n      swap1\n        /* \"contracts/Market.sol\":13121:13139  vigAmount * a.hVig */\n      tag_356\n      swap1\n        /* \"contracts/Market.sol\":13121:13130  vigAmount */\n      dup4\n        /* \"contracts/Market.sol\":13121:13139  vigAmount * a.hVig */\n      tag_163\n      jump\t// in\n    tag_356:\n        /* \"contracts/Market.sol\":13121:13145  vigAmount * a.hVig / 100 */\n      tag_357\n      swap2\n      swap1\n      tag_165\n      jump\t// in\n    tag_357:\n        /* \"contracts/Market.sol\":13106:13107  a */\n      0x02\n        /* \"contracts/Market.sol\":13106:13116  a.holdAddr */\n      sload\n      sub(shl(0xa0, 0x01), 0x01)\n      and\n        /* \"contracts/Market.sol\":13102:13117  bal[a.holdAddr] */\n      0x00\n      swap1\n      dup2\n      mstore\n        /* \"contracts/Market.sol\":13102:13105  bal */\n      0x0a\n        /* \"contracts/Market.sol\":13102:13117  bal[a.holdAddr] */\n      0x20\n      mstore\n      0x40\n      dup2\n      keccak256\n        /* \"contracts/Market.sol\":13102:13145  bal[a.holdAddr] += vigAmount * a.hVig / 100 */\n      dup1\n      sload\n        /* \"contracts/Market.sol\":13102:13117  bal[a.holdAddr] */\n      swap1\n      swap2\n      swap1\n        /* \"contracts/Market.sol\":13102:13145  bal[a.holdAddr] += vigAmount * a.hVig / 100 */\n      tag_358\n      swap1\n      dup5\n      swap1\n      tag_205\n      jump\t// in\n    tag_358:\n      swap1\n      swap2\n      sstore\n      pop\n      pop\n        /* \"contracts/Market.sol\":13185:13191  a.eVig */\n      sload(0x07)\n        /* \"contracts/Market.sol\":13194:13197  100 */\n      0x64\n      swap1\n        /* \"contracts/Market.sol\":13173:13191  vigAmount * a.eVig */\n      tag_359\n      swap1\n        /* \"contracts/Market.sol\":13173:13182  vigAmount */\n      dup4\n        /* \"contracts/Market.sol\":13173:13191  vigAmount * a.eVig */\n      tag_163\n      jump\t// in\n    tag_359:\n        /* \"contracts/Market.sol\":13173:13197  vigAmount * a.eVig / 100 */\n      tag_360\n      swap2\n      swap1\n      tag_165\n      jump\t// in\n    tag_360:\n        /* \"contracts/Market.sol\":13159:13168  a.ecoAddr */\n      and(sub(shl(0xa0, 0x01), 0x01), sload(0x03))\n        /* \"contracts/Market.sol\":13155:13169  bal[a.ecoAddr] */\n      0x00\n      swap1\n      dup2\n      mstore\n        /* \"contracts/Market.sol\":13155:13158  bal */\n      0x0a\n        /* \"contracts/Market.sol\":13155:13169  bal[a.ecoAddr] */\n      0x20\n      mstore\n      0x40\n      dup2\n      keccak256\n        /* \"contracts/Market.sol\":13155:13197  bal[a.ecoAddr] += vigAmount * a.eVig / 100 */\n      dup1\n      sload\n        /* \"contracts/Market.sol\":13155:13169  bal[a.ecoAddr] */\n      swap1\n      swap2\n      swap1\n        /* \"contracts/Market.sol\":13155:13197  bal[a.ecoAddr] += vigAmount * a.eVig / 100 */\n      tag_361\n      swap1\n      dup5\n      swap1\n      tag_205\n      jump\t// in\n    tag_361:\n      swap1\n      swap2\n      sstore\n      pop\n      pop\n        /* \"contracts/Market.sol\":13237:13243  a.aVig */\n      sload(0x06)\n        /* \"contracts/Market.sol\":13246:13249  100 */\n      0x64\n      swap1\n        /* \"contracts/Market.sol\":13225:13243  vigAmount * a.aVig */\n      tag_362\n      swap1\n        /* \"contracts/Market.sol\":13225:13234  vigAmount */\n      dup4\n        /* \"contracts/Market.sol\":13225:13243  vigAmount * a.aVig */\n      tag_163\n      jump\t// in\n    tag_362:\n        /* \"contracts/Market.sol\":13225:13249  vigAmount * a.aVig / 100 */\n      tag_363\n      swap2\n      swap1\n      tag_165\n      jump\t// in\n    tag_363:\n      sub(shl(0xa0, 0x01), 0x01)\n        /* \"contracts/Market.sol\":13207:13221  bal[affiliate] */\n      dup5\n      and\n      0x00\n      swap1\n      dup2\n      mstore\n        /* \"contracts/Market.sol\":13207:13210  bal */\n      0x0a\n        /* \"contracts/Market.sol\":13207:13221  bal[affiliate] */\n      0x20\n      mstore\n      0x40\n      dup2\n      keccak256\n        /* \"contracts/Market.sol\":13207:13249  bal[affiliate] += vigAmount * a.aVig / 100 */\n      dup1\n      sload\n        /* \"contracts/Market.sol\":13207:13221  bal[affiliate] */\n      swap1\n      swap2\n      swap1\n        /* \"contracts/Market.sol\":13207:13249  bal[affiliate] += vigAmount * a.aVig / 100 */\n      tag_364\n      swap1\n      dup5\n      swap1\n      tag_205\n      jump\t// in\n    tag_364:\n      swap1\n      swap2\n      sstore\n      pop\n      pop\n      pop\n        /* \"contracts/Market.sol\":13259:13275  pairsInfo[_pair] */\n      0x00\n      swap5\n      dup6\n      mstore\n      pop\n      pop\n        /* \"contracts/Market.sol\":13259:13268  pairsInfo */\n      0x10\n        /* \"contracts/Market.sol\":13259:13275  pairsInfo[_pair] */\n      0x20\n      mstore\n      pop\n      pop\n      0x40\n      dup2\n      keccak256\n        /* \"contracts/Market.sol\":13259:13283  pairsInfo[_pair].settled */\n      0x04\n      add\n        /* \"contracts/Market.sol\":13259:13290  pairsInfo[_pair].settled = true */\n      dup1\n      sload\n      not(0xff)\n      and\n        /* \"contracts/Market.sol\":13286:13290  true */\n      0x01\n        /* \"contracts/Market.sol\":13259:13290  pairsInfo[_pair].settled = true */\n      swap1\n      dup2\n      or\n      swap1\n      swap2\n      sstore\n        /* \"contracts/ReentrancyGuard.sol\":2628:2650  _status = _NOT_ENTERED */\n      swap1\n      dup2\n      swap1\n      sstore\n        /* \"contracts/Market.sol\":13286:13290  true */\n      swap1\n        /* \"contracts/Market.sol\":12089:13318  function _settlePair(uint256 _pair) private nonReentrant returns(bool) {... */\n      jump\t// out\n        /* \"contracts/Market.sol\":13324:13811  function _createBet(... */\n    tag_166:\n      sub(shl(0xa0, 0x01), 0x01)\n        /* \"contracts/Market.sol\":13552:13576  _affiliate == address(0) */\n      dup7\n      and\n        /* \"contracts/Market.sol\":13549:13624  if(_affiliate == address(0)){... */\n      tag_366\n      jumpi\n        /* \"contracts/Market.sol\":13604:13613  a.ecoAddr */\n      and(sub(shl(0xa0, 0x01), 0x01), sload(0x03))\n      swap6\n      pop\n        /* \"contracts/Market.sol\":13549:13624  if(_affiliate == address(0)){... */\n    tag_366:\n        /* \"contracts/Market.sol\":13652:13721  Struct.MarketBet(_better, _affiliate, _stake, _matched, _odds, _side) */\n      0x40\n      dup1\n      mload\n      0xc0\n      dup2\n      add\n      dup3\n      mstore\n      sub(shl(0xa0, 0x01), 0x01)\n      swap9\n      dup10\n      and\n      dup1\n      dup3\n      mstore\n      swap8\n      dup10\n      and\n      0x20\n      dup1\n      dup4\n      add\n      swap2\n      dup3\n      mstore\n      dup3\n      dup5\n      add\n      swap8\n      dup9\n      mstore\n      0x60\n      dup4\n      add\n      swap7\n      dup8\n      mstore\n      0x80\n      dup4\n      add\n      swap6\n      dup7\n      mstore\n      0xa0\n      dup4\n      add\n      swap5\n      dup6\n      mstore\n      0x00\n        /* \"contracts/Market.sol\":13633:13649  betsInfo[_betId] */\n      dup10\n      dup2\n      mstore\n        /* \"contracts/Market.sol\":13633:13641  betsInfo */\n      0x0d\n        /* \"contracts/Market.sol\":13633:13649  betsInfo[_betId] */\n      dup3\n      mstore\n      dup5\n      dup2\n      keccak256\n        /* \"contracts/Market.sol\":13633:13721  betsInfo[_betId] = Struct.MarketBet(_better, _affiliate, _stake, _matched, _odds, _side) */\n      swap4\n      mload\n      dup5\n      sload\n      swap1\n      dup14\n      and\n      not(sub(shl(0xa0, 0x01), 0x01))\n      swap2\n      dup3\n      and\n      or\n      dup6\n      sstore\n      swap3\n      mload\n      0x01\n      dup1\n      dup7\n      add\n      dup1\n      sload\n      swap3\n      swap1\n      swap15\n      and\n      swap2\n      swap1\n      swap5\n      and\n      or\n      swap1\n      swap12\n      sstore\n      swap7\n      mload\n      0x02\n      dup4\n      add\n      sstore\n      swap5\n      mload\n      0x03\n      dup3\n      add\n      sstore\n      swap3\n      mload\n      0x04\n      dup5\n      add\n      sstore\n      swap1\n      mload\n      0x05\n      swap1\n      swap3\n      add\n      swap2\n      swap1\n      swap2\n      sstore\n        /* \"contracts/Market.sol\":13731:13735  bets */\n      0x0b\n        /* \"contracts/Market.sol\":13731:13748  bets.push(_betId) */\n      dup1\n      sload\n      dup1\n      dup5\n      add\n      swap1\n      swap2\n      sstore\n      0x0175b7a638427703f0dbe7bb9bbf987a2551717b34e79f33b5b1008d1fa01db9\n      add\n      dup5\n      swap1\n      sstore\n        /* \"contracts/Market.sol\":13758:13775  userBets[_better] */\n      swap4\n      dup6\n      mstore\n        /* \"contracts/Market.sol\":13758:13766  userBets */\n      0x0c\n        /* \"contracts/Market.sol\":13758:13775  userBets[_better] */\n      dup3\n      mstore\n      swap3\n      dup5\n      keccak256\n        /* \"contracts/Market.sol\":13758:13788  userBets[_better].push(_betId) */\n      dup1\n      sload\n      swap4\n      dup5\n      add\n      dup2\n      sstore\n      dup5\n      mstore\n      swap1\n      swap3\n      keccak256\n      add\n      sstore\n        /* \"contracts/Market.sol\":13324:13811  function _createBet(... */\n      jump\t// out\n        /* \"contracts/Market.sol\":8825:10182  function _match(... */\n    tag_193:\n        /* \"contracts/Market.sol\":9020:9027  uint256 */\n      0x00\n        /* \"contracts/Market.sol\":9043:9063  uint256 betterAmount */\n      dup1\n        /* \"contracts/Market.sol\":9073:9092  uint256 makerAmount */\n      0x00\n        /* \"contracts/Market.sol\":9102:9116  uint256 pairId */\n      dup1\n        /* \"contracts/Market.sol\":9146:9152  _stake */\n      dup10\n        /* \"contracts/Market.sol\":9129:9142  _offeredStake */\n      dup10\n        /* \"contracts/Market.sol\":9129:9152  _offeredStake <= _stake */\n      gt\n        /* \"contracts/Market.sol\":9126:9956  if(_offeredStake <= _stake) {... */\n      tag_370\n      jumpi\n        /* \"contracts/Market.sol\":9183:9196  _offeredStake */\n      dup9\n      swap3\n      pop\n        /* \"contracts/Market.sol\":9241:9252  _odds - 100 */\n      tag_371\n        /* \"contracts/Market.sol\":9249:9252  100 */\n      0x64\n        /* \"contracts/Market.sol\":9241:9246  _odds */\n      dup10\n        /* \"contracts/Market.sol\":9241:9252  _odds - 100 */\n      tag_161\n      jump\t// in\n    tag_371:\n        /* \"contracts/Market.sol\":9224:9253  _offeredStake * (_odds - 100) */\n      tag_372\n      swap1\n        /* \"contracts/Market.sol\":9224:9237  _offeredStake */\n      dup11\n        /* \"contracts/Market.sol\":9224:9253  _offeredStake * (_odds - 100) */\n      tag_163\n      jump\t// in\n    tag_372:\n        /* \"contracts/Market.sol\":9210:9253  makerAmount = _offeredStake * (_odds - 100) */\n      swap2\n      pop\n        /* \"contracts/Market.sol\":9267:9285  makerAmount /= 100 */\n      tag_373\n        /* \"contracts/Market.sol\":9282:9285  100 */\n      0x64\n        /* \"contracts/Market.sol\":9210:9253  makerAmount = _offeredStake * (_odds - 100) */\n      dup4\n        /* \"contracts/Market.sol\":9267:9285  makerAmount /= 100 */\n      tag_165\n      jump\t// in\n    tag_373:\n      swap2\n      pop\n        /* \"contracts/Market.sol\":9302:9307  _side */\n      dup7\n        /* \"contracts/Market.sol\":9311:9312  1 */\n      0x01\n        /* \"contracts/Market.sol\":9302:9312  _side == 1 */\n      eq\n        /* \"contracts/Market.sol\":9299:9545  if(_side == 1){... */\n      iszero\n      tag_374\n      jumpi\n        /* \"contracts/Market.sol\":9340:9398  _createPair(_betId,_selectedHash,betterAmount,makerAmount) */\n      tag_375\n        /* \"contracts/Market.sol\":9352:9358  _betId */\n      dup7\n        /* \"contracts/Market.sol\":9359:9372  _selectedHash */\n      dup7\n        /* \"contracts/Market.sol\":9373:9385  betterAmount */\n      dup6\n        /* \"contracts/Market.sol\":9386:9397  makerAmount */\n      dup6\n        /* \"contracts/Market.sol\":9340:9351  _createPair */\n      tag_376\n        /* \"contracts/Market.sol\":9340:9398  _createPair(_betId,_selectedHash,betterAmount,makerAmount) */\n      jump\t// in\n    tag_375:\n        /* \"contracts/Market.sol\":9331:9398  pairId = _createPair(_betId,_selectedHash,betterAmount,makerAmount) */\n      swap1\n      pop\n        /* \"contracts/Market.sol\":9126:9956  if(_offeredStake <= _stake) {... */\n      jump(tag_387)\n        /* \"contracts/Market.sol\":9299:9545  if(_side == 1){... */\n    tag_374:\n        /* \"contracts/Market.sol\":9434:9439  _side */\n      dup7\n        /* \"contracts/Market.sol\":9443:9444  2 */\n      0x02\n        /* \"contracts/Market.sol\":9434:9444  _side == 2 */\n      eq\n        /* \"contracts/Market.sol\":9431:9545  if(_side == 2){... */\n      iszero\n      tag_378\n      jumpi\n        /* \"contracts/Market.sol\":9472:9530  _createPair(_selectedHash,_betId,makerAmount,betterAmount) */\n      tag_375\n        /* \"contracts/Market.sol\":9484:9497  _selectedHash */\n      dup6\n        /* \"contracts/Market.sol\":9498:9504  _betId */\n      dup8\n        /* \"contracts/Market.sol\":9505:9516  makerAmount */\n      dup5\n        /* \"contracts/Market.sol\":9517:9529  betterAmount */\n      dup7\n        /* \"contracts/Market.sol\":9472:9483  _createPair */\n      tag_376\n        /* \"contracts/Market.sol\":9472:9530  _createPair(_selectedHash,_betId,makerAmount,betterAmount) */\n      jump\t// in\n        /* \"contracts/Market.sol\":9431:9545  if(_side == 2){... */\n    tag_378:\n        /* \"contracts/Market.sol\":9126:9956  if(_offeredStake <= _stake) {... */\n      jump(tag_387)\n    tag_370:\n        /* \"contracts/Market.sol\":9598:9604  _stake */\n      dup10\n      swap3\n      pop\n        /* \"contracts/Market.sol\":9642:9653  _odds - 100 */\n      tag_381\n        /* \"contracts/Market.sol\":9650:9653  100 */\n      0x64\n        /* \"contracts/Market.sol\":9642:9647  _odds */\n      dup10\n        /* \"contracts/Market.sol\":9642:9653  _odds - 100 */\n      tag_161\n      jump\t// in\n    tag_381:\n        /* \"contracts/Market.sol\":9632:9654  _stake * (_odds - 100) */\n      tag_382\n      swap1\n        /* \"contracts/Market.sol\":9632:9638  _stake */\n      dup12\n        /* \"contracts/Market.sol\":9632:9654  _stake * (_odds - 100) */\n      tag_163\n      jump\t// in\n    tag_382:\n        /* \"contracts/Market.sol\":9618:9654  makerAmount = _stake * (_odds - 100) */\n      swap2\n      pop\n        /* \"contracts/Market.sol\":9668:9686  makerAmount /= 100 */\n      tag_383\n        /* \"contracts/Market.sol\":9683:9686  100 */\n      0x64\n        /* \"contracts/Market.sol\":9618:9654  makerAmount = _stake * (_odds - 100) */\n      dup4\n        /* \"contracts/Market.sol\":9668:9686  makerAmount /= 100 */\n      tag_165\n      jump\t// in\n    tag_383:\n      swap2\n      pop\n        /* \"contracts/Market.sol\":9703:9708  _side */\n      dup7\n        /* \"contracts/Market.sol\":9712:9713  1 */\n      0x01\n        /* \"contracts/Market.sol\":9703:9713  _side == 1 */\n      eq\n        /* \"contracts/Market.sol\":9700:9946  if(_side == 1){... */\n      iszero\n      tag_384\n      jumpi\n        /* \"contracts/Market.sol\":9741:9799  _createPair(_betId,_selectedHash,betterAmount,makerAmount) */\n      tag_375\n        /* \"contracts/Market.sol\":9753:9759  _betId */\n      dup7\n        /* \"contracts/Market.sol\":9760:9773  _selectedHash */\n      dup7\n        /* \"contracts/Market.sol\":9774:9786  betterAmount */\n      dup6\n        /* \"contracts/Market.sol\":9787:9798  makerAmount */\n      dup6\n        /* \"contracts/Market.sol\":9741:9752  _createPair */\n      tag_376\n        /* \"contracts/Market.sol\":9741:9799  _createPair(_betId,_selectedHash,betterAmount,makerAmount) */\n      jump\t// in\n        /* \"contracts/Market.sol\":9700:9946  if(_side == 1){... */\n    tag_384:\n        /* \"contracts/Market.sol\":9835:9840  _side */\n      dup7\n        /* \"contracts/Market.sol\":9844:9845  2 */\n      0x02\n        /* \"contracts/Market.sol\":9835:9845  _side == 2 */\n      eq\n        /* \"contracts/Market.sol\":9832:9946  if(_side == 2){... */\n      iszero\n      tag_387\n      jumpi\n        /* \"contracts/Market.sol\":9873:9931  _createPair(_selectedHash,_betId,makerAmount,betterAmount) */\n      tag_388\n        /* \"contracts/Market.sol\":9885:9898  _selectedHash */\n      dup6\n        /* \"contracts/Market.sol\":9899:9905  _betId */\n      dup8\n        /* \"contracts/Market.sol\":9906:9917  makerAmount */\n      dup5\n        /* \"contracts/Market.sol\":9918:9930  betterAmount */\n      dup7\n        /* \"contracts/Market.sol\":9873:9884  _createPair */\n      tag_376\n        /* \"contracts/Market.sol\":9873:9931  _createPair(_selectedHash,_betId,makerAmount,betterAmount) */\n      jump\t// in\n    tag_388:\n        /* \"contracts/Market.sol\":9864:9931  pairId = _createPair(_selectedHash,_betId,makerAmount,betterAmount) */\n      swap1\n      pop\n        /* \"contracts/Market.sol\":9832:9946  if(_side == 2){... */\n    tag_387:\n        /* \"contracts/Market.sol\":9965:9981  betPairs[_betId] */\n      0x00\n      dup7\n      dup2\n      mstore\n        /* \"contracts/Market.sol\":9965:9973  betPairs */\n      0x0f\n        /* \"contracts/Market.sol\":9965:9981  betPairs[_betId] */\n      0x20\n      swap1\n      dup2\n      mstore\n      0x40\n      dup1\n      dup4\n      keccak256\n        /* \"contracts/Market.sol\":9965:9994  betPairs[_betId].push(pairId) */\n      dup1\n      sload\n      0x01\n      dup2\n      dup2\n      add\n      dup4\n      sstore\n      swap2\n      dup6\n      mstore\n      dup4\n      dup6\n      keccak256\n      add\n      dup6\n      swap1\n      sstore\n        /* \"contracts/Market.sol\":10004:10027  betPairs[_selectedHash] */\n      dup9\n      dup5\n      mstore\n      dup2\n      dup5\n      keccak256\n        /* \"contracts/Market.sol\":10004:10040  betPairs[_selectedHash].push(pairId) */\n      dup1\n      sload\n      swap2\n      dup3\n      add\n      dup2\n      sstore\n      dup5\n      mstore\n      dup3\n      dup5\n      keccak256\n      add\n      dup5\n      swap1\n      sstore\n        /* \"contracts/Market.sol\":10050:10066  betsInfo[_betId] */\n      dup9\n      dup4\n      mstore\n        /* \"contracts/Market.sol\":10050:10058  betsInfo */\n      0x0d\n        /* \"contracts/Market.sol\":10050:10066  betsInfo[_betId] */\n      swap1\n      swap2\n      mstore\n      dup2\n      keccak256\n        /* \"contracts/Market.sol\":10050:10074  betsInfo[_betId].matched */\n      0x03\n      add\n        /* \"contracts/Market.sol\":10050:10090  betsInfo[_betId].matched += betterAmount */\n      dup1\n      sload\n        /* \"contracts/Market.sol\":10078:10090  betterAmount */\n      dup6\n      swap3\n        /* \"contracts/Market.sol\":9965:9981  betPairs[_betId] */\n      swap1\n        /* \"contracts/Market.sol\":10050:10090  betsInfo[_betId].matched += betterAmount */\n      tag_391\n      swap1\n        /* \"contracts/Market.sol\":10078:10090  betterAmount */\n      dup5\n      swap1\n        /* \"contracts/Market.sol\":10050:10090  betsInfo[_betId].matched += betterAmount */\n      tag_205\n      jump\t// in\n    tag_391:\n      swap1\n      swap2\n      sstore\n      pop\n      pop\n        /* \"contracts/Market.sol\":10100:10123  betsInfo[_selectedHash] */\n      0x00\n      dup6\n      dup2\n      mstore\n        /* \"contracts/Market.sol\":10100:10108  betsInfo */\n      0x0d\n        /* \"contracts/Market.sol\":10100:10123  betsInfo[_selectedHash] */\n      0x20\n      mstore\n      0x40\n      dup2\n      keccak256\n        /* \"contracts/Market.sol\":10100:10131  betsInfo[_selectedHash].matched */\n      0x03\n      add\n        /* \"contracts/Market.sol\":10100:10146  betsInfo[_selectedHash].matched += makerAmount */\n      dup1\n      sload\n        /* \"contracts/Market.sol\":10135:10146  makerAmount */\n      dup5\n      swap3\n        /* \"contracts/Market.sol\":10100:10123  betsInfo[_selectedHash] */\n      swap1\n        /* \"contracts/Market.sol\":10100:10146  betsInfo[_selectedHash].matched += makerAmount */\n      tag_392\n      swap1\n        /* \"contracts/Market.sol\":10135:10146  makerAmount */\n      dup5\n      swap1\n        /* \"contracts/Market.sol\":10100:10146  betsInfo[_selectedHash].matched += makerAmount */\n      tag_205\n      jump\t// in\n    tag_392:\n      swap1\n      swap2\n      sstore\n      pop\n        /* \"contracts/Market.sol\":10163:10175  betterAmount */\n      swap3\n      swap11\n        /* \"contracts/Market.sol\":8825:10182  function _match(... */\n      swap10\n      pop\n      pop\n      pop\n      pop\n      pop\n      pop\n      pop\n      pop\n      pop\n      pop\n      jump\t// out\n        /* \"contracts/Market.sol\":10188:11636  function _cancelBetPairs(uint256 _bet) private returns(bool) {... */\n    tag_215:\n        /* \"contracts/Market.sol\":10243:10247  bool */\n      0x00\n        /* \"contracts/Market.sol\":10289:10303  betsInfo[_bet] */\n      dup2\n      dup2\n      mstore\n        /* \"contracts/Market.sol\":10289:10297  betsInfo */\n      0x0d\n        /* \"contracts/Market.sol\":10289:10303  betsInfo[_bet] */\n      0x20\n      swap1\n      dup2\n      mstore\n      0x40\n      dup1\n      dup4\n      keccak256\n        /* \"contracts/Market.sol\":10259:10303  Struct.MarketBet memory bet = betsInfo[_bet] */\n      dup2\n      mload\n      0xc0\n      dup2\n      add\n      dup4\n      mstore\n      dup2\n      sload\n      sub(shl(0xa0, 0x01), 0x01)\n      swap1\n      dup2\n      and\n      dup3\n      mstore\n      0x01\n      dup4\n      add\n      sload\n      and\n      dup2\n      dup6\n      add\n      mstore\n      0x02\n      dup3\n      add\n      sload\n      dup2\n      dup5\n      add\n      mstore\n      0x03\n      dup3\n      add\n      sload\n      0x60\n      dup3\n      add\n      mstore\n      0x04\n      dup3\n      add\n      sload\n      0x80\n      dup3\n      add\n      mstore\n      0x05\n      swap1\n      swap2\n      add\n      sload\n      0xa0\n      dup3\n      add\n      mstore\n        /* \"contracts/Market.sol\":10339:10353  betPairs[_bet] */\n      dup5\n      dup5\n      mstore\n        /* \"contracts/Market.sol\":10339:10347  betPairs */\n      0x0f\n        /* \"contracts/Market.sol\":10339:10353  betPairs[_bet] */\n      dup4\n      mstore\n      dup2\n      dup5\n      keccak256\n        /* \"contracts/Market.sol\":10313:10353  uint256[] memory _pairs = betPairs[_bet] */\n      dup1\n      sload\n      dup4\n      mload\n      dup2\n      dup7\n      mul\n      dup2\n      add\n      dup7\n      add\n      swap1\n      swap5\n      mstore\n      dup1\n      dup5\n      mstore\n        /* \"contracts/Market.sol\":10259:10303  Struct.MarketBet memory bet = betsInfo[_bet] */\n      swap2\n      swap4\n        /* \"contracts/Market.sol\":10243:10247  bool */\n      dup6\n      swap4\n        /* \"contracts/Market.sol\":10313:10353  uint256[] memory _pairs = betPairs[_bet] */\n      swap3\n      swap1\n      dup4\n      add\n        /* \"contracts/Market.sol\":10339:10353  betPairs[_bet] */\n      dup3\n        /* \"contracts/Market.sol\":10313:10353  uint256[] memory _pairs = betPairs[_bet] */\n      dup3\n      dup1\n      iszero\n      tag_394\n      jumpi\n      0x20\n      mul\n      dup3\n      add\n      swap2\n      swap1\n      0x00\n      mstore\n      keccak256(0x00, 0x20)\n      swap1\n    tag_395:\n      dup2\n      sload\n      dup2\n      mstore\n      0x20\n      add\n      swap1\n      0x01\n      add\n      swap1\n      dup1\n      dup4\n      gt\n      tag_395\n      jumpi\n    tag_394:\n      pop\n      pop\n        /* \"contracts/Market.sol\":10382:10395  _pairs.length */\n      dup4\n      mload\n        /* \"contracts/Market.sol\":10313:10353  uint256[] memory _pairs = betPairs[_bet] */\n      swap4\n      swap5\n      pop\n        /* \"contracts/Market.sol\":10363:10379  uint pairsLength */\n      0x00\n      swap3\n      pop\n      pop\n      pop\n        /* \"contracts/Market.sol\":10405:11609  for(uint i = 0; i < pairsLength; i++){... */\n    tag_396:\n        /* \"contracts/Market.sol\":10425:10436  pairsLength */\n      dup2\n        /* \"contracts/Market.sol\":10421:10422  i */\n      dup2\n        /* \"contracts/Market.sol\":10421:10436  i < pairsLength */\n      lt\n        /* \"contracts/Market.sol\":10405:11609  for(uint i = 0; i < pairsLength; i++){... */\n      iszero\n      tag_397\n      jumpi\n        /* \"contracts/Market.sol\":10459:10468  pairsInfo */\n      0x10\n        /* \"contracts/Market.sol\":10459:10479  pairsInfo[_pairs[i]] */\n      0x00\n        /* \"contracts/Market.sol\":10469:10475  _pairs */\n      dup5\n        /* \"contracts/Market.sol\":10476:10477  i */\n      dup4\n        /* \"contracts/Market.sol\":10469:10478  _pairs[i] */\n      dup2\n      mload\n      dup2\n      lt\n      tag_399\n      jumpi\n      mstore(0x00, shl(0xe0, 0x4e487b71))\n      mstore(0x04, 0x32)\n      revert(0x00, 0x24)\n    tag_399:\n      0x20\n      swap1\n      dup2\n      mul\n      swap2\n      swap1\n      swap2\n      add\n      dup2\n      add\n      mload\n        /* \"contracts/Market.sol\":10459:10479  pairsInfo[_pairs[i]] */\n      dup3\n      mstore\n      dup2\n      add\n      swap2\n      swap1\n      swap2\n      mstore\n      0x40\n      add\n      0x00\n      keccak256\n        /* \"contracts/Market.sol\":10459:10487  pairsInfo[_pairs[i]].settled */\n      0x04\n      add\n      sload\n      0xff\n      and\n        /* \"contracts/Market.sol\":10456:10529  if(pairsInfo[_pairs[i]].settled){... */\n      iszero\n      tag_400\n      jumpi\n        /* \"contracts/Market.sol\":10506:10514  continue */\n      jump(tag_398)\n        /* \"contracts/Market.sol\":10456:10529  if(pairsInfo[_pairs[i]].settled){... */\n    tag_400:\n        /* \"contracts/Market.sol\":10542:10564  uint256 counterBetHash */\n      0x00\n        /* \"contracts/Market.sol\":10578:10599  uint256 counterAmount */\n      dup1\n        /* \"contracts/Market.sol\":10613:10631  uint256 thisAmount */\n      0x00\n        /* \"contracts/Market.sol\":10645:10666  address counterBetter */\n      dup1\n        /* \"contracts/Market.sol\":10683:10686  bet */\n      dup8\n        /* \"contracts/Market.sol\":10683:10691  bet.side */\n      0xa0\n      add\n      mload\n        /* \"contracts/Market.sol\":10695:10696  1 */\n      0x01\n        /* \"contracts/Market.sol\":10683:10696  bet.side == 1 */\n      eq\n        /* \"contracts/Market.sol\":10680:11130  if(bet.side == 1) {... */\n      iszero\n      tag_401\n      jumpi\n        /* \"contracts/Market.sol\":10729:10738  pairsInfo */\n      0x10\n        /* \"contracts/Market.sol\":10729:10749  pairsInfo[_pairs[i]] */\n      0x00\n        /* \"contracts/Market.sol\":10739:10745  _pairs */\n      dup9\n        /* \"contracts/Market.sol\":10746:10747  i */\n      dup8\n        /* \"contracts/Market.sol\":10739:10748  _pairs[i] */\n      dup2\n      mload\n      dup2\n      lt\n      tag_402\n      jumpi\n      mstore(0x00, shl(0xe0, 0x4e487b71))\n      mstore(0x04, 0x32)\n      revert(0x00, 0x24)\n    tag_402:\n      0x20\n      mul\n      0x20\n      add\n      add\n      mload\n        /* \"contracts/Market.sol\":10729:10749  pairsInfo[_pairs[i]] */\n      dup2\n      mstore\n      0x20\n      add\n      swap1\n      dup2\n      mstore\n      0x20\n      add\n      0x00\n      keccak256\n        /* \"contracts/Market.sol\":10729:10757  pairsInfo[_pairs[i]].amountA */\n      0x02\n      add\n      sload\n        /* \"contracts/Market.sol\":10716:10757  thisAmount = pairsInfo[_pairs[i]].amountA */\n      swap2\n      pop\n        /* \"contracts/Market.sol\":10792:10801  pairsInfo */\n      0x10\n        /* \"contracts/Market.sol\":10792:10812  pairsInfo[_pairs[i]] */\n      0x00\n        /* \"contracts/Market.sol\":10802:10808  _pairs */\n      dup9\n        /* \"contracts/Market.sol\":10809:10810  i */\n      dup8\n        /* \"contracts/Market.sol\":10802:10811  _pairs[i] */\n      dup2\n      mload\n      dup2\n      lt\n      tag_403\n      jumpi\n      mstore(0x00, shl(0xe0, 0x4e487b71))\n      mstore(0x04, 0x32)\n      revert(0x00, 0x24)\n    tag_403:\n      0x20\n      mul\n      0x20\n      add\n      add\n      mload\n        /* \"contracts/Market.sol\":10792:10812  pairsInfo[_pairs[i]] */\n      dup2\n      mstore\n      0x20\n      add\n      swap1\n      dup2\n      mstore\n      0x20\n      add\n      0x00\n      keccak256\n        /* \"contracts/Market.sol\":10792:10819  pairsInfo[_pairs[i]].betIdB */\n      0x01\n      add\n      sload\n        /* \"contracts/Market.sol\":10775:10819  counterBetHash = pairsInfo[_pairs[i]].betIdB */\n      swap4\n      pop\n        /* \"contracts/Market.sol\":10853:10862  pairsInfo */\n      0x10\n        /* \"contracts/Market.sol\":10853:10873  pairsInfo[_pairs[i]] */\n      0x00\n        /* \"contracts/Market.sol\":10863:10869  _pairs */\n      dup9\n        /* \"contracts/Market.sol\":10870:10871  i */\n      dup8\n        /* \"contracts/Market.sol\":10863:10872  _pairs[i] */\n      dup2\n      mload\n      dup2\n      lt\n      tag_404\n      jumpi\n      mstore(0x00, shl(0xe0, 0x4e487b71))\n      mstore(0x04, 0x32)\n      revert(0x00, 0x24)\n    tag_404:\n      0x20\n      mul\n      0x20\n      add\n      add\n      mload\n        /* \"contracts/Market.sol\":10853:10873  pairsInfo[_pairs[i]] */\n      dup2\n      mstore\n      0x20\n      add\n      swap1\n      dup2\n      mstore\n      0x20\n      add\n      0x00\n      keccak256\n        /* \"contracts/Market.sol\":10853:10881  pairsInfo[_pairs[i]].amountB */\n      0x03\n      add\n      sload\n        /* \"contracts/Market.sol\":10837:10881  counterAmount = pairsInfo[_pairs[i]].amountB */\n      swap3\n      pop\n        /* \"contracts/Market.sol\":10680:11130  if(bet.side == 1) {... */\n      jump(tag_406)\n    tag_401:\n        /* \"contracts/Market.sol\":10917:10920  bet */\n      dup8\n        /* \"contracts/Market.sol\":10917:10925  bet.side */\n      0xa0\n      add\n      mload\n        /* \"contracts/Market.sol\":10929:10930  2 */\n      0x02\n        /* \"contracts/Market.sol\":10917:10930  bet.side == 2 */\n      eq\n        /* \"contracts/Market.sol\":10914:11130  if(bet.side == 2) {... */\n      iszero\n      tag_406\n      jumpi\n        /* \"contracts/Market.sol\":10963:10972  pairsInfo */\n      0x10\n        /* \"contracts/Market.sol\":10963:10983  pairsInfo[_pairs[i]] */\n      0x00\n        /* \"contracts/Market.sol\":10973:10979  _pairs */\n      dup9\n        /* \"contracts/Market.sol\":10980:10981  i */\n      dup8\n        /* \"contracts/Market.sol\":10973:10982  _pairs[i] */\n      dup2\n      mload\n      dup2\n      lt\n      tag_407\n      jumpi\n      mstore(0x00, shl(0xe0, 0x4e487b71))\n      mstore(0x04, 0x32)\n      revert(0x00, 0x24)\n    tag_407:\n      0x20\n      mul\n      0x20\n      add\n      add\n      mload\n        /* \"contracts/Market.sol\":10963:10983  pairsInfo[_pairs[i]] */\n      dup2\n      mstore\n      0x20\n      add\n      swap1\n      dup2\n      mstore\n      0x20\n      add\n      0x00\n      keccak256\n        /* \"contracts/Market.sol\":10963:10991  pairsInfo[_pairs[i]].amountB */\n      0x03\n      add\n      sload\n        /* \"contracts/Market.sol\":10950:10991  thisAmount = pairsInfo[_pairs[i]].amountB */\n      swap2\n      pop\n        /* \"contracts/Market.sol\":11026:11035  pairsInfo */\n      0x10\n        /* \"contracts/Market.sol\":11026:11046  pairsInfo[_pairs[i]] */\n      0x00\n        /* \"contracts/Market.sol\":11036:11042  _pairs */\n      dup9\n        /* \"contracts/Market.sol\":11043:11044  i */\n      dup8\n        /* \"contracts/Market.sol\":11036:11045  _pairs[i] */\n      dup2\n      mload\n      dup2\n      lt\n      tag_408\n      jumpi\n      mstore(0x00, shl(0xe0, 0x4e487b71))\n      mstore(0x04, 0x32)\n      revert(0x00, 0x24)\n    tag_408:\n      0x20\n      mul\n      0x20\n      add\n      add\n      mload\n        /* \"contracts/Market.sol\":11026:11046  pairsInfo[_pairs[i]] */\n      dup2\n      mstore\n      0x20\n      add\n      swap1\n      dup2\n      mstore\n      0x20\n      add\n      0x00\n      keccak256\n        /* \"contracts/Market.sol\":11026:11053  pairsInfo[_pairs[i]].betIdA */\n      0x00\n      add\n      sload\n        /* \"contracts/Market.sol\":11009:11053  counterBetHash = pairsInfo[_pairs[i]].betIdA */\n      swap4\n      pop\n        /* \"contracts/Market.sol\":11087:11096  pairsInfo */\n      0x10\n        /* \"contracts/Market.sol\":11087:11107  pairsInfo[_pairs[i]] */\n      0x00\n        /* \"contracts/Market.sol\":11097:11103  _pairs */\n      dup9\n        /* \"contracts/Market.sol\":11104:11105  i */\n      dup8\n        /* \"contracts/Market.sol\":11097:11106  _pairs[i] */\n      dup2\n      mload\n      dup2\n      lt\n      tag_409\n      jumpi\n      mstore(0x00, shl(0xe0, 0x4e487b71))\n      mstore(0x04, 0x32)\n      revert(0x00, 0x24)\n    tag_409:\n      0x20\n      mul\n      0x20\n      add\n      add\n      mload\n        /* \"contracts/Market.sol\":11087:11107  pairsInfo[_pairs[i]] */\n      dup2\n      mstore\n      0x20\n      add\n      swap1\n      dup2\n      mstore\n      0x20\n      add\n      0x00\n      keccak256\n        /* \"contracts/Market.sol\":11087:11115  pairsInfo[_pairs[i]].amountA */\n      0x02\n      add\n      sload\n        /* \"contracts/Market.sol\":11071:11115  counterAmount = pairsInfo[_pairs[i]].amountA */\n      swap3\n      pop\n        /* \"contracts/Market.sol\":10914:11130  if(bet.side == 2) {... */\n    tag_406:\n      pop\n        /* \"contracts/Market.sol\":11159:11183  betsInfo[counterBetHash] */\n      0x00\n      dup4\n      dup2\n      mstore\n        /* \"contracts/Market.sol\":11159:11167  betsInfo */\n      0x0d\n        /* \"contracts/Market.sol\":11159:11183  betsInfo[counterBetHash] */\n      0x20\n      mstore\n      0x40\n      swap1\n      keccak256\n        /* \"contracts/Market.sol\":11159:11190  betsInfo[counterBetHash].better */\n      sload\n        /* \"contracts/Market.sol\":11243:11248  a.vig */\n      sload(0x05)\n      sub(shl(0xa0, 0x01), 0x01)\n        /* \"contracts/Market.sol\":11159:11190  betsInfo[counterBetHash].better */\n      swap1\n      swap2\n      and\n      swap1\n        /* \"contracts/Market.sol\":11252:11255  100 */\n      0x64\n      swap1\n        /* \"contracts/Market.sol\":11237:11248  100 - a.vig */\n      tag_410\n      swap1\n        /* \"contracts/Market.sol\":11252:11255  100 */\n      dup3\n        /* \"contracts/Market.sol\":11237:11248  100 - a.vig */\n      tag_161\n      jump\t// in\n    tag_410:\n        /* \"contracts/Market.sol\":11223:11249  thisAmount * (100 - a.vig) */\n      tag_411\n      swap1\n        /* \"contracts/Market.sol\":11223:11233  thisAmount */\n      dup5\n        /* \"contracts/Market.sol\":11223:11249  thisAmount * (100 - a.vig) */\n      tag_163\n      jump\t// in\n    tag_411:\n        /* \"contracts/Market.sol\":11223:11255  thisAmount * (100 - a.vig) / 100 */\n      tag_412\n      swap2\n      swap1\n      tag_165\n      jump\t// in\n    tag_412:\n        /* \"contracts/Market.sol\":11208:11218  bet.better */\n      dup9\n      mload\n      sub(shl(0xa0, 0x01), 0x01)\n        /* \"contracts/Market.sol\":11204:11219  bal[bet.better] */\n      and\n      0x00\n      swap1\n      dup2\n      mstore\n        /* \"contracts/Market.sol\":11204:11207  bal */\n      0x0a\n        /* \"contracts/Market.sol\":11204:11219  bal[bet.better] */\n      0x20\n      mstore\n      0x40\n      dup2\n      keccak256\n        /* \"contracts/Market.sol\":11204:11255  bal[bet.better] += thisAmount * (100 - a.vig) / 100 */\n      dup1\n      sload\n        /* \"contracts/Market.sol\":11204:11219  bal[bet.better] */\n      swap1\n      swap2\n      swap1\n        /* \"contracts/Market.sol\":11204:11255  bal[bet.better] += thisAmount * (100 - a.vig) / 100 */\n      tag_413\n      swap1\n      dup5\n      swap1\n      tag_205\n      jump\t// in\n    tag_413:\n      swap1\n      swap2\n      sstore\n      pop\n      pop\n        /* \"contracts/Market.sol\":11269:11293  betsInfo[counterBetHash] */\n      0x00\n      dup5\n      dup2\n      mstore\n        /* \"contracts/Market.sol\":11269:11277  betsInfo */\n      0x0d\n        /* \"contracts/Market.sol\":11269:11293  betsInfo[counterBetHash] */\n      0x20\n      mstore\n      0x40\n      dup2\n      keccak256\n        /* \"contracts/Market.sol\":11269:11301  betsInfo[counterBetHash].matched */\n      0x03\n      add\n        /* \"contracts/Market.sol\":11269:11318  betsInfo[counterBetHash].matched -= counterAmount */\n      dup1\n      sload\n        /* \"contracts/Market.sol\":11305:11318  counterAmount */\n      dup6\n      swap3\n        /* \"contracts/Market.sol\":11269:11293  betsInfo[counterBetHash] */\n      swap1\n        /* \"contracts/Market.sol\":11269:11318  betsInfo[counterBetHash].matched -= counterAmount */\n      tag_414\n      swap1\n        /* \"contracts/Market.sol\":11305:11318  counterAmount */\n      dup5\n      swap1\n        /* \"contracts/Market.sol\":11269:11318  betsInfo[counterBetHash].matched -= counterAmount */\n      tag_161\n      jump\t// in\n    tag_414:\n      swap1\n      swap2\n      sstore\n      pop\n      pop\n        /* \"contracts/Market.sol\":11365:11370  a.vig */\n      sload(0x05)\n        /* \"contracts/Market.sol\":11332:11349  uint256 vigAmount */\n      0x00\n      swap1\n        /* \"contracts/Market.sol\":11373:11376  100 */\n      0x64\n      swap1\n        /* \"contracts/Market.sol\":11352:11370  thisAmount * a.vig */\n      tag_415\n      swap1\n        /* \"contracts/Market.sol\":11352:11362  thisAmount */\n      dup6\n        /* \"contracts/Market.sol\":11352:11370  thisAmount * a.vig */\n      tag_163\n      jump\t// in\n    tag_415:\n        /* \"contracts/Market.sol\":11352:11376  thisAmount * a.vig / 100 */\n      tag_416\n      swap2\n      swap1\n      tag_165\n      jump\t// in\n    tag_416:\n        /* \"contracts/Market.sol\":11421:11427  a.hVig */\n      sload(0x08)\n        /* \"contracts/Market.sol\":11332:11376  uint256 vigAmount = thisAmount * a.vig / 100 */\n      swap1\n      swap2\n      pop\n        /* \"contracts/Market.sol\":11430:11433  100 */\n      0x64\n      swap1\n        /* \"contracts/Market.sol\":11409:11427  vigAmount * a.hVig */\n      tag_417\n      swap1\n        /* \"contracts/Market.sol\":11332:11376  uint256 vigAmount = thisAmount * a.vig / 100 */\n      dup4\n        /* \"contracts/Market.sol\":11409:11427  vigAmount * a.hVig */\n      tag_163\n      jump\t// in\n    tag_417:\n        /* \"contracts/Market.sol\":11409:11433  vigAmount * a.hVig / 100 */\n      tag_418\n      swap2\n      swap1\n      tag_165\n      jump\t// in\n    tag_418:\n        /* \"contracts/Market.sol\":11394:11395  a */\n      0x02\n        /* \"contracts/Market.sol\":11394:11404  a.holdAddr */\n      sload\n      sub(shl(0xa0, 0x01), 0x01)\n      and\n        /* \"contracts/Market.sol\":11390:11405  bal[a.holdAddr] */\n      0x00\n      swap1\n      dup2\n      mstore\n        /* \"contracts/Market.sol\":11390:11393  bal */\n      0x0a\n        /* \"contracts/Market.sol\":11390:11405  bal[a.holdAddr] */\n      0x20\n      mstore\n      0x40\n      dup2\n      keccak256\n        /* \"contracts/Market.sol\":11390:11433  bal[a.holdAddr] += vigAmount * a.hVig / 100 */\n      dup1\n      sload\n        /* \"contracts/Market.sol\":11390:11405  bal[a.holdAddr] */\n      swap1\n      swap2\n      swap1\n        /* \"contracts/Market.sol\":11390:11433  bal[a.holdAddr] += vigAmount * a.hVig / 100 */\n      tag_419\n      swap1\n      dup5\n      swap1\n      tag_205\n      jump\t// in\n    tag_419:\n      swap1\n      swap2\n      sstore\n      pop\n      pop\n        /* \"contracts/Market.sol\":11477:11483  a.eVig */\n      sload(0x07)\n        /* \"contracts/Market.sol\":11486:11489  100 */\n      0x64\n      swap1\n        /* \"contracts/Market.sol\":11465:11483  vigAmount * a.eVig */\n      tag_420\n      swap1\n        /* \"contracts/Market.sol\":11465:11474  vigAmount */\n      dup4\n        /* \"contracts/Market.sol\":11465:11483  vigAmount * a.eVig */\n      tag_163\n      jump\t// in\n    tag_420:\n        /* \"contracts/Market.sol\":11465:11489  vigAmount * a.eVig / 100 */\n      tag_421\n      swap2\n      swap1\n      tag_165\n      jump\t// in\n    tag_421:\n        /* \"contracts/Market.sol\":11451:11460  a.ecoAddr */\n      and(sub(shl(0xa0, 0x01), 0x01), sload(0x03))\n        /* \"contracts/Market.sol\":11447:11461  bal[a.ecoAddr] */\n      0x00\n      swap1\n      dup2\n      mstore\n        /* \"contracts/Market.sol\":11447:11450  bal */\n      0x0a\n        /* \"contracts/Market.sol\":11447:11461  bal[a.ecoAddr] */\n      0x20\n      mstore\n      0x40\n      dup2\n      keccak256\n        /* \"contracts/Market.sol\":11447:11489  bal[a.ecoAddr] += vigAmount * a.eVig / 100 */\n      dup1\n      sload\n        /* \"contracts/Market.sol\":11447:11461  bal[a.ecoAddr] */\n      swap1\n      swap2\n      swap1\n        /* \"contracts/Market.sol\":11447:11489  bal[a.ecoAddr] += vigAmount * a.eVig / 100 */\n      tag_422\n      swap1\n      dup5\n      swap1\n      tag_205\n      jump\t// in\n    tag_422:\n      swap1\n      swap2\n      sstore\n      pop\n      pop\n        /* \"contracts/Market.sol\":11537:11543  a.aVig */\n      sload(0x06)\n        /* \"contracts/Market.sol\":11546:11549  100 */\n      0x64\n      swap1\n        /* \"contracts/Market.sol\":11525:11543  vigAmount * a.aVig */\n      tag_423\n      swap1\n        /* \"contracts/Market.sol\":11525:11534  vigAmount */\n      dup4\n        /* \"contracts/Market.sol\":11525:11543  vigAmount * a.aVig */\n      tag_163\n      jump\t// in\n    tag_423:\n        /* \"contracts/Market.sol\":11525:11549  vigAmount * a.aVig / 100 */\n      tag_424\n      swap2\n      swap1\n      tag_165\n      jump\t// in\n    tag_424:\n        /* \"contracts/Market.sol\":11507:11520  bet.affiliate */\n      0x20\n      dup1\n      dup12\n      add\n      mload\n      sub(shl(0xa0, 0x01), 0x01)\n        /* \"contracts/Market.sol\":11503:11521  bal[bet.affiliate] */\n      and\n      0x00\n      swap1\n      dup2\n      mstore\n        /* \"contracts/Market.sol\":11503:11506  bal */\n      0x0a\n        /* \"contracts/Market.sol\":11503:11521  bal[bet.affiliate] */\n      swap1\n      swap2\n      mstore\n      0x40\n      dup2\n      keccak256\n        /* \"contracts/Market.sol\":11503:11549  bal[bet.affiliate] += vigAmount * a.aVig / 100 */\n      dup1\n      sload\n        /* \"contracts/Market.sol\":11503:11521  bal[bet.affiliate] */\n      swap1\n      swap2\n      swap1\n        /* \"contracts/Market.sol\":11503:11549  bal[bet.affiliate] += vigAmount * a.aVig / 100 */\n      tag_425\n      swap1\n      dup5\n      swap1\n      tag_205\n      jump\t// in\n    tag_425:\n      swap3\n      pop\n      pop\n      dup2\n      swap1\n      sstore\n      pop\n        /* \"contracts/Market.sol\":11594:11598  true */\n      0x01\n        /* \"contracts/Market.sol\":11563:11572  pairsInfo */\n      0x10\n        /* \"contracts/Market.sol\":11563:11583  pairsInfo[_pairs[i]] */\n      0x00\n        /* \"contracts/Market.sol\":11573:11579  _pairs */\n      dup11\n        /* \"contracts/Market.sol\":11580:11581  i */\n      dup10\n        /* \"contracts/Market.sol\":11573:11582  _pairs[i] */\n      dup2\n      mload\n      dup2\n      lt\n      tag_426\n      jumpi\n      mstore(0x00, shl(0xe0, 0x4e487b71))\n      mstore(0x04, 0x32)\n      revert(0x00, 0x24)\n    tag_426:\n      0x20\n      mul\n      0x20\n      add\n      add\n      mload\n        /* \"contracts/Market.sol\":11563:11583  pairsInfo[_pairs[i]] */\n      dup2\n      mstore\n      0x20\n      add\n      swap1\n      dup2\n      mstore\n      0x20\n      add\n      0x00\n      keccak256\n        /* \"contracts/Market.sol\":11563:11591  pairsInfo[_pairs[i]].settled */\n      0x04\n      add\n      0x00\n        /* \"contracts/Market.sol\":11563:11598  pairsInfo[_pairs[i]].settled = true */\n      0x0100\n      exp\n      dup2\n      sload\n      dup2\n      0xff\n      mul\n      not\n      and\n      swap1\n      dup4\n      iszero\n      iszero\n      mul\n      or\n      swap1\n      sstore\n      pop\n        /* \"contracts/Market.sol\":10405:11609  for(uint i = 0; i < pairsLength; i++){... */\n      pop\n      pop\n      pop\n      pop\n      pop\n    tag_398:\n        /* \"contracts/Market.sol\":10438:10441  i++ */\n      dup1\n      tag_427\n      dup2\n      tag_107\n      jump\t// in\n    tag_427:\n      swap2\n      pop\n      pop\n        /* \"contracts/Market.sol\":10405:11609  for(uint i = 0; i < pairsLength; i++){... */\n      jump(tag_396)\n    tag_397:\n      pop\n        /* \"contracts/Market.sol\":11625:11629  true */\n      0x01\n      swap6\n        /* \"contracts/Market.sol\":10188:11636  function _cancelBetPairs(uint256 _bet) private returns(bool) {... */\n      swap5\n      pop\n      pop\n      pop\n      pop\n      pop\n      jump\t// out\n        /* \"contracts/Market.sol\":11642:12079  function _cancelPair(uint256 _pair) private returns(bool) {... */\n    tag_299:\n        /* \"contracts/Market.sol\":11694:11698  bool */\n      0x00\n        /* \"contracts/Market.sol\":11713:11729  pairsInfo[_pair] */\n      dup2\n      dup2\n      mstore\n        /* \"contracts/Market.sol\":11713:11722  pairsInfo */\n      0x10\n        /* \"contracts/Market.sol\":11713:11729  pairsInfo[_pair] */\n      0x20\n      mstore\n      0x40\n      dup2\n      keccak256\n        /* \"contracts/Market.sol\":11713:11737  pairsInfo[_pair].settled */\n      0x04\n      add\n      sload\n      0xff\n      and\n        /* \"contracts/Market.sol\":11710:11775  if(pairsInfo[_pair].settled){... */\n      iszero\n      tag_429\n      jumpi\n      pop\n        /* \"contracts/Market.sol\":11759:11764  false */\n      0x00\n      swap2\n        /* \"contracts/Market.sol\":11642:12079  function _cancelPair(uint256 _pair) private returns(bool) {... */\n      swap1\n      pop\n      jump\t// out\n        /* \"contracts/Market.sol\":11710:11775  if(pairsInfo[_pair].settled){... */\n    tag_429:\n        /* \"contracts/Market.sol\":11784:11799  address betterA */\n      0x00\n        /* \"contracts/Market.sol\":11811:11827  pairsInfo[_pair] */\n      dup3\n      dup2\n      mstore\n        /* \"contracts/Market.sol\":11811:11820  pairsInfo */\n      0x10\n        /* \"contracts/Market.sol\":11811:11827  pairsInfo[_pair] */\n      0x20\n      swap1\n      dup2\n      mstore\n      0x40\n      dup1\n      dup4\n      keccak256\n        /* \"contracts/Market.sol\":11811:11834  pairsInfo[_pair].betIdA */\n      dup1\n      sload\n        /* \"contracts/Market.sol\":11802:11835  betsInfo[pairsInfo[_pair].betIdA] */\n      dup5\n      mstore\n        /* \"contracts/Market.sol\":11802:11810  betsInfo */\n      0x0d\n        /* \"contracts/Market.sol\":11802:11835  betsInfo[pairsInfo[_pair].betIdA] */\n      dup4\n      mstore\n      dup2\n      dup5\n      keccak256\n        /* \"contracts/Market.sol\":11802:11842  betsInfo[pairsInfo[_pair].betIdA].better */\n      sload\n      0x01\n        /* \"contracts/Market.sol\":11879:11902  pairsInfo[_pair].betIdB */\n      dup3\n      add\n      sload\n        /* \"contracts/Market.sol\":11870:11903  betsInfo[pairsInfo[_pair].betIdB] */\n      dup6\n      mstore\n      dup3\n      dup6\n      keccak256\n        /* \"contracts/Market.sol\":11870:11910  betsInfo[pairsInfo[_pair].betIdB].better */\n      sload\n        /* \"contracts/Market.sol\":11936:11960  pairsInfo[_pair].amountA */\n      0x02\n      swap1\n      swap3\n      add\n      sload\n      sub(shl(0xa0, 0x01), 0x01)\n        /* \"contracts/Market.sol\":11802:11842  betsInfo[pairsInfo[_pair].betIdA].better */\n      swap2\n      dup3\n      and\n        /* \"contracts/Market.sol\":11920:11932  bal[betterA] */\n      dup1\n      dup8\n      mstore\n        /* \"contracts/Market.sol\":11920:11923  bal */\n      0x0a\n        /* \"contracts/Market.sol\":11920:11932  bal[betterA] */\n      swap1\n      swap6\n      mstore\n      swap3\n      dup6\n      keccak256\n        /* \"contracts/Market.sol\":11920:11960  bal[betterA] += pairsInfo[_pair].amountA */\n      dup1\n      sload\n        /* \"contracts/Market.sol\":11802:11842  betsInfo[pairsInfo[_pair].betIdA].better */\n      swap5\n      swap6\n        /* \"contracts/Market.sol\":11870:11910  betsInfo[pairsInfo[_pair].betIdB].better */\n      swap2\n      swap1\n      swap3\n      and\n      swap4\n        /* \"contracts/Market.sol\":11920:11960  bal[betterA] += pairsInfo[_pair].amountA */\n      tag_430\n      swap1\n        /* \"contracts/Market.sol\":11936:11960  pairsInfo[_pair].amountA */\n      dup5\n      swap1\n        /* \"contracts/Market.sol\":11920:11960  bal[betterA] += pairsInfo[_pair].amountA */\n      tag_205\n      jump\t// in\n    tag_430:\n      swap1\n      swap2\n      sstore\n      pop\n      pop\n        /* \"contracts/Market.sol\":11986:12002  pairsInfo[_pair] */\n      0x00\n      dup5\n      dup2\n      mstore\n        /* \"contracts/Market.sol\":11986:11995  pairsInfo */\n      0x10\n        /* \"contracts/Market.sol\":11986:12002  pairsInfo[_pair] */\n      0x20\n      swap1\n      dup2\n      mstore\n      0x40\n      dup1\n      dup4\n      keccak256\n        /* \"contracts/Market.sol\":11986:12010  pairsInfo[_pair].amountB */\n      0x03\n      add\n      sload\n      sub(shl(0xa0, 0x01), 0x01)\n        /* \"contracts/Market.sol\":11970:11982  bal[betterB] */\n      dup6\n      and\n      dup5\n      mstore\n        /* \"contracts/Market.sol\":11970:11973  bal */\n      0x0a\n        /* \"contracts/Market.sol\":11970:11982  bal[betterB] */\n      swap1\n      swap3\n      mstore\n      dup3\n      keccak256\n        /* \"contracts/Market.sol\":11970:12010  bal[betterB] += pairsInfo[_pair].amountB */\n      dup1\n      sload\n        /* \"contracts/Market.sol\":11986:12010  pairsInfo[_pair].amountB */\n      swap2\n      swap3\n        /* \"contracts/Market.sol\":11970:11982  bal[betterB] */\n      swap1\n      swap2\n        /* \"contracts/Market.sol\":11970:12010  bal[betterB] += pairsInfo[_pair].amountB */\n      tag_431\n      swap1\n        /* \"contracts/Market.sol\":11986:12010  pairsInfo[_pair].amountB */\n      dup5\n      swap1\n        /* \"contracts/Market.sol\":11970:12010  bal[betterB] += pairsInfo[_pair].amountB */\n      tag_205\n      jump\t// in\n    tag_431:\n      swap1\n      swap2\n      sstore\n      pop\n      pop\n      pop\n        /* \"contracts/Market.sol\":12020:12036  pairsInfo[_pair] */\n      0x00\n      swap3\n      dup4\n      mstore\n      pop\n      pop\n        /* \"contracts/Market.sol\":12020:12029  pairsInfo */\n      0x10\n        /* \"contracts/Market.sol\":12020:12036  pairsInfo[_pair] */\n      0x20\n      mstore\n      0x40\n      swap1\n      keccak256\n        /* \"contracts/Market.sol\":12020:12044  pairsInfo[_pair].settled */\n      0x04\n      add\n        /* \"contracts/Market.sol\":12020:12051  pairsInfo[_pair].settled = true */\n      dup1\n      sload\n      not(0xff)\n      and\n        /* \"contracts/Market.sol\":12047:12051  true */\n      0x01\n        /* \"contracts/Market.sol\":12020:12051  pairsInfo[_pair].settled = true */\n      swap1\n      dup2\n      or\n      swap1\n      swap2\n      sstore\n        /* \"contracts/Market.sol\":12047:12051  true */\n      swap1\n        /* \"contracts/Market.sol\":11642:12079  function _cancelPair(uint256 _pair) private returns(bool) {... */\n      jump\t// out\n        /* \"contracts/Market.sol\":13817:14421  function _createPair(... */\n    tag_376:\n        /* \"contracts/Market.sol\":13971:13978  uint256 */\n      0x00\n        /* \"contracts/Market.sol\":13994:14008  uint256 pairId */\n      dup1\n        /* \"contracts/Market.sol\":14018:14024  uint i */\n      0x00\n        /* \"contracts/Market.sol\":14038:14207  while(i >= 0){... */\n    tag_433:\n        /* \"contracts/Market.sol\":14074:14079  pairs */\n      0x0e\n        /* \"contracts/Market.sol\":14074:14086  pairs.length */\n      sload\n        /* \"contracts/Market.sol\":14093:14094  i */\n      dup2\n      swap1\n        /* \"contracts/Market.sol\":14074:14090  pairs.length + 1 */\n      tag_435\n      swap1\n        /* \"contracts/Market.sol\":14089:14090  1 */\n      0x01\n        /* \"contracts/Market.sol\":14074:14090  pairs.length + 1 */\n      tag_205\n      jump\t// in\n    tag_435:\n        /* \"contracts/Market.sol\":14074:14094  pairs.length + 1 + i */\n      tag_436\n      swap2\n      swap1\n      tag_205\n      jump\t// in\n    tag_436:\n        /* \"contracts/Market.sol\":14111:14128  pairsInfo[pairId] */\n      0x00\n      dup2\n      dup2\n      mstore\n        /* \"contracts/Market.sol\":14111:14120  pairsInfo */\n      0x10\n        /* \"contracts/Market.sol\":14111:14128  pairsInfo[pairId] */\n      0x20\n      mstore\n      0x40\n      swap1\n      keccak256\n        /* \"contracts/Market.sol\":14111:14136  pairsInfo[pairId].amountA */\n      0x02\n      add\n      sload\n        /* \"contracts/Market.sol\":14065:14094  pairId = pairs.length + 1 + i */\n      swap1\n      swap3\n      pop\n        /* \"contracts/Market.sol\":14108:14180  if(pairsInfo[pairId].amountA == 0){... */\n      tag_437\n      jumpi\n        /* \"contracts/Market.sol\":14160:14165  break */\n      jump(tag_434)\n        /* \"contracts/Market.sol\":14108:14180  if(pairsInfo[pairId].amountA == 0){... */\n    tag_437:\n        /* \"contracts/Market.sol\":14193:14196  i++ */\n      dup1\n      tag_438\n      dup2\n      tag_107\n      jump\t// in\n    tag_438:\n      swap2\n      pop\n      pop\n        /* \"contracts/Market.sol\":14038:14207  while(i >= 0){... */\n      jump(tag_433)\n    tag_434:\n        /* \"contracts/Market.sol\":14236:14298  Struct.MarketPair(_betIdA, _betIdB, _amountA, _amountB, false) */\n      0x40\n      dup1\n      mload\n      0xa0\n      dup2\n      add\n      dup3\n      mstore\n      dup9\n      dup2\n      mstore\n      0x20\n      dup1\n      dup3\n      add\n      dup10\n      dup2\n      mstore\n      dup3\n      dup5\n      add\n      dup10\n      dup2\n      mstore\n      0x60\n      dup1\n      dup6\n      add\n      dup11\n      dup2\n      mstore\n      0x00\n      0x80\n      dup1\n      dup9\n      add\n      dup3\n      dup2\n      mstore\n        /* \"contracts/Market.sol\":14216:14233  pairsInfo[pairId] */\n      dup12\n      dup4\n      mstore\n        /* \"contracts/Market.sol\":14216:14225  pairsInfo */\n      0x10\n        /* \"contracts/Market.sol\":14216:14233  pairsInfo[pairId] */\n      dup9\n      mstore\n      dup10\n      dup4\n      keccak256\n        /* \"contracts/Market.sol\":14216:14298  pairsInfo[pairId] = Struct.MarketPair(_betIdA, _betIdB, _amountA, _amountB, false) */\n      swap9\n      mload\n      dup10\n      sstore\n      swap6\n      mload\n        /* \"contracts/Market.sol\":14236:14298  Struct.MarketPair(_betIdA, _betIdB, _amountA, _amountB, false) */\n      0x01\n        /* \"contracts/Market.sol\":14216:14298  pairsInfo[pairId] = Struct.MarketPair(_betIdA, _betIdB, _amountA, _amountB, false) */\n      dup1\n      dup11\n      add\n      swap2\n      swap1\n      swap2\n      sstore\n      swap5\n      mload\n      0x02\n      dup10\n      add\n      sstore\n      swap2\n      mload\n      0x03\n      dup9\n      add\n      sstore\n      swap4\n      mload\n      0x04\n      swap1\n      swap7\n      add\n      dup1\n      sload\n      not(0xff)\n      and\n      swap7\n      iszero\n      iszero\n      swap7\n      swap1\n      swap7\n      or\n      swap1\n      swap6\n      sstore\n        /* \"contracts/Market.sol\":14308:14313  pairs */\n      0x0e\n        /* \"contracts/Market.sol\":14308:14326  pairs.push(pairId) */\n      dup1\n      sload\n      swap3\n      dup4\n      add\n      dup2\n      sstore\n      swap1\n      swap3\n      mstore\n      0xbb7b4a454dc3493923482f07822329ed19e8244eff582cc204f8554c3620c3fd\n      add\n      dup7\n      swap1\n      sstore\n        /* \"contracts/Market.sol\":14342:14391  PairCreated(_betIdA, _betIdB, _amountA, _amountB) */\n      dup4\n      mload\n        /* \"#utility.yul\":10337:10362   */\n      dup12\n      dup2\n      mstore\n        /* \"#utility.yul\":10378:10396   */\n      swap2\n      dup3\n      add\n        /* \"#utility.yul\":10371:10405   */\n      dup11\n      swap1\n      mstore\n        /* \"#utility.yul\":10421:10439   */\n      swap3\n      dup2\n      add\n        /* \"#utility.yul\":10414:10448   */\n      dup9\n      swap1\n      mstore\n        /* \"#utility.yul\":10464:10482   */\n      swap2\n      dup3\n      add\n        /* \"#utility.yul\":10457:10491   */\n      dup7\n      swap1\n      mstore\n        /* \"contracts/Market.sol\":14342:14391  PairCreated(_betIdA, _betIdB, _amountA, _amountB) */\n      0x5fa90ed87b91d052928bcb5fa4df9d92a959bd7484a54ce4215ad1d422f8635b\n      swap2\n        /* \"#utility.yul\":10309:10328   */\n      add\n        /* \"contracts/Market.sol\":14342:14391  PairCreated(_betIdA, _betIdB, _amountA, _amountB) */\n      mload(0x40)\n      dup1\n      swap2\n      sub\n      swap1\n      log1\n      pop\n        /* \"contracts/Market.sol\":14408:14414  pairId */\n      swap6\n        /* \"contracts/Market.sol\":13817:14421  function _createPair(... */\n      swap5\n      pop\n      pop\n      pop\n      pop\n      pop\n      jump\t// out\n        /* \"#utility.yul\":14:271   */\n    tag_43:\n        /* \"#utility.yul\":73:79   */\n      0x00\n        /* \"#utility.yul\":126:128   */\n      0x20\n        /* \"#utility.yul\":114:123   */\n      dup3\n        /* \"#utility.yul\":105:112   */\n      dup5\n        /* \"#utility.yul\":101:124   */\n      sub\n        /* \"#utility.yul\":97:129   */\n      slt\n        /* \"#utility.yul\":94:96   */\n      iszero\n      tag_444\n      jumpi\n        /* \"#utility.yul\":147:153   */\n      dup1\n        /* \"#utility.yul\":139:145   */\n      dup2\n        /* \"#utility.yul\":132:154   */\n      revert\n        /* \"#utility.yul\":94:96   */\n    tag_444:\n        /* \"#utility.yul\":191:200   */\n      dup2\n        /* \"#utility.yul\":178:201   */\n      calldataload\n        /* \"#utility.yul\":210:241   */\n      tag_445\n        /* \"#utility.yul\":235:240   */\n      dup2\n        /* \"#utility.yul\":210:241   */\n      tag_446\n      jump\t// in\n    tag_445:\n        /* \"#utility.yul\":260:265   */\n      swap4\n        /* \"#utility.yul\":84:271   */\n      swap3\n      pop\n      pop\n      pop\n      jump\t// out\n        /* \"#utility.yul\":276:537   */\n    tag_250:\n        /* \"#utility.yul\":346:352   */\n      0x00\n        /* \"#utility.yul\":399:401   */\n      0x20\n        /* \"#utility.yul\":387:396   */\n      dup3\n        /* \"#utility.yul\":378:385   */\n      dup5\n        /* \"#utility.yul\":374:397   */\n      sub\n        /* \"#utility.yul\":370:402   */\n      slt\n        /* \"#utility.yul\":367:369   */\n      iszero\n      tag_448\n      jumpi\n        /* \"#utility.yul\":420:426   */\n      dup1\n        /* \"#utility.yul\":412:418   */\n      dup2\n        /* \"#utility.yul\":405:427   */\n      revert\n        /* \"#utility.yul\":367:369   */\n    tag_448:\n        /* \"#utility.yul\":457:466   */\n      dup2\n        /* \"#utility.yul\":451:467   */\n      mload\n        /* \"#utility.yul\":476:507   */\n      tag_445\n        /* \"#utility.yul\":501:506   */\n      dup2\n        /* \"#utility.yul\":476:507   */\n      tag_446\n      jump\t// in\n        /* \"#utility.yul\":542:1209   */\n    tag_35:\n        /* \"#utility.yul\":643:649   */\n      0x00\n        /* \"#utility.yul\":651:657   */\n      dup1\n        /* \"#utility.yul\":659:665   */\n      0x00\n        /* \"#utility.yul\":667:673   */\n      dup1\n        /* \"#utility.yul\":675:681   */\n      0x00\n        /* \"#utility.yul\":683:689   */\n      dup1\n        /* \"#utility.yul\":736:739   */\n      0xc0\n        /* \"#utility.yul\":724:733   */\n      dup8\n        /* \"#utility.yul\":715:722   */\n      dup10\n        /* \"#utility.yul\":711:734   */\n      sub\n        /* \"#utility.yul\":707:740   */\n      slt\n        /* \"#utility.yul\":704:706   */\n      iszero\n      tag_451\n      jumpi\n        /* \"#utility.yul\":758:764   */\n      dup2\n        /* \"#utility.yul\":750:756   */\n      dup3\n        /* \"#utility.yul\":743:765   */\n      revert\n        /* \"#utility.yul\":704:706   */\n    tag_451:\n        /* \"#utility.yul\":802:811   */\n      dup7\n        /* \"#utility.yul\":789:812   */\n      calldataload\n        /* \"#utility.yul\":821:852   */\n      tag_452\n        /* \"#utility.yul\":846:851   */\n      dup2\n        /* \"#utility.yul\":821:852   */\n      tag_446\n      jump\t// in\n    tag_452:\n        /* \"#utility.yul\":871:876   */\n      swap6\n      pop\n        /* \"#utility.yul\":923:925   */\n      0x20\n        /* \"#utility.yul\":908:926   */\n      dup8\n      add\n        /* \"#utility.yul\":895:927   */\n      calldataload\n      swap5\n      pop\n        /* \"#utility.yul\":974:976   */\n      0x40\n        /* \"#utility.yul\":959:977   */\n      dup8\n      add\n        /* \"#utility.yul\":946:978   */\n      calldataload\n      swap4\n      pop\n        /* \"#utility.yul\":1025:1027   */\n      0x60\n        /* \"#utility.yul\":1010:1028   */\n      dup8\n      add\n        /* \"#utility.yul\":997:1029   */\n      calldataload\n      swap3\n      pop\n        /* \"#utility.yul\":1076:1079   */\n      0x80\n        /* \"#utility.yul\":1061:1080   */\n      dup8\n      add\n        /* \"#utility.yul\":1048:1081   */\n      calldataload\n      swap2\n      pop\n        /* \"#utility.yul\":1133:1136   */\n      0xa0\n        /* \"#utility.yul\":1118:1137   */\n      dup8\n      add\n        /* \"#utility.yul\":1105:1138   */\n      calldataload\n        /* \"#utility.yul\":1147:1177   */\n      tag_453\n        /* \"#utility.yul\":1105:1138   */\n      dup2\n        /* \"#utility.yul\":1147:1177   */\n      tag_454\n      jump\t// in\n    tag_453:\n        /* \"#utility.yul\":1196:1203   */\n      dup1\n        /* \"#utility.yul\":1186:1203   */\n      swap2\n      pop\n      pop\n        /* \"#utility.yul\":694:1209   */\n      swap3\n      swap6\n      pop\n      swap3\n      swap6\n      pop\n      swap3\n      swap6\n      jump\t// out\n        /* \"#utility.yul\":1214:1469   */\n    tag_117:\n        /* \"#utility.yul\":1281:1287   */\n      0x00\n        /* \"#utility.yul\":1334:1336   */\n      0x20\n        /* \"#utility.yul\":1322:1331   */\n      dup3\n        /* \"#utility.yul\":1313:1320   */\n      dup5\n        /* \"#utility.yul\":1309:1332   */\n      sub\n        /* \"#utility.yul\":1305:1337   */\n      slt\n        /* \"#utility.yul\":1302:1304   */\n      iszero\n      tag_456\n      jumpi\n        /* \"#utility.yul\":1355:1361   */\n      dup1\n        /* \"#utility.yul\":1347:1353   */\n      dup2\n        /* \"#utility.yul\":1340:1362   */\n      revert\n        /* \"#utility.yul\":1302:1304   */\n    tag_456:\n        /* \"#utility.yul\":1392:1401   */\n      dup2\n        /* \"#utility.yul\":1386:1402   */\n      mload\n        /* \"#utility.yul\":1411:1439   */\n      tag_445\n        /* \"#utility.yul\":1433:1438   */\n      dup2\n        /* \"#utility.yul\":1411:1439   */\n      tag_454\n      jump\t// in\n        /* \"#utility.yul\":1474:1664   */\n    tag_26:\n        /* \"#utility.yul\":1533:1539   */\n      0x00\n        /* \"#utility.yul\":1586:1588   */\n      0x20\n        /* \"#utility.yul\":1574:1583   */\n      dup3\n        /* \"#utility.yul\":1565:1572   */\n      dup5\n        /* \"#utility.yul\":1561:1584   */\n      sub\n        /* \"#utility.yul\":1557:1589   */\n      slt\n        /* \"#utility.yul\":1554:1556   */\n      iszero\n      tag_459\n      jumpi\n        /* \"#utility.yul\":1607:1613   */\n      dup1\n        /* \"#utility.yul\":1599:1605   */\n      dup2\n        /* \"#utility.yul\":1592:1614   */\n      revert\n        /* \"#utility.yul\":1554:1556   */\n    tag_459:\n      pop\n        /* \"#utility.yul\":1635:1658   */\n      calldataload\n      swap2\n        /* \"#utility.yul\":1544:1664   */\n      swap1\n      pop\n      jump\t// out\n        /* \"#utility.yul\":1669:1863   */\n    tag_134:\n        /* \"#utility.yul\":1739:1745   */\n      0x00\n        /* \"#utility.yul\":1792:1794   */\n      0x20\n        /* \"#utility.yul\":1780:1789   */\n      dup3\n        /* \"#utility.yul\":1771:1778   */\n      dup5\n        /* \"#utility.yul\":1767:1790   */\n      sub\n        /* \"#utility.yul\":1763:1795   */\n      slt\n        /* \"#utility.yul\":1760:1762   */\n      iszero\n      tag_461\n      jumpi\n        /* \"#utility.yul\":1813:1819   */\n      dup1\n        /* \"#utility.yul\":1805:1811   */\n      dup2\n        /* \"#utility.yul\":1798:1820   */\n      revert\n        /* \"#utility.yul\":1760:1762   */\n    tag_461:\n      pop\n        /* \"#utility.yul\":1841:1857   */\n      mload\n      swap2\n        /* \"#utility.yul\":1750:1863   */\n      swap1\n      pop\n      jump\t// out\n        /* \"#utility.yul\":3640:4275   */\n    tag_46:\n        /* \"#utility.yul\":3811:3813   */\n      0x20\n        /* \"#utility.yul\":3863:3884   */\n      dup1\n      dup3\n      mstore\n        /* \"#utility.yul\":3933:3946   */\n      dup3\n      mload\n        /* \"#utility.yul\":3836:3854   */\n      dup3\n      dup3\n      add\n        /* \"#utility.yul\":3955:3977   */\n      dup2\n      swap1\n      mstore\n        /* \"#utility.yul\":3782:3786   */\n      0x00\n      swap2\n        /* \"#utility.yul\":3811:3813   */\n      swap1\n        /* \"#utility.yul\":4034:4049   */\n      dup5\n      dup3\n      add\n      swap1\n        /* \"#utility.yul\":4008:4010   */\n      0x40\n        /* \"#utility.yul\":3993:4011   */\n      dup6\n      add\n      swap1\n        /* \"#utility.yul\":3782:3786   */\n      dup5\n        /* \"#utility.yul\":4080:4249   */\n    tag_468:\n        /* \"#utility.yul\":4094:4100   */\n      dup2\n        /* \"#utility.yul\":4091:4092   */\n      dup2\n        /* \"#utility.yul\":4088:4101   */\n      lt\n        /* \"#utility.yul\":4080:4249   */\n      iszero\n      tag_470\n      jumpi\n        /* \"#utility.yul\":4155:4168   */\n      dup4\n      mload\n        /* \"#utility.yul\":4143:4169   */\n      dup4\n      mstore\n        /* \"#utility.yul\":4224:4239   */\n      swap3\n      dup5\n      add\n      swap3\n        /* \"#utility.yul\":4189:4201   */\n      swap2\n      dup5\n      add\n      swap2\n        /* \"#utility.yul\":4116:4117   */\n      0x01\n        /* \"#utility.yul\":4109:4118   */\n      add\n        /* \"#utility.yul\":4080:4249   */\n      jump(tag_468)\n    tag_470:\n      pop\n        /* \"#utility.yul\":4266:4269   */\n      swap1\n      swap7\n        /* \"#utility.yul\":3791:4275   */\n      swap6\n      pop\n      pop\n      pop\n      pop\n      pop\n      pop\n      jump\t// out\n        /* \"#utility.yul\":7774:8099   */\n    tag_253:\n        /* \"#utility.yul\":7976:7978   */\n      0x20\n        /* \"#utility.yul\":7958:7979   */\n      dup1\n      dup3\n      mstore\n        /* \"#utility.yul\":8015:8016   */\n      0x02\n        /* \"#utility.yul\":7995:8013   */\n      swap1\n      dup3\n      add\n        /* \"#utility.yul\":7988:8017   */\n      mstore\n      shl(0xf1, 0x2699)\n        /* \"#utility.yul\":8048:8050   */\n      0x40\n        /* \"#utility.yul\":8033:8051   */\n      dup3\n      add\n        /* \"#utility.yul\":8026:8058   */\n      mstore\n        /* \"#utility.yul\":8090:8092   */\n      0x60\n        /* \"#utility.yul\":8075:8093   */\n      add\n      swap1\n        /* \"#utility.yul\":7948:8099   */\n      jump\t// out\n        /* \"#utility.yul\":10502:10630   */\n    tag_205:\n        /* \"#utility.yul\":10542:10545   */\n      0x00\n        /* \"#utility.yul\":10573:10574   */\n      dup3\n        /* \"#utility.yul\":10569:10575   */\n      not\n        /* \"#utility.yul\":10566:10567   */\n      dup3\n        /* \"#utility.yul\":10563:10576   */\n      gt\n        /* \"#utility.yul\":10560:10562   */\n      iszero\n      tag_491\n      jumpi\n        /* \"#utility.yul\":10579:10597   */\n      tag_491\n      tag_492\n      jump\t// in\n    tag_491:\n      pop\n        /* \"#utility.yul\":10615:10624   */\n      add\n      swap1\n        /* \"#utility.yul\":10550:10630   */\n      jump\t// out\n        /* \"#utility.yul\":10635:10852   */\n    tag_165:\n        /* \"#utility.yul\":10675:10676   */\n      0x00\n        /* \"#utility.yul\":10701:10702   */\n      dup3\n        /* \"#utility.yul\":10691:10693   */\n      tag_494\n      jumpi\n      shl(0xe0, 0x4e487b71)\n        /* \"#utility.yul\":10726:10757   */\n      dup2\n      mstore\n        /* \"#utility.yul\":10780:10784   */\n      0x12\n        /* \"#utility.yul\":10777:10778   */\n      0x04\n        /* \"#utility.yul\":10770:10785   */\n      mstore\n        /* \"#utility.yul\":10808:10812   */\n      0x24\n        /* \"#utility.yul\":10733:10734   */\n      dup2\n        /* \"#utility.yul\":10798:10813   */\n      revert\n        /* \"#utility.yul\":10691:10693   */\n    tag_494:\n      pop\n        /* \"#utility.yul\":10837:10846   */\n      div\n      swap1\n        /* \"#utility.yul\":10681:10852   */\n      jump\t// out\n        /* \"#utility.yul\":10857:11025   */\n    tag_163:\n        /* \"#utility.yul\":10897:10904   */\n      0x00\n        /* \"#utility.yul\":10963:10964   */\n      dup2\n        /* \"#utility.yul\":10959:10960   */\n      0x00\n        /* \"#utility.yul\":10955:10961   */\n      not\n        /* \"#utility.yul\":10951:10965   */\n      div\n        /* \"#utility.yul\":10948:10949   */\n      dup4\n        /* \"#utility.yul\":10945:10966   */\n      gt\n        /* \"#utility.yul\":10940:10941   */\n      dup3\n        /* \"#utility.yul\":10933:10942   */\n      iszero\n        /* \"#utility.yul\":10926:10943   */\n      iszero\n        /* \"#utility.yul\":10922:10967   */\n      and\n        /* \"#utility.yul\":10919:10921   */\n      iszero\n      tag_497\n      jumpi\n        /* \"#utility.yul\":10970:10988   */\n      tag_497\n      tag_492\n      jump\t// in\n    tag_497:\n      pop\n        /* \"#utility.yul\":11010:11019   */\n      mul\n      swap1\n        /* \"#utility.yul\":10909:11025   */\n      jump\t// out\n        /* \"#utility.yul\":11030:11155   */\n    tag_161:\n        /* \"#utility.yul\":11070:11074   */\n      0x00\n        /* \"#utility.yul\":11098:11099   */\n      dup3\n        /* \"#utility.yul\":11095:11096   */\n      dup3\n        /* \"#utility.yul\":11092:11100   */\n      lt\n        /* \"#utility.yul\":11089:11091   */\n      iszero\n      tag_500\n      jumpi\n        /* \"#utility.yul\":11103:11121   */\n      tag_500\n      tag_492\n      jump\t// in\n    tag_500:\n      pop\n        /* \"#utility.yul\":11140:11149   */\n      sub\n      swap1\n        /* \"#utility.yul\":11079:11155   */\n      jump\t// out\n        /* \"#utility.yul\":11160:11295   */\n    tag_107:\n        /* \"#utility.yul\":11199:11202   */\n      0x00\n      not(0x00)\n        /* \"#utility.yul\":11220:11237   */\n      dup3\n      eq\n        /* \"#utility.yul\":11217:11219   */\n      iszero\n      tag_503\n      jumpi\n        /* \"#utility.yul\":11240:11258   */\n      tag_503\n      tag_492\n      jump\t// in\n    tag_503:\n      pop\n        /* \"#utility.yul\":11287:11288   */\n      0x01\n        /* \"#utility.yul\":11276:11289   */\n      add\n      swap1\n        /* \"#utility.yul\":11207:11295   */\n      jump\t// out\n        /* \"#utility.yul\":11300:11427   */\n    tag_492:\n        /* \"#utility.yul\":11361:11371   */\n      0x4e487b71\n        /* \"#utility.yul\":11356:11359   */\n      0xe0\n        /* \"#utility.yul\":11352:11372   */\n      shl\n        /* \"#utility.yul\":11349:11350   */\n      0x00\n        /* \"#utility.yul\":11342:11373   */\n      mstore\n        /* \"#utility.yul\":11392:11396   */\n      0x11\n        /* \"#utility.yul\":11389:11390   */\n      0x04\n        /* \"#utility.yul\":11382:11397   */\n      mstore\n        /* \"#utility.yul\":11416:11420   */\n      0x24\n        /* \"#utility.yul\":11413:11414   */\n      0x00\n        /* \"#utility.yul\":11406:11421   */\n      revert\n        /* \"#utility.yul\":11432:11563   */\n    tag_446:\n      sub(shl(0xa0, 0x01), 0x01)\n        /* \"#utility.yul\":11507:11538   */\n      dup2\n      and\n        /* \"#utility.yul\":11497:11539   */\n      dup2\n      eq\n        /* \"#utility.yul\":11487:11489   */\n      tag_216\n      jumpi\n        /* \"#utility.yul\":11553:11554   */\n      0x00\n        /* \"#utility.yul\":11550:11551   */\n      dup1\n        /* \"#utility.yul\":11543:11555   */\n      revert\n        /* \"#utility.yul\":11568:11686   */\n    tag_454:\n        /* \"#utility.yul\":11654:11659   */\n      dup1\n        /* \"#utility.yul\":11647:11660   */\n      iszero\n        /* \"#utility.yul\":11640:11661   */\n      iszero\n        /* \"#utility.yul\":11633:11638   */\n      dup2\n        /* \"#utility.yul\":11630:11662   */\n      eq\n        /* \"#utility.yul\":11620:11622   */\n      tag_216\n      jumpi\n        /* \"#utility.yul\":11676:11677   */\n      0x00\n        /* \"#utility.yul\":11673:11674   */\n      dup1\n        /* \"#utility.yul\":11666:11678   */\n      revert\n\n    auxdata: 0xa2646970667358221220f822208193c82b9c489f50b8560ab357b01eefaae514dbec4e64bb9638b60e2d64736f6c63430008040033\n}\n",
				"bytecode": {
					"linkReferences": {},
					"object": "60c06040523360601b6080523480156200001857600080fd5b5060405162002c6938038062002c698339810160408190526200003b9162000503565b6001600081905580546001600160a01b0319166001600160a01b0383169081179091556040805160e08101808352632dd9029560e21b905290519091829163b7640a549060e480850191602091818703018186803b1580156200009d57600080fd5b505afa158015620000b2573d6000803e3d6000fd5b505050506040513d601f19601f82011682018060405250810190620000d8919062000503565b6001600160a01b03168152602001600160009054906101000a90046001600160a01b03166001600160a01b03166309953b2f6040518163ffffffff1660e01b815260040160206040518083038186803b1580156200013557600080fd5b505afa1580156200014a573d6000803e3d6000fd5b505050506040513d601f19601f8201168201806040525081019062000170919062000503565b6001600160a01b03168152602001600160009054906101000a90046001600160a01b03166001600160a01b031663375b3c0a6040518163ffffffff1660e01b815260040160206040518083038186803b158015620001cd57600080fd5b505afa158015620001e2573d6000803e3d6000fd5b505050506040513d601f19601f8201168201806040525081019062000208919062000533565b8152600154604080516355c4a8bf60e01b815290516020938401936001600160a01b03909316926355c4a8bf9260048082019391829003018186803b1580156200025157600080fd5b505afa15801562000266573d6000803e3d6000fd5b505050506040513d601f19601f820116820180604052508101906200028c919062000533565b815260015460408051631533469760e21b815290516020938401936001600160a01b03909316926354cd1a5c9260048082019391829003018186803b158015620002d557600080fd5b505afa158015620002ea573d6000803e3d6000fd5b505050506040513d601f19601f8201168201806040525081019062000310919062000533565b8152600154604080516328576d4560e01b815290516020938401936001600160a01b03909316926328576d459260048082019391829003018186803b1580156200035957600080fd5b505afa1580156200036e573d6000803e3d6000fd5b505050506040513d601f19601f8201168201806040525081019062000394919062000533565b815260015460408051636a0ccd9d60e01b815290516020938401936001600160a01b0390931692636a0ccd9d9260048082019391829003018186803b158015620003dd57600080fd5b505afa158015620003f2573d6000803e3d6000fd5b505050506040513d601f19601f8201168201806040525081019062000418919062000533565b90528051600280546001600160a01b03199081166001600160a01b0393841617909155602080840151600380549093169084161790915560408084015160049081556060850151600555608085015160065560a085015160075560c090940151600855600154815162966ed960e31b815291519316936304b376c8938282019392909190829003018186803b158015620004b157600080fd5b505afa158015620004c6573d6000803e3d6000fd5b505050506040513d601f19601f82011682018060405250810190620004ec919062000503565b60601b6001600160601b03191660a052506200054c565b60006020828403121562000515578081fd5b81516001600160a01b03811681146200052c578182fd5b9392505050565b60006020828403121562000545578081fd5b5051919050565b60805160601c60a05160601c612696620005d3600039600081816105d8015281816106aa015281816107ba01528181610dad0152610ebf0152600081816110310152818161105a01528181611197015281816111c001528181611358015281816113810152818161154e015281816115770152818161169301526116bc01526126966000f3fe608060405234801561001057600080fd5b50600436106101165760003560e01c80636bef0267116100a2578063ae8cd09011610071578063ae8cd09014610272578063bdf391cc1461027a578063d0ed7295146102d1578063ea8a1af0146102e4578063f8b2cb4f146102ec57600080fd5b80636bef026714610247578063767eb5ef1461024f5780638df8280014610257578063a6afd5fd1461026a57600080fd5b80632d56657d116100e95780632d56657d146101cb5780632e585fd8146101eb578063357401f5146101fe57806351cff8d91461021157806358918e611461023457600080fd5b8063061e494f1461011b57806316fd381a1461018c5780631e56b7d3146101a1578063200d2ed2146101b4575b600080fd5b61012e61012936600461250e565b610315565b604051610183919081516001600160a01b0390811682526020808401519091169082015260408083015190820152606080830151908201526080808301519082015260a0918201519181019190915260c00190565b60405180910390f35b61019f61019a36600461250e565b6103c5565b005b61019f6101af366004612495565b61049a565b6101bd60095481565b604051908152602001610183565b6101de6101d9366004612456565b610b2e565b604051610183919061253e565b61019f6101f936600461250e565b610b9a565b61019f61020c36600461250e565b610cac565b61022461021f366004612456565b610d24565b6040519015158152602001610183565b6101de61024236600461250e565b610fc4565b610224611024565b6101de611132565b61022461026536600461250e565b61118a565b6101de6112f5565b61022461134b565b61028d61028836600461250e565b6114b9565b6040516101839190600060a0820190508251825260208301516020830152604083015160408301526060830151606083015260808301511515608083015292915050565b6102246102df36600461250e565b611541565b610224611686565b6101bd6102fa366004612456565b6001600160a01b03166000908152600a602052604090205490565b6103606040518060c0016040528060006001600160a01b0316815260200160006001600160a01b03168152602001600081526020016000815260200160008152602001600081525090565b506000908152600d6020908152604091829020825160c08101845281546001600160a01b03908116825260018301541692810192909252600281015492820192909252600382015460608201526004820154608082015260059091015460a082015290565b6000818152600f602090815260408083208054825181850281018501909352808352919290919083018282801561041b57602002820191906000526020600020905b815481526020019060010190808311610407575b505083519394506000925050505b818110156104745761046183828151811061045457634e487b7160e01b600052603260045260246000fd5b602002602001015161179d565b508061046c8161260c565b915050610429565b50336000908152600a6020526040902054156104955761049333610d24565b505b505050565b60015460405163332daccf60e01b81523360048201526001600160a01b039091169063332daccf9060240160206040518083038186803b1580156104dd57600080fd5b505afa1580156104f1573d6000803e3d6000fd5b505050506040513d601f19601f8201168201806040525081019061051591906124f2565b1561054c5760405162461bcd60e51b81526020600482015260026024820152614d3160f01b60448201526064015b60405180910390fd5b600954156105815760405162461bcd60e51b81526020600482015260026024820152614d3760f01b6044820152606401610543565b81600114806105905750816002145b6105c15760405162461bcd60e51b815260206004820152600260248201526109a760f31b6044820152606401610543565b6040516370a0823160e01b815233600482015284907f00000000000000000000000000000000000000000000000000000000000000006001600160a01b0316906370a082319060240160206040518083038186803b15801561062257600080fd5b505afa158015610636573d6000803e3d6000fd5b505050506040513d601f19601f8201168201806040525081019061065a9190612526565b101561068d5760405162461bcd60e51b81526020600482015260026024820152614d3960f01b6044820152606401610543565b604051636eb1769f60e11b815233600482015230602482015284907f00000000000000000000000000000000000000000000000000000000000000006001600160a01b03169063dd62ed3e9060440160206040518083038186803b1580156106f457600080fd5b505afa158015610708573d6000803e3d6000fd5b505050506040513d601f19601f8201168201806040525081019061072c9190612526565b10156107605760405162461bcd60e51b815260206004820152600360248201526204d31360ec1b6044820152606401610543565b6004548410156107985760405162461bcd60e51b81526020600482015260036024820152624d313160e81b6044820152606401610543565b6040516323b872dd60e01b8152336004820152306024820152604481018590527f00000000000000000000000000000000000000000000000000000000000000006001600160a01b0316906323b872dd90606401602060405180830381600087803b15801561080657600080fd5b505af115801561081a573d6000803e3d6000fd5b505050506040513d601f19601f8201168201806040525081019061083e91906124f2565b6108705760405162461bcd60e51b815260206004820152600360248201526226989960e91b6044820152606401610543565b61089f33878787600061088460648a6125f5565b61088f8a60646125d6565b61089991906125b6565b88611b30565b60408051338152306020820152908101869052606081018590526080810184905260a081018390527f8cecf46a208e9d1ccb2b669cf853fcedfa8d0bdcd56ed4631b5cb07740bc0b859060c00160405180910390a1600b5415610b2657600b545b6004548510610b245760008060005b838110156109d8576000600b828154811061093a57634e487b7160e01b600052603260045260246000fd5b90600052602060002001549050600d60008281526020019081526020016000206005015487141561096b57506109c6565b6000818152600d60205260409020546001600160a01b031633141561099057506109c6565b6000818152600d60205260409020600401548310156109c4576000818152600d602052604090206004015491935090915082905b505b806109d08161260c565b91505061090f565b50600086821015806109f257506000821180156109f25750845b15610b08576000600d6000600b8681548110610a1e57634e487b7160e01b600052603260045260246000fd5b600091825260208083209091015483528281019390935260409182018120825160c08101845281546001600160a01b03908116825260018301541694810194909452600281015492840192909252600382015460608401526004820154608084015260059091015460a0830152909150610a9960648a6125f5565b82606001518360400151610aad91906125f5565b610ab791906125b6565b9050610ac46064826125d6565b9050610aff8a828b8b8f600b8b81548110610aef57634e487b7160e01b600052603260045260246000fd5b9060005260206000200154611c2b565b92505050610b10565b505050610b24565b610b1a81896125f5565b9750505050610900565b505b505050505050565b6001600160a01b0381166000908152600c6020908152604091829020805483518184028101840190945280845260609392830182828015610b8e57602002820191906000526020600020905b815481526020019060010190808311610b7a575b50505050509050919050565b6000818152600d6020908152604091829020825160c08101845281546001600160a01b0390811680835260018401549091169382019390935260028201549381019390935260038101546060840152600481015460808401526005015460a08301523314610c2f5760405162461bcd60e51b81526020600482015260026024820152614d3560f01b6044820152606401610543565b600081606001518260400151610c4591906125f5565b82516001600160a01b03166000908152600a6020526040812080549293508392909190610c7390849061259e565b90915550506040808301516000858152600d602090815283822060030192909255338152600a9091522054156104955761049333610d24565b6000818152600d60205260409020546001600160a01b03163314610cf75760405162461bcd60e51b8152602060048201526002602482015261269b60f11b6044820152606401610543565b6009541580610d0857506009546003145b15610d1857610d1681611d79565b505b610d2181610b9a565b50565b600060026000541415610d795760405162461bcd60e51b815260206004820152601f60248201527f5265656e7472616e637947756172643a207265656e7472616e742063616c6c006044820152606401610543565b600260009081556001600160a01b038381168252600a6020526040918290205491516370a0823160e01b81523060048201527f0000000000000000000000000000000000000000000000000000000000000000909116906370a082319060240160206040518083038186803b158015610df157600080fd5b505afa158015610e05573d6000803e3d6000fd5b505050506040513d601f19601f82011682018060405250810190610e299190612526565b10158015610e4e57506001600160a01b0382166000908152600a602052604090205415155b610e7f5760405162461bcd60e51b81526020600482015260026024820152614d3360f01b6044820152606401610543565b6001600160a01b038281166000818152600a6020526040808220805490839055905163a9059cbb60e01b81526004810193909352602483018190529290917f00000000000000000000000000000000000000000000000000000000000000009091169063a9059cbb90604401602060405180830381600087803b158015610f0557600080fd5b505af1158015610f19573d6000803e3d6000fd5b505050506040513d601f19601f82011682018060405250810190610f3d91906124f2565b905080610f715760405162461bcd60e51b8152602060048201526002602482015261134d60f21b6044820152606401610543565b604080516001600160a01b0386168152602081018490527f884edad9ce6fa2440d8a54cc123490eb96d2768479d49ff9c7366125a9424364910160405180910390a16001925050505b6001600055919050565b6000818152600f6020908152604091829020805483518184028101840190945280845260609392830182828015610b8e5760200282019190600052602060002090815481526020019060010190808311610b7a5750505050509050919050565b6000336001600160a01b037f00000000000000000000000000000000000000000000000000000000000000001614806110fe57507f00000000000000000000000000000000000000000000000000000000000000006001600160a01b0316638da5cb5b6040518163ffffffff1660e01b815260040160206040518083038186803b1580156110b157600080fd5b505afa1580156110c5573d6000803e3d6000fd5b505050506040513d601f19601f820116820180604052508101906110e99190612479565b6001600160a01b0316336001600160a01b0316145b61111a5760405162461bcd60e51b815260040161054390612582565b60095461112c57506004600955600190565b50600090565b6060600e80548060200260200160405190810160405280929190818152602001828054801561118057602002820191906000526020600020905b81548152602001906001019080831161116c575b5050505050905090565b6000336001600160a01b037f000000000000000000000000000000000000000000000000000000000000000016148061126457507f00000000000000000000000000000000000000000000000000000000000000006001600160a01b0316638da5cb5b6040518163ffffffff1660e01b815260040160206040518083038186803b15801561121757600080fd5b505afa15801561122b573d6000803e3d6000fd5b505050506040513d601f19601f8201168201806040525081019061124f9190612479565b6001600160a01b0316336001600160a01b0316145b6112805760405162461bcd60e51b815260040161054390612582565b61128982611541565b156112ed57600e5460005b818110156112e3576112d0600e82815481106112c057634e487b7160e01b600052603260045260246000fd5b906000526020600020015461179d565b50806112db8161260c565b915050611294565b5060019392505050565b506000919050565b6060600b805480602002602001604051908101604052809291908181526020018280548015611180576020028201919060005260206000209081548152602001906001019080831161116c575050505050905090565b6000336001600160a01b037f000000000000000000000000000000000000000000000000000000000000000016148061142557507f00000000000000000000000000000000000000000000000000000000000000006001600160a01b0316638da5cb5b6040518163ffffffff1660e01b815260040160206040518083038186803b1580156113d857600080fd5b505afa1580156113ec573d6000803e3d6000fd5b505050506040513d601f19601f820116820180604052508101906114109190612479565b6001600160a01b0316336001600160a01b0316145b6114415760405162461bcd60e51b815260040161054390612582565b600954158061145257506009546004145b1561112c57600e5460005b818110156114ac57611499600e828154811061148957634e487b7160e01b600052603260045260246000fd5b906000526020600020015461223c565b50806114a48161260c565b91505061145d565b5050600360095550600190565b6114ed6040518060a00160405280600081526020016000815260200160008152602001600081526020016000151581525090565b50600090815260106020908152604091829020825160a081018452815481526001820154928101929092526002810154928201929092526003820154606082015260049091015460ff161515608082015290565b6000336001600160a01b037f000000000000000000000000000000000000000000000000000000000000000016148061161b57507f00000000000000000000000000000000000000000000000000000000000000006001600160a01b0316638da5cb5b6040518163ffffffff1660e01b815260040160206040518083038186803b1580156115ce57600080fd5b505afa1580156115e2573d6000803e3d6000fd5b505050506040513d601f19601f820116820180604052508101906116069190612479565b6001600160a01b0316336001600160a01b0316145b6116375760405162461bcd60e51b815260040161054390612582565b600954158061164857506009546001145b8061165557506009546002145b8061166257506009546004145b8015611678575081600114806116785750816002145b156112ed5750600955600190565b6000336001600160a01b037f000000000000000000000000000000000000000000000000000000000000000016148061176057507f00000000000000000000000000000000000000000000000000000000000000006001600160a01b0316638da5cb5b6040518163ffffffff1660e01b815260040160206040518083038186803b15801561171357600080fd5b505afa158015611727573d6000803e3d6000fd5b505050506040513d601f19601f8201168201806040525081019061174b9190612479565b6001600160a01b0316336001600160a01b0316145b61177c5760405162461bcd60e51b815260040161054390612582565b600954158061178d57506009546004145b1561112c57506003600955600190565b6000600260005414156117f25760405162461bcd60e51b815260206004820152601f60248201527f5265656e7472616e637947756172643a207265656e7472616e742063616c6c006044820152606401610543565b600260009081558281526010602052604090206004015460ff161561181957506000610fba565b60008060008060095460011415611905576000868152601060209081526040808320548352600d9091529020546005546001600160a01b03909116945060649061186390826125f5565b60008881526010602052604090206003015461187f91906125d6565b61188991906125b6565b6000878152601060205260409020600201546118a5919061259e565b6005546000888152601060205260409020600301549193506064916118ca91906125d6565b6118d491906125b6565b6000878152601060209081526040808320548352600d9091529020600101546001600160a01b0316935090506119ff565b600954600214156119f2576000868152601060209081526040808320600101548352600d9091529020546005546001600160a01b03909116945060649061194c90826125f5565b60008881526010602052604090206002015461196891906125d6565b61197291906125b6565b60008781526010602052604090206003015461198e919061259e565b6005546000888152601060205260409020600201549193506064916119b391906125d6565b6119bd91906125b6565b60008781526010602090815260408083206001908101548452600d90925290912001546001600160a01b0316935090506119ff565b6000945050505050610fba565b6001600160a01b0384166000908152600a602052604081208054849290611a2790849061259e565b9091555050600854606490611a3c90836125d6565b611a4691906125b6565b6002546001600160a01b03166000908152600a602052604081208054909190611a7090849061259e565b9091555050600754606490611a8590836125d6565b611a8f91906125b6565b6003546001600160a01b03166000908152600a602052604081208054909190611ab990849061259e565b9091555050600654606490611ace90836125d6565b611ad891906125b6565b6001600160a01b0384166000908152600a602052604081208054909190611b0090849061259e565b909155505050600094855250506010602052505060408120600401805460ff191660019081179091559081905590565b6001600160a01b038616611b4d576003546001600160a01b031695505b6040805160c0810182526001600160a01b039889168082529789166020808301918252828401978852606083019687526080830195865260a083019485526000898152600d825284812093518454908d166001600160a01b031991821617855592516001808601805492909e169190941617909b559651600283015594516003820155925160048401559051600590920191909155600b80548084019091557f0175b7a638427703f0dbe7bb9bbf987a2551717b34e79f33b5b1008d1fa01db901849055938552600c82529284208054938401815584529092200155565b600080600080898911611c9557889250611c466064896125f5565b611c50908a6125d6565b9150611c5d6064836125b6565b91508660011415611c7b57611c748686858561231e565b9050611ce9565b8660021415611c9057611c748587848661231e565b611ce9565b899250611ca36064896125f5565b611cad908b6125d6565b9150611cba6064836125b6565b91508660011415611cd157611c748686858561231e565b8660021415611ce957611ce68587848661231e565b90505b6000868152600f602090815260408083208054600181810183559185528385200185905588845281842080549182018155845282842001849055888352600d90915281206003018054859290611d4090849061259e565b90915550506000858152600d602052604081206003018054849290611d6690849061259e565b90915550929a9950505050505050505050565b6000818152600d60209081526040808320815160c08101835281546001600160a01b03908116825260018301541681850152600282015481840152600382015460608201526004820154608082015260059091015460a0820152848452600f83528184208054835181860281018601909452808452919385939290830182828015611e2357602002820191906000526020600020905b815481526020019060010190808311611e0f575b505083519394506000925050505b818110156122305760106000848381518110611e5d57634e487b7160e01b600052603260045260246000fd5b60209081029190910181015182528101919091526040016000206004015460ff1615611e885761221e565b6000806000808760a0015160011415611f605760106000888781518110611ebf57634e487b7160e01b600052603260045260246000fd5b6020026020010151815260200190815260200160002060020154915060106000888781518110611eff57634e487b7160e01b600052603260045260246000fd5b6020026020010151815260200190815260200160002060010154935060106000888781518110611f3f57634e487b7160e01b600052603260045260246000fd5b6020026020010151815260200190815260200160002060030154925061202e565b8760a001516002141561202e5760106000888781518110611f9157634e487b7160e01b600052603260045260246000fd5b6020026020010151815260200190815260200160002060030154915060106000888781518110611fd157634e487b7160e01b600052603260045260246000fd5b602002602001015181526020019081526020016000206000015493506010600088878151811061201157634e487b7160e01b600052603260045260246000fd5b602002602001015181526020019081526020016000206002015492505b506000838152600d60205260409020546005546001600160a01b039091169060649061205a90826125f5565b61206490846125d6565b61206e91906125b6565b88516001600160a01b03166000908152600a60205260408120805490919061209790849061259e565b90915550506000848152600d6020526040812060030180548592906120bd9084906125f5565b90915550506005546000906064906120d590856125d6565b6120df91906125b6565b6008549091506064906120f290836125d6565b6120fc91906125b6565b6002546001600160a01b03166000908152600a60205260408120805490919061212690849061259e565b909155505060075460649061213b90836125d6565b61214591906125b6565b6003546001600160a01b03166000908152600a60205260408120805490919061216f90849061259e565b909155505060065460649061218490836125d6565b61218e91906125b6565b6020808b01516001600160a01b03166000908152600a9091526040812080549091906121bb90849061259e565b925050819055506001601060008a89815181106121e857634e487b7160e01b600052603260045260246000fd5b6020026020010151815260200190815260200160002060040160006101000a81548160ff02191690831515021790555050505050505b806122288161260c565b915050611e31565b50600195945050505050565b60008181526010602052604081206004015460ff161561225e57506000919050565b600082815260106020908152604080832080548452600d83528184205460018201548552828520546002909201546001600160a01b03918216808752600a9095529285208054949591909216936122b690849061259e565b90915550506000848152601060209081526040808320600301546001600160a01b0385168452600a90925282208054919290916122f490849061259e565b90915550505060009283525050601060205260409020600401805460ff1916600190811790915590565b60008060005b600e54819061233490600161259e565b61233e919061259e565b60008181526010602052604090206002015490925061235c5761236e565b806123668161260c565b915050612324565b6040805160a081018252888152602080820189815282840189815260608085018a8152600060808088018281528b8352601088528983209851895595516001808a0191909155945160028901559151600388015593516004909601805460ff191696151596909617909555600e805492830181559092527fbb7b4a454dc3493923482f07822329ed19e8244eff582cc204f8554c3620c3fd0186905583518b81529182018a90529281018890529182018690527f5fa90ed87b91d052928bcb5fa4df9d92a959bd7484a54ce4215ad1d422f8635b910160405180910390a15095945050505050565b600060208284031215612467578081fd5b81356124728161263d565b9392505050565b60006020828403121561248a578081fd5b81516124728161263d565b60008060008060008060c087890312156124ad578182fd5b86356124b88161263d565b95506020870135945060408701359350606087013592506080870135915060a08701356124e481612652565b809150509295509295509295565b600060208284031215612503578081fd5b815161247281612652565b60006020828403121561251f578081fd5b5035919050565b600060208284031215612537578081fd5b5051919050565b6020808252825182820181905260009190848201906040850190845b818110156125765783518352928401929184019160010161255a565b50909695505050505050565b602080825260029082015261269960f11b604082015260600190565b600082198211156125b1576125b1612627565b500190565b6000826125d157634e487b7160e01b81526012600452602481fd5b500490565b60008160001904831182151516156125f0576125f0612627565b500290565b60008282101561260757612607612627565b500390565b600060001982141561262057612620612627565b5060010190565b634e487b7160e01b600052601160045260246000fd5b6001600160a01b0381168114610d2157600080fd5b8015158114610d2157600080fdfea2646970667358221220f822208193c82b9c489f50b8560ab357b01eefaae514dbec4e64bb9638b60e2d64736f6c63430008040033",
					"opcodes": "PUSH1 0xC0 PUSH1 0x40 MSTORE CALLER PUSH1 0x60 SHL PUSH1 0x80 MSTORE CALLVALUE DUP1 ISZERO PUSH3 0x18 JUMPI PUSH1 0x0 DUP1 REVERT JUMPDEST POP PUSH1 0x40 MLOAD PUSH3 0x2C69 CODESIZE SUB DUP1 PUSH3 0x2C69 DUP4 CODECOPY DUP2 ADD PUSH1 0x40 DUP2 SWAP1 MSTORE PUSH3 0x3B SWAP2 PUSH3 0x503 JUMP JUMPDEST PUSH1 0x1 PUSH1 0x0 DUP2 SWAP1 SSTORE DUP1 SLOAD PUSH1 0x1 PUSH1 0x1 PUSH1 0xA0 SHL SUB NOT AND PUSH1 0x1 PUSH1 0x1 PUSH1 0xA0 SHL SUB DUP4 AND SWAP1 DUP2 OR SWAP1 SWAP2 SSTORE PUSH1 0x40 DUP1 MLOAD PUSH1 0xE0 DUP2 ADD DUP1 DUP4 MSTORE PUSH4 0x2DD90295 PUSH1 0xE2 SHL SWAP1 MSTORE SWAP1 MLOAD SWAP1 SWAP2 DUP3 SWAP2 PUSH4 0xB7640A54 SWAP1 PUSH1 0xE4 DUP1 DUP6 ADD SWAP2 PUSH1 0x20 SWAP2 DUP2 DUP8 SUB ADD DUP2 DUP7 DUP1 EXTCODESIZE ISZERO DUP1 ISZERO PUSH3 0x9D JUMPI PUSH1 0x0 DUP1 REVERT JUMPDEST POP GAS STATICCALL ISZERO DUP1 ISZERO PUSH3 0xB2 JUMPI RETURNDATASIZE PUSH1 0x0 DUP1 RETURNDATACOPY RETURNDATASIZE PUSH1 0x0 REVERT JUMPDEST POP POP POP POP PUSH1 0x40 MLOAD RETURNDATASIZE PUSH1 0x1F NOT PUSH1 0x1F DUP3 ADD AND DUP3 ADD DUP1 PUSH1 0x40 MSTORE POP DUP2 ADD SWAP1 PUSH3 0xD8 SWAP2 SWAP1 PUSH3 0x503 JUMP JUMPDEST PUSH1 0x1 PUSH1 0x1 PUSH1 0xA0 SHL SUB AND DUP2 MSTORE PUSH1 0x20 ADD PUSH1 0x1 PUSH1 0x0 SWAP1 SLOAD SWAP1 PUSH2 0x100 EXP SWAP1 DIV PUSH1 0x1 PUSH1 0x1 PUSH1 0xA0 SHL SUB AND PUSH1 0x1 PUSH1 0x1 PUSH1 0xA0 SHL SUB AND PUSH4 0x9953B2F PUSH1 0x40 MLOAD DUP2 PUSH4 0xFFFFFFFF AND PUSH1 0xE0 SHL DUP2 MSTORE PUSH1 0x4 ADD PUSH1 0x20 PUSH1 0x40 MLOAD DUP1 DUP4 SUB DUP2 DUP7 DUP1 EXTCODESIZE ISZERO DUP1 ISZERO PUSH3 0x135 JUMPI PUSH1 0x0 DUP1 REVERT JUMPDEST POP GAS STATICCALL ISZERO DUP1 ISZERO PUSH3 0x14A JUMPI RETURNDATASIZE PUSH1 0x0 DUP1 RETURNDATACOPY RETURNDATASIZE PUSH1 0x0 REVERT JUMPDEST POP POP POP POP PUSH1 0x40 MLOAD RETURNDATASIZE PUSH1 0x1F NOT PUSH1 0x1F DUP3 ADD AND DUP3 ADD DUP1 PUSH1 0x40 MSTORE POP DUP2 ADD SWAP1 PUSH3 0x170 SWAP2 SWAP1 PUSH3 0x503 JUMP JUMPDEST PUSH1 0x1 PUSH1 0x1 PUSH1 0xA0 SHL SUB AND DUP2 MSTORE PUSH1 0x20 ADD PUSH1 0x1 PUSH1 0x0 SWAP1 SLOAD SWAP1 PUSH2 0x100 EXP SWAP1 DIV PUSH1 0x1 PUSH1 0x1 PUSH1 0xA0 SHL SUB AND PUSH1 0x1 PUSH1 0x1 PUSH1 0xA0 SHL SUB AND PUSH4 0x375B3C0A PUSH1 0x40 MLOAD DUP2 PUSH4 0xFFFFFFFF AND PUSH1 0xE0 SHL DUP2 MSTORE PUSH1 0x4 ADD PUSH1 0x20 PUSH1 0x40 MLOAD DUP1 DUP4 SUB DUP2 DUP7 DUP1 EXTCODESIZE ISZERO DUP1 ISZERO PUSH3 0x1CD JUMPI PUSH1 0x0 DUP1 REVERT JUMPDEST POP GAS STATICCALL ISZERO DUP1 ISZERO PUSH3 0x1E2 JUMPI RETURNDATASIZE PUSH1 0x0 DUP1 RETURNDATACOPY RETURNDATASIZE PUSH1 0x0 REVERT JUMPDEST POP POP POP POP PUSH1 0x40 MLOAD RETURNDATASIZE PUSH1 0x1F NOT PUSH1 0x1F DUP3 ADD AND DUP3 ADD DUP1 PUSH1 0x40 MSTORE POP DUP2 ADD SWAP1 PUSH3 0x208 SWAP2 SWAP1 PUSH3 0x533 JUMP JUMPDEST DUP2 MSTORE PUSH1 0x1 SLOAD PUSH1 0x40 DUP1 MLOAD PUSH4 0x55C4A8BF PUSH1 0xE0 SHL DUP2 MSTORE SWAP1 MLOAD PUSH1 0x20 SWAP4 DUP5 ADD SWAP4 PUSH1 0x1 PUSH1 0x1 PUSH1 0xA0 SHL SUB SWAP1 SWAP4 AND SWAP3 PUSH4 0x55C4A8BF SWAP3 PUSH1 0x4 DUP1 DUP3 ADD SWAP4 SWAP2 DUP3 SWAP1 SUB ADD DUP2 DUP7 DUP1 EXTCODESIZE ISZERO DUP1 ISZERO PUSH3 0x251 JUMPI PUSH1 0x0 DUP1 REVERT JUMPDEST POP GAS STATICCALL ISZERO DUP1 ISZERO PUSH3 0x266 JUMPI RETURNDATASIZE PUSH1 0x0 DUP1 RETURNDATACOPY RETURNDATASIZE PUSH1 0x0 REVERT JUMPDEST POP POP POP POP PUSH1 0x40 MLOAD RETURNDATASIZE PUSH1 0x1F NOT PUSH1 0x1F DUP3 ADD AND DUP3 ADD DUP1 PUSH1 0x40 MSTORE POP DUP2 ADD SWAP1 PUSH3 0x28C SWAP2 SWAP1 PUSH3 0x533 JUMP JUMPDEST DUP2 MSTORE PUSH1 0x1 SLOAD PUSH1 0x40 DUP1 MLOAD PUSH4 0x15334697 PUSH1 0xE2 SHL DUP2 MSTORE SWAP1 MLOAD PUSH1 0x20 SWAP4 DUP5 ADD SWAP4 PUSH1 0x1 PUSH1 0x1 PUSH1 0xA0 SHL SUB SWAP1 SWAP4 AND SWAP3 PUSH4 0x54CD1A5C SWAP3 PUSH1 0x4 DUP1 DUP3 ADD SWAP4 SWAP2 DUP3 SWAP1 SUB ADD DUP2 DUP7 DUP1 EXTCODESIZE ISZERO DUP1 ISZERO PUSH3 0x2D5 JUMPI PUSH1 0x0 DUP1 REVERT JUMPDEST POP GAS STATICCALL ISZERO DUP1 ISZERO PUSH3 0x2EA JUMPI RETURNDATASIZE PUSH1 0x0 DUP1 RETURNDATACOPY RETURNDATASIZE PUSH1 0x0 REVERT JUMPDEST POP POP POP POP PUSH1 0x40 MLOAD RETURNDATASIZE PUSH1 0x1F NOT PUSH1 0x1F DUP3 ADD AND DUP3 ADD DUP1 PUSH1 0x40 MSTORE POP DUP2 ADD SWAP1 PUSH3 0x310 SWAP2 SWAP1 PUSH3 0x533 JUMP JUMPDEST DUP2 MSTORE PUSH1 0x1 SLOAD PUSH1 0x40 DUP1 MLOAD PUSH4 0x28576D45 PUSH1 0xE0 SHL DUP2 MSTORE SWAP1 MLOAD PUSH1 0x20 SWAP4 DUP5 ADD SWAP4 PUSH1 0x1 PUSH1 0x1 PUSH1 0xA0 SHL SUB SWAP1 SWAP4 AND SWAP3 PUSH4 0x28576D45 SWAP3 PUSH1 0x4 DUP1 DUP3 ADD SWAP4 SWAP2 DUP3 SWAP1 SUB ADD DUP2 DUP7 DUP1 EXTCODESIZE ISZERO DUP1 ISZERO PUSH3 0x359 JUMPI PUSH1 0x0 DUP1 REVERT JUMPDEST POP GAS STATICCALL ISZERO DUP1 ISZERO PUSH3 0x36E JUMPI RETURNDATASIZE PUSH1 0x0 DUP1 RETURNDATACOPY RETURNDATASIZE PUSH1 0x0 REVERT JUMPDEST POP POP POP POP PUSH1 0x40 MLOAD RETURNDATASIZE PUSH1 0x1F NOT PUSH1 0x1F DUP3 ADD AND DUP3 ADD DUP1 PUSH1 0x40 MSTORE POP DUP2 ADD SWAP1 PUSH3 0x394 SWAP2 SWAP1 PUSH3 0x533 JUMP JUMPDEST DUP2 MSTORE PUSH1 0x1 SLOAD PUSH1 0x40 DUP1 MLOAD PUSH4 0x6A0CCD9D PUSH1 0xE0 SHL DUP2 MSTORE SWAP1 MLOAD PUSH1 0x20 SWAP4 DUP5 ADD SWAP4 PUSH1 0x1 PUSH1 0x1 PUSH1 0xA0 SHL SUB SWAP1 SWAP4 AND SWAP3 PUSH4 0x6A0CCD9D SWAP3 PUSH1 0x4 DUP1 DUP3 ADD SWAP4 SWAP2 DUP3 SWAP1 SUB ADD DUP2 DUP7 DUP1 EXTCODESIZE ISZERO DUP1 ISZERO PUSH3 0x3DD JUMPI PUSH1 0x0 DUP1 REVERT JUMPDEST POP GAS STATICCALL ISZERO DUP1 ISZERO PUSH3 0x3F2 JUMPI RETURNDATASIZE PUSH1 0x0 DUP1 RETURNDATACOPY RETURNDATASIZE PUSH1 0x0 REVERT JUMPDEST POP POP POP POP PUSH1 0x40 MLOAD RETURNDATASIZE PUSH1 0x1F NOT PUSH1 0x1F DUP3 ADD AND DUP3 ADD DUP1 PUSH1 0x40 MSTORE POP DUP2 ADD SWAP1 PUSH3 0x418 SWAP2 SWAP1 PUSH3 0x533 JUMP JUMPDEST SWAP1 MSTORE DUP1 MLOAD PUSH1 0x2 DUP1 SLOAD PUSH1 0x1 PUSH1 0x1 PUSH1 0xA0 SHL SUB NOT SWAP1 DUP2 AND PUSH1 0x1 PUSH1 0x1 PUSH1 0xA0 SHL SUB SWAP4 DUP5 AND OR SWAP1 SWAP2 SSTORE PUSH1 0x20 DUP1 DUP5 ADD MLOAD PUSH1 0x3 DUP1 SLOAD SWAP1 SWAP4 AND SWAP1 DUP5 AND OR SWAP1 SWAP2 SSTORE PUSH1 0x40 DUP1 DUP5 ADD MLOAD PUSH1 0x4 SWAP1 DUP2 SSTORE PUSH1 0x60 DUP6 ADD MLOAD PUSH1 0x5 SSTORE PUSH1 0x80 DUP6 ADD MLOAD PUSH1 0x6 SSTORE PUSH1 0xA0 DUP6 ADD MLOAD PUSH1 0x7 SSTORE PUSH1 0xC0 SWAP1 SWAP5 ADD MLOAD PUSH1 0x8 SSTORE PUSH1 0x1 SLOAD DUP2 MLOAD PUSH3 0x966ED9 PUSH1 0xE3 SHL DUP2 MSTORE SWAP2 MLOAD SWAP4 AND SWAP4 PUSH4 0x4B376C8 SWAP4 DUP3 DUP3 ADD SWAP4 SWAP3 SWAP1 SWAP2 SWAP1 DUP3 SWAP1 SUB ADD DUP2 DUP7 DUP1 EXTCODESIZE ISZERO DUP1 ISZERO PUSH3 0x4B1 JUMPI PUSH1 0x0 DUP1 REVERT JUMPDEST POP GAS STATICCALL ISZERO DUP1 ISZERO PUSH3 0x4C6 JUMPI RETURNDATASIZE PUSH1 0x0 DUP1 RETURNDATACOPY RETURNDATASIZE PUSH1 0x0 REVERT JUMPDEST POP POP POP POP PUSH1 0x40 MLOAD RETURNDATASIZE PUSH1 0x1F NOT PUSH1 0x1F DUP3 ADD AND DUP3 ADD DUP1 PUSH1 0x40 MSTORE POP DUP2 ADD SWAP1 PUSH3 0x4EC SWAP2 SWAP1 PUSH3 0x503 JUMP JUMPDEST PUSH1 0x60 SHL PUSH1 0x1 PUSH1 0x1 PUSH1 0x60 SHL SUB NOT AND PUSH1 0xA0 MSTORE POP PUSH3 0x54C JUMP JUMPDEST PUSH1 0x0 PUSH1 0x20 DUP3 DUP5 SUB SLT ISZERO PUSH3 0x515 JUMPI DUP1 DUP2 REVERT JUMPDEST DUP2 MLOAD PUSH1 0x1 PUSH1 0x1 PUSH1 0xA0 SHL SUB DUP2 AND DUP2 EQ PUSH3 0x52C JUMPI DUP2 DUP3 REVERT JUMPDEST SWAP4 SWAP3 POP POP POP JUMP JUMPDEST PUSH1 0x0 PUSH1 0x20 DUP3 DUP5 SUB SLT ISZERO PUSH3 0x545 JUMPI DUP1 DUP2 REVERT JUMPDEST POP MLOAD SWAP2 SWAP1 POP JUMP JUMPDEST PUSH1 0x80 MLOAD PUSH1 0x60 SHR PUSH1 0xA0 MLOAD PUSH1 0x60 SHR PUSH2 0x2696 PUSH3 0x5D3 PUSH1 0x0 CODECOPY PUSH1 0x0 DUP2 DUP2 PUSH2 0x5D8 ADD MSTORE DUP2 DUP2 PUSH2 0x6AA ADD MSTORE DUP2 DUP2 PUSH2 0x7BA ADD MSTORE DUP2 DUP2 PUSH2 0xDAD ADD MSTORE PUSH2 0xEBF ADD MSTORE PUSH1 0x0 DUP2 DUP2 PUSH2 0x1031 ADD MSTORE DUP2 DUP2 PUSH2 0x105A ADD MSTORE DUP2 DUP2 PUSH2 0x1197 ADD MSTORE DUP2 DUP2 PUSH2 0x11C0 ADD MSTORE DUP2 DUP2 PUSH2 0x1358 ADD MSTORE DUP2 DUP2 PUSH2 0x1381 ADD MSTORE DUP2 DUP2 PUSH2 0x154E ADD MSTORE DUP2 DUP2 PUSH2 0x1577 ADD MSTORE DUP2 DUP2 PUSH2 0x1693 ADD MSTORE PUSH2 0x16BC ADD MSTORE PUSH2 0x2696 PUSH1 0x0 RETURN INVALID PUSH1 0x80 PUSH1 0x40 MSTORE CALLVALUE DUP1 ISZERO PUSH2 0x10 JUMPI PUSH1 0x0 DUP1 REVERT JUMPDEST POP PUSH1 0x4 CALLDATASIZE LT PUSH2 0x116 JUMPI PUSH1 0x0 CALLDATALOAD PUSH1 0xE0 SHR DUP1 PUSH4 0x6BEF0267 GT PUSH2 0xA2 JUMPI DUP1 PUSH4 0xAE8CD090 GT PUSH2 0x71 JUMPI DUP1 PUSH4 0xAE8CD090 EQ PUSH2 0x272 JUMPI DUP1 PUSH4 0xBDF391CC EQ PUSH2 0x27A JUMPI DUP1 PUSH4 0xD0ED7295 EQ PUSH2 0x2D1 JUMPI DUP1 PUSH4 0xEA8A1AF0 EQ PUSH2 0x2E4 JUMPI DUP1 PUSH4 0xF8B2CB4F EQ PUSH2 0x2EC JUMPI PUSH1 0x0 DUP1 REVERT JUMPDEST DUP1 PUSH4 0x6BEF0267 EQ PUSH2 0x247 JUMPI DUP1 PUSH4 0x767EB5EF EQ PUSH2 0x24F JUMPI DUP1 PUSH4 0x8DF82800 EQ PUSH2 0x257 JUMPI DUP1 PUSH4 0xA6AFD5FD EQ PUSH2 0x26A JUMPI PUSH1 0x0 DUP1 REVERT JUMPDEST DUP1 PUSH4 0x2D56657D GT PUSH2 0xE9 JUMPI DUP1 PUSH4 0x2D56657D EQ PUSH2 0x1CB JUMPI DUP1 PUSH4 0x2E585FD8 EQ PUSH2 0x1EB JUMPI DUP1 PUSH4 0x357401F5 EQ PUSH2 0x1FE JUMPI DUP1 PUSH4 0x51CFF8D9 EQ PUSH2 0x211 JUMPI DUP1 PUSH4 0x58918E61 EQ PUSH2 0x234 JUMPI PUSH1 0x0 DUP1 REVERT JUMPDEST DUP1 PUSH4 0x61E494F EQ PUSH2 0x11B JUMPI DUP1 PUSH4 0x16FD381A EQ PUSH2 0x18C JUMPI DUP1 PUSH4 0x1E56B7D3 EQ PUSH2 0x1A1 JUMPI DUP1 PUSH4 0x200D2ED2 EQ PUSH2 0x1B4 JUMPI JUMPDEST PUSH1 0x0 DUP1 REVERT JUMPDEST PUSH2 0x12E PUSH2 0x129 CALLDATASIZE PUSH1 0x4 PUSH2 0x250E JUMP JUMPDEST PUSH2 0x315 JUMP JUMPDEST PUSH1 0x40 MLOAD PUSH2 0x183 SWAP2 SWAP1 DUP2 MLOAD PUSH1 0x1 PUSH1 0x1 PUSH1 0xA0 SHL SUB SWAP1 DUP2 AND DUP3 MSTORE PUSH1 0x20 DUP1 DUP5 ADD MLOAD SWAP1 SWAP2 AND SWAP1 DUP3 ADD MSTORE PUSH1 0x40 DUP1 DUP4 ADD MLOAD SWAP1 DUP3 ADD MSTORE PUSH1 0x60 DUP1 DUP4 ADD MLOAD SWAP1 DUP3 ADD MSTORE PUSH1 0x80 DUP1 DUP4 ADD MLOAD SWAP1 DUP3 ADD MSTORE PUSH1 0xA0 SWAP2 DUP3 ADD MLOAD SWAP2 DUP2 ADD SWAP2 SWAP1 SWAP2 MSTORE PUSH1 0xC0 ADD SWAP1 JUMP JUMPDEST PUSH1 0x40 MLOAD DUP1 SWAP2 SUB SWAP1 RETURN JUMPDEST PUSH2 0x19F PUSH2 0x19A CALLDATASIZE PUSH1 0x4 PUSH2 0x250E JUMP JUMPDEST PUSH2 0x3C5 JUMP JUMPDEST STOP JUMPDEST PUSH2 0x19F PUSH2 0x1AF CALLDATASIZE PUSH1 0x4 PUSH2 0x2495 JUMP JUMPDEST PUSH2 0x49A JUMP JUMPDEST PUSH2 0x1BD PUSH1 0x9 SLOAD DUP2 JUMP JUMPDEST PUSH1 0x40 MLOAD SWAP1 DUP2 MSTORE PUSH1 0x20 ADD PUSH2 0x183 JUMP JUMPDEST PUSH2 0x1DE PUSH2 0x1D9 CALLDATASIZE PUSH1 0x4 PUSH2 0x2456 JUMP JUMPDEST PUSH2 0xB2E JUMP JUMPDEST PUSH1 0x40 MLOAD PUSH2 0x183 SWAP2 SWAP1 PUSH2 0x253E JUMP JUMPDEST PUSH2 0x19F PUSH2 0x1F9 CALLDATASIZE PUSH1 0x4 PUSH2 0x250E JUMP JUMPDEST PUSH2 0xB9A JUMP JUMPDEST PUSH2 0x19F PUSH2 0x20C CALLDATASIZE PUSH1 0x4 PUSH2 0x250E JUMP JUMPDEST PUSH2 0xCAC JUMP JUMPDEST PUSH2 0x224 PUSH2 0x21F CALLDATASIZE PUSH1 0x4 PUSH2 0x2456 JUMP JUMPDEST PUSH2 0xD24 JUMP JUMPDEST PUSH1 0x40 MLOAD SWAP1 ISZERO ISZERO DUP2 MSTORE PUSH1 0x20 ADD PUSH2 0x183 JUMP JUMPDEST PUSH2 0x1DE PUSH2 0x242 CALLDATASIZE PUSH1 0x4 PUSH2 0x250E JUMP JUMPDEST PUSH2 0xFC4 JUMP JUMPDEST PUSH2 0x224 PUSH2 0x1024 JUMP JUMPDEST PUSH2 0x1DE PUSH2 0x1132 JUMP JUMPDEST PUSH2 0x224 PUSH2 0x265 CALLDATASIZE PUSH1 0x4 PUSH2 0x250E JUMP JUMPDEST PUSH2 0x118A JUMP JUMPDEST PUSH2 0x1DE PUSH2 0x12F5 JUMP JUMPDEST PUSH2 0x224 PUSH2 0x134B JUMP JUMPDEST PUSH2 0x28D PUSH2 0x288 CALLDATASIZE PUSH1 0x4 PUSH2 0x250E JUMP JUMPDEST PUSH2 0x14B9 JUMP JUMPDEST PUSH1 0x40 MLOAD PUSH2 0x183 SWAP2 SWAP1 PUSH1 0x0 PUSH1 0xA0 DUP3 ADD SWAP1 POP DUP3 MLOAD DUP3 MSTORE PUSH1 0x20 DUP4 ADD MLOAD PUSH1 0x20 DUP4 ADD MSTORE PUSH1 0x40 DUP4 ADD MLOAD PUSH1 0x40 DUP4 ADD MSTORE PUSH1 0x60 DUP4 ADD MLOAD PUSH1 0x60 DUP4 ADD MSTORE PUSH1 0x80 DUP4 ADD MLOAD ISZERO ISZERO PUSH1 0x80 DUP4 ADD MSTORE SWAP3 SWAP2 POP POP JUMP JUMPDEST PUSH2 0x224 PUSH2 0x2DF CALLDATASIZE PUSH1 0x4 PUSH2 0x250E JUMP JUMPDEST PUSH2 0x1541 JUMP JUMPDEST PUSH2 0x224 PUSH2 0x1686 JUMP JUMPDEST PUSH2 0x1BD PUSH2 0x2FA CALLDATASIZE PUSH1 0x4 PUSH2 0x2456 JUMP JUMPDEST PUSH1 0x1 PUSH1 0x1 PUSH1 0xA0 SHL SUB AND PUSH1 0x0 SWAP1 DUP2 MSTORE PUSH1 0xA PUSH1 0x20 MSTORE PUSH1 0x40 SWAP1 KECCAK256 SLOAD SWAP1 JUMP JUMPDEST PUSH2 0x360 PUSH1 0x40 MLOAD DUP1 PUSH1 0xC0 ADD PUSH1 0x40 MSTORE DUP1 PUSH1 0x0 PUSH1 0x1 PUSH1 0x1 PUSH1 0xA0 SHL SUB AND DUP2 MSTORE PUSH1 0x20 ADD PUSH1 0x0 PUSH1 0x1 PUSH1 0x1 PUSH1 0xA0 SHL SUB AND DUP2 MSTORE PUSH1 0x20 ADD PUSH1 0x0 DUP2 MSTORE PUSH1 0x20 ADD PUSH1 0x0 DUP2 MSTORE PUSH1 0x20 ADD PUSH1 0x0 DUP2 MSTORE PUSH1 0x20 ADD PUSH1 0x0 DUP2 MSTORE POP SWAP1 JUMP JUMPDEST POP PUSH1 0x0 SWAP1 DUP2 MSTORE PUSH1 0xD PUSH1 0x20 SWAP1 DUP2 MSTORE PUSH1 0x40 SWAP2 DUP3 SWAP1 KECCAK256 DUP3 MLOAD PUSH1 0xC0 DUP2 ADD DUP5 MSTORE DUP2 SLOAD PUSH1 0x1 PUSH1 0x1 PUSH1 0xA0 SHL SUB SWAP1 DUP2 AND DUP3 MSTORE PUSH1 0x1 DUP4 ADD SLOAD AND SWAP3 DUP2 ADD SWAP3 SWAP1 SWAP3 MSTORE PUSH1 0x2 DUP2 ADD SLOAD SWAP3 DUP3 ADD SWAP3 SWAP1 SWAP3 MSTORE PUSH1 0x3 DUP3 ADD SLOAD PUSH1 0x60 DUP3 ADD MSTORE PUSH1 0x4 DUP3 ADD SLOAD PUSH1 0x80 DUP3 ADD MSTORE PUSH1 0x5 SWAP1 SWAP2 ADD SLOAD PUSH1 0xA0 DUP3 ADD MSTORE SWAP1 JUMP JUMPDEST PUSH1 0x0 DUP2 DUP2 MSTORE PUSH1 0xF PUSH1 0x20 SWAP1 DUP2 MSTORE PUSH1 0x40 DUP1 DUP4 KECCAK256 DUP1 SLOAD DUP3 MLOAD DUP2 DUP6 MUL DUP2 ADD DUP6 ADD SWAP1 SWAP4 MSTORE DUP1 DUP4 MSTORE SWAP2 SWAP3 SWAP1 SWAP2 SWAP1 DUP4 ADD DUP3 DUP3 DUP1 ISZERO PUSH2 0x41B JUMPI PUSH1 0x20 MUL DUP3 ADD SWAP2 SWAP1 PUSH1 0x0 MSTORE PUSH1 0x20 PUSH1 0x0 KECCAK256 SWAP1 JUMPDEST DUP2 SLOAD DUP2 MSTORE PUSH1 0x20 ADD SWAP1 PUSH1 0x1 ADD SWAP1 DUP1 DUP4 GT PUSH2 0x407 JUMPI JUMPDEST POP POP DUP4 MLOAD SWAP4 SWAP5 POP PUSH1 0x0 SWAP3 POP POP POP JUMPDEST DUP2 DUP2 LT ISZERO PUSH2 0x474 JUMPI PUSH2 0x461 DUP4 DUP3 DUP2 MLOAD DUP2 LT PUSH2 0x454 JUMPI PUSH4 0x4E487B71 PUSH1 0xE0 SHL PUSH1 0x0 MSTORE PUSH1 0x32 PUSH1 0x4 MSTORE PUSH1 0x24 PUSH1 0x0 REVERT JUMPDEST PUSH1 0x20 MUL PUSH1 0x20 ADD ADD MLOAD PUSH2 0x179D JUMP JUMPDEST POP DUP1 PUSH2 0x46C DUP2 PUSH2 0x260C JUMP JUMPDEST SWAP2 POP POP PUSH2 0x429 JUMP JUMPDEST POP CALLER PUSH1 0x0 SWAP1 DUP2 MSTORE PUSH1 0xA PUSH1 0x20 MSTORE PUSH1 0x40 SWAP1 KECCAK256 SLOAD ISZERO PUSH2 0x495 JUMPI PUSH2 0x493 CALLER PUSH2 0xD24 JUMP JUMPDEST POP JUMPDEST POP POP POP JUMP JUMPDEST PUSH1 0x1 SLOAD PUSH1 0x40 MLOAD PUSH4 0x332DACCF PUSH1 0xE0 SHL DUP2 MSTORE CALLER PUSH1 0x4 DUP3 ADD MSTORE PUSH1 0x1 PUSH1 0x1 PUSH1 0xA0 SHL SUB SWAP1 SWAP2 AND SWAP1 PUSH4 0x332DACCF SWAP1 PUSH1 0x24 ADD PUSH1 0x20 PUSH1 0x40 MLOAD DUP1 DUP4 SUB DUP2 DUP7 DUP1 EXTCODESIZE ISZERO DUP1 ISZERO PUSH2 0x4DD JUMPI PUSH1 0x0 DUP1 REVERT JUMPDEST POP GAS STATICCALL ISZERO DUP1 ISZERO PUSH2 0x4F1 JUMPI RETURNDATASIZE PUSH1 0x0 DUP1 RETURNDATACOPY RETURNDATASIZE PUSH1 0x0 REVERT JUMPDEST POP POP POP POP PUSH1 0x40 MLOAD RETURNDATASIZE PUSH1 0x1F NOT PUSH1 0x1F DUP3 ADD AND DUP3 ADD DUP1 PUSH1 0x40 MSTORE POP DUP2 ADD SWAP1 PUSH2 0x515 SWAP2 SWAP1 PUSH2 0x24F2 JUMP JUMPDEST ISZERO PUSH2 0x54C JUMPI PUSH1 0x40 MLOAD PUSH3 0x461BCD PUSH1 0xE5 SHL DUP2 MSTORE PUSH1 0x20 PUSH1 0x4 DUP3 ADD MSTORE PUSH1 0x2 PUSH1 0x24 DUP3 ADD MSTORE PUSH2 0x4D31 PUSH1 0xF0 SHL PUSH1 0x44 DUP3 ADD MSTORE PUSH1 0x64 ADD JUMPDEST PUSH1 0x40 MLOAD DUP1 SWAP2 SUB SWAP1 REVERT JUMPDEST PUSH1 0x9 SLOAD ISZERO PUSH2 0x581 JUMPI PUSH1 0x40 MLOAD PUSH3 0x461BCD PUSH1 0xE5 SHL DUP2 MSTORE PUSH1 0x20 PUSH1 0x4 DUP3 ADD MSTORE PUSH1 0x2 PUSH1 0x24 DUP3 ADD MSTORE PUSH2 0x4D37 PUSH1 0xF0 SHL PUSH1 0x44 DUP3 ADD MSTORE PUSH1 0x64 ADD PUSH2 0x543 JUMP JUMPDEST DUP2 PUSH1 0x1 EQ DUP1 PUSH2 0x590 JUMPI POP DUP2 PUSH1 0x2 EQ JUMPDEST PUSH2 0x5C1 JUMPI PUSH1 0x40 MLOAD PUSH3 0x461BCD PUSH1 0xE5 SHL DUP2 MSTORE PUSH1 0x20 PUSH1 0x4 DUP3 ADD MSTORE PUSH1 0x2 PUSH1 0x24 DUP3 ADD MSTORE PUSH2 0x9A7 PUSH1 0xF3 SHL PUSH1 0x44 DUP3 ADD MSTORE PUSH1 0x64 ADD PUSH2 0x543 JUMP JUMPDEST PUSH1 0x40 MLOAD PUSH4 0x70A08231 PUSH1 0xE0 SHL DUP2 MSTORE CALLER PUSH1 0x4 DUP3 ADD MSTORE DUP5 SWAP1 PUSH32 0x0 PUSH1 0x1 PUSH1 0x1 PUSH1 0xA0 SHL SUB AND SWAP1 PUSH4 0x70A08231 SWAP1 PUSH1 0x24 ADD PUSH1 0x20 PUSH1 0x40 MLOAD DUP1 DUP4 SUB DUP2 DUP7 DUP1 EXTCODESIZE ISZERO DUP1 ISZERO PUSH2 0x622 JUMPI PUSH1 0x0 DUP1 REVERT JUMPDEST POP GAS STATICCALL ISZERO DUP1 ISZERO PUSH2 0x636 JUMPI RETURNDATASIZE PUSH1 0x0 DUP1 RETURNDATACOPY RETURNDATASIZE PUSH1 0x0 REVERT JUMPDEST POP POP POP POP PUSH1 0x40 MLOAD RETURNDATASIZE PUSH1 0x1F NOT PUSH1 0x1F DUP3 ADD AND DUP3 ADD DUP1 PUSH1 0x40 MSTORE POP DUP2 ADD SWAP1 PUSH2 0x65A SWAP2 SWAP1 PUSH2 0x2526 JUMP JUMPDEST LT ISZERO PUSH2 0x68D JUMPI PUSH1 0x40 MLOAD PUSH3 0x461BCD PUSH1 0xE5 SHL DUP2 MSTORE PUSH1 0x20 PUSH1 0x4 DUP3 ADD MSTORE PUSH1 0x2 PUSH1 0x24 DUP3 ADD MSTORE PUSH2 0x4D39 PUSH1 0xF0 SHL PUSH1 0x44 DUP3 ADD MSTORE PUSH1 0x64 ADD PUSH2 0x543 JUMP JUMPDEST PUSH1 0x40 MLOAD PUSH4 0x6EB1769F PUSH1 0xE1 SHL DUP2 MSTORE CALLER PUSH1 0x4 DUP3 ADD MSTORE ADDRESS PUSH1 0x24 DUP3 ADD MSTORE DUP5 SWAP1 PUSH32 0x0 PUSH1 0x1 PUSH1 0x1 PUSH1 0xA0 SHL SUB AND SWAP1 PUSH4 0xDD62ED3E SWAP1 PUSH1 0x44 ADD PUSH1 0x20 PUSH1 0x40 MLOAD DUP1 DUP4 SUB DUP2 DUP7 DUP1 EXTCODESIZE ISZERO DUP1 ISZERO PUSH2 0x6F4 JUMPI PUSH1 0x0 DUP1 REVERT JUMPDEST POP GAS STATICCALL ISZERO DUP1 ISZERO PUSH2 0x708 JUMPI RETURNDATASIZE PUSH1 0x0 DUP1 RETURNDATACOPY RETURNDATASIZE PUSH1 0x0 REVERT JUMPDEST POP POP POP POP PUSH1 0x40 MLOAD RETURNDATASIZE PUSH1 0x1F NOT PUSH1 0x1F DUP3 ADD AND DUP3 ADD DUP1 PUSH1 0x40 MSTORE POP DUP2 ADD SWAP1 PUSH2 0x72C SWAP2 SWAP1 PUSH2 0x2526 JUMP JUMPDEST LT ISZERO PUSH2 0x760 JUMPI PUSH1 0x40 MLOAD PUSH3 0x461BCD PUSH1 0xE5 SHL DUP2 MSTORE PUSH1 0x20 PUSH1 0x4 DUP3 ADD MSTORE PUSH1 0x3 PUSH1 0x24 DUP3 ADD MSTORE PUSH3 0x4D313 PUSH1 0xEC SHL PUSH1 0x44 DUP3 ADD MSTORE PUSH1 0x64 ADD PUSH2 0x543 JUMP JUMPDEST PUSH1 0x4 SLOAD DUP5 LT ISZERO PUSH2 0x798 JUMPI PUSH1 0x40 MLOAD PUSH3 0x461BCD PUSH1 0xE5 SHL DUP2 MSTORE PUSH1 0x20 PUSH1 0x4 DUP3 ADD MSTORE PUSH1 0x3 PUSH1 0x24 DUP3 ADD MSTORE PUSH3 0x4D3131 PUSH1 0xE8 SHL PUSH1 0x44 DUP3 ADD MSTORE PUSH1 0x64 ADD PUSH2 0x543 JUMP JUMPDEST PUSH1 0x40 MLOAD PUSH4 0x23B872DD PUSH1 0xE0 SHL DUP2 MSTORE CALLER PUSH1 0x4 DUP3 ADD MSTORE ADDRESS PUSH1 0x24 DUP3 ADD MSTORE PUSH1 0x44 DUP2 ADD DUP6 SWAP1 MSTORE PUSH32 0x0 PUSH1 0x1 PUSH1 0x1 PUSH1 0xA0 SHL SUB AND SWAP1 PUSH4 0x23B872DD SWAP1 PUSH1 0x64 ADD PUSH1 0x20 PUSH1 0x40 MLOAD DUP1 DUP4 SUB DUP2 PUSH1 0x0 DUP8 DUP1 EXTCODESIZE ISZERO DUP1 ISZERO PUSH2 0x806 JUMPI PUSH1 0x0 DUP1 REVERT JUMPDEST POP GAS CALL ISZERO DUP1 ISZERO PUSH2 0x81A JUMPI RETURNDATASIZE PUSH1 0x0 DUP1 RETURNDATACOPY RETURNDATASIZE PUSH1 0x0 REVERT JUMPDEST POP POP POP POP PUSH1 0x40 MLOAD RETURNDATASIZE PUSH1 0x1F NOT PUSH1 0x1F DUP3 ADD AND DUP3 ADD DUP1 PUSH1 0x40 MSTORE POP DUP2 ADD SWAP1 PUSH2 0x83E SWAP2 SWAP1 PUSH2 0x24F2 JUMP JUMPDEST PUSH2 0x870 JUMPI PUSH1 0x40 MLOAD PUSH3 0x461BCD PUSH1 0xE5 SHL DUP2 MSTORE PUSH1 0x20 PUSH1 0x4 DUP3 ADD MSTORE PUSH1 0x3 PUSH1 0x24 DUP3 ADD MSTORE PUSH3 0x269899 PUSH1 0xE9 SHL PUSH1 0x44 DUP3 ADD MSTORE PUSH1 0x64 ADD PUSH2 0x543 JUMP JUMPDEST PUSH2 0x89F CALLER DUP8 DUP8 DUP8 PUSH1 0x0 PUSH2 0x884 PUSH1 0x64 DUP11 PUSH2 0x25F5 JUMP JUMPDEST PUSH2 0x88F DUP11 PUSH1 0x64 PUSH2 0x25D6 JUMP JUMPDEST PUSH2 0x899 SWAP2 SWAP1 PUSH2 0x25B6 JUMP JUMPDEST DUP9 PUSH2 0x1B30 JUMP JUMPDEST PUSH1 0x40 DUP1 MLOAD CALLER DUP2 MSTORE ADDRESS PUSH1 0x20 DUP3 ADD MSTORE SWAP1 DUP2 ADD DUP7 SWAP1 MSTORE PUSH1 0x60 DUP2 ADD DUP6 SWAP1 MSTORE PUSH1 0x80 DUP2 ADD DUP5 SWAP1 MSTORE PUSH1 0xA0 DUP2 ADD DUP4 SWAP1 MSTORE PUSH32 0x8CECF46A208E9D1CCB2B669CF853FCEDFA8D0BDCD56ED4631B5CB07740BC0B85 SWAP1 PUSH1 0xC0 ADD PUSH1 0x40 MLOAD DUP1 SWAP2 SUB SWAP1 LOG1 PUSH1 0xB SLOAD ISZERO PUSH2 0xB26 JUMPI PUSH1 0xB SLOAD JUMPDEST PUSH1 0x4 SLOAD DUP6 LT PUSH2 0xB24 JUMPI PUSH1 0x0 DUP1 PUSH1 0x0 JUMPDEST DUP4 DUP2 LT ISZERO PUSH2 0x9D8 JUMPI PUSH1 0x0 PUSH1 0xB DUP3 DUP2 SLOAD DUP2 LT PUSH2 0x93A JUMPI PUSH4 0x4E487B71 PUSH1 0xE0 SHL PUSH1 0x0 MSTORE PUSH1 0x32 PUSH1 0x4 MSTORE PUSH1 0x24 PUSH1 0x0 REVERT JUMPDEST SWAP1 PUSH1 0x0 MSTORE PUSH1 0x20 PUSH1 0x0 KECCAK256 ADD SLOAD SWAP1 POP PUSH1 0xD PUSH1 0x0 DUP3 DUP2 MSTORE PUSH1 0x20 ADD SWAP1 DUP2 MSTORE PUSH1 0x20 ADD PUSH1 0x0 KECCAK256 PUSH1 0x5 ADD SLOAD DUP8 EQ ISZERO PUSH2 0x96B JUMPI POP PUSH2 0x9C6 JUMP JUMPDEST PUSH1 0x0 DUP2 DUP2 MSTORE PUSH1 0xD PUSH1 0x20 MSTORE PUSH1 0x40 SWAP1 KECCAK256 SLOAD PUSH1 0x1 PUSH1 0x1 PUSH1 0xA0 SHL SUB AND CALLER EQ ISZERO PUSH2 0x990 JUMPI POP PUSH2 0x9C6 JUMP JUMPDEST PUSH1 0x0 DUP2 DUP2 MSTORE PUSH1 0xD PUSH1 0x20 MSTORE PUSH1 0x40 SWAP1 KECCAK256 PUSH1 0x4 ADD SLOAD DUP4 LT ISZERO PUSH2 0x9C4 JUMPI PUSH1 0x0 DUP2 DUP2 MSTORE PUSH1 0xD PUSH1 0x20 MSTORE PUSH1 0x40 SWAP1 KECCAK256 PUSH1 0x4 ADD SLOAD SWAP2 SWAP4 POP SWAP1 SWAP2 POP DUP3 SWAP1 JUMPDEST POP JUMPDEST DUP1 PUSH2 0x9D0 DUP2 PUSH2 0x260C JUMP JUMPDEST SWAP2 POP POP PUSH2 0x90F JUMP JUMPDEST POP PUSH1 0x0 DUP7 DUP3 LT ISZERO DUP1 PUSH2 0x9F2 JUMPI POP PUSH1 0x0 DUP3 GT DUP1 ISZERO PUSH2 0x9F2 JUMPI POP DUP5 JUMPDEST ISZERO PUSH2 0xB08 JUMPI PUSH1 0x0 PUSH1 0xD PUSH1 0x0 PUSH1 0xB DUP7 DUP2 SLOAD DUP2 LT PUSH2 0xA1E JUMPI PUSH4 0x4E487B71 PUSH1 0xE0 SHL PUSH1 0x0 MSTORE PUSH1 0x32 PUSH1 0x4 MSTORE PUSH1 0x24 PUSH1 0x0 REVERT JUMPDEST PUSH1 0x0 SWAP2 DUP3 MSTORE PUSH1 0x20 DUP1 DUP4 KECCAK256 SWAP1 SWAP2 ADD SLOAD DUP4 MSTORE DUP3 DUP2 ADD SWAP4 SWAP1 SWAP4 MSTORE PUSH1 0x40 SWAP2 DUP3 ADD DUP2 KECCAK256 DUP3 MLOAD PUSH1 0xC0 DUP2 ADD DUP5 MSTORE DUP2 SLOAD PUSH1 0x1 PUSH1 0x1 PUSH1 0xA0 SHL SUB SWAP1 DUP2 AND DUP3 MSTORE PUSH1 0x1 DUP4 ADD SLOAD AND SWAP5 DUP2 ADD SWAP5 SWAP1 SWAP5 MSTORE PUSH1 0x2 DUP2 ADD SLOAD SWAP3 DUP5 ADD SWAP3 SWAP1 SWAP3 MSTORE PUSH1 0x3 DUP3 ADD SLOAD PUSH1 0x60 DUP5 ADD MSTORE PUSH1 0x4 DUP3 ADD SLOAD PUSH1 0x80 DUP5 ADD MSTORE PUSH1 0x5 SWAP1 SWAP2 ADD SLOAD PUSH1 0xA0 DUP4 ADD MSTORE SWAP1 SWAP2 POP PUSH2 0xA99 PUSH1 0x64 DUP11 PUSH2 0x25F5 JUMP JUMPDEST DUP3 PUSH1 0x60 ADD MLOAD DUP4 PUSH1 0x40 ADD MLOAD PUSH2 0xAAD SWAP2 SWAP1 PUSH2 0x25F5 JUMP JUMPDEST PUSH2 0xAB7 SWAP2 SWAP1 PUSH2 0x25B6 JUMP JUMPDEST SWAP1 POP PUSH2 0xAC4 PUSH1 0x64 DUP3 PUSH2 0x25D6 JUMP JUMPDEST SWAP1 POP PUSH2 0xAFF DUP11 DUP3 DUP12 DUP12 DUP16 PUSH1 0xB DUP12 DUP2 SLOAD DUP2 LT PUSH2 0xAEF JUMPI PUSH4 0x4E487B71 PUSH1 0xE0 SHL PUSH1 0x0 MSTORE PUSH1 0x32 PUSH1 0x4 MSTORE PUSH1 0x24 PUSH1 0x0 REVERT JUMPDEST SWAP1 PUSH1 0x0 MSTORE PUSH1 0x20 PUSH1 0x0 KECCAK256 ADD SLOAD PUSH2 0x1C2B JUMP JUMPDEST SWAP3 POP POP POP PUSH2 0xB10 JUMP JUMPDEST POP POP POP PUSH2 0xB24 JUMP JUMPDEST PUSH2 0xB1A DUP2 DUP10 PUSH2 0x25F5 JUMP JUMPDEST SWAP8 POP POP POP POP PUSH2 0x900 JUMP JUMPDEST POP JUMPDEST POP POP POP POP POP POP JUMP JUMPDEST PUSH1 0x1 PUSH1 0x1 PUSH1 0xA0 SHL SUB DUP2 AND PUSH1 0x0 SWAP1 DUP2 MSTORE PUSH1 0xC PUSH1 0x20 SWAP1 DUP2 MSTORE PUSH1 0x40 SWAP2 DUP3 SWAP1 KECCAK256 DUP1 SLOAD DUP4 MLOAD DUP2 DUP5 MUL DUP2 ADD DUP5 ADD SWAP1 SWAP5 MSTORE DUP1 DUP5 MSTORE PUSH1 0x60 SWAP4 SWAP3 DUP4 ADD DUP3 DUP3 DUP1 ISZERO PUSH2 0xB8E JUMPI PUSH1 0x20 MUL DUP3 ADD SWAP2 SWAP1 PUSH1 0x0 MSTORE PUSH1 0x20 PUSH1 0x0 KECCAK256 SWAP1 JUMPDEST DUP2 SLOAD DUP2 MSTORE PUSH1 0x20 ADD SWAP1 PUSH1 0x1 ADD SWAP1 DUP1 DUP4 GT PUSH2 0xB7A JUMPI JUMPDEST POP POP POP POP POP SWAP1 POP SWAP2 SWAP1 POP JUMP JUMPDEST PUSH1 0x0 DUP2 DUP2 MSTORE PUSH1 0xD PUSH1 0x20 SWAP1 DUP2 MSTORE PUSH1 0x40 SWAP2 DUP3 SWAP1 KECCAK256 DUP3 MLOAD PUSH1 0xC0 DUP2 ADD DUP5 MSTORE DUP2 SLOAD PUSH1 0x1 PUSH1 0x1 PUSH1 0xA0 SHL SUB SWAP1 DUP2 AND DUP1 DUP4 MSTORE PUSH1 0x1 DUP5 ADD SLOAD SWAP1 SWAP2 AND SWAP4 DUP3 ADD SWAP4 SWAP1 SWAP4 MSTORE PUSH1 0x2 DUP3 ADD SLOAD SWAP4 DUP2 ADD SWAP4 SWAP1 SWAP4 MSTORE PUSH1 0x3 DUP2 ADD SLOAD PUSH1 0x60 DUP5 ADD MSTORE PUSH1 0x4 DUP2 ADD SLOAD PUSH1 0x80 DUP5 ADD MSTORE PUSH1 0x5 ADD SLOAD PUSH1 0xA0 DUP4 ADD MSTORE CALLER EQ PUSH2 0xC2F JUMPI PUSH1 0x40 MLOAD PUSH3 0x461BCD PUSH1 0xE5 SHL DUP2 MSTORE PUSH1 0x20 PUSH1 0x4 DUP3 ADD MSTORE PUSH1 0x2 PUSH1 0x24 DUP3 ADD MSTORE PUSH2 0x4D35 PUSH1 0xF0 SHL PUSH1 0x44 DUP3 ADD MSTORE PUSH1 0x64 ADD PUSH2 0x543 JUMP JUMPDEST PUSH1 0x0 DUP2 PUSH1 0x60 ADD MLOAD DUP3 PUSH1 0x40 ADD MLOAD PUSH2 0xC45 SWAP2 SWAP1 PUSH2 0x25F5 JUMP JUMPDEST DUP3 MLOAD PUSH1 0x1 PUSH1 0x1 PUSH1 0xA0 SHL SUB AND PUSH1 0x0 SWAP1 DUP2 MSTORE PUSH1 0xA PUSH1 0x20 MSTORE PUSH1 0x40 DUP2 KECCAK256 DUP1 SLOAD SWAP3 SWAP4 POP DUP4 SWAP3 SWAP1 SWAP2 SWAP1 PUSH2 0xC73 SWAP1 DUP5 SWAP1 PUSH2 0x259E JUMP JUMPDEST SWAP1 SWAP2 SSTORE POP POP PUSH1 0x40 DUP1 DUP4 ADD MLOAD PUSH1 0x0 DUP6 DUP2 MSTORE PUSH1 0xD PUSH1 0x20 SWAP1 DUP2 MSTORE DUP4 DUP3 KECCAK256 PUSH1 0x3 ADD SWAP3 SWAP1 SWAP3 SSTORE CALLER DUP2 MSTORE PUSH1 0xA SWAP1 SWAP2 MSTORE KECCAK256 SLOAD ISZERO PUSH2 0x495 JUMPI PUSH2 0x493 CALLER PUSH2 0xD24 JUMP JUMPDEST PUSH1 0x0 DUP2 DUP2 MSTORE PUSH1 0xD PUSH1 0x20 MSTORE PUSH1 0x40 SWAP1 KECCAK256 SLOAD PUSH1 0x1 PUSH1 0x1 PUSH1 0xA0 SHL SUB AND CALLER EQ PUSH2 0xCF7 JUMPI PUSH1 0x40 MLOAD PUSH3 0x461BCD PUSH1 0xE5 SHL DUP2 MSTORE PUSH1 0x20 PUSH1 0x4 DUP3 ADD MSTORE PUSH1 0x2 PUSH1 0x24 DUP3 ADD MSTORE PUSH2 0x269B PUSH1 0xF1 SHL PUSH1 0x44 DUP3 ADD MSTORE PUSH1 0x64 ADD PUSH2 0x543 JUMP JUMPDEST PUSH1 0x9 SLOAD ISZERO DUP1 PUSH2 0xD08 JUMPI POP PUSH1 0x9 SLOAD PUSH1 0x3 EQ JUMPDEST ISZERO PUSH2 0xD18 JUMPI PUSH2 0xD16 DUP2 PUSH2 0x1D79 JUMP JUMPDEST POP JUMPDEST PUSH2 0xD21 DUP2 PUSH2 0xB9A JUMP JUMPDEST POP JUMP JUMPDEST PUSH1 0x0 PUSH1 0x2 PUSH1 0x0 SLOAD EQ ISZERO PUSH2 0xD79 JUMPI PUSH1 0x40 MLOAD PUSH3 0x461BCD PUSH1 0xE5 SHL DUP2 MSTORE PUSH1 0x20 PUSH1 0x4 DUP3 ADD MSTORE PUSH1 0x1F PUSH1 0x24 DUP3 ADD MSTORE PUSH32 0x5265656E7472616E637947756172643A207265656E7472616E742063616C6C00 PUSH1 0x44 DUP3 ADD MSTORE PUSH1 0x64 ADD PUSH2 0x543 JUMP JUMPDEST PUSH1 0x2 PUSH1 0x0 SWAP1 DUP2 SSTORE PUSH1 0x1 PUSH1 0x1 PUSH1 0xA0 SHL SUB DUP4 DUP2 AND DUP3 MSTORE PUSH1 0xA PUSH1 0x20 MSTORE PUSH1 0x40 SWAP2 DUP3 SWAP1 KECCAK256 SLOAD SWAP2 MLOAD PUSH4 0x70A08231 PUSH1 0xE0 SHL DUP2 MSTORE ADDRESS PUSH1 0x4 DUP3 ADD MSTORE PUSH32 0x0 SWAP1 SWAP2 AND SWAP1 PUSH4 0x70A08231 SWAP1 PUSH1 0x24 ADD PUSH1 0x20 PUSH1 0x40 MLOAD DUP1 DUP4 SUB DUP2 DUP7 DUP1 EXTCODESIZE ISZERO DUP1 ISZERO PUSH2 0xDF1 JUMPI PUSH1 0x0 DUP1 REVERT JUMPDEST POP GAS STATICCALL ISZERO DUP1 ISZERO PUSH2 0xE05 JUMPI RETURNDATASIZE PUSH1 0x0 DUP1 RETURNDATACOPY RETURNDATASIZE PUSH1 0x0 REVERT JUMPDEST POP POP POP POP PUSH1 0x40 MLOAD RETURNDATASIZE PUSH1 0x1F NOT PUSH1 0x1F DUP3 ADD AND DUP3 ADD DUP1 PUSH1 0x40 MSTORE POP DUP2 ADD SWAP1 PUSH2 0xE29 SWAP2 SWAP1 PUSH2 0x2526 JUMP JUMPDEST LT ISZERO DUP1 ISZERO PUSH2 0xE4E JUMPI POP PUSH1 0x1 PUSH1 0x1 PUSH1 0xA0 SHL SUB DUP3 AND PUSH1 0x0 SWAP1 DUP2 MSTORE PUSH1 0xA PUSH1 0x20 MSTORE PUSH1 0x40 SWAP1 KECCAK256 SLOAD ISZERO ISZERO JUMPDEST PUSH2 0xE7F JUMPI PUSH1 0x40 MLOAD PUSH3 0x461BCD PUSH1 0xE5 SHL DUP2 MSTORE PUSH1 0x20 PUSH1 0x4 DUP3 ADD MSTORE PUSH1 0x2 PUSH1 0x24 DUP3 ADD MSTORE PUSH2 0x4D33 PUSH1 0xF0 SHL PUSH1 0x44 DUP3 ADD MSTORE PUSH1 0x64 ADD PUSH2 0x543 JUMP JUMPDEST PUSH1 0x1 PUSH1 0x1 PUSH1 0xA0 SHL SUB DUP3 DUP2 AND PUSH1 0x0 DUP2 DUP2 MSTORE PUSH1 0xA PUSH1 0x20 MSTORE PUSH1 0x40 DUP1 DUP3 KECCAK256 DUP1 SLOAD SWAP1 DUP4 SWAP1 SSTORE SWAP1 MLOAD PUSH4 0xA9059CBB PUSH1 0xE0 SHL DUP2 MSTORE PUSH1 0x4 DUP2 ADD SWAP4 SWAP1 SWAP4 MSTORE PUSH1 0x24 DUP4 ADD DUP2 SWAP1 MSTORE SWAP3 SWAP1 SWAP2 PUSH32 0x0 SWAP1 SWAP2 AND SWAP1 PUSH4 0xA9059CBB SWAP1 PUSH1 0x44 ADD PUSH1 0x20 PUSH1 0x40 MLOAD DUP1 DUP4 SUB DUP2 PUSH1 0x0 DUP8 DUP1 EXTCODESIZE ISZERO DUP1 ISZERO PUSH2 0xF05 JUMPI PUSH1 0x0 DUP1 REVERT JUMPDEST POP GAS CALL ISZERO DUP1 ISZERO PUSH2 0xF19 JUMPI RETURNDATASIZE PUSH1 0x0 DUP1 RETURNDATACOPY RETURNDATASIZE PUSH1 0x0 REVERT JUMPDEST POP POP POP POP PUSH1 0x40 MLOAD RETURNDATASIZE PUSH1 0x1F NOT PUSH1 0x1F DUP3 ADD AND DUP3 ADD DUP1 PUSH1 0x40 MSTORE POP DUP2 ADD SWAP1 PUSH2 0xF3D SWAP2 SWAP1 PUSH2 0x24F2 JUMP JUMPDEST SWAP1 POP DUP1 PUSH2 0xF71 JUMPI PUSH1 0x40 MLOAD PUSH3 0x461BCD PUSH1 0xE5 SHL DUP2 MSTORE PUSH1 0x20 PUSH1 0x4 DUP3 ADD MSTORE PUSH1 0x2 PUSH1 0x24 DUP3 ADD MSTORE PUSH2 0x134D PUSH1 0xF2 SHL PUSH1 0x44 DUP3 ADD MSTORE PUSH1 0x64 ADD PUSH2 0x543 JUMP JUMPDEST PUSH1 0x40 DUP1 MLOAD PUSH1 0x1 PUSH1 0x1 PUSH1 0xA0 SHL SUB DUP7 AND DUP2 MSTORE PUSH1 0x20 DUP2 ADD DUP5 SWAP1 MSTORE PUSH32 0x884EDAD9CE6FA2440D8A54CC123490EB96D2768479D49FF9C7366125A9424364 SWAP2 ADD PUSH1 0x40 MLOAD DUP1 SWAP2 SUB SWAP1 LOG1 PUSH1 0x1 SWAP3 POP POP POP JUMPDEST PUSH1 0x1 PUSH1 0x0 SSTORE SWAP2 SWAP1 POP JUMP JUMPDEST PUSH1 0x0 DUP2 DUP2 MSTORE PUSH1 0xF PUSH1 0x20 SWAP1 DUP2 MSTORE PUSH1 0x40 SWAP2 DUP3 SWAP1 KECCAK256 DUP1 SLOAD DUP4 MLOAD DUP2 DUP5 MUL DUP2 ADD DUP5 ADD SWAP1 SWAP5 MSTORE DUP1 DUP5 MSTORE PUSH1 0x60 SWAP4 SWAP3 DUP4 ADD DUP3 DUP3 DUP1 ISZERO PUSH2 0xB8E JUMPI PUSH1 0x20 MUL DUP3 ADD SWAP2 SWAP1 PUSH1 0x0 MSTORE PUSH1 0x20 PUSH1 0x0 KECCAK256 SWAP1 DUP2 SLOAD DUP2 MSTORE PUSH1 0x20 ADD SWAP1 PUSH1 0x1 ADD SWAP1 DUP1 DUP4 GT PUSH2 0xB7A JUMPI POP POP POP POP POP SWAP1 POP SWAP2 SWAP1 POP JUMP JUMPDEST PUSH1 0x0 CALLER PUSH1 0x1 PUSH1 0x1 PUSH1 0xA0 SHL SUB PUSH32 0x0 AND EQ DUP1 PUSH2 0x10FE JUMPI POP PUSH32 0x0 PUSH1 0x1 PUSH1 0x1 PUSH1 0xA0 SHL SUB AND PUSH4 0x8DA5CB5B PUSH1 0x40 MLOAD DUP2 PUSH4 0xFFFFFFFF AND PUSH1 0xE0 SHL DUP2 MSTORE PUSH1 0x4 ADD PUSH1 0x20 PUSH1 0x40 MLOAD DUP1 DUP4 SUB DUP2 DUP7 DUP1 EXTCODESIZE ISZERO DUP1 ISZERO PUSH2 0x10B1 JUMPI PUSH1 0x0 DUP1 REVERT JUMPDEST POP GAS STATICCALL ISZERO DUP1 ISZERO PUSH2 0x10C5 JUMPI RETURNDATASIZE PUSH1 0x0 DUP1 RETURNDATACOPY RETURNDATASIZE PUSH1 0x0 REVERT JUMPDEST POP POP POP POP PUSH1 0x40 MLOAD RETURNDATASIZE PUSH1 0x1F NOT PUSH1 0x1F DUP3 ADD AND DUP3 ADD DUP1 PUSH1 0x40 MSTORE POP DUP2 ADD SWAP1 PUSH2 0x10E9 SWAP2 SWAP1 PUSH2 0x2479 JUMP JUMPDEST PUSH1 0x1 PUSH1 0x1 PUSH1 0xA0 SHL SUB AND CALLER PUSH1 0x1 PUSH1 0x1 PUSH1 0xA0 SHL SUB AND EQ JUMPDEST PUSH2 0x111A JUMPI PUSH1 0x40 MLOAD PUSH3 0x461BCD PUSH1 0xE5 SHL DUP2 MSTORE PUSH1 0x4 ADD PUSH2 0x543 SWAP1 PUSH2 0x2582 JUMP JUMPDEST PUSH1 0x9 SLOAD PUSH2 0x112C JUMPI POP PUSH1 0x4 PUSH1 0x9 SSTORE PUSH1 0x1 SWAP1 JUMP JUMPDEST POP PUSH1 0x0 SWAP1 JUMP JUMPDEST PUSH1 0x60 PUSH1 0xE DUP1 SLOAD DUP1 PUSH1 0x20 MUL PUSH1 0x20 ADD PUSH1 0x40 MLOAD SWAP1 DUP2 ADD PUSH1 0x40 MSTORE DUP1 SWAP3 SWAP2 SWAP1 DUP2 DUP2 MSTORE PUSH1 0x20 ADD DUP3 DUP1 SLOAD DUP1 ISZERO PUSH2 0x1180 JUMPI PUSH1 0x20 MUL DUP3 ADD SWAP2 SWAP1 PUSH1 0x0 MSTORE PUSH1 0x20 PUSH1 0x0 KECCAK256 SWAP1 JUMPDEST DUP2 SLOAD DUP2 MSTORE PUSH1 0x20 ADD SWAP1 PUSH1 0x1 ADD SWAP1 DUP1 DUP4 GT PUSH2 0x116C JUMPI JUMPDEST POP POP POP POP POP SWAP1 POP SWAP1 JUMP JUMPDEST PUSH1 0x0 CALLER PUSH1 0x1 PUSH1 0x1 PUSH1 0xA0 SHL SUB PUSH32 0x0 AND EQ DUP1 PUSH2 0x1264 JUMPI POP PUSH32 0x0 PUSH1 0x1 PUSH1 0x1 PUSH1 0xA0 SHL SUB AND PUSH4 0x8DA5CB5B PUSH1 0x40 MLOAD DUP2 PUSH4 0xFFFFFFFF AND PUSH1 0xE0 SHL DUP2 MSTORE PUSH1 0x4 ADD PUSH1 0x20 PUSH1 0x40 MLOAD DUP1 DUP4 SUB DUP2 DUP7 DUP1 EXTCODESIZE ISZERO DUP1 ISZERO PUSH2 0x1217 JUMPI PUSH1 0x0 DUP1 REVERT JUMPDEST POP GAS STATICCALL ISZERO DUP1 ISZERO PUSH2 0x122B JUMPI RETURNDATASIZE PUSH1 0x0 DUP1 RETURNDATACOPY RETURNDATASIZE PUSH1 0x0 REVERT JUMPDEST POP POP POP POP PUSH1 0x40 MLOAD RETURNDATASIZE PUSH1 0x1F NOT PUSH1 0x1F DUP3 ADD AND DUP3 ADD DUP1 PUSH1 0x40 MSTORE POP DUP2 ADD SWAP1 PUSH2 0x124F SWAP2 SWAP1 PUSH2 0x2479 JUMP JUMPDEST PUSH1 0x1 PUSH1 0x1 PUSH1 0xA0 SHL SUB AND CALLER PUSH1 0x1 PUSH1 0x1 PUSH1 0xA0 SHL SUB AND EQ JUMPDEST PUSH2 0x1280 JUMPI PUSH1 0x40 MLOAD PUSH3 0x461BCD PUSH1 0xE5 SHL DUP2 MSTORE PUSH1 0x4 ADD PUSH2 0x543 SWAP1 PUSH2 0x2582 JUMP JUMPDEST PUSH2 0x1289 DUP3 PUSH2 0x1541 JUMP JUMPDEST ISZERO PUSH2 0x12ED JUMPI PUSH1 0xE SLOAD PUSH1 0x0 JUMPDEST DUP2 DUP2 LT ISZERO PUSH2 0x12E3 JUMPI PUSH2 0x12D0 PUSH1 0xE DUP3 DUP2 SLOAD DUP2 LT PUSH2 0x12C0 JUMPI PUSH4 0x4E487B71 PUSH1 0xE0 SHL PUSH1 0x0 MSTORE PUSH1 0x32 PUSH1 0x4 MSTORE PUSH1 0x24 PUSH1 0x0 REVERT JUMPDEST SWAP1 PUSH1 0x0 MSTORE PUSH1 0x20 PUSH1 0x0 KECCAK256 ADD SLOAD PUSH2 0x179D JUMP JUMPDEST POP DUP1 PUSH2 0x12DB DUP2 PUSH2 0x260C JUMP JUMPDEST SWAP2 POP POP PUSH2 0x1294 JUMP JUMPDEST POP PUSH1 0x1 SWAP4 SWAP3 POP POP POP JUMP JUMPDEST POP PUSH1 0x0 SWAP2 SWAP1 POP JUMP JUMPDEST PUSH1 0x60 PUSH1 0xB DUP1 SLOAD DUP1 PUSH1 0x20 MUL PUSH1 0x20 ADD PUSH1 0x40 MLOAD SWAP1 DUP2 ADD PUSH1 0x40 MSTORE DUP1 SWAP3 SWAP2 SWAP1 DUP2 DUP2 MSTORE PUSH1 0x20 ADD DUP3 DUP1 SLOAD DUP1 ISZERO PUSH2 0x1180 JUMPI PUSH1 0x20 MUL DUP3 ADD SWAP2 SWAP1 PUSH1 0x0 MSTORE PUSH1 0x20 PUSH1 0x0 KECCAK256 SWAP1 DUP2 SLOAD DUP2 MSTORE PUSH1 0x20 ADD SWAP1 PUSH1 0x1 ADD SWAP1 DUP1 DUP4 GT PUSH2 0x116C JUMPI POP POP POP POP POP SWAP1 POP SWAP1 JUMP JUMPDEST PUSH1 0x0 CALLER PUSH1 0x1 PUSH1 0x1 PUSH1 0xA0 SHL SUB PUSH32 0x0 AND EQ DUP1 PUSH2 0x1425 JUMPI POP PUSH32 0x0 PUSH1 0x1 PUSH1 0x1 PUSH1 0xA0 SHL SUB AND PUSH4 0x8DA5CB5B PUSH1 0x40 MLOAD DUP2 PUSH4 0xFFFFFFFF AND PUSH1 0xE0 SHL DUP2 MSTORE PUSH1 0x4 ADD PUSH1 0x20 PUSH1 0x40 MLOAD DUP1 DUP4 SUB DUP2 DUP7 DUP1 EXTCODESIZE ISZERO DUP1 ISZERO PUSH2 0x13D8 JUMPI PUSH1 0x0 DUP1 REVERT JUMPDEST POP GAS STATICCALL ISZERO DUP1 ISZERO PUSH2 0x13EC JUMPI RETURNDATASIZE PUSH1 0x0 DUP1 RETURNDATACOPY RETURNDATASIZE PUSH1 0x0 REVERT JUMPDEST POP POP POP POP PUSH1 0x40 MLOAD RETURNDATASIZE PUSH1 0x1F NOT PUSH1 0x1F DUP3 ADD AND DUP3 ADD DUP1 PUSH1 0x40 MSTORE POP DUP2 ADD SWAP1 PUSH2 0x1410 SWAP2 SWAP1 PUSH2 0x2479 JUMP JUMPDEST PUSH1 0x1 PUSH1 0x1 PUSH1 0xA0 SHL SUB AND CALLER PUSH1 0x1 PUSH1 0x1 PUSH1 0xA0 SHL SUB AND EQ JUMPDEST PUSH2 0x1441 JUMPI PUSH1 0x40 MLOAD PUSH3 0x461BCD PUSH1 0xE5 SHL DUP2 MSTORE PUSH1 0x4 ADD PUSH2 0x543 SWAP1 PUSH2 0x2582 JUMP JUMPDEST PUSH1 0x9 SLOAD ISZERO DUP1 PUSH2 0x1452 JUMPI POP PUSH1 0x9 SLOAD PUSH1 0x4 EQ JUMPDEST ISZERO PUSH2 0x112C JUMPI PUSH1 0xE SLOAD PUSH1 0x0 JUMPDEST DUP2 DUP2 LT ISZERO PUSH2 0x14AC JUMPI PUSH2 0x1499 PUSH1 0xE DUP3 DUP2 SLOAD DUP2 LT PUSH2 0x1489 JUMPI PUSH4 0x4E487B71 PUSH1 0xE0 SHL PUSH1 0x0 MSTORE PUSH1 0x32 PUSH1 0x4 MSTORE PUSH1 0x24 PUSH1 0x0 REVERT JUMPDEST SWAP1 PUSH1 0x0 MSTORE PUSH1 0x20 PUSH1 0x0 KECCAK256 ADD SLOAD PUSH2 0x223C JUMP JUMPDEST POP DUP1 PUSH2 0x14A4 DUP2 PUSH2 0x260C JUMP JUMPDEST SWAP2 POP POP PUSH2 0x145D JUMP JUMPDEST POP POP PUSH1 0x3 PUSH1 0x9 SSTORE POP PUSH1 0x1 SWAP1 JUMP JUMPDEST PUSH2 0x14ED PUSH1 0x40 MLOAD DUP1 PUSH1 0xA0 ADD PUSH1 0x40 MSTORE DUP1 PUSH1 0x0 DUP2 MSTORE PUSH1 0x20 ADD PUSH1 0x0 DUP2 MSTORE PUSH1 0x20 ADD PUSH1 0x0 DUP2 MSTORE PUSH1 0x20 ADD PUSH1 0x0 DUP2 MSTORE PUSH1 0x20 ADD PUSH1 0x0 ISZERO ISZERO DUP2 MSTORE POP SWAP1 JUMP JUMPDEST POP PUSH1 0x0 SWAP1 DUP2 MSTORE PUSH1 0x10 PUSH1 0x20 SWAP1 DUP2 MSTORE PUSH1 0x40 SWAP2 DUP3 SWAP1 KECCAK256 DUP3 MLOAD PUSH1 0xA0 DUP2 ADD DUP5 MSTORE DUP2 SLOAD DUP2 MSTORE PUSH1 0x1 DUP3 ADD SLOAD SWAP3 DUP2 ADD SWAP3 SWAP1 SWAP3 MSTORE PUSH1 0x2 DUP2 ADD SLOAD SWAP3 DUP3 ADD SWAP3 SWAP1 SWAP3 MSTORE PUSH1 0x3 DUP3 ADD SLOAD PUSH1 0x60 DUP3 ADD MSTORE PUSH1 0x4 SWAP1 SWAP2 ADD SLOAD PUSH1 0xFF AND ISZERO ISZERO PUSH1 0x80 DUP3 ADD MSTORE SWAP1 JUMP JUMPDEST PUSH1 0x0 CALLER PUSH1 0x1 PUSH1 0x1 PUSH1 0xA0 SHL SUB PUSH32 0x0 AND EQ DUP1 PUSH2 0x161B JUMPI POP PUSH32 0x0 PUSH1 0x1 PUSH1 0x1 PUSH1 0xA0 SHL SUB AND PUSH4 0x8DA5CB5B PUSH1 0x40 MLOAD DUP2 PUSH4 0xFFFFFFFF AND PUSH1 0xE0 SHL DUP2 MSTORE PUSH1 0x4 ADD PUSH1 0x20 PUSH1 0x40 MLOAD DUP1 DUP4 SUB DUP2 DUP7 DUP1 EXTCODESIZE ISZERO DUP1 ISZERO PUSH2 0x15CE JUMPI PUSH1 0x0 DUP1 REVERT JUMPDEST POP GAS STATICCALL ISZERO DUP1 ISZERO PUSH2 0x15E2 JUMPI RETURNDATASIZE PUSH1 0x0 DUP1 RETURNDATACOPY RETURNDATASIZE PUSH1 0x0 REVERT JUMPDEST POP POP POP POP PUSH1 0x40 MLOAD RETURNDATASIZE PUSH1 0x1F NOT PUSH1 0x1F DUP3 ADD AND DUP3 ADD DUP1 PUSH1 0x40 MSTORE POP DUP2 ADD SWAP1 PUSH2 0x1606 SWAP2 SWAP1 PUSH2 0x2479 JUMP JUMPDEST PUSH1 0x1 PUSH1 0x1 PUSH1 0xA0 SHL SUB AND CALLER PUSH1 0x1 PUSH1 0x1 PUSH1 0xA0 SHL SUB AND EQ JUMPDEST PUSH2 0x1637 JUMPI PUSH1 0x40 MLOAD PUSH3 0x461BCD PUSH1 0xE5 SHL DUP2 MSTORE PUSH1 0x4 ADD PUSH2 0x543 SWAP1 PUSH2 0x2582 JUMP JUMPDEST PUSH1 0x9 SLOAD ISZERO DUP1 PUSH2 0x1648 JUMPI POP PUSH1 0x9 SLOAD PUSH1 0x1 EQ JUMPDEST DUP1 PUSH2 0x1655 JUMPI POP PUSH1 0x9 SLOAD PUSH1 0x2 EQ JUMPDEST DUP1 PUSH2 0x1662 JUMPI POP PUSH1 0x9 SLOAD PUSH1 0x4 EQ JUMPDEST DUP1 ISZERO PUSH2 0x1678 JUMPI POP DUP2 PUSH1 0x1 EQ DUP1 PUSH2 0x1678 JUMPI POP DUP2 PUSH1 0x2 EQ JUMPDEST ISZERO PUSH2 0x12ED JUMPI POP PUSH1 0x9 SSTORE PUSH1 0x1 SWAP1 JUMP JUMPDEST PUSH1 0x0 CALLER PUSH1 0x1 PUSH1 0x1 PUSH1 0xA0 SHL SUB PUSH32 0x0 AND EQ DUP1 PUSH2 0x1760 JUMPI POP PUSH32 0x0 PUSH1 0x1 PUSH1 0x1 PUSH1 0xA0 SHL SUB AND PUSH4 0x8DA5CB5B PUSH1 0x40 MLOAD DUP2 PUSH4 0xFFFFFFFF AND PUSH1 0xE0 SHL DUP2 MSTORE PUSH1 0x4 ADD PUSH1 0x20 PUSH1 0x40 MLOAD DUP1 DUP4 SUB DUP2 DUP7 DUP1 EXTCODESIZE ISZERO DUP1 ISZERO PUSH2 0x1713 JUMPI PUSH1 0x0 DUP1 REVERT JUMPDEST POP GAS STATICCALL ISZERO DUP1 ISZERO PUSH2 0x1727 JUMPI RETURNDATASIZE PUSH1 0x0 DUP1 RETURNDATACOPY RETURNDATASIZE PUSH1 0x0 REVERT JUMPDEST POP POP POP POP PUSH1 0x40 MLOAD RETURNDATASIZE PUSH1 0x1F NOT PUSH1 0x1F DUP3 ADD AND DUP3 ADD DUP1 PUSH1 0x40 MSTORE POP DUP2 ADD SWAP1 PUSH2 0x174B SWAP2 SWAP1 PUSH2 0x2479 JUMP JUMPDEST PUSH1 0x1 PUSH1 0x1 PUSH1 0xA0 SHL SUB AND CALLER PUSH1 0x1 PUSH1 0x1 PUSH1 0xA0 SHL SUB AND EQ JUMPDEST PUSH2 0x177C JUMPI PUSH1 0x40 MLOAD PUSH3 0x461BCD PUSH1 0xE5 SHL DUP2 MSTORE PUSH1 0x4 ADD PUSH2 0x543 SWAP1 PUSH2 0x2582 JUMP JUMPDEST PUSH1 0x9 SLOAD ISZERO DUP1 PUSH2 0x178D JUMPI POP PUSH1 0x9 SLOAD PUSH1 0x4 EQ JUMPDEST ISZERO PUSH2 0x112C JUMPI POP PUSH1 0x3 PUSH1 0x9 SSTORE PUSH1 0x1 SWAP1 JUMP JUMPDEST PUSH1 0x0 PUSH1 0x2 PUSH1 0x0 SLOAD EQ ISZERO PUSH2 0x17F2 JUMPI PUSH1 0x40 MLOAD PUSH3 0x461BCD PUSH1 0xE5 SHL DUP2 MSTORE PUSH1 0x20 PUSH1 0x4 DUP3 ADD MSTORE PUSH1 0x1F PUSH1 0x24 DUP3 ADD MSTORE PUSH32 0x5265656E7472616E637947756172643A207265656E7472616E742063616C6C00 PUSH1 0x44 DUP3 ADD MSTORE PUSH1 0x64 ADD PUSH2 0x543 JUMP JUMPDEST PUSH1 0x2 PUSH1 0x0 SWAP1 DUP2 SSTORE DUP3 DUP2 MSTORE PUSH1 0x10 PUSH1 0x20 MSTORE PUSH1 0x40 SWAP1 KECCAK256 PUSH1 0x4 ADD SLOAD PUSH1 0xFF AND ISZERO PUSH2 0x1819 JUMPI POP PUSH1 0x0 PUSH2 0xFBA JUMP JUMPDEST PUSH1 0x0 DUP1 PUSH1 0x0 DUP1 PUSH1 0x9 SLOAD PUSH1 0x1 EQ ISZERO PUSH2 0x1905 JUMPI PUSH1 0x0 DUP7 DUP2 MSTORE PUSH1 0x10 PUSH1 0x20 SWAP1 DUP2 MSTORE PUSH1 0x40 DUP1 DUP4 KECCAK256 SLOAD DUP4 MSTORE PUSH1 0xD SWAP1 SWAP2 MSTORE SWAP1 KECCAK256 SLOAD PUSH1 0x5 SLOAD PUSH1 0x1 PUSH1 0x1 PUSH1 0xA0 SHL SUB SWAP1 SWAP2 AND SWAP5 POP PUSH1 0x64 SWAP1 PUSH2 0x1863 SWAP1 DUP3 PUSH2 0x25F5 JUMP JUMPDEST PUSH1 0x0 DUP9 DUP2 MSTORE PUSH1 0x10 PUSH1 0x20 MSTORE PUSH1 0x40 SWAP1 KECCAK256 PUSH1 0x3 ADD SLOAD PUSH2 0x187F SWAP2 SWAP1 PUSH2 0x25D6 JUMP JUMPDEST PUSH2 0x1889 SWAP2 SWAP1 PUSH2 0x25B6 JUMP JUMPDEST PUSH1 0x0 DUP8 DUP2 MSTORE PUSH1 0x10 PUSH1 0x20 MSTORE PUSH1 0x40 SWAP1 KECCAK256 PUSH1 0x2 ADD SLOAD PUSH2 0x18A5 SWAP2 SWAP1 PUSH2 0x259E JUMP JUMPDEST PUSH1 0x5 SLOAD PUSH1 0x0 DUP9 DUP2 MSTORE PUSH1 0x10 PUSH1 0x20 MSTORE PUSH1 0x40 SWAP1 KECCAK256 PUSH1 0x3 ADD SLOAD SWAP2 SWAP4 POP PUSH1 0x64 SWAP2 PUSH2 0x18CA SWAP2 SWAP1 PUSH2 0x25D6 JUMP JUMPDEST PUSH2 0x18D4 SWAP2 SWAP1 PUSH2 0x25B6 JUMP JUMPDEST PUSH1 0x0 DUP8 DUP2 MSTORE PUSH1 0x10 PUSH1 0x20 SWAP1 DUP2 MSTORE PUSH1 0x40 DUP1 DUP4 KECCAK256 SLOAD DUP4 MSTORE PUSH1 0xD SWAP1 SWAP2 MSTORE SWAP1 KECCAK256 PUSH1 0x1 ADD SLOAD PUSH1 0x1 PUSH1 0x1 PUSH1 0xA0 SHL SUB AND SWAP4 POP SWAP1 POP PUSH2 0x19FF JUMP JUMPDEST PUSH1 0x9 SLOAD PUSH1 0x2 EQ ISZERO PUSH2 0x19F2 JUMPI PUSH1 0x0 DUP7 DUP2 MSTORE PUSH1 0x10 PUSH1 0x20 SWAP1 DUP2 MSTORE PUSH1 0x40 DUP1 DUP4 KECCAK256 PUSH1 0x1 ADD SLOAD DUP4 MSTORE PUSH1 0xD SWAP1 SWAP2 MSTORE SWAP1 KECCAK256 SLOAD PUSH1 0x5 SLOAD PUSH1 0x1 PUSH1 0x1 PUSH1 0xA0 SHL SUB SWAP1 SWAP2 AND SWAP5 POP PUSH1 0x64 SWAP1 PUSH2 0x194C SWAP1 DUP3 PUSH2 0x25F5 JUMP JUMPDEST PUSH1 0x0 DUP9 DUP2 MSTORE PUSH1 0x10 PUSH1 0x20 MSTORE PUSH1 0x40 SWAP1 KECCAK256 PUSH1 0x2 ADD SLOAD PUSH2 0x1968 SWAP2 SWAP1 PUSH2 0x25D6 JUMP JUMPDEST PUSH2 0x1972 SWAP2 SWAP1 PUSH2 0x25B6 JUMP JUMPDEST PUSH1 0x0 DUP8 DUP2 MSTORE PUSH1 0x10 PUSH1 0x20 MSTORE PUSH1 0x40 SWAP1 KECCAK256 PUSH1 0x3 ADD SLOAD PUSH2 0x198E SWAP2 SWAP1 PUSH2 0x259E JUMP JUMPDEST PUSH1 0x5 SLOAD PUSH1 0x0 DUP9 DUP2 MSTORE PUSH1 0x10 PUSH1 0x20 MSTORE PUSH1 0x40 SWAP1 KECCAK256 PUSH1 0x2 ADD SLOAD SWAP2 SWAP4 POP PUSH1 0x64 SWAP2 PUSH2 0x19B3 SWAP2 SWAP1 PUSH2 0x25D6 JUMP JUMPDEST PUSH2 0x19BD SWAP2 SWAP1 PUSH2 0x25B6 JUMP JUMPDEST PUSH1 0x0 DUP8 DUP2 MSTORE PUSH1 0x10 PUSH1 0x20 SWAP1 DUP2 MSTORE PUSH1 0x40 DUP1 DUP4 KECCAK256 PUSH1 0x1 SWAP1 DUP2 ADD SLOAD DUP5 MSTORE PUSH1 0xD SWAP1 SWAP3 MSTORE SWAP1 SWAP2 KECCAK256 ADD SLOAD PUSH1 0x1 PUSH1 0x1 PUSH1 0xA0 SHL SUB AND SWAP4 POP SWAP1 POP PUSH2 0x19FF JUMP JUMPDEST PUSH1 0x0 SWAP5 POP POP POP POP POP PUSH2 0xFBA JUMP JUMPDEST PUSH1 0x1 PUSH1 0x1 PUSH1 0xA0 SHL SUB DUP5 AND PUSH1 0x0 SWAP1 DUP2 MSTORE PUSH1 0xA PUSH1 0x20 MSTORE PUSH1 0x40 DUP2 KECCAK256 DUP1 SLOAD DUP5 SWAP3 SWAP1 PUSH2 0x1A27 SWAP1 DUP5 SWAP1 PUSH2 0x259E JUMP JUMPDEST SWAP1 SWAP2 SSTORE POP POP PUSH1 0x8 SLOAD PUSH1 0x64 SWAP1 PUSH2 0x1A3C SWAP1 DUP4 PUSH2 0x25D6 JUMP JUMPDEST PUSH2 0x1A46 SWAP2 SWAP1 PUSH2 0x25B6 JUMP JUMPDEST PUSH1 0x2 SLOAD PUSH1 0x1 PUSH1 0x1 PUSH1 0xA0 SHL SUB AND PUSH1 0x0 SWAP1 DUP2 MSTORE PUSH1 0xA PUSH1 0x20 MSTORE PUSH1 0x40 DUP2 KECCAK256 DUP1 SLOAD SWAP1 SWAP2 SWAP1 PUSH2 0x1A70 SWAP1 DUP5 SWAP1 PUSH2 0x259E JUMP JUMPDEST SWAP1 SWAP2 SSTORE POP POP PUSH1 0x7 SLOAD PUSH1 0x64 SWAP1 PUSH2 0x1A85 SWAP1 DUP4 PUSH2 0x25D6 JUMP JUMPDEST PUSH2 0x1A8F SWAP2 SWAP1 PUSH2 0x25B6 JUMP JUMPDEST PUSH1 0x3 SLOAD PUSH1 0x1 PUSH1 0x1 PUSH1 0xA0 SHL SUB AND PUSH1 0x0 SWAP1 DUP2 MSTORE PUSH1 0xA PUSH1 0x20 MSTORE PUSH1 0x40 DUP2 KECCAK256 DUP1 SLOAD SWAP1 SWAP2 SWAP1 PUSH2 0x1AB9 SWAP1 DUP5 SWAP1 PUSH2 0x259E JUMP JUMPDEST SWAP1 SWAP2 SSTORE POP POP PUSH1 0x6 SLOAD PUSH1 0x64 SWAP1 PUSH2 0x1ACE SWAP1 DUP4 PUSH2 0x25D6 JUMP JUMPDEST PUSH2 0x1AD8 SWAP2 SWAP1 PUSH2 0x25B6 JUMP JUMPDEST PUSH1 0x1 PUSH1 0x1 PUSH1 0xA0 SHL SUB DUP5 AND PUSH1 0x0 SWAP1 DUP2 MSTORE PUSH1 0xA PUSH1 0x20 MSTORE PUSH1 0x40 DUP2 KECCAK256 DUP1 SLOAD SWAP1 SWAP2 SWAP1 PUSH2 0x1B00 SWAP1 DUP5 SWAP1 PUSH2 0x259E JUMP JUMPDEST SWAP1 SWAP2 SSTORE POP POP POP PUSH1 0x0 SWAP5 DUP6 MSTORE POP POP PUSH1 0x10 PUSH1 0x20 MSTORE POP POP PUSH1 0x40 DUP2 KECCAK256 PUSH1 0x4 ADD DUP1 SLOAD PUSH1 0xFF NOT AND PUSH1 0x1 SWAP1 DUP2 OR SWAP1 SWAP2 SSTORE SWAP1 DUP2 SWAP1 SSTORE SWAP1 JUMP JUMPDEST PUSH1 0x1 PUSH1 0x1 PUSH1 0xA0 SHL SUB DUP7 AND PUSH2 0x1B4D JUMPI PUSH1 0x3 SLOAD PUSH1 0x1 PUSH1 0x1 PUSH1 0xA0 SHL SUB AND SWAP6 POP JUMPDEST PUSH1 0x40 DUP1 MLOAD PUSH1 0xC0 DUP2 ADD DUP3 MSTORE PUSH1 0x1 PUSH1 0x1 PUSH1 0xA0 SHL SUB SWAP9 DUP10 AND DUP1 DUP3 MSTORE SWAP8 DUP10 AND PUSH1 0x20 DUP1 DUP4 ADD SWAP2 DUP3 MSTORE DUP3 DUP5 ADD SWAP8 DUP9 MSTORE PUSH1 0x60 DUP4 ADD SWAP7 DUP8 MSTORE PUSH1 0x80 DUP4 ADD SWAP6 DUP7 MSTORE PUSH1 0xA0 DUP4 ADD SWAP5 DUP6 MSTORE PUSH1 0x0 DUP10 DUP2 MSTORE PUSH1 0xD DUP3 MSTORE DUP5 DUP2 KECCAK256 SWAP4 MLOAD DUP5 SLOAD SWAP1 DUP14 AND PUSH1 0x1 PUSH1 0x1 PUSH1 0xA0 SHL SUB NOT SWAP2 DUP3 AND OR DUP6 SSTORE SWAP3 MLOAD PUSH1 0x1 DUP1 DUP7 ADD DUP1 SLOAD SWAP3 SWAP1 SWAP15 AND SWAP2 SWAP1 SWAP5 AND OR SWAP1 SWAP12 SSTORE SWAP7 MLOAD PUSH1 0x2 DUP4 ADD SSTORE SWAP5 MLOAD PUSH1 0x3 DUP3 ADD SSTORE SWAP3 MLOAD PUSH1 0x4 DUP5 ADD SSTORE SWAP1 MLOAD PUSH1 0x5 SWAP1 SWAP3 ADD SWAP2 SWAP1 SWAP2 SSTORE PUSH1 0xB DUP1 SLOAD DUP1 DUP5 ADD SWAP1 SWAP2 SSTORE PUSH32 0x175B7A638427703F0DBE7BB9BBF987A2551717B34E79F33B5B1008D1FA01DB9 ADD DUP5 SWAP1 SSTORE SWAP4 DUP6 MSTORE PUSH1 0xC DUP3 MSTORE SWAP3 DUP5 KECCAK256 DUP1 SLOAD SWAP4 DUP5 ADD DUP2 SSTORE DUP5 MSTORE SWAP1 SWAP3 KECCAK256 ADD SSTORE JUMP JUMPDEST PUSH1 0x0 DUP1 PUSH1 0x0 DUP1 DUP10 DUP10 GT PUSH2 0x1C95 JUMPI DUP9 SWAP3 POP PUSH2 0x1C46 PUSH1 0x64 DUP10 PUSH2 0x25F5 JUMP JUMPDEST PUSH2 0x1C50 SWAP1 DUP11 PUSH2 0x25D6 JUMP JUMPDEST SWAP2 POP PUSH2 0x1C5D PUSH1 0x64 DUP4 PUSH2 0x25B6 JUMP JUMPDEST SWAP2 POP DUP7 PUSH1 0x1 EQ ISZERO PUSH2 0x1C7B JUMPI PUSH2 0x1C74 DUP7 DUP7 DUP6 DUP6 PUSH2 0x231E JUMP JUMPDEST SWAP1 POP PUSH2 0x1CE9 JUMP JUMPDEST DUP7 PUSH1 0x2 EQ ISZERO PUSH2 0x1C90 JUMPI PUSH2 0x1C74 DUP6 DUP8 DUP5 DUP7 PUSH2 0x231E JUMP JUMPDEST PUSH2 0x1CE9 JUMP JUMPDEST DUP10 SWAP3 POP PUSH2 0x1CA3 PUSH1 0x64 DUP10 PUSH2 0x25F5 JUMP JUMPDEST PUSH2 0x1CAD SWAP1 DUP12 PUSH2 0x25D6 JUMP JUMPDEST SWAP2 POP PUSH2 0x1CBA PUSH1 0x64 DUP4 PUSH2 0x25B6 JUMP JUMPDEST SWAP2 POP DUP7 PUSH1 0x1 EQ ISZERO PUSH2 0x1CD1 JUMPI PUSH2 0x1C74 DUP7 DUP7 DUP6 DUP6 PUSH2 0x231E JUMP JUMPDEST DUP7 PUSH1 0x2 EQ ISZERO PUSH2 0x1CE9 JUMPI PUSH2 0x1CE6 DUP6 DUP8 DUP5 DUP7 PUSH2 0x231E JUMP JUMPDEST SWAP1 POP JUMPDEST PUSH1 0x0 DUP7 DUP2 MSTORE PUSH1 0xF PUSH1 0x20 SWAP1 DUP2 MSTORE PUSH1 0x40 DUP1 DUP4 KECCAK256 DUP1 SLOAD PUSH1 0x1 DUP2 DUP2 ADD DUP4 SSTORE SWAP2 DUP6 MSTORE DUP4 DUP6 KECCAK256 ADD DUP6 SWAP1 SSTORE DUP9 DUP5 MSTORE DUP2 DUP5 KECCAK256 DUP1 SLOAD SWAP2 DUP3 ADD DUP2 SSTORE DUP5 MSTORE DUP3 DUP5 KECCAK256 ADD DUP5 SWAP1 SSTORE DUP9 DUP4 MSTORE PUSH1 0xD SWAP1 SWAP2 MSTORE DUP2 KECCAK256 PUSH1 0x3 ADD DUP1 SLOAD DUP6 SWAP3 SWAP1 PUSH2 0x1D40 SWAP1 DUP5 SWAP1 PUSH2 0x259E JUMP JUMPDEST SWAP1 SWAP2 SSTORE POP POP PUSH1 0x0 DUP6 DUP2 MSTORE PUSH1 0xD PUSH1 0x20 MSTORE PUSH1 0x40 DUP2 KECCAK256 PUSH1 0x3 ADD DUP1 SLOAD DUP5 SWAP3 SWAP1 PUSH2 0x1D66 SWAP1 DUP5 SWAP1 PUSH2 0x259E JUMP JUMPDEST SWAP1 SWAP2 SSTORE POP SWAP3 SWAP11 SWAP10 POP POP POP POP POP POP POP POP POP POP JUMP JUMPDEST PUSH1 0x0 DUP2 DUP2 MSTORE PUSH1 0xD PUSH1 0x20 SWAP1 DUP2 MSTORE PUSH1 0x40 DUP1 DUP4 KECCAK256 DUP2 MLOAD PUSH1 0xC0 DUP2 ADD DUP4 MSTORE DUP2 SLOAD PUSH1 0x1 PUSH1 0x1 PUSH1 0xA0 SHL SUB SWAP1 DUP2 AND DUP3 MSTORE PUSH1 0x1 DUP4 ADD SLOAD AND DUP2 DUP6 ADD MSTORE PUSH1 0x2 DUP3 ADD SLOAD DUP2 DUP5 ADD MSTORE PUSH1 0x3 DUP3 ADD SLOAD PUSH1 0x60 DUP3 ADD MSTORE PUSH1 0x4 DUP3 ADD SLOAD PUSH1 0x80 DUP3 ADD MSTORE PUSH1 0x5 SWAP1 SWAP2 ADD SLOAD PUSH1 0xA0 DUP3 ADD MSTORE DUP5 DUP5 MSTORE PUSH1 0xF DUP4 MSTORE DUP2 DUP5 KECCAK256 DUP1 SLOAD DUP4 MLOAD DUP2 DUP7 MUL DUP2 ADD DUP7 ADD SWAP1 SWAP5 MSTORE DUP1 DUP5 MSTORE SWAP2 SWAP4 DUP6 SWAP4 SWAP3 SWAP1 DUP4 ADD DUP3 DUP3 DUP1 ISZERO PUSH2 0x1E23 JUMPI PUSH1 0x20 MUL DUP3 ADD SWAP2 SWAP1 PUSH1 0x0 MSTORE PUSH1 0x20 PUSH1 0x0 KECCAK256 SWAP1 JUMPDEST DUP2 SLOAD DUP2 MSTORE PUSH1 0x20 ADD SWAP1 PUSH1 0x1 ADD SWAP1 DUP1 DUP4 GT PUSH2 0x1E0F JUMPI JUMPDEST POP POP DUP4 MLOAD SWAP4 SWAP5 POP PUSH1 0x0 SWAP3 POP POP POP JUMPDEST DUP2 DUP2 LT ISZERO PUSH2 0x2230 JUMPI PUSH1 0x10 PUSH1 0x0 DUP5 DUP4 DUP2 MLOAD DUP2 LT PUSH2 0x1E5D JUMPI PUSH4 0x4E487B71 PUSH1 0xE0 SHL PUSH1 0x0 MSTORE PUSH1 0x32 PUSH1 0x4 MSTORE PUSH1 0x24 PUSH1 0x0 REVERT JUMPDEST PUSH1 0x20 SWAP1 DUP2 MUL SWAP2 SWAP1 SWAP2 ADD DUP2 ADD MLOAD DUP3 MSTORE DUP2 ADD SWAP2 SWAP1 SWAP2 MSTORE PUSH1 0x40 ADD PUSH1 0x0 KECCAK256 PUSH1 0x4 ADD SLOAD PUSH1 0xFF AND ISZERO PUSH2 0x1E88 JUMPI PUSH2 0x221E JUMP JUMPDEST PUSH1 0x0 DUP1 PUSH1 0x0 DUP1 DUP8 PUSH1 0xA0 ADD MLOAD PUSH1 0x1 EQ ISZERO PUSH2 0x1F60 JUMPI PUSH1 0x10 PUSH1 0x0 DUP9 DUP8 DUP2 MLOAD DUP2 LT PUSH2 0x1EBF JUMPI PUSH4 0x4E487B71 PUSH1 0xE0 SHL PUSH1 0x0 MSTORE PUSH1 0x32 PUSH1 0x4 MSTORE PUSH1 0x24 PUSH1 0x0 REVERT JUMPDEST PUSH1 0x20 MUL PUSH1 0x20 ADD ADD MLOAD DUP2 MSTORE PUSH1 0x20 ADD SWAP1 DUP2 MSTORE PUSH1 0x20 ADD PUSH1 0x0 KECCAK256 PUSH1 0x2 ADD SLOAD SWAP2 POP PUSH1 0x10 PUSH1 0x0 DUP9 DUP8 DUP2 MLOAD DUP2 LT PUSH2 0x1EFF JUMPI PUSH4 0x4E487B71 PUSH1 0xE0 SHL PUSH1 0x0 MSTORE PUSH1 0x32 PUSH1 0x4 MSTORE PUSH1 0x24 PUSH1 0x0 REVERT JUMPDEST PUSH1 0x20 MUL PUSH1 0x20 ADD ADD MLOAD DUP2 MSTORE PUSH1 0x20 ADD SWAP1 DUP2 MSTORE PUSH1 0x20 ADD PUSH1 0x0 KECCAK256 PUSH1 0x1 ADD SLOAD SWAP4 POP PUSH1 0x10 PUSH1 0x0 DUP9 DUP8 DUP2 MLOAD DUP2 LT PUSH2 0x1F3F JUMPI PUSH4 0x4E487B71 PUSH1 0xE0 SHL PUSH1 0x0 MSTORE PUSH1 0x32 PUSH1 0x4 MSTORE PUSH1 0x24 PUSH1 0x0 REVERT JUMPDEST PUSH1 0x20 MUL PUSH1 0x20 ADD ADD MLOAD DUP2 MSTORE PUSH1 0x20 ADD SWAP1 DUP2 MSTORE PUSH1 0x20 ADD PUSH1 0x0 KECCAK256 PUSH1 0x3 ADD SLOAD SWAP3 POP PUSH2 0x202E JUMP JUMPDEST DUP8 PUSH1 0xA0 ADD MLOAD PUSH1 0x2 EQ ISZERO PUSH2 0x202E JUMPI PUSH1 0x10 PUSH1 0x0 DUP9 DUP8 DUP2 MLOAD DUP2 LT PUSH2 0x1F91 JUMPI PUSH4 0x4E487B71 PUSH1 0xE0 SHL PUSH1 0x0 MSTORE PUSH1 0x32 PUSH1 0x4 MSTORE PUSH1 0x24 PUSH1 0x0 REVERT JUMPDEST PUSH1 0x20 MUL PUSH1 0x20 ADD ADD MLOAD DUP2 MSTORE PUSH1 0x20 ADD SWAP1 DUP2 MSTORE PUSH1 0x20 ADD PUSH1 0x0 KECCAK256 PUSH1 0x3 ADD SLOAD SWAP2 POP PUSH1 0x10 PUSH1 0x0 DUP9 DUP8 DUP2 MLOAD DUP2 LT PUSH2 0x1FD1 JUMPI PUSH4 0x4E487B71 PUSH1 0xE0 SHL PUSH1 0x0 MSTORE PUSH1 0x32 PUSH1 0x4 MSTORE PUSH1 0x24 PUSH1 0x0 REVERT JUMPDEST PUSH1 0x20 MUL PUSH1 0x20 ADD ADD MLOAD DUP2 MSTORE PUSH1 0x20 ADD SWAP1 DUP2 MSTORE PUSH1 0x20 ADD PUSH1 0x0 KECCAK256 PUSH1 0x0 ADD SLOAD SWAP4 POP PUSH1 0x10 PUSH1 0x0 DUP9 DUP8 DUP2 MLOAD DUP2 LT PUSH2 0x2011 JUMPI PUSH4 0x4E487B71 PUSH1 0xE0 SHL PUSH1 0x0 MSTORE PUSH1 0x32 PUSH1 0x4 MSTORE PUSH1 0x24 PUSH1 0x0 REVERT JUMPDEST PUSH1 0x20 MUL PUSH1 0x20 ADD ADD MLOAD DUP2 MSTORE PUSH1 0x20 ADD SWAP1 DUP2 MSTORE PUSH1 0x20 ADD PUSH1 0x0 KECCAK256 PUSH1 0x2 ADD SLOAD SWAP3 POP JUMPDEST POP PUSH1 0x0 DUP4 DUP2 MSTORE PUSH1 0xD PUSH1 0x20 MSTORE PUSH1 0x40 SWAP1 KECCAK256 SLOAD PUSH1 0x5 SLOAD PUSH1 0x1 PUSH1 0x1 PUSH1 0xA0 SHL SUB SWAP1 SWAP2 AND SWAP1 PUSH1 0x64 SWAP1 PUSH2 0x205A SWAP1 DUP3 PUSH2 0x25F5 JUMP JUMPDEST PUSH2 0x2064 SWAP1 DUP5 PUSH2 0x25D6 JUMP JUMPDEST PUSH2 0x206E SWAP2 SWAP1 PUSH2 0x25B6 JUMP JUMPDEST DUP9 MLOAD PUSH1 0x1 PUSH1 0x1 PUSH1 0xA0 SHL SUB AND PUSH1 0x0 SWAP1 DUP2 MSTORE PUSH1 0xA PUSH1 0x20 MSTORE PUSH1 0x40 DUP2 KECCAK256 DUP1 SLOAD SWAP1 SWAP2 SWAP1 PUSH2 0x2097 SWAP1 DUP5 SWAP1 PUSH2 0x259E JUMP JUMPDEST SWAP1 SWAP2 SSTORE POP POP PUSH1 0x0 DUP5 DUP2 MSTORE PUSH1 0xD PUSH1 0x20 MSTORE PUSH1 0x40 DUP2 KECCAK256 PUSH1 0x3 ADD DUP1 SLOAD DUP6 SWAP3 SWAP1 PUSH2 0x20BD SWAP1 DUP5 SWAP1 PUSH2 0x25F5 JUMP JUMPDEST SWAP1 SWAP2 SSTORE POP POP PUSH1 0x5 SLOAD PUSH1 0x0 SWAP1 PUSH1 0x64 SWAP1 PUSH2 0x20D5 SWAP1 DUP6 PUSH2 0x25D6 JUMP JUMPDEST PUSH2 0x20DF SWAP2 SWAP1 PUSH2 0x25B6 JUMP JUMPDEST PUSH1 0x8 SLOAD SWAP1 SWAP2 POP PUSH1 0x64 SWAP1 PUSH2 0x20F2 SWAP1 DUP4 PUSH2 0x25D6 JUMP JUMPDEST PUSH2 0x20FC SWAP2 SWAP1 PUSH2 0x25B6 JUMP JUMPDEST PUSH1 0x2 SLOAD PUSH1 0x1 PUSH1 0x1 PUSH1 0xA0 SHL SUB AND PUSH1 0x0 SWAP1 DUP2 MSTORE PUSH1 0xA PUSH1 0x20 MSTORE PUSH1 0x40 DUP2 KECCAK256 DUP1 SLOAD SWAP1 SWAP2 SWAP1 PUSH2 0x2126 SWAP1 DUP5 SWAP1 PUSH2 0x259E JUMP JUMPDEST SWAP1 SWAP2 SSTORE POP POP PUSH1 0x7 SLOAD PUSH1 0x64 SWAP1 PUSH2 0x213B SWAP1 DUP4 PUSH2 0x25D6 JUMP JUMPDEST PUSH2 0x2145 SWAP2 SWAP1 PUSH2 0x25B6 JUMP JUMPDEST PUSH1 0x3 SLOAD PUSH1 0x1 PUSH1 0x1 PUSH1 0xA0 SHL SUB AND PUSH1 0x0 SWAP1 DUP2 MSTORE PUSH1 0xA PUSH1 0x20 MSTORE PUSH1 0x40 DUP2 KECCAK256 DUP1 SLOAD SWAP1 SWAP2 SWAP1 PUSH2 0x216F SWAP1 DUP5 SWAP1 PUSH2 0x259E JUMP JUMPDEST SWAP1 SWAP2 SSTORE POP POP PUSH1 0x6 SLOAD PUSH1 0x64 SWAP1 PUSH2 0x2184 SWAP1 DUP4 PUSH2 0x25D6 JUMP JUMPDEST PUSH2 0x218E SWAP2 SWAP1 PUSH2 0x25B6 JUMP JUMPDEST PUSH1 0x20 DUP1 DUP12 ADD MLOAD PUSH1 0x1 PUSH1 0x1 PUSH1 0xA0 SHL SUB AND PUSH1 0x0 SWAP1 DUP2 MSTORE PUSH1 0xA SWAP1 SWAP2 MSTORE PUSH1 0x40 DUP2 KECCAK256 DUP1 SLOAD SWAP1 SWAP2 SWAP1 PUSH2 0x21BB SWAP1 DUP5 SWAP1 PUSH2 0x259E JUMP JUMPDEST SWAP3 POP POP DUP2 SWAP1 SSTORE POP PUSH1 0x1 PUSH1 0x10 PUSH1 0x0 DUP11 DUP10 DUP2 MLOAD DUP2 LT PUSH2 0x21E8 JUMPI PUSH4 0x4E487B71 PUSH1 0xE0 SHL PUSH1 0x0 MSTORE PUSH1 0x32 PUSH1 0x4 MSTORE PUSH1 0x24 PUSH1 0x0 REVERT JUMPDEST PUSH1 0x20 MUL PUSH1 0x20 ADD ADD MLOAD DUP2 MSTORE PUSH1 0x20 ADD SWAP1 DUP2 MSTORE PUSH1 0x20 ADD PUSH1 0x0 KECCAK256 PUSH1 0x4 ADD PUSH1 0x0 PUSH2 0x100 EXP DUP2 SLOAD DUP2 PUSH1 0xFF MUL NOT AND SWAP1 DUP4 ISZERO ISZERO MUL OR SWAP1 SSTORE POP POP POP POP POP POP JUMPDEST DUP1 PUSH2 0x2228 DUP2 PUSH2 0x260C JUMP JUMPDEST SWAP2 POP POP PUSH2 0x1E31 JUMP JUMPDEST POP PUSH1 0x1 SWAP6 SWAP5 POP POP POP POP POP JUMP JUMPDEST PUSH1 0x0 DUP2 DUP2 MSTORE PUSH1 0x10 PUSH1 0x20 MSTORE PUSH1 0x40 DUP2 KECCAK256 PUSH1 0x4 ADD SLOAD PUSH1 0xFF AND ISZERO PUSH2 0x225E JUMPI POP PUSH1 0x0 SWAP2 SWAP1 POP JUMP JUMPDEST PUSH1 0x0 DUP3 DUP2 MSTORE PUSH1 0x10 PUSH1 0x20 SWAP1 DUP2 MSTORE PUSH1 0x40 DUP1 DUP4 KECCAK256 DUP1 SLOAD DUP5 MSTORE PUSH1 0xD DUP4 MSTORE DUP2 DUP5 KECCAK256 SLOAD PUSH1 0x1 DUP3 ADD SLOAD DUP6 MSTORE DUP3 DUP6 KECCAK256 SLOAD PUSH1 0x2 SWAP1 SWAP3 ADD SLOAD PUSH1 0x1 PUSH1 0x1 PUSH1 0xA0 SHL SUB SWAP2 DUP3 AND DUP1 DUP8 MSTORE PUSH1 0xA SWAP1 SWAP6 MSTORE SWAP3 DUP6 KECCAK256 DUP1 SLOAD SWAP5 SWAP6 SWAP2 SWAP1 SWAP3 AND SWAP4 PUSH2 0x22B6 SWAP1 DUP5 SWAP1 PUSH2 0x259E JUMP JUMPDEST SWAP1 SWAP2 SSTORE POP POP PUSH1 0x0 DUP5 DUP2 MSTORE PUSH1 0x10 PUSH1 0x20 SWAP1 DUP2 MSTORE PUSH1 0x40 DUP1 DUP4 KECCAK256 PUSH1 0x3 ADD SLOAD PUSH1 0x1 PUSH1 0x1 PUSH1 0xA0 SHL SUB DUP6 AND DUP5 MSTORE PUSH1 0xA SWAP1 SWAP3 MSTORE DUP3 KECCAK256 DUP1 SLOAD SWAP2 SWAP3 SWAP1 SWAP2 PUSH2 0x22F4 SWAP1 DUP5 SWAP1 PUSH2 0x259E JUMP JUMPDEST SWAP1 SWAP2 SSTORE POP POP POP PUSH1 0x0 SWAP3 DUP4 MSTORE POP POP PUSH1 0x10 PUSH1 0x20 MSTORE PUSH1 0x40 SWAP1 KECCAK256 PUSH1 0x4 ADD DUP1 SLOAD PUSH1 0xFF NOT AND PUSH1 0x1 SWAP1 DUP2 OR SWAP1 SWAP2 SSTORE SWAP1 JUMP JUMPDEST PUSH1 0x0 DUP1 PUSH1 0x0 JUMPDEST PUSH1 0xE SLOAD DUP2 SWAP1 PUSH2 0x2334 SWAP1 PUSH1 0x1 PUSH2 0x259E JUMP JUMPDEST PUSH2 0x233E SWAP2 SWAP1 PUSH2 0x259E JUMP JUMPDEST PUSH1 0x0 DUP2 DUP2 MSTORE PUSH1 0x10 PUSH1 0x20 MSTORE PUSH1 0x40 SWAP1 KECCAK256 PUSH1 0x2 ADD SLOAD SWAP1 SWAP3 POP PUSH2 0x235C JUMPI PUSH2 0x236E JUMP JUMPDEST DUP1 PUSH2 0x2366 DUP2 PUSH2 0x260C JUMP JUMPDEST SWAP2 POP POP PUSH2 0x2324 JUMP JUMPDEST PUSH1 0x40 DUP1 MLOAD PUSH1 0xA0 DUP2 ADD DUP3 MSTORE DUP9 DUP2 MSTORE PUSH1 0x20 DUP1 DUP3 ADD DUP10 DUP2 MSTORE DUP3 DUP5 ADD DUP10 DUP2 MSTORE PUSH1 0x60 DUP1 DUP6 ADD DUP11 DUP2 MSTORE PUSH1 0x0 PUSH1 0x80 DUP1 DUP9 ADD DUP3 DUP2 MSTORE DUP12 DUP4 MSTORE PUSH1 0x10 DUP9 MSTORE DUP10 DUP4 KECCAK256 SWAP9 MLOAD DUP10 SSTORE SWAP6 MLOAD PUSH1 0x1 DUP1 DUP11 ADD SWAP2 SWAP1 SWAP2 SSTORE SWAP5 MLOAD PUSH1 0x2 DUP10 ADD SSTORE SWAP2 MLOAD PUSH1 0x3 DUP9 ADD SSTORE SWAP4 MLOAD PUSH1 0x4 SWAP1 SWAP7 ADD DUP1 SLOAD PUSH1 0xFF NOT AND SWAP7 ISZERO ISZERO SWAP7 SWAP1 SWAP7 OR SWAP1 SWAP6 SSTORE PUSH1 0xE DUP1 SLOAD SWAP3 DUP4 ADD DUP2 SSTORE SWAP1 SWAP3 MSTORE PUSH32 0xBB7B4A454DC3493923482F07822329ED19E8244EFF582CC204F8554C3620C3FD ADD DUP7 SWAP1 SSTORE DUP4 MLOAD DUP12 DUP2 MSTORE SWAP2 DUP3 ADD DUP11 SWAP1 MSTORE SWAP3 DUP2 ADD DUP9 SWAP1 MSTORE SWAP2 DUP3 ADD DUP7 SWAP1 MSTORE PUSH32 0x5FA90ED87B91D052928BCB5FA4DF9D92A959BD7484A54CE4215AD1D422F8635B SWAP2 ADD PUSH1 0x40 MLOAD DUP1 SWAP2 SUB SWAP1 LOG1 POP SWAP6 SWAP5 POP POP POP POP POP JUMP JUMPDEST PUSH1 0x0 PUSH1 0x20 DUP3 DUP5 SUB SLT ISZERO PUSH2 0x2467 JUMPI DUP1 DUP2 REVERT JUMPDEST DUP2 CALLDATALOAD PUSH2 0x2472 DUP2 PUSH2 0x263D JUMP JUMPDEST SWAP4 SWAP3 POP POP POP JUMP JUMPDEST PUSH1 0x0 PUSH1 0x20 DUP3 DUP5 SUB SLT ISZERO PUSH2 0x248A JUMPI DUP1 DUP2 REVERT JUMPDEST DUP2 MLOAD PUSH2 0x2472 DUP2 PUSH2 0x263D JUMP JUMPDEST PUSH1 0x0 DUP1 PUSH1 0x0 DUP1 PUSH1 0x0 DUP1 PUSH1 0xC0 DUP8 DUP10 SUB SLT ISZERO PUSH2 0x24AD JUMPI DUP2 DUP3 REVERT JUMPDEST DUP7 CALLDATALOAD PUSH2 0x24B8 DUP2 PUSH2 0x263D JUMP JUMPDEST SWAP6 POP PUSH1 0x20 DUP8 ADD CALLDATALOAD SWAP5 POP PUSH1 0x40 DUP8 ADD CALLDATALOAD SWAP4 POP PUSH1 0x60 DUP8 ADD CALLDATALOAD SWAP3 POP PUSH1 0x80 DUP8 ADD CALLDATALOAD SWAP2 POP PUSH1 0xA0 DUP8 ADD CALLDATALOAD PUSH2 0x24E4 DUP2 PUSH2 0x2652 JUMP JUMPDEST DUP1 SWAP2 POP POP SWAP3 SWAP6 POP SWAP3 SWAP6 POP SWAP3 SWAP6 JUMP JUMPDEST PUSH1 0x0 PUSH1 0x20 DUP3 DUP5 SUB SLT ISZERO PUSH2 0x2503 JUMPI DUP1 DUP2 REVERT JUMPDEST DUP2 MLOAD PUSH2 0x2472 DUP2 PUSH2 0x2652 JUMP JUMPDEST PUSH1 0x0 PUSH1 0x20 DUP3 DUP5 SUB SLT ISZERO PUSH2 0x251F JUMPI DUP1 DUP2 REVERT JUMPDEST POP CALLDATALOAD SWAP2 SWAP1 POP JUMP JUMPDEST PUSH1 0x0 PUSH1 0x20 DUP3 DUP5 SUB SLT ISZERO PUSH2 0x2537 JUMPI DUP1 DUP2 REVERT JUMPDEST POP MLOAD SWAP2 SWAP1 POP JUMP JUMPDEST PUSH1 0x20 DUP1 DUP3 MSTORE DUP3 MLOAD DUP3 DUP3 ADD DUP2 SWAP1 MSTORE PUSH1 0x0 SWAP2 SWAP1 DUP5 DUP3 ADD SWAP1 PUSH1 0x40 DUP6 ADD SWAP1 DUP5 JUMPDEST DUP2 DUP2 LT ISZERO PUSH2 0x2576 JUMPI DUP4 MLOAD DUP4 MSTORE SWAP3 DUP5 ADD SWAP3 SWAP2 DUP5 ADD SWAP2 PUSH1 0x1 ADD PUSH2 0x255A JUMP JUMPDEST POP SWAP1 SWAP7 SWAP6 POP POP POP POP POP POP JUMP JUMPDEST PUSH1 0x20 DUP1 DUP3 MSTORE PUSH1 0x2 SWAP1 DUP3 ADD MSTORE PUSH2 0x2699 PUSH1 0xF1 SHL PUSH1 0x40 DUP3 ADD MSTORE PUSH1 0x60 ADD SWAP1 JUMP JUMPDEST PUSH1 0x0 DUP3 NOT DUP3 GT ISZERO PUSH2 0x25B1 JUMPI PUSH2 0x25B1 PUSH2 0x2627 JUMP JUMPDEST POP ADD SWAP1 JUMP JUMPDEST PUSH1 0x0 DUP3 PUSH2 0x25D1 JUMPI PUSH4 0x4E487B71 PUSH1 0xE0 SHL DUP2 MSTORE PUSH1 0x12 PUSH1 0x4 MSTORE PUSH1 0x24 DUP2 REVERT JUMPDEST POP DIV SWAP1 JUMP JUMPDEST PUSH1 0x0 DUP2 PUSH1 0x0 NOT DIV DUP4 GT DUP3 ISZERO ISZERO AND ISZERO PUSH2 0x25F0 JUMPI PUSH2 0x25F0 PUSH2 0x2627 JUMP JUMPDEST POP MUL SWAP1 JUMP JUMPDEST PUSH1 0x0 DUP3 DUP3 LT ISZERO PUSH2 0x2607 JUMPI PUSH2 0x2607 PUSH2 0x2627 JUMP JUMPDEST POP SUB SWAP1 JUMP JUMPDEST PUSH1 0x0 PUSH1 0x0 NOT DUP3 EQ ISZERO PUSH2 0x2620 JUMPI PUSH2 0x2620 PUSH2 0x2627 JUMP JUMPDEST POP PUSH1 0x1 ADD SWAP1 JUMP JUMPDEST PUSH4 0x4E487B71 PUSH1 0xE0 SHL PUSH1 0x0 MSTORE PUSH1 0x11 PUSH1 0x4 MSTORE PUSH1 0x24 PUSH1 0x0 REVERT JUMPDEST PUSH1 0x1 PUSH1 0x1 PUSH1 0xA0 SHL SUB DUP2 AND DUP2 EQ PUSH2 0xD21 JUMPI PUSH1 0x0 DUP1 REVERT JUMPDEST DUP1 ISZERO ISZERO DUP2 EQ PUSH2 0xD21 JUMPI PUSH1 0x0 DUP1 REVERT INVALID LOG2 PUSH5 0x6970667358 0x22 SLT KECCAK256 0xF8 0x22 KECCAK256 DUP2 SWAP4 0xC8 0x2B SWAP13 0x48 SWAP16 POP 0xB8 JUMP EXP 0xB3 JUMPI 0xB0 0x1E 0xEF 0xAA 0xE5 EQ 0xDB 0xEC 0x4E PUSH5 0xBB9638B60E 0x2D PUSH5 0x736F6C6343 STOP ADDMOD DIV STOP CALLER "
				},
				"gasEstimates": {
					"creation": {
						"codeDepositCost": "1975600",
						"executionCost": "infinite",
						"totalCost": "infinite"
					},
					"external": {
						"addBet(address,uint256,uint256,uint256,uint256,bool)": "infinite",
						"cancel()": "infinite",
						"cancelBet(uint256)": "infinite",
						"cancelPlusPairs()": "infinite",
						"getBalance(address)": "1341",
						"getBet(uint256)": "5772",
						"getBetPairs(uint256)": "infinite",
						"getBets()": "infinite",
						"getPair(uint256)": "4845",
						"getPairs()": "infinite",
						"getUserBets(address)": "infinite",
						"setWinningSide(uint256)": "infinite",
						"settle(uint256)": "infinite",
						"settleBet(uint256)": "infinite",
						"status()": "1085",
						"stopNewBet()": "infinite",
						"withdraw(address)": "infinite",
						"withdrawPending(uint256)": "infinite"
					},
					"internal": {
						"_cancelBetPairs(uint256)": "infinite",
						"_cancelPair(uint256)": "infinite",
						"_createBet(address,address,uint256,uint256,uint256,uint256,uint256)": "infinite",
						"_createPair(uint256,uint256,uint256,uint256)": "infinite",
						"_match(uint256,uint256,uint256,uint256,uint256,uint256)": "infinite",
						"_settlePair(uint256)": "infinite"
					}
				},
				"methodIdentifiers": {
					"addBet(address,uint256,uint256,uint256,uint256,bool)": "1e56b7d3",
					"cancel()": "ea8a1af0",
					"cancelBet(uint256)": "357401f5",
					"cancelPlusPairs()": "ae8cd090",
					"getBalance(address)": "f8b2cb4f",
					"getBet(uint256)": "061e494f",
					"getBetPairs(uint256)": "58918e61",
					"getBets()": "a6afd5fd",
					"getPair(uint256)": "bdf391cc",
					"getPairs()": "767eb5ef",
					"getUserBets(address)": "2d56657d",
					"setWinningSide(uint256)": "d0ed7295",
					"settle(uint256)": "8df82800",
					"settleBet(uint256)": "16fd381a",
					"status()": "200d2ed2",
					"stopNewBet()": "6bef0267",
					"withdraw(address)": "51cff8d9",
					"withdrawPending(uint256)": "2e585fd8"
				}
			},
			"storageLayout": {
				"storage": [
					{
						"astId": 1759,
						"contract": "contracts/Market.sol:Market",
						"label": "_status",
						"offset": 0,
						"slot": "0",
						"type": "t_uint256"
					},
					{
						"astId": 98,
						"contract": "contracts/Market.sol:Market",
						"label": "app",
						"offset": 0,
						"slot": "1",
						"type": "t_contract(IWeb3BetsFO)2063"
					},
					{
						"astId": 101,
						"contract": "contracts/Market.sol:Market",
						"label": "a",
						"offset": 0,
						"slot": "2",
						"type": "t_struct(App)2080_storage"
					},
					{
						"astId": 104,
						"contract": "contracts/Market.sol:Market",
						"label": "status",
						"offset": 0,
						"slot": "9",
						"type": "t_uint256"
					},
					{
						"astId": 108,
						"contract": "contracts/Market.sol:Market",
						"label": "bal",
						"offset": 0,
						"slot": "10",
						"type": "t_mapping(t_address,t_uint256)"
					},
					{
						"astId": 111,
						"contract": "contracts/Market.sol:Market",
						"label": "bets",
						"offset": 0,
						"slot": "11",
						"type": "t_array(t_uint256)dyn_storage"
					},
					{
						"astId": 116,
						"contract": "contracts/Market.sol:Market",
						"label": "userBets",
						"offset": 0,
						"slot": "12",
						"type": "t_mapping(t_address,t_array(t_uint256)dyn_storage)"
					},
					{
						"astId": 121,
						"contract": "contracts/Market.sol:Market",
						"label": "betsInfo",
						"offset": 0,
						"slot": "13",
						"type": "t_mapping(t_uint256,t_struct(MarketBet)2093_storage)"
					},
					{
						"astId": 124,
						"contract": "contracts/Market.sol:Market",
						"label": "pairs",
						"offset": 0,
						"slot": "14",
						"type": "t_array(t_uint256)dyn_storage"
					},
					{
						"astId": 129,
						"contract": "contracts/Market.sol:Market",
						"label": "betPairs",
						"offset": 0,
						"slot": "15",
						"type": "t_mapping(t_uint256,t_array(t_uint256)dyn_storage)"
					},
					{
						"astId": 134,
						"contract": "contracts/Market.sol:Market",
						"label": "pairsInfo",
						"offset": 0,
						"slot": "16",
						"type": "t_mapping(t_uint256,t_struct(MarketPair)2104_storage)"
					}
				],
				"types": {
					"t_address": {
						"encoding": "inplace",
						"label": "address",
						"numberOfBytes": "20"
					},
					"t_array(t_uint256)dyn_storage": {
						"base": "t_uint256",
						"encoding": "dynamic_array",
						"label": "uint256[]",
						"numberOfBytes": "32"
					},
					"t_bool": {
						"encoding": "inplace",
						"label": "bool",
						"numberOfBytes": "1"
					},
					"t_contract(IWeb3BetsFO)2063": {
						"encoding": "inplace",
						"label": "contract IWeb3BetsFO",
						"numberOfBytes": "20"
					},
					"t_mapping(t_address,t_array(t_uint256)dyn_storage)": {
						"encoding": "mapping",
						"key": "t_address",
						"label": "mapping(address => uint256[])",
						"numberOfBytes": "32",
						"value": "t_array(t_uint256)dyn_storage"
					},
					"t_mapping(t_address,t_uint256)": {
						"encoding": "mapping",
						"key": "t_address",
						"label": "mapping(address => uint256)",
						"numberOfBytes": "32",
						"value": "t_uint256"
					},
					"t_mapping(t_uint256,t_array(t_uint256)dyn_storage)": {
						"encoding": "mapping",
						"key": "t_uint256",
						"label": "mapping(uint256 => uint256[])",
						"numberOfBytes": "32",
						"value": "t_array(t_uint256)dyn_storage"
					},
					"t_mapping(t_uint256,t_struct(MarketBet)2093_storage)": {
						"encoding": "mapping",
						"key": "t_uint256",
						"label": "mapping(uint256 => struct Struct.MarketBet)",
						"numberOfBytes": "32",
						"value": "t_struct(MarketBet)2093_storage"
					},
					"t_mapping(t_uint256,t_struct(MarketPair)2104_storage)": {
						"encoding": "mapping",
						"key": "t_uint256",
						"label": "mapping(uint256 => struct Struct.MarketPair)",
						"numberOfBytes": "32",
						"value": "t_struct(MarketPair)2104_storage"
					},
					"t_struct(App)2080_storage": {
						"encoding": "inplace",
						"label": "struct Struct.App",
						"members": [
							{
								"astId": 2067,
								"contract": "contracts/Market.sol:Market",
								"label": "holdAddr",
								"offset": 0,
								"slot": "0",
								"type": "t_address"
							},
							{
								"astId": 2069,
								"contract": "contracts/Market.sol:Market",
								"label": "ecoAddr",
								"offset": 0,
								"slot": "1",
								"type": "t_address"
							},
							{
								"astId": 2071,
								"contract": "contracts/Market.sol:Market",
								"label": "minStake",
								"offset": 0,
								"slot": "2",
								"type": "t_uint256"
							},
							{
								"astId": 2073,
								"contract": "contracts/Market.sol:Market",
								"label": "vig",
								"offset": 0,
								"slot": "3",
								"type": "t_uint256"
							},
							{
								"astId": 2075,
								"contract": "contracts/Market.sol:Market",
								"label": "aVig",
								"offset": 0,
								"slot": "4",
								"type": "t_uint256"
							},
							{
								"astId": 2077,
								"contract": "contracts/Market.sol:Market",
								"label": "eVig",
								"offset": 0,
								"slot": "5",
								"type": "t_uint256"
							},
							{
								"astId": 2079,
								"contract": "contracts/Market.sol:Market",
								"label": "hVig",
								"offset": 0,
								"slot": "6",
								"type": "t_uint256"
							}
						],
						"numberOfBytes": "224"
					},
					"t_struct(MarketBet)2093_storage": {
						"encoding": "inplace",
						"label": "struct Struct.MarketBet",
						"members": [
							{
								"astId": 2082,
								"contract": "contracts/Market.sol:Market",
								"label": "better",
								"offset": 0,
								"slot": "0",
								"type": "t_address"
							},
							{
								"astId": 2084,
								"contract": "contracts/Market.sol:Market",
								"label": "affiliate",
								"offset": 0,
								"slot": "1",
								"type": "t_address"
							},
							{
								"astId": 2086,
								"contract": "contracts/Market.sol:Market",
								"label": "stake",
								"offset": 0,
								"slot": "2",
								"type": "t_uint256"
							},
							{
								"astId": 2088,
								"contract": "contracts/Market.sol:Market",
								"label": "matched",
								"offset": 0,
								"slot": "3",
								"type": "t_uint256"
							},
							{
								"astId": 2090,
								"contract": "contracts/Market.sol:Market",
								"label": "odds",
								"offset": 0,
								"slot": "4",
								"type": "t_uint256"
							},
							{
								"astId": 2092,
								"contract": "contracts/Market.sol:Market",
								"label": "side",
								"offset": 0,
								"slot": "5",
								"type": "t_uint256"
							}
						],
						"numberOfBytes": "192"
					},
					"t_struct(MarketPair)2104_storage": {
						"encoding": "inplace",
						"label": "struct Struct.MarketPair",
						"members": [
							{
								"astId": 2095,
								"contract": "contracts/Market.sol:Market",
								"label": "betIdA",
								"offset": 0,
								"slot": "0",
								"type": "t_uint256"
							},
							{
								"astId": 2097,
								"contract": "contracts/Market.sol:Market",
								"label": "betIdB",
								"offset": 0,
								"slot": "1",
								"type": "t_uint256"
							},
							{
								"astId": 2099,
								"contract": "contracts/Market.sol:Market",
								"label": "amountA",
								"offset": 0,
								"slot": "2",
								"type": "t_uint256"
							},
							{
								"astId": 2101,
								"contract": "contracts/Market.sol:Market",
								"label": "amountB",
								"offset": 0,
								"slot": "3",
								"type": "t_uint256"
							},
							{
								"astId": 2103,
								"contract": "contracts/Market.sol:Market",
								"label": "settled",
								"offset": 0,
								"slot": "4",
								"type": "t_bool"
							}
						],
						"numberOfBytes": "160"
					},
					"t_uint256": {
						"encoding": "inplace",
						"label": "uint256",
						"numberOfBytes": "32"
					}
				}
			},
			"userdoc": {
				"kind": "user",
				"methods": {},
				"version": 1
			}
		}
	}
}