{
	"contracts/Market.sol": {
		"Market": {
			"abi": [
				{
					"inputs": [
						{
							"internalType": "address",
							"name": "owner_",
							"type": "address"
						}
					],
					"stateMutability": "nonpayable",
					"type": "constructor"
				},
				{
					"anonymous": false,
					"inputs": [
						{
							"indexed": false,
							"internalType": "address",
							"name": "better",
							"type": "address"
						},
						{
							"indexed": false,
							"internalType": "address",
							"name": "marketAddr",
							"type": "address"
						},
						{
							"indexed": false,
							"internalType": "bytes32",
							"name": "hash",
							"type": "bytes32"
						},
						{
							"indexed": false,
							"internalType": "uint256",
							"name": "stake",
							"type": "uint256"
						},
						{
							"indexed": false,
							"internalType": "uint256",
							"name": "odds",
							"type": "uint256"
						},
						{
							"indexed": false,
							"internalType": "uint256",
							"name": "side",
							"type": "uint256"
						}
					],
					"name": "BetCreated",
					"type": "event"
				},
				{
					"anonymous": false,
					"inputs": [
						{
							"indexed": false,
							"internalType": "address",
							"name": "beneficiary",
							"type": "address"
						},
						{
							"indexed": false,
							"internalType": "uint256",
							"name": "value",
							"type": "uint256"
						}
					],
					"name": "Withdraw",
					"type": "event"
				},
				{
					"inputs": [
						{
							"internalType": "address",
							"name": "_better",
							"type": "address"
						},
						{
							"internalType": "address",
							"name": "_affiliate",
							"type": "address"
						},
						{
							"internalType": "uint256",
							"name": "_stake",
							"type": "uint256"
						},
						{
							"internalType": "uint256",
							"name": "_odds",
							"type": "uint256"
						},
						{
							"internalType": "uint256",
							"name": "_side",
							"type": "uint256"
						},
						{
							"internalType": "bool",
							"name": "_instant",
							"type": "bool"
						}
					],
					"name": "addBet",
					"outputs": [
						{
							"internalType": "bytes32",
							"name": "",
							"type": "bytes32"
						}
					],
					"stateMutability": "nonpayable",
					"type": "function"
				},
				{
					"inputs": [],
					"name": "cancel",
					"outputs": [
						{
							"internalType": "bool",
							"name": "",
							"type": "bool"
						}
					],
					"stateMutability": "nonpayable",
					"type": "function"
				},
				{
					"inputs": [
						{
							"internalType": "bytes32",
							"name": "_bet",
							"type": "bytes32"
						}
					],
					"name": "cancelBet",
					"outputs": [],
					"stateMutability": "nonpayable",
					"type": "function"
				},
				{
					"inputs": [
						{
							"internalType": "address",
							"name": "_user",
							"type": "address"
						}
					],
					"name": "getBalance",
					"outputs": [
						{
							"internalType": "uint256",
							"name": "",
							"type": "uint256"
						}
					],
					"stateMutability": "view",
					"type": "function"
				},
				{
					"inputs": [
						{
							"internalType": "address",
							"name": "_user",
							"type": "address"
						}
					],
					"name": "getUserBets",
					"outputs": [
						{
							"components": [
								{
									"internalType": "address",
									"name": "better",
									"type": "address"
								},
								{
									"internalType": "address",
									"name": "affiliate",
									"type": "address"
								},
								{
									"internalType": "uint256",
									"name": "stake",
									"type": "uint256"
								},
								{
									"internalType": "uint256",
									"name": "matched",
									"type": "uint256"
								},
								{
									"internalType": "uint256",
									"name": "odds",
									"type": "uint256"
								},
								{
									"internalType": "uint256",
									"name": "side",
									"type": "uint256"
								}
							],
							"internalType": "struct Struct.MarketBet[]",
							"name": "",
							"type": "tuple[]"
						}
					],
					"stateMutability": "view",
					"type": "function"
				},
				{
					"inputs": [
						{
							"internalType": "uint256",
							"name": "_winningSide",
							"type": "uint256"
						}
					],
					"name": "setWinningSide",
					"outputs": [
						{
							"internalType": "bool",
							"name": "",
							"type": "bool"
						}
					],
					"stateMutability": "nonpayable",
					"type": "function"
				},
				{
					"inputs": [
						{
							"internalType": "uint256",
							"name": "_winningSide",
							"type": "uint256"
						}
					],
					"name": "settle",
					"outputs": [
						{
							"internalType": "bool",
							"name": "",
							"type": "bool"
						}
					],
					"stateMutability": "nonpayable",
					"type": "function"
				},
				{
					"inputs": [
						{
							"internalType": "bytes32",
							"name": "_bet",
							"type": "bytes32"
						}
					],
					"name": "settleBet",
					"outputs": [],
					"stateMutability": "nonpayable",
					"type": "function"
				},
				{
					"inputs": [],
					"name": "start",
					"outputs": [
						{
							"internalType": "bool",
							"name": "",
							"type": "bool"
						}
					],
					"stateMutability": "nonpayable",
					"type": "function"
				},
				{
					"inputs": [],
					"name": "status",
					"outputs": [
						{
							"internalType": "uint256",
							"name": "",
							"type": "uint256"
						}
					],
					"stateMutability": "view",
					"type": "function"
				},
				{
					"inputs": [
						{
							"internalType": "address",
							"name": "_addr",
							"type": "address"
						}
					],
					"name": "withdraw",
					"outputs": [
						{
							"internalType": "bool",
							"name": "",
							"type": "bool"
						}
					],
					"stateMutability": "nonpayable",
					"type": "function"
				},
				{
					"inputs": [
						{
							"internalType": "bytes32",
							"name": "_bet",
							"type": "bytes32"
						}
					],
					"name": "withdrawPending",
					"outputs": [],
					"stateMutability": "nonpayable",
					"type": "function"
				}
			],
			"devdoc": {
				"kind": "dev",
				"methods": {},
				"version": 1
			},
			"evm": {
				"assembly": "    /* \"contracts/Market.sol\":194:13489  contract Market is IMarket, ReentrancyGuard {... */\n  mstore(0x40, 0xc0)\n    /* \"contracts/Market.sol\":439:440  0 */\n  0x00\n    /* \"contracts/Market.sol\":406:440  uint256 public override status = 0 */\n  0x03\n  sstore\n    /* \"contracts/Market.sol\":963:970  factory */\n  sload(0x02)\n    /* \"contracts/Market.sol\":915:971  IWeb3BetsFO immutable private app = IWeb3BetsFO(factory) */\n  0x60\n  shl\n  not(sub(shl(0x60, 0x01), 0x01))\n  and\n  0xa0\n  mstore\n    /* \"contracts/Market.sol\":1483:1627  constructor(address owner_) {... */\n  callvalue\n  dup1\n  iszero\n  tag_1\n  jumpi\n  0x00\n  dup1\n  revert\ntag_1:\n  pop\n  mload(0x40)\n  sub(codesize, bytecodeSize)\n  dup1\n  bytecodeSize\n  dup4\n  codecopy\n  dup2\n  add\n  0x40\n  dup2\n  swap1\n  mstore\n  tag_2\n  swap2\n  tag_3\n  jump\t// in\ntag_2:\n    /* \"@openzeppelin/contracts/security/ReentrancyGuard.sol\":1701:1702  1 */\n  0x01\n    /* \"@openzeppelin/contracts/security/ReentrancyGuard.sol\":1806:1813  _status */\n  0x00\n    /* \"@openzeppelin/contracts/security/ReentrancyGuard.sol\":1806:1828  _status = _NOT_ENTERED */\n  dup2\n  swap1\n  sstore\n    /* \"contracts/Market.sol\":1521:1535  owner = owner_ */\n  dup1\n  sload\n  not(sub(shl(0xa0, 0x01), 0x01))\n  swap1\n  dup2\n  and\n  sub(shl(0xa0, 0x01), 0x01)\n  dup5\n  and\n  or\n  swap1\n  swap2\n  sstore\n    /* \"contracts/Market.sol\":1545:1552  factory */\n  0x02\n    /* \"contracts/Market.sol\":1545:1565  factory = msg.sender */\n  dup1\n  sload\n    /* \"contracts/Market.sol\":1555:1565  msg.sender */\n  caller\n    /* \"contracts/Market.sol\":1545:1565  factory = msg.sender */\n  swap3\n  and\n  dup3\n  or\n  swap1\n  sstore\n    /* \"contracts/Market.sol\":1590:1619  IWeb3BetsFO(factory).scAddr() */\n  0x40\n  dup1\n  mload\n  shl(0xe3, 0x966ed9)\n  dup2\n  mstore\n  swap1\n  mload\n    /* \"contracts/Market.sol\":1590:1617  IWeb3BetsFO(factory).scAddr */\n  0x04b376c8\n  swap2\n    /* \"contracts/Market.sol\":1590:1619  IWeb3BetsFO(factory).scAddr() */\n  0x04\n  dup1\n  dup3\n  add\n  swap3\n  0x20\n  swap3\n  swap1\n  swap2\n  swap1\n  dup3\n  swap1\n  sub\n  add\n  dup2\n    /* \"contracts/Market.sol\":1555:1565  msg.sender */\n  dup7\n    /* \"contracts/Market.sol\":1590:1619  IWeb3BetsFO(factory).scAddr() */\n  dup1\n  extcodesize\n  iszero\n  dup1\n  iszero\n  tag_8\n  jumpi\n  0x00\n  dup1\n  revert\ntag_8:\n  pop\n  gas\n  staticcall\n  iszero\n  dup1\n  iszero\n  tag_10\n  jumpi\n  returndatasize\n  0x00\n  dup1\n  returndatacopy\n  revert(0x00, returndatasize)\ntag_10:\n  pop\n  pop\n  pop\n  pop\n  mload(0x40)\n  returndatasize\n  not(0x1f)\n  0x1f\n  dup3\n  add\n  and\n  dup3\n  add\n  dup1\n  0x40\n  mstore\n  pop\n  dup2\n  add\n  swap1\n  tag_11\n  swap2\n  swap1\n  tag_3\n  jump\t// in\ntag_11:\n    /* \"contracts/Market.sol\":1575:1620  token = IERC20(IWeb3BetsFO(factory).scAddr()) */\n  0x60\n  shl\n  not(sub(shl(0x60, 0x01), 0x01))\n  and\n  0x80\n  mstore\n  pop\n    /* \"contracts/Market.sol\":194:13489  contract Market is IMarket, ReentrancyGuard {... */\n  jump(tag_13)\n    /* \"#utility.yul\":14:324   */\ntag_3:\n    /* \"#utility.yul\":84:90   */\n  0x00\n    /* \"#utility.yul\":137:139   */\n  0x20\n    /* \"#utility.yul\":125:134   */\n  dup3\n    /* \"#utility.yul\":116:123   */\n  dup5\n    /* \"#utility.yul\":112:135   */\n  sub\n    /* \"#utility.yul\":108:140   */\n  slt\n    /* \"#utility.yul\":105:107   */\n  iszero\n  tag_15\n  jumpi\n    /* \"#utility.yul\":158:164   */\n  dup1\n    /* \"#utility.yul\":150:156   */\n  dup2\n    /* \"#utility.yul\":143:165   */\n  revert\n    /* \"#utility.yul\":105:107   */\ntag_15:\n    /* \"#utility.yul\":189:205   */\n  dup2\n  mload\n  sub(shl(0xa0, 0x01), 0x01)\n    /* \"#utility.yul\":234:265   */\n  dup2\n  and\n    /* \"#utility.yul\":224:266   */\n  dup2\n  eq\n    /* \"#utility.yul\":214:216   */\n  tag_16\n  jumpi\n    /* \"#utility.yul\":285:291   */\n  dup2\n    /* \"#utility.yul\":277:283   */\n  dup3\n    /* \"#utility.yul\":270:292   */\n  revert\n    /* \"#utility.yul\":214:216   */\ntag_16:\n    /* \"#utility.yul\":313:318   */\n  swap4\n    /* \"#utility.yul\":95:324   */\n  swap3\n  pop\n  pop\n  pop\n  jump\t// out\ntag_13:\n    /* \"contracts/Market.sol\":194:13489  contract Market is IMarket, ReentrancyGuard {... */\n  shr(0x60, mload(0x80))\n  shr(0x60, mload(0xa0))\n  codecopy(0x00, dataOffset(sub_0), dataSize(sub_0))\n  0x00\n  assignImmutable(\"0xd252627c3a7ddb3e9969d764fe6d38be47e2139c12c223f8ce16b1e3a5ed7dbb\")\n  0x00\n  assignImmutable(\"0x20d2ac2a28641786ba03eff53facea687b35e08e680a1b71922c6fc1ed1f2735\")\n  return(0x00, dataSize(sub_0))\nstop\n\nsub_0: assembly {\n        /* \"contracts/Market.sol\":194:13489  contract Market is IMarket, ReentrancyGuard {... */\n      mstore(0x40, 0x80)\n      callvalue\n      dup1\n      iszero\n      tag_1\n      jumpi\n      0x00\n      dup1\n      revert\n    tag_1:\n      pop\n      jumpi(tag_2, lt(calldatasize, 0x04))\n      shr(0xe0, calldataload(0x00))\n      dup1\n      0x7d7f9232\n      gt\n      tag_15\n      jumpi\n      dup1\n      0x7d7f9232\n      eq\n      tag_9\n      jumpi\n      dup1\n      0x8df82800\n      eq\n      tag_10\n      jumpi\n      dup1\n      0xbe9a6555\n      eq\n      tag_11\n      jumpi\n      dup1\n      0xd0ed7295\n      eq\n      tag_12\n      jumpi\n      dup1\n      0xea8a1af0\n      eq\n      tag_13\n      jumpi\n      dup1\n      0xf8b2cb4f\n      eq\n      tag_14\n      jumpi\n      0x00\n      dup1\n      revert\n    tag_15:\n      dup1\n      0x200d2ed2\n      eq\n      tag_3\n      jumpi\n      dup1\n      0x2940ff1e\n      eq\n      tag_4\n      jumpi\n      dup1\n      0x2d56657d\n      eq\n      tag_5\n      jumpi\n      dup1\n      0x51cff8d9\n      eq\n      tag_6\n      jumpi\n      dup1\n      0x675f6537\n      eq\n      tag_7\n      jumpi\n      dup1\n      0x78d65b2f\n      eq\n      tag_8\n      jumpi\n    tag_2:\n      0x00\n      dup1\n      revert\n        /* \"contracts/Market.sol\":406:440  uint256 public override status = 0 */\n    tag_3:\n      tag_16\n      sload(0x03)\n      dup2\n      jump\n    tag_16:\n      mload(0x40)\n        /* \"#utility.yul\":5936:5961   */\n      swap1\n      dup2\n      mstore\n        /* \"#utility.yul\":5924:5926   */\n      0x20\n        /* \"#utility.yul\":5909:5927   */\n      add\n        /* \"contracts/Market.sol\":406:440  uint256 public override status = 0 */\n    tag_18:\n      mload(0x40)\n      dup1\n      swap2\n      sub\n      swap1\n      return\n        /* \"contracts/Market.sol\":3015:3251  function cancelBet(bytes32 _bet) external override {... */\n    tag_4:\n      tag_20\n      tag_21\n      calldatasize\n      0x04\n      tag_22\n      jump\t// in\n    tag_21:\n      tag_23\n      jump\t// in\n    tag_20:\n      stop\n        /* \"contracts/Market.sol\":1748:2126  function getUserBets(address _user) ... */\n    tag_5:\n      tag_24\n      tag_25\n      calldatasize\n      0x04\n      tag_26\n      jump\t// in\n    tag_25:\n      tag_27\n      jump\t// in\n    tag_24:\n      mload(0x40)\n      tag_18\n      swap2\n      swap1\n      tag_29\n      jump\t// in\n        /* \"contracts/Market.sol\":2132:2612  function withdraw(address _addr) public override nonReentrant returns(bool) {... */\n    tag_6:\n      tag_30\n      tag_31\n      calldatasize\n      0x04\n      tag_26\n      jump\t// in\n    tag_31:\n      tag_32\n      jump\t// in\n    tag_30:\n      mload(0x40)\n        /* \"#utility.yul\":5763:5777   */\n      swap1\n      iszero\n        /* \"#utility.yul\":5756:5778   */\n      iszero\n        /* \"#utility.yul\":5738:5779   */\n      dup2\n      mstore\n        /* \"#utility.yul\":5726:5728   */\n      0x20\n        /* \"#utility.yul\":5711:5729   */\n      add\n        /* \"contracts/Market.sol\":2132:2612  function withdraw(address _addr) public override nonReentrant returns(bool) {... */\n      tag_18\n        /* \"#utility.yul\":5693:5785   */\n      jump\n        /* \"contracts/Market.sol\":3257:3577  function settleBet(bytes32 _bet) external override {... */\n    tag_7:\n      tag_20\n      tag_36\n      calldatasize\n      0x04\n      tag_22\n      jump\t// in\n    tag_36:\n      tag_37\n      jump\t// in\n        /* \"contracts/Market.sol\":4941:6284  function addBet(... */\n    tag_8:\n      tag_16\n      tag_39\n      calldatasize\n      0x04\n      tag_40\n      jump\t// in\n    tag_39:\n      tag_41\n      jump\t// in\n        /* \"contracts/Market.sol\":2620:3009  function withdrawPending(bytes32 _bet) public override {... */\n    tag_9:\n      tag_20\n      tag_45\n      calldatasize\n      0x04\n      tag_22\n      jump\t// in\n    tag_45:\n      tag_46\n      jump\t// in\n        /* \"contracts/Market.sol\":3936:4347  function settle(uint256 _winningSide)... */\n    tag_10:\n      tag_30\n      tag_48\n      calldatasize\n      0x04\n      tag_22\n      jump\t// in\n    tag_48:\n      tag_50\n      jump\t// in\n        /* \"contracts/Market.sol\":4733:4935  function start() external override onlyFactory returns(bool){... */\n    tag_11:\n      tag_30\n      tag_53\n      jump\t// in\n        /* \"contracts/Market.sol\":3583:3930  function setWinningSide(uint256 _winningSide)... */\n    tag_12:\n      tag_30\n      tag_56\n      calldatasize\n      0x04\n      tag_22\n      jump\t// in\n    tag_56:\n      tag_57\n      jump\t// in\n        /* \"contracts/Market.sol\":4353:4727  function cancel() external override onlyFactory returns(bool) ... */\n    tag_13:\n      tag_30\n      tag_60\n      jump\t// in\n        /* \"contracts/Market.sol\":1633:1742  function getBalance(address _user) external view override returns(uint256) {... */\n    tag_14:\n      tag_16\n      tag_63\n      calldatasize\n      0x04\n      tag_26\n      jump\t// in\n    tag_63:\n      sub(shl(0xa0, 0x01), 0x01)\n        /* \"contracts/Market.sol\":1725:1735  bal[_user] */\n      and\n        /* \"contracts/Market.sol\":1699:1706  uint256 */\n      0x00\n        /* \"contracts/Market.sol\":1725:1735  bal[_user] */\n      swap1\n      dup2\n      mstore\n        /* \"contracts/Market.sol\":1725:1728  bal */\n      0x06\n        /* \"contracts/Market.sol\":1725:1735  bal[_user] */\n      0x20\n      mstore\n      0x40\n      swap1\n      keccak256\n      sload\n      swap1\n        /* \"contracts/Market.sol\":1633:1742  function getBalance(address _user) external view override returns(uint256) {... */\n      jump\n        /* \"contracts/Market.sol\":3015:3251  function cancelBet(bytes32 _bet) external override {... */\n    tag_23:\n        /* \"contracts/Market.sol\":3098:3112  betsInfo[_bet] */\n      0x00\n      dup2\n      dup2\n      mstore\n        /* \"contracts/Market.sol\":3098:3106  betsInfo */\n      0x07\n        /* \"contracts/Market.sol\":3098:3112  betsInfo[_bet] */\n      0x20\n      mstore\n      0x40\n      swap1\n      keccak256\n        /* \"contracts/Market.sol\":3098:3119  betsInfo[_bet].better */\n      sload\n      sub(shl(0xa0, 0x01), 0x01)\n      and\n        /* \"contracts/Market.sol\":3084:3094  msg.sender */\n      caller\n        /* \"contracts/Market.sol\":3084:3119  msg.sender == betsInfo[_bet].better */\n      eq\n        /* \"contracts/Market.sol\":3076:3143  require(msg.sender == betsInfo[_bet].better, \"unauthorized caller\") */\n      tag_67\n      jumpi\n      mload(0x40)\n      shl(0xe5, 0x461bcd)\n      dup2\n      mstore\n        /* \"#utility.yul\":7224:7226   */\n      0x20\n        /* \"contracts/Market.sol\":3076:3143  require(msg.sender == betsInfo[_bet].better, \"unauthorized caller\") */\n      0x04\n      dup3\n      add\n        /* \"#utility.yul\":7206:7227   */\n      mstore\n        /* \"#utility.yul\":7263:7265   */\n      0x13\n        /* \"#utility.yul\":7243:7261   */\n      0x24\n      dup3\n      add\n        /* \"#utility.yul\":7236:7266   */\n      mstore\n      shl(0x69, 0x3ab730baba3437b934bd32b21031b0b63632b9)\n        /* \"#utility.yul\":7282:7300   */\n      0x44\n      dup3\n      add\n        /* \"#utility.yul\":7275:7324   */\n      mstore\n        /* \"#utility.yul\":7341:7359   */\n      0x64\n      add\n        /* \"contracts/Market.sol\":3076:3143  require(msg.sender == betsInfo[_bet].better, \"unauthorized caller\") */\n    tag_68:\n      mload(0x40)\n      dup1\n      swap2\n      sub\n      swap1\n      revert\n    tag_67:\n        /* \"contracts/Market.sol\":3156:3162  status */\n      sload(0x03)\n        /* \"contracts/Market.sol\":3153:3214  if(status == 0){... */\n      tag_70\n      jumpi\n        /* \"contracts/Market.sol\":3182:3203  _cancelBetPairs(_bet) */\n      tag_71\n        /* \"contracts/Market.sol\":3198:3202  _bet */\n      dup2\n        /* \"contracts/Market.sol\":3182:3197  _cancelBetPairs */\n      tag_72\n        /* \"contracts/Market.sol\":3182:3203  _cancelBetPairs(_bet) */\n      jump\t// in\n    tag_71:\n      pop\n        /* \"contracts/Market.sol\":3153:3214  if(status == 0){... */\n    tag_70:\n        /* \"contracts/Market.sol\":3223:3244  withdrawPending(_bet) */\n      tag_73\n        /* \"contracts/Market.sol\":3239:3243  _bet */\n      dup2\n        /* \"contracts/Market.sol\":3223:3238  withdrawPending */\n      tag_46\n        /* \"contracts/Market.sol\":3223:3244  withdrawPending(_bet) */\n      jump\t// in\n    tag_73:\n        /* \"contracts/Market.sol\":3015:3251  function cancelBet(bytes32 _bet) external override {... */\n      pop\n      jump\t// out\n        /* \"contracts/Market.sol\":1748:2126  function getUserBets(address _user) ... */\n    tag_27:\n      sub(shl(0xa0, 0x01), 0x01)\n        /* \"contracts/Market.sol\":1936:1951  userBets[_user] */\n      dup2\n      and\n        /* \"contracts/Market.sol\":1911:1933  bytes32[] memory _bets */\n      0x00\n        /* \"contracts/Market.sol\":1936:1951  userBets[_user] */\n      swap1\n      dup2\n      mstore\n        /* \"contracts/Market.sol\":1936:1944  userBets */\n      0x08\n        /* \"contracts/Market.sol\":1936:1951  userBets[_user] */\n      0x20\n      swap1\n      dup2\n      mstore\n      0x40\n      dup1\n      dup4\n      keccak256\n        /* \"contracts/Market.sol\":1911:1951  bytes32[] memory _bets = userBets[_user] */\n      dup1\n      sload\n      dup3\n      mload\n      dup2\n      dup6\n      mul\n      dup2\n      add\n      dup6\n      add\n      swap1\n      swap4\n      mstore\n      dup1\n      dup4\n      mstore\n        /* \"contracts/Market.sol\":1824:1849  Struct.MarketBet[] memory */\n      0x60\n      swap5\n      dup6\n      swap5\n        /* \"contracts/Market.sol\":1911:1933  bytes32[] memory _bets */\n      swap1\n      swap4\n        /* \"contracts/Market.sol\":1911:1951  bytes32[] memory _bets = userBets[_user] */\n      swap3\n        /* \"contracts/Market.sol\":1936:1951  userBets[_user] */\n      swap2\n        /* \"contracts/Market.sol\":1911:1951  bytes32[] memory _bets = userBets[_user] */\n      swap1\n      dup4\n      add\n        /* \"contracts/Market.sol\":1936:1951  userBets[_user] */\n      dup3\n        /* \"contracts/Market.sol\":1911:1951  bytes32[] memory _bets = userBets[_user] */\n      dup3\n      dup1\n      iszero\n      tag_75\n      jumpi\n      0x20\n      mul\n      dup3\n      add\n      swap2\n      swap1\n      0x00\n      mstore\n      keccak256(0x00, 0x20)\n      swap1\n    tag_76:\n      dup2\n      sload\n      dup2\n      mstore\n      0x20\n      add\n      swap1\n      0x01\n      add\n      swap1\n      dup1\n      dup4\n      gt\n      tag_76\n      jumpi\n    tag_75:\n      pop\n      pop\n        /* \"contracts/Market.sol\":1979:1983  bets */\n      0x05\n        /* \"contracts/Market.sol\":1979:1990  bets.length */\n      sload\n        /* \"contracts/Market.sol\":1911:1951  bytes32[] memory _bets = userBets[_user] */\n      swap4\n      swap5\n      pop\n        /* \"contracts/Market.sol\":1961:1976  uint betsLength */\n      0x00\n      swap3\n      pop\n      pop\n      pop\n        /* \"contracts/Market.sol\":2000:2094  for(uint i = 0; i < betsLength; i++){... */\n    tag_77:\n        /* \"contracts/Market.sol\":2020:2030  betsLength */\n      dup2\n        /* \"contracts/Market.sol\":2016:2017  i */\n      dup2\n        /* \"contracts/Market.sol\":2016:2030  i < betsLength */\n      lt\n        /* \"contracts/Market.sol\":2000:2094  for(uint i = 0; i < betsLength; i++){... */\n      iszero\n      tag_78\n      jumpi\n        /* \"contracts/Market.sol\":2065:2073  betsInfo */\n      0x07\n        /* \"contracts/Market.sol\":2065:2083  betsInfo[_bets[i]] */\n      0x00\n        /* \"contracts/Market.sol\":2074:2079  _bets */\n      dup5\n        /* \"contracts/Market.sol\":2080:2081  i */\n      dup4\n        /* \"contracts/Market.sol\":2074:2082  _bets[i] */\n      dup2\n      mload\n      dup2\n      lt\n      tag_80\n      jumpi\n      mstore(0x00, shl(0xe0, 0x4e487b71))\n      mstore(0x04, 0x32)\n      revert(0x00, 0x24)\n    tag_80:\n      0x20\n      swap1\n      dup2\n      mul\n      swap2\n      swap1\n      swap2\n      add\n      dup2\n      add\n      mload\n        /* \"contracts/Market.sol\":2065:2083  betsInfo[_bets[i]] */\n      dup3\n      mstore\n      dup2\n      dup2\n      add\n      swap3\n      swap1\n      swap3\n      mstore\n      0x40\n      swap1\n      dup2\n      add\n      0x00\n      keccak256\n        /* \"contracts/Market.sol\":2050:2083  _userBets[i] = betsInfo[_bets[i]] */\n      dup2\n      mload\n      0xc0\n      dup2\n      add\n      dup4\n      mstore\n      dup2\n      sload\n      sub(shl(0xa0, 0x01), 0x01)\n      swap1\n      dup2\n      and\n      dup3\n      mstore\n      0x01\n      dup4\n      add\n      sload\n      and\n      swap4\n      dup2\n      add\n      swap4\n      swap1\n      swap4\n      mstore\n      0x02\n      dup2\n      add\n      sload\n      swap2\n      dup4\n      add\n      swap2\n      swap1\n      swap2\n      mstore\n      0x03\n      dup2\n      add\n      sload\n      0x60\n      dup4\n      add\n      mstore\n      0x04\n      dup2\n      add\n      sload\n      0x80\n      dup4\n      add\n      mstore\n      0x05\n      add\n      sload\n      0xa0\n      dup3\n      add\n      mstore\n        /* \"contracts/Market.sol\":2050:2062  _userBets[i] */\n      dup5\n      mload\n        /* \"contracts/Market.sol\":2050:2059  _userBets */\n      dup6\n      swap1\n        /* \"contracts/Market.sol\":2060:2061  i */\n      dup4\n      swap1\n        /* \"contracts/Market.sol\":2050:2062  _userBets[i] */\n      dup2\n      lt\n      tag_81\n      jumpi\n      mstore(0x00, shl(0xe0, 0x4e487b71))\n      mstore(0x04, 0x32)\n      revert(0x00, 0x24)\n    tag_81:\n      0x20\n      mul\n      0x20\n      add\n      add\n        /* \"contracts/Market.sol\":2050:2083  _userBets[i] = betsInfo[_bets[i]] */\n      dup2\n      swap1\n      mstore\n      pop\n        /* \"contracts/Market.sol\":2032:2035  i++ */\n      dup1\n      dup1\n      tag_82\n      swap1\n      tag_83\n      jump\t// in\n    tag_82:\n      swap2\n      pop\n      pop\n        /* \"contracts/Market.sol\":2000:2094  for(uint i = 0; i < betsLength; i++){... */\n      jump(tag_77)\n    tag_78:\n      pop\n        /* \"contracts/Market.sol\":2110:2119  _userBets */\n      swap2\n      swap5\n        /* \"contracts/Market.sol\":1748:2126  function getUserBets(address _user) ... */\n      swap4\n      pop\n      pop\n      pop\n      pop\n      jump\t// out\n        /* \"contracts/Market.sol\":2132:2612  function withdraw(address _addr) public override nonReentrant returns(bool) {... */\n    tag_32:\n        /* \"contracts/Market.sol\":2202:2206  bool */\n      0x00\n        /* \"@openzeppelin/contracts/security/ReentrancyGuard.sol\":1744:1745  2 */\n      0x02\n        /* \"@openzeppelin/contracts/security/ReentrancyGuard.sol\":2325:2332  _status */\n      sload(0x00)\n        /* \"@openzeppelin/contracts/security/ReentrancyGuard.sol\":2325:2344  _status != _ENTERED */\n      eq\n      iszero\n        /* \"@openzeppelin/contracts/security/ReentrancyGuard.sol\":2317:2380  require(_status != _ENTERED, \"ReentrancyGuard: reentrant call\") */\n      tag_85\n      jumpi\n      mload(0x40)\n      shl(0xe5, 0x461bcd)\n      dup2\n      mstore\n        /* \"#utility.yul\":10006:10008   */\n      0x20\n        /* \"@openzeppelin/contracts/security/ReentrancyGuard.sol\":2317:2380  require(_status != _ENTERED, \"ReentrancyGuard: reentrant call\") */\n      0x04\n      dup3\n      add\n        /* \"#utility.yul\":9988:10009   */\n      mstore\n        /* \"#utility.yul\":10045:10047   */\n      0x1f\n        /* \"#utility.yul\":10025:10043   */\n      0x24\n      dup3\n      add\n        /* \"#utility.yul\":10018:10048   */\n      mstore\n        /* \"#utility.yul\":10084:10117   */\n      0x5265656e7472616e637947756172643a207265656e7472616e742063616c6c00\n        /* \"#utility.yul\":10064:10082   */\n      0x44\n      dup3\n      add\n        /* \"#utility.yul\":10057:10118   */\n      mstore\n        /* \"#utility.yul\":10135:10153   */\n      0x64\n      add\n        /* \"@openzeppelin/contracts/security/ReentrancyGuard.sol\":2317:2380  require(_status != _ENTERED, \"ReentrancyGuard: reentrant call\") */\n      tag_68\n        /* \"#utility.yul\":9978:10159   */\n      jump\n        /* \"@openzeppelin/contracts/security/ReentrancyGuard.sol\":2317:2380  require(_status != _ENTERED, \"ReentrancyGuard: reentrant call\") */\n    tag_85:\n        /* \"@openzeppelin/contracts/security/ReentrancyGuard.sol\":1744:1745  2 */\n      0x02\n        /* \"@openzeppelin/contracts/security/ReentrancyGuard.sol\":2455:2462  _status */\n      0x00\n        /* \"@openzeppelin/contracts/security/ReentrancyGuard.sol\":2455:2473  _status = _ENTERED */\n      swap1\n      dup2\n      sstore\n      sub(shl(0xa0, 0x01), 0x01)\n        /* \"contracts/Market.sol\":2240:2250  bal[_addr] */\n      dup4\n      dup2\n      and\n      dup3\n      mstore\n        /* \"contracts/Market.sol\":2240:2243  bal */\n      0x06\n        /* \"contracts/Market.sol\":2240:2250  bal[_addr] */\n      0x20\n      mstore\n      0x40\n      swap2\n      dup3\n      swap1\n      keccak256\n      sload\n        /* \"contracts/Market.sol\":2281:2311  token.balanceOf(address(this)) */\n      swap2\n      mload\n      shl(0xe0, 0x70a08231)\n      dup2\n      mstore\n        /* \"contracts/Market.sol\":2305:2309  this */\n      address\n        /* \"contracts/Market.sol\":2281:2311  token.balanceOf(address(this)) */\n      0x04\n      dup3\n      add\n        /* \"#utility.yul\":2817:2868   */\n      mstore\n        /* \"contracts/Market.sol\":2240:2250  bal[_addr] */\n      dup3\n      swap2\n        /* \"contracts/Market.sol\":2281:2286  token */\n      immutable(\"0x20d2ac2a28641786ba03eff53facea687b35e08e680a1b71922c6fc1ed1f2735\")\n        /* \"contracts/Market.sol\":2281:2296  token.balanceOf */\n      and\n      swap1\n      0x70a08231\n      swap1\n        /* \"#utility.yul\":2790:2808   */\n      0x24\n      add\n        /* \"contracts/Market.sol\":2281:2311  token.balanceOf(address(this)) */\n      0x20\n      mload(0x40)\n      dup1\n      dup4\n      sub\n      dup2\n      dup7\n      dup1\n      extcodesize\n      iszero\n      dup1\n      iszero\n      tag_91\n      jumpi\n      0x00\n      dup1\n      revert\n    tag_91:\n      pop\n      gas\n      staticcall\n      iszero\n      dup1\n      iszero\n      tag_93\n      jumpi\n      returndatasize\n      0x00\n      dup1\n      returndatacopy\n      revert(0x00, returndatasize)\n    tag_93:\n      pop\n      pop\n      pop\n      pop\n      mload(0x40)\n      returndatasize\n      not(0x1f)\n      0x1f\n      dup3\n      add\n      and\n      dup3\n      add\n      dup1\n      0x40\n      mstore\n      pop\n      dup2\n      add\n      swap1\n      tag_94\n      swap2\n      swap1\n      tag_95\n      jump\t// in\n    tag_94:\n        /* \"contracts/Market.sol\":2281:2326  token.balanceOf(address(this)) >= availAmount */\n      lt\n      iszero\n        /* \"contracts/Market.sol\":2281:2345  token.balanceOf(address(this)) >= availAmount && availAmount > 0 */\n      dup1\n      iszero\n      tag_96\n      jumpi\n      pop\n        /* \"contracts/Market.sol\":2344:2345  0 */\n      0x00\n        /* \"contracts/Market.sol\":2330:2341  availAmount */\n      dup2\n        /* \"contracts/Market.sol\":2330:2345  availAmount > 0 */\n      gt\n        /* \"contracts/Market.sol\":2281:2345  token.balanceOf(address(this)) >= availAmount && availAmount > 0 */\n    tag_96:\n        /* \"contracts/Market.sol\":2260:2391  require(... */\n      tag_97\n      jumpi\n      mload(0x40)\n      shl(0xe5, 0x461bcd)\n      dup2\n      mstore\n        /* \"#utility.yul\":8617:8619   */\n      0x20\n        /* \"contracts/Market.sol\":2260:2391  require(... */\n      0x04\n      dup3\n      add\n        /* \"#utility.yul\":8599:8620   */\n      mstore\n        /* \"#utility.yul\":8656:8658   */\n      0x14\n        /* \"#utility.yul\":8636:8654   */\n      0x24\n      dup3\n      add\n        /* \"#utility.yul\":8629:8659   */\n      mstore\n      shl(0x60, 0x7a65726f2076616c756520617661696c61626c65)\n        /* \"#utility.yul\":8675:8693   */\n      0x44\n      dup3\n      add\n        /* \"#utility.yul\":8668:8718   */\n      mstore\n        /* \"#utility.yul\":8735:8753   */\n      0x64\n      add\n        /* \"contracts/Market.sol\":2260:2391  require(... */\n      tag_68\n        /* \"#utility.yul\":8589:8759   */\n      jump\n        /* \"contracts/Market.sol\":2260:2391  require(... */\n    tag_97:\n      sub(shl(0xa0, 0x01), 0x01)\n        /* \"contracts/Market.sol\":2401:2411  bal[_addr] */\n      dup4\n      and\n      0x00\n      swap1\n      dup2\n      mstore\n        /* \"contracts/Market.sol\":2401:2404  bal */\n      0x06\n        /* \"contracts/Market.sol\":2401:2411  bal[_addr] */\n      0x20\n      mstore\n      0x40\n      dup2\n      keccak256\n        /* \"contracts/Market.sol\":2401:2426  bal[_addr] -= availAmount */\n      dup1\n      sload\n        /* \"contracts/Market.sol\":2415:2426  availAmount */\n      dup4\n      swap3\n        /* \"contracts/Market.sol\":2401:2411  bal[_addr] */\n      swap1\n        /* \"contracts/Market.sol\":2401:2426  bal[_addr] -= availAmount */\n      tag_100\n      swap1\n        /* \"contracts/Market.sol\":2415:2426  availAmount */\n      dup5\n      swap1\n        /* \"contracts/Market.sol\":2401:2426  bal[_addr] -= availAmount */\n      tag_101\n      jump\t// in\n    tag_100:\n      swap1\n      swap2\n      sstore\n      pop\n      pop\n        /* \"contracts/Market.sol\":2451:2485  token.transfer(_addr, availAmount) */\n      mload(0x40)\n      shl(0xe0, 0xa9059cbb)\n      dup2\n      mstore\n      sub(shl(0xa0, 0x01), 0x01)\n        /* \"#utility.yul\":4356:4388   */\n      dup5\n      dup2\n      and\n        /* \"contracts/Market.sol\":2451:2485  token.transfer(_addr, availAmount) */\n      0x04\n      dup4\n      add\n        /* \"#utility.yul\":4338:4389   */\n      mstore\n        /* \"#utility.yul\":4405:4423   */\n      0x24\n      dup3\n      add\n        /* \"#utility.yul\":4398:4432   */\n      dup4\n      swap1\n      mstore\n        /* \"contracts/Market.sol\":2436:2448  bool success */\n      0x00\n      swap2\n        /* \"contracts/Market.sol\":2451:2456  token */\n      immutable(\"0x20d2ac2a28641786ba03eff53facea687b35e08e680a1b71922c6fc1ed1f2735\")\n        /* \"contracts/Market.sol\":2451:2465  token.transfer */\n      swap1\n      swap2\n      and\n      swap1\n      0xa9059cbb\n      swap1\n        /* \"#utility.yul\":4311:4329   */\n      0x44\n      add\n        /* \"contracts/Market.sol\":2451:2485  token.transfer(_addr, availAmount) */\n      0x20\n      mload(0x40)\n      dup1\n      dup4\n      sub\n      dup2\n      0x00\n      dup8\n      dup1\n      extcodesize\n      iszero\n      dup1\n      iszero\n      tag_104\n      jumpi\n      0x00\n      dup1\n      revert\n    tag_104:\n      pop\n      gas\n      call\n      iszero\n      dup1\n      iszero\n      tag_106\n      jumpi\n      returndatasize\n      0x00\n      dup1\n      returndatacopy\n      revert(0x00, returndatasize)\n    tag_106:\n      pop\n      pop\n      pop\n      pop\n      mload(0x40)\n      returndatasize\n      not(0x1f)\n      0x1f\n      dup3\n      add\n      and\n      dup3\n      add\n      dup1\n      0x40\n      mstore\n      pop\n      dup2\n      add\n      swap1\n      tag_107\n      swap2\n      swap1\n      tag_108\n      jump\t// in\n    tag_107:\n        /* \"contracts/Market.sol\":2436:2485  bool success = token.transfer(_addr, availAmount) */\n      swap1\n      pop\n        /* \"contracts/Market.sol\":2503:2510  success */\n      dup1\n        /* \"contracts/Market.sol\":2495:2540  require(success, \"transfer to caller failed\") */\n      tag_109\n      jumpi\n      mload(0x40)\n      shl(0xe5, 0x461bcd)\n      dup2\n      mstore\n        /* \"#utility.yul\":8263:8265   */\n      0x20\n        /* \"contracts/Market.sol\":2495:2540  require(success, \"transfer to caller failed\") */\n      0x04\n      dup3\n      add\n        /* \"#utility.yul\":8245:8266   */\n      mstore\n        /* \"#utility.yul\":8302:8304   */\n      0x19\n        /* \"#utility.yul\":8282:8300   */\n      0x24\n      dup3\n      add\n        /* \"#utility.yul\":8275:8305   */\n      mstore\n        /* \"#utility.yul\":8341:8368   */\n      0x7472616e7366657220746f2063616c6c6572206661696c656400000000000000\n        /* \"#utility.yul\":8321:8339   */\n      0x44\n      dup3\n      add\n        /* \"#utility.yul\":8314:8369   */\n      mstore\n        /* \"#utility.yul\":8386:8404   */\n      0x64\n      add\n        /* \"contracts/Market.sol\":2495:2540  require(success, \"transfer to caller failed\") */\n      tag_68\n        /* \"#utility.yul\":8235:8410   */\n      jump\n        /* \"contracts/Market.sol\":2495:2540  require(success, \"transfer to caller failed\") */\n    tag_109:\n        /* \"contracts/Market.sol\":2556:2584  Withdraw(_addr, availAmount) */\n      0x40\n      dup1\n      mload\n      sub(shl(0xa0, 0x01), 0x01)\n        /* \"#utility.yul\":4356:4388   */\n      dup7\n      and\n        /* \"#utility.yul\":4338:4389   */\n      dup2\n      mstore\n        /* \"#utility.yul\":4420:4422   */\n      0x20\n        /* \"#utility.yul\":4405:4423   */\n      dup2\n      add\n        /* \"#utility.yul\":4398:4432   */\n      dup5\n      swap1\n      mstore\n        /* \"contracts/Market.sol\":2556:2584  Withdraw(_addr, availAmount) */\n      0x884edad9ce6fa2440d8a54cc123490eb96d2768479d49ff9c7366125a9424364\n      swap2\n        /* \"#utility.yul\":4311:4329   */\n      add\n        /* \"contracts/Market.sol\":2556:2584  Withdraw(_addr, availAmount) */\n      mload(0x40)\n      dup1\n      swap2\n      sub\n      swap1\n      log1\n        /* \"contracts/Market.sol\":2601:2605  true */\n      0x01\n        /* \"contracts/Market.sol\":2594:2605  return true */\n      swap3\n      pop\n      pop\n      pop\n        /* \"@openzeppelin/contracts/security/ReentrancyGuard.sol\":2484:2485  _ */\n    tag_88:\n        /* \"@openzeppelin/contracts/security/ReentrancyGuard.sol\":1701:1702  1 */\n      0x01\n        /* \"@openzeppelin/contracts/security/ReentrancyGuard.sol\":2628:2635  _status */\n      0x00\n        /* \"@openzeppelin/contracts/security/ReentrancyGuard.sol\":2628:2650  _status = _NOT_ENTERED */\n      sstore\n        /* \"contracts/Market.sol\":2132:2612  function withdraw(address _addr) public override nonReentrant returns(bool) {... */\n      swap2\n      swap1\n      pop\n      jump\t// out\n        /* \"contracts/Market.sol\":3257:3577  function settleBet(bytes32 _bet) external override {... */\n    tag_37:\n        /* \"contracts/Market.sol\":3318:3341  bytes32[] memory _pairs */\n      0x00\n        /* \"contracts/Market.sol\":3344:3358  betPairs[_bet] */\n      dup2\n      dup2\n      mstore\n        /* \"contracts/Market.sol\":3344:3352  betPairs */\n      0x0a\n        /* \"contracts/Market.sol\":3344:3358  betPairs[_bet] */\n      0x20\n      swap1\n      dup2\n      mstore\n      0x40\n      dup1\n      dup4\n      keccak256\n        /* \"contracts/Market.sol\":3318:3358  bytes32[] memory _pairs = betPairs[_bet] */\n      dup1\n      sload\n      dup3\n      mload\n      dup2\n      dup6\n      mul\n      dup2\n      add\n      dup6\n      add\n      swap1\n      swap4\n      mstore\n      dup1\n      dup4\n      mstore\n      swap2\n      swap3\n        /* \"contracts/Market.sol\":3344:3358  betPairs[_bet] */\n      swap1\n      swap2\n        /* \"contracts/Market.sol\":3318:3358  bytes32[] memory _pairs = betPairs[_bet] */\n      swap1\n      dup4\n      add\n        /* \"contracts/Market.sol\":3344:3358  betPairs[_bet] */\n      dup3\n        /* \"contracts/Market.sol\":3318:3358  bytes32[] memory _pairs = betPairs[_bet] */\n      dup3\n      dup1\n      iszero\n      tag_114\n      jumpi\n      0x20\n      mul\n      dup3\n      add\n      swap2\n      swap1\n      0x00\n      mstore\n      keccak256(0x00, 0x20)\n      swap1\n    tag_115:\n      dup2\n      sload\n      dup2\n      mstore\n      0x20\n      add\n      swap1\n      0x01\n      add\n      swap1\n      dup1\n      dup4\n      gt\n      tag_115\n      jumpi\n    tag_114:\n      pop\n      pop\n        /* \"contracts/Market.sol\":3387:3400  _pairs.length */\n      dup4\n      mload\n        /* \"contracts/Market.sol\":3318:3358  bytes32[] memory _pairs = betPairs[_bet] */\n      swap4\n      swap5\n      pop\n        /* \"contracts/Market.sol\":3368:3384  uint pairsLength */\n      0x00\n      swap3\n      pop\n      pop\n      pop\n        /* \"contracts/Market.sol\":3410:3494  for(uint i = 0; i < pairsLength; i++){... */\n    tag_116:\n        /* \"contracts/Market.sol\":3430:3441  pairsLength */\n      dup2\n        /* \"contracts/Market.sol\":3426:3427  i */\n      dup2\n        /* \"contracts/Market.sol\":3426:3441  i < pairsLength */\n      lt\n        /* \"contracts/Market.sol\":3410:3494  for(uint i = 0; i < pairsLength; i++){... */\n      iszero\n      tag_117\n      jumpi\n        /* \"contracts/Market.sol\":3461:3483  _settlePair(_pairs[i]) */\n      tag_119\n        /* \"contracts/Market.sol\":3473:3479  _pairs */\n      dup4\n        /* \"contracts/Market.sol\":3480:3481  i */\n      dup3\n        /* \"contracts/Market.sol\":3473:3482  _pairs[i] */\n      dup2\n      mload\n      dup2\n      lt\n      tag_120\n      jumpi\n      mstore(0x00, shl(0xe0, 0x4e487b71))\n      mstore(0x04, 0x32)\n      revert(0x00, 0x24)\n    tag_120:\n      0x20\n      mul\n      0x20\n      add\n      add\n      mload\n        /* \"contracts/Market.sol\":3461:3472  _settlePair */\n      tag_121\n        /* \"contracts/Market.sol\":3461:3483  _settlePair(_pairs[i]) */\n      jump\t// in\n    tag_119:\n      pop\n        /* \"contracts/Market.sol\":3443:3446  i++ */\n      dup1\n      tag_122\n      dup2\n      tag_83\n      jump\t// in\n    tag_122:\n      swap2\n      pop\n      pop\n        /* \"contracts/Market.sol\":3410:3494  for(uint i = 0; i < pairsLength; i++){... */\n      jump(tag_116)\n    tag_117:\n      pop\n        /* \"contracts/Market.sol\":3510:3520  msg.sender */\n      caller\n        /* \"contracts/Market.sol\":3524:3525  0 */\n      0x00\n        /* \"contracts/Market.sol\":3506:3521  bal[msg.sender] */\n      swap1\n      dup2\n      mstore\n        /* \"contracts/Market.sol\":3506:3509  bal */\n      0x06\n        /* \"contracts/Market.sol\":3506:3521  bal[msg.sender] */\n      0x20\n      mstore\n      0x40\n      swap1\n      keccak256\n      sload\n        /* \"contracts/Market.sol\":3506:3525  bal[msg.sender] > 0 */\n      iszero\n        /* \"contracts/Market.sol\":3503:3571  if(bal[msg.sender] > 0){... */\n      tag_123\n      jumpi\n        /* \"contracts/Market.sol\":3540:3560  withdraw(msg.sender) */\n      tag_124\n        /* \"contracts/Market.sol\":3549:3559  msg.sender */\n      caller\n        /* \"contracts/Market.sol\":3540:3548  withdraw */\n      tag_32\n        /* \"contracts/Market.sol\":3540:3560  withdraw(msg.sender) */\n      jump\t// in\n    tag_124:\n      pop\n        /* \"contracts/Market.sol\":3503:3571  if(bal[msg.sender] > 0){... */\n    tag_123:\n        /* \"contracts/Market.sol\":3257:3577  function settleBet(bytes32 _bet) external override {... */\n      pop\n      pop\n      pop\n      jump\t// out\n        /* \"contracts/Market.sol\":4941:6284  function addBet(... */\n    tag_41:\n        /* \"contracts/Market.sol\":5180:5203  app.isBlack(msg.sender) */\n      mload(0x40)\n      shl(0xe0, 0x332daccf)\n      dup2\n      mstore\n        /* \"contracts/Market.sol\":5192:5202  msg.sender */\n      caller\n        /* \"contracts/Market.sol\":5180:5203  app.isBlack(msg.sender) */\n      0x04\n      dup3\n      add\n        /* \"#utility.yul\":2817:2868   */\n      mstore\n        /* \"contracts/Market.sol\":5148:5155  bytes32 */\n      0x00\n      swap1\n        /* \"contracts/Market.sol\":5180:5183  app */\n      immutable(\"0xd252627c3a7ddb3e9969d764fe6d38be47e2139c12c223f8ce16b1e3a5ed7dbb\")\n      sub(shl(0xa0, 0x01), 0x01)\n        /* \"contracts/Market.sol\":5180:5191  app.isBlack */\n      and\n      swap1\n      0x332daccf\n      swap1\n        /* \"#utility.yul\":2790:2808   */\n      0x24\n      add\n        /* \"contracts/Market.sol\":5180:5203  app.isBlack(msg.sender) */\n      0x20\n      mload(0x40)\n      dup1\n      dup4\n      sub\n      dup2\n      dup7\n      dup1\n      extcodesize\n      iszero\n      dup1\n      iszero\n      tag_127\n      jumpi\n      0x00\n      dup1\n      revert\n    tag_127:\n      pop\n      gas\n      staticcall\n      iszero\n      dup1\n      iszero\n      tag_129\n      jumpi\n      returndatasize\n      0x00\n      dup1\n      returndatacopy\n      revert(0x00, returndatasize)\n    tag_129:\n      pop\n      pop\n      pop\n      pop\n      mload(0x40)\n      returndatasize\n      not(0x1f)\n      0x1f\n      dup3\n      add\n      and\n      dup3\n      add\n      dup1\n      0x40\n      mstore\n      pop\n      dup2\n      add\n      swap1\n      tag_130\n      swap2\n      swap1\n      tag_108\n      jump\t// in\n    tag_130:\n        /* \"contracts/Market.sol\":5179:5203  !app.isBlack(msg.sender) */\n      iszero\n        /* \"contracts/Market.sol\":5171:5217  require(!app.isBlack(msg.sender), \"blacklist\") */\n      tag_131\n      jumpi\n      mload(0x40)\n      shl(0xe5, 0x461bcd)\n      dup2\n      mstore\n        /* \"#utility.yul\":9669:9671   */\n      0x20\n        /* \"contracts/Market.sol\":5171:5217  require(!app.isBlack(msg.sender), \"blacklist\") */\n      0x04\n      dup3\n      add\n        /* \"#utility.yul\":9651:9672   */\n      mstore\n        /* \"#utility.yul\":9708:9709   */\n      0x09\n        /* \"#utility.yul\":9688:9706   */\n      0x24\n      dup3\n      add\n        /* \"#utility.yul\":9681:9710   */\n      mstore\n      shl(0xba, 0x189b1858dadb1a5cdd)\n        /* \"#utility.yul\":9726:9744   */\n      0x44\n      dup3\n      add\n        /* \"#utility.yul\":9719:9758   */\n      mstore\n        /* \"#utility.yul\":9775:9793   */\n      0x64\n      add\n        /* \"contracts/Market.sol\":5171:5217  require(!app.isBlack(msg.sender), \"blacklist\") */\n      tag_68\n        /* \"#utility.yul\":9641:9799   */\n      jump\n        /* \"contracts/Market.sol\":5171:5217  require(!app.isBlack(msg.sender), \"blacklist\") */\n    tag_131:\n        /* \"contracts/Market.sol\":5235:5241  status */\n      sload(0x03)\n        /* \"contracts/Market.sol\":5235:5246  status == 0 */\n      iszero\n        /* \"contracts/Market.sol\":5227:5268  require(status == 0, \"market not active\") */\n      tag_134\n      jumpi\n      mload(0x40)\n      shl(0xe5, 0x461bcd)\n      dup2\n      mstore\n        /* \"#utility.yul\":6522:6524   */\n      0x20\n        /* \"contracts/Market.sol\":5227:5268  require(status == 0, \"market not active\") */\n      0x04\n      dup3\n      add\n        /* \"#utility.yul\":6504:6525   */\n      mstore\n        /* \"#utility.yul\":6561:6563   */\n      0x11\n        /* \"#utility.yul\":6541:6559   */\n      0x24\n      dup3\n      add\n        /* \"#utility.yul\":6534:6564   */\n      mstore\n      shl(0x78, 0x6d61726b6574206e6f7420616374697665)\n        /* \"#utility.yul\":6580:6598   */\n      0x44\n      dup3\n      add\n        /* \"#utility.yul\":6573:6620   */\n      mstore\n        /* \"#utility.yul\":6637:6655   */\n      0x64\n      add\n        /* \"contracts/Market.sol\":5227:5268  require(status == 0, \"market not active\") */\n      tag_68\n        /* \"#utility.yul\":6494:6661   */\n      jump\n        /* \"contracts/Market.sol\":5227:5268  require(status == 0, \"market not active\") */\n    tag_134:\n        /* \"contracts/Market.sol\":5286:5291  _side */\n      dup3\n        /* \"contracts/Market.sol\":5295:5296  1 */\n      0x01\n        /* \"contracts/Market.sol\":5286:5296  _side == 1 */\n      eq\n        /* \"contracts/Market.sol\":5286:5310  _side == 1 || _side == 2 */\n      dup1\n      tag_137\n      jumpi\n      pop\n        /* \"contracts/Market.sol\":5300:5305  _side */\n      dup3\n        /* \"contracts/Market.sol\":5309:5310  2 */\n      0x02\n        /* \"contracts/Market.sol\":5300:5310  _side == 2 */\n      eq\n        /* \"contracts/Market.sol\":5286:5310  _side == 1 || _side == 2 */\n    tag_137:\n        /* \"contracts/Market.sol\":5278:5327  require(_side == 1 || _side == 2, \"invalid side\") */\n      tag_138\n      jumpi\n      mload(0x40)\n      shl(0xe5, 0x461bcd)\n      dup2\n      mstore\n        /* \"#utility.yul\":7922:7924   */\n      0x20\n        /* \"contracts/Market.sol\":5278:5327  require(_side == 1 || _side == 2, \"invalid side\") */\n      0x04\n      dup3\n      add\n        /* \"#utility.yul\":7904:7925   */\n      mstore\n        /* \"#utility.yul\":7961:7963   */\n      0x0c\n        /* \"#utility.yul\":7941:7959   */\n      0x24\n      dup3\n      add\n        /* \"#utility.yul\":7934:7964   */\n      mstore\n      shl(0xa0, 0x696e76616c69642073696465)\n        /* \"#utility.yul\":7980:7998   */\n      0x44\n      dup3\n      add\n        /* \"#utility.yul\":7973:8015   */\n      mstore\n        /* \"#utility.yul\":8032:8050   */\n      0x64\n      add\n        /* \"contracts/Market.sol\":5278:5327  require(_side == 1 || _side == 2, \"invalid side\") */\n      tag_68\n        /* \"#utility.yul\":7894:8056   */\n      jump\n        /* \"contracts/Market.sol\":5278:5327  require(_side == 1 || _side == 2, \"invalid side\") */\n    tag_138:\n        /* \"contracts/Market.sol\":5345:5372  token.balanceOf(msg.sender) */\n      mload(0x40)\n      shl(0xe0, 0x70a08231)\n      dup2\n      mstore\n        /* \"contracts/Market.sol\":5361:5371  msg.sender */\n      caller\n        /* \"contracts/Market.sol\":5345:5372  token.balanceOf(msg.sender) */\n      0x04\n      dup3\n      add\n        /* \"#utility.yul\":2817:2868   */\n      mstore\n        /* \"contracts/Market.sol\":5376:5382  _stake */\n      dup6\n      swap1\n        /* \"contracts/Market.sol\":5345:5350  token */\n      immutable(\"0x20d2ac2a28641786ba03eff53facea687b35e08e680a1b71922c6fc1ed1f2735\")\n      sub(shl(0xa0, 0x01), 0x01)\n        /* \"contracts/Market.sol\":5345:5360  token.balanceOf */\n      and\n      swap1\n      0x70a08231\n      swap1\n        /* \"#utility.yul\":2790:2808   */\n      0x24\n      add\n        /* \"contracts/Market.sol\":5345:5372  token.balanceOf(msg.sender) */\n      0x20\n      mload(0x40)\n      dup1\n      dup4\n      sub\n      dup2\n      dup7\n      dup1\n      extcodesize\n      iszero\n      dup1\n      iszero\n      tag_142\n      jumpi\n      0x00\n      dup1\n      revert\n    tag_142:\n      pop\n      gas\n      staticcall\n      iszero\n      dup1\n      iszero\n      tag_144\n      jumpi\n      returndatasize\n      0x00\n      dup1\n      returndatacopy\n      revert(0x00, returndatasize)\n    tag_144:\n      pop\n      pop\n      pop\n      pop\n      mload(0x40)\n      returndatasize\n      not(0x1f)\n      0x1f\n      dup3\n      add\n      and\n      dup3\n      add\n      dup1\n      0x40\n      mstore\n      pop\n      dup2\n      add\n      swap1\n      tag_145\n      swap2\n      swap1\n      tag_95\n      jump\t// in\n    tag_145:\n        /* \"contracts/Market.sol\":5345:5382  token.balanceOf(msg.sender) >= _stake */\n      lt\n      iszero\n        /* \"contracts/Market.sol\":5337:5411  require(token.balanceOf(msg.sender) >= _stake,\"not enough token balalnce\") */\n      tag_146\n      jumpi\n      mload(0x40)\n      shl(0xe5, 0x461bcd)\n      dup2\n      mstore\n        /* \"#utility.yul\":8966:8968   */\n      0x20\n        /* \"contracts/Market.sol\":5337:5411  require(token.balanceOf(msg.sender) >= _stake,\"not enough token balalnce\") */\n      0x04\n      dup3\n      add\n        /* \"#utility.yul\":8948:8969   */\n      mstore\n        /* \"#utility.yul\":9005:9007   */\n      0x19\n        /* \"#utility.yul\":8985:9003   */\n      0x24\n      dup3\n      add\n        /* \"#utility.yul\":8978:9008   */\n      mstore\n        /* \"#utility.yul\":9044:9071   */\n      0x6e6f7420656e6f75676820746f6b656e2062616c616c6e636500000000000000\n        /* \"#utility.yul\":9024:9042   */\n      0x44\n      dup3\n      add\n        /* \"#utility.yul\":9017:9072   */\n      mstore\n        /* \"#utility.yul\":9089:9107   */\n      0x64\n      add\n        /* \"contracts/Market.sol\":5337:5411  require(token.balanceOf(msg.sender) >= _stake,\"not enough token balalnce\") */\n      tag_68\n        /* \"#utility.yul\":8938:9113   */\n      jump\n        /* \"contracts/Market.sol\":5337:5411  require(token.balanceOf(msg.sender) >= _stake,\"not enough token balalnce\") */\n    tag_146:\n        /* \"contracts/Market.sol\":5429:5471  token.allowance(msg.sender, address(this)) */\n      mload(0x40)\n      shl(0xe1, 0x6eb1769f)\n      dup2\n      mstore\n        /* \"contracts/Market.sol\":5445:5455  msg.sender */\n      caller\n        /* \"contracts/Market.sol\":5429:5471  token.allowance(msg.sender, address(this)) */\n      0x04\n      dup3\n      add\n        /* \"#utility.yul\":3091:3125   */\n      mstore\n        /* \"contracts/Market.sol\":5465:5469  this */\n      address\n        /* \"#utility.yul\":3141:3159   */\n      0x24\n      dup3\n      add\n        /* \"#utility.yul\":3134:3177   */\n      mstore\n        /* \"contracts/Market.sol\":5475:5481  _stake */\n      dup6\n      swap1\n        /* \"contracts/Market.sol\":5429:5434  token */\n      immutable(\"0x20d2ac2a28641786ba03eff53facea687b35e08e680a1b71922c6fc1ed1f2735\")\n      sub(shl(0xa0, 0x01), 0x01)\n        /* \"contracts/Market.sol\":5429:5444  token.allowance */\n      and\n      swap1\n      0xdd62ed3e\n      swap1\n        /* \"#utility.yul\":3026:3044   */\n      0x44\n      add\n        /* \"contracts/Market.sol\":5429:5471  token.allowance(msg.sender, address(this)) */\n      0x20\n      mload(0x40)\n      dup1\n      dup4\n      sub\n      dup2\n      dup7\n      dup1\n      extcodesize\n      iszero\n      dup1\n      iszero\n      tag_151\n      jumpi\n      0x00\n      dup1\n      revert\n    tag_151:\n      pop\n      gas\n      staticcall\n      iszero\n      dup1\n      iszero\n      tag_153\n      jumpi\n      returndatasize\n      0x00\n      dup1\n      returndatacopy\n      revert(0x00, returndatasize)\n    tag_153:\n      pop\n      pop\n      pop\n      pop\n      mload(0x40)\n      returndatasize\n      not(0x1f)\n      0x1f\n      dup3\n      add\n      and\n      dup3\n      add\n      dup1\n      0x40\n      mstore\n      pop\n      dup2\n      add\n      swap1\n      tag_154\n      swap2\n      swap1\n      tag_95\n      jump\t// in\n    tag_154:\n        /* \"contracts/Market.sol\":5429:5481  token.allowance(msg.sender, address(this)) >= _stake */\n      lt\n      iszero\n        /* \"contracts/Market.sol\":5421:5505  require(token.allowance(msg.sender, address(this)) >= _stake,\"not enough allowance\") */\n      tag_155\n      jumpi\n      mload(0x40)\n      shl(0xe5, 0x461bcd)\n      dup2\n      mstore\n        /* \"#utility.yul\":9320:9322   */\n      0x20\n        /* \"contracts/Market.sol\":5421:5505  require(token.allowance(msg.sender, address(this)) >= _stake,\"not enough allowance\") */\n      0x04\n      dup3\n      add\n        /* \"#utility.yul\":9302:9323   */\n      mstore\n        /* \"#utility.yul\":9359:9361   */\n      0x14\n        /* \"#utility.yul\":9339:9357   */\n      0x24\n      dup3\n      add\n        /* \"#utility.yul\":9332:9362   */\n      mstore\n      shl(0x60, 0x6e6f7420656e6f75676820616c6c6f77616e6365)\n        /* \"#utility.yul\":9378:9396   */\n      0x44\n      dup3\n      add\n        /* \"#utility.yul\":9371:9421   */\n      mstore\n        /* \"#utility.yul\":9438:9456   */\n      0x64\n      add\n        /* \"contracts/Market.sol\":5421:5505  require(token.allowance(msg.sender, address(this)) >= _stake,\"not enough allowance\") */\n      tag_68\n        /* \"#utility.yul\":9292:9462   */\n      jump\n        /* \"contracts/Market.sol\":5421:5505  require(token.allowance(msg.sender, address(this)) >= _stake,\"not enough allowance\") */\n    tag_155:\n        /* \"contracts/Market.sol\":5533:5536  app */\n      immutable(\"0xd252627c3a7ddb3e9969d764fe6d38be47e2139c12c223f8ce16b1e3a5ed7dbb\")\n      sub(shl(0xa0, 0x01), 0x01)\n        /* \"contracts/Market.sol\":5533:5545  app.minStake */\n      and\n      0x375b3c0a\n        /* \"contracts/Market.sol\":5533:5547  app.minStake() */\n      mload(0x40)\n      dup2\n      0xffffffff\n      and\n      0xe0\n      shl\n      dup2\n      mstore\n      0x04\n      add\n      0x20\n      mload(0x40)\n      dup1\n      dup4\n      sub\n      dup2\n      dup7\n      dup1\n      extcodesize\n      iszero\n      dup1\n      iszero\n      tag_158\n      jumpi\n      0x00\n      dup1\n      revert\n    tag_158:\n      pop\n      gas\n      staticcall\n      iszero\n      dup1\n      iszero\n      tag_160\n      jumpi\n      returndatasize\n      0x00\n      dup1\n      returndatacopy\n      revert(0x00, returndatasize)\n    tag_160:\n      pop\n      pop\n      pop\n      pop\n      mload(0x40)\n      returndatasize\n      not(0x1f)\n      0x1f\n      dup3\n      add\n      and\n      dup3\n      add\n      dup1\n      0x40\n      mstore\n      pop\n      dup2\n      add\n      swap1\n      tag_161\n      swap2\n      swap1\n      tag_95\n      jump\t// in\n    tag_161:\n        /* \"contracts/Market.sol\":5523:5529  _stake */\n      dup6\n        /* \"contracts/Market.sol\":5523:5547  _stake >= app.minStake() */\n      lt\n      iszero\n        /* \"contracts/Market.sol\":5515:5570  require(_stake >= app.minStake(),\"less than min stake\") */\n      tag_162\n      jumpi\n      mload(0x40)\n      shl(0xe5, 0x461bcd)\n      dup2\n      mstore\n        /* \"#utility.yul\":6174:6176   */\n      0x20\n        /* \"contracts/Market.sol\":5515:5570  require(_stake >= app.minStake(),\"less than min stake\") */\n      0x04\n      dup3\n      add\n        /* \"#utility.yul\":6156:6177   */\n      mstore\n        /* \"#utility.yul\":6213:6215   */\n      0x13\n        /* \"#utility.yul\":6193:6211   */\n      0x24\n      dup3\n      add\n        /* \"#utility.yul\":6186:6216   */\n      mstore\n      shl(0x68, 0x6c657373207468616e206d696e207374616b65)\n        /* \"#utility.yul\":6232:6250   */\n      0x44\n      dup3\n      add\n        /* \"#utility.yul\":6225:6274   */\n      mstore\n        /* \"#utility.yul\":6291:6309   */\n      0x64\n      add\n        /* \"contracts/Market.sol\":5515:5570  require(_stake >= app.minStake(),\"less than min stake\") */\n      tag_68\n        /* \"#utility.yul\":6146:6315   */\n      jump\n        /* \"contracts/Market.sol\":5515:5570  require(_stake >= app.minStake(),\"less than min stake\") */\n    tag_162:\n        /* \"contracts/Market.sol\":5601:5654  token.transferFrom(msg.sender, address(this), _stake) */\n      mload(0x40)\n      shl(0xe0, 0x23b872dd)\n      dup2\n      mstore\n        /* \"contracts/Market.sol\":5620:5630  msg.sender */\n      caller\n        /* \"contracts/Market.sol\":5601:5654  token.transferFrom(msg.sender, address(this), _stake) */\n      0x04\n      dup3\n      add\n        /* \"#utility.yul\":4024:4058   */\n      mstore\n        /* \"contracts/Market.sol\":5640:5644  this */\n      address\n        /* \"#utility.yul\":4074:4092   */\n      0x24\n      dup3\n      add\n        /* \"#utility.yul\":4067:4110   */\n      mstore\n        /* \"#utility.yul\":4126:4144   */\n      0x44\n      dup2\n      add\n        /* \"#utility.yul\":4119:4153   */\n      dup7\n      swap1\n      mstore\n        /* \"contracts/Market.sol\":5601:5606  token */\n      immutable(\"0x20d2ac2a28641786ba03eff53facea687b35e08e680a1b71922c6fc1ed1f2735\")\n      sub(shl(0xa0, 0x01), 0x01)\n        /* \"contracts/Market.sol\":5601:5619  token.transferFrom */\n      and\n      swap1\n      0x23b872dd\n      swap1\n        /* \"#utility.yul\":3959:3977   */\n      0x64\n      add\n        /* \"contracts/Market.sol\":5601:5654  token.transferFrom(msg.sender, address(this), _stake) */\n      0x20\n      mload(0x40)\n      dup1\n      dup4\n      sub\n      dup2\n      0x00\n      dup8\n      dup1\n      extcodesize\n      iszero\n      dup1\n      iszero\n      tag_167\n      jumpi\n      0x00\n      dup1\n      revert\n    tag_167:\n      pop\n      gas\n      call\n      iszero\n      dup1\n      iszero\n      tag_169\n      jumpi\n      returndatasize\n      0x00\n      dup1\n      returndatacopy\n      revert(0x00, returndatasize)\n    tag_169:\n      pop\n      pop\n      pop\n      pop\n      mload(0x40)\n      returndatasize\n      not(0x1f)\n      0x1f\n      dup3\n      add\n      and\n      dup3\n      add\n      dup1\n      0x40\n      mstore\n      pop\n      dup2\n      add\n      swap1\n      tag_170\n      swap2\n      swap1\n      tag_108\n      jump\t// in\n    tag_170:\n        /* \"contracts/Market.sol\":5580:5707  require(... */\n      tag_171\n      jumpi\n      mload(0x40)\n      shl(0xe5, 0x461bcd)\n      dup2\n      mstore\n        /* \"#utility.yul\":6868:6870   */\n      0x20\n        /* \"contracts/Market.sol\":5580:5707  require(... */\n      0x04\n      dup3\n      add\n        /* \"#utility.yul\":6850:6871   */\n      mstore\n        /* \"#utility.yul\":6907:6909   */\n      0x1b\n        /* \"#utility.yul\":6887:6905   */\n      0x24\n      dup3\n      add\n        /* \"#utility.yul\":6880:6910   */\n      mstore\n        /* \"#utility.yul\":6946:6975   */\n      0x7472616e736665722066726f6d2063616c6c6572206661696c65640000000000\n        /* \"#utility.yul\":6926:6944   */\n      0x44\n      dup3\n      add\n        /* \"#utility.yul\":6919:6976   */\n      mstore\n        /* \"#utility.yul\":6993:7011   */\n      0x64\n      add\n        /* \"contracts/Market.sol\":5580:5707  require(... */\n      tag_68\n        /* \"#utility.yul\":6840:7017   */\n      jump\n        /* \"contracts/Market.sol\":5580:5707  require(... */\n    tag_171:\n        /* \"contracts/Market.sol\":5717:5732  bytes32 betHash */\n      0x00\n        /* \"contracts/Market.sol\":5735:5897  _createBet(... */\n      tag_174\n        /* \"contracts/Market.sol\":5759:5766  _better */\n      dup9\n        /* \"contracts/Market.sol\":5780:5790  _affiliate */\n      dup9\n        /* \"contracts/Market.sol\":5804:5810  _stake */\n      dup9\n        /* \"contracts/Market.sol\":5717:5732  bytes32 betHash */\n      dup5\n        /* \"contracts/Market.sol\":5856:5867  _odds - 100 */\n      tag_175\n        /* \"contracts/Market.sol\":5864:5867  100 */\n      0x64\n        /* \"contracts/Market.sol\":5856:5861  _odds */\n      dup12\n        /* \"contracts/Market.sol\":5856:5867  _odds - 100 */\n      tag_101\n      jump\t// in\n    tag_175:\n        /* \"contracts/Market.sol\":5840:5851  _odds * 100 */\n      tag_176\n        /* \"contracts/Market.sol\":5840:5845  _odds */\n      dup12\n        /* \"contracts/Market.sol\":5848:5851  100 */\n      0x64\n        /* \"contracts/Market.sol\":5840:5851  _odds * 100 */\n      tag_177\n      jump\t// in\n    tag_176:\n        /* \"contracts/Market.sol\":5839:5868  (_odds * 100) / (_odds - 100) */\n      tag_178\n      swap2\n      swap1\n      tag_179\n      jump\t// in\n    tag_178:\n        /* \"contracts/Market.sol\":5882:5887  _side */\n      dup10\n        /* \"contracts/Market.sol\":5735:5745  _createBet */\n      tag_180\n        /* \"contracts/Market.sol\":5735:5897  _createBet(... */\n      jump\t// in\n    tag_174:\n        /* \"contracts/Market.sol\":6185:6253  BetCreated(msg.sender, address(this), betHash, _stake, _odds, _side) */\n      0x40\n      dup1\n      mload\n        /* \"contracts/Market.sol\":6196:6206  msg.sender */\n      caller\n        /* \"#utility.yul\":3513:3547   */\n      dup2\n      mstore\n        /* \"contracts/Market.sol\":6216:6220  this */\n      address\n        /* \"#utility.yul\":3578:3580   */\n      0x20\n        /* \"#utility.yul\":3563:3581   */\n      dup3\n      add\n        /* \"#utility.yul\":3556:3599   */\n      mstore\n        /* \"#utility.yul\":3615:3633   */\n      swap1\n      dup2\n      add\n        /* \"#utility.yul\":3608:3642   */\n      dup3\n      swap1\n      mstore\n        /* \"#utility.yul\":3673:3675   */\n      0x60\n        /* \"#utility.yul\":3658:3676   */\n      dup2\n      add\n        /* \"#utility.yul\":3651:3685   */\n      dup9\n      swap1\n      mstore\n        /* \"#utility.yul\":3716:3719   */\n      0x80\n        /* \"#utility.yul\":3701:3720   */\n      dup2\n      add\n        /* \"#utility.yul\":3694:3729   */\n      dup8\n      swap1\n      mstore\n        /* \"#utility.yul\":3493:3496   */\n      0xa0\n        /* \"#utility.yul\":3745:3764   */\n      dup2\n      add\n        /* \"#utility.yul\":3738:3773   */\n      dup7\n      swap1\n      mstore\n        /* \"contracts/Market.sol\":5717:5897  bytes32 betHash = _createBet(... */\n      swap1\n      swap2\n      pop\n        /* \"contracts/Market.sol\":6185:6253  BetCreated(msg.sender, address(this), betHash, _stake, _odds, _side) */\n      0x618f358bb45538682ade624a4a1959053d9dabd20fe300508034b879681b37be\n      swap1\n        /* \"#utility.yul\":3462:3465   */\n      0xc0\n        /* \"#utility.yul\":3447:3466   */\n      add\n        /* \"contracts/Market.sol\":6185:6253  BetCreated(msg.sender, address(this), betHash, _stake, _odds, _side) */\n      mload(0x40)\n      dup1\n      swap2\n      sub\n      swap1\n      log1\n        /* \"contracts/Market.sol\":6270:6277  betHash */\n      swap8\n        /* \"contracts/Market.sol\":4941:6284  function addBet(... */\n      swap7\n      pop\n      pop\n      pop\n      pop\n      pop\n      pop\n      pop\n      jump\t// out\n        /* \"contracts/Market.sol\":2620:3009  function withdrawPending(bytes32 _bet) public override {... */\n    tag_46:\n        /* \"contracts/Market.sol\":2685:2712  Struct.MarketBet memory bet */\n      0x00\n        /* \"contracts/Market.sol\":2715:2729  betsInfo[_bet] */\n      dup2\n      dup2\n      mstore\n        /* \"contracts/Market.sol\":2715:2723  betsInfo */\n      0x07\n        /* \"contracts/Market.sol\":2715:2729  betsInfo[_bet] */\n      0x20\n      swap1\n      dup2\n      mstore\n      0x40\n      swap2\n      dup3\n      swap1\n      keccak256\n        /* \"contracts/Market.sol\":2685:2729  Struct.MarketBet memory bet = betsInfo[_bet] */\n      dup3\n      mload\n      0xc0\n      dup2\n      add\n      dup5\n      mstore\n      dup2\n      sload\n      sub(shl(0xa0, 0x01), 0x01)\n      swap1\n      dup2\n      and\n      dup1\n      dup4\n      mstore\n      0x01\n      dup5\n      add\n      sload\n      swap1\n      swap2\n      and\n      swap4\n      dup3\n      add\n      swap4\n      swap1\n      swap4\n      mstore\n      0x02\n      dup3\n      add\n      sload\n      swap4\n      dup2\n      add\n      swap4\n      swap1\n      swap4\n      mstore\n      0x03\n      dup2\n      add\n      sload\n      0x60\n      dup5\n      add\n      mstore\n      0x04\n      dup2\n      add\n      sload\n      0x80\n      dup5\n      add\n      mstore\n      0x05\n      add\n      sload\n      0xa0\n      dup4\n      add\n      mstore\n        /* \"contracts/Market.sol\":2747:2757  msg.sender */\n      caller\n        /* \"contracts/Market.sol\":2747:2771  msg.sender == bet.better */\n      eq\n        /* \"contracts/Market.sol\":2739:2795  require(msg.sender == bet.better, \"unauthorized caller\") */\n      tag_185\n      jumpi\n      mload(0x40)\n      shl(0xe5, 0x461bcd)\n      dup2\n      mstore\n        /* \"#utility.yul\":7224:7226   */\n      0x20\n        /* \"contracts/Market.sol\":2739:2795  require(msg.sender == bet.better, \"unauthorized caller\") */\n      0x04\n      dup3\n      add\n        /* \"#utility.yul\":7206:7227   */\n      mstore\n        /* \"#utility.yul\":7263:7265   */\n      0x13\n        /* \"#utility.yul\":7243:7261   */\n      0x24\n      dup3\n      add\n        /* \"#utility.yul\":7236:7266   */\n      mstore\n      shl(0x69, 0x3ab730baba3437b934bd32b21031b0b63632b9)\n        /* \"#utility.yul\":7282:7300   */\n      0x44\n      dup3\n      add\n        /* \"#utility.yul\":7275:7324   */\n      mstore\n        /* \"#utility.yul\":7341:7359   */\n      0x64\n      add\n        /* \"contracts/Market.sol\":2739:2795  require(msg.sender == bet.better, \"unauthorized caller\") */\n      tag_68\n        /* \"#utility.yul\":7196:7365   */\n      jump\n        /* \"contracts/Market.sol\":2739:2795  require(msg.sender == bet.better, \"unauthorized caller\") */\n    tag_185:\n        /* \"contracts/Market.sol\":2805:2818  uint remStake */\n      0x00\n        /* \"contracts/Market.sol\":2833:2836  bet */\n      dup2\n        /* \"contracts/Market.sol\":2833:2844  bet.matched */\n      0x60\n      add\n      mload\n        /* \"contracts/Market.sol\":2821:2824  bet */\n      dup3\n        /* \"contracts/Market.sol\":2821:2830  bet.stake */\n      0x40\n      add\n      mload\n        /* \"contracts/Market.sol\":2821:2844  bet.stake - bet.matched */\n      tag_187\n      swap2\n      swap1\n      tag_101\n      jump\t// in\n    tag_187:\n        /* \"contracts/Market.sol\":2858:2868  bet.better */\n      dup3\n      mload\n      sub(shl(0xa0, 0x01), 0x01)\n        /* \"contracts/Market.sol\":2854:2869  bal[bet.better] */\n      and\n      0x00\n      swap1\n      dup2\n      mstore\n        /* \"contracts/Market.sol\":2854:2857  bal */\n      0x06\n        /* \"contracts/Market.sol\":2854:2869  bal[bet.better] */\n      0x20\n      mstore\n      0x40\n      dup2\n      keccak256\n        /* \"contracts/Market.sol\":2854:2881  bal[bet.better] += remStake */\n      dup1\n      sload\n        /* \"contracts/Market.sol\":2805:2844  uint remStake = bet.stake - bet.matched */\n      swap3\n      swap4\n      pop\n      dup4\n      swap3\n        /* \"contracts/Market.sol\":2854:2869  bal[bet.better] */\n      swap1\n      swap2\n      swap1\n        /* \"contracts/Market.sol\":2854:2881  bal[bet.better] += remStake */\n      tag_188\n      swap1\n        /* \"contracts/Market.sol\":2805:2844  uint remStake = bet.stake - bet.matched */\n      dup5\n      swap1\n        /* \"contracts/Market.sol\":2854:2881  bal[bet.better] += remStake */\n      tag_189\n      jump\t// in\n    tag_188:\n      swap1\n      swap2\n      sstore\n      pop\n      pop\n        /* \"contracts/Market.sol\":2916:2925  bet.stake */\n      0x40\n      dup1\n      dup4\n      add\n      mload\n        /* \"contracts/Market.sol\":2891:2905  betsInfo[_bet] */\n      0x00\n      dup6\n      dup2\n      mstore\n        /* \"contracts/Market.sol\":2891:2899  betsInfo */\n      0x07\n        /* \"contracts/Market.sol\":2891:2905  betsInfo[_bet] */\n      0x20\n      swap1\n      dup2\n      mstore\n      dup4\n      dup3\n      keccak256\n        /* \"contracts/Market.sol\":2891:2913  betsInfo[_bet].matched */\n      0x03\n      add\n        /* \"contracts/Market.sol\":2891:2925  betsInfo[_bet].matched = bet.stake */\n      swap3\n      swap1\n      swap3\n      sstore\n        /* \"contracts/Market.sol\":2942:2952  msg.sender */\n      caller\n        /* \"contracts/Market.sol\":2938:2953  bal[msg.sender] */\n      dup2\n      mstore\n        /* \"contracts/Market.sol\":2938:2941  bal */\n      0x06\n        /* \"contracts/Market.sol\":2938:2953  bal[msg.sender] */\n      swap1\n      swap2\n      mstore\n      keccak256\n      sload\n        /* \"contracts/Market.sol\":2938:2957  bal[msg.sender] > 0 */\n      iszero\n        /* \"contracts/Market.sol\":2935:3003  if(bal[msg.sender] > 0){... */\n      tag_123\n      jumpi\n        /* \"contracts/Market.sol\":2972:2992  withdraw(msg.sender) */\n      tag_124\n        /* \"contracts/Market.sol\":2981:2991  msg.sender */\n      caller\n        /* \"contracts/Market.sol\":2972:2980  withdraw */\n      tag_32\n        /* \"contracts/Market.sol\":2972:2992  withdraw(msg.sender) */\n      jump\t// in\n        /* \"contracts/Market.sol\":3936:4347  function settle(uint256 _winningSide)... */\n    tag_50:\n        /* \"contracts/Market.sol\":1046:1051  owner */\n      sload(0x01)\n        /* \"contracts/Market.sol\":4044:4048  bool */\n      0x00\n      swap1\n      sub(shl(0xa0, 0x01), 0x01)\n        /* \"contracts/Market.sol\":1046:1051  owner */\n      and\n        /* \"contracts/Market.sol\":1032:1042  msg.sender */\n      caller\n        /* \"contracts/Market.sol\":1032:1051  msg.sender == owner */\n      eq\n      dup1\n        /* \"contracts/Market.sol\":1032:1114  msg.sender == owner ... */\n      tag_193\n      jumpi\n      pop\n        /* \"contracts/Market.sol\":1095:1098  app */\n      immutable(\"0xd252627c3a7ddb3e9969d764fe6d38be47e2139c12c223f8ce16b1e3a5ed7dbb\")\n      sub(shl(0xa0, 0x01), 0x01)\n        /* \"contracts/Market.sol\":1095:1112  app.contractOwner */\n      and\n      0xce606ee0\n        /* \"contracts/Market.sol\":1095:1114  app.contractOwner() */\n      mload(0x40)\n      dup2\n      0xffffffff\n      and\n      0xe0\n      shl\n      dup2\n      mstore\n      0x04\n      add\n      0x20\n      mload(0x40)\n      dup1\n      dup4\n      sub\n      dup2\n      dup7\n      dup1\n      extcodesize\n      iszero\n      dup1\n      iszero\n      tag_194\n      jumpi\n      0x00\n      dup1\n      revert\n    tag_194:\n      pop\n      gas\n      staticcall\n      iszero\n      dup1\n      iszero\n      tag_196\n      jumpi\n      returndatasize\n      0x00\n      dup1\n      returndatacopy\n      revert(0x00, returndatasize)\n    tag_196:\n      pop\n      pop\n      pop\n      pop\n      mload(0x40)\n      returndatasize\n      not(0x1f)\n      0x1f\n      dup3\n      add\n      and\n      dup3\n      add\n      dup1\n      0x40\n      mstore\n      pop\n      dup2\n      add\n      swap1\n      tag_197\n      swap2\n      swap1\n      tag_198\n      jump\t// in\n    tag_197:\n      sub(shl(0xa0, 0x01), 0x01)\n        /* \"contracts/Market.sol\":1081:1114  msg.sender == app.contractOwner() */\n      and\n        /* \"contracts/Market.sol\":1081:1091  msg.sender */\n      caller\n      sub(shl(0xa0, 0x01), 0x01)\n        /* \"contracts/Market.sol\":1081:1114  msg.sender == app.contractOwner() */\n      and\n      eq\n        /* \"contracts/Market.sol\":1032:1114  msg.sender == owner ... */\n    tag_193:\n        /* \"contracts/Market.sol\":1032:1163  msg.sender == owner ... */\n      dup1\n      tag_199\n      jumpi\n      pop\n        /* \"contracts/Market.sol\":1156:1163  factory */\n      and(sub(shl(0xa0, 0x01), 0x01), sload(0x02))\n        /* \"contracts/Market.sol\":1142:1152  msg.sender */\n      caller\n        /* \"contracts/Market.sol\":1142:1163  msg.sender == factory */\n      eq\n        /* \"contracts/Market.sol\":1032:1163  msg.sender == owner ... */\n    tag_199:\n        /* \"contracts/Market.sol\":1011:1210  require(... */\n      tag_200\n      jumpi\n      mload(0x40)\n      shl(0xe5, 0x461bcd)\n      dup2\n      mstore\n      0x04\n      add\n      tag_68\n      swap1\n      tag_202\n      jump\t// in\n    tag_200:\n        /* \"contracts/Market.sol\":4067:4095  setWinningSide(_winningSide) */\n      tag_204\n        /* \"contracts/Market.sol\":4082:4094  _winningSide */\n      dup3\n        /* \"contracts/Market.sol\":4067:4081  setWinningSide */\n      tag_57\n        /* \"contracts/Market.sol\":4067:4095  setWinningSide(_winningSide) */\n      jump\t// in\n    tag_204:\n        /* \"contracts/Market.sol\":4064:4332  if(setWinningSide(_winningSide)){... */\n      iszero\n      tag_205\n      jumpi\n        /* \"contracts/Market.sol\":4129:4134  pairs */\n      0x04\n        /* \"contracts/Market.sol\":4129:4141  pairs.length */\n      sload\n        /* \"contracts/Market.sol\":4110:4126  uint pairsLength */\n      0x00\n        /* \"contracts/Market.sol\":4155:4246  for(uint i = 0; i < pairsLength; i++){... */\n    tag_206:\n        /* \"contracts/Market.sol\":4175:4186  pairsLength */\n      dup2\n        /* \"contracts/Market.sol\":4171:4172  i */\n      dup2\n        /* \"contracts/Market.sol\":4171:4186  i < pairsLength */\n      lt\n        /* \"contracts/Market.sol\":4155:4246  for(uint i = 0; i < pairsLength; i++){... */\n      iszero\n      tag_207\n      jumpi\n        /* \"contracts/Market.sol\":4210:4231  _settlePair(pairs[i]) */\n      tag_209\n        /* \"contracts/Market.sol\":4222:4227  pairs */\n      0x04\n        /* \"contracts/Market.sol\":4228:4229  i */\n      dup3\n        /* \"contracts/Market.sol\":4222:4230  pairs[i] */\n      dup2\n      sload\n      dup2\n      lt\n      tag_210\n      jumpi\n      mstore(0x00, shl(0xe0, 0x4e487b71))\n      mstore(0x04, 0x32)\n      revert(0x00, 0x24)\n    tag_210:\n      swap1\n      0x00\n      mstore\n      keccak256(0x00, 0x20)\n      add\n      sload\n        /* \"contracts/Market.sol\":4210:4221  _settlePair */\n      tag_121\n        /* \"contracts/Market.sol\":4210:4231  _settlePair(pairs[i]) */\n      jump\t// in\n    tag_209:\n      pop\n        /* \"contracts/Market.sol\":4188:4191  i++ */\n      dup1\n      tag_212\n      dup2\n      tag_83\n      jump\t// in\n    tag_212:\n      swap2\n      pop\n      pop\n        /* \"contracts/Market.sol\":4155:4246  for(uint i = 0; i < pairsLength; i++){... */\n      jump(tag_206)\n    tag_207:\n      pop\n        /* \"contracts/Market.sol\":4266:4270  true */\n      0x01\n      swap4\n        /* \"contracts/Market.sol\":3936:4347  function settle(uint256 _winningSide)... */\n      swap3\n      pop\n      pop\n      pop\n      jump\t// out\n        /* \"contracts/Market.sol\":4064:4332  if(setWinningSide(_winningSide)){... */\n    tag_205:\n      pop\n        /* \"contracts/Market.sol\":4316:4321  false */\n      0x00\n        /* \"contracts/Market.sol\":3936:4347  function settle(uint256 _winningSide)... */\n      swap2\n      swap1\n      pop\n      jump\t// out\n        /* \"contracts/Market.sol\":4733:4935  function start() external override onlyFactory returns(bool){... */\n    tag_53:\n        /* \"contracts/Market.sol\":1046:1051  owner */\n      sload(0x01)\n        /* \"contracts/Market.sol\":4788:4792  bool */\n      0x00\n      swap1\n      sub(shl(0xa0, 0x01), 0x01)\n        /* \"contracts/Market.sol\":1046:1051  owner */\n      and\n        /* \"contracts/Market.sol\":1032:1042  msg.sender */\n      caller\n        /* \"contracts/Market.sol\":1032:1051  msg.sender == owner */\n      eq\n      dup1\n        /* \"contracts/Market.sol\":1032:1114  msg.sender == owner ... */\n      tag_215\n      jumpi\n      pop\n        /* \"contracts/Market.sol\":1095:1098  app */\n      immutable(\"0xd252627c3a7ddb3e9969d764fe6d38be47e2139c12c223f8ce16b1e3a5ed7dbb\")\n      sub(shl(0xa0, 0x01), 0x01)\n        /* \"contracts/Market.sol\":1095:1112  app.contractOwner */\n      and\n      0xce606ee0\n        /* \"contracts/Market.sol\":1095:1114  app.contractOwner() */\n      mload(0x40)\n      dup2\n      0xffffffff\n      and\n      0xe0\n      shl\n      dup2\n      mstore\n      0x04\n      add\n      0x20\n      mload(0x40)\n      dup1\n      dup4\n      sub\n      dup2\n      dup7\n      dup1\n      extcodesize\n      iszero\n      dup1\n      iszero\n      tag_216\n      jumpi\n      0x00\n      dup1\n      revert\n    tag_216:\n      pop\n      gas\n      staticcall\n      iszero\n      dup1\n      iszero\n      tag_218\n      jumpi\n      returndatasize\n      0x00\n      dup1\n      returndatacopy\n      revert(0x00, returndatasize)\n    tag_218:\n      pop\n      pop\n      pop\n      pop\n      mload(0x40)\n      returndatasize\n      not(0x1f)\n      0x1f\n      dup3\n      add\n      and\n      dup3\n      add\n      dup1\n      0x40\n      mstore\n      pop\n      dup2\n      add\n      swap1\n      tag_219\n      swap2\n      swap1\n      tag_198\n      jump\t// in\n    tag_219:\n      sub(shl(0xa0, 0x01), 0x01)\n        /* \"contracts/Market.sol\":1081:1114  msg.sender == app.contractOwner() */\n      and\n        /* \"contracts/Market.sol\":1081:1091  msg.sender */\n      caller\n      sub(shl(0xa0, 0x01), 0x01)\n        /* \"contracts/Market.sol\":1081:1114  msg.sender == app.contractOwner() */\n      and\n      eq\n        /* \"contracts/Market.sol\":1032:1114  msg.sender == owner ... */\n    tag_215:\n        /* \"contracts/Market.sol\":1032:1163  msg.sender == owner ... */\n      dup1\n      tag_220\n      jumpi\n      pop\n        /* \"contracts/Market.sol\":1156:1163  factory */\n      and(sub(shl(0xa0, 0x01), 0x01), sload(0x02))\n        /* \"contracts/Market.sol\":1142:1152  msg.sender */\n      caller\n        /* \"contracts/Market.sol\":1142:1163  msg.sender == factory */\n      eq\n        /* \"contracts/Market.sol\":1032:1163  msg.sender == owner ... */\n    tag_220:\n        /* \"contracts/Market.sol\":1011:1210  require(... */\n      tag_221\n      jumpi\n      mload(0x40)\n      shl(0xe5, 0x461bcd)\n      dup2\n      mstore\n      0x04\n      add\n      tag_68\n      swap1\n      tag_202\n      jump\t// in\n    tag_221:\n        /* \"contracts/Market.sol\":4806:4812  status */\n      sload(0x03)\n        /* \"contracts/Market.sol\":4803:4929  if(status == 0){... */\n      tag_224\n      jumpi\n      pop\n        /* \"contracts/Market.sol\":4841:4842  4 */\n      0x04\n        /* \"contracts/Market.sol\":4832:4838  status */\n      0x03\n        /* \"contracts/Market.sol\":4832:4842  status = 4 */\n      sstore\n        /* \"contracts/Market.sol\":4863:4867  true */\n      0x01\n        /* \"contracts/Market.sol\":4733:4935  function start() external override onlyFactory returns(bool){... */\n      swap1\n      jump\t// out\n        /* \"contracts/Market.sol\":4803:4929  if(status == 0){... */\n    tag_224:\n      pop\n        /* \"contracts/Market.sol\":4913:4918  false */\n      0x00\n        /* \"contracts/Market.sol\":4733:4935  function start() external override onlyFactory returns(bool){... */\n      swap1\n      jump\t// out\n        /* \"contracts/Market.sol\":3583:3930  function setWinningSide(uint256 _winningSide)... */\n    tag_57:\n        /* \"contracts/Market.sol\":1046:1051  owner */\n      sload(0x01)\n        /* \"contracts/Market.sol\":3697:3701  bool */\n      0x00\n      swap1\n      sub(shl(0xa0, 0x01), 0x01)\n        /* \"contracts/Market.sol\":1046:1051  owner */\n      and\n        /* \"contracts/Market.sol\":1032:1042  msg.sender */\n      caller\n        /* \"contracts/Market.sol\":1032:1051  msg.sender == owner */\n      eq\n      dup1\n        /* \"contracts/Market.sol\":1032:1114  msg.sender == owner ... */\n      tag_227\n      jumpi\n      pop\n        /* \"contracts/Market.sol\":1095:1098  app */\n      immutable(\"0xd252627c3a7ddb3e9969d764fe6d38be47e2139c12c223f8ce16b1e3a5ed7dbb\")\n      sub(shl(0xa0, 0x01), 0x01)\n        /* \"contracts/Market.sol\":1095:1112  app.contractOwner */\n      and\n      0xce606ee0\n        /* \"contracts/Market.sol\":1095:1114  app.contractOwner() */\n      mload(0x40)\n      dup2\n      0xffffffff\n      and\n      0xe0\n      shl\n      dup2\n      mstore\n      0x04\n      add\n      0x20\n      mload(0x40)\n      dup1\n      dup4\n      sub\n      dup2\n      dup7\n      dup1\n      extcodesize\n      iszero\n      dup1\n      iszero\n      tag_228\n      jumpi\n      0x00\n      dup1\n      revert\n    tag_228:\n      pop\n      gas\n      staticcall\n      iszero\n      dup1\n      iszero\n      tag_230\n      jumpi\n      returndatasize\n      0x00\n      dup1\n      returndatacopy\n      revert(0x00, returndatasize)\n    tag_230:\n      pop\n      pop\n      pop\n      pop\n      mload(0x40)\n      returndatasize\n      not(0x1f)\n      0x1f\n      dup3\n      add\n      and\n      dup3\n      add\n      dup1\n      0x40\n      mstore\n      pop\n      dup2\n      add\n      swap1\n      tag_231\n      swap2\n      swap1\n      tag_198\n      jump\t// in\n    tag_231:\n      sub(shl(0xa0, 0x01), 0x01)\n        /* \"contracts/Market.sol\":1081:1114  msg.sender == app.contractOwner() */\n      and\n        /* \"contracts/Market.sol\":1081:1091  msg.sender */\n      caller\n      sub(shl(0xa0, 0x01), 0x01)\n        /* \"contracts/Market.sol\":1081:1114  msg.sender == app.contractOwner() */\n      and\n      eq\n        /* \"contracts/Market.sol\":1032:1114  msg.sender == owner ... */\n    tag_227:\n        /* \"contracts/Market.sol\":1032:1163  msg.sender == owner ... */\n      dup1\n      tag_232\n      jumpi\n      pop\n        /* \"contracts/Market.sol\":1156:1163  factory */\n      and(sub(shl(0xa0, 0x01), 0x01), sload(0x02))\n        /* \"contracts/Market.sol\":1142:1152  msg.sender */\n      caller\n        /* \"contracts/Market.sol\":1142:1163  msg.sender == factory */\n      eq\n        /* \"contracts/Market.sol\":1032:1163  msg.sender == owner ... */\n    tag_232:\n        /* \"contracts/Market.sol\":1011:1210  require(... */\n      tag_233\n      jumpi\n      mload(0x40)\n      shl(0xe5, 0x461bcd)\n      dup2\n      mstore\n      0x04\n      add\n      tag_68\n      swap1\n      tag_202\n      jump\t// in\n    tag_233:\n        /* \"contracts/Market.sol\":3721:3727  status */\n      sload(0x03)\n        /* \"contracts/Market.sol\":3721:3732  status == 0 */\n      iszero\n      dup1\n        /* \"contracts/Market.sol\":3721:3747  status == 0 || status == 4 */\n      tag_236\n      jumpi\n      pop\n        /* \"contracts/Market.sol\":3736:3742  status */\n      sload(0x03)\n        /* \"contracts/Market.sol\":3746:3747  4 */\n      0x04\n        /* \"contracts/Market.sol\":3736:3747  status == 4 */\n      eq\n        /* \"contracts/Market.sol\":3721:3747  status == 0 || status == 4 */\n    tag_236:\n        /* \"contracts/Market.sol\":3720:3792  (status == 0 || status == 4) && (_winningSide == 1 || _winningSide == 2) */\n      dup1\n      iszero\n      tag_238\n      jumpi\n      pop\n        /* \"contracts/Market.sol\":3753:3765  _winningSide */\n      dup2\n        /* \"contracts/Market.sol\":3769:3770  1 */\n      0x01\n        /* \"contracts/Market.sol\":3753:3770  _winningSide == 1 */\n      eq\n        /* \"contracts/Market.sol\":3753:3791  _winningSide == 1 || _winningSide == 2 */\n      dup1\n      tag_238\n      jumpi\n      pop\n        /* \"contracts/Market.sol\":3774:3786  _winningSide */\n      dup2\n        /* \"contracts/Market.sol\":3790:3791  2 */\n      0x02\n        /* \"contracts/Market.sol\":3774:3791  _winningSide == 2 */\n      eq\n        /* \"contracts/Market.sol\":3753:3791  _winningSide == 1 || _winningSide == 2 */\n    tag_238:\n        /* \"contracts/Market.sol\":3717:3915  if((status == 0 || status == 4) && (_winningSide == 1 || _winningSide == 2)){... */\n      iszero\n      tag_205\n      jumpi\n      pop\n        /* \"contracts/Market.sol\":3807:3813  status */\n      0x03\n        /* \"contracts/Market.sol\":3807:3828  status = _winningSide */\n      sstore\n        /* \"contracts/Market.sol\":3849:3853  true */\n      0x01\n      swap1\n        /* \"contracts/Market.sol\":3936:4347  function settle(uint256 _winningSide)... */\n      jump\t// out\n        /* \"contracts/Market.sol\":4353:4727  function cancel() external override onlyFactory returns(bool) ... */\n    tag_60:\n        /* \"contracts/Market.sol\":1046:1051  owner */\n      sload(0x01)\n        /* \"contracts/Market.sol\":4409:4413  bool */\n      0x00\n      swap1\n      sub(shl(0xa0, 0x01), 0x01)\n        /* \"contracts/Market.sol\":1046:1051  owner */\n      and\n        /* \"contracts/Market.sol\":1032:1042  msg.sender */\n      caller\n        /* \"contracts/Market.sol\":1032:1051  msg.sender == owner */\n      eq\n      dup1\n        /* \"contracts/Market.sol\":1032:1114  msg.sender == owner ... */\n      tag_242\n      jumpi\n      pop\n        /* \"contracts/Market.sol\":1095:1098  app */\n      immutable(\"0xd252627c3a7ddb3e9969d764fe6d38be47e2139c12c223f8ce16b1e3a5ed7dbb\")\n      sub(shl(0xa0, 0x01), 0x01)\n        /* \"contracts/Market.sol\":1095:1112  app.contractOwner */\n      and\n      0xce606ee0\n        /* \"contracts/Market.sol\":1095:1114  app.contractOwner() */\n      mload(0x40)\n      dup2\n      0xffffffff\n      and\n      0xe0\n      shl\n      dup2\n      mstore\n      0x04\n      add\n      0x20\n      mload(0x40)\n      dup1\n      dup4\n      sub\n      dup2\n      dup7\n      dup1\n      extcodesize\n      iszero\n      dup1\n      iszero\n      tag_243\n      jumpi\n      0x00\n      dup1\n      revert\n    tag_243:\n      pop\n      gas\n      staticcall\n      iszero\n      dup1\n      iszero\n      tag_245\n      jumpi\n      returndatasize\n      0x00\n      dup1\n      returndatacopy\n      revert(0x00, returndatasize)\n    tag_245:\n      pop\n      pop\n      pop\n      pop\n      mload(0x40)\n      returndatasize\n      not(0x1f)\n      0x1f\n      dup3\n      add\n      and\n      dup3\n      add\n      dup1\n      0x40\n      mstore\n      pop\n      dup2\n      add\n      swap1\n      tag_246\n      swap2\n      swap1\n      tag_198\n      jump\t// in\n    tag_246:\n      sub(shl(0xa0, 0x01), 0x01)\n        /* \"contracts/Market.sol\":1081:1114  msg.sender == app.contractOwner() */\n      and\n        /* \"contracts/Market.sol\":1081:1091  msg.sender */\n      caller\n      sub(shl(0xa0, 0x01), 0x01)\n        /* \"contracts/Market.sol\":1081:1114  msg.sender == app.contractOwner() */\n      and\n      eq\n        /* \"contracts/Market.sol\":1032:1114  msg.sender == owner ... */\n    tag_242:\n        /* \"contracts/Market.sol\":1032:1163  msg.sender == owner ... */\n      dup1\n      tag_247\n      jumpi\n      pop\n        /* \"contracts/Market.sol\":1156:1163  factory */\n      and(sub(shl(0xa0, 0x01), 0x01), sload(0x02))\n        /* \"contracts/Market.sol\":1142:1152  msg.sender */\n      caller\n        /* \"contracts/Market.sol\":1142:1163  msg.sender == factory */\n      eq\n        /* \"contracts/Market.sol\":1032:1163  msg.sender == owner ... */\n    tag_247:\n        /* \"contracts/Market.sol\":1011:1210  require(... */\n      tag_248\n      jumpi\n      mload(0x40)\n      shl(0xe5, 0x461bcd)\n      dup2\n      mstore\n      0x04\n      add\n      tag_68\n      swap1\n      tag_202\n      jump\t// in\n    tag_248:\n        /* \"contracts/Market.sol\":4434:4440  status */\n      sload(0x03)\n        /* \"contracts/Market.sol\":4434:4445  status == 0 */\n      iszero\n      dup1\n        /* \"contracts/Market.sol\":4434:4460  status == 0 || status == 4 */\n      tag_251\n      jumpi\n      pop\n        /* \"contracts/Market.sol\":4449:4455  status */\n      sload(0x03)\n        /* \"contracts/Market.sol\":4459:4460  4 */\n      0x04\n        /* \"contracts/Market.sol\":4449:4460  status == 4 */\n      eq\n        /* \"contracts/Market.sol\":4434:4460  status == 0 || status == 4 */\n    tag_251:\n        /* \"contracts/Market.sol\":4431:4721  if(status == 0 || status == 4){... */\n      iszero\n      tag_224\n      jumpi\n        /* \"contracts/Market.sol\":4494:4499  pairs */\n      0x04\n        /* \"contracts/Market.sol\":4494:4506  pairs.length */\n      sload\n        /* \"contracts/Market.sol\":4475:4491  uint pairsLength */\n      0x00\n        /* \"contracts/Market.sol\":4520:4611  for(uint i = 0; i < pairsLength; i++){... */\n    tag_253:\n        /* \"contracts/Market.sol\":4540:4551  pairsLength */\n      dup2\n        /* \"contracts/Market.sol\":4536:4537  i */\n      dup2\n        /* \"contracts/Market.sol\":4536:4551  i < pairsLength */\n      lt\n        /* \"contracts/Market.sol\":4520:4611  for(uint i = 0; i < pairsLength; i++){... */\n      iszero\n      tag_254\n      jumpi\n        /* \"contracts/Market.sol\":4575:4596  _cancelPair(pairs[i]) */\n      tag_256\n        /* \"contracts/Market.sol\":4587:4592  pairs */\n      0x04\n        /* \"contracts/Market.sol\":4593:4594  i */\n      dup3\n        /* \"contracts/Market.sol\":4587:4595  pairs[i] */\n      dup2\n      sload\n      dup2\n      lt\n      tag_257\n      jumpi\n      mstore(0x00, shl(0xe0, 0x4e487b71))\n      mstore(0x04, 0x32)\n      revert(0x00, 0x24)\n    tag_257:\n      swap1\n      0x00\n      mstore\n      keccak256(0x00, 0x20)\n      add\n      sload\n        /* \"contracts/Market.sol\":4575:4586  _cancelPair */\n      tag_259\n        /* \"contracts/Market.sol\":4575:4596  _cancelPair(pairs[i]) */\n      jump\t// in\n    tag_256:\n        /* \"contracts/Market.sol\":4553:4556  i++ */\n      dup1\n      tag_260\n      dup2\n      tag_83\n      jump\t// in\n    tag_260:\n      swap2\n      pop\n      pop\n        /* \"contracts/Market.sol\":4520:4611  for(uint i = 0; i < pairsLength; i++){... */\n      jump(tag_253)\n    tag_254:\n      pop\n      pop\n        /* \"contracts/Market.sol\":4633:4634  3 */\n      0x03\n        /* \"contracts/Market.sol\":4624:4634  status = 3 */\n      dup1\n      sstore\n      pop\n        /* \"contracts/Market.sol\":4655:4659  true */\n      0x01\n        /* \"contracts/Market.sol\":4733:4935  function start() external override onlyFactory returns(bool){... */\n      swap1\n      jump\t// out\n        /* \"contracts/Market.sol\":8798:10192  function _cancelBetPairs(bytes32 _bet) private returns(bool) {... */\n    tag_72:\n        /* \"contracts/Market.sol\":8853:8857  bool */\n      0x00\n        /* \"contracts/Market.sol\":8899:8913  betsInfo[_bet] */\n      dup2\n      dup2\n      mstore\n        /* \"contracts/Market.sol\":8899:8907  betsInfo */\n      0x07\n        /* \"contracts/Market.sol\":8899:8913  betsInfo[_bet] */\n      0x20\n      swap1\n      dup2\n      mstore\n      0x40\n      dup1\n      dup4\n      keccak256\n        /* \"contracts/Market.sol\":8869:8913  Struct.MarketBet memory bet = betsInfo[_bet] */\n      dup2\n      mload\n      0xc0\n      dup2\n      add\n      dup4\n      mstore\n      dup2\n      sload\n      sub(shl(0xa0, 0x01), 0x01)\n      swap1\n      dup2\n      and\n      dup3\n      mstore\n      0x01\n      dup4\n      add\n      sload\n      and\n      dup2\n      dup6\n      add\n      mstore\n      0x02\n      dup3\n      add\n      sload\n      dup2\n      dup5\n      add\n      mstore\n      0x03\n      dup3\n      add\n      sload\n      0x60\n      dup3\n      add\n      mstore\n      0x04\n      dup3\n      add\n      sload\n      0x80\n      dup3\n      add\n      mstore\n      0x05\n      swap1\n      swap2\n      add\n      sload\n      0xa0\n      dup3\n      add\n      mstore\n        /* \"contracts/Market.sol\":8949:8963  betPairs[_bet] */\n      dup5\n      dup5\n      mstore\n        /* \"contracts/Market.sol\":8949:8957  betPairs */\n      0x0a\n        /* \"contracts/Market.sol\":8949:8963  betPairs[_bet] */\n      dup4\n      mstore\n      dup2\n      dup5\n      keccak256\n        /* \"contracts/Market.sol\":8923:8963  bytes32[] memory _pairs = betPairs[_bet] */\n      dup1\n      sload\n      dup4\n      mload\n      dup2\n      dup7\n      mul\n      dup2\n      add\n      dup7\n      add\n      swap1\n      swap5\n      mstore\n      dup1\n      dup5\n      mstore\n        /* \"contracts/Market.sol\":8869:8913  Struct.MarketBet memory bet = betsInfo[_bet] */\n      swap2\n      swap4\n        /* \"contracts/Market.sol\":8853:8857  bool */\n      dup6\n      swap4\n        /* \"contracts/Market.sol\":8923:8963  bytes32[] memory _pairs = betPairs[_bet] */\n      swap3\n      swap1\n      dup4\n      add\n        /* \"contracts/Market.sol\":8949:8963  betPairs[_bet] */\n      dup3\n        /* \"contracts/Market.sol\":8923:8963  bytes32[] memory _pairs = betPairs[_bet] */\n      dup3\n      dup1\n      iszero\n      tag_264\n      jumpi\n      0x20\n      mul\n      dup3\n      add\n      swap2\n      swap1\n      0x00\n      mstore\n      keccak256(0x00, 0x20)\n      swap1\n    tag_265:\n      dup2\n      sload\n      dup2\n      mstore\n      0x20\n      add\n      swap1\n      0x01\n      add\n      swap1\n      dup1\n      dup4\n      gt\n      tag_265\n      jumpi\n    tag_264:\n      pop\n      pop\n        /* \"contracts/Market.sol\":8992:9005  _pairs.length */\n      dup4\n      mload\n        /* \"contracts/Market.sol\":8923:8963  bytes32[] memory _pairs = betPairs[_bet] */\n      swap4\n      swap5\n      pop\n        /* \"contracts/Market.sol\":8973:8989  uint pairsLength */\n      0x00\n      swap3\n      pop\n      pop\n      pop\n        /* \"contracts/Market.sol\":9015:10165  for(uint i = 0; i < pairsLength; i++){... */\n    tag_266:\n        /* \"contracts/Market.sol\":9035:9046  pairsLength */\n      dup2\n        /* \"contracts/Market.sol\":9031:9032  i */\n      dup2\n        /* \"contracts/Market.sol\":9031:9046  i < pairsLength */\n      lt\n        /* \"contracts/Market.sol\":9015:10165  for(uint i = 0; i < pairsLength; i++){... */\n      iszero\n      tag_267\n      jumpi\n        /* \"contracts/Market.sol\":9066:9088  bytes32 counterBetHash */\n      0x00\n        /* \"contracts/Market.sol\":9102:9123  uint256 counterAmount */\n      dup1\n        /* \"contracts/Market.sol\":9137:9155  uint256 thisAmount */\n      0x00\n        /* \"contracts/Market.sol\":9169:9190  address counterBetter */\n      dup1\n        /* \"contracts/Market.sol\":9207:9210  bet */\n      dup8\n        /* \"contracts/Market.sol\":9207:9215  bet.side */\n      0xa0\n      add\n      mload\n        /* \"contracts/Market.sol\":9219:9220  1 */\n      0x01\n        /* \"contracts/Market.sol\":9207:9220  bet.side == 1 */\n      eq\n        /* \"contracts/Market.sol\":9204:9658  if(bet.side == 1) {... */\n      iszero\n      tag_269\n      jumpi\n        /* \"contracts/Market.sol\":9253:9262  pairsInfo */\n      0x09\n        /* \"contracts/Market.sol\":9253:9273  pairsInfo[_pairs[i]] */\n      0x00\n        /* \"contracts/Market.sol\":9263:9269  _pairs */\n      dup9\n        /* \"contracts/Market.sol\":9270:9271  i */\n      dup8\n        /* \"contracts/Market.sol\":9263:9272  _pairs[i] */\n      dup2\n      mload\n      dup2\n      lt\n      tag_270\n      jumpi\n      mstore(0x00, shl(0xe0, 0x4e487b71))\n      mstore(0x04, 0x32)\n      revert(0x00, 0x24)\n    tag_270:\n      0x20\n      mul\n      0x20\n      add\n      add\n      mload\n        /* \"contracts/Market.sol\":9253:9273  pairsInfo[_pairs[i]] */\n      dup2\n      mstore\n      0x20\n      add\n      swap1\n      dup2\n      mstore\n      0x20\n      add\n      0x00\n      keccak256\n        /* \"contracts/Market.sol\":9253:9281  pairsInfo[_pairs[i]].amountA */\n      0x02\n      add\n      sload\n        /* \"contracts/Market.sol\":9240:9281  thisAmount = pairsInfo[_pairs[i]].amountA */\n      swap2\n      pop\n        /* \"contracts/Market.sol\":9316:9325  pairsInfo */\n      0x09\n        /* \"contracts/Market.sol\":9316:9336  pairsInfo[_pairs[i]] */\n      0x00\n        /* \"contracts/Market.sol\":9326:9332  _pairs */\n      dup9\n        /* \"contracts/Market.sol\":9333:9334  i */\n      dup8\n        /* \"contracts/Market.sol\":9326:9335  _pairs[i] */\n      dup2\n      mload\n      dup2\n      lt\n      tag_271\n      jumpi\n      mstore(0x00, shl(0xe0, 0x4e487b71))\n      mstore(0x04, 0x32)\n      revert(0x00, 0x24)\n    tag_271:\n      0x20\n      mul\n      0x20\n      add\n      add\n      mload\n        /* \"contracts/Market.sol\":9316:9336  pairsInfo[_pairs[i]] */\n      dup2\n      mstore\n      0x20\n      add\n      swap1\n      dup2\n      mstore\n      0x20\n      add\n      0x00\n      keccak256\n        /* \"contracts/Market.sol\":9316:9345  pairsInfo[_pairs[i]].betHashB */\n      0x01\n      add\n      sload\n        /* \"contracts/Market.sol\":9299:9345  counterBetHash = pairsInfo[_pairs[i]].betHashB */\n      swap4\n      pop\n        /* \"contracts/Market.sol\":9379:9388  pairsInfo */\n      0x09\n        /* \"contracts/Market.sol\":9379:9399  pairsInfo[_pairs[i]] */\n      0x00\n        /* \"contracts/Market.sol\":9389:9395  _pairs */\n      dup9\n        /* \"contracts/Market.sol\":9396:9397  i */\n      dup8\n        /* \"contracts/Market.sol\":9389:9398  _pairs[i] */\n      dup2\n      mload\n      dup2\n      lt\n      tag_272\n      jumpi\n      mstore(0x00, shl(0xe0, 0x4e487b71))\n      mstore(0x04, 0x32)\n      revert(0x00, 0x24)\n    tag_272:\n      0x20\n      mul\n      0x20\n      add\n      add\n      mload\n        /* \"contracts/Market.sol\":9379:9399  pairsInfo[_pairs[i]] */\n      dup2\n      mstore\n      0x20\n      add\n      swap1\n      dup2\n      mstore\n      0x20\n      add\n      0x00\n      keccak256\n        /* \"contracts/Market.sol\":9379:9407  pairsInfo[_pairs[i]].amountB */\n      0x03\n      add\n      sload\n        /* \"contracts/Market.sol\":9363:9407  counterAmount = pairsInfo[_pairs[i]].amountB */\n      swap3\n      pop\n        /* \"contracts/Market.sol\":9204:9658  if(bet.side == 1) {... */\n      jump(tag_274)\n    tag_269:\n        /* \"contracts/Market.sol\":9443:9446  bet */\n      dup8\n        /* \"contracts/Market.sol\":9443:9451  bet.side */\n      0xa0\n      add\n      mload\n        /* \"contracts/Market.sol\":9455:9456  2 */\n      0x02\n        /* \"contracts/Market.sol\":9443:9456  bet.side == 2 */\n      eq\n        /* \"contracts/Market.sol\":9440:9658  if(bet.side == 2) {... */\n      iszero\n      tag_274\n      jumpi\n        /* \"contracts/Market.sol\":9489:9498  pairsInfo */\n      0x09\n        /* \"contracts/Market.sol\":9489:9509  pairsInfo[_pairs[i]] */\n      0x00\n        /* \"contracts/Market.sol\":9499:9505  _pairs */\n      dup9\n        /* \"contracts/Market.sol\":9506:9507  i */\n      dup8\n        /* \"contracts/Market.sol\":9499:9508  _pairs[i] */\n      dup2\n      mload\n      dup2\n      lt\n      tag_275\n      jumpi\n      mstore(0x00, shl(0xe0, 0x4e487b71))\n      mstore(0x04, 0x32)\n      revert(0x00, 0x24)\n    tag_275:\n      0x20\n      mul\n      0x20\n      add\n      add\n      mload\n        /* \"contracts/Market.sol\":9489:9509  pairsInfo[_pairs[i]] */\n      dup2\n      mstore\n      0x20\n      add\n      swap1\n      dup2\n      mstore\n      0x20\n      add\n      0x00\n      keccak256\n        /* \"contracts/Market.sol\":9489:9517  pairsInfo[_pairs[i]].amountB */\n      0x03\n      add\n      sload\n        /* \"contracts/Market.sol\":9476:9517  thisAmount = pairsInfo[_pairs[i]].amountB */\n      swap2\n      pop\n        /* \"contracts/Market.sol\":9552:9561  pairsInfo */\n      0x09\n        /* \"contracts/Market.sol\":9552:9572  pairsInfo[_pairs[i]] */\n      0x00\n        /* \"contracts/Market.sol\":9562:9568  _pairs */\n      dup9\n        /* \"contracts/Market.sol\":9569:9570  i */\n      dup8\n        /* \"contracts/Market.sol\":9562:9571  _pairs[i] */\n      dup2\n      mload\n      dup2\n      lt\n      tag_276\n      jumpi\n      mstore(0x00, shl(0xe0, 0x4e487b71))\n      mstore(0x04, 0x32)\n      revert(0x00, 0x24)\n    tag_276:\n      0x20\n      mul\n      0x20\n      add\n      add\n      mload\n        /* \"contracts/Market.sol\":9552:9572  pairsInfo[_pairs[i]] */\n      dup2\n      mstore\n      0x20\n      add\n      swap1\n      dup2\n      mstore\n      0x20\n      add\n      0x00\n      keccak256\n        /* \"contracts/Market.sol\":9552:9581  pairsInfo[_pairs[i]].betHashA */\n      0x00\n      add\n      sload\n        /* \"contracts/Market.sol\":9535:9581  counterBetHash = pairsInfo[_pairs[i]].betHashA */\n      swap4\n      pop\n        /* \"contracts/Market.sol\":9615:9624  pairsInfo */\n      0x09\n        /* \"contracts/Market.sol\":9615:9635  pairsInfo[_pairs[i]] */\n      0x00\n        /* \"contracts/Market.sol\":9625:9631  _pairs */\n      dup9\n        /* \"contracts/Market.sol\":9632:9633  i */\n      dup8\n        /* \"contracts/Market.sol\":9625:9634  _pairs[i] */\n      dup2\n      mload\n      dup2\n      lt\n      tag_277\n      jumpi\n      mstore(0x00, shl(0xe0, 0x4e487b71))\n      mstore(0x04, 0x32)\n      revert(0x00, 0x24)\n    tag_277:\n      0x20\n      mul\n      0x20\n      add\n      add\n      mload\n        /* \"contracts/Market.sol\":9615:9635  pairsInfo[_pairs[i]] */\n      dup2\n      mstore\n      0x20\n      add\n      swap1\n      dup2\n      mstore\n      0x20\n      add\n      0x00\n      keccak256\n        /* \"contracts/Market.sol\":9615:9643  pairsInfo[_pairs[i]].amountA */\n      0x02\n      add\n      sload\n        /* \"contracts/Market.sol\":9599:9643  counterAmount = pairsInfo[_pairs[i]].amountA */\n      swap3\n      pop\n        /* \"contracts/Market.sol\":9440:9658  if(bet.side == 2) {... */\n    tag_274:\n      pop\n        /* \"contracts/Market.sol\":9687:9711  betsInfo[counterBetHash] */\n      0x00\n      dup4\n      dup2\n      mstore\n        /* \"contracts/Market.sol\":9687:9695  betsInfo */\n      0x07\n        /* \"contracts/Market.sol\":9687:9711  betsInfo[counterBetHash] */\n      0x20\n      swap1\n      dup2\n      mstore\n      0x40\n      swap2\n      dup3\n      swap1\n      keccak256\n        /* \"contracts/Market.sol\":9687:9718  betsInfo[counterBetHash].better */\n      sload\n        /* \"contracts/Market.sol\":9771:9780  app.vig() */\n      dup3\n      mload\n      shl(0xe0, 0x55c4a8bf)\n      dup2\n      mstore\n      swap3\n      mload\n      sub(shl(0xa0, 0x01), 0x01)\n        /* \"contracts/Market.sol\":9687:9718  betsInfo[counterBetHash].better */\n      swap2\n      dup3\n      and\n      swap4\n        /* \"contracts/Market.sol\":9784:9787  100 */\n      0x64\n      swap4\n        /* \"contracts/Market.sol\":9771:9774  app */\n      immutable(\"0xd252627c3a7ddb3e9969d764fe6d38be47e2139c12c223f8ce16b1e3a5ed7dbb\")\n        /* \"contracts/Market.sol\":9771:9778  app.vig */\n      swap1\n      swap4\n      and\n      swap3\n      0x55c4a8bf\n      swap3\n        /* \"contracts/Market.sol\":9771:9780  app.vig() */\n      0x04\n      dup1\n      dup5\n      add\n      swap4\n      dup3\n      swap1\n      sub\n      add\n      dup2\n        /* \"contracts/Market.sol\":9771:9778  app.vig */\n      dup7\n        /* \"contracts/Market.sol\":9771:9780  app.vig() */\n      dup1\n      extcodesize\n      iszero\n      dup1\n      iszero\n      tag_278\n      jumpi\n      0x00\n      dup1\n      revert\n    tag_278:\n      pop\n      gas\n      staticcall\n      iszero\n      dup1\n      iszero\n      tag_280\n      jumpi\n      returndatasize\n      0x00\n      dup1\n      returndatacopy\n      revert(0x00, returndatasize)\n    tag_280:\n      pop\n      pop\n      pop\n      pop\n      mload(0x40)\n      returndatasize\n      not(0x1f)\n      0x1f\n      dup3\n      add\n      and\n      dup3\n      add\n      dup1\n      0x40\n      mstore\n      pop\n      dup2\n      add\n      swap1\n      tag_281\n      swap2\n      swap1\n      tag_95\n      jump\t// in\n    tag_281:\n        /* \"contracts/Market.sol\":9765:9780  100 - app.vig() */\n      tag_282\n      swap1\n        /* \"contracts/Market.sol\":9765:9768  100 */\n      0x64\n        /* \"contracts/Market.sol\":9765:9780  100 - app.vig() */\n      tag_101\n      jump\t// in\n    tag_282:\n        /* \"contracts/Market.sol\":9751:9781  thisAmount * (100 - app.vig()) */\n      tag_283\n      swap1\n        /* \"contracts/Market.sol\":9751:9761  thisAmount */\n      dup5\n        /* \"contracts/Market.sol\":9751:9781  thisAmount * (100 - app.vig()) */\n      tag_177\n      jump\t// in\n    tag_283:\n        /* \"contracts/Market.sol\":9751:9787  thisAmount * (100 - app.vig()) / 100 */\n      tag_284\n      swap2\n      swap1\n      tag_179\n      jump\t// in\n    tag_284:\n        /* \"contracts/Market.sol\":9736:9746  bet.better */\n      dup9\n      mload\n      sub(shl(0xa0, 0x01), 0x01)\n        /* \"contracts/Market.sol\":9732:9747  bal[bet.better] */\n      and\n      0x00\n      swap1\n      dup2\n      mstore\n        /* \"contracts/Market.sol\":9732:9735  bal */\n      0x06\n        /* \"contracts/Market.sol\":9732:9747  bal[bet.better] */\n      0x20\n      mstore\n      0x40\n      dup2\n      keccak256\n        /* \"contracts/Market.sol\":9732:9787  bal[bet.better] += thisAmount * (100 - app.vig()) / 100 */\n      dup1\n      sload\n        /* \"contracts/Market.sol\":9732:9747  bal[bet.better] */\n      swap1\n      swap2\n      swap1\n        /* \"contracts/Market.sol\":9732:9787  bal[bet.better] += thisAmount * (100 - app.vig()) / 100 */\n      tag_285\n      swap1\n      dup5\n      swap1\n      tag_189\n      jump\t// in\n    tag_285:\n      swap1\n      swap2\n      sstore\n      pop\n      pop\n        /* \"contracts/Market.sol\":9801:9825  betsInfo[counterBetHash] */\n      0x00\n      dup5\n      dup2\n      mstore\n        /* \"contracts/Market.sol\":9801:9809  betsInfo */\n      0x07\n        /* \"contracts/Market.sol\":9801:9825  betsInfo[counterBetHash] */\n      0x20\n      mstore\n      0x40\n      dup2\n      keccak256\n        /* \"contracts/Market.sol\":9801:9833  betsInfo[counterBetHash].matched */\n      0x03\n      add\n        /* \"contracts/Market.sol\":9801:9850  betsInfo[counterBetHash].matched -= counterAmount */\n      dup1\n      sload\n        /* \"contracts/Market.sol\":9837:9850  counterAmount */\n      dup6\n      swap3\n        /* \"contracts/Market.sol\":9801:9825  betsInfo[counterBetHash] */\n      swap1\n        /* \"contracts/Market.sol\":9801:9850  betsInfo[counterBetHash].matched -= counterAmount */\n      tag_286\n      swap1\n        /* \"contracts/Market.sol\":9837:9850  counterAmount */\n      dup5\n      swap1\n        /* \"contracts/Market.sol\":9801:9850  betsInfo[counterBetHash].matched -= counterAmount */\n      tag_101\n      jump\t// in\n    tag_286:\n      swap3\n      pop\n      pop\n      dup2\n      swap1\n      sstore\n      pop\n        /* \"contracts/Market.sol\":9864:9881  uint256 vigAmount */\n      0x00\n        /* \"contracts/Market.sol\":9909:9912  100 */\n      0x64\n        /* \"contracts/Market.sol\":9897:9900  app */\n      immutable(\"0xd252627c3a7ddb3e9969d764fe6d38be47e2139c12c223f8ce16b1e3a5ed7dbb\")\n      sub(shl(0xa0, 0x01), 0x01)\n        /* \"contracts/Market.sol\":9897:9904  app.vig */\n      and\n      0x55c4a8bf\n        /* \"contracts/Market.sol\":9897:9906  app.vig() */\n      mload(0x40)\n      dup2\n      0xffffffff\n      and\n      0xe0\n      shl\n      dup2\n      mstore\n      0x04\n      add\n      0x20\n      mload(0x40)\n      dup1\n      dup4\n      sub\n      dup2\n      dup7\n      dup1\n      extcodesize\n      iszero\n      dup1\n      iszero\n      tag_287\n      jumpi\n      0x00\n      dup1\n      revert\n    tag_287:\n      pop\n      gas\n      staticcall\n      iszero\n      dup1\n      iszero\n      tag_289\n      jumpi\n      returndatasize\n      0x00\n      dup1\n      returndatacopy\n      revert(0x00, returndatasize)\n    tag_289:\n      pop\n      pop\n      pop\n      pop\n      mload(0x40)\n      returndatasize\n      not(0x1f)\n      0x1f\n      dup3\n      add\n      and\n      dup3\n      add\n      dup1\n      0x40\n      mstore\n      pop\n      dup2\n      add\n      swap1\n      tag_290\n      swap2\n      swap1\n      tag_95\n      jump\t// in\n    tag_290:\n        /* \"contracts/Market.sol\":9884:9906  thisAmount * app.vig() */\n      tag_291\n      swap1\n        /* \"contracts/Market.sol\":9884:9894  thisAmount */\n      dup6\n        /* \"contracts/Market.sol\":9884:9906  thisAmount * app.vig() */\n      tag_177\n      jump\t// in\n    tag_291:\n        /* \"contracts/Market.sol\":9884:9912  thisAmount * app.vig() / 100 */\n      tag_292\n      swap2\n      swap1\n      tag_179\n      jump\t// in\n    tag_292:\n        /* \"contracts/Market.sol\":9864:9912  uint256 vigAmount = thisAmount * app.vig() / 100 */\n      swap1\n      pop\n        /* \"contracts/Market.sol\":9974:9977  100 */\n      0x64\n        /* \"contracts/Market.sol\":9961:9964  app */\n      immutable(\"0xd252627c3a7ddb3e9969d764fe6d38be47e2139c12c223f8ce16b1e3a5ed7dbb\")\n      sub(shl(0xa0, 0x01), 0x01)\n        /* \"contracts/Market.sol\":9961:9969  app.hVig */\n      and\n      0x6a0ccd9d\n        /* \"contracts/Market.sol\":9961:9971  app.hVig() */\n      mload(0x40)\n      dup2\n      0xffffffff\n      and\n      0xe0\n      shl\n      dup2\n      mstore\n      0x04\n      add\n      0x20\n      mload(0x40)\n      dup1\n      dup4\n      sub\n      dup2\n      dup7\n      dup1\n      extcodesize\n      iszero\n      dup1\n      iszero\n      tag_293\n      jumpi\n      0x00\n      dup1\n      revert\n    tag_293:\n      pop\n      gas\n      staticcall\n      iszero\n      dup1\n      iszero\n      tag_295\n      jumpi\n      returndatasize\n      0x00\n      dup1\n      returndatacopy\n      revert(0x00, returndatasize)\n    tag_295:\n      pop\n      pop\n      pop\n      pop\n      mload(0x40)\n      returndatasize\n      not(0x1f)\n      0x1f\n      dup3\n      add\n      and\n      dup3\n      add\n      dup1\n      0x40\n      mstore\n      pop\n      dup2\n      add\n      swap1\n      tag_296\n      swap2\n      swap1\n      tag_95\n      jump\t// in\n    tag_296:\n        /* \"contracts/Market.sol\":9949:9971  vigAmount * app.hVig() */\n      tag_297\n      swap1\n        /* \"contracts/Market.sol\":9949:9958  vigAmount */\n      dup4\n        /* \"contracts/Market.sol\":9949:9971  vigAmount * app.hVig() */\n      tag_177\n      jump\t// in\n    tag_297:\n        /* \"contracts/Market.sol\":9949:9977  vigAmount * app.hVig() / 100 */\n      tag_298\n      swap2\n      swap1\n      tag_179\n      jump\t// in\n    tag_298:\n        /* \"contracts/Market.sol\":9926:9929  bal */\n      0x06\n        /* \"contracts/Market.sol\":9926:9945  bal[app.holdAddr()] */\n      0x00\n        /* \"contracts/Market.sol\":9930:9933  app */\n      immutable(\"0xd252627c3a7ddb3e9969d764fe6d38be47e2139c12c223f8ce16b1e3a5ed7dbb\")\n      sub(shl(0xa0, 0x01), 0x01)\n        /* \"contracts/Market.sol\":9930:9942  app.holdAddr */\n      and\n      0xb7640a54\n        /* \"contracts/Market.sol\":9930:9944  app.holdAddr() */\n      mload(0x40)\n      dup2\n      0xffffffff\n      and\n      0xe0\n      shl\n      dup2\n      mstore\n      0x04\n      add\n      0x20\n      mload(0x40)\n      dup1\n      dup4\n      sub\n      dup2\n      dup7\n      dup1\n      extcodesize\n      iszero\n      dup1\n      iszero\n      tag_299\n      jumpi\n      0x00\n      dup1\n      revert\n    tag_299:\n      pop\n      gas\n      staticcall\n      iszero\n      dup1\n      iszero\n      tag_301\n      jumpi\n      returndatasize\n      0x00\n      dup1\n      returndatacopy\n      revert(0x00, returndatasize)\n    tag_301:\n      pop\n      pop\n      pop\n      pop\n      mload(0x40)\n      returndatasize\n      not(0x1f)\n      0x1f\n      dup3\n      add\n      and\n      dup3\n      add\n      dup1\n      0x40\n      mstore\n      pop\n      dup2\n      add\n      swap1\n      tag_302\n      swap2\n      swap1\n      tag_198\n      jump\t// in\n    tag_302:\n      sub(shl(0xa0, 0x01), 0x01)\n        /* \"contracts/Market.sol\":9926:9945  bal[app.holdAddr()] */\n      and\n      sub(shl(0xa0, 0x01), 0x01)\n      and\n      dup2\n      mstore\n      0x20\n      add\n      swap1\n      dup2\n      mstore\n      0x20\n      add\n      0x00\n      keccak256\n      0x00\n        /* \"contracts/Market.sol\":9926:9977  bal[app.holdAddr()] += vigAmount * app.hVig() / 100 */\n      dup3\n      dup3\n      sload\n      tag_303\n      swap2\n      swap1\n      tag_189\n      jump\t// in\n    tag_303:\n      swap3\n      pop\n      pop\n      dup2\n      swap1\n      sstore\n      pop\n        /* \"contracts/Market.sol\":10038:10041  100 */\n      0x64\n        /* \"contracts/Market.sol\":10025:10028  app */\n      immutable(\"0xd252627c3a7ddb3e9969d764fe6d38be47e2139c12c223f8ce16b1e3a5ed7dbb\")\n      sub(shl(0xa0, 0x01), 0x01)\n        /* \"contracts/Market.sol\":10025:10033  app.eVig */\n      and\n      0x28576d45\n        /* \"contracts/Market.sol\":10025:10035  app.eVig() */\n      mload(0x40)\n      dup2\n      0xffffffff\n      and\n      0xe0\n      shl\n      dup2\n      mstore\n      0x04\n      add\n      0x20\n      mload(0x40)\n      dup1\n      dup4\n      sub\n      dup2\n      dup7\n      dup1\n      extcodesize\n      iszero\n      dup1\n      iszero\n      tag_304\n      jumpi\n      0x00\n      dup1\n      revert\n    tag_304:\n      pop\n      gas\n      staticcall\n      iszero\n      dup1\n      iszero\n      tag_306\n      jumpi\n      returndatasize\n      0x00\n      dup1\n      returndatacopy\n      revert(0x00, returndatasize)\n    tag_306:\n      pop\n      pop\n      pop\n      pop\n      mload(0x40)\n      returndatasize\n      not(0x1f)\n      0x1f\n      dup3\n      add\n      and\n      dup3\n      add\n      dup1\n      0x40\n      mstore\n      pop\n      dup2\n      add\n      swap1\n      tag_307\n      swap2\n      swap1\n      tag_95\n      jump\t// in\n    tag_307:\n        /* \"contracts/Market.sol\":10013:10035  vigAmount * app.eVig() */\n      tag_308\n      swap1\n        /* \"contracts/Market.sol\":10013:10022  vigAmount */\n      dup4\n        /* \"contracts/Market.sol\":10013:10035  vigAmount * app.eVig() */\n      tag_177\n      jump\t// in\n    tag_308:\n        /* \"contracts/Market.sol\":10013:10041  vigAmount * app.eVig() / 100 */\n      tag_309\n      swap2\n      swap1\n      tag_179\n      jump\t// in\n    tag_309:\n        /* \"contracts/Market.sol\":9991:9994  bal */\n      0x06\n        /* \"contracts/Market.sol\":9991:10009  bal[app.ecoAddr()] */\n      0x00\n        /* \"contracts/Market.sol\":9995:9998  app */\n      immutable(\"0xd252627c3a7ddb3e9969d764fe6d38be47e2139c12c223f8ce16b1e3a5ed7dbb\")\n      sub(shl(0xa0, 0x01), 0x01)\n        /* \"contracts/Market.sol\":9995:10006  app.ecoAddr */\n      and\n      0x09953b2f\n        /* \"contracts/Market.sol\":9995:10008  app.ecoAddr() */\n      mload(0x40)\n      dup2\n      0xffffffff\n      and\n      0xe0\n      shl\n      dup2\n      mstore\n      0x04\n      add\n      0x20\n      mload(0x40)\n      dup1\n      dup4\n      sub\n      dup2\n      dup7\n      dup1\n      extcodesize\n      iszero\n      dup1\n      iszero\n      tag_310\n      jumpi\n      0x00\n      dup1\n      revert\n    tag_310:\n      pop\n      gas\n      staticcall\n      iszero\n      dup1\n      iszero\n      tag_312\n      jumpi\n      returndatasize\n      0x00\n      dup1\n      returndatacopy\n      revert(0x00, returndatasize)\n    tag_312:\n      pop\n      pop\n      pop\n      pop\n      mload(0x40)\n      returndatasize\n      not(0x1f)\n      0x1f\n      dup3\n      add\n      and\n      dup3\n      add\n      dup1\n      0x40\n      mstore\n      pop\n      dup2\n      add\n      swap1\n      tag_313\n      swap2\n      swap1\n      tag_198\n      jump\t// in\n    tag_313:\n      sub(shl(0xa0, 0x01), 0x01)\n        /* \"contracts/Market.sol\":9991:10009  bal[app.ecoAddr()] */\n      and\n      sub(shl(0xa0, 0x01), 0x01)\n      and\n      dup2\n      mstore\n      0x20\n      add\n      swap1\n      dup2\n      mstore\n      0x20\n      add\n      0x00\n      keccak256\n      0x00\n        /* \"contracts/Market.sol\":9991:10041  bal[app.ecoAddr()] += vigAmount * app.eVig() / 100 */\n      dup3\n      dup3\n      sload\n      tag_314\n      swap2\n      swap1\n      tag_189\n      jump\t// in\n    tag_314:\n      swap3\n      pop\n      pop\n      dup2\n      swap1\n      sstore\n      pop\n        /* \"contracts/Market.sol\":10102:10105  100 */\n      0x64\n        /* \"contracts/Market.sol\":10089:10092  app */\n      immutable(\"0xd252627c3a7ddb3e9969d764fe6d38be47e2139c12c223f8ce16b1e3a5ed7dbb\")\n      sub(shl(0xa0, 0x01), 0x01)\n        /* \"contracts/Market.sol\":10089:10097  app.aVig */\n      and\n      0x54cd1a5c\n        /* \"contracts/Market.sol\":10089:10099  app.aVig() */\n      mload(0x40)\n      dup2\n      0xffffffff\n      and\n      0xe0\n      shl\n      dup2\n      mstore\n      0x04\n      add\n      0x20\n      mload(0x40)\n      dup1\n      dup4\n      sub\n      dup2\n      dup7\n      dup1\n      extcodesize\n      iszero\n      dup1\n      iszero\n      tag_315\n      jumpi\n      0x00\n      dup1\n      revert\n    tag_315:\n      pop\n      gas\n      staticcall\n      iszero\n      dup1\n      iszero\n      tag_317\n      jumpi\n      returndatasize\n      0x00\n      dup1\n      returndatacopy\n      revert(0x00, returndatasize)\n    tag_317:\n      pop\n      pop\n      pop\n      pop\n      mload(0x40)\n      returndatasize\n      not(0x1f)\n      0x1f\n      dup3\n      add\n      and\n      dup3\n      add\n      dup1\n      0x40\n      mstore\n      pop\n      dup2\n      add\n      swap1\n      tag_318\n      swap2\n      swap1\n      tag_95\n      jump\t// in\n    tag_318:\n        /* \"contracts/Market.sol\":10077:10099  vigAmount * app.aVig() */\n      tag_319\n      swap1\n        /* \"contracts/Market.sol\":10077:10086  vigAmount */\n      dup4\n        /* \"contracts/Market.sol\":10077:10099  vigAmount * app.aVig() */\n      tag_177\n      jump\t// in\n    tag_319:\n        /* \"contracts/Market.sol\":10077:10105  vigAmount * app.aVig() / 100 */\n      tag_320\n      swap2\n      swap1\n      tag_179\n      jump\t// in\n    tag_320:\n        /* \"contracts/Market.sol\":10059:10072  bet.affiliate */\n      0x20\n      dup1\n      dup12\n      add\n      mload\n      sub(shl(0xa0, 0x01), 0x01)\n        /* \"contracts/Market.sol\":10055:10073  bal[bet.affiliate] */\n      and\n      0x00\n      swap1\n      dup2\n      mstore\n        /* \"contracts/Market.sol\":10055:10058  bal */\n      0x06\n        /* \"contracts/Market.sol\":10055:10073  bal[bet.affiliate] */\n      swap1\n      swap2\n      mstore\n      0x40\n      dup2\n      keccak256\n        /* \"contracts/Market.sol\":10055:10105  bal[bet.affiliate] += vigAmount * app.aVig() / 100 */\n      dup1\n      sload\n        /* \"contracts/Market.sol\":10055:10073  bal[bet.affiliate] */\n      swap1\n      swap2\n      swap1\n        /* \"contracts/Market.sol\":10055:10105  bal[bet.affiliate] += vigAmount * app.aVig() / 100 */\n      tag_321\n      swap1\n      dup5\n      swap1\n      tag_189\n      jump\t// in\n    tag_321:\n      swap3\n      pop\n      pop\n      dup2\n      swap1\n      sstore\n      pop\n        /* \"contracts/Market.sol\":10150:10154  true */\n      0x01\n        /* \"contracts/Market.sol\":10119:10128  pairsInfo */\n      0x09\n        /* \"contracts/Market.sol\":10119:10139  pairsInfo[_pairs[i]] */\n      0x00\n        /* \"contracts/Market.sol\":10129:10135  _pairs */\n      dup11\n        /* \"contracts/Market.sol\":10136:10137  i */\n      dup10\n        /* \"contracts/Market.sol\":10129:10138  _pairs[i] */\n      dup2\n      mload\n      dup2\n      lt\n      tag_322\n      jumpi\n      mstore(0x00, shl(0xe0, 0x4e487b71))\n      mstore(0x04, 0x32)\n      revert(0x00, 0x24)\n    tag_322:\n      0x20\n      mul\n      0x20\n      add\n      add\n      mload\n        /* \"contracts/Market.sol\":10119:10139  pairsInfo[_pairs[i]] */\n      dup2\n      mstore\n      0x20\n      add\n      swap1\n      dup2\n      mstore\n      0x20\n      add\n      0x00\n      keccak256\n        /* \"contracts/Market.sol\":10119:10147  pairsInfo[_pairs[i]].settled */\n      0x04\n      add\n      0x00\n        /* \"contracts/Market.sol\":10119:10154  pairsInfo[_pairs[i]].settled = true */\n      0x0100\n      exp\n      dup2\n      sload\n      dup2\n      0xff\n      mul\n      not\n      and\n      swap1\n      dup4\n      iszero\n      iszero\n      mul\n      or\n      swap1\n      sstore\n      pop\n        /* \"contracts/Market.sol\":9015:10165  for(uint i = 0; i < pairsLength; i++){... */\n      pop\n      pop\n      pop\n      pop\n      pop\n        /* \"contracts/Market.sol\":9048:9051  i++ */\n      dup1\n      dup1\n      tag_323\n      swap1\n      tag_83\n      jump\t// in\n    tag_323:\n      swap2\n      pop\n      pop\n        /* \"contracts/Market.sol\":9015:10165  for(uint i = 0; i < pairsLength; i++){... */\n      jump(tag_266)\n    tag_267:\n      pop\n        /* \"contracts/Market.sol\":10181:10185  true */\n      0x01\n      swap6\n        /* \"contracts/Market.sol\":8798:10192  function _cancelBetPairs(bytes32 _bet) private returns(bool) {... */\n      swap5\n      pop\n      pop\n      pop\n      pop\n      pop\n      jump\t// out\n        /* \"contracts/Market.sol\":10556:11829  function _settlePair(bytes32 _pair) private nonReentrant returns(bool) {... */\n    tag_121:\n        /* \"contracts/Market.sol\":10621:10625  bool */\n      0x00\n        /* \"@openzeppelin/contracts/security/ReentrancyGuard.sol\":1744:1745  2 */\n      0x02\n        /* \"@openzeppelin/contracts/security/ReentrancyGuard.sol\":2325:2332  _status */\n      sload(0x00)\n        /* \"@openzeppelin/contracts/security/ReentrancyGuard.sol\":2325:2344  _status != _ENTERED */\n      eq\n      iszero\n        /* \"@openzeppelin/contracts/security/ReentrancyGuard.sol\":2317:2380  require(_status != _ENTERED, \"ReentrancyGuard: reentrant call\") */\n      tag_325\n      jumpi\n      mload(0x40)\n      shl(0xe5, 0x461bcd)\n      dup2\n      mstore\n        /* \"#utility.yul\":10006:10008   */\n      0x20\n        /* \"@openzeppelin/contracts/security/ReentrancyGuard.sol\":2317:2380  require(_status != _ENTERED, \"ReentrancyGuard: reentrant call\") */\n      0x04\n      dup3\n      add\n        /* \"#utility.yul\":9988:10009   */\n      mstore\n        /* \"#utility.yul\":10045:10047   */\n      0x1f\n        /* \"#utility.yul\":10025:10043   */\n      0x24\n      dup3\n      add\n        /* \"#utility.yul\":10018:10048   */\n      mstore\n        /* \"#utility.yul\":10084:10117   */\n      0x5265656e7472616e637947756172643a207265656e7472616e742063616c6c00\n        /* \"#utility.yul\":10064:10082   */\n      0x44\n      dup3\n      add\n        /* \"#utility.yul\":10057:10118   */\n      mstore\n        /* \"#utility.yul\":10135:10153   */\n      0x64\n      add\n        /* \"@openzeppelin/contracts/security/ReentrancyGuard.sol\":2317:2380  require(_status != _ENTERED, \"ReentrancyGuard: reentrant call\") */\n      tag_68\n        /* \"#utility.yul\":9978:10159   */\n      jump\n        /* \"@openzeppelin/contracts/security/ReentrancyGuard.sol\":2317:2380  require(_status != _ENTERED, \"ReentrancyGuard: reentrant call\") */\n    tag_325:\n        /* \"@openzeppelin/contracts/security/ReentrancyGuard.sol\":1744:1745  2 */\n      0x02\n        /* \"@openzeppelin/contracts/security/ReentrancyGuard.sol\":2455:2462  _status */\n      0x00\n        /* \"@openzeppelin/contracts/security/ReentrancyGuard.sol\":2455:2473  _status = _ENTERED */\n      swap1\n      dup2\n      sstore\n        /* \"contracts/Market.sol\":10640:10656  pairsInfo[_pair] */\n      dup3\n      dup2\n      mstore\n        /* \"contracts/Market.sol\":10640:10649  pairsInfo */\n      0x09\n        /* \"contracts/Market.sol\":10640:10656  pairsInfo[_pair] */\n      0x20\n      mstore\n      0x40\n      swap1\n      keccak256\n        /* \"contracts/Market.sol\":10640:10664  pairsInfo[_pair].settled */\n      0x04\n      add\n      sload\n      0xff\n      and\n        /* \"contracts/Market.sol\":10637:10702  if(pairsInfo[_pair].settled){... */\n      iszero\n      tag_328\n      jumpi\n      pop\n        /* \"contracts/Market.sol\":10686:10691  false */\n      0x00\n        /* \"contracts/Market.sol\":10679:10691  return false */\n      jump(tag_88)\n        /* \"contracts/Market.sol\":10637:10702  if(pairsInfo[_pair].settled){... */\n    tag_328:\n        /* \"contracts/Market.sol\":10711:10725  address winner */\n      0x00\n        /* \"contracts/Market.sol\":10735:10752  address affiliate */\n      dup1\n        /* \"contracts/Market.sol\":10762:10779  uint256 winAmount */\n      0x00\n        /* \"contracts/Market.sol\":10789:10806  uint256 vigAmount */\n      dup1\n        /* \"contracts/Market.sol\":10819:10825  status */\n      sload(0x03)\n        /* \"contracts/Market.sol\":10829:10830  1 */\n      0x01\n        /* \"contracts/Market.sol\":10819:10830  status == 1 */\n      eq\n        /* \"contracts/Market.sol\":10816:11550  if(status == 1){... */\n      iszero\n      tag_329\n      jumpi\n        /* \"contracts/Market.sol\":10854:10889  betsInfo[pairsInfo[_pair].betHashA] */\n      0x00\n        /* \"contracts/Market.sol\":10863:10879  pairsInfo[_pair] */\n      dup7\n      dup2\n      mstore\n        /* \"contracts/Market.sol\":10863:10872  pairsInfo */\n      0x09\n        /* \"contracts/Market.sol\":10863:10879  pairsInfo[_pair] */\n      0x20\n      swap1\n      dup2\n      mstore\n      0x40\n      dup1\n      dup4\n      keccak256\n        /* \"contracts/Market.sol\":10863:10888  pairsInfo[_pair].betHashA */\n      sload\n        /* \"contracts/Market.sol\":10854:10889  betsInfo[pairsInfo[_pair].betHashA] */\n      dup4\n      mstore\n        /* \"contracts/Market.sol\":10854:10862  betsInfo */\n      0x07\n        /* \"contracts/Market.sol\":10854:10889  betsInfo[pairsInfo[_pair].betHashA] */\n      dup3\n      mstore\n      swap2\n      dup3\n      swap1\n      keccak256\n        /* \"contracts/Market.sol\":10854:10896  betsInfo[pairsInfo[_pair].betHashA].better */\n      sload\n        /* \"contracts/Market.sol\":10984:10993  app.vig() */\n      dup3\n      mload\n      shl(0xe0, 0x55c4a8bf)\n      dup2\n      mstore\n      swap3\n      mload\n      sub(shl(0xa0, 0x01), 0x01)\n        /* \"contracts/Market.sol\":10854:10896  betsInfo[pairsInfo[_pair].betHashA].better */\n      swap2\n      dup3\n      and\n      swap8\n      pop\n        /* \"contracts/Market.sol\":10997:11000  100 */\n      0x64\n      swap4\n        /* \"contracts/Market.sol\":10984:10987  app */\n      immutable(\"0xd252627c3a7ddb3e9969d764fe6d38be47e2139c12c223f8ce16b1e3a5ed7dbb\")\n        /* \"contracts/Market.sol\":10984:10991  app.vig */\n      swap1\n      swap3\n      and\n      swap3\n      0x55c4a8bf\n      swap3\n        /* \"contracts/Market.sol\":10984:10993  app.vig() */\n      0x04\n      dup1\n      dup3\n      add\n      swap4\n      swap2\n      dup3\n      swap1\n      sub\n      add\n      dup2\n        /* \"contracts/Market.sol\":10984:10991  app.vig */\n      dup7\n        /* \"contracts/Market.sol\":10984:10993  app.vig() */\n      dup1\n      extcodesize\n      iszero\n      dup1\n      iszero\n      tag_330\n      jumpi\n      0x00\n      dup1\n      revert\n    tag_330:\n      pop\n      gas\n      staticcall\n      iszero\n      dup1\n      iszero\n      tag_332\n      jumpi\n      returndatasize\n      0x00\n      dup1\n      returndatacopy\n      revert(0x00, returndatasize)\n    tag_332:\n      pop\n      pop\n      pop\n      pop\n      mload(0x40)\n      returndatasize\n      not(0x1f)\n      0x1f\n      dup3\n      add\n      and\n      dup3\n      add\n      dup1\n      0x40\n      mstore\n      pop\n      dup2\n      add\n      swap1\n      tag_333\n      swap2\n      swap1\n      tag_95\n      jump\t// in\n    tag_333:\n        /* \"contracts/Market.sol\":10978:10993  100 - app.vig() */\n      tag_334\n      swap1\n        /* \"contracts/Market.sol\":10978:10981  100 */\n      0x64\n        /* \"contracts/Market.sol\":10978:10993  100 - app.vig() */\n      tag_101\n      jump\t// in\n    tag_334:\n        /* \"contracts/Market.sol\":10950:10966  pairsInfo[_pair] */\n      0x00\n      dup9\n      dup2\n      mstore\n        /* \"contracts/Market.sol\":10950:10959  pairsInfo */\n      0x09\n        /* \"contracts/Market.sol\":10950:10966  pairsInfo[_pair] */\n      0x20\n      mstore\n      0x40\n      swap1\n      keccak256\n        /* \"contracts/Market.sol\":10950:10974  pairsInfo[_pair].amountB */\n      0x03\n      add\n      sload\n        /* \"contracts/Market.sol\":10950:10994  pairsInfo[_pair].amountB * (100 - app.vig()) */\n      tag_335\n      swap2\n      swap1\n      tag_177\n      jump\t// in\n    tag_335:\n        /* \"contracts/Market.sol\":10950:11000  pairsInfo[_pair].amountB * (100 - app.vig()) / 100 */\n      tag_336\n      swap2\n      swap1\n      tag_179\n      jump\t// in\n    tag_336:\n        /* \"contracts/Market.sol\":10922:10938  pairsInfo[_pair] */\n      0x00\n      dup8\n      dup2\n      mstore\n        /* \"contracts/Market.sol\":10922:10931  pairsInfo */\n      0x09\n        /* \"contracts/Market.sol\":10922:10938  pairsInfo[_pair] */\n      0x20\n      mstore\n      0x40\n      swap1\n      keccak256\n        /* \"contracts/Market.sol\":10922:10946  pairsInfo[_pair].amountA */\n      0x02\n      add\n      sload\n        /* \"contracts/Market.sol\":10922:11001  pairsInfo[_pair].amountA + (pairsInfo[_pair].amountB * (100 - app.vig()) / 100) */\n      tag_337\n      swap2\n      swap1\n      tag_189\n      jump\t// in\n    tag_337:\n        /* \"contracts/Market.sol\":10910:11001  winAmount = pairsInfo[_pair].amountA + (pairsInfo[_pair].amountB * (100 - app.vig()) / 100) */\n      swap2\n      pop\n        /* \"contracts/Market.sol\":11066:11069  100 */\n      0x64\n        /* \"contracts/Market.sol\":11054:11057  app */\n      immutable(\"0xd252627c3a7ddb3e9969d764fe6d38be47e2139c12c223f8ce16b1e3a5ed7dbb\")\n      sub(shl(0xa0, 0x01), 0x01)\n        /* \"contracts/Market.sol\":11054:11061  app.vig */\n      and\n      0x55c4a8bf\n        /* \"contracts/Market.sol\":11054:11063  app.vig() */\n      mload(0x40)\n      dup2\n      0xffffffff\n      and\n      0xe0\n      shl\n      dup2\n      mstore\n      0x04\n      add\n      0x20\n      mload(0x40)\n      dup1\n      dup4\n      sub\n      dup2\n      dup7\n      dup1\n      extcodesize\n      iszero\n      dup1\n      iszero\n      tag_338\n      jumpi\n      0x00\n      dup1\n      revert\n    tag_338:\n      pop\n      gas\n      staticcall\n      iszero\n      dup1\n      iszero\n      tag_340\n      jumpi\n      returndatasize\n      0x00\n      dup1\n      returndatacopy\n      revert(0x00, returndatasize)\n    tag_340:\n      pop\n      pop\n      pop\n      pop\n      mload(0x40)\n      returndatasize\n      not(0x1f)\n      0x1f\n      dup3\n      add\n      and\n      dup3\n      add\n      dup1\n      0x40\n      mstore\n      pop\n      dup2\n      add\n      swap1\n      tag_341\n      swap2\n      swap1\n      tag_95\n      jump\t// in\n    tag_341:\n        /* \"contracts/Market.sol\":11027:11043  pairsInfo[_pair] */\n      0x00\n      dup9\n      dup2\n      mstore\n        /* \"contracts/Market.sol\":11027:11036  pairsInfo */\n      0x09\n        /* \"contracts/Market.sol\":11027:11043  pairsInfo[_pair] */\n      0x20\n      mstore\n      0x40\n      swap1\n      keccak256\n        /* \"contracts/Market.sol\":11027:11051  pairsInfo[_pair].amountB */\n      0x03\n      add\n      sload\n        /* \"contracts/Market.sol\":11027:11063  pairsInfo[_pair].amountB * app.vig() */\n      tag_342\n      swap2\n      swap1\n      tag_177\n      jump\t// in\n    tag_342:\n        /* \"contracts/Market.sol\":11027:11069  pairsInfo[_pair].amountB * app.vig() / 100 */\n      tag_343\n      swap2\n      swap1\n      tag_179\n      jump\t// in\n    tag_343:\n        /* \"contracts/Market.sol\":11095:11130  betsInfo[pairsInfo[_pair].betHashA] */\n      0x00\n        /* \"contracts/Market.sol\":11104:11120  pairsInfo[_pair] */\n      dup8\n      dup2\n      mstore\n        /* \"contracts/Market.sol\":11104:11113  pairsInfo */\n      0x09\n        /* \"contracts/Market.sol\":11104:11120  pairsInfo[_pair] */\n      0x20\n      swap1\n      dup2\n      mstore\n      0x40\n      dup1\n      dup4\n      keccak256\n        /* \"contracts/Market.sol\":11104:11129  pairsInfo[_pair].betHashA */\n      sload\n        /* \"contracts/Market.sol\":11095:11130  betsInfo[pairsInfo[_pair].betHashA] */\n      dup4\n      mstore\n        /* \"contracts/Market.sol\":11095:11103  betsInfo */\n      0x07\n        /* \"contracts/Market.sol\":11095:11130  betsInfo[pairsInfo[_pair].betHashA] */\n      swap1\n      swap2\n      mstore\n      swap1\n      keccak256\n        /* \"contracts/Market.sol\":11095:11140  betsInfo[pairsInfo[_pair].betHashA].affiliate */\n      0x01\n      add\n      sload\n      sub(shl(0xa0, 0x01), 0x01)\n      and\n      swap4\n      pop\n        /* \"contracts/Market.sol\":11015:11069  vigAmount = pairsInfo[_pair].amountB * app.vig() / 100 */\n      swap1\n      pop\n        /* \"contracts/Market.sol\":10816:11550  if(status == 1){... */\n      jump(tag_360)\n    tag_329:\n        /* \"contracts/Market.sol\":11168:11174  status */\n      sload(0x03)\n        /* \"contracts/Market.sol\":11178:11179  2 */\n      0x02\n        /* \"contracts/Market.sol\":11168:11179  status == 2 */\n      eq\n        /* \"contracts/Market.sol\":11165:11550  if(status == 2){... */\n      iszero\n      tag_345\n      jumpi\n        /* \"contracts/Market.sol\":11203:11238  betsInfo[pairsInfo[_pair].betHashB] */\n      0x00\n        /* \"contracts/Market.sol\":11212:11228  pairsInfo[_pair] */\n      dup7\n      dup2\n      mstore\n        /* \"contracts/Market.sol\":11212:11221  pairsInfo */\n      0x09\n        /* \"contracts/Market.sol\":11212:11228  pairsInfo[_pair] */\n      0x20\n      swap1\n      dup2\n      mstore\n      0x40\n      dup1\n      dup4\n      keccak256\n        /* \"contracts/Market.sol\":11212:11237  pairsInfo[_pair].betHashB */\n      0x01\n      add\n      sload\n        /* \"contracts/Market.sol\":11203:11238  betsInfo[pairsInfo[_pair].betHashB] */\n      dup4\n      mstore\n        /* \"contracts/Market.sol\":11203:11211  betsInfo */\n      0x07\n        /* \"contracts/Market.sol\":11203:11238  betsInfo[pairsInfo[_pair].betHashB] */\n      dup3\n      mstore\n      swap2\n      dup3\n      swap1\n      keccak256\n        /* \"contracts/Market.sol\":11203:11245  betsInfo[pairsInfo[_pair].betHashB].better */\n      sload\n        /* \"contracts/Market.sol\":11333:11342  app.vig() */\n      dup3\n      mload\n      shl(0xe0, 0x55c4a8bf)\n      dup2\n      mstore\n      swap3\n      mload\n      sub(shl(0xa0, 0x01), 0x01)\n        /* \"contracts/Market.sol\":11203:11245  betsInfo[pairsInfo[_pair].betHashB].better */\n      swap2\n      dup3\n      and\n      swap8\n      pop\n        /* \"contracts/Market.sol\":11346:11349  100 */\n      0x64\n      swap4\n        /* \"contracts/Market.sol\":11333:11336  app */\n      immutable(\"0xd252627c3a7ddb3e9969d764fe6d38be47e2139c12c223f8ce16b1e3a5ed7dbb\")\n        /* \"contracts/Market.sol\":11333:11340  app.vig */\n      swap1\n      swap3\n      and\n      swap3\n      0x55c4a8bf\n      swap3\n        /* \"contracts/Market.sol\":11333:11342  app.vig() */\n      0x04\n      dup1\n      dup3\n      add\n      swap4\n      swap2\n      dup3\n      swap1\n      sub\n      add\n      dup2\n        /* \"contracts/Market.sol\":11333:11340  app.vig */\n      dup7\n        /* \"contracts/Market.sol\":11333:11342  app.vig() */\n      dup1\n      extcodesize\n      iszero\n      dup1\n      iszero\n      tag_346\n      jumpi\n      0x00\n      dup1\n      revert\n    tag_346:\n      pop\n      gas\n      staticcall\n      iszero\n      dup1\n      iszero\n      tag_348\n      jumpi\n      returndatasize\n      0x00\n      dup1\n      returndatacopy\n      revert(0x00, returndatasize)\n    tag_348:\n      pop\n      pop\n      pop\n      pop\n      mload(0x40)\n      returndatasize\n      not(0x1f)\n      0x1f\n      dup3\n      add\n      and\n      dup3\n      add\n      dup1\n      0x40\n      mstore\n      pop\n      dup2\n      add\n      swap1\n      tag_349\n      swap2\n      swap1\n      tag_95\n      jump\t// in\n    tag_349:\n        /* \"contracts/Market.sol\":11327:11342  100 - app.vig() */\n      tag_350\n      swap1\n        /* \"contracts/Market.sol\":11327:11330  100 */\n      0x64\n        /* \"contracts/Market.sol\":11327:11342  100 - app.vig() */\n      tag_101\n      jump\t// in\n    tag_350:\n        /* \"contracts/Market.sol\":11299:11315  pairsInfo[_pair] */\n      0x00\n      dup9\n      dup2\n      mstore\n        /* \"contracts/Market.sol\":11299:11308  pairsInfo */\n      0x09\n        /* \"contracts/Market.sol\":11299:11315  pairsInfo[_pair] */\n      0x20\n      mstore\n      0x40\n      swap1\n      keccak256\n        /* \"contracts/Market.sol\":11299:11323  pairsInfo[_pair].amountA */\n      0x02\n      add\n      sload\n        /* \"contracts/Market.sol\":11299:11343  pairsInfo[_pair].amountA * (100 - app.vig()) */\n      tag_351\n      swap2\n      swap1\n      tag_177\n      jump\t// in\n    tag_351:\n        /* \"contracts/Market.sol\":11299:11349  pairsInfo[_pair].amountA * (100 - app.vig()) / 100 */\n      tag_352\n      swap2\n      swap1\n      tag_179\n      jump\t// in\n    tag_352:\n        /* \"contracts/Market.sol\":11271:11287  pairsInfo[_pair] */\n      0x00\n      dup8\n      dup2\n      mstore\n        /* \"contracts/Market.sol\":11271:11280  pairsInfo */\n      0x09\n        /* \"contracts/Market.sol\":11271:11287  pairsInfo[_pair] */\n      0x20\n      mstore\n      0x40\n      swap1\n      keccak256\n        /* \"contracts/Market.sol\":11271:11295  pairsInfo[_pair].amountB */\n      0x03\n      add\n      sload\n        /* \"contracts/Market.sol\":11271:11350  pairsInfo[_pair].amountB + (pairsInfo[_pair].amountA * (100 - app.vig()) / 100) */\n      tag_353\n      swap2\n      swap1\n      tag_189\n      jump\t// in\n    tag_353:\n        /* \"contracts/Market.sol\":11259:11350  winAmount = pairsInfo[_pair].amountB + (pairsInfo[_pair].amountA * (100 - app.vig()) / 100) */\n      swap2\n      pop\n        /* \"contracts/Market.sol\":11415:11418  100 */\n      0x64\n        /* \"contracts/Market.sol\":11403:11406  app */\n      immutable(\"0xd252627c3a7ddb3e9969d764fe6d38be47e2139c12c223f8ce16b1e3a5ed7dbb\")\n      sub(shl(0xa0, 0x01), 0x01)\n        /* \"contracts/Market.sol\":11403:11410  app.vig */\n      and\n      0x55c4a8bf\n        /* \"contracts/Market.sol\":11403:11412  app.vig() */\n      mload(0x40)\n      dup2\n      0xffffffff\n      and\n      0xe0\n      shl\n      dup2\n      mstore\n      0x04\n      add\n      0x20\n      mload(0x40)\n      dup1\n      dup4\n      sub\n      dup2\n      dup7\n      dup1\n      extcodesize\n      iszero\n      dup1\n      iszero\n      tag_354\n      jumpi\n      0x00\n      dup1\n      revert\n    tag_354:\n      pop\n      gas\n      staticcall\n      iszero\n      dup1\n      iszero\n      tag_356\n      jumpi\n      returndatasize\n      0x00\n      dup1\n      returndatacopy\n      revert(0x00, returndatasize)\n    tag_356:\n      pop\n      pop\n      pop\n      pop\n      mload(0x40)\n      returndatasize\n      not(0x1f)\n      0x1f\n      dup3\n      add\n      and\n      dup3\n      add\n      dup1\n      0x40\n      mstore\n      pop\n      dup2\n      add\n      swap1\n      tag_357\n      swap2\n      swap1\n      tag_95\n      jump\t// in\n    tag_357:\n        /* \"contracts/Market.sol\":11376:11392  pairsInfo[_pair] */\n      0x00\n      dup9\n      dup2\n      mstore\n        /* \"contracts/Market.sol\":11376:11385  pairsInfo */\n      0x09\n        /* \"contracts/Market.sol\":11376:11392  pairsInfo[_pair] */\n      0x20\n      mstore\n      0x40\n      swap1\n      keccak256\n        /* \"contracts/Market.sol\":11376:11400  pairsInfo[_pair].amountA */\n      0x02\n      add\n      sload\n        /* \"contracts/Market.sol\":11376:11412  pairsInfo[_pair].amountA * app.vig() */\n      tag_358\n      swap2\n      swap1\n      tag_177\n      jump\t// in\n    tag_358:\n        /* \"contracts/Market.sol\":11376:11418  pairsInfo[_pair].amountA * app.vig() / 100 */\n      tag_359\n      swap2\n      swap1\n      tag_179\n      jump\t// in\n    tag_359:\n        /* \"contracts/Market.sol\":11444:11479  betsInfo[pairsInfo[_pair].betHashB] */\n      0x00\n        /* \"contracts/Market.sol\":11453:11469  pairsInfo[_pair] */\n      dup8\n      dup2\n      mstore\n        /* \"contracts/Market.sol\":11453:11462  pairsInfo */\n      0x09\n        /* \"contracts/Market.sol\":11453:11469  pairsInfo[_pair] */\n      0x20\n      swap1\n      dup2\n      mstore\n      0x40\n      dup1\n      dup4\n      keccak256\n        /* \"contracts/Market.sol\":11453:11478  pairsInfo[_pair].betHashB */\n      0x01\n      swap1\n      dup2\n      add\n      sload\n        /* \"contracts/Market.sol\":11444:11479  betsInfo[pairsInfo[_pair].betHashB] */\n      dup5\n      mstore\n        /* \"contracts/Market.sol\":11444:11452  betsInfo */\n      0x07\n        /* \"contracts/Market.sol\":11444:11479  betsInfo[pairsInfo[_pair].betHashB] */\n      swap1\n      swap3\n      mstore\n      swap1\n      swap2\n      keccak256\n        /* \"contracts/Market.sol\":11444:11489  betsInfo[pairsInfo[_pair].betHashB].affiliate */\n      add\n      sload\n      sub(shl(0xa0, 0x01), 0x01)\n      and\n      swap4\n      pop\n        /* \"contracts/Market.sol\":11364:11418  vigAmount = pairsInfo[_pair].amountA * app.vig() / 100 */\n      swap1\n      pop\n        /* \"contracts/Market.sol\":11165:11550  if(status == 2){... */\n      jump(tag_360)\n    tag_345:\n        /* \"contracts/Market.sol\":11534:11539  false */\n      0x00\n        /* \"contracts/Market.sol\":11527:11539  return false */\n      swap5\n      pop\n      pop\n      pop\n      pop\n      pop\n      jump(tag_88)\n        /* \"contracts/Market.sol\":11165:11550  if(status == 2){... */\n    tag_360:\n      sub(shl(0xa0, 0x01), 0x01)\n        /* \"contracts/Market.sol\":11559:11570  bal[winner] */\n      dup5\n      and\n      0x00\n      swap1\n      dup2\n      mstore\n        /* \"contracts/Market.sol\":11559:11562  bal */\n      0x06\n        /* \"contracts/Market.sol\":11559:11570  bal[winner] */\n      0x20\n      mstore\n      0x40\n      dup2\n      keccak256\n        /* \"contracts/Market.sol\":11559:11583  bal[winner] += winAmount */\n      dup1\n      sload\n        /* \"contracts/Market.sol\":11574:11583  winAmount */\n      dup5\n      swap3\n        /* \"contracts/Market.sol\":11559:11570  bal[winner] */\n      swap1\n        /* \"contracts/Market.sol\":11559:11583  bal[winner] += winAmount */\n      tag_361\n      swap1\n        /* \"contracts/Market.sol\":11574:11583  winAmount */\n      dup5\n      swap1\n        /* \"contracts/Market.sol\":11559:11583  bal[winner] += winAmount */\n      tag_189\n      jump\t// in\n    tag_361:\n      swap3\n      pop\n      pop\n      dup2\n      swap1\n      sstore\n      pop\n        /* \"contracts/Market.sol\":11641:11644  100 */\n      0x64\n        /* \"contracts/Market.sol\":11628:11631  app */\n      immutable(\"0xd252627c3a7ddb3e9969d764fe6d38be47e2139c12c223f8ce16b1e3a5ed7dbb\")\n      sub(shl(0xa0, 0x01), 0x01)\n        /* \"contracts/Market.sol\":11628:11636  app.hVig */\n      and\n      0x6a0ccd9d\n        /* \"contracts/Market.sol\":11628:11638  app.hVig() */\n      mload(0x40)\n      dup2\n      0xffffffff\n      and\n      0xe0\n      shl\n      dup2\n      mstore\n      0x04\n      add\n      0x20\n      mload(0x40)\n      dup1\n      dup4\n      sub\n      dup2\n      dup7\n      dup1\n      extcodesize\n      iszero\n      dup1\n      iszero\n      tag_362\n      jumpi\n      0x00\n      dup1\n      revert\n    tag_362:\n      pop\n      gas\n      staticcall\n      iszero\n      dup1\n      iszero\n      tag_364\n      jumpi\n      returndatasize\n      0x00\n      dup1\n      returndatacopy\n      revert(0x00, returndatasize)\n    tag_364:\n      pop\n      pop\n      pop\n      pop\n      mload(0x40)\n      returndatasize\n      not(0x1f)\n      0x1f\n      dup3\n      add\n      and\n      dup3\n      add\n      dup1\n      0x40\n      mstore\n      pop\n      dup2\n      add\n      swap1\n      tag_365\n      swap2\n      swap1\n      tag_95\n      jump\t// in\n    tag_365:\n        /* \"contracts/Market.sol\":11616:11638  vigAmount * app.hVig() */\n      tag_366\n      swap1\n        /* \"contracts/Market.sol\":11616:11625  vigAmount */\n      dup4\n        /* \"contracts/Market.sol\":11616:11638  vigAmount * app.hVig() */\n      tag_177\n      jump\t// in\n    tag_366:\n        /* \"contracts/Market.sol\":11616:11644  vigAmount * app.hVig() / 100 */\n      tag_367\n      swap2\n      swap1\n      tag_179\n      jump\t// in\n    tag_367:\n        /* \"contracts/Market.sol\":11593:11596  bal */\n      0x06\n        /* \"contracts/Market.sol\":11593:11612  bal[app.holdAddr()] */\n      0x00\n        /* \"contracts/Market.sol\":11597:11600  app */\n      immutable(\"0xd252627c3a7ddb3e9969d764fe6d38be47e2139c12c223f8ce16b1e3a5ed7dbb\")\n      sub(shl(0xa0, 0x01), 0x01)\n        /* \"contracts/Market.sol\":11597:11609  app.holdAddr */\n      and\n      0xb7640a54\n        /* \"contracts/Market.sol\":11597:11611  app.holdAddr() */\n      mload(0x40)\n      dup2\n      0xffffffff\n      and\n      0xe0\n      shl\n      dup2\n      mstore\n      0x04\n      add\n      0x20\n      mload(0x40)\n      dup1\n      dup4\n      sub\n      dup2\n      dup7\n      dup1\n      extcodesize\n      iszero\n      dup1\n      iszero\n      tag_368\n      jumpi\n      0x00\n      dup1\n      revert\n    tag_368:\n      pop\n      gas\n      staticcall\n      iszero\n      dup1\n      iszero\n      tag_370\n      jumpi\n      returndatasize\n      0x00\n      dup1\n      returndatacopy\n      revert(0x00, returndatasize)\n    tag_370:\n      pop\n      pop\n      pop\n      pop\n      mload(0x40)\n      returndatasize\n      not(0x1f)\n      0x1f\n      dup3\n      add\n      and\n      dup3\n      add\n      dup1\n      0x40\n      mstore\n      pop\n      dup2\n      add\n      swap1\n      tag_371\n      swap2\n      swap1\n      tag_198\n      jump\t// in\n    tag_371:\n      sub(shl(0xa0, 0x01), 0x01)\n        /* \"contracts/Market.sol\":11593:11612  bal[app.holdAddr()] */\n      and\n      sub(shl(0xa0, 0x01), 0x01)\n      and\n      dup2\n      mstore\n      0x20\n      add\n      swap1\n      dup2\n      mstore\n      0x20\n      add\n      0x00\n      keccak256\n      0x00\n        /* \"contracts/Market.sol\":11593:11644  bal[app.holdAddr()] += vigAmount * app.hVig() / 100 */\n      dup3\n      dup3\n      sload\n      tag_372\n      swap2\n      swap1\n      tag_189\n      jump\t// in\n    tag_372:\n      swap3\n      pop\n      pop\n      dup2\n      swap1\n      sstore\n      pop\n        /* \"contracts/Market.sol\":11701:11704  100 */\n      0x64\n        /* \"contracts/Market.sol\":11688:11691  app */\n      immutable(\"0xd252627c3a7ddb3e9969d764fe6d38be47e2139c12c223f8ce16b1e3a5ed7dbb\")\n      sub(shl(0xa0, 0x01), 0x01)\n        /* \"contracts/Market.sol\":11688:11696  app.eVig */\n      and\n      0x28576d45\n        /* \"contracts/Market.sol\":11688:11698  app.eVig() */\n      mload(0x40)\n      dup2\n      0xffffffff\n      and\n      0xe0\n      shl\n      dup2\n      mstore\n      0x04\n      add\n      0x20\n      mload(0x40)\n      dup1\n      dup4\n      sub\n      dup2\n      dup7\n      dup1\n      extcodesize\n      iszero\n      dup1\n      iszero\n      tag_373\n      jumpi\n      0x00\n      dup1\n      revert\n    tag_373:\n      pop\n      gas\n      staticcall\n      iszero\n      dup1\n      iszero\n      tag_375\n      jumpi\n      returndatasize\n      0x00\n      dup1\n      returndatacopy\n      revert(0x00, returndatasize)\n    tag_375:\n      pop\n      pop\n      pop\n      pop\n      mload(0x40)\n      returndatasize\n      not(0x1f)\n      0x1f\n      dup3\n      add\n      and\n      dup3\n      add\n      dup1\n      0x40\n      mstore\n      pop\n      dup2\n      add\n      swap1\n      tag_376\n      swap2\n      swap1\n      tag_95\n      jump\t// in\n    tag_376:\n        /* \"contracts/Market.sol\":11676:11698  vigAmount * app.eVig() */\n      tag_377\n      swap1\n        /* \"contracts/Market.sol\":11676:11685  vigAmount */\n      dup4\n        /* \"contracts/Market.sol\":11676:11698  vigAmount * app.eVig() */\n      tag_177\n      jump\t// in\n    tag_377:\n        /* \"contracts/Market.sol\":11676:11704  vigAmount * app.eVig() / 100 */\n      tag_378\n      swap2\n      swap1\n      tag_179\n      jump\t// in\n    tag_378:\n        /* \"contracts/Market.sol\":11654:11657  bal */\n      0x06\n        /* \"contracts/Market.sol\":11654:11672  bal[app.ecoAddr()] */\n      0x00\n        /* \"contracts/Market.sol\":11658:11661  app */\n      immutable(\"0xd252627c3a7ddb3e9969d764fe6d38be47e2139c12c223f8ce16b1e3a5ed7dbb\")\n      sub(shl(0xa0, 0x01), 0x01)\n        /* \"contracts/Market.sol\":11658:11669  app.ecoAddr */\n      and\n      0x09953b2f\n        /* \"contracts/Market.sol\":11658:11671  app.ecoAddr() */\n      mload(0x40)\n      dup2\n      0xffffffff\n      and\n      0xe0\n      shl\n      dup2\n      mstore\n      0x04\n      add\n      0x20\n      mload(0x40)\n      dup1\n      dup4\n      sub\n      dup2\n      dup7\n      dup1\n      extcodesize\n      iszero\n      dup1\n      iszero\n      tag_379\n      jumpi\n      0x00\n      dup1\n      revert\n    tag_379:\n      pop\n      gas\n      staticcall\n      iszero\n      dup1\n      iszero\n      tag_381\n      jumpi\n      returndatasize\n      0x00\n      dup1\n      returndatacopy\n      revert(0x00, returndatasize)\n    tag_381:\n      pop\n      pop\n      pop\n      pop\n      mload(0x40)\n      returndatasize\n      not(0x1f)\n      0x1f\n      dup3\n      add\n      and\n      dup3\n      add\n      dup1\n      0x40\n      mstore\n      pop\n      dup2\n      add\n      swap1\n      tag_382\n      swap2\n      swap1\n      tag_198\n      jump\t// in\n    tag_382:\n      sub(shl(0xa0, 0x01), 0x01)\n        /* \"contracts/Market.sol\":11654:11672  bal[app.ecoAddr()] */\n      and\n      sub(shl(0xa0, 0x01), 0x01)\n      and\n      dup2\n      mstore\n      0x20\n      add\n      swap1\n      dup2\n      mstore\n      0x20\n      add\n      0x00\n      keccak256\n      0x00\n        /* \"contracts/Market.sol\":11654:11704  bal[app.ecoAddr()] += vigAmount * app.eVig() / 100 */\n      dup3\n      dup3\n      sload\n      tag_383\n      swap2\n      swap1\n      tag_189\n      jump\t// in\n    tag_383:\n      swap3\n      pop\n      pop\n      dup2\n      swap1\n      sstore\n      pop\n        /* \"contracts/Market.sol\":11757:11760  100 */\n      0x64\n        /* \"contracts/Market.sol\":11744:11747  app */\n      immutable(\"0xd252627c3a7ddb3e9969d764fe6d38be47e2139c12c223f8ce16b1e3a5ed7dbb\")\n      sub(shl(0xa0, 0x01), 0x01)\n        /* \"contracts/Market.sol\":11744:11752  app.aVig */\n      and\n      0x54cd1a5c\n        /* \"contracts/Market.sol\":11744:11754  app.aVig() */\n      mload(0x40)\n      dup2\n      0xffffffff\n      and\n      0xe0\n      shl\n      dup2\n      mstore\n      0x04\n      add\n      0x20\n      mload(0x40)\n      dup1\n      dup4\n      sub\n      dup2\n      dup7\n      dup1\n      extcodesize\n      iszero\n      dup1\n      iszero\n      tag_384\n      jumpi\n      0x00\n      dup1\n      revert\n    tag_384:\n      pop\n      gas\n      staticcall\n      iszero\n      dup1\n      iszero\n      tag_386\n      jumpi\n      returndatasize\n      0x00\n      dup1\n      returndatacopy\n      revert(0x00, returndatasize)\n    tag_386:\n      pop\n      pop\n      pop\n      pop\n      mload(0x40)\n      returndatasize\n      not(0x1f)\n      0x1f\n      dup3\n      add\n      and\n      dup3\n      add\n      dup1\n      0x40\n      mstore\n      pop\n      dup2\n      add\n      swap1\n      tag_387\n      swap2\n      swap1\n      tag_95\n      jump\t// in\n    tag_387:\n        /* \"contracts/Market.sol\":11732:11754  vigAmount * app.aVig() */\n      tag_388\n      swap1\n        /* \"contracts/Market.sol\":11732:11741  vigAmount */\n      dup4\n        /* \"contracts/Market.sol\":11732:11754  vigAmount * app.aVig() */\n      tag_177\n      jump\t// in\n    tag_388:\n        /* \"contracts/Market.sol\":11732:11760  vigAmount * app.aVig() / 100 */\n      tag_389\n      swap2\n      swap1\n      tag_179\n      jump\t// in\n    tag_389:\n      sub(shl(0xa0, 0x01), 0x01)\n        /* \"contracts/Market.sol\":11714:11728  bal[affiliate] */\n      dup5\n      and\n      0x00\n      swap1\n      dup2\n      mstore\n        /* \"contracts/Market.sol\":11714:11717  bal */\n      0x06\n        /* \"contracts/Market.sol\":11714:11728  bal[affiliate] */\n      0x20\n      mstore\n      0x40\n      dup2\n      keccak256\n        /* \"contracts/Market.sol\":11714:11760  bal[affiliate] += vigAmount * app.aVig() / 100 */\n      dup1\n      sload\n        /* \"contracts/Market.sol\":11714:11728  bal[affiliate] */\n      swap1\n      swap2\n      swap1\n        /* \"contracts/Market.sol\":11714:11760  bal[affiliate] += vigAmount * app.aVig() / 100 */\n      tag_390\n      swap1\n      dup5\n      swap1\n      tag_189\n      jump\t// in\n    tag_390:\n      swap1\n      swap2\n      sstore\n      pop\n      pop\n      pop\n        /* \"contracts/Market.sol\":11770:11786  pairsInfo[_pair] */\n      0x00\n      swap5\n      dup6\n      mstore\n      pop\n      pop\n        /* \"contracts/Market.sol\":11770:11779  pairsInfo */\n      0x09\n        /* \"contracts/Market.sol\":11770:11786  pairsInfo[_pair] */\n      0x20\n      mstore\n      pop\n      pop\n      0x40\n      dup2\n      keccak256\n        /* \"contracts/Market.sol\":11770:11794  pairsInfo[_pair].settled */\n      0x04\n      add\n        /* \"contracts/Market.sol\":11770:11801  pairsInfo[_pair].settled = true */\n      dup1\n      sload\n      not(0xff)\n      and\n        /* \"contracts/Market.sol\":11797:11801  true */\n      0x01\n        /* \"contracts/Market.sol\":11770:11801  pairsInfo[_pair].settled = true */\n      swap1\n      dup2\n      or\n      swap1\n      swap2\n      sstore\n        /* \"@openzeppelin/contracts/security/ReentrancyGuard.sol\":2628:2650  _status = _NOT_ENTERED */\n      swap1\n      dup2\n      swap1\n      sstore\n        /* \"contracts/Market.sol\":11797:11801  true */\n      swap1\n        /* \"contracts/Market.sol\":10556:11829  function _settlePair(bytes32 _pair) private nonReentrant returns(bool) {... */\n      jump\t// out\n        /* \"contracts/Market.sol\":11835:12737  function _createBet(... */\n    tag_180:\n        /* \"contracts/Market.sol\":12034:12041  bytes32 */\n      0x00\n        /* \"contracts/Market.sol\":12057:12072  bytes32 betHash */\n      dup1\n        /* \"contracts/Market.sol\":12082:12088  uint i */\n      0x00\n        /* \"contracts/Market.sol\":12102:12451  while(i >= 0){... */\n    tag_392:\n        /* \"contracts/Market.sol\":12239:12243  bets */\n      0x05\n        /* \"contracts/Market.sol\":12239:12250  bets.length */\n      sload\n        /* \"contracts/Market.sol\":12183:12190  _better */\n      dup10\n      swap1\n        /* \"contracts/Market.sol\":12216:12220  this */\n      address\n      swap1\n        /* \"contracts/Market.sol\":12257:12258  i */\n      dup4\n      swap1\n        /* \"contracts/Market.sol\":12239:12254  bets.length + 1 */\n      tag_394\n      swap1\n        /* \"contracts/Market.sol\":12253:12254  1 */\n      0x01\n        /* \"contracts/Market.sol\":12239:12254  bets.length + 1 */\n      tag_189\n      jump\t// in\n    tag_394:\n        /* \"contracts/Market.sol\":12239:12258  bets.length + 1 + i */\n      tag_395\n      swap2\n      swap1\n      tag_189\n      jump\t// in\n    tag_395:\n        /* \"contracts/Market.sol\":12149:12339  abi.encodePacked(... */\n      mload(0x40)\n      not(0xffffffffffffffffffffffff)\n        /* \"#utility.yul\":2447:2449   */\n      0x60\n        /* \"#utility.yul\":2443:2458   */\n      swap5\n      dup6\n      shl\n        /* \"#utility.yul\":2439:2463   */\n      dup2\n      and\n        /* \"contracts/Market.sol\":12149:12339  abi.encodePacked(... */\n      0x20\n      dup4\n      add\n        /* \"#utility.yul\":2427:2464   */\n      mstore\n        /* \"#utility.yul\":2498:2513   */\n      swap3\n      swap1\n      swap4\n      shl\n        /* \"#utility.yul\":2494:2518   */\n      swap1\n      swap2\n      and\n        /* \"#utility.yul\":2480:2492   */\n      0x34\n      dup4\n      add\n        /* \"#utility.yul\":2473:2519   */\n      mstore\n        /* \"#utility.yul\":2535:2547   */\n      0x48\n      dup3\n      add\n        /* \"#utility.yul\":2528:2556   */\n      mstore\n        /* \"contracts/Market.sol\":12276:12291  block.timestamp */\n      timestamp\n        /* \"#utility.yul\":2572:2584   */\n      0x68\n      dup3\n      add\n        /* \"#utility.yul\":2565:2593   */\n      mstore\n        /* \"contracts/Market.sol\":12309:12325  block.difficulty */\n      difficulty\n        /* \"#utility.yul\":2609:2622   */\n      0x88\n      dup3\n      add\n        /* \"#utility.yul\":2602:2631   */\n      mstore\n        /* \"#utility.yul\":2647:2660   */\n      0xa8\n      add\n        /* \"contracts/Market.sol\":12149:12339  abi.encodePacked(... */\n      0x40\n      dup1\n      mload\n      not(0x1f)\n      dup2\n      dup5\n      sub\n      add\n      dup2\n      mstore\n      swap2\n      dup2\n      mstore\n        /* \"contracts/Market.sol\":12139:12340  keccak256(abi.encodePacked(... */\n      dup2\n      mload\n        /* \"contracts/Market.sol\":12149:12339  abi.encodePacked(... */\n      0x20\n        /* \"contracts/Market.sol\":12139:12340  keccak256(abi.encodePacked(... */\n      swap3\n      dup4\n      add\n      keccak256\n        /* \"contracts/Market.sol\":12357:12374  betsInfo[betHash] */\n      0x00\n      dup2\n      dup2\n      mstore\n        /* \"contracts/Market.sol\":12357:12365  betsInfo */\n      0x07\n        /* \"contracts/Market.sol\":12357:12374  betsInfo[betHash] */\n      swap1\n      swap4\n      mstore\n      swap2\n      keccak256\n        /* \"contracts/Market.sol\":12357:12380  betsInfo[betHash].stake */\n      0x02\n      add\n      sload\n        /* \"contracts/Market.sol\":12139:12340  keccak256(abi.encodePacked(... */\n      swap1\n      swap3\n      pop\n        /* \"contracts/Market.sol\":12354:12424  if(betsInfo[betHash].stake == 0){... */\n      tag_398\n      jumpi\n        /* \"contracts/Market.sol\":12404:12409  break */\n      jump(tag_393)\n        /* \"contracts/Market.sol\":12354:12424  if(betsInfo[betHash].stake == 0){... */\n    tag_398:\n        /* \"contracts/Market.sol\":12437:12440  i++ */\n      dup1\n      tag_399\n      dup2\n      tag_83\n      jump\t// in\n    tag_399:\n      swap2\n      pop\n      pop\n        /* \"contracts/Market.sol\":12102:12451  while(i >= 0){... */\n      jump(tag_392)\n    tag_393:\n      sub(shl(0xa0, 0x01), 0x01)\n        /* \"contracts/Market.sol\":12463:12487  _affiliate == address(0) */\n      dup9\n      and\n        /* \"contracts/Market.sol\":12460:12539  if(_affiliate == address(0)){... */\n      tag_400\n      jumpi\n        /* \"contracts/Market.sol\":12515:12518  app */\n      immutable(\"0xd252627c3a7ddb3e9969d764fe6d38be47e2139c12c223f8ce16b1e3a5ed7dbb\")\n      sub(shl(0xa0, 0x01), 0x01)\n        /* \"contracts/Market.sol\":12515:12526  app.ecoAddr */\n      and\n      0x09953b2f\n        /* \"contracts/Market.sol\":12515:12528  app.ecoAddr() */\n      mload(0x40)\n      dup2\n      0xffffffff\n      and\n      0xe0\n      shl\n      dup2\n      mstore\n      0x04\n      add\n      0x20\n      mload(0x40)\n      dup1\n      dup4\n      sub\n      dup2\n      dup7\n      dup1\n      extcodesize\n      iszero\n      dup1\n      iszero\n      tag_401\n      jumpi\n      0x00\n      dup1\n      revert\n    tag_401:\n      pop\n      gas\n      staticcall\n      iszero\n      dup1\n      iszero\n      tag_403\n      jumpi\n      returndatasize\n      0x00\n      dup1\n      returndatacopy\n      revert(0x00, returndatasize)\n    tag_403:\n      pop\n      pop\n      pop\n      pop\n      mload(0x40)\n      returndatasize\n      not(0x1f)\n      0x1f\n      dup3\n      add\n      and\n      dup3\n      add\n      dup1\n      0x40\n      mstore\n      pop\n      dup2\n      add\n      swap1\n      tag_404\n      swap2\n      swap1\n      tag_198\n      jump\t// in\n    tag_404:\n        /* \"contracts/Market.sol\":12502:12528  _affiliate = app.ecoAddr() */\n      swap8\n      pop\n        /* \"contracts/Market.sol\":12460:12539  if(_affiliate == address(0)){... */\n    tag_400:\n      pop\n        /* \"contracts/Market.sol\":12568:12637  Struct.MarketBet(_better, _affiliate, _stake, _matched, _odds, _side) */\n      0x40\n      dup1\n      mload\n      0xc0\n      dup2\n      add\n      dup3\n      mstore\n      sub(shl(0xa0, 0x01), 0x01)\n      swap10\n      dup11\n      and\n      dup1\n      dup3\n      mstore\n      swap9\n      dup11\n      and\n      0x20\n      dup1\n      dup4\n      add\n      swap2\n      dup3\n      mstore\n      dup3\n      dup5\n      add\n      swap10\n      dup11\n      mstore\n      0x60\n      dup4\n      add\n      swap9\n      dup10\n      mstore\n      0x80\n      dup4\n      add\n      swap8\n      dup9\n      mstore\n      0xa0\n      dup4\n      add\n      swap7\n      dup8\n      mstore\n      0x00\n        /* \"contracts/Market.sol\":12548:12565  betsInfo[betHash] */\n      dup6\n      dup2\n      mstore\n        /* \"contracts/Market.sol\":12548:12556  betsInfo */\n      0x07\n        /* \"contracts/Market.sol\":12548:12565  betsInfo[betHash] */\n      dup3\n      mstore\n      dup5\n      dup2\n      keccak256\n        /* \"contracts/Market.sol\":12548:12637  betsInfo[betHash] = Struct.MarketBet(_better, _affiliate, _stake, _matched, _odds, _side) */\n      swap4\n      mload\n      dup5\n      sload\n      swap1\n      dup15\n      and\n      not(sub(shl(0xa0, 0x01), 0x01))\n      swap2\n      dup3\n      and\n      or\n      dup6\n      sstore\n      swap3\n      mload\n      0x01\n      dup1\n      dup7\n      add\n      dup1\n      sload\n      swap3\n      swap1\n      swap16\n      and\n      swap2\n      swap1\n      swap5\n      and\n      or\n      swap1\n      swap13\n      sstore\n      swap9\n      mload\n      0x02\n      dup4\n      add\n      sstore\n      swap7\n      mload\n      0x03\n      dup3\n      add\n      sstore\n      swap5\n      mload\n      0x04\n      dup7\n      add\n      sstore\n      swap3\n      mload\n      0x05\n      swap5\n      dup6\n      add\n      sstore\n        /* \"contracts/Market.sol\":12647:12665  bets.push(betHash) */\n      dup4\n      sload\n      dup1\n      dup7\n      add\n      swap1\n      swap5\n      sstore\n      0x036b6384b5eca791c62761152d0c79bb0604c104a5fb6f4eb0703f3154bb3db0\n      swap1\n      swap4\n      add\n      dup4\n      swap1\n      sstore\n      pop\n        /* \"contracts/Market.sol\":12675:12692  userBets[_better] */\n      swap4\n      dup6\n      mstore\n        /* \"contracts/Market.sol\":12675:12683  userBets */\n      0x08\n        /* \"contracts/Market.sol\":12675:12692  userBets[_better] */\n      dup4\n      mstore\n      swap3\n      dup5\n      keccak256\n        /* \"contracts/Market.sol\":12675:12706  userBets[_better].push(betHash) */\n      dup1\n      sload\n      swap2\n      dup3\n      add\n      dup2\n      sstore\n      dup5\n      mstore\n      swap3\n      keccak256\n      swap1\n      swap2\n      add\n      dup2\n      swap1\n      sstore\n        /* \"contracts/Market.sol\":12548:12565  betsInfo[betHash] */\n      swap1\n        /* \"contracts/Market.sol\":11835:12737  function _createBet(... */\n      jump\t// out\n        /* \"contracts/Market.sol\":10198:10546  function _cancelPair(bytes32 _pair) private {... */\n    tag_259:\n        /* \"contracts/Market.sol\":10252:10267  address betterA */\n      0x00\n        /* \"contracts/Market.sol\":10279:10295  pairsInfo[_pair] */\n      dup2\n      dup2\n      mstore\n        /* \"contracts/Market.sol\":10279:10288  pairsInfo */\n      0x09\n        /* \"contracts/Market.sol\":10279:10295  pairsInfo[_pair] */\n      0x20\n      swap1\n      dup2\n      mstore\n      0x40\n      dup1\n      dup4\n      keccak256\n        /* \"contracts/Market.sol\":10279:10304  pairsInfo[_pair].betHashA */\n      dup1\n      sload\n        /* \"contracts/Market.sol\":10270:10305  betsInfo[pairsInfo[_pair].betHashA] */\n      dup5\n      mstore\n        /* \"contracts/Market.sol\":10270:10278  betsInfo */\n      0x07\n        /* \"contracts/Market.sol\":10270:10305  betsInfo[pairsInfo[_pair].betHashA] */\n      dup4\n      mstore\n      dup2\n      dup5\n      keccak256\n        /* \"contracts/Market.sol\":10270:10312  betsInfo[pairsInfo[_pair].betHashA].better */\n      sload\n      0x01\n        /* \"contracts/Market.sol\":10349:10374  pairsInfo[_pair].betHashB */\n      dup3\n      add\n      sload\n        /* \"contracts/Market.sol\":10340:10375  betsInfo[pairsInfo[_pair].betHashB] */\n      dup6\n      mstore\n      dup3\n      dup6\n      keccak256\n        /* \"contracts/Market.sol\":10340:10382  betsInfo[pairsInfo[_pair].betHashB].better */\n      sload\n        /* \"contracts/Market.sol\":10408:10432  pairsInfo[_pair].amountA */\n      0x02\n      swap1\n      swap3\n      add\n      sload\n      sub(shl(0xa0, 0x01), 0x01)\n        /* \"contracts/Market.sol\":10270:10312  betsInfo[pairsInfo[_pair].betHashA].better */\n      swap2\n      dup3\n      and\n        /* \"contracts/Market.sol\":10392:10404  bal[betterA] */\n      dup1\n      dup8\n      mstore\n        /* \"contracts/Market.sol\":10392:10395  bal */\n      0x06\n        /* \"contracts/Market.sol\":10392:10404  bal[betterA] */\n      swap1\n      swap6\n      mstore\n      swap3\n      dup6\n      keccak256\n        /* \"contracts/Market.sol\":10392:10432  bal[betterA] += pairsInfo[_pair].amountA */\n      dup1\n      sload\n        /* \"contracts/Market.sol\":10270:10312  betsInfo[pairsInfo[_pair].betHashA].better */\n      swap5\n      swap6\n        /* \"contracts/Market.sol\":10340:10382  betsInfo[pairsInfo[_pair].betHashB].better */\n      swap2\n      swap1\n      swap3\n      and\n      swap4\n        /* \"contracts/Market.sol\":10392:10432  bal[betterA] += pairsInfo[_pair].amountA */\n      tag_408\n      swap1\n        /* \"contracts/Market.sol\":10408:10432  pairsInfo[_pair].amountA */\n      dup5\n      swap1\n        /* \"contracts/Market.sol\":10392:10432  bal[betterA] += pairsInfo[_pair].amountA */\n      tag_189\n      jump\t// in\n    tag_408:\n      swap1\n      swap2\n      sstore\n      pop\n      pop\n        /* \"contracts/Market.sol\":10458:10474  pairsInfo[_pair] */\n      0x00\n      dup4\n      dup2\n      mstore\n        /* \"contracts/Market.sol\":10458:10467  pairsInfo */\n      0x09\n        /* \"contracts/Market.sol\":10458:10474  pairsInfo[_pair] */\n      0x20\n      swap1\n      dup2\n      mstore\n      0x40\n      dup1\n      dup4\n      keccak256\n        /* \"contracts/Market.sol\":10458:10482  pairsInfo[_pair].amountB */\n      0x03\n      add\n      sload\n      sub(shl(0xa0, 0x01), 0x01)\n        /* \"contracts/Market.sol\":10442:10454  bal[betterB] */\n      dup6\n      and\n      dup5\n      mstore\n        /* \"contracts/Market.sol\":10442:10445  bal */\n      0x06\n        /* \"contracts/Market.sol\":10442:10454  bal[betterB] */\n      swap1\n      swap3\n      mstore\n      dup3\n      keccak256\n        /* \"contracts/Market.sol\":10442:10482  bal[betterB] += pairsInfo[_pair].amountB */\n      dup1\n      sload\n        /* \"contracts/Market.sol\":10458:10482  pairsInfo[_pair].amountB */\n      swap2\n      swap3\n        /* \"contracts/Market.sol\":10442:10454  bal[betterB] */\n      swap1\n      swap2\n        /* \"contracts/Market.sol\":10442:10482  bal[betterB] += pairsInfo[_pair].amountB */\n      tag_409\n      swap1\n        /* \"contracts/Market.sol\":10458:10482  pairsInfo[_pair].amountB */\n      dup5\n      swap1\n        /* \"contracts/Market.sol\":10442:10482  bal[betterB] += pairsInfo[_pair].amountB */\n      tag_189\n      jump\t// in\n    tag_409:\n      swap1\n      swap2\n      sstore\n      pop\n      pop\n      pop\n        /* \"contracts/Market.sol\":10492:10508  pairsInfo[_pair] */\n      0x00\n      swap2\n      dup3\n      mstore\n      pop\n        /* \"contracts/Market.sol\":10492:10501  pairsInfo */\n      0x09\n        /* \"contracts/Market.sol\":10492:10508  pairsInfo[_pair] */\n      0x20\n      mstore\n      0x40\n      swap1\n      keccak256\n        /* \"contracts/Market.sol\":10492:10516  pairsInfo[_pair].settled */\n      0x04\n      add\n        /* \"contracts/Market.sol\":10492:10523  pairsInfo[_pair].settled = true */\n      dup1\n      sload\n      not(0xff)\n      and\n        /* \"contracts/Market.sol\":10519:10523  true */\n      0x01\n        /* \"contracts/Market.sol\":10492:10523  pairsInfo[_pair].settled = true */\n      or\n      swap1\n      sstore\n        /* \"contracts/Market.sol\":10198:10546  function _cancelPair(bytes32 _pair) private {... */\n      jump\t// out\n        /* \"#utility.yul\":14:271   */\n    tag_26:\n        /* \"#utility.yul\":73:79   */\n      0x00\n        /* \"#utility.yul\":126:128   */\n      0x20\n        /* \"#utility.yul\":114:123   */\n      dup3\n        /* \"#utility.yul\":105:112   */\n      dup5\n        /* \"#utility.yul\":101:124   */\n      sub\n        /* \"#utility.yul\":97:129   */\n      slt\n        /* \"#utility.yul\":94:96   */\n      iszero\n      tag_412\n      jumpi\n        /* \"#utility.yul\":147:153   */\n      dup1\n        /* \"#utility.yul\":139:145   */\n      dup2\n        /* \"#utility.yul\":132:154   */\n      revert\n        /* \"#utility.yul\":94:96   */\n    tag_412:\n        /* \"#utility.yul\":191:200   */\n      dup2\n        /* \"#utility.yul\":178:201   */\n      calldataload\n        /* \"#utility.yul\":210:241   */\n      tag_413\n        /* \"#utility.yul\":235:240   */\n      dup2\n        /* \"#utility.yul\":210:241   */\n      tag_414\n      jump\t// in\n    tag_413:\n        /* \"#utility.yul\":260:265   */\n      swap4\n        /* \"#utility.yul\":84:271   */\n      swap3\n      pop\n      pop\n      pop\n      jump\t// out\n        /* \"#utility.yul\":276:537   */\n    tag_198:\n        /* \"#utility.yul\":346:352   */\n      0x00\n        /* \"#utility.yul\":399:401   */\n      0x20\n        /* \"#utility.yul\":387:396   */\n      dup3\n        /* \"#utility.yul\":378:385   */\n      dup5\n        /* \"#utility.yul\":374:397   */\n      sub\n        /* \"#utility.yul\":370:402   */\n      slt\n        /* \"#utility.yul\":367:369   */\n      iszero\n      tag_416\n      jumpi\n        /* \"#utility.yul\":420:426   */\n      dup1\n        /* \"#utility.yul\":412:418   */\n      dup2\n        /* \"#utility.yul\":405:427   */\n      revert\n        /* \"#utility.yul\":367:369   */\n    tag_416:\n        /* \"#utility.yul\":457:466   */\n      dup2\n        /* \"#utility.yul\":451:467   */\n      mload\n        /* \"#utility.yul\":476:507   */\n      tag_413\n        /* \"#utility.yul\":501:506   */\n      dup2\n        /* \"#utility.yul\":476:507   */\n      tag_414\n      jump\t// in\n        /* \"#utility.yul\":542:1282   */\n    tag_40:\n        /* \"#utility.yul\":643:649   */\n      0x00\n        /* \"#utility.yul\":651:657   */\n      dup1\n        /* \"#utility.yul\":659:665   */\n      0x00\n        /* \"#utility.yul\":667:673   */\n      dup1\n        /* \"#utility.yul\":675:681   */\n      0x00\n        /* \"#utility.yul\":683:689   */\n      dup1\n        /* \"#utility.yul\":736:739   */\n      0xc0\n        /* \"#utility.yul\":724:733   */\n      dup8\n        /* \"#utility.yul\":715:722   */\n      dup10\n        /* \"#utility.yul\":711:734   */\n      sub\n        /* \"#utility.yul\":707:740   */\n      slt\n        /* \"#utility.yul\":704:706   */\n      iszero\n      tag_419\n      jumpi\n        /* \"#utility.yul\":758:764   */\n      dup2\n        /* \"#utility.yul\":750:756   */\n      dup3\n        /* \"#utility.yul\":743:765   */\n      revert\n        /* \"#utility.yul\":704:706   */\n    tag_419:\n        /* \"#utility.yul\":802:811   */\n      dup7\n        /* \"#utility.yul\":789:812   */\n      calldataload\n        /* \"#utility.yul\":821:852   */\n      tag_420\n        /* \"#utility.yul\":846:851   */\n      dup2\n        /* \"#utility.yul\":821:852   */\n      tag_414\n      jump\t// in\n    tag_420:\n        /* \"#utility.yul\":871:876   */\n      swap6\n      pop\n        /* \"#utility.yul\":928:930   */\n      0x20\n        /* \"#utility.yul\":913:931   */\n      dup8\n      add\n        /* \"#utility.yul\":900:932   */\n      calldataload\n        /* \"#utility.yul\":941:974   */\n      tag_421\n        /* \"#utility.yul\":900:932   */\n      dup2\n        /* \"#utility.yul\":941:974   */\n      tag_414\n      jump\t// in\n    tag_421:\n        /* \"#utility.yul\":993:1000   */\n      swap5\n      pop\n        /* \"#utility.yul\":1047:1049   */\n      0x40\n        /* \"#utility.yul\":1032:1050   */\n      dup8\n      add\n        /* \"#utility.yul\":1019:1051   */\n      calldataload\n      swap4\n      pop\n        /* \"#utility.yul\":1098:1100   */\n      0x60\n        /* \"#utility.yul\":1083:1101   */\n      dup8\n      add\n        /* \"#utility.yul\":1070:1102   */\n      calldataload\n      swap3\n      pop\n        /* \"#utility.yul\":1149:1152   */\n      0x80\n        /* \"#utility.yul\":1134:1153   */\n      dup8\n      add\n        /* \"#utility.yul\":1121:1154   */\n      calldataload\n      swap2\n      pop\n        /* \"#utility.yul\":1206:1209   */\n      0xa0\n        /* \"#utility.yul\":1191:1210   */\n      dup8\n      add\n        /* \"#utility.yul\":1178:1211   */\n      calldataload\n        /* \"#utility.yul\":1220:1250   */\n      tag_422\n        /* \"#utility.yul\":1178:1211   */\n      dup2\n        /* \"#utility.yul\":1220:1250   */\n      tag_423\n      jump\t// in\n    tag_422:\n        /* \"#utility.yul\":1269:1276   */\n      dup1\n        /* \"#utility.yul\":1259:1276   */\n      swap2\n      pop\n      pop\n        /* \"#utility.yul\":694:1282   */\n      swap3\n      swap6\n      pop\n      swap3\n      swap6\n      pop\n      swap3\n      swap6\n      jump\t// out\n        /* \"#utility.yul\":1287:1542   */\n    tag_108:\n        /* \"#utility.yul\":1354:1360   */\n      0x00\n        /* \"#utility.yul\":1407:1409   */\n      0x20\n        /* \"#utility.yul\":1395:1404   */\n      dup3\n        /* \"#utility.yul\":1386:1393   */\n      dup5\n        /* \"#utility.yul\":1382:1405   */\n      sub\n        /* \"#utility.yul\":1378:1410   */\n      slt\n        /* \"#utility.yul\":1375:1377   */\n      iszero\n      tag_425\n      jumpi\n        /* \"#utility.yul\":1428:1434   */\n      dup1\n        /* \"#utility.yul\":1420:1426   */\n      dup2\n        /* \"#utility.yul\":1413:1435   */\n      revert\n        /* \"#utility.yul\":1375:1377   */\n    tag_425:\n        /* \"#utility.yul\":1465:1474   */\n      dup2\n        /* \"#utility.yul\":1459:1475   */\n      mload\n        /* \"#utility.yul\":1484:1512   */\n      tag_413\n        /* \"#utility.yul\":1506:1511   */\n      dup2\n        /* \"#utility.yul\":1484:1512   */\n      tag_423\n      jump\t// in\n        /* \"#utility.yul\":1547:1737   */\n    tag_22:\n        /* \"#utility.yul\":1606:1612   */\n      0x00\n        /* \"#utility.yul\":1659:1661   */\n      0x20\n        /* \"#utility.yul\":1647:1656   */\n      dup3\n        /* \"#utility.yul\":1638:1645   */\n      dup5\n        /* \"#utility.yul\":1634:1657   */\n      sub\n        /* \"#utility.yul\":1630:1662   */\n      slt\n        /* \"#utility.yul\":1627:1629   */\n      iszero\n      tag_428\n      jumpi\n        /* \"#utility.yul\":1680:1686   */\n      dup1\n        /* \"#utility.yul\":1672:1678   */\n      dup2\n        /* \"#utility.yul\":1665:1687   */\n      revert\n        /* \"#utility.yul\":1627:1629   */\n    tag_428:\n      pop\n        /* \"#utility.yul\":1708:1731   */\n      calldataload\n      swap2\n        /* \"#utility.yul\":1617:1737   */\n      swap1\n      pop\n      jump\t// out\n        /* \"#utility.yul\":1937:2131   */\n    tag_95:\n        /* \"#utility.yul\":2007:2013   */\n      0x00\n        /* \"#utility.yul\":2060:2062   */\n      0x20\n        /* \"#utility.yul\":2048:2057   */\n      dup3\n        /* \"#utility.yul\":2039:2046   */\n      dup5\n        /* \"#utility.yul\":2035:2058   */\n      sub\n        /* \"#utility.yul\":2031:2063   */\n      slt\n        /* \"#utility.yul\":2028:2030   */\n      iszero\n      tag_432\n      jumpi\n        /* \"#utility.yul\":2081:2087   */\n      dup1\n        /* \"#utility.yul\":2073:2079   */\n      dup2\n        /* \"#utility.yul\":2066:2088   */\n      revert\n        /* \"#utility.yul\":2028:2030   */\n    tag_432:\n      pop\n        /* \"#utility.yul\":2109:2125   */\n      mload\n      swap2\n        /* \"#utility.yul\":2018:2131   */\n      swap1\n      pop\n      jump\t// out\n        /* \"#utility.yul\":4443:5593   */\n    tag_29:\n        /* \"#utility.yul\":4668:4670   */\n      0x20\n        /* \"#utility.yul\":4720:4741   */\n      dup1\n      dup3\n      mstore\n        /* \"#utility.yul\":4790:4803   */\n      dup3\n      mload\n        /* \"#utility.yul\":4693:4711   */\n      dup3\n      dup3\n      add\n        /* \"#utility.yul\":4812:4834   */\n      dup2\n      swap1\n      mstore\n        /* \"#utility.yul\":4639:4643   */\n      0x00\n      swap2\n        /* \"#utility.yul\":4668:4670   */\n      swap1\n        /* \"#utility.yul\":4853:4855   */\n      0x40\n      swap1\n        /* \"#utility.yul\":4871:4889   */\n      dup2\n      dup6\n      add\n      swap1\n        /* \"#utility.yul\":4912:4927   */\n      dup7\n      dup5\n      add\n        /* \"#utility.yul\":4639:4643   */\n      dup6\n        /* \"#utility.yul\":4958:5567   */\n    tag_440:\n        /* \"#utility.yul\":4972:4978   */\n      dup3\n        /* \"#utility.yul\":4969:4970   */\n      dup2\n        /* \"#utility.yul\":4966:4979   */\n      lt\n        /* \"#utility.yul\":4958:5567   */\n      iszero\n      tag_442\n      jumpi\n        /* \"#utility.yul\":5031:5044   */\n      dup2\n      mload\n        /* \"#utility.yul\":5115:5124   */\n      dup1\n      mload\n      sub(shl(0xa0, 0x01), 0x01)\n        /* \"#utility.yul\":5111:5129   */\n      swap1\n      dup2\n      and\n        /* \"#utility.yul\":5099:5130   */\n      dup7\n      mstore\n        /* \"#utility.yul\":5174:5185   */\n      dup8\n      dup3\n      add\n        /* \"#utility.yul\":5168:5186   */\n      mload\n        /* \"#utility.yul\":5164:5191   */\n      and\n        /* \"#utility.yul\":5150:5162   */\n      dup8\n      dup7\n      add\n        /* \"#utility.yul\":5143:5192   */\n      mstore\n        /* \"#utility.yul\":5232:5243   */\n      dup6\n      dup2\n      add\n        /* \"#utility.yul\":5226:5244   */\n      mload\n        /* \"#utility.yul\":5212:5224   */\n      dup7\n      dup7\n      add\n        /* \"#utility.yul\":5205:5245   */\n      mstore\n        /* \"#utility.yul\":5268:5272   */\n      0x60\n        /* \"#utility.yul\":5312:5323   */\n      dup1\n      dup3\n      add\n        /* \"#utility.yul\":5306:5324   */\n      mload\n        /* \"#utility.yul\":5292:5304   */\n      swap1\n      dup7\n      add\n        /* \"#utility.yul\":5285:5325   */\n      mstore\n        /* \"#utility.yul\":5348:5352   */\n      0x80\n        /* \"#utility.yul\":5392:5403   */\n      dup1\n      dup3\n      add\n        /* \"#utility.yul\":5386:5404   */\n      mload\n        /* \"#utility.yul\":5372:5384   */\n      swap1\n      dup7\n      add\n        /* \"#utility.yul\":5365:5405   */\n      mstore\n        /* \"#utility.yul\":5075:5078   */\n      0xa0\n        /* \"#utility.yul\":5472:5483   */\n      swap1\n      dup2\n      add\n        /* \"#utility.yul\":5466:5484   */\n      mload\n        /* \"#utility.yul\":5452:5464   */\n      swap1\n      dup6\n      add\n        /* \"#utility.yul\":5445:5485   */\n      mstore\n        /* \"#utility.yul\":5514:5518   */\n      0xc0\n        /* \"#utility.yul\":5505:5519   */\n      swap1\n      swap4\n      add\n      swap3\n        /* \"#utility.yul\":5542:5557   */\n      swap1\n      dup6\n      add\n      swap1\n        /* \"#utility.yul\":5084:5085   */\n      0x01\n        /* \"#utility.yul\":4987:4996   */\n      add\n        /* \"#utility.yul\":4958:5567   */\n      jump(tag_440)\n    tag_442:\n      pop\n        /* \"#utility.yul\":5584:5587   */\n      swap2\n      swap8\n        /* \"#utility.yul\":4648:5593   */\n      swap7\n      pop\n      pop\n      pop\n      pop\n      pop\n      pop\n      pop\n      jump\t// out\n        /* \"#utility.yul\":7370:7715   */\n    tag_202:\n        /* \"#utility.yul\":7572:7574   */\n      0x20\n        /* \"#utility.yul\":7554:7575   */\n      dup1\n      dup3\n      mstore\n        /* \"#utility.yul\":7611:7613   */\n      0x15\n        /* \"#utility.yul\":7591:7609   */\n      swap1\n      dup3\n      add\n        /* \"#utility.yul\":7584:7614   */\n      mstore\n      shl(0x5a, 0x18d85b1b195c881b9bdd08185d5d1a1bdc9a5e9959)\n        /* \"#utility.yul\":7645:7647   */\n      0x40\n        /* \"#utility.yul\":7630:7648   */\n      dup3\n      add\n        /* \"#utility.yul\":7623:7674   */\n      mstore\n        /* \"#utility.yul\":7706:7708   */\n      0x60\n        /* \"#utility.yul\":7691:7709   */\n      add\n      swap1\n        /* \"#utility.yul\":7544:7715   */\n      jump\t// out\n        /* \"#utility.yul\":10346:10474   */\n    tag_189:\n        /* \"#utility.yul\":10386:10389   */\n      0x00\n        /* \"#utility.yul\":10417:10418   */\n      dup3\n        /* \"#utility.yul\":10413:10419   */\n      not\n        /* \"#utility.yul\":10410:10411   */\n      dup3\n        /* \"#utility.yul\":10407:10420   */\n      gt\n        /* \"#utility.yul\":10404:10406   */\n      iszero\n      tag_460\n      jumpi\n        /* \"#utility.yul\":10423:10441   */\n      tag_460\n      tag_461\n      jump\t// in\n    tag_460:\n      pop\n        /* \"#utility.yul\":10459:10468   */\n      add\n      swap1\n        /* \"#utility.yul\":10394:10474   */\n      jump\t// out\n        /* \"#utility.yul\":10479:10696   */\n    tag_179:\n        /* \"#utility.yul\":10519:10520   */\n      0x00\n        /* \"#utility.yul\":10545:10546   */\n      dup3\n        /* \"#utility.yul\":10535:10537   */\n      tag_463\n      jumpi\n      shl(0xe0, 0x4e487b71)\n        /* \"#utility.yul\":10570:10601   */\n      dup2\n      mstore\n        /* \"#utility.yul\":10624:10628   */\n      0x12\n        /* \"#utility.yul\":10621:10622   */\n      0x04\n        /* \"#utility.yul\":10614:10629   */\n      mstore\n        /* \"#utility.yul\":10652:10656   */\n      0x24\n        /* \"#utility.yul\":10577:10578   */\n      dup2\n        /* \"#utility.yul\":10642:10657   */\n      revert\n        /* \"#utility.yul\":10535:10537   */\n    tag_463:\n      pop\n        /* \"#utility.yul\":10681:10690   */\n      div\n      swap1\n        /* \"#utility.yul\":10525:10696   */\n      jump\t// out\n        /* \"#utility.yul\":10701:10869   */\n    tag_177:\n        /* \"#utility.yul\":10741:10748   */\n      0x00\n        /* \"#utility.yul\":10807:10808   */\n      dup2\n        /* \"#utility.yul\":10803:10804   */\n      0x00\n        /* \"#utility.yul\":10799:10805   */\n      not\n        /* \"#utility.yul\":10795:10809   */\n      div\n        /* \"#utility.yul\":10792:10793   */\n      dup4\n        /* \"#utility.yul\":10789:10810   */\n      gt\n        /* \"#utility.yul\":10784:10785   */\n      dup3\n        /* \"#utility.yul\":10777:10786   */\n      iszero\n        /* \"#utility.yul\":10770:10787   */\n      iszero\n        /* \"#utility.yul\":10766:10811   */\n      and\n        /* \"#utility.yul\":10763:10765   */\n      iszero\n      tag_466\n      jumpi\n        /* \"#utility.yul\":10814:10832   */\n      tag_466\n      tag_461\n      jump\t// in\n    tag_466:\n      pop\n        /* \"#utility.yul\":10854:10863   */\n      mul\n      swap1\n        /* \"#utility.yul\":10753:10869   */\n      jump\t// out\n        /* \"#utility.yul\":10874:10999   */\n    tag_101:\n        /* \"#utility.yul\":10914:10918   */\n      0x00\n        /* \"#utility.yul\":10942:10943   */\n      dup3\n        /* \"#utility.yul\":10939:10940   */\n      dup3\n        /* \"#utility.yul\":10936:10944   */\n      lt\n        /* \"#utility.yul\":10933:10935   */\n      iszero\n      tag_469\n      jumpi\n        /* \"#utility.yul\":10947:10965   */\n      tag_469\n      tag_461\n      jump\t// in\n    tag_469:\n      pop\n        /* \"#utility.yul\":10984:10993   */\n      sub\n      swap1\n        /* \"#utility.yul\":10923:10999   */\n      jump\t// out\n        /* \"#utility.yul\":11004:11139   */\n    tag_83:\n        /* \"#utility.yul\":11043:11046   */\n      0x00\n      not(0x00)\n        /* \"#utility.yul\":11064:11081   */\n      dup3\n      eq\n        /* \"#utility.yul\":11061:11063   */\n      iszero\n      tag_472\n      jumpi\n        /* \"#utility.yul\":11084:11102   */\n      tag_472\n      tag_461\n      jump\t// in\n    tag_472:\n      pop\n        /* \"#utility.yul\":11131:11132   */\n      0x01\n        /* \"#utility.yul\":11120:11133   */\n      add\n      swap1\n        /* \"#utility.yul\":11051:11139   */\n      jump\t// out\n        /* \"#utility.yul\":11144:11271   */\n    tag_461:\n        /* \"#utility.yul\":11205:11215   */\n      0x4e487b71\n        /* \"#utility.yul\":11200:11203   */\n      0xe0\n        /* \"#utility.yul\":11196:11216   */\n      shl\n        /* \"#utility.yul\":11193:11194   */\n      0x00\n        /* \"#utility.yul\":11186:11217   */\n      mstore\n        /* \"#utility.yul\":11236:11240   */\n      0x11\n        /* \"#utility.yul\":11233:11234   */\n      0x04\n        /* \"#utility.yul\":11226:11241   */\n      mstore\n        /* \"#utility.yul\":11260:11264   */\n      0x24\n        /* \"#utility.yul\":11257:11258   */\n      0x00\n        /* \"#utility.yul\":11250:11265   */\n      revert\n        /* \"#utility.yul\":11276:11407   */\n    tag_414:\n      sub(shl(0xa0, 0x01), 0x01)\n        /* \"#utility.yul\":11351:11382   */\n      dup2\n      and\n        /* \"#utility.yul\":11341:11383   */\n      dup2\n      eq\n        /* \"#utility.yul\":11331:11333   */\n      tag_73\n      jumpi\n        /* \"#utility.yul\":11397:11398   */\n      0x00\n        /* \"#utility.yul\":11394:11395   */\n      dup1\n        /* \"#utility.yul\":11387:11399   */\n      revert\n        /* \"#utility.yul\":11412:11530   */\n    tag_423:\n        /* \"#utility.yul\":11498:11503   */\n      dup1\n        /* \"#utility.yul\":11491:11504   */\n      iszero\n        /* \"#utility.yul\":11484:11505   */\n      iszero\n        /* \"#utility.yul\":11477:11482   */\n      dup2\n        /* \"#utility.yul\":11474:11506   */\n      eq\n        /* \"#utility.yul\":11464:11466   */\n      tag_73\n      jumpi\n        /* \"#utility.yul\":11520:11521   */\n      0x00\n        /* \"#utility.yul\":11517:11518   */\n      dup1\n        /* \"#utility.yul\":11510:11522   */\n      revert\n\n    auxdata: 0xa2646970667358221220471c170f9858fdc356002bc6b172ba068a51231879969ab26547dacd1014fb8264736f6c63430008040033\n}\n",
				"bytecode": {
					"linkReferences": {},
					"object": "60c0604052600060035560025460601b6001600160601b03191660a0523480156200002957600080fd5b5060405162002b7638038062002b768339810160408190526200004c9162000102565b6001600081905580546001600160a01b03199081166001600160a01b0384161790915560028054339216821790556040805162966ed960e31b815290516304b376c891600480820192602092909190829003018186803b158015620000b057600080fd5b505afa158015620000c5573d6000803e3d6000fd5b505050506040513d601f19601f82011682018060405250810190620000eb919062000102565b60601b6001600160601b0319166080525062000132565b60006020828403121562000114578081fd5b81516001600160a01b03811681146200012b578182fd5b9392505050565b60805160601c60a05160601c612962620002146000396000818161075101528181610a6701528181610dfb01528181610f5e01528181611064015281816111870152818161156b015281816116610152818161170a015281816117b30152818161187c01528181611925015281816119ee01528181611c0901528181611cd801528181611e0901528181611ed801528181612002015281816120ab015281816121740152818161221d015281816122e6015261249801526000818161042301528181610544015281816108b10152818161099e0152610b5d01526129626000f3fe608060405234801561001057600080fd5b50600436106100b45760003560e01c80637d7f9232116100715780637d7f9232146101535780638df8280014610166578063be9a655514610179578063d0ed729514610181578063ea8a1af014610194578063f8b2cb4f1461019c57600080fd5b8063200d2ed2146100b95780632940ff1e146100d55780632d56657d146100ea57806351cff8d91461010a578063675f65371461012d57806378d65b2f14610140575b600080fd5b6100c260035481565b6040519081526020015b60405180910390f35b6100e86100e3366004612787565b6101c5565b005b6100fd6100f83660046126c6565b610244565b6040516100cc91906127b7565b61011d6101183660046126c6565b610398565b60405190151581526020016100cc565b6100e861013b366004612787565b610664565b6100c261014e366004612705565b610739565b6100e8610161366004612787565b610cbf565b61011d610174366004612787565b610de2565b61011d610f45565b61011d61018f366004612787565b61104b565b61011d61116e565b6100c26101aa3660046126c6565b6001600160a01b031660009081526006602052604090205490565b6000818152600760205260409020546001600160a01b031633146102265760405162461bcd60e51b81526020600482015260136024820152723ab730baba3437b934bd32b21031b0b63632b960691b60448201526064015b60405180910390fd5b60035461023857610236816112d2565b505b61024181610cbf565b50565b6001600160a01b03811660009081526008602090815260408083208054825181850281018501909352808352606094859490939291908301828280156102a957602002820191906000526020600020905b815481526020019060010190808311610295575b50506005549394506000925050505b8181101561038e57600760008483815181106102e457634e487b7160e01b600052603260045260246000fd5b6020908102919091018101518252818101929092526040908101600020815160c08101835281546001600160a01b0390811682526001830154169381019390935260028101549183019190915260038101546060830152600481015460808301526005015460a0820152845185908390811061037057634e487b7160e01b600052603260045260246000fd5b60200260200101819052508080610386906128d8565b9150506102b8565b5091949350505050565b6000600260005414156103ed5760405162461bcd60e51b815260206004820152601f60248201527f5265656e7472616e637947756172643a207265656e7472616e742063616c6c00604482015260640161021d565b600260009081556001600160a01b03838116825260066020526040918290205491516370a0823160e01b815230600482015282917f000000000000000000000000000000000000000000000000000000000000000016906370a082319060240160206040518083038186803b15801561046557600080fd5b505afa158015610479573d6000803e3d6000fd5b505050506040513d601f19601f8201168201806040525081019061049d919061279f565b101580156104ab5750600081115b6104ee5760405162461bcd60e51b81526020600482015260146024820152737a65726f2076616c756520617661696c61626c6560601b604482015260640161021d565b6001600160a01b038316600090815260066020526040812080548392906105169084906128c1565b909155505060405163a9059cbb60e01b81526001600160a01b038481166004830152602482018390526000917f00000000000000000000000000000000000000000000000000000000000000009091169063a9059cbb90604401602060405180830381600087803b15801561058a57600080fd5b505af115801561059e573d6000803e3d6000fd5b505050506040513d601f19601f820116820180604052508101906105c2919061276b565b9050806106115760405162461bcd60e51b815260206004820152601960248201527f7472616e7366657220746f2063616c6c6572206661696c656400000000000000604482015260640161021d565b604080516001600160a01b0386168152602081018490527f884edad9ce6fa2440d8a54cc123490eb96d2768479d49ff9c7366125a9424364910160405180910390a16001925050505b6001600055919050565b6000818152600a60209081526040808320805482518185028101850190935280835291929091908301828280156106ba57602002820191906000526020600020905b8154815260200190600101908083116106a6575b505083519394506000925050505b81811015610713576107008382815181106106f357634e487b7160e01b600052603260045260246000fd5b6020026020010151611b3f565b508061070b816128d8565b9150506106c8565b5033600090815260066020526040902054156107345761073233610398565b505b505050565b60405163332daccf60e01b81523360048201526000907f00000000000000000000000000000000000000000000000000000000000000006001600160a01b03169063332daccf9060240160206040518083038186803b15801561079b57600080fd5b505afa1580156107af573d6000803e3d6000fd5b505050506040513d601f19601f820116820180604052508101906107d3919061276b565b1561080c5760405162461bcd60e51b8152602060048201526009602482015268189b1858dadb1a5cdd60ba1b604482015260640161021d565b600354156108505760405162461bcd60e51b81526020600482015260116024820152706d61726b6574206e6f742061637469766560781b604482015260640161021d565b826001148061085f5750826002145b61089a5760405162461bcd60e51b815260206004820152600c60248201526b696e76616c6964207369646560a01b604482015260640161021d565b6040516370a0823160e01b815233600482015285907f00000000000000000000000000000000000000000000000000000000000000006001600160a01b0316906370a082319060240160206040518083038186803b1580156108fb57600080fd5b505afa15801561090f573d6000803e3d6000fd5b505050506040513d601f19601f82011682018060405250810190610933919061279f565b10156109815760405162461bcd60e51b815260206004820152601960248201527f6e6f7420656e6f75676820746f6b656e2062616c616c6e636500000000000000604482015260640161021d565b604051636eb1769f60e11b815233600482015230602482015285907f00000000000000000000000000000000000000000000000000000000000000006001600160a01b03169063dd62ed3e9060440160206040518083038186803b1580156109e857600080fd5b505afa1580156109fc573d6000803e3d6000fd5b505050506040513d601f19601f82011682018060405250810190610a20919061279f565b1015610a655760405162461bcd60e51b81526020600482015260146024820152736e6f7420656e6f75676820616c6c6f77616e636560601b604482015260640161021d565b7f00000000000000000000000000000000000000000000000000000000000000006001600160a01b031663375b3c0a6040518163ffffffff1660e01b815260040160206040518083038186803b158015610abe57600080fd5b505afa158015610ad2573d6000803e3d6000fd5b505050506040513d601f19601f82011682018060405250810190610af6919061279f565b851015610b3b5760405162461bcd60e51b81526020600482015260136024820152726c657373207468616e206d696e207374616b6560681b604482015260640161021d565b6040516323b872dd60e01b8152336004820152306024820152604481018690527f00000000000000000000000000000000000000000000000000000000000000006001600160a01b0316906323b872dd90606401602060405180830381600087803b158015610ba957600080fd5b505af1158015610bbd573d6000803e3d6000fd5b505050506040513d601f19601f82011682018060405250810190610be1919061276b565b610c2d5760405162461bcd60e51b815260206004820152601b60248201527f7472616e736665722066726f6d2063616c6c6572206661696c65640000000000604482015260640161021d565b6000610c5c88888884610c4160648b6128c1565b610c4c8b60646128a2565b610c569190612882565b896123e1565b60408051338152306020820152908101829052606081018890526080810187905260a081018690529091507f618f358bb45538682ade624a4a1959053d9dabd20fe300508034b879681b37be9060c00160405180910390a1979650505050505050565b600081815260076020908152604091829020825160c08101845281546001600160a01b0390811680835260018401549091169382019390935260028201549381019390935260038101546060840152600481015460808401526005015460a08301523314610d655760405162461bcd60e51b81526020600482015260136024820152723ab730baba3437b934bd32b21031b0b63632b960691b604482015260640161021d565b600081606001518260400151610d7b91906128c1565b82516001600160a01b0316600090815260066020526040812080549293508392909190610da990849061286a565b90915550506040808301516000858152600760209081528382206003019290925533815260069091522054156107345761073233610398565b6001546000906001600160a01b0316331480610e9f57507f00000000000000000000000000000000000000000000000000000000000000006001600160a01b031663ce606ee06040518163ffffffff1660e01b815260040160206040518083038186803b158015610e5257600080fd5b505afa158015610e66573d6000803e3d6000fd5b505050506040513d601f19601f82011682018060405250810190610e8a91906126e9565b6001600160a01b0316336001600160a01b0316145b80610eb457506002546001600160a01b031633145b610ed05760405162461bcd60e51b815260040161021d9061283b565b610ed98261104b565b15610f3d5760045460005b81811015610f3357610f2060048281548110610f1057634e487b7160e01b600052603260045260246000fd5b9060005260206000200154611b3f565b5080610f2b816128d8565b915050610ee4565b5060019392505050565b506000919050565b6001546000906001600160a01b031633148061100257507f00000000000000000000000000000000000000000000000000000000000000006001600160a01b031663ce606ee06040518163ffffffff1660e01b815260040160206040518083038186803b158015610fb557600080fd5b505afa158015610fc9573d6000803e3d6000fd5b505050506040513d601f19601f82011682018060405250810190610fed91906126e9565b6001600160a01b0316336001600160a01b0316145b8061101757506002546001600160a01b031633145b6110335760405162461bcd60e51b815260040161021d9061283b565b60035461104557506004600355600190565b50600090565b6001546000906001600160a01b031633148061110857507f00000000000000000000000000000000000000000000000000000000000000006001600160a01b031663ce606ee06040518163ffffffff1660e01b815260040160206040518083038186803b1580156110bb57600080fd5b505afa1580156110cf573d6000803e3d6000fd5b505050506040513d601f19601f820116820180604052508101906110f391906126e9565b6001600160a01b0316336001600160a01b0316145b8061111d57506002546001600160a01b031633145b6111395760405162461bcd60e51b815260040161021d9061283b565b600354158061114a57506003546004145b8015611160575081600114806111605750816002145b15610f3d5750600355600190565b6001546000906001600160a01b031633148061122b57507f00000000000000000000000000000000000000000000000000000000000000006001600160a01b031663ce606ee06040518163ffffffff1660e01b815260040160206040518083038186803b1580156111de57600080fd5b505afa1580156111f2573d6000803e3d6000fd5b505050506040513d601f19601f8201168201806040525081019061121691906126e9565b6001600160a01b0316336001600160a01b0316145b8061124057506002546001600160a01b031633145b61125c5760405162461bcd60e51b815260040161021d9061283b565b600354158061126d57506003546004145b156110455760045460005b818110156112c6576112b4600482815481106112a457634e487b7160e01b600052603260045260246000fd5b906000526020600020015461260b565b806112be816128d8565b915050611278565b50506003805550600190565b6000818152600760209081526040808320815160c08101835281546001600160a01b03908116825260018301541681850152600282015481840152600382015460608201526004820154608082015260059091015460a0820152848452600a8352818420805483518186028101860190945280845291938593929083018282801561137c57602002820191906000526020600020905b815481526020019060010190808311611368575b505083519394506000925050505b81811015611b33576000806000808760a001516001141561146a57600960008887815181106113c957634e487b7160e01b600052603260045260246000fd5b602002602001015181526020019081526020016000206002015491506009600088878151811061140957634e487b7160e01b600052603260045260246000fd5b602002602001015181526020019081526020016000206001015493506009600088878151811061144957634e487b7160e01b600052603260045260246000fd5b60200260200101518152602001908152602001600020600301549250611538565b8760a0015160021415611538576009600088878151811061149b57634e487b7160e01b600052603260045260246000fd5b60200260200101518152602001908152602001600020600301549150600960008887815181106114db57634e487b7160e01b600052603260045260246000fd5b602002602001015181526020019081526020016000206000015493506009600088878151811061151b57634e487b7160e01b600052603260045260246000fd5b602002602001015181526020019081526020016000206002015492505b506000838152600760209081526040918290205482516355c4a8bf60e01b815292516001600160a01b03918216936064937f0000000000000000000000000000000000000000000000000000000000000000909316926355c4a8bf92600480840193829003018186803b1580156115ae57600080fd5b505afa1580156115c2573d6000803e3d6000fd5b505050506040513d601f19601f820116820180604052508101906115e6919061279f565b6115f19060646128c1565b6115fb90846128a2565b6116059190612882565b88516001600160a01b03166000908152600660205260408120805490919061162e90849061286a565b9091555050600084815260076020526040812060030180548592906116549084906128c1565b92505081905550600060647f00000000000000000000000000000000000000000000000000000000000000006001600160a01b03166355c4a8bf6040518163ffffffff1660e01b815260040160206040518083038186803b1580156116b857600080fd5b505afa1580156116cc573d6000803e3d6000fd5b505050506040513d601f19601f820116820180604052508101906116f0919061279f565b6116fa90856128a2565b6117049190612882565b905060647f00000000000000000000000000000000000000000000000000000000000000006001600160a01b0316636a0ccd9d6040518163ffffffff1660e01b815260040160206040518083038186803b15801561176157600080fd5b505afa158015611775573d6000803e3d6000fd5b505050506040513d601f19601f82011682018060405250810190611799919061279f565b6117a390836128a2565b6117ad9190612882565b600660007f00000000000000000000000000000000000000000000000000000000000000006001600160a01b031663b7640a546040518163ffffffff1660e01b815260040160206040518083038186803b15801561180a57600080fd5b505afa15801561181e573d6000803e3d6000fd5b505050506040513d601f19601f8201168201806040525081019061184291906126e9565b6001600160a01b03166001600160a01b031681526020019081526020016000206000828254611871919061286a565b9250508190555060647f00000000000000000000000000000000000000000000000000000000000000006001600160a01b03166328576d456040518163ffffffff1660e01b815260040160206040518083038186803b1580156118d357600080fd5b505afa1580156118e7573d6000803e3d6000fd5b505050506040513d601f19601f8201168201806040525081019061190b919061279f565b61191590836128a2565b61191f9190612882565b600660007f00000000000000000000000000000000000000000000000000000000000000006001600160a01b03166309953b2f6040518163ffffffff1660e01b815260040160206040518083038186803b15801561197c57600080fd5b505afa158015611990573d6000803e3d6000fd5b505050506040513d601f19601f820116820180604052508101906119b491906126e9565b6001600160a01b03166001600160a01b0316815260200190815260200160002060008282546119e3919061286a565b9250508190555060647f00000000000000000000000000000000000000000000000000000000000000006001600160a01b03166354cd1a5c6040518163ffffffff1660e01b815260040160206040518083038186803b158015611a4557600080fd5b505afa158015611a59573d6000803e3d6000fd5b505050506040513d601f19601f82011682018060405250810190611a7d919061279f565b611a8790836128a2565b611a919190612882565b6020808b01516001600160a01b031660009081526006909152604081208054909190611abe90849061286a565b925050819055506001600960008a8981518110611aeb57634e487b7160e01b600052603260045260246000fd5b6020026020010151815260200190815260200160002060040160006101000a81548160ff02191690831515021790555050505050508080611b2b906128d8565b91505061138a565b50600195945050505050565b600060026000541415611b945760405162461bcd60e51b815260206004820152601f60248201527f5265656e7472616e637947756172643a207265656e7472616e742063616c6c00604482015260640161021d565b600260009081558281526009602052604090206004015460ff1615611bbb5750600061065a565b60008060008060035460011415611dbe57600086815260096020908152604080832054835260078252918290205482516355c4a8bf60e01b815292516001600160a01b0391821697506064937f0000000000000000000000000000000000000000000000000000000000000000909216926355c4a8bf9260048082019391829003018186803b158015611c4d57600080fd5b505afa158015611c61573d6000803e3d6000fd5b505050506040513d601f19601f82011682018060405250810190611c85919061279f565b611c909060646128c1565b600088815260096020526040902060030154611cac91906128a2565b611cb69190612882565b600087815260096020526040902060020154611cd2919061286a565b915060647f00000000000000000000000000000000000000000000000000000000000000006001600160a01b03166355c4a8bf6040518163ffffffff1660e01b815260040160206040518083038186803b158015611d2f57600080fd5b505afa158015611d43573d6000803e3d6000fd5b505050506040513d601f19601f82011682018060405250810190611d67919061279f565b600088815260096020526040902060030154611d8391906128a2565b611d8d9190612882565b600087815260096020908152604080832054835260079091529020600101546001600160a01b031693509050611fcf565b60035460021415611fc257600086815260096020908152604080832060010154835260078252918290205482516355c4a8bf60e01b815292516001600160a01b0391821697506064937f0000000000000000000000000000000000000000000000000000000000000000909216926355c4a8bf9260048082019391829003018186803b158015611e4d57600080fd5b505afa158015611e61573d6000803e3d6000fd5b505050506040513d601f19601f82011682018060405250810190611e85919061279f565b611e909060646128c1565b600088815260096020526040902060020154611eac91906128a2565b611eb69190612882565b600087815260096020526040902060030154611ed2919061286a565b915060647f00000000000000000000000000000000000000000000000000000000000000006001600160a01b03166355c4a8bf6040518163ffffffff1660e01b815260040160206040518083038186803b158015611f2f57600080fd5b505afa158015611f43573d6000803e3d6000fd5b505050506040513d601f19601f82011682018060405250810190611f67919061279f565b600088815260096020526040902060020154611f8391906128a2565b611f8d9190612882565b60008781526009602090815260408083206001908101548452600790925290912001546001600160a01b031693509050611fcf565b600094505050505061065a565b6001600160a01b03841660009081526006602052604081208054849290611ff790849061286a565b9250508190555060647f00000000000000000000000000000000000000000000000000000000000000006001600160a01b0316636a0ccd9d6040518163ffffffff1660e01b815260040160206040518083038186803b15801561205957600080fd5b505afa15801561206d573d6000803e3d6000fd5b505050506040513d601f19601f82011682018060405250810190612091919061279f565b61209b90836128a2565b6120a59190612882565b600660007f00000000000000000000000000000000000000000000000000000000000000006001600160a01b031663b7640a546040518163ffffffff1660e01b815260040160206040518083038186803b15801561210257600080fd5b505afa158015612116573d6000803e3d6000fd5b505050506040513d601f19601f8201168201806040525081019061213a91906126e9565b6001600160a01b03166001600160a01b031681526020019081526020016000206000828254612169919061286a565b9250508190555060647f00000000000000000000000000000000000000000000000000000000000000006001600160a01b03166328576d456040518163ffffffff1660e01b815260040160206040518083038186803b1580156121cb57600080fd5b505afa1580156121df573d6000803e3d6000fd5b505050506040513d601f19601f82011682018060405250810190612203919061279f565b61220d90836128a2565b6122179190612882565b600660007f00000000000000000000000000000000000000000000000000000000000000006001600160a01b03166309953b2f6040518163ffffffff1660e01b815260040160206040518083038186803b15801561227457600080fd5b505afa158015612288573d6000803e3d6000fd5b505050506040513d601f19601f820116820180604052508101906122ac91906126e9565b6001600160a01b03166001600160a01b0316815260200190815260200160002060008282546122db919061286a565b9250508190555060647f00000000000000000000000000000000000000000000000000000000000000006001600160a01b03166354cd1a5c6040518163ffffffff1660e01b815260040160206040518083038186803b15801561233d57600080fd5b505afa158015612351573d6000803e3d6000fd5b505050506040513d601f19601f82011682018060405250810190612375919061279f565b61237f90836128a2565b6123899190612882565b6001600160a01b038416600090815260066020526040812080549091906123b190849061286a565b909155505050600094855250506009602052505060408120600401805460ff191660019081179091559081905590565b60008060005b6005548990309083906123fb90600161286a565b612405919061286a565b6040516bffffffffffffffffffffffff19606094851b811660208301529290931b9091166034830152604882015242606882015244608882015260a80160408051601f1981840301815291815281516020928301206000818152600790935291206002015490925061247657612488565b80612480816128d8565b9150506123e7565b6001600160a01b03881661252a577f00000000000000000000000000000000000000000000000000000000000000006001600160a01b03166309953b2f6040518163ffffffff1660e01b815260040160206040518083038186803b1580156124ef57600080fd5b505afa158015612503573d6000803e3d6000fd5b505050506040513d601f19601f8201168201806040525081019061252791906126e9565b97505b506040805160c0810182526001600160a01b03998a16808252988a166020808301918252828401998a52606083019889526080830197885260a0830196875260008581526007825284812093518454908e166001600160a01b031991821617855592516001808601805492909f169190941617909c55985160028301559651600382015594516004860155925160059485015583548086019094557f036b6384b5eca791c62761152d0c79bb0604c104a5fb6f4eb0703f3154bb3db09093018390555093855260088352928420805491820181558452922090910181905590565b600081815260096020908152604080832080548452600783528184205460018201548552828520546002909201546001600160a01b03918216808752600690955292852080549495919092169361266390849061286a565b90915550506000838152600960209081526040808320600301546001600160a01b0385168452600690925282208054919290916126a190849061286a565b909155505050600091825250600960205260409020600401805460ff19166001179055565b6000602082840312156126d7578081fd5b81356126e281612909565b9392505050565b6000602082840312156126fa578081fd5b81516126e281612909565b60008060008060008060c0878903121561271d578182fd5b863561272881612909565b9550602087013561273881612909565b945060408701359350606087013592506080870135915060a087013561275d8161291e565b809150509295509295509295565b60006020828403121561277c578081fd5b81516126e28161291e565b600060208284031215612798578081fd5b5035919050565b6000602082840312156127b0578081fd5b5051919050565b602080825282518282018190526000919060409081850190868401855b8281101561282e57815180516001600160a01b0390811686528782015116878601528581015186860152606080820151908601526080808201519086015260a0908101519085015260c090930192908501906001016127d4565b5091979650505050505050565b60208082526015908201527418d85b1b195c881b9bdd08185d5d1a1bdc9a5e9959605a1b604082015260600190565b6000821982111561287d5761287d6128f3565b500190565b60008261289d57634e487b7160e01b81526012600452602481fd5b500490565b60008160001904831182151516156128bc576128bc6128f3565b500290565b6000828210156128d3576128d36128f3565b500390565b60006000198214156128ec576128ec6128f3565b5060010190565b634e487b7160e01b600052601160045260246000fd5b6001600160a01b038116811461024157600080fd5b801515811461024157600080fdfea2646970667358221220471c170f9858fdc356002bc6b172ba068a51231879969ab26547dacd1014fb8264736f6c63430008040033",
					"opcodes": "PUSH1 0xC0 PUSH1 0x40 MSTORE PUSH1 0x0 PUSH1 0x3 SSTORE PUSH1 0x2 SLOAD PUSH1 0x60 SHL PUSH1 0x1 PUSH1 0x1 PUSH1 0x60 SHL SUB NOT AND PUSH1 0xA0 MSTORE CALLVALUE DUP1 ISZERO PUSH3 0x29 JUMPI PUSH1 0x0 DUP1 REVERT JUMPDEST POP PUSH1 0x40 MLOAD PUSH3 0x2B76 CODESIZE SUB DUP1 PUSH3 0x2B76 DUP4 CODECOPY DUP2 ADD PUSH1 0x40 DUP2 SWAP1 MSTORE PUSH3 0x4C SWAP2 PUSH3 0x102 JUMP JUMPDEST PUSH1 0x1 PUSH1 0x0 DUP2 SWAP1 SSTORE DUP1 SLOAD PUSH1 0x1 PUSH1 0x1 PUSH1 0xA0 SHL SUB NOT SWAP1 DUP2 AND PUSH1 0x1 PUSH1 0x1 PUSH1 0xA0 SHL SUB DUP5 AND OR SWAP1 SWAP2 SSTORE PUSH1 0x2 DUP1 SLOAD CALLER SWAP3 AND DUP3 OR SWAP1 SSTORE PUSH1 0x40 DUP1 MLOAD PUSH3 0x966ED9 PUSH1 0xE3 SHL DUP2 MSTORE SWAP1 MLOAD PUSH4 0x4B376C8 SWAP2 PUSH1 0x4 DUP1 DUP3 ADD SWAP3 PUSH1 0x20 SWAP3 SWAP1 SWAP2 SWAP1 DUP3 SWAP1 SUB ADD DUP2 DUP7 DUP1 EXTCODESIZE ISZERO DUP1 ISZERO PUSH3 0xB0 JUMPI PUSH1 0x0 DUP1 REVERT JUMPDEST POP GAS STATICCALL ISZERO DUP1 ISZERO PUSH3 0xC5 JUMPI RETURNDATASIZE PUSH1 0x0 DUP1 RETURNDATACOPY RETURNDATASIZE PUSH1 0x0 REVERT JUMPDEST POP POP POP POP PUSH1 0x40 MLOAD RETURNDATASIZE PUSH1 0x1F NOT PUSH1 0x1F DUP3 ADD AND DUP3 ADD DUP1 PUSH1 0x40 MSTORE POP DUP2 ADD SWAP1 PUSH3 0xEB SWAP2 SWAP1 PUSH3 0x102 JUMP JUMPDEST PUSH1 0x60 SHL PUSH1 0x1 PUSH1 0x1 PUSH1 0x60 SHL SUB NOT AND PUSH1 0x80 MSTORE POP PUSH3 0x132 JUMP JUMPDEST PUSH1 0x0 PUSH1 0x20 DUP3 DUP5 SUB SLT ISZERO PUSH3 0x114 JUMPI DUP1 DUP2 REVERT JUMPDEST DUP2 MLOAD PUSH1 0x1 PUSH1 0x1 PUSH1 0xA0 SHL SUB DUP2 AND DUP2 EQ PUSH3 0x12B JUMPI DUP2 DUP3 REVERT JUMPDEST SWAP4 SWAP3 POP POP POP JUMP JUMPDEST PUSH1 0x80 MLOAD PUSH1 0x60 SHR PUSH1 0xA0 MLOAD PUSH1 0x60 SHR PUSH2 0x2962 PUSH3 0x214 PUSH1 0x0 CODECOPY PUSH1 0x0 DUP2 DUP2 PUSH2 0x751 ADD MSTORE DUP2 DUP2 PUSH2 0xA67 ADD MSTORE DUP2 DUP2 PUSH2 0xDFB ADD MSTORE DUP2 DUP2 PUSH2 0xF5E ADD MSTORE DUP2 DUP2 PUSH2 0x1064 ADD MSTORE DUP2 DUP2 PUSH2 0x1187 ADD MSTORE DUP2 DUP2 PUSH2 0x156B ADD MSTORE DUP2 DUP2 PUSH2 0x1661 ADD MSTORE DUP2 DUP2 PUSH2 0x170A ADD MSTORE DUP2 DUP2 PUSH2 0x17B3 ADD MSTORE DUP2 DUP2 PUSH2 0x187C ADD MSTORE DUP2 DUP2 PUSH2 0x1925 ADD MSTORE DUP2 DUP2 PUSH2 0x19EE ADD MSTORE DUP2 DUP2 PUSH2 0x1C09 ADD MSTORE DUP2 DUP2 PUSH2 0x1CD8 ADD MSTORE DUP2 DUP2 PUSH2 0x1E09 ADD MSTORE DUP2 DUP2 PUSH2 0x1ED8 ADD MSTORE DUP2 DUP2 PUSH2 0x2002 ADD MSTORE DUP2 DUP2 PUSH2 0x20AB ADD MSTORE DUP2 DUP2 PUSH2 0x2174 ADD MSTORE DUP2 DUP2 PUSH2 0x221D ADD MSTORE DUP2 DUP2 PUSH2 0x22E6 ADD MSTORE PUSH2 0x2498 ADD MSTORE PUSH1 0x0 DUP2 DUP2 PUSH2 0x423 ADD MSTORE DUP2 DUP2 PUSH2 0x544 ADD MSTORE DUP2 DUP2 PUSH2 0x8B1 ADD MSTORE DUP2 DUP2 PUSH2 0x99E ADD MSTORE PUSH2 0xB5D ADD MSTORE PUSH2 0x2962 PUSH1 0x0 RETURN INVALID PUSH1 0x80 PUSH1 0x40 MSTORE CALLVALUE DUP1 ISZERO PUSH2 0x10 JUMPI PUSH1 0x0 DUP1 REVERT JUMPDEST POP PUSH1 0x4 CALLDATASIZE LT PUSH2 0xB4 JUMPI PUSH1 0x0 CALLDATALOAD PUSH1 0xE0 SHR DUP1 PUSH4 0x7D7F9232 GT PUSH2 0x71 JUMPI DUP1 PUSH4 0x7D7F9232 EQ PUSH2 0x153 JUMPI DUP1 PUSH4 0x8DF82800 EQ PUSH2 0x166 JUMPI DUP1 PUSH4 0xBE9A6555 EQ PUSH2 0x179 JUMPI DUP1 PUSH4 0xD0ED7295 EQ PUSH2 0x181 JUMPI DUP1 PUSH4 0xEA8A1AF0 EQ PUSH2 0x194 JUMPI DUP1 PUSH4 0xF8B2CB4F EQ PUSH2 0x19C JUMPI PUSH1 0x0 DUP1 REVERT JUMPDEST DUP1 PUSH4 0x200D2ED2 EQ PUSH2 0xB9 JUMPI DUP1 PUSH4 0x2940FF1E EQ PUSH2 0xD5 JUMPI DUP1 PUSH4 0x2D56657D EQ PUSH2 0xEA JUMPI DUP1 PUSH4 0x51CFF8D9 EQ PUSH2 0x10A JUMPI DUP1 PUSH4 0x675F6537 EQ PUSH2 0x12D JUMPI DUP1 PUSH4 0x78D65B2F EQ PUSH2 0x140 JUMPI JUMPDEST PUSH1 0x0 DUP1 REVERT JUMPDEST PUSH2 0xC2 PUSH1 0x3 SLOAD DUP2 JUMP JUMPDEST PUSH1 0x40 MLOAD SWAP1 DUP2 MSTORE PUSH1 0x20 ADD JUMPDEST PUSH1 0x40 MLOAD DUP1 SWAP2 SUB SWAP1 RETURN JUMPDEST PUSH2 0xE8 PUSH2 0xE3 CALLDATASIZE PUSH1 0x4 PUSH2 0x2787 JUMP JUMPDEST PUSH2 0x1C5 JUMP JUMPDEST STOP JUMPDEST PUSH2 0xFD PUSH2 0xF8 CALLDATASIZE PUSH1 0x4 PUSH2 0x26C6 JUMP JUMPDEST PUSH2 0x244 JUMP JUMPDEST PUSH1 0x40 MLOAD PUSH2 0xCC SWAP2 SWAP1 PUSH2 0x27B7 JUMP JUMPDEST PUSH2 0x11D PUSH2 0x118 CALLDATASIZE PUSH1 0x4 PUSH2 0x26C6 JUMP JUMPDEST PUSH2 0x398 JUMP JUMPDEST PUSH1 0x40 MLOAD SWAP1 ISZERO ISZERO DUP2 MSTORE PUSH1 0x20 ADD PUSH2 0xCC JUMP JUMPDEST PUSH2 0xE8 PUSH2 0x13B CALLDATASIZE PUSH1 0x4 PUSH2 0x2787 JUMP JUMPDEST PUSH2 0x664 JUMP JUMPDEST PUSH2 0xC2 PUSH2 0x14E CALLDATASIZE PUSH1 0x4 PUSH2 0x2705 JUMP JUMPDEST PUSH2 0x739 JUMP JUMPDEST PUSH2 0xE8 PUSH2 0x161 CALLDATASIZE PUSH1 0x4 PUSH2 0x2787 JUMP JUMPDEST PUSH2 0xCBF JUMP JUMPDEST PUSH2 0x11D PUSH2 0x174 CALLDATASIZE PUSH1 0x4 PUSH2 0x2787 JUMP JUMPDEST PUSH2 0xDE2 JUMP JUMPDEST PUSH2 0x11D PUSH2 0xF45 JUMP JUMPDEST PUSH2 0x11D PUSH2 0x18F CALLDATASIZE PUSH1 0x4 PUSH2 0x2787 JUMP JUMPDEST PUSH2 0x104B JUMP JUMPDEST PUSH2 0x11D PUSH2 0x116E JUMP JUMPDEST PUSH2 0xC2 PUSH2 0x1AA CALLDATASIZE PUSH1 0x4 PUSH2 0x26C6 JUMP JUMPDEST PUSH1 0x1 PUSH1 0x1 PUSH1 0xA0 SHL SUB AND PUSH1 0x0 SWAP1 DUP2 MSTORE PUSH1 0x6 PUSH1 0x20 MSTORE PUSH1 0x40 SWAP1 KECCAK256 SLOAD SWAP1 JUMP JUMPDEST PUSH1 0x0 DUP2 DUP2 MSTORE PUSH1 0x7 PUSH1 0x20 MSTORE PUSH1 0x40 SWAP1 KECCAK256 SLOAD PUSH1 0x1 PUSH1 0x1 PUSH1 0xA0 SHL SUB AND CALLER EQ PUSH2 0x226 JUMPI PUSH1 0x40 MLOAD PUSH3 0x461BCD PUSH1 0xE5 SHL DUP2 MSTORE PUSH1 0x20 PUSH1 0x4 DUP3 ADD MSTORE PUSH1 0x13 PUSH1 0x24 DUP3 ADD MSTORE PUSH19 0x3AB730BABA3437B934BD32B21031B0B63632B9 PUSH1 0x69 SHL PUSH1 0x44 DUP3 ADD MSTORE PUSH1 0x64 ADD JUMPDEST PUSH1 0x40 MLOAD DUP1 SWAP2 SUB SWAP1 REVERT JUMPDEST PUSH1 0x3 SLOAD PUSH2 0x238 JUMPI PUSH2 0x236 DUP2 PUSH2 0x12D2 JUMP JUMPDEST POP JUMPDEST PUSH2 0x241 DUP2 PUSH2 0xCBF JUMP JUMPDEST POP JUMP JUMPDEST PUSH1 0x1 PUSH1 0x1 PUSH1 0xA0 SHL SUB DUP2 AND PUSH1 0x0 SWAP1 DUP2 MSTORE PUSH1 0x8 PUSH1 0x20 SWAP1 DUP2 MSTORE PUSH1 0x40 DUP1 DUP4 KECCAK256 DUP1 SLOAD DUP3 MLOAD DUP2 DUP6 MUL DUP2 ADD DUP6 ADD SWAP1 SWAP4 MSTORE DUP1 DUP4 MSTORE PUSH1 0x60 SWAP5 DUP6 SWAP5 SWAP1 SWAP4 SWAP3 SWAP2 SWAP1 DUP4 ADD DUP3 DUP3 DUP1 ISZERO PUSH2 0x2A9 JUMPI PUSH1 0x20 MUL DUP3 ADD SWAP2 SWAP1 PUSH1 0x0 MSTORE PUSH1 0x20 PUSH1 0x0 KECCAK256 SWAP1 JUMPDEST DUP2 SLOAD DUP2 MSTORE PUSH1 0x20 ADD SWAP1 PUSH1 0x1 ADD SWAP1 DUP1 DUP4 GT PUSH2 0x295 JUMPI JUMPDEST POP POP PUSH1 0x5 SLOAD SWAP4 SWAP5 POP PUSH1 0x0 SWAP3 POP POP POP JUMPDEST DUP2 DUP2 LT ISZERO PUSH2 0x38E JUMPI PUSH1 0x7 PUSH1 0x0 DUP5 DUP4 DUP2 MLOAD DUP2 LT PUSH2 0x2E4 JUMPI PUSH4 0x4E487B71 PUSH1 0xE0 SHL PUSH1 0x0 MSTORE PUSH1 0x32 PUSH1 0x4 MSTORE PUSH1 0x24 PUSH1 0x0 REVERT JUMPDEST PUSH1 0x20 SWAP1 DUP2 MUL SWAP2 SWAP1 SWAP2 ADD DUP2 ADD MLOAD DUP3 MSTORE DUP2 DUP2 ADD SWAP3 SWAP1 SWAP3 MSTORE PUSH1 0x40 SWAP1 DUP2 ADD PUSH1 0x0 KECCAK256 DUP2 MLOAD PUSH1 0xC0 DUP2 ADD DUP4 MSTORE DUP2 SLOAD PUSH1 0x1 PUSH1 0x1 PUSH1 0xA0 SHL SUB SWAP1 DUP2 AND DUP3 MSTORE PUSH1 0x1 DUP4 ADD SLOAD AND SWAP4 DUP2 ADD SWAP4 SWAP1 SWAP4 MSTORE PUSH1 0x2 DUP2 ADD SLOAD SWAP2 DUP4 ADD SWAP2 SWAP1 SWAP2 MSTORE PUSH1 0x3 DUP2 ADD SLOAD PUSH1 0x60 DUP4 ADD MSTORE PUSH1 0x4 DUP2 ADD SLOAD PUSH1 0x80 DUP4 ADD MSTORE PUSH1 0x5 ADD SLOAD PUSH1 0xA0 DUP3 ADD MSTORE DUP5 MLOAD DUP6 SWAP1 DUP4 SWAP1 DUP2 LT PUSH2 0x370 JUMPI PUSH4 0x4E487B71 PUSH1 0xE0 SHL PUSH1 0x0 MSTORE PUSH1 0x32 PUSH1 0x4 MSTORE PUSH1 0x24 PUSH1 0x0 REVERT JUMPDEST PUSH1 0x20 MUL PUSH1 0x20 ADD ADD DUP2 SWAP1 MSTORE POP DUP1 DUP1 PUSH2 0x386 SWAP1 PUSH2 0x28D8 JUMP JUMPDEST SWAP2 POP POP PUSH2 0x2B8 JUMP JUMPDEST POP SWAP2 SWAP5 SWAP4 POP POP POP POP JUMP JUMPDEST PUSH1 0x0 PUSH1 0x2 PUSH1 0x0 SLOAD EQ ISZERO PUSH2 0x3ED JUMPI PUSH1 0x40 MLOAD PUSH3 0x461BCD PUSH1 0xE5 SHL DUP2 MSTORE PUSH1 0x20 PUSH1 0x4 DUP3 ADD MSTORE PUSH1 0x1F PUSH1 0x24 DUP3 ADD MSTORE PUSH32 0x5265656E7472616E637947756172643A207265656E7472616E742063616C6C00 PUSH1 0x44 DUP3 ADD MSTORE PUSH1 0x64 ADD PUSH2 0x21D JUMP JUMPDEST PUSH1 0x2 PUSH1 0x0 SWAP1 DUP2 SSTORE PUSH1 0x1 PUSH1 0x1 PUSH1 0xA0 SHL SUB DUP4 DUP2 AND DUP3 MSTORE PUSH1 0x6 PUSH1 0x20 MSTORE PUSH1 0x40 SWAP2 DUP3 SWAP1 KECCAK256 SLOAD SWAP2 MLOAD PUSH4 0x70A08231 PUSH1 0xE0 SHL DUP2 MSTORE ADDRESS PUSH1 0x4 DUP3 ADD MSTORE DUP3 SWAP2 PUSH32 0x0 AND SWAP1 PUSH4 0x70A08231 SWAP1 PUSH1 0x24 ADD PUSH1 0x20 PUSH1 0x40 MLOAD DUP1 DUP4 SUB DUP2 DUP7 DUP1 EXTCODESIZE ISZERO DUP1 ISZERO PUSH2 0x465 JUMPI PUSH1 0x0 DUP1 REVERT JUMPDEST POP GAS STATICCALL ISZERO DUP1 ISZERO PUSH2 0x479 JUMPI RETURNDATASIZE PUSH1 0x0 DUP1 RETURNDATACOPY RETURNDATASIZE PUSH1 0x0 REVERT JUMPDEST POP POP POP POP PUSH1 0x40 MLOAD RETURNDATASIZE PUSH1 0x1F NOT PUSH1 0x1F DUP3 ADD AND DUP3 ADD DUP1 PUSH1 0x40 MSTORE POP DUP2 ADD SWAP1 PUSH2 0x49D SWAP2 SWAP1 PUSH2 0x279F JUMP JUMPDEST LT ISZERO DUP1 ISZERO PUSH2 0x4AB JUMPI POP PUSH1 0x0 DUP2 GT JUMPDEST PUSH2 0x4EE JUMPI PUSH1 0x40 MLOAD PUSH3 0x461BCD PUSH1 0xE5 SHL DUP2 MSTORE PUSH1 0x20 PUSH1 0x4 DUP3 ADD MSTORE PUSH1 0x14 PUSH1 0x24 DUP3 ADD MSTORE PUSH20 0x7A65726F2076616C756520617661696C61626C65 PUSH1 0x60 SHL PUSH1 0x44 DUP3 ADD MSTORE PUSH1 0x64 ADD PUSH2 0x21D JUMP JUMPDEST PUSH1 0x1 PUSH1 0x1 PUSH1 0xA0 SHL SUB DUP4 AND PUSH1 0x0 SWAP1 DUP2 MSTORE PUSH1 0x6 PUSH1 0x20 MSTORE PUSH1 0x40 DUP2 KECCAK256 DUP1 SLOAD DUP4 SWAP3 SWAP1 PUSH2 0x516 SWAP1 DUP5 SWAP1 PUSH2 0x28C1 JUMP JUMPDEST SWAP1 SWAP2 SSTORE POP POP PUSH1 0x40 MLOAD PUSH4 0xA9059CBB PUSH1 0xE0 SHL DUP2 MSTORE PUSH1 0x1 PUSH1 0x1 PUSH1 0xA0 SHL SUB DUP5 DUP2 AND PUSH1 0x4 DUP4 ADD MSTORE PUSH1 0x24 DUP3 ADD DUP4 SWAP1 MSTORE PUSH1 0x0 SWAP2 PUSH32 0x0 SWAP1 SWAP2 AND SWAP1 PUSH4 0xA9059CBB SWAP1 PUSH1 0x44 ADD PUSH1 0x20 PUSH1 0x40 MLOAD DUP1 DUP4 SUB DUP2 PUSH1 0x0 DUP8 DUP1 EXTCODESIZE ISZERO DUP1 ISZERO PUSH2 0x58A JUMPI PUSH1 0x0 DUP1 REVERT JUMPDEST POP GAS CALL ISZERO DUP1 ISZERO PUSH2 0x59E JUMPI RETURNDATASIZE PUSH1 0x0 DUP1 RETURNDATACOPY RETURNDATASIZE PUSH1 0x0 REVERT JUMPDEST POP POP POP POP PUSH1 0x40 MLOAD RETURNDATASIZE PUSH1 0x1F NOT PUSH1 0x1F DUP3 ADD AND DUP3 ADD DUP1 PUSH1 0x40 MSTORE POP DUP2 ADD SWAP1 PUSH2 0x5C2 SWAP2 SWAP1 PUSH2 0x276B JUMP JUMPDEST SWAP1 POP DUP1 PUSH2 0x611 JUMPI PUSH1 0x40 MLOAD PUSH3 0x461BCD PUSH1 0xE5 SHL DUP2 MSTORE PUSH1 0x20 PUSH1 0x4 DUP3 ADD MSTORE PUSH1 0x19 PUSH1 0x24 DUP3 ADD MSTORE PUSH32 0x7472616E7366657220746F2063616C6C6572206661696C656400000000000000 PUSH1 0x44 DUP3 ADD MSTORE PUSH1 0x64 ADD PUSH2 0x21D JUMP JUMPDEST PUSH1 0x40 DUP1 MLOAD PUSH1 0x1 PUSH1 0x1 PUSH1 0xA0 SHL SUB DUP7 AND DUP2 MSTORE PUSH1 0x20 DUP2 ADD DUP5 SWAP1 MSTORE PUSH32 0x884EDAD9CE6FA2440D8A54CC123490EB96D2768479D49FF9C7366125A9424364 SWAP2 ADD PUSH1 0x40 MLOAD DUP1 SWAP2 SUB SWAP1 LOG1 PUSH1 0x1 SWAP3 POP POP POP JUMPDEST PUSH1 0x1 PUSH1 0x0 SSTORE SWAP2 SWAP1 POP JUMP JUMPDEST PUSH1 0x0 DUP2 DUP2 MSTORE PUSH1 0xA PUSH1 0x20 SWAP1 DUP2 MSTORE PUSH1 0x40 DUP1 DUP4 KECCAK256 DUP1 SLOAD DUP3 MLOAD DUP2 DUP6 MUL DUP2 ADD DUP6 ADD SWAP1 SWAP4 MSTORE DUP1 DUP4 MSTORE SWAP2 SWAP3 SWAP1 SWAP2 SWAP1 DUP4 ADD DUP3 DUP3 DUP1 ISZERO PUSH2 0x6BA JUMPI PUSH1 0x20 MUL DUP3 ADD SWAP2 SWAP1 PUSH1 0x0 MSTORE PUSH1 0x20 PUSH1 0x0 KECCAK256 SWAP1 JUMPDEST DUP2 SLOAD DUP2 MSTORE PUSH1 0x20 ADD SWAP1 PUSH1 0x1 ADD SWAP1 DUP1 DUP4 GT PUSH2 0x6A6 JUMPI JUMPDEST POP POP DUP4 MLOAD SWAP4 SWAP5 POP PUSH1 0x0 SWAP3 POP POP POP JUMPDEST DUP2 DUP2 LT ISZERO PUSH2 0x713 JUMPI PUSH2 0x700 DUP4 DUP3 DUP2 MLOAD DUP2 LT PUSH2 0x6F3 JUMPI PUSH4 0x4E487B71 PUSH1 0xE0 SHL PUSH1 0x0 MSTORE PUSH1 0x32 PUSH1 0x4 MSTORE PUSH1 0x24 PUSH1 0x0 REVERT JUMPDEST PUSH1 0x20 MUL PUSH1 0x20 ADD ADD MLOAD PUSH2 0x1B3F JUMP JUMPDEST POP DUP1 PUSH2 0x70B DUP2 PUSH2 0x28D8 JUMP JUMPDEST SWAP2 POP POP PUSH2 0x6C8 JUMP JUMPDEST POP CALLER PUSH1 0x0 SWAP1 DUP2 MSTORE PUSH1 0x6 PUSH1 0x20 MSTORE PUSH1 0x40 SWAP1 KECCAK256 SLOAD ISZERO PUSH2 0x734 JUMPI PUSH2 0x732 CALLER PUSH2 0x398 JUMP JUMPDEST POP JUMPDEST POP POP POP JUMP JUMPDEST PUSH1 0x40 MLOAD PUSH4 0x332DACCF PUSH1 0xE0 SHL DUP2 MSTORE CALLER PUSH1 0x4 DUP3 ADD MSTORE PUSH1 0x0 SWAP1 PUSH32 0x0 PUSH1 0x1 PUSH1 0x1 PUSH1 0xA0 SHL SUB AND SWAP1 PUSH4 0x332DACCF SWAP1 PUSH1 0x24 ADD PUSH1 0x20 PUSH1 0x40 MLOAD DUP1 DUP4 SUB DUP2 DUP7 DUP1 EXTCODESIZE ISZERO DUP1 ISZERO PUSH2 0x79B JUMPI PUSH1 0x0 DUP1 REVERT JUMPDEST POP GAS STATICCALL ISZERO DUP1 ISZERO PUSH2 0x7AF JUMPI RETURNDATASIZE PUSH1 0x0 DUP1 RETURNDATACOPY RETURNDATASIZE PUSH1 0x0 REVERT JUMPDEST POP POP POP POP PUSH1 0x40 MLOAD RETURNDATASIZE PUSH1 0x1F NOT PUSH1 0x1F DUP3 ADD AND DUP3 ADD DUP1 PUSH1 0x40 MSTORE POP DUP2 ADD SWAP1 PUSH2 0x7D3 SWAP2 SWAP1 PUSH2 0x276B JUMP JUMPDEST ISZERO PUSH2 0x80C JUMPI PUSH1 0x40 MLOAD PUSH3 0x461BCD PUSH1 0xE5 SHL DUP2 MSTORE PUSH1 0x20 PUSH1 0x4 DUP3 ADD MSTORE PUSH1 0x9 PUSH1 0x24 DUP3 ADD MSTORE PUSH9 0x189B1858DADB1A5CDD PUSH1 0xBA SHL PUSH1 0x44 DUP3 ADD MSTORE PUSH1 0x64 ADD PUSH2 0x21D JUMP JUMPDEST PUSH1 0x3 SLOAD ISZERO PUSH2 0x850 JUMPI PUSH1 0x40 MLOAD PUSH3 0x461BCD PUSH1 0xE5 SHL DUP2 MSTORE PUSH1 0x20 PUSH1 0x4 DUP3 ADD MSTORE PUSH1 0x11 PUSH1 0x24 DUP3 ADD MSTORE PUSH17 0x6D61726B6574206E6F7420616374697665 PUSH1 0x78 SHL PUSH1 0x44 DUP3 ADD MSTORE PUSH1 0x64 ADD PUSH2 0x21D JUMP JUMPDEST DUP3 PUSH1 0x1 EQ DUP1 PUSH2 0x85F JUMPI POP DUP3 PUSH1 0x2 EQ JUMPDEST PUSH2 0x89A JUMPI PUSH1 0x40 MLOAD PUSH3 0x461BCD PUSH1 0xE5 SHL DUP2 MSTORE PUSH1 0x20 PUSH1 0x4 DUP3 ADD MSTORE PUSH1 0xC PUSH1 0x24 DUP3 ADD MSTORE PUSH12 0x696E76616C69642073696465 PUSH1 0xA0 SHL PUSH1 0x44 DUP3 ADD MSTORE PUSH1 0x64 ADD PUSH2 0x21D JUMP JUMPDEST PUSH1 0x40 MLOAD PUSH4 0x70A08231 PUSH1 0xE0 SHL DUP2 MSTORE CALLER PUSH1 0x4 DUP3 ADD MSTORE DUP6 SWAP1 PUSH32 0x0 PUSH1 0x1 PUSH1 0x1 PUSH1 0xA0 SHL SUB AND SWAP1 PUSH4 0x70A08231 SWAP1 PUSH1 0x24 ADD PUSH1 0x20 PUSH1 0x40 MLOAD DUP1 DUP4 SUB DUP2 DUP7 DUP1 EXTCODESIZE ISZERO DUP1 ISZERO PUSH2 0x8FB JUMPI PUSH1 0x0 DUP1 REVERT JUMPDEST POP GAS STATICCALL ISZERO DUP1 ISZERO PUSH2 0x90F JUMPI RETURNDATASIZE PUSH1 0x0 DUP1 RETURNDATACOPY RETURNDATASIZE PUSH1 0x0 REVERT JUMPDEST POP POP POP POP PUSH1 0x40 MLOAD RETURNDATASIZE PUSH1 0x1F NOT PUSH1 0x1F DUP3 ADD AND DUP3 ADD DUP1 PUSH1 0x40 MSTORE POP DUP2 ADD SWAP1 PUSH2 0x933 SWAP2 SWAP1 PUSH2 0x279F JUMP JUMPDEST LT ISZERO PUSH2 0x981 JUMPI PUSH1 0x40 MLOAD PUSH3 0x461BCD PUSH1 0xE5 SHL DUP2 MSTORE PUSH1 0x20 PUSH1 0x4 DUP3 ADD MSTORE PUSH1 0x19 PUSH1 0x24 DUP3 ADD MSTORE PUSH32 0x6E6F7420656E6F75676820746F6B656E2062616C616C6E636500000000000000 PUSH1 0x44 DUP3 ADD MSTORE PUSH1 0x64 ADD PUSH2 0x21D JUMP JUMPDEST PUSH1 0x40 MLOAD PUSH4 0x6EB1769F PUSH1 0xE1 SHL DUP2 MSTORE CALLER PUSH1 0x4 DUP3 ADD MSTORE ADDRESS PUSH1 0x24 DUP3 ADD MSTORE DUP6 SWAP1 PUSH32 0x0 PUSH1 0x1 PUSH1 0x1 PUSH1 0xA0 SHL SUB AND SWAP1 PUSH4 0xDD62ED3E SWAP1 PUSH1 0x44 ADD PUSH1 0x20 PUSH1 0x40 MLOAD DUP1 DUP4 SUB DUP2 DUP7 DUP1 EXTCODESIZE ISZERO DUP1 ISZERO PUSH2 0x9E8 JUMPI PUSH1 0x0 DUP1 REVERT JUMPDEST POP GAS STATICCALL ISZERO DUP1 ISZERO PUSH2 0x9FC JUMPI RETURNDATASIZE PUSH1 0x0 DUP1 RETURNDATACOPY RETURNDATASIZE PUSH1 0x0 REVERT JUMPDEST POP POP POP POP PUSH1 0x40 MLOAD RETURNDATASIZE PUSH1 0x1F NOT PUSH1 0x1F DUP3 ADD AND DUP3 ADD DUP1 PUSH1 0x40 MSTORE POP DUP2 ADD SWAP1 PUSH2 0xA20 SWAP2 SWAP1 PUSH2 0x279F JUMP JUMPDEST LT ISZERO PUSH2 0xA65 JUMPI PUSH1 0x40 MLOAD PUSH3 0x461BCD PUSH1 0xE5 SHL DUP2 MSTORE PUSH1 0x20 PUSH1 0x4 DUP3 ADD MSTORE PUSH1 0x14 PUSH1 0x24 DUP3 ADD MSTORE PUSH20 0x6E6F7420656E6F75676820616C6C6F77616E6365 PUSH1 0x60 SHL PUSH1 0x44 DUP3 ADD MSTORE PUSH1 0x64 ADD PUSH2 0x21D JUMP JUMPDEST PUSH32 0x0 PUSH1 0x1 PUSH1 0x1 PUSH1 0xA0 SHL SUB AND PUSH4 0x375B3C0A PUSH1 0x40 MLOAD DUP2 PUSH4 0xFFFFFFFF AND PUSH1 0xE0 SHL DUP2 MSTORE PUSH1 0x4 ADD PUSH1 0x20 PUSH1 0x40 MLOAD DUP1 DUP4 SUB DUP2 DUP7 DUP1 EXTCODESIZE ISZERO DUP1 ISZERO PUSH2 0xABE JUMPI PUSH1 0x0 DUP1 REVERT JUMPDEST POP GAS STATICCALL ISZERO DUP1 ISZERO PUSH2 0xAD2 JUMPI RETURNDATASIZE PUSH1 0x0 DUP1 RETURNDATACOPY RETURNDATASIZE PUSH1 0x0 REVERT JUMPDEST POP POP POP POP PUSH1 0x40 MLOAD RETURNDATASIZE PUSH1 0x1F NOT PUSH1 0x1F DUP3 ADD AND DUP3 ADD DUP1 PUSH1 0x40 MSTORE POP DUP2 ADD SWAP1 PUSH2 0xAF6 SWAP2 SWAP1 PUSH2 0x279F JUMP JUMPDEST DUP6 LT ISZERO PUSH2 0xB3B JUMPI PUSH1 0x40 MLOAD PUSH3 0x461BCD PUSH1 0xE5 SHL DUP2 MSTORE PUSH1 0x20 PUSH1 0x4 DUP3 ADD MSTORE PUSH1 0x13 PUSH1 0x24 DUP3 ADD MSTORE PUSH19 0x6C657373207468616E206D696E207374616B65 PUSH1 0x68 SHL PUSH1 0x44 DUP3 ADD MSTORE PUSH1 0x64 ADD PUSH2 0x21D JUMP JUMPDEST PUSH1 0x40 MLOAD PUSH4 0x23B872DD PUSH1 0xE0 SHL DUP2 MSTORE CALLER PUSH1 0x4 DUP3 ADD MSTORE ADDRESS PUSH1 0x24 DUP3 ADD MSTORE PUSH1 0x44 DUP2 ADD DUP7 SWAP1 MSTORE PUSH32 0x0 PUSH1 0x1 PUSH1 0x1 PUSH1 0xA0 SHL SUB AND SWAP1 PUSH4 0x23B872DD SWAP1 PUSH1 0x64 ADD PUSH1 0x20 PUSH1 0x40 MLOAD DUP1 DUP4 SUB DUP2 PUSH1 0x0 DUP8 DUP1 EXTCODESIZE ISZERO DUP1 ISZERO PUSH2 0xBA9 JUMPI PUSH1 0x0 DUP1 REVERT JUMPDEST POP GAS CALL ISZERO DUP1 ISZERO PUSH2 0xBBD JUMPI RETURNDATASIZE PUSH1 0x0 DUP1 RETURNDATACOPY RETURNDATASIZE PUSH1 0x0 REVERT JUMPDEST POP POP POP POP PUSH1 0x40 MLOAD RETURNDATASIZE PUSH1 0x1F NOT PUSH1 0x1F DUP3 ADD AND DUP3 ADD DUP1 PUSH1 0x40 MSTORE POP DUP2 ADD SWAP1 PUSH2 0xBE1 SWAP2 SWAP1 PUSH2 0x276B JUMP JUMPDEST PUSH2 0xC2D JUMPI PUSH1 0x40 MLOAD PUSH3 0x461BCD PUSH1 0xE5 SHL DUP2 MSTORE PUSH1 0x20 PUSH1 0x4 DUP3 ADD MSTORE PUSH1 0x1B PUSH1 0x24 DUP3 ADD MSTORE PUSH32 0x7472616E736665722066726F6D2063616C6C6572206661696C65640000000000 PUSH1 0x44 DUP3 ADD MSTORE PUSH1 0x64 ADD PUSH2 0x21D JUMP JUMPDEST PUSH1 0x0 PUSH2 0xC5C DUP9 DUP9 DUP9 DUP5 PUSH2 0xC41 PUSH1 0x64 DUP12 PUSH2 0x28C1 JUMP JUMPDEST PUSH2 0xC4C DUP12 PUSH1 0x64 PUSH2 0x28A2 JUMP JUMPDEST PUSH2 0xC56 SWAP2 SWAP1 PUSH2 0x2882 JUMP JUMPDEST DUP10 PUSH2 0x23E1 JUMP JUMPDEST PUSH1 0x40 DUP1 MLOAD CALLER DUP2 MSTORE ADDRESS PUSH1 0x20 DUP3 ADD MSTORE SWAP1 DUP2 ADD DUP3 SWAP1 MSTORE PUSH1 0x60 DUP2 ADD DUP9 SWAP1 MSTORE PUSH1 0x80 DUP2 ADD DUP8 SWAP1 MSTORE PUSH1 0xA0 DUP2 ADD DUP7 SWAP1 MSTORE SWAP1 SWAP2 POP PUSH32 0x618F358BB45538682ADE624A4A1959053D9DABD20FE300508034B879681B37BE SWAP1 PUSH1 0xC0 ADD PUSH1 0x40 MLOAD DUP1 SWAP2 SUB SWAP1 LOG1 SWAP8 SWAP7 POP POP POP POP POP POP POP JUMP JUMPDEST PUSH1 0x0 DUP2 DUP2 MSTORE PUSH1 0x7 PUSH1 0x20 SWAP1 DUP2 MSTORE PUSH1 0x40 SWAP2 DUP3 SWAP1 KECCAK256 DUP3 MLOAD PUSH1 0xC0 DUP2 ADD DUP5 MSTORE DUP2 SLOAD PUSH1 0x1 PUSH1 0x1 PUSH1 0xA0 SHL SUB SWAP1 DUP2 AND DUP1 DUP4 MSTORE PUSH1 0x1 DUP5 ADD SLOAD SWAP1 SWAP2 AND SWAP4 DUP3 ADD SWAP4 SWAP1 SWAP4 MSTORE PUSH1 0x2 DUP3 ADD SLOAD SWAP4 DUP2 ADD SWAP4 SWAP1 SWAP4 MSTORE PUSH1 0x3 DUP2 ADD SLOAD PUSH1 0x60 DUP5 ADD MSTORE PUSH1 0x4 DUP2 ADD SLOAD PUSH1 0x80 DUP5 ADD MSTORE PUSH1 0x5 ADD SLOAD PUSH1 0xA0 DUP4 ADD MSTORE CALLER EQ PUSH2 0xD65 JUMPI PUSH1 0x40 MLOAD PUSH3 0x461BCD PUSH1 0xE5 SHL DUP2 MSTORE PUSH1 0x20 PUSH1 0x4 DUP3 ADD MSTORE PUSH1 0x13 PUSH1 0x24 DUP3 ADD MSTORE PUSH19 0x3AB730BABA3437B934BD32B21031B0B63632B9 PUSH1 0x69 SHL PUSH1 0x44 DUP3 ADD MSTORE PUSH1 0x64 ADD PUSH2 0x21D JUMP JUMPDEST PUSH1 0x0 DUP2 PUSH1 0x60 ADD MLOAD DUP3 PUSH1 0x40 ADD MLOAD PUSH2 0xD7B SWAP2 SWAP1 PUSH2 0x28C1 JUMP JUMPDEST DUP3 MLOAD PUSH1 0x1 PUSH1 0x1 PUSH1 0xA0 SHL SUB AND PUSH1 0x0 SWAP1 DUP2 MSTORE PUSH1 0x6 PUSH1 0x20 MSTORE PUSH1 0x40 DUP2 KECCAK256 DUP1 SLOAD SWAP3 SWAP4 POP DUP4 SWAP3 SWAP1 SWAP2 SWAP1 PUSH2 0xDA9 SWAP1 DUP5 SWAP1 PUSH2 0x286A JUMP JUMPDEST SWAP1 SWAP2 SSTORE POP POP PUSH1 0x40 DUP1 DUP4 ADD MLOAD PUSH1 0x0 DUP6 DUP2 MSTORE PUSH1 0x7 PUSH1 0x20 SWAP1 DUP2 MSTORE DUP4 DUP3 KECCAK256 PUSH1 0x3 ADD SWAP3 SWAP1 SWAP3 SSTORE CALLER DUP2 MSTORE PUSH1 0x6 SWAP1 SWAP2 MSTORE KECCAK256 SLOAD ISZERO PUSH2 0x734 JUMPI PUSH2 0x732 CALLER PUSH2 0x398 JUMP JUMPDEST PUSH1 0x1 SLOAD PUSH1 0x0 SWAP1 PUSH1 0x1 PUSH1 0x1 PUSH1 0xA0 SHL SUB AND CALLER EQ DUP1 PUSH2 0xE9F JUMPI POP PUSH32 0x0 PUSH1 0x1 PUSH1 0x1 PUSH1 0xA0 SHL SUB AND PUSH4 0xCE606EE0 PUSH1 0x40 MLOAD DUP2 PUSH4 0xFFFFFFFF AND PUSH1 0xE0 SHL DUP2 MSTORE PUSH1 0x4 ADD PUSH1 0x20 PUSH1 0x40 MLOAD DUP1 DUP4 SUB DUP2 DUP7 DUP1 EXTCODESIZE ISZERO DUP1 ISZERO PUSH2 0xE52 JUMPI PUSH1 0x0 DUP1 REVERT JUMPDEST POP GAS STATICCALL ISZERO DUP1 ISZERO PUSH2 0xE66 JUMPI RETURNDATASIZE PUSH1 0x0 DUP1 RETURNDATACOPY RETURNDATASIZE PUSH1 0x0 REVERT JUMPDEST POP POP POP POP PUSH1 0x40 MLOAD RETURNDATASIZE PUSH1 0x1F NOT PUSH1 0x1F DUP3 ADD AND DUP3 ADD DUP1 PUSH1 0x40 MSTORE POP DUP2 ADD SWAP1 PUSH2 0xE8A SWAP2 SWAP1 PUSH2 0x26E9 JUMP JUMPDEST PUSH1 0x1 PUSH1 0x1 PUSH1 0xA0 SHL SUB AND CALLER PUSH1 0x1 PUSH1 0x1 PUSH1 0xA0 SHL SUB AND EQ JUMPDEST DUP1 PUSH2 0xEB4 JUMPI POP PUSH1 0x2 SLOAD PUSH1 0x1 PUSH1 0x1 PUSH1 0xA0 SHL SUB AND CALLER EQ JUMPDEST PUSH2 0xED0 JUMPI PUSH1 0x40 MLOAD PUSH3 0x461BCD PUSH1 0xE5 SHL DUP2 MSTORE PUSH1 0x4 ADD PUSH2 0x21D SWAP1 PUSH2 0x283B JUMP JUMPDEST PUSH2 0xED9 DUP3 PUSH2 0x104B JUMP JUMPDEST ISZERO PUSH2 0xF3D JUMPI PUSH1 0x4 SLOAD PUSH1 0x0 JUMPDEST DUP2 DUP2 LT ISZERO PUSH2 0xF33 JUMPI PUSH2 0xF20 PUSH1 0x4 DUP3 DUP2 SLOAD DUP2 LT PUSH2 0xF10 JUMPI PUSH4 0x4E487B71 PUSH1 0xE0 SHL PUSH1 0x0 MSTORE PUSH1 0x32 PUSH1 0x4 MSTORE PUSH1 0x24 PUSH1 0x0 REVERT JUMPDEST SWAP1 PUSH1 0x0 MSTORE PUSH1 0x20 PUSH1 0x0 KECCAK256 ADD SLOAD PUSH2 0x1B3F JUMP JUMPDEST POP DUP1 PUSH2 0xF2B DUP2 PUSH2 0x28D8 JUMP JUMPDEST SWAP2 POP POP PUSH2 0xEE4 JUMP JUMPDEST POP PUSH1 0x1 SWAP4 SWAP3 POP POP POP JUMP JUMPDEST POP PUSH1 0x0 SWAP2 SWAP1 POP JUMP JUMPDEST PUSH1 0x1 SLOAD PUSH1 0x0 SWAP1 PUSH1 0x1 PUSH1 0x1 PUSH1 0xA0 SHL SUB AND CALLER EQ DUP1 PUSH2 0x1002 JUMPI POP PUSH32 0x0 PUSH1 0x1 PUSH1 0x1 PUSH1 0xA0 SHL SUB AND PUSH4 0xCE606EE0 PUSH1 0x40 MLOAD DUP2 PUSH4 0xFFFFFFFF AND PUSH1 0xE0 SHL DUP2 MSTORE PUSH1 0x4 ADD PUSH1 0x20 PUSH1 0x40 MLOAD DUP1 DUP4 SUB DUP2 DUP7 DUP1 EXTCODESIZE ISZERO DUP1 ISZERO PUSH2 0xFB5 JUMPI PUSH1 0x0 DUP1 REVERT JUMPDEST POP GAS STATICCALL ISZERO DUP1 ISZERO PUSH2 0xFC9 JUMPI RETURNDATASIZE PUSH1 0x0 DUP1 RETURNDATACOPY RETURNDATASIZE PUSH1 0x0 REVERT JUMPDEST POP POP POP POP PUSH1 0x40 MLOAD RETURNDATASIZE PUSH1 0x1F NOT PUSH1 0x1F DUP3 ADD AND DUP3 ADD DUP1 PUSH1 0x40 MSTORE POP DUP2 ADD SWAP1 PUSH2 0xFED SWAP2 SWAP1 PUSH2 0x26E9 JUMP JUMPDEST PUSH1 0x1 PUSH1 0x1 PUSH1 0xA0 SHL SUB AND CALLER PUSH1 0x1 PUSH1 0x1 PUSH1 0xA0 SHL SUB AND EQ JUMPDEST DUP1 PUSH2 0x1017 JUMPI POP PUSH1 0x2 SLOAD PUSH1 0x1 PUSH1 0x1 PUSH1 0xA0 SHL SUB AND CALLER EQ JUMPDEST PUSH2 0x1033 JUMPI PUSH1 0x40 MLOAD PUSH3 0x461BCD PUSH1 0xE5 SHL DUP2 MSTORE PUSH1 0x4 ADD PUSH2 0x21D SWAP1 PUSH2 0x283B JUMP JUMPDEST PUSH1 0x3 SLOAD PUSH2 0x1045 JUMPI POP PUSH1 0x4 PUSH1 0x3 SSTORE PUSH1 0x1 SWAP1 JUMP JUMPDEST POP PUSH1 0x0 SWAP1 JUMP JUMPDEST PUSH1 0x1 SLOAD PUSH1 0x0 SWAP1 PUSH1 0x1 PUSH1 0x1 PUSH1 0xA0 SHL SUB AND CALLER EQ DUP1 PUSH2 0x1108 JUMPI POP PUSH32 0x0 PUSH1 0x1 PUSH1 0x1 PUSH1 0xA0 SHL SUB AND PUSH4 0xCE606EE0 PUSH1 0x40 MLOAD DUP2 PUSH4 0xFFFFFFFF AND PUSH1 0xE0 SHL DUP2 MSTORE PUSH1 0x4 ADD PUSH1 0x20 PUSH1 0x40 MLOAD DUP1 DUP4 SUB DUP2 DUP7 DUP1 EXTCODESIZE ISZERO DUP1 ISZERO PUSH2 0x10BB JUMPI PUSH1 0x0 DUP1 REVERT JUMPDEST POP GAS STATICCALL ISZERO DUP1 ISZERO PUSH2 0x10CF JUMPI RETURNDATASIZE PUSH1 0x0 DUP1 RETURNDATACOPY RETURNDATASIZE PUSH1 0x0 REVERT JUMPDEST POP POP POP POP PUSH1 0x40 MLOAD RETURNDATASIZE PUSH1 0x1F NOT PUSH1 0x1F DUP3 ADD AND DUP3 ADD DUP1 PUSH1 0x40 MSTORE POP DUP2 ADD SWAP1 PUSH2 0x10F3 SWAP2 SWAP1 PUSH2 0x26E9 JUMP JUMPDEST PUSH1 0x1 PUSH1 0x1 PUSH1 0xA0 SHL SUB AND CALLER PUSH1 0x1 PUSH1 0x1 PUSH1 0xA0 SHL SUB AND EQ JUMPDEST DUP1 PUSH2 0x111D JUMPI POP PUSH1 0x2 SLOAD PUSH1 0x1 PUSH1 0x1 PUSH1 0xA0 SHL SUB AND CALLER EQ JUMPDEST PUSH2 0x1139 JUMPI PUSH1 0x40 MLOAD PUSH3 0x461BCD PUSH1 0xE5 SHL DUP2 MSTORE PUSH1 0x4 ADD PUSH2 0x21D SWAP1 PUSH2 0x283B JUMP JUMPDEST PUSH1 0x3 SLOAD ISZERO DUP1 PUSH2 0x114A JUMPI POP PUSH1 0x3 SLOAD PUSH1 0x4 EQ JUMPDEST DUP1 ISZERO PUSH2 0x1160 JUMPI POP DUP2 PUSH1 0x1 EQ DUP1 PUSH2 0x1160 JUMPI POP DUP2 PUSH1 0x2 EQ JUMPDEST ISZERO PUSH2 0xF3D JUMPI POP PUSH1 0x3 SSTORE PUSH1 0x1 SWAP1 JUMP JUMPDEST PUSH1 0x1 SLOAD PUSH1 0x0 SWAP1 PUSH1 0x1 PUSH1 0x1 PUSH1 0xA0 SHL SUB AND CALLER EQ DUP1 PUSH2 0x122B JUMPI POP PUSH32 0x0 PUSH1 0x1 PUSH1 0x1 PUSH1 0xA0 SHL SUB AND PUSH4 0xCE606EE0 PUSH1 0x40 MLOAD DUP2 PUSH4 0xFFFFFFFF AND PUSH1 0xE0 SHL DUP2 MSTORE PUSH1 0x4 ADD PUSH1 0x20 PUSH1 0x40 MLOAD DUP1 DUP4 SUB DUP2 DUP7 DUP1 EXTCODESIZE ISZERO DUP1 ISZERO PUSH2 0x11DE JUMPI PUSH1 0x0 DUP1 REVERT JUMPDEST POP GAS STATICCALL ISZERO DUP1 ISZERO PUSH2 0x11F2 JUMPI RETURNDATASIZE PUSH1 0x0 DUP1 RETURNDATACOPY RETURNDATASIZE PUSH1 0x0 REVERT JUMPDEST POP POP POP POP PUSH1 0x40 MLOAD RETURNDATASIZE PUSH1 0x1F NOT PUSH1 0x1F DUP3 ADD AND DUP3 ADD DUP1 PUSH1 0x40 MSTORE POP DUP2 ADD SWAP1 PUSH2 0x1216 SWAP2 SWAP1 PUSH2 0x26E9 JUMP JUMPDEST PUSH1 0x1 PUSH1 0x1 PUSH1 0xA0 SHL SUB AND CALLER PUSH1 0x1 PUSH1 0x1 PUSH1 0xA0 SHL SUB AND EQ JUMPDEST DUP1 PUSH2 0x1240 JUMPI POP PUSH1 0x2 SLOAD PUSH1 0x1 PUSH1 0x1 PUSH1 0xA0 SHL SUB AND CALLER EQ JUMPDEST PUSH2 0x125C JUMPI PUSH1 0x40 MLOAD PUSH3 0x461BCD PUSH1 0xE5 SHL DUP2 MSTORE PUSH1 0x4 ADD PUSH2 0x21D SWAP1 PUSH2 0x283B JUMP JUMPDEST PUSH1 0x3 SLOAD ISZERO DUP1 PUSH2 0x126D JUMPI POP PUSH1 0x3 SLOAD PUSH1 0x4 EQ JUMPDEST ISZERO PUSH2 0x1045 JUMPI PUSH1 0x4 SLOAD PUSH1 0x0 JUMPDEST DUP2 DUP2 LT ISZERO PUSH2 0x12C6 JUMPI PUSH2 0x12B4 PUSH1 0x4 DUP3 DUP2 SLOAD DUP2 LT PUSH2 0x12A4 JUMPI PUSH4 0x4E487B71 PUSH1 0xE0 SHL PUSH1 0x0 MSTORE PUSH1 0x32 PUSH1 0x4 MSTORE PUSH1 0x24 PUSH1 0x0 REVERT JUMPDEST SWAP1 PUSH1 0x0 MSTORE PUSH1 0x20 PUSH1 0x0 KECCAK256 ADD SLOAD PUSH2 0x260B JUMP JUMPDEST DUP1 PUSH2 0x12BE DUP2 PUSH2 0x28D8 JUMP JUMPDEST SWAP2 POP POP PUSH2 0x1278 JUMP JUMPDEST POP POP PUSH1 0x3 DUP1 SSTORE POP PUSH1 0x1 SWAP1 JUMP JUMPDEST PUSH1 0x0 DUP2 DUP2 MSTORE PUSH1 0x7 PUSH1 0x20 SWAP1 DUP2 MSTORE PUSH1 0x40 DUP1 DUP4 KECCAK256 DUP2 MLOAD PUSH1 0xC0 DUP2 ADD DUP4 MSTORE DUP2 SLOAD PUSH1 0x1 PUSH1 0x1 PUSH1 0xA0 SHL SUB SWAP1 DUP2 AND DUP3 MSTORE PUSH1 0x1 DUP4 ADD SLOAD AND DUP2 DUP6 ADD MSTORE PUSH1 0x2 DUP3 ADD SLOAD DUP2 DUP5 ADD MSTORE PUSH1 0x3 DUP3 ADD SLOAD PUSH1 0x60 DUP3 ADD MSTORE PUSH1 0x4 DUP3 ADD SLOAD PUSH1 0x80 DUP3 ADD MSTORE PUSH1 0x5 SWAP1 SWAP2 ADD SLOAD PUSH1 0xA0 DUP3 ADD MSTORE DUP5 DUP5 MSTORE PUSH1 0xA DUP4 MSTORE DUP2 DUP5 KECCAK256 DUP1 SLOAD DUP4 MLOAD DUP2 DUP7 MUL DUP2 ADD DUP7 ADD SWAP1 SWAP5 MSTORE DUP1 DUP5 MSTORE SWAP2 SWAP4 DUP6 SWAP4 SWAP3 SWAP1 DUP4 ADD DUP3 DUP3 DUP1 ISZERO PUSH2 0x137C JUMPI PUSH1 0x20 MUL DUP3 ADD SWAP2 SWAP1 PUSH1 0x0 MSTORE PUSH1 0x20 PUSH1 0x0 KECCAK256 SWAP1 JUMPDEST DUP2 SLOAD DUP2 MSTORE PUSH1 0x20 ADD SWAP1 PUSH1 0x1 ADD SWAP1 DUP1 DUP4 GT PUSH2 0x1368 JUMPI JUMPDEST POP POP DUP4 MLOAD SWAP4 SWAP5 POP PUSH1 0x0 SWAP3 POP POP POP JUMPDEST DUP2 DUP2 LT ISZERO PUSH2 0x1B33 JUMPI PUSH1 0x0 DUP1 PUSH1 0x0 DUP1 DUP8 PUSH1 0xA0 ADD MLOAD PUSH1 0x1 EQ ISZERO PUSH2 0x146A JUMPI PUSH1 0x9 PUSH1 0x0 DUP9 DUP8 DUP2 MLOAD DUP2 LT PUSH2 0x13C9 JUMPI PUSH4 0x4E487B71 PUSH1 0xE0 SHL PUSH1 0x0 MSTORE PUSH1 0x32 PUSH1 0x4 MSTORE PUSH1 0x24 PUSH1 0x0 REVERT JUMPDEST PUSH1 0x20 MUL PUSH1 0x20 ADD ADD MLOAD DUP2 MSTORE PUSH1 0x20 ADD SWAP1 DUP2 MSTORE PUSH1 0x20 ADD PUSH1 0x0 KECCAK256 PUSH1 0x2 ADD SLOAD SWAP2 POP PUSH1 0x9 PUSH1 0x0 DUP9 DUP8 DUP2 MLOAD DUP2 LT PUSH2 0x1409 JUMPI PUSH4 0x4E487B71 PUSH1 0xE0 SHL PUSH1 0x0 MSTORE PUSH1 0x32 PUSH1 0x4 MSTORE PUSH1 0x24 PUSH1 0x0 REVERT JUMPDEST PUSH1 0x20 MUL PUSH1 0x20 ADD ADD MLOAD DUP2 MSTORE PUSH1 0x20 ADD SWAP1 DUP2 MSTORE PUSH1 0x20 ADD PUSH1 0x0 KECCAK256 PUSH1 0x1 ADD SLOAD SWAP4 POP PUSH1 0x9 PUSH1 0x0 DUP9 DUP8 DUP2 MLOAD DUP2 LT PUSH2 0x1449 JUMPI PUSH4 0x4E487B71 PUSH1 0xE0 SHL PUSH1 0x0 MSTORE PUSH1 0x32 PUSH1 0x4 MSTORE PUSH1 0x24 PUSH1 0x0 REVERT JUMPDEST PUSH1 0x20 MUL PUSH1 0x20 ADD ADD MLOAD DUP2 MSTORE PUSH1 0x20 ADD SWAP1 DUP2 MSTORE PUSH1 0x20 ADD PUSH1 0x0 KECCAK256 PUSH1 0x3 ADD SLOAD SWAP3 POP PUSH2 0x1538 JUMP JUMPDEST DUP8 PUSH1 0xA0 ADD MLOAD PUSH1 0x2 EQ ISZERO PUSH2 0x1538 JUMPI PUSH1 0x9 PUSH1 0x0 DUP9 DUP8 DUP2 MLOAD DUP2 LT PUSH2 0x149B JUMPI PUSH4 0x4E487B71 PUSH1 0xE0 SHL PUSH1 0x0 MSTORE PUSH1 0x32 PUSH1 0x4 MSTORE PUSH1 0x24 PUSH1 0x0 REVERT JUMPDEST PUSH1 0x20 MUL PUSH1 0x20 ADD ADD MLOAD DUP2 MSTORE PUSH1 0x20 ADD SWAP1 DUP2 MSTORE PUSH1 0x20 ADD PUSH1 0x0 KECCAK256 PUSH1 0x3 ADD SLOAD SWAP2 POP PUSH1 0x9 PUSH1 0x0 DUP9 DUP8 DUP2 MLOAD DUP2 LT PUSH2 0x14DB JUMPI PUSH4 0x4E487B71 PUSH1 0xE0 SHL PUSH1 0x0 MSTORE PUSH1 0x32 PUSH1 0x4 MSTORE PUSH1 0x24 PUSH1 0x0 REVERT JUMPDEST PUSH1 0x20 MUL PUSH1 0x20 ADD ADD MLOAD DUP2 MSTORE PUSH1 0x20 ADD SWAP1 DUP2 MSTORE PUSH1 0x20 ADD PUSH1 0x0 KECCAK256 PUSH1 0x0 ADD SLOAD SWAP4 POP PUSH1 0x9 PUSH1 0x0 DUP9 DUP8 DUP2 MLOAD DUP2 LT PUSH2 0x151B JUMPI PUSH4 0x4E487B71 PUSH1 0xE0 SHL PUSH1 0x0 MSTORE PUSH1 0x32 PUSH1 0x4 MSTORE PUSH1 0x24 PUSH1 0x0 REVERT JUMPDEST PUSH1 0x20 MUL PUSH1 0x20 ADD ADD MLOAD DUP2 MSTORE PUSH1 0x20 ADD SWAP1 DUP2 MSTORE PUSH1 0x20 ADD PUSH1 0x0 KECCAK256 PUSH1 0x2 ADD SLOAD SWAP3 POP JUMPDEST POP PUSH1 0x0 DUP4 DUP2 MSTORE PUSH1 0x7 PUSH1 0x20 SWAP1 DUP2 MSTORE PUSH1 0x40 SWAP2 DUP3 SWAP1 KECCAK256 SLOAD DUP3 MLOAD PUSH4 0x55C4A8BF PUSH1 0xE0 SHL DUP2 MSTORE SWAP3 MLOAD PUSH1 0x1 PUSH1 0x1 PUSH1 0xA0 SHL SUB SWAP2 DUP3 AND SWAP4 PUSH1 0x64 SWAP4 PUSH32 0x0 SWAP1 SWAP4 AND SWAP3 PUSH4 0x55C4A8BF SWAP3 PUSH1 0x4 DUP1 DUP5 ADD SWAP4 DUP3 SWAP1 SUB ADD DUP2 DUP7 DUP1 EXTCODESIZE ISZERO DUP1 ISZERO PUSH2 0x15AE JUMPI PUSH1 0x0 DUP1 REVERT JUMPDEST POP GAS STATICCALL ISZERO DUP1 ISZERO PUSH2 0x15C2 JUMPI RETURNDATASIZE PUSH1 0x0 DUP1 RETURNDATACOPY RETURNDATASIZE PUSH1 0x0 REVERT JUMPDEST POP POP POP POP PUSH1 0x40 MLOAD RETURNDATASIZE PUSH1 0x1F NOT PUSH1 0x1F DUP3 ADD AND DUP3 ADD DUP1 PUSH1 0x40 MSTORE POP DUP2 ADD SWAP1 PUSH2 0x15E6 SWAP2 SWAP1 PUSH2 0x279F JUMP JUMPDEST PUSH2 0x15F1 SWAP1 PUSH1 0x64 PUSH2 0x28C1 JUMP JUMPDEST PUSH2 0x15FB SWAP1 DUP5 PUSH2 0x28A2 JUMP JUMPDEST PUSH2 0x1605 SWAP2 SWAP1 PUSH2 0x2882 JUMP JUMPDEST DUP9 MLOAD PUSH1 0x1 PUSH1 0x1 PUSH1 0xA0 SHL SUB AND PUSH1 0x0 SWAP1 DUP2 MSTORE PUSH1 0x6 PUSH1 0x20 MSTORE PUSH1 0x40 DUP2 KECCAK256 DUP1 SLOAD SWAP1 SWAP2 SWAP1 PUSH2 0x162E SWAP1 DUP5 SWAP1 PUSH2 0x286A JUMP JUMPDEST SWAP1 SWAP2 SSTORE POP POP PUSH1 0x0 DUP5 DUP2 MSTORE PUSH1 0x7 PUSH1 0x20 MSTORE PUSH1 0x40 DUP2 KECCAK256 PUSH1 0x3 ADD DUP1 SLOAD DUP6 SWAP3 SWAP1 PUSH2 0x1654 SWAP1 DUP5 SWAP1 PUSH2 0x28C1 JUMP JUMPDEST SWAP3 POP POP DUP2 SWAP1 SSTORE POP PUSH1 0x0 PUSH1 0x64 PUSH32 0x0 PUSH1 0x1 PUSH1 0x1 PUSH1 0xA0 SHL SUB AND PUSH4 0x55C4A8BF PUSH1 0x40 MLOAD DUP2 PUSH4 0xFFFFFFFF AND PUSH1 0xE0 SHL DUP2 MSTORE PUSH1 0x4 ADD PUSH1 0x20 PUSH1 0x40 MLOAD DUP1 DUP4 SUB DUP2 DUP7 DUP1 EXTCODESIZE ISZERO DUP1 ISZERO PUSH2 0x16B8 JUMPI PUSH1 0x0 DUP1 REVERT JUMPDEST POP GAS STATICCALL ISZERO DUP1 ISZERO PUSH2 0x16CC JUMPI RETURNDATASIZE PUSH1 0x0 DUP1 RETURNDATACOPY RETURNDATASIZE PUSH1 0x0 REVERT JUMPDEST POP POP POP POP PUSH1 0x40 MLOAD RETURNDATASIZE PUSH1 0x1F NOT PUSH1 0x1F DUP3 ADD AND DUP3 ADD DUP1 PUSH1 0x40 MSTORE POP DUP2 ADD SWAP1 PUSH2 0x16F0 SWAP2 SWAP1 PUSH2 0x279F JUMP JUMPDEST PUSH2 0x16FA SWAP1 DUP6 PUSH2 0x28A2 JUMP JUMPDEST PUSH2 0x1704 SWAP2 SWAP1 PUSH2 0x2882 JUMP JUMPDEST SWAP1 POP PUSH1 0x64 PUSH32 0x0 PUSH1 0x1 PUSH1 0x1 PUSH1 0xA0 SHL SUB AND PUSH4 0x6A0CCD9D PUSH1 0x40 MLOAD DUP2 PUSH4 0xFFFFFFFF AND PUSH1 0xE0 SHL DUP2 MSTORE PUSH1 0x4 ADD PUSH1 0x20 PUSH1 0x40 MLOAD DUP1 DUP4 SUB DUP2 DUP7 DUP1 EXTCODESIZE ISZERO DUP1 ISZERO PUSH2 0x1761 JUMPI PUSH1 0x0 DUP1 REVERT JUMPDEST POP GAS STATICCALL ISZERO DUP1 ISZERO PUSH2 0x1775 JUMPI RETURNDATASIZE PUSH1 0x0 DUP1 RETURNDATACOPY RETURNDATASIZE PUSH1 0x0 REVERT JUMPDEST POP POP POP POP PUSH1 0x40 MLOAD RETURNDATASIZE PUSH1 0x1F NOT PUSH1 0x1F DUP3 ADD AND DUP3 ADD DUP1 PUSH1 0x40 MSTORE POP DUP2 ADD SWAP1 PUSH2 0x1799 SWAP2 SWAP1 PUSH2 0x279F JUMP JUMPDEST PUSH2 0x17A3 SWAP1 DUP4 PUSH2 0x28A2 JUMP JUMPDEST PUSH2 0x17AD SWAP2 SWAP1 PUSH2 0x2882 JUMP JUMPDEST PUSH1 0x6 PUSH1 0x0 PUSH32 0x0 PUSH1 0x1 PUSH1 0x1 PUSH1 0xA0 SHL SUB AND PUSH4 0xB7640A54 PUSH1 0x40 MLOAD DUP2 PUSH4 0xFFFFFFFF AND PUSH1 0xE0 SHL DUP2 MSTORE PUSH1 0x4 ADD PUSH1 0x20 PUSH1 0x40 MLOAD DUP1 DUP4 SUB DUP2 DUP7 DUP1 EXTCODESIZE ISZERO DUP1 ISZERO PUSH2 0x180A JUMPI PUSH1 0x0 DUP1 REVERT JUMPDEST POP GAS STATICCALL ISZERO DUP1 ISZERO PUSH2 0x181E JUMPI RETURNDATASIZE PUSH1 0x0 DUP1 RETURNDATACOPY RETURNDATASIZE PUSH1 0x0 REVERT JUMPDEST POP POP POP POP PUSH1 0x40 MLOAD RETURNDATASIZE PUSH1 0x1F NOT PUSH1 0x1F DUP3 ADD AND DUP3 ADD DUP1 PUSH1 0x40 MSTORE POP DUP2 ADD SWAP1 PUSH2 0x1842 SWAP2 SWAP1 PUSH2 0x26E9 JUMP JUMPDEST PUSH1 0x1 PUSH1 0x1 PUSH1 0xA0 SHL SUB AND PUSH1 0x1 PUSH1 0x1 PUSH1 0xA0 SHL SUB AND DUP2 MSTORE PUSH1 0x20 ADD SWAP1 DUP2 MSTORE PUSH1 0x20 ADD PUSH1 0x0 KECCAK256 PUSH1 0x0 DUP3 DUP3 SLOAD PUSH2 0x1871 SWAP2 SWAP1 PUSH2 0x286A JUMP JUMPDEST SWAP3 POP POP DUP2 SWAP1 SSTORE POP PUSH1 0x64 PUSH32 0x0 PUSH1 0x1 PUSH1 0x1 PUSH1 0xA0 SHL SUB AND PUSH4 0x28576D45 PUSH1 0x40 MLOAD DUP2 PUSH4 0xFFFFFFFF AND PUSH1 0xE0 SHL DUP2 MSTORE PUSH1 0x4 ADD PUSH1 0x20 PUSH1 0x40 MLOAD DUP1 DUP4 SUB DUP2 DUP7 DUP1 EXTCODESIZE ISZERO DUP1 ISZERO PUSH2 0x18D3 JUMPI PUSH1 0x0 DUP1 REVERT JUMPDEST POP GAS STATICCALL ISZERO DUP1 ISZERO PUSH2 0x18E7 JUMPI RETURNDATASIZE PUSH1 0x0 DUP1 RETURNDATACOPY RETURNDATASIZE PUSH1 0x0 REVERT JUMPDEST POP POP POP POP PUSH1 0x40 MLOAD RETURNDATASIZE PUSH1 0x1F NOT PUSH1 0x1F DUP3 ADD AND DUP3 ADD DUP1 PUSH1 0x40 MSTORE POP DUP2 ADD SWAP1 PUSH2 0x190B SWAP2 SWAP1 PUSH2 0x279F JUMP JUMPDEST PUSH2 0x1915 SWAP1 DUP4 PUSH2 0x28A2 JUMP JUMPDEST PUSH2 0x191F SWAP2 SWAP1 PUSH2 0x2882 JUMP JUMPDEST PUSH1 0x6 PUSH1 0x0 PUSH32 0x0 PUSH1 0x1 PUSH1 0x1 PUSH1 0xA0 SHL SUB AND PUSH4 0x9953B2F PUSH1 0x40 MLOAD DUP2 PUSH4 0xFFFFFFFF AND PUSH1 0xE0 SHL DUP2 MSTORE PUSH1 0x4 ADD PUSH1 0x20 PUSH1 0x40 MLOAD DUP1 DUP4 SUB DUP2 DUP7 DUP1 EXTCODESIZE ISZERO DUP1 ISZERO PUSH2 0x197C JUMPI PUSH1 0x0 DUP1 REVERT JUMPDEST POP GAS STATICCALL ISZERO DUP1 ISZERO PUSH2 0x1990 JUMPI RETURNDATASIZE PUSH1 0x0 DUP1 RETURNDATACOPY RETURNDATASIZE PUSH1 0x0 REVERT JUMPDEST POP POP POP POP PUSH1 0x40 MLOAD RETURNDATASIZE PUSH1 0x1F NOT PUSH1 0x1F DUP3 ADD AND DUP3 ADD DUP1 PUSH1 0x40 MSTORE POP DUP2 ADD SWAP1 PUSH2 0x19B4 SWAP2 SWAP1 PUSH2 0x26E9 JUMP JUMPDEST PUSH1 0x1 PUSH1 0x1 PUSH1 0xA0 SHL SUB AND PUSH1 0x1 PUSH1 0x1 PUSH1 0xA0 SHL SUB AND DUP2 MSTORE PUSH1 0x20 ADD SWAP1 DUP2 MSTORE PUSH1 0x20 ADD PUSH1 0x0 KECCAK256 PUSH1 0x0 DUP3 DUP3 SLOAD PUSH2 0x19E3 SWAP2 SWAP1 PUSH2 0x286A JUMP JUMPDEST SWAP3 POP POP DUP2 SWAP1 SSTORE POP PUSH1 0x64 PUSH32 0x0 PUSH1 0x1 PUSH1 0x1 PUSH1 0xA0 SHL SUB AND PUSH4 0x54CD1A5C PUSH1 0x40 MLOAD DUP2 PUSH4 0xFFFFFFFF AND PUSH1 0xE0 SHL DUP2 MSTORE PUSH1 0x4 ADD PUSH1 0x20 PUSH1 0x40 MLOAD DUP1 DUP4 SUB DUP2 DUP7 DUP1 EXTCODESIZE ISZERO DUP1 ISZERO PUSH2 0x1A45 JUMPI PUSH1 0x0 DUP1 REVERT JUMPDEST POP GAS STATICCALL ISZERO DUP1 ISZERO PUSH2 0x1A59 JUMPI RETURNDATASIZE PUSH1 0x0 DUP1 RETURNDATACOPY RETURNDATASIZE PUSH1 0x0 REVERT JUMPDEST POP POP POP POP PUSH1 0x40 MLOAD RETURNDATASIZE PUSH1 0x1F NOT PUSH1 0x1F DUP3 ADD AND DUP3 ADD DUP1 PUSH1 0x40 MSTORE POP DUP2 ADD SWAP1 PUSH2 0x1A7D SWAP2 SWAP1 PUSH2 0x279F JUMP JUMPDEST PUSH2 0x1A87 SWAP1 DUP4 PUSH2 0x28A2 JUMP JUMPDEST PUSH2 0x1A91 SWAP2 SWAP1 PUSH2 0x2882 JUMP JUMPDEST PUSH1 0x20 DUP1 DUP12 ADD MLOAD PUSH1 0x1 PUSH1 0x1 PUSH1 0xA0 SHL SUB AND PUSH1 0x0 SWAP1 DUP2 MSTORE PUSH1 0x6 SWAP1 SWAP2 MSTORE PUSH1 0x40 DUP2 KECCAK256 DUP1 SLOAD SWAP1 SWAP2 SWAP1 PUSH2 0x1ABE SWAP1 DUP5 SWAP1 PUSH2 0x286A JUMP JUMPDEST SWAP3 POP POP DUP2 SWAP1 SSTORE POP PUSH1 0x1 PUSH1 0x9 PUSH1 0x0 DUP11 DUP10 DUP2 MLOAD DUP2 LT PUSH2 0x1AEB JUMPI PUSH4 0x4E487B71 PUSH1 0xE0 SHL PUSH1 0x0 MSTORE PUSH1 0x32 PUSH1 0x4 MSTORE PUSH1 0x24 PUSH1 0x0 REVERT JUMPDEST PUSH1 0x20 MUL PUSH1 0x20 ADD ADD MLOAD DUP2 MSTORE PUSH1 0x20 ADD SWAP1 DUP2 MSTORE PUSH1 0x20 ADD PUSH1 0x0 KECCAK256 PUSH1 0x4 ADD PUSH1 0x0 PUSH2 0x100 EXP DUP2 SLOAD DUP2 PUSH1 0xFF MUL NOT AND SWAP1 DUP4 ISZERO ISZERO MUL OR SWAP1 SSTORE POP POP POP POP POP POP DUP1 DUP1 PUSH2 0x1B2B SWAP1 PUSH2 0x28D8 JUMP JUMPDEST SWAP2 POP POP PUSH2 0x138A JUMP JUMPDEST POP PUSH1 0x1 SWAP6 SWAP5 POP POP POP POP POP JUMP JUMPDEST PUSH1 0x0 PUSH1 0x2 PUSH1 0x0 SLOAD EQ ISZERO PUSH2 0x1B94 JUMPI PUSH1 0x40 MLOAD PUSH3 0x461BCD PUSH1 0xE5 SHL DUP2 MSTORE PUSH1 0x20 PUSH1 0x4 DUP3 ADD MSTORE PUSH1 0x1F PUSH1 0x24 DUP3 ADD MSTORE PUSH32 0x5265656E7472616E637947756172643A207265656E7472616E742063616C6C00 PUSH1 0x44 DUP3 ADD MSTORE PUSH1 0x64 ADD PUSH2 0x21D JUMP JUMPDEST PUSH1 0x2 PUSH1 0x0 SWAP1 DUP2 SSTORE DUP3 DUP2 MSTORE PUSH1 0x9 PUSH1 0x20 MSTORE PUSH1 0x40 SWAP1 KECCAK256 PUSH1 0x4 ADD SLOAD PUSH1 0xFF AND ISZERO PUSH2 0x1BBB JUMPI POP PUSH1 0x0 PUSH2 0x65A JUMP JUMPDEST PUSH1 0x0 DUP1 PUSH1 0x0 DUP1 PUSH1 0x3 SLOAD PUSH1 0x1 EQ ISZERO PUSH2 0x1DBE JUMPI PUSH1 0x0 DUP7 DUP2 MSTORE PUSH1 0x9 PUSH1 0x20 SWAP1 DUP2 MSTORE PUSH1 0x40 DUP1 DUP4 KECCAK256 SLOAD DUP4 MSTORE PUSH1 0x7 DUP3 MSTORE SWAP2 DUP3 SWAP1 KECCAK256 SLOAD DUP3 MLOAD PUSH4 0x55C4A8BF PUSH1 0xE0 SHL DUP2 MSTORE SWAP3 MLOAD PUSH1 0x1 PUSH1 0x1 PUSH1 0xA0 SHL SUB SWAP2 DUP3 AND SWAP8 POP PUSH1 0x64 SWAP4 PUSH32 0x0 SWAP1 SWAP3 AND SWAP3 PUSH4 0x55C4A8BF SWAP3 PUSH1 0x4 DUP1 DUP3 ADD SWAP4 SWAP2 DUP3 SWAP1 SUB ADD DUP2 DUP7 DUP1 EXTCODESIZE ISZERO DUP1 ISZERO PUSH2 0x1C4D JUMPI PUSH1 0x0 DUP1 REVERT JUMPDEST POP GAS STATICCALL ISZERO DUP1 ISZERO PUSH2 0x1C61 JUMPI RETURNDATASIZE PUSH1 0x0 DUP1 RETURNDATACOPY RETURNDATASIZE PUSH1 0x0 REVERT JUMPDEST POP POP POP POP PUSH1 0x40 MLOAD RETURNDATASIZE PUSH1 0x1F NOT PUSH1 0x1F DUP3 ADD AND DUP3 ADD DUP1 PUSH1 0x40 MSTORE POP DUP2 ADD SWAP1 PUSH2 0x1C85 SWAP2 SWAP1 PUSH2 0x279F JUMP JUMPDEST PUSH2 0x1C90 SWAP1 PUSH1 0x64 PUSH2 0x28C1 JUMP JUMPDEST PUSH1 0x0 DUP9 DUP2 MSTORE PUSH1 0x9 PUSH1 0x20 MSTORE PUSH1 0x40 SWAP1 KECCAK256 PUSH1 0x3 ADD SLOAD PUSH2 0x1CAC SWAP2 SWAP1 PUSH2 0x28A2 JUMP JUMPDEST PUSH2 0x1CB6 SWAP2 SWAP1 PUSH2 0x2882 JUMP JUMPDEST PUSH1 0x0 DUP8 DUP2 MSTORE PUSH1 0x9 PUSH1 0x20 MSTORE PUSH1 0x40 SWAP1 KECCAK256 PUSH1 0x2 ADD SLOAD PUSH2 0x1CD2 SWAP2 SWAP1 PUSH2 0x286A JUMP JUMPDEST SWAP2 POP PUSH1 0x64 PUSH32 0x0 PUSH1 0x1 PUSH1 0x1 PUSH1 0xA0 SHL SUB AND PUSH4 0x55C4A8BF PUSH1 0x40 MLOAD DUP2 PUSH4 0xFFFFFFFF AND PUSH1 0xE0 SHL DUP2 MSTORE PUSH1 0x4 ADD PUSH1 0x20 PUSH1 0x40 MLOAD DUP1 DUP4 SUB DUP2 DUP7 DUP1 EXTCODESIZE ISZERO DUP1 ISZERO PUSH2 0x1D2F JUMPI PUSH1 0x0 DUP1 REVERT JUMPDEST POP GAS STATICCALL ISZERO DUP1 ISZERO PUSH2 0x1D43 JUMPI RETURNDATASIZE PUSH1 0x0 DUP1 RETURNDATACOPY RETURNDATASIZE PUSH1 0x0 REVERT JUMPDEST POP POP POP POP PUSH1 0x40 MLOAD RETURNDATASIZE PUSH1 0x1F NOT PUSH1 0x1F DUP3 ADD AND DUP3 ADD DUP1 PUSH1 0x40 MSTORE POP DUP2 ADD SWAP1 PUSH2 0x1D67 SWAP2 SWAP1 PUSH2 0x279F JUMP JUMPDEST PUSH1 0x0 DUP9 DUP2 MSTORE PUSH1 0x9 PUSH1 0x20 MSTORE PUSH1 0x40 SWAP1 KECCAK256 PUSH1 0x3 ADD SLOAD PUSH2 0x1D83 SWAP2 SWAP1 PUSH2 0x28A2 JUMP JUMPDEST PUSH2 0x1D8D SWAP2 SWAP1 PUSH2 0x2882 JUMP JUMPDEST PUSH1 0x0 DUP8 DUP2 MSTORE PUSH1 0x9 PUSH1 0x20 SWAP1 DUP2 MSTORE PUSH1 0x40 DUP1 DUP4 KECCAK256 SLOAD DUP4 MSTORE PUSH1 0x7 SWAP1 SWAP2 MSTORE SWAP1 KECCAK256 PUSH1 0x1 ADD SLOAD PUSH1 0x1 PUSH1 0x1 PUSH1 0xA0 SHL SUB AND SWAP4 POP SWAP1 POP PUSH2 0x1FCF JUMP JUMPDEST PUSH1 0x3 SLOAD PUSH1 0x2 EQ ISZERO PUSH2 0x1FC2 JUMPI PUSH1 0x0 DUP7 DUP2 MSTORE PUSH1 0x9 PUSH1 0x20 SWAP1 DUP2 MSTORE PUSH1 0x40 DUP1 DUP4 KECCAK256 PUSH1 0x1 ADD SLOAD DUP4 MSTORE PUSH1 0x7 DUP3 MSTORE SWAP2 DUP3 SWAP1 KECCAK256 SLOAD DUP3 MLOAD PUSH4 0x55C4A8BF PUSH1 0xE0 SHL DUP2 MSTORE SWAP3 MLOAD PUSH1 0x1 PUSH1 0x1 PUSH1 0xA0 SHL SUB SWAP2 DUP3 AND SWAP8 POP PUSH1 0x64 SWAP4 PUSH32 0x0 SWAP1 SWAP3 AND SWAP3 PUSH4 0x55C4A8BF SWAP3 PUSH1 0x4 DUP1 DUP3 ADD SWAP4 SWAP2 DUP3 SWAP1 SUB ADD DUP2 DUP7 DUP1 EXTCODESIZE ISZERO DUP1 ISZERO PUSH2 0x1E4D JUMPI PUSH1 0x0 DUP1 REVERT JUMPDEST POP GAS STATICCALL ISZERO DUP1 ISZERO PUSH2 0x1E61 JUMPI RETURNDATASIZE PUSH1 0x0 DUP1 RETURNDATACOPY RETURNDATASIZE PUSH1 0x0 REVERT JUMPDEST POP POP POP POP PUSH1 0x40 MLOAD RETURNDATASIZE PUSH1 0x1F NOT PUSH1 0x1F DUP3 ADD AND DUP3 ADD DUP1 PUSH1 0x40 MSTORE POP DUP2 ADD SWAP1 PUSH2 0x1E85 SWAP2 SWAP1 PUSH2 0x279F JUMP JUMPDEST PUSH2 0x1E90 SWAP1 PUSH1 0x64 PUSH2 0x28C1 JUMP JUMPDEST PUSH1 0x0 DUP9 DUP2 MSTORE PUSH1 0x9 PUSH1 0x20 MSTORE PUSH1 0x40 SWAP1 KECCAK256 PUSH1 0x2 ADD SLOAD PUSH2 0x1EAC SWAP2 SWAP1 PUSH2 0x28A2 JUMP JUMPDEST PUSH2 0x1EB6 SWAP2 SWAP1 PUSH2 0x2882 JUMP JUMPDEST PUSH1 0x0 DUP8 DUP2 MSTORE PUSH1 0x9 PUSH1 0x20 MSTORE PUSH1 0x40 SWAP1 KECCAK256 PUSH1 0x3 ADD SLOAD PUSH2 0x1ED2 SWAP2 SWAP1 PUSH2 0x286A JUMP JUMPDEST SWAP2 POP PUSH1 0x64 PUSH32 0x0 PUSH1 0x1 PUSH1 0x1 PUSH1 0xA0 SHL SUB AND PUSH4 0x55C4A8BF PUSH1 0x40 MLOAD DUP2 PUSH4 0xFFFFFFFF AND PUSH1 0xE0 SHL DUP2 MSTORE PUSH1 0x4 ADD PUSH1 0x20 PUSH1 0x40 MLOAD DUP1 DUP4 SUB DUP2 DUP7 DUP1 EXTCODESIZE ISZERO DUP1 ISZERO PUSH2 0x1F2F JUMPI PUSH1 0x0 DUP1 REVERT JUMPDEST POP GAS STATICCALL ISZERO DUP1 ISZERO PUSH2 0x1F43 JUMPI RETURNDATASIZE PUSH1 0x0 DUP1 RETURNDATACOPY RETURNDATASIZE PUSH1 0x0 REVERT JUMPDEST POP POP POP POP PUSH1 0x40 MLOAD RETURNDATASIZE PUSH1 0x1F NOT PUSH1 0x1F DUP3 ADD AND DUP3 ADD DUP1 PUSH1 0x40 MSTORE POP DUP2 ADD SWAP1 PUSH2 0x1F67 SWAP2 SWAP1 PUSH2 0x279F JUMP JUMPDEST PUSH1 0x0 DUP9 DUP2 MSTORE PUSH1 0x9 PUSH1 0x20 MSTORE PUSH1 0x40 SWAP1 KECCAK256 PUSH1 0x2 ADD SLOAD PUSH2 0x1F83 SWAP2 SWAP1 PUSH2 0x28A2 JUMP JUMPDEST PUSH2 0x1F8D SWAP2 SWAP1 PUSH2 0x2882 JUMP JUMPDEST PUSH1 0x0 DUP8 DUP2 MSTORE PUSH1 0x9 PUSH1 0x20 SWAP1 DUP2 MSTORE PUSH1 0x40 DUP1 DUP4 KECCAK256 PUSH1 0x1 SWAP1 DUP2 ADD SLOAD DUP5 MSTORE PUSH1 0x7 SWAP1 SWAP3 MSTORE SWAP1 SWAP2 KECCAK256 ADD SLOAD PUSH1 0x1 PUSH1 0x1 PUSH1 0xA0 SHL SUB AND SWAP4 POP SWAP1 POP PUSH2 0x1FCF JUMP JUMPDEST PUSH1 0x0 SWAP5 POP POP POP POP POP PUSH2 0x65A JUMP JUMPDEST PUSH1 0x1 PUSH1 0x1 PUSH1 0xA0 SHL SUB DUP5 AND PUSH1 0x0 SWAP1 DUP2 MSTORE PUSH1 0x6 PUSH1 0x20 MSTORE PUSH1 0x40 DUP2 KECCAK256 DUP1 SLOAD DUP5 SWAP3 SWAP1 PUSH2 0x1FF7 SWAP1 DUP5 SWAP1 PUSH2 0x286A JUMP JUMPDEST SWAP3 POP POP DUP2 SWAP1 SSTORE POP PUSH1 0x64 PUSH32 0x0 PUSH1 0x1 PUSH1 0x1 PUSH1 0xA0 SHL SUB AND PUSH4 0x6A0CCD9D PUSH1 0x40 MLOAD DUP2 PUSH4 0xFFFFFFFF AND PUSH1 0xE0 SHL DUP2 MSTORE PUSH1 0x4 ADD PUSH1 0x20 PUSH1 0x40 MLOAD DUP1 DUP4 SUB DUP2 DUP7 DUP1 EXTCODESIZE ISZERO DUP1 ISZERO PUSH2 0x2059 JUMPI PUSH1 0x0 DUP1 REVERT JUMPDEST POP GAS STATICCALL ISZERO DUP1 ISZERO PUSH2 0x206D JUMPI RETURNDATASIZE PUSH1 0x0 DUP1 RETURNDATACOPY RETURNDATASIZE PUSH1 0x0 REVERT JUMPDEST POP POP POP POP PUSH1 0x40 MLOAD RETURNDATASIZE PUSH1 0x1F NOT PUSH1 0x1F DUP3 ADD AND DUP3 ADD DUP1 PUSH1 0x40 MSTORE POP DUP2 ADD SWAP1 PUSH2 0x2091 SWAP2 SWAP1 PUSH2 0x279F JUMP JUMPDEST PUSH2 0x209B SWAP1 DUP4 PUSH2 0x28A2 JUMP JUMPDEST PUSH2 0x20A5 SWAP2 SWAP1 PUSH2 0x2882 JUMP JUMPDEST PUSH1 0x6 PUSH1 0x0 PUSH32 0x0 PUSH1 0x1 PUSH1 0x1 PUSH1 0xA0 SHL SUB AND PUSH4 0xB7640A54 PUSH1 0x40 MLOAD DUP2 PUSH4 0xFFFFFFFF AND PUSH1 0xE0 SHL DUP2 MSTORE PUSH1 0x4 ADD PUSH1 0x20 PUSH1 0x40 MLOAD DUP1 DUP4 SUB DUP2 DUP7 DUP1 EXTCODESIZE ISZERO DUP1 ISZERO PUSH2 0x2102 JUMPI PUSH1 0x0 DUP1 REVERT JUMPDEST POP GAS STATICCALL ISZERO DUP1 ISZERO PUSH2 0x2116 JUMPI RETURNDATASIZE PUSH1 0x0 DUP1 RETURNDATACOPY RETURNDATASIZE PUSH1 0x0 REVERT JUMPDEST POP POP POP POP PUSH1 0x40 MLOAD RETURNDATASIZE PUSH1 0x1F NOT PUSH1 0x1F DUP3 ADD AND DUP3 ADD DUP1 PUSH1 0x40 MSTORE POP DUP2 ADD SWAP1 PUSH2 0x213A SWAP2 SWAP1 PUSH2 0x26E9 JUMP JUMPDEST PUSH1 0x1 PUSH1 0x1 PUSH1 0xA0 SHL SUB AND PUSH1 0x1 PUSH1 0x1 PUSH1 0xA0 SHL SUB AND DUP2 MSTORE PUSH1 0x20 ADD SWAP1 DUP2 MSTORE PUSH1 0x20 ADD PUSH1 0x0 KECCAK256 PUSH1 0x0 DUP3 DUP3 SLOAD PUSH2 0x2169 SWAP2 SWAP1 PUSH2 0x286A JUMP JUMPDEST SWAP3 POP POP DUP2 SWAP1 SSTORE POP PUSH1 0x64 PUSH32 0x0 PUSH1 0x1 PUSH1 0x1 PUSH1 0xA0 SHL SUB AND PUSH4 0x28576D45 PUSH1 0x40 MLOAD DUP2 PUSH4 0xFFFFFFFF AND PUSH1 0xE0 SHL DUP2 MSTORE PUSH1 0x4 ADD PUSH1 0x20 PUSH1 0x40 MLOAD DUP1 DUP4 SUB DUP2 DUP7 DUP1 EXTCODESIZE ISZERO DUP1 ISZERO PUSH2 0x21CB JUMPI PUSH1 0x0 DUP1 REVERT JUMPDEST POP GAS STATICCALL ISZERO DUP1 ISZERO PUSH2 0x21DF JUMPI RETURNDATASIZE PUSH1 0x0 DUP1 RETURNDATACOPY RETURNDATASIZE PUSH1 0x0 REVERT JUMPDEST POP POP POP POP PUSH1 0x40 MLOAD RETURNDATASIZE PUSH1 0x1F NOT PUSH1 0x1F DUP3 ADD AND DUP3 ADD DUP1 PUSH1 0x40 MSTORE POP DUP2 ADD SWAP1 PUSH2 0x2203 SWAP2 SWAP1 PUSH2 0x279F JUMP JUMPDEST PUSH2 0x220D SWAP1 DUP4 PUSH2 0x28A2 JUMP JUMPDEST PUSH2 0x2217 SWAP2 SWAP1 PUSH2 0x2882 JUMP JUMPDEST PUSH1 0x6 PUSH1 0x0 PUSH32 0x0 PUSH1 0x1 PUSH1 0x1 PUSH1 0xA0 SHL SUB AND PUSH4 0x9953B2F PUSH1 0x40 MLOAD DUP2 PUSH4 0xFFFFFFFF AND PUSH1 0xE0 SHL DUP2 MSTORE PUSH1 0x4 ADD PUSH1 0x20 PUSH1 0x40 MLOAD DUP1 DUP4 SUB DUP2 DUP7 DUP1 EXTCODESIZE ISZERO DUP1 ISZERO PUSH2 0x2274 JUMPI PUSH1 0x0 DUP1 REVERT JUMPDEST POP GAS STATICCALL ISZERO DUP1 ISZERO PUSH2 0x2288 JUMPI RETURNDATASIZE PUSH1 0x0 DUP1 RETURNDATACOPY RETURNDATASIZE PUSH1 0x0 REVERT JUMPDEST POP POP POP POP PUSH1 0x40 MLOAD RETURNDATASIZE PUSH1 0x1F NOT PUSH1 0x1F DUP3 ADD AND DUP3 ADD DUP1 PUSH1 0x40 MSTORE POP DUP2 ADD SWAP1 PUSH2 0x22AC SWAP2 SWAP1 PUSH2 0x26E9 JUMP JUMPDEST PUSH1 0x1 PUSH1 0x1 PUSH1 0xA0 SHL SUB AND PUSH1 0x1 PUSH1 0x1 PUSH1 0xA0 SHL SUB AND DUP2 MSTORE PUSH1 0x20 ADD SWAP1 DUP2 MSTORE PUSH1 0x20 ADD PUSH1 0x0 KECCAK256 PUSH1 0x0 DUP3 DUP3 SLOAD PUSH2 0x22DB SWAP2 SWAP1 PUSH2 0x286A JUMP JUMPDEST SWAP3 POP POP DUP2 SWAP1 SSTORE POP PUSH1 0x64 PUSH32 0x0 PUSH1 0x1 PUSH1 0x1 PUSH1 0xA0 SHL SUB AND PUSH4 0x54CD1A5C PUSH1 0x40 MLOAD DUP2 PUSH4 0xFFFFFFFF AND PUSH1 0xE0 SHL DUP2 MSTORE PUSH1 0x4 ADD PUSH1 0x20 PUSH1 0x40 MLOAD DUP1 DUP4 SUB DUP2 DUP7 DUP1 EXTCODESIZE ISZERO DUP1 ISZERO PUSH2 0x233D JUMPI PUSH1 0x0 DUP1 REVERT JUMPDEST POP GAS STATICCALL ISZERO DUP1 ISZERO PUSH2 0x2351 JUMPI RETURNDATASIZE PUSH1 0x0 DUP1 RETURNDATACOPY RETURNDATASIZE PUSH1 0x0 REVERT JUMPDEST POP POP POP POP PUSH1 0x40 MLOAD RETURNDATASIZE PUSH1 0x1F NOT PUSH1 0x1F DUP3 ADD AND DUP3 ADD DUP1 PUSH1 0x40 MSTORE POP DUP2 ADD SWAP1 PUSH2 0x2375 SWAP2 SWAP1 PUSH2 0x279F JUMP JUMPDEST PUSH2 0x237F SWAP1 DUP4 PUSH2 0x28A2 JUMP JUMPDEST PUSH2 0x2389 SWAP2 SWAP1 PUSH2 0x2882 JUMP JUMPDEST PUSH1 0x1 PUSH1 0x1 PUSH1 0xA0 SHL SUB DUP5 AND PUSH1 0x0 SWAP1 DUP2 MSTORE PUSH1 0x6 PUSH1 0x20 MSTORE PUSH1 0x40 DUP2 KECCAK256 DUP1 SLOAD SWAP1 SWAP2 SWAP1 PUSH2 0x23B1 SWAP1 DUP5 SWAP1 PUSH2 0x286A JUMP JUMPDEST SWAP1 SWAP2 SSTORE POP POP POP PUSH1 0x0 SWAP5 DUP6 MSTORE POP POP PUSH1 0x9 PUSH1 0x20 MSTORE POP POP PUSH1 0x40 DUP2 KECCAK256 PUSH1 0x4 ADD DUP1 SLOAD PUSH1 0xFF NOT AND PUSH1 0x1 SWAP1 DUP2 OR SWAP1 SWAP2 SSTORE SWAP1 DUP2 SWAP1 SSTORE SWAP1 JUMP JUMPDEST PUSH1 0x0 DUP1 PUSH1 0x0 JUMPDEST PUSH1 0x5 SLOAD DUP10 SWAP1 ADDRESS SWAP1 DUP4 SWAP1 PUSH2 0x23FB SWAP1 PUSH1 0x1 PUSH2 0x286A JUMP JUMPDEST PUSH2 0x2405 SWAP2 SWAP1 PUSH2 0x286A JUMP JUMPDEST PUSH1 0x40 MLOAD PUSH12 0xFFFFFFFFFFFFFFFFFFFFFFFF NOT PUSH1 0x60 SWAP5 DUP6 SHL DUP2 AND PUSH1 0x20 DUP4 ADD MSTORE SWAP3 SWAP1 SWAP4 SHL SWAP1 SWAP2 AND PUSH1 0x34 DUP4 ADD MSTORE PUSH1 0x48 DUP3 ADD MSTORE TIMESTAMP PUSH1 0x68 DUP3 ADD MSTORE DIFFICULTY PUSH1 0x88 DUP3 ADD MSTORE PUSH1 0xA8 ADD PUSH1 0x40 DUP1 MLOAD PUSH1 0x1F NOT DUP2 DUP5 SUB ADD DUP2 MSTORE SWAP2 DUP2 MSTORE DUP2 MLOAD PUSH1 0x20 SWAP3 DUP4 ADD KECCAK256 PUSH1 0x0 DUP2 DUP2 MSTORE PUSH1 0x7 SWAP1 SWAP4 MSTORE SWAP2 KECCAK256 PUSH1 0x2 ADD SLOAD SWAP1 SWAP3 POP PUSH2 0x2476 JUMPI PUSH2 0x2488 JUMP JUMPDEST DUP1 PUSH2 0x2480 DUP2 PUSH2 0x28D8 JUMP JUMPDEST SWAP2 POP POP PUSH2 0x23E7 JUMP JUMPDEST PUSH1 0x1 PUSH1 0x1 PUSH1 0xA0 SHL SUB DUP9 AND PUSH2 0x252A JUMPI PUSH32 0x0 PUSH1 0x1 PUSH1 0x1 PUSH1 0xA0 SHL SUB AND PUSH4 0x9953B2F PUSH1 0x40 MLOAD DUP2 PUSH4 0xFFFFFFFF AND PUSH1 0xE0 SHL DUP2 MSTORE PUSH1 0x4 ADD PUSH1 0x20 PUSH1 0x40 MLOAD DUP1 DUP4 SUB DUP2 DUP7 DUP1 EXTCODESIZE ISZERO DUP1 ISZERO PUSH2 0x24EF JUMPI PUSH1 0x0 DUP1 REVERT JUMPDEST POP GAS STATICCALL ISZERO DUP1 ISZERO PUSH2 0x2503 JUMPI RETURNDATASIZE PUSH1 0x0 DUP1 RETURNDATACOPY RETURNDATASIZE PUSH1 0x0 REVERT JUMPDEST POP POP POP POP PUSH1 0x40 MLOAD RETURNDATASIZE PUSH1 0x1F NOT PUSH1 0x1F DUP3 ADD AND DUP3 ADD DUP1 PUSH1 0x40 MSTORE POP DUP2 ADD SWAP1 PUSH2 0x2527 SWAP2 SWAP1 PUSH2 0x26E9 JUMP JUMPDEST SWAP8 POP JUMPDEST POP PUSH1 0x40 DUP1 MLOAD PUSH1 0xC0 DUP2 ADD DUP3 MSTORE PUSH1 0x1 PUSH1 0x1 PUSH1 0xA0 SHL SUB SWAP10 DUP11 AND DUP1 DUP3 MSTORE SWAP9 DUP11 AND PUSH1 0x20 DUP1 DUP4 ADD SWAP2 DUP3 MSTORE DUP3 DUP5 ADD SWAP10 DUP11 MSTORE PUSH1 0x60 DUP4 ADD SWAP9 DUP10 MSTORE PUSH1 0x80 DUP4 ADD SWAP8 DUP9 MSTORE PUSH1 0xA0 DUP4 ADD SWAP7 DUP8 MSTORE PUSH1 0x0 DUP6 DUP2 MSTORE PUSH1 0x7 DUP3 MSTORE DUP5 DUP2 KECCAK256 SWAP4 MLOAD DUP5 SLOAD SWAP1 DUP15 AND PUSH1 0x1 PUSH1 0x1 PUSH1 0xA0 SHL SUB NOT SWAP2 DUP3 AND OR DUP6 SSTORE SWAP3 MLOAD PUSH1 0x1 DUP1 DUP7 ADD DUP1 SLOAD SWAP3 SWAP1 SWAP16 AND SWAP2 SWAP1 SWAP5 AND OR SWAP1 SWAP13 SSTORE SWAP9 MLOAD PUSH1 0x2 DUP4 ADD SSTORE SWAP7 MLOAD PUSH1 0x3 DUP3 ADD SSTORE SWAP5 MLOAD PUSH1 0x4 DUP7 ADD SSTORE SWAP3 MLOAD PUSH1 0x5 SWAP5 DUP6 ADD SSTORE DUP4 SLOAD DUP1 DUP7 ADD SWAP1 SWAP5 SSTORE PUSH32 0x36B6384B5ECA791C62761152D0C79BB0604C104A5FB6F4EB0703F3154BB3DB0 SWAP1 SWAP4 ADD DUP4 SWAP1 SSTORE POP SWAP4 DUP6 MSTORE PUSH1 0x8 DUP4 MSTORE SWAP3 DUP5 KECCAK256 DUP1 SLOAD SWAP2 DUP3 ADD DUP2 SSTORE DUP5 MSTORE SWAP3 KECCAK256 SWAP1 SWAP2 ADD DUP2 SWAP1 SSTORE SWAP1 JUMP JUMPDEST PUSH1 0x0 DUP2 DUP2 MSTORE PUSH1 0x9 PUSH1 0x20 SWAP1 DUP2 MSTORE PUSH1 0x40 DUP1 DUP4 KECCAK256 DUP1 SLOAD DUP5 MSTORE PUSH1 0x7 DUP4 MSTORE DUP2 DUP5 KECCAK256 SLOAD PUSH1 0x1 DUP3 ADD SLOAD DUP6 MSTORE DUP3 DUP6 KECCAK256 SLOAD PUSH1 0x2 SWAP1 SWAP3 ADD SLOAD PUSH1 0x1 PUSH1 0x1 PUSH1 0xA0 SHL SUB SWAP2 DUP3 AND DUP1 DUP8 MSTORE PUSH1 0x6 SWAP1 SWAP6 MSTORE SWAP3 DUP6 KECCAK256 DUP1 SLOAD SWAP5 SWAP6 SWAP2 SWAP1 SWAP3 AND SWAP4 PUSH2 0x2663 SWAP1 DUP5 SWAP1 PUSH2 0x286A JUMP JUMPDEST SWAP1 SWAP2 SSTORE POP POP PUSH1 0x0 DUP4 DUP2 MSTORE PUSH1 0x9 PUSH1 0x20 SWAP1 DUP2 MSTORE PUSH1 0x40 DUP1 DUP4 KECCAK256 PUSH1 0x3 ADD SLOAD PUSH1 0x1 PUSH1 0x1 PUSH1 0xA0 SHL SUB DUP6 AND DUP5 MSTORE PUSH1 0x6 SWAP1 SWAP3 MSTORE DUP3 KECCAK256 DUP1 SLOAD SWAP2 SWAP3 SWAP1 SWAP2 PUSH2 0x26A1 SWAP1 DUP5 SWAP1 PUSH2 0x286A JUMP JUMPDEST SWAP1 SWAP2 SSTORE POP POP POP PUSH1 0x0 SWAP2 DUP3 MSTORE POP PUSH1 0x9 PUSH1 0x20 MSTORE PUSH1 0x40 SWAP1 KECCAK256 PUSH1 0x4 ADD DUP1 SLOAD PUSH1 0xFF NOT AND PUSH1 0x1 OR SWAP1 SSTORE JUMP JUMPDEST PUSH1 0x0 PUSH1 0x20 DUP3 DUP5 SUB SLT ISZERO PUSH2 0x26D7 JUMPI DUP1 DUP2 REVERT JUMPDEST DUP2 CALLDATALOAD PUSH2 0x26E2 DUP2 PUSH2 0x2909 JUMP JUMPDEST SWAP4 SWAP3 POP POP POP JUMP JUMPDEST PUSH1 0x0 PUSH1 0x20 DUP3 DUP5 SUB SLT ISZERO PUSH2 0x26FA JUMPI DUP1 DUP2 REVERT JUMPDEST DUP2 MLOAD PUSH2 0x26E2 DUP2 PUSH2 0x2909 JUMP JUMPDEST PUSH1 0x0 DUP1 PUSH1 0x0 DUP1 PUSH1 0x0 DUP1 PUSH1 0xC0 DUP8 DUP10 SUB SLT ISZERO PUSH2 0x271D JUMPI DUP2 DUP3 REVERT JUMPDEST DUP7 CALLDATALOAD PUSH2 0x2728 DUP2 PUSH2 0x2909 JUMP JUMPDEST SWAP6 POP PUSH1 0x20 DUP8 ADD CALLDATALOAD PUSH2 0x2738 DUP2 PUSH2 0x2909 JUMP JUMPDEST SWAP5 POP PUSH1 0x40 DUP8 ADD CALLDATALOAD SWAP4 POP PUSH1 0x60 DUP8 ADD CALLDATALOAD SWAP3 POP PUSH1 0x80 DUP8 ADD CALLDATALOAD SWAP2 POP PUSH1 0xA0 DUP8 ADD CALLDATALOAD PUSH2 0x275D DUP2 PUSH2 0x291E JUMP JUMPDEST DUP1 SWAP2 POP POP SWAP3 SWAP6 POP SWAP3 SWAP6 POP SWAP3 SWAP6 JUMP JUMPDEST PUSH1 0x0 PUSH1 0x20 DUP3 DUP5 SUB SLT ISZERO PUSH2 0x277C JUMPI DUP1 DUP2 REVERT JUMPDEST DUP2 MLOAD PUSH2 0x26E2 DUP2 PUSH2 0x291E JUMP JUMPDEST PUSH1 0x0 PUSH1 0x20 DUP3 DUP5 SUB SLT ISZERO PUSH2 0x2798 JUMPI DUP1 DUP2 REVERT JUMPDEST POP CALLDATALOAD SWAP2 SWAP1 POP JUMP JUMPDEST PUSH1 0x0 PUSH1 0x20 DUP3 DUP5 SUB SLT ISZERO PUSH2 0x27B0 JUMPI DUP1 DUP2 REVERT JUMPDEST POP MLOAD SWAP2 SWAP1 POP JUMP JUMPDEST PUSH1 0x20 DUP1 DUP3 MSTORE DUP3 MLOAD DUP3 DUP3 ADD DUP2 SWAP1 MSTORE PUSH1 0x0 SWAP2 SWAP1 PUSH1 0x40 SWAP1 DUP2 DUP6 ADD SWAP1 DUP7 DUP5 ADD DUP6 JUMPDEST DUP3 DUP2 LT ISZERO PUSH2 0x282E JUMPI DUP2 MLOAD DUP1 MLOAD PUSH1 0x1 PUSH1 0x1 PUSH1 0xA0 SHL SUB SWAP1 DUP2 AND DUP7 MSTORE DUP8 DUP3 ADD MLOAD AND DUP8 DUP7 ADD MSTORE DUP6 DUP2 ADD MLOAD DUP7 DUP7 ADD MSTORE PUSH1 0x60 DUP1 DUP3 ADD MLOAD SWAP1 DUP7 ADD MSTORE PUSH1 0x80 DUP1 DUP3 ADD MLOAD SWAP1 DUP7 ADD MSTORE PUSH1 0xA0 SWAP1 DUP2 ADD MLOAD SWAP1 DUP6 ADD MSTORE PUSH1 0xC0 SWAP1 SWAP4 ADD SWAP3 SWAP1 DUP6 ADD SWAP1 PUSH1 0x1 ADD PUSH2 0x27D4 JUMP JUMPDEST POP SWAP2 SWAP8 SWAP7 POP POP POP POP POP POP POP JUMP JUMPDEST PUSH1 0x20 DUP1 DUP3 MSTORE PUSH1 0x15 SWAP1 DUP3 ADD MSTORE PUSH21 0x18D85B1B195C881B9BDD08185D5D1A1BDC9A5E9959 PUSH1 0x5A SHL PUSH1 0x40 DUP3 ADD MSTORE PUSH1 0x60 ADD SWAP1 JUMP JUMPDEST PUSH1 0x0 DUP3 NOT DUP3 GT ISZERO PUSH2 0x287D JUMPI PUSH2 0x287D PUSH2 0x28F3 JUMP JUMPDEST POP ADD SWAP1 JUMP JUMPDEST PUSH1 0x0 DUP3 PUSH2 0x289D JUMPI PUSH4 0x4E487B71 PUSH1 0xE0 SHL DUP2 MSTORE PUSH1 0x12 PUSH1 0x4 MSTORE PUSH1 0x24 DUP2 REVERT JUMPDEST POP DIV SWAP1 JUMP JUMPDEST PUSH1 0x0 DUP2 PUSH1 0x0 NOT DIV DUP4 GT DUP3 ISZERO ISZERO AND ISZERO PUSH2 0x28BC JUMPI PUSH2 0x28BC PUSH2 0x28F3 JUMP JUMPDEST POP MUL SWAP1 JUMP JUMPDEST PUSH1 0x0 DUP3 DUP3 LT ISZERO PUSH2 0x28D3 JUMPI PUSH2 0x28D3 PUSH2 0x28F3 JUMP JUMPDEST POP SUB SWAP1 JUMP JUMPDEST PUSH1 0x0 PUSH1 0x0 NOT DUP3 EQ ISZERO PUSH2 0x28EC JUMPI PUSH2 0x28EC PUSH2 0x28F3 JUMP JUMPDEST POP PUSH1 0x1 ADD SWAP1 JUMP JUMPDEST PUSH4 0x4E487B71 PUSH1 0xE0 SHL PUSH1 0x0 MSTORE PUSH1 0x11 PUSH1 0x4 MSTORE PUSH1 0x24 PUSH1 0x0 REVERT JUMPDEST PUSH1 0x1 PUSH1 0x1 PUSH1 0xA0 SHL SUB DUP2 AND DUP2 EQ PUSH2 0x241 JUMPI PUSH1 0x0 DUP1 REVERT JUMPDEST DUP1 ISZERO ISZERO DUP2 EQ PUSH2 0x241 JUMPI PUSH1 0x0 DUP1 REVERT INVALID LOG2 PUSH5 0x6970667358 0x22 SLT KECCAK256 SELFBALANCE SHR OR 0xF SWAP9 PC REVERT 0xC3 JUMP STOP 0x2B 0xC6 0xB1 PUSH19 0xBA068A51231879969AB26547DACD1014FB8264 PUSH20 0x6F6C634300080400330000000000000000000000 "
				},
				"gasEstimates": {
					"creation": {
						"codeDepositCost": "2118800",
						"executionCost": "infinite",
						"totalCost": "infinite"
					},
					"external": {
						"addBet(address,address,uint256,uint256,uint256,bool)": "infinite",
						"cancel()": "infinite",
						"cancelBet(bytes32)": "infinite",
						"getBalance(address)": "1330",
						"getUserBets(address)": "infinite",
						"setWinningSide(uint256)": "infinite",
						"settle(uint256)": "infinite",
						"settleBet(bytes32)": "infinite",
						"start()": "infinite",
						"status()": "985",
						"withdraw(address)": "infinite",
						"withdrawPending(bytes32)": "infinite"
					},
					"internal": {
						"_cancelBetPairs(bytes32)": "infinite",
						"_cancelPair(bytes32)": "infinite",
						"_createBet(address,address,uint256,uint256,uint256,uint256)": "infinite",
						"_createPair(bytes32,bytes32,uint256,uint256)": "infinite",
						"_matchBet(bytes32,uint256,uint256,uint256,bool)": "infinite",
						"_settlePair(bytes32)": "infinite"
					}
				},
				"methodIdentifiers": {
					"addBet(address,address,uint256,uint256,uint256,bool)": "78d65b2f",
					"cancel()": "ea8a1af0",
					"cancelBet(bytes32)": "2940ff1e",
					"getBalance(address)": "f8b2cb4f",
					"getUserBets(address)": "2d56657d",
					"setWinningSide(uint256)": "d0ed7295",
					"settle(uint256)": "8df82800",
					"settleBet(bytes32)": "675f6537",
					"start()": "be9a6555",
					"status()": "200d2ed2",
					"withdraw(address)": "51cff8d9",
					"withdrawPending(bytes32)": "7d7f9232"
				}
			},
			"storageLayout": {
				"storage": [
					{
						"astId": 10,
						"contract": "contracts/Market.sol:Market",
						"label": "_status",
						"offset": 0,
						"slot": "0",
						"type": "t_uint256"
					},
					{
						"astId": 128,
						"contract": "contracts/Market.sol:Market",
						"label": "owner",
						"offset": 0,
						"slot": "1",
						"type": "t_address"
					},
					{
						"astId": 130,
						"contract": "contracts/Market.sol:Market",
						"label": "factory",
						"offset": 0,
						"slot": "2",
						"type": "t_address"
					},
					{
						"astId": 134,
						"contract": "contracts/Market.sol:Market",
						"label": "status",
						"offset": 0,
						"slot": "3",
						"type": "t_uint256"
					},
					{
						"astId": 137,
						"contract": "contracts/Market.sol:Market",
						"label": "pairs",
						"offset": 0,
						"slot": "4",
						"type": "t_array(t_bytes32)dyn_storage"
					},
					{
						"astId": 140,
						"contract": "contracts/Market.sol:Market",
						"label": "bets",
						"offset": 0,
						"slot": "5",
						"type": "t_array(t_bytes32)dyn_storage"
					},
					{
						"astId": 144,
						"contract": "contracts/Market.sol:Market",
						"label": "bal",
						"offset": 0,
						"slot": "6",
						"type": "t_mapping(t_address,t_uint256)"
					},
					{
						"astId": 149,
						"contract": "contracts/Market.sol:Market",
						"label": "betsInfo",
						"offset": 0,
						"slot": "7",
						"type": "t_mapping(t_bytes32,t_struct(MarketBet)1920_storage)"
					},
					{
						"astId": 154,
						"contract": "contracts/Market.sol:Market",
						"label": "userBets",
						"offset": 0,
						"slot": "8",
						"type": "t_mapping(t_address,t_array(t_bytes32)dyn_storage)"
					},
					{
						"astId": 159,
						"contract": "contracts/Market.sol:Market",
						"label": "pairsInfo",
						"offset": 0,
						"slot": "9",
						"type": "t_mapping(t_bytes32,t_struct(MarketPair)1907_storage)"
					},
					{
						"astId": 164,
						"contract": "contracts/Market.sol:Market",
						"label": "betPairs",
						"offset": 0,
						"slot": "10",
						"type": "t_mapping(t_bytes32,t_array(t_bytes32)dyn_storage)"
					}
				],
				"types": {
					"t_address": {
						"encoding": "inplace",
						"label": "address",
						"numberOfBytes": "20"
					},
					"t_array(t_bytes32)dyn_storage": {
						"base": "t_bytes32",
						"encoding": "dynamic_array",
						"label": "bytes32[]",
						"numberOfBytes": "32"
					},
					"t_bool": {
						"encoding": "inplace",
						"label": "bool",
						"numberOfBytes": "1"
					},
					"t_bytes32": {
						"encoding": "inplace",
						"label": "bytes32",
						"numberOfBytes": "32"
					},
					"t_mapping(t_address,t_array(t_bytes32)dyn_storage)": {
						"encoding": "mapping",
						"key": "t_address",
						"label": "mapping(address => bytes32[])",
						"numberOfBytes": "32",
						"value": "t_array(t_bytes32)dyn_storage"
					},
					"t_mapping(t_address,t_uint256)": {
						"encoding": "mapping",
						"key": "t_address",
						"label": "mapping(address => uint256)",
						"numberOfBytes": "32",
						"value": "t_uint256"
					},
					"t_mapping(t_bytes32,t_array(t_bytes32)dyn_storage)": {
						"encoding": "mapping",
						"key": "t_bytes32",
						"label": "mapping(bytes32 => bytes32[])",
						"numberOfBytes": "32",
						"value": "t_array(t_bytes32)dyn_storage"
					},
					"t_mapping(t_bytes32,t_struct(MarketBet)1920_storage)": {
						"encoding": "mapping",
						"key": "t_bytes32",
						"label": "mapping(bytes32 => struct Struct.MarketBet)",
						"numberOfBytes": "32",
						"value": "t_struct(MarketBet)1920_storage"
					},
					"t_mapping(t_bytes32,t_struct(MarketPair)1907_storage)": {
						"encoding": "mapping",
						"key": "t_bytes32",
						"label": "mapping(bytes32 => struct Struct.MarketPair)",
						"numberOfBytes": "32",
						"value": "t_struct(MarketPair)1907_storage"
					},
					"t_struct(MarketBet)1920_storage": {
						"encoding": "inplace",
						"label": "struct Struct.MarketBet",
						"members": [
							{
								"astId": 1909,
								"contract": "contracts/Market.sol:Market",
								"label": "better",
								"offset": 0,
								"slot": "0",
								"type": "t_address"
							},
							{
								"astId": 1911,
								"contract": "contracts/Market.sol:Market",
								"label": "affiliate",
								"offset": 0,
								"slot": "1",
								"type": "t_address"
							},
							{
								"astId": 1913,
								"contract": "contracts/Market.sol:Market",
								"label": "stake",
								"offset": 0,
								"slot": "2",
								"type": "t_uint256"
							},
							{
								"astId": 1915,
								"contract": "contracts/Market.sol:Market",
								"label": "matched",
								"offset": 0,
								"slot": "3",
								"type": "t_uint256"
							},
							{
								"astId": 1917,
								"contract": "contracts/Market.sol:Market",
								"label": "odds",
								"offset": 0,
								"slot": "4",
								"type": "t_uint256"
							},
							{
								"astId": 1919,
								"contract": "contracts/Market.sol:Market",
								"label": "side",
								"offset": 0,
								"slot": "5",
								"type": "t_uint256"
							}
						],
						"numberOfBytes": "192"
					},
					"t_struct(MarketPair)1907_storage": {
						"encoding": "inplace",
						"label": "struct Struct.MarketPair",
						"members": [
							{
								"astId": 1898,
								"contract": "contracts/Market.sol:Market",
								"label": "betHashA",
								"offset": 0,
								"slot": "0",
								"type": "t_bytes32"
							},
							{
								"astId": 1900,
								"contract": "contracts/Market.sol:Market",
								"label": "betHashB",
								"offset": 0,
								"slot": "1",
								"type": "t_bytes32"
							},
							{
								"astId": 1902,
								"contract": "contracts/Market.sol:Market",
								"label": "amountA",
								"offset": 0,
								"slot": "2",
								"type": "t_uint256"
							},
							{
								"astId": 1904,
								"contract": "contracts/Market.sol:Market",
								"label": "amountB",
								"offset": 0,
								"slot": "3",
								"type": "t_uint256"
							},
							{
								"astId": 1906,
								"contract": "contracts/Market.sol:Market",
								"label": "settled",
								"offset": 0,
								"slot": "4",
								"type": "t_bool"
							}
						],
						"numberOfBytes": "160"
					},
					"t_uint256": {
						"encoding": "inplace",
						"label": "uint256",
						"numberOfBytes": "32"
					}
				}
			},
			"userdoc": {
				"kind": "user",
				"methods": {},
				"version": 1
			}
		}
	}
}