{
	"contracts/Market.sol": {
		"Market": {
			"abi": [
				{
					"inputs": [
						{
							"internalType": "address",
							"name": "owner_",
							"type": "address"
						}
					],
					"stateMutability": "nonpayable",
					"type": "constructor"
				},
				{
					"anonymous": false,
					"inputs": [
						{
							"indexed": false,
							"internalType": "address",
							"name": "better",
							"type": "address"
						},
						{
							"indexed": false,
							"internalType": "address",
							"name": "marketAddr",
							"type": "address"
						},
						{
							"indexed": false,
							"internalType": "bytes32",
							"name": "hash",
							"type": "bytes32"
						},
						{
							"indexed": false,
							"internalType": "uint256",
							"name": "stake",
							"type": "uint256"
						},
						{
							"indexed": false,
							"internalType": "uint256",
							"name": "odds",
							"type": "uint256"
						},
						{
							"indexed": false,
							"internalType": "uint256",
							"name": "side",
							"type": "uint256"
						}
					],
					"name": "BetCreated",
					"type": "event"
				},
				{
					"anonymous": false,
					"inputs": [
						{
							"indexed": false,
							"internalType": "bytes32",
							"name": "betHashA",
							"type": "bytes32"
						},
						{
							"indexed": false,
							"internalType": "bytes32",
							"name": "betHashB",
							"type": "bytes32"
						},
						{
							"indexed": false,
							"internalType": "uint256",
							"name": "amountA",
							"type": "uint256"
						},
						{
							"indexed": false,
							"internalType": "uint256",
							"name": "amountB",
							"type": "uint256"
						}
					],
					"name": "PairCreated",
					"type": "event"
				},
				{
					"anonymous": false,
					"inputs": [
						{
							"indexed": false,
							"internalType": "address",
							"name": "beneficiary",
							"type": "address"
						},
						{
							"indexed": false,
							"internalType": "uint256",
							"name": "value",
							"type": "uint256"
						}
					],
					"name": "Withdraw",
					"type": "event"
				},
				{
					"inputs": [
						{
							"internalType": "address",
							"name": "_better",
							"type": "address"
						},
						{
							"internalType": "address",
							"name": "_affiliate",
							"type": "address"
						},
						{
							"internalType": "uint256",
							"name": "_stake",
							"type": "uint256"
						},
						{
							"internalType": "uint256",
							"name": "_odds",
							"type": "uint256"
						},
						{
							"internalType": "uint256",
							"name": "_side",
							"type": "uint256"
						},
						{
							"internalType": "bool",
							"name": "_instant",
							"type": "bool"
						}
					],
					"name": "addBet",
					"outputs": [
						{
							"internalType": "bytes32",
							"name": "",
							"type": "bytes32"
						}
					],
					"stateMutability": "nonpayable",
					"type": "function"
				},
				{
					"inputs": [
						{
							"internalType": "bytes32",
							"name": "_bet",
							"type": "bytes32"
						}
					],
					"name": "cancelBet",
					"outputs": [],
					"stateMutability": "nonpayable",
					"type": "function"
				},
				{
					"inputs": [],
					"name": "cancelMarket",
					"outputs": [
						{
							"internalType": "bool",
							"name": "",
							"type": "bool"
						}
					],
					"stateMutability": "nonpayable",
					"type": "function"
				},
				{
					"inputs": [],
					"name": "cashOut",
					"outputs": [],
					"stateMutability": "nonpayable",
					"type": "function"
				},
				{
					"inputs": [
						{
							"internalType": "address",
							"name": "_user",
							"type": "address"
						}
					],
					"name": "getBalance",
					"outputs": [
						{
							"internalType": "uint256",
							"name": "",
							"type": "uint256"
						}
					],
					"stateMutability": "view",
					"type": "function"
				},
				{
					"inputs": [
						{
							"internalType": "address",
							"name": "_user",
							"type": "address"
						}
					],
					"name": "getUserBets",
					"outputs": [
						{
							"components": [
								{
									"internalType": "address",
									"name": "better",
									"type": "address"
								},
								{
									"internalType": "address",
									"name": "affiliate",
									"type": "address"
								},
								{
									"internalType": "uint256",
									"name": "stake",
									"type": "uint256"
								},
								{
									"internalType": "uint256",
									"name": "matched",
									"type": "uint256"
								},
								{
									"internalType": "uint256",
									"name": "odds",
									"type": "uint256"
								},
								{
									"internalType": "uint256",
									"name": "side",
									"type": "uint256"
								}
							],
							"internalType": "struct IMarket.MarketBet[]",
							"name": "",
							"type": "tuple[]"
						}
					],
					"stateMutability": "view",
					"type": "function"
				},
				{
					"inputs": [
						{
							"internalType": "uint256",
							"name": "_winningSide",
							"type": "uint256"
						}
					],
					"name": "settle",
					"outputs": [
						{
							"internalType": "bool",
							"name": "",
							"type": "bool"
						}
					],
					"stateMutability": "nonpayable",
					"type": "function"
				},
				{
					"inputs": [
						{
							"internalType": "bytes32",
							"name": "_bet",
							"type": "bytes32"
						}
					],
					"name": "settleBet",
					"outputs": [],
					"stateMutability": "nonpayable",
					"type": "function"
				},
				{
					"inputs": [],
					"name": "start",
					"outputs": [
						{
							"internalType": "bool",
							"name": "",
							"type": "bool"
						}
					],
					"stateMutability": "nonpayable",
					"type": "function"
				},
				{
					"inputs": [],
					"name": "status",
					"outputs": [
						{
							"internalType": "uint256",
							"name": "",
							"type": "uint256"
						}
					],
					"stateMutability": "view",
					"type": "function"
				},
				{
					"inputs": [
						{
							"internalType": "address",
							"name": "_addr",
							"type": "address"
						}
					],
					"name": "withdraw",
					"outputs": [
						{
							"internalType": "bool",
							"name": "",
							"type": "bool"
						}
					],
					"stateMutability": "nonpayable",
					"type": "function"
				}
			],
			"devdoc": {
				"kind": "dev",
				"methods": {},
				"version": 1
			},
			"evm": {
				"assembly": "    /* \"contracts/Market.sol\":194:12783  contract Market is IMarket, ReentrancyGuard {... */\n  mstore(0x40, 0xc0)\n    /* \"contracts/Market.sol\":439:440  0 */\n  0x00\n    /* \"contracts/Market.sol\":406:440  uint256 public override status = 0 */\n  0x03\n  sstore\n    /* \"contracts/Market.sol\":1192:1199  factory */\n  sload(0x02)\n    /* \"contracts/Market.sol\":1144:1200  IWeb3BetsFO immutable private app = IWeb3BetsFO(factory) */\n  0x60\n  shl\n  not(sub(shl(0x60, 0x01), 0x01))\n  and\n  0xa0\n  mstore\n    /* \"contracts/Market.sol\":1825:1969  constructor(address owner_) {... */\n  callvalue\n  dup1\n  iszero\n  tag_1\n  jumpi\n  0x00\n  dup1\n  revert\ntag_1:\n  pop\n  mload(0x40)\n  sub(codesize, bytecodeSize)\n  dup1\n  bytecodeSize\n  dup4\n  codecopy\n  dup2\n  add\n  0x40\n  dup2\n  swap1\n  mstore\n  tag_2\n  swap2\n  tag_3\n  jump\t// in\ntag_2:\n    /* \"@openzeppelin/contracts/security/ReentrancyGuard.sol\":1701:1702  1 */\n  0x01\n    /* \"@openzeppelin/contracts/security/ReentrancyGuard.sol\":1806:1813  _status */\n  0x00\n    /* \"@openzeppelin/contracts/security/ReentrancyGuard.sol\":1806:1828  _status = _NOT_ENTERED */\n  dup2\n  swap1\n  sstore\n    /* \"contracts/Market.sol\":1863:1877  owner = owner_ */\n  dup1\n  sload\n  not(sub(shl(0xa0, 0x01), 0x01))\n  swap1\n  dup2\n  and\n  sub(shl(0xa0, 0x01), 0x01)\n  dup5\n  and\n  or\n  swap1\n  swap2\n  sstore\n    /* \"contracts/Market.sol\":1887:1894  factory */\n  0x02\n    /* \"contracts/Market.sol\":1887:1907  factory = msg.sender */\n  dup1\n  sload\n    /* \"contracts/Market.sol\":1897:1907  msg.sender */\n  caller\n    /* \"contracts/Market.sol\":1887:1907  factory = msg.sender */\n  swap3\n  and\n  dup3\n  or\n  swap1\n  sstore\n    /* \"contracts/Market.sol\":1932:1961  IWeb3BetsFO(factory).scAddr() */\n  0x40\n  dup1\n  mload\n  shl(0xe3, 0x966ed9)\n  dup2\n  mstore\n  swap1\n  mload\n    /* \"contracts/Market.sol\":1932:1959  IWeb3BetsFO(factory).scAddr */\n  0x04b376c8\n  swap2\n    /* \"contracts/Market.sol\":1932:1961  IWeb3BetsFO(factory).scAddr() */\n  0x04\n  dup1\n  dup3\n  add\n  swap3\n  0x20\n  swap3\n  swap1\n  swap2\n  swap1\n  dup3\n  swap1\n  sub\n  add\n  dup2\n    /* \"contracts/Market.sol\":1897:1907  msg.sender */\n  dup7\n    /* \"contracts/Market.sol\":1932:1961  IWeb3BetsFO(factory).scAddr() */\n  dup1\n  extcodesize\n  iszero\n  dup1\n  iszero\n  tag_8\n  jumpi\n  0x00\n  dup1\n  revert\ntag_8:\n  pop\n  gas\n  staticcall\n  iszero\n  dup1\n  iszero\n  tag_10\n  jumpi\n  returndatasize\n  0x00\n  dup1\n  returndatacopy\n  revert(0x00, returndatasize)\ntag_10:\n  pop\n  pop\n  pop\n  pop\n  mload(0x40)\n  returndatasize\n  not(0x1f)\n  0x1f\n  dup3\n  add\n  and\n  dup3\n  add\n  dup1\n  0x40\n  mstore\n  pop\n  dup2\n  add\n  swap1\n  tag_11\n  swap2\n  swap1\n  tag_3\n  jump\t// in\ntag_11:\n    /* \"contracts/Market.sol\":1917:1962  token = IERC20(IWeb3BetsFO(factory).scAddr()) */\n  0x60\n  shl\n  not(sub(shl(0x60, 0x01), 0x01))\n  and\n  0x80\n  mstore\n  pop\n    /* \"contracts/Market.sol\":194:12783  contract Market is IMarket, ReentrancyGuard {... */\n  jump(tag_13)\n    /* \"#utility.yul\":14:324   */\ntag_3:\n    /* \"#utility.yul\":84:90   */\n  0x00\n    /* \"#utility.yul\":137:139   */\n  0x20\n    /* \"#utility.yul\":125:134   */\n  dup3\n    /* \"#utility.yul\":116:123   */\n  dup5\n    /* \"#utility.yul\":112:135   */\n  sub\n    /* \"#utility.yul\":108:140   */\n  slt\n    /* \"#utility.yul\":105:107   */\n  iszero\n  tag_15\n  jumpi\n    /* \"#utility.yul\":158:164   */\n  dup1\n    /* \"#utility.yul\":150:156   */\n  dup2\n    /* \"#utility.yul\":143:165   */\n  revert\n    /* \"#utility.yul\":105:107   */\ntag_15:\n    /* \"#utility.yul\":189:205   */\n  dup2\n  mload\n  sub(shl(0xa0, 0x01), 0x01)\n    /* \"#utility.yul\":234:265   */\n  dup2\n  and\n    /* \"#utility.yul\":224:266   */\n  dup2\n  eq\n    /* \"#utility.yul\":214:216   */\n  tag_16\n  jumpi\n    /* \"#utility.yul\":285:291   */\n  dup2\n    /* \"#utility.yul\":277:283   */\n  dup3\n    /* \"#utility.yul\":270:292   */\n  revert\n    /* \"#utility.yul\":214:216   */\ntag_16:\n    /* \"#utility.yul\":313:318   */\n  swap4\n    /* \"#utility.yul\":95:324   */\n  swap3\n  pop\n  pop\n  pop\n  jump\t// out\ntag_13:\n    /* \"contracts/Market.sol\":194:12783  contract Market is IMarket, ReentrancyGuard {... */\n  shr(0x60, mload(0x80))\n  shr(0x60, mload(0xa0))\n  codecopy(0x00, dataOffset(sub_0), dataSize(sub_0))\n  0x00\n  assignImmutable(\"0x911a39fbf665a24ad3b6efc185d4b936bbda1900793ae2f7c00f4d18bdd96685\")\n  0x00\n  assignImmutable(\"0xb35cf579f54ccafa8cda334bf8f538b0f7a8230c902d5a84be1ea7996ef7fb49\")\n  return(0x00, dataSize(sub_0))\nstop\n\nsub_0: assembly {\n        /* \"contracts/Market.sol\":194:12783  contract Market is IMarket, ReentrancyGuard {... */\n      mstore(0x40, 0x80)\n      callvalue\n      dup1\n      iszero\n      tag_1\n      jumpi\n      0x00\n      dup1\n      revert\n    tag_1:\n      pop\n      jumpi(tag_2, lt(calldatasize, 0x04))\n      shr(0xe0, calldataload(0x00))\n      dup1\n      0x6bfefd6b\n      gt\n      tag_14\n      jumpi\n      dup1\n      0x6bfefd6b\n      eq\n      tag_8\n      jumpi\n      dup1\n      0x78d65b2f\n      eq\n      tag_9\n      jumpi\n      dup1\n      0x793cd71e\n      eq\n      tag_19\n      jumpi\n      dup1\n      0x8df82800\n      eq\n      tag_11\n      jumpi\n      dup1\n      0xbe9a6555\n      eq\n      tag_12\n      jumpi\n      dup1\n      0xf8b2cb4f\n      eq\n      tag_13\n      jumpi\n      0x00\n      dup1\n      revert\n    tag_14:\n      dup1\n      0x200d2ed2\n      eq\n      tag_3\n      jumpi\n      dup1\n      0x2940ff1e\n      eq\n      tag_4\n      jumpi\n      dup1\n      0x2d56657d\n      eq\n      tag_5\n      jumpi\n      dup1\n      0x51cff8d9\n      eq\n      tag_6\n      jumpi\n      dup1\n      0x675f6537\n      eq\n      tag_7\n      jumpi\n    tag_2:\n      0x00\n      dup1\n      revert\n        /* \"contracts/Market.sol\":406:440  uint256 public override status = 0 */\n    tag_3:\n      tag_15\n      sload(0x03)\n      dup2\n      jump\n    tag_15:\n      mload(0x40)\n        /* \"#utility.yul\":6385:6410   */\n      swap1\n      dup2\n      mstore\n        /* \"#utility.yul\":6373:6375   */\n      0x20\n        /* \"#utility.yul\":6358:6376   */\n      add\n        /* \"contracts/Market.sol\":406:440  uint256 public override status = 0 */\n    tag_17:\n      mload(0x40)\n      dup1\n      swap2\n      sub\n      swap1\n      return\n        /* \"contracts/Market.sol\":2859:3416  function cancelBet(bytes32 _bet) external override {... */\n    tag_4:\n      tag_19\n      tag_20\n      calldatasize\n      0x04\n      tag_21\n      jump\t// in\n    tag_20:\n      tag_22\n      jump\t// in\n    tag_19:\n      stop\n        /* \"contracts/Market.sol\":2090:2440  function getUserBets(address _user) external view override returns(MarketBet[] memory) {... */\n    tag_5:\n      tag_23\n      tag_24\n      calldatasize\n      0x04\n      tag_25\n      jump\t// in\n    tag_24:\n      tag_26\n      jump\t// in\n    tag_23:\n      mload(0x40)\n      tag_17\n      swap2\n      swap1\n      tag_28\n      jump\t// in\n        /* \"contracts/Market.sol\":2446:2851  function withdraw(address _addr) public override nonReentrant returns(bool) {... */\n    tag_6:\n      tag_29\n      tag_30\n      calldatasize\n      0x04\n      tag_25\n      jump\t// in\n    tag_30:\n      tag_31\n      jump\t// in\n    tag_29:\n      mload(0x40)\n        /* \"#utility.yul\":6212:6226   */\n      swap1\n      iszero\n        /* \"#utility.yul\":6205:6227   */\n      iszero\n        /* \"#utility.yul\":6187:6228   */\n      dup2\n      mstore\n        /* \"#utility.yul\":6175:6177   */\n      0x20\n        /* \"#utility.yul\":6160:6178   */\n      add\n        /* \"contracts/Market.sol\":2446:2851  function withdraw(address _addr) public override nonReentrant returns(bool) {... */\n      tag_17\n        /* \"#utility.yul\":6142:6234   */\n      jump\n        /* \"contracts/Market.sol\":3511:3831  function settleBet(bytes32 _bet) external override {... */\n    tag_7:\n      tag_19\n      tag_35\n      calldatasize\n      0x04\n      tag_21\n      jump\t// in\n    tag_35:\n      tag_36\n      jump\t// in\n        /* \"contracts/Market.sol\":4333:4713  function cancelMarket() external override onlyFactory returns(bool) ... */\n    tag_8:\n      tag_29\n      tag_38\n      jump\t// in\n        /* \"contracts/Market.sol\":4927:9131  function addBet(... */\n    tag_9:\n      tag_15\n      tag_41\n      calldatasize\n      0x04\n      tag_42\n      jump\t// in\n    tag_41:\n      tag_43\n      jump\t// in\n        /* \"contracts/Market.sol\":3837:4327  function settle(uint256 _winningSide)... */\n    tag_11:\n      tag_29\n      tag_49\n      calldatasize\n      0x04\n      tag_21\n      jump\t// in\n    tag_49:\n      tag_51\n      jump\t// in\n        /* \"contracts/Market.sol\":4719:4921  function start() external override onlyFactory returns(bool){... */\n    tag_12:\n      tag_29\n      tag_54\n      jump\t// in\n        /* \"contracts/Market.sol\":1975:2084  function getBalance(address _user) external view override returns(uint256) {... */\n    tag_13:\n      tag_15\n      tag_57\n      calldatasize\n      0x04\n      tag_25\n      jump\t// in\n    tag_57:\n      sub(shl(0xa0, 0x01), 0x01)\n        /* \"contracts/Market.sol\":2067:2077  bal[_user] */\n      and\n        /* \"contracts/Market.sol\":2041:2048  uint256 */\n      0x00\n        /* \"contracts/Market.sol\":2067:2077  bal[_user] */\n      swap1\n      dup2\n      mstore\n        /* \"contracts/Market.sol\":2067:2070  bal */\n      0x07\n        /* \"contracts/Market.sol\":2067:2077  bal[_user] */\n      0x20\n      mstore\n      0x40\n      swap1\n      keccak256\n      sload\n      swap1\n        /* \"contracts/Market.sol\":1975:2084  function getBalance(address _user) external view override returns(uint256) {... */\n      jump\n        /* \"contracts/Market.sol\":2859:3416  function cancelBet(bytes32 _bet) external override {... */\n    tag_22:\n        /* \"contracts/Market.sol\":2920:2940  MarketBet memory bet */\n      0x00\n        /* \"contracts/Market.sol\":2943:2957  betsInfo[_bet] */\n      dup2\n      dup2\n      mstore\n        /* \"contracts/Market.sol\":2943:2951  betsInfo */\n      0x08\n        /* \"contracts/Market.sol\":2943:2957  betsInfo[_bet] */\n      0x20\n      swap1\n      dup2\n      mstore\n      0x40\n      swap2\n      dup3\n      swap1\n      keccak256\n        /* \"contracts/Market.sol\":2920:2957  MarketBet memory bet = betsInfo[_bet] */\n      dup3\n      mload\n      0xc0\n      dup2\n      add\n      dup5\n      mstore\n      dup2\n      sload\n      sub(shl(0xa0, 0x01), 0x01)\n      swap1\n      dup2\n      and\n      dup1\n      dup4\n      mstore\n      0x01\n      dup5\n      add\n      sload\n      swap1\n      swap2\n      and\n      swap4\n      dup3\n      add\n      swap4\n      swap1\n      swap4\n      mstore\n      0x02\n      dup3\n      add\n      sload\n      swap4\n      dup2\n      add\n      swap4\n      swap1\n      swap4\n      mstore\n      0x03\n      dup2\n      add\n      sload\n      0x60\n      dup5\n      add\n      mstore\n      0x04\n      dup2\n      add\n      sload\n      0x80\n      dup5\n      add\n      mstore\n      0x05\n      add\n      sload\n      0xa0\n      dup4\n      add\n      mstore\n        /* \"contracts/Market.sol\":2975:2985  msg.sender */\n      caller\n        /* \"contracts/Market.sol\":2975:2999  msg.sender == bet.better */\n      eq\n        /* \"contracts/Market.sol\":2967:3006  require(msg.sender == bet.better, \"M4\") */\n      tag_61\n      jumpi\n      mload(0x40)\n      shl(0xe5, 0x461bcd)\n      dup2\n      mstore\n        /* \"#utility.yul\":8670:8672   */\n      0x20\n        /* \"contracts/Market.sol\":2967:3006  require(msg.sender == bet.better, \"M4\") */\n      0x04\n      dup3\n      add\n        /* \"#utility.yul\":8652:8673   */\n      mstore\n        /* \"#utility.yul\":8709:8710   */\n      0x02\n        /* \"#utility.yul\":8689:8707   */\n      0x24\n      dup3\n      add\n        /* \"#utility.yul\":8682:8711   */\n      mstore\n      shl(0xf2, 0x134d)\n        /* \"#utility.yul\":8727:8745   */\n      0x44\n      dup3\n      add\n        /* \"#utility.yul\":8720:8752   */\n      mstore\n        /* \"#utility.yul\":8769:8787   */\n      0x64\n      add\n        /* \"contracts/Market.sol\":2967:3006  require(msg.sender == bet.better, \"M4\") */\n    tag_62:\n      mload(0x40)\n      dup1\n      swap2\n      sub\n      swap1\n      revert\n    tag_61:\n        /* \"contracts/Market.sol\":3016:3029  uint remStake */\n      0x00\n        /* \"contracts/Market.sol\":3044:3047  bet */\n      dup2\n        /* \"contracts/Market.sol\":3044:3055  bet.matched */\n      0x60\n      add\n      mload\n        /* \"contracts/Market.sol\":3032:3035  bet */\n      dup3\n        /* \"contracts/Market.sol\":3032:3041  bet.stake */\n      0x40\n      add\n      mload\n        /* \"contracts/Market.sol\":3032:3055  bet.stake - bet.matched */\n      tag_64\n      swap2\n      swap1\n      tag_65\n      jump\t// in\n    tag_64:\n        /* \"contracts/Market.sol\":3069:3079  bet.better */\n      dup3\n      mload\n      sub(shl(0xa0, 0x01), 0x01)\n        /* \"contracts/Market.sol\":3065:3080  bal[bet.better] */\n      and\n      0x00\n      swap1\n      dup2\n      mstore\n        /* \"contracts/Market.sol\":3065:3068  bal */\n      0x07\n        /* \"contracts/Market.sol\":3065:3080  bal[bet.better] */\n      0x20\n      mstore\n      0x40\n      dup2\n      keccak256\n        /* \"contracts/Market.sol\":3065:3092  bal[bet.better] += remStake */\n      dup1\n      sload\n        /* \"contracts/Market.sol\":3016:3055  uint remStake = bet.stake - bet.matched */\n      swap3\n      swap4\n      pop\n      dup4\n      swap3\n        /* \"contracts/Market.sol\":3065:3080  bal[bet.better] */\n      swap1\n      swap2\n      swap1\n        /* \"contracts/Market.sol\":3065:3092  bal[bet.better] += remStake */\n      tag_66\n      swap1\n        /* \"contracts/Market.sol\":3016:3055  uint remStake = bet.stake - bet.matched */\n      dup5\n      swap1\n        /* \"contracts/Market.sol\":3065:3092  bal[bet.better] += remStake */\n      tag_67\n      jump\t// in\n    tag_66:\n      swap1\n      swap2\n      sstore\n      pop\n      pop\n        /* \"contracts/Market.sol\":3127:3136  bet.stake */\n      0x40\n      dup1\n      dup4\n      add\n      mload\n        /* \"contracts/Market.sol\":3102:3116  betsInfo[_bet] */\n      0x00\n      dup6\n      dup2\n      mstore\n        /* \"contracts/Market.sol\":3102:3110  betsInfo */\n      0x08\n        /* \"contracts/Market.sol\":3102:3116  betsInfo[_bet] */\n      0x20\n      mstore\n      swap2\n      dup3\n      keccak256\n        /* \"contracts/Market.sol\":3102:3124  betsInfo[_bet].matched */\n      0x03\n      add\n        /* \"contracts/Market.sol\":3102:3136  betsInfo[_bet].matched = bet.stake */\n      sstore\n        /* \"contracts/Market.sol\":3164:3175  pendingBets */\n      0x06\n        /* \"contracts/Market.sol\":3164:3182  pendingBets.length */\n      sload\n      swap1\n        /* \"contracts/Market.sol\":3192:3333  for(uint i = 0; i < betsLength; i++){... */\n    tag_68:\n        /* \"contracts/Market.sol\":3212:3222  betsLength */\n      dup2\n        /* \"contracts/Market.sol\":3208:3209  i */\n      dup2\n        /* \"contracts/Market.sol\":3208:3222  i < betsLength */\n      lt\n        /* \"contracts/Market.sol\":3192:3333  for(uint i = 0; i < betsLength; i++){... */\n      iszero\n      tag_69\n      jumpi\n        /* \"contracts/Market.sol\":3263:3267  _bet */\n      dup5\n        /* \"contracts/Market.sol\":3245:3256  pendingBets */\n      0x06\n        /* \"contracts/Market.sol\":3257:3258  i */\n      dup3\n        /* \"contracts/Market.sol\":3245:3259  pendingBets[i] */\n      dup2\n      sload\n      dup2\n      lt\n      tag_71\n      jumpi\n      mstore(0x00, shl(0xe0, 0x4e487b71))\n      mstore(0x04, 0x32)\n      revert(0x00, 0x24)\n    tag_71:\n      swap1\n      0x00\n      mstore\n      keccak256(0x00, 0x20)\n      add\n      sload\n        /* \"contracts/Market.sol\":3245:3267  pendingBets[i] == _bet */\n      eq\n        /* \"contracts/Market.sol\":3242:3323  if(pendingBets[i] == _bet) {... */\n      iszero\n      tag_73\n      jumpi\n        /* \"contracts/Market.sol\":3294:3305  pendingBets */\n      0x06\n        /* \"contracts/Market.sol\":3306:3307  i */\n      dup2\n        /* \"contracts/Market.sol\":3294:3308  pendingBets[i] */\n      dup2\n      sload\n      dup2\n      lt\n      tag_74\n      jumpi\n      mstore(0x00, shl(0xe0, 0x4e487b71))\n      mstore(0x04, 0x32)\n      revert(0x00, 0x24)\n    tag_74:\n      0x00\n      swap2\n      dup3\n      mstore\n      0x20\n      dup3\n      keccak256\n      add\n        /* \"contracts/Market.sol\":3287:3308  delete pendingBets[i] */\n      sstore\n        /* \"contracts/Market.sol\":3242:3323  if(pendingBets[i] == _bet) {... */\n    tag_73:\n        /* \"contracts/Market.sol\":3224:3227  i++ */\n      dup1\n      tag_76\n      dup2\n      tag_77\n      jump\t// in\n    tag_76:\n      swap2\n      pop\n      pop\n        /* \"contracts/Market.sol\":3192:3333  for(uint i = 0; i < betsLength; i++){... */\n      jump(tag_68)\n    tag_69:\n      pop\n        /* \"contracts/Market.sol\":3349:3359  msg.sender */\n      caller\n        /* \"contracts/Market.sol\":3363:3364  0 */\n      0x00\n        /* \"contracts/Market.sol\":3345:3360  bal[msg.sender] */\n      swap1\n      dup2\n      mstore\n        /* \"contracts/Market.sol\":3345:3348  bal */\n      0x07\n        /* \"contracts/Market.sol\":3345:3360  bal[msg.sender] */\n      0x20\n      mstore\n      0x40\n      swap1\n      keccak256\n      sload\n        /* \"contracts/Market.sol\":3345:3364  bal[msg.sender] > 0 */\n      iszero\n        /* \"contracts/Market.sol\":3342:3410  if(bal[msg.sender] > 0){... */\n      tag_78\n      jumpi\n        /* \"contracts/Market.sol\":3379:3399  withdraw(msg.sender) */\n      tag_79\n        /* \"contracts/Market.sol\":3388:3398  msg.sender */\n      caller\n        /* \"contracts/Market.sol\":3379:3387  withdraw */\n      tag_31\n        /* \"contracts/Market.sol\":3379:3399  withdraw(msg.sender) */\n      jump\t// in\n    tag_79:\n      pop\n        /* \"contracts/Market.sol\":3342:3410  if(bal[msg.sender] > 0){... */\n    tag_78:\n        /* \"contracts/Market.sol\":2859:3416  function cancelBet(bytes32 _bet) external override {... */\n      pop\n      pop\n      pop\n      pop\n      jump\t// out\n        /* \"contracts/Market.sol\":2090:2440  function getUserBets(address _user) external view override returns(MarketBet[] memory) {... */\n    tag_26:\n      sub(shl(0xa0, 0x01), 0x01)\n        /* \"contracts/Market.sol\":2250:2265  userBets[_user] */\n      dup2\n      and\n        /* \"contracts/Market.sol\":2225:2247  bytes32[] memory _bets */\n      0x00\n        /* \"contracts/Market.sol\":2250:2265  userBets[_user] */\n      swap1\n      dup2\n      mstore\n        /* \"contracts/Market.sol\":2250:2258  userBets */\n      0x09\n        /* \"contracts/Market.sol\":2250:2265  userBets[_user] */\n      0x20\n      swap1\n      dup2\n      mstore\n      0x40\n      dup1\n      dup4\n      keccak256\n        /* \"contracts/Market.sol\":2225:2265  bytes32[] memory _bets = userBets[_user] */\n      dup1\n      sload\n      dup3\n      mload\n      dup2\n      dup6\n      mul\n      dup2\n      add\n      dup6\n      add\n      swap1\n      swap4\n      mstore\n      dup1\n      dup4\n      mstore\n        /* \"contracts/Market.sol\":2157:2175  MarketBet[] memory */\n      0x60\n      swap5\n      dup6\n      swap5\n        /* \"contracts/Market.sol\":2225:2247  bytes32[] memory _bets */\n      swap1\n      swap4\n        /* \"contracts/Market.sol\":2225:2265  bytes32[] memory _bets = userBets[_user] */\n      swap3\n        /* \"contracts/Market.sol\":2250:2265  userBets[_user] */\n      swap2\n        /* \"contracts/Market.sol\":2225:2265  bytes32[] memory _bets = userBets[_user] */\n      swap1\n      dup4\n      add\n        /* \"contracts/Market.sol\":2250:2265  userBets[_user] */\n      dup3\n        /* \"contracts/Market.sol\":2225:2265  bytes32[] memory _bets = userBets[_user] */\n      dup3\n      dup1\n      iszero\n      tag_81\n      jumpi\n      0x20\n      mul\n      dup3\n      add\n      swap2\n      swap1\n      0x00\n      mstore\n      keccak256(0x00, 0x20)\n      swap1\n    tag_82:\n      dup2\n      sload\n      dup2\n      mstore\n      0x20\n      add\n      swap1\n      0x01\n      add\n      swap1\n      dup1\n      dup4\n      gt\n      tag_82\n      jumpi\n    tag_81:\n      pop\n      pop\n        /* \"contracts/Market.sol\":2293:2297  bets */\n      0x05\n        /* \"contracts/Market.sol\":2293:2304  bets.length */\n      sload\n        /* \"contracts/Market.sol\":2225:2265  bytes32[] memory _bets = userBets[_user] */\n      swap4\n      swap5\n      pop\n        /* \"contracts/Market.sol\":2275:2290  uint betsLength */\n      0x00\n      swap3\n      pop\n      pop\n      pop\n        /* \"contracts/Market.sol\":2314:2408  for(uint i = 0; i < betsLength; i++){... */\n    tag_83:\n        /* \"contracts/Market.sol\":2334:2344  betsLength */\n      dup2\n        /* \"contracts/Market.sol\":2330:2331  i */\n      dup2\n        /* \"contracts/Market.sol\":2330:2344  i < betsLength */\n      lt\n        /* \"contracts/Market.sol\":2314:2408  for(uint i = 0; i < betsLength; i++){... */\n      iszero\n      tag_84\n      jumpi\n        /* \"contracts/Market.sol\":2379:2387  betsInfo */\n      0x08\n        /* \"contracts/Market.sol\":2379:2397  betsInfo[_bets[i]] */\n      0x00\n        /* \"contracts/Market.sol\":2388:2393  _bets */\n      dup5\n        /* \"contracts/Market.sol\":2394:2395  i */\n      dup4\n        /* \"contracts/Market.sol\":2388:2396  _bets[i] */\n      dup2\n      mload\n      dup2\n      lt\n      tag_86\n      jumpi\n      mstore(0x00, shl(0xe0, 0x4e487b71))\n      mstore(0x04, 0x32)\n      revert(0x00, 0x24)\n    tag_86:\n      0x20\n      swap1\n      dup2\n      mul\n      swap2\n      swap1\n      swap2\n      add\n      dup2\n      add\n      mload\n        /* \"contracts/Market.sol\":2379:2397  betsInfo[_bets[i]] */\n      dup3\n      mstore\n      dup2\n      dup2\n      add\n      swap3\n      swap1\n      swap3\n      mstore\n      0x40\n      swap1\n      dup2\n      add\n      0x00\n      keccak256\n        /* \"contracts/Market.sol\":2364:2397  _userBets[i] = betsInfo[_bets[i]] */\n      dup2\n      mload\n      0xc0\n      dup2\n      add\n      dup4\n      mstore\n      dup2\n      sload\n      sub(shl(0xa0, 0x01), 0x01)\n      swap1\n      dup2\n      and\n      dup3\n      mstore\n      0x01\n      dup4\n      add\n      sload\n      and\n      swap4\n      dup2\n      add\n      swap4\n      swap1\n      swap4\n      mstore\n      0x02\n      dup2\n      add\n      sload\n      swap2\n      dup4\n      add\n      swap2\n      swap1\n      swap2\n      mstore\n      0x03\n      dup2\n      add\n      sload\n      0x60\n      dup4\n      add\n      mstore\n      0x04\n      dup2\n      add\n      sload\n      0x80\n      dup4\n      add\n      mstore\n      0x05\n      add\n      sload\n      0xa0\n      dup3\n      add\n      mstore\n        /* \"contracts/Market.sol\":2364:2376  _userBets[i] */\n      dup5\n      mload\n        /* \"contracts/Market.sol\":2364:2373  _userBets */\n      dup6\n      swap1\n        /* \"contracts/Market.sol\":2374:2375  i */\n      dup4\n      swap1\n        /* \"contracts/Market.sol\":2364:2376  _userBets[i] */\n      dup2\n      lt\n      tag_87\n      jumpi\n      mstore(0x00, shl(0xe0, 0x4e487b71))\n      mstore(0x04, 0x32)\n      revert(0x00, 0x24)\n    tag_87:\n      0x20\n      mul\n      0x20\n      add\n      add\n        /* \"contracts/Market.sol\":2364:2397  _userBets[i] = betsInfo[_bets[i]] */\n      dup2\n      swap1\n      mstore\n      pop\n        /* \"contracts/Market.sol\":2346:2349  i++ */\n      dup1\n      dup1\n      tag_88\n      swap1\n      tag_77\n      jump\t// in\n    tag_88:\n      swap2\n      pop\n      pop\n        /* \"contracts/Market.sol\":2314:2408  for(uint i = 0; i < betsLength; i++){... */\n      jump(tag_83)\n    tag_84:\n      pop\n        /* \"contracts/Market.sol\":2424:2433  _userBets */\n      swap2\n      swap5\n        /* \"contracts/Market.sol\":2090:2440  function getUserBets(address _user) external view override returns(MarketBet[] memory) {... */\n      swap4\n      pop\n      pop\n      pop\n      pop\n      jump\t// out\n        /* \"contracts/Market.sol\":2446:2851  function withdraw(address _addr) public override nonReentrant returns(bool) {... */\n    tag_31:\n        /* \"contracts/Market.sol\":2516:2520  bool */\n      0x00\n        /* \"@openzeppelin/contracts/security/ReentrancyGuard.sol\":1744:1745  2 */\n      0x02\n        /* \"@openzeppelin/contracts/security/ReentrancyGuard.sol\":2325:2332  _status */\n      sload(0x00)\n        /* \"@openzeppelin/contracts/security/ReentrancyGuard.sol\":2325:2344  _status != _ENTERED */\n      eq\n      iszero\n        /* \"@openzeppelin/contracts/security/ReentrancyGuard.sol\":2317:2380  require(_status != _ENTERED, \"ReentrancyGuard: reentrant call\") */\n      tag_90\n      jumpi\n      mload(0x40)\n      shl(0xe5, 0x461bcd)\n      dup2\n      mstore\n        /* \"#utility.yul\":9330:9332   */\n      0x20\n        /* \"@openzeppelin/contracts/security/ReentrancyGuard.sol\":2317:2380  require(_status != _ENTERED, \"ReentrancyGuard: reentrant call\") */\n      0x04\n      dup3\n      add\n        /* \"#utility.yul\":9312:9333   */\n      mstore\n        /* \"#utility.yul\":9369:9371   */\n      0x1f\n        /* \"#utility.yul\":9349:9367   */\n      0x24\n      dup3\n      add\n        /* \"#utility.yul\":9342:9372   */\n      mstore\n        /* \"#utility.yul\":9408:9441   */\n      0x5265656e7472616e637947756172643a207265656e7472616e742063616c6c00\n        /* \"#utility.yul\":9388:9406   */\n      0x44\n      dup3\n      add\n        /* \"#utility.yul\":9381:9442   */\n      mstore\n        /* \"#utility.yul\":9459:9477   */\n      0x64\n      add\n        /* \"@openzeppelin/contracts/security/ReentrancyGuard.sol\":2317:2380  require(_status != _ENTERED, \"ReentrancyGuard: reentrant call\") */\n      tag_62\n        /* \"#utility.yul\":9302:9483   */\n      jump\n        /* \"@openzeppelin/contracts/security/ReentrancyGuard.sol\":2317:2380  require(_status != _ENTERED, \"ReentrancyGuard: reentrant call\") */\n    tag_90:\n        /* \"@openzeppelin/contracts/security/ReentrancyGuard.sol\":1744:1745  2 */\n      0x02\n        /* \"@openzeppelin/contracts/security/ReentrancyGuard.sol\":2455:2462  _status */\n      0x00\n        /* \"@openzeppelin/contracts/security/ReentrancyGuard.sol\":2455:2473  _status = _ENTERED */\n      swap1\n      dup2\n      sstore\n      sub(shl(0xa0, 0x01), 0x01)\n        /* \"contracts/Market.sol\":2554:2564  bal[_addr] */\n      dup4\n      dup2\n      and\n      dup3\n      mstore\n        /* \"contracts/Market.sol\":2554:2557  bal */\n      0x07\n        /* \"contracts/Market.sol\":2554:2564  bal[_addr] */\n      0x20\n      mstore\n      0x40\n      swap2\n      dup3\n      swap1\n      keccak256\n      sload\n        /* \"contracts/Market.sol\":2582:2612  token.balanceOf(address(this)) */\n      swap2\n      mload\n      shl(0xe0, 0x70a08231)\n      dup2\n      mstore\n        /* \"contracts/Market.sol\":2606:2610  this */\n      address\n        /* \"contracts/Market.sol\":2582:2612  token.balanceOf(address(this)) */\n      0x04\n      dup3\n      add\n        /* \"#utility.yul\":3266:3317   */\n      mstore\n        /* \"contracts/Market.sol\":2554:2564  bal[_addr] */\n      dup3\n      swap2\n        /* \"contracts/Market.sol\":2582:2587  token */\n      immutable(\"0xb35cf579f54ccafa8cda334bf8f538b0f7a8230c902d5a84be1ea7996ef7fb49\")\n        /* \"contracts/Market.sol\":2582:2597  token.balanceOf */\n      and\n      swap1\n      0x70a08231\n      swap1\n        /* \"#utility.yul\":3239:3257   */\n      0x24\n      add\n        /* \"contracts/Market.sol\":2582:2612  token.balanceOf(address(this)) */\n      0x20\n      mload(0x40)\n      dup1\n      dup4\n      sub\n      dup2\n      dup7\n      dup1\n      extcodesize\n      iszero\n      dup1\n      iszero\n      tag_96\n      jumpi\n      0x00\n      dup1\n      revert\n    tag_96:\n      pop\n      gas\n      staticcall\n      iszero\n      dup1\n      iszero\n      tag_98\n      jumpi\n      returndatasize\n      0x00\n      dup1\n      returndatacopy\n      revert(0x00, returndatasize)\n    tag_98:\n      pop\n      pop\n      pop\n      pop\n      mload(0x40)\n      returndatasize\n      not(0x1f)\n      0x1f\n      dup3\n      add\n      and\n      dup3\n      add\n      dup1\n      0x40\n      mstore\n      pop\n      dup2\n      add\n      swap1\n      tag_99\n      swap2\n      swap1\n      tag_100\n      jump\t// in\n    tag_99:\n        /* \"contracts/Market.sol\":2582:2627  token.balanceOf(address(this)) >= availAmount */\n      lt\n      iszero\n        /* \"contracts/Market.sol\":2582:2646  token.balanceOf(address(this)) >= availAmount && availAmount > 0 */\n      dup1\n      iszero\n      tag_101\n      jumpi\n      pop\n        /* \"contracts/Market.sol\":2645:2646  0 */\n      0x00\n        /* \"contracts/Market.sol\":2631:2642  availAmount */\n      dup2\n        /* \"contracts/Market.sol\":2631:2646  availAmount > 0 */\n      gt\n        /* \"contracts/Market.sol\":2582:2646  token.balanceOf(address(this)) >= availAmount && availAmount > 0 */\n    tag_101:\n        /* \"contracts/Market.sol\":2574:2653  require(token.balanceOf(address(this)) >= availAmount && availAmount > 0, \"M2\") */\n      tag_102\n      jumpi\n      mload(0x40)\n      shl(0xe5, 0x461bcd)\n      dup2\n      mstore\n        /* \"#utility.yul\":9000:9002   */\n      0x20\n        /* \"contracts/Market.sol\":2574:2653  require(token.balanceOf(address(this)) >= availAmount && availAmount > 0, \"M2\") */\n      0x04\n      dup3\n      add\n        /* \"#utility.yul\":8982:9003   */\n      mstore\n        /* \"#utility.yul\":9039:9040   */\n      0x02\n        /* \"#utility.yul\":9019:9037   */\n      0x24\n      dup3\n      add\n        /* \"#utility.yul\":9012:9041   */\n      mstore\n      shl(0xf1, 0x2699)\n        /* \"#utility.yul\":9057:9075   */\n      0x44\n      dup3\n      add\n        /* \"#utility.yul\":9050:9082   */\n      mstore\n        /* \"#utility.yul\":9099:9117   */\n      0x64\n      add\n        /* \"contracts/Market.sol\":2574:2653  require(token.balanceOf(address(this)) >= availAmount && availAmount > 0, \"M2\") */\n      tag_62\n        /* \"#utility.yul\":8972:9123   */\n      jump\n        /* \"contracts/Market.sol\":2574:2653  require(token.balanceOf(address(this)) >= availAmount && availAmount > 0, \"M2\") */\n    tag_102:\n      sub(shl(0xa0, 0x01), 0x01)\n        /* \"contracts/Market.sol\":2663:2673  bal[_addr] */\n      dup4\n      and\n      0x00\n      swap1\n      dup2\n      mstore\n        /* \"contracts/Market.sol\":2663:2666  bal */\n      0x07\n        /* \"contracts/Market.sol\":2663:2673  bal[_addr] */\n      0x20\n      mstore\n      0x40\n      dup2\n      keccak256\n        /* \"contracts/Market.sol\":2663:2688  bal[_addr] -= availAmount */\n      dup1\n      sload\n        /* \"contracts/Market.sol\":2677:2688  availAmount */\n      dup4\n      swap3\n        /* \"contracts/Market.sol\":2663:2673  bal[_addr] */\n      swap1\n        /* \"contracts/Market.sol\":2663:2688  bal[_addr] -= availAmount */\n      tag_105\n      swap1\n        /* \"contracts/Market.sol\":2677:2688  availAmount */\n      dup5\n      swap1\n        /* \"contracts/Market.sol\":2663:2688  bal[_addr] -= availAmount */\n      tag_65\n      jump\t// in\n    tag_105:\n      swap1\n      swap2\n      sstore\n      pop\n      pop\n        /* \"contracts/Market.sol\":2713:2747  token.transfer(_addr, availAmount) */\n      mload(0x40)\n      shl(0xe0, 0xa9059cbb)\n      dup2\n      mstore\n      sub(shl(0xa0, 0x01), 0x01)\n        /* \"#utility.yul\":4805:4837   */\n      dup5\n      dup2\n      and\n        /* \"contracts/Market.sol\":2713:2747  token.transfer(_addr, availAmount) */\n      0x04\n      dup4\n      add\n        /* \"#utility.yul\":4787:4838   */\n      mstore\n        /* \"#utility.yul\":4854:4872   */\n      0x24\n      dup3\n      add\n        /* \"#utility.yul\":4847:4881   */\n      dup4\n      swap1\n      mstore\n        /* \"contracts/Market.sol\":2698:2710  bool success */\n      0x00\n      swap2\n        /* \"contracts/Market.sol\":2713:2718  token */\n      immutable(\"0xb35cf579f54ccafa8cda334bf8f538b0f7a8230c902d5a84be1ea7996ef7fb49\")\n        /* \"contracts/Market.sol\":2713:2727  token.transfer */\n      swap1\n      swap2\n      and\n      swap1\n      0xa9059cbb\n      swap1\n        /* \"#utility.yul\":4760:4778   */\n      0x44\n      add\n        /* \"contracts/Market.sol\":2713:2747  token.transfer(_addr, availAmount) */\n      0x20\n      mload(0x40)\n      dup1\n      dup4\n      sub\n      dup2\n      0x00\n      dup8\n      dup1\n      extcodesize\n      iszero\n      dup1\n      iszero\n      tag_108\n      jumpi\n      0x00\n      dup1\n      revert\n    tag_108:\n      pop\n      gas\n      call\n      iszero\n      dup1\n      iszero\n      tag_110\n      jumpi\n      returndatasize\n      0x00\n      dup1\n      returndatacopy\n      revert(0x00, returndatasize)\n    tag_110:\n      pop\n      pop\n      pop\n      pop\n      mload(0x40)\n      returndatasize\n      not(0x1f)\n      0x1f\n      dup3\n      add\n      and\n      dup3\n      add\n      dup1\n      0x40\n      mstore\n      pop\n      dup2\n      add\n      swap1\n      tag_111\n      swap2\n      swap1\n      tag_112\n      jump\t// in\n    tag_111:\n        /* \"contracts/Market.sol\":2698:2747  bool success = token.transfer(_addr, availAmount) */\n      swap1\n      pop\n        /* \"contracts/Market.sol\":2765:2772  success */\n      dup1\n        /* \"contracts/Market.sol\":2757:2779  require(success, \"M3\") */\n      tag_113\n      jumpi\n      mload(0x40)\n      shl(0xe5, 0x461bcd)\n      dup2\n      mstore\n        /* \"#utility.yul\":7349:7351   */\n      0x20\n        /* \"contracts/Market.sol\":2757:2779  require(success, \"M3\") */\n      0x04\n      dup3\n      add\n        /* \"#utility.yul\":7331:7352   */\n      mstore\n        /* \"#utility.yul\":7388:7389   */\n      0x02\n        /* \"#utility.yul\":7368:7386   */\n      0x24\n      dup3\n      add\n        /* \"#utility.yul\":7361:7390   */\n      mstore\n      shl(0xf0, 0x4d33)\n        /* \"#utility.yul\":7406:7424   */\n      0x44\n      dup3\n      add\n        /* \"#utility.yul\":7399:7431   */\n      mstore\n        /* \"#utility.yul\":7448:7466   */\n      0x64\n      add\n        /* \"contracts/Market.sol\":2757:2779  require(success, \"M3\") */\n      tag_62\n        /* \"#utility.yul\":7321:7472   */\n      jump\n        /* \"contracts/Market.sol\":2757:2779  require(success, \"M3\") */\n    tag_113:\n        /* \"contracts/Market.sol\":2795:2823  Withdraw(_addr, availAmount) */\n      0x40\n      dup1\n      mload\n      sub(shl(0xa0, 0x01), 0x01)\n        /* \"#utility.yul\":4805:4837   */\n      dup7\n      and\n        /* \"#utility.yul\":4787:4838   */\n      dup2\n      mstore\n        /* \"#utility.yul\":4869:4871   */\n      0x20\n        /* \"#utility.yul\":4854:4872   */\n      dup2\n      add\n        /* \"#utility.yul\":4847:4881   */\n      dup5\n      swap1\n      mstore\n        /* \"contracts/Market.sol\":2795:2823  Withdraw(_addr, availAmount) */\n      0x884edad9ce6fa2440d8a54cc123490eb96d2768479d49ff9c7366125a9424364\n      swap2\n        /* \"#utility.yul\":4760:4778   */\n      add\n        /* \"contracts/Market.sol\":2795:2823  Withdraw(_addr, availAmount) */\n      mload(0x40)\n      dup1\n      swap2\n      sub\n      swap1\n      log1\n        /* \"contracts/Market.sol\":2840:2844  true */\n      0x01\n        /* \"contracts/Market.sol\":2833:2844  return true */\n      swap3\n      pop\n      pop\n      pop\n        /* \"@openzeppelin/contracts/security/ReentrancyGuard.sol\":2484:2485  _ */\n    tag_93:\n        /* \"@openzeppelin/contracts/security/ReentrancyGuard.sol\":1701:1702  1 */\n      0x01\n        /* \"@openzeppelin/contracts/security/ReentrancyGuard.sol\":2628:2635  _status */\n      0x00\n        /* \"@openzeppelin/contracts/security/ReentrancyGuard.sol\":2628:2650  _status = _NOT_ENTERED */\n      sstore\n        /* \"contracts/Market.sol\":2446:2851  function withdraw(address _addr) public override nonReentrant returns(bool) {... */\n      swap2\n      swap1\n      pop\n      jump\t// out\n        /* \"contracts/Market.sol\":3511:3831  function settleBet(bytes32 _bet) external override {... */\n    tag_36:\n        /* \"contracts/Market.sol\":3572:3595  bytes32[] memory _pairs */\n      0x00\n        /* \"contracts/Market.sol\":3598:3612  betPairs[_bet] */\n      dup2\n      dup2\n      mstore\n        /* \"contracts/Market.sol\":3598:3606  betPairs */\n      0x0b\n        /* \"contracts/Market.sol\":3598:3612  betPairs[_bet] */\n      0x20\n      swap1\n      dup2\n      mstore\n      0x40\n      dup1\n      dup4\n      keccak256\n        /* \"contracts/Market.sol\":3572:3612  bytes32[] memory _pairs = betPairs[_bet] */\n      dup1\n      sload\n      dup3\n      mload\n      dup2\n      dup6\n      mul\n      dup2\n      add\n      dup6\n      add\n      swap1\n      swap4\n      mstore\n      dup1\n      dup4\n      mstore\n      swap2\n      swap3\n        /* \"contracts/Market.sol\":3598:3612  betPairs[_bet] */\n      swap1\n      swap2\n        /* \"contracts/Market.sol\":3572:3612  bytes32[] memory _pairs = betPairs[_bet] */\n      swap1\n      dup4\n      add\n        /* \"contracts/Market.sol\":3598:3612  betPairs[_bet] */\n      dup3\n        /* \"contracts/Market.sol\":3572:3612  bytes32[] memory _pairs = betPairs[_bet] */\n      dup3\n      dup1\n      iszero\n      tag_118\n      jumpi\n      0x20\n      mul\n      dup3\n      add\n      swap2\n      swap1\n      0x00\n      mstore\n      keccak256(0x00, 0x20)\n      swap1\n    tag_119:\n      dup2\n      sload\n      dup2\n      mstore\n      0x20\n      add\n      swap1\n      0x01\n      add\n      swap1\n      dup1\n      dup4\n      gt\n      tag_119\n      jumpi\n    tag_118:\n      pop\n      pop\n        /* \"contracts/Market.sol\":3641:3654  _pairs.length */\n      dup4\n      mload\n        /* \"contracts/Market.sol\":3572:3612  bytes32[] memory _pairs = betPairs[_bet] */\n      swap4\n      swap5\n      pop\n        /* \"contracts/Market.sol\":3622:3638  uint pairsLength */\n      0x00\n      swap3\n      pop\n      pop\n      pop\n        /* \"contracts/Market.sol\":3664:3748  for(uint i = 0; i < pairsLength; i++){... */\n    tag_120:\n        /* \"contracts/Market.sol\":3684:3695  pairsLength */\n      dup2\n        /* \"contracts/Market.sol\":3680:3681  i */\n      dup2\n        /* \"contracts/Market.sol\":3680:3695  i < pairsLength */\n      lt\n        /* \"contracts/Market.sol\":3664:3748  for(uint i = 0; i < pairsLength; i++){... */\n      iszero\n      tag_121\n      jumpi\n        /* \"contracts/Market.sol\":3715:3737  _settlePair(_pairs[i]) */\n      tag_123\n        /* \"contracts/Market.sol\":3727:3733  _pairs */\n      dup4\n        /* \"contracts/Market.sol\":3734:3735  i */\n      dup3\n        /* \"contracts/Market.sol\":3727:3736  _pairs[i] */\n      dup2\n      mload\n      dup2\n      lt\n      tag_124\n      jumpi\n      mstore(0x00, shl(0xe0, 0x4e487b71))\n      mstore(0x04, 0x32)\n      revert(0x00, 0x24)\n    tag_124:\n      0x20\n      mul\n      0x20\n      add\n      add\n      mload\n        /* \"contracts/Market.sol\":3715:3726  _settlePair */\n      tag_125\n        /* \"contracts/Market.sol\":3715:3737  _settlePair(_pairs[i]) */\n      jump\t// in\n    tag_123:\n      pop\n        /* \"contracts/Market.sol\":3697:3700  i++ */\n      dup1\n      tag_126\n      dup2\n      tag_77\n      jump\t// in\n    tag_126:\n      swap2\n      pop\n      pop\n        /* \"contracts/Market.sol\":3664:3748  for(uint i = 0; i < pairsLength; i++){... */\n      jump(tag_120)\n    tag_121:\n      pop\n        /* \"contracts/Market.sol\":3764:3774  msg.sender */\n      caller\n        /* \"contracts/Market.sol\":3778:3779  0 */\n      0x00\n        /* \"contracts/Market.sol\":3760:3775  bal[msg.sender] */\n      swap1\n      dup2\n      mstore\n        /* \"contracts/Market.sol\":3760:3763  bal */\n      0x07\n        /* \"contracts/Market.sol\":3760:3775  bal[msg.sender] */\n      0x20\n      mstore\n      0x40\n      swap1\n      keccak256\n      sload\n        /* \"contracts/Market.sol\":3760:3779  bal[msg.sender] > 0 */\n      iszero\n        /* \"contracts/Market.sol\":3757:3825  if(bal[msg.sender] > 0){... */\n      tag_127\n      jumpi\n        /* \"contracts/Market.sol\":3794:3814  withdraw(msg.sender) */\n      tag_78\n        /* \"contracts/Market.sol\":3803:3813  msg.sender */\n      caller\n        /* \"contracts/Market.sol\":3794:3802  withdraw */\n      tag_31\n        /* \"contracts/Market.sol\":3794:3814  withdraw(msg.sender) */\n      jump\t// in\n        /* \"contracts/Market.sol\":3757:3825  if(bal[msg.sender] > 0){... */\n    tag_127:\n        /* \"contracts/Market.sol\":3511:3831  function settleBet(bytes32 _bet) external override {... */\n      pop\n      pop\n      pop\n      jump\t// out\n        /* \"contracts/Market.sol\":4333:4713  function cancelMarket() external override onlyFactory returns(bool) ... */\n    tag_38:\n        /* \"contracts/Market.sol\":1275:1280  owner */\n      sload(0x01)\n        /* \"contracts/Market.sol\":4395:4399  bool */\n      0x00\n      swap1\n      sub(shl(0xa0, 0x01), 0x01)\n        /* \"contracts/Market.sol\":1275:1280  owner */\n      and\n        /* \"contracts/Market.sol\":1261:1271  msg.sender */\n      caller\n        /* \"contracts/Market.sol\":1261:1280  msg.sender == owner */\n      eq\n      dup1\n        /* \"contracts/Market.sol\":1261:1343  msg.sender == owner ... */\n      tag_130\n      jumpi\n      pop\n        /* \"contracts/Market.sol\":1324:1327  app */\n      immutable(\"0x911a39fbf665a24ad3b6efc185d4b936bbda1900793ae2f7c00f4d18bdd96685\")\n      sub(shl(0xa0, 0x01), 0x01)\n        /* \"contracts/Market.sol\":1324:1341  app.contractOwner */\n      and\n      0xce606ee0\n        /* \"contracts/Market.sol\":1324:1343  app.contractOwner() */\n      mload(0x40)\n      dup2\n      0xffffffff\n      and\n      0xe0\n      shl\n      dup2\n      mstore\n      0x04\n      add\n      0x20\n      mload(0x40)\n      dup1\n      dup4\n      sub\n      dup2\n      dup7\n      dup1\n      extcodesize\n      iszero\n      dup1\n      iszero\n      tag_131\n      jumpi\n      0x00\n      dup1\n      revert\n    tag_131:\n      pop\n      gas\n      staticcall\n      iszero\n      dup1\n      iszero\n      tag_133\n      jumpi\n      returndatasize\n      0x00\n      dup1\n      returndatacopy\n      revert(0x00, returndatasize)\n    tag_133:\n      pop\n      pop\n      pop\n      pop\n      mload(0x40)\n      returndatasize\n      not(0x1f)\n      0x1f\n      dup3\n      add\n      and\n      dup3\n      add\n      dup1\n      0x40\n      mstore\n      pop\n      dup2\n      add\n      swap1\n      tag_134\n      swap2\n      swap1\n      tag_135\n      jump\t// in\n    tag_134:\n      sub(shl(0xa0, 0x01), 0x01)\n        /* \"contracts/Market.sol\":1310:1343  msg.sender == app.contractOwner() */\n      and\n        /* \"contracts/Market.sol\":1310:1320  msg.sender */\n      caller\n      sub(shl(0xa0, 0x01), 0x01)\n        /* \"contracts/Market.sol\":1310:1343  msg.sender == app.contractOwner() */\n      and\n      eq\n        /* \"contracts/Market.sol\":1261:1343  msg.sender == owner ... */\n    tag_130:\n        /* \"contracts/Market.sol\":1261:1392  msg.sender == owner ... */\n      dup1\n      tag_136\n      jumpi\n      pop\n        /* \"contracts/Market.sol\":1385:1392  factory */\n      and(sub(shl(0xa0, 0x01), 0x01), sload(0x02))\n        /* \"contracts/Market.sol\":1371:1381  msg.sender */\n      caller\n        /* \"contracts/Market.sol\":1371:1392  msg.sender == factory */\n      eq\n        /* \"contracts/Market.sol\":1261:1392  msg.sender == owner ... */\n    tag_136:\n        /* \"contracts/Market.sol\":1240:1420  require(... */\n      tag_137\n      jumpi\n      mload(0x40)\n      shl(0xe5, 0x461bcd)\n      dup2\n      mstore\n      0x04\n      add\n      tag_62\n      swap1\n      tag_139\n      jump\t// in\n    tag_137:\n        /* \"contracts/Market.sol\":4420:4426  status */\n      sload(0x03)\n        /* \"contracts/Market.sol\":4420:4431  status == 0 */\n      iszero\n      dup1\n        /* \"contracts/Market.sol\":4420:4446  status == 0 || status == 4 */\n      tag_141\n      jumpi\n      pop\n        /* \"contracts/Market.sol\":4435:4441  status */\n      sload(0x03)\n        /* \"contracts/Market.sol\":4445:4446  4 */\n      0x04\n        /* \"contracts/Market.sol\":4435:4446  status == 4 */\n      eq\n        /* \"contracts/Market.sol\":4420:4446  status == 0 || status == 4 */\n    tag_141:\n        /* \"contracts/Market.sol\":4417:4707  if(status == 0 || status == 4){... */\n      iszero\n      tag_142\n      jumpi\n        /* \"contracts/Market.sol\":4480:4485  pairs */\n      0x04\n        /* \"contracts/Market.sol\":4480:4492  pairs.length */\n      sload\n        /* \"contracts/Market.sol\":4461:4477  uint pairsLength */\n      0x00\n        /* \"contracts/Market.sol\":4506:4597  for(uint i = 0; i < pairsLength; i++){... */\n    tag_143:\n        /* \"contracts/Market.sol\":4526:4537  pairsLength */\n      dup2\n        /* \"contracts/Market.sol\":4522:4523  i */\n      dup2\n        /* \"contracts/Market.sol\":4522:4537  i < pairsLength */\n      lt\n        /* \"contracts/Market.sol\":4506:4597  for(uint i = 0; i < pairsLength; i++){... */\n      iszero\n      tag_144\n      jumpi\n        /* \"contracts/Market.sol\":4561:4582  _cancelPair(pairs[i]) */\n      tag_146\n        /* \"contracts/Market.sol\":4573:4578  pairs */\n      0x04\n        /* \"contracts/Market.sol\":4579:4580  i */\n      dup3\n        /* \"contracts/Market.sol\":4573:4581  pairs[i] */\n      dup2\n      sload\n      dup2\n      lt\n      tag_147\n      jumpi\n      mstore(0x00, shl(0xe0, 0x4e487b71))\n      mstore(0x04, 0x32)\n      revert(0x00, 0x24)\n    tag_147:\n      swap1\n      0x00\n      mstore\n      keccak256(0x00, 0x20)\n      add\n      sload\n        /* \"contracts/Market.sol\":4561:4572  _cancelPair */\n      tag_149\n        /* \"contracts/Market.sol\":4561:4582  _cancelPair(pairs[i]) */\n      jump\t// in\n    tag_146:\n        /* \"contracts/Market.sol\":4539:4542  i++ */\n      dup1\n      tag_150\n      dup2\n      tag_77\n      jump\t// in\n    tag_150:\n      swap2\n      pop\n      pop\n        /* \"contracts/Market.sol\":4506:4597  for(uint i = 0; i < pairsLength; i++){... */\n      jump(tag_143)\n    tag_144:\n      pop\n      pop\n        /* \"contracts/Market.sol\":4619:4620  3 */\n      0x03\n        /* \"contracts/Market.sol\":4610:4620  status = 3 */\n      dup1\n      sstore\n      pop\n        /* \"contracts/Market.sol\":4641:4645  true */\n      0x01\n        /* \"contracts/Market.sol\":4333:4713  function cancelMarket() external override onlyFactory returns(bool) ... */\n      swap1\n      jump\t// out\n        /* \"contracts/Market.sol\":4417:4707  if(status == 0 || status == 4){... */\n    tag_142:\n      pop\n        /* \"contracts/Market.sol\":4691:4696  false */\n      0x00\n        /* \"contracts/Market.sol\":4333:4713  function cancelMarket() external override onlyFactory returns(bool) ... */\n      swap1\n      jump\t// out\n        /* \"contracts/Market.sol\":4927:9131  function addBet(... */\n    tag_43:\n        /* \"contracts/Market.sol\":5166:5189  app.isBlack(msg.sender) */\n      mload(0x40)\n      shl(0xe0, 0x332daccf)\n      dup2\n      mstore\n        /* \"contracts/Market.sol\":5178:5188  msg.sender */\n      caller\n        /* \"contracts/Market.sol\":5166:5189  app.isBlack(msg.sender) */\n      0x04\n      dup3\n      add\n        /* \"#utility.yul\":3266:3317   */\n      mstore\n        /* \"contracts/Market.sol\":5134:5141  bytes32 */\n      0x00\n      swap1\n        /* \"contracts/Market.sol\":5166:5169  app */\n      immutable(\"0x911a39fbf665a24ad3b6efc185d4b936bbda1900793ae2f7c00f4d18bdd96685\")\n      sub(shl(0xa0, 0x01), 0x01)\n        /* \"contracts/Market.sol\":5166:5177  app.isBlack */\n      and\n      swap1\n      0x332daccf\n      swap1\n        /* \"#utility.yul\":3239:3257   */\n      0x24\n      add\n        /* \"contracts/Market.sol\":5166:5189  app.isBlack(msg.sender) */\n      0x20\n      mload(0x40)\n      dup1\n      dup4\n      sub\n      dup2\n      dup7\n      dup1\n      extcodesize\n      iszero\n      dup1\n      iszero\n      tag_154\n      jumpi\n      0x00\n      dup1\n      revert\n    tag_154:\n      pop\n      gas\n      staticcall\n      iszero\n      dup1\n      iszero\n      tag_156\n      jumpi\n      returndatasize\n      0x00\n      dup1\n      returndatacopy\n      revert(0x00, returndatasize)\n    tag_156:\n      pop\n      pop\n      pop\n      pop\n      mload(0x40)\n      returndatasize\n      not(0x1f)\n      0x1f\n      dup3\n      add\n      and\n      dup3\n      add\n      dup1\n      0x40\n      mstore\n      pop\n      dup2\n      add\n      swap1\n      tag_157\n      swap2\n      swap1\n      tag_112\n      jump\t// in\n    tag_157:\n        /* \"contracts/Market.sol\":5165:5189  !app.isBlack(msg.sender) */\n      iszero\n        /* \"contracts/Market.sol\":5165:5204  !app.isBlack(msg.sender) && status == 0 */\n      dup1\n      iszero\n      tag_158\n      jumpi\n      pop\n        /* \"contracts/Market.sol\":5193:5199  status */\n      sload(0x03)\n        /* \"contracts/Market.sol\":5193:5204  status == 0 */\n      iszero\n        /* \"contracts/Market.sol\":5165:5204  !app.isBlack(msg.sender) && status == 0 */\n    tag_158:\n        /* \"contracts/Market.sol\":5157:5211  require(!app.isBlack(msg.sender) && status == 0, \"M8\") */\n      tag_159\n      jumpi\n      mload(0x40)\n      shl(0xe5, 0x461bcd)\n      dup2\n      mstore\n        /* \"#utility.yul\":7019:7021   */\n      0x20\n        /* \"contracts/Market.sol\":5157:5211  require(!app.isBlack(msg.sender) && status == 0, \"M8\") */\n      0x04\n      dup3\n      add\n        /* \"#utility.yul\":7001:7022   */\n      mstore\n        /* \"#utility.yul\":7058:7059   */\n      0x02\n        /* \"#utility.yul\":7038:7056   */\n      0x24\n      dup3\n      add\n        /* \"#utility.yul\":7031:7060   */\n      mstore\n      shl(0xf3, 0x09a7)\n        /* \"#utility.yul\":7076:7094   */\n      0x44\n      dup3\n      add\n        /* \"#utility.yul\":7069:7101   */\n      mstore\n        /* \"#utility.yul\":7118:7136   */\n      0x64\n      add\n        /* \"contracts/Market.sol\":5157:5211  require(!app.isBlack(msg.sender) && status == 0, \"M8\") */\n      tag_62\n        /* \"#utility.yul\":6991:7142   */\n      jump\n        /* \"contracts/Market.sol\":5157:5211  require(!app.isBlack(msg.sender) && status == 0, \"M8\") */\n    tag_159:\n        /* \"contracts/Market.sol\":5229:5234  _side */\n      dup3\n        /* \"contracts/Market.sol\":5238:5239  1 */\n      0x01\n        /* \"contracts/Market.sol\":5229:5239  _side == 1 */\n      eq\n        /* \"contracts/Market.sol\":5229:5253  _side == 1 || _side == 2 */\n      dup1\n      tag_162\n      jumpi\n      pop\n        /* \"contracts/Market.sol\":5243:5248  _side */\n      dup3\n        /* \"contracts/Market.sol\":5252:5253  2 */\n      0x02\n        /* \"contracts/Market.sol\":5243:5253  _side == 2 */\n      eq\n        /* \"contracts/Market.sol\":5229:5253  _side == 1 || _side == 2 */\n    tag_162:\n        /* \"contracts/Market.sol\":5221:5260  require(_side == 1 || _side == 2, \"M9\") */\n      tag_163\n      jumpi\n      mload(0x40)\n      shl(0xe5, 0x461bcd)\n      dup2\n      mstore\n        /* \"#utility.yul\":7679:7681   */\n      0x20\n        /* \"contracts/Market.sol\":5221:5260  require(_side == 1 || _side == 2, \"M9\") */\n      0x04\n      dup3\n      add\n        /* \"#utility.yul\":7661:7682   */\n      mstore\n        /* \"#utility.yul\":7718:7719   */\n      0x02\n        /* \"#utility.yul\":7698:7716   */\n      0x24\n      dup3\n      add\n        /* \"#utility.yul\":7691:7720   */\n      mstore\n      shl(0xf0, 0x4d39)\n        /* \"#utility.yul\":7736:7754   */\n      0x44\n      dup3\n      add\n        /* \"#utility.yul\":7729:7761   */\n      mstore\n        /* \"#utility.yul\":7778:7796   */\n      0x64\n      add\n        /* \"contracts/Market.sol\":5221:5260  require(_side == 1 || _side == 2, \"M9\") */\n      tag_62\n        /* \"#utility.yul\":7651:7802   */\n      jump\n        /* \"contracts/Market.sol\":5221:5260  require(_side == 1 || _side == 2, \"M9\") */\n    tag_163:\n        /* \"contracts/Market.sol\":5278:5320  token.allowance(msg.sender, address(this)) */\n      mload(0x40)\n      shl(0xe1, 0x6eb1769f)\n      dup2\n      mstore\n        /* \"contracts/Market.sol\":5294:5304  msg.sender */\n      caller\n        /* \"contracts/Market.sol\":5278:5320  token.allowance(msg.sender, address(this)) */\n      0x04\n      dup3\n      add\n        /* \"#utility.yul\":3540:3574   */\n      mstore\n        /* \"contracts/Market.sol\":5314:5318  this */\n      address\n        /* \"#utility.yul\":3590:3608   */\n      0x24\n      dup3\n      add\n        /* \"#utility.yul\":3583:3626   */\n      mstore\n        /* \"contracts/Market.sol\":5324:5330  _stake */\n      dup6\n      swap1\n        /* \"contracts/Market.sol\":5278:5283  token */\n      immutable(\"0xb35cf579f54ccafa8cda334bf8f538b0f7a8230c902d5a84be1ea7996ef7fb49\")\n      sub(shl(0xa0, 0x01), 0x01)\n        /* \"contracts/Market.sol\":5278:5293  token.allowance */\n      and\n      swap1\n      0xdd62ed3e\n      swap1\n        /* \"#utility.yul\":3475:3493   */\n      0x44\n      add\n        /* \"contracts/Market.sol\":5278:5320  token.allowance(msg.sender, address(this)) */\n      0x20\n      mload(0x40)\n      dup1\n      dup4\n      sub\n      dup2\n      dup7\n      dup1\n      extcodesize\n      iszero\n      dup1\n      iszero\n      tag_168\n      jumpi\n      0x00\n      dup1\n      revert\n    tag_168:\n      pop\n      gas\n      staticcall\n      iszero\n      dup1\n      iszero\n      tag_170\n      jumpi\n      returndatasize\n      0x00\n      dup1\n      returndatacopy\n      revert(0x00, returndatasize)\n    tag_170:\n      pop\n      pop\n      pop\n      pop\n      mload(0x40)\n      returndatasize\n      not(0x1f)\n      0x1f\n      dup3\n      add\n      and\n      dup3\n      add\n      dup1\n      0x40\n      mstore\n      pop\n      dup2\n      add\n      swap1\n      tag_171\n      swap2\n      swap1\n      tag_100\n      jump\t// in\n    tag_171:\n        /* \"contracts/Market.sol\":5278:5330  token.allowance(msg.sender, address(this)) >= _stake */\n      lt\n      iszero\n        /* \"contracts/Market.sol\":5278:5358  token.allowance(msg.sender, address(this)) >= _stake && _stake >= app.minStake() */\n      dup1\n      iszero\n      tag_172\n      jumpi\n      pop\n        /* \"contracts/Market.sol\":5344:5347  app */\n      immutable(\"0x911a39fbf665a24ad3b6efc185d4b936bbda1900793ae2f7c00f4d18bdd96685\")\n      sub(shl(0xa0, 0x01), 0x01)\n        /* \"contracts/Market.sol\":5344:5356  app.minStake */\n      and\n      0x375b3c0a\n        /* \"contracts/Market.sol\":5344:5358  app.minStake() */\n      mload(0x40)\n      dup2\n      0xffffffff\n      and\n      0xe0\n      shl\n      dup2\n      mstore\n      0x04\n      add\n      0x20\n      mload(0x40)\n      dup1\n      dup4\n      sub\n      dup2\n      dup7\n      dup1\n      extcodesize\n      iszero\n      dup1\n      iszero\n      tag_173\n      jumpi\n      0x00\n      dup1\n      revert\n    tag_173:\n      pop\n      gas\n      staticcall\n      iszero\n      dup1\n      iszero\n      tag_175\n      jumpi\n      returndatasize\n      0x00\n      dup1\n      returndatacopy\n      revert(0x00, returndatasize)\n    tag_175:\n      pop\n      pop\n      pop\n      pop\n      mload(0x40)\n      returndatasize\n      not(0x1f)\n      0x1f\n      dup3\n      add\n      and\n      dup3\n      add\n      dup1\n      0x40\n      mstore\n      pop\n      dup2\n      add\n      swap1\n      tag_176\n      swap2\n      swap1\n      tag_100\n      jump\t// in\n    tag_176:\n        /* \"contracts/Market.sol\":5334:5340  _stake */\n      dup6\n        /* \"contracts/Market.sol\":5334:5358  _stake >= app.minStake() */\n      lt\n      iszero\n        /* \"contracts/Market.sol\":5278:5358  token.allowance(msg.sender, address(this)) >= _stake && _stake >= app.minStake() */\n    tag_172:\n        /* \"contracts/Market.sol\":5270:5366  require(token.allowance(msg.sender, address(this)) >= _stake && _stake >= app.minStake(), \"M10\") */\n      tag_177\n      jumpi\n      mload(0x40)\n      shl(0xe5, 0x461bcd)\n      dup2\n      mstore\n        /* \"#utility.yul\":8009:8011   */\n      0x20\n        /* \"contracts/Market.sol\":5270:5366  require(token.allowance(msg.sender, address(this)) >= _stake && _stake >= app.minStake(), \"M10\") */\n      0x04\n      dup3\n      add\n        /* \"#utility.yul\":7991:8012   */\n      mstore\n        /* \"#utility.yul\":8048:8049   */\n      0x03\n        /* \"#utility.yul\":8028:8046   */\n      0x24\n      dup3\n      add\n        /* \"#utility.yul\":8021:8050   */\n      mstore\n      shl(0xec, 0x04d313)\n        /* \"#utility.yul\":8066:8084   */\n      0x44\n      dup3\n      add\n        /* \"#utility.yul\":8059:8092   */\n      mstore\n        /* \"#utility.yul\":8109:8127   */\n      0x64\n      add\n        /* \"contracts/Market.sol\":5270:5366  require(token.allowance(msg.sender, address(this)) >= _stake && _stake >= app.minStake(), \"M10\") */\n      tag_62\n        /* \"#utility.yul\":7981:8133   */\n      jump\n        /* \"contracts/Market.sol\":5270:5366  require(token.allowance(msg.sender, address(this)) >= _stake && _stake >= app.minStake(), \"M10\") */\n    tag_177:\n        /* \"contracts/Market.sol\":5384:5437  token.transferFrom(msg.sender, address(this), _stake) */\n      mload(0x40)\n      shl(0xe0, 0x23b872dd)\n      dup2\n      mstore\n        /* \"contracts/Market.sol\":5403:5413  msg.sender */\n      caller\n        /* \"contracts/Market.sol\":5384:5437  token.transferFrom(msg.sender, address(this), _stake) */\n      0x04\n      dup3\n      add\n        /* \"#utility.yul\":4473:4507   */\n      mstore\n        /* \"contracts/Market.sol\":5423:5427  this */\n      address\n        /* \"#utility.yul\":4523:4541   */\n      0x24\n      dup3\n      add\n        /* \"#utility.yul\":4516:4559   */\n      mstore\n        /* \"#utility.yul\":4575:4593   */\n      0x44\n      dup2\n      add\n        /* \"#utility.yul\":4568:4602   */\n      dup7\n      swap1\n      mstore\n        /* \"contracts/Market.sol\":5384:5389  token */\n      immutable(\"0xb35cf579f54ccafa8cda334bf8f538b0f7a8230c902d5a84be1ea7996ef7fb49\")\n      sub(shl(0xa0, 0x01), 0x01)\n        /* \"contracts/Market.sol\":5384:5402  token.transferFrom */\n      and\n      swap1\n      0x23b872dd\n      swap1\n        /* \"#utility.yul\":4408:4426   */\n      0x64\n      add\n        /* \"contracts/Market.sol\":5384:5437  token.transferFrom(msg.sender, address(this), _stake) */\n      0x20\n      mload(0x40)\n      dup1\n      dup4\n      sub\n      dup2\n      0x00\n      dup8\n      dup1\n      extcodesize\n      iszero\n      dup1\n      iszero\n      tag_182\n      jumpi\n      0x00\n      dup1\n      revert\n    tag_182:\n      pop\n      gas\n      call\n      iszero\n      dup1\n      iszero\n      tag_184\n      jumpi\n      returndatasize\n      0x00\n      dup1\n      returndatacopy\n      revert(0x00, returndatasize)\n    tag_184:\n      pop\n      pop\n      pop\n      pop\n      mload(0x40)\n      returndatasize\n      not(0x1f)\n      0x1f\n      dup3\n      add\n      and\n      dup3\n      add\n      dup1\n      0x40\n      mstore\n      pop\n      dup2\n      add\n      swap1\n      tag_185\n      swap2\n      swap1\n      tag_112\n      jump\t// in\n    tag_185:\n        /* \"contracts/Market.sol\":5376:5445  require(token.transferFrom(msg.sender, address(this), _stake), \"M11\") */\n      tag_186\n      jumpi\n      mload(0x40)\n      shl(0xe5, 0x461bcd)\n      dup2\n      mstore\n        /* \"#utility.yul\":9690:9692   */\n      0x20\n        /* \"contracts/Market.sol\":5376:5445  require(token.transferFrom(msg.sender, address(this), _stake), \"M11\") */\n      0x04\n      dup3\n      add\n        /* \"#utility.yul\":9672:9693   */\n      mstore\n        /* \"#utility.yul\":9729:9730   */\n      0x03\n        /* \"#utility.yul\":9709:9727   */\n      0x24\n      dup3\n      add\n        /* \"#utility.yul\":9702:9731   */\n      mstore\n      shl(0xe8, 0x4d3131)\n        /* \"#utility.yul\":9747:9765   */\n      0x44\n      dup3\n      add\n        /* \"#utility.yul\":9740:9773   */\n      mstore\n        /* \"#utility.yul\":9790:9808   */\n      0x64\n      add\n        /* \"contracts/Market.sol\":5376:5445  require(token.transferFrom(msg.sender, address(this), _stake), \"M11\") */\n      tag_62\n        /* \"#utility.yul\":9662:9814   */\n      jump\n        /* \"contracts/Market.sol\":5376:5445  require(token.transferFrom(msg.sender, address(this), _stake), \"M11\") */\n    tag_186:\n        /* \"contracts/Market.sol\":5455:5470  bytes32 betHash */\n      0x00\n        /* \"contracts/Market.sol\":5473:5553  _createBet(_better, _affiliate, _stake, 0, (_odds * 100) / (_odds - 100), _side) */\n      tag_189\n        /* \"contracts/Market.sol\":5484:5491  _better */\n      dup9\n        /* \"contracts/Market.sol\":5493:5503  _affiliate */\n      dup9\n        /* \"contracts/Market.sol\":5505:5511  _stake */\n      dup9\n        /* \"contracts/Market.sol\":5455:5470  bytes32 betHash */\n      dup5\n        /* \"contracts/Market.sol\":5533:5544  _odds - 100 */\n      tag_190\n        /* \"contracts/Market.sol\":5541:5544  100 */\n      0x64\n        /* \"contracts/Market.sol\":5533:5538  _odds */\n      dup12\n        /* \"contracts/Market.sol\":5533:5544  _odds - 100 */\n      tag_65\n      jump\t// in\n    tag_190:\n        /* \"contracts/Market.sol\":5517:5528  _odds * 100 */\n      tag_191\n        /* \"contracts/Market.sol\":5517:5522  _odds */\n      dup12\n        /* \"contracts/Market.sol\":5525:5528  100 */\n      0x64\n        /* \"contracts/Market.sol\":5517:5528  _odds * 100 */\n      tag_192\n      jump\t// in\n    tag_191:\n        /* \"contracts/Market.sol\":5516:5545  (_odds * 100) / (_odds - 100) */\n      tag_193\n      swap2\n      swap1\n      tag_194\n      jump\t// in\n    tag_193:\n        /* \"contracts/Market.sol\":5547:5552  _side */\n      dup10\n        /* \"contracts/Market.sol\":5473:5483  _createBet */\n      tag_195\n        /* \"contracts/Market.sol\":5473:5553  _createBet(_better, _affiliate, _stake, 0, (_odds * 100) / (_odds - 100), _side) */\n      jump\t// in\n    tag_189:\n        /* \"contracts/Market.sol\":5785:5796  pendingBets */\n      0x06\n        /* \"contracts/Market.sol\":5785:5803  pendingBets.length */\n      sload\n        /* \"contracts/Market.sol\":5455:5553  bytes32 betHash = _createBet(_better, _affiliate, _stake, 0, (_odds * 100) / (_odds - 100), _side) */\n      swap1\n      swap2\n      pop\n        /* \"contracts/Market.sol\":5785:5807  pendingBets.length > 0 */\n      iszero\n        /* \"contracts/Market.sol\":5782:9018  if(pendingBets.length > 0){... */\n      tag_196\n      jumpi\n        /* \"contracts/Market.sol\":5839:5845  _stake */\n      dup6\n        /* \"contracts/Market.sol\":5859:8944  while(_remStake >= app.minStake()){... */\n    tag_197:\n        /* \"contracts/Market.sol\":5878:5881  app */\n      immutable(\"0x911a39fbf665a24ad3b6efc185d4b936bbda1900793ae2f7c00f4d18bdd96685\")\n      sub(shl(0xa0, 0x01), 0x01)\n        /* \"contracts/Market.sol\":5878:5890  app.minStake */\n      and\n      0x375b3c0a\n        /* \"contracts/Market.sol\":5878:5892  app.minStake() */\n      mload(0x40)\n      dup2\n      0xffffffff\n      and\n      0xe0\n      shl\n      dup2\n      mstore\n      0x04\n      add\n      0x20\n      mload(0x40)\n      dup1\n      dup4\n      sub\n      dup2\n      dup7\n      dup1\n      extcodesize\n      iszero\n      dup1\n      iszero\n      tag_199\n      jumpi\n      0x00\n      dup1\n      revert\n    tag_199:\n      pop\n      gas\n      staticcall\n      iszero\n      dup1\n      iszero\n      tag_201\n      jumpi\n      returndatasize\n      0x00\n      dup1\n      returndatacopy\n      revert(0x00, returndatasize)\n    tag_201:\n      pop\n      pop\n      pop\n      pop\n      mload(0x40)\n      returndatasize\n      not(0x1f)\n      0x1f\n      dup3\n      add\n      and\n      dup3\n      add\n      dup1\n      0x40\n      mstore\n      pop\n      dup2\n      add\n      swap1\n      tag_202\n      swap2\n      swap1\n      tag_100\n      jump\t// in\n    tag_202:\n        /* \"contracts/Market.sol\":5865:5874  _remStake */\n      dup2\n        /* \"contracts/Market.sol\":5865:5892  _remStake >= app.minStake() */\n      lt\n        /* \"contracts/Market.sol\":5859:8944  while(_remStake >= app.minStake()){... */\n      tag_198\n      jumpi\n        /* \"contracts/Market.sol\":5911:5929  uint selectedIndex */\n      0x00\n        /* \"contracts/Market.sol\":5951:5966  uint256 maxOdds */\n      dup1\n        /* \"contracts/Market.sol\":5992:5998  uint i */\n      0x00\n        /* \"contracts/Market.sol\":5988:6385  for(uint i = 0; i < pendingBets.length; i++){... */\n    tag_203:\n        /* \"contracts/Market.sol\":6008:6019  pendingBets */\n      0x06\n        /* \"contracts/Market.sol\":6008:6026  pendingBets.length */\n      sload\n        /* \"contracts/Market.sol\":6004:6026  i < pendingBets.length */\n      dup2\n      lt\n        /* \"contracts/Market.sol\":5988:6385  for(uint i = 0; i < pendingBets.length; i++){... */\n      iszero\n      tag_204\n      jumpi\n        /* \"contracts/Market.sol\":6054:6066  bytes32 pBet */\n      0x00\n        /* \"contracts/Market.sol\":6069:6080  pendingBets */\n      0x06\n        /* \"contracts/Market.sol\":6081:6082  i */\n      dup3\n        /* \"contracts/Market.sol\":6069:6083  pendingBets[i] */\n      dup2\n      sload\n      dup2\n      lt\n      tag_206\n      jumpi\n      mstore(0x00, shl(0xe0, 0x4e487b71))\n      mstore(0x04, 0x32)\n      revert(0x00, 0x24)\n    tag_206:\n      swap1\n      0x00\n      mstore\n      keccak256(0x00, 0x20)\n      add\n      sload\n        /* \"contracts/Market.sol\":6054:6083  bytes32 pBet = pendingBets[i] */\n      swap1\n      pop\n        /* \"contracts/Market.sol\":6117:6125  betsInfo */\n      0x08\n        /* \"contracts/Market.sol\":6117:6131  betsInfo[pBet] */\n      0x00\n        /* \"contracts/Market.sol\":6126:6130  pBet */\n      dup3\n        /* \"contracts/Market.sol\":6117:6131  betsInfo[pBet] */\n      dup2\n      mstore\n      0x20\n      add\n      swap1\n      dup2\n      mstore\n      0x20\n      add\n      0x00\n      keccak256\n        /* \"contracts/Market.sol\":6117:6136  betsInfo[pBet].side */\n      0x05\n      add\n      sload\n        /* \"contracts/Market.sol\":6108:6113  _side */\n      dup10\n        /* \"contracts/Market.sol\":6108:6136  _side == betsInfo[pBet].side */\n      eq\n        /* \"contracts/Market.sol\":6105:6194  if(_side == betsInfo[pBet].side){... */\n      iszero\n      tag_208\n      jumpi\n        /* \"contracts/Market.sol\":6163:6171  continue */\n      pop\n      jump(tag_205)\n        /* \"contracts/Market.sol\":6105:6194  if(_side == betsInfo[pBet].side){... */\n    tag_208:\n        /* \"contracts/Market.sol\":6218:6232  betsInfo[pBet] */\n      0x00\n      dup2\n      dup2\n      mstore\n        /* \"contracts/Market.sol\":6218:6226  betsInfo */\n      0x08\n        /* \"contracts/Market.sol\":6218:6232  betsInfo[pBet] */\n      0x20\n      mstore\n      0x40\n      swap1\n      keccak256\n        /* \"contracts/Market.sol\":6218:6237  betsInfo[pBet].odds */\n      0x04\n      add\n      sload\n        /* \"contracts/Market.sol\":6218:6245  betsInfo[pBet].odds>maxOdds */\n      dup4\n      lt\n        /* \"contracts/Market.sol\":6215:6367  if(betsInfo[pBet].odds>maxOdds){... */\n      iszero\n      tag_209\n      jumpi\n        /* \"contracts/Market.sol\":6282:6296  betsInfo[pBet] */\n      0x00\n      dup2\n      dup2\n      mstore\n        /* \"contracts/Market.sol\":6282:6290  betsInfo */\n      0x08\n        /* \"contracts/Market.sol\":6282:6296  betsInfo[pBet] */\n      0x20\n      mstore\n      0x40\n      swap1\n      keccak256\n        /* \"contracts/Market.sol\":6282:6301  betsInfo[pBet].odds */\n      0x04\n      add\n      sload\n        /* \"contracts/Market.sol\":6343:6344  i */\n      swap2\n      swap4\n      pop\n        /* \"contracts/Market.sol\":6282:6301  betsInfo[pBet].odds */\n      swap1\n      swap2\n      pop\n        /* \"contracts/Market.sol\":6343:6344  i */\n      dup3\n      swap1\n        /* \"contracts/Market.sol\":6215:6367  if(betsInfo[pBet].odds>maxOdds){... */\n    tag_209:\n        /* \"contracts/Market.sol\":5988:6385  for(uint i = 0; i < pendingBets.length; i++){... */\n      pop\n    tag_205:\n        /* \"contracts/Market.sol\":6028:6031  i++ */\n      dup1\n      tag_210\n      dup2\n      tag_77\n      jump\t// in\n    tag_210:\n      swap2\n      pop\n      pop\n        /* \"contracts/Market.sol\":5988:6385  for(uint i = 0; i < pendingBets.length; i++){... */\n      jump(tag_203)\n    tag_204:\n      pop\n        /* \"contracts/Market.sol\":6415:6420  _odds */\n      dup8\n        /* \"contracts/Market.sol\":6405:6412  maxOdds */\n      dup2\n        /* \"contracts/Market.sol\":6405:6420  maxOdds > _odds */\n      gt\n        /* \"contracts/Market.sol\":6405:6449  maxOdds > _odds || (maxOdds > 0 && _instant) */\n      dup1\n      tag_212\n      jumpi\n      pop\n        /* \"contracts/Market.sol\":6435:6436  0 */\n      0x00\n        /* \"contracts/Market.sol\":6425:6432  maxOdds */\n      dup2\n        /* \"contracts/Market.sol\":6425:6436  maxOdds > 0 */\n      gt\n        /* \"contracts/Market.sol\":6425:6448  maxOdds > 0 && _instant */\n      dup1\n      iszero\n      tag_212\n      jumpi\n      pop\n        /* \"contracts/Market.sol\":6440:6448  _instant */\n      dup6\n        /* \"contracts/Market.sol\":6425:6448  maxOdds > 0 && _instant */\n    tag_212:\n        /* \"contracts/Market.sol\":6402:8930  if(maxOdds > _odds || (maxOdds > 0 && _instant)) {... */\n      iszero\n      tag_213\n      jumpi\n        /* \"contracts/Market.sol\":6473:6493  bytes32 selectedHash */\n      0x00\n        /* \"contracts/Market.sol\":6496:6507  pendingBets */\n      0x06\n        /* \"contracts/Market.sol\":6508:6521  selectedIndex */\n      dup4\n        /* \"contracts/Market.sol\":6496:6522  pendingBets[selectedIndex] */\n      dup2\n      sload\n      dup2\n      lt\n      tag_214\n      jumpi\n      mstore(0x00, shl(0xe0, 0x4e487b71))\n      mstore(0x04, 0x32)\n      revert(0x00, 0x24)\n    tag_214:\n      0x00\n      swap2\n      dup3\n      mstore\n      0x20\n      dup1\n      dup4\n      keccak256\n      swap1\n      swap2\n      add\n      sload\n        /* \"contracts/Market.sol\":6575:6597  betsInfo[selectedHash] */\n      dup1\n      dup4\n      mstore\n        /* \"contracts/Market.sol\":6575:6583  betsInfo */\n      0x08\n        /* \"contracts/Market.sol\":6575:6597  betsInfo[selectedHash] */\n      dup3\n      mstore\n      0x40\n      dup1\n      dup5\n      keccak256\n        /* \"contracts/Market.sol\":6544:6597  MarketBet memory selectedBet = betsInfo[selectedHash] */\n      dup2\n      mload\n      0xc0\n      dup2\n      add\n      dup4\n      mstore\n      dup2\n      sload\n      sub(shl(0xa0, 0x01), 0x01)\n      swap1\n      dup2\n      and\n      dup3\n      mstore\n      0x01\n      dup4\n      add\n      sload\n      and\n      swap5\n      dup2\n      add\n      swap5\n      swap1\n      swap5\n      mstore\n      0x02\n      dup2\n      add\n      sload\n      swap2\n      dup5\n      add\n      swap2\n      swap1\n      swap2\n      mstore\n      0x03\n      dup2\n      add\n      sload\n      0x60\n      dup5\n      add\n      mstore\n      0x04\n      dup2\n      add\n      sload\n      0x80\n      dup5\n      add\n      mstore\n      0x05\n      add\n      sload\n      0xa0\n      dup4\n      add\n      mstore\n        /* \"contracts/Market.sol\":6496:6522  pendingBets[selectedIndex] */\n      swap3\n      pop\n        /* \"contracts/Market.sol\":6544:6597  MarketBet memory selectedBet = betsInfo[selectedHash] */\n      swap1\n        /* \"contracts/Market.sol\":6684:6695  _odds - 100 */\n      tag_216\n        /* \"contracts/Market.sol\":6692:6695  100 */\n      0x64\n        /* \"contracts/Market.sol\":6684:6689  _odds */\n      dup13\n        /* \"contracts/Market.sol\":6684:6695  _odds - 100 */\n      tag_65\n      jump\t// in\n    tag_216:\n        /* \"contracts/Market.sol\":6660:6671  selectedBet */\n      dup3\n        /* \"contracts/Market.sol\":6660:6679  selectedBet.matched */\n      0x60\n      add\n      mload\n        /* \"contracts/Market.sol\":6640:6651  selectedBet */\n      dup4\n        /* \"contracts/Market.sol\":6640:6657  selectedBet.stake */\n      0x40\n      add\n      mload\n        /* \"contracts/Market.sol\":6640:6679  selectedBet.stake - selectedBet.matched */\n      tag_217\n      swap2\n      swap1\n      tag_65\n      jump\t// in\n    tag_217:\n        /* \"contracts/Market.sol\":6639:6696  (selectedBet.stake - selectedBet.matched) / (_odds - 100) */\n      tag_218\n      swap2\n      swap1\n      tag_194\n      jump\t// in\n    tag_218:\n        /* \"contracts/Market.sol\":6619:6696  uint offeredStake = (selectedBet.stake - selectedBet.matched) / (_odds - 100) */\n      swap1\n      pop\n        /* \"contracts/Market.sol\":6718:6737  offeredStake *= 100 */\n      tag_219\n        /* \"contracts/Market.sol\":6734:6737  100 */\n      0x64\n        /* \"contracts/Market.sol\":6619:6696  uint offeredStake = (selectedBet.stake - selectedBet.matched) / (_odds - 100) */\n      dup3\n        /* \"contracts/Market.sol\":6718:6737  offeredStake *= 100 */\n      tag_192\n      jump\t// in\n    tag_219:\n      swap1\n      pop\n        /* \"contracts/Market.sol\":6759:6776  uint betterAmount */\n      0x00\n        /* \"contracts/Market.sol\":6798:6814  uint makerAmount */\n      dup1\n        /* \"contracts/Market.sol\":6836:6852  bytes32 pairHash */\n      0x00\n        /* \"contracts/Market.sol\":6893:6899  _stake */\n      dup15\n        /* \"contracts/Market.sol\":6877:6889  offeredStake */\n      dup5\n        /* \"contracts/Market.sol\":6877:6899  offeredStake <= _stake */\n      gt\n        /* \"contracts/Market.sol\":6874:8333  if(offeredStake <= _stake) {... */\n      tag_220\n      jumpi\n        /* \"contracts/Market.sol\":6942:6954  offeredStake */\n      dup4\n      swap3\n      pop\n        /* \"contracts/Market.sol\":7010:7021  _odds - 100 */\n      tag_221\n        /* \"contracts/Market.sol\":7018:7021  100 */\n      0x64\n        /* \"contracts/Market.sol\":7010:7015  _odds */\n      dup16\n        /* \"contracts/Market.sol\":7010:7021  _odds - 100 */\n      tag_65\n      jump\t// in\n    tag_221:\n        /* \"contracts/Market.sol\":6994:7022  offeredStake * (_odds - 100) */\n      tag_222\n      swap1\n        /* \"contracts/Market.sol\":6994:7006  offeredStake */\n      dup6\n        /* \"contracts/Market.sol\":6994:7022  offeredStake * (_odds - 100) */\n      tag_192\n      jump\t// in\n    tag_222:\n        /* \"contracts/Market.sol\":6980:7022  makerAmount = offeredStake * (_odds - 100) */\n      swap2\n      pop\n        /* \"contracts/Market.sol\":7048:7066  makerAmount /= 100 */\n      tag_223\n        /* \"contracts/Market.sol\":7063:7066  100 */\n      0x64\n        /* \"contracts/Market.sol\":6980:7022  makerAmount = offeredStake * (_odds - 100) */\n      dup4\n        /* \"contracts/Market.sol\":7048:7066  makerAmount /= 100 */\n      tag_194\n      jump\t// in\n    tag_223:\n      swap2\n      pop\n        /* \"contracts/Market.sol\":7095:7100  _side */\n      dup13\n        /* \"contracts/Market.sol\":7104:7105  1 */\n      0x01\n        /* \"contracts/Market.sol\":7095:7105  _side == 1 */\n      eq\n        /* \"contracts/Market.sol\":7092:7588  if(_side == 1){... */\n      iszero\n      tag_224\n      jumpi\n        /* \"contracts/Market.sol\":7147:7205  _createPair(betHash,selectedHash,betterAmount,makerAmount) */\n      tag_225\n        /* \"contracts/Market.sol\":7159:7166  betHash */\n      dup11\n        /* \"contracts/Market.sol\":7167:7179  selectedHash */\n      dup8\n        /* \"contracts/Market.sol\":7180:7192  betterAmount */\n      dup6\n        /* \"contracts/Market.sol\":7193:7204  makerAmount */\n      dup6\n        /* \"contracts/Market.sol\":7147:7158  _createPair */\n      tag_226\n        /* \"contracts/Market.sol\":7147:7205  _createPair(betHash,selectedHash,betterAmount,makerAmount) */\n      jump\t// in\n    tag_225:\n        /* \"contracts/Market.sol\":7240:7298  PairCreated(betHash,selectedHash,betterAmount,makerAmount) */\n      0x40\n      dup1\n      mload\n        /* \"#utility.yul\":6652:6677   */\n      dup13\n      dup2\n      mstore\n        /* \"#utility.yul\":6708:6710   */\n      0x20\n        /* \"#utility.yul\":6693:6711   */\n      dup2\n      add\n        /* \"#utility.yul\":6686:6720   */\n      dup10\n      swap1\n      mstore\n        /* \"#utility.yul\":6736:6754   */\n      swap1\n      dup2\n      add\n        /* \"#utility.yul\":6729:6763   */\n      dup6\n      swap1\n      mstore\n        /* \"#utility.yul\":6794:6796   */\n      0x60\n        /* \"#utility.yul\":6779:6797   */\n      dup2\n      add\n        /* \"#utility.yul\":6772:6806   */\n      dup5\n      swap1\n      mstore\n        /* \"contracts/Market.sol\":7136:7205  pairHash = _createPair(betHash,selectedHash,betterAmount,makerAmount) */\n      swap1\n      swap2\n      pop\n        /* \"contracts/Market.sol\":7240:7298  PairCreated(betHash,selectedHash,betterAmount,makerAmount) */\n      0x5de48bb383b4a2aaad84721b80d93429b813651b0eefbd59d32018cfe28215dc\n      swap1\n        /* \"#utility.yul\":6639:6642   */\n      0x80\n        /* \"#utility.yul\":6624:6643   */\n      add\n        /* \"contracts/Market.sol\":7240:7298  PairCreated(betHash,selectedHash,betterAmount,makerAmount) */\n    tag_227:\n      mload(0x40)\n      dup1\n      swap2\n      sub\n      swap1\n      log1\n        /* \"contracts/Market.sol\":6874:8333  if(offeredStake <= _stake) {... */\n      jump(tag_241)\n        /* \"contracts/Market.sol\":7092:7588  if(_side == 1){... */\n    tag_224:\n        /* \"contracts/Market.sol\":7358:7363  _side */\n      dup13\n        /* \"contracts/Market.sol\":7367:7368  2 */\n      0x02\n        /* \"contracts/Market.sol\":7358:7368  _side == 2 */\n      eq\n        /* \"contracts/Market.sol\":7355:7588  if(_side == 2){... */\n      iszero\n      tag_230\n      jumpi\n        /* \"contracts/Market.sol\":7410:7468  _createPair(selectedHash,betHash,makerAmount,betterAmount) */\n      tag_231\n        /* \"contracts/Market.sol\":7422:7434  selectedHash */\n      dup7\n        /* \"contracts/Market.sol\":7435:7442  betHash */\n      dup12\n        /* \"contracts/Market.sol\":7443:7454  makerAmount */\n      dup5\n        /* \"contracts/Market.sol\":7455:7467  betterAmount */\n      dup7\n        /* \"contracts/Market.sol\":7410:7421  _createPair */\n      tag_226\n        /* \"contracts/Market.sol\":7410:7468  _createPair(selectedHash,betHash,makerAmount,betterAmount) */\n      jump\t// in\n    tag_231:\n        /* \"contracts/Market.sol\":7503:7561  PairCreated(selectedHash,betHash,makerAmount,betterAmount) */\n      0x40\n      dup1\n      mload\n        /* \"#utility.yul\":6652:6677   */\n      dup9\n      dup2\n      mstore\n        /* \"#utility.yul\":6708:6710   */\n      0x20\n        /* \"#utility.yul\":6693:6711   */\n      dup2\n      add\n        /* \"#utility.yul\":6686:6720   */\n      dup14\n      swap1\n      mstore\n        /* \"#utility.yul\":6736:6754   */\n      swap1\n      dup2\n      add\n        /* \"#utility.yul\":6729:6763   */\n      dup5\n      swap1\n      mstore\n        /* \"#utility.yul\":6794:6796   */\n      0x60\n        /* \"#utility.yul\":6779:6797   */\n      dup2\n      add\n        /* \"#utility.yul\":6772:6806   */\n      dup6\n      swap1\n      mstore\n        /* \"contracts/Market.sol\":7399:7468  pairHash = _createPair(selectedHash,betHash,makerAmount,betterAmount) */\n      swap1\n      swap2\n      pop\n        /* \"contracts/Market.sol\":7503:7561  PairCreated(selectedHash,betHash,makerAmount,betterAmount) */\n      0x5de48bb383b4a2aaad84721b80d93429b813651b0eefbd59d32018cfe28215dc\n      swap1\n        /* \"#utility.yul\":6639:6642   */\n      0x80\n        /* \"#utility.yul\":6624:6643   */\n      add\n        /* \"contracts/Market.sol\":7503:7561  PairCreated(selectedHash,betHash,makerAmount,betterAmount) */\n      tag_227\n        /* \"#utility.yul\":6606:6812   */\n      jump\n        /* \"contracts/Market.sol\":7355:7588  if(_side == 2){... */\n    tag_230:\n        /* \"contracts/Market.sol\":6874:8333  if(offeredStake <= _stake) {... */\n      jump(tag_241)\n    tag_220:\n        /* \"contracts/Market.sol\":7677:7683  _stake */\n      dup15\n      swap3\n      pop\n        /* \"contracts/Market.sol\":7733:7744  _odds - 100 */\n      tag_234\n        /* \"contracts/Market.sol\":7741:7744  100 */\n      0x64\n        /* \"contracts/Market.sol\":7733:7738  _odds */\n      dup16\n        /* \"contracts/Market.sol\":7733:7744  _odds - 100 */\n      tag_65\n      jump\t// in\n    tag_234:\n        /* \"contracts/Market.sol\":7723:7729  _stake */\n      dup16\n        /* \"contracts/Market.sol\":7723:7745  _stake * (_odds - 100) */\n      tag_235\n      swap2\n      swap1\n      tag_192\n      jump\t// in\n    tag_235:\n        /* \"contracts/Market.sol\":7709:7745  makerAmount = _stake * (_odds - 100) */\n      swap2\n      pop\n        /* \"contracts/Market.sol\":7771:7789  makerAmount /= 100 */\n      tag_236\n        /* \"contracts/Market.sol\":7786:7789  100 */\n      0x64\n        /* \"contracts/Market.sol\":7709:7745  makerAmount = _stake * (_odds - 100) */\n      dup4\n        /* \"contracts/Market.sol\":7771:7789  makerAmount /= 100 */\n      tag_194\n      jump\t// in\n    tag_236:\n      swap2\n      pop\n        /* \"contracts/Market.sol\":7818:7823  _side */\n      dup13\n        /* \"contracts/Market.sol\":7827:7828  1 */\n      0x01\n        /* \"contracts/Market.sol\":7818:7828  _side == 1 */\n      eq\n        /* \"contracts/Market.sol\":7815:8311  if(_side == 1){... */\n      iszero\n      tag_237\n      jumpi\n        /* \"contracts/Market.sol\":7870:7928  _createPair(betHash,selectedHash,betterAmount,makerAmount) */\n      tag_225\n        /* \"contracts/Market.sol\":7882:7889  betHash */\n      dup11\n        /* \"contracts/Market.sol\":7890:7902  selectedHash */\n      dup8\n        /* \"contracts/Market.sol\":7903:7915  betterAmount */\n      dup6\n        /* \"contracts/Market.sol\":7916:7927  makerAmount */\n      dup6\n        /* \"contracts/Market.sol\":7870:7881  _createPair */\n      tag_226\n        /* \"contracts/Market.sol\":7870:7928  _createPair(betHash,selectedHash,betterAmount,makerAmount) */\n      jump\t// in\n        /* \"contracts/Market.sol\":7815:8311  if(_side == 1){... */\n    tag_237:\n        /* \"contracts/Market.sol\":8081:8086  _side */\n      dup13\n        /* \"contracts/Market.sol\":8090:8091  2 */\n      0x02\n        /* \"contracts/Market.sol\":8081:8091  _side == 2 */\n      eq\n        /* \"contracts/Market.sol\":8078:8311  if(_side == 2){... */\n      iszero\n      tag_241\n      jumpi\n        /* \"contracts/Market.sol\":8133:8191  _createPair(selectedHash,betHash,makerAmount,betterAmount) */\n      tag_242\n        /* \"contracts/Market.sol\":8145:8157  selectedHash */\n      dup7\n        /* \"contracts/Market.sol\":8158:8165  betHash */\n      dup12\n        /* \"contracts/Market.sol\":8166:8177  makerAmount */\n      dup5\n        /* \"contracts/Market.sol\":8178:8190  betterAmount */\n      dup7\n        /* \"contracts/Market.sol\":8133:8144  _createPair */\n      tag_226\n        /* \"contracts/Market.sol\":8133:8191  _createPair(selectedHash,betHash,makerAmount,betterAmount) */\n      jump\t// in\n    tag_242:\n        /* \"contracts/Market.sol\":8226:8284  PairCreated(selectedHash,betHash,makerAmount,betterAmount) */\n      0x40\n      dup1\n      mload\n        /* \"#utility.yul\":6652:6677   */\n      dup9\n      dup2\n      mstore\n        /* \"#utility.yul\":6708:6710   */\n      0x20\n        /* \"#utility.yul\":6693:6711   */\n      dup2\n      add\n        /* \"#utility.yul\":6686:6720   */\n      dup14\n      swap1\n      mstore\n        /* \"#utility.yul\":6736:6754   */\n      swap1\n      dup2\n      add\n        /* \"#utility.yul\":6729:6763   */\n      dup5\n      swap1\n      mstore\n        /* \"#utility.yul\":6794:6796   */\n      0x60\n        /* \"#utility.yul\":6779:6797   */\n      dup2\n      add\n        /* \"#utility.yul\":6772:6806   */\n      dup6\n      swap1\n      mstore\n        /* \"contracts/Market.sol\":8122:8191  pairHash = _createPair(selectedHash,betHash,makerAmount,betterAmount) */\n      swap1\n      swap2\n      pop\n        /* \"contracts/Market.sol\":8226:8284  PairCreated(selectedHash,betHash,makerAmount,betterAmount) */\n      0x5de48bb383b4a2aaad84721b80d93429b813651b0eefbd59d32018cfe28215dc\n      swap1\n        /* \"#utility.yul\":6639:6642   */\n      0x80\n        /* \"#utility.yul\":6624:6643   */\n      add\n        /* \"contracts/Market.sol\":8226:8284  PairCreated(selectedHash,betHash,makerAmount,betterAmount) */\n      mload(0x40)\n      dup1\n      swap2\n      sub\n      swap1\n      log1\n        /* \"contracts/Market.sol\":8078:8311  if(_side == 2){... */\n    tag_241:\n        /* \"contracts/Market.sol\":8354:8371  betPairs[betHash] */\n      0x00\n      dup11\n      dup2\n      mstore\n        /* \"contracts/Market.sol\":8354:8362  betPairs */\n      0x0b\n        /* \"contracts/Market.sol\":8354:8371  betPairs[betHash] */\n      0x20\n      swap1\n      dup2\n      mstore\n      0x40\n      dup1\n      dup4\n      keccak256\n        /* \"contracts/Market.sol\":8354:8386  betPairs[betHash].push(pairHash) */\n      dup1\n      sload\n      0x01\n      dup2\n      dup2\n      add\n      dup4\n      sstore\n      swap2\n      dup6\n      mstore\n      dup4\n      dup6\n      keccak256\n      add\n      dup6\n      swap1\n      sstore\n        /* \"contracts/Market.sol\":8408:8430  betPairs[selectedHash] */\n      dup10\n      dup5\n      mstore\n      dup2\n      dup5\n      keccak256\n        /* \"contracts/Market.sol\":8408:8445  betPairs[selectedHash].push(pairHash) */\n      dup1\n      sload\n      swap2\n      dup3\n      add\n      dup2\n      sstore\n      dup5\n      mstore\n      dup3\n      dup5\n      keccak256\n      add\n      dup5\n      swap1\n      sstore\n        /* \"contracts/Market.sol\":8467:8484  betsInfo[betHash] */\n      dup13\n      dup4\n      mstore\n        /* \"contracts/Market.sol\":8467:8475  betsInfo */\n      0x08\n        /* \"contracts/Market.sol\":8467:8484  betsInfo[betHash] */\n      swap1\n      swap2\n      mstore\n      dup2\n      keccak256\n        /* \"contracts/Market.sol\":8467:8492  betsInfo[betHash].matched */\n      0x03\n      add\n        /* \"contracts/Market.sol\":8467:8508  betsInfo[betHash].matched += betterAmount */\n      dup1\n      sload\n        /* \"contracts/Market.sol\":8496:8508  betterAmount */\n      dup6\n      swap3\n        /* \"contracts/Market.sol\":8354:8371  betPairs[betHash] */\n      swap1\n        /* \"contracts/Market.sol\":8467:8508  betsInfo[betHash].matched += betterAmount */\n      tag_246\n      swap1\n        /* \"contracts/Market.sol\":8496:8508  betterAmount */\n      dup5\n      swap1\n        /* \"contracts/Market.sol\":8467:8508  betsInfo[betHash].matched += betterAmount */\n      tag_67\n      jump\t// in\n    tag_246:\n      swap1\n      swap2\n      sstore\n      pop\n      pop\n        /* \"contracts/Market.sol\":8530:8552  betsInfo[selectedHash] */\n      0x00\n      dup7\n      dup2\n      mstore\n        /* \"contracts/Market.sol\":8530:8538  betsInfo */\n      0x08\n        /* \"contracts/Market.sol\":8530:8552  betsInfo[selectedHash] */\n      0x20\n      mstore\n      0x40\n      dup2\n      keccak256\n        /* \"contracts/Market.sol\":8530:8560  betsInfo[selectedHash].matched */\n      0x03\n      add\n        /* \"contracts/Market.sol\":8530:8575  betsInfo[selectedHash].matched += makerAmount */\n      dup1\n      sload\n        /* \"contracts/Market.sol\":8564:8575  makerAmount */\n      dup5\n      swap3\n        /* \"contracts/Market.sol\":8530:8552  betsInfo[selectedHash] */\n      swap1\n        /* \"contracts/Market.sol\":8530:8575  betsInfo[selectedHash].matched += makerAmount */\n      tag_247\n      swap1\n        /* \"contracts/Market.sol\":8564:8575  makerAmount */\n      dup5\n      swap1\n        /* \"contracts/Market.sol\":8530:8575  betsInfo[selectedHash].matched += makerAmount */\n      tag_67\n      jump\t// in\n    tag_247:\n      swap1\n      swap2\n      sstore\n      pop\n      pop\n        /* \"contracts/Market.sol\":8631:8653  betsInfo[selectedHash] */\n      0x00\n      dup7\n      dup2\n      mstore\n        /* \"contracts/Market.sol\":8631:8639  betsInfo */\n      0x08\n        /* \"contracts/Market.sol\":8631:8653  betsInfo[selectedHash] */\n      0x20\n      mstore\n      0x40\n      swap1\n      keccak256\n        /* \"contracts/Market.sol\":8631:8661  betsInfo[selectedHash].matched */\n      0x03\n      dup2\n      add\n      sload\n        /* \"contracts/Market.sol\":8600:8628  betsInfo[selectedHash].stake */\n      0x02\n      swap1\n      swap2\n      add\n      sload\n        /* \"contracts/Market.sol\":8600:8661  betsInfo[selectedHash].stake - betsInfo[selectedHash].matched */\n      tag_248\n      swap2\n        /* \"contracts/Market.sol\":8631:8661  betsInfo[selectedHash].matched */\n      swap1\n        /* \"contracts/Market.sol\":8600:8661  betsInfo[selectedHash].stake - betsInfo[selectedHash].matched */\n      tag_65\n      jump\t// in\n    tag_248:\n        /* \"contracts/Market.sol\":8597:8750  if(betsInfo[selectedHash].stake - betsInfo[selectedHash].matched == 0) {... */\n      tag_249\n      jumpi\n        /* \"contracts/Market.sol\":8701:8712  pendingBets */\n      0x06\n        /* \"contracts/Market.sol\":8713:8726  selectedIndex */\n      dup9\n        /* \"contracts/Market.sol\":8701:8727  pendingBets[selectedIndex] */\n      dup2\n      sload\n      dup2\n      lt\n      tag_250\n      jumpi\n      mstore(0x00, shl(0xe0, 0x4e487b71))\n      mstore(0x04, 0x32)\n      revert(0x00, 0x24)\n    tag_250:\n      0x00\n      swap2\n      dup3\n      mstore\n      0x20\n      dup3\n      keccak256\n      add\n        /* \"contracts/Market.sol\":8694:8727  delete pendingBets[selectedIndex] */\n      sstore\n        /* \"contracts/Market.sol\":8597:8750  if(betsInfo[selectedHash].stake - betsInfo[selectedHash].matched == 0) {... */\n    tag_249:\n        /* \"contracts/Market.sol\":8771:8796  _remStake -= betterAmount */\n      tag_252\n        /* \"contracts/Market.sol\":8784:8796  betterAmount */\n      dup4\n        /* \"contracts/Market.sol\":8771:8796  _remStake -= betterAmount */\n      dup11\n      tag_65\n      jump\t// in\n    tag_252:\n      swap9\n      pop\n        /* \"contracts/Market.sol\":6402:8930  if(maxOdds > _odds || (maxOdds > 0 && _instant)) {... */\n      pop\n      pop\n      pop\n      pop\n      pop\n      pop\n      jump(tag_253)\n    tag_213:\n      pop\n      pop\n        /* \"contracts/Market.sol\":8859:8870  pendingBets */\n      0x06\n        /* \"contracts/Market.sol\":8859:8884  pendingBets.push(betHash) */\n      dup1\n      sload\n      0x01\n      dup2\n      add\n      dup3\n      sstore\n      0x00\n      swap2\n      swap1\n      swap2\n      mstore\n      0xf652222313e28459528d920b65115c16c04f3efc82aaedc97be59f3f377c0d3f\n      add\n      dup3\n      swap1\n      sstore\n        /* \"contracts/Market.sol\":8906:8911  break */\n      jump(tag_198)\n        /* \"contracts/Market.sol\":6402:8930  if(maxOdds > _odds || (maxOdds > 0 && _instant)) {... */\n    tag_253:\n        /* \"contracts/Market.sol\":5859:8944  while(_remStake >= app.minStake()){... */\n      pop\n      pop\n      jump(tag_197)\n    tag_198:\n        /* \"contracts/Market.sol\":5782:9018  if(pendingBets.length > 0){... */\n      pop\n      jump(tag_255)\n    tag_196:\n        /* \"contracts/Market.sol\":8982:8993  pendingBets */\n      0x06\n        /* \"contracts/Market.sol\":8982:9007  pendingBets.push(betHash) */\n      dup1\n      sload\n      0x01\n      dup2\n      add\n      dup3\n      sstore\n      0x00\n      swap2\n      swap1\n      swap2\n      mstore\n      0xf652222313e28459528d920b65115c16c04f3efc82aaedc97be59f3f377c0d3f\n      add\n      dup2\n      swap1\n      sstore\n        /* \"contracts/Market.sol\":5782:9018  if(pendingBets.length > 0){... */\n    tag_255:\n        /* \"contracts/Market.sol\":9032:9100  BetCreated(msg.sender, address(this), betHash, _stake, _odds, _side) */\n      0x40\n      dup1\n      mload\n        /* \"contracts/Market.sol\":9043:9053  msg.sender */\n      caller\n        /* \"#utility.yul\":3962:3996   */\n      dup2\n      mstore\n        /* \"contracts/Market.sol\":9063:9067  this */\n      address\n        /* \"#utility.yul\":4027:4029   */\n      0x20\n        /* \"#utility.yul\":4012:4030   */\n      dup3\n      add\n        /* \"#utility.yul\":4005:4048   */\n      mstore\n        /* \"#utility.yul\":4064:4082   */\n      swap1\n      dup2\n      add\n        /* \"#utility.yul\":4057:4091   */\n      dup3\n      swap1\n      mstore\n        /* \"#utility.yul\":4122:4124   */\n      0x60\n        /* \"#utility.yul\":4107:4125   */\n      dup2\n      add\n        /* \"#utility.yul\":4100:4134   */\n      dup8\n      swap1\n      mstore\n        /* \"#utility.yul\":4165:4168   */\n      0x80\n        /* \"#utility.yul\":4150:4169   */\n      dup2\n      add\n        /* \"#utility.yul\":4143:4178   */\n      dup7\n      swap1\n      mstore\n        /* \"#utility.yul\":3942:3945   */\n      0xa0\n        /* \"#utility.yul\":4194:4213   */\n      dup2\n      add\n        /* \"#utility.yul\":4187:4222   */\n      dup6\n      swap1\n      mstore\n        /* \"contracts/Market.sol\":9032:9100  BetCreated(msg.sender, address(this), betHash, _stake, _odds, _side) */\n      0x618f358bb45538682ade624a4a1959053d9dabd20fe300508034b879681b37be\n      swap1\n        /* \"#utility.yul\":3911:3914   */\n      0xc0\n        /* \"#utility.yul\":3896:3915   */\n      add\n        /* \"contracts/Market.sol\":9032:9100  BetCreated(msg.sender, address(this), betHash, _stake, _odds, _side) */\n      mload(0x40)\n      dup1\n      swap2\n      sub\n      swap1\n      log1\n        /* \"contracts/Market.sol\":9117:9124  betHash */\n      swap8\n        /* \"contracts/Market.sol\":4927:9131  function addBet(... */\n      swap7\n      pop\n      pop\n      pop\n      pop\n      pop\n      pop\n      pop\n      jump\t// out\n        /* \"contracts/Market.sol\":3837:4327  function settle(uint256 _winningSide)... */\n    tag_51:\n        /* \"contracts/Market.sol\":1275:1280  owner */\n      sload(0x01)\n        /* \"contracts/Market.sol\":3945:3949  bool */\n      0x00\n      swap1\n      sub(shl(0xa0, 0x01), 0x01)\n        /* \"contracts/Market.sol\":1275:1280  owner */\n      and\n        /* \"contracts/Market.sol\":1261:1271  msg.sender */\n      caller\n        /* \"contracts/Market.sol\":1261:1280  msg.sender == owner */\n      eq\n      dup1\n        /* \"contracts/Market.sol\":1261:1343  msg.sender == owner ... */\n      tag_262\n      jumpi\n      pop\n        /* \"contracts/Market.sol\":1324:1327  app */\n      immutable(\"0x911a39fbf665a24ad3b6efc185d4b936bbda1900793ae2f7c00f4d18bdd96685\")\n      sub(shl(0xa0, 0x01), 0x01)\n        /* \"contracts/Market.sol\":1324:1341  app.contractOwner */\n      and\n      0xce606ee0\n        /* \"contracts/Market.sol\":1324:1343  app.contractOwner() */\n      mload(0x40)\n      dup2\n      0xffffffff\n      and\n      0xe0\n      shl\n      dup2\n      mstore\n      0x04\n      add\n      0x20\n      mload(0x40)\n      dup1\n      dup4\n      sub\n      dup2\n      dup7\n      dup1\n      extcodesize\n      iszero\n      dup1\n      iszero\n      tag_263\n      jumpi\n      0x00\n      dup1\n      revert\n    tag_263:\n      pop\n      gas\n      staticcall\n      iszero\n      dup1\n      iszero\n      tag_265\n      jumpi\n      returndatasize\n      0x00\n      dup1\n      returndatacopy\n      revert(0x00, returndatasize)\n    tag_265:\n      pop\n      pop\n      pop\n      pop\n      mload(0x40)\n      returndatasize\n      not(0x1f)\n      0x1f\n      dup3\n      add\n      and\n      dup3\n      add\n      dup1\n      0x40\n      mstore\n      pop\n      dup2\n      add\n      swap1\n      tag_266\n      swap2\n      swap1\n      tag_135\n      jump\t// in\n    tag_266:\n      sub(shl(0xa0, 0x01), 0x01)\n        /* \"contracts/Market.sol\":1310:1343  msg.sender == app.contractOwner() */\n      and\n        /* \"contracts/Market.sol\":1310:1320  msg.sender */\n      caller\n      sub(shl(0xa0, 0x01), 0x01)\n        /* \"contracts/Market.sol\":1310:1343  msg.sender == app.contractOwner() */\n      and\n      eq\n        /* \"contracts/Market.sol\":1261:1343  msg.sender == owner ... */\n    tag_262:\n        /* \"contracts/Market.sol\":1261:1392  msg.sender == owner ... */\n      dup1\n      tag_267\n      jumpi\n      pop\n        /* \"contracts/Market.sol\":1385:1392  factory */\n      and(sub(shl(0xa0, 0x01), 0x01), sload(0x02))\n        /* \"contracts/Market.sol\":1371:1381  msg.sender */\n      caller\n        /* \"contracts/Market.sol\":1371:1392  msg.sender == factory */\n      eq\n        /* \"contracts/Market.sol\":1261:1392  msg.sender == owner ... */\n    tag_267:\n        /* \"contracts/Market.sol\":1240:1420  require(... */\n      tag_268\n      jumpi\n      mload(0x40)\n      shl(0xe5, 0x461bcd)\n      dup2\n      mstore\n      0x04\n      add\n      tag_62\n      swap1\n      tag_139\n      jump\t// in\n    tag_268:\n        /* \"contracts/Market.sol\":3969:3975  status */\n      sload(0x03)\n        /* \"contracts/Market.sol\":3969:3980  status == 0 */\n      iszero\n      dup1\n        /* \"contracts/Market.sol\":3969:3995  status == 0 || status == 4 */\n      tag_271\n      jumpi\n      pop\n        /* \"contracts/Market.sol\":3984:3990  status */\n      sload(0x03)\n        /* \"contracts/Market.sol\":3994:3995  4 */\n      0x04\n        /* \"contracts/Market.sol\":3984:3995  status == 4 */\n      eq\n        /* \"contracts/Market.sol\":3969:3995  status == 0 || status == 4 */\n    tag_271:\n        /* \"contracts/Market.sol\":3968:4040  (status == 0 || status == 4) && (_winningSide == 1 || _winningSide == 2) */\n      dup1\n      iszero\n      tag_273\n      jumpi\n      pop\n        /* \"contracts/Market.sol\":4001:4013  _winningSide */\n      dup2\n        /* \"contracts/Market.sol\":4017:4018  1 */\n      0x01\n        /* \"contracts/Market.sol\":4001:4018  _winningSide == 1 */\n      eq\n        /* \"contracts/Market.sol\":4001:4039  _winningSide == 1 || _winningSide == 2 */\n      dup1\n      tag_273\n      jumpi\n      pop\n        /* \"contracts/Market.sol\":4022:4034  _winningSide */\n      dup2\n        /* \"contracts/Market.sol\":4038:4039  2 */\n      0x02\n        /* \"contracts/Market.sol\":4022:4039  _winningSide == 2 */\n      eq\n        /* \"contracts/Market.sol\":4001:4039  _winningSide == 1 || _winningSide == 2 */\n    tag_273:\n        /* \"contracts/Market.sol\":3965:4312  if((status == 0 || status == 4) && (_winningSide == 1 || _winningSide == 2)){... */\n      iszero\n      tag_274\n      jumpi\n        /* \"contracts/Market.sol\":4055:4061  status */\n      0x03\n        /* \"contracts/Market.sol\":4055:4076  status = _winningSide */\n      dup3\n      swap1\n      sstore\n        /* \"contracts/Market.sol\":4109:4114  pairs */\n      0x04\n        /* \"contracts/Market.sol\":4109:4121  pairs.length */\n      sload\n        /* \"contracts/Market.sol\":4090:4106  uint pairsLength */\n      0x00\n        /* \"contracts/Market.sol\":4135:4226  for(uint i = 0; i < pairsLength; i++){... */\n    tag_275:\n        /* \"contracts/Market.sol\":4155:4166  pairsLength */\n      dup2\n        /* \"contracts/Market.sol\":4151:4152  i */\n      dup2\n        /* \"contracts/Market.sol\":4151:4166  i < pairsLength */\n      lt\n        /* \"contracts/Market.sol\":4135:4226  for(uint i = 0; i < pairsLength; i++){... */\n      iszero\n      tag_276\n      jumpi\n        /* \"contracts/Market.sol\":4190:4211  _settlePair(pairs[i]) */\n      tag_278\n        /* \"contracts/Market.sol\":4202:4207  pairs */\n      0x04\n        /* \"contracts/Market.sol\":4208:4209  i */\n      dup3\n        /* \"contracts/Market.sol\":4202:4210  pairs[i] */\n      dup2\n      sload\n      dup2\n      lt\n      tag_279\n      jumpi\n      mstore(0x00, shl(0xe0, 0x4e487b71))\n      mstore(0x04, 0x32)\n      revert(0x00, 0x24)\n    tag_279:\n      swap1\n      0x00\n      mstore\n      keccak256(0x00, 0x20)\n      add\n      sload\n        /* \"contracts/Market.sol\":4190:4201  _settlePair */\n      tag_125\n        /* \"contracts/Market.sol\":4190:4211  _settlePair(pairs[i]) */\n      jump\t// in\n    tag_278:\n      pop\n        /* \"contracts/Market.sol\":4168:4171  i++ */\n      dup1\n      tag_281\n      dup2\n      tag_77\n      jump\t// in\n    tag_281:\n      swap2\n      pop\n      pop\n        /* \"contracts/Market.sol\":4135:4226  for(uint i = 0; i < pairsLength; i++){... */\n      jump(tag_275)\n    tag_276:\n      pop\n        /* \"contracts/Market.sol\":4246:4250  true */\n      0x01\n      swap4\n        /* \"contracts/Market.sol\":3837:4327  function settle(uint256 _winningSide)... */\n      swap3\n      pop\n      pop\n      pop\n      jump\t// out\n        /* \"contracts/Market.sol\":3965:4312  if((status == 0 || status == 4) && (_winningSide == 1 || _winningSide == 2)){... */\n    tag_274:\n      pop\n        /* \"contracts/Market.sol\":4296:4301  false */\n      0x00\n        /* \"contracts/Market.sol\":3837:4327  function settle(uint256 _winningSide)... */\n      swap2\n      swap1\n      pop\n      jump\t// out\n        /* \"contracts/Market.sol\":4719:4921  function start() external override onlyFactory returns(bool){... */\n    tag_54:\n        /* \"contracts/Market.sol\":1275:1280  owner */\n      sload(0x01)\n        /* \"contracts/Market.sol\":4774:4778  bool */\n      0x00\n      swap1\n      sub(shl(0xa0, 0x01), 0x01)\n        /* \"contracts/Market.sol\":1275:1280  owner */\n      and\n        /* \"contracts/Market.sol\":1261:1271  msg.sender */\n      caller\n        /* \"contracts/Market.sol\":1261:1280  msg.sender == owner */\n      eq\n      dup1\n        /* \"contracts/Market.sol\":1261:1343  msg.sender == owner ... */\n      tag_284\n      jumpi\n      pop\n        /* \"contracts/Market.sol\":1324:1327  app */\n      immutable(\"0x911a39fbf665a24ad3b6efc185d4b936bbda1900793ae2f7c00f4d18bdd96685\")\n      sub(shl(0xa0, 0x01), 0x01)\n        /* \"contracts/Market.sol\":1324:1341  app.contractOwner */\n      and\n      0xce606ee0\n        /* \"contracts/Market.sol\":1324:1343  app.contractOwner() */\n      mload(0x40)\n      dup2\n      0xffffffff\n      and\n      0xe0\n      shl\n      dup2\n      mstore\n      0x04\n      add\n      0x20\n      mload(0x40)\n      dup1\n      dup4\n      sub\n      dup2\n      dup7\n      dup1\n      extcodesize\n      iszero\n      dup1\n      iszero\n      tag_285\n      jumpi\n      0x00\n      dup1\n      revert\n    tag_285:\n      pop\n      gas\n      staticcall\n      iszero\n      dup1\n      iszero\n      tag_287\n      jumpi\n      returndatasize\n      0x00\n      dup1\n      returndatacopy\n      revert(0x00, returndatasize)\n    tag_287:\n      pop\n      pop\n      pop\n      pop\n      mload(0x40)\n      returndatasize\n      not(0x1f)\n      0x1f\n      dup3\n      add\n      and\n      dup3\n      add\n      dup1\n      0x40\n      mstore\n      pop\n      dup2\n      add\n      swap1\n      tag_288\n      swap2\n      swap1\n      tag_135\n      jump\t// in\n    tag_288:\n      sub(shl(0xa0, 0x01), 0x01)\n        /* \"contracts/Market.sol\":1310:1343  msg.sender == app.contractOwner() */\n      and\n        /* \"contracts/Market.sol\":1310:1320  msg.sender */\n      caller\n      sub(shl(0xa0, 0x01), 0x01)\n        /* \"contracts/Market.sol\":1310:1343  msg.sender == app.contractOwner() */\n      and\n      eq\n        /* \"contracts/Market.sol\":1261:1343  msg.sender == owner ... */\n    tag_284:\n        /* \"contracts/Market.sol\":1261:1392  msg.sender == owner ... */\n      dup1\n      tag_289\n      jumpi\n      pop\n        /* \"contracts/Market.sol\":1385:1392  factory */\n      and(sub(shl(0xa0, 0x01), 0x01), sload(0x02))\n        /* \"contracts/Market.sol\":1371:1381  msg.sender */\n      caller\n        /* \"contracts/Market.sol\":1371:1392  msg.sender == factory */\n      eq\n        /* \"contracts/Market.sol\":1261:1392  msg.sender == owner ... */\n    tag_289:\n        /* \"contracts/Market.sol\":1240:1420  require(... */\n      tag_290\n      jumpi\n      mload(0x40)\n      shl(0xe5, 0x461bcd)\n      dup2\n      mstore\n      0x04\n      add\n      tag_62\n      swap1\n      tag_139\n      jump\t// in\n    tag_290:\n        /* \"contracts/Market.sol\":4792:4798  status */\n      sload(0x03)\n        /* \"contracts/Market.sol\":4789:4915  if(status == 0){... */\n      tag_142\n      jumpi\n      pop\n        /* \"contracts/Market.sol\":4827:4828  4 */\n      0x04\n        /* \"contracts/Market.sol\":4818:4824  status */\n      0x03\n        /* \"contracts/Market.sol\":4818:4828  status = 4 */\n      sstore\n        /* \"contracts/Market.sol\":4849:4853  true */\n      0x01\n        /* \"contracts/Market.sol\":4333:4713  function cancelMarket() external override onlyFactory returns(bool) ... */\n      swap1\n      jump\t// out\n        /* \"contracts/Market.sol\":9866:11225  function _settlePair(bytes32 _pair) private nonReentrant returns(bool) {... */\n    tag_125:\n        /* \"contracts/Market.sol\":9931:9935  bool */\n      0x00\n        /* \"@openzeppelin/contracts/security/ReentrancyGuard.sol\":1744:1745  2 */\n      0x02\n        /* \"@openzeppelin/contracts/security/ReentrancyGuard.sol\":2325:2332  _status */\n      sload(0x00)\n        /* \"@openzeppelin/contracts/security/ReentrancyGuard.sol\":2325:2344  _status != _ENTERED */\n      eq\n      iszero\n        /* \"@openzeppelin/contracts/security/ReentrancyGuard.sol\":2317:2380  require(_status != _ENTERED, \"ReentrancyGuard: reentrant call\") */\n      tag_297\n      jumpi\n      mload(0x40)\n      shl(0xe5, 0x461bcd)\n      dup2\n      mstore\n        /* \"#utility.yul\":9330:9332   */\n      0x20\n        /* \"@openzeppelin/contracts/security/ReentrancyGuard.sol\":2317:2380  require(_status != _ENTERED, \"ReentrancyGuard: reentrant call\") */\n      0x04\n      dup3\n      add\n        /* \"#utility.yul\":9312:9333   */\n      mstore\n        /* \"#utility.yul\":9369:9371   */\n      0x1f\n        /* \"#utility.yul\":9349:9367   */\n      0x24\n      dup3\n      add\n        /* \"#utility.yul\":9342:9372   */\n      mstore\n        /* \"#utility.yul\":9408:9441   */\n      0x5265656e7472616e637947756172643a207265656e7472616e742063616c6c00\n        /* \"#utility.yul\":9388:9406   */\n      0x44\n      dup3\n      add\n        /* \"#utility.yul\":9381:9442   */\n      mstore\n        /* \"#utility.yul\":9459:9477   */\n      0x64\n      add\n        /* \"@openzeppelin/contracts/security/ReentrancyGuard.sol\":2317:2380  require(_status != _ENTERED, \"ReentrancyGuard: reentrant call\") */\n      tag_62\n        /* \"#utility.yul\":9302:9483   */\n      jump\n        /* \"@openzeppelin/contracts/security/ReentrancyGuard.sol\":2317:2380  require(_status != _ENTERED, \"ReentrancyGuard: reentrant call\") */\n    tag_297:\n        /* \"@openzeppelin/contracts/security/ReentrancyGuard.sol\":1744:1745  2 */\n      0x02\n        /* \"@openzeppelin/contracts/security/ReentrancyGuard.sol\":2455:2462  _status */\n      0x00\n        /* \"@openzeppelin/contracts/security/ReentrancyGuard.sol\":2455:2473  _status = _ENTERED */\n      swap1\n      dup2\n      sstore\n        /* \"contracts/Market.sol\":9950:9966  pairsInfo[_pair] */\n      dup3\n      dup2\n      mstore\n        /* \"contracts/Market.sol\":9950:9959  pairsInfo */\n      0x0a\n        /* \"contracts/Market.sol\":9950:9966  pairsInfo[_pair] */\n      0x20\n      mstore\n      0x40\n      swap1\n      keccak256\n        /* \"contracts/Market.sol\":9950:9974  pairsInfo[_pair].settled */\n      0x04\n      add\n      sload\n      0xff\n      and\n        /* \"contracts/Market.sol\":9947:10012  if(pairsInfo[_pair].settled){... */\n      iszero\n      tag_300\n      jumpi\n      pop\n        /* \"contracts/Market.sol\":9996:10001  false */\n      0x00\n        /* \"contracts/Market.sol\":9989:10001  return false */\n      jump(tag_93)\n        /* \"contracts/Market.sol\":9947:10012  if(pairsInfo[_pair].settled){... */\n    tag_300:\n        /* \"contracts/Market.sol\":10021:10035  address winner */\n      0x00\n        /* \"contracts/Market.sol\":10045:10062  address affiliate */\n      dup1\n        /* \"contracts/Market.sol\":10072:10089  uint256 winAmount */\n      0x00\n        /* \"contracts/Market.sol\":10099:10116  uint256 vigAmount */\n      dup1\n        /* \"contracts/Market.sol\":10129:10135  status */\n      sload(0x03)\n        /* \"contracts/Market.sol\":10139:10140  1 */\n      0x01\n        /* \"contracts/Market.sol\":10129:10140  status == 1 */\n      eq\n        /* \"contracts/Market.sol\":10126:10860  if(status == 1){... */\n      iszero\n      tag_301\n      jumpi\n        /* \"contracts/Market.sol\":10164:10199  betsInfo[pairsInfo[_pair].betHashA] */\n      0x00\n        /* \"contracts/Market.sol\":10173:10189  pairsInfo[_pair] */\n      dup7\n      dup2\n      mstore\n        /* \"contracts/Market.sol\":10173:10182  pairsInfo */\n      0x0a\n        /* \"contracts/Market.sol\":10173:10189  pairsInfo[_pair] */\n      0x20\n      swap1\n      dup2\n      mstore\n      0x40\n      dup1\n      dup4\n      keccak256\n        /* \"contracts/Market.sol\":10173:10198  pairsInfo[_pair].betHashA */\n      sload\n        /* \"contracts/Market.sol\":10164:10199  betsInfo[pairsInfo[_pair].betHashA] */\n      dup4\n      mstore\n        /* \"contracts/Market.sol\":10164:10172  betsInfo */\n      0x08\n        /* \"contracts/Market.sol\":10164:10199  betsInfo[pairsInfo[_pair].betHashA] */\n      dup3\n      mstore\n      swap2\n      dup3\n      swap1\n      keccak256\n        /* \"contracts/Market.sol\":10164:10206  betsInfo[pairsInfo[_pair].betHashA].better */\n      sload\n        /* \"contracts/Market.sol\":10294:10303  app.vig() */\n      dup3\n      mload\n      shl(0xe0, 0x55c4a8bf)\n      dup2\n      mstore\n      swap3\n      mload\n      sub(shl(0xa0, 0x01), 0x01)\n        /* \"contracts/Market.sol\":10164:10206  betsInfo[pairsInfo[_pair].betHashA].better */\n      swap2\n      dup3\n      and\n      swap8\n      pop\n        /* \"contracts/Market.sol\":10307:10310  100 */\n      0x64\n      swap4\n        /* \"contracts/Market.sol\":10294:10297  app */\n      immutable(\"0x911a39fbf665a24ad3b6efc185d4b936bbda1900793ae2f7c00f4d18bdd96685\")\n        /* \"contracts/Market.sol\":10294:10301  app.vig */\n      swap1\n      swap3\n      and\n      swap3\n      0x55c4a8bf\n      swap3\n        /* \"contracts/Market.sol\":10294:10303  app.vig() */\n      0x04\n      dup1\n      dup3\n      add\n      swap4\n      swap2\n      dup3\n      swap1\n      sub\n      add\n      dup2\n        /* \"contracts/Market.sol\":10294:10301  app.vig */\n      dup7\n        /* \"contracts/Market.sol\":10294:10303  app.vig() */\n      dup1\n      extcodesize\n      iszero\n      dup1\n      iszero\n      tag_302\n      jumpi\n      0x00\n      dup1\n      revert\n    tag_302:\n      pop\n      gas\n      staticcall\n      iszero\n      dup1\n      iszero\n      tag_304\n      jumpi\n      returndatasize\n      0x00\n      dup1\n      returndatacopy\n      revert(0x00, returndatasize)\n    tag_304:\n      pop\n      pop\n      pop\n      pop\n      mload(0x40)\n      returndatasize\n      not(0x1f)\n      0x1f\n      dup3\n      add\n      and\n      dup3\n      add\n      dup1\n      0x40\n      mstore\n      pop\n      dup2\n      add\n      swap1\n      tag_305\n      swap2\n      swap1\n      tag_100\n      jump\t// in\n    tag_305:\n        /* \"contracts/Market.sol\":10288:10303  100 - app.vig() */\n      tag_306\n      swap1\n        /* \"contracts/Market.sol\":10288:10291  100 */\n      0x64\n        /* \"contracts/Market.sol\":10288:10303  100 - app.vig() */\n      tag_65\n      jump\t// in\n    tag_306:\n        /* \"contracts/Market.sol\":10260:10276  pairsInfo[_pair] */\n      0x00\n      dup9\n      dup2\n      mstore\n        /* \"contracts/Market.sol\":10260:10269  pairsInfo */\n      0x0a\n        /* \"contracts/Market.sol\":10260:10276  pairsInfo[_pair] */\n      0x20\n      mstore\n      0x40\n      swap1\n      keccak256\n        /* \"contracts/Market.sol\":10260:10284  pairsInfo[_pair].amountB */\n      0x03\n      add\n      sload\n        /* \"contracts/Market.sol\":10260:10304  pairsInfo[_pair].amountB * (100 - app.vig()) */\n      tag_307\n      swap2\n      swap1\n      tag_192\n      jump\t// in\n    tag_307:\n        /* \"contracts/Market.sol\":10260:10310  pairsInfo[_pair].amountB * (100 - app.vig()) / 100 */\n      tag_308\n      swap2\n      swap1\n      tag_194\n      jump\t// in\n    tag_308:\n        /* \"contracts/Market.sol\":10232:10248  pairsInfo[_pair] */\n      0x00\n      dup8\n      dup2\n      mstore\n        /* \"contracts/Market.sol\":10232:10241  pairsInfo */\n      0x0a\n        /* \"contracts/Market.sol\":10232:10248  pairsInfo[_pair] */\n      0x20\n      mstore\n      0x40\n      swap1\n      keccak256\n        /* \"contracts/Market.sol\":10232:10256  pairsInfo[_pair].amountA */\n      0x02\n      add\n      sload\n        /* \"contracts/Market.sol\":10232:10311  pairsInfo[_pair].amountA + (pairsInfo[_pair].amountB * (100 - app.vig()) / 100) */\n      tag_309\n      swap2\n      swap1\n      tag_67\n      jump\t// in\n    tag_309:\n        /* \"contracts/Market.sol\":10220:10311  winAmount = pairsInfo[_pair].amountA + (pairsInfo[_pair].amountB * (100 - app.vig()) / 100) */\n      swap2\n      pop\n        /* \"contracts/Market.sol\":10376:10379  100 */\n      0x64\n        /* \"contracts/Market.sol\":10364:10367  app */\n      immutable(\"0x911a39fbf665a24ad3b6efc185d4b936bbda1900793ae2f7c00f4d18bdd96685\")\n      sub(shl(0xa0, 0x01), 0x01)\n        /* \"contracts/Market.sol\":10364:10371  app.vig */\n      and\n      0x55c4a8bf\n        /* \"contracts/Market.sol\":10364:10373  app.vig() */\n      mload(0x40)\n      dup2\n      0xffffffff\n      and\n      0xe0\n      shl\n      dup2\n      mstore\n      0x04\n      add\n      0x20\n      mload(0x40)\n      dup1\n      dup4\n      sub\n      dup2\n      dup7\n      dup1\n      extcodesize\n      iszero\n      dup1\n      iszero\n      tag_310\n      jumpi\n      0x00\n      dup1\n      revert\n    tag_310:\n      pop\n      gas\n      staticcall\n      iszero\n      dup1\n      iszero\n      tag_312\n      jumpi\n      returndatasize\n      0x00\n      dup1\n      returndatacopy\n      revert(0x00, returndatasize)\n    tag_312:\n      pop\n      pop\n      pop\n      pop\n      mload(0x40)\n      returndatasize\n      not(0x1f)\n      0x1f\n      dup3\n      add\n      and\n      dup3\n      add\n      dup1\n      0x40\n      mstore\n      pop\n      dup2\n      add\n      swap1\n      tag_313\n      swap2\n      swap1\n      tag_100\n      jump\t// in\n    tag_313:\n        /* \"contracts/Market.sol\":10337:10353  pairsInfo[_pair] */\n      0x00\n      dup9\n      dup2\n      mstore\n        /* \"contracts/Market.sol\":10337:10346  pairsInfo */\n      0x0a\n        /* \"contracts/Market.sol\":10337:10353  pairsInfo[_pair] */\n      0x20\n      mstore\n      0x40\n      swap1\n      keccak256\n        /* \"contracts/Market.sol\":10337:10361  pairsInfo[_pair].amountB */\n      0x03\n      add\n      sload\n        /* \"contracts/Market.sol\":10337:10373  pairsInfo[_pair].amountB * app.vig() */\n      tag_314\n      swap2\n      swap1\n      tag_192\n      jump\t// in\n    tag_314:\n        /* \"contracts/Market.sol\":10337:10379  pairsInfo[_pair].amountB * app.vig() / 100 */\n      tag_315\n      swap2\n      swap1\n      tag_194\n      jump\t// in\n    tag_315:\n        /* \"contracts/Market.sol\":10405:10440  betsInfo[pairsInfo[_pair].betHashA] */\n      0x00\n        /* \"contracts/Market.sol\":10414:10430  pairsInfo[_pair] */\n      dup8\n      dup2\n      mstore\n        /* \"contracts/Market.sol\":10414:10423  pairsInfo */\n      0x0a\n        /* \"contracts/Market.sol\":10414:10430  pairsInfo[_pair] */\n      0x20\n      swap1\n      dup2\n      mstore\n      0x40\n      dup1\n      dup4\n      keccak256\n        /* \"contracts/Market.sol\":10414:10439  pairsInfo[_pair].betHashA */\n      sload\n        /* \"contracts/Market.sol\":10405:10440  betsInfo[pairsInfo[_pair].betHashA] */\n      dup4\n      mstore\n        /* \"contracts/Market.sol\":10405:10413  betsInfo */\n      0x08\n        /* \"contracts/Market.sol\":10405:10440  betsInfo[pairsInfo[_pair].betHashA] */\n      swap1\n      swap2\n      mstore\n      swap1\n      keccak256\n        /* \"contracts/Market.sol\":10405:10450  betsInfo[pairsInfo[_pair].betHashA].affiliate */\n      0x01\n      add\n      sload\n      sub(shl(0xa0, 0x01), 0x01)\n      and\n      swap4\n      pop\n        /* \"contracts/Market.sol\":10325:10379  vigAmount = pairsInfo[_pair].amountB * app.vig() / 100 */\n      swap1\n      pop\n        /* \"contracts/Market.sol\":10126:10860  if(status == 1){... */\n      jump(tag_332)\n    tag_301:\n        /* \"contracts/Market.sol\":10478:10484  status */\n      sload(0x03)\n        /* \"contracts/Market.sol\":10488:10489  2 */\n      0x02\n        /* \"contracts/Market.sol\":10478:10489  status == 2 */\n      eq\n        /* \"contracts/Market.sol\":10475:10860  if(status == 2){... */\n      iszero\n      tag_317\n      jumpi\n        /* \"contracts/Market.sol\":10513:10548  betsInfo[pairsInfo[_pair].betHashB] */\n      0x00\n        /* \"contracts/Market.sol\":10522:10538  pairsInfo[_pair] */\n      dup7\n      dup2\n      mstore\n        /* \"contracts/Market.sol\":10522:10531  pairsInfo */\n      0x0a\n        /* \"contracts/Market.sol\":10522:10538  pairsInfo[_pair] */\n      0x20\n      swap1\n      dup2\n      mstore\n      0x40\n      dup1\n      dup4\n      keccak256\n        /* \"contracts/Market.sol\":10522:10547  pairsInfo[_pair].betHashB */\n      0x01\n      add\n      sload\n        /* \"contracts/Market.sol\":10513:10548  betsInfo[pairsInfo[_pair].betHashB] */\n      dup4\n      mstore\n        /* \"contracts/Market.sol\":10513:10521  betsInfo */\n      0x08\n        /* \"contracts/Market.sol\":10513:10548  betsInfo[pairsInfo[_pair].betHashB] */\n      dup3\n      mstore\n      swap2\n      dup3\n      swap1\n      keccak256\n        /* \"contracts/Market.sol\":10513:10555  betsInfo[pairsInfo[_pair].betHashB].better */\n      sload\n        /* \"contracts/Market.sol\":10643:10652  app.vig() */\n      dup3\n      mload\n      shl(0xe0, 0x55c4a8bf)\n      dup2\n      mstore\n      swap3\n      mload\n      sub(shl(0xa0, 0x01), 0x01)\n        /* \"contracts/Market.sol\":10513:10555  betsInfo[pairsInfo[_pair].betHashB].better */\n      swap2\n      dup3\n      and\n      swap8\n      pop\n        /* \"contracts/Market.sol\":10656:10659  100 */\n      0x64\n      swap4\n        /* \"contracts/Market.sol\":10643:10646  app */\n      immutable(\"0x911a39fbf665a24ad3b6efc185d4b936bbda1900793ae2f7c00f4d18bdd96685\")\n        /* \"contracts/Market.sol\":10643:10650  app.vig */\n      swap1\n      swap3\n      and\n      swap3\n      0x55c4a8bf\n      swap3\n        /* \"contracts/Market.sol\":10643:10652  app.vig() */\n      0x04\n      dup1\n      dup3\n      add\n      swap4\n      swap2\n      dup3\n      swap1\n      sub\n      add\n      dup2\n        /* \"contracts/Market.sol\":10643:10650  app.vig */\n      dup7\n        /* \"contracts/Market.sol\":10643:10652  app.vig() */\n      dup1\n      extcodesize\n      iszero\n      dup1\n      iszero\n      tag_318\n      jumpi\n      0x00\n      dup1\n      revert\n    tag_318:\n      pop\n      gas\n      staticcall\n      iszero\n      dup1\n      iszero\n      tag_320\n      jumpi\n      returndatasize\n      0x00\n      dup1\n      returndatacopy\n      revert(0x00, returndatasize)\n    tag_320:\n      pop\n      pop\n      pop\n      pop\n      mload(0x40)\n      returndatasize\n      not(0x1f)\n      0x1f\n      dup3\n      add\n      and\n      dup3\n      add\n      dup1\n      0x40\n      mstore\n      pop\n      dup2\n      add\n      swap1\n      tag_321\n      swap2\n      swap1\n      tag_100\n      jump\t// in\n    tag_321:\n        /* \"contracts/Market.sol\":10637:10652  100 - app.vig() */\n      tag_322\n      swap1\n        /* \"contracts/Market.sol\":10637:10640  100 */\n      0x64\n        /* \"contracts/Market.sol\":10637:10652  100 - app.vig() */\n      tag_65\n      jump\t// in\n    tag_322:\n        /* \"contracts/Market.sol\":10609:10625  pairsInfo[_pair] */\n      0x00\n      dup9\n      dup2\n      mstore\n        /* \"contracts/Market.sol\":10609:10618  pairsInfo */\n      0x0a\n        /* \"contracts/Market.sol\":10609:10625  pairsInfo[_pair] */\n      0x20\n      mstore\n      0x40\n      swap1\n      keccak256\n        /* \"contracts/Market.sol\":10609:10633  pairsInfo[_pair].amountA */\n      0x02\n      add\n      sload\n        /* \"contracts/Market.sol\":10609:10653  pairsInfo[_pair].amountA * (100 - app.vig()) */\n      tag_323\n      swap2\n      swap1\n      tag_192\n      jump\t// in\n    tag_323:\n        /* \"contracts/Market.sol\":10609:10659  pairsInfo[_pair].amountA * (100 - app.vig()) / 100 */\n      tag_324\n      swap2\n      swap1\n      tag_194\n      jump\t// in\n    tag_324:\n        /* \"contracts/Market.sol\":10581:10597  pairsInfo[_pair] */\n      0x00\n      dup8\n      dup2\n      mstore\n        /* \"contracts/Market.sol\":10581:10590  pairsInfo */\n      0x0a\n        /* \"contracts/Market.sol\":10581:10597  pairsInfo[_pair] */\n      0x20\n      mstore\n      0x40\n      swap1\n      keccak256\n        /* \"contracts/Market.sol\":10581:10605  pairsInfo[_pair].amountB */\n      0x03\n      add\n      sload\n        /* \"contracts/Market.sol\":10581:10660  pairsInfo[_pair].amountB + (pairsInfo[_pair].amountA * (100 - app.vig()) / 100) */\n      tag_325\n      swap2\n      swap1\n      tag_67\n      jump\t// in\n    tag_325:\n        /* \"contracts/Market.sol\":10569:10660  winAmount = pairsInfo[_pair].amountB + (pairsInfo[_pair].amountA * (100 - app.vig()) / 100) */\n      swap2\n      pop\n        /* \"contracts/Market.sol\":10725:10728  100 */\n      0x64\n        /* \"contracts/Market.sol\":10713:10716  app */\n      immutable(\"0x911a39fbf665a24ad3b6efc185d4b936bbda1900793ae2f7c00f4d18bdd96685\")\n      sub(shl(0xa0, 0x01), 0x01)\n        /* \"contracts/Market.sol\":10713:10720  app.vig */\n      and\n      0x55c4a8bf\n        /* \"contracts/Market.sol\":10713:10722  app.vig() */\n      mload(0x40)\n      dup2\n      0xffffffff\n      and\n      0xe0\n      shl\n      dup2\n      mstore\n      0x04\n      add\n      0x20\n      mload(0x40)\n      dup1\n      dup4\n      sub\n      dup2\n      dup7\n      dup1\n      extcodesize\n      iszero\n      dup1\n      iszero\n      tag_326\n      jumpi\n      0x00\n      dup1\n      revert\n    tag_326:\n      pop\n      gas\n      staticcall\n      iszero\n      dup1\n      iszero\n      tag_328\n      jumpi\n      returndatasize\n      0x00\n      dup1\n      returndatacopy\n      revert(0x00, returndatasize)\n    tag_328:\n      pop\n      pop\n      pop\n      pop\n      mload(0x40)\n      returndatasize\n      not(0x1f)\n      0x1f\n      dup3\n      add\n      and\n      dup3\n      add\n      dup1\n      0x40\n      mstore\n      pop\n      dup2\n      add\n      swap1\n      tag_329\n      swap2\n      swap1\n      tag_100\n      jump\t// in\n    tag_329:\n        /* \"contracts/Market.sol\":10686:10702  pairsInfo[_pair] */\n      0x00\n      dup9\n      dup2\n      mstore\n        /* \"contracts/Market.sol\":10686:10695  pairsInfo */\n      0x0a\n        /* \"contracts/Market.sol\":10686:10702  pairsInfo[_pair] */\n      0x20\n      mstore\n      0x40\n      swap1\n      keccak256\n        /* \"contracts/Market.sol\":10686:10710  pairsInfo[_pair].amountA */\n      0x02\n      add\n      sload\n        /* \"contracts/Market.sol\":10686:10722  pairsInfo[_pair].amountA * app.vig() */\n      tag_330\n      swap2\n      swap1\n      tag_192\n      jump\t// in\n    tag_330:\n        /* \"contracts/Market.sol\":10686:10728  pairsInfo[_pair].amountA * app.vig() / 100 */\n      tag_331\n      swap2\n      swap1\n      tag_194\n      jump\t// in\n    tag_331:\n        /* \"contracts/Market.sol\":10754:10789  betsInfo[pairsInfo[_pair].betHashB] */\n      0x00\n        /* \"contracts/Market.sol\":10763:10779  pairsInfo[_pair] */\n      dup8\n      dup2\n      mstore\n        /* \"contracts/Market.sol\":10763:10772  pairsInfo */\n      0x0a\n        /* \"contracts/Market.sol\":10763:10779  pairsInfo[_pair] */\n      0x20\n      swap1\n      dup2\n      mstore\n      0x40\n      dup1\n      dup4\n      keccak256\n        /* \"contracts/Market.sol\":10763:10788  pairsInfo[_pair].betHashB */\n      0x01\n      swap1\n      dup2\n      add\n      sload\n        /* \"contracts/Market.sol\":10754:10789  betsInfo[pairsInfo[_pair].betHashB] */\n      dup5\n      mstore\n        /* \"contracts/Market.sol\":10754:10762  betsInfo */\n      0x08\n        /* \"contracts/Market.sol\":10754:10789  betsInfo[pairsInfo[_pair].betHashB] */\n      swap1\n      swap3\n      mstore\n      swap1\n      swap2\n      keccak256\n        /* \"contracts/Market.sol\":10754:10799  betsInfo[pairsInfo[_pair].betHashB].affiliate */\n      add\n      sload\n      sub(shl(0xa0, 0x01), 0x01)\n      and\n      swap4\n      pop\n        /* \"contracts/Market.sol\":10674:10728  vigAmount = pairsInfo[_pair].amountA * app.vig() / 100 */\n      swap1\n      pop\n        /* \"contracts/Market.sol\":10475:10860  if(status == 2){... */\n      jump(tag_332)\n    tag_317:\n        /* \"contracts/Market.sol\":10844:10849  false */\n      0x00\n        /* \"contracts/Market.sol\":10837:10849  return false */\n      swap5\n      pop\n      pop\n      pop\n      pop\n      pop\n      jump(tag_93)\n        /* \"contracts/Market.sol\":10475:10860  if(status == 2){... */\n    tag_332:\n      sub(shl(0xa0, 0x01), 0x01)\n        /* \"contracts/Market.sol\":10872:10895  affiliate == address(0) */\n      dup4\n      and\n        /* \"contracts/Market.sol\":10869:10946  if(affiliate == address(0)){... */\n      tag_333\n      jumpi\n        /* \"contracts/Market.sol\":10922:10925  app */\n      immutable(\"0x911a39fbf665a24ad3b6efc185d4b936bbda1900793ae2f7c00f4d18bdd96685\")\n      sub(shl(0xa0, 0x01), 0x01)\n        /* \"contracts/Market.sol\":10922:10933  app.ecoAddr */\n      and\n      0x09953b2f\n        /* \"contracts/Market.sol\":10922:10935  app.ecoAddr() */\n      mload(0x40)\n      dup2\n      0xffffffff\n      and\n      0xe0\n      shl\n      dup2\n      mstore\n      0x04\n      add\n      0x20\n      mload(0x40)\n      dup1\n      dup4\n      sub\n      dup2\n      dup7\n      dup1\n      extcodesize\n      iszero\n      dup1\n      iszero\n      tag_334\n      jumpi\n      0x00\n      dup1\n      revert\n    tag_334:\n      pop\n      gas\n      staticcall\n      iszero\n      dup1\n      iszero\n      tag_336\n      jumpi\n      returndatasize\n      0x00\n      dup1\n      returndatacopy\n      revert(0x00, returndatasize)\n    tag_336:\n      pop\n      pop\n      pop\n      pop\n      mload(0x40)\n      returndatasize\n      not(0x1f)\n      0x1f\n      dup3\n      add\n      and\n      dup3\n      add\n      dup1\n      0x40\n      mstore\n      pop\n      dup2\n      add\n      swap1\n      tag_337\n      swap2\n      swap1\n      tag_135\n      jump\t// in\n    tag_337:\n        /* \"contracts/Market.sol\":10910:10935  affiliate = app.ecoAddr() */\n      swap3\n      pop\n        /* \"contracts/Market.sol\":10869:10946  if(affiliate == address(0)){... */\n    tag_333:\n      sub(shl(0xa0, 0x01), 0x01)\n        /* \"contracts/Market.sol\":10955:10966  bal[winner] */\n      dup5\n      and\n      0x00\n      swap1\n      dup2\n      mstore\n        /* \"contracts/Market.sol\":10955:10958  bal */\n      0x07\n        /* \"contracts/Market.sol\":10955:10966  bal[winner] */\n      0x20\n      mstore\n      0x40\n      dup2\n      keccak256\n        /* \"contracts/Market.sol\":10955:10979  bal[winner] += winAmount */\n      dup1\n      sload\n        /* \"contracts/Market.sol\":10970:10979  winAmount */\n      dup5\n      swap3\n        /* \"contracts/Market.sol\":10955:10966  bal[winner] */\n      swap1\n        /* \"contracts/Market.sol\":10955:10979  bal[winner] += winAmount */\n      tag_338\n      swap1\n        /* \"contracts/Market.sol\":10970:10979  winAmount */\n      dup5\n      swap1\n        /* \"contracts/Market.sol\":10955:10979  bal[winner] += winAmount */\n      tag_67\n      jump\t// in\n    tag_338:\n      swap3\n      pop\n      pop\n      dup2\n      swap1\n      sstore\n      pop\n        /* \"contracts/Market.sol\":11037:11040  100 */\n      0x64\n        /* \"contracts/Market.sol\":11024:11027  app */\n      immutable(\"0x911a39fbf665a24ad3b6efc185d4b936bbda1900793ae2f7c00f4d18bdd96685\")\n      sub(shl(0xa0, 0x01), 0x01)\n        /* \"contracts/Market.sol\":11024:11032  app.hVig */\n      and\n      0x6a0ccd9d\n        /* \"contracts/Market.sol\":11024:11034  app.hVig() */\n      mload(0x40)\n      dup2\n      0xffffffff\n      and\n      0xe0\n      shl\n      dup2\n      mstore\n      0x04\n      add\n      0x20\n      mload(0x40)\n      dup1\n      dup4\n      sub\n      dup2\n      dup7\n      dup1\n      extcodesize\n      iszero\n      dup1\n      iszero\n      tag_339\n      jumpi\n      0x00\n      dup1\n      revert\n    tag_339:\n      pop\n      gas\n      staticcall\n      iszero\n      dup1\n      iszero\n      tag_341\n      jumpi\n      returndatasize\n      0x00\n      dup1\n      returndatacopy\n      revert(0x00, returndatasize)\n    tag_341:\n      pop\n      pop\n      pop\n      pop\n      mload(0x40)\n      returndatasize\n      not(0x1f)\n      0x1f\n      dup3\n      add\n      and\n      dup3\n      add\n      dup1\n      0x40\n      mstore\n      pop\n      dup2\n      add\n      swap1\n      tag_342\n      swap2\n      swap1\n      tag_100\n      jump\t// in\n    tag_342:\n        /* \"contracts/Market.sol\":11012:11034  vigAmount * app.hVig() */\n      tag_343\n      swap1\n        /* \"contracts/Market.sol\":11012:11021  vigAmount */\n      dup4\n        /* \"contracts/Market.sol\":11012:11034  vigAmount * app.hVig() */\n      tag_192\n      jump\t// in\n    tag_343:\n        /* \"contracts/Market.sol\":11012:11040  vigAmount * app.hVig() / 100 */\n      tag_344\n      swap2\n      swap1\n      tag_194\n      jump\t// in\n    tag_344:\n        /* \"contracts/Market.sol\":10989:10992  bal */\n      0x07\n        /* \"contracts/Market.sol\":10989:11008  bal[app.holdAddr()] */\n      0x00\n        /* \"contracts/Market.sol\":10993:10996  app */\n      immutable(\"0x911a39fbf665a24ad3b6efc185d4b936bbda1900793ae2f7c00f4d18bdd96685\")\n      sub(shl(0xa0, 0x01), 0x01)\n        /* \"contracts/Market.sol\":10993:11005  app.holdAddr */\n      and\n      0xb7640a54\n        /* \"contracts/Market.sol\":10993:11007  app.holdAddr() */\n      mload(0x40)\n      dup2\n      0xffffffff\n      and\n      0xe0\n      shl\n      dup2\n      mstore\n      0x04\n      add\n      0x20\n      mload(0x40)\n      dup1\n      dup4\n      sub\n      dup2\n      dup7\n      dup1\n      extcodesize\n      iszero\n      dup1\n      iszero\n      tag_345\n      jumpi\n      0x00\n      dup1\n      revert\n    tag_345:\n      pop\n      gas\n      staticcall\n      iszero\n      dup1\n      iszero\n      tag_347\n      jumpi\n      returndatasize\n      0x00\n      dup1\n      returndatacopy\n      revert(0x00, returndatasize)\n    tag_347:\n      pop\n      pop\n      pop\n      pop\n      mload(0x40)\n      returndatasize\n      not(0x1f)\n      0x1f\n      dup3\n      add\n      and\n      dup3\n      add\n      dup1\n      0x40\n      mstore\n      pop\n      dup2\n      add\n      swap1\n      tag_348\n      swap2\n      swap1\n      tag_135\n      jump\t// in\n    tag_348:\n      sub(shl(0xa0, 0x01), 0x01)\n        /* \"contracts/Market.sol\":10989:11008  bal[app.holdAddr()] */\n      and\n      sub(shl(0xa0, 0x01), 0x01)\n      and\n      dup2\n      mstore\n      0x20\n      add\n      swap1\n      dup2\n      mstore\n      0x20\n      add\n      0x00\n      keccak256\n      0x00\n        /* \"contracts/Market.sol\":10989:11040  bal[app.holdAddr()] += vigAmount * app.hVig() / 100 */\n      dup3\n      dup3\n      sload\n      tag_349\n      swap2\n      swap1\n      tag_67\n      jump\t// in\n    tag_349:\n      swap3\n      pop\n      pop\n      dup2\n      swap1\n      sstore\n      pop\n        /* \"contracts/Market.sol\":11097:11100  100 */\n      0x64\n        /* \"contracts/Market.sol\":11084:11087  app */\n      immutable(\"0x911a39fbf665a24ad3b6efc185d4b936bbda1900793ae2f7c00f4d18bdd96685\")\n      sub(shl(0xa0, 0x01), 0x01)\n        /* \"contracts/Market.sol\":11084:11092  app.eVig */\n      and\n      0x28576d45\n        /* \"contracts/Market.sol\":11084:11094  app.eVig() */\n      mload(0x40)\n      dup2\n      0xffffffff\n      and\n      0xe0\n      shl\n      dup2\n      mstore\n      0x04\n      add\n      0x20\n      mload(0x40)\n      dup1\n      dup4\n      sub\n      dup2\n      dup7\n      dup1\n      extcodesize\n      iszero\n      dup1\n      iszero\n      tag_350\n      jumpi\n      0x00\n      dup1\n      revert\n    tag_350:\n      pop\n      gas\n      staticcall\n      iszero\n      dup1\n      iszero\n      tag_352\n      jumpi\n      returndatasize\n      0x00\n      dup1\n      returndatacopy\n      revert(0x00, returndatasize)\n    tag_352:\n      pop\n      pop\n      pop\n      pop\n      mload(0x40)\n      returndatasize\n      not(0x1f)\n      0x1f\n      dup3\n      add\n      and\n      dup3\n      add\n      dup1\n      0x40\n      mstore\n      pop\n      dup2\n      add\n      swap1\n      tag_353\n      swap2\n      swap1\n      tag_100\n      jump\t// in\n    tag_353:\n        /* \"contracts/Market.sol\":11072:11094  vigAmount * app.eVig() */\n      tag_354\n      swap1\n        /* \"contracts/Market.sol\":11072:11081  vigAmount */\n      dup4\n        /* \"contracts/Market.sol\":11072:11094  vigAmount * app.eVig() */\n      tag_192\n      jump\t// in\n    tag_354:\n        /* \"contracts/Market.sol\":11072:11100  vigAmount * app.eVig() / 100 */\n      tag_355\n      swap2\n      swap1\n      tag_194\n      jump\t// in\n    tag_355:\n        /* \"contracts/Market.sol\":11050:11053  bal */\n      0x07\n        /* \"contracts/Market.sol\":11050:11068  bal[app.ecoAddr()] */\n      0x00\n        /* \"contracts/Market.sol\":11054:11057  app */\n      immutable(\"0x911a39fbf665a24ad3b6efc185d4b936bbda1900793ae2f7c00f4d18bdd96685\")\n      sub(shl(0xa0, 0x01), 0x01)\n        /* \"contracts/Market.sol\":11054:11065  app.ecoAddr */\n      and\n      0x09953b2f\n        /* \"contracts/Market.sol\":11054:11067  app.ecoAddr() */\n      mload(0x40)\n      dup2\n      0xffffffff\n      and\n      0xe0\n      shl\n      dup2\n      mstore\n      0x04\n      add\n      0x20\n      mload(0x40)\n      dup1\n      dup4\n      sub\n      dup2\n      dup7\n      dup1\n      extcodesize\n      iszero\n      dup1\n      iszero\n      tag_356\n      jumpi\n      0x00\n      dup1\n      revert\n    tag_356:\n      pop\n      gas\n      staticcall\n      iszero\n      dup1\n      iszero\n      tag_358\n      jumpi\n      returndatasize\n      0x00\n      dup1\n      returndatacopy\n      revert(0x00, returndatasize)\n    tag_358:\n      pop\n      pop\n      pop\n      pop\n      mload(0x40)\n      returndatasize\n      not(0x1f)\n      0x1f\n      dup3\n      add\n      and\n      dup3\n      add\n      dup1\n      0x40\n      mstore\n      pop\n      dup2\n      add\n      swap1\n      tag_359\n      swap2\n      swap1\n      tag_135\n      jump\t// in\n    tag_359:\n      sub(shl(0xa0, 0x01), 0x01)\n        /* \"contracts/Market.sol\":11050:11068  bal[app.ecoAddr()] */\n      and\n      sub(shl(0xa0, 0x01), 0x01)\n      and\n      dup2\n      mstore\n      0x20\n      add\n      swap1\n      dup2\n      mstore\n      0x20\n      add\n      0x00\n      keccak256\n      0x00\n        /* \"contracts/Market.sol\":11050:11100  bal[app.ecoAddr()] += vigAmount * app.eVig() / 100 */\n      dup3\n      dup3\n      sload\n      tag_360\n      swap2\n      swap1\n      tag_67\n      jump\t// in\n    tag_360:\n      swap3\n      pop\n      pop\n      dup2\n      swap1\n      sstore\n      pop\n        /* \"contracts/Market.sol\":11153:11156  100 */\n      0x64\n        /* \"contracts/Market.sol\":11140:11143  app */\n      immutable(\"0x911a39fbf665a24ad3b6efc185d4b936bbda1900793ae2f7c00f4d18bdd96685\")\n      sub(shl(0xa0, 0x01), 0x01)\n        /* \"contracts/Market.sol\":11140:11148  app.aVig */\n      and\n      0x54cd1a5c\n        /* \"contracts/Market.sol\":11140:11150  app.aVig() */\n      mload(0x40)\n      dup2\n      0xffffffff\n      and\n      0xe0\n      shl\n      dup2\n      mstore\n      0x04\n      add\n      0x20\n      mload(0x40)\n      dup1\n      dup4\n      sub\n      dup2\n      dup7\n      dup1\n      extcodesize\n      iszero\n      dup1\n      iszero\n      tag_361\n      jumpi\n      0x00\n      dup1\n      revert\n    tag_361:\n      pop\n      gas\n      staticcall\n      iszero\n      dup1\n      iszero\n      tag_363\n      jumpi\n      returndatasize\n      0x00\n      dup1\n      returndatacopy\n      revert(0x00, returndatasize)\n    tag_363:\n      pop\n      pop\n      pop\n      pop\n      mload(0x40)\n      returndatasize\n      not(0x1f)\n      0x1f\n      dup3\n      add\n      and\n      dup3\n      add\n      dup1\n      0x40\n      mstore\n      pop\n      dup2\n      add\n      swap1\n      tag_364\n      swap2\n      swap1\n      tag_100\n      jump\t// in\n    tag_364:\n        /* \"contracts/Market.sol\":11128:11150  vigAmount * app.aVig() */\n      tag_365\n      swap1\n        /* \"contracts/Market.sol\":11128:11137  vigAmount */\n      dup4\n        /* \"contracts/Market.sol\":11128:11150  vigAmount * app.aVig() */\n      tag_192\n      jump\t// in\n    tag_365:\n        /* \"contracts/Market.sol\":11128:11156  vigAmount * app.aVig() / 100 */\n      tag_366\n      swap2\n      swap1\n      tag_194\n      jump\t// in\n    tag_366:\n      sub(shl(0xa0, 0x01), 0x01)\n        /* \"contracts/Market.sol\":11110:11124  bal[affiliate] */\n      dup5\n      and\n      0x00\n      swap1\n      dup2\n      mstore\n        /* \"contracts/Market.sol\":11110:11113  bal */\n      0x07\n        /* \"contracts/Market.sol\":11110:11124  bal[affiliate] */\n      0x20\n      mstore\n      0x40\n      dup2\n      keccak256\n        /* \"contracts/Market.sol\":11110:11156  bal[affiliate] += vigAmount * app.aVig() / 100 */\n      dup1\n      sload\n        /* \"contracts/Market.sol\":11110:11124  bal[affiliate] */\n      swap1\n      swap2\n      swap1\n        /* \"contracts/Market.sol\":11110:11156  bal[affiliate] += vigAmount * app.aVig() / 100 */\n      tag_367\n      swap1\n      dup5\n      swap1\n      tag_67\n      jump\t// in\n    tag_367:\n      swap1\n      swap2\n      sstore\n      pop\n      pop\n      pop\n        /* \"contracts/Market.sol\":11166:11182  pairsInfo[_pair] */\n      0x00\n      swap5\n      dup6\n      mstore\n      pop\n      pop\n        /* \"contracts/Market.sol\":11166:11175  pairsInfo */\n      0x0a\n        /* \"contracts/Market.sol\":11166:11182  pairsInfo[_pair] */\n      0x20\n      mstore\n      pop\n      pop\n      0x40\n      dup2\n      keccak256\n        /* \"contracts/Market.sol\":11166:11190  pairsInfo[_pair].settled */\n      0x04\n      add\n        /* \"contracts/Market.sol\":11166:11197  pairsInfo[_pair].settled = true */\n      dup1\n      sload\n      not(0xff)\n      and\n        /* \"contracts/Market.sol\":11193:11197  true */\n      0x01\n        /* \"contracts/Market.sol\":11166:11197  pairsInfo[_pair].settled = true */\n      swap1\n      dup2\n      or\n      swap1\n      swap2\n      sstore\n        /* \"@openzeppelin/contracts/security/ReentrancyGuard.sol\":2628:2650  _status = _NOT_ENTERED */\n      swap1\n      dup2\n      swap1\n      sstore\n        /* \"contracts/Market.sol\":11193:11197  true */\n      swap1\n        /* \"contracts/Market.sol\":9866:11225  function _settlePair(bytes32 _pair) private nonReentrant returns(bool) {... */\n      jump\t// out\n        /* \"contracts/Market.sol\":9508:9856  function _cancelPair(bytes32 _pair) private {... */\n    tag_149:\n        /* \"contracts/Market.sol\":9562:9577  address betterA */\n      0x00\n        /* \"contracts/Market.sol\":9589:9605  pairsInfo[_pair] */\n      dup2\n      dup2\n      mstore\n        /* \"contracts/Market.sol\":9589:9598  pairsInfo */\n      0x0a\n        /* \"contracts/Market.sol\":9589:9605  pairsInfo[_pair] */\n      0x20\n      swap1\n      dup2\n      mstore\n      0x40\n      dup1\n      dup4\n      keccak256\n        /* \"contracts/Market.sol\":9589:9614  pairsInfo[_pair].betHashA */\n      dup1\n      sload\n        /* \"contracts/Market.sol\":9580:9615  betsInfo[pairsInfo[_pair].betHashA] */\n      dup5\n      mstore\n        /* \"contracts/Market.sol\":9580:9588  betsInfo */\n      0x08\n        /* \"contracts/Market.sol\":9580:9615  betsInfo[pairsInfo[_pair].betHashA] */\n      dup4\n      mstore\n      dup2\n      dup5\n      keccak256\n        /* \"contracts/Market.sol\":9580:9622  betsInfo[pairsInfo[_pair].betHashA].better */\n      sload\n      0x01\n        /* \"contracts/Market.sol\":9659:9684  pairsInfo[_pair].betHashB */\n      dup3\n      add\n      sload\n        /* \"contracts/Market.sol\":9650:9685  betsInfo[pairsInfo[_pair].betHashB] */\n      dup6\n      mstore\n      dup3\n      dup6\n      keccak256\n        /* \"contracts/Market.sol\":9650:9692  betsInfo[pairsInfo[_pair].betHashB].better */\n      sload\n        /* \"contracts/Market.sol\":9718:9742  pairsInfo[_pair].amountA */\n      0x02\n      swap1\n      swap3\n      add\n      sload\n      sub(shl(0xa0, 0x01), 0x01)\n        /* \"contracts/Market.sol\":9580:9622  betsInfo[pairsInfo[_pair].betHashA].better */\n      swap2\n      dup3\n      and\n        /* \"contracts/Market.sol\":9702:9714  bal[betterA] */\n      dup1\n      dup8\n      mstore\n        /* \"contracts/Market.sol\":9702:9705  bal */\n      0x07\n        /* \"contracts/Market.sol\":9702:9714  bal[betterA] */\n      swap1\n      swap6\n      mstore\n      swap3\n      dup6\n      keccak256\n        /* \"contracts/Market.sol\":9702:9742  bal[betterA] += pairsInfo[_pair].amountA */\n      dup1\n      sload\n        /* \"contracts/Market.sol\":9580:9622  betsInfo[pairsInfo[_pair].betHashA].better */\n      swap5\n      swap6\n        /* \"contracts/Market.sol\":9650:9692  betsInfo[pairsInfo[_pair].betHashB].better */\n      swap2\n      swap1\n      swap3\n      and\n      swap4\n        /* \"contracts/Market.sol\":9702:9742  bal[betterA] += pairsInfo[_pair].amountA */\n      tag_369\n      swap1\n        /* \"contracts/Market.sol\":9718:9742  pairsInfo[_pair].amountA */\n      dup5\n      swap1\n        /* \"contracts/Market.sol\":9702:9742  bal[betterA] += pairsInfo[_pair].amountA */\n      tag_67\n      jump\t// in\n    tag_369:\n      swap1\n      swap2\n      sstore\n      pop\n      pop\n        /* \"contracts/Market.sol\":9768:9784  pairsInfo[_pair] */\n      0x00\n      dup4\n      dup2\n      mstore\n        /* \"contracts/Market.sol\":9768:9777  pairsInfo */\n      0x0a\n        /* \"contracts/Market.sol\":9768:9784  pairsInfo[_pair] */\n      0x20\n      swap1\n      dup2\n      mstore\n      0x40\n      dup1\n      dup4\n      keccak256\n        /* \"contracts/Market.sol\":9768:9792  pairsInfo[_pair].amountB */\n      0x03\n      add\n      sload\n      sub(shl(0xa0, 0x01), 0x01)\n        /* \"contracts/Market.sol\":9752:9764  bal[betterB] */\n      dup6\n      and\n      dup5\n      mstore\n        /* \"contracts/Market.sol\":9752:9755  bal */\n      0x07\n        /* \"contracts/Market.sol\":9752:9764  bal[betterB] */\n      swap1\n      swap3\n      mstore\n      dup3\n      keccak256\n        /* \"contracts/Market.sol\":9752:9792  bal[betterB] += pairsInfo[_pair].amountB */\n      dup1\n      sload\n        /* \"contracts/Market.sol\":9768:9792  pairsInfo[_pair].amountB */\n      swap2\n      swap3\n        /* \"contracts/Market.sol\":9752:9764  bal[betterB] */\n      swap1\n      swap2\n        /* \"contracts/Market.sol\":9752:9792  bal[betterB] += pairsInfo[_pair].amountB */\n      tag_370\n      swap1\n        /* \"contracts/Market.sol\":9768:9792  pairsInfo[_pair].amountB */\n      dup5\n      swap1\n        /* \"contracts/Market.sol\":9752:9792  bal[betterB] += pairsInfo[_pair].amountB */\n      tag_67\n      jump\t// in\n    tag_370:\n      swap1\n      swap2\n      sstore\n      pop\n      pop\n      pop\n        /* \"contracts/Market.sol\":9802:9818  pairsInfo[_pair] */\n      0x00\n      swap2\n      dup3\n      mstore\n      pop\n        /* \"contracts/Market.sol\":9802:9811  pairsInfo */\n      0x0a\n        /* \"contracts/Market.sol\":9802:9818  pairsInfo[_pair] */\n      0x20\n      mstore\n      0x40\n      swap1\n      keccak256\n        /* \"contracts/Market.sol\":9802:9826  pairsInfo[_pair].settled */\n      0x04\n      add\n        /* \"contracts/Market.sol\":9802:9833  pairsInfo[_pair].settled = true */\n      dup1\n      sload\n      not(0xff)\n      and\n        /* \"contracts/Market.sol\":9829:9833  true */\n      0x01\n        /* \"contracts/Market.sol\":9802:9833  pairsInfo[_pair].settled = true */\n      or\n      swap1\n      sstore\n        /* \"contracts/Market.sol\":9508:9856  function _cancelPair(bytes32 _pair) private {... */\n      jump\t// out\n        /* \"contracts/Market.sol\":11231:12038  function _createBet(... */\n    tag_195:\n        /* \"contracts/Market.sol\":11430:11437  bytes32 */\n      0x00\n        /* \"contracts/Market.sol\":11453:11468  bytes32 betHash */\n      dup1\n        /* \"contracts/Market.sol\":11478:11484  uint i */\n      0x00\n        /* \"contracts/Market.sol\":11498:11847  while(i >= 0){... */\n    tag_372:\n        /* \"contracts/Market.sol\":11635:11639  bets */\n      0x05\n        /* \"contracts/Market.sol\":11635:11646  bets.length */\n      sload\n        /* \"contracts/Market.sol\":11579:11586  _better */\n      dup10\n      swap1\n        /* \"contracts/Market.sol\":11612:11616  this */\n      address\n      swap1\n        /* \"contracts/Market.sol\":11653:11654  i */\n      dup4\n      swap1\n        /* \"contracts/Market.sol\":11635:11650  bets.length + 1 */\n      tag_374\n      swap1\n        /* \"contracts/Market.sol\":11649:11650  1 */\n      0x01\n        /* \"contracts/Market.sol\":11635:11650  bets.length + 1 */\n      tag_67\n      jump\t// in\n    tag_374:\n        /* \"contracts/Market.sol\":11635:11654  bets.length + 1 + i */\n      tag_375\n      swap2\n      swap1\n      tag_67\n      jump\t// in\n    tag_375:\n        /* \"contracts/Market.sol\":11545:11735  abi.encodePacked(... */\n      mload(0x40)\n      not(0xffffffffffffffffffffffff)\n        /* \"#utility.yul\":2447:2449   */\n      0x60\n        /* \"#utility.yul\":2443:2458   */\n      swap5\n      dup6\n      shl\n        /* \"#utility.yul\":2439:2463   */\n      dup2\n      and\n        /* \"contracts/Market.sol\":11545:11735  abi.encodePacked(... */\n      0x20\n      dup4\n      add\n        /* \"#utility.yul\":2427:2464   */\n      mstore\n        /* \"#utility.yul\":2498:2513   */\n      swap3\n      swap1\n      swap4\n      shl\n        /* \"#utility.yul\":2494:2518   */\n      swap1\n      swap2\n      and\n        /* \"#utility.yul\":2480:2492   */\n      0x34\n      dup4\n      add\n        /* \"#utility.yul\":2473:2519   */\n      mstore\n        /* \"#utility.yul\":2535:2547   */\n      0x48\n      dup3\n      add\n        /* \"#utility.yul\":2528:2556   */\n      mstore\n        /* \"contracts/Market.sol\":11672:11687  block.timestamp */\n      timestamp\n        /* \"#utility.yul\":2572:2584   */\n      0x68\n      dup3\n      add\n        /* \"#utility.yul\":2565:2593   */\n      mstore\n        /* \"contracts/Market.sol\":11705:11721  block.difficulty */\n      difficulty\n        /* \"#utility.yul\":2609:2622   */\n      0x88\n      dup3\n      add\n        /* \"#utility.yul\":2602:2631   */\n      mstore\n        /* \"#utility.yul\":2647:2660   */\n      0xa8\n      add\n        /* \"contracts/Market.sol\":11545:11735  abi.encodePacked(... */\n      0x40\n      dup1\n      mload\n      not(0x1f)\n      dup2\n      dup5\n      sub\n      add\n      dup2\n      mstore\n      swap2\n      dup2\n      mstore\n        /* \"contracts/Market.sol\":11535:11736  keccak256(abi.encodePacked(... */\n      dup2\n      mload\n        /* \"contracts/Market.sol\":11545:11735  abi.encodePacked(... */\n      0x20\n        /* \"contracts/Market.sol\":11535:11736  keccak256(abi.encodePacked(... */\n      swap3\n      dup4\n      add\n      keccak256\n        /* \"contracts/Market.sol\":11753:11770  betsInfo[betHash] */\n      0x00\n      dup2\n      dup2\n      mstore\n        /* \"contracts/Market.sol\":11753:11761  betsInfo */\n      0x08\n        /* \"contracts/Market.sol\":11753:11770  betsInfo[betHash] */\n      swap1\n      swap4\n      mstore\n      swap2\n      keccak256\n        /* \"contracts/Market.sol\":11753:11776  betsInfo[betHash].stake */\n      0x02\n      add\n      sload\n        /* \"contracts/Market.sol\":11535:11736  keccak256(abi.encodePacked(... */\n      swap1\n      swap3\n      pop\n        /* \"contracts/Market.sol\":11750:11820  if(betsInfo[betHash].stake == 0){... */\n      tag_378\n      jumpi\n        /* \"contracts/Market.sol\":11800:11805  break */\n      jump(tag_373)\n        /* \"contracts/Market.sol\":11750:11820  if(betsInfo[betHash].stake == 0){... */\n    tag_378:\n        /* \"contracts/Market.sol\":11833:11836  i++ */\n      dup1\n      tag_379\n      dup2\n      tag_77\n      jump\t// in\n    tag_379:\n      swap2\n      pop\n      pop\n        /* \"contracts/Market.sol\":11498:11847  while(i >= 0){... */\n      jump(tag_372)\n    tag_373:\n      pop\n        /* \"contracts/Market.sol\":11876:11938  MarketBet(_better, _affiliate, _stake, _matched, _odds, _side) */\n      0x40\n      dup1\n      mload\n      0xc0\n      dup2\n      add\n      dup3\n      mstore\n      sub(shl(0xa0, 0x01), 0x01)\n      swap10\n      dup11\n      and\n      dup1\n      dup3\n      mstore\n      swap9\n      dup11\n      and\n      0x20\n      dup1\n      dup4\n      add\n      swap2\n      dup3\n      mstore\n      dup3\n      dup5\n      add\n      swap10\n      dup11\n      mstore\n      0x60\n      dup4\n      add\n      swap9\n      dup10\n      mstore\n      0x80\n      dup4\n      add\n      swap8\n      dup9\n      mstore\n      0xa0\n      dup4\n      add\n      swap7\n      dup8\n      mstore\n      0x00\n        /* \"contracts/Market.sol\":11856:11873  betsInfo[betHash] */\n      dup6\n      dup2\n      mstore\n        /* \"contracts/Market.sol\":11856:11864  betsInfo */\n      0x08\n        /* \"contracts/Market.sol\":11856:11873  betsInfo[betHash] */\n      dup3\n      mstore\n      dup5\n      dup2\n      keccak256\n        /* \"contracts/Market.sol\":11856:11938  betsInfo[betHash] = MarketBet(_better, _affiliate, _stake, _matched, _odds, _side) */\n      swap4\n      mload\n      dup5\n      sload\n      swap1\n      dup15\n      and\n      not(sub(shl(0xa0, 0x01), 0x01))\n      swap2\n      dup3\n      and\n      or\n      dup6\n      sstore\n      swap3\n      mload\n      0x01\n      dup1\n      dup7\n      add\n      dup1\n      sload\n      swap3\n      swap1\n      swap16\n      and\n      swap2\n      swap1\n      swap5\n      and\n      or\n      swap1\n      swap13\n      sstore\n      swap9\n      mload\n      0x02\n      dup4\n      add\n      sstore\n      swap7\n      mload\n      0x03\n      dup3\n      add\n      sstore\n      swap5\n      mload\n      0x04\n      dup7\n      add\n      sstore\n      swap3\n      mload\n      0x05\n      swap5\n      dup6\n      add\n      sstore\n        /* \"contracts/Market.sol\":11948:11966  bets.push(betHash) */\n      dup4\n      sload\n      dup1\n      dup7\n      add\n      swap1\n      swap5\n      sstore\n      0x036b6384b5eca791c62761152d0c79bb0604c104a5fb6f4eb0703f3154bb3db0\n      swap1\n      swap4\n      add\n      dup4\n      swap1\n      sstore\n      pop\n        /* \"contracts/Market.sol\":11976:11993  userBets[_better] */\n      swap4\n      dup6\n      mstore\n        /* \"contracts/Market.sol\":11976:11984  userBets */\n      0x09\n        /* \"contracts/Market.sol\":11976:11993  userBets[_better] */\n      dup4\n      mstore\n      swap3\n      dup5\n      keccak256\n        /* \"contracts/Market.sol\":11976:12007  userBets[_better].push(betHash) */\n      dup1\n      sload\n      swap2\n      dup3\n      add\n      dup2\n      sstore\n      dup5\n      mstore\n      swap3\n      keccak256\n      swap1\n      swap2\n      add\n      dup2\n      swap1\n      sstore\n        /* \"contracts/Market.sol\":11856:11873  betsInfo[betHash] */\n      swap1\n        /* \"contracts/Market.sol\":11231:12038  function _createBet(... */\n      jump\t// out\n        /* \"contracts/Market.sol\":12044:12776  function _createPair(... */\n    tag_226:\n        /* \"contracts/Market.sol\":12202:12209  bytes32 */\n      0x00\n        /* \"contracts/Market.sol\":12225:12241  bytes32 pairHash */\n      dup1\n        /* \"contracts/Market.sol\":12251:12257  uint i */\n      0x00\n        /* \"contracts/Market.sol\":12271:12624  while(i >= 0){... */\n    tag_383:\n        /* \"contracts/Market.sol\":12407:12412  pairs */\n      0x04\n        /* \"contracts/Market.sol\":12407:12419  pairs.length */\n      sload\n        /* \"contracts/Market.sol\":12353:12362  _betHashA */\n      dup8\n      swap1\n        /* \"contracts/Market.sol\":12380:12389  _betHashB */\n      dup8\n      swap1\n        /* \"contracts/Market.sol\":12426:12427  i */\n      dup4\n      swap1\n        /* \"contracts/Market.sol\":12407:12423  pairs.length + 1 */\n      tag_385\n      swap1\n        /* \"contracts/Market.sol\":12422:12423  1 */\n      0x01\n        /* \"contracts/Market.sol\":12407:12423  pairs.length + 1 */\n      tag_67\n      jump\t// in\n    tag_385:\n        /* \"contracts/Market.sol\":12407:12427  pairs.length + 1 + i */\n      tag_386\n      swap2\n      swap1\n      tag_67\n      jump\t// in\n    tag_386:\n        /* \"contracts/Market.sol\":12319:12508  abi.encodePacked(... */\n      0x40\n      dup1\n      mload\n      0x20\n      dup2\n      add\n        /* \"#utility.yul\":2912:2931   */\n      swap5\n      swap1\n      swap5\n      mstore\n        /* \"#utility.yul\":2947:2959   */\n      dup4\n      add\n        /* \"#utility.yul\":2940:2968   */\n      swap2\n      swap1\n      swap2\n      mstore\n        /* \"#utility.yul\":2984:2996   */\n      0x60\n      dup3\n      add\n        /* \"#utility.yul\":2977:3005   */\n      mstore\n        /* \"contracts/Market.sol\":12445:12460  block.timestamp */\n      timestamp\n        /* \"#utility.yul\":3021:3033   */\n      0x80\n      dup3\n      add\n        /* \"#utility.yul\":3014:3042   */\n      mstore\n        /* \"contracts/Market.sol\":12478:12494  block.difficulty */\n      difficulty\n        /* \"#utility.yul\":3058:3071   */\n      0xa0\n      dup3\n      add\n        /* \"#utility.yul\":3051:3080   */\n      mstore\n        /* \"#utility.yul\":3096:3109   */\n      0xc0\n      add\n        /* \"contracts/Market.sol\":12319:12508  abi.encodePacked(... */\n      0x40\n      dup1\n      mload\n      not(0x1f)\n      dup2\n      dup5\n      sub\n      add\n      dup2\n      mstore\n      swap2\n      dup2\n      mstore\n        /* \"contracts/Market.sol\":12309:12509  keccak256(abi.encodePacked(... */\n      dup2\n      mload\n        /* \"contracts/Market.sol\":12319:12508  abi.encodePacked(... */\n      0x20\n        /* \"contracts/Market.sol\":12309:12509  keccak256(abi.encodePacked(... */\n      swap3\n      dup4\n      add\n      keccak256\n        /* \"contracts/Market.sol\":12526:12545  pairsInfo[pairHash] */\n      0x00\n      dup2\n      dup2\n      mstore\n        /* \"contracts/Market.sol\":12526:12535  pairsInfo */\n      0x0a\n        /* \"contracts/Market.sol\":12526:12545  pairsInfo[pairHash] */\n      swap1\n      swap4\n      mstore\n      swap2\n      keccak256\n        /* \"contracts/Market.sol\":12526:12553  pairsInfo[pairHash].amountA */\n      0x02\n      add\n      sload\n        /* \"contracts/Market.sol\":12309:12509  keccak256(abi.encodePacked(... */\n      swap1\n      swap3\n      pop\n        /* \"contracts/Market.sol\":12523:12597  if(pairsInfo[pairHash].amountA == 0){... */\n      tag_389\n      jumpi\n        /* \"contracts/Market.sol\":12577:12582  break */\n      jump(tag_384)\n        /* \"contracts/Market.sol\":12523:12597  if(pairsInfo[pairHash].amountA == 0){... */\n    tag_389:\n        /* \"contracts/Market.sol\":12610:12613  i++ */\n      dup1\n      tag_390\n      dup2\n      tag_77\n      jump\t// in\n    tag_390:\n      swap2\n      pop\n      pop\n        /* \"contracts/Market.sol\":12271:12624  while(i >= 0){... */\n      jump(tag_383)\n    tag_384:\n      pop\n        /* \"contracts/Market.sol\":12655:12714  MarketPair(_betHashA, _betHashB, _amountA, _amountB, false) */\n      0x40\n      dup1\n      mload\n      0xa0\n      dup2\n      add\n      dup3\n      mstore\n      swap7\n      dup8\n      mstore\n      0x20\n      dup1\n      dup9\n      add\n      swap7\n      dup8\n      mstore\n      dup8\n      dup3\n      add\n      swap6\n      dup7\n      mstore\n      0x60\n      dup9\n      add\n      swap5\n      dup6\n      mstore\n      0x00\n      0x80\n      dup10\n      add\n      dup2\n      dup2\n      mstore\n        /* \"contracts/Market.sol\":12633:12652  pairsInfo[pairHash] */\n      dup5\n      dup3\n      mstore\n        /* \"contracts/Market.sol\":12633:12642  pairsInfo */\n      0x0a\n        /* \"contracts/Market.sol\":12633:12652  pairsInfo[pairHash] */\n      swap1\n      swap3\n      mstore\n      swap2\n      dup3\n      keccak256\n        /* \"contracts/Market.sol\":12633:12714  pairsInfo[pairHash] = MarketPair(_betHashA, _betHashB, _amountA, _amountB, false) */\n      swap8\n      mload\n      dup9\n      sstore\n      swap6\n      mload\n        /* \"contracts/Market.sol\":12655:12714  MarketPair(_betHashA, _betHashB, _amountA, _amountB, false) */\n      0x01\n        /* \"contracts/Market.sol\":12633:12714  pairsInfo[pairHash] = MarketPair(_betHashA, _betHashB, _amountA, _amountB, false) */\n      dup1\n      dup10\n      add\n      swap2\n      swap1\n      swap2\n      sstore\n      swap5\n      mload\n      0x02\n      dup9\n      add\n      sstore\n      swap3\n      mload\n      0x03\n      dup8\n      add\n      sstore\n      swap4\n      mload\n      0x04\n      swap6\n      dup7\n      add\n      dup1\n      sload\n      not(0xff)\n      and\n      swap2\n      iszero\n      iszero\n      swap2\n      swap1\n      swap2\n      or\n      swap1\n      sstore\n      pop\n        /* \"contracts/Market.sol\":12724:12744  pairs.push(pairHash) */\n      dup4\n      sload\n      swap2\n      dup3\n      add\n      dup5\n      sstore\n      swap3\n      swap1\n      swap3\n      mstore\n      0x8a35acfbc15ff81a39ae7d344fd709f28e8600b4aa8c65c6b64bfe7fe36bd19b\n      swap1\n      swap2\n      add\n      dup2\n      swap1\n      sstore\n        /* \"contracts/Market.sol\":12633:12652  pairsInfo[pairHash] */\n      swap1\n        /* \"contracts/Market.sol\":12044:12776  function _createPair(... */\n      jump\t// out\n        /* \"#utility.yul\":14:271   */\n    tag_25:\n        /* \"#utility.yul\":73:79   */\n      0x00\n        /* \"#utility.yul\":126:128   */\n      0x20\n        /* \"#utility.yul\":114:123   */\n      dup3\n        /* \"#utility.yul\":105:112   */\n      dup5\n        /* \"#utility.yul\":101:124   */\n      sub\n        /* \"#utility.yul\":97:129   */\n      slt\n        /* \"#utility.yul\":94:96   */\n      iszero\n      tag_394\n      jumpi\n        /* \"#utility.yul\":147:153   */\n      dup1\n        /* \"#utility.yul\":139:145   */\n      dup2\n        /* \"#utility.yul\":132:154   */\n      revert\n        /* \"#utility.yul\":94:96   */\n    tag_394:\n        /* \"#utility.yul\":191:200   */\n      dup2\n        /* \"#utility.yul\":178:201   */\n      calldataload\n        /* \"#utility.yul\":210:241   */\n      tag_395\n        /* \"#utility.yul\":235:240   */\n      dup2\n        /* \"#utility.yul\":210:241   */\n      tag_396\n      jump\t// in\n    tag_395:\n        /* \"#utility.yul\":260:265   */\n      swap4\n        /* \"#utility.yul\":84:271   */\n      swap3\n      pop\n      pop\n      pop\n      jump\t// out\n        /* \"#utility.yul\":276:537   */\n    tag_135:\n        /* \"#utility.yul\":346:352   */\n      0x00\n        /* \"#utility.yul\":399:401   */\n      0x20\n        /* \"#utility.yul\":387:396   */\n      dup3\n        /* \"#utility.yul\":378:385   */\n      dup5\n        /* \"#utility.yul\":374:397   */\n      sub\n        /* \"#utility.yul\":370:402   */\n      slt\n        /* \"#utility.yul\":367:369   */\n      iszero\n      tag_398\n      jumpi\n        /* \"#utility.yul\":420:426   */\n      dup1\n        /* \"#utility.yul\":412:418   */\n      dup2\n        /* \"#utility.yul\":405:427   */\n      revert\n        /* \"#utility.yul\":367:369   */\n    tag_398:\n        /* \"#utility.yul\":457:466   */\n      dup2\n        /* \"#utility.yul\":451:467   */\n      mload\n        /* \"#utility.yul\":476:507   */\n      tag_395\n        /* \"#utility.yul\":501:506   */\n      dup2\n        /* \"#utility.yul\":476:507   */\n      tag_396\n      jump\t// in\n        /* \"#utility.yul\":542:1282   */\n    tag_42:\n        /* \"#utility.yul\":643:649   */\n      0x00\n        /* \"#utility.yul\":651:657   */\n      dup1\n        /* \"#utility.yul\":659:665   */\n      0x00\n        /* \"#utility.yul\":667:673   */\n      dup1\n        /* \"#utility.yul\":675:681   */\n      0x00\n        /* \"#utility.yul\":683:689   */\n      dup1\n        /* \"#utility.yul\":736:739   */\n      0xc0\n        /* \"#utility.yul\":724:733   */\n      dup8\n        /* \"#utility.yul\":715:722   */\n      dup10\n        /* \"#utility.yul\":711:734   */\n      sub\n        /* \"#utility.yul\":707:740   */\n      slt\n        /* \"#utility.yul\":704:706   */\n      iszero\n      tag_401\n      jumpi\n        /* \"#utility.yul\":758:764   */\n      dup2\n        /* \"#utility.yul\":750:756   */\n      dup3\n        /* \"#utility.yul\":743:765   */\n      revert\n        /* \"#utility.yul\":704:706   */\n    tag_401:\n        /* \"#utility.yul\":802:811   */\n      dup7\n        /* \"#utility.yul\":789:812   */\n      calldataload\n        /* \"#utility.yul\":821:852   */\n      tag_402\n        /* \"#utility.yul\":846:851   */\n      dup2\n        /* \"#utility.yul\":821:852   */\n      tag_396\n      jump\t// in\n    tag_402:\n        /* \"#utility.yul\":871:876   */\n      swap6\n      pop\n        /* \"#utility.yul\":928:930   */\n      0x20\n        /* \"#utility.yul\":913:931   */\n      dup8\n      add\n        /* \"#utility.yul\":900:932   */\n      calldataload\n        /* \"#utility.yul\":941:974   */\n      tag_403\n        /* \"#utility.yul\":900:932   */\n      dup2\n        /* \"#utility.yul\":941:974   */\n      tag_396\n      jump\t// in\n    tag_403:\n        /* \"#utility.yul\":993:1000   */\n      swap5\n      pop\n        /* \"#utility.yul\":1047:1049   */\n      0x40\n        /* \"#utility.yul\":1032:1050   */\n      dup8\n      add\n        /* \"#utility.yul\":1019:1051   */\n      calldataload\n      swap4\n      pop\n        /* \"#utility.yul\":1098:1100   */\n      0x60\n        /* \"#utility.yul\":1083:1101   */\n      dup8\n      add\n        /* \"#utility.yul\":1070:1102   */\n      calldataload\n      swap3\n      pop\n        /* \"#utility.yul\":1149:1152   */\n      0x80\n        /* \"#utility.yul\":1134:1153   */\n      dup8\n      add\n        /* \"#utility.yul\":1121:1154   */\n      calldataload\n      swap2\n      pop\n        /* \"#utility.yul\":1206:1209   */\n      0xa0\n        /* \"#utility.yul\":1191:1210   */\n      dup8\n      add\n        /* \"#utility.yul\":1178:1211   */\n      calldataload\n        /* \"#utility.yul\":1220:1250   */\n      tag_404\n        /* \"#utility.yul\":1178:1211   */\n      dup2\n        /* \"#utility.yul\":1220:1250   */\n      tag_405\n      jump\t// in\n    tag_404:\n        /* \"#utility.yul\":1269:1276   */\n      dup1\n        /* \"#utility.yul\":1259:1276   */\n      swap2\n      pop\n      pop\n        /* \"#utility.yul\":694:1282   */\n      swap3\n      swap6\n      pop\n      swap3\n      swap6\n      pop\n      swap3\n      swap6\n      jump\t// out\n        /* \"#utility.yul\":1287:1542   */\n    tag_112:\n        /* \"#utility.yul\":1354:1360   */\n      0x00\n        /* \"#utility.yul\":1407:1409   */\n      0x20\n        /* \"#utility.yul\":1395:1404   */\n      dup3\n        /* \"#utility.yul\":1386:1393   */\n      dup5\n        /* \"#utility.yul\":1382:1405   */\n      sub\n        /* \"#utility.yul\":1378:1410   */\n      slt\n        /* \"#utility.yul\":1375:1377   */\n      iszero\n      tag_407\n      jumpi\n        /* \"#utility.yul\":1428:1434   */\n      dup1\n        /* \"#utility.yul\":1420:1426   */\n      dup2\n        /* \"#utility.yul\":1413:1435   */\n      revert\n        /* \"#utility.yul\":1375:1377   */\n    tag_407:\n        /* \"#utility.yul\":1465:1474   */\n      dup2\n        /* \"#utility.yul\":1459:1475   */\n      mload\n        /* \"#utility.yul\":1484:1512   */\n      tag_395\n        /* \"#utility.yul\":1506:1511   */\n      dup2\n        /* \"#utility.yul\":1484:1512   */\n      tag_405\n      jump\t// in\n        /* \"#utility.yul\":1547:1737   */\n    tag_21:\n        /* \"#utility.yul\":1606:1612   */\n      0x00\n        /* \"#utility.yul\":1659:1661   */\n      0x20\n        /* \"#utility.yul\":1647:1656   */\n      dup3\n        /* \"#utility.yul\":1638:1645   */\n      dup5\n        /* \"#utility.yul\":1634:1657   */\n      sub\n        /* \"#utility.yul\":1630:1662   */\n      slt\n        /* \"#utility.yul\":1627:1629   */\n      iszero\n      tag_410\n      jumpi\n        /* \"#utility.yul\":1680:1686   */\n      dup1\n        /* \"#utility.yul\":1672:1678   */\n      dup2\n        /* \"#utility.yul\":1665:1687   */\n      revert\n        /* \"#utility.yul\":1627:1629   */\n    tag_410:\n      pop\n        /* \"#utility.yul\":1708:1731   */\n      calldataload\n      swap2\n        /* \"#utility.yul\":1617:1737   */\n      swap1\n      pop\n      jump\t// out\n        /* \"#utility.yul\":1937:2131   */\n    tag_100:\n        /* \"#utility.yul\":2007:2013   */\n      0x00\n        /* \"#utility.yul\":2060:2062   */\n      0x20\n        /* \"#utility.yul\":2048:2057   */\n      dup3\n        /* \"#utility.yul\":2039:2046   */\n      dup5\n        /* \"#utility.yul\":2035:2058   */\n      sub\n        /* \"#utility.yul\":2031:2063   */\n      slt\n        /* \"#utility.yul\":2028:2030   */\n      iszero\n      tag_414\n      jumpi\n        /* \"#utility.yul\":2081:2087   */\n      dup1\n        /* \"#utility.yul\":2073:2079   */\n      dup2\n        /* \"#utility.yul\":2066:2088   */\n      revert\n        /* \"#utility.yul\":2028:2030   */\n    tag_414:\n      pop\n        /* \"#utility.yul\":2109:2125   */\n      mload\n      swap2\n        /* \"#utility.yul\":2018:2131   */\n      swap1\n      pop\n      jump\t// out\n        /* \"#utility.yul\":4892:6042   */\n    tag_28:\n        /* \"#utility.yul\":5117:5119   */\n      0x20\n        /* \"#utility.yul\":5169:5190   */\n      dup1\n      dup3\n      mstore\n        /* \"#utility.yul\":5239:5252   */\n      dup3\n      mload\n        /* \"#utility.yul\":5142:5160   */\n      dup3\n      dup3\n      add\n        /* \"#utility.yul\":5261:5283   */\n      dup2\n      swap1\n      mstore\n        /* \"#utility.yul\":5088:5092   */\n      0x00\n      swap2\n        /* \"#utility.yul\":5117:5119   */\n      swap1\n        /* \"#utility.yul\":5302:5304   */\n      0x40\n      swap1\n        /* \"#utility.yul\":5320:5338   */\n      dup2\n      dup6\n      add\n      swap1\n        /* \"#utility.yul\":5361:5376   */\n      dup7\n      dup5\n      add\n        /* \"#utility.yul\":5088:5092   */\n      dup6\n        /* \"#utility.yul\":5407:6016   */\n    tag_423:\n        /* \"#utility.yul\":5421:5427   */\n      dup3\n        /* \"#utility.yul\":5418:5419   */\n      dup2\n        /* \"#utility.yul\":5415:5428   */\n      lt\n        /* \"#utility.yul\":5407:6016   */\n      iszero\n      tag_425\n      jumpi\n        /* \"#utility.yul\":5480:5493   */\n      dup2\n      mload\n        /* \"#utility.yul\":5564:5573   */\n      dup1\n      mload\n      sub(shl(0xa0, 0x01), 0x01)\n        /* \"#utility.yul\":5560:5578   */\n      swap1\n      dup2\n      and\n        /* \"#utility.yul\":5548:5579   */\n      dup7\n      mstore\n        /* \"#utility.yul\":5623:5634   */\n      dup8\n      dup3\n      add\n        /* \"#utility.yul\":5617:5635   */\n      mload\n        /* \"#utility.yul\":5613:5640   */\n      and\n        /* \"#utility.yul\":5599:5611   */\n      dup8\n      dup7\n      add\n        /* \"#utility.yul\":5592:5641   */\n      mstore\n        /* \"#utility.yul\":5681:5692   */\n      dup6\n      dup2\n      add\n        /* \"#utility.yul\":5675:5693   */\n      mload\n        /* \"#utility.yul\":5661:5673   */\n      dup7\n      dup7\n      add\n        /* \"#utility.yul\":5654:5694   */\n      mstore\n        /* \"#utility.yul\":5717:5721   */\n      0x60\n        /* \"#utility.yul\":5761:5772   */\n      dup1\n      dup3\n      add\n        /* \"#utility.yul\":5755:5773   */\n      mload\n        /* \"#utility.yul\":5741:5753   */\n      swap1\n      dup7\n      add\n        /* \"#utility.yul\":5734:5774   */\n      mstore\n        /* \"#utility.yul\":5797:5801   */\n      0x80\n        /* \"#utility.yul\":5841:5852   */\n      dup1\n      dup3\n      add\n        /* \"#utility.yul\":5835:5853   */\n      mload\n        /* \"#utility.yul\":5821:5833   */\n      swap1\n      dup7\n      add\n        /* \"#utility.yul\":5814:5854   */\n      mstore\n        /* \"#utility.yul\":5524:5527   */\n      0xa0\n        /* \"#utility.yul\":5921:5932   */\n      swap1\n      dup2\n      add\n        /* \"#utility.yul\":5915:5933   */\n      mload\n        /* \"#utility.yul\":5901:5913   */\n      swap1\n      dup6\n      add\n        /* \"#utility.yul\":5894:5934   */\n      mstore\n        /* \"#utility.yul\":5963:5967   */\n      0xc0\n        /* \"#utility.yul\":5954:5968   */\n      swap1\n      swap4\n      add\n      swap3\n        /* \"#utility.yul\":5991:6006   */\n      swap1\n      dup6\n      add\n      swap1\n        /* \"#utility.yul\":5533:5534   */\n      0x01\n        /* \"#utility.yul\":5436:5445   */\n      add\n        /* \"#utility.yul\":5407:6016   */\n      jump(tag_423)\n    tag_425:\n      pop\n        /* \"#utility.yul\":6033:6036   */\n      swap2\n      swap8\n        /* \"#utility.yul\":5097:6042   */\n      swap7\n      pop\n      pop\n      pop\n      pop\n      pop\n      pop\n      pop\n      jump\t// out\n        /* \"#utility.yul\":8138:8463   */\n    tag_139:\n        /* \"#utility.yul\":8340:8342   */\n      0x20\n        /* \"#utility.yul\":8322:8343   */\n      dup1\n      dup3\n      mstore\n        /* \"#utility.yul\":8379:8380   */\n      0x02\n        /* \"#utility.yul\":8359:8377   */\n      swap1\n      dup3\n      add\n        /* \"#utility.yul\":8352:8381   */\n      mstore\n      shl(0xf0, 0x4d31)\n        /* \"#utility.yul\":8412:8414   */\n      0x40\n        /* \"#utility.yul\":8397:8415   */\n      dup3\n      add\n        /* \"#utility.yul\":8390:8422   */\n      mstore\n        /* \"#utility.yul\":8454:8456   */\n      0x60\n        /* \"#utility.yul\":8439:8457   */\n      add\n      swap1\n        /* \"#utility.yul\":8312:8463   */\n      jump\t// out\n        /* \"#utility.yul\":10001:10129   */\n    tag_67:\n        /* \"#utility.yul\":10041:10044   */\n      0x00\n        /* \"#utility.yul\":10072:10073   */\n      dup3\n        /* \"#utility.yul\":10068:10074   */\n      not\n        /* \"#utility.yul\":10065:10066   */\n      dup3\n        /* \"#utility.yul\":10062:10075   */\n      gt\n        /* \"#utility.yul\":10059:10061   */\n      iszero\n      tag_441\n      jumpi\n        /* \"#utility.yul\":10078:10096   */\n      tag_441\n      tag_442\n      jump\t// in\n    tag_441:\n      pop\n        /* \"#utility.yul\":10114:10123   */\n      add\n      swap1\n        /* \"#utility.yul\":10049:10129   */\n      jump\t// out\n        /* \"#utility.yul\":10134:10351   */\n    tag_194:\n        /* \"#utility.yul\":10174:10175   */\n      0x00\n        /* \"#utility.yul\":10200:10201   */\n      dup3\n        /* \"#utility.yul\":10190:10192   */\n      tag_444\n      jumpi\n      shl(0xe0, 0x4e487b71)\n        /* \"#utility.yul\":10225:10256   */\n      dup2\n      mstore\n        /* \"#utility.yul\":10279:10283   */\n      0x12\n        /* \"#utility.yul\":10276:10277   */\n      0x04\n        /* \"#utility.yul\":10269:10284   */\n      mstore\n        /* \"#utility.yul\":10307:10311   */\n      0x24\n        /* \"#utility.yul\":10232:10233   */\n      dup2\n        /* \"#utility.yul\":10297:10312   */\n      revert\n        /* \"#utility.yul\":10190:10192   */\n    tag_444:\n      pop\n        /* \"#utility.yul\":10336:10345   */\n      div\n      swap1\n        /* \"#utility.yul\":10180:10351   */\n      jump\t// out\n        /* \"#utility.yul\":10356:10524   */\n    tag_192:\n        /* \"#utility.yul\":10396:10403   */\n      0x00\n        /* \"#utility.yul\":10462:10463   */\n      dup2\n        /* \"#utility.yul\":10458:10459   */\n      0x00\n        /* \"#utility.yul\":10454:10460   */\n      not\n        /* \"#utility.yul\":10450:10464   */\n      div\n        /* \"#utility.yul\":10447:10448   */\n      dup4\n        /* \"#utility.yul\":10444:10465   */\n      gt\n        /* \"#utility.yul\":10439:10440   */\n      dup3\n        /* \"#utility.yul\":10432:10441   */\n      iszero\n        /* \"#utility.yul\":10425:10442   */\n      iszero\n        /* \"#utility.yul\":10421:10466   */\n      and\n        /* \"#utility.yul\":10418:10420   */\n      iszero\n      tag_447\n      jumpi\n        /* \"#utility.yul\":10469:10487   */\n      tag_447\n      tag_442\n      jump\t// in\n    tag_447:\n      pop\n        /* \"#utility.yul\":10509:10518   */\n      mul\n      swap1\n        /* \"#utility.yul\":10408:10524   */\n      jump\t// out\n        /* \"#utility.yul\":10529:10654   */\n    tag_65:\n        /* \"#utility.yul\":10569:10573   */\n      0x00\n        /* \"#utility.yul\":10597:10598   */\n      dup3\n        /* \"#utility.yul\":10594:10595   */\n      dup3\n        /* \"#utility.yul\":10591:10599   */\n      lt\n        /* \"#utility.yul\":10588:10590   */\n      iszero\n      tag_450\n      jumpi\n        /* \"#utility.yul\":10602:10620   */\n      tag_450\n      tag_442\n      jump\t// in\n    tag_450:\n      pop\n        /* \"#utility.yul\":10639:10648   */\n      sub\n      swap1\n        /* \"#utility.yul\":10578:10654   */\n      jump\t// out\n        /* \"#utility.yul\":10659:10794   */\n    tag_77:\n        /* \"#utility.yul\":10698:10701   */\n      0x00\n      not(0x00)\n        /* \"#utility.yul\":10719:10736   */\n      dup3\n      eq\n        /* \"#utility.yul\":10716:10718   */\n      iszero\n      tag_453\n      jumpi\n        /* \"#utility.yul\":10739:10757   */\n      tag_453\n      tag_442\n      jump\t// in\n    tag_453:\n      pop\n        /* \"#utility.yul\":10786:10787   */\n      0x01\n        /* \"#utility.yul\":10775:10788   */\n      add\n      swap1\n        /* \"#utility.yul\":10706:10794   */\n      jump\t// out\n        /* \"#utility.yul\":10799:10926   */\n    tag_442:\n        /* \"#utility.yul\":10860:10870   */\n      0x4e487b71\n        /* \"#utility.yul\":10855:10858   */\n      0xe0\n        /* \"#utility.yul\":10851:10871   */\n      shl\n        /* \"#utility.yul\":10848:10849   */\n      0x00\n        /* \"#utility.yul\":10841:10872   */\n      mstore\n        /* \"#utility.yul\":10891:10895   */\n      0x11\n        /* \"#utility.yul\":10888:10889   */\n      0x04\n        /* \"#utility.yul\":10881:10896   */\n      mstore\n        /* \"#utility.yul\":10915:10919   */\n      0x24\n        /* \"#utility.yul\":10912:10913   */\n      0x00\n        /* \"#utility.yul\":10905:10920   */\n      revert\n        /* \"#utility.yul\":10931:11062   */\n    tag_396:\n      sub(shl(0xa0, 0x01), 0x01)\n        /* \"#utility.yul\":11006:11037   */\n      dup2\n      and\n        /* \"#utility.yul\":10996:11038   */\n      dup2\n      eq\n        /* \"#utility.yul\":10986:10988   */\n      tag_456\n      jumpi\n        /* \"#utility.yul\":11052:11053   */\n      0x00\n        /* \"#utility.yul\":11049:11050   */\n      dup1\n        /* \"#utility.yul\":11042:11054   */\n      revert\n        /* \"#utility.yul\":10986:10988   */\n    tag_456:\n        /* \"#utility.yul\":10976:11062   */\n      pop\n      jump\t// out\n        /* \"#utility.yul\":11067:11185   */\n    tag_405:\n        /* \"#utility.yul\":11153:11158   */\n      dup1\n        /* \"#utility.yul\":11146:11159   */\n      iszero\n        /* \"#utility.yul\":11139:11160   */\n      iszero\n        /* \"#utility.yul\":11132:11137   */\n      dup2\n        /* \"#utility.yul\":11129:11161   */\n      eq\n        /* \"#utility.yul\":11119:11121   */\n      tag_456\n      jumpi\n        /* \"#utility.yul\":11175:11176   */\n      0x00\n        /* \"#utility.yul\":11172:11173   */\n      dup1\n        /* \"#utility.yul\":11165:11177   */\n      revert\n\n    auxdata: 0xa26469706673582212204b4af954b75b59b83e472a5ea42f46c1b4e03fbadfba57fd624beff9eef8442764736f6c63430008040033\n}\n",
				"bytecode": {
					"linkReferences": {},
					"object": "60c0604052600060035560025460601b6001600160601b03191660a0523480156200002957600080fd5b506040516200262d3803806200262d8339810160408190526200004c9162000102565b6001600081905580546001600160a01b03199081166001600160a01b0384161790915560028054339216821790556040805162966ed960e31b815290516304b376c891600480820192602092909190829003018186803b158015620000b057600080fd5b505afa158015620000c5573d6000803e3d6000fd5b505050506040513d601f19601f82011682018060405250810190620000eb919062000102565b60601b6001600160601b0319166080525062000132565b60006020828403121562000114578081fd5b81516001600160a01b03811681146200012b578182fd5b9392505050565b60805160601c60a05160601c612451620001dc600039600081816108130152818161097c01528181610b2601528181610d01015281816112a101528181611427015281816115d8015281816116a7015281816117d8015281816118a7015281816119ae01528181611a7301528181611b1c01528181611be501528181611c8e0152611d570152600081816105130152818161062201528181610a990152610c0d01526124516000f3fe608060405234801561001057600080fd5b50600436106100a95760003560e01c80636bfefd6b116100715780636bfefd6b1461013557806378d65b2f1461013d578063793cd71e146100dd5780638df8280014610150578063be9a655514610163578063f8b2cb4f1461016b57600080fd5b8063200d2ed2146100ae5780632940ff1e146100ca5780632d56657d146100df57806351cff8d9146100ff578063675f653714610122575b600080fd5b6100b760035481565b6040519081526020015b60405180910390f35b6100dd6100d8366004612286565b610194565b005b6100f26100ed3660046121c5565b610334565b6040516100c191906122b6565b61011261010d3660046121c5565b610488565b60405190151581526020016100c1565b6100dd610130366004612286565b610727565b6101126107fa565b6100b761014b366004612204565b610964565b61011261015e366004612286565b611288565b61011261140e565b6100b76101793660046121c5565b6001600160a01b031660009081526007602052604090205490565b600081815260086020908152604091829020825160c08101845281546001600160a01b0390811680835260018401549091169382019390935260028201549381019390935260038101546060840152600481015460808401526005015460a0830152331461022e5760405162461bcd60e51b8152602060048201526002602482015261134d60f21b60448201526064015b60405180910390fd5b60008160600151826040015161024491906123ad565b82516001600160a01b0316600090815260076020526040812080549293508392909190610272908490612356565b90915550506040808301516000858152600860205291822060030155600654905b8181101561030d5784600682815481106102bd57634e487b7160e01b600052603260045260246000fd5b906000526020600020015414156102fb57600681815481106102ef57634e487b7160e01b600052603260045260246000fd5b60009182526020822001555b80610305816123c4565b915050610293565b50336000908152600760205260409020541561032e5761032c33610488565b505b50505050565b6001600160a01b038116600090815260096020908152604080832080548251818502810185019093528083526060948594909392919083018282801561039957602002820191906000526020600020905b815481526020019060010190808311610385575b50506005549394506000925050505b8181101561047e57600860008483815181106103d457634e487b7160e01b600052603260045260246000fd5b6020908102919091018101518252818101929092526040908101600020815160c08101835281546001600160a01b0390811682526001830154169381019390935260028101549183019190915260038101546060830152600481015460808301526005015460a0820152845185908390811061046057634e487b7160e01b600052603260045260246000fd5b60200260200101819052508080610476906123c4565b9150506103a8565b5091949350505050565b6000600260005414156104dd5760405162461bcd60e51b815260206004820152601f60248201527f5265656e7472616e637947756172643a207265656e7472616e742063616c6c006044820152606401610225565b600260009081556001600160a01b03838116825260076020526040918290205491516370a0823160e01b815230600482015282917f000000000000000000000000000000000000000000000000000000000000000016906370a082319060240160206040518083038186803b15801561055557600080fd5b505afa158015610569573d6000803e3d6000fd5b505050506040513d601f19601f8201168201806040525081019061058d919061229e565b1015801561059b5750600081115b6105cc5760405162461bcd60e51b8152602060048201526002602482015261269960f11b6044820152606401610225565b6001600160a01b038316600090815260076020526040812080548392906105f49084906123ad565b909155505060405163a9059cbb60e01b81526001600160a01b038481166004830152602482018390526000917f00000000000000000000000000000000000000000000000000000000000000009091169063a9059cbb90604401602060405180830381600087803b15801561066857600080fd5b505af115801561067c573d6000803e3d6000fd5b505050506040513d601f19601f820116820180604052508101906106a0919061226a565b9050806106d45760405162461bcd60e51b81526020600482015260026024820152614d3360f01b6044820152606401610225565b604080516001600160a01b0386168152602081018490527f884edad9ce6fa2440d8a54cc123490eb96d2768479d49ff9c7366125a9424364910160405180910390a16001925050505b6001600055919050565b6000818152600b602090815260408083208054825181850281018501909352808352919290919083018282801561077d57602002820191906000526020600020905b815481526020019060010190808311610769575b505083519394506000925050505b818110156107d6576107c38382815181106107b657634e487b7160e01b600052603260045260246000fd5b602002602001015161150e565b50806107ce816123c4565b91505061078b565b5033600090815260076020526040902054156107f55761032e33610488565b505050565b6001546000906001600160a01b03163314806108b757507f00000000000000000000000000000000000000000000000000000000000000006001600160a01b031663ce606ee06040518163ffffffff1660e01b815260040160206040518083038186803b15801561086a57600080fd5b505afa15801561087e573d6000803e3d6000fd5b505050506040513d601f19601f820116820180604052508101906108a291906121e8565b6001600160a01b0316336001600160a01b0316145b806108cc57506002546001600160a01b031633145b6108e85760405162461bcd60e51b81526004016102259061233a565b60035415806108f957506003546004145b1561095e5760045460005b81811015610952576109406004828154811061093057634e487b7160e01b600052603260045260246000fd5b9060005260206000200154611e52565b8061094a816123c4565b915050610904565b50506003805550600190565b50600090565b60405163332daccf60e01b81523360048201526000907f00000000000000000000000000000000000000000000000000000000000000006001600160a01b03169063332daccf9060240160206040518083038186803b1580156109c657600080fd5b505afa1580156109da573d6000803e3d6000fd5b505050506040513d601f19601f820116820180604052508101906109fe919061226a565b158015610a0b5750600354155b610a3c5760405162461bcd60e51b815260206004820152600260248201526109a760f31b6044820152606401610225565b8260011480610a4b5750826002145b610a7c5760405162461bcd60e51b81526020600482015260026024820152614d3960f01b6044820152606401610225565b604051636eb1769f60e11b815233600482015230602482015285907f00000000000000000000000000000000000000000000000000000000000000006001600160a01b03169063dd62ed3e9060440160206040518083038186803b158015610ae357600080fd5b505afa158015610af7573d6000803e3d6000fd5b505050506040513d601f19601f82011682018060405250810190610b1b919061229e565b10158015610bb957507f00000000000000000000000000000000000000000000000000000000000000006001600160a01b031663375b3c0a6040518163ffffffff1660e01b815260040160206040518083038186803b158015610b7d57600080fd5b505afa158015610b91573d6000803e3d6000fd5b505050506040513d601f19601f82011682018060405250810190610bb5919061229e565b8510155b610beb5760405162461bcd60e51b815260206004820152600360248201526204d31360ec1b6044820152606401610225565b6040516323b872dd60e01b8152336004820152306024820152604481018690527f00000000000000000000000000000000000000000000000000000000000000006001600160a01b0316906323b872dd90606401602060405180830381600087803b158015610c5957600080fd5b505af1158015610c6d573d6000803e3d6000fd5b505050506040513d601f19601f82011682018060405250810190610c91919061226a565b610cc35760405162461bcd60e51b81526020600482015260036024820152624d313160e81b6044820152606401610225565b6000610cf288888884610cd760648b6123ad565b610ce28b606461238e565b610cec919061236e565b89611f0d565b600654909150156111f257855b7f00000000000000000000000000000000000000000000000000000000000000006001600160a01b031663375b3c0a6040518163ffffffff1660e01b815260040160206040518083038186803b158015610d5857600080fd5b505afa158015610d6c573d6000803e3d6000fd5b505050506040513d601f19601f82011682018060405250810190610d90919061229e565b81106111ec5760008060005b600654811015610e4257600060068281548110610dc957634e487b7160e01b600052603260045260246000fd5b906000526020600020015490506008600082815260200190815260200160002060050154891415610dfa5750610e30565b600081815260086020526040902060040154831015610e2e5760008181526008602052604090206004015491935090915082905b505b80610e3a816123c4565b915050610d9c565b5087811180610e595750600081118015610e595750855b156111a957600060068381548110610e8157634e487b7160e01b600052603260045260246000fd5b6000918252602080832090910154808352600882526040808420815160c08101835281546001600160a01b0390811682526001830154169481019490945260028101549184019190915260038101546060840152600481015460808401526005015460a0830152925090610ef660648c6123ad565b82606001518360400151610f0a91906123ad565b610f14919061236e565b9050610f2160648261238e565b905060008060008e841161101e57839250610f3d60648f6123ad565b610f47908561238e565b9150610f5460648361236e565b91508c60011415610fbc57610f6b8a878585612095565b604080518c815260208101899052908101859052606081018490529091507f5de48bb383b4a2aaad84721b80d93429b813651b0eefbd59d32018cfe28215dc906080015b60405180910390a16110bc565b8c6002141561101957610fd1868b8486612095565b60408051888152602081018d9052908101849052606081018590529091507f5de48bb383b4a2aaad84721b80d93429b813651b0eefbd59d32018cfe28215dc90608001610faf565b6110bc565b8e925061102c60648f6123ad565b8f611037919061238e565b915061104460648361236e565b91508c6001141561105b57610f6b8a878585612095565b8c600214156110bc57611070868b8486612095565b60408051888152602081018d9052908101849052606081018590529091507f5de48bb383b4a2aaad84721b80d93429b813651b0eefbd59d32018cfe28215dc9060800160405180910390a15b60008a8152600b6020908152604080832080546001818101835591855283852001859055898452818420805491820181558452828420018490558c8352600890915281206003018054859290611113908490612356565b909155505060008681526008602052604081206003018054849290611139908490612356565b90915550506000868152600860205260409020600381015460029091015461116191906123ad565b611192576006888154811061118657634e487b7160e01b600052603260045260246000fd5b60009182526020822001555b61119c838a6123ad565b98505050505050506111e5565b5050600680546001810182556000919091527ff652222313e28459528d920b65115c16c04f3efc82aaedc97be59f3f377c0d3f018290556111ec565b5050610cff565b50611228565b600680546001810182556000919091527ff652222313e28459528d920b65115c16c04f3efc82aaedc97be59f3f377c0d3f018190555b60408051338152306020820152908101829052606081018790526080810186905260a081018590527f618f358bb45538682ade624a4a1959053d9dabd20fe300508034b879681b37be9060c00160405180910390a1979650505050505050565b6001546000906001600160a01b031633148061134557507f00000000000000000000000000000000000000000000000000000000000000006001600160a01b031663ce606ee06040518163ffffffff1660e01b815260040160206040518083038186803b1580156112f857600080fd5b505afa15801561130c573d6000803e3d6000fd5b505050506040513d601f19601f8201168201806040525081019061133091906121e8565b6001600160a01b0316336001600160a01b0316145b8061135a57506002546001600160a01b031633145b6113765760405162461bcd60e51b81526004016102259061233a565b600354158061138757506003546004145b801561139d5750816001148061139d5750816002145b1561140657600382905560045460005b818110156113fc576113e9600482815481106113d957634e487b7160e01b600052603260045260246000fd5b906000526020600020015461150e565b50806113f4816123c4565b9150506113ad565b5060019392505050565b506000919050565b6001546000906001600160a01b03163314806114cb57507f00000000000000000000000000000000000000000000000000000000000000006001600160a01b031663ce606ee06040518163ffffffff1660e01b815260040160206040518083038186803b15801561147e57600080fd5b505afa158015611492573d6000803e3d6000fd5b505050506040513d601f19601f820116820180604052508101906114b691906121e8565b6001600160a01b0316336001600160a01b0316145b806114e057506002546001600160a01b031633145b6114fc5760405162461bcd60e51b81526004016102259061233a565b60035461095e57506004600355600190565b6000600260005414156115635760405162461bcd60e51b815260206004820152601f60248201527f5265656e7472616e637947756172643a207265656e7472616e742063616c6c006044820152606401610225565b60026000908155828152600a602052604090206004015460ff161561158a5750600061071d565b6000806000806003546001141561178d576000868152600a6020908152604080832054835260088252918290205482516355c4a8bf60e01b815292516001600160a01b0391821697506064937f0000000000000000000000000000000000000000000000000000000000000000909216926355c4a8bf9260048082019391829003018186803b15801561161c57600080fd5b505afa158015611630573d6000803e3d6000fd5b505050506040513d601f19601f82011682018060405250810190611654919061229e565b61165f9060646123ad565b6000888152600a602052604090206003015461167b919061238e565b611685919061236e565b6000878152600a60205260409020600201546116a19190612356565b915060647f00000000000000000000000000000000000000000000000000000000000000006001600160a01b03166355c4a8bf6040518163ffffffff1660e01b815260040160206040518083038186803b1580156116fe57600080fd5b505afa158015611712573d6000803e3d6000fd5b505050506040513d601f19601f82011682018060405250810190611736919061229e565b6000888152600a6020526040902060030154611752919061238e565b61175c919061236e565b6000878152600a6020908152604080832054835260089091529020600101546001600160a01b03169350905061199e565b60035460021415611991576000868152600a6020908152604080832060010154835260088252918290205482516355c4a8bf60e01b815292516001600160a01b0391821697506064937f0000000000000000000000000000000000000000000000000000000000000000909216926355c4a8bf9260048082019391829003018186803b15801561181c57600080fd5b505afa158015611830573d6000803e3d6000fd5b505050506040513d601f19601f82011682018060405250810190611854919061229e565b61185f9060646123ad565b6000888152600a602052604090206002015461187b919061238e565b611885919061236e565b6000878152600a60205260409020600301546118a19190612356565b915060647f00000000000000000000000000000000000000000000000000000000000000006001600160a01b03166355c4a8bf6040518163ffffffff1660e01b815260040160206040518083038186803b1580156118fe57600080fd5b505afa158015611912573d6000803e3d6000fd5b505050506040513d601f19601f82011682018060405250810190611936919061229e565b6000888152600a6020526040902060020154611952919061238e565b61195c919061236e565b6000878152600a602090815260408083206001908101548452600890925290912001546001600160a01b03169350905061199e565b600094505050505061071d565b6001600160a01b038316611a40577f00000000000000000000000000000000000000000000000000000000000000006001600160a01b03166309953b2f6040518163ffffffff1660e01b815260040160206040518083038186803b158015611a0557600080fd5b505afa158015611a19573d6000803e3d6000fd5b505050506040513d601f19601f82011682018060405250810190611a3d91906121e8565b92505b6001600160a01b03841660009081526007602052604081208054849290611a68908490612356565b9250508190555060647f00000000000000000000000000000000000000000000000000000000000000006001600160a01b0316636a0ccd9d6040518163ffffffff1660e01b815260040160206040518083038186803b158015611aca57600080fd5b505afa158015611ade573d6000803e3d6000fd5b505050506040513d601f19601f82011682018060405250810190611b02919061229e565b611b0c908361238e565b611b16919061236e565b600760007f00000000000000000000000000000000000000000000000000000000000000006001600160a01b031663b7640a546040518163ffffffff1660e01b815260040160206040518083038186803b158015611b7357600080fd5b505afa158015611b87573d6000803e3d6000fd5b505050506040513d601f19601f82011682018060405250810190611bab91906121e8565b6001600160a01b03166001600160a01b031681526020019081526020016000206000828254611bda9190612356565b9250508190555060647f00000000000000000000000000000000000000000000000000000000000000006001600160a01b03166328576d456040518163ffffffff1660e01b815260040160206040518083038186803b158015611c3c57600080fd5b505afa158015611c50573d6000803e3d6000fd5b505050506040513d601f19601f82011682018060405250810190611c74919061229e565b611c7e908361238e565b611c88919061236e565b600760007f00000000000000000000000000000000000000000000000000000000000000006001600160a01b03166309953b2f6040518163ffffffff1660e01b815260040160206040518083038186803b158015611ce557600080fd5b505afa158015611cf9573d6000803e3d6000fd5b505050506040513d601f19601f82011682018060405250810190611d1d91906121e8565b6001600160a01b03166001600160a01b031681526020019081526020016000206000828254611d4c9190612356565b9250508190555060647f00000000000000000000000000000000000000000000000000000000000000006001600160a01b03166354cd1a5c6040518163ffffffff1660e01b815260040160206040518083038186803b158015611dae57600080fd5b505afa158015611dc2573d6000803e3d6000fd5b505050506040513d601f19601f82011682018060405250810190611de6919061229e565b611df0908361238e565b611dfa919061236e565b6001600160a01b03841660009081526007602052604081208054909190611e22908490612356565b90915550505060009485525050600a602052505060408120600401805460ff191660019081179091559081905590565b6000818152600a6020908152604080832080548452600883528184205460018201548552828520546002909201546001600160a01b039182168087526007909552928520805494959190921693611eaa908490612356565b90915550506000838152600a60209081526040808320600301546001600160a01b038516845260079092528220805491929091611ee8908490612356565b909155505050600091825250600a60205260409020600401805460ff19166001179055565b60008060005b600554899030908390611f27906001612356565b611f319190612356565b6040516bffffffffffffffffffffffff19606094851b811660208301529290931b9091166034830152604882015242606882015244608882015260a80160408051601f19818403018152918152815160209283012060008181526008909352912060020154909250611fa257611fb4565b80611fac816123c4565b915050611f13565b506040805160c0810182526001600160a01b03998a16808252988a166020808301918252828401998a52606083019889526080830197885260a0830196875260008581526008825284812093518454908e166001600160a01b031991821617855592516001808601805492909f169190941617909c55985160028301559651600382015594516004860155925160059485015583548086019094557f036b6384b5eca791c62761152d0c79bb0604c104a5fb6f4eb0703f3154bb3db09093018390555093855260098352928420805491820181558452922090910181905590565b60008060005b6004548790879083906120af906001612356565b6120b99190612356565b60408051602081019490945283019190915260608201524260808201524460a082015260c00160408051601f1981840301815291815281516020928301206000818152600a90935291206002015490925061211357612125565b8061211d816123c4565b91505061209b565b506040805160a081018252968752602080880196875287820195865260608801948552600060808901818152848252600a909252918220975188559551600180890191909155945160028801559251600387015593516004958601805460ff19169115159190911790555083549182018455929092527f8a35acfbc15ff81a39ae7d344fd709f28e8600b4aa8c65c6b64bfe7fe36bd19b90910181905590565b6000602082840312156121d6578081fd5b81356121e1816123f5565b9392505050565b6000602082840312156121f9578081fd5b81516121e1816123f5565b60008060008060008060c0878903121561221c578182fd5b8635612227816123f5565b95506020870135612237816123f5565b945060408701359350606087013592506080870135915060a087013561225c8161240d565b809150509295509295509295565b60006020828403121561227b578081fd5b81516121e18161240d565b600060208284031215612297578081fd5b5035919050565b6000602082840312156122af578081fd5b5051919050565b602080825282518282018190526000919060409081850190868401855b8281101561232d57815180516001600160a01b0390811686528782015116878601528581015186860152606080820151908601526080808201519086015260a0908101519085015260c090930192908501906001016122d3565b5091979650505050505050565b6020808252600290820152614d3160f01b604082015260600190565b60008219821115612369576123696123df565b500190565b60008261238957634e487b7160e01b81526012600452602481fd5b500490565b60008160001904831182151516156123a8576123a86123df565b500290565b6000828210156123bf576123bf6123df565b500390565b60006000198214156123d8576123d86123df565b5060010190565b634e487b7160e01b600052601160045260246000fd5b6001600160a01b038116811461240a57600080fd5b50565b801515811461240a57600080fdfea26469706673582212204b4af954b75b59b83e472a5ea42f46c1b4e03fbadfba57fd624beff9eef8442764736f6c63430008040033",
					"opcodes": "PUSH1 0xC0 PUSH1 0x40 MSTORE PUSH1 0x0 PUSH1 0x3 SSTORE PUSH1 0x2 SLOAD PUSH1 0x60 SHL PUSH1 0x1 PUSH1 0x1 PUSH1 0x60 SHL SUB NOT AND PUSH1 0xA0 MSTORE CALLVALUE DUP1 ISZERO PUSH3 0x29 JUMPI PUSH1 0x0 DUP1 REVERT JUMPDEST POP PUSH1 0x40 MLOAD PUSH3 0x262D CODESIZE SUB DUP1 PUSH3 0x262D DUP4 CODECOPY DUP2 ADD PUSH1 0x40 DUP2 SWAP1 MSTORE PUSH3 0x4C SWAP2 PUSH3 0x102 JUMP JUMPDEST PUSH1 0x1 PUSH1 0x0 DUP2 SWAP1 SSTORE DUP1 SLOAD PUSH1 0x1 PUSH1 0x1 PUSH1 0xA0 SHL SUB NOT SWAP1 DUP2 AND PUSH1 0x1 PUSH1 0x1 PUSH1 0xA0 SHL SUB DUP5 AND OR SWAP1 SWAP2 SSTORE PUSH1 0x2 DUP1 SLOAD CALLER SWAP3 AND DUP3 OR SWAP1 SSTORE PUSH1 0x40 DUP1 MLOAD PUSH3 0x966ED9 PUSH1 0xE3 SHL DUP2 MSTORE SWAP1 MLOAD PUSH4 0x4B376C8 SWAP2 PUSH1 0x4 DUP1 DUP3 ADD SWAP3 PUSH1 0x20 SWAP3 SWAP1 SWAP2 SWAP1 DUP3 SWAP1 SUB ADD DUP2 DUP7 DUP1 EXTCODESIZE ISZERO DUP1 ISZERO PUSH3 0xB0 JUMPI PUSH1 0x0 DUP1 REVERT JUMPDEST POP GAS STATICCALL ISZERO DUP1 ISZERO PUSH3 0xC5 JUMPI RETURNDATASIZE PUSH1 0x0 DUP1 RETURNDATACOPY RETURNDATASIZE PUSH1 0x0 REVERT JUMPDEST POP POP POP POP PUSH1 0x40 MLOAD RETURNDATASIZE PUSH1 0x1F NOT PUSH1 0x1F DUP3 ADD AND DUP3 ADD DUP1 PUSH1 0x40 MSTORE POP DUP2 ADD SWAP1 PUSH3 0xEB SWAP2 SWAP1 PUSH3 0x102 JUMP JUMPDEST PUSH1 0x60 SHL PUSH1 0x1 PUSH1 0x1 PUSH1 0x60 SHL SUB NOT AND PUSH1 0x80 MSTORE POP PUSH3 0x132 JUMP JUMPDEST PUSH1 0x0 PUSH1 0x20 DUP3 DUP5 SUB SLT ISZERO PUSH3 0x114 JUMPI DUP1 DUP2 REVERT JUMPDEST DUP2 MLOAD PUSH1 0x1 PUSH1 0x1 PUSH1 0xA0 SHL SUB DUP2 AND DUP2 EQ PUSH3 0x12B JUMPI DUP2 DUP3 REVERT JUMPDEST SWAP4 SWAP3 POP POP POP JUMP JUMPDEST PUSH1 0x80 MLOAD PUSH1 0x60 SHR PUSH1 0xA0 MLOAD PUSH1 0x60 SHR PUSH2 0x2451 PUSH3 0x1DC PUSH1 0x0 CODECOPY PUSH1 0x0 DUP2 DUP2 PUSH2 0x813 ADD MSTORE DUP2 DUP2 PUSH2 0x97C ADD MSTORE DUP2 DUP2 PUSH2 0xB26 ADD MSTORE DUP2 DUP2 PUSH2 0xD01 ADD MSTORE DUP2 DUP2 PUSH2 0x12A1 ADD MSTORE DUP2 DUP2 PUSH2 0x1427 ADD MSTORE DUP2 DUP2 PUSH2 0x15D8 ADD MSTORE DUP2 DUP2 PUSH2 0x16A7 ADD MSTORE DUP2 DUP2 PUSH2 0x17D8 ADD MSTORE DUP2 DUP2 PUSH2 0x18A7 ADD MSTORE DUP2 DUP2 PUSH2 0x19AE ADD MSTORE DUP2 DUP2 PUSH2 0x1A73 ADD MSTORE DUP2 DUP2 PUSH2 0x1B1C ADD MSTORE DUP2 DUP2 PUSH2 0x1BE5 ADD MSTORE DUP2 DUP2 PUSH2 0x1C8E ADD MSTORE PUSH2 0x1D57 ADD MSTORE PUSH1 0x0 DUP2 DUP2 PUSH2 0x513 ADD MSTORE DUP2 DUP2 PUSH2 0x622 ADD MSTORE DUP2 DUP2 PUSH2 0xA99 ADD MSTORE PUSH2 0xC0D ADD MSTORE PUSH2 0x2451 PUSH1 0x0 RETURN INVALID PUSH1 0x80 PUSH1 0x40 MSTORE CALLVALUE DUP1 ISZERO PUSH2 0x10 JUMPI PUSH1 0x0 DUP1 REVERT JUMPDEST POP PUSH1 0x4 CALLDATASIZE LT PUSH2 0xA9 JUMPI PUSH1 0x0 CALLDATALOAD PUSH1 0xE0 SHR DUP1 PUSH4 0x6BFEFD6B GT PUSH2 0x71 JUMPI DUP1 PUSH4 0x6BFEFD6B EQ PUSH2 0x135 JUMPI DUP1 PUSH4 0x78D65B2F EQ PUSH2 0x13D JUMPI DUP1 PUSH4 0x793CD71E EQ PUSH2 0xDD JUMPI DUP1 PUSH4 0x8DF82800 EQ PUSH2 0x150 JUMPI DUP1 PUSH4 0xBE9A6555 EQ PUSH2 0x163 JUMPI DUP1 PUSH4 0xF8B2CB4F EQ PUSH2 0x16B JUMPI PUSH1 0x0 DUP1 REVERT JUMPDEST DUP1 PUSH4 0x200D2ED2 EQ PUSH2 0xAE JUMPI DUP1 PUSH4 0x2940FF1E EQ PUSH2 0xCA JUMPI DUP1 PUSH4 0x2D56657D EQ PUSH2 0xDF JUMPI DUP1 PUSH4 0x51CFF8D9 EQ PUSH2 0xFF JUMPI DUP1 PUSH4 0x675F6537 EQ PUSH2 0x122 JUMPI JUMPDEST PUSH1 0x0 DUP1 REVERT JUMPDEST PUSH2 0xB7 PUSH1 0x3 SLOAD DUP2 JUMP JUMPDEST PUSH1 0x40 MLOAD SWAP1 DUP2 MSTORE PUSH1 0x20 ADD JUMPDEST PUSH1 0x40 MLOAD DUP1 SWAP2 SUB SWAP1 RETURN JUMPDEST PUSH2 0xDD PUSH2 0xD8 CALLDATASIZE PUSH1 0x4 PUSH2 0x2286 JUMP JUMPDEST PUSH2 0x194 JUMP JUMPDEST STOP JUMPDEST PUSH2 0xF2 PUSH2 0xED CALLDATASIZE PUSH1 0x4 PUSH2 0x21C5 JUMP JUMPDEST PUSH2 0x334 JUMP JUMPDEST PUSH1 0x40 MLOAD PUSH2 0xC1 SWAP2 SWAP1 PUSH2 0x22B6 JUMP JUMPDEST PUSH2 0x112 PUSH2 0x10D CALLDATASIZE PUSH1 0x4 PUSH2 0x21C5 JUMP JUMPDEST PUSH2 0x488 JUMP JUMPDEST PUSH1 0x40 MLOAD SWAP1 ISZERO ISZERO DUP2 MSTORE PUSH1 0x20 ADD PUSH2 0xC1 JUMP JUMPDEST PUSH2 0xDD PUSH2 0x130 CALLDATASIZE PUSH1 0x4 PUSH2 0x2286 JUMP JUMPDEST PUSH2 0x727 JUMP JUMPDEST PUSH2 0x112 PUSH2 0x7FA JUMP JUMPDEST PUSH2 0xB7 PUSH2 0x14B CALLDATASIZE PUSH1 0x4 PUSH2 0x2204 JUMP JUMPDEST PUSH2 0x964 JUMP JUMPDEST PUSH2 0x112 PUSH2 0x15E CALLDATASIZE PUSH1 0x4 PUSH2 0x2286 JUMP JUMPDEST PUSH2 0x1288 JUMP JUMPDEST PUSH2 0x112 PUSH2 0x140E JUMP JUMPDEST PUSH2 0xB7 PUSH2 0x179 CALLDATASIZE PUSH1 0x4 PUSH2 0x21C5 JUMP JUMPDEST PUSH1 0x1 PUSH1 0x1 PUSH1 0xA0 SHL SUB AND PUSH1 0x0 SWAP1 DUP2 MSTORE PUSH1 0x7 PUSH1 0x20 MSTORE PUSH1 0x40 SWAP1 KECCAK256 SLOAD SWAP1 JUMP JUMPDEST PUSH1 0x0 DUP2 DUP2 MSTORE PUSH1 0x8 PUSH1 0x20 SWAP1 DUP2 MSTORE PUSH1 0x40 SWAP2 DUP3 SWAP1 KECCAK256 DUP3 MLOAD PUSH1 0xC0 DUP2 ADD DUP5 MSTORE DUP2 SLOAD PUSH1 0x1 PUSH1 0x1 PUSH1 0xA0 SHL SUB SWAP1 DUP2 AND DUP1 DUP4 MSTORE PUSH1 0x1 DUP5 ADD SLOAD SWAP1 SWAP2 AND SWAP4 DUP3 ADD SWAP4 SWAP1 SWAP4 MSTORE PUSH1 0x2 DUP3 ADD SLOAD SWAP4 DUP2 ADD SWAP4 SWAP1 SWAP4 MSTORE PUSH1 0x3 DUP2 ADD SLOAD PUSH1 0x60 DUP5 ADD MSTORE PUSH1 0x4 DUP2 ADD SLOAD PUSH1 0x80 DUP5 ADD MSTORE PUSH1 0x5 ADD SLOAD PUSH1 0xA0 DUP4 ADD MSTORE CALLER EQ PUSH2 0x22E JUMPI PUSH1 0x40 MLOAD PUSH3 0x461BCD PUSH1 0xE5 SHL DUP2 MSTORE PUSH1 0x20 PUSH1 0x4 DUP3 ADD MSTORE PUSH1 0x2 PUSH1 0x24 DUP3 ADD MSTORE PUSH2 0x134D PUSH1 0xF2 SHL PUSH1 0x44 DUP3 ADD MSTORE PUSH1 0x64 ADD JUMPDEST PUSH1 0x40 MLOAD DUP1 SWAP2 SUB SWAP1 REVERT JUMPDEST PUSH1 0x0 DUP2 PUSH1 0x60 ADD MLOAD DUP3 PUSH1 0x40 ADD MLOAD PUSH2 0x244 SWAP2 SWAP1 PUSH2 0x23AD JUMP JUMPDEST DUP3 MLOAD PUSH1 0x1 PUSH1 0x1 PUSH1 0xA0 SHL SUB AND PUSH1 0x0 SWAP1 DUP2 MSTORE PUSH1 0x7 PUSH1 0x20 MSTORE PUSH1 0x40 DUP2 KECCAK256 DUP1 SLOAD SWAP3 SWAP4 POP DUP4 SWAP3 SWAP1 SWAP2 SWAP1 PUSH2 0x272 SWAP1 DUP5 SWAP1 PUSH2 0x2356 JUMP JUMPDEST SWAP1 SWAP2 SSTORE POP POP PUSH1 0x40 DUP1 DUP4 ADD MLOAD PUSH1 0x0 DUP6 DUP2 MSTORE PUSH1 0x8 PUSH1 0x20 MSTORE SWAP2 DUP3 KECCAK256 PUSH1 0x3 ADD SSTORE PUSH1 0x6 SLOAD SWAP1 JUMPDEST DUP2 DUP2 LT ISZERO PUSH2 0x30D JUMPI DUP5 PUSH1 0x6 DUP3 DUP2 SLOAD DUP2 LT PUSH2 0x2BD JUMPI PUSH4 0x4E487B71 PUSH1 0xE0 SHL PUSH1 0x0 MSTORE PUSH1 0x32 PUSH1 0x4 MSTORE PUSH1 0x24 PUSH1 0x0 REVERT JUMPDEST SWAP1 PUSH1 0x0 MSTORE PUSH1 0x20 PUSH1 0x0 KECCAK256 ADD SLOAD EQ ISZERO PUSH2 0x2FB JUMPI PUSH1 0x6 DUP2 DUP2 SLOAD DUP2 LT PUSH2 0x2EF JUMPI PUSH4 0x4E487B71 PUSH1 0xE0 SHL PUSH1 0x0 MSTORE PUSH1 0x32 PUSH1 0x4 MSTORE PUSH1 0x24 PUSH1 0x0 REVERT JUMPDEST PUSH1 0x0 SWAP2 DUP3 MSTORE PUSH1 0x20 DUP3 KECCAK256 ADD SSTORE JUMPDEST DUP1 PUSH2 0x305 DUP2 PUSH2 0x23C4 JUMP JUMPDEST SWAP2 POP POP PUSH2 0x293 JUMP JUMPDEST POP CALLER PUSH1 0x0 SWAP1 DUP2 MSTORE PUSH1 0x7 PUSH1 0x20 MSTORE PUSH1 0x40 SWAP1 KECCAK256 SLOAD ISZERO PUSH2 0x32E JUMPI PUSH2 0x32C CALLER PUSH2 0x488 JUMP JUMPDEST POP JUMPDEST POP POP POP POP JUMP JUMPDEST PUSH1 0x1 PUSH1 0x1 PUSH1 0xA0 SHL SUB DUP2 AND PUSH1 0x0 SWAP1 DUP2 MSTORE PUSH1 0x9 PUSH1 0x20 SWAP1 DUP2 MSTORE PUSH1 0x40 DUP1 DUP4 KECCAK256 DUP1 SLOAD DUP3 MLOAD DUP2 DUP6 MUL DUP2 ADD DUP6 ADD SWAP1 SWAP4 MSTORE DUP1 DUP4 MSTORE PUSH1 0x60 SWAP5 DUP6 SWAP5 SWAP1 SWAP4 SWAP3 SWAP2 SWAP1 DUP4 ADD DUP3 DUP3 DUP1 ISZERO PUSH2 0x399 JUMPI PUSH1 0x20 MUL DUP3 ADD SWAP2 SWAP1 PUSH1 0x0 MSTORE PUSH1 0x20 PUSH1 0x0 KECCAK256 SWAP1 JUMPDEST DUP2 SLOAD DUP2 MSTORE PUSH1 0x20 ADD SWAP1 PUSH1 0x1 ADD SWAP1 DUP1 DUP4 GT PUSH2 0x385 JUMPI JUMPDEST POP POP PUSH1 0x5 SLOAD SWAP4 SWAP5 POP PUSH1 0x0 SWAP3 POP POP POP JUMPDEST DUP2 DUP2 LT ISZERO PUSH2 0x47E JUMPI PUSH1 0x8 PUSH1 0x0 DUP5 DUP4 DUP2 MLOAD DUP2 LT PUSH2 0x3D4 JUMPI PUSH4 0x4E487B71 PUSH1 0xE0 SHL PUSH1 0x0 MSTORE PUSH1 0x32 PUSH1 0x4 MSTORE PUSH1 0x24 PUSH1 0x0 REVERT JUMPDEST PUSH1 0x20 SWAP1 DUP2 MUL SWAP2 SWAP1 SWAP2 ADD DUP2 ADD MLOAD DUP3 MSTORE DUP2 DUP2 ADD SWAP3 SWAP1 SWAP3 MSTORE PUSH1 0x40 SWAP1 DUP2 ADD PUSH1 0x0 KECCAK256 DUP2 MLOAD PUSH1 0xC0 DUP2 ADD DUP4 MSTORE DUP2 SLOAD PUSH1 0x1 PUSH1 0x1 PUSH1 0xA0 SHL SUB SWAP1 DUP2 AND DUP3 MSTORE PUSH1 0x1 DUP4 ADD SLOAD AND SWAP4 DUP2 ADD SWAP4 SWAP1 SWAP4 MSTORE PUSH1 0x2 DUP2 ADD SLOAD SWAP2 DUP4 ADD SWAP2 SWAP1 SWAP2 MSTORE PUSH1 0x3 DUP2 ADD SLOAD PUSH1 0x60 DUP4 ADD MSTORE PUSH1 0x4 DUP2 ADD SLOAD PUSH1 0x80 DUP4 ADD MSTORE PUSH1 0x5 ADD SLOAD PUSH1 0xA0 DUP3 ADD MSTORE DUP5 MLOAD DUP6 SWAP1 DUP4 SWAP1 DUP2 LT PUSH2 0x460 JUMPI PUSH4 0x4E487B71 PUSH1 0xE0 SHL PUSH1 0x0 MSTORE PUSH1 0x32 PUSH1 0x4 MSTORE PUSH1 0x24 PUSH1 0x0 REVERT JUMPDEST PUSH1 0x20 MUL PUSH1 0x20 ADD ADD DUP2 SWAP1 MSTORE POP DUP1 DUP1 PUSH2 0x476 SWAP1 PUSH2 0x23C4 JUMP JUMPDEST SWAP2 POP POP PUSH2 0x3A8 JUMP JUMPDEST POP SWAP2 SWAP5 SWAP4 POP POP POP POP JUMP JUMPDEST PUSH1 0x0 PUSH1 0x2 PUSH1 0x0 SLOAD EQ ISZERO PUSH2 0x4DD JUMPI PUSH1 0x40 MLOAD PUSH3 0x461BCD PUSH1 0xE5 SHL DUP2 MSTORE PUSH1 0x20 PUSH1 0x4 DUP3 ADD MSTORE PUSH1 0x1F PUSH1 0x24 DUP3 ADD MSTORE PUSH32 0x5265656E7472616E637947756172643A207265656E7472616E742063616C6C00 PUSH1 0x44 DUP3 ADD MSTORE PUSH1 0x64 ADD PUSH2 0x225 JUMP JUMPDEST PUSH1 0x2 PUSH1 0x0 SWAP1 DUP2 SSTORE PUSH1 0x1 PUSH1 0x1 PUSH1 0xA0 SHL SUB DUP4 DUP2 AND DUP3 MSTORE PUSH1 0x7 PUSH1 0x20 MSTORE PUSH1 0x40 SWAP2 DUP3 SWAP1 KECCAK256 SLOAD SWAP2 MLOAD PUSH4 0x70A08231 PUSH1 0xE0 SHL DUP2 MSTORE ADDRESS PUSH1 0x4 DUP3 ADD MSTORE DUP3 SWAP2 PUSH32 0x0 AND SWAP1 PUSH4 0x70A08231 SWAP1 PUSH1 0x24 ADD PUSH1 0x20 PUSH1 0x40 MLOAD DUP1 DUP4 SUB DUP2 DUP7 DUP1 EXTCODESIZE ISZERO DUP1 ISZERO PUSH2 0x555 JUMPI PUSH1 0x0 DUP1 REVERT JUMPDEST POP GAS STATICCALL ISZERO DUP1 ISZERO PUSH2 0x569 JUMPI RETURNDATASIZE PUSH1 0x0 DUP1 RETURNDATACOPY RETURNDATASIZE PUSH1 0x0 REVERT JUMPDEST POP POP POP POP PUSH1 0x40 MLOAD RETURNDATASIZE PUSH1 0x1F NOT PUSH1 0x1F DUP3 ADD AND DUP3 ADD DUP1 PUSH1 0x40 MSTORE POP DUP2 ADD SWAP1 PUSH2 0x58D SWAP2 SWAP1 PUSH2 0x229E JUMP JUMPDEST LT ISZERO DUP1 ISZERO PUSH2 0x59B JUMPI POP PUSH1 0x0 DUP2 GT JUMPDEST PUSH2 0x5CC JUMPI PUSH1 0x40 MLOAD PUSH3 0x461BCD PUSH1 0xE5 SHL DUP2 MSTORE PUSH1 0x20 PUSH1 0x4 DUP3 ADD MSTORE PUSH1 0x2 PUSH1 0x24 DUP3 ADD MSTORE PUSH2 0x2699 PUSH1 0xF1 SHL PUSH1 0x44 DUP3 ADD MSTORE PUSH1 0x64 ADD PUSH2 0x225 JUMP JUMPDEST PUSH1 0x1 PUSH1 0x1 PUSH1 0xA0 SHL SUB DUP4 AND PUSH1 0x0 SWAP1 DUP2 MSTORE PUSH1 0x7 PUSH1 0x20 MSTORE PUSH1 0x40 DUP2 KECCAK256 DUP1 SLOAD DUP4 SWAP3 SWAP1 PUSH2 0x5F4 SWAP1 DUP5 SWAP1 PUSH2 0x23AD JUMP JUMPDEST SWAP1 SWAP2 SSTORE POP POP PUSH1 0x40 MLOAD PUSH4 0xA9059CBB PUSH1 0xE0 SHL DUP2 MSTORE PUSH1 0x1 PUSH1 0x1 PUSH1 0xA0 SHL SUB DUP5 DUP2 AND PUSH1 0x4 DUP4 ADD MSTORE PUSH1 0x24 DUP3 ADD DUP4 SWAP1 MSTORE PUSH1 0x0 SWAP2 PUSH32 0x0 SWAP1 SWAP2 AND SWAP1 PUSH4 0xA9059CBB SWAP1 PUSH1 0x44 ADD PUSH1 0x20 PUSH1 0x40 MLOAD DUP1 DUP4 SUB DUP2 PUSH1 0x0 DUP8 DUP1 EXTCODESIZE ISZERO DUP1 ISZERO PUSH2 0x668 JUMPI PUSH1 0x0 DUP1 REVERT JUMPDEST POP GAS CALL ISZERO DUP1 ISZERO PUSH2 0x67C JUMPI RETURNDATASIZE PUSH1 0x0 DUP1 RETURNDATACOPY RETURNDATASIZE PUSH1 0x0 REVERT JUMPDEST POP POP POP POP PUSH1 0x40 MLOAD RETURNDATASIZE PUSH1 0x1F NOT PUSH1 0x1F DUP3 ADD AND DUP3 ADD DUP1 PUSH1 0x40 MSTORE POP DUP2 ADD SWAP1 PUSH2 0x6A0 SWAP2 SWAP1 PUSH2 0x226A JUMP JUMPDEST SWAP1 POP DUP1 PUSH2 0x6D4 JUMPI PUSH1 0x40 MLOAD PUSH3 0x461BCD PUSH1 0xE5 SHL DUP2 MSTORE PUSH1 0x20 PUSH1 0x4 DUP3 ADD MSTORE PUSH1 0x2 PUSH1 0x24 DUP3 ADD MSTORE PUSH2 0x4D33 PUSH1 0xF0 SHL PUSH1 0x44 DUP3 ADD MSTORE PUSH1 0x64 ADD PUSH2 0x225 JUMP JUMPDEST PUSH1 0x40 DUP1 MLOAD PUSH1 0x1 PUSH1 0x1 PUSH1 0xA0 SHL SUB DUP7 AND DUP2 MSTORE PUSH1 0x20 DUP2 ADD DUP5 SWAP1 MSTORE PUSH32 0x884EDAD9CE6FA2440D8A54CC123490EB96D2768479D49FF9C7366125A9424364 SWAP2 ADD PUSH1 0x40 MLOAD DUP1 SWAP2 SUB SWAP1 LOG1 PUSH1 0x1 SWAP3 POP POP POP JUMPDEST PUSH1 0x1 PUSH1 0x0 SSTORE SWAP2 SWAP1 POP JUMP JUMPDEST PUSH1 0x0 DUP2 DUP2 MSTORE PUSH1 0xB PUSH1 0x20 SWAP1 DUP2 MSTORE PUSH1 0x40 DUP1 DUP4 KECCAK256 DUP1 SLOAD DUP3 MLOAD DUP2 DUP6 MUL DUP2 ADD DUP6 ADD SWAP1 SWAP4 MSTORE DUP1 DUP4 MSTORE SWAP2 SWAP3 SWAP1 SWAP2 SWAP1 DUP4 ADD DUP3 DUP3 DUP1 ISZERO PUSH2 0x77D JUMPI PUSH1 0x20 MUL DUP3 ADD SWAP2 SWAP1 PUSH1 0x0 MSTORE PUSH1 0x20 PUSH1 0x0 KECCAK256 SWAP1 JUMPDEST DUP2 SLOAD DUP2 MSTORE PUSH1 0x20 ADD SWAP1 PUSH1 0x1 ADD SWAP1 DUP1 DUP4 GT PUSH2 0x769 JUMPI JUMPDEST POP POP DUP4 MLOAD SWAP4 SWAP5 POP PUSH1 0x0 SWAP3 POP POP POP JUMPDEST DUP2 DUP2 LT ISZERO PUSH2 0x7D6 JUMPI PUSH2 0x7C3 DUP4 DUP3 DUP2 MLOAD DUP2 LT PUSH2 0x7B6 JUMPI PUSH4 0x4E487B71 PUSH1 0xE0 SHL PUSH1 0x0 MSTORE PUSH1 0x32 PUSH1 0x4 MSTORE PUSH1 0x24 PUSH1 0x0 REVERT JUMPDEST PUSH1 0x20 MUL PUSH1 0x20 ADD ADD MLOAD PUSH2 0x150E JUMP JUMPDEST POP DUP1 PUSH2 0x7CE DUP2 PUSH2 0x23C4 JUMP JUMPDEST SWAP2 POP POP PUSH2 0x78B JUMP JUMPDEST POP CALLER PUSH1 0x0 SWAP1 DUP2 MSTORE PUSH1 0x7 PUSH1 0x20 MSTORE PUSH1 0x40 SWAP1 KECCAK256 SLOAD ISZERO PUSH2 0x7F5 JUMPI PUSH2 0x32E CALLER PUSH2 0x488 JUMP JUMPDEST POP POP POP JUMP JUMPDEST PUSH1 0x1 SLOAD PUSH1 0x0 SWAP1 PUSH1 0x1 PUSH1 0x1 PUSH1 0xA0 SHL SUB AND CALLER EQ DUP1 PUSH2 0x8B7 JUMPI POP PUSH32 0x0 PUSH1 0x1 PUSH1 0x1 PUSH1 0xA0 SHL SUB AND PUSH4 0xCE606EE0 PUSH1 0x40 MLOAD DUP2 PUSH4 0xFFFFFFFF AND PUSH1 0xE0 SHL DUP2 MSTORE PUSH1 0x4 ADD PUSH1 0x20 PUSH1 0x40 MLOAD DUP1 DUP4 SUB DUP2 DUP7 DUP1 EXTCODESIZE ISZERO DUP1 ISZERO PUSH2 0x86A JUMPI PUSH1 0x0 DUP1 REVERT JUMPDEST POP GAS STATICCALL ISZERO DUP1 ISZERO PUSH2 0x87E JUMPI RETURNDATASIZE PUSH1 0x0 DUP1 RETURNDATACOPY RETURNDATASIZE PUSH1 0x0 REVERT JUMPDEST POP POP POP POP PUSH1 0x40 MLOAD RETURNDATASIZE PUSH1 0x1F NOT PUSH1 0x1F DUP3 ADD AND DUP3 ADD DUP1 PUSH1 0x40 MSTORE POP DUP2 ADD SWAP1 PUSH2 0x8A2 SWAP2 SWAP1 PUSH2 0x21E8 JUMP JUMPDEST PUSH1 0x1 PUSH1 0x1 PUSH1 0xA0 SHL SUB AND CALLER PUSH1 0x1 PUSH1 0x1 PUSH1 0xA0 SHL SUB AND EQ JUMPDEST DUP1 PUSH2 0x8CC JUMPI POP PUSH1 0x2 SLOAD PUSH1 0x1 PUSH1 0x1 PUSH1 0xA0 SHL SUB AND CALLER EQ JUMPDEST PUSH2 0x8E8 JUMPI PUSH1 0x40 MLOAD PUSH3 0x461BCD PUSH1 0xE5 SHL DUP2 MSTORE PUSH1 0x4 ADD PUSH2 0x225 SWAP1 PUSH2 0x233A JUMP JUMPDEST PUSH1 0x3 SLOAD ISZERO DUP1 PUSH2 0x8F9 JUMPI POP PUSH1 0x3 SLOAD PUSH1 0x4 EQ JUMPDEST ISZERO PUSH2 0x95E JUMPI PUSH1 0x4 SLOAD PUSH1 0x0 JUMPDEST DUP2 DUP2 LT ISZERO PUSH2 0x952 JUMPI PUSH2 0x940 PUSH1 0x4 DUP3 DUP2 SLOAD DUP2 LT PUSH2 0x930 JUMPI PUSH4 0x4E487B71 PUSH1 0xE0 SHL PUSH1 0x0 MSTORE PUSH1 0x32 PUSH1 0x4 MSTORE PUSH1 0x24 PUSH1 0x0 REVERT JUMPDEST SWAP1 PUSH1 0x0 MSTORE PUSH1 0x20 PUSH1 0x0 KECCAK256 ADD SLOAD PUSH2 0x1E52 JUMP JUMPDEST DUP1 PUSH2 0x94A DUP2 PUSH2 0x23C4 JUMP JUMPDEST SWAP2 POP POP PUSH2 0x904 JUMP JUMPDEST POP POP PUSH1 0x3 DUP1 SSTORE POP PUSH1 0x1 SWAP1 JUMP JUMPDEST POP PUSH1 0x0 SWAP1 JUMP JUMPDEST PUSH1 0x40 MLOAD PUSH4 0x332DACCF PUSH1 0xE0 SHL DUP2 MSTORE CALLER PUSH1 0x4 DUP3 ADD MSTORE PUSH1 0x0 SWAP1 PUSH32 0x0 PUSH1 0x1 PUSH1 0x1 PUSH1 0xA0 SHL SUB AND SWAP1 PUSH4 0x332DACCF SWAP1 PUSH1 0x24 ADD PUSH1 0x20 PUSH1 0x40 MLOAD DUP1 DUP4 SUB DUP2 DUP7 DUP1 EXTCODESIZE ISZERO DUP1 ISZERO PUSH2 0x9C6 JUMPI PUSH1 0x0 DUP1 REVERT JUMPDEST POP GAS STATICCALL ISZERO DUP1 ISZERO PUSH2 0x9DA JUMPI RETURNDATASIZE PUSH1 0x0 DUP1 RETURNDATACOPY RETURNDATASIZE PUSH1 0x0 REVERT JUMPDEST POP POP POP POP PUSH1 0x40 MLOAD RETURNDATASIZE PUSH1 0x1F NOT PUSH1 0x1F DUP3 ADD AND DUP3 ADD DUP1 PUSH1 0x40 MSTORE POP DUP2 ADD SWAP1 PUSH2 0x9FE SWAP2 SWAP1 PUSH2 0x226A JUMP JUMPDEST ISZERO DUP1 ISZERO PUSH2 0xA0B JUMPI POP PUSH1 0x3 SLOAD ISZERO JUMPDEST PUSH2 0xA3C JUMPI PUSH1 0x40 MLOAD PUSH3 0x461BCD PUSH1 0xE5 SHL DUP2 MSTORE PUSH1 0x20 PUSH1 0x4 DUP3 ADD MSTORE PUSH1 0x2 PUSH1 0x24 DUP3 ADD MSTORE PUSH2 0x9A7 PUSH1 0xF3 SHL PUSH1 0x44 DUP3 ADD MSTORE PUSH1 0x64 ADD PUSH2 0x225 JUMP JUMPDEST DUP3 PUSH1 0x1 EQ DUP1 PUSH2 0xA4B JUMPI POP DUP3 PUSH1 0x2 EQ JUMPDEST PUSH2 0xA7C JUMPI PUSH1 0x40 MLOAD PUSH3 0x461BCD PUSH1 0xE5 SHL DUP2 MSTORE PUSH1 0x20 PUSH1 0x4 DUP3 ADD MSTORE PUSH1 0x2 PUSH1 0x24 DUP3 ADD MSTORE PUSH2 0x4D39 PUSH1 0xF0 SHL PUSH1 0x44 DUP3 ADD MSTORE PUSH1 0x64 ADD PUSH2 0x225 JUMP JUMPDEST PUSH1 0x40 MLOAD PUSH4 0x6EB1769F PUSH1 0xE1 SHL DUP2 MSTORE CALLER PUSH1 0x4 DUP3 ADD MSTORE ADDRESS PUSH1 0x24 DUP3 ADD MSTORE DUP6 SWAP1 PUSH32 0x0 PUSH1 0x1 PUSH1 0x1 PUSH1 0xA0 SHL SUB AND SWAP1 PUSH4 0xDD62ED3E SWAP1 PUSH1 0x44 ADD PUSH1 0x20 PUSH1 0x40 MLOAD DUP1 DUP4 SUB DUP2 DUP7 DUP1 EXTCODESIZE ISZERO DUP1 ISZERO PUSH2 0xAE3 JUMPI PUSH1 0x0 DUP1 REVERT JUMPDEST POP GAS STATICCALL ISZERO DUP1 ISZERO PUSH2 0xAF7 JUMPI RETURNDATASIZE PUSH1 0x0 DUP1 RETURNDATACOPY RETURNDATASIZE PUSH1 0x0 REVERT JUMPDEST POP POP POP POP PUSH1 0x40 MLOAD RETURNDATASIZE PUSH1 0x1F NOT PUSH1 0x1F DUP3 ADD AND DUP3 ADD DUP1 PUSH1 0x40 MSTORE POP DUP2 ADD SWAP1 PUSH2 0xB1B SWAP2 SWAP1 PUSH2 0x229E JUMP JUMPDEST LT ISZERO DUP1 ISZERO PUSH2 0xBB9 JUMPI POP PUSH32 0x0 PUSH1 0x1 PUSH1 0x1 PUSH1 0xA0 SHL SUB AND PUSH4 0x375B3C0A PUSH1 0x40 MLOAD DUP2 PUSH4 0xFFFFFFFF AND PUSH1 0xE0 SHL DUP2 MSTORE PUSH1 0x4 ADD PUSH1 0x20 PUSH1 0x40 MLOAD DUP1 DUP4 SUB DUP2 DUP7 DUP1 EXTCODESIZE ISZERO DUP1 ISZERO PUSH2 0xB7D JUMPI PUSH1 0x0 DUP1 REVERT JUMPDEST POP GAS STATICCALL ISZERO DUP1 ISZERO PUSH2 0xB91 JUMPI RETURNDATASIZE PUSH1 0x0 DUP1 RETURNDATACOPY RETURNDATASIZE PUSH1 0x0 REVERT JUMPDEST POP POP POP POP PUSH1 0x40 MLOAD RETURNDATASIZE PUSH1 0x1F NOT PUSH1 0x1F DUP3 ADD AND DUP3 ADD DUP1 PUSH1 0x40 MSTORE POP DUP2 ADD SWAP1 PUSH2 0xBB5 SWAP2 SWAP1 PUSH2 0x229E JUMP JUMPDEST DUP6 LT ISZERO JUMPDEST PUSH2 0xBEB JUMPI PUSH1 0x40 MLOAD PUSH3 0x461BCD PUSH1 0xE5 SHL DUP2 MSTORE PUSH1 0x20 PUSH1 0x4 DUP3 ADD MSTORE PUSH1 0x3 PUSH1 0x24 DUP3 ADD MSTORE PUSH3 0x4D313 PUSH1 0xEC SHL PUSH1 0x44 DUP3 ADD MSTORE PUSH1 0x64 ADD PUSH2 0x225 JUMP JUMPDEST PUSH1 0x40 MLOAD PUSH4 0x23B872DD PUSH1 0xE0 SHL DUP2 MSTORE CALLER PUSH1 0x4 DUP3 ADD MSTORE ADDRESS PUSH1 0x24 DUP3 ADD MSTORE PUSH1 0x44 DUP2 ADD DUP7 SWAP1 MSTORE PUSH32 0x0 PUSH1 0x1 PUSH1 0x1 PUSH1 0xA0 SHL SUB AND SWAP1 PUSH4 0x23B872DD SWAP1 PUSH1 0x64 ADD PUSH1 0x20 PUSH1 0x40 MLOAD DUP1 DUP4 SUB DUP2 PUSH1 0x0 DUP8 DUP1 EXTCODESIZE ISZERO DUP1 ISZERO PUSH2 0xC59 JUMPI PUSH1 0x0 DUP1 REVERT JUMPDEST POP GAS CALL ISZERO DUP1 ISZERO PUSH2 0xC6D JUMPI RETURNDATASIZE PUSH1 0x0 DUP1 RETURNDATACOPY RETURNDATASIZE PUSH1 0x0 REVERT JUMPDEST POP POP POP POP PUSH1 0x40 MLOAD RETURNDATASIZE PUSH1 0x1F NOT PUSH1 0x1F DUP3 ADD AND DUP3 ADD DUP1 PUSH1 0x40 MSTORE POP DUP2 ADD SWAP1 PUSH2 0xC91 SWAP2 SWAP1 PUSH2 0x226A JUMP JUMPDEST PUSH2 0xCC3 JUMPI PUSH1 0x40 MLOAD PUSH3 0x461BCD PUSH1 0xE5 SHL DUP2 MSTORE PUSH1 0x20 PUSH1 0x4 DUP3 ADD MSTORE PUSH1 0x3 PUSH1 0x24 DUP3 ADD MSTORE PUSH3 0x4D3131 PUSH1 0xE8 SHL PUSH1 0x44 DUP3 ADD MSTORE PUSH1 0x64 ADD PUSH2 0x225 JUMP JUMPDEST PUSH1 0x0 PUSH2 0xCF2 DUP9 DUP9 DUP9 DUP5 PUSH2 0xCD7 PUSH1 0x64 DUP12 PUSH2 0x23AD JUMP JUMPDEST PUSH2 0xCE2 DUP12 PUSH1 0x64 PUSH2 0x238E JUMP JUMPDEST PUSH2 0xCEC SWAP2 SWAP1 PUSH2 0x236E JUMP JUMPDEST DUP10 PUSH2 0x1F0D JUMP JUMPDEST PUSH1 0x6 SLOAD SWAP1 SWAP2 POP ISZERO PUSH2 0x11F2 JUMPI DUP6 JUMPDEST PUSH32 0x0 PUSH1 0x1 PUSH1 0x1 PUSH1 0xA0 SHL SUB AND PUSH4 0x375B3C0A PUSH1 0x40 MLOAD DUP2 PUSH4 0xFFFFFFFF AND PUSH1 0xE0 SHL DUP2 MSTORE PUSH1 0x4 ADD PUSH1 0x20 PUSH1 0x40 MLOAD DUP1 DUP4 SUB DUP2 DUP7 DUP1 EXTCODESIZE ISZERO DUP1 ISZERO PUSH2 0xD58 JUMPI PUSH1 0x0 DUP1 REVERT JUMPDEST POP GAS STATICCALL ISZERO DUP1 ISZERO PUSH2 0xD6C JUMPI RETURNDATASIZE PUSH1 0x0 DUP1 RETURNDATACOPY RETURNDATASIZE PUSH1 0x0 REVERT JUMPDEST POP POP POP POP PUSH1 0x40 MLOAD RETURNDATASIZE PUSH1 0x1F NOT PUSH1 0x1F DUP3 ADD AND DUP3 ADD DUP1 PUSH1 0x40 MSTORE POP DUP2 ADD SWAP1 PUSH2 0xD90 SWAP2 SWAP1 PUSH2 0x229E JUMP JUMPDEST DUP2 LT PUSH2 0x11EC JUMPI PUSH1 0x0 DUP1 PUSH1 0x0 JUMPDEST PUSH1 0x6 SLOAD DUP2 LT ISZERO PUSH2 0xE42 JUMPI PUSH1 0x0 PUSH1 0x6 DUP3 DUP2 SLOAD DUP2 LT PUSH2 0xDC9 JUMPI PUSH4 0x4E487B71 PUSH1 0xE0 SHL PUSH1 0x0 MSTORE PUSH1 0x32 PUSH1 0x4 MSTORE PUSH1 0x24 PUSH1 0x0 REVERT JUMPDEST SWAP1 PUSH1 0x0 MSTORE PUSH1 0x20 PUSH1 0x0 KECCAK256 ADD SLOAD SWAP1 POP PUSH1 0x8 PUSH1 0x0 DUP3 DUP2 MSTORE PUSH1 0x20 ADD SWAP1 DUP2 MSTORE PUSH1 0x20 ADD PUSH1 0x0 KECCAK256 PUSH1 0x5 ADD SLOAD DUP10 EQ ISZERO PUSH2 0xDFA JUMPI POP PUSH2 0xE30 JUMP JUMPDEST PUSH1 0x0 DUP2 DUP2 MSTORE PUSH1 0x8 PUSH1 0x20 MSTORE PUSH1 0x40 SWAP1 KECCAK256 PUSH1 0x4 ADD SLOAD DUP4 LT ISZERO PUSH2 0xE2E JUMPI PUSH1 0x0 DUP2 DUP2 MSTORE PUSH1 0x8 PUSH1 0x20 MSTORE PUSH1 0x40 SWAP1 KECCAK256 PUSH1 0x4 ADD SLOAD SWAP2 SWAP4 POP SWAP1 SWAP2 POP DUP3 SWAP1 JUMPDEST POP JUMPDEST DUP1 PUSH2 0xE3A DUP2 PUSH2 0x23C4 JUMP JUMPDEST SWAP2 POP POP PUSH2 0xD9C JUMP JUMPDEST POP DUP8 DUP2 GT DUP1 PUSH2 0xE59 JUMPI POP PUSH1 0x0 DUP2 GT DUP1 ISZERO PUSH2 0xE59 JUMPI POP DUP6 JUMPDEST ISZERO PUSH2 0x11A9 JUMPI PUSH1 0x0 PUSH1 0x6 DUP4 DUP2 SLOAD DUP2 LT PUSH2 0xE81 JUMPI PUSH4 0x4E487B71 PUSH1 0xE0 SHL PUSH1 0x0 MSTORE PUSH1 0x32 PUSH1 0x4 MSTORE PUSH1 0x24 PUSH1 0x0 REVERT JUMPDEST PUSH1 0x0 SWAP2 DUP3 MSTORE PUSH1 0x20 DUP1 DUP4 KECCAK256 SWAP1 SWAP2 ADD SLOAD DUP1 DUP4 MSTORE PUSH1 0x8 DUP3 MSTORE PUSH1 0x40 DUP1 DUP5 KECCAK256 DUP2 MLOAD PUSH1 0xC0 DUP2 ADD DUP4 MSTORE DUP2 SLOAD PUSH1 0x1 PUSH1 0x1 PUSH1 0xA0 SHL SUB SWAP1 DUP2 AND DUP3 MSTORE PUSH1 0x1 DUP4 ADD SLOAD AND SWAP5 DUP2 ADD SWAP5 SWAP1 SWAP5 MSTORE PUSH1 0x2 DUP2 ADD SLOAD SWAP2 DUP5 ADD SWAP2 SWAP1 SWAP2 MSTORE PUSH1 0x3 DUP2 ADD SLOAD PUSH1 0x60 DUP5 ADD MSTORE PUSH1 0x4 DUP2 ADD SLOAD PUSH1 0x80 DUP5 ADD MSTORE PUSH1 0x5 ADD SLOAD PUSH1 0xA0 DUP4 ADD MSTORE SWAP3 POP SWAP1 PUSH2 0xEF6 PUSH1 0x64 DUP13 PUSH2 0x23AD JUMP JUMPDEST DUP3 PUSH1 0x60 ADD MLOAD DUP4 PUSH1 0x40 ADD MLOAD PUSH2 0xF0A SWAP2 SWAP1 PUSH2 0x23AD JUMP JUMPDEST PUSH2 0xF14 SWAP2 SWAP1 PUSH2 0x236E JUMP JUMPDEST SWAP1 POP PUSH2 0xF21 PUSH1 0x64 DUP3 PUSH2 0x238E JUMP JUMPDEST SWAP1 POP PUSH1 0x0 DUP1 PUSH1 0x0 DUP15 DUP5 GT PUSH2 0x101E JUMPI DUP4 SWAP3 POP PUSH2 0xF3D PUSH1 0x64 DUP16 PUSH2 0x23AD JUMP JUMPDEST PUSH2 0xF47 SWAP1 DUP6 PUSH2 0x238E JUMP JUMPDEST SWAP2 POP PUSH2 0xF54 PUSH1 0x64 DUP4 PUSH2 0x236E JUMP JUMPDEST SWAP2 POP DUP13 PUSH1 0x1 EQ ISZERO PUSH2 0xFBC JUMPI PUSH2 0xF6B DUP11 DUP8 DUP6 DUP6 PUSH2 0x2095 JUMP JUMPDEST PUSH1 0x40 DUP1 MLOAD DUP13 DUP2 MSTORE PUSH1 0x20 DUP2 ADD DUP10 SWAP1 MSTORE SWAP1 DUP2 ADD DUP6 SWAP1 MSTORE PUSH1 0x60 DUP2 ADD DUP5 SWAP1 MSTORE SWAP1 SWAP2 POP PUSH32 0x5DE48BB383B4A2AAAD84721B80D93429B813651B0EEFBD59D32018CFE28215DC SWAP1 PUSH1 0x80 ADD JUMPDEST PUSH1 0x40 MLOAD DUP1 SWAP2 SUB SWAP1 LOG1 PUSH2 0x10BC JUMP JUMPDEST DUP13 PUSH1 0x2 EQ ISZERO PUSH2 0x1019 JUMPI PUSH2 0xFD1 DUP7 DUP12 DUP5 DUP7 PUSH2 0x2095 JUMP JUMPDEST PUSH1 0x40 DUP1 MLOAD DUP9 DUP2 MSTORE PUSH1 0x20 DUP2 ADD DUP14 SWAP1 MSTORE SWAP1 DUP2 ADD DUP5 SWAP1 MSTORE PUSH1 0x60 DUP2 ADD DUP6 SWAP1 MSTORE SWAP1 SWAP2 POP PUSH32 0x5DE48BB383B4A2AAAD84721B80D93429B813651B0EEFBD59D32018CFE28215DC SWAP1 PUSH1 0x80 ADD PUSH2 0xFAF JUMP JUMPDEST PUSH2 0x10BC JUMP JUMPDEST DUP15 SWAP3 POP PUSH2 0x102C PUSH1 0x64 DUP16 PUSH2 0x23AD JUMP JUMPDEST DUP16 PUSH2 0x1037 SWAP2 SWAP1 PUSH2 0x238E JUMP JUMPDEST SWAP2 POP PUSH2 0x1044 PUSH1 0x64 DUP4 PUSH2 0x236E JUMP JUMPDEST SWAP2 POP DUP13 PUSH1 0x1 EQ ISZERO PUSH2 0x105B JUMPI PUSH2 0xF6B DUP11 DUP8 DUP6 DUP6 PUSH2 0x2095 JUMP JUMPDEST DUP13 PUSH1 0x2 EQ ISZERO PUSH2 0x10BC JUMPI PUSH2 0x1070 DUP7 DUP12 DUP5 DUP7 PUSH2 0x2095 JUMP JUMPDEST PUSH1 0x40 DUP1 MLOAD DUP9 DUP2 MSTORE PUSH1 0x20 DUP2 ADD DUP14 SWAP1 MSTORE SWAP1 DUP2 ADD DUP5 SWAP1 MSTORE PUSH1 0x60 DUP2 ADD DUP6 SWAP1 MSTORE SWAP1 SWAP2 POP PUSH32 0x5DE48BB383B4A2AAAD84721B80D93429B813651B0EEFBD59D32018CFE28215DC SWAP1 PUSH1 0x80 ADD PUSH1 0x40 MLOAD DUP1 SWAP2 SUB SWAP1 LOG1 JUMPDEST PUSH1 0x0 DUP11 DUP2 MSTORE PUSH1 0xB PUSH1 0x20 SWAP1 DUP2 MSTORE PUSH1 0x40 DUP1 DUP4 KECCAK256 DUP1 SLOAD PUSH1 0x1 DUP2 DUP2 ADD DUP4 SSTORE SWAP2 DUP6 MSTORE DUP4 DUP6 KECCAK256 ADD DUP6 SWAP1 SSTORE DUP10 DUP5 MSTORE DUP2 DUP5 KECCAK256 DUP1 SLOAD SWAP2 DUP3 ADD DUP2 SSTORE DUP5 MSTORE DUP3 DUP5 KECCAK256 ADD DUP5 SWAP1 SSTORE DUP13 DUP4 MSTORE PUSH1 0x8 SWAP1 SWAP2 MSTORE DUP2 KECCAK256 PUSH1 0x3 ADD DUP1 SLOAD DUP6 SWAP3 SWAP1 PUSH2 0x1113 SWAP1 DUP5 SWAP1 PUSH2 0x2356 JUMP JUMPDEST SWAP1 SWAP2 SSTORE POP POP PUSH1 0x0 DUP7 DUP2 MSTORE PUSH1 0x8 PUSH1 0x20 MSTORE PUSH1 0x40 DUP2 KECCAK256 PUSH1 0x3 ADD DUP1 SLOAD DUP5 SWAP3 SWAP1 PUSH2 0x1139 SWAP1 DUP5 SWAP1 PUSH2 0x2356 JUMP JUMPDEST SWAP1 SWAP2 SSTORE POP POP PUSH1 0x0 DUP7 DUP2 MSTORE PUSH1 0x8 PUSH1 0x20 MSTORE PUSH1 0x40 SWAP1 KECCAK256 PUSH1 0x3 DUP2 ADD SLOAD PUSH1 0x2 SWAP1 SWAP2 ADD SLOAD PUSH2 0x1161 SWAP2 SWAP1 PUSH2 0x23AD JUMP JUMPDEST PUSH2 0x1192 JUMPI PUSH1 0x6 DUP9 DUP2 SLOAD DUP2 LT PUSH2 0x1186 JUMPI PUSH4 0x4E487B71 PUSH1 0xE0 SHL PUSH1 0x0 MSTORE PUSH1 0x32 PUSH1 0x4 MSTORE PUSH1 0x24 PUSH1 0x0 REVERT JUMPDEST PUSH1 0x0 SWAP2 DUP3 MSTORE PUSH1 0x20 DUP3 KECCAK256 ADD SSTORE JUMPDEST PUSH2 0x119C DUP4 DUP11 PUSH2 0x23AD JUMP JUMPDEST SWAP9 POP POP POP POP POP POP POP PUSH2 0x11E5 JUMP JUMPDEST POP POP PUSH1 0x6 DUP1 SLOAD PUSH1 0x1 DUP2 ADD DUP3 SSTORE PUSH1 0x0 SWAP2 SWAP1 SWAP2 MSTORE PUSH32 0xF652222313E28459528D920B65115C16C04F3EFC82AAEDC97BE59F3F377C0D3F ADD DUP3 SWAP1 SSTORE PUSH2 0x11EC JUMP JUMPDEST POP POP PUSH2 0xCFF JUMP JUMPDEST POP PUSH2 0x1228 JUMP JUMPDEST PUSH1 0x6 DUP1 SLOAD PUSH1 0x1 DUP2 ADD DUP3 SSTORE PUSH1 0x0 SWAP2 SWAP1 SWAP2 MSTORE PUSH32 0xF652222313E28459528D920B65115C16C04F3EFC82AAEDC97BE59F3F377C0D3F ADD DUP2 SWAP1 SSTORE JUMPDEST PUSH1 0x40 DUP1 MLOAD CALLER DUP2 MSTORE ADDRESS PUSH1 0x20 DUP3 ADD MSTORE SWAP1 DUP2 ADD DUP3 SWAP1 MSTORE PUSH1 0x60 DUP2 ADD DUP8 SWAP1 MSTORE PUSH1 0x80 DUP2 ADD DUP7 SWAP1 MSTORE PUSH1 0xA0 DUP2 ADD DUP6 SWAP1 MSTORE PUSH32 0x618F358BB45538682ADE624A4A1959053D9DABD20FE300508034B879681B37BE SWAP1 PUSH1 0xC0 ADD PUSH1 0x40 MLOAD DUP1 SWAP2 SUB SWAP1 LOG1 SWAP8 SWAP7 POP POP POP POP POP POP POP JUMP JUMPDEST PUSH1 0x1 SLOAD PUSH1 0x0 SWAP1 PUSH1 0x1 PUSH1 0x1 PUSH1 0xA0 SHL SUB AND CALLER EQ DUP1 PUSH2 0x1345 JUMPI POP PUSH32 0x0 PUSH1 0x1 PUSH1 0x1 PUSH1 0xA0 SHL SUB AND PUSH4 0xCE606EE0 PUSH1 0x40 MLOAD DUP2 PUSH4 0xFFFFFFFF AND PUSH1 0xE0 SHL DUP2 MSTORE PUSH1 0x4 ADD PUSH1 0x20 PUSH1 0x40 MLOAD DUP1 DUP4 SUB DUP2 DUP7 DUP1 EXTCODESIZE ISZERO DUP1 ISZERO PUSH2 0x12F8 JUMPI PUSH1 0x0 DUP1 REVERT JUMPDEST POP GAS STATICCALL ISZERO DUP1 ISZERO PUSH2 0x130C JUMPI RETURNDATASIZE PUSH1 0x0 DUP1 RETURNDATACOPY RETURNDATASIZE PUSH1 0x0 REVERT JUMPDEST POP POP POP POP PUSH1 0x40 MLOAD RETURNDATASIZE PUSH1 0x1F NOT PUSH1 0x1F DUP3 ADD AND DUP3 ADD DUP1 PUSH1 0x40 MSTORE POP DUP2 ADD SWAP1 PUSH2 0x1330 SWAP2 SWAP1 PUSH2 0x21E8 JUMP JUMPDEST PUSH1 0x1 PUSH1 0x1 PUSH1 0xA0 SHL SUB AND CALLER PUSH1 0x1 PUSH1 0x1 PUSH1 0xA0 SHL SUB AND EQ JUMPDEST DUP1 PUSH2 0x135A JUMPI POP PUSH1 0x2 SLOAD PUSH1 0x1 PUSH1 0x1 PUSH1 0xA0 SHL SUB AND CALLER EQ JUMPDEST PUSH2 0x1376 JUMPI PUSH1 0x40 MLOAD PUSH3 0x461BCD PUSH1 0xE5 SHL DUP2 MSTORE PUSH1 0x4 ADD PUSH2 0x225 SWAP1 PUSH2 0x233A JUMP JUMPDEST PUSH1 0x3 SLOAD ISZERO DUP1 PUSH2 0x1387 JUMPI POP PUSH1 0x3 SLOAD PUSH1 0x4 EQ JUMPDEST DUP1 ISZERO PUSH2 0x139D JUMPI POP DUP2 PUSH1 0x1 EQ DUP1 PUSH2 0x139D JUMPI POP DUP2 PUSH1 0x2 EQ JUMPDEST ISZERO PUSH2 0x1406 JUMPI PUSH1 0x3 DUP3 SWAP1 SSTORE PUSH1 0x4 SLOAD PUSH1 0x0 JUMPDEST DUP2 DUP2 LT ISZERO PUSH2 0x13FC JUMPI PUSH2 0x13E9 PUSH1 0x4 DUP3 DUP2 SLOAD DUP2 LT PUSH2 0x13D9 JUMPI PUSH4 0x4E487B71 PUSH1 0xE0 SHL PUSH1 0x0 MSTORE PUSH1 0x32 PUSH1 0x4 MSTORE PUSH1 0x24 PUSH1 0x0 REVERT JUMPDEST SWAP1 PUSH1 0x0 MSTORE PUSH1 0x20 PUSH1 0x0 KECCAK256 ADD SLOAD PUSH2 0x150E JUMP JUMPDEST POP DUP1 PUSH2 0x13F4 DUP2 PUSH2 0x23C4 JUMP JUMPDEST SWAP2 POP POP PUSH2 0x13AD JUMP JUMPDEST POP PUSH1 0x1 SWAP4 SWAP3 POP POP POP JUMP JUMPDEST POP PUSH1 0x0 SWAP2 SWAP1 POP JUMP JUMPDEST PUSH1 0x1 SLOAD PUSH1 0x0 SWAP1 PUSH1 0x1 PUSH1 0x1 PUSH1 0xA0 SHL SUB AND CALLER EQ DUP1 PUSH2 0x14CB JUMPI POP PUSH32 0x0 PUSH1 0x1 PUSH1 0x1 PUSH1 0xA0 SHL SUB AND PUSH4 0xCE606EE0 PUSH1 0x40 MLOAD DUP2 PUSH4 0xFFFFFFFF AND PUSH1 0xE0 SHL DUP2 MSTORE PUSH1 0x4 ADD PUSH1 0x20 PUSH1 0x40 MLOAD DUP1 DUP4 SUB DUP2 DUP7 DUP1 EXTCODESIZE ISZERO DUP1 ISZERO PUSH2 0x147E JUMPI PUSH1 0x0 DUP1 REVERT JUMPDEST POP GAS STATICCALL ISZERO DUP1 ISZERO PUSH2 0x1492 JUMPI RETURNDATASIZE PUSH1 0x0 DUP1 RETURNDATACOPY RETURNDATASIZE PUSH1 0x0 REVERT JUMPDEST POP POP POP POP PUSH1 0x40 MLOAD RETURNDATASIZE PUSH1 0x1F NOT PUSH1 0x1F DUP3 ADD AND DUP3 ADD DUP1 PUSH1 0x40 MSTORE POP DUP2 ADD SWAP1 PUSH2 0x14B6 SWAP2 SWAP1 PUSH2 0x21E8 JUMP JUMPDEST PUSH1 0x1 PUSH1 0x1 PUSH1 0xA0 SHL SUB AND CALLER PUSH1 0x1 PUSH1 0x1 PUSH1 0xA0 SHL SUB AND EQ JUMPDEST DUP1 PUSH2 0x14E0 JUMPI POP PUSH1 0x2 SLOAD PUSH1 0x1 PUSH1 0x1 PUSH1 0xA0 SHL SUB AND CALLER EQ JUMPDEST PUSH2 0x14FC JUMPI PUSH1 0x40 MLOAD PUSH3 0x461BCD PUSH1 0xE5 SHL DUP2 MSTORE PUSH1 0x4 ADD PUSH2 0x225 SWAP1 PUSH2 0x233A JUMP JUMPDEST PUSH1 0x3 SLOAD PUSH2 0x95E JUMPI POP PUSH1 0x4 PUSH1 0x3 SSTORE PUSH1 0x1 SWAP1 JUMP JUMPDEST PUSH1 0x0 PUSH1 0x2 PUSH1 0x0 SLOAD EQ ISZERO PUSH2 0x1563 JUMPI PUSH1 0x40 MLOAD PUSH3 0x461BCD PUSH1 0xE5 SHL DUP2 MSTORE PUSH1 0x20 PUSH1 0x4 DUP3 ADD MSTORE PUSH1 0x1F PUSH1 0x24 DUP3 ADD MSTORE PUSH32 0x5265656E7472616E637947756172643A207265656E7472616E742063616C6C00 PUSH1 0x44 DUP3 ADD MSTORE PUSH1 0x64 ADD PUSH2 0x225 JUMP JUMPDEST PUSH1 0x2 PUSH1 0x0 SWAP1 DUP2 SSTORE DUP3 DUP2 MSTORE PUSH1 0xA PUSH1 0x20 MSTORE PUSH1 0x40 SWAP1 KECCAK256 PUSH1 0x4 ADD SLOAD PUSH1 0xFF AND ISZERO PUSH2 0x158A JUMPI POP PUSH1 0x0 PUSH2 0x71D JUMP JUMPDEST PUSH1 0x0 DUP1 PUSH1 0x0 DUP1 PUSH1 0x3 SLOAD PUSH1 0x1 EQ ISZERO PUSH2 0x178D JUMPI PUSH1 0x0 DUP7 DUP2 MSTORE PUSH1 0xA PUSH1 0x20 SWAP1 DUP2 MSTORE PUSH1 0x40 DUP1 DUP4 KECCAK256 SLOAD DUP4 MSTORE PUSH1 0x8 DUP3 MSTORE SWAP2 DUP3 SWAP1 KECCAK256 SLOAD DUP3 MLOAD PUSH4 0x55C4A8BF PUSH1 0xE0 SHL DUP2 MSTORE SWAP3 MLOAD PUSH1 0x1 PUSH1 0x1 PUSH1 0xA0 SHL SUB SWAP2 DUP3 AND SWAP8 POP PUSH1 0x64 SWAP4 PUSH32 0x0 SWAP1 SWAP3 AND SWAP3 PUSH4 0x55C4A8BF SWAP3 PUSH1 0x4 DUP1 DUP3 ADD SWAP4 SWAP2 DUP3 SWAP1 SUB ADD DUP2 DUP7 DUP1 EXTCODESIZE ISZERO DUP1 ISZERO PUSH2 0x161C JUMPI PUSH1 0x0 DUP1 REVERT JUMPDEST POP GAS STATICCALL ISZERO DUP1 ISZERO PUSH2 0x1630 JUMPI RETURNDATASIZE PUSH1 0x0 DUP1 RETURNDATACOPY RETURNDATASIZE PUSH1 0x0 REVERT JUMPDEST POP POP POP POP PUSH1 0x40 MLOAD RETURNDATASIZE PUSH1 0x1F NOT PUSH1 0x1F DUP3 ADD AND DUP3 ADD DUP1 PUSH1 0x40 MSTORE POP DUP2 ADD SWAP1 PUSH2 0x1654 SWAP2 SWAP1 PUSH2 0x229E JUMP JUMPDEST PUSH2 0x165F SWAP1 PUSH1 0x64 PUSH2 0x23AD JUMP JUMPDEST PUSH1 0x0 DUP9 DUP2 MSTORE PUSH1 0xA PUSH1 0x20 MSTORE PUSH1 0x40 SWAP1 KECCAK256 PUSH1 0x3 ADD SLOAD PUSH2 0x167B SWAP2 SWAP1 PUSH2 0x238E JUMP JUMPDEST PUSH2 0x1685 SWAP2 SWAP1 PUSH2 0x236E JUMP JUMPDEST PUSH1 0x0 DUP8 DUP2 MSTORE PUSH1 0xA PUSH1 0x20 MSTORE PUSH1 0x40 SWAP1 KECCAK256 PUSH1 0x2 ADD SLOAD PUSH2 0x16A1 SWAP2 SWAP1 PUSH2 0x2356 JUMP JUMPDEST SWAP2 POP PUSH1 0x64 PUSH32 0x0 PUSH1 0x1 PUSH1 0x1 PUSH1 0xA0 SHL SUB AND PUSH4 0x55C4A8BF PUSH1 0x40 MLOAD DUP2 PUSH4 0xFFFFFFFF AND PUSH1 0xE0 SHL DUP2 MSTORE PUSH1 0x4 ADD PUSH1 0x20 PUSH1 0x40 MLOAD DUP1 DUP4 SUB DUP2 DUP7 DUP1 EXTCODESIZE ISZERO DUP1 ISZERO PUSH2 0x16FE JUMPI PUSH1 0x0 DUP1 REVERT JUMPDEST POP GAS STATICCALL ISZERO DUP1 ISZERO PUSH2 0x1712 JUMPI RETURNDATASIZE PUSH1 0x0 DUP1 RETURNDATACOPY RETURNDATASIZE PUSH1 0x0 REVERT JUMPDEST POP POP POP POP PUSH1 0x40 MLOAD RETURNDATASIZE PUSH1 0x1F NOT PUSH1 0x1F DUP3 ADD AND DUP3 ADD DUP1 PUSH1 0x40 MSTORE POP DUP2 ADD SWAP1 PUSH2 0x1736 SWAP2 SWAP1 PUSH2 0x229E JUMP JUMPDEST PUSH1 0x0 DUP9 DUP2 MSTORE PUSH1 0xA PUSH1 0x20 MSTORE PUSH1 0x40 SWAP1 KECCAK256 PUSH1 0x3 ADD SLOAD PUSH2 0x1752 SWAP2 SWAP1 PUSH2 0x238E JUMP JUMPDEST PUSH2 0x175C SWAP2 SWAP1 PUSH2 0x236E JUMP JUMPDEST PUSH1 0x0 DUP8 DUP2 MSTORE PUSH1 0xA PUSH1 0x20 SWAP1 DUP2 MSTORE PUSH1 0x40 DUP1 DUP4 KECCAK256 SLOAD DUP4 MSTORE PUSH1 0x8 SWAP1 SWAP2 MSTORE SWAP1 KECCAK256 PUSH1 0x1 ADD SLOAD PUSH1 0x1 PUSH1 0x1 PUSH1 0xA0 SHL SUB AND SWAP4 POP SWAP1 POP PUSH2 0x199E JUMP JUMPDEST PUSH1 0x3 SLOAD PUSH1 0x2 EQ ISZERO PUSH2 0x1991 JUMPI PUSH1 0x0 DUP7 DUP2 MSTORE PUSH1 0xA PUSH1 0x20 SWAP1 DUP2 MSTORE PUSH1 0x40 DUP1 DUP4 KECCAK256 PUSH1 0x1 ADD SLOAD DUP4 MSTORE PUSH1 0x8 DUP3 MSTORE SWAP2 DUP3 SWAP1 KECCAK256 SLOAD DUP3 MLOAD PUSH4 0x55C4A8BF PUSH1 0xE0 SHL DUP2 MSTORE SWAP3 MLOAD PUSH1 0x1 PUSH1 0x1 PUSH1 0xA0 SHL SUB SWAP2 DUP3 AND SWAP8 POP PUSH1 0x64 SWAP4 PUSH32 0x0 SWAP1 SWAP3 AND SWAP3 PUSH4 0x55C4A8BF SWAP3 PUSH1 0x4 DUP1 DUP3 ADD SWAP4 SWAP2 DUP3 SWAP1 SUB ADD DUP2 DUP7 DUP1 EXTCODESIZE ISZERO DUP1 ISZERO PUSH2 0x181C JUMPI PUSH1 0x0 DUP1 REVERT JUMPDEST POP GAS STATICCALL ISZERO DUP1 ISZERO PUSH2 0x1830 JUMPI RETURNDATASIZE PUSH1 0x0 DUP1 RETURNDATACOPY RETURNDATASIZE PUSH1 0x0 REVERT JUMPDEST POP POP POP POP PUSH1 0x40 MLOAD RETURNDATASIZE PUSH1 0x1F NOT PUSH1 0x1F DUP3 ADD AND DUP3 ADD DUP1 PUSH1 0x40 MSTORE POP DUP2 ADD SWAP1 PUSH2 0x1854 SWAP2 SWAP1 PUSH2 0x229E JUMP JUMPDEST PUSH2 0x185F SWAP1 PUSH1 0x64 PUSH2 0x23AD JUMP JUMPDEST PUSH1 0x0 DUP9 DUP2 MSTORE PUSH1 0xA PUSH1 0x20 MSTORE PUSH1 0x40 SWAP1 KECCAK256 PUSH1 0x2 ADD SLOAD PUSH2 0x187B SWAP2 SWAP1 PUSH2 0x238E JUMP JUMPDEST PUSH2 0x1885 SWAP2 SWAP1 PUSH2 0x236E JUMP JUMPDEST PUSH1 0x0 DUP8 DUP2 MSTORE PUSH1 0xA PUSH1 0x20 MSTORE PUSH1 0x40 SWAP1 KECCAK256 PUSH1 0x3 ADD SLOAD PUSH2 0x18A1 SWAP2 SWAP1 PUSH2 0x2356 JUMP JUMPDEST SWAP2 POP PUSH1 0x64 PUSH32 0x0 PUSH1 0x1 PUSH1 0x1 PUSH1 0xA0 SHL SUB AND PUSH4 0x55C4A8BF PUSH1 0x40 MLOAD DUP2 PUSH4 0xFFFFFFFF AND PUSH1 0xE0 SHL DUP2 MSTORE PUSH1 0x4 ADD PUSH1 0x20 PUSH1 0x40 MLOAD DUP1 DUP4 SUB DUP2 DUP7 DUP1 EXTCODESIZE ISZERO DUP1 ISZERO PUSH2 0x18FE JUMPI PUSH1 0x0 DUP1 REVERT JUMPDEST POP GAS STATICCALL ISZERO DUP1 ISZERO PUSH2 0x1912 JUMPI RETURNDATASIZE PUSH1 0x0 DUP1 RETURNDATACOPY RETURNDATASIZE PUSH1 0x0 REVERT JUMPDEST POP POP POP POP PUSH1 0x40 MLOAD RETURNDATASIZE PUSH1 0x1F NOT PUSH1 0x1F DUP3 ADD AND DUP3 ADD DUP1 PUSH1 0x40 MSTORE POP DUP2 ADD SWAP1 PUSH2 0x1936 SWAP2 SWAP1 PUSH2 0x229E JUMP JUMPDEST PUSH1 0x0 DUP9 DUP2 MSTORE PUSH1 0xA PUSH1 0x20 MSTORE PUSH1 0x40 SWAP1 KECCAK256 PUSH1 0x2 ADD SLOAD PUSH2 0x1952 SWAP2 SWAP1 PUSH2 0x238E JUMP JUMPDEST PUSH2 0x195C SWAP2 SWAP1 PUSH2 0x236E JUMP JUMPDEST PUSH1 0x0 DUP8 DUP2 MSTORE PUSH1 0xA PUSH1 0x20 SWAP1 DUP2 MSTORE PUSH1 0x40 DUP1 DUP4 KECCAK256 PUSH1 0x1 SWAP1 DUP2 ADD SLOAD DUP5 MSTORE PUSH1 0x8 SWAP1 SWAP3 MSTORE SWAP1 SWAP2 KECCAK256 ADD SLOAD PUSH1 0x1 PUSH1 0x1 PUSH1 0xA0 SHL SUB AND SWAP4 POP SWAP1 POP PUSH2 0x199E JUMP JUMPDEST PUSH1 0x0 SWAP5 POP POP POP POP POP PUSH2 0x71D JUMP JUMPDEST PUSH1 0x1 PUSH1 0x1 PUSH1 0xA0 SHL SUB DUP4 AND PUSH2 0x1A40 JUMPI PUSH32 0x0 PUSH1 0x1 PUSH1 0x1 PUSH1 0xA0 SHL SUB AND PUSH4 0x9953B2F PUSH1 0x40 MLOAD DUP2 PUSH4 0xFFFFFFFF AND PUSH1 0xE0 SHL DUP2 MSTORE PUSH1 0x4 ADD PUSH1 0x20 PUSH1 0x40 MLOAD DUP1 DUP4 SUB DUP2 DUP7 DUP1 EXTCODESIZE ISZERO DUP1 ISZERO PUSH2 0x1A05 JUMPI PUSH1 0x0 DUP1 REVERT JUMPDEST POP GAS STATICCALL ISZERO DUP1 ISZERO PUSH2 0x1A19 JUMPI RETURNDATASIZE PUSH1 0x0 DUP1 RETURNDATACOPY RETURNDATASIZE PUSH1 0x0 REVERT JUMPDEST POP POP POP POP PUSH1 0x40 MLOAD RETURNDATASIZE PUSH1 0x1F NOT PUSH1 0x1F DUP3 ADD AND DUP3 ADD DUP1 PUSH1 0x40 MSTORE POP DUP2 ADD SWAP1 PUSH2 0x1A3D SWAP2 SWAP1 PUSH2 0x21E8 JUMP JUMPDEST SWAP3 POP JUMPDEST PUSH1 0x1 PUSH1 0x1 PUSH1 0xA0 SHL SUB DUP5 AND PUSH1 0x0 SWAP1 DUP2 MSTORE PUSH1 0x7 PUSH1 0x20 MSTORE PUSH1 0x40 DUP2 KECCAK256 DUP1 SLOAD DUP5 SWAP3 SWAP1 PUSH2 0x1A68 SWAP1 DUP5 SWAP1 PUSH2 0x2356 JUMP JUMPDEST SWAP3 POP POP DUP2 SWAP1 SSTORE POP PUSH1 0x64 PUSH32 0x0 PUSH1 0x1 PUSH1 0x1 PUSH1 0xA0 SHL SUB AND PUSH4 0x6A0CCD9D PUSH1 0x40 MLOAD DUP2 PUSH4 0xFFFFFFFF AND PUSH1 0xE0 SHL DUP2 MSTORE PUSH1 0x4 ADD PUSH1 0x20 PUSH1 0x40 MLOAD DUP1 DUP4 SUB DUP2 DUP7 DUP1 EXTCODESIZE ISZERO DUP1 ISZERO PUSH2 0x1ACA JUMPI PUSH1 0x0 DUP1 REVERT JUMPDEST POP GAS STATICCALL ISZERO DUP1 ISZERO PUSH2 0x1ADE JUMPI RETURNDATASIZE PUSH1 0x0 DUP1 RETURNDATACOPY RETURNDATASIZE PUSH1 0x0 REVERT JUMPDEST POP POP POP POP PUSH1 0x40 MLOAD RETURNDATASIZE PUSH1 0x1F NOT PUSH1 0x1F DUP3 ADD AND DUP3 ADD DUP1 PUSH1 0x40 MSTORE POP DUP2 ADD SWAP1 PUSH2 0x1B02 SWAP2 SWAP1 PUSH2 0x229E JUMP JUMPDEST PUSH2 0x1B0C SWAP1 DUP4 PUSH2 0x238E JUMP JUMPDEST PUSH2 0x1B16 SWAP2 SWAP1 PUSH2 0x236E JUMP JUMPDEST PUSH1 0x7 PUSH1 0x0 PUSH32 0x0 PUSH1 0x1 PUSH1 0x1 PUSH1 0xA0 SHL SUB AND PUSH4 0xB7640A54 PUSH1 0x40 MLOAD DUP2 PUSH4 0xFFFFFFFF AND PUSH1 0xE0 SHL DUP2 MSTORE PUSH1 0x4 ADD PUSH1 0x20 PUSH1 0x40 MLOAD DUP1 DUP4 SUB DUP2 DUP7 DUP1 EXTCODESIZE ISZERO DUP1 ISZERO PUSH2 0x1B73 JUMPI PUSH1 0x0 DUP1 REVERT JUMPDEST POP GAS STATICCALL ISZERO DUP1 ISZERO PUSH2 0x1B87 JUMPI RETURNDATASIZE PUSH1 0x0 DUP1 RETURNDATACOPY RETURNDATASIZE PUSH1 0x0 REVERT JUMPDEST POP POP POP POP PUSH1 0x40 MLOAD RETURNDATASIZE PUSH1 0x1F NOT PUSH1 0x1F DUP3 ADD AND DUP3 ADD DUP1 PUSH1 0x40 MSTORE POP DUP2 ADD SWAP1 PUSH2 0x1BAB SWAP2 SWAP1 PUSH2 0x21E8 JUMP JUMPDEST PUSH1 0x1 PUSH1 0x1 PUSH1 0xA0 SHL SUB AND PUSH1 0x1 PUSH1 0x1 PUSH1 0xA0 SHL SUB AND DUP2 MSTORE PUSH1 0x20 ADD SWAP1 DUP2 MSTORE PUSH1 0x20 ADD PUSH1 0x0 KECCAK256 PUSH1 0x0 DUP3 DUP3 SLOAD PUSH2 0x1BDA SWAP2 SWAP1 PUSH2 0x2356 JUMP JUMPDEST SWAP3 POP POP DUP2 SWAP1 SSTORE POP PUSH1 0x64 PUSH32 0x0 PUSH1 0x1 PUSH1 0x1 PUSH1 0xA0 SHL SUB AND PUSH4 0x28576D45 PUSH1 0x40 MLOAD DUP2 PUSH4 0xFFFFFFFF AND PUSH1 0xE0 SHL DUP2 MSTORE PUSH1 0x4 ADD PUSH1 0x20 PUSH1 0x40 MLOAD DUP1 DUP4 SUB DUP2 DUP7 DUP1 EXTCODESIZE ISZERO DUP1 ISZERO PUSH2 0x1C3C JUMPI PUSH1 0x0 DUP1 REVERT JUMPDEST POP GAS STATICCALL ISZERO DUP1 ISZERO PUSH2 0x1C50 JUMPI RETURNDATASIZE PUSH1 0x0 DUP1 RETURNDATACOPY RETURNDATASIZE PUSH1 0x0 REVERT JUMPDEST POP POP POP POP PUSH1 0x40 MLOAD RETURNDATASIZE PUSH1 0x1F NOT PUSH1 0x1F DUP3 ADD AND DUP3 ADD DUP1 PUSH1 0x40 MSTORE POP DUP2 ADD SWAP1 PUSH2 0x1C74 SWAP2 SWAP1 PUSH2 0x229E JUMP JUMPDEST PUSH2 0x1C7E SWAP1 DUP4 PUSH2 0x238E JUMP JUMPDEST PUSH2 0x1C88 SWAP2 SWAP1 PUSH2 0x236E JUMP JUMPDEST PUSH1 0x7 PUSH1 0x0 PUSH32 0x0 PUSH1 0x1 PUSH1 0x1 PUSH1 0xA0 SHL SUB AND PUSH4 0x9953B2F PUSH1 0x40 MLOAD DUP2 PUSH4 0xFFFFFFFF AND PUSH1 0xE0 SHL DUP2 MSTORE PUSH1 0x4 ADD PUSH1 0x20 PUSH1 0x40 MLOAD DUP1 DUP4 SUB DUP2 DUP7 DUP1 EXTCODESIZE ISZERO DUP1 ISZERO PUSH2 0x1CE5 JUMPI PUSH1 0x0 DUP1 REVERT JUMPDEST POP GAS STATICCALL ISZERO DUP1 ISZERO PUSH2 0x1CF9 JUMPI RETURNDATASIZE PUSH1 0x0 DUP1 RETURNDATACOPY RETURNDATASIZE PUSH1 0x0 REVERT JUMPDEST POP POP POP POP PUSH1 0x40 MLOAD RETURNDATASIZE PUSH1 0x1F NOT PUSH1 0x1F DUP3 ADD AND DUP3 ADD DUP1 PUSH1 0x40 MSTORE POP DUP2 ADD SWAP1 PUSH2 0x1D1D SWAP2 SWAP1 PUSH2 0x21E8 JUMP JUMPDEST PUSH1 0x1 PUSH1 0x1 PUSH1 0xA0 SHL SUB AND PUSH1 0x1 PUSH1 0x1 PUSH1 0xA0 SHL SUB AND DUP2 MSTORE PUSH1 0x20 ADD SWAP1 DUP2 MSTORE PUSH1 0x20 ADD PUSH1 0x0 KECCAK256 PUSH1 0x0 DUP3 DUP3 SLOAD PUSH2 0x1D4C SWAP2 SWAP1 PUSH2 0x2356 JUMP JUMPDEST SWAP3 POP POP DUP2 SWAP1 SSTORE POP PUSH1 0x64 PUSH32 0x0 PUSH1 0x1 PUSH1 0x1 PUSH1 0xA0 SHL SUB AND PUSH4 0x54CD1A5C PUSH1 0x40 MLOAD DUP2 PUSH4 0xFFFFFFFF AND PUSH1 0xE0 SHL DUP2 MSTORE PUSH1 0x4 ADD PUSH1 0x20 PUSH1 0x40 MLOAD DUP1 DUP4 SUB DUP2 DUP7 DUP1 EXTCODESIZE ISZERO DUP1 ISZERO PUSH2 0x1DAE JUMPI PUSH1 0x0 DUP1 REVERT JUMPDEST POP GAS STATICCALL ISZERO DUP1 ISZERO PUSH2 0x1DC2 JUMPI RETURNDATASIZE PUSH1 0x0 DUP1 RETURNDATACOPY RETURNDATASIZE PUSH1 0x0 REVERT JUMPDEST POP POP POP POP PUSH1 0x40 MLOAD RETURNDATASIZE PUSH1 0x1F NOT PUSH1 0x1F DUP3 ADD AND DUP3 ADD DUP1 PUSH1 0x40 MSTORE POP DUP2 ADD SWAP1 PUSH2 0x1DE6 SWAP2 SWAP1 PUSH2 0x229E JUMP JUMPDEST PUSH2 0x1DF0 SWAP1 DUP4 PUSH2 0x238E JUMP JUMPDEST PUSH2 0x1DFA SWAP2 SWAP1 PUSH2 0x236E JUMP JUMPDEST PUSH1 0x1 PUSH1 0x1 PUSH1 0xA0 SHL SUB DUP5 AND PUSH1 0x0 SWAP1 DUP2 MSTORE PUSH1 0x7 PUSH1 0x20 MSTORE PUSH1 0x40 DUP2 KECCAK256 DUP1 SLOAD SWAP1 SWAP2 SWAP1 PUSH2 0x1E22 SWAP1 DUP5 SWAP1 PUSH2 0x2356 JUMP JUMPDEST SWAP1 SWAP2 SSTORE POP POP POP PUSH1 0x0 SWAP5 DUP6 MSTORE POP POP PUSH1 0xA PUSH1 0x20 MSTORE POP POP PUSH1 0x40 DUP2 KECCAK256 PUSH1 0x4 ADD DUP1 SLOAD PUSH1 0xFF NOT AND PUSH1 0x1 SWAP1 DUP2 OR SWAP1 SWAP2 SSTORE SWAP1 DUP2 SWAP1 SSTORE SWAP1 JUMP JUMPDEST PUSH1 0x0 DUP2 DUP2 MSTORE PUSH1 0xA PUSH1 0x20 SWAP1 DUP2 MSTORE PUSH1 0x40 DUP1 DUP4 KECCAK256 DUP1 SLOAD DUP5 MSTORE PUSH1 0x8 DUP4 MSTORE DUP2 DUP5 KECCAK256 SLOAD PUSH1 0x1 DUP3 ADD SLOAD DUP6 MSTORE DUP3 DUP6 KECCAK256 SLOAD PUSH1 0x2 SWAP1 SWAP3 ADD SLOAD PUSH1 0x1 PUSH1 0x1 PUSH1 0xA0 SHL SUB SWAP2 DUP3 AND DUP1 DUP8 MSTORE PUSH1 0x7 SWAP1 SWAP6 MSTORE SWAP3 DUP6 KECCAK256 DUP1 SLOAD SWAP5 SWAP6 SWAP2 SWAP1 SWAP3 AND SWAP4 PUSH2 0x1EAA SWAP1 DUP5 SWAP1 PUSH2 0x2356 JUMP JUMPDEST SWAP1 SWAP2 SSTORE POP POP PUSH1 0x0 DUP4 DUP2 MSTORE PUSH1 0xA PUSH1 0x20 SWAP1 DUP2 MSTORE PUSH1 0x40 DUP1 DUP4 KECCAK256 PUSH1 0x3 ADD SLOAD PUSH1 0x1 PUSH1 0x1 PUSH1 0xA0 SHL SUB DUP6 AND DUP5 MSTORE PUSH1 0x7 SWAP1 SWAP3 MSTORE DUP3 KECCAK256 DUP1 SLOAD SWAP2 SWAP3 SWAP1 SWAP2 PUSH2 0x1EE8 SWAP1 DUP5 SWAP1 PUSH2 0x2356 JUMP JUMPDEST SWAP1 SWAP2 SSTORE POP POP POP PUSH1 0x0 SWAP2 DUP3 MSTORE POP PUSH1 0xA PUSH1 0x20 MSTORE PUSH1 0x40 SWAP1 KECCAK256 PUSH1 0x4 ADD DUP1 SLOAD PUSH1 0xFF NOT AND PUSH1 0x1 OR SWAP1 SSTORE JUMP JUMPDEST PUSH1 0x0 DUP1 PUSH1 0x0 JUMPDEST PUSH1 0x5 SLOAD DUP10 SWAP1 ADDRESS SWAP1 DUP4 SWAP1 PUSH2 0x1F27 SWAP1 PUSH1 0x1 PUSH2 0x2356 JUMP JUMPDEST PUSH2 0x1F31 SWAP2 SWAP1 PUSH2 0x2356 JUMP JUMPDEST PUSH1 0x40 MLOAD PUSH12 0xFFFFFFFFFFFFFFFFFFFFFFFF NOT PUSH1 0x60 SWAP5 DUP6 SHL DUP2 AND PUSH1 0x20 DUP4 ADD MSTORE SWAP3 SWAP1 SWAP4 SHL SWAP1 SWAP2 AND PUSH1 0x34 DUP4 ADD MSTORE PUSH1 0x48 DUP3 ADD MSTORE TIMESTAMP PUSH1 0x68 DUP3 ADD MSTORE DIFFICULTY PUSH1 0x88 DUP3 ADD MSTORE PUSH1 0xA8 ADD PUSH1 0x40 DUP1 MLOAD PUSH1 0x1F NOT DUP2 DUP5 SUB ADD DUP2 MSTORE SWAP2 DUP2 MSTORE DUP2 MLOAD PUSH1 0x20 SWAP3 DUP4 ADD KECCAK256 PUSH1 0x0 DUP2 DUP2 MSTORE PUSH1 0x8 SWAP1 SWAP4 MSTORE SWAP2 KECCAK256 PUSH1 0x2 ADD SLOAD SWAP1 SWAP3 POP PUSH2 0x1FA2 JUMPI PUSH2 0x1FB4 JUMP JUMPDEST DUP1 PUSH2 0x1FAC DUP2 PUSH2 0x23C4 JUMP JUMPDEST SWAP2 POP POP PUSH2 0x1F13 JUMP JUMPDEST POP PUSH1 0x40 DUP1 MLOAD PUSH1 0xC0 DUP2 ADD DUP3 MSTORE PUSH1 0x1 PUSH1 0x1 PUSH1 0xA0 SHL SUB SWAP10 DUP11 AND DUP1 DUP3 MSTORE SWAP9 DUP11 AND PUSH1 0x20 DUP1 DUP4 ADD SWAP2 DUP3 MSTORE DUP3 DUP5 ADD SWAP10 DUP11 MSTORE PUSH1 0x60 DUP4 ADD SWAP9 DUP10 MSTORE PUSH1 0x80 DUP4 ADD SWAP8 DUP9 MSTORE PUSH1 0xA0 DUP4 ADD SWAP7 DUP8 MSTORE PUSH1 0x0 DUP6 DUP2 MSTORE PUSH1 0x8 DUP3 MSTORE DUP5 DUP2 KECCAK256 SWAP4 MLOAD DUP5 SLOAD SWAP1 DUP15 AND PUSH1 0x1 PUSH1 0x1 PUSH1 0xA0 SHL SUB NOT SWAP2 DUP3 AND OR DUP6 SSTORE SWAP3 MLOAD PUSH1 0x1 DUP1 DUP7 ADD DUP1 SLOAD SWAP3 SWAP1 SWAP16 AND SWAP2 SWAP1 SWAP5 AND OR SWAP1 SWAP13 SSTORE SWAP9 MLOAD PUSH1 0x2 DUP4 ADD SSTORE SWAP7 MLOAD PUSH1 0x3 DUP3 ADD SSTORE SWAP5 MLOAD PUSH1 0x4 DUP7 ADD SSTORE SWAP3 MLOAD PUSH1 0x5 SWAP5 DUP6 ADD SSTORE DUP4 SLOAD DUP1 DUP7 ADD SWAP1 SWAP5 SSTORE PUSH32 0x36B6384B5ECA791C62761152D0C79BB0604C104A5FB6F4EB0703F3154BB3DB0 SWAP1 SWAP4 ADD DUP4 SWAP1 SSTORE POP SWAP4 DUP6 MSTORE PUSH1 0x9 DUP4 MSTORE SWAP3 DUP5 KECCAK256 DUP1 SLOAD SWAP2 DUP3 ADD DUP2 SSTORE DUP5 MSTORE SWAP3 KECCAK256 SWAP1 SWAP2 ADD DUP2 SWAP1 SSTORE SWAP1 JUMP JUMPDEST PUSH1 0x0 DUP1 PUSH1 0x0 JUMPDEST PUSH1 0x4 SLOAD DUP8 SWAP1 DUP8 SWAP1 DUP4 SWAP1 PUSH2 0x20AF SWAP1 PUSH1 0x1 PUSH2 0x2356 JUMP JUMPDEST PUSH2 0x20B9 SWAP2 SWAP1 PUSH2 0x2356 JUMP JUMPDEST PUSH1 0x40 DUP1 MLOAD PUSH1 0x20 DUP2 ADD SWAP5 SWAP1 SWAP5 MSTORE DUP4 ADD SWAP2 SWAP1 SWAP2 MSTORE PUSH1 0x60 DUP3 ADD MSTORE TIMESTAMP PUSH1 0x80 DUP3 ADD MSTORE DIFFICULTY PUSH1 0xA0 DUP3 ADD MSTORE PUSH1 0xC0 ADD PUSH1 0x40 DUP1 MLOAD PUSH1 0x1F NOT DUP2 DUP5 SUB ADD DUP2 MSTORE SWAP2 DUP2 MSTORE DUP2 MLOAD PUSH1 0x20 SWAP3 DUP4 ADD KECCAK256 PUSH1 0x0 DUP2 DUP2 MSTORE PUSH1 0xA SWAP1 SWAP4 MSTORE SWAP2 KECCAK256 PUSH1 0x2 ADD SLOAD SWAP1 SWAP3 POP PUSH2 0x2113 JUMPI PUSH2 0x2125 JUMP JUMPDEST DUP1 PUSH2 0x211D DUP2 PUSH2 0x23C4 JUMP JUMPDEST SWAP2 POP POP PUSH2 0x209B JUMP JUMPDEST POP PUSH1 0x40 DUP1 MLOAD PUSH1 0xA0 DUP2 ADD DUP3 MSTORE SWAP7 DUP8 MSTORE PUSH1 0x20 DUP1 DUP9 ADD SWAP7 DUP8 MSTORE DUP8 DUP3 ADD SWAP6 DUP7 MSTORE PUSH1 0x60 DUP9 ADD SWAP5 DUP6 MSTORE PUSH1 0x0 PUSH1 0x80 DUP10 ADD DUP2 DUP2 MSTORE DUP5 DUP3 MSTORE PUSH1 0xA SWAP1 SWAP3 MSTORE SWAP2 DUP3 KECCAK256 SWAP8 MLOAD DUP9 SSTORE SWAP6 MLOAD PUSH1 0x1 DUP1 DUP10 ADD SWAP2 SWAP1 SWAP2 SSTORE SWAP5 MLOAD PUSH1 0x2 DUP9 ADD SSTORE SWAP3 MLOAD PUSH1 0x3 DUP8 ADD SSTORE SWAP4 MLOAD PUSH1 0x4 SWAP6 DUP7 ADD DUP1 SLOAD PUSH1 0xFF NOT AND SWAP2 ISZERO ISZERO SWAP2 SWAP1 SWAP2 OR SWAP1 SSTORE POP DUP4 SLOAD SWAP2 DUP3 ADD DUP5 SSTORE SWAP3 SWAP1 SWAP3 MSTORE PUSH32 0x8A35ACFBC15FF81A39AE7D344FD709F28E8600B4AA8C65C6B64BFE7FE36BD19B SWAP1 SWAP2 ADD DUP2 SWAP1 SSTORE SWAP1 JUMP JUMPDEST PUSH1 0x0 PUSH1 0x20 DUP3 DUP5 SUB SLT ISZERO PUSH2 0x21D6 JUMPI DUP1 DUP2 REVERT JUMPDEST DUP2 CALLDATALOAD PUSH2 0x21E1 DUP2 PUSH2 0x23F5 JUMP JUMPDEST SWAP4 SWAP3 POP POP POP JUMP JUMPDEST PUSH1 0x0 PUSH1 0x20 DUP3 DUP5 SUB SLT ISZERO PUSH2 0x21F9 JUMPI DUP1 DUP2 REVERT JUMPDEST DUP2 MLOAD PUSH2 0x21E1 DUP2 PUSH2 0x23F5 JUMP JUMPDEST PUSH1 0x0 DUP1 PUSH1 0x0 DUP1 PUSH1 0x0 DUP1 PUSH1 0xC0 DUP8 DUP10 SUB SLT ISZERO PUSH2 0x221C JUMPI DUP2 DUP3 REVERT JUMPDEST DUP7 CALLDATALOAD PUSH2 0x2227 DUP2 PUSH2 0x23F5 JUMP JUMPDEST SWAP6 POP PUSH1 0x20 DUP8 ADD CALLDATALOAD PUSH2 0x2237 DUP2 PUSH2 0x23F5 JUMP JUMPDEST SWAP5 POP PUSH1 0x40 DUP8 ADD CALLDATALOAD SWAP4 POP PUSH1 0x60 DUP8 ADD CALLDATALOAD SWAP3 POP PUSH1 0x80 DUP8 ADD CALLDATALOAD SWAP2 POP PUSH1 0xA0 DUP8 ADD CALLDATALOAD PUSH2 0x225C DUP2 PUSH2 0x240D JUMP JUMPDEST DUP1 SWAP2 POP POP SWAP3 SWAP6 POP SWAP3 SWAP6 POP SWAP3 SWAP6 JUMP JUMPDEST PUSH1 0x0 PUSH1 0x20 DUP3 DUP5 SUB SLT ISZERO PUSH2 0x227B JUMPI DUP1 DUP2 REVERT JUMPDEST DUP2 MLOAD PUSH2 0x21E1 DUP2 PUSH2 0x240D JUMP JUMPDEST PUSH1 0x0 PUSH1 0x20 DUP3 DUP5 SUB SLT ISZERO PUSH2 0x2297 JUMPI DUP1 DUP2 REVERT JUMPDEST POP CALLDATALOAD SWAP2 SWAP1 POP JUMP JUMPDEST PUSH1 0x0 PUSH1 0x20 DUP3 DUP5 SUB SLT ISZERO PUSH2 0x22AF JUMPI DUP1 DUP2 REVERT JUMPDEST POP MLOAD SWAP2 SWAP1 POP JUMP JUMPDEST PUSH1 0x20 DUP1 DUP3 MSTORE DUP3 MLOAD DUP3 DUP3 ADD DUP2 SWAP1 MSTORE PUSH1 0x0 SWAP2 SWAP1 PUSH1 0x40 SWAP1 DUP2 DUP6 ADD SWAP1 DUP7 DUP5 ADD DUP6 JUMPDEST DUP3 DUP2 LT ISZERO PUSH2 0x232D JUMPI DUP2 MLOAD DUP1 MLOAD PUSH1 0x1 PUSH1 0x1 PUSH1 0xA0 SHL SUB SWAP1 DUP2 AND DUP7 MSTORE DUP8 DUP3 ADD MLOAD AND DUP8 DUP7 ADD MSTORE DUP6 DUP2 ADD MLOAD DUP7 DUP7 ADD MSTORE PUSH1 0x60 DUP1 DUP3 ADD MLOAD SWAP1 DUP7 ADD MSTORE PUSH1 0x80 DUP1 DUP3 ADD MLOAD SWAP1 DUP7 ADD MSTORE PUSH1 0xA0 SWAP1 DUP2 ADD MLOAD SWAP1 DUP6 ADD MSTORE PUSH1 0xC0 SWAP1 SWAP4 ADD SWAP3 SWAP1 DUP6 ADD SWAP1 PUSH1 0x1 ADD PUSH2 0x22D3 JUMP JUMPDEST POP SWAP2 SWAP8 SWAP7 POP POP POP POP POP POP POP JUMP JUMPDEST PUSH1 0x20 DUP1 DUP3 MSTORE PUSH1 0x2 SWAP1 DUP3 ADD MSTORE PUSH2 0x4D31 PUSH1 0xF0 SHL PUSH1 0x40 DUP3 ADD MSTORE PUSH1 0x60 ADD SWAP1 JUMP JUMPDEST PUSH1 0x0 DUP3 NOT DUP3 GT ISZERO PUSH2 0x2369 JUMPI PUSH2 0x2369 PUSH2 0x23DF JUMP JUMPDEST POP ADD SWAP1 JUMP JUMPDEST PUSH1 0x0 DUP3 PUSH2 0x2389 JUMPI PUSH4 0x4E487B71 PUSH1 0xE0 SHL DUP2 MSTORE PUSH1 0x12 PUSH1 0x4 MSTORE PUSH1 0x24 DUP2 REVERT JUMPDEST POP DIV SWAP1 JUMP JUMPDEST PUSH1 0x0 DUP2 PUSH1 0x0 NOT DIV DUP4 GT DUP3 ISZERO ISZERO AND ISZERO PUSH2 0x23A8 JUMPI PUSH2 0x23A8 PUSH2 0x23DF JUMP JUMPDEST POP MUL SWAP1 JUMP JUMPDEST PUSH1 0x0 DUP3 DUP3 LT ISZERO PUSH2 0x23BF JUMPI PUSH2 0x23BF PUSH2 0x23DF JUMP JUMPDEST POP SUB SWAP1 JUMP JUMPDEST PUSH1 0x0 PUSH1 0x0 NOT DUP3 EQ ISZERO PUSH2 0x23D8 JUMPI PUSH2 0x23D8 PUSH2 0x23DF JUMP JUMPDEST POP PUSH1 0x1 ADD SWAP1 JUMP JUMPDEST PUSH4 0x4E487B71 PUSH1 0xE0 SHL PUSH1 0x0 MSTORE PUSH1 0x11 PUSH1 0x4 MSTORE PUSH1 0x24 PUSH1 0x0 REVERT JUMPDEST PUSH1 0x1 PUSH1 0x1 PUSH1 0xA0 SHL SUB DUP2 AND DUP2 EQ PUSH2 0x240A JUMPI PUSH1 0x0 DUP1 REVERT JUMPDEST POP JUMP JUMPDEST DUP1 ISZERO ISZERO DUP2 EQ PUSH2 0x240A JUMPI PUSH1 0x0 DUP1 REVERT INVALID LOG2 PUSH5 0x6970667358 0x22 SLT KECCAK256 0x4B 0x4A 0xF9 SLOAD 0xB7 JUMPDEST MSIZE 0xB8 RETURNDATACOPY SELFBALANCE 0x2A 0x5E LOG4 0x2F CHAINID 0xC1 0xB4 0xE0 EXTCODEHASH 0xBA 0xDF 0xBA JUMPI REVERT PUSH3 0x4BEFF9 0xEE 0xF8 DIFFICULTY 0x27 PUSH5 0x736F6C6343 STOP ADDMOD DIV STOP CALLER "
				},
				"gasEstimates": {
					"creation": {
						"codeDepositCost": "1859400",
						"executionCost": "infinite",
						"totalCost": "infinite"
					},
					"external": {
						"addBet(address,address,uint256,uint256,uint256,bool)": "infinite",
						"cancelBet(bytes32)": "infinite",
						"cancelMarket()": "infinite",
						"cashOut()": "164",
						"getBalance(address)": "1330",
						"getUserBets(address)": "infinite",
						"settle(uint256)": "infinite",
						"settleBet(bytes32)": "infinite",
						"start()": "infinite",
						"status()": "985",
						"withdraw(address)": "infinite"
					},
					"internal": {
						"_cancelPair(bytes32)": "infinite",
						"_cashOutPair(bytes32,address)": "infinite",
						"_createBet(address,address,uint256,uint256,uint256,uint256)": "infinite",
						"_createPair(bytes32,bytes32,uint256,uint256)": "infinite",
						"_settlePair(bytes32)": "infinite"
					}
				},
				"methodIdentifiers": {
					"addBet(address,address,uint256,uint256,uint256,bool)": "78d65b2f",
					"cancelBet(bytes32)": "2940ff1e",
					"cancelMarket()": "6bfefd6b",
					"cashOut()": "793cd71e",
					"getBalance(address)": "f8b2cb4f",
					"getUserBets(address)": "2d56657d",
					"settle(uint256)": "8df82800",
					"settleBet(bytes32)": "675f6537",
					"start()": "be9a6555",
					"status()": "200d2ed2",
					"withdraw(address)": "51cff8d9"
				}
			},
			"storageLayout": {
				"storage": [
					{
						"astId": 10,
						"contract": "contracts/Market.sol:Market",
						"label": "_status",
						"offset": 0,
						"slot": "0",
						"type": "t_uint256"
					},
					{
						"astId": 128,
						"contract": "contracts/Market.sol:Market",
						"label": "owner",
						"offset": 0,
						"slot": "1",
						"type": "t_address"
					},
					{
						"astId": 130,
						"contract": "contracts/Market.sol:Market",
						"label": "factory",
						"offset": 0,
						"slot": "2",
						"type": "t_address"
					},
					{
						"astId": 134,
						"contract": "contracts/Market.sol:Market",
						"label": "status",
						"offset": 0,
						"slot": "3",
						"type": "t_uint256"
					},
					{
						"astId": 137,
						"contract": "contracts/Market.sol:Market",
						"label": "pairs",
						"offset": 0,
						"slot": "4",
						"type": "t_array(t_bytes32)dyn_storage"
					},
					{
						"astId": 140,
						"contract": "contracts/Market.sol:Market",
						"label": "bets",
						"offset": 0,
						"slot": "5",
						"type": "t_array(t_bytes32)dyn_storage"
					},
					{
						"astId": 143,
						"contract": "contracts/Market.sol:Market",
						"label": "pendingBets",
						"offset": 0,
						"slot": "6",
						"type": "t_array(t_bytes32)dyn_storage"
					},
					{
						"astId": 158,
						"contract": "contracts/Market.sol:Market",
						"label": "bal",
						"offset": 0,
						"slot": "7",
						"type": "t_mapping(t_address,t_uint256)"
					},
					{
						"astId": 163,
						"contract": "contracts/Market.sol:Market",
						"label": "betsInfo",
						"offset": 0,
						"slot": "8",
						"type": "t_mapping(t_bytes32,t_struct(MarketBet)1620_storage)"
					},
					{
						"astId": 168,
						"contract": "contracts/Market.sol:Market",
						"label": "userBets",
						"offset": 0,
						"slot": "9",
						"type": "t_mapping(t_address,t_array(t_bytes32)dyn_storage)"
					},
					{
						"astId": 173,
						"contract": "contracts/Market.sol:Market",
						"label": "pairsInfo",
						"offset": 0,
						"slot": "10",
						"type": "t_mapping(t_bytes32,t_struct(MarketPair)154_storage)"
					},
					{
						"astId": 178,
						"contract": "contracts/Market.sol:Market",
						"label": "betPairs",
						"offset": 0,
						"slot": "11",
						"type": "t_mapping(t_bytes32,t_array(t_bytes32)dyn_storage)"
					}
				],
				"types": {
					"t_address": {
						"encoding": "inplace",
						"label": "address",
						"numberOfBytes": "20"
					},
					"t_array(t_bytes32)dyn_storage": {
						"base": "t_bytes32",
						"encoding": "dynamic_array",
						"label": "bytes32[]",
						"numberOfBytes": "32"
					},
					"t_bool": {
						"encoding": "inplace",
						"label": "bool",
						"numberOfBytes": "1"
					},
					"t_bytes32": {
						"encoding": "inplace",
						"label": "bytes32",
						"numberOfBytes": "32"
					},
					"t_mapping(t_address,t_array(t_bytes32)dyn_storage)": {
						"encoding": "mapping",
						"key": "t_address",
						"label": "mapping(address => bytes32[])",
						"numberOfBytes": "32",
						"value": "t_array(t_bytes32)dyn_storage"
					},
					"t_mapping(t_address,t_uint256)": {
						"encoding": "mapping",
						"key": "t_address",
						"label": "mapping(address => uint256)",
						"numberOfBytes": "32",
						"value": "t_uint256"
					},
					"t_mapping(t_bytes32,t_array(t_bytes32)dyn_storage)": {
						"encoding": "mapping",
						"key": "t_bytes32",
						"label": "mapping(bytes32 => bytes32[])",
						"numberOfBytes": "32",
						"value": "t_array(t_bytes32)dyn_storage"
					},
					"t_mapping(t_bytes32,t_struct(MarketBet)1620_storage)": {
						"encoding": "mapping",
						"key": "t_bytes32",
						"label": "mapping(bytes32 => struct IMarket.MarketBet)",
						"numberOfBytes": "32",
						"value": "t_struct(MarketBet)1620_storage"
					},
					"t_mapping(t_bytes32,t_struct(MarketPair)154_storage)": {
						"encoding": "mapping",
						"key": "t_bytes32",
						"label": "mapping(bytes32 => struct Market.MarketPair)",
						"numberOfBytes": "32",
						"value": "t_struct(MarketPair)154_storage"
					},
					"t_struct(MarketBet)1620_storage": {
						"encoding": "inplace",
						"label": "struct IMarket.MarketBet",
						"members": [
							{
								"astId": 1609,
								"contract": "contracts/Market.sol:Market",
								"label": "better",
								"offset": 0,
								"slot": "0",
								"type": "t_address"
							},
							{
								"astId": 1611,
								"contract": "contracts/Market.sol:Market",
								"label": "affiliate",
								"offset": 0,
								"slot": "1",
								"type": "t_address"
							},
							{
								"astId": 1613,
								"contract": "contracts/Market.sol:Market",
								"label": "stake",
								"offset": 0,
								"slot": "2",
								"type": "t_uint256"
							},
							{
								"astId": 1615,
								"contract": "contracts/Market.sol:Market",
								"label": "matched",
								"offset": 0,
								"slot": "3",
								"type": "t_uint256"
							},
							{
								"astId": 1617,
								"contract": "contracts/Market.sol:Market",
								"label": "odds",
								"offset": 0,
								"slot": "4",
								"type": "t_uint256"
							},
							{
								"astId": 1619,
								"contract": "contracts/Market.sol:Market",
								"label": "side",
								"offset": 0,
								"slot": "5",
								"type": "t_uint256"
							}
						],
						"numberOfBytes": "192"
					},
					"t_struct(MarketPair)154_storage": {
						"encoding": "inplace",
						"label": "struct Market.MarketPair",
						"members": [
							{
								"astId": 145,
								"contract": "contracts/Market.sol:Market",
								"label": "betHashA",
								"offset": 0,
								"slot": "0",
								"type": "t_bytes32"
							},
							{
								"astId": 147,
								"contract": "contracts/Market.sol:Market",
								"label": "betHashB",
								"offset": 0,
								"slot": "1",
								"type": "t_bytes32"
							},
							{
								"astId": 149,
								"contract": "contracts/Market.sol:Market",
								"label": "amountA",
								"offset": 0,
								"slot": "2",
								"type": "t_uint256"
							},
							{
								"astId": 151,
								"contract": "contracts/Market.sol:Market",
								"label": "amountB",
								"offset": 0,
								"slot": "3",
								"type": "t_uint256"
							},
							{
								"astId": 153,
								"contract": "contracts/Market.sol:Market",
								"label": "settled",
								"offset": 0,
								"slot": "4",
								"type": "t_bool"
							}
						],
						"numberOfBytes": "160"
					},
					"t_uint256": {
						"encoding": "inplace",
						"label": "uint256",
						"numberOfBytes": "32"
					}
				}
			},
			"userdoc": {
				"kind": "user",
				"methods": {},
				"version": 1
			}
		}
	}
}