{
	"contracts/Market.sol": {
		"Market": {
			"abi": [
				{
					"inputs": [
						{
							"internalType": "string",
							"name": "name_",
							"type": "string"
						},
						{
							"internalType": "address",
							"name": "eventAddress_",
							"type": "address"
						},
						{
							"internalType": "string",
							"name": "sideAName_",
							"type": "string"
						},
						{
							"internalType": "string",
							"name": "sideBName_",
							"type": "string"
						}
					],
					"stateMutability": "nonpayable",
					"type": "constructor"
				},
				{
					"inputs": [
						{
							"internalType": "address",
							"name": "_better",
							"type": "address"
						},
						{
							"internalType": "address",
							"name": "_betAddress",
							"type": "address"
						},
						{
							"internalType": "uint256",
							"name": "_stake",
							"type": "uint256"
						},
						{
							"internalType": "uint8",
							"name": "_odds",
							"type": "uint8"
						},
						{
							"internalType": "string",
							"name": "_side",
							"type": "string"
						}
					],
					"name": "addBet",
					"outputs": [
						{
							"internalType": "bool",
							"name": "",
							"type": "bool"
						}
					],
					"stateMutability": "nonpayable",
					"type": "function"
				},
				{
					"inputs": [],
					"name": "cancelMarket",
					"outputs": [
						{
							"internalType": "bool",
							"name": "",
							"type": "bool"
						}
					],
					"stateMutability": "nonpayable",
					"type": "function"
				},
				{
					"inputs": [],
					"name": "eventAddress",
					"outputs": [
						{
							"internalType": "address",
							"name": "",
							"type": "address"
						}
					],
					"stateMutability": "view",
					"type": "function"
				},
				{
					"inputs": [],
					"name": "hasSetWinningSide",
					"outputs": [
						{
							"internalType": "bool",
							"name": "",
							"type": "bool"
						}
					],
					"stateMutability": "view",
					"type": "function"
				},
				{
					"inputs": [],
					"name": "isCanceled",
					"outputs": [
						{
							"internalType": "bool",
							"name": "",
							"type": "bool"
						}
					],
					"stateMutability": "view",
					"type": "function"
				},
				{
					"inputs": [],
					"name": "name",
					"outputs": [
						{
							"internalType": "string",
							"name": "",
							"type": "string"
						}
					],
					"stateMutability": "view",
					"type": "function"
				},
				{
					"inputs": [
						{
							"internalType": "string",
							"name": "_winningSide",
							"type": "string"
						}
					],
					"name": "setWinningSide",
					"outputs": [
						{
							"internalType": "bool",
							"name": "",
							"type": "bool"
						}
					],
					"stateMutability": "nonpayable",
					"type": "function"
				},
				{
					"inputs": [
						{
							"internalType": "address",
							"name": "_pair",
							"type": "address"
						}
					],
					"name": "settlePair",
					"outputs": [
						{
							"internalType": "bool",
							"name": "",
							"type": "bool"
						}
					],
					"stateMutability": "nonpayable",
					"type": "function"
				},
				{
					"inputs": [
						{
							"internalType": "uint256",
							"name": "",
							"type": "uint256"
						}
					],
					"name": "sideABets",
					"outputs": [
						{
							"internalType": "address",
							"name": "betAddress",
							"type": "address"
						},
						{
							"internalType": "uint256",
							"name": "stake",
							"type": "uint256"
						},
						{
							"internalType": "uint8",
							"name": "odds",
							"type": "uint8"
						}
					],
					"stateMutability": "view",
					"type": "function"
				},
				{
					"inputs": [],
					"name": "sideAName",
					"outputs": [
						{
							"internalType": "string",
							"name": "",
							"type": "string"
						}
					],
					"stateMutability": "view",
					"type": "function"
				},
				{
					"inputs": [],
					"name": "sideATotalStake",
					"outputs": [
						{
							"internalType": "uint256",
							"name": "",
							"type": "uint256"
						}
					],
					"stateMutability": "view",
					"type": "function"
				},
				{
					"inputs": [
						{
							"internalType": "address",
							"name": "",
							"type": "address"
						}
					],
					"name": "sideAUsersStakes",
					"outputs": [
						{
							"internalType": "uint256",
							"name": "",
							"type": "uint256"
						}
					],
					"stateMutability": "view",
					"type": "function"
				},
				{
					"inputs": [
						{
							"internalType": "uint256",
							"name": "",
							"type": "uint256"
						}
					],
					"name": "sideBBets",
					"outputs": [
						{
							"internalType": "address",
							"name": "betAddress",
							"type": "address"
						},
						{
							"internalType": "uint256",
							"name": "stake",
							"type": "uint256"
						},
						{
							"internalType": "uint8",
							"name": "odds",
							"type": "uint8"
						}
					],
					"stateMutability": "view",
					"type": "function"
				},
				{
					"inputs": [],
					"name": "sideBName",
					"outputs": [
						{
							"internalType": "string",
							"name": "",
							"type": "string"
						}
					],
					"stateMutability": "view",
					"type": "function"
				},
				{
					"inputs": [],
					"name": "sideBTotalStake",
					"outputs": [
						{
							"internalType": "uint256",
							"name": "",
							"type": "uint256"
						}
					],
					"stateMutability": "view",
					"type": "function"
				},
				{
					"inputs": [
						{
							"internalType": "address",
							"name": "",
							"type": "address"
						}
					],
					"name": "sideBUsersStakes",
					"outputs": [
						{
							"internalType": "uint256",
							"name": "",
							"type": "uint256"
						}
					],
					"stateMutability": "view",
					"type": "function"
				},
				{
					"inputs": [
						{
							"internalType": "string",
							"name": "name_",
							"type": "string"
						},
						{
							"internalType": "string",
							"name": "sideAName_",
							"type": "string"
						},
						{
							"internalType": "string",
							"name": "sideBName_",
							"type": "string"
						}
					],
					"name": "upadteMarket",
					"outputs": [
						{
							"internalType": "bool",
							"name": "",
							"type": "bool"
						}
					],
					"stateMutability": "nonpayable",
					"type": "function"
				},
				{
					"inputs": [],
					"name": "winningSide",
					"outputs": [
						{
							"internalType": "string",
							"name": "",
							"type": "string"
						}
					],
					"stateMutability": "view",
					"type": "function"
				},
				{
					"inputs": [
						{
							"internalType": "address",
							"name": "_bet",
							"type": "address"
						}
					],
					"name": "withdrawPending",
					"outputs": [
						{
							"internalType": "bool",
							"name": "",
							"type": "bool"
						}
					],
					"stateMutability": "nonpayable",
					"type": "function"
				}
			],
			"devdoc": {
				"kind": "dev",
				"methods": {},
				"version": 1
			},
			"evm": {
				"assembly": "    /* \"contracts/Market.sol\":309:9907  contract Market is IMarket {... */\n  0x80\n  0x40\n  dup2\n  swap1\n  mstore\n    /* \"contracts/Market.sol\":572:611  bool public override isCanceled = false */\n  0x04\n  dup1\n  sload\n  not(0xff)\n  and\n  dup2\n  sstore\n    /* \"contracts/Market.sol\":606:611  false */\n  0x00\n    /* \"contracts/Market.sol\":656:699  uint256 public override sideATotalStake = 0 */\n  0x06\n  dup2\n  swap1\n  sstore\n    /* \"contracts/Market.sol\":743:786  uint256 public override sideBTotalStake = 0 */\n  0x08\n  dup2\n  swap1\n  sstore\n    /* \"contracts/Market.sol\":1204:1219  web3betsAddress */\n  sload\n    /* \"contracts/Market.sol\":1161:1220  IWeb3BetsFO private web3bets = IWeb3BetsFO(web3betsAddress) */\n  0x0f\n  dup1\n  sload\n  not(sub(shl(0xa0, 0x01), 0x01))\n  and\n  sub(shl(0xa0, 0x01), 0x01)\n    /* \"contracts/Market.sol\":1204:1219  web3betsAddress */\n  swap1\n  swap3\n  and\n    /* \"contracts/Market.sol\":1161:1220  IWeb3BetsFO private web3bets = IWeb3BetsFO(web3betsAddress) */\n  swap2\n  dup3\n  or\n  swap1\n  sstore\n  shl(0xe0, 0x992642e5)\n    /* \"contracts/Market.sol\":1256:1277  web3bets.stableCoin() */\n  dup4\n  mstore\n    /* \"contracts/Market.sol\":1204:1219  web3betsAddress */\n  swap2\n    /* \"contracts/Market.sol\":1256:1275  web3bets.stableCoin */\n  0x992642e5\n  swap2\n    /* \"contracts/Market.sol\":1256:1277  web3bets.stableCoin() */\n  0x84\n  swap2\n  0x20\n  swap2\n    /* \"contracts/Market.sol\":309:9907  contract Market is IMarket {... */\n  dup2\n    /* \"contracts/Market.sol\":1204:1219  web3betsAddress */\n  dup7\n    /* \"contracts/Market.sol\":1256:1277  web3bets.stableCoin() */\n  dup1\n  extcodesize\n  iszero\n  dup1\n  iszero\n  tag_1\n  jumpi\n  0x00\n  dup1\n  revert\ntag_1:\n  pop\n  gas\n  staticcall\n  iszero\n  dup1\n  iszero\n  tag_3\n  jumpi\n  returndatasize\n  0x00\n  dup1\n  returndatacopy\n  revert(0x00, returndatasize)\ntag_3:\n  pop\n  pop\n  pop\n  pop\n  mload(0x40)\n  returndatasize\n  not(0x1f)\n  0x1f\n  dup3\n  add\n  and\n  dup3\n  add\n  dup1\n  0x40\n  mstore\n  pop\n  dup2\n  add\n  swap1\n  tag_4\n  swap2\n  swap1\n  tag_5\n  jump\t// in\ntag_4:\n    /* \"contracts/Market.sol\":1227:1277  address private stableCoin = web3bets.stableCoin() */\n  0x10\n  dup1\n  sload\n  sub(shl(0xa0, 0x01), 0x01)\n  swap3\n  swap1\n  swap3\n  and\n  not(sub(shl(0xa0, 0x01), 0x01))\n  swap3\n  dup4\n  and\n  dup2\n  or\n  swap1\n  swap2\n  sstore\n    /* \"contracts/Market.sol\":1284:1338  IERC20 private _stableCoinWrapper = IERC20(stableCoin) */\n  0x11\n  dup1\n  sload\n  swap1\n  swap3\n  and\n  or\n  swap1\n  sstore\n    /* \"contracts/Market.sol\":1643:1986  constructor(... */\n  callvalue\n  dup1\n  iszero\n  tag_6\n  jumpi\n  0x00\n  dup1\n  revert\ntag_6:\n  pop\n  mload(0x40)\n  sub(codesize, bytecodeSize)\n  dup1\n  bytecodeSize\n  dup4\n  codecopy\n  dup2\n  add\n  0x40\n  dup2\n  swap1\n  mstore\n  tag_7\n  swap2\n  tag_8\n  jump\t// in\ntag_7:\n    /* \"contracts/Market.sol\":1821:1829  web3bets */\n  0x0f\n  0x00\n  swap1\n  sload\n  swap1\n  0x0100\n  exp\n  swap1\n  div\n  sub(shl(0xa0, 0x01), 0x01)\n  and\n  sub(shl(0xa0, 0x01), 0x01)\n    /* \"contracts/Market.sol\":1821:1843  web3bets.marketFactory */\n  and\n  0x06ae7095\n    /* \"contracts/Market.sol\":1821:1845  web3bets.marketFactory() */\n  mload(0x40)\n  dup2\n  0xffffffff\n  and\n  0xe0\n  shl\n  dup2\n  mstore\n  0x04\n  add\n  0x20\n  mload(0x40)\n  dup1\n  dup4\n  sub\n  dup2\n  dup7\n  dup1\n  extcodesize\n  iszero\n  dup1\n  iszero\n  tag_11\n  jumpi\n  0x00\n  dup1\n  revert\ntag_11:\n  pop\n  gas\n  staticcall\n  iszero\n  dup1\n  iszero\n  tag_13\n  jumpi\n  returndatasize\n  0x00\n  dup1\n  returndatacopy\n  revert(0x00, returndatasize)\ntag_13:\n  pop\n  pop\n  pop\n  pop\n  mload(0x40)\n  returndatasize\n  not(0x1f)\n  0x1f\n  dup3\n  add\n  and\n  dup3\n  add\n  dup1\n  0x40\n  mstore\n  pop\n  dup2\n  add\n  swap1\n  tag_14\n  swap2\n  swap1\n  tag_5\n  jump\t// in\ntag_14:\n  sub(shl(0xa0, 0x01), 0x01)\n    /* \"contracts/Market.sol\":1807:1845  msg.sender == web3bets.marketFactory() */\n  and\n    /* \"contracts/Market.sol\":1807:1817  msg.sender */\n  caller\n  sub(shl(0xa0, 0x01), 0x01)\n    /* \"contracts/Market.sol\":1807:1845  msg.sender == web3bets.marketFactory() */\n  and\n  eq\n    /* \"contracts/Market.sol\":1799:1855  require(msg.sender == web3bets.marketFactory(), \"fty o\") */\n  tag_15\n  jumpi\n  mload(0x40)\n  shl(0xe5, 0x461bcd)\n  dup2\n  mstore\n    /* \"#utility.yul\":2432:2434   */\n  0x20\n    /* \"contracts/Market.sol\":1799:1855  require(msg.sender == web3bets.marketFactory(), \"fty o\") */\n  0x04\n  dup3\n  add\n    /* \"#utility.yul\":2414:2435   */\n  mstore\n    /* \"#utility.yul\":2471:2472   */\n  0x05\n    /* \"#utility.yul\":2451:2469   */\n  0x24\n  dup3\n  add\n    /* \"#utility.yul\":2444:2473   */\n  mstore\n  shl(0xd8, 0x667479206f)\n    /* \"#utility.yul\":2489:2507   */\n  0x44\n  dup3\n  add\n    /* \"#utility.yul\":2482:2517   */\n  mstore\n    /* \"#utility.yul\":2534:2552   */\n  0x64\n  add\n    /* \"contracts/Market.sol\":1799:1855  require(msg.sender == web3bets.marketFactory(), \"fty o\") */\n  mload(0x40)\n  dup1\n  swap2\n  sub\n  swap1\n  revert\ntag_15:\n    /* \"contracts/Market.sol\":1865:1877  name = name_ */\n  dup4\n  mload\n  tag_18\n  swap1\n    /* \"contracts/Market.sol\":1865:1869  name */\n  0x01\n  swap1\n    /* \"contracts/Market.sol\":1865:1877  name = name_ */\n  0x20\n  dup8\n  add\n  swap1\n  tag_19\n  jump\t// in\ntag_18:\n  pop\n    /* \"contracts/Market.sol\":1887:1899  eventAddress */\n  0x02\n    /* \"contracts/Market.sol\":1887:1915  eventAddress = eventAddress_ */\n  dup1\n  sload\n  not(sub(shl(0xa0, 0x01), 0x01))\n  and\n  sub(shl(0xa0, 0x01), 0x01)\n  dup6\n  and\n  or\n  swap1\n  sstore\n    /* \"contracts/Market.sol\":1925:1947  sideAName = sideAName_ */\n  dup2\n  mload\n  tag_20\n  swap1\n    /* \"contracts/Market.sol\":1925:1934  sideAName */\n  0x05\n  swap1\n    /* \"contracts/Market.sol\":1925:1947  sideAName = sideAName_ */\n  0x20\n  dup6\n  add\n  swap1\n  tag_19\n  jump\t// in\ntag_20:\n  pop\n    /* \"contracts/Market.sol\":1957:1979  sideBName = sideBName_ */\n  dup1\n  mload\n  tag_21\n  swap1\n    /* \"contracts/Market.sol\":1957:1966  sideBName */\n  0x07\n  swap1\n    /* \"contracts/Market.sol\":1957:1979  sideBName = sideBName_ */\n  0x20\n  dup5\n  add\n  swap1\n  tag_19\n  jump\t// in\ntag_21:\n  pop\n    /* \"contracts/Market.sol\":1643:1986  constructor(... */\n  pop\n  pop\n  pop\n  pop\n    /* \"contracts/Market.sol\":309:9907  contract Market is IMarket {... */\n  jump(tag_34)\ntag_19:\n  dup3\n  dup1\n  sload\n  tag_23\n  swap1\n  tag_24\n  jump\t// in\ntag_23:\n  swap1\n  0x00\n  mstore\n  keccak256(0x00, 0x20)\n  swap1\n  0x1f\n  add\n  0x20\n  swap1\n  div\n  dup2\n  add\n  swap3\n  dup3\n  tag_26\n  jumpi\n  0x00\n  dup6\n  sstore\n  jump(tag_29)\ntag_26:\n  dup3\n  0x1f\n  lt\n  tag_27\n  jumpi\n  dup1\n  mload\n  not(0xff)\n  and\n  dup4\n  dup1\n  add\n  or\n  dup6\n  sstore\n  jump(tag_29)\ntag_27:\n  dup3\n  dup1\n  add\n  0x01\n  add\n  dup6\n  sstore\n  dup3\n  iszero\n  tag_29\n  jumpi\n  swap2\n  dup3\n  add\ntag_28:\n  dup3\n  dup2\n  gt\n  iszero\n  tag_29\n  jumpi\n  dup3\n  mload\n  dup3\n  sstore\n  swap2\n  0x20\n  add\n  swap2\n  swap1\n  0x01\n  add\n  swap1\n  jump(tag_28)\ntag_29:\n  pop\n  tag_30\n  swap3\n  swap2\n  pop\n  tag_31\n  jump\t// in\ntag_30:\n  pop\n  swap1\n  jump\t// out\ntag_31:\ntag_32:\n  dup1\n  dup3\n  gt\n  iszero\n  tag_30\n  jumpi\n  0x00\n  dup2\n  sstore\n  0x01\n  add\n  jump(tag_32)\n    /* \"#utility.yul\":14:191   */\ntag_35:\n    /* \"#utility.yul\":93:106   */\n  dup1\n  mload\n  sub(shl(0xa0, 0x01), 0x01)\n    /* \"#utility.yul\":135:166   */\n  dup2\n  and\n    /* \"#utility.yul\":125:167   */\n  dup2\n  eq\n    /* \"#utility.yul\":115:117   */\n  tag_37\n  jumpi\n    /* \"#utility.yul\":181:182   */\n  0x00\n    /* \"#utility.yul\":178:179   */\n  dup1\n    /* \"#utility.yul\":171:183   */\n  revert\n    /* \"#utility.yul\":115:117   */\ntag_37:\n    /* \"#utility.yul\":74:191   */\n  swap2\n  swap1\n  pop\n  jump\t// out\n    /* \"#utility.yul\":196:1105   */\ntag_38:\n    /* \"#utility.yul\":250:255   */\n  0x00\n    /* \"#utility.yul\":303:306   */\n  dup3\n    /* \"#utility.yul\":296:300   */\n  0x1f\n    /* \"#utility.yul\":288:294   */\n  dup4\n    /* \"#utility.yul\":284:301   */\n  add\n    /* \"#utility.yul\":280:307   */\n  slt\n    /* \"#utility.yul\":270:272   */\n  tag_40\n  jumpi\n    /* \"#utility.yul\":325:330   */\n  dup1\n    /* \"#utility.yul\":318:323   */\n  dup2\n    /* \"#utility.yul\":311:331   */\n  revert\n    /* \"#utility.yul\":270:272   */\ntag_40:\n    /* \"#utility.yul\":352:365   */\n  dup2\n  mload\n  sub(shl(0x40, 0x01), 0x01)\n    /* \"#utility.yul\":414:424   */\n  dup1\n  dup3\n  gt\n    /* \"#utility.yul\":411:413   */\n  iszero\n  tag_42\n  jumpi\n    /* \"#utility.yul\":427:445   */\n  tag_42\n  tag_43\n  jump\t// in\ntag_42:\n    /* \"#utility.yul\":502:504   */\n  0x40\n    /* \"#utility.yul\":496:505   */\n  mload\n    /* \"#utility.yul\":470:472   */\n  0x1f\n    /* \"#utility.yul\":556:569   */\n  dup4\n  add\n  not(0x1f)\n    /* \"#utility.yul\":552:574   */\n  swap1\n  dup2\n  and\n    /* \"#utility.yul\":576:578   */\n  0x3f\n    /* \"#utility.yul\":548:579   */\n  add\n    /* \"#utility.yul\":544:584   */\n  and\n    /* \"#utility.yul\":532:585   */\n  dup2\n  add\n  swap1\n    /* \"#utility.yul\":600:618   */\n  dup3\n  dup3\n  gt\n    /* \"#utility.yul\":620:642   */\n  dup2\n  dup4\n  lt\n    /* \"#utility.yul\":597:643   */\n  or\n    /* \"#utility.yul\":594:596   */\n  iszero\n  tag_45\n  jumpi\n    /* \"#utility.yul\":646:664   */\n  tag_45\n  tag_43\n  jump\t// in\ntag_45:\n    /* \"#utility.yul\":686:696   */\n  dup2\n    /* \"#utility.yul\":682:684   */\n  0x40\n    /* \"#utility.yul\":675:697   */\n  mstore\n    /* \"#utility.yul\":721:723   */\n  dup4\n    /* \"#utility.yul\":713:719   */\n  dup2\n    /* \"#utility.yul\":706:724   */\n  mstore\n    /* \"#utility.yul\":743:747   */\n  0x20\n    /* \"#utility.yul\":733:747   */\n  swap3\n  pop\n    /* \"#utility.yul\":788:791   */\n  dup7\n    /* \"#utility.yul\":783:785   */\n  dup4\n    /* \"#utility.yul\":778:780   */\n  dup6\n    /* \"#utility.yul\":770:776   */\n  dup9\n    /* \"#utility.yul\":766:781   */\n  add\n    /* \"#utility.yul\":762:786   */\n  add\n    /* \"#utility.yul\":759:792   */\n  gt\n    /* \"#utility.yul\":756:758   */\n  iszero\n  tag_46\n  jumpi\n    /* \"#utility.yul\":809:814   */\n  dup5\n    /* \"#utility.yul\":802:807   */\n  dup6\n    /* \"#utility.yul\":795:815   */\n  revert\n    /* \"#utility.yul\":756:758   */\ntag_46:\n    /* \"#utility.yul\":835:840   */\n  dup5\n    /* \"#utility.yul\":826:840   */\n  swap2\n  pop\n    /* \"#utility.yul\":849:982   */\ntag_47:\n    /* \"#utility.yul\":863:865   */\n  dup4\n    /* \"#utility.yul\":860:861   */\n  dup3\n    /* \"#utility.yul\":857:866   */\n  lt\n    /* \"#utility.yul\":849:982   */\n  iszero\n  tag_49\n  jumpi\n    /* \"#utility.yul\":951:965   */\n  dup6\n  dup3\n  add\n    /* \"#utility.yul\":947:970   */\n  dup4\n  add\n    /* \"#utility.yul\":941:971   */\n  mload\n    /* \"#utility.yul\":920:934   */\n  dup2\n  dup4\n  add\n    /* \"#utility.yul\":916:939   */\n  dup5\n  add\n    /* \"#utility.yul\":909:972   */\n  mstore\n    /* \"#utility.yul\":874:884   */\n  swap1\n  dup3\n  add\n  swap1\n    /* \"#utility.yul\":849:982   */\n  jump(tag_47)\ntag_49:\n    /* \"#utility.yul\":1000:1002   */\n  dup4\n    /* \"#utility.yul\":997:998   */\n  dup3\n    /* \"#utility.yul\":994:1003   */\n  gt\n    /* \"#utility.yul\":991:993   */\n  iszero\n  tag_50\n  jumpi\n    /* \"#utility.yul\":1059:1064   */\n  dup5\n    /* \"#utility.yul\":1054:1056   */\n  dup4\n    /* \"#utility.yul\":1049:1051   */\n  dup6\n    /* \"#utility.yul\":1041:1047   */\n  dup4\n    /* \"#utility.yul\":1037:1052   */\n  add\n    /* \"#utility.yul\":1033:1057   */\n  add\n    /* \"#utility.yul\":1026:1065   */\n  mstore\n    /* \"#utility.yul\":991:993   */\ntag_50:\n    /* \"#utility.yul\":1093:1099   */\n  swap7\n    /* \"#utility.yul\":260:1105   */\n  swap6\n  pop\n  pop\n  pop\n  pop\n  pop\n  pop\n  jump\t// out\n    /* \"#utility.yul\":1110:1328   */\ntag_5:\n    /* \"#utility.yul\":1180:1186   */\n  0x00\n    /* \"#utility.yul\":1233:1235   */\n  0x20\n    /* \"#utility.yul\":1221:1230   */\n  dup3\n    /* \"#utility.yul\":1212:1219   */\n  dup5\n    /* \"#utility.yul\":1208:1231   */\n  sub\n    /* \"#utility.yul\":1204:1236   */\n  slt\n    /* \"#utility.yul\":1201:1203   */\n  iszero\n  tag_52\n  jumpi\n    /* \"#utility.yul\":1254:1260   */\n  dup1\n    /* \"#utility.yul\":1246:1252   */\n  dup2\n    /* \"#utility.yul\":1239:1261   */\n  revert\n    /* \"#utility.yul\":1201:1203   */\ntag_52:\n    /* \"#utility.yul\":1282:1322   */\n  tag_53\n    /* \"#utility.yul\":1312:1321   */\n  dup3\n    /* \"#utility.yul\":1282:1322   */\n  tag_35\n  jump\t// in\ntag_53:\n    /* \"#utility.yul\":1272:1322   */\n  swap4\n    /* \"#utility.yul\":1191:1328   */\n  swap3\n  pop\n  pop\n  pop\n  jump\t// out\n    /* \"#utility.yul\":1333:2225   */\ntag_8:\n    /* \"#utility.yul\":1460:1466   */\n  0x00\n    /* \"#utility.yul\":1468:1474   */\n  dup1\n    /* \"#utility.yul\":1476:1482   */\n  0x00\n    /* \"#utility.yul\":1484:1490   */\n  dup1\n    /* \"#utility.yul\":1537:1540   */\n  0x80\n    /* \"#utility.yul\":1525:1534   */\n  dup6\n    /* \"#utility.yul\":1516:1523   */\n  dup8\n    /* \"#utility.yul\":1512:1535   */\n  sub\n    /* \"#utility.yul\":1508:1541   */\n  slt\n    /* \"#utility.yul\":1505:1507   */\n  iszero\n  tag_55\n  jumpi\n    /* \"#utility.yul\":1559:1565   */\n  dup3\n    /* \"#utility.yul\":1551:1557   */\n  dup4\n    /* \"#utility.yul\":1544:1566   */\n  revert\n    /* \"#utility.yul\":1505:1507   */\ntag_55:\n    /* \"#utility.yul\":1591:1607   */\n  dup5\n  mload\n  sub(shl(0x40, 0x01), 0x01)\n    /* \"#utility.yul\":1656:1670   */\n  dup1\n  dup3\n  gt\n    /* \"#utility.yul\":1653:1655   */\n  iszero\n  tag_56\n  jumpi\n    /* \"#utility.yul\":1688:1694   */\n  dup5\n    /* \"#utility.yul\":1680:1686   */\n  dup6\n    /* \"#utility.yul\":1673:1695   */\n  revert\n    /* \"#utility.yul\":1653:1655   */\ntag_56:\n    /* \"#utility.yul\":1716:1777   */\n  tag_57\n    /* \"#utility.yul\":1769:1776   */\n  dup9\n    /* \"#utility.yul\":1760:1766   */\n  dup4\n    /* \"#utility.yul\":1749:1758   */\n  dup10\n    /* \"#utility.yul\":1745:1767   */\n  add\n    /* \"#utility.yul\":1716:1777   */\n  tag_38\n  jump\t// in\ntag_57:\n    /* \"#utility.yul\":1706:1777   */\n  swap6\n  pop\n    /* \"#utility.yul\":1796:1845   */\n  tag_58\n    /* \"#utility.yul\":1841:1843   */\n  0x20\n    /* \"#utility.yul\":1830:1839   */\n  dup9\n    /* \"#utility.yul\":1826:1844   */\n  add\n    /* \"#utility.yul\":1796:1845   */\n  tag_35\n  jump\t// in\ntag_58:\n    /* \"#utility.yul\":1786:1845   */\n  swap5\n  pop\n    /* \"#utility.yul\":1891:1893   */\n  0x40\n    /* \"#utility.yul\":1880:1889   */\n  dup8\n    /* \"#utility.yul\":1876:1894   */\n  add\n    /* \"#utility.yul\":1870:1895   */\n  mload\n    /* \"#utility.yul\":1854:1895   */\n  swap2\n  pop\n    /* \"#utility.yul\":1920:1922   */\n  dup1\n    /* \"#utility.yul\":1910:1918   */\n  dup3\n    /* \"#utility.yul\":1907:1923   */\n  gt\n    /* \"#utility.yul\":1904:1906   */\n  iszero\n  tag_59\n  jumpi\n    /* \"#utility.yul\":1941:1947   */\n  dup4\n    /* \"#utility.yul\":1933:1939   */\n  dup5\n    /* \"#utility.yul\":1926:1948   */\n  revert\n    /* \"#utility.yul\":1904:1906   */\ntag_59:\n    /* \"#utility.yul\":1969:2032   */\n  tag_60\n    /* \"#utility.yul\":2024:2031   */\n  dup9\n    /* \"#utility.yul\":2013:2021   */\n  dup4\n    /* \"#utility.yul\":2002:2011   */\n  dup10\n    /* \"#utility.yul\":1998:2022   */\n  add\n    /* \"#utility.yul\":1969:2032   */\n  tag_38\n  jump\t// in\ntag_60:\n    /* \"#utility.yul\":1959:2032   */\n  swap4\n  pop\n    /* \"#utility.yul\":2078:2080   */\n  0x60\n    /* \"#utility.yul\":2067:2076   */\n  dup8\n    /* \"#utility.yul\":2063:2081   */\n  add\n    /* \"#utility.yul\":2057:2082   */\n  mload\n    /* \"#utility.yul\":2041:2082   */\n  swap2\n  pop\n    /* \"#utility.yul\":2107:2109   */\n  dup1\n    /* \"#utility.yul\":2097:2105   */\n  dup3\n    /* \"#utility.yul\":2094:2110   */\n  gt\n    /* \"#utility.yul\":2091:2093   */\n  iszero\n  tag_61\n  jumpi\n    /* \"#utility.yul\":2128:2134   */\n  dup3\n    /* \"#utility.yul\":2120:2126   */\n  dup4\n    /* \"#utility.yul\":2113:2135   */\n  revert\n    /* \"#utility.yul\":2091:2093   */\ntag_61:\n  pop\n    /* \"#utility.yul\":2156:2219   */\n  tag_62\n    /* \"#utility.yul\":2211:2218   */\n  dup8\n    /* \"#utility.yul\":2200:2208   */\n  dup3\n    /* \"#utility.yul\":2189:2198   */\n  dup9\n    /* \"#utility.yul\":2185:2209   */\n  add\n    /* \"#utility.yul\":2156:2219   */\n  tag_38\n  jump\t// in\ntag_62:\n    /* \"#utility.yul\":2146:2219   */\n  swap2\n  pop\n  pop\n    /* \"#utility.yul\":1495:2225   */\n  swap3\n  swap6\n  swap2\n  swap5\n  pop\n  swap3\n  pop\n  jump\t// out\n    /* \"#utility.yul\":2563:2943   */\ntag_24:\n    /* \"#utility.yul\":2642:2643   */\n  0x01\n    /* \"#utility.yul\":2638:2650   */\n  dup2\n  dup2\n  shr\n  swap1\n    /* \"#utility.yul\":2685:2697   */\n  dup3\n  and\n  dup1\n    /* \"#utility.yul\":2706:2708   */\n  tag_65\n  jumpi\n    /* \"#utility.yul\":2760:2764   */\n  0x7f\n    /* \"#utility.yul\":2752:2758   */\n  dup3\n    /* \"#utility.yul\":2748:2765   */\n  and\n    /* \"#utility.yul\":2738:2765   */\n  swap2\n  pop\n    /* \"#utility.yul\":2706:2708   */\ntag_65:\n    /* \"#utility.yul\":2813:2815   */\n  0x20\n    /* \"#utility.yul\":2805:2811   */\n  dup3\n    /* \"#utility.yul\":2802:2816   */\n  lt\n    /* \"#utility.yul\":2782:2800   */\n  dup2\n    /* \"#utility.yul\":2779:2817   */\n  eq\n    /* \"#utility.yul\":2776:2778   */\n  iszero\n  tag_66\n  jumpi\n    /* \"#utility.yul\":2859:2869   */\n  0x4e487b71\n    /* \"#utility.yul\":2854:2857   */\n  0xe0\n    /* \"#utility.yul\":2850:2870   */\n  shl\n    /* \"#utility.yul\":2847:2848   */\n  0x00\n    /* \"#utility.yul\":2840:2871   */\n  mstore\n    /* \"#utility.yul\":2894:2898   */\n  0x22\n    /* \"#utility.yul\":2891:2892   */\n  0x04\n    /* \"#utility.yul\":2884:2899   */\n  mstore\n    /* \"#utility.yul\":2922:2926   */\n  0x24\n    /* \"#utility.yul\":2919:2920   */\n  0x00\n    /* \"#utility.yul\":2912:2927   */\n  revert\n    /* \"#utility.yul\":2776:2778   */\ntag_66:\n  pop\n    /* \"#utility.yul\":2618:2943   */\n  swap2\n  swap1\n  pop\n  jump\t// out\n    /* \"#utility.yul\":2948:3075   */\ntag_43:\n    /* \"#utility.yul\":3009:3019   */\n  0x4e487b71\n    /* \"#utility.yul\":3004:3007   */\n  0xe0\n    /* \"#utility.yul\":3000:3020   */\n  shl\n    /* \"#utility.yul\":2997:2998   */\n  0x00\n    /* \"#utility.yul\":2990:3021   */\n  mstore\n    /* \"#utility.yul\":3040:3044   */\n  0x41\n    /* \"#utility.yul\":3037:3038   */\n  0x04\n    /* \"#utility.yul\":3030:3045   */\n  mstore\n    /* \"#utility.yul\":3064:3068   */\n  0x24\n    /* \"#utility.yul\":3061:3062   */\n  0x00\n    /* \"#utility.yul\":3054:3069   */\n  revert\n    /* \"#utility.yul\":2980:3075   */\ntag_34:\n    /* \"contracts/Market.sol\":309:9907  contract Market is IMarket {... */\n  dataSize(sub_0)\n  dup1\n  dataOffset(sub_0)\n  0x00\n  codecopy\n  0x00\n  return\nstop\n\nsub_0: assembly {\n        /* \"contracts/Market.sol\":309:9907  contract Market is IMarket {... */\n      mstore(0x40, 0x80)\n      callvalue\n      dup1\n      iszero\n      tag_1\n      jumpi\n      0x00\n      dup1\n      revert\n    tag_1:\n      pop\n      jumpi(tag_2, lt(calldatasize, 0x04))\n      shr(0xe0, calldataload(0x00))\n      dup1\n      0x8eb1a4ad\n      gt\n      tag_22\n      jumpi\n      dup1\n      0xbd92630c\n      gt\n      tag_23\n      jumpi\n      dup1\n      0xbd92630c\n      eq\n      tag_17\n      jumpi\n      dup1\n      0xd37e2996\n      eq\n      tag_18\n      jumpi\n      dup1\n      0xe7c9a87f\n      eq\n      tag_19\n      jumpi\n      dup1\n      0xfad56779\n      eq\n      tag_20\n      jumpi\n      dup1\n      0xfbf06338\n      eq\n      tag_21\n      jumpi\n      0x00\n      dup1\n      revert\n    tag_23:\n      dup1\n      0x8eb1a4ad\n      eq\n      tag_12\n      jumpi\n      dup1\n      0x948fb24d\n      eq\n      tag_13\n      jumpi\n      dup1\n      0x9bf5b845\n      eq\n      tag_14\n      jumpi\n      dup1\n      0xa355f897\n      eq\n      tag_15\n      jumpi\n      dup1\n      0xb40a4f05\n      eq\n      tag_16\n      jumpi\n      0x00\n      dup1\n      revert\n    tag_22:\n      dup1\n      0x2b4a3527\n      gt\n      tag_24\n      jumpi\n      dup1\n      0x2b4a3527\n      eq\n      tag_7\n      jumpi\n      dup1\n      0x3ab8781c\n      eq\n      tag_8\n      jumpi\n      dup1\n      0x5a358464\n      eq\n      tag_9\n      jumpi\n      dup1\n      0x6bfefd6b\n      eq\n      tag_10\n      jumpi\n      dup1\n      0x83bbe262\n      eq\n      tag_11\n      jumpi\n      0x00\n      dup1\n      revert\n    tag_24:\n      dup1\n      0x03afd56b\n      eq\n      tag_3\n      jumpi\n      dup1\n      0x06fdde03\n      eq\n      tag_4\n      jumpi\n      dup1\n      0x0b469bda\n      eq\n      tag_5\n      jumpi\n      dup1\n      0x0ed5a933\n      eq\n      tag_6\n      jumpi\n    tag_2:\n      0x00\n      dup1\n      revert\n        /* \"contracts/Market.sol\":1993:2348  function withdrawPending(address _bet) external override onlyFactory returns(bool){... */\n    tag_3:\n      tag_25\n      tag_26\n      calldatasize\n      0x04\n      tag_27\n      jump\t// in\n    tag_26:\n      tag_28\n      jump\t// in\n    tag_25:\n      mload(0x40)\n        /* \"#utility.yul\":7033:7047   */\n      swap1\n      iszero\n        /* \"#utility.yul\":7026:7048   */\n      iszero\n        /* \"#utility.yul\":7008:7049   */\n      dup2\n      mstore\n        /* \"#utility.yul\":6996:6998   */\n      0x20\n        /* \"#utility.yul\":6981:6999   */\n      add\n        /* \"contracts/Market.sol\":1993:2348  function withdrawPending(address _bet) external override onlyFactory returns(bool){... */\n    tag_29:\n      mload(0x40)\n      dup1\n      swap2\n      sub\n      swap1\n      return\n        /* \"contracts/Market.sol\":413:440  string public override name */\n    tag_4:\n      tag_31\n      tag_32\n      jump\t// in\n    tag_31:\n      mload(0x40)\n      tag_29\n      swap2\n      swap1\n      tag_34\n      jump\t// in\n        /* \"contracts/Market.sol\":743:786  uint256 public override sideBTotalStake = 0 */\n    tag_5:\n      tag_35\n      sload(0x08)\n      dup2\n      jump\n    tag_35:\n      mload(0x40)\n        /* \"#utility.yul\":10786:10811   */\n      swap1\n      dup2\n      mstore\n        /* \"#utility.yul\":10774:10776   */\n      0x20\n        /* \"#utility.yul\":10759:10777   */\n      add\n        /* \"contracts/Market.sol\":743:786  uint256 public override sideBTotalStake = 0 */\n      tag_29\n        /* \"#utility.yul\":10741:10817   */\n      jump\n        /* \"contracts/Market.sol\":572:611  bool public override isCanceled = false */\n    tag_6:\n      sload(0x04)\n      tag_25\n      swap1\n      0xff\n      and\n      dup2\n      jump\n        /* \"contracts/Market.sol\":2358:3482  function settlePair(address _pair) external override onlyFactory returns(bool) {... */\n    tag_7:\n      tag_25\n      tag_43\n      calldatasize\n      0x04\n      tag_27\n      jump\t// in\n    tag_43:\n      tag_44\n      jump\t// in\n        /* \"contracts/Market.sol\":1046:1097  mapping(address => uint256) public sideAUsersStakes */\n    tag_8:\n      tag_35\n      tag_47\n      calldatasize\n      0x04\n      tag_27\n      jump\t// in\n    tag_47:\n      mstore(0x20, 0x0d)\n      0x00\n      swap1\n      dup2\n      mstore\n      0x40\n      swap1\n      keccak256\n      sload\n      dup2\n      jump\n        /* \"contracts/Market.sol\":1103:1154  mapping(address => uint256) public sideBUsersStakes */\n    tag_9:\n      tag_35\n      tag_51\n      calldatasize\n      0x04\n      tag_27\n      jump\t// in\n    tag_51:\n      mstore(0x20, 0x0e)\n      0x00\n      swap1\n      dup2\n      mstore\n      0x40\n      swap1\n      keccak256\n      sload\n      dup2\n      jump\n        /* \"contracts/Market.sol\":4051:4241  function cancelMarket() external override onlyFactory returns(bool) ... */\n    tag_10:\n      tag_25\n      tag_55\n      jump\t// in\n        /* \"contracts/Market.sol\":3771:4045  function upadteMarket( string memory name_, string memory sideAName_, string memory sideBName_)... */\n    tag_11:\n      tag_25\n      tag_58\n      calldatasize\n      0x04\n      tag_59\n      jump\t// in\n    tag_58:\n      tag_60\n      jump\t// in\n        /* \"contracts/Market.sol\":618:650  string public override sideAName */\n    tag_12:\n      tag_31\n      tag_63\n      jump\t// in\n        /* \"contracts/Market.sol\":893:921  MarketBet[] public sideABets */\n    tag_13:\n      tag_65\n      tag_66\n      calldatasize\n      0x04\n      tag_67\n      jump\t// in\n    tag_66:\n      tag_68\n      jump\t// in\n    tag_65:\n      0x40\n      dup1\n      mload\n      sub(shl(0xa0, 0x01), 0x01)\n        /* \"#utility.yul\":6727:6759   */\n      swap1\n      swap5\n      and\n        /* \"#utility.yul\":6709:6760   */\n      dup5\n      mstore\n        /* \"#utility.yul\":6791:6793   */\n      0x20\n        /* \"#utility.yul\":6776:6794   */\n      dup5\n      add\n        /* \"#utility.yul\":6769:6803   */\n      swap3\n      swap1\n      swap3\n      mstore\n        /* \"#utility.yul\":6851:6855   */\n      0xff\n        /* \"#utility.yul\":6839:6856   */\n      and\n        /* \"#utility.yul\":6819:6837   */\n      swap1\n      dup3\n      add\n        /* \"#utility.yul\":6812:6857   */\n      mstore\n        /* \"#utility.yul\":6697:6699   */\n      0x60\n        /* \"#utility.yul\":6682:6700   */\n      add\n        /* \"contracts/Market.sol\":893:921  MarketBet[] public sideABets */\n      tag_29\n        /* \"#utility.yul\":6664:6863   */\n      jump\n        /* \"contracts/Market.sol\":4248:4877  function addBet(address _better, address _betAddress, uint256 _stake, uint8 _odds, string memory _side)... */\n    tag_14:\n      tag_25\n      tag_72\n      calldatasize\n      0x04\n      tag_73\n      jump\t// in\n    tag_72:\n      tag_74\n      jump\t// in\n        /* \"contracts/Market.sol\":705:737  string public override sideBName */\n    tag_15:\n      tag_31\n      tag_77\n      jump\t// in\n        /* \"contracts/Market.sol\":3488:3765  function setWinningSide(string memory _winningSide)... */\n    tag_16:\n      tag_25\n      tag_80\n      calldatasize\n      0x04\n      tag_81\n      jump\t// in\n    tag_80:\n      tag_82\n      jump\t// in\n        /* \"contracts/Market.sol\":488:526  bool public override hasSetWinningSide */\n    tag_17:\n      sload(0x02)\n      tag_25\n      swap1\n      shl(0xa0, 0x01)\n      swap1\n      div\n      0xff\n      and\n      dup2\n      jump\n        /* \"contracts/Market.sol\":656:699  uint256 public override sideATotalStake = 0 */\n    tag_18:\n      tag_35\n      sload(0x06)\n      dup2\n      jump\n        /* \"contracts/Market.sol\":969:997  MarketBet[] public sideBBets */\n    tag_19:\n      tag_65\n      tag_91\n      calldatasize\n      0x04\n      tag_67\n      jump\t// in\n    tag_91:\n      tag_92\n      jump\t// in\n        /* \"contracts/Market.sol\":446:482  address public override eventAddress */\n    tag_20:\n      sload(0x02)\n      tag_94\n      swap1\n      sub(shl(0xa0, 0x01), 0x01)\n      and\n      dup2\n      jump\n    tag_94:\n      mload(0x40)\n      sub(shl(0xa0, 0x01), 0x01)\n        /* \"#utility.yul\":5655:5687   */\n      swap1\n      swap2\n      and\n        /* \"#utility.yul\":5637:5688   */\n      dup2\n      mstore\n        /* \"#utility.yul\":5625:5627   */\n      0x20\n        /* \"#utility.yul\":5610:5628   */\n      add\n        /* \"contracts/Market.sol\":446:482  address public override eventAddress */\n      tag_29\n        /* \"#utility.yul\":5592:5694   */\n      jump\n        /* \"contracts/Market.sol\":532:566  string public override winningSide */\n    tag_21:\n      tag_31\n      tag_99\n      jump\t// in\n        /* \"contracts/Market.sol\":1993:2348  function withdrawPending(address _bet) external override onlyFactory returns(bool){... */\n    tag_28:\n        /* \"contracts/Market.sol\":1413:1421  web3bets */\n      sload(0x0f)\n        /* \"contracts/Market.sol\":1413:1437  web3bets.marketFactory() */\n      0x40\n      dup1\n      mload\n      shl(0xe0, 0x06ae7095)\n      dup2\n      mstore\n      swap1\n      mload\n        /* \"contracts/Market.sol\":2070:2074  bool */\n      0x00\n      swap3\n      sub(shl(0xa0, 0x01), 0x01)\n        /* \"contracts/Market.sol\":1413:1421  web3bets */\n      and\n      swap2\n        /* \"contracts/Market.sol\":1413:1435  web3bets.marketFactory */\n      0x06ae7095\n      swap2\n        /* \"contracts/Market.sol\":1413:1437  web3bets.marketFactory() */\n      0x04\n      dup1\n      dup4\n      add\n      swap3\n      0x20\n      swap3\n      swap2\n      swap1\n      dup3\n      swap1\n      sub\n      add\n      dup2\n        /* \"contracts/Market.sol\":1413:1421  web3bets */\n      dup7\n        /* \"contracts/Market.sol\":1413:1437  web3bets.marketFactory() */\n      dup1\n      extcodesize\n      iszero\n      dup1\n      iszero\n      tag_102\n      jumpi\n      0x00\n      dup1\n      revert\n    tag_102:\n      pop\n      gas\n      staticcall\n      iszero\n      dup1\n      iszero\n      tag_104\n      jumpi\n      returndatasize\n      0x00\n      dup1\n      returndatacopy\n      revert(0x00, returndatasize)\n    tag_104:\n      pop\n      pop\n      pop\n      pop\n      mload(0x40)\n      returndatasize\n      not(0x1f)\n      0x1f\n      dup3\n      add\n      and\n      dup3\n      add\n      dup1\n      0x40\n      mstore\n      pop\n      dup2\n      add\n      swap1\n      tag_105\n      swap2\n      swap1\n      tag_106\n      jump\t// in\n    tag_105:\n      sub(shl(0xa0, 0x01), 0x01)\n        /* \"contracts/Market.sol\":1399:1437  msg.sender == web3bets.marketFactory() */\n      and\n        /* \"contracts/Market.sol\":1399:1409  msg.sender */\n      caller\n      sub(shl(0xa0, 0x01), 0x01)\n        /* \"contracts/Market.sol\":1399:1437  msg.sender == web3bets.marketFactory() */\n      and\n      eq\n        /* \"contracts/Market.sol\":1378:1470  require(... */\n      tag_107\n      jumpi\n      mload(0x40)\n      shl(0xe5, 0x461bcd)\n      dup2\n      mstore\n      0x04\n      add\n      tag_108\n      swap1\n      tag_109\n      jump\t// in\n    tag_108:\n      mload(0x40)\n      dup1\n      swap2\n      sub\n      swap1\n      revert\n    tag_107:\n        /* \"contracts/Market.sol\":2085:2093  IBet bet */\n      0x00\n        /* \"contracts/Market.sol\":2101:2105  _bet */\n      dup3\n        /* \"contracts/Market.sol\":2085:2106  IBet bet = IBet(_bet) */\n      swap1\n      pop\n        /* \"contracts/Market.sol\":2116:2129  uint remStake */\n      0x00\n        /* \"contracts/Market.sol\":2146:2149  bet */\n      dup2\n      sub(shl(0xa0, 0x01), 0x01)\n        /* \"contracts/Market.sol\":2146:2157  bet.matched */\n      and\n      0x8aac9cca\n        /* \"contracts/Market.sol\":2146:2159  bet.matched() */\n      mload(0x40)\n      dup2\n      0xffffffff\n      and\n      0xe0\n      shl\n      dup2\n      mstore\n      0x04\n      add\n      0x20\n      mload(0x40)\n      dup1\n      dup4\n      sub\n      dup2\n      dup7\n      dup1\n      extcodesize\n      iszero\n      dup1\n      iszero\n      tag_111\n      jumpi\n      0x00\n      dup1\n      revert\n    tag_111:\n      pop\n      gas\n      staticcall\n      iszero\n      dup1\n      iszero\n      tag_113\n      jumpi\n      returndatasize\n      0x00\n      dup1\n      returndatacopy\n      revert(0x00, returndatasize)\n    tag_113:\n      pop\n      pop\n      pop\n      pop\n      mload(0x40)\n      returndatasize\n      not(0x1f)\n      0x1f\n      dup3\n      add\n      and\n      dup3\n      add\n      dup1\n      0x40\n      mstore\n      pop\n      dup2\n      add\n      swap1\n      tag_114\n      swap2\n      swap1\n      tag_115\n      jump\t// in\n    tag_114:\n        /* \"contracts/Market.sol\":2132:2135  bet */\n      dup3\n      sub(shl(0xa0, 0x01), 0x01)\n        /* \"contracts/Market.sol\":2132:2141  bet.stake */\n      and\n      0x3a4b66f1\n        /* \"contracts/Market.sol\":2132:2143  bet.stake() */\n      mload(0x40)\n      dup2\n      0xffffffff\n      and\n      0xe0\n      shl\n      dup2\n      mstore\n      0x04\n      add\n      0x20\n      mload(0x40)\n      dup1\n      dup4\n      sub\n      dup2\n      dup7\n      dup1\n      extcodesize\n      iszero\n      dup1\n      iszero\n      tag_116\n      jumpi\n      0x00\n      dup1\n      revert\n    tag_116:\n      pop\n      gas\n      staticcall\n      iszero\n      dup1\n      iszero\n      tag_118\n      jumpi\n      returndatasize\n      0x00\n      dup1\n      returndatacopy\n      revert(0x00, returndatasize)\n    tag_118:\n      pop\n      pop\n      pop\n      pop\n      mload(0x40)\n      returndatasize\n      not(0x1f)\n      0x1f\n      dup3\n      add\n      and\n      dup3\n      add\n      dup1\n      0x40\n      mstore\n      pop\n      dup2\n      add\n      swap1\n      tag_119\n      swap2\n      swap1\n      tag_115\n      jump\t// in\n    tag_119:\n        /* \"contracts/Market.sol\":2132:2159  bet.stake() - bet.matched() */\n      tag_120\n      swap2\n      swap1\n      tag_121\n      jump\t// in\n    tag_120:\n        /* \"contracts/Market.sol\":2116:2159  uint remStake = bet.stake() - bet.matched() */\n      swap1\n      pop\n        /* \"contracts/Market.sol\":2201:2209  remStake */\n      dup1\n        /* \"contracts/Market.sol\":2177:2198  address(this).balance */\n      selfbalance\n        /* \"contracts/Market.sol\":2177:2209  address(this).balance > remStake */\n      gt\n        /* \"contracts/Market.sol\":2169:2220  require(address(this).balance > remStake, \"0 fund\") */\n      tag_122\n      jumpi\n      mload(0x40)\n      shl(0xe5, 0x461bcd)\n      dup2\n      mstore\n        /* \"#utility.yul\":7984:7986   */\n      0x20\n        /* \"contracts/Market.sol\":2169:2220  require(address(this).balance > remStake, \"0 fund\") */\n      0x04\n      dup3\n      add\n        /* \"#utility.yul\":7966:7987   */\n      mstore\n        /* \"#utility.yul\":8023:8024   */\n      0x06\n        /* \"#utility.yul\":8003:8021   */\n      0x24\n      dup3\n      add\n        /* \"#utility.yul\":7996:8025   */\n      mstore\n      shl(0xd2, 0x0c08199d5b99)\n        /* \"#utility.yul\":8041:8059   */\n      0x44\n      dup3\n      add\n        /* \"#utility.yul\":8034:8070   */\n      mstore\n        /* \"#utility.yul\":8087:8105   */\n      0x64\n      add\n        /* \"contracts/Market.sol\":2169:2220  require(address(this).balance > remStake, \"0 fund\") */\n      tag_108\n        /* \"#utility.yul\":7956:8111   */\n      jump\n        /* \"contracts/Market.sol\":2169:2220  require(address(this).balance > remStake, \"0 fund\") */\n    tag_122:\n        /* \"contracts/Market.sol\":2230:2286  _stableCoinWrapper.safeTransfer( bet.better(), remStake) */\n      tag_125\n        /* \"contracts/Market.sol\":2263:2266  bet */\n      dup3\n      sub(shl(0xa0, 0x01), 0x01)\n        /* \"contracts/Market.sol\":2263:2273  bet.better */\n      and\n      0x718c7d44\n        /* \"contracts/Market.sol\":2263:2275  bet.better() */\n      mload(0x40)\n      dup2\n      0xffffffff\n      and\n      0xe0\n      shl\n      dup2\n      mstore\n      0x04\n      add\n      0x20\n      mload(0x40)\n      dup1\n      dup4\n      sub\n      dup2\n      dup7\n      dup1\n      extcodesize\n      iszero\n      dup1\n      iszero\n      tag_126\n      jumpi\n      0x00\n      dup1\n      revert\n    tag_126:\n      pop\n      gas\n      staticcall\n      iszero\n      dup1\n      iszero\n      tag_128\n      jumpi\n      returndatasize\n      0x00\n      dup1\n      returndatacopy\n      revert(0x00, returndatasize)\n    tag_128:\n      pop\n      pop\n      pop\n      pop\n      mload(0x40)\n      returndatasize\n      not(0x1f)\n      0x1f\n      dup3\n      add\n      and\n      dup3\n      add\n      dup1\n      0x40\n      mstore\n      pop\n      dup2\n      add\n      swap1\n      tag_129\n      swap2\n      swap1\n      tag_106\n      jump\t// in\n    tag_129:\n        /* \"contracts/Market.sol\":2230:2248  _stableCoinWrapper */\n      and(sub(shl(0xa0, 0x01), 0x01), sload(0x11))\n      swap1\n        /* \"contracts/Market.sol\":2277:2285  remStake */\n      dup4\n        /* \"contracts/Market.sol\":2230:2261  _stableCoinWrapper.safeTransfer */\n      tag_130\n        /* \"contracts/Market.sol\":2230:2286  _stableCoinWrapper.safeTransfer( bet.better(), remStake) */\n      jump\t// in\n    tag_125:\n        /* \"contracts/Market.sol\":2296:2320  bet.setMatched(remStake) */\n      mload(0x40)\n      shl(0xe1, 0x2d267e03)\n      dup2\n      mstore\n      0x04\n      dup2\n      add\n        /* \"#utility.yul\":10786:10811   */\n      dup3\n      swap1\n      mstore\n      sub(shl(0xa0, 0x01), 0x01)\n        /* \"contracts/Market.sol\":2296:2310  bet.setMatched */\n      dup4\n      and\n      swap1\n      0x5a4cfc06\n      swap1\n        /* \"#utility.yul\":10759:10777   */\n      0x24\n      add\n        /* \"contracts/Market.sol\":2296:2320  bet.setMatched(remStake) */\n      0x20\n      mload(0x40)\n      dup1\n      dup4\n      sub\n      dup2\n      0x00\n      dup8\n      dup1\n      extcodesize\n      iszero\n      dup1\n      iszero\n      tag_132\n      jumpi\n      0x00\n      dup1\n      revert\n    tag_132:\n      pop\n      gas\n      call\n      iszero\n      dup1\n      iszero\n      tag_134\n      jumpi\n      returndatasize\n      0x00\n      dup1\n      returndatacopy\n      revert(0x00, returndatasize)\n    tag_134:\n      pop\n      pop\n      pop\n      pop\n      mload(0x40)\n      returndatasize\n      not(0x1f)\n      0x1f\n      dup3\n      add\n      and\n      dup3\n      add\n      dup1\n      0x40\n      mstore\n      pop\n      dup2\n      add\n      swap1\n      tag_135\n      swap2\n      swap1\n      tag_136\n      jump\t// in\n    tag_135:\n      pop\n        /* \"contracts/Market.sol\":2337:2341  true */\n      0x01\n      swap5\n        /* \"contracts/Market.sol\":1993:2348  function withdrawPending(address _bet) external override onlyFactory returns(bool){... */\n      swap4\n      pop\n      pop\n      pop\n      pop\n      jump\t// out\n        /* \"contracts/Market.sol\":413:440  string public override name */\n    tag_32:\n      0x01\n      dup1\n      sload\n      tag_137\n      swap1\n      tag_138\n      jump\t// in\n    tag_137:\n      dup1\n      0x1f\n      add\n      0x20\n      dup1\n      swap2\n      div\n      mul\n      0x20\n      add\n      mload(0x40)\n      swap1\n      dup2\n      add\n      0x40\n      mstore\n      dup1\n      swap3\n      swap2\n      swap1\n      dup2\n      dup2\n      mstore\n      0x20\n      add\n      dup3\n      dup1\n      sload\n      tag_139\n      swap1\n      tag_138\n      jump\t// in\n    tag_139:\n      dup1\n      iszero\n      tag_140\n      jumpi\n      dup1\n      0x1f\n      lt\n      tag_141\n      jumpi\n      0x0100\n      dup1\n      dup4\n      sload\n      div\n      mul\n      dup4\n      mstore\n      swap2\n      0x20\n      add\n      swap2\n      jump(tag_140)\n    tag_141:\n      dup3\n      add\n      swap2\n      swap1\n      0x00\n      mstore\n      keccak256(0x00, 0x20)\n      swap1\n    tag_142:\n      dup2\n      sload\n      dup2\n      mstore\n      swap1\n      0x01\n      add\n      swap1\n      0x20\n      add\n      dup1\n      dup4\n      gt\n      tag_142\n      jumpi\n      dup3\n      swap1\n      sub\n      0x1f\n      and\n      dup3\n      add\n      swap2\n    tag_140:\n      pop\n      pop\n      pop\n      pop\n      pop\n      dup2\n      jump\t// out\n        /* \"contracts/Market.sol\":2358:3482  function settlePair(address _pair) external override onlyFactory returns(bool) {... */\n    tag_44:\n        /* \"contracts/Market.sol\":1413:1421  web3bets */\n      sload(0x0f)\n        /* \"contracts/Market.sol\":1413:1437  web3bets.marketFactory() */\n      0x40\n      dup1\n      mload\n      shl(0xe0, 0x06ae7095)\n      dup2\n      mstore\n      swap1\n      mload\n        /* \"contracts/Market.sol\":2431:2435  bool */\n      0x00\n      swap3\n      sub(shl(0xa0, 0x01), 0x01)\n        /* \"contracts/Market.sol\":1413:1421  web3bets */\n      and\n      swap2\n        /* \"contracts/Market.sol\":1413:1435  web3bets.marketFactory */\n      0x06ae7095\n      swap2\n        /* \"contracts/Market.sol\":1413:1437  web3bets.marketFactory() */\n      0x04\n      dup1\n      dup4\n      add\n      swap3\n      0x20\n      swap3\n      swap2\n      swap1\n      dup3\n      swap1\n      sub\n      add\n      dup2\n        /* \"contracts/Market.sol\":1413:1421  web3bets */\n      dup7\n        /* \"contracts/Market.sol\":1413:1437  web3bets.marketFactory() */\n      dup1\n      extcodesize\n      iszero\n      dup1\n      iszero\n      tag_144\n      jumpi\n      0x00\n      dup1\n      revert\n    tag_144:\n      pop\n      gas\n      staticcall\n      iszero\n      dup1\n      iszero\n      tag_146\n      jumpi\n      returndatasize\n      0x00\n      dup1\n      returndatacopy\n      revert(0x00, returndatasize)\n    tag_146:\n      pop\n      pop\n      pop\n      pop\n      mload(0x40)\n      returndatasize\n      not(0x1f)\n      0x1f\n      dup3\n      add\n      and\n      dup3\n      add\n      dup1\n      0x40\n      mstore\n      pop\n      dup2\n      add\n      swap1\n      tag_147\n      swap2\n      swap1\n      tag_106\n      jump\t// in\n    tag_147:\n      sub(shl(0xa0, 0x01), 0x01)\n        /* \"contracts/Market.sol\":1399:1437  msg.sender == web3bets.marketFactory() */\n      and\n        /* \"contracts/Market.sol\":1399:1409  msg.sender */\n      caller\n      sub(shl(0xa0, 0x01), 0x01)\n        /* \"contracts/Market.sol\":1399:1437  msg.sender == web3bets.marketFactory() */\n      and\n      eq\n        /* \"contracts/Market.sol\":1378:1470  require(... */\n      tag_148\n      jumpi\n      mload(0x40)\n      shl(0xe5, 0x461bcd)\n      dup2\n      mstore\n      0x04\n      add\n      tag_108\n      swap1\n      tag_109\n      jump\t// in\n    tag_148:\n        /* \"contracts/Market.sol\":2447:2460  IBetPair pair */\n      0x00\n        /* \"contracts/Market.sol\":2472:2477  _pair */\n      dup3\n        /* \"contracts/Market.sol\":2447:2478  IBetPair pair = IBetPair(_pair) */\n      swap1\n      pop\n        /* \"contracts/Market.sol\":2488:2505  address _pairAddr */\n      0x00\n        /* \"contracts/Market.sol\":2508:2512  pair */\n      dup2\n      sub(shl(0xa0, 0x01), 0x01)\n        /* \"contracts/Market.sol\":2508:2519  pair.market */\n      and\n      0x80f55605\n        /* \"contracts/Market.sol\":2508:2521  pair.market() */\n      mload(0x40)\n      dup2\n      0xffffffff\n      and\n      0xe0\n      shl\n      dup2\n      mstore\n      0x04\n      add\n      0x20\n      mload(0x40)\n      dup1\n      dup4\n      sub\n      dup2\n      dup7\n      dup1\n      extcodesize\n      iszero\n      dup1\n      iszero\n      tag_151\n      jumpi\n      0x00\n      dup1\n      revert\n    tag_151:\n      pop\n      gas\n      staticcall\n      iszero\n      dup1\n      iszero\n      tag_153\n      jumpi\n      returndatasize\n      0x00\n      dup1\n      returndatacopy\n      revert(0x00, returndatasize)\n    tag_153:\n      pop\n      pop\n      pop\n      pop\n      mload(0x40)\n      returndatasize\n      not(0x1f)\n      0x1f\n      dup3\n      add\n      and\n      dup3\n      add\n      dup1\n      0x40\n      mstore\n      pop\n      dup2\n      add\n      swap1\n      tag_154\n      swap2\n      swap1\n      tag_106\n      jump\t// in\n    tag_154:\n        /* \"contracts/Market.sol\":2488:2521  address _pairAddr = pair.market() */\n      swap1\n      pop\n        /* \"contracts/Market.sol\":2531:2548  address _sideABet */\n      0x00\n        /* \"contracts/Market.sol\":2551:2555  pair */\n      dup3\n      sub(shl(0xa0, 0x01), 0x01)\n        /* \"contracts/Market.sol\":2551:2564  pair.sideABet */\n      and\n      0x15e894ab\n        /* \"contracts/Market.sol\":2551:2566  pair.sideABet() */\n      mload(0x40)\n      dup2\n      0xffffffff\n      and\n      0xe0\n      shl\n      dup2\n      mstore\n      0x04\n      add\n      0x20\n      mload(0x40)\n      dup1\n      dup4\n      sub\n      dup2\n      dup7\n      dup1\n      extcodesize\n      iszero\n      dup1\n      iszero\n      tag_155\n      jumpi\n      0x00\n      dup1\n      revert\n    tag_155:\n      pop\n      gas\n      staticcall\n      iszero\n      dup1\n      iszero\n      tag_157\n      jumpi\n      returndatasize\n      0x00\n      dup1\n      returndatacopy\n      revert(0x00, returndatasize)\n    tag_157:\n      pop\n      pop\n      pop\n      pop\n      mload(0x40)\n      returndatasize\n      not(0x1f)\n      0x1f\n      dup3\n      add\n      and\n      dup3\n      add\n      dup1\n      0x40\n      mstore\n      pop\n      dup2\n      add\n      swap1\n      tag_158\n      swap2\n      swap1\n      tag_106\n      jump\t// in\n    tag_158:\n        /* \"contracts/Market.sol\":2531:2566  address _sideABet = pair.sideABet() */\n      swap1\n      pop\n        /* \"contracts/Market.sol\":2576:2593  address _sideBBet */\n      0x00\n        /* \"contracts/Market.sol\":2596:2600  pair */\n      dup4\n      sub(shl(0xa0, 0x01), 0x01)\n        /* \"contracts/Market.sol\":2596:2609  pair.sideBBet */\n      and\n      0x0f765e6d\n        /* \"contracts/Market.sol\":2596:2611  pair.sideBBet() */\n      mload(0x40)\n      dup2\n      0xffffffff\n      and\n      0xe0\n      shl\n      dup2\n      mstore\n      0x04\n      add\n      0x20\n      mload(0x40)\n      dup1\n      dup4\n      sub\n      dup2\n      dup7\n      dup1\n      extcodesize\n      iszero\n      dup1\n      iszero\n      tag_159\n      jumpi\n      0x00\n      dup1\n      revert\n    tag_159:\n      pop\n      gas\n      staticcall\n      iszero\n      dup1\n      iszero\n      tag_161\n      jumpi\n      returndatasize\n      0x00\n      dup1\n      returndatacopy\n      revert(0x00, returndatasize)\n    tag_161:\n      pop\n      pop\n      pop\n      pop\n      mload(0x40)\n      returndatasize\n      not(0x1f)\n      0x1f\n      dup3\n      add\n      and\n      dup3\n      add\n      dup1\n      0x40\n      mstore\n      pop\n      dup2\n      add\n      swap1\n      tag_162\n      swap2\n      swap1\n      tag_106\n      jump\t// in\n    tag_162:\n        /* \"contracts/Market.sol\":2576:2611  address _sideBBet = pair.sideBBet() */\n      swap1\n      pop\n        /* \"contracts/Market.sol\":2621:2634  uint _amountA */\n      0x00\n        /* \"contracts/Market.sol\":2637:2641  pair */\n      dup5\n      sub(shl(0xa0, 0x01), 0x01)\n        /* \"contracts/Market.sol\":2637:2649  pair.amountA */\n      and\n      0x156dcbf0\n        /* \"contracts/Market.sol\":2637:2651  pair.amountA() */\n      mload(0x40)\n      dup2\n      0xffffffff\n      and\n      0xe0\n      shl\n      dup2\n      mstore\n      0x04\n      add\n      0x20\n      mload(0x40)\n      dup1\n      dup4\n      sub\n      dup2\n      dup7\n      dup1\n      extcodesize\n      iszero\n      dup1\n      iszero\n      tag_163\n      jumpi\n      0x00\n      dup1\n      revert\n    tag_163:\n      pop\n      gas\n      staticcall\n      iszero\n      dup1\n      iszero\n      tag_165\n      jumpi\n      returndatasize\n      0x00\n      dup1\n      returndatacopy\n      revert(0x00, returndatasize)\n    tag_165:\n      pop\n      pop\n      pop\n      pop\n      mload(0x40)\n      returndatasize\n      not(0x1f)\n      0x1f\n      dup3\n      add\n      and\n      dup3\n      add\n      dup1\n      0x40\n      mstore\n      pop\n      dup2\n      add\n      swap1\n      tag_166\n      swap2\n      swap1\n      tag_115\n      jump\t// in\n    tag_166:\n        /* \"contracts/Market.sol\":2621:2651  uint _amountA = pair.amountA() */\n      swap1\n      pop\n        /* \"contracts/Market.sol\":2661:2674  uint _amountB */\n      0x00\n        /* \"contracts/Market.sol\":2677:2681  pair */\n      dup6\n      sub(shl(0xa0, 0x01), 0x01)\n        /* \"contracts/Market.sol\":2677:2689  pair.amountB */\n      and\n      0x2efe91ef\n        /* \"contracts/Market.sol\":2677:2691  pair.amountB() */\n      mload(0x40)\n      dup2\n      0xffffffff\n      and\n      0xe0\n      shl\n      dup2\n      mstore\n      0x04\n      add\n      0x20\n      mload(0x40)\n      dup1\n      dup4\n      sub\n      dup2\n      dup7\n      dup1\n      extcodesize\n      iszero\n      dup1\n      iszero\n      tag_167\n      jumpi\n      0x00\n      dup1\n      revert\n    tag_167:\n      pop\n      gas\n      staticcall\n      iszero\n      dup1\n      iszero\n      tag_169\n      jumpi\n      returndatasize\n      0x00\n      dup1\n      returndatacopy\n      revert(0x00, returndatasize)\n    tag_169:\n      pop\n      pop\n      pop\n      pop\n      mload(0x40)\n      returndatasize\n      not(0x1f)\n      0x1f\n      dup3\n      add\n      and\n      dup3\n      add\n      dup1\n      0x40\n      mstore\n      pop\n      dup2\n      add\n      swap1\n      tag_170\n      swap2\n      swap1\n      tag_115\n      jump\t// in\n    tag_170:\n        /* \"contracts/Market.sol\":2661:2691  uint _amountB = pair.amountB() */\n      swap1\n      pop\n        /* \"contracts/Market.sol\":2701:2715  IMarket market */\n      0x00\n        /* \"contracts/Market.sol\":2726:2735  _pairAddr */\n      dup6\n        /* \"contracts/Market.sol\":2701:2736  IMarket market = IMarket(_pairAddr) */\n      swap1\n      pop\n        /* \"contracts/Market.sol\":2755:2759  pair */\n      dup7\n      sub(shl(0xa0, 0x01), 0x01)\n        /* \"contracts/Market.sol\":2755:2767  pair.settled */\n      and\n      0x8f775839\n        /* \"contracts/Market.sol\":2755:2769  pair.settled() */\n      mload(0x40)\n      dup2\n      0xffffffff\n      and\n      0xe0\n      shl\n      dup2\n      mstore\n      0x04\n      add\n      0x20\n      mload(0x40)\n      dup1\n      dup4\n      sub\n      dup2\n      dup7\n      dup1\n      extcodesize\n      iszero\n      dup1\n      iszero\n      tag_171\n      jumpi\n      0x00\n      dup1\n      revert\n    tag_171:\n      pop\n      gas\n      staticcall\n      iszero\n      dup1\n      iszero\n      tag_173\n      jumpi\n      returndatasize\n      0x00\n      dup1\n      returndatacopy\n      revert(0x00, returndatasize)\n    tag_173:\n      pop\n      pop\n      pop\n      pop\n      mload(0x40)\n      returndatasize\n      not(0x1f)\n      0x1f\n      dup3\n      add\n      and\n      dup3\n      add\n      dup1\n      0x40\n      mstore\n      pop\n      dup2\n      add\n      swap1\n      tag_174\n      swap2\n      swap1\n      tag_136\n      jump\t// in\n    tag_174:\n        /* \"contracts/Market.sol\":2754:2769  !pair.settled() */\n      iszero\n        /* \"contracts/Market.sol\":2746:2794  require(!pair.settled(), \"pair already settled\") */\n      tag_175\n      jumpi\n      mload(0x40)\n      shl(0xe5, 0x461bcd)\n      dup2\n      mstore\n        /* \"#utility.yul\":8649:8651   */\n      0x20\n        /* \"contracts/Market.sol\":2746:2794  require(!pair.settled(), \"pair already settled\") */\n      0x04\n      dup3\n      add\n        /* \"#utility.yul\":8631:8652   */\n      mstore\n        /* \"#utility.yul\":8688:8690   */\n      0x14\n        /* \"#utility.yul\":8668:8686   */\n      0x24\n      dup3\n      add\n        /* \"#utility.yul\":8661:8691   */\n      mstore\n      shl(0x62, 0x1c185a5c88185b1c9958591e481cd95d1d1b1959)\n        /* \"#utility.yul\":8707:8725   */\n      0x44\n      dup3\n      add\n        /* \"#utility.yul\":8700:8750   */\n      mstore\n        /* \"#utility.yul\":8767:8785   */\n      0x64\n      add\n        /* \"contracts/Market.sol\":2746:2794  require(!pair.settled(), \"pair already settled\") */\n      tag_108\n        /* \"#utility.yul\":8621:8791   */\n      jump\n        /* \"contracts/Market.sol\":2746:2794  require(!pair.settled(), \"pair already settled\") */\n    tag_175:\n        /* \"contracts/Market.sol\":2812:2818  market */\n      dup1\n      sub(shl(0xa0, 0x01), 0x01)\n        /* \"contracts/Market.sol\":2812:2836  market.hasSetWinningSide */\n      and\n      0xbd92630c\n        /* \"contracts/Market.sol\":2812:2838  market.hasSetWinningSide() */\n      mload(0x40)\n      dup2\n      0xffffffff\n      and\n      0xe0\n      shl\n      dup2\n      mstore\n      0x04\n      add\n      0x20\n      mload(0x40)\n      dup1\n      dup4\n      sub\n      dup2\n      dup7\n      dup1\n      extcodesize\n      iszero\n      dup1\n      iszero\n      tag_178\n      jumpi\n      0x00\n      dup1\n      revert\n    tag_178:\n      pop\n      gas\n      staticcall\n      iszero\n      dup1\n      iszero\n      tag_180\n      jumpi\n      returndatasize\n      0x00\n      dup1\n      returndatacopy\n      revert(0x00, returndatasize)\n    tag_180:\n      pop\n      pop\n      pop\n      pop\n      mload(0x40)\n      returndatasize\n      not(0x1f)\n      0x1f\n      dup3\n      add\n      and\n      dup3\n      add\n      dup1\n      0x40\n      mstore\n      pop\n      dup2\n      add\n      swap1\n      tag_181\n      swap2\n      swap1\n      tag_136\n      jump\t// in\n    tag_181:\n        /* \"contracts/Market.sol\":2804:2846  require(market.hasSetWinningSide(), \"win\") */\n      tag_182\n      jumpi\n      mload(0x40)\n      shl(0xe5, 0x461bcd)\n      dup2\n      mstore\n        /* \"#utility.yul\":8318:8320   */\n      0x20\n        /* \"contracts/Market.sol\":2804:2846  require(market.hasSetWinningSide(), \"win\") */\n      0x04\n      dup3\n      add\n        /* \"#utility.yul\":8300:8321   */\n      mstore\n        /* \"#utility.yul\":8357:8358   */\n      0x03\n        /* \"#utility.yul\":8337:8355   */\n      0x24\n      dup3\n      add\n        /* \"#utility.yul\":8330:8359   */\n      mstore\n      shl(0xe9, 0x3bb4b7)\n        /* \"#utility.yul\":8375:8393   */\n      0x44\n      dup3\n      add\n        /* \"#utility.yul\":8368:8401   */\n      mstore\n        /* \"#utility.yul\":8418:8436   */\n      0x64\n      add\n        /* \"contracts/Market.sol\":2804:2846  require(market.hasSetWinningSide(), \"win\") */\n      tag_108\n        /* \"#utility.yul\":8290:8442   */\n      jump\n        /* \"contracts/Market.sol\":2804:2846  require(market.hasSetWinningSide(), \"win\") */\n    tag_182:\n        /* \"contracts/Market.sol\":2922:2947  abi.encodePacked(\"sideA\") */\n      mload(0x40)\n      shl(0xd8, 0x7369646541)\n      0x20\n      dup3\n      add\n        /* \"#utility.yul\":5173:5193   */\n      mstore\n        /* \"#utility.yul\":5209:5220   */\n      0x25\n      add\n        /* \"contracts/Market.sol\":2922:2947  abi.encodePacked(\"sideA\") */\n      mload(0x40)\n      0x20\n      dup2\n      dup4\n      sub\n      sub\n      dup2\n      mstore\n      swap1\n      0x40\n      mstore\n        /* \"contracts/Market.sol\":2912:2948  keccak256(abi.encodePacked(\"sideA\")) */\n      dup1\n      mload\n      swap1\n      0x20\n      add\n      keccak256\n        /* \"contracts/Market.sol\":2886:2892  market */\n      dup2\n      sub(shl(0xa0, 0x01), 0x01)\n        /* \"contracts/Market.sol\":2886:2904  market.winningSide */\n      and\n      0xfbf06338\n        /* \"contracts/Market.sol\":2886:2906  market.winningSide() */\n      mload(0x40)\n      dup2\n      0xffffffff\n      and\n      0xe0\n      shl\n      dup2\n      mstore\n      0x04\n      add\n      0x00\n      mload(0x40)\n      dup1\n      dup4\n      sub\n      dup2\n      dup7\n      dup1\n      extcodesize\n      iszero\n      dup1\n      iszero\n      tag_187\n      jumpi\n      0x00\n      dup1\n      revert\n    tag_187:\n      pop\n      gas\n      staticcall\n      iszero\n      dup1\n      iszero\n      tag_189\n      jumpi\n      returndatasize\n      0x00\n      dup1\n      returndatacopy\n      revert(0x00, returndatasize)\n    tag_189:\n      pop\n      pop\n      pop\n      pop\n      mload(0x40)\n      returndatasize\n      0x00\n      dup3\n      returndatacopy\n      0x1f\n      returndatasize\n      swap1\n      dup2\n      add\n      not(0x1f)\n      and\n      dup3\n      add\n      0x40\n      mstore\n      tag_190\n      swap2\n      swap1\n      dup2\n      add\n      swap1\n      tag_191\n      jump\t// in\n    tag_190:\n        /* \"contracts/Market.sol\":2869:2907  abi.encodePacked(market.winningSide()) */\n      add(0x20, mload(0x40))\n      tag_192\n      swap2\n      swap1\n      tag_445\n      jump\t// in\n    tag_192:\n      mload(0x40)\n      0x20\n      dup2\n      dup4\n      sub\n      sub\n      dup2\n      mstore\n      swap1\n      0x40\n      mstore\n        /* \"contracts/Market.sol\":2859:2908  keccak256(abi.encodePacked(market.winningSide())) */\n      dup1\n      mload\n      swap1\n      0x20\n      add\n      keccak256\n        /* \"contracts/Market.sol\":2859:2948  keccak256(abi.encodePacked(market.winningSide())) == keccak256(abi.encodePacked(\"sideA\")) */\n      eq\n        /* \"contracts/Market.sol\":2856:3455  if(keccak256(abi.encodePacked(market.winningSide())) == keccak256(abi.encodePacked(\"sideA\"))){... */\n      iszero\n      tag_194\n      jumpi\n        /* \"contracts/Market.sol\":2955:3030  _stableCoinWrapper.safeTransfer(_sideABet, _amountA + (_amountB * 9 / 10) ) */\n      tag_195\n        /* \"contracts/Market.sol\":2987:2996  _sideABet */\n      dup6\n        /* \"contracts/Market.sol\":3025:3027  10 */\n      0x0a\n        /* \"contracts/Market.sol\":3010:3022  _amountB * 9 */\n      tag_196\n        /* \"contracts/Market.sol\":3010:3018  _amountB */\n      dup6\n        /* \"contracts/Market.sol\":3021:3022  9 */\n      0x09\n        /* \"contracts/Market.sol\":3010:3022  _amountB * 9 */\n      tag_197\n      jump\t// in\n    tag_196:\n        /* \"contracts/Market.sol\":3010:3027  _amountB * 9 / 10 */\n      tag_198\n      swap2\n      swap1\n      tag_199\n      jump\t// in\n    tag_198:\n        /* \"contracts/Market.sol\":2998:3028  _amountA + (_amountB * 9 / 10) */\n      tag_200\n      swap1\n        /* \"contracts/Market.sol\":2998:3006  _amountA */\n      dup7\n        /* \"contracts/Market.sol\":2998:3028  _amountA + (_amountB * 9 / 10) */\n      tag_201\n      jump\t// in\n    tag_200:\n        /* \"contracts/Market.sol\":2955:2973  _stableCoinWrapper */\n      and(sub(shl(0xa0, 0x01), 0x01), sload(0x11))\n      swap2\n        /* \"contracts/Market.sol\":2955:3030  _stableCoinWrapper.safeTransfer(_sideABet, _amountA + (_amountB * 9 / 10) ) */\n      swap1\n        /* \"contracts/Market.sol\":2955:2986  _stableCoinWrapper.safeTransfer */\n      tag_130\n        /* \"contracts/Market.sol\":2955:3030  _stableCoinWrapper.safeTransfer(_sideABet, _amountA + (_amountB * 9 / 10) ) */\n      jump\t// in\n    tag_195:\n        /* \"contracts/Market.sol\":3076:3091  web3betsAddress */\n      sload(0x00)\n        /* \"contracts/Market.sol\":3044:3107  _stableCoinWrapper.safeTransfer(web3betsAddress, _amountB / 10) */\n      tag_202\n      swap1\n      sub(shl(0xa0, 0x01), 0x01)\n        /* \"contracts/Market.sol\":3076:3091  web3betsAddress */\n      and\n        /* \"contracts/Market.sol\":3093:3106  _amountB / 10 */\n      tag_200\n        /* \"contracts/Market.sol\":3104:3106  10 */\n      0x0a\n        /* \"contracts/Market.sol\":3093:3101  _amountB */\n      dup6\n        /* \"contracts/Market.sol\":3093:3106  _amountB / 10 */\n      tag_199\n      jump\t// in\n        /* \"contracts/Market.sol\":3044:3107  _stableCoinWrapper.safeTransfer(web3betsAddress, _amountB / 10) */\n    tag_202:\n        /* \"contracts/Market.sol\":2856:3455  if(keccak256(abi.encodePacked(market.winningSide())) == keccak256(abi.encodePacked(\"sideA\"))){... */\n      jump(tag_219)\n    tag_194:\n        /* \"contracts/Market.sol\":3198:3223  abi.encodePacked(\"sideB\") */\n      mload(0x40)\n      shl(0xd9, 0x39b4b232a1)\n      0x20\n      dup3\n      add\n        /* \"#utility.yul\":5433:5453   */\n      mstore\n        /* \"#utility.yul\":5469:5480   */\n      0x25\n      add\n        /* \"contracts/Market.sol\":3198:3223  abi.encodePacked(\"sideB\") */\n      mload(0x40)\n      0x20\n      dup2\n      dup4\n      sub\n      sub\n      dup2\n      mstore\n      swap1\n      0x40\n      mstore\n        /* \"contracts/Market.sol\":3188:3224  keccak256(abi.encodePacked(\"sideB\")) */\n      dup1\n      mload\n      swap1\n      0x20\n      add\n      keccak256\n        /* \"contracts/Market.sol\":3162:3168  market */\n      dup2\n      sub(shl(0xa0, 0x01), 0x01)\n        /* \"contracts/Market.sol\":3162:3180  market.winningSide */\n      and\n      0xfbf06338\n        /* \"contracts/Market.sol\":3162:3182  market.winningSide() */\n      mload(0x40)\n      dup2\n      0xffffffff\n      and\n      0xe0\n      shl\n      dup2\n      mstore\n      0x04\n      add\n      0x00\n      mload(0x40)\n      dup1\n      dup4\n      sub\n      dup2\n      dup7\n      dup1\n      extcodesize\n      iszero\n      dup1\n      iszero\n      tag_207\n      jumpi\n      0x00\n      dup1\n      revert\n    tag_207:\n      pop\n      gas\n      staticcall\n      iszero\n      dup1\n      iszero\n      tag_209\n      jumpi\n      returndatasize\n      0x00\n      dup1\n      returndatacopy\n      revert(0x00, returndatasize)\n    tag_209:\n      pop\n      pop\n      pop\n      pop\n      mload(0x40)\n      returndatasize\n      0x00\n      dup3\n      returndatacopy\n      0x1f\n      returndatasize\n      swap1\n      dup2\n      add\n      not(0x1f)\n      and\n      dup3\n      add\n      0x40\n      mstore\n      tag_210\n      swap2\n      swap1\n      dup2\n      add\n      swap1\n      tag_191\n      jump\t// in\n    tag_210:\n        /* \"contracts/Market.sol\":3145:3183  abi.encodePacked(market.winningSide()) */\n      add(0x20, mload(0x40))\n      tag_211\n      swap2\n      swap1\n      tag_445\n      jump\t// in\n    tag_211:\n      mload(0x40)\n      0x20\n      dup2\n      dup4\n      sub\n      sub\n      dup2\n      mstore\n      swap1\n      0x40\n      mstore\n        /* \"contracts/Market.sol\":3135:3184  keccak256(abi.encodePacked(market.winningSide())) */\n      dup1\n      mload\n      swap1\n      0x20\n      add\n      keccak256\n        /* \"contracts/Market.sol\":3135:3224  keccak256(abi.encodePacked(market.winningSide())) == keccak256(abi.encodePacked(\"sideB\")) */\n      eq\n        /* \"contracts/Market.sol\":3132:3455  if(keccak256(abi.encodePacked(market.winningSide())) == keccak256(abi.encodePacked(\"sideB\"))){... */\n      iszero\n      tag_212\n      jumpi\n        /* \"contracts/Market.sol\":3239:3314  _stableCoinWrapper.safeTransfer(_sideBBet, _amountB + (_amountA * 9 / 10) ) */\n      tag_213\n        /* \"contracts/Market.sol\":3271:3280  _sideBBet */\n      dup5\n        /* \"contracts/Market.sol\":3309:3311  10 */\n      0x0a\n        /* \"contracts/Market.sol\":3294:3306  _amountA * 9 */\n      tag_214\n        /* \"contracts/Market.sol\":3294:3302  _amountA */\n      dup7\n        /* \"contracts/Market.sol\":3305:3306  9 */\n      0x09\n        /* \"contracts/Market.sol\":3294:3306  _amountA * 9 */\n      tag_197\n      jump\t// in\n    tag_214:\n        /* \"contracts/Market.sol\":3294:3311  _amountA * 9 / 10 */\n      tag_215\n      swap2\n      swap1\n      tag_199\n      jump\t// in\n    tag_215:\n        /* \"contracts/Market.sol\":3282:3312  _amountB + (_amountA * 9 / 10) */\n      tag_200\n      swap1\n        /* \"contracts/Market.sol\":3282:3290  _amountB */\n      dup6\n        /* \"contracts/Market.sol\":3282:3312  _amountB + (_amountA * 9 / 10) */\n      tag_201\n      jump\t// in\n        /* \"contracts/Market.sol\":3239:3314  _stableCoinWrapper.safeTransfer(_sideBBet, _amountB + (_amountA * 9 / 10) ) */\n    tag_213:\n        /* \"contracts/Market.sol\":3360:3375  web3betsAddress */\n      sload(0x00)\n        /* \"contracts/Market.sol\":3328:3391  _stableCoinWrapper.safeTransfer(web3betsAddress, _amountA / 10) */\n      tag_202\n      swap1\n      sub(shl(0xa0, 0x01), 0x01)\n        /* \"contracts/Market.sol\":3360:3375  web3betsAddress */\n      and\n        /* \"contracts/Market.sol\":3377:3390  _amountA / 10 */\n      tag_200\n        /* \"contracts/Market.sol\":3388:3390  10 */\n      0x0a\n        /* \"contracts/Market.sol\":3377:3385  _amountA */\n      dup7\n        /* \"contracts/Market.sol\":3377:3390  _amountA / 10 */\n      tag_199\n      jump\t// in\n        /* \"contracts/Market.sol\":3132:3455  if(keccak256(abi.encodePacked(market.winningSide())) == keccak256(abi.encodePacked(\"sideB\"))){... */\n    tag_212:\n        /* \"contracts/Market.sol\":3429:3444  revert(\"x win\") */\n      mload(0x40)\n      shl(0xe5, 0x461bcd)\n      dup2\n      mstore\n        /* \"#utility.yul\":9405:9407   */\n      0x20\n        /* \"contracts/Market.sol\":3429:3444  revert(\"x win\") */\n      0x04\n      dup3\n      add\n        /* \"#utility.yul\":9387:9408   */\n      mstore\n        /* \"#utility.yul\":9444:9445   */\n      0x05\n        /* \"#utility.yul\":9424:9442   */\n      0x24\n      dup3\n      add\n        /* \"#utility.yul\":9417:9446   */\n      mstore\n      shl(0xd9, 0x3c103bb4b7)\n        /* \"#utility.yul\":9462:9480   */\n      0x44\n      dup3\n      add\n        /* \"#utility.yul\":9455:9490   */\n      mstore\n        /* \"#utility.yul\":9507:9525   */\n      0x64\n      add\n        /* \"contracts/Market.sol\":3429:3444  revert(\"x win\") */\n      tag_108\n        /* \"#utility.yul\":9377:9531   */\n      jump\n        /* \"contracts/Market.sol\":3132:3455  if(keccak256(abi.encodePacked(market.winningSide())) == keccak256(abi.encodePacked(\"sideB\"))){... */\n    tag_219:\n      pop\n        /* \"contracts/Market.sol\":3471:3475  true */\n      0x01\n      swap9\n        /* \"contracts/Market.sol\":2358:3482  function settlePair(address _pair) external override onlyFactory returns(bool) {... */\n      swap8\n      pop\n      pop\n      pop\n      pop\n      pop\n      pop\n      pop\n      pop\n      jump\t// out\n        /* \"contracts/Market.sol\":4051:4241  function cancelMarket() external override onlyFactory returns(bool) ... */\n    tag_55:\n        /* \"contracts/Market.sol\":1413:1421  web3bets */\n      sload(0x0f)\n        /* \"contracts/Market.sol\":1413:1437  web3bets.marketFactory() */\n      0x40\n      dup1\n      mload\n      shl(0xe0, 0x06ae7095)\n      dup2\n      mstore\n      swap1\n      mload\n        /* \"contracts/Market.sol\":4113:4117  bool */\n      0x00\n      swap3\n      sub(shl(0xa0, 0x01), 0x01)\n        /* \"contracts/Market.sol\":1413:1421  web3bets */\n      and\n      swap2\n        /* \"contracts/Market.sol\":1413:1435  web3bets.marketFactory */\n      0x06ae7095\n      swap2\n        /* \"contracts/Market.sol\":1413:1437  web3bets.marketFactory() */\n      0x04\n      dup1\n      dup4\n      add\n      swap3\n      0x20\n      swap3\n      swap2\n      swap1\n      dup3\n      swap1\n      sub\n      add\n      dup2\n        /* \"contracts/Market.sol\":1413:1421  web3bets */\n      dup7\n        /* \"contracts/Market.sol\":1413:1437  web3bets.marketFactory() */\n      dup1\n      extcodesize\n      iszero\n      dup1\n      iszero\n      tag_223\n      jumpi\n      0x00\n      dup1\n      revert\n    tag_223:\n      pop\n      gas\n      staticcall\n      iszero\n      dup1\n      iszero\n      tag_225\n      jumpi\n      returndatasize\n      0x00\n      dup1\n      returndatacopy\n      revert(0x00, returndatasize)\n    tag_225:\n      pop\n      pop\n      pop\n      pop\n      mload(0x40)\n      returndatasize\n      not(0x1f)\n      0x1f\n      dup3\n      add\n      and\n      dup3\n      add\n      dup1\n      0x40\n      mstore\n      pop\n      dup2\n      add\n      swap1\n      tag_226\n      swap2\n      swap1\n      tag_106\n      jump\t// in\n    tag_226:\n      sub(shl(0xa0, 0x01), 0x01)\n        /* \"contracts/Market.sol\":1399:1437  msg.sender == web3bets.marketFactory() */\n      and\n        /* \"contracts/Market.sol\":1399:1409  msg.sender */\n      caller\n      sub(shl(0xa0, 0x01), 0x01)\n        /* \"contracts/Market.sol\":1399:1437  msg.sender == web3bets.marketFactory() */\n      and\n      eq\n        /* \"contracts/Market.sol\":1378:1470  require(... */\n      tag_227\n      jumpi\n      mload(0x40)\n      shl(0xe5, 0x461bcd)\n      dup2\n      mstore\n      0x04\n      add\n      tag_108\n      swap1\n      tag_109\n      jump\t// in\n    tag_227:\n        /* \"contracts/Market.sol\":4139:4149  isCanceled */\n      and(0xff, sload(0x04))\n        /* \"contracts/Market.sol\":4135:4187  if (isCanceled) {... */\n      iszero\n      tag_230\n      jumpi\n      pop\n        /* \"contracts/Market.sol\":4172:4176  true */\n      0x01\n        /* \"contracts/Market.sol\":4051:4241  function cancelMarket() external override onlyFactory returns(bool) ... */\n      swap1\n      jump\t// out\n        /* \"contracts/Market.sol\":4135:4187  if (isCanceled) {... */\n    tag_230:\n      pop\n        /* \"contracts/Market.sol\":4196:4206  isCanceled */\n      0x04\n        /* \"contracts/Market.sol\":4196:4213  isCanceled = true */\n      dup1\n      sload\n      not(0xff)\n      and\n        /* \"contracts/Market.sol\":4209:4213  true */\n      0x01\n        /* \"contracts/Market.sol\":4196:4213  isCanceled = true */\n      swap1\n      dup2\n      or\n      swap1\n      swap2\n      sstore\n        /* \"contracts/Market.sol\":4051:4241  function cancelMarket() external override onlyFactory returns(bool) ... */\n      swap1\n      jump\t// out\n        /* \"contracts/Market.sol\":3771:4045  function upadteMarket( string memory name_, string memory sideAName_, string memory sideBName_)... */\n    tag_60:\n        /* \"contracts/Market.sol\":1413:1421  web3bets */\n      sload(0x0f)\n        /* \"contracts/Market.sol\":1413:1437  web3bets.marketFactory() */\n      0x40\n      dup1\n      mload\n      shl(0xe0, 0x06ae7095)\n      dup2\n      mstore\n      swap1\n      mload\n        /* \"contracts/Market.sol\":3921:3925  bool */\n      0x00\n      swap3\n      sub(shl(0xa0, 0x01), 0x01)\n        /* \"contracts/Market.sol\":1413:1421  web3bets */\n      and\n      swap2\n        /* \"contracts/Market.sol\":1413:1435  web3bets.marketFactory */\n      0x06ae7095\n      swap2\n        /* \"contracts/Market.sol\":1413:1437  web3bets.marketFactory() */\n      0x04\n      dup1\n      dup4\n      add\n      swap3\n      0x20\n      swap3\n      swap2\n      swap1\n      dup3\n      swap1\n      sub\n      add\n      dup2\n        /* \"contracts/Market.sol\":1413:1421  web3bets */\n      dup7\n        /* \"contracts/Market.sol\":1413:1437  web3bets.marketFactory() */\n      dup1\n      extcodesize\n      iszero\n      dup1\n      iszero\n      tag_232\n      jumpi\n      0x00\n      dup1\n      revert\n    tag_232:\n      pop\n      gas\n      staticcall\n      iszero\n      dup1\n      iszero\n      tag_234\n      jumpi\n      returndatasize\n      0x00\n      dup1\n      returndatacopy\n      revert(0x00, returndatasize)\n    tag_234:\n      pop\n      pop\n      pop\n      pop\n      mload(0x40)\n      returndatasize\n      not(0x1f)\n      0x1f\n      dup3\n      add\n      and\n      dup3\n      add\n      dup1\n      0x40\n      mstore\n      pop\n      dup2\n      add\n      swap1\n      tag_235\n      swap2\n      swap1\n      tag_106\n      jump\t// in\n    tag_235:\n      sub(shl(0xa0, 0x01), 0x01)\n        /* \"contracts/Market.sol\":1399:1437  msg.sender == web3bets.marketFactory() */\n      and\n        /* \"contracts/Market.sol\":1399:1409  msg.sender */\n      caller\n      sub(shl(0xa0, 0x01), 0x01)\n        /* \"contracts/Market.sol\":1399:1437  msg.sender == web3bets.marketFactory() */\n      and\n      eq\n        /* \"contracts/Market.sol\":1378:1470  require(... */\n      tag_236\n      jumpi\n      mload(0x40)\n      shl(0xe5, 0x461bcd)\n      dup2\n      mstore\n      0x04\n      add\n      tag_108\n      swap1\n      tag_109\n      jump\t// in\n    tag_236:\n        /* \"contracts/Market.sol\":3941:3953  name = name_ */\n      dup4\n      mload\n      tag_239\n      swap1\n        /* \"contracts/Market.sol\":3941:3945  name */\n      0x01\n      swap1\n        /* \"contracts/Market.sol\":3941:3953  name = name_ */\n      0x20\n      dup8\n      add\n      swap1\n      tag_240\n      jump\t// in\n    tag_239:\n      pop\n        /* \"contracts/Market.sol\":3963:3985  sideAName = sideAName_ */\n      dup3\n      mload\n      tag_241\n      swap1\n        /* \"contracts/Market.sol\":3963:3972  sideAName */\n      0x05\n      swap1\n        /* \"contracts/Market.sol\":3963:3985  sideAName = sideAName_ */\n      0x20\n      dup7\n      add\n      swap1\n      tag_240\n      jump\t// in\n    tag_241:\n      pop\n        /* \"contracts/Market.sol\":3995:4017  sideBName = sideBName_ */\n      dup2\n      mload\n      tag_242\n      swap1\n        /* \"contracts/Market.sol\":3995:4004  sideBName */\n      0x07\n      swap1\n        /* \"contracts/Market.sol\":3995:4017  sideBName = sideBName_ */\n      0x20\n      dup6\n      add\n      swap1\n      tag_240\n      jump\t// in\n    tag_242:\n      pop\n        /* \"contracts/Market.sol\":4034:4038  true */\n      0x01\n        /* \"contracts/Market.sol\":4027:4038  return true */\n      swap1\n      pop\n        /* \"contracts/Market.sol\":1480:1481  _ */\n    tag_238:\n        /* \"contracts/Market.sol\":3771:4045  function upadteMarket( string memory name_, string memory sideAName_, string memory sideBName_)... */\n      swap4\n      swap3\n      pop\n      pop\n      pop\n      jump\t// out\n        /* \"contracts/Market.sol\":618:650  string public override sideAName */\n    tag_63:\n      0x05\n      dup1\n      sload\n      tag_137\n      swap1\n      tag_138\n      jump\t// in\n        /* \"contracts/Market.sol\":893:921  MarketBet[] public sideABets */\n    tag_68:\n      0x09\n      dup2\n      dup2\n      sload\n      dup2\n      lt\n      tag_248\n      jumpi\n      0x00\n      dup1\n      revert\n    tag_248:\n      0x00\n      swap2\n      dup3\n      mstore\n      0x20\n      swap1\n      swap2\n      keccak256\n      0x03\n      swap1\n      swap2\n      mul\n      add\n      dup1\n      sload\n      0x01\n      dup3\n      add\n      sload\n      0x02\n      swap1\n      swap3\n      add\n      sload\n      sub(shl(0xa0, 0x01), 0x01)\n      swap1\n      swap2\n      and\n      swap3\n      pop\n      0xff\n      and\n      dup4\n      jump\t// out\n        /* \"contracts/Market.sol\":4248:4877  function addBet(address _better, address _betAddress, uint256 _stake, uint8 _odds, string memory _side)... */\n    tag_74:\n        /* \"contracts/Market.sol\":1565:1573  web3bets */\n      sload(0x0f)\n        /* \"contracts/Market.sol\":1565:1586  web3bets.betFactory() */\n      0x40\n      dup1\n      mload\n      shl(0xe3, 0x05c352c3)\n      dup2\n      mstore\n      swap1\n      mload\n        /* \"contracts/Market.sol\":4401:4405  bool */\n      0x00\n      swap3\n      sub(shl(0xa0, 0x01), 0x01)\n        /* \"contracts/Market.sol\":1565:1573  web3bets */\n      and\n      swap2\n        /* \"contracts/Market.sol\":1565:1584  web3bets.betFactory */\n      0x2e1a9618\n      swap2\n        /* \"contracts/Market.sol\":1565:1586  web3bets.betFactory() */\n      0x04\n      dup1\n      dup4\n      add\n      swap3\n      0x20\n      swap3\n      swap2\n      swap1\n      dup3\n      swap1\n      sub\n      add\n      dup2\n        /* \"contracts/Market.sol\":1565:1573  web3bets */\n      dup7\n        /* \"contracts/Market.sol\":1565:1586  web3bets.betFactory() */\n      dup1\n      extcodesize\n      iszero\n      dup1\n      iszero\n      tag_251\n      jumpi\n      0x00\n      dup1\n      revert\n    tag_251:\n      pop\n      gas\n      staticcall\n      iszero\n      dup1\n      iszero\n      tag_253\n      jumpi\n      returndatasize\n      0x00\n      dup1\n      returndatacopy\n      revert(0x00, returndatasize)\n    tag_253:\n      pop\n      pop\n      pop\n      pop\n      mload(0x40)\n      returndatasize\n      not(0x1f)\n      0x1f\n      dup3\n      add\n      and\n      dup3\n      add\n      dup1\n      0x40\n      mstore\n      pop\n      dup2\n      add\n      swap1\n      tag_254\n      swap2\n      swap1\n      tag_106\n      jump\t// in\n    tag_254:\n      sub(shl(0xa0, 0x01), 0x01)\n        /* \"contracts/Market.sol\":1551:1586  msg.sender == web3bets.betFactory() */\n      and\n        /* \"contracts/Market.sol\":1551:1561  msg.sender */\n      caller\n      sub(shl(0xa0, 0x01), 0x01)\n        /* \"contracts/Market.sol\":1551:1586  msg.sender == web3bets.betFactory() */\n      and\n      eq\n        /* \"contracts/Market.sol\":1530:1619  require(... */\n      tag_255\n      jumpi\n      mload(0x40)\n      shl(0xe5, 0x461bcd)\n      dup2\n      mstore\n      0x04\n      add\n      tag_108\n      swap1\n      tag_109\n      jump\t// in\n    tag_255:\n        /* \"contracts/Market.sol\":4475:4500  abi.encodePacked(\"sideA\") */\n      mload(0x40)\n      shl(0xd8, 0x7369646541)\n      0x20\n      dup3\n      add\n        /* \"#utility.yul\":5173:5193   */\n      mstore\n        /* \"#utility.yul\":5209:5220   */\n      0x25\n      add\n        /* \"contracts/Market.sol\":4475:4500  abi.encodePacked(\"sideA\") */\n      mload(0x40)\n      0x20\n      dup2\n      dup4\n      sub\n      sub\n      dup2\n      mstore\n      swap1\n      0x40\n      mstore\n        /* \"contracts/Market.sol\":4465:4501  keccak256(abi.encodePacked(\"sideA\")) */\n      dup1\n      mload\n      swap1\n      0x20\n      add\n      keccak256\n        /* \"contracts/Market.sol\":4454:4459  _side */\n      dup3\n        /* \"contracts/Market.sol\":4437:4460  abi.encodePacked(_side) */\n      add(0x20, mload(0x40))\n      tag_259\n      swap2\n      swap1\n      tag_445\n      jump\t// in\n    tag_259:\n      mload(0x40)\n      0x20\n      dup2\n      dup4\n      sub\n      sub\n      dup2\n      mstore\n      swap1\n      0x40\n      mstore\n        /* \"contracts/Market.sol\":4427:4461  keccak256(abi.encodePacked(_side)) */\n      dup1\n      mload\n      swap1\n      0x20\n      add\n      keccak256\n        /* \"contracts/Market.sol\":4427:4501  keccak256(abi.encodePacked(_side)) == keccak256(abi.encodePacked(\"sideA\")) */\n      eq\n        /* \"contracts/Market.sol\":4424:4850  if(keccak256(abi.encodePacked(_side)) == keccak256(abi.encodePacked(\"sideA\"))){... */\n      iszero\n      tag_260\n      jumpi\n        /* \"contracts/Market.sol\":4516:4564  _addToSideA(_better, _betAddress, _stake, _odds) */\n      tag_261\n        /* \"contracts/Market.sol\":4528:4535  _better */\n      dup7\n        /* \"contracts/Market.sol\":4537:4548  _betAddress */\n      dup7\n        /* \"contracts/Market.sol\":4550:4556  _stake */\n      dup7\n        /* \"contracts/Market.sol\":4558:4563  _odds */\n      dup7\n        /* \"contracts/Market.sol\":4516:4527  _addToSideA */\n      tag_262\n        /* \"contracts/Market.sol\":4516:4564  _addToSideA(_better, _betAddress, _stake, _odds) */\n      jump\t// in\n    tag_261:\n        /* \"contracts/Market.sol\":4578:4618  _matchSideABet(_betAddress,_stake,_odds) */\n      tag_263\n        /* \"contracts/Market.sol\":4593:4604  _betAddress */\n      dup6\n        /* \"contracts/Market.sol\":4605:4611  _stake */\n      dup6\n        /* \"contracts/Market.sol\":4612:4617  _odds */\n      dup6\n        /* \"contracts/Market.sol\":4578:4592  _matchSideABet */\n      tag_264\n        /* \"contracts/Market.sol\":4578:4618  _matchSideABet(_betAddress,_stake,_odds) */\n      jump\t// in\n    tag_263:\n        /* \"contracts/Market.sol\":4424:4850  if(keccak256(abi.encodePacked(_side)) == keccak256(abi.encodePacked(\"sideA\"))){... */\n      jump(tag_271)\n    tag_260:\n        /* \"contracts/Market.sol\":4695:4720  abi.encodePacked(\"sideB\") */\n      mload(0x40)\n      shl(0xd9, 0x39b4b232a1)\n      0x20\n      dup3\n      add\n        /* \"#utility.yul\":5433:5453   */\n      mstore\n        /* \"#utility.yul\":5469:5480   */\n      0x25\n      add\n        /* \"contracts/Market.sol\":4695:4720  abi.encodePacked(\"sideB\") */\n      mload(0x40)\n      0x20\n      dup2\n      dup4\n      sub\n      sub\n      dup2\n      mstore\n      swap1\n      0x40\n      mstore\n        /* \"contracts/Market.sol\":4685:4721  keccak256(abi.encodePacked(\"sideB\")) */\n      dup1\n      mload\n      swap1\n      0x20\n      add\n      keccak256\n        /* \"contracts/Market.sol\":4674:4679  _side */\n      dup3\n        /* \"contracts/Market.sol\":4657:4680  abi.encodePacked(_side) */\n      add(0x20, mload(0x40))\n      tag_267\n      swap2\n      swap1\n      tag_445\n      jump\t// in\n    tag_267:\n      mload(0x40)\n      0x20\n      dup2\n      dup4\n      sub\n      sub\n      dup2\n      mstore\n      swap1\n      0x40\n      mstore\n        /* \"contracts/Market.sol\":4647:4681  keccak256(abi.encodePacked(_side)) */\n      dup1\n      mload\n      swap1\n      0x20\n      add\n      keccak256\n        /* \"contracts/Market.sol\":4647:4721  keccak256(abi.encodePacked(_side)) == keccak256(abi.encodePacked(\"sideB\")) */\n      eq\n        /* \"contracts/Market.sol\":4643:4850  if (keccak256(abi.encodePacked(_side)) == keccak256(abi.encodePacked(\"sideB\"))) {... */\n      iszero\n      tag_271\n      jumpi\n        /* \"contracts/Market.sol\":4737:4785  _addToSideB(_better, _betAddress, _stake, _odds) */\n      tag_269\n        /* \"contracts/Market.sol\":4749:4756  _better */\n      dup7\n        /* \"contracts/Market.sol\":4758:4769  _betAddress */\n      dup7\n        /* \"contracts/Market.sol\":4771:4777  _stake */\n      dup7\n        /* \"contracts/Market.sol\":4779:4784  _odds */\n      dup7\n        /* \"contracts/Market.sol\":4737:4748  _addToSideB */\n      tag_270\n        /* \"contracts/Market.sol\":4737:4785  _addToSideB(_better, _betAddress, _stake, _odds) */\n      jump\t// in\n    tag_269:\n        /* \"contracts/Market.sol\":4799:4839  _matchSideBBet(_betAddress,_stake,_odds) */\n      tag_271\n        /* \"contracts/Market.sol\":4814:4825  _betAddress */\n      dup6\n        /* \"contracts/Market.sol\":4826:4832  _stake */\n      dup6\n        /* \"contracts/Market.sol\":4833:4838  _odds */\n      dup6\n        /* \"contracts/Market.sol\":4799:4813  _matchSideBBet */\n      tag_272\n        /* \"contracts/Market.sol\":4799:4839  _matchSideBBet(_betAddress,_stake,_odds) */\n      jump\t// in\n    tag_271:\n      pop\n        /* \"contracts/Market.sol\":4866:4870  true */\n      0x01\n        /* \"contracts/Market.sol\":4248:4877  function addBet(address _better, address _betAddress, uint256 _stake, uint8 _odds, string memory _side)... */\n      swap6\n      swap5\n      pop\n      pop\n      pop\n      pop\n      pop\n      jump\t// out\n        /* \"contracts/Market.sol\":705:737  string public override sideBName */\n    tag_77:\n      0x07\n      dup1\n      sload\n      tag_137\n      swap1\n      tag_138\n      jump\t// in\n        /* \"contracts/Market.sol\":3488:3765  function setWinningSide(string memory _winningSide)... */\n    tag_82:\n        /* \"contracts/Market.sol\":1413:1421  web3bets */\n      sload(0x0f)\n        /* \"contracts/Market.sol\":1413:1437  web3bets.marketFactory() */\n      0x40\n      dup1\n      mload\n      shl(0xe0, 0x06ae7095)\n      dup2\n      mstore\n      swap1\n      mload\n        /* \"contracts/Market.sol\":3602:3606  bool */\n      0x00\n      swap3\n      sub(shl(0xa0, 0x01), 0x01)\n        /* \"contracts/Market.sol\":1413:1421  web3bets */\n      and\n      swap2\n        /* \"contracts/Market.sol\":1413:1435  web3bets.marketFactory */\n      0x06ae7095\n      swap2\n        /* \"contracts/Market.sol\":1413:1437  web3bets.marketFactory() */\n      0x04\n      dup1\n      dup4\n      add\n      swap3\n      0x20\n      swap3\n      swap2\n      swap1\n      dup3\n      swap1\n      sub\n      add\n      dup2\n        /* \"contracts/Market.sol\":1413:1421  web3bets */\n      dup7\n        /* \"contracts/Market.sol\":1413:1437  web3bets.marketFactory() */\n      dup1\n      extcodesize\n      iszero\n      dup1\n      iszero\n      tag_279\n      jumpi\n      0x00\n      dup1\n      revert\n    tag_279:\n      pop\n      gas\n      staticcall\n      iszero\n      dup1\n      iszero\n      tag_281\n      jumpi\n      returndatasize\n      0x00\n      dup1\n      returndatacopy\n      revert(0x00, returndatasize)\n    tag_281:\n      pop\n      pop\n      pop\n      pop\n      mload(0x40)\n      returndatasize\n      not(0x1f)\n      0x1f\n      dup3\n      add\n      and\n      dup3\n      add\n      dup1\n      0x40\n      mstore\n      pop\n      dup2\n      add\n      swap1\n      tag_282\n      swap2\n      swap1\n      tag_106\n      jump\t// in\n    tag_282:\n      sub(shl(0xa0, 0x01), 0x01)\n        /* \"contracts/Market.sol\":1399:1437  msg.sender == web3bets.marketFactory() */\n      and\n        /* \"contracts/Market.sol\":1399:1409  msg.sender */\n      caller\n      sub(shl(0xa0, 0x01), 0x01)\n        /* \"contracts/Market.sol\":1399:1437  msg.sender == web3bets.marketFactory() */\n      and\n      eq\n        /* \"contracts/Market.sol\":1378:1470  require(... */\n      tag_283\n      jumpi\n      mload(0x40)\n      shl(0xe5, 0x461bcd)\n      dup2\n      mstore\n      0x04\n      add\n      tag_108\n      swap1\n      tag_109\n      jump\t// in\n    tag_283:\n        /* \"contracts/Market.sol\":3631:3648  hasSetWinningSide */\n      sload(0x02)\n      shl(0xa0, 0x01)\n      swap1\n      div\n      0xff\n      and\n        /* \"contracts/Market.sol\":3631:3656  hasSetWinningSide != true */\n      iszero\n      iszero\n        /* \"contracts/Market.sol\":3652:3656  true */\n      0x01\n        /* \"contracts/Market.sol\":3631:3656  hasSetWinningSide != true */\n      eq\n      iszero\n        /* \"contracts/Market.sol\":3622:3667  require (hasSetWinningSide != true, \"!x win\") */\n      tag_286\n      jumpi\n      mload(0x40)\n      shl(0xe5, 0x461bcd)\n      dup2\n      mstore\n        /* \"#utility.yul\":7650:7652   */\n      0x20\n        /* \"contracts/Market.sol\":3622:3667  require (hasSetWinningSide != true, \"!x win\") */\n      0x04\n      dup3\n      add\n        /* \"#utility.yul\":7632:7653   */\n      mstore\n        /* \"#utility.yul\":7689:7690   */\n      0x06\n        /* \"#utility.yul\":7669:7687   */\n      0x24\n      dup3\n      add\n        /* \"#utility.yul\":7662:7691   */\n      mstore\n      shl(0xd1, 0x10bc103bb4b7)\n        /* \"#utility.yul\":7707:7725   */\n      0x44\n      dup3\n      add\n        /* \"#utility.yul\":7700:7736   */\n      mstore\n        /* \"#utility.yul\":7753:7771   */\n      0x64\n      add\n        /* \"contracts/Market.sol\":3622:3667  require (hasSetWinningSide != true, \"!x win\") */\n      tag_108\n        /* \"#utility.yul\":7622:7777   */\n      jump\n        /* \"contracts/Market.sol\":3622:3667  require (hasSetWinningSide != true, \"!x win\") */\n    tag_286:\n        /* \"contracts/Market.sol\":3677:3703  winningSide = _winningSide */\n      dup2\n      mload\n      tag_289\n      swap1\n        /* \"contracts/Market.sol\":3677:3688  winningSide */\n      0x03\n      swap1\n        /* \"contracts/Market.sol\":3677:3703  winningSide = _winningSide */\n      0x20\n      dup6\n      add\n      swap1\n      tag_240\n      jump\t// in\n    tag_289:\n      pop\n      pop\n        /* \"contracts/Market.sol\":3713:3730  hasSetWinningSide */\n      0x02\n        /* \"contracts/Market.sol\":3713:3737  hasSetWinningSide = true */\n      dup1\n      sload\n      not(shl(0xa0, 0xff))\n      and\n      shl(0xa0, 0x01)\n      or\n      swap1\n      sstore\n        /* \"contracts/Market.sol\":3733:3737  true */\n      0x01\n        /* \"contracts/Market.sol\":3488:3765  function setWinningSide(string memory _winningSide)... */\n      swap2\n      swap1\n      pop\n      jump\t// out\n        /* \"contracts/Market.sol\":969:997  MarketBet[] public sideBBets */\n    tag_92:\n      0x0b\n      dup2\n      dup2\n      sload\n      dup2\n      lt\n      tag_248\n      jumpi\n      0x00\n      dup1\n      revert\n        /* \"contracts/Market.sol\":532:566  string public override winningSide */\n    tag_99:\n      0x03\n      dup1\n      sload\n      tag_137\n      swap1\n      tag_138\n      jump\t// in\n        /* \"@openzeppelin/contracts/token/ERC20/utils/SafeERC20.sol\":763:968  function safeTransfer(... */\n    tag_130:\n        /* \"@openzeppelin/contracts/token/ERC20/utils/SafeERC20.sol\":902:960  abi.encodeWithSelector(token.transfer.selector, to, value) */\n      0x40\n      dup1\n      mload\n      sub(shl(0xa0, 0x01), 0x01)\n        /* \"#utility.yul\":6424:6456   */\n      dup5\n      and\n        /* \"@openzeppelin/contracts/token/ERC20/utils/SafeERC20.sol\":902:960  abi.encodeWithSelector(token.transfer.selector, to, value) */\n      0x24\n      dup3\n      add\n        /* \"#utility.yul\":6406:6457   */\n      mstore\n        /* \"#utility.yul\":6473:6491   */\n      0x44\n      dup1\n      dup3\n      add\n        /* \"#utility.yul\":6466:6500   */\n      dup5\n      swap1\n      mstore\n        /* \"@openzeppelin/contracts/token/ERC20/utils/SafeERC20.sol\":902:960  abi.encodeWithSelector(token.transfer.selector, to, value) */\n      dup3\n      mload\n      dup1\n      dup4\n      sub\n      swap1\n      swap2\n      add\n      dup2\n      mstore\n        /* \"#utility.yul\":6379:6397   */\n      0x64\n      swap1\n      swap2\n      add\n        /* \"@openzeppelin/contracts/token/ERC20/utils/SafeERC20.sol\":902:960  abi.encodeWithSelector(token.transfer.selector, to, value) */\n      swap1\n      swap2\n      mstore\n      0x20\n      dup2\n      add\n      dup1\n      mload\n      sub(shl(0xe0, 0x01), 0x01)\n      and\n      shl(0xe0, 0xa9059cbb)\n      or\n      swap1\n      mstore\n        /* \"@openzeppelin/contracts/token/ERC20/utils/SafeERC20.sol\":875:961  _callOptionalReturn(token, abi.encodeWithSelector(token.transfer.selector, to, value)) */\n      tag_298\n      swap1\n        /* \"@openzeppelin/contracts/token/ERC20/utils/SafeERC20.sol\":895:900  token */\n      dup5\n      swap1\n        /* \"@openzeppelin/contracts/token/ERC20/utils/SafeERC20.sol\":875:894  _callOptionalReturn */\n      tag_301\n        /* \"@openzeppelin/contracts/token/ERC20/utils/SafeERC20.sol\":875:961  _callOptionalReturn(token, abi.encodeWithSelector(token.transfer.selector, to, value)) */\n      jump\t// in\n    tag_298:\n        /* \"@openzeppelin/contracts/token/ERC20/utils/SafeERC20.sol\":763:968  function safeTransfer(... */\n      pop\n      pop\n      pop\n      jump\t// out\n        /* \"contracts/Market.sol\":4883:5185  function _addToSideA(address _better, address _betAddress, uint256 _stake, uint8 _odds)... */\n    tag_262:\n        /* \"contracts/Market.sol\":5021:5027  _stake */\n      dup2\n        /* \"contracts/Market.sol\":5002:5017  sideATotalStake */\n      0x06\n      0x00\n        /* \"contracts/Market.sol\":5002:5027  sideATotalStake += _stake */\n      dup3\n      dup3\n      sload\n      tag_303\n      swap2\n      swap1\n      tag_201\n      jump\t// in\n    tag_303:\n      swap1\n      swap2\n      sstore\n      pop\n      pop\n        /* \"contracts/Market.sol\":5052:5116  MarketBet({betAddress: _betAddress, stake: _stake, odds: _odds}) */\n      0x40\n      dup1\n      mload\n      0x60\n      dup2\n      add\n      dup3\n      mstore\n      sub(shl(0xa0, 0x01), 0x01)\n      dup6\n      dup2\n      and\n      dup3\n      mstore\n      0x20\n      dup1\n      dup4\n      add\n      dup7\n      dup2\n      mstore\n      0xff\n      dup7\n      dup2\n      and\n      dup6\n      dup8\n      add\n      swap1\n      dup2\n      mstore\n        /* \"contracts/Market.sol\":5037:5046  sideABets */\n      0x09\n        /* \"contracts/Market.sol\":5037:5117  sideABets.push(MarketBet({betAddress: _betAddress, stake: _stake, odds: _odds})) */\n      dup1\n      sload\n      0x01\n      dup2\n      add\n      dup3\n      sstore\n      0x00\n      swap2\n      dup3\n      mstore\n      swap7\n      mload\n      0x6e1540171b6c0c960b71a7020d9f60077f6af931a8bbf590da0223dacf75c7af\n      0x03\n      swap1\n      swap9\n      mul\n      swap8\n      dup9\n      add\n      dup1\n      sload\n      not(sub(shl(0xa0, 0x01), 0x01))\n      and\n      swap2\n      dup9\n      and\n      swap2\n      swap1\n      swap2\n      or\n      swap1\n      sstore\n      swap3\n      mload\n      0x6e1540171b6c0c960b71a7020d9f60077f6af931a8bbf590da0223dacf75c7b0\n      dup8\n      add\n      sstore\n      mload\n      0x6e1540171b6c0c960b71a7020d9f60077f6af931a8bbf590da0223dacf75c7b1\n      swap1\n      swap6\n      add\n      dup1\n      sload\n      not(0xff)\n      and\n      swap6\n      swap1\n      swap2\n      and\n      swap5\n      swap1\n      swap5\n      or\n      swap1\n      swap4\n      sstore\n        /* \"contracts/Market.sol\":5127:5152  sideAUsersStakes[_better] */\n      swap1\n      dup8\n      and\n      dup3\n      mstore\n        /* \"contracts/Market.sol\":5127:5143  sideAUsersStakes */\n      0x0d\n        /* \"contracts/Market.sol\":5127:5152  sideAUsersStakes[_better] */\n      swap1\n      mstore\n      swap1\n      dup2\n      keccak256\n        /* \"contracts/Market.sol\":5127:5162  sideAUsersStakes[_better] += _stake */\n      dup1\n      sload\n        /* \"contracts/Market.sol\":5052:5116  MarketBet({betAddress: _betAddress, stake: _stake, odds: _odds}) */\n      dup5\n      swap3\n      swap1\n        /* \"contracts/Market.sol\":5127:5162  sideAUsersStakes[_better] += _stake */\n      tag_305\n      swap1\n        /* \"contracts/Market.sol\":5052:5116  MarketBet({betAddress: _betAddress, stake: _stake, odds: _odds}) */\n      dup5\n      swap1\n        /* \"contracts/Market.sol\":5127:5162  sideAUsersStakes[_better] += _stake */\n      tag_201\n      jump\t// in\n    tag_305:\n      swap1\n      swap2\n      sstore\n      pop\n      pop\n        /* \"contracts/Market.sol\":4883:5185  function _addToSideA(address _better, address _betAddress, uint256 _stake, uint8 _odds)... */\n    tag_302:\n      pop\n      pop\n      pop\n      pop\n      jump\t// out\n        /* \"contracts/Market.sol\":5499:7697  function _matchSideABet(address _betAddress, uint256 _stake, uint8 _odds)... */\n    tag_264:\n        /* \"contracts/Market.sol\":5620:5636  sideBBetsPending */\n      0x0c\n        /* \"contracts/Market.sol\":5620:5643  sideBBetsPending.length */\n      sload\n        /* \"contracts/Market.sol\":5656:5668  betCount > 0 */\n      dup1\n      iszero\n        /* \"contracts/Market.sol\":5653:7675  if(betCount > 0){... */\n      tag_307\n      jumpi\n        /* \"contracts/Market.sol\":5700:5706  _stake */\n      dup3\n        /* \"contracts/Market.sol\":5720:7539  while(_remStake >= 1 * 10 ** 18){... */\n    tag_308:\n        /* \"contracts/Market.sol\":5739:5751  1 * 10 ** 18 */\n      0x0de0b6b3a7640000\n        /* \"contracts/Market.sol\":5726:5735  _remStake */\n      dup2\n        /* \"contracts/Market.sol\":5726:5751  _remStake >= 1 * 10 ** 18 */\n      lt\n        /* \"contracts/Market.sol\":5720:7539  while(_remStake >= 1 * 10 ** 18){... */\n      tag_309\n      jumpi\n        /* \"contracts/Market.sol\":5770:5788  uint selectedIndex */\n      0x00\n        /* \"contracts/Market.sol\":5810:5823  uint8 maxOdds */\n      dup1\n        /* \"contracts/Market.sol\":5849:5855  uint i */\n      0x00\n        /* \"contracts/Market.sol\":5845:6113  for(uint i = 0; i < betCount; i++){... */\n    tag_310:\n        /* \"contracts/Market.sol\":5865:5873  betCount */\n      dup5\n        /* \"contracts/Market.sol\":5861:5862  i */\n      dup2\n        /* \"contracts/Market.sol\":5861:5873  i < betCount */\n      lt\n        /* \"contracts/Market.sol\":5845:6113  for(uint i = 0; i < betCount; i++){... */\n      iszero\n      tag_311\n      jumpi\n        /* \"contracts/Market.sol\":5901:5921  MarketBet memory bet */\n      0x00\n        /* \"contracts/Market.sol\":5924:5940  sideBBetsPending */\n      0x0c\n        /* \"contracts/Market.sol\":5941:5942  i */\n      dup3\n        /* \"contracts/Market.sol\":5924:5943  sideBBetsPending[i] */\n      dup2\n      sload\n      dup2\n      lt\n      tag_313\n      jumpi\n      mstore(0x00, shl(0xe0, 0x4e487b71))\n      mstore(0x04, 0x32)\n      revert(0x00, 0x24)\n    tag_313:\n      0x00\n      swap2\n      dup3\n      mstore\n      0x20\n      swap2\n      dup3\n      swap1\n      keccak256\n        /* \"contracts/Market.sol\":5901:5943  MarketBet memory bet = sideBBetsPending[i] */\n      0x40\n      dup1\n      mload\n      0x60\n      dup2\n      add\n      dup3\n      mstore\n        /* \"contracts/Market.sol\":5924:5943  sideBBetsPending[i] */\n      0x03\n      swap1\n      swap4\n      mul\n      swap1\n      swap2\n      add\n        /* \"contracts/Market.sol\":5901:5943  MarketBet memory bet = sideBBetsPending[i] */\n      dup1\n      sload\n      sub(shl(0xa0, 0x01), 0x01)\n      and\n      dup4\n      mstore\n      0x01\n      dup2\n      add\n      sload\n      swap4\n      dup4\n      add\n      swap4\n      swap1\n      swap4\n      mstore\n      0x02\n      swap1\n      swap3\n      add\n      sload\n      0xff\n      swap1\n      dup2\n      and\n      swap3\n      dup3\n      add\n      dup4\n      swap1\n      mstore\n      swap1\n      swap3\n      pop\n        /* \"contracts/Market.sol\":5968:5984  bet.odds>maxOdds */\n      dup5\n      and\n      lt\n        /* \"contracts/Market.sol\":5965:6095  if(bet.odds>maxOdds){... */\n      iszero\n      tag_315\n      jumpi\n        /* \"contracts/Market.sol\":6021:6024  bet */\n      dup1\n        /* \"contracts/Market.sol\":6021:6029  bet.odds */\n      0x40\n      add\n      mload\n        /* \"contracts/Market.sol\":6011:6029  maxOdds = bet.odds */\n      swap3\n      pop\n        /* \"contracts/Market.sol\":6071:6072  i */\n      dup2\n        /* \"contracts/Market.sol\":6055:6072  selectedIndex = i */\n      swap4\n      pop\n        /* \"contracts/Market.sol\":5965:6095  if(bet.odds>maxOdds){... */\n    tag_315:\n      pop\n        /* \"contracts/Market.sol\":5875:5878  i++ */\n      dup1\n      tag_316\n      dup2\n      tag_317\n      jump\t// in\n    tag_316:\n      swap2\n      pop\n      pop\n        /* \"contracts/Market.sol\":5845:6113  for(uint i = 0; i < betCount; i++){... */\n      jump(tag_310)\n    tag_311:\n      pop\n        /* \"contracts/Market.sol\":6143:6148  _odds */\n      dup5\n        /* \"contracts/Market.sol\":6133:6148  maxOdds > _odds */\n      0xff\n      and\n        /* \"contracts/Market.sol\":6133:6140  maxOdds */\n      dup2\n        /* \"contracts/Market.sol\":6133:6148  maxOdds > _odds */\n      0xff\n      and\n      gt\n        /* \"contracts/Market.sol\":6130:7525  if(maxOdds > _odds) {... */\n      iszero\n      tag_318\n      jumpi\n        /* \"contracts/Market.sol\":6172:6200  MarketBet memory selectedBet */\n      0x00\n        /* \"contracts/Market.sol\":6203:6219  sideBBetsPending */\n      0x0c\n        /* \"contracts/Market.sol\":6220:6233  selectedIndex */\n      dup4\n        /* \"contracts/Market.sol\":6203:6234  sideBBetsPending[selectedIndex] */\n      dup2\n      sload\n      dup2\n      lt\n      tag_319\n      jumpi\n      mstore(0x00, shl(0xe0, 0x4e487b71))\n      mstore(0x04, 0x32)\n      revert(0x00, 0x24)\n    tag_319:\n      0x00\n      swap2\n      dup3\n      mstore\n      0x20\n      dup1\n      dup4\n      keccak256\n        /* \"contracts/Market.sol\":6172:6234  MarketBet memory selectedBet = sideBBetsPending[selectedIndex] */\n      0x40\n      dup1\n      mload\n      0x60\n      dup2\n      add\n      dup3\n      mstore\n        /* \"contracts/Market.sol\":6203:6234  sideBBetsPending[selectedIndex] */\n      0x03\n      swap1\n      swap5\n      mul\n      swap1\n      swap2\n      add\n        /* \"contracts/Market.sol\":6172:6234  MarketBet memory selectedBet = sideBBetsPending[selectedIndex] */\n      dup1\n      sload\n      sub(shl(0xa0, 0x01), 0x01)\n      and\n      dup1\n      dup6\n      mstore\n      0x01\n      dup3\n      add\n      sload\n      dup6\n      dup6\n      add\n      mstore\n      0x02\n      swap1\n      swap2\n      add\n      sload\n      0xff\n      and\n      dup5\n      dup4\n      add\n      mstore\n        /* \"contracts/Market.sol\":6359:6388  selectedBetInstance.matched() */\n      dup2\n      mload\n      shl(0xe1, 0x45564e65)\n      dup2\n      mstore\n      swap2\n      mload\n        /* \"contracts/Market.sol\":6172:6234  MarketBet memory selectedBet = sideBBetsPending[selectedIndex] */\n      swap4\n      swap6\n      pop\n      swap4\n        /* \"contracts/Market.sol\":6203:6234  sideBBetsPending[selectedIndex] */\n      swap3\n        /* \"contracts/Market.sol\":6172:6234  MarketBet memory selectedBet = sideBBetsPending[selectedIndex] */\n      dup5\n      swap3\n        /* \"contracts/Market.sol\":6359:6386  selectedBetInstance.matched */\n      0x8aac9cca\n      swap3\n        /* \"contracts/Market.sol\":6359:6388  selectedBetInstance.matched() */\n      0x04\n      dup1\n      dup3\n      add\n      swap4\n      swap2\n      dup3\n      swap1\n      sub\n      add\n      dup2\n        /* \"contracts/Market.sol\":6172:6234  MarketBet memory selectedBet = sideBBetsPending[selectedIndex] */\n      dup7\n        /* \"contracts/Market.sol\":6359:6388  selectedBetInstance.matched() */\n      dup1\n      extcodesize\n      iszero\n      dup1\n      iszero\n      tag_321\n      jumpi\n      0x00\n      dup1\n      revert\n    tag_321:\n      pop\n      gas\n      staticcall\n      iszero\n      dup1\n      iszero\n      tag_323\n      jumpi\n      returndatasize\n      0x00\n      dup1\n      returndatacopy\n      revert(0x00, returndatasize)\n    tag_323:\n      pop\n      pop\n      pop\n      pop\n      mload(0x40)\n      returndatasize\n      not(0x1f)\n      0x1f\n      dup3\n      add\n      and\n      dup3\n      add\n      dup1\n      0x40\n      mstore\n      pop\n      dup2\n      add\n      swap1\n      tag_324\n      swap2\n      swap1\n      tag_115\n      jump\t// in\n    tag_324:\n        /* \"contracts/Market.sol\":6333:6388  uint matchedSelectedBet = selectedBetInstance.matched() */\n      swap1\n      pop\n        /* \"contracts/Market.sol\":6410:6427  uint offeredStake */\n      0x00\n        /* \"contracts/Market.sol\":6489:6492  100 */\n      0x64\n        /* \"contracts/Market.sol\":6474:6485  _odds - 100 */\n      tag_325\n        /* \"contracts/Market.sol\":6489:6492  100 */\n      dup2\n        /* \"contracts/Market.sol\":6474:6479  _odds */\n      dup12\n        /* \"contracts/Market.sol\":6474:6485  _odds - 100 */\n      tag_326\n      jump\t// in\n    tag_325:\n        /* \"contracts/Market.sol\":6430:6486  (selectedBet.stake - matchedSelectedBet) * (_odds - 100) */\n      0xff\n      and\n        /* \"contracts/Market.sol\":6451:6469  matchedSelectedBet */\n      dup4\n        /* \"contracts/Market.sol\":6431:6442  selectedBet */\n      dup7\n        /* \"contracts/Market.sol\":6431:6448  selectedBet.stake */\n      0x20\n      add\n      mload\n        /* \"contracts/Market.sol\":6431:6469  selectedBet.stake - matchedSelectedBet */\n      tag_327\n      swap2\n      swap1\n      tag_121\n      jump\t// in\n    tag_327:\n        /* \"contracts/Market.sol\":6430:6486  (selectedBet.stake - matchedSelectedBet) * (_odds - 100) */\n      tag_328\n      swap2\n      swap1\n      tag_197\n      jump\t// in\n    tag_328:\n        /* \"contracts/Market.sol\":6430:6492  (selectedBet.stake - matchedSelectedBet) * (_odds - 100) / 100 */\n      tag_329\n      swap2\n      swap1\n      tag_199\n      jump\t// in\n    tag_329:\n        /* \"contracts/Market.sol\":6410:6492  uint offeredStake = (selectedBet.stake - matchedSelectedBet) * (_odds - 100) / 100 */\n      swap1\n      pop\n        /* \"contracts/Market.sol\":6515:6528  uint _amountA */\n      0x00\n        /* \"contracts/Market.sol\":6568:6574  _stake */\n      dup11\n        /* \"contracts/Market.sol\":6553:6565  offeredStake */\n      dup3\n        /* \"contracts/Market.sol\":6553:6574  offeredStake > _stake */\n      gt\n        /* \"contracts/Market.sol\":6550:6740  if(offeredStake > _stake) {... */\n      iszero\n      tag_330\n      jumpi\n      pop\n        /* \"contracts/Market.sol\":6613:6619  _stake */\n      dup10\n        /* \"contracts/Market.sol\":6550:6740  if(offeredStake > _stake) {... */\n      jump(tag_331)\n    tag_330:\n      pop\n        /* \"contracts/Market.sol\":6705:6717  offeredStake */\n      dup1\n        /* \"contracts/Market.sol\":6550:6740  if(offeredStake > _stake) {... */\n    tag_331:\n        /* \"contracts/Market.sol\":6761:6774  uint _amountB */\n      0x00\n        /* \"contracts/Market.sol\":6777:6793  _amountA * _odds */\n      tag_332\n      0xff\n      dup13\n      and\n        /* \"contracts/Market.sol\":6777:6785  _amountA */\n      dup4\n        /* \"contracts/Market.sol\":6777:6793  _amountA * _odds */\n      tag_197\n      jump\t// in\n    tag_332:\n        /* \"contracts/Market.sol\":6761:6793  uint _amountB = _amountA * _odds */\n      swap1\n      pop\n        /* \"contracts/Market.sol\":6815:6828  BetPair _pair */\n      0x00\n        /* \"contracts/Market.sol\":6851:6855  this */\n      address\n        /* \"contracts/Market.sol\":6857:6868  _betAddress */\n      dup15\n        /* \"contracts/Market.sol\":6869:6880  selectedBet */\n      dup9\n        /* \"contracts/Market.sol\":6869:6891  selectedBet.betAddress */\n      0x00\n      add\n      mload\n        /* \"contracts/Market.sol\":6892:6900  _amountA */\n      dup6\n        /* \"contracts/Market.sol\":6901:6909  _amountB */\n      dup6\n        /* \"contracts/Market.sol\":6831:6910  new BetPair(address(this),_betAddress,selectedBet.betAddress,_amountA,_amountB) */\n      mload(0x40)\n      tag_333\n      swap1\n      tag_334\n      jump\t// in\n    tag_333:\n      sub(shl(0xa0, 0x01), 0x01)\n        /* \"#utility.yul\":6014:6029   */\n      swap6\n      dup7\n      and\n        /* \"#utility.yul\":5996:6030   */\n      dup2\n      mstore\n        /* \"#utility.yul\":6066:6081   */\n      swap4\n      dup6\n      and\n        /* \"#utility.yul\":6061:6063   */\n      0x20\n        /* \"#utility.yul\":6046:6064   */\n      dup6\n      add\n        /* \"#utility.yul\":6039:6082   */\n      mstore\n        /* \"#utility.yul\":6118:6133   */\n      swap4\n      swap1\n      swap2\n      and\n        /* \"#utility.yul\":6113:6115   */\n      0x40\n        /* \"#utility.yul\":6098:6116   */\n      dup4\n      add\n        /* \"#utility.yul\":6091:6134   */\n      mstore\n        /* \"#utility.yul\":6165:6167   */\n      0x60\n        /* \"#utility.yul\":6150:6168   */\n      dup3\n      add\n        /* \"#utility.yul\":6143:6177   */\n      mstore\n        /* \"#utility.yul\":6208:6211   */\n      0x80\n        /* \"#utility.yul\":6193:6212   */\n      dup2\n      add\n        /* \"#utility.yul\":6186:6221   */\n      swap2\n      swap1\n      swap2\n      mstore\n        /* \"#utility.yul\":5945:5948   */\n      0xa0\n        /* \"#utility.yul\":5930:5949   */\n      add\n        /* \"contracts/Market.sol\":6831:6910  new BetPair(address(this),_betAddress,selectedBet.betAddress,_amountA,_amountB) */\n      mload(0x40)\n      dup1\n      swap2\n      sub\n      swap1\n      0x00\n      create\n      dup1\n      iszero\n      dup1\n      iszero\n      tag_337\n      jumpi\n      returndatasize\n      0x00\n      dup1\n      returndatacopy\n      revert(0x00, returndatasize)\n    tag_337:\n      pop\n        /* \"contracts/Market.sol\":6815:6910  BetPair _pair = new BetPair(address(this),_betAddress,selectedBet.betAddress,_amountA,_amountB) */\n      swap1\n      pop\n        /* \"contracts/Market.sol\":6939:6955  sideBBetsPending */\n      0x0c\n        /* \"contracts/Market.sol\":6956:6969  selectedIndex */\n      dup10\n        /* \"contracts/Market.sol\":6939:6970  sideBBetsPending[selectedIndex] */\n      dup2\n      sload\n      dup2\n      lt\n      tag_338\n      jumpi\n      mstore(0x00, shl(0xe0, 0x4e487b71))\n      mstore(0x04, 0x32)\n      revert(0x00, 0x24)\n    tag_338:\n      0x00\n      swap2\n      dup3\n      mstore\n      0x20\n      dup3\n      keccak256\n      0x03\n      swap2\n      swap1\n      swap2\n      mul\n      add\n        /* \"contracts/Market.sol\":6932:6970  delete sideBBetsPending[selectedIndex] */\n      dup1\n      sload\n      not(sub(shl(0xa0, 0x01), 0x01))\n      and\n      dup2\n      sstore\n      0x01\n      dup2\n      add\n      swap2\n      swap1\n      swap2\n      sstore\n      0x02\n      add\n      dup1\n      sload\n      not(0xff)\n      and\n      swap1\n      sstore\n        /* \"contracts/Market.sol\":7045:7071  _betA.setMatched(_amountA) */\n      mload(0x40)\n      shl(0xe1, 0x2d267e03)\n      dup2\n      mstore\n      0x04\n      dup2\n      add\n        /* \"#utility.yul\":10786:10811   */\n      dup5\n      swap1\n      mstore\n        /* \"contracts/Market.sol\":7011:7022  _betAddress */\n      dup15\n      swap1\n      sub(shl(0xa0, 0x01), 0x01)\n        /* \"contracts/Market.sol\":7045:7061  _betA.setMatched */\n      dup3\n      and\n      swap1\n      0x5a4cfc06\n      swap1\n        /* \"#utility.yul\":10759:10777   */\n      0x24\n      add\n        /* \"contracts/Market.sol\":7045:7071  _betA.setMatched(_amountA) */\n      0x20\n      mload(0x40)\n      dup1\n      dup4\n      sub\n      dup2\n      0x00\n      dup8\n      dup1\n      extcodesize\n      iszero\n      dup1\n      iszero\n      tag_341\n      jumpi\n      0x00\n      dup1\n      revert\n    tag_341:\n      pop\n      gas\n      call\n      iszero\n      dup1\n      iszero\n      tag_343\n      jumpi\n      returndatasize\n      0x00\n      dup1\n      returndatacopy\n      revert(0x00, returndatasize)\n    tag_343:\n      pop\n      pop\n      pop\n      pop\n      mload(0x40)\n      returndatasize\n      not(0x1f)\n      0x1f\n      dup3\n      add\n      and\n      dup3\n      add\n      dup1\n      0x40\n      mstore\n      pop\n      dup2\n      add\n      swap1\n      tag_344\n      swap2\n      swap1\n      tag_136\n      jump\t// in\n    tag_344:\n      pop\n        /* \"contracts/Market.sol\":7093:7122  _betA.addPair(address(_pair)) */\n      mload(0x40)\n      shl(0xe1, 0x615bdddb)\n      dup2\n      mstore\n      sub(shl(0xa0, 0x01), 0x01)\n        /* \"#utility.yul\":5655:5687   */\n      dup4\n      dup2\n      and\n        /* \"contracts/Market.sol\":7093:7122  _betA.addPair(address(_pair)) */\n      0x04\n      dup4\n      add\n        /* \"#utility.yul\":5637:5688   */\n      mstore\n        /* \"contracts/Market.sol\":7093:7106  _betA.addPair */\n      dup3\n      and\n      swap1\n      0xc2b7bbb6\n      swap1\n        /* \"#utility.yul\":5610:5628   */\n      0x24\n      add\n        /* \"contracts/Market.sol\":7093:7122  _betA.addPair(address(_pair)) */\n      0x20\n      mload(0x40)\n      dup1\n      dup4\n      sub\n      dup2\n      0x00\n      dup8\n      dup1\n      extcodesize\n      iszero\n      dup1\n      iszero\n      tag_346\n      jumpi\n      0x00\n      dup1\n      revert\n    tag_346:\n      pop\n      gas\n      call\n      iszero\n      dup1\n      iszero\n      tag_348\n      jumpi\n      returndatasize\n      0x00\n      dup1\n      returndatacopy\n      revert(0x00, returndatasize)\n    tag_348:\n      pop\n      pop\n      pop\n      pop\n      mload(0x40)\n      returndatasize\n      not(0x1f)\n      0x1f\n      dup3\n      add\n      and\n      dup3\n      add\n      dup1\n      0x40\n      mstore\n      pop\n      dup2\n      add\n      swap1\n      tag_349\n      swap2\n      swap1\n      tag_136\n      jump\t// in\n    tag_349:\n      pop\n        /* \"contracts/Market.sol\":7163:7185  selectedBet.betAddress */\n      dup8\n      mload\n        /* \"contracts/Market.sol\":7208:7234  _betB.setMatched(_amountB) */\n      mload(0x40)\n      shl(0xe1, 0x2d267e03)\n      dup2\n      mstore\n      0x04\n      dup2\n      add\n        /* \"#utility.yul\":10786:10811   */\n      dup6\n      swap1\n      mstore\n      sub(shl(0xa0, 0x01), 0x01)\n        /* \"contracts/Market.sol\":7208:7224  _betB.setMatched */\n      dup3\n      and\n      swap1\n      0x5a4cfc06\n      swap1\n        /* \"#utility.yul\":10759:10777   */\n      0x24\n      add\n        /* \"contracts/Market.sol\":7208:7234  _betB.setMatched(_amountB) */\n      0x20\n      mload(0x40)\n      dup1\n      dup4\n      sub\n      dup2\n      0x00\n      dup8\n      dup1\n      extcodesize\n      iszero\n      dup1\n      iszero\n      tag_351\n      jumpi\n      0x00\n      dup1\n      revert\n    tag_351:\n      pop\n      gas\n      call\n      iszero\n      dup1\n      iszero\n      tag_353\n      jumpi\n      returndatasize\n      0x00\n      dup1\n      returndatacopy\n      revert(0x00, returndatasize)\n    tag_353:\n      pop\n      pop\n      pop\n      pop\n      mload(0x40)\n      returndatasize\n      not(0x1f)\n      0x1f\n      dup3\n      add\n      and\n      dup3\n      add\n      dup1\n      0x40\n      mstore\n      pop\n      dup2\n      add\n      swap1\n      tag_354\n      swap2\n      swap1\n      tag_136\n      jump\t// in\n    tag_354:\n      pop\n        /* \"contracts/Market.sol\":7256:7285  _betB.addPair(address(_pair)) */\n      mload(0x40)\n      shl(0xe1, 0x615bdddb)\n      dup2\n      mstore\n      sub(shl(0xa0, 0x01), 0x01)\n        /* \"#utility.yul\":5655:5687   */\n      dup5\n      dup2\n      and\n        /* \"contracts/Market.sol\":7256:7285  _betB.addPair(address(_pair)) */\n      0x04\n      dup4\n      add\n        /* \"#utility.yul\":5637:5688   */\n      mstore\n        /* \"contracts/Market.sol\":7256:7269  _betB.addPair */\n      dup3\n      and\n      swap1\n      0xc2b7bbb6\n      swap1\n        /* \"#utility.yul\":5610:5628   */\n      0x24\n      add\n        /* \"contracts/Market.sol\":7256:7285  _betB.addPair(address(_pair)) */\n      0x20\n      mload(0x40)\n      dup1\n      dup4\n      sub\n      dup2\n      0x00\n      dup8\n      dup1\n      extcodesize\n      iszero\n      dup1\n      iszero\n      tag_356\n      jumpi\n      0x00\n      dup1\n      revert\n    tag_356:\n      pop\n      gas\n      call\n      iszero\n      dup1\n      iszero\n      tag_358\n      jumpi\n      returndatasize\n      0x00\n      dup1\n      returndatacopy\n      revert(0x00, returndatasize)\n    tag_358:\n      pop\n      pop\n      pop\n      pop\n      mload(0x40)\n      returndatasize\n      not(0x1f)\n      0x1f\n      dup3\n      add\n      and\n      dup3\n      add\n      dup1\n      0x40\n      mstore\n      pop\n      dup2\n      add\n      swap1\n      tag_359\n      swap2\n      swap1\n      tag_136\n      jump\t// in\n    tag_359:\n      pop\n        /* \"contracts/Market.sol\":7308:7329  _remStake -= _amountA */\n      tag_360\n        /* \"contracts/Market.sol\":7321:7329  _amountA */\n      dup6\n        /* \"contracts/Market.sol\":7308:7329  _remStake -= _amountA */\n      dup14\n      tag_121\n      jump\t// in\n    tag_360:\n      swap12\n      pop\n        /* \"contracts/Market.sol\":6130:7525  if(maxOdds > _odds) {... */\n      pop\n      pop\n      pop\n      pop\n      pop\n      pop\n      pop\n      pop\n      pop\n      jump(tag_361)\n    tag_318:\n      pop\n      pop\n        /* \"contracts/Market.sol\":7414:7478  MarketBet({betAddress: _betAddress, stake: _stake, odds: _odds}) */\n      0x40\n      dup1\n      mload\n      0x60\n      dup2\n      add\n      dup3\n      mstore\n      sub(shl(0xa0, 0x01), 0x01)\n      dup8\n      dup2\n      and\n      dup3\n      mstore\n      0x20\n      dup3\n      add\n      dup8\n      dup2\n      mstore\n      0xff\n      dup8\n      dup2\n      and\n      swap5\n      dup5\n      add\n      swap5\n      dup6\n      mstore\n        /* \"contracts/Market.sol\":7392:7408  sideABetsPending */\n      0x0a\n        /* \"contracts/Market.sol\":7392:7479  sideABetsPending.push(MarketBet({betAddress: _betAddress, stake: _stake, odds: _odds})) */\n      dup1\n      sload\n      0x01\n      dup2\n      add\n      dup3\n      sstore\n      0x00\n      swap2\n      swap1\n      swap2\n      mstore\n      swap4\n      mload\n      0xc65a7bb8d6351c1cf70c95a316cc6a92839c986682d98bc35f958f4883f9d2a8\n      0x03\n      swap1\n      swap6\n      mul\n      swap5\n      dup6\n      add\n      dup1\n      sload\n      not(sub(shl(0xa0, 0x01), 0x01))\n      and\n      swap2\n      swap1\n      swap5\n      and\n      or\n      swap1\n      swap3\n      sstore\n      mload\n      0xc65a7bb8d6351c1cf70c95a316cc6a92839c986682d98bc35f958f4883f9d2a9\n      dup4\n      add\n      sstore\n      swap2\n      mload\n      0xc65a7bb8d6351c1cf70c95a316cc6a92839c986682d98bc35f958f4883f9d2aa\n      swap1\n      swap2\n      add\n      dup1\n      sload\n      not(0xff)\n      and\n      swap2\n      swap1\n      swap3\n      and\n      or\n      swap1\n      sstore\n        /* \"contracts/Market.sol\":7501:7506  break */\n      jump(tag_309)\n        /* \"contracts/Market.sol\":6130:7525  if(maxOdds > _odds) {... */\n    tag_361:\n        /* \"contracts/Market.sol\":5720:7539  while(_remStake >= 1 * 10 ** 18){... */\n      pop\n      pop\n      jump(tag_308)\n    tag_309:\n        /* \"contracts/Market.sol\":5653:7675  if(betCount > 0){... */\n      pop\n      jump(tag_302)\n    tag_307:\n      pop\n        /* \"contracts/Market.sol\":7599:7663  MarketBet({betAddress: _betAddress, stake: _stake, odds: _odds}) */\n      0x40\n      dup1\n      mload\n      0x60\n      dup2\n      add\n      dup3\n      mstore\n      sub(shl(0xa0, 0x01), 0x01)\n      swap5\n      dup6\n      and\n      dup2\n      mstore\n      0x20\n      dup2\n      add\n      swap4\n      dup5\n      mstore\n      0xff\n      swap3\n      dup4\n      and\n      swap2\n      dup2\n      add\n      swap2\n      dup3\n      mstore\n        /* \"contracts/Market.sol\":7577:7593  sideABetsPending */\n      0x0a\n        /* \"contracts/Market.sol\":7577:7664  sideABetsPending.push(MarketBet({betAddress: _betAddress, stake: _stake, odds: _odds})) */\n      dup1\n      sload\n      0x01\n      dup2\n      add\n      dup3\n      sstore\n      0x00\n      swap2\n      swap1\n      swap2\n      mstore\n      swap1\n      mload\n      0xc65a7bb8d6351c1cf70c95a316cc6a92839c986682d98bc35f958f4883f9d2a8\n      0x03\n      swap1\n      swap3\n      mul\n      swap2\n      dup3\n      add\n      dup1\n      sload\n      not(sub(shl(0xa0, 0x01), 0x01))\n      and\n      swap2\n      swap1\n      swap7\n      and\n      or\n      swap1\n      swap5\n      sstore\n      swap2\n      mload\n      0xc65a7bb8d6351c1cf70c95a316cc6a92839c986682d98bc35f958f4883f9d2a9\n      dup5\n      add\n      sstore\n      swap1\n      mload\n      0xc65a7bb8d6351c1cf70c95a316cc6a92839c986682d98bc35f958f4883f9d2aa\n      swap1\n      swap3\n      add\n      dup1\n      sload\n      not(0xff)\n      and\n      swap3\n      swap1\n      swap2\n      and\n      swap2\n      swap1\n      swap2\n      or\n      swap1\n      sstore\n        /* \"contracts/Market.sol\":5499:7697  function _matchSideABet(address _betAddress, uint256 _stake, uint8 _odds)... */\n      jump\t// out\n        /* \"contracts/Market.sol\":5191:5493  function _addToSideB(address _better, address _betAddress, uint256 _stake, uint8 _odds)... */\n    tag_270:\n        /* \"contracts/Market.sol\":5329:5335  _stake */\n      dup2\n        /* \"contracts/Market.sol\":5310:5325  sideBTotalStake */\n      0x08\n      0x00\n        /* \"contracts/Market.sol\":5310:5335  sideBTotalStake += _stake */\n      dup3\n      dup3\n      sload\n      tag_366\n      swap2\n      swap1\n      tag_201\n      jump\t// in\n    tag_366:\n      swap1\n      swap2\n      sstore\n      pop\n      pop\n        /* \"contracts/Market.sol\":5360:5424  MarketBet({betAddress: _betAddress, stake: _stake, odds: _odds}) */\n      0x40\n      dup1\n      mload\n      0x60\n      dup2\n      add\n      dup3\n      mstore\n      sub(shl(0xa0, 0x01), 0x01)\n      dup6\n      dup2\n      and\n      dup3\n      mstore\n      0x20\n      dup1\n      dup4\n      add\n      dup7\n      dup2\n      mstore\n      0xff\n      dup7\n      dup2\n      and\n      dup6\n      dup8\n      add\n      swap1\n      dup2\n      mstore\n        /* \"contracts/Market.sol\":5345:5354  sideBBets */\n      0x0b\n        /* \"contracts/Market.sol\":5345:5425  sideBBets.push(MarketBet({betAddress: _betAddress, stake: _stake, odds: _odds})) */\n      dup1\n      sload\n      0x01\n      dup2\n      add\n      dup3\n      sstore\n      0x00\n      swap2\n      dup3\n      mstore\n      swap7\n      mload\n      0x0175b7a638427703f0dbe7bb9bbf987a2551717b34e79f33b5b1008d1fa01db9\n      0x03\n      swap1\n      swap9\n      mul\n      swap8\n      dup9\n      add\n      dup1\n      sload\n      not(sub(shl(0xa0, 0x01), 0x01))\n      and\n      swap2\n      dup9\n      and\n      swap2\n      swap1\n      swap2\n      or\n      swap1\n      sstore\n      swap3\n      mload\n      0x0175b7a638427703f0dbe7bb9bbf987a2551717b34e79f33b5b1008d1fa01dba\n      dup8\n      add\n      sstore\n      mload\n      0x0175b7a638427703f0dbe7bb9bbf987a2551717b34e79f33b5b1008d1fa01dbb\n      swap1\n      swap6\n      add\n      dup1\n      sload\n      not(0xff)\n      and\n      swap6\n      swap1\n      swap2\n      and\n      swap5\n      swap1\n      swap5\n      or\n      swap1\n      swap4\n      sstore\n        /* \"contracts/Market.sol\":5435:5460  sideBUsersStakes[_better] */\n      swap1\n      dup8\n      and\n      dup3\n      mstore\n        /* \"contracts/Market.sol\":5435:5451  sideBUsersStakes */\n      0x0e\n        /* \"contracts/Market.sol\":5435:5460  sideBUsersStakes[_better] */\n      swap1\n      mstore\n      swap1\n      dup2\n      keccak256\n        /* \"contracts/Market.sol\":5435:5470  sideBUsersStakes[_better] += _stake */\n      dup1\n      sload\n        /* \"contracts/Market.sol\":5360:5424  MarketBet({betAddress: _betAddress, stake: _stake, odds: _odds}) */\n      dup5\n      swap3\n      swap1\n        /* \"contracts/Market.sol\":5435:5470  sideBUsersStakes[_better] += _stake */\n      tag_305\n      swap1\n        /* \"contracts/Market.sol\":5360:5424  MarketBet({betAddress: _betAddress, stake: _stake, odds: _odds}) */\n      dup5\n      swap1\n        /* \"contracts/Market.sol\":5435:5470  sideBUsersStakes[_better] += _stake */\n      tag_201\n      jump\t// in\n        /* \"contracts/Market.sol\":7703:9905  function _matchSideBBet(address _betAddress, uint256 _stake, uint8 _odds)... */\n    tag_272:\n        /* \"contracts/Market.sol\":7824:7840  sideABetsPending */\n      0x0a\n        /* \"contracts/Market.sol\":7824:7847  sideABetsPending.length */\n      sload\n        /* \"contracts/Market.sol\":7860:7872  betCount > 0 */\n      dup1\n      iszero\n        /* \"contracts/Market.sol\":7857:9883  if(betCount > 0){... */\n      tag_370\n      jumpi\n        /* \"contracts/Market.sol\":7904:7910  _stake */\n      dup3\n        /* \"contracts/Market.sol\":7924:9747  while(_remStake >= 1 * 10 ** 18){... */\n    tag_371:\n        /* \"contracts/Market.sol\":7943:7955  1 * 10 ** 18 */\n      0x0de0b6b3a7640000\n        /* \"contracts/Market.sol\":7930:7939  _remStake */\n      dup2\n        /* \"contracts/Market.sol\":7930:7955  _remStake >= 1 * 10 ** 18 */\n      lt\n        /* \"contracts/Market.sol\":7924:9747  while(_remStake >= 1 * 10 ** 18){... */\n      tag_309\n      jumpi\n        /* \"contracts/Market.sol\":7974:7992  uint selectedIndex */\n      0x00\n        /* \"contracts/Market.sol\":8014:8027  uint8 maxOdds */\n      dup1\n        /* \"contracts/Market.sol\":8053:8059  uint i */\n      0x00\n        /* \"contracts/Market.sol\":8049:8317  for(uint i = 0; i < betCount; i++){... */\n    tag_373:\n        /* \"contracts/Market.sol\":8069:8077  betCount */\n      dup5\n        /* \"contracts/Market.sol\":8065:8066  i */\n      dup2\n        /* \"contracts/Market.sol\":8065:8077  i < betCount */\n      lt\n        /* \"contracts/Market.sol\":8049:8317  for(uint i = 0; i < betCount; i++){... */\n      iszero\n      tag_374\n      jumpi\n        /* \"contracts/Market.sol\":8105:8125  MarketBet memory bet */\n      0x00\n        /* \"contracts/Market.sol\":8128:8144  sideABetsPending */\n      0x0a\n        /* \"contracts/Market.sol\":8145:8146  i */\n      dup3\n        /* \"contracts/Market.sol\":8128:8147  sideABetsPending[i] */\n      dup2\n      sload\n      dup2\n      lt\n      tag_376\n      jumpi\n      mstore(0x00, shl(0xe0, 0x4e487b71))\n      mstore(0x04, 0x32)\n      revert(0x00, 0x24)\n    tag_376:\n      0x00\n      swap2\n      dup3\n      mstore\n      0x20\n      swap2\n      dup3\n      swap1\n      keccak256\n        /* \"contracts/Market.sol\":8105:8147  MarketBet memory bet = sideABetsPending[i] */\n      0x40\n      dup1\n      mload\n      0x60\n      dup2\n      add\n      dup3\n      mstore\n        /* \"contracts/Market.sol\":8128:8147  sideABetsPending[i] */\n      0x03\n      swap1\n      swap4\n      mul\n      swap1\n      swap2\n      add\n        /* \"contracts/Market.sol\":8105:8147  MarketBet memory bet = sideABetsPending[i] */\n      dup1\n      sload\n      sub(shl(0xa0, 0x01), 0x01)\n      and\n      dup4\n      mstore\n      0x01\n      dup2\n      add\n      sload\n      swap4\n      dup4\n      add\n      swap4\n      swap1\n      swap4\n      mstore\n      0x02\n      swap1\n      swap3\n      add\n      sload\n      0xff\n      swap1\n      dup2\n      and\n      swap3\n      dup3\n      add\n      dup4\n      swap1\n      mstore\n      swap1\n      swap3\n      pop\n        /* \"contracts/Market.sol\":8172:8188  bet.odds>maxOdds */\n      dup5\n      and\n      lt\n        /* \"contracts/Market.sol\":8169:8299  if(bet.odds>maxOdds){... */\n      iszero\n      tag_378\n      jumpi\n        /* \"contracts/Market.sol\":8225:8228  bet */\n      dup1\n        /* \"contracts/Market.sol\":8225:8233  bet.odds */\n      0x40\n      add\n      mload\n        /* \"contracts/Market.sol\":8215:8233  maxOdds = bet.odds */\n      swap3\n      pop\n        /* \"contracts/Market.sol\":8275:8276  i */\n      dup2\n        /* \"contracts/Market.sol\":8259:8276  selectedIndex = i */\n      swap4\n      pop\n        /* \"contracts/Market.sol\":8169:8299  if(bet.odds>maxOdds){... */\n    tag_378:\n      pop\n        /* \"contracts/Market.sol\":8079:8082  i++ */\n      dup1\n      tag_379\n      dup2\n      tag_317\n      jump\t// in\n    tag_379:\n      swap2\n      pop\n      pop\n        /* \"contracts/Market.sol\":8049:8317  for(uint i = 0; i < betCount; i++){... */\n      jump(tag_373)\n    tag_374:\n      pop\n        /* \"contracts/Market.sol\":8347:8352  _odds */\n      dup5\n        /* \"contracts/Market.sol\":8337:8352  maxOdds > _odds */\n      0xff\n      and\n        /* \"contracts/Market.sol\":8337:8344  maxOdds */\n      dup2\n        /* \"contracts/Market.sol\":8337:8352  maxOdds > _odds */\n      0xff\n      and\n      gt\n        /* \"contracts/Market.sol\":8334:9733  if(maxOdds > _odds) {... */\n      iszero\n      tag_380\n      jumpi\n        /* \"contracts/Market.sol\":8376:8404  MarketBet memory selectedBet */\n      0x00\n        /* \"contracts/Market.sol\":8407:8423  sideABetsPending */\n      0x0a\n        /* \"contracts/Market.sol\":8424:8437  selectedIndex */\n      dup4\n        /* \"contracts/Market.sol\":8407:8438  sideABetsPending[selectedIndex] */\n      dup2\n      sload\n      dup2\n      lt\n      tag_381\n      jumpi\n      mstore(0x00, shl(0xe0, 0x4e487b71))\n      mstore(0x04, 0x32)\n      revert(0x00, 0x24)\n    tag_381:\n      0x00\n      swap2\n      dup3\n      mstore\n      0x20\n      dup1\n      dup4\n      keccak256\n        /* \"contracts/Market.sol\":8376:8438  MarketBet memory selectedBet = sideABetsPending[selectedIndex] */\n      0x40\n      dup1\n      mload\n      0x60\n      dup2\n      add\n      dup3\n      mstore\n        /* \"contracts/Market.sol\":8407:8438  sideABetsPending[selectedIndex] */\n      0x03\n      swap1\n      swap5\n      mul\n      swap1\n      swap2\n      add\n        /* \"contracts/Market.sol\":8376:8438  MarketBet memory selectedBet = sideABetsPending[selectedIndex] */\n      dup1\n      sload\n      sub(shl(0xa0, 0x01), 0x01)\n      and\n      dup1\n      dup6\n      mstore\n      0x01\n      dup3\n      add\n      sload\n      dup6\n      dup6\n      add\n      mstore\n      0x02\n      swap1\n      swap2\n      add\n      sload\n      0xff\n      and\n      dup5\n      dup4\n      add\n      mstore\n        /* \"contracts/Market.sol\":8563:8592  selectedBetInstance.matched() */\n      dup2\n      mload\n      shl(0xe1, 0x45564e65)\n      dup2\n      mstore\n      swap2\n      mload\n        /* \"contracts/Market.sol\":8376:8438  MarketBet memory selectedBet = sideABetsPending[selectedIndex] */\n      swap4\n      swap6\n      pop\n      swap4\n        /* \"contracts/Market.sol\":8407:8438  sideABetsPending[selectedIndex] */\n      swap3\n        /* \"contracts/Market.sol\":8376:8438  MarketBet memory selectedBet = sideABetsPending[selectedIndex] */\n      dup5\n      swap3\n        /* \"contracts/Market.sol\":8563:8590  selectedBetInstance.matched */\n      0x8aac9cca\n      swap3\n        /* \"contracts/Market.sol\":8563:8592  selectedBetInstance.matched() */\n      0x04\n      dup1\n      dup3\n      add\n      swap4\n      swap2\n      dup3\n      swap1\n      sub\n      add\n      dup2\n        /* \"contracts/Market.sol\":8376:8438  MarketBet memory selectedBet = sideABetsPending[selectedIndex] */\n      dup7\n        /* \"contracts/Market.sol\":8563:8592  selectedBetInstance.matched() */\n      dup1\n      extcodesize\n      iszero\n      dup1\n      iszero\n      tag_383\n      jumpi\n      0x00\n      dup1\n      revert\n    tag_383:\n      pop\n      gas\n      staticcall\n      iszero\n      dup1\n      iszero\n      tag_385\n      jumpi\n      returndatasize\n      0x00\n      dup1\n      returndatacopy\n      revert(0x00, returndatasize)\n    tag_385:\n      pop\n      pop\n      pop\n      pop\n      mload(0x40)\n      returndatasize\n      not(0x1f)\n      0x1f\n      dup3\n      add\n      and\n      dup3\n      add\n      dup1\n      0x40\n      mstore\n      pop\n      dup2\n      add\n      swap1\n      tag_386\n      swap2\n      swap1\n      tag_115\n      jump\t// in\n    tag_386:\n        /* \"contracts/Market.sol\":8537:8592  uint matchedSelectedBet = selectedBetInstance.matched() */\n      swap1\n      pop\n        /* \"contracts/Market.sol\":8614:8631  uint offeredStake */\n      0x00\n        /* \"contracts/Market.sol\":8693:8696  100 */\n      0x64\n        /* \"contracts/Market.sol\":8678:8689  _odds - 100 */\n      tag_387\n        /* \"contracts/Market.sol\":8693:8696  100 */\n      dup2\n        /* \"contracts/Market.sol\":8678:8683  _odds */\n      dup12\n        /* \"contracts/Market.sol\":8678:8689  _odds - 100 */\n      tag_326\n      jump\t// in\n    tag_387:\n        /* \"contracts/Market.sol\":8634:8690  (selectedBet.stake - matchedSelectedBet) * (_odds - 100) */\n      0xff\n      and\n        /* \"contracts/Market.sol\":8655:8673  matchedSelectedBet */\n      dup4\n        /* \"contracts/Market.sol\":8635:8646  selectedBet */\n      dup7\n        /* \"contracts/Market.sol\":8635:8652  selectedBet.stake */\n      0x20\n      add\n      mload\n        /* \"contracts/Market.sol\":8635:8673  selectedBet.stake - matchedSelectedBet */\n      tag_388\n      swap2\n      swap1\n      tag_121\n      jump\t// in\n    tag_388:\n        /* \"contracts/Market.sol\":8634:8690  (selectedBet.stake - matchedSelectedBet) * (_odds - 100) */\n      tag_389\n      swap2\n      swap1\n      tag_197\n      jump\t// in\n    tag_389:\n        /* \"contracts/Market.sol\":8634:8696  (selectedBet.stake - matchedSelectedBet) * (_odds - 100) / 100 */\n      tag_390\n      swap2\n      swap1\n      tag_199\n      jump\t// in\n    tag_390:\n        /* \"contracts/Market.sol\":8614:8696  uint offeredStake = (selectedBet.stake - matchedSelectedBet) * (_odds - 100) / 100 */\n      swap1\n      pop\n        /* \"contracts/Market.sol\":8719:8732  uint _amountB */\n      0x00\n        /* \"contracts/Market.sol\":8772:8778  _stake */\n      dup11\n        /* \"contracts/Market.sol\":8757:8769  offeredStake */\n      dup3\n        /* \"contracts/Market.sol\":8757:8778  offeredStake > _stake */\n      gt\n        /* \"contracts/Market.sol\":8754:8944  if(offeredStake > _stake) {... */\n      iszero\n      tag_391\n      jumpi\n      pop\n        /* \"contracts/Market.sol\":8817:8823  _stake */\n      dup10\n        /* \"contracts/Market.sol\":8754:8944  if(offeredStake > _stake) {... */\n      jump(tag_392)\n    tag_391:\n      pop\n        /* \"contracts/Market.sol\":8909:8921  offeredStake */\n      dup1\n        /* \"contracts/Market.sol\":8754:8944  if(offeredStake > _stake) {... */\n    tag_392:\n        /* \"contracts/Market.sol\":8965:8978  uint _amountA */\n      0x00\n        /* \"contracts/Market.sol\":8981:8997  _amountB * _odds */\n      tag_393\n      0xff\n      dup13\n      and\n        /* \"contracts/Market.sol\":8981:8989  _amountB */\n      dup4\n        /* \"contracts/Market.sol\":8981:8997  _amountB * _odds */\n      tag_197\n      jump\t// in\n    tag_393:\n        /* \"contracts/Market.sol\":8965:8997  uint _amountA = _amountB * _odds */\n      swap1\n      pop\n        /* \"contracts/Market.sol\":9019:9032  BetPair _pair */\n      0x00\n        /* \"contracts/Market.sol\":9055:9059  this */\n      address\n        /* \"contracts/Market.sol\":9062:9073  selectedBet */\n      dup8\n        /* \"contracts/Market.sol\":9062:9084  selectedBet.betAddress */\n      0x00\n      add\n      mload\n        /* \"contracts/Market.sol\":9086:9097  _betAddress */\n      dup16\n        /* \"contracts/Market.sol\":9099:9107  _amountA */\n      dup5\n        /* \"contracts/Market.sol\":9109:9117  _amountB */\n      dup7\n        /* \"contracts/Market.sol\":9035:9118  new BetPair(address(this), selectedBet.betAddress, _betAddress, _amountA, _amountB) */\n      mload(0x40)\n      tag_394\n      swap1\n      tag_334\n      jump\t// in\n    tag_394:\n      sub(shl(0xa0, 0x01), 0x01)\n        /* \"#utility.yul\":6014:6029   */\n      swap6\n      dup7\n      and\n        /* \"#utility.yul\":5996:6030   */\n      dup2\n      mstore\n        /* \"#utility.yul\":6066:6081   */\n      swap4\n      dup6\n      and\n        /* \"#utility.yul\":6061:6063   */\n      0x20\n        /* \"#utility.yul\":6046:6064   */\n      dup6\n      add\n        /* \"#utility.yul\":6039:6082   */\n      mstore\n        /* \"#utility.yul\":6118:6133   */\n      swap4\n      swap1\n      swap2\n      and\n        /* \"#utility.yul\":6113:6115   */\n      0x40\n        /* \"#utility.yul\":6098:6116   */\n      dup4\n      add\n        /* \"#utility.yul\":6091:6134   */\n      mstore\n        /* \"#utility.yul\":6165:6167   */\n      0x60\n        /* \"#utility.yul\":6150:6168   */\n      dup3\n      add\n        /* \"#utility.yul\":6143:6177   */\n      mstore\n        /* \"#utility.yul\":6208:6211   */\n      0x80\n        /* \"#utility.yul\":6193:6212   */\n      dup2\n      add\n        /* \"#utility.yul\":6186:6221   */\n      swap2\n      swap1\n      swap2\n      mstore\n        /* \"#utility.yul\":5945:5948   */\n      0xa0\n        /* \"#utility.yul\":5930:5949   */\n      add\n        /* \"contracts/Market.sol\":9035:9118  new BetPair(address(this), selectedBet.betAddress, _betAddress, _amountA, _amountB) */\n      mload(0x40)\n      dup1\n      swap2\n      sub\n      swap1\n      0x00\n      create\n      dup1\n      iszero\n      dup1\n      iszero\n      tag_396\n      jumpi\n      returndatasize\n      0x00\n      dup1\n      returndatacopy\n      revert(0x00, returndatasize)\n    tag_396:\n      pop\n        /* \"contracts/Market.sol\":9019:9118  BetPair _pair = new BetPair(address(this), selectedBet.betAddress, _betAddress, _amountA, _amountB) */\n      swap1\n      pop\n        /* \"contracts/Market.sol\":9147:9163  sideABetsPending */\n      0x0a\n        /* \"contracts/Market.sol\":9164:9177  selectedIndex */\n      dup10\n        /* \"contracts/Market.sol\":9147:9178  sideABetsPending[selectedIndex] */\n      dup2\n      sload\n      dup2\n      lt\n      tag_397\n      jumpi\n      mstore(0x00, shl(0xe0, 0x4e487b71))\n      mstore(0x04, 0x32)\n      revert(0x00, 0x24)\n    tag_397:\n      0x00\n      swap2\n      dup3\n      mstore\n      0x20\n      dup3\n      keccak256\n      0x03\n      swap2\n      swap1\n      swap2\n      mul\n      add\n        /* \"contracts/Market.sol\":9140:9178  delete sideABetsPending[selectedIndex] */\n      dup1\n      sload\n      not(sub(shl(0xa0, 0x01), 0x01))\n      and\n      dup2\n      sstore\n      0x01\n      dup2\n      add\n      swap2\n      swap1\n      swap2\n      sstore\n      0x02\n      add\n      dup1\n      sload\n      not(0xff)\n      and\n      swap1\n      sstore\n        /* \"contracts/Market.sol\":9253:9279  _betB.setMatched(_amountB) */\n      mload(0x40)\n      shl(0xe1, 0x2d267e03)\n      dup2\n      mstore\n      0x04\n      dup2\n      add\n        /* \"#utility.yul\":10786:10811   */\n      dup5\n      swap1\n      mstore\n        /* \"contracts/Market.sol\":9219:9230  _betAddress */\n      dup15\n      swap1\n      sub(shl(0xa0, 0x01), 0x01)\n        /* \"contracts/Market.sol\":9253:9269  _betB.setMatched */\n      dup3\n      and\n      swap1\n      0x5a4cfc06\n      swap1\n        /* \"#utility.yul\":10759:10777   */\n      0x24\n      add\n        /* \"contracts/Market.sol\":9253:9279  _betB.setMatched(_amountB) */\n      0x20\n      mload(0x40)\n      dup1\n      dup4\n      sub\n      dup2\n      0x00\n      dup8\n      dup1\n      extcodesize\n      iszero\n      dup1\n      iszero\n      tag_400\n      jumpi\n      0x00\n      dup1\n      revert\n    tag_400:\n      pop\n      gas\n      call\n      iszero\n      dup1\n      iszero\n      tag_402\n      jumpi\n      returndatasize\n      0x00\n      dup1\n      returndatacopy\n      revert(0x00, returndatasize)\n    tag_402:\n      pop\n      pop\n      pop\n      pop\n      mload(0x40)\n      returndatasize\n      not(0x1f)\n      0x1f\n      dup3\n      add\n      and\n      dup3\n      add\n      dup1\n      0x40\n      mstore\n      pop\n      dup2\n      add\n      swap1\n      tag_403\n      swap2\n      swap1\n      tag_136\n      jump\t// in\n    tag_403:\n      pop\n        /* \"contracts/Market.sol\":9301:9330  _betB.addPair(address(_pair)) */\n      mload(0x40)\n      shl(0xe1, 0x615bdddb)\n      dup2\n      mstore\n      sub(shl(0xa0, 0x01), 0x01)\n        /* \"#utility.yul\":5655:5687   */\n      dup4\n      dup2\n      and\n        /* \"contracts/Market.sol\":9301:9330  _betB.addPair(address(_pair)) */\n      0x04\n      dup4\n      add\n        /* \"#utility.yul\":5637:5688   */\n      mstore\n        /* \"contracts/Market.sol\":9301:9314  _betB.addPair */\n      dup3\n      and\n      swap1\n      0xc2b7bbb6\n      swap1\n        /* \"#utility.yul\":5610:5628   */\n      0x24\n      add\n        /* \"contracts/Market.sol\":9301:9330  _betB.addPair(address(_pair)) */\n      0x20\n      mload(0x40)\n      dup1\n      dup4\n      sub\n      dup2\n      0x00\n      dup8\n      dup1\n      extcodesize\n      iszero\n      dup1\n      iszero\n      tag_405\n      jumpi\n      0x00\n      dup1\n      revert\n    tag_405:\n      pop\n      gas\n      call\n      iszero\n      dup1\n      iszero\n      tag_407\n      jumpi\n      returndatasize\n      0x00\n      dup1\n      returndatacopy\n      revert(0x00, returndatasize)\n    tag_407:\n      pop\n      pop\n      pop\n      pop\n      mload(0x40)\n      returndatasize\n      not(0x1f)\n      0x1f\n      dup3\n      add\n      and\n      dup3\n      add\n      dup1\n      0x40\n      mstore\n      pop\n      dup2\n      add\n      swap1\n      tag_408\n      swap2\n      swap1\n      tag_136\n      jump\t// in\n    tag_408:\n      pop\n        /* \"contracts/Market.sol\":9371:9393  selectedBet.betAddress */\n      dup8\n      mload\n        /* \"contracts/Market.sol\":9416:9442  _betA.setMatched(_amountA) */\n      mload(0x40)\n      shl(0xe1, 0x2d267e03)\n      dup2\n      mstore\n      0x04\n      dup2\n      add\n        /* \"#utility.yul\":10786:10811   */\n      dup6\n      swap1\n      mstore\n      sub(shl(0xa0, 0x01), 0x01)\n        /* \"contracts/Market.sol\":9416:9432  _betA.setMatched */\n      dup3\n      and\n      swap1\n      0x5a4cfc06\n      swap1\n        /* \"#utility.yul\":10759:10777   */\n      0x24\n      add\n        /* \"contracts/Market.sol\":9416:9442  _betA.setMatched(_amountA) */\n      0x20\n      mload(0x40)\n      dup1\n      dup4\n      sub\n      dup2\n      0x00\n      dup8\n      dup1\n      extcodesize\n      iszero\n      dup1\n      iszero\n      tag_410\n      jumpi\n      0x00\n      dup1\n      revert\n    tag_410:\n      pop\n      gas\n      call\n      iszero\n      dup1\n      iszero\n      tag_412\n      jumpi\n      returndatasize\n      0x00\n      dup1\n      returndatacopy\n      revert(0x00, returndatasize)\n    tag_412:\n      pop\n      pop\n      pop\n      pop\n      mload(0x40)\n      returndatasize\n      not(0x1f)\n      0x1f\n      dup3\n      add\n      and\n      dup3\n      add\n      dup1\n      0x40\n      mstore\n      pop\n      dup2\n      add\n      swap1\n      tag_413\n      swap2\n      swap1\n      tag_136\n      jump\t// in\n    tag_413:\n      pop\n        /* \"contracts/Market.sol\":9464:9493  _betA.addPair(address(_pair)) */\n      mload(0x40)\n      shl(0xe1, 0x615bdddb)\n      dup2\n      mstore\n      sub(shl(0xa0, 0x01), 0x01)\n        /* \"#utility.yul\":5655:5687   */\n      dup5\n      dup2\n      and\n        /* \"contracts/Market.sol\":9464:9493  _betA.addPair(address(_pair)) */\n      0x04\n      dup4\n      add\n        /* \"#utility.yul\":5637:5688   */\n      mstore\n        /* \"contracts/Market.sol\":9464:9477  _betA.addPair */\n      dup3\n      and\n      swap1\n      0xc2b7bbb6\n      swap1\n        /* \"#utility.yul\":5610:5628   */\n      0x24\n      add\n        /* \"contracts/Market.sol\":9464:9493  _betA.addPair(address(_pair)) */\n      0x20\n      mload(0x40)\n      dup1\n      dup4\n      sub\n      dup2\n      0x00\n      dup8\n      dup1\n      extcodesize\n      iszero\n      dup1\n      iszero\n      tag_415\n      jumpi\n      0x00\n      dup1\n      revert\n    tag_415:\n      pop\n      gas\n      call\n      iszero\n      dup1\n      iszero\n      tag_417\n      jumpi\n      returndatasize\n      0x00\n      dup1\n      returndatacopy\n      revert(0x00, returndatasize)\n    tag_417:\n      pop\n      pop\n      pop\n      pop\n      mload(0x40)\n      returndatasize\n      not(0x1f)\n      0x1f\n      dup3\n      add\n      and\n      dup3\n      add\n      dup1\n      0x40\n      mstore\n      pop\n      dup2\n      add\n      swap1\n      tag_418\n      swap2\n      swap1\n      tag_136\n      jump\t// in\n    tag_418:\n      pop\n        /* \"contracts/Market.sol\":9516:9537  _remStake -= _amountA */\n      tag_419\n        /* \"contracts/Market.sol\":9529:9537  _amountA */\n      dup5\n        /* \"contracts/Market.sol\":9516:9537  _remStake -= _amountA */\n      dup14\n      tag_121\n      jump\t// in\n    tag_419:\n      swap12\n      pop\n        /* \"contracts/Market.sol\":8334:9733  if(maxOdds > _odds) {... */\n      pop\n      pop\n      pop\n      pop\n      pop\n      pop\n      pop\n      pop\n      pop\n      jump(tag_420)\n    tag_380:\n      pop\n      pop\n        /* \"contracts/Market.sol\":9622:9686  MarketBet({betAddress: _betAddress, stake: _stake, odds: _odds}) */\n      0x40\n      dup1\n      mload\n      0x60\n      dup2\n      add\n      dup3\n      mstore\n      sub(shl(0xa0, 0x01), 0x01)\n      dup8\n      dup2\n      and\n      dup3\n      mstore\n      0x20\n      dup3\n      add\n      dup8\n      dup2\n      mstore\n      0xff\n      dup8\n      dup2\n      and\n      swap5\n      dup5\n      add\n      swap5\n      dup6\n      mstore\n        /* \"contracts/Market.sol\":9600:9616  sideBBetsPending */\n      0x0c\n        /* \"contracts/Market.sol\":9600:9687  sideBBetsPending.push(MarketBet({betAddress: _betAddress, stake: _stake, odds: _odds})) */\n      dup1\n      sload\n      0x01\n      dup2\n      add\n      dup3\n      sstore\n      0x00\n      swap2\n      swap1\n      swap2\n      mstore\n      swap4\n      mload\n      0xdf6966c971051c3d54ec59162606531493a51404a002842f56009d7e5cf4a8c7\n      0x03\n      swap1\n      swap6\n      mul\n      swap5\n      dup6\n      add\n      dup1\n      sload\n      not(sub(shl(0xa0, 0x01), 0x01))\n      and\n      swap2\n      swap1\n      swap5\n      and\n      or\n      swap1\n      swap3\n      sstore\n      mload\n      0xdf6966c971051c3d54ec59162606531493a51404a002842f56009d7e5cf4a8c8\n      dup4\n      add\n      sstore\n      swap2\n      mload\n      0xdf6966c971051c3d54ec59162606531493a51404a002842f56009d7e5cf4a8c9\n      swap1\n      swap2\n      add\n      dup1\n      sload\n      not(0xff)\n      and\n      swap2\n      swap1\n      swap3\n      and\n      or\n      swap1\n      sstore\n        /* \"contracts/Market.sol\":9709:9714  break */\n      jump(tag_309)\n        /* \"contracts/Market.sol\":8334:9733  if(maxOdds > _odds) {... */\n    tag_420:\n        /* \"contracts/Market.sol\":7924:9747  while(_remStake >= 1 * 10 ** 18){... */\n      pop\n      pop\n      jump(tag_371)\n        /* \"contracts/Market.sol\":7857:9883  if(betCount > 0){... */\n    tag_370:\n      pop\n        /* \"contracts/Market.sol\":9807:9871  MarketBet({betAddress: _betAddress, stake: _stake, odds: _odds}) */\n      0x40\n      dup1\n      mload\n      0x60\n      dup2\n      add\n      dup3\n      mstore\n      sub(shl(0xa0, 0x01), 0x01)\n      swap5\n      dup6\n      and\n      dup2\n      mstore\n      0x20\n      dup2\n      add\n      swap4\n      dup5\n      mstore\n      0xff\n      swap3\n      dup4\n      and\n      swap2\n      dup2\n      add\n      swap2\n      dup3\n      mstore\n        /* \"contracts/Market.sol\":9785:9801  sideBBetsPending */\n      0x0c\n        /* \"contracts/Market.sol\":9785:9872  sideBBetsPending.push(MarketBet({betAddress: _betAddress, stake: _stake, odds: _odds})) */\n      dup1\n      sload\n      0x01\n      dup2\n      add\n      dup3\n      sstore\n      0x00\n      swap2\n      swap1\n      swap2\n      mstore\n      swap1\n      mload\n      0xdf6966c971051c3d54ec59162606531493a51404a002842f56009d7e5cf4a8c7\n      0x03\n      swap1\n      swap3\n      mul\n      swap2\n      dup3\n      add\n      dup1\n      sload\n      not(sub(shl(0xa0, 0x01), 0x01))\n      and\n      swap2\n      swap1\n      swap7\n      and\n      or\n      swap1\n      swap5\n      sstore\n      swap2\n      mload\n      0xdf6966c971051c3d54ec59162606531493a51404a002842f56009d7e5cf4a8c8\n      dup5\n      add\n      sstore\n      swap1\n      mload\n      0xdf6966c971051c3d54ec59162606531493a51404a002842f56009d7e5cf4a8c9\n      swap1\n      swap3\n      add\n      dup1\n      sload\n      not(0xff)\n      and\n      swap3\n      swap1\n      swap2\n      and\n      swap2\n      swap1\n      swap2\n      or\n      swap1\n      sstore\n        /* \"contracts/Market.sol\":7703:9905  function _matchSideBBet(address _betAddress, uint256 _stake, uint8 _odds)... */\n      jump\t// out\n        /* \"@openzeppelin/contracts/token/ERC20/utils/SafeERC20.sol\":3747:4453  function _callOptionalReturn(IERC20 token, bytes memory data) private {... */\n    tag_301:\n        /* \"@openzeppelin/contracts/token/ERC20/utils/SafeERC20.sol\":4166:4189  bytes memory returndata */\n      0x00\n        /* \"@openzeppelin/contracts/token/ERC20/utils/SafeERC20.sol\":4192:4261  address(token).functionCall(data, \"SafeERC20: low-level call failed\") */\n      tag_425\n        /* \"@openzeppelin/contracts/token/ERC20/utils/SafeERC20.sol\":4220:4224  data */\n      dup3\n        /* \"@openzeppelin/contracts/token/ERC20/utils/SafeERC20.sol\":4192:4261  address(token).functionCall(data, \"SafeERC20: low-level call failed\") */\n      mload(0x40)\n      dup1\n      0x40\n      add\n      0x40\n      mstore\n      dup1\n      0x20\n      dup2\n      mstore\n      0x20\n      add\n      0x5361666545524332303a206c6f772d6c6576656c2063616c6c206661696c6564\n      dup2\n      mstore\n      pop\n        /* \"@openzeppelin/contracts/token/ERC20/utils/SafeERC20.sol\":4200:4205  token */\n      dup6\n      sub(shl(0xa0, 0x01), 0x01)\n        /* \"@openzeppelin/contracts/token/ERC20/utils/SafeERC20.sol\":4192:4219  address(token).functionCall */\n      and\n      tag_426\n      swap1\n        /* \"@openzeppelin/contracts/token/ERC20/utils/SafeERC20.sol\":4192:4261  address(token).functionCall(data, \"SafeERC20: low-level call failed\") */\n      swap3\n      swap2\n      swap1\n      0xffffffff\n      and\n      jump\t// in\n    tag_425:\n        /* \"@openzeppelin/contracts/token/ERC20/utils/SafeERC20.sol\":4275:4292  returndata.length */\n      dup1\n      mload\n        /* \"@openzeppelin/contracts/token/ERC20/utils/SafeERC20.sol\":4166:4261  bytes memory returndata = address(token).functionCall(data, \"SafeERC20: low-level call failed\") */\n      swap1\n      swap2\n      pop\n        /* \"@openzeppelin/contracts/token/ERC20/utils/SafeERC20.sol\":4275:4296  returndata.length > 0 */\n      iszero\n        /* \"@openzeppelin/contracts/token/ERC20/utils/SafeERC20.sol\":4271:4447  if (returndata.length > 0) {... */\n      tag_298\n      jumpi\n        /* \"@openzeppelin/contracts/token/ERC20/utils/SafeERC20.sol\":4370:4380  returndata */\n      dup1\n        /* \"@openzeppelin/contracts/token/ERC20/utils/SafeERC20.sol\":4359:4389  abi.decode(returndata, (bool)) */\n      dup1\n      0x20\n      add\n      swap1\n      mload\n      dup2\n      add\n      swap1\n      tag_428\n      swap2\n      swap1\n      tag_136\n      jump\t// in\n    tag_428:\n        /* \"@openzeppelin/contracts/token/ERC20/utils/SafeERC20.sol\":4351:4436  require(abi.decode(returndata, (bool)), \"SafeERC20: ERC20 operation did not succeed\") */\n      tag_298\n      jumpi\n      mload(0x40)\n      shl(0xe5, 0x461bcd)\n      dup2\n      mstore\n        /* \"#utility.yul\":10431:10433   */\n      0x20\n        /* \"@openzeppelin/contracts/token/ERC20/utils/SafeERC20.sol\":4351:4436  require(abi.decode(returndata, (bool)), \"SafeERC20: ERC20 operation did not succeed\") */\n      0x04\n      dup3\n      add\n        /* \"#utility.yul\":10413:10434   */\n      mstore\n        /* \"#utility.yul\":10470:10472   */\n      0x2a\n        /* \"#utility.yul\":10450:10468   */\n      0x24\n      dup3\n      add\n        /* \"#utility.yul\":10443:10473   */\n      mstore\n        /* \"#utility.yul\":10509:10543   */\n      0x5361666545524332303a204552433230206f7065726174696f6e20646964206e\n        /* \"#utility.yul\":10489:10507   */\n      0x44\n      dup3\n      add\n        /* \"#utility.yul\":10482:10544   */\n      mstore\n      shl(0xb2, 0x1bdd081cdd58d8d95959)\n        /* \"#utility.yul\":10560:10578   */\n      0x64\n      dup3\n      add\n        /* \"#utility.yul\":10553:10593   */\n      mstore\n        /* \"#utility.yul\":10610:10629   */\n      0x84\n      add\n        /* \"@openzeppelin/contracts/token/ERC20/utils/SafeERC20.sol\":4351:4436  require(abi.decode(returndata, (bool)), \"SafeERC20: ERC20 operation did not succeed\") */\n      tag_108\n        /* \"#utility.yul\":10403:10635   */\n      jump\n        /* \"@openzeppelin/contracts/utils/Address.sol\":3861:4084  function functionCall(... */\n    tag_426:\n        /* \"@openzeppelin/contracts/utils/Address.sol\":3994:4006  bytes memory */\n      0x60\n        /* \"@openzeppelin/contracts/utils/Address.sol\":4025:4077  functionCallWithValue(target, data, 0, errorMessage) */\n      tag_433\n        /* \"@openzeppelin/contracts/utils/Address.sol\":4047:4053  target */\n      dup5\n        /* \"@openzeppelin/contracts/utils/Address.sol\":4055:4059  data */\n      dup5\n        /* \"@openzeppelin/contracts/utils/Address.sol\":4061:4062  0 */\n      0x00\n        /* \"@openzeppelin/contracts/utils/Address.sol\":4064:4076  errorMessage */\n      dup6\n        /* \"@openzeppelin/contracts/utils/Address.sol\":4025:4046  functionCallWithValue */\n      tag_434\n        /* \"@openzeppelin/contracts/utils/Address.sol\":4025:4077  functionCallWithValue(target, data, 0, errorMessage) */\n      jump\t// in\n    tag_433:\n        /* \"@openzeppelin/contracts/utils/Address.sol\":4018:4077  return functionCallWithValue(target, data, 0, errorMessage) */\n      swap5\n        /* \"@openzeppelin/contracts/utils/Address.sol\":3861:4084  function functionCall(... */\n      swap4\n      pop\n      pop\n      pop\n      pop\n      jump\t// out\n        /* \"@openzeppelin/contracts/utils/Address.sol\":4948:5447  function functionCallWithValue(... */\n    tag_434:\n        /* \"@openzeppelin/contracts/utils/Address.sol\":5113:5125  bytes memory */\n      0x60\n        /* \"@openzeppelin/contracts/utils/Address.sol\":5170:5175  value */\n      dup3\n        /* \"@openzeppelin/contracts/utils/Address.sol\":5145:5166  address(this).balance */\n      selfbalance\n        /* \"@openzeppelin/contracts/utils/Address.sol\":5145:5175  address(this).balance >= value */\n      lt\n      iszero\n        /* \"@openzeppelin/contracts/utils/Address.sol\":5137:5218  require(address(this).balance >= value, \"Address: insufficient balance for call\") */\n      tag_436\n      jumpi\n      mload(0x40)\n      shl(0xe5, 0x461bcd)\n      dup2\n      mstore\n        /* \"#utility.yul\":8998:9000   */\n      0x20\n        /* \"@openzeppelin/contracts/utils/Address.sol\":5137:5218  require(address(this).balance >= value, \"Address: insufficient balance for call\") */\n      0x04\n      dup3\n      add\n        /* \"#utility.yul\":8980:9001   */\n      mstore\n        /* \"#utility.yul\":9037:9039   */\n      0x26\n        /* \"#utility.yul\":9017:9035   */\n      0x24\n      dup3\n      add\n        /* \"#utility.yul\":9010:9040   */\n      mstore\n        /* \"#utility.yul\":9076:9110   */\n      0x416464726573733a20696e73756666696369656e742062616c616e636520666f\n        /* \"#utility.yul\":9056:9074   */\n      0x44\n      dup3\n      add\n        /* \"#utility.yul\":9049:9111   */\n      mstore\n      shl(0xd2, 0x1c8818d85b1b)\n        /* \"#utility.yul\":9127:9145   */\n      0x64\n      dup3\n      add\n        /* \"#utility.yul\":9120:9156   */\n      mstore\n        /* \"#utility.yul\":9173:9192   */\n      0x84\n      add\n        /* \"@openzeppelin/contracts/utils/Address.sol\":5137:5218  require(address(this).balance >= value, \"Address: insufficient balance for call\") */\n      tag_108\n        /* \"#utility.yul\":8970:9198   */\n      jump\n        /* \"@openzeppelin/contracts/utils/Address.sol\":5137:5218  require(address(this).balance >= value, \"Address: insufficient balance for call\") */\n    tag_436:\n      sub(shl(0xa0, 0x01), 0x01)\n        /* \"@openzeppelin/contracts/utils/Address.sol\":1465:1484  account.code.length */\n      dup6\n      and\n      extcodesize\n        /* \"@openzeppelin/contracts/utils/Address.sol\":5228:5288  require(isContract(target), \"Address: call to non-contract\") */\n      tag_441\n      jumpi\n      mload(0x40)\n      shl(0xe5, 0x461bcd)\n      dup2\n      mstore\n        /* \"#utility.yul\":10073:10075   */\n      0x20\n        /* \"@openzeppelin/contracts/utils/Address.sol\":5228:5288  require(isContract(target), \"Address: call to non-contract\") */\n      0x04\n      dup3\n      add\n        /* \"#utility.yul\":10055:10076   */\n      mstore\n        /* \"#utility.yul\":10112:10114   */\n      0x1d\n        /* \"#utility.yul\":10092:10110   */\n      0x24\n      dup3\n      add\n        /* \"#utility.yul\":10085:10115   */\n      mstore\n        /* \"#utility.yul\":10151:10182   */\n      0x416464726573733a2063616c6c20746f206e6f6e2d636f6e7472616374000000\n        /* \"#utility.yul\":10131:10149   */\n      0x44\n      dup3\n      add\n        /* \"#utility.yul\":10124:10183   */\n      mstore\n        /* \"#utility.yul\":10200:10218   */\n      0x64\n      add\n        /* \"@openzeppelin/contracts/utils/Address.sol\":5228:5288  require(isContract(target), \"Address: call to non-contract\") */\n      tag_108\n        /* \"#utility.yul\":10045:10224   */\n      jump\n        /* \"@openzeppelin/contracts/utils/Address.sol\":5228:5288  require(isContract(target), \"Address: call to non-contract\") */\n    tag_441:\n        /* \"@openzeppelin/contracts/utils/Address.sol\":5300:5312  bool success */\n      0x00\n        /* \"@openzeppelin/contracts/utils/Address.sol\":5314:5337  bytes memory returndata */\n      dup1\n        /* \"@openzeppelin/contracts/utils/Address.sol\":5341:5347  target */\n      dup7\n      sub(shl(0xa0, 0x01), 0x01)\n        /* \"@openzeppelin/contracts/utils/Address.sol\":5341:5352  target.call */\n      and\n        /* \"@openzeppelin/contracts/utils/Address.sol\":5360:5365  value */\n      dup6\n        /* \"@openzeppelin/contracts/utils/Address.sol\":5367:5371  data */\n      dup8\n        /* \"@openzeppelin/contracts/utils/Address.sol\":5341:5372  target.call{value: value}(data) */\n      mload(0x40)\n      tag_444\n      swap2\n      swap1\n      tag_445\n      jump\t// in\n    tag_444:\n      0x00\n      mload(0x40)\n      dup1\n      dup4\n      sub\n      dup2\n      dup6\n      dup8\n      gas\n      call\n      swap3\n      pop\n      pop\n      pop\n      returndatasize\n      dup1\n      0x00\n      dup2\n      eq\n      tag_448\n      jumpi\n      mload(0x40)\n      swap2\n      pop\n      and(add(returndatasize, 0x3f), not(0x1f))\n      dup3\n      add\n      0x40\n      mstore\n      returndatasize\n      dup3\n      mstore\n      returndatasize\n      0x00\n      0x20\n      dup5\n      add\n      returndatacopy\n      jump(tag_447)\n    tag_448:\n      0x60\n      swap2\n      pop\n    tag_447:\n      pop\n        /* \"@openzeppelin/contracts/utils/Address.sol\":5299:5372  (bool success, bytes memory returndata) = target.call{value: value}(data) */\n      swap2\n      pop\n      swap2\n      pop\n        /* \"@openzeppelin/contracts/utils/Address.sol\":5389:5440  verifyCallResult(success, returndata, errorMessage) */\n      tag_449\n        /* \"@openzeppelin/contracts/utils/Address.sol\":5406:5413  success */\n      dup3\n        /* \"@openzeppelin/contracts/utils/Address.sol\":5415:5425  returndata */\n      dup3\n        /* \"@openzeppelin/contracts/utils/Address.sol\":5427:5439  errorMessage */\n      dup7\n        /* \"@openzeppelin/contracts/utils/Address.sol\":5389:5405  verifyCallResult */\n      tag_450\n        /* \"@openzeppelin/contracts/utils/Address.sol\":5389:5440  verifyCallResult(success, returndata, errorMessage) */\n      jump\t// in\n    tag_449:\n        /* \"@openzeppelin/contracts/utils/Address.sol\":5382:5440  return verifyCallResult(success, returndata, errorMessage) */\n      swap8\n        /* \"@openzeppelin/contracts/utils/Address.sol\":4948:5447  function functionCallWithValue(... */\n      swap7\n      pop\n      pop\n      pop\n      pop\n      pop\n      pop\n      pop\n      jump\t// out\n        /* \"@openzeppelin/contracts/utils/Address.sol\":7561:8303  function verifyCallResult(... */\n    tag_450:\n        /* \"@openzeppelin/contracts/utils/Address.sol\":7707:7719  bytes memory */\n      0x60\n        /* \"@openzeppelin/contracts/utils/Address.sol\":7735:7742  success */\n      dup4\n        /* \"@openzeppelin/contracts/utils/Address.sol\":7731:8297  if (success) {... */\n      iszero\n      tag_453\n      jumpi\n      pop\n        /* \"@openzeppelin/contracts/utils/Address.sol\":7765:7775  returndata */\n      dup2\n        /* \"@openzeppelin/contracts/utils/Address.sol\":7758:7775  return returndata */\n      jump(tag_238)\n        /* \"@openzeppelin/contracts/utils/Address.sol\":7731:8297  if (success) {... */\n    tag_453:\n        /* \"@openzeppelin/contracts/utils/Address.sol\":7876:7893  returndata.length */\n      dup3\n      mload\n        /* \"@openzeppelin/contracts/utils/Address.sol\":7876:7897  returndata.length > 0 */\n      iszero\n        /* \"@openzeppelin/contracts/utils/Address.sol\":7872:8287  if (returndata.length > 0) {... */\n      tag_455\n      jumpi\n        /* \"@openzeppelin/contracts/utils/Address.sol\":8120:8130  returndata */\n      dup3\n        /* \"@openzeppelin/contracts/utils/Address.sol\":8114:8131  mload(returndata) */\n      mload\n        /* \"@openzeppelin/contracts/utils/Address.sol\":8180:8195  returndata_size */\n      dup1\n        /* \"@openzeppelin/contracts/utils/Address.sol\":8167:8177  returndata */\n      dup5\n        /* \"@openzeppelin/contracts/utils/Address.sol\":8163:8165  32 */\n      0x20\n        /* \"@openzeppelin/contracts/utils/Address.sol\":8159:8178  add(32, returndata) */\n      add\n        /* \"@openzeppelin/contracts/utils/Address.sol\":8152:8196  revert(add(32, returndata), returndata_size) */\n      revert\n        /* \"@openzeppelin/contracts/utils/Address.sol\":8069:8214  {... */\n    tag_455:\n        /* \"@openzeppelin/contracts/utils/Address.sol\":8259:8271  errorMessage */\n      dup2\n        /* \"@openzeppelin/contracts/utils/Address.sol\":8252:8272  revert(errorMessage) */\n      mload(0x40)\n      shl(0xe5, 0x461bcd)\n      dup2\n      mstore\n      0x04\n      add\n      tag_108\n      swap2\n      swap1\n      tag_34\n      jump\t// in\n    tag_240:\n      dup3\n      dup1\n      sload\n      tag_458\n      swap1\n      tag_138\n      jump\t// in\n    tag_458:\n      swap1\n      0x00\n      mstore\n      keccak256(0x00, 0x20)\n      swap1\n      0x1f\n      add\n      0x20\n      swap1\n      div\n      dup2\n      add\n      swap3\n      dup3\n      tag_460\n      jumpi\n      0x00\n      dup6\n      sstore\n      jump(tag_463)\n    tag_460:\n      dup3\n      0x1f\n      lt\n      tag_461\n      jumpi\n      dup1\n      mload\n      not(0xff)\n      and\n      dup4\n      dup1\n      add\n      or\n      dup6\n      sstore\n      jump(tag_463)\n    tag_461:\n      dup3\n      dup1\n      add\n      0x01\n      add\n      dup6\n      sstore\n      dup3\n      iszero\n      tag_463\n      jumpi\n      swap2\n      dup3\n      add\n    tag_462:\n      dup3\n      dup2\n      gt\n      iszero\n      tag_463\n      jumpi\n      dup3\n      mload\n      dup3\n      sstore\n      swap2\n      0x20\n      add\n      swap2\n      swap1\n      0x01\n      add\n      swap1\n      jump(tag_462)\n    tag_463:\n      pop\n      tag_464\n      swap3\n      swap2\n      pop\n      tag_465\n      jump\t// in\n    tag_464:\n      pop\n      swap1\n      jump\t// out\n    tag_334:\n      dataSize(sub_0)\n      dup1\n      dataOffset(sub_0)\n      dup4\n      codecopy\n      add\n      swap1\n      jump\t// out\n    tag_465:\n    tag_466:\n      dup1\n      dup3\n      gt\n      iszero\n      tag_464\n      jumpi\n      0x00\n      dup2\n      sstore\n      0x01\n      add\n      jump(tag_466)\n        /* \"#utility.yul\":14:498   */\n    tag_469:\n        /* \"#utility.yul\":57:62   */\n      0x00\n        /* \"#utility.yul\":110:113   */\n      dup3\n        /* \"#utility.yul\":103:107   */\n      0x1f\n        /* \"#utility.yul\":95:101   */\n      dup4\n        /* \"#utility.yul\":91:108   */\n      add\n        /* \"#utility.yul\":87:114   */\n      slt\n        /* \"#utility.yul\":77:79   */\n      tag_471\n      jumpi\n        /* \"#utility.yul\":132:137   */\n      dup1\n        /* \"#utility.yul\":125:130   */\n      dup2\n        /* \"#utility.yul\":118:138   */\n      revert\n        /* \"#utility.yul\":77:79   */\n    tag_471:\n        /* \"#utility.yul\":172:178   */\n      dup2\n        /* \"#utility.yul\":159:179   */\n      calldataload\n        /* \"#utility.yul\":203:252   */\n      tag_472\n        /* \"#utility.yul\":219:251   */\n      tag_473\n        /* \"#utility.yul\":248:250   */\n      dup3\n        /* \"#utility.yul\":219:251   */\n      tag_474\n      jump\t// in\n    tag_473:\n        /* \"#utility.yul\":203:252   */\n      tag_475\n      jump\t// in\n    tag_472:\n        /* \"#utility.yul\":277:279   */\n      dup2\n        /* \"#utility.yul\":268:275   */\n      dup2\n        /* \"#utility.yul\":261:280   */\n      mstore\n        /* \"#utility.yul\":323:326   */\n      dup5\n        /* \"#utility.yul\":316:320   */\n      0x20\n        /* \"#utility.yul\":311:313   */\n      dup4\n        /* \"#utility.yul\":303:309   */\n      dup7\n        /* \"#utility.yul\":299:314   */\n      add\n        /* \"#utility.yul\":295:321   */\n      add\n        /* \"#utility.yul\":292:327   */\n      gt\n        /* \"#utility.yul\":289:291   */\n      iszero\n      tag_476\n      jumpi\n        /* \"#utility.yul\":344:349   */\n      dup3\n        /* \"#utility.yul\":337:342   */\n      dup4\n        /* \"#utility.yul\":330:350   */\n      revert\n        /* \"#utility.yul\":289:291   */\n    tag_476:\n        /* \"#utility.yul\":413:415   */\n      dup2\n        /* \"#utility.yul\":406:410   */\n      0x20\n        /* \"#utility.yul\":398:404   */\n      dup6\n        /* \"#utility.yul\":394:411   */\n      add\n        /* \"#utility.yul\":387:391   */\n      0x20\n        /* \"#utility.yul\":378:385   */\n      dup4\n        /* \"#utility.yul\":374:392   */\n      add\n        /* \"#utility.yul\":361:416   */\n      calldatacopy\n        /* \"#utility.yul\":436:452   */\n      swap1\n      dup2\n      add\n        /* \"#utility.yul\":454:458   */\n      0x20\n        /* \"#utility.yul\":432:459   */\n      add\n        /* \"#utility.yul\":425:467   */\n      swap2\n      swap1\n      swap2\n      mstore\n        /* \"#utility.yul\":440:447   */\n      swap3\n        /* \"#utility.yul\":67:498   */\n      swap2\n      pop\n      pop\n      jump\t// out\n        /* \"#utility.yul\":503:760   */\n    tag_27:\n        /* \"#utility.yul\":562:568   */\n      0x00\n        /* \"#utility.yul\":615:617   */\n      0x20\n        /* \"#utility.yul\":603:612   */\n      dup3\n        /* \"#utility.yul\":594:601   */\n      dup5\n        /* \"#utility.yul\":590:613   */\n      sub\n        /* \"#utility.yul\":586:618   */\n      slt\n        /* \"#utility.yul\":583:585   */\n      iszero\n      tag_478\n      jumpi\n        /* \"#utility.yul\":636:642   */\n      dup1\n        /* \"#utility.yul\":628:634   */\n      dup2\n        /* \"#utility.yul\":621:643   */\n      revert\n        /* \"#utility.yul\":583:585   */\n    tag_478:\n        /* \"#utility.yul\":680:689   */\n      dup2\n        /* \"#utility.yul\":667:690   */\n      calldataload\n        /* \"#utility.yul\":699:730   */\n      tag_238\n        /* \"#utility.yul\":724:729   */\n      dup2\n        /* \"#utility.yul\":699:730   */\n      tag_480\n      jump\t// in\n        /* \"#utility.yul\":765:1026   */\n    tag_106:\n        /* \"#utility.yul\":835:841   */\n      0x00\n        /* \"#utility.yul\":888:890   */\n      0x20\n        /* \"#utility.yul\":876:885   */\n      dup3\n        /* \"#utility.yul\":867:874   */\n      dup5\n        /* \"#utility.yul\":863:886   */\n      sub\n        /* \"#utility.yul\":859:891   */\n      slt\n        /* \"#utility.yul\":856:858   */\n      iszero\n      tag_482\n      jumpi\n        /* \"#utility.yul\":909:915   */\n      dup1\n        /* \"#utility.yul\":901:907   */\n      dup2\n        /* \"#utility.yul\":894:916   */\n      revert\n        /* \"#utility.yul\":856:858   */\n    tag_482:\n        /* \"#utility.yul\":946:955   */\n      dup2\n        /* \"#utility.yul\":940:956   */\n      mload\n        /* \"#utility.yul\":965:996   */\n      tag_238\n        /* \"#utility.yul\":990:995   */\n      dup2\n        /* \"#utility.yul\":965:996   */\n      tag_480\n      jump\t// in\n        /* \"#utility.yul\":1031:1894   */\n    tag_73:\n        /* \"#utility.yul\":1134:1140   */\n      0x00\n        /* \"#utility.yul\":1142:1148   */\n      dup1\n        /* \"#utility.yul\":1150:1156   */\n      0x00\n        /* \"#utility.yul\":1158:1164   */\n      dup1\n        /* \"#utility.yul\":1166:1172   */\n      0x00\n        /* \"#utility.yul\":1219:1222   */\n      0xa0\n        /* \"#utility.yul\":1207:1216   */\n      dup7\n        /* \"#utility.yul\":1198:1205   */\n      dup9\n        /* \"#utility.yul\":1194:1217   */\n      sub\n        /* \"#utility.yul\":1190:1223   */\n      slt\n        /* \"#utility.yul\":1187:1189   */\n      iszero\n      tag_485\n      jumpi\n        /* \"#utility.yul\":1241:1247   */\n      dup1\n        /* \"#utility.yul\":1233:1239   */\n      dup2\n        /* \"#utility.yul\":1226:1248   */\n      revert\n        /* \"#utility.yul\":1187:1189   */\n    tag_485:\n        /* \"#utility.yul\":1285:1294   */\n      dup6\n        /* \"#utility.yul\":1272:1295   */\n      calldataload\n        /* \"#utility.yul\":1304:1335   */\n      tag_486\n        /* \"#utility.yul\":1329:1334   */\n      dup2\n        /* \"#utility.yul\":1304:1335   */\n      tag_480\n      jump\t// in\n    tag_486:\n        /* \"#utility.yul\":1354:1359   */\n      swap5\n      pop\n        /* \"#utility.yul\":1411:1413   */\n      0x20\n        /* \"#utility.yul\":1396:1414   */\n      dup7\n      add\n        /* \"#utility.yul\":1383:1415   */\n      calldataload\n        /* \"#utility.yul\":1424:1457   */\n      tag_487\n        /* \"#utility.yul\":1383:1415   */\n      dup2\n        /* \"#utility.yul\":1424:1457   */\n      tag_480\n      jump\t// in\n    tag_487:\n        /* \"#utility.yul\":1476:1483   */\n      swap4\n      pop\n        /* \"#utility.yul\":1530:1532   */\n      0x40\n        /* \"#utility.yul\":1515:1533   */\n      dup7\n      add\n        /* \"#utility.yul\":1502:1534   */\n      calldataload\n      swap3\n      pop\n        /* \"#utility.yul\":1586:1588   */\n      0x60\n        /* \"#utility.yul\":1571:1589   */\n      dup7\n      add\n        /* \"#utility.yul\":1558:1590   */\n      calldataload\n        /* \"#utility.yul\":1634:1638   */\n      0xff\n        /* \"#utility.yul\":1621:1639   */\n      dup2\n      and\n        /* \"#utility.yul\":1609:1640   */\n      dup2\n      eq\n        /* \"#utility.yul\":1599:1601   */\n      tag_488\n      jumpi\n        /* \"#utility.yul\":1659:1665   */\n      dup2\n        /* \"#utility.yul\":1651:1657   */\n      dup3\n        /* \"#utility.yul\":1644:1666   */\n      revert\n        /* \"#utility.yul\":1599:1601   */\n    tag_488:\n        /* \"#utility.yul\":1687:1694   */\n      swap2\n      pop\n        /* \"#utility.yul\":1745:1748   */\n      0x80\n        /* \"#utility.yul\":1730:1749   */\n      dup7\n      add\n        /* \"#utility.yul\":1717:1750   */\n      calldataload\n        /* \"#utility.yul\":1773:1791   */\n      0xffffffffffffffff\n        /* \"#utility.yul\":1762:1792   */\n      dup2\n      gt\n        /* \"#utility.yul\":1759:1761   */\n      iszero\n      tag_489\n      jumpi\n        /* \"#utility.yul\":1810:1816   */\n      dup2\n        /* \"#utility.yul\":1802:1808   */\n      dup3\n        /* \"#utility.yul\":1795:1817   */\n      revert\n        /* \"#utility.yul\":1759:1761   */\n    tag_489:\n        /* \"#utility.yul\":1838:1888   */\n      tag_490\n        /* \"#utility.yul\":1880:1887   */\n      dup9\n        /* \"#utility.yul\":1871:1877   */\n      dup3\n        /* \"#utility.yul\":1860:1869   */\n      dup10\n        /* \"#utility.yul\":1856:1878   */\n      add\n        /* \"#utility.yul\":1838:1888   */\n      tag_469\n      jump\t// in\n    tag_490:\n        /* \"#utility.yul\":1828:1888   */\n      swap2\n      pop\n      pop\n        /* \"#utility.yul\":1177:1894   */\n      swap3\n      swap6\n      pop\n      swap3\n      swap6\n      swap1\n      swap4\n      pop\n      jump\t// out\n        /* \"#utility.yul\":1899:2196   */\n    tag_136:\n        /* \"#utility.yul\":1966:1972   */\n      0x00\n        /* \"#utility.yul\":2019:2021   */\n      0x20\n        /* \"#utility.yul\":2007:2016   */\n      dup3\n        /* \"#utility.yul\":1998:2005   */\n      dup5\n        /* \"#utility.yul\":1994:2017   */\n      sub\n        /* \"#utility.yul\":1990:2022   */\n      slt\n        /* \"#utility.yul\":1987:1989   */\n      iszero\n      tag_492\n      jumpi\n        /* \"#utility.yul\":2040:2046   */\n      dup1\n        /* \"#utility.yul\":2032:2038   */\n      dup2\n        /* \"#utility.yul\":2025:2047   */\n      revert\n        /* \"#utility.yul\":1987:1989   */\n    tag_492:\n        /* \"#utility.yul\":2077:2086   */\n      dup2\n        /* \"#utility.yul\":2071:2087   */\n      mload\n        /* \"#utility.yul\":2130:2135   */\n      dup1\n        /* \"#utility.yul\":2123:2136   */\n      iszero\n        /* \"#utility.yul\":2116:2137   */\n      iszero\n        /* \"#utility.yul\":2109:2114   */\n      dup2\n        /* \"#utility.yul\":2106:2138   */\n      eq\n        /* \"#utility.yul\":2096:2098   */\n      tag_238\n      jumpi\n        /* \"#utility.yul\":2157:2163   */\n      dup2\n        /* \"#utility.yul\":2149:2155   */\n      dup3\n        /* \"#utility.yul\":2142:2164   */\n      revert\n        /* \"#utility.yul\":2201:2543   */\n    tag_81:\n        /* \"#utility.yul\":2270:2276   */\n      0x00\n        /* \"#utility.yul\":2323:2325   */\n      0x20\n        /* \"#utility.yul\":2311:2320   */\n      dup3\n        /* \"#utility.yul\":2302:2309   */\n      dup5\n        /* \"#utility.yul\":2298:2321   */\n      sub\n        /* \"#utility.yul\":2294:2326   */\n      slt\n        /* \"#utility.yul\":2291:2293   */\n      iszero\n      tag_495\n      jumpi\n        /* \"#utility.yul\":2344:2350   */\n      dup1\n        /* \"#utility.yul\":2336:2342   */\n      dup2\n        /* \"#utility.yul\":2329:2351   */\n      revert\n        /* \"#utility.yul\":2291:2293   */\n    tag_495:\n        /* \"#utility.yul\":2389:2398   */\n      dup2\n        /* \"#utility.yul\":2376:2399   */\n      calldataload\n        /* \"#utility.yul\":2422:2440   */\n      0xffffffffffffffff\n        /* \"#utility.yul\":2414:2420   */\n      dup2\n        /* \"#utility.yul\":2411:2441   */\n      gt\n        /* \"#utility.yul\":2408:2410   */\n      iszero\n      tag_496\n      jumpi\n        /* \"#utility.yul\":2459:2465   */\n      dup2\n        /* \"#utility.yul\":2451:2457   */\n      dup3\n        /* \"#utility.yul\":2444:2466   */\n      revert\n        /* \"#utility.yul\":2408:2410   */\n    tag_496:\n        /* \"#utility.yul\":2487:2537   */\n      tag_433\n        /* \"#utility.yul\":2529:2536   */\n      dup5\n        /* \"#utility.yul\":2520:2526   */\n      dup3\n        /* \"#utility.yul\":2509:2518   */\n      dup6\n        /* \"#utility.yul\":2505:2527   */\n      add\n        /* \"#utility.yul\":2487:2537   */\n      tag_469\n      jump\t// in\n        /* \"#utility.yul\":2548:3224   */\n    tag_191:\n        /* \"#utility.yul\":2628:2634   */\n      0x00\n        /* \"#utility.yul\":2681:2683   */\n      0x20\n        /* \"#utility.yul\":2669:2678   */\n      dup3\n        /* \"#utility.yul\":2660:2667   */\n      dup5\n        /* \"#utility.yul\":2656:2679   */\n      sub\n        /* \"#utility.yul\":2652:2684   */\n      slt\n        /* \"#utility.yul\":2649:2651   */\n      iszero\n      tag_499\n      jumpi\n        /* \"#utility.yul\":2702:2708   */\n      dup1\n        /* \"#utility.yul\":2694:2700   */\n      dup2\n        /* \"#utility.yul\":2687:2709   */\n      revert\n        /* \"#utility.yul\":2649:2651   */\n    tag_499:\n        /* \"#utility.yul\":2740:2749   */\n      dup2\n        /* \"#utility.yul\":2734:2750   */\n      mload\n        /* \"#utility.yul\":2773:2791   */\n      0xffffffffffffffff\n        /* \"#utility.yul\":2765:2771   */\n      dup2\n        /* \"#utility.yul\":2762:2792   */\n      gt\n        /* \"#utility.yul\":2759:2761   */\n      iszero\n      tag_500\n      jumpi\n        /* \"#utility.yul\":2810:2816   */\n      dup2\n        /* \"#utility.yul\":2802:2808   */\n      dup3\n        /* \"#utility.yul\":2795:2817   */\n      revert\n        /* \"#utility.yul\":2759:2761   */\n    tag_500:\n        /* \"#utility.yul\":2838:2860   */\n      dup3\n      add\n        /* \"#utility.yul\":2891:2895   */\n      0x1f\n        /* \"#utility.yul\":2883:2896   */\n      dup2\n      add\n        /* \"#utility.yul\":2879:2906   */\n      dup5\n      sgt\n        /* \"#utility.yul\":2869:2871   */\n      tag_501\n      jumpi\n        /* \"#utility.yul\":2925:2931   */\n      dup2\n        /* \"#utility.yul\":2917:2923   */\n      dup3\n        /* \"#utility.yul\":2910:2932   */\n      revert\n        /* \"#utility.yul\":2869:2871   */\n    tag_501:\n        /* \"#utility.yul\":2959:2961   */\n      dup1\n        /* \"#utility.yul\":2953:2962   */\n      mload\n        /* \"#utility.yul\":2984:3033   */\n      tag_502\n        /* \"#utility.yul\":3000:3032   */\n      tag_473\n        /* \"#utility.yul\":3029:3031   */\n      dup3\n        /* \"#utility.yul\":3000:3032   */\n      tag_474\n      jump\t// in\n        /* \"#utility.yul\":2984:3033   */\n    tag_502:\n        /* \"#utility.yul\":3056:3058   */\n      dup2\n        /* \"#utility.yul\":3049:3054   */\n      dup2\n        /* \"#utility.yul\":3042:3059   */\n      mstore\n        /* \"#utility.yul\":3096:3103   */\n      dup6\n        /* \"#utility.yul\":3091:3093   */\n      0x20\n        /* \"#utility.yul\":3086:3088   */\n      dup4\n        /* \"#utility.yul\":3082:3084   */\n      dup6\n        /* \"#utility.yul\":3078:3089   */\n      add\n        /* \"#utility.yul\":3074:3094   */\n      add\n        /* \"#utility.yul\":3071:3104   */\n      gt\n        /* \"#utility.yul\":3068:3070   */\n      iszero\n      tag_504\n      jumpi\n        /* \"#utility.yul\":3122:3128   */\n      dup4\n        /* \"#utility.yul\":3114:3120   */\n      dup5\n        /* \"#utility.yul\":3107:3129   */\n      revert\n        /* \"#utility.yul\":3068:3070   */\n    tag_504:\n        /* \"#utility.yul\":3140:3194   */\n      tag_505\n        /* \"#utility.yul\":3191:3193   */\n      dup3\n        /* \"#utility.yul\":3186:3188   */\n      0x20\n        /* \"#utility.yul\":3179:3184   */\n      dup4\n        /* \"#utility.yul\":3175:3189   */\n      add\n        /* \"#utility.yul\":3170:3172   */\n      0x20\n        /* \"#utility.yul\":3166:3168   */\n      dup7\n        /* \"#utility.yul\":3162:3173   */\n      add\n        /* \"#utility.yul\":3140:3194   */\n      tag_506\n      jump\t// in\n    tag_505:\n        /* \"#utility.yul\":3213:3218   */\n      swap6\n        /* \"#utility.yul\":2639:3224   */\n      swap5\n      pop\n      pop\n      pop\n      pop\n      pop\n      jump\t// out\n        /* \"#utility.yul\":3229:4012   */\n    tag_59:\n        /* \"#utility.yul\":3336:3342   */\n      0x00\n        /* \"#utility.yul\":3344:3350   */\n      dup1\n        /* \"#utility.yul\":3352:3358   */\n      0x00\n        /* \"#utility.yul\":3405:3407   */\n      0x60\n        /* \"#utility.yul\":3393:3402   */\n      dup5\n        /* \"#utility.yul\":3384:3391   */\n      dup7\n        /* \"#utility.yul\":3380:3403   */\n      sub\n        /* \"#utility.yul\":3376:3408   */\n      slt\n        /* \"#utility.yul\":3373:3375   */\n      iszero\n      tag_508\n      jumpi\n        /* \"#utility.yul\":3426:3432   */\n      dup3\n        /* \"#utility.yul\":3418:3424   */\n      dup4\n        /* \"#utility.yul\":3411:3433   */\n      revert\n        /* \"#utility.yul\":3373:3375   */\n    tag_508:\n        /* \"#utility.yul\":3471:3480   */\n      dup4\n        /* \"#utility.yul\":3458:3481   */\n      calldataload\n        /* \"#utility.yul\":3500:3518   */\n      0xffffffffffffffff\n        /* \"#utility.yul\":3541:3543   */\n      dup1\n        /* \"#utility.yul\":3533:3539   */\n      dup3\n        /* \"#utility.yul\":3530:3544   */\n      gt\n        /* \"#utility.yul\":3527:3529   */\n      iszero\n      tag_509\n      jumpi\n        /* \"#utility.yul\":3562:3568   */\n      dup5\n        /* \"#utility.yul\":3554:3560   */\n      dup6\n        /* \"#utility.yul\":3547:3569   */\n      revert\n        /* \"#utility.yul\":3527:3529   */\n    tag_509:\n        /* \"#utility.yul\":3590:3640   */\n      tag_510\n        /* \"#utility.yul\":3632:3639   */\n      dup8\n        /* \"#utility.yul\":3623:3629   */\n      dup4\n        /* \"#utility.yul\":3612:3621   */\n      dup9\n        /* \"#utility.yul\":3608:3630   */\n      add\n        /* \"#utility.yul\":3590:3640   */\n      tag_469\n      jump\t// in\n    tag_510:\n        /* \"#utility.yul\":3580:3640   */\n      swap5\n      pop\n        /* \"#utility.yul\":3693:3695   */\n      0x20\n        /* \"#utility.yul\":3682:3691   */\n      dup7\n        /* \"#utility.yul\":3678:3696   */\n      add\n        /* \"#utility.yul\":3665:3697   */\n      calldataload\n        /* \"#utility.yul\":3649:3697   */\n      swap2\n      pop\n        /* \"#utility.yul\":3722:3724   */\n      dup1\n        /* \"#utility.yul\":3712:3720   */\n      dup3\n        /* \"#utility.yul\":3709:3725   */\n      gt\n        /* \"#utility.yul\":3706:3708   */\n      iszero\n      tag_511\n      jumpi\n        /* \"#utility.yul\":3743:3749   */\n      dup4\n        /* \"#utility.yul\":3735:3741   */\n      dup5\n        /* \"#utility.yul\":3728:3750   */\n      revert\n        /* \"#utility.yul\":3706:3708   */\n    tag_511:\n        /* \"#utility.yul\":3771:3823   */\n      tag_512\n        /* \"#utility.yul\":3815:3822   */\n      dup8\n        /* \"#utility.yul\":3804:3812   */\n      dup4\n        /* \"#utility.yul\":3793:3802   */\n      dup9\n        /* \"#utility.yul\":3789:3813   */\n      add\n        /* \"#utility.yul\":3771:3823   */\n      tag_469\n      jump\t// in\n    tag_512:\n        /* \"#utility.yul\":3761:3823   */\n      swap4\n      pop\n        /* \"#utility.yul\":3876:3878   */\n      0x40\n        /* \"#utility.yul\":3865:3874   */\n      dup7\n        /* \"#utility.yul\":3861:3879   */\n      add\n        /* \"#utility.yul\":3848:3880   */\n      calldataload\n        /* \"#utility.yul\":3832:3880   */\n      swap2\n      pop\n        /* \"#utility.yul\":3905:3907   */\n      dup1\n        /* \"#utility.yul\":3895:3903   */\n      dup3\n        /* \"#utility.yul\":3892:3908   */\n      gt\n        /* \"#utility.yul\":3889:3891   */\n      iszero\n      tag_513\n      jumpi\n        /* \"#utility.yul\":3926:3932   */\n      dup3\n        /* \"#utility.yul\":3918:3924   */\n      dup4\n        /* \"#utility.yul\":3911:3933   */\n      revert\n        /* \"#utility.yul\":3889:3891   */\n    tag_513:\n      pop\n        /* \"#utility.yul\":3954:4006   */\n      tag_514\n        /* \"#utility.yul\":3998:4005   */\n      dup7\n        /* \"#utility.yul\":3987:3995   */\n      dup3\n        /* \"#utility.yul\":3976:3985   */\n      dup8\n        /* \"#utility.yul\":3972:3996   */\n      add\n        /* \"#utility.yul\":3954:4006   */\n      tag_469\n      jump\t// in\n    tag_514:\n        /* \"#utility.yul\":3944:4006   */\n      swap2\n      pop\n      pop\n        /* \"#utility.yul\":3363:4012   */\n      swap3\n      pop\n      swap3\n      pop\n      swap3\n      jump\t// out\n        /* \"#utility.yul\":4017:4207   */\n    tag_67:\n        /* \"#utility.yul\":4076:4082   */\n      0x00\n        /* \"#utility.yul\":4129:4131   */\n      0x20\n        /* \"#utility.yul\":4117:4126   */\n      dup3\n        /* \"#utility.yul\":4108:4115   */\n      dup5\n        /* \"#utility.yul\":4104:4127   */\n      sub\n        /* \"#utility.yul\":4100:4132   */\n      slt\n        /* \"#utility.yul\":4097:4099   */\n      iszero\n      tag_516\n      jumpi\n        /* \"#utility.yul\":4150:4156   */\n      dup1\n        /* \"#utility.yul\":4142:4148   */\n      dup2\n        /* \"#utility.yul\":4135:4157   */\n      revert\n        /* \"#utility.yul\":4097:4099   */\n    tag_516:\n      pop\n        /* \"#utility.yul\":4178:4201   */\n      calldataload\n      swap2\n        /* \"#utility.yul\":4087:4207   */\n      swap1\n      pop\n      jump\t// out\n        /* \"#utility.yul\":4212:4406   */\n    tag_115:\n        /* \"#utility.yul\":4282:4288   */\n      0x00\n        /* \"#utility.yul\":4335:4337   */\n      0x20\n        /* \"#utility.yul\":4323:4332   */\n      dup3\n        /* \"#utility.yul\":4314:4321   */\n      dup5\n        /* \"#utility.yul\":4310:4333   */\n      sub\n        /* \"#utility.yul\":4306:4338   */\n      slt\n        /* \"#utility.yul\":4303:4305   */\n      iszero\n      tag_518\n      jumpi\n        /* \"#utility.yul\":4356:4362   */\n      dup1\n        /* \"#utility.yul\":4348:4354   */\n      dup2\n        /* \"#utility.yul\":4341:4363   */\n      revert\n        /* \"#utility.yul\":4303:4305   */\n    tag_518:\n      pop\n        /* \"#utility.yul\":4384:4400   */\n      mload\n      swap2\n        /* \"#utility.yul\":4293:4406   */\n      swap1\n      pop\n      jump\t// out\n        /* \"#utility.yul\":4411:4685   */\n    tag_445:\n        /* \"#utility.yul\":4540:4543   */\n      0x00\n        /* \"#utility.yul\":4578:4584   */\n      dup3\n        /* \"#utility.yul\":4572:4585   */\n      mload\n        /* \"#utility.yul\":4594:4647   */\n      tag_520\n        /* \"#utility.yul\":4640:4646   */\n      dup2\n        /* \"#utility.yul\":4635:4638   */\n      dup5\n        /* \"#utility.yul\":4628:4632   */\n      0x20\n        /* \"#utility.yul\":4620:4626   */\n      dup8\n        /* \"#utility.yul\":4616:4633   */\n      add\n        /* \"#utility.yul\":4594:4647   */\n      tag_506\n      jump\t// in\n    tag_520:\n        /* \"#utility.yul\":4663:4679   */\n      swap2\n      swap1\n      swap2\n      add\n      swap3\n        /* \"#utility.yul\":4548:4685   */\n      swap2\n      pop\n      pop\n      jump\t// out\n        /* \"#utility.yul\":7060:7443   */\n    tag_34:\n        /* \"#utility.yul\":7209:7211   */\n      0x20\n        /* \"#utility.yul\":7198:7207   */\n      dup2\n        /* \"#utility.yul\":7191:7212   */\n      mstore\n        /* \"#utility.yul\":7172:7176   */\n      0x00\n        /* \"#utility.yul\":7241:7247   */\n      dup3\n        /* \"#utility.yul\":7235:7248   */\n      mload\n        /* \"#utility.yul\":7284:7290   */\n      dup1\n        /* \"#utility.yul\":7279:7281   */\n      0x20\n        /* \"#utility.yul\":7268:7277   */\n      dup5\n        /* \"#utility.yul\":7264:7282   */\n      add\n        /* \"#utility.yul\":7257:7291   */\n      mstore\n        /* \"#utility.yul\":7300:7366   */\n      tag_531\n        /* \"#utility.yul\":7359:7365   */\n      dup2\n        /* \"#utility.yul\":7354:7356   */\n      0x40\n        /* \"#utility.yul\":7343:7352   */\n      dup6\n        /* \"#utility.yul\":7339:7357   */\n      add\n        /* \"#utility.yul\":7334:7336   */\n      0x20\n        /* \"#utility.yul\":7326:7332   */\n      dup8\n        /* \"#utility.yul\":7322:7337   */\n      add\n        /* \"#utility.yul\":7300:7366   */\n      tag_506\n      jump\t// in\n    tag_531:\n        /* \"#utility.yul\":7427:7429   */\n      0x1f\n        /* \"#utility.yul\":7406:7421   */\n      add\n      not(0x1f)\n        /* \"#utility.yul\":7402:7431   */\n      and\n        /* \"#utility.yul\":7387:7432   */\n      swap2\n      swap1\n      swap2\n      add\n        /* \"#utility.yul\":7434:7436   */\n      0x40\n        /* \"#utility.yul\":7383:7437   */\n      add\n      swap3\n        /* \"#utility.yul\":7181:7443   */\n      swap2\n      pop\n      pop\n      jump\t// out\n        /* \"#utility.yul\":9536:9866   */\n    tag_109:\n        /* \"#utility.yul\":9738:9740   */\n      0x20\n        /* \"#utility.yul\":9720:9741   */\n      dup1\n      dup3\n      mstore\n        /* \"#utility.yul\":9777:9778   */\n      0x07\n        /* \"#utility.yul\":9757:9775   */\n      swap1\n      dup3\n      add\n        /* \"#utility.yul\":9750:9779   */\n      mstore\n      shl(0xc8, 0x6f776e6572206f)\n        /* \"#utility.yul\":9810:9812   */\n      0x40\n        /* \"#utility.yul\":9795:9813   */\n      dup3\n      add\n        /* \"#utility.yul\":9788:9825   */\n      mstore\n        /* \"#utility.yul\":9857:9859   */\n      0x60\n        /* \"#utility.yul\":9842:9860   */\n      add\n      swap1\n        /* \"#utility.yul\":9710:9866   */\n      jump\t// out\n        /* \"#utility.yul\":10822:11097   */\n    tag_475:\n        /* \"#utility.yul\":10893:10895   */\n      0x40\n        /* \"#utility.yul\":10887:10896   */\n      mload\n        /* \"#utility.yul\":10958:10960   */\n      0x1f\n        /* \"#utility.yul\":10939:10952   */\n      dup3\n      add\n      not(0x1f)\n        /* \"#utility.yul\":10935:10962   */\n      and\n        /* \"#utility.yul\":10923:10963   */\n      dup2\n      add\n        /* \"#utility.yul\":10993:11011   */\n      0xffffffffffffffff\n        /* \"#utility.yul\":10978:11012   */\n      dup2\n      gt\n        /* \"#utility.yul\":11014:11036   */\n      dup3\n      dup3\n      lt\n        /* \"#utility.yul\":10975:11037   */\n      or\n        /* \"#utility.yul\":10972:10974   */\n      iszero\n      tag_544\n      jumpi\n        /* \"#utility.yul\":11040:11058   */\n      tag_544\n      tag_545\n      jump\t// in\n    tag_544:\n        /* \"#utility.yul\":11076:11078   */\n      0x40\n        /* \"#utility.yul\":11069:11091   */\n      mstore\n        /* \"#utility.yul\":10867:11097   */\n      swap2\n      swap1\n      pop\n      jump\t// out\n        /* \"#utility.yul\":11102:11289   */\n    tag_474:\n        /* \"#utility.yul\":11151:11155   */\n      0x00\n        /* \"#utility.yul\":11184:11202   */\n      0xffffffffffffffff\n        /* \"#utility.yul\":11176:11182   */\n      dup3\n        /* \"#utility.yul\":11173:11203   */\n      gt\n        /* \"#utility.yul\":11170:11172   */\n      iszero\n      tag_548\n      jumpi\n        /* \"#utility.yul\":11206:11224   */\n      tag_548\n      tag_545\n      jump\t// in\n    tag_548:\n      pop\n        /* \"#utility.yul\":11272:11274   */\n      0x1f\n        /* \"#utility.yul\":11251:11266   */\n      add\n      not(0x1f)\n        /* \"#utility.yul\":11247:11276   */\n      and\n        /* \"#utility.yul\":11278:11282   */\n      0x20\n        /* \"#utility.yul\":11243:11283   */\n      add\n      swap1\n        /* \"#utility.yul\":11160:11289   */\n      jump\t// out\n        /* \"#utility.yul\":11294:11422   */\n    tag_201:\n        /* \"#utility.yul\":11334:11337   */\n      0x00\n        /* \"#utility.yul\":11365:11366   */\n      dup3\n        /* \"#utility.yul\":11361:11367   */\n      not\n        /* \"#utility.yul\":11358:11359   */\n      dup3\n        /* \"#utility.yul\":11355:11368   */\n      gt\n        /* \"#utility.yul\":11352:11354   */\n      iszero\n      tag_551\n      jumpi\n        /* \"#utility.yul\":11371:11389   */\n      tag_551\n      tag_552\n      jump\t// in\n    tag_551:\n      pop\n        /* \"#utility.yul\":11407:11416   */\n      add\n      swap1\n        /* \"#utility.yul\":11342:11422   */\n      jump\t// out\n        /* \"#utility.yul\":11427:11644   */\n    tag_199:\n        /* \"#utility.yul\":11467:11468   */\n      0x00\n        /* \"#utility.yul\":11493:11494   */\n      dup3\n        /* \"#utility.yul\":11483:11485   */\n      tag_554\n      jumpi\n      shl(0xe0, 0x4e487b71)\n        /* \"#utility.yul\":11518:11549   */\n      dup2\n      mstore\n        /* \"#utility.yul\":11572:11576   */\n      0x12\n        /* \"#utility.yul\":11569:11570   */\n      0x04\n        /* \"#utility.yul\":11562:11577   */\n      mstore\n        /* \"#utility.yul\":11600:11604   */\n      0x24\n        /* \"#utility.yul\":11525:11526   */\n      dup2\n        /* \"#utility.yul\":11590:11605   */\n      revert\n        /* \"#utility.yul\":11483:11485   */\n    tag_554:\n      pop\n        /* \"#utility.yul\":11629:11638   */\n      div\n      swap1\n        /* \"#utility.yul\":11473:11644   */\n      jump\t// out\n        /* \"#utility.yul\":11649:11817   */\n    tag_197:\n        /* \"#utility.yul\":11689:11696   */\n      0x00\n        /* \"#utility.yul\":11755:11756   */\n      dup2\n        /* \"#utility.yul\":11751:11752   */\n      0x00\n        /* \"#utility.yul\":11747:11753   */\n      not\n        /* \"#utility.yul\":11743:11757   */\n      div\n        /* \"#utility.yul\":11740:11741   */\n      dup4\n        /* \"#utility.yul\":11737:11758   */\n      gt\n        /* \"#utility.yul\":11732:11733   */\n      dup3\n        /* \"#utility.yul\":11725:11734   */\n      iszero\n        /* \"#utility.yul\":11718:11735   */\n      iszero\n        /* \"#utility.yul\":11714:11759   */\n      and\n        /* \"#utility.yul\":11711:11713   */\n      iszero\n      tag_557\n      jumpi\n        /* \"#utility.yul\":11762:11780   */\n      tag_557\n      tag_552\n      jump\t// in\n    tag_557:\n      pop\n        /* \"#utility.yul\":11802:11811   */\n      mul\n      swap1\n        /* \"#utility.yul\":11701:11817   */\n      jump\t// out\n        /* \"#utility.yul\":11822:11947   */\n    tag_121:\n        /* \"#utility.yul\":11862:11866   */\n      0x00\n        /* \"#utility.yul\":11890:11891   */\n      dup3\n        /* \"#utility.yul\":11887:11888   */\n      dup3\n        /* \"#utility.yul\":11884:11892   */\n      lt\n        /* \"#utility.yul\":11881:11883   */\n      iszero\n      tag_560\n      jumpi\n        /* \"#utility.yul\":11895:11913   */\n      tag_560\n      tag_552\n      jump\t// in\n    tag_560:\n      pop\n        /* \"#utility.yul\":11932:11941   */\n      sub\n      swap1\n        /* \"#utility.yul\":11871:11947   */\n      jump\t// out\n        /* \"#utility.yul\":11952:12147   */\n    tag_326:\n        /* \"#utility.yul\":11990:11994   */\n      0x00\n        /* \"#utility.yul\":12027:12031   */\n      0xff\n        /* \"#utility.yul\":12024:12025   */\n      dup3\n        /* \"#utility.yul\":12020:12032   */\n      and\n        /* \"#utility.yul\":12059:12063   */\n      0xff\n        /* \"#utility.yul\":12056:12057   */\n      dup5\n        /* \"#utility.yul\":12052:12064   */\n      and\n        /* \"#utility.yul\":12084:12087   */\n      dup1\n        /* \"#utility.yul\":12079:12082   */\n      dup3\n        /* \"#utility.yul\":12076:12088   */\n      lt\n        /* \"#utility.yul\":12073:12075   */\n      iszero\n      tag_563\n      jumpi\n        /* \"#utility.yul\":12091:12109   */\n      tag_563\n      tag_552\n      jump\t// in\n    tag_563:\n        /* \"#utility.yul\":12128:12141   */\n      swap1\n      sub\n      swap4\n        /* \"#utility.yul\":11999:12147   */\n      swap3\n      pop\n      pop\n      pop\n      jump\t// out\n        /* \"#utility.yul\":12152:12410   */\n    tag_506:\n        /* \"#utility.yul\":12224:12225   */\n      0x00\n        /* \"#utility.yul\":12234:12347   */\n    tag_565:\n        /* \"#utility.yul\":12248:12254   */\n      dup4\n        /* \"#utility.yul\":12245:12246   */\n      dup2\n        /* \"#utility.yul\":12242:12255   */\n      lt\n        /* \"#utility.yul\":12234:12347   */\n      iszero\n      tag_567\n      jumpi\n        /* \"#utility.yul\":12324:12335   */\n      dup2\n      dup2\n      add\n        /* \"#utility.yul\":12318:12336   */\n      mload\n        /* \"#utility.yul\":12305:12316   */\n      dup4\n      dup3\n      add\n        /* \"#utility.yul\":12298:12337   */\n      mstore\n        /* \"#utility.yul\":12270:12272   */\n      0x20\n        /* \"#utility.yul\":12263:12273   */\n      add\n        /* \"#utility.yul\":12234:12347   */\n      jump(tag_565)\n    tag_567:\n        /* \"#utility.yul\":12365:12371   */\n      dup4\n        /* \"#utility.yul\":12362:12363   */\n      dup2\n        /* \"#utility.yul\":12359:12372   */\n      gt\n        /* \"#utility.yul\":12356:12358   */\n      iszero\n      tag_302\n      jumpi\n      pop\n      pop\n        /* \"#utility.yul\":12400:12401   */\n      0x00\n        /* \"#utility.yul\":12382:12398   */\n      swap2\n      add\n        /* \"#utility.yul\":12375:12402   */\n      mstore\n        /* \"#utility.yul\":12205:12410   */\n      jump\t// out\n        /* \"#utility.yul\":12415:12795   */\n    tag_138:\n        /* \"#utility.yul\":12494:12495   */\n      0x01\n        /* \"#utility.yul\":12490:12502   */\n      dup2\n      dup2\n      shr\n      swap1\n        /* \"#utility.yul\":12537:12549   */\n      dup3\n      and\n      dup1\n        /* \"#utility.yul\":12558:12560   */\n      tag_570\n      jumpi\n        /* \"#utility.yul\":12612:12616   */\n      0x7f\n        /* \"#utility.yul\":12604:12610   */\n      dup3\n        /* \"#utility.yul\":12600:12617   */\n      and\n        /* \"#utility.yul\":12590:12617   */\n      swap2\n      pop\n        /* \"#utility.yul\":12558:12560   */\n    tag_570:\n        /* \"#utility.yul\":12665:12667   */\n      0x20\n        /* \"#utility.yul\":12657:12663   */\n      dup3\n        /* \"#utility.yul\":12654:12668   */\n      lt\n        /* \"#utility.yul\":12634:12652   */\n      dup2\n        /* \"#utility.yul\":12631:12669   */\n      eq\n        /* \"#utility.yul\":12628:12630   */\n      iszero\n      tag_571\n      jumpi\n        /* \"#utility.yul\":12711:12721   */\n      0x4e487b71\n        /* \"#utility.yul\":12706:12709   */\n      0xe0\n        /* \"#utility.yul\":12702:12722   */\n      shl\n        /* \"#utility.yul\":12699:12700   */\n      0x00\n        /* \"#utility.yul\":12692:12723   */\n      mstore\n        /* \"#utility.yul\":12746:12750   */\n      0x22\n        /* \"#utility.yul\":12743:12744   */\n      0x04\n        /* \"#utility.yul\":12736:12751   */\n      mstore\n        /* \"#utility.yul\":12774:12778   */\n      0x24\n        /* \"#utility.yul\":12771:12772   */\n      0x00\n        /* \"#utility.yul\":12764:12779   */\n      revert\n        /* \"#utility.yul\":12628:12630   */\n    tag_571:\n      pop\n        /* \"#utility.yul\":12470:12795   */\n      swap2\n      swap1\n      pop\n      jump\t// out\n        /* \"#utility.yul\":12800:12935   */\n    tag_317:\n        /* \"#utility.yul\":12839:12842   */\n      0x00\n      not(0x00)\n        /* \"#utility.yul\":12860:12877   */\n      dup3\n      eq\n        /* \"#utility.yul\":12857:12859   */\n      iszero\n      tag_574\n      jumpi\n        /* \"#utility.yul\":12880:12898   */\n      tag_574\n      tag_552\n      jump\t// in\n    tag_574:\n      pop\n        /* \"#utility.yul\":12927:12928   */\n      0x01\n        /* \"#utility.yul\":12916:12929   */\n      add\n      swap1\n        /* \"#utility.yul\":12847:12935   */\n      jump\t// out\n        /* \"#utility.yul\":12940:13067   */\n    tag_552:\n        /* \"#utility.yul\":13001:13011   */\n      0x4e487b71\n        /* \"#utility.yul\":12996:12999   */\n      0xe0\n        /* \"#utility.yul\":12992:13012   */\n      shl\n        /* \"#utility.yul\":12989:12990   */\n      0x00\n        /* \"#utility.yul\":12982:13013   */\n      mstore\n        /* \"#utility.yul\":13032:13036   */\n      0x11\n        /* \"#utility.yul\":13029:13030   */\n      0x04\n        /* \"#utility.yul\":13022:13037   */\n      mstore\n        /* \"#utility.yul\":13056:13060   */\n      0x24\n        /* \"#utility.yul\":13053:13054   */\n      0x00\n        /* \"#utility.yul\":13046:13061   */\n      revert\n        /* \"#utility.yul\":13072:13199   */\n    tag_545:\n        /* \"#utility.yul\":13133:13143   */\n      0x4e487b71\n        /* \"#utility.yul\":13128:13131   */\n      0xe0\n        /* \"#utility.yul\":13124:13144   */\n      shl\n        /* \"#utility.yul\":13121:13122   */\n      0x00\n        /* \"#utility.yul\":13114:13145   */\n      mstore\n        /* \"#utility.yul\":13164:13168   */\n      0x41\n        /* \"#utility.yul\":13161:13162   */\n      0x04\n        /* \"#utility.yul\":13154:13169   */\n      mstore\n        /* \"#utility.yul\":13188:13192   */\n      0x24\n        /* \"#utility.yul\":13185:13186   */\n      0x00\n        /* \"#utility.yul\":13178:13193   */\n      revert\n        /* \"#utility.yul\":13204:13335   */\n    tag_480:\n      sub(shl(0xa0, 0x01), 0x01)\n        /* \"#utility.yul\":13279:13310   */\n      dup2\n      and\n        /* \"#utility.yul\":13269:13311   */\n      dup2\n      eq\n        /* \"#utility.yul\":13259:13261   */\n      tag_578\n      jumpi\n        /* \"#utility.yul\":13325:13326   */\n      0x00\n        /* \"#utility.yul\":13322:13323   */\n      dup1\n        /* \"#utility.yul\":13315:13327   */\n      revert\n        /* \"#utility.yul\":13259:13261   */\n    tag_578:\n        /* \"#utility.yul\":13249:13335   */\n      pop\n      jump\t// out\n    stop\n\n    sub_0: assembly {\n            /* \"contracts/BetPair.sol\":163:902  contract BetPair is IBetPair {... */\n          mstore(0x40, 0x80)\n            /* \"contracts/BetPair.sol\":492:499  w3bAddr */\n          sload(0x00)\n            /* \"contracts/BetPair.sol\":449:500  IWeb3BetsFO private web3bets = IWeb3BetsFO(w3bAddr) */\n          0x06\n          dup1\n          sload\n          sub(shl(0xa0, 0x01), 0x01)\n            /* \"contracts/BetPair.sol\":492:499  w3bAddr */\n          swap1\n          swap3\n          and\n          0x0100\n            /* \"contracts/BetPair.sol\":449:500  IWeb3BetsFO private web3bets = IWeb3BetsFO(w3bAddr) */\n          mul\n          not(sub(shl(0xa8, 0x01), 0x0100))\n          swap1\n          swap3\n          and\n          swap2\n          swap1\n          swap2\n          or\n          swap1\n          sstore\n            /* \"contracts/BetPair.sol\":507:895  constructor (... */\n          callvalue\n          dup1\n          iszero\n          tag_1\n          jumpi\n          0x00\n          dup1\n          revert\n        tag_1:\n          pop\n          mload(0x40)\n          sub(codesize, bytecodeSize)\n          dup1\n          bytecodeSize\n          dup4\n          codecopy\n          dup2\n          add\n          0x40\n          dup2\n          swap1\n          mstore\n          tag_2\n          swap2\n          tag_3\n          jump\t// in\n        tag_2:\n            /* \"contracts/BetPair.sol\":683:691  web3bets */\n          sload(0x06)\n            /* \"contracts/BetPair.sol\":683:707  web3bets.marketFactory() */\n          0x40\n          dup1\n          mload\n          shl(0xe0, 0x06ae7095)\n          dup2\n          mstore\n          swap1\n          mload\n            /* \"contracts/BetPair.sol\":683:691  web3bets */\n          0x0100\n          swap1\n          swap3\n          div\n          sub(shl(0xa0, 0x01), 0x01)\n          and\n          swap2\n            /* \"contracts/BetPair.sol\":683:705  web3bets.marketFactory */\n          0x06ae7095\n          swap2\n            /* \"contracts/BetPair.sol\":683:707  web3bets.marketFactory() */\n          0x04\n          dup1\n          dup3\n          add\n          swap3\n          0x20\n          swap3\n          swap1\n          swap2\n          swap1\n          dup3\n          swap1\n          sub\n          add\n          dup2\n            /* \"contracts/BetPair.sol\":683:691  web3bets */\n          dup7\n            /* \"contracts/BetPair.sol\":683:707  web3bets.marketFactory() */\n          dup1\n          extcodesize\n          iszero\n          dup1\n          iszero\n          tag_6\n          jumpi\n          0x00\n          dup1\n          revert\n        tag_6:\n          pop\n          gas\n          staticcall\n          iszero\n          dup1\n          iszero\n          tag_8\n          jumpi\n          returndatasize\n          0x00\n          dup1\n          returndatacopy\n          revert(0x00, returndatasize)\n        tag_8:\n          pop\n          pop\n          pop\n          pop\n          mload(0x40)\n          returndatasize\n          not(0x1f)\n          0x1f\n          dup3\n          add\n          and\n          dup3\n          add\n          dup1\n          0x40\n          mstore\n          pop\n          dup2\n          add\n          swap1\n          tag_9\n          swap2\n          swap1\n          tag_10\n          jump\t// in\n        tag_9:\n          sub(shl(0xa0, 0x01), 0x01)\n            /* \"contracts/BetPair.sol\":669:707  msg.sender == web3bets.marketFactory() */\n          and\n            /* \"contracts/BetPair.sol\":669:679  msg.sender */\n          caller\n            /* \"contracts/BetPair.sol\":669:707  msg.sender == web3bets.marketFactory() */\n          eq\n            /* \"contracts/BetPair.sol\":661:746  require(msg.sender == web3bets.marketFactory(), \"only market factory can match bets\") */\n          tag_11\n          jumpi\n          0x40\n          dup1\n          mload\n          shl(0xe5, 0x461bcd)\n          dup2\n          mstore\n            /* \"#utility.yul\":1138:1140   */\n          0x20\n            /* \"contracts/BetPair.sol\":661:746  require(msg.sender == web3bets.marketFactory(), \"only market factory can match bets\") */\n          0x04\n          dup3\n          add\n            /* \"#utility.yul\":1120:1141   */\n          mstore\n            /* \"#utility.yul\":1177:1179   */\n          0x22\n            /* \"#utility.yul\":1157:1175   */\n          0x24\n          dup3\n          add\n            /* \"#utility.yul\":1150:1180   */\n          mstore\n            /* \"#utility.yul\":1216:1250   */\n          0x6f6e6c79206d61726b657420666163746f72792063616e206d61746368206265\n            /* \"#utility.yul\":1196:1214   */\n          0x44\n          dup3\n          add\n            /* \"#utility.yul\":1189:1251   */\n          mstore\n          shl(0xf0, 0x7473)\n            /* \"#utility.yul\":1267:1285   */\n          0x64\n          dup3\n          add\n            /* \"#utility.yul\":1260:1292   */\n          mstore\n            /* \"contracts/BetPair.sol\":661:746  require(msg.sender == web3bets.marketFactory(), \"only market factory can match bets\") */\n          swap1\n          mload\n          swap1\n          dup2\n          swap1\n          sub\n            /* \"#utility.yul\":1309:1328   */\n          0x84\n            /* \"contracts/BetPair.sol\":661:746  require(msg.sender == web3bets.marketFactory(), \"only market factory can match bets\") */\n          add\n          swap1\n          revert\n        tag_11:\n            /* \"contracts/BetPair.sol\":756:762  market */\n          0x01\n            /* \"contracts/BetPair.sol\":756:772  market = market_ */\n          dup1\n          sload\n          not(sub(shl(0xa0, 0x01), 0x01))\n          swap1\n          dup2\n          and\n          sub(shl(0xa0, 0x01), 0x01)\n          swap8\n          dup9\n          and\n          or\n          swap1\n          swap2\n          sstore\n            /* \"contracts/BetPair.sol\":782:790  sideABet */\n          0x02\n            /* \"contracts/BetPair.sol\":782:802  sideABet = sideABet_ */\n          dup1\n          sload\n          dup3\n          and\n          swap6\n          dup8\n          and\n          swap6\n          swap1\n          swap6\n          or\n          swap1\n          swap5\n          sstore\n            /* \"contracts/BetPair.sol\":812:820  sideBBet */\n          0x03\n            /* \"contracts/BetPair.sol\":812:832  sideBBet = sideBBet_ */\n          dup1\n          sload\n          swap1\n          swap5\n          and\n          swap3\n          swap1\n          swap5\n          and\n          swap2\n          swap1\n          swap2\n          or\n          swap1\n          swap2\n          sstore\n            /* \"contracts/BetPair.sol\":842:849  amountA */\n          0x04\n            /* \"contracts/BetPair.sol\":842:860  amountA = amountA_ */\n          sstore\n            /* \"contracts/BetPair.sol\":870:877  amountB */\n          0x05\n            /* \"contracts/BetPair.sol\":870:888  amountB = amountB_ */\n          sstore\n            /* \"contracts/BetPair.sol\":163:902  contract BetPair is IBetPair {... */\n          jump(tag_15)\n            /* \"#utility.yul\":14:191   */\n        tag_16:\n            /* \"#utility.yul\":93:106   */\n          dup1\n          mload\n          sub(shl(0xa0, 0x01), 0x01)\n            /* \"#utility.yul\":135:166   */\n          dup2\n          and\n            /* \"#utility.yul\":125:167   */\n          dup2\n          eq\n            /* \"#utility.yul\":115:117   */\n          tag_18\n          jumpi\n            /* \"#utility.yul\":181:182   */\n          0x00\n            /* \"#utility.yul\":178:179   */\n          dup1\n            /* \"#utility.yul\":171:183   */\n          revert\n            /* \"#utility.yul\":115:117   */\n        tag_18:\n            /* \"#utility.yul\":74:191   */\n          swap2\n          swap1\n          pop\n          jump\t// out\n            /* \"#utility.yul\":196:414   */\n        tag_10:\n            /* \"#utility.yul\":266:272   */\n          0x00\n            /* \"#utility.yul\":319:321   */\n          0x20\n            /* \"#utility.yul\":307:316   */\n          dup3\n            /* \"#utility.yul\":298:305   */\n          dup5\n            /* \"#utility.yul\":294:317   */\n          sub\n            /* \"#utility.yul\":290:322   */\n          slt\n            /* \"#utility.yul\":287:289   */\n          iszero\n          tag_20\n          jumpi\n            /* \"#utility.yul\":340:346   */\n          dup1\n            /* \"#utility.yul\":332:338   */\n          dup2\n            /* \"#utility.yul\":325:347   */\n          revert\n            /* \"#utility.yul\":287:289   */\n        tag_20:\n            /* \"#utility.yul\":368:408   */\n          tag_21\n            /* \"#utility.yul\":398:407   */\n          dup3\n            /* \"#utility.yul\":368:408   */\n          tag_16\n          jump\t// in\n        tag_21:\n            /* \"#utility.yul\":358:408   */\n          swap4\n            /* \"#utility.yul\":277:414   */\n          swap3\n          pop\n          pop\n          pop\n          jump\t// out\n            /* \"#utility.yul\":419:931   */\n        tag_3:\n            /* \"#utility.yul\":525:531   */\n          0x00\n            /* \"#utility.yul\":533:539   */\n          dup1\n            /* \"#utility.yul\":541:547   */\n          0x00\n            /* \"#utility.yul\":549:555   */\n          dup1\n            /* \"#utility.yul\":557:563   */\n          0x00\n            /* \"#utility.yul\":610:613   */\n          0xa0\n            /* \"#utility.yul\":598:607   */\n          dup7\n            /* \"#utility.yul\":589:596   */\n          dup9\n            /* \"#utility.yul\":585:608   */\n          sub\n            /* \"#utility.yul\":581:614   */\n          slt\n            /* \"#utility.yul\":578:580   */\n          iszero\n          tag_23\n          jumpi\n            /* \"#utility.yul\":632:638   */\n          dup1\n            /* \"#utility.yul\":624:630   */\n          dup2\n            /* \"#utility.yul\":617:639   */\n          revert\n            /* \"#utility.yul\":578:580   */\n        tag_23:\n            /* \"#utility.yul\":660:700   */\n          tag_24\n            /* \"#utility.yul\":690:699   */\n          dup7\n            /* \"#utility.yul\":660:700   */\n          tag_16\n          jump\t// in\n        tag_24:\n            /* \"#utility.yul\":650:700   */\n          swap5\n          pop\n            /* \"#utility.yul\":719:768   */\n          tag_25\n            /* \"#utility.yul\":764:766   */\n          0x20\n            /* \"#utility.yul\":753:762   */\n          dup8\n            /* \"#utility.yul\":749:767   */\n          add\n            /* \"#utility.yul\":719:768   */\n          tag_16\n          jump\t// in\n        tag_25:\n            /* \"#utility.yul\":709:768   */\n          swap4\n          pop\n            /* \"#utility.yul\":787:836   */\n          tag_26\n            /* \"#utility.yul\":832:834   */\n          0x40\n            /* \"#utility.yul\":821:830   */\n          dup8\n            /* \"#utility.yul\":817:835   */\n          add\n            /* \"#utility.yul\":787:836   */\n          tag_16\n          jump\t// in\n        tag_26:\n            /* \"#utility.yul\":876:878   */\n          0x60\n            /* \"#utility.yul\":861:879   */\n          dup8\n          add\n            /* \"#utility.yul\":855:880   */\n          mload\n            /* \"#utility.yul\":920:923   */\n          0x80\n            /* \"#utility.yul\":905:924   */\n          swap1\n          swap8\n          add\n            /* \"#utility.yul\":899:925   */\n          mload\n            /* \"#utility.yul\":568:931   */\n          swap6\n          swap9\n          swap5\n          swap8\n          pop\n            /* \"#utility.yul\":777:836   */\n          swap6\n            /* \"#utility.yul\":855:880   */\n          swap5\n            /* \"#utility.yul\":899:925   */\n          swap4\n            /* \"#utility.yul\":568:931   */\n          swap3\n          pop\n          pop\n          pop\n          jump\t// out\n            /* \"#utility.yul\":1110:1334   */\n        tag_15:\n            /* \"contracts/BetPair.sol\":163:902  contract BetPair is IBetPair {... */\n          dataSize(sub_0)\n          dup1\n          dataOffset(sub_0)\n          0x00\n          codecopy\n          0x00\n          return\n        stop\n\n        sub_0: assembly {\n                /* \"contracts/BetPair.sol\":163:902  contract BetPair is IBetPair {... */\n              mstore(0x40, 0x80)\n              callvalue\n              dup1\n              iszero\n              tag_1\n              jumpi\n              0x00\n              dup1\n              revert\n            tag_1:\n              pop\n              jumpi(tag_2, lt(calldatasize, 0x04))\n              shr(0xe0, calldataload(0x00))\n              dup1\n              0x0f765e6d\n              eq\n              tag_3\n              jumpi\n              dup1\n              0x156dcbf0\n              eq\n              tag_4\n              jumpi\n              dup1\n              0x15e894ab\n              eq\n              tag_5\n              jumpi\n              dup1\n              0x2efe91ef\n              eq\n              tag_6\n              jumpi\n              dup1\n              0x80f55605\n              eq\n              tag_7\n              jumpi\n              dup1\n              0x8f775839\n              eq\n              tag_8\n              jumpi\n            tag_2:\n              0x00\n              dup1\n              revert\n                /* \"contracts/BetPair.sol\":305:337  address public override sideBBet */\n            tag_3:\n              sload(0x03)\n              tag_9\n              swap1\n              sub(shl(0xa0, 0x01), 0x01)\n              and\n              dup2\n              jump\n            tag_9:\n              mload(0x40)\n              sub(shl(0xa0, 0x01), 0x01)\n                /* \"#utility.yul\":178:210   */\n              swap2\n              swap1\n              swap2\n              and\n                /* \"#utility.yul\":160:211   */\n              dup2\n              mstore\n                /* \"#utility.yul\":148:150   */\n              0x20\n                /* \"#utility.yul\":133:151   */\n              add\n                /* \"contracts/BetPair.sol\":305:337  address public override sideBBet */\n            tag_11:\n              mload(0x40)\n              dup1\n              swap2\n              sub\n              swap1\n              return\n                /* \"contracts/BetPair.sol\":344:372  uint public override amountA */\n            tag_4:\n              tag_13\n              sload(0x04)\n              dup2\n              jump\n            tag_13:\n              mload(0x40)\n                /* \"#utility.yul\":560:585   */\n              swap1\n              dup2\n              mstore\n                /* \"#utility.yul\":548:550   */\n              0x20\n                /* \"#utility.yul\":533:551   */\n              add\n                /* \"contracts/BetPair.sol\":344:372  uint public override amountA */\n              tag_11\n                /* \"#utility.yul\":515:591   */\n              jump\n                /* \"contracts/BetPair.sol\":266:298  address public override sideABet */\n            tag_5:\n              sload(0x02)\n              tag_9\n              swap1\n              sub(shl(0xa0, 0x01), 0x01)\n              and\n              dup2\n              jump\n                /* \"contracts/BetPair.sol\":379:407  uint public override amountB */\n            tag_6:\n              tag_13\n              sload(0x05)\n              dup2\n              jump\n                /* \"contracts/BetPair.sol\":229:259  address public override market */\n            tag_7:\n              sload(0x01)\n              tag_9\n              swap1\n              sub(shl(0xa0, 0x01), 0x01)\n              and\n              dup2\n              jump\n                /* \"contracts/BetPair.sol\":414:442  bool public override settled */\n            tag_8:\n              sload(0x06)\n              tag_26\n              swap1\n              0xff\n              and\n              dup2\n              jump\n            tag_26:\n              mload(0x40)\n                /* \"#utility.yul\":387:401   */\n              swap1\n              iszero\n                /* \"#utility.yul\":380:402   */\n              iszero\n                /* \"#utility.yul\":362:403   */\n              dup2\n              mstore\n                /* \"#utility.yul\":350:352   */\n              0x20\n                /* \"#utility.yul\":335:353   */\n              add\n                /* \"contracts/BetPair.sol\":414:442  bool public override settled */\n              tag_11\n                /* \"#utility.yul\":317:409   */\n              jump\n\n            auxdata: 0xa2646970667358221220a50f5fb4317fe4a9e0118b8824e7b7238eb79040ba9eed2cc8c3988b3f5dc2ac64736f6c63430008040033\n        }\n    }\n\n    auxdata: 0xa2646970667358221220a8f6058bfdcf53f3036cce30d7da4616931024d41aa4c9fdc2b4fa2054f7c88464736f6c63430008040033\n}\n",
				"bytecode": {
					"linkReferences": {},
					"object": "608060408190526004805460ff1916815560006006819055600881905554600f80546001600160a01b0319166001600160a01b03909216918217905563992642e560e01b83529163992642e5916084916020918186803b1580156200006357600080fd5b505afa15801562000078573d6000803e3d6000fd5b505050506040513d601f19601f820116820180604052508101906200009e9190620003ad565b601080546001600160a01b03929092166001600160a01b0319928316811790915560118054909216179055348015620000d657600080fd5b506040516200334638038062003346833981016040819052620000f991620003d1565b600f60009054906101000a90046001600160a01b03166001600160a01b03166306ae70956040518163ffffffff1660e01b815260040160206040518083038186803b1580156200014857600080fd5b505afa1580156200015d573d6000803e3d6000fd5b505050506040513d601f19601f82011682018060405250810190620001839190620003ad565b6001600160a01b0316336001600160a01b031614620001d05760405162461bcd60e51b8152602060048201526005602482015264667479206f60d81b604482015260640160405180910390fd5b8351620001e590600190602087019062000237565b50600280546001600160a01b0319166001600160a01b03851617905581516200021690600590602085019062000237565b5080516200022c90600790602084019062000237565b5050505050620004c4565b828054620002459062000471565b90600052602060002090601f016020900481019282620002695760008555620002b4565b82601f106200028457805160ff1916838001178555620002b4565b82800160010185558215620002b4579182015b82811115620002b457825182559160200191906001019062000297565b50620002c2929150620002c6565b5090565b5b80821115620002c25760008155600101620002c7565b80516001600160a01b0381168114620002f557600080fd5b919050565b600082601f8301126200030b578081fd5b81516001600160401b0380821115620003285762000328620004ae565b604051601f8301601f19908116603f01168101908282118183101715620003535762000353620004ae565b816040528381526020925086838588010111156200036f578485fd5b8491505b8382101562000392578582018301518183018401529082019062000373565b83821115620003a357848385830101525b9695505050505050565b600060208284031215620003bf578081fd5b620003ca82620002dd565b9392505050565b60008060008060808587031215620003e7578283fd5b84516001600160401b0380821115620003fe578485fd5b6200040c88838901620002fa565b95506200041c60208801620002dd565b9450604087015191508082111562000432578384fd5b6200044088838901620002fa565b9350606087015191508082111562000456578283fd5b506200046587828801620002fa565b91505092959194509250565b600181811c908216806200048657607f821691505b60208210811415620004a857634e487b7160e01b600052602260045260246000fd5b50919050565b634e487b7160e01b600052604160045260246000fd5b612e7280620004d46000396000f3fe60806040523480156200001157600080fd5b5060043610620001395760003560e01c80638eb1a4ad11620000bb578063bd92630c116200007a578063bd92630c14620002aa578063d37e299614620002bf578063e7c9a87f14620002c9578063fad5677914620002e0578063fbf06338146200030d57600080fd5b80638eb1a4ad1462000228578063948fb24d14620002325780639bf5b8451462000272578063a355f8971462000289578063b40a4f05146200029357600080fd5b80632b4a352711620001085780632b4a352714620001aa5780633ab8781c14620001c15780635a35846414620001e45780636bfefd6b146200020757806383bbe262146200021157600080fd5b806303afd56b146200013e57806306fdde03146200016a5780630b469bda14620001835780630ed5a933146200019c575b600080fd5b620001556200014f36600462002644565b62000317565b60405190151581526020015b60405180910390f35b6200017462000623565b604051620001619190620028c0565b6200018d60085481565b60405190815260200162000161565b600454620001559060ff1681565b62000155620001bb36600462002644565b620006b9565b6200018d620001d236600462002644565b600d6020526000908152604090205481565b6200018d620001f536600462002644565b600e6020526000908152604090205481565b6200015562000dca565b6200015562000222366004620027e2565b62000ea4565b6200017462000fa6565b620002496200024336600462002870565b62000fb5565b604080516001600160a01b039094168452602084019290925260ff169082015260600162000161565b620001556200028336600462002682565b62000ff6565b62000174620011a6565b62000155620002a43660046200272f565b620011b5565b6002546200015590600160a01b900460ff1681565b6200018d60065481565b62000249620002da36600462002870565b620012e4565b600254620002f4906001600160a01b031681565b6040516001600160a01b03909116815260200162000161565b62000174620012f5565b600f54604080516306ae709560e01b815290516000926001600160a01b0316916306ae7095916004808301926020929190829003018186803b1580156200035d57600080fd5b505afa15801562000372573d6000803e3d6000fd5b505050506040513d601f19601f8201168201806040525081019062000398919062002663565b6001600160a01b0316336001600160a01b031614620003d45760405162461bcd60e51b8152600401620003cb90620028f5565b60405180910390fd5b60008290506000816001600160a01b0316638aac9cca6040518163ffffffff1660e01b815260040160206040518083038186803b1580156200041557600080fd5b505afa1580156200042a573d6000803e3d6000fd5b505050506040513d601f19601f8201168201806040525081019062000450919062002889565b826001600160a01b0316633a4b66f16040518163ffffffff1660e01b815260040160206040518083038186803b1580156200048a57600080fd5b505afa1580156200049f573d6000803e3d6000fd5b505050506040513d601f19601f82011682018060405250810190620004c5919062002889565b620004d19190620029d3565b90508047116200050d5760405162461bcd60e51b81526020600482015260066024820152650c08199d5b9960d21b6044820152606401620003cb565b6200059a826001600160a01b031663718c7d446040518163ffffffff1660e01b815260040160206040518083038186803b1580156200054b57600080fd5b505afa15801562000560573d6000803e3d6000fd5b505050506040513d601f19601f8201168201806040525081019062000586919062002663565b6011546001600160a01b0316908362001304565b604051632d267e0360e11b8152600481018290526001600160a01b03831690635a4cfc0690602401602060405180830381600087803b158015620005dd57600080fd5b505af1158015620005f2573d6000803e3d6000fd5b505050506040513d601f19601f820116820180604052508101906200061891906200270d565b506001949350505050565b60018054620006329062002a42565b80601f0160208091040260200160405190810160405280929190818152602001828054620006609062002a42565b8015620006b15780601f106200068557610100808354040283529160200191620006b1565b820191906000526020600020905b8154815290600101906020018083116200069357829003601f168201915b505050505081565b600f54604080516306ae709560e01b815290516000926001600160a01b0316916306ae7095916004808301926020929190829003018186803b158015620006ff57600080fd5b505afa15801562000714573d6000803e3d6000fd5b505050506040513d601f19601f820116820180604052508101906200073a919062002663565b6001600160a01b0316336001600160a01b0316146200076d5760405162461bcd60e51b8152600401620003cb90620028f5565b60008290506000816001600160a01b03166380f556056040518163ffffffff1660e01b815260040160206040518083038186803b158015620007ae57600080fd5b505afa158015620007c3573d6000803e3d6000fd5b505050506040513d601f19601f82011682018060405250810190620007e9919062002663565b90506000826001600160a01b03166315e894ab6040518163ffffffff1660e01b815260040160206040518083038186803b1580156200082757600080fd5b505afa1580156200083c573d6000803e3d6000fd5b505050506040513d601f19601f8201168201806040525081019062000862919062002663565b90506000836001600160a01b0316630f765e6d6040518163ffffffff1660e01b815260040160206040518083038186803b158015620008a057600080fd5b505afa158015620008b5573d6000803e3d6000fd5b505050506040513d601f19601f82011682018060405250810190620008db919062002663565b90506000846001600160a01b031663156dcbf06040518163ffffffff1660e01b815260040160206040518083038186803b1580156200091957600080fd5b505afa1580156200092e573d6000803e3d6000fd5b505050506040513d601f19601f8201168201806040525081019062000954919062002889565b90506000856001600160a01b0316632efe91ef6040518163ffffffff1660e01b815260040160206040518083038186803b1580156200099257600080fd5b505afa158015620009a7573d6000803e3d6000fd5b505050506040513d601f19601f82011682018060405250810190620009cd919062002889565b90506000859050866001600160a01b0316638f7758396040518163ffffffff1660e01b815260040160206040518083038186803b15801562000a0e57600080fd5b505afa15801562000a23573d6000803e3d6000fd5b505050506040513d601f19601f8201168201806040525081019062000a4991906200270d565b1562000a8f5760405162461bcd60e51b81526020600482015260146024820152731c185a5c88185b1c9958591e481cd95d1d1b195960621b6044820152606401620003cb565b806001600160a01b031663bd92630c6040518163ffffffff1660e01b815260040160206040518083038186803b15801562000ac957600080fd5b505afa15801562000ade573d6000803e3d6000fd5b505050506040513d601f19601f8201168201806040525081019062000b0491906200270d565b62000b385760405162461bcd60e51b81526020600482015260036024820152623bb4b760e91b6044820152606401620003cb565b60405164736964654160d81b602082015260250160405160208183030381529060405280519060200120816001600160a01b031663fbf063386040518163ffffffff1660e01b815260040160006040518083038186803b15801562000b9c57600080fd5b505afa15801562000bb1573d6000803e3d6000fd5b505050506040513d6000823e601f3d908101601f1916820160405262000bdb919081019062002766565b60405160200162000bed9190620028a2565b60405160208183030381529060405280519060200120141562000c6e5762000c4a85600a62000c1e856009620029b1565b62000c2a919062002990565b62000c36908662002975565b6011546001600160a01b0316919062001304565b60005462000c68906001600160a01b031662000c36600a8562002990565b62000dbb565b6040516439b4b232a160d91b602082015260250160405160208183030381529060405280519060200120816001600160a01b031663fbf063386040518163ffffffff1660e01b815260040160006040518083038186803b15801562000cd257600080fd5b505afa15801562000ce7573d6000803e3d6000fd5b505050506040513d6000823e601f3d908101601f1916820160405262000d11919081019062002766565b60405160200162000d239190620028a2565b60405160208183030381529060405280519060200120141562000d8a5762000d6c84600a62000d54866009620029b1565b62000d60919062002990565b62000c36908562002975565b60005462000c68906001600160a01b031662000c36600a8662002990565b60405162461bcd60e51b81526020600482015260056024820152643c103bb4b760d91b6044820152606401620003cb565b50600198975050505050505050565b600f54604080516306ae709560e01b815290516000926001600160a01b0316916306ae7095916004808301926020929190829003018186803b15801562000e1057600080fd5b505afa15801562000e25573d6000803e3d6000fd5b505050506040513d601f19601f8201168201806040525081019062000e4b919062002663565b6001600160a01b0316336001600160a01b03161462000e7e5760405162461bcd60e51b8152600401620003cb90620028f5565b60045460ff161562000e905750600190565b506004805460ff1916600190811790915590565b600f54604080516306ae709560e01b815290516000926001600160a01b0316916306ae7095916004808301926020929190829003018186803b15801562000eea57600080fd5b505afa15801562000eff573d6000803e3d6000fd5b505050506040513d601f19601f8201168201806040525081019062000f25919062002663565b6001600160a01b0316336001600160a01b03161462000f585760405162461bcd60e51b8152600401620003cb90620028f5565b835162000f6d90600190602087019062002539565b50825162000f8390600590602086019062002539565b50815162000f9990600790602085019062002539565b50600190505b9392505050565b60058054620006329062002a42565b6009818154811062000fc657600080fd5b60009182526020909120600390910201805460018201546002909201546001600160a01b03909116925060ff1683565b600f54604080516305c352c360e31b815290516000926001600160a01b031691632e1a9618916004808301926020929190829003018186803b1580156200103c57600080fd5b505afa15801562001051573d6000803e3d6000fd5b505050506040513d601f19601f8201168201806040525081019062001077919062002663565b6001600160a01b0316336001600160a01b031614620010aa5760405162461bcd60e51b8152600401620003cb90620028f5565b60405164736964654160d81b60208201526025016040516020818303038152906040528051906020012082604051602001620010e79190620028a2565b604051602081830303815290604052805190602001201415620011255762001112868686866200135d565b6200111f85858562001475565b6200119a565b6040516439b4b232a160d91b60208201526025016040516020818303038152906040528051906020012082604051602001620011629190620028a2565b6040516020818303038152906040528051906020012014156200119a576200118d8686868662001b1f565b6200119a85858562001c2b565b50600195945050505050565b60078054620006329062002a42565b600f54604080516306ae709560e01b815290516000926001600160a01b0316916306ae7095916004808301926020929190829003018186803b158015620011fb57600080fd5b505afa15801562001210573d6000803e3d6000fd5b505050506040513d601f19601f8201168201806040525081019062001236919062002663565b6001600160a01b0316336001600160a01b031614620012695760405162461bcd60e51b8152600401620003cb90620028f5565b600254600160a01b900460ff16151560011415620012b35760405162461bcd60e51b815260206004820152600660248201526510bc103bb4b760d11b6044820152606401620003cb565b8151620012c890600390602085019062002539565b50506002805460ff60a01b1916600160a01b1790556001919050565b600b818154811062000fc657600080fd5b60038054620006329062002a42565b604080516001600160a01b038416602482015260448082018490528251808303909101815260649091019091526020810180516001600160e01b031663a9059cbb60e01b17905262001358908490620022ce565b505050565b816006600082825462001371919062002975565b9091555050604080516060810182526001600160a01b038581168252602080830186815260ff86811685870190815260098054600181018255600091825296517f6e1540171b6c0c960b71a7020d9f60077f6af931a8bbf590da0223dacf75c7af600390980297880180546001600160a01b03191691881691909117905592517f6e1540171b6c0c960b71a7020d9f60077f6af931a8bbf590da0223dacf75c7b0870155517f6e1540171b6c0c960b71a7020d9f60077f6af931a8bbf590da0223dacf75c7b1909501805460ff191695909116949094179093559087168252600d905290812080548492906200146990849062002975565b90915550505b50505050565b600c54801562001a4857825b670de0b6b3a7640000811062001a415760008060005b8481101562001538576000600c8281548110620014c457634e487b7160e01b600052603260045260246000fd5b600091825260209182902060408051606081018252600390930290910180546001600160a01b0316835260018101549383019390935260029092015460ff908116928201839052909250841610156200152257806040015192508193505b50806200152f8162002a7f565b91505062001497565b508460ff168160ff16111562001961576000600c83815481106200156c57634e487b7160e01b600052603260045260246000fd5b6000918252602080832060408051606081018252600390940290910180546001600160a01b031680855260018201548585015260029091015460ff168483015281516345564e6560e11b8152915193955093928492638aac9cca9260048082019391829003018186803b158015620015e357600080fd5b505afa158015620015f8573d6000803e3d6000fd5b505050506040513d601f19601f820116820180604052508101906200161e919062002889565b90506000606462001630818b620029ed565b60ff16838660200151620016459190620029d3565b620016519190620029b1565b6200165d919062002990565b905060008a8211156200167257508962001675565b50805b60006200168660ff8c1683620029b1565b90506000308e88600001518585604051620016a190620025c8565b6001600160a01b03958616815293851660208501529390911660408301526060820152608081019190915260a001604051809103906000f080158015620016ec573d6000803e3d6000fd5b509050600c89815481106200171157634e487b7160e01b600052603260045260246000fd5b6000918252602082206003919091020180546001600160a01b03191681556001810191909155600201805460ff19169055604051632d267e0360e11b8152600481018490528e906001600160a01b03821690635a4cfc0690602401602060405180830381600087803b1580156200178757600080fd5b505af11580156200179c573d6000803e3d6000fd5b505050506040513d601f19601f82011682018060405250810190620017c291906200270d565b5060405163615bdddb60e11b81526001600160a01b03838116600483015282169063c2b7bbb690602401602060405180830381600087803b1580156200180757600080fd5b505af11580156200181c573d6000803e3d6000fd5b505050506040513d601f19601f820116820180604052508101906200184291906200270d565b508751604051632d267e0360e11b8152600481018590526001600160a01b03821690635a4cfc0690602401602060405180830381600087803b1580156200188857600080fd5b505af11580156200189d573d6000803e3d6000fd5b505050506040513d601f19601f82011682018060405250810190620018c391906200270d565b5060405163615bdddb60e11b81526001600160a01b03848116600483015282169063c2b7bbb690602401602060405180830381600087803b1580156200190857600080fd5b505af11580156200191d573d6000803e3d6000fd5b505050506040513d601f19601f820116820180604052508101906200194391906200270d565b5062001950858d620029d3565b9b5050505050505050505062001a39565b5050604080516060810182526001600160a01b0387811682526020820187815260ff878116948401948552600a805460018101825560009190915293517fc65a7bb8d6351c1cf70c95a316cc6a92839c986682d98bc35f958f4883f9d2a8600390950294850180546001600160a01b0319169190941617909255517fc65a7bb8d6351c1cf70c95a316cc6a92839c986682d98bc35f958f4883f9d2a983015591517fc65a7bb8d6351c1cf70c95a316cc6a92839c986682d98bc35f958f4883f9d2aa909101805460ff19169190921617905562001a41565b505062001481565b506200146f565b50604080516060810182526001600160a01b0394851681526020810193845260ff928316918101918252600a805460018101825560009190915290517fc65a7bb8d6351c1cf70c95a316cc6a92839c986682d98bc35f958f4883f9d2a8600390920291820180546001600160a01b031916919096161790945591517fc65a7bb8d6351c1cf70c95a316cc6a92839c986682d98bc35f958f4883f9d2a984015590517fc65a7bb8d6351c1cf70c95a316cc6a92839c986682d98bc35f958f4883f9d2aa909201805460ff191692909116919091179055565b816008600082825462001b33919062002975565b9091555050604080516060810182526001600160a01b038581168252602080830186815260ff868116858701908152600b8054600181018255600091825296517f0175b7a638427703f0dbe7bb9bbf987a2551717b34e79f33b5b1008d1fa01db9600390980297880180546001600160a01b03191691881691909117905592517f0175b7a638427703f0dbe7bb9bbf987a2551717b34e79f33b5b1008d1fa01dba870155517f0175b7a638427703f0dbe7bb9bbf987a2551717b34e79f33b5b1008d1fa01dbb909501805460ff191695909116949094179093559087168252600e905290812080548492906200146990849062002975565b600a548015620021f757825b670de0b6b3a7640000811062001a415760008060005b8481101562001cee576000600a828154811062001c7a57634e487b7160e01b600052603260045260246000fd5b600091825260209182902060408051606081018252600390930290910180546001600160a01b0316835260018101549383019390935260029092015460ff9081169282018390529092508416101562001cd857806040015192508193505b508062001ce58162002a7f565b91505062001c4d565b508460ff168160ff16111562002117576000600a838154811062001d2257634e487b7160e01b600052603260045260246000fd5b6000918252602080832060408051606081018252600390940290910180546001600160a01b031680855260018201548585015260029091015460ff168483015281516345564e6560e11b8152915193955093928492638aac9cca9260048082019391829003018186803b15801562001d9957600080fd5b505afa15801562001dae573d6000803e3d6000fd5b505050506040513d601f19601f8201168201806040525081019062001dd4919062002889565b90506000606462001de6818b620029ed565b60ff1683866020015162001dfb9190620029d3565b62001e079190620029b1565b62001e13919062002990565b905060008a82111562001e2857508962001e2b565b50805b600062001e3c60ff8c1683620029b1565b905060003087600001518f848660405162001e5790620025c8565b6001600160a01b03958616815293851660208501529390911660408301526060820152608081019190915260a001604051809103906000f08015801562001ea2573d6000803e3d6000fd5b509050600a898154811062001ec757634e487b7160e01b600052603260045260246000fd5b6000918252602082206003919091020180546001600160a01b03191681556001810191909155600201805460ff19169055604051632d267e0360e11b8152600481018490528e906001600160a01b03821690635a4cfc0690602401602060405180830381600087803b15801562001f3d57600080fd5b505af115801562001f52573d6000803e3d6000fd5b505050506040513d601f19601f8201168201806040525081019062001f7891906200270d565b5060405163615bdddb60e11b81526001600160a01b03838116600483015282169063c2b7bbb690602401602060405180830381600087803b15801562001fbd57600080fd5b505af115801562001fd2573d6000803e3d6000fd5b505050506040513d601f19601f8201168201806040525081019062001ff891906200270d565b508751604051632d267e0360e11b8152600481018590526001600160a01b03821690635a4cfc0690602401602060405180830381600087803b1580156200203e57600080fd5b505af115801562002053573d6000803e3d6000fd5b505050506040513d601f19601f820116820180604052508101906200207991906200270d565b5060405163615bdddb60e11b81526001600160a01b03848116600483015282169063c2b7bbb690602401602060405180830381600087803b158015620020be57600080fd5b505af1158015620020d3573d6000803e3d6000fd5b505050506040513d601f19601f82011682018060405250810190620020f991906200270d565b5062002106848d620029d3565b9b50505050505050505050620021ef565b5050604080516060810182526001600160a01b0387811682526020820187815260ff878116948401948552600c805460018101825560009190915293517fdf6966c971051c3d54ec59162606531493a51404a002842f56009d7e5cf4a8c7600390950294850180546001600160a01b0319169190941617909255517fdf6966c971051c3d54ec59162606531493a51404a002842f56009d7e5cf4a8c883015591517fdf6966c971051c3d54ec59162606531493a51404a002842f56009d7e5cf4a8c9909101805460ff19169190921617905562001a41565b505062001c37565b50604080516060810182526001600160a01b0394851681526020810193845260ff928316918101918252600c805460018101825560009190915290517fdf6966c971051c3d54ec59162606531493a51404a002842f56009d7e5cf4a8c7600390920291820180546001600160a01b031916919096161790945591517fdf6966c971051c3d54ec59162606531493a51404a002842f56009d7e5cf4a8c884015590517fdf6966c971051c3d54ec59162606531493a51404a002842f56009d7e5cf4a8c9909201805460ff191692909116919091179055565b600062002325826040518060400160405280602081526020017f5361666545524332303a206c6f772d6c6576656c2063616c6c206661696c6564815250856001600160a01b0316620023a79092919063ffffffff16565b8051909150156200135857808060200190518101906200234691906200270d565b620013585760405162461bcd60e51b815260206004820152602a60248201527f5361666545524332303a204552433230206f7065726174696f6e20646964206e6044820152691bdd081cdd58d8d9595960b21b6064820152608401620003cb565b6060620023b88484600085620023c0565b949350505050565b606082471015620024235760405162461bcd60e51b815260206004820152602660248201527f416464726573733a20696e73756666696369656e742062616c616e636520666f6044820152651c8818d85b1b60d21b6064820152608401620003cb565b6001600160a01b0385163b6200247c5760405162461bcd60e51b815260206004820152601d60248201527f416464726573733a2063616c6c20746f206e6f6e2d636f6e74726163740000006044820152606401620003cb565b600080866001600160a01b031685876040516200249a9190620028a2565b60006040518083038185875af1925050503d8060008114620024d9576040519150601f19603f3d011682016040523d82523d6000602084013e620024de565b606091505b5091509150620024f0828286620024fb565b979650505050505050565b606083156200250c57508162000f9f565b8251156200251d5782518084602001fd5b8160405162461bcd60e51b8152600401620003cb9190620028c0565b828054620025479062002a42565b90600052602060002090601f0160209004810192826200256b5760008555620025b6565b82601f106200258657805160ff1916838001178555620025b6565b82800160010185558215620025b6579182015b82811115620025b657825182559160200191906001019062002599565b50620025c4929150620025d6565b5090565b61035a8062002ae383390190565b5b80821115620025c45760008155600101620025d7565b600082601f830112620025fe578081fd5b8135620026156200260f826200294a565b62002916565b8181528460208386010111156200262a578283fd5b816020850160208301379081016020019190915292915050565b60006020828403121562002656578081fd5b813562000f9f8162002ac9565b60006020828403121562002675578081fd5b815162000f9f8162002ac9565b600080600080600060a086880312156200269a578081fd5b8535620026a78162002ac9565b94506020860135620026b98162002ac9565b935060408601359250606086013560ff81168114620026d6578182fd5b9150608086013567ffffffffffffffff811115620026f2578182fd5b6200270088828901620025ed565b9150509295509295909350565b6000602082840312156200271f578081fd5b8151801515811462000f9f578182fd5b60006020828403121562002741578081fd5b813567ffffffffffffffff81111562002758578182fd5b620023b884828501620025ed565b60006020828403121562002778578081fd5b815167ffffffffffffffff8111156200278f578182fd5b8201601f81018413620027a0578182fd5b8051620027b16200260f826200294a565b818152856020838501011115620027c6578384fd5b620027d982602083016020860162002a13565b95945050505050565b600080600060608486031215620027f7578283fd5b833567ffffffffffffffff808211156200280f578485fd5b6200281d87838801620025ed565b9450602086013591508082111562002833578384fd5b6200284187838801620025ed565b9350604086013591508082111562002857578283fd5b506200286686828701620025ed565b9150509250925092565b60006020828403121562002882578081fd5b5035919050565b6000602082840312156200289b578081fd5b5051919050565b60008251620028b681846020870162002a13565b9190910192915050565b6020815260008251806020840152620028e181604085016020870162002a13565b601f01601f19169190910160400192915050565b6020808252600790820152666f776e6572206f60c81b604082015260600190565b604051601f8201601f1916810167ffffffffffffffff8111828210171562002942576200294262002ab3565b604052919050565b600067ffffffffffffffff82111562002967576200296762002ab3565b50601f01601f191660200190565b600082198211156200298b576200298b62002a9d565b500190565b600082620029ac57634e487b7160e01b81526012600452602481fd5b500490565b6000816000190483118215151615620029ce57620029ce62002a9d565b500290565b600082821015620029e857620029e862002a9d565b500390565b600060ff821660ff84168082101562002a0a5762002a0a62002a9d565b90039392505050565b60005b8381101562002a3057818101518382015260200162002a16565b838111156200146f5750506000910152565b600181811c9082168062002a5757607f821691505b6020821081141562002a7957634e487b7160e01b600052602260045260246000fd5b50919050565b600060001982141562002a965762002a9662002a9d565b5060010190565b634e487b7160e01b600052601160045260246000fd5b634e487b7160e01b600052604160045260246000fd5b6001600160a01b038116811462002adf57600080fd5b5056fe6080604052600054600680546001600160a01b0390921661010002610100600160a81b031990921691909117905534801561003957600080fd5b5060405161035a38038061035a833981016040819052610058916101d6565b600660019054906101000a90046001600160a01b03166001600160a01b03166306ae70956040518163ffffffff1660e01b815260040160206040518083038186803b1580156100a657600080fd5b505afa1580156100ba573d6000803e3d6000fd5b505050506040513d601f19601f820116820180604052508101906100de91906101b5565b6001600160a01b0316336001600160a01b03161461014d5760405162461bcd60e51b815260206004820152602260248201527f6f6e6c79206d61726b657420666163746f72792063616e206d61746368206265604482015261747360f01b606482015260840160405180910390fd5b600180546001600160a01b03199081166001600160a01b03978816179091556002805482169587169590951790945560038054909416929094169190911790915560045560055561022b565b80516001600160a01b03811681146101b057600080fd5b919050565b6000602082840312156101c6578081fd5b6101cf82610199565b9392505050565b600080600080600060a086880312156101ed578081fd5b6101f686610199565b945061020460208701610199565b935061021260408701610199565b6060870151608090970151959894975095949392505050565b6101208061023a6000396000f3fe6080604052348015600f57600080fd5b5060043610605a5760003560e01c80630f765e6d14605f578063156dcbf014608e57806315e894ab1460a35780632efe91ef1460b557806380f556051460bd5780638f7758391460cf575b600080fd5b6003546071906001600160a01b031681565b6040516001600160a01b0390911681526020015b60405180910390f35b609660045481565b6040519081526020016085565b6002546071906001600160a01b031681565b609660055481565b6001546071906001600160a01b031681565b60065460db9060ff1681565b6040519015158152602001608556fea2646970667358221220a50f5fb4317fe4a9e0118b8824e7b7238eb79040ba9eed2cc8c3988b3f5dc2ac64736f6c63430008040033a2646970667358221220a8f6058bfdcf53f3036cce30d7da4616931024d41aa4c9fdc2b4fa2054f7c88464736f6c63430008040033",
					"opcodes": "PUSH1 0x80 PUSH1 0x40 DUP2 SWAP1 MSTORE PUSH1 0x4 DUP1 SLOAD PUSH1 0xFF NOT AND DUP2 SSTORE PUSH1 0x0 PUSH1 0x6 DUP2 SWAP1 SSTORE PUSH1 0x8 DUP2 SWAP1 SSTORE SLOAD PUSH1 0xF DUP1 SLOAD PUSH1 0x1 PUSH1 0x1 PUSH1 0xA0 SHL SUB NOT AND PUSH1 0x1 PUSH1 0x1 PUSH1 0xA0 SHL SUB SWAP1 SWAP3 AND SWAP2 DUP3 OR SWAP1 SSTORE PUSH4 0x992642E5 PUSH1 0xE0 SHL DUP4 MSTORE SWAP2 PUSH4 0x992642E5 SWAP2 PUSH1 0x84 SWAP2 PUSH1 0x20 SWAP2 DUP2 DUP7 DUP1 EXTCODESIZE ISZERO DUP1 ISZERO PUSH3 0x63 JUMPI PUSH1 0x0 DUP1 REVERT JUMPDEST POP GAS STATICCALL ISZERO DUP1 ISZERO PUSH3 0x78 JUMPI RETURNDATASIZE PUSH1 0x0 DUP1 RETURNDATACOPY RETURNDATASIZE PUSH1 0x0 REVERT JUMPDEST POP POP POP POP PUSH1 0x40 MLOAD RETURNDATASIZE PUSH1 0x1F NOT PUSH1 0x1F DUP3 ADD AND DUP3 ADD DUP1 PUSH1 0x40 MSTORE POP DUP2 ADD SWAP1 PUSH3 0x9E SWAP2 SWAP1 PUSH3 0x3AD JUMP JUMPDEST PUSH1 0x10 DUP1 SLOAD PUSH1 0x1 PUSH1 0x1 PUSH1 0xA0 SHL SUB SWAP3 SWAP1 SWAP3 AND PUSH1 0x1 PUSH1 0x1 PUSH1 0xA0 SHL SUB NOT SWAP3 DUP4 AND DUP2 OR SWAP1 SWAP2 SSTORE PUSH1 0x11 DUP1 SLOAD SWAP1 SWAP3 AND OR SWAP1 SSTORE CALLVALUE DUP1 ISZERO PUSH3 0xD6 JUMPI PUSH1 0x0 DUP1 REVERT JUMPDEST POP PUSH1 0x40 MLOAD PUSH3 0x3346 CODESIZE SUB DUP1 PUSH3 0x3346 DUP4 CODECOPY DUP2 ADD PUSH1 0x40 DUP2 SWAP1 MSTORE PUSH3 0xF9 SWAP2 PUSH3 0x3D1 JUMP JUMPDEST PUSH1 0xF PUSH1 0x0 SWAP1 SLOAD SWAP1 PUSH2 0x100 EXP SWAP1 DIV PUSH1 0x1 PUSH1 0x1 PUSH1 0xA0 SHL SUB AND PUSH1 0x1 PUSH1 0x1 PUSH1 0xA0 SHL SUB AND PUSH4 0x6AE7095 PUSH1 0x40 MLOAD DUP2 PUSH4 0xFFFFFFFF AND PUSH1 0xE0 SHL DUP2 MSTORE PUSH1 0x4 ADD PUSH1 0x20 PUSH1 0x40 MLOAD DUP1 DUP4 SUB DUP2 DUP7 DUP1 EXTCODESIZE ISZERO DUP1 ISZERO PUSH3 0x148 JUMPI PUSH1 0x0 DUP1 REVERT JUMPDEST POP GAS STATICCALL ISZERO DUP1 ISZERO PUSH3 0x15D JUMPI RETURNDATASIZE PUSH1 0x0 DUP1 RETURNDATACOPY RETURNDATASIZE PUSH1 0x0 REVERT JUMPDEST POP POP POP POP PUSH1 0x40 MLOAD RETURNDATASIZE PUSH1 0x1F NOT PUSH1 0x1F DUP3 ADD AND DUP3 ADD DUP1 PUSH1 0x40 MSTORE POP DUP2 ADD SWAP1 PUSH3 0x183 SWAP2 SWAP1 PUSH3 0x3AD JUMP JUMPDEST PUSH1 0x1 PUSH1 0x1 PUSH1 0xA0 SHL SUB AND CALLER PUSH1 0x1 PUSH1 0x1 PUSH1 0xA0 SHL SUB AND EQ PUSH3 0x1D0 JUMPI PUSH1 0x40 MLOAD PUSH3 0x461BCD PUSH1 0xE5 SHL DUP2 MSTORE PUSH1 0x20 PUSH1 0x4 DUP3 ADD MSTORE PUSH1 0x5 PUSH1 0x24 DUP3 ADD MSTORE PUSH5 0x667479206F PUSH1 0xD8 SHL PUSH1 0x44 DUP3 ADD MSTORE PUSH1 0x64 ADD PUSH1 0x40 MLOAD DUP1 SWAP2 SUB SWAP1 REVERT JUMPDEST DUP4 MLOAD PUSH3 0x1E5 SWAP1 PUSH1 0x1 SWAP1 PUSH1 0x20 DUP8 ADD SWAP1 PUSH3 0x237 JUMP JUMPDEST POP PUSH1 0x2 DUP1 SLOAD PUSH1 0x1 PUSH1 0x1 PUSH1 0xA0 SHL SUB NOT AND PUSH1 0x1 PUSH1 0x1 PUSH1 0xA0 SHL SUB DUP6 AND OR SWAP1 SSTORE DUP2 MLOAD PUSH3 0x216 SWAP1 PUSH1 0x5 SWAP1 PUSH1 0x20 DUP6 ADD SWAP1 PUSH3 0x237 JUMP JUMPDEST POP DUP1 MLOAD PUSH3 0x22C SWAP1 PUSH1 0x7 SWAP1 PUSH1 0x20 DUP5 ADD SWAP1 PUSH3 0x237 JUMP JUMPDEST POP POP POP POP POP PUSH3 0x4C4 JUMP JUMPDEST DUP3 DUP1 SLOAD PUSH3 0x245 SWAP1 PUSH3 0x471 JUMP JUMPDEST SWAP1 PUSH1 0x0 MSTORE PUSH1 0x20 PUSH1 0x0 KECCAK256 SWAP1 PUSH1 0x1F ADD PUSH1 0x20 SWAP1 DIV DUP2 ADD SWAP3 DUP3 PUSH3 0x269 JUMPI PUSH1 0x0 DUP6 SSTORE PUSH3 0x2B4 JUMP JUMPDEST DUP3 PUSH1 0x1F LT PUSH3 0x284 JUMPI DUP1 MLOAD PUSH1 0xFF NOT AND DUP4 DUP1 ADD OR DUP6 SSTORE PUSH3 0x2B4 JUMP JUMPDEST DUP3 DUP1 ADD PUSH1 0x1 ADD DUP6 SSTORE DUP3 ISZERO PUSH3 0x2B4 JUMPI SWAP2 DUP3 ADD JUMPDEST DUP3 DUP2 GT ISZERO PUSH3 0x2B4 JUMPI DUP3 MLOAD DUP3 SSTORE SWAP2 PUSH1 0x20 ADD SWAP2 SWAP1 PUSH1 0x1 ADD SWAP1 PUSH3 0x297 JUMP JUMPDEST POP PUSH3 0x2C2 SWAP3 SWAP2 POP PUSH3 0x2C6 JUMP JUMPDEST POP SWAP1 JUMP JUMPDEST JUMPDEST DUP1 DUP3 GT ISZERO PUSH3 0x2C2 JUMPI PUSH1 0x0 DUP2 SSTORE PUSH1 0x1 ADD PUSH3 0x2C7 JUMP JUMPDEST DUP1 MLOAD PUSH1 0x1 PUSH1 0x1 PUSH1 0xA0 SHL SUB DUP2 AND DUP2 EQ PUSH3 0x2F5 JUMPI PUSH1 0x0 DUP1 REVERT JUMPDEST SWAP2 SWAP1 POP JUMP JUMPDEST PUSH1 0x0 DUP3 PUSH1 0x1F DUP4 ADD SLT PUSH3 0x30B JUMPI DUP1 DUP2 REVERT JUMPDEST DUP2 MLOAD PUSH1 0x1 PUSH1 0x1 PUSH1 0x40 SHL SUB DUP1 DUP3 GT ISZERO PUSH3 0x328 JUMPI PUSH3 0x328 PUSH3 0x4AE JUMP JUMPDEST PUSH1 0x40 MLOAD PUSH1 0x1F DUP4 ADD PUSH1 0x1F NOT SWAP1 DUP2 AND PUSH1 0x3F ADD AND DUP2 ADD SWAP1 DUP3 DUP3 GT DUP2 DUP4 LT OR ISZERO PUSH3 0x353 JUMPI PUSH3 0x353 PUSH3 0x4AE JUMP JUMPDEST DUP2 PUSH1 0x40 MSTORE DUP4 DUP2 MSTORE PUSH1 0x20 SWAP3 POP DUP7 DUP4 DUP6 DUP9 ADD ADD GT ISZERO PUSH3 0x36F JUMPI DUP5 DUP6 REVERT JUMPDEST DUP5 SWAP2 POP JUMPDEST DUP4 DUP3 LT ISZERO PUSH3 0x392 JUMPI DUP6 DUP3 ADD DUP4 ADD MLOAD DUP2 DUP4 ADD DUP5 ADD MSTORE SWAP1 DUP3 ADD SWAP1 PUSH3 0x373 JUMP JUMPDEST DUP4 DUP3 GT ISZERO PUSH3 0x3A3 JUMPI DUP5 DUP4 DUP6 DUP4 ADD ADD MSTORE JUMPDEST SWAP7 SWAP6 POP POP POP POP POP POP JUMP JUMPDEST PUSH1 0x0 PUSH1 0x20 DUP3 DUP5 SUB SLT ISZERO PUSH3 0x3BF JUMPI DUP1 DUP2 REVERT JUMPDEST PUSH3 0x3CA DUP3 PUSH3 0x2DD JUMP JUMPDEST SWAP4 SWAP3 POP POP POP JUMP JUMPDEST PUSH1 0x0 DUP1 PUSH1 0x0 DUP1 PUSH1 0x80 DUP6 DUP8 SUB SLT ISZERO PUSH3 0x3E7 JUMPI DUP3 DUP4 REVERT JUMPDEST DUP5 MLOAD PUSH1 0x1 PUSH1 0x1 PUSH1 0x40 SHL SUB DUP1 DUP3 GT ISZERO PUSH3 0x3FE JUMPI DUP5 DUP6 REVERT JUMPDEST PUSH3 0x40C DUP9 DUP4 DUP10 ADD PUSH3 0x2FA JUMP JUMPDEST SWAP6 POP PUSH3 0x41C PUSH1 0x20 DUP9 ADD PUSH3 0x2DD JUMP JUMPDEST SWAP5 POP PUSH1 0x40 DUP8 ADD MLOAD SWAP2 POP DUP1 DUP3 GT ISZERO PUSH3 0x432 JUMPI DUP4 DUP5 REVERT JUMPDEST PUSH3 0x440 DUP9 DUP4 DUP10 ADD PUSH3 0x2FA JUMP JUMPDEST SWAP4 POP PUSH1 0x60 DUP8 ADD MLOAD SWAP2 POP DUP1 DUP3 GT ISZERO PUSH3 0x456 JUMPI DUP3 DUP4 REVERT JUMPDEST POP PUSH3 0x465 DUP8 DUP3 DUP9 ADD PUSH3 0x2FA JUMP JUMPDEST SWAP2 POP POP SWAP3 SWAP6 SWAP2 SWAP5 POP SWAP3 POP JUMP JUMPDEST PUSH1 0x1 DUP2 DUP2 SHR SWAP1 DUP3 AND DUP1 PUSH3 0x486 JUMPI PUSH1 0x7F DUP3 AND SWAP2 POP JUMPDEST PUSH1 0x20 DUP3 LT DUP2 EQ ISZERO PUSH3 0x4A8 JUMPI PUSH4 0x4E487B71 PUSH1 0xE0 SHL PUSH1 0x0 MSTORE PUSH1 0x22 PUSH1 0x4 MSTORE PUSH1 0x24 PUSH1 0x0 REVERT JUMPDEST POP SWAP2 SWAP1 POP JUMP JUMPDEST PUSH4 0x4E487B71 PUSH1 0xE0 SHL PUSH1 0x0 MSTORE PUSH1 0x41 PUSH1 0x4 MSTORE PUSH1 0x24 PUSH1 0x0 REVERT JUMPDEST PUSH2 0x2E72 DUP1 PUSH3 0x4D4 PUSH1 0x0 CODECOPY PUSH1 0x0 RETURN INVALID PUSH1 0x80 PUSH1 0x40 MSTORE CALLVALUE DUP1 ISZERO PUSH3 0x11 JUMPI PUSH1 0x0 DUP1 REVERT JUMPDEST POP PUSH1 0x4 CALLDATASIZE LT PUSH3 0x139 JUMPI PUSH1 0x0 CALLDATALOAD PUSH1 0xE0 SHR DUP1 PUSH4 0x8EB1A4AD GT PUSH3 0xBB JUMPI DUP1 PUSH4 0xBD92630C GT PUSH3 0x7A JUMPI DUP1 PUSH4 0xBD92630C EQ PUSH3 0x2AA JUMPI DUP1 PUSH4 0xD37E2996 EQ PUSH3 0x2BF JUMPI DUP1 PUSH4 0xE7C9A87F EQ PUSH3 0x2C9 JUMPI DUP1 PUSH4 0xFAD56779 EQ PUSH3 0x2E0 JUMPI DUP1 PUSH4 0xFBF06338 EQ PUSH3 0x30D JUMPI PUSH1 0x0 DUP1 REVERT JUMPDEST DUP1 PUSH4 0x8EB1A4AD EQ PUSH3 0x228 JUMPI DUP1 PUSH4 0x948FB24D EQ PUSH3 0x232 JUMPI DUP1 PUSH4 0x9BF5B845 EQ PUSH3 0x272 JUMPI DUP1 PUSH4 0xA355F897 EQ PUSH3 0x289 JUMPI DUP1 PUSH4 0xB40A4F05 EQ PUSH3 0x293 JUMPI PUSH1 0x0 DUP1 REVERT JUMPDEST DUP1 PUSH4 0x2B4A3527 GT PUSH3 0x108 JUMPI DUP1 PUSH4 0x2B4A3527 EQ PUSH3 0x1AA JUMPI DUP1 PUSH4 0x3AB8781C EQ PUSH3 0x1C1 JUMPI DUP1 PUSH4 0x5A358464 EQ PUSH3 0x1E4 JUMPI DUP1 PUSH4 0x6BFEFD6B EQ PUSH3 0x207 JUMPI DUP1 PUSH4 0x83BBE262 EQ PUSH3 0x211 JUMPI PUSH1 0x0 DUP1 REVERT JUMPDEST DUP1 PUSH4 0x3AFD56B EQ PUSH3 0x13E JUMPI DUP1 PUSH4 0x6FDDE03 EQ PUSH3 0x16A JUMPI DUP1 PUSH4 0xB469BDA EQ PUSH3 0x183 JUMPI DUP1 PUSH4 0xED5A933 EQ PUSH3 0x19C JUMPI JUMPDEST PUSH1 0x0 DUP1 REVERT JUMPDEST PUSH3 0x155 PUSH3 0x14F CALLDATASIZE PUSH1 0x4 PUSH3 0x2644 JUMP JUMPDEST PUSH3 0x317 JUMP JUMPDEST PUSH1 0x40 MLOAD SWAP1 ISZERO ISZERO DUP2 MSTORE PUSH1 0x20 ADD JUMPDEST PUSH1 0x40 MLOAD DUP1 SWAP2 SUB SWAP1 RETURN JUMPDEST PUSH3 0x174 PUSH3 0x623 JUMP JUMPDEST PUSH1 0x40 MLOAD PUSH3 0x161 SWAP2 SWAP1 PUSH3 0x28C0 JUMP JUMPDEST PUSH3 0x18D PUSH1 0x8 SLOAD DUP2 JUMP JUMPDEST PUSH1 0x40 MLOAD SWAP1 DUP2 MSTORE PUSH1 0x20 ADD PUSH3 0x161 JUMP JUMPDEST PUSH1 0x4 SLOAD PUSH3 0x155 SWAP1 PUSH1 0xFF AND DUP2 JUMP JUMPDEST PUSH3 0x155 PUSH3 0x1BB CALLDATASIZE PUSH1 0x4 PUSH3 0x2644 JUMP JUMPDEST PUSH3 0x6B9 JUMP JUMPDEST PUSH3 0x18D PUSH3 0x1D2 CALLDATASIZE PUSH1 0x4 PUSH3 0x2644 JUMP JUMPDEST PUSH1 0xD PUSH1 0x20 MSTORE PUSH1 0x0 SWAP1 DUP2 MSTORE PUSH1 0x40 SWAP1 KECCAK256 SLOAD DUP2 JUMP JUMPDEST PUSH3 0x18D PUSH3 0x1F5 CALLDATASIZE PUSH1 0x4 PUSH3 0x2644 JUMP JUMPDEST PUSH1 0xE PUSH1 0x20 MSTORE PUSH1 0x0 SWAP1 DUP2 MSTORE PUSH1 0x40 SWAP1 KECCAK256 SLOAD DUP2 JUMP JUMPDEST PUSH3 0x155 PUSH3 0xDCA JUMP JUMPDEST PUSH3 0x155 PUSH3 0x222 CALLDATASIZE PUSH1 0x4 PUSH3 0x27E2 JUMP JUMPDEST PUSH3 0xEA4 JUMP JUMPDEST PUSH3 0x174 PUSH3 0xFA6 JUMP JUMPDEST PUSH3 0x249 PUSH3 0x243 CALLDATASIZE PUSH1 0x4 PUSH3 0x2870 JUMP JUMPDEST PUSH3 0xFB5 JUMP JUMPDEST PUSH1 0x40 DUP1 MLOAD PUSH1 0x1 PUSH1 0x1 PUSH1 0xA0 SHL SUB SWAP1 SWAP5 AND DUP5 MSTORE PUSH1 0x20 DUP5 ADD SWAP3 SWAP1 SWAP3 MSTORE PUSH1 0xFF AND SWAP1 DUP3 ADD MSTORE PUSH1 0x60 ADD PUSH3 0x161 JUMP JUMPDEST PUSH3 0x155 PUSH3 0x283 CALLDATASIZE PUSH1 0x4 PUSH3 0x2682 JUMP JUMPDEST PUSH3 0xFF6 JUMP JUMPDEST PUSH3 0x174 PUSH3 0x11A6 JUMP JUMPDEST PUSH3 0x155 PUSH3 0x2A4 CALLDATASIZE PUSH1 0x4 PUSH3 0x272F JUMP JUMPDEST PUSH3 0x11B5 JUMP JUMPDEST PUSH1 0x2 SLOAD PUSH3 0x155 SWAP1 PUSH1 0x1 PUSH1 0xA0 SHL SWAP1 DIV PUSH1 0xFF AND DUP2 JUMP JUMPDEST PUSH3 0x18D PUSH1 0x6 SLOAD DUP2 JUMP JUMPDEST PUSH3 0x249 PUSH3 0x2DA CALLDATASIZE PUSH1 0x4 PUSH3 0x2870 JUMP JUMPDEST PUSH3 0x12E4 JUMP JUMPDEST PUSH1 0x2 SLOAD PUSH3 0x2F4 SWAP1 PUSH1 0x1 PUSH1 0x1 PUSH1 0xA0 SHL SUB AND DUP2 JUMP JUMPDEST PUSH1 0x40 MLOAD PUSH1 0x1 PUSH1 0x1 PUSH1 0xA0 SHL SUB SWAP1 SWAP2 AND DUP2 MSTORE PUSH1 0x20 ADD PUSH3 0x161 JUMP JUMPDEST PUSH3 0x174 PUSH3 0x12F5 JUMP JUMPDEST PUSH1 0xF SLOAD PUSH1 0x40 DUP1 MLOAD PUSH4 0x6AE7095 PUSH1 0xE0 SHL DUP2 MSTORE SWAP1 MLOAD PUSH1 0x0 SWAP3 PUSH1 0x1 PUSH1 0x1 PUSH1 0xA0 SHL SUB AND SWAP2 PUSH4 0x6AE7095 SWAP2 PUSH1 0x4 DUP1 DUP4 ADD SWAP3 PUSH1 0x20 SWAP3 SWAP2 SWAP1 DUP3 SWAP1 SUB ADD DUP2 DUP7 DUP1 EXTCODESIZE ISZERO DUP1 ISZERO PUSH3 0x35D JUMPI PUSH1 0x0 DUP1 REVERT JUMPDEST POP GAS STATICCALL ISZERO DUP1 ISZERO PUSH3 0x372 JUMPI RETURNDATASIZE PUSH1 0x0 DUP1 RETURNDATACOPY RETURNDATASIZE PUSH1 0x0 REVERT JUMPDEST POP POP POP POP PUSH1 0x40 MLOAD RETURNDATASIZE PUSH1 0x1F NOT PUSH1 0x1F DUP3 ADD AND DUP3 ADD DUP1 PUSH1 0x40 MSTORE POP DUP2 ADD SWAP1 PUSH3 0x398 SWAP2 SWAP1 PUSH3 0x2663 JUMP JUMPDEST PUSH1 0x1 PUSH1 0x1 PUSH1 0xA0 SHL SUB AND CALLER PUSH1 0x1 PUSH1 0x1 PUSH1 0xA0 SHL SUB AND EQ PUSH3 0x3D4 JUMPI PUSH1 0x40 MLOAD PUSH3 0x461BCD PUSH1 0xE5 SHL DUP2 MSTORE PUSH1 0x4 ADD PUSH3 0x3CB SWAP1 PUSH3 0x28F5 JUMP JUMPDEST PUSH1 0x40 MLOAD DUP1 SWAP2 SUB SWAP1 REVERT JUMPDEST PUSH1 0x0 DUP3 SWAP1 POP PUSH1 0x0 DUP2 PUSH1 0x1 PUSH1 0x1 PUSH1 0xA0 SHL SUB AND PUSH4 0x8AAC9CCA PUSH1 0x40 MLOAD DUP2 PUSH4 0xFFFFFFFF AND PUSH1 0xE0 SHL DUP2 MSTORE PUSH1 0x4 ADD PUSH1 0x20 PUSH1 0x40 MLOAD DUP1 DUP4 SUB DUP2 DUP7 DUP1 EXTCODESIZE ISZERO DUP1 ISZERO PUSH3 0x415 JUMPI PUSH1 0x0 DUP1 REVERT JUMPDEST POP GAS STATICCALL ISZERO DUP1 ISZERO PUSH3 0x42A JUMPI RETURNDATASIZE PUSH1 0x0 DUP1 RETURNDATACOPY RETURNDATASIZE PUSH1 0x0 REVERT JUMPDEST POP POP POP POP PUSH1 0x40 MLOAD RETURNDATASIZE PUSH1 0x1F NOT PUSH1 0x1F DUP3 ADD AND DUP3 ADD DUP1 PUSH1 0x40 MSTORE POP DUP2 ADD SWAP1 PUSH3 0x450 SWAP2 SWAP1 PUSH3 0x2889 JUMP JUMPDEST DUP3 PUSH1 0x1 PUSH1 0x1 PUSH1 0xA0 SHL SUB AND PUSH4 0x3A4B66F1 PUSH1 0x40 MLOAD DUP2 PUSH4 0xFFFFFFFF AND PUSH1 0xE0 SHL DUP2 MSTORE PUSH1 0x4 ADD PUSH1 0x20 PUSH1 0x40 MLOAD DUP1 DUP4 SUB DUP2 DUP7 DUP1 EXTCODESIZE ISZERO DUP1 ISZERO PUSH3 0x48A JUMPI PUSH1 0x0 DUP1 REVERT JUMPDEST POP GAS STATICCALL ISZERO DUP1 ISZERO PUSH3 0x49F JUMPI RETURNDATASIZE PUSH1 0x0 DUP1 RETURNDATACOPY RETURNDATASIZE PUSH1 0x0 REVERT JUMPDEST POP POP POP POP PUSH1 0x40 MLOAD RETURNDATASIZE PUSH1 0x1F NOT PUSH1 0x1F DUP3 ADD AND DUP3 ADD DUP1 PUSH1 0x40 MSTORE POP DUP2 ADD SWAP1 PUSH3 0x4C5 SWAP2 SWAP1 PUSH3 0x2889 JUMP JUMPDEST PUSH3 0x4D1 SWAP2 SWAP1 PUSH3 0x29D3 JUMP JUMPDEST SWAP1 POP DUP1 SELFBALANCE GT PUSH3 0x50D JUMPI PUSH1 0x40 MLOAD PUSH3 0x461BCD PUSH1 0xE5 SHL DUP2 MSTORE PUSH1 0x20 PUSH1 0x4 DUP3 ADD MSTORE PUSH1 0x6 PUSH1 0x24 DUP3 ADD MSTORE PUSH6 0xC08199D5B99 PUSH1 0xD2 SHL PUSH1 0x44 DUP3 ADD MSTORE PUSH1 0x64 ADD PUSH3 0x3CB JUMP JUMPDEST PUSH3 0x59A DUP3 PUSH1 0x1 PUSH1 0x1 PUSH1 0xA0 SHL SUB AND PUSH4 0x718C7D44 PUSH1 0x40 MLOAD DUP2 PUSH4 0xFFFFFFFF AND PUSH1 0xE0 SHL DUP2 MSTORE PUSH1 0x4 ADD PUSH1 0x20 PUSH1 0x40 MLOAD DUP1 DUP4 SUB DUP2 DUP7 DUP1 EXTCODESIZE ISZERO DUP1 ISZERO PUSH3 0x54B JUMPI PUSH1 0x0 DUP1 REVERT JUMPDEST POP GAS STATICCALL ISZERO DUP1 ISZERO PUSH3 0x560 JUMPI RETURNDATASIZE PUSH1 0x0 DUP1 RETURNDATACOPY RETURNDATASIZE PUSH1 0x0 REVERT JUMPDEST POP POP POP POP PUSH1 0x40 MLOAD RETURNDATASIZE PUSH1 0x1F NOT PUSH1 0x1F DUP3 ADD AND DUP3 ADD DUP1 PUSH1 0x40 MSTORE POP DUP2 ADD SWAP1 PUSH3 0x586 SWAP2 SWAP1 PUSH3 0x2663 JUMP JUMPDEST PUSH1 0x11 SLOAD PUSH1 0x1 PUSH1 0x1 PUSH1 0xA0 SHL SUB AND SWAP1 DUP4 PUSH3 0x1304 JUMP JUMPDEST PUSH1 0x40 MLOAD PUSH4 0x2D267E03 PUSH1 0xE1 SHL DUP2 MSTORE PUSH1 0x4 DUP2 ADD DUP3 SWAP1 MSTORE PUSH1 0x1 PUSH1 0x1 PUSH1 0xA0 SHL SUB DUP4 AND SWAP1 PUSH4 0x5A4CFC06 SWAP1 PUSH1 0x24 ADD PUSH1 0x20 PUSH1 0x40 MLOAD DUP1 DUP4 SUB DUP2 PUSH1 0x0 DUP8 DUP1 EXTCODESIZE ISZERO DUP1 ISZERO PUSH3 0x5DD JUMPI PUSH1 0x0 DUP1 REVERT JUMPDEST POP GAS CALL ISZERO DUP1 ISZERO PUSH3 0x5F2 JUMPI RETURNDATASIZE PUSH1 0x0 DUP1 RETURNDATACOPY RETURNDATASIZE PUSH1 0x0 REVERT JUMPDEST POP POP POP POP PUSH1 0x40 MLOAD RETURNDATASIZE PUSH1 0x1F NOT PUSH1 0x1F DUP3 ADD AND DUP3 ADD DUP1 PUSH1 0x40 MSTORE POP DUP2 ADD SWAP1 PUSH3 0x618 SWAP2 SWAP1 PUSH3 0x270D JUMP JUMPDEST POP PUSH1 0x1 SWAP5 SWAP4 POP POP POP POP JUMP JUMPDEST PUSH1 0x1 DUP1 SLOAD PUSH3 0x632 SWAP1 PUSH3 0x2A42 JUMP JUMPDEST DUP1 PUSH1 0x1F ADD PUSH1 0x20 DUP1 SWAP2 DIV MUL PUSH1 0x20 ADD PUSH1 0x40 MLOAD SWAP1 DUP2 ADD PUSH1 0x40 MSTORE DUP1 SWAP3 SWAP2 SWAP1 DUP2 DUP2 MSTORE PUSH1 0x20 ADD DUP3 DUP1 SLOAD PUSH3 0x660 SWAP1 PUSH3 0x2A42 JUMP JUMPDEST DUP1 ISZERO PUSH3 0x6B1 JUMPI DUP1 PUSH1 0x1F LT PUSH3 0x685 JUMPI PUSH2 0x100 DUP1 DUP4 SLOAD DIV MUL DUP4 MSTORE SWAP2 PUSH1 0x20 ADD SWAP2 PUSH3 0x6B1 JUMP JUMPDEST DUP3 ADD SWAP2 SWAP1 PUSH1 0x0 MSTORE PUSH1 0x20 PUSH1 0x0 KECCAK256 SWAP1 JUMPDEST DUP2 SLOAD DUP2 MSTORE SWAP1 PUSH1 0x1 ADD SWAP1 PUSH1 0x20 ADD DUP1 DUP4 GT PUSH3 0x693 JUMPI DUP3 SWAP1 SUB PUSH1 0x1F AND DUP3 ADD SWAP2 JUMPDEST POP POP POP POP POP DUP2 JUMP JUMPDEST PUSH1 0xF SLOAD PUSH1 0x40 DUP1 MLOAD PUSH4 0x6AE7095 PUSH1 0xE0 SHL DUP2 MSTORE SWAP1 MLOAD PUSH1 0x0 SWAP3 PUSH1 0x1 PUSH1 0x1 PUSH1 0xA0 SHL SUB AND SWAP2 PUSH4 0x6AE7095 SWAP2 PUSH1 0x4 DUP1 DUP4 ADD SWAP3 PUSH1 0x20 SWAP3 SWAP2 SWAP1 DUP3 SWAP1 SUB ADD DUP2 DUP7 DUP1 EXTCODESIZE ISZERO DUP1 ISZERO PUSH3 0x6FF JUMPI PUSH1 0x0 DUP1 REVERT JUMPDEST POP GAS STATICCALL ISZERO DUP1 ISZERO PUSH3 0x714 JUMPI RETURNDATASIZE PUSH1 0x0 DUP1 RETURNDATACOPY RETURNDATASIZE PUSH1 0x0 REVERT JUMPDEST POP POP POP POP PUSH1 0x40 MLOAD RETURNDATASIZE PUSH1 0x1F NOT PUSH1 0x1F DUP3 ADD AND DUP3 ADD DUP1 PUSH1 0x40 MSTORE POP DUP2 ADD SWAP1 PUSH3 0x73A SWAP2 SWAP1 PUSH3 0x2663 JUMP JUMPDEST PUSH1 0x1 PUSH1 0x1 PUSH1 0xA0 SHL SUB AND CALLER PUSH1 0x1 PUSH1 0x1 PUSH1 0xA0 SHL SUB AND EQ PUSH3 0x76D JUMPI PUSH1 0x40 MLOAD PUSH3 0x461BCD PUSH1 0xE5 SHL DUP2 MSTORE PUSH1 0x4 ADD PUSH3 0x3CB SWAP1 PUSH3 0x28F5 JUMP JUMPDEST PUSH1 0x0 DUP3 SWAP1 POP PUSH1 0x0 DUP2 PUSH1 0x1 PUSH1 0x1 PUSH1 0xA0 SHL SUB AND PUSH4 0x80F55605 PUSH1 0x40 MLOAD DUP2 PUSH4 0xFFFFFFFF AND PUSH1 0xE0 SHL DUP2 MSTORE PUSH1 0x4 ADD PUSH1 0x20 PUSH1 0x40 MLOAD DUP1 DUP4 SUB DUP2 DUP7 DUP1 EXTCODESIZE ISZERO DUP1 ISZERO PUSH3 0x7AE JUMPI PUSH1 0x0 DUP1 REVERT JUMPDEST POP GAS STATICCALL ISZERO DUP1 ISZERO PUSH3 0x7C3 JUMPI RETURNDATASIZE PUSH1 0x0 DUP1 RETURNDATACOPY RETURNDATASIZE PUSH1 0x0 REVERT JUMPDEST POP POP POP POP PUSH1 0x40 MLOAD RETURNDATASIZE PUSH1 0x1F NOT PUSH1 0x1F DUP3 ADD AND DUP3 ADD DUP1 PUSH1 0x40 MSTORE POP DUP2 ADD SWAP1 PUSH3 0x7E9 SWAP2 SWAP1 PUSH3 0x2663 JUMP JUMPDEST SWAP1 POP PUSH1 0x0 DUP3 PUSH1 0x1 PUSH1 0x1 PUSH1 0xA0 SHL SUB AND PUSH4 0x15E894AB PUSH1 0x40 MLOAD DUP2 PUSH4 0xFFFFFFFF AND PUSH1 0xE0 SHL DUP2 MSTORE PUSH1 0x4 ADD PUSH1 0x20 PUSH1 0x40 MLOAD DUP1 DUP4 SUB DUP2 DUP7 DUP1 EXTCODESIZE ISZERO DUP1 ISZERO PUSH3 0x827 JUMPI PUSH1 0x0 DUP1 REVERT JUMPDEST POP GAS STATICCALL ISZERO DUP1 ISZERO PUSH3 0x83C JUMPI RETURNDATASIZE PUSH1 0x0 DUP1 RETURNDATACOPY RETURNDATASIZE PUSH1 0x0 REVERT JUMPDEST POP POP POP POP PUSH1 0x40 MLOAD RETURNDATASIZE PUSH1 0x1F NOT PUSH1 0x1F DUP3 ADD AND DUP3 ADD DUP1 PUSH1 0x40 MSTORE POP DUP2 ADD SWAP1 PUSH3 0x862 SWAP2 SWAP1 PUSH3 0x2663 JUMP JUMPDEST SWAP1 POP PUSH1 0x0 DUP4 PUSH1 0x1 PUSH1 0x1 PUSH1 0xA0 SHL SUB AND PUSH4 0xF765E6D PUSH1 0x40 MLOAD DUP2 PUSH4 0xFFFFFFFF AND PUSH1 0xE0 SHL DUP2 MSTORE PUSH1 0x4 ADD PUSH1 0x20 PUSH1 0x40 MLOAD DUP1 DUP4 SUB DUP2 DUP7 DUP1 EXTCODESIZE ISZERO DUP1 ISZERO PUSH3 0x8A0 JUMPI PUSH1 0x0 DUP1 REVERT JUMPDEST POP GAS STATICCALL ISZERO DUP1 ISZERO PUSH3 0x8B5 JUMPI RETURNDATASIZE PUSH1 0x0 DUP1 RETURNDATACOPY RETURNDATASIZE PUSH1 0x0 REVERT JUMPDEST POP POP POP POP PUSH1 0x40 MLOAD RETURNDATASIZE PUSH1 0x1F NOT PUSH1 0x1F DUP3 ADD AND DUP3 ADD DUP1 PUSH1 0x40 MSTORE POP DUP2 ADD SWAP1 PUSH3 0x8DB SWAP2 SWAP1 PUSH3 0x2663 JUMP JUMPDEST SWAP1 POP PUSH1 0x0 DUP5 PUSH1 0x1 PUSH1 0x1 PUSH1 0xA0 SHL SUB AND PUSH4 0x156DCBF0 PUSH1 0x40 MLOAD DUP2 PUSH4 0xFFFFFFFF AND PUSH1 0xE0 SHL DUP2 MSTORE PUSH1 0x4 ADD PUSH1 0x20 PUSH1 0x40 MLOAD DUP1 DUP4 SUB DUP2 DUP7 DUP1 EXTCODESIZE ISZERO DUP1 ISZERO PUSH3 0x919 JUMPI PUSH1 0x0 DUP1 REVERT JUMPDEST POP GAS STATICCALL ISZERO DUP1 ISZERO PUSH3 0x92E JUMPI RETURNDATASIZE PUSH1 0x0 DUP1 RETURNDATACOPY RETURNDATASIZE PUSH1 0x0 REVERT JUMPDEST POP POP POP POP PUSH1 0x40 MLOAD RETURNDATASIZE PUSH1 0x1F NOT PUSH1 0x1F DUP3 ADD AND DUP3 ADD DUP1 PUSH1 0x40 MSTORE POP DUP2 ADD SWAP1 PUSH3 0x954 SWAP2 SWAP1 PUSH3 0x2889 JUMP JUMPDEST SWAP1 POP PUSH1 0x0 DUP6 PUSH1 0x1 PUSH1 0x1 PUSH1 0xA0 SHL SUB AND PUSH4 0x2EFE91EF PUSH1 0x40 MLOAD DUP2 PUSH4 0xFFFFFFFF AND PUSH1 0xE0 SHL DUP2 MSTORE PUSH1 0x4 ADD PUSH1 0x20 PUSH1 0x40 MLOAD DUP1 DUP4 SUB DUP2 DUP7 DUP1 EXTCODESIZE ISZERO DUP1 ISZERO PUSH3 0x992 JUMPI PUSH1 0x0 DUP1 REVERT JUMPDEST POP GAS STATICCALL ISZERO DUP1 ISZERO PUSH3 0x9A7 JUMPI RETURNDATASIZE PUSH1 0x0 DUP1 RETURNDATACOPY RETURNDATASIZE PUSH1 0x0 REVERT JUMPDEST POP POP POP POP PUSH1 0x40 MLOAD RETURNDATASIZE PUSH1 0x1F NOT PUSH1 0x1F DUP3 ADD AND DUP3 ADD DUP1 PUSH1 0x40 MSTORE POP DUP2 ADD SWAP1 PUSH3 0x9CD SWAP2 SWAP1 PUSH3 0x2889 JUMP JUMPDEST SWAP1 POP PUSH1 0x0 DUP6 SWAP1 POP DUP7 PUSH1 0x1 PUSH1 0x1 PUSH1 0xA0 SHL SUB AND PUSH4 0x8F775839 PUSH1 0x40 MLOAD DUP2 PUSH4 0xFFFFFFFF AND PUSH1 0xE0 SHL DUP2 MSTORE PUSH1 0x4 ADD PUSH1 0x20 PUSH1 0x40 MLOAD DUP1 DUP4 SUB DUP2 DUP7 DUP1 EXTCODESIZE ISZERO DUP1 ISZERO PUSH3 0xA0E JUMPI PUSH1 0x0 DUP1 REVERT JUMPDEST POP GAS STATICCALL ISZERO DUP1 ISZERO PUSH3 0xA23 JUMPI RETURNDATASIZE PUSH1 0x0 DUP1 RETURNDATACOPY RETURNDATASIZE PUSH1 0x0 REVERT JUMPDEST POP POP POP POP PUSH1 0x40 MLOAD RETURNDATASIZE PUSH1 0x1F NOT PUSH1 0x1F DUP3 ADD AND DUP3 ADD DUP1 PUSH1 0x40 MSTORE POP DUP2 ADD SWAP1 PUSH3 0xA49 SWAP2 SWAP1 PUSH3 0x270D JUMP JUMPDEST ISZERO PUSH3 0xA8F JUMPI PUSH1 0x40 MLOAD PUSH3 0x461BCD PUSH1 0xE5 SHL DUP2 MSTORE PUSH1 0x20 PUSH1 0x4 DUP3 ADD MSTORE PUSH1 0x14 PUSH1 0x24 DUP3 ADD MSTORE PUSH20 0x1C185A5C88185B1C9958591E481CD95D1D1B1959 PUSH1 0x62 SHL PUSH1 0x44 DUP3 ADD MSTORE PUSH1 0x64 ADD PUSH3 0x3CB JUMP JUMPDEST DUP1 PUSH1 0x1 PUSH1 0x1 PUSH1 0xA0 SHL SUB AND PUSH4 0xBD92630C PUSH1 0x40 MLOAD DUP2 PUSH4 0xFFFFFFFF AND PUSH1 0xE0 SHL DUP2 MSTORE PUSH1 0x4 ADD PUSH1 0x20 PUSH1 0x40 MLOAD DUP1 DUP4 SUB DUP2 DUP7 DUP1 EXTCODESIZE ISZERO DUP1 ISZERO PUSH3 0xAC9 JUMPI PUSH1 0x0 DUP1 REVERT JUMPDEST POP GAS STATICCALL ISZERO DUP1 ISZERO PUSH3 0xADE JUMPI RETURNDATASIZE PUSH1 0x0 DUP1 RETURNDATACOPY RETURNDATASIZE PUSH1 0x0 REVERT JUMPDEST POP POP POP POP PUSH1 0x40 MLOAD RETURNDATASIZE PUSH1 0x1F NOT PUSH1 0x1F DUP3 ADD AND DUP3 ADD DUP1 PUSH1 0x40 MSTORE POP DUP2 ADD SWAP1 PUSH3 0xB04 SWAP2 SWAP1 PUSH3 0x270D JUMP JUMPDEST PUSH3 0xB38 JUMPI PUSH1 0x40 MLOAD PUSH3 0x461BCD PUSH1 0xE5 SHL DUP2 MSTORE PUSH1 0x20 PUSH1 0x4 DUP3 ADD MSTORE PUSH1 0x3 PUSH1 0x24 DUP3 ADD MSTORE PUSH3 0x3BB4B7 PUSH1 0xE9 SHL PUSH1 0x44 DUP3 ADD MSTORE PUSH1 0x64 ADD PUSH3 0x3CB JUMP JUMPDEST PUSH1 0x40 MLOAD PUSH5 0x7369646541 PUSH1 0xD8 SHL PUSH1 0x20 DUP3 ADD MSTORE PUSH1 0x25 ADD PUSH1 0x40 MLOAD PUSH1 0x20 DUP2 DUP4 SUB SUB DUP2 MSTORE SWAP1 PUSH1 0x40 MSTORE DUP1 MLOAD SWAP1 PUSH1 0x20 ADD KECCAK256 DUP2 PUSH1 0x1 PUSH1 0x1 PUSH1 0xA0 SHL SUB AND PUSH4 0xFBF06338 PUSH1 0x40 MLOAD DUP2 PUSH4 0xFFFFFFFF AND PUSH1 0xE0 SHL DUP2 MSTORE PUSH1 0x4 ADD PUSH1 0x0 PUSH1 0x40 MLOAD DUP1 DUP4 SUB DUP2 DUP7 DUP1 EXTCODESIZE ISZERO DUP1 ISZERO PUSH3 0xB9C JUMPI PUSH1 0x0 DUP1 REVERT JUMPDEST POP GAS STATICCALL ISZERO DUP1 ISZERO PUSH3 0xBB1 JUMPI RETURNDATASIZE PUSH1 0x0 DUP1 RETURNDATACOPY RETURNDATASIZE PUSH1 0x0 REVERT JUMPDEST POP POP POP POP PUSH1 0x40 MLOAD RETURNDATASIZE PUSH1 0x0 DUP3 RETURNDATACOPY PUSH1 0x1F RETURNDATASIZE SWAP1 DUP2 ADD PUSH1 0x1F NOT AND DUP3 ADD PUSH1 0x40 MSTORE PUSH3 0xBDB SWAP2 SWAP1 DUP2 ADD SWAP1 PUSH3 0x2766 JUMP JUMPDEST PUSH1 0x40 MLOAD PUSH1 0x20 ADD PUSH3 0xBED SWAP2 SWAP1 PUSH3 0x28A2 JUMP JUMPDEST PUSH1 0x40 MLOAD PUSH1 0x20 DUP2 DUP4 SUB SUB DUP2 MSTORE SWAP1 PUSH1 0x40 MSTORE DUP1 MLOAD SWAP1 PUSH1 0x20 ADD KECCAK256 EQ ISZERO PUSH3 0xC6E JUMPI PUSH3 0xC4A DUP6 PUSH1 0xA PUSH3 0xC1E DUP6 PUSH1 0x9 PUSH3 0x29B1 JUMP JUMPDEST PUSH3 0xC2A SWAP2 SWAP1 PUSH3 0x2990 JUMP JUMPDEST PUSH3 0xC36 SWAP1 DUP7 PUSH3 0x2975 JUMP JUMPDEST PUSH1 0x11 SLOAD PUSH1 0x1 PUSH1 0x1 PUSH1 0xA0 SHL SUB AND SWAP2 SWAP1 PUSH3 0x1304 JUMP JUMPDEST PUSH1 0x0 SLOAD PUSH3 0xC68 SWAP1 PUSH1 0x1 PUSH1 0x1 PUSH1 0xA0 SHL SUB AND PUSH3 0xC36 PUSH1 0xA DUP6 PUSH3 0x2990 JUMP JUMPDEST PUSH3 0xDBB JUMP JUMPDEST PUSH1 0x40 MLOAD PUSH5 0x39B4B232A1 PUSH1 0xD9 SHL PUSH1 0x20 DUP3 ADD MSTORE PUSH1 0x25 ADD PUSH1 0x40 MLOAD PUSH1 0x20 DUP2 DUP4 SUB SUB DUP2 MSTORE SWAP1 PUSH1 0x40 MSTORE DUP1 MLOAD SWAP1 PUSH1 0x20 ADD KECCAK256 DUP2 PUSH1 0x1 PUSH1 0x1 PUSH1 0xA0 SHL SUB AND PUSH4 0xFBF06338 PUSH1 0x40 MLOAD DUP2 PUSH4 0xFFFFFFFF AND PUSH1 0xE0 SHL DUP2 MSTORE PUSH1 0x4 ADD PUSH1 0x0 PUSH1 0x40 MLOAD DUP1 DUP4 SUB DUP2 DUP7 DUP1 EXTCODESIZE ISZERO DUP1 ISZERO PUSH3 0xCD2 JUMPI PUSH1 0x0 DUP1 REVERT JUMPDEST POP GAS STATICCALL ISZERO DUP1 ISZERO PUSH3 0xCE7 JUMPI RETURNDATASIZE PUSH1 0x0 DUP1 RETURNDATACOPY RETURNDATASIZE PUSH1 0x0 REVERT JUMPDEST POP POP POP POP PUSH1 0x40 MLOAD RETURNDATASIZE PUSH1 0x0 DUP3 RETURNDATACOPY PUSH1 0x1F RETURNDATASIZE SWAP1 DUP2 ADD PUSH1 0x1F NOT AND DUP3 ADD PUSH1 0x40 MSTORE PUSH3 0xD11 SWAP2 SWAP1 DUP2 ADD SWAP1 PUSH3 0x2766 JUMP JUMPDEST PUSH1 0x40 MLOAD PUSH1 0x20 ADD PUSH3 0xD23 SWAP2 SWAP1 PUSH3 0x28A2 JUMP JUMPDEST PUSH1 0x40 MLOAD PUSH1 0x20 DUP2 DUP4 SUB SUB DUP2 MSTORE SWAP1 PUSH1 0x40 MSTORE DUP1 MLOAD SWAP1 PUSH1 0x20 ADD KECCAK256 EQ ISZERO PUSH3 0xD8A JUMPI PUSH3 0xD6C DUP5 PUSH1 0xA PUSH3 0xD54 DUP7 PUSH1 0x9 PUSH3 0x29B1 JUMP JUMPDEST PUSH3 0xD60 SWAP2 SWAP1 PUSH3 0x2990 JUMP JUMPDEST PUSH3 0xC36 SWAP1 DUP6 PUSH3 0x2975 JUMP JUMPDEST PUSH1 0x0 SLOAD PUSH3 0xC68 SWAP1 PUSH1 0x1 PUSH1 0x1 PUSH1 0xA0 SHL SUB AND PUSH3 0xC36 PUSH1 0xA DUP7 PUSH3 0x2990 JUMP JUMPDEST PUSH1 0x40 MLOAD PUSH3 0x461BCD PUSH1 0xE5 SHL DUP2 MSTORE PUSH1 0x20 PUSH1 0x4 DUP3 ADD MSTORE PUSH1 0x5 PUSH1 0x24 DUP3 ADD MSTORE PUSH5 0x3C103BB4B7 PUSH1 0xD9 SHL PUSH1 0x44 DUP3 ADD MSTORE PUSH1 0x64 ADD PUSH3 0x3CB JUMP JUMPDEST POP PUSH1 0x1 SWAP9 SWAP8 POP POP POP POP POP POP POP POP JUMP JUMPDEST PUSH1 0xF SLOAD PUSH1 0x40 DUP1 MLOAD PUSH4 0x6AE7095 PUSH1 0xE0 SHL DUP2 MSTORE SWAP1 MLOAD PUSH1 0x0 SWAP3 PUSH1 0x1 PUSH1 0x1 PUSH1 0xA0 SHL SUB AND SWAP2 PUSH4 0x6AE7095 SWAP2 PUSH1 0x4 DUP1 DUP4 ADD SWAP3 PUSH1 0x20 SWAP3 SWAP2 SWAP1 DUP3 SWAP1 SUB ADD DUP2 DUP7 DUP1 EXTCODESIZE ISZERO DUP1 ISZERO PUSH3 0xE10 JUMPI PUSH1 0x0 DUP1 REVERT JUMPDEST POP GAS STATICCALL ISZERO DUP1 ISZERO PUSH3 0xE25 JUMPI RETURNDATASIZE PUSH1 0x0 DUP1 RETURNDATACOPY RETURNDATASIZE PUSH1 0x0 REVERT JUMPDEST POP POP POP POP PUSH1 0x40 MLOAD RETURNDATASIZE PUSH1 0x1F NOT PUSH1 0x1F DUP3 ADD AND DUP3 ADD DUP1 PUSH1 0x40 MSTORE POP DUP2 ADD SWAP1 PUSH3 0xE4B SWAP2 SWAP1 PUSH3 0x2663 JUMP JUMPDEST PUSH1 0x1 PUSH1 0x1 PUSH1 0xA0 SHL SUB AND CALLER PUSH1 0x1 PUSH1 0x1 PUSH1 0xA0 SHL SUB AND EQ PUSH3 0xE7E JUMPI PUSH1 0x40 MLOAD PUSH3 0x461BCD PUSH1 0xE5 SHL DUP2 MSTORE PUSH1 0x4 ADD PUSH3 0x3CB SWAP1 PUSH3 0x28F5 JUMP JUMPDEST PUSH1 0x4 SLOAD PUSH1 0xFF AND ISZERO PUSH3 0xE90 JUMPI POP PUSH1 0x1 SWAP1 JUMP JUMPDEST POP PUSH1 0x4 DUP1 SLOAD PUSH1 0xFF NOT AND PUSH1 0x1 SWAP1 DUP2 OR SWAP1 SWAP2 SSTORE SWAP1 JUMP JUMPDEST PUSH1 0xF SLOAD PUSH1 0x40 DUP1 MLOAD PUSH4 0x6AE7095 PUSH1 0xE0 SHL DUP2 MSTORE SWAP1 MLOAD PUSH1 0x0 SWAP3 PUSH1 0x1 PUSH1 0x1 PUSH1 0xA0 SHL SUB AND SWAP2 PUSH4 0x6AE7095 SWAP2 PUSH1 0x4 DUP1 DUP4 ADD SWAP3 PUSH1 0x20 SWAP3 SWAP2 SWAP1 DUP3 SWAP1 SUB ADD DUP2 DUP7 DUP1 EXTCODESIZE ISZERO DUP1 ISZERO PUSH3 0xEEA JUMPI PUSH1 0x0 DUP1 REVERT JUMPDEST POP GAS STATICCALL ISZERO DUP1 ISZERO PUSH3 0xEFF JUMPI RETURNDATASIZE PUSH1 0x0 DUP1 RETURNDATACOPY RETURNDATASIZE PUSH1 0x0 REVERT JUMPDEST POP POP POP POP PUSH1 0x40 MLOAD RETURNDATASIZE PUSH1 0x1F NOT PUSH1 0x1F DUP3 ADD AND DUP3 ADD DUP1 PUSH1 0x40 MSTORE POP DUP2 ADD SWAP1 PUSH3 0xF25 SWAP2 SWAP1 PUSH3 0x2663 JUMP JUMPDEST PUSH1 0x1 PUSH1 0x1 PUSH1 0xA0 SHL SUB AND CALLER PUSH1 0x1 PUSH1 0x1 PUSH1 0xA0 SHL SUB AND EQ PUSH3 0xF58 JUMPI PUSH1 0x40 MLOAD PUSH3 0x461BCD PUSH1 0xE5 SHL DUP2 MSTORE PUSH1 0x4 ADD PUSH3 0x3CB SWAP1 PUSH3 0x28F5 JUMP JUMPDEST DUP4 MLOAD PUSH3 0xF6D SWAP1 PUSH1 0x1 SWAP1 PUSH1 0x20 DUP8 ADD SWAP1 PUSH3 0x2539 JUMP JUMPDEST POP DUP3 MLOAD PUSH3 0xF83 SWAP1 PUSH1 0x5 SWAP1 PUSH1 0x20 DUP7 ADD SWAP1 PUSH3 0x2539 JUMP JUMPDEST POP DUP2 MLOAD PUSH3 0xF99 SWAP1 PUSH1 0x7 SWAP1 PUSH1 0x20 DUP6 ADD SWAP1 PUSH3 0x2539 JUMP JUMPDEST POP PUSH1 0x1 SWAP1 POP JUMPDEST SWAP4 SWAP3 POP POP POP JUMP JUMPDEST PUSH1 0x5 DUP1 SLOAD PUSH3 0x632 SWAP1 PUSH3 0x2A42 JUMP JUMPDEST PUSH1 0x9 DUP2 DUP2 SLOAD DUP2 LT PUSH3 0xFC6 JUMPI PUSH1 0x0 DUP1 REVERT JUMPDEST PUSH1 0x0 SWAP2 DUP3 MSTORE PUSH1 0x20 SWAP1 SWAP2 KECCAK256 PUSH1 0x3 SWAP1 SWAP2 MUL ADD DUP1 SLOAD PUSH1 0x1 DUP3 ADD SLOAD PUSH1 0x2 SWAP1 SWAP3 ADD SLOAD PUSH1 0x1 PUSH1 0x1 PUSH1 0xA0 SHL SUB SWAP1 SWAP2 AND SWAP3 POP PUSH1 0xFF AND DUP4 JUMP JUMPDEST PUSH1 0xF SLOAD PUSH1 0x40 DUP1 MLOAD PUSH4 0x5C352C3 PUSH1 0xE3 SHL DUP2 MSTORE SWAP1 MLOAD PUSH1 0x0 SWAP3 PUSH1 0x1 PUSH1 0x1 PUSH1 0xA0 SHL SUB AND SWAP2 PUSH4 0x2E1A9618 SWAP2 PUSH1 0x4 DUP1 DUP4 ADD SWAP3 PUSH1 0x20 SWAP3 SWAP2 SWAP1 DUP3 SWAP1 SUB ADD DUP2 DUP7 DUP1 EXTCODESIZE ISZERO DUP1 ISZERO PUSH3 0x103C JUMPI PUSH1 0x0 DUP1 REVERT JUMPDEST POP GAS STATICCALL ISZERO DUP1 ISZERO PUSH3 0x1051 JUMPI RETURNDATASIZE PUSH1 0x0 DUP1 RETURNDATACOPY RETURNDATASIZE PUSH1 0x0 REVERT JUMPDEST POP POP POP POP PUSH1 0x40 MLOAD RETURNDATASIZE PUSH1 0x1F NOT PUSH1 0x1F DUP3 ADD AND DUP3 ADD DUP1 PUSH1 0x40 MSTORE POP DUP2 ADD SWAP1 PUSH3 0x1077 SWAP2 SWAP1 PUSH3 0x2663 JUMP JUMPDEST PUSH1 0x1 PUSH1 0x1 PUSH1 0xA0 SHL SUB AND CALLER PUSH1 0x1 PUSH1 0x1 PUSH1 0xA0 SHL SUB AND EQ PUSH3 0x10AA JUMPI PUSH1 0x40 MLOAD PUSH3 0x461BCD PUSH1 0xE5 SHL DUP2 MSTORE PUSH1 0x4 ADD PUSH3 0x3CB SWAP1 PUSH3 0x28F5 JUMP JUMPDEST PUSH1 0x40 MLOAD PUSH5 0x7369646541 PUSH1 0xD8 SHL PUSH1 0x20 DUP3 ADD MSTORE PUSH1 0x25 ADD PUSH1 0x40 MLOAD PUSH1 0x20 DUP2 DUP4 SUB SUB DUP2 MSTORE SWAP1 PUSH1 0x40 MSTORE DUP1 MLOAD SWAP1 PUSH1 0x20 ADD KECCAK256 DUP3 PUSH1 0x40 MLOAD PUSH1 0x20 ADD PUSH3 0x10E7 SWAP2 SWAP1 PUSH3 0x28A2 JUMP JUMPDEST PUSH1 0x40 MLOAD PUSH1 0x20 DUP2 DUP4 SUB SUB DUP2 MSTORE SWAP1 PUSH1 0x40 MSTORE DUP1 MLOAD SWAP1 PUSH1 0x20 ADD KECCAK256 EQ ISZERO PUSH3 0x1125 JUMPI PUSH3 0x1112 DUP7 DUP7 DUP7 DUP7 PUSH3 0x135D JUMP JUMPDEST PUSH3 0x111F DUP6 DUP6 DUP6 PUSH3 0x1475 JUMP JUMPDEST PUSH3 0x119A JUMP JUMPDEST PUSH1 0x40 MLOAD PUSH5 0x39B4B232A1 PUSH1 0xD9 SHL PUSH1 0x20 DUP3 ADD MSTORE PUSH1 0x25 ADD PUSH1 0x40 MLOAD PUSH1 0x20 DUP2 DUP4 SUB SUB DUP2 MSTORE SWAP1 PUSH1 0x40 MSTORE DUP1 MLOAD SWAP1 PUSH1 0x20 ADD KECCAK256 DUP3 PUSH1 0x40 MLOAD PUSH1 0x20 ADD PUSH3 0x1162 SWAP2 SWAP1 PUSH3 0x28A2 JUMP JUMPDEST PUSH1 0x40 MLOAD PUSH1 0x20 DUP2 DUP4 SUB SUB DUP2 MSTORE SWAP1 PUSH1 0x40 MSTORE DUP1 MLOAD SWAP1 PUSH1 0x20 ADD KECCAK256 EQ ISZERO PUSH3 0x119A JUMPI PUSH3 0x118D DUP7 DUP7 DUP7 DUP7 PUSH3 0x1B1F JUMP JUMPDEST PUSH3 0x119A DUP6 DUP6 DUP6 PUSH3 0x1C2B JUMP JUMPDEST POP PUSH1 0x1 SWAP6 SWAP5 POP POP POP POP POP JUMP JUMPDEST PUSH1 0x7 DUP1 SLOAD PUSH3 0x632 SWAP1 PUSH3 0x2A42 JUMP JUMPDEST PUSH1 0xF SLOAD PUSH1 0x40 DUP1 MLOAD PUSH4 0x6AE7095 PUSH1 0xE0 SHL DUP2 MSTORE SWAP1 MLOAD PUSH1 0x0 SWAP3 PUSH1 0x1 PUSH1 0x1 PUSH1 0xA0 SHL SUB AND SWAP2 PUSH4 0x6AE7095 SWAP2 PUSH1 0x4 DUP1 DUP4 ADD SWAP3 PUSH1 0x20 SWAP3 SWAP2 SWAP1 DUP3 SWAP1 SUB ADD DUP2 DUP7 DUP1 EXTCODESIZE ISZERO DUP1 ISZERO PUSH3 0x11FB JUMPI PUSH1 0x0 DUP1 REVERT JUMPDEST POP GAS STATICCALL ISZERO DUP1 ISZERO PUSH3 0x1210 JUMPI RETURNDATASIZE PUSH1 0x0 DUP1 RETURNDATACOPY RETURNDATASIZE PUSH1 0x0 REVERT JUMPDEST POP POP POP POP PUSH1 0x40 MLOAD RETURNDATASIZE PUSH1 0x1F NOT PUSH1 0x1F DUP3 ADD AND DUP3 ADD DUP1 PUSH1 0x40 MSTORE POP DUP2 ADD SWAP1 PUSH3 0x1236 SWAP2 SWAP1 PUSH3 0x2663 JUMP JUMPDEST PUSH1 0x1 PUSH1 0x1 PUSH1 0xA0 SHL SUB AND CALLER PUSH1 0x1 PUSH1 0x1 PUSH1 0xA0 SHL SUB AND EQ PUSH3 0x1269 JUMPI PUSH1 0x40 MLOAD PUSH3 0x461BCD PUSH1 0xE5 SHL DUP2 MSTORE PUSH1 0x4 ADD PUSH3 0x3CB SWAP1 PUSH3 0x28F5 JUMP JUMPDEST PUSH1 0x2 SLOAD PUSH1 0x1 PUSH1 0xA0 SHL SWAP1 DIV PUSH1 0xFF AND ISZERO ISZERO PUSH1 0x1 EQ ISZERO PUSH3 0x12B3 JUMPI PUSH1 0x40 MLOAD PUSH3 0x461BCD PUSH1 0xE5 SHL DUP2 MSTORE PUSH1 0x20 PUSH1 0x4 DUP3 ADD MSTORE PUSH1 0x6 PUSH1 0x24 DUP3 ADD MSTORE PUSH6 0x10BC103BB4B7 PUSH1 0xD1 SHL PUSH1 0x44 DUP3 ADD MSTORE PUSH1 0x64 ADD PUSH3 0x3CB JUMP JUMPDEST DUP2 MLOAD PUSH3 0x12C8 SWAP1 PUSH1 0x3 SWAP1 PUSH1 0x20 DUP6 ADD SWAP1 PUSH3 0x2539 JUMP JUMPDEST POP POP PUSH1 0x2 DUP1 SLOAD PUSH1 0xFF PUSH1 0xA0 SHL NOT AND PUSH1 0x1 PUSH1 0xA0 SHL OR SWAP1 SSTORE PUSH1 0x1 SWAP2 SWAP1 POP JUMP JUMPDEST PUSH1 0xB DUP2 DUP2 SLOAD DUP2 LT PUSH3 0xFC6 JUMPI PUSH1 0x0 DUP1 REVERT JUMPDEST PUSH1 0x3 DUP1 SLOAD PUSH3 0x632 SWAP1 PUSH3 0x2A42 JUMP JUMPDEST PUSH1 0x40 DUP1 MLOAD PUSH1 0x1 PUSH1 0x1 PUSH1 0xA0 SHL SUB DUP5 AND PUSH1 0x24 DUP3 ADD MSTORE PUSH1 0x44 DUP1 DUP3 ADD DUP5 SWAP1 MSTORE DUP3 MLOAD DUP1 DUP4 SUB SWAP1 SWAP2 ADD DUP2 MSTORE PUSH1 0x64 SWAP1 SWAP2 ADD SWAP1 SWAP2 MSTORE PUSH1 0x20 DUP2 ADD DUP1 MLOAD PUSH1 0x1 PUSH1 0x1 PUSH1 0xE0 SHL SUB AND PUSH4 0xA9059CBB PUSH1 0xE0 SHL OR SWAP1 MSTORE PUSH3 0x1358 SWAP1 DUP5 SWAP1 PUSH3 0x22CE JUMP JUMPDEST POP POP POP JUMP JUMPDEST DUP2 PUSH1 0x6 PUSH1 0x0 DUP3 DUP3 SLOAD PUSH3 0x1371 SWAP2 SWAP1 PUSH3 0x2975 JUMP JUMPDEST SWAP1 SWAP2 SSTORE POP POP PUSH1 0x40 DUP1 MLOAD PUSH1 0x60 DUP2 ADD DUP3 MSTORE PUSH1 0x1 PUSH1 0x1 PUSH1 0xA0 SHL SUB DUP6 DUP2 AND DUP3 MSTORE PUSH1 0x20 DUP1 DUP4 ADD DUP7 DUP2 MSTORE PUSH1 0xFF DUP7 DUP2 AND DUP6 DUP8 ADD SWAP1 DUP2 MSTORE PUSH1 0x9 DUP1 SLOAD PUSH1 0x1 DUP2 ADD DUP3 SSTORE PUSH1 0x0 SWAP2 DUP3 MSTORE SWAP7 MLOAD PUSH32 0x6E1540171B6C0C960B71A7020D9F60077F6AF931A8BBF590DA0223DACF75C7AF PUSH1 0x3 SWAP1 SWAP9 MUL SWAP8 DUP9 ADD DUP1 SLOAD PUSH1 0x1 PUSH1 0x1 PUSH1 0xA0 SHL SUB NOT AND SWAP2 DUP9 AND SWAP2 SWAP1 SWAP2 OR SWAP1 SSTORE SWAP3 MLOAD PUSH32 0x6E1540171B6C0C960B71A7020D9F60077F6AF931A8BBF590DA0223DACF75C7B0 DUP8 ADD SSTORE MLOAD PUSH32 0x6E1540171B6C0C960B71A7020D9F60077F6AF931A8BBF590DA0223DACF75C7B1 SWAP1 SWAP6 ADD DUP1 SLOAD PUSH1 0xFF NOT AND SWAP6 SWAP1 SWAP2 AND SWAP5 SWAP1 SWAP5 OR SWAP1 SWAP4 SSTORE SWAP1 DUP8 AND DUP3 MSTORE PUSH1 0xD SWAP1 MSTORE SWAP1 DUP2 KECCAK256 DUP1 SLOAD DUP5 SWAP3 SWAP1 PUSH3 0x1469 SWAP1 DUP5 SWAP1 PUSH3 0x2975 JUMP JUMPDEST SWAP1 SWAP2 SSTORE POP POP JUMPDEST POP POP POP POP JUMP JUMPDEST PUSH1 0xC SLOAD DUP1 ISZERO PUSH3 0x1A48 JUMPI DUP3 JUMPDEST PUSH8 0xDE0B6B3A7640000 DUP2 LT PUSH3 0x1A41 JUMPI PUSH1 0x0 DUP1 PUSH1 0x0 JUMPDEST DUP5 DUP2 LT ISZERO PUSH3 0x1538 JUMPI PUSH1 0x0 PUSH1 0xC DUP3 DUP2 SLOAD DUP2 LT PUSH3 0x14C4 JUMPI PUSH4 0x4E487B71 PUSH1 0xE0 SHL PUSH1 0x0 MSTORE PUSH1 0x32 PUSH1 0x4 MSTORE PUSH1 0x24 PUSH1 0x0 REVERT JUMPDEST PUSH1 0x0 SWAP2 DUP3 MSTORE PUSH1 0x20 SWAP2 DUP3 SWAP1 KECCAK256 PUSH1 0x40 DUP1 MLOAD PUSH1 0x60 DUP2 ADD DUP3 MSTORE PUSH1 0x3 SWAP1 SWAP4 MUL SWAP1 SWAP2 ADD DUP1 SLOAD PUSH1 0x1 PUSH1 0x1 PUSH1 0xA0 SHL SUB AND DUP4 MSTORE PUSH1 0x1 DUP2 ADD SLOAD SWAP4 DUP4 ADD SWAP4 SWAP1 SWAP4 MSTORE PUSH1 0x2 SWAP1 SWAP3 ADD SLOAD PUSH1 0xFF SWAP1 DUP2 AND SWAP3 DUP3 ADD DUP4 SWAP1 MSTORE SWAP1 SWAP3 POP DUP5 AND LT ISZERO PUSH3 0x1522 JUMPI DUP1 PUSH1 0x40 ADD MLOAD SWAP3 POP DUP2 SWAP4 POP JUMPDEST POP DUP1 PUSH3 0x152F DUP2 PUSH3 0x2A7F JUMP JUMPDEST SWAP2 POP POP PUSH3 0x1497 JUMP JUMPDEST POP DUP5 PUSH1 0xFF AND DUP2 PUSH1 0xFF AND GT ISZERO PUSH3 0x1961 JUMPI PUSH1 0x0 PUSH1 0xC DUP4 DUP2 SLOAD DUP2 LT PUSH3 0x156C JUMPI PUSH4 0x4E487B71 PUSH1 0xE0 SHL PUSH1 0x0 MSTORE PUSH1 0x32 PUSH1 0x4 MSTORE PUSH1 0x24 PUSH1 0x0 REVERT JUMPDEST PUSH1 0x0 SWAP2 DUP3 MSTORE PUSH1 0x20 DUP1 DUP4 KECCAK256 PUSH1 0x40 DUP1 MLOAD PUSH1 0x60 DUP2 ADD DUP3 MSTORE PUSH1 0x3 SWAP1 SWAP5 MUL SWAP1 SWAP2 ADD DUP1 SLOAD PUSH1 0x1 PUSH1 0x1 PUSH1 0xA0 SHL SUB AND DUP1 DUP6 MSTORE PUSH1 0x1 DUP3 ADD SLOAD DUP6 DUP6 ADD MSTORE PUSH1 0x2 SWAP1 SWAP2 ADD SLOAD PUSH1 0xFF AND DUP5 DUP4 ADD MSTORE DUP2 MLOAD PUSH4 0x45564E65 PUSH1 0xE1 SHL DUP2 MSTORE SWAP2 MLOAD SWAP4 SWAP6 POP SWAP4 SWAP3 DUP5 SWAP3 PUSH4 0x8AAC9CCA SWAP3 PUSH1 0x4 DUP1 DUP3 ADD SWAP4 SWAP2 DUP3 SWAP1 SUB ADD DUP2 DUP7 DUP1 EXTCODESIZE ISZERO DUP1 ISZERO PUSH3 0x15E3 JUMPI PUSH1 0x0 DUP1 REVERT JUMPDEST POP GAS STATICCALL ISZERO DUP1 ISZERO PUSH3 0x15F8 JUMPI RETURNDATASIZE PUSH1 0x0 DUP1 RETURNDATACOPY RETURNDATASIZE PUSH1 0x0 REVERT JUMPDEST POP POP POP POP PUSH1 0x40 MLOAD RETURNDATASIZE PUSH1 0x1F NOT PUSH1 0x1F DUP3 ADD AND DUP3 ADD DUP1 PUSH1 0x40 MSTORE POP DUP2 ADD SWAP1 PUSH3 0x161E SWAP2 SWAP1 PUSH3 0x2889 JUMP JUMPDEST SWAP1 POP PUSH1 0x0 PUSH1 0x64 PUSH3 0x1630 DUP2 DUP12 PUSH3 0x29ED JUMP JUMPDEST PUSH1 0xFF AND DUP4 DUP7 PUSH1 0x20 ADD MLOAD PUSH3 0x1645 SWAP2 SWAP1 PUSH3 0x29D3 JUMP JUMPDEST PUSH3 0x1651 SWAP2 SWAP1 PUSH3 0x29B1 JUMP JUMPDEST PUSH3 0x165D SWAP2 SWAP1 PUSH3 0x2990 JUMP JUMPDEST SWAP1 POP PUSH1 0x0 DUP11 DUP3 GT ISZERO PUSH3 0x1672 JUMPI POP DUP10 PUSH3 0x1675 JUMP JUMPDEST POP DUP1 JUMPDEST PUSH1 0x0 PUSH3 0x1686 PUSH1 0xFF DUP13 AND DUP4 PUSH3 0x29B1 JUMP JUMPDEST SWAP1 POP PUSH1 0x0 ADDRESS DUP15 DUP9 PUSH1 0x0 ADD MLOAD DUP6 DUP6 PUSH1 0x40 MLOAD PUSH3 0x16A1 SWAP1 PUSH3 0x25C8 JUMP JUMPDEST PUSH1 0x1 PUSH1 0x1 PUSH1 0xA0 SHL SUB SWAP6 DUP7 AND DUP2 MSTORE SWAP4 DUP6 AND PUSH1 0x20 DUP6 ADD MSTORE SWAP4 SWAP1 SWAP2 AND PUSH1 0x40 DUP4 ADD MSTORE PUSH1 0x60 DUP3 ADD MSTORE PUSH1 0x80 DUP2 ADD SWAP2 SWAP1 SWAP2 MSTORE PUSH1 0xA0 ADD PUSH1 0x40 MLOAD DUP1 SWAP2 SUB SWAP1 PUSH1 0x0 CREATE DUP1 ISZERO DUP1 ISZERO PUSH3 0x16EC JUMPI RETURNDATASIZE PUSH1 0x0 DUP1 RETURNDATACOPY RETURNDATASIZE PUSH1 0x0 REVERT JUMPDEST POP SWAP1 POP PUSH1 0xC DUP10 DUP2 SLOAD DUP2 LT PUSH3 0x1711 JUMPI PUSH4 0x4E487B71 PUSH1 0xE0 SHL PUSH1 0x0 MSTORE PUSH1 0x32 PUSH1 0x4 MSTORE PUSH1 0x24 PUSH1 0x0 REVERT JUMPDEST PUSH1 0x0 SWAP2 DUP3 MSTORE PUSH1 0x20 DUP3 KECCAK256 PUSH1 0x3 SWAP2 SWAP1 SWAP2 MUL ADD DUP1 SLOAD PUSH1 0x1 PUSH1 0x1 PUSH1 0xA0 SHL SUB NOT AND DUP2 SSTORE PUSH1 0x1 DUP2 ADD SWAP2 SWAP1 SWAP2 SSTORE PUSH1 0x2 ADD DUP1 SLOAD PUSH1 0xFF NOT AND SWAP1 SSTORE PUSH1 0x40 MLOAD PUSH4 0x2D267E03 PUSH1 0xE1 SHL DUP2 MSTORE PUSH1 0x4 DUP2 ADD DUP5 SWAP1 MSTORE DUP15 SWAP1 PUSH1 0x1 PUSH1 0x1 PUSH1 0xA0 SHL SUB DUP3 AND SWAP1 PUSH4 0x5A4CFC06 SWAP1 PUSH1 0x24 ADD PUSH1 0x20 PUSH1 0x40 MLOAD DUP1 DUP4 SUB DUP2 PUSH1 0x0 DUP8 DUP1 EXTCODESIZE ISZERO DUP1 ISZERO PUSH3 0x1787 JUMPI PUSH1 0x0 DUP1 REVERT JUMPDEST POP GAS CALL ISZERO DUP1 ISZERO PUSH3 0x179C JUMPI RETURNDATASIZE PUSH1 0x0 DUP1 RETURNDATACOPY RETURNDATASIZE PUSH1 0x0 REVERT JUMPDEST POP POP POP POP PUSH1 0x40 MLOAD RETURNDATASIZE PUSH1 0x1F NOT PUSH1 0x1F DUP3 ADD AND DUP3 ADD DUP1 PUSH1 0x40 MSTORE POP DUP2 ADD SWAP1 PUSH3 0x17C2 SWAP2 SWAP1 PUSH3 0x270D JUMP JUMPDEST POP PUSH1 0x40 MLOAD PUSH4 0x615BDDDB PUSH1 0xE1 SHL DUP2 MSTORE PUSH1 0x1 PUSH1 0x1 PUSH1 0xA0 SHL SUB DUP4 DUP2 AND PUSH1 0x4 DUP4 ADD MSTORE DUP3 AND SWAP1 PUSH4 0xC2B7BBB6 SWAP1 PUSH1 0x24 ADD PUSH1 0x20 PUSH1 0x40 MLOAD DUP1 DUP4 SUB DUP2 PUSH1 0x0 DUP8 DUP1 EXTCODESIZE ISZERO DUP1 ISZERO PUSH3 0x1807 JUMPI PUSH1 0x0 DUP1 REVERT JUMPDEST POP GAS CALL ISZERO DUP1 ISZERO PUSH3 0x181C JUMPI RETURNDATASIZE PUSH1 0x0 DUP1 RETURNDATACOPY RETURNDATASIZE PUSH1 0x0 REVERT JUMPDEST POP POP POP POP PUSH1 0x40 MLOAD RETURNDATASIZE PUSH1 0x1F NOT PUSH1 0x1F DUP3 ADD AND DUP3 ADD DUP1 PUSH1 0x40 MSTORE POP DUP2 ADD SWAP1 PUSH3 0x1842 SWAP2 SWAP1 PUSH3 0x270D JUMP JUMPDEST POP DUP8 MLOAD PUSH1 0x40 MLOAD PUSH4 0x2D267E03 PUSH1 0xE1 SHL DUP2 MSTORE PUSH1 0x4 DUP2 ADD DUP6 SWAP1 MSTORE PUSH1 0x1 PUSH1 0x1 PUSH1 0xA0 SHL SUB DUP3 AND SWAP1 PUSH4 0x5A4CFC06 SWAP1 PUSH1 0x24 ADD PUSH1 0x20 PUSH1 0x40 MLOAD DUP1 DUP4 SUB DUP2 PUSH1 0x0 DUP8 DUP1 EXTCODESIZE ISZERO DUP1 ISZERO PUSH3 0x1888 JUMPI PUSH1 0x0 DUP1 REVERT JUMPDEST POP GAS CALL ISZERO DUP1 ISZERO PUSH3 0x189D JUMPI RETURNDATASIZE PUSH1 0x0 DUP1 RETURNDATACOPY RETURNDATASIZE PUSH1 0x0 REVERT JUMPDEST POP POP POP POP PUSH1 0x40 MLOAD RETURNDATASIZE PUSH1 0x1F NOT PUSH1 0x1F DUP3 ADD AND DUP3 ADD DUP1 PUSH1 0x40 MSTORE POP DUP2 ADD SWAP1 PUSH3 0x18C3 SWAP2 SWAP1 PUSH3 0x270D JUMP JUMPDEST POP PUSH1 0x40 MLOAD PUSH4 0x615BDDDB PUSH1 0xE1 SHL DUP2 MSTORE PUSH1 0x1 PUSH1 0x1 PUSH1 0xA0 SHL SUB DUP5 DUP2 AND PUSH1 0x4 DUP4 ADD MSTORE DUP3 AND SWAP1 PUSH4 0xC2B7BBB6 SWAP1 PUSH1 0x24 ADD PUSH1 0x20 PUSH1 0x40 MLOAD DUP1 DUP4 SUB DUP2 PUSH1 0x0 DUP8 DUP1 EXTCODESIZE ISZERO DUP1 ISZERO PUSH3 0x1908 JUMPI PUSH1 0x0 DUP1 REVERT JUMPDEST POP GAS CALL ISZERO DUP1 ISZERO PUSH3 0x191D JUMPI RETURNDATASIZE PUSH1 0x0 DUP1 RETURNDATACOPY RETURNDATASIZE PUSH1 0x0 REVERT JUMPDEST POP POP POP POP PUSH1 0x40 MLOAD RETURNDATASIZE PUSH1 0x1F NOT PUSH1 0x1F DUP3 ADD AND DUP3 ADD DUP1 PUSH1 0x40 MSTORE POP DUP2 ADD SWAP1 PUSH3 0x1943 SWAP2 SWAP1 PUSH3 0x270D JUMP JUMPDEST POP PUSH3 0x1950 DUP6 DUP14 PUSH3 0x29D3 JUMP JUMPDEST SWAP12 POP POP POP POP POP POP POP POP POP POP PUSH3 0x1A39 JUMP JUMPDEST POP POP PUSH1 0x40 DUP1 MLOAD PUSH1 0x60 DUP2 ADD DUP3 MSTORE PUSH1 0x1 PUSH1 0x1 PUSH1 0xA0 SHL SUB DUP8 DUP2 AND DUP3 MSTORE PUSH1 0x20 DUP3 ADD DUP8 DUP2 MSTORE PUSH1 0xFF DUP8 DUP2 AND SWAP5 DUP5 ADD SWAP5 DUP6 MSTORE PUSH1 0xA DUP1 SLOAD PUSH1 0x1 DUP2 ADD DUP3 SSTORE PUSH1 0x0 SWAP2 SWAP1 SWAP2 MSTORE SWAP4 MLOAD PUSH32 0xC65A7BB8D6351C1CF70C95A316CC6A92839C986682D98BC35F958F4883F9D2A8 PUSH1 0x3 SWAP1 SWAP6 MUL SWAP5 DUP6 ADD DUP1 SLOAD PUSH1 0x1 PUSH1 0x1 PUSH1 0xA0 SHL SUB NOT AND SWAP2 SWAP1 SWAP5 AND OR SWAP1 SWAP3 SSTORE MLOAD PUSH32 0xC65A7BB8D6351C1CF70C95A316CC6A92839C986682D98BC35F958F4883F9D2A9 DUP4 ADD SSTORE SWAP2 MLOAD PUSH32 0xC65A7BB8D6351C1CF70C95A316CC6A92839C986682D98BC35F958F4883F9D2AA SWAP1 SWAP2 ADD DUP1 SLOAD PUSH1 0xFF NOT AND SWAP2 SWAP1 SWAP3 AND OR SWAP1 SSTORE PUSH3 0x1A41 JUMP JUMPDEST POP POP PUSH3 0x1481 JUMP JUMPDEST POP PUSH3 0x146F JUMP JUMPDEST POP PUSH1 0x40 DUP1 MLOAD PUSH1 0x60 DUP2 ADD DUP3 MSTORE PUSH1 0x1 PUSH1 0x1 PUSH1 0xA0 SHL SUB SWAP5 DUP6 AND DUP2 MSTORE PUSH1 0x20 DUP2 ADD SWAP4 DUP5 MSTORE PUSH1 0xFF SWAP3 DUP4 AND SWAP2 DUP2 ADD SWAP2 DUP3 MSTORE PUSH1 0xA DUP1 SLOAD PUSH1 0x1 DUP2 ADD DUP3 SSTORE PUSH1 0x0 SWAP2 SWAP1 SWAP2 MSTORE SWAP1 MLOAD PUSH32 0xC65A7BB8D6351C1CF70C95A316CC6A92839C986682D98BC35F958F4883F9D2A8 PUSH1 0x3 SWAP1 SWAP3 MUL SWAP2 DUP3 ADD DUP1 SLOAD PUSH1 0x1 PUSH1 0x1 PUSH1 0xA0 SHL SUB NOT AND SWAP2 SWAP1 SWAP7 AND OR SWAP1 SWAP5 SSTORE SWAP2 MLOAD PUSH32 0xC65A7BB8D6351C1CF70C95A316CC6A92839C986682D98BC35F958F4883F9D2A9 DUP5 ADD SSTORE SWAP1 MLOAD PUSH32 0xC65A7BB8D6351C1CF70C95A316CC6A92839C986682D98BC35F958F4883F9D2AA SWAP1 SWAP3 ADD DUP1 SLOAD PUSH1 0xFF NOT AND SWAP3 SWAP1 SWAP2 AND SWAP2 SWAP1 SWAP2 OR SWAP1 SSTORE JUMP JUMPDEST DUP2 PUSH1 0x8 PUSH1 0x0 DUP3 DUP3 SLOAD PUSH3 0x1B33 SWAP2 SWAP1 PUSH3 0x2975 JUMP JUMPDEST SWAP1 SWAP2 SSTORE POP POP PUSH1 0x40 DUP1 MLOAD PUSH1 0x60 DUP2 ADD DUP3 MSTORE PUSH1 0x1 PUSH1 0x1 PUSH1 0xA0 SHL SUB DUP6 DUP2 AND DUP3 MSTORE PUSH1 0x20 DUP1 DUP4 ADD DUP7 DUP2 MSTORE PUSH1 0xFF DUP7 DUP2 AND DUP6 DUP8 ADD SWAP1 DUP2 MSTORE PUSH1 0xB DUP1 SLOAD PUSH1 0x1 DUP2 ADD DUP3 SSTORE PUSH1 0x0 SWAP2 DUP3 MSTORE SWAP7 MLOAD PUSH32 0x175B7A638427703F0DBE7BB9BBF987A2551717B34E79F33B5B1008D1FA01DB9 PUSH1 0x3 SWAP1 SWAP9 MUL SWAP8 DUP9 ADD DUP1 SLOAD PUSH1 0x1 PUSH1 0x1 PUSH1 0xA0 SHL SUB NOT AND SWAP2 DUP9 AND SWAP2 SWAP1 SWAP2 OR SWAP1 SSTORE SWAP3 MLOAD PUSH32 0x175B7A638427703F0DBE7BB9BBF987A2551717B34E79F33B5B1008D1FA01DBA DUP8 ADD SSTORE MLOAD PUSH32 0x175B7A638427703F0DBE7BB9BBF987A2551717B34E79F33B5B1008D1FA01DBB SWAP1 SWAP6 ADD DUP1 SLOAD PUSH1 0xFF NOT AND SWAP6 SWAP1 SWAP2 AND SWAP5 SWAP1 SWAP5 OR SWAP1 SWAP4 SSTORE SWAP1 DUP8 AND DUP3 MSTORE PUSH1 0xE SWAP1 MSTORE SWAP1 DUP2 KECCAK256 DUP1 SLOAD DUP5 SWAP3 SWAP1 PUSH3 0x1469 SWAP1 DUP5 SWAP1 PUSH3 0x2975 JUMP JUMPDEST PUSH1 0xA SLOAD DUP1 ISZERO PUSH3 0x21F7 JUMPI DUP3 JUMPDEST PUSH8 0xDE0B6B3A7640000 DUP2 LT PUSH3 0x1A41 JUMPI PUSH1 0x0 DUP1 PUSH1 0x0 JUMPDEST DUP5 DUP2 LT ISZERO PUSH3 0x1CEE JUMPI PUSH1 0x0 PUSH1 0xA DUP3 DUP2 SLOAD DUP2 LT PUSH3 0x1C7A JUMPI PUSH4 0x4E487B71 PUSH1 0xE0 SHL PUSH1 0x0 MSTORE PUSH1 0x32 PUSH1 0x4 MSTORE PUSH1 0x24 PUSH1 0x0 REVERT JUMPDEST PUSH1 0x0 SWAP2 DUP3 MSTORE PUSH1 0x20 SWAP2 DUP3 SWAP1 KECCAK256 PUSH1 0x40 DUP1 MLOAD PUSH1 0x60 DUP2 ADD DUP3 MSTORE PUSH1 0x3 SWAP1 SWAP4 MUL SWAP1 SWAP2 ADD DUP1 SLOAD PUSH1 0x1 PUSH1 0x1 PUSH1 0xA0 SHL SUB AND DUP4 MSTORE PUSH1 0x1 DUP2 ADD SLOAD SWAP4 DUP4 ADD SWAP4 SWAP1 SWAP4 MSTORE PUSH1 0x2 SWAP1 SWAP3 ADD SLOAD PUSH1 0xFF SWAP1 DUP2 AND SWAP3 DUP3 ADD DUP4 SWAP1 MSTORE SWAP1 SWAP3 POP DUP5 AND LT ISZERO PUSH3 0x1CD8 JUMPI DUP1 PUSH1 0x40 ADD MLOAD SWAP3 POP DUP2 SWAP4 POP JUMPDEST POP DUP1 PUSH3 0x1CE5 DUP2 PUSH3 0x2A7F JUMP JUMPDEST SWAP2 POP POP PUSH3 0x1C4D JUMP JUMPDEST POP DUP5 PUSH1 0xFF AND DUP2 PUSH1 0xFF AND GT ISZERO PUSH3 0x2117 JUMPI PUSH1 0x0 PUSH1 0xA DUP4 DUP2 SLOAD DUP2 LT PUSH3 0x1D22 JUMPI PUSH4 0x4E487B71 PUSH1 0xE0 SHL PUSH1 0x0 MSTORE PUSH1 0x32 PUSH1 0x4 MSTORE PUSH1 0x24 PUSH1 0x0 REVERT JUMPDEST PUSH1 0x0 SWAP2 DUP3 MSTORE PUSH1 0x20 DUP1 DUP4 KECCAK256 PUSH1 0x40 DUP1 MLOAD PUSH1 0x60 DUP2 ADD DUP3 MSTORE PUSH1 0x3 SWAP1 SWAP5 MUL SWAP1 SWAP2 ADD DUP1 SLOAD PUSH1 0x1 PUSH1 0x1 PUSH1 0xA0 SHL SUB AND DUP1 DUP6 MSTORE PUSH1 0x1 DUP3 ADD SLOAD DUP6 DUP6 ADD MSTORE PUSH1 0x2 SWAP1 SWAP2 ADD SLOAD PUSH1 0xFF AND DUP5 DUP4 ADD MSTORE DUP2 MLOAD PUSH4 0x45564E65 PUSH1 0xE1 SHL DUP2 MSTORE SWAP2 MLOAD SWAP4 SWAP6 POP SWAP4 SWAP3 DUP5 SWAP3 PUSH4 0x8AAC9CCA SWAP3 PUSH1 0x4 DUP1 DUP3 ADD SWAP4 SWAP2 DUP3 SWAP1 SUB ADD DUP2 DUP7 DUP1 EXTCODESIZE ISZERO DUP1 ISZERO PUSH3 0x1D99 JUMPI PUSH1 0x0 DUP1 REVERT JUMPDEST POP GAS STATICCALL ISZERO DUP1 ISZERO PUSH3 0x1DAE JUMPI RETURNDATASIZE PUSH1 0x0 DUP1 RETURNDATACOPY RETURNDATASIZE PUSH1 0x0 REVERT JUMPDEST POP POP POP POP PUSH1 0x40 MLOAD RETURNDATASIZE PUSH1 0x1F NOT PUSH1 0x1F DUP3 ADD AND DUP3 ADD DUP1 PUSH1 0x40 MSTORE POP DUP2 ADD SWAP1 PUSH3 0x1DD4 SWAP2 SWAP1 PUSH3 0x2889 JUMP JUMPDEST SWAP1 POP PUSH1 0x0 PUSH1 0x64 PUSH3 0x1DE6 DUP2 DUP12 PUSH3 0x29ED JUMP JUMPDEST PUSH1 0xFF AND DUP4 DUP7 PUSH1 0x20 ADD MLOAD PUSH3 0x1DFB SWAP2 SWAP1 PUSH3 0x29D3 JUMP JUMPDEST PUSH3 0x1E07 SWAP2 SWAP1 PUSH3 0x29B1 JUMP JUMPDEST PUSH3 0x1E13 SWAP2 SWAP1 PUSH3 0x2990 JUMP JUMPDEST SWAP1 POP PUSH1 0x0 DUP11 DUP3 GT ISZERO PUSH3 0x1E28 JUMPI POP DUP10 PUSH3 0x1E2B JUMP JUMPDEST POP DUP1 JUMPDEST PUSH1 0x0 PUSH3 0x1E3C PUSH1 0xFF DUP13 AND DUP4 PUSH3 0x29B1 JUMP JUMPDEST SWAP1 POP PUSH1 0x0 ADDRESS DUP8 PUSH1 0x0 ADD MLOAD DUP16 DUP5 DUP7 PUSH1 0x40 MLOAD PUSH3 0x1E57 SWAP1 PUSH3 0x25C8 JUMP JUMPDEST PUSH1 0x1 PUSH1 0x1 PUSH1 0xA0 SHL SUB SWAP6 DUP7 AND DUP2 MSTORE SWAP4 DUP6 AND PUSH1 0x20 DUP6 ADD MSTORE SWAP4 SWAP1 SWAP2 AND PUSH1 0x40 DUP4 ADD MSTORE PUSH1 0x60 DUP3 ADD MSTORE PUSH1 0x80 DUP2 ADD SWAP2 SWAP1 SWAP2 MSTORE PUSH1 0xA0 ADD PUSH1 0x40 MLOAD DUP1 SWAP2 SUB SWAP1 PUSH1 0x0 CREATE DUP1 ISZERO DUP1 ISZERO PUSH3 0x1EA2 JUMPI RETURNDATASIZE PUSH1 0x0 DUP1 RETURNDATACOPY RETURNDATASIZE PUSH1 0x0 REVERT JUMPDEST POP SWAP1 POP PUSH1 0xA DUP10 DUP2 SLOAD DUP2 LT PUSH3 0x1EC7 JUMPI PUSH4 0x4E487B71 PUSH1 0xE0 SHL PUSH1 0x0 MSTORE PUSH1 0x32 PUSH1 0x4 MSTORE PUSH1 0x24 PUSH1 0x0 REVERT JUMPDEST PUSH1 0x0 SWAP2 DUP3 MSTORE PUSH1 0x20 DUP3 KECCAK256 PUSH1 0x3 SWAP2 SWAP1 SWAP2 MUL ADD DUP1 SLOAD PUSH1 0x1 PUSH1 0x1 PUSH1 0xA0 SHL SUB NOT AND DUP2 SSTORE PUSH1 0x1 DUP2 ADD SWAP2 SWAP1 SWAP2 SSTORE PUSH1 0x2 ADD DUP1 SLOAD PUSH1 0xFF NOT AND SWAP1 SSTORE PUSH1 0x40 MLOAD PUSH4 0x2D267E03 PUSH1 0xE1 SHL DUP2 MSTORE PUSH1 0x4 DUP2 ADD DUP5 SWAP1 MSTORE DUP15 SWAP1 PUSH1 0x1 PUSH1 0x1 PUSH1 0xA0 SHL SUB DUP3 AND SWAP1 PUSH4 0x5A4CFC06 SWAP1 PUSH1 0x24 ADD PUSH1 0x20 PUSH1 0x40 MLOAD DUP1 DUP4 SUB DUP2 PUSH1 0x0 DUP8 DUP1 EXTCODESIZE ISZERO DUP1 ISZERO PUSH3 0x1F3D JUMPI PUSH1 0x0 DUP1 REVERT JUMPDEST POP GAS CALL ISZERO DUP1 ISZERO PUSH3 0x1F52 JUMPI RETURNDATASIZE PUSH1 0x0 DUP1 RETURNDATACOPY RETURNDATASIZE PUSH1 0x0 REVERT JUMPDEST POP POP POP POP PUSH1 0x40 MLOAD RETURNDATASIZE PUSH1 0x1F NOT PUSH1 0x1F DUP3 ADD AND DUP3 ADD DUP1 PUSH1 0x40 MSTORE POP DUP2 ADD SWAP1 PUSH3 0x1F78 SWAP2 SWAP1 PUSH3 0x270D JUMP JUMPDEST POP PUSH1 0x40 MLOAD PUSH4 0x615BDDDB PUSH1 0xE1 SHL DUP2 MSTORE PUSH1 0x1 PUSH1 0x1 PUSH1 0xA0 SHL SUB DUP4 DUP2 AND PUSH1 0x4 DUP4 ADD MSTORE DUP3 AND SWAP1 PUSH4 0xC2B7BBB6 SWAP1 PUSH1 0x24 ADD PUSH1 0x20 PUSH1 0x40 MLOAD DUP1 DUP4 SUB DUP2 PUSH1 0x0 DUP8 DUP1 EXTCODESIZE ISZERO DUP1 ISZERO PUSH3 0x1FBD JUMPI PUSH1 0x0 DUP1 REVERT JUMPDEST POP GAS CALL ISZERO DUP1 ISZERO PUSH3 0x1FD2 JUMPI RETURNDATASIZE PUSH1 0x0 DUP1 RETURNDATACOPY RETURNDATASIZE PUSH1 0x0 REVERT JUMPDEST POP POP POP POP PUSH1 0x40 MLOAD RETURNDATASIZE PUSH1 0x1F NOT PUSH1 0x1F DUP3 ADD AND DUP3 ADD DUP1 PUSH1 0x40 MSTORE POP DUP2 ADD SWAP1 PUSH3 0x1FF8 SWAP2 SWAP1 PUSH3 0x270D JUMP JUMPDEST POP DUP8 MLOAD PUSH1 0x40 MLOAD PUSH4 0x2D267E03 PUSH1 0xE1 SHL DUP2 MSTORE PUSH1 0x4 DUP2 ADD DUP6 SWAP1 MSTORE PUSH1 0x1 PUSH1 0x1 PUSH1 0xA0 SHL SUB DUP3 AND SWAP1 PUSH4 0x5A4CFC06 SWAP1 PUSH1 0x24 ADD PUSH1 0x20 PUSH1 0x40 MLOAD DUP1 DUP4 SUB DUP2 PUSH1 0x0 DUP8 DUP1 EXTCODESIZE ISZERO DUP1 ISZERO PUSH3 0x203E JUMPI PUSH1 0x0 DUP1 REVERT JUMPDEST POP GAS CALL ISZERO DUP1 ISZERO PUSH3 0x2053 JUMPI RETURNDATASIZE PUSH1 0x0 DUP1 RETURNDATACOPY RETURNDATASIZE PUSH1 0x0 REVERT JUMPDEST POP POP POP POP PUSH1 0x40 MLOAD RETURNDATASIZE PUSH1 0x1F NOT PUSH1 0x1F DUP3 ADD AND DUP3 ADD DUP1 PUSH1 0x40 MSTORE POP DUP2 ADD SWAP1 PUSH3 0x2079 SWAP2 SWAP1 PUSH3 0x270D JUMP JUMPDEST POP PUSH1 0x40 MLOAD PUSH4 0x615BDDDB PUSH1 0xE1 SHL DUP2 MSTORE PUSH1 0x1 PUSH1 0x1 PUSH1 0xA0 SHL SUB DUP5 DUP2 AND PUSH1 0x4 DUP4 ADD MSTORE DUP3 AND SWAP1 PUSH4 0xC2B7BBB6 SWAP1 PUSH1 0x24 ADD PUSH1 0x20 PUSH1 0x40 MLOAD DUP1 DUP4 SUB DUP2 PUSH1 0x0 DUP8 DUP1 EXTCODESIZE ISZERO DUP1 ISZERO PUSH3 0x20BE JUMPI PUSH1 0x0 DUP1 REVERT JUMPDEST POP GAS CALL ISZERO DUP1 ISZERO PUSH3 0x20D3 JUMPI RETURNDATASIZE PUSH1 0x0 DUP1 RETURNDATACOPY RETURNDATASIZE PUSH1 0x0 REVERT JUMPDEST POP POP POP POP PUSH1 0x40 MLOAD RETURNDATASIZE PUSH1 0x1F NOT PUSH1 0x1F DUP3 ADD AND DUP3 ADD DUP1 PUSH1 0x40 MSTORE POP DUP2 ADD SWAP1 PUSH3 0x20F9 SWAP2 SWAP1 PUSH3 0x270D JUMP JUMPDEST POP PUSH3 0x2106 DUP5 DUP14 PUSH3 0x29D3 JUMP JUMPDEST SWAP12 POP POP POP POP POP POP POP POP POP POP PUSH3 0x21EF JUMP JUMPDEST POP POP PUSH1 0x40 DUP1 MLOAD PUSH1 0x60 DUP2 ADD DUP3 MSTORE PUSH1 0x1 PUSH1 0x1 PUSH1 0xA0 SHL SUB DUP8 DUP2 AND DUP3 MSTORE PUSH1 0x20 DUP3 ADD DUP8 DUP2 MSTORE PUSH1 0xFF DUP8 DUP2 AND SWAP5 DUP5 ADD SWAP5 DUP6 MSTORE PUSH1 0xC DUP1 SLOAD PUSH1 0x1 DUP2 ADD DUP3 SSTORE PUSH1 0x0 SWAP2 SWAP1 SWAP2 MSTORE SWAP4 MLOAD PUSH32 0xDF6966C971051C3D54EC59162606531493A51404A002842F56009D7E5CF4A8C7 PUSH1 0x3 SWAP1 SWAP6 MUL SWAP5 DUP6 ADD DUP1 SLOAD PUSH1 0x1 PUSH1 0x1 PUSH1 0xA0 SHL SUB NOT AND SWAP2 SWAP1 SWAP5 AND OR SWAP1 SWAP3 SSTORE MLOAD PUSH32 0xDF6966C971051C3D54EC59162606531493A51404A002842F56009D7E5CF4A8C8 DUP4 ADD SSTORE SWAP2 MLOAD PUSH32 0xDF6966C971051C3D54EC59162606531493A51404A002842F56009D7E5CF4A8C9 SWAP1 SWAP2 ADD DUP1 SLOAD PUSH1 0xFF NOT AND SWAP2 SWAP1 SWAP3 AND OR SWAP1 SSTORE PUSH3 0x1A41 JUMP JUMPDEST POP POP PUSH3 0x1C37 JUMP JUMPDEST POP PUSH1 0x40 DUP1 MLOAD PUSH1 0x60 DUP2 ADD DUP3 MSTORE PUSH1 0x1 PUSH1 0x1 PUSH1 0xA0 SHL SUB SWAP5 DUP6 AND DUP2 MSTORE PUSH1 0x20 DUP2 ADD SWAP4 DUP5 MSTORE PUSH1 0xFF SWAP3 DUP4 AND SWAP2 DUP2 ADD SWAP2 DUP3 MSTORE PUSH1 0xC DUP1 SLOAD PUSH1 0x1 DUP2 ADD DUP3 SSTORE PUSH1 0x0 SWAP2 SWAP1 SWAP2 MSTORE SWAP1 MLOAD PUSH32 0xDF6966C971051C3D54EC59162606531493A51404A002842F56009D7E5CF4A8C7 PUSH1 0x3 SWAP1 SWAP3 MUL SWAP2 DUP3 ADD DUP1 SLOAD PUSH1 0x1 PUSH1 0x1 PUSH1 0xA0 SHL SUB NOT AND SWAP2 SWAP1 SWAP7 AND OR SWAP1 SWAP5 SSTORE SWAP2 MLOAD PUSH32 0xDF6966C971051C3D54EC59162606531493A51404A002842F56009D7E5CF4A8C8 DUP5 ADD SSTORE SWAP1 MLOAD PUSH32 0xDF6966C971051C3D54EC59162606531493A51404A002842F56009D7E5CF4A8C9 SWAP1 SWAP3 ADD DUP1 SLOAD PUSH1 0xFF NOT AND SWAP3 SWAP1 SWAP2 AND SWAP2 SWAP1 SWAP2 OR SWAP1 SSTORE JUMP JUMPDEST PUSH1 0x0 PUSH3 0x2325 DUP3 PUSH1 0x40 MLOAD DUP1 PUSH1 0x40 ADD PUSH1 0x40 MSTORE DUP1 PUSH1 0x20 DUP2 MSTORE PUSH1 0x20 ADD PUSH32 0x5361666545524332303A206C6F772D6C6576656C2063616C6C206661696C6564 DUP2 MSTORE POP DUP6 PUSH1 0x1 PUSH1 0x1 PUSH1 0xA0 SHL SUB AND PUSH3 0x23A7 SWAP1 SWAP3 SWAP2 SWAP1 PUSH4 0xFFFFFFFF AND JUMP JUMPDEST DUP1 MLOAD SWAP1 SWAP2 POP ISZERO PUSH3 0x1358 JUMPI DUP1 DUP1 PUSH1 0x20 ADD SWAP1 MLOAD DUP2 ADD SWAP1 PUSH3 0x2346 SWAP2 SWAP1 PUSH3 0x270D JUMP JUMPDEST PUSH3 0x1358 JUMPI PUSH1 0x40 MLOAD PUSH3 0x461BCD PUSH1 0xE5 SHL DUP2 MSTORE PUSH1 0x20 PUSH1 0x4 DUP3 ADD MSTORE PUSH1 0x2A PUSH1 0x24 DUP3 ADD MSTORE PUSH32 0x5361666545524332303A204552433230206F7065726174696F6E20646964206E PUSH1 0x44 DUP3 ADD MSTORE PUSH10 0x1BDD081CDD58D8D95959 PUSH1 0xB2 SHL PUSH1 0x64 DUP3 ADD MSTORE PUSH1 0x84 ADD PUSH3 0x3CB JUMP JUMPDEST PUSH1 0x60 PUSH3 0x23B8 DUP5 DUP5 PUSH1 0x0 DUP6 PUSH3 0x23C0 JUMP JUMPDEST SWAP5 SWAP4 POP POP POP POP JUMP JUMPDEST PUSH1 0x60 DUP3 SELFBALANCE LT ISZERO PUSH3 0x2423 JUMPI PUSH1 0x40 MLOAD PUSH3 0x461BCD PUSH1 0xE5 SHL DUP2 MSTORE PUSH1 0x20 PUSH1 0x4 DUP3 ADD MSTORE PUSH1 0x26 PUSH1 0x24 DUP3 ADD MSTORE PUSH32 0x416464726573733A20696E73756666696369656E742062616C616E636520666F PUSH1 0x44 DUP3 ADD MSTORE PUSH6 0x1C8818D85B1B PUSH1 0xD2 SHL PUSH1 0x64 DUP3 ADD MSTORE PUSH1 0x84 ADD PUSH3 0x3CB JUMP JUMPDEST PUSH1 0x1 PUSH1 0x1 PUSH1 0xA0 SHL SUB DUP6 AND EXTCODESIZE PUSH3 0x247C JUMPI PUSH1 0x40 MLOAD PUSH3 0x461BCD PUSH1 0xE5 SHL DUP2 MSTORE PUSH1 0x20 PUSH1 0x4 DUP3 ADD MSTORE PUSH1 0x1D PUSH1 0x24 DUP3 ADD MSTORE PUSH32 0x416464726573733A2063616C6C20746F206E6F6E2D636F6E7472616374000000 PUSH1 0x44 DUP3 ADD MSTORE PUSH1 0x64 ADD PUSH3 0x3CB JUMP JUMPDEST PUSH1 0x0 DUP1 DUP7 PUSH1 0x1 PUSH1 0x1 PUSH1 0xA0 SHL SUB AND DUP6 DUP8 PUSH1 0x40 MLOAD PUSH3 0x249A SWAP2 SWAP1 PUSH3 0x28A2 JUMP JUMPDEST PUSH1 0x0 PUSH1 0x40 MLOAD DUP1 DUP4 SUB DUP2 DUP6 DUP8 GAS CALL SWAP3 POP POP POP RETURNDATASIZE DUP1 PUSH1 0x0 DUP2 EQ PUSH3 0x24D9 JUMPI PUSH1 0x40 MLOAD SWAP2 POP PUSH1 0x1F NOT PUSH1 0x3F RETURNDATASIZE ADD AND DUP3 ADD PUSH1 0x40 MSTORE RETURNDATASIZE DUP3 MSTORE RETURNDATASIZE PUSH1 0x0 PUSH1 0x20 DUP5 ADD RETURNDATACOPY PUSH3 0x24DE JUMP JUMPDEST PUSH1 0x60 SWAP2 POP JUMPDEST POP SWAP2 POP SWAP2 POP PUSH3 0x24F0 DUP3 DUP3 DUP7 PUSH3 0x24FB JUMP JUMPDEST SWAP8 SWAP7 POP POP POP POP POP POP POP JUMP JUMPDEST PUSH1 0x60 DUP4 ISZERO PUSH3 0x250C JUMPI POP DUP2 PUSH3 0xF9F JUMP JUMPDEST DUP3 MLOAD ISZERO PUSH3 0x251D JUMPI DUP3 MLOAD DUP1 DUP5 PUSH1 0x20 ADD REVERT JUMPDEST DUP2 PUSH1 0x40 MLOAD PUSH3 0x461BCD PUSH1 0xE5 SHL DUP2 MSTORE PUSH1 0x4 ADD PUSH3 0x3CB SWAP2 SWAP1 PUSH3 0x28C0 JUMP JUMPDEST DUP3 DUP1 SLOAD PUSH3 0x2547 SWAP1 PUSH3 0x2A42 JUMP JUMPDEST SWAP1 PUSH1 0x0 MSTORE PUSH1 0x20 PUSH1 0x0 KECCAK256 SWAP1 PUSH1 0x1F ADD PUSH1 0x20 SWAP1 DIV DUP2 ADD SWAP3 DUP3 PUSH3 0x256B JUMPI PUSH1 0x0 DUP6 SSTORE PUSH3 0x25B6 JUMP JUMPDEST DUP3 PUSH1 0x1F LT PUSH3 0x2586 JUMPI DUP1 MLOAD PUSH1 0xFF NOT AND DUP4 DUP1 ADD OR DUP6 SSTORE PUSH3 0x25B6 JUMP JUMPDEST DUP3 DUP1 ADD PUSH1 0x1 ADD DUP6 SSTORE DUP3 ISZERO PUSH3 0x25B6 JUMPI SWAP2 DUP3 ADD JUMPDEST DUP3 DUP2 GT ISZERO PUSH3 0x25B6 JUMPI DUP3 MLOAD DUP3 SSTORE SWAP2 PUSH1 0x20 ADD SWAP2 SWAP1 PUSH1 0x1 ADD SWAP1 PUSH3 0x2599 JUMP JUMPDEST POP PUSH3 0x25C4 SWAP3 SWAP2 POP PUSH3 0x25D6 JUMP JUMPDEST POP SWAP1 JUMP JUMPDEST PUSH2 0x35A DUP1 PUSH3 0x2AE3 DUP4 CODECOPY ADD SWAP1 JUMP JUMPDEST JUMPDEST DUP1 DUP3 GT ISZERO PUSH3 0x25C4 JUMPI PUSH1 0x0 DUP2 SSTORE PUSH1 0x1 ADD PUSH3 0x25D7 JUMP JUMPDEST PUSH1 0x0 DUP3 PUSH1 0x1F DUP4 ADD SLT PUSH3 0x25FE JUMPI DUP1 DUP2 REVERT JUMPDEST DUP2 CALLDATALOAD PUSH3 0x2615 PUSH3 0x260F DUP3 PUSH3 0x294A JUMP JUMPDEST PUSH3 0x2916 JUMP JUMPDEST DUP2 DUP2 MSTORE DUP5 PUSH1 0x20 DUP4 DUP7 ADD ADD GT ISZERO PUSH3 0x262A JUMPI DUP3 DUP4 REVERT JUMPDEST DUP2 PUSH1 0x20 DUP6 ADD PUSH1 0x20 DUP4 ADD CALLDATACOPY SWAP1 DUP2 ADD PUSH1 0x20 ADD SWAP2 SWAP1 SWAP2 MSTORE SWAP3 SWAP2 POP POP JUMP JUMPDEST PUSH1 0x0 PUSH1 0x20 DUP3 DUP5 SUB SLT ISZERO PUSH3 0x2656 JUMPI DUP1 DUP2 REVERT JUMPDEST DUP2 CALLDATALOAD PUSH3 0xF9F DUP2 PUSH3 0x2AC9 JUMP JUMPDEST PUSH1 0x0 PUSH1 0x20 DUP3 DUP5 SUB SLT ISZERO PUSH3 0x2675 JUMPI DUP1 DUP2 REVERT JUMPDEST DUP2 MLOAD PUSH3 0xF9F DUP2 PUSH3 0x2AC9 JUMP JUMPDEST PUSH1 0x0 DUP1 PUSH1 0x0 DUP1 PUSH1 0x0 PUSH1 0xA0 DUP7 DUP9 SUB SLT ISZERO PUSH3 0x269A JUMPI DUP1 DUP2 REVERT JUMPDEST DUP6 CALLDATALOAD PUSH3 0x26A7 DUP2 PUSH3 0x2AC9 JUMP JUMPDEST SWAP5 POP PUSH1 0x20 DUP7 ADD CALLDATALOAD PUSH3 0x26B9 DUP2 PUSH3 0x2AC9 JUMP JUMPDEST SWAP4 POP PUSH1 0x40 DUP7 ADD CALLDATALOAD SWAP3 POP PUSH1 0x60 DUP7 ADD CALLDATALOAD PUSH1 0xFF DUP2 AND DUP2 EQ PUSH3 0x26D6 JUMPI DUP2 DUP3 REVERT JUMPDEST SWAP2 POP PUSH1 0x80 DUP7 ADD CALLDATALOAD PUSH8 0xFFFFFFFFFFFFFFFF DUP2 GT ISZERO PUSH3 0x26F2 JUMPI DUP2 DUP3 REVERT JUMPDEST PUSH3 0x2700 DUP9 DUP3 DUP10 ADD PUSH3 0x25ED JUMP JUMPDEST SWAP2 POP POP SWAP3 SWAP6 POP SWAP3 SWAP6 SWAP1 SWAP4 POP JUMP JUMPDEST PUSH1 0x0 PUSH1 0x20 DUP3 DUP5 SUB SLT ISZERO PUSH3 0x271F JUMPI DUP1 DUP2 REVERT JUMPDEST DUP2 MLOAD DUP1 ISZERO ISZERO DUP2 EQ PUSH3 0xF9F JUMPI DUP2 DUP3 REVERT JUMPDEST PUSH1 0x0 PUSH1 0x20 DUP3 DUP5 SUB SLT ISZERO PUSH3 0x2741 JUMPI DUP1 DUP2 REVERT JUMPDEST DUP2 CALLDATALOAD PUSH8 0xFFFFFFFFFFFFFFFF DUP2 GT ISZERO PUSH3 0x2758 JUMPI DUP2 DUP3 REVERT JUMPDEST PUSH3 0x23B8 DUP5 DUP3 DUP6 ADD PUSH3 0x25ED JUMP JUMPDEST PUSH1 0x0 PUSH1 0x20 DUP3 DUP5 SUB SLT ISZERO PUSH3 0x2778 JUMPI DUP1 DUP2 REVERT JUMPDEST DUP2 MLOAD PUSH8 0xFFFFFFFFFFFFFFFF DUP2 GT ISZERO PUSH3 0x278F JUMPI DUP2 DUP3 REVERT JUMPDEST DUP3 ADD PUSH1 0x1F DUP2 ADD DUP5 SGT PUSH3 0x27A0 JUMPI DUP2 DUP3 REVERT JUMPDEST DUP1 MLOAD PUSH3 0x27B1 PUSH3 0x260F DUP3 PUSH3 0x294A JUMP JUMPDEST DUP2 DUP2 MSTORE DUP6 PUSH1 0x20 DUP4 DUP6 ADD ADD GT ISZERO PUSH3 0x27C6 JUMPI DUP4 DUP5 REVERT JUMPDEST PUSH3 0x27D9 DUP3 PUSH1 0x20 DUP4 ADD PUSH1 0x20 DUP7 ADD PUSH3 0x2A13 JUMP JUMPDEST SWAP6 SWAP5 POP POP POP POP POP JUMP JUMPDEST PUSH1 0x0 DUP1 PUSH1 0x0 PUSH1 0x60 DUP5 DUP7 SUB SLT ISZERO PUSH3 0x27F7 JUMPI DUP3 DUP4 REVERT JUMPDEST DUP4 CALLDATALOAD PUSH8 0xFFFFFFFFFFFFFFFF DUP1 DUP3 GT ISZERO PUSH3 0x280F JUMPI DUP5 DUP6 REVERT JUMPDEST PUSH3 0x281D DUP8 DUP4 DUP9 ADD PUSH3 0x25ED JUMP JUMPDEST SWAP5 POP PUSH1 0x20 DUP7 ADD CALLDATALOAD SWAP2 POP DUP1 DUP3 GT ISZERO PUSH3 0x2833 JUMPI DUP4 DUP5 REVERT JUMPDEST PUSH3 0x2841 DUP8 DUP4 DUP9 ADD PUSH3 0x25ED JUMP JUMPDEST SWAP4 POP PUSH1 0x40 DUP7 ADD CALLDATALOAD SWAP2 POP DUP1 DUP3 GT ISZERO PUSH3 0x2857 JUMPI DUP3 DUP4 REVERT JUMPDEST POP PUSH3 0x2866 DUP7 DUP3 DUP8 ADD PUSH3 0x25ED JUMP JUMPDEST SWAP2 POP POP SWAP3 POP SWAP3 POP SWAP3 JUMP JUMPDEST PUSH1 0x0 PUSH1 0x20 DUP3 DUP5 SUB SLT ISZERO PUSH3 0x2882 JUMPI DUP1 DUP2 REVERT JUMPDEST POP CALLDATALOAD SWAP2 SWAP1 POP JUMP JUMPDEST PUSH1 0x0 PUSH1 0x20 DUP3 DUP5 SUB SLT ISZERO PUSH3 0x289B JUMPI DUP1 DUP2 REVERT JUMPDEST POP MLOAD SWAP2 SWAP1 POP JUMP JUMPDEST PUSH1 0x0 DUP3 MLOAD PUSH3 0x28B6 DUP2 DUP5 PUSH1 0x20 DUP8 ADD PUSH3 0x2A13 JUMP JUMPDEST SWAP2 SWAP1 SWAP2 ADD SWAP3 SWAP2 POP POP JUMP JUMPDEST PUSH1 0x20 DUP2 MSTORE PUSH1 0x0 DUP3 MLOAD DUP1 PUSH1 0x20 DUP5 ADD MSTORE PUSH3 0x28E1 DUP2 PUSH1 0x40 DUP6 ADD PUSH1 0x20 DUP8 ADD PUSH3 0x2A13 JUMP JUMPDEST PUSH1 0x1F ADD PUSH1 0x1F NOT AND SWAP2 SWAP1 SWAP2 ADD PUSH1 0x40 ADD SWAP3 SWAP2 POP POP JUMP JUMPDEST PUSH1 0x20 DUP1 DUP3 MSTORE PUSH1 0x7 SWAP1 DUP3 ADD MSTORE PUSH7 0x6F776E6572206F PUSH1 0xC8 SHL PUSH1 0x40 DUP3 ADD MSTORE PUSH1 0x60 ADD SWAP1 JUMP JUMPDEST PUSH1 0x40 MLOAD PUSH1 0x1F DUP3 ADD PUSH1 0x1F NOT AND DUP2 ADD PUSH8 0xFFFFFFFFFFFFFFFF DUP2 GT DUP3 DUP3 LT OR ISZERO PUSH3 0x2942 JUMPI PUSH3 0x2942 PUSH3 0x2AB3 JUMP JUMPDEST PUSH1 0x40 MSTORE SWAP2 SWAP1 POP JUMP JUMPDEST PUSH1 0x0 PUSH8 0xFFFFFFFFFFFFFFFF DUP3 GT ISZERO PUSH3 0x2967 JUMPI PUSH3 0x2967 PUSH3 0x2AB3 JUMP JUMPDEST POP PUSH1 0x1F ADD PUSH1 0x1F NOT AND PUSH1 0x20 ADD SWAP1 JUMP JUMPDEST PUSH1 0x0 DUP3 NOT DUP3 GT ISZERO PUSH3 0x298B JUMPI PUSH3 0x298B PUSH3 0x2A9D JUMP JUMPDEST POP ADD SWAP1 JUMP JUMPDEST PUSH1 0x0 DUP3 PUSH3 0x29AC JUMPI PUSH4 0x4E487B71 PUSH1 0xE0 SHL DUP2 MSTORE PUSH1 0x12 PUSH1 0x4 MSTORE PUSH1 0x24 DUP2 REVERT JUMPDEST POP DIV SWAP1 JUMP JUMPDEST PUSH1 0x0 DUP2 PUSH1 0x0 NOT DIV DUP4 GT DUP3 ISZERO ISZERO AND ISZERO PUSH3 0x29CE JUMPI PUSH3 0x29CE PUSH3 0x2A9D JUMP JUMPDEST POP MUL SWAP1 JUMP JUMPDEST PUSH1 0x0 DUP3 DUP3 LT ISZERO PUSH3 0x29E8 JUMPI PUSH3 0x29E8 PUSH3 0x2A9D JUMP JUMPDEST POP SUB SWAP1 JUMP JUMPDEST PUSH1 0x0 PUSH1 0xFF DUP3 AND PUSH1 0xFF DUP5 AND DUP1 DUP3 LT ISZERO PUSH3 0x2A0A JUMPI PUSH3 0x2A0A PUSH3 0x2A9D JUMP JUMPDEST SWAP1 SUB SWAP4 SWAP3 POP POP POP JUMP JUMPDEST PUSH1 0x0 JUMPDEST DUP4 DUP2 LT ISZERO PUSH3 0x2A30 JUMPI DUP2 DUP2 ADD MLOAD DUP4 DUP3 ADD MSTORE PUSH1 0x20 ADD PUSH3 0x2A16 JUMP JUMPDEST DUP4 DUP2 GT ISZERO PUSH3 0x146F JUMPI POP POP PUSH1 0x0 SWAP2 ADD MSTORE JUMP JUMPDEST PUSH1 0x1 DUP2 DUP2 SHR SWAP1 DUP3 AND DUP1 PUSH3 0x2A57 JUMPI PUSH1 0x7F DUP3 AND SWAP2 POP JUMPDEST PUSH1 0x20 DUP3 LT DUP2 EQ ISZERO PUSH3 0x2A79 JUMPI PUSH4 0x4E487B71 PUSH1 0xE0 SHL PUSH1 0x0 MSTORE PUSH1 0x22 PUSH1 0x4 MSTORE PUSH1 0x24 PUSH1 0x0 REVERT JUMPDEST POP SWAP2 SWAP1 POP JUMP JUMPDEST PUSH1 0x0 PUSH1 0x0 NOT DUP3 EQ ISZERO PUSH3 0x2A96 JUMPI PUSH3 0x2A96 PUSH3 0x2A9D JUMP JUMPDEST POP PUSH1 0x1 ADD SWAP1 JUMP JUMPDEST PUSH4 0x4E487B71 PUSH1 0xE0 SHL PUSH1 0x0 MSTORE PUSH1 0x11 PUSH1 0x4 MSTORE PUSH1 0x24 PUSH1 0x0 REVERT JUMPDEST PUSH4 0x4E487B71 PUSH1 0xE0 SHL PUSH1 0x0 MSTORE PUSH1 0x41 PUSH1 0x4 MSTORE PUSH1 0x24 PUSH1 0x0 REVERT JUMPDEST PUSH1 0x1 PUSH1 0x1 PUSH1 0xA0 SHL SUB DUP2 AND DUP2 EQ PUSH3 0x2ADF JUMPI PUSH1 0x0 DUP1 REVERT JUMPDEST POP JUMP INVALID PUSH1 0x80 PUSH1 0x40 MSTORE PUSH1 0x0 SLOAD PUSH1 0x6 DUP1 SLOAD PUSH1 0x1 PUSH1 0x1 PUSH1 0xA0 SHL SUB SWAP1 SWAP3 AND PUSH2 0x100 MUL PUSH2 0x100 PUSH1 0x1 PUSH1 0xA8 SHL SUB NOT SWAP1 SWAP3 AND SWAP2 SWAP1 SWAP2 OR SWAP1 SSTORE CALLVALUE DUP1 ISZERO PUSH2 0x39 JUMPI PUSH1 0x0 DUP1 REVERT JUMPDEST POP PUSH1 0x40 MLOAD PUSH2 0x35A CODESIZE SUB DUP1 PUSH2 0x35A DUP4 CODECOPY DUP2 ADD PUSH1 0x40 DUP2 SWAP1 MSTORE PUSH2 0x58 SWAP2 PUSH2 0x1D6 JUMP JUMPDEST PUSH1 0x6 PUSH1 0x1 SWAP1 SLOAD SWAP1 PUSH2 0x100 EXP SWAP1 DIV PUSH1 0x1 PUSH1 0x1 PUSH1 0xA0 SHL SUB AND PUSH1 0x1 PUSH1 0x1 PUSH1 0xA0 SHL SUB AND PUSH4 0x6AE7095 PUSH1 0x40 MLOAD DUP2 PUSH4 0xFFFFFFFF AND PUSH1 0xE0 SHL DUP2 MSTORE PUSH1 0x4 ADD PUSH1 0x20 PUSH1 0x40 MLOAD DUP1 DUP4 SUB DUP2 DUP7 DUP1 EXTCODESIZE ISZERO DUP1 ISZERO PUSH2 0xA6 JUMPI PUSH1 0x0 DUP1 REVERT JUMPDEST POP GAS STATICCALL ISZERO DUP1 ISZERO PUSH2 0xBA JUMPI RETURNDATASIZE PUSH1 0x0 DUP1 RETURNDATACOPY RETURNDATASIZE PUSH1 0x0 REVERT JUMPDEST POP POP POP POP PUSH1 0x40 MLOAD RETURNDATASIZE PUSH1 0x1F NOT PUSH1 0x1F DUP3 ADD AND DUP3 ADD DUP1 PUSH1 0x40 MSTORE POP DUP2 ADD SWAP1 PUSH2 0xDE SWAP2 SWAP1 PUSH2 0x1B5 JUMP JUMPDEST PUSH1 0x1 PUSH1 0x1 PUSH1 0xA0 SHL SUB AND CALLER PUSH1 0x1 PUSH1 0x1 PUSH1 0xA0 SHL SUB AND EQ PUSH2 0x14D JUMPI PUSH1 0x40 MLOAD PUSH3 0x461BCD PUSH1 0xE5 SHL DUP2 MSTORE PUSH1 0x20 PUSH1 0x4 DUP3 ADD MSTORE PUSH1 0x22 PUSH1 0x24 DUP3 ADD MSTORE PUSH32 0x6F6E6C79206D61726B657420666163746F72792063616E206D61746368206265 PUSH1 0x44 DUP3 ADD MSTORE PUSH2 0x7473 PUSH1 0xF0 SHL PUSH1 0x64 DUP3 ADD MSTORE PUSH1 0x84 ADD PUSH1 0x40 MLOAD DUP1 SWAP2 SUB SWAP1 REVERT JUMPDEST PUSH1 0x1 DUP1 SLOAD PUSH1 0x1 PUSH1 0x1 PUSH1 0xA0 SHL SUB NOT SWAP1 DUP2 AND PUSH1 0x1 PUSH1 0x1 PUSH1 0xA0 SHL SUB SWAP8 DUP9 AND OR SWAP1 SWAP2 SSTORE PUSH1 0x2 DUP1 SLOAD DUP3 AND SWAP6 DUP8 AND SWAP6 SWAP1 SWAP6 OR SWAP1 SWAP5 SSTORE PUSH1 0x3 DUP1 SLOAD SWAP1 SWAP5 AND SWAP3 SWAP1 SWAP5 AND SWAP2 SWAP1 SWAP2 OR SWAP1 SWAP2 SSTORE PUSH1 0x4 SSTORE PUSH1 0x5 SSTORE PUSH2 0x22B JUMP JUMPDEST DUP1 MLOAD PUSH1 0x1 PUSH1 0x1 PUSH1 0xA0 SHL SUB DUP2 AND DUP2 EQ PUSH2 0x1B0 JUMPI PUSH1 0x0 DUP1 REVERT JUMPDEST SWAP2 SWAP1 POP JUMP JUMPDEST PUSH1 0x0 PUSH1 0x20 DUP3 DUP5 SUB SLT ISZERO PUSH2 0x1C6 JUMPI DUP1 DUP2 REVERT JUMPDEST PUSH2 0x1CF DUP3 PUSH2 0x199 JUMP JUMPDEST SWAP4 SWAP3 POP POP POP JUMP JUMPDEST PUSH1 0x0 DUP1 PUSH1 0x0 DUP1 PUSH1 0x0 PUSH1 0xA0 DUP7 DUP9 SUB SLT ISZERO PUSH2 0x1ED JUMPI DUP1 DUP2 REVERT JUMPDEST PUSH2 0x1F6 DUP7 PUSH2 0x199 JUMP JUMPDEST SWAP5 POP PUSH2 0x204 PUSH1 0x20 DUP8 ADD PUSH2 0x199 JUMP JUMPDEST SWAP4 POP PUSH2 0x212 PUSH1 0x40 DUP8 ADD PUSH2 0x199 JUMP JUMPDEST PUSH1 0x60 DUP8 ADD MLOAD PUSH1 0x80 SWAP1 SWAP8 ADD MLOAD SWAP6 SWAP9 SWAP5 SWAP8 POP SWAP6 SWAP5 SWAP4 SWAP3 POP POP POP JUMP JUMPDEST PUSH2 0x120 DUP1 PUSH2 0x23A PUSH1 0x0 CODECOPY PUSH1 0x0 RETURN INVALID PUSH1 0x80 PUSH1 0x40 MSTORE CALLVALUE DUP1 ISZERO PUSH1 0xF JUMPI PUSH1 0x0 DUP1 REVERT JUMPDEST POP PUSH1 0x4 CALLDATASIZE LT PUSH1 0x5A JUMPI PUSH1 0x0 CALLDATALOAD PUSH1 0xE0 SHR DUP1 PUSH4 0xF765E6D EQ PUSH1 0x5F JUMPI DUP1 PUSH4 0x156DCBF0 EQ PUSH1 0x8E JUMPI DUP1 PUSH4 0x15E894AB EQ PUSH1 0xA3 JUMPI DUP1 PUSH4 0x2EFE91EF EQ PUSH1 0xB5 JUMPI DUP1 PUSH4 0x80F55605 EQ PUSH1 0xBD JUMPI DUP1 PUSH4 0x8F775839 EQ PUSH1 0xCF JUMPI JUMPDEST PUSH1 0x0 DUP1 REVERT JUMPDEST PUSH1 0x3 SLOAD PUSH1 0x71 SWAP1 PUSH1 0x1 PUSH1 0x1 PUSH1 0xA0 SHL SUB AND DUP2 JUMP JUMPDEST PUSH1 0x40 MLOAD PUSH1 0x1 PUSH1 0x1 PUSH1 0xA0 SHL SUB SWAP1 SWAP2 AND DUP2 MSTORE PUSH1 0x20 ADD JUMPDEST PUSH1 0x40 MLOAD DUP1 SWAP2 SUB SWAP1 RETURN JUMPDEST PUSH1 0x96 PUSH1 0x4 SLOAD DUP2 JUMP JUMPDEST PUSH1 0x40 MLOAD SWAP1 DUP2 MSTORE PUSH1 0x20 ADD PUSH1 0x85 JUMP JUMPDEST PUSH1 0x2 SLOAD PUSH1 0x71 SWAP1 PUSH1 0x1 PUSH1 0x1 PUSH1 0xA0 SHL SUB AND DUP2 JUMP JUMPDEST PUSH1 0x96 PUSH1 0x5 SLOAD DUP2 JUMP JUMPDEST PUSH1 0x1 SLOAD PUSH1 0x71 SWAP1 PUSH1 0x1 PUSH1 0x1 PUSH1 0xA0 SHL SUB AND DUP2 JUMP JUMPDEST PUSH1 0x6 SLOAD PUSH1 0xDB SWAP1 PUSH1 0xFF AND DUP2 JUMP JUMPDEST PUSH1 0x40 MLOAD SWAP1 ISZERO ISZERO DUP2 MSTORE PUSH1 0x20 ADD PUSH1 0x85 JUMP INVALID LOG2 PUSH5 0x6970667358 0x22 SLT KECCAK256 0xA5 0xF 0x5F 0xB4 BALANCE PUSH32 0xE4A9E0118B8824E7B7238EB79040BA9EED2CC8C3988B3F5DC2AC64736F6C6343 STOP ADDMOD DIV STOP CALLER LOG2 PUSH5 0x6970667358 0x22 SLT KECCAK256 0xA8 0xF6 SDIV DUP12 REVERT 0xCF MSTORE8 RETURN SUB PUSH13 0xCE30D7DA4616931024D41AA4C9 REVERT 0xC2 0xB4 STATICCALL KECCAK256 SLOAD 0xF7 0xC8 DUP5 PUSH5 0x736F6C6343 STOP ADDMOD DIV STOP CALLER "
				},
				"gasEstimates": {
					"creation": {
						"codeDepositCost": "2378000",
						"executionCost": "infinite",
						"totalCost": "infinite"
					},
					"external": {
						"addBet(address,address,uint256,uint8,string)": "infinite",
						"cancelMarket()": "infinite",
						"eventAddress()": "1125",
						"hasSetWinningSide()": "1038",
						"isCanceled()": "1089",
						"name()": "infinite",
						"setWinningSide(string)": "infinite",
						"settlePair(address)": "infinite",
						"sideABets(uint256)": "3757",
						"sideAName()": "infinite",
						"sideATotalStake()": "1039",
						"sideAUsersStakes(address)": "1258",
						"sideBBets(uint256)": "3778",
						"sideBName()": "infinite",
						"sideBTotalStake()": "1063",
						"sideBUsersStakes(address)": "1280",
						"upadteMarket(string,string,string)": "infinite",
						"winningSide()": "infinite",
						"withdrawPending(address)": "infinite"
					},
					"internal": {
						"_addToSideA(address,address,uint256,uint8)": "infinite",
						"_addToSideB(address,address,uint256,uint8)": "infinite",
						"_matchSideABet(address,uint256,uint8)": "infinite",
						"_matchSideBBet(address,uint256,uint8)": "infinite"
					}
				},
				"methodIdentifiers": {
					"addBet(address,address,uint256,uint8,string)": "9bf5b845",
					"cancelMarket()": "6bfefd6b",
					"eventAddress()": "fad56779",
					"hasSetWinningSide()": "bd92630c",
					"isCanceled()": "0ed5a933",
					"name()": "06fdde03",
					"setWinningSide(string)": "b40a4f05",
					"settlePair(address)": "2b4a3527",
					"sideABets(uint256)": "948fb24d",
					"sideAName()": "8eb1a4ad",
					"sideATotalStake()": "d37e2996",
					"sideAUsersStakes(address)": "3ab8781c",
					"sideBBets(uint256)": "e7c9a87f",
					"sideBName()": "a355f897",
					"sideBTotalStake()": "0b469bda",
					"sideBUsersStakes(address)": "5a358464",
					"upadteMarket(string,string,string)": "83bbe262",
					"winningSide()": "fbf06338",
					"withdrawPending(address)": "03afd56b"
				}
			},
			"storageLayout": {
				"storage": [
					{
						"astId": 783,
						"contract": "contracts/Market.sol:Market",
						"label": "web3betsAddress",
						"offset": 0,
						"slot": "0",
						"type": "t_address"
					},
					{
						"astId": 786,
						"contract": "contracts/Market.sol:Market",
						"label": "name",
						"offset": 0,
						"slot": "1",
						"type": "t_string_storage"
					},
					{
						"astId": 789,
						"contract": "contracts/Market.sol:Market",
						"label": "eventAddress",
						"offset": 0,
						"slot": "2",
						"type": "t_address"
					},
					{
						"astId": 792,
						"contract": "contracts/Market.sol:Market",
						"label": "hasSetWinningSide",
						"offset": 20,
						"slot": "2",
						"type": "t_bool"
					},
					{
						"astId": 795,
						"contract": "contracts/Market.sol:Market",
						"label": "winningSide",
						"offset": 0,
						"slot": "3",
						"type": "t_string_storage"
					},
					{
						"astId": 799,
						"contract": "contracts/Market.sol:Market",
						"label": "isCanceled",
						"offset": 0,
						"slot": "4",
						"type": "t_bool"
					},
					{
						"astId": 802,
						"contract": "contracts/Market.sol:Market",
						"label": "sideAName",
						"offset": 0,
						"slot": "5",
						"type": "t_string_storage"
					},
					{
						"astId": 806,
						"contract": "contracts/Market.sol:Market",
						"label": "sideATotalStake",
						"offset": 0,
						"slot": "6",
						"type": "t_uint256"
					},
					{
						"astId": 809,
						"contract": "contracts/Market.sol:Market",
						"label": "sideBName",
						"offset": 0,
						"slot": "7",
						"type": "t_string_storage"
					},
					{
						"astId": 813,
						"contract": "contracts/Market.sol:Market",
						"label": "sideBTotalStake",
						"offset": 0,
						"slot": "8",
						"type": "t_uint256"
					},
					{
						"astId": 824,
						"contract": "contracts/Market.sol:Market",
						"label": "sideABets",
						"offset": 0,
						"slot": "9",
						"type": "t_array(t_struct(MarketBet)820_storage)dyn_storage"
					},
					{
						"astId": 828,
						"contract": "contracts/Market.sol:Market",
						"label": "sideABetsPending",
						"offset": 0,
						"slot": "10",
						"type": "t_array(t_struct(MarketBet)820_storage)dyn_storage"
					},
					{
						"astId": 832,
						"contract": "contracts/Market.sol:Market",
						"label": "sideBBets",
						"offset": 0,
						"slot": "11",
						"type": "t_array(t_struct(MarketBet)820_storage)dyn_storage"
					},
					{
						"astId": 836,
						"contract": "contracts/Market.sol:Market",
						"label": "sideBBetsPending",
						"offset": 0,
						"slot": "12",
						"type": "t_array(t_struct(MarketBet)820_storage)dyn_storage"
					},
					{
						"astId": 840,
						"contract": "contracts/Market.sol:Market",
						"label": "sideAUsersStakes",
						"offset": 0,
						"slot": "13",
						"type": "t_mapping(t_address,t_uint256)"
					},
					{
						"astId": 844,
						"contract": "contracts/Market.sol:Market",
						"label": "sideBUsersStakes",
						"offset": 0,
						"slot": "14",
						"type": "t_mapping(t_address,t_uint256)"
					},
					{
						"astId": 850,
						"contract": "contracts/Market.sol:Market",
						"label": "web3bets",
						"offset": 0,
						"slot": "15",
						"type": "t_contract(IWeb3BetsFO)2089"
					},
					{
						"astId": 855,
						"contract": "contracts/Market.sol:Market",
						"label": "stableCoin",
						"offset": 0,
						"slot": "16",
						"type": "t_address"
					},
					{
						"astId": 861,
						"contract": "contracts/Market.sol:Market",
						"label": "_stableCoinWrapper",
						"offset": 0,
						"slot": "17",
						"type": "t_contract(IERC20)77"
					}
				],
				"types": {
					"t_address": {
						"encoding": "inplace",
						"label": "address",
						"numberOfBytes": "20"
					},
					"t_array(t_struct(MarketBet)820_storage)dyn_storage": {
						"base": "t_struct(MarketBet)820_storage",
						"encoding": "dynamic_array",
						"label": "struct Market.MarketBet[]",
						"numberOfBytes": "32"
					},
					"t_bool": {
						"encoding": "inplace",
						"label": "bool",
						"numberOfBytes": "1"
					},
					"t_contract(IERC20)77": {
						"encoding": "inplace",
						"label": "contract IERC20",
						"numberOfBytes": "20"
					},
					"t_contract(IWeb3BetsFO)2089": {
						"encoding": "inplace",
						"label": "contract IWeb3BetsFO",
						"numberOfBytes": "20"
					},
					"t_mapping(t_address,t_uint256)": {
						"encoding": "mapping",
						"key": "t_address",
						"label": "mapping(address => uint256)",
						"numberOfBytes": "32",
						"value": "t_uint256"
					},
					"t_string_storage": {
						"encoding": "bytes",
						"label": "string",
						"numberOfBytes": "32"
					},
					"t_struct(MarketBet)820_storage": {
						"encoding": "inplace",
						"label": "struct Market.MarketBet",
						"members": [
							{
								"astId": 815,
								"contract": "contracts/Market.sol:Market",
								"label": "betAddress",
								"offset": 0,
								"slot": "0",
								"type": "t_address"
							},
							{
								"astId": 817,
								"contract": "contracts/Market.sol:Market",
								"label": "stake",
								"offset": 0,
								"slot": "1",
								"type": "t_uint256"
							},
							{
								"astId": 819,
								"contract": "contracts/Market.sol:Market",
								"label": "odds",
								"offset": 0,
								"slot": "2",
								"type": "t_uint8"
							}
						],
						"numberOfBytes": "96"
					},
					"t_uint256": {
						"encoding": "inplace",
						"label": "uint256",
						"numberOfBytes": "32"
					},
					"t_uint8": {
						"encoding": "inplace",
						"label": "uint8",
						"numberOfBytes": "1"
					}
				}
			},
			"userdoc": {
				"kind": "user",
				"methods": {},
				"version": 1
			}
		}
	}
}