{
	"contracts/Market.sol": {
		"Market": {
			"abi": [
				{
					"inputs": [],
					"stateMutability": "nonpayable",
					"type": "constructor"
				},
				{
					"anonymous": false,
					"inputs": [
						{
							"indexed": false,
							"internalType": "address",
							"name": "better",
							"type": "address"
						},
						{
							"indexed": false,
							"internalType": "address",
							"name": "marketAddr",
							"type": "address"
						},
						{
							"indexed": false,
							"internalType": "bytes32",
							"name": "hash",
							"type": "bytes32"
						},
						{
							"indexed": false,
							"internalType": "uint256",
							"name": "stake",
							"type": "uint256"
						},
						{
							"indexed": false,
							"internalType": "uint256",
							"name": "odds",
							"type": "uint256"
						},
						{
							"indexed": false,
							"internalType": "uint8",
							"name": "side",
							"type": "uint8"
						}
					],
					"name": "BetCreated",
					"type": "event"
				},
				{
					"anonymous": false,
					"inputs": [
						{
							"indexed": false,
							"internalType": "bytes32",
							"name": "betHashA",
							"type": "bytes32"
						},
						{
							"indexed": false,
							"internalType": "bytes32",
							"name": "betHashB",
							"type": "bytes32"
						},
						{
							"indexed": false,
							"internalType": "uint256",
							"name": "amountA",
							"type": "uint256"
						},
						{
							"indexed": false,
							"internalType": "uint256",
							"name": "amountB",
							"type": "uint256"
						}
					],
					"name": "PairCreated",
					"type": "event"
				},
				{
					"inputs": [
						{
							"internalType": "address",
							"name": "_better",
							"type": "address"
						},
						{
							"internalType": "address",
							"name": "_affiliate",
							"type": "address"
						},
						{
							"internalType": "uint256",
							"name": "_stake",
							"type": "uint256"
						},
						{
							"internalType": "uint256",
							"name": "_odds",
							"type": "uint256"
						},
						{
							"internalType": "uint8",
							"name": "_side",
							"type": "uint8"
						},
						{
							"internalType": "bool",
							"name": "_instant",
							"type": "bool"
						}
					],
					"name": "addBet",
					"outputs": [
						{
							"internalType": "bytes32",
							"name": "",
							"type": "bytes32"
						}
					],
					"stateMutability": "nonpayable",
					"type": "function"
				},
				{
					"inputs": [],
					"name": "app",
					"outputs": [
						{
							"internalType": "contract IWeb3BetsFO",
							"name": "",
							"type": "address"
						}
					],
					"stateMutability": "view",
					"type": "function"
				},
				{
					"inputs": [],
					"name": "cancelMarket",
					"outputs": [
						{
							"internalType": "bool",
							"name": "",
							"type": "bool"
						}
					],
					"stateMutability": "nonpayable",
					"type": "function"
				},
				{
					"inputs": [
						{
							"internalType": "bytes32",
							"name": "_bet",
							"type": "bytes32"
						}
					],
					"name": "cancelPending",
					"outputs": [],
					"stateMutability": "nonpayable",
					"type": "function"
				},
				{
					"inputs": [],
					"name": "factory",
					"outputs": [
						{
							"internalType": "address",
							"name": "",
							"type": "address"
						}
					],
					"stateMutability": "view",
					"type": "function"
				},
				{
					"inputs": [
						{
							"internalType": "address",
							"name": "_user",
							"type": "address"
						}
					],
					"name": "getBalance",
					"outputs": [
						{
							"internalType": "uint256",
							"name": "",
							"type": "uint256"
						}
					],
					"stateMutability": "view",
					"type": "function"
				},
				{
					"inputs": [
						{
							"internalType": "address",
							"name": "_user",
							"type": "address"
						}
					],
					"name": "getUserBets",
					"outputs": [
						{
							"components": [
								{
									"internalType": "address",
									"name": "better",
									"type": "address"
								},
								{
									"internalType": "address",
									"name": "affiliate",
									"type": "address"
								},
								{
									"internalType": "uint256",
									"name": "stake",
									"type": "uint256"
								},
								{
									"internalType": "uint256",
									"name": "matched",
									"type": "uint256"
								},
								{
									"internalType": "uint256",
									"name": "odds",
									"type": "uint256"
								},
								{
									"internalType": "uint8",
									"name": "side",
									"type": "uint8"
								}
							],
							"internalType": "struct IMarket.MarketBet[]",
							"name": "",
							"type": "tuple[]"
						}
					],
					"stateMutability": "view",
					"type": "function"
				},
				{
					"inputs": [
						{
							"internalType": "uint8",
							"name": "_winningSide",
							"type": "uint8"
						}
					],
					"name": "setWinningSide",
					"outputs": [
						{
							"internalType": "bool",
							"name": "",
							"type": "bool"
						}
					],
					"stateMutability": "nonpayable",
					"type": "function"
				},
				{
					"inputs": [],
					"name": "settleAllPAirs",
					"outputs": [],
					"stateMutability": "nonpayable",
					"type": "function"
				},
				{
					"inputs": [
						{
							"internalType": "bytes32",
							"name": "_pair",
							"type": "bytes32"
						}
					],
					"name": "settlePair",
					"outputs": [],
					"stateMutability": "nonpayable",
					"type": "function"
				},
				{
					"inputs": [],
					"name": "status",
					"outputs": [
						{
							"internalType": "uint8",
							"name": "",
							"type": "uint8"
						}
					],
					"stateMutability": "view",
					"type": "function"
				},
				{
					"inputs": [],
					"name": "token",
					"outputs": [
						{
							"internalType": "contract IERC20",
							"name": "",
							"type": "address"
						}
					],
					"stateMutability": "view",
					"type": "function"
				},
				{
					"inputs": [
						{
							"internalType": "address",
							"name": "_addr",
							"type": "address"
						}
					],
					"name": "withdraw",
					"outputs": [
						{
							"internalType": "bool",
							"name": "",
							"type": "bool"
						}
					],
					"stateMutability": "nonpayable",
					"type": "function"
				}
			],
			"devdoc": {
				"kind": "dev",
				"methods": {},
				"version": 1
			},
			"evm": {
				"assembly": "    /* \"contracts/Market.sol\":194:10740  contract Market is IMarket, ReentrancyGuard {... */\n  mstore(0x40, 0xc0)\n    /* \"contracts/Market.sol\":631:663  uint8 public override status = 0 */\n  0x05\n  dup1\n  sload\n  not(0xff)\n  and\n  swap1\n  sstore\n  0x01\n    /* \"contracts/Market.sol\":1160:1167  factory */\n  sload\n  sub(shl(0xa0, 0x01), 0x01)\n  and\n    /* \"contracts/Market.sol\":1113:1168  IWeb3BetsFO immutable public app = IWeb3BetsFO(factory) */\n  0xa0\n  mstore\n    /* \"contracts/Market.sol\":1607:1713  constructor() {... */\n  callvalue\n  dup1\n  iszero\n  tag_1\n  jumpi\n  0x00\n  dup1\n  revert\ntag_1:\n  pop\n    /* \"@openzeppelin/contracts/security/ReentrancyGuard.sol\":1701:1702  1 */\n  0x01\n    /* \"@openzeppelin/contracts/security/ReentrancyGuard.sol\":1806:1813  _status */\n  0x00\n    /* \"@openzeppelin/contracts/security/ReentrancyGuard.sol\":1806:1828  _status = _NOT_ENTERED */\n  dup2\n  swap1\n  sstore\n    /* \"contracts/Market.sol\":1631:1651  factory = msg.sender */\n  dup1\n  sload\n  not(sub(shl(0xa0, 0x01), 0x01))\n  and\n    /* \"contracts/Market.sol\":1641:1651  msg.sender */\n  caller\n    /* \"contracts/Market.sol\":1631:1651  factory = msg.sender */\n  swap1\n  dup2\n  or\n  swap1\n  swap2\n  sstore\n    /* \"contracts/Market.sol\":1676:1705  IWeb3BetsFO(factory).scAddr() */\n  0x40\n  dup1\n  mload\n  shl(0xe3, 0x966ed9)\n  dup2\n  mstore\n  swap1\n  mload\n    /* \"contracts/Market.sol\":1676:1703  IWeb3BetsFO(factory).scAddr */\n  0x04b376c8\n  swap2\n    /* \"contracts/Market.sol\":1676:1705  IWeb3BetsFO(factory).scAddr() */\n  0x04\n  dup1\n  dup3\n  add\n  swap3\n  0x20\n  swap3\n  swap1\n  swap2\n  swap1\n  dup3\n  swap1\n  sub\n  add\n  dup2\n    /* \"contracts/Market.sol\":1641:1651  msg.sender */\n  dup7\n    /* \"contracts/Market.sol\":1676:1705  IWeb3BetsFO(factory).scAddr() */\n  gas\n  staticcall\n  iszero\n  dup1\n  iszero\n  tag_7\n  jumpi\n  returndatasize\n  0x00\n  dup1\n  returndatacopy\n  revert(0x00, returndatasize)\ntag_7:\n  pop\n  pop\n  pop\n  pop\n  mload(0x40)\n  returndatasize\n  not(0x1f)\n  0x1f\n  dup3\n  add\n  and\n  dup3\n  add\n  dup1\n  0x40\n  mstore\n  pop\n  dup2\n  add\n  swap1\n  tag_8\n  swap2\n  swap1\n  tag_9\n  jump\t// in\ntag_8:\n  sub(shl(0xa0, 0x01), 0x01)\n    /* \"contracts/Market.sol\":1661:1706  token = IERC20(IWeb3BetsFO(factory).scAddr()) */\n  and\n  0x80\n  mstore\n    /* \"contracts/Market.sol\":194:10740  contract Market is IMarket, ReentrancyGuard {... */\n  jump(tag_11)\n    /* \"#utility.yul\":14:304   */\ntag_9:\n    /* \"#utility.yul\":84:90   */\n  0x00\n    /* \"#utility.yul\":137:139   */\n  0x20\n    /* \"#utility.yul\":125:134   */\n  dup3\n    /* \"#utility.yul\":116:123   */\n  dup5\n    /* \"#utility.yul\":112:135   */\n  sub\n    /* \"#utility.yul\":108:140   */\n  slt\n    /* \"#utility.yul\":105:157   */\n  iszero\n  tag_13\n  jumpi\n    /* \"#utility.yul\":153:154   */\n  0x00\n    /* \"#utility.yul\":150:151   */\n  dup1\n    /* \"#utility.yul\":143:155   */\n  revert\n    /* \"#utility.yul\":105:157   */\ntag_13:\n    /* \"#utility.yul\":179:195   */\n  dup2\n  mload\n  sub(shl(0xa0, 0x01), 0x01)\n    /* \"#utility.yul\":224:255   */\n  dup2\n  and\n    /* \"#utility.yul\":214:256   */\n  dup2\n  eq\n    /* \"#utility.yul\":204:274   */\n  tag_14\n  jumpi\n    /* \"#utility.yul\":270:271   */\n  0x00\n    /* \"#utility.yul\":267:268   */\n  dup1\n    /* \"#utility.yul\":260:272   */\n  revert\n    /* \"#utility.yul\":204:274   */\ntag_14:\n    /* \"#utility.yul\":293:298   */\n  swap4\n    /* \"#utility.yul\":14:304   */\n  swap3\n  pop\n  pop\n  pop\n  jump\t// out\ntag_11:\n    /* \"contracts/Market.sol\":194:10740  contract Market is IMarket, ReentrancyGuard {... */\n  mload(0x80)\n  mload(0xa0)\n  codecopy(0x00, dataOffset(sub_0), dataSize(sub_0))\n  0x00\n  assignImmutable(\"0xb7700257a9e4b89511ea592d7ef488a6959d733cec4df010484e5af3e427a407\")\n  0x00\n  assignImmutable(\"0x26fde711c36747908dcce028baf2d3e8303b2122f2368e04f010a3f01eaa4df4\")\n  return(0x00, dataSize(sub_0))\nstop\n\nsub_0: assembly {\n        /* \"contracts/Market.sol\":194:10740  contract Market is IMarket, ReentrancyGuard {... */\n      mstore(0x40, 0x80)\n      callvalue\n      dup1\n      iszero\n      tag_1\n      jumpi\n      0x00\n      dup1\n      revert\n    tag_1:\n      pop\n      jumpi(tag_2, lt(calldatasize, 0x04))\n      shr(0xe0, calldataload(0x00))\n      dup1\n      0x893372ca\n      gt\n      tag_16\n      jumpi\n      dup1\n      0xc45a0155\n      gt\n      tag_17\n      jumpi\n      dup1\n      0xc45a0155\n      eq\n      tag_12\n      jumpi\n      dup1\n      0xc7b448bd\n      eq\n      tag_13\n      jumpi\n      dup1\n      0xf8b2cb4f\n      eq\n      tag_14\n      jumpi\n      dup1\n      0xfc0c546a\n      eq\n      tag_15\n      jumpi\n      0x00\n      dup1\n      revert\n    tag_17:\n      dup1\n      0x893372ca\n      eq\n      tag_9\n      jumpi\n      dup1\n      0x8f2c4885\n      eq\n      tag_10\n      jumpi\n      dup1\n      0xb76564bd\n      eq\n      tag_11\n      jumpi\n      0x00\n      dup1\n      revert\n    tag_16:\n      dup1\n      0x0d68ecb0\n      eq\n      tag_3\n      jumpi\n      dup1\n      0x200d2ed2\n      eq\n      tag_4\n      jumpi\n      dup1\n      0x2d56657d\n      eq\n      tag_5\n      jumpi\n      dup1\n      0x51cff8d9\n      eq\n      tag_6\n      jumpi\n      dup1\n      0x6bfefd6b\n      eq\n      tag_7\n      jumpi\n      dup1\n      0x74393a9b\n      eq\n      tag_8\n      jumpi\n    tag_2:\n      0x00\n      dup1\n      revert\n        /* \"contracts/Market.sol\":4704:4838  function settleAllPAirs() external {... */\n    tag_3:\n      tag_18\n      tag_19\n      jump\t// in\n    tag_18:\n      stop\n        /* \"contracts/Market.sol\":631:663  uint8 public override status = 0 */\n    tag_4:\n      sload(0x05)\n      tag_20\n      swap1\n      0xff\n      and\n      dup2\n      jump\n    tag_20:\n      mload(0x40)\n        /* \"#utility.yul\":186:190   */\n      0xff\n        /* \"#utility.yul\":174:191   */\n      swap1\n      swap2\n      and\n        /* \"#utility.yul\":156:192   */\n      dup2\n      mstore\n        /* \"#utility.yul\":144:146   */\n      0x20\n        /* \"#utility.yul\":129:147   */\n      add\n        /* \"contracts/Market.sol\":631:663  uint8 public override status = 0 */\n    tag_22:\n      mload(0x40)\n      dup1\n      swap2\n      sub\n      swap1\n      return\n        /* \"contracts/Market.sol\":1834:2146  function getUserBets(address _user) external view override returns(MarketBet[] memory) {... */\n    tag_5:\n      tag_24\n      tag_25\n      calldatasize\n      0x04\n      tag_26\n      jump\t// in\n    tag_25:\n      tag_27\n      jump\t// in\n    tag_24:\n      mload(0x40)\n      tag_22\n      swap2\n      swap1\n      tag_29\n      jump\t// in\n        /* \"contracts/Market.sol\":2152:2516  function withdraw(address _addr) external nonReentrant returns(bool) {... */\n    tag_6:\n      tag_30\n      tag_31\n      calldatasize\n      0x04\n      tag_26\n      jump\t// in\n    tag_31:\n      tag_32\n      jump\t// in\n    tag_30:\n      mload(0x40)\n        /* \"#utility.yul\":1919:1933   */\n      swap1\n      iszero\n        /* \"#utility.yul\":1912:1934   */\n      iszero\n        /* \"#utility.yul\":1894:1935   */\n      dup2\n      mstore\n        /* \"#utility.yul\":1882:1884   */\n      0x20\n        /* \"#utility.yul\":1867:1885   */\n      add\n        /* \"contracts/Market.sol\":2152:2516  function withdraw(address _addr) external nonReentrant returns(bool) {... */\n      tag_22\n        /* \"#utility.yul\":1754:1941   */\n      jump\n        /* \"contracts/Market.sol\":4844:5089  function cancelMarket() external override onlyFactory returns(bool) ... */\n    tag_7:\n      tag_30\n      tag_36\n      jump\t// in\n        /* \"contracts/Market.sol\":3040:4441  function settlePair(bytes32 _pair) public override nonReentrant {... */\n    tag_8:\n      tag_18\n      tag_39\n      calldatasize\n      0x04\n      tag_40\n      jump\t// in\n    tag_39:\n      tag_41\n      jump\t// in\n        /* \"contracts/Market.sol\":2524:3030  function cancelPending(bytes32 _bet) external override nonReentrant {... */\n    tag_9:\n      tag_18\n      tag_43\n      calldatasize\n      0x04\n      tag_40\n      jump\t// in\n    tag_43:\n      tag_44\n      jump\t// in\n        /* \"contracts/Market.sol\":4447:4698  function setWinningSide(uint8 _winningSide)... */\n    tag_10:\n      tag_30\n      tag_46\n      calldatasize\n      0x04\n      tag_47\n      jump\t// in\n    tag_46:\n      tag_48\n      jump\t// in\n        /* \"contracts/Market.sol\":1113:1168  IWeb3BetsFO immutable public app = IWeb3BetsFO(factory) */\n    tag_11:\n      tag_50\n      immutable(\"0xb7700257a9e4b89511ea592d7ef488a6959d733cec4df010484e5af3e427a407\")\n      dup2\n      jump\n    tag_50:\n      mload(0x40)\n      sub(shl(0xa0, 0x01), 0x01)\n        /* \"#utility.yul\":2663:2695   */\n      swap1\n      swap2\n      and\n        /* \"#utility.yul\":2645:2696   */\n      dup2\n      mstore\n        /* \"#utility.yul\":2633:2635   */\n      0x20\n        /* \"#utility.yul\":2618:2636   */\n      add\n        /* \"contracts/Market.sol\":1113:1168  IWeb3BetsFO immutable public app = IWeb3BetsFO(factory) */\n      tag_22\n        /* \"#utility.yul\":2479:2702   */\n      jump\n        /* \"contracts/Market.sol\":244:275  address public override factory */\n    tag_12:\n      sload(0x01)\n      tag_50\n      swap1\n      sub(shl(0xa0, 0x01), 0x01)\n      and\n      dup2\n      jump\n        /* \"contracts/Market.sol\":5095:8924  function addBet(... */\n    tag_13:\n      tag_58\n      tag_59\n      calldatasize\n      0x04\n      tag_60\n      jump\t// in\n    tag_59:\n      tag_61\n      jump\t// in\n    tag_58:\n      mload(0x40)\n        /* \"#utility.yul\":3921:3946   */\n      swap1\n      dup2\n      mstore\n        /* \"#utility.yul\":3909:3911   */\n      0x20\n        /* \"#utility.yul\":3894:3912   */\n      add\n        /* \"contracts/Market.sol\":5095:8924  function addBet(... */\n      tag_22\n        /* \"#utility.yul\":3775:3952   */\n      jump\n        /* \"contracts/Market.sol\":1719:1828  function getBalance(address _user) external view override returns(uint256) {... */\n    tag_14:\n      tag_58\n      tag_65\n      calldatasize\n      0x04\n      tag_26\n      jump\t// in\n    tag_65:\n      sub(shl(0xa0, 0x01), 0x01)\n        /* \"contracts/Market.sol\":1811:1821  bal[_user] */\n      and\n        /* \"contracts/Market.sol\":1785:1792  uint256 */\n      0x00\n        /* \"contracts/Market.sol\":1811:1821  bal[_user] */\n      swap1\n      dup2\n      mstore\n        /* \"contracts/Market.sol\":1811:1814  bal */\n      0x06\n        /* \"contracts/Market.sol\":1811:1821  bal[_user] */\n      0x20\n      mstore\n      0x40\n      swap1\n      keccak256\n      sload\n      swap1\n        /* \"contracts/Market.sol\":1719:1828  function getBalance(address _user) external view override returns(uint256) {... */\n      jump\n        /* \"contracts/Market.sol\":1078:1107  IERC20 immutable public token */\n    tag_15:\n      tag_50\n      immutable(\"0x26fde711c36747908dcce028baf2d3e8303b2122f2368e04f010a3f01eaa4df4\")\n      dup2\n      jump\n        /* \"contracts/Market.sol\":4704:4838  function settleAllPAirs() external {... */\n    tag_19:\n        /* \"contracts/Market.sol\":4753:4759  uint i */\n      0x00\n        /* \"contracts/Market.sol\":4749:4832  for(uint i = 0; i < pairs.length; i++){... */\n    tag_74:\n        /* \"contracts/Market.sol\":4769:4774  pairs */\n      0x02\n        /* \"contracts/Market.sol\":4769:4781  pairs.length */\n      sload\n        /* \"contracts/Market.sol\":4765:4781  i < pairs.length */\n      dup2\n      lt\n        /* \"contracts/Market.sol\":4749:4832  for(uint i = 0; i < pairs.length; i++){... */\n      iszero\n      tag_75\n      jumpi\n        /* \"contracts/Market.sol\":4801:4821  settlePair(pairs[i]) */\n      tag_77\n        /* \"contracts/Market.sol\":4812:4817  pairs */\n      0x02\n        /* \"contracts/Market.sol\":4818:4819  i */\n      dup3\n        /* \"contracts/Market.sol\":4812:4820  pairs[i] */\n      dup2\n      sload\n      dup2\n      lt\n      tag_79\n      jumpi\n      tag_79\n      tag_80\n      jump\t// in\n    tag_79:\n      swap1\n      0x00\n      mstore\n      keccak256(0x00, 0x20)\n      add\n      sload\n        /* \"contracts/Market.sol\":4801:4811  settlePair */\n      tag_41\n        /* \"contracts/Market.sol\":4801:4821  settlePair(pairs[i]) */\n      jump\t// in\n    tag_77:\n        /* \"contracts/Market.sol\":4783:4786  i++ */\n      dup1\n      tag_82\n      dup2\n      tag_83\n      jump\t// in\n    tag_82:\n      swap2\n      pop\n      pop\n        /* \"contracts/Market.sol\":4749:4832  for(uint i = 0; i < pairs.length; i++){... */\n      jump(tag_74)\n    tag_75:\n      pop\n        /* \"contracts/Market.sol\":4704:4838  function settleAllPAirs() external {... */\n      jump\t// out\n        /* \"contracts/Market.sol\":1834:2146  function getUserBets(address _user) external view override returns(MarketBet[] memory) {... */\n    tag_27:\n      sub(shl(0xa0, 0x01), 0x01)\n        /* \"contracts/Market.sol\":1994:2009  userBets[_user] */\n      dup2\n      and\n        /* \"contracts/Market.sol\":1969:1991  bytes32[] memory _bets */\n      0x00\n        /* \"contracts/Market.sol\":1994:2009  userBets[_user] */\n      swap1\n      dup2\n      mstore\n        /* \"contracts/Market.sol\":1994:2002  userBets */\n      0x08\n        /* \"contracts/Market.sol\":1994:2009  userBets[_user] */\n      0x20\n      swap1\n      dup2\n      mstore\n      0x40\n      dup1\n      dup4\n      keccak256\n        /* \"contracts/Market.sol\":1969:2009  bytes32[] memory _bets = userBets[_user] */\n      dup1\n      sload\n      dup3\n      mload\n      dup2\n      dup6\n      mul\n      dup2\n      add\n      dup6\n      add\n      swap1\n      swap4\n      mstore\n      dup1\n      dup4\n      mstore\n        /* \"contracts/Market.sol\":1901:1919  MarketBet[] memory */\n      0x60\n      swap5\n      dup6\n      swap5\n        /* \"contracts/Market.sol\":1969:1991  bytes32[] memory _bets */\n      swap1\n      swap4\n        /* \"contracts/Market.sol\":1969:2009  bytes32[] memory _bets = userBets[_user] */\n      swap3\n        /* \"contracts/Market.sol\":1994:2009  userBets[_user] */\n      swap2\n        /* \"contracts/Market.sol\":1969:2009  bytes32[] memory _bets = userBets[_user] */\n      swap1\n      dup4\n      add\n        /* \"contracts/Market.sol\":1994:2009  userBets[_user] */\n      dup3\n        /* \"contracts/Market.sol\":1969:2009  bytes32[] memory _bets = userBets[_user] */\n      dup3\n      dup1\n      iszero\n      tag_85\n      jumpi\n      0x20\n      mul\n      dup3\n      add\n      swap2\n      swap1\n      0x00\n      mstore\n      keccak256(0x00, 0x20)\n      swap1\n    tag_86:\n      dup2\n      sload\n      dup2\n      mstore\n      0x20\n      add\n      swap1\n      0x01\n      add\n      swap1\n      dup1\n      dup4\n      gt\n      tag_86\n      jumpi\n    tag_85:\n      pop\n      pop\n      pop\n      pop\n      pop\n      swap1\n      pop\n        /* \"contracts/Market.sol\":2023:2029  uint i */\n      0x00\n        /* \"contracts/Market.sol\":2019:2114  for(uint i = 0; i < bets.length; i++){... */\n    tag_87:\n        /* \"contracts/Market.sol\":2039:2043  bets */\n      0x03\n        /* \"contracts/Market.sol\":2039:2050  bets.length */\n      sload\n        /* \"contracts/Market.sol\":2035:2050  i < bets.length */\n      dup2\n      lt\n        /* \"contracts/Market.sol\":2019:2114  for(uint i = 0; i < bets.length; i++){... */\n      iszero\n      tag_88\n      jumpi\n        /* \"contracts/Market.sol\":2085:2093  betsInfo */\n      0x07\n        /* \"contracts/Market.sol\":2085:2103  betsInfo[_bets[i]] */\n      0x00\n        /* \"contracts/Market.sol\":2094:2099  _bets */\n      dup4\n        /* \"contracts/Market.sol\":2100:2101  i */\n      dup4\n        /* \"contracts/Market.sol\":2094:2102  _bets[i] */\n      dup2\n      mload\n      dup2\n      lt\n      tag_91\n      jumpi\n      tag_91\n      tag_80\n      jump\t// in\n    tag_91:\n      0x20\n      swap1\n      dup2\n      mul\n      swap2\n      swap1\n      swap2\n      add\n      dup2\n      add\n      mload\n        /* \"contracts/Market.sol\":2085:2103  betsInfo[_bets[i]] */\n      dup3\n      mstore\n      dup2\n      dup2\n      add\n      swap3\n      swap1\n      swap3\n      mstore\n      0x40\n      swap1\n      dup2\n      add\n      0x00\n      keccak256\n        /* \"contracts/Market.sol\":2070:2103  _userBets[i] = betsInfo[_bets[i]] */\n      dup2\n      mload\n      0xc0\n      dup2\n      add\n      dup4\n      mstore\n      dup2\n      sload\n      sub(shl(0xa0, 0x01), 0x01)\n      swap1\n      dup2\n      and\n      dup3\n      mstore\n      0x01\n      dup4\n      add\n      sload\n      and\n      swap4\n      dup2\n      add\n      swap4\n      swap1\n      swap4\n      mstore\n      0x02\n      dup2\n      add\n      sload\n      swap2\n      dup4\n      add\n      swap2\n      swap1\n      swap2\n      mstore\n      0x03\n      dup2\n      add\n      sload\n      0x60\n      dup4\n      add\n      mstore\n      0x04\n      dup2\n      add\n      sload\n      0x80\n      dup4\n      add\n      mstore\n      0x05\n      add\n      sload\n      0xff\n      and\n      0xa0\n      dup3\n      add\n      mstore\n        /* \"contracts/Market.sol\":2070:2082  _userBets[i] */\n      dup4\n      mload\n        /* \"contracts/Market.sol\":2070:2079  _userBets */\n      dup5\n      swap1\n        /* \"contracts/Market.sol\":2080:2081  i */\n      dup4\n      swap1\n        /* \"contracts/Market.sol\":2070:2082  _userBets[i] */\n      dup2\n      lt\n      tag_93\n      jumpi\n      tag_93\n      tag_80\n      jump\t// in\n    tag_93:\n      0x20\n      mul\n      0x20\n      add\n      add\n        /* \"contracts/Market.sol\":2070:2103  _userBets[i] = betsInfo[_bets[i]] */\n      dup2\n      swap1\n      mstore\n      pop\n        /* \"contracts/Market.sol\":2052:2055  i++ */\n      dup1\n      dup1\n      tag_94\n      swap1\n      tag_83\n      jump\t// in\n    tag_94:\n      swap2\n      pop\n      pop\n        /* \"contracts/Market.sol\":2019:2114  for(uint i = 0; i < bets.length; i++){... */\n      jump(tag_87)\n    tag_88:\n      pop\n        /* \"contracts/Market.sol\":2130:2139  _userBets */\n      swap1\n      swap4\n        /* \"contracts/Market.sol\":1834:2146  function getUserBets(address _user) external view override returns(MarketBet[] memory) {... */\n      swap3\n      pop\n      pop\n      pop\n      jump\t// out\n        /* \"contracts/Market.sol\":2152:2516  function withdraw(address _addr) external nonReentrant returns(bool) {... */\n    tag_32:\n        /* \"contracts/Market.sol\":2215:2219  bool */\n      0x00\n        /* \"@openzeppelin/contracts/security/ReentrancyGuard.sol\":1744:1745  2 */\n      0x02\n        /* \"@openzeppelin/contracts/security/ReentrancyGuard.sol\":2325:2332  _status */\n      sload(0x00)\n        /* \"@openzeppelin/contracts/security/ReentrancyGuard.sol\":2325:2344  _status != _ENTERED */\n      sub\n        /* \"@openzeppelin/contracts/security/ReentrancyGuard.sol\":2317:2380  require(_status != _ENTERED, \"ReentrancyGuard: reentrant call\") */\n      tag_96\n      jumpi\n      mload(0x40)\n      shl(0xe5, 0x461bcd)\n      dup2\n      mstore\n      0x04\n      add\n      tag_97\n      swap1\n      tag_98\n      jump\t// in\n    tag_97:\n      mload(0x40)\n      dup1\n      swap2\n      sub\n      swap1\n      revert\n    tag_96:\n        /* \"@openzeppelin/contracts/security/ReentrancyGuard.sol\":1744:1745  2 */\n      0x02\n        /* \"@openzeppelin/contracts/security/ReentrancyGuard.sol\":2455:2462  _status */\n      0x00\n        /* \"@openzeppelin/contracts/security/ReentrancyGuard.sol\":2455:2473  _status = _ENTERED */\n      swap1\n      dup2\n      sstore\n      sub(shl(0xa0, 0x01), 0x01)\n        /* \"contracts/Market.sol\":2253:2263  bal[_addr] */\n      dup4\n      dup2\n      and\n      dup3\n      mstore\n        /* \"contracts/Market.sol\":2253:2256  bal */\n      0x06\n        /* \"contracts/Market.sol\":2253:2263  bal[_addr] */\n      0x20\n      mstore\n      0x40\n      swap2\n      dup3\n      swap1\n      keccak256\n      sload\n        /* \"contracts/Market.sol\":2281:2311  token.balanceOf(address(this)) */\n      swap2\n      mload\n      shl(0xe0, 0x70a08231)\n      dup2\n      mstore\n        /* \"contracts/Market.sol\":2305:2309  this */\n      address\n        /* \"contracts/Market.sol\":2281:2311  token.balanceOf(address(this)) */\n      0x04\n      dup3\n      add\n        /* \"#utility.yul\":2645:2696   */\n      mstore\n        /* \"contracts/Market.sol\":2253:2263  bal[_addr] */\n      dup3\n      swap2\n        /* \"contracts/Market.sol\":2281:2286  token */\n      immutable(\"0x26fde711c36747908dcce028baf2d3e8303b2122f2368e04f010a3f01eaa4df4\")\n        /* \"contracts/Market.sol\":2281:2296  token.balanceOf */\n      and\n      swap1\n      0x70a08231\n      swap1\n        /* \"#utility.yul\":2618:2636   */\n      0x24\n      add\n        /* \"contracts/Market.sol\":2281:2311  token.balanceOf(address(this)) */\n      0x20\n      mload(0x40)\n      dup1\n      dup4\n      sub\n      dup2\n      dup7\n      gas\n      staticcall\n      iszero\n      dup1\n      iszero\n      tag_102\n      jumpi\n      returndatasize\n      0x00\n      dup1\n      returndatacopy\n      revert(0x00, returndatasize)\n    tag_102:\n      pop\n      pop\n      pop\n      pop\n      mload(0x40)\n      returndatasize\n      not(0x1f)\n      0x1f\n      dup3\n      add\n      and\n      dup3\n      add\n      dup1\n      0x40\n      mstore\n      pop\n      dup2\n      add\n      swap1\n      tag_103\n      swap2\n      swap1\n      tag_104\n      jump\t// in\n    tag_103:\n        /* \"contracts/Market.sol\":2281:2325  token.balanceOf(address(this)) > availAmount */\n      gt\n        /* \"contracts/Market.sol\":2281:2344  token.balanceOf(address(this)) > availAmount && availAmount > 0 */\n      dup1\n      iszero\n      tag_105\n      jumpi\n      pop\n        /* \"contracts/Market.sol\":2343:2344  0 */\n      0x00\n        /* \"contracts/Market.sol\":2329:2340  availAmount */\n      dup2\n        /* \"contracts/Market.sol\":2329:2344  availAmount > 0 */\n      gt\n        /* \"contracts/Market.sol\":2281:2344  token.balanceOf(address(this)) > availAmount && availAmount > 0 */\n    tag_105:\n        /* \"contracts/Market.sol\":2273:2355  require(token.balanceOf(address(this)) > availAmount && availAmount > 0, \"< fund\") */\n      tag_106\n      jumpi\n      mload(0x40)\n      shl(0xe5, 0x461bcd)\n      dup2\n      mstore\n        /* \"#utility.yul\":5516:5518   */\n      0x20\n        /* \"contracts/Market.sol\":2273:2355  require(token.balanceOf(address(this)) > availAmount && availAmount > 0, \"< fund\") */\n      0x04\n      dup3\n      add\n        /* \"#utility.yul\":5498:5519   */\n      mstore\n        /* \"#utility.yul\":5555:5556   */\n      0x06\n        /* \"#utility.yul\":5535:5553   */\n      0x24\n      dup3\n      add\n        /* \"#utility.yul\":5528:5557   */\n      mstore\n      shl(0xd2, 0x0f08199d5b99)\n        /* \"#utility.yul\":5573:5591   */\n      0x44\n      dup3\n      add\n        /* \"#utility.yul\":5566:5602   */\n      mstore\n        /* \"#utility.yul\":5619:5637   */\n      0x64\n      add\n        /* \"contracts/Market.sol\":2273:2355  require(token.balanceOf(address(this)) > availAmount && availAmount > 0, \"< fund\") */\n      tag_97\n        /* \"#utility.yul\":5314:5643   */\n      jump\n        /* \"contracts/Market.sol\":2273:2355  require(token.balanceOf(address(this)) > availAmount && availAmount > 0, \"< fund\") */\n    tag_106:\n        /* \"contracts/Market.sol\":2380:2414  token.transfer(_addr, availAmount) */\n      mload(0x40)\n      shl(0xe0, 0xa9059cbb)\n      dup2\n      mstore\n      sub(shl(0xa0, 0x01), 0x01)\n        /* \"#utility.yul\":5840:5872   */\n      dup5\n      dup2\n      and\n        /* \"contracts/Market.sol\":2380:2414  token.transfer(_addr, availAmount) */\n      0x04\n      dup4\n      add\n        /* \"#utility.yul\":5822:5873   */\n      mstore\n        /* \"#utility.yul\":5889:5907   */\n      0x24\n      dup3\n      add\n        /* \"#utility.yul\":5882:5916   */\n      dup4\n      swap1\n      mstore\n        /* \"contracts/Market.sol\":2365:2377  bool success */\n      0x00\n      swap2\n        /* \"contracts/Market.sol\":2380:2385  token */\n      immutable(\"0x26fde711c36747908dcce028baf2d3e8303b2122f2368e04f010a3f01eaa4df4\")\n        /* \"contracts/Market.sol\":2380:2394  token.transfer */\n      swap1\n      swap2\n      and\n      swap1\n      0xa9059cbb\n      swap1\n        /* \"#utility.yul\":5795:5813   */\n      0x44\n      add\n        /* \"contracts/Market.sol\":2380:2414  token.transfer(_addr, availAmount) */\n      0x20\n      mload(0x40)\n      dup1\n      dup4\n      sub\n      dup2\n      0x00\n      dup8\n      gas\n      call\n      iszero\n      dup1\n      iszero\n      tag_112\n      jumpi\n      returndatasize\n      0x00\n      dup1\n      returndatacopy\n      revert(0x00, returndatasize)\n    tag_112:\n      pop\n      pop\n      pop\n      pop\n      mload(0x40)\n      returndatasize\n      not(0x1f)\n      0x1f\n      dup3\n      add\n      and\n      dup3\n      add\n      dup1\n      0x40\n      mstore\n      pop\n      dup2\n      add\n      swap1\n      tag_113\n      swap2\n      swap1\n      tag_114\n      jump\t// in\n    tag_113:\n        /* \"contracts/Market.sol\":2365:2414  bool success = token.transfer(_addr, availAmount) */\n      swap1\n      pop\n        /* \"contracts/Market.sol\":2432:2439  success */\n      dup1\n        /* \"contracts/Market.sol\":2424:2453  require(success, \"Tx Failed\") */\n      tag_115\n      jumpi\n      mload(0x40)\n      shl(0xe5, 0x461bcd)\n      dup2\n      mstore\n        /* \"#utility.yul\":6379:6381   */\n      0x20\n        /* \"contracts/Market.sol\":2424:2453  require(success, \"Tx Failed\") */\n      0x04\n      dup3\n      add\n        /* \"#utility.yul\":6361:6382   */\n      mstore\n        /* \"#utility.yul\":6418:6419   */\n      0x09\n        /* \"#utility.yul\":6398:6416   */\n      0x24\n      dup3\n      add\n        /* \"#utility.yul\":6391:6420   */\n      mstore\n      shl(0xba, 0x151e0811985a5b1959)\n        /* \"#utility.yul\":6436:6454   */\n      0x44\n      dup3\n      add\n        /* \"#utility.yul\":6429:6468   */\n      mstore\n        /* \"#utility.yul\":6485:6503   */\n      0x64\n      add\n        /* \"contracts/Market.sol\":2424:2453  require(success, \"Tx Failed\") */\n      tag_97\n        /* \"#utility.yul\":6177:6509   */\n      jump\n        /* \"contracts/Market.sol\":2424:2453  require(success, \"Tx Failed\") */\n    tag_115:\n      sub(shl(0xa0, 0x01), 0x01)\n        /* \"contracts/Market.sol\":2463:2473  bal[_addr] */\n      dup5\n      and\n      0x00\n      swap1\n      dup2\n      mstore\n        /* \"contracts/Market.sol\":2463:2466  bal */\n      0x06\n        /* \"contracts/Market.sol\":2463:2473  bal[_addr] */\n      0x20\n      mstore\n      0x40\n      dup2\n      keccak256\n        /* \"contracts/Market.sol\":2463:2488  bal[_addr] -= availAmount */\n      dup1\n      sload\n        /* \"contracts/Market.sol\":2477:2488  availAmount */\n      dup5\n      swap3\n        /* \"contracts/Market.sol\":2463:2473  bal[_addr] */\n      swap1\n        /* \"contracts/Market.sol\":2463:2488  bal[_addr] -= availAmount */\n      tag_118\n      swap1\n        /* \"contracts/Market.sol\":2477:2488  availAmount */\n      dup5\n      swap1\n        /* \"contracts/Market.sol\":2463:2488  bal[_addr] -= availAmount */\n      tag_119\n      jump\t// in\n    tag_118:\n      swap1\n      swap2\n      sstore\n      pop\n        /* \"contracts/Market.sol\":2505:2509  true */\n      0x01\n      swap4\n      pop\n      pop\n      pop\n      pop\n        /* \"@openzeppelin/contracts/security/ReentrancyGuard.sol\":1701:1702  1 */\n      0x01\n        /* \"@openzeppelin/contracts/security/ReentrancyGuard.sol\":2628:2635  _status */\n      0x00\n        /* \"@openzeppelin/contracts/security/ReentrancyGuard.sol\":2628:2650  _status = _NOT_ENTERED */\n      sstore\n        /* \"contracts/Market.sol\":2152:2516  function withdraw(address _addr) external nonReentrant returns(bool) {... */\n      swap2\n      swap1\n      pop\n      jump\t// out\n        /* \"contracts/Market.sol\":4844:5089  function cancelMarket() external override onlyFactory returns(bool) ... */\n    tag_36:\n        /* \"contracts/Market.sol\":1243:1250  factory */\n      sload(0x01)\n        /* \"contracts/Market.sol\":4906:4910  bool */\n      0x00\n      swap1\n      sub(shl(0xa0, 0x01), 0x01)\n        /* \"contracts/Market.sol\":1243:1250  factory */\n      and\n        /* \"contracts/Market.sol\":1229:1239  msg.sender */\n      caller\n        /* \"contracts/Market.sol\":1229:1250  msg.sender == factory */\n      eq\n        /* \"contracts/Market.sol\":1208:1283  require(... */\n      tag_121\n      jumpi\n      mload(0x40)\n      shl(0xe5, 0x461bcd)\n      dup2\n      mstore\n        /* \"#utility.yul\":6849:6851   */\n      0x20\n        /* \"contracts/Market.sol\":1208:1283  require(... */\n      0x04\n      dup3\n      add\n        /* \"#utility.yul\":6831:6852   */\n      mstore\n        /* \"#utility.yul\":6888:6889   */\n      0x07\n        /* \"#utility.yul\":6868:6886   */\n      0x24\n      dup3\n      add\n        /* \"#utility.yul\":6861:6890   */\n      mstore\n      shl(0xc8, 0x6f776e6572206f)\n        /* \"#utility.yul\":6906:6924   */\n      0x44\n      dup3\n      add\n        /* \"#utility.yul\":6899:6936   */\n      mstore\n        /* \"#utility.yul\":6953:6971   */\n      0x64\n      add\n        /* \"contracts/Market.sol\":1208:1283  require(... */\n      tag_97\n        /* \"#utility.yul\":6647:6977   */\n      jump\n        /* \"contracts/Market.sol\":1208:1283  require(... */\n    tag_121:\n        /* \"contracts/Market.sol\":4936:4942  status */\n      and(0xff, sload(0x05))\n        /* \"contracts/Market.sol\":4936:4947  status == 0 */\n      iszero\n        /* \"contracts/Market.sol\":4928:4948  require(status == 0) */\n      tag_125\n      jumpi\n      0x00\n      dup1\n      revert\n    tag_125:\n        /* \"contracts/Market.sol\":4962:4968  uint i */\n      0x00\n        /* \"contracts/Market.sol\":4958:5042  for(uint i = 0; i < pairs.length; i++){... */\n    tag_126:\n        /* \"contracts/Market.sol\":4978:4983  pairs */\n      0x02\n        /* \"contracts/Market.sol\":4978:4990  pairs.length */\n      sload\n        /* \"contracts/Market.sol\":4974:4990  i < pairs.length */\n      dup2\n      lt\n        /* \"contracts/Market.sol\":4958:5042  for(uint i = 0; i < pairs.length; i++){... */\n      iszero\n      tag_127\n      jumpi\n        /* \"contracts/Market.sol\":5010:5031  _cancelPair(pairs[i]) */\n      tag_129\n        /* \"contracts/Market.sol\":5022:5027  pairs */\n      0x02\n        /* \"contracts/Market.sol\":5028:5029  i */\n      dup3\n        /* \"contracts/Market.sol\":5022:5030  pairs[i] */\n      dup2\n      sload\n      dup2\n      lt\n      tag_131\n      jumpi\n      tag_131\n      tag_80\n      jump\t// in\n    tag_131:\n      swap1\n      0x00\n      mstore\n      keccak256(0x00, 0x20)\n      add\n      sload\n        /* \"contracts/Market.sol\":5010:5021  _cancelPair */\n      tag_133\n        /* \"contracts/Market.sol\":5010:5031  _cancelPair(pairs[i]) */\n      jump\t// in\n    tag_129:\n        /* \"contracts/Market.sol\":4992:4995  i++ */\n      dup1\n      tag_134\n      dup2\n      tag_83\n      jump\t// in\n    tag_134:\n      swap2\n      pop\n      pop\n        /* \"contracts/Market.sol\":4958:5042  for(uint i = 0; i < pairs.length; i++){... */\n      jump(tag_126)\n    tag_127:\n      pop\n      pop\n        /* \"contracts/Market.sol\":5051:5057  status */\n      0x05\n        /* \"contracts/Market.sol\":5051:5061  status = 3 */\n      dup1\n      sload\n      not(0xff)\n      and\n        /* \"contracts/Market.sol\":5060:5061  3 */\n      0x03\n        /* \"contracts/Market.sol\":5051:5061  status = 3 */\n      or\n      swap1\n      sstore\n      0x01\n        /* \"contracts/Market.sol\":4844:5089  function cancelMarket() external override onlyFactory returns(bool) ... */\n      swap1\n      jump\t// out\n        /* \"contracts/Market.sol\":3040:4441  function settlePair(bytes32 _pair) public override nonReentrant {... */\n    tag_41:\n        /* \"@openzeppelin/contracts/security/ReentrancyGuard.sol\":1744:1745  2 */\n      0x02\n        /* \"@openzeppelin/contracts/security/ReentrancyGuard.sol\":2325:2332  _status */\n      sload(0x00)\n        /* \"@openzeppelin/contracts/security/ReentrancyGuard.sol\":2325:2344  _status != _ENTERED */\n      sub\n        /* \"@openzeppelin/contracts/security/ReentrancyGuard.sol\":2317:2380  require(_status != _ENTERED, \"ReentrancyGuard: reentrant call\") */\n      tag_136\n      jumpi\n      mload(0x40)\n      shl(0xe5, 0x461bcd)\n      dup2\n      mstore\n      0x04\n      add\n      tag_97\n      swap1\n      tag_98\n      jump\t// in\n    tag_136:\n        /* \"@openzeppelin/contracts/security/ReentrancyGuard.sol\":1744:1745  2 */\n      0x02\n        /* \"@openzeppelin/contracts/security/ReentrancyGuard.sol\":2455:2462  _status */\n      0x00\n        /* \"@openzeppelin/contracts/security/ReentrancyGuard.sol\":2455:2473  _status = _ENTERED */\n      swap1\n      dup2\n      sstore\n        /* \"contracts/Market.sol\":3123:3139  pairsInfo[_pair] */\n      dup2\n      dup2\n      mstore\n        /* \"contracts/Market.sol\":3123:3132  pairsInfo */\n      0x09\n        /* \"contracts/Market.sol\":3123:3139  pairsInfo[_pair] */\n      0x20\n      mstore\n      0x40\n      swap1\n      keccak256\n        /* \"contracts/Market.sol\":3123:3147  pairsInfo[_pair].settled */\n      0x04\n      add\n      sload\n      0xff\n      and\n        /* \"contracts/Market.sol\":3122:3147  !pairsInfo[_pair].settled */\n      iszero\n        /* \"contracts/Market.sol\":3114:3167  require(!pairsInfo[_pair].settled, \"already settled\") */\n      tag_139\n      jumpi\n      mload(0x40)\n      shl(0xe5, 0x461bcd)\n      dup2\n      mstore\n        /* \"#utility.yul\":7184:7186   */\n      0x20\n        /* \"contracts/Market.sol\":3114:3167  require(!pairsInfo[_pair].settled, \"already settled\") */\n      0x04\n      dup3\n      add\n        /* \"#utility.yul\":7166:7187   */\n      mstore\n        /* \"#utility.yul\":7223:7225   */\n      0x0f\n        /* \"#utility.yul\":7203:7221   */\n      0x24\n      dup3\n      add\n        /* \"#utility.yul\":7196:7226   */\n      mstore\n      shl(0x8a, 0x185b1c9958591e481cd95d1d1b1959)\n        /* \"#utility.yul\":7242:7260   */\n      0x44\n      dup3\n      add\n        /* \"#utility.yul\":7235:7280   */\n      mstore\n        /* \"#utility.yul\":7297:7315   */\n      0x64\n      add\n        /* \"contracts/Market.sol\":3114:3167  require(!pairsInfo[_pair].settled, \"already settled\") */\n      tag_97\n        /* \"#utility.yul\":6982:7321   */\n      jump\n        /* \"contracts/Market.sol\":3114:3167  require(!pairsInfo[_pair].settled, \"already settled\") */\n    tag_139:\n        /* \"contracts/Market.sol\":3185:3191  status */\n      and(0xff, sload(0x05))\n      0x01\n        /* \"contracts/Market.sol\":3185:3196  status == 1 */\n      eq\n      dup1\n        /* \"contracts/Market.sol\":3185:3211  status == 1 || status == 2 */\n      tag_142\n      jumpi\n      pop\n        /* \"contracts/Market.sol\":3200:3206  status */\n      and(0xff, sload(0x05))\n        /* \"contracts/Market.sol\":3210:3211  2 */\n      0x02\n        /* \"contracts/Market.sol\":3200:3211  status == 2 */\n      eq\n        /* \"contracts/Market.sol\":3185:3211  status == 1 || status == 2 */\n    tag_142:\n        /* \"contracts/Market.sol\":3177:3227  require(status == 1 || status == 2, \"win not set\") */\n      tag_143\n      jumpi\n      mload(0x40)\n      shl(0xe5, 0x461bcd)\n      dup2\n      mstore\n        /* \"#utility.yul\":7528:7530   */\n      0x20\n        /* \"contracts/Market.sol\":3177:3227  require(status == 1 || status == 2, \"win not set\") */\n      0x04\n      dup3\n      add\n        /* \"#utility.yul\":7510:7531   */\n      mstore\n        /* \"#utility.yul\":7567:7569   */\n      0x0b\n        /* \"#utility.yul\":7547:7565   */\n      0x24\n      dup3\n      add\n        /* \"#utility.yul\":7540:7570   */\n      mstore\n      shl(0xaa, 0x1dda5b881b9bdd081cd95d)\n        /* \"#utility.yul\":7586:7604   */\n      0x44\n      dup3\n      add\n        /* \"#utility.yul\":7579:7620   */\n      mstore\n        /* \"#utility.yul\":7637:7655   */\n      0x64\n      add\n        /* \"contracts/Market.sol\":3177:3227  require(status == 1 || status == 2, \"win not set\") */\n      tag_97\n        /* \"#utility.yul\":7326:7661   */\n      jump\n        /* \"contracts/Market.sol\":3177:3227  require(status == 1 || status == 2, \"win not set\") */\n    tag_143:\n        /* \"contracts/Market.sol\":3345:3351  status */\n      sload(0x05)\n        /* \"contracts/Market.sol\":3237:3251  address winner */\n      0x00\n      swap1\n      dup2\n      swap1\n      dup2\n      swap1\n      dup2\n      swap1\n        /* \"contracts/Market.sol\":3345:3351  status */\n      0xff\n      and\n      0x01\n        /* \"contracts/Market.sol\":3345:3356  status == 1 */\n      sub\n        /* \"contracts/Market.sol\":3342:4079  if(status == 1){... */\n      tag_146\n      jumpi\n        /* \"contracts/Market.sol\":3380:3415  betsInfo[pairsInfo[_pair].betHashA] */\n      0x00\n        /* \"contracts/Market.sol\":3389:3405  pairsInfo[_pair] */\n      dup6\n      dup2\n      mstore\n        /* \"contracts/Market.sol\":3389:3398  pairsInfo */\n      0x09\n        /* \"contracts/Market.sol\":3389:3405  pairsInfo[_pair] */\n      0x20\n      swap1\n      dup2\n      mstore\n      0x40\n      dup1\n      dup4\n      keccak256\n        /* \"contracts/Market.sol\":3389:3414  pairsInfo[_pair].betHashA */\n      sload\n        /* \"contracts/Market.sol\":3380:3415  betsInfo[pairsInfo[_pair].betHashA] */\n      dup4\n      mstore\n        /* \"contracts/Market.sol\":3380:3388  betsInfo */\n      0x07\n        /* \"contracts/Market.sol\":3380:3415  betsInfo[pairsInfo[_pair].betHashA] */\n      dup3\n      mstore\n      swap2\n      dup3\n      swap1\n      keccak256\n        /* \"contracts/Market.sol\":3380:3422  betsInfo[pairsInfo[_pair].betHashA].better */\n      sload\n        /* \"contracts/Market.sol\":3510:3519  app.vig() */\n      dup3\n      mload\n      shl(0xe0, 0x55c4a8bf)\n      dup2\n      mstore\n      swap3\n      mload\n      sub(shl(0xa0, 0x01), 0x01)\n        /* \"contracts/Market.sol\":3380:3422  betsInfo[pairsInfo[_pair].betHashA].better */\n      swap2\n      dup3\n      and\n      swap8\n      pop\n        /* \"contracts/Market.sol\":3523:3526  100 */\n      0x64\n      swap4\n        /* \"contracts/Market.sol\":3510:3513  app */\n      immutable(\"0xb7700257a9e4b89511ea592d7ef488a6959d733cec4df010484e5af3e427a407\")\n        /* \"contracts/Market.sol\":3510:3517  app.vig */\n      swap1\n      swap3\n      and\n      swap3\n      0x55c4a8bf\n      swap3\n        /* \"contracts/Market.sol\":3510:3519  app.vig() */\n      0x04\n      dup1\n      dup3\n      add\n      swap4\n      swap2\n      dup3\n      swap1\n      sub\n      add\n      dup2\n        /* \"contracts/Market.sol\":3510:3517  app.vig */\n      dup7\n        /* \"contracts/Market.sol\":3510:3519  app.vig() */\n      gas\n      staticcall\n      iszero\n      dup1\n      iszero\n      tag_148\n      jumpi\n      returndatasize\n      0x00\n      dup1\n      returndatacopy\n      revert(0x00, returndatasize)\n    tag_148:\n      pop\n      pop\n      pop\n      pop\n      mload(0x40)\n      returndatasize\n      not(0x1f)\n      0x1f\n      dup3\n      add\n      and\n      dup3\n      add\n      dup1\n      0x40\n      mstore\n      pop\n      dup2\n      add\n      swap1\n      tag_149\n      swap2\n      swap1\n      tag_104\n      jump\t// in\n    tag_149:\n        /* \"contracts/Market.sol\":3504:3519  100 - app.vig() */\n      tag_150\n      swap1\n        /* \"contracts/Market.sol\":3504:3507  100 */\n      0x64\n        /* \"contracts/Market.sol\":3504:3519  100 - app.vig() */\n      tag_119\n      jump\t// in\n    tag_150:\n        /* \"contracts/Market.sol\":3476:3492  pairsInfo[_pair] */\n      0x00\n      dup8\n      dup2\n      mstore\n        /* \"contracts/Market.sol\":3476:3485  pairsInfo */\n      0x09\n        /* \"contracts/Market.sol\":3476:3492  pairsInfo[_pair] */\n      0x20\n      mstore\n      0x40\n      swap1\n      keccak256\n        /* \"contracts/Market.sol\":3476:3500  pairsInfo[_pair].amountB */\n      0x03\n      add\n      sload\n        /* \"contracts/Market.sol\":3476:3520  pairsInfo[_pair].amountB * (100 - app.vig()) */\n      tag_151\n      swap2\n      swap1\n      tag_152\n      jump\t// in\n    tag_151:\n        /* \"contracts/Market.sol\":3476:3526  pairsInfo[_pair].amountB * (100 - app.vig()) / 100 */\n      tag_153\n      swap2\n      swap1\n      tag_154\n      jump\t// in\n    tag_153:\n        /* \"contracts/Market.sol\":3448:3464  pairsInfo[_pair] */\n      0x00\n      dup7\n      dup2\n      mstore\n        /* \"contracts/Market.sol\":3448:3457  pairsInfo */\n      0x09\n        /* \"contracts/Market.sol\":3448:3464  pairsInfo[_pair] */\n      0x20\n      mstore\n      0x40\n      swap1\n      keccak256\n        /* \"contracts/Market.sol\":3448:3472  pairsInfo[_pair].amountA */\n      0x02\n      add\n      sload\n        /* \"contracts/Market.sol\":3448:3527  pairsInfo[_pair].amountA + (pairsInfo[_pair].amountB * (100 - app.vig()) / 100) */\n      tag_155\n      swap2\n      swap1\n      tag_156\n      jump\t// in\n    tag_155:\n        /* \"contracts/Market.sol\":3436:3527  winAmount = pairsInfo[_pair].amountA + (pairsInfo[_pair].amountB * (100 - app.vig()) / 100) */\n      swap2\n      pop\n        /* \"contracts/Market.sol\":3592:3595  100 */\n      0x64\n        /* \"contracts/Market.sol\":3580:3583  app */\n      immutable(\"0xb7700257a9e4b89511ea592d7ef488a6959d733cec4df010484e5af3e427a407\")\n      sub(shl(0xa0, 0x01), 0x01)\n        /* \"contracts/Market.sol\":3580:3587  app.vig */\n      and\n      0x55c4a8bf\n        /* \"contracts/Market.sol\":3580:3589  app.vig() */\n      mload(0x40)\n      dup2\n      0xffffffff\n      and\n      0xe0\n      shl\n      dup2\n      mstore\n      0x04\n      add\n      0x20\n      mload(0x40)\n      dup1\n      dup4\n      sub\n      dup2\n      dup7\n      gas\n      staticcall\n      iszero\n      dup1\n      iszero\n      tag_158\n      jumpi\n      returndatasize\n      0x00\n      dup1\n      returndatacopy\n      revert(0x00, returndatasize)\n    tag_158:\n      pop\n      pop\n      pop\n      pop\n      mload(0x40)\n      returndatasize\n      not(0x1f)\n      0x1f\n      dup3\n      add\n      and\n      dup3\n      add\n      dup1\n      0x40\n      mstore\n      pop\n      dup2\n      add\n      swap1\n      tag_159\n      swap2\n      swap1\n      tag_104\n      jump\t// in\n    tag_159:\n        /* \"contracts/Market.sol\":3553:3569  pairsInfo[_pair] */\n      0x00\n      dup8\n      dup2\n      mstore\n        /* \"contracts/Market.sol\":3553:3562  pairsInfo */\n      0x09\n        /* \"contracts/Market.sol\":3553:3569  pairsInfo[_pair] */\n      0x20\n      mstore\n      0x40\n      swap1\n      keccak256\n        /* \"contracts/Market.sol\":3553:3577  pairsInfo[_pair].amountB */\n      0x03\n      add\n      sload\n        /* \"contracts/Market.sol\":3553:3589  pairsInfo[_pair].amountB * app.vig() */\n      tag_160\n      swap2\n      swap1\n      tag_152\n      jump\t// in\n    tag_160:\n        /* \"contracts/Market.sol\":3553:3595  pairsInfo[_pair].amountB * app.vig() / 100 */\n      tag_161\n      swap2\n      swap1\n      tag_154\n      jump\t// in\n    tag_161:\n        /* \"contracts/Market.sol\":3621:3656  betsInfo[pairsInfo[_pair].betHashA] */\n      0x00\n        /* \"contracts/Market.sol\":3630:3646  pairsInfo[_pair] */\n      dup7\n      dup2\n      mstore\n        /* \"contracts/Market.sol\":3630:3639  pairsInfo */\n      0x09\n        /* \"contracts/Market.sol\":3630:3646  pairsInfo[_pair] */\n      0x20\n      swap1\n      dup2\n      mstore\n      0x40\n      dup1\n      dup4\n      keccak256\n        /* \"contracts/Market.sol\":3630:3655  pairsInfo[_pair].betHashA */\n      sload\n        /* \"contracts/Market.sol\":3621:3656  betsInfo[pairsInfo[_pair].betHashA] */\n      dup4\n      mstore\n        /* \"contracts/Market.sol\":3621:3629  betsInfo */\n      0x07\n        /* \"contracts/Market.sol\":3621:3656  betsInfo[pairsInfo[_pair].betHashA] */\n      swap1\n      swap2\n      mstore\n      swap1\n      keccak256\n        /* \"contracts/Market.sol\":3621:3666  betsInfo[pairsInfo[_pair].betHashA].affiliate */\n      0x01\n      add\n      sload\n      sub(shl(0xa0, 0x01), 0x01)\n      and\n      swap4\n      pop\n        /* \"contracts/Market.sol\":3541:3595  vigAmount = pairsInfo[_pair].amountB * app.vig() / 100 */\n      swap1\n      pop\n        /* \"contracts/Market.sol\":3342:4079  if(status == 1){... */\n      jump(tag_176)\n    tag_146:\n        /* \"contracts/Market.sol\":3694:3700  status */\n      and(0xff, sload(0x05))\n        /* \"contracts/Market.sol\":3704:3705  2 */\n      0x02\n        /* \"contracts/Market.sol\":3694:3705  status == 2 */\n      sub\n        /* \"contracts/Market.sol\":3691:4079  if(status == 2){... */\n      tag_163\n      jumpi\n        /* \"contracts/Market.sol\":3729:3764  betsInfo[pairsInfo[_pair].betHashB] */\n      0x00\n        /* \"contracts/Market.sol\":3738:3754  pairsInfo[_pair] */\n      dup6\n      dup2\n      mstore\n        /* \"contracts/Market.sol\":3738:3747  pairsInfo */\n      0x09\n        /* \"contracts/Market.sol\":3738:3754  pairsInfo[_pair] */\n      0x20\n      swap1\n      dup2\n      mstore\n      0x40\n      dup1\n      dup4\n      keccak256\n        /* \"contracts/Market.sol\":3738:3763  pairsInfo[_pair].betHashB */\n      0x01\n      add\n      sload\n        /* \"contracts/Market.sol\":3729:3764  betsInfo[pairsInfo[_pair].betHashB] */\n      dup4\n      mstore\n        /* \"contracts/Market.sol\":3729:3737  betsInfo */\n      0x07\n        /* \"contracts/Market.sol\":3729:3764  betsInfo[pairsInfo[_pair].betHashB] */\n      dup3\n      mstore\n      swap2\n      dup3\n      swap1\n      keccak256\n        /* \"contracts/Market.sol\":3729:3771  betsInfo[pairsInfo[_pair].betHashB].better */\n      sload\n        /* \"contracts/Market.sol\":3859:3868  app.vig() */\n      dup3\n      mload\n      shl(0xe0, 0x55c4a8bf)\n      dup2\n      mstore\n      swap3\n      mload\n      sub(shl(0xa0, 0x01), 0x01)\n        /* \"contracts/Market.sol\":3729:3771  betsInfo[pairsInfo[_pair].betHashB].better */\n      swap2\n      dup3\n      and\n      swap8\n      pop\n        /* \"contracts/Market.sol\":3872:3875  100 */\n      0x64\n      swap4\n        /* \"contracts/Market.sol\":3859:3862  app */\n      immutable(\"0xb7700257a9e4b89511ea592d7ef488a6959d733cec4df010484e5af3e427a407\")\n        /* \"contracts/Market.sol\":3859:3866  app.vig */\n      swap1\n      swap3\n      and\n      swap3\n      0x55c4a8bf\n      swap3\n        /* \"contracts/Market.sol\":3859:3868  app.vig() */\n      0x04\n      dup1\n      dup3\n      add\n      swap4\n      swap2\n      dup3\n      swap1\n      sub\n      add\n      dup2\n        /* \"contracts/Market.sol\":3859:3866  app.vig */\n      dup7\n        /* \"contracts/Market.sol\":3859:3868  app.vig() */\n      gas\n      staticcall\n      iszero\n      dup1\n      iszero\n      tag_165\n      jumpi\n      returndatasize\n      0x00\n      dup1\n      returndatacopy\n      revert(0x00, returndatasize)\n    tag_165:\n      pop\n      pop\n      pop\n      pop\n      mload(0x40)\n      returndatasize\n      not(0x1f)\n      0x1f\n      dup3\n      add\n      and\n      dup3\n      add\n      dup1\n      0x40\n      mstore\n      pop\n      dup2\n      add\n      swap1\n      tag_166\n      swap2\n      swap1\n      tag_104\n      jump\t// in\n    tag_166:\n        /* \"contracts/Market.sol\":3853:3868  100 - app.vig() */\n      tag_167\n      swap1\n        /* \"contracts/Market.sol\":3853:3856  100 */\n      0x64\n        /* \"contracts/Market.sol\":3853:3868  100 - app.vig() */\n      tag_119\n      jump\t// in\n    tag_167:\n        /* \"contracts/Market.sol\":3825:3841  pairsInfo[_pair] */\n      0x00\n      dup8\n      dup2\n      mstore\n        /* \"contracts/Market.sol\":3825:3834  pairsInfo */\n      0x09\n        /* \"contracts/Market.sol\":3825:3841  pairsInfo[_pair] */\n      0x20\n      mstore\n      0x40\n      swap1\n      keccak256\n        /* \"contracts/Market.sol\":3825:3849  pairsInfo[_pair].amountA */\n      0x02\n      add\n      sload\n        /* \"contracts/Market.sol\":3825:3869  pairsInfo[_pair].amountA * (100 - app.vig()) */\n      tag_168\n      swap2\n      swap1\n      tag_152\n      jump\t// in\n    tag_168:\n        /* \"contracts/Market.sol\":3825:3875  pairsInfo[_pair].amountA * (100 - app.vig()) / 100 */\n      tag_169\n      swap2\n      swap1\n      tag_154\n      jump\t// in\n    tag_169:\n        /* \"contracts/Market.sol\":3797:3813  pairsInfo[_pair] */\n      0x00\n      dup7\n      dup2\n      mstore\n        /* \"contracts/Market.sol\":3797:3806  pairsInfo */\n      0x09\n        /* \"contracts/Market.sol\":3797:3813  pairsInfo[_pair] */\n      0x20\n      mstore\n      0x40\n      swap1\n      keccak256\n        /* \"contracts/Market.sol\":3797:3821  pairsInfo[_pair].amountB */\n      0x03\n      add\n      sload\n        /* \"contracts/Market.sol\":3797:3876  pairsInfo[_pair].amountB + (pairsInfo[_pair].amountA * (100 - app.vig()) / 100) */\n      tag_170\n      swap2\n      swap1\n      tag_156\n      jump\t// in\n    tag_170:\n        /* \"contracts/Market.sol\":3785:3876  winAmount = pairsInfo[_pair].amountB + (pairsInfo[_pair].amountA * (100 - app.vig()) / 100) */\n      swap2\n      pop\n        /* \"contracts/Market.sol\":3941:3944  100 */\n      0x64\n        /* \"contracts/Market.sol\":3929:3932  app */\n      immutable(\"0xb7700257a9e4b89511ea592d7ef488a6959d733cec4df010484e5af3e427a407\")\n      sub(shl(0xa0, 0x01), 0x01)\n        /* \"contracts/Market.sol\":3929:3936  app.vig */\n      and\n      0x55c4a8bf\n        /* \"contracts/Market.sol\":3929:3938  app.vig() */\n      mload(0x40)\n      dup2\n      0xffffffff\n      and\n      0xe0\n      shl\n      dup2\n      mstore\n      0x04\n      add\n      0x20\n      mload(0x40)\n      dup1\n      dup4\n      sub\n      dup2\n      dup7\n      gas\n      staticcall\n      iszero\n      dup1\n      iszero\n      tag_172\n      jumpi\n      returndatasize\n      0x00\n      dup1\n      returndatacopy\n      revert(0x00, returndatasize)\n    tag_172:\n      pop\n      pop\n      pop\n      pop\n      mload(0x40)\n      returndatasize\n      not(0x1f)\n      0x1f\n      dup3\n      add\n      and\n      dup3\n      add\n      dup1\n      0x40\n      mstore\n      pop\n      dup2\n      add\n      swap1\n      tag_173\n      swap2\n      swap1\n      tag_104\n      jump\t// in\n    tag_173:\n        /* \"contracts/Market.sol\":3902:3918  pairsInfo[_pair] */\n      0x00\n      dup8\n      dup2\n      mstore\n        /* \"contracts/Market.sol\":3902:3911  pairsInfo */\n      0x09\n        /* \"contracts/Market.sol\":3902:3918  pairsInfo[_pair] */\n      0x20\n      mstore\n      0x40\n      swap1\n      keccak256\n        /* \"contracts/Market.sol\":3902:3926  pairsInfo[_pair].amountA */\n      0x02\n      add\n      sload\n        /* \"contracts/Market.sol\":3902:3938  pairsInfo[_pair].amountA * app.vig() */\n      tag_174\n      swap2\n      swap1\n      tag_152\n      jump\t// in\n    tag_174:\n        /* \"contracts/Market.sol\":3902:3944  pairsInfo[_pair].amountA * app.vig() / 100 */\n      tag_175\n      swap2\n      swap1\n      tag_154\n      jump\t// in\n    tag_175:\n        /* \"contracts/Market.sol\":3970:4005  betsInfo[pairsInfo[_pair].betHashB] */\n      0x00\n        /* \"contracts/Market.sol\":3979:3995  pairsInfo[_pair] */\n      dup7\n      dup2\n      mstore\n        /* \"contracts/Market.sol\":3979:3988  pairsInfo */\n      0x09\n        /* \"contracts/Market.sol\":3979:3995  pairsInfo[_pair] */\n      0x20\n      swap1\n      dup2\n      mstore\n      0x40\n      dup1\n      dup4\n      keccak256\n        /* \"contracts/Market.sol\":3979:4004  pairsInfo[_pair].betHashB */\n      0x01\n      swap1\n      dup2\n      add\n      sload\n        /* \"contracts/Market.sol\":3970:4005  betsInfo[pairsInfo[_pair].betHashB] */\n      dup5\n      mstore\n        /* \"contracts/Market.sol\":3970:3978  betsInfo */\n      0x07\n        /* \"contracts/Market.sol\":3970:4005  betsInfo[pairsInfo[_pair].betHashB] */\n      swap1\n      swap3\n      mstore\n      swap1\n      swap2\n      keccak256\n        /* \"contracts/Market.sol\":3970:4015  betsInfo[pairsInfo[_pair].betHashB].affiliate */\n      add\n      sload\n      sub(shl(0xa0, 0x01), 0x01)\n      and\n      swap4\n      pop\n        /* \"contracts/Market.sol\":3890:3944  vigAmount = pairsInfo[_pair].amountA * app.vig() / 100 */\n      swap1\n      pop\n        /* \"contracts/Market.sol\":3691:4079  if(status == 2){... */\n      jump(tag_176)\n    tag_163:\n        /* \"contracts/Market.sol\":4053:4068  revert(\"x win\") */\n      mload(0x40)\n      shl(0xe5, 0x461bcd)\n      dup2\n      mstore\n        /* \"#utility.yul\":8393:8395   */\n      0x20\n        /* \"contracts/Market.sol\":4053:4068  revert(\"x win\") */\n      0x04\n      dup3\n      add\n        /* \"#utility.yul\":8375:8396   */\n      mstore\n        /* \"#utility.yul\":8432:8433   */\n      0x05\n        /* \"#utility.yul\":8412:8430   */\n      0x24\n      dup3\n      add\n        /* \"#utility.yul\":8405:8434   */\n      mstore\n      shl(0xd9, 0x3c103bb4b7)\n        /* \"#utility.yul\":8450:8468   */\n      0x44\n      dup3\n      add\n        /* \"#utility.yul\":8443:8478   */\n      mstore\n        /* \"#utility.yul\":8495:8513   */\n      0x64\n      add\n        /* \"contracts/Market.sol\":4053:4068  revert(\"x win\") */\n      tag_97\n        /* \"#utility.yul\":8191:8519   */\n      jump\n        /* \"contracts/Market.sol\":3691:4079  if(status == 2){... */\n    tag_176:\n      sub(shl(0xa0, 0x01), 0x01)\n        /* \"contracts/Market.sol\":4091:4116  affiliate == address(0x0) */\n      dup4\n      and\n        /* \"contracts/Market.sol\":4088:4167  if(affiliate == address(0x0)){... */\n      tag_179\n      jumpi\n        /* \"contracts/Market.sol\":4143:4146  app */\n      immutable(\"0xb7700257a9e4b89511ea592d7ef488a6959d733cec4df010484e5af3e427a407\")\n      sub(shl(0xa0, 0x01), 0x01)\n        /* \"contracts/Market.sol\":4143:4154  app.ecoAddr */\n      and\n      0x09953b2f\n        /* \"contracts/Market.sol\":4143:4156  app.ecoAddr() */\n      mload(0x40)\n      dup2\n      0xffffffff\n      and\n      0xe0\n      shl\n      dup2\n      mstore\n      0x04\n      add\n      0x20\n      mload(0x40)\n      dup1\n      dup4\n      sub\n      dup2\n      dup7\n      gas\n      staticcall\n      iszero\n      dup1\n      iszero\n      tag_181\n      jumpi\n      returndatasize\n      0x00\n      dup1\n      returndatacopy\n      revert(0x00, returndatasize)\n    tag_181:\n      pop\n      pop\n      pop\n      pop\n      mload(0x40)\n      returndatasize\n      not(0x1f)\n      0x1f\n      dup3\n      add\n      and\n      dup3\n      add\n      dup1\n      0x40\n      mstore\n      pop\n      dup2\n      add\n      swap1\n      tag_182\n      swap2\n      swap1\n      tag_183\n      jump\t// in\n    tag_182:\n        /* \"contracts/Market.sol\":4131:4156  affiliate = app.ecoAddr() */\n      swap3\n      pop\n        /* \"contracts/Market.sol\":4088:4167  if(affiliate == address(0x0)){... */\n    tag_179:\n      sub(shl(0xa0, 0x01), 0x01)\n        /* \"contracts/Market.sol\":4176:4187  bal[winner] */\n      dup5\n      and\n      0x00\n      swap1\n      dup2\n      mstore\n        /* \"contracts/Market.sol\":4176:4179  bal */\n      0x06\n        /* \"contracts/Market.sol\":4176:4187  bal[winner] */\n      0x20\n      mstore\n      0x40\n      dup2\n      keccak256\n        /* \"contracts/Market.sol\":4176:4200  bal[winner] += winAmount */\n      dup1\n      sload\n        /* \"contracts/Market.sol\":4191:4200  winAmount */\n      dup5\n      swap3\n        /* \"contracts/Market.sol\":4176:4187  bal[winner] */\n      swap1\n        /* \"contracts/Market.sol\":4176:4200  bal[winner] += winAmount */\n      tag_184\n      swap1\n        /* \"contracts/Market.sol\":4191:4200  winAmount */\n      dup5\n      swap1\n        /* \"contracts/Market.sol\":4176:4200  bal[winner] += winAmount */\n      tag_156\n      jump\t// in\n    tag_184:\n      swap3\n      pop\n      pop\n      dup2\n      swap1\n      sstore\n      pop\n        /* \"contracts/Market.sol\":4258:4261  100 */\n      0x64\n        /* \"contracts/Market.sol\":4245:4248  app */\n      immutable(\"0xb7700257a9e4b89511ea592d7ef488a6959d733cec4df010484e5af3e427a407\")\n      sub(shl(0xa0, 0x01), 0x01)\n        /* \"contracts/Market.sol\":4245:4253  app.hVig */\n      and\n      0x6a0ccd9d\n        /* \"contracts/Market.sol\":4245:4255  app.hVig() */\n      mload(0x40)\n      dup2\n      0xffffffff\n      and\n      0xe0\n      shl\n      dup2\n      mstore\n      0x04\n      add\n      0x20\n      mload(0x40)\n      dup1\n      dup4\n      sub\n      dup2\n      dup7\n      gas\n      staticcall\n      iszero\n      dup1\n      iszero\n      tag_186\n      jumpi\n      returndatasize\n      0x00\n      dup1\n      returndatacopy\n      revert(0x00, returndatasize)\n    tag_186:\n      pop\n      pop\n      pop\n      pop\n      mload(0x40)\n      returndatasize\n      not(0x1f)\n      0x1f\n      dup3\n      add\n      and\n      dup3\n      add\n      dup1\n      0x40\n      mstore\n      pop\n      dup2\n      add\n      swap1\n      tag_187\n      swap2\n      swap1\n      tag_104\n      jump\t// in\n    tag_187:\n        /* \"contracts/Market.sol\":4233:4255  vigAmount * app.hVig() */\n      tag_188\n      swap1\n        /* \"contracts/Market.sol\":4233:4242  vigAmount */\n      dup4\n        /* \"contracts/Market.sol\":4233:4255  vigAmount * app.hVig() */\n      tag_152\n      jump\t// in\n    tag_188:\n        /* \"contracts/Market.sol\":4233:4261  vigAmount * app.hVig() / 100 */\n      tag_189\n      swap2\n      swap1\n      tag_154\n      jump\t// in\n    tag_189:\n        /* \"contracts/Market.sol\":4210:4213  bal */\n      0x06\n        /* \"contracts/Market.sol\":4210:4229  bal[app.holdAddr()] */\n      0x00\n        /* \"contracts/Market.sol\":4214:4217  app */\n      immutable(\"0xb7700257a9e4b89511ea592d7ef488a6959d733cec4df010484e5af3e427a407\")\n      sub(shl(0xa0, 0x01), 0x01)\n        /* \"contracts/Market.sol\":4214:4226  app.holdAddr */\n      and\n      0xb7640a54\n        /* \"contracts/Market.sol\":4214:4228  app.holdAddr() */\n      mload(0x40)\n      dup2\n      0xffffffff\n      and\n      0xe0\n      shl\n      dup2\n      mstore\n      0x04\n      add\n      0x20\n      mload(0x40)\n      dup1\n      dup4\n      sub\n      dup2\n      dup7\n      gas\n      staticcall\n      iszero\n      dup1\n      iszero\n      tag_191\n      jumpi\n      returndatasize\n      0x00\n      dup1\n      returndatacopy\n      revert(0x00, returndatasize)\n    tag_191:\n      pop\n      pop\n      pop\n      pop\n      mload(0x40)\n      returndatasize\n      not(0x1f)\n      0x1f\n      dup3\n      add\n      and\n      dup3\n      add\n      dup1\n      0x40\n      mstore\n      pop\n      dup2\n      add\n      swap1\n      tag_192\n      swap2\n      swap1\n      tag_183\n      jump\t// in\n    tag_192:\n      sub(shl(0xa0, 0x01), 0x01)\n        /* \"contracts/Market.sol\":4210:4229  bal[app.holdAddr()] */\n      and\n      sub(shl(0xa0, 0x01), 0x01)\n      and\n      dup2\n      mstore\n      0x20\n      add\n      swap1\n      dup2\n      mstore\n      0x20\n      add\n      0x00\n      keccak256\n      0x00\n        /* \"contracts/Market.sol\":4210:4261  bal[app.holdAddr()] += vigAmount * app.hVig() / 100 */\n      dup3\n      dup3\n      sload\n      tag_193\n      swap2\n      swap1\n      tag_156\n      jump\t// in\n    tag_193:\n      swap3\n      pop\n      pop\n      dup2\n      swap1\n      sstore\n      pop\n        /* \"contracts/Market.sol\":4318:4321  100 */\n      0x64\n        /* \"contracts/Market.sol\":4305:4308  app */\n      immutable(\"0xb7700257a9e4b89511ea592d7ef488a6959d733cec4df010484e5af3e427a407\")\n      sub(shl(0xa0, 0x01), 0x01)\n        /* \"contracts/Market.sol\":4305:4313  app.eVig */\n      and\n      0x28576d45\n        /* \"contracts/Market.sol\":4305:4315  app.eVig() */\n      mload(0x40)\n      dup2\n      0xffffffff\n      and\n      0xe0\n      shl\n      dup2\n      mstore\n      0x04\n      add\n      0x20\n      mload(0x40)\n      dup1\n      dup4\n      sub\n      dup2\n      dup7\n      gas\n      staticcall\n      iszero\n      dup1\n      iszero\n      tag_195\n      jumpi\n      returndatasize\n      0x00\n      dup1\n      returndatacopy\n      revert(0x00, returndatasize)\n    tag_195:\n      pop\n      pop\n      pop\n      pop\n      mload(0x40)\n      returndatasize\n      not(0x1f)\n      0x1f\n      dup3\n      add\n      and\n      dup3\n      add\n      dup1\n      0x40\n      mstore\n      pop\n      dup2\n      add\n      swap1\n      tag_196\n      swap2\n      swap1\n      tag_104\n      jump\t// in\n    tag_196:\n        /* \"contracts/Market.sol\":4293:4315  vigAmount * app.eVig() */\n      tag_197\n      swap1\n        /* \"contracts/Market.sol\":4293:4302  vigAmount */\n      dup4\n        /* \"contracts/Market.sol\":4293:4315  vigAmount * app.eVig() */\n      tag_152\n      jump\t// in\n    tag_197:\n        /* \"contracts/Market.sol\":4293:4321  vigAmount * app.eVig() / 100 */\n      tag_198\n      swap2\n      swap1\n      tag_154\n      jump\t// in\n    tag_198:\n        /* \"contracts/Market.sol\":4271:4274  bal */\n      0x06\n        /* \"contracts/Market.sol\":4271:4289  bal[app.ecoAddr()] */\n      0x00\n        /* \"contracts/Market.sol\":4275:4278  app */\n      immutable(\"0xb7700257a9e4b89511ea592d7ef488a6959d733cec4df010484e5af3e427a407\")\n      sub(shl(0xa0, 0x01), 0x01)\n        /* \"contracts/Market.sol\":4275:4286  app.ecoAddr */\n      and\n      0x09953b2f\n        /* \"contracts/Market.sol\":4275:4288  app.ecoAddr() */\n      mload(0x40)\n      dup2\n      0xffffffff\n      and\n      0xe0\n      shl\n      dup2\n      mstore\n      0x04\n      add\n      0x20\n      mload(0x40)\n      dup1\n      dup4\n      sub\n      dup2\n      dup7\n      gas\n      staticcall\n      iszero\n      dup1\n      iszero\n      tag_200\n      jumpi\n      returndatasize\n      0x00\n      dup1\n      returndatacopy\n      revert(0x00, returndatasize)\n    tag_200:\n      pop\n      pop\n      pop\n      pop\n      mload(0x40)\n      returndatasize\n      not(0x1f)\n      0x1f\n      dup3\n      add\n      and\n      dup3\n      add\n      dup1\n      0x40\n      mstore\n      pop\n      dup2\n      add\n      swap1\n      tag_201\n      swap2\n      swap1\n      tag_183\n      jump\t// in\n    tag_201:\n      sub(shl(0xa0, 0x01), 0x01)\n        /* \"contracts/Market.sol\":4271:4289  bal[app.ecoAddr()] */\n      and\n      sub(shl(0xa0, 0x01), 0x01)\n      and\n      dup2\n      mstore\n      0x20\n      add\n      swap1\n      dup2\n      mstore\n      0x20\n      add\n      0x00\n      keccak256\n      0x00\n        /* \"contracts/Market.sol\":4271:4321  bal[app.ecoAddr()] += vigAmount * app.eVig() / 100 */\n      dup3\n      dup3\n      sload\n      tag_202\n      swap2\n      swap1\n      tag_156\n      jump\t// in\n    tag_202:\n      swap3\n      pop\n      pop\n      dup2\n      swap1\n      sstore\n      pop\n        /* \"contracts/Market.sol\":4374:4377  100 */\n      0x64\n        /* \"contracts/Market.sol\":4361:4364  app */\n      immutable(\"0xb7700257a9e4b89511ea592d7ef488a6959d733cec4df010484e5af3e427a407\")\n      sub(shl(0xa0, 0x01), 0x01)\n        /* \"contracts/Market.sol\":4361:4369  app.aVig */\n      and\n      0x54cd1a5c\n        /* \"contracts/Market.sol\":4361:4371  app.aVig() */\n      mload(0x40)\n      dup2\n      0xffffffff\n      and\n      0xe0\n      shl\n      dup2\n      mstore\n      0x04\n      add\n      0x20\n      mload(0x40)\n      dup1\n      dup4\n      sub\n      dup2\n      dup7\n      gas\n      staticcall\n      iszero\n      dup1\n      iszero\n      tag_204\n      jumpi\n      returndatasize\n      0x00\n      dup1\n      returndatacopy\n      revert(0x00, returndatasize)\n    tag_204:\n      pop\n      pop\n      pop\n      pop\n      mload(0x40)\n      returndatasize\n      not(0x1f)\n      0x1f\n      dup3\n      add\n      and\n      dup3\n      add\n      dup1\n      0x40\n      mstore\n      pop\n      dup2\n      add\n      swap1\n      tag_205\n      swap2\n      swap1\n      tag_104\n      jump\t// in\n    tag_205:\n        /* \"contracts/Market.sol\":4349:4371  vigAmount * app.aVig() */\n      tag_206\n      swap1\n        /* \"contracts/Market.sol\":4349:4358  vigAmount */\n      dup4\n        /* \"contracts/Market.sol\":4349:4371  vigAmount * app.aVig() */\n      tag_152\n      jump\t// in\n    tag_206:\n        /* \"contracts/Market.sol\":4349:4377  vigAmount * app.aVig() / 100 */\n      tag_207\n      swap2\n      swap1\n      tag_154\n      jump\t// in\n    tag_207:\n      sub(shl(0xa0, 0x01), 0x01)\n        /* \"contracts/Market.sol\":4331:4345  bal[affiliate] */\n      dup5\n      and\n      0x00\n      swap1\n      dup2\n      mstore\n        /* \"contracts/Market.sol\":4331:4334  bal */\n      0x06\n        /* \"contracts/Market.sol\":4331:4345  bal[affiliate] */\n      0x20\n      mstore\n      0x40\n      dup2\n      keccak256\n        /* \"contracts/Market.sol\":4331:4377  bal[affiliate] += vigAmount * app.aVig() / 100 */\n      dup1\n      sload\n        /* \"contracts/Market.sol\":4331:4345  bal[affiliate] */\n      swap1\n      swap2\n      swap1\n        /* \"contracts/Market.sol\":4331:4377  bal[affiliate] += vigAmount * app.aVig() / 100 */\n      tag_208\n      swap1\n      dup5\n      swap1\n      tag_156\n      jump\t// in\n    tag_208:\n      swap1\n      swap2\n      sstore\n      pop\n      pop\n      pop\n        /* \"contracts/Market.sol\":4387:4403  pairsInfo[_pair] */\n      0x00\n      dup5\n      dup2\n      mstore\n        /* \"contracts/Market.sol\":4387:4396  pairsInfo */\n      0x09\n        /* \"contracts/Market.sol\":4387:4403  pairsInfo[_pair] */\n      0x20\n      mstore\n      0x40\n      swap1\n      keccak256\n        /* \"contracts/Market.sol\":4387:4411  pairsInfo[_pair].settled */\n      0x04\n      add\n        /* \"contracts/Market.sol\":4387:4418  pairsInfo[_pair].settled = true */\n      dup1\n      sload\n      not(0xff)\n      and\n        /* \"contracts/Market.sol\":4414:4418  true */\n      0x01\n        /* \"contracts/Market.sol\":4387:4418  pairsInfo[_pair].settled = true */\n      or\n      swap1\n      sstore\n      pop\n      pop\n      pop\n      pop\n        /* \"@openzeppelin/contracts/security/ReentrancyGuard.sol\":1701:1702  1 */\n      0x01\n        /* \"@openzeppelin/contracts/security/ReentrancyGuard.sol\":2628:2635  _status */\n      0x00\n        /* \"@openzeppelin/contracts/security/ReentrancyGuard.sol\":2628:2650  _status = _NOT_ENTERED */\n      sstore\n        /* \"contracts/Market.sol\":3040:4441  function settlePair(bytes32 _pair) public override nonReentrant {... */\n      jump\t// out\n        /* \"contracts/Market.sol\":2524:3030  function cancelPending(bytes32 _bet) external override nonReentrant {... */\n    tag_44:\n        /* \"@openzeppelin/contracts/security/ReentrancyGuard.sol\":1744:1745  2 */\n      0x02\n        /* \"@openzeppelin/contracts/security/ReentrancyGuard.sol\":2325:2332  _status */\n      sload(0x00)\n        /* \"@openzeppelin/contracts/security/ReentrancyGuard.sol\":2325:2344  _status != _ENTERED */\n      sub\n        /* \"@openzeppelin/contracts/security/ReentrancyGuard.sol\":2317:2380  require(_status != _ENTERED, \"ReentrancyGuard: reentrant call\") */\n      tag_210\n      jumpi\n      mload(0x40)\n      shl(0xe5, 0x461bcd)\n      dup2\n      mstore\n      0x04\n      add\n      tag_97\n      swap1\n      tag_98\n      jump\t// in\n    tag_210:\n        /* \"@openzeppelin/contracts/security/ReentrancyGuard.sol\":1744:1745  2 */\n      0x02\n        /* \"@openzeppelin/contracts/security/ReentrancyGuard.sol\":2455:2462  _status */\n      0x00\n        /* \"@openzeppelin/contracts/security/ReentrancyGuard.sol\":2455:2473  _status = _ENTERED */\n      dup2\n      dup2\n      sstore\n        /* \"contracts/Market.sol\":2625:2639  betsInfo[_bet] */\n      dup3\n      dup2\n      mstore\n        /* \"contracts/Market.sol\":2625:2633  betsInfo */\n      0x07\n        /* \"contracts/Market.sol\":2625:2639  betsInfo[_bet] */\n      0x20\n      swap1\n      dup2\n      mstore\n      0x40\n      swap2\n      dup3\n      swap1\n      keccak256\n        /* \"contracts/Market.sol\":2602:2639  MarketBet memory bet = betsInfo[_bet] */\n      dup3\n      mload\n      0xc0\n      dup2\n      add\n      dup5\n      mstore\n      dup2\n      sload\n      sub(shl(0xa0, 0x01), 0x01)\n      swap1\n      dup2\n      and\n      dup1\n      dup4\n      mstore\n      0x01\n      dup5\n      add\n      sload\n      swap1\n      swap2\n      and\n      swap4\n      dup3\n      add\n      swap4\n      swap1\n      swap4\n      mstore\n      swap4\n      dup2\n      add\n      sload\n      swap3\n      dup5\n      add\n      swap3\n      swap1\n      swap3\n      mstore\n      0x03\n      dup3\n      add\n      sload\n      0x60\n      dup5\n      add\n      mstore\n      0x04\n      dup3\n      add\n      sload\n      0x80\n      dup5\n      add\n      mstore\n      0x05\n      swap1\n      swap2\n      add\n      sload\n      0xff\n      and\n      0xa0\n      dup4\n      add\n      mstore\n        /* \"contracts/Market.sol\":2657:2667  msg.sender */\n      caller\n        /* \"contracts/Market.sol\":2657:2681  msg.sender == bet.better */\n      eq\n        /* \"contracts/Market.sol\":2649:2700  require(msg.sender == bet.better, \"bet owner only\") */\n      tag_213\n      jumpi\n      mload(0x40)\n      shl(0xe5, 0x461bcd)\n      dup2\n      mstore\n        /* \"#utility.yul\":8982:8984   */\n      0x20\n        /* \"contracts/Market.sol\":2649:2700  require(msg.sender == bet.better, \"bet owner only\") */\n      0x04\n      dup3\n      add\n        /* \"#utility.yul\":8964:8985   */\n      mstore\n        /* \"#utility.yul\":9021:9023   */\n      0x0e\n        /* \"#utility.yul\":9001:9019   */\n      0x24\n      dup3\n      add\n        /* \"#utility.yul\":8994:9024   */\n      mstore\n      shl(0x90, 0x626574206f776e6572206f6e6c79)\n        /* \"#utility.yul\":9040:9058   */\n      0x44\n      dup3\n      add\n        /* \"#utility.yul\":9033:9077   */\n      mstore\n        /* \"#utility.yul\":9094:9112   */\n      0x64\n      add\n        /* \"contracts/Market.sol\":2649:2700  require(msg.sender == bet.better, \"bet owner only\") */\n      tag_97\n        /* \"#utility.yul\":8780:9118   */\n      jump\n        /* \"contracts/Market.sol\":2649:2700  require(msg.sender == bet.better, \"bet owner only\") */\n    tag_213:\n        /* \"contracts/Market.sol\":2710:2723  uint remStake */\n      0x00\n        /* \"contracts/Market.sol\":2738:2741  bet */\n      dup2\n        /* \"contracts/Market.sol\":2738:2749  bet.matched */\n      0x60\n      add\n      mload\n        /* \"contracts/Market.sol\":2726:2729  bet */\n      dup3\n        /* \"contracts/Market.sol\":2726:2735  bet.stake */\n      0x40\n      add\n      mload\n        /* \"contracts/Market.sol\":2726:2749  bet.stake - bet.matched */\n      tag_216\n      swap2\n      swap1\n      tag_119\n      jump\t// in\n    tag_216:\n        /* \"contracts/Market.sol\":2763:2773  bet.better */\n      dup3\n      mload\n      sub(shl(0xa0, 0x01), 0x01)\n        /* \"contracts/Market.sol\":2759:2774  bal[bet.better] */\n      and\n      0x00\n      swap1\n      dup2\n      mstore\n        /* \"contracts/Market.sol\":2759:2762  bal */\n      0x06\n        /* \"contracts/Market.sol\":2759:2774  bal[bet.better] */\n      0x20\n      swap1\n      dup2\n      mstore\n      0x40\n      dup1\n      dup4\n      keccak256\n        /* \"contracts/Market.sol\":2759:2785  bal[bet.better] = remStake */\n      dup5\n      swap1\n      sstore\n        /* \"contracts/Market.sol\":2820:2829  bet.stake */\n      dup1\n      dup7\n      add\n      mload\n        /* \"contracts/Market.sol\":2795:2809  betsInfo[_bet] */\n      dup8\n      dup5\n      mstore\n        /* \"contracts/Market.sol\":2795:2803  betsInfo */\n      0x07\n        /* \"contracts/Market.sol\":2795:2809  betsInfo[_bet] */\n      swap1\n      swap3\n      mstore\n      dup3\n      keccak256\n        /* \"contracts/Market.sol\":2795:2817  betsInfo[_bet].matched */\n      0x03\n      add\n        /* \"contracts/Market.sol\":2795:2829  betsInfo[_bet].matched = bet.stake */\n      sstore\n        /* \"contracts/Market.sol\":2710:2749  uint remStake = bet.stake - bet.matched */\n      swap1\n      swap2\n      pop\n        /* \"contracts/Market.sol\":2875:3024  for(uint i = 0; i < pendingBets.length; i++){... */\n    tag_217:\n        /* \"contracts/Market.sol\":2895:2906  pendingBets */\n      0x04\n        /* \"contracts/Market.sol\":2895:2913  pendingBets.length */\n      sload\n        /* \"contracts/Market.sol\":2891:2913  i < pendingBets.length */\n      dup2\n      lt\n        /* \"contracts/Market.sol\":2875:3024  for(uint i = 0; i < pendingBets.length; i++){... */\n      iszero\n      tag_218\n      jumpi\n        /* \"contracts/Market.sol\":2954:2958  _bet */\n      dup4\n        /* \"contracts/Market.sol\":2936:2947  pendingBets */\n      0x04\n        /* \"contracts/Market.sol\":2948:2949  i */\n      dup3\n        /* \"contracts/Market.sol\":2936:2950  pendingBets[i] */\n      dup2\n      sload\n      dup2\n      lt\n      tag_221\n      jumpi\n      tag_221\n      tag_80\n      jump\t// in\n    tag_221:\n      swap1\n      0x00\n      mstore\n      keccak256(0x00, 0x20)\n      add\n      sload\n        /* \"contracts/Market.sol\":2936:2958  pendingBets[i] == _bet */\n      sub\n        /* \"contracts/Market.sol\":2933:3014  if(pendingBets[i] == _bet) {... */\n      tag_223\n      jumpi\n        /* \"contracts/Market.sol\":2985:2996  pendingBets */\n      0x04\n        /* \"contracts/Market.sol\":2997:2998  i */\n      dup2\n        /* \"contracts/Market.sol\":2985:2999  pendingBets[i] */\n      dup2\n      sload\n      dup2\n      lt\n      tag_225\n      jumpi\n      tag_225\n      tag_80\n      jump\t// in\n    tag_225:\n      0x00\n      swap2\n      dup3\n      mstore\n      0x20\n      dup3\n      keccak256\n      add\n        /* \"contracts/Market.sol\":2978:2999  delete pendingBets[i] */\n      sstore\n        /* \"contracts/Market.sol\":2933:3014  if(pendingBets[i] == _bet) {... */\n    tag_223:\n        /* \"contracts/Market.sol\":2915:2918  i++ */\n      dup1\n      tag_227\n      dup2\n      tag_83\n      jump\t// in\n    tag_227:\n      swap2\n      pop\n      pop\n        /* \"contracts/Market.sol\":2875:3024  for(uint i = 0; i < pendingBets.length; i++){... */\n      jump(tag_217)\n    tag_218:\n      pop\n      pop\n        /* \"@openzeppelin/contracts/security/ReentrancyGuard.sol\":1701:1702  1 */\n      0x01\n        /* \"@openzeppelin/contracts/security/ReentrancyGuard.sol\":2628:2635  _status */\n      0x00\n        /* \"@openzeppelin/contracts/security/ReentrancyGuard.sol\":2628:2650  _status = _NOT_ENTERED */\n      sstore\n      pop\n      pop\n        /* \"contracts/Market.sol\":2524:3030  function cancelPending(bytes32 _bet) external override nonReentrant {... */\n      jump\t// out\n        /* \"contracts/Market.sol\":4447:4698  function setWinningSide(uint8 _winningSide)... */\n    tag_48:\n        /* \"contracts/Market.sol\":1243:1250  factory */\n      sload(0x01)\n        /* \"contracts/Market.sol\":4544:4548  bool */\n      0x00\n      swap1\n      sub(shl(0xa0, 0x01), 0x01)\n        /* \"contracts/Market.sol\":1243:1250  factory */\n      and\n        /* \"contracts/Market.sol\":1229:1239  msg.sender */\n      caller\n        /* \"contracts/Market.sol\":1229:1250  msg.sender == factory */\n      eq\n        /* \"contracts/Market.sol\":1208:1283  require(... */\n      tag_229\n      jumpi\n      mload(0x40)\n      shl(0xe5, 0x461bcd)\n      dup2\n      mstore\n        /* \"#utility.yul\":6849:6851   */\n      0x20\n        /* \"contracts/Market.sol\":1208:1283  require(... */\n      0x04\n      dup3\n      add\n        /* \"#utility.yul\":6831:6852   */\n      mstore\n        /* \"#utility.yul\":6888:6889   */\n      0x07\n        /* \"#utility.yul\":6868:6886   */\n      0x24\n      dup3\n      add\n        /* \"#utility.yul\":6861:6890   */\n      mstore\n      shl(0xc8, 0x6f776e6572206f)\n        /* \"#utility.yul\":6906:6924   */\n      0x44\n      dup3\n      add\n        /* \"#utility.yul\":6899:6936   */\n      mstore\n        /* \"#utility.yul\":6953:6971   */\n      0x64\n      add\n        /* \"contracts/Market.sol\":1208:1283  require(... */\n      tag_97\n        /* \"#utility.yul\":6647:6977   */\n      jump\n        /* \"contracts/Market.sol\":1208:1283  require(... */\n    tag_229:\n        /* \"contracts/Market.sol\":4573:4579  status */\n      and(0xff, sload(0x05))\n        /* \"contracts/Market.sol\":4573:4584  status == 0 */\n      iszero\n        /* \"contracts/Market.sol\":4573:4628  status == 0 && (_winningSide == 1 || _winningSide == 2) */\n      dup1\n      iszero\n      tag_233\n      jumpi\n      pop\n        /* \"contracts/Market.sol\":4589:4601  _winningSide */\n      dup2\n        /* \"contracts/Market.sol\":4589:4606  _winningSide == 1 */\n      0xff\n      and\n        /* \"contracts/Market.sol\":4605:4606  1 */\n      0x01\n        /* \"contracts/Market.sol\":4589:4606  _winningSide == 1 */\n      eq\n        /* \"contracts/Market.sol\":4589:4627  _winningSide == 1 || _winningSide == 2 */\n      dup1\n      tag_233\n      jumpi\n      pop\n        /* \"contracts/Market.sol\":4610:4622  _winningSide */\n      dup2\n        /* \"contracts/Market.sol\":4610:4627  _winningSide == 2 */\n      0xff\n      and\n        /* \"contracts/Market.sol\":4626:4627  2 */\n      0x02\n        /* \"contracts/Market.sol\":4610:4627  _winningSide == 2 */\n      eq\n        /* \"contracts/Market.sol\":4589:4627  _winningSide == 1 || _winningSide == 2 */\n    tag_233:\n        /* \"contracts/Market.sol\":4564:4639  require (status == 0 && (_winningSide == 1 || _winningSide == 2), \"!x win\") */\n      tag_234\n      jumpi\n      mload(0x40)\n      shl(0xe5, 0x461bcd)\n      dup2\n      mstore\n        /* \"#utility.yul\":9325:9327   */\n      0x20\n        /* \"contracts/Market.sol\":4564:4639  require (status == 0 && (_winningSide == 1 || _winningSide == 2), \"!x win\") */\n      0x04\n      dup3\n      add\n        /* \"#utility.yul\":9307:9328   */\n      mstore\n        /* \"#utility.yul\":9364:9365   */\n      0x06\n        /* \"#utility.yul\":9344:9362   */\n      0x24\n      dup3\n      add\n        /* \"#utility.yul\":9337:9366   */\n      mstore\n      shl(0xd1, 0x10bc103bb4b7)\n        /* \"#utility.yul\":9382:9400   */\n      0x44\n      dup3\n      add\n        /* \"#utility.yul\":9375:9411   */\n      mstore\n        /* \"#utility.yul\":9428:9446   */\n      0x64\n      add\n        /* \"contracts/Market.sol\":4564:4639  require (status == 0 && (_winningSide == 1 || _winningSide == 2), \"!x win\") */\n      tag_97\n        /* \"#utility.yul\":9123:9452   */\n      jump\n        /* \"contracts/Market.sol\":4564:4639  require (status == 0 && (_winningSide == 1 || _winningSide == 2), \"!x win\") */\n    tag_234:\n      pop\n        /* \"contracts/Market.sol\":4649:4655  status */\n      0x05\n        /* \"contracts/Market.sol\":4649:4670  status = _winningSide */\n      dup1\n      sload\n      not(0xff)\n      and\n      0xff\n      dup4\n      and\n      or\n      swap1\n      sstore\n      0x01\n        /* \"contracts/Market.sol\":1293:1294  _ */\n    tag_231:\n        /* \"contracts/Market.sol\":4447:4698  function setWinningSide(uint8 _winningSide)... */\n      swap2\n      swap1\n      pop\n      jump\t// out\n        /* \"contracts/Market.sol\":5095:8924  function addBet(... */\n    tag_61:\n        /* \"contracts/Market.sol\":5319:5342  app.isBlack(msg.sender) */\n      mload(0x40)\n      shl(0xe0, 0x332daccf)\n      dup2\n      mstore\n        /* \"contracts/Market.sol\":5331:5341  msg.sender */\n      caller\n        /* \"contracts/Market.sol\":5319:5342  app.isBlack(msg.sender) */\n      0x04\n      dup3\n      add\n        /* \"#utility.yul\":2645:2696   */\n      mstore\n        /* \"contracts/Market.sol\":5287:5294  bytes32 */\n      0x00\n      swap1\n        /* \"contracts/Market.sol\":5319:5322  app */\n      immutable(\"0xb7700257a9e4b89511ea592d7ef488a6959d733cec4df010484e5af3e427a407\")\n      sub(shl(0xa0, 0x01), 0x01)\n        /* \"contracts/Market.sol\":5319:5330  app.isBlack */\n      and\n      swap1\n      0x332daccf\n      swap1\n        /* \"#utility.yul\":2618:2636   */\n      0x24\n      add\n        /* \"contracts/Market.sol\":5319:5342  app.isBlack(msg.sender) */\n      0x20\n      mload(0x40)\n      dup1\n      dup4\n      sub\n      dup2\n      dup7\n      gas\n      staticcall\n      iszero\n      dup1\n      iszero\n      tag_240\n      jumpi\n      returndatasize\n      0x00\n      dup1\n      returndatacopy\n      revert(0x00, returndatasize)\n    tag_240:\n      pop\n      pop\n      pop\n      pop\n      mload(0x40)\n      returndatasize\n      not(0x1f)\n      0x1f\n      dup3\n      add\n      and\n      dup3\n      add\n      dup1\n      0x40\n      mstore\n      pop\n      dup2\n      add\n      swap1\n      tag_241\n      swap2\n      swap1\n      tag_114\n      jump\t// in\n    tag_241:\n        /* \"contracts/Market.sol\":5318:5342  !app.isBlack(msg.sender) */\n      iszero\n        /* \"contracts/Market.sol\":5310:5356  require(!app.isBlack(msg.sender), \"blacklist\") */\n      tag_242\n      jumpi\n      mload(0x40)\n      shl(0xe5, 0x461bcd)\n      dup2\n      mstore\n        /* \"#utility.yul\":9659:9661   */\n      0x20\n        /* \"contracts/Market.sol\":5310:5356  require(!app.isBlack(msg.sender), \"blacklist\") */\n      0x04\n      dup3\n      add\n        /* \"#utility.yul\":9641:9662   */\n      mstore\n        /* \"#utility.yul\":9698:9699   */\n      0x09\n        /* \"#utility.yul\":9678:9696   */\n      0x24\n      dup3\n      add\n        /* \"#utility.yul\":9671:9700   */\n      mstore\n      shl(0xba, 0x189b1858dadb1a5cdd)\n        /* \"#utility.yul\":9716:9734   */\n      0x44\n      dup3\n      add\n        /* \"#utility.yul\":9709:9748   */\n      mstore\n        /* \"#utility.yul\":9765:9783   */\n      0x64\n      add\n        /* \"contracts/Market.sol\":5310:5356  require(!app.isBlack(msg.sender), \"blacklist\") */\n      tag_97\n        /* \"#utility.yul\":9457:9789   */\n      jump\n        /* \"contracts/Market.sol\":5310:5356  require(!app.isBlack(msg.sender), \"blacklist\") */\n    tag_242:\n        /* \"contracts/Market.sol\":5374:5379  _side */\n      dup3\n        /* \"contracts/Market.sol\":5374:5384  _side == 1 */\n      0xff\n      and\n        /* \"contracts/Market.sol\":5383:5384  1 */\n      0x01\n        /* \"contracts/Market.sol\":5374:5384  _side == 1 */\n      eq\n        /* \"contracts/Market.sol\":5374:5398  _side == 1 || _side == 2 */\n      dup1\n      tag_245\n      jumpi\n      pop\n        /* \"contracts/Market.sol\":5388:5393  _side */\n      dup3\n        /* \"contracts/Market.sol\":5388:5398  _side == 2 */\n      0xff\n      and\n        /* \"contracts/Market.sol\":5397:5398  2 */\n      0x02\n        /* \"contracts/Market.sol\":5388:5398  _side == 2 */\n      eq\n        /* \"contracts/Market.sol\":5374:5398  _side == 1 || _side == 2 */\n    tag_245:\n        /* \"contracts/Market.sol\":5366:5415  require(_side == 1 || _side == 2, \"invalid side\") */\n      tag_246\n      jumpi\n      mload(0x40)\n      shl(0xe5, 0x461bcd)\n      dup2\n      mstore\n        /* \"#utility.yul\":9996:9998   */\n      0x20\n        /* \"contracts/Market.sol\":5366:5415  require(_side == 1 || _side == 2, \"invalid side\") */\n      0x04\n      dup3\n      add\n        /* \"#utility.yul\":9978:9999   */\n      mstore\n        /* \"#utility.yul\":10035:10037   */\n      0x0c\n        /* \"#utility.yul\":10015:10033   */\n      0x24\n      dup3\n      add\n        /* \"#utility.yul\":10008:10038   */\n      mstore\n      shl(0xa0, 0x696e76616c69642073696465)\n        /* \"#utility.yul\":10054:10072   */\n      0x44\n      dup3\n      add\n        /* \"#utility.yul\":10047:10089   */\n      mstore\n        /* \"#utility.yul\":10106:10124   */\n      0x64\n      add\n        /* \"contracts/Market.sol\":5366:5415  require(_side == 1 || _side == 2, \"invalid side\") */\n      tag_97\n        /* \"#utility.yul\":9794:10130   */\n      jump\n        /* \"contracts/Market.sol\":5366:5415  require(_side == 1 || _side == 2, \"invalid side\") */\n    tag_246:\n        /* \"contracts/Market.sol\":5425:5440  bytes32 betHash */\n      0x00\n        /* \"contracts/Market.sol\":5443:5499  _createBet(_better, _affiliate, _stake, 0, _odds, _side) */\n      tag_249\n        /* \"contracts/Market.sol\":5454:5461  _better */\n      dup9\n        /* \"contracts/Market.sol\":5463:5473  _affiliate */\n      dup9\n        /* \"contracts/Market.sol\":5475:5481  _stake */\n      dup9\n        /* \"contracts/Market.sol\":5483:5484  0 */\n      0x00\n        /* \"contracts/Market.sol\":5486:5491  _odds */\n      dup10\n        /* \"contracts/Market.sol\":5493:5498  _side */\n      dup10\n        /* \"contracts/Market.sol\":5443:5453  _createBet */\n      tag_250\n        /* \"contracts/Market.sol\":5443:5499  _createBet(_better, _affiliate, _stake, 0, _odds, _side) */\n      jump\t// in\n    tag_249:\n        /* \"contracts/Market.sol\":5731:5742  pendingBets */\n      0x04\n        /* \"contracts/Market.sol\":5731:5749  pendingBets.length */\n      sload\n        /* \"contracts/Market.sol\":5425:5499  bytes32 betHash = _createBet(_better, _affiliate, _stake, 0, _odds, _side) */\n      swap1\n      swap2\n      pop\n        /* \"contracts/Market.sol\":5731:5753  pendingBets.length > 0 */\n      iszero\n        /* \"contracts/Market.sol\":5728:8811  if(pendingBets.length > 0){... */\n      tag_251\n      jumpi\n        /* \"contracts/Market.sol\":5785:5791  _stake */\n      dup6\n        /* \"contracts/Market.sol\":5805:8737  while(_remStake >= 1 * 10 ** 18){... */\n    tag_252:\n        /* \"contracts/Market.sol\":5824:5836  1 * 10 ** 18 */\n      0x0de0b6b3a7640000\n        /* \"contracts/Market.sol\":5811:5820  _remStake */\n      dup2\n        /* \"contracts/Market.sol\":5811:5836  _remStake >= 1 * 10 ** 18 */\n      lt\n        /* \"contracts/Market.sol\":5805:8737  while(_remStake >= 1 * 10 ** 18){... */\n      tag_253\n      jumpi\n        /* \"contracts/Market.sol\":5855:5873  uint selectedIndex */\n      0x00\n        /* \"contracts/Market.sol\":5895:5910  uint256 maxOdds */\n      dup1\n        /* \"contracts/Market.sol\":5936:5942  uint i */\n      0x00\n        /* \"contracts/Market.sol\":5932:6329  for(uint i = 0; i < pendingBets.length; i++){... */\n    tag_254:\n        /* \"contracts/Market.sol\":5952:5963  pendingBets */\n      0x04\n        /* \"contracts/Market.sol\":5952:5970  pendingBets.length */\n      sload\n        /* \"contracts/Market.sol\":5948:5970  i < pendingBets.length */\n      dup2\n      lt\n        /* \"contracts/Market.sol\":5932:6329  for(uint i = 0; i < pendingBets.length; i++){... */\n      iszero\n      tag_255\n      jumpi\n        /* \"contracts/Market.sol\":5998:6010  bytes32 pBet */\n      0x00\n        /* \"contracts/Market.sol\":6013:6024  pendingBets */\n      0x04\n        /* \"contracts/Market.sol\":6025:6026  i */\n      dup3\n        /* \"contracts/Market.sol\":6013:6027  pendingBets[i] */\n      dup2\n      sload\n      dup2\n      lt\n      tag_258\n      jumpi\n      tag_258\n      tag_80\n      jump\t// in\n    tag_258:\n      0x00\n      swap2\n      dup3\n      mstore\n      0x20\n      dup1\n      dup4\n      keccak256\n      swap1\n      swap2\n      add\n      sload\n        /* \"contracts/Market.sol\":6061:6075  betsInfo[pBet] */\n      dup1\n      dup4\n      mstore\n        /* \"contracts/Market.sol\":6061:6069  betsInfo */\n      0x07\n        /* \"contracts/Market.sol\":6061:6075  betsInfo[pBet] */\n      swap1\n      swap2\n      mstore\n      0x40\n      swap1\n      swap2\n      keccak256\n        /* \"contracts/Market.sol\":6061:6080  betsInfo[pBet].side */\n      0x05\n      add\n      sload\n        /* \"contracts/Market.sol\":6013:6027  pendingBets[i] */\n      swap1\n      swap2\n      pop\n        /* \"contracts/Market.sol\":6061:6080  betsInfo[pBet].side */\n      0xff\n      swap1\n      dup2\n      and\n        /* \"contracts/Market.sol\":6052:6080  _side == betsInfo[pBet].side */\n      swap1\n      dup11\n      and\n      sub\n        /* \"contracts/Market.sol\":6049:6138  if(_side == betsInfo[pBet].side){... */\n      tag_260\n      jumpi\n        /* \"contracts/Market.sol\":6107:6115  continue */\n      pop\n      jump(tag_256)\n        /* \"contracts/Market.sol\":6049:6138  if(_side == betsInfo[pBet].side){... */\n    tag_260:\n        /* \"contracts/Market.sol\":6162:6176  betsInfo[pBet] */\n      0x00\n      dup2\n      dup2\n      mstore\n        /* \"contracts/Market.sol\":6162:6170  betsInfo */\n      0x07\n        /* \"contracts/Market.sol\":6162:6176  betsInfo[pBet] */\n      0x20\n      mstore\n      0x40\n      swap1\n      keccak256\n        /* \"contracts/Market.sol\":6162:6181  betsInfo[pBet].odds */\n      0x04\n      add\n      sload\n        /* \"contracts/Market.sol\":6162:6189  betsInfo[pBet].odds>maxOdds */\n      dup4\n      lt\n        /* \"contracts/Market.sol\":6159:6311  if(betsInfo[pBet].odds>maxOdds){... */\n      iszero\n      tag_261\n      jumpi\n        /* \"contracts/Market.sol\":6226:6240  betsInfo[pBet] */\n      0x00\n      dup2\n      dup2\n      mstore\n        /* \"contracts/Market.sol\":6226:6234  betsInfo */\n      0x07\n        /* \"contracts/Market.sol\":6226:6240  betsInfo[pBet] */\n      0x20\n      mstore\n      0x40\n      swap1\n      keccak256\n        /* \"contracts/Market.sol\":6226:6245  betsInfo[pBet].odds */\n      0x04\n      add\n      sload\n        /* \"contracts/Market.sol\":6287:6288  i */\n      swap2\n      swap4\n      pop\n        /* \"contracts/Market.sol\":6226:6245  betsInfo[pBet].odds */\n      swap1\n      swap2\n      pop\n        /* \"contracts/Market.sol\":6287:6288  i */\n      dup3\n      swap1\n        /* \"contracts/Market.sol\":6159:6311  if(betsInfo[pBet].odds>maxOdds){... */\n    tag_261:\n        /* \"contracts/Market.sol\":5976:6329  {... */\n      pop\n        /* \"contracts/Market.sol\":5932:6329  for(uint i = 0; i < pendingBets.length; i++){... */\n    tag_256:\n        /* \"contracts/Market.sol\":5972:5975  i++ */\n      dup1\n      tag_262\n      dup2\n      tag_83\n      jump\t// in\n    tag_262:\n      swap2\n      pop\n      pop\n        /* \"contracts/Market.sol\":5932:6329  for(uint i = 0; i < pendingBets.length; i++){... */\n      jump(tag_254)\n    tag_255:\n      pop\n        /* \"contracts/Market.sol\":6359:6364  _odds */\n      dup8\n        /* \"contracts/Market.sol\":6349:6356  maxOdds */\n      dup2\n        /* \"contracts/Market.sol\":6349:6364  maxOdds > _odds */\n      gt\n        /* \"contracts/Market.sol\":6349:6376  maxOdds > _odds || _instant */\n      dup1\n      tag_263\n      jumpi\n      pop\n        /* \"contracts/Market.sol\":6368:6376  _instant */\n      dup6\n        /* \"contracts/Market.sol\":6349:6376  maxOdds > _odds || _instant */\n    tag_263:\n        /* \"contracts/Market.sol\":6346:8723  if(maxOdds > _odds || _instant) {... */\n      iszero\n      tag_264\n      jumpi\n        /* \"contracts/Market.sol\":6400:6420  bytes32 selectedHash */\n      0x00\n        /* \"contracts/Market.sol\":6423:6434  pendingBets */\n      0x04\n        /* \"contracts/Market.sol\":6435:6448  selectedIndex */\n      dup4\n        /* \"contracts/Market.sol\":6423:6449  pendingBets[selectedIndex] */\n      dup2\n      sload\n      dup2\n      lt\n      tag_266\n      jumpi\n      tag_266\n      tag_80\n      jump\t// in\n    tag_266:\n      0x00\n      swap2\n      dup3\n      mstore\n      0x20\n      dup1\n      dup4\n      keccak256\n      swap1\n      swap2\n      add\n      sload\n        /* \"contracts/Market.sol\":6502:6524  betsInfo[selectedHash] */\n      dup1\n      dup4\n      mstore\n        /* \"contracts/Market.sol\":6502:6510  betsInfo */\n      0x07\n        /* \"contracts/Market.sol\":6502:6524  betsInfo[selectedHash] */\n      dup3\n      mstore\n      0x40\n      dup1\n      dup5\n      keccak256\n        /* \"contracts/Market.sol\":6471:6524  MarketBet memory selectedBet = betsInfo[selectedHash] */\n      dup2\n      mload\n      0xc0\n      dup2\n      add\n      dup4\n      mstore\n      dup2\n      sload\n      sub(shl(0xa0, 0x01), 0x01)\n      swap1\n      dup2\n      and\n      dup3\n      mstore\n      0x01\n      dup1\n      dup5\n      add\n      sload\n      swap1\n      swap2\n      and\n      swap6\n      dup3\n      add\n      swap6\n      swap1\n      swap6\n      mstore\n      0x02\n      dup3\n      add\n      sload\n      swap3\n      dup2\n      add\n      swap3\n      swap1\n      swap3\n      mstore\n      0x03\n      dup2\n      add\n      sload\n      0x60\n      dup4\n      add\n      mstore\n      0x04\n      dup2\n      add\n      sload\n      0x80\n      dup4\n      add\n      mstore\n      0x05\n      add\n      sload\n      0xff\n      and\n      0xa0\n      dup3\n      add\n      mstore\n        /* \"contracts/Market.sol\":6423:6449  pendingBets[selectedIndex] */\n      swap1\n      swap4\n      pop\n        /* \"contracts/Market.sol\":6471:6524  MarketBet memory selectedBet = betsInfo[selectedHash] */\n      swap2\n        /* \"contracts/Market.sol\":6423:6449  pendingBets[selectedIndex] */\n      swap1\n        /* \"contracts/Market.sol\":6611:6620  _odds - 1 */\n      tag_268\n      swap1\n        /* \"contracts/Market.sol\":6611:6616  _odds */\n      dup13\n        /* \"contracts/Market.sol\":6611:6620  _odds - 1 */\n      tag_119\n      jump\t// in\n    tag_268:\n        /* \"contracts/Market.sol\":6587:6598  selectedBet */\n      dup3\n        /* \"contracts/Market.sol\":6587:6606  selectedBet.matched */\n      0x60\n      add\n      mload\n        /* \"contracts/Market.sol\":6567:6578  selectedBet */\n      dup4\n        /* \"contracts/Market.sol\":6567:6584  selectedBet.stake */\n      0x40\n      add\n      mload\n        /* \"contracts/Market.sol\":6567:6606  selectedBet.stake - selectedBet.matched */\n      tag_269\n      swap2\n      swap1\n      tag_119\n      jump\t// in\n    tag_269:\n        /* \"contracts/Market.sol\":6566:6621  (selectedBet.stake - selectedBet.matched) / (_odds - 1) */\n      tag_270\n      swap2\n      swap1\n      tag_154\n      jump\t// in\n    tag_270:\n        /* \"contracts/Market.sol\":6546:6621  uint offeredStake = (selectedBet.stake - selectedBet.matched) / (_odds - 1) */\n      swap1\n      pop\n        /* \"contracts/Market.sol\":6643:6660  uint betterAmount */\n      0x00\n        /* \"contracts/Market.sol\":6682:6698  uint makerAmount */\n      dup1\n        /* \"contracts/Market.sol\":6720:6736  bytes32 pairHash */\n      0x00\n        /* \"contracts/Market.sol\":6777:6783  _stake */\n      dup15\n        /* \"contracts/Market.sol\":6761:6773  offeredStake */\n      dup5\n        /* \"contracts/Market.sol\":6761:6783  offeredStake <= _stake */\n      gt\n        /* \"contracts/Market.sol\":6758:8125  if(offeredStake <= _stake) {... */\n      tag_271\n      jumpi\n        /* \"contracts/Market.sol\":6826:6838  offeredStake */\n      dup4\n      swap3\n      pop\n        /* \"contracts/Market.sol\":6894:6903  _odds - 1 */\n      tag_272\n        /* \"contracts/Market.sol\":6902:6903  1 */\n      0x01\n        /* \"contracts/Market.sol\":6894:6899  _odds */\n      dup16\n        /* \"contracts/Market.sol\":6894:6903  _odds - 1 */\n      tag_119\n      jump\t// in\n    tag_272:\n        /* \"contracts/Market.sol\":6878:6904  offeredStake * (_odds - 1) */\n      tag_273\n      swap1\n        /* \"contracts/Market.sol\":6878:6890  offeredStake */\n      dup6\n        /* \"contracts/Market.sol\":6878:6904  offeredStake * (_odds - 1) */\n      tag_152\n      jump\t// in\n    tag_273:\n        /* \"contracts/Market.sol\":6864:6904  makerAmount = offeredStake * (_odds - 1) */\n      swap2\n      pop\n        /* \"contracts/Market.sol\":6933:6938  _side */\n      dup13\n        /* \"contracts/Market.sol\":6933:6943  _side == 1 */\n      0xff\n      and\n        /* \"contracts/Market.sol\":6942:6943  1 */\n      0x01\n        /* \"contracts/Market.sol\":6933:6943  _side == 1 */\n      sub\n        /* \"contracts/Market.sol\":6930:7426  if(_side == 1){... */\n      tag_274\n      jumpi\n        /* \"contracts/Market.sol\":6985:7043  _createPair(betHash,selectedHash,betterAmount,makerAmount) */\n      tag_275\n        /* \"contracts/Market.sol\":6997:7004  betHash */\n      dup11\n        /* \"contracts/Market.sol\":7005:7017  selectedHash */\n      dup8\n        /* \"contracts/Market.sol\":7018:7030  betterAmount */\n      dup6\n        /* \"contracts/Market.sol\":7031:7042  makerAmount */\n      dup6\n        /* \"contracts/Market.sol\":6985:6996  _createPair */\n      tag_276\n        /* \"contracts/Market.sol\":6985:7043  _createPair(betHash,selectedHash,betterAmount,makerAmount) */\n      jump\t// in\n    tag_275:\n        /* \"contracts/Market.sol\":7078:7136  PairCreated(betHash,selectedHash,betterAmount,makerAmount) */\n      0x40\n      dup1\n      mload\n        /* \"#utility.yul\":10366:10391   */\n      dup13\n      dup2\n      mstore\n        /* \"#utility.yul\":10422:10424   */\n      0x20\n        /* \"#utility.yul\":10407:10425   */\n      dup2\n      add\n        /* \"#utility.yul\":10400:10434   */\n      dup10\n      swap1\n      mstore\n        /* \"#utility.yul\":10450:10468   */\n      swap1\n      dup2\n      add\n        /* \"#utility.yul\":10443:10477   */\n      dup6\n      swap1\n      mstore\n        /* \"#utility.yul\":10508:10510   */\n      0x60\n        /* \"#utility.yul\":10493:10511   */\n      dup2\n      add\n        /* \"#utility.yul\":10486:10520   */\n      dup5\n      swap1\n      mstore\n        /* \"contracts/Market.sol\":6974:7043  pairHash = _createPair(betHash,selectedHash,betterAmount,makerAmount) */\n      swap1\n      swap2\n      pop\n        /* \"contracts/Market.sol\":7078:7136  PairCreated(betHash,selectedHash,betterAmount,makerAmount) */\n      0x5de48bb383b4a2aaad84721b80d93429b813651b0eefbd59d32018cfe28215dc\n      swap1\n        /* \"#utility.yul\":10353:10356   */\n      0x80\n        /* \"#utility.yul\":10338:10357   */\n      add\n        /* \"contracts/Market.sol\":7078:7136  PairCreated(betHash,selectedHash,betterAmount,makerAmount) */\n    tag_277:\n      mload(0x40)\n      dup1\n      swap2\n      sub\n      swap1\n      log1\n        /* \"contracts/Market.sol\":6758:8125  if(offeredStake <= _stake) {... */\n      jump(tag_290)\n        /* \"contracts/Market.sol\":6930:7426  if(_side == 1){... */\n    tag_274:\n        /* \"contracts/Market.sol\":7196:7201  _side */\n      dup13\n        /* \"contracts/Market.sol\":7196:7206  _side == 2 */\n      0xff\n      and\n        /* \"contracts/Market.sol\":7205:7206  2 */\n      0x02\n        /* \"contracts/Market.sol\":7196:7206  _side == 2 */\n      sub\n        /* \"contracts/Market.sol\":7193:7426  if(_side == 2){... */\n      tag_280\n      jumpi\n        /* \"contracts/Market.sol\":7248:7306  _createPair(selectedHash,betHash,makerAmount,betterAmount) */\n      tag_281\n        /* \"contracts/Market.sol\":7260:7272  selectedHash */\n      dup7\n        /* \"contracts/Market.sol\":7273:7280  betHash */\n      dup12\n        /* \"contracts/Market.sol\":7281:7292  makerAmount */\n      dup5\n        /* \"contracts/Market.sol\":7293:7305  betterAmount */\n      dup7\n        /* \"contracts/Market.sol\":7248:7259  _createPair */\n      tag_276\n        /* \"contracts/Market.sol\":7248:7306  _createPair(selectedHash,betHash,makerAmount,betterAmount) */\n      jump\t// in\n    tag_281:\n        /* \"contracts/Market.sol\":7341:7399  PairCreated(selectedHash,betHash,makerAmount,betterAmount) */\n      0x40\n      dup1\n      mload\n        /* \"#utility.yul\":10366:10391   */\n      dup9\n      dup2\n      mstore\n        /* \"#utility.yul\":10422:10424   */\n      0x20\n        /* \"#utility.yul\":10407:10425   */\n      dup2\n      add\n        /* \"#utility.yul\":10400:10434   */\n      dup14\n      swap1\n      mstore\n        /* \"#utility.yul\":10450:10468   */\n      swap1\n      dup2\n      add\n        /* \"#utility.yul\":10443:10477   */\n      dup5\n      swap1\n      mstore\n        /* \"#utility.yul\":10508:10510   */\n      0x60\n        /* \"#utility.yul\":10493:10511   */\n      dup2\n      add\n        /* \"#utility.yul\":10486:10520   */\n      dup6\n      swap1\n      mstore\n        /* \"contracts/Market.sol\":7237:7306  pairHash = _createPair(selectedHash,betHash,makerAmount,betterAmount) */\n      swap1\n      swap2\n      pop\n        /* \"contracts/Market.sol\":7341:7399  PairCreated(selectedHash,betHash,makerAmount,betterAmount) */\n      0x5de48bb383b4a2aaad84721b80d93429b813651b0eefbd59d32018cfe28215dc\n      swap1\n        /* \"#utility.yul\":10353:10356   */\n      0x80\n        /* \"#utility.yul\":10338:10357   */\n      add\n        /* \"contracts/Market.sol\":7341:7399  PairCreated(selectedHash,betHash,makerAmount,betterAmount) */\n      tag_277\n        /* \"#utility.yul\":10135:10526   */\n      jump\n        /* \"contracts/Market.sol\":7193:7426  if(_side == 2){... */\n    tag_280:\n        /* \"contracts/Market.sol\":6758:8125  if(offeredStake <= _stake) {... */\n      jump(tag_290)\n    tag_271:\n        /* \"contracts/Market.sol\":7515:7521  _stake */\n      dup15\n      swap3\n      pop\n        /* \"contracts/Market.sol\":7571:7580  _odds - 1 */\n      tag_284\n        /* \"contracts/Market.sol\":7579:7580  1 */\n      0x01\n        /* \"contracts/Market.sol\":7571:7576  _odds */\n      dup16\n        /* \"contracts/Market.sol\":7571:7580  _odds - 1 */\n      tag_119\n      jump\t// in\n    tag_284:\n        /* \"contracts/Market.sol\":7561:7567  _stake */\n      dup16\n        /* \"contracts/Market.sol\":7561:7581  _stake * (_odds - 1) */\n      tag_285\n      swap2\n      swap1\n      tag_152\n      jump\t// in\n    tag_285:\n        /* \"contracts/Market.sol\":7547:7581  makerAmount = _stake * (_odds - 1) */\n      swap2\n      pop\n        /* \"contracts/Market.sol\":7610:7615  _side */\n      dup13\n        /* \"contracts/Market.sol\":7610:7620  _side == 1 */\n      0xff\n      and\n        /* \"contracts/Market.sol\":7619:7620  1 */\n      0x01\n        /* \"contracts/Market.sol\":7610:7620  _side == 1 */\n      sub\n        /* \"contracts/Market.sol\":7607:8103  if(_side == 1){... */\n      tag_286\n      jumpi\n        /* \"contracts/Market.sol\":7662:7720  _createPair(betHash,selectedHash,betterAmount,makerAmount) */\n      tag_275\n        /* \"contracts/Market.sol\":7674:7681  betHash */\n      dup11\n        /* \"contracts/Market.sol\":7682:7694  selectedHash */\n      dup8\n        /* \"contracts/Market.sol\":7695:7707  betterAmount */\n      dup6\n        /* \"contracts/Market.sol\":7708:7719  makerAmount */\n      dup6\n        /* \"contracts/Market.sol\":7662:7673  _createPair */\n      tag_276\n        /* \"contracts/Market.sol\":7662:7720  _createPair(betHash,selectedHash,betterAmount,makerAmount) */\n      jump\t// in\n        /* \"contracts/Market.sol\":7607:8103  if(_side == 1){... */\n    tag_286:\n        /* \"contracts/Market.sol\":7873:7878  _side */\n      dup13\n        /* \"contracts/Market.sol\":7873:7883  _side == 2 */\n      0xff\n      and\n        /* \"contracts/Market.sol\":7882:7883  2 */\n      0x02\n        /* \"contracts/Market.sol\":7873:7883  _side == 2 */\n      sub\n        /* \"contracts/Market.sol\":7870:8103  if(_side == 2){... */\n      tag_290\n      jumpi\n        /* \"contracts/Market.sol\":7925:7983  _createPair(selectedHash,betHash,makerAmount,betterAmount) */\n      tag_291\n        /* \"contracts/Market.sol\":7937:7949  selectedHash */\n      dup7\n        /* \"contracts/Market.sol\":7950:7957  betHash */\n      dup12\n        /* \"contracts/Market.sol\":7958:7969  makerAmount */\n      dup5\n        /* \"contracts/Market.sol\":7970:7982  betterAmount */\n      dup7\n        /* \"contracts/Market.sol\":7925:7936  _createPair */\n      tag_276\n        /* \"contracts/Market.sol\":7925:7983  _createPair(selectedHash,betHash,makerAmount,betterAmount) */\n      jump\t// in\n    tag_291:\n        /* \"contracts/Market.sol\":8018:8076  PairCreated(selectedHash,betHash,makerAmount,betterAmount) */\n      0x40\n      dup1\n      mload\n        /* \"#utility.yul\":10366:10391   */\n      dup9\n      dup2\n      mstore\n        /* \"#utility.yul\":10422:10424   */\n      0x20\n        /* \"#utility.yul\":10407:10425   */\n      dup2\n      add\n        /* \"#utility.yul\":10400:10434   */\n      dup14\n      swap1\n      mstore\n        /* \"#utility.yul\":10450:10468   */\n      swap1\n      dup2\n      add\n        /* \"#utility.yul\":10443:10477   */\n      dup5\n      swap1\n      mstore\n        /* \"#utility.yul\":10508:10510   */\n      0x60\n        /* \"#utility.yul\":10493:10511   */\n      dup2\n      add\n        /* \"#utility.yul\":10486:10520   */\n      dup6\n      swap1\n      mstore\n        /* \"contracts/Market.sol\":7914:7983  pairHash = _createPair(selectedHash,betHash,makerAmount,betterAmount) */\n      swap1\n      swap2\n      pop\n        /* \"contracts/Market.sol\":8018:8076  PairCreated(selectedHash,betHash,makerAmount,betterAmount) */\n      0x5de48bb383b4a2aaad84721b80d93429b813651b0eefbd59d32018cfe28215dc\n      swap1\n        /* \"#utility.yul\":10353:10356   */\n      0x80\n        /* \"#utility.yul\":10338:10357   */\n      add\n        /* \"contracts/Market.sol\":8018:8076  PairCreated(selectedHash,betHash,makerAmount,betterAmount) */\n      mload(0x40)\n      dup1\n      swap2\n      sub\n      swap1\n      log1\n        /* \"contracts/Market.sol\":7870:8103  if(_side == 2){... */\n    tag_290:\n        /* \"contracts/Market.sol\":8146:8163  betPairs[betHash] */\n      0x00\n      dup11\n      dup2\n      mstore\n        /* \"contracts/Market.sol\":8146:8154  betPairs */\n      0x0a\n        /* \"contracts/Market.sol\":8146:8163  betPairs[betHash] */\n      0x20\n      swap1\n      dup2\n      mstore\n      0x40\n      dup1\n      dup4\n      keccak256\n        /* \"contracts/Market.sol\":8146:8178  betPairs[betHash].push(pairHash) */\n      dup1\n      sload\n      0x01\n      dup2\n      dup2\n      add\n      dup4\n      sstore\n      swap2\n      dup6\n      mstore\n      dup4\n      dup6\n      keccak256\n      add\n      dup6\n      swap1\n      sstore\n        /* \"contracts/Market.sol\":8200:8222  betPairs[selectedHash] */\n      dup10\n      dup5\n      mstore\n      dup2\n      dup5\n      keccak256\n        /* \"contracts/Market.sol\":8200:8237  betPairs[selectedHash].push(pairHash) */\n      dup1\n      sload\n      swap2\n      dup3\n      add\n      dup2\n      sstore\n      dup5\n      mstore\n      dup3\n      dup5\n      keccak256\n      add\n      dup5\n      swap1\n      sstore\n        /* \"contracts/Market.sol\":8259:8276  betsInfo[betHash] */\n      dup13\n      dup4\n      mstore\n        /* \"contracts/Market.sol\":8259:8267  betsInfo */\n      0x07\n        /* \"contracts/Market.sol\":8259:8276  betsInfo[betHash] */\n      swap1\n      swap2\n      mstore\n      dup2\n      keccak256\n        /* \"contracts/Market.sol\":8259:8284  betsInfo[betHash].matched */\n      0x03\n      add\n        /* \"contracts/Market.sol\":8259:8300  betsInfo[betHash].matched += betterAmount */\n      dup1\n      sload\n        /* \"contracts/Market.sol\":8288:8300  betterAmount */\n      dup6\n      swap3\n        /* \"contracts/Market.sol\":8146:8163  betPairs[betHash] */\n      swap1\n        /* \"contracts/Market.sol\":8259:8300  betsInfo[betHash].matched += betterAmount */\n      tag_295\n      swap1\n        /* \"contracts/Market.sol\":8288:8300  betterAmount */\n      dup5\n      swap1\n        /* \"contracts/Market.sol\":8259:8300  betsInfo[betHash].matched += betterAmount */\n      tag_156\n      jump\t// in\n    tag_295:\n      swap1\n      swap2\n      sstore\n      pop\n      pop\n        /* \"contracts/Market.sol\":8322:8344  betsInfo[selectedHash] */\n      0x00\n      dup7\n      dup2\n      mstore\n        /* \"contracts/Market.sol\":8322:8330  betsInfo */\n      0x07\n        /* \"contracts/Market.sol\":8322:8344  betsInfo[selectedHash] */\n      0x20\n      mstore\n      0x40\n      dup2\n      keccak256\n        /* \"contracts/Market.sol\":8322:8352  betsInfo[selectedHash].matched */\n      0x03\n      add\n        /* \"contracts/Market.sol\":8322:8367  betsInfo[selectedHash].matched += makerAmount */\n      dup1\n      sload\n        /* \"contracts/Market.sol\":8356:8367  makerAmount */\n      dup5\n      swap3\n        /* \"contracts/Market.sol\":8322:8344  betsInfo[selectedHash] */\n      swap1\n        /* \"contracts/Market.sol\":8322:8367  betsInfo[selectedHash].matched += makerAmount */\n      tag_296\n      swap1\n        /* \"contracts/Market.sol\":8356:8367  makerAmount */\n      dup5\n      swap1\n        /* \"contracts/Market.sol\":8322:8367  betsInfo[selectedHash].matched += makerAmount */\n      tag_156\n      jump\t// in\n    tag_296:\n      swap1\n      swap2\n      sstore\n      pop\n      pop\n        /* \"contracts/Market.sol\":8423:8445  betsInfo[selectedHash] */\n      0x00\n      dup7\n      dup2\n      mstore\n        /* \"contracts/Market.sol\":8423:8431  betsInfo */\n      0x07\n        /* \"contracts/Market.sol\":8423:8445  betsInfo[selectedHash] */\n      0x20\n      mstore\n      0x40\n      swap1\n      keccak256\n        /* \"contracts/Market.sol\":8423:8453  betsInfo[selectedHash].matched */\n      0x03\n      dup2\n      add\n      sload\n        /* \"contracts/Market.sol\":8392:8420  betsInfo[selectedHash].stake */\n      0x02\n      swap1\n      swap2\n      add\n      sload\n        /* \"contracts/Market.sol\":8392:8453  betsInfo[selectedHash].stake - betsInfo[selectedHash].matched */\n      tag_297\n      swap2\n        /* \"contracts/Market.sol\":8423:8453  betsInfo[selectedHash].matched */\n      swap1\n        /* \"contracts/Market.sol\":8392:8453  betsInfo[selectedHash].stake - betsInfo[selectedHash].matched */\n      tag_119\n      jump\t// in\n    tag_297:\n        /* \"contracts/Market.sol\":8457:8458  0 */\n      0x00\n        /* \"contracts/Market.sol\":8392:8458  betsInfo[selectedHash].stake - betsInfo[selectedHash].matched == 0 */\n      sub\n        /* \"contracts/Market.sol\":8389:8542  if(betsInfo[selectedHash].stake - betsInfo[selectedHash].matched == 0) {... */\n      tag_298\n      jumpi\n        /* \"contracts/Market.sol\":8493:8504  pendingBets */\n      0x04\n        /* \"contracts/Market.sol\":8505:8518  selectedIndex */\n      dup9\n        /* \"contracts/Market.sol\":8493:8519  pendingBets[selectedIndex] */\n      dup2\n      sload\n      dup2\n      lt\n      tag_300\n      jumpi\n      tag_300\n      tag_80\n      jump\t// in\n    tag_300:\n      0x00\n      swap2\n      dup3\n      mstore\n      0x20\n      dup3\n      keccak256\n      add\n        /* \"contracts/Market.sol\":8486:8519  delete pendingBets[selectedIndex] */\n      sstore\n        /* \"contracts/Market.sol\":8389:8542  if(betsInfo[selectedHash].stake - betsInfo[selectedHash].matched == 0) {... */\n    tag_298:\n        /* \"contracts/Market.sol\":8564:8589  _remStake -= betterAmount */\n      tag_302\n        /* \"contracts/Market.sol\":8577:8589  betterAmount */\n      dup4\n        /* \"contracts/Market.sol\":8564:8589  _remStake -= betterAmount */\n      dup11\n      tag_119\n      jump\t// in\n    tag_302:\n      swap9\n      pop\n        /* \"contracts/Market.sol\":6378:8608  {... */\n      pop\n      pop\n      pop\n      pop\n      pop\n      pop\n        /* \"contracts/Market.sol\":6346:8723  if(maxOdds > _odds || _instant) {... */\n      jump(tag_303)\n    tag_264:\n      pop\n      pop\n        /* \"contracts/Market.sol\":8652:8663  pendingBets */\n      0x04\n        /* \"contracts/Market.sol\":8652:8677  pendingBets.push(betHash) */\n      dup1\n      sload\n      0x01\n      dup2\n      add\n      dup3\n      sstore\n      0x00\n      swap2\n      swap1\n      swap2\n      mstore\n      0x8a35acfbc15ff81a39ae7d344fd709f28e8600b4aa8c65c6b64bfe7fe36bd19b\n      add\n      dup3\n      swap1\n      sstore\n        /* \"contracts/Market.sol\":8699:8704  break */\n      jump(tag_253)\n        /* \"contracts/Market.sol\":6346:8723  if(maxOdds > _odds || _instant) {... */\n    tag_303:\n        /* \"contracts/Market.sol\":5837:8737  {... */\n      pop\n      pop\n        /* \"contracts/Market.sol\":5805:8737  while(_remStake >= 1 * 10 ** 18){... */\n      jump(tag_252)\n    tag_253:\n        /* \"contracts/Market.sol\":5754:8747  {... */\n      pop\n        /* \"contracts/Market.sol\":5728:8811  if(pendingBets.length > 0){... */\n      jump(tag_305)\n    tag_251:\n        /* \"contracts/Market.sol\":8775:8786  pendingBets */\n      0x04\n        /* \"contracts/Market.sol\":8775:8800  pendingBets.push(betHash) */\n      dup1\n      sload\n      0x01\n      dup2\n      add\n      dup3\n      sstore\n      0x00\n      swap2\n      swap1\n      swap2\n      mstore\n      0x8a35acfbc15ff81a39ae7d344fd709f28e8600b4aa8c65c6b64bfe7fe36bd19b\n      add\n      dup2\n      swap1\n      sstore\n        /* \"contracts/Market.sol\":5728:8811  if(pendingBets.length > 0){... */\n    tag_305:\n        /* \"contracts/Market.sol\":8825:8893  BetCreated(msg.sender, address(this), betHash, _stake, _odds, _side) */\n      0x40\n      dup1\n      mload\n        /* \"contracts/Market.sol\":8836:8846  msg.sender */\n      caller\n        /* \"#utility.yul\":10852:10886   */\n      dup2\n      mstore\n        /* \"contracts/Market.sol\":8856:8860  this */\n      address\n        /* \"#utility.yul\":10917:10919   */\n      0x20\n        /* \"#utility.yul\":10902:10920   */\n      dup3\n      add\n        /* \"#utility.yul\":10895:10938   */\n      mstore\n        /* \"#utility.yul\":10954:10972   */\n      swap1\n      dup2\n      add\n        /* \"#utility.yul\":10947:10981   */\n      dup3\n      swap1\n      mstore\n        /* \"#utility.yul\":11012:11014   */\n      0x60\n        /* \"#utility.yul\":10997:11015   */\n      dup2\n      add\n        /* \"#utility.yul\":10990:11024   */\n      dup8\n      swap1\n      mstore\n        /* \"#utility.yul\":11055:11058   */\n      0x80\n        /* \"#utility.yul\":11040:11059   */\n      dup2\n      add\n        /* \"#utility.yul\":11033:11068   */\n      dup7\n      swap1\n      mstore\n        /* \"#utility.yul\":11117:11121   */\n      0xff\n        /* \"#utility.yul\":11105:11122   */\n      dup6\n      and\n        /* \"#utility.yul\":10832:10835   */\n      0xa0\n        /* \"#utility.yul\":11084:11103   */\n      dup3\n      add\n        /* \"#utility.yul\":11077:11123   */\n      mstore\n        /* \"contracts/Market.sol\":8825:8893  BetCreated(msg.sender, address(this), betHash, _stake, _odds, _side) */\n      0xae1f00f8ca5df624acfa3bc85eccdde83b05574d6c39203c4f6e0a7f9a69ac82\n      swap1\n        /* \"#utility.yul\":10801:10804   */\n      0xc0\n        /* \"#utility.yul\":10786:10805   */\n      add\n        /* \"contracts/Market.sol\":8825:8893  BetCreated(msg.sender, address(this), betHash, _stake, _odds, _side) */\n      mload(0x40)\n      dup1\n      swap2\n      sub\n      swap1\n      log1\n        /* \"contracts/Market.sol\":8910:8917  betHash */\n      swap8\n        /* \"contracts/Market.sol\":5095:8924  function addBet(... */\n      swap7\n      pop\n      pop\n      pop\n      pop\n      pop\n      pop\n      pop\n      jump\t// out\n        /* \"contracts/Market.sol\":8930:9278  function _cancelPair(bytes32 _pair) private {... */\n    tag_133:\n        /* \"contracts/Market.sol\":8984:8999  address betterA */\n      0x00\n        /* \"contracts/Market.sol\":9011:9027  pairsInfo[_pair] */\n      dup2\n      dup2\n      mstore\n        /* \"contracts/Market.sol\":9011:9020  pairsInfo */\n      0x09\n        /* \"contracts/Market.sol\":9011:9027  pairsInfo[_pair] */\n      0x20\n      swap1\n      dup2\n      mstore\n      0x40\n      dup1\n      dup4\n      keccak256\n        /* \"contracts/Market.sol\":9011:9036  pairsInfo[_pair].betHashA */\n      dup1\n      sload\n        /* \"contracts/Market.sol\":9002:9037  betsInfo[pairsInfo[_pair].betHashA] */\n      dup5\n      mstore\n        /* \"contracts/Market.sol\":9002:9010  betsInfo */\n      0x07\n        /* \"contracts/Market.sol\":9002:9037  betsInfo[pairsInfo[_pair].betHashA] */\n      dup4\n      mstore\n      dup2\n      dup5\n      keccak256\n        /* \"contracts/Market.sol\":9002:9044  betsInfo[pairsInfo[_pair].betHashA].better */\n      sload\n      0x01\n        /* \"contracts/Market.sol\":9081:9106  pairsInfo[_pair].betHashB */\n      dup3\n      add\n      sload\n        /* \"contracts/Market.sol\":9072:9107  betsInfo[pairsInfo[_pair].betHashB] */\n      dup6\n      mstore\n      dup3\n      dup6\n      keccak256\n        /* \"contracts/Market.sol\":9072:9114  betsInfo[pairsInfo[_pair].betHashB].better */\n      sload\n        /* \"contracts/Market.sol\":9140:9164  pairsInfo[_pair].amountA */\n      0x02\n      swap1\n      swap3\n      add\n      sload\n      sub(shl(0xa0, 0x01), 0x01)\n        /* \"contracts/Market.sol\":9002:9044  betsInfo[pairsInfo[_pair].betHashA].better */\n      swap2\n      dup3\n      and\n        /* \"contracts/Market.sol\":9124:9136  bal[betterA] */\n      dup1\n      dup8\n      mstore\n        /* \"contracts/Market.sol\":9124:9127  bal */\n      0x06\n        /* \"contracts/Market.sol\":9124:9136  bal[betterA] */\n      swap1\n      swap6\n      mstore\n      swap3\n      dup6\n      keccak256\n        /* \"contracts/Market.sol\":9124:9164  bal[betterA] += pairsInfo[_pair].amountA */\n      dup1\n      sload\n        /* \"contracts/Market.sol\":9002:9044  betsInfo[pairsInfo[_pair].betHashA].better */\n      swap5\n      swap6\n        /* \"contracts/Market.sol\":9072:9114  betsInfo[pairsInfo[_pair].betHashB].better */\n      swap2\n      swap1\n      swap3\n      and\n      swap4\n        /* \"contracts/Market.sol\":9124:9164  bal[betterA] += pairsInfo[_pair].amountA */\n      tag_311\n      swap1\n        /* \"contracts/Market.sol\":9140:9164  pairsInfo[_pair].amountA */\n      dup5\n      swap1\n        /* \"contracts/Market.sol\":9124:9164  bal[betterA] += pairsInfo[_pair].amountA */\n      tag_156\n      jump\t// in\n    tag_311:\n      swap1\n      swap2\n      sstore\n      pop\n      pop\n        /* \"contracts/Market.sol\":9190:9206  pairsInfo[_pair] */\n      0x00\n      dup4\n      dup2\n      mstore\n        /* \"contracts/Market.sol\":9190:9199  pairsInfo */\n      0x09\n        /* \"contracts/Market.sol\":9190:9206  pairsInfo[_pair] */\n      0x20\n      swap1\n      dup2\n      mstore\n      0x40\n      dup1\n      dup4\n      keccak256\n        /* \"contracts/Market.sol\":9190:9214  pairsInfo[_pair].amountB */\n      0x03\n      add\n      sload\n      sub(shl(0xa0, 0x01), 0x01)\n        /* \"contracts/Market.sol\":9174:9186  bal[betterB] */\n      dup6\n      and\n      dup5\n      mstore\n        /* \"contracts/Market.sol\":9174:9177  bal */\n      0x06\n        /* \"contracts/Market.sol\":9174:9186  bal[betterB] */\n      swap1\n      swap3\n      mstore\n      dup3\n      keccak256\n        /* \"contracts/Market.sol\":9174:9214  bal[betterB] += pairsInfo[_pair].amountB */\n      dup1\n      sload\n        /* \"contracts/Market.sol\":9190:9214  pairsInfo[_pair].amountB */\n      swap2\n      swap3\n        /* \"contracts/Market.sol\":9174:9186  bal[betterB] */\n      swap1\n      swap2\n        /* \"contracts/Market.sol\":9174:9214  bal[betterB] += pairsInfo[_pair].amountB */\n      tag_312\n      swap1\n        /* \"contracts/Market.sol\":9190:9214  pairsInfo[_pair].amountB */\n      dup5\n      swap1\n        /* \"contracts/Market.sol\":9174:9214  bal[betterB] += pairsInfo[_pair].amountB */\n      tag_156\n      jump\t// in\n    tag_312:\n      swap1\n      swap2\n      sstore\n      pop\n      pop\n      pop\n        /* \"contracts/Market.sol\":9224:9240  pairsInfo[_pair] */\n      0x00\n      swap2\n      dup3\n      mstore\n      pop\n        /* \"contracts/Market.sol\":9224:9233  pairsInfo */\n      0x09\n        /* \"contracts/Market.sol\":9224:9240  pairsInfo[_pair] */\n      0x20\n      mstore\n      0x40\n      swap1\n      keccak256\n        /* \"contracts/Market.sol\":9224:9248  pairsInfo[_pair].settled */\n      0x04\n      add\n        /* \"contracts/Market.sol\":9224:9255  pairsInfo[_pair].settled = true */\n      dup1\n      sload\n      not(0xff)\n      and\n        /* \"contracts/Market.sol\":9251:9255  true */\n      0x01\n        /* \"contracts/Market.sol\":9224:9255  pairsInfo[_pair].settled = true */\n      or\n      swap1\n      sstore\n        /* \"contracts/Market.sol\":8930:9278  function _cancelPair(bytes32 _pair) private {... */\n      jump\t// out\n        /* \"contracts/Market.sol\":9284:10042  function _createBet(... */\n    tag_250:\n        /* \"contracts/Market.sol\":9481:9488  bytes32 */\n      0x00\n        /* \"contracts/Market.sol\":9504:9519  bytes32 betHash */\n      dup1\n        /* \"contracts/Market.sol\":9529:9851  while(true){... */\n    tag_314:\n        /* \"contracts/Market.sol\":9664:9668  bets */\n      0x03\n        /* \"contracts/Market.sol\":9664:9675  bets.length */\n      sload\n        /* \"contracts/Market.sol\":9574:9756  abi.encodePacked(... */\n      mload(0x40)\n      not(0xffffffffffffffffffffffff)\n        /* \"#utility.yul\":11445:11447   */\n      0x60\n        /* \"#utility.yul\":11441:11456   */\n      dup12\n      dup2\n      shl\n        /* \"#utility.yul\":11437:11461   */\n      dup3\n      and\n        /* \"contracts/Market.sol\":9574:9756  abi.encodePacked(... */\n      0x20\n      dup5\n      add\n        /* \"#utility.yul\":11425:11462   */\n      mstore\n        /* \"contracts/Market.sol\":9641:9645  this */\n      address\n        /* \"#utility.yul\":11496:11511   */\n      swap1\n      shl\n        /* \"#utility.yul\":11492:11516   */\n      and\n        /* \"#utility.yul\":11478:11490   */\n      0x34\n      dup3\n      add\n        /* \"#utility.yul\":11471:11517   */\n      mstore\n        /* \"#utility.yul\":11533:11545   */\n      0x48\n      dup2\n      add\n        /* \"#utility.yul\":11526:11554   */\n      swap2\n      swap1\n      swap2\n      mstore\n        /* \"contracts/Market.sol\":9693:9708  block.timestamp */\n      timestamp\n        /* \"#utility.yul\":11570:11582   */\n      0x68\n      dup3\n      add\n        /* \"#utility.yul\":11563:11591   */\n      mstore\n        /* \"contracts/Market.sol\":9726:9742  block.difficulty */\n      difficulty\n        /* \"#utility.yul\":11607:11620   */\n      0x88\n      dup3\n      add\n        /* \"#utility.yul\":11600:11629   */\n      mstore\n        /* \"#utility.yul\":11645:11658   */\n      0xa8\n      add\n        /* \"contracts/Market.sol\":9574:9756  abi.encodePacked(... */\n      0x40\n      dup1\n      mload\n      not(0x1f)\n      dup2\n      dup5\n      sub\n      add\n      dup2\n      mstore\n      swap2\n      dup2\n      mstore\n        /* \"contracts/Market.sol\":9564:9757  keccak256(abi.encodePacked(... */\n      dup2\n      mload\n        /* \"contracts/Market.sol\":9574:9756  abi.encodePacked(... */\n      0x20\n        /* \"contracts/Market.sol\":9564:9757  keccak256(abi.encodePacked(... */\n      swap3\n      dup4\n      add\n      keccak256\n        /* \"contracts/Market.sol\":9774:9791  betsInfo[betHash] */\n      0x00\n      dup2\n      dup2\n      mstore\n        /* \"contracts/Market.sol\":9774:9782  betsInfo */\n      0x07\n        /* \"contracts/Market.sol\":9774:9791  betsInfo[betHash] */\n      swap1\n      swap4\n      mstore\n      swap2\n      keccak256\n        /* \"contracts/Market.sol\":9774:9797  betsInfo[betHash].stake */\n      0x02\n      add\n      sload\n        /* \"contracts/Market.sol\":9564:9757  keccak256(abi.encodePacked(... */\n      swap1\n      swap2\n      pop\n        /* \"contracts/Market.sol\":9529:9851  while(true){... */\n      tag_314\n        /* \"contracts/Market.sol\":9771:9841  if(betsInfo[betHash].stake == 0){... */\n      jumpi\n        /* \"contracts/Market.sol\":9880:9942  MarketBet(_better, _affiliate, _stake, _matched, _odds, _side) */\n      0x40\n      dup1\n      mload\n      0xc0\n      dup2\n      add\n      dup3\n      mstore\n      sub(shl(0xa0, 0x01), 0x01)\n      dup1\n      dup12\n      and\n      dup1\n      dup4\n      mstore\n      dup11\n      dup3\n      and\n      0x20\n      dup1\n      dup6\n      add\n      swap2\n      dup3\n      mstore\n      dup5\n      dup7\n      add\n      dup13\n      dup2\n      mstore\n      0x60\n      dup7\n      add\n      dup13\n      dup2\n      mstore\n      0x80\n      dup8\n      add\n      dup13\n      dup2\n      mstore\n      0xff\n      dup1\n      dup14\n      and\n      0xa0\n      dup11\n      add\n      swap1\n      dup2\n      mstore\n      0x00\n        /* \"contracts/Market.sol\":9860:9877  betsInfo[betHash] */\n      dup13\n      dup2\n      mstore\n        /* \"contracts/Market.sol\":9860:9868  betsInfo */\n      0x07\n        /* \"contracts/Market.sol\":9860:9877  betsInfo[betHash] */\n      dup8\n      mstore\n      dup12\n      dup2\n      keccak256\n        /* \"contracts/Market.sol\":9860:9942  betsInfo[betHash] = MarketBet(_better, _affiliate, _stake, _matched, _odds, _side) */\n      swap11\n      mload\n      dup12\n      sload\n      swap1\n      dup12\n      and\n      not(sub(shl(0xa0, 0x01), 0x01))\n      swap2\n      dup3\n      and\n      or\n      dup13\n      sstore\n      swap8\n      mload\n      0x01\n      dup1\n      dup14\n      add\n      dup1\n      sload\n      swap3\n      swap1\n      swap13\n      and\n      swap2\n      swap1\n      swap10\n      and\n      or\n      swap1\n      swap10\n      sstore\n      swap4\n      mload\n      0x02\n      dup11\n      add\n      sstore\n      swap2\n      mload\n      0x03\n      dup1\n      dup11\n      add\n      swap2\n      swap1\n      swap2\n      sstore\n      swap1\n      mload\n      0x04\n      dup10\n      add\n      sstore\n      swap2\n      mload\n      0x05\n      swap1\n      swap8\n      add\n      dup1\n      sload\n      swap8\n      swap1\n      swap2\n      and\n      not(0xff)\n      swap1\n      swap8\n      and\n      swap7\n      swap1\n      swap7\n      or\n      swap1\n      swap6\n      sstore\n        /* \"contracts/Market.sol\":9952:9970  bets.push(betHash) */\n      dup5\n      sload\n      dup1\n      dup4\n      add\n      swap1\n      swap6\n      sstore\n      0xc2575a0e9e593c00f959f8c92f12db2869c3395a3b0502d05e2516446f71f85b\n      swap1\n      swap5\n      add\n      dup7\n      swap1\n      sstore\n        /* \"contracts/Market.sol\":9980:9997  userBets[_better] */\n      swap1\n      dup3\n      mstore\n        /* \"contracts/Market.sol\":9980:9988  userBets */\n      0x08\n        /* \"contracts/Market.sol\":9980:9997  userBets[_better] */\n      dup4\n      mstore\n      swap3\n      dup2\n      keccak256\n        /* \"contracts/Market.sol\":9980:10011  userBets[_better].push(betHash) */\n      dup1\n      sload\n      swap4\n      dup5\n      add\n      dup2\n      sstore\n      dup2\n      mstore\n      keccak256\n      add\n      dup2\n      swap1\n      sstore\n        /* \"contracts/Market.sol\":9869:9876  betHash */\n      swap1\n      pop\n        /* \"contracts/Market.sol\":9284:10042  function _createBet(... */\n      swap7\n      swap6\n      pop\n      pop\n      pop\n      pop\n      pop\n      pop\n      jump\t// out\n        /* \"contracts/Market.sol\":10048:10733  function _createPair(... */\n    tag_276:\n        /* \"contracts/Market.sol\":10206:10213  bytes32 */\n      0x00\n        /* \"contracts/Market.sol\":10229:10245  bytes32 pairHash */\n      dup1\n        /* \"contracts/Market.sol\":10255:10581  while(true){... */\n    tag_322:\n        /* \"contracts/Market.sol\":10389:10394  pairs */\n      0x02\n        /* \"contracts/Market.sol\":10389:10401  pairs.length */\n      sload\n        /* \"contracts/Market.sol\":10301:10482  abi.encodePacked(... */\n      0x40\n      dup1\n      mload\n      0x20\n      dup2\n      add\n        /* \"#utility.yul\":11910:11929   */\n      dup10\n      swap1\n      mstore\n        /* \"#utility.yul\":11945:11957   */\n      swap1\n      dup2\n      add\n        /* \"#utility.yul\":11938:11966   */\n      dup8\n      swap1\n      mstore\n        /* \"#utility.yul\":11982:11994   */\n      0x60\n      dup2\n      add\n        /* \"#utility.yul\":11975:12003   */\n      swap2\n      swap1\n      swap2\n      mstore\n        /* \"contracts/Market.sol\":10419:10434  block.timestamp */\n      timestamp\n        /* \"#utility.yul\":12019:12031   */\n      0x80\n      dup3\n      add\n        /* \"#utility.yul\":12012:12040   */\n      mstore\n        /* \"contracts/Market.sol\":10452:10468  block.difficulty */\n      difficulty\n        /* \"#utility.yul\":12056:12069   */\n      0xa0\n      dup3\n      add\n        /* \"#utility.yul\":12049:12078   */\n      mstore\n        /* \"#utility.yul\":12094:12107   */\n      0xc0\n      add\n        /* \"contracts/Market.sol\":10301:10482  abi.encodePacked(... */\n      0x40\n      dup1\n      mload\n      not(0x1f)\n      dup2\n      dup5\n      sub\n      add\n      dup2\n      mstore\n      swap2\n      dup2\n      mstore\n        /* \"contracts/Market.sol\":10291:10483  keccak256(abi.encodePacked(... */\n      dup2\n      mload\n        /* \"contracts/Market.sol\":10301:10482  abi.encodePacked(... */\n      0x20\n        /* \"contracts/Market.sol\":10291:10483  keccak256(abi.encodePacked(... */\n      swap3\n      dup4\n      add\n      keccak256\n        /* \"contracts/Market.sol\":10500:10519  pairsInfo[pairHash] */\n      0x00\n      dup2\n      dup2\n      mstore\n        /* \"contracts/Market.sol\":10500:10509  pairsInfo */\n      0x09\n        /* \"contracts/Market.sol\":10500:10519  pairsInfo[pairHash] */\n      swap1\n      swap4\n      mstore\n      swap2\n      keccak256\n        /* \"contracts/Market.sol\":10500:10527  pairsInfo[pairHash].amountA */\n      0x02\n      add\n      sload\n        /* \"contracts/Market.sol\":10291:10483  keccak256(abi.encodePacked(... */\n      swap1\n      swap2\n      pop\n        /* \"contracts/Market.sol\":10255:10581  while(true){... */\n      tag_322\n        /* \"contracts/Market.sol\":10497:10571  if(pairsInfo[pairHash].amountA == 0){... */\n      jumpi\n        /* \"contracts/Market.sol\":10612:10671  MarketPair(_betHashA, _betHashB, _amountA, _amountB, false) */\n      0x40\n      dup1\n      mload\n      0xa0\n      dup2\n      add\n      dup3\n      mstore\n      swap7\n      dup8\n      mstore\n      0x20\n      dup1\n      dup9\n      add\n      swap7\n      dup8\n      mstore\n      dup8\n      dup3\n      add\n      swap6\n      dup7\n      mstore\n      0x60\n      dup9\n      add\n      swap5\n      dup6\n      mstore\n      0x00\n      0x80\n      dup10\n      add\n      dup2\n      dup2\n      mstore\n        /* \"contracts/Market.sol\":10590:10609  pairsInfo[pairHash] */\n      dup5\n      dup3\n      mstore\n        /* \"contracts/Market.sol\":10590:10599  pairsInfo */\n      0x09\n        /* \"contracts/Market.sol\":10590:10609  pairsInfo[pairHash] */\n      swap1\n      swap3\n      mstore\n      swap2\n      dup3\n      keccak256\n        /* \"contracts/Market.sol\":10590:10671  pairsInfo[pairHash] = MarketPair(_betHashA, _betHashB, _amountA, _amountB, false) */\n      swap8\n      mload\n      dup9\n      sstore\n      swap6\n      mload\n        /* \"contracts/Market.sol\":10612:10671  MarketPair(_betHashA, _betHashB, _amountA, _amountB, false) */\n      0x01\n        /* \"contracts/Market.sol\":10590:10671  pairsInfo[pairHash] = MarketPair(_betHashA, _betHashB, _amountA, _amountB, false) */\n      dup1\n      dup10\n      add\n      swap2\n      swap1\n      swap2\n      sstore\n      swap5\n      mload\n      0x02\n      dup1\n      dup10\n      add\n      swap2\n      swap1\n      swap2\n      sstore\n      swap4\n      mload\n      0x03\n      dup9\n      add\n      sstore\n      swap5\n      mload\n      0x04\n      swap1\n      swap7\n      add\n      dup1\n      sload\n      not(0xff)\n      and\n      swap7\n      iszero\n      iszero\n      swap7\n      swap1\n      swap7\n      or\n      swap1\n      swap6\n      sstore\n      pop\n        /* \"contracts/Market.sol\":10681:10701  pairs.push(pairHash) */\n      dup1\n      sload\n      swap2\n      dup3\n      add\n      dup2\n      sstore\n      swap1\n      swap2\n      mstore\n      0x405787fa12a823e0f2b7631cc41b3ba8828b3321ca811111fa75cd3aa3bb5ace\n      add\n      dup2\n      swap1\n      sstore\n        /* \"contracts/Market.sol\":10590:10609  pairsInfo[pairHash] */\n      swap1\n        /* \"contracts/Market.sol\":10048:10733  function _createPair(... */\n      jump\t// out\n        /* \"#utility.yul\":203:334   */\n    tag_328:\n      sub(shl(0xa0, 0x01), 0x01)\n        /* \"#utility.yul\":278:309   */\n      dup2\n      and\n        /* \"#utility.yul\":268:310   */\n      dup2\n      eq\n        /* \"#utility.yul\":258:328   */\n      tag_75\n      jumpi\n        /* \"#utility.yul\":324:325   */\n      0x00\n        /* \"#utility.yul\":321:322   */\n      dup1\n        /* \"#utility.yul\":314:326   */\n      revert\n        /* \"#utility.yul\":339:586   */\n    tag_26:\n        /* \"#utility.yul\":398:404   */\n      0x00\n        /* \"#utility.yul\":451:453   */\n      0x20\n        /* \"#utility.yul\":439:448   */\n      dup3\n        /* \"#utility.yul\":430:437   */\n      dup5\n        /* \"#utility.yul\":426:449   */\n      sub\n        /* \"#utility.yul\":422:454   */\n      slt\n        /* \"#utility.yul\":419:471   */\n      iszero\n      tag_337\n      jumpi\n        /* \"#utility.yul\":467:468   */\n      0x00\n        /* \"#utility.yul\":464:465   */\n      dup1\n        /* \"#utility.yul\":457:469   */\n      revert\n        /* \"#utility.yul\":419:471   */\n    tag_337:\n        /* \"#utility.yul\":506:515   */\n      dup2\n        /* \"#utility.yul\":493:516   */\n      calldataload\n        /* \"#utility.yul\":525:556   */\n      tag_338\n        /* \"#utility.yul\":550:555   */\n      dup2\n        /* \"#utility.yul\":525:556   */\n      tag_328\n      jump\t// in\n    tag_338:\n        /* \"#utility.yul\":575:580   */\n      swap4\n        /* \"#utility.yul\":339:586   */\n      swap3\n      pop\n      pop\n      pop\n      jump\t// out\n        /* \"#utility.yul\":591:1749   */\n    tag_29:\n        /* \"#utility.yul\":816:818   */\n      0x20\n        /* \"#utility.yul\":868:889   */\n      dup1\n      dup3\n      mstore\n        /* \"#utility.yul\":938:951   */\n      dup3\n      mload\n        /* \"#utility.yul\":841:859   */\n      dup3\n      dup3\n      add\n        /* \"#utility.yul\":960:982   */\n      dup2\n      swap1\n      mstore\n        /* \"#utility.yul\":787:791   */\n      0x00\n      swap2\n        /* \"#utility.yul\":816:818   */\n      swap1\n        /* \"#utility.yul\":1001:1003   */\n      0x40\n      swap1\n        /* \"#utility.yul\":1019:1037   */\n      dup2\n      dup6\n      add\n      swap1\n        /* \"#utility.yul\":1060:1075   */\n      dup7\n      dup5\n      add\n        /* \"#utility.yul\":787:791   */\n      dup6\n        /* \"#utility.yul\":1103:1723   */\n    tag_340:\n        /* \"#utility.yul\":1117:1123   */\n      dup3\n        /* \"#utility.yul\":1114:1115   */\n      dup2\n        /* \"#utility.yul\":1111:1124   */\n      lt\n        /* \"#utility.yul\":1103:1723   */\n      iszero\n      tag_342\n      jumpi\n        /* \"#utility.yul\":1176:1189   */\n      dup2\n      mload\n        /* \"#utility.yul\":1260:1269   */\n      dup1\n      mload\n      sub(shl(0xa0, 0x01), 0x01)\n        /* \"#utility.yul\":1256:1274   */\n      swap1\n      dup2\n      and\n        /* \"#utility.yul\":1244:1275   */\n      dup7\n      mstore\n        /* \"#utility.yul\":1319:1330   */\n      dup8\n      dup3\n      add\n        /* \"#utility.yul\":1313:1331   */\n      mload\n        /* \"#utility.yul\":1309:1336   */\n      and\n        /* \"#utility.yul\":1295:1307   */\n      dup8\n      dup7\n      add\n        /* \"#utility.yul\":1288:1337   */\n      mstore\n        /* \"#utility.yul\":1377:1388   */\n      dup6\n      dup2\n      add\n        /* \"#utility.yul\":1371:1389   */\n      mload\n        /* \"#utility.yul\":1357:1369   */\n      dup7\n      dup7\n      add\n        /* \"#utility.yul\":1350:1390   */\n      mstore\n        /* \"#utility.yul\":1413:1417   */\n      0x60\n        /* \"#utility.yul\":1457:1468   */\n      dup1\n      dup3\n      add\n        /* \"#utility.yul\":1451:1469   */\n      mload\n        /* \"#utility.yul\":1437:1449   */\n      swap1\n      dup7\n      add\n        /* \"#utility.yul\":1430:1470   */\n      mstore\n        /* \"#utility.yul\":1493:1497   */\n      0x80\n        /* \"#utility.yul\":1537:1548   */\n      dup1\n      dup3\n      add\n        /* \"#utility.yul\":1531:1549   */\n      mload\n        /* \"#utility.yul\":1517:1529   */\n      swap1\n      dup7\n      add\n        /* \"#utility.yul\":1510:1550   */\n      mstore\n        /* \"#utility.yul\":1220:1223   */\n      0xa0\n        /* \"#utility.yul\":1621:1632   */\n      swap1\n      dup2\n      add\n        /* \"#utility.yul\":1615:1633   */\n      mload\n        /* \"#utility.yul\":1635:1639   */\n      0xff\n        /* \"#utility.yul\":1611:1640   */\n      and\n        /* \"#utility.yul\":1597:1609   */\n      swap1\n      dup6\n      add\n        /* \"#utility.yul\":1590:1641   */\n      mstore\n        /* \"#utility.yul\":1670:1674   */\n      0xc0\n        /* \"#utility.yul\":1661:1675   */\n      swap1\n      swap4\n      add\n      swap3\n        /* \"#utility.yul\":1698:1713   */\n      swap1\n      dup6\n      add\n      swap1\n        /* \"#utility.yul\":1229:1230   */\n      0x01\n        /* \"#utility.yul\":1132:1141   */\n      add\n        /* \"#utility.yul\":1103:1723   */\n      jump(tag_340)\n    tag_342:\n      pop\n        /* \"#utility.yul\":1740:1743   */\n      swap2\n      swap8\n        /* \"#utility.yul\":591:1749   */\n      swap7\n      pop\n      pop\n      pop\n      pop\n      pop\n      pop\n      pop\n      jump\t// out\n        /* \"#utility.yul\":1946:2126   */\n    tag_40:\n        /* \"#utility.yul\":2005:2011   */\n      0x00\n        /* \"#utility.yul\":2058:2060   */\n      0x20\n        /* \"#utility.yul\":2046:2055   */\n      dup3\n        /* \"#utility.yul\":2037:2044   */\n      dup5\n        /* \"#utility.yul\":2033:2056   */\n      sub\n        /* \"#utility.yul\":2029:2061   */\n      slt\n        /* \"#utility.yul\":2026:2078   */\n      iszero\n      tag_345\n      jumpi\n        /* \"#utility.yul\":2074:2075   */\n      0x00\n        /* \"#utility.yul\":2071:2072   */\n      dup1\n        /* \"#utility.yul\":2064:2076   */\n      revert\n        /* \"#utility.yul\":2026:2078   */\n    tag_345:\n      pop\n        /* \"#utility.yul\":2097:2120   */\n      calldataload\n      swap2\n        /* \"#utility.yul\":1946:2126   */\n      swap1\n      pop\n      jump\t// out\n        /* \"#utility.yul\":2131:2287   */\n    tag_329:\n        /* \"#utility.yul\":2197:2217   */\n      dup1\n      calldataload\n        /* \"#utility.yul\":2257:2261   */\n      0xff\n        /* \"#utility.yul\":2246:2262   */\n      dup2\n      and\n        /* \"#utility.yul\":2236:2263   */\n      dup2\n      eq\n        /* \"#utility.yul\":2226:2281   */\n      tag_231\n      jumpi\n        /* \"#utility.yul\":2277:2278   */\n      0x00\n        /* \"#utility.yul\":2274:2275   */\n      dup1\n        /* \"#utility.yul\":2267:2279   */\n      revert\n        /* \"#utility.yul\":2292:2474   */\n    tag_47:\n        /* \"#utility.yul\":2349:2355   */\n      0x00\n        /* \"#utility.yul\":2402:2404   */\n      0x20\n        /* \"#utility.yul\":2390:2399   */\n      dup3\n        /* \"#utility.yul\":2381:2388   */\n      dup5\n        /* \"#utility.yul\":2377:2400   */\n      sub\n        /* \"#utility.yul\":2373:2405   */\n      slt\n        /* \"#utility.yul\":2370:2422   */\n      iszero\n      tag_349\n      jumpi\n        /* \"#utility.yul\":2418:2419   */\n      0x00\n        /* \"#utility.yul\":2415:2416   */\n      dup1\n        /* \"#utility.yul\":2408:2420   */\n      revert\n        /* \"#utility.yul\":2370:2422   */\n    tag_349:\n        /* \"#utility.yul\":2441:2468   */\n      tag_338\n        /* \"#utility.yul\":2458:2467   */\n      dup3\n        /* \"#utility.yul\":2441:2468   */\n      tag_329\n      jump\t// in\n        /* \"#utility.yul\":2915:3033   */\n    tag_330:\n        /* \"#utility.yul\":3001:3006   */\n      dup1\n        /* \"#utility.yul\":2994:3007   */\n      iszero\n        /* \"#utility.yul\":2987:3008   */\n      iszero\n        /* \"#utility.yul\":2980:2985   */\n      dup2\n        /* \"#utility.yul\":2977:3009   */\n      eq\n        /* \"#utility.yul\":2967:3027   */\n      tag_75\n      jumpi\n        /* \"#utility.yul\":3023:3024   */\n      0x00\n        /* \"#utility.yul\":3020:3021   */\n      dup1\n        /* \"#utility.yul\":3013:3025   */\n      revert\n        /* \"#utility.yul\":3038:3770   */\n    tag_60:\n        /* \"#utility.yul\":3137:3143   */\n      0x00\n        /* \"#utility.yul\":3145:3151   */\n      dup1\n        /* \"#utility.yul\":3153:3159   */\n      0x00\n        /* \"#utility.yul\":3161:3167   */\n      dup1\n        /* \"#utility.yul\":3169:3175   */\n      0x00\n        /* \"#utility.yul\":3177:3183   */\n      dup1\n        /* \"#utility.yul\":3230:3233   */\n      0xc0\n        /* \"#utility.yul\":3218:3227   */\n      dup8\n        /* \"#utility.yul\":3209:3216   */\n      dup10\n        /* \"#utility.yul\":3205:3228   */\n      sub\n        /* \"#utility.yul\":3201:3234   */\n      slt\n        /* \"#utility.yul\":3198:3251   */\n      iszero\n      tag_356\n      jumpi\n        /* \"#utility.yul\":3247:3248   */\n      0x00\n        /* \"#utility.yul\":3244:3245   */\n      dup1\n        /* \"#utility.yul\":3237:3249   */\n      revert\n        /* \"#utility.yul\":3198:3251   */\n    tag_356:\n        /* \"#utility.yul\":3286:3295   */\n      dup7\n        /* \"#utility.yul\":3273:3296   */\n      calldataload\n        /* \"#utility.yul\":3305:3336   */\n      tag_357\n        /* \"#utility.yul\":3330:3335   */\n      dup2\n        /* \"#utility.yul\":3305:3336   */\n      tag_328\n      jump\t// in\n    tag_357:\n        /* \"#utility.yul\":3355:3360   */\n      swap6\n      pop\n        /* \"#utility.yul\":3412:3414   */\n      0x20\n        /* \"#utility.yul\":3397:3415   */\n      dup8\n      add\n        /* \"#utility.yul\":3384:3416   */\n      calldataload\n        /* \"#utility.yul\":3425:3458   */\n      tag_358\n        /* \"#utility.yul\":3384:3416   */\n      dup2\n        /* \"#utility.yul\":3425:3458   */\n      tag_328\n      jump\t// in\n    tag_358:\n        /* \"#utility.yul\":3477:3484   */\n      swap5\n      pop\n        /* \"#utility.yul\":3531:3533   */\n      0x40\n        /* \"#utility.yul\":3516:3534   */\n      dup8\n      add\n        /* \"#utility.yul\":3503:3535   */\n      calldataload\n      swap4\n      pop\n        /* \"#utility.yul\":3582:3584   */\n      0x60\n        /* \"#utility.yul\":3567:3585   */\n      dup8\n      add\n        /* \"#utility.yul\":3554:3586   */\n      calldataload\n      swap3\n      pop\n        /* \"#utility.yul\":3605:3642   */\n      tag_359\n        /* \"#utility.yul\":3637:3640   */\n      0x80\n        /* \"#utility.yul\":3622:3641   */\n      dup9\n      add\n        /* \"#utility.yul\":3605:3642   */\n      tag_329\n      jump\t// in\n    tag_359:\n        /* \"#utility.yul\":3595:3642   */\n      swap2\n      pop\n        /* \"#utility.yul\":3694:3697   */\n      0xa0\n        /* \"#utility.yul\":3683:3692   */\n      dup8\n        /* \"#utility.yul\":3679:3698   */\n      add\n        /* \"#utility.yul\":3666:3699   */\n      calldataload\n        /* \"#utility.yul\":3708:3738   */\n      tag_360\n        /* \"#utility.yul\":3730:3737   */\n      dup2\n        /* \"#utility.yul\":3708:3738   */\n      tag_330\n      jump\t// in\n    tag_360:\n        /* \"#utility.yul\":3757:3764   */\n      dup1\n        /* \"#utility.yul\":3747:3764   */\n      swap2\n      pop\n      pop\n        /* \"#utility.yul\":3038:3770   */\n      swap3\n      swap6\n      pop\n      swap3\n      swap6\n      pop\n      swap3\n      swap6\n      jump\t// out\n        /* \"#utility.yul\":4361:4488   */\n    tag_80:\n        /* \"#utility.yul\":4422:4432   */\n      0x4e487b71\n        /* \"#utility.yul\":4417:4420   */\n      0xe0\n        /* \"#utility.yul\":4413:4433   */\n      shl\n        /* \"#utility.yul\":4410:4411   */\n      0x00\n        /* \"#utility.yul\":4403:4434   */\n      mstore\n        /* \"#utility.yul\":4453:4457   */\n      0x32\n        /* \"#utility.yul\":4450:4451   */\n      0x04\n        /* \"#utility.yul\":4443:4458   */\n      mstore\n        /* \"#utility.yul\":4477:4481   */\n      0x24\n        /* \"#utility.yul\":4474:4475   */\n      0x00\n        /* \"#utility.yul\":4467:4482   */\n      revert\n        /* \"#utility.yul\":4493:4620   */\n    tag_331:\n        /* \"#utility.yul\":4554:4564   */\n      0x4e487b71\n        /* \"#utility.yul\":4549:4552   */\n      0xe0\n        /* \"#utility.yul\":4545:4565   */\n      shl\n        /* \"#utility.yul\":4542:4543   */\n      0x00\n        /* \"#utility.yul\":4535:4566   */\n      mstore\n        /* \"#utility.yul\":4585:4589   */\n      0x11\n        /* \"#utility.yul\":4582:4583   */\n      0x04\n        /* \"#utility.yul\":4575:4590   */\n      mstore\n        /* \"#utility.yul\":4609:4613   */\n      0x24\n        /* \"#utility.yul\":4606:4607   */\n      0x00\n        /* \"#utility.yul\":4599:4614   */\n      revert\n        /* \"#utility.yul\":4625:4760   */\n    tag_83:\n        /* \"#utility.yul\":4664:4667   */\n      0x00\n        /* \"#utility.yul\":4685:4702   */\n      0x01\n      dup3\n      add\n        /* \"#utility.yul\":4682:4725   */\n      tag_368\n      jumpi\n        /* \"#utility.yul\":4705:4723   */\n      tag_368\n      tag_331\n      jump\t// in\n    tag_368:\n      pop\n        /* \"#utility.yul\":4752:4753   */\n      0x01\n        /* \"#utility.yul\":4741:4754   */\n      add\n      swap1\n        /* \"#utility.yul\":4625:4760   */\n      jump\t// out\n        /* \"#utility.yul\":4765:5120   */\n    tag_98:\n        /* \"#utility.yul\":4967:4969   */\n      0x20\n        /* \"#utility.yul\":4949:4970   */\n      dup1\n      dup3\n      mstore\n        /* \"#utility.yul\":5006:5008   */\n      0x1f\n        /* \"#utility.yul\":4986:5004   */\n      swap1\n      dup3\n      add\n        /* \"#utility.yul\":4979:5009   */\n      mstore\n        /* \"#utility.yul\":5045:5078   */\n      0x5265656e7472616e637947756172643a207265656e7472616e742063616c6c00\n        /* \"#utility.yul\":5040:5042   */\n      0x40\n        /* \"#utility.yul\":5025:5043   */\n      dup3\n      add\n        /* \"#utility.yul\":5018:5079   */\n      mstore\n        /* \"#utility.yul\":5111:5113   */\n      0x60\n        /* \"#utility.yul\":5096:5114   */\n      add\n      swap1\n        /* \"#utility.yul\":4765:5120   */\n      jump\t// out\n        /* \"#utility.yul\":5125:5309   */\n    tag_104:\n        /* \"#utility.yul\":5195:5201   */\n      0x00\n        /* \"#utility.yul\":5248:5250   */\n      0x20\n        /* \"#utility.yul\":5236:5245   */\n      dup3\n        /* \"#utility.yul\":5227:5234   */\n      dup5\n        /* \"#utility.yul\":5223:5246   */\n      sub\n        /* \"#utility.yul\":5219:5251   */\n      slt\n        /* \"#utility.yul\":5216:5268   */\n      iszero\n      tag_371\n      jumpi\n        /* \"#utility.yul\":5264:5265   */\n      0x00\n        /* \"#utility.yul\":5261:5262   */\n      dup1\n        /* \"#utility.yul\":5254:5266   */\n      revert\n        /* \"#utility.yul\":5216:5268   */\n    tag_371:\n      pop\n        /* \"#utility.yul\":5287:5303   */\n      mload\n      swap2\n        /* \"#utility.yul\":5125:5309   */\n      swap1\n      pop\n      jump\t// out\n        /* \"#utility.yul\":5927:6172   */\n    tag_114:\n        /* \"#utility.yul\":5994:6000   */\n      0x00\n        /* \"#utility.yul\":6047:6049   */\n      0x20\n        /* \"#utility.yul\":6035:6044   */\n      dup3\n        /* \"#utility.yul\":6026:6033   */\n      dup5\n        /* \"#utility.yul\":6022:6045   */\n      sub\n        /* \"#utility.yul\":6018:6050   */\n      slt\n        /* \"#utility.yul\":6015:6067   */\n      iszero\n      tag_375\n      jumpi\n        /* \"#utility.yul\":6063:6064   */\n      0x00\n        /* \"#utility.yul\":6060:6061   */\n      dup1\n        /* \"#utility.yul\":6053:6065   */\n      revert\n        /* \"#utility.yul\":6015:6067   */\n    tag_375:\n        /* \"#utility.yul\":6095:6104   */\n      dup2\n        /* \"#utility.yul\":6089:6105   */\n      mload\n        /* \"#utility.yul\":6114:6142   */\n      tag_338\n        /* \"#utility.yul\":6136:6141   */\n      dup2\n        /* \"#utility.yul\":6114:6142   */\n      tag_330\n      jump\t// in\n        /* \"#utility.yul\":6514:6642   */\n    tag_119:\n        /* \"#utility.yul\":6581:6590   */\n      dup2\n      dup2\n      sub\n        /* \"#utility.yul\":6602:6613   */\n      dup2\n      dup2\n      gt\n        /* \"#utility.yul\":6599:6636   */\n      iszero\n      tag_380\n      jumpi\n        /* \"#utility.yul\":6616:6634   */\n      tag_380\n      tag_331\n      jump\t// in\n    tag_380:\n        /* \"#utility.yul\":6514:6642   */\n      swap3\n      swap2\n      pop\n      pop\n      jump\t// out\n        /* \"#utility.yul\":7666:7834   */\n    tag_152:\n        /* \"#utility.yul\":7739:7748   */\n      dup1\n      dup3\n      mul\n        /* \"#utility.yul\":7770:7779   */\n      dup2\n      iszero\n        /* \"#utility.yul\":7787:7802   */\n      dup3\n      dup3\n      div\n        /* \"#utility.yul\":7781:7803   */\n      dup5\n      eq\n        /* \"#utility.yul\":7767:7804   */\n      or\n        /* \"#utility.yul\":7757:7828   */\n      tag_380\n      jumpi\n        /* \"#utility.yul\":7808:7826   */\n      tag_380\n      tag_331\n      jump\t// in\n        /* \"#utility.yul\":7839:8056   */\n    tag_154:\n        /* \"#utility.yul\":7879:7880   */\n      0x00\n        /* \"#utility.yul\":7905:7906   */\n      dup3\n        /* \"#utility.yul\":7895:8027   */\n      tag_388\n      jumpi\n        /* \"#utility.yul\":7949:7959   */\n      0x4e487b71\n        /* \"#utility.yul\":7944:7947   */\n      0xe0\n        /* \"#utility.yul\":7940:7960   */\n      shl\n        /* \"#utility.yul\":7937:7938   */\n      0x00\n        /* \"#utility.yul\":7930:7961   */\n      mstore\n        /* \"#utility.yul\":7984:7988   */\n      0x12\n        /* \"#utility.yul\":7981:7982   */\n      0x04\n        /* \"#utility.yul\":7974:7989   */\n      mstore\n        /* \"#utility.yul\":8012:8016   */\n      0x24\n        /* \"#utility.yul\":8009:8010   */\n      0x00\n        /* \"#utility.yul\":8002:8017   */\n      revert\n        /* \"#utility.yul\":7895:8027   */\n    tag_388:\n      pop\n        /* \"#utility.yul\":8041:8050   */\n      div\n      swap1\n        /* \"#utility.yul\":7839:8056   */\n      jump\t// out\n        /* \"#utility.yul\":8061:8186   */\n    tag_156:\n        /* \"#utility.yul\":8126:8135   */\n      dup1\n      dup3\n      add\n        /* \"#utility.yul\":8147:8157   */\n      dup1\n      dup3\n      gt\n        /* \"#utility.yul\":8144:8180   */\n      iszero\n      tag_380\n      jumpi\n        /* \"#utility.yul\":8160:8178   */\n      tag_380\n      tag_331\n      jump\t// in\n        /* \"#utility.yul\":8524:8775   */\n    tag_183:\n        /* \"#utility.yul\":8594:8600   */\n      0x00\n        /* \"#utility.yul\":8647:8649   */\n      0x20\n        /* \"#utility.yul\":8635:8644   */\n      dup3\n        /* \"#utility.yul\":8626:8633   */\n      dup5\n        /* \"#utility.yul\":8622:8645   */\n      sub\n        /* \"#utility.yul\":8618:8650   */\n      slt\n        /* \"#utility.yul\":8615:8667   */\n      iszero\n      tag_394\n      jumpi\n        /* \"#utility.yul\":8663:8664   */\n      0x00\n        /* \"#utility.yul\":8660:8661   */\n      dup1\n        /* \"#utility.yul\":8653:8665   */\n      revert\n        /* \"#utility.yul\":8615:8667   */\n    tag_394:\n        /* \"#utility.yul\":8695:8704   */\n      dup2\n        /* \"#utility.yul\":8689:8705   */\n      mload\n        /* \"#utility.yul\":8714:8745   */\n      tag_338\n        /* \"#utility.yul\":8739:8744   */\n      dup2\n        /* \"#utility.yul\":8714:8745   */\n      tag_328\n      jump\t// in\n\n    auxdata: 0xa264697066735822122032ac84d7fb28a8a2b66abf574e6b757dcf447c40b30655d4621ec6c7a3dd753464736f6c63430008110033\n}\n",
				"bytecode": {
					"linkReferences": {},
					"object": "60c06040526005805460ff191690556001546001600160a01b031660a05234801561002957600080fd5b506001600081905580546001600160a01b031916339081179091556040805162966ed960e31b815290516304b376c8916004808201926020929091908290030181865afa15801561007e573d6000803e3d6000fd5b505050506040513d601f19601f820116820180604052508101906100a291906100b3565b6001600160a01b03166080526100e3565b6000602082840312156100c557600080fd5b81516001600160a01b03811681146100dc57600080fd5b9392505050565b60805160a051611dfe620001646000396000818161018b015281816107b9015281816108790152818161099d01528181610a5d01528181610b7801528181610c2e01528181610cc801528181610d8201528181610e1c01528181610ed6015261120f0152600081816102270152818161042b01526105010152611dfe6000f3fe608060405234801561001057600080fd5b50600436106100cf5760003560e01c8063893372ca1161008c578063c45a015511610066578063c45a0155146101c5578063c7b448bd146101d8578063f8b2cb4f146101f9578063fc0c546a1461022257600080fd5b8063893372ca146101605780638f2c488514610173578063b76564bd1461018657600080fd5b80630d68ecb0146100d4578063200d2ed2146100de5780632d56657d1461010257806351cff8d9146101225780636bfefd6b1461014557806374393a9b1461014d575b600080fd5b6100dc610249565b005b6005546100eb9060ff1681565b60405160ff90911681526020015b60405180910390f35b610115610110366004611b28565b610291565b6040516100f99190611b4c565b610135610130366004611b28565b6103c8565b60405190151581526020016100f9565b6101356105e8565b6100dc61015b366004611bd3565b610698565b6100dc61016e366004611bd3565b610fbf565b610135610181366004611bfd565b611140565b6101ad7f000000000000000000000000000000000000000000000000000000000000000081565b6040516001600160a01b0390911681526020016100f9565b6001546101ad906001600160a01b031681565b6101eb6101e6366004611c26565b6111f7565b6040519081526020016100f9565b6101eb610207366004611b28565b6001600160a01b031660009081526006602052604090205490565b6101ad7f000000000000000000000000000000000000000000000000000000000000000081565b60005b60025481101561028e5761027c6002828154811061026c5761026c611c94565b9060005260206000200154610698565b8061028681611cc0565b91505061024c565b50565b6001600160a01b03811660009081526008602090815260408083208054825181850281018501909352808352606094859490939291908301828280156102f657602002820191906000526020600020905b8154815260200190600101908083116102e2575b5050505050905060005b6003548110156103bf576007600083838151811061032057610320611c94565b6020908102919091018101518252818101929092526040908101600020815160c08101835281546001600160a01b0390811682526001830154169381019390935260028101549183019190915260038101546060830152600481015460808301526005015460ff1660a082015283518490839081106103a1576103a1611c94565b602002602001018190525080806103b790611cc0565b915050610300565b50909392505050565b60006002600054036103f55760405162461bcd60e51b81526004016103ec90611cd9565b60405180910390fd5b600260009081556001600160a01b03838116825260066020526040918290205491516370a0823160e01b815230600482015282917f000000000000000000000000000000000000000000000000000000000000000016906370a0823190602401602060405180830381865afa158015610472573d6000803e3d6000fd5b505050506040513d601f19601f820116820180604052508101906104969190611d10565b1180156104a35750600081115b6104d85760405162461bcd60e51b81526020600482015260066024820152650f08199d5b9960d21b60448201526064016103ec565b60405163a9059cbb60e01b81526001600160a01b038481166004830152602482018390526000917f00000000000000000000000000000000000000000000000000000000000000009091169063a9059cbb906044016020604051808303816000875af115801561054c573d6000803e3d6000fd5b505050506040513d601f19601f820116820180604052508101906105709190611d29565b9050806105ab5760405162461bcd60e51b8152602060048201526009602482015268151e0811985a5b195960ba1b60448201526064016103ec565b6001600160a01b038416600090815260066020526040812080548492906105d3908490611d46565b90915550600193505050506001600055919050565b6001546000906001600160a01b0316331461062f5760405162461bcd60e51b81526020600482015260076024820152666f776e6572206f60c81b60448201526064016103ec565b60055460ff161561063f57600080fd5b60005b600254811015610684576106726002828154811061066257610662611c94565b90600052602060002001546117e6565b8061067c81611cc0565b915050610642565b50506005805460ff19166003179055600190565b6002600054036106ba5760405162461bcd60e51b81526004016103ec90611cd9565b600260009081558181526009602052604090206004015460ff16156107135760405162461bcd60e51b815260206004820152600f60248201526e185b1c9958591e481cd95d1d1b1959608a1b60448201526064016103ec565b60055460ff166001148061072c575060055460ff166002145b6107665760405162461bcd60e51b815260206004820152600b60248201526a1dda5b881b9bdd081cd95d60aa1b60448201526064016103ec565b60055460009081908190819060ff1660010361095057600085815260096020908152604080832054835260078252918290205482516355c4a8bf60e01b815292516001600160a01b0391821697506064937f0000000000000000000000000000000000000000000000000000000000000000909216926355c4a8bf92600480820193918290030181865afa158015610802573d6000803e3d6000fd5b505050506040513d601f19601f820116820180604052508101906108269190611d10565b610831906064611d46565b60008781526009602052604090206003015461084d9190611d5f565b6108579190611d76565b6000868152600960205260409020600201546108739190611d98565b915060647f00000000000000000000000000000000000000000000000000000000000000006001600160a01b03166355c4a8bf6040518163ffffffff1660e01b8152600401602060405180830381865afa1580156108d5573d6000803e3d6000fd5b505050506040513d601f19601f820116820180604052508101906108f99190611d10565b6000878152600960205260409020600301546109159190611d5f565b61091f9190611d76565b600086815260096020908152604080832054835260079091529020600101546001600160a01b031693509050610b68565b60055460ff16600203610b3857600085815260096020908152604080832060010154835260078252918290205482516355c4a8bf60e01b815292516001600160a01b0391821697506064937f0000000000000000000000000000000000000000000000000000000000000000909216926355c4a8bf92600480820193918290030181865afa1580156109e6573d6000803e3d6000fd5b505050506040513d601f19601f82011682018060405250810190610a0a9190611d10565b610a15906064611d46565b600087815260096020526040902060020154610a319190611d5f565b610a3b9190611d76565b600086815260096020526040902060030154610a579190611d98565b915060647f00000000000000000000000000000000000000000000000000000000000000006001600160a01b03166355c4a8bf6040518163ffffffff1660e01b8152600401602060405180830381865afa158015610ab9573d6000803e3d6000fd5b505050506040513d601f19601f82011682018060405250810190610add9190611d10565b600087815260096020526040902060020154610af99190611d5f565b610b039190611d76565b60008681526009602090815260408083206001908101548452600790925290912001546001600160a01b031693509050610b68565b60405162461bcd60e51b81526020600482015260056024820152643c103bb4b760d91b60448201526064016103ec565b6001600160a01b038316610bfb577f00000000000000000000000000000000000000000000000000000000000000006001600160a01b03166309953b2f6040518163ffffffff1660e01b8152600401602060405180830381865afa158015610bd4573d6000803e3d6000fd5b505050506040513d601f19601f82011682018060405250810190610bf89190611dab565b92505b6001600160a01b03841660009081526006602052604081208054849290610c23908490611d98565b9250508190555060647f00000000000000000000000000000000000000000000000000000000000000006001600160a01b0316636a0ccd9d6040518163ffffffff1660e01b8152600401602060405180830381865afa158015610c8a573d6000803e3d6000fd5b505050506040513d601f19601f82011682018060405250810190610cae9190611d10565b610cb89083611d5f565b610cc29190611d76565b600660007f00000000000000000000000000000000000000000000000000000000000000006001600160a01b031663b7640a546040518163ffffffff1660e01b8152600401602060405180830381865afa158015610d24573d6000803e3d6000fd5b505050506040513d601f19601f82011682018060405250810190610d489190611dab565b6001600160a01b03166001600160a01b031681526020019081526020016000206000828254610d779190611d98565b9250508190555060647f00000000000000000000000000000000000000000000000000000000000000006001600160a01b03166328576d456040518163ffffffff1660e01b8152600401602060405180830381865afa158015610dde573d6000803e3d6000fd5b505050506040513d601f19601f82011682018060405250810190610e029190611d10565b610e0c9083611d5f565b610e169190611d76565b600660007f00000000000000000000000000000000000000000000000000000000000000006001600160a01b03166309953b2f6040518163ffffffff1660e01b8152600401602060405180830381865afa158015610e78573d6000803e3d6000fd5b505050506040513d601f19601f82011682018060405250810190610e9c9190611dab565b6001600160a01b03166001600160a01b031681526020019081526020016000206000828254610ecb9190611d98565b9250508190555060647f00000000000000000000000000000000000000000000000000000000000000006001600160a01b03166354cd1a5c6040518163ffffffff1660e01b8152600401602060405180830381865afa158015610f32573d6000803e3d6000fd5b505050506040513d601f19601f82011682018060405250810190610f569190611d10565b610f609083611d5f565b610f6a9190611d76565b6001600160a01b03841660009081526006602052604081208054909190610f92908490611d98565b9091555050506000848152600960205260409020600401805460ff19166001179055505050506001600055565b600260005403610fe15760405162461bcd60e51b81526004016103ec90611cd9565b6002600081815582815260076020908152604091829020825160c08101845281546001600160a01b039081168083526001840154909116938201939093529381015492840192909252600382015460608401526004820154608084015260059091015460ff1660a0830152331461108b5760405162461bcd60e51b815260206004820152600e60248201526d626574206f776e6572206f6e6c7960901b60448201526064016103ec565b6000816060015182604001516110a19190611d46565b82516001600160a01b031660009081526006602090815260408083208490558086015187845260079092528220600301559091505b6004548110156111355783600482815481106110f4576110f4611c94565b906000526020600020015403611123576004818154811061111757611117611c94565b60009182526020822001555b8061112d81611cc0565b9150506110d6565b505060016000555050565b6001546000906001600160a01b031633146111875760405162461bcd60e51b81526020600482015260076024820152666f776e6572206f60c81b60448201526064016103ec565b60055460ff161580156111aa57508160ff16600114806111aa57508160ff166002145b6111df5760405162461bcd60e51b815260206004820152600660248201526510bc103bb4b760d11b60448201526064016103ec565b506005805460ff191660ff831617905560015b919050565b60405163332daccf60e01b81523360048201526000907f00000000000000000000000000000000000000000000000000000000000000006001600160a01b03169063332daccf90602401602060405180830381865afa15801561125e573d6000803e3d6000fd5b505050506040513d601f19601f820116820180604052508101906112829190611d29565b156112bb5760405162461bcd60e51b8152602060048201526009602482015268189b1858dadb1a5cdd60ba1b60448201526064016103ec565b8260ff16600114806112d057508260ff166002145b61130b5760405162461bcd60e51b815260206004820152600c60248201526b696e76616c6964207369646560a01b60448201526064016103ec565b600061131c888888600089896118a1565b6004549091501561174e57855b670de0b6b3a764000081106117485760008060005b6004548110156113da5760006004828154811061135d5761135d611c94565b6000918252602080832090910154808352600790915260409091206005015490915060ff908116908a160361139257506113c8565b6000818152600760205260409020600401548310156113c65760008181526007602052604090206004015491935090915082905b505b806113d281611cc0565b91505061133e565b50878111806113e65750855b156117055760006004838154811061140057611400611c94565b6000918252602080832090910154808352600782526040808420815160c08101835281546001600160a01b0390811682526001808401549091169582019590955260028201549281019290925260038101546060830152600481015460808301526005015460ff1660a0820152909350919061147c908c611d46565b826060015183604001516114909190611d46565b61149a9190611d76565b905060008060008e841161158e578392506114b660018f611d46565b6114c09085611d5f565b91508c60ff1660010361152a576114d98a878585611a14565b604080518c815260208101899052908101859052606081018490529091507f5de48bb383b4a2aaad84721b80d93429b813651b0eefbd59d32018cfe28215dc906080015b60405180910390a1611623565b8c60ff1660020361158957611541868b8486611a14565b60408051888152602081018d9052908101849052606081018590529091507f5de48bb383b4a2aaad84721b80d93429b813651b0eefbd59d32018cfe28215dc9060800161151d565b611623565b8e925061159c60018f611d46565b8f6115a79190611d5f565b91508c60ff166001036115c0576114d98a878585611a14565b8c60ff16600203611623576115d7868b8486611a14565b60408051888152602081018d9052908101849052606081018590529091507f5de48bb383b4a2aaad84721b80d93429b813651b0eefbd59d32018cfe28215dc9060800160405180910390a15b60008a8152600a6020908152604080832080546001818101835591855283852001859055898452818420805491820181558452828420018490558c835260079091528120600301805485929061167a908490611d98565b9091555050600086815260076020526040812060030180548492906116a0908490611d98565b9091555050600086815260076020526040902060038101546002909101546116c89190611d46565b6000036116ee57600488815481106116e2576116e2611c94565b60009182526020822001555b6116f8838a611d46565b9850505050505050611741565b5050600480546001810182556000919091527f8a35acfbc15ff81a39ae7d344fd709f28e8600b4aa8c65c6b64bfe7fe36bd19b01829055611748565b5050611329565b50611784565b600480546001810182556000919091527f8a35acfbc15ff81a39ae7d344fd709f28e8600b4aa8c65c6b64bfe7fe36bd19b018190555b60408051338152306020820152908101829052606081018790526080810186905260ff851660a08201527fae1f00f8ca5df624acfa3bc85eccdde83b05574d6c39203c4f6e0a7f9a69ac829060c00160405180910390a1979650505050505050565b600081815260096020908152604080832080548452600783528184205460018201548552828520546002909201546001600160a01b03918216808752600690955292852080549495919092169361183e908490611d98565b90915550506000838152600960209081526040808320600301546001600160a01b03851684526006909252822080549192909161187c908490611d98565b909155505050600091825250600960205260409020600401805460ff19166001179055565b6000805b6003546040516bffffffffffffffffffffffff1960608b811b8216602084015230901b166034820152604881019190915242606882015244608882015260a80160408051601f198184030181529181528151602092830120600081815260079093529120600201549091506118a5576040805160c0810182526001600160a01b03808b168083528a821660208085019182528486018c8152606086018c8152608087018c815260ff808d1660a08a0190815260008c8152600787528b81209a518b54908b166001600160a01b0319918216178c5597516001808d01805492909c169190991617909955935160028a015591516003808a0191909155905160048901559151600590970180549790911660ff199097169690961790955584548083019095557fc2575a0e9e593c00f959f8c92f12db2869c3395a3b0502d05e2516446f71f85b90940186905590825260088352928120805493840181558152200181905590509695505050505050565b6000805b600254604080516020810189905290810187905260608101919091524260808201524460a082015260c00160408051601f19818403018152918152815160209283012060008181526009909352912060020154909150611a18576040805160a081018252968752602080880196875287820195865260608801948552600060808901818152848252600990925291822097518855955160018089019190915594516002808901919091559351600388015594516004909601805460ff19169615159690961790955550805491820181559091527f405787fa12a823e0f2b7631cc41b3ba8828b3321ca811111fa75cd3aa3bb5ace0181905590565b6001600160a01b038116811461028e57600080fd5b600060208284031215611b3a57600080fd5b8135611b4581611b13565b9392505050565b602080825282518282018190526000919060409081850190868401855b82811015611bc657815180516001600160a01b0390811686528782015116878601528581015186860152606080820151908601526080808201519086015260a09081015160ff169085015260c09093019290850190600101611b69565b5091979650505050505050565b600060208284031215611be557600080fd5b5035919050565b803560ff811681146111f257600080fd5b600060208284031215611c0f57600080fd5b611b4582611bec565b801515811461028e57600080fd5b60008060008060008060c08789031215611c3f57600080fd5b8635611c4a81611b13565b95506020870135611c5a81611b13565b94506040870135935060608701359250611c7660808801611bec565b915060a0870135611c8681611c18565b809150509295509295509295565b634e487b7160e01b600052603260045260246000fd5b634e487b7160e01b600052601160045260246000fd5b600060018201611cd257611cd2611caa565b5060010190565b6020808252601f908201527f5265656e7472616e637947756172643a207265656e7472616e742063616c6c00604082015260600190565b600060208284031215611d2257600080fd5b5051919050565b600060208284031215611d3b57600080fd5b8151611b4581611c18565b81810381811115611d5957611d59611caa565b92915050565b8082028115828204841417611d5957611d59611caa565b600082611d9357634e487b7160e01b600052601260045260246000fd5b500490565b80820180821115611d5957611d59611caa565b600060208284031215611dbd57600080fd5b8151611b4581611b1356fea264697066735822122032ac84d7fb28a8a2b66abf574e6b757dcf447c40b30655d4621ec6c7a3dd753464736f6c63430008110033",
					"opcodes": "PUSH1 0xC0 PUSH1 0x40 MSTORE PUSH1 0x5 DUP1 SLOAD PUSH1 0xFF NOT AND SWAP1 SSTORE PUSH1 0x1 SLOAD PUSH1 0x1 PUSH1 0x1 PUSH1 0xA0 SHL SUB AND PUSH1 0xA0 MSTORE CALLVALUE DUP1 ISZERO PUSH2 0x29 JUMPI PUSH1 0x0 DUP1 REVERT JUMPDEST POP PUSH1 0x1 PUSH1 0x0 DUP2 SWAP1 SSTORE DUP1 SLOAD PUSH1 0x1 PUSH1 0x1 PUSH1 0xA0 SHL SUB NOT AND CALLER SWAP1 DUP2 OR SWAP1 SWAP2 SSTORE PUSH1 0x40 DUP1 MLOAD PUSH3 0x966ED9 PUSH1 0xE3 SHL DUP2 MSTORE SWAP1 MLOAD PUSH4 0x4B376C8 SWAP2 PUSH1 0x4 DUP1 DUP3 ADD SWAP3 PUSH1 0x20 SWAP3 SWAP1 SWAP2 SWAP1 DUP3 SWAP1 SUB ADD DUP2 DUP7 GAS STATICCALL ISZERO DUP1 ISZERO PUSH2 0x7E JUMPI RETURNDATASIZE PUSH1 0x0 DUP1 RETURNDATACOPY RETURNDATASIZE PUSH1 0x0 REVERT JUMPDEST POP POP POP POP PUSH1 0x40 MLOAD RETURNDATASIZE PUSH1 0x1F NOT PUSH1 0x1F DUP3 ADD AND DUP3 ADD DUP1 PUSH1 0x40 MSTORE POP DUP2 ADD SWAP1 PUSH2 0xA2 SWAP2 SWAP1 PUSH2 0xB3 JUMP JUMPDEST PUSH1 0x1 PUSH1 0x1 PUSH1 0xA0 SHL SUB AND PUSH1 0x80 MSTORE PUSH2 0xE3 JUMP JUMPDEST PUSH1 0x0 PUSH1 0x20 DUP3 DUP5 SUB SLT ISZERO PUSH2 0xC5 JUMPI PUSH1 0x0 DUP1 REVERT JUMPDEST DUP2 MLOAD PUSH1 0x1 PUSH1 0x1 PUSH1 0xA0 SHL SUB DUP2 AND DUP2 EQ PUSH2 0xDC JUMPI PUSH1 0x0 DUP1 REVERT JUMPDEST SWAP4 SWAP3 POP POP POP JUMP JUMPDEST PUSH1 0x80 MLOAD PUSH1 0xA0 MLOAD PUSH2 0x1DFE PUSH3 0x164 PUSH1 0x0 CODECOPY PUSH1 0x0 DUP2 DUP2 PUSH2 0x18B ADD MSTORE DUP2 DUP2 PUSH2 0x7B9 ADD MSTORE DUP2 DUP2 PUSH2 0x879 ADD MSTORE DUP2 DUP2 PUSH2 0x99D ADD MSTORE DUP2 DUP2 PUSH2 0xA5D ADD MSTORE DUP2 DUP2 PUSH2 0xB78 ADD MSTORE DUP2 DUP2 PUSH2 0xC2E ADD MSTORE DUP2 DUP2 PUSH2 0xCC8 ADD MSTORE DUP2 DUP2 PUSH2 0xD82 ADD MSTORE DUP2 DUP2 PUSH2 0xE1C ADD MSTORE DUP2 DUP2 PUSH2 0xED6 ADD MSTORE PUSH2 0x120F ADD MSTORE PUSH1 0x0 DUP2 DUP2 PUSH2 0x227 ADD MSTORE DUP2 DUP2 PUSH2 0x42B ADD MSTORE PUSH2 0x501 ADD MSTORE PUSH2 0x1DFE PUSH1 0x0 RETURN INVALID PUSH1 0x80 PUSH1 0x40 MSTORE CALLVALUE DUP1 ISZERO PUSH2 0x10 JUMPI PUSH1 0x0 DUP1 REVERT JUMPDEST POP PUSH1 0x4 CALLDATASIZE LT PUSH2 0xCF JUMPI PUSH1 0x0 CALLDATALOAD PUSH1 0xE0 SHR DUP1 PUSH4 0x893372CA GT PUSH2 0x8C JUMPI DUP1 PUSH4 0xC45A0155 GT PUSH2 0x66 JUMPI DUP1 PUSH4 0xC45A0155 EQ PUSH2 0x1C5 JUMPI DUP1 PUSH4 0xC7B448BD EQ PUSH2 0x1D8 JUMPI DUP1 PUSH4 0xF8B2CB4F EQ PUSH2 0x1F9 JUMPI DUP1 PUSH4 0xFC0C546A EQ PUSH2 0x222 JUMPI PUSH1 0x0 DUP1 REVERT JUMPDEST DUP1 PUSH4 0x893372CA EQ PUSH2 0x160 JUMPI DUP1 PUSH4 0x8F2C4885 EQ PUSH2 0x173 JUMPI DUP1 PUSH4 0xB76564BD EQ PUSH2 0x186 JUMPI PUSH1 0x0 DUP1 REVERT JUMPDEST DUP1 PUSH4 0xD68ECB0 EQ PUSH2 0xD4 JUMPI DUP1 PUSH4 0x200D2ED2 EQ PUSH2 0xDE JUMPI DUP1 PUSH4 0x2D56657D EQ PUSH2 0x102 JUMPI DUP1 PUSH4 0x51CFF8D9 EQ PUSH2 0x122 JUMPI DUP1 PUSH4 0x6BFEFD6B EQ PUSH2 0x145 JUMPI DUP1 PUSH4 0x74393A9B EQ PUSH2 0x14D JUMPI JUMPDEST PUSH1 0x0 DUP1 REVERT JUMPDEST PUSH2 0xDC PUSH2 0x249 JUMP JUMPDEST STOP JUMPDEST PUSH1 0x5 SLOAD PUSH2 0xEB SWAP1 PUSH1 0xFF AND DUP2 JUMP JUMPDEST PUSH1 0x40 MLOAD PUSH1 0xFF SWAP1 SWAP2 AND DUP2 MSTORE PUSH1 0x20 ADD JUMPDEST PUSH1 0x40 MLOAD DUP1 SWAP2 SUB SWAP1 RETURN JUMPDEST PUSH2 0x115 PUSH2 0x110 CALLDATASIZE PUSH1 0x4 PUSH2 0x1B28 JUMP JUMPDEST PUSH2 0x291 JUMP JUMPDEST PUSH1 0x40 MLOAD PUSH2 0xF9 SWAP2 SWAP1 PUSH2 0x1B4C JUMP JUMPDEST PUSH2 0x135 PUSH2 0x130 CALLDATASIZE PUSH1 0x4 PUSH2 0x1B28 JUMP JUMPDEST PUSH2 0x3C8 JUMP JUMPDEST PUSH1 0x40 MLOAD SWAP1 ISZERO ISZERO DUP2 MSTORE PUSH1 0x20 ADD PUSH2 0xF9 JUMP JUMPDEST PUSH2 0x135 PUSH2 0x5E8 JUMP JUMPDEST PUSH2 0xDC PUSH2 0x15B CALLDATASIZE PUSH1 0x4 PUSH2 0x1BD3 JUMP JUMPDEST PUSH2 0x698 JUMP JUMPDEST PUSH2 0xDC PUSH2 0x16E CALLDATASIZE PUSH1 0x4 PUSH2 0x1BD3 JUMP JUMPDEST PUSH2 0xFBF JUMP JUMPDEST PUSH2 0x135 PUSH2 0x181 CALLDATASIZE PUSH1 0x4 PUSH2 0x1BFD JUMP JUMPDEST PUSH2 0x1140 JUMP JUMPDEST PUSH2 0x1AD PUSH32 0x0 DUP2 JUMP JUMPDEST PUSH1 0x40 MLOAD PUSH1 0x1 PUSH1 0x1 PUSH1 0xA0 SHL SUB SWAP1 SWAP2 AND DUP2 MSTORE PUSH1 0x20 ADD PUSH2 0xF9 JUMP JUMPDEST PUSH1 0x1 SLOAD PUSH2 0x1AD SWAP1 PUSH1 0x1 PUSH1 0x1 PUSH1 0xA0 SHL SUB AND DUP2 JUMP JUMPDEST PUSH2 0x1EB PUSH2 0x1E6 CALLDATASIZE PUSH1 0x4 PUSH2 0x1C26 JUMP JUMPDEST PUSH2 0x11F7 JUMP JUMPDEST PUSH1 0x40 MLOAD SWAP1 DUP2 MSTORE PUSH1 0x20 ADD PUSH2 0xF9 JUMP JUMPDEST PUSH2 0x1EB PUSH2 0x207 CALLDATASIZE PUSH1 0x4 PUSH2 0x1B28 JUMP JUMPDEST PUSH1 0x1 PUSH1 0x1 PUSH1 0xA0 SHL SUB AND PUSH1 0x0 SWAP1 DUP2 MSTORE PUSH1 0x6 PUSH1 0x20 MSTORE PUSH1 0x40 SWAP1 KECCAK256 SLOAD SWAP1 JUMP JUMPDEST PUSH2 0x1AD PUSH32 0x0 DUP2 JUMP JUMPDEST PUSH1 0x0 JUMPDEST PUSH1 0x2 SLOAD DUP2 LT ISZERO PUSH2 0x28E JUMPI PUSH2 0x27C PUSH1 0x2 DUP3 DUP2 SLOAD DUP2 LT PUSH2 0x26C JUMPI PUSH2 0x26C PUSH2 0x1C94 JUMP JUMPDEST SWAP1 PUSH1 0x0 MSTORE PUSH1 0x20 PUSH1 0x0 KECCAK256 ADD SLOAD PUSH2 0x698 JUMP JUMPDEST DUP1 PUSH2 0x286 DUP2 PUSH2 0x1CC0 JUMP JUMPDEST SWAP2 POP POP PUSH2 0x24C JUMP JUMPDEST POP JUMP JUMPDEST PUSH1 0x1 PUSH1 0x1 PUSH1 0xA0 SHL SUB DUP2 AND PUSH1 0x0 SWAP1 DUP2 MSTORE PUSH1 0x8 PUSH1 0x20 SWAP1 DUP2 MSTORE PUSH1 0x40 DUP1 DUP4 KECCAK256 DUP1 SLOAD DUP3 MLOAD DUP2 DUP6 MUL DUP2 ADD DUP6 ADD SWAP1 SWAP4 MSTORE DUP1 DUP4 MSTORE PUSH1 0x60 SWAP5 DUP6 SWAP5 SWAP1 SWAP4 SWAP3 SWAP2 SWAP1 DUP4 ADD DUP3 DUP3 DUP1 ISZERO PUSH2 0x2F6 JUMPI PUSH1 0x20 MUL DUP3 ADD SWAP2 SWAP1 PUSH1 0x0 MSTORE PUSH1 0x20 PUSH1 0x0 KECCAK256 SWAP1 JUMPDEST DUP2 SLOAD DUP2 MSTORE PUSH1 0x20 ADD SWAP1 PUSH1 0x1 ADD SWAP1 DUP1 DUP4 GT PUSH2 0x2E2 JUMPI JUMPDEST POP POP POP POP POP SWAP1 POP PUSH1 0x0 JUMPDEST PUSH1 0x3 SLOAD DUP2 LT ISZERO PUSH2 0x3BF JUMPI PUSH1 0x7 PUSH1 0x0 DUP4 DUP4 DUP2 MLOAD DUP2 LT PUSH2 0x320 JUMPI PUSH2 0x320 PUSH2 0x1C94 JUMP JUMPDEST PUSH1 0x20 SWAP1 DUP2 MUL SWAP2 SWAP1 SWAP2 ADD DUP2 ADD MLOAD DUP3 MSTORE DUP2 DUP2 ADD SWAP3 SWAP1 SWAP3 MSTORE PUSH1 0x40 SWAP1 DUP2 ADD PUSH1 0x0 KECCAK256 DUP2 MLOAD PUSH1 0xC0 DUP2 ADD DUP4 MSTORE DUP2 SLOAD PUSH1 0x1 PUSH1 0x1 PUSH1 0xA0 SHL SUB SWAP1 DUP2 AND DUP3 MSTORE PUSH1 0x1 DUP4 ADD SLOAD AND SWAP4 DUP2 ADD SWAP4 SWAP1 SWAP4 MSTORE PUSH1 0x2 DUP2 ADD SLOAD SWAP2 DUP4 ADD SWAP2 SWAP1 SWAP2 MSTORE PUSH1 0x3 DUP2 ADD SLOAD PUSH1 0x60 DUP4 ADD MSTORE PUSH1 0x4 DUP2 ADD SLOAD PUSH1 0x80 DUP4 ADD MSTORE PUSH1 0x5 ADD SLOAD PUSH1 0xFF AND PUSH1 0xA0 DUP3 ADD MSTORE DUP4 MLOAD DUP5 SWAP1 DUP4 SWAP1 DUP2 LT PUSH2 0x3A1 JUMPI PUSH2 0x3A1 PUSH2 0x1C94 JUMP JUMPDEST PUSH1 0x20 MUL PUSH1 0x20 ADD ADD DUP2 SWAP1 MSTORE POP DUP1 DUP1 PUSH2 0x3B7 SWAP1 PUSH2 0x1CC0 JUMP JUMPDEST SWAP2 POP POP PUSH2 0x300 JUMP JUMPDEST POP SWAP1 SWAP4 SWAP3 POP POP POP JUMP JUMPDEST PUSH1 0x0 PUSH1 0x2 PUSH1 0x0 SLOAD SUB PUSH2 0x3F5 JUMPI PUSH1 0x40 MLOAD PUSH3 0x461BCD PUSH1 0xE5 SHL DUP2 MSTORE PUSH1 0x4 ADD PUSH2 0x3EC SWAP1 PUSH2 0x1CD9 JUMP JUMPDEST PUSH1 0x40 MLOAD DUP1 SWAP2 SUB SWAP1 REVERT JUMPDEST PUSH1 0x2 PUSH1 0x0 SWAP1 DUP2 SSTORE PUSH1 0x1 PUSH1 0x1 PUSH1 0xA0 SHL SUB DUP4 DUP2 AND DUP3 MSTORE PUSH1 0x6 PUSH1 0x20 MSTORE PUSH1 0x40 SWAP2 DUP3 SWAP1 KECCAK256 SLOAD SWAP2 MLOAD PUSH4 0x70A08231 PUSH1 0xE0 SHL DUP2 MSTORE ADDRESS PUSH1 0x4 DUP3 ADD MSTORE DUP3 SWAP2 PUSH32 0x0 AND SWAP1 PUSH4 0x70A08231 SWAP1 PUSH1 0x24 ADD PUSH1 0x20 PUSH1 0x40 MLOAD DUP1 DUP4 SUB DUP2 DUP7 GAS STATICCALL ISZERO DUP1 ISZERO PUSH2 0x472 JUMPI RETURNDATASIZE PUSH1 0x0 DUP1 RETURNDATACOPY RETURNDATASIZE PUSH1 0x0 REVERT JUMPDEST POP POP POP POP PUSH1 0x40 MLOAD RETURNDATASIZE PUSH1 0x1F NOT PUSH1 0x1F DUP3 ADD AND DUP3 ADD DUP1 PUSH1 0x40 MSTORE POP DUP2 ADD SWAP1 PUSH2 0x496 SWAP2 SWAP1 PUSH2 0x1D10 JUMP JUMPDEST GT DUP1 ISZERO PUSH2 0x4A3 JUMPI POP PUSH1 0x0 DUP2 GT JUMPDEST PUSH2 0x4D8 JUMPI PUSH1 0x40 MLOAD PUSH3 0x461BCD PUSH1 0xE5 SHL DUP2 MSTORE PUSH1 0x20 PUSH1 0x4 DUP3 ADD MSTORE PUSH1 0x6 PUSH1 0x24 DUP3 ADD MSTORE PUSH6 0xF08199D5B99 PUSH1 0xD2 SHL PUSH1 0x44 DUP3 ADD MSTORE PUSH1 0x64 ADD PUSH2 0x3EC JUMP JUMPDEST PUSH1 0x40 MLOAD PUSH4 0xA9059CBB PUSH1 0xE0 SHL DUP2 MSTORE PUSH1 0x1 PUSH1 0x1 PUSH1 0xA0 SHL SUB DUP5 DUP2 AND PUSH1 0x4 DUP4 ADD MSTORE PUSH1 0x24 DUP3 ADD DUP4 SWAP1 MSTORE PUSH1 0x0 SWAP2 PUSH32 0x0 SWAP1 SWAP2 AND SWAP1 PUSH4 0xA9059CBB SWAP1 PUSH1 0x44 ADD PUSH1 0x20 PUSH1 0x40 MLOAD DUP1 DUP4 SUB DUP2 PUSH1 0x0 DUP8 GAS CALL ISZERO DUP1 ISZERO PUSH2 0x54C JUMPI RETURNDATASIZE PUSH1 0x0 DUP1 RETURNDATACOPY RETURNDATASIZE PUSH1 0x0 REVERT JUMPDEST POP POP POP POP PUSH1 0x40 MLOAD RETURNDATASIZE PUSH1 0x1F NOT PUSH1 0x1F DUP3 ADD AND DUP3 ADD DUP1 PUSH1 0x40 MSTORE POP DUP2 ADD SWAP1 PUSH2 0x570 SWAP2 SWAP1 PUSH2 0x1D29 JUMP JUMPDEST SWAP1 POP DUP1 PUSH2 0x5AB JUMPI PUSH1 0x40 MLOAD PUSH3 0x461BCD PUSH1 0xE5 SHL DUP2 MSTORE PUSH1 0x20 PUSH1 0x4 DUP3 ADD MSTORE PUSH1 0x9 PUSH1 0x24 DUP3 ADD MSTORE PUSH9 0x151E0811985A5B1959 PUSH1 0xBA SHL PUSH1 0x44 DUP3 ADD MSTORE PUSH1 0x64 ADD PUSH2 0x3EC JUMP JUMPDEST PUSH1 0x1 PUSH1 0x1 PUSH1 0xA0 SHL SUB DUP5 AND PUSH1 0x0 SWAP1 DUP2 MSTORE PUSH1 0x6 PUSH1 0x20 MSTORE PUSH1 0x40 DUP2 KECCAK256 DUP1 SLOAD DUP5 SWAP3 SWAP1 PUSH2 0x5D3 SWAP1 DUP5 SWAP1 PUSH2 0x1D46 JUMP JUMPDEST SWAP1 SWAP2 SSTORE POP PUSH1 0x1 SWAP4 POP POP POP POP PUSH1 0x1 PUSH1 0x0 SSTORE SWAP2 SWAP1 POP JUMP JUMPDEST PUSH1 0x1 SLOAD PUSH1 0x0 SWAP1 PUSH1 0x1 PUSH1 0x1 PUSH1 0xA0 SHL SUB AND CALLER EQ PUSH2 0x62F JUMPI PUSH1 0x40 MLOAD PUSH3 0x461BCD PUSH1 0xE5 SHL DUP2 MSTORE PUSH1 0x20 PUSH1 0x4 DUP3 ADD MSTORE PUSH1 0x7 PUSH1 0x24 DUP3 ADD MSTORE PUSH7 0x6F776E6572206F PUSH1 0xC8 SHL PUSH1 0x44 DUP3 ADD MSTORE PUSH1 0x64 ADD PUSH2 0x3EC JUMP JUMPDEST PUSH1 0x5 SLOAD PUSH1 0xFF AND ISZERO PUSH2 0x63F JUMPI PUSH1 0x0 DUP1 REVERT JUMPDEST PUSH1 0x0 JUMPDEST PUSH1 0x2 SLOAD DUP2 LT ISZERO PUSH2 0x684 JUMPI PUSH2 0x672 PUSH1 0x2 DUP3 DUP2 SLOAD DUP2 LT PUSH2 0x662 JUMPI PUSH2 0x662 PUSH2 0x1C94 JUMP JUMPDEST SWAP1 PUSH1 0x0 MSTORE PUSH1 0x20 PUSH1 0x0 KECCAK256 ADD SLOAD PUSH2 0x17E6 JUMP JUMPDEST DUP1 PUSH2 0x67C DUP2 PUSH2 0x1CC0 JUMP JUMPDEST SWAP2 POP POP PUSH2 0x642 JUMP JUMPDEST POP POP PUSH1 0x5 DUP1 SLOAD PUSH1 0xFF NOT AND PUSH1 0x3 OR SWAP1 SSTORE PUSH1 0x1 SWAP1 JUMP JUMPDEST PUSH1 0x2 PUSH1 0x0 SLOAD SUB PUSH2 0x6BA JUMPI PUSH1 0x40 MLOAD PUSH3 0x461BCD PUSH1 0xE5 SHL DUP2 MSTORE PUSH1 0x4 ADD PUSH2 0x3EC SWAP1 PUSH2 0x1CD9 JUMP JUMPDEST PUSH1 0x2 PUSH1 0x0 SWAP1 DUP2 SSTORE DUP2 DUP2 MSTORE PUSH1 0x9 PUSH1 0x20 MSTORE PUSH1 0x40 SWAP1 KECCAK256 PUSH1 0x4 ADD SLOAD PUSH1 0xFF AND ISZERO PUSH2 0x713 JUMPI PUSH1 0x40 MLOAD PUSH3 0x461BCD PUSH1 0xE5 SHL DUP2 MSTORE PUSH1 0x20 PUSH1 0x4 DUP3 ADD MSTORE PUSH1 0xF PUSH1 0x24 DUP3 ADD MSTORE PUSH15 0x185B1C9958591E481CD95D1D1B1959 PUSH1 0x8A SHL PUSH1 0x44 DUP3 ADD MSTORE PUSH1 0x64 ADD PUSH2 0x3EC JUMP JUMPDEST PUSH1 0x5 SLOAD PUSH1 0xFF AND PUSH1 0x1 EQ DUP1 PUSH2 0x72C JUMPI POP PUSH1 0x5 SLOAD PUSH1 0xFF AND PUSH1 0x2 EQ JUMPDEST PUSH2 0x766 JUMPI PUSH1 0x40 MLOAD PUSH3 0x461BCD PUSH1 0xE5 SHL DUP2 MSTORE PUSH1 0x20 PUSH1 0x4 DUP3 ADD MSTORE PUSH1 0xB PUSH1 0x24 DUP3 ADD MSTORE PUSH11 0x1DDA5B881B9BDD081CD95D PUSH1 0xAA SHL PUSH1 0x44 DUP3 ADD MSTORE PUSH1 0x64 ADD PUSH2 0x3EC JUMP JUMPDEST PUSH1 0x5 SLOAD PUSH1 0x0 SWAP1 DUP2 SWAP1 DUP2 SWAP1 DUP2 SWAP1 PUSH1 0xFF AND PUSH1 0x1 SUB PUSH2 0x950 JUMPI PUSH1 0x0 DUP6 DUP2 MSTORE PUSH1 0x9 PUSH1 0x20 SWAP1 DUP2 MSTORE PUSH1 0x40 DUP1 DUP4 KECCAK256 SLOAD DUP4 MSTORE PUSH1 0x7 DUP3 MSTORE SWAP2 DUP3 SWAP1 KECCAK256 SLOAD DUP3 MLOAD PUSH4 0x55C4A8BF PUSH1 0xE0 SHL DUP2 MSTORE SWAP3 MLOAD PUSH1 0x1 PUSH1 0x1 PUSH1 0xA0 SHL SUB SWAP2 DUP3 AND SWAP8 POP PUSH1 0x64 SWAP4 PUSH32 0x0 SWAP1 SWAP3 AND SWAP3 PUSH4 0x55C4A8BF SWAP3 PUSH1 0x4 DUP1 DUP3 ADD SWAP4 SWAP2 DUP3 SWAP1 SUB ADD DUP2 DUP7 GAS STATICCALL ISZERO DUP1 ISZERO PUSH2 0x802 JUMPI RETURNDATASIZE PUSH1 0x0 DUP1 RETURNDATACOPY RETURNDATASIZE PUSH1 0x0 REVERT JUMPDEST POP POP POP POP PUSH1 0x40 MLOAD RETURNDATASIZE PUSH1 0x1F NOT PUSH1 0x1F DUP3 ADD AND DUP3 ADD DUP1 PUSH1 0x40 MSTORE POP DUP2 ADD SWAP1 PUSH2 0x826 SWAP2 SWAP1 PUSH2 0x1D10 JUMP JUMPDEST PUSH2 0x831 SWAP1 PUSH1 0x64 PUSH2 0x1D46 JUMP JUMPDEST PUSH1 0x0 DUP8 DUP2 MSTORE PUSH1 0x9 PUSH1 0x20 MSTORE PUSH1 0x40 SWAP1 KECCAK256 PUSH1 0x3 ADD SLOAD PUSH2 0x84D SWAP2 SWAP1 PUSH2 0x1D5F JUMP JUMPDEST PUSH2 0x857 SWAP2 SWAP1 PUSH2 0x1D76 JUMP JUMPDEST PUSH1 0x0 DUP7 DUP2 MSTORE PUSH1 0x9 PUSH1 0x20 MSTORE PUSH1 0x40 SWAP1 KECCAK256 PUSH1 0x2 ADD SLOAD PUSH2 0x873 SWAP2 SWAP1 PUSH2 0x1D98 JUMP JUMPDEST SWAP2 POP PUSH1 0x64 PUSH32 0x0 PUSH1 0x1 PUSH1 0x1 PUSH1 0xA0 SHL SUB AND PUSH4 0x55C4A8BF PUSH1 0x40 MLOAD DUP2 PUSH4 0xFFFFFFFF AND PUSH1 0xE0 SHL DUP2 MSTORE PUSH1 0x4 ADD PUSH1 0x20 PUSH1 0x40 MLOAD DUP1 DUP4 SUB DUP2 DUP7 GAS STATICCALL ISZERO DUP1 ISZERO PUSH2 0x8D5 JUMPI RETURNDATASIZE PUSH1 0x0 DUP1 RETURNDATACOPY RETURNDATASIZE PUSH1 0x0 REVERT JUMPDEST POP POP POP POP PUSH1 0x40 MLOAD RETURNDATASIZE PUSH1 0x1F NOT PUSH1 0x1F DUP3 ADD AND DUP3 ADD DUP1 PUSH1 0x40 MSTORE POP DUP2 ADD SWAP1 PUSH2 0x8F9 SWAP2 SWAP1 PUSH2 0x1D10 JUMP JUMPDEST PUSH1 0x0 DUP8 DUP2 MSTORE PUSH1 0x9 PUSH1 0x20 MSTORE PUSH1 0x40 SWAP1 KECCAK256 PUSH1 0x3 ADD SLOAD PUSH2 0x915 SWAP2 SWAP1 PUSH2 0x1D5F JUMP JUMPDEST PUSH2 0x91F SWAP2 SWAP1 PUSH2 0x1D76 JUMP JUMPDEST PUSH1 0x0 DUP7 DUP2 MSTORE PUSH1 0x9 PUSH1 0x20 SWAP1 DUP2 MSTORE PUSH1 0x40 DUP1 DUP4 KECCAK256 SLOAD DUP4 MSTORE PUSH1 0x7 SWAP1 SWAP2 MSTORE SWAP1 KECCAK256 PUSH1 0x1 ADD SLOAD PUSH1 0x1 PUSH1 0x1 PUSH1 0xA0 SHL SUB AND SWAP4 POP SWAP1 POP PUSH2 0xB68 JUMP JUMPDEST PUSH1 0x5 SLOAD PUSH1 0xFF AND PUSH1 0x2 SUB PUSH2 0xB38 JUMPI PUSH1 0x0 DUP6 DUP2 MSTORE PUSH1 0x9 PUSH1 0x20 SWAP1 DUP2 MSTORE PUSH1 0x40 DUP1 DUP4 KECCAK256 PUSH1 0x1 ADD SLOAD DUP4 MSTORE PUSH1 0x7 DUP3 MSTORE SWAP2 DUP3 SWAP1 KECCAK256 SLOAD DUP3 MLOAD PUSH4 0x55C4A8BF PUSH1 0xE0 SHL DUP2 MSTORE SWAP3 MLOAD PUSH1 0x1 PUSH1 0x1 PUSH1 0xA0 SHL SUB SWAP2 DUP3 AND SWAP8 POP PUSH1 0x64 SWAP4 PUSH32 0x0 SWAP1 SWAP3 AND SWAP3 PUSH4 0x55C4A8BF SWAP3 PUSH1 0x4 DUP1 DUP3 ADD SWAP4 SWAP2 DUP3 SWAP1 SUB ADD DUP2 DUP7 GAS STATICCALL ISZERO DUP1 ISZERO PUSH2 0x9E6 JUMPI RETURNDATASIZE PUSH1 0x0 DUP1 RETURNDATACOPY RETURNDATASIZE PUSH1 0x0 REVERT JUMPDEST POP POP POP POP PUSH1 0x40 MLOAD RETURNDATASIZE PUSH1 0x1F NOT PUSH1 0x1F DUP3 ADD AND DUP3 ADD DUP1 PUSH1 0x40 MSTORE POP DUP2 ADD SWAP1 PUSH2 0xA0A SWAP2 SWAP1 PUSH2 0x1D10 JUMP JUMPDEST PUSH2 0xA15 SWAP1 PUSH1 0x64 PUSH2 0x1D46 JUMP JUMPDEST PUSH1 0x0 DUP8 DUP2 MSTORE PUSH1 0x9 PUSH1 0x20 MSTORE PUSH1 0x40 SWAP1 KECCAK256 PUSH1 0x2 ADD SLOAD PUSH2 0xA31 SWAP2 SWAP1 PUSH2 0x1D5F JUMP JUMPDEST PUSH2 0xA3B SWAP2 SWAP1 PUSH2 0x1D76 JUMP JUMPDEST PUSH1 0x0 DUP7 DUP2 MSTORE PUSH1 0x9 PUSH1 0x20 MSTORE PUSH1 0x40 SWAP1 KECCAK256 PUSH1 0x3 ADD SLOAD PUSH2 0xA57 SWAP2 SWAP1 PUSH2 0x1D98 JUMP JUMPDEST SWAP2 POP PUSH1 0x64 PUSH32 0x0 PUSH1 0x1 PUSH1 0x1 PUSH1 0xA0 SHL SUB AND PUSH4 0x55C4A8BF PUSH1 0x40 MLOAD DUP2 PUSH4 0xFFFFFFFF AND PUSH1 0xE0 SHL DUP2 MSTORE PUSH1 0x4 ADD PUSH1 0x20 PUSH1 0x40 MLOAD DUP1 DUP4 SUB DUP2 DUP7 GAS STATICCALL ISZERO DUP1 ISZERO PUSH2 0xAB9 JUMPI RETURNDATASIZE PUSH1 0x0 DUP1 RETURNDATACOPY RETURNDATASIZE PUSH1 0x0 REVERT JUMPDEST POP POP POP POP PUSH1 0x40 MLOAD RETURNDATASIZE PUSH1 0x1F NOT PUSH1 0x1F DUP3 ADD AND DUP3 ADD DUP1 PUSH1 0x40 MSTORE POP DUP2 ADD SWAP1 PUSH2 0xADD SWAP2 SWAP1 PUSH2 0x1D10 JUMP JUMPDEST PUSH1 0x0 DUP8 DUP2 MSTORE PUSH1 0x9 PUSH1 0x20 MSTORE PUSH1 0x40 SWAP1 KECCAK256 PUSH1 0x2 ADD SLOAD PUSH2 0xAF9 SWAP2 SWAP1 PUSH2 0x1D5F JUMP JUMPDEST PUSH2 0xB03 SWAP2 SWAP1 PUSH2 0x1D76 JUMP JUMPDEST PUSH1 0x0 DUP7 DUP2 MSTORE PUSH1 0x9 PUSH1 0x20 SWAP1 DUP2 MSTORE PUSH1 0x40 DUP1 DUP4 KECCAK256 PUSH1 0x1 SWAP1 DUP2 ADD SLOAD DUP5 MSTORE PUSH1 0x7 SWAP1 SWAP3 MSTORE SWAP1 SWAP2 KECCAK256 ADD SLOAD PUSH1 0x1 PUSH1 0x1 PUSH1 0xA0 SHL SUB AND SWAP4 POP SWAP1 POP PUSH2 0xB68 JUMP JUMPDEST PUSH1 0x40 MLOAD PUSH3 0x461BCD PUSH1 0xE5 SHL DUP2 MSTORE PUSH1 0x20 PUSH1 0x4 DUP3 ADD MSTORE PUSH1 0x5 PUSH1 0x24 DUP3 ADD MSTORE PUSH5 0x3C103BB4B7 PUSH1 0xD9 SHL PUSH1 0x44 DUP3 ADD MSTORE PUSH1 0x64 ADD PUSH2 0x3EC JUMP JUMPDEST PUSH1 0x1 PUSH1 0x1 PUSH1 0xA0 SHL SUB DUP4 AND PUSH2 0xBFB JUMPI PUSH32 0x0 PUSH1 0x1 PUSH1 0x1 PUSH1 0xA0 SHL SUB AND PUSH4 0x9953B2F PUSH1 0x40 MLOAD DUP2 PUSH4 0xFFFFFFFF AND PUSH1 0xE0 SHL DUP2 MSTORE PUSH1 0x4 ADD PUSH1 0x20 PUSH1 0x40 MLOAD DUP1 DUP4 SUB DUP2 DUP7 GAS STATICCALL ISZERO DUP1 ISZERO PUSH2 0xBD4 JUMPI RETURNDATASIZE PUSH1 0x0 DUP1 RETURNDATACOPY RETURNDATASIZE PUSH1 0x0 REVERT JUMPDEST POP POP POP POP PUSH1 0x40 MLOAD RETURNDATASIZE PUSH1 0x1F NOT PUSH1 0x1F DUP3 ADD AND DUP3 ADD DUP1 PUSH1 0x40 MSTORE POP DUP2 ADD SWAP1 PUSH2 0xBF8 SWAP2 SWAP1 PUSH2 0x1DAB JUMP JUMPDEST SWAP3 POP JUMPDEST PUSH1 0x1 PUSH1 0x1 PUSH1 0xA0 SHL SUB DUP5 AND PUSH1 0x0 SWAP1 DUP2 MSTORE PUSH1 0x6 PUSH1 0x20 MSTORE PUSH1 0x40 DUP2 KECCAK256 DUP1 SLOAD DUP5 SWAP3 SWAP1 PUSH2 0xC23 SWAP1 DUP5 SWAP1 PUSH2 0x1D98 JUMP JUMPDEST SWAP3 POP POP DUP2 SWAP1 SSTORE POP PUSH1 0x64 PUSH32 0x0 PUSH1 0x1 PUSH1 0x1 PUSH1 0xA0 SHL SUB AND PUSH4 0x6A0CCD9D PUSH1 0x40 MLOAD DUP2 PUSH4 0xFFFFFFFF AND PUSH1 0xE0 SHL DUP2 MSTORE PUSH1 0x4 ADD PUSH1 0x20 PUSH1 0x40 MLOAD DUP1 DUP4 SUB DUP2 DUP7 GAS STATICCALL ISZERO DUP1 ISZERO PUSH2 0xC8A JUMPI RETURNDATASIZE PUSH1 0x0 DUP1 RETURNDATACOPY RETURNDATASIZE PUSH1 0x0 REVERT JUMPDEST POP POP POP POP PUSH1 0x40 MLOAD RETURNDATASIZE PUSH1 0x1F NOT PUSH1 0x1F DUP3 ADD AND DUP3 ADD DUP1 PUSH1 0x40 MSTORE POP DUP2 ADD SWAP1 PUSH2 0xCAE SWAP2 SWAP1 PUSH2 0x1D10 JUMP JUMPDEST PUSH2 0xCB8 SWAP1 DUP4 PUSH2 0x1D5F JUMP JUMPDEST PUSH2 0xCC2 SWAP2 SWAP1 PUSH2 0x1D76 JUMP JUMPDEST PUSH1 0x6 PUSH1 0x0 PUSH32 0x0 PUSH1 0x1 PUSH1 0x1 PUSH1 0xA0 SHL SUB AND PUSH4 0xB7640A54 PUSH1 0x40 MLOAD DUP2 PUSH4 0xFFFFFFFF AND PUSH1 0xE0 SHL DUP2 MSTORE PUSH1 0x4 ADD PUSH1 0x20 PUSH1 0x40 MLOAD DUP1 DUP4 SUB DUP2 DUP7 GAS STATICCALL ISZERO DUP1 ISZERO PUSH2 0xD24 JUMPI RETURNDATASIZE PUSH1 0x0 DUP1 RETURNDATACOPY RETURNDATASIZE PUSH1 0x0 REVERT JUMPDEST POP POP POP POP PUSH1 0x40 MLOAD RETURNDATASIZE PUSH1 0x1F NOT PUSH1 0x1F DUP3 ADD AND DUP3 ADD DUP1 PUSH1 0x40 MSTORE POP DUP2 ADD SWAP1 PUSH2 0xD48 SWAP2 SWAP1 PUSH2 0x1DAB JUMP JUMPDEST PUSH1 0x1 PUSH1 0x1 PUSH1 0xA0 SHL SUB AND PUSH1 0x1 PUSH1 0x1 PUSH1 0xA0 SHL SUB AND DUP2 MSTORE PUSH1 0x20 ADD SWAP1 DUP2 MSTORE PUSH1 0x20 ADD PUSH1 0x0 KECCAK256 PUSH1 0x0 DUP3 DUP3 SLOAD PUSH2 0xD77 SWAP2 SWAP1 PUSH2 0x1D98 JUMP JUMPDEST SWAP3 POP POP DUP2 SWAP1 SSTORE POP PUSH1 0x64 PUSH32 0x0 PUSH1 0x1 PUSH1 0x1 PUSH1 0xA0 SHL SUB AND PUSH4 0x28576D45 PUSH1 0x40 MLOAD DUP2 PUSH4 0xFFFFFFFF AND PUSH1 0xE0 SHL DUP2 MSTORE PUSH1 0x4 ADD PUSH1 0x20 PUSH1 0x40 MLOAD DUP1 DUP4 SUB DUP2 DUP7 GAS STATICCALL ISZERO DUP1 ISZERO PUSH2 0xDDE JUMPI RETURNDATASIZE PUSH1 0x0 DUP1 RETURNDATACOPY RETURNDATASIZE PUSH1 0x0 REVERT JUMPDEST POP POP POP POP PUSH1 0x40 MLOAD RETURNDATASIZE PUSH1 0x1F NOT PUSH1 0x1F DUP3 ADD AND DUP3 ADD DUP1 PUSH1 0x40 MSTORE POP DUP2 ADD SWAP1 PUSH2 0xE02 SWAP2 SWAP1 PUSH2 0x1D10 JUMP JUMPDEST PUSH2 0xE0C SWAP1 DUP4 PUSH2 0x1D5F JUMP JUMPDEST PUSH2 0xE16 SWAP2 SWAP1 PUSH2 0x1D76 JUMP JUMPDEST PUSH1 0x6 PUSH1 0x0 PUSH32 0x0 PUSH1 0x1 PUSH1 0x1 PUSH1 0xA0 SHL SUB AND PUSH4 0x9953B2F PUSH1 0x40 MLOAD DUP2 PUSH4 0xFFFFFFFF AND PUSH1 0xE0 SHL DUP2 MSTORE PUSH1 0x4 ADD PUSH1 0x20 PUSH1 0x40 MLOAD DUP1 DUP4 SUB DUP2 DUP7 GAS STATICCALL ISZERO DUP1 ISZERO PUSH2 0xE78 JUMPI RETURNDATASIZE PUSH1 0x0 DUP1 RETURNDATACOPY RETURNDATASIZE PUSH1 0x0 REVERT JUMPDEST POP POP POP POP PUSH1 0x40 MLOAD RETURNDATASIZE PUSH1 0x1F NOT PUSH1 0x1F DUP3 ADD AND DUP3 ADD DUP1 PUSH1 0x40 MSTORE POP DUP2 ADD SWAP1 PUSH2 0xE9C SWAP2 SWAP1 PUSH2 0x1DAB JUMP JUMPDEST PUSH1 0x1 PUSH1 0x1 PUSH1 0xA0 SHL SUB AND PUSH1 0x1 PUSH1 0x1 PUSH1 0xA0 SHL SUB AND DUP2 MSTORE PUSH1 0x20 ADD SWAP1 DUP2 MSTORE PUSH1 0x20 ADD PUSH1 0x0 KECCAK256 PUSH1 0x0 DUP3 DUP3 SLOAD PUSH2 0xECB SWAP2 SWAP1 PUSH2 0x1D98 JUMP JUMPDEST SWAP3 POP POP DUP2 SWAP1 SSTORE POP PUSH1 0x64 PUSH32 0x0 PUSH1 0x1 PUSH1 0x1 PUSH1 0xA0 SHL SUB AND PUSH4 0x54CD1A5C PUSH1 0x40 MLOAD DUP2 PUSH4 0xFFFFFFFF AND PUSH1 0xE0 SHL DUP2 MSTORE PUSH1 0x4 ADD PUSH1 0x20 PUSH1 0x40 MLOAD DUP1 DUP4 SUB DUP2 DUP7 GAS STATICCALL ISZERO DUP1 ISZERO PUSH2 0xF32 JUMPI RETURNDATASIZE PUSH1 0x0 DUP1 RETURNDATACOPY RETURNDATASIZE PUSH1 0x0 REVERT JUMPDEST POP POP POP POP PUSH1 0x40 MLOAD RETURNDATASIZE PUSH1 0x1F NOT PUSH1 0x1F DUP3 ADD AND DUP3 ADD DUP1 PUSH1 0x40 MSTORE POP DUP2 ADD SWAP1 PUSH2 0xF56 SWAP2 SWAP1 PUSH2 0x1D10 JUMP JUMPDEST PUSH2 0xF60 SWAP1 DUP4 PUSH2 0x1D5F JUMP JUMPDEST PUSH2 0xF6A SWAP2 SWAP1 PUSH2 0x1D76 JUMP JUMPDEST PUSH1 0x1 PUSH1 0x1 PUSH1 0xA0 SHL SUB DUP5 AND PUSH1 0x0 SWAP1 DUP2 MSTORE PUSH1 0x6 PUSH1 0x20 MSTORE PUSH1 0x40 DUP2 KECCAK256 DUP1 SLOAD SWAP1 SWAP2 SWAP1 PUSH2 0xF92 SWAP1 DUP5 SWAP1 PUSH2 0x1D98 JUMP JUMPDEST SWAP1 SWAP2 SSTORE POP POP POP PUSH1 0x0 DUP5 DUP2 MSTORE PUSH1 0x9 PUSH1 0x20 MSTORE PUSH1 0x40 SWAP1 KECCAK256 PUSH1 0x4 ADD DUP1 SLOAD PUSH1 0xFF NOT AND PUSH1 0x1 OR SWAP1 SSTORE POP POP POP POP PUSH1 0x1 PUSH1 0x0 SSTORE JUMP JUMPDEST PUSH1 0x2 PUSH1 0x0 SLOAD SUB PUSH2 0xFE1 JUMPI PUSH1 0x40 MLOAD PUSH3 0x461BCD PUSH1 0xE5 SHL DUP2 MSTORE PUSH1 0x4 ADD PUSH2 0x3EC SWAP1 PUSH2 0x1CD9 JUMP JUMPDEST PUSH1 0x2 PUSH1 0x0 DUP2 DUP2 SSTORE DUP3 DUP2 MSTORE PUSH1 0x7 PUSH1 0x20 SWAP1 DUP2 MSTORE PUSH1 0x40 SWAP2 DUP3 SWAP1 KECCAK256 DUP3 MLOAD PUSH1 0xC0 DUP2 ADD DUP5 MSTORE DUP2 SLOAD PUSH1 0x1 PUSH1 0x1 PUSH1 0xA0 SHL SUB SWAP1 DUP2 AND DUP1 DUP4 MSTORE PUSH1 0x1 DUP5 ADD SLOAD SWAP1 SWAP2 AND SWAP4 DUP3 ADD SWAP4 SWAP1 SWAP4 MSTORE SWAP4 DUP2 ADD SLOAD SWAP3 DUP5 ADD SWAP3 SWAP1 SWAP3 MSTORE PUSH1 0x3 DUP3 ADD SLOAD PUSH1 0x60 DUP5 ADD MSTORE PUSH1 0x4 DUP3 ADD SLOAD PUSH1 0x80 DUP5 ADD MSTORE PUSH1 0x5 SWAP1 SWAP2 ADD SLOAD PUSH1 0xFF AND PUSH1 0xA0 DUP4 ADD MSTORE CALLER EQ PUSH2 0x108B JUMPI PUSH1 0x40 MLOAD PUSH3 0x461BCD PUSH1 0xE5 SHL DUP2 MSTORE PUSH1 0x20 PUSH1 0x4 DUP3 ADD MSTORE PUSH1 0xE PUSH1 0x24 DUP3 ADD MSTORE PUSH14 0x626574206F776E6572206F6E6C79 PUSH1 0x90 SHL PUSH1 0x44 DUP3 ADD MSTORE PUSH1 0x64 ADD PUSH2 0x3EC JUMP JUMPDEST PUSH1 0x0 DUP2 PUSH1 0x60 ADD MLOAD DUP3 PUSH1 0x40 ADD MLOAD PUSH2 0x10A1 SWAP2 SWAP1 PUSH2 0x1D46 JUMP JUMPDEST DUP3 MLOAD PUSH1 0x1 PUSH1 0x1 PUSH1 0xA0 SHL SUB AND PUSH1 0x0 SWAP1 DUP2 MSTORE PUSH1 0x6 PUSH1 0x20 SWAP1 DUP2 MSTORE PUSH1 0x40 DUP1 DUP4 KECCAK256 DUP5 SWAP1 SSTORE DUP1 DUP7 ADD MLOAD DUP8 DUP5 MSTORE PUSH1 0x7 SWAP1 SWAP3 MSTORE DUP3 KECCAK256 PUSH1 0x3 ADD SSTORE SWAP1 SWAP2 POP JUMPDEST PUSH1 0x4 SLOAD DUP2 LT ISZERO PUSH2 0x1135 JUMPI DUP4 PUSH1 0x4 DUP3 DUP2 SLOAD DUP2 LT PUSH2 0x10F4 JUMPI PUSH2 0x10F4 PUSH2 0x1C94 JUMP JUMPDEST SWAP1 PUSH1 0x0 MSTORE PUSH1 0x20 PUSH1 0x0 KECCAK256 ADD SLOAD SUB PUSH2 0x1123 JUMPI PUSH1 0x4 DUP2 DUP2 SLOAD DUP2 LT PUSH2 0x1117 JUMPI PUSH2 0x1117 PUSH2 0x1C94 JUMP JUMPDEST PUSH1 0x0 SWAP2 DUP3 MSTORE PUSH1 0x20 DUP3 KECCAK256 ADD SSTORE JUMPDEST DUP1 PUSH2 0x112D DUP2 PUSH2 0x1CC0 JUMP JUMPDEST SWAP2 POP POP PUSH2 0x10D6 JUMP JUMPDEST POP POP PUSH1 0x1 PUSH1 0x0 SSTORE POP POP JUMP JUMPDEST PUSH1 0x1 SLOAD PUSH1 0x0 SWAP1 PUSH1 0x1 PUSH1 0x1 PUSH1 0xA0 SHL SUB AND CALLER EQ PUSH2 0x1187 JUMPI PUSH1 0x40 MLOAD PUSH3 0x461BCD PUSH1 0xE5 SHL DUP2 MSTORE PUSH1 0x20 PUSH1 0x4 DUP3 ADD MSTORE PUSH1 0x7 PUSH1 0x24 DUP3 ADD MSTORE PUSH7 0x6F776E6572206F PUSH1 0xC8 SHL PUSH1 0x44 DUP3 ADD MSTORE PUSH1 0x64 ADD PUSH2 0x3EC JUMP JUMPDEST PUSH1 0x5 SLOAD PUSH1 0xFF AND ISZERO DUP1 ISZERO PUSH2 0x11AA JUMPI POP DUP2 PUSH1 0xFF AND PUSH1 0x1 EQ DUP1 PUSH2 0x11AA JUMPI POP DUP2 PUSH1 0xFF AND PUSH1 0x2 EQ JUMPDEST PUSH2 0x11DF JUMPI PUSH1 0x40 MLOAD PUSH3 0x461BCD PUSH1 0xE5 SHL DUP2 MSTORE PUSH1 0x20 PUSH1 0x4 DUP3 ADD MSTORE PUSH1 0x6 PUSH1 0x24 DUP3 ADD MSTORE PUSH6 0x10BC103BB4B7 PUSH1 0xD1 SHL PUSH1 0x44 DUP3 ADD MSTORE PUSH1 0x64 ADD PUSH2 0x3EC JUMP JUMPDEST POP PUSH1 0x5 DUP1 SLOAD PUSH1 0xFF NOT AND PUSH1 0xFF DUP4 AND OR SWAP1 SSTORE PUSH1 0x1 JUMPDEST SWAP2 SWAP1 POP JUMP JUMPDEST PUSH1 0x40 MLOAD PUSH4 0x332DACCF PUSH1 0xE0 SHL DUP2 MSTORE CALLER PUSH1 0x4 DUP3 ADD MSTORE PUSH1 0x0 SWAP1 PUSH32 0x0 PUSH1 0x1 PUSH1 0x1 PUSH1 0xA0 SHL SUB AND SWAP1 PUSH4 0x332DACCF SWAP1 PUSH1 0x24 ADD PUSH1 0x20 PUSH1 0x40 MLOAD DUP1 DUP4 SUB DUP2 DUP7 GAS STATICCALL ISZERO DUP1 ISZERO PUSH2 0x125E JUMPI RETURNDATASIZE PUSH1 0x0 DUP1 RETURNDATACOPY RETURNDATASIZE PUSH1 0x0 REVERT JUMPDEST POP POP POP POP PUSH1 0x40 MLOAD RETURNDATASIZE PUSH1 0x1F NOT PUSH1 0x1F DUP3 ADD AND DUP3 ADD DUP1 PUSH1 0x40 MSTORE POP DUP2 ADD SWAP1 PUSH2 0x1282 SWAP2 SWAP1 PUSH2 0x1D29 JUMP JUMPDEST ISZERO PUSH2 0x12BB JUMPI PUSH1 0x40 MLOAD PUSH3 0x461BCD PUSH1 0xE5 SHL DUP2 MSTORE PUSH1 0x20 PUSH1 0x4 DUP3 ADD MSTORE PUSH1 0x9 PUSH1 0x24 DUP3 ADD MSTORE PUSH9 0x189B1858DADB1A5CDD PUSH1 0xBA SHL PUSH1 0x44 DUP3 ADD MSTORE PUSH1 0x64 ADD PUSH2 0x3EC JUMP JUMPDEST DUP3 PUSH1 0xFF AND PUSH1 0x1 EQ DUP1 PUSH2 0x12D0 JUMPI POP DUP3 PUSH1 0xFF AND PUSH1 0x2 EQ JUMPDEST PUSH2 0x130B JUMPI PUSH1 0x40 MLOAD PUSH3 0x461BCD PUSH1 0xE5 SHL DUP2 MSTORE PUSH1 0x20 PUSH1 0x4 DUP3 ADD MSTORE PUSH1 0xC PUSH1 0x24 DUP3 ADD MSTORE PUSH12 0x696E76616C69642073696465 PUSH1 0xA0 SHL PUSH1 0x44 DUP3 ADD MSTORE PUSH1 0x64 ADD PUSH2 0x3EC JUMP JUMPDEST PUSH1 0x0 PUSH2 0x131C DUP9 DUP9 DUP9 PUSH1 0x0 DUP10 DUP10 PUSH2 0x18A1 JUMP JUMPDEST PUSH1 0x4 SLOAD SWAP1 SWAP2 POP ISZERO PUSH2 0x174E JUMPI DUP6 JUMPDEST PUSH8 0xDE0B6B3A7640000 DUP2 LT PUSH2 0x1748 JUMPI PUSH1 0x0 DUP1 PUSH1 0x0 JUMPDEST PUSH1 0x4 SLOAD DUP2 LT ISZERO PUSH2 0x13DA JUMPI PUSH1 0x0 PUSH1 0x4 DUP3 DUP2 SLOAD DUP2 LT PUSH2 0x135D JUMPI PUSH2 0x135D PUSH2 0x1C94 JUMP JUMPDEST PUSH1 0x0 SWAP2 DUP3 MSTORE PUSH1 0x20 DUP1 DUP4 KECCAK256 SWAP1 SWAP2 ADD SLOAD DUP1 DUP4 MSTORE PUSH1 0x7 SWAP1 SWAP2 MSTORE PUSH1 0x40 SWAP1 SWAP2 KECCAK256 PUSH1 0x5 ADD SLOAD SWAP1 SWAP2 POP PUSH1 0xFF SWAP1 DUP2 AND SWAP1 DUP11 AND SUB PUSH2 0x1392 JUMPI POP PUSH2 0x13C8 JUMP JUMPDEST PUSH1 0x0 DUP2 DUP2 MSTORE PUSH1 0x7 PUSH1 0x20 MSTORE PUSH1 0x40 SWAP1 KECCAK256 PUSH1 0x4 ADD SLOAD DUP4 LT ISZERO PUSH2 0x13C6 JUMPI PUSH1 0x0 DUP2 DUP2 MSTORE PUSH1 0x7 PUSH1 0x20 MSTORE PUSH1 0x40 SWAP1 KECCAK256 PUSH1 0x4 ADD SLOAD SWAP2 SWAP4 POP SWAP1 SWAP2 POP DUP3 SWAP1 JUMPDEST POP JUMPDEST DUP1 PUSH2 0x13D2 DUP2 PUSH2 0x1CC0 JUMP JUMPDEST SWAP2 POP POP PUSH2 0x133E JUMP JUMPDEST POP DUP8 DUP2 GT DUP1 PUSH2 0x13E6 JUMPI POP DUP6 JUMPDEST ISZERO PUSH2 0x1705 JUMPI PUSH1 0x0 PUSH1 0x4 DUP4 DUP2 SLOAD DUP2 LT PUSH2 0x1400 JUMPI PUSH2 0x1400 PUSH2 0x1C94 JUMP JUMPDEST PUSH1 0x0 SWAP2 DUP3 MSTORE PUSH1 0x20 DUP1 DUP4 KECCAK256 SWAP1 SWAP2 ADD SLOAD DUP1 DUP4 MSTORE PUSH1 0x7 DUP3 MSTORE PUSH1 0x40 DUP1 DUP5 KECCAK256 DUP2 MLOAD PUSH1 0xC0 DUP2 ADD DUP4 MSTORE DUP2 SLOAD PUSH1 0x1 PUSH1 0x1 PUSH1 0xA0 SHL SUB SWAP1 DUP2 AND DUP3 MSTORE PUSH1 0x1 DUP1 DUP5 ADD SLOAD SWAP1 SWAP2 AND SWAP6 DUP3 ADD SWAP6 SWAP1 SWAP6 MSTORE PUSH1 0x2 DUP3 ADD SLOAD SWAP3 DUP2 ADD SWAP3 SWAP1 SWAP3 MSTORE PUSH1 0x3 DUP2 ADD SLOAD PUSH1 0x60 DUP4 ADD MSTORE PUSH1 0x4 DUP2 ADD SLOAD PUSH1 0x80 DUP4 ADD MSTORE PUSH1 0x5 ADD SLOAD PUSH1 0xFF AND PUSH1 0xA0 DUP3 ADD MSTORE SWAP1 SWAP4 POP SWAP2 SWAP1 PUSH2 0x147C SWAP1 DUP13 PUSH2 0x1D46 JUMP JUMPDEST DUP3 PUSH1 0x60 ADD MLOAD DUP4 PUSH1 0x40 ADD MLOAD PUSH2 0x1490 SWAP2 SWAP1 PUSH2 0x1D46 JUMP JUMPDEST PUSH2 0x149A SWAP2 SWAP1 PUSH2 0x1D76 JUMP JUMPDEST SWAP1 POP PUSH1 0x0 DUP1 PUSH1 0x0 DUP15 DUP5 GT PUSH2 0x158E JUMPI DUP4 SWAP3 POP PUSH2 0x14B6 PUSH1 0x1 DUP16 PUSH2 0x1D46 JUMP JUMPDEST PUSH2 0x14C0 SWAP1 DUP6 PUSH2 0x1D5F JUMP JUMPDEST SWAP2 POP DUP13 PUSH1 0xFF AND PUSH1 0x1 SUB PUSH2 0x152A JUMPI PUSH2 0x14D9 DUP11 DUP8 DUP6 DUP6 PUSH2 0x1A14 JUMP JUMPDEST PUSH1 0x40 DUP1 MLOAD DUP13 DUP2 MSTORE PUSH1 0x20 DUP2 ADD DUP10 SWAP1 MSTORE SWAP1 DUP2 ADD DUP6 SWAP1 MSTORE PUSH1 0x60 DUP2 ADD DUP5 SWAP1 MSTORE SWAP1 SWAP2 POP PUSH32 0x5DE48BB383B4A2AAAD84721B80D93429B813651B0EEFBD59D32018CFE28215DC SWAP1 PUSH1 0x80 ADD JUMPDEST PUSH1 0x40 MLOAD DUP1 SWAP2 SUB SWAP1 LOG1 PUSH2 0x1623 JUMP JUMPDEST DUP13 PUSH1 0xFF AND PUSH1 0x2 SUB PUSH2 0x1589 JUMPI PUSH2 0x1541 DUP7 DUP12 DUP5 DUP7 PUSH2 0x1A14 JUMP JUMPDEST PUSH1 0x40 DUP1 MLOAD DUP9 DUP2 MSTORE PUSH1 0x20 DUP2 ADD DUP14 SWAP1 MSTORE SWAP1 DUP2 ADD DUP5 SWAP1 MSTORE PUSH1 0x60 DUP2 ADD DUP6 SWAP1 MSTORE SWAP1 SWAP2 POP PUSH32 0x5DE48BB383B4A2AAAD84721B80D93429B813651B0EEFBD59D32018CFE28215DC SWAP1 PUSH1 0x80 ADD PUSH2 0x151D JUMP JUMPDEST PUSH2 0x1623 JUMP JUMPDEST DUP15 SWAP3 POP PUSH2 0x159C PUSH1 0x1 DUP16 PUSH2 0x1D46 JUMP JUMPDEST DUP16 PUSH2 0x15A7 SWAP2 SWAP1 PUSH2 0x1D5F JUMP JUMPDEST SWAP2 POP DUP13 PUSH1 0xFF AND PUSH1 0x1 SUB PUSH2 0x15C0 JUMPI PUSH2 0x14D9 DUP11 DUP8 DUP6 DUP6 PUSH2 0x1A14 JUMP JUMPDEST DUP13 PUSH1 0xFF AND PUSH1 0x2 SUB PUSH2 0x1623 JUMPI PUSH2 0x15D7 DUP7 DUP12 DUP5 DUP7 PUSH2 0x1A14 JUMP JUMPDEST PUSH1 0x40 DUP1 MLOAD DUP9 DUP2 MSTORE PUSH1 0x20 DUP2 ADD DUP14 SWAP1 MSTORE SWAP1 DUP2 ADD DUP5 SWAP1 MSTORE PUSH1 0x60 DUP2 ADD DUP6 SWAP1 MSTORE SWAP1 SWAP2 POP PUSH32 0x5DE48BB383B4A2AAAD84721B80D93429B813651B0EEFBD59D32018CFE28215DC SWAP1 PUSH1 0x80 ADD PUSH1 0x40 MLOAD DUP1 SWAP2 SUB SWAP1 LOG1 JUMPDEST PUSH1 0x0 DUP11 DUP2 MSTORE PUSH1 0xA PUSH1 0x20 SWAP1 DUP2 MSTORE PUSH1 0x40 DUP1 DUP4 KECCAK256 DUP1 SLOAD PUSH1 0x1 DUP2 DUP2 ADD DUP4 SSTORE SWAP2 DUP6 MSTORE DUP4 DUP6 KECCAK256 ADD DUP6 SWAP1 SSTORE DUP10 DUP5 MSTORE DUP2 DUP5 KECCAK256 DUP1 SLOAD SWAP2 DUP3 ADD DUP2 SSTORE DUP5 MSTORE DUP3 DUP5 KECCAK256 ADD DUP5 SWAP1 SSTORE DUP13 DUP4 MSTORE PUSH1 0x7 SWAP1 SWAP2 MSTORE DUP2 KECCAK256 PUSH1 0x3 ADD DUP1 SLOAD DUP6 SWAP3 SWAP1 PUSH2 0x167A SWAP1 DUP5 SWAP1 PUSH2 0x1D98 JUMP JUMPDEST SWAP1 SWAP2 SSTORE POP POP PUSH1 0x0 DUP7 DUP2 MSTORE PUSH1 0x7 PUSH1 0x20 MSTORE PUSH1 0x40 DUP2 KECCAK256 PUSH1 0x3 ADD DUP1 SLOAD DUP5 SWAP3 SWAP1 PUSH2 0x16A0 SWAP1 DUP5 SWAP1 PUSH2 0x1D98 JUMP JUMPDEST SWAP1 SWAP2 SSTORE POP POP PUSH1 0x0 DUP7 DUP2 MSTORE PUSH1 0x7 PUSH1 0x20 MSTORE PUSH1 0x40 SWAP1 KECCAK256 PUSH1 0x3 DUP2 ADD SLOAD PUSH1 0x2 SWAP1 SWAP2 ADD SLOAD PUSH2 0x16C8 SWAP2 SWAP1 PUSH2 0x1D46 JUMP JUMPDEST PUSH1 0x0 SUB PUSH2 0x16EE JUMPI PUSH1 0x4 DUP9 DUP2 SLOAD DUP2 LT PUSH2 0x16E2 JUMPI PUSH2 0x16E2 PUSH2 0x1C94 JUMP JUMPDEST PUSH1 0x0 SWAP2 DUP3 MSTORE PUSH1 0x20 DUP3 KECCAK256 ADD SSTORE JUMPDEST PUSH2 0x16F8 DUP4 DUP11 PUSH2 0x1D46 JUMP JUMPDEST SWAP9 POP POP POP POP POP POP POP PUSH2 0x1741 JUMP JUMPDEST POP POP PUSH1 0x4 DUP1 SLOAD PUSH1 0x1 DUP2 ADD DUP3 SSTORE PUSH1 0x0 SWAP2 SWAP1 SWAP2 MSTORE PUSH32 0x8A35ACFBC15FF81A39AE7D344FD709F28E8600B4AA8C65C6B64BFE7FE36BD19B ADD DUP3 SWAP1 SSTORE PUSH2 0x1748 JUMP JUMPDEST POP POP PUSH2 0x1329 JUMP JUMPDEST POP PUSH2 0x1784 JUMP JUMPDEST PUSH1 0x4 DUP1 SLOAD PUSH1 0x1 DUP2 ADD DUP3 SSTORE PUSH1 0x0 SWAP2 SWAP1 SWAP2 MSTORE PUSH32 0x8A35ACFBC15FF81A39AE7D344FD709F28E8600B4AA8C65C6B64BFE7FE36BD19B ADD DUP2 SWAP1 SSTORE JUMPDEST PUSH1 0x40 DUP1 MLOAD CALLER DUP2 MSTORE ADDRESS PUSH1 0x20 DUP3 ADD MSTORE SWAP1 DUP2 ADD DUP3 SWAP1 MSTORE PUSH1 0x60 DUP2 ADD DUP8 SWAP1 MSTORE PUSH1 0x80 DUP2 ADD DUP7 SWAP1 MSTORE PUSH1 0xFF DUP6 AND PUSH1 0xA0 DUP3 ADD MSTORE PUSH32 0xAE1F00F8CA5DF624ACFA3BC85ECCDDE83B05574D6C39203C4F6E0A7F9A69AC82 SWAP1 PUSH1 0xC0 ADD PUSH1 0x40 MLOAD DUP1 SWAP2 SUB SWAP1 LOG1 SWAP8 SWAP7 POP POP POP POP POP POP POP JUMP JUMPDEST PUSH1 0x0 DUP2 DUP2 MSTORE PUSH1 0x9 PUSH1 0x20 SWAP1 DUP2 MSTORE PUSH1 0x40 DUP1 DUP4 KECCAK256 DUP1 SLOAD DUP5 MSTORE PUSH1 0x7 DUP4 MSTORE DUP2 DUP5 KECCAK256 SLOAD PUSH1 0x1 DUP3 ADD SLOAD DUP6 MSTORE DUP3 DUP6 KECCAK256 SLOAD PUSH1 0x2 SWAP1 SWAP3 ADD SLOAD PUSH1 0x1 PUSH1 0x1 PUSH1 0xA0 SHL SUB SWAP2 DUP3 AND DUP1 DUP8 MSTORE PUSH1 0x6 SWAP1 SWAP6 MSTORE SWAP3 DUP6 KECCAK256 DUP1 SLOAD SWAP5 SWAP6 SWAP2 SWAP1 SWAP3 AND SWAP4 PUSH2 0x183E SWAP1 DUP5 SWAP1 PUSH2 0x1D98 JUMP JUMPDEST SWAP1 SWAP2 SSTORE POP POP PUSH1 0x0 DUP4 DUP2 MSTORE PUSH1 0x9 PUSH1 0x20 SWAP1 DUP2 MSTORE PUSH1 0x40 DUP1 DUP4 KECCAK256 PUSH1 0x3 ADD SLOAD PUSH1 0x1 PUSH1 0x1 PUSH1 0xA0 SHL SUB DUP6 AND DUP5 MSTORE PUSH1 0x6 SWAP1 SWAP3 MSTORE DUP3 KECCAK256 DUP1 SLOAD SWAP2 SWAP3 SWAP1 SWAP2 PUSH2 0x187C SWAP1 DUP5 SWAP1 PUSH2 0x1D98 JUMP JUMPDEST SWAP1 SWAP2 SSTORE POP POP POP PUSH1 0x0 SWAP2 DUP3 MSTORE POP PUSH1 0x9 PUSH1 0x20 MSTORE PUSH1 0x40 SWAP1 KECCAK256 PUSH1 0x4 ADD DUP1 SLOAD PUSH1 0xFF NOT AND PUSH1 0x1 OR SWAP1 SSTORE JUMP JUMPDEST PUSH1 0x0 DUP1 JUMPDEST PUSH1 0x3 SLOAD PUSH1 0x40 MLOAD PUSH12 0xFFFFFFFFFFFFFFFFFFFFFFFF NOT PUSH1 0x60 DUP12 DUP2 SHL DUP3 AND PUSH1 0x20 DUP5 ADD MSTORE ADDRESS SWAP1 SHL AND PUSH1 0x34 DUP3 ADD MSTORE PUSH1 0x48 DUP2 ADD SWAP2 SWAP1 SWAP2 MSTORE TIMESTAMP PUSH1 0x68 DUP3 ADD MSTORE DIFFICULTY PUSH1 0x88 DUP3 ADD MSTORE PUSH1 0xA8 ADD PUSH1 0x40 DUP1 MLOAD PUSH1 0x1F NOT DUP2 DUP5 SUB ADD DUP2 MSTORE SWAP2 DUP2 MSTORE DUP2 MLOAD PUSH1 0x20 SWAP3 DUP4 ADD KECCAK256 PUSH1 0x0 DUP2 DUP2 MSTORE PUSH1 0x7 SWAP1 SWAP4 MSTORE SWAP2 KECCAK256 PUSH1 0x2 ADD SLOAD SWAP1 SWAP2 POP PUSH2 0x18A5 JUMPI PUSH1 0x40 DUP1 MLOAD PUSH1 0xC0 DUP2 ADD DUP3 MSTORE PUSH1 0x1 PUSH1 0x1 PUSH1 0xA0 SHL SUB DUP1 DUP12 AND DUP1 DUP4 MSTORE DUP11 DUP3 AND PUSH1 0x20 DUP1 DUP6 ADD SWAP2 DUP3 MSTORE DUP5 DUP7 ADD DUP13 DUP2 MSTORE PUSH1 0x60 DUP7 ADD DUP13 DUP2 MSTORE PUSH1 0x80 DUP8 ADD DUP13 DUP2 MSTORE PUSH1 0xFF DUP1 DUP14 AND PUSH1 0xA0 DUP11 ADD SWAP1 DUP2 MSTORE PUSH1 0x0 DUP13 DUP2 MSTORE PUSH1 0x7 DUP8 MSTORE DUP12 DUP2 KECCAK256 SWAP11 MLOAD DUP12 SLOAD SWAP1 DUP12 AND PUSH1 0x1 PUSH1 0x1 PUSH1 0xA0 SHL SUB NOT SWAP2 DUP3 AND OR DUP13 SSTORE SWAP8 MLOAD PUSH1 0x1 DUP1 DUP14 ADD DUP1 SLOAD SWAP3 SWAP1 SWAP13 AND SWAP2 SWAP1 SWAP10 AND OR SWAP1 SWAP10 SSTORE SWAP4 MLOAD PUSH1 0x2 DUP11 ADD SSTORE SWAP2 MLOAD PUSH1 0x3 DUP1 DUP11 ADD SWAP2 SWAP1 SWAP2 SSTORE SWAP1 MLOAD PUSH1 0x4 DUP10 ADD SSTORE SWAP2 MLOAD PUSH1 0x5 SWAP1 SWAP8 ADD DUP1 SLOAD SWAP8 SWAP1 SWAP2 AND PUSH1 0xFF NOT SWAP1 SWAP8 AND SWAP7 SWAP1 SWAP7 OR SWAP1 SWAP6 SSTORE DUP5 SLOAD DUP1 DUP4 ADD SWAP1 SWAP6 SSTORE PUSH32 0xC2575A0E9E593C00F959F8C92F12DB2869C3395A3B0502D05E2516446F71F85B SWAP1 SWAP5 ADD DUP7 SWAP1 SSTORE SWAP1 DUP3 MSTORE PUSH1 0x8 DUP4 MSTORE SWAP3 DUP2 KECCAK256 DUP1 SLOAD SWAP4 DUP5 ADD DUP2 SSTORE DUP2 MSTORE KECCAK256 ADD DUP2 SWAP1 SSTORE SWAP1 POP SWAP7 SWAP6 POP POP POP POP POP POP JUMP JUMPDEST PUSH1 0x0 DUP1 JUMPDEST PUSH1 0x2 SLOAD PUSH1 0x40 DUP1 MLOAD PUSH1 0x20 DUP2 ADD DUP10 SWAP1 MSTORE SWAP1 DUP2 ADD DUP8 SWAP1 MSTORE PUSH1 0x60 DUP2 ADD SWAP2 SWAP1 SWAP2 MSTORE TIMESTAMP PUSH1 0x80 DUP3 ADD MSTORE DIFFICULTY PUSH1 0xA0 DUP3 ADD MSTORE PUSH1 0xC0 ADD PUSH1 0x40 DUP1 MLOAD PUSH1 0x1F NOT DUP2 DUP5 SUB ADD DUP2 MSTORE SWAP2 DUP2 MSTORE DUP2 MLOAD PUSH1 0x20 SWAP3 DUP4 ADD KECCAK256 PUSH1 0x0 DUP2 DUP2 MSTORE PUSH1 0x9 SWAP1 SWAP4 MSTORE SWAP2 KECCAK256 PUSH1 0x2 ADD SLOAD SWAP1 SWAP2 POP PUSH2 0x1A18 JUMPI PUSH1 0x40 DUP1 MLOAD PUSH1 0xA0 DUP2 ADD DUP3 MSTORE SWAP7 DUP8 MSTORE PUSH1 0x20 DUP1 DUP9 ADD SWAP7 DUP8 MSTORE DUP8 DUP3 ADD SWAP6 DUP7 MSTORE PUSH1 0x60 DUP9 ADD SWAP5 DUP6 MSTORE PUSH1 0x0 PUSH1 0x80 DUP10 ADD DUP2 DUP2 MSTORE DUP5 DUP3 MSTORE PUSH1 0x9 SWAP1 SWAP3 MSTORE SWAP2 DUP3 KECCAK256 SWAP8 MLOAD DUP9 SSTORE SWAP6 MLOAD PUSH1 0x1 DUP1 DUP10 ADD SWAP2 SWAP1 SWAP2 SSTORE SWAP5 MLOAD PUSH1 0x2 DUP1 DUP10 ADD SWAP2 SWAP1 SWAP2 SSTORE SWAP4 MLOAD PUSH1 0x3 DUP9 ADD SSTORE SWAP5 MLOAD PUSH1 0x4 SWAP1 SWAP7 ADD DUP1 SLOAD PUSH1 0xFF NOT AND SWAP7 ISZERO ISZERO SWAP7 SWAP1 SWAP7 OR SWAP1 SWAP6 SSTORE POP DUP1 SLOAD SWAP2 DUP3 ADD DUP2 SSTORE SWAP1 SWAP2 MSTORE PUSH32 0x405787FA12A823E0F2B7631CC41B3BA8828B3321CA811111FA75CD3AA3BB5ACE ADD DUP2 SWAP1 SSTORE SWAP1 JUMP JUMPDEST PUSH1 0x1 PUSH1 0x1 PUSH1 0xA0 SHL SUB DUP2 AND DUP2 EQ PUSH2 0x28E JUMPI PUSH1 0x0 DUP1 REVERT JUMPDEST PUSH1 0x0 PUSH1 0x20 DUP3 DUP5 SUB SLT ISZERO PUSH2 0x1B3A JUMPI PUSH1 0x0 DUP1 REVERT JUMPDEST DUP2 CALLDATALOAD PUSH2 0x1B45 DUP2 PUSH2 0x1B13 JUMP JUMPDEST SWAP4 SWAP3 POP POP POP JUMP JUMPDEST PUSH1 0x20 DUP1 DUP3 MSTORE DUP3 MLOAD DUP3 DUP3 ADD DUP2 SWAP1 MSTORE PUSH1 0x0 SWAP2 SWAP1 PUSH1 0x40 SWAP1 DUP2 DUP6 ADD SWAP1 DUP7 DUP5 ADD DUP6 JUMPDEST DUP3 DUP2 LT ISZERO PUSH2 0x1BC6 JUMPI DUP2 MLOAD DUP1 MLOAD PUSH1 0x1 PUSH1 0x1 PUSH1 0xA0 SHL SUB SWAP1 DUP2 AND DUP7 MSTORE DUP8 DUP3 ADD MLOAD AND DUP8 DUP7 ADD MSTORE DUP6 DUP2 ADD MLOAD DUP7 DUP7 ADD MSTORE PUSH1 0x60 DUP1 DUP3 ADD MLOAD SWAP1 DUP7 ADD MSTORE PUSH1 0x80 DUP1 DUP3 ADD MLOAD SWAP1 DUP7 ADD MSTORE PUSH1 0xA0 SWAP1 DUP2 ADD MLOAD PUSH1 0xFF AND SWAP1 DUP6 ADD MSTORE PUSH1 0xC0 SWAP1 SWAP4 ADD SWAP3 SWAP1 DUP6 ADD SWAP1 PUSH1 0x1 ADD PUSH2 0x1B69 JUMP JUMPDEST POP SWAP2 SWAP8 SWAP7 POP POP POP POP POP POP POP JUMP JUMPDEST PUSH1 0x0 PUSH1 0x20 DUP3 DUP5 SUB SLT ISZERO PUSH2 0x1BE5 JUMPI PUSH1 0x0 DUP1 REVERT JUMPDEST POP CALLDATALOAD SWAP2 SWAP1 POP JUMP JUMPDEST DUP1 CALLDATALOAD PUSH1 0xFF DUP2 AND DUP2 EQ PUSH2 0x11F2 JUMPI PUSH1 0x0 DUP1 REVERT JUMPDEST PUSH1 0x0 PUSH1 0x20 DUP3 DUP5 SUB SLT ISZERO PUSH2 0x1C0F JUMPI PUSH1 0x0 DUP1 REVERT JUMPDEST PUSH2 0x1B45 DUP3 PUSH2 0x1BEC JUMP JUMPDEST DUP1 ISZERO ISZERO DUP2 EQ PUSH2 0x28E JUMPI PUSH1 0x0 DUP1 REVERT JUMPDEST PUSH1 0x0 DUP1 PUSH1 0x0 DUP1 PUSH1 0x0 DUP1 PUSH1 0xC0 DUP8 DUP10 SUB SLT ISZERO PUSH2 0x1C3F JUMPI PUSH1 0x0 DUP1 REVERT JUMPDEST DUP7 CALLDATALOAD PUSH2 0x1C4A DUP2 PUSH2 0x1B13 JUMP JUMPDEST SWAP6 POP PUSH1 0x20 DUP8 ADD CALLDATALOAD PUSH2 0x1C5A DUP2 PUSH2 0x1B13 JUMP JUMPDEST SWAP5 POP PUSH1 0x40 DUP8 ADD CALLDATALOAD SWAP4 POP PUSH1 0x60 DUP8 ADD CALLDATALOAD SWAP3 POP PUSH2 0x1C76 PUSH1 0x80 DUP9 ADD PUSH2 0x1BEC JUMP JUMPDEST SWAP2 POP PUSH1 0xA0 DUP8 ADD CALLDATALOAD PUSH2 0x1C86 DUP2 PUSH2 0x1C18 JUMP JUMPDEST DUP1 SWAP2 POP POP SWAP3 SWAP6 POP SWAP3 SWAP6 POP SWAP3 SWAP6 JUMP JUMPDEST PUSH4 0x4E487B71 PUSH1 0xE0 SHL PUSH1 0x0 MSTORE PUSH1 0x32 PUSH1 0x4 MSTORE PUSH1 0x24 PUSH1 0x0 REVERT JUMPDEST PUSH4 0x4E487B71 PUSH1 0xE0 SHL PUSH1 0x0 MSTORE PUSH1 0x11 PUSH1 0x4 MSTORE PUSH1 0x24 PUSH1 0x0 REVERT JUMPDEST PUSH1 0x0 PUSH1 0x1 DUP3 ADD PUSH2 0x1CD2 JUMPI PUSH2 0x1CD2 PUSH2 0x1CAA JUMP JUMPDEST POP PUSH1 0x1 ADD SWAP1 JUMP JUMPDEST PUSH1 0x20 DUP1 DUP3 MSTORE PUSH1 0x1F SWAP1 DUP3 ADD MSTORE PUSH32 0x5265656E7472616E637947756172643A207265656E7472616E742063616C6C00 PUSH1 0x40 DUP3 ADD MSTORE PUSH1 0x60 ADD SWAP1 JUMP JUMPDEST PUSH1 0x0 PUSH1 0x20 DUP3 DUP5 SUB SLT ISZERO PUSH2 0x1D22 JUMPI PUSH1 0x0 DUP1 REVERT JUMPDEST POP MLOAD SWAP2 SWAP1 POP JUMP JUMPDEST PUSH1 0x0 PUSH1 0x20 DUP3 DUP5 SUB SLT ISZERO PUSH2 0x1D3B JUMPI PUSH1 0x0 DUP1 REVERT JUMPDEST DUP2 MLOAD PUSH2 0x1B45 DUP2 PUSH2 0x1C18 JUMP JUMPDEST DUP2 DUP2 SUB DUP2 DUP2 GT ISZERO PUSH2 0x1D59 JUMPI PUSH2 0x1D59 PUSH2 0x1CAA JUMP JUMPDEST SWAP3 SWAP2 POP POP JUMP JUMPDEST DUP1 DUP3 MUL DUP2 ISZERO DUP3 DUP3 DIV DUP5 EQ OR PUSH2 0x1D59 JUMPI PUSH2 0x1D59 PUSH2 0x1CAA JUMP JUMPDEST PUSH1 0x0 DUP3 PUSH2 0x1D93 JUMPI PUSH4 0x4E487B71 PUSH1 0xE0 SHL PUSH1 0x0 MSTORE PUSH1 0x12 PUSH1 0x4 MSTORE PUSH1 0x24 PUSH1 0x0 REVERT JUMPDEST POP DIV SWAP1 JUMP JUMPDEST DUP1 DUP3 ADD DUP1 DUP3 GT ISZERO PUSH2 0x1D59 JUMPI PUSH2 0x1D59 PUSH2 0x1CAA JUMP JUMPDEST PUSH1 0x0 PUSH1 0x20 DUP3 DUP5 SUB SLT ISZERO PUSH2 0x1DBD JUMPI PUSH1 0x0 DUP1 REVERT JUMPDEST DUP2 MLOAD PUSH2 0x1B45 DUP2 PUSH2 0x1B13 JUMP INVALID LOG2 PUSH5 0x6970667358 0x22 SLT KECCAK256 ORIGIN 0xAC DUP5 0xD7 0xFB 0x28 0xA8 LOG2 0xB6 PUSH11 0xBF574E6B757DCF447C40B3 MOD SSTORE 0xD4 PUSH3 0x1EC6C7 LOG3 0xDD PUSH22 0x3464736F6C6343000811003300000000000000000000 "
				},
				"gasEstimates": {
					"creation": {
						"codeDepositCost": "1535600",
						"executionCost": "infinite",
						"totalCost": "infinite"
					},
					"external": {
						"addBet(address,address,uint256,uint256,uint8,bool)": "infinite",
						"app()": "infinite",
						"cancelMarket()": "infinite",
						"cancelPending(bytes32)": "infinite",
						"factory()": "2359",
						"getBalance(address)": "2597",
						"getUserBets(address)": "infinite",
						"setWinningSide(uint8)": "infinite",
						"settleAllPAirs()": "infinite",
						"settlePair(bytes32)": "infinite",
						"status()": "2325",
						"token()": "infinite",
						"withdraw(address)": "infinite"
					},
					"internal": {
						"_cancelPair(bytes32)": "infinite",
						"_createBet(address,address,uint256,uint256,uint256,uint8)": "infinite",
						"_createPair(bytes32,bytes32,uint256,uint256)": "infinite"
					}
				},
				"methodIdentifiers": {
					"addBet(address,address,uint256,uint256,uint8,bool)": "c7b448bd",
					"app()": "b76564bd",
					"cancelMarket()": "6bfefd6b",
					"cancelPending(bytes32)": "893372ca",
					"factory()": "c45a0155",
					"getBalance(address)": "f8b2cb4f",
					"getUserBets(address)": "2d56657d",
					"setWinningSide(uint8)": "8f2c4885",
					"settleAllPAirs()": "0d68ecb0",
					"settlePair(bytes32)": "74393a9b",
					"status()": "200d2ed2",
					"token()": "fc0c546a",
					"withdraw(address)": "51cff8d9"
				}
			},
			"storageLayout": {
				"storage": [
					{
						"astId": 10,
						"contract": "contracts/Market.sol:Market",
						"label": "_status",
						"offset": 0,
						"slot": "0",
						"type": "t_uint256"
					},
					{
						"astId": 129,
						"contract": "contracts/Market.sol:Market",
						"label": "factory",
						"offset": 0,
						"slot": "1",
						"type": "t_address"
					},
					{
						"astId": 132,
						"contract": "contracts/Market.sol:Market",
						"label": "pairs",
						"offset": 0,
						"slot": "2",
						"type": "t_array(t_bytes32)dyn_storage"
					},
					{
						"astId": 135,
						"contract": "contracts/Market.sol:Market",
						"label": "bets",
						"offset": 0,
						"slot": "3",
						"type": "t_array(t_bytes32)dyn_storage"
					},
					{
						"astId": 138,
						"contract": "contracts/Market.sol:Market",
						"label": "pendingBets",
						"offset": 0,
						"slot": "4",
						"type": "t_array(t_bytes32)dyn_storage"
					},
					{
						"astId": 142,
						"contract": "contracts/Market.sol:Market",
						"label": "status",
						"offset": 0,
						"slot": "5",
						"type": "t_uint8"
					},
					{
						"astId": 157,
						"contract": "contracts/Market.sol:Market",
						"label": "bal",
						"offset": 0,
						"slot": "6",
						"type": "t_mapping(t_address,t_uint256)"
					},
					{
						"astId": 162,
						"contract": "contracts/Market.sol:Market",
						"label": "betsInfo",
						"offset": 0,
						"slot": "7",
						"type": "t_mapping(t_bytes32,t_struct(MarketBet)1338_storage)"
					},
					{
						"astId": 167,
						"contract": "contracts/Market.sol:Market",
						"label": "userBets",
						"offset": 0,
						"slot": "8",
						"type": "t_mapping(t_address,t_array(t_bytes32)dyn_storage)"
					},
					{
						"astId": 172,
						"contract": "contracts/Market.sol:Market",
						"label": "pairsInfo",
						"offset": 0,
						"slot": "9",
						"type": "t_mapping(t_bytes32,t_struct(MarketPair)153_storage)"
					},
					{
						"astId": 177,
						"contract": "contracts/Market.sol:Market",
						"label": "betPairs",
						"offset": 0,
						"slot": "10",
						"type": "t_mapping(t_bytes32,t_array(t_bytes32)dyn_storage)"
					}
				],
				"types": {
					"t_address": {
						"encoding": "inplace",
						"label": "address",
						"numberOfBytes": "20"
					},
					"t_array(t_bytes32)dyn_storage": {
						"base": "t_bytes32",
						"encoding": "dynamic_array",
						"label": "bytes32[]",
						"numberOfBytes": "32"
					},
					"t_bool": {
						"encoding": "inplace",
						"label": "bool",
						"numberOfBytes": "1"
					},
					"t_bytes32": {
						"encoding": "inplace",
						"label": "bytes32",
						"numberOfBytes": "32"
					},
					"t_mapping(t_address,t_array(t_bytes32)dyn_storage)": {
						"encoding": "mapping",
						"key": "t_address",
						"label": "mapping(address => bytes32[])",
						"numberOfBytes": "32",
						"value": "t_array(t_bytes32)dyn_storage"
					},
					"t_mapping(t_address,t_uint256)": {
						"encoding": "mapping",
						"key": "t_address",
						"label": "mapping(address => uint256)",
						"numberOfBytes": "32",
						"value": "t_uint256"
					},
					"t_mapping(t_bytes32,t_array(t_bytes32)dyn_storage)": {
						"encoding": "mapping",
						"key": "t_bytes32",
						"label": "mapping(bytes32 => bytes32[])",
						"numberOfBytes": "32",
						"value": "t_array(t_bytes32)dyn_storage"
					},
					"t_mapping(t_bytes32,t_struct(MarketBet)1338_storage)": {
						"encoding": "mapping",
						"key": "t_bytes32",
						"label": "mapping(bytes32 => struct IMarket.MarketBet)",
						"numberOfBytes": "32",
						"value": "t_struct(MarketBet)1338_storage"
					},
					"t_mapping(t_bytes32,t_struct(MarketPair)153_storage)": {
						"encoding": "mapping",
						"key": "t_bytes32",
						"label": "mapping(bytes32 => struct Market.MarketPair)",
						"numberOfBytes": "32",
						"value": "t_struct(MarketPair)153_storage"
					},
					"t_struct(MarketBet)1338_storage": {
						"encoding": "inplace",
						"label": "struct IMarket.MarketBet",
						"members": [
							{
								"astId": 1327,
								"contract": "contracts/Market.sol:Market",
								"label": "better",
								"offset": 0,
								"slot": "0",
								"type": "t_address"
							},
							{
								"astId": 1329,
								"contract": "contracts/Market.sol:Market",
								"label": "affiliate",
								"offset": 0,
								"slot": "1",
								"type": "t_address"
							},
							{
								"astId": 1331,
								"contract": "contracts/Market.sol:Market",
								"label": "stake",
								"offset": 0,
								"slot": "2",
								"type": "t_uint256"
							},
							{
								"astId": 1333,
								"contract": "contracts/Market.sol:Market",
								"label": "matched",
								"offset": 0,
								"slot": "3",
								"type": "t_uint256"
							},
							{
								"astId": 1335,
								"contract": "contracts/Market.sol:Market",
								"label": "odds",
								"offset": 0,
								"slot": "4",
								"type": "t_uint256"
							},
							{
								"astId": 1337,
								"contract": "contracts/Market.sol:Market",
								"label": "side",
								"offset": 0,
								"slot": "5",
								"type": "t_uint8"
							}
						],
						"numberOfBytes": "192"
					},
					"t_struct(MarketPair)153_storage": {
						"encoding": "inplace",
						"label": "struct Market.MarketPair",
						"members": [
							{
								"astId": 144,
								"contract": "contracts/Market.sol:Market",
								"label": "betHashA",
								"offset": 0,
								"slot": "0",
								"type": "t_bytes32"
							},
							{
								"astId": 146,
								"contract": "contracts/Market.sol:Market",
								"label": "betHashB",
								"offset": 0,
								"slot": "1",
								"type": "t_bytes32"
							},
							{
								"astId": 148,
								"contract": "contracts/Market.sol:Market",
								"label": "amountA",
								"offset": 0,
								"slot": "2",
								"type": "t_uint256"
							},
							{
								"astId": 150,
								"contract": "contracts/Market.sol:Market",
								"label": "amountB",
								"offset": 0,
								"slot": "3",
								"type": "t_uint256"
							},
							{
								"astId": 152,
								"contract": "contracts/Market.sol:Market",
								"label": "settled",
								"offset": 0,
								"slot": "4",
								"type": "t_bool"
							}
						],
						"numberOfBytes": "160"
					},
					"t_uint256": {
						"encoding": "inplace",
						"label": "uint256",
						"numberOfBytes": "32"
					},
					"t_uint8": {
						"encoding": "inplace",
						"label": "uint8",
						"numberOfBytes": "1"
					}
				}
			},
			"userdoc": {
				"kind": "user",
				"methods": {},
				"version": 1
			}
		}
	}
}