{
	"contracts/BetPair.sol": {
		"BetPair": {
			"abi": [
				{
					"inputs": [
						{
							"internalType": "address",
							"name": "market_",
							"type": "address"
						},
						{
							"internalType": "address",
							"name": "sideABet_",
							"type": "address"
						},
						{
							"internalType": "address",
							"name": "sideBBet_",
							"type": "address"
						},
						{
							"internalType": "uint256",
							"name": "amountA_",
							"type": "uint256"
						},
						{
							"internalType": "uint256",
							"name": "amountB_",
							"type": "uint256"
						}
					],
					"stateMutability": "nonpayable",
					"type": "constructor"
				},
				{
					"inputs": [],
					"name": "amountA",
					"outputs": [
						{
							"internalType": "uint256",
							"name": "",
							"type": "uint256"
						}
					],
					"stateMutability": "view",
					"type": "function"
				},
				{
					"inputs": [],
					"name": "amountB",
					"outputs": [
						{
							"internalType": "uint256",
							"name": "",
							"type": "uint256"
						}
					],
					"stateMutability": "view",
					"type": "function"
				},
				{
					"inputs": [],
					"name": "market",
					"outputs": [
						{
							"internalType": "address",
							"name": "",
							"type": "address"
						}
					],
					"stateMutability": "view",
					"type": "function"
				},
				{
					"inputs": [
						{
							"internalType": "address",
							"name": "_addr",
							"type": "address"
						}
					],
					"name": "setWinnerBet",
					"outputs": [
						{
							"internalType": "bool",
							"name": "",
							"type": "bool"
						}
					],
					"stateMutability": "nonpayable",
					"type": "function"
				},
				{
					"inputs": [],
					"name": "sideABet",
					"outputs": [
						{
							"internalType": "address",
							"name": "",
							"type": "address"
						}
					],
					"stateMutability": "view",
					"type": "function"
				},
				{
					"inputs": [],
					"name": "sideBBet",
					"outputs": [
						{
							"internalType": "address",
							"name": "",
							"type": "address"
						}
					],
					"stateMutability": "view",
					"type": "function"
				},
				{
					"inputs": [],
					"name": "winnerAddress",
					"outputs": [
						{
							"internalType": "address",
							"name": "",
							"type": "address"
						}
					],
					"stateMutability": "view",
					"type": "function"
				},
				{
					"inputs": [],
					"name": "winnerBet",
					"outputs": [
						{
							"internalType": "address",
							"name": "",
							"type": "address"
						}
					],
					"stateMutability": "view",
					"type": "function"
				}
			],
			"devdoc": {
				"kind": "dev",
				"methods": {},
				"version": 1
			},
			"evm": {
				"assembly": "    /* \"contracts/BetPair.sol\":152:1311  contract BetPair is IBetPair {... */\n  mstore(0x40, 0x80)\n    /* \"contracts/BetPair.sol\":542:557  web3betsAddress */\n  sload(0x00)\n    /* \"contracts/BetPair.sol\":499:558  IWeb3BetsFO private web3bets = IWeb3BetsFO(web3betsAddress) */\n  0x08\n  dup1\n  sload\n  not(sub(shl(0xa0, 0x01), 0x01))\n  and\n  sub(shl(0xa0, 0x01), 0x01)\n    /* \"contracts/BetPair.sol\":542:557  web3betsAddress */\n  swap1\n  swap3\n  and\n    /* \"contracts/BetPair.sol\":499:558  IWeb3BetsFO private web3bets = IWeb3BetsFO(web3betsAddress) */\n  swap2\n  swap1\n  swap2\n  or\n  swap1\n  sstore\n    /* \"contracts/BetPair.sol\":565:978  constructor (... */\n  callvalue\n  dup1\n  iszero\n  tag_1\n  jumpi\n  0x00\n  dup1\n  revert\ntag_1:\n  pop\n  mload(0x40)\n  sub(codesize, bytecodeSize)\n  dup1\n  bytecodeSize\n  dup4\n  codecopy\n  dup2\n  add\n  0x40\n  dup2\n  swap1\n  mstore\n  tag_2\n  swap2\n  tag_3\n  jump\t// in\ntag_2:\n    /* \"contracts/BetPair.sol\":741:749  web3bets */\n  0x08\n  0x00\n  swap1\n  sload\n  swap1\n  0x0100\n  exp\n  swap1\n  div\n  sub(shl(0xa0, 0x01), 0x01)\n  and\n  sub(shl(0xa0, 0x01), 0x01)\n    /* \"contracts/BetPair.sol\":741:757  web3bets.factory */\n  and\n  0xc45a0155\n    /* \"contracts/BetPair.sol\":741:759  web3bets.factory() */\n  mload(0x40)\n  dup2\n  0xffffffff\n  and\n  0xe0\n  shl\n  dup2\n  mstore\n  0x04\n  add\n  0x20\n  mload(0x40)\n  dup1\n  dup4\n  sub\n  dup2\n  dup7\n  dup1\n  extcodesize\n  iszero\n  dup1\n  iszero\n  tag_6\n  jumpi\n  0x00\n  dup1\n  revert\ntag_6:\n  pop\n  gas\n  staticcall\n  iszero\n  dup1\n  iszero\n  tag_8\n  jumpi\n  returndatasize\n  0x00\n  dup1\n  returndatacopy\n  revert(0x00, returndatasize)\ntag_8:\n  pop\n  pop\n  pop\n  pop\n  mload(0x40)\n  returndatasize\n  not(0x1f)\n  0x1f\n  dup3\n  add\n  and\n  dup3\n  add\n  dup1\n  0x40\n  mstore\n  pop\n  dup2\n  add\n  swap1\n  tag_9\n  swap2\n  swap1\n  tag_10\n  jump\t// in\ntag_9:\n  sub(shl(0xa0, 0x01), 0x01)\n    /* \"contracts/BetPair.sol\":727:759  msg.sender == web3bets.factory() */\n  and\n    /* \"contracts/BetPair.sol\":727:737  msg.sender */\n  caller\n  sub(shl(0xa0, 0x01), 0x01)\n    /* \"contracts/BetPair.sol\":727:759  msg.sender == web3bets.factory() */\n  and\n  eq\n    /* \"contracts/BetPair.sol\":719:829  require(msg.sender == web3bets.factory(), \"only web3bets fixedodds factory contract can create this contract\") */\n  tag_11\n  jumpi\n  mload(0x40)\n  shl(0xe5, 0x461bcd)\n  dup2\n  mstore\n    /* \"#utility.yul\":1138:1140   */\n  0x20\n    /* \"contracts/BetPair.sol\":719:829  require(msg.sender == web3bets.factory(), \"only web3bets fixedodds factory contract can create this contract\") */\n  0x04\n  dup3\n  add\n    /* \"#utility.yul\":1120:1141   */\n  mstore\n    /* \"#utility.yul\":1177:1179   */\n  0x41\n    /* \"#utility.yul\":1157:1175   */\n  0x24\n  dup3\n  add\n    /* \"#utility.yul\":1150:1180   */\n  mstore\n    /* \"#utility.yul\":1216:1250   */\n  0x6f6e6c792077656233626574732066697865646f64647320666163746f727920\n    /* \"#utility.yul\":1196:1214   */\n  0x44\n  dup3\n  add\n    /* \"#utility.yul\":1189:1251   */\n  mstore\n    /* \"#utility.yul\":1287:1321   */\n  0x636f6e74726163742063616e20637265617465207468697320636f6e74726163\n    /* \"#utility.yul\":1267:1285   */\n  0x64\n  dup3\n  add\n    /* \"#utility.yul\":1260:1322   */\n  mstore\n  shl(0xfa, 0x1d)\n    /* \"#utility.yul\":1338:1357   */\n  0x84\n  dup3\n  add\n    /* \"#utility.yul\":1331:1363   */\n  mstore\n    /* \"#utility.yul\":1380:1399   */\n  0xa4\n  add\n    /* \"contracts/BetPair.sol\":719:829  require(msg.sender == web3bets.factory(), \"only web3bets fixedodds factory contract can create this contract\") */\n  mload(0x40)\n  dup1\n  swap2\n  sub\n  swap1\n  revert\ntag_11:\n    /* \"contracts/BetPair.sol\":839:845  market */\n  0x01\n    /* \"contracts/BetPair.sol\":839:855  market = market_ */\n  dup1\n  sload\n  not(sub(shl(0xa0, 0x01), 0x01))\n  swap1\n  dup2\n  and\n  sub(shl(0xa0, 0x01), 0x01)\n  swap8\n  dup9\n  and\n  or\n  swap1\n  swap2\n  sstore\n    /* \"contracts/BetPair.sol\":865:873  sideABet */\n  0x02\n    /* \"contracts/BetPair.sol\":865:885  sideABet = sideABet_ */\n  dup1\n  sload\n  dup3\n  and\n  swap6\n  dup8\n  and\n  swap6\n  swap1\n  swap6\n  or\n  swap1\n  swap5\n  sstore\n    /* \"contracts/BetPair.sol\":895:903  sideBBet */\n  0x03\n    /* \"contracts/BetPair.sol\":895:915  sideBBet = sideBBet_ */\n  dup1\n  sload\n  swap1\n  swap5\n  and\n  swap3\n  swap1\n  swap5\n  and\n  swap2\n  swap1\n  swap2\n  or\n  swap1\n  swap2\n  sstore\n    /* \"contracts/BetPair.sol\":925:932  amountA */\n  0x06\n    /* \"contracts/BetPair.sol\":925:943  amountA = amountA_ */\n  sstore\n    /* \"contracts/BetPair.sol\":953:960  amountB */\n  0x07\n    /* \"contracts/BetPair.sol\":953:971  amountB = amountB_ */\n  sstore\n    /* \"contracts/BetPair.sol\":152:1311  contract BetPair is IBetPair {... */\n  jump(tag_15)\n    /* \"#utility.yul\":14:191   */\ntag_16:\n    /* \"#utility.yul\":93:106   */\n  dup1\n  mload\n  sub(shl(0xa0, 0x01), 0x01)\n    /* \"#utility.yul\":135:166   */\n  dup2\n  and\n    /* \"#utility.yul\":125:167   */\n  dup2\n  eq\n    /* \"#utility.yul\":115:117   */\n  tag_18\n  jumpi\n    /* \"#utility.yul\":181:182   */\n  0x00\n    /* \"#utility.yul\":178:179   */\n  dup1\n    /* \"#utility.yul\":171:183   */\n  revert\n    /* \"#utility.yul\":115:117   */\ntag_18:\n    /* \"#utility.yul\":74:191   */\n  swap2\n  swap1\n  pop\n  jump\t// out\n    /* \"#utility.yul\":196:414   */\ntag_10:\n    /* \"#utility.yul\":266:272   */\n  0x00\n    /* \"#utility.yul\":319:321   */\n  0x20\n    /* \"#utility.yul\":307:316   */\n  dup3\n    /* \"#utility.yul\":298:305   */\n  dup5\n    /* \"#utility.yul\":294:317   */\n  sub\n    /* \"#utility.yul\":290:322   */\n  slt\n    /* \"#utility.yul\":287:289   */\n  iszero\n  tag_20\n  jumpi\n    /* \"#utility.yul\":340:346   */\n  dup1\n    /* \"#utility.yul\":332:338   */\n  dup2\n    /* \"#utility.yul\":325:347   */\n  revert\n    /* \"#utility.yul\":287:289   */\ntag_20:\n    /* \"#utility.yul\":368:408   */\n  tag_21\n    /* \"#utility.yul\":398:407   */\n  dup3\n    /* \"#utility.yul\":368:408   */\n  tag_16\n  jump\t// in\ntag_21:\n    /* \"#utility.yul\":358:408   */\n  swap4\n    /* \"#utility.yul\":277:414   */\n  swap3\n  pop\n  pop\n  pop\n  jump\t// out\n    /* \"#utility.yul\":419:931   */\ntag_3:\n    /* \"#utility.yul\":525:531   */\n  0x00\n    /* \"#utility.yul\":533:539   */\n  dup1\n    /* \"#utility.yul\":541:547   */\n  0x00\n    /* \"#utility.yul\":549:555   */\n  dup1\n    /* \"#utility.yul\":557:563   */\n  0x00\n    /* \"#utility.yul\":610:613   */\n  0xa0\n    /* \"#utility.yul\":598:607   */\n  dup7\n    /* \"#utility.yul\":589:596   */\n  dup9\n    /* \"#utility.yul\":585:608   */\n  sub\n    /* \"#utility.yul\":581:614   */\n  slt\n    /* \"#utility.yul\":578:580   */\n  iszero\n  tag_23\n  jumpi\n    /* \"#utility.yul\":632:638   */\n  dup1\n    /* \"#utility.yul\":624:630   */\n  dup2\n    /* \"#utility.yul\":617:639   */\n  revert\n    /* \"#utility.yul\":578:580   */\ntag_23:\n    /* \"#utility.yul\":660:700   */\n  tag_24\n    /* \"#utility.yul\":690:699   */\n  dup7\n    /* \"#utility.yul\":660:700   */\n  tag_16\n  jump\t// in\ntag_24:\n    /* \"#utility.yul\":650:700   */\n  swap5\n  pop\n    /* \"#utility.yul\":719:768   */\n  tag_25\n    /* \"#utility.yul\":764:766   */\n  0x20\n    /* \"#utility.yul\":753:762   */\n  dup8\n    /* \"#utility.yul\":749:767   */\n  add\n    /* \"#utility.yul\":719:768   */\n  tag_16\n  jump\t// in\ntag_25:\n    /* \"#utility.yul\":709:768   */\n  swap4\n  pop\n    /* \"#utility.yul\":787:836   */\n  tag_26\n    /* \"#utility.yul\":832:834   */\n  0x40\n    /* \"#utility.yul\":821:830   */\n  dup8\n    /* \"#utility.yul\":817:835   */\n  add\n    /* \"#utility.yul\":787:836   */\n  tag_16\n  jump\t// in\ntag_26:\n    /* \"#utility.yul\":876:878   */\n  0x60\n    /* \"#utility.yul\":861:879   */\n  dup8\n  add\n    /* \"#utility.yul\":855:880   */\n  mload\n    /* \"#utility.yul\":920:923   */\n  0x80\n    /* \"#utility.yul\":905:924   */\n  swap1\n  swap8\n  add\n    /* \"#utility.yul\":899:925   */\n  mload\n    /* \"#utility.yul\":568:931   */\n  swap6\n  swap9\n  swap5\n  swap8\n  pop\n    /* \"#utility.yul\":777:836   */\n  swap6\n    /* \"#utility.yul\":855:880   */\n  swap5\n    /* \"#utility.yul\":899:925   */\n  swap4\n    /* \"#utility.yul\":568:931   */\n  swap3\n  pop\n  pop\n  pop\n  jump\t// out\n    /* \"#utility.yul\":1110:1405   */\ntag_15:\n    /* \"contracts/BetPair.sol\":152:1311  contract BetPair is IBetPair {... */\n  dataSize(sub_0)\n  dup1\n  dataOffset(sub_0)\n  0x00\n  codecopy\n  0x00\n  return\nstop\n\nsub_0: assembly {\n        /* \"contracts/BetPair.sol\":152:1311  contract BetPair is IBetPair {... */\n      mstore(0x40, 0x80)\n      callvalue\n      dup1\n      iszero\n      tag_1\n      jumpi\n      0x00\n      dup1\n      revert\n    tag_1:\n      pop\n      jumpi(tag_2, lt(calldatasize, 0x04))\n      shr(0xe0, calldataload(0x00))\n      dup1\n      0x6d83a71f\n      gt\n      tag_11\n      jumpi\n      dup1\n      0x6d83a71f\n      eq\n      tag_7\n      jumpi\n      dup1\n      0x80f55605\n      eq\n      tag_8\n      jumpi\n      dup1\n      0xbaa1a3ec\n      eq\n      tag_9\n      jumpi\n      dup1\n      0xed7a4e0b\n      eq\n      tag_10\n      jumpi\n      0x00\n      dup1\n      revert\n    tag_11:\n      dup1\n      0x0f765e6d\n      eq\n      tag_3\n      jumpi\n      dup1\n      0x156dcbf0\n      eq\n      tag_4\n      jumpi\n      dup1\n      0x15e894ab\n      eq\n      tag_5\n      jumpi\n      dup1\n      0x2efe91ef\n      eq\n      tag_6\n      jumpi\n    tag_2:\n      0x00\n      dup1\n      revert\n        /* \"contracts/BetPair.sol\":302:334  address public override sideBBet */\n    tag_3:\n      sload(0x03)\n      tag_12\n      swap1\n      sub(shl(0xa0, 0x01), 0x01)\n      and\n      dup2\n      jump\n    tag_12:\n      mload(0x40)\n      sub(shl(0xa0, 0x01), 0x01)\n        /* \"#utility.yul\":706:738   */\n      swap1\n      swap2\n      and\n        /* \"#utility.yul\":688:739   */\n      dup2\n      mstore\n        /* \"#utility.yul\":676:678   */\n      0x20\n        /* \"#utility.yul\":661:679   */\n      add\n        /* \"contracts/BetPair.sol\":302:334  address public override sideBBet */\n    tag_14:\n      mload(0x40)\n      dup1\n      swap2\n      sub\n      swap1\n      return\n        /* \"contracts/BetPair.sol\":429:457  uint public override amountA */\n    tag_4:\n      tag_16\n      sload(0x06)\n      dup2\n      jump\n    tag_16:\n      mload(0x40)\n        /* \"#utility.yul\":1562:1587   */\n      swap1\n      dup2\n      mstore\n        /* \"#utility.yul\":1550:1552   */\n      0x20\n        /* \"#utility.yul\":1535:1553   */\n      add\n        /* \"contracts/BetPair.sol\":429:457  uint public override amountA */\n      tag_14\n        /* \"#utility.yul\":1517:1593   */\n      jump\n        /* \"contracts/BetPair.sol\":263:295  address public override sideABet */\n    tag_5:\n      sload(0x02)\n      tag_12\n      swap1\n      sub(shl(0xa0, 0x01), 0x01)\n      and\n      dup2\n      jump\n        /* \"contracts/BetPair.sol\":464:492  uint public override amountB */\n    tag_6:\n      tag_16\n      sload(0x07)\n      dup2\n      jump\n        /* \"contracts/BetPair.sol\":984:1304  function setWinnerBet( address _addr) external override returns(bool){... */\n    tag_7:\n      tag_26\n      tag_27\n      calldatasize\n      0x04\n      tag_28\n      jump\t// in\n    tag_27:\n      tag_29\n      jump\t// in\n    tag_26:\n      mload(0x40)\n        /* \"#utility.yul\":915:929   */\n      swap1\n      iszero\n        /* \"#utility.yul\":908:930   */\n      iszero\n        /* \"#utility.yul\":890:931   */\n      dup2\n      mstore\n        /* \"#utility.yul\":878:880   */\n      0x20\n        /* \"#utility.yul\":863:881   */\n      add\n        /* \"contracts/BetPair.sol\":984:1304  function setWinnerBet( address _addr) external override returns(bool){... */\n      tag_14\n        /* \"#utility.yul\":845:937   */\n      jump\n        /* \"contracts/BetPair.sol\":226:256  address public override market */\n    tag_8:\n      sload(0x01)\n      tag_12\n      swap1\n      sub(shl(0xa0, 0x01), 0x01)\n      and\n      dup2\n      jump\n        /* \"contracts/BetPair.sol\":345:378  address public override winnerBet */\n    tag_9:\n      sload(0x04)\n      tag_12\n      swap1\n      sub(shl(0xa0, 0x01), 0x01)\n      and\n      dup2\n      jump\n        /* \"contracts/BetPair.sol\":385:422  address public override winnerAddress */\n    tag_10:\n      sload(0x05)\n      tag_12\n      swap1\n      sub(shl(0xa0, 0x01), 0x01)\n      and\n      dup2\n      jump\n        /* \"contracts/BetPair.sol\":984:1304  function setWinnerBet( address _addr) external override returns(bool){... */\n    tag_29:\n        /* \"contracts/BetPair.sol\":1085:1093  web3bets */\n      sload(0x08)\n        /* \"contracts/BetPair.sol\":1085:1103  web3bets.factory() */\n      0x40\n      dup1\n      mload\n      shl(0xe0, 0xc45a0155)\n      dup2\n      mstore\n      swap1\n      mload\n        /* \"contracts/BetPair.sol\":1048:1052  bool */\n      0x00\n      swap3\n      sub(shl(0xa0, 0x01), 0x01)\n        /* \"contracts/BetPair.sol\":1085:1093  web3bets */\n      and\n      swap2\n        /* \"contracts/BetPair.sol\":1085:1101  web3bets.factory */\n      0xc45a0155\n      swap2\n        /* \"contracts/BetPair.sol\":1085:1103  web3bets.factory() */\n      0x04\n      dup1\n      dup4\n      add\n      swap3\n      0x20\n      swap3\n      swap2\n      swap1\n      dup3\n      swap1\n      sub\n      add\n      dup2\n        /* \"contracts/BetPair.sol\":1085:1093  web3bets */\n      dup7\n        /* \"contracts/BetPair.sol\":1085:1103  web3bets.factory() */\n      dup1\n      extcodesize\n      iszero\n      dup1\n      iszero\n      tag_42\n      jumpi\n      0x00\n      dup1\n      revert\n    tag_42:\n      pop\n      gas\n      staticcall\n      iszero\n      dup1\n      iszero\n      tag_44\n      jumpi\n      returndatasize\n      0x00\n      dup1\n      returndatacopy\n      revert(0x00, returndatasize)\n    tag_44:\n      pop\n      pop\n      pop\n      pop\n      mload(0x40)\n      returndatasize\n      not(0x1f)\n      0x1f\n      dup3\n      add\n      and\n      dup3\n      add\n      dup1\n      0x40\n      mstore\n      pop\n      dup2\n      add\n      swap1\n      tag_45\n      swap2\n      swap1\n      tag_46\n      jump\t// in\n    tag_45:\n      sub(shl(0xa0, 0x01), 0x01)\n        /* \"contracts/BetPair.sol\":1071:1103  msg.sender == web3bets.factory() */\n      and\n        /* \"contracts/BetPair.sol\":1071:1081  msg.sender */\n      caller\n      sub(shl(0xa0, 0x01), 0x01)\n        /* \"contracts/BetPair.sol\":1071:1103  msg.sender == web3bets.factory() */\n      and\n      eq\n        /* \"contracts/BetPair.sol\":1063:1173  require(msg.sender == web3bets.factory(), \"only web3bets fixedodds factory contract can create this contract\") */\n      tag_47\n      jumpi\n      mload(0x40)\n      shl(0xe5, 0x461bcd)\n      dup2\n      mstore\n        /* \"#utility.yul\":1144:1146   */\n      0x20\n        /* \"contracts/BetPair.sol\":1063:1173  require(msg.sender == web3bets.factory(), \"only web3bets fixedodds factory contract can create this contract\") */\n      0x04\n      dup3\n      add\n        /* \"#utility.yul\":1126:1147   */\n      mstore\n        /* \"#utility.yul\":1183:1185   */\n      0x41\n        /* \"#utility.yul\":1163:1181   */\n      0x24\n      dup3\n      add\n        /* \"#utility.yul\":1156:1186   */\n      mstore\n        /* \"#utility.yul\":1222:1256   */\n      0x6f6e6c792077656233626574732066697865646f64647320666163746f727920\n        /* \"#utility.yul\":1202:1220   */\n      0x44\n      dup3\n      add\n        /* \"#utility.yul\":1195:1257   */\n      mstore\n        /* \"#utility.yul\":1293:1327   */\n      0x636f6e74726163742063616e20637265617465207468697320636f6e74726163\n        /* \"#utility.yul\":1273:1291   */\n      0x64\n      dup3\n      add\n        /* \"#utility.yul\":1266:1328   */\n      mstore\n      shl(0xfa, 0x1d)\n        /* \"#utility.yul\":1344:1363   */\n      0x84\n      dup3\n      add\n        /* \"#utility.yul\":1337:1369   */\n      mstore\n        /* \"#utility.yul\":1386:1405   */\n      0xa4\n      add\n        /* \"contracts/BetPair.sol\":1063:1173  require(msg.sender == web3bets.factory(), \"only web3bets fixedodds factory contract can create this contract\") */\n      mload(0x40)\n      dup1\n      swap2\n      sub\n      swap1\n      revert\n    tag_47:\n        /* \"contracts/BetPair.sol\":1183:1192  winnerBet */\n      0x04\n        /* \"contracts/BetPair.sol\":1183:1200  winnerBet = _addr */\n      dup1\n      sload\n      not(sub(shl(0xa0, 0x01), 0x01))\n      and\n      sub(shl(0xa0, 0x01), 0x01)\n      dup5\n      and\n      swap1\n      dup2\n      or\n      dup3\n      sstore\n        /* \"contracts/BetPair.sol\":1263:1276  _bet.better() */\n      0x40\n      dup1\n      mload\n      shl(0xe2, 0x1c631f51)\n      dup2\n      mstore\n      swap1\n      mload\n        /* \"contracts/BetPair.sol\":1183:1200  winnerBet = _addr */\n      swap2\n      swap3\n      dup4\n      swap3\n        /* \"contracts/BetPair.sol\":1263:1274  _bet.better */\n      0x718c7d44\n      swap3\n        /* \"contracts/BetPair.sol\":1263:1276  _bet.better() */\n      dup1\n      dup4\n      add\n      swap3\n      0x20\n      swap3\n      swap2\n      dup3\n      swap1\n      sub\n      add\n      dup2\n        /* \"contracts/BetPair.sol\":1183:1200  winnerBet = _addr */\n      dup7\n        /* \"contracts/BetPair.sol\":1263:1276  _bet.better() */\n      dup1\n      extcodesize\n      iszero\n      dup1\n      iszero\n      tag_50\n      jumpi\n      0x00\n      dup1\n      revert\n    tag_50:\n      pop\n      gas\n      staticcall\n      iszero\n      dup1\n      iszero\n      tag_52\n      jumpi\n      returndatasize\n      0x00\n      dup1\n      returndatacopy\n      revert(0x00, returndatasize)\n    tag_52:\n      pop\n      pop\n      pop\n      pop\n      mload(0x40)\n      returndatasize\n      not(0x1f)\n      0x1f\n      dup3\n      add\n      and\n      dup3\n      add\n      dup1\n      0x40\n      mstore\n      pop\n      dup2\n      add\n      swap1\n      tag_53\n      swap2\n      swap1\n      tag_46\n      jump\t// in\n    tag_53:\n        /* \"contracts/BetPair.sol\":1247:1260  winnerAddress */\n      0x05\n        /* \"contracts/BetPair.sol\":1247:1276  winnerAddress = _bet.better() */\n      dup1\n      sload\n      not(sub(shl(0xa0, 0x01), 0x01))\n      and\n      sub(shl(0xa0, 0x01), 0x01)\n      swap3\n      swap1\n      swap3\n      and\n      swap2\n      swap1\n      swap2\n      or\n      swap1\n      sstore\n      pop\n      0x01\n      swap3\n      swap2\n      pop\n      pop\n        /* \"contracts/BetPair.sol\":984:1304  function setWinnerBet( address _addr) external override returns(bool){... */\n      jump\t// out\n        /* \"#utility.yul\":14:271   */\n    tag_28:\n        /* \"#utility.yul\":73:79   */\n      0x00\n        /* \"#utility.yul\":126:128   */\n      0x20\n        /* \"#utility.yul\":114:123   */\n      dup3\n        /* \"#utility.yul\":105:112   */\n      dup5\n        /* \"#utility.yul\":101:124   */\n      sub\n        /* \"#utility.yul\":97:129   */\n      slt\n        /* \"#utility.yul\":94:96   */\n      iszero\n      tag_56\n      jumpi\n        /* \"#utility.yul\":147:153   */\n      dup1\n        /* \"#utility.yul\":139:145   */\n      dup2\n        /* \"#utility.yul\":132:154   */\n      revert\n        /* \"#utility.yul\":94:96   */\n    tag_56:\n        /* \"#utility.yul\":191:200   */\n      dup2\n        /* \"#utility.yul\":178:201   */\n      calldataload\n        /* \"#utility.yul\":210:241   */\n      tag_57\n        /* \"#utility.yul\":235:240   */\n      dup2\n        /* \"#utility.yul\":210:241   */\n      tag_58\n      jump\t// in\n    tag_57:\n        /* \"#utility.yul\":260:265   */\n      swap4\n        /* \"#utility.yul\":84:271   */\n      swap3\n      pop\n      pop\n      pop\n      jump\t// out\n        /* \"#utility.yul\":276:537   */\n    tag_46:\n        /* \"#utility.yul\":346:352   */\n      0x00\n        /* \"#utility.yul\":399:401   */\n      0x20\n        /* \"#utility.yul\":387:396   */\n      dup3\n        /* \"#utility.yul\":378:385   */\n      dup5\n        /* \"#utility.yul\":374:397   */\n      sub\n        /* \"#utility.yul\":370:402   */\n      slt\n        /* \"#utility.yul\":367:369   */\n      iszero\n      tag_60\n      jumpi\n        /* \"#utility.yul\":420:426   */\n      dup1\n        /* \"#utility.yul\":412:418   */\n      dup2\n        /* \"#utility.yul\":405:427   */\n      revert\n        /* \"#utility.yul\":367:369   */\n    tag_60:\n        /* \"#utility.yul\":457:466   */\n      dup2\n        /* \"#utility.yul\":451:467   */\n      mload\n        /* \"#utility.yul\":476:507   */\n      tag_57\n        /* \"#utility.yul\":501:506   */\n      dup2\n        /* \"#utility.yul\":1598:1729   */\n    tag_58:\n      sub(shl(0xa0, 0x01), 0x01)\n        /* \"#utility.yul\":1673:1704   */\n      dup2\n      and\n        /* \"#utility.yul\":1663:1705   */\n      dup2\n      eq\n        /* \"#utility.yul\":1653:1655   */\n      tag_67\n      jumpi\n        /* \"#utility.yul\":1719:1720   */\n      0x00\n        /* \"#utility.yul\":1716:1717   */\n      dup1\n        /* \"#utility.yul\":1709:1721   */\n      revert\n        /* \"#utility.yul\":1653:1655   */\n    tag_67:\n        /* \"#utility.yul\":1643:1729   */\n      pop\n      jump\t// out\n\n    auxdata: 0xa2646970667358221220d344815d66a43eade48dfda996be3f4fc9e4af52826ec81c4156fd1756928a8d64736f6c63430008040033\n}\n",
				"bytecode": {
					"linkReferences": {},
					"object": "6080604052600054600880546001600160a01b0319166001600160a01b0390921691909117905534801561003257600080fd5b506040516105f23803806105f2833981016040819052610051916101f4565b600860009054906101000a90046001600160a01b03166001600160a01b031663c45a01556040518163ffffffff1660e01b815260040160206040518083038186803b15801561009f57600080fd5b505afa1580156100b3573d6000803e3d6000fd5b505050506040513d601f19601f820116820180604052508101906100d791906101d3565b6001600160a01b0316336001600160a01b03161461016b5760405162461bcd60e51b815260206004820152604160248201527f6f6e6c792077656233626574732066697865646f64647320666163746f72792060448201527f636f6e74726163742063616e20637265617465207468697320636f6e747261636064820152601d60fa1b608482015260a40160405180910390fd5b600180546001600160a01b03199081166001600160a01b039788161790915560028054821695871695909517909455600380549094169290941691909117909155600655600755610249565b80516001600160a01b03811681146101ce57600080fd5b919050565b6000602082840312156101e4578081fd5b6101ed826101b7565b9392505050565b600080600080600060a0868803121561020b578081fd5b610214866101b7565b9450610222602087016101b7565b9350610230604087016101b7565b6060870151608090970151959894975095949392505050565b61039a806102586000396000f3fe608060405234801561001057600080fd5b50600436106100885760003560e01c80636d83a71f1161005b5780636d83a71f146100f057806380f5560514610113578063baa1a3ec14610126578063ed7a4e0b1461013957600080fd5b80630f765e6d1461008d578063156dcbf0146100bd57806315e894ab146100d45780632efe91ef146100e7575b600080fd5b6003546100a0906001600160a01b031681565b6040516001600160a01b0390911681526020015b60405180910390f35b6100c660065481565b6040519081526020016100b4565b6002546100a0906001600160a01b031681565b6100c660075481565b6101036100fe366004610311565b61014c565b60405190151581526020016100b4565b6001546100a0906001600160a01b031681565b6004546100a0906001600160a01b031681565b6005546100a0906001600160a01b031681565b6008546040805163c45a015560e01b815290516000926001600160a01b03169163c45a0155916004808301926020929190829003018186803b15801561019157600080fd5b505afa1580156101a5573d6000803e3d6000fd5b505050506040513d601f19601f820116820180604052508101906101c99190610334565b6001600160a01b0316336001600160a01b03161461025d5760405162461bcd60e51b815260206004820152604160248201527f6f6e6c792077656233626574732066697865646f64647320666163746f72792060448201527f636f6e74726163742063616e20637265617465207468697320636f6e747261636064820152601d60fa1b608482015260a40160405180910390fd5b600480546001600160a01b0319166001600160a01b038416908117825560408051631c631f5160e21b815290519192839263718c7d44928083019260209291829003018186803b1580156102b057600080fd5b505afa1580156102c4573d6000803e3d6000fd5b505050506040513d601f19601f820116820180604052508101906102e89190610334565b600580546001600160a01b0319166001600160a01b039290921691909117905550600192915050565b600060208284031215610322578081fd5b813561032d8161034c565b9392505050565b600060208284031215610345578081fd5b815161032d815b6001600160a01b038116811461036157600080fd5b5056fea2646970667358221220d344815d66a43eade48dfda996be3f4fc9e4af52826ec81c4156fd1756928a8d64736f6c63430008040033",
					"opcodes": "PUSH1 0x80 PUSH1 0x40 MSTORE PUSH1 0x0 SLOAD PUSH1 0x8 DUP1 SLOAD PUSH1 0x1 PUSH1 0x1 PUSH1 0xA0 SHL SUB NOT AND PUSH1 0x1 PUSH1 0x1 PUSH1 0xA0 SHL SUB SWAP1 SWAP3 AND SWAP2 SWAP1 SWAP2 OR SWAP1 SSTORE CALLVALUE DUP1 ISZERO PUSH2 0x32 JUMPI PUSH1 0x0 DUP1 REVERT JUMPDEST POP PUSH1 0x40 MLOAD PUSH2 0x5F2 CODESIZE SUB DUP1 PUSH2 0x5F2 DUP4 CODECOPY DUP2 ADD PUSH1 0x40 DUP2 SWAP1 MSTORE PUSH2 0x51 SWAP2 PUSH2 0x1F4 JUMP JUMPDEST PUSH1 0x8 PUSH1 0x0 SWAP1 SLOAD SWAP1 PUSH2 0x100 EXP SWAP1 DIV PUSH1 0x1 PUSH1 0x1 PUSH1 0xA0 SHL SUB AND PUSH1 0x1 PUSH1 0x1 PUSH1 0xA0 SHL SUB AND PUSH4 0xC45A0155 PUSH1 0x40 MLOAD DUP2 PUSH4 0xFFFFFFFF AND PUSH1 0xE0 SHL DUP2 MSTORE PUSH1 0x4 ADD PUSH1 0x20 PUSH1 0x40 MLOAD DUP1 DUP4 SUB DUP2 DUP7 DUP1 EXTCODESIZE ISZERO DUP1 ISZERO PUSH2 0x9F JUMPI PUSH1 0x0 DUP1 REVERT JUMPDEST POP GAS STATICCALL ISZERO DUP1 ISZERO PUSH2 0xB3 JUMPI RETURNDATASIZE PUSH1 0x0 DUP1 RETURNDATACOPY RETURNDATASIZE PUSH1 0x0 REVERT JUMPDEST POP POP POP POP PUSH1 0x40 MLOAD RETURNDATASIZE PUSH1 0x1F NOT PUSH1 0x1F DUP3 ADD AND DUP3 ADD DUP1 PUSH1 0x40 MSTORE POP DUP2 ADD SWAP1 PUSH2 0xD7 SWAP2 SWAP1 PUSH2 0x1D3 JUMP JUMPDEST PUSH1 0x1 PUSH1 0x1 PUSH1 0xA0 SHL SUB AND CALLER PUSH1 0x1 PUSH1 0x1 PUSH1 0xA0 SHL SUB AND EQ PUSH2 0x16B JUMPI PUSH1 0x40 MLOAD PUSH3 0x461BCD PUSH1 0xE5 SHL DUP2 MSTORE PUSH1 0x20 PUSH1 0x4 DUP3 ADD MSTORE PUSH1 0x41 PUSH1 0x24 DUP3 ADD MSTORE PUSH32 0x6F6E6C792077656233626574732066697865646F64647320666163746F727920 PUSH1 0x44 DUP3 ADD MSTORE PUSH32 0x636F6E74726163742063616E20637265617465207468697320636F6E74726163 PUSH1 0x64 DUP3 ADD MSTORE PUSH1 0x1D PUSH1 0xFA SHL PUSH1 0x84 DUP3 ADD MSTORE PUSH1 0xA4 ADD PUSH1 0x40 MLOAD DUP1 SWAP2 SUB SWAP1 REVERT JUMPDEST PUSH1 0x1 DUP1 SLOAD PUSH1 0x1 PUSH1 0x1 PUSH1 0xA0 SHL SUB NOT SWAP1 DUP2 AND PUSH1 0x1 PUSH1 0x1 PUSH1 0xA0 SHL SUB SWAP8 DUP9 AND OR SWAP1 SWAP2 SSTORE PUSH1 0x2 DUP1 SLOAD DUP3 AND SWAP6 DUP8 AND SWAP6 SWAP1 SWAP6 OR SWAP1 SWAP5 SSTORE PUSH1 0x3 DUP1 SLOAD SWAP1 SWAP5 AND SWAP3 SWAP1 SWAP5 AND SWAP2 SWAP1 SWAP2 OR SWAP1 SWAP2 SSTORE PUSH1 0x6 SSTORE PUSH1 0x7 SSTORE PUSH2 0x249 JUMP JUMPDEST DUP1 MLOAD PUSH1 0x1 PUSH1 0x1 PUSH1 0xA0 SHL SUB DUP2 AND DUP2 EQ PUSH2 0x1CE JUMPI PUSH1 0x0 DUP1 REVERT JUMPDEST SWAP2 SWAP1 POP JUMP JUMPDEST PUSH1 0x0 PUSH1 0x20 DUP3 DUP5 SUB SLT ISZERO PUSH2 0x1E4 JUMPI DUP1 DUP2 REVERT JUMPDEST PUSH2 0x1ED DUP3 PUSH2 0x1B7 JUMP JUMPDEST SWAP4 SWAP3 POP POP POP JUMP JUMPDEST PUSH1 0x0 DUP1 PUSH1 0x0 DUP1 PUSH1 0x0 PUSH1 0xA0 DUP7 DUP9 SUB SLT ISZERO PUSH2 0x20B JUMPI DUP1 DUP2 REVERT JUMPDEST PUSH2 0x214 DUP7 PUSH2 0x1B7 JUMP JUMPDEST SWAP5 POP PUSH2 0x222 PUSH1 0x20 DUP8 ADD PUSH2 0x1B7 JUMP JUMPDEST SWAP4 POP PUSH2 0x230 PUSH1 0x40 DUP8 ADD PUSH2 0x1B7 JUMP JUMPDEST PUSH1 0x60 DUP8 ADD MLOAD PUSH1 0x80 SWAP1 SWAP8 ADD MLOAD SWAP6 SWAP9 SWAP5 SWAP8 POP SWAP6 SWAP5 SWAP4 SWAP3 POP POP POP JUMP JUMPDEST PUSH2 0x39A DUP1 PUSH2 0x258 PUSH1 0x0 CODECOPY PUSH1 0x0 RETURN INVALID PUSH1 0x80 PUSH1 0x40 MSTORE CALLVALUE DUP1 ISZERO PUSH2 0x10 JUMPI PUSH1 0x0 DUP1 REVERT JUMPDEST POP PUSH1 0x4 CALLDATASIZE LT PUSH2 0x88 JUMPI PUSH1 0x0 CALLDATALOAD PUSH1 0xE0 SHR DUP1 PUSH4 0x6D83A71F GT PUSH2 0x5B JUMPI DUP1 PUSH4 0x6D83A71F EQ PUSH2 0xF0 JUMPI DUP1 PUSH4 0x80F55605 EQ PUSH2 0x113 JUMPI DUP1 PUSH4 0xBAA1A3EC EQ PUSH2 0x126 JUMPI DUP1 PUSH4 0xED7A4E0B EQ PUSH2 0x139 JUMPI PUSH1 0x0 DUP1 REVERT JUMPDEST DUP1 PUSH4 0xF765E6D EQ PUSH2 0x8D JUMPI DUP1 PUSH4 0x156DCBF0 EQ PUSH2 0xBD JUMPI DUP1 PUSH4 0x15E894AB EQ PUSH2 0xD4 JUMPI DUP1 PUSH4 0x2EFE91EF EQ PUSH2 0xE7 JUMPI JUMPDEST PUSH1 0x0 DUP1 REVERT JUMPDEST PUSH1 0x3 SLOAD PUSH2 0xA0 SWAP1 PUSH1 0x1 PUSH1 0x1 PUSH1 0xA0 SHL SUB AND DUP2 JUMP JUMPDEST PUSH1 0x40 MLOAD PUSH1 0x1 PUSH1 0x1 PUSH1 0xA0 SHL SUB SWAP1 SWAP2 AND DUP2 MSTORE PUSH1 0x20 ADD JUMPDEST PUSH1 0x40 MLOAD DUP1 SWAP2 SUB SWAP1 RETURN JUMPDEST PUSH2 0xC6 PUSH1 0x6 SLOAD DUP2 JUMP JUMPDEST PUSH1 0x40 MLOAD SWAP1 DUP2 MSTORE PUSH1 0x20 ADD PUSH2 0xB4 JUMP JUMPDEST PUSH1 0x2 SLOAD PUSH2 0xA0 SWAP1 PUSH1 0x1 PUSH1 0x1 PUSH1 0xA0 SHL SUB AND DUP2 JUMP JUMPDEST PUSH2 0xC6 PUSH1 0x7 SLOAD DUP2 JUMP JUMPDEST PUSH2 0x103 PUSH2 0xFE CALLDATASIZE PUSH1 0x4 PUSH2 0x311 JUMP JUMPDEST PUSH2 0x14C JUMP JUMPDEST PUSH1 0x40 MLOAD SWAP1 ISZERO ISZERO DUP2 MSTORE PUSH1 0x20 ADD PUSH2 0xB4 JUMP JUMPDEST PUSH1 0x1 SLOAD PUSH2 0xA0 SWAP1 PUSH1 0x1 PUSH1 0x1 PUSH1 0xA0 SHL SUB AND DUP2 JUMP JUMPDEST PUSH1 0x4 SLOAD PUSH2 0xA0 SWAP1 PUSH1 0x1 PUSH1 0x1 PUSH1 0xA0 SHL SUB AND DUP2 JUMP JUMPDEST PUSH1 0x5 SLOAD PUSH2 0xA0 SWAP1 PUSH1 0x1 PUSH1 0x1 PUSH1 0xA0 SHL SUB AND DUP2 JUMP JUMPDEST PUSH1 0x8 SLOAD PUSH1 0x40 DUP1 MLOAD PUSH4 0xC45A0155 PUSH1 0xE0 SHL DUP2 MSTORE SWAP1 MLOAD PUSH1 0x0 SWAP3 PUSH1 0x1 PUSH1 0x1 PUSH1 0xA0 SHL SUB AND SWAP2 PUSH4 0xC45A0155 SWAP2 PUSH1 0x4 DUP1 DUP4 ADD SWAP3 PUSH1 0x20 SWAP3 SWAP2 SWAP1 DUP3 SWAP1 SUB ADD DUP2 DUP7 DUP1 EXTCODESIZE ISZERO DUP1 ISZERO PUSH2 0x191 JUMPI PUSH1 0x0 DUP1 REVERT JUMPDEST POP GAS STATICCALL ISZERO DUP1 ISZERO PUSH2 0x1A5 JUMPI RETURNDATASIZE PUSH1 0x0 DUP1 RETURNDATACOPY RETURNDATASIZE PUSH1 0x0 REVERT JUMPDEST POP POP POP POP PUSH1 0x40 MLOAD RETURNDATASIZE PUSH1 0x1F NOT PUSH1 0x1F DUP3 ADD AND DUP3 ADD DUP1 PUSH1 0x40 MSTORE POP DUP2 ADD SWAP1 PUSH2 0x1C9 SWAP2 SWAP1 PUSH2 0x334 JUMP JUMPDEST PUSH1 0x1 PUSH1 0x1 PUSH1 0xA0 SHL SUB AND CALLER PUSH1 0x1 PUSH1 0x1 PUSH1 0xA0 SHL SUB AND EQ PUSH2 0x25D JUMPI PUSH1 0x40 MLOAD PUSH3 0x461BCD PUSH1 0xE5 SHL DUP2 MSTORE PUSH1 0x20 PUSH1 0x4 DUP3 ADD MSTORE PUSH1 0x41 PUSH1 0x24 DUP3 ADD MSTORE PUSH32 0x6F6E6C792077656233626574732066697865646F64647320666163746F727920 PUSH1 0x44 DUP3 ADD MSTORE PUSH32 0x636F6E74726163742063616E20637265617465207468697320636F6E74726163 PUSH1 0x64 DUP3 ADD MSTORE PUSH1 0x1D PUSH1 0xFA SHL PUSH1 0x84 DUP3 ADD MSTORE PUSH1 0xA4 ADD PUSH1 0x40 MLOAD DUP1 SWAP2 SUB SWAP1 REVERT JUMPDEST PUSH1 0x4 DUP1 SLOAD PUSH1 0x1 PUSH1 0x1 PUSH1 0xA0 SHL SUB NOT AND PUSH1 0x1 PUSH1 0x1 PUSH1 0xA0 SHL SUB DUP5 AND SWAP1 DUP2 OR DUP3 SSTORE PUSH1 0x40 DUP1 MLOAD PUSH4 0x1C631F51 PUSH1 0xE2 SHL DUP2 MSTORE SWAP1 MLOAD SWAP2 SWAP3 DUP4 SWAP3 PUSH4 0x718C7D44 SWAP3 DUP1 DUP4 ADD SWAP3 PUSH1 0x20 SWAP3 SWAP2 DUP3 SWAP1 SUB ADD DUP2 DUP7 DUP1 EXTCODESIZE ISZERO DUP1 ISZERO PUSH2 0x2B0 JUMPI PUSH1 0x0 DUP1 REVERT JUMPDEST POP GAS STATICCALL ISZERO DUP1 ISZERO PUSH2 0x2C4 JUMPI RETURNDATASIZE PUSH1 0x0 DUP1 RETURNDATACOPY RETURNDATASIZE PUSH1 0x0 REVERT JUMPDEST POP POP POP POP PUSH1 0x40 MLOAD RETURNDATASIZE PUSH1 0x1F NOT PUSH1 0x1F DUP3 ADD AND DUP3 ADD DUP1 PUSH1 0x40 MSTORE POP DUP2 ADD SWAP1 PUSH2 0x2E8 SWAP2 SWAP1 PUSH2 0x334 JUMP JUMPDEST PUSH1 0x5 DUP1 SLOAD PUSH1 0x1 PUSH1 0x1 PUSH1 0xA0 SHL SUB NOT AND PUSH1 0x1 PUSH1 0x1 PUSH1 0xA0 SHL SUB SWAP3 SWAP1 SWAP3 AND SWAP2 SWAP1 SWAP2 OR SWAP1 SSTORE POP PUSH1 0x1 SWAP3 SWAP2 POP POP JUMP JUMPDEST PUSH1 0x0 PUSH1 0x20 DUP3 DUP5 SUB SLT ISZERO PUSH2 0x322 JUMPI DUP1 DUP2 REVERT JUMPDEST DUP2 CALLDATALOAD PUSH2 0x32D DUP2 PUSH2 0x34C JUMP JUMPDEST SWAP4 SWAP3 POP POP POP JUMP JUMPDEST PUSH1 0x0 PUSH1 0x20 DUP3 DUP5 SUB SLT ISZERO PUSH2 0x345 JUMPI DUP1 DUP2 REVERT JUMPDEST DUP2 MLOAD PUSH2 0x32D DUP2 JUMPDEST PUSH1 0x1 PUSH1 0x1 PUSH1 0xA0 SHL SUB DUP2 AND DUP2 EQ PUSH2 0x361 JUMPI PUSH1 0x0 DUP1 REVERT JUMPDEST POP JUMP INVALID LOG2 PUSH5 0x6970667358 0x22 SLT KECCAK256 0xD3 DIFFICULTY DUP2 0x5D PUSH7 0xA43EADE48DFDA9 SWAP7 0xBE EXTCODEHASH 0x4F 0xC9 0xE4 0xAF MSTORE DUP3 PUSH15 0xC81C4156FD1756928A8D64736F6C63 NUMBER STOP ADDMOD DIV STOP CALLER "
				},
				"gasEstimates": {
					"creation": {
						"codeDepositCost": "184400",
						"executionCost": "infinite",
						"totalCost": "infinite"
					},
					"external": {
						"amountA()": "1018",
						"amountB()": "1062",
						"market()": "1048",
						"setWinnerBet(address)": "infinite",
						"sideABet()": "1071",
						"sideBBet()": "1027",
						"winnerAddress()": "1092",
						"winnerBet()": "1070"
					}
				},
				"methodIdentifiers": {
					"amountA()": "156dcbf0",
					"amountB()": "2efe91ef",
					"market()": "80f55605",
					"setWinnerBet(address)": "6d83a71f",
					"sideABet()": "15e894ab",
					"sideBBet()": "0f765e6d",
					"winnerAddress()": "ed7a4e0b",
					"winnerBet()": "baa1a3ec"
				}
			},
			"storageLayout": {
				"storage": [
					{
						"astId": 2326,
						"contract": "contracts/BetPair.sol:BetPair",
						"label": "web3betsAddress",
						"offset": 0,
						"slot": "0",
						"type": "t_address"
					},
					{
						"astId": 2329,
						"contract": "contracts/BetPair.sol:BetPair",
						"label": "market",
						"offset": 0,
						"slot": "1",
						"type": "t_address"
					},
					{
						"astId": 2332,
						"contract": "contracts/BetPair.sol:BetPair",
						"label": "sideABet",
						"offset": 0,
						"slot": "2",
						"type": "t_address"
					},
					{
						"astId": 2335,
						"contract": "contracts/BetPair.sol:BetPair",
						"label": "sideBBet",
						"offset": 0,
						"slot": "3",
						"type": "t_address"
					},
					{
						"astId": 2338,
						"contract": "contracts/BetPair.sol:BetPair",
						"label": "winnerBet",
						"offset": 0,
						"slot": "4",
						"type": "t_address"
					},
					{
						"astId": 2341,
						"contract": "contracts/BetPair.sol:BetPair",
						"label": "winnerAddress",
						"offset": 0,
						"slot": "5",
						"type": "t_address"
					},
					{
						"astId": 2344,
						"contract": "contracts/BetPair.sol:BetPair",
						"label": "amountA",
						"offset": 0,
						"slot": "6",
						"type": "t_uint256"
					},
					{
						"astId": 2347,
						"contract": "contracts/BetPair.sol:BetPair",
						"label": "amountB",
						"offset": 0,
						"slot": "7",
						"type": "t_uint256"
					},
					{
						"astId": 2353,
						"contract": "contracts/BetPair.sol:BetPair",
						"label": "web3bets",
						"offset": 0,
						"slot": "8",
						"type": "t_contract(IWeb3BetsFO)2918"
					}
				],
				"types": {
					"t_address": {
						"encoding": "inplace",
						"label": "address",
						"numberOfBytes": "20"
					},
					"t_contract(IWeb3BetsFO)2918": {
						"encoding": "inplace",
						"label": "contract IWeb3BetsFO",
						"numberOfBytes": "20"
					},
					"t_uint256": {
						"encoding": "inplace",
						"label": "uint256",
						"numberOfBytes": "32"
					}
				}
			},
			"userdoc": {
				"kind": "user",
				"methods": {},
				"version": 1
			}
		}
	}
}