{
	"contracts/Event.sol": {
		"Event": {
			"abi": [
				{
					"inputs": [
						{
							"internalType": "address",
							"name": "caller_",
							"type": "address"
						},
						{
							"internalType": "string",
							"name": "eventTitle_",
							"type": "string"
						},
						{
							"internalType": "uint256",
							"name": "startTime_",
							"type": "uint256"
						},
						{
							"internalType": "uint256",
							"name": "minimumStake_",
							"type": "uint256"
						}
					],
					"stateMutability": "nonpayable",
					"type": "constructor"
				},
				{
					"inputs": [
						{
							"internalType": "address",
							"name": "_marketAddress",
							"type": "address"
						}
					],
					"name": "addMarket",
					"outputs": [
						{
							"internalType": "bool",
							"name": "",
							"type": "bool"
						}
					],
					"stateMutability": "nonpayable",
					"type": "function"
				},
				{
					"inputs": [],
					"name": "cancelEvent",
					"outputs": [
						{
							"internalType": "bool",
							"name": "",
							"type": "bool"
						}
					],
					"stateMutability": "nonpayable",
					"type": "function"
				},
				{
					"inputs": [],
					"name": "endEvent",
					"outputs": [
						{
							"internalType": "bool",
							"name": "",
							"type": "bool"
						}
					],
					"stateMutability": "nonpayable",
					"type": "function"
				},
				{
					"inputs": [],
					"name": "eventOwner",
					"outputs": [
						{
							"internalType": "address",
							"name": "",
							"type": "address"
						}
					],
					"stateMutability": "view",
					"type": "function"
				},
				{
					"inputs": [],
					"name": "getMarkets",
					"outputs": [
						{
							"internalType": "address[]",
							"name": "",
							"type": "address[]"
						}
					],
					"stateMutability": "view",
					"type": "function"
				},
				{
					"inputs": [
						{
							"internalType": "uint256",
							"name": "",
							"type": "uint256"
						}
					],
					"name": "markets",
					"outputs": [
						{
							"internalType": "address",
							"name": "",
							"type": "address"
						}
					],
					"stateMutability": "view",
					"type": "function"
				},
				{
					"inputs": [],
					"name": "minimumStake",
					"outputs": [
						{
							"internalType": "uint256",
							"name": "",
							"type": "uint256"
						}
					],
					"stateMutability": "view",
					"type": "function"
				},
				{
					"inputs": [],
					"name": "name",
					"outputs": [
						{
							"internalType": "string",
							"name": "",
							"type": "string"
						}
					],
					"stateMutability": "view",
					"type": "function"
				},
				{
					"inputs": [
						{
							"internalType": "uint256",
							"name": "_startTime",
							"type": "uint256"
						}
					],
					"name": "postponeEvent",
					"outputs": [
						{
							"internalType": "bool",
							"name": "",
							"type": "bool"
						}
					],
					"stateMutability": "nonpayable",
					"type": "function"
				},
				{
					"inputs": [],
					"name": "startEvent",
					"outputs": [
						{
							"internalType": "bool",
							"name": "",
							"type": "bool"
						}
					],
					"stateMutability": "nonpayable",
					"type": "function"
				},
				{
					"inputs": [],
					"name": "startTime",
					"outputs": [
						{
							"internalType": "uint256",
							"name": "",
							"type": "uint256"
						}
					],
					"stateMutability": "view",
					"type": "function"
				},
				{
					"inputs": [],
					"name": "status",
					"outputs": [
						{
							"internalType": "enum IEvent.EventStatus",
							"name": "",
							"type": "uint8"
						}
					],
					"stateMutability": "view",
					"type": "function"
				},
				{
					"inputs": [
						{
							"internalType": "string",
							"name": "_eventTitle",
							"type": "string"
						}
					],
					"name": "updateName",
					"outputs": [
						{
							"internalType": "bool",
							"name": "",
							"type": "bool"
						}
					],
					"stateMutability": "nonpayable",
					"type": "function"
				}
			],
			"devdoc": {
				"kind": "dev",
				"methods": {},
				"version": 1
			},
			"evm": {
				"assembly": "    /* \"contracts/Event.sol\":164:3588  contract Event is IEvent {... */\n  mstore(0x40, 0x80)\n    /* \"contracts/Event.sol\":551:566  web3betsAddress */\n  sload(0x00)\n    /* \"contracts/Event.sol\":508:567  IWeb3BetsFO private web3bets = IWeb3BetsFO(web3betsAddress) */\n  0x06\n  dup1\n  sload\n  sub(shl(0xa0, 0x01), 0x01)\n    /* \"contracts/Event.sol\":551:566  web3betsAddress */\n  swap1\n  swap3\n  and\n  0x0100\n    /* \"contracts/Event.sol\":508:567  IWeb3BetsFO private web3bets = IWeb3BetsFO(web3betsAddress) */\n  mul\n  not(sub(shl(0xa8, 0x01), 0x0100))\n  swap1\n  swap3\n  and\n  swap2\n  swap1\n  swap2\n  or\n  swap1\n  sstore\n    /* \"contracts/Event.sol\":877:1328  constructor(... */\n  callvalue\n  dup1\n  iszero\n  tag_1\n  jumpi\n  0x00\n  dup1\n  revert\ntag_1:\n  pop\n  mload(0x40)\n  sub(codesize, bytecodeSize)\n  dup1\n  bytecodeSize\n  dup4\n  codecopy\n  dup2\n  add\n  0x40\n  dup2\n  swap1\n  mstore\n  tag_2\n  swap2\n  tag_3\n  jump\t// in\ntag_2:\n    /* \"contracts/Event.sol\":1046:1054  web3bets */\n  sload(0x06)\n    /* \"contracts/Event.sol\":1046:1069  web3bets.eventFactory() */\n  0x40\n  dup1\n  mload\n  shl(0xe1, 0x37ede9fb)\n  dup2\n  mstore\n  swap1\n  mload\n    /* \"contracts/Event.sol\":1046:1054  web3bets */\n  0x0100\n  swap1\n  swap3\n  div\n  sub(shl(0xa0, 0x01), 0x01)\n  and\n  swap2\n    /* \"contracts/Event.sol\":1046:1067  web3bets.eventFactory */\n  0x6fdbd3f6\n  swap2\n    /* \"contracts/Event.sol\":1046:1069  web3bets.eventFactory() */\n  0x04\n  dup1\n  dup3\n  add\n  swap3\n  0x20\n  swap3\n  swap1\n  swap2\n  swap1\n  dup3\n  swap1\n  sub\n  add\n  dup2\n    /* \"contracts/Event.sol\":1046:1054  web3bets */\n  dup7\n    /* \"contracts/Event.sol\":1046:1069  web3bets.eventFactory() */\n  dup1\n  extcodesize\n  iszero\n  dup1\n  iszero\n  tag_6\n  jumpi\n  0x00\n  dup1\n  revert\ntag_6:\n  pop\n  gas\n  staticcall\n  iszero\n  dup1\n  iszero\n  tag_8\n  jumpi\n  returndatasize\n  0x00\n  dup1\n  returndatacopy\n  revert(0x00, returndatasize)\ntag_8:\n  pop\n  pop\n  pop\n  pop\n  mload(0x40)\n  returndatasize\n  not(0x1f)\n  0x1f\n  dup3\n  add\n  and\n  dup3\n  add\n  dup1\n  0x40\n  mstore\n  pop\n  dup2\n  add\n  swap1\n  tag_9\n  swap2\n  swap1\n  tag_10\n  jump\t// in\ntag_9:\n  sub(shl(0xa0, 0x01), 0x01)\n    /* \"contracts/Event.sol\":1032:1069  msg.sender == web3bets.eventFactory() */\n  and\n    /* \"contracts/Event.sol\":1032:1042  msg.sender */\n  caller\n    /* \"contracts/Event.sol\":1032:1069  msg.sender == web3bets.eventFactory() */\n  eq\n    /* \"contracts/Event.sol\":1024:1079  require(msg.sender == web3bets.eventFactory(), \"fty o\") */\n  tag_11\n  jumpi\n  mload(0x40)\n  shl(0xe5, 0x461bcd)\n  dup2\n  mstore\n    /* \"#utility.yul\":1971:1973   */\n  0x20\n    /* \"contracts/Event.sol\":1024:1079  require(msg.sender == web3bets.eventFactory(), \"fty o\") */\n  0x04\n  dup3\n  add\n    /* \"#utility.yul\":1953:1974   */\n  mstore\n    /* \"#utility.yul\":2010:2011   */\n  0x05\n    /* \"#utility.yul\":1990:2008   */\n  0x24\n  dup3\n  add\n    /* \"#utility.yul\":1983:2012   */\n  mstore\n  shl(0xd8, 0x667479206f)\n    /* \"#utility.yul\":2028:2046   */\n  0x44\n  dup3\n  add\n    /* \"#utility.yul\":2021:2056   */\n  mstore\n    /* \"#utility.yul\":2073:2091   */\n  0x64\n  add\n    /* \"contracts/Event.sol\":1024:1079  require(msg.sender == web3bets.eventFactory(), \"fty o\") */\ntag_12:\n  mload(0x40)\n  dup1\n  swap2\n  sub\n  swap1\n  revert\ntag_11:\n    /* \"contracts/Event.sol\":387:395  10 ** 18 */\n  0x0de0b6b3a7640000\n    /* \"contracts/Event.sol\":1097:1121  minimumStake_ * 10 ** 18 */\n  tag_14\n    /* \"contracts/Event.sol\":1097:1110  minimumStake_ */\n  dup3\n    /* \"contracts/Event.sol\":387:395  10 ** 18 */\n  dup3\n    /* \"contracts/Event.sol\":1097:1121  minimumStake_ * 10 ** 18 */\n  tag_15\n  jump\t// in\ntag_14:\n    /* \"contracts/Event.sol\":1097:1138  minimumStake_ * 10 ** 18 >= MINIMUM_STAKE */\n  lt\n  iszero\n    /* \"contracts/Event.sol\":1089:1154  require(minimumStake_ * 10 ** 18 >= MINIMUM_STAKE, \"x min stake\") */\n  tag_16\n  jumpi\n  mload(0x40)\n  shl(0xe5, 0x461bcd)\n  dup2\n  mstore\n    /* \"#utility.yul\":2304:2306   */\n  0x20\n    /* \"contracts/Event.sol\":1089:1154  require(minimumStake_ * 10 ** 18 >= MINIMUM_STAKE, \"x min stake\") */\n  0x04\n  dup3\n  add\n    /* \"#utility.yul\":2286:2307   */\n  mstore\n    /* \"#utility.yul\":2343:2345   */\n  0x0b\n    /* \"#utility.yul\":2323:2341   */\n  0x24\n  dup3\n  add\n    /* \"#utility.yul\":2316:2346   */\n  mstore\n  shl(0xa8, 0x78206d696e207374616b65)\n    /* \"#utility.yul\":2362:2380   */\n  0x44\n  dup3\n  add\n    /* \"#utility.yul\":2355:2396   */\n  mstore\n    /* \"#utility.yul\":2413:2431   */\n  0x64\n  add\n    /* \"contracts/Event.sol\":1089:1154  require(minimumStake_ * 10 ** 18 >= MINIMUM_STAKE, \"x min stake\") */\n  tag_12\n    /* \"#utility.yul\":2276:2437   */\n  jump\n    /* \"contracts/Event.sol\":1089:1154  require(minimumStake_ * 10 ** 18 >= MINIMUM_STAKE, \"x min stake\") */\ntag_16:\n    /* \"contracts/Event.sol\":1164:1182  name = eventTitle_ */\n  dup3\n  mload\n  tag_19\n  swap1\n    /* \"contracts/Event.sol\":1164:1168  name */\n  0x05\n  swap1\n    /* \"contracts/Event.sol\":1164:1182  name = eventTitle_ */\n  0x20\n  dup7\n  add\n  swap1\n  tag_20\n  jump\t// in\ntag_19:\n  pop\n    /* \"contracts/Event.sol\":1192:1202  eventOwner */\n  0x01\n    /* \"contracts/Event.sol\":1192:1212  eventOwner = caller_ */\n  dup1\n  sload\n  not(sub(shl(0xa0, 0x01), 0x01))\n  and\n  sub(shl(0xa0, 0x01), 0x01)\n  swap6\n  swap1\n  swap6\n  and\n  swap5\n  swap1\n  swap5\n  or\n  swap1\n  swap4\n  sstore\n    /* \"contracts/Event.sol\":1222:1231  startTime */\n  0x02\n    /* \"contracts/Event.sol\":1222:1244  startTime = startTime_ */\n  sstore\n  pop\n    /* \"contracts/Event.sol\":1254:1266  minimumStake */\n  0x03\n    /* \"contracts/Event.sol\":1254:1282  minimumStake = minimumStake_ */\n  sstore\n    /* \"contracts/Event.sol\":1292:1298  status */\n  0x06\n    /* \"contracts/Event.sol\":1292:1321  status = EventStatus.UPCOMING */\n  dup1\n  sload\n  not(0xff)\n  and\n  swap1\n  sstore\n    /* \"contracts/Event.sol\":164:3588  contract Event is IEvent {... */\n  jump(tag_34)\ntag_20:\n  dup3\n  dup1\n  sload\n  tag_23\n  swap1\n  tag_24\n  jump\t// in\ntag_23:\n  swap1\n  0x00\n  mstore\n  keccak256(0x00, 0x20)\n  swap1\n  0x1f\n  add\n  0x20\n  swap1\n  div\n  dup2\n  add\n  swap3\n  dup3\n  tag_26\n  jumpi\n  0x00\n  dup6\n  sstore\n  jump(tag_29)\ntag_26:\n  dup3\n  0x1f\n  lt\n  tag_27\n  jumpi\n  dup1\n  mload\n  not(0xff)\n  and\n  dup4\n  dup1\n  add\n  or\n  dup6\n  sstore\n  jump(tag_29)\ntag_27:\n  dup3\n  dup1\n  add\n  0x01\n  add\n  dup6\n  sstore\n  dup3\n  iszero\n  tag_29\n  jumpi\n  swap2\n  dup3\n  add\ntag_28:\n  dup3\n  dup2\n  gt\n  iszero\n  tag_29\n  jumpi\n  dup3\n  mload\n  dup3\n  sstore\n  swap2\n  0x20\n  add\n  swap2\n  swap1\n  0x01\n  add\n  swap1\n  jump(tag_28)\ntag_29:\n  pop\n  tag_30\n  swap3\n  swap2\n  pop\n  tag_31\n  jump\t// in\ntag_30:\n  pop\n  swap1\n  jump\t// out\ntag_31:\ntag_32:\n  dup1\n  dup3\n  gt\n  iszero\n  tag_30\n  jumpi\n  0x00\n  dup2\n  sstore\n  0x01\n  add\n  jump(tag_32)\n    /* \"#utility.yul\":14:191   */\ntag_35:\n    /* \"#utility.yul\":93:106   */\n  dup1\n  mload\n  sub(shl(0xa0, 0x01), 0x01)\n    /* \"#utility.yul\":135:166   */\n  dup2\n  and\n    /* \"#utility.yul\":125:167   */\n  dup2\n  eq\n    /* \"#utility.yul\":115:117   */\n  tag_37\n  jumpi\n    /* \"#utility.yul\":181:182   */\n  0x00\n    /* \"#utility.yul\":178:179   */\n  dup1\n    /* \"#utility.yul\":171:183   */\n  revert\n    /* \"#utility.yul\":115:117   */\ntag_37:\n    /* \"#utility.yul\":74:191   */\n  swap2\n  swap1\n  pop\n  jump\t// out\n    /* \"#utility.yul\":196:414   */\ntag_10:\n    /* \"#utility.yul\":266:272   */\n  0x00\n    /* \"#utility.yul\":319:321   */\n  0x20\n    /* \"#utility.yul\":307:316   */\n  dup3\n    /* \"#utility.yul\":298:305   */\n  dup5\n    /* \"#utility.yul\":294:317   */\n  sub\n    /* \"#utility.yul\":290:322   */\n  slt\n    /* \"#utility.yul\":287:289   */\n  iszero\n  tag_39\n  jumpi\n    /* \"#utility.yul\":340:346   */\n  dup1\n    /* \"#utility.yul\":332:338   */\n  dup2\n    /* \"#utility.yul\":325:347   */\n  revert\n    /* \"#utility.yul\":287:289   */\ntag_39:\n    /* \"#utility.yul\":368:408   */\n  tag_40\n    /* \"#utility.yul\":398:407   */\n  dup3\n    /* \"#utility.yul\":368:408   */\n  tag_35\n  jump\t// in\ntag_40:\n    /* \"#utility.yul\":358:408   */\n  swap4\n    /* \"#utility.yul\":277:414   */\n  swap3\n  pop\n  pop\n  pop\n  jump\t// out\n    /* \"#utility.yul\":419:1764   */\ntag_3:\n    /* \"#utility.yul\":526:532   */\n  0x00\n    /* \"#utility.yul\":534:540   */\n  dup1\n    /* \"#utility.yul\":542:548   */\n  0x00\n    /* \"#utility.yul\":550:556   */\n  dup1\n    /* \"#utility.yul\":603:606   */\n  0x80\n    /* \"#utility.yul\":591:600   */\n  dup6\n    /* \"#utility.yul\":582:589   */\n  dup8\n    /* \"#utility.yul\":578:601   */\n  sub\n    /* \"#utility.yul\":574:607   */\n  slt\n    /* \"#utility.yul\":571:573   */\n  iszero\n  tag_42\n  jumpi\n    /* \"#utility.yul\":625:631   */\n  dup3\n    /* \"#utility.yul\":617:623   */\n  dup4\n    /* \"#utility.yul\":610:632   */\n  revert\n    /* \"#utility.yul\":571:573   */\ntag_42:\n    /* \"#utility.yul\":653:693   */\n  tag_43\n    /* \"#utility.yul\":683:692   */\n  dup6\n    /* \"#utility.yul\":653:693   */\n  tag_35\n  jump\t// in\ntag_43:\n    /* \"#utility.yul\":712:714   */\n  0x20\n    /* \"#utility.yul\":743:761   */\n  dup7\n  dup2\n  add\n    /* \"#utility.yul\":737:762   */\n  mload\n    /* \"#utility.yul\":643:693   */\n  swap2\n  swap6\n  pop\n    /* \"#utility.yul\":712:714   */\n  swap1\n  0xffffffffffffffff\n    /* \"#utility.yul\":811:825   */\n  dup1\n  dup3\n  gt\n    /* \"#utility.yul\":808:810   */\n  iszero\n  tag_44\n  jumpi\n    /* \"#utility.yul\":843:849   */\n  dup6\n    /* \"#utility.yul\":835:841   */\n  dup7\n    /* \"#utility.yul\":828:850   */\n  revert\n    /* \"#utility.yul\":808:810   */\ntag_44:\n    /* \"#utility.yul\":886:892   */\n  dup2\n    /* \"#utility.yul\":875:884   */\n  dup9\n    /* \"#utility.yul\":871:893   */\n  add\n    /* \"#utility.yul\":861:893   */\n  swap2\n  pop\n    /* \"#utility.yul\":931:938   */\n  dup9\n    /* \"#utility.yul\":924:928   */\n  0x1f\n    /* \"#utility.yul\":920:922   */\n  dup4\n    /* \"#utility.yul\":916:929   */\n  add\n    /* \"#utility.yul\":912:939   */\n  slt\n    /* \"#utility.yul\":902:904   */\n  tag_45\n  jumpi\n    /* \"#utility.yul\":958:964   */\n  dup6\n    /* \"#utility.yul\":950:956   */\n  dup7\n    /* \"#utility.yul\":943:965   */\n  revert\n    /* \"#utility.yul\":902:904   */\ntag_45:\n    /* \"#utility.yul\":992:994   */\n  dup2\n    /* \"#utility.yul\":986:995   */\n  mload\n    /* \"#utility.yul\":1014:1016   */\n  dup2\n    /* \"#utility.yul\":1010:1012   */\n  dup2\n    /* \"#utility.yul\":1007:1017   */\n  gt\n    /* \"#utility.yul\":1004:1006   */\n  iszero\n  tag_47\n  jumpi\n    /* \"#utility.yul\":1020:1038   */\n  tag_47\n  tag_48\n  jump\t// in\ntag_47:\n    /* \"#utility.yul\":1095:1097   */\n  0x40\n    /* \"#utility.yul\":1089:1098   */\n  mload\n    /* \"#utility.yul\":1063:1065   */\n  0x1f\n    /* \"#utility.yul\":1149:1162   */\n  dup3\n  add\n  not(0x1f)\n    /* \"#utility.yul\":1145:1167   */\n  swap1\n  dup2\n  and\n    /* \"#utility.yul\":1169:1171   */\n  0x3f\n    /* \"#utility.yul\":1141:1172   */\n  add\n    /* \"#utility.yul\":1137:1177   */\n  and\n    /* \"#utility.yul\":1125:1178   */\n  dup2\n  add\n  swap1\n    /* \"#utility.yul\":1193:1211   */\n  dup4\n  dup3\n  gt\n    /* \"#utility.yul\":1213:1235   */\n  dup2\n  dup4\n  lt\n    /* \"#utility.yul\":1190:1236   */\n  or\n    /* \"#utility.yul\":1187:1189   */\n  iszero\n  tag_50\n  jumpi\n    /* \"#utility.yul\":1239:1257   */\n  tag_50\n  tag_48\n  jump\t// in\ntag_50:\n    /* \"#utility.yul\":1279:1289   */\n  dup2\n    /* \"#utility.yul\":1275:1277   */\n  0x40\n    /* \"#utility.yul\":1268:1290   */\n  mstore\n    /* \"#utility.yul\":1314:1316   */\n  dup3\n    /* \"#utility.yul\":1306:1312   */\n  dup2\n    /* \"#utility.yul\":1299:1317   */\n  mstore\n    /* \"#utility.yul\":1354:1361   */\n  dup12\n    /* \"#utility.yul\":1349:1351   */\n  dup7\n    /* \"#utility.yul\":1344:1346   */\n  dup5\n    /* \"#utility.yul\":1340:1342   */\n  dup8\n    /* \"#utility.yul\":1336:1347   */\n  add\n    /* \"#utility.yul\":1332:1352   */\n  add\n    /* \"#utility.yul\":1329:1362   */\n  gt\n    /* \"#utility.yul\":1326:1328   */\n  iszero\n  tag_51\n  jumpi\n    /* \"#utility.yul\":1380:1386   */\n  dup9\n    /* \"#utility.yul\":1372:1378   */\n  dup10\n    /* \"#utility.yul\":1365:1387   */\n  revert\n    /* \"#utility.yul\":1326:1328   */\ntag_51:\n    /* \"#utility.yul\":1407:1413   */\n  dup9\n    /* \"#utility.yul\":1398:1413   */\n  swap4\n  pop\n    /* \"#utility.yul\":1422:1551   */\ntag_52:\n    /* \"#utility.yul\":1436:1438   */\n  dup3\n    /* \"#utility.yul\":1433:1434   */\n  dup5\n    /* \"#utility.yul\":1430:1439   */\n  lt\n    /* \"#utility.yul\":1422:1551   */\n  iszero\n  tag_54\n  jumpi\n    /* \"#utility.yul\":1524:1534   */\n  dup5\n  dup5\n  add\n    /* \"#utility.yul\":1520:1539   */\n  dup7\n  add\n    /* \"#utility.yul\":1514:1540   */\n  mload\n    /* \"#utility.yul\":1493:1507   */\n  dup2\n  dup6\n  add\n    /* \"#utility.yul\":1489:1512   */\n  dup8\n  add\n    /* \"#utility.yul\":1482:1541   */\n  mstore\n    /* \"#utility.yul\":1447:1457   */\n  swap3\n  dup6\n  add\n  swap3\n    /* \"#utility.yul\":1422:1551   */\n  jump(tag_52)\ntag_54:\n    /* \"#utility.yul\":1569:1571   */\n  dup3\n    /* \"#utility.yul\":1566:1567   */\n  dup5\n    /* \"#utility.yul\":1563:1572   */\n  gt\n    /* \"#utility.yul\":1560:1562   */\n  iszero\n  tag_55\n  jumpi\n    /* \"#utility.yul\":1628:1634   */\n  dup9\n    /* \"#utility.yul\":1623:1625   */\n  dup7\n    /* \"#utility.yul\":1618:1620   */\n  dup5\n    /* \"#utility.yul\":1610:1616   */\n  dup4\n    /* \"#utility.yul\":1606:1621   */\n  add\n    /* \"#utility.yul\":1602:1626   */\n  add\n    /* \"#utility.yul\":1595:1635   */\n  mstore\n    /* \"#utility.yul\":1560:1562   */\ntag_55:\n    /* \"#utility.yul\":1710:1712   */\n  0x40\n    /* \"#utility.yul\":1695:1713   */\n  dup12\n  add\n    /* \"#utility.yul\":1689:1714   */\n  mload\n    /* \"#utility.yul\":1754:1756   */\n  0x60\n    /* \"#utility.yul\":1739:1757   */\n  swap1\n  swap12\n  add\n    /* \"#utility.yul\":1733:1758   */\n  mload\n    /* \"#utility.yul\":561:1764   */\n  swap10\n  swap13\n    /* \"#utility.yul\":1664:1670   */\n  swap1\n  swap12\n  pop\n    /* \"#utility.yul\":561:1764   */\n  swap8\n  pop\n  pop\n  pop\n  pop\n  pop\n  pop\n  pop\n  pop\n  jump\t// out\n    /* \"#utility.yul\":2442:2719   */\ntag_15:\n    /* \"#utility.yul\":2482:2489   */\n  0x00\n    /* \"#utility.yul\":2548:2549   */\n  dup2\n    /* \"#utility.yul\":2544:2545   */\n  0x00\n    /* \"#utility.yul\":2540:2546   */\n  not\n    /* \"#utility.yul\":2536:2550   */\n  div\n    /* \"#utility.yul\":2533:2534   */\n  dup4\n    /* \"#utility.yul\":2530:2551   */\n  gt\n    /* \"#utility.yul\":2525:2526   */\n  dup3\n    /* \"#utility.yul\":2518:2527   */\n  iszero\n    /* \"#utility.yul\":2511:2528   */\n  iszero\n    /* \"#utility.yul\":2507:2552   */\n  and\n    /* \"#utility.yul\":2504:2506   */\n  iszero\n  tag_59\n  jumpi\n  shl(0xe0, 0x4e487b71)\n    /* \"#utility.yul\":2575:2612   */\n  dup2\n  mstore\n    /* \"#utility.yul\":2635:2639   */\n  0x11\n    /* \"#utility.yul\":2632:2633   */\n  0x04\n    /* \"#utility.yul\":2625:2640   */\n  mstore\n    /* \"#utility.yul\":2669:2673   */\n  0x24\n    /* \"#utility.yul\":2575:2612   */\n  dup2\n    /* \"#utility.yul\":2653:2674   */\n  revert\n    /* \"#utility.yul\":2504:2506   */\ntag_59:\n  pop\n    /* \"#utility.yul\":2704:2713   */\n  mul\n  swap1\n    /* \"#utility.yul\":2494:2719   */\n  jump\t// out\n    /* \"#utility.yul\":2724:3104   */\ntag_24:\n    /* \"#utility.yul\":2803:2804   */\n  0x01\n    /* \"#utility.yul\":2799:2811   */\n  dup2\n  dup2\n  shr\n  swap1\n    /* \"#utility.yul\":2846:2858   */\n  dup3\n  and\n  dup1\n    /* \"#utility.yul\":2867:2869   */\n  tag_61\n  jumpi\n    /* \"#utility.yul\":2921:2925   */\n  0x7f\n    /* \"#utility.yul\":2913:2919   */\n  dup3\n    /* \"#utility.yul\":2909:2926   */\n  and\n    /* \"#utility.yul\":2899:2926   */\n  swap2\n  pop\n    /* \"#utility.yul\":2867:2869   */\ntag_61:\n    /* \"#utility.yul\":2974:2976   */\n  0x20\n    /* \"#utility.yul\":2966:2972   */\n  dup3\n    /* \"#utility.yul\":2963:2977   */\n  lt\n    /* \"#utility.yul\":2943:2961   */\n  dup2\n    /* \"#utility.yul\":2940:2978   */\n  eq\n    /* \"#utility.yul\":2937:2939   */\n  iszero\n  tag_62\n  jumpi\n    /* \"#utility.yul\":3020:3030   */\n  0x4e487b71\n    /* \"#utility.yul\":3015:3018   */\n  0xe0\n    /* \"#utility.yul\":3011:3031   */\n  shl\n    /* \"#utility.yul\":3008:3009   */\n  0x00\n    /* \"#utility.yul\":3001:3032   */\n  mstore\n    /* \"#utility.yul\":3055:3059   */\n  0x22\n    /* \"#utility.yul\":3052:3053   */\n  0x04\n    /* \"#utility.yul\":3045:3060   */\n  mstore\n    /* \"#utility.yul\":3083:3087   */\n  0x24\n    /* \"#utility.yul\":3080:3081   */\n  0x00\n    /* \"#utility.yul\":3073:3088   */\n  revert\n    /* \"#utility.yul\":2937:2939   */\ntag_62:\n  pop\n    /* \"#utility.yul\":2779:3104   */\n  swap2\n  swap1\n  pop\n  jump\t// out\n    /* \"#utility.yul\":3109:3236   */\ntag_48:\n    /* \"#utility.yul\":3170:3180   */\n  0x4e487b71\n    /* \"#utility.yul\":3165:3168   */\n  0xe0\n    /* \"#utility.yul\":3161:3181   */\n  shl\n    /* \"#utility.yul\":3158:3159   */\n  0x00\n    /* \"#utility.yul\":3151:3182   */\n  mstore\n    /* \"#utility.yul\":3201:3205   */\n  0x41\n    /* \"#utility.yul\":3198:3199   */\n  0x04\n    /* \"#utility.yul\":3191:3206   */\n  mstore\n    /* \"#utility.yul\":3225:3229   */\n  0x24\n    /* \"#utility.yul\":3222:3223   */\n  0x00\n    /* \"#utility.yul\":3215:3230   */\n  revert\n    /* \"#utility.yul\":3141:3236   */\ntag_34:\n    /* \"contracts/Event.sol\":164:3588  contract Event is IEvent {... */\n  dataSize(sub_0)\n  dup1\n  dataOffset(sub_0)\n  0x00\n  codecopy\n  0x00\n  return\nstop\n\nsub_0: assembly {\n        /* \"contracts/Event.sol\":164:3588  contract Event is IEvent {... */\n      mstore(0x40, 0x80)\n      callvalue\n      dup1\n      iszero\n      tag_1\n      jumpi\n      0x00\n      dup1\n      revert\n    tag_1:\n      pop\n      jumpi(tag_2, lt(calldatasize, 0x04))\n      shr(0xe0, calldataload(0x00))\n      dup1\n      0x93e30633\n      gt\n      tag_16\n      jumpi\n      dup1\n      0xe2fd38e9\n      gt\n      tag_17\n      jumpi\n      dup1\n      0xe2fd38e9\n      eq\n      tag_12\n      jumpi\n      dup1\n      0xec2c9016\n      eq\n      tag_13\n      jumpi\n      dup1\n      0xec5ffac2\n      eq\n      tag_14\n      jumpi\n      dup1\n      0xfb6c9537\n      eq\n      tag_15\n      jumpi\n      0x00\n      dup1\n      revert\n    tag_17:\n      dup1\n      0x93e30633\n      eq\n      tag_9\n      jumpi\n      dup1\n      0xb1283e77\n      eq\n      tag_10\n      jumpi\n      dup1\n      0xbc508ff4\n      eq\n      tag_11\n      jumpi\n      0x00\n      dup1\n      revert\n    tag_16:\n      dup1\n      0x06fdde03\n      eq\n      tag_3\n      jumpi\n      dup1\n      0x200d2ed2\n      eq\n      tag_4\n      jumpi\n      dup1\n      0x20214134\n      eq\n      tag_5\n      jumpi\n      dup1\n      0x78e97925\n      eq\n      tag_6\n      jumpi\n      dup1\n      0x84da92a7\n      eq\n      tag_7\n      jumpi\n      dup1\n      0x86ec6177\n      eq\n      tag_8\n      jumpi\n    tag_2:\n      0x00\n      dup1\n      revert\n        /* \"contracts/Event.sol\":433:460  string public override name */\n    tag_3:\n      tag_18\n      tag_19\n      jump\t// in\n    tag_18:\n      mload(0x40)\n      tag_20\n      swap2\n      swap1\n      tag_21\n      jump\t// in\n    tag_20:\n      mload(0x40)\n      dup1\n      swap2\n      sub\n      swap1\n      return\n        /* \"contracts/Event.sol\":467:501  EventStatus public override status */\n    tag_4:\n      sload(0x06)\n      tag_22\n      swap1\n      0xff\n      and\n      dup2\n      jump\n    tag_22:\n      mload(0x40)\n      tag_20\n      swap2\n      swap1\n      tag_25\n      jump\t// in\n        /* \"contracts/Event.sol\":233:267  address public override eventOwner */\n    tag_5:\n      sload(0x01)\n      tag_26\n      swap1\n      sub(shl(0xa0, 0x01), 0x01)\n      and\n      dup2\n      jump\n    tag_26:\n      mload(0x40)\n      sub(shl(0xa0, 0x01), 0x01)\n        /* \"#utility.yul\":2175:2207   */\n      swap2\n      swap1\n      swap2\n      and\n        /* \"#utility.yul\":2157:2208   */\n      dup2\n      mstore\n        /* \"#utility.yul\":2145:2147   */\n      0x20\n        /* \"#utility.yul\":2130:2148   */\n      add\n        /* \"contracts/Event.sol\":233:267  address public override eventOwner */\n      tag_20\n        /* \"#utility.yul\":2112:2214   */\n      jump\n        /* \"contracts/Event.sol\":274:307  uint256 public override startTime */\n    tag_6:\n      tag_30\n      sload(0x02)\n      dup2\n      jump\n    tag_30:\n      mload(0x40)\n        /* \"#utility.yul\":6222:6247   */\n      swap1\n      dup2\n      mstore\n        /* \"#utility.yul\":6210:6212   */\n      0x20\n        /* \"#utility.yul\":6195:6213   */\n      add\n        /* \"contracts/Event.sol\":274:307  uint256 public override startTime */\n      tag_20\n        /* \"#utility.yul\":6177:6253   */\n      jump\n        /* \"contracts/Event.sol\":1636:1788  function updateName(string memory _eventTitle) external override onlyFactory returns(bool) ... */\n    tag_7:\n      tag_34\n      tag_35\n      calldatasize\n      0x04\n      tag_36\n      jump\t// in\n    tag_35:\n      tag_37\n      jump\t// in\n    tag_34:\n      mload(0x40)\n        /* \"#utility.yul\":3050:3064   */\n      swap1\n      iszero\n        /* \"#utility.yul\":3043:3065   */\n      iszero\n        /* \"#utility.yul\":3025:3066   */\n      dup2\n      mstore\n        /* \"#utility.yul\":3013:3015   */\n      0x20\n        /* \"#utility.yul\":2998:3016   */\n      add\n        /* \"contracts/Event.sol\":1636:1788  function updateName(string memory _eventTitle) external override onlyFactory returns(bool) ... */\n      tag_20\n        /* \"#utility.yul\":2980:3072   */\n      jump\n        /* \"contracts/Event.sol\":2537:3139  function endEvent() external override onlyFactory  returns(bool) {... */\n    tag_8:\n      tag_34\n      tag_41\n      jump\t// in\n        /* \"contracts/Event.sol\":1443:1630  function addMarket(address _marketAddress)... */\n    tag_9:\n      tag_34\n      tag_44\n      calldatasize\n      0x04\n      tag_45\n      jump\t// in\n    tag_44:\n      tag_46\n      jump\t// in\n        /* \"contracts/Event.sol\":402:426  address[] public markets */\n    tag_10:\n      tag_26\n      tag_49\n      calldatasize\n      0x04\n      tag_50\n      jump\t// in\n    tag_49:\n      tag_51\n      jump\t// in\n        /* \"contracts/Event.sol\":2214:2531  function postponeEvent(uint256 _startTime) external override onlyFactory  returns(bool) ... */\n    tag_11:\n      tag_34\n      tag_54\n      calldatasize\n      0x04\n      tag_50\n      jump\t// in\n    tag_54:\n      tag_55\n      jump\t// in\n        /* \"contracts/Event.sol\":3145:3586  function startEvent() external override onlyFactory returns(bool) ... */\n    tag_12:\n      tag_34\n      tag_58\n      jump\t// in\n        /* \"contracts/Event.sol\":1334:1437  function getMarkets() external view override returns (address[] memory) {... */\n    tag_13:\n      tag_60\n      tag_61\n      jump\t// in\n    tag_60:\n      mload(0x40)\n      tag_20\n      swap2\n      swap1\n      tag_63\n      jump\t// in\n        /* \"contracts/Event.sol\":314:350  uint256 public override minimumStake */\n    tag_14:\n      tag_30\n      sload(0x03)\n      dup2\n      jump\n        /* \"contracts/Event.sol\":1794:2208  function cancelEvent() external override onlyFactory returns(bool) ... */\n    tag_15:\n      tag_34\n      tag_68\n      jump\t// in\n        /* \"contracts/Event.sol\":433:460  string public override name */\n    tag_19:\n      0x05\n      dup1\n      sload\n      tag_70\n      swap1\n      tag_71\n      jump\t// in\n    tag_70:\n      dup1\n      0x1f\n      add\n      0x20\n      dup1\n      swap2\n      div\n      mul\n      0x20\n      add\n      mload(0x40)\n      swap1\n      dup2\n      add\n      0x40\n      mstore\n      dup1\n      swap3\n      swap2\n      swap1\n      dup2\n      dup2\n      mstore\n      0x20\n      add\n      dup3\n      dup1\n      sload\n      tag_72\n      swap1\n      tag_71\n      jump\t// in\n    tag_72:\n      dup1\n      iszero\n      tag_73\n      jumpi\n      dup1\n      0x1f\n      lt\n      tag_74\n      jumpi\n      0x0100\n      dup1\n      dup4\n      sload\n      div\n      mul\n      dup4\n      mstore\n      swap2\n      0x20\n      add\n      swap2\n      jump(tag_73)\n    tag_74:\n      dup3\n      add\n      swap2\n      swap1\n      0x00\n      mstore\n      keccak256(0x00, 0x20)\n      swap1\n    tag_75:\n      dup2\n      sload\n      dup2\n      mstore\n      swap1\n      0x01\n      add\n      swap1\n      0x20\n      add\n      dup1\n      dup4\n      gt\n      tag_75\n      jumpi\n      dup3\n      swap1\n      sub\n      0x1f\n      and\n      dup3\n      add\n      swap2\n    tag_73:\n      pop\n      pop\n      pop\n      pop\n      pop\n      dup2\n      jump\t// out\n        /* \"contracts/Event.sol\":1636:1788  function updateName(string memory _eventTitle) external override onlyFactory returns(bool) ... */\n    tag_37:\n        /* \"contracts/Event.sol\":642:650  web3bets */\n      sload(0x06)\n        /* \"contracts/Event.sol\":642:665  web3bets.eventFactory() */\n      0x40\n      dup1\n      mload\n      shl(0xe1, 0x37ede9fb)\n      dup2\n      mstore\n      swap1\n      mload\n        /* \"contracts/Event.sol\":1721:1725  bool */\n      0x00\n      swap3\n        /* \"contracts/Event.sol\":642:650  web3bets */\n      0x0100\n      swap1\n      div\n      sub(shl(0xa0, 0x01), 0x01)\n      and\n      swap2\n        /* \"contracts/Event.sol\":642:663  web3bets.eventFactory */\n      0x6fdbd3f6\n      swap2\n        /* \"contracts/Event.sol\":642:665  web3bets.eventFactory() */\n      0x04\n      dup1\n      dup4\n      add\n      swap3\n      0x20\n      swap3\n      swap2\n      swap1\n      dup3\n      swap1\n      sub\n      add\n      dup2\n        /* \"contracts/Event.sol\":642:650  web3bets */\n      dup7\n        /* \"contracts/Event.sol\":642:665  web3bets.eventFactory() */\n      dup1\n      extcodesize\n      iszero\n      dup1\n      iszero\n      tag_77\n      jumpi\n      0x00\n      dup1\n      revert\n    tag_77:\n      pop\n      gas\n      staticcall\n      iszero\n      dup1\n      iszero\n      tag_79\n      jumpi\n      returndatasize\n      0x00\n      dup1\n      returndatacopy\n      revert(0x00, returndatasize)\n    tag_79:\n      pop\n      pop\n      pop\n      pop\n      mload(0x40)\n      returndatasize\n      not(0x1f)\n      0x1f\n      dup3\n      add\n      and\n      dup3\n      add\n      dup1\n      0x40\n      mstore\n      pop\n      dup2\n      add\n      swap1\n      tag_80\n      swap2\n      swap1\n      tag_81\n      jump\t// in\n    tag_80:\n      sub(shl(0xa0, 0x01), 0x01)\n        /* \"contracts/Event.sol\":628:665  msg.sender == web3bets.eventFactory() */\n      and\n        /* \"contracts/Event.sol\":628:638  msg.sender */\n      caller\n        /* \"contracts/Event.sol\":628:665  msg.sender == web3bets.eventFactory() */\n      eq\n        /* \"contracts/Event.sol\":607:698  require(... */\n      tag_82\n      jumpi\n      mload(0x40)\n      shl(0xe5, 0x461bcd)\n      dup2\n      mstore\n        /* \"#utility.yul\":5607:5609   */\n      0x20\n        /* \"contracts/Event.sol\":607:698  require(... */\n      0x04\n      dup3\n      add\n        /* \"#utility.yul\":5589:5610   */\n      mstore\n        /* \"#utility.yul\":5646:5647   */\n      0x07\n        /* \"#utility.yul\":5626:5644   */\n      0x24\n      dup3\n      add\n        /* \"#utility.yul\":5619:5648   */\n      mstore\n      shl(0xc8, 0x6f776e6572206f)\n        /* \"#utility.yul\":5664:5682   */\n      0x44\n      dup3\n      add\n        /* \"#utility.yul\":5657:5694   */\n      mstore\n        /* \"#utility.yul\":5711:5729   */\n      0x64\n      add\n        /* \"contracts/Event.sol\":607:698  require(... */\n    tag_83:\n      mload(0x40)\n      dup1\n      swap2\n      sub\n      swap1\n      revert\n    tag_82:\n        /* \"contracts/Event.sol\":1742:1760  name = _eventTitle */\n      dup2\n      mload\n      tag_86\n      swap1\n        /* \"contracts/Event.sol\":1742:1746  name */\n      0x05\n      swap1\n        /* \"contracts/Event.sol\":1742:1760  name = _eventTitle */\n      0x20\n      dup6\n      add\n      swap1\n      tag_87\n      jump\t// in\n    tag_86:\n      pop\n        /* \"contracts/Event.sol\":1777:1781  true */\n      0x01\n      swap3\n        /* \"contracts/Event.sol\":1636:1788  function updateName(string memory _eventTitle) external override onlyFactory returns(bool) ... */\n      swap2\n      pop\n      pop\n      jump\t// out\n        /* \"contracts/Event.sol\":2537:3139  function endEvent() external override onlyFactory  returns(bool) {... */\n    tag_41:\n        /* \"contracts/Event.sol\":642:650  web3bets */\n      sload(0x06)\n        /* \"contracts/Event.sol\":642:665  web3bets.eventFactory() */\n      0x40\n      dup1\n      mload\n      shl(0xe1, 0x37ede9fb)\n      dup2\n      mstore\n      swap1\n      mload\n        /* \"contracts/Event.sol\":2596:2600  bool */\n      0x00\n      swap3\n        /* \"contracts/Event.sol\":642:650  web3bets */\n      0x0100\n      swap1\n      div\n      sub(shl(0xa0, 0x01), 0x01)\n      and\n      swap2\n        /* \"contracts/Event.sol\":642:663  web3bets.eventFactory */\n      0x6fdbd3f6\n      swap2\n        /* \"contracts/Event.sol\":642:665  web3bets.eventFactory() */\n      0x04\n      dup1\n      dup4\n      add\n      swap3\n      0x20\n      swap3\n      swap2\n      swap1\n      dup3\n      swap1\n      sub\n      add\n      dup2\n        /* \"contracts/Event.sol\":642:650  web3bets */\n      dup7\n        /* \"contracts/Event.sol\":642:665  web3bets.eventFactory() */\n      dup1\n      extcodesize\n      iszero\n      dup1\n      iszero\n      tag_89\n      jumpi\n      0x00\n      dup1\n      revert\n    tag_89:\n      pop\n      gas\n      staticcall\n      iszero\n      dup1\n      iszero\n      tag_91\n      jumpi\n      returndatasize\n      0x00\n      dup1\n      returndatacopy\n      revert(0x00, returndatasize)\n    tag_91:\n      pop\n      pop\n      pop\n      pop\n      mload(0x40)\n      returndatasize\n      not(0x1f)\n      0x1f\n      dup3\n      add\n      and\n      dup3\n      add\n      dup1\n      0x40\n      mstore\n      pop\n      dup2\n      add\n      swap1\n      tag_92\n      swap2\n      swap1\n      tag_81\n      jump\t// in\n    tag_92:\n      sub(shl(0xa0, 0x01), 0x01)\n        /* \"contracts/Event.sol\":628:665  msg.sender == web3bets.eventFactory() */\n      and\n        /* \"contracts/Event.sol\":628:638  msg.sender */\n      caller\n        /* \"contracts/Event.sol\":628:665  msg.sender == web3bets.eventFactory() */\n      eq\n        /* \"contracts/Event.sol\":607:698  require(... */\n      tag_93\n      jumpi\n      mload(0x40)\n      shl(0xe5, 0x461bcd)\n      dup2\n      mstore\n        /* \"#utility.yul\":5607:5609   */\n      0x20\n        /* \"contracts/Event.sol\":607:698  require(... */\n      0x04\n      dup3\n      add\n        /* \"#utility.yul\":5589:5610   */\n      mstore\n        /* \"#utility.yul\":5646:5647   */\n      0x07\n        /* \"#utility.yul\":5626:5644   */\n      0x24\n      dup3\n      add\n        /* \"#utility.yul\":5619:5648   */\n      mstore\n      shl(0xc8, 0x6f776e6572206f)\n        /* \"#utility.yul\":5664:5682   */\n      0x44\n      dup3\n      add\n        /* \"#utility.yul\":5657:5694   */\n      mstore\n        /* \"#utility.yul\":5711:5729   */\n      0x64\n      add\n        /* \"contracts/Event.sol\":607:698  require(... */\n      tag_83\n        /* \"#utility.yul\":5579:5735   */\n      jump\n        /* \"contracts/Event.sol\":607:698  require(... */\n    tag_93:\n        /* \"contracts/Event.sol\":2631:2651  EventStatus.CANCELED */\n      0x03\n        /* \"contracts/Event.sol\":2621:2627  status */\n      and(0xff, sload(0x06))\n        /* \"contracts/Event.sol\":2621:2651  status != EventStatus.CANCELED */\n      0x03\n      dup2\n      gt\n      iszero\n      tag_97\n      jumpi\n      mstore(0x00, shl(0xe0, 0x4e487b71))\n      mstore(0x04, 0x21)\n      revert(0x00, 0x24)\n    tag_97:\n      eq\n      iszero\n        /* \"contracts/Event.sol\":2612:2664  require (status != EventStatus.CANCELED, \"xd event\") */\n      tag_98\n      jumpi\n      mload(0x40)\n      shl(0xe5, 0x461bcd)\n      dup2\n      mstore\n        /* \"#utility.yul\":5942:5944   */\n      0x20\n        /* \"contracts/Event.sol\":2612:2664  require (status != EventStatus.CANCELED, \"xd event\") */\n      0x04\n      dup3\n      add\n        /* \"#utility.yul\":5924:5945   */\n      mstore\n        /* \"#utility.yul\":5981:5982   */\n      0x08\n        /* \"#utility.yul\":5961:5979   */\n      0x24\n      dup3\n      add\n        /* \"#utility.yul\":5954:5983   */\n      mstore\n      shl(0xc2, 0x1e1908195d995b9d)\n        /* \"#utility.yul\":5999:6017   */\n      0x44\n      dup3\n      add\n        /* \"#utility.yul\":5992:6030   */\n      mstore\n        /* \"#utility.yul\":6047:6065   */\n      0x64\n      add\n        /* \"contracts/Event.sol\":2612:2664  require (status != EventStatus.CANCELED, \"xd event\") */\n      tag_83\n        /* \"#utility.yul\":5914:6071   */\n      jump\n        /* \"contracts/Event.sol\":2612:2664  require (status != EventStatus.CANCELED, \"xd event\") */\n    tag_98:\n        /* \"contracts/Event.sol\":2692:2709  EventStatus.ENDED */\n      0x02\n        /* \"contracts/Event.sol\":2682:2688  status */\n      and(0xff, sload(0x06))\n        /* \"contracts/Event.sol\":2682:2709  status != EventStatus.ENDED */\n      0x03\n      dup2\n      gt\n      iszero\n      tag_102\n      jumpi\n      mstore(0x00, shl(0xe0, 0x4e487b71))\n      mstore(0x04, 0x21)\n      revert(0x00, 0x24)\n    tag_102:\n      eq\n      iszero\n        /* \"contracts/Event.sol\":2674:2725  require(status != EventStatus.ENDED, \"ended event\") */\n      tag_103\n      jumpi\n      mload(0x40)\n      shl(0xe5, 0x461bcd)\n      dup2\n      mstore\n        /* \"#utility.yul\":4579:4581   */\n      0x20\n        /* \"contracts/Event.sol\":2674:2725  require(status != EventStatus.ENDED, \"ended event\") */\n      0x04\n      dup3\n      add\n        /* \"#utility.yul\":4561:4582   */\n      mstore\n        /* \"#utility.yul\":4618:4620   */\n      0x0b\n        /* \"#utility.yul\":4598:4616   */\n      0x24\n      dup3\n      add\n        /* \"#utility.yul\":4591:4621   */\n      mstore\n      shl(0xaa, 0x195b99195908195d995b9d)\n        /* \"#utility.yul\":4637:4655   */\n      0x44\n      dup3\n      add\n        /* \"#utility.yul\":4630:4671   */\n      mstore\n        /* \"#utility.yul\":4688:4706   */\n      0x64\n      add\n        /* \"contracts/Event.sol\":2674:2725  require(status != EventStatus.ENDED, \"ended event\") */\n      tag_83\n        /* \"#utility.yul\":4551:4712   */\n      jump\n        /* \"contracts/Event.sol\":2674:2725  require(status != EventStatus.ENDED, \"ended event\") */\n    tag_103:\n        /* \"contracts/Event.sol\":2764:2768  true */\n      0x01\n        /* \"contracts/Event.sol\":2736:2761  bool allMarketsAreSettled */\n      0x00\n        /* \"contracts/Event.sol\":2778:3014  for (uint256 i = 0; i < markets.length; i++) {... */\n    tag_106:\n        /* \"contracts/Event.sol\":2802:2809  markets */\n      0x04\n        /* \"contracts/Event.sol\":2802:2816  markets.length */\n      sload\n        /* \"contracts/Event.sol\":2798:2816  i < markets.length */\n      dup2\n      lt\n        /* \"contracts/Event.sol\":2778:3014  for (uint256 i = 0; i < markets.length; i++) {... */\n      iszero\n      tag_107\n      jumpi\n        /* \"contracts/Event.sol\":2837:2851  IMarket market */\n      0x00\n        /* \"contracts/Event.sol\":2862:2869  markets */\n      0x04\n        /* \"contracts/Event.sol\":2870:2871  i */\n      dup3\n        /* \"contracts/Event.sol\":2862:2872  markets[i] */\n      dup2\n      sload\n      dup2\n      lt\n      tag_109\n      jumpi\n      mstore(0x00, shl(0xe0, 0x4e487b71))\n      mstore(0x04, 0x32)\n      revert(0x00, 0x24)\n    tag_109:\n      0x00\n      swap2\n      dup3\n      mstore\n      0x20\n      swap2\n      dup3\n      swap1\n      keccak256\n      add\n      sload\n        /* \"contracts/Event.sol\":2892:2918  market.hasSetWinningSide() */\n      0x40\n      dup1\n      mload\n      shl(0xe2, 0x2f6498c3)\n      dup2\n      mstore\n      swap1\n      mload\n      sub(shl(0xa0, 0x01), 0x01)\n        /* \"contracts/Event.sol\":2862:2872  markets[i] */\n      swap1\n      swap3\n      and\n      swap4\n      pop\n      dup4\n      swap3\n        /* \"contracts/Event.sol\":2892:2916  market.hasSetWinningSide */\n      0xbd92630c\n      swap3\n        /* \"contracts/Event.sol\":2892:2918  market.hasSetWinningSide() */\n      0x04\n      dup1\n      dup5\n      add\n      swap4\n      dup3\n      swap1\n      sub\n      add\n      dup2\n        /* \"contracts/Event.sol\":2862:2872  markets[i] */\n      dup7\n        /* \"contracts/Event.sol\":2892:2918  market.hasSetWinningSide() */\n      dup1\n      extcodesize\n      iszero\n      dup1\n      iszero\n      tag_111\n      jumpi\n      0x00\n      dup1\n      revert\n    tag_111:\n      pop\n      gas\n      staticcall\n      iszero\n      dup1\n      iszero\n      tag_113\n      jumpi\n      returndatasize\n      0x00\n      dup1\n      returndatacopy\n      revert(0x00, returndatasize)\n    tag_113:\n      pop\n      pop\n      pop\n      pop\n      mload(0x40)\n      returndatasize\n      not(0x1f)\n      0x1f\n      dup3\n      add\n      and\n      dup3\n      add\n      dup1\n      0x40\n      mstore\n      pop\n      dup2\n      add\n      swap1\n      tag_114\n      swap2\n      swap1\n      tag_115\n      jump\t// in\n    tag_114:\n        /* \"contracts/Event.sol\":2887:3004  if (!market.hasSetWinningSide()) {... */\n      tag_116\n      jumpi\n        /* \"contracts/Event.sol\":2961:2966  false */\n      0x00\n        /* \"contracts/Event.sol\":2938:2966  allMarketsAreSettled = false */\n      swap3\n      pop\n        /* \"contracts/Event.sol\":2984:2989  break */\n      pop\n      jump(tag_107)\n        /* \"contracts/Event.sol\":2887:3004  if (!market.hasSetWinningSide()) {... */\n    tag_116:\n      pop\n        /* \"contracts/Event.sol\":2818:2821  i++ */\n      dup1\n      tag_117\n      dup2\n      tag_118\n      jump\t// in\n    tag_117:\n      swap2\n      pop\n      pop\n        /* \"contracts/Event.sol\":2778:3014  for (uint256 i = 0; i < markets.length; i++) {... */\n      jump(tag_106)\n    tag_107:\n      pop\n        /* \"contracts/Event.sol\":3032:3052  allMarketsAreSettled */\n      dup1\n        /* \"contracts/Event.sol\":3024:3075  require(allMarketsAreSettled, \"all mkt nt settled\") */\n      tag_119\n      jumpi\n      mload(0x40)\n      shl(0xe5, 0x461bcd)\n      dup2\n      mstore\n        /* \"#utility.yul\":5260:5262   */\n      0x20\n        /* \"contracts/Event.sol\":3024:3075  require(allMarketsAreSettled, \"all mkt nt settled\") */\n      0x04\n      dup3\n      add\n        /* \"#utility.yul\":5242:5263   */\n      mstore\n        /* \"#utility.yul\":5299:5301   */\n      0x12\n        /* \"#utility.yul\":5279:5297   */\n      0x24\n      dup3\n      add\n        /* \"#utility.yul\":5272:5302   */\n      mstore\n      shl(0x72, 0x185b1b081b5add081b9d081cd95d1d1b1959)\n        /* \"#utility.yul\":5318:5336   */\n      0x44\n      dup3\n      add\n        /* \"#utility.yul\":5311:5359   */\n      mstore\n        /* \"#utility.yul\":5376:5394   */\n      0x64\n      add\n        /* \"contracts/Event.sol\":3024:3075  require(allMarketsAreSettled, \"all mkt nt settled\") */\n      tag_83\n        /* \"#utility.yul\":5232:5400   */\n      jump\n        /* \"contracts/Event.sol\":3024:3075  require(allMarketsAreSettled, \"all mkt nt settled\") */\n    tag_119:\n      pop\n      pop\n        /* \"contracts/Event.sol\":3085:3091  status */\n      0x06\n        /* \"contracts/Event.sol\":3085:3111  status = EventStatus.ENDED */\n      dup1\n      sload\n      not(0xff)\n      and\n        /* \"contracts/Event.sol\":3094:3111  EventStatus.ENDED */\n      0x02\n        /* \"contracts/Event.sol\":3085:3111  status = EventStatus.ENDED */\n      or\n      swap1\n      sstore\n      0x01\n      swap1\n        /* \"contracts/Event.sol\":2537:3139  function endEvent() external override onlyFactory  returns(bool) {... */\n      jump\t// out\n        /* \"contracts/Event.sol\":1443:1630  function addMarket(address _marketAddress)... */\n    tag_46:\n        /* \"contracts/Event.sol\":796:804  web3bets */\n      sload(0x06)\n        /* \"contracts/Event.sol\":796:820  web3bets.marketFactory() */\n      0x40\n      dup1\n      mload\n      shl(0xe0, 0x06ae7095)\n      dup2\n      mstore\n      swap1\n      mload\n        /* \"contracts/Event.sol\":1554:1558  bool */\n      0x00\n      swap3\n        /* \"contracts/Event.sol\":796:804  web3bets */\n      0x0100\n      swap1\n      div\n      sub(shl(0xa0, 0x01), 0x01)\n      and\n      swap2\n        /* \"contracts/Event.sol\":796:818  web3bets.marketFactory */\n      0x06ae7095\n      swap2\n        /* \"contracts/Event.sol\":796:820  web3bets.marketFactory() */\n      0x04\n      dup1\n      dup4\n      add\n      swap3\n      0x20\n      swap3\n      swap2\n      swap1\n      dup3\n      swap1\n      sub\n      add\n      dup2\n        /* \"contracts/Event.sol\":796:804  web3bets */\n      dup7\n        /* \"contracts/Event.sol\":796:820  web3bets.marketFactory() */\n      dup1\n      extcodesize\n      iszero\n      dup1\n      iszero\n      tag_124\n      jumpi\n      0x00\n      dup1\n      revert\n    tag_124:\n      pop\n      gas\n      staticcall\n      iszero\n      dup1\n      iszero\n      tag_126\n      jumpi\n      returndatasize\n      0x00\n      dup1\n      returndatacopy\n      revert(0x00, returndatasize)\n    tag_126:\n      pop\n      pop\n      pop\n      pop\n      mload(0x40)\n      returndatasize\n      not(0x1f)\n      0x1f\n      dup3\n      add\n      and\n      dup3\n      add\n      dup1\n      0x40\n      mstore\n      pop\n      dup2\n      add\n      swap1\n      tag_127\n      swap2\n      swap1\n      tag_81\n      jump\t// in\n    tag_127:\n      sub(shl(0xa0, 0x01), 0x01)\n        /* \"contracts/Event.sol\":782:820  msg.sender == web3bets.marketFactory() */\n      and\n        /* \"contracts/Event.sol\":782:792  msg.sender */\n      caller\n        /* \"contracts/Event.sol\":782:820  msg.sender == web3bets.marketFactory() */\n      eq\n        /* \"contracts/Event.sol\":761:853  require(... */\n      tag_128\n      jumpi\n      mload(0x40)\n      shl(0xe5, 0x461bcd)\n      dup2\n      mstore\n        /* \"#utility.yul\":5607:5609   */\n      0x20\n        /* \"contracts/Event.sol\":761:853  require(... */\n      0x04\n      dup3\n      add\n        /* \"#utility.yul\":5589:5610   */\n      mstore\n        /* \"#utility.yul\":5646:5647   */\n      0x07\n        /* \"#utility.yul\":5626:5644   */\n      0x24\n      dup3\n      add\n        /* \"#utility.yul\":5619:5648   */\n      mstore\n      shl(0xc8, 0x6f776e6572206f)\n        /* \"#utility.yul\":5664:5682   */\n      0x44\n      dup3\n      add\n        /* \"#utility.yul\":5657:5694   */\n      mstore\n        /* \"#utility.yul\":5711:5729   */\n      0x64\n      add\n        /* \"contracts/Event.sol\":761:853  require(... */\n      tag_83\n        /* \"#utility.yul\":5579:5735   */\n      jump\n        /* \"contracts/Event.sol\":761:853  require(... */\n    tag_128:\n      pop\n        /* \"contracts/Event.sol\":1574:1581  markets */\n      0x04\n        /* \"contracts/Event.sol\":1574:1602  markets.push(_marketAddress) */\n      dup1\n      sload\n      0x01\n      dup1\n      dup3\n      add\n      dup4\n      sstore\n      0x00\n      swap3\n      swap1\n      swap3\n      mstore\n      0x8a35acfbc15ff81a39ae7d344fd709f28e8600b4aa8c65c6b64bfe7fe36bd19b\n      add\n      dup1\n      sload\n      not(sub(shl(0xa0, 0x01), 0x01))\n      and\n      sub(shl(0xa0, 0x01), 0x01)\n      swap4\n      swap1\n      swap4\n      and\n      swap3\n      swap1\n      swap3\n      or\n      swap1\n      swap2\n      sstore\n      swap1\n        /* \"contracts/Event.sol\":1443:1630  function addMarket(address _marketAddress)... */\n      jump\t// out\n        /* \"contracts/Event.sol\":402:426  address[] public markets */\n    tag_51:\n      0x04\n      dup2\n      dup2\n      sload\n      dup2\n      lt\n      tag_132\n      jumpi\n      0x00\n      dup1\n      revert\n    tag_132:\n      0x00\n      swap2\n      dup3\n      mstore\n      0x20\n      swap1\n      swap2\n      keccak256\n      add\n      sload\n      sub(shl(0xa0, 0x01), 0x01)\n      and\n      swap1\n      pop\n      dup2\n      jump\t// out\n        /* \"contracts/Event.sol\":2214:2531  function postponeEvent(uint256 _startTime) external override onlyFactory  returns(bool) ... */\n    tag_55:\n        /* \"contracts/Event.sol\":642:650  web3bets */\n      sload(0x06)\n        /* \"contracts/Event.sol\":642:665  web3bets.eventFactory() */\n      0x40\n      dup1\n      mload\n      shl(0xe1, 0x37ede9fb)\n      dup2\n      mstore\n      swap1\n      mload\n        /* \"contracts/Event.sol\":2296:2300  bool */\n      0x00\n      swap3\n        /* \"contracts/Event.sol\":642:650  web3bets */\n      0x0100\n      swap1\n      div\n      sub(shl(0xa0, 0x01), 0x01)\n      and\n      swap2\n        /* \"contracts/Event.sol\":642:663  web3bets.eventFactory */\n      0x6fdbd3f6\n      swap2\n        /* \"contracts/Event.sol\":642:665  web3bets.eventFactory() */\n      0x04\n      dup1\n      dup4\n      add\n      swap3\n      0x20\n      swap3\n      swap2\n      swap1\n      dup3\n      swap1\n      sub\n      add\n      dup2\n        /* \"contracts/Event.sol\":642:650  web3bets */\n      dup7\n        /* \"contracts/Event.sol\":642:665  web3bets.eventFactory() */\n      dup1\n      extcodesize\n      iszero\n      dup1\n      iszero\n      tag_135\n      jumpi\n      0x00\n      dup1\n      revert\n    tag_135:\n      pop\n      gas\n      staticcall\n      iszero\n      dup1\n      iszero\n      tag_137\n      jumpi\n      returndatasize\n      0x00\n      dup1\n      returndatacopy\n      revert(0x00, returndatasize)\n    tag_137:\n      pop\n      pop\n      pop\n      pop\n      mload(0x40)\n      returndatasize\n      not(0x1f)\n      0x1f\n      dup3\n      add\n      and\n      dup3\n      add\n      dup1\n      0x40\n      mstore\n      pop\n      dup2\n      add\n      swap1\n      tag_138\n      swap2\n      swap1\n      tag_81\n      jump\t// in\n    tag_138:\n      sub(shl(0xa0, 0x01), 0x01)\n        /* \"contracts/Event.sol\":628:665  msg.sender == web3bets.eventFactory() */\n      and\n        /* \"contracts/Event.sol\":628:638  msg.sender */\n      caller\n        /* \"contracts/Event.sol\":628:665  msg.sender == web3bets.eventFactory() */\n      eq\n        /* \"contracts/Event.sol\":607:698  require(... */\n      tag_139\n      jumpi\n      mload(0x40)\n      shl(0xe5, 0x461bcd)\n      dup2\n      mstore\n        /* \"#utility.yul\":5607:5609   */\n      0x20\n        /* \"contracts/Event.sol\":607:698  require(... */\n      0x04\n      dup3\n      add\n        /* \"#utility.yul\":5589:5610   */\n      mstore\n        /* \"#utility.yul\":5646:5647   */\n      0x07\n        /* \"#utility.yul\":5626:5644   */\n      0x24\n      dup3\n      add\n        /* \"#utility.yul\":5619:5648   */\n      mstore\n      shl(0xc8, 0x6f776e6572206f)\n        /* \"#utility.yul\":5664:5682   */\n      0x44\n      dup3\n      add\n        /* \"#utility.yul\":5657:5694   */\n      mstore\n        /* \"#utility.yul\":5711:5729   */\n      0x64\n      add\n        /* \"contracts/Event.sol\":607:698  require(... */\n      tag_83\n        /* \"#utility.yul\":5579:5735   */\n      jump\n        /* \"contracts/Event.sol\":607:698  require(... */\n    tag_139:\n        /* \"contracts/Event.sol\":2336:2356  EventStatus.CANCELED */\n      0x03\n        /* \"contracts/Event.sol\":2326:2332  status */\n      and(0xff, sload(0x06))\n        /* \"contracts/Event.sol\":2326:2356  status != EventStatus.CANCELED */\n      0x03\n      dup2\n      gt\n      iszero\n      tag_143\n      jumpi\n      mstore(0x00, shl(0xe0, 0x4e487b71))\n      mstore(0x04, 0x21)\n      revert(0x00, 0x24)\n    tag_143:\n      eq\n      iszero\n        /* \"contracts/Event.sol\":2317:2369  require (status != EventStatus.CANCELED, \"xd event\") */\n      tag_144\n      jumpi\n      mload(0x40)\n      shl(0xe5, 0x461bcd)\n      dup2\n      mstore\n        /* \"#utility.yul\":5942:5944   */\n      0x20\n        /* \"contracts/Event.sol\":2317:2369  require (status != EventStatus.CANCELED, \"xd event\") */\n      0x04\n      dup3\n      add\n        /* \"#utility.yul\":5924:5945   */\n      mstore\n        /* \"#utility.yul\":5981:5982   */\n      0x08\n        /* \"#utility.yul\":5961:5979   */\n      0x24\n      dup3\n      add\n        /* \"#utility.yul\":5954:5983   */\n      mstore\n      shl(0xc2, 0x1e1908195d995b9d)\n        /* \"#utility.yul\":5999:6017   */\n      0x44\n      dup3\n      add\n        /* \"#utility.yul\":5992:6030   */\n      mstore\n        /* \"#utility.yul\":6047:6065   */\n      0x64\n      add\n        /* \"contracts/Event.sol\":2317:2369  require (status != EventStatus.CANCELED, \"xd event\") */\n      tag_83\n        /* \"#utility.yul\":5914:6071   */\n      jump\n        /* \"contracts/Event.sol\":2317:2369  require (status != EventStatus.CANCELED, \"xd event\") */\n    tag_144:\n        /* \"contracts/Event.sol\":2397:2414  EventStatus.ENDED */\n      0x02\n        /* \"contracts/Event.sol\":2387:2393  status */\n      and(0xff, sload(0x06))\n        /* \"contracts/Event.sol\":2387:2414  status != EventStatus.ENDED */\n      0x03\n      dup2\n      gt\n      iszero\n      tag_147\n      jumpi\n      mstore(0x00, shl(0xe0, 0x4e487b71))\n      mstore(0x04, 0x21)\n      revert(0x00, 0x24)\n    tag_147:\n      eq\n      iszero\n        /* \"contracts/Event.sol\":2379:2430  require(status != EventStatus.ENDED, \"ended event\") */\n      tag_148\n      jumpi\n      mload(0x40)\n      shl(0xe5, 0x461bcd)\n      dup2\n      mstore\n        /* \"#utility.yul\":4579:4581   */\n      0x20\n        /* \"contracts/Event.sol\":2379:2430  require(status != EventStatus.ENDED, \"ended event\") */\n      0x04\n      dup3\n      add\n        /* \"#utility.yul\":4561:4582   */\n      mstore\n        /* \"#utility.yul\":4618:4620   */\n      0x0b\n        /* \"#utility.yul\":4598:4616   */\n      0x24\n      dup3\n      add\n        /* \"#utility.yul\":4591:4621   */\n      mstore\n      shl(0xaa, 0x195b99195908195d995b9d)\n        /* \"#utility.yul\":4637:4655   */\n      0x44\n      dup3\n      add\n        /* \"#utility.yul\":4630:4671   */\n      mstore\n        /* \"#utility.yul\":4688:4706   */\n      0x64\n      add\n        /* \"contracts/Event.sol\":2379:2430  require(status != EventStatus.ENDED, \"ended event\") */\n      tag_83\n        /* \"#utility.yul\":4551:4712   */\n      jump\n        /* \"contracts/Event.sol\":2379:2430  require(status != EventStatus.ENDED, \"ended event\") */\n    tag_148:\n      pop\n        /* \"contracts/Event.sol\":2441:2450  startTime */\n      0x02\n        /* \"contracts/Event.sol\":2441:2463  startTime = _startTime */\n      sstore\n        /* \"contracts/Event.sol\":2474:2480  status */\n      0x06\n        /* \"contracts/Event.sol\":2474:2503  status = EventStatus.UPCOMING */\n      dup1\n      sload\n      not(0xff)\n      and\n      swap1\n      sstore\n      0x01\n      swap1\n        /* \"contracts/Event.sol\":2214:2531  function postponeEvent(uint256 _startTime) external override onlyFactory  returns(bool) ... */\n      jump\t// out\n        /* \"contracts/Event.sol\":3145:3586  function startEvent() external override onlyFactory returns(bool) ... */\n    tag_58:\n        /* \"contracts/Event.sol\":642:650  web3bets */\n      sload(0x06)\n        /* \"contracts/Event.sol\":642:665  web3bets.eventFactory() */\n      0x40\n      dup1\n      mload\n      shl(0xe1, 0x37ede9fb)\n      dup2\n      mstore\n      swap1\n      mload\n        /* \"contracts/Event.sol\":3205:3209  bool */\n      0x00\n      swap3\n        /* \"contracts/Event.sol\":642:650  web3bets */\n      0x0100\n      swap1\n      div\n      sub(shl(0xa0, 0x01), 0x01)\n      and\n      swap2\n        /* \"contracts/Event.sol\":642:663  web3bets.eventFactory */\n      0x6fdbd3f6\n      swap2\n        /* \"contracts/Event.sol\":642:665  web3bets.eventFactory() */\n      0x04\n      dup1\n      dup4\n      add\n      swap3\n      0x20\n      swap3\n      swap2\n      swap1\n      dup3\n      swap1\n      sub\n      add\n      dup2\n        /* \"contracts/Event.sol\":642:650  web3bets */\n      dup7\n        /* \"contracts/Event.sol\":642:665  web3bets.eventFactory() */\n      dup1\n      extcodesize\n      iszero\n      dup1\n      iszero\n      tag_152\n      jumpi\n      0x00\n      dup1\n      revert\n    tag_152:\n      pop\n      gas\n      staticcall\n      iszero\n      dup1\n      iszero\n      tag_154\n      jumpi\n      returndatasize\n      0x00\n      dup1\n      returndatacopy\n      revert(0x00, returndatasize)\n    tag_154:\n      pop\n      pop\n      pop\n      pop\n      mload(0x40)\n      returndatasize\n      not(0x1f)\n      0x1f\n      dup3\n      add\n      and\n      dup3\n      add\n      dup1\n      0x40\n      mstore\n      pop\n      dup2\n      add\n      swap1\n      tag_155\n      swap2\n      swap1\n      tag_81\n      jump\t// in\n    tag_155:\n      sub(shl(0xa0, 0x01), 0x01)\n        /* \"contracts/Event.sol\":628:665  msg.sender == web3bets.eventFactory() */\n      and\n        /* \"contracts/Event.sol\":628:638  msg.sender */\n      caller\n        /* \"contracts/Event.sol\":628:665  msg.sender == web3bets.eventFactory() */\n      eq\n        /* \"contracts/Event.sol\":607:698  require(... */\n      tag_156\n      jumpi\n      mload(0x40)\n      shl(0xe5, 0x461bcd)\n      dup2\n      mstore\n        /* \"#utility.yul\":5607:5609   */\n      0x20\n        /* \"contracts/Event.sol\":607:698  require(... */\n      0x04\n      dup3\n      add\n        /* \"#utility.yul\":5589:5610   */\n      mstore\n        /* \"#utility.yul\":5646:5647   */\n      0x07\n        /* \"#utility.yul\":5626:5644   */\n      0x24\n      dup3\n      add\n        /* \"#utility.yul\":5619:5648   */\n      mstore\n      shl(0xc8, 0x6f776e6572206f)\n        /* \"#utility.yul\":5664:5682   */\n      0x44\n      dup3\n      add\n        /* \"#utility.yul\":5657:5694   */\n      mstore\n        /* \"#utility.yul\":5711:5729   */\n      0x64\n      add\n        /* \"contracts/Event.sol\":607:698  require(... */\n      tag_83\n        /* \"#utility.yul\":5579:5735   */\n      jump\n        /* \"contracts/Event.sol\":607:698  require(... */\n    tag_156:\n        /* \"contracts/Event.sol\":3245:3265  EventStatus.CANCELED */\n      0x03\n        /* \"contracts/Event.sol\":3235:3241  status */\n      and(0xff, sload(0x06))\n        /* \"contracts/Event.sol\":3235:3265  status != EventStatus.CANCELED */\n      0x03\n      dup2\n      gt\n      iszero\n      tag_160\n      jumpi\n      mstore(0x00, shl(0xe0, 0x4e487b71))\n      mstore(0x04, 0x21)\n      revert(0x00, 0x24)\n    tag_160:\n      eq\n      iszero\n        /* \"contracts/Event.sol\":3226:3278  require (status != EventStatus.CANCELED, \"xd event\") */\n      tag_161\n      jumpi\n      mload(0x40)\n      shl(0xe5, 0x461bcd)\n      dup2\n      mstore\n        /* \"#utility.yul\":5942:5944   */\n      0x20\n        /* \"contracts/Event.sol\":3226:3278  require (status != EventStatus.CANCELED, \"xd event\") */\n      0x04\n      dup3\n      add\n        /* \"#utility.yul\":5924:5945   */\n      mstore\n        /* \"#utility.yul\":5981:5982   */\n      0x08\n        /* \"#utility.yul\":5961:5979   */\n      0x24\n      dup3\n      add\n        /* \"#utility.yul\":5954:5983   */\n      mstore\n      shl(0xc2, 0x1e1908195d995b9d)\n        /* \"#utility.yul\":5999:6017   */\n      0x44\n      dup3\n      add\n        /* \"#utility.yul\":5992:6030   */\n      mstore\n        /* \"#utility.yul\":6047:6065   */\n      0x64\n      add\n        /* \"contracts/Event.sol\":3226:3278  require (status != EventStatus.CANCELED, \"xd event\") */\n      tag_83\n        /* \"#utility.yul\":5914:6071   */\n      jump\n        /* \"contracts/Event.sol\":3226:3278  require (status != EventStatus.CANCELED, \"xd event\") */\n    tag_161:\n        /* \"contracts/Event.sol\":3306:3323  EventStatus.ENDED */\n      0x02\n        /* \"contracts/Event.sol\":3296:3302  status */\n      and(0xff, sload(0x06))\n        /* \"contracts/Event.sol\":3296:3323  status != EventStatus.ENDED */\n      0x03\n      dup2\n      gt\n      iszero\n      tag_164\n      jumpi\n      mstore(0x00, shl(0xe0, 0x4e487b71))\n      mstore(0x04, 0x21)\n      revert(0x00, 0x24)\n    tag_164:\n      eq\n      iszero\n        /* \"contracts/Event.sol\":3288:3339  require(status != EventStatus.ENDED, \"ended event\") */\n      tag_165\n      jumpi\n      mload(0x40)\n      shl(0xe5, 0x461bcd)\n      dup2\n      mstore\n        /* \"#utility.yul\":4579:4581   */\n      0x20\n        /* \"contracts/Event.sol\":3288:3339  require(status != EventStatus.ENDED, \"ended event\") */\n      0x04\n      dup3\n      add\n        /* \"#utility.yul\":4561:4582   */\n      mstore\n        /* \"#utility.yul\":4618:4620   */\n      0x0b\n        /* \"#utility.yul\":4598:4616   */\n      0x24\n      dup3\n      add\n        /* \"#utility.yul\":4591:4621   */\n      mstore\n      shl(0xaa, 0x195b99195908195d995b9d)\n        /* \"#utility.yul\":4637:4655   */\n      0x44\n      dup3\n      add\n        /* \"#utility.yul\":4630:4671   */\n      mstore\n        /* \"#utility.yul\":4688:4706   */\n      0x64\n      add\n        /* \"contracts/Event.sol\":3288:3339  require(status != EventStatus.ENDED, \"ended event\") */\n      tag_83\n        /* \"#utility.yul\":4551:4712   */\n      jump\n        /* \"contracts/Event.sol\":3288:3339  require(status != EventStatus.ENDED, \"ended event\") */\n    tag_165:\n        /* \"contracts/Event.sol\":3368:3387  EventStatus.STARTED */\n      0x01\n        /* \"contracts/Event.sol\":3358:3364  status */\n      and(0xff, sload(0x06))\n        /* \"contracts/Event.sol\":3358:3387  status != EventStatus.STARTED */\n      0x03\n      dup2\n      gt\n      iszero\n      tag_168\n      jumpi\n      mstore(0x00, shl(0xe0, 0x4e487b71))\n      mstore(0x04, 0x21)\n      revert(0x00, 0x24)\n    tag_168:\n      eq\n      iszero\n        /* \"contracts/Event.sol\":3349:3404  require (status != EventStatus.STARTED, \"already live\") */\n      tag_169\n      jumpi\n      mload(0x40)\n      shl(0xe5, 0x461bcd)\n      dup2\n      mstore\n        /* \"#utility.yul\":4919:4921   */\n      0x20\n        /* \"contracts/Event.sol\":3349:3404  require (status != EventStatus.STARTED, \"already live\") */\n      0x04\n      dup3\n      add\n        /* \"#utility.yul\":4901:4922   */\n      mstore\n        /* \"#utility.yul\":4958:4960   */\n      0x0c\n        /* \"#utility.yul\":4938:4956   */\n      0x24\n      dup3\n      add\n        /* \"#utility.yul\":4931:4961   */\n      mstore\n      shl(0xa0, 0x616c7265616479206c697665)\n        /* \"#utility.yul\":4977:4995   */\n      0x44\n      dup3\n      add\n        /* \"#utility.yul\":4970:5012   */\n      mstore\n        /* \"#utility.yul\":5029:5047   */\n      0x64\n      add\n        /* \"contracts/Event.sol\":3349:3404  require (status != EventStatus.STARTED, \"already live\") */\n      tag_83\n        /* \"#utility.yul\":4891:5053   */\n      jump\n        /* \"contracts/Event.sol\":3349:3404  require (status != EventStatus.STARTED, \"already live\") */\n    tag_169:\n        /* \"contracts/Event.sol\":3428:3448  EventStatus.UPCOMING */\n      0x00\n        /* \"contracts/Event.sol\":3418:3424  status */\n      and(0xff, sload(0x06))\n        /* \"contracts/Event.sol\":3418:3448  status == EventStatus.UPCOMING */\n      0x03\n      dup2\n      gt\n      iszero\n      tag_173\n      jumpi\n      mstore(0x00, shl(0xe0, 0x4e487b71))\n      mstore(0x04, 0x21)\n      revert(0x00, 0x24)\n    tag_173:\n      eq\n        /* \"contracts/Event.sol\":3414:3559  if (status == EventStatus.UPCOMING) {... */\n      iszero\n      tag_174\n      jumpi\n        /* \"contracts/Event.sol\":3464:3470  status */\n      0x06\n        /* \"contracts/Event.sol\":3464:3492  status = EventStatus.STARTED */\n      dup1\n      sload\n      not(0xff)\n      and\n        /* \"contracts/Event.sol\":3473:3492  EventStatus.STARTED */\n      0x01\n        /* \"contracts/Event.sol\":3464:3492  status = EventStatus.STARTED */\n      or\n      swap1\n      sstore\n        /* \"contracts/Event.sol\":3414:3559  if (status == EventStatus.UPCOMING) {... */\n      jump(tag_176)\n    tag_174:\n        /* \"contracts/Event.sol\":3523:3548  revert(\"err: bad status\") */\n      mload(0x40)\n      shl(0xe5, 0x461bcd)\n      dup2\n      mstore\n        /* \"#utility.yul\":4235:4237   */\n      0x20\n        /* \"contracts/Event.sol\":3523:3548  revert(\"err: bad status\") */\n      0x04\n      dup3\n      add\n        /* \"#utility.yul\":4217:4238   */\n      mstore\n        /* \"#utility.yul\":4274:4276   */\n      0x0f\n        /* \"#utility.yul\":4254:4272   */\n      0x24\n      dup3\n      add\n        /* \"#utility.yul\":4247:4277   */\n      mstore\n      shl(0x88, 0x6572723a2062616420737461747573)\n        /* \"#utility.yul\":4293:4311   */\n      0x44\n      dup3\n      add\n        /* \"#utility.yul\":4286:4331   */\n      mstore\n        /* \"#utility.yul\":4348:4366   */\n      0x64\n      add\n        /* \"contracts/Event.sol\":3523:3548  revert(\"err: bad status\") */\n      tag_83\n        /* \"#utility.yul\":4207:4372   */\n      jump\n        /* \"contracts/Event.sol\":3414:3559  if (status == EventStatus.UPCOMING) {... */\n    tag_176:\n      pop\n        /* \"contracts/Event.sol\":3575:3579  true */\n      0x01\n        /* \"contracts/Event.sol\":3145:3586  function startEvent() external override onlyFactory returns(bool) ... */\n      swap1\n      jump\t// out\n        /* \"contracts/Event.sol\":1334:1437  function getMarkets() external view override returns (address[] memory) {... */\n    tag_61:\n        /* \"contracts/Event.sol\":1388:1404  address[] memory */\n      0x60\n        /* \"contracts/Event.sol\":1423:1430  markets */\n      0x04\n        /* \"contracts/Event.sol\":1416:1430  return markets */\n      dup1\n      sload\n      dup1\n      0x20\n      mul\n      0x20\n      add\n      mload(0x40)\n      swap1\n      dup2\n      add\n      0x40\n      mstore\n      dup1\n      swap3\n      swap2\n      swap1\n      dup2\n      dup2\n      mstore\n      0x20\n      add\n      dup3\n      dup1\n      sload\n      dup1\n      iszero\n      tag_180\n      jumpi\n      0x20\n      mul\n      dup3\n      add\n      swap2\n      swap1\n      0x00\n      mstore\n      keccak256(0x00, 0x20)\n      swap1\n    tag_181:\n      dup2\n      sload\n      sub(shl(0xa0, 0x01), 0x01)\n      and\n      dup2\n      mstore\n      0x01\n      swap1\n      swap2\n      add\n      swap1\n      0x20\n      add\n      dup1\n      dup4\n      gt\n      tag_181\n      jumpi\n    tag_180:\n      pop\n      pop\n      pop\n      pop\n      pop\n      swap1\n      pop\n        /* \"contracts/Event.sol\":1334:1437  function getMarkets() external view override returns (address[] memory) {... */\n      swap1\n      jump\t// out\n        /* \"contracts/Event.sol\":1794:2208  function cancelEvent() external override onlyFactory returns(bool) ... */\n    tag_68:\n        /* \"contracts/Event.sol\":642:650  web3bets */\n      sload(0x06)\n        /* \"contracts/Event.sol\":642:665  web3bets.eventFactory() */\n      0x40\n      dup1\n      mload\n      shl(0xe1, 0x37ede9fb)\n      dup2\n      mstore\n      swap1\n      mload\n        /* \"contracts/Event.sol\":1855:1859  bool */\n      0x00\n      swap3\n        /* \"contracts/Event.sol\":642:650  web3bets */\n      0x0100\n      swap1\n      div\n      sub(shl(0xa0, 0x01), 0x01)\n      and\n      swap2\n        /* \"contracts/Event.sol\":642:663  web3bets.eventFactory */\n      0x6fdbd3f6\n      swap2\n        /* \"contracts/Event.sol\":642:665  web3bets.eventFactory() */\n      0x04\n      dup1\n      dup4\n      add\n      swap3\n      0x20\n      swap3\n      swap2\n      swap1\n      dup3\n      swap1\n      sub\n      add\n      dup2\n        /* \"contracts/Event.sol\":642:650  web3bets */\n      dup7\n        /* \"contracts/Event.sol\":642:665  web3bets.eventFactory() */\n      dup1\n      extcodesize\n      iszero\n      dup1\n      iszero\n      tag_183\n      jumpi\n      0x00\n      dup1\n      revert\n    tag_183:\n      pop\n      gas\n      staticcall\n      iszero\n      dup1\n      iszero\n      tag_185\n      jumpi\n      returndatasize\n      0x00\n      dup1\n      returndatacopy\n      revert(0x00, returndatasize)\n    tag_185:\n      pop\n      pop\n      pop\n      pop\n      mload(0x40)\n      returndatasize\n      not(0x1f)\n      0x1f\n      dup3\n      add\n      and\n      dup3\n      add\n      dup1\n      0x40\n      mstore\n      pop\n      dup2\n      add\n      swap1\n      tag_186\n      swap2\n      swap1\n      tag_81\n      jump\t// in\n    tag_186:\n      sub(shl(0xa0, 0x01), 0x01)\n        /* \"contracts/Event.sol\":628:665  msg.sender == web3bets.eventFactory() */\n      and\n        /* \"contracts/Event.sol\":628:638  msg.sender */\n      caller\n        /* \"contracts/Event.sol\":628:665  msg.sender == web3bets.eventFactory() */\n      eq\n        /* \"contracts/Event.sol\":607:698  require(... */\n      tag_187\n      jumpi\n      mload(0x40)\n      shl(0xe5, 0x461bcd)\n      dup2\n      mstore\n        /* \"#utility.yul\":5607:5609   */\n      0x20\n        /* \"contracts/Event.sol\":607:698  require(... */\n      0x04\n      dup3\n      add\n        /* \"#utility.yul\":5589:5610   */\n      mstore\n        /* \"#utility.yul\":5646:5647   */\n      0x07\n        /* \"#utility.yul\":5626:5644   */\n      0x24\n      dup3\n      add\n        /* \"#utility.yul\":5619:5648   */\n      mstore\n      shl(0xc8, 0x6f776e6572206f)\n        /* \"#utility.yul\":5664:5682   */\n      0x44\n      dup3\n      add\n        /* \"#utility.yul\":5657:5694   */\n      mstore\n        /* \"#utility.yul\":5711:5729   */\n      0x64\n      add\n        /* \"contracts/Event.sol\":607:698  require(... */\n      tag_83\n        /* \"#utility.yul\":5579:5735   */\n      jump\n        /* \"contracts/Event.sol\":607:698  require(... */\n    tag_187:\n        /* \"contracts/Event.sol\":1895:1915  EventStatus.CANCELED */\n      0x03\n        /* \"contracts/Event.sol\":1885:1891  status */\n      and(0xff, sload(0x06))\n        /* \"contracts/Event.sol\":1885:1915  status != EventStatus.CANCELED */\n      0x03\n      dup2\n      gt\n      iszero\n      tag_191\n      jumpi\n      mstore(0x00, shl(0xe0, 0x4e487b71))\n      mstore(0x04, 0x21)\n      revert(0x00, 0x24)\n    tag_191:\n      eq\n      iszero\n        /* \"contracts/Event.sol\":1876:1928  require (status != EventStatus.CANCELED, \"xd event\") */\n      tag_192\n      jumpi\n      mload(0x40)\n      shl(0xe5, 0x461bcd)\n      dup2\n      mstore\n        /* \"#utility.yul\":5942:5944   */\n      0x20\n        /* \"contracts/Event.sol\":1876:1928  require (status != EventStatus.CANCELED, \"xd event\") */\n      0x04\n      dup3\n      add\n        /* \"#utility.yul\":5924:5945   */\n      mstore\n        /* \"#utility.yul\":5981:5982   */\n      0x08\n        /* \"#utility.yul\":5961:5979   */\n      0x24\n      dup3\n      add\n        /* \"#utility.yul\":5954:5983   */\n      mstore\n      shl(0xc2, 0x1e1908195d995b9d)\n        /* \"#utility.yul\":5999:6017   */\n      0x44\n      dup3\n      add\n        /* \"#utility.yul\":5992:6030   */\n      mstore\n        /* \"#utility.yul\":6047:6065   */\n      0x64\n      add\n        /* \"contracts/Event.sol\":1876:1928  require (status != EventStatus.CANCELED, \"xd event\") */\n      tag_83\n        /* \"#utility.yul\":5914:6071   */\n      jump\n        /* \"contracts/Event.sol\":1876:1928  require (status != EventStatus.CANCELED, \"xd event\") */\n    tag_192:\n        /* \"contracts/Event.sol\":1956:1973  EventStatus.ENDED */\n      0x02\n        /* \"contracts/Event.sol\":1946:1952  status */\n      and(0xff, sload(0x06))\n        /* \"contracts/Event.sol\":1946:1973  status != EventStatus.ENDED */\n      0x03\n      dup2\n      gt\n      iszero\n      tag_195\n      jumpi\n      mstore(0x00, shl(0xe0, 0x4e487b71))\n      mstore(0x04, 0x21)\n      revert(0x00, 0x24)\n    tag_195:\n      eq\n      iszero\n        /* \"contracts/Event.sol\":1938:1989  require(status != EventStatus.ENDED, \"ended event\") */\n      tag_196\n      jumpi\n      mload(0x40)\n      shl(0xe5, 0x461bcd)\n      dup2\n      mstore\n        /* \"#utility.yul\":4579:4581   */\n      0x20\n        /* \"contracts/Event.sol\":1938:1989  require(status != EventStatus.ENDED, \"ended event\") */\n      0x04\n      dup3\n      add\n        /* \"#utility.yul\":4561:4582   */\n      mstore\n        /* \"#utility.yul\":4618:4620   */\n      0x0b\n        /* \"#utility.yul\":4598:4616   */\n      0x24\n      dup3\n      add\n        /* \"#utility.yul\":4591:4621   */\n      mstore\n      shl(0xaa, 0x195b99195908195d995b9d)\n        /* \"#utility.yul\":4637:4655   */\n      0x44\n      dup3\n      add\n        /* \"#utility.yul\":4630:4671   */\n      mstore\n        /* \"#utility.yul\":4688:4706   */\n      0x64\n      add\n        /* \"contracts/Event.sol\":1938:1989  require(status != EventStatus.ENDED, \"ended event\") */\n      tag_83\n        /* \"#utility.yul\":4551:4712   */\n      jump\n        /* \"contracts/Event.sol\":1938:1989  require(status != EventStatus.ENDED, \"ended event\") */\n    tag_196:\n        /* \"contracts/Event.sol\":2005:2014  uint256 i */\n      0x00\n        /* \"contracts/Event.sol\":2000:2141  for (uint256 i = 0; i < markets.length; i++) {... */\n    tag_198:\n        /* \"contracts/Event.sol\":2024:2031  markets */\n      0x04\n        /* \"contracts/Event.sol\":2024:2038  markets.length */\n      sload\n        /* \"contracts/Event.sol\":2020:2038  i < markets.length */\n      dup2\n      lt\n        /* \"contracts/Event.sol\":2000:2141  for (uint256 i = 0; i < markets.length; i++) {... */\n      iszero\n      tag_199\n      jumpi\n        /* \"contracts/Event.sol\":2059:2073  IMarket market */\n      0x00\n        /* \"contracts/Event.sol\":2084:2091  markets */\n      0x04\n        /* \"contracts/Event.sol\":2092:2093  i */\n      dup3\n        /* \"contracts/Event.sol\":2084:2094  markets[i] */\n      dup2\n      sload\n      dup2\n      lt\n      tag_201\n      jumpi\n      mstore(0x00, shl(0xe0, 0x4e487b71))\n      mstore(0x04, 0x32)\n      revert(0x00, 0x24)\n    tag_201:\n      0x00\n      swap2\n      dup3\n      mstore\n      0x20\n      dup1\n      dup4\n      keccak256\n      swap1\n      swap2\n      add\n      sload\n        /* \"contracts/Event.sol\":2109:2130  market.cancelMarket() */\n      0x40\n      dup1\n      mload\n      shl(0xe0, 0x6bfefd6b)\n      dup2\n      mstore\n      swap1\n      mload\n      sub(shl(0xa0, 0x01), 0x01)\n        /* \"contracts/Event.sol\":2084:2094  markets[i] */\n      swap1\n      swap3\n      and\n      swap5\n      pop\n      dup5\n      swap4\n        /* \"contracts/Event.sol\":2109:2128  market.cancelMarket */\n      0x6bfefd6b\n      swap4\n        /* \"contracts/Event.sol\":2109:2130  market.cancelMarket() */\n      0x04\n      dup1\n      dup5\n      add\n      swap5\n        /* \"contracts/Event.sol\":2084:2094  markets[i] */\n      swap2\n      swap4\n        /* \"contracts/Event.sol\":2109:2130  market.cancelMarket() */\n      swap2\n      swap3\n      swap2\n      dup4\n      swap1\n      sub\n      add\n      swap1\n      dup3\n      swap1\n        /* \"contracts/Event.sol\":2084:2094  markets[i] */\n      dup8\n        /* \"contracts/Event.sol\":2109:2130  market.cancelMarket() */\n      dup1\n      extcodesize\n      iszero\n      dup1\n      iszero\n      tag_203\n      jumpi\n      0x00\n      dup1\n      revert\n    tag_203:\n      pop\n      gas\n      call\n      iszero\n      dup1\n      iszero\n      tag_205\n      jumpi\n      returndatasize\n      0x00\n      dup1\n      returndatacopy\n      revert(0x00, returndatasize)\n    tag_205:\n      pop\n      pop\n      pop\n      pop\n      mload(0x40)\n      returndatasize\n      not(0x1f)\n      0x1f\n      dup3\n      add\n      and\n      dup3\n      add\n      dup1\n      0x40\n      mstore\n      pop\n      dup2\n      add\n      swap1\n      tag_206\n      swap2\n      swap1\n      tag_115\n      jump\t// in\n    tag_206:\n      pop\n        /* \"contracts/Event.sol\":2000:2141  for (uint256 i = 0; i < markets.length; i++) {... */\n      pop\n        /* \"contracts/Event.sol\":2040:2043  i++ */\n      dup1\n      dup1\n      tag_207\n      swap1\n      tag_118\n      jump\t// in\n    tag_207:\n      swap2\n      pop\n      pop\n        /* \"contracts/Event.sol\":2000:2141  for (uint256 i = 0; i < markets.length; i++) {... */\n      jump(tag_198)\n    tag_199:\n      pop\n      pop\n        /* \"contracts/Event.sol\":2151:2157  status */\n      0x06\n        /* \"contracts/Event.sol\":2151:2180  status = EventStatus.CANCELED */\n      dup1\n      sload\n      not(0xff)\n      and\n        /* \"contracts/Event.sol\":2160:2180  EventStatus.CANCELED */\n      0x03\n        /* \"contracts/Event.sol\":2151:2180  status = EventStatus.CANCELED */\n      or\n      swap1\n      sstore\n      0x01\n      swap1\n        /* \"contracts/Event.sol\":1794:2208  function cancelEvent() external override onlyFactory returns(bool) ... */\n      jump\t// out\n    tag_87:\n      dup3\n      dup1\n      sload\n      tag_209\n      swap1\n      tag_71\n      jump\t// in\n    tag_209:\n      swap1\n      0x00\n      mstore\n      keccak256(0x00, 0x20)\n      swap1\n      0x1f\n      add\n      0x20\n      swap1\n      div\n      dup2\n      add\n      swap3\n      dup3\n      tag_211\n      jumpi\n      0x00\n      dup6\n      sstore\n      jump(tag_214)\n    tag_211:\n      dup3\n      0x1f\n      lt\n      tag_212\n      jumpi\n      dup1\n      mload\n      not(0xff)\n      and\n      dup4\n      dup1\n      add\n      or\n      dup6\n      sstore\n      jump(tag_214)\n    tag_212:\n      dup3\n      dup1\n      add\n      0x01\n      add\n      dup6\n      sstore\n      dup3\n      iszero\n      tag_214\n      jumpi\n      swap2\n      dup3\n      add\n    tag_213:\n      dup3\n      dup2\n      gt\n      iszero\n      tag_214\n      jumpi\n      dup3\n      mload\n      dup3\n      sstore\n      swap2\n      0x20\n      add\n      swap2\n      swap1\n      0x01\n      add\n      swap1\n      jump(tag_213)\n    tag_214:\n      pop\n      tag_215\n      swap3\n      swap2\n      pop\n      tag_216\n      jump\t// in\n    tag_215:\n      pop\n      swap1\n      jump\t// out\n    tag_216:\n    tag_217:\n      dup1\n      dup3\n      gt\n      iszero\n      tag_215\n      jumpi\n      0x00\n      dup2\n      sstore\n      0x01\n      add\n      jump(tag_217)\n        /* \"#utility.yul\":14:271   */\n    tag_45:\n        /* \"#utility.yul\":73:79   */\n      0x00\n        /* \"#utility.yul\":126:128   */\n      0x20\n        /* \"#utility.yul\":114:123   */\n      dup3\n        /* \"#utility.yul\":105:112   */\n      dup5\n        /* \"#utility.yul\":101:124   */\n      sub\n        /* \"#utility.yul\":97:129   */\n      slt\n        /* \"#utility.yul\":94:96   */\n      iszero\n      tag_221\n      jumpi\n        /* \"#utility.yul\":147:153   */\n      dup1\n        /* \"#utility.yul\":139:145   */\n      dup2\n        /* \"#utility.yul\":132:154   */\n      revert\n        /* \"#utility.yul\":94:96   */\n    tag_221:\n        /* \"#utility.yul\":191:200   */\n      dup2\n        /* \"#utility.yul\":178:201   */\n      calldataload\n        /* \"#utility.yul\":210:241   */\n      tag_222\n        /* \"#utility.yul\":235:240   */\n      dup2\n        /* \"#utility.yul\":210:241   */\n      tag_223\n      jump\t// in\n    tag_222:\n        /* \"#utility.yul\":260:265   */\n      swap4\n        /* \"#utility.yul\":84:271   */\n      swap3\n      pop\n      pop\n      pop\n      jump\t// out\n        /* \"#utility.yul\":276:537   */\n    tag_81:\n        /* \"#utility.yul\":346:352   */\n      0x00\n        /* \"#utility.yul\":399:401   */\n      0x20\n        /* \"#utility.yul\":387:396   */\n      dup3\n        /* \"#utility.yul\":378:385   */\n      dup5\n        /* \"#utility.yul\":374:397   */\n      sub\n        /* \"#utility.yul\":370:402   */\n      slt\n        /* \"#utility.yul\":367:369   */\n      iszero\n      tag_225\n      jumpi\n        /* \"#utility.yul\":420:426   */\n      dup1\n        /* \"#utility.yul\":412:418   */\n      dup2\n        /* \"#utility.yul\":405:427   */\n      revert\n        /* \"#utility.yul\":367:369   */\n    tag_225:\n        /* \"#utility.yul\":457:466   */\n      dup2\n        /* \"#utility.yul\":451:467   */\n      mload\n        /* \"#utility.yul\":476:507   */\n      tag_222\n        /* \"#utility.yul\":501:506   */\n      dup2\n        /* \"#utility.yul\":476:507   */\n      tag_223\n      jump\t// in\n        /* \"#utility.yul\":542:839   */\n    tag_115:\n        /* \"#utility.yul\":609:615   */\n      0x00\n        /* \"#utility.yul\":662:664   */\n      0x20\n        /* \"#utility.yul\":650:659   */\n      dup3\n        /* \"#utility.yul\":641:648   */\n      dup5\n        /* \"#utility.yul\":637:660   */\n      sub\n        /* \"#utility.yul\":633:665   */\n      slt\n        /* \"#utility.yul\":630:632   */\n      iszero\n      tag_228\n      jumpi\n        /* \"#utility.yul\":683:689   */\n      dup1\n        /* \"#utility.yul\":675:681   */\n      dup2\n        /* \"#utility.yul\":668:690   */\n      revert\n        /* \"#utility.yul\":630:632   */\n    tag_228:\n        /* \"#utility.yul\":720:729   */\n      dup2\n        /* \"#utility.yul\":714:730   */\n      mload\n        /* \"#utility.yul\":773:778   */\n      dup1\n        /* \"#utility.yul\":766:779   */\n      iszero\n        /* \"#utility.yul\":759:780   */\n      iszero\n        /* \"#utility.yul\":752:757   */\n      dup2\n        /* \"#utility.yul\":749:781   */\n      eq\n        /* \"#utility.yul\":739:741   */\n      tag_222\n      jumpi\n        /* \"#utility.yul\":800:806   */\n      dup2\n        /* \"#utility.yul\":792:798   */\n      dup3\n        /* \"#utility.yul\":785:807   */\n      revert\n        /* \"#utility.yul\":844:1811   */\n    tag_36:\n        /* \"#utility.yul\":913:919   */\n      0x00\n        /* \"#utility.yul\":966:968   */\n      0x20\n        /* \"#utility.yul\":954:963   */\n      dup3\n        /* \"#utility.yul\":945:952   */\n      dup5\n        /* \"#utility.yul\":941:964   */\n      sub\n        /* \"#utility.yul\":937:969   */\n      slt\n        /* \"#utility.yul\":934:936   */\n      iszero\n      tag_231\n      jumpi\n        /* \"#utility.yul\":987:993   */\n      dup1\n        /* \"#utility.yul\":979:985   */\n      dup2\n        /* \"#utility.yul\":972:994   */\n      revert\n        /* \"#utility.yul\":934:936   */\n    tag_231:\n        /* \"#utility.yul\":1032:1041   */\n      dup2\n        /* \"#utility.yul\":1019:1042   */\n      calldataload\n        /* \"#utility.yul\":1061:1079   */\n      0xffffffffffffffff\n        /* \"#utility.yul\":1102:1104   */\n      dup1\n        /* \"#utility.yul\":1094:1100   */\n      dup3\n        /* \"#utility.yul\":1091:1105   */\n      gt\n        /* \"#utility.yul\":1088:1090   */\n      iszero\n      tag_232\n      jumpi\n        /* \"#utility.yul\":1123:1129   */\n      dup3\n        /* \"#utility.yul\":1115:1121   */\n      dup4\n        /* \"#utility.yul\":1108:1130   */\n      revert\n        /* \"#utility.yul\":1088:1090   */\n    tag_232:\n        /* \"#utility.yul\":1166:1172   */\n      dup2\n        /* \"#utility.yul\":1155:1164   */\n      dup5\n        /* \"#utility.yul\":1151:1173   */\n      add\n        /* \"#utility.yul\":1141:1173   */\n      swap2\n      pop\n        /* \"#utility.yul\":1211:1218   */\n      dup5\n        /* \"#utility.yul\":1204:1208   */\n      0x1f\n        /* \"#utility.yul\":1200:1202   */\n      dup4\n        /* \"#utility.yul\":1196:1209   */\n      add\n        /* \"#utility.yul\":1192:1219   */\n      slt\n        /* \"#utility.yul\":1182:1184   */\n      tag_233\n      jumpi\n        /* \"#utility.yul\":1238:1244   */\n      dup3\n        /* \"#utility.yul\":1230:1236   */\n      dup4\n        /* \"#utility.yul\":1223:1245   */\n      revert\n        /* \"#utility.yul\":1182:1184   */\n    tag_233:\n        /* \"#utility.yul\":1279:1281   */\n      dup2\n        /* \"#utility.yul\":1266:1282   */\n      calldataload\n        /* \"#utility.yul\":1301:1303   */\n      dup2\n        /* \"#utility.yul\":1297:1299   */\n      dup2\n        /* \"#utility.yul\":1294:1304   */\n      gt\n        /* \"#utility.yul\":1291:1293   */\n      iszero\n      tag_235\n      jumpi\n        /* \"#utility.yul\":1307:1325   */\n      tag_235\n      tag_236\n      jump\t// in\n    tag_235:\n        /* \"#utility.yul\":1382:1384   */\n      0x40\n        /* \"#utility.yul\":1376:1385   */\n      mload\n        /* \"#utility.yul\":1350:1352   */\n      0x1f\n        /* \"#utility.yul\":1436:1449   */\n      dup3\n      add\n      not(0x1f)\n        /* \"#utility.yul\":1432:1454   */\n      swap1\n      dup2\n      and\n        /* \"#utility.yul\":1456:1458   */\n      0x3f\n        /* \"#utility.yul\":1428:1459   */\n      add\n        /* \"#utility.yul\":1424:1464   */\n      and\n        /* \"#utility.yul\":1412:1465   */\n      dup2\n      add\n      swap1\n        /* \"#utility.yul\":1480:1498   */\n      dup4\n      dup3\n      gt\n        /* \"#utility.yul\":1500:1522   */\n      dup2\n      dup4\n      lt\n        /* \"#utility.yul\":1477:1523   */\n      or\n        /* \"#utility.yul\":1474:1476   */\n      iszero\n      tag_238\n      jumpi\n        /* \"#utility.yul\":1526:1544   */\n      tag_238\n      tag_236\n      jump\t// in\n    tag_238:\n        /* \"#utility.yul\":1566:1576   */\n      dup2\n        /* \"#utility.yul\":1562:1564   */\n      0x40\n        /* \"#utility.yul\":1555:1577   */\n      mstore\n        /* \"#utility.yul\":1601:1603   */\n      dup3\n        /* \"#utility.yul\":1593:1599   */\n      dup2\n        /* \"#utility.yul\":1586:1604   */\n      mstore\n        /* \"#utility.yul\":1641:1648   */\n      dup8\n        /* \"#utility.yul\":1636:1638   */\n      0x20\n        /* \"#utility.yul\":1631:1633   */\n      dup5\n        /* \"#utility.yul\":1627:1629   */\n      dup8\n        /* \"#utility.yul\":1623:1634   */\n      add\n        /* \"#utility.yul\":1619:1639   */\n      add\n        /* \"#utility.yul\":1616:1649   */\n      gt\n        /* \"#utility.yul\":1613:1615   */\n      iszero\n      tag_239\n      jumpi\n        /* \"#utility.yul\":1667:1673   */\n      dup6\n        /* \"#utility.yul\":1659:1665   */\n      dup7\n        /* \"#utility.yul\":1652:1674   */\n      revert\n        /* \"#utility.yul\":1613:1615   */\n    tag_239:\n        /* \"#utility.yul\":1728:1730   */\n      dup3\n        /* \"#utility.yul\":1723:1725   */\n      0x20\n        /* \"#utility.yul\":1719:1721   */\n      dup7\n        /* \"#utility.yul\":1715:1726   */\n      add\n        /* \"#utility.yul\":1710:1712   */\n      0x20\n        /* \"#utility.yul\":1702:1708   */\n      dup4\n        /* \"#utility.yul\":1698:1713   */\n      add\n        /* \"#utility.yul\":1685:1731   */\n      calldatacopy\n        /* \"#utility.yul\":1751:1766   */\n      swap2\n      dup3\n      add\n        /* \"#utility.yul\":1768:1770   */\n      0x20\n        /* \"#utility.yul\":1747:1771   */\n      add\n        /* \"#utility.yul\":1740:1780   */\n      swap5\n      swap1\n      swap5\n      mstore\n        /* \"#utility.yul\":1755:1761   */\n      swap6\n        /* \"#utility.yul\":924:1811   */\n      swap5\n      pop\n      pop\n      pop\n      pop\n      pop\n      jump\t// out\n        /* \"#utility.yul\":1816:2006   */\n    tag_50:\n        /* \"#utility.yul\":1875:1881   */\n      0x00\n        /* \"#utility.yul\":1928:1930   */\n      0x20\n        /* \"#utility.yul\":1916:1925   */\n      dup3\n        /* \"#utility.yul\":1907:1914   */\n      dup5\n        /* \"#utility.yul\":1903:1926   */\n      sub\n        /* \"#utility.yul\":1899:1931   */\n      slt\n        /* \"#utility.yul\":1896:1898   */\n      iszero\n      tag_241\n      jumpi\n        /* \"#utility.yul\":1949:1955   */\n      dup1\n        /* \"#utility.yul\":1941:1947   */\n      dup2\n        /* \"#utility.yul\":1934:1956   */\n      revert\n        /* \"#utility.yul\":1896:1898   */\n    tag_241:\n      pop\n        /* \"#utility.yul\":1977:2000   */\n      calldataload\n      swap2\n        /* \"#utility.yul\":1886:2006   */\n      swap1\n      pop\n      jump\t// out\n        /* \"#utility.yul\":2219:2880   */\n    tag_63:\n        /* \"#utility.yul\":2390:2392   */\n      0x20\n        /* \"#utility.yul\":2442:2463   */\n      dup1\n      dup3\n      mstore\n        /* \"#utility.yul\":2512:2525   */\n      dup3\n      mload\n        /* \"#utility.yul\":2415:2433   */\n      dup3\n      dup3\n      add\n        /* \"#utility.yul\":2534:2556   */\n      dup2\n      swap1\n      mstore\n        /* \"#utility.yul\":2361:2365   */\n      0x00\n      swap2\n        /* \"#utility.yul\":2390:2392   */\n      swap1\n        /* \"#utility.yul\":2613:2628   */\n      dup5\n      dup3\n      add\n      swap1\n        /* \"#utility.yul\":2587:2589   */\n      0x40\n        /* \"#utility.yul\":2572:2590   */\n      dup6\n      add\n      swap1\n        /* \"#utility.yul\":2361:2365   */\n      dup5\n        /* \"#utility.yul\":2659:2854   */\n    tag_244:\n        /* \"#utility.yul\":2673:2679   */\n      dup2\n        /* \"#utility.yul\":2670:2671   */\n      dup2\n        /* \"#utility.yul\":2667:2680   */\n      lt\n        /* \"#utility.yul\":2659:2854   */\n      iszero\n      tag_246\n      jumpi\n        /* \"#utility.yul\":2738:2751   */\n      dup4\n      mload\n      sub(shl(0xa0, 0x01), 0x01)\n        /* \"#utility.yul\":2734:2773   */\n      and\n        /* \"#utility.yul\":2722:2774   */\n      dup4\n      mstore\n        /* \"#utility.yul\":2829:2844   */\n      swap3\n      dup5\n      add\n      swap3\n        /* \"#utility.yul\":2794:2806   */\n      swap2\n      dup5\n      add\n      swap2\n      0x01\n        /* \"#utility.yul\":2688:2697   */\n      add\n        /* \"#utility.yul\":2659:2854   */\n      jump(tag_244)\n    tag_246:\n      pop\n        /* \"#utility.yul\":2871:2874   */\n      swap1\n      swap7\n        /* \"#utility.yul\":2370:2880   */\n      swap6\n      pop\n      pop\n      pop\n      pop\n      pop\n      pop\n      jump\t// out\n        /* \"#utility.yul\":3077:3420   */\n    tag_25:\n        /* \"#utility.yul\":3224:3226   */\n      0x20\n        /* \"#utility.yul\":3209:3227   */\n      dup2\n      add\n        /* \"#utility.yul\":3257:3258   */\n      0x04\n        /* \"#utility.yul\":3246:3259   */\n      dup4\n      lt\n        /* \"#utility.yul\":3236:3238   */\n      tag_249\n      jumpi\n        /* \"#utility.yul\":3302:3312   */\n      0x4e487b71\n        /* \"#utility.yul\":3297:3300   */\n      0xe0\n        /* \"#utility.yul\":3293:3313   */\n      shl\n        /* \"#utility.yul\":3290:3291   */\n      0x00\n        /* \"#utility.yul\":3283:3314   */\n      mstore\n        /* \"#utility.yul\":3337:3341   */\n      0x21\n        /* \"#utility.yul\":3334:3335   */\n      0x04\n        /* \"#utility.yul\":3327:3342   */\n      mstore\n        /* \"#utility.yul\":3365:3369   */\n      0x24\n        /* \"#utility.yul\":3362:3363   */\n      0x00\n        /* \"#utility.yul\":3355:3370   */\n      revert\n        /* \"#utility.yul\":3236:3238   */\n    tag_249:\n        /* \"#utility.yul\":3389:3414   */\n      swap2\n      swap1\n      mstore\n        /* \"#utility.yul\":3191:3420   */\n      swap1\n      jump\t// out\n        /* \"#utility.yul\":3425:4028   */\n    tag_21:\n        /* \"#utility.yul\":3537:3541   */\n      0x00\n        /* \"#utility.yul\":3566:3568   */\n      0x20\n        /* \"#utility.yul\":3595:3597   */\n      dup1\n        /* \"#utility.yul\":3584:3593   */\n      dup4\n        /* \"#utility.yul\":3577:3598   */\n      mstore\n        /* \"#utility.yul\":3627:3633   */\n      dup4\n        /* \"#utility.yul\":3621:3634   */\n      mload\n        /* \"#utility.yul\":3670:3676   */\n      dup1\n        /* \"#utility.yul\":3665:3667   */\n      dup3\n        /* \"#utility.yul\":3654:3663   */\n      dup6\n        /* \"#utility.yul\":3650:3668   */\n      add\n        /* \"#utility.yul\":3643:3677   */\n      mstore\n        /* \"#utility.yul\":3695:3699   */\n      dup3\n        /* \"#utility.yul\":3708:3848   */\n    tag_251:\n        /* \"#utility.yul\":3722:3728   */\n      dup2\n        /* \"#utility.yul\":3719:3720   */\n      dup2\n        /* \"#utility.yul\":3716:3729   */\n      lt\n        /* \"#utility.yul\":3708:3848   */\n      iszero\n      tag_253\n      jumpi\n        /* \"#utility.yul\":3817:3831   */\n      dup6\n      dup2\n      add\n        /* \"#utility.yul\":3813:3836   */\n      dup4\n      add\n        /* \"#utility.yul\":3807:3837   */\n      mload\n        /* \"#utility.yul\":3783:3800   */\n      dup6\n      dup3\n      add\n        /* \"#utility.yul\":3802:3804   */\n      0x40\n        /* \"#utility.yul\":3779:3805   */\n      add\n        /* \"#utility.yul\":3772:3838   */\n      mstore\n        /* \"#utility.yul\":3737:3747   */\n      dup3\n      add\n        /* \"#utility.yul\":3708:3848   */\n      jump(tag_251)\n    tag_253:\n        /* \"#utility.yul\":3866:3872   */\n      dup2\n        /* \"#utility.yul\":3863:3864   */\n      dup2\n        /* \"#utility.yul\":3860:3873   */\n      gt\n        /* \"#utility.yul\":3857:3859   */\n      iszero\n      tag_254\n      jumpi\n        /* \"#utility.yul\":3936:3940   */\n      dup4\n        /* \"#utility.yul\":3931:3933   */\n      0x40\n        /* \"#utility.yul\":3922:3928   */\n      dup4\n        /* \"#utility.yul\":3911:3920   */\n      dup8\n        /* \"#utility.yul\":3907:3929   */\n      add\n        /* \"#utility.yul\":3903:3934   */\n      add\n        /* \"#utility.yul\":3896:3941   */\n      mstore\n        /* \"#utility.yul\":3857:3859   */\n    tag_254:\n      pop\n        /* \"#utility.yul\":4012:4014   */\n      0x1f\n        /* \"#utility.yul\":3991:4006   */\n      add\n      not(0x1f)\n        /* \"#utility.yul\":3987:4016   */\n      and\n        /* \"#utility.yul\":3972:4017   */\n      swap3\n      swap1\n      swap3\n      add\n        /* \"#utility.yul\":4019:4021   */\n      0x40\n        /* \"#utility.yul\":3968:4022   */\n      add\n      swap4\n        /* \"#utility.yul\":3546:4028   */\n      swap3\n      pop\n      pop\n      pop\n      jump\t// out\n        /* \"#utility.yul\":6258:6638   */\n    tag_71:\n        /* \"#utility.yul\":6337:6338   */\n      0x01\n        /* \"#utility.yul\":6333:6345   */\n      dup2\n      dup2\n      shr\n      swap1\n        /* \"#utility.yul\":6380:6392   */\n      dup3\n      and\n      dup1\n        /* \"#utility.yul\":6401:6403   */\n      tag_263\n      jumpi\n        /* \"#utility.yul\":6455:6459   */\n      0x7f\n        /* \"#utility.yul\":6447:6453   */\n      dup3\n        /* \"#utility.yul\":6443:6460   */\n      and\n        /* \"#utility.yul\":6433:6460   */\n      swap2\n      pop\n        /* \"#utility.yul\":6401:6403   */\n    tag_263:\n        /* \"#utility.yul\":6508:6510   */\n      0x20\n        /* \"#utility.yul\":6500:6506   */\n      dup3\n        /* \"#utility.yul\":6497:6511   */\n      lt\n        /* \"#utility.yul\":6477:6495   */\n      dup2\n        /* \"#utility.yul\":6474:6512   */\n      eq\n        /* \"#utility.yul\":6471:6473   */\n      iszero\n      tag_264\n      jumpi\n        /* \"#utility.yul\":6554:6564   */\n      0x4e487b71\n        /* \"#utility.yul\":6549:6552   */\n      0xe0\n        /* \"#utility.yul\":6545:6565   */\n      shl\n        /* \"#utility.yul\":6542:6543   */\n      0x00\n        /* \"#utility.yul\":6535:6566   */\n      mstore\n        /* \"#utility.yul\":6589:6593   */\n      0x22\n        /* \"#utility.yul\":6586:6587   */\n      0x04\n        /* \"#utility.yul\":6579:6594   */\n      mstore\n        /* \"#utility.yul\":6617:6621   */\n      0x24\n        /* \"#utility.yul\":6614:6615   */\n      0x00\n        /* \"#utility.yul\":6607:6622   */\n      revert\n        /* \"#utility.yul\":6471:6473   */\n    tag_264:\n      pop\n        /* \"#utility.yul\":6313:6638   */\n      swap2\n      swap1\n      pop\n      jump\t// out\n        /* \"#utility.yul\":6643:6879   */\n    tag_118:\n        /* \"#utility.yul\":6682:6685   */\n      0x00\n      not(0x00)\n        /* \"#utility.yul\":6703:6720   */\n      dup3\n      eq\n        /* \"#utility.yul\":6700:6702   */\n      iszero\n      tag_266\n      jumpi\n      shl(0xe0, 0x4e487b71)\n        /* \"#utility.yul\":6743:6776   */\n      dup2\n      mstore\n        /* \"#utility.yul\":6799:6803   */\n      0x11\n        /* \"#utility.yul\":6796:6797   */\n      0x04\n        /* \"#utility.yul\":6789:6804   */\n      mstore\n        /* \"#utility.yul\":6829:6833   */\n      0x24\n        /* \"#utility.yul\":6743:6776   */\n      dup2\n        /* \"#utility.yul\":6817:6834   */\n      revert\n        /* \"#utility.yul\":6700:6702   */\n    tag_266:\n      pop\n        /* \"#utility.yul\":6871:6872   */\n      0x01\n        /* \"#utility.yul\":6860:6873   */\n      add\n      swap1\n        /* \"#utility.yul\":6690:6879   */\n      jump\t// out\n        /* \"#utility.yul\":6884:7011   */\n    tag_236:\n        /* \"#utility.yul\":6945:6955   */\n      0x4e487b71\n        /* \"#utility.yul\":6940:6943   */\n      0xe0\n        /* \"#utility.yul\":6936:6956   */\n      shl\n        /* \"#utility.yul\":6933:6934   */\n      0x00\n        /* \"#utility.yul\":6926:6957   */\n      mstore\n        /* \"#utility.yul\":6976:6980   */\n      0x41\n        /* \"#utility.yul\":6973:6974   */\n      0x04\n        /* \"#utility.yul\":6966:6981   */\n      mstore\n        /* \"#utility.yul\":7000:7004   */\n      0x24\n        /* \"#utility.yul\":6997:6998   */\n      0x00\n        /* \"#utility.yul\":6990:7005   */\n      revert\n        /* \"#utility.yul\":7016:7147   */\n    tag_223:\n      sub(shl(0xa0, 0x01), 0x01)\n        /* \"#utility.yul\":7091:7122   */\n      dup2\n      and\n        /* \"#utility.yul\":7081:7123   */\n      dup2\n      eq\n        /* \"#utility.yul\":7071:7073   */\n      tag_269\n      jumpi\n        /* \"#utility.yul\":7137:7138   */\n      0x00\n        /* \"#utility.yul\":7134:7135   */\n      dup1\n        /* \"#utility.yul\":7127:7139   */\n      revert\n        /* \"#utility.yul\":7071:7073   */\n    tag_269:\n        /* \"#utility.yul\":7061:7147   */\n      pop\n      jump\t// out\n\n    auxdata: 0xa2646970667358221220443c7373fd0403f1e0123f286f73eb7a82624011e44338ca3211533b5bd3c95f64736f6c63430008040033\n}\n",
				"bytecode": {
					"linkReferences": {},
					"object": "6080604052600054600680546001600160a01b0390921661010002610100600160a81b03199092169190911790553480156200003a57600080fd5b50604051620014f2380380620014f28339810160408190526200005d91620002bd565b600660019054906101000a90046001600160a01b03166001600160a01b0316636fdbd3f66040518163ffffffff1660e01b815260040160206040518083038186803b158015620000ac57600080fd5b505afa158015620000c1573d6000803e3d6000fd5b505050506040513d601f19601f82011682018060405250810190620000e7919062000299565b6001600160a01b0316336001600160a01b031614620001355760405162461bcd60e51b8152602060048201526005602482015264667479206f60d81b60448201526064015b60405180910390fd5b670de0b6b3a76400006200014a8282620003b8565b1015620001885760405162461bcd60e51b815260206004820152600b60248201526a78206d696e207374616b6560a81b60448201526064016200012c565b82516200019d906005906020860190620001d6565b50600180546001600160a01b0319166001600160a01b039590951694909417909355600255506003556006805460ff1916905562000437565b828054620001e490620003e4565b90600052602060002090601f01602090048101928262000208576000855562000253565b82601f106200022357805160ff191683800117855562000253565b8280016001018555821562000253579182015b828111156200025357825182559160200191906001019062000236565b506200026192915062000265565b5090565b5b8082111562000261576000815560010162000266565b80516001600160a01b03811681146200029457600080fd5b919050565b600060208284031215620002ab578081fd5b620002b6826200027c565b9392505050565b60008060008060808587031215620002d3578283fd5b620002de856200027c565b602086810151919550906001600160401b0380821115620002fd578586fd5b818801915088601f83011262000311578586fd5b81518181111562000326576200032662000421565b604051601f8201601f19908116603f0116810190838211818310171562000351576200035162000421565b816040528281528b8684870101111562000369578889fd5b8893505b828410156200038c57848401860151818501870152928501926200036d565b828411156200039d57888684830101525b60408b01516060909b0151999c909b50975050505050505050565b6000816000190483118215151615620003df57634e487b7160e01b81526011600452602481fd5b500290565b600181811c90821680620003f957607f821691505b602082108114156200041b57634e487b7160e01b600052602260045260246000fd5b50919050565b634e487b7160e01b600052604160045260246000fd5b6110ab80620004476000396000f3fe608060405234801561001057600080fd5b50600436106100cf5760003560e01c806393e306331161008c578063e2fd38e911610066578063e2fd38e9146101b2578063ec2c9016146101ba578063ec5ffac2146101cf578063fb6c9537146101d857600080fd5b806393e3063314610179578063b1283e771461018c578063bc508ff41461019f57600080fd5b806306fdde03146100d4578063200d2ed2146100f2578063202141341461010c57806378e979251461013757806384da92a71461014e57806386ec617714610171575b600080fd5b6100dc6101e0565b6040516100e99190610f2a565b60405180910390f35b6006546100ff9060ff1681565b6040516100e99190610f02565b60015461011f906001600160a01b031681565b6040516001600160a01b0390911681526020016100e9565b61014060025481565b6040519081526020016100e9565b61016161015c366004610df3565b61026e565b60405190151581526020016100e9565b61016161034b565b610161610187366004610d94565b6105bb565b61011f61019a366004610e9d565b6106c7565b6101616101ad366004610e9d565b6106f1565b610161610846565b6101c2610a6b565b6040516100e99190610eb5565b61014060035481565b610161610acd565b600580546101ed90610fe5565b80601f016020809104026020016040519081016040528092919081815260200182805461021990610fe5565b80156102665780601f1061023b57610100808354040283529160200191610266565b820191906000526020600020905b81548152906001019060200180831161024957829003601f168201915b505050505081565b6000600660019054906101000a90046001600160a01b03166001600160a01b0316636fdbd3f66040518163ffffffff1660e01b815260040160206040518083038186803b1580156102be57600080fd5b505afa1580156102d2573d6000803e3d6000fd5b505050506040513d601f19601f820116820180604052508101906102f69190610db7565b6001600160a01b0316336001600160a01b03161461032f5760405162461bcd60e51b815260040161032690610fa2565b60405180910390fd5b8151610342906005906020850190610cfb565b50600192915050565b6000600660019054906101000a90046001600160a01b03166001600160a01b0316636fdbd3f66040518163ffffffff1660e01b815260040160206040518083038186803b15801561039b57600080fd5b505afa1580156103af573d6000803e3d6000fd5b505050506040513d601f19601f820116820180604052508101906103d39190610db7565b6001600160a01b0316336001600160a01b0316146104035760405162461bcd60e51b815260040161032690610fa2565b600360065460ff16600381111561042a57634e487b7160e01b600052602160045260246000fd5b14156104485760405162461bcd60e51b815260040161032690610fc3565b600260065460ff16600381111561046f57634e487b7160e01b600052602160045260246000fd5b141561048d5760405162461bcd60e51b815260040161032690610f7d565b600160005b600454811015610564576000600482815481106104bf57634e487b7160e01b600052603260045260246000fd5b6000918252602091829020015460408051632f6498c360e21b815290516001600160a01b039092169350839263bd92630c92600480840193829003018186803b15801561050b57600080fd5b505afa15801561051f573d6000803e3d6000fd5b505050506040513d601f19601f820116820180604052508101906105439190610dd3565b610551576000925050610564565b508061055c81611020565b915050610492565b50806105a75760405162461bcd60e51b8152602060048201526012602482015271185b1b081b5add081b9d081cd95d1d1b195960721b6044820152606401610326565b50506006805460ff19166002179055600190565b6000600660019054906101000a90046001600160a01b03166001600160a01b03166306ae70956040518163ffffffff1660e01b815260040160206040518083038186803b15801561060b57600080fd5b505afa15801561061f573d6000803e3d6000fd5b505050506040513d601f19601f820116820180604052508101906106439190610db7565b6001600160a01b0316336001600160a01b0316146106735760405162461bcd60e51b815260040161032690610fa2565b5060048054600181810183556000929092527f8a35acfbc15ff81a39ae7d344fd709f28e8600b4aa8c65c6b64bfe7fe36bd19b0180546001600160a01b0384166001600160a01b0319909116179055919050565b600481815481106106d757600080fd5b6000918252602090912001546001600160a01b0316905081565b6000600660019054906101000a90046001600160a01b03166001600160a01b0316636fdbd3f66040518163ffffffff1660e01b815260040160206040518083038186803b15801561074157600080fd5b505afa158015610755573d6000803e3d6000fd5b505050506040513d601f19601f820116820180604052508101906107799190610db7565b6001600160a01b0316336001600160a01b0316146107a95760405162461bcd60e51b815260040161032690610fa2565b600360065460ff1660038111156107d057634e487b7160e01b600052602160045260246000fd5b14156107ee5760405162461bcd60e51b815260040161032690610fc3565b600260065460ff16600381111561081557634e487b7160e01b600052602160045260246000fd5b14156108335760405162461bcd60e51b815260040161032690610f7d565b506002556006805460ff19169055600190565b6000600660019054906101000a90046001600160a01b03166001600160a01b0316636fdbd3f66040518163ffffffff1660e01b815260040160206040518083038186803b15801561089657600080fd5b505afa1580156108aa573d6000803e3d6000fd5b505050506040513d601f19601f820116820180604052508101906108ce9190610db7565b6001600160a01b0316336001600160a01b0316146108fe5760405162461bcd60e51b815260040161032690610fa2565b600360065460ff16600381111561092557634e487b7160e01b600052602160045260246000fd5b14156109435760405162461bcd60e51b815260040161032690610fc3565b600260065460ff16600381111561096a57634e487b7160e01b600052602160045260246000fd5b14156109885760405162461bcd60e51b815260040161032690610f7d565b600160065460ff1660038111156109af57634e487b7160e01b600052602160045260246000fd5b14156109ec5760405162461bcd60e51b815260206004820152600c60248201526b616c7265616479206c69766560a01b6044820152606401610326565b600060065460ff166003811115610a1357634e487b7160e01b600052602160045260246000fd5b1415610a2b576006805460ff19166001179055610a65565b60405162461bcd60e51b815260206004820152600f60248201526e6572723a206261642073746174757360881b6044820152606401610326565b50600190565b60606004805480602002602001604051908101604052809291908181526020018280548015610ac357602002820191906000526020600020905b81546001600160a01b03168152600190910190602001808311610aa5575b5050505050905090565b6000600660019054906101000a90046001600160a01b03166001600160a01b0316636fdbd3f66040518163ffffffff1660e01b815260040160206040518083038186803b158015610b1d57600080fd5b505afa158015610b31573d6000803e3d6000fd5b505050506040513d601f19601f82011682018060405250810190610b559190610db7565b6001600160a01b0316336001600160a01b031614610b855760405162461bcd60e51b815260040161032690610fa2565b600360065460ff166003811115610bac57634e487b7160e01b600052602160045260246000fd5b1415610bca5760405162461bcd60e51b815260040161032690610fc3565b600260065460ff166003811115610bf157634e487b7160e01b600052602160045260246000fd5b1415610c0f5760405162461bcd60e51b815260040161032690610f7d565b60005b600454811015610ce757600060048281548110610c3f57634e487b7160e01b600052603260045260246000fd5b9060005260206000200160009054906101000a90046001600160a01b03169050806001600160a01b0316636bfefd6b6040518163ffffffff1660e01b8152600401602060405180830381600087803b158015610c9a57600080fd5b505af1158015610cae573d6000803e3d6000fd5b505050506040513d601f19601f82011682018060405250810190610cd29190610dd3565b50508080610cdf90611020565b915050610c12565b50506006805460ff19166003179055600190565b828054610d0790610fe5565b90600052602060002090601f016020900481019282610d295760008555610d6f565b82601f10610d4257805160ff1916838001178555610d6f565b82800160010185558215610d6f579182015b82811115610d6f578251825591602001919060010190610d54565b50610d7b929150610d7f565b5090565b5b80821115610d7b5760008155600101610d80565b600060208284031215610da5578081fd5b8135610db08161105d565b9392505050565b600060208284031215610dc8578081fd5b8151610db08161105d565b600060208284031215610de4578081fd5b81518015158114610db0578182fd5b600060208284031215610e04578081fd5b813567ffffffffffffffff80821115610e1b578283fd5b818401915084601f830112610e2e578283fd5b813581811115610e4057610e40611047565b604051601f8201601f19908116603f01168101908382118183101715610e6857610e68611047565b81604052828152876020848701011115610e80578586fd5b826020860160208301379182016020019490945295945050505050565b600060208284031215610eae578081fd5b5035919050565b6020808252825182820181905260009190848201906040850190845b81811015610ef65783516001600160a01b031683529284019291840191600101610ed1565b50909695505050505050565b6020810160048310610f2457634e487b7160e01b600052602160045260246000fd5b91905290565b6000602080835283518082850152825b81811015610f5657858101830151858201604001528201610f3a565b81811115610f675783604083870101525b50601f01601f1916929092016040019392505050565b6020808252600b908201526a195b99195908195d995b9d60aa1b604082015260600190565b6020808252600790820152666f776e6572206f60c81b604082015260600190565b6020808252600890820152671e1908195d995b9d60c21b604082015260600190565b600181811c90821680610ff957607f821691505b6020821081141561101a57634e487b7160e01b600052602260045260246000fd5b50919050565b600060001982141561104057634e487b7160e01b81526011600452602481fd5b5060010190565b634e487b7160e01b600052604160045260246000fd5b6001600160a01b038116811461107257600080fd5b5056fea2646970667358221220443c7373fd0403f1e0123f286f73eb7a82624011e44338ca3211533b5bd3c95f64736f6c63430008040033",
					"opcodes": "PUSH1 0x80 PUSH1 0x40 MSTORE PUSH1 0x0 SLOAD PUSH1 0x6 DUP1 SLOAD PUSH1 0x1 PUSH1 0x1 PUSH1 0xA0 SHL SUB SWAP1 SWAP3 AND PUSH2 0x100 MUL PUSH2 0x100 PUSH1 0x1 PUSH1 0xA8 SHL SUB NOT SWAP1 SWAP3 AND SWAP2 SWAP1 SWAP2 OR SWAP1 SSTORE CALLVALUE DUP1 ISZERO PUSH3 0x3A JUMPI PUSH1 0x0 DUP1 REVERT JUMPDEST POP PUSH1 0x40 MLOAD PUSH3 0x14F2 CODESIZE SUB DUP1 PUSH3 0x14F2 DUP4 CODECOPY DUP2 ADD PUSH1 0x40 DUP2 SWAP1 MSTORE PUSH3 0x5D SWAP2 PUSH3 0x2BD JUMP JUMPDEST PUSH1 0x6 PUSH1 0x1 SWAP1 SLOAD SWAP1 PUSH2 0x100 EXP SWAP1 DIV PUSH1 0x1 PUSH1 0x1 PUSH1 0xA0 SHL SUB AND PUSH1 0x1 PUSH1 0x1 PUSH1 0xA0 SHL SUB AND PUSH4 0x6FDBD3F6 PUSH1 0x40 MLOAD DUP2 PUSH4 0xFFFFFFFF AND PUSH1 0xE0 SHL DUP2 MSTORE PUSH1 0x4 ADD PUSH1 0x20 PUSH1 0x40 MLOAD DUP1 DUP4 SUB DUP2 DUP7 DUP1 EXTCODESIZE ISZERO DUP1 ISZERO PUSH3 0xAC JUMPI PUSH1 0x0 DUP1 REVERT JUMPDEST POP GAS STATICCALL ISZERO DUP1 ISZERO PUSH3 0xC1 JUMPI RETURNDATASIZE PUSH1 0x0 DUP1 RETURNDATACOPY RETURNDATASIZE PUSH1 0x0 REVERT JUMPDEST POP POP POP POP PUSH1 0x40 MLOAD RETURNDATASIZE PUSH1 0x1F NOT PUSH1 0x1F DUP3 ADD AND DUP3 ADD DUP1 PUSH1 0x40 MSTORE POP DUP2 ADD SWAP1 PUSH3 0xE7 SWAP2 SWAP1 PUSH3 0x299 JUMP JUMPDEST PUSH1 0x1 PUSH1 0x1 PUSH1 0xA0 SHL SUB AND CALLER PUSH1 0x1 PUSH1 0x1 PUSH1 0xA0 SHL SUB AND EQ PUSH3 0x135 JUMPI PUSH1 0x40 MLOAD PUSH3 0x461BCD PUSH1 0xE5 SHL DUP2 MSTORE PUSH1 0x20 PUSH1 0x4 DUP3 ADD MSTORE PUSH1 0x5 PUSH1 0x24 DUP3 ADD MSTORE PUSH5 0x667479206F PUSH1 0xD8 SHL PUSH1 0x44 DUP3 ADD MSTORE PUSH1 0x64 ADD JUMPDEST PUSH1 0x40 MLOAD DUP1 SWAP2 SUB SWAP1 REVERT JUMPDEST PUSH8 0xDE0B6B3A7640000 PUSH3 0x14A DUP3 DUP3 PUSH3 0x3B8 JUMP JUMPDEST LT ISZERO PUSH3 0x188 JUMPI PUSH1 0x40 MLOAD PUSH3 0x461BCD PUSH1 0xE5 SHL DUP2 MSTORE PUSH1 0x20 PUSH1 0x4 DUP3 ADD MSTORE PUSH1 0xB PUSH1 0x24 DUP3 ADD MSTORE PUSH11 0x78206D696E207374616B65 PUSH1 0xA8 SHL PUSH1 0x44 DUP3 ADD MSTORE PUSH1 0x64 ADD PUSH3 0x12C JUMP JUMPDEST DUP3 MLOAD PUSH3 0x19D SWAP1 PUSH1 0x5 SWAP1 PUSH1 0x20 DUP7 ADD SWAP1 PUSH3 0x1D6 JUMP JUMPDEST POP PUSH1 0x1 DUP1 SLOAD PUSH1 0x1 PUSH1 0x1 PUSH1 0xA0 SHL SUB NOT AND PUSH1 0x1 PUSH1 0x1 PUSH1 0xA0 SHL SUB SWAP6 SWAP1 SWAP6 AND SWAP5 SWAP1 SWAP5 OR SWAP1 SWAP4 SSTORE PUSH1 0x2 SSTORE POP PUSH1 0x3 SSTORE PUSH1 0x6 DUP1 SLOAD PUSH1 0xFF NOT AND SWAP1 SSTORE PUSH3 0x437 JUMP JUMPDEST DUP3 DUP1 SLOAD PUSH3 0x1E4 SWAP1 PUSH3 0x3E4 JUMP JUMPDEST SWAP1 PUSH1 0x0 MSTORE PUSH1 0x20 PUSH1 0x0 KECCAK256 SWAP1 PUSH1 0x1F ADD PUSH1 0x20 SWAP1 DIV DUP2 ADD SWAP3 DUP3 PUSH3 0x208 JUMPI PUSH1 0x0 DUP6 SSTORE PUSH3 0x253 JUMP JUMPDEST DUP3 PUSH1 0x1F LT PUSH3 0x223 JUMPI DUP1 MLOAD PUSH1 0xFF NOT AND DUP4 DUP1 ADD OR DUP6 SSTORE PUSH3 0x253 JUMP JUMPDEST DUP3 DUP1 ADD PUSH1 0x1 ADD DUP6 SSTORE DUP3 ISZERO PUSH3 0x253 JUMPI SWAP2 DUP3 ADD JUMPDEST DUP3 DUP2 GT ISZERO PUSH3 0x253 JUMPI DUP3 MLOAD DUP3 SSTORE SWAP2 PUSH1 0x20 ADD SWAP2 SWAP1 PUSH1 0x1 ADD SWAP1 PUSH3 0x236 JUMP JUMPDEST POP PUSH3 0x261 SWAP3 SWAP2 POP PUSH3 0x265 JUMP JUMPDEST POP SWAP1 JUMP JUMPDEST JUMPDEST DUP1 DUP3 GT ISZERO PUSH3 0x261 JUMPI PUSH1 0x0 DUP2 SSTORE PUSH1 0x1 ADD PUSH3 0x266 JUMP JUMPDEST DUP1 MLOAD PUSH1 0x1 PUSH1 0x1 PUSH1 0xA0 SHL SUB DUP2 AND DUP2 EQ PUSH3 0x294 JUMPI PUSH1 0x0 DUP1 REVERT JUMPDEST SWAP2 SWAP1 POP JUMP JUMPDEST PUSH1 0x0 PUSH1 0x20 DUP3 DUP5 SUB SLT ISZERO PUSH3 0x2AB JUMPI DUP1 DUP2 REVERT JUMPDEST PUSH3 0x2B6 DUP3 PUSH3 0x27C JUMP JUMPDEST SWAP4 SWAP3 POP POP POP JUMP JUMPDEST PUSH1 0x0 DUP1 PUSH1 0x0 DUP1 PUSH1 0x80 DUP6 DUP8 SUB SLT ISZERO PUSH3 0x2D3 JUMPI DUP3 DUP4 REVERT JUMPDEST PUSH3 0x2DE DUP6 PUSH3 0x27C JUMP JUMPDEST PUSH1 0x20 DUP7 DUP2 ADD MLOAD SWAP2 SWAP6 POP SWAP1 PUSH1 0x1 PUSH1 0x1 PUSH1 0x40 SHL SUB DUP1 DUP3 GT ISZERO PUSH3 0x2FD JUMPI DUP6 DUP7 REVERT JUMPDEST DUP2 DUP9 ADD SWAP2 POP DUP9 PUSH1 0x1F DUP4 ADD SLT PUSH3 0x311 JUMPI DUP6 DUP7 REVERT JUMPDEST DUP2 MLOAD DUP2 DUP2 GT ISZERO PUSH3 0x326 JUMPI PUSH3 0x326 PUSH3 0x421 JUMP JUMPDEST PUSH1 0x40 MLOAD PUSH1 0x1F DUP3 ADD PUSH1 0x1F NOT SWAP1 DUP2 AND PUSH1 0x3F ADD AND DUP2 ADD SWAP1 DUP4 DUP3 GT DUP2 DUP4 LT OR ISZERO PUSH3 0x351 JUMPI PUSH3 0x351 PUSH3 0x421 JUMP JUMPDEST DUP2 PUSH1 0x40 MSTORE DUP3 DUP2 MSTORE DUP12 DUP7 DUP5 DUP8 ADD ADD GT ISZERO PUSH3 0x369 JUMPI DUP9 DUP10 REVERT JUMPDEST DUP9 SWAP4 POP JUMPDEST DUP3 DUP5 LT ISZERO PUSH3 0x38C JUMPI DUP5 DUP5 ADD DUP7 ADD MLOAD DUP2 DUP6 ADD DUP8 ADD MSTORE SWAP3 DUP6 ADD SWAP3 PUSH3 0x36D JUMP JUMPDEST DUP3 DUP5 GT ISZERO PUSH3 0x39D JUMPI DUP9 DUP7 DUP5 DUP4 ADD ADD MSTORE JUMPDEST PUSH1 0x40 DUP12 ADD MLOAD PUSH1 0x60 SWAP1 SWAP12 ADD MLOAD SWAP10 SWAP13 SWAP1 SWAP12 POP SWAP8 POP POP POP POP POP POP POP POP JUMP JUMPDEST PUSH1 0x0 DUP2 PUSH1 0x0 NOT DIV DUP4 GT DUP3 ISZERO ISZERO AND ISZERO PUSH3 0x3DF JUMPI PUSH4 0x4E487B71 PUSH1 0xE0 SHL DUP2 MSTORE PUSH1 0x11 PUSH1 0x4 MSTORE PUSH1 0x24 DUP2 REVERT JUMPDEST POP MUL SWAP1 JUMP JUMPDEST PUSH1 0x1 DUP2 DUP2 SHR SWAP1 DUP3 AND DUP1 PUSH3 0x3F9 JUMPI PUSH1 0x7F DUP3 AND SWAP2 POP JUMPDEST PUSH1 0x20 DUP3 LT DUP2 EQ ISZERO PUSH3 0x41B JUMPI PUSH4 0x4E487B71 PUSH1 0xE0 SHL PUSH1 0x0 MSTORE PUSH1 0x22 PUSH1 0x4 MSTORE PUSH1 0x24 PUSH1 0x0 REVERT JUMPDEST POP SWAP2 SWAP1 POP JUMP JUMPDEST PUSH4 0x4E487B71 PUSH1 0xE0 SHL PUSH1 0x0 MSTORE PUSH1 0x41 PUSH1 0x4 MSTORE PUSH1 0x24 PUSH1 0x0 REVERT JUMPDEST PUSH2 0x10AB DUP1 PUSH3 0x447 PUSH1 0x0 CODECOPY PUSH1 0x0 RETURN INVALID PUSH1 0x80 PUSH1 0x40 MSTORE CALLVALUE DUP1 ISZERO PUSH2 0x10 JUMPI PUSH1 0x0 DUP1 REVERT JUMPDEST POP PUSH1 0x4 CALLDATASIZE LT PUSH2 0xCF JUMPI PUSH1 0x0 CALLDATALOAD PUSH1 0xE0 SHR DUP1 PUSH4 0x93E30633 GT PUSH2 0x8C JUMPI DUP1 PUSH4 0xE2FD38E9 GT PUSH2 0x66 JUMPI DUP1 PUSH4 0xE2FD38E9 EQ PUSH2 0x1B2 JUMPI DUP1 PUSH4 0xEC2C9016 EQ PUSH2 0x1BA JUMPI DUP1 PUSH4 0xEC5FFAC2 EQ PUSH2 0x1CF JUMPI DUP1 PUSH4 0xFB6C9537 EQ PUSH2 0x1D8 JUMPI PUSH1 0x0 DUP1 REVERT JUMPDEST DUP1 PUSH4 0x93E30633 EQ PUSH2 0x179 JUMPI DUP1 PUSH4 0xB1283E77 EQ PUSH2 0x18C JUMPI DUP1 PUSH4 0xBC508FF4 EQ PUSH2 0x19F JUMPI PUSH1 0x0 DUP1 REVERT JUMPDEST DUP1 PUSH4 0x6FDDE03 EQ PUSH2 0xD4 JUMPI DUP1 PUSH4 0x200D2ED2 EQ PUSH2 0xF2 JUMPI DUP1 PUSH4 0x20214134 EQ PUSH2 0x10C JUMPI DUP1 PUSH4 0x78E97925 EQ PUSH2 0x137 JUMPI DUP1 PUSH4 0x84DA92A7 EQ PUSH2 0x14E JUMPI DUP1 PUSH4 0x86EC6177 EQ PUSH2 0x171 JUMPI JUMPDEST PUSH1 0x0 DUP1 REVERT JUMPDEST PUSH2 0xDC PUSH2 0x1E0 JUMP JUMPDEST PUSH1 0x40 MLOAD PUSH2 0xE9 SWAP2 SWAP1 PUSH2 0xF2A JUMP JUMPDEST PUSH1 0x40 MLOAD DUP1 SWAP2 SUB SWAP1 RETURN JUMPDEST PUSH1 0x6 SLOAD PUSH2 0xFF SWAP1 PUSH1 0xFF AND DUP2 JUMP JUMPDEST PUSH1 0x40 MLOAD PUSH2 0xE9 SWAP2 SWAP1 PUSH2 0xF02 JUMP JUMPDEST PUSH1 0x1 SLOAD PUSH2 0x11F SWAP1 PUSH1 0x1 PUSH1 0x1 PUSH1 0xA0 SHL SUB AND DUP2 JUMP JUMPDEST PUSH1 0x40 MLOAD PUSH1 0x1 PUSH1 0x1 PUSH1 0xA0 SHL SUB SWAP1 SWAP2 AND DUP2 MSTORE PUSH1 0x20 ADD PUSH2 0xE9 JUMP JUMPDEST PUSH2 0x140 PUSH1 0x2 SLOAD DUP2 JUMP JUMPDEST PUSH1 0x40 MLOAD SWAP1 DUP2 MSTORE PUSH1 0x20 ADD PUSH2 0xE9 JUMP JUMPDEST PUSH2 0x161 PUSH2 0x15C CALLDATASIZE PUSH1 0x4 PUSH2 0xDF3 JUMP JUMPDEST PUSH2 0x26E JUMP JUMPDEST PUSH1 0x40 MLOAD SWAP1 ISZERO ISZERO DUP2 MSTORE PUSH1 0x20 ADD PUSH2 0xE9 JUMP JUMPDEST PUSH2 0x161 PUSH2 0x34B JUMP JUMPDEST PUSH2 0x161 PUSH2 0x187 CALLDATASIZE PUSH1 0x4 PUSH2 0xD94 JUMP JUMPDEST PUSH2 0x5BB JUMP JUMPDEST PUSH2 0x11F PUSH2 0x19A CALLDATASIZE PUSH1 0x4 PUSH2 0xE9D JUMP JUMPDEST PUSH2 0x6C7 JUMP JUMPDEST PUSH2 0x161 PUSH2 0x1AD CALLDATASIZE PUSH1 0x4 PUSH2 0xE9D JUMP JUMPDEST PUSH2 0x6F1 JUMP JUMPDEST PUSH2 0x161 PUSH2 0x846 JUMP JUMPDEST PUSH2 0x1C2 PUSH2 0xA6B JUMP JUMPDEST PUSH1 0x40 MLOAD PUSH2 0xE9 SWAP2 SWAP1 PUSH2 0xEB5 JUMP JUMPDEST PUSH2 0x140 PUSH1 0x3 SLOAD DUP2 JUMP JUMPDEST PUSH2 0x161 PUSH2 0xACD JUMP JUMPDEST PUSH1 0x5 DUP1 SLOAD PUSH2 0x1ED SWAP1 PUSH2 0xFE5 JUMP JUMPDEST DUP1 PUSH1 0x1F ADD PUSH1 0x20 DUP1 SWAP2 DIV MUL PUSH1 0x20 ADD PUSH1 0x40 MLOAD SWAP1 DUP2 ADD PUSH1 0x40 MSTORE DUP1 SWAP3 SWAP2 SWAP1 DUP2 DUP2 MSTORE PUSH1 0x20 ADD DUP3 DUP1 SLOAD PUSH2 0x219 SWAP1 PUSH2 0xFE5 JUMP JUMPDEST DUP1 ISZERO PUSH2 0x266 JUMPI DUP1 PUSH1 0x1F LT PUSH2 0x23B JUMPI PUSH2 0x100 DUP1 DUP4 SLOAD DIV MUL DUP4 MSTORE SWAP2 PUSH1 0x20 ADD SWAP2 PUSH2 0x266 JUMP JUMPDEST DUP3 ADD SWAP2 SWAP1 PUSH1 0x0 MSTORE PUSH1 0x20 PUSH1 0x0 KECCAK256 SWAP1 JUMPDEST DUP2 SLOAD DUP2 MSTORE SWAP1 PUSH1 0x1 ADD SWAP1 PUSH1 0x20 ADD DUP1 DUP4 GT PUSH2 0x249 JUMPI DUP3 SWAP1 SUB PUSH1 0x1F AND DUP3 ADD SWAP2 JUMPDEST POP POP POP POP POP DUP2 JUMP JUMPDEST PUSH1 0x0 PUSH1 0x6 PUSH1 0x1 SWAP1 SLOAD SWAP1 PUSH2 0x100 EXP SWAP1 DIV PUSH1 0x1 PUSH1 0x1 PUSH1 0xA0 SHL SUB AND PUSH1 0x1 PUSH1 0x1 PUSH1 0xA0 SHL SUB AND PUSH4 0x6FDBD3F6 PUSH1 0x40 MLOAD DUP2 PUSH4 0xFFFFFFFF AND PUSH1 0xE0 SHL DUP2 MSTORE PUSH1 0x4 ADD PUSH1 0x20 PUSH1 0x40 MLOAD DUP1 DUP4 SUB DUP2 DUP7 DUP1 EXTCODESIZE ISZERO DUP1 ISZERO PUSH2 0x2BE JUMPI PUSH1 0x0 DUP1 REVERT JUMPDEST POP GAS STATICCALL ISZERO DUP1 ISZERO PUSH2 0x2D2 JUMPI RETURNDATASIZE PUSH1 0x0 DUP1 RETURNDATACOPY RETURNDATASIZE PUSH1 0x0 REVERT JUMPDEST POP POP POP POP PUSH1 0x40 MLOAD RETURNDATASIZE PUSH1 0x1F NOT PUSH1 0x1F DUP3 ADD AND DUP3 ADD DUP1 PUSH1 0x40 MSTORE POP DUP2 ADD SWAP1 PUSH2 0x2F6 SWAP2 SWAP1 PUSH2 0xDB7 JUMP JUMPDEST PUSH1 0x1 PUSH1 0x1 PUSH1 0xA0 SHL SUB AND CALLER PUSH1 0x1 PUSH1 0x1 PUSH1 0xA0 SHL SUB AND EQ PUSH2 0x32F JUMPI PUSH1 0x40 MLOAD PUSH3 0x461BCD PUSH1 0xE5 SHL DUP2 MSTORE PUSH1 0x4 ADD PUSH2 0x326 SWAP1 PUSH2 0xFA2 JUMP JUMPDEST PUSH1 0x40 MLOAD DUP1 SWAP2 SUB SWAP1 REVERT JUMPDEST DUP2 MLOAD PUSH2 0x342 SWAP1 PUSH1 0x5 SWAP1 PUSH1 0x20 DUP6 ADD SWAP1 PUSH2 0xCFB JUMP JUMPDEST POP PUSH1 0x1 SWAP3 SWAP2 POP POP JUMP JUMPDEST PUSH1 0x0 PUSH1 0x6 PUSH1 0x1 SWAP1 SLOAD SWAP1 PUSH2 0x100 EXP SWAP1 DIV PUSH1 0x1 PUSH1 0x1 PUSH1 0xA0 SHL SUB AND PUSH1 0x1 PUSH1 0x1 PUSH1 0xA0 SHL SUB AND PUSH4 0x6FDBD3F6 PUSH1 0x40 MLOAD DUP2 PUSH4 0xFFFFFFFF AND PUSH1 0xE0 SHL DUP2 MSTORE PUSH1 0x4 ADD PUSH1 0x20 PUSH1 0x40 MLOAD DUP1 DUP4 SUB DUP2 DUP7 DUP1 EXTCODESIZE ISZERO DUP1 ISZERO PUSH2 0x39B JUMPI PUSH1 0x0 DUP1 REVERT JUMPDEST POP GAS STATICCALL ISZERO DUP1 ISZERO PUSH2 0x3AF JUMPI RETURNDATASIZE PUSH1 0x0 DUP1 RETURNDATACOPY RETURNDATASIZE PUSH1 0x0 REVERT JUMPDEST POP POP POP POP PUSH1 0x40 MLOAD RETURNDATASIZE PUSH1 0x1F NOT PUSH1 0x1F DUP3 ADD AND DUP3 ADD DUP1 PUSH1 0x40 MSTORE POP DUP2 ADD SWAP1 PUSH2 0x3D3 SWAP2 SWAP1 PUSH2 0xDB7 JUMP JUMPDEST PUSH1 0x1 PUSH1 0x1 PUSH1 0xA0 SHL SUB AND CALLER PUSH1 0x1 PUSH1 0x1 PUSH1 0xA0 SHL SUB AND EQ PUSH2 0x403 JUMPI PUSH1 0x40 MLOAD PUSH3 0x461BCD PUSH1 0xE5 SHL DUP2 MSTORE PUSH1 0x4 ADD PUSH2 0x326 SWAP1 PUSH2 0xFA2 JUMP JUMPDEST PUSH1 0x3 PUSH1 0x6 SLOAD PUSH1 0xFF AND PUSH1 0x3 DUP2 GT ISZERO PUSH2 0x42A JUMPI PUSH4 0x4E487B71 PUSH1 0xE0 SHL PUSH1 0x0 MSTORE PUSH1 0x21 PUSH1 0x4 MSTORE PUSH1 0x24 PUSH1 0x0 REVERT JUMPDEST EQ ISZERO PUSH2 0x448 JUMPI PUSH1 0x40 MLOAD PUSH3 0x461BCD PUSH1 0xE5 SHL DUP2 MSTORE PUSH1 0x4 ADD PUSH2 0x326 SWAP1 PUSH2 0xFC3 JUMP JUMPDEST PUSH1 0x2 PUSH1 0x6 SLOAD PUSH1 0xFF AND PUSH1 0x3 DUP2 GT ISZERO PUSH2 0x46F JUMPI PUSH4 0x4E487B71 PUSH1 0xE0 SHL PUSH1 0x0 MSTORE PUSH1 0x21 PUSH1 0x4 MSTORE PUSH1 0x24 PUSH1 0x0 REVERT JUMPDEST EQ ISZERO PUSH2 0x48D JUMPI PUSH1 0x40 MLOAD PUSH3 0x461BCD PUSH1 0xE5 SHL DUP2 MSTORE PUSH1 0x4 ADD PUSH2 0x326 SWAP1 PUSH2 0xF7D JUMP JUMPDEST PUSH1 0x1 PUSH1 0x0 JUMPDEST PUSH1 0x4 SLOAD DUP2 LT ISZERO PUSH2 0x564 JUMPI PUSH1 0x0 PUSH1 0x4 DUP3 DUP2 SLOAD DUP2 LT PUSH2 0x4BF JUMPI PUSH4 0x4E487B71 PUSH1 0xE0 SHL PUSH1 0x0 MSTORE PUSH1 0x32 PUSH1 0x4 MSTORE PUSH1 0x24 PUSH1 0x0 REVERT JUMPDEST PUSH1 0x0 SWAP2 DUP3 MSTORE PUSH1 0x20 SWAP2 DUP3 SWAP1 KECCAK256 ADD SLOAD PUSH1 0x40 DUP1 MLOAD PUSH4 0x2F6498C3 PUSH1 0xE2 SHL DUP2 MSTORE SWAP1 MLOAD PUSH1 0x1 PUSH1 0x1 PUSH1 0xA0 SHL SUB SWAP1 SWAP3 AND SWAP4 POP DUP4 SWAP3 PUSH4 0xBD92630C SWAP3 PUSH1 0x4 DUP1 DUP5 ADD SWAP4 DUP3 SWAP1 SUB ADD DUP2 DUP7 DUP1 EXTCODESIZE ISZERO DUP1 ISZERO PUSH2 0x50B JUMPI PUSH1 0x0 DUP1 REVERT JUMPDEST POP GAS STATICCALL ISZERO DUP1 ISZERO PUSH2 0x51F JUMPI RETURNDATASIZE PUSH1 0x0 DUP1 RETURNDATACOPY RETURNDATASIZE PUSH1 0x0 REVERT JUMPDEST POP POP POP POP PUSH1 0x40 MLOAD RETURNDATASIZE PUSH1 0x1F NOT PUSH1 0x1F DUP3 ADD AND DUP3 ADD DUP1 PUSH1 0x40 MSTORE POP DUP2 ADD SWAP1 PUSH2 0x543 SWAP2 SWAP1 PUSH2 0xDD3 JUMP JUMPDEST PUSH2 0x551 JUMPI PUSH1 0x0 SWAP3 POP POP PUSH2 0x564 JUMP JUMPDEST POP DUP1 PUSH2 0x55C DUP2 PUSH2 0x1020 JUMP JUMPDEST SWAP2 POP POP PUSH2 0x492 JUMP JUMPDEST POP DUP1 PUSH2 0x5A7 JUMPI PUSH1 0x40 MLOAD PUSH3 0x461BCD PUSH1 0xE5 SHL DUP2 MSTORE PUSH1 0x20 PUSH1 0x4 DUP3 ADD MSTORE PUSH1 0x12 PUSH1 0x24 DUP3 ADD MSTORE PUSH18 0x185B1B081B5ADD081B9D081CD95D1D1B1959 PUSH1 0x72 SHL PUSH1 0x44 DUP3 ADD MSTORE PUSH1 0x64 ADD PUSH2 0x326 JUMP JUMPDEST POP POP PUSH1 0x6 DUP1 SLOAD PUSH1 0xFF NOT AND PUSH1 0x2 OR SWAP1 SSTORE PUSH1 0x1 SWAP1 JUMP JUMPDEST PUSH1 0x0 PUSH1 0x6 PUSH1 0x1 SWAP1 SLOAD SWAP1 PUSH2 0x100 EXP SWAP1 DIV PUSH1 0x1 PUSH1 0x1 PUSH1 0xA0 SHL SUB AND PUSH1 0x1 PUSH1 0x1 PUSH1 0xA0 SHL SUB AND PUSH4 0x6AE7095 PUSH1 0x40 MLOAD DUP2 PUSH4 0xFFFFFFFF AND PUSH1 0xE0 SHL DUP2 MSTORE PUSH1 0x4 ADD PUSH1 0x20 PUSH1 0x40 MLOAD DUP1 DUP4 SUB DUP2 DUP7 DUP1 EXTCODESIZE ISZERO DUP1 ISZERO PUSH2 0x60B JUMPI PUSH1 0x0 DUP1 REVERT JUMPDEST POP GAS STATICCALL ISZERO DUP1 ISZERO PUSH2 0x61F JUMPI RETURNDATASIZE PUSH1 0x0 DUP1 RETURNDATACOPY RETURNDATASIZE PUSH1 0x0 REVERT JUMPDEST POP POP POP POP PUSH1 0x40 MLOAD RETURNDATASIZE PUSH1 0x1F NOT PUSH1 0x1F DUP3 ADD AND DUP3 ADD DUP1 PUSH1 0x40 MSTORE POP DUP2 ADD SWAP1 PUSH2 0x643 SWAP2 SWAP1 PUSH2 0xDB7 JUMP JUMPDEST PUSH1 0x1 PUSH1 0x1 PUSH1 0xA0 SHL SUB AND CALLER PUSH1 0x1 PUSH1 0x1 PUSH1 0xA0 SHL SUB AND EQ PUSH2 0x673 JUMPI PUSH1 0x40 MLOAD PUSH3 0x461BCD PUSH1 0xE5 SHL DUP2 MSTORE PUSH1 0x4 ADD PUSH2 0x326 SWAP1 PUSH2 0xFA2 JUMP JUMPDEST POP PUSH1 0x4 DUP1 SLOAD PUSH1 0x1 DUP2 DUP2 ADD DUP4 SSTORE PUSH1 0x0 SWAP3 SWAP1 SWAP3 MSTORE PUSH32 0x8A35ACFBC15FF81A39AE7D344FD709F28E8600B4AA8C65C6B64BFE7FE36BD19B ADD DUP1 SLOAD PUSH1 0x1 PUSH1 0x1 PUSH1 0xA0 SHL SUB DUP5 AND PUSH1 0x1 PUSH1 0x1 PUSH1 0xA0 SHL SUB NOT SWAP1 SWAP2 AND OR SWAP1 SSTORE SWAP2 SWAP1 POP JUMP JUMPDEST PUSH1 0x4 DUP2 DUP2 SLOAD DUP2 LT PUSH2 0x6D7 JUMPI PUSH1 0x0 DUP1 REVERT JUMPDEST PUSH1 0x0 SWAP2 DUP3 MSTORE PUSH1 0x20 SWAP1 SWAP2 KECCAK256 ADD SLOAD PUSH1 0x1 PUSH1 0x1 PUSH1 0xA0 SHL SUB AND SWAP1 POP DUP2 JUMP JUMPDEST PUSH1 0x0 PUSH1 0x6 PUSH1 0x1 SWAP1 SLOAD SWAP1 PUSH2 0x100 EXP SWAP1 DIV PUSH1 0x1 PUSH1 0x1 PUSH1 0xA0 SHL SUB AND PUSH1 0x1 PUSH1 0x1 PUSH1 0xA0 SHL SUB AND PUSH4 0x6FDBD3F6 PUSH1 0x40 MLOAD DUP2 PUSH4 0xFFFFFFFF AND PUSH1 0xE0 SHL DUP2 MSTORE PUSH1 0x4 ADD PUSH1 0x20 PUSH1 0x40 MLOAD DUP1 DUP4 SUB DUP2 DUP7 DUP1 EXTCODESIZE ISZERO DUP1 ISZERO PUSH2 0x741 JUMPI PUSH1 0x0 DUP1 REVERT JUMPDEST POP GAS STATICCALL ISZERO DUP1 ISZERO PUSH2 0x755 JUMPI RETURNDATASIZE PUSH1 0x0 DUP1 RETURNDATACOPY RETURNDATASIZE PUSH1 0x0 REVERT JUMPDEST POP POP POP POP PUSH1 0x40 MLOAD RETURNDATASIZE PUSH1 0x1F NOT PUSH1 0x1F DUP3 ADD AND DUP3 ADD DUP1 PUSH1 0x40 MSTORE POP DUP2 ADD SWAP1 PUSH2 0x779 SWAP2 SWAP1 PUSH2 0xDB7 JUMP JUMPDEST PUSH1 0x1 PUSH1 0x1 PUSH1 0xA0 SHL SUB AND CALLER PUSH1 0x1 PUSH1 0x1 PUSH1 0xA0 SHL SUB AND EQ PUSH2 0x7A9 JUMPI PUSH1 0x40 MLOAD PUSH3 0x461BCD PUSH1 0xE5 SHL DUP2 MSTORE PUSH1 0x4 ADD PUSH2 0x326 SWAP1 PUSH2 0xFA2 JUMP JUMPDEST PUSH1 0x3 PUSH1 0x6 SLOAD PUSH1 0xFF AND PUSH1 0x3 DUP2 GT ISZERO PUSH2 0x7D0 JUMPI PUSH4 0x4E487B71 PUSH1 0xE0 SHL PUSH1 0x0 MSTORE PUSH1 0x21 PUSH1 0x4 MSTORE PUSH1 0x24 PUSH1 0x0 REVERT JUMPDEST EQ ISZERO PUSH2 0x7EE JUMPI PUSH1 0x40 MLOAD PUSH3 0x461BCD PUSH1 0xE5 SHL DUP2 MSTORE PUSH1 0x4 ADD PUSH2 0x326 SWAP1 PUSH2 0xFC3 JUMP JUMPDEST PUSH1 0x2 PUSH1 0x6 SLOAD PUSH1 0xFF AND PUSH1 0x3 DUP2 GT ISZERO PUSH2 0x815 JUMPI PUSH4 0x4E487B71 PUSH1 0xE0 SHL PUSH1 0x0 MSTORE PUSH1 0x21 PUSH1 0x4 MSTORE PUSH1 0x24 PUSH1 0x0 REVERT JUMPDEST EQ ISZERO PUSH2 0x833 JUMPI PUSH1 0x40 MLOAD PUSH3 0x461BCD PUSH1 0xE5 SHL DUP2 MSTORE PUSH1 0x4 ADD PUSH2 0x326 SWAP1 PUSH2 0xF7D JUMP JUMPDEST POP PUSH1 0x2 SSTORE PUSH1 0x6 DUP1 SLOAD PUSH1 0xFF NOT AND SWAP1 SSTORE PUSH1 0x1 SWAP1 JUMP JUMPDEST PUSH1 0x0 PUSH1 0x6 PUSH1 0x1 SWAP1 SLOAD SWAP1 PUSH2 0x100 EXP SWAP1 DIV PUSH1 0x1 PUSH1 0x1 PUSH1 0xA0 SHL SUB AND PUSH1 0x1 PUSH1 0x1 PUSH1 0xA0 SHL SUB AND PUSH4 0x6FDBD3F6 PUSH1 0x40 MLOAD DUP2 PUSH4 0xFFFFFFFF AND PUSH1 0xE0 SHL DUP2 MSTORE PUSH1 0x4 ADD PUSH1 0x20 PUSH1 0x40 MLOAD DUP1 DUP4 SUB DUP2 DUP7 DUP1 EXTCODESIZE ISZERO DUP1 ISZERO PUSH2 0x896 JUMPI PUSH1 0x0 DUP1 REVERT JUMPDEST POP GAS STATICCALL ISZERO DUP1 ISZERO PUSH2 0x8AA JUMPI RETURNDATASIZE PUSH1 0x0 DUP1 RETURNDATACOPY RETURNDATASIZE PUSH1 0x0 REVERT JUMPDEST POP POP POP POP PUSH1 0x40 MLOAD RETURNDATASIZE PUSH1 0x1F NOT PUSH1 0x1F DUP3 ADD AND DUP3 ADD DUP1 PUSH1 0x40 MSTORE POP DUP2 ADD SWAP1 PUSH2 0x8CE SWAP2 SWAP1 PUSH2 0xDB7 JUMP JUMPDEST PUSH1 0x1 PUSH1 0x1 PUSH1 0xA0 SHL SUB AND CALLER PUSH1 0x1 PUSH1 0x1 PUSH1 0xA0 SHL SUB AND EQ PUSH2 0x8FE JUMPI PUSH1 0x40 MLOAD PUSH3 0x461BCD PUSH1 0xE5 SHL DUP2 MSTORE PUSH1 0x4 ADD PUSH2 0x326 SWAP1 PUSH2 0xFA2 JUMP JUMPDEST PUSH1 0x3 PUSH1 0x6 SLOAD PUSH1 0xFF AND PUSH1 0x3 DUP2 GT ISZERO PUSH2 0x925 JUMPI PUSH4 0x4E487B71 PUSH1 0xE0 SHL PUSH1 0x0 MSTORE PUSH1 0x21 PUSH1 0x4 MSTORE PUSH1 0x24 PUSH1 0x0 REVERT JUMPDEST EQ ISZERO PUSH2 0x943 JUMPI PUSH1 0x40 MLOAD PUSH3 0x461BCD PUSH1 0xE5 SHL DUP2 MSTORE PUSH1 0x4 ADD PUSH2 0x326 SWAP1 PUSH2 0xFC3 JUMP JUMPDEST PUSH1 0x2 PUSH1 0x6 SLOAD PUSH1 0xFF AND PUSH1 0x3 DUP2 GT ISZERO PUSH2 0x96A JUMPI PUSH4 0x4E487B71 PUSH1 0xE0 SHL PUSH1 0x0 MSTORE PUSH1 0x21 PUSH1 0x4 MSTORE PUSH1 0x24 PUSH1 0x0 REVERT JUMPDEST EQ ISZERO PUSH2 0x988 JUMPI PUSH1 0x40 MLOAD PUSH3 0x461BCD PUSH1 0xE5 SHL DUP2 MSTORE PUSH1 0x4 ADD PUSH2 0x326 SWAP1 PUSH2 0xF7D JUMP JUMPDEST PUSH1 0x1 PUSH1 0x6 SLOAD PUSH1 0xFF AND PUSH1 0x3 DUP2 GT ISZERO PUSH2 0x9AF JUMPI PUSH4 0x4E487B71 PUSH1 0xE0 SHL PUSH1 0x0 MSTORE PUSH1 0x21 PUSH1 0x4 MSTORE PUSH1 0x24 PUSH1 0x0 REVERT JUMPDEST EQ ISZERO PUSH2 0x9EC JUMPI PUSH1 0x40 MLOAD PUSH3 0x461BCD PUSH1 0xE5 SHL DUP2 MSTORE PUSH1 0x20 PUSH1 0x4 DUP3 ADD MSTORE PUSH1 0xC PUSH1 0x24 DUP3 ADD MSTORE PUSH12 0x616C7265616479206C697665 PUSH1 0xA0 SHL PUSH1 0x44 DUP3 ADD MSTORE PUSH1 0x64 ADD PUSH2 0x326 JUMP JUMPDEST PUSH1 0x0 PUSH1 0x6 SLOAD PUSH1 0xFF AND PUSH1 0x3 DUP2 GT ISZERO PUSH2 0xA13 JUMPI PUSH4 0x4E487B71 PUSH1 0xE0 SHL PUSH1 0x0 MSTORE PUSH1 0x21 PUSH1 0x4 MSTORE PUSH1 0x24 PUSH1 0x0 REVERT JUMPDEST EQ ISZERO PUSH2 0xA2B JUMPI PUSH1 0x6 DUP1 SLOAD PUSH1 0xFF NOT AND PUSH1 0x1 OR SWAP1 SSTORE PUSH2 0xA65 JUMP JUMPDEST PUSH1 0x40 MLOAD PUSH3 0x461BCD PUSH1 0xE5 SHL DUP2 MSTORE PUSH1 0x20 PUSH1 0x4 DUP3 ADD MSTORE PUSH1 0xF PUSH1 0x24 DUP3 ADD MSTORE PUSH15 0x6572723A2062616420737461747573 PUSH1 0x88 SHL PUSH1 0x44 DUP3 ADD MSTORE PUSH1 0x64 ADD PUSH2 0x326 JUMP JUMPDEST POP PUSH1 0x1 SWAP1 JUMP JUMPDEST PUSH1 0x60 PUSH1 0x4 DUP1 SLOAD DUP1 PUSH1 0x20 MUL PUSH1 0x20 ADD PUSH1 0x40 MLOAD SWAP1 DUP2 ADD PUSH1 0x40 MSTORE DUP1 SWAP3 SWAP2 SWAP1 DUP2 DUP2 MSTORE PUSH1 0x20 ADD DUP3 DUP1 SLOAD DUP1 ISZERO PUSH2 0xAC3 JUMPI PUSH1 0x20 MUL DUP3 ADD SWAP2 SWAP1 PUSH1 0x0 MSTORE PUSH1 0x20 PUSH1 0x0 KECCAK256 SWAP1 JUMPDEST DUP2 SLOAD PUSH1 0x1 PUSH1 0x1 PUSH1 0xA0 SHL SUB AND DUP2 MSTORE PUSH1 0x1 SWAP1 SWAP2 ADD SWAP1 PUSH1 0x20 ADD DUP1 DUP4 GT PUSH2 0xAA5 JUMPI JUMPDEST POP POP POP POP POP SWAP1 POP SWAP1 JUMP JUMPDEST PUSH1 0x0 PUSH1 0x6 PUSH1 0x1 SWAP1 SLOAD SWAP1 PUSH2 0x100 EXP SWAP1 DIV PUSH1 0x1 PUSH1 0x1 PUSH1 0xA0 SHL SUB AND PUSH1 0x1 PUSH1 0x1 PUSH1 0xA0 SHL SUB AND PUSH4 0x6FDBD3F6 PUSH1 0x40 MLOAD DUP2 PUSH4 0xFFFFFFFF AND PUSH1 0xE0 SHL DUP2 MSTORE PUSH1 0x4 ADD PUSH1 0x20 PUSH1 0x40 MLOAD DUP1 DUP4 SUB DUP2 DUP7 DUP1 EXTCODESIZE ISZERO DUP1 ISZERO PUSH2 0xB1D JUMPI PUSH1 0x0 DUP1 REVERT JUMPDEST POP GAS STATICCALL ISZERO DUP1 ISZERO PUSH2 0xB31 JUMPI RETURNDATASIZE PUSH1 0x0 DUP1 RETURNDATACOPY RETURNDATASIZE PUSH1 0x0 REVERT JUMPDEST POP POP POP POP PUSH1 0x40 MLOAD RETURNDATASIZE PUSH1 0x1F NOT PUSH1 0x1F DUP3 ADD AND DUP3 ADD DUP1 PUSH1 0x40 MSTORE POP DUP2 ADD SWAP1 PUSH2 0xB55 SWAP2 SWAP1 PUSH2 0xDB7 JUMP JUMPDEST PUSH1 0x1 PUSH1 0x1 PUSH1 0xA0 SHL SUB AND CALLER PUSH1 0x1 PUSH1 0x1 PUSH1 0xA0 SHL SUB AND EQ PUSH2 0xB85 JUMPI PUSH1 0x40 MLOAD PUSH3 0x461BCD PUSH1 0xE5 SHL DUP2 MSTORE PUSH1 0x4 ADD PUSH2 0x326 SWAP1 PUSH2 0xFA2 JUMP JUMPDEST PUSH1 0x3 PUSH1 0x6 SLOAD PUSH1 0xFF AND PUSH1 0x3 DUP2 GT ISZERO PUSH2 0xBAC JUMPI PUSH4 0x4E487B71 PUSH1 0xE0 SHL PUSH1 0x0 MSTORE PUSH1 0x21 PUSH1 0x4 MSTORE PUSH1 0x24 PUSH1 0x0 REVERT JUMPDEST EQ ISZERO PUSH2 0xBCA JUMPI PUSH1 0x40 MLOAD PUSH3 0x461BCD PUSH1 0xE5 SHL DUP2 MSTORE PUSH1 0x4 ADD PUSH2 0x326 SWAP1 PUSH2 0xFC3 JUMP JUMPDEST PUSH1 0x2 PUSH1 0x6 SLOAD PUSH1 0xFF AND PUSH1 0x3 DUP2 GT ISZERO PUSH2 0xBF1 JUMPI PUSH4 0x4E487B71 PUSH1 0xE0 SHL PUSH1 0x0 MSTORE PUSH1 0x21 PUSH1 0x4 MSTORE PUSH1 0x24 PUSH1 0x0 REVERT JUMPDEST EQ ISZERO PUSH2 0xC0F JUMPI PUSH1 0x40 MLOAD PUSH3 0x461BCD PUSH1 0xE5 SHL DUP2 MSTORE PUSH1 0x4 ADD PUSH2 0x326 SWAP1 PUSH2 0xF7D JUMP JUMPDEST PUSH1 0x0 JUMPDEST PUSH1 0x4 SLOAD DUP2 LT ISZERO PUSH2 0xCE7 JUMPI PUSH1 0x0 PUSH1 0x4 DUP3 DUP2 SLOAD DUP2 LT PUSH2 0xC3F JUMPI PUSH4 0x4E487B71 PUSH1 0xE0 SHL PUSH1 0x0 MSTORE PUSH1 0x32 PUSH1 0x4 MSTORE PUSH1 0x24 PUSH1 0x0 REVERT JUMPDEST SWAP1 PUSH1 0x0 MSTORE PUSH1 0x20 PUSH1 0x0 KECCAK256 ADD PUSH1 0x0 SWAP1 SLOAD SWAP1 PUSH2 0x100 EXP SWAP1 DIV PUSH1 0x1 PUSH1 0x1 PUSH1 0xA0 SHL SUB AND SWAP1 POP DUP1 PUSH1 0x1 PUSH1 0x1 PUSH1 0xA0 SHL SUB AND PUSH4 0x6BFEFD6B PUSH1 0x40 MLOAD DUP2 PUSH4 0xFFFFFFFF AND PUSH1 0xE0 SHL DUP2 MSTORE PUSH1 0x4 ADD PUSH1 0x20 PUSH1 0x40 MLOAD DUP1 DUP4 SUB DUP2 PUSH1 0x0 DUP8 DUP1 EXTCODESIZE ISZERO DUP1 ISZERO PUSH2 0xC9A JUMPI PUSH1 0x0 DUP1 REVERT JUMPDEST POP GAS CALL ISZERO DUP1 ISZERO PUSH2 0xCAE JUMPI RETURNDATASIZE PUSH1 0x0 DUP1 RETURNDATACOPY RETURNDATASIZE PUSH1 0x0 REVERT JUMPDEST POP POP POP POP PUSH1 0x40 MLOAD RETURNDATASIZE PUSH1 0x1F NOT PUSH1 0x1F DUP3 ADD AND DUP3 ADD DUP1 PUSH1 0x40 MSTORE POP DUP2 ADD SWAP1 PUSH2 0xCD2 SWAP2 SWAP1 PUSH2 0xDD3 JUMP JUMPDEST POP POP DUP1 DUP1 PUSH2 0xCDF SWAP1 PUSH2 0x1020 JUMP JUMPDEST SWAP2 POP POP PUSH2 0xC12 JUMP JUMPDEST POP POP PUSH1 0x6 DUP1 SLOAD PUSH1 0xFF NOT AND PUSH1 0x3 OR SWAP1 SSTORE PUSH1 0x1 SWAP1 JUMP JUMPDEST DUP3 DUP1 SLOAD PUSH2 0xD07 SWAP1 PUSH2 0xFE5 JUMP JUMPDEST SWAP1 PUSH1 0x0 MSTORE PUSH1 0x20 PUSH1 0x0 KECCAK256 SWAP1 PUSH1 0x1F ADD PUSH1 0x20 SWAP1 DIV DUP2 ADD SWAP3 DUP3 PUSH2 0xD29 JUMPI PUSH1 0x0 DUP6 SSTORE PUSH2 0xD6F JUMP JUMPDEST DUP3 PUSH1 0x1F LT PUSH2 0xD42 JUMPI DUP1 MLOAD PUSH1 0xFF NOT AND DUP4 DUP1 ADD OR DUP6 SSTORE PUSH2 0xD6F JUMP JUMPDEST DUP3 DUP1 ADD PUSH1 0x1 ADD DUP6 SSTORE DUP3 ISZERO PUSH2 0xD6F JUMPI SWAP2 DUP3 ADD JUMPDEST DUP3 DUP2 GT ISZERO PUSH2 0xD6F JUMPI DUP3 MLOAD DUP3 SSTORE SWAP2 PUSH1 0x20 ADD SWAP2 SWAP1 PUSH1 0x1 ADD SWAP1 PUSH2 0xD54 JUMP JUMPDEST POP PUSH2 0xD7B SWAP3 SWAP2 POP PUSH2 0xD7F JUMP JUMPDEST POP SWAP1 JUMP JUMPDEST JUMPDEST DUP1 DUP3 GT ISZERO PUSH2 0xD7B JUMPI PUSH1 0x0 DUP2 SSTORE PUSH1 0x1 ADD PUSH2 0xD80 JUMP JUMPDEST PUSH1 0x0 PUSH1 0x20 DUP3 DUP5 SUB SLT ISZERO PUSH2 0xDA5 JUMPI DUP1 DUP2 REVERT JUMPDEST DUP2 CALLDATALOAD PUSH2 0xDB0 DUP2 PUSH2 0x105D JUMP JUMPDEST SWAP4 SWAP3 POP POP POP JUMP JUMPDEST PUSH1 0x0 PUSH1 0x20 DUP3 DUP5 SUB SLT ISZERO PUSH2 0xDC8 JUMPI DUP1 DUP2 REVERT JUMPDEST DUP2 MLOAD PUSH2 0xDB0 DUP2 PUSH2 0x105D JUMP JUMPDEST PUSH1 0x0 PUSH1 0x20 DUP3 DUP5 SUB SLT ISZERO PUSH2 0xDE4 JUMPI DUP1 DUP2 REVERT JUMPDEST DUP2 MLOAD DUP1 ISZERO ISZERO DUP2 EQ PUSH2 0xDB0 JUMPI DUP2 DUP3 REVERT JUMPDEST PUSH1 0x0 PUSH1 0x20 DUP3 DUP5 SUB SLT ISZERO PUSH2 0xE04 JUMPI DUP1 DUP2 REVERT JUMPDEST DUP2 CALLDATALOAD PUSH8 0xFFFFFFFFFFFFFFFF DUP1 DUP3 GT ISZERO PUSH2 0xE1B JUMPI DUP3 DUP4 REVERT JUMPDEST DUP2 DUP5 ADD SWAP2 POP DUP5 PUSH1 0x1F DUP4 ADD SLT PUSH2 0xE2E JUMPI DUP3 DUP4 REVERT JUMPDEST DUP2 CALLDATALOAD DUP2 DUP2 GT ISZERO PUSH2 0xE40 JUMPI PUSH2 0xE40 PUSH2 0x1047 JUMP JUMPDEST PUSH1 0x40 MLOAD PUSH1 0x1F DUP3 ADD PUSH1 0x1F NOT SWAP1 DUP2 AND PUSH1 0x3F ADD AND DUP2 ADD SWAP1 DUP4 DUP3 GT DUP2 DUP4 LT OR ISZERO PUSH2 0xE68 JUMPI PUSH2 0xE68 PUSH2 0x1047 JUMP JUMPDEST DUP2 PUSH1 0x40 MSTORE DUP3 DUP2 MSTORE DUP8 PUSH1 0x20 DUP5 DUP8 ADD ADD GT ISZERO PUSH2 0xE80 JUMPI DUP6 DUP7 REVERT JUMPDEST DUP3 PUSH1 0x20 DUP7 ADD PUSH1 0x20 DUP4 ADD CALLDATACOPY SWAP2 DUP3 ADD PUSH1 0x20 ADD SWAP5 SWAP1 SWAP5 MSTORE SWAP6 SWAP5 POP POP POP POP POP JUMP JUMPDEST PUSH1 0x0 PUSH1 0x20 DUP3 DUP5 SUB SLT ISZERO PUSH2 0xEAE JUMPI DUP1 DUP2 REVERT JUMPDEST POP CALLDATALOAD SWAP2 SWAP1 POP JUMP JUMPDEST PUSH1 0x20 DUP1 DUP3 MSTORE DUP3 MLOAD DUP3 DUP3 ADD DUP2 SWAP1 MSTORE PUSH1 0x0 SWAP2 SWAP1 DUP5 DUP3 ADD SWAP1 PUSH1 0x40 DUP6 ADD SWAP1 DUP5 JUMPDEST DUP2 DUP2 LT ISZERO PUSH2 0xEF6 JUMPI DUP4 MLOAD PUSH1 0x1 PUSH1 0x1 PUSH1 0xA0 SHL SUB AND DUP4 MSTORE SWAP3 DUP5 ADD SWAP3 SWAP2 DUP5 ADD SWAP2 PUSH1 0x1 ADD PUSH2 0xED1 JUMP JUMPDEST POP SWAP1 SWAP7 SWAP6 POP POP POP POP POP POP JUMP JUMPDEST PUSH1 0x20 DUP2 ADD PUSH1 0x4 DUP4 LT PUSH2 0xF24 JUMPI PUSH4 0x4E487B71 PUSH1 0xE0 SHL PUSH1 0x0 MSTORE PUSH1 0x21 PUSH1 0x4 MSTORE PUSH1 0x24 PUSH1 0x0 REVERT JUMPDEST SWAP2 SWAP1 MSTORE SWAP1 JUMP JUMPDEST PUSH1 0x0 PUSH1 0x20 DUP1 DUP4 MSTORE DUP4 MLOAD DUP1 DUP3 DUP6 ADD MSTORE DUP3 JUMPDEST DUP2 DUP2 LT ISZERO PUSH2 0xF56 JUMPI DUP6 DUP2 ADD DUP4 ADD MLOAD DUP6 DUP3 ADD PUSH1 0x40 ADD MSTORE DUP3 ADD PUSH2 0xF3A JUMP JUMPDEST DUP2 DUP2 GT ISZERO PUSH2 0xF67 JUMPI DUP4 PUSH1 0x40 DUP4 DUP8 ADD ADD MSTORE JUMPDEST POP PUSH1 0x1F ADD PUSH1 0x1F NOT AND SWAP3 SWAP1 SWAP3 ADD PUSH1 0x40 ADD SWAP4 SWAP3 POP POP POP JUMP JUMPDEST PUSH1 0x20 DUP1 DUP3 MSTORE PUSH1 0xB SWAP1 DUP3 ADD MSTORE PUSH11 0x195B99195908195D995B9D PUSH1 0xAA SHL PUSH1 0x40 DUP3 ADD MSTORE PUSH1 0x60 ADD SWAP1 JUMP JUMPDEST PUSH1 0x20 DUP1 DUP3 MSTORE PUSH1 0x7 SWAP1 DUP3 ADD MSTORE PUSH7 0x6F776E6572206F PUSH1 0xC8 SHL PUSH1 0x40 DUP3 ADD MSTORE PUSH1 0x60 ADD SWAP1 JUMP JUMPDEST PUSH1 0x20 DUP1 DUP3 MSTORE PUSH1 0x8 SWAP1 DUP3 ADD MSTORE PUSH8 0x1E1908195D995B9D PUSH1 0xC2 SHL PUSH1 0x40 DUP3 ADD MSTORE PUSH1 0x60 ADD SWAP1 JUMP JUMPDEST PUSH1 0x1 DUP2 DUP2 SHR SWAP1 DUP3 AND DUP1 PUSH2 0xFF9 JUMPI PUSH1 0x7F DUP3 AND SWAP2 POP JUMPDEST PUSH1 0x20 DUP3 LT DUP2 EQ ISZERO PUSH2 0x101A JUMPI PUSH4 0x4E487B71 PUSH1 0xE0 SHL PUSH1 0x0 MSTORE PUSH1 0x22 PUSH1 0x4 MSTORE PUSH1 0x24 PUSH1 0x0 REVERT JUMPDEST POP SWAP2 SWAP1 POP JUMP JUMPDEST PUSH1 0x0 PUSH1 0x0 NOT DUP3 EQ ISZERO PUSH2 0x1040 JUMPI PUSH4 0x4E487B71 PUSH1 0xE0 SHL DUP2 MSTORE PUSH1 0x11 PUSH1 0x4 MSTORE PUSH1 0x24 DUP2 REVERT JUMPDEST POP PUSH1 0x1 ADD SWAP1 JUMP JUMPDEST PUSH4 0x4E487B71 PUSH1 0xE0 SHL PUSH1 0x0 MSTORE PUSH1 0x41 PUSH1 0x4 MSTORE PUSH1 0x24 PUSH1 0x0 REVERT JUMPDEST PUSH1 0x1 PUSH1 0x1 PUSH1 0xA0 SHL SUB DUP2 AND DUP2 EQ PUSH2 0x1072 JUMPI PUSH1 0x0 DUP1 REVERT JUMPDEST POP JUMP INVALID LOG2 PUSH5 0x6970667358 0x22 SLT KECCAK256 DIFFICULTY EXTCODECOPY PUSH20 0x73FD0403F1E0123F286F73EB7A82624011E44338 0xCA ORIGIN GT MSTORE8 EXTCODESIZE JUMPDEST 0xD3 0xC9 0x5F PUSH5 0x736F6C6343 STOP ADDMOD DIV STOP CALLER "
				},
				"gasEstimates": {
					"creation": {
						"codeDepositCost": "853400",
						"executionCost": "infinite",
						"totalCost": "infinite"
					},
					"external": {
						"addMarket(address)": "infinite",
						"cancelEvent()": "infinite",
						"endEvent()": "infinite",
						"eventOwner()": "1085",
						"getMarkets()": "infinite",
						"markets(uint256)": "2062",
						"minimumStake()": "1061",
						"name()": "infinite",
						"postponeEvent(uint256)": "infinite",
						"startEvent()": "infinite",
						"startTime()": "1062",
						"status()": "1074",
						"updateName(string)": "infinite"
					}
				},
				"methodIdentifiers": {
					"addMarket(address)": "93e30633",
					"cancelEvent()": "fb6c9537",
					"endEvent()": "86ec6177",
					"eventOwner()": "20214134",
					"getMarkets()": "ec2c9016",
					"markets(uint256)": "b1283e77",
					"minimumStake()": "ec5ffac2",
					"name()": "06fdde03",
					"postponeEvent(uint256)": "bc508ff4",
					"startEvent()": "e2fd38e9",
					"startTime()": "78e97925",
					"status()": "200d2ed2",
					"updateName(string)": "84da92a7"
				}
			},
			"storageLayout": {
				"storage": [
					{
						"astId": 8,
						"contract": "contracts/Event.sol:Event",
						"label": "web3betsAddress",
						"offset": 0,
						"slot": "0",
						"type": "t_address"
					},
					{
						"astId": 11,
						"contract": "contracts/Event.sol:Event",
						"label": "eventOwner",
						"offset": 0,
						"slot": "1",
						"type": "t_address"
					},
					{
						"astId": 14,
						"contract": "contracts/Event.sol:Event",
						"label": "startTime",
						"offset": 0,
						"slot": "2",
						"type": "t_uint256"
					},
					{
						"astId": 17,
						"contract": "contracts/Event.sol:Event",
						"label": "minimumStake",
						"offset": 0,
						"slot": "3",
						"type": "t_uint256"
					},
					{
						"astId": 25,
						"contract": "contracts/Event.sol:Event",
						"label": "markets",
						"offset": 0,
						"slot": "4",
						"type": "t_array(t_address)dyn_storage"
					},
					{
						"astId": 28,
						"contract": "contracts/Event.sol:Event",
						"label": "name",
						"offset": 0,
						"slot": "5",
						"type": "t_string_storage"
					},
					{
						"astId": 32,
						"contract": "contracts/Event.sol:Event",
						"label": "status",
						"offset": 0,
						"slot": "6",
						"type": "t_enum(EventStatus)705"
					},
					{
						"astId": 38,
						"contract": "contracts/Event.sol:Event",
						"label": "web3bets",
						"offset": 1,
						"slot": "6",
						"type": "t_contract(IWeb3BetsFO)1008"
					}
				],
				"types": {
					"t_address": {
						"encoding": "inplace",
						"label": "address",
						"numberOfBytes": "20"
					},
					"t_array(t_address)dyn_storage": {
						"base": "t_address",
						"encoding": "dynamic_array",
						"label": "address[]",
						"numberOfBytes": "32"
					},
					"t_contract(IWeb3BetsFO)1008": {
						"encoding": "inplace",
						"label": "contract IWeb3BetsFO",
						"numberOfBytes": "20"
					},
					"t_enum(EventStatus)705": {
						"encoding": "inplace",
						"label": "enum IEvent.EventStatus",
						"numberOfBytes": "1"
					},
					"t_string_storage": {
						"encoding": "bytes",
						"label": "string",
						"numberOfBytes": "32"
					},
					"t_uint256": {
						"encoding": "inplace",
						"label": "uint256",
						"numberOfBytes": "32"
					}
				}
			},
			"userdoc": {
				"kind": "user",
				"methods": {},
				"version": 1
			}
		}
	}
}