{
	"contracts/BetPair.sol": {
		"BetPair": {
			"abi": [
				{
					"inputs": [
						{
							"internalType": "address",
							"name": "market_",
							"type": "address"
						},
						{
							"internalType": "address",
							"name": "sideABet_",
							"type": "address"
						},
						{
							"internalType": "address",
							"name": "sideBBet_",
							"type": "address"
						},
						{
							"internalType": "uint256",
							"name": "amountA_",
							"type": "uint256"
						},
						{
							"internalType": "uint256",
							"name": "amountB_",
							"type": "uint256"
						}
					],
					"stateMutability": "nonpayable",
					"type": "constructor"
				},
				{
					"inputs": [],
					"name": "amountA",
					"outputs": [
						{
							"internalType": "uint256",
							"name": "",
							"type": "uint256"
						}
					],
					"stateMutability": "view",
					"type": "function"
				},
				{
					"inputs": [],
					"name": "amountB",
					"outputs": [
						{
							"internalType": "uint256",
							"name": "",
							"type": "uint256"
						}
					],
					"stateMutability": "view",
					"type": "function"
				},
				{
					"inputs": [],
					"name": "market",
					"outputs": [
						{
							"internalType": "address",
							"name": "",
							"type": "address"
						}
					],
					"stateMutability": "view",
					"type": "function"
				},
				{
					"inputs": [],
					"name": "sideABet",
					"outputs": [
						{
							"internalType": "address",
							"name": "",
							"type": "address"
						}
					],
					"stateMutability": "view",
					"type": "function"
				},
				{
					"inputs": [],
					"name": "sideBBet",
					"outputs": [
						{
							"internalType": "address",
							"name": "",
							"type": "address"
						}
					],
					"stateMutability": "view",
					"type": "function"
				}
			],
			"devdoc": {
				"kind": "dev",
				"methods": {},
				"version": 1
			},
			"evm": {
				"assembly": "    /* \"contracts/BetPair.sol\":163:872  contract BetPair is IBetPair {... */\n  mstore(0x40, 0x80)\n    /* \"contracts/BetPair.sol\":462:469  w3bAddr */\n  sload(0x00)\n    /* \"contracts/BetPair.sol\":419:470  IWeb3BetsFO private web3bets = IWeb3BetsFO(w3bAddr) */\n  0x06\n  dup1\n  sload\n  not(sub(shl(0xa0, 0x01), 0x01))\n  and\n  sub(shl(0xa0, 0x01), 0x01)\n    /* \"contracts/BetPair.sol\":462:469  w3bAddr */\n  swap1\n  swap3\n  and\n    /* \"contracts/BetPair.sol\":419:470  IWeb3BetsFO private web3bets = IWeb3BetsFO(w3bAddr) */\n  swap2\n  swap1\n  swap2\n  or\n  swap1\n  sstore\n    /* \"contracts/BetPair.sol\":477:865  constructor (... */\n  callvalue\n  dup1\n  iszero\n  tag_1\n  jumpi\n  0x00\n  dup1\n  revert\ntag_1:\n  pop\n  mload(0x40)\n  sub(codesize, bytecodeSize)\n  dup1\n  bytecodeSize\n  dup4\n  codecopy\n  dup2\n  add\n  0x40\n  dup2\n  swap1\n  mstore\n  tag_2\n  swap2\n  tag_3\n  jump\t// in\ntag_2:\n    /* \"contracts/BetPair.sol\":653:661  web3bets */\n  0x06\n  0x00\n  swap1\n  sload\n  swap1\n  0x0100\n  exp\n  swap1\n  div\n  sub(shl(0xa0, 0x01), 0x01)\n  and\n  sub(shl(0xa0, 0x01), 0x01)\n    /* \"contracts/BetPair.sol\":653:675  web3bets.marketFactory */\n  and\n  0x06ae7095\n    /* \"contracts/BetPair.sol\":653:677  web3bets.marketFactory() */\n  mload(0x40)\n  dup2\n  0xffffffff\n  and\n  0xe0\n  shl\n  dup2\n  mstore\n  0x04\n  add\n  0x20\n  mload(0x40)\n  dup1\n  dup4\n  sub\n  dup2\n  dup7\n  dup1\n  extcodesize\n  iszero\n  dup1\n  iszero\n  tag_6\n  jumpi\n  0x00\n  dup1\n  revert\ntag_6:\n  pop\n  gas\n  staticcall\n  iszero\n  dup1\n  iszero\n  tag_8\n  jumpi\n  returndatasize\n  0x00\n  dup1\n  returndatacopy\n  revert(0x00, returndatasize)\ntag_8:\n  pop\n  pop\n  pop\n  pop\n  mload(0x40)\n  returndatasize\n  not(0x1f)\n  0x1f\n  dup3\n  add\n  and\n  dup3\n  add\n  dup1\n  0x40\n  mstore\n  pop\n  dup2\n  add\n  swap1\n  tag_9\n  swap2\n  swap1\n  tag_10\n  jump\t// in\ntag_9:\n  sub(shl(0xa0, 0x01), 0x01)\n    /* \"contracts/BetPair.sol\":639:677  msg.sender == web3bets.marketFactory() */\n  and\n    /* \"contracts/BetPair.sol\":639:649  msg.sender */\n  caller\n  sub(shl(0xa0, 0x01), 0x01)\n    /* \"contracts/BetPair.sol\":639:677  msg.sender == web3bets.marketFactory() */\n  and\n  eq\n    /* \"contracts/BetPair.sol\":631:716  require(msg.sender == web3bets.marketFactory(), \"only market factory can match bets\") */\n  tag_11\n  jumpi\n  mload(0x40)\n  shl(0xe5, 0x461bcd)\n  dup2\n  mstore\n    /* \"#utility.yul\":1138:1140   */\n  0x20\n    /* \"contracts/BetPair.sol\":631:716  require(msg.sender == web3bets.marketFactory(), \"only market factory can match bets\") */\n  0x04\n  dup3\n  add\n    /* \"#utility.yul\":1120:1141   */\n  mstore\n    /* \"#utility.yul\":1177:1179   */\n  0x22\n    /* \"#utility.yul\":1157:1175   */\n  0x24\n  dup3\n  add\n    /* \"#utility.yul\":1150:1180   */\n  mstore\n    /* \"#utility.yul\":1216:1250   */\n  0x6f6e6c79206d61726b657420666163746f72792063616e206d61746368206265\n    /* \"#utility.yul\":1196:1214   */\n  0x44\n  dup3\n  add\n    /* \"#utility.yul\":1189:1251   */\n  mstore\n  shl(0xf0, 0x7473)\n    /* \"#utility.yul\":1267:1285   */\n  0x64\n  dup3\n  add\n    /* \"#utility.yul\":1260:1292   */\n  mstore\n    /* \"#utility.yul\":1309:1328   */\n  0x84\n  add\n    /* \"contracts/BetPair.sol\":631:716  require(msg.sender == web3bets.marketFactory(), \"only market factory can match bets\") */\n  mload(0x40)\n  dup1\n  swap2\n  sub\n  swap1\n  revert\ntag_11:\n    /* \"contracts/BetPair.sol\":726:732  market */\n  0x01\n    /* \"contracts/BetPair.sol\":726:742  market = market_ */\n  dup1\n  sload\n  not(sub(shl(0xa0, 0x01), 0x01))\n  swap1\n  dup2\n  and\n  sub(shl(0xa0, 0x01), 0x01)\n  swap8\n  dup9\n  and\n  or\n  swap1\n  swap2\n  sstore\n    /* \"contracts/BetPair.sol\":752:760  sideABet */\n  0x02\n    /* \"contracts/BetPair.sol\":752:772  sideABet = sideABet_ */\n  dup1\n  sload\n  dup3\n  and\n  swap6\n  dup8\n  and\n  swap6\n  swap1\n  swap6\n  or\n  swap1\n  swap5\n  sstore\n    /* \"contracts/BetPair.sol\":782:790  sideBBet */\n  0x03\n    /* \"contracts/BetPair.sol\":782:802  sideBBet = sideBBet_ */\n  dup1\n  sload\n  swap1\n  swap5\n  and\n  swap3\n  swap1\n  swap5\n  and\n  swap2\n  swap1\n  swap2\n  or\n  swap1\n  swap2\n  sstore\n    /* \"contracts/BetPair.sol\":812:819  amountA */\n  0x04\n    /* \"contracts/BetPair.sol\":812:830  amountA = amountA_ */\n  sstore\n    /* \"contracts/BetPair.sol\":840:847  amountB */\n  0x05\n    /* \"contracts/BetPair.sol\":840:858  amountB = amountB_ */\n  sstore\n    /* \"contracts/BetPair.sol\":163:872  contract BetPair is IBetPair {... */\n  jump(tag_15)\n    /* \"#utility.yul\":14:191   */\ntag_16:\n    /* \"#utility.yul\":93:106   */\n  dup1\n  mload\n  sub(shl(0xa0, 0x01), 0x01)\n    /* \"#utility.yul\":135:166   */\n  dup2\n  and\n    /* \"#utility.yul\":125:167   */\n  dup2\n  eq\n    /* \"#utility.yul\":115:117   */\n  tag_18\n  jumpi\n    /* \"#utility.yul\":181:182   */\n  0x00\n    /* \"#utility.yul\":178:179   */\n  dup1\n    /* \"#utility.yul\":171:183   */\n  revert\n    /* \"#utility.yul\":115:117   */\ntag_18:\n    /* \"#utility.yul\":74:191   */\n  swap2\n  swap1\n  pop\n  jump\t// out\n    /* \"#utility.yul\":196:414   */\ntag_10:\n    /* \"#utility.yul\":266:272   */\n  0x00\n    /* \"#utility.yul\":319:321   */\n  0x20\n    /* \"#utility.yul\":307:316   */\n  dup3\n    /* \"#utility.yul\":298:305   */\n  dup5\n    /* \"#utility.yul\":294:317   */\n  sub\n    /* \"#utility.yul\":290:322   */\n  slt\n    /* \"#utility.yul\":287:289   */\n  iszero\n  tag_20\n  jumpi\n    /* \"#utility.yul\":340:346   */\n  dup1\n    /* \"#utility.yul\":332:338   */\n  dup2\n    /* \"#utility.yul\":325:347   */\n  revert\n    /* \"#utility.yul\":287:289   */\ntag_20:\n    /* \"#utility.yul\":368:408   */\n  tag_21\n    /* \"#utility.yul\":398:407   */\n  dup3\n    /* \"#utility.yul\":368:408   */\n  tag_16\n  jump\t// in\ntag_21:\n    /* \"#utility.yul\":358:408   */\n  swap4\n    /* \"#utility.yul\":277:414   */\n  swap3\n  pop\n  pop\n  pop\n  jump\t// out\n    /* \"#utility.yul\":419:931   */\ntag_3:\n    /* \"#utility.yul\":525:531   */\n  0x00\n    /* \"#utility.yul\":533:539   */\n  dup1\n    /* \"#utility.yul\":541:547   */\n  0x00\n    /* \"#utility.yul\":549:555   */\n  dup1\n    /* \"#utility.yul\":557:563   */\n  0x00\n    /* \"#utility.yul\":610:613   */\n  0xa0\n    /* \"#utility.yul\":598:607   */\n  dup7\n    /* \"#utility.yul\":589:596   */\n  dup9\n    /* \"#utility.yul\":585:608   */\n  sub\n    /* \"#utility.yul\":581:614   */\n  slt\n    /* \"#utility.yul\":578:580   */\n  iszero\n  tag_23\n  jumpi\n    /* \"#utility.yul\":632:638   */\n  dup1\n    /* \"#utility.yul\":624:630   */\n  dup2\n    /* \"#utility.yul\":617:639   */\n  revert\n    /* \"#utility.yul\":578:580   */\ntag_23:\n    /* \"#utility.yul\":660:700   */\n  tag_24\n    /* \"#utility.yul\":690:699   */\n  dup7\n    /* \"#utility.yul\":660:700   */\n  tag_16\n  jump\t// in\ntag_24:\n    /* \"#utility.yul\":650:700   */\n  swap5\n  pop\n    /* \"#utility.yul\":719:768   */\n  tag_25\n    /* \"#utility.yul\":764:766   */\n  0x20\n    /* \"#utility.yul\":753:762   */\n  dup8\n    /* \"#utility.yul\":749:767   */\n  add\n    /* \"#utility.yul\":719:768   */\n  tag_16\n  jump\t// in\ntag_25:\n    /* \"#utility.yul\":709:768   */\n  swap4\n  pop\n    /* \"#utility.yul\":787:836   */\n  tag_26\n    /* \"#utility.yul\":832:834   */\n  0x40\n    /* \"#utility.yul\":821:830   */\n  dup8\n    /* \"#utility.yul\":817:835   */\n  add\n    /* \"#utility.yul\":787:836   */\n  tag_16\n  jump\t// in\ntag_26:\n    /* \"#utility.yul\":876:878   */\n  0x60\n    /* \"#utility.yul\":861:879   */\n  dup8\n  add\n    /* \"#utility.yul\":855:880   */\n  mload\n    /* \"#utility.yul\":920:923   */\n  0x80\n    /* \"#utility.yul\":905:924   */\n  swap1\n  swap8\n  add\n    /* \"#utility.yul\":899:925   */\n  mload\n    /* \"#utility.yul\":568:931   */\n  swap6\n  swap9\n  swap5\n  swap8\n  pop\n    /* \"#utility.yul\":777:836   */\n  swap6\n    /* \"#utility.yul\":855:880   */\n  swap5\n    /* \"#utility.yul\":899:925   */\n  swap4\n    /* \"#utility.yul\":568:931   */\n  swap3\n  pop\n  pop\n  pop\n  jump\t// out\n    /* \"#utility.yul\":1110:1334   */\ntag_15:\n    /* \"contracts/BetPair.sol\":163:872  contract BetPair is IBetPair {... */\n  dataSize(sub_0)\n  dup1\n  dataOffset(sub_0)\n  0x00\n  codecopy\n  0x00\n  return\nstop\n\nsub_0: assembly {\n        /* \"contracts/BetPair.sol\":163:872  contract BetPair is IBetPair {... */\n      mstore(0x40, 0x80)\n      callvalue\n      dup1\n      iszero\n      tag_1\n      jumpi\n      0x00\n      dup1\n      revert\n    tag_1:\n      pop\n      jumpi(tag_2, lt(calldatasize, 0x04))\n      shr(0xe0, calldataload(0x00))\n      dup1\n      0x0f765e6d\n      eq\n      tag_3\n      jumpi\n      dup1\n      0x156dcbf0\n      eq\n      tag_4\n      jumpi\n      dup1\n      0x15e894ab\n      eq\n      tag_5\n      jumpi\n      dup1\n      0x2efe91ef\n      eq\n      tag_6\n      jumpi\n      dup1\n      0x80f55605\n      eq\n      tag_7\n      jumpi\n    tag_2:\n      0x00\n      dup1\n      revert\n        /* \"contracts/BetPair.sol\":305:337  address public override sideBBet */\n    tag_3:\n      sload(0x03)\n      tag_8\n      swap1\n      sub(shl(0xa0, 0x01), 0x01)\n      and\n      dup2\n      jump\n    tag_8:\n      mload(0x40)\n      sub(shl(0xa0, 0x01), 0x01)\n        /* \"#utility.yul\":178:210   */\n      swap1\n      swap2\n      and\n        /* \"#utility.yul\":160:211   */\n      dup2\n      mstore\n        /* \"#utility.yul\":148:150   */\n      0x20\n        /* \"#utility.yul\":133:151   */\n      add\n        /* \"contracts/BetPair.sol\":305:337  address public override sideBBet */\n    tag_10:\n      mload(0x40)\n      dup1\n      swap2\n      sub\n      swap1\n      return\n        /* \"contracts/BetPair.sol\":344:372  uint public override amountA */\n    tag_4:\n      tag_12\n      sload(0x04)\n      dup2\n      jump\n    tag_12:\n      mload(0x40)\n        /* \"#utility.yul\":368:393   */\n      swap1\n      dup2\n      mstore\n        /* \"#utility.yul\":356:358   */\n      0x20\n        /* \"#utility.yul\":341:359   */\n      add\n        /* \"contracts/BetPair.sol\":344:372  uint public override amountA */\n      tag_10\n        /* \"#utility.yul\":323:399   */\n      jump\n        /* \"contracts/BetPair.sol\":266:298  address public override sideABet */\n    tag_5:\n      sload(0x02)\n      tag_8\n      swap1\n      sub(shl(0xa0, 0x01), 0x01)\n      and\n      dup2\n      jump\n        /* \"contracts/BetPair.sol\":379:407  uint public override amountB */\n    tag_6:\n      tag_12\n      sload(0x05)\n      dup2\n      jump\n        /* \"contracts/BetPair.sol\":229:259  address public override market */\n    tag_7:\n      sload(0x01)\n      tag_8\n      swap1\n      sub(shl(0xa0, 0x01), 0x01)\n      and\n      dup2\n      jump\n\n    auxdata: 0xa26469706673582212203c58269b2bab4468d84c890d3d5c6f92644c8d8985cae22416af2420eb70a85064736f6c63430008040033\n}\n",
				"bytecode": {
					"linkReferences": {},
					"object": "6080604052600054600680546001600160a01b0319166001600160a01b0390921691909117905534801561003257600080fd5b5060405161032d38038061032d833981016040819052610051916101cf565b600660009054906101000a90046001600160a01b03166001600160a01b03166306ae70956040518163ffffffff1660e01b815260040160206040518083038186803b15801561009f57600080fd5b505afa1580156100b3573d6000803e3d6000fd5b505050506040513d601f19601f820116820180604052508101906100d791906101ae565b6001600160a01b0316336001600160a01b0316146101465760405162461bcd60e51b815260206004820152602260248201527f6f6e6c79206d61726b657420666163746f72792063616e206d61746368206265604482015261747360f01b606482015260840160405180910390fd5b600180546001600160a01b03199081166001600160a01b039788161790915560028054821695871695909517909455600380549094169290941691909117909155600455600555610224565b80516001600160a01b03811681146101a957600080fd5b919050565b6000602082840312156101bf578081fd5b6101c882610192565b9392505050565b600080600080600060a086880312156101e6578081fd5b6101ef86610192565b94506101fd60208701610192565b935061020b60408701610192565b6060870151608090970151959894975095949392505050565b60fb806102326000396000f3fe6080604052348015600f57600080fd5b506004361060505760003560e01c80630f765e6d146055578063156dcbf014608457806315e894ab1460995780632efe91ef1460ab57806380f556051460b3575b600080fd5b6003546067906001600160a01b031681565b6040516001600160a01b0390911681526020015b60405180910390f35b608c60045481565b604051908152602001607b565b6002546067906001600160a01b031681565b608c60055481565b6001546067906001600160a01b03168156fea26469706673582212203c58269b2bab4468d84c890d3d5c6f92644c8d8985cae22416af2420eb70a85064736f6c63430008040033",
					"opcodes": "PUSH1 0x80 PUSH1 0x40 MSTORE PUSH1 0x0 SLOAD PUSH1 0x6 DUP1 SLOAD PUSH1 0x1 PUSH1 0x1 PUSH1 0xA0 SHL SUB NOT AND PUSH1 0x1 PUSH1 0x1 PUSH1 0xA0 SHL SUB SWAP1 SWAP3 AND SWAP2 SWAP1 SWAP2 OR SWAP1 SSTORE CALLVALUE DUP1 ISZERO PUSH2 0x32 JUMPI PUSH1 0x0 DUP1 REVERT JUMPDEST POP PUSH1 0x40 MLOAD PUSH2 0x32D CODESIZE SUB DUP1 PUSH2 0x32D DUP4 CODECOPY DUP2 ADD PUSH1 0x40 DUP2 SWAP1 MSTORE PUSH2 0x51 SWAP2 PUSH2 0x1CF JUMP JUMPDEST PUSH1 0x6 PUSH1 0x0 SWAP1 SLOAD SWAP1 PUSH2 0x100 EXP SWAP1 DIV PUSH1 0x1 PUSH1 0x1 PUSH1 0xA0 SHL SUB AND PUSH1 0x1 PUSH1 0x1 PUSH1 0xA0 SHL SUB AND PUSH4 0x6AE7095 PUSH1 0x40 MLOAD DUP2 PUSH4 0xFFFFFFFF AND PUSH1 0xE0 SHL DUP2 MSTORE PUSH1 0x4 ADD PUSH1 0x20 PUSH1 0x40 MLOAD DUP1 DUP4 SUB DUP2 DUP7 DUP1 EXTCODESIZE ISZERO DUP1 ISZERO PUSH2 0x9F JUMPI PUSH1 0x0 DUP1 REVERT JUMPDEST POP GAS STATICCALL ISZERO DUP1 ISZERO PUSH2 0xB3 JUMPI RETURNDATASIZE PUSH1 0x0 DUP1 RETURNDATACOPY RETURNDATASIZE PUSH1 0x0 REVERT JUMPDEST POP POP POP POP PUSH1 0x40 MLOAD RETURNDATASIZE PUSH1 0x1F NOT PUSH1 0x1F DUP3 ADD AND DUP3 ADD DUP1 PUSH1 0x40 MSTORE POP DUP2 ADD SWAP1 PUSH2 0xD7 SWAP2 SWAP1 PUSH2 0x1AE JUMP JUMPDEST PUSH1 0x1 PUSH1 0x1 PUSH1 0xA0 SHL SUB AND CALLER PUSH1 0x1 PUSH1 0x1 PUSH1 0xA0 SHL SUB AND EQ PUSH2 0x146 JUMPI PUSH1 0x40 MLOAD PUSH3 0x461BCD PUSH1 0xE5 SHL DUP2 MSTORE PUSH1 0x20 PUSH1 0x4 DUP3 ADD MSTORE PUSH1 0x22 PUSH1 0x24 DUP3 ADD MSTORE PUSH32 0x6F6E6C79206D61726B657420666163746F72792063616E206D61746368206265 PUSH1 0x44 DUP3 ADD MSTORE PUSH2 0x7473 PUSH1 0xF0 SHL PUSH1 0x64 DUP3 ADD MSTORE PUSH1 0x84 ADD PUSH1 0x40 MLOAD DUP1 SWAP2 SUB SWAP1 REVERT JUMPDEST PUSH1 0x1 DUP1 SLOAD PUSH1 0x1 PUSH1 0x1 PUSH1 0xA0 SHL SUB NOT SWAP1 DUP2 AND PUSH1 0x1 PUSH1 0x1 PUSH1 0xA0 SHL SUB SWAP8 DUP9 AND OR SWAP1 SWAP2 SSTORE PUSH1 0x2 DUP1 SLOAD DUP3 AND SWAP6 DUP8 AND SWAP6 SWAP1 SWAP6 OR SWAP1 SWAP5 SSTORE PUSH1 0x3 DUP1 SLOAD SWAP1 SWAP5 AND SWAP3 SWAP1 SWAP5 AND SWAP2 SWAP1 SWAP2 OR SWAP1 SWAP2 SSTORE PUSH1 0x4 SSTORE PUSH1 0x5 SSTORE PUSH2 0x224 JUMP JUMPDEST DUP1 MLOAD PUSH1 0x1 PUSH1 0x1 PUSH1 0xA0 SHL SUB DUP2 AND DUP2 EQ PUSH2 0x1A9 JUMPI PUSH1 0x0 DUP1 REVERT JUMPDEST SWAP2 SWAP1 POP JUMP JUMPDEST PUSH1 0x0 PUSH1 0x20 DUP3 DUP5 SUB SLT ISZERO PUSH2 0x1BF JUMPI DUP1 DUP2 REVERT JUMPDEST PUSH2 0x1C8 DUP3 PUSH2 0x192 JUMP JUMPDEST SWAP4 SWAP3 POP POP POP JUMP JUMPDEST PUSH1 0x0 DUP1 PUSH1 0x0 DUP1 PUSH1 0x0 PUSH1 0xA0 DUP7 DUP9 SUB SLT ISZERO PUSH2 0x1E6 JUMPI DUP1 DUP2 REVERT JUMPDEST PUSH2 0x1EF DUP7 PUSH2 0x192 JUMP JUMPDEST SWAP5 POP PUSH2 0x1FD PUSH1 0x20 DUP8 ADD PUSH2 0x192 JUMP JUMPDEST SWAP4 POP PUSH2 0x20B PUSH1 0x40 DUP8 ADD PUSH2 0x192 JUMP JUMPDEST PUSH1 0x60 DUP8 ADD MLOAD PUSH1 0x80 SWAP1 SWAP8 ADD MLOAD SWAP6 SWAP9 SWAP5 SWAP8 POP SWAP6 SWAP5 SWAP4 SWAP3 POP POP POP JUMP JUMPDEST PUSH1 0xFB DUP1 PUSH2 0x232 PUSH1 0x0 CODECOPY PUSH1 0x0 RETURN INVALID PUSH1 0x80 PUSH1 0x40 MSTORE CALLVALUE DUP1 ISZERO PUSH1 0xF JUMPI PUSH1 0x0 DUP1 REVERT JUMPDEST POP PUSH1 0x4 CALLDATASIZE LT PUSH1 0x50 JUMPI PUSH1 0x0 CALLDATALOAD PUSH1 0xE0 SHR DUP1 PUSH4 0xF765E6D EQ PUSH1 0x55 JUMPI DUP1 PUSH4 0x156DCBF0 EQ PUSH1 0x84 JUMPI DUP1 PUSH4 0x15E894AB EQ PUSH1 0x99 JUMPI DUP1 PUSH4 0x2EFE91EF EQ PUSH1 0xAB JUMPI DUP1 PUSH4 0x80F55605 EQ PUSH1 0xB3 JUMPI JUMPDEST PUSH1 0x0 DUP1 REVERT JUMPDEST PUSH1 0x3 SLOAD PUSH1 0x67 SWAP1 PUSH1 0x1 PUSH1 0x1 PUSH1 0xA0 SHL SUB AND DUP2 JUMP JUMPDEST PUSH1 0x40 MLOAD PUSH1 0x1 PUSH1 0x1 PUSH1 0xA0 SHL SUB SWAP1 SWAP2 AND DUP2 MSTORE PUSH1 0x20 ADD JUMPDEST PUSH1 0x40 MLOAD DUP1 SWAP2 SUB SWAP1 RETURN JUMPDEST PUSH1 0x8C PUSH1 0x4 SLOAD DUP2 JUMP JUMPDEST PUSH1 0x40 MLOAD SWAP1 DUP2 MSTORE PUSH1 0x20 ADD PUSH1 0x7B JUMP JUMPDEST PUSH1 0x2 SLOAD PUSH1 0x67 SWAP1 PUSH1 0x1 PUSH1 0x1 PUSH1 0xA0 SHL SUB AND DUP2 JUMP JUMPDEST PUSH1 0x8C PUSH1 0x5 SLOAD DUP2 JUMP JUMPDEST PUSH1 0x1 SLOAD PUSH1 0x67 SWAP1 PUSH1 0x1 PUSH1 0x1 PUSH1 0xA0 SHL SUB AND DUP2 JUMP INVALID LOG2 PUSH5 0x6970667358 0x22 SLT KECCAK256 EXTCODECOPY PC 0x26 SWAP12 0x2B 0xAB DIFFICULTY PUSH9 0xD84C890D3D5C6F9264 0x4C DUP14 DUP10 DUP6 0xCA 0xE2 0x24 AND 0xAF 0x24 KECCAK256 0xEB PUSH17 0xA85064736F6C6343000804003300000000 "
				},
				"gasEstimates": {
					"creation": {
						"codeDepositCost": "50200",
						"executionCost": "infinite",
						"totalCost": "infinite"
					},
					"external": {
						"amountA()": "995",
						"amountB()": "1039",
						"market()": "1092",
						"sideABet()": "1048",
						"sideBBet()": "1004"
					}
				},
				"methodIdentifiers": {
					"amountA()": "156dcbf0",
					"amountB()": "2efe91ef",
					"market()": "80f55605",
					"sideABet()": "15e894ab",
					"sideBBet()": "0f765e6d"
				}
			},
			"storageLayout": {
				"storage": [
					{
						"astId": 8,
						"contract": "contracts/BetPair.sol:BetPair",
						"label": "w3bAddr",
						"offset": 0,
						"slot": "0",
						"type": "t_address"
					},
					{
						"astId": 11,
						"contract": "contracts/BetPair.sol:BetPair",
						"label": "market",
						"offset": 0,
						"slot": "1",
						"type": "t_address"
					},
					{
						"astId": 14,
						"contract": "contracts/BetPair.sol:BetPair",
						"label": "sideABet",
						"offset": 0,
						"slot": "2",
						"type": "t_address"
					},
					{
						"astId": 17,
						"contract": "contracts/BetPair.sol:BetPair",
						"label": "sideBBet",
						"offset": 0,
						"slot": "3",
						"type": "t_address"
					},
					{
						"astId": 20,
						"contract": "contracts/BetPair.sol:BetPair",
						"label": "amountA",
						"offset": 0,
						"slot": "4",
						"type": "t_uint256"
					},
					{
						"astId": 23,
						"contract": "contracts/BetPair.sol:BetPair",
						"label": "amountB",
						"offset": 0,
						"slot": "5",
						"type": "t_uint256"
					},
					{
						"astId": 29,
						"contract": "contracts/BetPair.sol:BetPair",
						"label": "web3bets",
						"offset": 0,
						"slot": "6",
						"type": "t_contract(IWeb3BetsFO)229"
					}
				],
				"types": {
					"t_address": {
						"encoding": "inplace",
						"label": "address",
						"numberOfBytes": "20"
					},
					"t_contract(IWeb3BetsFO)229": {
						"encoding": "inplace",
						"label": "contract IWeb3BetsFO",
						"numberOfBytes": "20"
					},
					"t_uint256": {
						"encoding": "inplace",
						"label": "uint256",
						"numberOfBytes": "32"
					}
				}
			},
			"userdoc": {
				"kind": "user",
				"methods": {},
				"version": 1
			}
		}
	}
}