{
	"contracts/Market.sol": {
		"Market": {
			"abi": [
				{
					"inputs": [
						{
							"internalType": "bytes32",
							"name": "event_",
							"type": "bytes32"
						}
					],
					"stateMutability": "nonpayable",
					"type": "constructor"
				},
				{
					"anonymous": false,
					"inputs": [
						{
							"indexed": false,
							"internalType": "address",
							"name": "better",
							"type": "address"
						},
						{
							"indexed": false,
							"internalType": "address",
							"name": "marketAddr",
							"type": "address"
						},
						{
							"indexed": false,
							"internalType": "bytes32",
							"name": "hash",
							"type": "bytes32"
						},
						{
							"indexed": false,
							"internalType": "uint256",
							"name": "stake",
							"type": "uint256"
						},
						{
							"indexed": false,
							"internalType": "uint256",
							"name": "odds",
							"type": "uint256"
						},
						{
							"indexed": false,
							"internalType": "uint256",
							"name": "side",
							"type": "uint256"
						}
					],
					"name": "BetCreated",
					"type": "event"
				},
				{
					"anonymous": false,
					"inputs": [
						{
							"indexed": false,
							"internalType": "address",
							"name": "beneficiary",
							"type": "address"
						},
						{
							"indexed": false,
							"internalType": "uint256",
							"name": "value",
							"type": "uint256"
						}
					],
					"name": "Withdraw",
					"type": "event"
				},
				{
					"inputs": [
						{
							"internalType": "address",
							"name": "_affiliate",
							"type": "address"
						},
						{
							"internalType": "uint256",
							"name": "_stake",
							"type": "uint256"
						},
						{
							"internalType": "uint256",
							"name": "_odds",
							"type": "uint256"
						},
						{
							"internalType": "uint256",
							"name": "_side",
							"type": "uint256"
						},
						{
							"internalType": "bool",
							"name": "_instant",
							"type": "bool"
						}
					],
					"name": "addBet",
					"outputs": [
						{
							"internalType": "bytes32",
							"name": "",
							"type": "bytes32"
						}
					],
					"stateMutability": "nonpayable",
					"type": "function"
				},
				{
					"inputs": [],
					"name": "cancel",
					"outputs": [
						{
							"internalType": "bool",
							"name": "",
							"type": "bool"
						}
					],
					"stateMutability": "nonpayable",
					"type": "function"
				},
				{
					"inputs": [
						{
							"internalType": "bytes32",
							"name": "_bet",
							"type": "bytes32"
						}
					],
					"name": "cancelBet",
					"outputs": [],
					"stateMutability": "nonpayable",
					"type": "function"
				},
				{
					"inputs": [],
					"name": "cancelPlusPairs",
					"outputs": [
						{
							"internalType": "bool",
							"name": "",
							"type": "bool"
						}
					],
					"stateMutability": "nonpayable",
					"type": "function"
				},
				{
					"inputs": [
						{
							"internalType": "address",
							"name": "_user",
							"type": "address"
						}
					],
					"name": "getBalance",
					"outputs": [
						{
							"internalType": "uint256",
							"name": "",
							"type": "uint256"
						}
					],
					"stateMutability": "view",
					"type": "function"
				},
				{
					"inputs": [
						{
							"internalType": "bytes32",
							"name": "_bet",
							"type": "bytes32"
						}
					],
					"name": "getBet",
					"outputs": [
						{
							"components": [
								{
									"internalType": "address",
									"name": "better",
									"type": "address"
								},
								{
									"internalType": "address",
									"name": "affiliate",
									"type": "address"
								},
								{
									"internalType": "uint256",
									"name": "stake",
									"type": "uint256"
								},
								{
									"internalType": "uint256",
									"name": "matched",
									"type": "uint256"
								},
								{
									"internalType": "uint256",
									"name": "odds",
									"type": "uint256"
								},
								{
									"internalType": "uint256",
									"name": "side",
									"type": "uint256"
								}
							],
							"internalType": "struct Struct.MarketBet",
							"name": "",
							"type": "tuple"
						}
					],
					"stateMutability": "view",
					"type": "function"
				},
				{
					"inputs": [
						{
							"internalType": "address",
							"name": "_user",
							"type": "address"
						}
					],
					"name": "getUserBets",
					"outputs": [
						{
							"internalType": "bytes32[]",
							"name": "",
							"type": "bytes32[]"
						}
					],
					"stateMutability": "view",
					"type": "function"
				},
				{
					"inputs": [],
					"name": "marketEvent",
					"outputs": [
						{
							"internalType": "bytes32",
							"name": "",
							"type": "bytes32"
						}
					],
					"stateMutability": "view",
					"type": "function"
				},
				{
					"inputs": [
						{
							"internalType": "uint256",
							"name": "_winningSide",
							"type": "uint256"
						}
					],
					"name": "setWinningSide",
					"outputs": [
						{
							"internalType": "bool",
							"name": "",
							"type": "bool"
						}
					],
					"stateMutability": "nonpayable",
					"type": "function"
				},
				{
					"inputs": [
						{
							"internalType": "uint256",
							"name": "_winningSide",
							"type": "uint256"
						}
					],
					"name": "settle",
					"outputs": [
						{
							"internalType": "bool",
							"name": "",
							"type": "bool"
						}
					],
					"stateMutability": "nonpayable",
					"type": "function"
				},
				{
					"inputs": [
						{
							"internalType": "bytes32",
							"name": "_bet",
							"type": "bytes32"
						}
					],
					"name": "settleBet",
					"outputs": [],
					"stateMutability": "nonpayable",
					"type": "function"
				},
				{
					"inputs": [],
					"name": "start",
					"outputs": [
						{
							"internalType": "bool",
							"name": "",
							"type": "bool"
						}
					],
					"stateMutability": "nonpayable",
					"type": "function"
				},
				{
					"inputs": [],
					"name": "status",
					"outputs": [
						{
							"internalType": "uint256",
							"name": "",
							"type": "uint256"
						}
					],
					"stateMutability": "view",
					"type": "function"
				},
				{
					"inputs": [
						{
							"internalType": "address",
							"name": "_user",
							"type": "address"
						}
					],
					"name": "withdraw",
					"outputs": [
						{
							"internalType": "bool",
							"name": "",
							"type": "bool"
						}
					],
					"stateMutability": "nonpayable",
					"type": "function"
				},
				{
					"inputs": [
						{
							"internalType": "bytes32",
							"name": "_bet",
							"type": "bytes32"
						}
					],
					"name": "withdrawPending",
					"outputs": [],
					"stateMutability": "nonpayable",
					"type": "function"
				}
			],
			"devdoc": {
				"kind": "dev",
				"methods": {
					"cancelBet(bytes32)": {
						"details": "cancel all pairs in `_bet`, "
					},
					"getBalance(address)": {
						"details": "Returns the amount of tokens owned by `_user` in this market."
					},
					"getBet(bytes32)": {
						"details": "Returns details of `_bet`."
					},
					"getUserBets(address)": {
						"details": "Returns hash IDs of all the bets placed by `_user`."
					},
					"setWinningSide(uint256)": {
						"details": "assign `_winningSide` to `status` "
					},
					"settle(uint256)": {
						"details": "assign `_winningSide` to `status` "
					},
					"settleBet(bytes32)": {
						"details": "settle all pairs in `_bet`, "
					},
					"withdraw(address)": {
						"details": "transfer bal[`_user`] to `_user`, bal"
					},
					"withdrawPending(bytes32)": {
						"details": "refund all unmatched stake in `_bet`, and withraw for caller address"
					}
				},
				"version": 1
			},
			"evm": {
				"assembly": "    /* \"contracts/Market.sol\":194:14477  contract Market is IMarket, ReentrancyGuard {... */\n  0xc0\n  0x40\n  dup2\n  swap1\n  mstore\n    /* \"contracts/Market.sol\":463:464  0 */\n  0x00\n    /* \"contracts/Market.sol\":430:464  uint256 public override status = 0 */\n  0x02\n  sstore\n    /* \"contracts/Market.sol\":941:948  factory */\n  sload(0x01)\n    /* \"contracts/Market.sol\":903:949  IWeb3BetsFO private app = IWeb3BetsFO(factory) */\n  0x0a\n  dup1\n  sload\n  not(sub(shl(0xa0, 0x01), 0x01))\n  and\n  sub(shl(0xa0, 0x01), 0x01)\n    /* \"contracts/Market.sol\":941:948  factory */\n  swap1\n  swap3\n  and\n    /* \"contracts/Market.sol\":903:949  IWeb3BetsFO private app = IWeb3BetsFO(factory) */\n  swap2\n  dup3\n  or\n  swap1\n  sstore\n  shl(0xe3, 0x966ed9)\n    /* \"contracts/Market.sol\":995:1007  app.scAddr() */\n  dup3\n  mstore\n    /* \"contracts/Market.sol\":941:948  factory */\n  swap1\n    /* \"contracts/Market.sol\":995:1005  app.scAddr */\n  0x04b376c8\n  swap1\n    /* \"contracts/Market.sol\":995:1007  app.scAddr() */\n  0xc4\n  swap1\n  0x20\n  swap1\n  0x04\n    /* \"contracts/Market.sol\":194:14477  contract Market is IMarket, ReentrancyGuard {... */\n  dup2\n    /* \"contracts/Market.sol\":941:948  factory */\n  dup7\n    /* \"contracts/Market.sol\":995:1007  app.scAddr() */\n  dup1\n  extcodesize\n  iszero\n  dup1\n  iszero\n  tag_1\n  jumpi\n  0x00\n  dup1\n  revert\ntag_1:\n  pop\n  gas\n  staticcall\n  iszero\n  dup1\n  iszero\n  tag_3\n  jumpi\n  returndatasize\n  0x00\n  dup1\n  returndatacopy\n  revert(0x00, returndatasize)\ntag_3:\n  pop\n  pop\n  pop\n  pop\n  mload(0x40)\n  returndatasize\n  not(0x1f)\n  0x1f\n  dup3\n  add\n  and\n  dup3\n  add\n  dup1\n  0x40\n  mstore\n  pop\n  dup2\n  add\n  swap1\n  tag_4\n  swap2\n  swap1\n  tag_5\n  jump\t// in\ntag_4:\n    /* \"contracts/Market.sol\":955:1008  IERC20 immutable private token = IERC20(app.scAddr()) */\n  0x60\n  shl\n  not(sub(shl(0x60, 0x01), 0x01))\n  and\n  0xa0\n  mstore\n    /* \"contracts/Market.sol\":1458:1553  constructor(bytes32 event_) {... */\n  callvalue\n  dup1\n  iszero\n  tag_6\n  jumpi\n  0x00\n  dup1\n  revert\ntag_6:\n  pop\n  mload(0x40)\n  sub(codesize, bytecodeSize)\n  dup1\n  bytecodeSize\n  dup4\n  codecopy\n  dup2\n  add\n  0x40\n  dup2\n  swap1\n  mstore\n  tag_7\n  swap2\n  tag_8\n  jump\t// in\ntag_7:\n    /* \"@openzeppelin/contracts/security/ReentrancyGuard.sol\":1701:1702  1 */\n  0x01\n    /* \"@openzeppelin/contracts/security/ReentrancyGuard.sol\":1806:1813  _status */\n  0x00\n    /* \"@openzeppelin/contracts/security/ReentrancyGuard.sol\":1806:1828  _status = _NOT_ENTERED */\n  dup2\n  swap1\n  sstore\n    /* \"contracts/Market.sol\":1496:1516  marketEvent = event_ */\n  0x80\n  swap2\n  swap1\n  swap2\n  mstore\n    /* \"contracts/Market.sol\":1526:1546  factory = msg.sender */\n  dup1\n  sload\n  not(sub(shl(0xa0, 0x01), 0x01))\n  and\n    /* \"contracts/Market.sol\":1536:1546  msg.sender */\n  caller\n    /* \"contracts/Market.sol\":1526:1546  factory = msg.sender */\n  or\n  swap1\n  sstore\n    /* \"contracts/Market.sol\":194:14477  contract Market is IMarket, ReentrancyGuard {... */\n  jump(tag_14)\n    /* \"#utility.yul\":14:324   */\ntag_5:\n    /* \"#utility.yul\":84:90   */\n  0x00\n    /* \"#utility.yul\":137:139   */\n  0x20\n    /* \"#utility.yul\":125:134   */\n  dup3\n    /* \"#utility.yul\":116:123   */\n  dup5\n    /* \"#utility.yul\":112:135   */\n  sub\n    /* \"#utility.yul\":108:140   */\n  slt\n    /* \"#utility.yul\":105:107   */\n  iszero\n  tag_16\n  jumpi\n    /* \"#utility.yul\":158:164   */\n  dup1\n    /* \"#utility.yul\":150:156   */\n  dup2\n    /* \"#utility.yul\":143:165   */\n  revert\n    /* \"#utility.yul\":105:107   */\ntag_16:\n    /* \"#utility.yul\":189:205   */\n  dup2\n  mload\n  sub(shl(0xa0, 0x01), 0x01)\n    /* \"#utility.yul\":234:265   */\n  dup2\n  and\n    /* \"#utility.yul\":224:266   */\n  dup2\n  eq\n    /* \"#utility.yul\":214:216   */\n  tag_17\n  jumpi\n    /* \"#utility.yul\":285:291   */\n  dup2\n    /* \"#utility.yul\":277:283   */\n  dup3\n    /* \"#utility.yul\":270:292   */\n  revert\n    /* \"#utility.yul\":214:216   */\ntag_17:\n    /* \"#utility.yul\":313:318   */\n  swap4\n    /* \"#utility.yul\":95:324   */\n  swap3\n  pop\n  pop\n  pop\n  jump\t// out\n    /* \"#utility.yul\":329:523   */\ntag_8:\n    /* \"#utility.yul\":399:405   */\n  0x00\n    /* \"#utility.yul\":452:454   */\n  0x20\n    /* \"#utility.yul\":440:449   */\n  dup3\n    /* \"#utility.yul\":431:438   */\n  dup5\n    /* \"#utility.yul\":427:450   */\n  sub\n    /* \"#utility.yul\":423:455   */\n  slt\n    /* \"#utility.yul\":420:422   */\n  iszero\n  tag_19\n  jumpi\n    /* \"#utility.yul\":473:479   */\n  dup1\n    /* \"#utility.yul\":465:471   */\n  dup2\n    /* \"#utility.yul\":458:480   */\n  revert\n    /* \"#utility.yul\":420:422   */\ntag_19:\n  pop\n    /* \"#utility.yul\":501:517   */\n  mload\n  swap2\n    /* \"#utility.yul\":410:523   */\n  swap1\n  pop\n  jump\t// out\ntag_14:\n    /* \"contracts/Market.sol\":194:14477  contract Market is IMarket, ReentrancyGuard {... */\n  mload(0x80)\n  shr(0x60, mload(0xa0))\n  codecopy(0x00, dataOffset(sub_0), dataSize(sub_0))\n  0x00\n  assignImmutable(\"0xb82efe928ba8047fc73c44199ae87270ba92aad773ed77645c6bc82e384fdb71\")\n  0x00\n  assignImmutable(\"0x535306ee4b42c92aecd0e71fca98572064f049c2babb2769faa3bbd87d67ec2d\")\n  return(0x00, dataSize(sub_0))\nstop\n\nsub_0: assembly {\n        /* \"contracts/Market.sol\":194:14477  contract Market is IMarket, ReentrancyGuard {... */\n      mstore(0x40, 0x80)\n      callvalue\n      dup1\n      iszero\n      tag_1\n      jumpi\n      0x00\n      dup1\n      revert\n    tag_1:\n      pop\n      jumpi(tag_2, lt(calldatasize, 0x04))\n      shr(0xe0, calldataload(0x00))\n      dup1\n      0x7d7f9232\n      gt\n      tag_18\n      jumpi\n      dup1\n      0xbe9a6555\n      gt\n      tag_19\n      jumpi\n      dup1\n      0xbe9a6555\n      eq\n      tag_14\n      jumpi\n      dup1\n      0xd0ed7295\n      eq\n      tag_15\n      jumpi\n      dup1\n      0xea8a1af0\n      eq\n      tag_16\n      jumpi\n      dup1\n      0xf8b2cb4f\n      eq\n      tag_17\n      jumpi\n      0x00\n      dup1\n      revert\n    tag_19:\n      dup1\n      0x7d7f9232\n      eq\n      tag_10\n      jumpi\n      dup1\n      0x8df82800\n      eq\n      tag_11\n      jumpi\n      dup1\n      0xae8cd090\n      eq\n      tag_12\n      jumpi\n      dup1\n      0xba8006c6\n      eq\n      tag_13\n      jumpi\n      0x00\n      dup1\n      revert\n    tag_18:\n      dup1\n      0x37e8c09e\n      gt\n      tag_20\n      jumpi\n      dup1\n      0x37e8c09e\n      eq\n      tag_6\n      jumpi\n      dup1\n      0x51cff8d9\n      eq\n      tag_7\n      jumpi\n      dup1\n      0x675f6537\n      eq\n      tag_8\n      jumpi\n      dup1\n      0x7a47d494\n      eq\n      tag_9\n      jumpi\n      0x00\n      dup1\n      revert\n    tag_20:\n      dup1\n      0x200d2ed2\n      eq\n      tag_3\n      jumpi\n      dup1\n      0x2940ff1e\n      eq\n      tag_4\n      jumpi\n      dup1\n      0x2d56657d\n      eq\n      tag_5\n      jumpi\n    tag_2:\n      0x00\n      dup1\n      revert\n        /* \"contracts/Market.sol\":430:464  uint256 public override status = 0 */\n    tag_3:\n      tag_21\n      sload(0x02)\n      dup2\n      jump\n    tag_21:\n      mload(0x40)\n        /* \"#utility.yul\":5728:5753   */\n      swap1\n      dup2\n      mstore\n        /* \"#utility.yul\":5716:5718   */\n      0x20\n        /* \"#utility.yul\":5701:5719   */\n      add\n        /* \"contracts/Market.sol\":430:464  uint256 public override status = 0 */\n    tag_23:\n      mload(0x40)\n      dup1\n      swap2\n      sub\n      swap1\n      return\n        /* \"contracts/Market.sol\":3265:3516  function cancelBet(bytes32 _bet) external override {... */\n    tag_4:\n      tag_25\n      tag_26\n      calldatasize\n      0x04\n      tag_27\n      jump\t// in\n    tag_26:\n      tag_28\n      jump\t// in\n    tag_25:\n      stop\n        /* \"contracts/Market.sol\":1840:1978  function getUserBets(address _user) ... */\n    tag_5:\n      tag_29\n      tag_30\n      calldatasize\n      0x04\n      tag_31\n      jump\t// in\n    tag_30:\n      tag_32\n      jump\t// in\n    tag_29:\n      mload(0x40)\n      tag_23\n      swap2\n      swap1\n      tag_34\n      jump\t// in\n        /* \"contracts/Market.sol\":2037:2175  function getBet(bytes32 _bet) ... */\n    tag_6:\n      tag_35\n      tag_36\n      calldatasize\n      0x04\n      tag_27\n      jump\t// in\n    tag_36:\n      tag_37\n      jump\t// in\n    tag_35:\n      mload(0x40)\n      tag_23\n      swap2\n      swap1\n        /* \"#utility.yul\":10217:10230   */\n      dup2\n      mload\n      sub(shl(0xa0, 0x01), 0x01)\n        /* \"#utility.yul\":10213:10235   */\n      swap1\n      dup2\n      and\n        /* \"#utility.yul\":10195:10236   */\n      dup3\n      mstore\n        /* \"#utility.yul\":10296:10300   */\n      0x20\n        /* \"#utility.yul\":10284:10301   */\n      dup1\n      dup5\n      add\n        /* \"#utility.yul\":10278:10302   */\n      mload\n        /* \"#utility.yul\":10274:10307   */\n      swap1\n      swap2\n      and\n        /* \"#utility.yul\":10252:10272   */\n      swap1\n      dup3\n      add\n        /* \"#utility.yul\":10245:10308   */\n      mstore\n        /* \"#utility.yul\":10364:10368   */\n      0x40\n        /* \"#utility.yul\":10352:10369   */\n      dup1\n      dup4\n      add\n        /* \"#utility.yul\":10346:10370   */\n      mload\n        /* \"#utility.yul\":10324:10344   */\n      swap1\n      dup3\n      add\n        /* \"#utility.yul\":10317:10371   */\n      mstore\n        /* \"#utility.yul\":10427:10431   */\n      0x60\n        /* \"#utility.yul\":10415:10432   */\n      dup1\n      dup4\n      add\n        /* \"#utility.yul\":10409:10433   */\n      mload\n        /* \"#utility.yul\":10387:10407   */\n      swap1\n      dup3\n      add\n        /* \"#utility.yul\":10380:10434   */\n      mstore\n        /* \"#utility.yul\":10490:10494   */\n      0x80\n        /* \"#utility.yul\":10478:10495   */\n      dup1\n      dup4\n      add\n        /* \"#utility.yul\":10472:10496   */\n      mload\n        /* \"#utility.yul\":10450:10470   */\n      swap1\n      dup3\n      add\n        /* \"#utility.yul\":10443:10497   */\n      mstore\n        /* \"#utility.yul\":10175:10178   */\n      0xa0\n        /* \"#utility.yul\":10541:10558   */\n      swap2\n      dup3\n      add\n        /* \"#utility.yul\":10535:10559   */\n      mload\n        /* \"#utility.yul\":10513:10533   */\n      swap2\n      dup2\n      add\n        /* \"#utility.yul\":10506:10560   */\n      swap2\n      swap1\n      swap2\n      mstore\n        /* \"#utility.yul\":10144:10147   */\n      0xc0\n        /* \"#utility.yul\":10129:10148   */\n      add\n      swap1\n        /* \"#utility.yul\":10111:10566   */\n      jump\n        /* \"contracts/Market.sol\":2245:2712  function withdraw(address _user) public override nonReentrant returns(bool) {... */\n    tag_7:\n      tag_40\n      tag_41\n      calldatasize\n      0x04\n      tag_31\n      jump\t// in\n    tag_41:\n      tag_42\n      jump\t// in\n    tag_40:\n      mload(0x40)\n        /* \"#utility.yul\":5555:5569   */\n      swap1\n      iszero\n        /* \"#utility.yul\":5548:5570   */\n      iszero\n        /* \"#utility.yul\":5530:5571   */\n      dup2\n      mstore\n        /* \"#utility.yul\":5518:5520   */\n      0x20\n        /* \"#utility.yul\":5503:5521   */\n      add\n        /* \"contracts/Market.sol\":2245:2712  function withdraw(address _user) public override nonReentrant returns(bool) {... */\n      tag_23\n        /* \"#utility.yul\":5485:5577   */\n      jump\n        /* \"contracts/Market.sol\":3577:3897  function settleBet(bytes32 _bet) external override {... */\n    tag_8:\n      tag_25\n      tag_46\n      calldatasize\n      0x04\n      tag_27\n      jump\t// in\n    tag_46:\n      tag_47\n      jump\t// in\n        /* \"contracts/Market.sol\":244:289  bytes32 immutable public override marketEvent */\n    tag_9:\n      tag_21\n      immutable(\"0x535306ee4b42c92aecd0e71fca98572064f049c2babb2769faa3bbd87d67ec2d\")\n      dup2\n      jump\n        /* \"contracts/Market.sol\":2815:3204  function withdrawPending(bytes32 _bet) public override {... */\n    tag_10:\n      tag_25\n      tag_53\n      calldatasize\n      0x04\n      tag_27\n      jump\t// in\n    tag_53:\n      tag_54\n      jump\t// in\n        /* \"contracts/Market.sol\":4378:4789  function settle(uint256 _winningSide)... */\n    tag_11:\n      tag_40\n      tag_56\n      calldatasize\n      0x04\n      tag_27\n      jump\t// in\n    tag_56:\n      tag_58\n      jump\t// in\n        /* \"contracts/Market.sol\":5026:5409  function cancelPlusPairs() external override onlyFactory returns(bool) ... */\n    tag_12:\n      tag_40\n      tag_61\n      jump\t// in\n        /* \"contracts/Market.sol\":5623:8210  function addBet(... */\n    tag_13:\n      tag_21\n      tag_64\n      calldatasize\n      0x04\n      tag_65\n      jump\t// in\n    tag_64:\n      tag_66\n      jump\t// in\n        /* \"contracts/Market.sol\":5415:5617  function start() external override onlyFactory returns(bool){... */\n    tag_14:\n      tag_40\n      tag_69\n      jump\t// in\n        /* \"contracts/Market.sol\":3964:4311  function setWinningSide(uint256 _winningSide)... */\n    tag_15:\n      tag_40\n      tag_72\n      calldatasize\n      0x04\n      tag_27\n      jump\t// in\n    tag_72:\n      tag_73\n      jump\t// in\n        /* \"contracts/Market.sol\":4795:5020  function cancel() external override onlyFactory returns(bool) ... */\n    tag_16:\n      tag_40\n      tag_76\n      jump\t// in\n        /* \"contracts/Market.sol\":1647:1756  function getBalance(address _user) external view override returns(uint256) {... */\n    tag_17:\n      tag_21\n      tag_79\n      calldatasize\n      0x04\n      tag_31\n      jump\t// in\n    tag_79:\n      sub(shl(0xa0, 0x01), 0x01)\n        /* \"contracts/Market.sol\":1739:1749  bal[_user] */\n      and\n        /* \"contracts/Market.sol\":1713:1720  uint256 */\n      0x00\n        /* \"contracts/Market.sol\":1739:1749  bal[_user] */\n      swap1\n      dup2\n      mstore\n        /* \"contracts/Market.sol\":1739:1742  bal */\n      0x05\n        /* \"contracts/Market.sol\":1739:1749  bal[_user] */\n      0x20\n      mstore\n      0x40\n      swap1\n      keccak256\n      sload\n      swap1\n        /* \"contracts/Market.sol\":1647:1756  function getBalance(address _user) external view override returns(uint256) {... */\n      jump\n        /* \"contracts/Market.sol\":3265:3516  function cancelBet(bytes32 _bet) external override {... */\n    tag_28:\n        /* \"contracts/Market.sol\":3348:3362  betsInfo[_bet] */\n      0x00\n      dup2\n      dup2\n      mstore\n        /* \"contracts/Market.sol\":3348:3356  betsInfo */\n      0x06\n        /* \"contracts/Market.sol\":3348:3362  betsInfo[_bet] */\n      0x20\n      mstore\n      0x40\n      swap1\n      keccak256\n        /* \"contracts/Market.sol\":3348:3369  betsInfo[_bet].better */\n      sload\n      sub(shl(0xa0, 0x01), 0x01)\n      and\n        /* \"contracts/Market.sol\":3334:3344  msg.sender */\n      caller\n        /* \"contracts/Market.sol\":3334:3369  msg.sender == betsInfo[_bet].better */\n      eq\n        /* \"contracts/Market.sol\":3326:3393  require(msg.sender == betsInfo[_bet].better, \"unauthorized caller\") */\n      tag_83\n      jumpi\n      mload(0x40)\n      shl(0xe5, 0x461bcd)\n      dup2\n      mstore\n        /* \"#utility.yul\":7016:7018   */\n      0x20\n        /* \"contracts/Market.sol\":3326:3393  require(msg.sender == betsInfo[_bet].better, \"unauthorized caller\") */\n      0x04\n      dup3\n      add\n        /* \"#utility.yul\":6998:7019   */\n      mstore\n        /* \"#utility.yul\":7055:7057   */\n      0x13\n        /* \"#utility.yul\":7035:7053   */\n      0x24\n      dup3\n      add\n        /* \"#utility.yul\":7028:7058   */\n      mstore\n      shl(0x69, 0x3ab730baba3437b934bd32b21031b0b63632b9)\n        /* \"#utility.yul\":7074:7092   */\n      0x44\n      dup3\n      add\n        /* \"#utility.yul\":7067:7116   */\n      mstore\n        /* \"#utility.yul\":7133:7151   */\n      0x64\n      add\n        /* \"contracts/Market.sol\":3326:3393  require(msg.sender == betsInfo[_bet].better, \"unauthorized caller\") */\n    tag_84:\n      mload(0x40)\n      dup1\n      swap2\n      sub\n      swap1\n      revert\n    tag_83:\n        /* \"contracts/Market.sol\":3406:3412  status */\n      sload(0x02)\n        /* \"contracts/Market.sol\":3406:3417  status == 0 */\n      iszero\n      dup1\n        /* \"contracts/Market.sol\":3406:3432  status == 0 || status == 3 */\n      tag_86\n      jumpi\n      pop\n        /* \"contracts/Market.sol\":3421:3427  status */\n      sload(0x02)\n        /* \"contracts/Market.sol\":3431:3432  3 */\n      0x03\n        /* \"contracts/Market.sol\":3421:3432  status == 3 */\n      eq\n        /* \"contracts/Market.sol\":3406:3432  status == 0 || status == 3 */\n    tag_86:\n        /* \"contracts/Market.sol\":3403:3479  if(status == 0 || status == 3){... */\n      iszero\n      tag_87\n      jumpi\n        /* \"contracts/Market.sol\":3447:3468  _cancelBetPairs(_bet) */\n      tag_88\n        /* \"contracts/Market.sol\":3463:3467  _bet */\n      dup2\n        /* \"contracts/Market.sol\":3447:3462  _cancelBetPairs */\n      tag_89\n        /* \"contracts/Market.sol\":3447:3468  _cancelBetPairs(_bet) */\n      jump\t// in\n    tag_88:\n      pop\n        /* \"contracts/Market.sol\":3403:3479  if(status == 0 || status == 3){... */\n    tag_87:\n        /* \"contracts/Market.sol\":3488:3509  withdrawPending(_bet) */\n      tag_90\n        /* \"contracts/Market.sol\":3504:3508  _bet */\n      dup2\n        /* \"contracts/Market.sol\":3488:3503  withdrawPending */\n      tag_54\n        /* \"contracts/Market.sol\":3488:3509  withdrawPending(_bet) */\n      jump\t// in\n    tag_90:\n        /* \"contracts/Market.sol\":3265:3516  function cancelBet(bytes32 _bet) external override {... */\n      pop\n      jump\t// out\n        /* \"contracts/Market.sol\":1840:1978  function getUserBets(address _user) ... */\n    tag_32:\n      sub(shl(0xa0, 0x01), 0x01)\n        /* \"contracts/Market.sol\":1956:1971  userBets[_user] */\n      dup2\n      and\n      0x00\n      swap1\n      dup2\n      mstore\n        /* \"contracts/Market.sol\":1956:1964  userBets */\n      0x07\n        /* \"contracts/Market.sol\":1956:1971  userBets[_user] */\n      0x20\n      swap1\n      dup2\n      mstore\n      0x40\n      swap2\n      dup3\n      swap1\n      keccak256\n        /* \"contracts/Market.sol\":1949:1971  return userBets[_user] */\n      dup1\n      sload\n      dup4\n      mload\n      dup2\n      dup5\n      mul\n      dup2\n      add\n      dup5\n      add\n      swap1\n      swap5\n      mstore\n      dup1\n      dup5\n      mstore\n        /* \"contracts/Market.sol\":1916:1932  bytes32[] memory */\n      0x60\n      swap4\n        /* \"contracts/Market.sol\":1949:1971  return userBets[_user] */\n      swap3\n      dup4\n      add\n        /* \"contracts/Market.sol\":1956:1971  userBets[_user] */\n      dup3\n        /* \"contracts/Market.sol\":1949:1971  return userBets[_user] */\n      dup3\n      dup1\n      iszero\n      tag_92\n      jumpi\n      0x20\n      mul\n      dup3\n      add\n      swap2\n      swap1\n      0x00\n      mstore\n      keccak256(0x00, 0x20)\n      swap1\n    tag_93:\n      dup2\n      sload\n      dup2\n      mstore\n      0x20\n      add\n      swap1\n      0x01\n      add\n      swap1\n      dup1\n      dup4\n      gt\n      tag_93\n      jumpi\n    tag_92:\n      pop\n      pop\n      pop\n      pop\n      pop\n      swap1\n      pop\n        /* \"contracts/Market.sol\":1840:1978  function getUserBets(address _user) ... */\n      swap2\n      swap1\n      pop\n      jump\t// out\n        /* \"contracts/Market.sol\":2037:2175  function getBet(bytes32 _bet) ... */\n    tag_37:\n        /* \"contracts/Market.sol\":2107:2130  Struct.MarketBet memory */\n      tag_94\n      mload(0x40)\n      dup1\n      0xc0\n      add\n      0x40\n      mstore\n      dup1\n      and(sub(shl(0xa0, 0x01), 0x01), 0x00)\n      dup2\n      mstore\n      0x20\n      add\n      and(sub(shl(0xa0, 0x01), 0x01), 0x00)\n      dup2\n      mstore\n      0x20\n      add\n      0x00\n      dup2\n      mstore\n      0x20\n      add\n      0x00\n      dup2\n      mstore\n      0x20\n      add\n      0x00\n      dup2\n      mstore\n      0x20\n      add\n      0x00\n      dup2\n      mstore\n      pop\n      swap1\n      jump\n    tag_94:\n      pop\n        /* \"contracts/Market.sol\":2154:2168  betsInfo[_bet] */\n      0x00\n      swap1\n      dup2\n      mstore\n        /* \"contracts/Market.sol\":2154:2162  betsInfo */\n      0x06\n        /* \"contracts/Market.sol\":2154:2168  betsInfo[_bet] */\n      0x20\n      swap1\n      dup2\n      mstore\n      0x40\n      swap2\n      dup3\n      swap1\n      keccak256\n        /* \"contracts/Market.sol\":2147:2168  return betsInfo[_bet] */\n      dup3\n      mload\n      0xc0\n      dup2\n      add\n      dup5\n      mstore\n      dup2\n      sload\n      sub(shl(0xa0, 0x01), 0x01)\n      swap1\n      dup2\n      and\n      dup3\n      mstore\n      0x01\n      dup4\n      add\n      sload\n      and\n      swap3\n      dup2\n      add\n      swap3\n      swap1\n      swap3\n      mstore\n      0x02\n      dup2\n      add\n      sload\n      swap3\n      dup3\n      add\n      swap3\n      swap1\n      swap3\n      mstore\n      0x03\n      dup3\n      add\n      sload\n      0x60\n      dup3\n      add\n      mstore\n      0x04\n      dup3\n      add\n      sload\n      0x80\n      dup3\n      add\n      mstore\n      0x05\n      swap1\n      swap2\n      add\n      sload\n      0xa0\n      dup3\n      add\n      mstore\n      swap1\n        /* \"contracts/Market.sol\":2037:2175  function getBet(bytes32 _bet) ... */\n      jump\t// out\n        /* \"contracts/Market.sol\":2245:2712  function withdraw(address _user) public override nonReentrant returns(bool) {... */\n    tag_42:\n        /* \"contracts/Market.sol\":2315:2319  bool */\n      0x00\n        /* \"@openzeppelin/contracts/security/ReentrancyGuard.sol\":1744:1745  2 */\n      0x02\n        /* \"@openzeppelin/contracts/security/ReentrancyGuard.sol\":2325:2332  _status */\n      sload(0x00)\n        /* \"@openzeppelin/contracts/security/ReentrancyGuard.sol\":2325:2344  _status != _ENTERED */\n      eq\n      iszero\n        /* \"@openzeppelin/contracts/security/ReentrancyGuard.sol\":2317:2380  require(_status != _ENTERED, \"ReentrancyGuard: reentrant call\") */\n      tag_98\n      jumpi\n      mload(0x40)\n      shl(0xe5, 0x461bcd)\n      dup2\n      mstore\n        /* \"#utility.yul\":9798:9800   */\n      0x20\n        /* \"@openzeppelin/contracts/security/ReentrancyGuard.sol\":2317:2380  require(_status != _ENTERED, \"ReentrancyGuard: reentrant call\") */\n      0x04\n      dup3\n      add\n        /* \"#utility.yul\":9780:9801   */\n      mstore\n        /* \"#utility.yul\":9837:9839   */\n      0x1f\n        /* \"#utility.yul\":9817:9835   */\n      0x24\n      dup3\n      add\n        /* \"#utility.yul\":9810:9840   */\n      mstore\n        /* \"#utility.yul\":9876:9909   */\n      0x5265656e7472616e637947756172643a207265656e7472616e742063616c6c00\n        /* \"#utility.yul\":9856:9874   */\n      0x44\n      dup3\n      add\n        /* \"#utility.yul\":9849:9910   */\n      mstore\n        /* \"#utility.yul\":9927:9945   */\n      0x64\n      add\n        /* \"@openzeppelin/contracts/security/ReentrancyGuard.sol\":2317:2380  require(_status != _ENTERED, \"ReentrancyGuard: reentrant call\") */\n      tag_84\n        /* \"#utility.yul\":9770:9951   */\n      jump\n        /* \"@openzeppelin/contracts/security/ReentrancyGuard.sol\":2317:2380  require(_status != _ENTERED, \"ReentrancyGuard: reentrant call\") */\n    tag_98:\n        /* \"@openzeppelin/contracts/security/ReentrancyGuard.sol\":1744:1745  2 */\n      0x02\n        /* \"@openzeppelin/contracts/security/ReentrancyGuard.sol\":2455:2462  _status */\n      0x00\n        /* \"@openzeppelin/contracts/security/ReentrancyGuard.sol\":2455:2473  _status = _ENTERED */\n      swap1\n      dup2\n      sstore\n      sub(shl(0xa0, 0x01), 0x01)\n        /* \"contracts/Market.sol\":2386:2396  bal[_user] */\n      dup4\n      dup2\n      and\n      dup3\n      mstore\n        /* \"contracts/Market.sol\":2386:2389  bal */\n      0x05\n        /* \"contracts/Market.sol\":2386:2396  bal[_user] */\n      0x20\n      mstore\n      0x40\n      swap2\n      dup3\n      swap1\n      keccak256\n      sload\n        /* \"contracts/Market.sol\":2352:2382  token.balanceOf(address(this)) */\n      swap2\n      mload\n      shl(0xe0, 0x70a08231)\n      dup2\n      mstore\n        /* \"contracts/Market.sol\":2376:2380  this */\n      address\n        /* \"contracts/Market.sol\":2352:2382  token.balanceOf(address(this)) */\n      0x04\n      dup3\n      add\n        /* \"#utility.yul\":3124:3175   */\n      mstore\n        /* \"contracts/Market.sol\":2352:2357  token */\n      immutable(\"0xb82efe928ba8047fc73c44199ae87270ba92aad773ed77645c6bc82e384fdb71\")\n        /* \"contracts/Market.sol\":2352:2367  token.balanceOf */\n      swap1\n      swap2\n      and\n      swap1\n      0x70a08231\n      swap1\n        /* \"#utility.yul\":3097:3115   */\n      0x24\n      add\n        /* \"contracts/Market.sol\":2352:2382  token.balanceOf(address(this)) */\n      0x20\n      mload(0x40)\n      dup1\n      dup4\n      sub\n      dup2\n      dup7\n      dup1\n      extcodesize\n      iszero\n      dup1\n      iszero\n      tag_104\n      jumpi\n      0x00\n      dup1\n      revert\n    tag_104:\n      pop\n      gas\n      staticcall\n      iszero\n      dup1\n      iszero\n      tag_106\n      jumpi\n      returndatasize\n      0x00\n      dup1\n      returndatacopy\n      revert(0x00, returndatasize)\n    tag_106:\n      pop\n      pop\n      pop\n      pop\n      mload(0x40)\n      returndatasize\n      not(0x1f)\n      0x1f\n      dup3\n      add\n      and\n      dup3\n      add\n      dup1\n      0x40\n      mstore\n      pop\n      dup2\n      add\n      swap1\n      tag_107\n      swap2\n      swap1\n      tag_108\n      jump\t// in\n    tag_107:\n        /* \"contracts/Market.sol\":2352:2396  token.balanceOf(address(this)) >= bal[_user] */\n      lt\n      iszero\n        /* \"contracts/Market.sol\":2352:2414  token.balanceOf(address(this)) >= bal[_user] && bal[_user] > 0 */\n      dup1\n      iszero\n      tag_109\n      jumpi\n      pop\n      sub(shl(0xa0, 0x01), 0x01)\n        /* \"contracts/Market.sol\":2400:2410  bal[_user] */\n      dup3\n      and\n        /* \"contracts/Market.sol\":2413:2414  0 */\n      0x00\n        /* \"contracts/Market.sol\":2400:2410  bal[_user] */\n      swap1\n      dup2\n      mstore\n        /* \"contracts/Market.sol\":2400:2403  bal */\n      0x05\n        /* \"contracts/Market.sol\":2400:2410  bal[_user] */\n      0x20\n      mstore\n      0x40\n      swap1\n      keccak256\n      sload\n        /* \"contracts/Market.sol\":2400:2414  bal[_user] > 0 */\n      iszero\n      iszero\n        /* \"contracts/Market.sol\":2352:2414  token.balanceOf(address(this)) >= bal[_user] && bal[_user] > 0 */\n    tag_109:\n        /* \"contracts/Market.sol\":2331:2460  require(... */\n      tag_110\n      jumpi\n      mload(0x40)\n      shl(0xe5, 0x461bcd)\n      dup2\n      mstore\n        /* \"#utility.yul\":8409:8411   */\n      0x20\n        /* \"contracts/Market.sol\":2331:2460  require(... */\n      0x04\n      dup3\n      add\n        /* \"#utility.yul\":8391:8412   */\n      mstore\n        /* \"#utility.yul\":8448:8450   */\n      0x14\n        /* \"#utility.yul\":8428:8446   */\n      0x24\n      dup3\n      add\n        /* \"#utility.yul\":8421:8451   */\n      mstore\n      shl(0x60, 0x7a65726f2076616c756520617661696c61626c65)\n        /* \"#utility.yul\":8467:8485   */\n      0x44\n      dup3\n      add\n        /* \"#utility.yul\":8460:8510   */\n      mstore\n        /* \"#utility.yul\":8527:8545   */\n      0x64\n      add\n        /* \"contracts/Market.sol\":2331:2460  require(... */\n      tag_84\n        /* \"#utility.yul\":8381:8551   */\n      jump\n        /* \"contracts/Market.sol\":2331:2460  require(... */\n    tag_110:\n      sub(shl(0xa0, 0x01), 0x01)\n        /* \"contracts/Market.sol\":2492:2502  bal[_user] */\n      dup3\n      dup2\n      and\n        /* \"contracts/Market.sol\":2470:2489  uint256 availAmount */\n      0x00\n        /* \"contracts/Market.sol\":2492:2502  bal[_user] */\n      dup2\n      dup2\n      mstore\n        /* \"contracts/Market.sol\":2492:2495  bal */\n      0x05\n        /* \"contracts/Market.sol\":2492:2502  bal[_user] */\n      0x20\n      mstore\n      0x40\n      dup1\n      dup3\n      keccak256\n      dup1\n      sload\n        /* \"contracts/Market.sol\":2512:2526  bal[_user] = 0 */\n      swap1\n      dup4\n      swap1\n      sstore\n        /* \"contracts/Market.sol\":2551:2585  token.transfer(_user, availAmount) */\n      swap1\n      mload\n      shl(0xe0, 0xa9059cbb)\n      dup2\n      mstore\n      0x04\n      dup2\n      add\n        /* \"#utility.yul\":4645:4696   */\n      swap4\n      swap1\n      swap4\n      mstore\n        /* \"#utility.yul\":4712:4730   */\n      0x24\n      dup4\n      add\n        /* \"#utility.yul\":4705:4739   */\n      dup2\n      swap1\n      mstore\n        /* \"contracts/Market.sol\":2492:2502  bal[_user] */\n      swap3\n        /* \"contracts/Market.sol\":2470:2489  uint256 availAmount */\n      swap1\n      swap2\n        /* \"contracts/Market.sol\":2551:2556  token */\n      immutable(\"0xb82efe928ba8047fc73c44199ae87270ba92aad773ed77645c6bc82e384fdb71\")\n        /* \"contracts/Market.sol\":2551:2565  token.transfer */\n      swap1\n      swap2\n      and\n      swap1\n      0xa9059cbb\n      swap1\n        /* \"#utility.yul\":4618:4636   */\n      0x44\n      add\n        /* \"contracts/Market.sol\":2551:2585  token.transfer(_user, availAmount) */\n      0x20\n      mload(0x40)\n      dup1\n      dup4\n      sub\n      dup2\n      0x00\n      dup8\n      dup1\n      extcodesize\n      iszero\n      dup1\n      iszero\n      tag_115\n      jumpi\n      0x00\n      dup1\n      revert\n    tag_115:\n      pop\n      gas\n      call\n      iszero\n      dup1\n      iszero\n      tag_117\n      jumpi\n      returndatasize\n      0x00\n      dup1\n      returndatacopy\n      revert(0x00, returndatasize)\n    tag_117:\n      pop\n      pop\n      pop\n      pop\n      mload(0x40)\n      returndatasize\n      not(0x1f)\n      0x1f\n      dup3\n      add\n      and\n      dup3\n      add\n      dup1\n      0x40\n      mstore\n      pop\n      dup2\n      add\n      swap1\n      tag_118\n      swap2\n      swap1\n      tag_119\n      jump\t// in\n    tag_118:\n        /* \"contracts/Market.sol\":2536:2585  bool success = token.transfer(_user, availAmount) */\n      swap1\n      pop\n        /* \"contracts/Market.sol\":2603:2610  success */\n      dup1\n        /* \"contracts/Market.sol\":2595:2640  require(success, \"transfer to caller failed\") */\n      tag_120\n      jumpi\n      mload(0x40)\n      shl(0xe5, 0x461bcd)\n      dup2\n      mstore\n        /* \"#utility.yul\":8055:8057   */\n      0x20\n        /* \"contracts/Market.sol\":2595:2640  require(success, \"transfer to caller failed\") */\n      0x04\n      dup3\n      add\n        /* \"#utility.yul\":8037:8058   */\n      mstore\n        /* \"#utility.yul\":8094:8096   */\n      0x19\n        /* \"#utility.yul\":8074:8092   */\n      0x24\n      dup3\n      add\n        /* \"#utility.yul\":8067:8097   */\n      mstore\n        /* \"#utility.yul\":8133:8160   */\n      0x7472616e7366657220746f2063616c6c6572206661696c656400000000000000\n        /* \"#utility.yul\":8113:8131   */\n      0x44\n      dup3\n      add\n        /* \"#utility.yul\":8106:8161   */\n      mstore\n        /* \"#utility.yul\":8178:8196   */\n      0x64\n      add\n        /* \"contracts/Market.sol\":2595:2640  require(success, \"transfer to caller failed\") */\n      tag_84\n        /* \"#utility.yul\":8027:8202   */\n      jump\n        /* \"contracts/Market.sol\":2595:2640  require(success, \"transfer to caller failed\") */\n    tag_120:\n        /* \"contracts/Market.sol\":2656:2684  Withdraw(_user, availAmount) */\n      0x40\n      dup1\n      mload\n      sub(shl(0xa0, 0x01), 0x01)\n        /* \"#utility.yul\":4663:4695   */\n      dup7\n      and\n        /* \"#utility.yul\":4645:4696   */\n      dup2\n      mstore\n        /* \"#utility.yul\":4727:4729   */\n      0x20\n        /* \"#utility.yul\":4712:4730   */\n      dup2\n      add\n        /* \"#utility.yul\":4705:4739   */\n      dup5\n      swap1\n      mstore\n        /* \"contracts/Market.sol\":2656:2684  Withdraw(_user, availAmount) */\n      0x884edad9ce6fa2440d8a54cc123490eb96d2768479d49ff9c7366125a9424364\n      swap2\n        /* \"#utility.yul\":4618:4636   */\n      add\n        /* \"contracts/Market.sol\":2656:2684  Withdraw(_user, availAmount) */\n      mload(0x40)\n      dup1\n      swap2\n      sub\n      swap1\n      log1\n        /* \"contracts/Market.sol\":2701:2705  true */\n      0x01\n        /* \"contracts/Market.sol\":2694:2705  return true */\n      swap3\n      pop\n      pop\n      pop\n        /* \"@openzeppelin/contracts/security/ReentrancyGuard.sol\":2484:2485  _ */\n    tag_101:\n        /* \"@openzeppelin/contracts/security/ReentrancyGuard.sol\":1701:1702  1 */\n      0x01\n        /* \"@openzeppelin/contracts/security/ReentrancyGuard.sol\":2628:2635  _status */\n      0x00\n        /* \"@openzeppelin/contracts/security/ReentrancyGuard.sol\":2628:2650  _status = _NOT_ENTERED */\n      sstore\n        /* \"contracts/Market.sol\":2245:2712  function withdraw(address _user) public override nonReentrant returns(bool) {... */\n      swap2\n      swap1\n      pop\n      jump\t// out\n        /* \"contracts/Market.sol\":3577:3897  function settleBet(bytes32 _bet) external override {... */\n    tag_47:\n        /* \"contracts/Market.sol\":3638:3661  bytes32[] memory _pairs */\n      0x00\n        /* \"contracts/Market.sol\":3664:3678  betPairs[_bet] */\n      dup2\n      dup2\n      mstore\n        /* \"contracts/Market.sol\":3664:3672  betPairs */\n      0x09\n        /* \"contracts/Market.sol\":3664:3678  betPairs[_bet] */\n      0x20\n      swap1\n      dup2\n      mstore\n      0x40\n      dup1\n      dup4\n      keccak256\n        /* \"contracts/Market.sol\":3638:3678  bytes32[] memory _pairs = betPairs[_bet] */\n      dup1\n      sload\n      dup3\n      mload\n      dup2\n      dup6\n      mul\n      dup2\n      add\n      dup6\n      add\n      swap1\n      swap4\n      mstore\n      dup1\n      dup4\n      mstore\n      swap2\n      swap3\n        /* \"contracts/Market.sol\":3664:3678  betPairs[_bet] */\n      swap1\n      swap2\n        /* \"contracts/Market.sol\":3638:3678  bytes32[] memory _pairs = betPairs[_bet] */\n      swap1\n      dup4\n      add\n        /* \"contracts/Market.sol\":3664:3678  betPairs[_bet] */\n      dup3\n        /* \"contracts/Market.sol\":3638:3678  bytes32[] memory _pairs = betPairs[_bet] */\n      dup3\n      dup1\n      iszero\n      tag_125\n      jumpi\n      0x20\n      mul\n      dup3\n      add\n      swap2\n      swap1\n      0x00\n      mstore\n      keccak256(0x00, 0x20)\n      swap1\n    tag_126:\n      dup2\n      sload\n      dup2\n      mstore\n      0x20\n      add\n      swap1\n      0x01\n      add\n      swap1\n      dup1\n      dup4\n      gt\n      tag_126\n      jumpi\n    tag_125:\n      pop\n      pop\n        /* \"contracts/Market.sol\":3707:3720  _pairs.length */\n      dup4\n      mload\n        /* \"contracts/Market.sol\":3638:3678  bytes32[] memory _pairs = betPairs[_bet] */\n      swap4\n      swap5\n      pop\n        /* \"contracts/Market.sol\":3688:3704  uint pairsLength */\n      0x00\n      swap3\n      pop\n      pop\n      pop\n        /* \"contracts/Market.sol\":3730:3814  for(uint i = 0; i < pairsLength; i++){... */\n    tag_127:\n        /* \"contracts/Market.sol\":3750:3761  pairsLength */\n      dup2\n        /* \"contracts/Market.sol\":3746:3747  i */\n      dup2\n        /* \"contracts/Market.sol\":3746:3761  i < pairsLength */\n      lt\n        /* \"contracts/Market.sol\":3730:3814  for(uint i = 0; i < pairsLength; i++){... */\n      iszero\n      tag_128\n      jumpi\n        /* \"contracts/Market.sol\":3781:3803  _settlePair(_pairs[i]) */\n      tag_130\n        /* \"contracts/Market.sol\":3793:3799  _pairs */\n      dup4\n        /* \"contracts/Market.sol\":3800:3801  i */\n      dup3\n        /* \"contracts/Market.sol\":3793:3802  _pairs[i] */\n      dup2\n      mload\n      dup2\n      lt\n      tag_131\n      jumpi\n      mstore(0x00, shl(0xe0, 0x4e487b71))\n      mstore(0x04, 0x32)\n      revert(0x00, 0x24)\n    tag_131:\n      0x20\n      mul\n      0x20\n      add\n      add\n      mload\n        /* \"contracts/Market.sol\":3781:3792  _settlePair */\n      tag_132\n        /* \"contracts/Market.sol\":3781:3803  _settlePair(_pairs[i]) */\n      jump\t// in\n    tag_130:\n      pop\n        /* \"contracts/Market.sol\":3763:3766  i++ */\n      dup1\n      tag_133\n      dup2\n      tag_134\n      jump\t// in\n    tag_133:\n      swap2\n      pop\n      pop\n        /* \"contracts/Market.sol\":3730:3814  for(uint i = 0; i < pairsLength; i++){... */\n      jump(tag_127)\n    tag_128:\n      pop\n        /* \"contracts/Market.sol\":3830:3840  msg.sender */\n      caller\n        /* \"contracts/Market.sol\":3844:3845  0 */\n      0x00\n        /* \"contracts/Market.sol\":3826:3841  bal[msg.sender] */\n      swap1\n      dup2\n      mstore\n        /* \"contracts/Market.sol\":3826:3829  bal */\n      0x05\n        /* \"contracts/Market.sol\":3826:3841  bal[msg.sender] */\n      0x20\n      mstore\n      0x40\n      swap1\n      keccak256\n      sload\n        /* \"contracts/Market.sol\":3826:3845  bal[msg.sender] > 0 */\n      iszero\n        /* \"contracts/Market.sol\":3823:3891  if(bal[msg.sender] > 0){... */\n      tag_135\n      jumpi\n        /* \"contracts/Market.sol\":3860:3880  withdraw(msg.sender) */\n      tag_136\n        /* \"contracts/Market.sol\":3869:3879  msg.sender */\n      caller\n        /* \"contracts/Market.sol\":3860:3868  withdraw */\n      tag_42\n        /* \"contracts/Market.sol\":3860:3880  withdraw(msg.sender) */\n      jump\t// in\n    tag_136:\n      pop\n        /* \"contracts/Market.sol\":3823:3891  if(bal[msg.sender] > 0){... */\n    tag_135:\n        /* \"contracts/Market.sol\":3577:3897  function settleBet(bytes32 _bet) external override {... */\n      pop\n      pop\n      pop\n      jump\t// out\n        /* \"contracts/Market.sol\":2815:3204  function withdrawPending(bytes32 _bet) public override {... */\n    tag_54:\n        /* \"contracts/Market.sol\":2880:2907  Struct.MarketBet memory bet */\n      0x00\n        /* \"contracts/Market.sol\":2910:2924  betsInfo[_bet] */\n      dup2\n      dup2\n      mstore\n        /* \"contracts/Market.sol\":2910:2918  betsInfo */\n      0x06\n        /* \"contracts/Market.sol\":2910:2924  betsInfo[_bet] */\n      0x20\n      swap1\n      dup2\n      mstore\n      0x40\n      swap2\n      dup3\n      swap1\n      keccak256\n        /* \"contracts/Market.sol\":2880:2924  Struct.MarketBet memory bet = betsInfo[_bet] */\n      dup3\n      mload\n      0xc0\n      dup2\n      add\n      dup5\n      mstore\n      dup2\n      sload\n      sub(shl(0xa0, 0x01), 0x01)\n      swap1\n      dup2\n      and\n      dup1\n      dup4\n      mstore\n      0x01\n      dup5\n      add\n      sload\n      swap1\n      swap2\n      and\n      swap4\n      dup3\n      add\n      swap4\n      swap1\n      swap4\n      mstore\n      0x02\n      dup3\n      add\n      sload\n      swap4\n      dup2\n      add\n      swap4\n      swap1\n      swap4\n      mstore\n      0x03\n      dup2\n      add\n      sload\n      0x60\n      dup5\n      add\n      mstore\n      0x04\n      dup2\n      add\n      sload\n      0x80\n      dup5\n      add\n      mstore\n      0x05\n      add\n      sload\n      0xa0\n      dup4\n      add\n      mstore\n        /* \"contracts/Market.sol\":2942:2952  msg.sender */\n      caller\n        /* \"contracts/Market.sol\":2942:2966  msg.sender == bet.better */\n      eq\n        /* \"contracts/Market.sol\":2934:2990  require(msg.sender == bet.better, \"unauthorized caller\") */\n      tag_138\n      jumpi\n      mload(0x40)\n      shl(0xe5, 0x461bcd)\n      dup2\n      mstore\n        /* \"#utility.yul\":7016:7018   */\n      0x20\n        /* \"contracts/Market.sol\":2934:2990  require(msg.sender == bet.better, \"unauthorized caller\") */\n      0x04\n      dup3\n      add\n        /* \"#utility.yul\":6998:7019   */\n      mstore\n        /* \"#utility.yul\":7055:7057   */\n      0x13\n        /* \"#utility.yul\":7035:7053   */\n      0x24\n      dup3\n      add\n        /* \"#utility.yul\":7028:7058   */\n      mstore\n      shl(0x69, 0x3ab730baba3437b934bd32b21031b0b63632b9)\n        /* \"#utility.yul\":7074:7092   */\n      0x44\n      dup3\n      add\n        /* \"#utility.yul\":7067:7116   */\n      mstore\n        /* \"#utility.yul\":7133:7151   */\n      0x64\n      add\n        /* \"contracts/Market.sol\":2934:2990  require(msg.sender == bet.better, \"unauthorized caller\") */\n      tag_84\n        /* \"#utility.yul\":6988:7157   */\n      jump\n        /* \"contracts/Market.sol\":2934:2990  require(msg.sender == bet.better, \"unauthorized caller\") */\n    tag_138:\n        /* \"contracts/Market.sol\":3000:3013  uint remStake */\n      0x00\n        /* \"contracts/Market.sol\":3028:3031  bet */\n      dup2\n        /* \"contracts/Market.sol\":3028:3039  bet.matched */\n      0x60\n      add\n      mload\n        /* \"contracts/Market.sol\":3016:3019  bet */\n      dup3\n        /* \"contracts/Market.sol\":3016:3025  bet.stake */\n      0x40\n      add\n      mload\n        /* \"contracts/Market.sol\":3016:3039  bet.stake - bet.matched */\n      tag_140\n      swap2\n      swap1\n      tag_141\n      jump\t// in\n    tag_140:\n        /* \"contracts/Market.sol\":3053:3063  bet.better */\n      dup3\n      mload\n      sub(shl(0xa0, 0x01), 0x01)\n        /* \"contracts/Market.sol\":3049:3064  bal[bet.better] */\n      and\n      0x00\n      swap1\n      dup2\n      mstore\n        /* \"contracts/Market.sol\":3049:3052  bal */\n      0x05\n        /* \"contracts/Market.sol\":3049:3064  bal[bet.better] */\n      0x20\n      mstore\n      0x40\n      dup2\n      keccak256\n        /* \"contracts/Market.sol\":3049:3076  bal[bet.better] += remStake */\n      dup1\n      sload\n        /* \"contracts/Market.sol\":3000:3039  uint remStake = bet.stake - bet.matched */\n      swap3\n      swap4\n      pop\n      dup4\n      swap3\n        /* \"contracts/Market.sol\":3049:3064  bal[bet.better] */\n      swap1\n      swap2\n      swap1\n        /* \"contracts/Market.sol\":3049:3076  bal[bet.better] += remStake */\n      tag_142\n      swap1\n        /* \"contracts/Market.sol\":3000:3039  uint remStake = bet.stake - bet.matched */\n      dup5\n      swap1\n        /* \"contracts/Market.sol\":3049:3076  bal[bet.better] += remStake */\n      tag_143\n      jump\t// in\n    tag_142:\n      swap1\n      swap2\n      sstore\n      pop\n      pop\n        /* \"contracts/Market.sol\":3111:3120  bet.stake */\n      0x40\n      dup1\n      dup4\n      add\n      mload\n        /* \"contracts/Market.sol\":3086:3100  betsInfo[_bet] */\n      0x00\n      dup6\n      dup2\n      mstore\n        /* \"contracts/Market.sol\":3086:3094  betsInfo */\n      0x06\n        /* \"contracts/Market.sol\":3086:3100  betsInfo[_bet] */\n      0x20\n      swap1\n      dup2\n      mstore\n      dup4\n      dup3\n      keccak256\n        /* \"contracts/Market.sol\":3086:3108  betsInfo[_bet].matched */\n      0x03\n      add\n        /* \"contracts/Market.sol\":3086:3120  betsInfo[_bet].matched = bet.stake */\n      swap3\n      swap1\n      swap3\n      sstore\n        /* \"contracts/Market.sol\":3137:3147  msg.sender */\n      caller\n        /* \"contracts/Market.sol\":3133:3148  bal[msg.sender] */\n      dup2\n      mstore\n        /* \"contracts/Market.sol\":3133:3136  bal */\n      0x05\n        /* \"contracts/Market.sol\":3133:3148  bal[msg.sender] */\n      swap1\n      swap2\n      mstore\n      keccak256\n      sload\n        /* \"contracts/Market.sol\":3133:3152  bal[msg.sender] > 0 */\n      iszero\n        /* \"contracts/Market.sol\":3130:3198  if(bal[msg.sender] > 0){... */\n      tag_135\n      jumpi\n        /* \"contracts/Market.sol\":3167:3187  withdraw(msg.sender) */\n      tag_136\n        /* \"contracts/Market.sol\":3176:3186  msg.sender */\n      caller\n        /* \"contracts/Market.sol\":3167:3175  withdraw */\n      tag_42\n        /* \"contracts/Market.sol\":3167:3187  withdraw(msg.sender) */\n      jump\t// in\n        /* \"contracts/Market.sol\":4378:4789  function settle(uint256 _winningSide)... */\n    tag_58:\n        /* \"contracts/Market.sol\":1083:1086  app */\n      sload(0x0a)\n        /* \"contracts/Market.sol\":1083:1113  app.getEventOwner(marketEvent) */\n      mload(0x40)\n      shl(0xe3, 0x1e558333)\n      dup2\n      mstore\n        /* \"contracts/Market.sol\":1101:1112  marketEvent */\n      immutable(\"0x535306ee4b42c92aecd0e71fca98572064f049c2babb2769faa3bbd87d67ec2d\")\n        /* \"contracts/Market.sol\":1083:1113  app.getEventOwner(marketEvent) */\n      0x04\n      dup3\n      add\n        /* \"#utility.yul\":5728:5753   */\n      mstore\n        /* \"contracts/Market.sol\":4486:4490  bool */\n      0x00\n      swap2\n      sub(shl(0xa0, 0x01), 0x01)\n        /* \"contracts/Market.sol\":1083:1086  app */\n      and\n      swap1\n        /* \"contracts/Market.sol\":1083:1100  app.getEventOwner */\n      0xf2ac1998\n      swap1\n        /* \"#utility.yul\":5701:5719   */\n      0x24\n      add\n        /* \"contracts/Market.sol\":1083:1113  app.getEventOwner(marketEvent) */\n      0x20\n      mload(0x40)\n      dup1\n      dup4\n      sub\n      dup2\n      dup7\n      dup1\n      extcodesize\n      iszero\n      dup1\n      iszero\n      tag_148\n      jumpi\n      0x00\n      dup1\n      revert\n    tag_148:\n      pop\n      gas\n      staticcall\n      iszero\n      dup1\n      iszero\n      tag_150\n      jumpi\n      returndatasize\n      0x00\n      dup1\n      returndatacopy\n      revert(0x00, returndatasize)\n    tag_150:\n      pop\n      pop\n      pop\n      pop\n      mload(0x40)\n      returndatasize\n      not(0x1f)\n      0x1f\n      dup3\n      add\n      and\n      dup3\n      add\n      dup1\n      0x40\n      mstore\n      pop\n      dup2\n      add\n      swap1\n      tag_151\n      swap2\n      swap1\n      tag_152\n      jump\t// in\n    tag_151:\n      sub(shl(0xa0, 0x01), 0x01)\n        /* \"contracts/Market.sol\":1069:1113  msg.sender == app.getEventOwner(marketEvent) */\n      and\n        /* \"contracts/Market.sol\":1069:1079  msg.sender */\n      caller\n      sub(shl(0xa0, 0x01), 0x01)\n        /* \"contracts/Market.sol\":1069:1113  msg.sender == app.getEventOwner(marketEvent) */\n      and\n      eq\n        /* \"contracts/Market.sol\":1069:1138  msg.sender == app.getEventOwner(marketEvent) || msg.sender == factory */\n      dup1\n      tag_153\n      jumpi\n      pop\n        /* \"contracts/Market.sol\":1131:1138  factory */\n      and(sub(shl(0xa0, 0x01), 0x01), sload(0x01))\n        /* \"contracts/Market.sol\":1117:1127  msg.sender */\n      caller\n        /* \"contracts/Market.sol\":1117:1138  msg.sender == factory */\n      eq\n        /* \"contracts/Market.sol\":1069:1138  msg.sender == app.getEventOwner(marketEvent) || msg.sender == factory */\n    tag_153:\n        /* \"contracts/Market.sol\":1048:1185  require(... */\n      tag_154\n      jumpi\n      mload(0x40)\n      shl(0xe5, 0x461bcd)\n      dup2\n      mstore\n      0x04\n      add\n      tag_84\n      swap1\n      tag_156\n      jump\t// in\n    tag_154:\n        /* \"contracts/Market.sol\":4509:4537  setWinningSide(_winningSide) */\n      tag_158\n        /* \"contracts/Market.sol\":4524:4536  _winningSide */\n      dup3\n        /* \"contracts/Market.sol\":4509:4523  setWinningSide */\n      tag_73\n        /* \"contracts/Market.sol\":4509:4537  setWinningSide(_winningSide) */\n      jump\t// in\n    tag_158:\n        /* \"contracts/Market.sol\":4506:4774  if(setWinningSide(_winningSide)){... */\n      iszero\n      tag_159\n      jumpi\n        /* \"contracts/Market.sol\":4571:4576  pairs */\n      0x03\n        /* \"contracts/Market.sol\":4571:4583  pairs.length */\n      sload\n        /* \"contracts/Market.sol\":4552:4568  uint pairsLength */\n      0x00\n        /* \"contracts/Market.sol\":4597:4688  for(uint i = 0; i < pairsLength; i++){... */\n    tag_160:\n        /* \"contracts/Market.sol\":4617:4628  pairsLength */\n      dup2\n        /* \"contracts/Market.sol\":4613:4614  i */\n      dup2\n        /* \"contracts/Market.sol\":4613:4628  i < pairsLength */\n      lt\n        /* \"contracts/Market.sol\":4597:4688  for(uint i = 0; i < pairsLength; i++){... */\n      iszero\n      tag_161\n      jumpi\n        /* \"contracts/Market.sol\":4652:4673  _settlePair(pairs[i]) */\n      tag_163\n        /* \"contracts/Market.sol\":4664:4669  pairs */\n      0x03\n        /* \"contracts/Market.sol\":4670:4671  i */\n      dup3\n        /* \"contracts/Market.sol\":4664:4672  pairs[i] */\n      dup2\n      sload\n      dup2\n      lt\n      tag_164\n      jumpi\n      mstore(0x00, shl(0xe0, 0x4e487b71))\n      mstore(0x04, 0x32)\n      revert(0x00, 0x24)\n    tag_164:\n      swap1\n      0x00\n      mstore\n      keccak256(0x00, 0x20)\n      add\n      sload\n        /* \"contracts/Market.sol\":4652:4663  _settlePair */\n      tag_132\n        /* \"contracts/Market.sol\":4652:4673  _settlePair(pairs[i]) */\n      jump\t// in\n    tag_163:\n      pop\n        /* \"contracts/Market.sol\":4630:4633  i++ */\n      dup1\n      tag_166\n      dup2\n      tag_134\n      jump\t// in\n    tag_166:\n      swap2\n      pop\n      pop\n        /* \"contracts/Market.sol\":4597:4688  for(uint i = 0; i < pairsLength; i++){... */\n      jump(tag_160)\n    tag_161:\n      pop\n        /* \"contracts/Market.sol\":4708:4712  true */\n      0x01\n      swap4\n        /* \"contracts/Market.sol\":4378:4789  function settle(uint256 _winningSide)... */\n      swap3\n      pop\n      pop\n      pop\n      jump\t// out\n        /* \"contracts/Market.sol\":4506:4774  if(setWinningSide(_winningSide)){... */\n    tag_159:\n      pop\n        /* \"contracts/Market.sol\":4758:4763  false */\n      0x00\n        /* \"contracts/Market.sol\":4378:4789  function settle(uint256 _winningSide)... */\n      swap2\n      swap1\n      pop\n      jump\t// out\n        /* \"contracts/Market.sol\":5026:5409  function cancelPlusPairs() external override onlyFactory returns(bool) ... */\n    tag_61:\n        /* \"contracts/Market.sol\":1083:1086  app */\n      sload(0x0a)\n        /* \"contracts/Market.sol\":1083:1113  app.getEventOwner(marketEvent) */\n      mload(0x40)\n      shl(0xe3, 0x1e558333)\n      dup2\n      mstore\n        /* \"contracts/Market.sol\":1101:1112  marketEvent */\n      immutable(\"0x535306ee4b42c92aecd0e71fca98572064f049c2babb2769faa3bbd87d67ec2d\")\n        /* \"contracts/Market.sol\":1083:1113  app.getEventOwner(marketEvent) */\n      0x04\n      dup3\n      add\n        /* \"#utility.yul\":5728:5753   */\n      mstore\n        /* \"contracts/Market.sol\":5091:5095  bool */\n      0x00\n      swap2\n      sub(shl(0xa0, 0x01), 0x01)\n        /* \"contracts/Market.sol\":1083:1086  app */\n      and\n      swap1\n        /* \"contracts/Market.sol\":1083:1100  app.getEventOwner */\n      0xf2ac1998\n      swap1\n        /* \"#utility.yul\":5701:5719   */\n      0x24\n      add\n        /* \"contracts/Market.sol\":1083:1113  app.getEventOwner(marketEvent) */\n      0x20\n      mload(0x40)\n      dup1\n      dup4\n      sub\n      dup2\n      dup7\n      dup1\n      extcodesize\n      iszero\n      dup1\n      iszero\n      tag_170\n      jumpi\n      0x00\n      dup1\n      revert\n    tag_170:\n      pop\n      gas\n      staticcall\n      iszero\n      dup1\n      iszero\n      tag_172\n      jumpi\n      returndatasize\n      0x00\n      dup1\n      returndatacopy\n      revert(0x00, returndatasize)\n    tag_172:\n      pop\n      pop\n      pop\n      pop\n      mload(0x40)\n      returndatasize\n      not(0x1f)\n      0x1f\n      dup3\n      add\n      and\n      dup3\n      add\n      dup1\n      0x40\n      mstore\n      pop\n      dup2\n      add\n      swap1\n      tag_173\n      swap2\n      swap1\n      tag_152\n      jump\t// in\n    tag_173:\n      sub(shl(0xa0, 0x01), 0x01)\n        /* \"contracts/Market.sol\":1069:1113  msg.sender == app.getEventOwner(marketEvent) */\n      and\n        /* \"contracts/Market.sol\":1069:1079  msg.sender */\n      caller\n      sub(shl(0xa0, 0x01), 0x01)\n        /* \"contracts/Market.sol\":1069:1113  msg.sender == app.getEventOwner(marketEvent) */\n      and\n      eq\n        /* \"contracts/Market.sol\":1069:1138  msg.sender == app.getEventOwner(marketEvent) || msg.sender == factory */\n      dup1\n      tag_174\n      jumpi\n      pop\n        /* \"contracts/Market.sol\":1131:1138  factory */\n      and(sub(shl(0xa0, 0x01), 0x01), sload(0x01))\n        /* \"contracts/Market.sol\":1117:1127  msg.sender */\n      caller\n        /* \"contracts/Market.sol\":1117:1138  msg.sender == factory */\n      eq\n        /* \"contracts/Market.sol\":1069:1138  msg.sender == app.getEventOwner(marketEvent) || msg.sender == factory */\n    tag_174:\n        /* \"contracts/Market.sol\":1048:1185  require(... */\n      tag_175\n      jumpi\n      mload(0x40)\n      shl(0xe5, 0x461bcd)\n      dup2\n      mstore\n      0x04\n      add\n      tag_84\n      swap1\n      tag_156\n      jump\t// in\n    tag_175:\n        /* \"contracts/Market.sol\":5116:5122  status */\n      sload(0x02)\n        /* \"contracts/Market.sol\":5116:5127  status == 0 */\n      iszero\n      dup1\n        /* \"contracts/Market.sol\":5116:5142  status == 0 || status == 4 */\n      tag_178\n      jumpi\n      pop\n        /* \"contracts/Market.sol\":5131:5137  status */\n      sload(0x02)\n        /* \"contracts/Market.sol\":5141:5142  4 */\n      0x04\n        /* \"contracts/Market.sol\":5131:5142  status == 4 */\n      eq\n        /* \"contracts/Market.sol\":5116:5142  status == 0 || status == 4 */\n    tag_178:\n        /* \"contracts/Market.sol\":5113:5403  if(status == 0 || status == 4){... */\n      iszero\n      tag_179\n      jumpi\n        /* \"contracts/Market.sol\":5176:5181  pairs */\n      0x03\n        /* \"contracts/Market.sol\":5176:5188  pairs.length */\n      sload\n        /* \"contracts/Market.sol\":5157:5173  uint pairsLength */\n      0x00\n        /* \"contracts/Market.sol\":5202:5293  for(uint i = 0; i < pairsLength; i++){... */\n    tag_180:\n        /* \"contracts/Market.sol\":5222:5233  pairsLength */\n      dup2\n        /* \"contracts/Market.sol\":5218:5219  i */\n      dup2\n        /* \"contracts/Market.sol\":5218:5233  i < pairsLength */\n      lt\n        /* \"contracts/Market.sol\":5202:5293  for(uint i = 0; i < pairsLength; i++){... */\n      iszero\n      tag_181\n      jumpi\n        /* \"contracts/Market.sol\":5257:5278  _cancelPair(pairs[i]) */\n      tag_183\n        /* \"contracts/Market.sol\":5269:5274  pairs */\n      0x03\n        /* \"contracts/Market.sol\":5275:5276  i */\n      dup3\n        /* \"contracts/Market.sol\":5269:5277  pairs[i] */\n      dup2\n      sload\n      dup2\n      lt\n      tag_184\n      jumpi\n      mstore(0x00, shl(0xe0, 0x4e487b71))\n      mstore(0x04, 0x32)\n      revert(0x00, 0x24)\n    tag_184:\n      swap1\n      0x00\n      mstore\n      keccak256(0x00, 0x20)\n      add\n      sload\n        /* \"contracts/Market.sol\":5257:5268  _cancelPair */\n      tag_186\n        /* \"contracts/Market.sol\":5257:5278  _cancelPair(pairs[i]) */\n      jump\t// in\n    tag_183:\n      pop\n        /* \"contracts/Market.sol\":5235:5238  i++ */\n      dup1\n      tag_187\n      dup2\n      tag_134\n      jump\t// in\n    tag_187:\n      swap2\n      pop\n      pop\n        /* \"contracts/Market.sol\":5202:5293  for(uint i = 0; i < pairsLength; i++){... */\n      jump(tag_180)\n    tag_181:\n      pop\n      pop\n        /* \"contracts/Market.sol\":5315:5316  3 */\n      0x03\n        /* \"contracts/Market.sol\":5306:5312  status */\n      0x02\n        /* \"contracts/Market.sol\":5306:5316  status = 3 */\n      sstore\n      pop\n        /* \"contracts/Market.sol\":5337:5341  true */\n      0x01\n        /* \"contracts/Market.sol\":5026:5409  function cancelPlusPairs() external override onlyFactory returns(bool) ... */\n      swap1\n      jump\t// out\n        /* \"contracts/Market.sol\":5113:5403  if(status == 0 || status == 4){... */\n    tag_179:\n      pop\n        /* \"contracts/Market.sol\":5387:5392  false */\n      0x00\n        /* \"contracts/Market.sol\":5026:5409  function cancelPlusPairs() external override onlyFactory returns(bool) ... */\n      swap1\n      jump\t// out\n        /* \"contracts/Market.sol\":5623:8210  function addBet(... */\n    tag_66:\n        /* \"contracts/Market.sol\":5837:5840  app */\n      sload(0x0a)\n        /* \"contracts/Market.sol\":5837:5860  app.isBlack(msg.sender) */\n      mload(0x40)\n      shl(0xe0, 0x332daccf)\n      dup2\n      mstore\n        /* \"contracts/Market.sol\":5849:5859  msg.sender */\n      caller\n        /* \"contracts/Market.sol\":5837:5860  app.isBlack(msg.sender) */\n      0x04\n      dup3\n      add\n        /* \"#utility.yul\":3124:3175   */\n      mstore\n        /* \"contracts/Market.sol\":5805:5812  bytes32 */\n      0x00\n      swap2\n      sub(shl(0xa0, 0x01), 0x01)\n        /* \"contracts/Market.sol\":5837:5840  app */\n      and\n      swap1\n        /* \"contracts/Market.sol\":5837:5848  app.isBlack */\n      0x332daccf\n      swap1\n        /* \"#utility.yul\":3097:3115   */\n      0x24\n      add\n        /* \"contracts/Market.sol\":5837:5860  app.isBlack(msg.sender) */\n      0x20\n      mload(0x40)\n      dup1\n      dup4\n      sub\n      dup2\n      dup7\n      dup1\n      extcodesize\n      iszero\n      dup1\n      iszero\n      tag_191\n      jumpi\n      0x00\n      dup1\n      revert\n    tag_191:\n      pop\n      gas\n      staticcall\n      iszero\n      dup1\n      iszero\n      tag_193\n      jumpi\n      returndatasize\n      0x00\n      dup1\n      returndatacopy\n      revert(0x00, returndatasize)\n    tag_193:\n      pop\n      pop\n      pop\n      pop\n      mload(0x40)\n      returndatasize\n      not(0x1f)\n      0x1f\n      dup3\n      add\n      and\n      dup3\n      add\n      dup1\n      0x40\n      mstore\n      pop\n      dup2\n      add\n      swap1\n      tag_194\n      swap2\n      swap1\n      tag_119\n      jump\t// in\n    tag_194:\n        /* \"contracts/Market.sol\":5836:5860  !app.isBlack(msg.sender) */\n      iszero\n        /* \"contracts/Market.sol\":5828:5874  require(!app.isBlack(msg.sender), \"blacklist\") */\n      tag_195\n      jumpi\n      mload(0x40)\n      shl(0xe5, 0x461bcd)\n      dup2\n      mstore\n        /* \"#utility.yul\":9461:9463   */\n      0x20\n        /* \"contracts/Market.sol\":5828:5874  require(!app.isBlack(msg.sender), \"blacklist\") */\n      0x04\n      dup3\n      add\n        /* \"#utility.yul\":9443:9464   */\n      mstore\n        /* \"#utility.yul\":9500:9501   */\n      0x09\n        /* \"#utility.yul\":9480:9498   */\n      0x24\n      dup3\n      add\n        /* \"#utility.yul\":9473:9502   */\n      mstore\n      shl(0xba, 0x189b1858dadb1a5cdd)\n        /* \"#utility.yul\":9518:9536   */\n      0x44\n      dup3\n      add\n        /* \"#utility.yul\":9511:9550   */\n      mstore\n        /* \"#utility.yul\":9567:9585   */\n      0x64\n      add\n        /* \"contracts/Market.sol\":5828:5874  require(!app.isBlack(msg.sender), \"blacklist\") */\n      tag_84\n        /* \"#utility.yul\":9433:9591   */\n      jump\n        /* \"contracts/Market.sol\":5828:5874  require(!app.isBlack(msg.sender), \"blacklist\") */\n    tag_195:\n        /* \"contracts/Market.sol\":5892:5898  status */\n      sload(0x02)\n        /* \"contracts/Market.sol\":5892:5903  status == 0 */\n      iszero\n        /* \"contracts/Market.sol\":5884:5925  require(status == 0, \"market not active\") */\n      tag_198\n      jumpi\n      mload(0x40)\n      shl(0xe5, 0x461bcd)\n      dup2\n      mstore\n        /* \"#utility.yul\":6314:6316   */\n      0x20\n        /* \"contracts/Market.sol\":5884:5925  require(status == 0, \"market not active\") */\n      0x04\n      dup3\n      add\n        /* \"#utility.yul\":6296:6317   */\n      mstore\n        /* \"#utility.yul\":6353:6355   */\n      0x11\n        /* \"#utility.yul\":6333:6351   */\n      0x24\n      dup3\n      add\n        /* \"#utility.yul\":6326:6356   */\n      mstore\n      shl(0x78, 0x6d61726b6574206e6f7420616374697665)\n        /* \"#utility.yul\":6372:6390   */\n      0x44\n      dup3\n      add\n        /* \"#utility.yul\":6365:6412   */\n      mstore\n        /* \"#utility.yul\":6429:6447   */\n      0x64\n      add\n        /* \"contracts/Market.sol\":5884:5925  require(status == 0, \"market not active\") */\n      tag_84\n        /* \"#utility.yul\":6286:6453   */\n      jump\n        /* \"contracts/Market.sol\":5884:5925  require(status == 0, \"market not active\") */\n    tag_198:\n        /* \"contracts/Market.sol\":5943:5948  _side */\n      dup3\n        /* \"contracts/Market.sol\":5952:5953  1 */\n      0x01\n        /* \"contracts/Market.sol\":5943:5953  _side == 1 */\n      eq\n        /* \"contracts/Market.sol\":5943:5967  _side == 1 || _side == 2 */\n      dup1\n      tag_201\n      jumpi\n      pop\n        /* \"contracts/Market.sol\":5957:5962  _side */\n      dup3\n        /* \"contracts/Market.sol\":5966:5967  2 */\n      0x02\n        /* \"contracts/Market.sol\":5957:5967  _side == 2 */\n      eq\n        /* \"contracts/Market.sol\":5943:5967  _side == 1 || _side == 2 */\n    tag_201:\n        /* \"contracts/Market.sol\":5935:5984  require(_side == 1 || _side == 2, \"invalid side\") */\n      tag_202\n      jumpi\n      mload(0x40)\n      shl(0xe5, 0x461bcd)\n      dup2\n      mstore\n        /* \"#utility.yul\":7714:7716   */\n      0x20\n        /* \"contracts/Market.sol\":5935:5984  require(_side == 1 || _side == 2, \"invalid side\") */\n      0x04\n      dup3\n      add\n        /* \"#utility.yul\":7696:7717   */\n      mstore\n        /* \"#utility.yul\":7753:7755   */\n      0x0c\n        /* \"#utility.yul\":7733:7751   */\n      0x24\n      dup3\n      add\n        /* \"#utility.yul\":7726:7756   */\n      mstore\n      shl(0xa0, 0x696e76616c69642073696465)\n        /* \"#utility.yul\":7772:7790   */\n      0x44\n      dup3\n      add\n        /* \"#utility.yul\":7765:7807   */\n      mstore\n        /* \"#utility.yul\":7824:7842   */\n      0x64\n      add\n        /* \"contracts/Market.sol\":5935:5984  require(_side == 1 || _side == 2, \"invalid side\") */\n      tag_84\n        /* \"#utility.yul\":7686:7848   */\n      jump\n        /* \"contracts/Market.sol\":5935:5984  require(_side == 1 || _side == 2, \"invalid side\") */\n    tag_202:\n        /* \"contracts/Market.sol\":6002:6029  token.balanceOf(msg.sender) */\n      mload(0x40)\n      shl(0xe0, 0x70a08231)\n      dup2\n      mstore\n        /* \"contracts/Market.sol\":6018:6028  msg.sender */\n      caller\n        /* \"contracts/Market.sol\":6002:6029  token.balanceOf(msg.sender) */\n      0x04\n      dup3\n      add\n        /* \"#utility.yul\":3124:3175   */\n      mstore\n        /* \"contracts/Market.sol\":6033:6039  _stake */\n      dup6\n      swap1\n        /* \"contracts/Market.sol\":6002:6007  token */\n      immutable(\"0xb82efe928ba8047fc73c44199ae87270ba92aad773ed77645c6bc82e384fdb71\")\n      sub(shl(0xa0, 0x01), 0x01)\n        /* \"contracts/Market.sol\":6002:6017  token.balanceOf */\n      and\n      swap1\n      0x70a08231\n      swap1\n        /* \"#utility.yul\":3097:3115   */\n      0x24\n      add\n        /* \"contracts/Market.sol\":6002:6029  token.balanceOf(msg.sender) */\n      0x20\n      mload(0x40)\n      dup1\n      dup4\n      sub\n      dup2\n      dup7\n      dup1\n      extcodesize\n      iszero\n      dup1\n      iszero\n      tag_206\n      jumpi\n      0x00\n      dup1\n      revert\n    tag_206:\n      pop\n      gas\n      staticcall\n      iszero\n      dup1\n      iszero\n      tag_208\n      jumpi\n      returndatasize\n      0x00\n      dup1\n      returndatacopy\n      revert(0x00, returndatasize)\n    tag_208:\n      pop\n      pop\n      pop\n      pop\n      mload(0x40)\n      returndatasize\n      not(0x1f)\n      0x1f\n      dup3\n      add\n      and\n      dup3\n      add\n      dup1\n      0x40\n      mstore\n      pop\n      dup2\n      add\n      swap1\n      tag_209\n      swap2\n      swap1\n      tag_108\n      jump\t// in\n    tag_209:\n        /* \"contracts/Market.sol\":6002:6039  token.balanceOf(msg.sender) >= _stake */\n      lt\n      iszero\n        /* \"contracts/Market.sol\":5994:6068  require(token.balanceOf(msg.sender) >= _stake,\"not enough token balalnce\") */\n      tag_210\n      jumpi\n      mload(0x40)\n      shl(0xe5, 0x461bcd)\n      dup2\n      mstore\n        /* \"#utility.yul\":8758:8760   */\n      0x20\n        /* \"contracts/Market.sol\":5994:6068  require(token.balanceOf(msg.sender) >= _stake,\"not enough token balalnce\") */\n      0x04\n      dup3\n      add\n        /* \"#utility.yul\":8740:8761   */\n      mstore\n        /* \"#utility.yul\":8797:8799   */\n      0x19\n        /* \"#utility.yul\":8777:8795   */\n      0x24\n      dup3\n      add\n        /* \"#utility.yul\":8770:8800   */\n      mstore\n        /* \"#utility.yul\":8836:8863   */\n      0x6e6f7420656e6f75676820746f6b656e2062616c616c6e636500000000000000\n        /* \"#utility.yul\":8816:8834   */\n      0x44\n      dup3\n      add\n        /* \"#utility.yul\":8809:8864   */\n      mstore\n        /* \"#utility.yul\":8881:8899   */\n      0x64\n      add\n        /* \"contracts/Market.sol\":5994:6068  require(token.balanceOf(msg.sender) >= _stake,\"not enough token balalnce\") */\n      tag_84\n        /* \"#utility.yul\":8730:8905   */\n      jump\n        /* \"contracts/Market.sol\":5994:6068  require(token.balanceOf(msg.sender) >= _stake,\"not enough token balalnce\") */\n    tag_210:\n        /* \"contracts/Market.sol\":6086:6128  token.allowance(msg.sender, address(this)) */\n      mload(0x40)\n      shl(0xe1, 0x6eb1769f)\n      dup2\n      mstore\n        /* \"contracts/Market.sol\":6102:6112  msg.sender */\n      caller\n        /* \"contracts/Market.sol\":6086:6128  token.allowance(msg.sender, address(this)) */\n      0x04\n      dup3\n      add\n        /* \"#utility.yul\":3398:3432   */\n      mstore\n        /* \"contracts/Market.sol\":6122:6126  this */\n      address\n        /* \"#utility.yul\":3448:3466   */\n      0x24\n      dup3\n      add\n        /* \"#utility.yul\":3441:3484   */\n      mstore\n        /* \"contracts/Market.sol\":6132:6138  _stake */\n      dup6\n      swap1\n        /* \"contracts/Market.sol\":6086:6091  token */\n      immutable(\"0xb82efe928ba8047fc73c44199ae87270ba92aad773ed77645c6bc82e384fdb71\")\n      sub(shl(0xa0, 0x01), 0x01)\n        /* \"contracts/Market.sol\":6086:6101  token.allowance */\n      and\n      swap1\n      0xdd62ed3e\n      swap1\n        /* \"#utility.yul\":3333:3351   */\n      0x44\n      add\n        /* \"contracts/Market.sol\":6086:6128  token.allowance(msg.sender, address(this)) */\n      0x20\n      mload(0x40)\n      dup1\n      dup4\n      sub\n      dup2\n      dup7\n      dup1\n      extcodesize\n      iszero\n      dup1\n      iszero\n      tag_215\n      jumpi\n      0x00\n      dup1\n      revert\n    tag_215:\n      pop\n      gas\n      staticcall\n      iszero\n      dup1\n      iszero\n      tag_217\n      jumpi\n      returndatasize\n      0x00\n      dup1\n      returndatacopy\n      revert(0x00, returndatasize)\n    tag_217:\n      pop\n      pop\n      pop\n      pop\n      mload(0x40)\n      returndatasize\n      not(0x1f)\n      0x1f\n      dup3\n      add\n      and\n      dup3\n      add\n      dup1\n      0x40\n      mstore\n      pop\n      dup2\n      add\n      swap1\n      tag_218\n      swap2\n      swap1\n      tag_108\n      jump\t// in\n    tag_218:\n        /* \"contracts/Market.sol\":6086:6138  token.allowance(msg.sender, address(this)) >= _stake */\n      lt\n      iszero\n        /* \"contracts/Market.sol\":6078:6162  require(token.allowance(msg.sender, address(this)) >= _stake,\"not enough allowance\") */\n      tag_219\n      jumpi\n      mload(0x40)\n      shl(0xe5, 0x461bcd)\n      dup2\n      mstore\n        /* \"#utility.yul\":9112:9114   */\n      0x20\n        /* \"contracts/Market.sol\":6078:6162  require(token.allowance(msg.sender, address(this)) >= _stake,\"not enough allowance\") */\n      0x04\n      dup3\n      add\n        /* \"#utility.yul\":9094:9115   */\n      mstore\n        /* \"#utility.yul\":9151:9153   */\n      0x14\n        /* \"#utility.yul\":9131:9149   */\n      0x24\n      dup3\n      add\n        /* \"#utility.yul\":9124:9154   */\n      mstore\n      shl(0x60, 0x6e6f7420656e6f75676820616c6c6f77616e6365)\n        /* \"#utility.yul\":9170:9188   */\n      0x44\n      dup3\n      add\n        /* \"#utility.yul\":9163:9213   */\n      mstore\n        /* \"#utility.yul\":9230:9248   */\n      0x64\n      add\n        /* \"contracts/Market.sol\":6078:6162  require(token.allowance(msg.sender, address(this)) >= _stake,\"not enough allowance\") */\n      tag_84\n        /* \"#utility.yul\":9084:9254   */\n      jump\n        /* \"contracts/Market.sol\":6078:6162  require(token.allowance(msg.sender, address(this)) >= _stake,\"not enough allowance\") */\n    tag_219:\n        /* \"contracts/Market.sol\":6190:6193  app */\n      0x0a\n      0x00\n      swap1\n      sload\n      swap1\n      0x0100\n      exp\n      swap1\n      div\n      sub(shl(0xa0, 0x01), 0x01)\n      and\n      sub(shl(0xa0, 0x01), 0x01)\n        /* \"contracts/Market.sol\":6190:6202  app.minStake */\n      and\n      0x375b3c0a\n        /* \"contracts/Market.sol\":6190:6204  app.minStake() */\n      mload(0x40)\n      dup2\n      0xffffffff\n      and\n      0xe0\n      shl\n      dup2\n      mstore\n      0x04\n      add\n      0x20\n      mload(0x40)\n      dup1\n      dup4\n      sub\n      dup2\n      dup7\n      dup1\n      extcodesize\n      iszero\n      dup1\n      iszero\n      tag_222\n      jumpi\n      0x00\n      dup1\n      revert\n    tag_222:\n      pop\n      gas\n      staticcall\n      iszero\n      dup1\n      iszero\n      tag_224\n      jumpi\n      returndatasize\n      0x00\n      dup1\n      returndatacopy\n      revert(0x00, returndatasize)\n    tag_224:\n      pop\n      pop\n      pop\n      pop\n      mload(0x40)\n      returndatasize\n      not(0x1f)\n      0x1f\n      dup3\n      add\n      and\n      dup3\n      add\n      dup1\n      0x40\n      mstore\n      pop\n      dup2\n      add\n      swap1\n      tag_225\n      swap2\n      swap1\n      tag_108\n      jump\t// in\n    tag_225:\n        /* \"contracts/Market.sol\":6180:6186  _stake */\n      dup6\n        /* \"contracts/Market.sol\":6180:6204  _stake >= app.minStake() */\n      lt\n      iszero\n        /* \"contracts/Market.sol\":6172:6227  require(_stake >= app.minStake(),\"less than min stake\") */\n      tag_226\n      jumpi\n      mload(0x40)\n      shl(0xe5, 0x461bcd)\n      dup2\n      mstore\n        /* \"#utility.yul\":5966:5968   */\n      0x20\n        /* \"contracts/Market.sol\":6172:6227  require(_stake >= app.minStake(),\"less than min stake\") */\n      0x04\n      dup3\n      add\n        /* \"#utility.yul\":5948:5969   */\n      mstore\n        /* \"#utility.yul\":6005:6007   */\n      0x13\n        /* \"#utility.yul\":5985:6003   */\n      0x24\n      dup3\n      add\n        /* \"#utility.yul\":5978:6008   */\n      mstore\n      shl(0x68, 0x6c657373207468616e206d696e207374616b65)\n        /* \"#utility.yul\":6024:6042   */\n      0x44\n      dup3\n      add\n        /* \"#utility.yul\":6017:6066   */\n      mstore\n        /* \"#utility.yul\":6083:6101   */\n      0x64\n      add\n        /* \"contracts/Market.sol\":6172:6227  require(_stake >= app.minStake(),\"less than min stake\") */\n      tag_84\n        /* \"#utility.yul\":5938:6107   */\n      jump\n        /* \"contracts/Market.sol\":6172:6227  require(_stake >= app.minStake(),\"less than min stake\") */\n    tag_226:\n        /* \"contracts/Market.sol\":6258:6311  token.transferFrom(msg.sender, address(this), _stake) */\n      mload(0x40)\n      shl(0xe0, 0x23b872dd)\n      dup2\n      mstore\n        /* \"contracts/Market.sol\":6277:6287  msg.sender */\n      caller\n        /* \"contracts/Market.sol\":6258:6311  token.transferFrom(msg.sender, address(this), _stake) */\n      0x04\n      dup3\n      add\n        /* \"#utility.yul\":4331:4365   */\n      mstore\n        /* \"contracts/Market.sol\":6297:6301  this */\n      address\n        /* \"#utility.yul\":4381:4399   */\n      0x24\n      dup3\n      add\n        /* \"#utility.yul\":4374:4417   */\n      mstore\n        /* \"#utility.yul\":4433:4451   */\n      0x44\n      dup2\n      add\n        /* \"#utility.yul\":4426:4460   */\n      dup7\n      swap1\n      mstore\n        /* \"contracts/Market.sol\":6258:6263  token */\n      immutable(\"0xb82efe928ba8047fc73c44199ae87270ba92aad773ed77645c6bc82e384fdb71\")\n      sub(shl(0xa0, 0x01), 0x01)\n        /* \"contracts/Market.sol\":6258:6276  token.transferFrom */\n      and\n      swap1\n      0x23b872dd\n      swap1\n        /* \"#utility.yul\":4266:4284   */\n      0x64\n      add\n        /* \"contracts/Market.sol\":6258:6311  token.transferFrom(msg.sender, address(this), _stake) */\n      0x20\n      mload(0x40)\n      dup1\n      dup4\n      sub\n      dup2\n      0x00\n      dup8\n      dup1\n      extcodesize\n      iszero\n      dup1\n      iszero\n      tag_231\n      jumpi\n      0x00\n      dup1\n      revert\n    tag_231:\n      pop\n      gas\n      call\n      iszero\n      dup1\n      iszero\n      tag_233\n      jumpi\n      returndatasize\n      0x00\n      dup1\n      returndatacopy\n      revert(0x00, returndatasize)\n    tag_233:\n      pop\n      pop\n      pop\n      pop\n      mload(0x40)\n      returndatasize\n      not(0x1f)\n      0x1f\n      dup3\n      add\n      and\n      dup3\n      add\n      dup1\n      0x40\n      mstore\n      pop\n      dup2\n      add\n      swap1\n      tag_234\n      swap2\n      swap1\n      tag_119\n      jump\t// in\n    tag_234:\n        /* \"contracts/Market.sol\":6237:6364  require(... */\n      tag_235\n      jumpi\n      mload(0x40)\n      shl(0xe5, 0x461bcd)\n      dup2\n      mstore\n        /* \"#utility.yul\":6660:6662   */\n      0x20\n        /* \"contracts/Market.sol\":6237:6364  require(... */\n      0x04\n      dup3\n      add\n        /* \"#utility.yul\":6642:6663   */\n      mstore\n        /* \"#utility.yul\":6699:6701   */\n      0x1b\n        /* \"#utility.yul\":6679:6697   */\n      0x24\n      dup3\n      add\n        /* \"#utility.yul\":6672:6702   */\n      mstore\n        /* \"#utility.yul\":6738:6767   */\n      0x7472616e736665722066726f6d2063616c6c6572206661696c65640000000000\n        /* \"#utility.yul\":6718:6736   */\n      0x44\n      dup3\n      add\n        /* \"#utility.yul\":6711:6768   */\n      mstore\n        /* \"#utility.yul\":6785:6803   */\n      0x64\n      add\n        /* \"contracts/Market.sol\":6237:6364  require(... */\n      tag_84\n        /* \"#utility.yul\":6632:6809   */\n      jump\n        /* \"contracts/Market.sol\":6237:6364  require(... */\n    tag_235:\n        /* \"contracts/Market.sol\":6374:6389  bytes32 betHash */\n      0x00\n        /* \"contracts/Market.sol\":6392:6557  _createBet(... */\n      tag_238\n        /* \"contracts/Market.sol\":6416:6426  msg.sender */\n      caller\n        /* \"contracts/Market.sol\":6440:6450  _affiliate */\n      dup9\n        /* \"contracts/Market.sol\":6464:6470  _stake */\n      dup9\n        /* \"contracts/Market.sol\":6374:6389  bytes32 betHash */\n      dup5\n        /* \"contracts/Market.sol\":6516:6527  _odds - 100 */\n      tag_239\n        /* \"contracts/Market.sol\":6524:6527  100 */\n      0x64\n        /* \"contracts/Market.sol\":6516:6521  _odds */\n      dup12\n        /* \"contracts/Market.sol\":6516:6527  _odds - 100 */\n      tag_141\n      jump\t// in\n    tag_239:\n        /* \"contracts/Market.sol\":6500:6511  _odds * 100 */\n      tag_240\n        /* \"contracts/Market.sol\":6500:6505  _odds */\n      dup12\n        /* \"contracts/Market.sol\":6508:6511  100 */\n      0x64\n        /* \"contracts/Market.sol\":6500:6511  _odds * 100 */\n      tag_241\n      jump\t// in\n    tag_240:\n        /* \"contracts/Market.sol\":6499:6528  (_odds * 100) / (_odds - 100) */\n      tag_242\n      swap2\n      swap1\n      tag_243\n      jump\t// in\n    tag_242:\n        /* \"contracts/Market.sol\":6542:6547  _side */\n      dup10\n        /* \"contracts/Market.sol\":6392:6402  _createBet */\n      tag_244\n        /* \"contracts/Market.sol\":6392:6557  _createBet(... */\n      jump\t// in\n    tag_238:\n        /* \"contracts/Market.sol\":6803:6807  bets */\n      0x04\n        /* \"contracts/Market.sol\":6803:6814  bets.length */\n      sload\n        /* \"contracts/Market.sol\":6374:6557  bytes32 betHash = _createBet(... */\n      swap1\n      swap2\n      pop\n        /* \"contracts/Market.sol\":6803:6818  bets.length > 0 */\n      iszero\n        /* \"contracts/Market.sol\":6800:8097  if(bets.length > 0){... */\n      tag_245\n      jumpi\n        /* \"contracts/Market.sol\":6891:6895  bets */\n      0x04\n        /* \"contracts/Market.sol\":6891:6902  bets.length */\n      sload\n        /* \"contracts/Market.sol\":6850:6856  _stake */\n      dup7\n      swap1\n        /* \"contracts/Market.sol\":6916:8087  while(_remStake >= app.minStake()){... */\n    tag_246:\n        /* \"contracts/Market.sol\":6935:6938  app */\n      0x0a\n      0x00\n      swap1\n      sload\n      swap1\n      0x0100\n      exp\n      swap1\n      div\n      sub(shl(0xa0, 0x01), 0x01)\n      and\n      sub(shl(0xa0, 0x01), 0x01)\n        /* \"contracts/Market.sol\":6935:6947  app.minStake */\n      and\n      0x375b3c0a\n        /* \"contracts/Market.sol\":6935:6949  app.minStake() */\n      mload(0x40)\n      dup2\n      0xffffffff\n      and\n      0xe0\n      shl\n      dup2\n      mstore\n      0x04\n      add\n      0x20\n      mload(0x40)\n      dup1\n      dup4\n      sub\n      dup2\n      dup7\n      dup1\n      extcodesize\n      iszero\n      dup1\n      iszero\n      tag_248\n      jumpi\n      0x00\n      dup1\n      revert\n    tag_248:\n      pop\n      gas\n      staticcall\n      iszero\n      dup1\n      iszero\n      tag_250\n      jumpi\n      returndatasize\n      0x00\n      dup1\n      returndatacopy\n      revert(0x00, returndatasize)\n    tag_250:\n      pop\n      pop\n      pop\n      pop\n      mload(0x40)\n      returndatasize\n      not(0x1f)\n      0x1f\n      dup3\n      add\n      and\n      dup3\n      add\n      dup1\n      0x40\n      mstore\n      pop\n      dup2\n      add\n      swap1\n      tag_251\n      swap2\n      swap1\n      tag_108\n      jump\t// in\n    tag_251:\n        /* \"contracts/Market.sol\":6922:6931  _remStake */\n      dup3\n        /* \"contracts/Market.sol\":6922:6949  _remStake >= app.minStake() */\n      lt\n        /* \"contracts/Market.sol\":6916:8087  while(_remStake >= app.minStake()){... */\n      tag_247\n      jumpi\n        /* \"contracts/Market.sol\":6968:6986  uint selectedIndex */\n      0x00\n        /* \"contracts/Market.sol\":7008:7023  uint256 maxOdds */\n      dup1\n        /* \"contracts/Market.sol\":7049:7055  uint i */\n      0x00\n        /* \"contracts/Market.sol\":7045:7425  for(uint i = 0; i < betsLength; i++){... */\n    tag_252:\n        /* \"contracts/Market.sol\":7065:7075  betsLength */\n      dup4\n        /* \"contracts/Market.sol\":7061:7062  i */\n      dup2\n        /* \"contracts/Market.sol\":7061:7075  i < betsLength */\n      lt\n        /* \"contracts/Market.sol\":7045:7425  for(uint i = 0; i < betsLength; i++){... */\n      iszero\n      tag_253\n      jumpi\n        /* \"contracts/Market.sol\":7103:7114  bytes32 bet */\n      0x00\n        /* \"contracts/Market.sol\":7117:7121  bets */\n      0x04\n        /* \"contracts/Market.sol\":7122:7123  i */\n      dup3\n        /* \"contracts/Market.sol\":7117:7124  bets[i] */\n      dup2\n      sload\n      dup2\n      lt\n      tag_255\n      jumpi\n      mstore(0x00, shl(0xe0, 0x4e487b71))\n      mstore(0x04, 0x32)\n      revert(0x00, 0x24)\n    tag_255:\n      swap1\n      0x00\n      mstore\n      keccak256(0x00, 0x20)\n      add\n      sload\n        /* \"contracts/Market.sol\":7103:7124  bytes32 bet = bets[i] */\n      swap1\n      pop\n        /* \"contracts/Market.sol\":7158:7166  betsInfo */\n      0x06\n        /* \"contracts/Market.sol\":7158:7171  betsInfo[bet] */\n      0x00\n        /* \"contracts/Market.sol\":7167:7170  bet */\n      dup3\n        /* \"contracts/Market.sol\":7158:7171  betsInfo[bet] */\n      dup2\n      mstore\n      0x20\n      add\n      swap1\n      dup2\n      mstore\n      0x20\n      add\n      0x00\n      keccak256\n        /* \"contracts/Market.sol\":7158:7176  betsInfo[bet].side */\n      0x05\n      add\n      sload\n        /* \"contracts/Market.sol\":7149:7154  _side */\n      dup11\n        /* \"contracts/Market.sol\":7149:7176  _side == betsInfo[bet].side */\n      eq\n        /* \"contracts/Market.sol\":7146:7234  if(_side == betsInfo[bet].side){... */\n      iszero\n      tag_257\n      jumpi\n        /* \"contracts/Market.sol\":7203:7211  continue */\n      pop\n      jump(tag_254)\n        /* \"contracts/Market.sol\":7146:7234  if(_side == betsInfo[bet].side){... */\n    tag_257:\n        /* \"contracts/Market.sol\":7258:7271  betsInfo[bet] */\n      0x00\n      dup2\n      dup2\n      mstore\n        /* \"contracts/Market.sol\":7258:7266  betsInfo */\n      0x06\n        /* \"contracts/Market.sol\":7258:7271  betsInfo[bet] */\n      0x20\n      mstore\n      0x40\n      swap1\n      keccak256\n        /* \"contracts/Market.sol\":7258:7276  betsInfo[bet].odds */\n      0x04\n      add\n      sload\n        /* \"contracts/Market.sol\":7258:7286  betsInfo[bet].odds > maxOdds */\n      dup4\n      lt\n        /* \"contracts/Market.sol\":7255:7407  if(betsInfo[bet].odds > maxOdds){... */\n      iszero\n      tag_258\n      jumpi\n        /* \"contracts/Market.sol\":7323:7336  betsInfo[bet] */\n      0x00\n      dup2\n      dup2\n      mstore\n        /* \"contracts/Market.sol\":7323:7331  betsInfo */\n      0x06\n        /* \"contracts/Market.sol\":7323:7336  betsInfo[bet] */\n      0x20\n      mstore\n      0x40\n      swap1\n      keccak256\n        /* \"contracts/Market.sol\":7323:7341  betsInfo[bet].odds */\n      0x04\n      add\n      sload\n        /* \"contracts/Market.sol\":7383:7384  i */\n      swap2\n      swap4\n      pop\n        /* \"contracts/Market.sol\":7323:7341  betsInfo[bet].odds */\n      swap1\n      swap2\n      pop\n        /* \"contracts/Market.sol\":7383:7384  i */\n      dup3\n      swap1\n        /* \"contracts/Market.sol\":7255:7407  if(betsInfo[bet].odds > maxOdds){... */\n    tag_258:\n        /* \"contracts/Market.sol\":7045:7425  for(uint i = 0; i < betsLength; i++){... */\n      pop\n    tag_254:\n        /* \"contracts/Market.sol\":7077:7080  i++ */\n      dup1\n      tag_259\n      dup2\n      tag_134\n      jump\t// in\n    tag_259:\n      swap2\n      pop\n      pop\n        /* \"contracts/Market.sol\":7045:7425  for(uint i = 0; i < betsLength; i++){... */\n      jump(tag_252)\n    tag_253:\n      pop\n        /* \"contracts/Market.sol\":7442:7462  uint256 betterAmount */\n      0x00\n        /* \"contracts/Market.sol\":7498:7503  _odds */\n      dup10\n        /* \"contracts/Market.sol\":7487:7494  maxOdds */\n      dup3\n        /* \"contracts/Market.sol\":7487:7503  maxOdds >= _odds */\n      lt\n      iszero\n        /* \"contracts/Market.sol\":7487:7532  maxOdds >= _odds || (maxOdds > 0 && _instant) */\n      dup1\n      tag_261\n      jumpi\n      pop\n        /* \"contracts/Market.sol\":7518:7519  0 */\n      0x00\n        /* \"contracts/Market.sol\":7508:7515  maxOdds */\n      dup3\n        /* \"contracts/Market.sol\":7508:7519  maxOdds > 0 */\n      gt\n        /* \"contracts/Market.sol\":7508:7531  maxOdds > 0 && _instant */\n      dup1\n      iszero\n      tag_261\n      jumpi\n      pop\n        /* \"contracts/Market.sol\":7523:7531  _instant */\n      dup8\n        /* \"contracts/Market.sol\":7508:7531  maxOdds > 0 && _instant */\n    tag_261:\n        /* \"contracts/Market.sol\":7484:8030  if(maxOdds >= _odds || (maxOdds > 0 && _instant)) {... */\n      iszero\n      tag_262\n      jumpi\n        /* \"contracts/Market.sol\":7556:7576  bytes32 selectedHash */\n      0x00\n        /* \"contracts/Market.sol\":7579:7583  bets */\n      0x04\n        /* \"contracts/Market.sol\":7584:7597  selectedIndex */\n      dup5\n        /* \"contracts/Market.sol\":7579:7598  bets[selectedIndex] */\n      dup2\n      sload\n      dup2\n      lt\n      tag_263\n      jumpi\n      mstore(0x00, shl(0xe0, 0x4e487b71))\n      mstore(0x04, 0x32)\n      revert(0x00, 0x24)\n    tag_263:\n      0x00\n      swap2\n      dup3\n      mstore\n      0x20\n      dup1\n      dup4\n      keccak256\n      swap1\n      swap2\n      add\n      sload\n        /* \"contracts/Market.sol\":7658:7680  betsInfo[selectedHash] */\n      dup1\n      dup4\n      mstore\n        /* \"contracts/Market.sol\":7658:7666  betsInfo */\n      0x06\n        /* \"contracts/Market.sol\":7658:7680  betsInfo[selectedHash] */\n      dup3\n      mstore\n      0x40\n      dup1\n      dup5\n      keccak256\n        /* \"contracts/Market.sol\":7620:7680  Struct.MarketBet memory selectedBet = betsInfo[selectedHash] */\n      dup2\n      mload\n      0xc0\n      dup2\n      add\n      dup4\n      mstore\n      dup2\n      sload\n      sub(shl(0xa0, 0x01), 0x01)\n      swap1\n      dup2\n      and\n      dup3\n      mstore\n      0x01\n      dup4\n      add\n      sload\n      and\n      swap5\n      dup2\n      add\n      swap5\n      swap1\n      swap5\n      mstore\n      0x02\n      dup2\n      add\n      sload\n      swap2\n      dup5\n      add\n      swap2\n      swap1\n      swap2\n      mstore\n      0x03\n      dup2\n      add\n      sload\n      0x60\n      dup5\n      add\n      mstore\n      0x04\n      dup2\n      add\n      sload\n      0x80\n      dup5\n      add\n      mstore\n      0x05\n      add\n      sload\n      0xa0\n      dup4\n      add\n      mstore\n        /* \"contracts/Market.sol\":7579:7598  bets[selectedIndex] */\n      swap3\n      pop\n        /* \"contracts/Market.sol\":7620:7680  Struct.MarketBet memory selectedBet = betsInfo[selectedHash] */\n      swap1\n        /* \"contracts/Market.sol\":7767:7778  _odds - 100 */\n      tag_265\n        /* \"contracts/Market.sol\":7775:7778  100 */\n      0x64\n        /* \"contracts/Market.sol\":7767:7772  _odds */\n      dup15\n        /* \"contracts/Market.sol\":7767:7778  _odds - 100 */\n      tag_141\n      jump\t// in\n    tag_265:\n        /* \"contracts/Market.sol\":7743:7754  selectedBet */\n      dup3\n        /* \"contracts/Market.sol\":7743:7762  selectedBet.matched */\n      0x60\n      add\n      mload\n        /* \"contracts/Market.sol\":7723:7734  selectedBet */\n      dup4\n        /* \"contracts/Market.sol\":7723:7740  selectedBet.stake */\n      0x40\n      add\n      mload\n        /* \"contracts/Market.sol\":7723:7762  selectedBet.stake - selectedBet.matched */\n      tag_266\n      swap2\n      swap1\n      tag_141\n      jump\t// in\n    tag_266:\n        /* \"contracts/Market.sol\":7722:7779  (selectedBet.stake - selectedBet.matched) / (_odds - 100) */\n      tag_267\n      swap2\n      swap1\n      tag_243\n      jump\t// in\n    tag_267:\n        /* \"contracts/Market.sol\":7702:7779  uint offeredStake = (selectedBet.stake - selectedBet.matched) / (_odds - 100) */\n      swap1\n      pop\n        /* \"contracts/Market.sol\":7801:7820  offeredStake *= 100 */\n      tag_268\n        /* \"contracts/Market.sol\":7817:7820  100 */\n      0x64\n        /* \"contracts/Market.sol\":7702:7779  uint offeredStake = (selectedBet.stake - selectedBet.matched) / (_odds - 100) */\n      dup3\n        /* \"contracts/Market.sol\":7801:7820  offeredStake *= 100 */\n      tag_241\n      jump\t// in\n    tag_268:\n      swap1\n      pop\n        /* \"contracts/Market.sol\":7878:7943  _match(_stake, offeredStake, _odds, _side, betHash, selectedHash) */\n      tag_269\n        /* \"contracts/Market.sol\":7885:7891  _stake */\n      dup15\n        /* \"contracts/Market.sol\":7893:7905  offeredStake */\n      dup3\n        /* \"contracts/Market.sol\":7907:7912  _odds */\n      dup16\n        /* \"contracts/Market.sol\":7914:7919  _side */\n      dup16\n        /* \"contracts/Market.sol\":7921:7928  betHash */\n      dup14\n        /* \"contracts/Market.sol\":7930:7942  selectedHash */\n      dup9\n        /* \"contracts/Market.sol\":7878:7884  _match */\n      tag_270\n        /* \"contracts/Market.sol\":7878:7943  _match(_stake, offeredStake, _odds, _side, betHash, selectedHash) */\n      jump\t// in\n    tag_269:\n        /* \"contracts/Market.sol\":7863:7943  betterAmount = _match(_stake, offeredStake, _odds, _side, betHash, selectedHash) */\n      swap4\n      pop\n        /* \"contracts/Market.sol\":7484:8030  if(maxOdds >= _odds || (maxOdds > 0 && _instant)) {... */\n      pop\n      pop\n      pop\n      jump(tag_271)\n    tag_262:\n        /* \"contracts/Market.sol\":8006:8011  break */\n      pop\n      pop\n      pop\n      jump(tag_247)\n        /* \"contracts/Market.sol\":7484:8030  if(maxOdds >= _odds || (maxOdds > 0 && _instant)) {... */\n    tag_271:\n        /* \"contracts/Market.sol\":8047:8072  _remStake -= betterAmount */\n      tag_272\n        /* \"contracts/Market.sol\":8060:8072  betterAmount */\n      dup2\n        /* \"contracts/Market.sol\":8047:8072  _remStake -= betterAmount */\n      dup7\n      tag_141\n      jump\t// in\n    tag_272:\n      swap5\n      pop\n        /* \"contracts/Market.sol\":6916:8087  while(_remStake >= app.minStake()){... */\n      pop\n      pop\n      pop\n      jump(tag_246)\n    tag_247:\n        /* \"contracts/Market.sol\":6800:8097  if(bets.length > 0){... */\n      pop\n      pop\n    tag_245:\n        /* \"contracts/Market.sol\":8111:8179  BetCreated(msg.sender, address(this), betHash, _stake, _odds, _side) */\n      0x40\n      dup1\n      mload\n        /* \"contracts/Market.sol\":8122:8132  msg.sender */\n      caller\n        /* \"#utility.yul\":3820:3854   */\n      dup2\n      mstore\n        /* \"contracts/Market.sol\":8142:8146  this */\n      address\n        /* \"#utility.yul\":3885:3887   */\n      0x20\n        /* \"#utility.yul\":3870:3888   */\n      dup3\n      add\n        /* \"#utility.yul\":3863:3906   */\n      mstore\n        /* \"#utility.yul\":3922:3940   */\n      swap1\n      dup2\n      add\n        /* \"#utility.yul\":3915:3949   */\n      dup3\n      swap1\n      mstore\n        /* \"#utility.yul\":3980:3982   */\n      0x60\n        /* \"#utility.yul\":3965:3983   */\n      dup2\n      add\n        /* \"#utility.yul\":3958:3992   */\n      dup8\n      swap1\n      mstore\n        /* \"#utility.yul\":4023:4026   */\n      0x80\n        /* \"#utility.yul\":4008:4027   */\n      dup2\n      add\n        /* \"#utility.yul\":4001:4036   */\n      dup7\n      swap1\n      mstore\n        /* \"#utility.yul\":3800:3803   */\n      0xa0\n        /* \"#utility.yul\":4052:4071   */\n      dup2\n      add\n        /* \"#utility.yul\":4045:4080   */\n      dup6\n      swap1\n      mstore\n        /* \"contracts/Market.sol\":8111:8179  BetCreated(msg.sender, address(this), betHash, _stake, _odds, _side) */\n      0x618f358bb45538682ade624a4a1959053d9dabd20fe300508034b879681b37be\n      swap1\n        /* \"#utility.yul\":3769:3772   */\n      0xc0\n        /* \"#utility.yul\":3754:3773   */\n      add\n        /* \"contracts/Market.sol\":8111:8179  BetCreated(msg.sender, address(this), betHash, _stake, _odds, _side) */\n      mload(0x40)\n      dup1\n      swap2\n      sub\n      swap1\n      log1\n        /* \"contracts/Market.sol\":8196:8203  betHash */\n      swap7\n        /* \"contracts/Market.sol\":5623:8210  function addBet(... */\n      swap6\n      pop\n      pop\n      pop\n      pop\n      pop\n      pop\n      jump\t// out\n        /* \"contracts/Market.sol\":5415:5617  function start() external override onlyFactory returns(bool){... */\n    tag_69:\n        /* \"contracts/Market.sol\":1083:1086  app */\n      sload(0x0a)\n        /* \"contracts/Market.sol\":1083:1113  app.getEventOwner(marketEvent) */\n      mload(0x40)\n      shl(0xe3, 0x1e558333)\n      dup2\n      mstore\n        /* \"contracts/Market.sol\":1101:1112  marketEvent */\n      immutable(\"0x535306ee4b42c92aecd0e71fca98572064f049c2babb2769faa3bbd87d67ec2d\")\n        /* \"contracts/Market.sol\":1083:1113  app.getEventOwner(marketEvent) */\n      0x04\n      dup3\n      add\n        /* \"#utility.yul\":5728:5753   */\n      mstore\n        /* \"contracts/Market.sol\":5470:5474  bool */\n      0x00\n      swap2\n      sub(shl(0xa0, 0x01), 0x01)\n        /* \"contracts/Market.sol\":1083:1086  app */\n      and\n      swap1\n        /* \"contracts/Market.sol\":1083:1100  app.getEventOwner */\n      0xf2ac1998\n      swap1\n        /* \"#utility.yul\":5701:5719   */\n      0x24\n      add\n        /* \"contracts/Market.sol\":1083:1113  app.getEventOwner(marketEvent) */\n      0x20\n      mload(0x40)\n      dup1\n      dup4\n      sub\n      dup2\n      dup7\n      dup1\n      extcodesize\n      iszero\n      dup1\n      iszero\n      tag_277\n      jumpi\n      0x00\n      dup1\n      revert\n    tag_277:\n      pop\n      gas\n      staticcall\n      iszero\n      dup1\n      iszero\n      tag_279\n      jumpi\n      returndatasize\n      0x00\n      dup1\n      returndatacopy\n      revert(0x00, returndatasize)\n    tag_279:\n      pop\n      pop\n      pop\n      pop\n      mload(0x40)\n      returndatasize\n      not(0x1f)\n      0x1f\n      dup3\n      add\n      and\n      dup3\n      add\n      dup1\n      0x40\n      mstore\n      pop\n      dup2\n      add\n      swap1\n      tag_280\n      swap2\n      swap1\n      tag_152\n      jump\t// in\n    tag_280:\n      sub(shl(0xa0, 0x01), 0x01)\n        /* \"contracts/Market.sol\":1069:1113  msg.sender == app.getEventOwner(marketEvent) */\n      and\n        /* \"contracts/Market.sol\":1069:1079  msg.sender */\n      caller\n      sub(shl(0xa0, 0x01), 0x01)\n        /* \"contracts/Market.sol\":1069:1113  msg.sender == app.getEventOwner(marketEvent) */\n      and\n      eq\n        /* \"contracts/Market.sol\":1069:1138  msg.sender == app.getEventOwner(marketEvent) || msg.sender == factory */\n      dup1\n      tag_281\n      jumpi\n      pop\n        /* \"contracts/Market.sol\":1131:1138  factory */\n      and(sub(shl(0xa0, 0x01), 0x01), sload(0x01))\n        /* \"contracts/Market.sol\":1117:1127  msg.sender */\n      caller\n        /* \"contracts/Market.sol\":1117:1138  msg.sender == factory */\n      eq\n        /* \"contracts/Market.sol\":1069:1138  msg.sender == app.getEventOwner(marketEvent) || msg.sender == factory */\n    tag_281:\n        /* \"contracts/Market.sol\":1048:1185  require(... */\n      tag_282\n      jumpi\n      mload(0x40)\n      shl(0xe5, 0x461bcd)\n      dup2\n      mstore\n      0x04\n      add\n      tag_84\n      swap1\n      tag_156\n      jump\t// in\n    tag_282:\n        /* \"contracts/Market.sol\":5488:5494  status */\n      sload(0x02)\n        /* \"contracts/Market.sol\":5485:5611  if(status == 0){... */\n      tag_179\n      jumpi\n      pop\n        /* \"contracts/Market.sol\":5523:5524  4 */\n      0x04\n        /* \"contracts/Market.sol\":5514:5520  status */\n      0x02\n        /* \"contracts/Market.sol\":5514:5524  status = 4 */\n      sstore\n        /* \"contracts/Market.sol\":5545:5549  true */\n      0x01\n        /* \"contracts/Market.sol\":5026:5409  function cancelPlusPairs() external override onlyFactory returns(bool) ... */\n      swap1\n      jump\t// out\n        /* \"contracts/Market.sol\":3964:4311  function setWinningSide(uint256 _winningSide)... */\n    tag_73:\n        /* \"contracts/Market.sol\":1083:1086  app */\n      sload(0x0a)\n        /* \"contracts/Market.sol\":1083:1113  app.getEventOwner(marketEvent) */\n      mload(0x40)\n      shl(0xe3, 0x1e558333)\n      dup2\n      mstore\n        /* \"contracts/Market.sol\":1101:1112  marketEvent */\n      immutable(\"0x535306ee4b42c92aecd0e71fca98572064f049c2babb2769faa3bbd87d67ec2d\")\n        /* \"contracts/Market.sol\":1083:1113  app.getEventOwner(marketEvent) */\n      0x04\n      dup3\n      add\n        /* \"#utility.yul\":5728:5753   */\n      mstore\n        /* \"contracts/Market.sol\":4078:4082  bool */\n      0x00\n      swap2\n      sub(shl(0xa0, 0x01), 0x01)\n        /* \"contracts/Market.sol\":1083:1086  app */\n      and\n      swap1\n        /* \"contracts/Market.sol\":1083:1100  app.getEventOwner */\n      0xf2ac1998\n      swap1\n        /* \"#utility.yul\":5701:5719   */\n      0x24\n      add\n        /* \"contracts/Market.sol\":1083:1113  app.getEventOwner(marketEvent) */\n      0x20\n      mload(0x40)\n      dup1\n      dup4\n      sub\n      dup2\n      dup7\n      dup1\n      extcodesize\n      iszero\n      dup1\n      iszero\n      tag_289\n      jumpi\n      0x00\n      dup1\n      revert\n    tag_289:\n      pop\n      gas\n      staticcall\n      iszero\n      dup1\n      iszero\n      tag_291\n      jumpi\n      returndatasize\n      0x00\n      dup1\n      returndatacopy\n      revert(0x00, returndatasize)\n    tag_291:\n      pop\n      pop\n      pop\n      pop\n      mload(0x40)\n      returndatasize\n      not(0x1f)\n      0x1f\n      dup3\n      add\n      and\n      dup3\n      add\n      dup1\n      0x40\n      mstore\n      pop\n      dup2\n      add\n      swap1\n      tag_292\n      swap2\n      swap1\n      tag_152\n      jump\t// in\n    tag_292:\n      sub(shl(0xa0, 0x01), 0x01)\n        /* \"contracts/Market.sol\":1069:1113  msg.sender == app.getEventOwner(marketEvent) */\n      and\n        /* \"contracts/Market.sol\":1069:1079  msg.sender */\n      caller\n      sub(shl(0xa0, 0x01), 0x01)\n        /* \"contracts/Market.sol\":1069:1113  msg.sender == app.getEventOwner(marketEvent) */\n      and\n      eq\n        /* \"contracts/Market.sol\":1069:1138  msg.sender == app.getEventOwner(marketEvent) || msg.sender == factory */\n      dup1\n      tag_293\n      jumpi\n      pop\n        /* \"contracts/Market.sol\":1131:1138  factory */\n      and(sub(shl(0xa0, 0x01), 0x01), sload(0x01))\n        /* \"contracts/Market.sol\":1117:1127  msg.sender */\n      caller\n        /* \"contracts/Market.sol\":1117:1138  msg.sender == factory */\n      eq\n        /* \"contracts/Market.sol\":1069:1138  msg.sender == app.getEventOwner(marketEvent) || msg.sender == factory */\n    tag_293:\n        /* \"contracts/Market.sol\":1048:1185  require(... */\n      tag_294\n      jumpi\n      mload(0x40)\n      shl(0xe5, 0x461bcd)\n      dup2\n      mstore\n      0x04\n      add\n      tag_84\n      swap1\n      tag_156\n      jump\t// in\n    tag_294:\n        /* \"contracts/Market.sol\":4102:4108  status */\n      sload(0x02)\n        /* \"contracts/Market.sol\":4102:4113  status == 0 */\n      iszero\n      dup1\n        /* \"contracts/Market.sol\":4102:4128  status == 0 || status == 4 */\n      tag_297\n      jumpi\n      pop\n        /* \"contracts/Market.sol\":4117:4123  status */\n      sload(0x02)\n        /* \"contracts/Market.sol\":4127:4128  4 */\n      0x04\n        /* \"contracts/Market.sol\":4117:4128  status == 4 */\n      eq\n        /* \"contracts/Market.sol\":4102:4128  status == 0 || status == 4 */\n    tag_297:\n        /* \"contracts/Market.sol\":4101:4173  (status == 0 || status == 4) && (_winningSide == 1 || _winningSide == 2) */\n      dup1\n      iszero\n      tag_299\n      jumpi\n      pop\n        /* \"contracts/Market.sol\":4134:4146  _winningSide */\n      dup2\n        /* \"contracts/Market.sol\":4150:4151  1 */\n      0x01\n        /* \"contracts/Market.sol\":4134:4151  _winningSide == 1 */\n      eq\n        /* \"contracts/Market.sol\":4134:4172  _winningSide == 1 || _winningSide == 2 */\n      dup1\n      tag_299\n      jumpi\n      pop\n        /* \"contracts/Market.sol\":4155:4167  _winningSide */\n      dup2\n        /* \"contracts/Market.sol\":4171:4172  2 */\n      0x02\n        /* \"contracts/Market.sol\":4155:4172  _winningSide == 2 */\n      eq\n        /* \"contracts/Market.sol\":4134:4172  _winningSide == 1 || _winningSide == 2 */\n    tag_299:\n        /* \"contracts/Market.sol\":4098:4296  if((status == 0 || status == 4) && (_winningSide == 1 || _winningSide == 2)){... */\n      iszero\n      tag_159\n      jumpi\n      pop\n        /* \"contracts/Market.sol\":4188:4194  status */\n      0x02\n        /* \"contracts/Market.sol\":4188:4209  status = _winningSide */\n      sstore\n        /* \"contracts/Market.sol\":4230:4234  true */\n      0x01\n      swap1\n        /* \"contracts/Market.sol\":4378:4789  function settle(uint256 _winningSide)... */\n      jump\t// out\n        /* \"contracts/Market.sol\":4795:5020  function cancel() external override onlyFactory returns(bool) ... */\n    tag_76:\n        /* \"contracts/Market.sol\":1083:1086  app */\n      sload(0x0a)\n        /* \"contracts/Market.sol\":1083:1113  app.getEventOwner(marketEvent) */\n      mload(0x40)\n      shl(0xe3, 0x1e558333)\n      dup2\n      mstore\n        /* \"contracts/Market.sol\":1101:1112  marketEvent */\n      immutable(\"0x535306ee4b42c92aecd0e71fca98572064f049c2babb2769faa3bbd87d67ec2d\")\n        /* \"contracts/Market.sol\":1083:1113  app.getEventOwner(marketEvent) */\n      0x04\n      dup3\n      add\n        /* \"#utility.yul\":5728:5753   */\n      mstore\n        /* \"contracts/Market.sol\":4851:4855  bool */\n      0x00\n      swap2\n      sub(shl(0xa0, 0x01), 0x01)\n        /* \"contracts/Market.sol\":1083:1086  app */\n      and\n      swap1\n        /* \"contracts/Market.sol\":1083:1100  app.getEventOwner */\n      0xf2ac1998\n      swap1\n        /* \"#utility.yul\":5701:5719   */\n      0x24\n      add\n        /* \"contracts/Market.sol\":1083:1113  app.getEventOwner(marketEvent) */\n      0x20\n      mload(0x40)\n      dup1\n      dup4\n      sub\n      dup2\n      dup7\n      dup1\n      extcodesize\n      iszero\n      dup1\n      iszero\n      tag_304\n      jumpi\n      0x00\n      dup1\n      revert\n    tag_304:\n      pop\n      gas\n      staticcall\n      iszero\n      dup1\n      iszero\n      tag_306\n      jumpi\n      returndatasize\n      0x00\n      dup1\n      returndatacopy\n      revert(0x00, returndatasize)\n    tag_306:\n      pop\n      pop\n      pop\n      pop\n      mload(0x40)\n      returndatasize\n      not(0x1f)\n      0x1f\n      dup3\n      add\n      and\n      dup3\n      add\n      dup1\n      0x40\n      mstore\n      pop\n      dup2\n      add\n      swap1\n      tag_307\n      swap2\n      swap1\n      tag_152\n      jump\t// in\n    tag_307:\n      sub(shl(0xa0, 0x01), 0x01)\n        /* \"contracts/Market.sol\":1069:1113  msg.sender == app.getEventOwner(marketEvent) */\n      and\n        /* \"contracts/Market.sol\":1069:1079  msg.sender */\n      caller\n      sub(shl(0xa0, 0x01), 0x01)\n        /* \"contracts/Market.sol\":1069:1113  msg.sender == app.getEventOwner(marketEvent) */\n      and\n      eq\n        /* \"contracts/Market.sol\":1069:1138  msg.sender == app.getEventOwner(marketEvent) || msg.sender == factory */\n      dup1\n      tag_308\n      jumpi\n      pop\n        /* \"contracts/Market.sol\":1131:1138  factory */\n      and(sub(shl(0xa0, 0x01), 0x01), sload(0x01))\n        /* \"contracts/Market.sol\":1117:1127  msg.sender */\n      caller\n        /* \"contracts/Market.sol\":1117:1138  msg.sender == factory */\n      eq\n        /* \"contracts/Market.sol\":1069:1138  msg.sender == app.getEventOwner(marketEvent) || msg.sender == factory */\n    tag_308:\n        /* \"contracts/Market.sol\":1048:1185  require(... */\n      tag_309\n      jumpi\n      mload(0x40)\n      shl(0xe5, 0x461bcd)\n      dup2\n      mstore\n      0x04\n      add\n      tag_84\n      swap1\n      tag_156\n      jump\t// in\n    tag_309:\n        /* \"contracts/Market.sol\":4876:4882  status */\n      sload(0x02)\n        /* \"contracts/Market.sol\":4876:4887  status == 0 */\n      iszero\n      dup1\n        /* \"contracts/Market.sol\":4876:4902  status == 0 || status == 4 */\n      tag_312\n      jumpi\n      pop\n        /* \"contracts/Market.sol\":4891:4897  status */\n      sload(0x02)\n        /* \"contracts/Market.sol\":4901:4902  4 */\n      0x04\n        /* \"contracts/Market.sol\":4891:4902  status == 4 */\n      eq\n        /* \"contracts/Market.sol\":4876:4902  status == 0 || status == 4 */\n    tag_312:\n        /* \"contracts/Market.sol\":4873:5014  if(status == 0 || status == 4){... */\n      iszero\n      tag_179\n      jumpi\n      pop\n        /* \"contracts/Market.sol\":4926:4927  3 */\n      0x03\n        /* \"contracts/Market.sol\":4917:4923  status */\n      0x02\n        /* \"contracts/Market.sol\":4917:4927  status = 3 */\n      sstore\n        /* \"contracts/Market.sol\":4948:4952  true */\n      0x01\n        /* \"contracts/Market.sol\":5026:5409  function cancelPlusPairs() external override onlyFactory returns(bool) ... */\n      swap1\n      jump\t// out\n        /* \"contracts/Market.sol\":9607:11087  function _cancelBetPairs(bytes32 _bet) private returns(bool) {... */\n    tag_89:\n        /* \"contracts/Market.sol\":9662:9666  bool */\n      0x00\n        /* \"contracts/Market.sol\":9708:9722  betsInfo[_bet] */\n      dup2\n      dup2\n      mstore\n        /* \"contracts/Market.sol\":9708:9716  betsInfo */\n      0x06\n        /* \"contracts/Market.sol\":9708:9722  betsInfo[_bet] */\n      0x20\n      swap1\n      dup2\n      mstore\n      0x40\n      dup1\n      dup4\n      keccak256\n        /* \"contracts/Market.sol\":9678:9722  Struct.MarketBet memory bet = betsInfo[_bet] */\n      dup2\n      mload\n      0xc0\n      dup2\n      add\n      dup4\n      mstore\n      dup2\n      sload\n      sub(shl(0xa0, 0x01), 0x01)\n      swap1\n      dup2\n      and\n      dup3\n      mstore\n      0x01\n      dup4\n      add\n      sload\n      and\n      dup2\n      dup6\n      add\n      mstore\n      0x02\n      dup3\n      add\n      sload\n      dup2\n      dup5\n      add\n      mstore\n      0x03\n      dup3\n      add\n      sload\n      0x60\n      dup3\n      add\n      mstore\n      0x04\n      dup3\n      add\n      sload\n      0x80\n      dup3\n      add\n      mstore\n      0x05\n      swap1\n      swap2\n      add\n      sload\n      0xa0\n      dup3\n      add\n      mstore\n        /* \"contracts/Market.sol\":9758:9772  betPairs[_bet] */\n      dup5\n      dup5\n      mstore\n        /* \"contracts/Market.sol\":9758:9766  betPairs */\n      0x09\n        /* \"contracts/Market.sol\":9758:9772  betPairs[_bet] */\n      dup4\n      mstore\n      dup2\n      dup5\n      keccak256\n        /* \"contracts/Market.sol\":9732:9772  bytes32[] memory _pairs = betPairs[_bet] */\n      dup1\n      sload\n      dup4\n      mload\n      dup2\n      dup7\n      mul\n      dup2\n      add\n      dup7\n      add\n      swap1\n      swap5\n      mstore\n      dup1\n      dup5\n      mstore\n        /* \"contracts/Market.sol\":9678:9722  Struct.MarketBet memory bet = betsInfo[_bet] */\n      swap2\n      swap4\n        /* \"contracts/Market.sol\":9662:9666  bool */\n      dup6\n      swap4\n        /* \"contracts/Market.sol\":9732:9772  bytes32[] memory _pairs = betPairs[_bet] */\n      swap3\n      swap1\n      dup4\n      add\n        /* \"contracts/Market.sol\":9758:9772  betPairs[_bet] */\n      dup3\n        /* \"contracts/Market.sol\":9732:9772  bytes32[] memory _pairs = betPairs[_bet] */\n      dup3\n      dup1\n      iszero\n      tag_317\n      jumpi\n      0x20\n      mul\n      dup3\n      add\n      swap2\n      swap1\n      0x00\n      mstore\n      keccak256(0x00, 0x20)\n      swap1\n    tag_318:\n      dup2\n      sload\n      dup2\n      mstore\n      0x20\n      add\n      swap1\n      0x01\n      add\n      swap1\n      dup1\n      dup4\n      gt\n      tag_318\n      jumpi\n    tag_317:\n      pop\n      pop\n        /* \"contracts/Market.sol\":9801:9814  _pairs.length */\n      dup4\n      mload\n        /* \"contracts/Market.sol\":9732:9772  bytes32[] memory _pairs = betPairs[_bet] */\n      swap4\n      swap5\n      pop\n        /* \"contracts/Market.sol\":9782:9798  uint pairsLength */\n      0x00\n      swap3\n      pop\n      pop\n      pop\n        /* \"contracts/Market.sol\":9824:11060  for(uint i = 0; i < pairsLength; i++){... */\n    tag_319:\n        /* \"contracts/Market.sol\":9844:9855  pairsLength */\n      dup2\n        /* \"contracts/Market.sol\":9840:9841  i */\n      dup2\n        /* \"contracts/Market.sol\":9840:9855  i < pairsLength */\n      lt\n        /* \"contracts/Market.sol\":9824:11060  for(uint i = 0; i < pairsLength; i++){... */\n      iszero\n      tag_320\n      jumpi\n        /* \"contracts/Market.sol\":9878:9887  pairsInfo */\n      0x08\n        /* \"contracts/Market.sol\":9878:9898  pairsInfo[_pairs[i]] */\n      0x00\n        /* \"contracts/Market.sol\":9888:9894  _pairs */\n      dup5\n        /* \"contracts/Market.sol\":9895:9896  i */\n      dup4\n        /* \"contracts/Market.sol\":9888:9897  _pairs[i] */\n      dup2\n      mload\n      dup2\n      lt\n      tag_322\n      jumpi\n      mstore(0x00, shl(0xe0, 0x4e487b71))\n      mstore(0x04, 0x32)\n      revert(0x00, 0x24)\n    tag_322:\n      0x20\n      swap1\n      dup2\n      mul\n      swap2\n      swap1\n      swap2\n      add\n      dup2\n      add\n      mload\n        /* \"contracts/Market.sol\":9878:9898  pairsInfo[_pairs[i]] */\n      dup3\n      mstore\n      dup2\n      add\n      swap2\n      swap1\n      swap2\n      mstore\n      0x40\n      add\n      0x00\n      keccak256\n        /* \"contracts/Market.sol\":9878:9906  pairsInfo[_pairs[i]].settled */\n      0x04\n      add\n      sload\n      0xff\n      and\n        /* \"contracts/Market.sol\":9875:9948  if(pairsInfo[_pairs[i]].settled){... */\n      iszero\n      tag_323\n      jumpi\n        /* \"contracts/Market.sol\":9925:9933  continue */\n      jump(tag_321)\n        /* \"contracts/Market.sol\":9875:9948  if(pairsInfo[_pairs[i]].settled){... */\n    tag_323:\n        /* \"contracts/Market.sol\":9961:9983  bytes32 counterBetHash */\n      0x00\n        /* \"contracts/Market.sol\":9997:10018  uint256 counterAmount */\n      dup1\n        /* \"contracts/Market.sol\":10032:10050  uint256 thisAmount */\n      0x00\n        /* \"contracts/Market.sol\":10064:10085  address counterBetter */\n      dup1\n        /* \"contracts/Market.sol\":10102:10105  bet */\n      dup8\n        /* \"contracts/Market.sol\":10102:10110  bet.side */\n      0xa0\n      add\n      mload\n        /* \"contracts/Market.sol\":10114:10115  1 */\n      0x01\n        /* \"contracts/Market.sol\":10102:10115  bet.side == 1 */\n      eq\n        /* \"contracts/Market.sol\":10099:10553  if(bet.side == 1) {... */\n      iszero\n      tag_324\n      jumpi\n        /* \"contracts/Market.sol\":10148:10157  pairsInfo */\n      0x08\n        /* \"contracts/Market.sol\":10148:10168  pairsInfo[_pairs[i]] */\n      0x00\n        /* \"contracts/Market.sol\":10158:10164  _pairs */\n      dup9\n        /* \"contracts/Market.sol\":10165:10166  i */\n      dup8\n        /* \"contracts/Market.sol\":10158:10167  _pairs[i] */\n      dup2\n      mload\n      dup2\n      lt\n      tag_325\n      jumpi\n      mstore(0x00, shl(0xe0, 0x4e487b71))\n      mstore(0x04, 0x32)\n      revert(0x00, 0x24)\n    tag_325:\n      0x20\n      mul\n      0x20\n      add\n      add\n      mload\n        /* \"contracts/Market.sol\":10148:10168  pairsInfo[_pairs[i]] */\n      dup2\n      mstore\n      0x20\n      add\n      swap1\n      dup2\n      mstore\n      0x20\n      add\n      0x00\n      keccak256\n        /* \"contracts/Market.sol\":10148:10176  pairsInfo[_pairs[i]].amountA */\n      0x02\n      add\n      sload\n        /* \"contracts/Market.sol\":10135:10176  thisAmount = pairsInfo[_pairs[i]].amountA */\n      swap2\n      pop\n        /* \"contracts/Market.sol\":10211:10220  pairsInfo */\n      0x08\n        /* \"contracts/Market.sol\":10211:10231  pairsInfo[_pairs[i]] */\n      0x00\n        /* \"contracts/Market.sol\":10221:10227  _pairs */\n      dup9\n        /* \"contracts/Market.sol\":10228:10229  i */\n      dup8\n        /* \"contracts/Market.sol\":10221:10230  _pairs[i] */\n      dup2\n      mload\n      dup2\n      lt\n      tag_326\n      jumpi\n      mstore(0x00, shl(0xe0, 0x4e487b71))\n      mstore(0x04, 0x32)\n      revert(0x00, 0x24)\n    tag_326:\n      0x20\n      mul\n      0x20\n      add\n      add\n      mload\n        /* \"contracts/Market.sol\":10211:10231  pairsInfo[_pairs[i]] */\n      dup2\n      mstore\n      0x20\n      add\n      swap1\n      dup2\n      mstore\n      0x20\n      add\n      0x00\n      keccak256\n        /* \"contracts/Market.sol\":10211:10240  pairsInfo[_pairs[i]].betHashB */\n      0x01\n      add\n      sload\n        /* \"contracts/Market.sol\":10194:10240  counterBetHash = pairsInfo[_pairs[i]].betHashB */\n      swap4\n      pop\n        /* \"contracts/Market.sol\":10274:10283  pairsInfo */\n      0x08\n        /* \"contracts/Market.sol\":10274:10294  pairsInfo[_pairs[i]] */\n      0x00\n        /* \"contracts/Market.sol\":10284:10290  _pairs */\n      dup9\n        /* \"contracts/Market.sol\":10291:10292  i */\n      dup8\n        /* \"contracts/Market.sol\":10284:10293  _pairs[i] */\n      dup2\n      mload\n      dup2\n      lt\n      tag_327\n      jumpi\n      mstore(0x00, shl(0xe0, 0x4e487b71))\n      mstore(0x04, 0x32)\n      revert(0x00, 0x24)\n    tag_327:\n      0x20\n      mul\n      0x20\n      add\n      add\n      mload\n        /* \"contracts/Market.sol\":10274:10294  pairsInfo[_pairs[i]] */\n      dup2\n      mstore\n      0x20\n      add\n      swap1\n      dup2\n      mstore\n      0x20\n      add\n      0x00\n      keccak256\n        /* \"contracts/Market.sol\":10274:10302  pairsInfo[_pairs[i]].amountB */\n      0x03\n      add\n      sload\n        /* \"contracts/Market.sol\":10258:10302  counterAmount = pairsInfo[_pairs[i]].amountB */\n      swap3\n      pop\n        /* \"contracts/Market.sol\":10099:10553  if(bet.side == 1) {... */\n      jump(tag_329)\n    tag_324:\n        /* \"contracts/Market.sol\":10338:10341  bet */\n      dup8\n        /* \"contracts/Market.sol\":10338:10346  bet.side */\n      0xa0\n      add\n      mload\n        /* \"contracts/Market.sol\":10350:10351  2 */\n      0x02\n        /* \"contracts/Market.sol\":10338:10351  bet.side == 2 */\n      eq\n        /* \"contracts/Market.sol\":10335:10553  if(bet.side == 2) {... */\n      iszero\n      tag_329\n      jumpi\n        /* \"contracts/Market.sol\":10384:10393  pairsInfo */\n      0x08\n        /* \"contracts/Market.sol\":10384:10404  pairsInfo[_pairs[i]] */\n      0x00\n        /* \"contracts/Market.sol\":10394:10400  _pairs */\n      dup9\n        /* \"contracts/Market.sol\":10401:10402  i */\n      dup8\n        /* \"contracts/Market.sol\":10394:10403  _pairs[i] */\n      dup2\n      mload\n      dup2\n      lt\n      tag_330\n      jumpi\n      mstore(0x00, shl(0xe0, 0x4e487b71))\n      mstore(0x04, 0x32)\n      revert(0x00, 0x24)\n    tag_330:\n      0x20\n      mul\n      0x20\n      add\n      add\n      mload\n        /* \"contracts/Market.sol\":10384:10404  pairsInfo[_pairs[i]] */\n      dup2\n      mstore\n      0x20\n      add\n      swap1\n      dup2\n      mstore\n      0x20\n      add\n      0x00\n      keccak256\n        /* \"contracts/Market.sol\":10384:10412  pairsInfo[_pairs[i]].amountB */\n      0x03\n      add\n      sload\n        /* \"contracts/Market.sol\":10371:10412  thisAmount = pairsInfo[_pairs[i]].amountB */\n      swap2\n      pop\n        /* \"contracts/Market.sol\":10447:10456  pairsInfo */\n      0x08\n        /* \"contracts/Market.sol\":10447:10467  pairsInfo[_pairs[i]] */\n      0x00\n        /* \"contracts/Market.sol\":10457:10463  _pairs */\n      dup9\n        /* \"contracts/Market.sol\":10464:10465  i */\n      dup8\n        /* \"contracts/Market.sol\":10457:10466  _pairs[i] */\n      dup2\n      mload\n      dup2\n      lt\n      tag_331\n      jumpi\n      mstore(0x00, shl(0xe0, 0x4e487b71))\n      mstore(0x04, 0x32)\n      revert(0x00, 0x24)\n    tag_331:\n      0x20\n      mul\n      0x20\n      add\n      add\n      mload\n        /* \"contracts/Market.sol\":10447:10467  pairsInfo[_pairs[i]] */\n      dup2\n      mstore\n      0x20\n      add\n      swap1\n      dup2\n      mstore\n      0x20\n      add\n      0x00\n      keccak256\n        /* \"contracts/Market.sol\":10447:10476  pairsInfo[_pairs[i]].betHashA */\n      0x00\n      add\n      sload\n        /* \"contracts/Market.sol\":10430:10476  counterBetHash = pairsInfo[_pairs[i]].betHashA */\n      swap4\n      pop\n        /* \"contracts/Market.sol\":10510:10519  pairsInfo */\n      0x08\n        /* \"contracts/Market.sol\":10510:10530  pairsInfo[_pairs[i]] */\n      0x00\n        /* \"contracts/Market.sol\":10520:10526  _pairs */\n      dup9\n        /* \"contracts/Market.sol\":10527:10528  i */\n      dup8\n        /* \"contracts/Market.sol\":10520:10529  _pairs[i] */\n      dup2\n      mload\n      dup2\n      lt\n      tag_332\n      jumpi\n      mstore(0x00, shl(0xe0, 0x4e487b71))\n      mstore(0x04, 0x32)\n      revert(0x00, 0x24)\n    tag_332:\n      0x20\n      mul\n      0x20\n      add\n      add\n      mload\n        /* \"contracts/Market.sol\":10510:10530  pairsInfo[_pairs[i]] */\n      dup2\n      mstore\n      0x20\n      add\n      swap1\n      dup2\n      mstore\n      0x20\n      add\n      0x00\n      keccak256\n        /* \"contracts/Market.sol\":10510:10538  pairsInfo[_pairs[i]].amountA */\n      0x02\n      add\n      sload\n        /* \"contracts/Market.sol\":10494:10538  counterAmount = pairsInfo[_pairs[i]].amountA */\n      swap3\n      pop\n        /* \"contracts/Market.sol\":10335:10553  if(bet.side == 2) {... */\n    tag_329:\n      pop\n        /* \"contracts/Market.sol\":10582:10606  betsInfo[counterBetHash] */\n      0x00\n      dup4\n      dup2\n      mstore\n        /* \"contracts/Market.sol\":10582:10590  betsInfo */\n      0x06\n        /* \"contracts/Market.sol\":10582:10606  betsInfo[counterBetHash] */\n      0x20\n      swap1\n      dup2\n      mstore\n      0x40\n      swap2\n      dup3\n      swap1\n      keccak256\n        /* \"contracts/Market.sol\":10582:10613  betsInfo[counterBetHash].better */\n      sload\n        /* \"contracts/Market.sol\":10666:10669  app */\n      sload(0x0a)\n        /* \"contracts/Market.sol\":10666:10675  app.vig() */\n      dup4\n      mload\n      shl(0xe0, 0x55c4a8bf)\n      dup2\n      mstore\n      swap4\n      mload\n      sub(shl(0xa0, 0x01), 0x01)\n        /* \"contracts/Market.sol\":10582:10613  betsInfo[counterBetHash].better */\n      swap3\n      dup4\n      and\n      swap5\n        /* \"contracts/Market.sol\":10679:10682  100 */\n      0x64\n      swap5\n        /* \"contracts/Market.sol\":10666:10669  app */\n      swap4\n      swap1\n      swap3\n      and\n      swap3\n        /* \"contracts/Market.sol\":10666:10673  app.vig */\n      0x55c4a8bf\n      swap3\n        /* \"contracts/Market.sol\":10666:10675  app.vig() */\n      0x04\n      dup1\n      dup3\n      add\n      swap4\n      swap2\n      dup3\n      swap1\n      sub\n      add\n      dup2\n        /* \"contracts/Market.sol\":10666:10669  app */\n      dup7\n        /* \"contracts/Market.sol\":10666:10675  app.vig() */\n      dup1\n      extcodesize\n      iszero\n      dup1\n      iszero\n      tag_333\n      jumpi\n      0x00\n      dup1\n      revert\n    tag_333:\n      pop\n      gas\n      staticcall\n      iszero\n      dup1\n      iszero\n      tag_335\n      jumpi\n      returndatasize\n      0x00\n      dup1\n      returndatacopy\n      revert(0x00, returndatasize)\n    tag_335:\n      pop\n      pop\n      pop\n      pop\n      mload(0x40)\n      returndatasize\n      not(0x1f)\n      0x1f\n      dup3\n      add\n      and\n      dup3\n      add\n      dup1\n      0x40\n      mstore\n      pop\n      dup2\n      add\n      swap1\n      tag_336\n      swap2\n      swap1\n      tag_108\n      jump\t// in\n    tag_336:\n        /* \"contracts/Market.sol\":10660:10675  100 - app.vig() */\n      tag_337\n      swap1\n        /* \"contracts/Market.sol\":10660:10663  100 */\n      0x64\n        /* \"contracts/Market.sol\":10660:10675  100 - app.vig() */\n      tag_141\n      jump\t// in\n    tag_337:\n        /* \"contracts/Market.sol\":10646:10676  thisAmount * (100 - app.vig()) */\n      tag_338\n      swap1\n        /* \"contracts/Market.sol\":10646:10656  thisAmount */\n      dup5\n        /* \"contracts/Market.sol\":10646:10676  thisAmount * (100 - app.vig()) */\n      tag_241\n      jump\t// in\n    tag_338:\n        /* \"contracts/Market.sol\":10646:10682  thisAmount * (100 - app.vig()) / 100 */\n      tag_339\n      swap2\n      swap1\n      tag_243\n      jump\t// in\n    tag_339:\n        /* \"contracts/Market.sol\":10631:10641  bet.better */\n      dup9\n      mload\n      sub(shl(0xa0, 0x01), 0x01)\n        /* \"contracts/Market.sol\":10627:10642  bal[bet.better] */\n      and\n      0x00\n      swap1\n      dup2\n      mstore\n        /* \"contracts/Market.sol\":10627:10630  bal */\n      0x05\n        /* \"contracts/Market.sol\":10627:10642  bal[bet.better] */\n      0x20\n      mstore\n      0x40\n      dup2\n      keccak256\n        /* \"contracts/Market.sol\":10627:10682  bal[bet.better] += thisAmount * (100 - app.vig()) / 100 */\n      dup1\n      sload\n        /* \"contracts/Market.sol\":10627:10642  bal[bet.better] */\n      swap1\n      swap2\n      swap1\n        /* \"contracts/Market.sol\":10627:10682  bal[bet.better] += thisAmount * (100 - app.vig()) / 100 */\n      tag_340\n      swap1\n      dup5\n      swap1\n      tag_143\n      jump\t// in\n    tag_340:\n      swap1\n      swap2\n      sstore\n      pop\n      pop\n        /* \"contracts/Market.sol\":10696:10720  betsInfo[counterBetHash] */\n      0x00\n      dup5\n      dup2\n      mstore\n        /* \"contracts/Market.sol\":10696:10704  betsInfo */\n      0x06\n        /* \"contracts/Market.sol\":10696:10720  betsInfo[counterBetHash] */\n      0x20\n      mstore\n      0x40\n      dup2\n      keccak256\n        /* \"contracts/Market.sol\":10696:10728  betsInfo[counterBetHash].matched */\n      0x03\n      add\n        /* \"contracts/Market.sol\":10696:10745  betsInfo[counterBetHash].matched -= counterAmount */\n      dup1\n      sload\n        /* \"contracts/Market.sol\":10732:10745  counterAmount */\n      dup6\n      swap3\n        /* \"contracts/Market.sol\":10696:10720  betsInfo[counterBetHash] */\n      swap1\n        /* \"contracts/Market.sol\":10696:10745  betsInfo[counterBetHash].matched -= counterAmount */\n      tag_341\n      swap1\n        /* \"contracts/Market.sol\":10732:10745  counterAmount */\n      dup5\n      swap1\n        /* \"contracts/Market.sol\":10696:10745  betsInfo[counterBetHash].matched -= counterAmount */\n      tag_141\n      jump\t// in\n    tag_341:\n      swap3\n      pop\n      pop\n      dup2\n      swap1\n      sstore\n      pop\n        /* \"contracts/Market.sol\":10759:10776  uint256 vigAmount */\n      0x00\n        /* \"contracts/Market.sol\":10804:10807  100 */\n      0x64\n        /* \"contracts/Market.sol\":10792:10795  app */\n      0x0a\n      0x00\n      swap1\n      sload\n      swap1\n      0x0100\n      exp\n      swap1\n      div\n      sub(shl(0xa0, 0x01), 0x01)\n      and\n      sub(shl(0xa0, 0x01), 0x01)\n        /* \"contracts/Market.sol\":10792:10799  app.vig */\n      and\n      0x55c4a8bf\n        /* \"contracts/Market.sol\":10792:10801  app.vig() */\n      mload(0x40)\n      dup2\n      0xffffffff\n      and\n      0xe0\n      shl\n      dup2\n      mstore\n      0x04\n      add\n      0x20\n      mload(0x40)\n      dup1\n      dup4\n      sub\n      dup2\n      dup7\n      dup1\n      extcodesize\n      iszero\n      dup1\n      iszero\n      tag_342\n      jumpi\n      0x00\n      dup1\n      revert\n    tag_342:\n      pop\n      gas\n      staticcall\n      iszero\n      dup1\n      iszero\n      tag_344\n      jumpi\n      returndatasize\n      0x00\n      dup1\n      returndatacopy\n      revert(0x00, returndatasize)\n    tag_344:\n      pop\n      pop\n      pop\n      pop\n      mload(0x40)\n      returndatasize\n      not(0x1f)\n      0x1f\n      dup3\n      add\n      and\n      dup3\n      add\n      dup1\n      0x40\n      mstore\n      pop\n      dup2\n      add\n      swap1\n      tag_345\n      swap2\n      swap1\n      tag_108\n      jump\t// in\n    tag_345:\n        /* \"contracts/Market.sol\":10779:10801  thisAmount * app.vig() */\n      tag_346\n      swap1\n        /* \"contracts/Market.sol\":10779:10789  thisAmount */\n      dup6\n        /* \"contracts/Market.sol\":10779:10801  thisAmount * app.vig() */\n      tag_241\n      jump\t// in\n    tag_346:\n        /* \"contracts/Market.sol\":10779:10807  thisAmount * app.vig() / 100 */\n      tag_347\n      swap2\n      swap1\n      tag_243\n      jump\t// in\n    tag_347:\n        /* \"contracts/Market.sol\":10759:10807  uint256 vigAmount = thisAmount * app.vig() / 100 */\n      swap1\n      pop\n        /* \"contracts/Market.sol\":10869:10872  100 */\n      0x64\n        /* \"contracts/Market.sol\":10856:10859  app */\n      0x0a\n      0x00\n      swap1\n      sload\n      swap1\n      0x0100\n      exp\n      swap1\n      div\n      sub(shl(0xa0, 0x01), 0x01)\n      and\n      sub(shl(0xa0, 0x01), 0x01)\n        /* \"contracts/Market.sol\":10856:10864  app.hVig */\n      and\n      0x6a0ccd9d\n        /* \"contracts/Market.sol\":10856:10866  app.hVig() */\n      mload(0x40)\n      dup2\n      0xffffffff\n      and\n      0xe0\n      shl\n      dup2\n      mstore\n      0x04\n      add\n      0x20\n      mload(0x40)\n      dup1\n      dup4\n      sub\n      dup2\n      dup7\n      dup1\n      extcodesize\n      iszero\n      dup1\n      iszero\n      tag_348\n      jumpi\n      0x00\n      dup1\n      revert\n    tag_348:\n      pop\n      gas\n      staticcall\n      iszero\n      dup1\n      iszero\n      tag_350\n      jumpi\n      returndatasize\n      0x00\n      dup1\n      returndatacopy\n      revert(0x00, returndatasize)\n    tag_350:\n      pop\n      pop\n      pop\n      pop\n      mload(0x40)\n      returndatasize\n      not(0x1f)\n      0x1f\n      dup3\n      add\n      and\n      dup3\n      add\n      dup1\n      0x40\n      mstore\n      pop\n      dup2\n      add\n      swap1\n      tag_351\n      swap2\n      swap1\n      tag_108\n      jump\t// in\n    tag_351:\n        /* \"contracts/Market.sol\":10844:10866  vigAmount * app.hVig() */\n      tag_352\n      swap1\n        /* \"contracts/Market.sol\":10844:10853  vigAmount */\n      dup4\n        /* \"contracts/Market.sol\":10844:10866  vigAmount * app.hVig() */\n      tag_241\n      jump\t// in\n    tag_352:\n        /* \"contracts/Market.sol\":10844:10872  vigAmount * app.hVig() / 100 */\n      tag_353\n      swap2\n      swap1\n      tag_243\n      jump\t// in\n    tag_353:\n        /* \"contracts/Market.sol\":10821:10824  bal */\n      0x05\n        /* \"contracts/Market.sol\":10821:10840  bal[app.holdAddr()] */\n      0x00\n        /* \"contracts/Market.sol\":10825:10828  app */\n      0x0a\n      0x00\n      swap1\n      sload\n      swap1\n      0x0100\n      exp\n      swap1\n      div\n      sub(shl(0xa0, 0x01), 0x01)\n      and\n      sub(shl(0xa0, 0x01), 0x01)\n        /* \"contracts/Market.sol\":10825:10837  app.holdAddr */\n      and\n      0xb7640a54\n        /* \"contracts/Market.sol\":10825:10839  app.holdAddr() */\n      mload(0x40)\n      dup2\n      0xffffffff\n      and\n      0xe0\n      shl\n      dup2\n      mstore\n      0x04\n      add\n      0x20\n      mload(0x40)\n      dup1\n      dup4\n      sub\n      dup2\n      dup7\n      dup1\n      extcodesize\n      iszero\n      dup1\n      iszero\n      tag_354\n      jumpi\n      0x00\n      dup1\n      revert\n    tag_354:\n      pop\n      gas\n      staticcall\n      iszero\n      dup1\n      iszero\n      tag_356\n      jumpi\n      returndatasize\n      0x00\n      dup1\n      returndatacopy\n      revert(0x00, returndatasize)\n    tag_356:\n      pop\n      pop\n      pop\n      pop\n      mload(0x40)\n      returndatasize\n      not(0x1f)\n      0x1f\n      dup3\n      add\n      and\n      dup3\n      add\n      dup1\n      0x40\n      mstore\n      pop\n      dup2\n      add\n      swap1\n      tag_357\n      swap2\n      swap1\n      tag_152\n      jump\t// in\n    tag_357:\n      sub(shl(0xa0, 0x01), 0x01)\n        /* \"contracts/Market.sol\":10821:10840  bal[app.holdAddr()] */\n      and\n      sub(shl(0xa0, 0x01), 0x01)\n      and\n      dup2\n      mstore\n      0x20\n      add\n      swap1\n      dup2\n      mstore\n      0x20\n      add\n      0x00\n      keccak256\n      0x00\n        /* \"contracts/Market.sol\":10821:10872  bal[app.holdAddr()] += vigAmount * app.hVig() / 100 */\n      dup3\n      dup3\n      sload\n      tag_358\n      swap2\n      swap1\n      tag_143\n      jump\t// in\n    tag_358:\n      swap1\n      swap2\n      sstore\n      pop\n      pop\n        /* \"contracts/Market.sol\":10920:10923  app */\n      sload(0x0a)\n        /* \"contracts/Market.sol\":10920:10930  app.eVig() */\n      0x40\n      dup1\n      mload\n      shl(0xe0, 0x28576d45)\n      dup2\n      mstore\n      swap1\n      mload\n        /* \"contracts/Market.sol\":10933:10936  100 */\n      0x64\n      swap3\n      sub(shl(0xa0, 0x01), 0x01)\n        /* \"contracts/Market.sol\":10920:10923  app */\n      and\n      swap2\n        /* \"contracts/Market.sol\":10920:10928  app.eVig */\n      0x28576d45\n      swap2\n        /* \"contracts/Market.sol\":10920:10930  app.eVig() */\n      0x04\n      dup1\n      dup4\n      add\n      swap3\n      0x20\n      swap3\n      swap2\n      swap1\n      dup3\n      swap1\n      sub\n      add\n      dup2\n        /* \"contracts/Market.sol\":10920:10923  app */\n      dup7\n        /* \"contracts/Market.sol\":10920:10930  app.eVig() */\n      dup1\n      extcodesize\n      iszero\n      dup1\n      iszero\n      tag_359\n      jumpi\n      0x00\n      dup1\n      revert\n    tag_359:\n      pop\n      gas\n      staticcall\n      iszero\n      dup1\n      iszero\n      tag_361\n      jumpi\n      returndatasize\n      0x00\n      dup1\n      returndatacopy\n      revert(0x00, returndatasize)\n    tag_361:\n      pop\n      pop\n      pop\n      pop\n      mload(0x40)\n      returndatasize\n      not(0x1f)\n      0x1f\n      dup3\n      add\n      and\n      dup3\n      add\n      dup1\n      0x40\n      mstore\n      pop\n      dup2\n      add\n      swap1\n      tag_362\n      swap2\n      swap1\n      tag_108\n      jump\t// in\n    tag_362:\n        /* \"contracts/Market.sol\":10908:10930  vigAmount * app.eVig() */\n      tag_363\n      swap1\n        /* \"contracts/Market.sol\":10908:10917  vigAmount */\n      dup4\n        /* \"contracts/Market.sol\":10908:10930  vigAmount * app.eVig() */\n      tag_241\n      jump\t// in\n    tag_363:\n        /* \"contracts/Market.sol\":10908:10936  vigAmount * app.eVig() / 100 */\n      tag_364\n      swap2\n      swap1\n      tag_243\n      jump\t// in\n    tag_364:\n        /* \"contracts/Market.sol\":10886:10889  bal */\n      0x05\n        /* \"contracts/Market.sol\":10886:10904  bal[app.ecoAddr()] */\n      0x00\n        /* \"contracts/Market.sol\":10890:10893  app */\n      0x0a\n      0x00\n      swap1\n      sload\n      swap1\n      0x0100\n      exp\n      swap1\n      div\n      sub(shl(0xa0, 0x01), 0x01)\n      and\n      sub(shl(0xa0, 0x01), 0x01)\n        /* \"contracts/Market.sol\":10890:10901  app.ecoAddr */\n      and\n      0x09953b2f\n        /* \"contracts/Market.sol\":10890:10903  app.ecoAddr() */\n      mload(0x40)\n      dup2\n      0xffffffff\n      and\n      0xe0\n      shl\n      dup2\n      mstore\n      0x04\n      add\n      0x20\n      mload(0x40)\n      dup1\n      dup4\n      sub\n      dup2\n      dup7\n      dup1\n      extcodesize\n      iszero\n      dup1\n      iszero\n      tag_365\n      jumpi\n      0x00\n      dup1\n      revert\n    tag_365:\n      pop\n      gas\n      staticcall\n      iszero\n      dup1\n      iszero\n      tag_367\n      jumpi\n      returndatasize\n      0x00\n      dup1\n      returndatacopy\n      revert(0x00, returndatasize)\n    tag_367:\n      pop\n      pop\n      pop\n      pop\n      mload(0x40)\n      returndatasize\n      not(0x1f)\n      0x1f\n      dup3\n      add\n      and\n      dup3\n      add\n      dup1\n      0x40\n      mstore\n      pop\n      dup2\n      add\n      swap1\n      tag_368\n      swap2\n      swap1\n      tag_152\n      jump\t// in\n    tag_368:\n      sub(shl(0xa0, 0x01), 0x01)\n        /* \"contracts/Market.sol\":10886:10904  bal[app.ecoAddr()] */\n      and\n      sub(shl(0xa0, 0x01), 0x01)\n      and\n      dup2\n      mstore\n      0x20\n      add\n      swap1\n      dup2\n      mstore\n      0x20\n      add\n      0x00\n      keccak256\n      0x00\n        /* \"contracts/Market.sol\":10886:10936  bal[app.ecoAddr()] += vigAmount * app.eVig() / 100 */\n      dup3\n      dup3\n      sload\n      tag_369\n      swap2\n      swap1\n      tag_143\n      jump\t// in\n    tag_369:\n      swap1\n      swap2\n      sstore\n      pop\n      pop\n        /* \"contracts/Market.sol\":10984:10987  app */\n      sload(0x0a)\n        /* \"contracts/Market.sol\":10984:10994  app.aVig() */\n      0x40\n      dup1\n      mload\n      shl(0xe2, 0x15334697)\n      dup2\n      mstore\n      swap1\n      mload\n        /* \"contracts/Market.sol\":10997:11000  100 */\n      0x64\n      swap3\n      sub(shl(0xa0, 0x01), 0x01)\n        /* \"contracts/Market.sol\":10984:10987  app */\n      and\n      swap2\n        /* \"contracts/Market.sol\":10984:10992  app.aVig */\n      0x54cd1a5c\n      swap2\n        /* \"contracts/Market.sol\":10984:10994  app.aVig() */\n      0x04\n      dup1\n      dup4\n      add\n      swap3\n      0x20\n      swap3\n      swap2\n      swap1\n      dup3\n      swap1\n      sub\n      add\n      dup2\n        /* \"contracts/Market.sol\":10984:10987  app */\n      dup7\n        /* \"contracts/Market.sol\":10984:10994  app.aVig() */\n      dup1\n      extcodesize\n      iszero\n      dup1\n      iszero\n      tag_370\n      jumpi\n      0x00\n      dup1\n      revert\n    tag_370:\n      pop\n      gas\n      staticcall\n      iszero\n      dup1\n      iszero\n      tag_372\n      jumpi\n      returndatasize\n      0x00\n      dup1\n      returndatacopy\n      revert(0x00, returndatasize)\n    tag_372:\n      pop\n      pop\n      pop\n      pop\n      mload(0x40)\n      returndatasize\n      not(0x1f)\n      0x1f\n      dup3\n      add\n      and\n      dup3\n      add\n      dup1\n      0x40\n      mstore\n      pop\n      dup2\n      add\n      swap1\n      tag_373\n      swap2\n      swap1\n      tag_108\n      jump\t// in\n    tag_373:\n        /* \"contracts/Market.sol\":10972:10994  vigAmount * app.aVig() */\n      tag_374\n      swap1\n        /* \"contracts/Market.sol\":10972:10981  vigAmount */\n      dup4\n        /* \"contracts/Market.sol\":10972:10994  vigAmount * app.aVig() */\n      tag_241\n      jump\t// in\n    tag_374:\n        /* \"contracts/Market.sol\":10972:11000  vigAmount * app.aVig() / 100 */\n      tag_375\n      swap2\n      swap1\n      tag_243\n      jump\t// in\n    tag_375:\n        /* \"contracts/Market.sol\":10954:10967  bet.affiliate */\n      0x20\n      dup1\n      dup12\n      add\n      mload\n      sub(shl(0xa0, 0x01), 0x01)\n        /* \"contracts/Market.sol\":10950:10968  bal[bet.affiliate] */\n      and\n      0x00\n      swap1\n      dup2\n      mstore\n        /* \"contracts/Market.sol\":10950:10953  bal */\n      0x05\n        /* \"contracts/Market.sol\":10950:10968  bal[bet.affiliate] */\n      swap1\n      swap2\n      mstore\n      0x40\n      dup2\n      keccak256\n        /* \"contracts/Market.sol\":10950:11000  bal[bet.affiliate] += vigAmount * app.aVig() / 100 */\n      dup1\n      sload\n        /* \"contracts/Market.sol\":10950:10968  bal[bet.affiliate] */\n      swap1\n      swap2\n      swap1\n        /* \"contracts/Market.sol\":10950:11000  bal[bet.affiliate] += vigAmount * app.aVig() / 100 */\n      tag_376\n      swap1\n      dup5\n      swap1\n      tag_143\n      jump\t// in\n    tag_376:\n      swap3\n      pop\n      pop\n      dup2\n      swap1\n      sstore\n      pop\n        /* \"contracts/Market.sol\":11045:11049  true */\n      0x01\n        /* \"contracts/Market.sol\":11014:11023  pairsInfo */\n      0x08\n        /* \"contracts/Market.sol\":11014:11034  pairsInfo[_pairs[i]] */\n      0x00\n        /* \"contracts/Market.sol\":11024:11030  _pairs */\n      dup11\n        /* \"contracts/Market.sol\":11031:11032  i */\n      dup10\n        /* \"contracts/Market.sol\":11024:11033  _pairs[i] */\n      dup2\n      mload\n      dup2\n      lt\n      tag_377\n      jumpi\n      mstore(0x00, shl(0xe0, 0x4e487b71))\n      mstore(0x04, 0x32)\n      revert(0x00, 0x24)\n    tag_377:\n      0x20\n      mul\n      0x20\n      add\n      add\n      mload\n        /* \"contracts/Market.sol\":11014:11034  pairsInfo[_pairs[i]] */\n      dup2\n      mstore\n      0x20\n      add\n      swap1\n      dup2\n      mstore\n      0x20\n      add\n      0x00\n      keccak256\n        /* \"contracts/Market.sol\":11014:11042  pairsInfo[_pairs[i]].settled */\n      0x04\n      add\n      0x00\n        /* \"contracts/Market.sol\":11014:11049  pairsInfo[_pairs[i]].settled = true */\n      0x0100\n      exp\n      dup2\n      sload\n      dup2\n      0xff\n      mul\n      not\n      and\n      swap1\n      dup4\n      iszero\n      iszero\n      mul\n      or\n      swap1\n      sstore\n      pop\n        /* \"contracts/Market.sol\":9824:11060  for(uint i = 0; i < pairsLength; i++){... */\n      pop\n      pop\n      pop\n      pop\n      pop\n    tag_321:\n        /* \"contracts/Market.sol\":9857:9860  i++ */\n      dup1\n      tag_378\n      dup2\n      tag_134\n      jump\t// in\n    tag_378:\n      swap2\n      pop\n      pop\n        /* \"contracts/Market.sol\":9824:11060  for(uint i = 0; i < pairsLength; i++){... */\n      jump(tag_319)\n    tag_320:\n      pop\n        /* \"contracts/Market.sol\":11076:11080  true */\n      0x01\n      swap6\n        /* \"contracts/Market.sol\":9607:11087  function _cancelBetPairs(bytes32 _bet) private returns(bool) {... */\n      swap5\n      pop\n      pop\n      pop\n      pop\n      pop\n      jump\t// out\n        /* \"contracts/Market.sol\":11544:12817  function _settlePair(bytes32 _pair) private nonReentrant returns(bool) {... */\n    tag_132:\n        /* \"contracts/Market.sol\":11609:11613  bool */\n      0x00\n        /* \"@openzeppelin/contracts/security/ReentrancyGuard.sol\":1744:1745  2 */\n      0x02\n        /* \"@openzeppelin/contracts/security/ReentrancyGuard.sol\":2325:2332  _status */\n      sload(0x00)\n        /* \"@openzeppelin/contracts/security/ReentrancyGuard.sol\":2325:2344  _status != _ENTERED */\n      eq\n      iszero\n        /* \"@openzeppelin/contracts/security/ReentrancyGuard.sol\":2317:2380  require(_status != _ENTERED, \"ReentrancyGuard: reentrant call\") */\n      tag_380\n      jumpi\n      mload(0x40)\n      shl(0xe5, 0x461bcd)\n      dup2\n      mstore\n        /* \"#utility.yul\":9798:9800   */\n      0x20\n        /* \"@openzeppelin/contracts/security/ReentrancyGuard.sol\":2317:2380  require(_status != _ENTERED, \"ReentrancyGuard: reentrant call\") */\n      0x04\n      dup3\n      add\n        /* \"#utility.yul\":9780:9801   */\n      mstore\n        /* \"#utility.yul\":9837:9839   */\n      0x1f\n        /* \"#utility.yul\":9817:9835   */\n      0x24\n      dup3\n      add\n        /* \"#utility.yul\":9810:9840   */\n      mstore\n        /* \"#utility.yul\":9876:9909   */\n      0x5265656e7472616e637947756172643a207265656e7472616e742063616c6c00\n        /* \"#utility.yul\":9856:9874   */\n      0x44\n      dup3\n      add\n        /* \"#utility.yul\":9849:9910   */\n      mstore\n        /* \"#utility.yul\":9927:9945   */\n      0x64\n      add\n        /* \"@openzeppelin/contracts/security/ReentrancyGuard.sol\":2317:2380  require(_status != _ENTERED, \"ReentrancyGuard: reentrant call\") */\n      tag_84\n        /* \"#utility.yul\":9770:9951   */\n      jump\n        /* \"@openzeppelin/contracts/security/ReentrancyGuard.sol\":2317:2380  require(_status != _ENTERED, \"ReentrancyGuard: reentrant call\") */\n    tag_380:\n        /* \"@openzeppelin/contracts/security/ReentrancyGuard.sol\":1744:1745  2 */\n      0x02\n        /* \"@openzeppelin/contracts/security/ReentrancyGuard.sol\":2455:2462  _status */\n      0x00\n        /* \"@openzeppelin/contracts/security/ReentrancyGuard.sol\":2455:2473  _status = _ENTERED */\n      swap1\n      dup2\n      sstore\n        /* \"contracts/Market.sol\":11628:11644  pairsInfo[_pair] */\n      dup3\n      dup2\n      mstore\n        /* \"contracts/Market.sol\":11628:11637  pairsInfo */\n      0x08\n        /* \"contracts/Market.sol\":11628:11644  pairsInfo[_pair] */\n      0x20\n      mstore\n      0x40\n      swap1\n      keccak256\n        /* \"contracts/Market.sol\":11628:11652  pairsInfo[_pair].settled */\n      0x04\n      add\n      sload\n      0xff\n      and\n        /* \"contracts/Market.sol\":11625:11690  if(pairsInfo[_pair].settled){... */\n      iszero\n      tag_383\n      jumpi\n      pop\n        /* \"contracts/Market.sol\":11674:11679  false */\n      0x00\n        /* \"contracts/Market.sol\":11667:11679  return false */\n      jump(tag_101)\n        /* \"contracts/Market.sol\":11625:11690  if(pairsInfo[_pair].settled){... */\n    tag_383:\n        /* \"contracts/Market.sol\":11699:11713  address winner */\n      0x00\n        /* \"contracts/Market.sol\":11723:11740  address affiliate */\n      dup1\n        /* \"contracts/Market.sol\":11750:11767  uint256 winAmount */\n      0x00\n        /* \"contracts/Market.sol\":11777:11794  uint256 vigAmount */\n      dup1\n        /* \"contracts/Market.sol\":11807:11813  status */\n      sload(0x02)\n        /* \"contracts/Market.sol\":11817:11818  1 */\n      0x01\n        /* \"contracts/Market.sol\":11807:11818  status == 1 */\n      eq\n        /* \"contracts/Market.sol\":11804:12538  if(status == 1){... */\n      iszero\n      tag_384\n      jumpi\n        /* \"contracts/Market.sol\":11842:11877  betsInfo[pairsInfo[_pair].betHashA] */\n      0x00\n        /* \"contracts/Market.sol\":11851:11867  pairsInfo[_pair] */\n      dup7\n      dup2\n      mstore\n        /* \"contracts/Market.sol\":11851:11860  pairsInfo */\n      0x08\n        /* \"contracts/Market.sol\":11851:11867  pairsInfo[_pair] */\n      0x20\n      swap1\n      dup2\n      mstore\n      0x40\n      dup1\n      dup4\n      keccak256\n        /* \"contracts/Market.sol\":11851:11876  pairsInfo[_pair].betHashA */\n      sload\n        /* \"contracts/Market.sol\":11842:11877  betsInfo[pairsInfo[_pair].betHashA] */\n      dup4\n      mstore\n        /* \"contracts/Market.sol\":11842:11850  betsInfo */\n      0x06\n        /* \"contracts/Market.sol\":11842:11877  betsInfo[pairsInfo[_pair].betHashA] */\n      dup3\n      mstore\n      swap2\n      dup3\n      swap1\n      keccak256\n        /* \"contracts/Market.sol\":11842:11884  betsInfo[pairsInfo[_pair].betHashA].better */\n      sload\n        /* \"contracts/Market.sol\":11972:11975  app */\n      sload(0x0a)\n        /* \"contracts/Market.sol\":11972:11981  app.vig() */\n      dup4\n      mload\n      shl(0xe0, 0x55c4a8bf)\n      dup2\n      mstore\n      swap4\n      mload\n      sub(shl(0xa0, 0x01), 0x01)\n        /* \"contracts/Market.sol\":11842:11884  betsInfo[pairsInfo[_pair].betHashA].better */\n      swap3\n      dup4\n      and\n      swap9\n      pop\n        /* \"contracts/Market.sol\":11985:11988  100 */\n      0x64\n      swap5\n        /* \"contracts/Market.sol\":11972:11975  app */\n      swap2\n      swap1\n      swap3\n      and\n      swap3\n        /* \"contracts/Market.sol\":11972:11979  app.vig */\n      0x55c4a8bf\n      swap3\n        /* \"contracts/Market.sol\":11972:11981  app.vig() */\n      0x04\n      dup1\n      dup5\n      add\n      swap4\n      dup3\n      swap1\n      sub\n      add\n      dup2\n        /* \"contracts/Market.sol\":11972:11975  app */\n      dup7\n        /* \"contracts/Market.sol\":11972:11981  app.vig() */\n      dup1\n      extcodesize\n      iszero\n      dup1\n      iszero\n      tag_385\n      jumpi\n      0x00\n      dup1\n      revert\n    tag_385:\n      pop\n      gas\n      staticcall\n      iszero\n      dup1\n      iszero\n      tag_387\n      jumpi\n      returndatasize\n      0x00\n      dup1\n      returndatacopy\n      revert(0x00, returndatasize)\n    tag_387:\n      pop\n      pop\n      pop\n      pop\n      mload(0x40)\n      returndatasize\n      not(0x1f)\n      0x1f\n      dup3\n      add\n      and\n      dup3\n      add\n      dup1\n      0x40\n      mstore\n      pop\n      dup2\n      add\n      swap1\n      tag_388\n      swap2\n      swap1\n      tag_108\n      jump\t// in\n    tag_388:\n        /* \"contracts/Market.sol\":11966:11981  100 - app.vig() */\n      tag_389\n      swap1\n        /* \"contracts/Market.sol\":11966:11969  100 */\n      0x64\n        /* \"contracts/Market.sol\":11966:11981  100 - app.vig() */\n      tag_141\n      jump\t// in\n    tag_389:\n        /* \"contracts/Market.sol\":11938:11954  pairsInfo[_pair] */\n      0x00\n      dup9\n      dup2\n      mstore\n        /* \"contracts/Market.sol\":11938:11947  pairsInfo */\n      0x08\n        /* \"contracts/Market.sol\":11938:11954  pairsInfo[_pair] */\n      0x20\n      mstore\n      0x40\n      swap1\n      keccak256\n        /* \"contracts/Market.sol\":11938:11962  pairsInfo[_pair].amountB */\n      0x03\n      add\n      sload\n        /* \"contracts/Market.sol\":11938:11982  pairsInfo[_pair].amountB * (100 - app.vig()) */\n      tag_390\n      swap2\n      swap1\n      tag_241\n      jump\t// in\n    tag_390:\n        /* \"contracts/Market.sol\":11938:11988  pairsInfo[_pair].amountB * (100 - app.vig()) / 100 */\n      tag_391\n      swap2\n      swap1\n      tag_243\n      jump\t// in\n    tag_391:\n        /* \"contracts/Market.sol\":11910:11926  pairsInfo[_pair] */\n      0x00\n      dup8\n      dup2\n      mstore\n        /* \"contracts/Market.sol\":11910:11919  pairsInfo */\n      0x08\n        /* \"contracts/Market.sol\":11910:11926  pairsInfo[_pair] */\n      0x20\n      mstore\n      0x40\n      swap1\n      keccak256\n        /* \"contracts/Market.sol\":11910:11934  pairsInfo[_pair].amountA */\n      0x02\n      add\n      sload\n        /* \"contracts/Market.sol\":11910:11989  pairsInfo[_pair].amountA + (pairsInfo[_pair].amountB * (100 - app.vig()) / 100) */\n      tag_392\n      swap2\n      swap1\n      tag_143\n      jump\t// in\n    tag_392:\n        /* \"contracts/Market.sol\":11898:11989  winAmount = pairsInfo[_pair].amountA + (pairsInfo[_pair].amountB * (100 - app.vig()) / 100) */\n      swap2\n      pop\n        /* \"contracts/Market.sol\":12054:12057  100 */\n      0x64\n        /* \"contracts/Market.sol\":12042:12045  app */\n      0x0a\n      0x00\n      swap1\n      sload\n      swap1\n      0x0100\n      exp\n      swap1\n      div\n      sub(shl(0xa0, 0x01), 0x01)\n      and\n      sub(shl(0xa0, 0x01), 0x01)\n        /* \"contracts/Market.sol\":12042:12049  app.vig */\n      and\n      0x55c4a8bf\n        /* \"contracts/Market.sol\":12042:12051  app.vig() */\n      mload(0x40)\n      dup2\n      0xffffffff\n      and\n      0xe0\n      shl\n      dup2\n      mstore\n      0x04\n      add\n      0x20\n      mload(0x40)\n      dup1\n      dup4\n      sub\n      dup2\n      dup7\n      dup1\n      extcodesize\n      iszero\n      dup1\n      iszero\n      tag_393\n      jumpi\n      0x00\n      dup1\n      revert\n    tag_393:\n      pop\n      gas\n      staticcall\n      iszero\n      dup1\n      iszero\n      tag_395\n      jumpi\n      returndatasize\n      0x00\n      dup1\n      returndatacopy\n      revert(0x00, returndatasize)\n    tag_395:\n      pop\n      pop\n      pop\n      pop\n      mload(0x40)\n      returndatasize\n      not(0x1f)\n      0x1f\n      dup3\n      add\n      and\n      dup3\n      add\n      dup1\n      0x40\n      mstore\n      pop\n      dup2\n      add\n      swap1\n      tag_396\n      swap2\n      swap1\n      tag_108\n      jump\t// in\n    tag_396:\n        /* \"contracts/Market.sol\":12015:12031  pairsInfo[_pair] */\n      0x00\n      dup9\n      dup2\n      mstore\n        /* \"contracts/Market.sol\":12015:12024  pairsInfo */\n      0x08\n        /* \"contracts/Market.sol\":12015:12031  pairsInfo[_pair] */\n      0x20\n      mstore\n      0x40\n      swap1\n      keccak256\n        /* \"contracts/Market.sol\":12015:12039  pairsInfo[_pair].amountB */\n      0x03\n      add\n      sload\n        /* \"contracts/Market.sol\":12015:12051  pairsInfo[_pair].amountB * app.vig() */\n      tag_397\n      swap2\n      swap1\n      tag_241\n      jump\t// in\n    tag_397:\n        /* \"contracts/Market.sol\":12015:12057  pairsInfo[_pair].amountB * app.vig() / 100 */\n      tag_398\n      swap2\n      swap1\n      tag_243\n      jump\t// in\n    tag_398:\n        /* \"contracts/Market.sol\":12083:12118  betsInfo[pairsInfo[_pair].betHashA] */\n      0x00\n        /* \"contracts/Market.sol\":12092:12108  pairsInfo[_pair] */\n      dup8\n      dup2\n      mstore\n        /* \"contracts/Market.sol\":12092:12101  pairsInfo */\n      0x08\n        /* \"contracts/Market.sol\":12092:12108  pairsInfo[_pair] */\n      0x20\n      swap1\n      dup2\n      mstore\n      0x40\n      dup1\n      dup4\n      keccak256\n        /* \"contracts/Market.sol\":12092:12117  pairsInfo[_pair].betHashA */\n      sload\n        /* \"contracts/Market.sol\":12083:12118  betsInfo[pairsInfo[_pair].betHashA] */\n      dup4\n      mstore\n        /* \"contracts/Market.sol\":12083:12091  betsInfo */\n      0x06\n        /* \"contracts/Market.sol\":12083:12118  betsInfo[pairsInfo[_pair].betHashA] */\n      swap1\n      swap2\n      mstore\n      swap1\n      keccak256\n        /* \"contracts/Market.sol\":12083:12128  betsInfo[pairsInfo[_pair].betHashA].affiliate */\n      0x01\n      add\n      sload\n      sub(shl(0xa0, 0x01), 0x01)\n      and\n      swap4\n      pop\n        /* \"contracts/Market.sol\":12003:12057  vigAmount = pairsInfo[_pair].amountB * app.vig() / 100 */\n      swap1\n      pop\n        /* \"contracts/Market.sol\":11804:12538  if(status == 1){... */\n      jump(tag_415)\n    tag_384:\n        /* \"contracts/Market.sol\":12156:12162  status */\n      sload(0x02)\n        /* \"contracts/Market.sol\":12166:12167  2 */\n      0x02\n        /* \"contracts/Market.sol\":12156:12167  status == 2 */\n      eq\n        /* \"contracts/Market.sol\":12153:12538  if(status == 2){... */\n      iszero\n      tag_400\n      jumpi\n        /* \"contracts/Market.sol\":12191:12226  betsInfo[pairsInfo[_pair].betHashB] */\n      0x00\n        /* \"contracts/Market.sol\":12200:12216  pairsInfo[_pair] */\n      dup7\n      dup2\n      mstore\n        /* \"contracts/Market.sol\":12200:12209  pairsInfo */\n      0x08\n        /* \"contracts/Market.sol\":12200:12216  pairsInfo[_pair] */\n      0x20\n      swap1\n      dup2\n      mstore\n      0x40\n      dup1\n      dup4\n      keccak256\n        /* \"contracts/Market.sol\":12200:12225  pairsInfo[_pair].betHashB */\n      0x01\n      add\n      sload\n        /* \"contracts/Market.sol\":12191:12226  betsInfo[pairsInfo[_pair].betHashB] */\n      dup4\n      mstore\n        /* \"contracts/Market.sol\":12191:12199  betsInfo */\n      0x06\n        /* \"contracts/Market.sol\":12191:12226  betsInfo[pairsInfo[_pair].betHashB] */\n      dup3\n      mstore\n      swap2\n      dup3\n      swap1\n      keccak256\n        /* \"contracts/Market.sol\":12191:12233  betsInfo[pairsInfo[_pair].betHashB].better */\n      sload\n        /* \"contracts/Market.sol\":12321:12324  app */\n      sload(0x0a)\n        /* \"contracts/Market.sol\":12321:12330  app.vig() */\n      dup4\n      mload\n      shl(0xe0, 0x55c4a8bf)\n      dup2\n      mstore\n      swap4\n      mload\n      sub(shl(0xa0, 0x01), 0x01)\n        /* \"contracts/Market.sol\":12191:12233  betsInfo[pairsInfo[_pair].betHashB].better */\n      swap3\n      dup4\n      and\n      swap9\n      pop\n        /* \"contracts/Market.sol\":12334:12337  100 */\n      0x64\n      swap5\n        /* \"contracts/Market.sol\":12321:12324  app */\n      swap2\n      swap1\n      swap3\n      and\n      swap3\n        /* \"contracts/Market.sol\":12321:12328  app.vig */\n      0x55c4a8bf\n      swap3\n        /* \"contracts/Market.sol\":12321:12330  app.vig() */\n      0x04\n      dup1\n      dup5\n      add\n      swap4\n      dup3\n      swap1\n      sub\n      add\n      dup2\n        /* \"contracts/Market.sol\":12321:12324  app */\n      dup7\n        /* \"contracts/Market.sol\":12321:12330  app.vig() */\n      dup1\n      extcodesize\n      iszero\n      dup1\n      iszero\n      tag_401\n      jumpi\n      0x00\n      dup1\n      revert\n    tag_401:\n      pop\n      gas\n      staticcall\n      iszero\n      dup1\n      iszero\n      tag_403\n      jumpi\n      returndatasize\n      0x00\n      dup1\n      returndatacopy\n      revert(0x00, returndatasize)\n    tag_403:\n      pop\n      pop\n      pop\n      pop\n      mload(0x40)\n      returndatasize\n      not(0x1f)\n      0x1f\n      dup3\n      add\n      and\n      dup3\n      add\n      dup1\n      0x40\n      mstore\n      pop\n      dup2\n      add\n      swap1\n      tag_404\n      swap2\n      swap1\n      tag_108\n      jump\t// in\n    tag_404:\n        /* \"contracts/Market.sol\":12315:12330  100 - app.vig() */\n      tag_405\n      swap1\n        /* \"contracts/Market.sol\":12315:12318  100 */\n      0x64\n        /* \"contracts/Market.sol\":12315:12330  100 - app.vig() */\n      tag_141\n      jump\t// in\n    tag_405:\n        /* \"contracts/Market.sol\":12287:12303  pairsInfo[_pair] */\n      0x00\n      dup9\n      dup2\n      mstore\n        /* \"contracts/Market.sol\":12287:12296  pairsInfo */\n      0x08\n        /* \"contracts/Market.sol\":12287:12303  pairsInfo[_pair] */\n      0x20\n      mstore\n      0x40\n      swap1\n      keccak256\n        /* \"contracts/Market.sol\":12287:12311  pairsInfo[_pair].amountA */\n      0x02\n      add\n      sload\n        /* \"contracts/Market.sol\":12287:12331  pairsInfo[_pair].amountA * (100 - app.vig()) */\n      tag_406\n      swap2\n      swap1\n      tag_241\n      jump\t// in\n    tag_406:\n        /* \"contracts/Market.sol\":12287:12337  pairsInfo[_pair].amountA * (100 - app.vig()) / 100 */\n      tag_407\n      swap2\n      swap1\n      tag_243\n      jump\t// in\n    tag_407:\n        /* \"contracts/Market.sol\":12259:12275  pairsInfo[_pair] */\n      0x00\n      dup8\n      dup2\n      mstore\n        /* \"contracts/Market.sol\":12259:12268  pairsInfo */\n      0x08\n        /* \"contracts/Market.sol\":12259:12275  pairsInfo[_pair] */\n      0x20\n      mstore\n      0x40\n      swap1\n      keccak256\n        /* \"contracts/Market.sol\":12259:12283  pairsInfo[_pair].amountB */\n      0x03\n      add\n      sload\n        /* \"contracts/Market.sol\":12259:12338  pairsInfo[_pair].amountB + (pairsInfo[_pair].amountA * (100 - app.vig()) / 100) */\n      tag_408\n      swap2\n      swap1\n      tag_143\n      jump\t// in\n    tag_408:\n        /* \"contracts/Market.sol\":12247:12338  winAmount = pairsInfo[_pair].amountB + (pairsInfo[_pair].amountA * (100 - app.vig()) / 100) */\n      swap2\n      pop\n        /* \"contracts/Market.sol\":12403:12406  100 */\n      0x64\n        /* \"contracts/Market.sol\":12391:12394  app */\n      0x0a\n      0x00\n      swap1\n      sload\n      swap1\n      0x0100\n      exp\n      swap1\n      div\n      sub(shl(0xa0, 0x01), 0x01)\n      and\n      sub(shl(0xa0, 0x01), 0x01)\n        /* \"contracts/Market.sol\":12391:12398  app.vig */\n      and\n      0x55c4a8bf\n        /* \"contracts/Market.sol\":12391:12400  app.vig() */\n      mload(0x40)\n      dup2\n      0xffffffff\n      and\n      0xe0\n      shl\n      dup2\n      mstore\n      0x04\n      add\n      0x20\n      mload(0x40)\n      dup1\n      dup4\n      sub\n      dup2\n      dup7\n      dup1\n      extcodesize\n      iszero\n      dup1\n      iszero\n      tag_409\n      jumpi\n      0x00\n      dup1\n      revert\n    tag_409:\n      pop\n      gas\n      staticcall\n      iszero\n      dup1\n      iszero\n      tag_411\n      jumpi\n      returndatasize\n      0x00\n      dup1\n      returndatacopy\n      revert(0x00, returndatasize)\n    tag_411:\n      pop\n      pop\n      pop\n      pop\n      mload(0x40)\n      returndatasize\n      not(0x1f)\n      0x1f\n      dup3\n      add\n      and\n      dup3\n      add\n      dup1\n      0x40\n      mstore\n      pop\n      dup2\n      add\n      swap1\n      tag_412\n      swap2\n      swap1\n      tag_108\n      jump\t// in\n    tag_412:\n        /* \"contracts/Market.sol\":12364:12380  pairsInfo[_pair] */\n      0x00\n      dup9\n      dup2\n      mstore\n        /* \"contracts/Market.sol\":12364:12373  pairsInfo */\n      0x08\n        /* \"contracts/Market.sol\":12364:12380  pairsInfo[_pair] */\n      0x20\n      mstore\n      0x40\n      swap1\n      keccak256\n        /* \"contracts/Market.sol\":12364:12388  pairsInfo[_pair].amountA */\n      0x02\n      add\n      sload\n        /* \"contracts/Market.sol\":12364:12400  pairsInfo[_pair].amountA * app.vig() */\n      tag_413\n      swap2\n      swap1\n      tag_241\n      jump\t// in\n    tag_413:\n        /* \"contracts/Market.sol\":12364:12406  pairsInfo[_pair].amountA * app.vig() / 100 */\n      tag_414\n      swap2\n      swap1\n      tag_243\n      jump\t// in\n    tag_414:\n        /* \"contracts/Market.sol\":12432:12467  betsInfo[pairsInfo[_pair].betHashB] */\n      0x00\n        /* \"contracts/Market.sol\":12441:12457  pairsInfo[_pair] */\n      dup8\n      dup2\n      mstore\n        /* \"contracts/Market.sol\":12441:12450  pairsInfo */\n      0x08\n        /* \"contracts/Market.sol\":12441:12457  pairsInfo[_pair] */\n      0x20\n      swap1\n      dup2\n      mstore\n      0x40\n      dup1\n      dup4\n      keccak256\n        /* \"contracts/Market.sol\":12441:12466  pairsInfo[_pair].betHashB */\n      0x01\n      swap1\n      dup2\n      add\n      sload\n        /* \"contracts/Market.sol\":12432:12467  betsInfo[pairsInfo[_pair].betHashB] */\n      dup5\n      mstore\n        /* \"contracts/Market.sol\":12432:12440  betsInfo */\n      0x06\n        /* \"contracts/Market.sol\":12432:12467  betsInfo[pairsInfo[_pair].betHashB] */\n      swap1\n      swap3\n      mstore\n      swap1\n      swap2\n      keccak256\n        /* \"contracts/Market.sol\":12432:12477  betsInfo[pairsInfo[_pair].betHashB].affiliate */\n      add\n      sload\n      sub(shl(0xa0, 0x01), 0x01)\n      and\n      swap4\n      pop\n        /* \"contracts/Market.sol\":12352:12406  vigAmount = pairsInfo[_pair].amountA * app.vig() / 100 */\n      swap1\n      pop\n        /* \"contracts/Market.sol\":12153:12538  if(status == 2){... */\n      jump(tag_415)\n    tag_400:\n        /* \"contracts/Market.sol\":12522:12527  false */\n      0x00\n        /* \"contracts/Market.sol\":12515:12527  return false */\n      swap5\n      pop\n      pop\n      pop\n      pop\n      pop\n      jump(tag_101)\n        /* \"contracts/Market.sol\":12153:12538  if(status == 2){... */\n    tag_415:\n      sub(shl(0xa0, 0x01), 0x01)\n        /* \"contracts/Market.sol\":12547:12558  bal[winner] */\n      dup5\n      and\n      0x00\n      swap1\n      dup2\n      mstore\n        /* \"contracts/Market.sol\":12547:12550  bal */\n      0x05\n        /* \"contracts/Market.sol\":12547:12558  bal[winner] */\n      0x20\n      mstore\n      0x40\n      dup2\n      keccak256\n        /* \"contracts/Market.sol\":12547:12571  bal[winner] += winAmount */\n      dup1\n      sload\n        /* \"contracts/Market.sol\":12562:12571  winAmount */\n      dup5\n      swap3\n        /* \"contracts/Market.sol\":12547:12558  bal[winner] */\n      swap1\n        /* \"contracts/Market.sol\":12547:12571  bal[winner] += winAmount */\n      tag_416\n      swap1\n        /* \"contracts/Market.sol\":12562:12571  winAmount */\n      dup5\n      swap1\n        /* \"contracts/Market.sol\":12547:12571  bal[winner] += winAmount */\n      tag_143\n      jump\t// in\n    tag_416:\n      swap1\n      swap2\n      sstore\n      pop\n      pop\n        /* \"contracts/Market.sol\":12616:12619  app */\n      sload(0x0a)\n        /* \"contracts/Market.sol\":12616:12626  app.hVig() */\n      0x40\n      dup1\n      mload\n      shl(0xe0, 0x6a0ccd9d)\n      dup2\n      mstore\n      swap1\n      mload\n        /* \"contracts/Market.sol\":12629:12632  100 */\n      0x64\n      swap3\n      sub(shl(0xa0, 0x01), 0x01)\n        /* \"contracts/Market.sol\":12616:12619  app */\n      and\n      swap2\n        /* \"contracts/Market.sol\":12616:12624  app.hVig */\n      0x6a0ccd9d\n      swap2\n        /* \"contracts/Market.sol\":12616:12626  app.hVig() */\n      0x04\n      dup1\n      dup4\n      add\n      swap3\n      0x20\n      swap3\n      swap2\n      swap1\n      dup3\n      swap1\n      sub\n      add\n      dup2\n        /* \"contracts/Market.sol\":12616:12619  app */\n      dup7\n        /* \"contracts/Market.sol\":12616:12626  app.hVig() */\n      dup1\n      extcodesize\n      iszero\n      dup1\n      iszero\n      tag_417\n      jumpi\n      0x00\n      dup1\n      revert\n    tag_417:\n      pop\n      gas\n      staticcall\n      iszero\n      dup1\n      iszero\n      tag_419\n      jumpi\n      returndatasize\n      0x00\n      dup1\n      returndatacopy\n      revert(0x00, returndatasize)\n    tag_419:\n      pop\n      pop\n      pop\n      pop\n      mload(0x40)\n      returndatasize\n      not(0x1f)\n      0x1f\n      dup3\n      add\n      and\n      dup3\n      add\n      dup1\n      0x40\n      mstore\n      pop\n      dup2\n      add\n      swap1\n      tag_420\n      swap2\n      swap1\n      tag_108\n      jump\t// in\n    tag_420:\n        /* \"contracts/Market.sol\":12604:12626  vigAmount * app.hVig() */\n      tag_421\n      swap1\n        /* \"contracts/Market.sol\":12604:12613  vigAmount */\n      dup4\n        /* \"contracts/Market.sol\":12604:12626  vigAmount * app.hVig() */\n      tag_241\n      jump\t// in\n    tag_421:\n        /* \"contracts/Market.sol\":12604:12632  vigAmount * app.hVig() / 100 */\n      tag_422\n      swap2\n      swap1\n      tag_243\n      jump\t// in\n    tag_422:\n        /* \"contracts/Market.sol\":12581:12584  bal */\n      0x05\n        /* \"contracts/Market.sol\":12581:12600  bal[app.holdAddr()] */\n      0x00\n        /* \"contracts/Market.sol\":12585:12588  app */\n      0x0a\n      0x00\n      swap1\n      sload\n      swap1\n      0x0100\n      exp\n      swap1\n      div\n      sub(shl(0xa0, 0x01), 0x01)\n      and\n      sub(shl(0xa0, 0x01), 0x01)\n        /* \"contracts/Market.sol\":12585:12597  app.holdAddr */\n      and\n      0xb7640a54\n        /* \"contracts/Market.sol\":12585:12599  app.holdAddr() */\n      mload(0x40)\n      dup2\n      0xffffffff\n      and\n      0xe0\n      shl\n      dup2\n      mstore\n      0x04\n      add\n      0x20\n      mload(0x40)\n      dup1\n      dup4\n      sub\n      dup2\n      dup7\n      dup1\n      extcodesize\n      iszero\n      dup1\n      iszero\n      tag_423\n      jumpi\n      0x00\n      dup1\n      revert\n    tag_423:\n      pop\n      gas\n      staticcall\n      iszero\n      dup1\n      iszero\n      tag_425\n      jumpi\n      returndatasize\n      0x00\n      dup1\n      returndatacopy\n      revert(0x00, returndatasize)\n    tag_425:\n      pop\n      pop\n      pop\n      pop\n      mload(0x40)\n      returndatasize\n      not(0x1f)\n      0x1f\n      dup3\n      add\n      and\n      dup3\n      add\n      dup1\n      0x40\n      mstore\n      pop\n      dup2\n      add\n      swap1\n      tag_426\n      swap2\n      swap1\n      tag_152\n      jump\t// in\n    tag_426:\n      sub(shl(0xa0, 0x01), 0x01)\n        /* \"contracts/Market.sol\":12581:12600  bal[app.holdAddr()] */\n      and\n      sub(shl(0xa0, 0x01), 0x01)\n      and\n      dup2\n      mstore\n      0x20\n      add\n      swap1\n      dup2\n      mstore\n      0x20\n      add\n      0x00\n      keccak256\n      0x00\n        /* \"contracts/Market.sol\":12581:12632  bal[app.holdAddr()] += vigAmount * app.hVig() / 100 */\n      dup3\n      dup3\n      sload\n      tag_427\n      swap2\n      swap1\n      tag_143\n      jump\t// in\n    tag_427:\n      swap1\n      swap2\n      sstore\n      pop\n      pop\n        /* \"contracts/Market.sol\":12676:12679  app */\n      sload(0x0a)\n        /* \"contracts/Market.sol\":12676:12686  app.eVig() */\n      0x40\n      dup1\n      mload\n      shl(0xe0, 0x28576d45)\n      dup2\n      mstore\n      swap1\n      mload\n        /* \"contracts/Market.sol\":12689:12692  100 */\n      0x64\n      swap3\n      sub(shl(0xa0, 0x01), 0x01)\n        /* \"contracts/Market.sol\":12676:12679  app */\n      and\n      swap2\n        /* \"contracts/Market.sol\":12676:12684  app.eVig */\n      0x28576d45\n      swap2\n        /* \"contracts/Market.sol\":12676:12686  app.eVig() */\n      0x04\n      dup1\n      dup4\n      add\n      swap3\n      0x20\n      swap3\n      swap2\n      swap1\n      dup3\n      swap1\n      sub\n      add\n      dup2\n        /* \"contracts/Market.sol\":12676:12679  app */\n      dup7\n        /* \"contracts/Market.sol\":12676:12686  app.eVig() */\n      dup1\n      extcodesize\n      iszero\n      dup1\n      iszero\n      tag_428\n      jumpi\n      0x00\n      dup1\n      revert\n    tag_428:\n      pop\n      gas\n      staticcall\n      iszero\n      dup1\n      iszero\n      tag_430\n      jumpi\n      returndatasize\n      0x00\n      dup1\n      returndatacopy\n      revert(0x00, returndatasize)\n    tag_430:\n      pop\n      pop\n      pop\n      pop\n      mload(0x40)\n      returndatasize\n      not(0x1f)\n      0x1f\n      dup3\n      add\n      and\n      dup3\n      add\n      dup1\n      0x40\n      mstore\n      pop\n      dup2\n      add\n      swap1\n      tag_431\n      swap2\n      swap1\n      tag_108\n      jump\t// in\n    tag_431:\n        /* \"contracts/Market.sol\":12664:12686  vigAmount * app.eVig() */\n      tag_432\n      swap1\n        /* \"contracts/Market.sol\":12664:12673  vigAmount */\n      dup4\n        /* \"contracts/Market.sol\":12664:12686  vigAmount * app.eVig() */\n      tag_241\n      jump\t// in\n    tag_432:\n        /* \"contracts/Market.sol\":12664:12692  vigAmount * app.eVig() / 100 */\n      tag_433\n      swap2\n      swap1\n      tag_243\n      jump\t// in\n    tag_433:\n        /* \"contracts/Market.sol\":12642:12645  bal */\n      0x05\n        /* \"contracts/Market.sol\":12642:12660  bal[app.ecoAddr()] */\n      0x00\n        /* \"contracts/Market.sol\":12646:12649  app */\n      0x0a\n      0x00\n      swap1\n      sload\n      swap1\n      0x0100\n      exp\n      swap1\n      div\n      sub(shl(0xa0, 0x01), 0x01)\n      and\n      sub(shl(0xa0, 0x01), 0x01)\n        /* \"contracts/Market.sol\":12646:12657  app.ecoAddr */\n      and\n      0x09953b2f\n        /* \"contracts/Market.sol\":12646:12659  app.ecoAddr() */\n      mload(0x40)\n      dup2\n      0xffffffff\n      and\n      0xe0\n      shl\n      dup2\n      mstore\n      0x04\n      add\n      0x20\n      mload(0x40)\n      dup1\n      dup4\n      sub\n      dup2\n      dup7\n      dup1\n      extcodesize\n      iszero\n      dup1\n      iszero\n      tag_434\n      jumpi\n      0x00\n      dup1\n      revert\n    tag_434:\n      pop\n      gas\n      staticcall\n      iszero\n      dup1\n      iszero\n      tag_436\n      jumpi\n      returndatasize\n      0x00\n      dup1\n      returndatacopy\n      revert(0x00, returndatasize)\n    tag_436:\n      pop\n      pop\n      pop\n      pop\n      mload(0x40)\n      returndatasize\n      not(0x1f)\n      0x1f\n      dup3\n      add\n      and\n      dup3\n      add\n      dup1\n      0x40\n      mstore\n      pop\n      dup2\n      add\n      swap1\n      tag_437\n      swap2\n      swap1\n      tag_152\n      jump\t// in\n    tag_437:\n      sub(shl(0xa0, 0x01), 0x01)\n        /* \"contracts/Market.sol\":12642:12660  bal[app.ecoAddr()] */\n      and\n      sub(shl(0xa0, 0x01), 0x01)\n      and\n      dup2\n      mstore\n      0x20\n      add\n      swap1\n      dup2\n      mstore\n      0x20\n      add\n      0x00\n      keccak256\n      0x00\n        /* \"contracts/Market.sol\":12642:12692  bal[app.ecoAddr()] += vigAmount * app.eVig() / 100 */\n      dup3\n      dup3\n      sload\n      tag_438\n      swap2\n      swap1\n      tag_143\n      jump\t// in\n    tag_438:\n      swap1\n      swap2\n      sstore\n      pop\n      pop\n        /* \"contracts/Market.sol\":12732:12735  app */\n      sload(0x0a)\n        /* \"contracts/Market.sol\":12732:12742  app.aVig() */\n      0x40\n      dup1\n      mload\n      shl(0xe2, 0x15334697)\n      dup2\n      mstore\n      swap1\n      mload\n        /* \"contracts/Market.sol\":12745:12748  100 */\n      0x64\n      swap3\n      sub(shl(0xa0, 0x01), 0x01)\n        /* \"contracts/Market.sol\":12732:12735  app */\n      and\n      swap2\n        /* \"contracts/Market.sol\":12732:12740  app.aVig */\n      0x54cd1a5c\n      swap2\n        /* \"contracts/Market.sol\":12732:12742  app.aVig() */\n      0x04\n      dup1\n      dup4\n      add\n      swap3\n      0x20\n      swap3\n      swap2\n      swap1\n      dup3\n      swap1\n      sub\n      add\n      dup2\n        /* \"contracts/Market.sol\":12732:12735  app */\n      dup7\n        /* \"contracts/Market.sol\":12732:12742  app.aVig() */\n      dup1\n      extcodesize\n      iszero\n      dup1\n      iszero\n      tag_439\n      jumpi\n      0x00\n      dup1\n      revert\n    tag_439:\n      pop\n      gas\n      staticcall\n      iszero\n      dup1\n      iszero\n      tag_441\n      jumpi\n      returndatasize\n      0x00\n      dup1\n      returndatacopy\n      revert(0x00, returndatasize)\n    tag_441:\n      pop\n      pop\n      pop\n      pop\n      mload(0x40)\n      returndatasize\n      not(0x1f)\n      0x1f\n      dup3\n      add\n      and\n      dup3\n      add\n      dup1\n      0x40\n      mstore\n      pop\n      dup2\n      add\n      swap1\n      tag_442\n      swap2\n      swap1\n      tag_108\n      jump\t// in\n    tag_442:\n        /* \"contracts/Market.sol\":12720:12742  vigAmount * app.aVig() */\n      tag_443\n      swap1\n        /* \"contracts/Market.sol\":12720:12729  vigAmount */\n      dup4\n        /* \"contracts/Market.sol\":12720:12742  vigAmount * app.aVig() */\n      tag_241\n      jump\t// in\n    tag_443:\n        /* \"contracts/Market.sol\":12720:12748  vigAmount * app.aVig() / 100 */\n      tag_444\n      swap2\n      swap1\n      tag_243\n      jump\t// in\n    tag_444:\n      sub(shl(0xa0, 0x01), 0x01)\n        /* \"contracts/Market.sol\":12702:12716  bal[affiliate] */\n      dup5\n      and\n      0x00\n      swap1\n      dup2\n      mstore\n        /* \"contracts/Market.sol\":12702:12705  bal */\n      0x05\n        /* \"contracts/Market.sol\":12702:12716  bal[affiliate] */\n      0x20\n      mstore\n      0x40\n      dup2\n      keccak256\n        /* \"contracts/Market.sol\":12702:12748  bal[affiliate] += vigAmount * app.aVig() / 100 */\n      dup1\n      sload\n        /* \"contracts/Market.sol\":12702:12716  bal[affiliate] */\n      swap1\n      swap2\n      swap1\n        /* \"contracts/Market.sol\":12702:12748  bal[affiliate] += vigAmount * app.aVig() / 100 */\n      tag_445\n      swap1\n      dup5\n      swap1\n      tag_143\n      jump\t// in\n    tag_445:\n      swap1\n      swap2\n      sstore\n      pop\n      pop\n      pop\n        /* \"contracts/Market.sol\":12758:12774  pairsInfo[_pair] */\n      0x00\n      swap5\n      dup6\n      mstore\n      pop\n      pop\n        /* \"contracts/Market.sol\":12758:12767  pairsInfo */\n      0x08\n        /* \"contracts/Market.sol\":12758:12774  pairsInfo[_pair] */\n      0x20\n      mstore\n      pop\n      pop\n      0x40\n      dup2\n      keccak256\n        /* \"contracts/Market.sol\":12758:12782  pairsInfo[_pair].settled */\n      0x04\n      add\n        /* \"contracts/Market.sol\":12758:12789  pairsInfo[_pair].settled = true */\n      dup1\n      sload\n      not(0xff)\n      and\n        /* \"contracts/Market.sol\":12785:12789  true */\n      0x01\n        /* \"contracts/Market.sol\":12758:12789  pairsInfo[_pair].settled = true */\n      swap1\n      dup2\n      or\n      swap1\n      swap2\n      sstore\n        /* \"@openzeppelin/contracts/security/ReentrancyGuard.sol\":2628:2650  _status = _NOT_ENTERED */\n      swap1\n      dup2\n      swap1\n      sstore\n        /* \"contracts/Market.sol\":12785:12789  true */\n      swap1\n        /* \"contracts/Market.sol\":11544:12817  function _settlePair(bytes32 _pair) private nonReentrant returns(bool) {... */\n      jump\t// out\n        /* \"contracts/Market.sol\":11093:11534  function _cancelPair(bytes32 _pair) private returns(bool) {... */\n    tag_186:\n        /* \"contracts/Market.sol\":11145:11149  bool */\n      0x00\n        /* \"contracts/Market.sol\":11164:11180  pairsInfo[_pair] */\n      dup2\n      dup2\n      mstore\n        /* \"contracts/Market.sol\":11164:11173  pairsInfo */\n      0x08\n        /* \"contracts/Market.sol\":11164:11180  pairsInfo[_pair] */\n      0x20\n      mstore\n      0x40\n      dup2\n      keccak256\n        /* \"contracts/Market.sol\":11164:11188  pairsInfo[_pair].settled */\n      0x04\n      add\n      sload\n      0xff\n      and\n        /* \"contracts/Market.sol\":11161:11226  if(pairsInfo[_pair].settled){... */\n      iszero\n      tag_447\n      jumpi\n      pop\n        /* \"contracts/Market.sol\":11210:11215  false */\n      0x00\n      swap2\n        /* \"contracts/Market.sol\":11093:11534  function _cancelPair(bytes32 _pair) private returns(bool) {... */\n      swap1\n      pop\n      jump\t// out\n        /* \"contracts/Market.sol\":11161:11226  if(pairsInfo[_pair].settled){... */\n    tag_447:\n        /* \"contracts/Market.sol\":11235:11250  address betterA */\n      0x00\n        /* \"contracts/Market.sol\":11262:11278  pairsInfo[_pair] */\n      dup3\n      dup2\n      mstore\n        /* \"contracts/Market.sol\":11262:11271  pairsInfo */\n      0x08\n        /* \"contracts/Market.sol\":11262:11278  pairsInfo[_pair] */\n      0x20\n      swap1\n      dup2\n      mstore\n      0x40\n      dup1\n      dup4\n      keccak256\n        /* \"contracts/Market.sol\":11262:11287  pairsInfo[_pair].betHashA */\n      dup1\n      sload\n        /* \"contracts/Market.sol\":11253:11288  betsInfo[pairsInfo[_pair].betHashA] */\n      dup5\n      mstore\n        /* \"contracts/Market.sol\":11253:11261  betsInfo */\n      0x06\n        /* \"contracts/Market.sol\":11253:11288  betsInfo[pairsInfo[_pair].betHashA] */\n      dup4\n      mstore\n      dup2\n      dup5\n      keccak256\n        /* \"contracts/Market.sol\":11253:11295  betsInfo[pairsInfo[_pair].betHashA].better */\n      sload\n      0x01\n        /* \"contracts/Market.sol\":11332:11357  pairsInfo[_pair].betHashB */\n      dup3\n      add\n      sload\n        /* \"contracts/Market.sol\":11323:11358  betsInfo[pairsInfo[_pair].betHashB] */\n      dup6\n      mstore\n      dup3\n      dup6\n      keccak256\n        /* \"contracts/Market.sol\":11323:11365  betsInfo[pairsInfo[_pair].betHashB].better */\n      sload\n        /* \"contracts/Market.sol\":11391:11415  pairsInfo[_pair].amountA */\n      0x02\n      swap1\n      swap3\n      add\n      sload\n      sub(shl(0xa0, 0x01), 0x01)\n        /* \"contracts/Market.sol\":11253:11295  betsInfo[pairsInfo[_pair].betHashA].better */\n      swap2\n      dup3\n      and\n        /* \"contracts/Market.sol\":11375:11387  bal[betterA] */\n      dup1\n      dup8\n      mstore\n        /* \"contracts/Market.sol\":11375:11378  bal */\n      0x05\n        /* \"contracts/Market.sol\":11375:11387  bal[betterA] */\n      swap1\n      swap6\n      mstore\n      swap3\n      dup6\n      keccak256\n        /* \"contracts/Market.sol\":11375:11415  bal[betterA] += pairsInfo[_pair].amountA */\n      dup1\n      sload\n        /* \"contracts/Market.sol\":11253:11295  betsInfo[pairsInfo[_pair].betHashA].better */\n      swap5\n      swap6\n        /* \"contracts/Market.sol\":11323:11365  betsInfo[pairsInfo[_pair].betHashB].better */\n      swap2\n      swap1\n      swap3\n      and\n      swap4\n        /* \"contracts/Market.sol\":11375:11415  bal[betterA] += pairsInfo[_pair].amountA */\n      tag_448\n      swap1\n        /* \"contracts/Market.sol\":11391:11415  pairsInfo[_pair].amountA */\n      dup5\n      swap1\n        /* \"contracts/Market.sol\":11375:11415  bal[betterA] += pairsInfo[_pair].amountA */\n      tag_143\n      jump\t// in\n    tag_448:\n      swap1\n      swap2\n      sstore\n      pop\n      pop\n        /* \"contracts/Market.sol\":11441:11457  pairsInfo[_pair] */\n      0x00\n      dup5\n      dup2\n      mstore\n        /* \"contracts/Market.sol\":11441:11450  pairsInfo */\n      0x08\n        /* \"contracts/Market.sol\":11441:11457  pairsInfo[_pair] */\n      0x20\n      swap1\n      dup2\n      mstore\n      0x40\n      dup1\n      dup4\n      keccak256\n        /* \"contracts/Market.sol\":11441:11465  pairsInfo[_pair].amountB */\n      0x03\n      add\n      sload\n      sub(shl(0xa0, 0x01), 0x01)\n        /* \"contracts/Market.sol\":11425:11437  bal[betterB] */\n      dup6\n      and\n      dup5\n      mstore\n        /* \"contracts/Market.sol\":11425:11428  bal */\n      0x05\n        /* \"contracts/Market.sol\":11425:11437  bal[betterB] */\n      swap1\n      swap3\n      mstore\n      dup3\n      keccak256\n        /* \"contracts/Market.sol\":11425:11465  bal[betterB] += pairsInfo[_pair].amountB */\n      dup1\n      sload\n        /* \"contracts/Market.sol\":11441:11465  pairsInfo[_pair].amountB */\n      swap2\n      swap3\n        /* \"contracts/Market.sol\":11425:11437  bal[betterB] */\n      swap1\n      swap2\n        /* \"contracts/Market.sol\":11425:11465  bal[betterB] += pairsInfo[_pair].amountB */\n      tag_449\n      swap1\n        /* \"contracts/Market.sol\":11441:11465  pairsInfo[_pair].amountB */\n      dup5\n      swap1\n        /* \"contracts/Market.sol\":11425:11465  bal[betterB] += pairsInfo[_pair].amountB */\n      tag_143\n      jump\t// in\n    tag_449:\n      swap1\n      swap2\n      sstore\n      pop\n      pop\n      pop\n        /* \"contracts/Market.sol\":11475:11491  pairsInfo[_pair] */\n      0x00\n      swap3\n      dup4\n      mstore\n      pop\n      pop\n        /* \"contracts/Market.sol\":11475:11484  pairsInfo */\n      0x08\n        /* \"contracts/Market.sol\":11475:11491  pairsInfo[_pair] */\n      0x20\n      mstore\n      0x40\n      swap1\n      keccak256\n        /* \"contracts/Market.sol\":11475:11499  pairsInfo[_pair].settled */\n      0x04\n      add\n        /* \"contracts/Market.sol\":11475:11506  pairsInfo[_pair].settled = true */\n      dup1\n      sload\n      not(0xff)\n      and\n        /* \"contracts/Market.sol\":11502:11506  true */\n      0x01\n        /* \"contracts/Market.sol\":11475:11506  pairsInfo[_pair].settled = true */\n      swap1\n      dup2\n      or\n      swap1\n      swap2\n      sstore\n        /* \"contracts/Market.sol\":11502:11506  true */\n      swap1\n        /* \"contracts/Market.sol\":11093:11534  function _cancelPair(bytes32 _pair) private returns(bool) {... */\n      jump\t// out\n        /* \"contracts/Market.sol\":12823:13725  function _createBet(... */\n    tag_244:\n        /* \"contracts/Market.sol\":13022:13029  bytes32 */\n      0x00\n        /* \"contracts/Market.sol\":13045:13060  bytes32 betHash */\n      dup1\n        /* \"contracts/Market.sol\":13070:13076  uint i */\n      0x00\n        /* \"contracts/Market.sol\":13090:13439  while(i >= 0){... */\n    tag_451:\n        /* \"contracts/Market.sol\":13227:13231  bets */\n      0x04\n        /* \"contracts/Market.sol\":13227:13238  bets.length */\n      sload\n        /* \"contracts/Market.sol\":13171:13178  _better */\n      dup10\n      swap1\n        /* \"contracts/Market.sol\":13204:13208  this */\n      address\n      swap1\n        /* \"contracts/Market.sol\":13245:13246  i */\n      dup4\n      swap1\n        /* \"contracts/Market.sol\":13227:13242  bets.length + 1 */\n      tag_453\n      swap1\n        /* \"contracts/Market.sol\":13241:13242  1 */\n      0x01\n        /* \"contracts/Market.sol\":13227:13242  bets.length + 1 */\n      tag_143\n      jump\t// in\n    tag_453:\n        /* \"contracts/Market.sol\":13227:13246  bets.length + 1 + i */\n      tag_454\n      swap2\n      swap1\n      tag_143\n      jump\t// in\n    tag_454:\n        /* \"contracts/Market.sol\":13137:13327  abi.encodePacked(... */\n      mload(0x40)\n      not(0xffffffffffffffffffffffff)\n        /* \"#utility.yul\":2305:2307   */\n      0x60\n        /* \"#utility.yul\":2301:2316   */\n      swap5\n      dup6\n      shl\n        /* \"#utility.yul\":2297:2321   */\n      dup2\n      and\n        /* \"contracts/Market.sol\":13137:13327  abi.encodePacked(... */\n      0x20\n      dup4\n      add\n        /* \"#utility.yul\":2285:2322   */\n      mstore\n        /* \"#utility.yul\":2356:2371   */\n      swap3\n      swap1\n      swap4\n      shl\n        /* \"#utility.yul\":2352:2376   */\n      swap1\n      swap2\n      and\n        /* \"#utility.yul\":2338:2350   */\n      0x34\n      dup4\n      add\n        /* \"#utility.yul\":2331:2377   */\n      mstore\n        /* \"#utility.yul\":2393:2405   */\n      0x48\n      dup3\n      add\n        /* \"#utility.yul\":2386:2414   */\n      mstore\n        /* \"contracts/Market.sol\":13264:13279  block.timestamp */\n      timestamp\n        /* \"#utility.yul\":2430:2442   */\n      0x68\n      dup3\n      add\n        /* \"#utility.yul\":2423:2451   */\n      mstore\n        /* \"contracts/Market.sol\":13297:13313  block.difficulty */\n      difficulty\n        /* \"#utility.yul\":2467:2480   */\n      0x88\n      dup3\n      add\n        /* \"#utility.yul\":2460:2489   */\n      mstore\n        /* \"#utility.yul\":2505:2518   */\n      0xa8\n      add\n        /* \"contracts/Market.sol\":13137:13327  abi.encodePacked(... */\n      0x40\n      dup1\n      mload\n      not(0x1f)\n      dup2\n      dup5\n      sub\n      add\n      dup2\n      mstore\n      swap2\n      dup2\n      mstore\n        /* \"contracts/Market.sol\":13127:13328  keccak256(abi.encodePacked(... */\n      dup2\n      mload\n        /* \"contracts/Market.sol\":13137:13327  abi.encodePacked(... */\n      0x20\n        /* \"contracts/Market.sol\":13127:13328  keccak256(abi.encodePacked(... */\n      swap3\n      dup4\n      add\n      keccak256\n        /* \"contracts/Market.sol\":13345:13362  betsInfo[betHash] */\n      0x00\n      dup2\n      dup2\n      mstore\n        /* \"contracts/Market.sol\":13345:13353  betsInfo */\n      0x06\n        /* \"contracts/Market.sol\":13345:13362  betsInfo[betHash] */\n      swap1\n      swap4\n      mstore\n      swap2\n      keccak256\n        /* \"contracts/Market.sol\":13345:13368  betsInfo[betHash].stake */\n      0x02\n      add\n      sload\n        /* \"contracts/Market.sol\":13127:13328  keccak256(abi.encodePacked(... */\n      swap1\n      swap3\n      pop\n        /* \"contracts/Market.sol\":13342:13412  if(betsInfo[betHash].stake == 0){... */\n      tag_457\n      jumpi\n        /* \"contracts/Market.sol\":13392:13397  break */\n      jump(tag_452)\n        /* \"contracts/Market.sol\":13342:13412  if(betsInfo[betHash].stake == 0){... */\n    tag_457:\n        /* \"contracts/Market.sol\":13425:13428  i++ */\n      dup1\n      tag_458\n      dup2\n      tag_134\n      jump\t// in\n    tag_458:\n      swap2\n      pop\n      pop\n        /* \"contracts/Market.sol\":13090:13439  while(i >= 0){... */\n      jump(tag_451)\n    tag_452:\n      sub(shl(0xa0, 0x01), 0x01)\n        /* \"contracts/Market.sol\":13451:13475  _affiliate == address(0) */\n      dup9\n      and\n        /* \"contracts/Market.sol\":13448:13527  if(_affiliate == address(0)){... */\n      tag_459\n      jumpi\n        /* \"contracts/Market.sol\":13503:13506  app */\n      0x0a\n      0x00\n      swap1\n      sload\n      swap1\n      0x0100\n      exp\n      swap1\n      div\n      sub(shl(0xa0, 0x01), 0x01)\n      and\n      sub(shl(0xa0, 0x01), 0x01)\n        /* \"contracts/Market.sol\":13503:13514  app.ecoAddr */\n      and\n      0x09953b2f\n        /* \"contracts/Market.sol\":13503:13516  app.ecoAddr() */\n      mload(0x40)\n      dup2\n      0xffffffff\n      and\n      0xe0\n      shl\n      dup2\n      mstore\n      0x04\n      add\n      0x20\n      mload(0x40)\n      dup1\n      dup4\n      sub\n      dup2\n      dup7\n      dup1\n      extcodesize\n      iszero\n      dup1\n      iszero\n      tag_460\n      jumpi\n      0x00\n      dup1\n      revert\n    tag_460:\n      pop\n      gas\n      staticcall\n      iszero\n      dup1\n      iszero\n      tag_462\n      jumpi\n      returndatasize\n      0x00\n      dup1\n      returndatacopy\n      revert(0x00, returndatasize)\n    tag_462:\n      pop\n      pop\n      pop\n      pop\n      mload(0x40)\n      returndatasize\n      not(0x1f)\n      0x1f\n      dup3\n      add\n      and\n      dup3\n      add\n      dup1\n      0x40\n      mstore\n      pop\n      dup2\n      add\n      swap1\n      tag_463\n      swap2\n      swap1\n      tag_152\n      jump\t// in\n    tag_463:\n        /* \"contracts/Market.sol\":13490:13516  _affiliate = app.ecoAddr() */\n      swap8\n      pop\n        /* \"contracts/Market.sol\":13448:13527  if(_affiliate == address(0)){... */\n    tag_459:\n      pop\n        /* \"contracts/Market.sol\":13556:13625  Struct.MarketBet(_better, _affiliate, _stake, _matched, _odds, _side) */\n      0x40\n      dup1\n      mload\n      0xc0\n      dup2\n      add\n      dup3\n      mstore\n      sub(shl(0xa0, 0x01), 0x01)\n      swap10\n      dup11\n      and\n      dup1\n      dup3\n      mstore\n      swap9\n      dup11\n      and\n      0x20\n      dup1\n      dup4\n      add\n      swap2\n      dup3\n      mstore\n      dup3\n      dup5\n      add\n      swap10\n      dup11\n      mstore\n      0x60\n      dup4\n      add\n      swap9\n      dup10\n      mstore\n      0x80\n      dup4\n      add\n      swap8\n      dup9\n      mstore\n      0xa0\n      dup4\n      add\n      swap7\n      dup8\n      mstore\n      0x00\n        /* \"contracts/Market.sol\":13536:13553  betsInfo[betHash] */\n      dup6\n      dup2\n      mstore\n        /* \"contracts/Market.sol\":13536:13544  betsInfo */\n      0x06\n        /* \"contracts/Market.sol\":13536:13553  betsInfo[betHash] */\n      dup3\n      mstore\n      dup5\n      dup2\n      keccak256\n        /* \"contracts/Market.sol\":13536:13625  betsInfo[betHash] = Struct.MarketBet(_better, _affiliate, _stake, _matched, _odds, _side) */\n      swap4\n      mload\n      dup5\n      sload\n      swap1\n      dup15\n      and\n      not(sub(shl(0xa0, 0x01), 0x01))\n      swap2\n      dup3\n      and\n      or\n      dup6\n      sstore\n      swap3\n      mload\n      0x01\n      dup1\n      dup7\n      add\n      dup1\n      sload\n      swap3\n      swap1\n      swap16\n      and\n      swap2\n      swap1\n      swap5\n      and\n      or\n      swap1\n      swap13\n      sstore\n      swap9\n      mload\n      0x02\n      dup4\n      add\n      sstore\n      swap7\n      mload\n      0x03\n      dup3\n      add\n      sstore\n      swap5\n      mload\n      0x04\n      dup1\n      dup8\n      add\n      swap2\n      swap1\n      swap2\n      sstore\n      swap4\n      mload\n      0x05\n      swap1\n      swap6\n      add\n      swap5\n      swap1\n      swap5\n      sstore\n        /* \"contracts/Market.sol\":13635:13653  bets.push(betHash) */\n      dup3\n      sload\n      dup1\n      dup7\n      add\n      swap1\n      swap4\n      sstore\n      0x8a35acfbc15ff81a39ae7d344fd709f28e8600b4aa8c65c6b64bfe7fe36bd19b\n      swap1\n      swap3\n      add\n      dup3\n      swap1\n      sstore\n      pop\n        /* \"contracts/Market.sol\":13663:13680  userBets[_better] */\n      swap4\n      dup6\n      mstore\n        /* \"contracts/Market.sol\":13663:13671  userBets */\n      0x07\n        /* \"contracts/Market.sol\":13663:13680  userBets[_better] */\n      dup4\n      mstore\n      dup5\n      keccak256\n        /* \"contracts/Market.sol\":13663:13694  userBets[_better].push(betHash) */\n      dup1\n      sload\n      swap2\n      dup3\n      add\n      dup2\n      sstore\n      dup5\n      mstore\n      swap3\n      keccak256\n      swap1\n      swap2\n      add\n      dup2\n      swap1\n      sstore\n        /* \"contracts/Market.sol\":13536:13553  betsInfo[betHash] */\n      swap1\n        /* \"contracts/Market.sol\":12823:13725  function _createBet(... */\n      jump\t// out\n        /* \"contracts/Market.sol\":8216:9601  function _match(... */\n    tag_270:\n        /* \"contracts/Market.sol\":8413:8420  uint256 */\n      0x00\n        /* \"contracts/Market.sol\":8436:8456  uint256 betterAmount */\n      dup1\n        /* \"contracts/Market.sol\":8466:8485  uint256 makerAmount */\n      0x00\n        /* \"contracts/Market.sol\":8495:8511  bytes32 pairHash */\n      dup1\n        /* \"contracts/Market.sol\":8541:8547  _stake */\n      dup10\n        /* \"contracts/Market.sol\":8524:8537  _offeredStake */\n      dup10\n        /* \"contracts/Market.sol\":8524:8547  _offeredStake <= _stake */\n      gt\n        /* \"contracts/Market.sol\":8521:9367  if(_offeredStake <= _stake) {... */\n      tag_467\n      jumpi\n        /* \"contracts/Market.sol\":8578:8591  _offeredStake */\n      dup9\n      swap3\n      pop\n        /* \"contracts/Market.sol\":8636:8647  _odds - 100 */\n      tag_468\n        /* \"contracts/Market.sol\":8644:8647  100 */\n      0x64\n        /* \"contracts/Market.sol\":8636:8641  _odds */\n      dup10\n        /* \"contracts/Market.sol\":8636:8647  _odds - 100 */\n      tag_141\n      jump\t// in\n    tag_468:\n        /* \"contracts/Market.sol\":8619:8648  _offeredStake * (_odds - 100) */\n      tag_469\n      swap1\n        /* \"contracts/Market.sol\":8619:8632  _offeredStake */\n      dup11\n        /* \"contracts/Market.sol\":8619:8648  _offeredStake * (_odds - 100) */\n      tag_241\n      jump\t// in\n    tag_469:\n        /* \"contracts/Market.sol\":8605:8648  makerAmount = _offeredStake * (_odds - 100) */\n      swap2\n      pop\n        /* \"contracts/Market.sol\":8662:8680  makerAmount /= 100 */\n      tag_470\n        /* \"contracts/Market.sol\":8677:8680  100 */\n      0x64\n        /* \"contracts/Market.sol\":8605:8648  makerAmount = _offeredStake * (_odds - 100) */\n      dup4\n        /* \"contracts/Market.sol\":8662:8680  makerAmount /= 100 */\n      tag_243\n      jump\t// in\n    tag_470:\n      swap2\n      pop\n        /* \"contracts/Market.sol\":8697:8702  _side */\n      dup7\n        /* \"contracts/Market.sol\":8706:8707  1 */\n      0x01\n        /* \"contracts/Market.sol\":8697:8707  _side == 1 */\n      eq\n        /* \"contracts/Market.sol\":8694:8948  if(_side == 1){... */\n      iszero\n      tag_471\n      jumpi\n        /* \"contracts/Market.sol\":8737:8797  _createPair(_betHash,_selectedHash,betterAmount,makerAmount) */\n      tag_472\n        /* \"contracts/Market.sol\":8749:8757  _betHash */\n      dup7\n        /* \"contracts/Market.sol\":8758:8771  _selectedHash */\n      dup7\n        /* \"contracts/Market.sol\":8772:8784  betterAmount */\n      dup6\n        /* \"contracts/Market.sol\":8785:8796  makerAmount */\n      dup6\n        /* \"contracts/Market.sol\":8737:8748  _createPair */\n      tag_473\n        /* \"contracts/Market.sol\":8737:8797  _createPair(_betHash,_selectedHash,betterAmount,makerAmount) */\n      jump\t// in\n    tag_472:\n        /* \"contracts/Market.sol\":8726:8797  pairHash = _createPair(_betHash,_selectedHash,betterAmount,makerAmount) */\n      swap1\n      pop\n        /* \"contracts/Market.sol\":8521:9367  if(_offeredStake <= _stake) {... */\n      jump(tag_484)\n        /* \"contracts/Market.sol\":8694:8948  if(_side == 1){... */\n    tag_471:\n        /* \"contracts/Market.sol\":8833:8838  _side */\n      dup7\n        /* \"contracts/Market.sol\":8842:8843  2 */\n      0x02\n        /* \"contracts/Market.sol\":8833:8843  _side == 2 */\n      eq\n        /* \"contracts/Market.sol\":8830:8948  if(_side == 2){... */\n      iszero\n      tag_475\n      jumpi\n        /* \"contracts/Market.sol\":8873:8933  _createPair(_selectedHash,_betHash,makerAmount,betterAmount) */\n      tag_472\n        /* \"contracts/Market.sol\":8885:8898  _selectedHash */\n      dup6\n        /* \"contracts/Market.sol\":8899:8907  _betHash */\n      dup8\n        /* \"contracts/Market.sol\":8908:8919  makerAmount */\n      dup5\n        /* \"contracts/Market.sol\":8920:8932  betterAmount */\n      dup7\n        /* \"contracts/Market.sol\":8873:8884  _createPair */\n      tag_473\n        /* \"contracts/Market.sol\":8873:8933  _createPair(_selectedHash,_betHash,makerAmount,betterAmount) */\n      jump\t// in\n        /* \"contracts/Market.sol\":8830:8948  if(_side == 2){... */\n    tag_475:\n        /* \"contracts/Market.sol\":8521:9367  if(_offeredStake <= _stake) {... */\n      jump(tag_484)\n    tag_467:\n        /* \"contracts/Market.sol\":9001:9007  _stake */\n      dup10\n      swap3\n      pop\n        /* \"contracts/Market.sol\":9045:9056  _odds - 100 */\n      tag_478\n        /* \"contracts/Market.sol\":9053:9056  100 */\n      0x64\n        /* \"contracts/Market.sol\":9045:9050  _odds */\n      dup10\n        /* \"contracts/Market.sol\":9045:9056  _odds - 100 */\n      tag_141\n      jump\t// in\n    tag_478:\n        /* \"contracts/Market.sol\":9035:9057  _stake * (_odds - 100) */\n      tag_479\n      swap1\n        /* \"contracts/Market.sol\":9035:9041  _stake */\n      dup12\n        /* \"contracts/Market.sol\":9035:9057  _stake * (_odds - 100) */\n      tag_241\n      jump\t// in\n    tag_479:\n        /* \"contracts/Market.sol\":9021:9057  makerAmount = _stake * (_odds - 100) */\n      swap2\n      pop\n        /* \"contracts/Market.sol\":9071:9089  makerAmount /= 100 */\n      tag_480\n        /* \"contracts/Market.sol\":9086:9089  100 */\n      0x64\n        /* \"contracts/Market.sol\":9021:9057  makerAmount = _stake * (_odds - 100) */\n      dup4\n        /* \"contracts/Market.sol\":9071:9089  makerAmount /= 100 */\n      tag_243\n      jump\t// in\n    tag_480:\n      swap2\n      pop\n        /* \"contracts/Market.sol\":9106:9111  _side */\n      dup7\n        /* \"contracts/Market.sol\":9115:9116  1 */\n      0x01\n        /* \"contracts/Market.sol\":9106:9116  _side == 1 */\n      eq\n        /* \"contracts/Market.sol\":9103:9357  if(_side == 1){... */\n      iszero\n      tag_481\n      jumpi\n        /* \"contracts/Market.sol\":9146:9206  _createPair(_betHash,_selectedHash,betterAmount,makerAmount) */\n      tag_472\n        /* \"contracts/Market.sol\":9158:9166  _betHash */\n      dup7\n        /* \"contracts/Market.sol\":9167:9180  _selectedHash */\n      dup7\n        /* \"contracts/Market.sol\":9181:9193  betterAmount */\n      dup6\n        /* \"contracts/Market.sol\":9194:9205  makerAmount */\n      dup6\n        /* \"contracts/Market.sol\":9146:9157  _createPair */\n      tag_473\n        /* \"contracts/Market.sol\":9146:9206  _createPair(_betHash,_selectedHash,betterAmount,makerAmount) */\n      jump\t// in\n        /* \"contracts/Market.sol\":9103:9357  if(_side == 1){... */\n    tag_481:\n        /* \"contracts/Market.sol\":9242:9247  _side */\n      dup7\n        /* \"contracts/Market.sol\":9251:9252  2 */\n      0x02\n        /* \"contracts/Market.sol\":9242:9252  _side == 2 */\n      eq\n        /* \"contracts/Market.sol\":9239:9357  if(_side == 2){... */\n      iszero\n      tag_484\n      jumpi\n        /* \"contracts/Market.sol\":9282:9342  _createPair(_selectedHash,_betHash,makerAmount,betterAmount) */\n      tag_485\n        /* \"contracts/Market.sol\":9294:9307  _selectedHash */\n      dup6\n        /* \"contracts/Market.sol\":9308:9316  _betHash */\n      dup8\n        /* \"contracts/Market.sol\":9317:9328  makerAmount */\n      dup5\n        /* \"contracts/Market.sol\":9329:9341  betterAmount */\n      dup7\n        /* \"contracts/Market.sol\":9282:9293  _createPair */\n      tag_473\n        /* \"contracts/Market.sol\":9282:9342  _createPair(_selectedHash,_betHash,makerAmount,betterAmount) */\n      jump\t// in\n    tag_485:\n        /* \"contracts/Market.sol\":9271:9342  pairHash = _createPair(_selectedHash,_betHash,makerAmount,betterAmount) */\n      swap1\n      pop\n        /* \"contracts/Market.sol\":9239:9357  if(_side == 2){... */\n    tag_484:\n        /* \"contracts/Market.sol\":9376:9394  betPairs[_betHash] */\n      0x00\n      dup7\n      dup2\n      mstore\n        /* \"contracts/Market.sol\":9376:9384  betPairs */\n      0x09\n        /* \"contracts/Market.sol\":9376:9394  betPairs[_betHash] */\n      0x20\n      swap1\n      dup2\n      mstore\n      0x40\n      dup1\n      dup4\n      keccak256\n        /* \"contracts/Market.sol\":9376:9409  betPairs[_betHash].push(pairHash) */\n      dup1\n      sload\n      0x01\n      dup2\n      dup2\n      add\n      dup4\n      sstore\n      swap2\n      dup6\n      mstore\n      dup4\n      dup6\n      keccak256\n      add\n      dup6\n      swap1\n      sstore\n        /* \"contracts/Market.sol\":9419:9442  betPairs[_selectedHash] */\n      dup9\n      dup5\n      mstore\n      dup2\n      dup5\n      keccak256\n        /* \"contracts/Market.sol\":9419:9457  betPairs[_selectedHash].push(pairHash) */\n      dup1\n      sload\n      swap2\n      dup3\n      add\n      dup2\n      sstore\n      dup5\n      mstore\n      dup3\n      dup5\n      keccak256\n      add\n      dup5\n      swap1\n      sstore\n        /* \"contracts/Market.sol\":9467:9485  betsInfo[_betHash] */\n      dup9\n      dup4\n      mstore\n        /* \"contracts/Market.sol\":9467:9475  betsInfo */\n      0x06\n        /* \"contracts/Market.sol\":9467:9485  betsInfo[_betHash] */\n      swap1\n      swap2\n      mstore\n      dup2\n      keccak256\n        /* \"contracts/Market.sol\":9467:9493  betsInfo[_betHash].matched */\n      0x03\n      add\n        /* \"contracts/Market.sol\":9467:9509  betsInfo[_betHash].matched += betterAmount */\n      dup1\n      sload\n        /* \"contracts/Market.sol\":9497:9509  betterAmount */\n      dup6\n      swap3\n        /* \"contracts/Market.sol\":9376:9394  betPairs[_betHash] */\n      swap1\n        /* \"contracts/Market.sol\":9467:9509  betsInfo[_betHash].matched += betterAmount */\n      tag_488\n      swap1\n        /* \"contracts/Market.sol\":9497:9509  betterAmount */\n      dup5\n      swap1\n        /* \"contracts/Market.sol\":9467:9509  betsInfo[_betHash].matched += betterAmount */\n      tag_143\n      jump\t// in\n    tag_488:\n      swap1\n      swap2\n      sstore\n      pop\n      pop\n        /* \"contracts/Market.sol\":9519:9542  betsInfo[_selectedHash] */\n      0x00\n      dup6\n      dup2\n      mstore\n        /* \"contracts/Market.sol\":9519:9527  betsInfo */\n      0x06\n        /* \"contracts/Market.sol\":9519:9542  betsInfo[_selectedHash] */\n      0x20\n      mstore\n      0x40\n      dup2\n      keccak256\n        /* \"contracts/Market.sol\":9519:9550  betsInfo[_selectedHash].matched */\n      0x03\n      add\n        /* \"contracts/Market.sol\":9519:9565  betsInfo[_selectedHash].matched += makerAmount */\n      dup1\n      sload\n        /* \"contracts/Market.sol\":9554:9565  makerAmount */\n      dup5\n      swap3\n        /* \"contracts/Market.sol\":9519:9542  betsInfo[_selectedHash] */\n      swap1\n        /* \"contracts/Market.sol\":9519:9565  betsInfo[_selectedHash].matched += makerAmount */\n      tag_489\n      swap1\n        /* \"contracts/Market.sol\":9554:9565  makerAmount */\n      dup5\n      swap1\n        /* \"contracts/Market.sol\":9519:9565  betsInfo[_selectedHash].matched += makerAmount */\n      tag_143\n      jump\t// in\n    tag_489:\n      swap1\n      swap2\n      sstore\n      pop\n        /* \"contracts/Market.sol\":9582:9594  betterAmount */\n      swap3\n      swap11\n        /* \"contracts/Market.sol\":8216:9601  function _match(... */\n      swap10\n      pop\n      pop\n      pop\n      pop\n      pop\n      pop\n      pop\n      pop\n      pop\n      pop\n      jump\t// out\n        /* \"contracts/Market.sol\":13731:14470  function _createPair(... */\n    tag_473:\n        /* \"contracts/Market.sol\":13889:13896  bytes32 */\n      0x00\n        /* \"contracts/Market.sol\":13912:13928  bytes32 pairHash */\n      dup1\n        /* \"contracts/Market.sol\":13938:13944  uint i */\n      0x00\n        /* \"contracts/Market.sol\":13958:14311  while(i >= 0){... */\n    tag_491:\n        /* \"contracts/Market.sol\":14094:14099  pairs */\n      0x03\n        /* \"contracts/Market.sol\":14094:14106  pairs.length */\n      sload\n        /* \"contracts/Market.sol\":14040:14049  _betHashA */\n      dup8\n      swap1\n        /* \"contracts/Market.sol\":14067:14076  _betHashB */\n      dup8\n      swap1\n        /* \"contracts/Market.sol\":14113:14114  i */\n      dup4\n      swap1\n        /* \"contracts/Market.sol\":14094:14110  pairs.length + 1 */\n      tag_493\n      swap1\n        /* \"contracts/Market.sol\":14109:14110  1 */\n      0x01\n        /* \"contracts/Market.sol\":14094:14110  pairs.length + 1 */\n      tag_143\n      jump\t// in\n    tag_493:\n        /* \"contracts/Market.sol\":14094:14114  pairs.length + 1 + i */\n      tag_494\n      swap2\n      swap1\n      tag_143\n      jump\t// in\n    tag_494:\n        /* \"contracts/Market.sol\":14006:14195  abi.encodePacked(... */\n      0x40\n      dup1\n      mload\n      0x20\n      dup2\n      add\n        /* \"#utility.yul\":2770:2789   */\n      swap5\n      swap1\n      swap5\n      mstore\n        /* \"#utility.yul\":2805:2817   */\n      dup4\n      add\n        /* \"#utility.yul\":2798:2826   */\n      swap2\n      swap1\n      swap2\n      mstore\n        /* \"#utility.yul\":2842:2854   */\n      0x60\n      dup3\n      add\n        /* \"#utility.yul\":2835:2863   */\n      mstore\n        /* \"contracts/Market.sol\":14132:14147  block.timestamp */\n      timestamp\n        /* \"#utility.yul\":2879:2891   */\n      0x80\n      dup3\n      add\n        /* \"#utility.yul\":2872:2900   */\n      mstore\n        /* \"contracts/Market.sol\":14165:14181  block.difficulty */\n      difficulty\n        /* \"#utility.yul\":2916:2929   */\n      0xa0\n      dup3\n      add\n        /* \"#utility.yul\":2909:2938   */\n      mstore\n        /* \"#utility.yul\":2954:2967   */\n      0xc0\n      add\n        /* \"contracts/Market.sol\":14006:14195  abi.encodePacked(... */\n      0x40\n      dup1\n      mload\n      not(0x1f)\n      dup2\n      dup5\n      sub\n      add\n      dup2\n      mstore\n      swap2\n      dup2\n      mstore\n        /* \"contracts/Market.sol\":13996:14196  keccak256(abi.encodePacked(... */\n      dup2\n      mload\n        /* \"contracts/Market.sol\":14006:14195  abi.encodePacked(... */\n      0x20\n        /* \"contracts/Market.sol\":13996:14196  keccak256(abi.encodePacked(... */\n      swap3\n      dup4\n      add\n      keccak256\n        /* \"contracts/Market.sol\":14213:14232  pairsInfo[pairHash] */\n      0x00\n      dup2\n      dup2\n      mstore\n        /* \"contracts/Market.sol\":14213:14222  pairsInfo */\n      0x08\n        /* \"contracts/Market.sol\":14213:14232  pairsInfo[pairHash] */\n      swap1\n      swap4\n      mstore\n      swap2\n      keccak256\n        /* \"contracts/Market.sol\":14213:14240  pairsInfo[pairHash].amountA */\n      0x02\n      add\n      sload\n        /* \"contracts/Market.sol\":13996:14196  keccak256(abi.encodePacked(... */\n      swap1\n      swap3\n      pop\n        /* \"contracts/Market.sol\":14210:14284  if(pairsInfo[pairHash].amountA == 0){... */\n      tag_497\n      jumpi\n        /* \"contracts/Market.sol\":14264:14269  break */\n      jump(tag_492)\n        /* \"contracts/Market.sol\":14210:14284  if(pairsInfo[pairHash].amountA == 0){... */\n    tag_497:\n        /* \"contracts/Market.sol\":14297:14300  i++ */\n      dup1\n      tag_498\n      dup2\n      tag_134\n      jump\t// in\n    tag_498:\n      swap2\n      pop\n      pop\n        /* \"contracts/Market.sol\":13958:14311  while(i >= 0){... */\n      jump(tag_491)\n    tag_492:\n      pop\n        /* \"contracts/Market.sol\":14342:14408  Struct.MarketPair(_betHashA, _betHashB, _amountA, _amountB, false) */\n      0x40\n      dup1\n      mload\n      0xa0\n      dup2\n      add\n      dup3\n      mstore\n      swap7\n      dup8\n      mstore\n      0x20\n      dup1\n      dup9\n      add\n      swap7\n      dup8\n      mstore\n      dup8\n      dup3\n      add\n      swap6\n      dup7\n      mstore\n      0x60\n      dup9\n      add\n      swap5\n      dup6\n      mstore\n      0x00\n      0x80\n      dup10\n      add\n      dup2\n      dup2\n      mstore\n        /* \"contracts/Market.sol\":14320:14339  pairsInfo[pairHash] */\n      dup5\n      dup3\n      mstore\n        /* \"contracts/Market.sol\":14320:14329  pairsInfo */\n      0x08\n        /* \"contracts/Market.sol\":14320:14339  pairsInfo[pairHash] */\n      swap1\n      swap3\n      mstore\n      swap2\n      dup3\n      keccak256\n        /* \"contracts/Market.sol\":14320:14408  pairsInfo[pairHash] = Struct.MarketPair(_betHashA, _betHashB, _amountA, _amountB, false) */\n      swap8\n      mload\n      dup9\n      sstore\n      swap6\n      mload\n        /* \"contracts/Market.sol\":14342:14408  Struct.MarketPair(_betHashA, _betHashB, _amountA, _amountB, false) */\n      0x01\n        /* \"contracts/Market.sol\":14320:14408  pairsInfo[pairHash] = Struct.MarketPair(_betHashA, _betHashB, _amountA, _amountB, false) */\n      dup1\n      dup10\n      add\n      swap2\n      swap1\n      swap2\n      sstore\n      swap5\n      mload\n      0x02\n      dup9\n      add\n      sstore\n      swap3\n      mload\n      0x03\n      dup1\n      dup9\n      add\n      swap2\n      swap1\n      swap2\n      sstore\n      swap5\n      mload\n      0x04\n      swap1\n      swap7\n      add\n      dup1\n      sload\n      not(0xff)\n      and\n      swap7\n      iszero\n      iszero\n      swap7\n      swap1\n      swap7\n      or\n      swap1\n      swap6\n      sstore\n      pop\n        /* \"contracts/Market.sol\":14418:14438  pairs.push(pairHash) */\n      dup3\n      sload\n      swap2\n      dup3\n      add\n      dup4\n      sstore\n      swap2\n      swap1\n      swap2\n      mstore\n      0xc2575a0e9e593c00f959f8c92f12db2869c3395a3b0502d05e2516446f71f85b\n      add\n      dup2\n      swap1\n      sstore\n        /* \"contracts/Market.sol\":14320:14339  pairsInfo[pairHash] */\n      swap1\n        /* \"contracts/Market.sol\":13731:14470  function _createPair(... */\n      jump\t// out\n        /* \"#utility.yul\":14:271   */\n    tag_31:\n        /* \"#utility.yul\":73:79   */\n      0x00\n        /* \"#utility.yul\":126:128   */\n      0x20\n        /* \"#utility.yul\":114:123   */\n      dup3\n        /* \"#utility.yul\":105:112   */\n      dup5\n        /* \"#utility.yul\":101:124   */\n      sub\n        /* \"#utility.yul\":97:129   */\n      slt\n        /* \"#utility.yul\":94:96   */\n      iszero\n      tag_502\n      jumpi\n        /* \"#utility.yul\":147:153   */\n      dup1\n        /* \"#utility.yul\":139:145   */\n      dup2\n        /* \"#utility.yul\":132:154   */\n      revert\n        /* \"#utility.yul\":94:96   */\n    tag_502:\n        /* \"#utility.yul\":191:200   */\n      dup2\n        /* \"#utility.yul\":178:201   */\n      calldataload\n        /* \"#utility.yul\":210:241   */\n      tag_503\n        /* \"#utility.yul\":235:240   */\n      dup2\n        /* \"#utility.yul\":210:241   */\n      tag_504\n      jump\t// in\n    tag_503:\n        /* \"#utility.yul\":260:265   */\n      swap4\n        /* \"#utility.yul\":84:271   */\n      swap3\n      pop\n      pop\n      pop\n      jump\t// out\n        /* \"#utility.yul\":276:537   */\n    tag_152:\n        /* \"#utility.yul\":346:352   */\n      0x00\n        /* \"#utility.yul\":399:401   */\n      0x20\n        /* \"#utility.yul\":387:396   */\n      dup3\n        /* \"#utility.yul\":378:385   */\n      dup5\n        /* \"#utility.yul\":374:397   */\n      sub\n        /* \"#utility.yul\":370:402   */\n      slt\n        /* \"#utility.yul\":367:369   */\n      iszero\n      tag_506\n      jumpi\n        /* \"#utility.yul\":420:426   */\n      dup1\n        /* \"#utility.yul\":412:418   */\n      dup2\n        /* \"#utility.yul\":405:427   */\n      revert\n        /* \"#utility.yul\":367:369   */\n    tag_506:\n        /* \"#utility.yul\":457:466   */\n      dup2\n        /* \"#utility.yul\":451:467   */\n      mload\n        /* \"#utility.yul\":476:507   */\n      tag_503\n        /* \"#utility.yul\":501:506   */\n      dup2\n        /* \"#utility.yul\":476:507   */\n      tag_504\n      jump\t// in\n        /* \"#utility.yul\":542:1140   */\n    tag_65:\n        /* \"#utility.yul\":634:640   */\n      0x00\n        /* \"#utility.yul\":642:648   */\n      dup1\n        /* \"#utility.yul\":650:656   */\n      0x00\n        /* \"#utility.yul\":658:664   */\n      dup1\n        /* \"#utility.yul\":666:672   */\n      0x00\n        /* \"#utility.yul\":719:722   */\n      0xa0\n        /* \"#utility.yul\":707:716   */\n      dup7\n        /* \"#utility.yul\":698:705   */\n      dup9\n        /* \"#utility.yul\":694:717   */\n      sub\n        /* \"#utility.yul\":690:723   */\n      slt\n        /* \"#utility.yul\":687:689   */\n      iszero\n      tag_509\n      jumpi\n        /* \"#utility.yul\":741:747   */\n      dup1\n        /* \"#utility.yul\":733:739   */\n      dup2\n        /* \"#utility.yul\":726:748   */\n      revert\n        /* \"#utility.yul\":687:689   */\n    tag_509:\n        /* \"#utility.yul\":785:794   */\n      dup6\n        /* \"#utility.yul\":772:795   */\n      calldataload\n        /* \"#utility.yul\":804:835   */\n      tag_510\n        /* \"#utility.yul\":829:834   */\n      dup2\n        /* \"#utility.yul\":804:835   */\n      tag_504\n      jump\t// in\n    tag_510:\n        /* \"#utility.yul\":854:859   */\n      swap5\n      pop\n        /* \"#utility.yul\":906:908   */\n      0x20\n        /* \"#utility.yul\":891:909   */\n      dup7\n      add\n        /* \"#utility.yul\":878:910   */\n      calldataload\n      swap4\n      pop\n        /* \"#utility.yul\":957:959   */\n      0x40\n        /* \"#utility.yul\":942:960   */\n      dup7\n      add\n        /* \"#utility.yul\":929:961   */\n      calldataload\n      swap3\n      pop\n        /* \"#utility.yul\":1008:1010   */\n      0x60\n        /* \"#utility.yul\":993:1011   */\n      dup7\n      add\n        /* \"#utility.yul\":980:1012   */\n      calldataload\n      swap2\n      pop\n        /* \"#utility.yul\":1064:1067   */\n      0x80\n        /* \"#utility.yul\":1049:1068   */\n      dup7\n      add\n        /* \"#utility.yul\":1036:1069   */\n      calldataload\n        /* \"#utility.yul\":1078:1108   */\n      tag_511\n        /* \"#utility.yul\":1036:1069   */\n      dup2\n        /* \"#utility.yul\":1078:1108   */\n      tag_512\n      jump\t// in\n    tag_511:\n        /* \"#utility.yul\":1127:1134   */\n      dup1\n        /* \"#utility.yul\":1117:1134   */\n      swap2\n      pop\n      pop\n        /* \"#utility.yul\":677:1140   */\n      swap3\n      swap6\n      pop\n      swap3\n      swap6\n      swap1\n      swap4\n      pop\n      jump\t// out\n        /* \"#utility.yul\":1145:1400   */\n    tag_119:\n        /* \"#utility.yul\":1212:1218   */\n      0x00\n        /* \"#utility.yul\":1265:1267   */\n      0x20\n        /* \"#utility.yul\":1253:1262   */\n      dup3\n        /* \"#utility.yul\":1244:1251   */\n      dup5\n        /* \"#utility.yul\":1240:1263   */\n      sub\n        /* \"#utility.yul\":1236:1268   */\n      slt\n        /* \"#utility.yul\":1233:1235   */\n      iszero\n      tag_514\n      jumpi\n        /* \"#utility.yul\":1286:1292   */\n      dup1\n        /* \"#utility.yul\":1278:1284   */\n      dup2\n        /* \"#utility.yul\":1271:1293   */\n      revert\n        /* \"#utility.yul\":1233:1235   */\n    tag_514:\n        /* \"#utility.yul\":1323:1332   */\n      dup2\n        /* \"#utility.yul\":1317:1333   */\n      mload\n        /* \"#utility.yul\":1342:1370   */\n      tag_503\n        /* \"#utility.yul\":1364:1369   */\n      dup2\n        /* \"#utility.yul\":1342:1370   */\n      tag_512\n      jump\t// in\n        /* \"#utility.yul\":1405:1595   */\n    tag_27:\n        /* \"#utility.yul\":1464:1470   */\n      0x00\n        /* \"#utility.yul\":1517:1519   */\n      0x20\n        /* \"#utility.yul\":1505:1514   */\n      dup3\n        /* \"#utility.yul\":1496:1503   */\n      dup5\n        /* \"#utility.yul\":1492:1515   */\n      sub\n        /* \"#utility.yul\":1488:1520   */\n      slt\n        /* \"#utility.yul\":1485:1487   */\n      iszero\n      tag_517\n      jumpi\n        /* \"#utility.yul\":1538:1544   */\n      dup1\n        /* \"#utility.yul\":1530:1536   */\n      dup2\n        /* \"#utility.yul\":1523:1545   */\n      revert\n        /* \"#utility.yul\":1485:1487   */\n    tag_517:\n      pop\n        /* \"#utility.yul\":1566:1589   */\n      calldataload\n      swap2\n        /* \"#utility.yul\":1475:1595   */\n      swap1\n      pop\n      jump\t// out\n        /* \"#utility.yul\":1795:1989   */\n    tag_108:\n        /* \"#utility.yul\":1865:1871   */\n      0x00\n        /* \"#utility.yul\":1918:1920   */\n      0x20\n        /* \"#utility.yul\":1906:1915   */\n      dup3\n        /* \"#utility.yul\":1897:1904   */\n      dup5\n        /* \"#utility.yul\":1893:1916   */\n      sub\n        /* \"#utility.yul\":1889:1921   */\n      slt\n        /* \"#utility.yul\":1886:1888   */\n      iszero\n      tag_521\n      jumpi\n        /* \"#utility.yul\":1939:1945   */\n      dup1\n        /* \"#utility.yul\":1931:1937   */\n      dup2\n        /* \"#utility.yul\":1924:1946   */\n      revert\n        /* \"#utility.yul\":1886:1888   */\n    tag_521:\n      pop\n        /* \"#utility.yul\":1967:1983   */\n      mload\n      swap2\n        /* \"#utility.yul\":1876:1989   */\n      swap1\n      pop\n      jump\t// out\n        /* \"#utility.yul\":4750:5385   */\n    tag_34:\n        /* \"#utility.yul\":4921:4923   */\n      0x20\n        /* \"#utility.yul\":4973:4994   */\n      dup1\n      dup3\n      mstore\n        /* \"#utility.yul\":5043:5056   */\n      dup3\n      mload\n        /* \"#utility.yul\":4946:4964   */\n      dup3\n      dup3\n      add\n        /* \"#utility.yul\":5065:5087   */\n      dup2\n      swap1\n      mstore\n        /* \"#utility.yul\":4892:4896   */\n      0x00\n      swap2\n        /* \"#utility.yul\":4921:4923   */\n      swap1\n        /* \"#utility.yul\":5144:5159   */\n      dup5\n      dup3\n      add\n      swap1\n        /* \"#utility.yul\":5118:5120   */\n      0x40\n        /* \"#utility.yul\":5103:5121   */\n      dup6\n      add\n      swap1\n        /* \"#utility.yul\":4892:4896   */\n      dup5\n        /* \"#utility.yul\":5190:5359   */\n    tag_530:\n        /* \"#utility.yul\":5204:5210   */\n      dup2\n        /* \"#utility.yul\":5201:5202   */\n      dup2\n        /* \"#utility.yul\":5198:5211   */\n      lt\n        /* \"#utility.yul\":5190:5359   */\n      iszero\n      tag_532\n      jumpi\n        /* \"#utility.yul\":5265:5278   */\n      dup4\n      mload\n        /* \"#utility.yul\":5253:5279   */\n      dup4\n      mstore\n        /* \"#utility.yul\":5334:5349   */\n      swap3\n      dup5\n      add\n      swap3\n        /* \"#utility.yul\":5299:5311   */\n      swap2\n      dup5\n      add\n      swap2\n        /* \"#utility.yul\":5226:5227   */\n      0x01\n        /* \"#utility.yul\":5219:5228   */\n      add\n        /* \"#utility.yul\":5190:5359   */\n      jump(tag_530)\n    tag_532:\n      pop\n        /* \"#utility.yul\":5376:5379   */\n      swap1\n      swap7\n        /* \"#utility.yul\":4901:5385   */\n      swap6\n      pop\n      pop\n      pop\n      pop\n      pop\n      pop\n      jump\t// out\n        /* \"#utility.yul\":7162:7507   */\n    tag_156:\n        /* \"#utility.yul\":7364:7366   */\n      0x20\n        /* \"#utility.yul\":7346:7367   */\n      dup1\n      dup3\n      mstore\n        /* \"#utility.yul\":7403:7405   */\n      0x15\n        /* \"#utility.yul\":7383:7401   */\n      swap1\n      dup3\n      add\n        /* \"#utility.yul\":7376:7406   */\n      mstore\n      shl(0x5a, 0x18d85b1b195c881b9bdd08185d5d1a1bdc9a5e9959)\n        /* \"#utility.yul\":7437:7439   */\n      0x40\n        /* \"#utility.yul\":7422:7440   */\n      dup3\n      add\n        /* \"#utility.yul\":7415:7466   */\n      mstore\n        /* \"#utility.yul\":7498:7500   */\n      0x60\n        /* \"#utility.yul\":7483:7501   */\n      add\n      swap1\n        /* \"#utility.yul\":7336:7507   */\n      jump\t// out\n        /* \"#utility.yul\":10753:10881   */\n    tag_143:\n        /* \"#utility.yul\":10793:10796   */\n      0x00\n        /* \"#utility.yul\":10824:10825   */\n      dup3\n        /* \"#utility.yul\":10820:10826   */\n      not\n        /* \"#utility.yul\":10817:10818   */\n      dup3\n        /* \"#utility.yul\":10814:10827   */\n      gt\n        /* \"#utility.yul\":10811:10813   */\n      iszero\n      tag_551\n      jumpi\n        /* \"#utility.yul\":10830:10848   */\n      tag_551\n      tag_552\n      jump\t// in\n    tag_551:\n      pop\n        /* \"#utility.yul\":10866:10875   */\n      add\n      swap1\n        /* \"#utility.yul\":10801:10881   */\n      jump\t// out\n        /* \"#utility.yul\":10886:11103   */\n    tag_243:\n        /* \"#utility.yul\":10926:10927   */\n      0x00\n        /* \"#utility.yul\":10952:10953   */\n      dup3\n        /* \"#utility.yul\":10942:10944   */\n      tag_554\n      jumpi\n      shl(0xe0, 0x4e487b71)\n        /* \"#utility.yul\":10977:11008   */\n      dup2\n      mstore\n        /* \"#utility.yul\":11031:11035   */\n      0x12\n        /* \"#utility.yul\":11028:11029   */\n      0x04\n        /* \"#utility.yul\":11021:11036   */\n      mstore\n        /* \"#utility.yul\":11059:11063   */\n      0x24\n        /* \"#utility.yul\":10984:10985   */\n      dup2\n        /* \"#utility.yul\":11049:11064   */\n      revert\n        /* \"#utility.yul\":10942:10944   */\n    tag_554:\n      pop\n        /* \"#utility.yul\":11088:11097   */\n      div\n      swap1\n        /* \"#utility.yul\":10932:11103   */\n      jump\t// out\n        /* \"#utility.yul\":11108:11276   */\n    tag_241:\n        /* \"#utility.yul\":11148:11155   */\n      0x00\n        /* \"#utility.yul\":11214:11215   */\n      dup2\n        /* \"#utility.yul\":11210:11211   */\n      0x00\n        /* \"#utility.yul\":11206:11212   */\n      not\n        /* \"#utility.yul\":11202:11216   */\n      div\n        /* \"#utility.yul\":11199:11200   */\n      dup4\n        /* \"#utility.yul\":11196:11217   */\n      gt\n        /* \"#utility.yul\":11191:11192   */\n      dup3\n        /* \"#utility.yul\":11184:11193   */\n      iszero\n        /* \"#utility.yul\":11177:11194   */\n      iszero\n        /* \"#utility.yul\":11173:11218   */\n      and\n        /* \"#utility.yul\":11170:11172   */\n      iszero\n      tag_557\n      jumpi\n        /* \"#utility.yul\":11221:11239   */\n      tag_557\n      tag_552\n      jump\t// in\n    tag_557:\n      pop\n        /* \"#utility.yul\":11261:11270   */\n      mul\n      swap1\n        /* \"#utility.yul\":11160:11276   */\n      jump\t// out\n        /* \"#utility.yul\":11281:11406   */\n    tag_141:\n        /* \"#utility.yul\":11321:11325   */\n      0x00\n        /* \"#utility.yul\":11349:11350   */\n      dup3\n        /* \"#utility.yul\":11346:11347   */\n      dup3\n        /* \"#utility.yul\":11343:11351   */\n      lt\n        /* \"#utility.yul\":11340:11342   */\n      iszero\n      tag_560\n      jumpi\n        /* \"#utility.yul\":11354:11372   */\n      tag_560\n      tag_552\n      jump\t// in\n    tag_560:\n      pop\n        /* \"#utility.yul\":11391:11400   */\n      sub\n      swap1\n        /* \"#utility.yul\":11330:11406   */\n      jump\t// out\n        /* \"#utility.yul\":11411:11546   */\n    tag_134:\n        /* \"#utility.yul\":11450:11453   */\n      0x00\n      not(0x00)\n        /* \"#utility.yul\":11471:11488   */\n      dup3\n      eq\n        /* \"#utility.yul\":11468:11470   */\n      iszero\n      tag_563\n      jumpi\n        /* \"#utility.yul\":11491:11509   */\n      tag_563\n      tag_552\n      jump\t// in\n    tag_563:\n      pop\n        /* \"#utility.yul\":11538:11539   */\n      0x01\n        /* \"#utility.yul\":11527:11540   */\n      add\n      swap1\n        /* \"#utility.yul\":11458:11546   */\n      jump\t// out\n        /* \"#utility.yul\":11551:11678   */\n    tag_552:\n        /* \"#utility.yul\":11612:11622   */\n      0x4e487b71\n        /* \"#utility.yul\":11607:11610   */\n      0xe0\n        /* \"#utility.yul\":11603:11623   */\n      shl\n        /* \"#utility.yul\":11600:11601   */\n      0x00\n        /* \"#utility.yul\":11593:11624   */\n      mstore\n        /* \"#utility.yul\":11643:11647   */\n      0x11\n        /* \"#utility.yul\":11640:11641   */\n      0x04\n        /* \"#utility.yul\":11633:11648   */\n      mstore\n        /* \"#utility.yul\":11667:11671   */\n      0x24\n        /* \"#utility.yul\":11664:11665   */\n      0x00\n        /* \"#utility.yul\":11657:11672   */\n      revert\n        /* \"#utility.yul\":11683:11814   */\n    tag_504:\n      sub(shl(0xa0, 0x01), 0x01)\n        /* \"#utility.yul\":11758:11789   */\n      dup2\n      and\n        /* \"#utility.yul\":11748:11790   */\n      dup2\n      eq\n        /* \"#utility.yul\":11738:11740   */\n      tag_90\n      jumpi\n        /* \"#utility.yul\":11804:11805   */\n      0x00\n        /* \"#utility.yul\":11801:11802   */\n      dup1\n        /* \"#utility.yul\":11794:11806   */\n      revert\n        /* \"#utility.yul\":11819:11937   */\n    tag_512:\n        /* \"#utility.yul\":11905:11910   */\n      dup1\n        /* \"#utility.yul\":11898:11911   */\n      iszero\n        /* \"#utility.yul\":11891:11912   */\n      iszero\n        /* \"#utility.yul\":11884:11889   */\n      dup2\n        /* \"#utility.yul\":11881:11913   */\n      eq\n        /* \"#utility.yul\":11871:11873   */\n      tag_90\n      jumpi\n        /* \"#utility.yul\":11927:11928   */\n      0x00\n        /* \"#utility.yul\":11924:11925   */\n      dup1\n        /* \"#utility.yul\":11917:11929   */\n      revert\n\n    auxdata: 0xa26469706673582212201baacc1dc2e22495a850a14d0b0d4ed6c5d13c1fdfc64ac7425eca48d31dd30e64736f6c63430008040033\n}\n",
				"bytecode": {
					"linkReferences": {},
					"object": "60c060408190526000600255600154600a80546001600160a01b0319166001600160a01b03909216918217905562966ed960e31b8252906304b376c89060c49060209060048186803b1580156200005557600080fd5b505afa1580156200006a573d6000803e3d6000fd5b505050506040513d601f19601f82011682018060405250810190620000909190620000f3565b60601b6001600160601b03191660a052348015620000ad57600080fd5b506040516200303438038062003034833981016040819052620000d09162000123565b6001600081905560809190915280546001600160a01b031916331790556200013c565b60006020828403121562000105578081fd5b81516001600160a01b03811681146200011c578182fd5b9392505050565b60006020828403121562000135578081fd5b5051919050565b60805160a05160601c612e90620001a4600039600081816104d0015281816105f401528181610d1b01528181610e080152610fbc0152600081816101ee0152818161091e01528181610a740152818161138e0152818161148101526115970152612e906000f3fe608060405234801561001057600080fd5b50600436106100f55760003560e01c80637d7f923211610097578063be9a655511610066578063be9a655514610251578063d0ed729514610259578063ea8a1af01461026c578063f8b2cb4f1461027457600080fd5b80637d7f9232146102105780638df8280014610223578063ae8cd09014610236578063ba8006c61461023e57600080fd5b806337e8c09e116100d357806337e8c09e1461014b57806351cff8d9146101b3578063675f6537146101d65780637a47d494146101e957600080fd5b8063200d2ed2146100fa5780632940ff1e146101165780632d56657d1461012b575b600080fd5b61010360025481565b6040519081526020015b60405180910390f35b610129610124366004612cf5565b61029d565b005b61013e610139366004612c45565b61032b565b60405161010d9190612d25565b61015e610159366004612cf5565b610397565b60405161010d919081516001600160a01b0390811682526020808401519091169082015260408083015190820152606080830151908201526080808301519082015260a0918201519181019190915260c00190565b6101c66101c1366004612c45565b610447565b604051901515815260200161010d565b6101296101e4366004612cf5565b610714565b6101037f000000000000000000000000000000000000000000000000000000000000000081565b61012961021e366004612cf5565b6107e9565b6101c6610231366004612cf5565b61090c565b6101c6610a62565b61010361024c366004612c84565b610bc1565b6101c661137c565b6101c6610267366004612cf5565b61146f565b6101c6611585565b610103610282366004612c45565b6001600160a01b031660009081526005602052604090205490565b6000818152600660205260409020546001600160a01b031633146102fe5760405162461bcd60e51b81526020600482015260136024820152723ab730baba3437b934bd32b21031b0b63632b960691b60448201526064015b60405180910390fd5b600254158061030f57506002546003145b1561031f5761031d81611687565b505b610328816107e9565b50565b6001600160a01b03811660009081526007602090815260409182902080548351818402810184019094528084526060939283018282801561038b57602002820191906000526020600020905b815481526020019060010190808311610377575b50505050509050919050565b6103e26040518060c0016040528060006001600160a01b0316815260200160006001600160a01b03168152602001600081526020016000815260200160008152602001600081525090565b50600090815260066020908152604091829020825160c08101845281546001600160a01b03908116825260018301541692810192909252600281015492820192909252600382015460608201526004820154608082015260059091015460a082015290565b60006002600054141561049c5760405162461bcd60e51b815260206004820152601f60248201527f5265656e7472616e637947756172643a207265656e7472616e742063616c6c0060448201526064016102f5565b600260009081556001600160a01b03838116825260056020526040918290205491516370a0823160e01b81523060048201527f0000000000000000000000000000000000000000000000000000000000000000909116906370a082319060240160206040518083038186803b15801561051457600080fd5b505afa158015610528573d6000803e3d6000fd5b505050506040513d601f19601f8201168201806040525081019061054c9190612d0d565b1015801561057157506001600160a01b03821660009081526005602052604090205415155b6105b45760405162461bcd60e51b81526020600482015260146024820152737a65726f2076616c756520617661696c61626c6560601b60448201526064016102f5565b6001600160a01b03828116600081815260056020526040808220805490839055905163a9059cbb60e01b81526004810193909352602483018190529290917f00000000000000000000000000000000000000000000000000000000000000009091169063a9059cbb90604401602060405180830381600087803b15801561063a57600080fd5b505af115801561064e573d6000803e3d6000fd5b505050506040513d601f19601f820116820180604052508101906106729190612cd9565b9050806106c15760405162461bcd60e51b815260206004820152601960248201527f7472616e7366657220746f2063616c6c6572206661696c65640000000000000060448201526064016102f5565b604080516001600160a01b0386168152602081018490527f884edad9ce6fa2440d8a54cc123490eb96d2768479d49ff9c7366125a9424364910160405180910390a16001925050505b6001600055919050565b60008181526009602090815260408083208054825181850281018501909352808352919290919083018282801561076a57602002820191906000526020600020905b815481526020019060010190808311610756575b505083519394506000925050505b818110156107c3576107b08382815181106107a357634e487b7160e01b600052603260045260246000fd5b6020026020010151611ecb565b50806107bb81612e06565b915050610778565b5033600090815260056020526040902054156107e4576107e233610447565b505b505050565b600081815260066020908152604091829020825160c08101845281546001600160a01b0390811680835260018401549091169382019390935260028201549381019390935260038101546060840152600481015460808401526005015460a0830152331461088f5760405162461bcd60e51b81526020600482015260136024820152723ab730baba3437b934bd32b21031b0b63632b960691b60448201526064016102f5565b6000816060015182604001516108a59190612def565b82516001600160a01b03166000908152600560205260408120805492935083929091906108d3908490612d98565b90915550506040808301516000858152600660209081528382206003019290925533815260059091522054156107e4576107e233610447565b600a54604051631e55833360e31b81527f000000000000000000000000000000000000000000000000000000000000000060048201526000916001600160a01b03169063f2ac19989060240160206040518083038186803b15801561097057600080fd5b505afa158015610984573d6000803e3d6000fd5b505050506040513d601f19601f820116820180604052508101906109a89190612c68565b6001600160a01b0316336001600160a01b031614806109d157506001546001600160a01b031633145b6109ed5760405162461bcd60e51b81526004016102f590612d69565b6109f68261146f565b15610a5a5760035460005b81811015610a5057610a3d60038281548110610a2d57634e487b7160e01b600052603260045260246000fd5b9060005260206000200154611ecb565b5080610a4881612e06565b915050610a01565b5060019392505050565b506000919050565b600a54604051631e55833360e31b81527f000000000000000000000000000000000000000000000000000000000000000060048201526000916001600160a01b03169063f2ac19989060240160206040518083038186803b158015610ac657600080fd5b505afa158015610ada573d6000803e3d6000fd5b505050506040513d601f19601f82011682018060405250810190610afe9190612c68565b6001600160a01b0316336001600160a01b03161480610b2757506001546001600160a01b031633145b610b435760405162461bcd60e51b81526004016102f590612d69565b6002541580610b5457506002546004145b15610bbb5760035460005b81811015610bae57610b9b60038281548110610b8b57634e487b7160e01b600052603260045260246000fd5b90600052602060002001546126bd565b5080610ba681612e06565b915050610b5f565b5050600360025550600190565b50600090565b600a5460405163332daccf60e01b81523360048201526000916001600160a01b03169063332daccf9060240160206040518083038186803b158015610c0557600080fd5b505afa158015610c19573d6000803e3d6000fd5b505050506040513d601f19601f82011682018060405250810190610c3d9190612cd9565b15610c765760405162461bcd60e51b8152602060048201526009602482015268189b1858dadb1a5cdd60ba1b60448201526064016102f5565b60025415610cba5760405162461bcd60e51b81526020600482015260116024820152706d61726b6574206e6f742061637469766560781b60448201526064016102f5565b8260011480610cc95750826002145b610d045760405162461bcd60e51b815260206004820152600c60248201526b696e76616c6964207369646560a01b60448201526064016102f5565b6040516370a0823160e01b815233600482015285907f00000000000000000000000000000000000000000000000000000000000000006001600160a01b0316906370a082319060240160206040518083038186803b158015610d6557600080fd5b505afa158015610d79573d6000803e3d6000fd5b505050506040513d601f19601f82011682018060405250810190610d9d9190612d0d565b1015610deb5760405162461bcd60e51b815260206004820152601960248201527f6e6f7420656e6f75676820746f6b656e2062616c616c6e63650000000000000060448201526064016102f5565b604051636eb1769f60e11b815233600482015230602482015285907f00000000000000000000000000000000000000000000000000000000000000006001600160a01b03169063dd62ed3e9060440160206040518083038186803b158015610e5257600080fd5b505afa158015610e66573d6000803e3d6000fd5b505050506040513d601f19601f82011682018060405250810190610e8a9190612d0d565b1015610ecf5760405162461bcd60e51b81526020600482015260146024820152736e6f7420656e6f75676820616c6c6f77616e636560601b60448201526064016102f5565b600a60009054906101000a90046001600160a01b03166001600160a01b031663375b3c0a6040518163ffffffff1660e01b815260040160206040518083038186803b158015610f1d57600080fd5b505afa158015610f31573d6000803e3d6000fd5b505050506040513d601f19601f82011682018060405250810190610f559190612d0d565b851015610f9a5760405162461bcd60e51b81526020600482015260136024820152726c657373207468616e206d696e207374616b6560681b60448201526064016102f5565b6040516323b872dd60e01b8152336004820152306024820152604481018690527f00000000000000000000000000000000000000000000000000000000000000006001600160a01b0316906323b872dd90606401602060405180830381600087803b15801561100857600080fd5b505af115801561101c573d6000803e3d6000fd5b505050506040513d601f19601f820116820180604052508101906110409190612cd9565b61108c5760405162461bcd60e51b815260206004820152601b60248201527f7472616e736665722066726f6d2063616c6c6572206661696c6564000000000060448201526064016102f5565b60006110bb338888846110a060648b612def565b6110ab8b6064612dd0565b6110b59190612db0565b8961279f565b6004549091501561131d5760045486905b600a60009054906101000a90046001600160a01b03166001600160a01b031663375b3c0a6040518163ffffffff1660e01b815260040160206040518083038186803b15801561111a57600080fd5b505afa15801561112e573d6000803e3d6000fd5b505050506040513d601f19601f820116820180604052508101906111529190612d0d565b821061131a5760008060005b838110156112025760006004828154811061118957634e487b7160e01b600052603260045260246000fd5b9060005260206000200154905060066000828152602001908152602001600020600501548a14156111ba57506111f0565b6000818152600660205260409020600401548310156111ee5760008181526006602052604090206004015491935090915082905b505b806111fa81612e06565b91505061115e565b506000898210158061121c575060008211801561121c5750875b156112fe5760006004848154811061124457634e487b7160e01b600052603260045260246000fd5b6000918252602080832090910154808352600682526040808420815160c08101835281546001600160a01b0390811682526001830154169481019490945260028101549184019190915260038101546060840152600481015460808401526005015460a08301529250906112b960648e612def565b826060015183604001516112cd9190612def565b6112d79190612db0565b90506112e4606482612dd0565b90506112f48e828f8f8d886129c4565b9350505050611306565b50505061131a565b6113108186612def565b94505050506110cc565b50505b60408051338152306020820152908101829052606081018790526080810186905260a081018590527f618f358bb45538682ade624a4a1959053d9dabd20fe300508034b879681b37be9060c00160405180910390a19695505050505050565b600a54604051631e55833360e31b81527f000000000000000000000000000000000000000000000000000000000000000060048201526000916001600160a01b03169063f2ac19989060240160206040518083038186803b1580156113e057600080fd5b505afa1580156113f4573d6000803e3d6000fd5b505050506040513d601f19601f820116820180604052508101906114189190612c68565b6001600160a01b0316336001600160a01b0316148061144157506001546001600160a01b031633145b61145d5760405162461bcd60e51b81526004016102f590612d69565b600254610bbb57506004600255600190565b600a54604051631e55833360e31b81527f000000000000000000000000000000000000000000000000000000000000000060048201526000916001600160a01b03169063f2ac19989060240160206040518083038186803b1580156114d357600080fd5b505afa1580156114e7573d6000803e3d6000fd5b505050506040513d601f19601f8201168201806040525081019061150b9190612c68565b6001600160a01b0316336001600160a01b0316148061153457506001546001600160a01b031633145b6115505760405162461bcd60e51b81526004016102f590612d69565b600254158061156157506002546004145b8015611577575081600114806115775750816002145b15610a5a5750600255600190565b600a54604051631e55833360e31b81527f000000000000000000000000000000000000000000000000000000000000000060048201526000916001600160a01b03169063f2ac19989060240160206040518083038186803b1580156115e957600080fd5b505afa1580156115fd573d6000803e3d6000fd5b505050506040513d601f19601f820116820180604052508101906116219190612c68565b6001600160a01b0316336001600160a01b0316148061164a57506001546001600160a01b031633145b6116665760405162461bcd60e51b81526004016102f590612d69565b600254158061167757506002546004145b15610bbb57506003600255600190565b6000818152600660209081526040808320815160c08101835281546001600160a01b03908116825260018301541681850152600282015481840152600382015460608201526004820154608082015260059091015460a082015284845260098352818420805483518186028101860190945280845291938593929083018282801561173157602002820191906000526020600020905b81548152602001906001019080831161171d575b505083519394506000925050505b81811015611ebf576008600084838151811061176b57634e487b7160e01b600052603260045260246000fd5b60209081029190910181015182528101919091526040016000206004015460ff161561179657611ead565b6000806000808760a001516001141561186e57600860008887815181106117cd57634e487b7160e01b600052603260045260246000fd5b602002602001015181526020019081526020016000206002015491506008600088878151811061180d57634e487b7160e01b600052603260045260246000fd5b602002602001015181526020019081526020016000206001015493506008600088878151811061184d57634e487b7160e01b600052603260045260246000fd5b6020026020010151815260200190815260200160002060030154925061193c565b8760a001516002141561193c576008600088878151811061189f57634e487b7160e01b600052603260045260246000fd5b60200260200101518152602001908152602001600020600301549150600860008887815181106118df57634e487b7160e01b600052603260045260246000fd5b602002602001015181526020019081526020016000206000015493506008600088878151811061191f57634e487b7160e01b600052603260045260246000fd5b602002602001015181526020019081526020016000206002015492505b5060008381526006602090815260409182902054600a5483516355c4a8bf60e01b815293516001600160a01b039283169460649493909216926355c4a8bf9260048082019391829003018186803b15801561199657600080fd5b505afa1580156119aa573d6000803e3d6000fd5b505050506040513d601f19601f820116820180604052508101906119ce9190612d0d565b6119d9906064612def565b6119e39084612dd0565b6119ed9190612db0565b88516001600160a01b031660009081526005602052604081208054909190611a16908490612d98565b909155505060008481526006602052604081206003018054859290611a3c908490612def565b9250508190555060006064600a60009054906101000a90046001600160a01b03166001600160a01b03166355c4a8bf6040518163ffffffff1660e01b815260040160206040518083038186803b158015611a9557600080fd5b505afa158015611aa9573d6000803e3d6000fd5b505050506040513d601f19601f82011682018060405250810190611acd9190612d0d565b611ad79085612dd0565b611ae19190612db0565b90506064600a60009054906101000a90046001600160a01b03166001600160a01b0316636a0ccd9d6040518163ffffffff1660e01b815260040160206040518083038186803b158015611b3357600080fd5b505afa158015611b47573d6000803e3d6000fd5b505050506040513d601f19601f82011682018060405250810190611b6b9190612d0d565b611b759083612dd0565b611b7f9190612db0565b60056000600a60009054906101000a90046001600160a01b03166001600160a01b031663b7640a546040518163ffffffff1660e01b815260040160206040518083038186803b158015611bd157600080fd5b505afa158015611be5573d6000803e3d6000fd5b505050506040513d601f19601f82011682018060405250810190611c099190612c68565b6001600160a01b03166001600160a01b031681526020019081526020016000206000828254611c389190612d98565b9091555050600a54604080516328576d4560e01b815290516064926001600160a01b0316916328576d45916004808301926020929190829003018186803b158015611c8257600080fd5b505afa158015611c96573d6000803e3d6000fd5b505050506040513d601f19601f82011682018060405250810190611cba9190612d0d565b611cc49083612dd0565b611cce9190612db0565b60056000600a60009054906101000a90046001600160a01b03166001600160a01b03166309953b2f6040518163ffffffff1660e01b815260040160206040518083038186803b158015611d2057600080fd5b505afa158015611d34573d6000803e3d6000fd5b505050506040513d601f19601f82011682018060405250810190611d589190612c68565b6001600160a01b03166001600160a01b031681526020019081526020016000206000828254611d879190612d98565b9091555050600a5460408051631533469760e21b815290516064926001600160a01b0316916354cd1a5c916004808301926020929190829003018186803b158015611dd157600080fd5b505afa158015611de5573d6000803e3d6000fd5b505050506040513d601f19601f82011682018060405250810190611e099190612d0d565b611e139083612dd0565b611e1d9190612db0565b6020808b01516001600160a01b031660009081526005909152604081208054909190611e4a908490612d98565b925050819055506001600860008a8981518110611e7757634e487b7160e01b600052603260045260246000fd5b6020026020010151815260200190815260200160002060040160006101000a81548160ff02191690831515021790555050505050505b80611eb781612e06565b91505061173f565b50600195945050505050565b600060026000541415611f205760405162461bcd60e51b815260206004820152601f60248201527f5265656e7472616e637947756172643a207265656e7472616e742063616c6c0060448201526064016102f5565b600260009081558281526008602052604090206004015460ff1615611f475750600061070a565b60008060008060025460011415612121576000868152600860209081526040808320548352600682529182902054600a5483516355c4a8bf60e01b815293516001600160a01b03928316985060649491909216926355c4a8bf92600480840193829003018186803b158015611fbb57600080fd5b505afa158015611fcf573d6000803e3d6000fd5b505050506040513d601f19601f82011682018060405250810190611ff39190612d0d565b611ffe906064612def565b60008881526008602052604090206003015461201a9190612dd0565b6120249190612db0565b6000878152600860205260409020600201546120409190612d98565b91506064600a60009054906101000a90046001600160a01b03166001600160a01b03166355c4a8bf6040518163ffffffff1660e01b815260040160206040518083038186803b15801561209257600080fd5b505afa1580156120a6573d6000803e3d6000fd5b505050506040513d601f19601f820116820180604052508101906120ca9190612d0d565b6000888152600860205260409020600301546120e69190612dd0565b6120f09190612db0565b600087815260086020908152604080832054835260069091529020600101546001600160a01b031693509050612309565b600254600214156122fc576000868152600860209081526040808320600101548352600682529182902054600a5483516355c4a8bf60e01b815293516001600160a01b03928316985060649491909216926355c4a8bf92600480840193829003018186803b15801561219257600080fd5b505afa1580156121a6573d6000803e3d6000fd5b505050506040513d601f19601f820116820180604052508101906121ca9190612d0d565b6121d5906064612def565b6000888152600860205260409020600201546121f19190612dd0565b6121fb9190612db0565b6000878152600860205260409020600301546122179190612d98565b91506064600a60009054906101000a90046001600160a01b03166001600160a01b03166355c4a8bf6040518163ffffffff1660e01b815260040160206040518083038186803b15801561226957600080fd5b505afa15801561227d573d6000803e3d6000fd5b505050506040513d601f19601f820116820180604052508101906122a19190612d0d565b6000888152600860205260409020600201546122bd9190612dd0565b6122c79190612db0565b60008781526008602090815260408083206001908101548452600690925290912001546001600160a01b031693509050612309565b600094505050505061070a565b6001600160a01b03841660009081526005602052604081208054849290612331908490612d98565b9091555050600a5460408051636a0ccd9d60e01b815290516064926001600160a01b031691636a0ccd9d916004808301926020929190829003018186803b15801561237b57600080fd5b505afa15801561238f573d6000803e3d6000fd5b505050506040513d601f19601f820116820180604052508101906123b39190612d0d565b6123bd9083612dd0565b6123c79190612db0565b60056000600a60009054906101000a90046001600160a01b03166001600160a01b031663b7640a546040518163ffffffff1660e01b815260040160206040518083038186803b15801561241957600080fd5b505afa15801561242d573d6000803e3d6000fd5b505050506040513d601f19601f820116820180604052508101906124519190612c68565b6001600160a01b03166001600160a01b0316815260200190815260200160002060008282546124809190612d98565b9091555050600a54604080516328576d4560e01b815290516064926001600160a01b0316916328576d45916004808301926020929190829003018186803b1580156124ca57600080fd5b505afa1580156124de573d6000803e3d6000fd5b505050506040513d601f19601f820116820180604052508101906125029190612d0d565b61250c9083612dd0565b6125169190612db0565b60056000600a60009054906101000a90046001600160a01b03166001600160a01b03166309953b2f6040518163ffffffff1660e01b815260040160206040518083038186803b15801561256857600080fd5b505afa15801561257c573d6000803e3d6000fd5b505050506040513d601f19601f820116820180604052508101906125a09190612c68565b6001600160a01b03166001600160a01b0316815260200190815260200160002060008282546125cf9190612d98565b9091555050600a5460408051631533469760e21b815290516064926001600160a01b0316916354cd1a5c916004808301926020929190829003018186803b15801561261957600080fd5b505afa15801561262d573d6000803e3d6000fd5b505050506040513d601f19601f820116820180604052508101906126519190612d0d565b61265b9083612dd0565b6126659190612db0565b6001600160a01b0384166000908152600560205260408120805490919061268d908490612d98565b909155505050600094855250506008602052505060408120600401805460ff191660019081179091559081905590565b60008181526008602052604081206004015460ff16156126df57506000919050565b600082815260086020908152604080832080548452600683528184205460018201548552828520546002909201546001600160a01b039182168087526005909552928520805494959190921693612737908490612d98565b90915550506000848152600860209081526040808320600301546001600160a01b038516845260059092528220805491929091612775908490612d98565b90915550505060009283525050600860205260409020600401805460ff1916600190811790915590565b60008060005b6004548990309083906127b9906001612d98565b6127c39190612d98565b6040516bffffffffffffffffffffffff19606094851b811660208301529290931b9091166034830152604882015242606882015244608882015260a80160408051601f1981840301815291815281516020928301206000818152600690935291206002015490925061283457612846565b8061283e81612e06565b9150506127a5565b6001600160a01b0388166128dd57600a60009054906101000a90046001600160a01b03166001600160a01b03166309953b2f6040518163ffffffff1660e01b815260040160206040518083038186803b1580156128a257600080fd5b505afa1580156128b6573d6000803e3d6000fd5b505050506040513d601f19601f820116820180604052508101906128da9190612c68565b97505b506040805160c0810182526001600160a01b03998a16808252988a166020808301918252828401998a52606083019889526080830197885260a0830196875260008581526006825284812093518454908e166001600160a01b031991821617855592516001808601805492909f169190941617909c5598516002830155965160038201559451600480870191909155935160059095019490945582548086019093557f8a35acfbc15ff81a39ae7d344fd709f28e8600b4aa8c65c6b64bfe7fe36bd19b90920182905550938552600783528420805491820181558452922090910181905590565b600080600080898911612a2e578892506129df606489612def565b6129e9908a612dd0565b91506129f6606483612db0565b91508660011415612a1457612a0d86868585612b12565b9050612a82565b8660021415612a2957612a0d85878486612b12565b612a82565b899250612a3c606489612def565b612a46908b612dd0565b9150612a53606483612db0565b91508660011415612a6a57612a0d86868585612b12565b8660021415612a8257612a7f85878486612b12565b90505b60008681526009602090815260408083208054600181810183559185528385200185905588845281842080549182018155845282842001849055888352600690915281206003018054859290612ad9908490612d98565b909155505060008581526006602052604081206003018054849290612aff908490612d98565b90915550929a9950505050505050505050565b60008060005b600354879087908390612b2c906001612d98565b612b369190612d98565b60408051602081019490945283019190915260608201524260808201524460a082015260c00160408051601f19818403018152918152815160209283012060008181526008909352912060020154909250612b9057612ba2565b80612b9a81612e06565b915050612b18565b506040805160a081018252968752602080880196875287820195865260608801948552600060808901818152848252600890925291822097518855955160018089019190915594516002880155925160038088019190915594516004909601805460ff1916961515969096179095555082549182018355919091527fc2575a0e9e593c00f959f8c92f12db2869c3395a3b0502d05e2516446f71f85b0181905590565b600060208284031215612c56578081fd5b8135612c6181612e37565b9392505050565b600060208284031215612c79578081fd5b8151612c6181612e37565b600080600080600060a08688031215612c9b578081fd5b8535612ca681612e37565b94506020860135935060408601359250606086013591506080860135612ccb81612e4c565b809150509295509295909350565b600060208284031215612cea578081fd5b8151612c6181612e4c565b600060208284031215612d06578081fd5b5035919050565b600060208284031215612d1e578081fd5b5051919050565b6020808252825182820181905260009190848201906040850190845b81811015612d5d57835183529284019291840191600101612d41565b50909695505050505050565b60208082526015908201527418d85b1b195c881b9bdd08185d5d1a1bdc9a5e9959605a1b604082015260600190565b60008219821115612dab57612dab612e21565b500190565b600082612dcb57634e487b7160e01b81526012600452602481fd5b500490565b6000816000190483118215151615612dea57612dea612e21565b500290565b600082821015612e0157612e01612e21565b500390565b6000600019821415612e1a57612e1a612e21565b5060010190565b634e487b7160e01b600052601160045260246000fd5b6001600160a01b038116811461032857600080fd5b801515811461032857600080fdfea26469706673582212201baacc1dc2e22495a850a14d0b0d4ed6c5d13c1fdfc64ac7425eca48d31dd30e64736f6c63430008040033",
					"opcodes": "PUSH1 0xC0 PUSH1 0x40 DUP2 SWAP1 MSTORE PUSH1 0x0 PUSH1 0x2 SSTORE PUSH1 0x1 SLOAD PUSH1 0xA DUP1 SLOAD PUSH1 0x1 PUSH1 0x1 PUSH1 0xA0 SHL SUB NOT AND PUSH1 0x1 PUSH1 0x1 PUSH1 0xA0 SHL SUB SWAP1 SWAP3 AND SWAP2 DUP3 OR SWAP1 SSTORE PUSH3 0x966ED9 PUSH1 0xE3 SHL DUP3 MSTORE SWAP1 PUSH4 0x4B376C8 SWAP1 PUSH1 0xC4 SWAP1 PUSH1 0x20 SWAP1 PUSH1 0x4 DUP2 DUP7 DUP1 EXTCODESIZE ISZERO DUP1 ISZERO PUSH3 0x55 JUMPI PUSH1 0x0 DUP1 REVERT JUMPDEST POP GAS STATICCALL ISZERO DUP1 ISZERO PUSH3 0x6A JUMPI RETURNDATASIZE PUSH1 0x0 DUP1 RETURNDATACOPY RETURNDATASIZE PUSH1 0x0 REVERT JUMPDEST POP POP POP POP PUSH1 0x40 MLOAD RETURNDATASIZE PUSH1 0x1F NOT PUSH1 0x1F DUP3 ADD AND DUP3 ADD DUP1 PUSH1 0x40 MSTORE POP DUP2 ADD SWAP1 PUSH3 0x90 SWAP2 SWAP1 PUSH3 0xF3 JUMP JUMPDEST PUSH1 0x60 SHL PUSH1 0x1 PUSH1 0x1 PUSH1 0x60 SHL SUB NOT AND PUSH1 0xA0 MSTORE CALLVALUE DUP1 ISZERO PUSH3 0xAD JUMPI PUSH1 0x0 DUP1 REVERT JUMPDEST POP PUSH1 0x40 MLOAD PUSH3 0x3034 CODESIZE SUB DUP1 PUSH3 0x3034 DUP4 CODECOPY DUP2 ADD PUSH1 0x40 DUP2 SWAP1 MSTORE PUSH3 0xD0 SWAP2 PUSH3 0x123 JUMP JUMPDEST PUSH1 0x1 PUSH1 0x0 DUP2 SWAP1 SSTORE PUSH1 0x80 SWAP2 SWAP1 SWAP2 MSTORE DUP1 SLOAD PUSH1 0x1 PUSH1 0x1 PUSH1 0xA0 SHL SUB NOT AND CALLER OR SWAP1 SSTORE PUSH3 0x13C JUMP JUMPDEST PUSH1 0x0 PUSH1 0x20 DUP3 DUP5 SUB SLT ISZERO PUSH3 0x105 JUMPI DUP1 DUP2 REVERT JUMPDEST DUP2 MLOAD PUSH1 0x1 PUSH1 0x1 PUSH1 0xA0 SHL SUB DUP2 AND DUP2 EQ PUSH3 0x11C JUMPI DUP2 DUP3 REVERT JUMPDEST SWAP4 SWAP3 POP POP POP JUMP JUMPDEST PUSH1 0x0 PUSH1 0x20 DUP3 DUP5 SUB SLT ISZERO PUSH3 0x135 JUMPI DUP1 DUP2 REVERT JUMPDEST POP MLOAD SWAP2 SWAP1 POP JUMP JUMPDEST PUSH1 0x80 MLOAD PUSH1 0xA0 MLOAD PUSH1 0x60 SHR PUSH2 0x2E90 PUSH3 0x1A4 PUSH1 0x0 CODECOPY PUSH1 0x0 DUP2 DUP2 PUSH2 0x4D0 ADD MSTORE DUP2 DUP2 PUSH2 0x5F4 ADD MSTORE DUP2 DUP2 PUSH2 0xD1B ADD MSTORE DUP2 DUP2 PUSH2 0xE08 ADD MSTORE PUSH2 0xFBC ADD MSTORE PUSH1 0x0 DUP2 DUP2 PUSH2 0x1EE ADD MSTORE DUP2 DUP2 PUSH2 0x91E ADD MSTORE DUP2 DUP2 PUSH2 0xA74 ADD MSTORE DUP2 DUP2 PUSH2 0x138E ADD MSTORE DUP2 DUP2 PUSH2 0x1481 ADD MSTORE PUSH2 0x1597 ADD MSTORE PUSH2 0x2E90 PUSH1 0x0 RETURN INVALID PUSH1 0x80 PUSH1 0x40 MSTORE CALLVALUE DUP1 ISZERO PUSH2 0x10 JUMPI PUSH1 0x0 DUP1 REVERT JUMPDEST POP PUSH1 0x4 CALLDATASIZE LT PUSH2 0xF5 JUMPI PUSH1 0x0 CALLDATALOAD PUSH1 0xE0 SHR DUP1 PUSH4 0x7D7F9232 GT PUSH2 0x97 JUMPI DUP1 PUSH4 0xBE9A6555 GT PUSH2 0x66 JUMPI DUP1 PUSH4 0xBE9A6555 EQ PUSH2 0x251 JUMPI DUP1 PUSH4 0xD0ED7295 EQ PUSH2 0x259 JUMPI DUP1 PUSH4 0xEA8A1AF0 EQ PUSH2 0x26C JUMPI DUP1 PUSH4 0xF8B2CB4F EQ PUSH2 0x274 JUMPI PUSH1 0x0 DUP1 REVERT JUMPDEST DUP1 PUSH4 0x7D7F9232 EQ PUSH2 0x210 JUMPI DUP1 PUSH4 0x8DF82800 EQ PUSH2 0x223 JUMPI DUP1 PUSH4 0xAE8CD090 EQ PUSH2 0x236 JUMPI DUP1 PUSH4 0xBA8006C6 EQ PUSH2 0x23E JUMPI PUSH1 0x0 DUP1 REVERT JUMPDEST DUP1 PUSH4 0x37E8C09E GT PUSH2 0xD3 JUMPI DUP1 PUSH4 0x37E8C09E EQ PUSH2 0x14B JUMPI DUP1 PUSH4 0x51CFF8D9 EQ PUSH2 0x1B3 JUMPI DUP1 PUSH4 0x675F6537 EQ PUSH2 0x1D6 JUMPI DUP1 PUSH4 0x7A47D494 EQ PUSH2 0x1E9 JUMPI PUSH1 0x0 DUP1 REVERT JUMPDEST DUP1 PUSH4 0x200D2ED2 EQ PUSH2 0xFA JUMPI DUP1 PUSH4 0x2940FF1E EQ PUSH2 0x116 JUMPI DUP1 PUSH4 0x2D56657D EQ PUSH2 0x12B JUMPI JUMPDEST PUSH1 0x0 DUP1 REVERT JUMPDEST PUSH2 0x103 PUSH1 0x2 SLOAD DUP2 JUMP JUMPDEST PUSH1 0x40 MLOAD SWAP1 DUP2 MSTORE PUSH1 0x20 ADD JUMPDEST PUSH1 0x40 MLOAD DUP1 SWAP2 SUB SWAP1 RETURN JUMPDEST PUSH2 0x129 PUSH2 0x124 CALLDATASIZE PUSH1 0x4 PUSH2 0x2CF5 JUMP JUMPDEST PUSH2 0x29D JUMP JUMPDEST STOP JUMPDEST PUSH2 0x13E PUSH2 0x139 CALLDATASIZE PUSH1 0x4 PUSH2 0x2C45 JUMP JUMPDEST PUSH2 0x32B JUMP JUMPDEST PUSH1 0x40 MLOAD PUSH2 0x10D SWAP2 SWAP1 PUSH2 0x2D25 JUMP JUMPDEST PUSH2 0x15E PUSH2 0x159 CALLDATASIZE PUSH1 0x4 PUSH2 0x2CF5 JUMP JUMPDEST PUSH2 0x397 JUMP JUMPDEST PUSH1 0x40 MLOAD PUSH2 0x10D SWAP2 SWAP1 DUP2 MLOAD PUSH1 0x1 PUSH1 0x1 PUSH1 0xA0 SHL SUB SWAP1 DUP2 AND DUP3 MSTORE PUSH1 0x20 DUP1 DUP5 ADD MLOAD SWAP1 SWAP2 AND SWAP1 DUP3 ADD MSTORE PUSH1 0x40 DUP1 DUP4 ADD MLOAD SWAP1 DUP3 ADD MSTORE PUSH1 0x60 DUP1 DUP4 ADD MLOAD SWAP1 DUP3 ADD MSTORE PUSH1 0x80 DUP1 DUP4 ADD MLOAD SWAP1 DUP3 ADD MSTORE PUSH1 0xA0 SWAP2 DUP3 ADD MLOAD SWAP2 DUP2 ADD SWAP2 SWAP1 SWAP2 MSTORE PUSH1 0xC0 ADD SWAP1 JUMP JUMPDEST PUSH2 0x1C6 PUSH2 0x1C1 CALLDATASIZE PUSH1 0x4 PUSH2 0x2C45 JUMP JUMPDEST PUSH2 0x447 JUMP JUMPDEST PUSH1 0x40 MLOAD SWAP1 ISZERO ISZERO DUP2 MSTORE PUSH1 0x20 ADD PUSH2 0x10D JUMP JUMPDEST PUSH2 0x129 PUSH2 0x1E4 CALLDATASIZE PUSH1 0x4 PUSH2 0x2CF5 JUMP JUMPDEST PUSH2 0x714 JUMP JUMPDEST PUSH2 0x103 PUSH32 0x0 DUP2 JUMP JUMPDEST PUSH2 0x129 PUSH2 0x21E CALLDATASIZE PUSH1 0x4 PUSH2 0x2CF5 JUMP JUMPDEST PUSH2 0x7E9 JUMP JUMPDEST PUSH2 0x1C6 PUSH2 0x231 CALLDATASIZE PUSH1 0x4 PUSH2 0x2CF5 JUMP JUMPDEST PUSH2 0x90C JUMP JUMPDEST PUSH2 0x1C6 PUSH2 0xA62 JUMP JUMPDEST PUSH2 0x103 PUSH2 0x24C CALLDATASIZE PUSH1 0x4 PUSH2 0x2C84 JUMP JUMPDEST PUSH2 0xBC1 JUMP JUMPDEST PUSH2 0x1C6 PUSH2 0x137C JUMP JUMPDEST PUSH2 0x1C6 PUSH2 0x267 CALLDATASIZE PUSH1 0x4 PUSH2 0x2CF5 JUMP JUMPDEST PUSH2 0x146F JUMP JUMPDEST PUSH2 0x1C6 PUSH2 0x1585 JUMP JUMPDEST PUSH2 0x103 PUSH2 0x282 CALLDATASIZE PUSH1 0x4 PUSH2 0x2C45 JUMP JUMPDEST PUSH1 0x1 PUSH1 0x1 PUSH1 0xA0 SHL SUB AND PUSH1 0x0 SWAP1 DUP2 MSTORE PUSH1 0x5 PUSH1 0x20 MSTORE PUSH1 0x40 SWAP1 KECCAK256 SLOAD SWAP1 JUMP JUMPDEST PUSH1 0x0 DUP2 DUP2 MSTORE PUSH1 0x6 PUSH1 0x20 MSTORE PUSH1 0x40 SWAP1 KECCAK256 SLOAD PUSH1 0x1 PUSH1 0x1 PUSH1 0xA0 SHL SUB AND CALLER EQ PUSH2 0x2FE JUMPI PUSH1 0x40 MLOAD PUSH3 0x461BCD PUSH1 0xE5 SHL DUP2 MSTORE PUSH1 0x20 PUSH1 0x4 DUP3 ADD MSTORE PUSH1 0x13 PUSH1 0x24 DUP3 ADD MSTORE PUSH19 0x3AB730BABA3437B934BD32B21031B0B63632B9 PUSH1 0x69 SHL PUSH1 0x44 DUP3 ADD MSTORE PUSH1 0x64 ADD JUMPDEST PUSH1 0x40 MLOAD DUP1 SWAP2 SUB SWAP1 REVERT JUMPDEST PUSH1 0x2 SLOAD ISZERO DUP1 PUSH2 0x30F JUMPI POP PUSH1 0x2 SLOAD PUSH1 0x3 EQ JUMPDEST ISZERO PUSH2 0x31F JUMPI PUSH2 0x31D DUP2 PUSH2 0x1687 JUMP JUMPDEST POP JUMPDEST PUSH2 0x328 DUP2 PUSH2 0x7E9 JUMP JUMPDEST POP JUMP JUMPDEST PUSH1 0x1 PUSH1 0x1 PUSH1 0xA0 SHL SUB DUP2 AND PUSH1 0x0 SWAP1 DUP2 MSTORE PUSH1 0x7 PUSH1 0x20 SWAP1 DUP2 MSTORE PUSH1 0x40 SWAP2 DUP3 SWAP1 KECCAK256 DUP1 SLOAD DUP4 MLOAD DUP2 DUP5 MUL DUP2 ADD DUP5 ADD SWAP1 SWAP5 MSTORE DUP1 DUP5 MSTORE PUSH1 0x60 SWAP4 SWAP3 DUP4 ADD DUP3 DUP3 DUP1 ISZERO PUSH2 0x38B JUMPI PUSH1 0x20 MUL DUP3 ADD SWAP2 SWAP1 PUSH1 0x0 MSTORE PUSH1 0x20 PUSH1 0x0 KECCAK256 SWAP1 JUMPDEST DUP2 SLOAD DUP2 MSTORE PUSH1 0x20 ADD SWAP1 PUSH1 0x1 ADD SWAP1 DUP1 DUP4 GT PUSH2 0x377 JUMPI JUMPDEST POP POP POP POP POP SWAP1 POP SWAP2 SWAP1 POP JUMP JUMPDEST PUSH2 0x3E2 PUSH1 0x40 MLOAD DUP1 PUSH1 0xC0 ADD PUSH1 0x40 MSTORE DUP1 PUSH1 0x0 PUSH1 0x1 PUSH1 0x1 PUSH1 0xA0 SHL SUB AND DUP2 MSTORE PUSH1 0x20 ADD PUSH1 0x0 PUSH1 0x1 PUSH1 0x1 PUSH1 0xA0 SHL SUB AND DUP2 MSTORE PUSH1 0x20 ADD PUSH1 0x0 DUP2 MSTORE PUSH1 0x20 ADD PUSH1 0x0 DUP2 MSTORE PUSH1 0x20 ADD PUSH1 0x0 DUP2 MSTORE PUSH1 0x20 ADD PUSH1 0x0 DUP2 MSTORE POP SWAP1 JUMP JUMPDEST POP PUSH1 0x0 SWAP1 DUP2 MSTORE PUSH1 0x6 PUSH1 0x20 SWAP1 DUP2 MSTORE PUSH1 0x40 SWAP2 DUP3 SWAP1 KECCAK256 DUP3 MLOAD PUSH1 0xC0 DUP2 ADD DUP5 MSTORE DUP2 SLOAD PUSH1 0x1 PUSH1 0x1 PUSH1 0xA0 SHL SUB SWAP1 DUP2 AND DUP3 MSTORE PUSH1 0x1 DUP4 ADD SLOAD AND SWAP3 DUP2 ADD SWAP3 SWAP1 SWAP3 MSTORE PUSH1 0x2 DUP2 ADD SLOAD SWAP3 DUP3 ADD SWAP3 SWAP1 SWAP3 MSTORE PUSH1 0x3 DUP3 ADD SLOAD PUSH1 0x60 DUP3 ADD MSTORE PUSH1 0x4 DUP3 ADD SLOAD PUSH1 0x80 DUP3 ADD MSTORE PUSH1 0x5 SWAP1 SWAP2 ADD SLOAD PUSH1 0xA0 DUP3 ADD MSTORE SWAP1 JUMP JUMPDEST PUSH1 0x0 PUSH1 0x2 PUSH1 0x0 SLOAD EQ ISZERO PUSH2 0x49C JUMPI PUSH1 0x40 MLOAD PUSH3 0x461BCD PUSH1 0xE5 SHL DUP2 MSTORE PUSH1 0x20 PUSH1 0x4 DUP3 ADD MSTORE PUSH1 0x1F PUSH1 0x24 DUP3 ADD MSTORE PUSH32 0x5265656E7472616E637947756172643A207265656E7472616E742063616C6C00 PUSH1 0x44 DUP3 ADD MSTORE PUSH1 0x64 ADD PUSH2 0x2F5 JUMP JUMPDEST PUSH1 0x2 PUSH1 0x0 SWAP1 DUP2 SSTORE PUSH1 0x1 PUSH1 0x1 PUSH1 0xA0 SHL SUB DUP4 DUP2 AND DUP3 MSTORE PUSH1 0x5 PUSH1 0x20 MSTORE PUSH1 0x40 SWAP2 DUP3 SWAP1 KECCAK256 SLOAD SWAP2 MLOAD PUSH4 0x70A08231 PUSH1 0xE0 SHL DUP2 MSTORE ADDRESS PUSH1 0x4 DUP3 ADD MSTORE PUSH32 0x0 SWAP1 SWAP2 AND SWAP1 PUSH4 0x70A08231 SWAP1 PUSH1 0x24 ADD PUSH1 0x20 PUSH1 0x40 MLOAD DUP1 DUP4 SUB DUP2 DUP7 DUP1 EXTCODESIZE ISZERO DUP1 ISZERO PUSH2 0x514 JUMPI PUSH1 0x0 DUP1 REVERT JUMPDEST POP GAS STATICCALL ISZERO DUP1 ISZERO PUSH2 0x528 JUMPI RETURNDATASIZE PUSH1 0x0 DUP1 RETURNDATACOPY RETURNDATASIZE PUSH1 0x0 REVERT JUMPDEST POP POP POP POP PUSH1 0x40 MLOAD RETURNDATASIZE PUSH1 0x1F NOT PUSH1 0x1F DUP3 ADD AND DUP3 ADD DUP1 PUSH1 0x40 MSTORE POP DUP2 ADD SWAP1 PUSH2 0x54C SWAP2 SWAP1 PUSH2 0x2D0D JUMP JUMPDEST LT ISZERO DUP1 ISZERO PUSH2 0x571 JUMPI POP PUSH1 0x1 PUSH1 0x1 PUSH1 0xA0 SHL SUB DUP3 AND PUSH1 0x0 SWAP1 DUP2 MSTORE PUSH1 0x5 PUSH1 0x20 MSTORE PUSH1 0x40 SWAP1 KECCAK256 SLOAD ISZERO ISZERO JUMPDEST PUSH2 0x5B4 JUMPI PUSH1 0x40 MLOAD PUSH3 0x461BCD PUSH1 0xE5 SHL DUP2 MSTORE PUSH1 0x20 PUSH1 0x4 DUP3 ADD MSTORE PUSH1 0x14 PUSH1 0x24 DUP3 ADD MSTORE PUSH20 0x7A65726F2076616C756520617661696C61626C65 PUSH1 0x60 SHL PUSH1 0x44 DUP3 ADD MSTORE PUSH1 0x64 ADD PUSH2 0x2F5 JUMP JUMPDEST PUSH1 0x1 PUSH1 0x1 PUSH1 0xA0 SHL SUB DUP3 DUP2 AND PUSH1 0x0 DUP2 DUP2 MSTORE PUSH1 0x5 PUSH1 0x20 MSTORE PUSH1 0x40 DUP1 DUP3 KECCAK256 DUP1 SLOAD SWAP1 DUP4 SWAP1 SSTORE SWAP1 MLOAD PUSH4 0xA9059CBB PUSH1 0xE0 SHL DUP2 MSTORE PUSH1 0x4 DUP2 ADD SWAP4 SWAP1 SWAP4 MSTORE PUSH1 0x24 DUP4 ADD DUP2 SWAP1 MSTORE SWAP3 SWAP1 SWAP2 PUSH32 0x0 SWAP1 SWAP2 AND SWAP1 PUSH4 0xA9059CBB SWAP1 PUSH1 0x44 ADD PUSH1 0x20 PUSH1 0x40 MLOAD DUP1 DUP4 SUB DUP2 PUSH1 0x0 DUP8 DUP1 EXTCODESIZE ISZERO DUP1 ISZERO PUSH2 0x63A JUMPI PUSH1 0x0 DUP1 REVERT JUMPDEST POP GAS CALL ISZERO DUP1 ISZERO PUSH2 0x64E JUMPI RETURNDATASIZE PUSH1 0x0 DUP1 RETURNDATACOPY RETURNDATASIZE PUSH1 0x0 REVERT JUMPDEST POP POP POP POP PUSH1 0x40 MLOAD RETURNDATASIZE PUSH1 0x1F NOT PUSH1 0x1F DUP3 ADD AND DUP3 ADD DUP1 PUSH1 0x40 MSTORE POP DUP2 ADD SWAP1 PUSH2 0x672 SWAP2 SWAP1 PUSH2 0x2CD9 JUMP JUMPDEST SWAP1 POP DUP1 PUSH2 0x6C1 JUMPI PUSH1 0x40 MLOAD PUSH3 0x461BCD PUSH1 0xE5 SHL DUP2 MSTORE PUSH1 0x20 PUSH1 0x4 DUP3 ADD MSTORE PUSH1 0x19 PUSH1 0x24 DUP3 ADD MSTORE PUSH32 0x7472616E7366657220746F2063616C6C6572206661696C656400000000000000 PUSH1 0x44 DUP3 ADD MSTORE PUSH1 0x64 ADD PUSH2 0x2F5 JUMP JUMPDEST PUSH1 0x40 DUP1 MLOAD PUSH1 0x1 PUSH1 0x1 PUSH1 0xA0 SHL SUB DUP7 AND DUP2 MSTORE PUSH1 0x20 DUP2 ADD DUP5 SWAP1 MSTORE PUSH32 0x884EDAD9CE6FA2440D8A54CC123490EB96D2768479D49FF9C7366125A9424364 SWAP2 ADD PUSH1 0x40 MLOAD DUP1 SWAP2 SUB SWAP1 LOG1 PUSH1 0x1 SWAP3 POP POP POP JUMPDEST PUSH1 0x1 PUSH1 0x0 SSTORE SWAP2 SWAP1 POP JUMP JUMPDEST PUSH1 0x0 DUP2 DUP2 MSTORE PUSH1 0x9 PUSH1 0x20 SWAP1 DUP2 MSTORE PUSH1 0x40 DUP1 DUP4 KECCAK256 DUP1 SLOAD DUP3 MLOAD DUP2 DUP6 MUL DUP2 ADD DUP6 ADD SWAP1 SWAP4 MSTORE DUP1 DUP4 MSTORE SWAP2 SWAP3 SWAP1 SWAP2 SWAP1 DUP4 ADD DUP3 DUP3 DUP1 ISZERO PUSH2 0x76A JUMPI PUSH1 0x20 MUL DUP3 ADD SWAP2 SWAP1 PUSH1 0x0 MSTORE PUSH1 0x20 PUSH1 0x0 KECCAK256 SWAP1 JUMPDEST DUP2 SLOAD DUP2 MSTORE PUSH1 0x20 ADD SWAP1 PUSH1 0x1 ADD SWAP1 DUP1 DUP4 GT PUSH2 0x756 JUMPI JUMPDEST POP POP DUP4 MLOAD SWAP4 SWAP5 POP PUSH1 0x0 SWAP3 POP POP POP JUMPDEST DUP2 DUP2 LT ISZERO PUSH2 0x7C3 JUMPI PUSH2 0x7B0 DUP4 DUP3 DUP2 MLOAD DUP2 LT PUSH2 0x7A3 JUMPI PUSH4 0x4E487B71 PUSH1 0xE0 SHL PUSH1 0x0 MSTORE PUSH1 0x32 PUSH1 0x4 MSTORE PUSH1 0x24 PUSH1 0x0 REVERT JUMPDEST PUSH1 0x20 MUL PUSH1 0x20 ADD ADD MLOAD PUSH2 0x1ECB JUMP JUMPDEST POP DUP1 PUSH2 0x7BB DUP2 PUSH2 0x2E06 JUMP JUMPDEST SWAP2 POP POP PUSH2 0x778 JUMP JUMPDEST POP CALLER PUSH1 0x0 SWAP1 DUP2 MSTORE PUSH1 0x5 PUSH1 0x20 MSTORE PUSH1 0x40 SWAP1 KECCAK256 SLOAD ISZERO PUSH2 0x7E4 JUMPI PUSH2 0x7E2 CALLER PUSH2 0x447 JUMP JUMPDEST POP JUMPDEST POP POP POP JUMP JUMPDEST PUSH1 0x0 DUP2 DUP2 MSTORE PUSH1 0x6 PUSH1 0x20 SWAP1 DUP2 MSTORE PUSH1 0x40 SWAP2 DUP3 SWAP1 KECCAK256 DUP3 MLOAD PUSH1 0xC0 DUP2 ADD DUP5 MSTORE DUP2 SLOAD PUSH1 0x1 PUSH1 0x1 PUSH1 0xA0 SHL SUB SWAP1 DUP2 AND DUP1 DUP4 MSTORE PUSH1 0x1 DUP5 ADD SLOAD SWAP1 SWAP2 AND SWAP4 DUP3 ADD SWAP4 SWAP1 SWAP4 MSTORE PUSH1 0x2 DUP3 ADD SLOAD SWAP4 DUP2 ADD SWAP4 SWAP1 SWAP4 MSTORE PUSH1 0x3 DUP2 ADD SLOAD PUSH1 0x60 DUP5 ADD MSTORE PUSH1 0x4 DUP2 ADD SLOAD PUSH1 0x80 DUP5 ADD MSTORE PUSH1 0x5 ADD SLOAD PUSH1 0xA0 DUP4 ADD MSTORE CALLER EQ PUSH2 0x88F JUMPI PUSH1 0x40 MLOAD PUSH3 0x461BCD PUSH1 0xE5 SHL DUP2 MSTORE PUSH1 0x20 PUSH1 0x4 DUP3 ADD MSTORE PUSH1 0x13 PUSH1 0x24 DUP3 ADD MSTORE PUSH19 0x3AB730BABA3437B934BD32B21031B0B63632B9 PUSH1 0x69 SHL PUSH1 0x44 DUP3 ADD MSTORE PUSH1 0x64 ADD PUSH2 0x2F5 JUMP JUMPDEST PUSH1 0x0 DUP2 PUSH1 0x60 ADD MLOAD DUP3 PUSH1 0x40 ADD MLOAD PUSH2 0x8A5 SWAP2 SWAP1 PUSH2 0x2DEF JUMP JUMPDEST DUP3 MLOAD PUSH1 0x1 PUSH1 0x1 PUSH1 0xA0 SHL SUB AND PUSH1 0x0 SWAP1 DUP2 MSTORE PUSH1 0x5 PUSH1 0x20 MSTORE PUSH1 0x40 DUP2 KECCAK256 DUP1 SLOAD SWAP3 SWAP4 POP DUP4 SWAP3 SWAP1 SWAP2 SWAP1 PUSH2 0x8D3 SWAP1 DUP5 SWAP1 PUSH2 0x2D98 JUMP JUMPDEST SWAP1 SWAP2 SSTORE POP POP PUSH1 0x40 DUP1 DUP4 ADD MLOAD PUSH1 0x0 DUP6 DUP2 MSTORE PUSH1 0x6 PUSH1 0x20 SWAP1 DUP2 MSTORE DUP4 DUP3 KECCAK256 PUSH1 0x3 ADD SWAP3 SWAP1 SWAP3 SSTORE CALLER DUP2 MSTORE PUSH1 0x5 SWAP1 SWAP2 MSTORE KECCAK256 SLOAD ISZERO PUSH2 0x7E4 JUMPI PUSH2 0x7E2 CALLER PUSH2 0x447 JUMP JUMPDEST PUSH1 0xA SLOAD PUSH1 0x40 MLOAD PUSH4 0x1E558333 PUSH1 0xE3 SHL DUP2 MSTORE PUSH32 0x0 PUSH1 0x4 DUP3 ADD MSTORE PUSH1 0x0 SWAP2 PUSH1 0x1 PUSH1 0x1 PUSH1 0xA0 SHL SUB AND SWAP1 PUSH4 0xF2AC1998 SWAP1 PUSH1 0x24 ADD PUSH1 0x20 PUSH1 0x40 MLOAD DUP1 DUP4 SUB DUP2 DUP7 DUP1 EXTCODESIZE ISZERO DUP1 ISZERO PUSH2 0x970 JUMPI PUSH1 0x0 DUP1 REVERT JUMPDEST POP GAS STATICCALL ISZERO DUP1 ISZERO PUSH2 0x984 JUMPI RETURNDATASIZE PUSH1 0x0 DUP1 RETURNDATACOPY RETURNDATASIZE PUSH1 0x0 REVERT JUMPDEST POP POP POP POP PUSH1 0x40 MLOAD RETURNDATASIZE PUSH1 0x1F NOT PUSH1 0x1F DUP3 ADD AND DUP3 ADD DUP1 PUSH1 0x40 MSTORE POP DUP2 ADD SWAP1 PUSH2 0x9A8 SWAP2 SWAP1 PUSH2 0x2C68 JUMP JUMPDEST PUSH1 0x1 PUSH1 0x1 PUSH1 0xA0 SHL SUB AND CALLER PUSH1 0x1 PUSH1 0x1 PUSH1 0xA0 SHL SUB AND EQ DUP1 PUSH2 0x9D1 JUMPI POP PUSH1 0x1 SLOAD PUSH1 0x1 PUSH1 0x1 PUSH1 0xA0 SHL SUB AND CALLER EQ JUMPDEST PUSH2 0x9ED JUMPI PUSH1 0x40 MLOAD PUSH3 0x461BCD PUSH1 0xE5 SHL DUP2 MSTORE PUSH1 0x4 ADD PUSH2 0x2F5 SWAP1 PUSH2 0x2D69 JUMP JUMPDEST PUSH2 0x9F6 DUP3 PUSH2 0x146F JUMP JUMPDEST ISZERO PUSH2 0xA5A JUMPI PUSH1 0x3 SLOAD PUSH1 0x0 JUMPDEST DUP2 DUP2 LT ISZERO PUSH2 0xA50 JUMPI PUSH2 0xA3D PUSH1 0x3 DUP3 DUP2 SLOAD DUP2 LT PUSH2 0xA2D JUMPI PUSH4 0x4E487B71 PUSH1 0xE0 SHL PUSH1 0x0 MSTORE PUSH1 0x32 PUSH1 0x4 MSTORE PUSH1 0x24 PUSH1 0x0 REVERT JUMPDEST SWAP1 PUSH1 0x0 MSTORE PUSH1 0x20 PUSH1 0x0 KECCAK256 ADD SLOAD PUSH2 0x1ECB JUMP JUMPDEST POP DUP1 PUSH2 0xA48 DUP2 PUSH2 0x2E06 JUMP JUMPDEST SWAP2 POP POP PUSH2 0xA01 JUMP JUMPDEST POP PUSH1 0x1 SWAP4 SWAP3 POP POP POP JUMP JUMPDEST POP PUSH1 0x0 SWAP2 SWAP1 POP JUMP JUMPDEST PUSH1 0xA SLOAD PUSH1 0x40 MLOAD PUSH4 0x1E558333 PUSH1 0xE3 SHL DUP2 MSTORE PUSH32 0x0 PUSH1 0x4 DUP3 ADD MSTORE PUSH1 0x0 SWAP2 PUSH1 0x1 PUSH1 0x1 PUSH1 0xA0 SHL SUB AND SWAP1 PUSH4 0xF2AC1998 SWAP1 PUSH1 0x24 ADD PUSH1 0x20 PUSH1 0x40 MLOAD DUP1 DUP4 SUB DUP2 DUP7 DUP1 EXTCODESIZE ISZERO DUP1 ISZERO PUSH2 0xAC6 JUMPI PUSH1 0x0 DUP1 REVERT JUMPDEST POP GAS STATICCALL ISZERO DUP1 ISZERO PUSH2 0xADA JUMPI RETURNDATASIZE PUSH1 0x0 DUP1 RETURNDATACOPY RETURNDATASIZE PUSH1 0x0 REVERT JUMPDEST POP POP POP POP PUSH1 0x40 MLOAD RETURNDATASIZE PUSH1 0x1F NOT PUSH1 0x1F DUP3 ADD AND DUP3 ADD DUP1 PUSH1 0x40 MSTORE POP DUP2 ADD SWAP1 PUSH2 0xAFE SWAP2 SWAP1 PUSH2 0x2C68 JUMP JUMPDEST PUSH1 0x1 PUSH1 0x1 PUSH1 0xA0 SHL SUB AND CALLER PUSH1 0x1 PUSH1 0x1 PUSH1 0xA0 SHL SUB AND EQ DUP1 PUSH2 0xB27 JUMPI POP PUSH1 0x1 SLOAD PUSH1 0x1 PUSH1 0x1 PUSH1 0xA0 SHL SUB AND CALLER EQ JUMPDEST PUSH2 0xB43 JUMPI PUSH1 0x40 MLOAD PUSH3 0x461BCD PUSH1 0xE5 SHL DUP2 MSTORE PUSH1 0x4 ADD PUSH2 0x2F5 SWAP1 PUSH2 0x2D69 JUMP JUMPDEST PUSH1 0x2 SLOAD ISZERO DUP1 PUSH2 0xB54 JUMPI POP PUSH1 0x2 SLOAD PUSH1 0x4 EQ JUMPDEST ISZERO PUSH2 0xBBB JUMPI PUSH1 0x3 SLOAD PUSH1 0x0 JUMPDEST DUP2 DUP2 LT ISZERO PUSH2 0xBAE JUMPI PUSH2 0xB9B PUSH1 0x3 DUP3 DUP2 SLOAD DUP2 LT PUSH2 0xB8B JUMPI PUSH4 0x4E487B71 PUSH1 0xE0 SHL PUSH1 0x0 MSTORE PUSH1 0x32 PUSH1 0x4 MSTORE PUSH1 0x24 PUSH1 0x0 REVERT JUMPDEST SWAP1 PUSH1 0x0 MSTORE PUSH1 0x20 PUSH1 0x0 KECCAK256 ADD SLOAD PUSH2 0x26BD JUMP JUMPDEST POP DUP1 PUSH2 0xBA6 DUP2 PUSH2 0x2E06 JUMP JUMPDEST SWAP2 POP POP PUSH2 0xB5F JUMP JUMPDEST POP POP PUSH1 0x3 PUSH1 0x2 SSTORE POP PUSH1 0x1 SWAP1 JUMP JUMPDEST POP PUSH1 0x0 SWAP1 JUMP JUMPDEST PUSH1 0xA SLOAD PUSH1 0x40 MLOAD PUSH4 0x332DACCF PUSH1 0xE0 SHL DUP2 MSTORE CALLER PUSH1 0x4 DUP3 ADD MSTORE PUSH1 0x0 SWAP2 PUSH1 0x1 PUSH1 0x1 PUSH1 0xA0 SHL SUB AND SWAP1 PUSH4 0x332DACCF SWAP1 PUSH1 0x24 ADD PUSH1 0x20 PUSH1 0x40 MLOAD DUP1 DUP4 SUB DUP2 DUP7 DUP1 EXTCODESIZE ISZERO DUP1 ISZERO PUSH2 0xC05 JUMPI PUSH1 0x0 DUP1 REVERT JUMPDEST POP GAS STATICCALL ISZERO DUP1 ISZERO PUSH2 0xC19 JUMPI RETURNDATASIZE PUSH1 0x0 DUP1 RETURNDATACOPY RETURNDATASIZE PUSH1 0x0 REVERT JUMPDEST POP POP POP POP PUSH1 0x40 MLOAD RETURNDATASIZE PUSH1 0x1F NOT PUSH1 0x1F DUP3 ADD AND DUP3 ADD DUP1 PUSH1 0x40 MSTORE POP DUP2 ADD SWAP1 PUSH2 0xC3D SWAP2 SWAP1 PUSH2 0x2CD9 JUMP JUMPDEST ISZERO PUSH2 0xC76 JUMPI PUSH1 0x40 MLOAD PUSH3 0x461BCD PUSH1 0xE5 SHL DUP2 MSTORE PUSH1 0x20 PUSH1 0x4 DUP3 ADD MSTORE PUSH1 0x9 PUSH1 0x24 DUP3 ADD MSTORE PUSH9 0x189B1858DADB1A5CDD PUSH1 0xBA SHL PUSH1 0x44 DUP3 ADD MSTORE PUSH1 0x64 ADD PUSH2 0x2F5 JUMP JUMPDEST PUSH1 0x2 SLOAD ISZERO PUSH2 0xCBA JUMPI PUSH1 0x40 MLOAD PUSH3 0x461BCD PUSH1 0xE5 SHL DUP2 MSTORE PUSH1 0x20 PUSH1 0x4 DUP3 ADD MSTORE PUSH1 0x11 PUSH1 0x24 DUP3 ADD MSTORE PUSH17 0x6D61726B6574206E6F7420616374697665 PUSH1 0x78 SHL PUSH1 0x44 DUP3 ADD MSTORE PUSH1 0x64 ADD PUSH2 0x2F5 JUMP JUMPDEST DUP3 PUSH1 0x1 EQ DUP1 PUSH2 0xCC9 JUMPI POP DUP3 PUSH1 0x2 EQ JUMPDEST PUSH2 0xD04 JUMPI PUSH1 0x40 MLOAD PUSH3 0x461BCD PUSH1 0xE5 SHL DUP2 MSTORE PUSH1 0x20 PUSH1 0x4 DUP3 ADD MSTORE PUSH1 0xC PUSH1 0x24 DUP3 ADD MSTORE PUSH12 0x696E76616C69642073696465 PUSH1 0xA0 SHL PUSH1 0x44 DUP3 ADD MSTORE PUSH1 0x64 ADD PUSH2 0x2F5 JUMP JUMPDEST PUSH1 0x40 MLOAD PUSH4 0x70A08231 PUSH1 0xE0 SHL DUP2 MSTORE CALLER PUSH1 0x4 DUP3 ADD MSTORE DUP6 SWAP1 PUSH32 0x0 PUSH1 0x1 PUSH1 0x1 PUSH1 0xA0 SHL SUB AND SWAP1 PUSH4 0x70A08231 SWAP1 PUSH1 0x24 ADD PUSH1 0x20 PUSH1 0x40 MLOAD DUP1 DUP4 SUB DUP2 DUP7 DUP1 EXTCODESIZE ISZERO DUP1 ISZERO PUSH2 0xD65 JUMPI PUSH1 0x0 DUP1 REVERT JUMPDEST POP GAS STATICCALL ISZERO DUP1 ISZERO PUSH2 0xD79 JUMPI RETURNDATASIZE PUSH1 0x0 DUP1 RETURNDATACOPY RETURNDATASIZE PUSH1 0x0 REVERT JUMPDEST POP POP POP POP PUSH1 0x40 MLOAD RETURNDATASIZE PUSH1 0x1F NOT PUSH1 0x1F DUP3 ADD AND DUP3 ADD DUP1 PUSH1 0x40 MSTORE POP DUP2 ADD SWAP1 PUSH2 0xD9D SWAP2 SWAP1 PUSH2 0x2D0D JUMP JUMPDEST LT ISZERO PUSH2 0xDEB JUMPI PUSH1 0x40 MLOAD PUSH3 0x461BCD PUSH1 0xE5 SHL DUP2 MSTORE PUSH1 0x20 PUSH1 0x4 DUP3 ADD MSTORE PUSH1 0x19 PUSH1 0x24 DUP3 ADD MSTORE PUSH32 0x6E6F7420656E6F75676820746F6B656E2062616C616C6E636500000000000000 PUSH1 0x44 DUP3 ADD MSTORE PUSH1 0x64 ADD PUSH2 0x2F5 JUMP JUMPDEST PUSH1 0x40 MLOAD PUSH4 0x6EB1769F PUSH1 0xE1 SHL DUP2 MSTORE CALLER PUSH1 0x4 DUP3 ADD MSTORE ADDRESS PUSH1 0x24 DUP3 ADD MSTORE DUP6 SWAP1 PUSH32 0x0 PUSH1 0x1 PUSH1 0x1 PUSH1 0xA0 SHL SUB AND SWAP1 PUSH4 0xDD62ED3E SWAP1 PUSH1 0x44 ADD PUSH1 0x20 PUSH1 0x40 MLOAD DUP1 DUP4 SUB DUP2 DUP7 DUP1 EXTCODESIZE ISZERO DUP1 ISZERO PUSH2 0xE52 JUMPI PUSH1 0x0 DUP1 REVERT JUMPDEST POP GAS STATICCALL ISZERO DUP1 ISZERO PUSH2 0xE66 JUMPI RETURNDATASIZE PUSH1 0x0 DUP1 RETURNDATACOPY RETURNDATASIZE PUSH1 0x0 REVERT JUMPDEST POP POP POP POP PUSH1 0x40 MLOAD RETURNDATASIZE PUSH1 0x1F NOT PUSH1 0x1F DUP3 ADD AND DUP3 ADD DUP1 PUSH1 0x40 MSTORE POP DUP2 ADD SWAP1 PUSH2 0xE8A SWAP2 SWAP1 PUSH2 0x2D0D JUMP JUMPDEST LT ISZERO PUSH2 0xECF JUMPI PUSH1 0x40 MLOAD PUSH3 0x461BCD PUSH1 0xE5 SHL DUP2 MSTORE PUSH1 0x20 PUSH1 0x4 DUP3 ADD MSTORE PUSH1 0x14 PUSH1 0x24 DUP3 ADD MSTORE PUSH20 0x6E6F7420656E6F75676820616C6C6F77616E6365 PUSH1 0x60 SHL PUSH1 0x44 DUP3 ADD MSTORE PUSH1 0x64 ADD PUSH2 0x2F5 JUMP JUMPDEST PUSH1 0xA PUSH1 0x0 SWAP1 SLOAD SWAP1 PUSH2 0x100 EXP SWAP1 DIV PUSH1 0x1 PUSH1 0x1 PUSH1 0xA0 SHL SUB AND PUSH1 0x1 PUSH1 0x1 PUSH1 0xA0 SHL SUB AND PUSH4 0x375B3C0A PUSH1 0x40 MLOAD DUP2 PUSH4 0xFFFFFFFF AND PUSH1 0xE0 SHL DUP2 MSTORE PUSH1 0x4 ADD PUSH1 0x20 PUSH1 0x40 MLOAD DUP1 DUP4 SUB DUP2 DUP7 DUP1 EXTCODESIZE ISZERO DUP1 ISZERO PUSH2 0xF1D JUMPI PUSH1 0x0 DUP1 REVERT JUMPDEST POP GAS STATICCALL ISZERO DUP1 ISZERO PUSH2 0xF31 JUMPI RETURNDATASIZE PUSH1 0x0 DUP1 RETURNDATACOPY RETURNDATASIZE PUSH1 0x0 REVERT JUMPDEST POP POP POP POP PUSH1 0x40 MLOAD RETURNDATASIZE PUSH1 0x1F NOT PUSH1 0x1F DUP3 ADD AND DUP3 ADD DUP1 PUSH1 0x40 MSTORE POP DUP2 ADD SWAP1 PUSH2 0xF55 SWAP2 SWAP1 PUSH2 0x2D0D JUMP JUMPDEST DUP6 LT ISZERO PUSH2 0xF9A JUMPI PUSH1 0x40 MLOAD PUSH3 0x461BCD PUSH1 0xE5 SHL DUP2 MSTORE PUSH1 0x20 PUSH1 0x4 DUP3 ADD MSTORE PUSH1 0x13 PUSH1 0x24 DUP3 ADD MSTORE PUSH19 0x6C657373207468616E206D696E207374616B65 PUSH1 0x68 SHL PUSH1 0x44 DUP3 ADD MSTORE PUSH1 0x64 ADD PUSH2 0x2F5 JUMP JUMPDEST PUSH1 0x40 MLOAD PUSH4 0x23B872DD PUSH1 0xE0 SHL DUP2 MSTORE CALLER PUSH1 0x4 DUP3 ADD MSTORE ADDRESS PUSH1 0x24 DUP3 ADD MSTORE PUSH1 0x44 DUP2 ADD DUP7 SWAP1 MSTORE PUSH32 0x0 PUSH1 0x1 PUSH1 0x1 PUSH1 0xA0 SHL SUB AND SWAP1 PUSH4 0x23B872DD SWAP1 PUSH1 0x64 ADD PUSH1 0x20 PUSH1 0x40 MLOAD DUP1 DUP4 SUB DUP2 PUSH1 0x0 DUP8 DUP1 EXTCODESIZE ISZERO DUP1 ISZERO PUSH2 0x1008 JUMPI PUSH1 0x0 DUP1 REVERT JUMPDEST POP GAS CALL ISZERO DUP1 ISZERO PUSH2 0x101C JUMPI RETURNDATASIZE PUSH1 0x0 DUP1 RETURNDATACOPY RETURNDATASIZE PUSH1 0x0 REVERT JUMPDEST POP POP POP POP PUSH1 0x40 MLOAD RETURNDATASIZE PUSH1 0x1F NOT PUSH1 0x1F DUP3 ADD AND DUP3 ADD DUP1 PUSH1 0x40 MSTORE POP DUP2 ADD SWAP1 PUSH2 0x1040 SWAP2 SWAP1 PUSH2 0x2CD9 JUMP JUMPDEST PUSH2 0x108C JUMPI PUSH1 0x40 MLOAD PUSH3 0x461BCD PUSH1 0xE5 SHL DUP2 MSTORE PUSH1 0x20 PUSH1 0x4 DUP3 ADD MSTORE PUSH1 0x1B PUSH1 0x24 DUP3 ADD MSTORE PUSH32 0x7472616E736665722066726F6D2063616C6C6572206661696C65640000000000 PUSH1 0x44 DUP3 ADD MSTORE PUSH1 0x64 ADD PUSH2 0x2F5 JUMP JUMPDEST PUSH1 0x0 PUSH2 0x10BB CALLER DUP9 DUP9 DUP5 PUSH2 0x10A0 PUSH1 0x64 DUP12 PUSH2 0x2DEF JUMP JUMPDEST PUSH2 0x10AB DUP12 PUSH1 0x64 PUSH2 0x2DD0 JUMP JUMPDEST PUSH2 0x10B5 SWAP2 SWAP1 PUSH2 0x2DB0 JUMP JUMPDEST DUP10 PUSH2 0x279F JUMP JUMPDEST PUSH1 0x4 SLOAD SWAP1 SWAP2 POP ISZERO PUSH2 0x131D JUMPI PUSH1 0x4 SLOAD DUP7 SWAP1 JUMPDEST PUSH1 0xA PUSH1 0x0 SWAP1 SLOAD SWAP1 PUSH2 0x100 EXP SWAP1 DIV PUSH1 0x1 PUSH1 0x1 PUSH1 0xA0 SHL SUB AND PUSH1 0x1 PUSH1 0x1 PUSH1 0xA0 SHL SUB AND PUSH4 0x375B3C0A PUSH1 0x40 MLOAD DUP2 PUSH4 0xFFFFFFFF AND PUSH1 0xE0 SHL DUP2 MSTORE PUSH1 0x4 ADD PUSH1 0x20 PUSH1 0x40 MLOAD DUP1 DUP4 SUB DUP2 DUP7 DUP1 EXTCODESIZE ISZERO DUP1 ISZERO PUSH2 0x111A JUMPI PUSH1 0x0 DUP1 REVERT JUMPDEST POP GAS STATICCALL ISZERO DUP1 ISZERO PUSH2 0x112E JUMPI RETURNDATASIZE PUSH1 0x0 DUP1 RETURNDATACOPY RETURNDATASIZE PUSH1 0x0 REVERT JUMPDEST POP POP POP POP PUSH1 0x40 MLOAD RETURNDATASIZE PUSH1 0x1F NOT PUSH1 0x1F DUP3 ADD AND DUP3 ADD DUP1 PUSH1 0x40 MSTORE POP DUP2 ADD SWAP1 PUSH2 0x1152 SWAP2 SWAP1 PUSH2 0x2D0D JUMP JUMPDEST DUP3 LT PUSH2 0x131A JUMPI PUSH1 0x0 DUP1 PUSH1 0x0 JUMPDEST DUP4 DUP2 LT ISZERO PUSH2 0x1202 JUMPI PUSH1 0x0 PUSH1 0x4 DUP3 DUP2 SLOAD DUP2 LT PUSH2 0x1189 JUMPI PUSH4 0x4E487B71 PUSH1 0xE0 SHL PUSH1 0x0 MSTORE PUSH1 0x32 PUSH1 0x4 MSTORE PUSH1 0x24 PUSH1 0x0 REVERT JUMPDEST SWAP1 PUSH1 0x0 MSTORE PUSH1 0x20 PUSH1 0x0 KECCAK256 ADD SLOAD SWAP1 POP PUSH1 0x6 PUSH1 0x0 DUP3 DUP2 MSTORE PUSH1 0x20 ADD SWAP1 DUP2 MSTORE PUSH1 0x20 ADD PUSH1 0x0 KECCAK256 PUSH1 0x5 ADD SLOAD DUP11 EQ ISZERO PUSH2 0x11BA JUMPI POP PUSH2 0x11F0 JUMP JUMPDEST PUSH1 0x0 DUP2 DUP2 MSTORE PUSH1 0x6 PUSH1 0x20 MSTORE PUSH1 0x40 SWAP1 KECCAK256 PUSH1 0x4 ADD SLOAD DUP4 LT ISZERO PUSH2 0x11EE JUMPI PUSH1 0x0 DUP2 DUP2 MSTORE PUSH1 0x6 PUSH1 0x20 MSTORE PUSH1 0x40 SWAP1 KECCAK256 PUSH1 0x4 ADD SLOAD SWAP2 SWAP4 POP SWAP1 SWAP2 POP DUP3 SWAP1 JUMPDEST POP JUMPDEST DUP1 PUSH2 0x11FA DUP2 PUSH2 0x2E06 JUMP JUMPDEST SWAP2 POP POP PUSH2 0x115E JUMP JUMPDEST POP PUSH1 0x0 DUP10 DUP3 LT ISZERO DUP1 PUSH2 0x121C JUMPI POP PUSH1 0x0 DUP3 GT DUP1 ISZERO PUSH2 0x121C JUMPI POP DUP8 JUMPDEST ISZERO PUSH2 0x12FE JUMPI PUSH1 0x0 PUSH1 0x4 DUP5 DUP2 SLOAD DUP2 LT PUSH2 0x1244 JUMPI PUSH4 0x4E487B71 PUSH1 0xE0 SHL PUSH1 0x0 MSTORE PUSH1 0x32 PUSH1 0x4 MSTORE PUSH1 0x24 PUSH1 0x0 REVERT JUMPDEST PUSH1 0x0 SWAP2 DUP3 MSTORE PUSH1 0x20 DUP1 DUP4 KECCAK256 SWAP1 SWAP2 ADD SLOAD DUP1 DUP4 MSTORE PUSH1 0x6 DUP3 MSTORE PUSH1 0x40 DUP1 DUP5 KECCAK256 DUP2 MLOAD PUSH1 0xC0 DUP2 ADD DUP4 MSTORE DUP2 SLOAD PUSH1 0x1 PUSH1 0x1 PUSH1 0xA0 SHL SUB SWAP1 DUP2 AND DUP3 MSTORE PUSH1 0x1 DUP4 ADD SLOAD AND SWAP5 DUP2 ADD SWAP5 SWAP1 SWAP5 MSTORE PUSH1 0x2 DUP2 ADD SLOAD SWAP2 DUP5 ADD SWAP2 SWAP1 SWAP2 MSTORE PUSH1 0x3 DUP2 ADD SLOAD PUSH1 0x60 DUP5 ADD MSTORE PUSH1 0x4 DUP2 ADD SLOAD PUSH1 0x80 DUP5 ADD MSTORE PUSH1 0x5 ADD SLOAD PUSH1 0xA0 DUP4 ADD MSTORE SWAP3 POP SWAP1 PUSH2 0x12B9 PUSH1 0x64 DUP15 PUSH2 0x2DEF JUMP JUMPDEST DUP3 PUSH1 0x60 ADD MLOAD DUP4 PUSH1 0x40 ADD MLOAD PUSH2 0x12CD SWAP2 SWAP1 PUSH2 0x2DEF JUMP JUMPDEST PUSH2 0x12D7 SWAP2 SWAP1 PUSH2 0x2DB0 JUMP JUMPDEST SWAP1 POP PUSH2 0x12E4 PUSH1 0x64 DUP3 PUSH2 0x2DD0 JUMP JUMPDEST SWAP1 POP PUSH2 0x12F4 DUP15 DUP3 DUP16 DUP16 DUP14 DUP9 PUSH2 0x29C4 JUMP JUMPDEST SWAP4 POP POP POP POP PUSH2 0x1306 JUMP JUMPDEST POP POP POP PUSH2 0x131A JUMP JUMPDEST PUSH2 0x1310 DUP2 DUP7 PUSH2 0x2DEF JUMP JUMPDEST SWAP5 POP POP POP POP PUSH2 0x10CC JUMP JUMPDEST POP POP JUMPDEST PUSH1 0x40 DUP1 MLOAD CALLER DUP2 MSTORE ADDRESS PUSH1 0x20 DUP3 ADD MSTORE SWAP1 DUP2 ADD DUP3 SWAP1 MSTORE PUSH1 0x60 DUP2 ADD DUP8 SWAP1 MSTORE PUSH1 0x80 DUP2 ADD DUP7 SWAP1 MSTORE PUSH1 0xA0 DUP2 ADD DUP6 SWAP1 MSTORE PUSH32 0x618F358BB45538682ADE624A4A1959053D9DABD20FE300508034B879681B37BE SWAP1 PUSH1 0xC0 ADD PUSH1 0x40 MLOAD DUP1 SWAP2 SUB SWAP1 LOG1 SWAP7 SWAP6 POP POP POP POP POP POP JUMP JUMPDEST PUSH1 0xA SLOAD PUSH1 0x40 MLOAD PUSH4 0x1E558333 PUSH1 0xE3 SHL DUP2 MSTORE PUSH32 0x0 PUSH1 0x4 DUP3 ADD MSTORE PUSH1 0x0 SWAP2 PUSH1 0x1 PUSH1 0x1 PUSH1 0xA0 SHL SUB AND SWAP1 PUSH4 0xF2AC1998 SWAP1 PUSH1 0x24 ADD PUSH1 0x20 PUSH1 0x40 MLOAD DUP1 DUP4 SUB DUP2 DUP7 DUP1 EXTCODESIZE ISZERO DUP1 ISZERO PUSH2 0x13E0 JUMPI PUSH1 0x0 DUP1 REVERT JUMPDEST POP GAS STATICCALL ISZERO DUP1 ISZERO PUSH2 0x13F4 JUMPI RETURNDATASIZE PUSH1 0x0 DUP1 RETURNDATACOPY RETURNDATASIZE PUSH1 0x0 REVERT JUMPDEST POP POP POP POP PUSH1 0x40 MLOAD RETURNDATASIZE PUSH1 0x1F NOT PUSH1 0x1F DUP3 ADD AND DUP3 ADD DUP1 PUSH1 0x40 MSTORE POP DUP2 ADD SWAP1 PUSH2 0x1418 SWAP2 SWAP1 PUSH2 0x2C68 JUMP JUMPDEST PUSH1 0x1 PUSH1 0x1 PUSH1 0xA0 SHL SUB AND CALLER PUSH1 0x1 PUSH1 0x1 PUSH1 0xA0 SHL SUB AND EQ DUP1 PUSH2 0x1441 JUMPI POP PUSH1 0x1 SLOAD PUSH1 0x1 PUSH1 0x1 PUSH1 0xA0 SHL SUB AND CALLER EQ JUMPDEST PUSH2 0x145D JUMPI PUSH1 0x40 MLOAD PUSH3 0x461BCD PUSH1 0xE5 SHL DUP2 MSTORE PUSH1 0x4 ADD PUSH2 0x2F5 SWAP1 PUSH2 0x2D69 JUMP JUMPDEST PUSH1 0x2 SLOAD PUSH2 0xBBB JUMPI POP PUSH1 0x4 PUSH1 0x2 SSTORE PUSH1 0x1 SWAP1 JUMP JUMPDEST PUSH1 0xA SLOAD PUSH1 0x40 MLOAD PUSH4 0x1E558333 PUSH1 0xE3 SHL DUP2 MSTORE PUSH32 0x0 PUSH1 0x4 DUP3 ADD MSTORE PUSH1 0x0 SWAP2 PUSH1 0x1 PUSH1 0x1 PUSH1 0xA0 SHL SUB AND SWAP1 PUSH4 0xF2AC1998 SWAP1 PUSH1 0x24 ADD PUSH1 0x20 PUSH1 0x40 MLOAD DUP1 DUP4 SUB DUP2 DUP7 DUP1 EXTCODESIZE ISZERO DUP1 ISZERO PUSH2 0x14D3 JUMPI PUSH1 0x0 DUP1 REVERT JUMPDEST POP GAS STATICCALL ISZERO DUP1 ISZERO PUSH2 0x14E7 JUMPI RETURNDATASIZE PUSH1 0x0 DUP1 RETURNDATACOPY RETURNDATASIZE PUSH1 0x0 REVERT JUMPDEST POP POP POP POP PUSH1 0x40 MLOAD RETURNDATASIZE PUSH1 0x1F NOT PUSH1 0x1F DUP3 ADD AND DUP3 ADD DUP1 PUSH1 0x40 MSTORE POP DUP2 ADD SWAP1 PUSH2 0x150B SWAP2 SWAP1 PUSH2 0x2C68 JUMP JUMPDEST PUSH1 0x1 PUSH1 0x1 PUSH1 0xA0 SHL SUB AND CALLER PUSH1 0x1 PUSH1 0x1 PUSH1 0xA0 SHL SUB AND EQ DUP1 PUSH2 0x1534 JUMPI POP PUSH1 0x1 SLOAD PUSH1 0x1 PUSH1 0x1 PUSH1 0xA0 SHL SUB AND CALLER EQ JUMPDEST PUSH2 0x1550 JUMPI PUSH1 0x40 MLOAD PUSH3 0x461BCD PUSH1 0xE5 SHL DUP2 MSTORE PUSH1 0x4 ADD PUSH2 0x2F5 SWAP1 PUSH2 0x2D69 JUMP JUMPDEST PUSH1 0x2 SLOAD ISZERO DUP1 PUSH2 0x1561 JUMPI POP PUSH1 0x2 SLOAD PUSH1 0x4 EQ JUMPDEST DUP1 ISZERO PUSH2 0x1577 JUMPI POP DUP2 PUSH1 0x1 EQ DUP1 PUSH2 0x1577 JUMPI POP DUP2 PUSH1 0x2 EQ JUMPDEST ISZERO PUSH2 0xA5A JUMPI POP PUSH1 0x2 SSTORE PUSH1 0x1 SWAP1 JUMP JUMPDEST PUSH1 0xA SLOAD PUSH1 0x40 MLOAD PUSH4 0x1E558333 PUSH1 0xE3 SHL DUP2 MSTORE PUSH32 0x0 PUSH1 0x4 DUP3 ADD MSTORE PUSH1 0x0 SWAP2 PUSH1 0x1 PUSH1 0x1 PUSH1 0xA0 SHL SUB AND SWAP1 PUSH4 0xF2AC1998 SWAP1 PUSH1 0x24 ADD PUSH1 0x20 PUSH1 0x40 MLOAD DUP1 DUP4 SUB DUP2 DUP7 DUP1 EXTCODESIZE ISZERO DUP1 ISZERO PUSH2 0x15E9 JUMPI PUSH1 0x0 DUP1 REVERT JUMPDEST POP GAS STATICCALL ISZERO DUP1 ISZERO PUSH2 0x15FD JUMPI RETURNDATASIZE PUSH1 0x0 DUP1 RETURNDATACOPY RETURNDATASIZE PUSH1 0x0 REVERT JUMPDEST POP POP POP POP PUSH1 0x40 MLOAD RETURNDATASIZE PUSH1 0x1F NOT PUSH1 0x1F DUP3 ADD AND DUP3 ADD DUP1 PUSH1 0x40 MSTORE POP DUP2 ADD SWAP1 PUSH2 0x1621 SWAP2 SWAP1 PUSH2 0x2C68 JUMP JUMPDEST PUSH1 0x1 PUSH1 0x1 PUSH1 0xA0 SHL SUB AND CALLER PUSH1 0x1 PUSH1 0x1 PUSH1 0xA0 SHL SUB AND EQ DUP1 PUSH2 0x164A JUMPI POP PUSH1 0x1 SLOAD PUSH1 0x1 PUSH1 0x1 PUSH1 0xA0 SHL SUB AND CALLER EQ JUMPDEST PUSH2 0x1666 JUMPI PUSH1 0x40 MLOAD PUSH3 0x461BCD PUSH1 0xE5 SHL DUP2 MSTORE PUSH1 0x4 ADD PUSH2 0x2F5 SWAP1 PUSH2 0x2D69 JUMP JUMPDEST PUSH1 0x2 SLOAD ISZERO DUP1 PUSH2 0x1677 JUMPI POP PUSH1 0x2 SLOAD PUSH1 0x4 EQ JUMPDEST ISZERO PUSH2 0xBBB JUMPI POP PUSH1 0x3 PUSH1 0x2 SSTORE PUSH1 0x1 SWAP1 JUMP JUMPDEST PUSH1 0x0 DUP2 DUP2 MSTORE PUSH1 0x6 PUSH1 0x20 SWAP1 DUP2 MSTORE PUSH1 0x40 DUP1 DUP4 KECCAK256 DUP2 MLOAD PUSH1 0xC0 DUP2 ADD DUP4 MSTORE DUP2 SLOAD PUSH1 0x1 PUSH1 0x1 PUSH1 0xA0 SHL SUB SWAP1 DUP2 AND DUP3 MSTORE PUSH1 0x1 DUP4 ADD SLOAD AND DUP2 DUP6 ADD MSTORE PUSH1 0x2 DUP3 ADD SLOAD DUP2 DUP5 ADD MSTORE PUSH1 0x3 DUP3 ADD SLOAD PUSH1 0x60 DUP3 ADD MSTORE PUSH1 0x4 DUP3 ADD SLOAD PUSH1 0x80 DUP3 ADD MSTORE PUSH1 0x5 SWAP1 SWAP2 ADD SLOAD PUSH1 0xA0 DUP3 ADD MSTORE DUP5 DUP5 MSTORE PUSH1 0x9 DUP4 MSTORE DUP2 DUP5 KECCAK256 DUP1 SLOAD DUP4 MLOAD DUP2 DUP7 MUL DUP2 ADD DUP7 ADD SWAP1 SWAP5 MSTORE DUP1 DUP5 MSTORE SWAP2 SWAP4 DUP6 SWAP4 SWAP3 SWAP1 DUP4 ADD DUP3 DUP3 DUP1 ISZERO PUSH2 0x1731 JUMPI PUSH1 0x20 MUL DUP3 ADD SWAP2 SWAP1 PUSH1 0x0 MSTORE PUSH1 0x20 PUSH1 0x0 KECCAK256 SWAP1 JUMPDEST DUP2 SLOAD DUP2 MSTORE PUSH1 0x20 ADD SWAP1 PUSH1 0x1 ADD SWAP1 DUP1 DUP4 GT PUSH2 0x171D JUMPI JUMPDEST POP POP DUP4 MLOAD SWAP4 SWAP5 POP PUSH1 0x0 SWAP3 POP POP POP JUMPDEST DUP2 DUP2 LT ISZERO PUSH2 0x1EBF JUMPI PUSH1 0x8 PUSH1 0x0 DUP5 DUP4 DUP2 MLOAD DUP2 LT PUSH2 0x176B JUMPI PUSH4 0x4E487B71 PUSH1 0xE0 SHL PUSH1 0x0 MSTORE PUSH1 0x32 PUSH1 0x4 MSTORE PUSH1 0x24 PUSH1 0x0 REVERT JUMPDEST PUSH1 0x20 SWAP1 DUP2 MUL SWAP2 SWAP1 SWAP2 ADD DUP2 ADD MLOAD DUP3 MSTORE DUP2 ADD SWAP2 SWAP1 SWAP2 MSTORE PUSH1 0x40 ADD PUSH1 0x0 KECCAK256 PUSH1 0x4 ADD SLOAD PUSH1 0xFF AND ISZERO PUSH2 0x1796 JUMPI PUSH2 0x1EAD JUMP JUMPDEST PUSH1 0x0 DUP1 PUSH1 0x0 DUP1 DUP8 PUSH1 0xA0 ADD MLOAD PUSH1 0x1 EQ ISZERO PUSH2 0x186E JUMPI PUSH1 0x8 PUSH1 0x0 DUP9 DUP8 DUP2 MLOAD DUP2 LT PUSH2 0x17CD JUMPI PUSH4 0x4E487B71 PUSH1 0xE0 SHL PUSH1 0x0 MSTORE PUSH1 0x32 PUSH1 0x4 MSTORE PUSH1 0x24 PUSH1 0x0 REVERT JUMPDEST PUSH1 0x20 MUL PUSH1 0x20 ADD ADD MLOAD DUP2 MSTORE PUSH1 0x20 ADD SWAP1 DUP2 MSTORE PUSH1 0x20 ADD PUSH1 0x0 KECCAK256 PUSH1 0x2 ADD SLOAD SWAP2 POP PUSH1 0x8 PUSH1 0x0 DUP9 DUP8 DUP2 MLOAD DUP2 LT PUSH2 0x180D JUMPI PUSH4 0x4E487B71 PUSH1 0xE0 SHL PUSH1 0x0 MSTORE PUSH1 0x32 PUSH1 0x4 MSTORE PUSH1 0x24 PUSH1 0x0 REVERT JUMPDEST PUSH1 0x20 MUL PUSH1 0x20 ADD ADD MLOAD DUP2 MSTORE PUSH1 0x20 ADD SWAP1 DUP2 MSTORE PUSH1 0x20 ADD PUSH1 0x0 KECCAK256 PUSH1 0x1 ADD SLOAD SWAP4 POP PUSH1 0x8 PUSH1 0x0 DUP9 DUP8 DUP2 MLOAD DUP2 LT PUSH2 0x184D JUMPI PUSH4 0x4E487B71 PUSH1 0xE0 SHL PUSH1 0x0 MSTORE PUSH1 0x32 PUSH1 0x4 MSTORE PUSH1 0x24 PUSH1 0x0 REVERT JUMPDEST PUSH1 0x20 MUL PUSH1 0x20 ADD ADD MLOAD DUP2 MSTORE PUSH1 0x20 ADD SWAP1 DUP2 MSTORE PUSH1 0x20 ADD PUSH1 0x0 KECCAK256 PUSH1 0x3 ADD SLOAD SWAP3 POP PUSH2 0x193C JUMP JUMPDEST DUP8 PUSH1 0xA0 ADD MLOAD PUSH1 0x2 EQ ISZERO PUSH2 0x193C JUMPI PUSH1 0x8 PUSH1 0x0 DUP9 DUP8 DUP2 MLOAD DUP2 LT PUSH2 0x189F JUMPI PUSH4 0x4E487B71 PUSH1 0xE0 SHL PUSH1 0x0 MSTORE PUSH1 0x32 PUSH1 0x4 MSTORE PUSH1 0x24 PUSH1 0x0 REVERT JUMPDEST PUSH1 0x20 MUL PUSH1 0x20 ADD ADD MLOAD DUP2 MSTORE PUSH1 0x20 ADD SWAP1 DUP2 MSTORE PUSH1 0x20 ADD PUSH1 0x0 KECCAK256 PUSH1 0x3 ADD SLOAD SWAP2 POP PUSH1 0x8 PUSH1 0x0 DUP9 DUP8 DUP2 MLOAD DUP2 LT PUSH2 0x18DF JUMPI PUSH4 0x4E487B71 PUSH1 0xE0 SHL PUSH1 0x0 MSTORE PUSH1 0x32 PUSH1 0x4 MSTORE PUSH1 0x24 PUSH1 0x0 REVERT JUMPDEST PUSH1 0x20 MUL PUSH1 0x20 ADD ADD MLOAD DUP2 MSTORE PUSH1 0x20 ADD SWAP1 DUP2 MSTORE PUSH1 0x20 ADD PUSH1 0x0 KECCAK256 PUSH1 0x0 ADD SLOAD SWAP4 POP PUSH1 0x8 PUSH1 0x0 DUP9 DUP8 DUP2 MLOAD DUP2 LT PUSH2 0x191F JUMPI PUSH4 0x4E487B71 PUSH1 0xE0 SHL PUSH1 0x0 MSTORE PUSH1 0x32 PUSH1 0x4 MSTORE PUSH1 0x24 PUSH1 0x0 REVERT JUMPDEST PUSH1 0x20 MUL PUSH1 0x20 ADD ADD MLOAD DUP2 MSTORE PUSH1 0x20 ADD SWAP1 DUP2 MSTORE PUSH1 0x20 ADD PUSH1 0x0 KECCAK256 PUSH1 0x2 ADD SLOAD SWAP3 POP JUMPDEST POP PUSH1 0x0 DUP4 DUP2 MSTORE PUSH1 0x6 PUSH1 0x20 SWAP1 DUP2 MSTORE PUSH1 0x40 SWAP2 DUP3 SWAP1 KECCAK256 SLOAD PUSH1 0xA SLOAD DUP4 MLOAD PUSH4 0x55C4A8BF PUSH1 0xE0 SHL DUP2 MSTORE SWAP4 MLOAD PUSH1 0x1 PUSH1 0x1 PUSH1 0xA0 SHL SUB SWAP3 DUP4 AND SWAP5 PUSH1 0x64 SWAP5 SWAP4 SWAP1 SWAP3 AND SWAP3 PUSH4 0x55C4A8BF SWAP3 PUSH1 0x4 DUP1 DUP3 ADD SWAP4 SWAP2 DUP3 SWAP1 SUB ADD DUP2 DUP7 DUP1 EXTCODESIZE ISZERO DUP1 ISZERO PUSH2 0x1996 JUMPI PUSH1 0x0 DUP1 REVERT JUMPDEST POP GAS STATICCALL ISZERO DUP1 ISZERO PUSH2 0x19AA JUMPI RETURNDATASIZE PUSH1 0x0 DUP1 RETURNDATACOPY RETURNDATASIZE PUSH1 0x0 REVERT JUMPDEST POP POP POP POP PUSH1 0x40 MLOAD RETURNDATASIZE PUSH1 0x1F NOT PUSH1 0x1F DUP3 ADD AND DUP3 ADD DUP1 PUSH1 0x40 MSTORE POP DUP2 ADD SWAP1 PUSH2 0x19CE SWAP2 SWAP1 PUSH2 0x2D0D JUMP JUMPDEST PUSH2 0x19D9 SWAP1 PUSH1 0x64 PUSH2 0x2DEF JUMP JUMPDEST PUSH2 0x19E3 SWAP1 DUP5 PUSH2 0x2DD0 JUMP JUMPDEST PUSH2 0x19ED SWAP2 SWAP1 PUSH2 0x2DB0 JUMP JUMPDEST DUP9 MLOAD PUSH1 0x1 PUSH1 0x1 PUSH1 0xA0 SHL SUB AND PUSH1 0x0 SWAP1 DUP2 MSTORE PUSH1 0x5 PUSH1 0x20 MSTORE PUSH1 0x40 DUP2 KECCAK256 DUP1 SLOAD SWAP1 SWAP2 SWAP1 PUSH2 0x1A16 SWAP1 DUP5 SWAP1 PUSH2 0x2D98 JUMP JUMPDEST SWAP1 SWAP2 SSTORE POP POP PUSH1 0x0 DUP5 DUP2 MSTORE PUSH1 0x6 PUSH1 0x20 MSTORE PUSH1 0x40 DUP2 KECCAK256 PUSH1 0x3 ADD DUP1 SLOAD DUP6 SWAP3 SWAP1 PUSH2 0x1A3C SWAP1 DUP5 SWAP1 PUSH2 0x2DEF JUMP JUMPDEST SWAP3 POP POP DUP2 SWAP1 SSTORE POP PUSH1 0x0 PUSH1 0x64 PUSH1 0xA PUSH1 0x0 SWAP1 SLOAD SWAP1 PUSH2 0x100 EXP SWAP1 DIV PUSH1 0x1 PUSH1 0x1 PUSH1 0xA0 SHL SUB AND PUSH1 0x1 PUSH1 0x1 PUSH1 0xA0 SHL SUB AND PUSH4 0x55C4A8BF PUSH1 0x40 MLOAD DUP2 PUSH4 0xFFFFFFFF AND PUSH1 0xE0 SHL DUP2 MSTORE PUSH1 0x4 ADD PUSH1 0x20 PUSH1 0x40 MLOAD DUP1 DUP4 SUB DUP2 DUP7 DUP1 EXTCODESIZE ISZERO DUP1 ISZERO PUSH2 0x1A95 JUMPI PUSH1 0x0 DUP1 REVERT JUMPDEST POP GAS STATICCALL ISZERO DUP1 ISZERO PUSH2 0x1AA9 JUMPI RETURNDATASIZE PUSH1 0x0 DUP1 RETURNDATACOPY RETURNDATASIZE PUSH1 0x0 REVERT JUMPDEST POP POP POP POP PUSH1 0x40 MLOAD RETURNDATASIZE PUSH1 0x1F NOT PUSH1 0x1F DUP3 ADD AND DUP3 ADD DUP1 PUSH1 0x40 MSTORE POP DUP2 ADD SWAP1 PUSH2 0x1ACD SWAP2 SWAP1 PUSH2 0x2D0D JUMP JUMPDEST PUSH2 0x1AD7 SWAP1 DUP6 PUSH2 0x2DD0 JUMP JUMPDEST PUSH2 0x1AE1 SWAP2 SWAP1 PUSH2 0x2DB0 JUMP JUMPDEST SWAP1 POP PUSH1 0x64 PUSH1 0xA PUSH1 0x0 SWAP1 SLOAD SWAP1 PUSH2 0x100 EXP SWAP1 DIV PUSH1 0x1 PUSH1 0x1 PUSH1 0xA0 SHL SUB AND PUSH1 0x1 PUSH1 0x1 PUSH1 0xA0 SHL SUB AND PUSH4 0x6A0CCD9D PUSH1 0x40 MLOAD DUP2 PUSH4 0xFFFFFFFF AND PUSH1 0xE0 SHL DUP2 MSTORE PUSH1 0x4 ADD PUSH1 0x20 PUSH1 0x40 MLOAD DUP1 DUP4 SUB DUP2 DUP7 DUP1 EXTCODESIZE ISZERO DUP1 ISZERO PUSH2 0x1B33 JUMPI PUSH1 0x0 DUP1 REVERT JUMPDEST POP GAS STATICCALL ISZERO DUP1 ISZERO PUSH2 0x1B47 JUMPI RETURNDATASIZE PUSH1 0x0 DUP1 RETURNDATACOPY RETURNDATASIZE PUSH1 0x0 REVERT JUMPDEST POP POP POP POP PUSH1 0x40 MLOAD RETURNDATASIZE PUSH1 0x1F NOT PUSH1 0x1F DUP3 ADD AND DUP3 ADD DUP1 PUSH1 0x40 MSTORE POP DUP2 ADD SWAP1 PUSH2 0x1B6B SWAP2 SWAP1 PUSH2 0x2D0D JUMP JUMPDEST PUSH2 0x1B75 SWAP1 DUP4 PUSH2 0x2DD0 JUMP JUMPDEST PUSH2 0x1B7F SWAP2 SWAP1 PUSH2 0x2DB0 JUMP JUMPDEST PUSH1 0x5 PUSH1 0x0 PUSH1 0xA PUSH1 0x0 SWAP1 SLOAD SWAP1 PUSH2 0x100 EXP SWAP1 DIV PUSH1 0x1 PUSH1 0x1 PUSH1 0xA0 SHL SUB AND PUSH1 0x1 PUSH1 0x1 PUSH1 0xA0 SHL SUB AND PUSH4 0xB7640A54 PUSH1 0x40 MLOAD DUP2 PUSH4 0xFFFFFFFF AND PUSH1 0xE0 SHL DUP2 MSTORE PUSH1 0x4 ADD PUSH1 0x20 PUSH1 0x40 MLOAD DUP1 DUP4 SUB DUP2 DUP7 DUP1 EXTCODESIZE ISZERO DUP1 ISZERO PUSH2 0x1BD1 JUMPI PUSH1 0x0 DUP1 REVERT JUMPDEST POP GAS STATICCALL ISZERO DUP1 ISZERO PUSH2 0x1BE5 JUMPI RETURNDATASIZE PUSH1 0x0 DUP1 RETURNDATACOPY RETURNDATASIZE PUSH1 0x0 REVERT JUMPDEST POP POP POP POP PUSH1 0x40 MLOAD RETURNDATASIZE PUSH1 0x1F NOT PUSH1 0x1F DUP3 ADD AND DUP3 ADD DUP1 PUSH1 0x40 MSTORE POP DUP2 ADD SWAP1 PUSH2 0x1C09 SWAP2 SWAP1 PUSH2 0x2C68 JUMP JUMPDEST PUSH1 0x1 PUSH1 0x1 PUSH1 0xA0 SHL SUB AND PUSH1 0x1 PUSH1 0x1 PUSH1 0xA0 SHL SUB AND DUP2 MSTORE PUSH1 0x20 ADD SWAP1 DUP2 MSTORE PUSH1 0x20 ADD PUSH1 0x0 KECCAK256 PUSH1 0x0 DUP3 DUP3 SLOAD PUSH2 0x1C38 SWAP2 SWAP1 PUSH2 0x2D98 JUMP JUMPDEST SWAP1 SWAP2 SSTORE POP POP PUSH1 0xA SLOAD PUSH1 0x40 DUP1 MLOAD PUSH4 0x28576D45 PUSH1 0xE0 SHL DUP2 MSTORE SWAP1 MLOAD PUSH1 0x64 SWAP3 PUSH1 0x1 PUSH1 0x1 PUSH1 0xA0 SHL SUB AND SWAP2 PUSH4 0x28576D45 SWAP2 PUSH1 0x4 DUP1 DUP4 ADD SWAP3 PUSH1 0x20 SWAP3 SWAP2 SWAP1 DUP3 SWAP1 SUB ADD DUP2 DUP7 DUP1 EXTCODESIZE ISZERO DUP1 ISZERO PUSH2 0x1C82 JUMPI PUSH1 0x0 DUP1 REVERT JUMPDEST POP GAS STATICCALL ISZERO DUP1 ISZERO PUSH2 0x1C96 JUMPI RETURNDATASIZE PUSH1 0x0 DUP1 RETURNDATACOPY RETURNDATASIZE PUSH1 0x0 REVERT JUMPDEST POP POP POP POP PUSH1 0x40 MLOAD RETURNDATASIZE PUSH1 0x1F NOT PUSH1 0x1F DUP3 ADD AND DUP3 ADD DUP1 PUSH1 0x40 MSTORE POP DUP2 ADD SWAP1 PUSH2 0x1CBA SWAP2 SWAP1 PUSH2 0x2D0D JUMP JUMPDEST PUSH2 0x1CC4 SWAP1 DUP4 PUSH2 0x2DD0 JUMP JUMPDEST PUSH2 0x1CCE SWAP2 SWAP1 PUSH2 0x2DB0 JUMP JUMPDEST PUSH1 0x5 PUSH1 0x0 PUSH1 0xA PUSH1 0x0 SWAP1 SLOAD SWAP1 PUSH2 0x100 EXP SWAP1 DIV PUSH1 0x1 PUSH1 0x1 PUSH1 0xA0 SHL SUB AND PUSH1 0x1 PUSH1 0x1 PUSH1 0xA0 SHL SUB AND PUSH4 0x9953B2F PUSH1 0x40 MLOAD DUP2 PUSH4 0xFFFFFFFF AND PUSH1 0xE0 SHL DUP2 MSTORE PUSH1 0x4 ADD PUSH1 0x20 PUSH1 0x40 MLOAD DUP1 DUP4 SUB DUP2 DUP7 DUP1 EXTCODESIZE ISZERO DUP1 ISZERO PUSH2 0x1D20 JUMPI PUSH1 0x0 DUP1 REVERT JUMPDEST POP GAS STATICCALL ISZERO DUP1 ISZERO PUSH2 0x1D34 JUMPI RETURNDATASIZE PUSH1 0x0 DUP1 RETURNDATACOPY RETURNDATASIZE PUSH1 0x0 REVERT JUMPDEST POP POP POP POP PUSH1 0x40 MLOAD RETURNDATASIZE PUSH1 0x1F NOT PUSH1 0x1F DUP3 ADD AND DUP3 ADD DUP1 PUSH1 0x40 MSTORE POP DUP2 ADD SWAP1 PUSH2 0x1D58 SWAP2 SWAP1 PUSH2 0x2C68 JUMP JUMPDEST PUSH1 0x1 PUSH1 0x1 PUSH1 0xA0 SHL SUB AND PUSH1 0x1 PUSH1 0x1 PUSH1 0xA0 SHL SUB AND DUP2 MSTORE PUSH1 0x20 ADD SWAP1 DUP2 MSTORE PUSH1 0x20 ADD PUSH1 0x0 KECCAK256 PUSH1 0x0 DUP3 DUP3 SLOAD PUSH2 0x1D87 SWAP2 SWAP1 PUSH2 0x2D98 JUMP JUMPDEST SWAP1 SWAP2 SSTORE POP POP PUSH1 0xA SLOAD PUSH1 0x40 DUP1 MLOAD PUSH4 0x15334697 PUSH1 0xE2 SHL DUP2 MSTORE SWAP1 MLOAD PUSH1 0x64 SWAP3 PUSH1 0x1 PUSH1 0x1 PUSH1 0xA0 SHL SUB AND SWAP2 PUSH4 0x54CD1A5C SWAP2 PUSH1 0x4 DUP1 DUP4 ADD SWAP3 PUSH1 0x20 SWAP3 SWAP2 SWAP1 DUP3 SWAP1 SUB ADD DUP2 DUP7 DUP1 EXTCODESIZE ISZERO DUP1 ISZERO PUSH2 0x1DD1 JUMPI PUSH1 0x0 DUP1 REVERT JUMPDEST POP GAS STATICCALL ISZERO DUP1 ISZERO PUSH2 0x1DE5 JUMPI RETURNDATASIZE PUSH1 0x0 DUP1 RETURNDATACOPY RETURNDATASIZE PUSH1 0x0 REVERT JUMPDEST POP POP POP POP PUSH1 0x40 MLOAD RETURNDATASIZE PUSH1 0x1F NOT PUSH1 0x1F DUP3 ADD AND DUP3 ADD DUP1 PUSH1 0x40 MSTORE POP DUP2 ADD SWAP1 PUSH2 0x1E09 SWAP2 SWAP1 PUSH2 0x2D0D JUMP JUMPDEST PUSH2 0x1E13 SWAP1 DUP4 PUSH2 0x2DD0 JUMP JUMPDEST PUSH2 0x1E1D SWAP2 SWAP1 PUSH2 0x2DB0 JUMP JUMPDEST PUSH1 0x20 DUP1 DUP12 ADD MLOAD PUSH1 0x1 PUSH1 0x1 PUSH1 0xA0 SHL SUB AND PUSH1 0x0 SWAP1 DUP2 MSTORE PUSH1 0x5 SWAP1 SWAP2 MSTORE PUSH1 0x40 DUP2 KECCAK256 DUP1 SLOAD SWAP1 SWAP2 SWAP1 PUSH2 0x1E4A SWAP1 DUP5 SWAP1 PUSH2 0x2D98 JUMP JUMPDEST SWAP3 POP POP DUP2 SWAP1 SSTORE POP PUSH1 0x1 PUSH1 0x8 PUSH1 0x0 DUP11 DUP10 DUP2 MLOAD DUP2 LT PUSH2 0x1E77 JUMPI PUSH4 0x4E487B71 PUSH1 0xE0 SHL PUSH1 0x0 MSTORE PUSH1 0x32 PUSH1 0x4 MSTORE PUSH1 0x24 PUSH1 0x0 REVERT JUMPDEST PUSH1 0x20 MUL PUSH1 0x20 ADD ADD MLOAD DUP2 MSTORE PUSH1 0x20 ADD SWAP1 DUP2 MSTORE PUSH1 0x20 ADD PUSH1 0x0 KECCAK256 PUSH1 0x4 ADD PUSH1 0x0 PUSH2 0x100 EXP DUP2 SLOAD DUP2 PUSH1 0xFF MUL NOT AND SWAP1 DUP4 ISZERO ISZERO MUL OR SWAP1 SSTORE POP POP POP POP POP POP JUMPDEST DUP1 PUSH2 0x1EB7 DUP2 PUSH2 0x2E06 JUMP JUMPDEST SWAP2 POP POP PUSH2 0x173F JUMP JUMPDEST POP PUSH1 0x1 SWAP6 SWAP5 POP POP POP POP POP JUMP JUMPDEST PUSH1 0x0 PUSH1 0x2 PUSH1 0x0 SLOAD EQ ISZERO PUSH2 0x1F20 JUMPI PUSH1 0x40 MLOAD PUSH3 0x461BCD PUSH1 0xE5 SHL DUP2 MSTORE PUSH1 0x20 PUSH1 0x4 DUP3 ADD MSTORE PUSH1 0x1F PUSH1 0x24 DUP3 ADD MSTORE PUSH32 0x5265656E7472616E637947756172643A207265656E7472616E742063616C6C00 PUSH1 0x44 DUP3 ADD MSTORE PUSH1 0x64 ADD PUSH2 0x2F5 JUMP JUMPDEST PUSH1 0x2 PUSH1 0x0 SWAP1 DUP2 SSTORE DUP3 DUP2 MSTORE PUSH1 0x8 PUSH1 0x20 MSTORE PUSH1 0x40 SWAP1 KECCAK256 PUSH1 0x4 ADD SLOAD PUSH1 0xFF AND ISZERO PUSH2 0x1F47 JUMPI POP PUSH1 0x0 PUSH2 0x70A JUMP JUMPDEST PUSH1 0x0 DUP1 PUSH1 0x0 DUP1 PUSH1 0x2 SLOAD PUSH1 0x1 EQ ISZERO PUSH2 0x2121 JUMPI PUSH1 0x0 DUP7 DUP2 MSTORE PUSH1 0x8 PUSH1 0x20 SWAP1 DUP2 MSTORE PUSH1 0x40 DUP1 DUP4 KECCAK256 SLOAD DUP4 MSTORE PUSH1 0x6 DUP3 MSTORE SWAP2 DUP3 SWAP1 KECCAK256 SLOAD PUSH1 0xA SLOAD DUP4 MLOAD PUSH4 0x55C4A8BF PUSH1 0xE0 SHL DUP2 MSTORE SWAP4 MLOAD PUSH1 0x1 PUSH1 0x1 PUSH1 0xA0 SHL SUB SWAP3 DUP4 AND SWAP9 POP PUSH1 0x64 SWAP5 SWAP2 SWAP1 SWAP3 AND SWAP3 PUSH4 0x55C4A8BF SWAP3 PUSH1 0x4 DUP1 DUP5 ADD SWAP4 DUP3 SWAP1 SUB ADD DUP2 DUP7 DUP1 EXTCODESIZE ISZERO DUP1 ISZERO PUSH2 0x1FBB JUMPI PUSH1 0x0 DUP1 REVERT JUMPDEST POP GAS STATICCALL ISZERO DUP1 ISZERO PUSH2 0x1FCF JUMPI RETURNDATASIZE PUSH1 0x0 DUP1 RETURNDATACOPY RETURNDATASIZE PUSH1 0x0 REVERT JUMPDEST POP POP POP POP PUSH1 0x40 MLOAD RETURNDATASIZE PUSH1 0x1F NOT PUSH1 0x1F DUP3 ADD AND DUP3 ADD DUP1 PUSH1 0x40 MSTORE POP DUP2 ADD SWAP1 PUSH2 0x1FF3 SWAP2 SWAP1 PUSH2 0x2D0D JUMP JUMPDEST PUSH2 0x1FFE SWAP1 PUSH1 0x64 PUSH2 0x2DEF JUMP JUMPDEST PUSH1 0x0 DUP9 DUP2 MSTORE PUSH1 0x8 PUSH1 0x20 MSTORE PUSH1 0x40 SWAP1 KECCAK256 PUSH1 0x3 ADD SLOAD PUSH2 0x201A SWAP2 SWAP1 PUSH2 0x2DD0 JUMP JUMPDEST PUSH2 0x2024 SWAP2 SWAP1 PUSH2 0x2DB0 JUMP JUMPDEST PUSH1 0x0 DUP8 DUP2 MSTORE PUSH1 0x8 PUSH1 0x20 MSTORE PUSH1 0x40 SWAP1 KECCAK256 PUSH1 0x2 ADD SLOAD PUSH2 0x2040 SWAP2 SWAP1 PUSH2 0x2D98 JUMP JUMPDEST SWAP2 POP PUSH1 0x64 PUSH1 0xA PUSH1 0x0 SWAP1 SLOAD SWAP1 PUSH2 0x100 EXP SWAP1 DIV PUSH1 0x1 PUSH1 0x1 PUSH1 0xA0 SHL SUB AND PUSH1 0x1 PUSH1 0x1 PUSH1 0xA0 SHL SUB AND PUSH4 0x55C4A8BF PUSH1 0x40 MLOAD DUP2 PUSH4 0xFFFFFFFF AND PUSH1 0xE0 SHL DUP2 MSTORE PUSH1 0x4 ADD PUSH1 0x20 PUSH1 0x40 MLOAD DUP1 DUP4 SUB DUP2 DUP7 DUP1 EXTCODESIZE ISZERO DUP1 ISZERO PUSH2 0x2092 JUMPI PUSH1 0x0 DUP1 REVERT JUMPDEST POP GAS STATICCALL ISZERO DUP1 ISZERO PUSH2 0x20A6 JUMPI RETURNDATASIZE PUSH1 0x0 DUP1 RETURNDATACOPY RETURNDATASIZE PUSH1 0x0 REVERT JUMPDEST POP POP POP POP PUSH1 0x40 MLOAD RETURNDATASIZE PUSH1 0x1F NOT PUSH1 0x1F DUP3 ADD AND DUP3 ADD DUP1 PUSH1 0x40 MSTORE POP DUP2 ADD SWAP1 PUSH2 0x20CA SWAP2 SWAP1 PUSH2 0x2D0D JUMP JUMPDEST PUSH1 0x0 DUP9 DUP2 MSTORE PUSH1 0x8 PUSH1 0x20 MSTORE PUSH1 0x40 SWAP1 KECCAK256 PUSH1 0x3 ADD SLOAD PUSH2 0x20E6 SWAP2 SWAP1 PUSH2 0x2DD0 JUMP JUMPDEST PUSH2 0x20F0 SWAP2 SWAP1 PUSH2 0x2DB0 JUMP JUMPDEST PUSH1 0x0 DUP8 DUP2 MSTORE PUSH1 0x8 PUSH1 0x20 SWAP1 DUP2 MSTORE PUSH1 0x40 DUP1 DUP4 KECCAK256 SLOAD DUP4 MSTORE PUSH1 0x6 SWAP1 SWAP2 MSTORE SWAP1 KECCAK256 PUSH1 0x1 ADD SLOAD PUSH1 0x1 PUSH1 0x1 PUSH1 0xA0 SHL SUB AND SWAP4 POP SWAP1 POP PUSH2 0x2309 JUMP JUMPDEST PUSH1 0x2 SLOAD PUSH1 0x2 EQ ISZERO PUSH2 0x22FC JUMPI PUSH1 0x0 DUP7 DUP2 MSTORE PUSH1 0x8 PUSH1 0x20 SWAP1 DUP2 MSTORE PUSH1 0x40 DUP1 DUP4 KECCAK256 PUSH1 0x1 ADD SLOAD DUP4 MSTORE PUSH1 0x6 DUP3 MSTORE SWAP2 DUP3 SWAP1 KECCAK256 SLOAD PUSH1 0xA SLOAD DUP4 MLOAD PUSH4 0x55C4A8BF PUSH1 0xE0 SHL DUP2 MSTORE SWAP4 MLOAD PUSH1 0x1 PUSH1 0x1 PUSH1 0xA0 SHL SUB SWAP3 DUP4 AND SWAP9 POP PUSH1 0x64 SWAP5 SWAP2 SWAP1 SWAP3 AND SWAP3 PUSH4 0x55C4A8BF SWAP3 PUSH1 0x4 DUP1 DUP5 ADD SWAP4 DUP3 SWAP1 SUB ADD DUP2 DUP7 DUP1 EXTCODESIZE ISZERO DUP1 ISZERO PUSH2 0x2192 JUMPI PUSH1 0x0 DUP1 REVERT JUMPDEST POP GAS STATICCALL ISZERO DUP1 ISZERO PUSH2 0x21A6 JUMPI RETURNDATASIZE PUSH1 0x0 DUP1 RETURNDATACOPY RETURNDATASIZE PUSH1 0x0 REVERT JUMPDEST POP POP POP POP PUSH1 0x40 MLOAD RETURNDATASIZE PUSH1 0x1F NOT PUSH1 0x1F DUP3 ADD AND DUP3 ADD DUP1 PUSH1 0x40 MSTORE POP DUP2 ADD SWAP1 PUSH2 0x21CA SWAP2 SWAP1 PUSH2 0x2D0D JUMP JUMPDEST PUSH2 0x21D5 SWAP1 PUSH1 0x64 PUSH2 0x2DEF JUMP JUMPDEST PUSH1 0x0 DUP9 DUP2 MSTORE PUSH1 0x8 PUSH1 0x20 MSTORE PUSH1 0x40 SWAP1 KECCAK256 PUSH1 0x2 ADD SLOAD PUSH2 0x21F1 SWAP2 SWAP1 PUSH2 0x2DD0 JUMP JUMPDEST PUSH2 0x21FB SWAP2 SWAP1 PUSH2 0x2DB0 JUMP JUMPDEST PUSH1 0x0 DUP8 DUP2 MSTORE PUSH1 0x8 PUSH1 0x20 MSTORE PUSH1 0x40 SWAP1 KECCAK256 PUSH1 0x3 ADD SLOAD PUSH2 0x2217 SWAP2 SWAP1 PUSH2 0x2D98 JUMP JUMPDEST SWAP2 POP PUSH1 0x64 PUSH1 0xA PUSH1 0x0 SWAP1 SLOAD SWAP1 PUSH2 0x100 EXP SWAP1 DIV PUSH1 0x1 PUSH1 0x1 PUSH1 0xA0 SHL SUB AND PUSH1 0x1 PUSH1 0x1 PUSH1 0xA0 SHL SUB AND PUSH4 0x55C4A8BF PUSH1 0x40 MLOAD DUP2 PUSH4 0xFFFFFFFF AND PUSH1 0xE0 SHL DUP2 MSTORE PUSH1 0x4 ADD PUSH1 0x20 PUSH1 0x40 MLOAD DUP1 DUP4 SUB DUP2 DUP7 DUP1 EXTCODESIZE ISZERO DUP1 ISZERO PUSH2 0x2269 JUMPI PUSH1 0x0 DUP1 REVERT JUMPDEST POP GAS STATICCALL ISZERO DUP1 ISZERO PUSH2 0x227D JUMPI RETURNDATASIZE PUSH1 0x0 DUP1 RETURNDATACOPY RETURNDATASIZE PUSH1 0x0 REVERT JUMPDEST POP POP POP POP PUSH1 0x40 MLOAD RETURNDATASIZE PUSH1 0x1F NOT PUSH1 0x1F DUP3 ADD AND DUP3 ADD DUP1 PUSH1 0x40 MSTORE POP DUP2 ADD SWAP1 PUSH2 0x22A1 SWAP2 SWAP1 PUSH2 0x2D0D JUMP JUMPDEST PUSH1 0x0 DUP9 DUP2 MSTORE PUSH1 0x8 PUSH1 0x20 MSTORE PUSH1 0x40 SWAP1 KECCAK256 PUSH1 0x2 ADD SLOAD PUSH2 0x22BD SWAP2 SWAP1 PUSH2 0x2DD0 JUMP JUMPDEST PUSH2 0x22C7 SWAP2 SWAP1 PUSH2 0x2DB0 JUMP JUMPDEST PUSH1 0x0 DUP8 DUP2 MSTORE PUSH1 0x8 PUSH1 0x20 SWAP1 DUP2 MSTORE PUSH1 0x40 DUP1 DUP4 KECCAK256 PUSH1 0x1 SWAP1 DUP2 ADD SLOAD DUP5 MSTORE PUSH1 0x6 SWAP1 SWAP3 MSTORE SWAP1 SWAP2 KECCAK256 ADD SLOAD PUSH1 0x1 PUSH1 0x1 PUSH1 0xA0 SHL SUB AND SWAP4 POP SWAP1 POP PUSH2 0x2309 JUMP JUMPDEST PUSH1 0x0 SWAP5 POP POP POP POP POP PUSH2 0x70A JUMP JUMPDEST PUSH1 0x1 PUSH1 0x1 PUSH1 0xA0 SHL SUB DUP5 AND PUSH1 0x0 SWAP1 DUP2 MSTORE PUSH1 0x5 PUSH1 0x20 MSTORE PUSH1 0x40 DUP2 KECCAK256 DUP1 SLOAD DUP5 SWAP3 SWAP1 PUSH2 0x2331 SWAP1 DUP5 SWAP1 PUSH2 0x2D98 JUMP JUMPDEST SWAP1 SWAP2 SSTORE POP POP PUSH1 0xA SLOAD PUSH1 0x40 DUP1 MLOAD PUSH4 0x6A0CCD9D PUSH1 0xE0 SHL DUP2 MSTORE SWAP1 MLOAD PUSH1 0x64 SWAP3 PUSH1 0x1 PUSH1 0x1 PUSH1 0xA0 SHL SUB AND SWAP2 PUSH4 0x6A0CCD9D SWAP2 PUSH1 0x4 DUP1 DUP4 ADD SWAP3 PUSH1 0x20 SWAP3 SWAP2 SWAP1 DUP3 SWAP1 SUB ADD DUP2 DUP7 DUP1 EXTCODESIZE ISZERO DUP1 ISZERO PUSH2 0x237B JUMPI PUSH1 0x0 DUP1 REVERT JUMPDEST POP GAS STATICCALL ISZERO DUP1 ISZERO PUSH2 0x238F JUMPI RETURNDATASIZE PUSH1 0x0 DUP1 RETURNDATACOPY RETURNDATASIZE PUSH1 0x0 REVERT JUMPDEST POP POP POP POP PUSH1 0x40 MLOAD RETURNDATASIZE PUSH1 0x1F NOT PUSH1 0x1F DUP3 ADD AND DUP3 ADD DUP1 PUSH1 0x40 MSTORE POP DUP2 ADD SWAP1 PUSH2 0x23B3 SWAP2 SWAP1 PUSH2 0x2D0D JUMP JUMPDEST PUSH2 0x23BD SWAP1 DUP4 PUSH2 0x2DD0 JUMP JUMPDEST PUSH2 0x23C7 SWAP2 SWAP1 PUSH2 0x2DB0 JUMP JUMPDEST PUSH1 0x5 PUSH1 0x0 PUSH1 0xA PUSH1 0x0 SWAP1 SLOAD SWAP1 PUSH2 0x100 EXP SWAP1 DIV PUSH1 0x1 PUSH1 0x1 PUSH1 0xA0 SHL SUB AND PUSH1 0x1 PUSH1 0x1 PUSH1 0xA0 SHL SUB AND PUSH4 0xB7640A54 PUSH1 0x40 MLOAD DUP2 PUSH4 0xFFFFFFFF AND PUSH1 0xE0 SHL DUP2 MSTORE PUSH1 0x4 ADD PUSH1 0x20 PUSH1 0x40 MLOAD DUP1 DUP4 SUB DUP2 DUP7 DUP1 EXTCODESIZE ISZERO DUP1 ISZERO PUSH2 0x2419 JUMPI PUSH1 0x0 DUP1 REVERT JUMPDEST POP GAS STATICCALL ISZERO DUP1 ISZERO PUSH2 0x242D JUMPI RETURNDATASIZE PUSH1 0x0 DUP1 RETURNDATACOPY RETURNDATASIZE PUSH1 0x0 REVERT JUMPDEST POP POP POP POP PUSH1 0x40 MLOAD RETURNDATASIZE PUSH1 0x1F NOT PUSH1 0x1F DUP3 ADD AND DUP3 ADD DUP1 PUSH1 0x40 MSTORE POP DUP2 ADD SWAP1 PUSH2 0x2451 SWAP2 SWAP1 PUSH2 0x2C68 JUMP JUMPDEST PUSH1 0x1 PUSH1 0x1 PUSH1 0xA0 SHL SUB AND PUSH1 0x1 PUSH1 0x1 PUSH1 0xA0 SHL SUB AND DUP2 MSTORE PUSH1 0x20 ADD SWAP1 DUP2 MSTORE PUSH1 0x20 ADD PUSH1 0x0 KECCAK256 PUSH1 0x0 DUP3 DUP3 SLOAD PUSH2 0x2480 SWAP2 SWAP1 PUSH2 0x2D98 JUMP JUMPDEST SWAP1 SWAP2 SSTORE POP POP PUSH1 0xA SLOAD PUSH1 0x40 DUP1 MLOAD PUSH4 0x28576D45 PUSH1 0xE0 SHL DUP2 MSTORE SWAP1 MLOAD PUSH1 0x64 SWAP3 PUSH1 0x1 PUSH1 0x1 PUSH1 0xA0 SHL SUB AND SWAP2 PUSH4 0x28576D45 SWAP2 PUSH1 0x4 DUP1 DUP4 ADD SWAP3 PUSH1 0x20 SWAP3 SWAP2 SWAP1 DUP3 SWAP1 SUB ADD DUP2 DUP7 DUP1 EXTCODESIZE ISZERO DUP1 ISZERO PUSH2 0x24CA JUMPI PUSH1 0x0 DUP1 REVERT JUMPDEST POP GAS STATICCALL ISZERO DUP1 ISZERO PUSH2 0x24DE JUMPI RETURNDATASIZE PUSH1 0x0 DUP1 RETURNDATACOPY RETURNDATASIZE PUSH1 0x0 REVERT JUMPDEST POP POP POP POP PUSH1 0x40 MLOAD RETURNDATASIZE PUSH1 0x1F NOT PUSH1 0x1F DUP3 ADD AND DUP3 ADD DUP1 PUSH1 0x40 MSTORE POP DUP2 ADD SWAP1 PUSH2 0x2502 SWAP2 SWAP1 PUSH2 0x2D0D JUMP JUMPDEST PUSH2 0x250C SWAP1 DUP4 PUSH2 0x2DD0 JUMP JUMPDEST PUSH2 0x2516 SWAP2 SWAP1 PUSH2 0x2DB0 JUMP JUMPDEST PUSH1 0x5 PUSH1 0x0 PUSH1 0xA PUSH1 0x0 SWAP1 SLOAD SWAP1 PUSH2 0x100 EXP SWAP1 DIV PUSH1 0x1 PUSH1 0x1 PUSH1 0xA0 SHL SUB AND PUSH1 0x1 PUSH1 0x1 PUSH1 0xA0 SHL SUB AND PUSH4 0x9953B2F PUSH1 0x40 MLOAD DUP2 PUSH4 0xFFFFFFFF AND PUSH1 0xE0 SHL DUP2 MSTORE PUSH1 0x4 ADD PUSH1 0x20 PUSH1 0x40 MLOAD DUP1 DUP4 SUB DUP2 DUP7 DUP1 EXTCODESIZE ISZERO DUP1 ISZERO PUSH2 0x2568 JUMPI PUSH1 0x0 DUP1 REVERT JUMPDEST POP GAS STATICCALL ISZERO DUP1 ISZERO PUSH2 0x257C JUMPI RETURNDATASIZE PUSH1 0x0 DUP1 RETURNDATACOPY RETURNDATASIZE PUSH1 0x0 REVERT JUMPDEST POP POP POP POP PUSH1 0x40 MLOAD RETURNDATASIZE PUSH1 0x1F NOT PUSH1 0x1F DUP3 ADD AND DUP3 ADD DUP1 PUSH1 0x40 MSTORE POP DUP2 ADD SWAP1 PUSH2 0x25A0 SWAP2 SWAP1 PUSH2 0x2C68 JUMP JUMPDEST PUSH1 0x1 PUSH1 0x1 PUSH1 0xA0 SHL SUB AND PUSH1 0x1 PUSH1 0x1 PUSH1 0xA0 SHL SUB AND DUP2 MSTORE PUSH1 0x20 ADD SWAP1 DUP2 MSTORE PUSH1 0x20 ADD PUSH1 0x0 KECCAK256 PUSH1 0x0 DUP3 DUP3 SLOAD PUSH2 0x25CF SWAP2 SWAP1 PUSH2 0x2D98 JUMP JUMPDEST SWAP1 SWAP2 SSTORE POP POP PUSH1 0xA SLOAD PUSH1 0x40 DUP1 MLOAD PUSH4 0x15334697 PUSH1 0xE2 SHL DUP2 MSTORE SWAP1 MLOAD PUSH1 0x64 SWAP3 PUSH1 0x1 PUSH1 0x1 PUSH1 0xA0 SHL SUB AND SWAP2 PUSH4 0x54CD1A5C SWAP2 PUSH1 0x4 DUP1 DUP4 ADD SWAP3 PUSH1 0x20 SWAP3 SWAP2 SWAP1 DUP3 SWAP1 SUB ADD DUP2 DUP7 DUP1 EXTCODESIZE ISZERO DUP1 ISZERO PUSH2 0x2619 JUMPI PUSH1 0x0 DUP1 REVERT JUMPDEST POP GAS STATICCALL ISZERO DUP1 ISZERO PUSH2 0x262D JUMPI RETURNDATASIZE PUSH1 0x0 DUP1 RETURNDATACOPY RETURNDATASIZE PUSH1 0x0 REVERT JUMPDEST POP POP POP POP PUSH1 0x40 MLOAD RETURNDATASIZE PUSH1 0x1F NOT PUSH1 0x1F DUP3 ADD AND DUP3 ADD DUP1 PUSH1 0x40 MSTORE POP DUP2 ADD SWAP1 PUSH2 0x2651 SWAP2 SWAP1 PUSH2 0x2D0D JUMP JUMPDEST PUSH2 0x265B SWAP1 DUP4 PUSH2 0x2DD0 JUMP JUMPDEST PUSH2 0x2665 SWAP2 SWAP1 PUSH2 0x2DB0 JUMP JUMPDEST PUSH1 0x1 PUSH1 0x1 PUSH1 0xA0 SHL SUB DUP5 AND PUSH1 0x0 SWAP1 DUP2 MSTORE PUSH1 0x5 PUSH1 0x20 MSTORE PUSH1 0x40 DUP2 KECCAK256 DUP1 SLOAD SWAP1 SWAP2 SWAP1 PUSH2 0x268D SWAP1 DUP5 SWAP1 PUSH2 0x2D98 JUMP JUMPDEST SWAP1 SWAP2 SSTORE POP POP POP PUSH1 0x0 SWAP5 DUP6 MSTORE POP POP PUSH1 0x8 PUSH1 0x20 MSTORE POP POP PUSH1 0x40 DUP2 KECCAK256 PUSH1 0x4 ADD DUP1 SLOAD PUSH1 0xFF NOT AND PUSH1 0x1 SWAP1 DUP2 OR SWAP1 SWAP2 SSTORE SWAP1 DUP2 SWAP1 SSTORE SWAP1 JUMP JUMPDEST PUSH1 0x0 DUP2 DUP2 MSTORE PUSH1 0x8 PUSH1 0x20 MSTORE PUSH1 0x40 DUP2 KECCAK256 PUSH1 0x4 ADD SLOAD PUSH1 0xFF AND ISZERO PUSH2 0x26DF JUMPI POP PUSH1 0x0 SWAP2 SWAP1 POP JUMP JUMPDEST PUSH1 0x0 DUP3 DUP2 MSTORE PUSH1 0x8 PUSH1 0x20 SWAP1 DUP2 MSTORE PUSH1 0x40 DUP1 DUP4 KECCAK256 DUP1 SLOAD DUP5 MSTORE PUSH1 0x6 DUP4 MSTORE DUP2 DUP5 KECCAK256 SLOAD PUSH1 0x1 DUP3 ADD SLOAD DUP6 MSTORE DUP3 DUP6 KECCAK256 SLOAD PUSH1 0x2 SWAP1 SWAP3 ADD SLOAD PUSH1 0x1 PUSH1 0x1 PUSH1 0xA0 SHL SUB SWAP2 DUP3 AND DUP1 DUP8 MSTORE PUSH1 0x5 SWAP1 SWAP6 MSTORE SWAP3 DUP6 KECCAK256 DUP1 SLOAD SWAP5 SWAP6 SWAP2 SWAP1 SWAP3 AND SWAP4 PUSH2 0x2737 SWAP1 DUP5 SWAP1 PUSH2 0x2D98 JUMP JUMPDEST SWAP1 SWAP2 SSTORE POP POP PUSH1 0x0 DUP5 DUP2 MSTORE PUSH1 0x8 PUSH1 0x20 SWAP1 DUP2 MSTORE PUSH1 0x40 DUP1 DUP4 KECCAK256 PUSH1 0x3 ADD SLOAD PUSH1 0x1 PUSH1 0x1 PUSH1 0xA0 SHL SUB DUP6 AND DUP5 MSTORE PUSH1 0x5 SWAP1 SWAP3 MSTORE DUP3 KECCAK256 DUP1 SLOAD SWAP2 SWAP3 SWAP1 SWAP2 PUSH2 0x2775 SWAP1 DUP5 SWAP1 PUSH2 0x2D98 JUMP JUMPDEST SWAP1 SWAP2 SSTORE POP POP POP PUSH1 0x0 SWAP3 DUP4 MSTORE POP POP PUSH1 0x8 PUSH1 0x20 MSTORE PUSH1 0x40 SWAP1 KECCAK256 PUSH1 0x4 ADD DUP1 SLOAD PUSH1 0xFF NOT AND PUSH1 0x1 SWAP1 DUP2 OR SWAP1 SWAP2 SSTORE SWAP1 JUMP JUMPDEST PUSH1 0x0 DUP1 PUSH1 0x0 JUMPDEST PUSH1 0x4 SLOAD DUP10 SWAP1 ADDRESS SWAP1 DUP4 SWAP1 PUSH2 0x27B9 SWAP1 PUSH1 0x1 PUSH2 0x2D98 JUMP JUMPDEST PUSH2 0x27C3 SWAP2 SWAP1 PUSH2 0x2D98 JUMP JUMPDEST PUSH1 0x40 MLOAD PUSH12 0xFFFFFFFFFFFFFFFFFFFFFFFF NOT PUSH1 0x60 SWAP5 DUP6 SHL DUP2 AND PUSH1 0x20 DUP4 ADD MSTORE SWAP3 SWAP1 SWAP4 SHL SWAP1 SWAP2 AND PUSH1 0x34 DUP4 ADD MSTORE PUSH1 0x48 DUP3 ADD MSTORE TIMESTAMP PUSH1 0x68 DUP3 ADD MSTORE DIFFICULTY PUSH1 0x88 DUP3 ADD MSTORE PUSH1 0xA8 ADD PUSH1 0x40 DUP1 MLOAD PUSH1 0x1F NOT DUP2 DUP5 SUB ADD DUP2 MSTORE SWAP2 DUP2 MSTORE DUP2 MLOAD PUSH1 0x20 SWAP3 DUP4 ADD KECCAK256 PUSH1 0x0 DUP2 DUP2 MSTORE PUSH1 0x6 SWAP1 SWAP4 MSTORE SWAP2 KECCAK256 PUSH1 0x2 ADD SLOAD SWAP1 SWAP3 POP PUSH2 0x2834 JUMPI PUSH2 0x2846 JUMP JUMPDEST DUP1 PUSH2 0x283E DUP2 PUSH2 0x2E06 JUMP JUMPDEST SWAP2 POP POP PUSH2 0x27A5 JUMP JUMPDEST PUSH1 0x1 PUSH1 0x1 PUSH1 0xA0 SHL SUB DUP9 AND PUSH2 0x28DD JUMPI PUSH1 0xA PUSH1 0x0 SWAP1 SLOAD SWAP1 PUSH2 0x100 EXP SWAP1 DIV PUSH1 0x1 PUSH1 0x1 PUSH1 0xA0 SHL SUB AND PUSH1 0x1 PUSH1 0x1 PUSH1 0xA0 SHL SUB AND PUSH4 0x9953B2F PUSH1 0x40 MLOAD DUP2 PUSH4 0xFFFFFFFF AND PUSH1 0xE0 SHL DUP2 MSTORE PUSH1 0x4 ADD PUSH1 0x20 PUSH1 0x40 MLOAD DUP1 DUP4 SUB DUP2 DUP7 DUP1 EXTCODESIZE ISZERO DUP1 ISZERO PUSH2 0x28A2 JUMPI PUSH1 0x0 DUP1 REVERT JUMPDEST POP GAS STATICCALL ISZERO DUP1 ISZERO PUSH2 0x28B6 JUMPI RETURNDATASIZE PUSH1 0x0 DUP1 RETURNDATACOPY RETURNDATASIZE PUSH1 0x0 REVERT JUMPDEST POP POP POP POP PUSH1 0x40 MLOAD RETURNDATASIZE PUSH1 0x1F NOT PUSH1 0x1F DUP3 ADD AND DUP3 ADD DUP1 PUSH1 0x40 MSTORE POP DUP2 ADD SWAP1 PUSH2 0x28DA SWAP2 SWAP1 PUSH2 0x2C68 JUMP JUMPDEST SWAP8 POP JUMPDEST POP PUSH1 0x40 DUP1 MLOAD PUSH1 0xC0 DUP2 ADD DUP3 MSTORE PUSH1 0x1 PUSH1 0x1 PUSH1 0xA0 SHL SUB SWAP10 DUP11 AND DUP1 DUP3 MSTORE SWAP9 DUP11 AND PUSH1 0x20 DUP1 DUP4 ADD SWAP2 DUP3 MSTORE DUP3 DUP5 ADD SWAP10 DUP11 MSTORE PUSH1 0x60 DUP4 ADD SWAP9 DUP10 MSTORE PUSH1 0x80 DUP4 ADD SWAP8 DUP9 MSTORE PUSH1 0xA0 DUP4 ADD SWAP7 DUP8 MSTORE PUSH1 0x0 DUP6 DUP2 MSTORE PUSH1 0x6 DUP3 MSTORE DUP5 DUP2 KECCAK256 SWAP4 MLOAD DUP5 SLOAD SWAP1 DUP15 AND PUSH1 0x1 PUSH1 0x1 PUSH1 0xA0 SHL SUB NOT SWAP2 DUP3 AND OR DUP6 SSTORE SWAP3 MLOAD PUSH1 0x1 DUP1 DUP7 ADD DUP1 SLOAD SWAP3 SWAP1 SWAP16 AND SWAP2 SWAP1 SWAP5 AND OR SWAP1 SWAP13 SSTORE SWAP9 MLOAD PUSH1 0x2 DUP4 ADD SSTORE SWAP7 MLOAD PUSH1 0x3 DUP3 ADD SSTORE SWAP5 MLOAD PUSH1 0x4 DUP1 DUP8 ADD SWAP2 SWAP1 SWAP2 SSTORE SWAP4 MLOAD PUSH1 0x5 SWAP1 SWAP6 ADD SWAP5 SWAP1 SWAP5 SSTORE DUP3 SLOAD DUP1 DUP7 ADD SWAP1 SWAP4 SSTORE PUSH32 0x8A35ACFBC15FF81A39AE7D344FD709F28E8600B4AA8C65C6B64BFE7FE36BD19B SWAP1 SWAP3 ADD DUP3 SWAP1 SSTORE POP SWAP4 DUP6 MSTORE PUSH1 0x7 DUP4 MSTORE DUP5 KECCAK256 DUP1 SLOAD SWAP2 DUP3 ADD DUP2 SSTORE DUP5 MSTORE SWAP3 KECCAK256 SWAP1 SWAP2 ADD DUP2 SWAP1 SSTORE SWAP1 JUMP JUMPDEST PUSH1 0x0 DUP1 PUSH1 0x0 DUP1 DUP10 DUP10 GT PUSH2 0x2A2E JUMPI DUP9 SWAP3 POP PUSH2 0x29DF PUSH1 0x64 DUP10 PUSH2 0x2DEF JUMP JUMPDEST PUSH2 0x29E9 SWAP1 DUP11 PUSH2 0x2DD0 JUMP JUMPDEST SWAP2 POP PUSH2 0x29F6 PUSH1 0x64 DUP4 PUSH2 0x2DB0 JUMP JUMPDEST SWAP2 POP DUP7 PUSH1 0x1 EQ ISZERO PUSH2 0x2A14 JUMPI PUSH2 0x2A0D DUP7 DUP7 DUP6 DUP6 PUSH2 0x2B12 JUMP JUMPDEST SWAP1 POP PUSH2 0x2A82 JUMP JUMPDEST DUP7 PUSH1 0x2 EQ ISZERO PUSH2 0x2A29 JUMPI PUSH2 0x2A0D DUP6 DUP8 DUP5 DUP7 PUSH2 0x2B12 JUMP JUMPDEST PUSH2 0x2A82 JUMP JUMPDEST DUP10 SWAP3 POP PUSH2 0x2A3C PUSH1 0x64 DUP10 PUSH2 0x2DEF JUMP JUMPDEST PUSH2 0x2A46 SWAP1 DUP12 PUSH2 0x2DD0 JUMP JUMPDEST SWAP2 POP PUSH2 0x2A53 PUSH1 0x64 DUP4 PUSH2 0x2DB0 JUMP JUMPDEST SWAP2 POP DUP7 PUSH1 0x1 EQ ISZERO PUSH2 0x2A6A JUMPI PUSH2 0x2A0D DUP7 DUP7 DUP6 DUP6 PUSH2 0x2B12 JUMP JUMPDEST DUP7 PUSH1 0x2 EQ ISZERO PUSH2 0x2A82 JUMPI PUSH2 0x2A7F DUP6 DUP8 DUP5 DUP7 PUSH2 0x2B12 JUMP JUMPDEST SWAP1 POP JUMPDEST PUSH1 0x0 DUP7 DUP2 MSTORE PUSH1 0x9 PUSH1 0x20 SWAP1 DUP2 MSTORE PUSH1 0x40 DUP1 DUP4 KECCAK256 DUP1 SLOAD PUSH1 0x1 DUP2 DUP2 ADD DUP4 SSTORE SWAP2 DUP6 MSTORE DUP4 DUP6 KECCAK256 ADD DUP6 SWAP1 SSTORE DUP9 DUP5 MSTORE DUP2 DUP5 KECCAK256 DUP1 SLOAD SWAP2 DUP3 ADD DUP2 SSTORE DUP5 MSTORE DUP3 DUP5 KECCAK256 ADD DUP5 SWAP1 SSTORE DUP9 DUP4 MSTORE PUSH1 0x6 SWAP1 SWAP2 MSTORE DUP2 KECCAK256 PUSH1 0x3 ADD DUP1 SLOAD DUP6 SWAP3 SWAP1 PUSH2 0x2AD9 SWAP1 DUP5 SWAP1 PUSH2 0x2D98 JUMP JUMPDEST SWAP1 SWAP2 SSTORE POP POP PUSH1 0x0 DUP6 DUP2 MSTORE PUSH1 0x6 PUSH1 0x20 MSTORE PUSH1 0x40 DUP2 KECCAK256 PUSH1 0x3 ADD DUP1 SLOAD DUP5 SWAP3 SWAP1 PUSH2 0x2AFF SWAP1 DUP5 SWAP1 PUSH2 0x2D98 JUMP JUMPDEST SWAP1 SWAP2 SSTORE POP SWAP3 SWAP11 SWAP10 POP POP POP POP POP POP POP POP POP POP JUMP JUMPDEST PUSH1 0x0 DUP1 PUSH1 0x0 JUMPDEST PUSH1 0x3 SLOAD DUP8 SWAP1 DUP8 SWAP1 DUP4 SWAP1 PUSH2 0x2B2C SWAP1 PUSH1 0x1 PUSH2 0x2D98 JUMP JUMPDEST PUSH2 0x2B36 SWAP2 SWAP1 PUSH2 0x2D98 JUMP JUMPDEST PUSH1 0x40 DUP1 MLOAD PUSH1 0x20 DUP2 ADD SWAP5 SWAP1 SWAP5 MSTORE DUP4 ADD SWAP2 SWAP1 SWAP2 MSTORE PUSH1 0x60 DUP3 ADD MSTORE TIMESTAMP PUSH1 0x80 DUP3 ADD MSTORE DIFFICULTY PUSH1 0xA0 DUP3 ADD MSTORE PUSH1 0xC0 ADD PUSH1 0x40 DUP1 MLOAD PUSH1 0x1F NOT DUP2 DUP5 SUB ADD DUP2 MSTORE SWAP2 DUP2 MSTORE DUP2 MLOAD PUSH1 0x20 SWAP3 DUP4 ADD KECCAK256 PUSH1 0x0 DUP2 DUP2 MSTORE PUSH1 0x8 SWAP1 SWAP4 MSTORE SWAP2 KECCAK256 PUSH1 0x2 ADD SLOAD SWAP1 SWAP3 POP PUSH2 0x2B90 JUMPI PUSH2 0x2BA2 JUMP JUMPDEST DUP1 PUSH2 0x2B9A DUP2 PUSH2 0x2E06 JUMP JUMPDEST SWAP2 POP POP PUSH2 0x2B18 JUMP JUMPDEST POP PUSH1 0x40 DUP1 MLOAD PUSH1 0xA0 DUP2 ADD DUP3 MSTORE SWAP7 DUP8 MSTORE PUSH1 0x20 DUP1 DUP9 ADD SWAP7 DUP8 MSTORE DUP8 DUP3 ADD SWAP6 DUP7 MSTORE PUSH1 0x60 DUP9 ADD SWAP5 DUP6 MSTORE PUSH1 0x0 PUSH1 0x80 DUP10 ADD DUP2 DUP2 MSTORE DUP5 DUP3 MSTORE PUSH1 0x8 SWAP1 SWAP3 MSTORE SWAP2 DUP3 KECCAK256 SWAP8 MLOAD DUP9 SSTORE SWAP6 MLOAD PUSH1 0x1 DUP1 DUP10 ADD SWAP2 SWAP1 SWAP2 SSTORE SWAP5 MLOAD PUSH1 0x2 DUP9 ADD SSTORE SWAP3 MLOAD PUSH1 0x3 DUP1 DUP9 ADD SWAP2 SWAP1 SWAP2 SSTORE SWAP5 MLOAD PUSH1 0x4 SWAP1 SWAP7 ADD DUP1 SLOAD PUSH1 0xFF NOT AND SWAP7 ISZERO ISZERO SWAP7 SWAP1 SWAP7 OR SWAP1 SWAP6 SSTORE POP DUP3 SLOAD SWAP2 DUP3 ADD DUP4 SSTORE SWAP2 SWAP1 SWAP2 MSTORE PUSH32 0xC2575A0E9E593C00F959F8C92F12DB2869C3395A3B0502D05E2516446F71F85B ADD DUP2 SWAP1 SSTORE SWAP1 JUMP JUMPDEST PUSH1 0x0 PUSH1 0x20 DUP3 DUP5 SUB SLT ISZERO PUSH2 0x2C56 JUMPI DUP1 DUP2 REVERT JUMPDEST DUP2 CALLDATALOAD PUSH2 0x2C61 DUP2 PUSH2 0x2E37 JUMP JUMPDEST SWAP4 SWAP3 POP POP POP JUMP JUMPDEST PUSH1 0x0 PUSH1 0x20 DUP3 DUP5 SUB SLT ISZERO PUSH2 0x2C79 JUMPI DUP1 DUP2 REVERT JUMPDEST DUP2 MLOAD PUSH2 0x2C61 DUP2 PUSH2 0x2E37 JUMP JUMPDEST PUSH1 0x0 DUP1 PUSH1 0x0 DUP1 PUSH1 0x0 PUSH1 0xA0 DUP7 DUP9 SUB SLT ISZERO PUSH2 0x2C9B JUMPI DUP1 DUP2 REVERT JUMPDEST DUP6 CALLDATALOAD PUSH2 0x2CA6 DUP2 PUSH2 0x2E37 JUMP JUMPDEST SWAP5 POP PUSH1 0x20 DUP7 ADD CALLDATALOAD SWAP4 POP PUSH1 0x40 DUP7 ADD CALLDATALOAD SWAP3 POP PUSH1 0x60 DUP7 ADD CALLDATALOAD SWAP2 POP PUSH1 0x80 DUP7 ADD CALLDATALOAD PUSH2 0x2CCB DUP2 PUSH2 0x2E4C JUMP JUMPDEST DUP1 SWAP2 POP POP SWAP3 SWAP6 POP SWAP3 SWAP6 SWAP1 SWAP4 POP JUMP JUMPDEST PUSH1 0x0 PUSH1 0x20 DUP3 DUP5 SUB SLT ISZERO PUSH2 0x2CEA JUMPI DUP1 DUP2 REVERT JUMPDEST DUP2 MLOAD PUSH2 0x2C61 DUP2 PUSH2 0x2E4C JUMP JUMPDEST PUSH1 0x0 PUSH1 0x20 DUP3 DUP5 SUB SLT ISZERO PUSH2 0x2D06 JUMPI DUP1 DUP2 REVERT JUMPDEST POP CALLDATALOAD SWAP2 SWAP1 POP JUMP JUMPDEST PUSH1 0x0 PUSH1 0x20 DUP3 DUP5 SUB SLT ISZERO PUSH2 0x2D1E JUMPI DUP1 DUP2 REVERT JUMPDEST POP MLOAD SWAP2 SWAP1 POP JUMP JUMPDEST PUSH1 0x20 DUP1 DUP3 MSTORE DUP3 MLOAD DUP3 DUP3 ADD DUP2 SWAP1 MSTORE PUSH1 0x0 SWAP2 SWAP1 DUP5 DUP3 ADD SWAP1 PUSH1 0x40 DUP6 ADD SWAP1 DUP5 JUMPDEST DUP2 DUP2 LT ISZERO PUSH2 0x2D5D JUMPI DUP4 MLOAD DUP4 MSTORE SWAP3 DUP5 ADD SWAP3 SWAP2 DUP5 ADD SWAP2 PUSH1 0x1 ADD PUSH2 0x2D41 JUMP JUMPDEST POP SWAP1 SWAP7 SWAP6 POP POP POP POP POP POP JUMP JUMPDEST PUSH1 0x20 DUP1 DUP3 MSTORE PUSH1 0x15 SWAP1 DUP3 ADD MSTORE PUSH21 0x18D85B1B195C881B9BDD08185D5D1A1BDC9A5E9959 PUSH1 0x5A SHL PUSH1 0x40 DUP3 ADD MSTORE PUSH1 0x60 ADD SWAP1 JUMP JUMPDEST PUSH1 0x0 DUP3 NOT DUP3 GT ISZERO PUSH2 0x2DAB JUMPI PUSH2 0x2DAB PUSH2 0x2E21 JUMP JUMPDEST POP ADD SWAP1 JUMP JUMPDEST PUSH1 0x0 DUP3 PUSH2 0x2DCB JUMPI PUSH4 0x4E487B71 PUSH1 0xE0 SHL DUP2 MSTORE PUSH1 0x12 PUSH1 0x4 MSTORE PUSH1 0x24 DUP2 REVERT JUMPDEST POP DIV SWAP1 JUMP JUMPDEST PUSH1 0x0 DUP2 PUSH1 0x0 NOT DIV DUP4 GT DUP3 ISZERO ISZERO AND ISZERO PUSH2 0x2DEA JUMPI PUSH2 0x2DEA PUSH2 0x2E21 JUMP JUMPDEST POP MUL SWAP1 JUMP JUMPDEST PUSH1 0x0 DUP3 DUP3 LT ISZERO PUSH2 0x2E01 JUMPI PUSH2 0x2E01 PUSH2 0x2E21 JUMP JUMPDEST POP SUB SWAP1 JUMP JUMPDEST PUSH1 0x0 PUSH1 0x0 NOT DUP3 EQ ISZERO PUSH2 0x2E1A JUMPI PUSH2 0x2E1A PUSH2 0x2E21 JUMP JUMPDEST POP PUSH1 0x1 ADD SWAP1 JUMP JUMPDEST PUSH4 0x4E487B71 PUSH1 0xE0 SHL PUSH1 0x0 MSTORE PUSH1 0x11 PUSH1 0x4 MSTORE PUSH1 0x24 PUSH1 0x0 REVERT JUMPDEST PUSH1 0x1 PUSH1 0x1 PUSH1 0xA0 SHL SUB DUP2 AND DUP2 EQ PUSH2 0x328 JUMPI PUSH1 0x0 DUP1 REVERT JUMPDEST DUP1 ISZERO ISZERO DUP2 EQ PUSH2 0x328 JUMPI PUSH1 0x0 DUP1 REVERT INVALID LOG2 PUSH5 0x6970667358 0x22 SLT KECCAK256 SHL 0xAA 0xCC SAR 0xC2 0xE2 0x24 SWAP6 0xA8 POP LOG1 0x4D SIGNEXTEND 0xD 0x4E 0xD6 0xC5 0xD1 EXTCODECOPY 0x1F 0xDF 0xC6 0x4A 0xC7 TIMESTAMP 0x5E 0xCA 0x48 0xD3 SAR 0xD3 0xE PUSH5 0x736F6C6343 STOP ADDMOD DIV STOP CALLER "
				},
				"gasEstimates": {
					"creation": {
						"codeDepositCost": "2384000",
						"executionCost": "infinite",
						"totalCost": "infinite"
					},
					"external": {
						"addBet(address,uint256,uint256,uint256,bool)": "infinite",
						"cancel()": "infinite",
						"cancelBet(bytes32)": "infinite",
						"cancelPlusPairs()": "infinite",
						"getBalance(address)": "1308",
						"getBet(bytes32)": "5771",
						"getUserBets(address)": "infinite",
						"marketEvent()": "infinite",
						"setWinningSide(uint256)": "infinite",
						"settle(uint256)": "infinite",
						"settleBet(bytes32)": "infinite",
						"start()": "infinite",
						"status()": "1008",
						"withdraw(address)": "infinite",
						"withdrawPending(bytes32)": "infinite"
					},
					"internal": {
						"_cancelBetPairs(bytes32)": "infinite",
						"_cancelPair(bytes32)": "infinite",
						"_createBet(address,address,uint256,uint256,uint256,uint256)": "infinite",
						"_createPair(bytes32,bytes32,uint256,uint256)": "infinite",
						"_match(uint256,uint256,uint256,uint256,bytes32,bytes32)": "infinite",
						"_settlePair(bytes32)": "infinite"
					}
				},
				"methodIdentifiers": {
					"addBet(address,uint256,uint256,uint256,bool)": "ba8006c6",
					"cancel()": "ea8a1af0",
					"cancelBet(bytes32)": "2940ff1e",
					"cancelPlusPairs()": "ae8cd090",
					"getBalance(address)": "f8b2cb4f",
					"getBet(bytes32)": "37e8c09e",
					"getUserBets(address)": "2d56657d",
					"marketEvent()": "7a47d494",
					"setWinningSide(uint256)": "d0ed7295",
					"settle(uint256)": "8df82800",
					"settleBet(bytes32)": "675f6537",
					"start()": "be9a6555",
					"status()": "200d2ed2",
					"withdraw(address)": "51cff8d9",
					"withdrawPending(bytes32)": "7d7f9232"
				}
			},
			"storageLayout": {
				"storage": [
					{
						"astId": 10,
						"contract": "contracts/Market.sol:Market",
						"label": "_status",
						"offset": 0,
						"slot": "0",
						"type": "t_uint256"
					},
					{
						"astId": 131,
						"contract": "contracts/Market.sol:Market",
						"label": "factory",
						"offset": 0,
						"slot": "1",
						"type": "t_address"
					},
					{
						"astId": 135,
						"contract": "contracts/Market.sol:Market",
						"label": "status",
						"offset": 0,
						"slot": "2",
						"type": "t_uint256"
					},
					{
						"astId": 138,
						"contract": "contracts/Market.sol:Market",
						"label": "pairs",
						"offset": 0,
						"slot": "3",
						"type": "t_array(t_bytes32)dyn_storage"
					},
					{
						"astId": 141,
						"contract": "contracts/Market.sol:Market",
						"label": "bets",
						"offset": 0,
						"slot": "4",
						"type": "t_array(t_bytes32)dyn_storage"
					},
					{
						"astId": 145,
						"contract": "contracts/Market.sol:Market",
						"label": "bal",
						"offset": 0,
						"slot": "5",
						"type": "t_mapping(t_address,t_uint256)"
					},
					{
						"astId": 150,
						"contract": "contracts/Market.sol:Market",
						"label": "betsInfo",
						"offset": 0,
						"slot": "6",
						"type": "t_mapping(t_bytes32,t_struct(MarketBet)1986_storage)"
					},
					{
						"astId": 155,
						"contract": "contracts/Market.sol:Market",
						"label": "userBets",
						"offset": 0,
						"slot": "7",
						"type": "t_mapping(t_address,t_array(t_bytes32)dyn_storage)"
					},
					{
						"astId": 160,
						"contract": "contracts/Market.sol:Market",
						"label": "pairsInfo",
						"offset": 0,
						"slot": "8",
						"type": "t_mapping(t_bytes32,t_struct(MarketPair)1997_storage)"
					},
					{
						"astId": 165,
						"contract": "contracts/Market.sol:Market",
						"label": "betPairs",
						"offset": 0,
						"slot": "9",
						"type": "t_mapping(t_bytes32,t_array(t_bytes32)dyn_storage)"
					},
					{
						"astId": 171,
						"contract": "contracts/Market.sol:Market",
						"label": "app",
						"offset": 0,
						"slot": "10",
						"type": "t_contract(IWeb3BetsFO)1971"
					}
				],
				"types": {
					"t_address": {
						"encoding": "inplace",
						"label": "address",
						"numberOfBytes": "20"
					},
					"t_array(t_bytes32)dyn_storage": {
						"base": "t_bytes32",
						"encoding": "dynamic_array",
						"label": "bytes32[]",
						"numberOfBytes": "32"
					},
					"t_bool": {
						"encoding": "inplace",
						"label": "bool",
						"numberOfBytes": "1"
					},
					"t_bytes32": {
						"encoding": "inplace",
						"label": "bytes32",
						"numberOfBytes": "32"
					},
					"t_contract(IWeb3BetsFO)1971": {
						"encoding": "inplace",
						"label": "contract IWeb3BetsFO",
						"numberOfBytes": "20"
					},
					"t_mapping(t_address,t_array(t_bytes32)dyn_storage)": {
						"encoding": "mapping",
						"key": "t_address",
						"label": "mapping(address => bytes32[])",
						"numberOfBytes": "32",
						"value": "t_array(t_bytes32)dyn_storage"
					},
					"t_mapping(t_address,t_uint256)": {
						"encoding": "mapping",
						"key": "t_address",
						"label": "mapping(address => uint256)",
						"numberOfBytes": "32",
						"value": "t_uint256"
					},
					"t_mapping(t_bytes32,t_array(t_bytes32)dyn_storage)": {
						"encoding": "mapping",
						"key": "t_bytes32",
						"label": "mapping(bytes32 => bytes32[])",
						"numberOfBytes": "32",
						"value": "t_array(t_bytes32)dyn_storage"
					},
					"t_mapping(t_bytes32,t_struct(MarketBet)1986_storage)": {
						"encoding": "mapping",
						"key": "t_bytes32",
						"label": "mapping(bytes32 => struct Struct.MarketBet)",
						"numberOfBytes": "32",
						"value": "t_struct(MarketBet)1986_storage"
					},
					"t_mapping(t_bytes32,t_struct(MarketPair)1997_storage)": {
						"encoding": "mapping",
						"key": "t_bytes32",
						"label": "mapping(bytes32 => struct Struct.MarketPair)",
						"numberOfBytes": "32",
						"value": "t_struct(MarketPair)1997_storage"
					},
					"t_struct(MarketBet)1986_storage": {
						"encoding": "inplace",
						"label": "struct Struct.MarketBet",
						"members": [
							{
								"astId": 1975,
								"contract": "contracts/Market.sol:Market",
								"label": "better",
								"offset": 0,
								"slot": "0",
								"type": "t_address"
							},
							{
								"astId": 1977,
								"contract": "contracts/Market.sol:Market",
								"label": "affiliate",
								"offset": 0,
								"slot": "1",
								"type": "t_address"
							},
							{
								"astId": 1979,
								"contract": "contracts/Market.sol:Market",
								"label": "stake",
								"offset": 0,
								"slot": "2",
								"type": "t_uint256"
							},
							{
								"astId": 1981,
								"contract": "contracts/Market.sol:Market",
								"label": "matched",
								"offset": 0,
								"slot": "3",
								"type": "t_uint256"
							},
							{
								"astId": 1983,
								"contract": "contracts/Market.sol:Market",
								"label": "odds",
								"offset": 0,
								"slot": "4",
								"type": "t_uint256"
							},
							{
								"astId": 1985,
								"contract": "contracts/Market.sol:Market",
								"label": "side",
								"offset": 0,
								"slot": "5",
								"type": "t_uint256"
							}
						],
						"numberOfBytes": "192"
					},
					"t_struct(MarketPair)1997_storage": {
						"encoding": "inplace",
						"label": "struct Struct.MarketPair",
						"members": [
							{
								"astId": 1988,
								"contract": "contracts/Market.sol:Market",
								"label": "betHashA",
								"offset": 0,
								"slot": "0",
								"type": "t_bytes32"
							},
							{
								"astId": 1990,
								"contract": "contracts/Market.sol:Market",
								"label": "betHashB",
								"offset": 0,
								"slot": "1",
								"type": "t_bytes32"
							},
							{
								"astId": 1992,
								"contract": "contracts/Market.sol:Market",
								"label": "amountA",
								"offset": 0,
								"slot": "2",
								"type": "t_uint256"
							},
							{
								"astId": 1994,
								"contract": "contracts/Market.sol:Market",
								"label": "amountB",
								"offset": 0,
								"slot": "3",
								"type": "t_uint256"
							},
							{
								"astId": 1996,
								"contract": "contracts/Market.sol:Market",
								"label": "settled",
								"offset": 0,
								"slot": "4",
								"type": "t_bool"
							}
						],
						"numberOfBytes": "160"
					},
					"t_uint256": {
						"encoding": "inplace",
						"label": "uint256",
						"numberOfBytes": "32"
					}
				}
			},
			"userdoc": {
				"kind": "user",
				"methods": {},
				"version": 1
			}
		}
	}
}