{
	"contracts/Web3BetsFO.sol": {
		"Web3BetsFO": {
			"abi": [
				{
					"inputs": [],
					"stateMutability": "nonpayable",
					"type": "constructor"
				},
				{
					"inputs": [
						{
							"internalType": "address",
							"name": "_addr",
							"type": "address"
						}
					],
					"name": "addBlacked",
					"outputs": [],
					"stateMutability": "nonpayable",
					"type": "function"
				},
				{
					"inputs": [
						{
							"internalType": "address",
							"name": "_addr",
							"type": "address"
						}
					],
					"name": "addEventAdmin",
					"outputs": [],
					"stateMutability": "nonpayable",
					"type": "function"
				},
				{
					"inputs": [
						{
							"internalType": "address",
							"name": "_addr",
							"type": "address"
						}
					],
					"name": "addSystemAdmin",
					"outputs": [],
					"stateMutability": "nonpayable",
					"type": "function"
				},
				{
					"inputs": [
						{
							"internalType": "address",
							"name": "",
							"type": "address"
						}
					],
					"name": "admins",
					"outputs": [
						{
							"internalType": "address",
							"name": "",
							"type": "address"
						}
					],
					"stateMutability": "view",
					"type": "function"
				},
				{
					"inputs": [],
					"name": "betFactory",
					"outputs": [
						{
							"internalType": "address",
							"name": "",
							"type": "address"
						}
					],
					"stateMutability": "view",
					"type": "function"
				},
				{
					"inputs": [
						{
							"internalType": "uint256",
							"name": "",
							"type": "uint256"
						}
					],
					"name": "blackList",
					"outputs": [
						{
							"internalType": "address",
							"name": "",
							"type": "address"
						}
					],
					"stateMutability": "view",
					"type": "function"
				},
				{
					"inputs": [
						{
							"internalType": "address",
							"name": "",
							"type": "address"
						}
					],
					"name": "blacked",
					"outputs": [
						{
							"internalType": "address",
							"name": "",
							"type": "address"
						}
					],
					"stateMutability": "view",
					"type": "function"
				},
				{
					"inputs": [],
					"name": "contractOwner",
					"outputs": [
						{
							"internalType": "address",
							"name": "",
							"type": "address"
						}
					],
					"stateMutability": "view",
					"type": "function"
				},
				{
					"inputs": [
						{
							"internalType": "address",
							"name": "_eventOwner",
							"type": "address"
						}
					],
					"name": "deleteEventAdmin",
					"outputs": [],
					"stateMutability": "nonpayable",
					"type": "function"
				},
				{
					"inputs": [
						{
							"internalType": "address",
							"name": "_systemAdmin",
							"type": "address"
						}
					],
					"name": "deleteSystemAdmin",
					"outputs": [],
					"stateMutability": "nonpayable",
					"type": "function"
				},
				{
					"inputs": [],
					"name": "ecosystemAddress",
					"outputs": [
						{
							"internalType": "address",
							"name": "",
							"type": "address"
						}
					],
					"stateMutability": "view",
					"type": "function"
				},
				{
					"inputs": [],
					"name": "ecosystemVig",
					"outputs": [
						{
							"internalType": "uint256",
							"name": "",
							"type": "uint256"
						}
					],
					"stateMutability": "view",
					"type": "function"
				},
				{
					"inputs": [
						{
							"internalType": "uint256",
							"name": "",
							"type": "uint256"
						}
					],
					"name": "eventAdmins",
					"outputs": [
						{
							"internalType": "address",
							"name": "",
							"type": "address"
						}
					],
					"stateMutability": "view",
					"type": "function"
				},
				{
					"inputs": [],
					"name": "eventFactory",
					"outputs": [
						{
							"internalType": "address",
							"name": "",
							"type": "address"
						}
					],
					"stateMutability": "view",
					"type": "function"
				},
				{
					"inputs": [
						{
							"internalType": "address",
							"name": "",
							"type": "address"
						}
					],
					"name": "eventOwners",
					"outputs": [
						{
							"internalType": "address",
							"name": "",
							"type": "address"
						}
					],
					"stateMutability": "view",
					"type": "function"
				},
				{
					"inputs": [],
					"name": "holdersAddress",
					"outputs": [
						{
							"internalType": "address",
							"name": "",
							"type": "address"
						}
					],
					"stateMutability": "view",
					"type": "function"
				},
				{
					"inputs": [],
					"name": "holdersVig",
					"outputs": [
						{
							"internalType": "uint256",
							"name": "",
							"type": "uint256"
						}
					],
					"stateMutability": "view",
					"type": "function"
				},
				{
					"inputs": [
						{
							"internalType": "address",
							"name": "_addr",
							"type": "address"
						}
					],
					"name": "isBlack",
					"outputs": [
						{
							"internalType": "bool",
							"name": "",
							"type": "bool"
						}
					],
					"stateMutability": "view",
					"type": "function"
				},
				{
					"inputs": [
						{
							"internalType": "address",
							"name": "_addr",
							"type": "address"
						}
					],
					"name": "isEventAdmin",
					"outputs": [
						{
							"internalType": "bool",
							"name": "",
							"type": "bool"
						}
					],
					"stateMutability": "view",
					"type": "function"
				},
				{
					"inputs": [
						{
							"internalType": "address",
							"name": "_addr",
							"type": "address"
						}
					],
					"name": "isSystemAdmin",
					"outputs": [
						{
							"internalType": "bool",
							"name": "",
							"type": "bool"
						}
					],
					"stateMutability": "view",
					"type": "function"
				},
				{
					"inputs": [],
					"name": "marketFactory",
					"outputs": [
						{
							"internalType": "address",
							"name": "",
							"type": "address"
						}
					],
					"stateMutability": "view",
					"type": "function"
				},
				{
					"inputs": [
						{
							"internalType": "address",
							"name": "_eventOwner",
							"type": "address"
						}
					],
					"name": "removeBlacked",
					"outputs": [],
					"stateMutability": "nonpayable",
					"type": "function"
				},
				{
					"inputs": [
						{
							"internalType": "address",
							"name": "holdAddr",
							"type": "address"
						},
						{
							"internalType": "address",
							"name": "ecoAddr",
							"type": "address"
						},
						{
							"internalType": "address",
							"name": "scAddr",
							"type": "address"
						}
					],
					"name": "setAddresses",
					"outputs": [],
					"stateMutability": "nonpayable",
					"type": "function"
				},
				{
					"inputs": [
						{
							"internalType": "address",
							"name": "_factory",
							"type": "address"
						}
					],
					"name": "setBetFactory",
					"outputs": [],
					"stateMutability": "nonpayable",
					"type": "function"
				},
				{
					"inputs": [
						{
							"internalType": "address",
							"name": "_factory",
							"type": "address"
						}
					],
					"name": "setFactory",
					"outputs": [],
					"stateMutability": "nonpayable",
					"type": "function"
				},
				{
					"inputs": [
						{
							"internalType": "address",
							"name": "_factory",
							"type": "address"
						}
					],
					"name": "setMarketFactory",
					"outputs": [],
					"stateMutability": "nonpayable",
					"type": "function"
				},
				{
					"inputs": [
						{
							"internalType": "uint256",
							"name": "_percentage",
							"type": "uint256"
						}
					],
					"name": "setVigPercentage",
					"outputs": [],
					"stateMutability": "nonpayable",
					"type": "function"
				},
				{
					"inputs": [
						{
							"internalType": "uint256",
							"name": "hVig",
							"type": "uint256"
						},
						{
							"internalType": "uint256",
							"name": "eVig",
							"type": "uint256"
						}
					],
					"name": "setVigPercentageShares",
					"outputs": [],
					"stateMutability": "nonpayable",
					"type": "function"
				},
				{
					"inputs": [],
					"name": "shareBetEarnings",
					"outputs": [],
					"stateMutability": "nonpayable",
					"type": "function"
				},
				{
					"inputs": [],
					"name": "stableCoin",
					"outputs": [
						{
							"internalType": "address",
							"name": "",
							"type": "address"
						}
					],
					"stateMutability": "view",
					"type": "function"
				},
				{
					"inputs": [
						{
							"internalType": "uint256",
							"name": "",
							"type": "uint256"
						}
					],
					"name": "systemAdmins",
					"outputs": [
						{
							"internalType": "address",
							"name": "",
							"type": "address"
						}
					],
					"stateMutability": "view",
					"type": "function"
				},
				{
					"inputs": [],
					"name": "vigPercentage",
					"outputs": [
						{
							"internalType": "uint256",
							"name": "",
							"type": "uint256"
						}
					],
					"stateMutability": "view",
					"type": "function"
				}
			],
			"devdoc": {
				"author": "Victor Okoro",
				"custom:security": "contact okoro.victor@web3bets.io",
				"kind": "dev",
				"methods": {},
				"title": "Web3Bets Contract for FixedOdds decentralized betting exchange",
				"version": 1
			},
			"evm": {
				"assembly": "    /* \"contracts/Web3BetsFO.sol\":548:7562  contract Web3BetsFO is IWeb3BetsFO {... */\n  mstore(0x40, 0x80)\n    /* \"contracts/Web3BetsFO.sol\":955:957  50 */\n  0x32\n    /* \"contracts/Web3BetsFO.sol\":918:957  uint256 public override holdersVig = 50 */\n  0x07\n  dup2\n  swap1\n  sstore\n    /* \"contracts/Web3BetsFO.sol\":963:1004  uint256 public override ecosystemVig = 50 */\n  0x08\n  sstore\n    /* \"contracts/Web3BetsFO.sol\":1050:1052  10 */\n  0x0a\n    /* \"contracts/Web3BetsFO.sol\":1010:1052  uint256 public override vigPercentage = 10 */\n  0x09\n  sstore\n    /* \"contracts/Web3BetsFO.sol\":1352:1362  stableCoin */\n  sload(0x03)\n    /* \"contracts/Web3BetsFO.sol\":1309:1363  IERC20 private _stableCoinWrapper = IERC20(stableCoin) */\n  0x10\n  dup1\n  sload\n  not(sub(shl(0xa0, 0x01), 0x01))\n  and\n  sub(shl(0xa0, 0x01), 0x01)\n    /* \"contracts/Web3BetsFO.sol\":1352:1362  stableCoin */\n  swap1\n  swap3\n  and\n    /* \"contracts/Web3BetsFO.sol\":1309:1363  IERC20 private _stableCoinWrapper = IERC20(stableCoin) */\n  swap2\n  swap1\n  swap2\n  or\n  swap1\n  sstore\n    /* \"contracts/Web3BetsFO.sol\":2120:2177  constructor() {... */\n  callvalue\n  dup1\n  iszero\n  tag_1\n  jumpi\n  0x00\n  dup1\n  revert\ntag_1:\n  pop\n    /* \"contracts/Web3BetsFO.sol\":2144:2157  contractOwner */\n  0x00\n    /* \"contracts/Web3BetsFO.sol\":2144:2170  contractOwner = msg.sender */\n  dup1\n  sload\n  not(sub(shl(0xa0, 0x01), 0x01))\n  and\n    /* \"contracts/Web3BetsFO.sol\":2160:2170  msg.sender */\n  caller\n    /* \"contracts/Web3BetsFO.sol\":2144:2170  contractOwner = msg.sender */\n  or\n  swap1\n  sstore\n    /* \"contracts/Web3BetsFO.sol\":548:7562  contract Web3BetsFO is IWeb3BetsFO {... */\n  dataSize(sub_0)\n  dup1\n  dataOffset(sub_0)\n  0x00\n  codecopy\n  0x00\n  return\nstop\n\nsub_0: assembly {\n        /* \"contracts/Web3BetsFO.sol\":548:7562  contract Web3BetsFO is IWeb3BetsFO {... */\n      mstore(0x40, 0x80)\n      callvalue\n      dup1\n      iszero\n      tag_1\n      jumpi\n      0x00\n      dup1\n      revert\n    tag_1:\n      pop\n      jumpi(tag_2, lt(calldatasize, 0x04))\n      shr(0xe0, calldataload(0x00))\n      dup1\n      0x6fdbd3f6\n      gt\n      tag_35\n      jumpi\n      dup1\n      0xcb146622\n      gt\n      tag_36\n      jumpi\n      dup1\n      0xd6c1ca26\n      gt\n      tag_37\n      jumpi\n      dup1\n      0xd6c1ca26\n      eq\n      tag_31\n      jumpi\n      dup1\n      0xe3c0ed78\n      eq\n      tag_32\n      jumpi\n      dup1\n      0xed9f7eb9\n      eq\n      tag_33\n      jumpi\n      dup1\n      0xf2210b2c\n      eq\n      tag_34\n      jumpi\n      0x00\n      dup1\n      revert\n    tag_37:\n      dup1\n      0xcb146622\n      eq\n      tag_27\n      jumpi\n      dup1\n      0xce606ee0\n      eq\n      tag_28\n      jumpi\n      dup1\n      0xd37e87fd\n      eq\n      tag_29\n      jumpi\n      dup1\n      0xd5494869\n      eq\n      tag_30\n      jumpi\n      0x00\n      dup1\n      revert\n    tag_36:\n      dup1\n      0x89fefbe1\n      gt\n      tag_38\n      jumpi\n      dup1\n      0x89fefbe1\n      eq\n      tag_23\n      jumpi\n      dup1\n      0x9376b94c\n      eq\n      tag_24\n      jumpi\n      dup1\n      0x992642e5\n      eq\n      tag_25\n      jumpi\n      dup1\n      0x9b460aa9\n      eq\n      tag_26\n      jumpi\n      0x00\n      dup1\n      revert\n    tag_38:\n      dup1\n      0x6fdbd3f6\n      eq\n      tag_19\n      jumpi\n      dup1\n      0x709ec8b4\n      eq\n      tag_20\n      jumpi\n      dup1\n      0x80036b34\n      eq\n      tag_21\n      jumpi\n      dup1\n      0x85d8349b\n      eq\n      tag_22\n      jumpi\n      0x00\n      dup1\n      revert\n    tag_35:\n      dup1\n      0x429b62e5\n      gt\n      tag_39\n      jumpi\n      dup1\n      0x4fb43199\n      gt\n      tag_40\n      jumpi\n      dup1\n      0x4fb43199\n      eq\n      tag_15\n      jumpi\n      dup1\n      0x5bb47808\n      eq\n      tag_16\n      jumpi\n      dup1\n      0x64886880\n      eq\n      tag_17\n      jumpi\n      dup1\n      0x681ada8c\n      eq\n      tag_18\n      jumpi\n      0x00\n      dup1\n      revert\n    tag_40:\n      dup1\n      0x429b62e5\n      eq\n      tag_11\n      jumpi\n      dup1\n      0x486d1e50\n      eq\n      tag_12\n      jumpi\n      dup1\n      0x4d161324\n      eq\n      tag_13\n      jumpi\n      dup1\n      0x4dcc434a\n      eq\n      tag_14\n      jumpi\n      0x00\n      dup1\n      revert\n    tag_39:\n      dup1\n      0x2e1a9618\n      gt\n      tag_41\n      jumpi\n      dup1\n      0x2e1a9618\n      eq\n      tag_7\n      jumpi\n      dup1\n      0x332daccf\n      eq\n      tag_8\n      jumpi\n      dup1\n      0x363bf964\n      eq\n      tag_9\n      jumpi\n      dup1\n      0x387440e6\n      eq\n      tag_10\n      jumpi\n      0x00\n      dup1\n      revert\n    tag_41:\n      dup1\n      0x026c1a4d\n      eq\n      tag_3\n      jumpi\n      dup1\n      0x06a5cb3a\n      eq\n      tag_4\n      jumpi\n      dup1\n      0x06ae7095\n      eq\n      tag_5\n      jumpi\n      dup1\n      0x0da4ee50\n      eq\n      tag_6\n      jumpi\n    tag_2:\n      0x00\n      dup1\n      revert\n        /* \"contracts/Web3BetsFO.sol\":1059:1088  address[] public systemAdmins */\n    tag_3:\n      tag_42\n      tag_43\n      calldatasize\n      0x04\n      tag_44\n      jump\t// in\n    tag_43:\n      tag_45\n      jump\t// in\n    tag_42:\n      mload(0x40)\n      sub(shl(0xa0, 0x01), 0x01)\n        /* \"#utility.yul\":2144:2176   */\n      swap1\n      swap2\n      and\n        /* \"#utility.yul\":2126:2177   */\n      dup2\n      mstore\n        /* \"#utility.yul\":2114:2116   */\n      0x20\n        /* \"#utility.yul\":2099:2117   */\n      add\n        /* \"contracts/Web3BetsFO.sol\":1059:1088  address[] public systemAdmins */\n    tag_46:\n      mload(0x40)\n      dup1\n      swap2\n      sub\n      swap1\n      return\n        /* \"contracts/Web3BetsFO.sol\":661:701  address public override ecosystemAddress */\n    tag_4:\n      sload(0x01)\n      tag_42\n      swap1\n      sub(shl(0xa0, 0x01), 0x01)\n      and\n      dup2\n      jump\n        /* \"contracts/Web3BetsFO.sol\":834:871  address public override marketFactory */\n    tag_5:\n      sload(0x05)\n      tag_42\n      swap1\n      sub(shl(0xa0, 0x01), 0x01)\n      and\n      dup2\n      jump\n        /* \"contracts/Web3BetsFO.sol\":707:745  address public override holdersAddress */\n    tag_6:\n      sload(0x02)\n      tag_42\n      swap1\n      sub(shl(0xa0, 0x01), 0x01)\n      and\n      dup2\n      jump\n        /* \"contracts/Web3BetsFO.sol\":877:911  address public override betFactory */\n    tag_7:\n      sload(0x06)\n      tag_42\n      swap1\n      sub(shl(0xa0, 0x01), 0x01)\n      and\n      dup2\n      jump\n        /* \"contracts/Web3BetsFO.sol\":7125:7559  function isBlack(address _addr) public view override returns (bool) {... */\n    tag_8:\n      tag_60\n      tag_61\n      calldatasize\n      0x04\n      tag_62\n      jump\t// in\n    tag_61:\n      tag_63\n      jump\t// in\n    tag_60:\n      mload(0x40)\n        /* \"#utility.yul\":2632:2646   */\n      swap1\n      iszero\n        /* \"#utility.yul\":2625:2647   */\n      iszero\n        /* \"#utility.yul\":2607:2648   */\n      dup2\n      mstore\n        /* \"#utility.yul\":2595:2597   */\n      0x20\n        /* \"#utility.yul\":2580:2598   */\n      add\n        /* \"contracts/Web3BetsFO.sol\":7125:7559  function isBlack(address _addr) public view override returns (bool) {... */\n      tag_46\n        /* \"#utility.yul\":2562:2654   */\n      jump\n        /* \"contracts/Web3BetsFO.sol\":2187:2391  function setAddresses(address holdAddr, address ecoAddr,address scAddr) external onlySystemAdmin {... */\n    tag_9:\n      tag_66\n      tag_67\n      calldatasize\n      0x04\n      tag_68\n      jump\t// in\n    tag_67:\n      tag_69\n      jump\t// in\n    tag_66:\n      stop\n        /* \"contracts/Web3BetsFO.sol\":1010:1052  uint256 public override vigPercentage = 10 */\n    tag_10:\n      tag_70\n      sload(0x09)\n      dup2\n      jump\n    tag_70:\n      mload(0x40)\n        /* \"#utility.yul\":9267:9292   */\n      swap1\n      dup2\n      mstore\n        /* \"#utility.yul\":9255:9257   */\n      0x20\n        /* \"#utility.yul\":9240:9258   */\n      add\n        /* \"contracts/Web3BetsFO.sol\":1010:1052  uint256 public override vigPercentage = 10 */\n      tag_46\n        /* \"#utility.yul\":9222:9298   */\n      jump\n        /* \"contracts/Web3BetsFO.sol\":1161:1202  mapping(address => address) public admins */\n    tag_11:\n      tag_42\n      tag_75\n      calldatasize\n      0x04\n      tag_62\n      jump\t// in\n    tag_75:\n      mstore(0x20, 0x0d)\n      0x00\n      swap1\n      dup2\n      mstore\n      0x40\n      swap1\n      keccak256\n      sload\n      sub(shl(0xa0, 0x01), 0x01)\n      and\n      dup2\n      jump\n        /* \"contracts/Web3BetsFO.sol\":918:957  uint256 public override holdersVig = 50 */\n    tag_12:\n      tag_70\n      sload(0x07)\n      dup2\n      jump\n        /* \"contracts/Web3BetsFO.sol\":3460:4094  function shareBetEarnings() external override {... */\n    tag_13:\n      tag_66\n      tag_82\n      jump\t// in\n        /* \"contracts/Web3BetsFO.sol\":2506:2616  function setMarketFactory(address _factory) external onlySystemAdmin {... */\n    tag_14:\n      tag_66\n      tag_84\n      calldatasize\n      0x04\n      tag_62\n      jump\t// in\n    tag_84:\n      tag_85\n      jump\t// in\n        /* \"contracts/Web3BetsFO.sol\":6221:6666  function isSystemAdmin(address _addr) public view override returns (bool) {... */\n    tag_15:\n      tag_60\n      tag_87\n      calldatasize\n      0x04\n      tag_62\n      jump\t// in\n    tag_87:\n      tag_88\n      jump\t// in\n        /* \"contracts/Web3BetsFO.sol\":2397:2500  function setFactory(address _factory) external onlySystemAdmin {... */\n    tag_16:\n      tag_66\n      tag_91\n      calldatasize\n      0x04\n      tag_62\n      jump\t// in\n    tag_91:\n      tag_92\n      jump\t// in\n        /* \"contracts/Web3BetsFO.sol\":2993:3454  function setVigPercentageShares(... */\n    tag_17:\n      tag_66\n      tag_94\n      calldatasize\n      0x04\n      tag_95\n      jump\t// in\n    tag_94:\n      tag_96\n      jump\t// in\n        /* \"contracts/Web3BetsFO.sol\":5827:6215  function removeBlacked(address _eventOwner) external onlySystemAdmin {... */\n    tag_18:\n      tag_66\n      tag_98\n      calldatasize\n      0x04\n      tag_62\n      jump\t// in\n    tag_98:\n      tag_99\n      jump\t// in\n        /* \"contracts/Web3BetsFO.sol\":792:828  address public override eventFactory */\n    tag_19:\n      sload(0x04)\n      tag_42\n      swap1\n      sub(shl(0xa0, 0x01), 0x01)\n      and\n      dup2\n      jump\n        /* \"contracts/Web3BetsFO.sol\":1128:1154  address[] public blackList */\n    tag_20:\n      tag_42\n      tag_104\n      calldatasize\n      0x04\n      tag_44\n      jump\t// in\n    tag_104:\n      tag_105\n      jump\t// in\n        /* \"contracts/Web3BetsFO.sol\":1260:1302  mapping(address => address) public blacked */\n    tag_21:\n      tag_42\n      tag_108\n      calldatasize\n      0x04\n      tag_62\n      jump\t// in\n    tag_108:\n      mstore(0x20, 0x0f)\n      0x00\n      swap1\n      dup2\n      mstore\n      0x40\n      swap1\n      keccak256\n      sload\n      sub(shl(0xa0, 0x01), 0x01)\n      and\n      dup2\n      jump\n        /* \"contracts/Web3BetsFO.sol\":1208:1254  mapping(address => address) public eventOwners */\n    tag_22:\n      tag_42\n      tag_112\n      calldatasize\n      0x04\n      tag_62\n      jump\t// in\n    tag_112:\n      mstore(0x20, 0x0e)\n      0x00\n      swap1\n      dup2\n      mstore\n      0x40\n      swap1\n      keccak256\n      sload\n      sub(shl(0xa0, 0x01), 0x01)\n      and\n      dup2\n      jump\n        /* \"contracts/Web3BetsFO.sol\":2622:2726  function setBetFactory(address _factory) external onlySystemAdmin {... */\n    tag_23:\n      tag_66\n      tag_116\n      calldatasize\n      0x04\n      tag_62\n      jump\t// in\n    tag_116:\n      tag_117\n      jump\t// in\n        /* \"contracts/Web3BetsFO.sol\":963:1004  uint256 public override ecosystemVig = 50 */\n    tag_24:\n      tag_70\n      sload(0x08)\n      dup2\n      jump\n        /* \"contracts/Web3BetsFO.sol\":751:785  address public override stableCoin */\n    tag_25:\n      sload(0x03)\n      tag_42\n      swap1\n      sub(shl(0xa0, 0x01), 0x01)\n      and\n      dup2\n      jump\n        /* \"contracts/Web3BetsFO.sol\":5638:5821  function addBlacked(address _addr)... */\n    tag_26:\n      tag_66\n      tag_125\n      calldatasize\n      0x04\n      tag_62\n      jump\t// in\n    tag_125:\n      tag_126\n      jump\t// in\n        /* \"contracts/Web3BetsFO.sol\":6672:7119  function isEventAdmin(address _addr) public view override returns (bool) {... */\n    tag_27:\n      tag_60\n      tag_128\n      calldatasize\n      0x04\n      tag_62\n      jump\t// in\n    tag_128:\n      tag_129\n      jump\t// in\n        /* \"contracts/Web3BetsFO.sol\":622:650  address public contractOwner */\n    tag_28:\n      sload(0x00)\n      tag_42\n      swap1\n      sub(shl(0xa0, 0x01), 0x01)\n      and\n      dup2\n      jump\n        /* \"contracts/Web3BetsFO.sol\":1094:1122  address[] public eventAdmins */\n    tag_29:\n      tag_42\n      tag_135\n      calldatasize\n      0x04\n      tag_44\n      jump\t// in\n    tag_135:\n      tag_136\n      jump\t// in\n        /* \"contracts/Web3BetsFO.sol\":4456:4852  function deleteSystemAdmin(address _systemAdmin) external onlyUser {... */\n    tag_30:\n      tag_66\n      tag_139\n      calldatasize\n      0x04\n      tag_62\n      jump\t// in\n    tag_139:\n      tag_140\n      jump\t// in\n        /* \"contracts/Web3BetsFO.sol\":2732:2987  function setVigPercentage(uint256 _percentage) external onlySystemAdmin {... */\n    tag_31:\n      tag_66\n      tag_142\n      calldatasize\n      0x04\n      tag_44\n      jump\t// in\n    tag_142:\n      tag_143\n      jump\t// in\n        /* \"contracts/Web3BetsFO.sol\":4862:5217  function addEventAdmin(address _addr)... */\n    tag_32:\n      tag_66\n      tag_145\n      calldatasize\n      0x04\n      tag_62\n      jump\t// in\n    tag_145:\n      tag_146\n      jump\t// in\n        /* \"contracts/Web3BetsFO.sol\":4104:4450  function addSystemAdmin(address _addr)... */\n    tag_33:\n      tag_66\n      tag_148\n      calldatasize\n      0x04\n      tag_62\n      jump\t// in\n    tag_148:\n      tag_149\n      jump\t// in\n        /* \"contracts/Web3BetsFO.sol\":5223:5628  function deleteEventAdmin(address _eventOwner) external onlySystemAdmin {... */\n    tag_34:\n      tag_66\n      tag_151\n      calldatasize\n      0x04\n      tag_62\n      jump\t// in\n    tag_151:\n      tag_152\n      jump\t// in\n        /* \"contracts/Web3BetsFO.sol\":1059:1088  address[] public systemAdmins */\n    tag_45:\n      0x0a\n      dup2\n      dup2\n      sload\n      dup2\n      lt\n      tag_153\n      jumpi\n      0x00\n      dup1\n      revert\n    tag_153:\n      0x00\n      swap2\n      dup3\n      mstore\n      0x20\n      swap1\n      swap2\n      keccak256\n      add\n      sload\n      sub(shl(0xa0, 0x01), 0x01)\n      and\n      swap1\n      pop\n      dup2\n      jump\t// out\n        /* \"contracts/Web3BetsFO.sol\":7125:7559  function isBlack(address _addr) public view override returns (bool) {... */\n    tag_63:\n      sub(shl(0xa0, 0x01), 0x01)\n        /* \"contracts/Web3BetsFO.sol\":7206:7220  blacked[_addr] */\n      dup2\n      dup2\n      and\n        /* \"contracts/Web3BetsFO.sol\":7187:7191  bool */\n      0x00\n        /* \"contracts/Web3BetsFO.sol\":7206:7220  blacked[_addr] */\n      swap1\n      dup2\n      mstore\n        /* \"contracts/Web3BetsFO.sol\":7206:7213  blacked */\n      0x0f\n        /* \"contracts/Web3BetsFO.sol\":7206:7220  blacked[_addr] */\n      0x20\n      mstore\n      0x40\n      dup2\n      keccak256\n      sload\n        /* \"contracts/Web3BetsFO.sol\":7187:7191  bool */\n      swap1\n      swap2\n        /* \"contracts/Web3BetsFO.sol\":7206:7220  blacked[_addr] */\n      and\n        /* \"contracts/Web3BetsFO.sol\":7206:7234  blacked[_addr] != address(0) */\n      iszero\n        /* \"contracts/Web3BetsFO.sol\":7203:7553  if(blacked[_addr] != address(0)){... */\n      tag_156\n      jumpi\n        /* \"contracts/Web3BetsFO.sol\":7249:7259  bool found */\n      0x00\n        /* \"contracts/Web3BetsFO.sol\":7286:7295  uint256 i */\n      dup1\n        /* \"contracts/Web3BetsFO.sol\":7281:7467  for (uint256 i = 0; i < blackList.length; i++) {... */\n    tag_157:\n        /* \"contracts/Web3BetsFO.sol\":7305:7314  blackList */\n      0x0c\n        /* \"contracts/Web3BetsFO.sol\":7305:7321  blackList.length */\n      sload\n        /* \"contracts/Web3BetsFO.sol\":7301:7321  i < blackList.length */\n      dup2\n      lt\n        /* \"contracts/Web3BetsFO.sol\":7281:7467  for (uint256 i = 0; i < blackList.length; i++) {... */\n      iszero\n      tag_158\n      jumpi\n        /* \"contracts/Web3BetsFO.sol\":7366:7371  _addr */\n      dup4\n      sub(shl(0xa0, 0x01), 0x01)\n        /* \"contracts/Web3BetsFO.sol\":7350:7371  blackList[i] == _addr */\n      and\n        /* \"contracts/Web3BetsFO.sol\":7350:7359  blackList */\n      0x0c\n        /* \"contracts/Web3BetsFO.sol\":7360:7361  i */\n      dup3\n        /* \"contracts/Web3BetsFO.sol\":7350:7362  blackList[i] */\n      dup2\n      sload\n      dup2\n      lt\n      tag_160\n      jumpi\n      mstore(0x00, shl(0xe0, 0x4e487b71))\n      mstore(0x04, 0x32)\n      revert(0x00, 0x24)\n    tag_160:\n      0x00\n      swap2\n      dup3\n      mstore\n      0x20\n      swap1\n      swap2\n      keccak256\n      add\n      sload\n      sub(shl(0xa0, 0x01), 0x01)\n      and\n        /* \"contracts/Web3BetsFO.sol\":7350:7371  blackList[i] == _addr */\n      eq\n        /* \"contracts/Web3BetsFO.sol\":7346:7453  if (blackList[i] == _addr) {... */\n      iszero\n      tag_162\n      jumpi\n        /* \"contracts/Web3BetsFO.sol\":7403:7407  true */\n      0x01\n        /* \"contracts/Web3BetsFO.sol\":7395:7407  found = true */\n      swap2\n      pop\n        /* \"contracts/Web3BetsFO.sol\":7429:7434  break */\n      jump(tag_158)\n        /* \"contracts/Web3BetsFO.sol\":7346:7453  if (blackList[i] == _addr) {... */\n    tag_162:\n        /* \"contracts/Web3BetsFO.sol\":7323:7326  i++ */\n      dup1\n      tag_163\n      dup2\n      tag_164\n      jump\t// in\n    tag_163:\n      swap2\n      pop\n      pop\n        /* \"contracts/Web3BetsFO.sol\":7281:7467  for (uint256 i = 0; i < blackList.length; i++) {... */\n      jump(tag_157)\n    tag_158:\n      pop\n        /* \"contracts/Web3BetsFO.sol\":7487:7492  found */\n      swap3\n        /* \"contracts/Web3BetsFO.sol\":7125:7559  function isBlack(address _addr) public view override returns (bool) {... */\n      swap2\n      pop\n      pop\n      jump\t// out\n        /* \"contracts/Web3BetsFO.sol\":7203:7553  if(blacked[_addr] != address(0)){... */\n    tag_156:\n      pop\n        /* \"contracts/Web3BetsFO.sol\":7537:7542  false */\n      0x00\n      swap2\n        /* \"contracts/Web3BetsFO.sol\":7125:7559  function isBlack(address _addr) public view override returns (bool) {... */\n      swap1\n      pop\n      jump\t// out\n        /* \"contracts/Web3BetsFO.sol\":7203:7553  if(blacked[_addr] != address(0)){... */\n    tag_165:\n        /* \"contracts/Web3BetsFO.sol\":7125:7559  function isBlack(address _addr) public view override returns (bool) {... */\n      swap2\n      swap1\n      pop\n      jump\t// out\n        /* \"contracts/Web3BetsFO.sol\":2187:2391  function setAddresses(address holdAddr, address ecoAddr,address scAddr) external onlySystemAdmin {... */\n    tag_69:\n        /* \"contracts/Web3BetsFO.sol\":1595:1620  isSystemAdmin(msg.sender) */\n      tag_167\n        /* \"contracts/Web3BetsFO.sol\":1609:1619  msg.sender */\n      caller\n        /* \"contracts/Web3BetsFO.sol\":1595:1608  isSystemAdmin */\n      tag_88\n        /* \"contracts/Web3BetsFO.sol\":1595:1620  isSystemAdmin(msg.sender) */\n      jump\t// in\n    tag_167:\n        /* \"contracts/Web3BetsFO.sol\":1574:1688  require(... */\n      tag_168\n      jumpi\n      mload(0x40)\n      shl(0xe5, 0x461bcd)\n      dup2\n      mstore\n      0x04\n      add\n      tag_169\n      swap1\n      tag_170\n      jump\t// in\n    tag_169:\n      mload(0x40)\n      dup1\n      swap2\n      sub\n      swap1\n      revert\n    tag_168:\n        /* \"contracts/Web3BetsFO.sol\":2294:2308  holdersAddress */\n      0x02\n        /* \"contracts/Web3BetsFO.sol\":2294:2319  holdersAddress = holdAddr */\n      dup1\n      sload\n      sub(shl(0xa0, 0x01), 0x01)\n      swap5\n      dup6\n      and\n      not(sub(shl(0xa0, 0x01), 0x01))\n      swap2\n      dup3\n      and\n      or\n      swap1\n      swap2\n      sstore\n      0x01\n        /* \"contracts/Web3BetsFO.sol\":2329:2355  ecosystemAddress = ecoAddr */\n      dup1\n      sload\n      swap4\n      dup6\n      and\n      swap4\n      dup3\n      and\n      swap4\n      swap1\n      swap4\n      or\n      swap1\n      swap3\n      sstore\n        /* \"contracts/Web3BetsFO.sol\":2365:2375  stableCoin */\n      0x03\n        /* \"contracts/Web3BetsFO.sol\":2365:2384  stableCoin = scAddr */\n      dup1\n      sload\n      swap2\n      swap1\n      swap4\n      and\n      swap2\n      and\n      or\n      swap1\n      sstore\n        /* \"contracts/Web3BetsFO.sol\":2187:2391  function setAddresses(address holdAddr, address ecoAddr,address scAddr) external onlySystemAdmin {... */\n      jump\t// out\n        /* \"contracts/Web3BetsFO.sol\":3460:4094  function shareBetEarnings() external override {... */\n    tag_82:\n        /* \"contracts/Web3BetsFO.sol\":3537:3555  _stableCoinWrapper */\n      sload(0x10)\n        /* \"contracts/Web3BetsFO.sol\":3537:3580  _stableCoinWrapper.balanceOf(address(this)) */\n      mload(0x40)\n      shl(0xe0, 0x70a08231)\n      dup2\n      mstore\n        /* \"contracts/Web3BetsFO.sol\":3574:3578  this */\n      address\n        /* \"contracts/Web3BetsFO.sol\":3537:3580  _stableCoinWrapper.balanceOf(address(this)) */\n      0x04\n      dup3\n      add\n        /* \"#utility.yul\":2126:2177   */\n      mstore\n        /* \"contracts/Web3BetsFO.sol\":3516:3534  uint256 _vigAmount */\n      0x00\n      swap2\n      sub(shl(0xa0, 0x01), 0x01)\n        /* \"contracts/Web3BetsFO.sol\":3537:3555  _stableCoinWrapper */\n      and\n      swap1\n        /* \"contracts/Web3BetsFO.sol\":3537:3565  _stableCoinWrapper.balanceOf */\n      0x70a08231\n      swap1\n        /* \"#utility.yul\":2099:2117   */\n      0x24\n      add\n        /* \"contracts/Web3BetsFO.sol\":3537:3580  _stableCoinWrapper.balanceOf(address(this)) */\n      0x20\n      mload(0x40)\n      dup1\n      dup4\n      sub\n      dup2\n      dup7\n      dup1\n      extcodesize\n      iszero\n      dup1\n      iszero\n      tag_174\n      jumpi\n      0x00\n      dup1\n      revert\n    tag_174:\n      pop\n      gas\n      staticcall\n      iszero\n      dup1\n      iszero\n      tag_176\n      jumpi\n      returndatasize\n      0x00\n      dup1\n      returndatacopy\n      revert(0x00, returndatasize)\n    tag_176:\n      pop\n      pop\n      pop\n      pop\n      mload(0x40)\n      returndatasize\n      not(0x1f)\n      0x1f\n      dup3\n      add\n      and\n      dup3\n      add\n      dup1\n      0x40\n      mstore\n      pop\n      dup2\n      add\n      swap1\n      tag_177\n      swap2\n      swap1\n      tag_178\n      jump\t// in\n    tag_177:\n        /* \"contracts/Web3BetsFO.sol\":3516:3580  uint256 _vigAmount = _stableCoinWrapper.balanceOf(address(this)) */\n      swap1\n      pop\n        /* \"contracts/Web3BetsFO.sol\":3611:3612  0 */\n      0x00\n        /* \"contracts/Web3BetsFO.sol\":3598:3608  _vigAmount */\n      dup2\n        /* \"contracts/Web3BetsFO.sol\":3598:3612  _vigAmount > 0 */\n      gt\n        /* \"contracts/Web3BetsFO.sol\":3590:3652  require(_vigAmount > 0, \"bet earnings must be greater than 0\") */\n      tag_179\n      jumpi\n      mload(0x40)\n      shl(0xe5, 0x461bcd)\n      dup2\n      mstore\n        /* \"#utility.yul\":8432:8434   */\n      0x20\n        /* \"contracts/Web3BetsFO.sol\":3590:3652  require(_vigAmount > 0, \"bet earnings must be greater than 0\") */\n      0x04\n      dup3\n      add\n        /* \"#utility.yul\":8414:8435   */\n      mstore\n        /* \"#utility.yul\":8471:8473   */\n      0x23\n        /* \"#utility.yul\":8451:8469   */\n      0x24\n      dup3\n      add\n        /* \"#utility.yul\":8444:8474   */\n      mstore\n        /* \"#utility.yul\":8510:8544   */\n      0x626574206561726e696e6773206d757374206265206772656174657220746861\n        /* \"#utility.yul\":8490:8508   */\n      0x44\n      dup3\n      add\n        /* \"#utility.yul\":8483:8545   */\n      mstore\n      shl(0xec, 0x06e203)\n        /* \"#utility.yul\":8561:8579   */\n      0x64\n      dup3\n      add\n        /* \"#utility.yul\":8554:8587   */\n      mstore\n        /* \"#utility.yul\":8604:8623   */\n      0x84\n      add\n        /* \"contracts/Web3BetsFO.sol\":3590:3652  require(_vigAmount > 0, \"bet earnings must be greater than 0\") */\n      tag_169\n        /* \"#utility.yul\":8404:8629   */\n      jump\n        /* \"contracts/Web3BetsFO.sol\":3590:3652  require(_vigAmount > 0, \"bet earnings must be greater than 0\") */\n    tag_179:\n        /* \"contracts/Web3BetsFO.sol\":3662:3682  uint256 holdersShare */\n      0x00\n        /* \"contracts/Web3BetsFO.sol\":3713:3716  100 */\n      0x64\n        /* \"contracts/Web3BetsFO.sol\":3699:3709  holdersVig */\n      sload(0x07)\n        /* \"contracts/Web3BetsFO.sol\":3686:3696  _vigAmount */\n      dup4\n        /* \"contracts/Web3BetsFO.sol\":3686:3709  _vigAmount * holdersVig */\n      tag_182\n      swap2\n      swap1\n      tag_183\n      jump\t// in\n    tag_182:\n        /* \"contracts/Web3BetsFO.sol\":3685:3716  (_vigAmount * holdersVig )/ 100 */\n      tag_184\n      swap2\n      swap1\n      tag_185\n      jump\t// in\n    tag_184:\n        /* \"contracts/Web3BetsFO.sol\":3662:3716  uint256 holdersShare = (_vigAmount * holdersVig )/ 100 */\n      swap1\n      pop\n        /* \"contracts/Web3BetsFO.sol\":3749:3750  0 */\n      0x00\n        /* \"contracts/Web3BetsFO.sol\":3734:3746  holdersShare */\n      dup2\n        /* \"contracts/Web3BetsFO.sol\":3734:3750  holdersShare > 0 */\n      gt\n        /* \"contracts/Web3BetsFO.sol\":3726:3792  require(holdersShare > 0, \"holders' share must be greater than 0\") */\n      tag_186\n      jumpi\n      mload(0x40)\n      shl(0xe5, 0x461bcd)\n      dup2\n      mstore\n        /* \"#utility.yul\":6560:6562   */\n      0x20\n        /* \"contracts/Web3BetsFO.sol\":3726:3792  require(holdersShare > 0, \"holders' share must be greater than 0\") */\n      0x04\n      dup3\n      add\n        /* \"#utility.yul\":6542:6563   */\n      mstore\n        /* \"#utility.yul\":6599:6601   */\n      0x25\n        /* \"#utility.yul\":6579:6597   */\n      0x24\n      dup3\n      add\n        /* \"#utility.yul\":6572:6602   */\n      mstore\n        /* \"#utility.yul\":6638:6672   */\n      0x686f6c6465727327207368617265206d75737420626520677265617465722074\n        /* \"#utility.yul\":6618:6636   */\n      0x44\n      dup3\n      add\n        /* \"#utility.yul\":6611:6673   */\n      mstore\n      shl(0xdc, 0x068616e203)\n        /* \"#utility.yul\":6689:6707   */\n      0x64\n      dup3\n      add\n        /* \"#utility.yul\":6682:6717   */\n      mstore\n        /* \"#utility.yul\":6734:6753   */\n      0x84\n      add\n        /* \"contracts/Web3BetsFO.sol\":3726:3792  require(holdersShare > 0, \"holders' share must be greater than 0\") */\n      tag_169\n        /* \"#utility.yul\":6532:6759   */\n      jump\n        /* \"contracts/Web3BetsFO.sol\":3726:3792  require(holdersShare > 0, \"holders' share must be greater than 0\") */\n    tag_186:\n        /* \"contracts/Web3BetsFO.sol\":3802:3824  uint256 ecosystemShare */\n      0x00\n        /* \"contracts/Web3BetsFO.sol\":3857:3860  100 */\n      0x64\n        /* \"contracts/Web3BetsFO.sol\":3841:3853  ecosystemVig */\n      sload(0x08)\n        /* \"contracts/Web3BetsFO.sol\":3828:3838  _vigAmount */\n      dup5\n        /* \"contracts/Web3BetsFO.sol\":3828:3853  _vigAmount * ecosystemVig */\n      tag_189\n      swap2\n      swap1\n      tag_183\n      jump\t// in\n    tag_189:\n        /* \"contracts/Web3BetsFO.sol\":3827:3860  (_vigAmount * ecosystemVig) / 100 */\n      tag_190\n      swap2\n      swap1\n      tag_185\n      jump\t// in\n    tag_190:\n        /* \"contracts/Web3BetsFO.sol\":3802:3860  uint256 ecosystemShare = (_vigAmount * ecosystemVig) / 100 */\n      swap1\n      pop\n        /* \"contracts/Web3BetsFO.sol\":3895:3896  0 */\n      0x00\n        /* \"contracts/Web3BetsFO.sol\":3878:3892  ecosystemShare */\n      dup2\n        /* \"contracts/Web3BetsFO.sol\":3878:3896  ecosystemShare > 0 */\n      gt\n        /* \"contracts/Web3BetsFO.sol\":3870:3939  require(ecosystemShare > 0, \"ecosystem share must be greater than 0\") */\n      tag_191\n      jumpi\n      mload(0x40)\n      shl(0xe5, 0x461bcd)\n      dup2\n      mstore\n        /* \"#utility.yul\":4565:4567   */\n      0x20\n        /* \"contracts/Web3BetsFO.sol\":3870:3939  require(ecosystemShare > 0, \"ecosystem share must be greater than 0\") */\n      0x04\n      dup3\n      add\n        /* \"#utility.yul\":4547:4568   */\n      mstore\n        /* \"#utility.yul\":4604:4606   */\n      0x26\n        /* \"#utility.yul\":4584:4602   */\n      0x24\n      dup3\n      add\n        /* \"#utility.yul\":4577:4607   */\n      mstore\n        /* \"#utility.yul\":4643:4677   */\n      0x65636f73797374656d207368617265206d757374206265206772656174657220\n        /* \"#utility.yul\":4623:4641   */\n      0x44\n      dup3\n      add\n        /* \"#utility.yul\":4616:4678   */\n      mstore\n      shl(0xd4, 0x07468616e203)\n        /* \"#utility.yul\":4694:4712   */\n      0x64\n      dup3\n      add\n        /* \"#utility.yul\":4687:4723   */\n      mstore\n        /* \"#utility.yul\":4740:4759   */\n      0x84\n      add\n        /* \"contracts/Web3BetsFO.sol\":3870:3939  require(ecosystemShare > 0, \"ecosystem share must be greater than 0\") */\n      tag_169\n        /* \"#utility.yul\":4537:4765   */\n      jump\n        /* \"contracts/Web3BetsFO.sol\":3870:3939  require(ecosystemShare > 0, \"ecosystem share must be greater than 0\") */\n    tag_191:\n        /* \"contracts/Web3BetsFO.sol\":3982:3998  ecosystemAddress */\n      sload(0x01)\n        /* \"contracts/Web3BetsFO.sol\":3950:3968  _stableCoinWrapper */\n      sload(0x10)\n        /* \"contracts/Web3BetsFO.sol\":3950:4015  _stableCoinWrapper.safeTransfer(ecosystemAddress, ecosystemShare) */\n      tag_194\n      swap2\n      sub(shl(0xa0, 0x01), 0x01)\n        /* \"contracts/Web3BetsFO.sol\":3950:3968  _stableCoinWrapper */\n      swap2\n      dup3\n      and\n      swap2\n        /* \"contracts/Web3BetsFO.sol\":3982:3998  ecosystemAddress */\n      and\n        /* \"contracts/Web3BetsFO.sol\":4000:4014  ecosystemShare */\n      dup4\n        /* \"contracts/Web3BetsFO.sol\":3950:3981  _stableCoinWrapper.safeTransfer */\n      tag_195\n        /* \"contracts/Web3BetsFO.sol\":3950:4015  _stableCoinWrapper.safeTransfer(ecosystemAddress, ecosystemShare) */\n      jump\t// in\n    tag_194:\n        /* \"contracts/Web3BetsFO.sol\":4058:4072  holdersAddress */\n      sload(0x02)\n        /* \"contracts/Web3BetsFO.sol\":4026:4044  _stableCoinWrapper */\n      sload(0x10)\n        /* \"contracts/Web3BetsFO.sol\":4026:4087  _stableCoinWrapper.safeTransfer(holdersAddress, holdersShare) */\n      tag_196\n      swap2\n      sub(shl(0xa0, 0x01), 0x01)\n        /* \"contracts/Web3BetsFO.sol\":4026:4044  _stableCoinWrapper */\n      swap2\n      dup3\n      and\n      swap2\n        /* \"contracts/Web3BetsFO.sol\":4058:4072  holdersAddress */\n      and\n        /* \"contracts/Web3BetsFO.sol\":4074:4086  holdersShare */\n      dup5\n        /* \"contracts/Web3BetsFO.sol\":4026:4057  _stableCoinWrapper.safeTransfer */\n      tag_195\n        /* \"contracts/Web3BetsFO.sol\":4026:4087  _stableCoinWrapper.safeTransfer(holdersAddress, holdersShare) */\n      jump\t// in\n    tag_196:\n        /* \"contracts/Web3BetsFO.sol\":3460:4094  function shareBetEarnings() external override {... */\n      pop\n      pop\n      pop\n      jump\t// out\n        /* \"contracts/Web3BetsFO.sol\":2506:2616  function setMarketFactory(address _factory) external onlySystemAdmin {... */\n    tag_85:\n        /* \"contracts/Web3BetsFO.sol\":1595:1620  isSystemAdmin(msg.sender) */\n      tag_198\n        /* \"contracts/Web3BetsFO.sol\":1609:1619  msg.sender */\n      caller\n        /* \"contracts/Web3BetsFO.sol\":1595:1608  isSystemAdmin */\n      tag_88\n        /* \"contracts/Web3BetsFO.sol\":1595:1620  isSystemAdmin(msg.sender) */\n      jump\t// in\n    tag_198:\n        /* \"contracts/Web3BetsFO.sol\":1574:1688  require(... */\n      tag_199\n      jumpi\n      mload(0x40)\n      shl(0xe5, 0x461bcd)\n      dup2\n      mstore\n      0x04\n      add\n      tag_169\n      swap1\n      tag_170\n      jump\t// in\n    tag_199:\n        /* \"contracts/Web3BetsFO.sol\":2585:2598  marketFactory */\n      0x05\n        /* \"contracts/Web3BetsFO.sol\":2585:2609  marketFactory = _factory */\n      dup1\n      sload\n      not(sub(shl(0xa0, 0x01), 0x01))\n      and\n      sub(shl(0xa0, 0x01), 0x01)\n      swap3\n      swap1\n      swap3\n      and\n      swap2\n      swap1\n      swap2\n      or\n      swap1\n      sstore\n        /* \"contracts/Web3BetsFO.sol\":2506:2616  function setMarketFactory(address _factory) external onlySystemAdmin {... */\n      jump\t// out\n        /* \"contracts/Web3BetsFO.sol\":6221:6666  function isSystemAdmin(address _addr) public view override returns (bool) {... */\n    tag_88:\n      sub(shl(0xa0, 0x01), 0x01)\n        /* \"contracts/Web3BetsFO.sol\":6308:6321  admins[_addr] */\n      dup2\n      dup2\n      and\n        /* \"contracts/Web3BetsFO.sol\":6289:6293  bool */\n      0x00\n        /* \"contracts/Web3BetsFO.sol\":6308:6321  admins[_addr] */\n      swap1\n      dup2\n      mstore\n        /* \"contracts/Web3BetsFO.sol\":6308:6314  admins */\n      0x0d\n        /* \"contracts/Web3BetsFO.sol\":6308:6321  admins[_addr] */\n      0x20\n      mstore\n      0x40\n      dup2\n      keccak256\n      sload\n        /* \"contracts/Web3BetsFO.sol\":6289:6293  bool */\n      swap1\n      swap2\n        /* \"contracts/Web3BetsFO.sol\":6308:6321  admins[_addr] */\n      and\n        /* \"contracts/Web3BetsFO.sol\":6308:6335  admins[_addr] != address(0) */\n      iszero\n        /* \"contracts/Web3BetsFO.sol\":6305:6660  if(admins[_addr] != address(0)){... */\n      tag_156\n      jumpi\n        /* \"contracts/Web3BetsFO.sol\":6350:6360  bool found */\n      0x00\n        /* \"contracts/Web3BetsFO.sol\":6387:6396  uint256 i */\n      dup1\n        /* \"contracts/Web3BetsFO.sol\":6382:6574  for (uint256 i = 0; i < systemAdmins.length; i++) {... */\n    tag_204:\n        /* \"contracts/Web3BetsFO.sol\":6406:6418  systemAdmins */\n      0x0a\n        /* \"contracts/Web3BetsFO.sol\":6406:6425  systemAdmins.length */\n      sload\n        /* \"contracts/Web3BetsFO.sol\":6402:6425  i < systemAdmins.length */\n      dup2\n      lt\n        /* \"contracts/Web3BetsFO.sol\":6382:6574  for (uint256 i = 0; i < systemAdmins.length; i++) {... */\n      iszero\n      tag_158\n      jumpi\n        /* \"contracts/Web3BetsFO.sol\":6473:6478  _addr */\n      dup4\n      sub(shl(0xa0, 0x01), 0x01)\n        /* \"contracts/Web3BetsFO.sol\":6454:6478  systemAdmins[i] == _addr */\n      and\n        /* \"contracts/Web3BetsFO.sol\":6454:6466  systemAdmins */\n      0x0a\n        /* \"contracts/Web3BetsFO.sol\":6467:6468  i */\n      dup3\n        /* \"contracts/Web3BetsFO.sol\":6454:6469  systemAdmins[i] */\n      dup2\n      sload\n      dup2\n      lt\n      tag_207\n      jumpi\n      mstore(0x00, shl(0xe0, 0x4e487b71))\n      mstore(0x04, 0x32)\n      revert(0x00, 0x24)\n    tag_207:\n      0x00\n      swap2\n      dup3\n      mstore\n      0x20\n      swap1\n      swap2\n      keccak256\n      add\n      sload\n      sub(shl(0xa0, 0x01), 0x01)\n      and\n        /* \"contracts/Web3BetsFO.sol\":6454:6478  systemAdmins[i] == _addr */\n      eq\n        /* \"contracts/Web3BetsFO.sol\":6450:6560  if (systemAdmins[i] == _addr) {... */\n      iszero\n      tag_209\n      jumpi\n        /* \"contracts/Web3BetsFO.sol\":6510:6514  true */\n      0x01\n        /* \"contracts/Web3BetsFO.sol\":6502:6514  found = true */\n      swap2\n      pop\n        /* \"contracts/Web3BetsFO.sol\":6536:6541  break */\n      jump(tag_158)\n        /* \"contracts/Web3BetsFO.sol\":6450:6560  if (systemAdmins[i] == _addr) {... */\n    tag_209:\n        /* \"contracts/Web3BetsFO.sol\":6427:6430  i++ */\n      dup1\n      tag_210\n      dup2\n      tag_164\n      jump\t// in\n    tag_210:\n      swap2\n      pop\n      pop\n        /* \"contracts/Web3BetsFO.sol\":6382:6574  for (uint256 i = 0; i < systemAdmins.length; i++) {... */\n      jump(tag_204)\n        /* \"contracts/Web3BetsFO.sol\":2397:2500  function setFactory(address _factory) external onlySystemAdmin {... */\n    tag_92:\n        /* \"contracts/Web3BetsFO.sol\":1595:1620  isSystemAdmin(msg.sender) */\n      tag_213\n        /* \"contracts/Web3BetsFO.sol\":1609:1619  msg.sender */\n      caller\n        /* \"contracts/Web3BetsFO.sol\":1595:1608  isSystemAdmin */\n      tag_88\n        /* \"contracts/Web3BetsFO.sol\":1595:1620  isSystemAdmin(msg.sender) */\n      jump\t// in\n    tag_213:\n        /* \"contracts/Web3BetsFO.sol\":1574:1688  require(... */\n      tag_214\n      jumpi\n      mload(0x40)\n      shl(0xe5, 0x461bcd)\n      dup2\n      mstore\n      0x04\n      add\n      tag_169\n      swap1\n      tag_170\n      jump\t// in\n    tag_214:\n        /* \"contracts/Web3BetsFO.sol\":2470:2482  eventFactory */\n      0x04\n        /* \"contracts/Web3BetsFO.sol\":2470:2493  eventFactory = _factory */\n      dup1\n      sload\n      not(sub(shl(0xa0, 0x01), 0x01))\n      and\n      sub(shl(0xa0, 0x01), 0x01)\n      swap3\n      swap1\n      swap3\n      and\n      swap2\n      swap1\n      swap2\n      or\n      swap1\n      sstore\n        /* \"contracts/Web3BetsFO.sol\":2397:2500  function setFactory(address _factory) external onlySystemAdmin {... */\n      jump\t// out\n        /* \"contracts/Web3BetsFO.sol\":2993:3454  function setVigPercentageShares(... */\n    tag_96:\n        /* \"contracts/Web3BetsFO.sol\":1595:1620  isSystemAdmin(msg.sender) */\n      tag_218\n        /* \"contracts/Web3BetsFO.sol\":1609:1619  msg.sender */\n      caller\n        /* \"contracts/Web3BetsFO.sol\":1595:1608  isSystemAdmin */\n      tag_88\n        /* \"contracts/Web3BetsFO.sol\":1595:1620  isSystemAdmin(msg.sender) */\n      jump\t// in\n    tag_218:\n        /* \"contracts/Web3BetsFO.sol\":1574:1688  require(... */\n      tag_219\n      jumpi\n      mload(0x40)\n      shl(0xe5, 0x461bcd)\n      dup2\n      mstore\n      0x04\n      add\n      tag_169\n      swap1\n      tag_170\n      jump\t// in\n    tag_219:\n        /* \"contracts/Web3BetsFO.sol\":3139:3142  100 */\n      0x64\n        /* \"contracts/Web3BetsFO.sol\":3131:3135  hVig */\n      dup3\n        /* \"contracts/Web3BetsFO.sol\":3131:3142  hVig <= 100 */\n      gt\n      iszero\n        /* \"contracts/Web3BetsFO.sol\":3131:3157  hVig <= 100 && eVig <= 100 */\n      dup1\n      iszero\n      tag_222\n      jumpi\n      pop\n        /* \"contracts/Web3BetsFO.sol\":3154:3157  100 */\n      0x64\n        /* \"contracts/Web3BetsFO.sol\":3146:3150  eVig */\n      dup2\n        /* \"contracts/Web3BetsFO.sol\":3146:3157  eVig <= 100 */\n      gt\n      iszero\n        /* \"contracts/Web3BetsFO.sol\":3131:3157  hVig <= 100 && eVig <= 100 */\n    tag_222:\n        /* \"contracts/Web3BetsFO.sol\":3110:3257  require(... */\n      tag_223\n      jumpi\n      mload(0x40)\n      shl(0xe5, 0x461bcd)\n      dup2\n      mstore\n        /* \"#utility.yul\":3675:3677   */\n      0x20\n        /* \"contracts/Web3BetsFO.sol\":3110:3257  require(... */\n      0x04\n      dup3\n      add\n        /* \"#utility.yul\":3657:3678   */\n      mstore\n        /* \"#utility.yul\":3714:3716   */\n      0x4a\n        /* \"#utility.yul\":3694:3712   */\n      0x24\n      dup3\n      add\n        /* \"#utility.yul\":3687:3717   */\n      mstore\n        /* \"#utility.yul\":3753:3787   */\n      0x5669672070657263656e746167657320736861726573206d7573742062652065\n        /* \"#utility.yul\":3733:3751   */\n      0x44\n      dup3\n      add\n        /* \"#utility.yul\":3726:3788   */\n      mstore\n        /* \"#utility.yul\":3824:3858   */\n      0x787072657373656420696e206120203020746f2031303020726174696f2e2045\n        /* \"#utility.yul\":3804:3822   */\n      0x64\n      dup3\n      add\n        /* \"#utility.yul\":3797:3859   */\n      mstore\n      shl(0xb4, 0x078616d706c653a20333)\n        /* \"#utility.yul\":3875:3894   */\n      0x84\n      dup3\n      add\n        /* \"#utility.yul\":3868:3909   */\n      mstore\n        /* \"#utility.yul\":3926:3945   */\n      0xa4\n      add\n        /* \"contracts/Web3BetsFO.sol\":3110:3257  require(... */\n      tag_169\n        /* \"#utility.yul\":3647:3951   */\n      jump\n        /* \"contracts/Web3BetsFO.sol\":3110:3257  require(... */\n    tag_223:\n        /* \"contracts/Web3BetsFO.sol\":3288:3299  hVig + eVig */\n      tag_226\n        /* \"contracts/Web3BetsFO.sol\":3295:3299  eVig */\n      dup2\n        /* \"contracts/Web3BetsFO.sol\":3288:3292  hVig */\n      dup4\n        /* \"contracts/Web3BetsFO.sol\":3288:3299  hVig + eVig */\n      tag_227\n      jump\t// in\n    tag_226:\n        /* \"contracts/Web3BetsFO.sol\":3304:3307  100 */\n      0x64\n        /* \"contracts/Web3BetsFO.sol\":3288:3307  hVig + eVig  == 100 */\n      eq\n        /* \"contracts/Web3BetsFO.sol\":3267:3390  require(... */\n      tag_228\n      jumpi\n      mload(0x40)\n      shl(0xe5, 0x461bcd)\n      dup2\n      mstore\n        /* \"#utility.yul\":3249:3251   */\n      0x20\n        /* \"contracts/Web3BetsFO.sol\":3267:3390  require(... */\n      0x04\n      dup3\n      add\n        /* \"#utility.yul\":3231:3252   */\n      mstore\n        /* \"#utility.yul\":3288:3290   */\n      0x39\n        /* \"#utility.yul\":3268:3286   */\n      0x24\n      dup3\n      add\n        /* \"#utility.yul\":3261:3291   */\n      mstore\n        /* \"#utility.yul\":3327:3361   */\n      0x5468652073756d206f6620616c6c205669672070657263656e74616765207368\n        /* \"#utility.yul\":3307:3325   */\n      0x44\n      dup3\n      add\n        /* \"#utility.yul\":3300:3362   */\n      mstore\n        /* \"#utility.yul\":3398:3425   */\n      0x61726573206d75737420626520657175616c20746f2031303000000000000000\n        /* \"#utility.yul\":3378:3396   */\n      0x64\n      dup3\n      add\n        /* \"#utility.yul\":3371:3426   */\n      mstore\n        /* \"#utility.yul\":3443:3462   */\n      0x84\n      add\n        /* \"contracts/Web3BetsFO.sol\":3267:3390  require(... */\n      tag_169\n        /* \"#utility.yul\":3221:3468   */\n      jump\n        /* \"contracts/Web3BetsFO.sol\":3267:3390  require(... */\n    tag_228:\n        /* \"contracts/Web3BetsFO.sol\":3401:3411  holdersVig */\n      0x07\n        /* \"contracts/Web3BetsFO.sol\":3401:3418  holdersVig = hVig */\n      swap2\n      swap1\n      swap2\n      sstore\n        /* \"contracts/Web3BetsFO.sol\":3428:3440  ecosystemVig */\n      0x08\n        /* \"contracts/Web3BetsFO.sol\":3428:3447  ecosystemVig = eVig */\n      sstore\n        /* \"contracts/Web3BetsFO.sol\":2993:3454  function setVigPercentageShares(... */\n      jump\t// out\n        /* \"contracts/Web3BetsFO.sol\":5827:6215  function removeBlacked(address _eventOwner) external onlySystemAdmin {... */\n    tag_99:\n        /* \"contracts/Web3BetsFO.sol\":1595:1620  isSystemAdmin(msg.sender) */\n      tag_232\n        /* \"contracts/Web3BetsFO.sol\":1609:1619  msg.sender */\n      caller\n        /* \"contracts/Web3BetsFO.sol\":1595:1608  isSystemAdmin */\n      tag_88\n        /* \"contracts/Web3BetsFO.sol\":1595:1620  isSystemAdmin(msg.sender) */\n      jump\t// in\n    tag_232:\n        /* \"contracts/Web3BetsFO.sol\":1574:1688  require(... */\n      tag_233\n      jumpi\n      mload(0x40)\n      shl(0xe5, 0x461bcd)\n      dup2\n      mstore\n      0x04\n      add\n      tag_169\n      swap1\n      tag_170\n      jump\t// in\n    tag_233:\n      sub(shl(0xa0, 0x01), 0x01)\n        /* \"contracts/Web3BetsFO.sol\":5915:5935  blacked[_eventOwner] */\n      dup2\n      dup2\n      and\n        /* \"contracts/Web3BetsFO.sol\":5947:5948  0 */\n      0x00\n        /* \"contracts/Web3BetsFO.sol\":5915:5935  blacked[_eventOwner] */\n      swap1\n      dup2\n      mstore\n        /* \"contracts/Web3BetsFO.sol\":5915:5922  blacked */\n      0x0f\n        /* \"contracts/Web3BetsFO.sol\":5915:5935  blacked[_eventOwner] */\n      0x20\n      mstore\n      0x40\n      swap1\n      keccak256\n      sload\n      and\n        /* \"contracts/Web3BetsFO.sol\":5906:5973  require (blacked[_eventOwner] != address(0), \"Invalid event owner\") */\n      tag_236\n      jumpi\n      mload(0x40)\n      shl(0xe5, 0x461bcd)\n      dup2\n      mstore\n      0x04\n      add\n      tag_169\n      swap1\n      tag_238\n      jump\t// in\n    tag_236:\n      sub(shl(0xa0, 0x01), 0x01)\n        /* \"contracts/Web3BetsFO.sol\":5999:6019  blacked[_eventOwner] */\n      dup2\n      and\n      0x00\n      swap1\n      dup2\n      mstore\n        /* \"contracts/Web3BetsFO.sol\":5999:6006  blacked */\n      0x0f\n        /* \"contracts/Web3BetsFO.sol\":5999:6019  blacked[_eventOwner] */\n      0x20\n      mstore\n      0x40\n      dup2\n      keccak256\n        /* \"contracts/Web3BetsFO.sol\":5992:6019  delete blacked[_eventOwner] */\n      dup1\n      sload\n      not(sub(shl(0xa0, 0x01), 0x01))\n      and\n      swap1\n      sstore\n        /* \"contracts/Web3BetsFO.sol\":6030:6209  for (uint256 i = 0; i < blackList.length; i++) {... */\n    tag_239:\n        /* \"contracts/Web3BetsFO.sol\":6054:6063  blackList */\n      0x0c\n        /* \"contracts/Web3BetsFO.sol\":6054:6070  blackList.length */\n      sload\n        /* \"contracts/Web3BetsFO.sol\":6050:6070  i < blackList.length */\n      dup2\n      lt\n        /* \"contracts/Web3BetsFO.sol\":6030:6209  for (uint256 i = 0; i < blackList.length; i++) {... */\n      iszero\n      tag_240\n      jumpi\n        /* \"contracts/Web3BetsFO.sol\":6111:6122  _eventOwner */\n      dup2\n      sub(shl(0xa0, 0x01), 0x01)\n        /* \"contracts/Web3BetsFO.sol\":6095:6122  blackList[i] == _eventOwner */\n      and\n        /* \"contracts/Web3BetsFO.sol\":6095:6104  blackList */\n      0x0c\n        /* \"contracts/Web3BetsFO.sol\":6105:6106  i */\n      dup3\n        /* \"contracts/Web3BetsFO.sol\":6095:6107  blackList[i] */\n      dup2\n      sload\n      dup2\n      lt\n      tag_242\n      jumpi\n      mstore(0x00, shl(0xe0, 0x4e487b71))\n      mstore(0x04, 0x32)\n      revert(0x00, 0x24)\n    tag_242:\n      0x00\n      swap2\n      dup3\n      mstore\n      0x20\n      swap1\n      swap2\n      keccak256\n      add\n      sload\n      sub(shl(0xa0, 0x01), 0x01)\n      and\n        /* \"contracts/Web3BetsFO.sol\":6095:6122  blackList[i] == _eventOwner */\n      eq\n        /* \"contracts/Web3BetsFO.sol\":6091:6199  if (blackList[i] == _eventOwner) {... */\n      iszero\n      tag_244\n      jumpi\n        /* \"contracts/Web3BetsFO.sol\":6149:6158  blackList */\n      0x0c\n        /* \"contracts/Web3BetsFO.sol\":6159:6160  i */\n      dup2\n        /* \"contracts/Web3BetsFO.sol\":6149:6161  blackList[i] */\n      dup2\n      sload\n      dup2\n      lt\n      tag_245\n      jumpi\n      mstore(0x00, shl(0xe0, 0x4e487b71))\n      mstore(0x04, 0x32)\n      revert(0x00, 0x24)\n    tag_245:\n      0x00\n      swap2\n      dup3\n      mstore\n      0x20\n      swap1\n      swap2\n      keccak256\n      add\n        /* \"contracts/Web3BetsFO.sol\":6142:6161  delete blackList[i] */\n      dup1\n      sload\n      not(sub(shl(0xa0, 0x01), 0x01))\n      and\n      swap1\n      sstore\n        /* \"contracts/Web3BetsFO.sol\":6030:6209  for (uint256 i = 0; i < blackList.length; i++) {... */\n      pop\n        /* \"contracts/Web3BetsFO.sol\":5827:6215  function removeBlacked(address _eventOwner) external onlySystemAdmin {... */\n      pop\n      jump\t// out\n        /* \"contracts/Web3BetsFO.sol\":6091:6199  if (blackList[i] == _eventOwner) {... */\n    tag_244:\n        /* \"contracts/Web3BetsFO.sol\":6072:6075  i++ */\n      dup1\n      tag_247\n      dup2\n      tag_164\n      jump\t// in\n    tag_247:\n      swap2\n      pop\n      pop\n        /* \"contracts/Web3BetsFO.sol\":6030:6209  for (uint256 i = 0; i < blackList.length; i++) {... */\n      jump(tag_239)\n    tag_240:\n      pop\n        /* \"contracts/Web3BetsFO.sol\":5827:6215  function removeBlacked(address _eventOwner) external onlySystemAdmin {... */\n      pop\n      jump\t// out\n        /* \"contracts/Web3BetsFO.sol\":1128:1154  address[] public blackList */\n    tag_105:\n      0x0c\n      dup2\n      dup2\n      sload\n      dup2\n      lt\n      tag_153\n      jumpi\n      0x00\n      dup1\n      revert\n        /* \"contracts/Web3BetsFO.sol\":2622:2726  function setBetFactory(address _factory) external onlySystemAdmin {... */\n    tag_117:\n        /* \"contracts/Web3BetsFO.sol\":1595:1620  isSystemAdmin(msg.sender) */\n      tag_251\n        /* \"contracts/Web3BetsFO.sol\":1609:1619  msg.sender */\n      caller\n        /* \"contracts/Web3BetsFO.sol\":1595:1608  isSystemAdmin */\n      tag_88\n        /* \"contracts/Web3BetsFO.sol\":1595:1620  isSystemAdmin(msg.sender) */\n      jump\t// in\n    tag_251:\n        /* \"contracts/Web3BetsFO.sol\":1574:1688  require(... */\n      tag_252\n      jumpi\n      mload(0x40)\n      shl(0xe5, 0x461bcd)\n      dup2\n      mstore\n      0x04\n      add\n      tag_169\n      swap1\n      tag_170\n      jump\t// in\n    tag_252:\n        /* \"contracts/Web3BetsFO.sol\":2698:2708  betFactory */\n      0x06\n        /* \"contracts/Web3BetsFO.sol\":2698:2719  betFactory = _factory */\n      dup1\n      sload\n      not(sub(shl(0xa0, 0x01), 0x01))\n      and\n      sub(shl(0xa0, 0x01), 0x01)\n      swap3\n      swap1\n      swap3\n      and\n      swap2\n      swap1\n      swap2\n      or\n      swap1\n      sstore\n        /* \"contracts/Web3BetsFO.sol\":2622:2726  function setBetFactory(address _factory) external onlySystemAdmin {... */\n      jump\t// out\n        /* \"contracts/Web3BetsFO.sol\":5638:5821  function addBlacked(address _addr)... */\n    tag_126:\n        /* \"contracts/Web3BetsFO.sol\":1595:1620  isSystemAdmin(msg.sender) */\n      tag_256\n        /* \"contracts/Web3BetsFO.sol\":1609:1619  msg.sender */\n      caller\n        /* \"contracts/Web3BetsFO.sol\":1595:1608  isSystemAdmin */\n      tag_88\n        /* \"contracts/Web3BetsFO.sol\":1595:1620  isSystemAdmin(msg.sender) */\n      jump\t// in\n    tag_256:\n        /* \"contracts/Web3BetsFO.sol\":1574:1688  require(... */\n      tag_257\n      jumpi\n      mload(0x40)\n      shl(0xe5, 0x461bcd)\n      dup2\n      mstore\n      0x04\n      add\n      tag_169\n      swap1\n      tag_170\n      jump\t// in\n    tag_257:\n      sub(shl(0xa0, 0x01), 0x01)\n        /* \"contracts/Web3BetsFO.sol\":2043:2057  blacked[_addr] */\n      dup1\n      dup3\n      and\n        /* \"contracts/Web3BetsFO.sol\":2069:2070  0 */\n      0x00\n        /* \"contracts/Web3BetsFO.sol\":2043:2057  blacked[_addr] */\n      swap1\n      dup2\n      mstore\n        /* \"contracts/Web3BetsFO.sol\":2043:2050  blacked */\n      0x0f\n        /* \"contracts/Web3BetsFO.sol\":2043:2057  blacked[_addr] */\n      0x20\n      mstore\n      0x40\n      swap1\n      keccak256\n      sload\n        /* \"contracts/Web3BetsFO.sol\":5734:5739  _addr */\n      dup3\n      swap2\n        /* \"contracts/Web3BetsFO.sol\":2043:2057  blacked[_addr] */\n      and\n        /* \"contracts/Web3BetsFO.sol\":2043:2071  blacked[_addr] == address(0) */\n      iszero\n        /* \"contracts/Web3BetsFO.sol\":2035:2096  require(blacked[_addr] == address(0), \"already in blacklist\") */\n      tag_260\n      jumpi\n      mload(0x40)\n      shl(0xe5, 0x461bcd)\n      dup2\n      mstore\n        /* \"#utility.yul\":7672:7674   */\n      0x20\n        /* \"contracts/Web3BetsFO.sol\":2035:2096  require(blacked[_addr] == address(0), \"already in blacklist\") */\n      0x04\n      dup3\n      add\n        /* \"#utility.yul\":7654:7675   */\n      mstore\n        /* \"#utility.yul\":7711:7713   */\n      0x14\n        /* \"#utility.yul\":7691:7709   */\n      0x24\n      dup3\n      add\n        /* \"#utility.yul\":7684:7714   */\n      mstore\n      shl(0x62, 0x185b1c9958591e481a5b88189b1858dadb1a5cdd)\n        /* \"#utility.yul\":7730:7748   */\n      0x44\n      dup3\n      add\n        /* \"#utility.yul\":7723:7773   */\n      mstore\n        /* \"#utility.yul\":7790:7808   */\n      0x64\n      add\n        /* \"contracts/Web3BetsFO.sol\":2035:2096  require(blacked[_addr] == address(0), \"already in blacklist\") */\n      tag_169\n        /* \"#utility.yul\":7644:7814   */\n      jump\n        /* \"contracts/Web3BetsFO.sol\":2035:2096  require(blacked[_addr] == address(0), \"already in blacklist\") */\n    tag_260:\n      pop\n        /* \"contracts/Web3BetsFO.sol\":5755:5766  eventAdmins */\n      0x0b\n        /* \"contracts/Web3BetsFO.sol\":5755:5778  eventAdmins.push(_addr) */\n      dup1\n      sload\n      0x01\n      dup2\n      add\n      swap1\n      swap2\n      sstore\n      0x0175b7a638427703f0dbe7bb9bbf987a2551717b34e79f33b5b1008d1fa01db9\n      add\n      dup1\n      sload\n      sub(shl(0xa0, 0x01), 0x01)\n      swap1\n      swap3\n      and\n      not(sub(shl(0xa0, 0x01), 0x01))\n      swap3\n      dup4\n      and\n      dup2\n      or\n      swap1\n      swap2\n      sstore\n      0x00\n        /* \"contracts/Web3BetsFO.sol\":5788:5806  eventOwners[_addr] */\n      dup2\n      dup2\n      mstore\n        /* \"contracts/Web3BetsFO.sol\":5788:5799  eventOwners */\n      0x0e\n        /* \"contracts/Web3BetsFO.sol\":5755:5778  eventAdmins.push(_addr) */\n      0x20\n        /* \"contracts/Web3BetsFO.sol\":5788:5806  eventOwners[_addr] */\n      mstore\n      0x40\n      swap1\n      keccak256\n        /* \"contracts/Web3BetsFO.sol\":5788:5814  eventOwners[_addr] = _addr */\n      dup1\n      sload\n      swap1\n      swap3\n      and\n      or\n      swap1\n      sstore\n        /* \"contracts/Web3BetsFO.sol\":5638:5821  function addBlacked(address _addr)... */\n      jump\t// out\n        /* \"contracts/Web3BetsFO.sol\":6672:7119  function isEventAdmin(address _addr) public view override returns (bool) {... */\n    tag_129:\n      sub(shl(0xa0, 0x01), 0x01)\n        /* \"contracts/Web3BetsFO.sol\":6758:6776  eventOwners[_addr] */\n      dup2\n      dup2\n      and\n        /* \"contracts/Web3BetsFO.sol\":6739:6743  bool */\n      0x00\n        /* \"contracts/Web3BetsFO.sol\":6758:6776  eventOwners[_addr] */\n      swap1\n      dup2\n      mstore\n        /* \"contracts/Web3BetsFO.sol\":6758:6769  eventOwners */\n      0x0e\n        /* \"contracts/Web3BetsFO.sol\":6758:6776  eventOwners[_addr] */\n      0x20\n      mstore\n      0x40\n      dup2\n      keccak256\n      sload\n        /* \"contracts/Web3BetsFO.sol\":6739:6743  bool */\n      swap1\n      swap2\n        /* \"contracts/Web3BetsFO.sol\":6758:6776  eventOwners[_addr] */\n      and\n        /* \"contracts/Web3BetsFO.sol\":6758:6790  eventOwners[_addr] != address(0) */\n      iszero\n        /* \"contracts/Web3BetsFO.sol\":6755:7113  if(eventOwners[_addr] != address(0)){... */\n      tag_156\n      jumpi\n        /* \"contracts/Web3BetsFO.sol\":6805:6815  bool found */\n      0x00\n        /* \"contracts/Web3BetsFO.sol\":6842:6851  uint256 i */\n      dup1\n        /* \"contracts/Web3BetsFO.sol\":6837:7027  for (uint256 i = 0; i < eventAdmins.length; i++) {... */\n    tag_267:\n        /* \"contracts/Web3BetsFO.sol\":6861:6872  eventAdmins */\n      0x0b\n        /* \"contracts/Web3BetsFO.sol\":6861:6879  eventAdmins.length */\n      sload\n        /* \"contracts/Web3BetsFO.sol\":6857:6879  i < eventAdmins.length */\n      dup2\n      lt\n        /* \"contracts/Web3BetsFO.sol\":6837:7027  for (uint256 i = 0; i < eventAdmins.length; i++) {... */\n      iszero\n      tag_158\n      jumpi\n        /* \"contracts/Web3BetsFO.sol\":6926:6931  _addr */\n      dup4\n      sub(shl(0xa0, 0x01), 0x01)\n        /* \"contracts/Web3BetsFO.sol\":6908:6931  eventAdmins[i] == _addr */\n      and\n        /* \"contracts/Web3BetsFO.sol\":6908:6919  eventAdmins */\n      0x0b\n        /* \"contracts/Web3BetsFO.sol\":6920:6921  i */\n      dup3\n        /* \"contracts/Web3BetsFO.sol\":6908:6922  eventAdmins[i] */\n      dup2\n      sload\n      dup2\n      lt\n      tag_270\n      jumpi\n      mstore(0x00, shl(0xe0, 0x4e487b71))\n      mstore(0x04, 0x32)\n      revert(0x00, 0x24)\n    tag_270:\n      0x00\n      swap2\n      dup3\n      mstore\n      0x20\n      swap1\n      swap2\n      keccak256\n      add\n      sload\n      sub(shl(0xa0, 0x01), 0x01)\n      and\n        /* \"contracts/Web3BetsFO.sol\":6908:6931  eventAdmins[i] == _addr */\n      eq\n        /* \"contracts/Web3BetsFO.sol\":6904:7013  if (eventAdmins[i] == _addr) {... */\n      iszero\n      tag_272\n      jumpi\n        /* \"contracts/Web3BetsFO.sol\":6963:6967  true */\n      0x01\n        /* \"contracts/Web3BetsFO.sol\":6955:6967  found = true */\n      swap2\n      pop\n        /* \"contracts/Web3BetsFO.sol\":6989:6994  break */\n      jump(tag_158)\n        /* \"contracts/Web3BetsFO.sol\":6904:7013  if (eventAdmins[i] == _addr) {... */\n    tag_272:\n        /* \"contracts/Web3BetsFO.sol\":6881:6884  i++ */\n      dup1\n      tag_273\n      dup2\n      tag_164\n      jump\t// in\n    tag_273:\n      swap2\n      pop\n      pop\n        /* \"contracts/Web3BetsFO.sol\":6837:7027  for (uint256 i = 0; i < eventAdmins.length; i++) {... */\n      jump(tag_267)\n        /* \"contracts/Web3BetsFO.sol\":1094:1122  address[] public eventAdmins */\n    tag_136:\n      0x0b\n      dup2\n      dup2\n      sload\n      dup2\n      lt\n      tag_153\n      jumpi\n      0x00\n      dup1\n      revert\n        /* \"contracts/Web3BetsFO.sol\":4456:4852  function deleteSystemAdmin(address _systemAdmin) external onlyUser {... */\n    tag_140:\n        /* \"contracts/Web3BetsFO.sol\":1435:1448  contractOwner */\n      and(sub(shl(0xa0, 0x01), 0x01), sload(0x00))\n        /* \"contracts/Web3BetsFO.sol\":1421:1431  msg.sender */\n      caller\n        /* \"contracts/Web3BetsFO.sol\":1421:1448  msg.sender == contractOwner */\n      eq\n        /* \"contracts/Web3BetsFO.sol\":1400:1516  require(... */\n      tag_278\n      jumpi\n      mload(0x40)\n      shl(0xe5, 0x461bcd)\n      dup2\n      mstore\n      0x04\n      add\n      tag_169\n      swap1\n      tag_170\n      jump\t// in\n    tag_278:\n      sub(shl(0xa0, 0x01), 0x01)\n        /* \"contracts/Web3BetsFO.sol\":4542:4562  admins[_systemAdmin] */\n      dup2\n      dup2\n      and\n        /* \"contracts/Web3BetsFO.sol\":4574:4575  0 */\n      0x00\n        /* \"contracts/Web3BetsFO.sol\":4542:4562  admins[_systemAdmin] */\n      swap1\n      dup2\n      mstore\n        /* \"contracts/Web3BetsFO.sol\":4542:4548  admins */\n      0x0d\n        /* \"contracts/Web3BetsFO.sol\":4542:4562  admins[_systemAdmin] */\n      0x20\n      mstore\n      0x40\n      swap1\n      keccak256\n      sload\n      and\n        /* \"contracts/Web3BetsFO.sol\":4533:4600  require (admins[_systemAdmin] != address(0), \"Invalid event owner\") */\n      tag_281\n      jumpi\n      mload(0x40)\n      shl(0xe5, 0x461bcd)\n      dup2\n      mstore\n      0x04\n      add\n      tag_169\n      swap1\n      tag_238\n      jump\t// in\n    tag_281:\n      sub(shl(0xa0, 0x01), 0x01)\n        /* \"contracts/Web3BetsFO.sol\":4626:4646  admins[_systemAdmin] */\n      dup2\n      and\n      0x00\n      swap1\n      dup2\n      mstore\n        /* \"contracts/Web3BetsFO.sol\":4626:4632  admins */\n      0x0d\n        /* \"contracts/Web3BetsFO.sol\":4626:4646  admins[_systemAdmin] */\n      0x20\n      mstore\n      0x40\n      dup2\n      keccak256\n        /* \"contracts/Web3BetsFO.sol\":4619:4646  delete admins[_systemAdmin] */\n      dup1\n      sload\n      not(sub(shl(0xa0, 0x01), 0x01))\n      and\n      swap1\n      sstore\n        /* \"contracts/Web3BetsFO.sol\":4657:4846  for (uint256 i = 0; i < systemAdmins.length; i++) {... */\n    tag_283:\n        /* \"contracts/Web3BetsFO.sol\":4681:4693  systemAdmins */\n      0x0a\n        /* \"contracts/Web3BetsFO.sol\":4681:4700  systemAdmins.length */\n      sload\n        /* \"contracts/Web3BetsFO.sol\":4677:4700  i < systemAdmins.length */\n      dup2\n      lt\n        /* \"contracts/Web3BetsFO.sol\":4657:4846  for (uint256 i = 0; i < systemAdmins.length; i++) {... */\n      iszero\n      tag_240\n      jumpi\n        /* \"contracts/Web3BetsFO.sol\":4744:4756  _systemAdmin */\n      dup2\n      sub(shl(0xa0, 0x01), 0x01)\n        /* \"contracts/Web3BetsFO.sol\":4725:4756  systemAdmins[i] == _systemAdmin */\n      and\n        /* \"contracts/Web3BetsFO.sol\":4725:4737  systemAdmins */\n      0x0a\n        /* \"contracts/Web3BetsFO.sol\":4738:4739  i */\n      dup3\n        /* \"contracts/Web3BetsFO.sol\":4725:4740  systemAdmins[i] */\n      dup2\n      sload\n      dup2\n      lt\n      tag_286\n      jumpi\n      mstore(0x00, shl(0xe0, 0x4e487b71))\n      mstore(0x04, 0x32)\n      revert(0x00, 0x24)\n    tag_286:\n      0x00\n      swap2\n      dup3\n      mstore\n      0x20\n      swap1\n      swap2\n      keccak256\n      add\n      sload\n      sub(shl(0xa0, 0x01), 0x01)\n      and\n        /* \"contracts/Web3BetsFO.sol\":4725:4756  systemAdmins[i] == _systemAdmin */\n      eq\n        /* \"contracts/Web3BetsFO.sol\":4721:4836  if (systemAdmins[i] == _systemAdmin) {... */\n      iszero\n      tag_288\n      jumpi\n        /* \"contracts/Web3BetsFO.sol\":4783:4795  systemAdmins */\n      0x0a\n        /* \"contracts/Web3BetsFO.sol\":4796:4797  i */\n      dup2\n        /* \"contracts/Web3BetsFO.sol\":4783:4798  systemAdmins[i] */\n      dup2\n      sload\n      dup2\n      lt\n      tag_245\n      jumpi\n      mstore(0x00, shl(0xe0, 0x4e487b71))\n      mstore(0x04, 0x32)\n      revert(0x00, 0x24)\n        /* \"contracts/Web3BetsFO.sol\":4721:4836  if (systemAdmins[i] == _systemAdmin) {... */\n    tag_288:\n        /* \"contracts/Web3BetsFO.sol\":4702:4705  i++ */\n      dup1\n      tag_291\n      dup2\n      tag_164\n      jump\t// in\n    tag_291:\n      swap2\n      pop\n      pop\n        /* \"contracts/Web3BetsFO.sol\":4657:4846  for (uint256 i = 0; i < systemAdmins.length; i++) {... */\n      jump(tag_283)\n        /* \"contracts/Web3BetsFO.sol\":2732:2987  function setVigPercentage(uint256 _percentage) external onlySystemAdmin {... */\n    tag_143:\n        /* \"contracts/Web3BetsFO.sol\":1595:1620  isSystemAdmin(msg.sender) */\n      tag_293\n        /* \"contracts/Web3BetsFO.sol\":1609:1619  msg.sender */\n      caller\n        /* \"contracts/Web3BetsFO.sol\":1595:1608  isSystemAdmin */\n      tag_88\n        /* \"contracts/Web3BetsFO.sol\":1595:1620  isSystemAdmin(msg.sender) */\n      jump\t// in\n    tag_293:\n        /* \"contracts/Web3BetsFO.sol\":1574:1688  require(... */\n      tag_294\n      jumpi\n      mload(0x40)\n      shl(0xe5, 0x461bcd)\n      dup2\n      mstore\n      0x04\n      add\n      tag_169\n      swap1\n      tag_170\n      jump\t// in\n    tag_294:\n        /* \"contracts/Web3BetsFO.sol\":2849:2851  10 */\n      0x0a\n        /* \"contracts/Web3BetsFO.sol\":2835:2846  _percentage */\n      dup2\n        /* \"contracts/Web3BetsFO.sol\":2835:2851  _percentage < 10 */\n      lt\n        /* \"contracts/Web3BetsFO.sol\":2814:2943  require(... */\n      tag_297\n      jumpi\n      mload(0x40)\n      shl(0xe5, 0x461bcd)\n      dup2\n      mstore\n        /* \"#utility.yul\":5323:5325   */\n      0x20\n        /* \"contracts/Web3BetsFO.sol\":2814:2943  require(... */\n      0x04\n      dup3\n      add\n        /* \"#utility.yul\":5305:5326   */\n      mstore\n        /* \"#utility.yul\":5362:5364   */\n      0x42\n        /* \"#utility.yul\":5342:5360   */\n      0x24\n      dup3\n      add\n        /* \"#utility.yul\":5335:5365   */\n      mstore\n        /* \"#utility.yul\":5401:5435   */\n      0x5669672070657263656e74616765206d75737420626520657870726573736564\n        /* \"#utility.yul\":5381:5399   */\n      0x44\n      dup3\n      add\n        /* \"#utility.yul\":5374:5436   */\n      mstore\n        /* \"#utility.yul\":5472:5506   */\n      0x20696e203020746f2031302070657263656e746167652e204578616d706c653a\n        /* \"#utility.yul\":5452:5470   */\n      0x64\n      dup3\n      add\n        /* \"#utility.yul\":5445:5507   */\n      mstore\n      shl(0xf1, 0x101b)\n        /* \"#utility.yul\":5523:5542   */\n      0x84\n      dup3\n      add\n        /* \"#utility.yul\":5516:5549   */\n      mstore\n        /* \"#utility.yul\":5566:5585   */\n      0xa4\n      add\n        /* \"contracts/Web3BetsFO.sol\":2814:2943  require(... */\n      tag_169\n        /* \"#utility.yul\":5295:5591   */\n      jump\n        /* \"contracts/Web3BetsFO.sol\":2814:2943  require(... */\n    tag_297:\n        /* \"contracts/Web3BetsFO.sol\":2953:2966  vigPercentage */\n      0x09\n        /* \"contracts/Web3BetsFO.sol\":2953:2980  vigPercentage = _percentage */\n      sstore\n        /* \"contracts/Web3BetsFO.sol\":2732:2987  function setVigPercentage(uint256 _percentage) external onlySystemAdmin {... */\n      jump\t// out\n        /* \"contracts/Web3BetsFO.sol\":4862:5217  function addEventAdmin(address _addr)... */\n    tag_146:\n        /* \"contracts/Web3BetsFO.sol\":1595:1620  isSystemAdmin(msg.sender) */\n      tag_301\n        /* \"contracts/Web3BetsFO.sol\":1609:1619  msg.sender */\n      caller\n        /* \"contracts/Web3BetsFO.sol\":1595:1608  isSystemAdmin */\n      tag_88\n        /* \"contracts/Web3BetsFO.sol\":1595:1620  isSystemAdmin(msg.sender) */\n      jump\t// in\n    tag_301:\n        /* \"contracts/Web3BetsFO.sol\":1574:1688  require(... */\n      tag_302\n      jumpi\n      mload(0x40)\n      shl(0xe5, 0x461bcd)\n      dup2\n      mstore\n      0x04\n      add\n      tag_169\n      swap1\n      tag_170\n      jump\t// in\n    tag_302:\n      sub(shl(0xa0, 0x01), 0x01)\n        /* \"contracts/Web3BetsFO.sol\":1907:1925  eventOwners[_addr] */\n      dup1\n      dup3\n      and\n        /* \"contracts/Web3BetsFO.sol\":1937:1938  0 */\n      0x00\n        /* \"contracts/Web3BetsFO.sol\":1907:1925  eventOwners[_addr] */\n      swap1\n      dup2\n      mstore\n        /* \"contracts/Web3BetsFO.sol\":1907:1918  eventOwners */\n      0x0e\n        /* \"contracts/Web3BetsFO.sol\":1907:1925  eventOwners[_addr] */\n      0x20\n      mstore\n      0x40\n      swap1\n      keccak256\n      sload\n        /* \"contracts/Web3BetsFO.sol\":4966:4971  _addr */\n      dup3\n      swap2\n        /* \"contracts/Web3BetsFO.sol\":1907:1925  eventOwners[_addr] */\n      and\n        /* \"contracts/Web3BetsFO.sol\":1907:1939  eventOwners[_addr] == address(0) */\n      iszero\n        /* \"contracts/Web3BetsFO.sol\":1899:1966  require(eventOwners[_addr] == address(0), \"already an event admin\") */\n      tag_305\n      jumpi\n      mload(0x40)\n      shl(0xe5, 0x461bcd)\n      dup2\n      mstore\n        /* \"#utility.yul\":4972:4974   */\n      0x20\n        /* \"contracts/Web3BetsFO.sol\":1899:1966  require(eventOwners[_addr] == address(0), \"already an event admin\") */\n      0x04\n      dup3\n      add\n        /* \"#utility.yul\":4954:4975   */\n      mstore\n        /* \"#utility.yul\":5011:5013   */\n      0x16\n        /* \"#utility.yul\":4991:5009   */\n      0x24\n      dup3\n      add\n        /* \"#utility.yul\":4984:5014   */\n      mstore\n      shl(0x51, 0x30b63932b0b23c9030b71032bb32b73a1030b236b4b7)\n        /* \"#utility.yul\":5030:5048   */\n      0x44\n      dup3\n      add\n        /* \"#utility.yul\":5023:5075   */\n      mstore\n        /* \"#utility.yul\":5092:5110   */\n      0x64\n      add\n        /* \"contracts/Web3BetsFO.sol\":1899:1966  require(eventOwners[_addr] == address(0), \"already an event admin\") */\n      tag_169\n        /* \"#utility.yul\":4944:5116   */\n      jump\n        /* \"contracts/Web3BetsFO.sol\":1899:1966  require(eventOwners[_addr] == address(0), \"already an event admin\") */\n    tag_305:\n        /* \"contracts/Web3BetsFO.sol\":4995:5009  holdersAddress */\n      and(sub(shl(0xa0, 0x01), 0x01), sload(0x02))\n        /* \"contracts/Web3BetsFO.sol\":4995:5023  holdersAddress == address(0) */\n      iszero\n      dup1\n        /* \"contracts/Web3BetsFO.sol\":4995:5057  holdersAddress == address(0) || ecosystemAddress == address(0) */\n      tag_309\n      jumpi\n      pop\n        /* \"contracts/Web3BetsFO.sol\":5027:5043  ecosystemAddress */\n      and(sub(shl(0xa0, 0x01), 0x01), sload(0x01))\n        /* \"contracts/Web3BetsFO.sol\":5027:5057  ecosystemAddress == address(0) */\n      iszero\n        /* \"contracts/Web3BetsFO.sol\":4995:5057  holdersAddress == address(0) || ecosystemAddress == address(0) */\n    tag_309:\n        /* \"contracts/Web3BetsFO.sol\":4987:5140  require(holdersAddress == address(0) || ecosystemAddress == address(0), \"you must set holders and ecosystmeAddress addresses before adding event owners\") */\n      tag_260\n      jumpi\n      mload(0x40)\n      shl(0xe5, 0x461bcd)\n      dup2\n      mstore\n      0x04\n      add\n      tag_169\n      swap1\n      tag_312\n      jump\t// in\n        /* \"contracts/Web3BetsFO.sol\":4104:4450  function addSystemAdmin(address _addr)... */\n    tag_149:\n        /* \"contracts/Web3BetsFO.sol\":1435:1448  contractOwner */\n      and(sub(shl(0xa0, 0x01), 0x01), sload(0x00))\n        /* \"contracts/Web3BetsFO.sol\":1421:1431  msg.sender */\n      caller\n        /* \"contracts/Web3BetsFO.sol\":1421:1448  msg.sender == contractOwner */\n      eq\n        /* \"contracts/Web3BetsFO.sol\":1400:1516  require(... */\n      tag_315\n      jumpi\n      mload(0x40)\n      shl(0xe5, 0x461bcd)\n      dup2\n      mstore\n      0x04\n      add\n      tag_169\n      swap1\n      tag_170\n      jump\t// in\n    tag_315:\n      sub(shl(0xa0, 0x01), 0x01)\n        /* \"contracts/Web3BetsFO.sol\":1771:1784  admins[_addr] */\n      dup1\n      dup3\n      and\n        /* \"contracts/Web3BetsFO.sol\":1796:1797  0 */\n      0x00\n        /* \"contracts/Web3BetsFO.sol\":1771:1784  admins[_addr] */\n      swap1\n      dup2\n      mstore\n        /* \"contracts/Web3BetsFO.sol\":1771:1777  admins */\n      0x0d\n        /* \"contracts/Web3BetsFO.sol\":1771:1784  admins[_addr] */\n      0x20\n      mstore\n      0x40\n      swap1\n      keccak256\n      sload\n        /* \"contracts/Web3BetsFO.sol\":4203:4208  _addr */\n      dup3\n      swap2\n        /* \"contracts/Web3BetsFO.sol\":1771:1784  admins[_addr] */\n      and\n        /* \"contracts/Web3BetsFO.sol\":1771:1798  admins[_addr] == address(0) */\n      iszero\n        /* \"contracts/Web3BetsFO.sol\":1763:1825  require(admins[_addr] == address(0), \"already a system admin\") */\n      tag_318\n      jumpi\n      mload(0x40)\n      shl(0xe5, 0x461bcd)\n      dup2\n      mstore\n        /* \"#utility.yul\":6209:6211   */\n      0x20\n        /* \"contracts/Web3BetsFO.sol\":1763:1825  require(admins[_addr] == address(0), \"already a system admin\") */\n      0x04\n      dup3\n      add\n        /* \"#utility.yul\":6191:6212   */\n      mstore\n        /* \"#utility.yul\":6248:6250   */\n      0x16\n        /* \"#utility.yul\":6228:6246   */\n      0x24\n      dup3\n      add\n        /* \"#utility.yul\":6221:6251   */\n      mstore\n      shl(0x51, 0x30b63932b0b23c90309039bcb9ba32b69030b236b4b7)\n        /* \"#utility.yul\":6267:6285   */\n      0x44\n      dup3\n      add\n        /* \"#utility.yul\":6260:6312   */\n      mstore\n        /* \"#utility.yul\":6329:6347   */\n      0x64\n      add\n        /* \"contracts/Web3BetsFO.sol\":1763:1825  require(admins[_addr] == address(0), \"already a system admin\") */\n      tag_169\n        /* \"#utility.yul\":6181:6353   */\n      jump\n        /* \"contracts/Web3BetsFO.sol\":1763:1825  require(admins[_addr] == address(0), \"already a system admin\") */\n    tag_318:\n        /* \"contracts/Web3BetsFO.sol\":4232:4246  holdersAddress */\n      and(sub(shl(0xa0, 0x01), 0x01), sload(0x02))\n        /* \"contracts/Web3BetsFO.sol\":4232:4260  holdersAddress != address(0) */\n      iszero\n      dup1\n      iszero\n      swap1\n        /* \"contracts/Web3BetsFO.sol\":4232:4294  holdersAddress != address(0) && ecosystemAddress != address(0) */\n      tag_322\n      jumpi\n      pop\n        /* \"contracts/Web3BetsFO.sol\":4264:4280  ecosystemAddress */\n      and(sub(shl(0xa0, 0x01), 0x01), sload(0x01))\n        /* \"contracts/Web3BetsFO.sol\":4264:4294  ecosystemAddress != address(0) */\n      iszero\n      iszero\n        /* \"contracts/Web3BetsFO.sol\":4232:4294  holdersAddress != address(0) && ecosystemAddress != address(0) */\n    tag_322:\n        /* \"contracts/Web3BetsFO.sol\":4224:4377  require(holdersAddress != address(0) && ecosystemAddress != address(0), \"you must set holders and ecosystmeAddress addresses before adding event owners\") */\n      tag_323\n      jumpi\n      mload(0x40)\n      shl(0xe5, 0x461bcd)\n      dup2\n      mstore\n      0x04\n      add\n      tag_169\n      swap1\n      tag_312\n      jump\t// in\n    tag_323:\n      pop\n        /* \"contracts/Web3BetsFO.sol\":4388:4400  systemAdmins */\n      0x0a\n        /* \"contracts/Web3BetsFO.sol\":4388:4412  systemAdmins.push(_addr) */\n      dup1\n      sload\n      0x01\n      dup2\n      add\n      swap1\n      swap2\n      sstore\n      0xc65a7bb8d6351c1cf70c95a316cc6a92839c986682d98bc35f958f4883f9d2a8\n      add\n      dup1\n      sload\n      sub(shl(0xa0, 0x01), 0x01)\n      swap1\n      swap3\n      and\n      not(sub(shl(0xa0, 0x01), 0x01))\n      swap3\n      dup4\n      and\n      dup2\n      or\n      swap1\n      swap2\n      sstore\n      0x00\n        /* \"contracts/Web3BetsFO.sol\":4422:4435  admins[_addr] */\n      dup2\n      dup2\n      mstore\n        /* \"contracts/Web3BetsFO.sol\":4422:4428  admins */\n      0x0d\n        /* \"contracts/Web3BetsFO.sol\":4388:4412  systemAdmins.push(_addr) */\n      0x20\n        /* \"contracts/Web3BetsFO.sol\":4422:4435  admins[_addr] */\n      mstore\n      0x40\n      swap1\n      keccak256\n        /* \"contracts/Web3BetsFO.sol\":4422:4443  admins[_addr] = _addr */\n      dup1\n      sload\n      swap1\n      swap3\n      and\n      or\n      swap1\n      sstore\n        /* \"contracts/Web3BetsFO.sol\":4104:4450  function addSystemAdmin(address _addr)... */\n      jump\t// out\n        /* \"contracts/Web3BetsFO.sol\":5223:5628  function deleteEventAdmin(address _eventOwner) external onlySystemAdmin {... */\n    tag_152:\n        /* \"contracts/Web3BetsFO.sol\":1595:1620  isSystemAdmin(msg.sender) */\n      tag_327\n        /* \"contracts/Web3BetsFO.sol\":1609:1619  msg.sender */\n      caller\n        /* \"contracts/Web3BetsFO.sol\":1595:1608  isSystemAdmin */\n      tag_88\n        /* \"contracts/Web3BetsFO.sol\":1595:1620  isSystemAdmin(msg.sender) */\n      jump\t// in\n    tag_327:\n        /* \"contracts/Web3BetsFO.sol\":1574:1688  require(... */\n      tag_328\n      jumpi\n      mload(0x40)\n      shl(0xe5, 0x461bcd)\n      dup2\n      mstore\n      0x04\n      add\n      tag_169\n      swap1\n      tag_170\n      jump\t// in\n    tag_328:\n      sub(shl(0xa0, 0x01), 0x01)\n        /* \"contracts/Web3BetsFO.sol\":5314:5338  eventOwners[_eventOwner] */\n      dup2\n      dup2\n      and\n        /* \"contracts/Web3BetsFO.sol\":5350:5351  0 */\n      0x00\n        /* \"contracts/Web3BetsFO.sol\":5314:5338  eventOwners[_eventOwner] */\n      swap1\n      dup2\n      mstore\n        /* \"contracts/Web3BetsFO.sol\":5314:5325  eventOwners */\n      0x0e\n        /* \"contracts/Web3BetsFO.sol\":5314:5338  eventOwners[_eventOwner] */\n      0x20\n      mstore\n      0x40\n      swap1\n      keccak256\n      sload\n      and\n        /* \"contracts/Web3BetsFO.sol\":5305:5376  require (eventOwners[_eventOwner] != address(0), \"Invalid event owner\") */\n      tag_331\n      jumpi\n      mload(0x40)\n      shl(0xe5, 0x461bcd)\n      dup2\n      mstore\n      0x04\n      add\n      tag_169\n      swap1\n      tag_238\n      jump\t// in\n    tag_331:\n      sub(shl(0xa0, 0x01), 0x01)\n        /* \"contracts/Web3BetsFO.sol\":5402:5426  eventOwners[_eventOwner] */\n      dup2\n      and\n      0x00\n      swap1\n      dup2\n      mstore\n        /* \"contracts/Web3BetsFO.sol\":5402:5413  eventOwners */\n      0x0e\n        /* \"contracts/Web3BetsFO.sol\":5402:5426  eventOwners[_eventOwner] */\n      0x20\n      mstore\n      0x40\n      dup2\n      keccak256\n        /* \"contracts/Web3BetsFO.sol\":5395:5426  delete eventOwners[_eventOwner] */\n      dup1\n      sload\n      not(sub(shl(0xa0, 0x01), 0x01))\n      and\n      swap1\n      sstore\n        /* \"contracts/Web3BetsFO.sol\":5437:5622  for (uint256 i = 0; i < eventAdmins.length; i++) {... */\n    tag_333:\n        /* \"contracts/Web3BetsFO.sol\":5461:5472  eventAdmins */\n      0x0b\n        /* \"contracts/Web3BetsFO.sol\":5461:5479  eventAdmins.length */\n      sload\n        /* \"contracts/Web3BetsFO.sol\":5457:5479  i < eventAdmins.length */\n      dup2\n      lt\n        /* \"contracts/Web3BetsFO.sol\":5437:5622  for (uint256 i = 0; i < eventAdmins.length; i++) {... */\n      iszero\n      tag_240\n      jumpi\n        /* \"contracts/Web3BetsFO.sol\":5522:5533  _eventOwner */\n      dup2\n      sub(shl(0xa0, 0x01), 0x01)\n        /* \"contracts/Web3BetsFO.sol\":5504:5533  eventAdmins[i] == _eventOwner */\n      and\n        /* \"contracts/Web3BetsFO.sol\":5504:5515  eventAdmins */\n      0x0b\n        /* \"contracts/Web3BetsFO.sol\":5516:5517  i */\n      dup3\n        /* \"contracts/Web3BetsFO.sol\":5504:5518  eventAdmins[i] */\n      dup2\n      sload\n      dup2\n      lt\n      tag_336\n      jumpi\n      mstore(0x00, shl(0xe0, 0x4e487b71))\n      mstore(0x04, 0x32)\n      revert(0x00, 0x24)\n    tag_336:\n      0x00\n      swap2\n      dup3\n      mstore\n      0x20\n      swap1\n      swap2\n      keccak256\n      add\n      sload\n      sub(shl(0xa0, 0x01), 0x01)\n      and\n        /* \"contracts/Web3BetsFO.sol\":5504:5533  eventAdmins[i] == _eventOwner */\n      eq\n        /* \"contracts/Web3BetsFO.sol\":5500:5612  if (eventAdmins[i] == _eventOwner) {... */\n      iszero\n      tag_338\n      jumpi\n        /* \"contracts/Web3BetsFO.sol\":5560:5571  eventAdmins */\n      0x0b\n        /* \"contracts/Web3BetsFO.sol\":5572:5573  i */\n      dup2\n        /* \"contracts/Web3BetsFO.sol\":5560:5574  eventAdmins[i] */\n      dup2\n      sload\n      dup2\n      lt\n      tag_245\n      jumpi\n      mstore(0x00, shl(0xe0, 0x4e487b71))\n      mstore(0x04, 0x32)\n      revert(0x00, 0x24)\n        /* \"contracts/Web3BetsFO.sol\":5500:5612  if (eventAdmins[i] == _eventOwner) {... */\n    tag_338:\n        /* \"contracts/Web3BetsFO.sol\":5481:5484  i++ */\n      dup1\n      tag_341\n      dup2\n      tag_164\n      jump\t// in\n    tag_341:\n      swap2\n      pop\n      pop\n        /* \"contracts/Web3BetsFO.sol\":5437:5622  for (uint256 i = 0; i < eventAdmins.length; i++) {... */\n      jump(tag_333)\n        /* \"@openzeppelin/contracts/token/ERC20/utils/SafeERC20.sol\":763:968  function safeTransfer(... */\n    tag_195:\n        /* \"@openzeppelin/contracts/token/ERC20/utils/SafeERC20.sol\":902:960  abi.encodeWithSelector(token.transfer.selector, to, value) */\n      0x40\n      dup1\n      mload\n      sub(shl(0xa0, 0x01), 0x01)\n        /* \"#utility.yul\":2380:2412   */\n      dup5\n      dup2\n      and\n        /* \"@openzeppelin/contracts/token/ERC20/utils/SafeERC20.sol\":902:960  abi.encodeWithSelector(token.transfer.selector, to, value) */\n      0x24\n      dup4\n      add\n        /* \"#utility.yul\":2362:2413   */\n      mstore\n        /* \"#utility.yul\":2429:2447   */\n      0x44\n      dup1\n      dup4\n      add\n        /* \"#utility.yul\":2422:2456   */\n      dup6\n      swap1\n      mstore\n        /* \"@openzeppelin/contracts/token/ERC20/utils/SafeERC20.sol\":902:960  abi.encodeWithSelector(token.transfer.selector, to, value) */\n      dup4\n      mload\n      dup1\n      dup5\n      sub\n      swap1\n      swap2\n      add\n      dup2\n      mstore\n        /* \"#utility.yul\":2335:2353   */\n      0x64\n      swap1\n      swap3\n      add\n        /* \"@openzeppelin/contracts/token/ERC20/utils/SafeERC20.sol\":902:960  abi.encodeWithSelector(token.transfer.selector, to, value) */\n      dup4\n      mstore\n      0x20\n      dup1\n      dup4\n      add\n      dup1\n      mload\n      sub(shl(0xe0, 0x01), 0x01)\n      and\n      shl(0xe0, 0xa9059cbb)\n      or\n      swap1\n      mstore\n        /* \"@openzeppelin/contracts/token/ERC20/utils/SafeERC20.sol\":4192:4261  address(token).functionCall(data, \"SafeERC20: low-level call failed\") */\n      dup4\n      mload\n      dup1\n      dup6\n      add\n      swap1\n      swap5\n      mstore\n      dup1\n      dup5\n      mstore\n      0x5361666545524332303a206c6f772d6c6576656c2063616c6c206661696c6564\n      swap1\n      dup5\n      add\n      mstore\n        /* \"@openzeppelin/contracts/token/ERC20/utils/SafeERC20.sol\":875:961  _callOptionalReturn(token, abi.encodeWithSelector(token.transfer.selector, to, value)) */\n      tag_196\n      swap3\n        /* \"@openzeppelin/contracts/token/ERC20/utils/SafeERC20.sol\":895:900  token */\n      dup7\n      swap3\n        /* \"@openzeppelin/contracts/token/ERC20/utils/SafeERC20.sol\":902:960  abi.encodeWithSelector(token.transfer.selector, to, value) */\n      swap2\n      0x00\n      swap2\n        /* \"@openzeppelin/contracts/token/ERC20/utils/SafeERC20.sol\":4192:4261  address(token).functionCall(data, \"SafeERC20: low-level call failed\") */\n      tag_348\n      swap2\n        /* \"@openzeppelin/contracts/token/ERC20/utils/SafeERC20.sol\":4192:4219  address(token).functionCall */\n      dup6\n      and\n      swap1\n        /* \"@openzeppelin/contracts/token/ERC20/utils/SafeERC20.sol\":902:960  abi.encodeWithSelector(token.transfer.selector, to, value) */\n      dup5\n      swap1\n        /* \"@openzeppelin/contracts/token/ERC20/utils/SafeERC20.sol\":4192:4219  address(token).functionCall */\n      tag_349\n        /* \"@openzeppelin/contracts/token/ERC20/utils/SafeERC20.sol\":4192:4261  address(token).functionCall(data, \"SafeERC20: low-level call failed\") */\n      jump\t// in\n    tag_348:\n        /* \"@openzeppelin/contracts/token/ERC20/utils/SafeERC20.sol\":4275:4292  returndata.length */\n      dup1\n      mload\n        /* \"@openzeppelin/contracts/token/ERC20/utils/SafeERC20.sol\":4166:4261  bytes memory returndata = address(token).functionCall(data, \"SafeERC20: low-level call failed\") */\n      swap1\n      swap2\n      pop\n        /* \"@openzeppelin/contracts/token/ERC20/utils/SafeERC20.sol\":4275:4296  returndata.length > 0 */\n      iszero\n        /* \"@openzeppelin/contracts/token/ERC20/utils/SafeERC20.sol\":4271:4447  if (returndata.length > 0) {... */\n      tag_196\n      jumpi\n        /* \"@openzeppelin/contracts/token/ERC20/utils/SafeERC20.sol\":4370:4380  returndata */\n      dup1\n        /* \"@openzeppelin/contracts/token/ERC20/utils/SafeERC20.sol\":4359:4389  abi.decode(returndata, (bool)) */\n      dup1\n      0x20\n      add\n      swap1\n      mload\n      dup2\n      add\n      swap1\n      tag_351\n      swap2\n      swap1\n      tag_352\n      jump\t// in\n    tag_351:\n        /* \"@openzeppelin/contracts/token/ERC20/utils/SafeERC20.sol\":4351:4436  require(abi.decode(returndata, (bool)), \"SafeERC20: ERC20 operation did not succeed\") */\n      tag_196\n      jumpi\n      mload(0x40)\n      shl(0xe5, 0x461bcd)\n      dup2\n      mstore\n        /* \"#utility.yul\":8021:8023   */\n      0x20\n        /* \"@openzeppelin/contracts/token/ERC20/utils/SafeERC20.sol\":4351:4436  require(abi.decode(returndata, (bool)), \"SafeERC20: ERC20 operation did not succeed\") */\n      0x04\n      dup3\n      add\n        /* \"#utility.yul\":8003:8024   */\n      mstore\n        /* \"#utility.yul\":8060:8062   */\n      0x2a\n        /* \"#utility.yul\":8040:8058   */\n      0x24\n      dup3\n      add\n        /* \"#utility.yul\":8033:8063   */\n      mstore\n        /* \"#utility.yul\":8099:8133   */\n      0x5361666545524332303a204552433230206f7065726174696f6e20646964206e\n        /* \"#utility.yul\":8079:8097   */\n      0x44\n      dup3\n      add\n        /* \"#utility.yul\":8072:8134   */\n      mstore\n      shl(0xb2, 0x1bdd081cdd58d8d95959)\n        /* \"#utility.yul\":8150:8168   */\n      0x64\n      dup3\n      add\n        /* \"#utility.yul\":8143:8183   */\n      mstore\n        /* \"#utility.yul\":8200:8219   */\n      0x84\n      add\n        /* \"@openzeppelin/contracts/token/ERC20/utils/SafeERC20.sol\":4351:4436  require(abi.decode(returndata, (bool)), \"SafeERC20: ERC20 operation did not succeed\") */\n      tag_169\n        /* \"#utility.yul\":7993:8225   */\n      jump\n        /* \"@openzeppelin/contracts/utils/Address.sol\":3861:4084  function functionCall(... */\n    tag_349:\n        /* \"@openzeppelin/contracts/utils/Address.sol\":3994:4006  bytes memory */\n      0x60\n        /* \"@openzeppelin/contracts/utils/Address.sol\":4025:4077  functionCallWithValue(target, data, 0, errorMessage) */\n      tag_357\n        /* \"@openzeppelin/contracts/utils/Address.sol\":4047:4053  target */\n      dup5\n        /* \"@openzeppelin/contracts/utils/Address.sol\":4055:4059  data */\n      dup5\n        /* \"@openzeppelin/contracts/utils/Address.sol\":4061:4062  0 */\n      0x00\n        /* \"@openzeppelin/contracts/utils/Address.sol\":4064:4076  errorMessage */\n      dup6\n        /* \"@openzeppelin/contracts/utils/Address.sol\":4025:4046  functionCallWithValue */\n      tag_358\n        /* \"@openzeppelin/contracts/utils/Address.sol\":4025:4077  functionCallWithValue(target, data, 0, errorMessage) */\n      jump\t// in\n    tag_357:\n        /* \"@openzeppelin/contracts/utils/Address.sol\":4018:4077  return functionCallWithValue(target, data, 0, errorMessage) */\n      swap1\n      pop\n        /* \"@openzeppelin/contracts/utils/Address.sol\":3861:4084  function functionCall(... */\n    tag_356:\n      swap4\n      swap3\n      pop\n      pop\n      pop\n      jump\t// out\n        /* \"@openzeppelin/contracts/utils/Address.sol\":4948:5447  function functionCallWithValue(... */\n    tag_358:\n        /* \"@openzeppelin/contracts/utils/Address.sol\":5113:5125  bytes memory */\n      0x60\n        /* \"@openzeppelin/contracts/utils/Address.sol\":5170:5175  value */\n      dup3\n        /* \"@openzeppelin/contracts/utils/Address.sol\":5145:5166  address(this).balance */\n      selfbalance\n        /* \"@openzeppelin/contracts/utils/Address.sol\":5145:5175  address(this).balance >= value */\n      lt\n      iszero\n        /* \"@openzeppelin/contracts/utils/Address.sol\":5137:5218  require(address(this).balance >= value, \"Address: insufficient balance for call\") */\n      tag_360\n      jumpi\n      mload(0x40)\n      shl(0xe5, 0x461bcd)\n      dup2\n      mstore\n        /* \"#utility.yul\":4158:4160   */\n      0x20\n        /* \"@openzeppelin/contracts/utils/Address.sol\":5137:5218  require(address(this).balance >= value, \"Address: insufficient balance for call\") */\n      0x04\n      dup3\n      add\n        /* \"#utility.yul\":4140:4161   */\n      mstore\n        /* \"#utility.yul\":4197:4199   */\n      0x26\n        /* \"#utility.yul\":4177:4195   */\n      0x24\n      dup3\n      add\n        /* \"#utility.yul\":4170:4200   */\n      mstore\n        /* \"#utility.yul\":4236:4270   */\n      0x416464726573733a20696e73756666696369656e742062616c616e636520666f\n        /* \"#utility.yul\":4216:4234   */\n      0x44\n      dup3\n      add\n        /* \"#utility.yul\":4209:4271   */\n      mstore\n      shl(0xd2, 0x1c8818d85b1b)\n        /* \"#utility.yul\":4287:4305   */\n      0x64\n      dup3\n      add\n        /* \"#utility.yul\":4280:4316   */\n      mstore\n        /* \"#utility.yul\":4333:4352   */\n      0x84\n      add\n        /* \"@openzeppelin/contracts/utils/Address.sol\":5137:5218  require(address(this).balance >= value, \"Address: insufficient balance for call\") */\n      tag_169\n        /* \"#utility.yul\":4130:4358   */\n      jump\n        /* \"@openzeppelin/contracts/utils/Address.sol\":5137:5218  require(address(this).balance >= value, \"Address: insufficient balance for call\") */\n    tag_360:\n      sub(shl(0xa0, 0x01), 0x01)\n        /* \"@openzeppelin/contracts/utils/Address.sol\":1465:1484  account.code.length */\n      dup6\n      and\n      extcodesize\n        /* \"@openzeppelin/contracts/utils/Address.sol\":5228:5288  require(isContract(target), \"Address: call to non-contract\") */\n      tag_365\n      jumpi\n      mload(0x40)\n      shl(0xe5, 0x461bcd)\n      dup2\n      mstore\n        /* \"#utility.yul\":6966:6968   */\n      0x20\n        /* \"@openzeppelin/contracts/utils/Address.sol\":5228:5288  require(isContract(target), \"Address: call to non-contract\") */\n      0x04\n      dup3\n      add\n        /* \"#utility.yul\":6948:6969   */\n      mstore\n        /* \"#utility.yul\":7005:7007   */\n      0x1d\n        /* \"#utility.yul\":6985:7003   */\n      0x24\n      dup3\n      add\n        /* \"#utility.yul\":6978:7008   */\n      mstore\n        /* \"#utility.yul\":7044:7075   */\n      0x416464726573733a2063616c6c20746f206e6f6e2d636f6e7472616374000000\n        /* \"#utility.yul\":7024:7042   */\n      0x44\n      dup3\n      add\n        /* \"#utility.yul\":7017:7076   */\n      mstore\n        /* \"#utility.yul\":7093:7111   */\n      0x64\n      add\n        /* \"@openzeppelin/contracts/utils/Address.sol\":5228:5288  require(isContract(target), \"Address: call to non-contract\") */\n      tag_169\n        /* \"#utility.yul\":6938:7117   */\n      jump\n        /* \"@openzeppelin/contracts/utils/Address.sol\":5228:5288  require(isContract(target), \"Address: call to non-contract\") */\n    tag_365:\n        /* \"@openzeppelin/contracts/utils/Address.sol\":5300:5312  bool success */\n      0x00\n        /* \"@openzeppelin/contracts/utils/Address.sol\":5314:5337  bytes memory returndata */\n      dup1\n        /* \"@openzeppelin/contracts/utils/Address.sol\":5341:5347  target */\n      dup7\n      sub(shl(0xa0, 0x01), 0x01)\n        /* \"@openzeppelin/contracts/utils/Address.sol\":5341:5352  target.call */\n      and\n        /* \"@openzeppelin/contracts/utils/Address.sol\":5360:5365  value */\n      dup6\n        /* \"@openzeppelin/contracts/utils/Address.sol\":5367:5371  data */\n      dup8\n        /* \"@openzeppelin/contracts/utils/Address.sol\":5341:5372  target.call{value: value}(data) */\n      mload(0x40)\n      tag_368\n      swap2\n      swap1\n      tag_369\n      jump\t// in\n    tag_368:\n      0x00\n      mload(0x40)\n      dup1\n      dup4\n      sub\n      dup2\n      dup6\n      dup8\n      gas\n      call\n      swap3\n      pop\n      pop\n      pop\n      returndatasize\n      dup1\n      0x00\n      dup2\n      eq\n      tag_372\n      jumpi\n      mload(0x40)\n      swap2\n      pop\n      and(add(returndatasize, 0x3f), not(0x1f))\n      dup3\n      add\n      0x40\n      mstore\n      returndatasize\n      dup3\n      mstore\n      returndatasize\n      0x00\n      0x20\n      dup5\n      add\n      returndatacopy\n      jump(tag_371)\n    tag_372:\n      0x60\n      swap2\n      pop\n    tag_371:\n      pop\n        /* \"@openzeppelin/contracts/utils/Address.sol\":5299:5372  (bool success, bytes memory returndata) = target.call{value: value}(data) */\n      swap2\n      pop\n      swap2\n      pop\n        /* \"@openzeppelin/contracts/utils/Address.sol\":5389:5440  verifyCallResult(success, returndata, errorMessage) */\n      tag_373\n        /* \"@openzeppelin/contracts/utils/Address.sol\":5406:5413  success */\n      dup3\n        /* \"@openzeppelin/contracts/utils/Address.sol\":5415:5425  returndata */\n      dup3\n        /* \"@openzeppelin/contracts/utils/Address.sol\":5427:5439  errorMessage */\n      dup7\n        /* \"@openzeppelin/contracts/utils/Address.sol\":5389:5405  verifyCallResult */\n      tag_374\n        /* \"@openzeppelin/contracts/utils/Address.sol\":5389:5440  verifyCallResult(success, returndata, errorMessage) */\n      jump\t// in\n    tag_373:\n        /* \"@openzeppelin/contracts/utils/Address.sol\":5382:5440  return verifyCallResult(success, returndata, errorMessage) */\n      swap8\n        /* \"@openzeppelin/contracts/utils/Address.sol\":4948:5447  function functionCallWithValue(... */\n      swap7\n      pop\n      pop\n      pop\n      pop\n      pop\n      pop\n      pop\n      jump\t// out\n        /* \"@openzeppelin/contracts/utils/Address.sol\":7561:8303  function verifyCallResult(... */\n    tag_374:\n        /* \"@openzeppelin/contracts/utils/Address.sol\":7707:7719  bytes memory */\n      0x60\n        /* \"@openzeppelin/contracts/utils/Address.sol\":7735:7742  success */\n      dup4\n        /* \"@openzeppelin/contracts/utils/Address.sol\":7731:8297  if (success) {... */\n      iszero\n      tag_377\n      jumpi\n      pop\n        /* \"@openzeppelin/contracts/utils/Address.sol\":7765:7775  returndata */\n      dup2\n        /* \"@openzeppelin/contracts/utils/Address.sol\":7758:7775  return returndata */\n      jump(tag_356)\n        /* \"@openzeppelin/contracts/utils/Address.sol\":7731:8297  if (success) {... */\n    tag_377:\n        /* \"@openzeppelin/contracts/utils/Address.sol\":7876:7893  returndata.length */\n      dup3\n      mload\n        /* \"@openzeppelin/contracts/utils/Address.sol\":7876:7897  returndata.length > 0 */\n      iszero\n        /* \"@openzeppelin/contracts/utils/Address.sol\":7872:8287  if (returndata.length > 0) {... */\n      tag_379\n      jumpi\n        /* \"@openzeppelin/contracts/utils/Address.sol\":8120:8130  returndata */\n      dup3\n        /* \"@openzeppelin/contracts/utils/Address.sol\":8114:8131  mload(returndata) */\n      mload\n        /* \"@openzeppelin/contracts/utils/Address.sol\":8180:8195  returndata_size */\n      dup1\n        /* \"@openzeppelin/contracts/utils/Address.sol\":8167:8177  returndata */\n      dup5\n        /* \"@openzeppelin/contracts/utils/Address.sol\":8163:8165  32 */\n      0x20\n        /* \"@openzeppelin/contracts/utils/Address.sol\":8159:8178  add(32, returndata) */\n      add\n        /* \"@openzeppelin/contracts/utils/Address.sol\":8152:8196  revert(add(32, returndata), returndata_size) */\n      revert\n        /* \"@openzeppelin/contracts/utils/Address.sol\":8069:8214  {... */\n    tag_379:\n        /* \"@openzeppelin/contracts/utils/Address.sol\":8259:8271  errorMessage */\n      dup2\n        /* \"@openzeppelin/contracts/utils/Address.sol\":8252:8272  revert(errorMessage) */\n      mload(0x40)\n      shl(0xe5, 0x461bcd)\n      dup2\n      mstore\n      0x04\n      add\n      tag_169\n      swap2\n      swap1\n      tag_382\n      jump\t// in\n        /* \"#utility.yul\":14:187   */\n    tag_384:\n        /* \"#utility.yul\":82:102   */\n      dup1\n      calldataload\n      sub(shl(0xa0, 0x01), 0x01)\n        /* \"#utility.yul\":131:162   */\n      dup2\n      and\n        /* \"#utility.yul\":121:163   */\n      dup2\n      eq\n        /* \"#utility.yul\":111:113   */\n      tag_165\n      jumpi\n        /* \"#utility.yul\":177:178   */\n      0x00\n        /* \"#utility.yul\":174:175   */\n      dup1\n        /* \"#utility.yul\":167:179   */\n      revert\n        /* \"#utility.yul\":192:388   */\n    tag_62:\n        /* \"#utility.yul\":251:257   */\n      0x00\n        /* \"#utility.yul\":304:306   */\n      0x20\n        /* \"#utility.yul\":292:301   */\n      dup3\n        /* \"#utility.yul\":283:290   */\n      dup5\n        /* \"#utility.yul\":279:302   */\n      sub\n        /* \"#utility.yul\":275:307   */\n      slt\n        /* \"#utility.yul\":272:274   */\n      iszero\n      tag_388\n      jumpi\n        /* \"#utility.yul\":325:331   */\n      dup1\n        /* \"#utility.yul\":317:323   */\n      dup2\n        /* \"#utility.yul\":310:332   */\n      revert\n        /* \"#utility.yul\":272:274   */\n    tag_388:\n        /* \"#utility.yul\":353:382   */\n      tag_356\n        /* \"#utility.yul\":372:381   */\n      dup3\n        /* \"#utility.yul\":353:382   */\n      tag_384\n      jump\t// in\n        /* \"#utility.yul\":393:737   */\n    tag_68:\n        /* \"#utility.yul\":470:476   */\n      0x00\n        /* \"#utility.yul\":478:484   */\n      dup1\n        /* \"#utility.yul\":486:492   */\n      0x00\n        /* \"#utility.yul\":539:541   */\n      0x60\n        /* \"#utility.yul\":527:536   */\n      dup5\n        /* \"#utility.yul\":518:525   */\n      dup7\n        /* \"#utility.yul\":514:537   */\n      sub\n        /* \"#utility.yul\":510:542   */\n      slt\n        /* \"#utility.yul\":507:509   */\n      iszero\n      tag_391\n      jumpi\n        /* \"#utility.yul\":560:566   */\n      dup2\n        /* \"#utility.yul\":552:558   */\n      dup3\n        /* \"#utility.yul\":545:567   */\n      revert\n        /* \"#utility.yul\":507:509   */\n    tag_391:\n        /* \"#utility.yul\":588:617   */\n      tag_392\n        /* \"#utility.yul\":607:616   */\n      dup5\n        /* \"#utility.yul\":588:617   */\n      tag_384\n      jump\t// in\n    tag_392:\n        /* \"#utility.yul\":578:617   */\n      swap3\n      pop\n        /* \"#utility.yul\":636:674   */\n      tag_393\n        /* \"#utility.yul\":670:672   */\n      0x20\n        /* \"#utility.yul\":659:668   */\n      dup6\n        /* \"#utility.yul\":655:673   */\n      add\n        /* \"#utility.yul\":636:674   */\n      tag_384\n      jump\t// in\n    tag_393:\n        /* \"#utility.yul\":626:674   */\n      swap2\n      pop\n        /* \"#utility.yul\":693:731   */\n      tag_394\n        /* \"#utility.yul\":727:729   */\n      0x40\n        /* \"#utility.yul\":716:725   */\n      dup6\n        /* \"#utility.yul\":712:730   */\n      add\n        /* \"#utility.yul\":693:731   */\n      tag_384\n      jump\t// in\n    tag_394:\n        /* \"#utility.yul\":683:731   */\n      swap1\n      pop\n        /* \"#utility.yul\":497:737   */\n      swap3\n      pop\n      swap3\n      pop\n      swap3\n      jump\t// out\n        /* \"#utility.yul\":742:1039   */\n    tag_352:\n        /* \"#utility.yul\":809:815   */\n      0x00\n        /* \"#utility.yul\":862:864   */\n      0x20\n        /* \"#utility.yul\":850:859   */\n      dup3\n        /* \"#utility.yul\":841:848   */\n      dup5\n        /* \"#utility.yul\":837:860   */\n      sub\n        /* \"#utility.yul\":833:865   */\n      slt\n        /* \"#utility.yul\":830:832   */\n      iszero\n      tag_396\n      jumpi\n        /* \"#utility.yul\":883:889   */\n      dup1\n        /* \"#utility.yul\":875:881   */\n      dup2\n        /* \"#utility.yul\":868:890   */\n      revert\n        /* \"#utility.yul\":830:832   */\n    tag_396:\n        /* \"#utility.yul\":920:929   */\n      dup2\n        /* \"#utility.yul\":914:930   */\n      mload\n        /* \"#utility.yul\":973:978   */\n      dup1\n        /* \"#utility.yul\":966:979   */\n      iszero\n        /* \"#utility.yul\":959:980   */\n      iszero\n        /* \"#utility.yul\":952:957   */\n      dup2\n        /* \"#utility.yul\":949:981   */\n      eq\n        /* \"#utility.yul\":939:941   */\n      tag_356\n      jumpi\n        /* \"#utility.yul\":1000:1006   */\n      dup2\n        /* \"#utility.yul\":992:998   */\n      dup3\n        /* \"#utility.yul\":985:1007   */\n      revert\n        /* \"#utility.yul\":1044:1234   */\n    tag_44:\n        /* \"#utility.yul\":1103:1109   */\n      0x00\n        /* \"#utility.yul\":1156:1158   */\n      0x20\n        /* \"#utility.yul\":1144:1153   */\n      dup3\n        /* \"#utility.yul\":1135:1142   */\n      dup5\n        /* \"#utility.yul\":1131:1154   */\n      sub\n        /* \"#utility.yul\":1127:1159   */\n      slt\n        /* \"#utility.yul\":1124:1126   */\n      iszero\n      tag_399\n      jumpi\n        /* \"#utility.yul\":1177:1183   */\n      dup1\n        /* \"#utility.yul\":1169:1175   */\n      dup2\n        /* \"#utility.yul\":1162:1184   */\n      revert\n        /* \"#utility.yul\":1124:1126   */\n    tag_399:\n      pop\n        /* \"#utility.yul\":1205:1228   */\n      calldataload\n      swap2\n        /* \"#utility.yul\":1114:1234   */\n      swap1\n      pop\n      jump\t// out\n        /* \"#utility.yul\":1239:1433   */\n    tag_178:\n        /* \"#utility.yul\":1309:1315   */\n      0x00\n        /* \"#utility.yul\":1362:1364   */\n      0x20\n        /* \"#utility.yul\":1350:1359   */\n      dup3\n        /* \"#utility.yul\":1341:1348   */\n      dup5\n        /* \"#utility.yul\":1337:1360   */\n      sub\n        /* \"#utility.yul\":1333:1365   */\n      slt\n        /* \"#utility.yul\":1330:1332   */\n      iszero\n      tag_401\n      jumpi\n        /* \"#utility.yul\":1383:1389   */\n      dup1\n        /* \"#utility.yul\":1375:1381   */\n      dup2\n        /* \"#utility.yul\":1368:1390   */\n      revert\n        /* \"#utility.yul\":1330:1332   */\n    tag_401:\n      pop\n        /* \"#utility.yul\":1411:1427   */\n      mload\n      swap2\n        /* \"#utility.yul\":1320:1433   */\n      swap1\n      pop\n      jump\t// out\n        /* \"#utility.yul\":1438:1696   */\n    tag_95:\n        /* \"#utility.yul\":1506:1512   */\n      0x00\n        /* \"#utility.yul\":1514:1520   */\n      dup1\n        /* \"#utility.yul\":1567:1569   */\n      0x40\n        /* \"#utility.yul\":1555:1564   */\n      dup4\n        /* \"#utility.yul\":1546:1553   */\n      dup6\n        /* \"#utility.yul\":1542:1565   */\n      sub\n        /* \"#utility.yul\":1538:1570   */\n      slt\n        /* \"#utility.yul\":1535:1537   */\n      iszero\n      tag_403\n      jumpi\n        /* \"#utility.yul\":1588:1594   */\n      dup2\n        /* \"#utility.yul\":1580:1586   */\n      dup3\n        /* \"#utility.yul\":1573:1595   */\n      revert\n        /* \"#utility.yul\":1535:1537   */\n    tag_403:\n      pop\n      pop\n        /* \"#utility.yul\":1616:1639   */\n      dup1\n      calldataload\n      swap3\n        /* \"#utility.yul\":1686:1688   */\n      0x20\n        /* \"#utility.yul\":1671:1689   */\n      swap1\n      swap2\n      add\n        /* \"#utility.yul\":1658:1690   */\n      calldataload\n      swap2\n      pop\n        /* \"#utility.yul\":1525:1696   */\n      jump\t// out\n        /* \"#utility.yul\":1701:1975   */\n    tag_369:\n        /* \"#utility.yul\":1830:1833   */\n      0x00\n        /* \"#utility.yul\":1868:1874   */\n      dup3\n        /* \"#utility.yul\":1862:1875   */\n      mload\n        /* \"#utility.yul\":1884:1937   */\n      tag_405\n        /* \"#utility.yul\":1930:1936   */\n      dup2\n        /* \"#utility.yul\":1925:1928   */\n      dup5\n        /* \"#utility.yul\":1918:1922   */\n      0x20\n        /* \"#utility.yul\":1910:1916   */\n      dup8\n        /* \"#utility.yul\":1906:1923   */\n      add\n        /* \"#utility.yul\":1884:1937   */\n      tag_406\n      jump\t// in\n    tag_405:\n        /* \"#utility.yul\":1953:1969   */\n      swap2\n      swap1\n      swap2\n      add\n      swap3\n        /* \"#utility.yul\":1838:1975   */\n      swap2\n      pop\n      pop\n      jump\t// out\n        /* \"#utility.yul\":2659:3042   */\n    tag_382:\n        /* \"#utility.yul\":2808:2810   */\n      0x20\n        /* \"#utility.yul\":2797:2806   */\n      dup2\n        /* \"#utility.yul\":2790:2811   */\n      mstore\n        /* \"#utility.yul\":2771:2775   */\n      0x00\n        /* \"#utility.yul\":2840:2846   */\n      dup3\n        /* \"#utility.yul\":2834:2847   */\n      mload\n        /* \"#utility.yul\":2883:2889   */\n      dup1\n        /* \"#utility.yul\":2878:2880   */\n      0x20\n        /* \"#utility.yul\":2867:2876   */\n      dup5\n        /* \"#utility.yul\":2863:2881   */\n      add\n        /* \"#utility.yul\":2856:2890   */\n      mstore\n        /* \"#utility.yul\":2899:2965   */\n      tag_411\n        /* \"#utility.yul\":2958:2964   */\n      dup2\n        /* \"#utility.yul\":2953:2955   */\n      0x40\n        /* \"#utility.yul\":2942:2951   */\n      dup6\n        /* \"#utility.yul\":2938:2956   */\n      add\n        /* \"#utility.yul\":2933:2935   */\n      0x20\n        /* \"#utility.yul\":2925:2931   */\n      dup8\n        /* \"#utility.yul\":2921:2936   */\n      add\n        /* \"#utility.yul\":2899:2965   */\n      tag_406\n      jump\t// in\n    tag_411:\n        /* \"#utility.yul\":3026:3028   */\n      0x1f\n        /* \"#utility.yul\":3005:3020   */\n      add\n      not(0x1f)\n        /* \"#utility.yul\":3001:3030   */\n      and\n        /* \"#utility.yul\":2986:3031   */\n      swap2\n      swap1\n      swap2\n      add\n        /* \"#utility.yul\":3033:3035   */\n      0x40\n        /* \"#utility.yul\":2982:3036   */\n      add\n      swap3\n        /* \"#utility.yul\":2780:3042   */\n      swap2\n      pop\n      pop\n      jump\t// out\n        /* \"#utility.yul\":5596:6002   */\n    tag_170:\n        /* \"#utility.yul\":5798:5800   */\n      0x20\n        /* \"#utility.yul\":5780:5801   */\n      dup1\n      dup3\n      mstore\n        /* \"#utility.yul\":5837:5839   */\n      0x2a\n        /* \"#utility.yul\":5817:5835   */\n      swap1\n      dup3\n      add\n        /* \"#utility.yul\":5810:5840   */\n      mstore\n        /* \"#utility.yul\":5876:5910   */\n      0x596f752068617665206e6f2070726976696c65676520746f2072756e20746869\n        /* \"#utility.yul\":5871:5873   */\n      0x40\n        /* \"#utility.yul\":5856:5874   */\n      dup3\n      add\n        /* \"#utility.yul\":5849:5911   */\n      mstore\n      shl(0xb1, 0x3990333ab731ba34b7b7)\n        /* \"#utility.yul\":5942:5944   */\n      0x60\n        /* \"#utility.yul\":5927:5945   */\n      dup3\n      add\n        /* \"#utility.yul\":5920:5960   */\n      mstore\n        /* \"#utility.yul\":5992:5995   */\n      0x80\n        /* \"#utility.yul\":5977:5996   */\n      add\n      swap1\n        /* \"#utility.yul\":5770:6002   */\n      jump\t// out\n        /* \"#utility.yul\":7122:7465   */\n    tag_238:\n        /* \"#utility.yul\":7324:7326   */\n      0x20\n        /* \"#utility.yul\":7306:7327   */\n      dup1\n      dup3\n      mstore\n        /* \"#utility.yul\":7363:7365   */\n      0x13\n        /* \"#utility.yul\":7343:7361   */\n      swap1\n      dup3\n      add\n        /* \"#utility.yul\":7336:7366   */\n      mstore\n      shl(0x69, 0x24b73b30b634b21032bb32b73a1037bbb732b9)\n        /* \"#utility.yul\":7397:7399   */\n      0x40\n        /* \"#utility.yul\":7382:7400   */\n      dup3\n      add\n        /* \"#utility.yul\":7375:7424   */\n      mstore\n        /* \"#utility.yul\":7456:7458   */\n      0x60\n        /* \"#utility.yul\":7441:7459   */\n      add\n      swap1\n        /* \"#utility.yul\":7296:7465   */\n      jump\t// out\n        /* \"#utility.yul\":8634:9116   */\n    tag_312:\n        /* \"#utility.yul\":8836:8838   */\n      0x20\n        /* \"#utility.yul\":8818:8839   */\n      dup1\n      dup3\n      mstore\n        /* \"#utility.yul\":8875:8877   */\n      0x4e\n        /* \"#utility.yul\":8855:8873   */\n      swap1\n      dup3\n      add\n        /* \"#utility.yul\":8848:8878   */\n      mstore\n        /* \"#utility.yul\":8914:8948   */\n      0x796f75206d7573742073657420686f6c6465727320616e642065636f73797374\n        /* \"#utility.yul\":8909:8911   */\n      0x40\n        /* \"#utility.yul\":8894:8912   */\n      dup3\n      add\n        /* \"#utility.yul\":8887:8949   */\n      mstore\n        /* \"#utility.yul\":8985:9019   */\n      0x6d654164647265737320616464726573736573206265666f726520616464696e\n        /* \"#utility.yul\":8980:8982   */\n      0x60\n        /* \"#utility.yul\":8965:8983   */\n      dup3\n      add\n        /* \"#utility.yul\":8958:9020   */\n      mstore\n      shl(0x90, 0x67206576656e74206f776e657273)\n        /* \"#utility.yul\":9051:9054   */\n      0x80\n        /* \"#utility.yul\":9036:9055   */\n      dup3\n      add\n        /* \"#utility.yul\":9029:9074   */\n      mstore\n        /* \"#utility.yul\":9106:9109   */\n      0xa0\n        /* \"#utility.yul\":9091:9110   */\n      add\n      swap1\n        /* \"#utility.yul\":8808:9116   */\n      jump\t// out\n        /* \"#utility.yul\":9303:9431   */\n    tag_227:\n        /* \"#utility.yul\":9343:9346   */\n      0x00\n        /* \"#utility.yul\":9374:9375   */\n      dup3\n        /* \"#utility.yul\":9370:9376   */\n      not\n        /* \"#utility.yul\":9367:9368   */\n      dup3\n        /* \"#utility.yul\":9364:9377   */\n      gt\n        /* \"#utility.yul\":9361:9363   */\n      iszero\n      tag_430\n      jumpi\n        /* \"#utility.yul\":9380:9398   */\n      tag_430\n      tag_431\n      jump\t// in\n    tag_430:\n      pop\n        /* \"#utility.yul\":9416:9425   */\n      add\n      swap1\n        /* \"#utility.yul\":9351:9431   */\n      jump\t// out\n        /* \"#utility.yul\":9436:9653   */\n    tag_185:\n        /* \"#utility.yul\":9476:9477   */\n      0x00\n        /* \"#utility.yul\":9502:9503   */\n      dup3\n        /* \"#utility.yul\":9492:9494   */\n      tag_433\n      jumpi\n      shl(0xe0, 0x4e487b71)\n        /* \"#utility.yul\":9527:9558   */\n      dup2\n      mstore\n        /* \"#utility.yul\":9581:9585   */\n      0x12\n        /* \"#utility.yul\":9578:9579   */\n      0x04\n        /* \"#utility.yul\":9571:9586   */\n      mstore\n        /* \"#utility.yul\":9609:9613   */\n      0x24\n        /* \"#utility.yul\":9534:9535   */\n      dup2\n        /* \"#utility.yul\":9599:9614   */\n      revert\n        /* \"#utility.yul\":9492:9494   */\n    tag_433:\n      pop\n        /* \"#utility.yul\":9638:9647   */\n      div\n      swap1\n        /* \"#utility.yul\":9482:9653   */\n      jump\t// out\n        /* \"#utility.yul\":9658:9826   */\n    tag_183:\n        /* \"#utility.yul\":9698:9705   */\n      0x00\n        /* \"#utility.yul\":9764:9765   */\n      dup2\n        /* \"#utility.yul\":9760:9761   */\n      0x00\n        /* \"#utility.yul\":9756:9762   */\n      not\n        /* \"#utility.yul\":9752:9766   */\n      div\n        /* \"#utility.yul\":9749:9750   */\n      dup4\n        /* \"#utility.yul\":9746:9767   */\n      gt\n        /* \"#utility.yul\":9741:9742   */\n      dup3\n        /* \"#utility.yul\":9734:9743   */\n      iszero\n        /* \"#utility.yul\":9727:9744   */\n      iszero\n        /* \"#utility.yul\":9723:9768   */\n      and\n        /* \"#utility.yul\":9720:9722   */\n      iszero\n      tag_436\n      jumpi\n        /* \"#utility.yul\":9771:9789   */\n      tag_436\n      tag_431\n      jump\t// in\n    tag_436:\n      pop\n        /* \"#utility.yul\":9811:9820   */\n      mul\n      swap1\n        /* \"#utility.yul\":9710:9826   */\n      jump\t// out\n        /* \"#utility.yul\":9831:10089   */\n    tag_406:\n        /* \"#utility.yul\":9903:9904   */\n      0x00\n        /* \"#utility.yul\":9913:10026   */\n    tag_438:\n        /* \"#utility.yul\":9927:9933   */\n      dup4\n        /* \"#utility.yul\":9924:9925   */\n      dup2\n        /* \"#utility.yul\":9921:9934   */\n      lt\n        /* \"#utility.yul\":9913:10026   */\n      iszero\n      tag_440\n      jumpi\n        /* \"#utility.yul\":10003:10014   */\n      dup2\n      dup2\n      add\n        /* \"#utility.yul\":9997:10015   */\n      mload\n        /* \"#utility.yul\":9984:9995   */\n      dup4\n      dup3\n      add\n        /* \"#utility.yul\":9977:10016   */\n      mstore\n        /* \"#utility.yul\":9949:9951   */\n      0x20\n        /* \"#utility.yul\":9942:9952   */\n      add\n        /* \"#utility.yul\":9913:10026   */\n      jump(tag_438)\n    tag_440:\n        /* \"#utility.yul\":10044:10050   */\n      dup4\n        /* \"#utility.yul\":10041:10042   */\n      dup2\n        /* \"#utility.yul\":10038:10051   */\n      gt\n        /* \"#utility.yul\":10035:10037   */\n      iszero\n      tag_441\n      jumpi\n        /* \"#utility.yul\":10079:10080   */\n      0x00\n        /* \"#utility.yul\":10070:10076   */\n      dup5\n        /* \"#utility.yul\":10065:10068   */\n      dup5\n        /* \"#utility.yul\":10061:10077   */\n      add\n        /* \"#utility.yul\":10054:10081   */\n      mstore\n        /* \"#utility.yul\":10035:10037   */\n    tag_441:\n      pop\n        /* \"#utility.yul\":9884:10089   */\n      pop\n      pop\n      pop\n      jump\t// out\n        /* \"#utility.yul\":10094:10229   */\n    tag_164:\n        /* \"#utility.yul\":10133:10136   */\n      0x00\n      not(0x00)\n        /* \"#utility.yul\":10154:10171   */\n      dup3\n      eq\n        /* \"#utility.yul\":10151:10153   */\n      iszero\n      tag_444\n      jumpi\n        /* \"#utility.yul\":10174:10192   */\n      tag_444\n      tag_431\n      jump\t// in\n    tag_444:\n      pop\n        /* \"#utility.yul\":10221:10222   */\n      0x01\n        /* \"#utility.yul\":10210:10223   */\n      add\n      swap1\n        /* \"#utility.yul\":10141:10229   */\n      jump\t// out\n        /* \"#utility.yul\":10234:10361   */\n    tag_431:\n        /* \"#utility.yul\":10295:10305   */\n      0x4e487b71\n        /* \"#utility.yul\":10290:10293   */\n      0xe0\n        /* \"#utility.yul\":10286:10306   */\n      shl\n        /* \"#utility.yul\":10283:10284   */\n      0x00\n        /* \"#utility.yul\":10276:10307   */\n      mstore\n        /* \"#utility.yul\":10326:10330   */\n      0x11\n        /* \"#utility.yul\":10323:10324   */\n      0x04\n        /* \"#utility.yul\":10316:10331   */\n      mstore\n        /* \"#utility.yul\":10350:10354   */\n      0x24\n        /* \"#utility.yul\":10347:10348   */\n      0x00\n        /* \"#utility.yul\":10340:10355   */\n      revert\n\n    auxdata: 0xa2646970667358221220ab256353fd8b6c25afbdd8f4ba9d0a11b91aabc43a6d7d0255adc61321af503564736f6c63430008040033\n}\n",
				"bytecode": {
					"linkReferences": {},
					"object": "608060405260326007819055600855600a600955600354601080546001600160a01b0319166001600160a01b0390921691909117905534801561004157600080fd5b50600080546001600160a01b031916331790556117b5806100636000396000f3fe608060405234801561001057600080fd5b50600436106101f05760003560e01c80636fdbd3f61161010f578063cb146622116100a2578063d6c1ca2611610071578063d6c1ca261461045f578063e3c0ed7814610472578063ed9f7eb914610485578063f2210b2c1461049857600080fd5b8063cb14662214610413578063ce606ee014610426578063d37e87fd14610439578063d54948691461044c57600080fd5b806389fefbe1116100de57806389fefbe1146103d15780639376b94c146103e4578063992642e5146103ed5780639b460aa91461040057600080fd5b80636fdbd3f614610359578063709ec8b41461036c57806380036b341461037f57806385d8349b146103a857600080fd5b8063429b62e5116101875780634fb43199116101565780634fb431991461030d5780635bb47808146103205780636488688014610333578063681ada8c1461034657600080fd5b8063429b62e5146102c0578063486d1e50146102e95780634d161324146102f25780634dcc434a146102fa57600080fd5b80632e1a9618116101c35780632e1a96181461025e578063332daccf14610271578063363bf96414610294578063387440e6146102a957600080fd5b8063026c1a4d146101f557806306a5cb3a1461022557806306ae7095146102385780630da4ee501461024b575b600080fd5b61020861020336600461153c565b6104ab565b6040516001600160a01b0390911681526020015b60405180910390f35b600154610208906001600160a01b031681565b600554610208906001600160a01b031681565b600254610208906001600160a01b031681565b600654610208906001600160a01b031681565b61028461027f3660046114c0565b6104d5565b604051901515815260200161021c565b6102a76102a23660046114da565b61057a565b005b6102b260095481565b60405190815260200161021c565b6102086102ce3660046114c0565b600d602052600090815260409020546001600160a01b031681565b6102b260075481565b6102a76105e7565b6102a76103083660046114c0565b6107f9565b61028461031b3660046114c0565b610840565b6102a761032e3660046114c0565b6108d1565b6102a761034136600461156c565b610918565b6102a76103543660046114c0565b610a5e565b600454610208906001600160a01b031681565b61020861037a36600461153c565b610b85565b61020861038d3660046114c0565b600f602052600090815260409020546001600160a01b031681565b6102086103b63660046114c0565b600e602052600090815260409020546001600160a01b031681565b6102a76103df3660046114c0565b610b95565b6102b260085481565b600354610208906001600160a01b031681565b6102a761040e3660046114c0565b610bdc565b6102846104213660046114c0565b610cc6565b600054610208906001600160a01b031681565b61020861044736600461153c565b610d57565b6102a761045a3660046114c0565b610d67565b6102a761046d36600461153c565b610e72565b6102a76104803660046114c0565b610f1d565b6102a76104933660046114c0565b610fe2565b6102a76104a63660046114c0565b611113565b600a81815481106104bb57600080fd5b6000918252602090912001546001600160a01b0316905081565b6001600160a01b038181166000908152600f60205260408120549091161561056d576000805b600c5481101561056657836001600160a01b0316600c828154811061053057634e487b7160e01b600052603260045260246000fd5b6000918252602090912001546001600160a01b031614156105545760019150610566565b8061055e8161174e565b9150506104fb565b5092915050565b506000919050565b919050565b61058333610840565b6105a85760405162461bcd60e51b815260040161059f906115dc565b60405180910390fd5b600280546001600160a01b039485166001600160a01b031991821617909155600180549385169382169390931790925560038054919093169116179055565b6010546040516370a0823160e01b81523060048201526000916001600160a01b0316906370a082319060240160206040518083038186803b15801561062b57600080fd5b505afa15801561063f573d6000803e3d6000fd5b505050506040513d601f19601f820116820180604052508101906106639190611554565b9050600081116106c15760405162461bcd60e51b815260206004820152602360248201527f626574206561726e696e6773206d75737420626520677265617465722074686160448201526206e20360ec1b606482015260840161059f565b60006064600754836106d391906116ff565b6106dd91906116df565b90506000811161073d5760405162461bcd60e51b815260206004820152602560248201527f686f6c6465727327207368617265206d75737420626520677265617465722074604482015264068616e20360dc1b606482015260840161059f565b600060646008548461074f91906116ff565b61075991906116df565b9050600081116107ba5760405162461bcd60e51b815260206004820152602660248201527f65636f73797374656d207368617265206d75737420626520677265617465722060448201526507468616e20360d41b606482015260840161059f565b6001546010546107d7916001600160a01b03918216911683611219565b6002546010546107f4916001600160a01b03918216911684611219565b505050565b61080233610840565b61081e5760405162461bcd60e51b815260040161059f906115dc565b600580546001600160a01b0319166001600160a01b0392909216919091179055565b6001600160a01b038181166000908152600d60205260408120549091161561056d576000805b600a5481101561056657836001600160a01b0316600a828154811061089b57634e487b7160e01b600052603260045260246000fd5b6000918252602090912001546001600160a01b031614156108bf5760019150610566565b806108c98161174e565b915050610866565b6108da33610840565b6108f65760405162461bcd60e51b815260040161059f906115dc565b600480546001600160a01b0319166001600160a01b0392909216919091179055565b61092133610840565b61093d5760405162461bcd60e51b815260040161059f906115dc565b6064821115801561094f575060648111155b6109d45760405162461bcd60e51b815260206004820152604a60248201527f5669672070657263656e746167657320736861726573206d757374206265206560448201527f787072657373656420696e206120203020746f2031303020726174696f2e2045606482015269078616d706c653a2033360b41b608482015260a40161059f565b6109de81836116c7565b606414610a535760405162461bcd60e51b815260206004820152603960248201527f5468652073756d206f6620616c6c205669672070657263656e7461676520736860448201527f61726573206d75737420626520657175616c20746f2031303000000000000000606482015260840161059f565b600791909155600855565b610a6733610840565b610a835760405162461bcd60e51b815260040161059f906115dc565b6001600160a01b038181166000908152600f602052604090205416610aba5760405162461bcd60e51b815260040161059f90611626565b6001600160a01b0381166000908152600f6020526040812080546001600160a01b03191690555b600c54811015610b8157816001600160a01b0316600c8281548110610b1657634e487b7160e01b600052603260045260246000fd5b6000918252602090912001546001600160a01b03161415610b6f57600c8181548110610b5257634e487b7160e01b600052603260045260246000fd5b600091825260209091200180546001600160a01b03191690555050565b80610b798161174e565b915050610ae1565b5050565b600c81815481106104bb57600080fd5b610b9e33610840565b610bba5760405162461bcd60e51b815260040161059f906115dc565b600680546001600160a01b0319166001600160a01b0392909216919091179055565b610be533610840565b610c015760405162461bcd60e51b815260040161059f906115dc565b6001600160a01b038082166000908152600f602052604090205482911615610c625760405162461bcd60e51b8152602060048201526014602482015273185b1c9958591e481a5b88189b1858dadb1a5cdd60621b604482015260640161059f565b50600b8054600181019091557f0175b7a638427703f0dbe7bb9bbf987a2551717b34e79f33b5b1008d1fa01db90180546001600160a01b039092166001600160a01b031992831681179091556000818152600e602052604090208054909216179055565b6001600160a01b038181166000908152600e60205260408120549091161561056d576000805b600b5481101561056657836001600160a01b0316600b8281548110610d2157634e487b7160e01b600052603260045260246000fd5b6000918252602090912001546001600160a01b03161415610d455760019150610566565b80610d4f8161174e565b915050610cec565b600b81815481106104bb57600080fd5b6000546001600160a01b03163314610d915760405162461bcd60e51b815260040161059f906115dc565b6001600160a01b038181166000908152600d602052604090205416610dc85760405162461bcd60e51b815260040161059f90611626565b6001600160a01b0381166000908152600d6020526040812080546001600160a01b03191690555b600a54811015610b8157816001600160a01b0316600a8281548110610e2457634e487b7160e01b600052603260045260246000fd5b6000918252602090912001546001600160a01b03161415610e6057600a8181548110610b5257634e487b7160e01b600052603260045260246000fd5b80610e6a8161174e565b915050610def565b610e7b33610840565b610e975760405162461bcd60e51b815260040161059f906115dc565b600a8110610f185760405162461bcd60e51b815260206004820152604260248201527f5669672070657263656e74616765206d7573742062652065787072657373656460448201527f20696e203020746f2031302070657263656e746167652e204578616d706c653a606482015261101b60f11b608482015260a40161059f565b600955565b610f2633610840565b610f425760405162461bcd60e51b815260040161059f906115dc565b6001600160a01b038082166000908152600e602052604090205482911615610fa55760405162461bcd60e51b815260206004820152601660248201527530b63932b0b23c9030b71032bb32b73a1030b236b4b760511b604482015260640161059f565b6002546001600160a01b03161580610fc657506001546001600160a01b0316155b610c625760405162461bcd60e51b815260040161059f90611653565b6000546001600160a01b0316331461100c5760405162461bcd60e51b815260040161059f906115dc565b6001600160a01b038082166000908152600d60205260409020548291161561106f5760405162461bcd60e51b815260206004820152601660248201527530b63932b0b23c90309039bcb9ba32b69030b236b4b760511b604482015260640161059f565b6002546001600160a01b03161580159061109357506001546001600160a01b031615155b6110af5760405162461bcd60e51b815260040161059f90611653565b50600a8054600181019091557fc65a7bb8d6351c1cf70c95a316cc6a92839c986682d98bc35f958f4883f9d2a80180546001600160a01b039092166001600160a01b031992831681179091556000818152600d602052604090208054909216179055565b61111c33610840565b6111385760405162461bcd60e51b815260040161059f906115dc565b6001600160a01b038181166000908152600e60205260409020541661116f5760405162461bcd60e51b815260040161059f90611626565b6001600160a01b0381166000908152600e6020526040812080546001600160a01b03191690555b600b54811015610b8157816001600160a01b0316600b82815481106111cb57634e487b7160e01b600052603260045260246000fd5b6000918252602090912001546001600160a01b0316141561120757600b8181548110610b5257634e487b7160e01b600052603260045260246000fd5b806112118161174e565b915050611196565b604080516001600160a01b03848116602483015260448083018590528351808403909101815260649092018352602080830180516001600160e01b031663a9059cbb60e01b17905283518085019094528084527f5361666545524332303a206c6f772d6c6576656c2063616c6c206661696c6564908401526107f4928692916000916112a9918516908490611326565b8051909150156107f457808060200190518101906112c7919061151c565b6107f45760405162461bcd60e51b815260206004820152602a60248201527f5361666545524332303a204552433230206f7065726174696f6e20646964206e6044820152691bdd081cdd58d8d9595960b21b606482015260840161059f565b6060611335848460008561133f565b90505b9392505050565b6060824710156113a05760405162461bcd60e51b815260206004820152602660248201527f416464726573733a20696e73756666696369656e742062616c616e636520666f6044820152651c8818d85b1b60d21b606482015260840161059f565b6001600160a01b0385163b6113f75760405162461bcd60e51b815260206004820152601d60248201527f416464726573733a2063616c6c20746f206e6f6e2d636f6e7472616374000000604482015260640161059f565b600080866001600160a01b03168587604051611413919061158d565b60006040518083038185875af1925050503d8060008114611450576040519150601f19603f3d011682016040523d82523d6000602084013e611455565b606091505b5091509150611465828286611470565b979650505050505050565b6060831561147f575081611338565b82511561148f5782518084602001fd5b8160405162461bcd60e51b815260040161059f91906115a9565b80356001600160a01b038116811461057557600080fd5b6000602082840312156114d1578081fd5b611338826114a9565b6000806000606084860312156114ee578182fd5b6114f7846114a9565b9250611505602085016114a9565b9150611513604085016114a9565b90509250925092565b60006020828403121561152d578081fd5b81518015158114611338578182fd5b60006020828403121561154d578081fd5b5035919050565b600060208284031215611565578081fd5b5051919050565b6000806040838503121561157e578182fd5b50508035926020909101359150565b6000825161159f81846020870161171e565b9190910192915050565b60208152600082518060208401526115c881604085016020870161171e565b601f01601f19169190910160400192915050565b6020808252602a908201527f596f752068617665206e6f2070726976696c65676520746f2072756e207468696040820152693990333ab731ba34b7b760b11b606082015260800190565b60208082526013908201527224b73b30b634b21032bb32b73a1037bbb732b960691b604082015260600190565b6020808252604e908201527f796f75206d7573742073657420686f6c6465727320616e642065636f7379737460408201527f6d654164647265737320616464726573736573206265666f726520616464696e60608201526d67206576656e74206f776e65727360901b608082015260a00190565b600082198211156116da576116da611769565b500190565b6000826116fa57634e487b7160e01b81526012600452602481fd5b500490565b600081600019048311821515161561171957611719611769565b500290565b60005b83811015611739578181015183820152602001611721565b83811115611748576000848401525b50505050565b600060001982141561176257611762611769565b5060010190565b634e487b7160e01b600052601160045260246000fdfea2646970667358221220ab256353fd8b6c25afbdd8f4ba9d0a11b91aabc43a6d7d0255adc61321af503564736f6c63430008040033",
					"opcodes": "PUSH1 0x80 PUSH1 0x40 MSTORE PUSH1 0x32 PUSH1 0x7 DUP2 SWAP1 SSTORE PUSH1 0x8 SSTORE PUSH1 0xA PUSH1 0x9 SSTORE PUSH1 0x3 SLOAD PUSH1 0x10 DUP1 SLOAD PUSH1 0x1 PUSH1 0x1 PUSH1 0xA0 SHL SUB NOT AND PUSH1 0x1 PUSH1 0x1 PUSH1 0xA0 SHL SUB SWAP1 SWAP3 AND SWAP2 SWAP1 SWAP2 OR SWAP1 SSTORE CALLVALUE DUP1 ISZERO PUSH2 0x41 JUMPI PUSH1 0x0 DUP1 REVERT JUMPDEST POP PUSH1 0x0 DUP1 SLOAD PUSH1 0x1 PUSH1 0x1 PUSH1 0xA0 SHL SUB NOT AND CALLER OR SWAP1 SSTORE PUSH2 0x17B5 DUP1 PUSH2 0x63 PUSH1 0x0 CODECOPY PUSH1 0x0 RETURN INVALID PUSH1 0x80 PUSH1 0x40 MSTORE CALLVALUE DUP1 ISZERO PUSH2 0x10 JUMPI PUSH1 0x0 DUP1 REVERT JUMPDEST POP PUSH1 0x4 CALLDATASIZE LT PUSH2 0x1F0 JUMPI PUSH1 0x0 CALLDATALOAD PUSH1 0xE0 SHR DUP1 PUSH4 0x6FDBD3F6 GT PUSH2 0x10F JUMPI DUP1 PUSH4 0xCB146622 GT PUSH2 0xA2 JUMPI DUP1 PUSH4 0xD6C1CA26 GT PUSH2 0x71 JUMPI DUP1 PUSH4 0xD6C1CA26 EQ PUSH2 0x45F JUMPI DUP1 PUSH4 0xE3C0ED78 EQ PUSH2 0x472 JUMPI DUP1 PUSH4 0xED9F7EB9 EQ PUSH2 0x485 JUMPI DUP1 PUSH4 0xF2210B2C EQ PUSH2 0x498 JUMPI PUSH1 0x0 DUP1 REVERT JUMPDEST DUP1 PUSH4 0xCB146622 EQ PUSH2 0x413 JUMPI DUP1 PUSH4 0xCE606EE0 EQ PUSH2 0x426 JUMPI DUP1 PUSH4 0xD37E87FD EQ PUSH2 0x439 JUMPI DUP1 PUSH4 0xD5494869 EQ PUSH2 0x44C JUMPI PUSH1 0x0 DUP1 REVERT JUMPDEST DUP1 PUSH4 0x89FEFBE1 GT PUSH2 0xDE JUMPI DUP1 PUSH4 0x89FEFBE1 EQ PUSH2 0x3D1 JUMPI DUP1 PUSH4 0x9376B94C EQ PUSH2 0x3E4 JUMPI DUP1 PUSH4 0x992642E5 EQ PUSH2 0x3ED JUMPI DUP1 PUSH4 0x9B460AA9 EQ PUSH2 0x400 JUMPI PUSH1 0x0 DUP1 REVERT JUMPDEST DUP1 PUSH4 0x6FDBD3F6 EQ PUSH2 0x359 JUMPI DUP1 PUSH4 0x709EC8B4 EQ PUSH2 0x36C JUMPI DUP1 PUSH4 0x80036B34 EQ PUSH2 0x37F JUMPI DUP1 PUSH4 0x85D8349B EQ PUSH2 0x3A8 JUMPI PUSH1 0x0 DUP1 REVERT JUMPDEST DUP1 PUSH4 0x429B62E5 GT PUSH2 0x187 JUMPI DUP1 PUSH4 0x4FB43199 GT PUSH2 0x156 JUMPI DUP1 PUSH4 0x4FB43199 EQ PUSH2 0x30D JUMPI DUP1 PUSH4 0x5BB47808 EQ PUSH2 0x320 JUMPI DUP1 PUSH4 0x64886880 EQ PUSH2 0x333 JUMPI DUP1 PUSH4 0x681ADA8C EQ PUSH2 0x346 JUMPI PUSH1 0x0 DUP1 REVERT JUMPDEST DUP1 PUSH4 0x429B62E5 EQ PUSH2 0x2C0 JUMPI DUP1 PUSH4 0x486D1E50 EQ PUSH2 0x2E9 JUMPI DUP1 PUSH4 0x4D161324 EQ PUSH2 0x2F2 JUMPI DUP1 PUSH4 0x4DCC434A EQ PUSH2 0x2FA JUMPI PUSH1 0x0 DUP1 REVERT JUMPDEST DUP1 PUSH4 0x2E1A9618 GT PUSH2 0x1C3 JUMPI DUP1 PUSH4 0x2E1A9618 EQ PUSH2 0x25E JUMPI DUP1 PUSH4 0x332DACCF EQ PUSH2 0x271 JUMPI DUP1 PUSH4 0x363BF964 EQ PUSH2 0x294 JUMPI DUP1 PUSH4 0x387440E6 EQ PUSH2 0x2A9 JUMPI PUSH1 0x0 DUP1 REVERT JUMPDEST DUP1 PUSH4 0x26C1A4D EQ PUSH2 0x1F5 JUMPI DUP1 PUSH4 0x6A5CB3A EQ PUSH2 0x225 JUMPI DUP1 PUSH4 0x6AE7095 EQ PUSH2 0x238 JUMPI DUP1 PUSH4 0xDA4EE50 EQ PUSH2 0x24B JUMPI JUMPDEST PUSH1 0x0 DUP1 REVERT JUMPDEST PUSH2 0x208 PUSH2 0x203 CALLDATASIZE PUSH1 0x4 PUSH2 0x153C JUMP JUMPDEST PUSH2 0x4AB JUMP JUMPDEST PUSH1 0x40 MLOAD PUSH1 0x1 PUSH1 0x1 PUSH1 0xA0 SHL SUB SWAP1 SWAP2 AND DUP2 MSTORE PUSH1 0x20 ADD JUMPDEST PUSH1 0x40 MLOAD DUP1 SWAP2 SUB SWAP1 RETURN JUMPDEST PUSH1 0x1 SLOAD PUSH2 0x208 SWAP1 PUSH1 0x1 PUSH1 0x1 PUSH1 0xA0 SHL SUB AND DUP2 JUMP JUMPDEST PUSH1 0x5 SLOAD PUSH2 0x208 SWAP1 PUSH1 0x1 PUSH1 0x1 PUSH1 0xA0 SHL SUB AND DUP2 JUMP JUMPDEST PUSH1 0x2 SLOAD PUSH2 0x208 SWAP1 PUSH1 0x1 PUSH1 0x1 PUSH1 0xA0 SHL SUB AND DUP2 JUMP JUMPDEST PUSH1 0x6 SLOAD PUSH2 0x208 SWAP1 PUSH1 0x1 PUSH1 0x1 PUSH1 0xA0 SHL SUB AND DUP2 JUMP JUMPDEST PUSH2 0x284 PUSH2 0x27F CALLDATASIZE PUSH1 0x4 PUSH2 0x14C0 JUMP JUMPDEST PUSH2 0x4D5 JUMP JUMPDEST PUSH1 0x40 MLOAD SWAP1 ISZERO ISZERO DUP2 MSTORE PUSH1 0x20 ADD PUSH2 0x21C JUMP JUMPDEST PUSH2 0x2A7 PUSH2 0x2A2 CALLDATASIZE PUSH1 0x4 PUSH2 0x14DA JUMP JUMPDEST PUSH2 0x57A JUMP JUMPDEST STOP JUMPDEST PUSH2 0x2B2 PUSH1 0x9 SLOAD DUP2 JUMP JUMPDEST PUSH1 0x40 MLOAD SWAP1 DUP2 MSTORE PUSH1 0x20 ADD PUSH2 0x21C JUMP JUMPDEST PUSH2 0x208 PUSH2 0x2CE CALLDATASIZE PUSH1 0x4 PUSH2 0x14C0 JUMP JUMPDEST PUSH1 0xD PUSH1 0x20 MSTORE PUSH1 0x0 SWAP1 DUP2 MSTORE PUSH1 0x40 SWAP1 KECCAK256 SLOAD PUSH1 0x1 PUSH1 0x1 PUSH1 0xA0 SHL SUB AND DUP2 JUMP JUMPDEST PUSH2 0x2B2 PUSH1 0x7 SLOAD DUP2 JUMP JUMPDEST PUSH2 0x2A7 PUSH2 0x5E7 JUMP JUMPDEST PUSH2 0x2A7 PUSH2 0x308 CALLDATASIZE PUSH1 0x4 PUSH2 0x14C0 JUMP JUMPDEST PUSH2 0x7F9 JUMP JUMPDEST PUSH2 0x284 PUSH2 0x31B CALLDATASIZE PUSH1 0x4 PUSH2 0x14C0 JUMP JUMPDEST PUSH2 0x840 JUMP JUMPDEST PUSH2 0x2A7 PUSH2 0x32E CALLDATASIZE PUSH1 0x4 PUSH2 0x14C0 JUMP JUMPDEST PUSH2 0x8D1 JUMP JUMPDEST PUSH2 0x2A7 PUSH2 0x341 CALLDATASIZE PUSH1 0x4 PUSH2 0x156C JUMP JUMPDEST PUSH2 0x918 JUMP JUMPDEST PUSH2 0x2A7 PUSH2 0x354 CALLDATASIZE PUSH1 0x4 PUSH2 0x14C0 JUMP JUMPDEST PUSH2 0xA5E JUMP JUMPDEST PUSH1 0x4 SLOAD PUSH2 0x208 SWAP1 PUSH1 0x1 PUSH1 0x1 PUSH1 0xA0 SHL SUB AND DUP2 JUMP JUMPDEST PUSH2 0x208 PUSH2 0x37A CALLDATASIZE PUSH1 0x4 PUSH2 0x153C JUMP JUMPDEST PUSH2 0xB85 JUMP JUMPDEST PUSH2 0x208 PUSH2 0x38D CALLDATASIZE PUSH1 0x4 PUSH2 0x14C0 JUMP JUMPDEST PUSH1 0xF PUSH1 0x20 MSTORE PUSH1 0x0 SWAP1 DUP2 MSTORE PUSH1 0x40 SWAP1 KECCAK256 SLOAD PUSH1 0x1 PUSH1 0x1 PUSH1 0xA0 SHL SUB AND DUP2 JUMP JUMPDEST PUSH2 0x208 PUSH2 0x3B6 CALLDATASIZE PUSH1 0x4 PUSH2 0x14C0 JUMP JUMPDEST PUSH1 0xE PUSH1 0x20 MSTORE PUSH1 0x0 SWAP1 DUP2 MSTORE PUSH1 0x40 SWAP1 KECCAK256 SLOAD PUSH1 0x1 PUSH1 0x1 PUSH1 0xA0 SHL SUB AND DUP2 JUMP JUMPDEST PUSH2 0x2A7 PUSH2 0x3DF CALLDATASIZE PUSH1 0x4 PUSH2 0x14C0 JUMP JUMPDEST PUSH2 0xB95 JUMP JUMPDEST PUSH2 0x2B2 PUSH1 0x8 SLOAD DUP2 JUMP JUMPDEST PUSH1 0x3 SLOAD PUSH2 0x208 SWAP1 PUSH1 0x1 PUSH1 0x1 PUSH1 0xA0 SHL SUB AND DUP2 JUMP JUMPDEST PUSH2 0x2A7 PUSH2 0x40E CALLDATASIZE PUSH1 0x4 PUSH2 0x14C0 JUMP JUMPDEST PUSH2 0xBDC JUMP JUMPDEST PUSH2 0x284 PUSH2 0x421 CALLDATASIZE PUSH1 0x4 PUSH2 0x14C0 JUMP JUMPDEST PUSH2 0xCC6 JUMP JUMPDEST PUSH1 0x0 SLOAD PUSH2 0x208 SWAP1 PUSH1 0x1 PUSH1 0x1 PUSH1 0xA0 SHL SUB AND DUP2 JUMP JUMPDEST PUSH2 0x208 PUSH2 0x447 CALLDATASIZE PUSH1 0x4 PUSH2 0x153C JUMP JUMPDEST PUSH2 0xD57 JUMP JUMPDEST PUSH2 0x2A7 PUSH2 0x45A CALLDATASIZE PUSH1 0x4 PUSH2 0x14C0 JUMP JUMPDEST PUSH2 0xD67 JUMP JUMPDEST PUSH2 0x2A7 PUSH2 0x46D CALLDATASIZE PUSH1 0x4 PUSH2 0x153C JUMP JUMPDEST PUSH2 0xE72 JUMP JUMPDEST PUSH2 0x2A7 PUSH2 0x480 CALLDATASIZE PUSH1 0x4 PUSH2 0x14C0 JUMP JUMPDEST PUSH2 0xF1D JUMP JUMPDEST PUSH2 0x2A7 PUSH2 0x493 CALLDATASIZE PUSH1 0x4 PUSH2 0x14C0 JUMP JUMPDEST PUSH2 0xFE2 JUMP JUMPDEST PUSH2 0x2A7 PUSH2 0x4A6 CALLDATASIZE PUSH1 0x4 PUSH2 0x14C0 JUMP JUMPDEST PUSH2 0x1113 JUMP JUMPDEST PUSH1 0xA DUP2 DUP2 SLOAD DUP2 LT PUSH2 0x4BB JUMPI PUSH1 0x0 DUP1 REVERT JUMPDEST PUSH1 0x0 SWAP2 DUP3 MSTORE PUSH1 0x20 SWAP1 SWAP2 KECCAK256 ADD SLOAD PUSH1 0x1 PUSH1 0x1 PUSH1 0xA0 SHL SUB AND SWAP1 POP DUP2 JUMP JUMPDEST PUSH1 0x1 PUSH1 0x1 PUSH1 0xA0 SHL SUB DUP2 DUP2 AND PUSH1 0x0 SWAP1 DUP2 MSTORE PUSH1 0xF PUSH1 0x20 MSTORE PUSH1 0x40 DUP2 KECCAK256 SLOAD SWAP1 SWAP2 AND ISZERO PUSH2 0x56D JUMPI PUSH1 0x0 DUP1 JUMPDEST PUSH1 0xC SLOAD DUP2 LT ISZERO PUSH2 0x566 JUMPI DUP4 PUSH1 0x1 PUSH1 0x1 PUSH1 0xA0 SHL SUB AND PUSH1 0xC DUP3 DUP2 SLOAD DUP2 LT PUSH2 0x530 JUMPI PUSH4 0x4E487B71 PUSH1 0xE0 SHL PUSH1 0x0 MSTORE PUSH1 0x32 PUSH1 0x4 MSTORE PUSH1 0x24 PUSH1 0x0 REVERT JUMPDEST PUSH1 0x0 SWAP2 DUP3 MSTORE PUSH1 0x20 SWAP1 SWAP2 KECCAK256 ADD SLOAD PUSH1 0x1 PUSH1 0x1 PUSH1 0xA0 SHL SUB AND EQ ISZERO PUSH2 0x554 JUMPI PUSH1 0x1 SWAP2 POP PUSH2 0x566 JUMP JUMPDEST DUP1 PUSH2 0x55E DUP2 PUSH2 0x174E JUMP JUMPDEST SWAP2 POP POP PUSH2 0x4FB JUMP JUMPDEST POP SWAP3 SWAP2 POP POP JUMP JUMPDEST POP PUSH1 0x0 SWAP2 SWAP1 POP JUMP JUMPDEST SWAP2 SWAP1 POP JUMP JUMPDEST PUSH2 0x583 CALLER PUSH2 0x840 JUMP JUMPDEST PUSH2 0x5A8 JUMPI PUSH1 0x40 MLOAD PUSH3 0x461BCD PUSH1 0xE5 SHL DUP2 MSTORE PUSH1 0x4 ADD PUSH2 0x59F SWAP1 PUSH2 0x15DC JUMP JUMPDEST PUSH1 0x40 MLOAD DUP1 SWAP2 SUB SWAP1 REVERT JUMPDEST PUSH1 0x2 DUP1 SLOAD PUSH1 0x1 PUSH1 0x1 PUSH1 0xA0 SHL SUB SWAP5 DUP6 AND PUSH1 0x1 PUSH1 0x1 PUSH1 0xA0 SHL SUB NOT SWAP2 DUP3 AND OR SWAP1 SWAP2 SSTORE PUSH1 0x1 DUP1 SLOAD SWAP4 DUP6 AND SWAP4 DUP3 AND SWAP4 SWAP1 SWAP4 OR SWAP1 SWAP3 SSTORE PUSH1 0x3 DUP1 SLOAD SWAP2 SWAP1 SWAP4 AND SWAP2 AND OR SWAP1 SSTORE JUMP JUMPDEST PUSH1 0x10 SLOAD PUSH1 0x40 MLOAD PUSH4 0x70A08231 PUSH1 0xE0 SHL DUP2 MSTORE ADDRESS PUSH1 0x4 DUP3 ADD MSTORE PUSH1 0x0 SWAP2 PUSH1 0x1 PUSH1 0x1 PUSH1 0xA0 SHL SUB AND SWAP1 PUSH4 0x70A08231 SWAP1 PUSH1 0x24 ADD PUSH1 0x20 PUSH1 0x40 MLOAD DUP1 DUP4 SUB DUP2 DUP7 DUP1 EXTCODESIZE ISZERO DUP1 ISZERO PUSH2 0x62B JUMPI PUSH1 0x0 DUP1 REVERT JUMPDEST POP GAS STATICCALL ISZERO DUP1 ISZERO PUSH2 0x63F JUMPI RETURNDATASIZE PUSH1 0x0 DUP1 RETURNDATACOPY RETURNDATASIZE PUSH1 0x0 REVERT JUMPDEST POP POP POP POP PUSH1 0x40 MLOAD RETURNDATASIZE PUSH1 0x1F NOT PUSH1 0x1F DUP3 ADD AND DUP3 ADD DUP1 PUSH1 0x40 MSTORE POP DUP2 ADD SWAP1 PUSH2 0x663 SWAP2 SWAP1 PUSH2 0x1554 JUMP JUMPDEST SWAP1 POP PUSH1 0x0 DUP2 GT PUSH2 0x6C1 JUMPI PUSH1 0x40 MLOAD PUSH3 0x461BCD PUSH1 0xE5 SHL DUP2 MSTORE PUSH1 0x20 PUSH1 0x4 DUP3 ADD MSTORE PUSH1 0x23 PUSH1 0x24 DUP3 ADD MSTORE PUSH32 0x626574206561726E696E6773206D757374206265206772656174657220746861 PUSH1 0x44 DUP3 ADD MSTORE PUSH3 0x6E203 PUSH1 0xEC SHL PUSH1 0x64 DUP3 ADD MSTORE PUSH1 0x84 ADD PUSH2 0x59F JUMP JUMPDEST PUSH1 0x0 PUSH1 0x64 PUSH1 0x7 SLOAD DUP4 PUSH2 0x6D3 SWAP2 SWAP1 PUSH2 0x16FF JUMP JUMPDEST PUSH2 0x6DD SWAP2 SWAP1 PUSH2 0x16DF JUMP JUMPDEST SWAP1 POP PUSH1 0x0 DUP2 GT PUSH2 0x73D JUMPI PUSH1 0x40 MLOAD PUSH3 0x461BCD PUSH1 0xE5 SHL DUP2 MSTORE PUSH1 0x20 PUSH1 0x4 DUP3 ADD MSTORE PUSH1 0x25 PUSH1 0x24 DUP3 ADD MSTORE PUSH32 0x686F6C6465727327207368617265206D75737420626520677265617465722074 PUSH1 0x44 DUP3 ADD MSTORE PUSH5 0x68616E203 PUSH1 0xDC SHL PUSH1 0x64 DUP3 ADD MSTORE PUSH1 0x84 ADD PUSH2 0x59F JUMP JUMPDEST PUSH1 0x0 PUSH1 0x64 PUSH1 0x8 SLOAD DUP5 PUSH2 0x74F SWAP2 SWAP1 PUSH2 0x16FF JUMP JUMPDEST PUSH2 0x759 SWAP2 SWAP1 PUSH2 0x16DF JUMP JUMPDEST SWAP1 POP PUSH1 0x0 DUP2 GT PUSH2 0x7BA JUMPI PUSH1 0x40 MLOAD PUSH3 0x461BCD PUSH1 0xE5 SHL DUP2 MSTORE PUSH1 0x20 PUSH1 0x4 DUP3 ADD MSTORE PUSH1 0x26 PUSH1 0x24 DUP3 ADD MSTORE PUSH32 0x65636F73797374656D207368617265206D757374206265206772656174657220 PUSH1 0x44 DUP3 ADD MSTORE PUSH6 0x7468616E203 PUSH1 0xD4 SHL PUSH1 0x64 DUP3 ADD MSTORE PUSH1 0x84 ADD PUSH2 0x59F JUMP JUMPDEST PUSH1 0x1 SLOAD PUSH1 0x10 SLOAD PUSH2 0x7D7 SWAP2 PUSH1 0x1 PUSH1 0x1 PUSH1 0xA0 SHL SUB SWAP2 DUP3 AND SWAP2 AND DUP4 PUSH2 0x1219 JUMP JUMPDEST PUSH1 0x2 SLOAD PUSH1 0x10 SLOAD PUSH2 0x7F4 SWAP2 PUSH1 0x1 PUSH1 0x1 PUSH1 0xA0 SHL SUB SWAP2 DUP3 AND SWAP2 AND DUP5 PUSH2 0x1219 JUMP JUMPDEST POP POP POP JUMP JUMPDEST PUSH2 0x802 CALLER PUSH2 0x840 JUMP JUMPDEST PUSH2 0x81E JUMPI PUSH1 0x40 MLOAD PUSH3 0x461BCD PUSH1 0xE5 SHL DUP2 MSTORE PUSH1 0x4 ADD PUSH2 0x59F SWAP1 PUSH2 0x15DC JUMP JUMPDEST PUSH1 0x5 DUP1 SLOAD PUSH1 0x1 PUSH1 0x1 PUSH1 0xA0 SHL SUB NOT AND PUSH1 0x1 PUSH1 0x1 PUSH1 0xA0 SHL SUB SWAP3 SWAP1 SWAP3 AND SWAP2 SWAP1 SWAP2 OR SWAP1 SSTORE JUMP JUMPDEST PUSH1 0x1 PUSH1 0x1 PUSH1 0xA0 SHL SUB DUP2 DUP2 AND PUSH1 0x0 SWAP1 DUP2 MSTORE PUSH1 0xD PUSH1 0x20 MSTORE PUSH1 0x40 DUP2 KECCAK256 SLOAD SWAP1 SWAP2 AND ISZERO PUSH2 0x56D JUMPI PUSH1 0x0 DUP1 JUMPDEST PUSH1 0xA SLOAD DUP2 LT ISZERO PUSH2 0x566 JUMPI DUP4 PUSH1 0x1 PUSH1 0x1 PUSH1 0xA0 SHL SUB AND PUSH1 0xA DUP3 DUP2 SLOAD DUP2 LT PUSH2 0x89B JUMPI PUSH4 0x4E487B71 PUSH1 0xE0 SHL PUSH1 0x0 MSTORE PUSH1 0x32 PUSH1 0x4 MSTORE PUSH1 0x24 PUSH1 0x0 REVERT JUMPDEST PUSH1 0x0 SWAP2 DUP3 MSTORE PUSH1 0x20 SWAP1 SWAP2 KECCAK256 ADD SLOAD PUSH1 0x1 PUSH1 0x1 PUSH1 0xA0 SHL SUB AND EQ ISZERO PUSH2 0x8BF JUMPI PUSH1 0x1 SWAP2 POP PUSH2 0x566 JUMP JUMPDEST DUP1 PUSH2 0x8C9 DUP2 PUSH2 0x174E JUMP JUMPDEST SWAP2 POP POP PUSH2 0x866 JUMP JUMPDEST PUSH2 0x8DA CALLER PUSH2 0x840 JUMP JUMPDEST PUSH2 0x8F6 JUMPI PUSH1 0x40 MLOAD PUSH3 0x461BCD PUSH1 0xE5 SHL DUP2 MSTORE PUSH1 0x4 ADD PUSH2 0x59F SWAP1 PUSH2 0x15DC JUMP JUMPDEST PUSH1 0x4 DUP1 SLOAD PUSH1 0x1 PUSH1 0x1 PUSH1 0xA0 SHL SUB NOT AND PUSH1 0x1 PUSH1 0x1 PUSH1 0xA0 SHL SUB SWAP3 SWAP1 SWAP3 AND SWAP2 SWAP1 SWAP2 OR SWAP1 SSTORE JUMP JUMPDEST PUSH2 0x921 CALLER PUSH2 0x840 JUMP JUMPDEST PUSH2 0x93D JUMPI PUSH1 0x40 MLOAD PUSH3 0x461BCD PUSH1 0xE5 SHL DUP2 MSTORE PUSH1 0x4 ADD PUSH2 0x59F SWAP1 PUSH2 0x15DC JUMP JUMPDEST PUSH1 0x64 DUP3 GT ISZERO DUP1 ISZERO PUSH2 0x94F JUMPI POP PUSH1 0x64 DUP2 GT ISZERO JUMPDEST PUSH2 0x9D4 JUMPI PUSH1 0x40 MLOAD PUSH3 0x461BCD PUSH1 0xE5 SHL DUP2 MSTORE PUSH1 0x20 PUSH1 0x4 DUP3 ADD MSTORE PUSH1 0x4A PUSH1 0x24 DUP3 ADD MSTORE PUSH32 0x5669672070657263656E746167657320736861726573206D7573742062652065 PUSH1 0x44 DUP3 ADD MSTORE PUSH32 0x787072657373656420696E206120203020746F2031303020726174696F2E2045 PUSH1 0x64 DUP3 ADD MSTORE PUSH10 0x78616D706C653A20333 PUSH1 0xB4 SHL PUSH1 0x84 DUP3 ADD MSTORE PUSH1 0xA4 ADD PUSH2 0x59F JUMP JUMPDEST PUSH2 0x9DE DUP2 DUP4 PUSH2 0x16C7 JUMP JUMPDEST PUSH1 0x64 EQ PUSH2 0xA53 JUMPI PUSH1 0x40 MLOAD PUSH3 0x461BCD PUSH1 0xE5 SHL DUP2 MSTORE PUSH1 0x20 PUSH1 0x4 DUP3 ADD MSTORE PUSH1 0x39 PUSH1 0x24 DUP3 ADD MSTORE PUSH32 0x5468652073756D206F6620616C6C205669672070657263656E74616765207368 PUSH1 0x44 DUP3 ADD MSTORE PUSH32 0x61726573206D75737420626520657175616C20746F2031303000000000000000 PUSH1 0x64 DUP3 ADD MSTORE PUSH1 0x84 ADD PUSH2 0x59F JUMP JUMPDEST PUSH1 0x7 SWAP2 SWAP1 SWAP2 SSTORE PUSH1 0x8 SSTORE JUMP JUMPDEST PUSH2 0xA67 CALLER PUSH2 0x840 JUMP JUMPDEST PUSH2 0xA83 JUMPI PUSH1 0x40 MLOAD PUSH3 0x461BCD PUSH1 0xE5 SHL DUP2 MSTORE PUSH1 0x4 ADD PUSH2 0x59F SWAP1 PUSH2 0x15DC JUMP JUMPDEST PUSH1 0x1 PUSH1 0x1 PUSH1 0xA0 SHL SUB DUP2 DUP2 AND PUSH1 0x0 SWAP1 DUP2 MSTORE PUSH1 0xF PUSH1 0x20 MSTORE PUSH1 0x40 SWAP1 KECCAK256 SLOAD AND PUSH2 0xABA JUMPI PUSH1 0x40 MLOAD PUSH3 0x461BCD PUSH1 0xE5 SHL DUP2 MSTORE PUSH1 0x4 ADD PUSH2 0x59F SWAP1 PUSH2 0x1626 JUMP JUMPDEST PUSH1 0x1 PUSH1 0x1 PUSH1 0xA0 SHL SUB DUP2 AND PUSH1 0x0 SWAP1 DUP2 MSTORE PUSH1 0xF PUSH1 0x20 MSTORE PUSH1 0x40 DUP2 KECCAK256 DUP1 SLOAD PUSH1 0x1 PUSH1 0x1 PUSH1 0xA0 SHL SUB NOT AND SWAP1 SSTORE JUMPDEST PUSH1 0xC SLOAD DUP2 LT ISZERO PUSH2 0xB81 JUMPI DUP2 PUSH1 0x1 PUSH1 0x1 PUSH1 0xA0 SHL SUB AND PUSH1 0xC DUP3 DUP2 SLOAD DUP2 LT PUSH2 0xB16 JUMPI PUSH4 0x4E487B71 PUSH1 0xE0 SHL PUSH1 0x0 MSTORE PUSH1 0x32 PUSH1 0x4 MSTORE PUSH1 0x24 PUSH1 0x0 REVERT JUMPDEST PUSH1 0x0 SWAP2 DUP3 MSTORE PUSH1 0x20 SWAP1 SWAP2 KECCAK256 ADD SLOAD PUSH1 0x1 PUSH1 0x1 PUSH1 0xA0 SHL SUB AND EQ ISZERO PUSH2 0xB6F JUMPI PUSH1 0xC DUP2 DUP2 SLOAD DUP2 LT PUSH2 0xB52 JUMPI PUSH4 0x4E487B71 PUSH1 0xE0 SHL PUSH1 0x0 MSTORE PUSH1 0x32 PUSH1 0x4 MSTORE PUSH1 0x24 PUSH1 0x0 REVERT JUMPDEST PUSH1 0x0 SWAP2 DUP3 MSTORE PUSH1 0x20 SWAP1 SWAP2 KECCAK256 ADD DUP1 SLOAD PUSH1 0x1 PUSH1 0x1 PUSH1 0xA0 SHL SUB NOT AND SWAP1 SSTORE POP POP JUMP JUMPDEST DUP1 PUSH2 0xB79 DUP2 PUSH2 0x174E JUMP JUMPDEST SWAP2 POP POP PUSH2 0xAE1 JUMP JUMPDEST POP POP JUMP JUMPDEST PUSH1 0xC DUP2 DUP2 SLOAD DUP2 LT PUSH2 0x4BB JUMPI PUSH1 0x0 DUP1 REVERT JUMPDEST PUSH2 0xB9E CALLER PUSH2 0x840 JUMP JUMPDEST PUSH2 0xBBA JUMPI PUSH1 0x40 MLOAD PUSH3 0x461BCD PUSH1 0xE5 SHL DUP2 MSTORE PUSH1 0x4 ADD PUSH2 0x59F SWAP1 PUSH2 0x15DC JUMP JUMPDEST PUSH1 0x6 DUP1 SLOAD PUSH1 0x1 PUSH1 0x1 PUSH1 0xA0 SHL SUB NOT AND PUSH1 0x1 PUSH1 0x1 PUSH1 0xA0 SHL SUB SWAP3 SWAP1 SWAP3 AND SWAP2 SWAP1 SWAP2 OR SWAP1 SSTORE JUMP JUMPDEST PUSH2 0xBE5 CALLER PUSH2 0x840 JUMP JUMPDEST PUSH2 0xC01 JUMPI PUSH1 0x40 MLOAD PUSH3 0x461BCD PUSH1 0xE5 SHL DUP2 MSTORE PUSH1 0x4 ADD PUSH2 0x59F SWAP1 PUSH2 0x15DC JUMP JUMPDEST PUSH1 0x1 PUSH1 0x1 PUSH1 0xA0 SHL SUB DUP1 DUP3 AND PUSH1 0x0 SWAP1 DUP2 MSTORE PUSH1 0xF PUSH1 0x20 MSTORE PUSH1 0x40 SWAP1 KECCAK256 SLOAD DUP3 SWAP2 AND ISZERO PUSH2 0xC62 JUMPI PUSH1 0x40 MLOAD PUSH3 0x461BCD PUSH1 0xE5 SHL DUP2 MSTORE PUSH1 0x20 PUSH1 0x4 DUP3 ADD MSTORE PUSH1 0x14 PUSH1 0x24 DUP3 ADD MSTORE PUSH20 0x185B1C9958591E481A5B88189B1858DADB1A5CDD PUSH1 0x62 SHL PUSH1 0x44 DUP3 ADD MSTORE PUSH1 0x64 ADD PUSH2 0x59F JUMP JUMPDEST POP PUSH1 0xB DUP1 SLOAD PUSH1 0x1 DUP2 ADD SWAP1 SWAP2 SSTORE PUSH32 0x175B7A638427703F0DBE7BB9BBF987A2551717B34E79F33B5B1008D1FA01DB9 ADD DUP1 SLOAD PUSH1 0x1 PUSH1 0x1 PUSH1 0xA0 SHL SUB SWAP1 SWAP3 AND PUSH1 0x1 PUSH1 0x1 PUSH1 0xA0 SHL SUB NOT SWAP3 DUP4 AND DUP2 OR SWAP1 SWAP2 SSTORE PUSH1 0x0 DUP2 DUP2 MSTORE PUSH1 0xE PUSH1 0x20 MSTORE PUSH1 0x40 SWAP1 KECCAK256 DUP1 SLOAD SWAP1 SWAP3 AND OR SWAP1 SSTORE JUMP JUMPDEST PUSH1 0x1 PUSH1 0x1 PUSH1 0xA0 SHL SUB DUP2 DUP2 AND PUSH1 0x0 SWAP1 DUP2 MSTORE PUSH1 0xE PUSH1 0x20 MSTORE PUSH1 0x40 DUP2 KECCAK256 SLOAD SWAP1 SWAP2 AND ISZERO PUSH2 0x56D JUMPI PUSH1 0x0 DUP1 JUMPDEST PUSH1 0xB SLOAD DUP2 LT ISZERO PUSH2 0x566 JUMPI DUP4 PUSH1 0x1 PUSH1 0x1 PUSH1 0xA0 SHL SUB AND PUSH1 0xB DUP3 DUP2 SLOAD DUP2 LT PUSH2 0xD21 JUMPI PUSH4 0x4E487B71 PUSH1 0xE0 SHL PUSH1 0x0 MSTORE PUSH1 0x32 PUSH1 0x4 MSTORE PUSH1 0x24 PUSH1 0x0 REVERT JUMPDEST PUSH1 0x0 SWAP2 DUP3 MSTORE PUSH1 0x20 SWAP1 SWAP2 KECCAK256 ADD SLOAD PUSH1 0x1 PUSH1 0x1 PUSH1 0xA0 SHL SUB AND EQ ISZERO PUSH2 0xD45 JUMPI PUSH1 0x1 SWAP2 POP PUSH2 0x566 JUMP JUMPDEST DUP1 PUSH2 0xD4F DUP2 PUSH2 0x174E JUMP JUMPDEST SWAP2 POP POP PUSH2 0xCEC JUMP JUMPDEST PUSH1 0xB DUP2 DUP2 SLOAD DUP2 LT PUSH2 0x4BB JUMPI PUSH1 0x0 DUP1 REVERT JUMPDEST PUSH1 0x0 SLOAD PUSH1 0x1 PUSH1 0x1 PUSH1 0xA0 SHL SUB AND CALLER EQ PUSH2 0xD91 JUMPI PUSH1 0x40 MLOAD PUSH3 0x461BCD PUSH1 0xE5 SHL DUP2 MSTORE PUSH1 0x4 ADD PUSH2 0x59F SWAP1 PUSH2 0x15DC JUMP JUMPDEST PUSH1 0x1 PUSH1 0x1 PUSH1 0xA0 SHL SUB DUP2 DUP2 AND PUSH1 0x0 SWAP1 DUP2 MSTORE PUSH1 0xD PUSH1 0x20 MSTORE PUSH1 0x40 SWAP1 KECCAK256 SLOAD AND PUSH2 0xDC8 JUMPI PUSH1 0x40 MLOAD PUSH3 0x461BCD PUSH1 0xE5 SHL DUP2 MSTORE PUSH1 0x4 ADD PUSH2 0x59F SWAP1 PUSH2 0x1626 JUMP JUMPDEST PUSH1 0x1 PUSH1 0x1 PUSH1 0xA0 SHL SUB DUP2 AND PUSH1 0x0 SWAP1 DUP2 MSTORE PUSH1 0xD PUSH1 0x20 MSTORE PUSH1 0x40 DUP2 KECCAK256 DUP1 SLOAD PUSH1 0x1 PUSH1 0x1 PUSH1 0xA0 SHL SUB NOT AND SWAP1 SSTORE JUMPDEST PUSH1 0xA SLOAD DUP2 LT ISZERO PUSH2 0xB81 JUMPI DUP2 PUSH1 0x1 PUSH1 0x1 PUSH1 0xA0 SHL SUB AND PUSH1 0xA DUP3 DUP2 SLOAD DUP2 LT PUSH2 0xE24 JUMPI PUSH4 0x4E487B71 PUSH1 0xE0 SHL PUSH1 0x0 MSTORE PUSH1 0x32 PUSH1 0x4 MSTORE PUSH1 0x24 PUSH1 0x0 REVERT JUMPDEST PUSH1 0x0 SWAP2 DUP3 MSTORE PUSH1 0x20 SWAP1 SWAP2 KECCAK256 ADD SLOAD PUSH1 0x1 PUSH1 0x1 PUSH1 0xA0 SHL SUB AND EQ ISZERO PUSH2 0xE60 JUMPI PUSH1 0xA DUP2 DUP2 SLOAD DUP2 LT PUSH2 0xB52 JUMPI PUSH4 0x4E487B71 PUSH1 0xE0 SHL PUSH1 0x0 MSTORE PUSH1 0x32 PUSH1 0x4 MSTORE PUSH1 0x24 PUSH1 0x0 REVERT JUMPDEST DUP1 PUSH2 0xE6A DUP2 PUSH2 0x174E JUMP JUMPDEST SWAP2 POP POP PUSH2 0xDEF JUMP JUMPDEST PUSH2 0xE7B CALLER PUSH2 0x840 JUMP JUMPDEST PUSH2 0xE97 JUMPI PUSH1 0x40 MLOAD PUSH3 0x461BCD PUSH1 0xE5 SHL DUP2 MSTORE PUSH1 0x4 ADD PUSH2 0x59F SWAP1 PUSH2 0x15DC JUMP JUMPDEST PUSH1 0xA DUP2 LT PUSH2 0xF18 JUMPI PUSH1 0x40 MLOAD PUSH3 0x461BCD PUSH1 0xE5 SHL DUP2 MSTORE PUSH1 0x20 PUSH1 0x4 DUP3 ADD MSTORE PUSH1 0x42 PUSH1 0x24 DUP3 ADD MSTORE PUSH32 0x5669672070657263656E74616765206D75737420626520657870726573736564 PUSH1 0x44 DUP3 ADD MSTORE PUSH32 0x20696E203020746F2031302070657263656E746167652E204578616D706C653A PUSH1 0x64 DUP3 ADD MSTORE PUSH2 0x101B PUSH1 0xF1 SHL PUSH1 0x84 DUP3 ADD MSTORE PUSH1 0xA4 ADD PUSH2 0x59F JUMP JUMPDEST PUSH1 0x9 SSTORE JUMP JUMPDEST PUSH2 0xF26 CALLER PUSH2 0x840 JUMP JUMPDEST PUSH2 0xF42 JUMPI PUSH1 0x40 MLOAD PUSH3 0x461BCD PUSH1 0xE5 SHL DUP2 MSTORE PUSH1 0x4 ADD PUSH2 0x59F SWAP1 PUSH2 0x15DC JUMP JUMPDEST PUSH1 0x1 PUSH1 0x1 PUSH1 0xA0 SHL SUB DUP1 DUP3 AND PUSH1 0x0 SWAP1 DUP2 MSTORE PUSH1 0xE PUSH1 0x20 MSTORE PUSH1 0x40 SWAP1 KECCAK256 SLOAD DUP3 SWAP2 AND ISZERO PUSH2 0xFA5 JUMPI PUSH1 0x40 MLOAD PUSH3 0x461BCD PUSH1 0xE5 SHL DUP2 MSTORE PUSH1 0x20 PUSH1 0x4 DUP3 ADD MSTORE PUSH1 0x16 PUSH1 0x24 DUP3 ADD MSTORE PUSH22 0x30B63932B0B23C9030B71032BB32B73A1030B236B4B7 PUSH1 0x51 SHL PUSH1 0x44 DUP3 ADD MSTORE PUSH1 0x64 ADD PUSH2 0x59F JUMP JUMPDEST PUSH1 0x2 SLOAD PUSH1 0x1 PUSH1 0x1 PUSH1 0xA0 SHL SUB AND ISZERO DUP1 PUSH2 0xFC6 JUMPI POP PUSH1 0x1 SLOAD PUSH1 0x1 PUSH1 0x1 PUSH1 0xA0 SHL SUB AND ISZERO JUMPDEST PUSH2 0xC62 JUMPI PUSH1 0x40 MLOAD PUSH3 0x461BCD PUSH1 0xE5 SHL DUP2 MSTORE PUSH1 0x4 ADD PUSH2 0x59F SWAP1 PUSH2 0x1653 JUMP JUMPDEST PUSH1 0x0 SLOAD PUSH1 0x1 PUSH1 0x1 PUSH1 0xA0 SHL SUB AND CALLER EQ PUSH2 0x100C JUMPI PUSH1 0x40 MLOAD PUSH3 0x461BCD PUSH1 0xE5 SHL DUP2 MSTORE PUSH1 0x4 ADD PUSH2 0x59F SWAP1 PUSH2 0x15DC JUMP JUMPDEST PUSH1 0x1 PUSH1 0x1 PUSH1 0xA0 SHL SUB DUP1 DUP3 AND PUSH1 0x0 SWAP1 DUP2 MSTORE PUSH1 0xD PUSH1 0x20 MSTORE PUSH1 0x40 SWAP1 KECCAK256 SLOAD DUP3 SWAP2 AND ISZERO PUSH2 0x106F JUMPI PUSH1 0x40 MLOAD PUSH3 0x461BCD PUSH1 0xE5 SHL DUP2 MSTORE PUSH1 0x20 PUSH1 0x4 DUP3 ADD MSTORE PUSH1 0x16 PUSH1 0x24 DUP3 ADD MSTORE PUSH22 0x30B63932B0B23C90309039BCB9BA32B69030B236B4B7 PUSH1 0x51 SHL PUSH1 0x44 DUP3 ADD MSTORE PUSH1 0x64 ADD PUSH2 0x59F JUMP JUMPDEST PUSH1 0x2 SLOAD PUSH1 0x1 PUSH1 0x1 PUSH1 0xA0 SHL SUB AND ISZERO DUP1 ISZERO SWAP1 PUSH2 0x1093 JUMPI POP PUSH1 0x1 SLOAD PUSH1 0x1 PUSH1 0x1 PUSH1 0xA0 SHL SUB AND ISZERO ISZERO JUMPDEST PUSH2 0x10AF JUMPI PUSH1 0x40 MLOAD PUSH3 0x461BCD PUSH1 0xE5 SHL DUP2 MSTORE PUSH1 0x4 ADD PUSH2 0x59F SWAP1 PUSH2 0x1653 JUMP JUMPDEST POP PUSH1 0xA DUP1 SLOAD PUSH1 0x1 DUP2 ADD SWAP1 SWAP2 SSTORE PUSH32 0xC65A7BB8D6351C1CF70C95A316CC6A92839C986682D98BC35F958F4883F9D2A8 ADD DUP1 SLOAD PUSH1 0x1 PUSH1 0x1 PUSH1 0xA0 SHL SUB SWAP1 SWAP3 AND PUSH1 0x1 PUSH1 0x1 PUSH1 0xA0 SHL SUB NOT SWAP3 DUP4 AND DUP2 OR SWAP1 SWAP2 SSTORE PUSH1 0x0 DUP2 DUP2 MSTORE PUSH1 0xD PUSH1 0x20 MSTORE PUSH1 0x40 SWAP1 KECCAK256 DUP1 SLOAD SWAP1 SWAP3 AND OR SWAP1 SSTORE JUMP JUMPDEST PUSH2 0x111C CALLER PUSH2 0x840 JUMP JUMPDEST PUSH2 0x1138 JUMPI PUSH1 0x40 MLOAD PUSH3 0x461BCD PUSH1 0xE5 SHL DUP2 MSTORE PUSH1 0x4 ADD PUSH2 0x59F SWAP1 PUSH2 0x15DC JUMP JUMPDEST PUSH1 0x1 PUSH1 0x1 PUSH1 0xA0 SHL SUB DUP2 DUP2 AND PUSH1 0x0 SWAP1 DUP2 MSTORE PUSH1 0xE PUSH1 0x20 MSTORE PUSH1 0x40 SWAP1 KECCAK256 SLOAD AND PUSH2 0x116F JUMPI PUSH1 0x40 MLOAD PUSH3 0x461BCD PUSH1 0xE5 SHL DUP2 MSTORE PUSH1 0x4 ADD PUSH2 0x59F SWAP1 PUSH2 0x1626 JUMP JUMPDEST PUSH1 0x1 PUSH1 0x1 PUSH1 0xA0 SHL SUB DUP2 AND PUSH1 0x0 SWAP1 DUP2 MSTORE PUSH1 0xE PUSH1 0x20 MSTORE PUSH1 0x40 DUP2 KECCAK256 DUP1 SLOAD PUSH1 0x1 PUSH1 0x1 PUSH1 0xA0 SHL SUB NOT AND SWAP1 SSTORE JUMPDEST PUSH1 0xB SLOAD DUP2 LT ISZERO PUSH2 0xB81 JUMPI DUP2 PUSH1 0x1 PUSH1 0x1 PUSH1 0xA0 SHL SUB AND PUSH1 0xB DUP3 DUP2 SLOAD DUP2 LT PUSH2 0x11CB JUMPI PUSH4 0x4E487B71 PUSH1 0xE0 SHL PUSH1 0x0 MSTORE PUSH1 0x32 PUSH1 0x4 MSTORE PUSH1 0x24 PUSH1 0x0 REVERT JUMPDEST PUSH1 0x0 SWAP2 DUP3 MSTORE PUSH1 0x20 SWAP1 SWAP2 KECCAK256 ADD SLOAD PUSH1 0x1 PUSH1 0x1 PUSH1 0xA0 SHL SUB AND EQ ISZERO PUSH2 0x1207 JUMPI PUSH1 0xB DUP2 DUP2 SLOAD DUP2 LT PUSH2 0xB52 JUMPI PUSH4 0x4E487B71 PUSH1 0xE0 SHL PUSH1 0x0 MSTORE PUSH1 0x32 PUSH1 0x4 MSTORE PUSH1 0x24 PUSH1 0x0 REVERT JUMPDEST DUP1 PUSH2 0x1211 DUP2 PUSH2 0x174E JUMP JUMPDEST SWAP2 POP POP PUSH2 0x1196 JUMP JUMPDEST PUSH1 0x40 DUP1 MLOAD PUSH1 0x1 PUSH1 0x1 PUSH1 0xA0 SHL SUB DUP5 DUP2 AND PUSH1 0x24 DUP4 ADD MSTORE PUSH1 0x44 DUP1 DUP4 ADD DUP6 SWAP1 MSTORE DUP4 MLOAD DUP1 DUP5 SUB SWAP1 SWAP2 ADD DUP2 MSTORE PUSH1 0x64 SWAP1 SWAP3 ADD DUP4 MSTORE PUSH1 0x20 DUP1 DUP4 ADD DUP1 MLOAD PUSH1 0x1 PUSH1 0x1 PUSH1 0xE0 SHL SUB AND PUSH4 0xA9059CBB PUSH1 0xE0 SHL OR SWAP1 MSTORE DUP4 MLOAD DUP1 DUP6 ADD SWAP1 SWAP5 MSTORE DUP1 DUP5 MSTORE PUSH32 0x5361666545524332303A206C6F772D6C6576656C2063616C6C206661696C6564 SWAP1 DUP5 ADD MSTORE PUSH2 0x7F4 SWAP3 DUP7 SWAP3 SWAP2 PUSH1 0x0 SWAP2 PUSH2 0x12A9 SWAP2 DUP6 AND SWAP1 DUP5 SWAP1 PUSH2 0x1326 JUMP JUMPDEST DUP1 MLOAD SWAP1 SWAP2 POP ISZERO PUSH2 0x7F4 JUMPI DUP1 DUP1 PUSH1 0x20 ADD SWAP1 MLOAD DUP2 ADD SWAP1 PUSH2 0x12C7 SWAP2 SWAP1 PUSH2 0x151C JUMP JUMPDEST PUSH2 0x7F4 JUMPI PUSH1 0x40 MLOAD PUSH3 0x461BCD PUSH1 0xE5 SHL DUP2 MSTORE PUSH1 0x20 PUSH1 0x4 DUP3 ADD MSTORE PUSH1 0x2A PUSH1 0x24 DUP3 ADD MSTORE PUSH32 0x5361666545524332303A204552433230206F7065726174696F6E20646964206E PUSH1 0x44 DUP3 ADD MSTORE PUSH10 0x1BDD081CDD58D8D95959 PUSH1 0xB2 SHL PUSH1 0x64 DUP3 ADD MSTORE PUSH1 0x84 ADD PUSH2 0x59F JUMP JUMPDEST PUSH1 0x60 PUSH2 0x1335 DUP5 DUP5 PUSH1 0x0 DUP6 PUSH2 0x133F JUMP JUMPDEST SWAP1 POP JUMPDEST SWAP4 SWAP3 POP POP POP JUMP JUMPDEST PUSH1 0x60 DUP3 SELFBALANCE LT ISZERO PUSH2 0x13A0 JUMPI PUSH1 0x40 MLOAD PUSH3 0x461BCD PUSH1 0xE5 SHL DUP2 MSTORE PUSH1 0x20 PUSH1 0x4 DUP3 ADD MSTORE PUSH1 0x26 PUSH1 0x24 DUP3 ADD MSTORE PUSH32 0x416464726573733A20696E73756666696369656E742062616C616E636520666F PUSH1 0x44 DUP3 ADD MSTORE PUSH6 0x1C8818D85B1B PUSH1 0xD2 SHL PUSH1 0x64 DUP3 ADD MSTORE PUSH1 0x84 ADD PUSH2 0x59F JUMP JUMPDEST PUSH1 0x1 PUSH1 0x1 PUSH1 0xA0 SHL SUB DUP6 AND EXTCODESIZE PUSH2 0x13F7 JUMPI PUSH1 0x40 MLOAD PUSH3 0x461BCD PUSH1 0xE5 SHL DUP2 MSTORE PUSH1 0x20 PUSH1 0x4 DUP3 ADD MSTORE PUSH1 0x1D PUSH1 0x24 DUP3 ADD MSTORE PUSH32 0x416464726573733A2063616C6C20746F206E6F6E2D636F6E7472616374000000 PUSH1 0x44 DUP3 ADD MSTORE PUSH1 0x64 ADD PUSH2 0x59F JUMP JUMPDEST PUSH1 0x0 DUP1 DUP7 PUSH1 0x1 PUSH1 0x1 PUSH1 0xA0 SHL SUB AND DUP6 DUP8 PUSH1 0x40 MLOAD PUSH2 0x1413 SWAP2 SWAP1 PUSH2 0x158D JUMP JUMPDEST PUSH1 0x0 PUSH1 0x40 MLOAD DUP1 DUP4 SUB DUP2 DUP6 DUP8 GAS CALL SWAP3 POP POP POP RETURNDATASIZE DUP1 PUSH1 0x0 DUP2 EQ PUSH2 0x1450 JUMPI PUSH1 0x40 MLOAD SWAP2 POP PUSH1 0x1F NOT PUSH1 0x3F RETURNDATASIZE ADD AND DUP3 ADD PUSH1 0x40 MSTORE RETURNDATASIZE DUP3 MSTORE RETURNDATASIZE PUSH1 0x0 PUSH1 0x20 DUP5 ADD RETURNDATACOPY PUSH2 0x1455 JUMP JUMPDEST PUSH1 0x60 SWAP2 POP JUMPDEST POP SWAP2 POP SWAP2 POP PUSH2 0x1465 DUP3 DUP3 DUP7 PUSH2 0x1470 JUMP JUMPDEST SWAP8 SWAP7 POP POP POP POP POP POP POP JUMP JUMPDEST PUSH1 0x60 DUP4 ISZERO PUSH2 0x147F JUMPI POP DUP2 PUSH2 0x1338 JUMP JUMPDEST DUP3 MLOAD ISZERO PUSH2 0x148F JUMPI DUP3 MLOAD DUP1 DUP5 PUSH1 0x20 ADD REVERT JUMPDEST DUP2 PUSH1 0x40 MLOAD PUSH3 0x461BCD PUSH1 0xE5 SHL DUP2 MSTORE PUSH1 0x4 ADD PUSH2 0x59F SWAP2 SWAP1 PUSH2 0x15A9 JUMP JUMPDEST DUP1 CALLDATALOAD PUSH1 0x1 PUSH1 0x1 PUSH1 0xA0 SHL SUB DUP2 AND DUP2 EQ PUSH2 0x575 JUMPI PUSH1 0x0 DUP1 REVERT JUMPDEST PUSH1 0x0 PUSH1 0x20 DUP3 DUP5 SUB SLT ISZERO PUSH2 0x14D1 JUMPI DUP1 DUP2 REVERT JUMPDEST PUSH2 0x1338 DUP3 PUSH2 0x14A9 JUMP JUMPDEST PUSH1 0x0 DUP1 PUSH1 0x0 PUSH1 0x60 DUP5 DUP7 SUB SLT ISZERO PUSH2 0x14EE JUMPI DUP2 DUP3 REVERT JUMPDEST PUSH2 0x14F7 DUP5 PUSH2 0x14A9 JUMP JUMPDEST SWAP3 POP PUSH2 0x1505 PUSH1 0x20 DUP6 ADD PUSH2 0x14A9 JUMP JUMPDEST SWAP2 POP PUSH2 0x1513 PUSH1 0x40 DUP6 ADD PUSH2 0x14A9 JUMP JUMPDEST SWAP1 POP SWAP3 POP SWAP3 POP SWAP3 JUMP JUMPDEST PUSH1 0x0 PUSH1 0x20 DUP3 DUP5 SUB SLT ISZERO PUSH2 0x152D JUMPI DUP1 DUP2 REVERT JUMPDEST DUP2 MLOAD DUP1 ISZERO ISZERO DUP2 EQ PUSH2 0x1338 JUMPI DUP2 DUP3 REVERT JUMPDEST PUSH1 0x0 PUSH1 0x20 DUP3 DUP5 SUB SLT ISZERO PUSH2 0x154D JUMPI DUP1 DUP2 REVERT JUMPDEST POP CALLDATALOAD SWAP2 SWAP1 POP JUMP JUMPDEST PUSH1 0x0 PUSH1 0x20 DUP3 DUP5 SUB SLT ISZERO PUSH2 0x1565 JUMPI DUP1 DUP2 REVERT JUMPDEST POP MLOAD SWAP2 SWAP1 POP JUMP JUMPDEST PUSH1 0x0 DUP1 PUSH1 0x40 DUP4 DUP6 SUB SLT ISZERO PUSH2 0x157E JUMPI DUP2 DUP3 REVERT JUMPDEST POP POP DUP1 CALLDATALOAD SWAP3 PUSH1 0x20 SWAP1 SWAP2 ADD CALLDATALOAD SWAP2 POP JUMP JUMPDEST PUSH1 0x0 DUP3 MLOAD PUSH2 0x159F DUP2 DUP5 PUSH1 0x20 DUP8 ADD PUSH2 0x171E JUMP JUMPDEST SWAP2 SWAP1 SWAP2 ADD SWAP3 SWAP2 POP POP JUMP JUMPDEST PUSH1 0x20 DUP2 MSTORE PUSH1 0x0 DUP3 MLOAD DUP1 PUSH1 0x20 DUP5 ADD MSTORE PUSH2 0x15C8 DUP2 PUSH1 0x40 DUP6 ADD PUSH1 0x20 DUP8 ADD PUSH2 0x171E JUMP JUMPDEST PUSH1 0x1F ADD PUSH1 0x1F NOT AND SWAP2 SWAP1 SWAP2 ADD PUSH1 0x40 ADD SWAP3 SWAP2 POP POP JUMP JUMPDEST PUSH1 0x20 DUP1 DUP3 MSTORE PUSH1 0x2A SWAP1 DUP3 ADD MSTORE PUSH32 0x596F752068617665206E6F2070726976696C65676520746F2072756E20746869 PUSH1 0x40 DUP3 ADD MSTORE PUSH10 0x3990333AB731BA34B7B7 PUSH1 0xB1 SHL PUSH1 0x60 DUP3 ADD MSTORE PUSH1 0x80 ADD SWAP1 JUMP JUMPDEST PUSH1 0x20 DUP1 DUP3 MSTORE PUSH1 0x13 SWAP1 DUP3 ADD MSTORE PUSH19 0x24B73B30B634B21032BB32B73A1037BBB732B9 PUSH1 0x69 SHL PUSH1 0x40 DUP3 ADD MSTORE PUSH1 0x60 ADD SWAP1 JUMP JUMPDEST PUSH1 0x20 DUP1 DUP3 MSTORE PUSH1 0x4E SWAP1 DUP3 ADD MSTORE PUSH32 0x796F75206D7573742073657420686F6C6465727320616E642065636F73797374 PUSH1 0x40 DUP3 ADD MSTORE PUSH32 0x6D654164647265737320616464726573736573206265666F726520616464696E PUSH1 0x60 DUP3 ADD MSTORE PUSH14 0x67206576656E74206F776E657273 PUSH1 0x90 SHL PUSH1 0x80 DUP3 ADD MSTORE PUSH1 0xA0 ADD SWAP1 JUMP JUMPDEST PUSH1 0x0 DUP3 NOT DUP3 GT ISZERO PUSH2 0x16DA JUMPI PUSH2 0x16DA PUSH2 0x1769 JUMP JUMPDEST POP ADD SWAP1 JUMP JUMPDEST PUSH1 0x0 DUP3 PUSH2 0x16FA JUMPI PUSH4 0x4E487B71 PUSH1 0xE0 SHL DUP2 MSTORE PUSH1 0x12 PUSH1 0x4 MSTORE PUSH1 0x24 DUP2 REVERT JUMPDEST POP DIV SWAP1 JUMP JUMPDEST PUSH1 0x0 DUP2 PUSH1 0x0 NOT DIV DUP4 GT DUP3 ISZERO ISZERO AND ISZERO PUSH2 0x1719 JUMPI PUSH2 0x1719 PUSH2 0x1769 JUMP JUMPDEST POP MUL SWAP1 JUMP JUMPDEST PUSH1 0x0 JUMPDEST DUP4 DUP2 LT ISZERO PUSH2 0x1739 JUMPI DUP2 DUP2 ADD MLOAD DUP4 DUP3 ADD MSTORE PUSH1 0x20 ADD PUSH2 0x1721 JUMP JUMPDEST DUP4 DUP2 GT ISZERO PUSH2 0x1748 JUMPI PUSH1 0x0 DUP5 DUP5 ADD MSTORE JUMPDEST POP POP POP POP JUMP JUMPDEST PUSH1 0x0 PUSH1 0x0 NOT DUP3 EQ ISZERO PUSH2 0x1762 JUMPI PUSH2 0x1762 PUSH2 0x1769 JUMP JUMPDEST POP PUSH1 0x1 ADD SWAP1 JUMP JUMPDEST PUSH4 0x4E487B71 PUSH1 0xE0 SHL PUSH1 0x0 MSTORE PUSH1 0x11 PUSH1 0x4 MSTORE PUSH1 0x24 PUSH1 0x0 REVERT INVALID LOG2 PUSH5 0x6970667358 0x22 SLT KECCAK256 0xAB 0x25 PUSH4 0x53FD8B6C 0x25 0xAF 0xBD 0xD8 DELEGATECALL 0xBA SWAP14 EXP GT 0xB9 BYTE 0xAB 0xC4 GASPRICE PUSH14 0x7D0255ADC61321AF503564736F6C PUSH4 0x43000804 STOP CALLER "
				},
				"gasEstimates": {
					"creation": {
						"codeDepositCost": "1213800",
						"executionCost": "103786",
						"totalCost": "1317586"
					},
					"external": {
						"addBlacked(address)": "infinite",
						"addEventAdmin(address)": "infinite",
						"addSystemAdmin(address)": "66421",
						"admins(address)": "1293",
						"betFactory()": "1072",
						"blackList(uint256)": "2071",
						"blacked(address)": "1337",
						"contractOwner()": "1093",
						"deleteEventAdmin(address)": "infinite",
						"deleteSystemAdmin(address)": "infinite",
						"ecosystemAddress()": "1095",
						"ecosystemVig()": "1062",
						"eventAdmins(uint256)": "2092",
						"eventFactory()": "1072",
						"eventOwners(address)": "1359",
						"holdersAddress()": "1139",
						"holdersVig()": "1063",
						"isBlack(address)": "infinite",
						"isEventAdmin(address)": "infinite",
						"isSystemAdmin(address)": "infinite",
						"marketFactory()": "1117",
						"removeBlacked(address)": "infinite",
						"setAddresses(address,address,address)": "infinite",
						"setBetFactory(address)": "infinite",
						"setFactory(address)": "infinite",
						"setMarketFactory(address)": "infinite",
						"setVigPercentage(uint256)": "infinite",
						"setVigPercentageShares(uint256,uint256)": "infinite",
						"shareBetEarnings()": "infinite",
						"stableCoin()": "1115",
						"systemAdmins(uint256)": "2050",
						"vigPercentage()": "1107"
					}
				},
				"methodIdentifiers": {
					"addBlacked(address)": "9b460aa9",
					"addEventAdmin(address)": "e3c0ed78",
					"addSystemAdmin(address)": "ed9f7eb9",
					"admins(address)": "429b62e5",
					"betFactory()": "2e1a9618",
					"blackList(uint256)": "709ec8b4",
					"blacked(address)": "80036b34",
					"contractOwner()": "ce606ee0",
					"deleteEventAdmin(address)": "f2210b2c",
					"deleteSystemAdmin(address)": "d5494869",
					"ecosystemAddress()": "06a5cb3a",
					"ecosystemVig()": "9376b94c",
					"eventAdmins(uint256)": "d37e87fd",
					"eventFactory()": "6fdbd3f6",
					"eventOwners(address)": "85d8349b",
					"holdersAddress()": "0da4ee50",
					"holdersVig()": "486d1e50",
					"isBlack(address)": "332daccf",
					"isEventAdmin(address)": "cb146622",
					"isSystemAdmin(address)": "4fb43199",
					"marketFactory()": "06ae7095",
					"removeBlacked(address)": "681ada8c",
					"setAddresses(address,address,address)": "363bf964",
					"setBetFactory(address)": "89fefbe1",
					"setFactory(address)": "5bb47808",
					"setMarketFactory(address)": "4dcc434a",
					"setVigPercentage(uint256)": "d6c1ca26",
					"setVigPercentageShares(uint256,uint256)": "64886880",
					"shareBetEarnings()": "4d161324",
					"stableCoin()": "992642e5",
					"systemAdmins(uint256)": "026c1a4d",
					"vigPercentage()": "387440e6"
				}
			},
			"storageLayout": {
				"storage": [
					{
						"astId": 703,
						"contract": "contracts/Web3BetsFO.sol:Web3BetsFO",
						"label": "contractOwner",
						"offset": 0,
						"slot": "0",
						"type": "t_address"
					},
					{
						"astId": 706,
						"contract": "contracts/Web3BetsFO.sol:Web3BetsFO",
						"label": "ecosystemAddress",
						"offset": 0,
						"slot": "1",
						"type": "t_address"
					},
					{
						"astId": 709,
						"contract": "contracts/Web3BetsFO.sol:Web3BetsFO",
						"label": "holdersAddress",
						"offset": 0,
						"slot": "2",
						"type": "t_address"
					},
					{
						"astId": 712,
						"contract": "contracts/Web3BetsFO.sol:Web3BetsFO",
						"label": "stableCoin",
						"offset": 0,
						"slot": "3",
						"type": "t_address"
					},
					{
						"astId": 715,
						"contract": "contracts/Web3BetsFO.sol:Web3BetsFO",
						"label": "eventFactory",
						"offset": 0,
						"slot": "4",
						"type": "t_address"
					},
					{
						"astId": 718,
						"contract": "contracts/Web3BetsFO.sol:Web3BetsFO",
						"label": "marketFactory",
						"offset": 0,
						"slot": "5",
						"type": "t_address"
					},
					{
						"astId": 721,
						"contract": "contracts/Web3BetsFO.sol:Web3BetsFO",
						"label": "betFactory",
						"offset": 0,
						"slot": "6",
						"type": "t_address"
					},
					{
						"astId": 725,
						"contract": "contracts/Web3BetsFO.sol:Web3BetsFO",
						"label": "holdersVig",
						"offset": 0,
						"slot": "7",
						"type": "t_uint256"
					},
					{
						"astId": 729,
						"contract": "contracts/Web3BetsFO.sol:Web3BetsFO",
						"label": "ecosystemVig",
						"offset": 0,
						"slot": "8",
						"type": "t_uint256"
					},
					{
						"astId": 733,
						"contract": "contracts/Web3BetsFO.sol:Web3BetsFO",
						"label": "vigPercentage",
						"offset": 0,
						"slot": "9",
						"type": "t_uint256"
					},
					{
						"astId": 736,
						"contract": "contracts/Web3BetsFO.sol:Web3BetsFO",
						"label": "systemAdmins",
						"offset": 0,
						"slot": "10",
						"type": "t_array(t_address)dyn_storage"
					},
					{
						"astId": 739,
						"contract": "contracts/Web3BetsFO.sol:Web3BetsFO",
						"label": "eventAdmins",
						"offset": 0,
						"slot": "11",
						"type": "t_array(t_address)dyn_storage"
					},
					{
						"astId": 742,
						"contract": "contracts/Web3BetsFO.sol:Web3BetsFO",
						"label": "blackList",
						"offset": 0,
						"slot": "12",
						"type": "t_array(t_address)dyn_storage"
					},
					{
						"astId": 746,
						"contract": "contracts/Web3BetsFO.sol:Web3BetsFO",
						"label": "admins",
						"offset": 0,
						"slot": "13",
						"type": "t_mapping(t_address,t_address)"
					},
					{
						"astId": 750,
						"contract": "contracts/Web3BetsFO.sol:Web3BetsFO",
						"label": "eventOwners",
						"offset": 0,
						"slot": "14",
						"type": "t_mapping(t_address,t_address)"
					},
					{
						"astId": 754,
						"contract": "contracts/Web3BetsFO.sol:Web3BetsFO",
						"label": "blacked",
						"offset": 0,
						"slot": "15",
						"type": "t_mapping(t_address,t_address)"
					},
					{
						"astId": 760,
						"contract": "contracts/Web3BetsFO.sol:Web3BetsFO",
						"label": "_stableCoinWrapper",
						"offset": 0,
						"slot": "16",
						"type": "t_contract(IERC20)77"
					}
				],
				"types": {
					"t_address": {
						"encoding": "inplace",
						"label": "address",
						"numberOfBytes": "20"
					},
					"t_array(t_address)dyn_storage": {
						"base": "t_address",
						"encoding": "dynamic_array",
						"label": "address[]",
						"numberOfBytes": "32"
					},
					"t_contract(IERC20)77": {
						"encoding": "inplace",
						"label": "contract IERC20",
						"numberOfBytes": "20"
					},
					"t_mapping(t_address,t_address)": {
						"encoding": "mapping",
						"key": "t_address",
						"label": "mapping(address => address)",
						"numberOfBytes": "32",
						"value": "t_address"
					},
					"t_uint256": {
						"encoding": "inplace",
						"label": "uint256",
						"numberOfBytes": "32"
					}
				}
			},
			"userdoc": {
				"kind": "user",
				"methods": {},
				"notice": "Contains Web3Bets ecosystem's variables and functions",
				"version": 1
			}
		}
	}
}