{
	"contracts/Market.sol": {
		"Market": {
			"abi": [
				{
					"inputs": [
						{
							"internalType": "string",
							"name": "name_",
							"type": "string"
						},
						{
							"internalType": "address",
							"name": "eventAddress_",
							"type": "address"
						},
						{
							"internalType": "string",
							"name": "sideAName_",
							"type": "string"
						},
						{
							"internalType": "string",
							"name": "sideBName_",
							"type": "string"
						}
					],
					"stateMutability": "nonpayable",
					"type": "constructor"
				},
				{
					"inputs": [
						{
							"internalType": "address",
							"name": "_better",
							"type": "address"
						},
						{
							"internalType": "address",
							"name": "_betAddress",
							"type": "address"
						},
						{
							"internalType": "uint256",
							"name": "_stake",
							"type": "uint256"
						},
						{
							"internalType": "uint8",
							"name": "_odds",
							"type": "uint8"
						},
						{
							"internalType": "string",
							"name": "_side",
							"type": "string"
						}
					],
					"name": "addBet",
					"outputs": [
						{
							"internalType": "bool",
							"name": "",
							"type": "bool"
						}
					],
					"stateMutability": "nonpayable",
					"type": "function"
				},
				{
					"inputs": [],
					"name": "cancelMarket",
					"outputs": [
						{
							"internalType": "bool",
							"name": "",
							"type": "bool"
						}
					],
					"stateMutability": "nonpayable",
					"type": "function"
				},
				{
					"inputs": [],
					"name": "eventAddress",
					"outputs": [
						{
							"internalType": "address",
							"name": "",
							"type": "address"
						}
					],
					"stateMutability": "view",
					"type": "function"
				},
				{
					"inputs": [],
					"name": "getName",
					"outputs": [
						{
							"internalType": "string",
							"name": "",
							"type": "string"
						}
					],
					"stateMutability": "view",
					"type": "function"
				},
				{
					"inputs": [],
					"name": "hasSetWinningSide",
					"outputs": [
						{
							"internalType": "bool",
							"name": "",
							"type": "bool"
						}
					],
					"stateMutability": "view",
					"type": "function"
				},
				{
					"inputs": [],
					"name": "isCanceled",
					"outputs": [
						{
							"internalType": "bool",
							"name": "",
							"type": "bool"
						}
					],
					"stateMutability": "view",
					"type": "function"
				},
				{
					"inputs": [],
					"name": "name",
					"outputs": [
						{
							"internalType": "string",
							"name": "",
							"type": "string"
						}
					],
					"stateMutability": "view",
					"type": "function"
				},
				{
					"inputs": [
						{
							"internalType": "string",
							"name": "_winningSide",
							"type": "string"
						}
					],
					"name": "setWinningSide",
					"outputs": [
						{
							"internalType": "bool",
							"name": "",
							"type": "bool"
						}
					],
					"stateMutability": "nonpayable",
					"type": "function"
				},
				{
					"inputs": [
						{
							"internalType": "address",
							"name": "_pair",
							"type": "address"
						}
					],
					"name": "settlePair",
					"outputs": [
						{
							"internalType": "bool",
							"name": "",
							"type": "bool"
						}
					],
					"stateMutability": "nonpayable",
					"type": "function"
				},
				{
					"inputs": [
						{
							"internalType": "uint256",
							"name": "",
							"type": "uint256"
						}
					],
					"name": "sideABets",
					"outputs": [
						{
							"internalType": "address",
							"name": "betAddress",
							"type": "address"
						},
						{
							"internalType": "uint256",
							"name": "stake",
							"type": "uint256"
						},
						{
							"internalType": "uint8",
							"name": "odds",
							"type": "uint8"
						}
					],
					"stateMutability": "view",
					"type": "function"
				},
				{
					"inputs": [],
					"name": "sideAName",
					"outputs": [
						{
							"internalType": "string",
							"name": "",
							"type": "string"
						}
					],
					"stateMutability": "view",
					"type": "function"
				},
				{
					"inputs": [],
					"name": "sideATotalStake",
					"outputs": [
						{
							"internalType": "uint256",
							"name": "",
							"type": "uint256"
						}
					],
					"stateMutability": "view",
					"type": "function"
				},
				{
					"inputs": [
						{
							"internalType": "address",
							"name": "",
							"type": "address"
						}
					],
					"name": "sideAUsersStakes",
					"outputs": [
						{
							"internalType": "uint256",
							"name": "",
							"type": "uint256"
						}
					],
					"stateMutability": "view",
					"type": "function"
				},
				{
					"inputs": [
						{
							"internalType": "uint256",
							"name": "",
							"type": "uint256"
						}
					],
					"name": "sideBBets",
					"outputs": [
						{
							"internalType": "address",
							"name": "betAddress",
							"type": "address"
						},
						{
							"internalType": "uint256",
							"name": "stake",
							"type": "uint256"
						},
						{
							"internalType": "uint8",
							"name": "odds",
							"type": "uint8"
						}
					],
					"stateMutability": "view",
					"type": "function"
				},
				{
					"inputs": [],
					"name": "sideBName",
					"outputs": [
						{
							"internalType": "string",
							"name": "",
							"type": "string"
						}
					],
					"stateMutability": "view",
					"type": "function"
				},
				{
					"inputs": [],
					"name": "sideBTotalStake",
					"outputs": [
						{
							"internalType": "uint256",
							"name": "",
							"type": "uint256"
						}
					],
					"stateMutability": "view",
					"type": "function"
				},
				{
					"inputs": [
						{
							"internalType": "address",
							"name": "",
							"type": "address"
						}
					],
					"name": "sideBUsersStakes",
					"outputs": [
						{
							"internalType": "uint256",
							"name": "",
							"type": "uint256"
						}
					],
					"stateMutability": "view",
					"type": "function"
				},
				{
					"inputs": [
						{
							"internalType": "string",
							"name": "name_",
							"type": "string"
						},
						{
							"internalType": "string",
							"name": "sideAName_",
							"type": "string"
						},
						{
							"internalType": "string",
							"name": "sideBName_",
							"type": "string"
						}
					],
					"name": "upadteMarket",
					"outputs": [
						{
							"internalType": "bool",
							"name": "",
							"type": "bool"
						}
					],
					"stateMutability": "nonpayable",
					"type": "function"
				},
				{
					"inputs": [],
					"name": "winningSide",
					"outputs": [
						{
							"internalType": "string",
							"name": "",
							"type": "string"
						}
					],
					"stateMutability": "view",
					"type": "function"
				},
				{
					"inputs": [
						{
							"internalType": "address",
							"name": "_bet",
							"type": "address"
						}
					],
					"name": "withdrawPending",
					"outputs": [
						{
							"internalType": "bool",
							"name": "",
							"type": "bool"
						}
					],
					"stateMutability": "nonpayable",
					"type": "function"
				}
			],
			"devdoc": {
				"kind": "dev",
				"methods": {},
				"version": 1
			},
			"evm": {
				"assembly": "    /* \"contracts/Market.sol\":236:10590  contract Market is IMarket {... */\n  0x80\n  0x40\n  dup2\n  swap1\n  mstore\n    /* \"contracts/Market.sol\":490:529  bool public override isCanceled = false */\n  0x04\n  dup1\n  sload\n  not(0xff)\n  and\n  dup2\n  sstore\n    /* \"contracts/Market.sol\":524:529  false */\n  0x00\n    /* \"contracts/Market.sol\":574:617  uint256 public override sideATotalStake = 0 */\n  0x06\n  dup2\n  swap1\n  sstore\n    /* \"contracts/Market.sol\":661:704  uint256 public override sideBTotalStake = 0 */\n  0x08\n  dup2\n  swap1\n  sstore\n    /* \"contracts/Market.sol\":1122:1137  web3betsAddress */\n  sload\n    /* \"contracts/Market.sol\":1079:1138  IWeb3BetsFO private web3bets = IWeb3BetsFO(web3betsAddress) */\n  0x0f\n  dup1\n  sload\n  not(sub(shl(0xa0, 0x01), 0x01))\n  and\n  sub(shl(0xa0, 0x01), 0x01)\n    /* \"contracts/Market.sol\":1122:1137  web3betsAddress */\n  swap1\n  swap3\n  and\n    /* \"contracts/Market.sol\":1079:1138  IWeb3BetsFO private web3bets = IWeb3BetsFO(web3betsAddress) */\n  swap2\n  dup3\n  or\n  swap1\n  sstore\n  shl(0xe0, 0x992642e5)\n    /* \"contracts/Market.sol\":1174:1195  web3bets.stableCoin() */\n  dup4\n  mstore\n    /* \"contracts/Market.sol\":1122:1137  web3betsAddress */\n  swap2\n    /* \"contracts/Market.sol\":1174:1193  web3bets.stableCoin */\n  0x992642e5\n  swap2\n    /* \"contracts/Market.sol\":1174:1195  web3bets.stableCoin() */\n  0x84\n  swap2\n  0x20\n  swap2\n    /* \"contracts/Market.sol\":236:10590  contract Market is IMarket {... */\n  dup2\n    /* \"contracts/Market.sol\":1122:1137  web3betsAddress */\n  dup7\n    /* \"contracts/Market.sol\":1174:1195  web3bets.stableCoin() */\n  dup1\n  extcodesize\n  iszero\n  dup1\n  iszero\n  tag_1\n  jumpi\n  0x00\n  dup1\n  revert\ntag_1:\n  pop\n  gas\n  staticcall\n  iszero\n  dup1\n  iszero\n  tag_3\n  jumpi\n  returndatasize\n  0x00\n  dup1\n  returndatacopy\n  revert(0x00, returndatasize)\ntag_3:\n  pop\n  pop\n  pop\n  pop\n  mload(0x40)\n  returndatasize\n  not(0x1f)\n  0x1f\n  dup3\n  add\n  and\n  dup3\n  add\n  dup1\n  0x40\n  mstore\n  pop\n  dup2\n  add\n  swap1\n  tag_4\n  swap2\n  swap1\n  tag_5\n  jump\t// in\ntag_4:\n    /* \"contracts/Market.sol\":1145:1195  address private stableCoin = web3bets.stableCoin() */\n  0x10\n  dup1\n  sload\n  sub(shl(0xa0, 0x01), 0x01)\n  swap3\n  swap1\n  swap3\n  and\n  not(sub(shl(0xa0, 0x01), 0x01))\n  swap3\n  dup4\n  and\n  dup2\n  or\n  swap1\n  swap2\n  sstore\n    /* \"contracts/Market.sol\":1202:1256  IERC20 private _stableCoinWrapper = IERC20(stableCoin) */\n  0x11\n  dup1\n  sload\n  swap1\n  swap3\n  and\n  or\n  swap1\n  sstore\n    /* \"contracts/Market.sol\":1263:1600  constructor(... */\n  callvalue\n  dup1\n  iszero\n  tag_6\n  jumpi\n  0x00\n  dup1\n  revert\ntag_6:\n  pop\n  mload(0x40)\n  sub(codesize, bytecodeSize)\n  dup1\n  bytecodeSize\n  dup4\n  codecopy\n  dup2\n  add\n  0x40\n  dup2\n  swap1\n  mstore\n  tag_7\n  swap2\n  tag_8\n  jump\t// in\ntag_7:\n    /* \"contracts/Market.sol\":1441:1449  web3bets */\n  0x0f\n  0x00\n  swap1\n  sload\n  swap1\n  0x0100\n  exp\n  swap1\n  div\n  sub(shl(0xa0, 0x01), 0x01)\n  and\n  sub(shl(0xa0, 0x01), 0x01)\n    /* \"contracts/Market.sol\":1441:1457  web3bets.factory */\n  and\n  0xc45a0155\n    /* \"contracts/Market.sol\":1441:1459  web3bets.factory() */\n  mload(0x40)\n  dup2\n  0xffffffff\n  and\n  0xe0\n  shl\n  dup2\n  mstore\n  0x04\n  add\n  0x20\n  mload(0x40)\n  dup1\n  dup4\n  sub\n  dup2\n  dup7\n  dup1\n  extcodesize\n  iszero\n  dup1\n  iszero\n  tag_11\n  jumpi\n  0x00\n  dup1\n  revert\ntag_11:\n  pop\n  gas\n  staticcall\n  iszero\n  dup1\n  iszero\n  tag_13\n  jumpi\n  returndatasize\n  0x00\n  dup1\n  returndatacopy\n  revert(0x00, returndatasize)\ntag_13:\n  pop\n  pop\n  pop\n  pop\n  mload(0x40)\n  returndatasize\n  not(0x1f)\n  0x1f\n  dup3\n  add\n  and\n  dup3\n  add\n  dup1\n  0x40\n  mstore\n  pop\n  dup2\n  add\n  swap1\n  tag_14\n  swap2\n  swap1\n  tag_5\n  jump\t// in\ntag_14:\n  sub(shl(0xa0, 0x01), 0x01)\n    /* \"contracts/Market.sol\":1427:1459  msg.sender == web3bets.factory() */\n  and\n    /* \"contracts/Market.sol\":1427:1437  msg.sender */\n  caller\n  sub(shl(0xa0, 0x01), 0x01)\n    /* \"contracts/Market.sol\":1427:1459  msg.sender == web3bets.factory() */\n  and\n  eq\n    /* \"contracts/Market.sol\":1419:1469  require(msg.sender == web3bets.factory(), \"fty o\") */\n  tag_15\n  jumpi\n  mload(0x40)\n  shl(0xe5, 0x461bcd)\n  dup2\n  mstore\n    /* \"#utility.yul\":2432:2434   */\n  0x20\n    /* \"contracts/Market.sol\":1419:1469  require(msg.sender == web3bets.factory(), \"fty o\") */\n  0x04\n  dup3\n  add\n    /* \"#utility.yul\":2414:2435   */\n  mstore\n    /* \"#utility.yul\":2471:2472   */\n  0x05\n    /* \"#utility.yul\":2451:2469   */\n  0x24\n  dup3\n  add\n    /* \"#utility.yul\":2444:2473   */\n  mstore\n  shl(0xd8, 0x667479206f)\n    /* \"#utility.yul\":2489:2507   */\n  0x44\n  dup3\n  add\n    /* \"#utility.yul\":2482:2517   */\n  mstore\n    /* \"#utility.yul\":2534:2552   */\n  0x64\n  add\n    /* \"contracts/Market.sol\":1419:1469  require(msg.sender == web3bets.factory(), \"fty o\") */\n  mload(0x40)\n  dup1\n  swap2\n  sub\n  swap1\n  revert\ntag_15:\n    /* \"contracts/Market.sol\":1479:1491  name = name_ */\n  dup4\n  mload\n  tag_18\n  swap1\n    /* \"contracts/Market.sol\":1479:1483  name */\n  0x01\n  swap1\n    /* \"contracts/Market.sol\":1479:1491  name = name_ */\n  0x20\n  dup8\n  add\n  swap1\n  tag_19\n  jump\t// in\ntag_18:\n  pop\n    /* \"contracts/Market.sol\":1501:1513  eventAddress */\n  0x02\n    /* \"contracts/Market.sol\":1501:1529  eventAddress = eventAddress_ */\n  dup1\n  sload\n  not(sub(shl(0xa0, 0x01), 0x01))\n  and\n  sub(shl(0xa0, 0x01), 0x01)\n  dup6\n  and\n  or\n  swap1\n  sstore\n    /* \"contracts/Market.sol\":1539:1561  sideAName = sideAName_ */\n  dup2\n  mload\n  tag_20\n  swap1\n    /* \"contracts/Market.sol\":1539:1548  sideAName */\n  0x05\n  swap1\n    /* \"contracts/Market.sol\":1539:1561  sideAName = sideAName_ */\n  0x20\n  dup6\n  add\n  swap1\n  tag_19\n  jump\t// in\ntag_20:\n  pop\n    /* \"contracts/Market.sol\":1571:1593  sideBName = sideBName_ */\n  dup1\n  mload\n  tag_21\n  swap1\n    /* \"contracts/Market.sol\":1571:1580  sideBName */\n  0x07\n  swap1\n    /* \"contracts/Market.sol\":1571:1593  sideBName = sideBName_ */\n  0x20\n  dup5\n  add\n  swap1\n  tag_19\n  jump\t// in\ntag_21:\n  pop\n    /* \"contracts/Market.sol\":1263:1600  constructor(... */\n  pop\n  pop\n  pop\n  pop\n    /* \"contracts/Market.sol\":236:10590  contract Market is IMarket {... */\n  jump(tag_34)\ntag_19:\n  dup3\n  dup1\n  sload\n  tag_23\n  swap1\n  tag_24\n  jump\t// in\ntag_23:\n  swap1\n  0x00\n  mstore\n  keccak256(0x00, 0x20)\n  swap1\n  0x1f\n  add\n  0x20\n  swap1\n  div\n  dup2\n  add\n  swap3\n  dup3\n  tag_26\n  jumpi\n  0x00\n  dup6\n  sstore\n  jump(tag_29)\ntag_26:\n  dup3\n  0x1f\n  lt\n  tag_27\n  jumpi\n  dup1\n  mload\n  not(0xff)\n  and\n  dup4\n  dup1\n  add\n  or\n  dup6\n  sstore\n  jump(tag_29)\ntag_27:\n  dup3\n  dup1\n  add\n  0x01\n  add\n  dup6\n  sstore\n  dup3\n  iszero\n  tag_29\n  jumpi\n  swap2\n  dup3\n  add\ntag_28:\n  dup3\n  dup2\n  gt\n  iszero\n  tag_29\n  jumpi\n  dup3\n  mload\n  dup3\n  sstore\n  swap2\n  0x20\n  add\n  swap2\n  swap1\n  0x01\n  add\n  swap1\n  jump(tag_28)\ntag_29:\n  pop\n  tag_30\n  swap3\n  swap2\n  pop\n  tag_31\n  jump\t// in\ntag_30:\n  pop\n  swap1\n  jump\t// out\ntag_31:\ntag_32:\n  dup1\n  dup3\n  gt\n  iszero\n  tag_30\n  jumpi\n  0x00\n  dup2\n  sstore\n  0x01\n  add\n  jump(tag_32)\n    /* \"#utility.yul\":14:191   */\ntag_35:\n    /* \"#utility.yul\":93:106   */\n  dup1\n  mload\n  sub(shl(0xa0, 0x01), 0x01)\n    /* \"#utility.yul\":135:166   */\n  dup2\n  and\n    /* \"#utility.yul\":125:167   */\n  dup2\n  eq\n    /* \"#utility.yul\":115:117   */\n  tag_37\n  jumpi\n    /* \"#utility.yul\":181:182   */\n  0x00\n    /* \"#utility.yul\":178:179   */\n  dup1\n    /* \"#utility.yul\":171:183   */\n  revert\n    /* \"#utility.yul\":115:117   */\ntag_37:\n    /* \"#utility.yul\":74:191   */\n  swap2\n  swap1\n  pop\n  jump\t// out\n    /* \"#utility.yul\":196:1105   */\ntag_38:\n    /* \"#utility.yul\":250:255   */\n  0x00\n    /* \"#utility.yul\":303:306   */\n  dup3\n    /* \"#utility.yul\":296:300   */\n  0x1f\n    /* \"#utility.yul\":288:294   */\n  dup4\n    /* \"#utility.yul\":284:301   */\n  add\n    /* \"#utility.yul\":280:307   */\n  slt\n    /* \"#utility.yul\":270:272   */\n  tag_40\n  jumpi\n    /* \"#utility.yul\":325:330   */\n  dup1\n    /* \"#utility.yul\":318:323   */\n  dup2\n    /* \"#utility.yul\":311:331   */\n  revert\n    /* \"#utility.yul\":270:272   */\ntag_40:\n    /* \"#utility.yul\":352:365   */\n  dup2\n  mload\n  sub(shl(0x40, 0x01), 0x01)\n    /* \"#utility.yul\":414:424   */\n  dup1\n  dup3\n  gt\n    /* \"#utility.yul\":411:413   */\n  iszero\n  tag_42\n  jumpi\n    /* \"#utility.yul\":427:445   */\n  tag_42\n  tag_43\n  jump\t// in\ntag_42:\n    /* \"#utility.yul\":502:504   */\n  0x40\n    /* \"#utility.yul\":496:505   */\n  mload\n    /* \"#utility.yul\":470:472   */\n  0x1f\n    /* \"#utility.yul\":556:569   */\n  dup4\n  add\n  not(0x1f)\n    /* \"#utility.yul\":552:574   */\n  swap1\n  dup2\n  and\n    /* \"#utility.yul\":576:578   */\n  0x3f\n    /* \"#utility.yul\":548:579   */\n  add\n    /* \"#utility.yul\":544:584   */\n  and\n    /* \"#utility.yul\":532:585   */\n  dup2\n  add\n  swap1\n    /* \"#utility.yul\":600:618   */\n  dup3\n  dup3\n  gt\n    /* \"#utility.yul\":620:642   */\n  dup2\n  dup4\n  lt\n    /* \"#utility.yul\":597:643   */\n  or\n    /* \"#utility.yul\":594:596   */\n  iszero\n  tag_45\n  jumpi\n    /* \"#utility.yul\":646:664   */\n  tag_45\n  tag_43\n  jump\t// in\ntag_45:\n    /* \"#utility.yul\":686:696   */\n  dup2\n    /* \"#utility.yul\":682:684   */\n  0x40\n    /* \"#utility.yul\":675:697   */\n  mstore\n    /* \"#utility.yul\":721:723   */\n  dup4\n    /* \"#utility.yul\":713:719   */\n  dup2\n    /* \"#utility.yul\":706:724   */\n  mstore\n    /* \"#utility.yul\":743:747   */\n  0x20\n    /* \"#utility.yul\":733:747   */\n  swap3\n  pop\n    /* \"#utility.yul\":788:791   */\n  dup7\n    /* \"#utility.yul\":783:785   */\n  dup4\n    /* \"#utility.yul\":778:780   */\n  dup6\n    /* \"#utility.yul\":770:776   */\n  dup9\n    /* \"#utility.yul\":766:781   */\n  add\n    /* \"#utility.yul\":762:786   */\n  add\n    /* \"#utility.yul\":759:792   */\n  gt\n    /* \"#utility.yul\":756:758   */\n  iszero\n  tag_46\n  jumpi\n    /* \"#utility.yul\":809:814   */\n  dup5\n    /* \"#utility.yul\":802:807   */\n  dup6\n    /* \"#utility.yul\":795:815   */\n  revert\n    /* \"#utility.yul\":756:758   */\ntag_46:\n    /* \"#utility.yul\":835:840   */\n  dup5\n    /* \"#utility.yul\":826:840   */\n  swap2\n  pop\n    /* \"#utility.yul\":849:982   */\ntag_47:\n    /* \"#utility.yul\":863:865   */\n  dup4\n    /* \"#utility.yul\":860:861   */\n  dup3\n    /* \"#utility.yul\":857:866   */\n  lt\n    /* \"#utility.yul\":849:982   */\n  iszero\n  tag_49\n  jumpi\n    /* \"#utility.yul\":951:965   */\n  dup6\n  dup3\n  add\n    /* \"#utility.yul\":947:970   */\n  dup4\n  add\n    /* \"#utility.yul\":941:971   */\n  mload\n    /* \"#utility.yul\":920:934   */\n  dup2\n  dup4\n  add\n    /* \"#utility.yul\":916:939   */\n  dup5\n  add\n    /* \"#utility.yul\":909:972   */\n  mstore\n    /* \"#utility.yul\":874:884   */\n  swap1\n  dup3\n  add\n  swap1\n    /* \"#utility.yul\":849:982   */\n  jump(tag_47)\ntag_49:\n    /* \"#utility.yul\":1000:1002   */\n  dup4\n    /* \"#utility.yul\":997:998   */\n  dup3\n    /* \"#utility.yul\":994:1003   */\n  gt\n    /* \"#utility.yul\":991:993   */\n  iszero\n  tag_50\n  jumpi\n    /* \"#utility.yul\":1059:1064   */\n  dup5\n    /* \"#utility.yul\":1054:1056   */\n  dup4\n    /* \"#utility.yul\":1049:1051   */\n  dup6\n    /* \"#utility.yul\":1041:1047   */\n  dup4\n    /* \"#utility.yul\":1037:1052   */\n  add\n    /* \"#utility.yul\":1033:1057   */\n  add\n    /* \"#utility.yul\":1026:1065   */\n  mstore\n    /* \"#utility.yul\":991:993   */\ntag_50:\n    /* \"#utility.yul\":1093:1099   */\n  swap7\n    /* \"#utility.yul\":260:1105   */\n  swap6\n  pop\n  pop\n  pop\n  pop\n  pop\n  pop\n  jump\t// out\n    /* \"#utility.yul\":1110:1328   */\ntag_5:\n    /* \"#utility.yul\":1180:1186   */\n  0x00\n    /* \"#utility.yul\":1233:1235   */\n  0x20\n    /* \"#utility.yul\":1221:1230   */\n  dup3\n    /* \"#utility.yul\":1212:1219   */\n  dup5\n    /* \"#utility.yul\":1208:1231   */\n  sub\n    /* \"#utility.yul\":1204:1236   */\n  slt\n    /* \"#utility.yul\":1201:1203   */\n  iszero\n  tag_52\n  jumpi\n    /* \"#utility.yul\":1254:1260   */\n  dup1\n    /* \"#utility.yul\":1246:1252   */\n  dup2\n    /* \"#utility.yul\":1239:1261   */\n  revert\n    /* \"#utility.yul\":1201:1203   */\ntag_52:\n    /* \"#utility.yul\":1282:1322   */\n  tag_53\n    /* \"#utility.yul\":1312:1321   */\n  dup3\n    /* \"#utility.yul\":1282:1322   */\n  tag_35\n  jump\t// in\ntag_53:\n    /* \"#utility.yul\":1272:1322   */\n  swap4\n    /* \"#utility.yul\":1191:1328   */\n  swap3\n  pop\n  pop\n  pop\n  jump\t// out\n    /* \"#utility.yul\":1333:2225   */\ntag_8:\n    /* \"#utility.yul\":1460:1466   */\n  0x00\n    /* \"#utility.yul\":1468:1474   */\n  dup1\n    /* \"#utility.yul\":1476:1482   */\n  0x00\n    /* \"#utility.yul\":1484:1490   */\n  dup1\n    /* \"#utility.yul\":1537:1540   */\n  0x80\n    /* \"#utility.yul\":1525:1534   */\n  dup6\n    /* \"#utility.yul\":1516:1523   */\n  dup8\n    /* \"#utility.yul\":1512:1535   */\n  sub\n    /* \"#utility.yul\":1508:1541   */\n  slt\n    /* \"#utility.yul\":1505:1507   */\n  iszero\n  tag_55\n  jumpi\n    /* \"#utility.yul\":1559:1565   */\n  dup3\n    /* \"#utility.yul\":1551:1557   */\n  dup4\n    /* \"#utility.yul\":1544:1566   */\n  revert\n    /* \"#utility.yul\":1505:1507   */\ntag_55:\n    /* \"#utility.yul\":1591:1607   */\n  dup5\n  mload\n  sub(shl(0x40, 0x01), 0x01)\n    /* \"#utility.yul\":1656:1670   */\n  dup1\n  dup3\n  gt\n    /* \"#utility.yul\":1653:1655   */\n  iszero\n  tag_56\n  jumpi\n    /* \"#utility.yul\":1688:1694   */\n  dup5\n    /* \"#utility.yul\":1680:1686   */\n  dup6\n    /* \"#utility.yul\":1673:1695   */\n  revert\n    /* \"#utility.yul\":1653:1655   */\ntag_56:\n    /* \"#utility.yul\":1716:1777   */\n  tag_57\n    /* \"#utility.yul\":1769:1776   */\n  dup9\n    /* \"#utility.yul\":1760:1766   */\n  dup4\n    /* \"#utility.yul\":1749:1758   */\n  dup10\n    /* \"#utility.yul\":1745:1767   */\n  add\n    /* \"#utility.yul\":1716:1777   */\n  tag_38\n  jump\t// in\ntag_57:\n    /* \"#utility.yul\":1706:1777   */\n  swap6\n  pop\n    /* \"#utility.yul\":1796:1845   */\n  tag_58\n    /* \"#utility.yul\":1841:1843   */\n  0x20\n    /* \"#utility.yul\":1830:1839   */\n  dup9\n    /* \"#utility.yul\":1826:1844   */\n  add\n    /* \"#utility.yul\":1796:1845   */\n  tag_35\n  jump\t// in\ntag_58:\n    /* \"#utility.yul\":1786:1845   */\n  swap5\n  pop\n    /* \"#utility.yul\":1891:1893   */\n  0x40\n    /* \"#utility.yul\":1880:1889   */\n  dup8\n    /* \"#utility.yul\":1876:1894   */\n  add\n    /* \"#utility.yul\":1870:1895   */\n  mload\n    /* \"#utility.yul\":1854:1895   */\n  swap2\n  pop\n    /* \"#utility.yul\":1920:1922   */\n  dup1\n    /* \"#utility.yul\":1910:1918   */\n  dup3\n    /* \"#utility.yul\":1907:1923   */\n  gt\n    /* \"#utility.yul\":1904:1906   */\n  iszero\n  tag_59\n  jumpi\n    /* \"#utility.yul\":1941:1947   */\n  dup4\n    /* \"#utility.yul\":1933:1939   */\n  dup5\n    /* \"#utility.yul\":1926:1948   */\n  revert\n    /* \"#utility.yul\":1904:1906   */\ntag_59:\n    /* \"#utility.yul\":1969:2032   */\n  tag_60\n    /* \"#utility.yul\":2024:2031   */\n  dup9\n    /* \"#utility.yul\":2013:2021   */\n  dup4\n    /* \"#utility.yul\":2002:2011   */\n  dup10\n    /* \"#utility.yul\":1998:2022   */\n  add\n    /* \"#utility.yul\":1969:2032   */\n  tag_38\n  jump\t// in\ntag_60:\n    /* \"#utility.yul\":1959:2032   */\n  swap4\n  pop\n    /* \"#utility.yul\":2078:2080   */\n  0x60\n    /* \"#utility.yul\":2067:2076   */\n  dup8\n    /* \"#utility.yul\":2063:2081   */\n  add\n    /* \"#utility.yul\":2057:2082   */\n  mload\n    /* \"#utility.yul\":2041:2082   */\n  swap2\n  pop\n    /* \"#utility.yul\":2107:2109   */\n  dup1\n    /* \"#utility.yul\":2097:2105   */\n  dup3\n    /* \"#utility.yul\":2094:2110   */\n  gt\n    /* \"#utility.yul\":2091:2093   */\n  iszero\n  tag_61\n  jumpi\n    /* \"#utility.yul\":2128:2134   */\n  dup3\n    /* \"#utility.yul\":2120:2126   */\n  dup4\n    /* \"#utility.yul\":2113:2135   */\n  revert\n    /* \"#utility.yul\":2091:2093   */\ntag_61:\n  pop\n    /* \"#utility.yul\":2156:2219   */\n  tag_62\n    /* \"#utility.yul\":2211:2218   */\n  dup8\n    /* \"#utility.yul\":2200:2208   */\n  dup3\n    /* \"#utility.yul\":2189:2198   */\n  dup9\n    /* \"#utility.yul\":2185:2209   */\n  add\n    /* \"#utility.yul\":2156:2219   */\n  tag_38\n  jump\t// in\ntag_62:\n    /* \"#utility.yul\":2146:2219   */\n  swap2\n  pop\n  pop\n    /* \"#utility.yul\":1495:2225   */\n  swap3\n  swap6\n  swap2\n  swap5\n  pop\n  swap3\n  pop\n  jump\t// out\n    /* \"#utility.yul\":2563:2943   */\ntag_24:\n    /* \"#utility.yul\":2642:2643   */\n  0x01\n    /* \"#utility.yul\":2638:2650   */\n  dup2\n  dup2\n  shr\n  swap1\n    /* \"#utility.yul\":2685:2697   */\n  dup3\n  and\n  dup1\n    /* \"#utility.yul\":2706:2708   */\n  tag_65\n  jumpi\n    /* \"#utility.yul\":2760:2764   */\n  0x7f\n    /* \"#utility.yul\":2752:2758   */\n  dup3\n    /* \"#utility.yul\":2748:2765   */\n  and\n    /* \"#utility.yul\":2738:2765   */\n  swap2\n  pop\n    /* \"#utility.yul\":2706:2708   */\ntag_65:\n    /* \"#utility.yul\":2813:2815   */\n  0x20\n    /* \"#utility.yul\":2805:2811   */\n  dup3\n    /* \"#utility.yul\":2802:2816   */\n  lt\n    /* \"#utility.yul\":2782:2800   */\n  dup2\n    /* \"#utility.yul\":2779:2817   */\n  eq\n    /* \"#utility.yul\":2776:2778   */\n  iszero\n  tag_66\n  jumpi\n    /* \"#utility.yul\":2859:2869   */\n  0x4e487b71\n    /* \"#utility.yul\":2854:2857   */\n  0xe0\n    /* \"#utility.yul\":2850:2870   */\n  shl\n    /* \"#utility.yul\":2847:2848   */\n  0x00\n    /* \"#utility.yul\":2840:2871   */\n  mstore\n    /* \"#utility.yul\":2894:2898   */\n  0x22\n    /* \"#utility.yul\":2891:2892   */\n  0x04\n    /* \"#utility.yul\":2884:2899   */\n  mstore\n    /* \"#utility.yul\":2922:2926   */\n  0x24\n    /* \"#utility.yul\":2919:2920   */\n  0x00\n    /* \"#utility.yul\":2912:2927   */\n  revert\n    /* \"#utility.yul\":2776:2778   */\ntag_66:\n  pop\n    /* \"#utility.yul\":2618:2943   */\n  swap2\n  swap1\n  pop\n  jump\t// out\n    /* \"#utility.yul\":2948:3075   */\ntag_43:\n    /* \"#utility.yul\":3009:3019   */\n  0x4e487b71\n    /* \"#utility.yul\":3004:3007   */\n  0xe0\n    /* \"#utility.yul\":3000:3020   */\n  shl\n    /* \"#utility.yul\":2997:2998   */\n  0x00\n    /* \"#utility.yul\":2990:3021   */\n  mstore\n    /* \"#utility.yul\":3040:3044   */\n  0x41\n    /* \"#utility.yul\":3037:3038   */\n  0x04\n    /* \"#utility.yul\":3030:3045   */\n  mstore\n    /* \"#utility.yul\":3064:3068   */\n  0x24\n    /* \"#utility.yul\":3061:3062   */\n  0x00\n    /* \"#utility.yul\":3054:3069   */\n  revert\n    /* \"#utility.yul\":2980:3075   */\ntag_34:\n    /* \"contracts/Market.sol\":236:10590  contract Market is IMarket {... */\n  dataSize(sub_0)\n  dup1\n  dataOffset(sub_0)\n  0x00\n  codecopy\n  0x00\n  return\nstop\n\nsub_0: assembly {\n        /* \"contracts/Market.sol\":236:10590  contract Market is IMarket {... */\n      mstore(0x40, 0x80)\n      callvalue\n      dup1\n      iszero\n      tag_1\n      jumpi\n      0x00\n      dup1\n      revert\n    tag_1:\n      pop\n      jumpi(tag_2, lt(calldatasize, 0x04))\n      shr(0xe0, calldataload(0x00))\n      dup1\n      0x8eb1a4ad\n      gt\n      tag_23\n      jumpi\n      dup1\n      0xbd92630c\n      gt\n      tag_24\n      jumpi\n      dup1\n      0xbd92630c\n      eq\n      tag_18\n      jumpi\n      dup1\n      0xd37e2996\n      eq\n      tag_19\n      jumpi\n      dup1\n      0xe7c9a87f\n      eq\n      tag_20\n      jumpi\n      dup1\n      0xfad56779\n      eq\n      tag_21\n      jumpi\n      dup1\n      0xfbf06338\n      eq\n      tag_22\n      jumpi\n      0x00\n      dup1\n      revert\n    tag_24:\n      dup1\n      0x8eb1a4ad\n      eq\n      tag_13\n      jumpi\n      dup1\n      0x948fb24d\n      eq\n      tag_14\n      jumpi\n      dup1\n      0x9bf5b845\n      eq\n      tag_15\n      jumpi\n      dup1\n      0xa355f897\n      eq\n      tag_16\n      jumpi\n      dup1\n      0xb40a4f05\n      eq\n      tag_17\n      jumpi\n      0x00\n      dup1\n      revert\n    tag_23:\n      dup1\n      0x2b4a3527\n      gt\n      tag_25\n      jumpi\n      dup1\n      0x2b4a3527\n      eq\n      tag_8\n      jumpi\n      dup1\n      0x3ab8781c\n      eq\n      tag_9\n      jumpi\n      dup1\n      0x5a358464\n      eq\n      tag_10\n      jumpi\n      dup1\n      0x6bfefd6b\n      eq\n      tag_11\n      jumpi\n      dup1\n      0x83bbe262\n      eq\n      tag_12\n      jumpi\n      0x00\n      dup1\n      revert\n    tag_25:\n      dup1\n      0x03afd56b\n      eq\n      tag_3\n      jumpi\n      dup1\n      0x06fdde03\n      eq\n      tag_4\n      jumpi\n      dup1\n      0x0b469bda\n      eq\n      tag_5\n      jumpi\n      dup1\n      0x0ed5a933\n      eq\n      tag_6\n      jumpi\n      dup1\n      0x17d7de7c\n      eq\n      tag_7\n      jumpi\n    tag_2:\n      0x00\n      dup1\n      revert\n        /* \"contracts/Market.sol\":1607:2001  function withdrawPending(address _bet) external returns(bool){... */\n    tag_3:\n      tag_26\n      tag_27\n      calldatasize\n      0x04\n      tag_28\n      jump\t// in\n    tag_27:\n      tag_29\n      jump\t// in\n    tag_26:\n      mload(0x40)\n        /* \"#utility.yul\":7033:7047   */\n      swap1\n      iszero\n        /* \"#utility.yul\":7026:7048   */\n      iszero\n        /* \"#utility.yul\":7008:7049   */\n      dup2\n      mstore\n        /* \"#utility.yul\":6996:6998   */\n      0x20\n        /* \"#utility.yul\":6981:6999   */\n      add\n        /* \"contracts/Market.sol\":1607:2001  function withdrawPending(address _bet) external returns(bool){... */\n    tag_30:\n      mload(0x40)\n      dup1\n      swap2\n      sub\n      swap1\n      return\n        /* \"contracts/Market.sol\":340:358  string public name */\n    tag_4:\n      tag_32\n      tag_33\n      jump\t// in\n    tag_32:\n      mload(0x40)\n      tag_30\n      swap2\n      swap1\n      tag_35\n      jump\t// in\n        /* \"contracts/Market.sol\":661:704  uint256 public override sideBTotalStake = 0 */\n    tag_5:\n      tag_36\n      sload(0x08)\n      dup2\n      jump\n    tag_36:\n      mload(0x40)\n        /* \"#utility.yul\":10441:10466   */\n      swap1\n      dup2\n      mstore\n        /* \"#utility.yul\":10429:10431   */\n      0x20\n        /* \"#utility.yul\":10414:10432   */\n      add\n        /* \"contracts/Market.sol\":661:704  uint256 public override sideBTotalStake = 0 */\n      tag_30\n        /* \"#utility.yul\":10396:10472   */\n      jump\n        /* \"contracts/Market.sol\":490:529  bool public override isCanceled = false */\n    tag_6:\n      sload(0x04)\n      tag_26\n      swap1\n      0xff\n      and\n      dup2\n      jump\n        /* \"contracts/Market.sol\":10284:10378  function getName() external view override returns (string memory) {... */\n    tag_7:\n      tag_32\n      tag_44\n      jump\t// in\n        /* \"contracts/Market.sol\":2011:3179  function settlePair(address _pair) public override returns(bool) { // only factory... */\n    tag_8:\n      tag_26\n      tag_47\n      calldatasize\n      0x04\n      tag_28\n      jump\t// in\n    tag_47:\n      tag_48\n      jump\t// in\n        /* \"contracts/Market.sol\":964:1015  mapping(address => uint256) public sideAUsersStakes */\n    tag_9:\n      tag_36\n      tag_51\n      calldatasize\n      0x04\n      tag_28\n      jump\t// in\n    tag_51:\n      mstore(0x20, 0x0d)\n      0x00\n      swap1\n      dup2\n      mstore\n      0x40\n      swap1\n      keccak256\n      sload\n      dup2\n      jump\n        /* \"contracts/Market.sol\":1021:1072  mapping(address => uint256) public sideBUsersStakes */\n    tag_10:\n      tag_36\n      tag_55\n      calldatasize\n      0x04\n      tag_28\n      jump\t// in\n    tag_55:\n      mstore(0x20, 0x0e)\n      0x00\n      swap1\n      dup2\n      mstore\n      0x40\n      swap1\n      keccak256\n      sload\n      dup2\n      jump\n        /* \"contracts/Market.sol\":10384:10588  function cancelMarket() external override returns(bool) ... */\n    tag_11:\n      tag_26\n      tag_59\n      jump\t// in\n        /* \"contracts/Market.sol\":3185:3465  function upadteMarket( string memory name_, string memory sideAName_, string memory sideBName_)... */\n    tag_12:\n      tag_26\n      tag_62\n      calldatasize\n      0x04\n      tag_63\n      jump\t// in\n    tag_62:\n      tag_64\n      jump\t// in\n        /* \"contracts/Market.sol\":536:568  string public override sideAName */\n    tag_13:\n      tag_32\n      tag_67\n      jump\t// in\n        /* \"contracts/Market.sol\":811:839  MarketBet[] public sideABets */\n    tag_14:\n      tag_69\n      tag_70\n      calldatasize\n      0x04\n      tag_71\n      jump\t// in\n    tag_70:\n      tag_72\n      jump\t// in\n    tag_69:\n      0x40\n      dup1\n      mload\n      sub(shl(0xa0, 0x01), 0x01)\n        /* \"#utility.yul\":6727:6759   */\n      swap1\n      swap5\n      and\n        /* \"#utility.yul\":6709:6760   */\n      dup5\n      mstore\n        /* \"#utility.yul\":6791:6793   */\n      0x20\n        /* \"#utility.yul\":6776:6794   */\n      dup5\n      add\n        /* \"#utility.yul\":6769:6803   */\n      swap3\n      swap1\n      swap3\n      mstore\n        /* \"#utility.yul\":6851:6855   */\n      0xff\n        /* \"#utility.yul\":6839:6856   */\n      and\n        /* \"#utility.yul\":6819:6837   */\n      swap1\n      dup3\n      add\n        /* \"#utility.yul\":6812:6857   */\n      mstore\n        /* \"#utility.yul\":6697:6699   */\n      0x60\n        /* \"#utility.yul\":6682:6700   */\n      add\n        /* \"contracts/Market.sol\":811:839  MarketBet[] public sideABets */\n      tag_30\n        /* \"#utility.yul\":6664:6863   */\n      jump\n        /* \"contracts/Market.sol\":4017:4745  function addBet(address _better, address _betAddress, uint256 _stake, uint8 _odds, string memory _side)... */\n    tag_15:\n      tag_26\n      tag_76\n      calldatasize\n      0x04\n      tag_77\n      jump\t// in\n    tag_76:\n      tag_78\n      jump\t// in\n        /* \"contracts/Market.sol\":623:655  string public override sideBName */\n    tag_16:\n      tag_32\n      tag_81\n      jump\t// in\n        /* \"contracts/Market.sol\":9816:10098  function setWinningSide(string memory _winningSide)... */\n    tag_17:\n      tag_26\n      tag_84\n      calldatasize\n      0x04\n      tag_85\n      jump\t// in\n    tag_84:\n      tag_86\n      jump\t// in\n        /* \"contracts/Market.sol\":406:444  bool public override hasSetWinningSide */\n    tag_18:\n      sload(0x02)\n      tag_26\n      swap1\n      shl(0xa0, 0x01)\n      swap1\n      div\n      0xff\n      and\n      dup2\n      jump\n        /* \"contracts/Market.sol\":574:617  uint256 public override sideATotalStake = 0 */\n    tag_19:\n      tag_36\n      sload(0x06)\n      dup2\n      jump\n        /* \"contracts/Market.sol\":887:915  MarketBet[] public sideBBets */\n    tag_20:\n      tag_69\n      tag_95\n      calldatasize\n      0x04\n      tag_71\n      jump\t// in\n    tag_95:\n      tag_96\n      jump\t// in\n        /* \"contracts/Market.sol\":364:400  address public override eventAddress */\n    tag_21:\n      sload(0x02)\n      tag_98\n      swap1\n      sub(shl(0xa0, 0x01), 0x01)\n      and\n      dup2\n      jump\n    tag_98:\n      mload(0x40)\n      sub(shl(0xa0, 0x01), 0x01)\n        /* \"#utility.yul\":5655:5687   */\n      swap1\n      swap2\n      and\n        /* \"#utility.yul\":5637:5688   */\n      dup2\n      mstore\n        /* \"#utility.yul\":5625:5627   */\n      0x20\n        /* \"#utility.yul\":5610:5628   */\n      add\n        /* \"contracts/Market.sol\":364:400  address public override eventAddress */\n      tag_30\n        /* \"#utility.yul\":5592:5694   */\n      jump\n        /* \"contracts/Market.sol\":450:484  string public override winningSide */\n    tag_22:\n      tag_32\n      tag_103\n      jump\t// in\n        /* \"contracts/Market.sol\":1607:2001  function withdrawPending(address _bet) external returns(bool){... */\n    tag_29:\n        /* \"contracts/Market.sol\":1700:1708  web3bets */\n      sload(0x0f)\n        /* \"contracts/Market.sol\":1700:1718  web3bets.factory() */\n      0x40\n      dup1\n      mload\n      shl(0xe0, 0xc45a0155)\n      dup2\n      mstore\n      swap1\n      mload\n        /* \"contracts/Market.sol\":1663:1667  bool */\n      0x00\n      swap3\n      sub(shl(0xa0, 0x01), 0x01)\n        /* \"contracts/Market.sol\":1700:1708  web3bets */\n      and\n      swap2\n        /* \"contracts/Market.sol\":1700:1716  web3bets.factory */\n      0xc45a0155\n      swap2\n        /* \"contracts/Market.sol\":1700:1718  web3bets.factory() */\n      0x04\n      dup1\n      dup4\n      add\n      swap3\n      0x20\n      swap3\n      swap2\n      swap1\n      dup3\n      swap1\n      sub\n      add\n      dup2\n        /* \"contracts/Market.sol\":1700:1708  web3bets */\n      dup7\n        /* \"contracts/Market.sol\":1700:1718  web3bets.factory() */\n      dup1\n      extcodesize\n      iszero\n      dup1\n      iszero\n      tag_106\n      jumpi\n      0x00\n      dup1\n      revert\n    tag_106:\n      pop\n      gas\n      staticcall\n      iszero\n      dup1\n      iszero\n      tag_108\n      jumpi\n      returndatasize\n      0x00\n      dup1\n      returndatacopy\n      revert(0x00, returndatasize)\n    tag_108:\n      pop\n      pop\n      pop\n      pop\n      mload(0x40)\n      returndatasize\n      not(0x1f)\n      0x1f\n      dup3\n      add\n      and\n      dup3\n      add\n      dup1\n      0x40\n      mstore\n      pop\n      dup2\n      add\n      swap1\n      tag_109\n      swap2\n      swap1\n      tag_110\n      jump\t// in\n    tag_109:\n      sub(shl(0xa0, 0x01), 0x01)\n        /* \"contracts/Market.sol\":1686:1718  msg.sender == web3bets.factory() */\n      and\n        /* \"contracts/Market.sol\":1686:1696  msg.sender */\n      caller\n      sub(shl(0xa0, 0x01), 0x01)\n        /* \"contracts/Market.sol\":1686:1718  msg.sender == web3bets.factory() */\n      and\n      eq\n        /* \"contracts/Market.sol\":1678:1728  require(msg.sender == web3bets.factory(), \"fty o\") */\n      tag_111\n      jumpi\n      mload(0x40)\n      shl(0xe5, 0x461bcd)\n      dup2\n      mstore\n        /* \"#utility.yul\":8318:8320   */\n      0x20\n        /* \"contracts/Market.sol\":1678:1728  require(msg.sender == web3bets.factory(), \"fty o\") */\n      0x04\n      dup3\n      add\n        /* \"#utility.yul\":8300:8321   */\n      mstore\n        /* \"#utility.yul\":8357:8358   */\n      0x05\n        /* \"#utility.yul\":8337:8355   */\n      0x24\n      dup3\n      add\n        /* \"#utility.yul\":8330:8359   */\n      mstore\n      shl(0xd8, 0x667479206f)\n        /* \"#utility.yul\":8375:8393   */\n      0x44\n      dup3\n      add\n        /* \"#utility.yul\":8368:8403   */\n      mstore\n        /* \"#utility.yul\":8420:8438   */\n      0x64\n      add\n        /* \"contracts/Market.sol\":1678:1728  require(msg.sender == web3bets.factory(), \"fty o\") */\n    tag_112:\n      mload(0x40)\n      dup1\n      swap2\n      sub\n      swap1\n      revert\n    tag_111:\n        /* \"contracts/Market.sol\":1738:1746  IBet bet */\n      0x00\n        /* \"contracts/Market.sol\":1754:1758  _bet */\n      dup3\n        /* \"contracts/Market.sol\":1738:1759  IBet bet = IBet(_bet) */\n      swap1\n      pop\n        /* \"contracts/Market.sol\":1769:1782  uint remStake */\n      0x00\n        /* \"contracts/Market.sol\":1799:1802  bet */\n      dup2\n      sub(shl(0xa0, 0x01), 0x01)\n        /* \"contracts/Market.sol\":1799:1810  bet.matched */\n      and\n      0x8aac9cca\n        /* \"contracts/Market.sol\":1799:1812  bet.matched() */\n      mload(0x40)\n      dup2\n      0xffffffff\n      and\n      0xe0\n      shl\n      dup2\n      mstore\n      0x04\n      add\n      0x20\n      mload(0x40)\n      dup1\n      dup4\n      sub\n      dup2\n      dup7\n      dup1\n      extcodesize\n      iszero\n      dup1\n      iszero\n      tag_114\n      jumpi\n      0x00\n      dup1\n      revert\n    tag_114:\n      pop\n      gas\n      staticcall\n      iszero\n      dup1\n      iszero\n      tag_116\n      jumpi\n      returndatasize\n      0x00\n      dup1\n      returndatacopy\n      revert(0x00, returndatasize)\n    tag_116:\n      pop\n      pop\n      pop\n      pop\n      mload(0x40)\n      returndatasize\n      not(0x1f)\n      0x1f\n      dup3\n      add\n      and\n      dup3\n      add\n      dup1\n      0x40\n      mstore\n      pop\n      dup2\n      add\n      swap1\n      tag_117\n      swap2\n      swap1\n      tag_118\n      jump\t// in\n    tag_117:\n        /* \"contracts/Market.sol\":1785:1788  bet */\n      dup3\n      sub(shl(0xa0, 0x01), 0x01)\n        /* \"contracts/Market.sol\":1785:1794  bet.stake */\n      and\n      0x3a4b66f1\n        /* \"contracts/Market.sol\":1785:1796  bet.stake() */\n      mload(0x40)\n      dup2\n      0xffffffff\n      and\n      0xe0\n      shl\n      dup2\n      mstore\n      0x04\n      add\n      0x20\n      mload(0x40)\n      dup1\n      dup4\n      sub\n      dup2\n      dup7\n      dup1\n      extcodesize\n      iszero\n      dup1\n      iszero\n      tag_119\n      jumpi\n      0x00\n      dup1\n      revert\n    tag_119:\n      pop\n      gas\n      staticcall\n      iszero\n      dup1\n      iszero\n      tag_121\n      jumpi\n      returndatasize\n      0x00\n      dup1\n      returndatacopy\n      revert(0x00, returndatasize)\n    tag_121:\n      pop\n      pop\n      pop\n      pop\n      mload(0x40)\n      returndatasize\n      not(0x1f)\n      0x1f\n      dup3\n      add\n      and\n      dup3\n      add\n      dup1\n      0x40\n      mstore\n      pop\n      dup2\n      add\n      swap1\n      tag_122\n      swap2\n      swap1\n      tag_118\n      jump\t// in\n    tag_122:\n        /* \"contracts/Market.sol\":1785:1812  bet.stake() - bet.matched() */\n      tag_123\n      swap2\n      swap1\n      tag_124\n      jump\t// in\n    tag_123:\n        /* \"contracts/Market.sol\":1769:1812  uint remStake = bet.stake() - bet.matched() */\n      swap1\n      pop\n        /* \"contracts/Market.sol\":1854:1862  remStake */\n      dup1\n        /* \"contracts/Market.sol\":1830:1851  address(this).balance */\n      selfbalance\n        /* \"contracts/Market.sol\":1830:1862  address(this).balance > remStake */\n      gt\n        /* \"contracts/Market.sol\":1822:1873  require(address(this).balance > remStake, \"0 fund\") */\n      tag_125\n      jumpi\n      mload(0x40)\n      shl(0xe5, 0x461bcd)\n      dup2\n      mstore\n        /* \"#utility.yul\":7984:7986   */\n      0x20\n        /* \"contracts/Market.sol\":1822:1873  require(address(this).balance > remStake, \"0 fund\") */\n      0x04\n      dup3\n      add\n        /* \"#utility.yul\":7966:7987   */\n      mstore\n        /* \"#utility.yul\":8023:8024   */\n      0x06\n        /* \"#utility.yul\":8003:8021   */\n      0x24\n      dup3\n      add\n        /* \"#utility.yul\":7996:8025   */\n      mstore\n      shl(0xd2, 0x0c08199d5b99)\n        /* \"#utility.yul\":8041:8059   */\n      0x44\n      dup3\n      add\n        /* \"#utility.yul\":8034:8070   */\n      mstore\n        /* \"#utility.yul\":8087:8105   */\n      0x64\n      add\n        /* \"contracts/Market.sol\":1822:1873  require(address(this).balance > remStake, \"0 fund\") */\n      tag_112\n        /* \"#utility.yul\":7956:8111   */\n      jump\n        /* \"contracts/Market.sol\":1822:1873  require(address(this).balance > remStake, \"0 fund\") */\n    tag_125:\n        /* \"contracts/Market.sol\":1883:1939  _stableCoinWrapper.safeTransfer( bet.better(), remStake) */\n      tag_128\n        /* \"contracts/Market.sol\":1916:1919  bet */\n      dup3\n      sub(shl(0xa0, 0x01), 0x01)\n        /* \"contracts/Market.sol\":1916:1926  bet.better */\n      and\n      0x718c7d44\n        /* \"contracts/Market.sol\":1916:1928  bet.better() */\n      mload(0x40)\n      dup2\n      0xffffffff\n      and\n      0xe0\n      shl\n      dup2\n      mstore\n      0x04\n      add\n      0x20\n      mload(0x40)\n      dup1\n      dup4\n      sub\n      dup2\n      dup7\n      dup1\n      extcodesize\n      iszero\n      dup1\n      iszero\n      tag_129\n      jumpi\n      0x00\n      dup1\n      revert\n    tag_129:\n      pop\n      gas\n      staticcall\n      iszero\n      dup1\n      iszero\n      tag_131\n      jumpi\n      returndatasize\n      0x00\n      dup1\n      returndatacopy\n      revert(0x00, returndatasize)\n    tag_131:\n      pop\n      pop\n      pop\n      pop\n      mload(0x40)\n      returndatasize\n      not(0x1f)\n      0x1f\n      dup3\n      add\n      and\n      dup3\n      add\n      dup1\n      0x40\n      mstore\n      pop\n      dup2\n      add\n      swap1\n      tag_132\n      swap2\n      swap1\n      tag_110\n      jump\t// in\n    tag_132:\n        /* \"contracts/Market.sol\":1883:1901  _stableCoinWrapper */\n      and(sub(shl(0xa0, 0x01), 0x01), sload(0x11))\n      swap1\n        /* \"contracts/Market.sol\":1930:1938  remStake */\n      dup4\n        /* \"contracts/Market.sol\":1883:1914  _stableCoinWrapper.safeTransfer */\n      tag_133\n        /* \"contracts/Market.sol\":1883:1939  _stableCoinWrapper.safeTransfer( bet.better(), remStake) */\n      jump\t// in\n    tag_128:\n        /* \"contracts/Market.sol\":1949:1973  bet.setMatched(remStake) */\n      mload(0x40)\n      shl(0xe1, 0x2d267e03)\n      dup2\n      mstore\n      0x04\n      dup2\n      add\n        /* \"#utility.yul\":10441:10466   */\n      dup3\n      swap1\n      mstore\n      sub(shl(0xa0, 0x01), 0x01)\n        /* \"contracts/Market.sol\":1949:1963  bet.setMatched */\n      dup4\n      and\n      swap1\n      0x5a4cfc06\n      swap1\n        /* \"#utility.yul\":10414:10432   */\n      0x24\n      add\n        /* \"contracts/Market.sol\":1949:1973  bet.setMatched(remStake) */\n      0x20\n      mload(0x40)\n      dup1\n      dup4\n      sub\n      dup2\n      0x00\n      dup8\n      dup1\n      extcodesize\n      iszero\n      dup1\n      iszero\n      tag_135\n      jumpi\n      0x00\n      dup1\n      revert\n    tag_135:\n      pop\n      gas\n      call\n      iszero\n      dup1\n      iszero\n      tag_137\n      jumpi\n      returndatasize\n      0x00\n      dup1\n      returndatacopy\n      revert(0x00, returndatasize)\n    tag_137:\n      pop\n      pop\n      pop\n      pop\n      mload(0x40)\n      returndatasize\n      not(0x1f)\n      0x1f\n      dup3\n      add\n      and\n      dup3\n      add\n      dup1\n      0x40\n      mstore\n      pop\n      dup2\n      add\n      swap1\n      tag_138\n      swap2\n      swap1\n      tag_139\n      jump\t// in\n    tag_138:\n      pop\n        /* \"contracts/Market.sol\":1990:1994  true */\n      0x01\n      swap5\n        /* \"contracts/Market.sol\":1607:2001  function withdrawPending(address _bet) external returns(bool){... */\n      swap4\n      pop\n      pop\n      pop\n      pop\n      jump\t// out\n        /* \"contracts/Market.sol\":340:358  string public name */\n    tag_33:\n      0x01\n      dup1\n      sload\n      tag_140\n      swap1\n      tag_141\n      jump\t// in\n    tag_140:\n      dup1\n      0x1f\n      add\n      0x20\n      dup1\n      swap2\n      div\n      mul\n      0x20\n      add\n      mload(0x40)\n      swap1\n      dup2\n      add\n      0x40\n      mstore\n      dup1\n      swap3\n      swap2\n      swap1\n      dup2\n      dup2\n      mstore\n      0x20\n      add\n      dup3\n      dup1\n      sload\n      tag_142\n      swap1\n      tag_141\n      jump\t// in\n    tag_142:\n      dup1\n      iszero\n      tag_143\n      jumpi\n      dup1\n      0x1f\n      lt\n      tag_144\n      jumpi\n      0x0100\n      dup1\n      dup4\n      sload\n      div\n      mul\n      dup4\n      mstore\n      swap2\n      0x20\n      add\n      swap2\n      jump(tag_143)\n    tag_144:\n      dup3\n      add\n      swap2\n      swap1\n      0x00\n      mstore\n      keccak256(0x00, 0x20)\n      swap1\n    tag_145:\n      dup2\n      sload\n      dup2\n      mstore\n      swap1\n      0x01\n      add\n      swap1\n      0x20\n      add\n      dup1\n      dup4\n      gt\n      tag_145\n      jumpi\n      dup3\n      swap1\n      sub\n      0x1f\n      and\n      dup3\n      add\n      swap2\n    tag_143:\n      pop\n      pop\n      pop\n      pop\n      pop\n      dup2\n      jump\t// out\n        /* \"contracts/Market.sol\":10284:10378  function getName() external view override returns (string memory) {... */\n    tag_44:\n        /* \"contracts/Market.sol\":10335:10348  string memory */\n      0x60\n        /* \"contracts/Market.sol\":10367:10371  name */\n      0x01\n        /* \"contracts/Market.sol\":10360:10371  return name */\n      dup1\n      sload\n      tag_147\n      swap1\n      tag_141\n      jump\t// in\n    tag_147:\n      dup1\n      0x1f\n      add\n      0x20\n      dup1\n      swap2\n      div\n      mul\n      0x20\n      add\n      mload(0x40)\n      swap1\n      dup2\n      add\n      0x40\n      mstore\n      dup1\n      swap3\n      swap2\n      swap1\n      dup2\n      dup2\n      mstore\n      0x20\n      add\n      dup3\n      dup1\n      sload\n      tag_148\n      swap1\n      tag_141\n      jump\t// in\n    tag_148:\n      dup1\n      iszero\n      tag_149\n      jumpi\n      dup1\n      0x1f\n      lt\n      tag_150\n      jumpi\n      0x0100\n      dup1\n      dup4\n      sload\n      div\n      mul\n      dup4\n      mstore\n      swap2\n      0x20\n      add\n      swap2\n      jump(tag_149)\n    tag_150:\n      dup3\n      add\n      swap2\n      swap1\n      0x00\n      mstore\n      keccak256(0x00, 0x20)\n      swap1\n    tag_151:\n      dup2\n      sload\n      dup2\n      mstore\n      swap1\n      0x01\n      add\n      swap1\n      0x20\n      add\n      dup1\n      dup4\n      gt\n      tag_151\n      jumpi\n      dup3\n      swap1\n      sub\n      0x1f\n      and\n      dup3\n      add\n      swap2\n    tag_149:\n      pop\n      pop\n      pop\n      pop\n      pop\n      swap1\n      pop\n        /* \"contracts/Market.sol\":10284:10378  function getName() external view override returns (string memory) {... */\n      swap1\n      jump\t// out\n        /* \"contracts/Market.sol\":2011:3179  function settlePair(address _pair) public override returns(bool) { // only factory... */\n    tag_48:\n        /* \"contracts/Market.sol\":2070:2074  bool */\n      0x00\n        /* \"contracts/Market.sol\":2102:2115  IBetPair pair */\n      dup1\n        /* \"contracts/Market.sol\":2127:2132  _pair */\n      dup3\n        /* \"contracts/Market.sol\":2102:2133  IBetPair pair = IBetPair(_pair) */\n      swap1\n      pop\n        /* \"contracts/Market.sol\":2143:2160  address _pairAddr */\n      0x00\n        /* \"contracts/Market.sol\":2163:2167  pair */\n      dup2\n      sub(shl(0xa0, 0x01), 0x01)\n        /* \"contracts/Market.sol\":2163:2174  pair.market */\n      and\n      0x80f55605\n        /* \"contracts/Market.sol\":2163:2176  pair.market() */\n      mload(0x40)\n      dup2\n      0xffffffff\n      and\n      0xe0\n      shl\n      dup2\n      mstore\n      0x04\n      add\n      0x20\n      mload(0x40)\n      dup1\n      dup4\n      sub\n      dup2\n      dup7\n      dup1\n      extcodesize\n      iszero\n      dup1\n      iszero\n      tag_153\n      jumpi\n      0x00\n      dup1\n      revert\n    tag_153:\n      pop\n      gas\n      staticcall\n      iszero\n      dup1\n      iszero\n      tag_155\n      jumpi\n      returndatasize\n      0x00\n      dup1\n      returndatacopy\n      revert(0x00, returndatasize)\n    tag_155:\n      pop\n      pop\n      pop\n      pop\n      mload(0x40)\n      returndatasize\n      not(0x1f)\n      0x1f\n      dup3\n      add\n      and\n      dup3\n      add\n      dup1\n      0x40\n      mstore\n      pop\n      dup2\n      add\n      swap1\n      tag_156\n      swap2\n      swap1\n      tag_110\n      jump\t// in\n    tag_156:\n        /* \"contracts/Market.sol\":2143:2176  address _pairAddr = pair.market() */\n      swap1\n      pop\n        /* \"contracts/Market.sol\":2186:2203  address _sideABet */\n      0x00\n        /* \"contracts/Market.sol\":2206:2210  pair */\n      dup3\n      sub(shl(0xa0, 0x01), 0x01)\n        /* \"contracts/Market.sol\":2206:2219  pair.sideABet */\n      and\n      0x15e894ab\n        /* \"contracts/Market.sol\":2206:2221  pair.sideABet() */\n      mload(0x40)\n      dup2\n      0xffffffff\n      and\n      0xe0\n      shl\n      dup2\n      mstore\n      0x04\n      add\n      0x20\n      mload(0x40)\n      dup1\n      dup4\n      sub\n      dup2\n      dup7\n      dup1\n      extcodesize\n      iszero\n      dup1\n      iszero\n      tag_157\n      jumpi\n      0x00\n      dup1\n      revert\n    tag_157:\n      pop\n      gas\n      staticcall\n      iszero\n      dup1\n      iszero\n      tag_159\n      jumpi\n      returndatasize\n      0x00\n      dup1\n      returndatacopy\n      revert(0x00, returndatasize)\n    tag_159:\n      pop\n      pop\n      pop\n      pop\n      mload(0x40)\n      returndatasize\n      not(0x1f)\n      0x1f\n      dup3\n      add\n      and\n      dup3\n      add\n      dup1\n      0x40\n      mstore\n      pop\n      dup2\n      add\n      swap1\n      tag_160\n      swap2\n      swap1\n      tag_110\n      jump\t// in\n    tag_160:\n        /* \"contracts/Market.sol\":2186:2221  address _sideABet = pair.sideABet() */\n      swap1\n      pop\n        /* \"contracts/Market.sol\":2231:2248  address _sideBBet */\n      0x00\n        /* \"contracts/Market.sol\":2251:2255  pair */\n      dup4\n      sub(shl(0xa0, 0x01), 0x01)\n        /* \"contracts/Market.sol\":2251:2264  pair.sideBBet */\n      and\n      0x0f765e6d\n        /* \"contracts/Market.sol\":2251:2266  pair.sideBBet() */\n      mload(0x40)\n      dup2\n      0xffffffff\n      and\n      0xe0\n      shl\n      dup2\n      mstore\n      0x04\n      add\n      0x20\n      mload(0x40)\n      dup1\n      dup4\n      sub\n      dup2\n      dup7\n      dup1\n      extcodesize\n      iszero\n      dup1\n      iszero\n      tag_161\n      jumpi\n      0x00\n      dup1\n      revert\n    tag_161:\n      pop\n      gas\n      staticcall\n      iszero\n      dup1\n      iszero\n      tag_163\n      jumpi\n      returndatasize\n      0x00\n      dup1\n      returndatacopy\n      revert(0x00, returndatasize)\n    tag_163:\n      pop\n      pop\n      pop\n      pop\n      mload(0x40)\n      returndatasize\n      not(0x1f)\n      0x1f\n      dup3\n      add\n      and\n      dup3\n      add\n      dup1\n      0x40\n      mstore\n      pop\n      dup2\n      add\n      swap1\n      tag_164\n      swap2\n      swap1\n      tag_110\n      jump\t// in\n    tag_164:\n        /* \"contracts/Market.sol\":2231:2266  address _sideBBet = pair.sideBBet() */\n      swap1\n      pop\n        /* \"contracts/Market.sol\":2276:2289  uint _amountA */\n      0x00\n        /* \"contracts/Market.sol\":2292:2296  pair */\n      dup5\n      sub(shl(0xa0, 0x01), 0x01)\n        /* \"contracts/Market.sol\":2292:2304  pair.amountA */\n      and\n      0x156dcbf0\n        /* \"contracts/Market.sol\":2292:2306  pair.amountA() */\n      mload(0x40)\n      dup2\n      0xffffffff\n      and\n      0xe0\n      shl\n      dup2\n      mstore\n      0x04\n      add\n      0x20\n      mload(0x40)\n      dup1\n      dup4\n      sub\n      dup2\n      dup7\n      dup1\n      extcodesize\n      iszero\n      dup1\n      iszero\n      tag_165\n      jumpi\n      0x00\n      dup1\n      revert\n    tag_165:\n      pop\n      gas\n      staticcall\n      iszero\n      dup1\n      iszero\n      tag_167\n      jumpi\n      returndatasize\n      0x00\n      dup1\n      returndatacopy\n      revert(0x00, returndatasize)\n    tag_167:\n      pop\n      pop\n      pop\n      pop\n      mload(0x40)\n      returndatasize\n      not(0x1f)\n      0x1f\n      dup3\n      add\n      and\n      dup3\n      add\n      dup1\n      0x40\n      mstore\n      pop\n      dup2\n      add\n      swap1\n      tag_168\n      swap2\n      swap1\n      tag_118\n      jump\t// in\n    tag_168:\n        /* \"contracts/Market.sol\":2276:2306  uint _amountA = pair.amountA() */\n      swap1\n      pop\n        /* \"contracts/Market.sol\":2316:2329  uint _amountB */\n      0x00\n        /* \"contracts/Market.sol\":2332:2336  pair */\n      dup6\n      sub(shl(0xa0, 0x01), 0x01)\n        /* \"contracts/Market.sol\":2332:2344  pair.amountB */\n      and\n      0x2efe91ef\n        /* \"contracts/Market.sol\":2332:2346  pair.amountB() */\n      mload(0x40)\n      dup2\n      0xffffffff\n      and\n      0xe0\n      shl\n      dup2\n      mstore\n      0x04\n      add\n      0x20\n      mload(0x40)\n      dup1\n      dup4\n      sub\n      dup2\n      dup7\n      dup1\n      extcodesize\n      iszero\n      dup1\n      iszero\n      tag_169\n      jumpi\n      0x00\n      dup1\n      revert\n    tag_169:\n      pop\n      gas\n      staticcall\n      iszero\n      dup1\n      iszero\n      tag_171\n      jumpi\n      returndatasize\n      0x00\n      dup1\n      returndatacopy\n      revert(0x00, returndatasize)\n    tag_171:\n      pop\n      pop\n      pop\n      pop\n      mload(0x40)\n      returndatasize\n      not(0x1f)\n      0x1f\n      dup3\n      add\n      and\n      dup3\n      add\n      dup1\n      0x40\n      mstore\n      pop\n      dup2\n      add\n      swap1\n      tag_172\n      swap2\n      swap1\n      tag_118\n      jump\t// in\n    tag_172:\n        /* \"contracts/Market.sol\":2316:2346  uint _amountB = pair.amountB() */\n      swap1\n      pop\n        /* \"contracts/Market.sol\":2356:2370  IMarket market */\n      0x00\n        /* \"contracts/Market.sol\":2381:2390  _pairAddr */\n      dup6\n        /* \"contracts/Market.sol\":2356:2391  IMarket market = IMarket(_pairAddr) */\n      swap1\n      pop\n        /* \"contracts/Market.sol\":2409:2415  market */\n      dup1\n      sub(shl(0xa0, 0x01), 0x01)\n        /* \"contracts/Market.sol\":2409:2433  market.hasSetWinningSide */\n      and\n      0xbd92630c\n        /* \"contracts/Market.sol\":2409:2435  market.hasSetWinningSide() */\n      mload(0x40)\n      dup2\n      0xffffffff\n      and\n      0xe0\n      shl\n      dup2\n      mstore\n      0x04\n      add\n      0x20\n      mload(0x40)\n      dup1\n      dup4\n      sub\n      dup2\n      dup7\n      dup1\n      extcodesize\n      iszero\n      dup1\n      iszero\n      tag_173\n      jumpi\n      0x00\n      dup1\n      revert\n    tag_173:\n      pop\n      gas\n      staticcall\n      iszero\n      dup1\n      iszero\n      tag_175\n      jumpi\n      returndatasize\n      0x00\n      dup1\n      returndatacopy\n      revert(0x00, returndatasize)\n    tag_175:\n      pop\n      pop\n      pop\n      pop\n      mload(0x40)\n      returndatasize\n      not(0x1f)\n      0x1f\n      dup3\n      add\n      and\n      dup3\n      add\n      dup1\n      0x40\n      mstore\n      pop\n      dup2\n      add\n      swap1\n      tag_176\n      swap2\n      swap1\n      tag_139\n      jump\t// in\n    tag_176:\n        /* \"contracts/Market.sol\":2401:2449  require(market.hasSetWinningSide(), \"mkt 0 win\") */\n      tag_177\n      jumpi\n      mload(0x40)\n      shl(0xe5, 0x461bcd)\n      dup2\n      mstore\n        /* \"#utility.yul\":9749:9751   */\n      0x20\n        /* \"contracts/Market.sol\":2401:2449  require(market.hasSetWinningSide(), \"mkt 0 win\") */\n      0x04\n      dup3\n      add\n        /* \"#utility.yul\":9731:9752   */\n      mstore\n        /* \"#utility.yul\":9788:9789   */\n      0x09\n        /* \"#utility.yul\":9768:9786   */\n      0x24\n      dup3\n      add\n        /* \"#utility.yul\":9761:9790   */\n      mstore\n      shl(0xb9, 0x36b5ba1018103bb4b7)\n        /* \"#utility.yul\":9806:9824   */\n      0x44\n      dup3\n      add\n        /* \"#utility.yul\":9799:9838   */\n      mstore\n        /* \"#utility.yul\":9855:9873   */\n      0x64\n      add\n        /* \"contracts/Market.sol\":2401:2449  require(market.hasSetWinningSide(), \"mkt 0 win\") */\n      tag_112\n        /* \"#utility.yul\":9721:9879   */\n      jump\n        /* \"contracts/Market.sol\":2401:2449  require(market.hasSetWinningSide(), \"mkt 0 win\") */\n    tag_177:\n        /* \"contracts/Market.sol\":2525:2550  abi.encodePacked(\"sideA\") */\n      mload(0x40)\n      shl(0xd8, 0x7369646541)\n      0x20\n      dup3\n      add\n        /* \"#utility.yul\":5173:5193   */\n      mstore\n        /* \"#utility.yul\":5209:5220   */\n      0x25\n      add\n        /* \"contracts/Market.sol\":2525:2550  abi.encodePacked(\"sideA\") */\n      mload(0x40)\n      0x20\n      dup2\n      dup4\n      sub\n      sub\n      dup2\n      mstore\n      swap1\n      0x40\n      mstore\n        /* \"contracts/Market.sol\":2515:2551  keccak256(abi.encodePacked(\"sideA\")) */\n      dup1\n      mload\n      swap1\n      0x20\n      add\n      keccak256\n        /* \"contracts/Market.sol\":2489:2495  market */\n      dup2\n      sub(shl(0xa0, 0x01), 0x01)\n        /* \"contracts/Market.sol\":2489:2507  market.winningSide */\n      and\n      0xfbf06338\n        /* \"contracts/Market.sol\":2489:2509  market.winningSide() */\n      mload(0x40)\n      dup2\n      0xffffffff\n      and\n      0xe0\n      shl\n      dup2\n      mstore\n      0x04\n      add\n      0x00\n      mload(0x40)\n      dup1\n      dup4\n      sub\n      dup2\n      dup7\n      dup1\n      extcodesize\n      iszero\n      dup1\n      iszero\n      tag_182\n      jumpi\n      0x00\n      dup1\n      revert\n    tag_182:\n      pop\n      gas\n      staticcall\n      iszero\n      dup1\n      iszero\n      tag_184\n      jumpi\n      returndatasize\n      0x00\n      dup1\n      returndatacopy\n      revert(0x00, returndatasize)\n    tag_184:\n      pop\n      pop\n      pop\n      pop\n      mload(0x40)\n      returndatasize\n      0x00\n      dup3\n      returndatacopy\n      0x1f\n      returndatasize\n      swap1\n      dup2\n      add\n      not(0x1f)\n      and\n      dup3\n      add\n      0x40\n      mstore\n      tag_185\n      swap2\n      swap1\n      dup2\n      add\n      swap1\n      tag_186\n      jump\t// in\n    tag_185:\n        /* \"contracts/Market.sol\":2472:2510  abi.encodePacked(market.winningSide()) */\n      add(0x20, mload(0x40))\n      tag_187\n      swap2\n      swap1\n      tag_428\n      jump\t// in\n    tag_187:\n      mload(0x40)\n      0x20\n      dup2\n      dup4\n      sub\n      sub\n      dup2\n      mstore\n      swap1\n      0x40\n      mstore\n        /* \"contracts/Market.sol\":2462:2511  keccak256(abi.encodePacked(market.winningSide())) */\n      dup1\n      mload\n      swap1\n      0x20\n      add\n      keccak256\n        /* \"contracts/Market.sol\":2462:2551  keccak256(abi.encodePacked(market.winningSide())) == keccak256(abi.encodePacked(\"sideA\")) */\n      eq\n        /* \"contracts/Market.sol\":2459:3152  if(keccak256(abi.encodePacked(market.winningSide())) == keccak256(abi.encodePacked(\"sideA\"))){... */\n      iszero\n      tag_189\n      jumpi\n        /* \"contracts/Market.sol\":2566:2594  pair.setWinnerBet(_sideABet) */\n      mload(0x40)\n      shl(0xe0, 0x6d83a71f)\n      dup2\n      mstore\n      sub(shl(0xa0, 0x01), 0x01)\n        /* \"#utility.yul\":5655:5687   */\n      dup7\n      dup2\n      and\n        /* \"contracts/Market.sol\":2566:2594  pair.setWinnerBet(_sideABet) */\n      0x04\n      dup4\n      add\n        /* \"#utility.yul\":5637:5688   */\n      mstore\n        /* \"contracts/Market.sol\":2566:2583  pair.setWinnerBet */\n      dup9\n      and\n      swap1\n      0x6d83a71f\n      swap1\n        /* \"#utility.yul\":5610:5628   */\n      0x24\n      add\n        /* \"contracts/Market.sol\":2566:2594  pair.setWinnerBet(_sideABet) */\n      0x20\n      mload(0x40)\n      dup1\n      dup4\n      sub\n      dup2\n      0x00\n      dup8\n      dup1\n      extcodesize\n      iszero\n      dup1\n      iszero\n      tag_191\n      jumpi\n      0x00\n      dup1\n      revert\n    tag_191:\n      pop\n      gas\n      call\n      iszero\n      dup1\n      iszero\n      tag_193\n      jumpi\n      returndatasize\n      0x00\n      dup1\n      returndatacopy\n      revert(0x00, returndatasize)\n    tag_193:\n      pop\n      pop\n      pop\n      pop\n      mload(0x40)\n      returndatasize\n      not(0x1f)\n      0x1f\n      dup3\n      add\n      and\n      dup3\n      add\n      dup1\n      0x40\n      mstore\n      pop\n      dup2\n      add\n      swap1\n      tag_194\n      swap2\n      swap1\n      tag_139\n      jump\t// in\n    tag_194:\n      pop\n        /* \"contracts/Market.sol\":2609:2684  _stableCoinWrapper.safeTransfer(_sideABet, _amountA + (_amountB * 9 / 10) ) */\n      tag_195\n        /* \"contracts/Market.sol\":2641:2650  _sideABet */\n      dup6\n        /* \"contracts/Market.sol\":2679:2681  10 */\n      0x0a\n        /* \"contracts/Market.sol\":2664:2676  _amountB * 9 */\n      tag_196\n        /* \"contracts/Market.sol\":2664:2672  _amountB */\n      dup6\n        /* \"contracts/Market.sol\":2675:2676  9 */\n      0x09\n        /* \"contracts/Market.sol\":2664:2676  _amountB * 9 */\n      tag_197\n      jump\t// in\n    tag_196:\n        /* \"contracts/Market.sol\":2664:2681  _amountB * 9 / 10 */\n      tag_198\n      swap2\n      swap1\n      tag_199\n      jump\t// in\n    tag_198:\n        /* \"contracts/Market.sol\":2652:2682  _amountA + (_amountB * 9 / 10) */\n      tag_200\n      swap1\n        /* \"contracts/Market.sol\":2652:2660  _amountA */\n      dup7\n        /* \"contracts/Market.sol\":2652:2682  _amountA + (_amountB * 9 / 10) */\n      tag_201\n      jump\t// in\n    tag_200:\n        /* \"contracts/Market.sol\":2609:2627  _stableCoinWrapper */\n      and(sub(shl(0xa0, 0x01), 0x01), sload(0x11))\n      swap2\n        /* \"contracts/Market.sol\":2609:2684  _stableCoinWrapper.safeTransfer(_sideABet, _amountA + (_amountB * 9 / 10) ) */\n      swap1\n        /* \"contracts/Market.sol\":2609:2640  _stableCoinWrapper.safeTransfer */\n      tag_133\n        /* \"contracts/Market.sol\":2609:2684  _stableCoinWrapper.safeTransfer(_sideABet, _amountA + (_amountB * 9 / 10) ) */\n      jump\t// in\n    tag_195:\n        /* \"contracts/Market.sol\":2730:2745  web3betsAddress */\n      sload(0x00)\n        /* \"contracts/Market.sol\":2698:2761  _stableCoinWrapper.safeTransfer(web3betsAddress, _amountB / 10) */\n      tag_202\n      swap1\n      sub(shl(0xa0, 0x01), 0x01)\n        /* \"contracts/Market.sol\":2730:2745  web3betsAddress */\n      and\n        /* \"contracts/Market.sol\":2747:2760  _amountB / 10 */\n      tag_200\n        /* \"contracts/Market.sol\":2758:2760  10 */\n      0x0a\n        /* \"contracts/Market.sol\":2747:2755  _amountB */\n      dup6\n        /* \"contracts/Market.sol\":2747:2760  _amountB / 10 */\n      tag_199\n      jump\t// in\n        /* \"contracts/Market.sol\":2698:2761  _stableCoinWrapper.safeTransfer(web3betsAddress, _amountB / 10) */\n    tag_202:\n        /* \"contracts/Market.sol\":2459:3152  if(keccak256(abi.encodePacked(market.winningSide())) == keccak256(abi.encodePacked(\"sideA\"))){... */\n      jump(tag_224)\n    tag_189:\n        /* \"contracts/Market.sol\":2852:2877  abi.encodePacked(\"sideB\") */\n      mload(0x40)\n      shl(0xd9, 0x39b4b232a1)\n      0x20\n      dup3\n      add\n        /* \"#utility.yul\":5433:5453   */\n      mstore\n        /* \"#utility.yul\":5469:5480   */\n      0x25\n      add\n        /* \"contracts/Market.sol\":2852:2877  abi.encodePacked(\"sideB\") */\n      mload(0x40)\n      0x20\n      dup2\n      dup4\n      sub\n      sub\n      dup2\n      mstore\n      swap1\n      0x40\n      mstore\n        /* \"contracts/Market.sol\":2842:2878  keccak256(abi.encodePacked(\"sideB\")) */\n      dup1\n      mload\n      swap1\n      0x20\n      add\n      keccak256\n        /* \"contracts/Market.sol\":2816:2822  market */\n      dup2\n      sub(shl(0xa0, 0x01), 0x01)\n        /* \"contracts/Market.sol\":2816:2834  market.winningSide */\n      and\n      0xfbf06338\n        /* \"contracts/Market.sol\":2816:2836  market.winningSide() */\n      mload(0x40)\n      dup2\n      0xffffffff\n      and\n      0xe0\n      shl\n      dup2\n      mstore\n      0x04\n      add\n      0x00\n      mload(0x40)\n      dup1\n      dup4\n      sub\n      dup2\n      dup7\n      dup1\n      extcodesize\n      iszero\n      dup1\n      iszero\n      tag_207\n      jumpi\n      0x00\n      dup1\n      revert\n    tag_207:\n      pop\n      gas\n      staticcall\n      iszero\n      dup1\n      iszero\n      tag_209\n      jumpi\n      returndatasize\n      0x00\n      dup1\n      returndatacopy\n      revert(0x00, returndatasize)\n    tag_209:\n      pop\n      pop\n      pop\n      pop\n      mload(0x40)\n      returndatasize\n      0x00\n      dup3\n      returndatacopy\n      0x1f\n      returndatasize\n      swap1\n      dup2\n      add\n      not(0x1f)\n      and\n      dup3\n      add\n      0x40\n      mstore\n      tag_210\n      swap2\n      swap1\n      dup2\n      add\n      swap1\n      tag_186\n      jump\t// in\n    tag_210:\n        /* \"contracts/Market.sol\":2799:2837  abi.encodePacked(market.winningSide()) */\n      add(0x20, mload(0x40))\n      tag_211\n      swap2\n      swap1\n      tag_428\n      jump\t// in\n    tag_211:\n      mload(0x40)\n      0x20\n      dup2\n      dup4\n      sub\n      sub\n      dup2\n      mstore\n      swap1\n      0x40\n      mstore\n        /* \"contracts/Market.sol\":2789:2838  keccak256(abi.encodePacked(market.winningSide())) */\n      dup1\n      mload\n      swap1\n      0x20\n      add\n      keccak256\n        /* \"contracts/Market.sol\":2789:2878  keccak256(abi.encodePacked(market.winningSide())) == keccak256(abi.encodePacked(\"sideB\")) */\n      eq\n        /* \"contracts/Market.sol\":2786:3152  if(keccak256(abi.encodePacked(market.winningSide())) == keccak256(abi.encodePacked(\"sideB\"))){... */\n      iszero\n      tag_212\n      jumpi\n        /* \"contracts/Market.sol\":2893:2921  pair.setWinnerBet(_sideBBet) */\n      mload(0x40)\n      shl(0xe0, 0x6d83a71f)\n      dup2\n      mstore\n      sub(shl(0xa0, 0x01), 0x01)\n        /* \"#utility.yul\":5655:5687   */\n      dup6\n      dup2\n      and\n        /* \"contracts/Market.sol\":2893:2921  pair.setWinnerBet(_sideBBet) */\n      0x04\n      dup4\n      add\n        /* \"#utility.yul\":5637:5688   */\n      mstore\n        /* \"contracts/Market.sol\":2893:2910  pair.setWinnerBet */\n      dup9\n      and\n      swap1\n      0x6d83a71f\n      swap1\n        /* \"#utility.yul\":5610:5628   */\n      0x24\n      add\n        /* \"contracts/Market.sol\":2893:2921  pair.setWinnerBet(_sideBBet) */\n      0x20\n      mload(0x40)\n      dup1\n      dup4\n      sub\n      dup2\n      0x00\n      dup8\n      dup1\n      extcodesize\n      iszero\n      dup1\n      iszero\n      tag_214\n      jumpi\n      0x00\n      dup1\n      revert\n    tag_214:\n      pop\n      gas\n      call\n      iszero\n      dup1\n      iszero\n      tag_216\n      jumpi\n      returndatasize\n      0x00\n      dup1\n      returndatacopy\n      revert(0x00, returndatasize)\n    tag_216:\n      pop\n      pop\n      pop\n      pop\n      mload(0x40)\n      returndatasize\n      not(0x1f)\n      0x1f\n      dup3\n      add\n      and\n      dup3\n      add\n      dup1\n      0x40\n      mstore\n      pop\n      dup2\n      add\n      swap1\n      tag_217\n      swap2\n      swap1\n      tag_139\n      jump\t// in\n    tag_217:\n      pop\n        /* \"contracts/Market.sol\":2936:3011  _stableCoinWrapper.safeTransfer(_sideBBet, _amountB + (_amountA * 9 / 10) ) */\n      tag_218\n        /* \"contracts/Market.sol\":2968:2977  _sideBBet */\n      dup5\n        /* \"contracts/Market.sol\":3006:3008  10 */\n      0x0a\n        /* \"contracts/Market.sol\":2991:3003  _amountA * 9 */\n      tag_219\n        /* \"contracts/Market.sol\":2991:2999  _amountA */\n      dup7\n        /* \"contracts/Market.sol\":3002:3003  9 */\n      0x09\n        /* \"contracts/Market.sol\":2991:3003  _amountA * 9 */\n      tag_197\n      jump\t// in\n    tag_219:\n        /* \"contracts/Market.sol\":2991:3008  _amountA * 9 / 10 */\n      tag_220\n      swap2\n      swap1\n      tag_199\n      jump\t// in\n    tag_220:\n        /* \"contracts/Market.sol\":2979:3009  _amountB + (_amountA * 9 / 10) */\n      tag_200\n      swap1\n        /* \"contracts/Market.sol\":2979:2987  _amountB */\n      dup6\n        /* \"contracts/Market.sol\":2979:3009  _amountB + (_amountA * 9 / 10) */\n      tag_201\n      jump\t// in\n        /* \"contracts/Market.sol\":2936:3011  _stableCoinWrapper.safeTransfer(_sideBBet, _amountB + (_amountA * 9 / 10) ) */\n    tag_218:\n        /* \"contracts/Market.sol\":3057:3072  web3betsAddress */\n      sload(0x00)\n        /* \"contracts/Market.sol\":3025:3088  _stableCoinWrapper.safeTransfer(web3betsAddress, _amountA / 10) */\n      tag_202\n      swap1\n      sub(shl(0xa0, 0x01), 0x01)\n        /* \"contracts/Market.sol\":3057:3072  web3betsAddress */\n      and\n        /* \"contracts/Market.sol\":3074:3087  _amountA / 10 */\n      tag_200\n        /* \"contracts/Market.sol\":3085:3087  10 */\n      0x0a\n        /* \"contracts/Market.sol\":3074:3082  _amountA */\n      dup7\n        /* \"contracts/Market.sol\":3074:3087  _amountA / 10 */\n      tag_199\n      jump\t// in\n        /* \"contracts/Market.sol\":2786:3152  if(keccak256(abi.encodePacked(market.winningSide())) == keccak256(abi.encodePacked(\"sideB\"))){... */\n    tag_212:\n        /* \"contracts/Market.sol\":3126:3141  revert(\"x win\") */\n      mload(0x40)\n      shl(0xe5, 0x461bcd)\n      dup2\n      mstore\n        /* \"#utility.yul\":9058:9060   */\n      0x20\n        /* \"contracts/Market.sol\":3126:3141  revert(\"x win\") */\n      0x04\n      dup3\n      add\n        /* \"#utility.yul\":9040:9061   */\n      mstore\n        /* \"#utility.yul\":9097:9098   */\n      0x05\n        /* \"#utility.yul\":9077:9095   */\n      0x24\n      dup3\n      add\n        /* \"#utility.yul\":9070:9099   */\n      mstore\n      shl(0xd9, 0x3c103bb4b7)\n        /* \"#utility.yul\":9115:9133   */\n      0x44\n      dup3\n      add\n        /* \"#utility.yul\":9108:9143   */\n      mstore\n        /* \"#utility.yul\":9160:9178   */\n      0x64\n      add\n        /* \"contracts/Market.sol\":3126:3141  revert(\"x win\") */\n      tag_112\n        /* \"#utility.yul\":9030:9184   */\n      jump\n        /* \"contracts/Market.sol\":2786:3152  if(keccak256(abi.encodePacked(market.winningSide())) == keccak256(abi.encodePacked(\"sideB\"))){... */\n    tag_224:\n      pop\n        /* \"contracts/Market.sol\":3168:3172  true */\n      0x01\n      swap9\n        /* \"contracts/Market.sol\":2011:3179  function settlePair(address _pair) public override returns(bool) { // only factory... */\n      swap8\n      pop\n      pop\n      pop\n      pop\n      pop\n      pop\n      pop\n      pop\n      jump\t// out\n        /* \"contracts/Market.sol\":10384:10588  function cancelMarket() external override returns(bool) ... */\n    tag_59:\n        /* \"contracts/Market.sol\":10486:10496  isCanceled */\n      sload(0x04)\n        /* \"contracts/Market.sol\":10434:10438  bool */\n      0x00\n      swap1\n        /* \"contracts/Market.sol\":10486:10496  isCanceled */\n      0xff\n      and\n        /* \"contracts/Market.sol\":10482:10534  if (isCanceled) {... */\n      iszero\n      tag_228\n      jumpi\n      pop\n        /* \"contracts/Market.sol\":10519:10523  true */\n      0x01\n      swap1\n        /* \"contracts/Market.sol\":10384:10588  function cancelMarket() external override returns(bool) ... */\n      jump\t// out\n        /* \"contracts/Market.sol\":10482:10534  if (isCanceled) {... */\n    tag_228:\n      pop\n        /* \"contracts/Market.sol\":10543:10553  isCanceled */\n      0x04\n        /* \"contracts/Market.sol\":10543:10560  isCanceled = true */\n      dup1\n      sload\n      not(0xff)\n      and\n        /* \"contracts/Market.sol\":10556:10560  true */\n      0x01\n        /* \"contracts/Market.sol\":10543:10560  isCanceled = true */\n      swap1\n      dup2\n      or\n      swap1\n      swap2\n      sstore\n        /* \"contracts/Market.sol\":10556:10560  true */\n      swap1\n        /* \"contracts/Market.sol\":10384:10588  function cancelMarket() external override returns(bool) ... */\n      jump\t// out\n        /* \"contracts/Market.sol\":3185:3465  function upadteMarket( string memory name_, string memory sideAName_, string memory sideBName_)... */\n    tag_64:\n        /* \"contracts/Market.sol\":3361:3373  name = name_ */\n      dup3\n      mload\n        /* \"contracts/Market.sol\":3323:3327  bool */\n      0x00\n      swap1\n        /* \"contracts/Market.sol\":3361:3373  name = name_ */\n      tag_230\n      swap1\n        /* \"contracts/Market.sol\":3361:3365  name */\n      0x01\n      swap1\n        /* \"contracts/Market.sol\":3361:3373  name = name_ */\n      0x20\n      dup8\n      add\n      swap1\n      tag_231\n      jump\t// in\n    tag_230:\n      pop\n        /* \"contracts/Market.sol\":3383:3405  sideAName = sideAName_ */\n      dup3\n      mload\n      tag_232\n      swap1\n        /* \"contracts/Market.sol\":3383:3392  sideAName */\n      0x05\n      swap1\n        /* \"contracts/Market.sol\":3383:3405  sideAName = sideAName_ */\n      0x20\n      dup7\n      add\n      swap1\n      tag_231\n      jump\t// in\n    tag_232:\n      pop\n        /* \"contracts/Market.sol\":3415:3437  sideBName = sideBName_ */\n      dup2\n      mload\n      tag_233\n      swap1\n        /* \"contracts/Market.sol\":3415:3424  sideBName */\n      0x07\n      swap1\n        /* \"contracts/Market.sol\":3415:3437  sideBName = sideBName_ */\n      0x20\n      dup6\n      add\n      swap1\n      tag_231\n      jump\t// in\n    tag_233:\n      pop\n        /* \"contracts/Market.sol\":3454:3458  true */\n      0x01\n        /* \"contracts/Market.sol\":3447:3458  return true */\n      swap1\n      pop\n        /* \"contracts/Market.sol\":3185:3465  function upadteMarket( string memory name_, string memory sideAName_, string memory sideBName_)... */\n    tag_229:\n      swap4\n      swap3\n      pop\n      pop\n      pop\n      jump\t// out\n        /* \"contracts/Market.sol\":536:568  string public override sideAName */\n    tag_67:\n      0x05\n      dup1\n      sload\n      tag_140\n      swap1\n      tag_141\n      jump\t// in\n        /* \"contracts/Market.sol\":811:839  MarketBet[] public sideABets */\n    tag_72:\n      0x09\n      dup2\n      dup2\n      sload\n      dup2\n      lt\n      tag_239\n      jumpi\n      0x00\n      dup1\n      revert\n    tag_239:\n      0x00\n      swap2\n      dup3\n      mstore\n      0x20\n      swap1\n      swap2\n      keccak256\n      0x03\n      swap1\n      swap2\n      mul\n      add\n      dup1\n      sload\n      0x01\n      dup3\n      add\n      sload\n      0x02\n      swap1\n      swap3\n      add\n      sload\n      sub(shl(0xa0, 0x01), 0x01)\n      swap1\n      swap2\n      and\n      swap3\n      pop\n      0xff\n      and\n      dup4\n      jump\t// out\n        /* \"contracts/Market.sol\":4017:4745  function addBet(address _better, address _betAddress, uint256 _stake, uint8 _odds, string memory _side)... */\n    tag_78:\n        /* \"contracts/Market.sol\":4200:4208  web3bets */\n      sload(0x0f)\n        /* \"contracts/Market.sol\":4200:4218  web3bets.factory() */\n      0x40\n      dup1\n      mload\n      shl(0xe0, 0xc45a0155)\n      dup2\n      mstore\n      swap1\n      mload\n        /* \"contracts/Market.sol\":4155:4159  bool */\n      0x00\n      swap3\n      sub(shl(0xa0, 0x01), 0x01)\n        /* \"contracts/Market.sol\":4200:4208  web3bets */\n      and\n      swap2\n        /* \"contracts/Market.sol\":4200:4216  web3bets.factory */\n      0xc45a0155\n      swap2\n        /* \"contracts/Market.sol\":4200:4218  web3bets.factory() */\n      0x04\n      dup1\n      dup4\n      add\n      swap3\n      0x20\n      swap3\n      swap2\n      swap1\n      dup3\n      swap1\n      sub\n      add\n      dup2\n        /* \"contracts/Market.sol\":4200:4208  web3bets */\n      dup7\n        /* \"contracts/Market.sol\":4200:4218  web3bets.factory() */\n      dup1\n      extcodesize\n      iszero\n      dup1\n      iszero\n      tag_242\n      jumpi\n      0x00\n      dup1\n      revert\n    tag_242:\n      pop\n      gas\n      staticcall\n      iszero\n      dup1\n      iszero\n      tag_244\n      jumpi\n      returndatasize\n      0x00\n      dup1\n      returndatacopy\n      revert(0x00, returndatasize)\n    tag_244:\n      pop\n      pop\n      pop\n      pop\n      mload(0x40)\n      returndatasize\n      not(0x1f)\n      0x1f\n      dup3\n      add\n      and\n      dup3\n      add\n      dup1\n      0x40\n      mstore\n      pop\n      dup2\n      add\n      swap1\n      tag_245\n      swap2\n      swap1\n      tag_110\n      jump\t// in\n    tag_245:\n      sub(shl(0xa0, 0x01), 0x01)\n        /* \"contracts/Market.sol\":4186:4218  msg.sender == web3bets.factory() */\n      and\n        /* \"contracts/Market.sol\":4186:4196  msg.sender */\n      caller\n      sub(shl(0xa0, 0x01), 0x01)\n        /* \"contracts/Market.sol\":4186:4218  msg.sender == web3bets.factory() */\n      and\n      eq\n        /* \"contracts/Market.sol\":4178:4228  require(msg.sender == web3bets.factory(), \"fty o\") */\n      tag_246\n      jumpi\n      mload(0x40)\n      shl(0xe5, 0x461bcd)\n      dup2\n      mstore\n        /* \"#utility.yul\":8318:8320   */\n      0x20\n        /* \"contracts/Market.sol\":4178:4228  require(msg.sender == web3bets.factory(), \"fty o\") */\n      0x04\n      dup3\n      add\n        /* \"#utility.yul\":8300:8321   */\n      mstore\n        /* \"#utility.yul\":8357:8358   */\n      0x05\n        /* \"#utility.yul\":8337:8355   */\n      0x24\n      dup3\n      add\n        /* \"#utility.yul\":8330:8359   */\n      mstore\n      shl(0xd8, 0x667479206f)\n        /* \"#utility.yul\":8375:8393   */\n      0x44\n      dup3\n      add\n        /* \"#utility.yul\":8368:8403   */\n      mstore\n        /* \"#utility.yul\":8420:8438   */\n      0x64\n      add\n        /* \"contracts/Market.sol\":4178:4228  require(msg.sender == web3bets.factory(), \"fty o\") */\n      tag_112\n        /* \"#utility.yul\":8290:8444   */\n      jump\n        /* \"contracts/Market.sol\":4178:4228  require(msg.sender == web3bets.factory(), \"fty o\") */\n    tag_246:\n        /* \"contracts/Market.sol\":4343:4368  abi.encodePacked(\"sideA\") */\n      mload(0x40)\n      shl(0xd8, 0x7369646541)\n      0x20\n      dup3\n      add\n        /* \"#utility.yul\":5173:5193   */\n      mstore\n        /* \"#utility.yul\":5209:5220   */\n      0x25\n      add\n        /* \"contracts/Market.sol\":4343:4368  abi.encodePacked(\"sideA\") */\n      mload(0x40)\n      0x20\n      dup2\n      dup4\n      sub\n      sub\n      dup2\n      mstore\n      swap1\n      0x40\n      mstore\n        /* \"contracts/Market.sol\":4333:4369  keccak256(abi.encodePacked(\"sideA\")) */\n      dup1\n      mload\n      swap1\n      0x20\n      add\n      keccak256\n        /* \"contracts/Market.sol\":4322:4327  _side */\n      dup3\n        /* \"contracts/Market.sol\":4305:4328  abi.encodePacked(_side) */\n      add(0x20, mload(0x40))\n      tag_249\n      swap2\n      swap1\n      tag_428\n      jump\t// in\n    tag_249:\n      mload(0x40)\n      0x20\n      dup2\n      dup4\n      sub\n      sub\n      dup2\n      mstore\n      swap1\n      0x40\n      mstore\n        /* \"contracts/Market.sol\":4295:4329  keccak256(abi.encodePacked(_side)) */\n      dup1\n      mload\n      swap1\n      0x20\n      add\n      keccak256\n        /* \"contracts/Market.sol\":4295:4369  keccak256(abi.encodePacked(_side)) == keccak256(abi.encodePacked(\"sideA\")) */\n      eq\n        /* \"contracts/Market.sol\":4292:4718  if(keccak256(abi.encodePacked(_side)) == keccak256(abi.encodePacked(\"sideA\"))){... */\n      iszero\n      tag_250\n      jumpi\n        /* \"contracts/Market.sol\":4384:4432  _addToSideA(_better, _betAddress, _stake, _odds) */\n      tag_251\n        /* \"contracts/Market.sol\":4396:4403  _better */\n      dup7\n        /* \"contracts/Market.sol\":4405:4416  _betAddress */\n      dup7\n        /* \"contracts/Market.sol\":4418:4424  _stake */\n      dup7\n        /* \"contracts/Market.sol\":4426:4431  _odds */\n      dup7\n        /* \"contracts/Market.sol\":4384:4395  _addToSideA */\n      tag_252\n        /* \"contracts/Market.sol\":4384:4432  _addToSideA(_better, _betAddress, _stake, _odds) */\n      jump\t// in\n    tag_251:\n        /* \"contracts/Market.sol\":4446:4486  _matchSideABet(_betAddress,_stake,_odds) */\n      tag_253\n        /* \"contracts/Market.sol\":4461:4472  _betAddress */\n      dup6\n        /* \"contracts/Market.sol\":4473:4479  _stake */\n      dup6\n        /* \"contracts/Market.sol\":4480:4485  _odds */\n      dup6\n        /* \"contracts/Market.sol\":4446:4460  _matchSideABet */\n      tag_254\n        /* \"contracts/Market.sol\":4446:4486  _matchSideABet(_betAddress,_stake,_odds) */\n      jump\t// in\n    tag_253:\n        /* \"contracts/Market.sol\":4292:4718  if(keccak256(abi.encodePacked(_side)) == keccak256(abi.encodePacked(\"sideA\"))){... */\n      jump(tag_261)\n    tag_250:\n        /* \"contracts/Market.sol\":4563:4588  abi.encodePacked(\"sideB\") */\n      mload(0x40)\n      shl(0xd9, 0x39b4b232a1)\n      0x20\n      dup3\n      add\n        /* \"#utility.yul\":5433:5453   */\n      mstore\n        /* \"#utility.yul\":5469:5480   */\n      0x25\n      add\n        /* \"contracts/Market.sol\":4563:4588  abi.encodePacked(\"sideB\") */\n      mload(0x40)\n      0x20\n      dup2\n      dup4\n      sub\n      sub\n      dup2\n      mstore\n      swap1\n      0x40\n      mstore\n        /* \"contracts/Market.sol\":4553:4589  keccak256(abi.encodePacked(\"sideB\")) */\n      dup1\n      mload\n      swap1\n      0x20\n      add\n      keccak256\n        /* \"contracts/Market.sol\":4542:4547  _side */\n      dup3\n        /* \"contracts/Market.sol\":4525:4548  abi.encodePacked(_side) */\n      add(0x20, mload(0x40))\n      tag_257\n      swap2\n      swap1\n      tag_428\n      jump\t// in\n    tag_257:\n      mload(0x40)\n      0x20\n      dup2\n      dup4\n      sub\n      sub\n      dup2\n      mstore\n      swap1\n      0x40\n      mstore\n        /* \"contracts/Market.sol\":4515:4549  keccak256(abi.encodePacked(_side)) */\n      dup1\n      mload\n      swap1\n      0x20\n      add\n      keccak256\n        /* \"contracts/Market.sol\":4515:4589  keccak256(abi.encodePacked(_side)) == keccak256(abi.encodePacked(\"sideB\")) */\n      eq\n        /* \"contracts/Market.sol\":4511:4718  if (keccak256(abi.encodePacked(_side)) == keccak256(abi.encodePacked(\"sideB\"))) {... */\n      iszero\n      tag_261\n      jumpi\n        /* \"contracts/Market.sol\":4605:4653  _addToSideB(_better, _betAddress, _stake, _odds) */\n      tag_259\n        /* \"contracts/Market.sol\":4617:4624  _better */\n      dup7\n        /* \"contracts/Market.sol\":4626:4637  _betAddress */\n      dup7\n        /* \"contracts/Market.sol\":4639:4645  _stake */\n      dup7\n        /* \"contracts/Market.sol\":4647:4652  _odds */\n      dup7\n        /* \"contracts/Market.sol\":4605:4616  _addToSideB */\n      tag_260\n        /* \"contracts/Market.sol\":4605:4653  _addToSideB(_better, _betAddress, _stake, _odds) */\n      jump\t// in\n    tag_259:\n        /* \"contracts/Market.sol\":4667:4707  _matchSideBBet(_betAddress,_stake,_odds) */\n      tag_261\n        /* \"contracts/Market.sol\":4682:4693  _betAddress */\n      dup6\n        /* \"contracts/Market.sol\":4694:4700  _stake */\n      dup6\n        /* \"contracts/Market.sol\":4701:4706  _odds */\n      dup6\n        /* \"contracts/Market.sol\":4667:4681  _matchSideBBet */\n      tag_262\n        /* \"contracts/Market.sol\":4667:4707  _matchSideBBet(_betAddress,_stake,_odds) */\n      jump\t// in\n    tag_261:\n      pop\n        /* \"contracts/Market.sol\":4734:4738  true */\n      0x01\n        /* \"contracts/Market.sol\":4017:4745  function addBet(address _better, address _betAddress, uint256 _stake, uint8 _odds, string memory _side)... */\n      swap6\n      swap5\n      pop\n      pop\n      pop\n      pop\n      pop\n      jump\t// out\n        /* \"contracts/Market.sol\":623:655  string public override sideBName */\n    tag_81:\n      0x07\n      dup1\n      sload\n      tag_140\n      swap1\n      tag_141\n      jump\t// in\n        /* \"contracts/Market.sol\":9816:10098  function setWinningSide(string memory _winningSide)... */\n    tag_86:\n        /* \"contracts/Market.sol\":9964:9981  hasSetWinningSide */\n      sload(0x02)\n        /* \"contracts/Market.sol\":9918:9922  bool */\n      0x00\n      swap1\n      shl(0xa0, 0x01)\n        /* \"contracts/Market.sol\":9964:9981  hasSetWinningSide */\n      swap1\n      div\n      0xff\n      and\n        /* \"contracts/Market.sol\":9964:9989  hasSetWinningSide != true */\n      iszero\n      iszero\n        /* \"contracts/Market.sol\":9985:9989  true */\n      0x01\n        /* \"contracts/Market.sol\":9964:9989  hasSetWinningSide != true */\n      eq\n      iszero\n        /* \"contracts/Market.sol\":9955:10000  require (hasSetWinningSide != true, \"!x win\") */\n      tag_269\n      jumpi\n      mload(0x40)\n      shl(0xe5, 0x461bcd)\n      dup2\n      mstore\n        /* \"#utility.yul\":7650:7652   */\n      0x20\n        /* \"contracts/Market.sol\":9955:10000  require (hasSetWinningSide != true, \"!x win\") */\n      0x04\n      dup3\n      add\n        /* \"#utility.yul\":7632:7653   */\n      mstore\n        /* \"#utility.yul\":7689:7690   */\n      0x06\n        /* \"#utility.yul\":7669:7687   */\n      0x24\n      dup3\n      add\n        /* \"#utility.yul\":7662:7691   */\n      mstore\n      shl(0xd1, 0x10bc103bb4b7)\n        /* \"#utility.yul\":7707:7725   */\n      0x44\n      dup3\n      add\n        /* \"#utility.yul\":7700:7736   */\n      mstore\n        /* \"#utility.yul\":7753:7771   */\n      0x64\n      add\n        /* \"contracts/Market.sol\":9955:10000  require (hasSetWinningSide != true, \"!x win\") */\n      tag_112\n        /* \"#utility.yul\":7622:7777   */\n      jump\n        /* \"contracts/Market.sol\":9955:10000  require (hasSetWinningSide != true, \"!x win\") */\n    tag_269:\n        /* \"contracts/Market.sol\":10010:10036  winningSide = _winningSide */\n      dup2\n      mload\n      tag_272\n      swap1\n        /* \"contracts/Market.sol\":10010:10021  winningSide */\n      0x03\n      swap1\n        /* \"contracts/Market.sol\":10010:10036  winningSide = _winningSide */\n      0x20\n      dup6\n      add\n      swap1\n      tag_231\n      jump\t// in\n    tag_272:\n      pop\n      pop\n        /* \"contracts/Market.sol\":10046:10063  hasSetWinningSide */\n      0x02\n        /* \"contracts/Market.sol\":10046:10070  hasSetWinningSide = true */\n      dup1\n      sload\n      not(shl(0xa0, 0xff))\n      and\n      shl(0xa0, 0x01)\n      or\n      swap1\n      sstore\n      pop\n        /* \"contracts/Market.sol\":10066:10070  true */\n      0x01\n      swap1\n        /* \"contracts/Market.sol\":9816:10098  function setWinningSide(string memory _winningSide)... */\n      jump\t// out\n        /* \"contracts/Market.sol\":887:915  MarketBet[] public sideBBets */\n    tag_96:\n      0x0b\n      dup2\n      dup2\n      sload\n      dup2\n      lt\n      tag_239\n      jumpi\n      0x00\n      dup1\n      revert\n        /* \"contracts/Market.sol\":450:484  string public override winningSide */\n    tag_103:\n      0x03\n      dup1\n      sload\n      tag_140\n      swap1\n      tag_141\n      jump\t// in\n        /* \"@openzeppelin/contracts/token/ERC20/utils/SafeERC20.sol\":763:968  function safeTransfer(... */\n    tag_133:\n        /* \"@openzeppelin/contracts/token/ERC20/utils/SafeERC20.sol\":902:960  abi.encodeWithSelector(token.transfer.selector, to, value) */\n      0x40\n      dup1\n      mload\n      sub(shl(0xa0, 0x01), 0x01)\n        /* \"#utility.yul\":6424:6456   */\n      dup5\n      and\n        /* \"@openzeppelin/contracts/token/ERC20/utils/SafeERC20.sol\":902:960  abi.encodeWithSelector(token.transfer.selector, to, value) */\n      0x24\n      dup3\n      add\n        /* \"#utility.yul\":6406:6457   */\n      mstore\n        /* \"#utility.yul\":6473:6491   */\n      0x44\n      dup1\n      dup3\n      add\n        /* \"#utility.yul\":6466:6500   */\n      dup5\n      swap1\n      mstore\n        /* \"@openzeppelin/contracts/token/ERC20/utils/SafeERC20.sol\":902:960  abi.encodeWithSelector(token.transfer.selector, to, value) */\n      dup3\n      mload\n      dup1\n      dup4\n      sub\n      swap1\n      swap2\n      add\n      dup2\n      mstore\n        /* \"#utility.yul\":6379:6397   */\n      0x64\n      swap1\n      swap2\n      add\n        /* \"@openzeppelin/contracts/token/ERC20/utils/SafeERC20.sol\":902:960  abi.encodeWithSelector(token.transfer.selector, to, value) */\n      swap1\n      swap2\n      mstore\n      0x20\n      dup2\n      add\n      dup1\n      mload\n      sub(shl(0xe0, 0x01), 0x01)\n      and\n      shl(0xe0, 0xa9059cbb)\n      or\n      swap1\n      mstore\n        /* \"@openzeppelin/contracts/token/ERC20/utils/SafeERC20.sol\":875:961  _callOptionalReturn(token, abi.encodeWithSelector(token.transfer.selector, to, value)) */\n      tag_281\n      swap1\n        /* \"@openzeppelin/contracts/token/ERC20/utils/SafeERC20.sol\":895:900  token */\n      dup5\n      swap1\n        /* \"@openzeppelin/contracts/token/ERC20/utils/SafeERC20.sol\":875:894  _callOptionalReturn */\n      tag_284\n        /* \"@openzeppelin/contracts/token/ERC20/utils/SafeERC20.sol\":875:961  _callOptionalReturn(token, abi.encodeWithSelector(token.transfer.selector, to, value)) */\n      jump\t// in\n    tag_281:\n        /* \"@openzeppelin/contracts/token/ERC20/utils/SafeERC20.sol\":763:968  function safeTransfer(... */\n      pop\n      pop\n      pop\n      jump\t// out\n        /* \"contracts/Market.sol\":4751:5053  function _addToSideA(address _better, address _betAddress, uint256 _stake, uint8 _odds)... */\n    tag_252:\n        /* \"contracts/Market.sol\":4889:4895  _stake */\n      dup2\n        /* \"contracts/Market.sol\":4870:4885  sideATotalStake */\n      0x06\n      0x00\n        /* \"contracts/Market.sol\":4870:4895  sideATotalStake += _stake */\n      dup3\n      dup3\n      sload\n      tag_286\n      swap2\n      swap1\n      tag_201\n      jump\t// in\n    tag_286:\n      swap1\n      swap2\n      sstore\n      pop\n      pop\n        /* \"contracts/Market.sol\":4920:4984  MarketBet({betAddress: _betAddress, stake: _stake, odds: _odds}) */\n      0x40\n      dup1\n      mload\n      0x60\n      dup2\n      add\n      dup3\n      mstore\n      sub(shl(0xa0, 0x01), 0x01)\n      dup6\n      dup2\n      and\n      dup3\n      mstore\n      0x20\n      dup1\n      dup4\n      add\n      dup7\n      dup2\n      mstore\n      0xff\n      dup7\n      dup2\n      and\n      dup6\n      dup8\n      add\n      swap1\n      dup2\n      mstore\n        /* \"contracts/Market.sol\":4905:4914  sideABets */\n      0x09\n        /* \"contracts/Market.sol\":4905:4985  sideABets.push(MarketBet({betAddress: _betAddress, stake: _stake, odds: _odds})) */\n      dup1\n      sload\n      0x01\n      dup2\n      add\n      dup3\n      sstore\n      0x00\n      swap2\n      dup3\n      mstore\n      swap7\n      mload\n      0x6e1540171b6c0c960b71a7020d9f60077f6af931a8bbf590da0223dacf75c7af\n      0x03\n      swap1\n      swap9\n      mul\n      swap8\n      dup9\n      add\n      dup1\n      sload\n      not(sub(shl(0xa0, 0x01), 0x01))\n      and\n      swap2\n      dup9\n      and\n      swap2\n      swap1\n      swap2\n      or\n      swap1\n      sstore\n      swap3\n      mload\n      0x6e1540171b6c0c960b71a7020d9f60077f6af931a8bbf590da0223dacf75c7b0\n      dup8\n      add\n      sstore\n      mload\n      0x6e1540171b6c0c960b71a7020d9f60077f6af931a8bbf590da0223dacf75c7b1\n      swap1\n      swap6\n      add\n      dup1\n      sload\n      not(0xff)\n      and\n      swap6\n      swap1\n      swap2\n      and\n      swap5\n      swap1\n      swap5\n      or\n      swap1\n      swap4\n      sstore\n        /* \"contracts/Market.sol\":4995:5020  sideAUsersStakes[_better] */\n      swap1\n      dup8\n      and\n      dup3\n      mstore\n        /* \"contracts/Market.sol\":4995:5011  sideAUsersStakes */\n      0x0d\n        /* \"contracts/Market.sol\":4995:5020  sideAUsersStakes[_better] */\n      swap1\n      mstore\n      swap1\n      dup2\n      keccak256\n        /* \"contracts/Market.sol\":4995:5030  sideAUsersStakes[_better] += _stake */\n      dup1\n      sload\n        /* \"contracts/Market.sol\":4920:4984  MarketBet({betAddress: _betAddress, stake: _stake, odds: _odds}) */\n      dup5\n      swap3\n      swap1\n        /* \"contracts/Market.sol\":4995:5030  sideAUsersStakes[_better] += _stake */\n      tag_288\n      swap1\n        /* \"contracts/Market.sol\":4920:4984  MarketBet({betAddress: _betAddress, stake: _stake, odds: _odds}) */\n      dup5\n      swap1\n        /* \"contracts/Market.sol\":4995:5030  sideAUsersStakes[_better] += _stake */\n      tag_201\n      jump\t// in\n    tag_288:\n      swap1\n      swap2\n      sstore\n      pop\n      pop\n        /* \"contracts/Market.sol\":4751:5053  function _addToSideA(address _better, address _betAddress, uint256 _stake, uint8 _odds)... */\n    tag_285:\n      pop\n      pop\n      pop\n      pop\n      jump\t// out\n        /* \"contracts/Market.sol\":5367:7565  function _matchSideABet(address _betAddress, uint256 _stake, uint8 _odds)... */\n    tag_254:\n        /* \"contracts/Market.sol\":5488:5504  sideBBetsPending */\n      0x0c\n        /* \"contracts/Market.sol\":5488:5511  sideBBetsPending.length */\n      sload\n        /* \"contracts/Market.sol\":5524:5536  betCount > 0 */\n      dup1\n      iszero\n        /* \"contracts/Market.sol\":5521:7543  if(betCount > 0){... */\n      tag_290\n      jumpi\n        /* \"contracts/Market.sol\":5568:5574  _stake */\n      dup3\n        /* \"contracts/Market.sol\":5588:7407  while(_remStake >= 1 * 10 ** 18){... */\n    tag_291:\n        /* \"contracts/Market.sol\":5607:5619  1 * 10 ** 18 */\n      0x0de0b6b3a7640000\n        /* \"contracts/Market.sol\":5594:5603  _remStake */\n      dup2\n        /* \"contracts/Market.sol\":5594:5619  _remStake >= 1 * 10 ** 18 */\n      lt\n        /* \"contracts/Market.sol\":5588:7407  while(_remStake >= 1 * 10 ** 18){... */\n      tag_292\n      jumpi\n        /* \"contracts/Market.sol\":5638:5656  uint selectedIndex */\n      0x00\n        /* \"contracts/Market.sol\":5678:5691  uint8 maxOdds */\n      dup1\n        /* \"contracts/Market.sol\":5717:5723  uint i */\n      0x00\n        /* \"contracts/Market.sol\":5713:5981  for(uint i = 0; i < betCount; i++){... */\n    tag_293:\n        /* \"contracts/Market.sol\":5733:5741  betCount */\n      dup5\n        /* \"contracts/Market.sol\":5729:5730  i */\n      dup2\n        /* \"contracts/Market.sol\":5729:5741  i < betCount */\n      lt\n        /* \"contracts/Market.sol\":5713:5981  for(uint i = 0; i < betCount; i++){... */\n      iszero\n      tag_294\n      jumpi\n        /* \"contracts/Market.sol\":5769:5789  MarketBet memory bet */\n      0x00\n        /* \"contracts/Market.sol\":5792:5808  sideBBetsPending */\n      0x0c\n        /* \"contracts/Market.sol\":5809:5810  i */\n      dup3\n        /* \"contracts/Market.sol\":5792:5811  sideBBetsPending[i] */\n      dup2\n      sload\n      dup2\n      lt\n      tag_296\n      jumpi\n      mstore(0x00, shl(0xe0, 0x4e487b71))\n      mstore(0x04, 0x32)\n      revert(0x00, 0x24)\n    tag_296:\n      0x00\n      swap2\n      dup3\n      mstore\n      0x20\n      swap2\n      dup3\n      swap1\n      keccak256\n        /* \"contracts/Market.sol\":5769:5811  MarketBet memory bet = sideBBetsPending[i] */\n      0x40\n      dup1\n      mload\n      0x60\n      dup2\n      add\n      dup3\n      mstore\n        /* \"contracts/Market.sol\":5792:5811  sideBBetsPending[i] */\n      0x03\n      swap1\n      swap4\n      mul\n      swap1\n      swap2\n      add\n        /* \"contracts/Market.sol\":5769:5811  MarketBet memory bet = sideBBetsPending[i] */\n      dup1\n      sload\n      sub(shl(0xa0, 0x01), 0x01)\n      and\n      dup4\n      mstore\n      0x01\n      dup2\n      add\n      sload\n      swap4\n      dup4\n      add\n      swap4\n      swap1\n      swap4\n      mstore\n      0x02\n      swap1\n      swap3\n      add\n      sload\n      0xff\n      swap1\n      dup2\n      and\n      swap3\n      dup3\n      add\n      dup4\n      swap1\n      mstore\n      swap1\n      swap3\n      pop\n        /* \"contracts/Market.sol\":5836:5852  bet.odds>maxOdds */\n      dup5\n      and\n      lt\n        /* \"contracts/Market.sol\":5833:5963  if(bet.odds>maxOdds){... */\n      iszero\n      tag_298\n      jumpi\n        /* \"contracts/Market.sol\":5889:5892  bet */\n      dup1\n        /* \"contracts/Market.sol\":5889:5897  bet.odds */\n      0x40\n      add\n      mload\n        /* \"contracts/Market.sol\":5879:5897  maxOdds = bet.odds */\n      swap3\n      pop\n        /* \"contracts/Market.sol\":5939:5940  i */\n      dup2\n        /* \"contracts/Market.sol\":5923:5940  selectedIndex = i */\n      swap4\n      pop\n        /* \"contracts/Market.sol\":5833:5963  if(bet.odds>maxOdds){... */\n    tag_298:\n      pop\n        /* \"contracts/Market.sol\":5743:5746  i++ */\n      dup1\n      tag_299\n      dup2\n      tag_300\n      jump\t// in\n    tag_299:\n      swap2\n      pop\n      pop\n        /* \"contracts/Market.sol\":5713:5981  for(uint i = 0; i < betCount; i++){... */\n      jump(tag_293)\n    tag_294:\n      pop\n        /* \"contracts/Market.sol\":6011:6016  _odds */\n      dup5\n        /* \"contracts/Market.sol\":6001:6016  maxOdds > _odds */\n      0xff\n      and\n        /* \"contracts/Market.sol\":6001:6008  maxOdds */\n      dup2\n        /* \"contracts/Market.sol\":6001:6016  maxOdds > _odds */\n      0xff\n      and\n      gt\n        /* \"contracts/Market.sol\":5998:7393  if(maxOdds > _odds) {... */\n      iszero\n      tag_301\n      jumpi\n        /* \"contracts/Market.sol\":6040:6068  MarketBet memory selectedBet */\n      0x00\n        /* \"contracts/Market.sol\":6071:6087  sideBBetsPending */\n      0x0c\n        /* \"contracts/Market.sol\":6088:6101  selectedIndex */\n      dup4\n        /* \"contracts/Market.sol\":6071:6102  sideBBetsPending[selectedIndex] */\n      dup2\n      sload\n      dup2\n      lt\n      tag_302\n      jumpi\n      mstore(0x00, shl(0xe0, 0x4e487b71))\n      mstore(0x04, 0x32)\n      revert(0x00, 0x24)\n    tag_302:\n      0x00\n      swap2\n      dup3\n      mstore\n      0x20\n      dup1\n      dup4\n      keccak256\n        /* \"contracts/Market.sol\":6040:6102  MarketBet memory selectedBet = sideBBetsPending[selectedIndex] */\n      0x40\n      dup1\n      mload\n      0x60\n      dup2\n      add\n      dup3\n      mstore\n        /* \"contracts/Market.sol\":6071:6102  sideBBetsPending[selectedIndex] */\n      0x03\n      swap1\n      swap5\n      mul\n      swap1\n      swap2\n      add\n        /* \"contracts/Market.sol\":6040:6102  MarketBet memory selectedBet = sideBBetsPending[selectedIndex] */\n      dup1\n      sload\n      sub(shl(0xa0, 0x01), 0x01)\n      and\n      dup1\n      dup6\n      mstore\n      0x01\n      dup3\n      add\n      sload\n      dup6\n      dup6\n      add\n      mstore\n      0x02\n      swap1\n      swap2\n      add\n      sload\n      0xff\n      and\n      dup5\n      dup4\n      add\n      mstore\n        /* \"contracts/Market.sol\":6227:6256  selectedBetInstance.matched() */\n      dup2\n      mload\n      shl(0xe1, 0x45564e65)\n      dup2\n      mstore\n      swap2\n      mload\n        /* \"contracts/Market.sol\":6040:6102  MarketBet memory selectedBet = sideBBetsPending[selectedIndex] */\n      swap4\n      swap6\n      pop\n      swap4\n        /* \"contracts/Market.sol\":6071:6102  sideBBetsPending[selectedIndex] */\n      swap3\n        /* \"contracts/Market.sol\":6040:6102  MarketBet memory selectedBet = sideBBetsPending[selectedIndex] */\n      dup5\n      swap3\n        /* \"contracts/Market.sol\":6227:6254  selectedBetInstance.matched */\n      0x8aac9cca\n      swap3\n        /* \"contracts/Market.sol\":6227:6256  selectedBetInstance.matched() */\n      0x04\n      dup1\n      dup3\n      add\n      swap4\n      swap2\n      dup3\n      swap1\n      sub\n      add\n      dup2\n        /* \"contracts/Market.sol\":6040:6102  MarketBet memory selectedBet = sideBBetsPending[selectedIndex] */\n      dup7\n        /* \"contracts/Market.sol\":6227:6256  selectedBetInstance.matched() */\n      dup1\n      extcodesize\n      iszero\n      dup1\n      iszero\n      tag_304\n      jumpi\n      0x00\n      dup1\n      revert\n    tag_304:\n      pop\n      gas\n      staticcall\n      iszero\n      dup1\n      iszero\n      tag_306\n      jumpi\n      returndatasize\n      0x00\n      dup1\n      returndatacopy\n      revert(0x00, returndatasize)\n    tag_306:\n      pop\n      pop\n      pop\n      pop\n      mload(0x40)\n      returndatasize\n      not(0x1f)\n      0x1f\n      dup3\n      add\n      and\n      dup3\n      add\n      dup1\n      0x40\n      mstore\n      pop\n      dup2\n      add\n      swap1\n      tag_307\n      swap2\n      swap1\n      tag_118\n      jump\t// in\n    tag_307:\n        /* \"contracts/Market.sol\":6201:6256  uint matchedSelectedBet = selectedBetInstance.matched() */\n      swap1\n      pop\n        /* \"contracts/Market.sol\":6278:6295  uint offeredStake */\n      0x00\n        /* \"contracts/Market.sol\":6357:6360  100 */\n      0x64\n        /* \"contracts/Market.sol\":6342:6353  _odds - 100 */\n      tag_308\n        /* \"contracts/Market.sol\":6357:6360  100 */\n      dup2\n        /* \"contracts/Market.sol\":6342:6347  _odds */\n      dup12\n        /* \"contracts/Market.sol\":6342:6353  _odds - 100 */\n      tag_309\n      jump\t// in\n    tag_308:\n        /* \"contracts/Market.sol\":6298:6354  (selectedBet.stake - matchedSelectedBet) * (_odds - 100) */\n      0xff\n      and\n        /* \"contracts/Market.sol\":6319:6337  matchedSelectedBet */\n      dup4\n        /* \"contracts/Market.sol\":6299:6310  selectedBet */\n      dup7\n        /* \"contracts/Market.sol\":6299:6316  selectedBet.stake */\n      0x20\n      add\n      mload\n        /* \"contracts/Market.sol\":6299:6337  selectedBet.stake - matchedSelectedBet */\n      tag_310\n      swap2\n      swap1\n      tag_124\n      jump\t// in\n    tag_310:\n        /* \"contracts/Market.sol\":6298:6354  (selectedBet.stake - matchedSelectedBet) * (_odds - 100) */\n      tag_311\n      swap2\n      swap1\n      tag_197\n      jump\t// in\n    tag_311:\n        /* \"contracts/Market.sol\":6298:6360  (selectedBet.stake - matchedSelectedBet) * (_odds - 100) / 100 */\n      tag_312\n      swap2\n      swap1\n      tag_199\n      jump\t// in\n    tag_312:\n        /* \"contracts/Market.sol\":6278:6360  uint offeredStake = (selectedBet.stake - matchedSelectedBet) * (_odds - 100) / 100 */\n      swap1\n      pop\n        /* \"contracts/Market.sol\":6383:6396  uint _amountA */\n      0x00\n        /* \"contracts/Market.sol\":6436:6442  _stake */\n      dup11\n        /* \"contracts/Market.sol\":6421:6433  offeredStake */\n      dup3\n        /* \"contracts/Market.sol\":6421:6442  offeredStake > _stake */\n      gt\n        /* \"contracts/Market.sol\":6418:6608  if(offeredStake > _stake) {... */\n      iszero\n      tag_313\n      jumpi\n      pop\n        /* \"contracts/Market.sol\":6481:6487  _stake */\n      dup10\n        /* \"contracts/Market.sol\":6418:6608  if(offeredStake > _stake) {... */\n      jump(tag_314)\n    tag_313:\n      pop\n        /* \"contracts/Market.sol\":6573:6585  offeredStake */\n      dup1\n        /* \"contracts/Market.sol\":6418:6608  if(offeredStake > _stake) {... */\n    tag_314:\n        /* \"contracts/Market.sol\":6629:6642  uint _amountB */\n      0x00\n        /* \"contracts/Market.sol\":6645:6661  _amountA * _odds */\n      tag_315\n      0xff\n      dup13\n      and\n        /* \"contracts/Market.sol\":6645:6653  _amountA */\n      dup4\n        /* \"contracts/Market.sol\":6645:6661  _amountA * _odds */\n      tag_197\n      jump\t// in\n    tag_315:\n        /* \"contracts/Market.sol\":6629:6661  uint _amountB = _amountA * _odds */\n      swap1\n      pop\n        /* \"contracts/Market.sol\":6683:6696  BetPair _pair */\n      0x00\n        /* \"contracts/Market.sol\":6719:6723  this */\n      address\n        /* \"contracts/Market.sol\":6725:6736  _betAddress */\n      dup15\n        /* \"contracts/Market.sol\":6737:6748  selectedBet */\n      dup9\n        /* \"contracts/Market.sol\":6737:6759  selectedBet.betAddress */\n      0x00\n      add\n      mload\n        /* \"contracts/Market.sol\":6760:6768  _amountA */\n      dup6\n        /* \"contracts/Market.sol\":6769:6777  _amountB */\n      dup6\n        /* \"contracts/Market.sol\":6699:6778  new BetPair(address(this),_betAddress,selectedBet.betAddress,_amountA,_amountB) */\n      mload(0x40)\n      tag_316\n      swap1\n      tag_317\n      jump\t// in\n    tag_316:\n      sub(shl(0xa0, 0x01), 0x01)\n        /* \"#utility.yul\":6014:6029   */\n      swap6\n      dup7\n      and\n        /* \"#utility.yul\":5996:6030   */\n      dup2\n      mstore\n        /* \"#utility.yul\":6066:6081   */\n      swap4\n      dup6\n      and\n        /* \"#utility.yul\":6061:6063   */\n      0x20\n        /* \"#utility.yul\":6046:6064   */\n      dup6\n      add\n        /* \"#utility.yul\":6039:6082   */\n      mstore\n        /* \"#utility.yul\":6118:6133   */\n      swap4\n      swap1\n      swap2\n      and\n        /* \"#utility.yul\":6113:6115   */\n      0x40\n        /* \"#utility.yul\":6098:6116   */\n      dup4\n      add\n        /* \"#utility.yul\":6091:6134   */\n      mstore\n        /* \"#utility.yul\":6165:6167   */\n      0x60\n        /* \"#utility.yul\":6150:6168   */\n      dup3\n      add\n        /* \"#utility.yul\":6143:6177   */\n      mstore\n        /* \"#utility.yul\":6208:6211   */\n      0x80\n        /* \"#utility.yul\":6193:6212   */\n      dup2\n      add\n        /* \"#utility.yul\":6186:6221   */\n      swap2\n      swap1\n      swap2\n      mstore\n        /* \"#utility.yul\":5945:5948   */\n      0xa0\n        /* \"#utility.yul\":5930:5949   */\n      add\n        /* \"contracts/Market.sol\":6699:6778  new BetPair(address(this),_betAddress,selectedBet.betAddress,_amountA,_amountB) */\n      mload(0x40)\n      dup1\n      swap2\n      sub\n      swap1\n      0x00\n      create\n      dup1\n      iszero\n      dup1\n      iszero\n      tag_320\n      jumpi\n      returndatasize\n      0x00\n      dup1\n      returndatacopy\n      revert(0x00, returndatasize)\n    tag_320:\n      pop\n        /* \"contracts/Market.sol\":6683:6778  BetPair _pair = new BetPair(address(this),_betAddress,selectedBet.betAddress,_amountA,_amountB) */\n      swap1\n      pop\n        /* \"contracts/Market.sol\":6807:6823  sideBBetsPending */\n      0x0c\n        /* \"contracts/Market.sol\":6824:6837  selectedIndex */\n      dup10\n        /* \"contracts/Market.sol\":6807:6838  sideBBetsPending[selectedIndex] */\n      dup2\n      sload\n      dup2\n      lt\n      tag_321\n      jumpi\n      mstore(0x00, shl(0xe0, 0x4e487b71))\n      mstore(0x04, 0x32)\n      revert(0x00, 0x24)\n    tag_321:\n      0x00\n      swap2\n      dup3\n      mstore\n      0x20\n      dup3\n      keccak256\n      0x03\n      swap2\n      swap1\n      swap2\n      mul\n      add\n        /* \"contracts/Market.sol\":6800:6838  delete sideBBetsPending[selectedIndex] */\n      dup1\n      sload\n      not(sub(shl(0xa0, 0x01), 0x01))\n      and\n      dup2\n      sstore\n      0x01\n      dup2\n      add\n      swap2\n      swap1\n      swap2\n      sstore\n      0x02\n      add\n      dup1\n      sload\n      not(0xff)\n      and\n      swap1\n      sstore\n        /* \"contracts/Market.sol\":6913:6939  _betA.setMatched(_amountA) */\n      mload(0x40)\n      shl(0xe1, 0x2d267e03)\n      dup2\n      mstore\n      0x04\n      dup2\n      add\n        /* \"#utility.yul\":10441:10466   */\n      dup5\n      swap1\n      mstore\n        /* \"contracts/Market.sol\":6879:6890  _betAddress */\n      dup15\n      swap1\n      sub(shl(0xa0, 0x01), 0x01)\n        /* \"contracts/Market.sol\":6913:6929  _betA.setMatched */\n      dup3\n      and\n      swap1\n      0x5a4cfc06\n      swap1\n        /* \"#utility.yul\":10414:10432   */\n      0x24\n      add\n        /* \"contracts/Market.sol\":6913:6939  _betA.setMatched(_amountA) */\n      0x20\n      mload(0x40)\n      dup1\n      dup4\n      sub\n      dup2\n      0x00\n      dup8\n      dup1\n      extcodesize\n      iszero\n      dup1\n      iszero\n      tag_324\n      jumpi\n      0x00\n      dup1\n      revert\n    tag_324:\n      pop\n      gas\n      call\n      iszero\n      dup1\n      iszero\n      tag_326\n      jumpi\n      returndatasize\n      0x00\n      dup1\n      returndatacopy\n      revert(0x00, returndatasize)\n    tag_326:\n      pop\n      pop\n      pop\n      pop\n      mload(0x40)\n      returndatasize\n      not(0x1f)\n      0x1f\n      dup3\n      add\n      and\n      dup3\n      add\n      dup1\n      0x40\n      mstore\n      pop\n      dup2\n      add\n      swap1\n      tag_327\n      swap2\n      swap1\n      tag_139\n      jump\t// in\n    tag_327:\n      pop\n        /* \"contracts/Market.sol\":6961:6990  _betA.addPair(address(_pair)) */\n      mload(0x40)\n      shl(0xe1, 0x615bdddb)\n      dup2\n      mstore\n      sub(shl(0xa0, 0x01), 0x01)\n        /* \"#utility.yul\":5655:5687   */\n      dup4\n      dup2\n      and\n        /* \"contracts/Market.sol\":6961:6990  _betA.addPair(address(_pair)) */\n      0x04\n      dup4\n      add\n        /* \"#utility.yul\":5637:5688   */\n      mstore\n        /* \"contracts/Market.sol\":6961:6974  _betA.addPair */\n      dup3\n      and\n      swap1\n      0xc2b7bbb6\n      swap1\n        /* \"#utility.yul\":5610:5628   */\n      0x24\n      add\n        /* \"contracts/Market.sol\":6961:6990  _betA.addPair(address(_pair)) */\n      0x20\n      mload(0x40)\n      dup1\n      dup4\n      sub\n      dup2\n      0x00\n      dup8\n      dup1\n      extcodesize\n      iszero\n      dup1\n      iszero\n      tag_329\n      jumpi\n      0x00\n      dup1\n      revert\n    tag_329:\n      pop\n      gas\n      call\n      iszero\n      dup1\n      iszero\n      tag_331\n      jumpi\n      returndatasize\n      0x00\n      dup1\n      returndatacopy\n      revert(0x00, returndatasize)\n    tag_331:\n      pop\n      pop\n      pop\n      pop\n      mload(0x40)\n      returndatasize\n      not(0x1f)\n      0x1f\n      dup3\n      add\n      and\n      dup3\n      add\n      dup1\n      0x40\n      mstore\n      pop\n      dup2\n      add\n      swap1\n      tag_332\n      swap2\n      swap1\n      tag_139\n      jump\t// in\n    tag_332:\n      pop\n        /* \"contracts/Market.sol\":7031:7053  selectedBet.betAddress */\n      dup8\n      mload\n        /* \"contracts/Market.sol\":7076:7102  _betB.setMatched(_amountB) */\n      mload(0x40)\n      shl(0xe1, 0x2d267e03)\n      dup2\n      mstore\n      0x04\n      dup2\n      add\n        /* \"#utility.yul\":10441:10466   */\n      dup6\n      swap1\n      mstore\n      sub(shl(0xa0, 0x01), 0x01)\n        /* \"contracts/Market.sol\":7076:7092  _betB.setMatched */\n      dup3\n      and\n      swap1\n      0x5a4cfc06\n      swap1\n        /* \"#utility.yul\":10414:10432   */\n      0x24\n      add\n        /* \"contracts/Market.sol\":7076:7102  _betB.setMatched(_amountB) */\n      0x20\n      mload(0x40)\n      dup1\n      dup4\n      sub\n      dup2\n      0x00\n      dup8\n      dup1\n      extcodesize\n      iszero\n      dup1\n      iszero\n      tag_334\n      jumpi\n      0x00\n      dup1\n      revert\n    tag_334:\n      pop\n      gas\n      call\n      iszero\n      dup1\n      iszero\n      tag_336\n      jumpi\n      returndatasize\n      0x00\n      dup1\n      returndatacopy\n      revert(0x00, returndatasize)\n    tag_336:\n      pop\n      pop\n      pop\n      pop\n      mload(0x40)\n      returndatasize\n      not(0x1f)\n      0x1f\n      dup3\n      add\n      and\n      dup3\n      add\n      dup1\n      0x40\n      mstore\n      pop\n      dup2\n      add\n      swap1\n      tag_337\n      swap2\n      swap1\n      tag_139\n      jump\t// in\n    tag_337:\n      pop\n        /* \"contracts/Market.sol\":7124:7153  _betB.addPair(address(_pair)) */\n      mload(0x40)\n      shl(0xe1, 0x615bdddb)\n      dup2\n      mstore\n      sub(shl(0xa0, 0x01), 0x01)\n        /* \"#utility.yul\":5655:5687   */\n      dup5\n      dup2\n      and\n        /* \"contracts/Market.sol\":7124:7153  _betB.addPair(address(_pair)) */\n      0x04\n      dup4\n      add\n        /* \"#utility.yul\":5637:5688   */\n      mstore\n        /* \"contracts/Market.sol\":7124:7137  _betB.addPair */\n      dup3\n      and\n      swap1\n      0xc2b7bbb6\n      swap1\n        /* \"#utility.yul\":5610:5628   */\n      0x24\n      add\n        /* \"contracts/Market.sol\":7124:7153  _betB.addPair(address(_pair)) */\n      0x20\n      mload(0x40)\n      dup1\n      dup4\n      sub\n      dup2\n      0x00\n      dup8\n      dup1\n      extcodesize\n      iszero\n      dup1\n      iszero\n      tag_339\n      jumpi\n      0x00\n      dup1\n      revert\n    tag_339:\n      pop\n      gas\n      call\n      iszero\n      dup1\n      iszero\n      tag_341\n      jumpi\n      returndatasize\n      0x00\n      dup1\n      returndatacopy\n      revert(0x00, returndatasize)\n    tag_341:\n      pop\n      pop\n      pop\n      pop\n      mload(0x40)\n      returndatasize\n      not(0x1f)\n      0x1f\n      dup3\n      add\n      and\n      dup3\n      add\n      dup1\n      0x40\n      mstore\n      pop\n      dup2\n      add\n      swap1\n      tag_342\n      swap2\n      swap1\n      tag_139\n      jump\t// in\n    tag_342:\n      pop\n        /* \"contracts/Market.sol\":7176:7197  _remStake -= _amountA */\n      tag_343\n        /* \"contracts/Market.sol\":7189:7197  _amountA */\n      dup6\n        /* \"contracts/Market.sol\":7176:7197  _remStake -= _amountA */\n      dup14\n      tag_124\n      jump\t// in\n    tag_343:\n      swap12\n      pop\n        /* \"contracts/Market.sol\":5998:7393  if(maxOdds > _odds) {... */\n      pop\n      pop\n      pop\n      pop\n      pop\n      pop\n      pop\n      pop\n      pop\n      jump(tag_344)\n    tag_301:\n      pop\n      pop\n        /* \"contracts/Market.sol\":7282:7346  MarketBet({betAddress: _betAddress, stake: _stake, odds: _odds}) */\n      0x40\n      dup1\n      mload\n      0x60\n      dup2\n      add\n      dup3\n      mstore\n      sub(shl(0xa0, 0x01), 0x01)\n      dup8\n      dup2\n      and\n      dup3\n      mstore\n      0x20\n      dup3\n      add\n      dup8\n      dup2\n      mstore\n      0xff\n      dup8\n      dup2\n      and\n      swap5\n      dup5\n      add\n      swap5\n      dup6\n      mstore\n        /* \"contracts/Market.sol\":7260:7276  sideABetsPending */\n      0x0a\n        /* \"contracts/Market.sol\":7260:7347  sideABetsPending.push(MarketBet({betAddress: _betAddress, stake: _stake, odds: _odds})) */\n      dup1\n      sload\n      0x01\n      dup2\n      add\n      dup3\n      sstore\n      0x00\n      swap2\n      swap1\n      swap2\n      mstore\n      swap4\n      mload\n      0xc65a7bb8d6351c1cf70c95a316cc6a92839c986682d98bc35f958f4883f9d2a8\n      0x03\n      swap1\n      swap6\n      mul\n      swap5\n      dup6\n      add\n      dup1\n      sload\n      not(sub(shl(0xa0, 0x01), 0x01))\n      and\n      swap2\n      swap1\n      swap5\n      and\n      or\n      swap1\n      swap3\n      sstore\n      mload\n      0xc65a7bb8d6351c1cf70c95a316cc6a92839c986682d98bc35f958f4883f9d2a9\n      dup4\n      add\n      sstore\n      swap2\n      mload\n      0xc65a7bb8d6351c1cf70c95a316cc6a92839c986682d98bc35f958f4883f9d2aa\n      swap1\n      swap2\n      add\n      dup1\n      sload\n      not(0xff)\n      and\n      swap2\n      swap1\n      swap3\n      and\n      or\n      swap1\n      sstore\n        /* \"contracts/Market.sol\":7369:7374  break */\n      jump(tag_292)\n        /* \"contracts/Market.sol\":5998:7393  if(maxOdds > _odds) {... */\n    tag_344:\n        /* \"contracts/Market.sol\":5588:7407  while(_remStake >= 1 * 10 ** 18){... */\n      pop\n      pop\n      jump(tag_291)\n    tag_292:\n        /* \"contracts/Market.sol\":5521:7543  if(betCount > 0){... */\n      pop\n      jump(tag_285)\n    tag_290:\n      pop\n        /* \"contracts/Market.sol\":7467:7531  MarketBet({betAddress: _betAddress, stake: _stake, odds: _odds}) */\n      0x40\n      dup1\n      mload\n      0x60\n      dup2\n      add\n      dup3\n      mstore\n      sub(shl(0xa0, 0x01), 0x01)\n      swap5\n      dup6\n      and\n      dup2\n      mstore\n      0x20\n      dup2\n      add\n      swap4\n      dup5\n      mstore\n      0xff\n      swap3\n      dup4\n      and\n      swap2\n      dup2\n      add\n      swap2\n      dup3\n      mstore\n        /* \"contracts/Market.sol\":7445:7461  sideABetsPending */\n      0x0a\n        /* \"contracts/Market.sol\":7445:7532  sideABetsPending.push(MarketBet({betAddress: _betAddress, stake: _stake, odds: _odds})) */\n      dup1\n      sload\n      0x01\n      dup2\n      add\n      dup3\n      sstore\n      0x00\n      swap2\n      swap1\n      swap2\n      mstore\n      swap1\n      mload\n      0xc65a7bb8d6351c1cf70c95a316cc6a92839c986682d98bc35f958f4883f9d2a8\n      0x03\n      swap1\n      swap3\n      mul\n      swap2\n      dup3\n      add\n      dup1\n      sload\n      not(sub(shl(0xa0, 0x01), 0x01))\n      and\n      swap2\n      swap1\n      swap7\n      and\n      or\n      swap1\n      swap5\n      sstore\n      swap2\n      mload\n      0xc65a7bb8d6351c1cf70c95a316cc6a92839c986682d98bc35f958f4883f9d2a9\n      dup5\n      add\n      sstore\n      swap1\n      mload\n      0xc65a7bb8d6351c1cf70c95a316cc6a92839c986682d98bc35f958f4883f9d2aa\n      swap1\n      swap3\n      add\n      dup1\n      sload\n      not(0xff)\n      and\n      swap3\n      swap1\n      swap2\n      and\n      swap2\n      swap1\n      swap2\n      or\n      swap1\n      sstore\n        /* \"contracts/Market.sol\":5367:7565  function _matchSideABet(address _betAddress, uint256 _stake, uint8 _odds)... */\n      jump\t// out\n        /* \"contracts/Market.sol\":5059:5361  function _addToSideB(address _better, address _betAddress, uint256 _stake, uint8 _odds)... */\n    tag_260:\n        /* \"contracts/Market.sol\":5197:5203  _stake */\n      dup2\n        /* \"contracts/Market.sol\":5178:5193  sideBTotalStake */\n      0x08\n      0x00\n        /* \"contracts/Market.sol\":5178:5203  sideBTotalStake += _stake */\n      dup3\n      dup3\n      sload\n      tag_349\n      swap2\n      swap1\n      tag_201\n      jump\t// in\n    tag_349:\n      swap1\n      swap2\n      sstore\n      pop\n      pop\n        /* \"contracts/Market.sol\":5228:5292  MarketBet({betAddress: _betAddress, stake: _stake, odds: _odds}) */\n      0x40\n      dup1\n      mload\n      0x60\n      dup2\n      add\n      dup3\n      mstore\n      sub(shl(0xa0, 0x01), 0x01)\n      dup6\n      dup2\n      and\n      dup3\n      mstore\n      0x20\n      dup1\n      dup4\n      add\n      dup7\n      dup2\n      mstore\n      0xff\n      dup7\n      dup2\n      and\n      dup6\n      dup8\n      add\n      swap1\n      dup2\n      mstore\n        /* \"contracts/Market.sol\":5213:5222  sideBBets */\n      0x0b\n        /* \"contracts/Market.sol\":5213:5293  sideBBets.push(MarketBet({betAddress: _betAddress, stake: _stake, odds: _odds})) */\n      dup1\n      sload\n      0x01\n      dup2\n      add\n      dup3\n      sstore\n      0x00\n      swap2\n      dup3\n      mstore\n      swap7\n      mload\n      0x0175b7a638427703f0dbe7bb9bbf987a2551717b34e79f33b5b1008d1fa01db9\n      0x03\n      swap1\n      swap9\n      mul\n      swap8\n      dup9\n      add\n      dup1\n      sload\n      not(sub(shl(0xa0, 0x01), 0x01))\n      and\n      swap2\n      dup9\n      and\n      swap2\n      swap1\n      swap2\n      or\n      swap1\n      sstore\n      swap3\n      mload\n      0x0175b7a638427703f0dbe7bb9bbf987a2551717b34e79f33b5b1008d1fa01dba\n      dup8\n      add\n      sstore\n      mload\n      0x0175b7a638427703f0dbe7bb9bbf987a2551717b34e79f33b5b1008d1fa01dbb\n      swap1\n      swap6\n      add\n      dup1\n      sload\n      not(0xff)\n      and\n      swap6\n      swap1\n      swap2\n      and\n      swap5\n      swap1\n      swap5\n      or\n      swap1\n      swap4\n      sstore\n        /* \"contracts/Market.sol\":5303:5328  sideBUsersStakes[_better] */\n      swap1\n      dup8\n      and\n      dup3\n      mstore\n        /* \"contracts/Market.sol\":5303:5319  sideBUsersStakes */\n      0x0e\n        /* \"contracts/Market.sol\":5303:5328  sideBUsersStakes[_better] */\n      swap1\n      mstore\n      swap1\n      dup2\n      keccak256\n        /* \"contracts/Market.sol\":5303:5338  sideBUsersStakes[_better] += _stake */\n      dup1\n      sload\n        /* \"contracts/Market.sol\":5228:5292  MarketBet({betAddress: _betAddress, stake: _stake, odds: _odds}) */\n      dup5\n      swap3\n      swap1\n        /* \"contracts/Market.sol\":5303:5338  sideBUsersStakes[_better] += _stake */\n      tag_288\n      swap1\n        /* \"contracts/Market.sol\":5228:5292  MarketBet({betAddress: _betAddress, stake: _stake, odds: _odds}) */\n      dup5\n      swap1\n        /* \"contracts/Market.sol\":5303:5338  sideBUsersStakes[_better] += _stake */\n      tag_201\n      jump\t// in\n        /* \"contracts/Market.sol\":7571:9773  function _matchSideBBet(address _betAddress, uint256 _stake, uint8 _odds)... */\n    tag_262:\n        /* \"contracts/Market.sol\":7692:7708  sideABetsPending */\n      0x0a\n        /* \"contracts/Market.sol\":7692:7715  sideABetsPending.length */\n      sload\n        /* \"contracts/Market.sol\":7728:7740  betCount > 0 */\n      dup1\n      iszero\n        /* \"contracts/Market.sol\":7725:9751  if(betCount > 0){... */\n      tag_353\n      jumpi\n        /* \"contracts/Market.sol\":7772:7778  _stake */\n      dup3\n        /* \"contracts/Market.sol\":7792:9615  while(_remStake >= 1 * 10 ** 18){... */\n    tag_354:\n        /* \"contracts/Market.sol\":7811:7823  1 * 10 ** 18 */\n      0x0de0b6b3a7640000\n        /* \"contracts/Market.sol\":7798:7807  _remStake */\n      dup2\n        /* \"contracts/Market.sol\":7798:7823  _remStake >= 1 * 10 ** 18 */\n      lt\n        /* \"contracts/Market.sol\":7792:9615  while(_remStake >= 1 * 10 ** 18){... */\n      tag_292\n      jumpi\n        /* \"contracts/Market.sol\":7842:7860  uint selectedIndex */\n      0x00\n        /* \"contracts/Market.sol\":7882:7895  uint8 maxOdds */\n      dup1\n        /* \"contracts/Market.sol\":7921:7927  uint i */\n      0x00\n        /* \"contracts/Market.sol\":7917:8185  for(uint i = 0; i < betCount; i++){... */\n    tag_356:\n        /* \"contracts/Market.sol\":7937:7945  betCount */\n      dup5\n        /* \"contracts/Market.sol\":7933:7934  i */\n      dup2\n        /* \"contracts/Market.sol\":7933:7945  i < betCount */\n      lt\n        /* \"contracts/Market.sol\":7917:8185  for(uint i = 0; i < betCount; i++){... */\n      iszero\n      tag_357\n      jumpi\n        /* \"contracts/Market.sol\":7973:7993  MarketBet memory bet */\n      0x00\n        /* \"contracts/Market.sol\":7996:8012  sideABetsPending */\n      0x0a\n        /* \"contracts/Market.sol\":8013:8014  i */\n      dup3\n        /* \"contracts/Market.sol\":7996:8015  sideABetsPending[i] */\n      dup2\n      sload\n      dup2\n      lt\n      tag_359\n      jumpi\n      mstore(0x00, shl(0xe0, 0x4e487b71))\n      mstore(0x04, 0x32)\n      revert(0x00, 0x24)\n    tag_359:\n      0x00\n      swap2\n      dup3\n      mstore\n      0x20\n      swap2\n      dup3\n      swap1\n      keccak256\n        /* \"contracts/Market.sol\":7973:8015  MarketBet memory bet = sideABetsPending[i] */\n      0x40\n      dup1\n      mload\n      0x60\n      dup2\n      add\n      dup3\n      mstore\n        /* \"contracts/Market.sol\":7996:8015  sideABetsPending[i] */\n      0x03\n      swap1\n      swap4\n      mul\n      swap1\n      swap2\n      add\n        /* \"contracts/Market.sol\":7973:8015  MarketBet memory bet = sideABetsPending[i] */\n      dup1\n      sload\n      sub(shl(0xa0, 0x01), 0x01)\n      and\n      dup4\n      mstore\n      0x01\n      dup2\n      add\n      sload\n      swap4\n      dup4\n      add\n      swap4\n      swap1\n      swap4\n      mstore\n      0x02\n      swap1\n      swap3\n      add\n      sload\n      0xff\n      swap1\n      dup2\n      and\n      swap3\n      dup3\n      add\n      dup4\n      swap1\n      mstore\n      swap1\n      swap3\n      pop\n        /* \"contracts/Market.sol\":8040:8056  bet.odds>maxOdds */\n      dup5\n      and\n      lt\n        /* \"contracts/Market.sol\":8037:8167  if(bet.odds>maxOdds){... */\n      iszero\n      tag_361\n      jumpi\n        /* \"contracts/Market.sol\":8093:8096  bet */\n      dup1\n        /* \"contracts/Market.sol\":8093:8101  bet.odds */\n      0x40\n      add\n      mload\n        /* \"contracts/Market.sol\":8083:8101  maxOdds = bet.odds */\n      swap3\n      pop\n        /* \"contracts/Market.sol\":8143:8144  i */\n      dup2\n        /* \"contracts/Market.sol\":8127:8144  selectedIndex = i */\n      swap4\n      pop\n        /* \"contracts/Market.sol\":8037:8167  if(bet.odds>maxOdds){... */\n    tag_361:\n      pop\n        /* \"contracts/Market.sol\":7947:7950  i++ */\n      dup1\n      tag_362\n      dup2\n      tag_300\n      jump\t// in\n    tag_362:\n      swap2\n      pop\n      pop\n        /* \"contracts/Market.sol\":7917:8185  for(uint i = 0; i < betCount; i++){... */\n      jump(tag_356)\n    tag_357:\n      pop\n        /* \"contracts/Market.sol\":8215:8220  _odds */\n      dup5\n        /* \"contracts/Market.sol\":8205:8220  maxOdds > _odds */\n      0xff\n      and\n        /* \"contracts/Market.sol\":8205:8212  maxOdds */\n      dup2\n        /* \"contracts/Market.sol\":8205:8220  maxOdds > _odds */\n      0xff\n      and\n      gt\n        /* \"contracts/Market.sol\":8202:9601  if(maxOdds > _odds) {... */\n      iszero\n      tag_363\n      jumpi\n        /* \"contracts/Market.sol\":8244:8272  MarketBet memory selectedBet */\n      0x00\n        /* \"contracts/Market.sol\":8275:8291  sideABetsPending */\n      0x0a\n        /* \"contracts/Market.sol\":8292:8305  selectedIndex */\n      dup4\n        /* \"contracts/Market.sol\":8275:8306  sideABetsPending[selectedIndex] */\n      dup2\n      sload\n      dup2\n      lt\n      tag_364\n      jumpi\n      mstore(0x00, shl(0xe0, 0x4e487b71))\n      mstore(0x04, 0x32)\n      revert(0x00, 0x24)\n    tag_364:\n      0x00\n      swap2\n      dup3\n      mstore\n      0x20\n      dup1\n      dup4\n      keccak256\n        /* \"contracts/Market.sol\":8244:8306  MarketBet memory selectedBet = sideABetsPending[selectedIndex] */\n      0x40\n      dup1\n      mload\n      0x60\n      dup2\n      add\n      dup3\n      mstore\n        /* \"contracts/Market.sol\":8275:8306  sideABetsPending[selectedIndex] */\n      0x03\n      swap1\n      swap5\n      mul\n      swap1\n      swap2\n      add\n        /* \"contracts/Market.sol\":8244:8306  MarketBet memory selectedBet = sideABetsPending[selectedIndex] */\n      dup1\n      sload\n      sub(shl(0xa0, 0x01), 0x01)\n      and\n      dup1\n      dup6\n      mstore\n      0x01\n      dup3\n      add\n      sload\n      dup6\n      dup6\n      add\n      mstore\n      0x02\n      swap1\n      swap2\n      add\n      sload\n      0xff\n      and\n      dup5\n      dup4\n      add\n      mstore\n        /* \"contracts/Market.sol\":8431:8460  selectedBetInstance.matched() */\n      dup2\n      mload\n      shl(0xe1, 0x45564e65)\n      dup2\n      mstore\n      swap2\n      mload\n        /* \"contracts/Market.sol\":8244:8306  MarketBet memory selectedBet = sideABetsPending[selectedIndex] */\n      swap4\n      swap6\n      pop\n      swap4\n        /* \"contracts/Market.sol\":8275:8306  sideABetsPending[selectedIndex] */\n      swap3\n        /* \"contracts/Market.sol\":8244:8306  MarketBet memory selectedBet = sideABetsPending[selectedIndex] */\n      dup5\n      swap3\n        /* \"contracts/Market.sol\":8431:8458  selectedBetInstance.matched */\n      0x8aac9cca\n      swap3\n        /* \"contracts/Market.sol\":8431:8460  selectedBetInstance.matched() */\n      0x04\n      dup1\n      dup3\n      add\n      swap4\n      swap2\n      dup3\n      swap1\n      sub\n      add\n      dup2\n        /* \"contracts/Market.sol\":8244:8306  MarketBet memory selectedBet = sideABetsPending[selectedIndex] */\n      dup7\n        /* \"contracts/Market.sol\":8431:8460  selectedBetInstance.matched() */\n      dup1\n      extcodesize\n      iszero\n      dup1\n      iszero\n      tag_366\n      jumpi\n      0x00\n      dup1\n      revert\n    tag_366:\n      pop\n      gas\n      staticcall\n      iszero\n      dup1\n      iszero\n      tag_368\n      jumpi\n      returndatasize\n      0x00\n      dup1\n      returndatacopy\n      revert(0x00, returndatasize)\n    tag_368:\n      pop\n      pop\n      pop\n      pop\n      mload(0x40)\n      returndatasize\n      not(0x1f)\n      0x1f\n      dup3\n      add\n      and\n      dup3\n      add\n      dup1\n      0x40\n      mstore\n      pop\n      dup2\n      add\n      swap1\n      tag_369\n      swap2\n      swap1\n      tag_118\n      jump\t// in\n    tag_369:\n        /* \"contracts/Market.sol\":8405:8460  uint matchedSelectedBet = selectedBetInstance.matched() */\n      swap1\n      pop\n        /* \"contracts/Market.sol\":8482:8499  uint offeredStake */\n      0x00\n        /* \"contracts/Market.sol\":8561:8564  100 */\n      0x64\n        /* \"contracts/Market.sol\":8546:8557  _odds - 100 */\n      tag_370\n        /* \"contracts/Market.sol\":8561:8564  100 */\n      dup2\n        /* \"contracts/Market.sol\":8546:8551  _odds */\n      dup12\n        /* \"contracts/Market.sol\":8546:8557  _odds - 100 */\n      tag_309\n      jump\t// in\n    tag_370:\n        /* \"contracts/Market.sol\":8502:8558  (selectedBet.stake - matchedSelectedBet) * (_odds - 100) */\n      0xff\n      and\n        /* \"contracts/Market.sol\":8523:8541  matchedSelectedBet */\n      dup4\n        /* \"contracts/Market.sol\":8503:8514  selectedBet */\n      dup7\n        /* \"contracts/Market.sol\":8503:8520  selectedBet.stake */\n      0x20\n      add\n      mload\n        /* \"contracts/Market.sol\":8503:8541  selectedBet.stake - matchedSelectedBet */\n      tag_371\n      swap2\n      swap1\n      tag_124\n      jump\t// in\n    tag_371:\n        /* \"contracts/Market.sol\":8502:8558  (selectedBet.stake - matchedSelectedBet) * (_odds - 100) */\n      tag_372\n      swap2\n      swap1\n      tag_197\n      jump\t// in\n    tag_372:\n        /* \"contracts/Market.sol\":8502:8564  (selectedBet.stake - matchedSelectedBet) * (_odds - 100) / 100 */\n      tag_373\n      swap2\n      swap1\n      tag_199\n      jump\t// in\n    tag_373:\n        /* \"contracts/Market.sol\":8482:8564  uint offeredStake = (selectedBet.stake - matchedSelectedBet) * (_odds - 100) / 100 */\n      swap1\n      pop\n        /* \"contracts/Market.sol\":8587:8600  uint _amountB */\n      0x00\n        /* \"contracts/Market.sol\":8640:8646  _stake */\n      dup11\n        /* \"contracts/Market.sol\":8625:8637  offeredStake */\n      dup3\n        /* \"contracts/Market.sol\":8625:8646  offeredStake > _stake */\n      gt\n        /* \"contracts/Market.sol\":8622:8812  if(offeredStake > _stake) {... */\n      iszero\n      tag_374\n      jumpi\n      pop\n        /* \"contracts/Market.sol\":8685:8691  _stake */\n      dup10\n        /* \"contracts/Market.sol\":8622:8812  if(offeredStake > _stake) {... */\n      jump(tag_375)\n    tag_374:\n      pop\n        /* \"contracts/Market.sol\":8777:8789  offeredStake */\n      dup1\n        /* \"contracts/Market.sol\":8622:8812  if(offeredStake > _stake) {... */\n    tag_375:\n        /* \"contracts/Market.sol\":8833:8846  uint _amountA */\n      0x00\n        /* \"contracts/Market.sol\":8849:8865  _amountB * _odds */\n      tag_376\n      0xff\n      dup13\n      and\n        /* \"contracts/Market.sol\":8849:8857  _amountB */\n      dup4\n        /* \"contracts/Market.sol\":8849:8865  _amountB * _odds */\n      tag_197\n      jump\t// in\n    tag_376:\n        /* \"contracts/Market.sol\":8833:8865  uint _amountA = _amountB * _odds */\n      swap1\n      pop\n        /* \"contracts/Market.sol\":8887:8900  BetPair _pair */\n      0x00\n        /* \"contracts/Market.sol\":8923:8927  this */\n      address\n        /* \"contracts/Market.sol\":8930:8941  selectedBet */\n      dup8\n        /* \"contracts/Market.sol\":8930:8952  selectedBet.betAddress */\n      0x00\n      add\n      mload\n        /* \"contracts/Market.sol\":8954:8965  _betAddress */\n      dup16\n        /* \"contracts/Market.sol\":8967:8975  _amountA */\n      dup5\n        /* \"contracts/Market.sol\":8977:8985  _amountB */\n      dup7\n        /* \"contracts/Market.sol\":8903:8986  new BetPair(address(this), selectedBet.betAddress, _betAddress, _amountA, _amountB) */\n      mload(0x40)\n      tag_377\n      swap1\n      tag_317\n      jump\t// in\n    tag_377:\n      sub(shl(0xa0, 0x01), 0x01)\n        /* \"#utility.yul\":6014:6029   */\n      swap6\n      dup7\n      and\n        /* \"#utility.yul\":5996:6030   */\n      dup2\n      mstore\n        /* \"#utility.yul\":6066:6081   */\n      swap4\n      dup6\n      and\n        /* \"#utility.yul\":6061:6063   */\n      0x20\n        /* \"#utility.yul\":6046:6064   */\n      dup6\n      add\n        /* \"#utility.yul\":6039:6082   */\n      mstore\n        /* \"#utility.yul\":6118:6133   */\n      swap4\n      swap1\n      swap2\n      and\n        /* \"#utility.yul\":6113:6115   */\n      0x40\n        /* \"#utility.yul\":6098:6116   */\n      dup4\n      add\n        /* \"#utility.yul\":6091:6134   */\n      mstore\n        /* \"#utility.yul\":6165:6167   */\n      0x60\n        /* \"#utility.yul\":6150:6168   */\n      dup3\n      add\n        /* \"#utility.yul\":6143:6177   */\n      mstore\n        /* \"#utility.yul\":6208:6211   */\n      0x80\n        /* \"#utility.yul\":6193:6212   */\n      dup2\n      add\n        /* \"#utility.yul\":6186:6221   */\n      swap2\n      swap1\n      swap2\n      mstore\n        /* \"#utility.yul\":5945:5948   */\n      0xa0\n        /* \"#utility.yul\":5930:5949   */\n      add\n        /* \"contracts/Market.sol\":8903:8986  new BetPair(address(this), selectedBet.betAddress, _betAddress, _amountA, _amountB) */\n      mload(0x40)\n      dup1\n      swap2\n      sub\n      swap1\n      0x00\n      create\n      dup1\n      iszero\n      dup1\n      iszero\n      tag_379\n      jumpi\n      returndatasize\n      0x00\n      dup1\n      returndatacopy\n      revert(0x00, returndatasize)\n    tag_379:\n      pop\n        /* \"contracts/Market.sol\":8887:8986  BetPair _pair = new BetPair(address(this), selectedBet.betAddress, _betAddress, _amountA, _amountB) */\n      swap1\n      pop\n        /* \"contracts/Market.sol\":9015:9031  sideABetsPending */\n      0x0a\n        /* \"contracts/Market.sol\":9032:9045  selectedIndex */\n      dup10\n        /* \"contracts/Market.sol\":9015:9046  sideABetsPending[selectedIndex] */\n      dup2\n      sload\n      dup2\n      lt\n      tag_380\n      jumpi\n      mstore(0x00, shl(0xe0, 0x4e487b71))\n      mstore(0x04, 0x32)\n      revert(0x00, 0x24)\n    tag_380:\n      0x00\n      swap2\n      dup3\n      mstore\n      0x20\n      dup3\n      keccak256\n      0x03\n      swap2\n      swap1\n      swap2\n      mul\n      add\n        /* \"contracts/Market.sol\":9008:9046  delete sideABetsPending[selectedIndex] */\n      dup1\n      sload\n      not(sub(shl(0xa0, 0x01), 0x01))\n      and\n      dup2\n      sstore\n      0x01\n      dup2\n      add\n      swap2\n      swap1\n      swap2\n      sstore\n      0x02\n      add\n      dup1\n      sload\n      not(0xff)\n      and\n      swap1\n      sstore\n        /* \"contracts/Market.sol\":9121:9147  _betB.setMatched(_amountB) */\n      mload(0x40)\n      shl(0xe1, 0x2d267e03)\n      dup2\n      mstore\n      0x04\n      dup2\n      add\n        /* \"#utility.yul\":10441:10466   */\n      dup5\n      swap1\n      mstore\n        /* \"contracts/Market.sol\":9087:9098  _betAddress */\n      dup15\n      swap1\n      sub(shl(0xa0, 0x01), 0x01)\n        /* \"contracts/Market.sol\":9121:9137  _betB.setMatched */\n      dup3\n      and\n      swap1\n      0x5a4cfc06\n      swap1\n        /* \"#utility.yul\":10414:10432   */\n      0x24\n      add\n        /* \"contracts/Market.sol\":9121:9147  _betB.setMatched(_amountB) */\n      0x20\n      mload(0x40)\n      dup1\n      dup4\n      sub\n      dup2\n      0x00\n      dup8\n      dup1\n      extcodesize\n      iszero\n      dup1\n      iszero\n      tag_383\n      jumpi\n      0x00\n      dup1\n      revert\n    tag_383:\n      pop\n      gas\n      call\n      iszero\n      dup1\n      iszero\n      tag_385\n      jumpi\n      returndatasize\n      0x00\n      dup1\n      returndatacopy\n      revert(0x00, returndatasize)\n    tag_385:\n      pop\n      pop\n      pop\n      pop\n      mload(0x40)\n      returndatasize\n      not(0x1f)\n      0x1f\n      dup3\n      add\n      and\n      dup3\n      add\n      dup1\n      0x40\n      mstore\n      pop\n      dup2\n      add\n      swap1\n      tag_386\n      swap2\n      swap1\n      tag_139\n      jump\t// in\n    tag_386:\n      pop\n        /* \"contracts/Market.sol\":9169:9198  _betB.addPair(address(_pair)) */\n      mload(0x40)\n      shl(0xe1, 0x615bdddb)\n      dup2\n      mstore\n      sub(shl(0xa0, 0x01), 0x01)\n        /* \"#utility.yul\":5655:5687   */\n      dup4\n      dup2\n      and\n        /* \"contracts/Market.sol\":9169:9198  _betB.addPair(address(_pair)) */\n      0x04\n      dup4\n      add\n        /* \"#utility.yul\":5637:5688   */\n      mstore\n        /* \"contracts/Market.sol\":9169:9182  _betB.addPair */\n      dup3\n      and\n      swap1\n      0xc2b7bbb6\n      swap1\n        /* \"#utility.yul\":5610:5628   */\n      0x24\n      add\n        /* \"contracts/Market.sol\":9169:9198  _betB.addPair(address(_pair)) */\n      0x20\n      mload(0x40)\n      dup1\n      dup4\n      sub\n      dup2\n      0x00\n      dup8\n      dup1\n      extcodesize\n      iszero\n      dup1\n      iszero\n      tag_388\n      jumpi\n      0x00\n      dup1\n      revert\n    tag_388:\n      pop\n      gas\n      call\n      iszero\n      dup1\n      iszero\n      tag_390\n      jumpi\n      returndatasize\n      0x00\n      dup1\n      returndatacopy\n      revert(0x00, returndatasize)\n    tag_390:\n      pop\n      pop\n      pop\n      pop\n      mload(0x40)\n      returndatasize\n      not(0x1f)\n      0x1f\n      dup3\n      add\n      and\n      dup3\n      add\n      dup1\n      0x40\n      mstore\n      pop\n      dup2\n      add\n      swap1\n      tag_391\n      swap2\n      swap1\n      tag_139\n      jump\t// in\n    tag_391:\n      pop\n        /* \"contracts/Market.sol\":9239:9261  selectedBet.betAddress */\n      dup8\n      mload\n        /* \"contracts/Market.sol\":9284:9310  _betA.setMatched(_amountA) */\n      mload(0x40)\n      shl(0xe1, 0x2d267e03)\n      dup2\n      mstore\n      0x04\n      dup2\n      add\n        /* \"#utility.yul\":10441:10466   */\n      dup6\n      swap1\n      mstore\n      sub(shl(0xa0, 0x01), 0x01)\n        /* \"contracts/Market.sol\":9284:9300  _betA.setMatched */\n      dup3\n      and\n      swap1\n      0x5a4cfc06\n      swap1\n        /* \"#utility.yul\":10414:10432   */\n      0x24\n      add\n        /* \"contracts/Market.sol\":9284:9310  _betA.setMatched(_amountA) */\n      0x20\n      mload(0x40)\n      dup1\n      dup4\n      sub\n      dup2\n      0x00\n      dup8\n      dup1\n      extcodesize\n      iszero\n      dup1\n      iszero\n      tag_393\n      jumpi\n      0x00\n      dup1\n      revert\n    tag_393:\n      pop\n      gas\n      call\n      iszero\n      dup1\n      iszero\n      tag_395\n      jumpi\n      returndatasize\n      0x00\n      dup1\n      returndatacopy\n      revert(0x00, returndatasize)\n    tag_395:\n      pop\n      pop\n      pop\n      pop\n      mload(0x40)\n      returndatasize\n      not(0x1f)\n      0x1f\n      dup3\n      add\n      and\n      dup3\n      add\n      dup1\n      0x40\n      mstore\n      pop\n      dup2\n      add\n      swap1\n      tag_396\n      swap2\n      swap1\n      tag_139\n      jump\t// in\n    tag_396:\n      pop\n        /* \"contracts/Market.sol\":9332:9361  _betA.addPair(address(_pair)) */\n      mload(0x40)\n      shl(0xe1, 0x615bdddb)\n      dup2\n      mstore\n      sub(shl(0xa0, 0x01), 0x01)\n        /* \"#utility.yul\":5655:5687   */\n      dup5\n      dup2\n      and\n        /* \"contracts/Market.sol\":9332:9361  _betA.addPair(address(_pair)) */\n      0x04\n      dup4\n      add\n        /* \"#utility.yul\":5637:5688   */\n      mstore\n        /* \"contracts/Market.sol\":9332:9345  _betA.addPair */\n      dup3\n      and\n      swap1\n      0xc2b7bbb6\n      swap1\n        /* \"#utility.yul\":5610:5628   */\n      0x24\n      add\n        /* \"contracts/Market.sol\":9332:9361  _betA.addPair(address(_pair)) */\n      0x20\n      mload(0x40)\n      dup1\n      dup4\n      sub\n      dup2\n      0x00\n      dup8\n      dup1\n      extcodesize\n      iszero\n      dup1\n      iszero\n      tag_398\n      jumpi\n      0x00\n      dup1\n      revert\n    tag_398:\n      pop\n      gas\n      call\n      iszero\n      dup1\n      iszero\n      tag_400\n      jumpi\n      returndatasize\n      0x00\n      dup1\n      returndatacopy\n      revert(0x00, returndatasize)\n    tag_400:\n      pop\n      pop\n      pop\n      pop\n      mload(0x40)\n      returndatasize\n      not(0x1f)\n      0x1f\n      dup3\n      add\n      and\n      dup3\n      add\n      dup1\n      0x40\n      mstore\n      pop\n      dup2\n      add\n      swap1\n      tag_401\n      swap2\n      swap1\n      tag_139\n      jump\t// in\n    tag_401:\n      pop\n        /* \"contracts/Market.sol\":9384:9405  _remStake -= _amountA */\n      tag_402\n        /* \"contracts/Market.sol\":9397:9405  _amountA */\n      dup5\n        /* \"contracts/Market.sol\":9384:9405  _remStake -= _amountA */\n      dup14\n      tag_124\n      jump\t// in\n    tag_402:\n      swap12\n      pop\n        /* \"contracts/Market.sol\":8202:9601  if(maxOdds > _odds) {... */\n      pop\n      pop\n      pop\n      pop\n      pop\n      pop\n      pop\n      pop\n      pop\n      jump(tag_403)\n    tag_363:\n      pop\n      pop\n        /* \"contracts/Market.sol\":9490:9554  MarketBet({betAddress: _betAddress, stake: _stake, odds: _odds}) */\n      0x40\n      dup1\n      mload\n      0x60\n      dup2\n      add\n      dup3\n      mstore\n      sub(shl(0xa0, 0x01), 0x01)\n      dup8\n      dup2\n      and\n      dup3\n      mstore\n      0x20\n      dup3\n      add\n      dup8\n      dup2\n      mstore\n      0xff\n      dup8\n      dup2\n      and\n      swap5\n      dup5\n      add\n      swap5\n      dup6\n      mstore\n        /* \"contracts/Market.sol\":9468:9484  sideBBetsPending */\n      0x0c\n        /* \"contracts/Market.sol\":9468:9555  sideBBetsPending.push(MarketBet({betAddress: _betAddress, stake: _stake, odds: _odds})) */\n      dup1\n      sload\n      0x01\n      dup2\n      add\n      dup3\n      sstore\n      0x00\n      swap2\n      swap1\n      swap2\n      mstore\n      swap4\n      mload\n      0xdf6966c971051c3d54ec59162606531493a51404a002842f56009d7e5cf4a8c7\n      0x03\n      swap1\n      swap6\n      mul\n      swap5\n      dup6\n      add\n      dup1\n      sload\n      not(sub(shl(0xa0, 0x01), 0x01))\n      and\n      swap2\n      swap1\n      swap5\n      and\n      or\n      swap1\n      swap3\n      sstore\n      mload\n      0xdf6966c971051c3d54ec59162606531493a51404a002842f56009d7e5cf4a8c8\n      dup4\n      add\n      sstore\n      swap2\n      mload\n      0xdf6966c971051c3d54ec59162606531493a51404a002842f56009d7e5cf4a8c9\n      swap1\n      swap2\n      add\n      dup1\n      sload\n      not(0xff)\n      and\n      swap2\n      swap1\n      swap3\n      and\n      or\n      swap1\n      sstore\n        /* \"contracts/Market.sol\":9577:9582  break */\n      jump(tag_292)\n        /* \"contracts/Market.sol\":8202:9601  if(maxOdds > _odds) {... */\n    tag_403:\n        /* \"contracts/Market.sol\":7792:9615  while(_remStake >= 1 * 10 ** 18){... */\n      pop\n      pop\n      jump(tag_354)\n        /* \"contracts/Market.sol\":7725:9751  if(betCount > 0){... */\n    tag_353:\n      pop\n        /* \"contracts/Market.sol\":9675:9739  MarketBet({betAddress: _betAddress, stake: _stake, odds: _odds}) */\n      0x40\n      dup1\n      mload\n      0x60\n      dup2\n      add\n      dup3\n      mstore\n      sub(shl(0xa0, 0x01), 0x01)\n      swap5\n      dup6\n      and\n      dup2\n      mstore\n      0x20\n      dup2\n      add\n      swap4\n      dup5\n      mstore\n      0xff\n      swap3\n      dup4\n      and\n      swap2\n      dup2\n      add\n      swap2\n      dup3\n      mstore\n        /* \"contracts/Market.sol\":9653:9669  sideBBetsPending */\n      0x0c\n        /* \"contracts/Market.sol\":9653:9740  sideBBetsPending.push(MarketBet({betAddress: _betAddress, stake: _stake, odds: _odds})) */\n      dup1\n      sload\n      0x01\n      dup2\n      add\n      dup3\n      sstore\n      0x00\n      swap2\n      swap1\n      swap2\n      mstore\n      swap1\n      mload\n      0xdf6966c971051c3d54ec59162606531493a51404a002842f56009d7e5cf4a8c7\n      0x03\n      swap1\n      swap3\n      mul\n      swap2\n      dup3\n      add\n      dup1\n      sload\n      not(sub(shl(0xa0, 0x01), 0x01))\n      and\n      swap2\n      swap1\n      swap7\n      and\n      or\n      swap1\n      swap5\n      sstore\n      swap2\n      mload\n      0xdf6966c971051c3d54ec59162606531493a51404a002842f56009d7e5cf4a8c8\n      dup5\n      add\n      sstore\n      swap1\n      mload\n      0xdf6966c971051c3d54ec59162606531493a51404a002842f56009d7e5cf4a8c9\n      swap1\n      swap3\n      add\n      dup1\n      sload\n      not(0xff)\n      and\n      swap3\n      swap1\n      swap2\n      and\n      swap2\n      swap1\n      swap2\n      or\n      swap1\n      sstore\n        /* \"contracts/Market.sol\":7571:9773  function _matchSideBBet(address _betAddress, uint256 _stake, uint8 _odds)... */\n      jump\t// out\n        /* \"@openzeppelin/contracts/token/ERC20/utils/SafeERC20.sol\":3747:4453  function _callOptionalReturn(IERC20 token, bytes memory data) private {... */\n    tag_284:\n        /* \"@openzeppelin/contracts/token/ERC20/utils/SafeERC20.sol\":4166:4189  bytes memory returndata */\n      0x00\n        /* \"@openzeppelin/contracts/token/ERC20/utils/SafeERC20.sol\":4192:4261  address(token).functionCall(data, \"SafeERC20: low-level call failed\") */\n      tag_408\n        /* \"@openzeppelin/contracts/token/ERC20/utils/SafeERC20.sol\":4220:4224  data */\n      dup3\n        /* \"@openzeppelin/contracts/token/ERC20/utils/SafeERC20.sol\":4192:4261  address(token).functionCall(data, \"SafeERC20: low-level call failed\") */\n      mload(0x40)\n      dup1\n      0x40\n      add\n      0x40\n      mstore\n      dup1\n      0x20\n      dup2\n      mstore\n      0x20\n      add\n      0x5361666545524332303a206c6f772d6c6576656c2063616c6c206661696c6564\n      dup2\n      mstore\n      pop\n        /* \"@openzeppelin/contracts/token/ERC20/utils/SafeERC20.sol\":4200:4205  token */\n      dup6\n      sub(shl(0xa0, 0x01), 0x01)\n        /* \"@openzeppelin/contracts/token/ERC20/utils/SafeERC20.sol\":4192:4219  address(token).functionCall */\n      and\n      tag_409\n      swap1\n        /* \"@openzeppelin/contracts/token/ERC20/utils/SafeERC20.sol\":4192:4261  address(token).functionCall(data, \"SafeERC20: low-level call failed\") */\n      swap3\n      swap2\n      swap1\n      0xffffffff\n      and\n      jump\t// in\n    tag_408:\n        /* \"@openzeppelin/contracts/token/ERC20/utils/SafeERC20.sol\":4275:4292  returndata.length */\n      dup1\n      mload\n        /* \"@openzeppelin/contracts/token/ERC20/utils/SafeERC20.sol\":4166:4261  bytes memory returndata = address(token).functionCall(data, \"SafeERC20: low-level call failed\") */\n      swap1\n      swap2\n      pop\n        /* \"@openzeppelin/contracts/token/ERC20/utils/SafeERC20.sol\":4275:4296  returndata.length > 0 */\n      iszero\n        /* \"@openzeppelin/contracts/token/ERC20/utils/SafeERC20.sol\":4271:4447  if (returndata.length > 0) {... */\n      tag_281\n      jumpi\n        /* \"@openzeppelin/contracts/token/ERC20/utils/SafeERC20.sol\":4370:4380  returndata */\n      dup1\n        /* \"@openzeppelin/contracts/token/ERC20/utils/SafeERC20.sol\":4359:4389  abi.decode(returndata, (bool)) */\n      dup1\n      0x20\n      add\n      swap1\n      mload\n      dup2\n      add\n      swap1\n      tag_411\n      swap2\n      swap1\n      tag_139\n      jump\t// in\n    tag_411:\n        /* \"@openzeppelin/contracts/token/ERC20/utils/SafeERC20.sol\":4351:4436  require(abi.decode(returndata, (bool)), \"SafeERC20: ERC20 operation did not succeed\") */\n      tag_281\n      jumpi\n      mload(0x40)\n      shl(0xe5, 0x461bcd)\n      dup2\n      mstore\n        /* \"#utility.yul\":10086:10088   */\n      0x20\n        /* \"@openzeppelin/contracts/token/ERC20/utils/SafeERC20.sol\":4351:4436  require(abi.decode(returndata, (bool)), \"SafeERC20: ERC20 operation did not succeed\") */\n      0x04\n      dup3\n      add\n        /* \"#utility.yul\":10068:10089   */\n      mstore\n        /* \"#utility.yul\":10125:10127   */\n      0x2a\n        /* \"#utility.yul\":10105:10123   */\n      0x24\n      dup3\n      add\n        /* \"#utility.yul\":10098:10128   */\n      mstore\n        /* \"#utility.yul\":10164:10198   */\n      0x5361666545524332303a204552433230206f7065726174696f6e20646964206e\n        /* \"#utility.yul\":10144:10162   */\n      0x44\n      dup3\n      add\n        /* \"#utility.yul\":10137:10199   */\n      mstore\n      shl(0xb2, 0x1bdd081cdd58d8d95959)\n        /* \"#utility.yul\":10215:10233   */\n      0x64\n      dup3\n      add\n        /* \"#utility.yul\":10208:10248   */\n      mstore\n        /* \"#utility.yul\":10265:10284   */\n      0x84\n      add\n        /* \"@openzeppelin/contracts/token/ERC20/utils/SafeERC20.sol\":4351:4436  require(abi.decode(returndata, (bool)), \"SafeERC20: ERC20 operation did not succeed\") */\n      tag_112\n        /* \"#utility.yul\":10058:10290   */\n      jump\n        /* \"@openzeppelin/contracts/utils/Address.sol\":3861:4084  function functionCall(... */\n    tag_409:\n        /* \"@openzeppelin/contracts/utils/Address.sol\":3994:4006  bytes memory */\n      0x60\n        /* \"@openzeppelin/contracts/utils/Address.sol\":4025:4077  functionCallWithValue(target, data, 0, errorMessage) */\n      tag_416\n        /* \"@openzeppelin/contracts/utils/Address.sol\":4047:4053  target */\n      dup5\n        /* \"@openzeppelin/contracts/utils/Address.sol\":4055:4059  data */\n      dup5\n        /* \"@openzeppelin/contracts/utils/Address.sol\":4061:4062  0 */\n      0x00\n        /* \"@openzeppelin/contracts/utils/Address.sol\":4064:4076  errorMessage */\n      dup6\n        /* \"@openzeppelin/contracts/utils/Address.sol\":4025:4046  functionCallWithValue */\n      tag_417\n        /* \"@openzeppelin/contracts/utils/Address.sol\":4025:4077  functionCallWithValue(target, data, 0, errorMessage) */\n      jump\t// in\n    tag_416:\n        /* \"@openzeppelin/contracts/utils/Address.sol\":4018:4077  return functionCallWithValue(target, data, 0, errorMessage) */\n      swap5\n        /* \"@openzeppelin/contracts/utils/Address.sol\":3861:4084  function functionCall(... */\n      swap4\n      pop\n      pop\n      pop\n      pop\n      jump\t// out\n        /* \"@openzeppelin/contracts/utils/Address.sol\":4948:5447  function functionCallWithValue(... */\n    tag_417:\n        /* \"@openzeppelin/contracts/utils/Address.sol\":5113:5125  bytes memory */\n      0x60\n        /* \"@openzeppelin/contracts/utils/Address.sol\":5170:5175  value */\n      dup3\n        /* \"@openzeppelin/contracts/utils/Address.sol\":5145:5166  address(this).balance */\n      selfbalance\n        /* \"@openzeppelin/contracts/utils/Address.sol\":5145:5175  address(this).balance >= value */\n      lt\n      iszero\n        /* \"@openzeppelin/contracts/utils/Address.sol\":5137:5218  require(address(this).balance >= value, \"Address: insufficient balance for call\") */\n      tag_419\n      jumpi\n      mload(0x40)\n      shl(0xe5, 0x461bcd)\n      dup2\n      mstore\n        /* \"#utility.yul\":8651:8653   */\n      0x20\n        /* \"@openzeppelin/contracts/utils/Address.sol\":5137:5218  require(address(this).balance >= value, \"Address: insufficient balance for call\") */\n      0x04\n      dup3\n      add\n        /* \"#utility.yul\":8633:8654   */\n      mstore\n        /* \"#utility.yul\":8690:8692   */\n      0x26\n        /* \"#utility.yul\":8670:8688   */\n      0x24\n      dup3\n      add\n        /* \"#utility.yul\":8663:8693   */\n      mstore\n        /* \"#utility.yul\":8729:8763   */\n      0x416464726573733a20696e73756666696369656e742062616c616e636520666f\n        /* \"#utility.yul\":8709:8727   */\n      0x44\n      dup3\n      add\n        /* \"#utility.yul\":8702:8764   */\n      mstore\n      shl(0xd2, 0x1c8818d85b1b)\n        /* \"#utility.yul\":8780:8798   */\n      0x64\n      dup3\n      add\n        /* \"#utility.yul\":8773:8809   */\n      mstore\n        /* \"#utility.yul\":8826:8845   */\n      0x84\n      add\n        /* \"@openzeppelin/contracts/utils/Address.sol\":5137:5218  require(address(this).balance >= value, \"Address: insufficient balance for call\") */\n      tag_112\n        /* \"#utility.yul\":8623:8851   */\n      jump\n        /* \"@openzeppelin/contracts/utils/Address.sol\":5137:5218  require(address(this).balance >= value, \"Address: insufficient balance for call\") */\n    tag_419:\n      sub(shl(0xa0, 0x01), 0x01)\n        /* \"@openzeppelin/contracts/utils/Address.sol\":1465:1484  account.code.length */\n      dup6\n      and\n      extcodesize\n        /* \"@openzeppelin/contracts/utils/Address.sol\":5228:5288  require(isContract(target), \"Address: call to non-contract\") */\n      tag_424\n      jumpi\n      mload(0x40)\n      shl(0xe5, 0x461bcd)\n      dup2\n      mstore\n        /* \"#utility.yul\":9391:9393   */\n      0x20\n        /* \"@openzeppelin/contracts/utils/Address.sol\":5228:5288  require(isContract(target), \"Address: call to non-contract\") */\n      0x04\n      dup3\n      add\n        /* \"#utility.yul\":9373:9394   */\n      mstore\n        /* \"#utility.yul\":9430:9432   */\n      0x1d\n        /* \"#utility.yul\":9410:9428   */\n      0x24\n      dup3\n      add\n        /* \"#utility.yul\":9403:9433   */\n      mstore\n        /* \"#utility.yul\":9469:9500   */\n      0x416464726573733a2063616c6c20746f206e6f6e2d636f6e7472616374000000\n        /* \"#utility.yul\":9449:9467   */\n      0x44\n      dup3\n      add\n        /* \"#utility.yul\":9442:9501   */\n      mstore\n        /* \"#utility.yul\":9518:9536   */\n      0x64\n      add\n        /* \"@openzeppelin/contracts/utils/Address.sol\":5228:5288  require(isContract(target), \"Address: call to non-contract\") */\n      tag_112\n        /* \"#utility.yul\":9363:9542   */\n      jump\n        /* \"@openzeppelin/contracts/utils/Address.sol\":5228:5288  require(isContract(target), \"Address: call to non-contract\") */\n    tag_424:\n        /* \"@openzeppelin/contracts/utils/Address.sol\":5300:5312  bool success */\n      0x00\n        /* \"@openzeppelin/contracts/utils/Address.sol\":5314:5337  bytes memory returndata */\n      dup1\n        /* \"@openzeppelin/contracts/utils/Address.sol\":5341:5347  target */\n      dup7\n      sub(shl(0xa0, 0x01), 0x01)\n        /* \"@openzeppelin/contracts/utils/Address.sol\":5341:5352  target.call */\n      and\n        /* \"@openzeppelin/contracts/utils/Address.sol\":5360:5365  value */\n      dup6\n        /* \"@openzeppelin/contracts/utils/Address.sol\":5367:5371  data */\n      dup8\n        /* \"@openzeppelin/contracts/utils/Address.sol\":5341:5372  target.call{value: value}(data) */\n      mload(0x40)\n      tag_427\n      swap2\n      swap1\n      tag_428\n      jump\t// in\n    tag_427:\n      0x00\n      mload(0x40)\n      dup1\n      dup4\n      sub\n      dup2\n      dup6\n      dup8\n      gas\n      call\n      swap3\n      pop\n      pop\n      pop\n      returndatasize\n      dup1\n      0x00\n      dup2\n      eq\n      tag_431\n      jumpi\n      mload(0x40)\n      swap2\n      pop\n      and(add(returndatasize, 0x3f), not(0x1f))\n      dup3\n      add\n      0x40\n      mstore\n      returndatasize\n      dup3\n      mstore\n      returndatasize\n      0x00\n      0x20\n      dup5\n      add\n      returndatacopy\n      jump(tag_430)\n    tag_431:\n      0x60\n      swap2\n      pop\n    tag_430:\n      pop\n        /* \"@openzeppelin/contracts/utils/Address.sol\":5299:5372  (bool success, bytes memory returndata) = target.call{value: value}(data) */\n      swap2\n      pop\n      swap2\n      pop\n        /* \"@openzeppelin/contracts/utils/Address.sol\":5389:5440  verifyCallResult(success, returndata, errorMessage) */\n      tag_432\n        /* \"@openzeppelin/contracts/utils/Address.sol\":5406:5413  success */\n      dup3\n        /* \"@openzeppelin/contracts/utils/Address.sol\":5415:5425  returndata */\n      dup3\n        /* \"@openzeppelin/contracts/utils/Address.sol\":5427:5439  errorMessage */\n      dup7\n        /* \"@openzeppelin/contracts/utils/Address.sol\":5389:5405  verifyCallResult */\n      tag_433\n        /* \"@openzeppelin/contracts/utils/Address.sol\":5389:5440  verifyCallResult(success, returndata, errorMessage) */\n      jump\t// in\n    tag_432:\n        /* \"@openzeppelin/contracts/utils/Address.sol\":5382:5440  return verifyCallResult(success, returndata, errorMessage) */\n      swap8\n        /* \"@openzeppelin/contracts/utils/Address.sol\":4948:5447  function functionCallWithValue(... */\n      swap7\n      pop\n      pop\n      pop\n      pop\n      pop\n      pop\n      pop\n      jump\t// out\n        /* \"@openzeppelin/contracts/utils/Address.sol\":7561:8303  function verifyCallResult(... */\n    tag_433:\n        /* \"@openzeppelin/contracts/utils/Address.sol\":7707:7719  bytes memory */\n      0x60\n        /* \"@openzeppelin/contracts/utils/Address.sol\":7735:7742  success */\n      dup4\n        /* \"@openzeppelin/contracts/utils/Address.sol\":7731:8297  if (success) {... */\n      iszero\n      tag_436\n      jumpi\n      pop\n        /* \"@openzeppelin/contracts/utils/Address.sol\":7765:7775  returndata */\n      dup2\n        /* \"@openzeppelin/contracts/utils/Address.sol\":7758:7775  return returndata */\n      jump(tag_229)\n        /* \"@openzeppelin/contracts/utils/Address.sol\":7731:8297  if (success) {... */\n    tag_436:\n        /* \"@openzeppelin/contracts/utils/Address.sol\":7876:7893  returndata.length */\n      dup3\n      mload\n        /* \"@openzeppelin/contracts/utils/Address.sol\":7876:7897  returndata.length > 0 */\n      iszero\n        /* \"@openzeppelin/contracts/utils/Address.sol\":7872:8287  if (returndata.length > 0) {... */\n      tag_438\n      jumpi\n        /* \"@openzeppelin/contracts/utils/Address.sol\":8120:8130  returndata */\n      dup3\n        /* \"@openzeppelin/contracts/utils/Address.sol\":8114:8131  mload(returndata) */\n      mload\n        /* \"@openzeppelin/contracts/utils/Address.sol\":8180:8195  returndata_size */\n      dup1\n        /* \"@openzeppelin/contracts/utils/Address.sol\":8167:8177  returndata */\n      dup5\n        /* \"@openzeppelin/contracts/utils/Address.sol\":8163:8165  32 */\n      0x20\n        /* \"@openzeppelin/contracts/utils/Address.sol\":8159:8178  add(32, returndata) */\n      add\n        /* \"@openzeppelin/contracts/utils/Address.sol\":8152:8196  revert(add(32, returndata), returndata_size) */\n      revert\n        /* \"@openzeppelin/contracts/utils/Address.sol\":8069:8214  {... */\n    tag_438:\n        /* \"@openzeppelin/contracts/utils/Address.sol\":8259:8271  errorMessage */\n      dup2\n        /* \"@openzeppelin/contracts/utils/Address.sol\":8252:8272  revert(errorMessage) */\n      mload(0x40)\n      shl(0xe5, 0x461bcd)\n      dup2\n      mstore\n      0x04\n      add\n      tag_112\n      swap2\n      swap1\n      tag_35\n      jump\t// in\n    tag_231:\n      dup3\n      dup1\n      sload\n      tag_441\n      swap1\n      tag_141\n      jump\t// in\n    tag_441:\n      swap1\n      0x00\n      mstore\n      keccak256(0x00, 0x20)\n      swap1\n      0x1f\n      add\n      0x20\n      swap1\n      div\n      dup2\n      add\n      swap3\n      dup3\n      tag_443\n      jumpi\n      0x00\n      dup6\n      sstore\n      jump(tag_446)\n    tag_443:\n      dup3\n      0x1f\n      lt\n      tag_444\n      jumpi\n      dup1\n      mload\n      not(0xff)\n      and\n      dup4\n      dup1\n      add\n      or\n      dup6\n      sstore\n      jump(tag_446)\n    tag_444:\n      dup3\n      dup1\n      add\n      0x01\n      add\n      dup6\n      sstore\n      dup3\n      iszero\n      tag_446\n      jumpi\n      swap2\n      dup3\n      add\n    tag_445:\n      dup3\n      dup2\n      gt\n      iszero\n      tag_446\n      jumpi\n      dup3\n      mload\n      dup3\n      sstore\n      swap2\n      0x20\n      add\n      swap2\n      swap1\n      0x01\n      add\n      swap1\n      jump(tag_445)\n    tag_446:\n      pop\n      tag_447\n      swap3\n      swap2\n      pop\n      tag_448\n      jump\t// in\n    tag_447:\n      pop\n      swap1\n      jump\t// out\n    tag_317:\n      dataSize(sub_0)\n      dup1\n      dataOffset(sub_0)\n      dup4\n      codecopy\n      add\n      swap1\n      jump\t// out\n    tag_448:\n    tag_449:\n      dup1\n      dup3\n      gt\n      iszero\n      tag_447\n      jumpi\n      0x00\n      dup2\n      sstore\n      0x01\n      add\n      jump(tag_449)\n        /* \"#utility.yul\":14:498   */\n    tag_452:\n        /* \"#utility.yul\":57:62   */\n      0x00\n        /* \"#utility.yul\":110:113   */\n      dup3\n        /* \"#utility.yul\":103:107   */\n      0x1f\n        /* \"#utility.yul\":95:101   */\n      dup4\n        /* \"#utility.yul\":91:108   */\n      add\n        /* \"#utility.yul\":87:114   */\n      slt\n        /* \"#utility.yul\":77:79   */\n      tag_454\n      jumpi\n        /* \"#utility.yul\":132:137   */\n      dup1\n        /* \"#utility.yul\":125:130   */\n      dup2\n        /* \"#utility.yul\":118:138   */\n      revert\n        /* \"#utility.yul\":77:79   */\n    tag_454:\n        /* \"#utility.yul\":172:178   */\n      dup2\n        /* \"#utility.yul\":159:179   */\n      calldataload\n        /* \"#utility.yul\":203:252   */\n      tag_455\n        /* \"#utility.yul\":219:251   */\n      tag_456\n        /* \"#utility.yul\":248:250   */\n      dup3\n        /* \"#utility.yul\":219:251   */\n      tag_457\n      jump\t// in\n    tag_456:\n        /* \"#utility.yul\":203:252   */\n      tag_458\n      jump\t// in\n    tag_455:\n        /* \"#utility.yul\":277:279   */\n      dup2\n        /* \"#utility.yul\":268:275   */\n      dup2\n        /* \"#utility.yul\":261:280   */\n      mstore\n        /* \"#utility.yul\":323:326   */\n      dup5\n        /* \"#utility.yul\":316:320   */\n      0x20\n        /* \"#utility.yul\":311:313   */\n      dup4\n        /* \"#utility.yul\":303:309   */\n      dup7\n        /* \"#utility.yul\":299:314   */\n      add\n        /* \"#utility.yul\":295:321   */\n      add\n        /* \"#utility.yul\":292:327   */\n      gt\n        /* \"#utility.yul\":289:291   */\n      iszero\n      tag_459\n      jumpi\n        /* \"#utility.yul\":344:349   */\n      dup3\n        /* \"#utility.yul\":337:342   */\n      dup4\n        /* \"#utility.yul\":330:350   */\n      revert\n        /* \"#utility.yul\":289:291   */\n    tag_459:\n        /* \"#utility.yul\":413:415   */\n      dup2\n        /* \"#utility.yul\":406:410   */\n      0x20\n        /* \"#utility.yul\":398:404   */\n      dup6\n        /* \"#utility.yul\":394:411   */\n      add\n        /* \"#utility.yul\":387:391   */\n      0x20\n        /* \"#utility.yul\":378:385   */\n      dup4\n        /* \"#utility.yul\":374:392   */\n      add\n        /* \"#utility.yul\":361:416   */\n      calldatacopy\n        /* \"#utility.yul\":436:452   */\n      swap1\n      dup2\n      add\n        /* \"#utility.yul\":454:458   */\n      0x20\n        /* \"#utility.yul\":432:459   */\n      add\n        /* \"#utility.yul\":425:467   */\n      swap2\n      swap1\n      swap2\n      mstore\n        /* \"#utility.yul\":440:447   */\n      swap3\n        /* \"#utility.yul\":67:498   */\n      swap2\n      pop\n      pop\n      jump\t// out\n        /* \"#utility.yul\":503:760   */\n    tag_28:\n        /* \"#utility.yul\":562:568   */\n      0x00\n        /* \"#utility.yul\":615:617   */\n      0x20\n        /* \"#utility.yul\":603:612   */\n      dup3\n        /* \"#utility.yul\":594:601   */\n      dup5\n        /* \"#utility.yul\":590:613   */\n      sub\n        /* \"#utility.yul\":586:618   */\n      slt\n        /* \"#utility.yul\":583:585   */\n      iszero\n      tag_461\n      jumpi\n        /* \"#utility.yul\":636:642   */\n      dup1\n        /* \"#utility.yul\":628:634   */\n      dup2\n        /* \"#utility.yul\":621:643   */\n      revert\n        /* \"#utility.yul\":583:585   */\n    tag_461:\n        /* \"#utility.yul\":680:689   */\n      dup2\n        /* \"#utility.yul\":667:690   */\n      calldataload\n        /* \"#utility.yul\":699:730   */\n      tag_229\n        /* \"#utility.yul\":724:729   */\n      dup2\n        /* \"#utility.yul\":699:730   */\n      tag_463\n      jump\t// in\n        /* \"#utility.yul\":765:1026   */\n    tag_110:\n        /* \"#utility.yul\":835:841   */\n      0x00\n        /* \"#utility.yul\":888:890   */\n      0x20\n        /* \"#utility.yul\":876:885   */\n      dup3\n        /* \"#utility.yul\":867:874   */\n      dup5\n        /* \"#utility.yul\":863:886   */\n      sub\n        /* \"#utility.yul\":859:891   */\n      slt\n        /* \"#utility.yul\":856:858   */\n      iszero\n      tag_465\n      jumpi\n        /* \"#utility.yul\":909:915   */\n      dup1\n        /* \"#utility.yul\":901:907   */\n      dup2\n        /* \"#utility.yul\":894:916   */\n      revert\n        /* \"#utility.yul\":856:858   */\n    tag_465:\n        /* \"#utility.yul\":946:955   */\n      dup2\n        /* \"#utility.yul\":940:956   */\n      mload\n        /* \"#utility.yul\":965:996   */\n      tag_229\n        /* \"#utility.yul\":990:995   */\n      dup2\n        /* \"#utility.yul\":965:996   */\n      tag_463\n      jump\t// in\n        /* \"#utility.yul\":1031:1894   */\n    tag_77:\n        /* \"#utility.yul\":1134:1140   */\n      0x00\n        /* \"#utility.yul\":1142:1148   */\n      dup1\n        /* \"#utility.yul\":1150:1156   */\n      0x00\n        /* \"#utility.yul\":1158:1164   */\n      dup1\n        /* \"#utility.yul\":1166:1172   */\n      0x00\n        /* \"#utility.yul\":1219:1222   */\n      0xa0\n        /* \"#utility.yul\":1207:1216   */\n      dup7\n        /* \"#utility.yul\":1198:1205   */\n      dup9\n        /* \"#utility.yul\":1194:1217   */\n      sub\n        /* \"#utility.yul\":1190:1223   */\n      slt\n        /* \"#utility.yul\":1187:1189   */\n      iszero\n      tag_468\n      jumpi\n        /* \"#utility.yul\":1241:1247   */\n      dup1\n        /* \"#utility.yul\":1233:1239   */\n      dup2\n        /* \"#utility.yul\":1226:1248   */\n      revert\n        /* \"#utility.yul\":1187:1189   */\n    tag_468:\n        /* \"#utility.yul\":1285:1294   */\n      dup6\n        /* \"#utility.yul\":1272:1295   */\n      calldataload\n        /* \"#utility.yul\":1304:1335   */\n      tag_469\n        /* \"#utility.yul\":1329:1334   */\n      dup2\n        /* \"#utility.yul\":1304:1335   */\n      tag_463\n      jump\t// in\n    tag_469:\n        /* \"#utility.yul\":1354:1359   */\n      swap5\n      pop\n        /* \"#utility.yul\":1411:1413   */\n      0x20\n        /* \"#utility.yul\":1396:1414   */\n      dup7\n      add\n        /* \"#utility.yul\":1383:1415   */\n      calldataload\n        /* \"#utility.yul\":1424:1457   */\n      tag_470\n        /* \"#utility.yul\":1383:1415   */\n      dup2\n        /* \"#utility.yul\":1424:1457   */\n      tag_463\n      jump\t// in\n    tag_470:\n        /* \"#utility.yul\":1476:1483   */\n      swap4\n      pop\n        /* \"#utility.yul\":1530:1532   */\n      0x40\n        /* \"#utility.yul\":1515:1533   */\n      dup7\n      add\n        /* \"#utility.yul\":1502:1534   */\n      calldataload\n      swap3\n      pop\n        /* \"#utility.yul\":1586:1588   */\n      0x60\n        /* \"#utility.yul\":1571:1589   */\n      dup7\n      add\n        /* \"#utility.yul\":1558:1590   */\n      calldataload\n        /* \"#utility.yul\":1634:1638   */\n      0xff\n        /* \"#utility.yul\":1621:1639   */\n      dup2\n      and\n        /* \"#utility.yul\":1609:1640   */\n      dup2\n      eq\n        /* \"#utility.yul\":1599:1601   */\n      tag_471\n      jumpi\n        /* \"#utility.yul\":1659:1665   */\n      dup2\n        /* \"#utility.yul\":1651:1657   */\n      dup3\n        /* \"#utility.yul\":1644:1666   */\n      revert\n        /* \"#utility.yul\":1599:1601   */\n    tag_471:\n        /* \"#utility.yul\":1687:1694   */\n      swap2\n      pop\n        /* \"#utility.yul\":1745:1748   */\n      0x80\n        /* \"#utility.yul\":1730:1749   */\n      dup7\n      add\n        /* \"#utility.yul\":1717:1750   */\n      calldataload\n        /* \"#utility.yul\":1773:1791   */\n      0xffffffffffffffff\n        /* \"#utility.yul\":1762:1792   */\n      dup2\n      gt\n        /* \"#utility.yul\":1759:1761   */\n      iszero\n      tag_472\n      jumpi\n        /* \"#utility.yul\":1810:1816   */\n      dup2\n        /* \"#utility.yul\":1802:1808   */\n      dup3\n        /* \"#utility.yul\":1795:1817   */\n      revert\n        /* \"#utility.yul\":1759:1761   */\n    tag_472:\n        /* \"#utility.yul\":1838:1888   */\n      tag_473\n        /* \"#utility.yul\":1880:1887   */\n      dup9\n        /* \"#utility.yul\":1871:1877   */\n      dup3\n        /* \"#utility.yul\":1860:1869   */\n      dup10\n        /* \"#utility.yul\":1856:1878   */\n      add\n        /* \"#utility.yul\":1838:1888   */\n      tag_452\n      jump\t// in\n    tag_473:\n        /* \"#utility.yul\":1828:1888   */\n      swap2\n      pop\n      pop\n        /* \"#utility.yul\":1177:1894   */\n      swap3\n      swap6\n      pop\n      swap3\n      swap6\n      swap1\n      swap4\n      pop\n      jump\t// out\n        /* \"#utility.yul\":1899:2196   */\n    tag_139:\n        /* \"#utility.yul\":1966:1972   */\n      0x00\n        /* \"#utility.yul\":2019:2021   */\n      0x20\n        /* \"#utility.yul\":2007:2016   */\n      dup3\n        /* \"#utility.yul\":1998:2005   */\n      dup5\n        /* \"#utility.yul\":1994:2017   */\n      sub\n        /* \"#utility.yul\":1990:2022   */\n      slt\n        /* \"#utility.yul\":1987:1989   */\n      iszero\n      tag_475\n      jumpi\n        /* \"#utility.yul\":2040:2046   */\n      dup1\n        /* \"#utility.yul\":2032:2038   */\n      dup2\n        /* \"#utility.yul\":2025:2047   */\n      revert\n        /* \"#utility.yul\":1987:1989   */\n    tag_475:\n        /* \"#utility.yul\":2077:2086   */\n      dup2\n        /* \"#utility.yul\":2071:2087   */\n      mload\n        /* \"#utility.yul\":2130:2135   */\n      dup1\n        /* \"#utility.yul\":2123:2136   */\n      iszero\n        /* \"#utility.yul\":2116:2137   */\n      iszero\n        /* \"#utility.yul\":2109:2114   */\n      dup2\n        /* \"#utility.yul\":2106:2138   */\n      eq\n        /* \"#utility.yul\":2096:2098   */\n      tag_229\n      jumpi\n        /* \"#utility.yul\":2157:2163   */\n      dup2\n        /* \"#utility.yul\":2149:2155   */\n      dup3\n        /* \"#utility.yul\":2142:2164   */\n      revert\n        /* \"#utility.yul\":2201:2543   */\n    tag_85:\n        /* \"#utility.yul\":2270:2276   */\n      0x00\n        /* \"#utility.yul\":2323:2325   */\n      0x20\n        /* \"#utility.yul\":2311:2320   */\n      dup3\n        /* \"#utility.yul\":2302:2309   */\n      dup5\n        /* \"#utility.yul\":2298:2321   */\n      sub\n        /* \"#utility.yul\":2294:2326   */\n      slt\n        /* \"#utility.yul\":2291:2293   */\n      iszero\n      tag_478\n      jumpi\n        /* \"#utility.yul\":2344:2350   */\n      dup1\n        /* \"#utility.yul\":2336:2342   */\n      dup2\n        /* \"#utility.yul\":2329:2351   */\n      revert\n        /* \"#utility.yul\":2291:2293   */\n    tag_478:\n        /* \"#utility.yul\":2389:2398   */\n      dup2\n        /* \"#utility.yul\":2376:2399   */\n      calldataload\n        /* \"#utility.yul\":2422:2440   */\n      0xffffffffffffffff\n        /* \"#utility.yul\":2414:2420   */\n      dup2\n        /* \"#utility.yul\":2411:2441   */\n      gt\n        /* \"#utility.yul\":2408:2410   */\n      iszero\n      tag_479\n      jumpi\n        /* \"#utility.yul\":2459:2465   */\n      dup2\n        /* \"#utility.yul\":2451:2457   */\n      dup3\n        /* \"#utility.yul\":2444:2466   */\n      revert\n        /* \"#utility.yul\":2408:2410   */\n    tag_479:\n        /* \"#utility.yul\":2487:2537   */\n      tag_416\n        /* \"#utility.yul\":2529:2536   */\n      dup5\n        /* \"#utility.yul\":2520:2526   */\n      dup3\n        /* \"#utility.yul\":2509:2518   */\n      dup6\n        /* \"#utility.yul\":2505:2527   */\n      add\n        /* \"#utility.yul\":2487:2537   */\n      tag_452\n      jump\t// in\n        /* \"#utility.yul\":2548:3224   */\n    tag_186:\n        /* \"#utility.yul\":2628:2634   */\n      0x00\n        /* \"#utility.yul\":2681:2683   */\n      0x20\n        /* \"#utility.yul\":2669:2678   */\n      dup3\n        /* \"#utility.yul\":2660:2667   */\n      dup5\n        /* \"#utility.yul\":2656:2679   */\n      sub\n        /* \"#utility.yul\":2652:2684   */\n      slt\n        /* \"#utility.yul\":2649:2651   */\n      iszero\n      tag_482\n      jumpi\n        /* \"#utility.yul\":2702:2708   */\n      dup1\n        /* \"#utility.yul\":2694:2700   */\n      dup2\n        /* \"#utility.yul\":2687:2709   */\n      revert\n        /* \"#utility.yul\":2649:2651   */\n    tag_482:\n        /* \"#utility.yul\":2740:2749   */\n      dup2\n        /* \"#utility.yul\":2734:2750   */\n      mload\n        /* \"#utility.yul\":2773:2791   */\n      0xffffffffffffffff\n        /* \"#utility.yul\":2765:2771   */\n      dup2\n        /* \"#utility.yul\":2762:2792   */\n      gt\n        /* \"#utility.yul\":2759:2761   */\n      iszero\n      tag_483\n      jumpi\n        /* \"#utility.yul\":2810:2816   */\n      dup2\n        /* \"#utility.yul\":2802:2808   */\n      dup3\n        /* \"#utility.yul\":2795:2817   */\n      revert\n        /* \"#utility.yul\":2759:2761   */\n    tag_483:\n        /* \"#utility.yul\":2838:2860   */\n      dup3\n      add\n        /* \"#utility.yul\":2891:2895   */\n      0x1f\n        /* \"#utility.yul\":2883:2896   */\n      dup2\n      add\n        /* \"#utility.yul\":2879:2906   */\n      dup5\n      sgt\n        /* \"#utility.yul\":2869:2871   */\n      tag_484\n      jumpi\n        /* \"#utility.yul\":2925:2931   */\n      dup2\n        /* \"#utility.yul\":2917:2923   */\n      dup3\n        /* \"#utility.yul\":2910:2932   */\n      revert\n        /* \"#utility.yul\":2869:2871   */\n    tag_484:\n        /* \"#utility.yul\":2959:2961   */\n      dup1\n        /* \"#utility.yul\":2953:2962   */\n      mload\n        /* \"#utility.yul\":2984:3033   */\n      tag_485\n        /* \"#utility.yul\":3000:3032   */\n      tag_456\n        /* \"#utility.yul\":3029:3031   */\n      dup3\n        /* \"#utility.yul\":3000:3032   */\n      tag_457\n      jump\t// in\n        /* \"#utility.yul\":2984:3033   */\n    tag_485:\n        /* \"#utility.yul\":3056:3058   */\n      dup2\n        /* \"#utility.yul\":3049:3054   */\n      dup2\n        /* \"#utility.yul\":3042:3059   */\n      mstore\n        /* \"#utility.yul\":3096:3103   */\n      dup6\n        /* \"#utility.yul\":3091:3093   */\n      0x20\n        /* \"#utility.yul\":3086:3088   */\n      dup4\n        /* \"#utility.yul\":3082:3084   */\n      dup6\n        /* \"#utility.yul\":3078:3089   */\n      add\n        /* \"#utility.yul\":3074:3094   */\n      add\n        /* \"#utility.yul\":3071:3104   */\n      gt\n        /* \"#utility.yul\":3068:3070   */\n      iszero\n      tag_487\n      jumpi\n        /* \"#utility.yul\":3122:3128   */\n      dup4\n        /* \"#utility.yul\":3114:3120   */\n      dup5\n        /* \"#utility.yul\":3107:3129   */\n      revert\n        /* \"#utility.yul\":3068:3070   */\n    tag_487:\n        /* \"#utility.yul\":3140:3194   */\n      tag_488\n        /* \"#utility.yul\":3191:3193   */\n      dup3\n        /* \"#utility.yul\":3186:3188   */\n      0x20\n        /* \"#utility.yul\":3179:3184   */\n      dup4\n        /* \"#utility.yul\":3175:3189   */\n      add\n        /* \"#utility.yul\":3170:3172   */\n      0x20\n        /* \"#utility.yul\":3166:3168   */\n      dup7\n        /* \"#utility.yul\":3162:3173   */\n      add\n        /* \"#utility.yul\":3140:3194   */\n      tag_489\n      jump\t// in\n    tag_488:\n        /* \"#utility.yul\":3213:3218   */\n      swap6\n        /* \"#utility.yul\":2639:3224   */\n      swap5\n      pop\n      pop\n      pop\n      pop\n      pop\n      jump\t// out\n        /* \"#utility.yul\":3229:4012   */\n    tag_63:\n        /* \"#utility.yul\":3336:3342   */\n      0x00\n        /* \"#utility.yul\":3344:3350   */\n      dup1\n        /* \"#utility.yul\":3352:3358   */\n      0x00\n        /* \"#utility.yul\":3405:3407   */\n      0x60\n        /* \"#utility.yul\":3393:3402   */\n      dup5\n        /* \"#utility.yul\":3384:3391   */\n      dup7\n        /* \"#utility.yul\":3380:3403   */\n      sub\n        /* \"#utility.yul\":3376:3408   */\n      slt\n        /* \"#utility.yul\":3373:3375   */\n      iszero\n      tag_491\n      jumpi\n        /* \"#utility.yul\":3426:3432   */\n      dup3\n        /* \"#utility.yul\":3418:3424   */\n      dup4\n        /* \"#utility.yul\":3411:3433   */\n      revert\n        /* \"#utility.yul\":3373:3375   */\n    tag_491:\n        /* \"#utility.yul\":3471:3480   */\n      dup4\n        /* \"#utility.yul\":3458:3481   */\n      calldataload\n        /* \"#utility.yul\":3500:3518   */\n      0xffffffffffffffff\n        /* \"#utility.yul\":3541:3543   */\n      dup1\n        /* \"#utility.yul\":3533:3539   */\n      dup3\n        /* \"#utility.yul\":3530:3544   */\n      gt\n        /* \"#utility.yul\":3527:3529   */\n      iszero\n      tag_492\n      jumpi\n        /* \"#utility.yul\":3562:3568   */\n      dup5\n        /* \"#utility.yul\":3554:3560   */\n      dup6\n        /* \"#utility.yul\":3547:3569   */\n      revert\n        /* \"#utility.yul\":3527:3529   */\n    tag_492:\n        /* \"#utility.yul\":3590:3640   */\n      tag_493\n        /* \"#utility.yul\":3632:3639   */\n      dup8\n        /* \"#utility.yul\":3623:3629   */\n      dup4\n        /* \"#utility.yul\":3612:3621   */\n      dup9\n        /* \"#utility.yul\":3608:3630   */\n      add\n        /* \"#utility.yul\":3590:3640   */\n      tag_452\n      jump\t// in\n    tag_493:\n        /* \"#utility.yul\":3580:3640   */\n      swap5\n      pop\n        /* \"#utility.yul\":3693:3695   */\n      0x20\n        /* \"#utility.yul\":3682:3691   */\n      dup7\n        /* \"#utility.yul\":3678:3696   */\n      add\n        /* \"#utility.yul\":3665:3697   */\n      calldataload\n        /* \"#utility.yul\":3649:3697   */\n      swap2\n      pop\n        /* \"#utility.yul\":3722:3724   */\n      dup1\n        /* \"#utility.yul\":3712:3720   */\n      dup3\n        /* \"#utility.yul\":3709:3725   */\n      gt\n        /* \"#utility.yul\":3706:3708   */\n      iszero\n      tag_494\n      jumpi\n        /* \"#utility.yul\":3743:3749   */\n      dup4\n        /* \"#utility.yul\":3735:3741   */\n      dup5\n        /* \"#utility.yul\":3728:3750   */\n      revert\n        /* \"#utility.yul\":3706:3708   */\n    tag_494:\n        /* \"#utility.yul\":3771:3823   */\n      tag_495\n        /* \"#utility.yul\":3815:3822   */\n      dup8\n        /* \"#utility.yul\":3804:3812   */\n      dup4\n        /* \"#utility.yul\":3793:3802   */\n      dup9\n        /* \"#utility.yul\":3789:3813   */\n      add\n        /* \"#utility.yul\":3771:3823   */\n      tag_452\n      jump\t// in\n    tag_495:\n        /* \"#utility.yul\":3761:3823   */\n      swap4\n      pop\n        /* \"#utility.yul\":3876:3878   */\n      0x40\n        /* \"#utility.yul\":3865:3874   */\n      dup7\n        /* \"#utility.yul\":3861:3879   */\n      add\n        /* \"#utility.yul\":3848:3880   */\n      calldataload\n        /* \"#utility.yul\":3832:3880   */\n      swap2\n      pop\n        /* \"#utility.yul\":3905:3907   */\n      dup1\n        /* \"#utility.yul\":3895:3903   */\n      dup3\n        /* \"#utility.yul\":3892:3908   */\n      gt\n        /* \"#utility.yul\":3889:3891   */\n      iszero\n      tag_496\n      jumpi\n        /* \"#utility.yul\":3926:3932   */\n      dup3\n        /* \"#utility.yul\":3918:3924   */\n      dup4\n        /* \"#utility.yul\":3911:3933   */\n      revert\n        /* \"#utility.yul\":3889:3891   */\n    tag_496:\n      pop\n        /* \"#utility.yul\":3954:4006   */\n      tag_497\n        /* \"#utility.yul\":3998:4005   */\n      dup7\n        /* \"#utility.yul\":3987:3995   */\n      dup3\n        /* \"#utility.yul\":3976:3985   */\n      dup8\n        /* \"#utility.yul\":3972:3996   */\n      add\n        /* \"#utility.yul\":3954:4006   */\n      tag_452\n      jump\t// in\n    tag_497:\n        /* \"#utility.yul\":3944:4006   */\n      swap2\n      pop\n      pop\n        /* \"#utility.yul\":3363:4012   */\n      swap3\n      pop\n      swap3\n      pop\n      swap3\n      jump\t// out\n        /* \"#utility.yul\":4017:4207   */\n    tag_71:\n        /* \"#utility.yul\":4076:4082   */\n      0x00\n        /* \"#utility.yul\":4129:4131   */\n      0x20\n        /* \"#utility.yul\":4117:4126   */\n      dup3\n        /* \"#utility.yul\":4108:4115   */\n      dup5\n        /* \"#utility.yul\":4104:4127   */\n      sub\n        /* \"#utility.yul\":4100:4132   */\n      slt\n        /* \"#utility.yul\":4097:4099   */\n      iszero\n      tag_499\n      jumpi\n        /* \"#utility.yul\":4150:4156   */\n      dup1\n        /* \"#utility.yul\":4142:4148   */\n      dup2\n        /* \"#utility.yul\":4135:4157   */\n      revert\n        /* \"#utility.yul\":4097:4099   */\n    tag_499:\n      pop\n        /* \"#utility.yul\":4178:4201   */\n      calldataload\n      swap2\n        /* \"#utility.yul\":4087:4207   */\n      swap1\n      pop\n      jump\t// out\n        /* \"#utility.yul\":4212:4406   */\n    tag_118:\n        /* \"#utility.yul\":4282:4288   */\n      0x00\n        /* \"#utility.yul\":4335:4337   */\n      0x20\n        /* \"#utility.yul\":4323:4332   */\n      dup3\n        /* \"#utility.yul\":4314:4321   */\n      dup5\n        /* \"#utility.yul\":4310:4333   */\n      sub\n        /* \"#utility.yul\":4306:4338   */\n      slt\n        /* \"#utility.yul\":4303:4305   */\n      iszero\n      tag_501\n      jumpi\n        /* \"#utility.yul\":4356:4362   */\n      dup1\n        /* \"#utility.yul\":4348:4354   */\n      dup2\n        /* \"#utility.yul\":4341:4363   */\n      revert\n        /* \"#utility.yul\":4303:4305   */\n    tag_501:\n      pop\n        /* \"#utility.yul\":4384:4400   */\n      mload\n      swap2\n        /* \"#utility.yul\":4293:4406   */\n      swap1\n      pop\n      jump\t// out\n        /* \"#utility.yul\":4411:4685   */\n    tag_428:\n        /* \"#utility.yul\":4540:4543   */\n      0x00\n        /* \"#utility.yul\":4578:4584   */\n      dup3\n        /* \"#utility.yul\":4572:4585   */\n      mload\n        /* \"#utility.yul\":4594:4647   */\n      tag_503\n        /* \"#utility.yul\":4640:4646   */\n      dup2\n        /* \"#utility.yul\":4635:4638   */\n      dup5\n        /* \"#utility.yul\":4628:4632   */\n      0x20\n        /* \"#utility.yul\":4620:4626   */\n      dup8\n        /* \"#utility.yul\":4616:4633   */\n      add\n        /* \"#utility.yul\":4594:4647   */\n      tag_489\n      jump\t// in\n    tag_503:\n        /* \"#utility.yul\":4663:4679   */\n      swap2\n      swap1\n      swap2\n      add\n      swap3\n        /* \"#utility.yul\":4548:4685   */\n      swap2\n      pop\n      pop\n      jump\t// out\n        /* \"#utility.yul\":7060:7443   */\n    tag_35:\n        /* \"#utility.yul\":7209:7211   */\n      0x20\n        /* \"#utility.yul\":7198:7207   */\n      dup2\n        /* \"#utility.yul\":7191:7212   */\n      mstore\n        /* \"#utility.yul\":7172:7176   */\n      0x00\n        /* \"#utility.yul\":7241:7247   */\n      dup3\n        /* \"#utility.yul\":7235:7248   */\n      mload\n        /* \"#utility.yul\":7284:7290   */\n      dup1\n        /* \"#utility.yul\":7279:7281   */\n      0x20\n        /* \"#utility.yul\":7268:7277   */\n      dup5\n        /* \"#utility.yul\":7264:7282   */\n      add\n        /* \"#utility.yul\":7257:7291   */\n      mstore\n        /* \"#utility.yul\":7300:7366   */\n      tag_514\n        /* \"#utility.yul\":7359:7365   */\n      dup2\n        /* \"#utility.yul\":7354:7356   */\n      0x40\n        /* \"#utility.yul\":7343:7352   */\n      dup6\n        /* \"#utility.yul\":7339:7357   */\n      add\n        /* \"#utility.yul\":7334:7336   */\n      0x20\n        /* \"#utility.yul\":7326:7332   */\n      dup8\n        /* \"#utility.yul\":7322:7337   */\n      add\n        /* \"#utility.yul\":7300:7366   */\n      tag_489\n      jump\t// in\n    tag_514:\n        /* \"#utility.yul\":7427:7429   */\n      0x1f\n        /* \"#utility.yul\":7406:7421   */\n      add\n      not(0x1f)\n        /* \"#utility.yul\":7402:7431   */\n      and\n        /* \"#utility.yul\":7387:7432   */\n      swap2\n      swap1\n      swap2\n      add\n        /* \"#utility.yul\":7434:7436   */\n      0x40\n        /* \"#utility.yul\":7383:7437   */\n      add\n      swap3\n        /* \"#utility.yul\":7181:7443   */\n      swap2\n      pop\n      pop\n      jump\t// out\n        /* \"#utility.yul\":10477:10752   */\n    tag_458:\n        /* \"#utility.yul\":10548:10550   */\n      0x40\n        /* \"#utility.yul\":10542:10551   */\n      mload\n        /* \"#utility.yul\":10613:10615   */\n      0x1f\n        /* \"#utility.yul\":10594:10607   */\n      dup3\n      add\n      not(0x1f)\n        /* \"#utility.yul\":10590:10617   */\n      and\n        /* \"#utility.yul\":10578:10618   */\n      dup2\n      add\n        /* \"#utility.yul\":10648:10666   */\n      0xffffffffffffffff\n        /* \"#utility.yul\":10633:10667   */\n      dup2\n      gt\n        /* \"#utility.yul\":10669:10691   */\n      dup3\n      dup3\n      lt\n        /* \"#utility.yul\":10630:10692   */\n      or\n        /* \"#utility.yul\":10627:10629   */\n      iszero\n      tag_526\n      jumpi\n        /* \"#utility.yul\":10695:10713   */\n      tag_526\n      tag_527\n      jump\t// in\n    tag_526:\n        /* \"#utility.yul\":10731:10733   */\n      0x40\n        /* \"#utility.yul\":10724:10746   */\n      mstore\n        /* \"#utility.yul\":10522:10752   */\n      swap2\n      swap1\n      pop\n      jump\t// out\n        /* \"#utility.yul\":10757:10944   */\n    tag_457:\n        /* \"#utility.yul\":10806:10810   */\n      0x00\n        /* \"#utility.yul\":10839:10857   */\n      0xffffffffffffffff\n        /* \"#utility.yul\":10831:10837   */\n      dup3\n        /* \"#utility.yul\":10828:10858   */\n      gt\n        /* \"#utility.yul\":10825:10827   */\n      iszero\n      tag_530\n      jumpi\n        /* \"#utility.yul\":10861:10879   */\n      tag_530\n      tag_527\n      jump\t// in\n    tag_530:\n      pop\n        /* \"#utility.yul\":10927:10929   */\n      0x1f\n        /* \"#utility.yul\":10906:10921   */\n      add\n      not(0x1f)\n        /* \"#utility.yul\":10902:10931   */\n      and\n        /* \"#utility.yul\":10933:10937   */\n      0x20\n        /* \"#utility.yul\":10898:10938   */\n      add\n      swap1\n        /* \"#utility.yul\":10815:10944   */\n      jump\t// out\n        /* \"#utility.yul\":10949:11077   */\n    tag_201:\n        /* \"#utility.yul\":10989:10992   */\n      0x00\n        /* \"#utility.yul\":11020:11021   */\n      dup3\n        /* \"#utility.yul\":11016:11022   */\n      not\n        /* \"#utility.yul\":11013:11014   */\n      dup3\n        /* \"#utility.yul\":11010:11023   */\n      gt\n        /* \"#utility.yul\":11007:11009   */\n      iszero\n      tag_533\n      jumpi\n        /* \"#utility.yul\":11026:11044   */\n      tag_533\n      tag_534\n      jump\t// in\n    tag_533:\n      pop\n        /* \"#utility.yul\":11062:11071   */\n      add\n      swap1\n        /* \"#utility.yul\":10997:11077   */\n      jump\t// out\n        /* \"#utility.yul\":11082:11299   */\n    tag_199:\n        /* \"#utility.yul\":11122:11123   */\n      0x00\n        /* \"#utility.yul\":11148:11149   */\n      dup3\n        /* \"#utility.yul\":11138:11140   */\n      tag_536\n      jumpi\n      shl(0xe0, 0x4e487b71)\n        /* \"#utility.yul\":11173:11204   */\n      dup2\n      mstore\n        /* \"#utility.yul\":11227:11231   */\n      0x12\n        /* \"#utility.yul\":11224:11225   */\n      0x04\n        /* \"#utility.yul\":11217:11232   */\n      mstore\n        /* \"#utility.yul\":11255:11259   */\n      0x24\n        /* \"#utility.yul\":11180:11181   */\n      dup2\n        /* \"#utility.yul\":11245:11260   */\n      revert\n        /* \"#utility.yul\":11138:11140   */\n    tag_536:\n      pop\n        /* \"#utility.yul\":11284:11293   */\n      div\n      swap1\n        /* \"#utility.yul\":11128:11299   */\n      jump\t// out\n        /* \"#utility.yul\":11304:11472   */\n    tag_197:\n        /* \"#utility.yul\":11344:11351   */\n      0x00\n        /* \"#utility.yul\":11410:11411   */\n      dup2\n        /* \"#utility.yul\":11406:11407   */\n      0x00\n        /* \"#utility.yul\":11402:11408   */\n      not\n        /* \"#utility.yul\":11398:11412   */\n      div\n        /* \"#utility.yul\":11395:11396   */\n      dup4\n        /* \"#utility.yul\":11392:11413   */\n      gt\n        /* \"#utility.yul\":11387:11388   */\n      dup3\n        /* \"#utility.yul\":11380:11389   */\n      iszero\n        /* \"#utility.yul\":11373:11390   */\n      iszero\n        /* \"#utility.yul\":11369:11414   */\n      and\n        /* \"#utility.yul\":11366:11368   */\n      iszero\n      tag_539\n      jumpi\n        /* \"#utility.yul\":11417:11435   */\n      tag_539\n      tag_534\n      jump\t// in\n    tag_539:\n      pop\n        /* \"#utility.yul\":11457:11466   */\n      mul\n      swap1\n        /* \"#utility.yul\":11356:11472   */\n      jump\t// out\n        /* \"#utility.yul\":11477:11602   */\n    tag_124:\n        /* \"#utility.yul\":11517:11521   */\n      0x00\n        /* \"#utility.yul\":11545:11546   */\n      dup3\n        /* \"#utility.yul\":11542:11543   */\n      dup3\n        /* \"#utility.yul\":11539:11547   */\n      lt\n        /* \"#utility.yul\":11536:11538   */\n      iszero\n      tag_542\n      jumpi\n        /* \"#utility.yul\":11550:11568   */\n      tag_542\n      tag_534\n      jump\t// in\n    tag_542:\n      pop\n        /* \"#utility.yul\":11587:11596   */\n      sub\n      swap1\n        /* \"#utility.yul\":11526:11602   */\n      jump\t// out\n        /* \"#utility.yul\":11607:11802   */\n    tag_309:\n        /* \"#utility.yul\":11645:11649   */\n      0x00\n        /* \"#utility.yul\":11682:11686   */\n      0xff\n        /* \"#utility.yul\":11679:11680   */\n      dup3\n        /* \"#utility.yul\":11675:11687   */\n      and\n        /* \"#utility.yul\":11714:11718   */\n      0xff\n        /* \"#utility.yul\":11711:11712   */\n      dup5\n        /* \"#utility.yul\":11707:11719   */\n      and\n        /* \"#utility.yul\":11739:11742   */\n      dup1\n        /* \"#utility.yul\":11734:11737   */\n      dup3\n        /* \"#utility.yul\":11731:11743   */\n      lt\n        /* \"#utility.yul\":11728:11730   */\n      iszero\n      tag_545\n      jumpi\n        /* \"#utility.yul\":11746:11764   */\n      tag_545\n      tag_534\n      jump\t// in\n    tag_545:\n        /* \"#utility.yul\":11783:11796   */\n      swap1\n      sub\n      swap4\n        /* \"#utility.yul\":11654:11802   */\n      swap3\n      pop\n      pop\n      pop\n      jump\t// out\n        /* \"#utility.yul\":11807:12065   */\n    tag_489:\n        /* \"#utility.yul\":11879:11880   */\n      0x00\n        /* \"#utility.yul\":11889:12002   */\n    tag_547:\n        /* \"#utility.yul\":11903:11909   */\n      dup4\n        /* \"#utility.yul\":11900:11901   */\n      dup2\n        /* \"#utility.yul\":11897:11910   */\n      lt\n        /* \"#utility.yul\":11889:12002   */\n      iszero\n      tag_549\n      jumpi\n        /* \"#utility.yul\":11979:11990   */\n      dup2\n      dup2\n      add\n        /* \"#utility.yul\":11973:11991   */\n      mload\n        /* \"#utility.yul\":11960:11971   */\n      dup4\n      dup3\n      add\n        /* \"#utility.yul\":11953:11992   */\n      mstore\n        /* \"#utility.yul\":11925:11927   */\n      0x20\n        /* \"#utility.yul\":11918:11928   */\n      add\n        /* \"#utility.yul\":11889:12002   */\n      jump(tag_547)\n    tag_549:\n        /* \"#utility.yul\":12020:12026   */\n      dup4\n        /* \"#utility.yul\":12017:12018   */\n      dup2\n        /* \"#utility.yul\":12014:12027   */\n      gt\n        /* \"#utility.yul\":12011:12013   */\n      iszero\n      tag_285\n      jumpi\n      pop\n      pop\n        /* \"#utility.yul\":12055:12056   */\n      0x00\n        /* \"#utility.yul\":12037:12053   */\n      swap2\n      add\n        /* \"#utility.yul\":12030:12057   */\n      mstore\n        /* \"#utility.yul\":11860:12065   */\n      jump\t// out\n        /* \"#utility.yul\":12070:12450   */\n    tag_141:\n        /* \"#utility.yul\":12149:12150   */\n      0x01\n        /* \"#utility.yul\":12145:12157   */\n      dup2\n      dup2\n      shr\n      swap1\n        /* \"#utility.yul\":12192:12204   */\n      dup3\n      and\n      dup1\n        /* \"#utility.yul\":12213:12215   */\n      tag_552\n      jumpi\n        /* \"#utility.yul\":12267:12271   */\n      0x7f\n        /* \"#utility.yul\":12259:12265   */\n      dup3\n        /* \"#utility.yul\":12255:12272   */\n      and\n        /* \"#utility.yul\":12245:12272   */\n      swap2\n      pop\n        /* \"#utility.yul\":12213:12215   */\n    tag_552:\n        /* \"#utility.yul\":12320:12322   */\n      0x20\n        /* \"#utility.yul\":12312:12318   */\n      dup3\n        /* \"#utility.yul\":12309:12323   */\n      lt\n        /* \"#utility.yul\":12289:12307   */\n      dup2\n        /* \"#utility.yul\":12286:12324   */\n      eq\n        /* \"#utility.yul\":12283:12285   */\n      iszero\n      tag_553\n      jumpi\n        /* \"#utility.yul\":12366:12376   */\n      0x4e487b71\n        /* \"#utility.yul\":12361:12364   */\n      0xe0\n        /* \"#utility.yul\":12357:12377   */\n      shl\n        /* \"#utility.yul\":12354:12355   */\n      0x00\n        /* \"#utility.yul\":12347:12378   */\n      mstore\n        /* \"#utility.yul\":12401:12405   */\n      0x22\n        /* \"#utility.yul\":12398:12399   */\n      0x04\n        /* \"#utility.yul\":12391:12406   */\n      mstore\n        /* \"#utility.yul\":12429:12433   */\n      0x24\n        /* \"#utility.yul\":12426:12427   */\n      0x00\n        /* \"#utility.yul\":12419:12434   */\n      revert\n        /* \"#utility.yul\":12283:12285   */\n    tag_553:\n      pop\n        /* \"#utility.yul\":12125:12450   */\n      swap2\n      swap1\n      pop\n      jump\t// out\n        /* \"#utility.yul\":12455:12590   */\n    tag_300:\n        /* \"#utility.yul\":12494:12497   */\n      0x00\n      not(0x00)\n        /* \"#utility.yul\":12515:12532   */\n      dup3\n      eq\n        /* \"#utility.yul\":12512:12514   */\n      iszero\n      tag_556\n      jumpi\n        /* \"#utility.yul\":12535:12553   */\n      tag_556\n      tag_534\n      jump\t// in\n    tag_556:\n      pop\n        /* \"#utility.yul\":12582:12583   */\n      0x01\n        /* \"#utility.yul\":12571:12584   */\n      add\n      swap1\n        /* \"#utility.yul\":12502:12590   */\n      jump\t// out\n        /* \"#utility.yul\":12595:12722   */\n    tag_534:\n        /* \"#utility.yul\":12656:12666   */\n      0x4e487b71\n        /* \"#utility.yul\":12651:12654   */\n      0xe0\n        /* \"#utility.yul\":12647:12667   */\n      shl\n        /* \"#utility.yul\":12644:12645   */\n      0x00\n        /* \"#utility.yul\":12637:12668   */\n      mstore\n        /* \"#utility.yul\":12687:12691   */\n      0x11\n        /* \"#utility.yul\":12684:12685   */\n      0x04\n        /* \"#utility.yul\":12677:12692   */\n      mstore\n        /* \"#utility.yul\":12711:12715   */\n      0x24\n        /* \"#utility.yul\":12708:12709   */\n      0x00\n        /* \"#utility.yul\":12701:12716   */\n      revert\n        /* \"#utility.yul\":12727:12854   */\n    tag_527:\n        /* \"#utility.yul\":12788:12798   */\n      0x4e487b71\n        /* \"#utility.yul\":12783:12786   */\n      0xe0\n        /* \"#utility.yul\":12779:12799   */\n      shl\n        /* \"#utility.yul\":12776:12777   */\n      0x00\n        /* \"#utility.yul\":12769:12800   */\n      mstore\n        /* \"#utility.yul\":12819:12823   */\n      0x41\n        /* \"#utility.yul\":12816:12817   */\n      0x04\n        /* \"#utility.yul\":12809:12824   */\n      mstore\n        /* \"#utility.yul\":12843:12847   */\n      0x24\n        /* \"#utility.yul\":12840:12841   */\n      0x00\n        /* \"#utility.yul\":12833:12848   */\n      revert\n        /* \"#utility.yul\":12859:12990   */\n    tag_463:\n      sub(shl(0xa0, 0x01), 0x01)\n        /* \"#utility.yul\":12934:12965   */\n      dup2\n      and\n        /* \"#utility.yul\":12924:12966   */\n      dup2\n      eq\n        /* \"#utility.yul\":12914:12916   */\n      tag_560\n      jumpi\n        /* \"#utility.yul\":12980:12981   */\n      0x00\n        /* \"#utility.yul\":12977:12978   */\n      dup1\n        /* \"#utility.yul\":12970:12982   */\n      revert\n        /* \"#utility.yul\":12914:12916   */\n    tag_560:\n        /* \"#utility.yul\":12904:12990   */\n      pop\n      jump\t// out\n    stop\n\n    sub_0: assembly {\n            /* \"contracts/BetPair.sol\":163:1202  contract BetPair is IBetPair {... */\n          mstore(0x40, 0x80)\n            /* \"contracts/BetPair.sol\":553:568  web3betsAddress */\n          sload(0x00)\n            /* \"contracts/BetPair.sol\":510:569  IWeb3BetsFO private web3bets = IWeb3BetsFO(web3betsAddress) */\n          0x08\n          dup1\n          sload\n          not(sub(shl(0xa0, 0x01), 0x01))\n          and\n          sub(shl(0xa0, 0x01), 0x01)\n            /* \"contracts/BetPair.sol\":553:568  web3betsAddress */\n          swap1\n          swap3\n          and\n            /* \"contracts/BetPair.sol\":510:569  IWeb3BetsFO private web3bets = IWeb3BetsFO(web3betsAddress) */\n          swap2\n          swap1\n          swap2\n          or\n          swap1\n          sstore\n            /* \"contracts/BetPair.sol\":576:929  constructor (... */\n          callvalue\n          dup1\n          iszero\n          tag_1\n          jumpi\n          0x00\n          dup1\n          revert\n        tag_1:\n          pop\n          mload(0x40)\n          sub(codesize, bytecodeSize)\n          dup1\n          bytecodeSize\n          dup4\n          codecopy\n          dup2\n          add\n          0x40\n          dup2\n          swap1\n          mstore\n          tag_2\n          swap2\n          tag_3\n          jump\t// in\n        tag_2:\n            /* \"contracts/BetPair.sol\":752:760  web3bets */\n          sload(0x08)\n            /* \"contracts/BetPair.sol\":752:770  web3bets.factory() */\n          0x40\n          dup1\n          mload\n          shl(0xe0, 0xc45a0155)\n          dup2\n          mstore\n          swap1\n          mload\n          sub(shl(0xa0, 0x01), 0x01)\n            /* \"contracts/BetPair.sol\":752:760  web3bets */\n          swap1\n          swap3\n          and\n          swap2\n            /* \"contracts/BetPair.sol\":752:768  web3bets.factory */\n          0xc45a0155\n          swap2\n            /* \"contracts/BetPair.sol\":752:770  web3bets.factory() */\n          0x04\n          dup1\n          dup3\n          add\n          swap3\n          0x20\n          swap3\n          swap1\n          swap2\n          swap1\n          dup3\n          swap1\n          sub\n          add\n          dup2\n            /* \"contracts/BetPair.sol\":752:760  web3bets */\n          dup7\n            /* \"contracts/BetPair.sol\":752:770  web3bets.factory() */\n          dup1\n          extcodesize\n          iszero\n          dup1\n          iszero\n          tag_6\n          jumpi\n          0x00\n          dup1\n          revert\n        tag_6:\n          pop\n          gas\n          staticcall\n          iszero\n          dup1\n          iszero\n          tag_8\n          jumpi\n          returndatasize\n          0x00\n          dup1\n          returndatacopy\n          revert(0x00, returndatasize)\n        tag_8:\n          pop\n          pop\n          pop\n          pop\n          mload(0x40)\n          returndatasize\n          not(0x1f)\n          0x1f\n          dup3\n          add\n          and\n          dup3\n          add\n          dup1\n          0x40\n          mstore\n          pop\n          dup2\n          add\n          swap1\n          tag_9\n          swap2\n          swap1\n          tag_10\n          jump\t// in\n        tag_9:\n          sub(shl(0xa0, 0x01), 0x01)\n            /* \"contracts/BetPair.sol\":738:770  msg.sender == web3bets.factory() */\n          and\n            /* \"contracts/BetPair.sol\":738:748  msg.sender */\n          caller\n            /* \"contracts/BetPair.sol\":738:770  msg.sender == web3bets.factory() */\n          eq\n            /* \"contracts/BetPair.sol\":730:780  require(msg.sender == web3bets.factory(), \"fty o\") */\n          tag_11\n          jumpi\n          0x40\n          dup1\n          mload\n          shl(0xe5, 0x461bcd)\n          dup2\n          mstore\n            /* \"#utility.yul\":1138:1140   */\n          0x20\n            /* \"contracts/BetPair.sol\":730:780  require(msg.sender == web3bets.factory(), \"fty o\") */\n          0x04\n          dup3\n          add\n            /* \"#utility.yul\":1120:1141   */\n          mstore\n            /* \"#utility.yul\":1177:1178   */\n          0x05\n            /* \"#utility.yul\":1157:1175   */\n          0x24\n          dup3\n          add\n            /* \"#utility.yul\":1150:1179   */\n          mstore\n          shl(0xd8, 0x667479206f)\n            /* \"#utility.yul\":1195:1213   */\n          0x44\n          dup3\n          add\n            /* \"#utility.yul\":1188:1223   */\n          mstore\n            /* \"contracts/BetPair.sol\":730:780  require(msg.sender == web3bets.factory(), \"fty o\") */\n          swap1\n          mload\n          swap1\n          dup2\n          swap1\n          sub\n            /* \"#utility.yul\":1240:1258   */\n          0x64\n            /* \"contracts/BetPair.sol\":730:780  require(msg.sender == web3bets.factory(), \"fty o\") */\n          add\n          swap1\n          revert\n        tag_11:\n            /* \"contracts/BetPair.sol\":790:796  market */\n          0x01\n            /* \"contracts/BetPair.sol\":790:806  market = market_ */\n          dup1\n          sload\n          not(sub(shl(0xa0, 0x01), 0x01))\n          swap1\n          dup2\n          and\n          sub(shl(0xa0, 0x01), 0x01)\n          swap8\n          dup9\n          and\n          or\n          swap1\n          swap2\n          sstore\n            /* \"contracts/BetPair.sol\":816:824  sideABet */\n          0x02\n            /* \"contracts/BetPair.sol\":816:836  sideABet = sideABet_ */\n          dup1\n          sload\n          dup3\n          and\n          swap6\n          dup8\n          and\n          swap6\n          swap1\n          swap6\n          or\n          swap1\n          swap5\n          sstore\n            /* \"contracts/BetPair.sol\":846:854  sideBBet */\n          0x03\n            /* \"contracts/BetPair.sol\":846:866  sideBBet = sideBBet_ */\n          dup1\n          sload\n          swap1\n          swap5\n          and\n          swap3\n          swap1\n          swap5\n          and\n          swap2\n          swap1\n          swap2\n          or\n          swap1\n          swap2\n          sstore\n            /* \"contracts/BetPair.sol\":876:883  amountA */\n          0x06\n            /* \"contracts/BetPair.sol\":876:894  amountA = amountA_ */\n          sstore\n            /* \"contracts/BetPair.sol\":904:911  amountB */\n          0x07\n            /* \"contracts/BetPair.sol\":904:922  amountB = amountB_ */\n          sstore\n            /* \"contracts/BetPair.sol\":163:1202  contract BetPair is IBetPair {... */\n          jump(tag_15)\n            /* \"#utility.yul\":14:191   */\n        tag_16:\n            /* \"#utility.yul\":93:106   */\n          dup1\n          mload\n          sub(shl(0xa0, 0x01), 0x01)\n            /* \"#utility.yul\":135:166   */\n          dup2\n          and\n            /* \"#utility.yul\":125:167   */\n          dup2\n          eq\n            /* \"#utility.yul\":115:117   */\n          tag_18\n          jumpi\n            /* \"#utility.yul\":181:182   */\n          0x00\n            /* \"#utility.yul\":178:179   */\n          dup1\n            /* \"#utility.yul\":171:183   */\n          revert\n            /* \"#utility.yul\":115:117   */\n        tag_18:\n            /* \"#utility.yul\":74:191   */\n          swap2\n          swap1\n          pop\n          jump\t// out\n            /* \"#utility.yul\":196:414   */\n        tag_10:\n            /* \"#utility.yul\":266:272   */\n          0x00\n            /* \"#utility.yul\":319:321   */\n          0x20\n            /* \"#utility.yul\":307:316   */\n          dup3\n            /* \"#utility.yul\":298:305   */\n          dup5\n            /* \"#utility.yul\":294:317   */\n          sub\n            /* \"#utility.yul\":290:322   */\n          slt\n            /* \"#utility.yul\":287:289   */\n          iszero\n          tag_20\n          jumpi\n            /* \"#utility.yul\":340:346   */\n          dup1\n            /* \"#utility.yul\":332:338   */\n          dup2\n            /* \"#utility.yul\":325:347   */\n          revert\n            /* \"#utility.yul\":287:289   */\n        tag_20:\n            /* \"#utility.yul\":368:408   */\n          tag_21\n            /* \"#utility.yul\":398:407   */\n          dup3\n            /* \"#utility.yul\":368:408   */\n          tag_16\n          jump\t// in\n        tag_21:\n            /* \"#utility.yul\":358:408   */\n          swap4\n            /* \"#utility.yul\":277:414   */\n          swap3\n          pop\n          pop\n          pop\n          jump\t// out\n            /* \"#utility.yul\":419:931   */\n        tag_3:\n            /* \"#utility.yul\":525:531   */\n          0x00\n            /* \"#utility.yul\":533:539   */\n          dup1\n            /* \"#utility.yul\":541:547   */\n          0x00\n            /* \"#utility.yul\":549:555   */\n          dup1\n            /* \"#utility.yul\":557:563   */\n          0x00\n            /* \"#utility.yul\":610:613   */\n          0xa0\n            /* \"#utility.yul\":598:607   */\n          dup7\n            /* \"#utility.yul\":589:596   */\n          dup9\n            /* \"#utility.yul\":585:608   */\n          sub\n            /* \"#utility.yul\":581:614   */\n          slt\n            /* \"#utility.yul\":578:580   */\n          iszero\n          tag_23\n          jumpi\n            /* \"#utility.yul\":632:638   */\n          dup1\n            /* \"#utility.yul\":624:630   */\n          dup2\n            /* \"#utility.yul\":617:639   */\n          revert\n            /* \"#utility.yul\":578:580   */\n        tag_23:\n            /* \"#utility.yul\":660:700   */\n          tag_24\n            /* \"#utility.yul\":690:699   */\n          dup7\n            /* \"#utility.yul\":660:700   */\n          tag_16\n          jump\t// in\n        tag_24:\n            /* \"#utility.yul\":650:700   */\n          swap5\n          pop\n            /* \"#utility.yul\":719:768   */\n          tag_25\n            /* \"#utility.yul\":764:766   */\n          0x20\n            /* \"#utility.yul\":753:762   */\n          dup8\n            /* \"#utility.yul\":749:767   */\n          add\n            /* \"#utility.yul\":719:768   */\n          tag_16\n          jump\t// in\n        tag_25:\n            /* \"#utility.yul\":709:768   */\n          swap4\n          pop\n            /* \"#utility.yul\":787:836   */\n          tag_26\n            /* \"#utility.yul\":832:834   */\n          0x40\n            /* \"#utility.yul\":821:830   */\n          dup8\n            /* \"#utility.yul\":817:835   */\n          add\n            /* \"#utility.yul\":787:836   */\n          tag_16\n          jump\t// in\n        tag_26:\n            /* \"#utility.yul\":876:878   */\n          0x60\n            /* \"#utility.yul\":861:879   */\n          dup8\n          add\n            /* \"#utility.yul\":855:880   */\n          mload\n            /* \"#utility.yul\":920:923   */\n          0x80\n            /* \"#utility.yul\":905:924   */\n          swap1\n          swap8\n          add\n            /* \"#utility.yul\":899:925   */\n          mload\n            /* \"#utility.yul\":568:931   */\n          swap6\n          swap9\n          swap5\n          swap8\n          pop\n            /* \"#utility.yul\":777:836   */\n          swap6\n            /* \"#utility.yul\":855:880   */\n          swap5\n            /* \"#utility.yul\":899:925   */\n          swap4\n            /* \"#utility.yul\":568:931   */\n          swap3\n          pop\n          pop\n          pop\n          jump\t// out\n            /* \"#utility.yul\":1110:1264   */\n        tag_15:\n            /* \"contracts/BetPair.sol\":163:1202  contract BetPair is IBetPair {... */\n          dataSize(sub_0)\n          dup1\n          dataOffset(sub_0)\n          0x00\n          codecopy\n          0x00\n          return\n        stop\n\n        sub_0: assembly {\n                /* \"contracts/BetPair.sol\":163:1202  contract BetPair is IBetPair {... */\n              mstore(0x40, 0x80)\n              callvalue\n              dup1\n              iszero\n              tag_1\n              jumpi\n              0x00\n              dup1\n              revert\n            tag_1:\n              pop\n              jumpi(tag_2, lt(calldatasize, 0x04))\n              shr(0xe0, calldataload(0x00))\n              dup1\n              0x6d83a71f\n              gt\n              tag_11\n              jumpi\n              dup1\n              0x6d83a71f\n              eq\n              tag_7\n              jumpi\n              dup1\n              0x80f55605\n              eq\n              tag_8\n              jumpi\n              dup1\n              0xbaa1a3ec\n              eq\n              tag_9\n              jumpi\n              dup1\n              0xed7a4e0b\n              eq\n              tag_10\n              jumpi\n              0x00\n              dup1\n              revert\n            tag_11:\n              dup1\n              0x0f765e6d\n              eq\n              tag_3\n              jumpi\n              dup1\n              0x156dcbf0\n              eq\n              tag_4\n              jumpi\n              dup1\n              0x15e894ab\n              eq\n              tag_5\n              jumpi\n              dup1\n              0x2efe91ef\n              eq\n              tag_6\n              jumpi\n            tag_2:\n              0x00\n              dup1\n              revert\n                /* \"contracts/BetPair.sol\":313:345  address public override sideBBet */\n            tag_3:\n              sload(0x03)\n              tag_12\n              swap1\n              sub(shl(0xa0, 0x01), 0x01)\n              and\n              dup2\n              jump\n            tag_12:\n              mload(0x40)\n              sub(shl(0xa0, 0x01), 0x01)\n                /* \"#utility.yul\":706:738   */\n              swap2\n              swap1\n              swap2\n              and\n                /* \"#utility.yul\":688:739   */\n              dup2\n              mstore\n                /* \"#utility.yul\":676:678   */\n              0x20\n                /* \"#utility.yul\":661:679   */\n              add\n                /* \"contracts/BetPair.sol\":313:345  address public override sideBBet */\n            tag_14:\n              mload(0x40)\n              dup1\n              swap2\n              sub\n              swap1\n              return\n                /* \"contracts/BetPair.sol\":440:468  uint public override amountA */\n            tag_4:\n              tag_16\n              sload(0x06)\n              dup2\n              jump\n            tag_16:\n              mload(0x40)\n                /* \"#utility.yul\":1421:1446   */\n              swap1\n              dup2\n              mstore\n                /* \"#utility.yul\":1409:1411   */\n              0x20\n                /* \"#utility.yul\":1394:1412   */\n              add\n                /* \"contracts/BetPair.sol\":440:468  uint public override amountA */\n              tag_14\n                /* \"#utility.yul\":1376:1452   */\n              jump\n                /* \"contracts/BetPair.sol\":274:306  address public override sideABet */\n            tag_5:\n              sload(0x02)\n              tag_12\n              swap1\n              sub(shl(0xa0, 0x01), 0x01)\n              and\n              dup2\n              jump\n                /* \"contracts/BetPair.sol\":475:503  uint public override amountB */\n            tag_6:\n              tag_16\n              sload(0x07)\n              dup2\n              jump\n                /* \"contracts/BetPair.sol\":935:1195  function setWinnerBet( address _addr) external override returns(bool){... */\n            tag_7:\n              tag_26\n              tag_27\n              calldatasize\n              0x04\n              tag_28\n              jump\t// in\n            tag_27:\n              tag_29\n              jump\t// in\n            tag_26:\n              mload(0x40)\n                /* \"#utility.yul\":915:929   */\n              swap1\n              iszero\n                /* \"#utility.yul\":908:930   */\n              iszero\n                /* \"#utility.yul\":890:931   */\n              dup2\n              mstore\n                /* \"#utility.yul\":878:880   */\n              0x20\n                /* \"#utility.yul\":863:881   */\n              add\n                /* \"contracts/BetPair.sol\":935:1195  function setWinnerBet( address _addr) external override returns(bool){... */\n              tag_14\n                /* \"#utility.yul\":845:937   */\n              jump\n                /* \"contracts/BetPair.sol\":237:267  address public override market */\n            tag_8:\n              sload(0x01)\n              tag_12\n              swap1\n              sub(shl(0xa0, 0x01), 0x01)\n              and\n              dup2\n              jump\n                /* \"contracts/BetPair.sol\":356:389  address public override winnerBet */\n            tag_9:\n              sload(0x04)\n              tag_12\n              swap1\n              sub(shl(0xa0, 0x01), 0x01)\n              and\n              dup2\n              jump\n                /* \"contracts/BetPair.sol\":396:433  address public override winnerAddress */\n            tag_10:\n              sload(0x05)\n              tag_12\n              swap1\n              sub(shl(0xa0, 0x01), 0x01)\n              and\n              dup2\n              jump\n                /* \"contracts/BetPair.sol\":935:1195  function setWinnerBet( address _addr) external override returns(bool){... */\n            tag_29:\n                /* \"contracts/BetPair.sol\":1036:1044  web3bets */\n              sload(0x08)\n                /* \"contracts/BetPair.sol\":1036:1054  web3bets.factory() */\n              0x40\n              dup1\n              mload\n              shl(0xe0, 0xc45a0155)\n              dup2\n              mstore\n              swap1\n              mload\n                /* \"contracts/BetPair.sol\":999:1003  bool */\n              0x00\n              swap3\n              sub(shl(0xa0, 0x01), 0x01)\n                /* \"contracts/BetPair.sol\":1036:1044  web3bets */\n              and\n              swap2\n              0xc45a0155\n              swap2\n                /* \"contracts/BetPair.sol\":1036:1054  web3bets.factory() */\n              0x04\n              dup1\n              dup4\n              add\n              swap3\n              0x20\n              swap3\n              swap2\n              swap1\n              dup3\n              swap1\n              sub\n              add\n              dup2\n                /* \"contracts/BetPair.sol\":1036:1044  web3bets */\n              dup7\n                /* \"contracts/BetPair.sol\":1036:1054  web3bets.factory() */\n              dup1\n              extcodesize\n              iszero\n              dup1\n              iszero\n              tag_42\n              jumpi\n              0x00\n              dup1\n              revert\n            tag_42:\n              pop\n              gas\n              staticcall\n              iszero\n              dup1\n              iszero\n              tag_44\n              jumpi\n              returndatasize\n              0x00\n              dup1\n              returndatacopy\n              revert(0x00, returndatasize)\n            tag_44:\n              pop\n              pop\n              pop\n              pop\n              mload(0x40)\n              returndatasize\n              not(0x1f)\n              0x1f\n              dup3\n              add\n              and\n              dup3\n              add\n              dup1\n              0x40\n              mstore\n              pop\n              dup2\n              add\n              swap1\n              tag_45\n              swap2\n              swap1\n              tag_46\n              jump\t// in\n            tag_45:\n              sub(shl(0xa0, 0x01), 0x01)\n                /* \"contracts/BetPair.sol\":1022:1054  msg.sender == web3bets.factory() */\n              and\n                /* \"contracts/BetPair.sol\":1022:1032  msg.sender */\n              caller\n                /* \"contracts/BetPair.sol\":1022:1054  msg.sender == web3bets.factory() */\n              eq\n                /* \"contracts/BetPair.sol\":1014:1064  require(msg.sender == web3bets.factory(), \"fty o\") */\n              tag_47\n              jumpi\n              0x40\n              dup1\n              mload\n              shl(0xe5, 0x461bcd)\n              dup2\n              mstore\n                /* \"#utility.yul\":1144:1146   */\n              0x20\n                /* \"contracts/BetPair.sol\":1014:1064  require(msg.sender == web3bets.factory(), \"fty o\") */\n              0x04\n              dup3\n              add\n                /* \"#utility.yul\":1126:1147   */\n              mstore\n                /* \"#utility.yul\":1183:1184   */\n              0x05\n                /* \"#utility.yul\":1163:1181   */\n              0x24\n              dup3\n              add\n                /* \"#utility.yul\":1156:1185   */\n              mstore\n              shl(0xd8, 0x667479206f)\n                /* \"#utility.yul\":1201:1219   */\n              0x44\n              dup3\n              add\n                /* \"#utility.yul\":1194:1229   */\n              mstore\n                /* \"contracts/BetPair.sol\":1014:1064  require(msg.sender == web3bets.factory(), \"fty o\") */\n              swap1\n              mload\n              swap1\n              dup2\n              swap1\n              sub\n                /* \"#utility.yul\":1246:1264   */\n              0x64\n                /* \"contracts/BetPair.sol\":1014:1064  require(msg.sender == web3bets.factory(), \"fty o\") */\n              add\n              swap1\n              revert\n            tag_47:\n                /* \"contracts/BetPair.sol\":1074:1083  winnerBet */\n              0x04\n                /* \"contracts/BetPair.sol\":1074:1091  winnerBet = _addr */\n              dup1\n              sload\n              not(sub(shl(0xa0, 0x01), 0x01))\n              and\n              sub(shl(0xa0, 0x01), 0x01)\n              dup5\n              and\n              swap1\n              dup2\n              or\n              dup3\n              sstore\n                /* \"contracts/BetPair.sol\":1154:1167  _bet.better() */\n              0x40\n              dup1\n              mload\n              shl(0xe2, 0x1c631f51)\n              dup2\n              mstore\n              swap1\n              mload\n                /* \"contracts/BetPair.sol\":1074:1091  winnerBet = _addr */\n              swap2\n              swap3\n              dup4\n              swap3\n                /* \"contracts/BetPair.sol\":1154:1165  _bet.better */\n              0x718c7d44\n              swap3\n                /* \"contracts/BetPair.sol\":1154:1167  _bet.better() */\n              dup1\n              dup4\n              add\n              swap3\n              0x20\n              swap3\n              swap2\n              dup3\n              swap1\n              sub\n              add\n              dup2\n                /* \"contracts/BetPair.sol\":1074:1091  winnerBet = _addr */\n              dup7\n                /* \"contracts/BetPair.sol\":1154:1167  _bet.better() */\n              dup1\n              extcodesize\n              iszero\n              dup1\n              iszero\n              tag_50\n              jumpi\n              0x00\n              dup1\n              revert\n            tag_50:\n              pop\n              gas\n              staticcall\n              iszero\n              dup1\n              iszero\n              tag_52\n              jumpi\n              returndatasize\n              0x00\n              dup1\n              returndatacopy\n              revert(0x00, returndatasize)\n            tag_52:\n              pop\n              pop\n              pop\n              pop\n              mload(0x40)\n              returndatasize\n              not(0x1f)\n              0x1f\n              dup3\n              add\n              and\n              dup3\n              add\n              dup1\n              0x40\n              mstore\n              pop\n              dup2\n              add\n              swap1\n              tag_53\n              swap2\n              swap1\n              tag_46\n              jump\t// in\n            tag_53:\n                /* \"contracts/BetPair.sol\":1138:1151  winnerAddress */\n              0x05\n                /* \"contracts/BetPair.sol\":1138:1167  winnerAddress = _bet.better() */\n              dup1\n              sload\n              not(sub(shl(0xa0, 0x01), 0x01))\n              and\n              sub(shl(0xa0, 0x01), 0x01)\n              swap3\n              swap1\n              swap3\n              and\n              swap2\n              swap1\n              swap2\n              or\n              swap1\n              sstore\n              pop\n              0x01\n              swap3\n              swap2\n              pop\n              pop\n                /* \"contracts/BetPair.sol\":935:1195  function setWinnerBet( address _addr) external override returns(bool){... */\n              jump\t// out\n                /* \"#utility.yul\":14:271   */\n            tag_28:\n                /* \"#utility.yul\":73:79   */\n              0x00\n                /* \"#utility.yul\":126:128   */\n              0x20\n                /* \"#utility.yul\":114:123   */\n              dup3\n                /* \"#utility.yul\":105:112   */\n              dup5\n                /* \"#utility.yul\":101:124   */\n              sub\n                /* \"#utility.yul\":97:129   */\n              slt\n                /* \"#utility.yul\":94:96   */\n              iszero\n              tag_56\n              jumpi\n                /* \"#utility.yul\":147:153   */\n              dup1\n                /* \"#utility.yul\":139:145   */\n              dup2\n                /* \"#utility.yul\":132:154   */\n              revert\n                /* \"#utility.yul\":94:96   */\n            tag_56:\n                /* \"#utility.yul\":191:200   */\n              dup2\n                /* \"#utility.yul\":178:201   */\n              calldataload\n                /* \"#utility.yul\":210:241   */\n              tag_57\n                /* \"#utility.yul\":235:240   */\n              dup2\n                /* \"#utility.yul\":210:241   */\n              tag_58\n              jump\t// in\n            tag_57:\n                /* \"#utility.yul\":260:265   */\n              swap4\n                /* \"#utility.yul\":84:271   */\n              swap3\n              pop\n              pop\n              pop\n              jump\t// out\n                /* \"#utility.yul\":276:537   */\n            tag_46:\n                /* \"#utility.yul\":346:352   */\n              0x00\n                /* \"#utility.yul\":399:401   */\n              0x20\n                /* \"#utility.yul\":387:396   */\n              dup3\n                /* \"#utility.yul\":378:385   */\n              dup5\n                /* \"#utility.yul\":374:397   */\n              sub\n                /* \"#utility.yul\":370:402   */\n              slt\n                /* \"#utility.yul\":367:369   */\n              iszero\n              tag_60\n              jumpi\n                /* \"#utility.yul\":420:426   */\n              dup1\n                /* \"#utility.yul\":412:418   */\n              dup2\n                /* \"#utility.yul\":405:427   */\n              revert\n                /* \"#utility.yul\":367:369   */\n            tag_60:\n                /* \"#utility.yul\":457:466   */\n              dup2\n                /* \"#utility.yul\":451:467   */\n              mload\n                /* \"#utility.yul\":476:507   */\n              tag_57\n                /* \"#utility.yul\":501:506   */\n              dup2\n                /* \"#utility.yul\":1457:1588   */\n            tag_58:\n              sub(shl(0xa0, 0x01), 0x01)\n                /* \"#utility.yul\":1532:1563   */\n              dup2\n              and\n                /* \"#utility.yul\":1522:1564   */\n              dup2\n              eq\n                /* \"#utility.yul\":1512:1514   */\n              tag_67\n              jumpi\n                /* \"#utility.yul\":1578:1579   */\n              0x00\n                /* \"#utility.yul\":1575:1576   */\n              dup1\n                /* \"#utility.yul\":1568:1580   */\n              revert\n                /* \"#utility.yul\":1512:1514   */\n            tag_67:\n                /* \"#utility.yul\":1502:1588   */\n              pop\n              jump\t// out\n\n            auxdata: 0xa26469706673582212202cc9e63e704b5fb65bbbc5c04f9ebc69a6771dc968d41f71b0022539d7bd656864736f6c63430008040033\n        }\n    }\n\n    auxdata: 0xa2646970667358221220aca4460d1691c061605f1744a3175e0d72ea1ad41095d5249a2d991804922fdf64736f6c63430008040033\n}\n",
				"bytecode": {
					"linkReferences": {},
					"object": "608060408190526004805460ff1916815560006006819055600881905554600f80546001600160a01b0319166001600160a01b03909216918217905563992642e560e01b83529163992642e5916084916020918186803b1580156200006357600080fd5b505afa15801562000078573d6000803e3d6000fd5b505050506040513d601f19601f820116820180604052508101906200009e9190620003ad565b601080546001600160a01b03929092166001600160a01b0319928316811790915560118054909216179055348015620000d657600080fd5b506040516200338a3803806200338a833981016040819052620000f991620003d1565b600f60009054906101000a90046001600160a01b03166001600160a01b031663c45a01556040518163ffffffff1660e01b815260040160206040518083038186803b1580156200014857600080fd5b505afa1580156200015d573d6000803e3d6000fd5b505050506040513d601f19601f82011682018060405250810190620001839190620003ad565b6001600160a01b0316336001600160a01b031614620001d05760405162461bcd60e51b8152602060048201526005602482015264667479206f60d81b604482015260640160405180910390fd5b8351620001e590600190602087019062000237565b50600280546001600160a01b0319166001600160a01b03851617905581516200021690600590602085019062000237565b5080516200022c90600790602084019062000237565b5050505050620004c4565b828054620002459062000471565b90600052602060002090601f016020900481019282620002695760008555620002b4565b82601f106200028457805160ff1916838001178555620002b4565b82800160010185558215620002b4579182015b82811115620002b457825182559160200191906001019062000297565b50620002c2929150620002c6565b5090565b5b80821115620002c25760008155600101620002c7565b80516001600160a01b0381168114620002f557600080fd5b919050565b600082601f8301126200030b578081fd5b81516001600160401b0380821115620003285762000328620004ae565b604051601f8301601f19908116603f01168101908282118183101715620003535762000353620004ae565b816040528381526020925086838588010111156200036f578485fd5b8491505b8382101562000392578582018301518183018401529082019062000373565b83821115620003a357848385830101525b9695505050505050565b600060208284031215620003bf578081fd5b620003ca82620002dd565b9392505050565b60008060008060808587031215620003e7578283fd5b84516001600160401b0380821115620003fe578485fd5b6200040c88838901620002fa565b95506200041c60208801620002dd565b9450604087015191508082111562000432578384fd5b6200044088838901620002fa565b9350606087015191508082111562000456578283fd5b506200046587828801620002fa565b91505092959194509250565b600181811c908216806200048657607f821691505b60208210811415620004a857634e487b7160e01b600052602260045260246000fd5b50919050565b634e487b7160e01b600052604160045260246000fd5b612eb680620004d46000396000f3fe60806040523480156200001157600080fd5b5060043610620001455760003560e01c80638eb1a4ad11620000bb578063bd92630c116200007a578063bd92630c14620002c0578063d37e299614620002d5578063e7c9a87f14620002df578063fad5677914620002f6578063fbf06338146200032357600080fd5b80638eb1a4ad146200023e578063948fb24d14620002485780639bf5b8451462000288578063a355f897146200029f578063b40a4f0514620002a957600080fd5b80632b4a352711620001085780632b4a352714620001c05780633ab8781c14620001d75780635a35846414620001fa5780636bfefd6b146200021d57806383bbe262146200022757600080fd5b806303afd56b146200014a57806306fdde0314620001765780630b469bda146200018f5780630ed5a93314620001a857806317d7de7c14620001b6575b600080fd5b620001616200015b366004620024a1565b6200032d565b60405190151581526020015b60405180910390f35b620001806200064b565b6040516200016d91906200271d565b6200019960085481565b6040519081526020016200016d565b600454620001619060ff1681565b62000180620006e1565b62000161620001d1366004620024a1565b6200077b565b62000199620001e8366004620024a1565b600d6020526000908152604090205481565b620001996200020b366004620024a1565b600e6020526000908152604090205481565b6200016162000e24565b62000161620002383660046200263f565b62000e4d565b6200018062000e9e565b6200025f62000259366004620026cd565b62000ead565b604080516001600160a01b039094168452602084019290925260ff16908201526060016200016d565b6200016162000299366004620024df565b62000eee565b62000180620010b5565b62000161620002ba3660046200258c565b620010c4565b6002546200016190600160a01b900460ff1681565b6200019960065481565b6200025f620002f0366004620026cd565b62001141565b6002546200030a906001600160a01b031681565b6040516001600160a01b0390911681526020016200016d565b6200018062001152565b600f546040805163c45a015560e01b815290516000926001600160a01b03169163c45a0155916004808301926020929190829003018186803b1580156200037357600080fd5b505afa15801562000388573d6000803e3d6000fd5b505050506040513d601f19601f82011682018060405250810190620003ae9190620024c0565b6001600160a01b0316336001600160a01b031614620003fc5760405162461bcd60e51b8152602060048201526005602482015264667479206f60d81b60448201526064015b60405180910390fd5b60008290506000816001600160a01b0316638aac9cca6040518163ffffffff1660e01b815260040160206040518083038186803b1580156200043d57600080fd5b505afa15801562000452573d6000803e3d6000fd5b505050506040513d601f19601f82011682018060405250810190620004789190620026e6565b826001600160a01b0316633a4b66f16040518163ffffffff1660e01b815260040160206040518083038186803b158015620004b257600080fd5b505afa158015620004c7573d6000803e3d6000fd5b505050506040513d601f19601f82011682018060405250810190620004ed9190620026e6565b620004f991906200280f565b9050804711620005355760405162461bcd60e51b81526020600482015260066024820152650c08199d5b9960d21b6044820152606401620003f3565b620005c2826001600160a01b031663718c7d446040518163ffffffff1660e01b815260040160206040518083038186803b1580156200057357600080fd5b505afa15801562000588573d6000803e3d6000fd5b505050506040513d601f19601f82011682018060405250810190620005ae9190620024c0565b6011546001600160a01b0316908362001161565b604051632d267e0360e11b8152600481018290526001600160a01b03831690635a4cfc0690602401602060405180830381600087803b1580156200060557600080fd5b505af11580156200061a573d6000803e3d6000fd5b505050506040513d601f19601f820116820180604052508101906200064091906200256a565b506001949350505050565b600180546200065a906200287e565b80601f016020809104026020016040519081016040528092919081815260200182805462000688906200287e565b8015620006d95780601f10620006ad57610100808354040283529160200191620006d9565b820191906000526020600020905b815481529060010190602001808311620006bb57829003601f168201915b505050505081565b606060018054620006f2906200287e565b80601f016020809104026020016040519081016040528092919081815260200182805462000720906200287e565b8015620007715780601f10620007455761010080835404028352916020019162000771565b820191906000526020600020905b8154815290600101906020018083116200075357829003601f168201915b5050505050905090565b6000808290506000816001600160a01b03166380f556056040518163ffffffff1660e01b815260040160206040518083038186803b158015620007bd57600080fd5b505afa158015620007d2573d6000803e3d6000fd5b505050506040513d601f19601f82011682018060405250810190620007f89190620024c0565b90506000826001600160a01b03166315e894ab6040518163ffffffff1660e01b815260040160206040518083038186803b1580156200083657600080fd5b505afa1580156200084b573d6000803e3d6000fd5b505050506040513d601f19601f82011682018060405250810190620008719190620024c0565b90506000836001600160a01b0316630f765e6d6040518163ffffffff1660e01b815260040160206040518083038186803b158015620008af57600080fd5b505afa158015620008c4573d6000803e3d6000fd5b505050506040513d601f19601f82011682018060405250810190620008ea9190620024c0565b90506000846001600160a01b031663156dcbf06040518163ffffffff1660e01b815260040160206040518083038186803b1580156200092857600080fd5b505afa1580156200093d573d6000803e3d6000fd5b505050506040513d601f19601f82011682018060405250810190620009639190620026e6565b90506000856001600160a01b0316632efe91ef6040518163ffffffff1660e01b815260040160206040518083038186803b158015620009a157600080fd5b505afa158015620009b6573d6000803e3d6000fd5b505050506040513d601f19601f82011682018060405250810190620009dc9190620026e6565b90506000859050806001600160a01b031663bd92630c6040518163ffffffff1660e01b815260040160206040518083038186803b15801562000a1d57600080fd5b505afa15801562000a32573d6000803e3d6000fd5b505050506040513d601f19601f8201168201806040525081019062000a5891906200256a565b62000a925760405162461bcd60e51b815260206004820152600960248201526836b5ba1018103bb4b760b91b6044820152606401620003f3565b60405164736964654160d81b602082015260250160405160208183030381529060405280519060200120816001600160a01b031663fbf063386040518163ffffffff1660e01b815260040160006040518083038186803b15801562000af657600080fd5b505afa15801562000b0b573d6000803e3d6000fd5b505050506040513d6000823e601f3d908101601f1916820160405262000b359190810190620025c3565b60405160200162000b479190620026ff565b60405160208183030381529060405280519060200120141562000c4857604051636d83a71f60e01b81526001600160a01b038681166004830152881690636d83a71f90602401602060405180830381600087803b15801562000ba857600080fd5b505af115801562000bbd573d6000803e3d6000fd5b505050506040513d601f19601f8201168201806040525081019062000be391906200256a565b5062000c2485600a62000bf8856009620027ed565b62000c049190620027cc565b62000c109086620027b1565b6011546001600160a01b0316919062001161565b60005462000c42906001600160a01b031662000c10600a85620027cc565b62000e15565b6040516439b4b232a160d91b602082015260250160405160208183030381529060405280519060200120816001600160a01b031663fbf063386040518163ffffffff1660e01b815260040160006040518083038186803b15801562000cac57600080fd5b505afa15801562000cc1573d6000803e3d6000fd5b505050506040513d6000823e601f3d908101601f1916820160405262000ceb9190810190620025c3565b60405160200162000cfd9190620026ff565b60405160208183030381529060405280519060200120141562000de457604051636d83a71f60e01b81526001600160a01b038581166004830152881690636d83a71f90602401602060405180830381600087803b15801562000d5e57600080fd5b505af115801562000d73573d6000803e3d6000fd5b505050506040513d601f19601f8201168201806040525081019062000d9991906200256a565b5062000dc684600a62000dae866009620027ed565b62000dba9190620027cc565b62000c109085620027b1565b60005462000c42906001600160a01b031662000c10600a86620027cc565b60405162461bcd60e51b81526020600482015260056024820152643c103bb4b760d91b6044820152606401620003f3565b50600198975050505050505050565b60045460009060ff161562000e395750600190565b506004805460ff1916600190811790915590565b825160009062000e6590600190602087019062002396565b50825162000e7b90600590602086019062002396565b50815162000e9190600790602085019062002396565b50600190505b9392505050565b600580546200065a906200287e565b6009818154811062000ebe57600080fd5b60009182526020909120600390910201805460018201546002909201546001600160a01b03909116925060ff1683565b600f546040805163c45a015560e01b815290516000926001600160a01b03169163c45a0155916004808301926020929190829003018186803b15801562000f3457600080fd5b505afa15801562000f49573d6000803e3d6000fd5b505050506040513d601f19601f8201168201806040525081019062000f6f9190620024c0565b6001600160a01b0316336001600160a01b03161462000fb95760405162461bcd60e51b8152602060048201526005602482015264667479206f60d81b6044820152606401620003f3565b60405164736964654160d81b6020820152602501604051602081830303815290604052805190602001208260405160200162000ff69190620026ff565b60405160208183030381529060405280519060200120141562001034576200102186868686620011ba565b6200102e858585620012d2565b620010a9565b6040516439b4b232a160d91b60208201526025016040516020818303038152906040528051906020012082604051602001620010719190620026ff565b604051602081830303815290604052805190602001201415620010a9576200109c868686866200197c565b620010a985858562001a88565b50600195945050505050565b600780546200065a906200287e565b600254600090600160a01b900460ff16151560011415620011115760405162461bcd60e51b815260206004820152600660248201526510bc103bb4b760d11b6044820152606401620003f3565b81516200112690600390602085019062002396565b50506002805460ff60a01b1916600160a01b17905550600190565b600b818154811062000ebe57600080fd5b600380546200065a906200287e565b604080516001600160a01b038416602482015260448082018490528251808303909101815260649091019091526020810180516001600160e01b031663a9059cbb60e01b179052620011b59084906200212b565b505050565b8160066000828254620011ce9190620027b1565b9091555050604080516060810182526001600160a01b038581168252602080830186815260ff86811685870190815260098054600181018255600091825296517f6e1540171b6c0c960b71a7020d9f60077f6af931a8bbf590da0223dacf75c7af600390980297880180546001600160a01b03191691881691909117905592517f6e1540171b6c0c960b71a7020d9f60077f6af931a8bbf590da0223dacf75c7b0870155517f6e1540171b6c0c960b71a7020d9f60077f6af931a8bbf590da0223dacf75c7b1909501805460ff191695909116949094179093559087168252600d90529081208054849290620012c6908490620027b1565b90915550505b50505050565b600c548015620018a557825b670de0b6b3a764000081106200189e5760008060005b8481101562001395576000600c82815481106200132157634e487b7160e01b600052603260045260246000fd5b600091825260209182902060408051606081018252600390930290910180546001600160a01b0316835260018101549383019390935260029092015460ff908116928201839052909250841610156200137f57806040015192508193505b50806200138c81620028bb565b915050620012f4565b508460ff168160ff161115620017be576000600c8381548110620013c957634e487b7160e01b600052603260045260246000fd5b6000918252602080832060408051606081018252600390940290910180546001600160a01b031680855260018201548585015260029091015460ff168483015281516345564e6560e11b8152915193955093928492638aac9cca9260048082019391829003018186803b1580156200144057600080fd5b505afa15801562001455573d6000803e3d6000fd5b505050506040513d601f19601f820116820180604052508101906200147b9190620026e6565b9050600060646200148d818b62002829565b60ff16838660200151620014a291906200280f565b620014ae9190620027ed565b620014ba9190620027cc565b905060008a821115620014cf575089620014d2565b50805b6000620014e360ff8c1683620027ed565b90506000308e88600001518585604051620014fe9062002425565b6001600160a01b03958616815293851660208501529390911660408301526060820152608081019190915260a001604051809103906000f08015801562001549573d6000803e3d6000fd5b509050600c89815481106200156e57634e487b7160e01b600052603260045260246000fd5b6000918252602082206003919091020180546001600160a01b03191681556001810191909155600201805460ff19169055604051632d267e0360e11b8152600481018490528e906001600160a01b03821690635a4cfc0690602401602060405180830381600087803b158015620015e457600080fd5b505af1158015620015f9573d6000803e3d6000fd5b505050506040513d601f19601f820116820180604052508101906200161f91906200256a565b5060405163615bdddb60e11b81526001600160a01b03838116600483015282169063c2b7bbb690602401602060405180830381600087803b1580156200166457600080fd5b505af115801562001679573d6000803e3d6000fd5b505050506040513d601f19601f820116820180604052508101906200169f91906200256a565b508751604051632d267e0360e11b8152600481018590526001600160a01b03821690635a4cfc0690602401602060405180830381600087803b158015620016e557600080fd5b505af1158015620016fa573d6000803e3d6000fd5b505050506040513d601f19601f820116820180604052508101906200172091906200256a565b5060405163615bdddb60e11b81526001600160a01b03848116600483015282169063c2b7bbb690602401602060405180830381600087803b1580156200176557600080fd5b505af11580156200177a573d6000803e3d6000fd5b505050506040513d601f19601f82011682018060405250810190620017a091906200256a565b50620017ad858d6200280f565b9b5050505050505050505062001896565b5050604080516060810182526001600160a01b0387811682526020820187815260ff878116948401948552600a805460018101825560009190915293517fc65a7bb8d6351c1cf70c95a316cc6a92839c986682d98bc35f958f4883f9d2a8600390950294850180546001600160a01b0319169190941617909255517fc65a7bb8d6351c1cf70c95a316cc6a92839c986682d98bc35f958f4883f9d2a983015591517fc65a7bb8d6351c1cf70c95a316cc6a92839c986682d98bc35f958f4883f9d2aa909101805460ff1916919092161790556200189e565b5050620012de565b50620012cc565b50604080516060810182526001600160a01b0394851681526020810193845260ff928316918101918252600a805460018101825560009190915290517fc65a7bb8d6351c1cf70c95a316cc6a92839c986682d98bc35f958f4883f9d2a8600390920291820180546001600160a01b031916919096161790945591517fc65a7bb8d6351c1cf70c95a316cc6a92839c986682d98bc35f958f4883f9d2a984015590517fc65a7bb8d6351c1cf70c95a316cc6a92839c986682d98bc35f958f4883f9d2aa909201805460ff191692909116919091179055565b8160086000828254620019909190620027b1565b9091555050604080516060810182526001600160a01b038581168252602080830186815260ff868116858701908152600b8054600181018255600091825296517f0175b7a638427703f0dbe7bb9bbf987a2551717b34e79f33b5b1008d1fa01db9600390980297880180546001600160a01b03191691881691909117905592517f0175b7a638427703f0dbe7bb9bbf987a2551717b34e79f33b5b1008d1fa01dba870155517f0175b7a638427703f0dbe7bb9bbf987a2551717b34e79f33b5b1008d1fa01dbb909501805460ff191695909116949094179093559087168252600e90529081208054849290620012c6908490620027b1565b600a5480156200205457825b670de0b6b3a764000081106200189e5760008060005b8481101562001b4b576000600a828154811062001ad757634e487b7160e01b600052603260045260246000fd5b600091825260209182902060408051606081018252600390930290910180546001600160a01b0316835260018101549383019390935260029092015460ff9081169282018390529092508416101562001b3557806040015192508193505b508062001b4281620028bb565b91505062001aaa565b508460ff168160ff16111562001f74576000600a838154811062001b7f57634e487b7160e01b600052603260045260246000fd5b6000918252602080832060408051606081018252600390940290910180546001600160a01b031680855260018201548585015260029091015460ff168483015281516345564e6560e11b8152915193955093928492638aac9cca9260048082019391829003018186803b15801562001bf657600080fd5b505afa15801562001c0b573d6000803e3d6000fd5b505050506040513d601f19601f8201168201806040525081019062001c319190620026e6565b90506000606462001c43818b62002829565b60ff1683866020015162001c5891906200280f565b62001c649190620027ed565b62001c709190620027cc565b905060008a82111562001c8557508962001c88565b50805b600062001c9960ff8c1683620027ed565b905060003087600001518f848660405162001cb49062002425565b6001600160a01b03958616815293851660208501529390911660408301526060820152608081019190915260a001604051809103906000f08015801562001cff573d6000803e3d6000fd5b509050600a898154811062001d2457634e487b7160e01b600052603260045260246000fd5b6000918252602082206003919091020180546001600160a01b03191681556001810191909155600201805460ff19169055604051632d267e0360e11b8152600481018490528e906001600160a01b03821690635a4cfc0690602401602060405180830381600087803b15801562001d9a57600080fd5b505af115801562001daf573d6000803e3d6000fd5b505050506040513d601f19601f8201168201806040525081019062001dd591906200256a565b5060405163615bdddb60e11b81526001600160a01b03838116600483015282169063c2b7bbb690602401602060405180830381600087803b15801562001e1a57600080fd5b505af115801562001e2f573d6000803e3d6000fd5b505050506040513d601f19601f8201168201806040525081019062001e5591906200256a565b508751604051632d267e0360e11b8152600481018590526001600160a01b03821690635a4cfc0690602401602060405180830381600087803b15801562001e9b57600080fd5b505af115801562001eb0573d6000803e3d6000fd5b505050506040513d601f19601f8201168201806040525081019062001ed691906200256a565b5060405163615bdddb60e11b81526001600160a01b03848116600483015282169063c2b7bbb690602401602060405180830381600087803b15801562001f1b57600080fd5b505af115801562001f30573d6000803e3d6000fd5b505050506040513d601f19601f8201168201806040525081019062001f5691906200256a565b5062001f63848d6200280f565b9b505050505050505050506200204c565b5050604080516060810182526001600160a01b0387811682526020820187815260ff878116948401948552600c805460018101825560009190915293517fdf6966c971051c3d54ec59162606531493a51404a002842f56009d7e5cf4a8c7600390950294850180546001600160a01b0319169190941617909255517fdf6966c971051c3d54ec59162606531493a51404a002842f56009d7e5cf4a8c883015591517fdf6966c971051c3d54ec59162606531493a51404a002842f56009d7e5cf4a8c9909101805460ff1916919092161790556200189e565b505062001a94565b50604080516060810182526001600160a01b0394851681526020810193845260ff928316918101918252600c805460018101825560009190915290517fdf6966c971051c3d54ec59162606531493a51404a002842f56009d7e5cf4a8c7600390920291820180546001600160a01b031916919096161790945591517fdf6966c971051c3d54ec59162606531493a51404a002842f56009d7e5cf4a8c884015590517fdf6966c971051c3d54ec59162606531493a51404a002842f56009d7e5cf4a8c9909201805460ff191692909116919091179055565b600062002182826040518060400160405280602081526020017f5361666545524332303a206c6f772d6c6576656c2063616c6c206661696c6564815250856001600160a01b0316620022049092919063ffffffff16565b805190915015620011b55780806020019051810190620021a391906200256a565b620011b55760405162461bcd60e51b815260206004820152602a60248201527f5361666545524332303a204552433230206f7065726174696f6e20646964206e6044820152691bdd081cdd58d8d9595960b21b6064820152608401620003f3565b60606200221584846000856200221d565b949350505050565b606082471015620022805760405162461bcd60e51b815260206004820152602660248201527f416464726573733a20696e73756666696369656e742062616c616e636520666f6044820152651c8818d85b1b60d21b6064820152608401620003f3565b6001600160a01b0385163b620022d95760405162461bcd60e51b815260206004820152601d60248201527f416464726573733a2063616c6c20746f206e6f6e2d636f6e74726163740000006044820152606401620003f3565b600080866001600160a01b03168587604051620022f79190620026ff565b60006040518083038185875af1925050503d806000811462002336576040519150601f19603f3d011682016040523d82523d6000602084013e6200233b565b606091505b50915091506200234d82828662002358565b979650505050505050565b606083156200236957508162000e97565b8251156200237a5782518084602001fd5b8160405162461bcd60e51b8152600401620003f391906200271d565b828054620023a4906200287e565b90600052602060002090601f016020900481019282620023c8576000855562002413565b82601f10620023e357805160ff191683800117855562002413565b8280016001018555821562002413579182015b8281111562002413578251825591602001919060010190620023f6565b506200242192915062002433565b5090565b610562806200291f83390190565b5b8082111562002421576000815560010162002434565b600082601f8301126200245b578081fd5b8135620024726200246c8262002786565b62002752565b81815284602083860101111562002487578283fd5b816020850160208301379081016020019190915292915050565b600060208284031215620024b3578081fd5b813562000e978162002905565b600060208284031215620024d2578081fd5b815162000e978162002905565b600080600080600060a08688031215620024f7578081fd5b8535620025048162002905565b94506020860135620025168162002905565b935060408601359250606086013560ff8116811462002533578182fd5b9150608086013567ffffffffffffffff8111156200254f578182fd5b6200255d888289016200244a565b9150509295509295909350565b6000602082840312156200257c578081fd5b8151801515811462000e97578182fd5b6000602082840312156200259e578081fd5b813567ffffffffffffffff811115620025b5578182fd5b62002215848285016200244a565b600060208284031215620025d5578081fd5b815167ffffffffffffffff811115620025ec578182fd5b8201601f81018413620025fd578182fd5b80516200260e6200246c8262002786565b81815285602083850101111562002623578384fd5b620026368260208301602086016200284f565b95945050505050565b60008060006060848603121562002654578283fd5b833567ffffffffffffffff808211156200266c578485fd5b6200267a878388016200244a565b9450602086013591508082111562002690578384fd5b6200269e878388016200244a565b93506040860135915080821115620026b4578283fd5b50620026c3868287016200244a565b9150509250925092565b600060208284031215620026df578081fd5b5035919050565b600060208284031215620026f8578081fd5b5051919050565b60008251620027138184602087016200284f565b9190910192915050565b60208152600082518060208401526200273e8160408501602087016200284f565b601f01601f19169190910160400192915050565b604051601f8201601f1916810167ffffffffffffffff811182821017156200277e576200277e620028ef565b604052919050565b600067ffffffffffffffff821115620027a357620027a3620028ef565b50601f01601f191660200190565b60008219821115620027c757620027c7620028d9565b500190565b600082620027e857634e487b7160e01b81526012600452602481fd5b500490565b60008160001904831182151516156200280a576200280a620028d9565b500290565b600082821015620028245762002824620028d9565b500390565b600060ff821660ff841680821015620028465762002846620028d9565b90039392505050565b60005b838110156200286c57818101518382015260200162002852565b83811115620012cc5750506000910152565b600181811c908216806200289357607f821691505b60208210811415620028b557634e487b7160e01b600052602260045260246000fd5b50919050565b6000600019821415620028d257620028d2620028d9565b5060010190565b634e487b7160e01b600052601160045260246000fd5b634e487b7160e01b600052604160045260246000fd5b6001600160a01b03811681146200291b57600080fd5b5056fe6080604052600054600880546001600160a01b0319166001600160a01b0390921691909117905534801561003257600080fd5b50604051610562380380610562833981016040819052610051916101ac565b600860009054906101000a90046001600160a01b03166001600160a01b031663c45a01556040518163ffffffff1660e01b815260040160206040518083038186803b15801561009f57600080fd5b505afa1580156100b3573d6000803e3d6000fd5b505050506040513d601f19601f820116820180604052508101906100d7919061018b565b6001600160a01b0316336001600160a01b0316146101235760405162461bcd60e51b8152602060048201526005602482015264667479206f60d81b604482015260640160405180910390fd5b600180546001600160a01b03199081166001600160a01b039788161790915560028054821695871695909517909455600380549094169290941691909117909155600655600755610201565b80516001600160a01b038116811461018657600080fd5b919050565b60006020828403121561019c578081fd5b6101a58261016f565b9392505050565b600080600080600060a086880312156101c3578081fd5b6101cc8661016f565b94506101da6020870161016f565b93506101e86040870161016f565b6060870151608090970151959894975095949392505050565b610352806102106000396000f3fe608060405234801561001057600080fd5b50600436106100885760003560e01c80636d83a71f1161005b5780636d83a71f146100f057806380f5560514610113578063baa1a3ec14610126578063ed7a4e0b1461013957600080fd5b80630f765e6d1461008d578063156dcbf0146100bd57806315e894ab146100d45780632efe91ef146100e7575b600080fd5b6003546100a0906001600160a01b031681565b6040516001600160a01b0390911681526020015b60405180910390f35b6100c660065481565b6040519081526020016100b4565b6002546100a0906001600160a01b031681565b6100c660075481565b6101036100fe3660046102c9565b61014c565b60405190151581526020016100b4565b6001546100a0906001600160a01b031681565b6004546100a0906001600160a01b031681565b6005546100a0906001600160a01b031681565b6008546040805163c45a015560e01b815290516000926001600160a01b03169163c45a0155916004808301926020929190829003018186803b15801561019157600080fd5b505afa1580156101a5573d6000803e3d6000fd5b505050506040513d601f19601f820116820180604052508101906101c991906102ec565b6001600160a01b0316336001600160a01b0316146102155760405162461bcd60e51b8152602060048201526005602482015264667479206f60d81b604482015260640160405180910390fd5b600480546001600160a01b0319166001600160a01b038416908117825560408051631c631f5160e21b815290519192839263718c7d44928083019260209291829003018186803b15801561026857600080fd5b505afa15801561027c573d6000803e3d6000fd5b505050506040513d601f19601f820116820180604052508101906102a091906102ec565b600580546001600160a01b0319166001600160a01b039290921691909117905550600192915050565b6000602082840312156102da578081fd5b81356102e581610304565b9392505050565b6000602082840312156102fd578081fd5b81516102e5815b6001600160a01b038116811461031957600080fd5b5056fea26469706673582212202cc9e63e704b5fb65bbbc5c04f9ebc69a6771dc968d41f71b0022539d7bd656864736f6c63430008040033a2646970667358221220aca4460d1691c061605f1744a3175e0d72ea1ad41095d5249a2d991804922fdf64736f6c63430008040033",
					"opcodes": "PUSH1 0x80 PUSH1 0x40 DUP2 SWAP1 MSTORE PUSH1 0x4 DUP1 SLOAD PUSH1 0xFF NOT AND DUP2 SSTORE PUSH1 0x0 PUSH1 0x6 DUP2 SWAP1 SSTORE PUSH1 0x8 DUP2 SWAP1 SSTORE SLOAD PUSH1 0xF DUP1 SLOAD PUSH1 0x1 PUSH1 0x1 PUSH1 0xA0 SHL SUB NOT AND PUSH1 0x1 PUSH1 0x1 PUSH1 0xA0 SHL SUB SWAP1 SWAP3 AND SWAP2 DUP3 OR SWAP1 SSTORE PUSH4 0x992642E5 PUSH1 0xE0 SHL DUP4 MSTORE SWAP2 PUSH4 0x992642E5 SWAP2 PUSH1 0x84 SWAP2 PUSH1 0x20 SWAP2 DUP2 DUP7 DUP1 EXTCODESIZE ISZERO DUP1 ISZERO PUSH3 0x63 JUMPI PUSH1 0x0 DUP1 REVERT JUMPDEST POP GAS STATICCALL ISZERO DUP1 ISZERO PUSH3 0x78 JUMPI RETURNDATASIZE PUSH1 0x0 DUP1 RETURNDATACOPY RETURNDATASIZE PUSH1 0x0 REVERT JUMPDEST POP POP POP POP PUSH1 0x40 MLOAD RETURNDATASIZE PUSH1 0x1F NOT PUSH1 0x1F DUP3 ADD AND DUP3 ADD DUP1 PUSH1 0x40 MSTORE POP DUP2 ADD SWAP1 PUSH3 0x9E SWAP2 SWAP1 PUSH3 0x3AD JUMP JUMPDEST PUSH1 0x10 DUP1 SLOAD PUSH1 0x1 PUSH1 0x1 PUSH1 0xA0 SHL SUB SWAP3 SWAP1 SWAP3 AND PUSH1 0x1 PUSH1 0x1 PUSH1 0xA0 SHL SUB NOT SWAP3 DUP4 AND DUP2 OR SWAP1 SWAP2 SSTORE PUSH1 0x11 DUP1 SLOAD SWAP1 SWAP3 AND OR SWAP1 SSTORE CALLVALUE DUP1 ISZERO PUSH3 0xD6 JUMPI PUSH1 0x0 DUP1 REVERT JUMPDEST POP PUSH1 0x40 MLOAD PUSH3 0x338A CODESIZE SUB DUP1 PUSH3 0x338A DUP4 CODECOPY DUP2 ADD PUSH1 0x40 DUP2 SWAP1 MSTORE PUSH3 0xF9 SWAP2 PUSH3 0x3D1 JUMP JUMPDEST PUSH1 0xF PUSH1 0x0 SWAP1 SLOAD SWAP1 PUSH2 0x100 EXP SWAP1 DIV PUSH1 0x1 PUSH1 0x1 PUSH1 0xA0 SHL SUB AND PUSH1 0x1 PUSH1 0x1 PUSH1 0xA0 SHL SUB AND PUSH4 0xC45A0155 PUSH1 0x40 MLOAD DUP2 PUSH4 0xFFFFFFFF AND PUSH1 0xE0 SHL DUP2 MSTORE PUSH1 0x4 ADD PUSH1 0x20 PUSH1 0x40 MLOAD DUP1 DUP4 SUB DUP2 DUP7 DUP1 EXTCODESIZE ISZERO DUP1 ISZERO PUSH3 0x148 JUMPI PUSH1 0x0 DUP1 REVERT JUMPDEST POP GAS STATICCALL ISZERO DUP1 ISZERO PUSH3 0x15D JUMPI RETURNDATASIZE PUSH1 0x0 DUP1 RETURNDATACOPY RETURNDATASIZE PUSH1 0x0 REVERT JUMPDEST POP POP POP POP PUSH1 0x40 MLOAD RETURNDATASIZE PUSH1 0x1F NOT PUSH1 0x1F DUP3 ADD AND DUP3 ADD DUP1 PUSH1 0x40 MSTORE POP DUP2 ADD SWAP1 PUSH3 0x183 SWAP2 SWAP1 PUSH3 0x3AD JUMP JUMPDEST PUSH1 0x1 PUSH1 0x1 PUSH1 0xA0 SHL SUB AND CALLER PUSH1 0x1 PUSH1 0x1 PUSH1 0xA0 SHL SUB AND EQ PUSH3 0x1D0 JUMPI PUSH1 0x40 MLOAD PUSH3 0x461BCD PUSH1 0xE5 SHL DUP2 MSTORE PUSH1 0x20 PUSH1 0x4 DUP3 ADD MSTORE PUSH1 0x5 PUSH1 0x24 DUP3 ADD MSTORE PUSH5 0x667479206F PUSH1 0xD8 SHL PUSH1 0x44 DUP3 ADD MSTORE PUSH1 0x64 ADD PUSH1 0x40 MLOAD DUP1 SWAP2 SUB SWAP1 REVERT JUMPDEST DUP4 MLOAD PUSH3 0x1E5 SWAP1 PUSH1 0x1 SWAP1 PUSH1 0x20 DUP8 ADD SWAP1 PUSH3 0x237 JUMP JUMPDEST POP PUSH1 0x2 DUP1 SLOAD PUSH1 0x1 PUSH1 0x1 PUSH1 0xA0 SHL SUB NOT AND PUSH1 0x1 PUSH1 0x1 PUSH1 0xA0 SHL SUB DUP6 AND OR SWAP1 SSTORE DUP2 MLOAD PUSH3 0x216 SWAP1 PUSH1 0x5 SWAP1 PUSH1 0x20 DUP6 ADD SWAP1 PUSH3 0x237 JUMP JUMPDEST POP DUP1 MLOAD PUSH3 0x22C SWAP1 PUSH1 0x7 SWAP1 PUSH1 0x20 DUP5 ADD SWAP1 PUSH3 0x237 JUMP JUMPDEST POP POP POP POP POP PUSH3 0x4C4 JUMP JUMPDEST DUP3 DUP1 SLOAD PUSH3 0x245 SWAP1 PUSH3 0x471 JUMP JUMPDEST SWAP1 PUSH1 0x0 MSTORE PUSH1 0x20 PUSH1 0x0 KECCAK256 SWAP1 PUSH1 0x1F ADD PUSH1 0x20 SWAP1 DIV DUP2 ADD SWAP3 DUP3 PUSH3 0x269 JUMPI PUSH1 0x0 DUP6 SSTORE PUSH3 0x2B4 JUMP JUMPDEST DUP3 PUSH1 0x1F LT PUSH3 0x284 JUMPI DUP1 MLOAD PUSH1 0xFF NOT AND DUP4 DUP1 ADD OR DUP6 SSTORE PUSH3 0x2B4 JUMP JUMPDEST DUP3 DUP1 ADD PUSH1 0x1 ADD DUP6 SSTORE DUP3 ISZERO PUSH3 0x2B4 JUMPI SWAP2 DUP3 ADD JUMPDEST DUP3 DUP2 GT ISZERO PUSH3 0x2B4 JUMPI DUP3 MLOAD DUP3 SSTORE SWAP2 PUSH1 0x20 ADD SWAP2 SWAP1 PUSH1 0x1 ADD SWAP1 PUSH3 0x297 JUMP JUMPDEST POP PUSH3 0x2C2 SWAP3 SWAP2 POP PUSH3 0x2C6 JUMP JUMPDEST POP SWAP1 JUMP JUMPDEST JUMPDEST DUP1 DUP3 GT ISZERO PUSH3 0x2C2 JUMPI PUSH1 0x0 DUP2 SSTORE PUSH1 0x1 ADD PUSH3 0x2C7 JUMP JUMPDEST DUP1 MLOAD PUSH1 0x1 PUSH1 0x1 PUSH1 0xA0 SHL SUB DUP2 AND DUP2 EQ PUSH3 0x2F5 JUMPI PUSH1 0x0 DUP1 REVERT JUMPDEST SWAP2 SWAP1 POP JUMP JUMPDEST PUSH1 0x0 DUP3 PUSH1 0x1F DUP4 ADD SLT PUSH3 0x30B JUMPI DUP1 DUP2 REVERT JUMPDEST DUP2 MLOAD PUSH1 0x1 PUSH1 0x1 PUSH1 0x40 SHL SUB DUP1 DUP3 GT ISZERO PUSH3 0x328 JUMPI PUSH3 0x328 PUSH3 0x4AE JUMP JUMPDEST PUSH1 0x40 MLOAD PUSH1 0x1F DUP4 ADD PUSH1 0x1F NOT SWAP1 DUP2 AND PUSH1 0x3F ADD AND DUP2 ADD SWAP1 DUP3 DUP3 GT DUP2 DUP4 LT OR ISZERO PUSH3 0x353 JUMPI PUSH3 0x353 PUSH3 0x4AE JUMP JUMPDEST DUP2 PUSH1 0x40 MSTORE DUP4 DUP2 MSTORE PUSH1 0x20 SWAP3 POP DUP7 DUP4 DUP6 DUP9 ADD ADD GT ISZERO PUSH3 0x36F JUMPI DUP5 DUP6 REVERT JUMPDEST DUP5 SWAP2 POP JUMPDEST DUP4 DUP3 LT ISZERO PUSH3 0x392 JUMPI DUP6 DUP3 ADD DUP4 ADD MLOAD DUP2 DUP4 ADD DUP5 ADD MSTORE SWAP1 DUP3 ADD SWAP1 PUSH3 0x373 JUMP JUMPDEST DUP4 DUP3 GT ISZERO PUSH3 0x3A3 JUMPI DUP5 DUP4 DUP6 DUP4 ADD ADD MSTORE JUMPDEST SWAP7 SWAP6 POP POP POP POP POP POP JUMP JUMPDEST PUSH1 0x0 PUSH1 0x20 DUP3 DUP5 SUB SLT ISZERO PUSH3 0x3BF JUMPI DUP1 DUP2 REVERT JUMPDEST PUSH3 0x3CA DUP3 PUSH3 0x2DD JUMP JUMPDEST SWAP4 SWAP3 POP POP POP JUMP JUMPDEST PUSH1 0x0 DUP1 PUSH1 0x0 DUP1 PUSH1 0x80 DUP6 DUP8 SUB SLT ISZERO PUSH3 0x3E7 JUMPI DUP3 DUP4 REVERT JUMPDEST DUP5 MLOAD PUSH1 0x1 PUSH1 0x1 PUSH1 0x40 SHL SUB DUP1 DUP3 GT ISZERO PUSH3 0x3FE JUMPI DUP5 DUP6 REVERT JUMPDEST PUSH3 0x40C DUP9 DUP4 DUP10 ADD PUSH3 0x2FA JUMP JUMPDEST SWAP6 POP PUSH3 0x41C PUSH1 0x20 DUP9 ADD PUSH3 0x2DD JUMP JUMPDEST SWAP5 POP PUSH1 0x40 DUP8 ADD MLOAD SWAP2 POP DUP1 DUP3 GT ISZERO PUSH3 0x432 JUMPI DUP4 DUP5 REVERT JUMPDEST PUSH3 0x440 DUP9 DUP4 DUP10 ADD PUSH3 0x2FA JUMP JUMPDEST SWAP4 POP PUSH1 0x60 DUP8 ADD MLOAD SWAP2 POP DUP1 DUP3 GT ISZERO PUSH3 0x456 JUMPI DUP3 DUP4 REVERT JUMPDEST POP PUSH3 0x465 DUP8 DUP3 DUP9 ADD PUSH3 0x2FA JUMP JUMPDEST SWAP2 POP POP SWAP3 SWAP6 SWAP2 SWAP5 POP SWAP3 POP JUMP JUMPDEST PUSH1 0x1 DUP2 DUP2 SHR SWAP1 DUP3 AND DUP1 PUSH3 0x486 JUMPI PUSH1 0x7F DUP3 AND SWAP2 POP JUMPDEST PUSH1 0x20 DUP3 LT DUP2 EQ ISZERO PUSH3 0x4A8 JUMPI PUSH4 0x4E487B71 PUSH1 0xE0 SHL PUSH1 0x0 MSTORE PUSH1 0x22 PUSH1 0x4 MSTORE PUSH1 0x24 PUSH1 0x0 REVERT JUMPDEST POP SWAP2 SWAP1 POP JUMP JUMPDEST PUSH4 0x4E487B71 PUSH1 0xE0 SHL PUSH1 0x0 MSTORE PUSH1 0x41 PUSH1 0x4 MSTORE PUSH1 0x24 PUSH1 0x0 REVERT JUMPDEST PUSH2 0x2EB6 DUP1 PUSH3 0x4D4 PUSH1 0x0 CODECOPY PUSH1 0x0 RETURN INVALID PUSH1 0x80 PUSH1 0x40 MSTORE CALLVALUE DUP1 ISZERO PUSH3 0x11 JUMPI PUSH1 0x0 DUP1 REVERT JUMPDEST POP PUSH1 0x4 CALLDATASIZE LT PUSH3 0x145 JUMPI PUSH1 0x0 CALLDATALOAD PUSH1 0xE0 SHR DUP1 PUSH4 0x8EB1A4AD GT PUSH3 0xBB JUMPI DUP1 PUSH4 0xBD92630C GT PUSH3 0x7A JUMPI DUP1 PUSH4 0xBD92630C EQ PUSH3 0x2C0 JUMPI DUP1 PUSH4 0xD37E2996 EQ PUSH3 0x2D5 JUMPI DUP1 PUSH4 0xE7C9A87F EQ PUSH3 0x2DF JUMPI DUP1 PUSH4 0xFAD56779 EQ PUSH3 0x2F6 JUMPI DUP1 PUSH4 0xFBF06338 EQ PUSH3 0x323 JUMPI PUSH1 0x0 DUP1 REVERT JUMPDEST DUP1 PUSH4 0x8EB1A4AD EQ PUSH3 0x23E JUMPI DUP1 PUSH4 0x948FB24D EQ PUSH3 0x248 JUMPI DUP1 PUSH4 0x9BF5B845 EQ PUSH3 0x288 JUMPI DUP1 PUSH4 0xA355F897 EQ PUSH3 0x29F JUMPI DUP1 PUSH4 0xB40A4F05 EQ PUSH3 0x2A9 JUMPI PUSH1 0x0 DUP1 REVERT JUMPDEST DUP1 PUSH4 0x2B4A3527 GT PUSH3 0x108 JUMPI DUP1 PUSH4 0x2B4A3527 EQ PUSH3 0x1C0 JUMPI DUP1 PUSH4 0x3AB8781C EQ PUSH3 0x1D7 JUMPI DUP1 PUSH4 0x5A358464 EQ PUSH3 0x1FA JUMPI DUP1 PUSH4 0x6BFEFD6B EQ PUSH3 0x21D JUMPI DUP1 PUSH4 0x83BBE262 EQ PUSH3 0x227 JUMPI PUSH1 0x0 DUP1 REVERT JUMPDEST DUP1 PUSH4 0x3AFD56B EQ PUSH3 0x14A JUMPI DUP1 PUSH4 0x6FDDE03 EQ PUSH3 0x176 JUMPI DUP1 PUSH4 0xB469BDA EQ PUSH3 0x18F JUMPI DUP1 PUSH4 0xED5A933 EQ PUSH3 0x1A8 JUMPI DUP1 PUSH4 0x17D7DE7C EQ PUSH3 0x1B6 JUMPI JUMPDEST PUSH1 0x0 DUP1 REVERT JUMPDEST PUSH3 0x161 PUSH3 0x15B CALLDATASIZE PUSH1 0x4 PUSH3 0x24A1 JUMP JUMPDEST PUSH3 0x32D JUMP JUMPDEST PUSH1 0x40 MLOAD SWAP1 ISZERO ISZERO DUP2 MSTORE PUSH1 0x20 ADD JUMPDEST PUSH1 0x40 MLOAD DUP1 SWAP2 SUB SWAP1 RETURN JUMPDEST PUSH3 0x180 PUSH3 0x64B JUMP JUMPDEST PUSH1 0x40 MLOAD PUSH3 0x16D SWAP2 SWAP1 PUSH3 0x271D JUMP JUMPDEST PUSH3 0x199 PUSH1 0x8 SLOAD DUP2 JUMP JUMPDEST PUSH1 0x40 MLOAD SWAP1 DUP2 MSTORE PUSH1 0x20 ADD PUSH3 0x16D JUMP JUMPDEST PUSH1 0x4 SLOAD PUSH3 0x161 SWAP1 PUSH1 0xFF AND DUP2 JUMP JUMPDEST PUSH3 0x180 PUSH3 0x6E1 JUMP JUMPDEST PUSH3 0x161 PUSH3 0x1D1 CALLDATASIZE PUSH1 0x4 PUSH3 0x24A1 JUMP JUMPDEST PUSH3 0x77B JUMP JUMPDEST PUSH3 0x199 PUSH3 0x1E8 CALLDATASIZE PUSH1 0x4 PUSH3 0x24A1 JUMP JUMPDEST PUSH1 0xD PUSH1 0x20 MSTORE PUSH1 0x0 SWAP1 DUP2 MSTORE PUSH1 0x40 SWAP1 KECCAK256 SLOAD DUP2 JUMP JUMPDEST PUSH3 0x199 PUSH3 0x20B CALLDATASIZE PUSH1 0x4 PUSH3 0x24A1 JUMP JUMPDEST PUSH1 0xE PUSH1 0x20 MSTORE PUSH1 0x0 SWAP1 DUP2 MSTORE PUSH1 0x40 SWAP1 KECCAK256 SLOAD DUP2 JUMP JUMPDEST PUSH3 0x161 PUSH3 0xE24 JUMP JUMPDEST PUSH3 0x161 PUSH3 0x238 CALLDATASIZE PUSH1 0x4 PUSH3 0x263F JUMP JUMPDEST PUSH3 0xE4D JUMP JUMPDEST PUSH3 0x180 PUSH3 0xE9E JUMP JUMPDEST PUSH3 0x25F PUSH3 0x259 CALLDATASIZE PUSH1 0x4 PUSH3 0x26CD JUMP JUMPDEST PUSH3 0xEAD JUMP JUMPDEST PUSH1 0x40 DUP1 MLOAD PUSH1 0x1 PUSH1 0x1 PUSH1 0xA0 SHL SUB SWAP1 SWAP5 AND DUP5 MSTORE PUSH1 0x20 DUP5 ADD SWAP3 SWAP1 SWAP3 MSTORE PUSH1 0xFF AND SWAP1 DUP3 ADD MSTORE PUSH1 0x60 ADD PUSH3 0x16D JUMP JUMPDEST PUSH3 0x161 PUSH3 0x299 CALLDATASIZE PUSH1 0x4 PUSH3 0x24DF JUMP JUMPDEST PUSH3 0xEEE JUMP JUMPDEST PUSH3 0x180 PUSH3 0x10B5 JUMP JUMPDEST PUSH3 0x161 PUSH3 0x2BA CALLDATASIZE PUSH1 0x4 PUSH3 0x258C JUMP JUMPDEST PUSH3 0x10C4 JUMP JUMPDEST PUSH1 0x2 SLOAD PUSH3 0x161 SWAP1 PUSH1 0x1 PUSH1 0xA0 SHL SWAP1 DIV PUSH1 0xFF AND DUP2 JUMP JUMPDEST PUSH3 0x199 PUSH1 0x6 SLOAD DUP2 JUMP JUMPDEST PUSH3 0x25F PUSH3 0x2F0 CALLDATASIZE PUSH1 0x4 PUSH3 0x26CD JUMP JUMPDEST PUSH3 0x1141 JUMP JUMPDEST PUSH1 0x2 SLOAD PUSH3 0x30A SWAP1 PUSH1 0x1 PUSH1 0x1 PUSH1 0xA0 SHL SUB AND DUP2 JUMP JUMPDEST PUSH1 0x40 MLOAD PUSH1 0x1 PUSH1 0x1 PUSH1 0xA0 SHL SUB SWAP1 SWAP2 AND DUP2 MSTORE PUSH1 0x20 ADD PUSH3 0x16D JUMP JUMPDEST PUSH3 0x180 PUSH3 0x1152 JUMP JUMPDEST PUSH1 0xF SLOAD PUSH1 0x40 DUP1 MLOAD PUSH4 0xC45A0155 PUSH1 0xE0 SHL DUP2 MSTORE SWAP1 MLOAD PUSH1 0x0 SWAP3 PUSH1 0x1 PUSH1 0x1 PUSH1 0xA0 SHL SUB AND SWAP2 PUSH4 0xC45A0155 SWAP2 PUSH1 0x4 DUP1 DUP4 ADD SWAP3 PUSH1 0x20 SWAP3 SWAP2 SWAP1 DUP3 SWAP1 SUB ADD DUP2 DUP7 DUP1 EXTCODESIZE ISZERO DUP1 ISZERO PUSH3 0x373 JUMPI PUSH1 0x0 DUP1 REVERT JUMPDEST POP GAS STATICCALL ISZERO DUP1 ISZERO PUSH3 0x388 JUMPI RETURNDATASIZE PUSH1 0x0 DUP1 RETURNDATACOPY RETURNDATASIZE PUSH1 0x0 REVERT JUMPDEST POP POP POP POP PUSH1 0x40 MLOAD RETURNDATASIZE PUSH1 0x1F NOT PUSH1 0x1F DUP3 ADD AND DUP3 ADD DUP1 PUSH1 0x40 MSTORE POP DUP2 ADD SWAP1 PUSH3 0x3AE SWAP2 SWAP1 PUSH3 0x24C0 JUMP JUMPDEST PUSH1 0x1 PUSH1 0x1 PUSH1 0xA0 SHL SUB AND CALLER PUSH1 0x1 PUSH1 0x1 PUSH1 0xA0 SHL SUB AND EQ PUSH3 0x3FC JUMPI PUSH1 0x40 MLOAD PUSH3 0x461BCD PUSH1 0xE5 SHL DUP2 MSTORE PUSH1 0x20 PUSH1 0x4 DUP3 ADD MSTORE PUSH1 0x5 PUSH1 0x24 DUP3 ADD MSTORE PUSH5 0x667479206F PUSH1 0xD8 SHL PUSH1 0x44 DUP3 ADD MSTORE PUSH1 0x64 ADD JUMPDEST PUSH1 0x40 MLOAD DUP1 SWAP2 SUB SWAP1 REVERT JUMPDEST PUSH1 0x0 DUP3 SWAP1 POP PUSH1 0x0 DUP2 PUSH1 0x1 PUSH1 0x1 PUSH1 0xA0 SHL SUB AND PUSH4 0x8AAC9CCA PUSH1 0x40 MLOAD DUP2 PUSH4 0xFFFFFFFF AND PUSH1 0xE0 SHL DUP2 MSTORE PUSH1 0x4 ADD PUSH1 0x20 PUSH1 0x40 MLOAD DUP1 DUP4 SUB DUP2 DUP7 DUP1 EXTCODESIZE ISZERO DUP1 ISZERO PUSH3 0x43D JUMPI PUSH1 0x0 DUP1 REVERT JUMPDEST POP GAS STATICCALL ISZERO DUP1 ISZERO PUSH3 0x452 JUMPI RETURNDATASIZE PUSH1 0x0 DUP1 RETURNDATACOPY RETURNDATASIZE PUSH1 0x0 REVERT JUMPDEST POP POP POP POP PUSH1 0x40 MLOAD RETURNDATASIZE PUSH1 0x1F NOT PUSH1 0x1F DUP3 ADD AND DUP3 ADD DUP1 PUSH1 0x40 MSTORE POP DUP2 ADD SWAP1 PUSH3 0x478 SWAP2 SWAP1 PUSH3 0x26E6 JUMP JUMPDEST DUP3 PUSH1 0x1 PUSH1 0x1 PUSH1 0xA0 SHL SUB AND PUSH4 0x3A4B66F1 PUSH1 0x40 MLOAD DUP2 PUSH4 0xFFFFFFFF AND PUSH1 0xE0 SHL DUP2 MSTORE PUSH1 0x4 ADD PUSH1 0x20 PUSH1 0x40 MLOAD DUP1 DUP4 SUB DUP2 DUP7 DUP1 EXTCODESIZE ISZERO DUP1 ISZERO PUSH3 0x4B2 JUMPI PUSH1 0x0 DUP1 REVERT JUMPDEST POP GAS STATICCALL ISZERO DUP1 ISZERO PUSH3 0x4C7 JUMPI RETURNDATASIZE PUSH1 0x0 DUP1 RETURNDATACOPY RETURNDATASIZE PUSH1 0x0 REVERT JUMPDEST POP POP POP POP PUSH1 0x40 MLOAD RETURNDATASIZE PUSH1 0x1F NOT PUSH1 0x1F DUP3 ADD AND DUP3 ADD DUP1 PUSH1 0x40 MSTORE POP DUP2 ADD SWAP1 PUSH3 0x4ED SWAP2 SWAP1 PUSH3 0x26E6 JUMP JUMPDEST PUSH3 0x4F9 SWAP2 SWAP1 PUSH3 0x280F JUMP JUMPDEST SWAP1 POP DUP1 SELFBALANCE GT PUSH3 0x535 JUMPI PUSH1 0x40 MLOAD PUSH3 0x461BCD PUSH1 0xE5 SHL DUP2 MSTORE PUSH1 0x20 PUSH1 0x4 DUP3 ADD MSTORE PUSH1 0x6 PUSH1 0x24 DUP3 ADD MSTORE PUSH6 0xC08199D5B99 PUSH1 0xD2 SHL PUSH1 0x44 DUP3 ADD MSTORE PUSH1 0x64 ADD PUSH3 0x3F3 JUMP JUMPDEST PUSH3 0x5C2 DUP3 PUSH1 0x1 PUSH1 0x1 PUSH1 0xA0 SHL SUB AND PUSH4 0x718C7D44 PUSH1 0x40 MLOAD DUP2 PUSH4 0xFFFFFFFF AND PUSH1 0xE0 SHL DUP2 MSTORE PUSH1 0x4 ADD PUSH1 0x20 PUSH1 0x40 MLOAD DUP1 DUP4 SUB DUP2 DUP7 DUP1 EXTCODESIZE ISZERO DUP1 ISZERO PUSH3 0x573 JUMPI PUSH1 0x0 DUP1 REVERT JUMPDEST POP GAS STATICCALL ISZERO DUP1 ISZERO PUSH3 0x588 JUMPI RETURNDATASIZE PUSH1 0x0 DUP1 RETURNDATACOPY RETURNDATASIZE PUSH1 0x0 REVERT JUMPDEST POP POP POP POP PUSH1 0x40 MLOAD RETURNDATASIZE PUSH1 0x1F NOT PUSH1 0x1F DUP3 ADD AND DUP3 ADD DUP1 PUSH1 0x40 MSTORE POP DUP2 ADD SWAP1 PUSH3 0x5AE SWAP2 SWAP1 PUSH3 0x24C0 JUMP JUMPDEST PUSH1 0x11 SLOAD PUSH1 0x1 PUSH1 0x1 PUSH1 0xA0 SHL SUB AND SWAP1 DUP4 PUSH3 0x1161 JUMP JUMPDEST PUSH1 0x40 MLOAD PUSH4 0x2D267E03 PUSH1 0xE1 SHL DUP2 MSTORE PUSH1 0x4 DUP2 ADD DUP3 SWAP1 MSTORE PUSH1 0x1 PUSH1 0x1 PUSH1 0xA0 SHL SUB DUP4 AND SWAP1 PUSH4 0x5A4CFC06 SWAP1 PUSH1 0x24 ADD PUSH1 0x20 PUSH1 0x40 MLOAD DUP1 DUP4 SUB DUP2 PUSH1 0x0 DUP8 DUP1 EXTCODESIZE ISZERO DUP1 ISZERO PUSH3 0x605 JUMPI PUSH1 0x0 DUP1 REVERT JUMPDEST POP GAS CALL ISZERO DUP1 ISZERO PUSH3 0x61A JUMPI RETURNDATASIZE PUSH1 0x0 DUP1 RETURNDATACOPY RETURNDATASIZE PUSH1 0x0 REVERT JUMPDEST POP POP POP POP PUSH1 0x40 MLOAD RETURNDATASIZE PUSH1 0x1F NOT PUSH1 0x1F DUP3 ADD AND DUP3 ADD DUP1 PUSH1 0x40 MSTORE POP DUP2 ADD SWAP1 PUSH3 0x640 SWAP2 SWAP1 PUSH3 0x256A JUMP JUMPDEST POP PUSH1 0x1 SWAP5 SWAP4 POP POP POP POP JUMP JUMPDEST PUSH1 0x1 DUP1 SLOAD PUSH3 0x65A SWAP1 PUSH3 0x287E JUMP JUMPDEST DUP1 PUSH1 0x1F ADD PUSH1 0x20 DUP1 SWAP2 DIV MUL PUSH1 0x20 ADD PUSH1 0x40 MLOAD SWAP1 DUP2 ADD PUSH1 0x40 MSTORE DUP1 SWAP3 SWAP2 SWAP1 DUP2 DUP2 MSTORE PUSH1 0x20 ADD DUP3 DUP1 SLOAD PUSH3 0x688 SWAP1 PUSH3 0x287E JUMP JUMPDEST DUP1 ISZERO PUSH3 0x6D9 JUMPI DUP1 PUSH1 0x1F LT PUSH3 0x6AD JUMPI PUSH2 0x100 DUP1 DUP4 SLOAD DIV MUL DUP4 MSTORE SWAP2 PUSH1 0x20 ADD SWAP2 PUSH3 0x6D9 JUMP JUMPDEST DUP3 ADD SWAP2 SWAP1 PUSH1 0x0 MSTORE PUSH1 0x20 PUSH1 0x0 KECCAK256 SWAP1 JUMPDEST DUP2 SLOAD DUP2 MSTORE SWAP1 PUSH1 0x1 ADD SWAP1 PUSH1 0x20 ADD DUP1 DUP4 GT PUSH3 0x6BB JUMPI DUP3 SWAP1 SUB PUSH1 0x1F AND DUP3 ADD SWAP2 JUMPDEST POP POP POP POP POP DUP2 JUMP JUMPDEST PUSH1 0x60 PUSH1 0x1 DUP1 SLOAD PUSH3 0x6F2 SWAP1 PUSH3 0x287E JUMP JUMPDEST DUP1 PUSH1 0x1F ADD PUSH1 0x20 DUP1 SWAP2 DIV MUL PUSH1 0x20 ADD PUSH1 0x40 MLOAD SWAP1 DUP2 ADD PUSH1 0x40 MSTORE DUP1 SWAP3 SWAP2 SWAP1 DUP2 DUP2 MSTORE PUSH1 0x20 ADD DUP3 DUP1 SLOAD PUSH3 0x720 SWAP1 PUSH3 0x287E JUMP JUMPDEST DUP1 ISZERO PUSH3 0x771 JUMPI DUP1 PUSH1 0x1F LT PUSH3 0x745 JUMPI PUSH2 0x100 DUP1 DUP4 SLOAD DIV MUL DUP4 MSTORE SWAP2 PUSH1 0x20 ADD SWAP2 PUSH3 0x771 JUMP JUMPDEST DUP3 ADD SWAP2 SWAP1 PUSH1 0x0 MSTORE PUSH1 0x20 PUSH1 0x0 KECCAK256 SWAP1 JUMPDEST DUP2 SLOAD DUP2 MSTORE SWAP1 PUSH1 0x1 ADD SWAP1 PUSH1 0x20 ADD DUP1 DUP4 GT PUSH3 0x753 JUMPI DUP3 SWAP1 SUB PUSH1 0x1F AND DUP3 ADD SWAP2 JUMPDEST POP POP POP POP POP SWAP1 POP SWAP1 JUMP JUMPDEST PUSH1 0x0 DUP1 DUP3 SWAP1 POP PUSH1 0x0 DUP2 PUSH1 0x1 PUSH1 0x1 PUSH1 0xA0 SHL SUB AND PUSH4 0x80F55605 PUSH1 0x40 MLOAD DUP2 PUSH4 0xFFFFFFFF AND PUSH1 0xE0 SHL DUP2 MSTORE PUSH1 0x4 ADD PUSH1 0x20 PUSH1 0x40 MLOAD DUP1 DUP4 SUB DUP2 DUP7 DUP1 EXTCODESIZE ISZERO DUP1 ISZERO PUSH3 0x7BD JUMPI PUSH1 0x0 DUP1 REVERT JUMPDEST POP GAS STATICCALL ISZERO DUP1 ISZERO PUSH3 0x7D2 JUMPI RETURNDATASIZE PUSH1 0x0 DUP1 RETURNDATACOPY RETURNDATASIZE PUSH1 0x0 REVERT JUMPDEST POP POP POP POP PUSH1 0x40 MLOAD RETURNDATASIZE PUSH1 0x1F NOT PUSH1 0x1F DUP3 ADD AND DUP3 ADD DUP1 PUSH1 0x40 MSTORE POP DUP2 ADD SWAP1 PUSH3 0x7F8 SWAP2 SWAP1 PUSH3 0x24C0 JUMP JUMPDEST SWAP1 POP PUSH1 0x0 DUP3 PUSH1 0x1 PUSH1 0x1 PUSH1 0xA0 SHL SUB AND PUSH4 0x15E894AB PUSH1 0x40 MLOAD DUP2 PUSH4 0xFFFFFFFF AND PUSH1 0xE0 SHL DUP2 MSTORE PUSH1 0x4 ADD PUSH1 0x20 PUSH1 0x40 MLOAD DUP1 DUP4 SUB DUP2 DUP7 DUP1 EXTCODESIZE ISZERO DUP1 ISZERO PUSH3 0x836 JUMPI PUSH1 0x0 DUP1 REVERT JUMPDEST POP GAS STATICCALL ISZERO DUP1 ISZERO PUSH3 0x84B JUMPI RETURNDATASIZE PUSH1 0x0 DUP1 RETURNDATACOPY RETURNDATASIZE PUSH1 0x0 REVERT JUMPDEST POP POP POP POP PUSH1 0x40 MLOAD RETURNDATASIZE PUSH1 0x1F NOT PUSH1 0x1F DUP3 ADD AND DUP3 ADD DUP1 PUSH1 0x40 MSTORE POP DUP2 ADD SWAP1 PUSH3 0x871 SWAP2 SWAP1 PUSH3 0x24C0 JUMP JUMPDEST SWAP1 POP PUSH1 0x0 DUP4 PUSH1 0x1 PUSH1 0x1 PUSH1 0xA0 SHL SUB AND PUSH4 0xF765E6D PUSH1 0x40 MLOAD DUP2 PUSH4 0xFFFFFFFF AND PUSH1 0xE0 SHL DUP2 MSTORE PUSH1 0x4 ADD PUSH1 0x20 PUSH1 0x40 MLOAD DUP1 DUP4 SUB DUP2 DUP7 DUP1 EXTCODESIZE ISZERO DUP1 ISZERO PUSH3 0x8AF JUMPI PUSH1 0x0 DUP1 REVERT JUMPDEST POP GAS STATICCALL ISZERO DUP1 ISZERO PUSH3 0x8C4 JUMPI RETURNDATASIZE PUSH1 0x0 DUP1 RETURNDATACOPY RETURNDATASIZE PUSH1 0x0 REVERT JUMPDEST POP POP POP POP PUSH1 0x40 MLOAD RETURNDATASIZE PUSH1 0x1F NOT PUSH1 0x1F DUP3 ADD AND DUP3 ADD DUP1 PUSH1 0x40 MSTORE POP DUP2 ADD SWAP1 PUSH3 0x8EA SWAP2 SWAP1 PUSH3 0x24C0 JUMP JUMPDEST SWAP1 POP PUSH1 0x0 DUP5 PUSH1 0x1 PUSH1 0x1 PUSH1 0xA0 SHL SUB AND PUSH4 0x156DCBF0 PUSH1 0x40 MLOAD DUP2 PUSH4 0xFFFFFFFF AND PUSH1 0xE0 SHL DUP2 MSTORE PUSH1 0x4 ADD PUSH1 0x20 PUSH1 0x40 MLOAD DUP1 DUP4 SUB DUP2 DUP7 DUP1 EXTCODESIZE ISZERO DUP1 ISZERO PUSH3 0x928 JUMPI PUSH1 0x0 DUP1 REVERT JUMPDEST POP GAS STATICCALL ISZERO DUP1 ISZERO PUSH3 0x93D JUMPI RETURNDATASIZE PUSH1 0x0 DUP1 RETURNDATACOPY RETURNDATASIZE PUSH1 0x0 REVERT JUMPDEST POP POP POP POP PUSH1 0x40 MLOAD RETURNDATASIZE PUSH1 0x1F NOT PUSH1 0x1F DUP3 ADD AND DUP3 ADD DUP1 PUSH1 0x40 MSTORE POP DUP2 ADD SWAP1 PUSH3 0x963 SWAP2 SWAP1 PUSH3 0x26E6 JUMP JUMPDEST SWAP1 POP PUSH1 0x0 DUP6 PUSH1 0x1 PUSH1 0x1 PUSH1 0xA0 SHL SUB AND PUSH4 0x2EFE91EF PUSH1 0x40 MLOAD DUP2 PUSH4 0xFFFFFFFF AND PUSH1 0xE0 SHL DUP2 MSTORE PUSH1 0x4 ADD PUSH1 0x20 PUSH1 0x40 MLOAD DUP1 DUP4 SUB DUP2 DUP7 DUP1 EXTCODESIZE ISZERO DUP1 ISZERO PUSH3 0x9A1 JUMPI PUSH1 0x0 DUP1 REVERT JUMPDEST POP GAS STATICCALL ISZERO DUP1 ISZERO PUSH3 0x9B6 JUMPI RETURNDATASIZE PUSH1 0x0 DUP1 RETURNDATACOPY RETURNDATASIZE PUSH1 0x0 REVERT JUMPDEST POP POP POP POP PUSH1 0x40 MLOAD RETURNDATASIZE PUSH1 0x1F NOT PUSH1 0x1F DUP3 ADD AND DUP3 ADD DUP1 PUSH1 0x40 MSTORE POP DUP2 ADD SWAP1 PUSH3 0x9DC SWAP2 SWAP1 PUSH3 0x26E6 JUMP JUMPDEST SWAP1 POP PUSH1 0x0 DUP6 SWAP1 POP DUP1 PUSH1 0x1 PUSH1 0x1 PUSH1 0xA0 SHL SUB AND PUSH4 0xBD92630C PUSH1 0x40 MLOAD DUP2 PUSH4 0xFFFFFFFF AND PUSH1 0xE0 SHL DUP2 MSTORE PUSH1 0x4 ADD PUSH1 0x20 PUSH1 0x40 MLOAD DUP1 DUP4 SUB DUP2 DUP7 DUP1 EXTCODESIZE ISZERO DUP1 ISZERO PUSH3 0xA1D JUMPI PUSH1 0x0 DUP1 REVERT JUMPDEST POP GAS STATICCALL ISZERO DUP1 ISZERO PUSH3 0xA32 JUMPI RETURNDATASIZE PUSH1 0x0 DUP1 RETURNDATACOPY RETURNDATASIZE PUSH1 0x0 REVERT JUMPDEST POP POP POP POP PUSH1 0x40 MLOAD RETURNDATASIZE PUSH1 0x1F NOT PUSH1 0x1F DUP3 ADD AND DUP3 ADD DUP1 PUSH1 0x40 MSTORE POP DUP2 ADD SWAP1 PUSH3 0xA58 SWAP2 SWAP1 PUSH3 0x256A JUMP JUMPDEST PUSH3 0xA92 JUMPI PUSH1 0x40 MLOAD PUSH3 0x461BCD PUSH1 0xE5 SHL DUP2 MSTORE PUSH1 0x20 PUSH1 0x4 DUP3 ADD MSTORE PUSH1 0x9 PUSH1 0x24 DUP3 ADD MSTORE PUSH9 0x36B5BA1018103BB4B7 PUSH1 0xB9 SHL PUSH1 0x44 DUP3 ADD MSTORE PUSH1 0x64 ADD PUSH3 0x3F3 JUMP JUMPDEST PUSH1 0x40 MLOAD PUSH5 0x7369646541 PUSH1 0xD8 SHL PUSH1 0x20 DUP3 ADD MSTORE PUSH1 0x25 ADD PUSH1 0x40 MLOAD PUSH1 0x20 DUP2 DUP4 SUB SUB DUP2 MSTORE SWAP1 PUSH1 0x40 MSTORE DUP1 MLOAD SWAP1 PUSH1 0x20 ADD KECCAK256 DUP2 PUSH1 0x1 PUSH1 0x1 PUSH1 0xA0 SHL SUB AND PUSH4 0xFBF06338 PUSH1 0x40 MLOAD DUP2 PUSH4 0xFFFFFFFF AND PUSH1 0xE0 SHL DUP2 MSTORE PUSH1 0x4 ADD PUSH1 0x0 PUSH1 0x40 MLOAD DUP1 DUP4 SUB DUP2 DUP7 DUP1 EXTCODESIZE ISZERO DUP1 ISZERO PUSH3 0xAF6 JUMPI PUSH1 0x0 DUP1 REVERT JUMPDEST POP GAS STATICCALL ISZERO DUP1 ISZERO PUSH3 0xB0B JUMPI RETURNDATASIZE PUSH1 0x0 DUP1 RETURNDATACOPY RETURNDATASIZE PUSH1 0x0 REVERT JUMPDEST POP POP POP POP PUSH1 0x40 MLOAD RETURNDATASIZE PUSH1 0x0 DUP3 RETURNDATACOPY PUSH1 0x1F RETURNDATASIZE SWAP1 DUP2 ADD PUSH1 0x1F NOT AND DUP3 ADD PUSH1 0x40 MSTORE PUSH3 0xB35 SWAP2 SWAP1 DUP2 ADD SWAP1 PUSH3 0x25C3 JUMP JUMPDEST PUSH1 0x40 MLOAD PUSH1 0x20 ADD PUSH3 0xB47 SWAP2 SWAP1 PUSH3 0x26FF JUMP JUMPDEST PUSH1 0x40 MLOAD PUSH1 0x20 DUP2 DUP4 SUB SUB DUP2 MSTORE SWAP1 PUSH1 0x40 MSTORE DUP1 MLOAD SWAP1 PUSH1 0x20 ADD KECCAK256 EQ ISZERO PUSH3 0xC48 JUMPI PUSH1 0x40 MLOAD PUSH4 0x6D83A71F PUSH1 0xE0 SHL DUP2 MSTORE PUSH1 0x1 PUSH1 0x1 PUSH1 0xA0 SHL SUB DUP7 DUP2 AND PUSH1 0x4 DUP4 ADD MSTORE DUP9 AND SWAP1 PUSH4 0x6D83A71F SWAP1 PUSH1 0x24 ADD PUSH1 0x20 PUSH1 0x40 MLOAD DUP1 DUP4 SUB DUP2 PUSH1 0x0 DUP8 DUP1 EXTCODESIZE ISZERO DUP1 ISZERO PUSH3 0xBA8 JUMPI PUSH1 0x0 DUP1 REVERT JUMPDEST POP GAS CALL ISZERO DUP1 ISZERO PUSH3 0xBBD JUMPI RETURNDATASIZE PUSH1 0x0 DUP1 RETURNDATACOPY RETURNDATASIZE PUSH1 0x0 REVERT JUMPDEST POP POP POP POP PUSH1 0x40 MLOAD RETURNDATASIZE PUSH1 0x1F NOT PUSH1 0x1F DUP3 ADD AND DUP3 ADD DUP1 PUSH1 0x40 MSTORE POP DUP2 ADD SWAP1 PUSH3 0xBE3 SWAP2 SWAP1 PUSH3 0x256A JUMP JUMPDEST POP PUSH3 0xC24 DUP6 PUSH1 0xA PUSH3 0xBF8 DUP6 PUSH1 0x9 PUSH3 0x27ED JUMP JUMPDEST PUSH3 0xC04 SWAP2 SWAP1 PUSH3 0x27CC JUMP JUMPDEST PUSH3 0xC10 SWAP1 DUP7 PUSH3 0x27B1 JUMP JUMPDEST PUSH1 0x11 SLOAD PUSH1 0x1 PUSH1 0x1 PUSH1 0xA0 SHL SUB AND SWAP2 SWAP1 PUSH3 0x1161 JUMP JUMPDEST PUSH1 0x0 SLOAD PUSH3 0xC42 SWAP1 PUSH1 0x1 PUSH1 0x1 PUSH1 0xA0 SHL SUB AND PUSH3 0xC10 PUSH1 0xA DUP6 PUSH3 0x27CC JUMP JUMPDEST PUSH3 0xE15 JUMP JUMPDEST PUSH1 0x40 MLOAD PUSH5 0x39B4B232A1 PUSH1 0xD9 SHL PUSH1 0x20 DUP3 ADD MSTORE PUSH1 0x25 ADD PUSH1 0x40 MLOAD PUSH1 0x20 DUP2 DUP4 SUB SUB DUP2 MSTORE SWAP1 PUSH1 0x40 MSTORE DUP1 MLOAD SWAP1 PUSH1 0x20 ADD KECCAK256 DUP2 PUSH1 0x1 PUSH1 0x1 PUSH1 0xA0 SHL SUB AND PUSH4 0xFBF06338 PUSH1 0x40 MLOAD DUP2 PUSH4 0xFFFFFFFF AND PUSH1 0xE0 SHL DUP2 MSTORE PUSH1 0x4 ADD PUSH1 0x0 PUSH1 0x40 MLOAD DUP1 DUP4 SUB DUP2 DUP7 DUP1 EXTCODESIZE ISZERO DUP1 ISZERO PUSH3 0xCAC JUMPI PUSH1 0x0 DUP1 REVERT JUMPDEST POP GAS STATICCALL ISZERO DUP1 ISZERO PUSH3 0xCC1 JUMPI RETURNDATASIZE PUSH1 0x0 DUP1 RETURNDATACOPY RETURNDATASIZE PUSH1 0x0 REVERT JUMPDEST POP POP POP POP PUSH1 0x40 MLOAD RETURNDATASIZE PUSH1 0x0 DUP3 RETURNDATACOPY PUSH1 0x1F RETURNDATASIZE SWAP1 DUP2 ADD PUSH1 0x1F NOT AND DUP3 ADD PUSH1 0x40 MSTORE PUSH3 0xCEB SWAP2 SWAP1 DUP2 ADD SWAP1 PUSH3 0x25C3 JUMP JUMPDEST PUSH1 0x40 MLOAD PUSH1 0x20 ADD PUSH3 0xCFD SWAP2 SWAP1 PUSH3 0x26FF JUMP JUMPDEST PUSH1 0x40 MLOAD PUSH1 0x20 DUP2 DUP4 SUB SUB DUP2 MSTORE SWAP1 PUSH1 0x40 MSTORE DUP1 MLOAD SWAP1 PUSH1 0x20 ADD KECCAK256 EQ ISZERO PUSH3 0xDE4 JUMPI PUSH1 0x40 MLOAD PUSH4 0x6D83A71F PUSH1 0xE0 SHL DUP2 MSTORE PUSH1 0x1 PUSH1 0x1 PUSH1 0xA0 SHL SUB DUP6 DUP2 AND PUSH1 0x4 DUP4 ADD MSTORE DUP9 AND SWAP1 PUSH4 0x6D83A71F SWAP1 PUSH1 0x24 ADD PUSH1 0x20 PUSH1 0x40 MLOAD DUP1 DUP4 SUB DUP2 PUSH1 0x0 DUP8 DUP1 EXTCODESIZE ISZERO DUP1 ISZERO PUSH3 0xD5E JUMPI PUSH1 0x0 DUP1 REVERT JUMPDEST POP GAS CALL ISZERO DUP1 ISZERO PUSH3 0xD73 JUMPI RETURNDATASIZE PUSH1 0x0 DUP1 RETURNDATACOPY RETURNDATASIZE PUSH1 0x0 REVERT JUMPDEST POP POP POP POP PUSH1 0x40 MLOAD RETURNDATASIZE PUSH1 0x1F NOT PUSH1 0x1F DUP3 ADD AND DUP3 ADD DUP1 PUSH1 0x40 MSTORE POP DUP2 ADD SWAP1 PUSH3 0xD99 SWAP2 SWAP1 PUSH3 0x256A JUMP JUMPDEST POP PUSH3 0xDC6 DUP5 PUSH1 0xA PUSH3 0xDAE DUP7 PUSH1 0x9 PUSH3 0x27ED JUMP JUMPDEST PUSH3 0xDBA SWAP2 SWAP1 PUSH3 0x27CC JUMP JUMPDEST PUSH3 0xC10 SWAP1 DUP6 PUSH3 0x27B1 JUMP JUMPDEST PUSH1 0x0 SLOAD PUSH3 0xC42 SWAP1 PUSH1 0x1 PUSH1 0x1 PUSH1 0xA0 SHL SUB AND PUSH3 0xC10 PUSH1 0xA DUP7 PUSH3 0x27CC JUMP JUMPDEST PUSH1 0x40 MLOAD PUSH3 0x461BCD PUSH1 0xE5 SHL DUP2 MSTORE PUSH1 0x20 PUSH1 0x4 DUP3 ADD MSTORE PUSH1 0x5 PUSH1 0x24 DUP3 ADD MSTORE PUSH5 0x3C103BB4B7 PUSH1 0xD9 SHL PUSH1 0x44 DUP3 ADD MSTORE PUSH1 0x64 ADD PUSH3 0x3F3 JUMP JUMPDEST POP PUSH1 0x1 SWAP9 SWAP8 POP POP POP POP POP POP POP POP JUMP JUMPDEST PUSH1 0x4 SLOAD PUSH1 0x0 SWAP1 PUSH1 0xFF AND ISZERO PUSH3 0xE39 JUMPI POP PUSH1 0x1 SWAP1 JUMP JUMPDEST POP PUSH1 0x4 DUP1 SLOAD PUSH1 0xFF NOT AND PUSH1 0x1 SWAP1 DUP2 OR SWAP1 SWAP2 SSTORE SWAP1 JUMP JUMPDEST DUP3 MLOAD PUSH1 0x0 SWAP1 PUSH3 0xE65 SWAP1 PUSH1 0x1 SWAP1 PUSH1 0x20 DUP8 ADD SWAP1 PUSH3 0x2396 JUMP JUMPDEST POP DUP3 MLOAD PUSH3 0xE7B SWAP1 PUSH1 0x5 SWAP1 PUSH1 0x20 DUP7 ADD SWAP1 PUSH3 0x2396 JUMP JUMPDEST POP DUP2 MLOAD PUSH3 0xE91 SWAP1 PUSH1 0x7 SWAP1 PUSH1 0x20 DUP6 ADD SWAP1 PUSH3 0x2396 JUMP JUMPDEST POP PUSH1 0x1 SWAP1 POP JUMPDEST SWAP4 SWAP3 POP POP POP JUMP JUMPDEST PUSH1 0x5 DUP1 SLOAD PUSH3 0x65A SWAP1 PUSH3 0x287E JUMP JUMPDEST PUSH1 0x9 DUP2 DUP2 SLOAD DUP2 LT PUSH3 0xEBE JUMPI PUSH1 0x0 DUP1 REVERT JUMPDEST PUSH1 0x0 SWAP2 DUP3 MSTORE PUSH1 0x20 SWAP1 SWAP2 KECCAK256 PUSH1 0x3 SWAP1 SWAP2 MUL ADD DUP1 SLOAD PUSH1 0x1 DUP3 ADD SLOAD PUSH1 0x2 SWAP1 SWAP3 ADD SLOAD PUSH1 0x1 PUSH1 0x1 PUSH1 0xA0 SHL SUB SWAP1 SWAP2 AND SWAP3 POP PUSH1 0xFF AND DUP4 JUMP JUMPDEST PUSH1 0xF SLOAD PUSH1 0x40 DUP1 MLOAD PUSH4 0xC45A0155 PUSH1 0xE0 SHL DUP2 MSTORE SWAP1 MLOAD PUSH1 0x0 SWAP3 PUSH1 0x1 PUSH1 0x1 PUSH1 0xA0 SHL SUB AND SWAP2 PUSH4 0xC45A0155 SWAP2 PUSH1 0x4 DUP1 DUP4 ADD SWAP3 PUSH1 0x20 SWAP3 SWAP2 SWAP1 DUP3 SWAP1 SUB ADD DUP2 DUP7 DUP1 EXTCODESIZE ISZERO DUP1 ISZERO PUSH3 0xF34 JUMPI PUSH1 0x0 DUP1 REVERT JUMPDEST POP GAS STATICCALL ISZERO DUP1 ISZERO PUSH3 0xF49 JUMPI RETURNDATASIZE PUSH1 0x0 DUP1 RETURNDATACOPY RETURNDATASIZE PUSH1 0x0 REVERT JUMPDEST POP POP POP POP PUSH1 0x40 MLOAD RETURNDATASIZE PUSH1 0x1F NOT PUSH1 0x1F DUP3 ADD AND DUP3 ADD DUP1 PUSH1 0x40 MSTORE POP DUP2 ADD SWAP1 PUSH3 0xF6F SWAP2 SWAP1 PUSH3 0x24C0 JUMP JUMPDEST PUSH1 0x1 PUSH1 0x1 PUSH1 0xA0 SHL SUB AND CALLER PUSH1 0x1 PUSH1 0x1 PUSH1 0xA0 SHL SUB AND EQ PUSH3 0xFB9 JUMPI PUSH1 0x40 MLOAD PUSH3 0x461BCD PUSH1 0xE5 SHL DUP2 MSTORE PUSH1 0x20 PUSH1 0x4 DUP3 ADD MSTORE PUSH1 0x5 PUSH1 0x24 DUP3 ADD MSTORE PUSH5 0x667479206F PUSH1 0xD8 SHL PUSH1 0x44 DUP3 ADD MSTORE PUSH1 0x64 ADD PUSH3 0x3F3 JUMP JUMPDEST PUSH1 0x40 MLOAD PUSH5 0x7369646541 PUSH1 0xD8 SHL PUSH1 0x20 DUP3 ADD MSTORE PUSH1 0x25 ADD PUSH1 0x40 MLOAD PUSH1 0x20 DUP2 DUP4 SUB SUB DUP2 MSTORE SWAP1 PUSH1 0x40 MSTORE DUP1 MLOAD SWAP1 PUSH1 0x20 ADD KECCAK256 DUP3 PUSH1 0x40 MLOAD PUSH1 0x20 ADD PUSH3 0xFF6 SWAP2 SWAP1 PUSH3 0x26FF JUMP JUMPDEST PUSH1 0x40 MLOAD PUSH1 0x20 DUP2 DUP4 SUB SUB DUP2 MSTORE SWAP1 PUSH1 0x40 MSTORE DUP1 MLOAD SWAP1 PUSH1 0x20 ADD KECCAK256 EQ ISZERO PUSH3 0x1034 JUMPI PUSH3 0x1021 DUP7 DUP7 DUP7 DUP7 PUSH3 0x11BA JUMP JUMPDEST PUSH3 0x102E DUP6 DUP6 DUP6 PUSH3 0x12D2 JUMP JUMPDEST PUSH3 0x10A9 JUMP JUMPDEST PUSH1 0x40 MLOAD PUSH5 0x39B4B232A1 PUSH1 0xD9 SHL PUSH1 0x20 DUP3 ADD MSTORE PUSH1 0x25 ADD PUSH1 0x40 MLOAD PUSH1 0x20 DUP2 DUP4 SUB SUB DUP2 MSTORE SWAP1 PUSH1 0x40 MSTORE DUP1 MLOAD SWAP1 PUSH1 0x20 ADD KECCAK256 DUP3 PUSH1 0x40 MLOAD PUSH1 0x20 ADD PUSH3 0x1071 SWAP2 SWAP1 PUSH3 0x26FF JUMP JUMPDEST PUSH1 0x40 MLOAD PUSH1 0x20 DUP2 DUP4 SUB SUB DUP2 MSTORE SWAP1 PUSH1 0x40 MSTORE DUP1 MLOAD SWAP1 PUSH1 0x20 ADD KECCAK256 EQ ISZERO PUSH3 0x10A9 JUMPI PUSH3 0x109C DUP7 DUP7 DUP7 DUP7 PUSH3 0x197C JUMP JUMPDEST PUSH3 0x10A9 DUP6 DUP6 DUP6 PUSH3 0x1A88 JUMP JUMPDEST POP PUSH1 0x1 SWAP6 SWAP5 POP POP POP POP POP JUMP JUMPDEST PUSH1 0x7 DUP1 SLOAD PUSH3 0x65A SWAP1 PUSH3 0x287E JUMP JUMPDEST PUSH1 0x2 SLOAD PUSH1 0x0 SWAP1 PUSH1 0x1 PUSH1 0xA0 SHL SWAP1 DIV PUSH1 0xFF AND ISZERO ISZERO PUSH1 0x1 EQ ISZERO PUSH3 0x1111 JUMPI PUSH1 0x40 MLOAD PUSH3 0x461BCD PUSH1 0xE5 SHL DUP2 MSTORE PUSH1 0x20 PUSH1 0x4 DUP3 ADD MSTORE PUSH1 0x6 PUSH1 0x24 DUP3 ADD MSTORE PUSH6 0x10BC103BB4B7 PUSH1 0xD1 SHL PUSH1 0x44 DUP3 ADD MSTORE PUSH1 0x64 ADD PUSH3 0x3F3 JUMP JUMPDEST DUP2 MLOAD PUSH3 0x1126 SWAP1 PUSH1 0x3 SWAP1 PUSH1 0x20 DUP6 ADD SWAP1 PUSH3 0x2396 JUMP JUMPDEST POP POP PUSH1 0x2 DUP1 SLOAD PUSH1 0xFF PUSH1 0xA0 SHL NOT AND PUSH1 0x1 PUSH1 0xA0 SHL OR SWAP1 SSTORE POP PUSH1 0x1 SWAP1 JUMP JUMPDEST PUSH1 0xB DUP2 DUP2 SLOAD DUP2 LT PUSH3 0xEBE JUMPI PUSH1 0x0 DUP1 REVERT JUMPDEST PUSH1 0x3 DUP1 SLOAD PUSH3 0x65A SWAP1 PUSH3 0x287E JUMP JUMPDEST PUSH1 0x40 DUP1 MLOAD PUSH1 0x1 PUSH1 0x1 PUSH1 0xA0 SHL SUB DUP5 AND PUSH1 0x24 DUP3 ADD MSTORE PUSH1 0x44 DUP1 DUP3 ADD DUP5 SWAP1 MSTORE DUP3 MLOAD DUP1 DUP4 SUB SWAP1 SWAP2 ADD DUP2 MSTORE PUSH1 0x64 SWAP1 SWAP2 ADD SWAP1 SWAP2 MSTORE PUSH1 0x20 DUP2 ADD DUP1 MLOAD PUSH1 0x1 PUSH1 0x1 PUSH1 0xE0 SHL SUB AND PUSH4 0xA9059CBB PUSH1 0xE0 SHL OR SWAP1 MSTORE PUSH3 0x11B5 SWAP1 DUP5 SWAP1 PUSH3 0x212B JUMP JUMPDEST POP POP POP JUMP JUMPDEST DUP2 PUSH1 0x6 PUSH1 0x0 DUP3 DUP3 SLOAD PUSH3 0x11CE SWAP2 SWAP1 PUSH3 0x27B1 JUMP JUMPDEST SWAP1 SWAP2 SSTORE POP POP PUSH1 0x40 DUP1 MLOAD PUSH1 0x60 DUP2 ADD DUP3 MSTORE PUSH1 0x1 PUSH1 0x1 PUSH1 0xA0 SHL SUB DUP6 DUP2 AND DUP3 MSTORE PUSH1 0x20 DUP1 DUP4 ADD DUP7 DUP2 MSTORE PUSH1 0xFF DUP7 DUP2 AND DUP6 DUP8 ADD SWAP1 DUP2 MSTORE PUSH1 0x9 DUP1 SLOAD PUSH1 0x1 DUP2 ADD DUP3 SSTORE PUSH1 0x0 SWAP2 DUP3 MSTORE SWAP7 MLOAD PUSH32 0x6E1540171B6C0C960B71A7020D9F60077F6AF931A8BBF590DA0223DACF75C7AF PUSH1 0x3 SWAP1 SWAP9 MUL SWAP8 DUP9 ADD DUP1 SLOAD PUSH1 0x1 PUSH1 0x1 PUSH1 0xA0 SHL SUB NOT AND SWAP2 DUP9 AND SWAP2 SWAP1 SWAP2 OR SWAP1 SSTORE SWAP3 MLOAD PUSH32 0x6E1540171B6C0C960B71A7020D9F60077F6AF931A8BBF590DA0223DACF75C7B0 DUP8 ADD SSTORE MLOAD PUSH32 0x6E1540171B6C0C960B71A7020D9F60077F6AF931A8BBF590DA0223DACF75C7B1 SWAP1 SWAP6 ADD DUP1 SLOAD PUSH1 0xFF NOT AND SWAP6 SWAP1 SWAP2 AND SWAP5 SWAP1 SWAP5 OR SWAP1 SWAP4 SSTORE SWAP1 DUP8 AND DUP3 MSTORE PUSH1 0xD SWAP1 MSTORE SWAP1 DUP2 KECCAK256 DUP1 SLOAD DUP5 SWAP3 SWAP1 PUSH3 0x12C6 SWAP1 DUP5 SWAP1 PUSH3 0x27B1 JUMP JUMPDEST SWAP1 SWAP2 SSTORE POP POP JUMPDEST POP POP POP POP JUMP JUMPDEST PUSH1 0xC SLOAD DUP1 ISZERO PUSH3 0x18A5 JUMPI DUP3 JUMPDEST PUSH8 0xDE0B6B3A7640000 DUP2 LT PUSH3 0x189E JUMPI PUSH1 0x0 DUP1 PUSH1 0x0 JUMPDEST DUP5 DUP2 LT ISZERO PUSH3 0x1395 JUMPI PUSH1 0x0 PUSH1 0xC DUP3 DUP2 SLOAD DUP2 LT PUSH3 0x1321 JUMPI PUSH4 0x4E487B71 PUSH1 0xE0 SHL PUSH1 0x0 MSTORE PUSH1 0x32 PUSH1 0x4 MSTORE PUSH1 0x24 PUSH1 0x0 REVERT JUMPDEST PUSH1 0x0 SWAP2 DUP3 MSTORE PUSH1 0x20 SWAP2 DUP3 SWAP1 KECCAK256 PUSH1 0x40 DUP1 MLOAD PUSH1 0x60 DUP2 ADD DUP3 MSTORE PUSH1 0x3 SWAP1 SWAP4 MUL SWAP1 SWAP2 ADD DUP1 SLOAD PUSH1 0x1 PUSH1 0x1 PUSH1 0xA0 SHL SUB AND DUP4 MSTORE PUSH1 0x1 DUP2 ADD SLOAD SWAP4 DUP4 ADD SWAP4 SWAP1 SWAP4 MSTORE PUSH1 0x2 SWAP1 SWAP3 ADD SLOAD PUSH1 0xFF SWAP1 DUP2 AND SWAP3 DUP3 ADD DUP4 SWAP1 MSTORE SWAP1 SWAP3 POP DUP5 AND LT ISZERO PUSH3 0x137F JUMPI DUP1 PUSH1 0x40 ADD MLOAD SWAP3 POP DUP2 SWAP4 POP JUMPDEST POP DUP1 PUSH3 0x138C DUP2 PUSH3 0x28BB JUMP JUMPDEST SWAP2 POP POP PUSH3 0x12F4 JUMP JUMPDEST POP DUP5 PUSH1 0xFF AND DUP2 PUSH1 0xFF AND GT ISZERO PUSH3 0x17BE JUMPI PUSH1 0x0 PUSH1 0xC DUP4 DUP2 SLOAD DUP2 LT PUSH3 0x13C9 JUMPI PUSH4 0x4E487B71 PUSH1 0xE0 SHL PUSH1 0x0 MSTORE PUSH1 0x32 PUSH1 0x4 MSTORE PUSH1 0x24 PUSH1 0x0 REVERT JUMPDEST PUSH1 0x0 SWAP2 DUP3 MSTORE PUSH1 0x20 DUP1 DUP4 KECCAK256 PUSH1 0x40 DUP1 MLOAD PUSH1 0x60 DUP2 ADD DUP3 MSTORE PUSH1 0x3 SWAP1 SWAP5 MUL SWAP1 SWAP2 ADD DUP1 SLOAD PUSH1 0x1 PUSH1 0x1 PUSH1 0xA0 SHL SUB AND DUP1 DUP6 MSTORE PUSH1 0x1 DUP3 ADD SLOAD DUP6 DUP6 ADD MSTORE PUSH1 0x2 SWAP1 SWAP2 ADD SLOAD PUSH1 0xFF AND DUP5 DUP4 ADD MSTORE DUP2 MLOAD PUSH4 0x45564E65 PUSH1 0xE1 SHL DUP2 MSTORE SWAP2 MLOAD SWAP4 SWAP6 POP SWAP4 SWAP3 DUP5 SWAP3 PUSH4 0x8AAC9CCA SWAP3 PUSH1 0x4 DUP1 DUP3 ADD SWAP4 SWAP2 DUP3 SWAP1 SUB ADD DUP2 DUP7 DUP1 EXTCODESIZE ISZERO DUP1 ISZERO PUSH3 0x1440 JUMPI PUSH1 0x0 DUP1 REVERT JUMPDEST POP GAS STATICCALL ISZERO DUP1 ISZERO PUSH3 0x1455 JUMPI RETURNDATASIZE PUSH1 0x0 DUP1 RETURNDATACOPY RETURNDATASIZE PUSH1 0x0 REVERT JUMPDEST POP POP POP POP PUSH1 0x40 MLOAD RETURNDATASIZE PUSH1 0x1F NOT PUSH1 0x1F DUP3 ADD AND DUP3 ADD DUP1 PUSH1 0x40 MSTORE POP DUP2 ADD SWAP1 PUSH3 0x147B SWAP2 SWAP1 PUSH3 0x26E6 JUMP JUMPDEST SWAP1 POP PUSH1 0x0 PUSH1 0x64 PUSH3 0x148D DUP2 DUP12 PUSH3 0x2829 JUMP JUMPDEST PUSH1 0xFF AND DUP4 DUP7 PUSH1 0x20 ADD MLOAD PUSH3 0x14A2 SWAP2 SWAP1 PUSH3 0x280F JUMP JUMPDEST PUSH3 0x14AE SWAP2 SWAP1 PUSH3 0x27ED JUMP JUMPDEST PUSH3 0x14BA SWAP2 SWAP1 PUSH3 0x27CC JUMP JUMPDEST SWAP1 POP PUSH1 0x0 DUP11 DUP3 GT ISZERO PUSH3 0x14CF JUMPI POP DUP10 PUSH3 0x14D2 JUMP JUMPDEST POP DUP1 JUMPDEST PUSH1 0x0 PUSH3 0x14E3 PUSH1 0xFF DUP13 AND DUP4 PUSH3 0x27ED JUMP JUMPDEST SWAP1 POP PUSH1 0x0 ADDRESS DUP15 DUP9 PUSH1 0x0 ADD MLOAD DUP6 DUP6 PUSH1 0x40 MLOAD PUSH3 0x14FE SWAP1 PUSH3 0x2425 JUMP JUMPDEST PUSH1 0x1 PUSH1 0x1 PUSH1 0xA0 SHL SUB SWAP6 DUP7 AND DUP2 MSTORE SWAP4 DUP6 AND PUSH1 0x20 DUP6 ADD MSTORE SWAP4 SWAP1 SWAP2 AND PUSH1 0x40 DUP4 ADD MSTORE PUSH1 0x60 DUP3 ADD MSTORE PUSH1 0x80 DUP2 ADD SWAP2 SWAP1 SWAP2 MSTORE PUSH1 0xA0 ADD PUSH1 0x40 MLOAD DUP1 SWAP2 SUB SWAP1 PUSH1 0x0 CREATE DUP1 ISZERO DUP1 ISZERO PUSH3 0x1549 JUMPI RETURNDATASIZE PUSH1 0x0 DUP1 RETURNDATACOPY RETURNDATASIZE PUSH1 0x0 REVERT JUMPDEST POP SWAP1 POP PUSH1 0xC DUP10 DUP2 SLOAD DUP2 LT PUSH3 0x156E JUMPI PUSH4 0x4E487B71 PUSH1 0xE0 SHL PUSH1 0x0 MSTORE PUSH1 0x32 PUSH1 0x4 MSTORE PUSH1 0x24 PUSH1 0x0 REVERT JUMPDEST PUSH1 0x0 SWAP2 DUP3 MSTORE PUSH1 0x20 DUP3 KECCAK256 PUSH1 0x3 SWAP2 SWAP1 SWAP2 MUL ADD DUP1 SLOAD PUSH1 0x1 PUSH1 0x1 PUSH1 0xA0 SHL SUB NOT AND DUP2 SSTORE PUSH1 0x1 DUP2 ADD SWAP2 SWAP1 SWAP2 SSTORE PUSH1 0x2 ADD DUP1 SLOAD PUSH1 0xFF NOT AND SWAP1 SSTORE PUSH1 0x40 MLOAD PUSH4 0x2D267E03 PUSH1 0xE1 SHL DUP2 MSTORE PUSH1 0x4 DUP2 ADD DUP5 SWAP1 MSTORE DUP15 SWAP1 PUSH1 0x1 PUSH1 0x1 PUSH1 0xA0 SHL SUB DUP3 AND SWAP1 PUSH4 0x5A4CFC06 SWAP1 PUSH1 0x24 ADD PUSH1 0x20 PUSH1 0x40 MLOAD DUP1 DUP4 SUB DUP2 PUSH1 0x0 DUP8 DUP1 EXTCODESIZE ISZERO DUP1 ISZERO PUSH3 0x15E4 JUMPI PUSH1 0x0 DUP1 REVERT JUMPDEST POP GAS CALL ISZERO DUP1 ISZERO PUSH3 0x15F9 JUMPI RETURNDATASIZE PUSH1 0x0 DUP1 RETURNDATACOPY RETURNDATASIZE PUSH1 0x0 REVERT JUMPDEST POP POP POP POP PUSH1 0x40 MLOAD RETURNDATASIZE PUSH1 0x1F NOT PUSH1 0x1F DUP3 ADD AND DUP3 ADD DUP1 PUSH1 0x40 MSTORE POP DUP2 ADD SWAP1 PUSH3 0x161F SWAP2 SWAP1 PUSH3 0x256A JUMP JUMPDEST POP PUSH1 0x40 MLOAD PUSH4 0x615BDDDB PUSH1 0xE1 SHL DUP2 MSTORE PUSH1 0x1 PUSH1 0x1 PUSH1 0xA0 SHL SUB DUP4 DUP2 AND PUSH1 0x4 DUP4 ADD MSTORE DUP3 AND SWAP1 PUSH4 0xC2B7BBB6 SWAP1 PUSH1 0x24 ADD PUSH1 0x20 PUSH1 0x40 MLOAD DUP1 DUP4 SUB DUP2 PUSH1 0x0 DUP8 DUP1 EXTCODESIZE ISZERO DUP1 ISZERO PUSH3 0x1664 JUMPI PUSH1 0x0 DUP1 REVERT JUMPDEST POP GAS CALL ISZERO DUP1 ISZERO PUSH3 0x1679 JUMPI RETURNDATASIZE PUSH1 0x0 DUP1 RETURNDATACOPY RETURNDATASIZE PUSH1 0x0 REVERT JUMPDEST POP POP POP POP PUSH1 0x40 MLOAD RETURNDATASIZE PUSH1 0x1F NOT PUSH1 0x1F DUP3 ADD AND DUP3 ADD DUP1 PUSH1 0x40 MSTORE POP DUP2 ADD SWAP1 PUSH3 0x169F SWAP2 SWAP1 PUSH3 0x256A JUMP JUMPDEST POP DUP8 MLOAD PUSH1 0x40 MLOAD PUSH4 0x2D267E03 PUSH1 0xE1 SHL DUP2 MSTORE PUSH1 0x4 DUP2 ADD DUP6 SWAP1 MSTORE PUSH1 0x1 PUSH1 0x1 PUSH1 0xA0 SHL SUB DUP3 AND SWAP1 PUSH4 0x5A4CFC06 SWAP1 PUSH1 0x24 ADD PUSH1 0x20 PUSH1 0x40 MLOAD DUP1 DUP4 SUB DUP2 PUSH1 0x0 DUP8 DUP1 EXTCODESIZE ISZERO DUP1 ISZERO PUSH3 0x16E5 JUMPI PUSH1 0x0 DUP1 REVERT JUMPDEST POP GAS CALL ISZERO DUP1 ISZERO PUSH3 0x16FA JUMPI RETURNDATASIZE PUSH1 0x0 DUP1 RETURNDATACOPY RETURNDATASIZE PUSH1 0x0 REVERT JUMPDEST POP POP POP POP PUSH1 0x40 MLOAD RETURNDATASIZE PUSH1 0x1F NOT PUSH1 0x1F DUP3 ADD AND DUP3 ADD DUP1 PUSH1 0x40 MSTORE POP DUP2 ADD SWAP1 PUSH3 0x1720 SWAP2 SWAP1 PUSH3 0x256A JUMP JUMPDEST POP PUSH1 0x40 MLOAD PUSH4 0x615BDDDB PUSH1 0xE1 SHL DUP2 MSTORE PUSH1 0x1 PUSH1 0x1 PUSH1 0xA0 SHL SUB DUP5 DUP2 AND PUSH1 0x4 DUP4 ADD MSTORE DUP3 AND SWAP1 PUSH4 0xC2B7BBB6 SWAP1 PUSH1 0x24 ADD PUSH1 0x20 PUSH1 0x40 MLOAD DUP1 DUP4 SUB DUP2 PUSH1 0x0 DUP8 DUP1 EXTCODESIZE ISZERO DUP1 ISZERO PUSH3 0x1765 JUMPI PUSH1 0x0 DUP1 REVERT JUMPDEST POP GAS CALL ISZERO DUP1 ISZERO PUSH3 0x177A JUMPI RETURNDATASIZE PUSH1 0x0 DUP1 RETURNDATACOPY RETURNDATASIZE PUSH1 0x0 REVERT JUMPDEST POP POP POP POP PUSH1 0x40 MLOAD RETURNDATASIZE PUSH1 0x1F NOT PUSH1 0x1F DUP3 ADD AND DUP3 ADD DUP1 PUSH1 0x40 MSTORE POP DUP2 ADD SWAP1 PUSH3 0x17A0 SWAP2 SWAP1 PUSH3 0x256A JUMP JUMPDEST POP PUSH3 0x17AD DUP6 DUP14 PUSH3 0x280F JUMP JUMPDEST SWAP12 POP POP POP POP POP POP POP POP POP POP PUSH3 0x1896 JUMP JUMPDEST POP POP PUSH1 0x40 DUP1 MLOAD PUSH1 0x60 DUP2 ADD DUP3 MSTORE PUSH1 0x1 PUSH1 0x1 PUSH1 0xA0 SHL SUB DUP8 DUP2 AND DUP3 MSTORE PUSH1 0x20 DUP3 ADD DUP8 DUP2 MSTORE PUSH1 0xFF DUP8 DUP2 AND SWAP5 DUP5 ADD SWAP5 DUP6 MSTORE PUSH1 0xA DUP1 SLOAD PUSH1 0x1 DUP2 ADD DUP3 SSTORE PUSH1 0x0 SWAP2 SWAP1 SWAP2 MSTORE SWAP4 MLOAD PUSH32 0xC65A7BB8D6351C1CF70C95A316CC6A92839C986682D98BC35F958F4883F9D2A8 PUSH1 0x3 SWAP1 SWAP6 MUL SWAP5 DUP6 ADD DUP1 SLOAD PUSH1 0x1 PUSH1 0x1 PUSH1 0xA0 SHL SUB NOT AND SWAP2 SWAP1 SWAP5 AND OR SWAP1 SWAP3 SSTORE MLOAD PUSH32 0xC65A7BB8D6351C1CF70C95A316CC6A92839C986682D98BC35F958F4883F9D2A9 DUP4 ADD SSTORE SWAP2 MLOAD PUSH32 0xC65A7BB8D6351C1CF70C95A316CC6A92839C986682D98BC35F958F4883F9D2AA SWAP1 SWAP2 ADD DUP1 SLOAD PUSH1 0xFF NOT AND SWAP2 SWAP1 SWAP3 AND OR SWAP1 SSTORE PUSH3 0x189E JUMP JUMPDEST POP POP PUSH3 0x12DE JUMP JUMPDEST POP PUSH3 0x12CC JUMP JUMPDEST POP PUSH1 0x40 DUP1 MLOAD PUSH1 0x60 DUP2 ADD DUP3 MSTORE PUSH1 0x1 PUSH1 0x1 PUSH1 0xA0 SHL SUB SWAP5 DUP6 AND DUP2 MSTORE PUSH1 0x20 DUP2 ADD SWAP4 DUP5 MSTORE PUSH1 0xFF SWAP3 DUP4 AND SWAP2 DUP2 ADD SWAP2 DUP3 MSTORE PUSH1 0xA DUP1 SLOAD PUSH1 0x1 DUP2 ADD DUP3 SSTORE PUSH1 0x0 SWAP2 SWAP1 SWAP2 MSTORE SWAP1 MLOAD PUSH32 0xC65A7BB8D6351C1CF70C95A316CC6A92839C986682D98BC35F958F4883F9D2A8 PUSH1 0x3 SWAP1 SWAP3 MUL SWAP2 DUP3 ADD DUP1 SLOAD PUSH1 0x1 PUSH1 0x1 PUSH1 0xA0 SHL SUB NOT AND SWAP2 SWAP1 SWAP7 AND OR SWAP1 SWAP5 SSTORE SWAP2 MLOAD PUSH32 0xC65A7BB8D6351C1CF70C95A316CC6A92839C986682D98BC35F958F4883F9D2A9 DUP5 ADD SSTORE SWAP1 MLOAD PUSH32 0xC65A7BB8D6351C1CF70C95A316CC6A92839C986682D98BC35F958F4883F9D2AA SWAP1 SWAP3 ADD DUP1 SLOAD PUSH1 0xFF NOT AND SWAP3 SWAP1 SWAP2 AND SWAP2 SWAP1 SWAP2 OR SWAP1 SSTORE JUMP JUMPDEST DUP2 PUSH1 0x8 PUSH1 0x0 DUP3 DUP3 SLOAD PUSH3 0x1990 SWAP2 SWAP1 PUSH3 0x27B1 JUMP JUMPDEST SWAP1 SWAP2 SSTORE POP POP PUSH1 0x40 DUP1 MLOAD PUSH1 0x60 DUP2 ADD DUP3 MSTORE PUSH1 0x1 PUSH1 0x1 PUSH1 0xA0 SHL SUB DUP6 DUP2 AND DUP3 MSTORE PUSH1 0x20 DUP1 DUP4 ADD DUP7 DUP2 MSTORE PUSH1 0xFF DUP7 DUP2 AND DUP6 DUP8 ADD SWAP1 DUP2 MSTORE PUSH1 0xB DUP1 SLOAD PUSH1 0x1 DUP2 ADD DUP3 SSTORE PUSH1 0x0 SWAP2 DUP3 MSTORE SWAP7 MLOAD PUSH32 0x175B7A638427703F0DBE7BB9BBF987A2551717B34E79F33B5B1008D1FA01DB9 PUSH1 0x3 SWAP1 SWAP9 MUL SWAP8 DUP9 ADD DUP1 SLOAD PUSH1 0x1 PUSH1 0x1 PUSH1 0xA0 SHL SUB NOT AND SWAP2 DUP9 AND SWAP2 SWAP1 SWAP2 OR SWAP1 SSTORE SWAP3 MLOAD PUSH32 0x175B7A638427703F0DBE7BB9BBF987A2551717B34E79F33B5B1008D1FA01DBA DUP8 ADD SSTORE MLOAD PUSH32 0x175B7A638427703F0DBE7BB9BBF987A2551717B34E79F33B5B1008D1FA01DBB SWAP1 SWAP6 ADD DUP1 SLOAD PUSH1 0xFF NOT AND SWAP6 SWAP1 SWAP2 AND SWAP5 SWAP1 SWAP5 OR SWAP1 SWAP4 SSTORE SWAP1 DUP8 AND DUP3 MSTORE PUSH1 0xE SWAP1 MSTORE SWAP1 DUP2 KECCAK256 DUP1 SLOAD DUP5 SWAP3 SWAP1 PUSH3 0x12C6 SWAP1 DUP5 SWAP1 PUSH3 0x27B1 JUMP JUMPDEST PUSH1 0xA SLOAD DUP1 ISZERO PUSH3 0x2054 JUMPI DUP3 JUMPDEST PUSH8 0xDE0B6B3A7640000 DUP2 LT PUSH3 0x189E JUMPI PUSH1 0x0 DUP1 PUSH1 0x0 JUMPDEST DUP5 DUP2 LT ISZERO PUSH3 0x1B4B JUMPI PUSH1 0x0 PUSH1 0xA DUP3 DUP2 SLOAD DUP2 LT PUSH3 0x1AD7 JUMPI PUSH4 0x4E487B71 PUSH1 0xE0 SHL PUSH1 0x0 MSTORE PUSH1 0x32 PUSH1 0x4 MSTORE PUSH1 0x24 PUSH1 0x0 REVERT JUMPDEST PUSH1 0x0 SWAP2 DUP3 MSTORE PUSH1 0x20 SWAP2 DUP3 SWAP1 KECCAK256 PUSH1 0x40 DUP1 MLOAD PUSH1 0x60 DUP2 ADD DUP3 MSTORE PUSH1 0x3 SWAP1 SWAP4 MUL SWAP1 SWAP2 ADD DUP1 SLOAD PUSH1 0x1 PUSH1 0x1 PUSH1 0xA0 SHL SUB AND DUP4 MSTORE PUSH1 0x1 DUP2 ADD SLOAD SWAP4 DUP4 ADD SWAP4 SWAP1 SWAP4 MSTORE PUSH1 0x2 SWAP1 SWAP3 ADD SLOAD PUSH1 0xFF SWAP1 DUP2 AND SWAP3 DUP3 ADD DUP4 SWAP1 MSTORE SWAP1 SWAP3 POP DUP5 AND LT ISZERO PUSH3 0x1B35 JUMPI DUP1 PUSH1 0x40 ADD MLOAD SWAP3 POP DUP2 SWAP4 POP JUMPDEST POP DUP1 PUSH3 0x1B42 DUP2 PUSH3 0x28BB JUMP JUMPDEST SWAP2 POP POP PUSH3 0x1AAA JUMP JUMPDEST POP DUP5 PUSH1 0xFF AND DUP2 PUSH1 0xFF AND GT ISZERO PUSH3 0x1F74 JUMPI PUSH1 0x0 PUSH1 0xA DUP4 DUP2 SLOAD DUP2 LT PUSH3 0x1B7F JUMPI PUSH4 0x4E487B71 PUSH1 0xE0 SHL PUSH1 0x0 MSTORE PUSH1 0x32 PUSH1 0x4 MSTORE PUSH1 0x24 PUSH1 0x0 REVERT JUMPDEST PUSH1 0x0 SWAP2 DUP3 MSTORE PUSH1 0x20 DUP1 DUP4 KECCAK256 PUSH1 0x40 DUP1 MLOAD PUSH1 0x60 DUP2 ADD DUP3 MSTORE PUSH1 0x3 SWAP1 SWAP5 MUL SWAP1 SWAP2 ADD DUP1 SLOAD PUSH1 0x1 PUSH1 0x1 PUSH1 0xA0 SHL SUB AND DUP1 DUP6 MSTORE PUSH1 0x1 DUP3 ADD SLOAD DUP6 DUP6 ADD MSTORE PUSH1 0x2 SWAP1 SWAP2 ADD SLOAD PUSH1 0xFF AND DUP5 DUP4 ADD MSTORE DUP2 MLOAD PUSH4 0x45564E65 PUSH1 0xE1 SHL DUP2 MSTORE SWAP2 MLOAD SWAP4 SWAP6 POP SWAP4 SWAP3 DUP5 SWAP3 PUSH4 0x8AAC9CCA SWAP3 PUSH1 0x4 DUP1 DUP3 ADD SWAP4 SWAP2 DUP3 SWAP1 SUB ADD DUP2 DUP7 DUP1 EXTCODESIZE ISZERO DUP1 ISZERO PUSH3 0x1BF6 JUMPI PUSH1 0x0 DUP1 REVERT JUMPDEST POP GAS STATICCALL ISZERO DUP1 ISZERO PUSH3 0x1C0B JUMPI RETURNDATASIZE PUSH1 0x0 DUP1 RETURNDATACOPY RETURNDATASIZE PUSH1 0x0 REVERT JUMPDEST POP POP POP POP PUSH1 0x40 MLOAD RETURNDATASIZE PUSH1 0x1F NOT PUSH1 0x1F DUP3 ADD AND DUP3 ADD DUP1 PUSH1 0x40 MSTORE POP DUP2 ADD SWAP1 PUSH3 0x1C31 SWAP2 SWAP1 PUSH3 0x26E6 JUMP JUMPDEST SWAP1 POP PUSH1 0x0 PUSH1 0x64 PUSH3 0x1C43 DUP2 DUP12 PUSH3 0x2829 JUMP JUMPDEST PUSH1 0xFF AND DUP4 DUP7 PUSH1 0x20 ADD MLOAD PUSH3 0x1C58 SWAP2 SWAP1 PUSH3 0x280F JUMP JUMPDEST PUSH3 0x1C64 SWAP2 SWAP1 PUSH3 0x27ED JUMP JUMPDEST PUSH3 0x1C70 SWAP2 SWAP1 PUSH3 0x27CC JUMP JUMPDEST SWAP1 POP PUSH1 0x0 DUP11 DUP3 GT ISZERO PUSH3 0x1C85 JUMPI POP DUP10 PUSH3 0x1C88 JUMP JUMPDEST POP DUP1 JUMPDEST PUSH1 0x0 PUSH3 0x1C99 PUSH1 0xFF DUP13 AND DUP4 PUSH3 0x27ED JUMP JUMPDEST SWAP1 POP PUSH1 0x0 ADDRESS DUP8 PUSH1 0x0 ADD MLOAD DUP16 DUP5 DUP7 PUSH1 0x40 MLOAD PUSH3 0x1CB4 SWAP1 PUSH3 0x2425 JUMP JUMPDEST PUSH1 0x1 PUSH1 0x1 PUSH1 0xA0 SHL SUB SWAP6 DUP7 AND DUP2 MSTORE SWAP4 DUP6 AND PUSH1 0x20 DUP6 ADD MSTORE SWAP4 SWAP1 SWAP2 AND PUSH1 0x40 DUP4 ADD MSTORE PUSH1 0x60 DUP3 ADD MSTORE PUSH1 0x80 DUP2 ADD SWAP2 SWAP1 SWAP2 MSTORE PUSH1 0xA0 ADD PUSH1 0x40 MLOAD DUP1 SWAP2 SUB SWAP1 PUSH1 0x0 CREATE DUP1 ISZERO DUP1 ISZERO PUSH3 0x1CFF JUMPI RETURNDATASIZE PUSH1 0x0 DUP1 RETURNDATACOPY RETURNDATASIZE PUSH1 0x0 REVERT JUMPDEST POP SWAP1 POP PUSH1 0xA DUP10 DUP2 SLOAD DUP2 LT PUSH3 0x1D24 JUMPI PUSH4 0x4E487B71 PUSH1 0xE0 SHL PUSH1 0x0 MSTORE PUSH1 0x32 PUSH1 0x4 MSTORE PUSH1 0x24 PUSH1 0x0 REVERT JUMPDEST PUSH1 0x0 SWAP2 DUP3 MSTORE PUSH1 0x20 DUP3 KECCAK256 PUSH1 0x3 SWAP2 SWAP1 SWAP2 MUL ADD DUP1 SLOAD PUSH1 0x1 PUSH1 0x1 PUSH1 0xA0 SHL SUB NOT AND DUP2 SSTORE PUSH1 0x1 DUP2 ADD SWAP2 SWAP1 SWAP2 SSTORE PUSH1 0x2 ADD DUP1 SLOAD PUSH1 0xFF NOT AND SWAP1 SSTORE PUSH1 0x40 MLOAD PUSH4 0x2D267E03 PUSH1 0xE1 SHL DUP2 MSTORE PUSH1 0x4 DUP2 ADD DUP5 SWAP1 MSTORE DUP15 SWAP1 PUSH1 0x1 PUSH1 0x1 PUSH1 0xA0 SHL SUB DUP3 AND SWAP1 PUSH4 0x5A4CFC06 SWAP1 PUSH1 0x24 ADD PUSH1 0x20 PUSH1 0x40 MLOAD DUP1 DUP4 SUB DUP2 PUSH1 0x0 DUP8 DUP1 EXTCODESIZE ISZERO DUP1 ISZERO PUSH3 0x1D9A JUMPI PUSH1 0x0 DUP1 REVERT JUMPDEST POP GAS CALL ISZERO DUP1 ISZERO PUSH3 0x1DAF JUMPI RETURNDATASIZE PUSH1 0x0 DUP1 RETURNDATACOPY RETURNDATASIZE PUSH1 0x0 REVERT JUMPDEST POP POP POP POP PUSH1 0x40 MLOAD RETURNDATASIZE PUSH1 0x1F NOT PUSH1 0x1F DUP3 ADD AND DUP3 ADD DUP1 PUSH1 0x40 MSTORE POP DUP2 ADD SWAP1 PUSH3 0x1DD5 SWAP2 SWAP1 PUSH3 0x256A JUMP JUMPDEST POP PUSH1 0x40 MLOAD PUSH4 0x615BDDDB PUSH1 0xE1 SHL DUP2 MSTORE PUSH1 0x1 PUSH1 0x1 PUSH1 0xA0 SHL SUB DUP4 DUP2 AND PUSH1 0x4 DUP4 ADD MSTORE DUP3 AND SWAP1 PUSH4 0xC2B7BBB6 SWAP1 PUSH1 0x24 ADD PUSH1 0x20 PUSH1 0x40 MLOAD DUP1 DUP4 SUB DUP2 PUSH1 0x0 DUP8 DUP1 EXTCODESIZE ISZERO DUP1 ISZERO PUSH3 0x1E1A JUMPI PUSH1 0x0 DUP1 REVERT JUMPDEST POP GAS CALL ISZERO DUP1 ISZERO PUSH3 0x1E2F JUMPI RETURNDATASIZE PUSH1 0x0 DUP1 RETURNDATACOPY RETURNDATASIZE PUSH1 0x0 REVERT JUMPDEST POP POP POP POP PUSH1 0x40 MLOAD RETURNDATASIZE PUSH1 0x1F NOT PUSH1 0x1F DUP3 ADD AND DUP3 ADD DUP1 PUSH1 0x40 MSTORE POP DUP2 ADD SWAP1 PUSH3 0x1E55 SWAP2 SWAP1 PUSH3 0x256A JUMP JUMPDEST POP DUP8 MLOAD PUSH1 0x40 MLOAD PUSH4 0x2D267E03 PUSH1 0xE1 SHL DUP2 MSTORE PUSH1 0x4 DUP2 ADD DUP6 SWAP1 MSTORE PUSH1 0x1 PUSH1 0x1 PUSH1 0xA0 SHL SUB DUP3 AND SWAP1 PUSH4 0x5A4CFC06 SWAP1 PUSH1 0x24 ADD PUSH1 0x20 PUSH1 0x40 MLOAD DUP1 DUP4 SUB DUP2 PUSH1 0x0 DUP8 DUP1 EXTCODESIZE ISZERO DUP1 ISZERO PUSH3 0x1E9B JUMPI PUSH1 0x0 DUP1 REVERT JUMPDEST POP GAS CALL ISZERO DUP1 ISZERO PUSH3 0x1EB0 JUMPI RETURNDATASIZE PUSH1 0x0 DUP1 RETURNDATACOPY RETURNDATASIZE PUSH1 0x0 REVERT JUMPDEST POP POP POP POP PUSH1 0x40 MLOAD RETURNDATASIZE PUSH1 0x1F NOT PUSH1 0x1F DUP3 ADD AND DUP3 ADD DUP1 PUSH1 0x40 MSTORE POP DUP2 ADD SWAP1 PUSH3 0x1ED6 SWAP2 SWAP1 PUSH3 0x256A JUMP JUMPDEST POP PUSH1 0x40 MLOAD PUSH4 0x615BDDDB PUSH1 0xE1 SHL DUP2 MSTORE PUSH1 0x1 PUSH1 0x1 PUSH1 0xA0 SHL SUB DUP5 DUP2 AND PUSH1 0x4 DUP4 ADD MSTORE DUP3 AND SWAP1 PUSH4 0xC2B7BBB6 SWAP1 PUSH1 0x24 ADD PUSH1 0x20 PUSH1 0x40 MLOAD DUP1 DUP4 SUB DUP2 PUSH1 0x0 DUP8 DUP1 EXTCODESIZE ISZERO DUP1 ISZERO PUSH3 0x1F1B JUMPI PUSH1 0x0 DUP1 REVERT JUMPDEST POP GAS CALL ISZERO DUP1 ISZERO PUSH3 0x1F30 JUMPI RETURNDATASIZE PUSH1 0x0 DUP1 RETURNDATACOPY RETURNDATASIZE PUSH1 0x0 REVERT JUMPDEST POP POP POP POP PUSH1 0x40 MLOAD RETURNDATASIZE PUSH1 0x1F NOT PUSH1 0x1F DUP3 ADD AND DUP3 ADD DUP1 PUSH1 0x40 MSTORE POP DUP2 ADD SWAP1 PUSH3 0x1F56 SWAP2 SWAP1 PUSH3 0x256A JUMP JUMPDEST POP PUSH3 0x1F63 DUP5 DUP14 PUSH3 0x280F JUMP JUMPDEST SWAP12 POP POP POP POP POP POP POP POP POP POP PUSH3 0x204C JUMP JUMPDEST POP POP PUSH1 0x40 DUP1 MLOAD PUSH1 0x60 DUP2 ADD DUP3 MSTORE PUSH1 0x1 PUSH1 0x1 PUSH1 0xA0 SHL SUB DUP8 DUP2 AND DUP3 MSTORE PUSH1 0x20 DUP3 ADD DUP8 DUP2 MSTORE PUSH1 0xFF DUP8 DUP2 AND SWAP5 DUP5 ADD SWAP5 DUP6 MSTORE PUSH1 0xC DUP1 SLOAD PUSH1 0x1 DUP2 ADD DUP3 SSTORE PUSH1 0x0 SWAP2 SWAP1 SWAP2 MSTORE SWAP4 MLOAD PUSH32 0xDF6966C971051C3D54EC59162606531493A51404A002842F56009D7E5CF4A8C7 PUSH1 0x3 SWAP1 SWAP6 MUL SWAP5 DUP6 ADD DUP1 SLOAD PUSH1 0x1 PUSH1 0x1 PUSH1 0xA0 SHL SUB NOT AND SWAP2 SWAP1 SWAP5 AND OR SWAP1 SWAP3 SSTORE MLOAD PUSH32 0xDF6966C971051C3D54EC59162606531493A51404A002842F56009D7E5CF4A8C8 DUP4 ADD SSTORE SWAP2 MLOAD PUSH32 0xDF6966C971051C3D54EC59162606531493A51404A002842F56009D7E5CF4A8C9 SWAP1 SWAP2 ADD DUP1 SLOAD PUSH1 0xFF NOT AND SWAP2 SWAP1 SWAP3 AND OR SWAP1 SSTORE PUSH3 0x189E JUMP JUMPDEST POP POP PUSH3 0x1A94 JUMP JUMPDEST POP PUSH1 0x40 DUP1 MLOAD PUSH1 0x60 DUP2 ADD DUP3 MSTORE PUSH1 0x1 PUSH1 0x1 PUSH1 0xA0 SHL SUB SWAP5 DUP6 AND DUP2 MSTORE PUSH1 0x20 DUP2 ADD SWAP4 DUP5 MSTORE PUSH1 0xFF SWAP3 DUP4 AND SWAP2 DUP2 ADD SWAP2 DUP3 MSTORE PUSH1 0xC DUP1 SLOAD PUSH1 0x1 DUP2 ADD DUP3 SSTORE PUSH1 0x0 SWAP2 SWAP1 SWAP2 MSTORE SWAP1 MLOAD PUSH32 0xDF6966C971051C3D54EC59162606531493A51404A002842F56009D7E5CF4A8C7 PUSH1 0x3 SWAP1 SWAP3 MUL SWAP2 DUP3 ADD DUP1 SLOAD PUSH1 0x1 PUSH1 0x1 PUSH1 0xA0 SHL SUB NOT AND SWAP2 SWAP1 SWAP7 AND OR SWAP1 SWAP5 SSTORE SWAP2 MLOAD PUSH32 0xDF6966C971051C3D54EC59162606531493A51404A002842F56009D7E5CF4A8C8 DUP5 ADD SSTORE SWAP1 MLOAD PUSH32 0xDF6966C971051C3D54EC59162606531493A51404A002842F56009D7E5CF4A8C9 SWAP1 SWAP3 ADD DUP1 SLOAD PUSH1 0xFF NOT AND SWAP3 SWAP1 SWAP2 AND SWAP2 SWAP1 SWAP2 OR SWAP1 SSTORE JUMP JUMPDEST PUSH1 0x0 PUSH3 0x2182 DUP3 PUSH1 0x40 MLOAD DUP1 PUSH1 0x40 ADD PUSH1 0x40 MSTORE DUP1 PUSH1 0x20 DUP2 MSTORE PUSH1 0x20 ADD PUSH32 0x5361666545524332303A206C6F772D6C6576656C2063616C6C206661696C6564 DUP2 MSTORE POP DUP6 PUSH1 0x1 PUSH1 0x1 PUSH1 0xA0 SHL SUB AND PUSH3 0x2204 SWAP1 SWAP3 SWAP2 SWAP1 PUSH4 0xFFFFFFFF AND JUMP JUMPDEST DUP1 MLOAD SWAP1 SWAP2 POP ISZERO PUSH3 0x11B5 JUMPI DUP1 DUP1 PUSH1 0x20 ADD SWAP1 MLOAD DUP2 ADD SWAP1 PUSH3 0x21A3 SWAP2 SWAP1 PUSH3 0x256A JUMP JUMPDEST PUSH3 0x11B5 JUMPI PUSH1 0x40 MLOAD PUSH3 0x461BCD PUSH1 0xE5 SHL DUP2 MSTORE PUSH1 0x20 PUSH1 0x4 DUP3 ADD MSTORE PUSH1 0x2A PUSH1 0x24 DUP3 ADD MSTORE PUSH32 0x5361666545524332303A204552433230206F7065726174696F6E20646964206E PUSH1 0x44 DUP3 ADD MSTORE PUSH10 0x1BDD081CDD58D8D95959 PUSH1 0xB2 SHL PUSH1 0x64 DUP3 ADD MSTORE PUSH1 0x84 ADD PUSH3 0x3F3 JUMP JUMPDEST PUSH1 0x60 PUSH3 0x2215 DUP5 DUP5 PUSH1 0x0 DUP6 PUSH3 0x221D JUMP JUMPDEST SWAP5 SWAP4 POP POP POP POP JUMP JUMPDEST PUSH1 0x60 DUP3 SELFBALANCE LT ISZERO PUSH3 0x2280 JUMPI PUSH1 0x40 MLOAD PUSH3 0x461BCD PUSH1 0xE5 SHL DUP2 MSTORE PUSH1 0x20 PUSH1 0x4 DUP3 ADD MSTORE PUSH1 0x26 PUSH1 0x24 DUP3 ADD MSTORE PUSH32 0x416464726573733A20696E73756666696369656E742062616C616E636520666F PUSH1 0x44 DUP3 ADD MSTORE PUSH6 0x1C8818D85B1B PUSH1 0xD2 SHL PUSH1 0x64 DUP3 ADD MSTORE PUSH1 0x84 ADD PUSH3 0x3F3 JUMP JUMPDEST PUSH1 0x1 PUSH1 0x1 PUSH1 0xA0 SHL SUB DUP6 AND EXTCODESIZE PUSH3 0x22D9 JUMPI PUSH1 0x40 MLOAD PUSH3 0x461BCD PUSH1 0xE5 SHL DUP2 MSTORE PUSH1 0x20 PUSH1 0x4 DUP3 ADD MSTORE PUSH1 0x1D PUSH1 0x24 DUP3 ADD MSTORE PUSH32 0x416464726573733A2063616C6C20746F206E6F6E2D636F6E7472616374000000 PUSH1 0x44 DUP3 ADD MSTORE PUSH1 0x64 ADD PUSH3 0x3F3 JUMP JUMPDEST PUSH1 0x0 DUP1 DUP7 PUSH1 0x1 PUSH1 0x1 PUSH1 0xA0 SHL SUB AND DUP6 DUP8 PUSH1 0x40 MLOAD PUSH3 0x22F7 SWAP2 SWAP1 PUSH3 0x26FF JUMP JUMPDEST PUSH1 0x0 PUSH1 0x40 MLOAD DUP1 DUP4 SUB DUP2 DUP6 DUP8 GAS CALL SWAP3 POP POP POP RETURNDATASIZE DUP1 PUSH1 0x0 DUP2 EQ PUSH3 0x2336 JUMPI PUSH1 0x40 MLOAD SWAP2 POP PUSH1 0x1F NOT PUSH1 0x3F RETURNDATASIZE ADD AND DUP3 ADD PUSH1 0x40 MSTORE RETURNDATASIZE DUP3 MSTORE RETURNDATASIZE PUSH1 0x0 PUSH1 0x20 DUP5 ADD RETURNDATACOPY PUSH3 0x233B JUMP JUMPDEST PUSH1 0x60 SWAP2 POP JUMPDEST POP SWAP2 POP SWAP2 POP PUSH3 0x234D DUP3 DUP3 DUP7 PUSH3 0x2358 JUMP JUMPDEST SWAP8 SWAP7 POP POP POP POP POP POP POP JUMP JUMPDEST PUSH1 0x60 DUP4 ISZERO PUSH3 0x2369 JUMPI POP DUP2 PUSH3 0xE97 JUMP JUMPDEST DUP3 MLOAD ISZERO PUSH3 0x237A JUMPI DUP3 MLOAD DUP1 DUP5 PUSH1 0x20 ADD REVERT JUMPDEST DUP2 PUSH1 0x40 MLOAD PUSH3 0x461BCD PUSH1 0xE5 SHL DUP2 MSTORE PUSH1 0x4 ADD PUSH3 0x3F3 SWAP2 SWAP1 PUSH3 0x271D JUMP JUMPDEST DUP3 DUP1 SLOAD PUSH3 0x23A4 SWAP1 PUSH3 0x287E JUMP JUMPDEST SWAP1 PUSH1 0x0 MSTORE PUSH1 0x20 PUSH1 0x0 KECCAK256 SWAP1 PUSH1 0x1F ADD PUSH1 0x20 SWAP1 DIV DUP2 ADD SWAP3 DUP3 PUSH3 0x23C8 JUMPI PUSH1 0x0 DUP6 SSTORE PUSH3 0x2413 JUMP JUMPDEST DUP3 PUSH1 0x1F LT PUSH3 0x23E3 JUMPI DUP1 MLOAD PUSH1 0xFF NOT AND DUP4 DUP1 ADD OR DUP6 SSTORE PUSH3 0x2413 JUMP JUMPDEST DUP3 DUP1 ADD PUSH1 0x1 ADD DUP6 SSTORE DUP3 ISZERO PUSH3 0x2413 JUMPI SWAP2 DUP3 ADD JUMPDEST DUP3 DUP2 GT ISZERO PUSH3 0x2413 JUMPI DUP3 MLOAD DUP3 SSTORE SWAP2 PUSH1 0x20 ADD SWAP2 SWAP1 PUSH1 0x1 ADD SWAP1 PUSH3 0x23F6 JUMP JUMPDEST POP PUSH3 0x2421 SWAP3 SWAP2 POP PUSH3 0x2433 JUMP JUMPDEST POP SWAP1 JUMP JUMPDEST PUSH2 0x562 DUP1 PUSH3 0x291F DUP4 CODECOPY ADD SWAP1 JUMP JUMPDEST JUMPDEST DUP1 DUP3 GT ISZERO PUSH3 0x2421 JUMPI PUSH1 0x0 DUP2 SSTORE PUSH1 0x1 ADD PUSH3 0x2434 JUMP JUMPDEST PUSH1 0x0 DUP3 PUSH1 0x1F DUP4 ADD SLT PUSH3 0x245B JUMPI DUP1 DUP2 REVERT JUMPDEST DUP2 CALLDATALOAD PUSH3 0x2472 PUSH3 0x246C DUP3 PUSH3 0x2786 JUMP JUMPDEST PUSH3 0x2752 JUMP JUMPDEST DUP2 DUP2 MSTORE DUP5 PUSH1 0x20 DUP4 DUP7 ADD ADD GT ISZERO PUSH3 0x2487 JUMPI DUP3 DUP4 REVERT JUMPDEST DUP2 PUSH1 0x20 DUP6 ADD PUSH1 0x20 DUP4 ADD CALLDATACOPY SWAP1 DUP2 ADD PUSH1 0x20 ADD SWAP2 SWAP1 SWAP2 MSTORE SWAP3 SWAP2 POP POP JUMP JUMPDEST PUSH1 0x0 PUSH1 0x20 DUP3 DUP5 SUB SLT ISZERO PUSH3 0x24B3 JUMPI DUP1 DUP2 REVERT JUMPDEST DUP2 CALLDATALOAD PUSH3 0xE97 DUP2 PUSH3 0x2905 JUMP JUMPDEST PUSH1 0x0 PUSH1 0x20 DUP3 DUP5 SUB SLT ISZERO PUSH3 0x24D2 JUMPI DUP1 DUP2 REVERT JUMPDEST DUP2 MLOAD PUSH3 0xE97 DUP2 PUSH3 0x2905 JUMP JUMPDEST PUSH1 0x0 DUP1 PUSH1 0x0 DUP1 PUSH1 0x0 PUSH1 0xA0 DUP7 DUP9 SUB SLT ISZERO PUSH3 0x24F7 JUMPI DUP1 DUP2 REVERT JUMPDEST DUP6 CALLDATALOAD PUSH3 0x2504 DUP2 PUSH3 0x2905 JUMP JUMPDEST SWAP5 POP PUSH1 0x20 DUP7 ADD CALLDATALOAD PUSH3 0x2516 DUP2 PUSH3 0x2905 JUMP JUMPDEST SWAP4 POP PUSH1 0x40 DUP7 ADD CALLDATALOAD SWAP3 POP PUSH1 0x60 DUP7 ADD CALLDATALOAD PUSH1 0xFF DUP2 AND DUP2 EQ PUSH3 0x2533 JUMPI DUP2 DUP3 REVERT JUMPDEST SWAP2 POP PUSH1 0x80 DUP7 ADD CALLDATALOAD PUSH8 0xFFFFFFFFFFFFFFFF DUP2 GT ISZERO PUSH3 0x254F JUMPI DUP2 DUP3 REVERT JUMPDEST PUSH3 0x255D DUP9 DUP3 DUP10 ADD PUSH3 0x244A JUMP JUMPDEST SWAP2 POP POP SWAP3 SWAP6 POP SWAP3 SWAP6 SWAP1 SWAP4 POP JUMP JUMPDEST PUSH1 0x0 PUSH1 0x20 DUP3 DUP5 SUB SLT ISZERO PUSH3 0x257C JUMPI DUP1 DUP2 REVERT JUMPDEST DUP2 MLOAD DUP1 ISZERO ISZERO DUP2 EQ PUSH3 0xE97 JUMPI DUP2 DUP3 REVERT JUMPDEST PUSH1 0x0 PUSH1 0x20 DUP3 DUP5 SUB SLT ISZERO PUSH3 0x259E JUMPI DUP1 DUP2 REVERT JUMPDEST DUP2 CALLDATALOAD PUSH8 0xFFFFFFFFFFFFFFFF DUP2 GT ISZERO PUSH3 0x25B5 JUMPI DUP2 DUP3 REVERT JUMPDEST PUSH3 0x2215 DUP5 DUP3 DUP6 ADD PUSH3 0x244A JUMP JUMPDEST PUSH1 0x0 PUSH1 0x20 DUP3 DUP5 SUB SLT ISZERO PUSH3 0x25D5 JUMPI DUP1 DUP2 REVERT JUMPDEST DUP2 MLOAD PUSH8 0xFFFFFFFFFFFFFFFF DUP2 GT ISZERO PUSH3 0x25EC JUMPI DUP2 DUP3 REVERT JUMPDEST DUP3 ADD PUSH1 0x1F DUP2 ADD DUP5 SGT PUSH3 0x25FD JUMPI DUP2 DUP3 REVERT JUMPDEST DUP1 MLOAD PUSH3 0x260E PUSH3 0x246C DUP3 PUSH3 0x2786 JUMP JUMPDEST DUP2 DUP2 MSTORE DUP6 PUSH1 0x20 DUP4 DUP6 ADD ADD GT ISZERO PUSH3 0x2623 JUMPI DUP4 DUP5 REVERT JUMPDEST PUSH3 0x2636 DUP3 PUSH1 0x20 DUP4 ADD PUSH1 0x20 DUP7 ADD PUSH3 0x284F JUMP JUMPDEST SWAP6 SWAP5 POP POP POP POP POP JUMP JUMPDEST PUSH1 0x0 DUP1 PUSH1 0x0 PUSH1 0x60 DUP5 DUP7 SUB SLT ISZERO PUSH3 0x2654 JUMPI DUP3 DUP4 REVERT JUMPDEST DUP4 CALLDATALOAD PUSH8 0xFFFFFFFFFFFFFFFF DUP1 DUP3 GT ISZERO PUSH3 0x266C JUMPI DUP5 DUP6 REVERT JUMPDEST PUSH3 0x267A DUP8 DUP4 DUP9 ADD PUSH3 0x244A JUMP JUMPDEST SWAP5 POP PUSH1 0x20 DUP7 ADD CALLDATALOAD SWAP2 POP DUP1 DUP3 GT ISZERO PUSH3 0x2690 JUMPI DUP4 DUP5 REVERT JUMPDEST PUSH3 0x269E DUP8 DUP4 DUP9 ADD PUSH3 0x244A JUMP JUMPDEST SWAP4 POP PUSH1 0x40 DUP7 ADD CALLDATALOAD SWAP2 POP DUP1 DUP3 GT ISZERO PUSH3 0x26B4 JUMPI DUP3 DUP4 REVERT JUMPDEST POP PUSH3 0x26C3 DUP7 DUP3 DUP8 ADD PUSH3 0x244A JUMP JUMPDEST SWAP2 POP POP SWAP3 POP SWAP3 POP SWAP3 JUMP JUMPDEST PUSH1 0x0 PUSH1 0x20 DUP3 DUP5 SUB SLT ISZERO PUSH3 0x26DF JUMPI DUP1 DUP2 REVERT JUMPDEST POP CALLDATALOAD SWAP2 SWAP1 POP JUMP JUMPDEST PUSH1 0x0 PUSH1 0x20 DUP3 DUP5 SUB SLT ISZERO PUSH3 0x26F8 JUMPI DUP1 DUP2 REVERT JUMPDEST POP MLOAD SWAP2 SWAP1 POP JUMP JUMPDEST PUSH1 0x0 DUP3 MLOAD PUSH3 0x2713 DUP2 DUP5 PUSH1 0x20 DUP8 ADD PUSH3 0x284F JUMP JUMPDEST SWAP2 SWAP1 SWAP2 ADD SWAP3 SWAP2 POP POP JUMP JUMPDEST PUSH1 0x20 DUP2 MSTORE PUSH1 0x0 DUP3 MLOAD DUP1 PUSH1 0x20 DUP5 ADD MSTORE PUSH3 0x273E DUP2 PUSH1 0x40 DUP6 ADD PUSH1 0x20 DUP8 ADD PUSH3 0x284F JUMP JUMPDEST PUSH1 0x1F ADD PUSH1 0x1F NOT AND SWAP2 SWAP1 SWAP2 ADD PUSH1 0x40 ADD SWAP3 SWAP2 POP POP JUMP JUMPDEST PUSH1 0x40 MLOAD PUSH1 0x1F DUP3 ADD PUSH1 0x1F NOT AND DUP2 ADD PUSH8 0xFFFFFFFFFFFFFFFF DUP2 GT DUP3 DUP3 LT OR ISZERO PUSH3 0x277E JUMPI PUSH3 0x277E PUSH3 0x28EF JUMP JUMPDEST PUSH1 0x40 MSTORE SWAP2 SWAP1 POP JUMP JUMPDEST PUSH1 0x0 PUSH8 0xFFFFFFFFFFFFFFFF DUP3 GT ISZERO PUSH3 0x27A3 JUMPI PUSH3 0x27A3 PUSH3 0x28EF JUMP JUMPDEST POP PUSH1 0x1F ADD PUSH1 0x1F NOT AND PUSH1 0x20 ADD SWAP1 JUMP JUMPDEST PUSH1 0x0 DUP3 NOT DUP3 GT ISZERO PUSH3 0x27C7 JUMPI PUSH3 0x27C7 PUSH3 0x28D9 JUMP JUMPDEST POP ADD SWAP1 JUMP JUMPDEST PUSH1 0x0 DUP3 PUSH3 0x27E8 JUMPI PUSH4 0x4E487B71 PUSH1 0xE0 SHL DUP2 MSTORE PUSH1 0x12 PUSH1 0x4 MSTORE PUSH1 0x24 DUP2 REVERT JUMPDEST POP DIV SWAP1 JUMP JUMPDEST PUSH1 0x0 DUP2 PUSH1 0x0 NOT DIV DUP4 GT DUP3 ISZERO ISZERO AND ISZERO PUSH3 0x280A JUMPI PUSH3 0x280A PUSH3 0x28D9 JUMP JUMPDEST POP MUL SWAP1 JUMP JUMPDEST PUSH1 0x0 DUP3 DUP3 LT ISZERO PUSH3 0x2824 JUMPI PUSH3 0x2824 PUSH3 0x28D9 JUMP JUMPDEST POP SUB SWAP1 JUMP JUMPDEST PUSH1 0x0 PUSH1 0xFF DUP3 AND PUSH1 0xFF DUP5 AND DUP1 DUP3 LT ISZERO PUSH3 0x2846 JUMPI PUSH3 0x2846 PUSH3 0x28D9 JUMP JUMPDEST SWAP1 SUB SWAP4 SWAP3 POP POP POP JUMP JUMPDEST PUSH1 0x0 JUMPDEST DUP4 DUP2 LT ISZERO PUSH3 0x286C JUMPI DUP2 DUP2 ADD MLOAD DUP4 DUP3 ADD MSTORE PUSH1 0x20 ADD PUSH3 0x2852 JUMP JUMPDEST DUP4 DUP2 GT ISZERO PUSH3 0x12CC JUMPI POP POP PUSH1 0x0 SWAP2 ADD MSTORE JUMP JUMPDEST PUSH1 0x1 DUP2 DUP2 SHR SWAP1 DUP3 AND DUP1 PUSH3 0x2893 JUMPI PUSH1 0x7F DUP3 AND SWAP2 POP JUMPDEST PUSH1 0x20 DUP3 LT DUP2 EQ ISZERO PUSH3 0x28B5 JUMPI PUSH4 0x4E487B71 PUSH1 0xE0 SHL PUSH1 0x0 MSTORE PUSH1 0x22 PUSH1 0x4 MSTORE PUSH1 0x24 PUSH1 0x0 REVERT JUMPDEST POP SWAP2 SWAP1 POP JUMP JUMPDEST PUSH1 0x0 PUSH1 0x0 NOT DUP3 EQ ISZERO PUSH3 0x28D2 JUMPI PUSH3 0x28D2 PUSH3 0x28D9 JUMP JUMPDEST POP PUSH1 0x1 ADD SWAP1 JUMP JUMPDEST PUSH4 0x4E487B71 PUSH1 0xE0 SHL PUSH1 0x0 MSTORE PUSH1 0x11 PUSH1 0x4 MSTORE PUSH1 0x24 PUSH1 0x0 REVERT JUMPDEST PUSH4 0x4E487B71 PUSH1 0xE0 SHL PUSH1 0x0 MSTORE PUSH1 0x41 PUSH1 0x4 MSTORE PUSH1 0x24 PUSH1 0x0 REVERT JUMPDEST PUSH1 0x1 PUSH1 0x1 PUSH1 0xA0 SHL SUB DUP2 AND DUP2 EQ PUSH3 0x291B JUMPI PUSH1 0x0 DUP1 REVERT JUMPDEST POP JUMP INVALID PUSH1 0x80 PUSH1 0x40 MSTORE PUSH1 0x0 SLOAD PUSH1 0x8 DUP1 SLOAD PUSH1 0x1 PUSH1 0x1 PUSH1 0xA0 SHL SUB NOT AND PUSH1 0x1 PUSH1 0x1 PUSH1 0xA0 SHL SUB SWAP1 SWAP3 AND SWAP2 SWAP1 SWAP2 OR SWAP1 SSTORE CALLVALUE DUP1 ISZERO PUSH2 0x32 JUMPI PUSH1 0x0 DUP1 REVERT JUMPDEST POP PUSH1 0x40 MLOAD PUSH2 0x562 CODESIZE SUB DUP1 PUSH2 0x562 DUP4 CODECOPY DUP2 ADD PUSH1 0x40 DUP2 SWAP1 MSTORE PUSH2 0x51 SWAP2 PUSH2 0x1AC JUMP JUMPDEST PUSH1 0x8 PUSH1 0x0 SWAP1 SLOAD SWAP1 PUSH2 0x100 EXP SWAP1 DIV PUSH1 0x1 PUSH1 0x1 PUSH1 0xA0 SHL SUB AND PUSH1 0x1 PUSH1 0x1 PUSH1 0xA0 SHL SUB AND PUSH4 0xC45A0155 PUSH1 0x40 MLOAD DUP2 PUSH4 0xFFFFFFFF AND PUSH1 0xE0 SHL DUP2 MSTORE PUSH1 0x4 ADD PUSH1 0x20 PUSH1 0x40 MLOAD DUP1 DUP4 SUB DUP2 DUP7 DUP1 EXTCODESIZE ISZERO DUP1 ISZERO PUSH2 0x9F JUMPI PUSH1 0x0 DUP1 REVERT JUMPDEST POP GAS STATICCALL ISZERO DUP1 ISZERO PUSH2 0xB3 JUMPI RETURNDATASIZE PUSH1 0x0 DUP1 RETURNDATACOPY RETURNDATASIZE PUSH1 0x0 REVERT JUMPDEST POP POP POP POP PUSH1 0x40 MLOAD RETURNDATASIZE PUSH1 0x1F NOT PUSH1 0x1F DUP3 ADD AND DUP3 ADD DUP1 PUSH1 0x40 MSTORE POP DUP2 ADD SWAP1 PUSH2 0xD7 SWAP2 SWAP1 PUSH2 0x18B JUMP JUMPDEST PUSH1 0x1 PUSH1 0x1 PUSH1 0xA0 SHL SUB AND CALLER PUSH1 0x1 PUSH1 0x1 PUSH1 0xA0 SHL SUB AND EQ PUSH2 0x123 JUMPI PUSH1 0x40 MLOAD PUSH3 0x461BCD PUSH1 0xE5 SHL DUP2 MSTORE PUSH1 0x20 PUSH1 0x4 DUP3 ADD MSTORE PUSH1 0x5 PUSH1 0x24 DUP3 ADD MSTORE PUSH5 0x667479206F PUSH1 0xD8 SHL PUSH1 0x44 DUP3 ADD MSTORE PUSH1 0x64 ADD PUSH1 0x40 MLOAD DUP1 SWAP2 SUB SWAP1 REVERT JUMPDEST PUSH1 0x1 DUP1 SLOAD PUSH1 0x1 PUSH1 0x1 PUSH1 0xA0 SHL SUB NOT SWAP1 DUP2 AND PUSH1 0x1 PUSH1 0x1 PUSH1 0xA0 SHL SUB SWAP8 DUP9 AND OR SWAP1 SWAP2 SSTORE PUSH1 0x2 DUP1 SLOAD DUP3 AND SWAP6 DUP8 AND SWAP6 SWAP1 SWAP6 OR SWAP1 SWAP5 SSTORE PUSH1 0x3 DUP1 SLOAD SWAP1 SWAP5 AND SWAP3 SWAP1 SWAP5 AND SWAP2 SWAP1 SWAP2 OR SWAP1 SWAP2 SSTORE PUSH1 0x6 SSTORE PUSH1 0x7 SSTORE PUSH2 0x201 JUMP JUMPDEST DUP1 MLOAD PUSH1 0x1 PUSH1 0x1 PUSH1 0xA0 SHL SUB DUP2 AND DUP2 EQ PUSH2 0x186 JUMPI PUSH1 0x0 DUP1 REVERT JUMPDEST SWAP2 SWAP1 POP JUMP JUMPDEST PUSH1 0x0 PUSH1 0x20 DUP3 DUP5 SUB SLT ISZERO PUSH2 0x19C JUMPI DUP1 DUP2 REVERT JUMPDEST PUSH2 0x1A5 DUP3 PUSH2 0x16F JUMP JUMPDEST SWAP4 SWAP3 POP POP POP JUMP JUMPDEST PUSH1 0x0 DUP1 PUSH1 0x0 DUP1 PUSH1 0x0 PUSH1 0xA0 DUP7 DUP9 SUB SLT ISZERO PUSH2 0x1C3 JUMPI DUP1 DUP2 REVERT JUMPDEST PUSH2 0x1CC DUP7 PUSH2 0x16F JUMP JUMPDEST SWAP5 POP PUSH2 0x1DA PUSH1 0x20 DUP8 ADD PUSH2 0x16F JUMP JUMPDEST SWAP4 POP PUSH2 0x1E8 PUSH1 0x40 DUP8 ADD PUSH2 0x16F JUMP JUMPDEST PUSH1 0x60 DUP8 ADD MLOAD PUSH1 0x80 SWAP1 SWAP8 ADD MLOAD SWAP6 SWAP9 SWAP5 SWAP8 POP SWAP6 SWAP5 SWAP4 SWAP3 POP POP POP JUMP JUMPDEST PUSH2 0x352 DUP1 PUSH2 0x210 PUSH1 0x0 CODECOPY PUSH1 0x0 RETURN INVALID PUSH1 0x80 PUSH1 0x40 MSTORE CALLVALUE DUP1 ISZERO PUSH2 0x10 JUMPI PUSH1 0x0 DUP1 REVERT JUMPDEST POP PUSH1 0x4 CALLDATASIZE LT PUSH2 0x88 JUMPI PUSH1 0x0 CALLDATALOAD PUSH1 0xE0 SHR DUP1 PUSH4 0x6D83A71F GT PUSH2 0x5B JUMPI DUP1 PUSH4 0x6D83A71F EQ PUSH2 0xF0 JUMPI DUP1 PUSH4 0x80F55605 EQ PUSH2 0x113 JUMPI DUP1 PUSH4 0xBAA1A3EC EQ PUSH2 0x126 JUMPI DUP1 PUSH4 0xED7A4E0B EQ PUSH2 0x139 JUMPI PUSH1 0x0 DUP1 REVERT JUMPDEST DUP1 PUSH4 0xF765E6D EQ PUSH2 0x8D JUMPI DUP1 PUSH4 0x156DCBF0 EQ PUSH2 0xBD JUMPI DUP1 PUSH4 0x15E894AB EQ PUSH2 0xD4 JUMPI DUP1 PUSH4 0x2EFE91EF EQ PUSH2 0xE7 JUMPI JUMPDEST PUSH1 0x0 DUP1 REVERT JUMPDEST PUSH1 0x3 SLOAD PUSH2 0xA0 SWAP1 PUSH1 0x1 PUSH1 0x1 PUSH1 0xA0 SHL SUB AND DUP2 JUMP JUMPDEST PUSH1 0x40 MLOAD PUSH1 0x1 PUSH1 0x1 PUSH1 0xA0 SHL SUB SWAP1 SWAP2 AND DUP2 MSTORE PUSH1 0x20 ADD JUMPDEST PUSH1 0x40 MLOAD DUP1 SWAP2 SUB SWAP1 RETURN JUMPDEST PUSH2 0xC6 PUSH1 0x6 SLOAD DUP2 JUMP JUMPDEST PUSH1 0x40 MLOAD SWAP1 DUP2 MSTORE PUSH1 0x20 ADD PUSH2 0xB4 JUMP JUMPDEST PUSH1 0x2 SLOAD PUSH2 0xA0 SWAP1 PUSH1 0x1 PUSH1 0x1 PUSH1 0xA0 SHL SUB AND DUP2 JUMP JUMPDEST PUSH2 0xC6 PUSH1 0x7 SLOAD DUP2 JUMP JUMPDEST PUSH2 0x103 PUSH2 0xFE CALLDATASIZE PUSH1 0x4 PUSH2 0x2C9 JUMP JUMPDEST PUSH2 0x14C JUMP JUMPDEST PUSH1 0x40 MLOAD SWAP1 ISZERO ISZERO DUP2 MSTORE PUSH1 0x20 ADD PUSH2 0xB4 JUMP JUMPDEST PUSH1 0x1 SLOAD PUSH2 0xA0 SWAP1 PUSH1 0x1 PUSH1 0x1 PUSH1 0xA0 SHL SUB AND DUP2 JUMP JUMPDEST PUSH1 0x4 SLOAD PUSH2 0xA0 SWAP1 PUSH1 0x1 PUSH1 0x1 PUSH1 0xA0 SHL SUB AND DUP2 JUMP JUMPDEST PUSH1 0x5 SLOAD PUSH2 0xA0 SWAP1 PUSH1 0x1 PUSH1 0x1 PUSH1 0xA0 SHL SUB AND DUP2 JUMP JUMPDEST PUSH1 0x8 SLOAD PUSH1 0x40 DUP1 MLOAD PUSH4 0xC45A0155 PUSH1 0xE0 SHL DUP2 MSTORE SWAP1 MLOAD PUSH1 0x0 SWAP3 PUSH1 0x1 PUSH1 0x1 PUSH1 0xA0 SHL SUB AND SWAP2 PUSH4 0xC45A0155 SWAP2 PUSH1 0x4 DUP1 DUP4 ADD SWAP3 PUSH1 0x20 SWAP3 SWAP2 SWAP1 DUP3 SWAP1 SUB ADD DUP2 DUP7 DUP1 EXTCODESIZE ISZERO DUP1 ISZERO PUSH2 0x191 JUMPI PUSH1 0x0 DUP1 REVERT JUMPDEST POP GAS STATICCALL ISZERO DUP1 ISZERO PUSH2 0x1A5 JUMPI RETURNDATASIZE PUSH1 0x0 DUP1 RETURNDATACOPY RETURNDATASIZE PUSH1 0x0 REVERT JUMPDEST POP POP POP POP PUSH1 0x40 MLOAD RETURNDATASIZE PUSH1 0x1F NOT PUSH1 0x1F DUP3 ADD AND DUP3 ADD DUP1 PUSH1 0x40 MSTORE POP DUP2 ADD SWAP1 PUSH2 0x1C9 SWAP2 SWAP1 PUSH2 0x2EC JUMP JUMPDEST PUSH1 0x1 PUSH1 0x1 PUSH1 0xA0 SHL SUB AND CALLER PUSH1 0x1 PUSH1 0x1 PUSH1 0xA0 SHL SUB AND EQ PUSH2 0x215 JUMPI PUSH1 0x40 MLOAD PUSH3 0x461BCD PUSH1 0xE5 SHL DUP2 MSTORE PUSH1 0x20 PUSH1 0x4 DUP3 ADD MSTORE PUSH1 0x5 PUSH1 0x24 DUP3 ADD MSTORE PUSH5 0x667479206F PUSH1 0xD8 SHL PUSH1 0x44 DUP3 ADD MSTORE PUSH1 0x64 ADD PUSH1 0x40 MLOAD DUP1 SWAP2 SUB SWAP1 REVERT JUMPDEST PUSH1 0x4 DUP1 SLOAD PUSH1 0x1 PUSH1 0x1 PUSH1 0xA0 SHL SUB NOT AND PUSH1 0x1 PUSH1 0x1 PUSH1 0xA0 SHL SUB DUP5 AND SWAP1 DUP2 OR DUP3 SSTORE PUSH1 0x40 DUP1 MLOAD PUSH4 0x1C631F51 PUSH1 0xE2 SHL DUP2 MSTORE SWAP1 MLOAD SWAP2 SWAP3 DUP4 SWAP3 PUSH4 0x718C7D44 SWAP3 DUP1 DUP4 ADD SWAP3 PUSH1 0x20 SWAP3 SWAP2 DUP3 SWAP1 SUB ADD DUP2 DUP7 DUP1 EXTCODESIZE ISZERO DUP1 ISZERO PUSH2 0x268 JUMPI PUSH1 0x0 DUP1 REVERT JUMPDEST POP GAS STATICCALL ISZERO DUP1 ISZERO PUSH2 0x27C JUMPI RETURNDATASIZE PUSH1 0x0 DUP1 RETURNDATACOPY RETURNDATASIZE PUSH1 0x0 REVERT JUMPDEST POP POP POP POP PUSH1 0x40 MLOAD RETURNDATASIZE PUSH1 0x1F NOT PUSH1 0x1F DUP3 ADD AND DUP3 ADD DUP1 PUSH1 0x40 MSTORE POP DUP2 ADD SWAP1 PUSH2 0x2A0 SWAP2 SWAP1 PUSH2 0x2EC JUMP JUMPDEST PUSH1 0x5 DUP1 SLOAD PUSH1 0x1 PUSH1 0x1 PUSH1 0xA0 SHL SUB NOT AND PUSH1 0x1 PUSH1 0x1 PUSH1 0xA0 SHL SUB SWAP3 SWAP1 SWAP3 AND SWAP2 SWAP1 SWAP2 OR SWAP1 SSTORE POP PUSH1 0x1 SWAP3 SWAP2 POP POP JUMP JUMPDEST PUSH1 0x0 PUSH1 0x20 DUP3 DUP5 SUB SLT ISZERO PUSH2 0x2DA JUMPI DUP1 DUP2 REVERT JUMPDEST DUP2 CALLDATALOAD PUSH2 0x2E5 DUP2 PUSH2 0x304 JUMP JUMPDEST SWAP4 SWAP3 POP POP POP JUMP JUMPDEST PUSH1 0x0 PUSH1 0x20 DUP3 DUP5 SUB SLT ISZERO PUSH2 0x2FD JUMPI DUP1 DUP2 REVERT JUMPDEST DUP2 MLOAD PUSH2 0x2E5 DUP2 JUMPDEST PUSH1 0x1 PUSH1 0x1 PUSH1 0xA0 SHL SUB DUP2 AND DUP2 EQ PUSH2 0x319 JUMPI PUSH1 0x0 DUP1 REVERT JUMPDEST POP JUMP INVALID LOG2 PUSH5 0x6970667358 0x22 SLT KECCAK256 0x2C 0xC9 0xE6 RETURNDATACOPY PUSH17 0x4B5FB65BBBC5C04F9EBC69A6771DC968D4 0x1F PUSH18 0xB0022539D7BD656864736F6C634300080400 CALLER LOG2 PUSH5 0x6970667358 0x22 SLT KECCAK256 0xAC LOG4 CHAINID 0xD AND SWAP2 0xC0 PUSH2 0x605F OR DIFFICULTY LOG3 OR 0x5E 0xD PUSH19 0xEA1AD41095D5249A2D991804922FDF64736F6C PUSH4 0x43000804 STOP CALLER "
				},
				"gasEstimates": {
					"creation": {
						"codeDepositCost": "2391600",
						"executionCost": "infinite",
						"totalCost": "infinite"
					},
					"external": {
						"addBet(address,address,uint256,uint8,string)": "infinite",
						"cancelMarket()": "21955",
						"eventAddress()": "1125",
						"getName()": "infinite",
						"hasSetWinningSide()": "1038",
						"isCanceled()": "1089",
						"name()": "infinite",
						"setWinningSide(string)": "infinite",
						"settlePair(address)": "infinite",
						"sideABets(uint256)": "3757",
						"sideAName()": "infinite",
						"sideATotalStake()": "1039",
						"sideAUsersStakes(address)": "1258",
						"sideBBets(uint256)": "3778",
						"sideBName()": "infinite",
						"sideBTotalStake()": "1063",
						"sideBUsersStakes(address)": "1280",
						"upadteMarket(string,string,string)": "infinite",
						"winningSide()": "infinite",
						"withdrawPending(address)": "infinite"
					},
					"internal": {
						"_addToSideA(address,address,uint256,uint8)": "infinite",
						"_addToSideB(address,address,uint256,uint8)": "infinite",
						"_matchSideABet(address,uint256,uint8)": "infinite",
						"_matchSideBBet(address,uint256,uint8)": "infinite"
					}
				},
				"methodIdentifiers": {
					"addBet(address,address,uint256,uint8,string)": "9bf5b845",
					"cancelMarket()": "6bfefd6b",
					"eventAddress()": "fad56779",
					"getName()": "17d7de7c",
					"hasSetWinningSide()": "bd92630c",
					"isCanceled()": "0ed5a933",
					"name()": "06fdde03",
					"setWinningSide(string)": "b40a4f05",
					"settlePair(address)": "2b4a3527",
					"sideABets(uint256)": "948fb24d",
					"sideAName()": "8eb1a4ad",
					"sideATotalStake()": "d37e2996",
					"sideAUsersStakes(address)": "3ab8781c",
					"sideBBets(uint256)": "e7c9a87f",
					"sideBName()": "a355f897",
					"sideBTotalStake()": "0b469bda",
					"sideBUsersStakes(address)": "5a358464",
					"upadteMarket(string,string,string)": "83bbe262",
					"winningSide()": "fbf06338",
					"withdrawPending(address)": "03afd56b"
				}
			},
			"storageLayout": {
				"storage": [
					{
						"astId": 967,
						"contract": "contracts/Market.sol:Market",
						"label": "web3betsAddress",
						"offset": 0,
						"slot": "0",
						"type": "t_address"
					},
					{
						"astId": 969,
						"contract": "contracts/Market.sol:Market",
						"label": "name",
						"offset": 0,
						"slot": "1",
						"type": "t_string_storage"
					},
					{
						"astId": 972,
						"contract": "contracts/Market.sol:Market",
						"label": "eventAddress",
						"offset": 0,
						"slot": "2",
						"type": "t_address"
					},
					{
						"astId": 975,
						"contract": "contracts/Market.sol:Market",
						"label": "hasSetWinningSide",
						"offset": 20,
						"slot": "2",
						"type": "t_bool"
					},
					{
						"astId": 978,
						"contract": "contracts/Market.sol:Market",
						"label": "winningSide",
						"offset": 0,
						"slot": "3",
						"type": "t_string_storage"
					},
					{
						"astId": 982,
						"contract": "contracts/Market.sol:Market",
						"label": "isCanceled",
						"offset": 0,
						"slot": "4",
						"type": "t_bool"
					},
					{
						"astId": 985,
						"contract": "contracts/Market.sol:Market",
						"label": "sideAName",
						"offset": 0,
						"slot": "5",
						"type": "t_string_storage"
					},
					{
						"astId": 989,
						"contract": "contracts/Market.sol:Market",
						"label": "sideATotalStake",
						"offset": 0,
						"slot": "6",
						"type": "t_uint256"
					},
					{
						"astId": 992,
						"contract": "contracts/Market.sol:Market",
						"label": "sideBName",
						"offset": 0,
						"slot": "7",
						"type": "t_string_storage"
					},
					{
						"astId": 996,
						"contract": "contracts/Market.sol:Market",
						"label": "sideBTotalStake",
						"offset": 0,
						"slot": "8",
						"type": "t_uint256"
					},
					{
						"astId": 1007,
						"contract": "contracts/Market.sol:Market",
						"label": "sideABets",
						"offset": 0,
						"slot": "9",
						"type": "t_array(t_struct(MarketBet)1003_storage)dyn_storage"
					},
					{
						"astId": 1011,
						"contract": "contracts/Market.sol:Market",
						"label": "sideABetsPending",
						"offset": 0,
						"slot": "10",
						"type": "t_array(t_struct(MarketBet)1003_storage)dyn_storage"
					},
					{
						"astId": 1015,
						"contract": "contracts/Market.sol:Market",
						"label": "sideBBets",
						"offset": 0,
						"slot": "11",
						"type": "t_array(t_struct(MarketBet)1003_storage)dyn_storage"
					},
					{
						"astId": 1019,
						"contract": "contracts/Market.sol:Market",
						"label": "sideBBetsPending",
						"offset": 0,
						"slot": "12",
						"type": "t_array(t_struct(MarketBet)1003_storage)dyn_storage"
					},
					{
						"astId": 1023,
						"contract": "contracts/Market.sol:Market",
						"label": "sideAUsersStakes",
						"offset": 0,
						"slot": "13",
						"type": "t_mapping(t_address,t_uint256)"
					},
					{
						"astId": 1027,
						"contract": "contracts/Market.sol:Market",
						"label": "sideBUsersStakes",
						"offset": 0,
						"slot": "14",
						"type": "t_mapping(t_address,t_uint256)"
					},
					{
						"astId": 1033,
						"contract": "contracts/Market.sol:Market",
						"label": "web3bets",
						"offset": 0,
						"slot": "15",
						"type": "t_contract(IWeb3BetsFO)2265"
					},
					{
						"astId": 1038,
						"contract": "contracts/Market.sol:Market",
						"label": "stableCoin",
						"offset": 0,
						"slot": "16",
						"type": "t_address"
					},
					{
						"astId": 1044,
						"contract": "contracts/Market.sol:Market",
						"label": "_stableCoinWrapper",
						"offset": 0,
						"slot": "17",
						"type": "t_contract(IERC20)77"
					}
				],
				"types": {
					"t_address": {
						"encoding": "inplace",
						"label": "address",
						"numberOfBytes": "20"
					},
					"t_array(t_struct(MarketBet)1003_storage)dyn_storage": {
						"base": "t_struct(MarketBet)1003_storage",
						"encoding": "dynamic_array",
						"label": "struct Market.MarketBet[]",
						"numberOfBytes": "32"
					},
					"t_bool": {
						"encoding": "inplace",
						"label": "bool",
						"numberOfBytes": "1"
					},
					"t_contract(IERC20)77": {
						"encoding": "inplace",
						"label": "contract IERC20",
						"numberOfBytes": "20"
					},
					"t_contract(IWeb3BetsFO)2265": {
						"encoding": "inplace",
						"label": "contract IWeb3BetsFO",
						"numberOfBytes": "20"
					},
					"t_mapping(t_address,t_uint256)": {
						"encoding": "mapping",
						"key": "t_address",
						"label": "mapping(address => uint256)",
						"numberOfBytes": "32",
						"value": "t_uint256"
					},
					"t_string_storage": {
						"encoding": "bytes",
						"label": "string",
						"numberOfBytes": "32"
					},
					"t_struct(MarketBet)1003_storage": {
						"encoding": "inplace",
						"label": "struct Market.MarketBet",
						"members": [
							{
								"astId": 998,
								"contract": "contracts/Market.sol:Market",
								"label": "betAddress",
								"offset": 0,
								"slot": "0",
								"type": "t_address"
							},
							{
								"astId": 1000,
								"contract": "contracts/Market.sol:Market",
								"label": "stake",
								"offset": 0,
								"slot": "1",
								"type": "t_uint256"
							},
							{
								"astId": 1002,
								"contract": "contracts/Market.sol:Market",
								"label": "odds",
								"offset": 0,
								"slot": "2",
								"type": "t_uint8"
							}
						],
						"numberOfBytes": "96"
					},
					"t_uint256": {
						"encoding": "inplace",
						"label": "uint256",
						"numberOfBytes": "32"
					},
					"t_uint8": {
						"encoding": "inplace",
						"label": "uint8",
						"numberOfBytes": "1"
					}
				}
			},
			"userdoc": {
				"kind": "user",
				"methods": {},
				"version": 1
			}
		}
	}
}