{
	"contracts/Event.sol": {
		"Event": {
			"abi": [
				{
					"inputs": [
						{
							"internalType": "address",
							"name": "caller_",
							"type": "address"
						},
						{
							"internalType": "string",
							"name": "eventTitle_",
							"type": "string"
						},
						{
							"internalType": "uint256",
							"name": "startTime_",
							"type": "uint256"
						},
						{
							"internalType": "uint256",
							"name": "minimumStake_",
							"type": "uint256"
						}
					],
					"stateMutability": "nonpayable",
					"type": "constructor"
				},
				{
					"inputs": [
						{
							"internalType": "address",
							"name": "_marketAddress",
							"type": "address"
						}
					],
					"name": "addMarket",
					"outputs": [
						{
							"internalType": "bool",
							"name": "",
							"type": "bool"
						}
					],
					"stateMutability": "nonpayable",
					"type": "function"
				},
				{
					"inputs": [],
					"name": "cancelEvent",
					"outputs": [
						{
							"internalType": "bool",
							"name": "",
							"type": "bool"
						}
					],
					"stateMutability": "nonpayable",
					"type": "function"
				},
				{
					"inputs": [],
					"name": "endEvent",
					"outputs": [
						{
							"internalType": "bool",
							"name": "",
							"type": "bool"
						}
					],
					"stateMutability": "nonpayable",
					"type": "function"
				},
				{
					"inputs": [],
					"name": "eventOwner",
					"outputs": [
						{
							"internalType": "address",
							"name": "",
							"type": "address"
						}
					],
					"stateMutability": "view",
					"type": "function"
				},
				{
					"inputs": [],
					"name": "getEventOwner",
					"outputs": [
						{
							"internalType": "address",
							"name": "",
							"type": "address"
						}
					],
					"stateMutability": "view",
					"type": "function"
				},
				{
					"inputs": [],
					"name": "getEventStatus",
					"outputs": [
						{
							"internalType": "enum IEvent.EventStatus",
							"name": "",
							"type": "uint8"
						}
					],
					"stateMutability": "view",
					"type": "function"
				},
				{
					"inputs": [],
					"name": "getMarkets",
					"outputs": [
						{
							"internalType": "address[]",
							"name": "",
							"type": "address[]"
						}
					],
					"stateMutability": "view",
					"type": "function"
				},
				{
					"inputs": [],
					"name": "getMinimumStake",
					"outputs": [
						{
							"internalType": "uint256",
							"name": "",
							"type": "uint256"
						}
					],
					"stateMutability": "view",
					"type": "function"
				},
				{
					"inputs": [],
					"name": "getName",
					"outputs": [
						{
							"internalType": "string",
							"name": "",
							"type": "string"
						}
					],
					"stateMutability": "view",
					"type": "function"
				},
				{
					"inputs": [
						{
							"internalType": "uint256",
							"name": "",
							"type": "uint256"
						}
					],
					"name": "markets",
					"outputs": [
						{
							"internalType": "address",
							"name": "",
							"type": "address"
						}
					],
					"stateMutability": "view",
					"type": "function"
				},
				{
					"inputs": [],
					"name": "minimumStake",
					"outputs": [
						{
							"internalType": "uint256",
							"name": "",
							"type": "uint256"
						}
					],
					"stateMutability": "view",
					"type": "function"
				},
				{
					"inputs": [],
					"name": "name",
					"outputs": [
						{
							"internalType": "string",
							"name": "",
							"type": "string"
						}
					],
					"stateMutability": "view",
					"type": "function"
				},
				{
					"inputs": [
						{
							"internalType": "uint256",
							"name": "_startTime",
							"type": "uint256"
						}
					],
					"name": "postponeEvent",
					"outputs": [
						{
							"internalType": "bool",
							"name": "",
							"type": "bool"
						}
					],
					"stateMutability": "nonpayable",
					"type": "function"
				},
				{
					"inputs": [],
					"name": "startEvent",
					"outputs": [
						{
							"internalType": "bool",
							"name": "",
							"type": "bool"
						}
					],
					"stateMutability": "nonpayable",
					"type": "function"
				},
				{
					"inputs": [],
					"name": "startTime",
					"outputs": [
						{
							"internalType": "uint256",
							"name": "",
							"type": "uint256"
						}
					],
					"stateMutability": "view",
					"type": "function"
				},
				{
					"inputs": [],
					"name": "status",
					"outputs": [
						{
							"internalType": "enum IEvent.EventStatus",
							"name": "",
							"type": "uint8"
						}
					],
					"stateMutability": "view",
					"type": "function"
				},
				{
					"inputs": [
						{
							"internalType": "string",
							"name": "_eventTitle",
							"type": "string"
						}
					],
					"name": "updateName",
					"outputs": [
						{
							"internalType": "bool",
							"name": "",
							"type": "bool"
						}
					],
					"stateMutability": "nonpayable",
					"type": "function"
				}
			],
			"devdoc": {
				"kind": "dev",
				"methods": {},
				"version": 1
			},
			"evm": {
				"assembly": "    /* \"contracts/Event.sol\":164:4487  contract Event is IEvent {... */\n  mstore(0x40, 0x80)\n    /* \"contracts/Event.sol\":506:521  web3betsAddress */\n  sload(0x00)\n    /* \"contracts/Event.sol\":463:522  IWeb3BetsFO private web3bets = IWeb3BetsFO(web3betsAddress) */\n  0x06\n  dup1\n  sload\n  sub(shl(0xa0, 0x01), 0x01)\n    /* \"contracts/Event.sol\":506:521  web3betsAddress */\n  swap1\n  swap3\n  and\n  0x0100\n    /* \"contracts/Event.sol\":463:522  IWeb3BetsFO private web3bets = IWeb3BetsFO(web3betsAddress) */\n  mul\n  not(sub(shl(0xa8, 0x01), 0x0100))\n  swap1\n  swap3\n  and\n  swap2\n  swap1\n  swap2\n  or\n  swap1\n  sstore\n    /* \"contracts/Event.sol\":662:1097  constructor(... */\n  callvalue\n  dup1\n  iszero\n  tag_1\n  jumpi\n  0x00\n  dup1\n  revert\ntag_1:\n  pop\n  mload(0x40)\n  sub(codesize, bytecodeSize)\n  dup1\n  bytecodeSize\n  dup4\n  codecopy\n  dup2\n  add\n  0x40\n  dup2\n  swap1\n  mstore\n  tag_2\n  swap2\n  tag_3\n  jump\t// in\ntag_2:\n    /* \"contracts/Event.sol\":831:839  web3bets */\n  0x06\n  0x01\n  swap1\n  sload\n  swap1\n  0x0100\n  exp\n  swap1\n  div\n  sub(shl(0xa0, 0x01), 0x01)\n  and\n  sub(shl(0xa0, 0x01), 0x01)\n    /* \"contracts/Event.sol\":831:847  web3bets.factory */\n  and\n  0xc45a0155\n    /* \"contracts/Event.sol\":831:849  web3bets.factory() */\n  mload(0x40)\n  dup2\n  0xffffffff\n  and\n  0xe0\n  shl\n  dup2\n  mstore\n  0x04\n  add\n  0x20\n  mload(0x40)\n  dup1\n  dup4\n  sub\n  dup2\n  dup7\n  dup1\n  extcodesize\n  iszero\n  dup1\n  iszero\n  tag_6\n  jumpi\n  0x00\n  dup1\n  revert\ntag_6:\n  pop\n  gas\n  staticcall\n  iszero\n  dup1\n  iszero\n  tag_8\n  jumpi\n  returndatasize\n  0x00\n  dup1\n  returndatacopy\n  revert(0x00, returndatasize)\ntag_8:\n  pop\n  pop\n  pop\n  pop\n  mload(0x40)\n  returndatasize\n  not(0x1f)\n  0x1f\n  dup3\n  add\n  and\n  dup3\n  add\n  dup1\n  0x40\n  mstore\n  pop\n  dup2\n  add\n  swap1\n  tag_9\n  swap2\n  swap1\n  tag_10\n  jump\t// in\ntag_9:\n  sub(shl(0xa0, 0x01), 0x01)\n    /* \"contracts/Event.sol\":817:849  msg.sender == web3bets.factory() */\n  and\n    /* \"contracts/Event.sol\":817:827  msg.sender */\n  caller\n  sub(shl(0xa0, 0x01), 0x01)\n    /* \"contracts/Event.sol\":817:849  msg.sender == web3bets.factory() */\n  and\n  eq\n    /* \"contracts/Event.sol\":809:859  require(msg.sender == web3bets.factory(), \"fty o\") */\n  tag_11\n  jumpi\n  mload(0x40)\n  shl(0xe5, 0x461bcd)\n  dup2\n  mstore\n    /* \"#utility.yul\":1971:1973   */\n  0x20\n    /* \"contracts/Event.sol\":809:859  require(msg.sender == web3bets.factory(), \"fty o\") */\n  0x04\n  dup3\n  add\n    /* \"#utility.yul\":1953:1974   */\n  mstore\n    /* \"#utility.yul\":2010:2011   */\n  0x05\n    /* \"#utility.yul\":1990:2008   */\n  0x24\n  dup3\n  add\n    /* \"#utility.yul\":1983:2012   */\n  mstore\n  shl(0xd8, 0x667479206f)\n    /* \"#utility.yul\":2028:2046   */\n  0x44\n  dup3\n  add\n    /* \"#utility.yul\":2021:2056   */\n  mstore\n    /* \"#utility.yul\":2073:2091   */\n  0x64\n  add\n    /* \"contracts/Event.sol\":809:859  require(msg.sender == web3bets.factory(), \"fty o\") */\ntag_12:\n  mload(0x40)\n  dup1\n  swap2\n  sub\n  swap1\n  revert\ntag_11:\n    /* \"contracts/Event.sol\":360:368  10 ** 18 */\n  0x0de0b6b3a7640000\n    /* \"contracts/Event.sol\":877:890  minimumStake_ */\n  dup2\n    /* \"contracts/Event.sol\":877:907  minimumStake_ >= MINIMUM_STAKE */\n  lt\n  iszero\n    /* \"contracts/Event.sol\":869:923  require(minimumStake_ >= MINIMUM_STAKE, \"x min stake\") */\n  tag_14\n  jumpi\n  mload(0x40)\n  shl(0xe5, 0x461bcd)\n  dup2\n  mstore\n    /* \"#utility.yul\":2304:2306   */\n  0x20\n    /* \"contracts/Event.sol\":869:923  require(minimumStake_ >= MINIMUM_STAKE, \"x min stake\") */\n  0x04\n  dup3\n  add\n    /* \"#utility.yul\":2286:2307   */\n  mstore\n    /* \"#utility.yul\":2343:2345   */\n  0x0b\n    /* \"#utility.yul\":2323:2341   */\n  0x24\n  dup3\n  add\n    /* \"#utility.yul\":2316:2346   */\n  mstore\n  shl(0xa8, 0x78206d696e207374616b65)\n    /* \"#utility.yul\":2362:2380   */\n  0x44\n  dup3\n  add\n    /* \"#utility.yul\":2355:2396   */\n  mstore\n    /* \"#utility.yul\":2413:2431   */\n  0x64\n  add\n    /* \"contracts/Event.sol\":869:923  require(minimumStake_ >= MINIMUM_STAKE, \"x min stake\") */\n  tag_12\n    /* \"#utility.yul\":2276:2437   */\n  jump\n    /* \"contracts/Event.sol\":869:923  require(minimumStake_ >= MINIMUM_STAKE, \"x min stake\") */\ntag_14:\n    /* \"contracts/Event.sol\":933:951  name = eventTitle_ */\n  dup3\n  mload\n  tag_17\n  swap1\n    /* \"contracts/Event.sol\":933:937  name */\n  0x05\n  swap1\n    /* \"contracts/Event.sol\":933:951  name = eventTitle_ */\n  0x20\n  dup7\n  add\n  swap1\n  tag_18\n  jump\t// in\ntag_17:\n  pop\n    /* \"contracts/Event.sol\":961:971  eventOwner */\n  0x01\n    /* \"contracts/Event.sol\":961:981  eventOwner = caller_ */\n  dup1\n  sload\n  not(sub(shl(0xa0, 0x01), 0x01))\n  and\n  sub(shl(0xa0, 0x01), 0x01)\n  swap6\n  swap1\n  swap6\n  and\n  swap5\n  swap1\n  swap5\n  or\n  swap1\n  swap4\n  sstore\n    /* \"contracts/Event.sol\":991:1000  startTime */\n  0x02\n    /* \"contracts/Event.sol\":991:1013  startTime = startTime_ */\n  sstore\n  pop\n    /* \"contracts/Event.sol\":1023:1035  minimumStake */\n  0x03\n    /* \"contracts/Event.sol\":1023:1051  minimumStake = minimumStake_ */\n  sstore\n    /* \"contracts/Event.sol\":1061:1067  status */\n  0x06\n    /* \"contracts/Event.sol\":1061:1090  status = EventStatus.UPCOMING */\n  dup1\n  sload\n  not(0xff)\n  and\n  swap1\n  sstore\n    /* \"contracts/Event.sol\":164:4487  contract Event is IEvent {... */\n  jump(tag_32)\ntag_18:\n  dup3\n  dup1\n  sload\n  tag_21\n  swap1\n  tag_22\n  jump\t// in\ntag_21:\n  swap1\n  0x00\n  mstore\n  keccak256(0x00, 0x20)\n  swap1\n  0x1f\n  add\n  0x20\n  swap1\n  div\n  dup2\n  add\n  swap3\n  dup3\n  tag_24\n  jumpi\n  0x00\n  dup6\n  sstore\n  jump(tag_27)\ntag_24:\n  dup3\n  0x1f\n  lt\n  tag_25\n  jumpi\n  dup1\n  mload\n  not(0xff)\n  and\n  dup4\n  dup1\n  add\n  or\n  dup6\n  sstore\n  jump(tag_27)\ntag_25:\n  dup3\n  dup1\n  add\n  0x01\n  add\n  dup6\n  sstore\n  dup3\n  iszero\n  tag_27\n  jumpi\n  swap2\n  dup3\n  add\ntag_26:\n  dup3\n  dup2\n  gt\n  iszero\n  tag_27\n  jumpi\n  dup3\n  mload\n  dup3\n  sstore\n  swap2\n  0x20\n  add\n  swap2\n  swap1\n  0x01\n  add\n  swap1\n  jump(tag_26)\ntag_27:\n  pop\n  tag_28\n  swap3\n  swap2\n  pop\n  tag_29\n  jump\t// in\ntag_28:\n  pop\n  swap1\n  jump\t// out\ntag_29:\ntag_30:\n  dup1\n  dup3\n  gt\n  iszero\n  tag_28\n  jumpi\n  0x00\n  dup2\n  sstore\n  0x01\n  add\n  jump(tag_30)\n    /* \"#utility.yul\":14:191   */\ntag_33:\n    /* \"#utility.yul\":93:106   */\n  dup1\n  mload\n  sub(shl(0xa0, 0x01), 0x01)\n    /* \"#utility.yul\":135:166   */\n  dup2\n  and\n    /* \"#utility.yul\":125:167   */\n  dup2\n  eq\n    /* \"#utility.yul\":115:117   */\n  tag_35\n  jumpi\n    /* \"#utility.yul\":181:182   */\n  0x00\n    /* \"#utility.yul\":178:179   */\n  dup1\n    /* \"#utility.yul\":171:183   */\n  revert\n    /* \"#utility.yul\":115:117   */\ntag_35:\n    /* \"#utility.yul\":74:191   */\n  swap2\n  swap1\n  pop\n  jump\t// out\n    /* \"#utility.yul\":196:414   */\ntag_10:\n    /* \"#utility.yul\":266:272   */\n  0x00\n    /* \"#utility.yul\":319:321   */\n  0x20\n    /* \"#utility.yul\":307:316   */\n  dup3\n    /* \"#utility.yul\":298:305   */\n  dup5\n    /* \"#utility.yul\":294:317   */\n  sub\n    /* \"#utility.yul\":290:322   */\n  slt\n    /* \"#utility.yul\":287:289   */\n  iszero\n  tag_37\n  jumpi\n    /* \"#utility.yul\":340:346   */\n  dup1\n    /* \"#utility.yul\":332:338   */\n  dup2\n    /* \"#utility.yul\":325:347   */\n  revert\n    /* \"#utility.yul\":287:289   */\ntag_37:\n    /* \"#utility.yul\":368:408   */\n  tag_38\n    /* \"#utility.yul\":398:407   */\n  dup3\n    /* \"#utility.yul\":368:408   */\n  tag_33\n  jump\t// in\ntag_38:\n    /* \"#utility.yul\":358:408   */\n  swap4\n    /* \"#utility.yul\":277:414   */\n  swap3\n  pop\n  pop\n  pop\n  jump\t// out\n    /* \"#utility.yul\":419:1764   */\ntag_3:\n    /* \"#utility.yul\":526:532   */\n  0x00\n    /* \"#utility.yul\":534:540   */\n  dup1\n    /* \"#utility.yul\":542:548   */\n  0x00\n    /* \"#utility.yul\":550:556   */\n  dup1\n    /* \"#utility.yul\":603:606   */\n  0x80\n    /* \"#utility.yul\":591:600   */\n  dup6\n    /* \"#utility.yul\":582:589   */\n  dup8\n    /* \"#utility.yul\":578:601   */\n  sub\n    /* \"#utility.yul\":574:607   */\n  slt\n    /* \"#utility.yul\":571:573   */\n  iszero\n  tag_40\n  jumpi\n    /* \"#utility.yul\":625:631   */\n  dup3\n    /* \"#utility.yul\":617:623   */\n  dup4\n    /* \"#utility.yul\":610:632   */\n  revert\n    /* \"#utility.yul\":571:573   */\ntag_40:\n    /* \"#utility.yul\":653:693   */\n  tag_41\n    /* \"#utility.yul\":683:692   */\n  dup6\n    /* \"#utility.yul\":653:693   */\n  tag_33\n  jump\t// in\ntag_41:\n    /* \"#utility.yul\":712:714   */\n  0x20\n    /* \"#utility.yul\":743:761   */\n  dup7\n  dup2\n  add\n    /* \"#utility.yul\":737:762   */\n  mload\n    /* \"#utility.yul\":643:693   */\n  swap2\n  swap6\n  pop\n    /* \"#utility.yul\":712:714   */\n  swap1\n  sub(shl(0x40, 0x01), 0x01)\n    /* \"#utility.yul\":811:825   */\n  dup1\n  dup3\n  gt\n    /* \"#utility.yul\":808:810   */\n  iszero\n  tag_42\n  jumpi\n    /* \"#utility.yul\":843:849   */\n  dup6\n    /* \"#utility.yul\":835:841   */\n  dup7\n    /* \"#utility.yul\":828:850   */\n  revert\n    /* \"#utility.yul\":808:810   */\ntag_42:\n    /* \"#utility.yul\":886:892   */\n  dup2\n    /* \"#utility.yul\":875:884   */\n  dup9\n    /* \"#utility.yul\":871:893   */\n  add\n    /* \"#utility.yul\":861:893   */\n  swap2\n  pop\n    /* \"#utility.yul\":931:938   */\n  dup9\n    /* \"#utility.yul\":924:928   */\n  0x1f\n    /* \"#utility.yul\":920:922   */\n  dup4\n    /* \"#utility.yul\":916:929   */\n  add\n    /* \"#utility.yul\":912:939   */\n  slt\n    /* \"#utility.yul\":902:904   */\n  tag_43\n  jumpi\n    /* \"#utility.yul\":958:964   */\n  dup6\n    /* \"#utility.yul\":950:956   */\n  dup7\n    /* \"#utility.yul\":943:965   */\n  revert\n    /* \"#utility.yul\":902:904   */\ntag_43:\n    /* \"#utility.yul\":992:994   */\n  dup2\n    /* \"#utility.yul\":986:995   */\n  mload\n    /* \"#utility.yul\":1014:1016   */\n  dup2\n    /* \"#utility.yul\":1010:1012   */\n  dup2\n    /* \"#utility.yul\":1007:1017   */\n  gt\n    /* \"#utility.yul\":1004:1006   */\n  iszero\n  tag_45\n  jumpi\n    /* \"#utility.yul\":1020:1038   */\n  tag_45\n  tag_46\n  jump\t// in\ntag_45:\n    /* \"#utility.yul\":1095:1097   */\n  0x40\n    /* \"#utility.yul\":1089:1098   */\n  mload\n    /* \"#utility.yul\":1063:1065   */\n  0x1f\n    /* \"#utility.yul\":1149:1162   */\n  dup3\n  add\n  not(0x1f)\n    /* \"#utility.yul\":1145:1167   */\n  swap1\n  dup2\n  and\n    /* \"#utility.yul\":1169:1171   */\n  0x3f\n    /* \"#utility.yul\":1141:1172   */\n  add\n    /* \"#utility.yul\":1137:1177   */\n  and\n    /* \"#utility.yul\":1125:1178   */\n  dup2\n  add\n  swap1\n    /* \"#utility.yul\":1193:1211   */\n  dup4\n  dup3\n  gt\n    /* \"#utility.yul\":1213:1235   */\n  dup2\n  dup4\n  lt\n    /* \"#utility.yul\":1190:1236   */\n  or\n    /* \"#utility.yul\":1187:1189   */\n  iszero\n  tag_48\n  jumpi\n    /* \"#utility.yul\":1239:1257   */\n  tag_48\n  tag_46\n  jump\t// in\ntag_48:\n    /* \"#utility.yul\":1279:1289   */\n  dup2\n    /* \"#utility.yul\":1275:1277   */\n  0x40\n    /* \"#utility.yul\":1268:1290   */\n  mstore\n    /* \"#utility.yul\":1314:1316   */\n  dup3\n    /* \"#utility.yul\":1306:1312   */\n  dup2\n    /* \"#utility.yul\":1299:1317   */\n  mstore\n    /* \"#utility.yul\":1354:1361   */\n  dup12\n    /* \"#utility.yul\":1349:1351   */\n  dup7\n    /* \"#utility.yul\":1344:1346   */\n  dup5\n    /* \"#utility.yul\":1340:1342   */\n  dup8\n    /* \"#utility.yul\":1336:1347   */\n  add\n    /* \"#utility.yul\":1332:1352   */\n  add\n    /* \"#utility.yul\":1329:1362   */\n  gt\n    /* \"#utility.yul\":1326:1328   */\n  iszero\n  tag_49\n  jumpi\n    /* \"#utility.yul\":1380:1386   */\n  dup9\n    /* \"#utility.yul\":1372:1378   */\n  dup10\n    /* \"#utility.yul\":1365:1387   */\n  revert\n    /* \"#utility.yul\":1326:1328   */\ntag_49:\n    /* \"#utility.yul\":1407:1413   */\n  dup9\n    /* \"#utility.yul\":1398:1413   */\n  swap4\n  pop\n    /* \"#utility.yul\":1422:1551   */\ntag_50:\n    /* \"#utility.yul\":1436:1438   */\n  dup3\n    /* \"#utility.yul\":1433:1434   */\n  dup5\n    /* \"#utility.yul\":1430:1439   */\n  lt\n    /* \"#utility.yul\":1422:1551   */\n  iszero\n  tag_52\n  jumpi\n    /* \"#utility.yul\":1524:1534   */\n  dup5\n  dup5\n  add\n    /* \"#utility.yul\":1520:1539   */\n  dup7\n  add\n    /* \"#utility.yul\":1514:1540   */\n  mload\n    /* \"#utility.yul\":1493:1507   */\n  dup2\n  dup6\n  add\n    /* \"#utility.yul\":1489:1512   */\n  dup8\n  add\n    /* \"#utility.yul\":1482:1541   */\n  mstore\n    /* \"#utility.yul\":1447:1457   */\n  swap3\n  dup6\n  add\n  swap3\n    /* \"#utility.yul\":1422:1551   */\n  jump(tag_50)\ntag_52:\n    /* \"#utility.yul\":1569:1571   */\n  dup3\n    /* \"#utility.yul\":1566:1567   */\n  dup5\n    /* \"#utility.yul\":1563:1572   */\n  gt\n    /* \"#utility.yul\":1560:1562   */\n  iszero\n  tag_53\n  jumpi\n    /* \"#utility.yul\":1628:1634   */\n  dup9\n    /* \"#utility.yul\":1623:1625   */\n  dup7\n    /* \"#utility.yul\":1618:1620   */\n  dup5\n    /* \"#utility.yul\":1610:1616   */\n  dup4\n    /* \"#utility.yul\":1606:1621   */\n  add\n    /* \"#utility.yul\":1602:1626   */\n  add\n    /* \"#utility.yul\":1595:1635   */\n  mstore\n    /* \"#utility.yul\":1560:1562   */\ntag_53:\n    /* \"#utility.yul\":1710:1712   */\n  0x40\n    /* \"#utility.yul\":1695:1713   */\n  dup12\n  add\n    /* \"#utility.yul\":1689:1714   */\n  mload\n    /* \"#utility.yul\":1754:1756   */\n  0x60\n    /* \"#utility.yul\":1739:1757   */\n  swap1\n  swap12\n  add\n    /* \"#utility.yul\":1733:1758   */\n  mload\n    /* \"#utility.yul\":561:1764   */\n  swap10\n  swap13\n    /* \"#utility.yul\":1664:1670   */\n  swap1\n  swap12\n  pop\n    /* \"#utility.yul\":561:1764   */\n  swap8\n  pop\n  pop\n  pop\n  pop\n  pop\n  pop\n  pop\n  pop\n  jump\t// out\n    /* \"#utility.yul\":2442:2822   */\ntag_22:\n    /* \"#utility.yul\":2521:2522   */\n  0x01\n    /* \"#utility.yul\":2517:2529   */\n  dup2\n  dup2\n  shr\n  swap1\n    /* \"#utility.yul\":2564:2576   */\n  dup3\n  and\n  dup1\n    /* \"#utility.yul\":2585:2587   */\n  tag_57\n  jumpi\n    /* \"#utility.yul\":2639:2643   */\n  0x7f\n    /* \"#utility.yul\":2631:2637   */\n  dup3\n    /* \"#utility.yul\":2627:2644   */\n  and\n    /* \"#utility.yul\":2617:2644   */\n  swap2\n  pop\n    /* \"#utility.yul\":2585:2587   */\ntag_57:\n    /* \"#utility.yul\":2692:2694   */\n  0x20\n    /* \"#utility.yul\":2684:2690   */\n  dup3\n    /* \"#utility.yul\":2681:2695   */\n  lt\n    /* \"#utility.yul\":2661:2679   */\n  dup2\n    /* \"#utility.yul\":2658:2696   */\n  eq\n    /* \"#utility.yul\":2655:2657   */\n  iszero\n  tag_58\n  jumpi\n    /* \"#utility.yul\":2738:2748   */\n  0x4e487b71\n    /* \"#utility.yul\":2733:2736   */\n  0xe0\n    /* \"#utility.yul\":2729:2749   */\n  shl\n    /* \"#utility.yul\":2726:2727   */\n  0x00\n    /* \"#utility.yul\":2719:2750   */\n  mstore\n    /* \"#utility.yul\":2773:2777   */\n  0x22\n    /* \"#utility.yul\":2770:2771   */\n  0x04\n    /* \"#utility.yul\":2763:2778   */\n  mstore\n    /* \"#utility.yul\":2801:2805   */\n  0x24\n    /* \"#utility.yul\":2798:2799   */\n  0x00\n    /* \"#utility.yul\":2791:2806   */\n  revert\n    /* \"#utility.yul\":2655:2657   */\ntag_58:\n  pop\n    /* \"#utility.yul\":2497:2822   */\n  swap2\n  swap1\n  pop\n  jump\t// out\n    /* \"#utility.yul\":2827:2954   */\ntag_46:\n    /* \"#utility.yul\":2888:2898   */\n  0x4e487b71\n    /* \"#utility.yul\":2883:2886   */\n  0xe0\n    /* \"#utility.yul\":2879:2899   */\n  shl\n    /* \"#utility.yul\":2876:2877   */\n  0x00\n    /* \"#utility.yul\":2869:2900   */\n  mstore\n    /* \"#utility.yul\":2919:2923   */\n  0x41\n    /* \"#utility.yul\":2916:2917   */\n  0x04\n    /* \"#utility.yul\":2909:2924   */\n  mstore\n    /* \"#utility.yul\":2943:2947   */\n  0x24\n    /* \"#utility.yul\":2940:2941   */\n  0x00\n    /* \"#utility.yul\":2933:2948   */\n  revert\n    /* \"#utility.yul\":2859:2954   */\ntag_32:\n    /* \"contracts/Event.sol\":164:4487  contract Event is IEvent {... */\n  dataSize(sub_0)\n  dup1\n  dataOffset(sub_0)\n  0x00\n  codecopy\n  0x00\n  return\nstop\n\nsub_0: assembly {\n        /* \"contracts/Event.sol\":164:4487  contract Event is IEvent {... */\n      mstore(0x40, 0x80)\n      callvalue\n      dup1\n      iszero\n      tag_1\n      jumpi\n      0x00\n      dup1\n      revert\n    tag_1:\n      pop\n      jumpi(tag_2, lt(calldatasize, 0x04))\n      shr(0xe0, calldataload(0x00))\n      dup1\n      0x93e30633\n      gt\n      tag_20\n      jumpi\n      dup1\n      0xd9bbd278\n      gt\n      tag_21\n      jumpi\n      dup1\n      0xd9bbd278\n      eq\n      tag_15\n      jumpi\n      dup1\n      0xe2fd38e9\n      eq\n      tag_16\n      jumpi\n      dup1\n      0xec2c9016\n      eq\n      tag_17\n      jumpi\n      dup1\n      0xec5ffac2\n      eq\n      tag_18\n      jumpi\n      dup1\n      0xfb6c9537\n      eq\n      tag_19\n      jumpi\n      0x00\n      dup1\n      revert\n    tag_21:\n      dup1\n      0x93e30633\n      eq\n      tag_11\n      jumpi\n      dup1\n      0xb1283e77\n      eq\n      tag_12\n      jumpi\n      dup1\n      0xb75b25ec\n      eq\n      tag_13\n      jumpi\n      dup1\n      0xbc508ff4\n      eq\n      tag_14\n      jumpi\n      0x00\n      dup1\n      revert\n    tag_20:\n      dup1\n      0x20214134\n      gt\n      tag_22\n      jumpi\n      dup1\n      0x20214134\n      eq\n      tag_7\n      jumpi\n      dup1\n      0x78e97925\n      eq\n      tag_8\n      jumpi\n      dup1\n      0x84da92a7\n      eq\n      tag_9\n      jumpi\n      dup1\n      0x86ec6177\n      eq\n      tag_10\n      jumpi\n      0x00\n      dup1\n      revert\n    tag_22:\n      dup1\n      0x06fdde03\n      eq\n      tag_3\n      jumpi\n      dup1\n      0x179f907d\n      eq\n      tag_4\n      jumpi\n      dup1\n      0x17d7de7c\n      eq\n      tag_5\n      jumpi\n      dup1\n      0x200d2ed2\n      eq\n      tag_6\n      jumpi\n    tag_2:\n      0x00\n      dup1\n      revert\n        /* \"contracts/Event.sol\":406:424  string public name */\n    tag_3:\n      tag_23\n      tag_24\n      jump\t// in\n    tag_23:\n      mload(0x40)\n      tag_25\n      swap2\n      swap1\n      tag_26\n      jump\t// in\n    tag_25:\n      mload(0x40)\n      dup1\n      swap2\n      sub\n      swap1\n      return\n        /* \"contracts/Event.sol\":3240:3340  function getEventOwner() external view override returns (address) {... */\n    tag_4:\n        /* \"contracts/Event.sol\":3323:3333  eventOwner */\n      and(sub(shl(0xa0, 0x01), 0x01), sload(0x01))\n        /* \"contracts/Event.sol\":3240:3340  function getEventOwner() external view override returns (address) {... */\n    tag_27:\n      mload(0x40)\n      sub(shl(0xa0, 0x01), 0x01)\n        /* \"#utility.yul\":1958:1990   */\n      swap1\n      swap2\n      and\n        /* \"#utility.yul\":1940:1991   */\n      dup2\n      mstore\n        /* \"#utility.yul\":1928:1930   */\n      0x20\n        /* \"#utility.yul\":1913:1931   */\n      add\n        /* \"contracts/Event.sol\":3240:3340  function getEventOwner() external view override returns (address) {... */\n      tag_25\n        /* \"#utility.yul\":1895:1997   */\n      jump\n        /* \"contracts/Event.sol\":1103:1195  function getName() public view override returns (string memory) {... */\n    tag_5:\n      tag_23\n      tag_32\n      jump\t// in\n        /* \"contracts/Event.sol\":431:456  EventStatus public status */\n    tag_6:\n      sload(0x06)\n      tag_34\n      swap1\n      0xff\n      and\n      dup2\n      jump\n    tag_34:\n      mload(0x40)\n      tag_25\n      swap2\n      swap1\n      tag_37\n      jump\t// in\n        /* \"contracts/Event.sol\":233:258  address public eventOwner */\n    tag_7:\n      sload(0x01)\n      tag_27\n      swap1\n      sub(shl(0xa0, 0x01), 0x01)\n      and\n      dup2\n      jump\n        /* \"contracts/Event.sol\":265:289  uint256 public startTime */\n    tag_8:\n      tag_41\n      sload(0x02)\n      dup2\n      jump\n    tag_41:\n      mload(0x40)\n        /* \"#utility.yul\":6005:6030   */\n      swap1\n      dup2\n      mstore\n        /* \"#utility.yul\":5993:5995   */\n      0x20\n        /* \"#utility.yul\":5978:5996   */\n      add\n        /* \"contracts/Event.sol\":265:289  uint256 public startTime */\n      tag_25\n        /* \"#utility.yul\":5960:6036   */\n      jump\n        /* \"contracts/Event.sol\":2037:2183  function updateName(string memory _eventTitle) external override onlyOwner  returns(bool) {... */\n    tag_9:\n      tag_45\n      tag_46\n      calldatasize\n      0x04\n      tag_47\n      jump\t// in\n    tag_46:\n      tag_48\n      jump\t// in\n    tag_45:\n      mload(0x40)\n        /* \"#utility.yul\":2833:2847   */\n      swap1\n      iszero\n        /* \"#utility.yul\":2826:2848   */\n      iszero\n        /* \"#utility.yul\":2808:2849   */\n      dup2\n      mstore\n        /* \"#utility.yul\":2796:2798   */\n      0x20\n        /* \"#utility.yul\":2781:2799   */\n      add\n        /* \"contracts/Event.sol\":2037:2183  function updateName(string memory _eventTitle) external override onlyOwner  returns(bool) {... */\n      tag_25\n        /* \"#utility.yul\":2763:2855   */\n      jump\n        /* \"contracts/Event.sol\":3346:3946  function endEvent() external override onlyOwner  returns(bool) {... */\n    tag_10:\n      tag_45\n      tag_52\n      jump\t// in\n        /* \"contracts/Event.sol\":1775:2031  function addMarket(address _marketAddress)... */\n    tag_11:\n      tag_45\n      tag_55\n      calldatasize\n      0x04\n      tag_56\n      jump\t// in\n    tag_55:\n      tag_57\n      jump\t// in\n        /* \"contracts/Event.sol\":375:399  address[] public markets */\n    tag_12:\n      tag_27\n      tag_60\n      calldatasize\n      0x04\n      tag_61\n      jump\t// in\n    tag_60:\n      tag_62\n      jump\t// in\n        /* \"contracts/Event.sol\":4384:4485  function getEventStatus() external view override returns (EventStatus) {... */\n    tag_13:\n        /* \"contracts/Event.sol\":4472:4478  status */\n      and(0xff, sload(0x06))\n        /* \"contracts/Event.sol\":4384:4485  function getEventStatus() external view override returns (EventStatus) {... */\n      jump(tag_34)\n        /* \"contracts/Event.sol\":2603:2913  function postponeEvent(uint256 _startTime) external override onlyOwner  returns(bool) {... */\n    tag_14:\n      tag_45\n      tag_68\n      calldatasize\n      0x04\n      tag_61\n      jump\t// in\n    tag_68:\n      tag_69\n      jump\t// in\n        /* \"contracts/Event.sol\":3028:3132  function getMinimumStake() external view override returns (uint256) {... */\n    tag_15:\n        /* \"contracts/Event.sol\":3113:3125  minimumStake */\n      sload(0x03)\n        /* \"contracts/Event.sol\":3028:3132  function getMinimumStake() external view override returns (uint256) {... */\n      jump(tag_41)\n        /* \"contracts/Event.sol\":3952:4378  function startEvent() external onlyOwner  returns(bool) {... */\n    tag_16:\n      tag_45\n      tag_75\n      jump\t// in\n        /* \"contracts/Event.sol\":2919:3022  function getMarkets() external view override returns (address[] memory) {... */\n    tag_17:\n      tag_77\n      tag_78\n      jump\t// in\n    tag_77:\n      mload(0x40)\n      tag_25\n      swap2\n      swap1\n      tag_80\n      jump\t// in\n        /* \"contracts/Event.sol\":296:323  uint256 public minimumStake */\n    tag_18:\n      tag_41\n      sload(0x03)\n      dup2\n      jump\n        /* \"contracts/Event.sol\":2189:2597  function cancelEvent() external override onlyOwner  returns(bool) {... */\n    tag_19:\n      tag_45\n      tag_85\n      jump\t// in\n        /* \"contracts/Event.sol\":406:424  string public name */\n    tag_24:\n      0x05\n      dup1\n      sload\n      tag_87\n      swap1\n      tag_88\n      jump\t// in\n    tag_87:\n      dup1\n      0x1f\n      add\n      0x20\n      dup1\n      swap2\n      div\n      mul\n      0x20\n      add\n      mload(0x40)\n      swap1\n      dup2\n      add\n      0x40\n      mstore\n      dup1\n      swap3\n      swap2\n      swap1\n      dup2\n      dup2\n      mstore\n      0x20\n      add\n      dup3\n      dup1\n      sload\n      tag_89\n      swap1\n      tag_88\n      jump\t// in\n    tag_89:\n      dup1\n      iszero\n      tag_90\n      jumpi\n      dup1\n      0x1f\n      lt\n      tag_91\n      jumpi\n      0x0100\n      dup1\n      dup4\n      sload\n      div\n      mul\n      dup4\n      mstore\n      swap2\n      0x20\n      add\n      swap2\n      jump(tag_90)\n    tag_91:\n      dup3\n      add\n      swap2\n      swap1\n      0x00\n      mstore\n      keccak256(0x00, 0x20)\n      swap1\n    tag_92:\n      dup2\n      sload\n      dup2\n      mstore\n      swap1\n      0x01\n      add\n      swap1\n      0x20\n      add\n      dup1\n      dup4\n      gt\n      tag_92\n      jumpi\n      dup3\n      swap1\n      sub\n      0x1f\n      and\n      dup3\n      add\n      swap2\n    tag_90:\n      pop\n      pop\n      pop\n      pop\n      pop\n      dup2\n      jump\t// out\n        /* \"contracts/Event.sol\":1103:1195  function getName() public view override returns (string memory) {... */\n    tag_32:\n        /* \"contracts/Event.sol\":1152:1165  string memory */\n      0x60\n        /* \"contracts/Event.sol\":1184:1188  name */\n      0x05\n        /* \"contracts/Event.sol\":1177:1188  return name */\n      dup1\n      sload\n      tag_95\n      swap1\n      tag_88\n      jump\t// in\n    tag_95:\n      dup1\n      0x1f\n      add\n      0x20\n      dup1\n      swap2\n      div\n      mul\n      0x20\n      add\n      mload(0x40)\n      swap1\n      dup2\n      add\n      0x40\n      mstore\n      dup1\n      swap3\n      swap2\n      swap1\n      dup2\n      dup2\n      mstore\n      0x20\n      add\n      dup3\n      dup1\n      sload\n      tag_96\n      swap1\n      tag_88\n      jump\t// in\n    tag_96:\n      dup1\n      iszero\n      tag_97\n      jumpi\n      dup1\n      0x1f\n      lt\n      tag_98\n      jumpi\n      0x0100\n      dup1\n      dup4\n      sload\n      div\n      mul\n      dup4\n      mstore\n      swap2\n      0x20\n      add\n      swap2\n      jump(tag_97)\n    tag_98:\n      dup3\n      add\n      swap2\n      swap1\n      0x00\n      mstore\n      keccak256(0x00, 0x20)\n      swap1\n    tag_99:\n      dup2\n      sload\n      dup2\n      mstore\n      swap1\n      0x01\n      add\n      swap1\n      0x20\n      add\n      dup1\n      dup4\n      gt\n      tag_99\n      jumpi\n      dup3\n      swap1\n      sub\n      0x1f\n      and\n      dup3\n      add\n      swap2\n    tag_97:\n      pop\n      pop\n      pop\n      pop\n      pop\n      swap1\n      pop\n        /* \"contracts/Event.sol\":1103:1195  function getName() public view override returns (string memory) {... */\n      swap1\n      jump\t// out\n        /* \"contracts/Event.sol\":2037:2183  function updateName(string memory _eventTitle) external override onlyOwner  returns(bool) {... */\n    tag_48:\n        /* \"contracts/Event.sol\":595:605  eventOwner */\n      sload(0x01)\n        /* \"contracts/Event.sol\":2121:2125  bool */\n      0x00\n      swap1\n      sub(shl(0xa0, 0x01), 0x01)\n        /* \"contracts/Event.sol\":595:605  eventOwner */\n      and\n        /* \"contracts/Event.sol\":581:591  msg.sender */\n      caller\n        /* \"contracts/Event.sol\":581:605  msg.sender == eventOwner */\n      eq\n        /* \"contracts/Event.sol\":560:638  require(... */\n      tag_101\n      jumpi\n      mload(0x40)\n      shl(0xe5, 0x461bcd)\n      dup2\n      mstore\n      0x04\n      add\n      tag_102\n      swap1\n      tag_103\n      jump\t// in\n    tag_102:\n      mload(0x40)\n      dup1\n      swap2\n      sub\n      swap1\n      revert\n    tag_101:\n        /* \"contracts/Event.sol\":2137:2155  name = _eventTitle */\n      dup2\n      mload\n      tag_105\n      swap1\n        /* \"contracts/Event.sol\":2137:2141  name */\n      0x05\n      swap1\n        /* \"contracts/Event.sol\":2137:2155  name = _eventTitle */\n      0x20\n      dup6\n      add\n      swap1\n      tag_106\n      jump\t// in\n    tag_105:\n      pop\n        /* \"contracts/Event.sol\":2172:2176  true */\n      0x01\n      swap3\n        /* \"contracts/Event.sol\":2037:2183  function updateName(string memory _eventTitle) external override onlyOwner  returns(bool) {... */\n      swap2\n      pop\n      pop\n      jump\t// out\n        /* \"contracts/Event.sol\":3346:3946  function endEvent() external override onlyOwner  returns(bool) {... */\n    tag_52:\n        /* \"contracts/Event.sol\":595:605  eventOwner */\n      sload(0x01)\n        /* \"contracts/Event.sol\":3403:3407  bool */\n      0x00\n      swap1\n      sub(shl(0xa0, 0x01), 0x01)\n        /* \"contracts/Event.sol\":595:605  eventOwner */\n      and\n        /* \"contracts/Event.sol\":581:591  msg.sender */\n      caller\n        /* \"contracts/Event.sol\":581:605  msg.sender == eventOwner */\n      eq\n        /* \"contracts/Event.sol\":560:638  require(... */\n      tag_108\n      jumpi\n      mload(0x40)\n      shl(0xe5, 0x461bcd)\n      dup2\n      mstore\n      0x04\n      add\n      tag_102\n      swap1\n      tag_103\n      jump\t// in\n    tag_108:\n        /* \"contracts/Event.sol\":3438:3458  EventStatus.CANCELED */\n      0x03\n        /* \"contracts/Event.sol\":3428:3434  status */\n      and(0xff, sload(0x06))\n        /* \"contracts/Event.sol\":3428:3458  status != EventStatus.CANCELED */\n      0x03\n      dup2\n      gt\n      iszero\n      tag_112\n      jumpi\n      mstore(0x00, shl(0xe0, 0x4e487b71))\n      mstore(0x04, 0x21)\n      revert(0x00, 0x24)\n    tag_112:\n      eq\n      iszero\n        /* \"contracts/Event.sol\":3419:3471  require (status != EventStatus.CANCELED, \"xd event\") */\n      tag_113\n      jumpi\n      mload(0x40)\n      shl(0xe5, 0x461bcd)\n      dup2\n      mstore\n      0x04\n      add\n      tag_102\n      swap1\n      tag_115\n      jump\t// in\n    tag_113:\n        /* \"contracts/Event.sol\":3499:3516  EventStatus.ENDED */\n      0x02\n        /* \"contracts/Event.sol\":3489:3495  status */\n      and(0xff, sload(0x06))\n        /* \"contracts/Event.sol\":3489:3516  status != EventStatus.ENDED */\n      0x03\n      dup2\n      gt\n      iszero\n      tag_117\n      jumpi\n      mstore(0x00, shl(0xe0, 0x4e487b71))\n      mstore(0x04, 0x21)\n      revert(0x00, 0x24)\n    tag_117:\n      eq\n      iszero\n        /* \"contracts/Event.sol\":3481:3532  require(status != EventStatus.ENDED, \"ended event\") */\n      tag_118\n      jumpi\n      mload(0x40)\n      shl(0xe5, 0x461bcd)\n      dup2\n      mstore\n      0x04\n      add\n      tag_102\n      swap1\n      tag_120\n      jump\t// in\n    tag_118:\n        /* \"contracts/Event.sol\":3571:3575  true */\n      0x01\n        /* \"contracts/Event.sol\":3543:3568  bool allMarketsAreSettled */\n      0x00\n        /* \"contracts/Event.sol\":3585:3821  for (uint256 i = 0; i < markets.length; i++) {... */\n    tag_121:\n        /* \"contracts/Event.sol\":3609:3616  markets */\n      0x04\n        /* \"contracts/Event.sol\":3609:3623  markets.length */\n      sload\n        /* \"contracts/Event.sol\":3605:3623  i < markets.length */\n      dup2\n      lt\n        /* \"contracts/Event.sol\":3585:3821  for (uint256 i = 0; i < markets.length; i++) {... */\n      iszero\n      tag_122\n      jumpi\n        /* \"contracts/Event.sol\":3644:3658  IMarket market */\n      0x00\n        /* \"contracts/Event.sol\":3669:3676  markets */\n      0x04\n        /* \"contracts/Event.sol\":3677:3678  i */\n      dup3\n        /* \"contracts/Event.sol\":3669:3679  markets[i] */\n      dup2\n      sload\n      dup2\n      lt\n      tag_124\n      jumpi\n      mstore(0x00, shl(0xe0, 0x4e487b71))\n      mstore(0x04, 0x32)\n      revert(0x00, 0x24)\n    tag_124:\n      0x00\n      swap2\n      dup3\n      mstore\n      0x20\n      swap2\n      dup3\n      swap1\n      keccak256\n      add\n      sload\n        /* \"contracts/Event.sol\":3699:3725  market.hasSetWinningSide() */\n      0x40\n      dup1\n      mload\n      shl(0xe2, 0x2f6498c3)\n      dup2\n      mstore\n      swap1\n      mload\n      sub(shl(0xa0, 0x01), 0x01)\n        /* \"contracts/Event.sol\":3669:3679  markets[i] */\n      swap1\n      swap3\n      and\n      swap4\n      pop\n      dup4\n      swap3\n        /* \"contracts/Event.sol\":3699:3723  market.hasSetWinningSide */\n      0xbd92630c\n      swap3\n        /* \"contracts/Event.sol\":3699:3725  market.hasSetWinningSide() */\n      0x04\n      dup1\n      dup5\n      add\n      swap4\n      dup3\n      swap1\n      sub\n      add\n      dup2\n        /* \"contracts/Event.sol\":3669:3679  markets[i] */\n      dup7\n        /* \"contracts/Event.sol\":3699:3725  market.hasSetWinningSide() */\n      dup1\n      extcodesize\n      iszero\n      dup1\n      iszero\n      tag_126\n      jumpi\n      0x00\n      dup1\n      revert\n    tag_126:\n      pop\n      gas\n      staticcall\n      iszero\n      dup1\n      iszero\n      tag_128\n      jumpi\n      returndatasize\n      0x00\n      dup1\n      returndatacopy\n      revert(0x00, returndatasize)\n    tag_128:\n      pop\n      pop\n      pop\n      pop\n      mload(0x40)\n      returndatasize\n      not(0x1f)\n      0x1f\n      dup3\n      add\n      and\n      dup3\n      add\n      dup1\n      0x40\n      mstore\n      pop\n      dup2\n      add\n      swap1\n      tag_129\n      swap2\n      swap1\n      tag_130\n      jump\t// in\n    tag_129:\n        /* \"contracts/Event.sol\":3694:3811  if (!market.hasSetWinningSide()) {... */\n      tag_131\n      jumpi\n        /* \"contracts/Event.sol\":3768:3773  false */\n      0x00\n        /* \"contracts/Event.sol\":3745:3773  allMarketsAreSettled = false */\n      swap3\n      pop\n        /* \"contracts/Event.sol\":3791:3796  break */\n      pop\n      jump(tag_122)\n        /* \"contracts/Event.sol\":3694:3811  if (!market.hasSetWinningSide()) {... */\n    tag_131:\n      pop\n        /* \"contracts/Event.sol\":3625:3628  i++ */\n      dup1\n      tag_132\n      dup2\n      tag_133\n      jump\t// in\n    tag_132:\n      swap2\n      pop\n      pop\n        /* \"contracts/Event.sol\":3585:3821  for (uint256 i = 0; i < markets.length; i++) {... */\n      jump(tag_121)\n    tag_122:\n      pop\n        /* \"contracts/Event.sol\":3839:3859  allMarketsAreSettled */\n      dup1\n        /* \"contracts/Event.sol\":3831:3882  require(allMarketsAreSettled, \"all mkt nt settled\") */\n      tag_134\n      jumpi\n      mload(0x40)\n      shl(0xe5, 0x461bcd)\n      dup2\n      mstore\n        /* \"#utility.yul\":5043:5045   */\n      0x20\n        /* \"contracts/Event.sol\":3831:3882  require(allMarketsAreSettled, \"all mkt nt settled\") */\n      0x04\n      dup3\n      add\n        /* \"#utility.yul\":5025:5046   */\n      mstore\n        /* \"#utility.yul\":5082:5084   */\n      0x12\n        /* \"#utility.yul\":5062:5080   */\n      0x24\n      dup3\n      add\n        /* \"#utility.yul\":5055:5085   */\n      mstore\n      shl(0x72, 0x185b1b081b5add081b9d081cd95d1d1b1959)\n        /* \"#utility.yul\":5101:5119   */\n      0x44\n      dup3\n      add\n        /* \"#utility.yul\":5094:5142   */\n      mstore\n        /* \"#utility.yul\":5159:5177   */\n      0x64\n      add\n        /* \"contracts/Event.sol\":3831:3882  require(allMarketsAreSettled, \"all mkt nt settled\") */\n      tag_102\n        /* \"#utility.yul\":5015:5183   */\n      jump\n        /* \"contracts/Event.sol\":3831:3882  require(allMarketsAreSettled, \"all mkt nt settled\") */\n    tag_134:\n      pop\n      pop\n        /* \"contracts/Event.sol\":3892:3898  status */\n      0x06\n        /* \"contracts/Event.sol\":3892:3918  status = EventStatus.ENDED */\n      dup1\n      sload\n      not(0xff)\n      and\n        /* \"contracts/Event.sol\":3901:3918  EventStatus.ENDED */\n      0x02\n        /* \"contracts/Event.sol\":3892:3918  status = EventStatus.ENDED */\n      or\n      swap1\n      sstore\n      0x01\n      swap1\n        /* \"contracts/Event.sol\":3346:3946  function endEvent() external override onlyOwner  returns(bool) {... */\n      jump\t// out\n        /* \"contracts/Event.sol\":1775:2031  function addMarket(address _marketAddress)... */\n    tag_57:\n        /* \"contracts/Event.sol\":595:605  eventOwner */\n      sload(0x01)\n        /* \"contracts/Event.sol\":1878:1882  bool */\n      0x00\n      swap1\n      sub(shl(0xa0, 0x01), 0x01)\n        /* \"contracts/Event.sol\":595:605  eventOwner */\n      and\n        /* \"contracts/Event.sol\":581:591  msg.sender */\n      caller\n        /* \"contracts/Event.sol\":581:605  msg.sender == eventOwner */\n      eq\n        /* \"contracts/Event.sol\":560:638  require(... */\n      tag_139\n      jumpi\n      mload(0x40)\n      shl(0xe5, 0x461bcd)\n      dup2\n      mstore\n      0x04\n      add\n      tag_102\n      swap1\n      tag_103\n      jump\t// in\n    tag_139:\n      pop\n        /* \"contracts/Event.sol\":1975:1982  markets */\n      0x04\n        /* \"contracts/Event.sol\":1975:2003  markets.push(_marketAddress) */\n      dup1\n      sload\n      0x01\n      dup2\n      dup2\n      add\n      dup4\n      sstore\n      0x00\n      swap3\n      swap1\n      swap3\n      mstore\n      0x8a35acfbc15ff81a39ae7d344fd709f28e8600b4aa8c65c6b64bfe7fe36bd19b\n      add\n      dup1\n      sload\n      sub(shl(0xa0, 0x01), 0x01)\n      dup5\n      and\n      not(sub(shl(0xa0, 0x01), 0x01))\n      swap1\n      swap2\n      and\n      or\n      swap1\n      sstore\n        /* \"contracts/Event.sol\":1775:2031  function addMarket(address _marketAddress)... */\n      swap2\n      swap1\n      pop\n      jump\t// out\n        /* \"contracts/Event.sol\":375:399  address[] public markets */\n    tag_62:\n      0x04\n      dup2\n      dup2\n      sload\n      dup2\n      lt\n      tag_143\n      jumpi\n      0x00\n      dup1\n      revert\n    tag_143:\n      0x00\n      swap2\n      dup3\n      mstore\n      0x20\n      swap1\n      swap2\n      keccak256\n      add\n      sload\n      sub(shl(0xa0, 0x01), 0x01)\n      and\n      swap1\n      pop\n      dup2\n      jump\t// out\n        /* \"contracts/Event.sol\":2603:2913  function postponeEvent(uint256 _startTime) external override onlyOwner  returns(bool) {... */\n    tag_69:\n        /* \"contracts/Event.sol\":595:605  eventOwner */\n      sload(0x01)\n        /* \"contracts/Event.sol\":2683:2687  bool */\n      0x00\n      swap1\n      sub(shl(0xa0, 0x01), 0x01)\n        /* \"contracts/Event.sol\":595:605  eventOwner */\n      and\n        /* \"contracts/Event.sol\":581:591  msg.sender */\n      caller\n        /* \"contracts/Event.sol\":581:605  msg.sender == eventOwner */\n      eq\n        /* \"contracts/Event.sol\":560:638  require(... */\n      tag_147\n      jumpi\n      mload(0x40)\n      shl(0xe5, 0x461bcd)\n      dup2\n      mstore\n      0x04\n      add\n      tag_102\n      swap1\n      tag_103\n      jump\t// in\n    tag_147:\n        /* \"contracts/Event.sol\":2718:2738  EventStatus.CANCELED */\n      0x03\n        /* \"contracts/Event.sol\":2708:2714  status */\n      and(0xff, sload(0x06))\n        /* \"contracts/Event.sol\":2708:2738  status != EventStatus.CANCELED */\n      0x03\n      dup2\n      gt\n      iszero\n      tag_151\n      jumpi\n      mstore(0x00, shl(0xe0, 0x4e487b71))\n      mstore(0x04, 0x21)\n      revert(0x00, 0x24)\n    tag_151:\n      eq\n      iszero\n        /* \"contracts/Event.sol\":2699:2751  require (status != EventStatus.CANCELED, \"xd event\") */\n      tag_152\n      jumpi\n      mload(0x40)\n      shl(0xe5, 0x461bcd)\n      dup2\n      mstore\n      0x04\n      add\n      tag_102\n      swap1\n      tag_115\n      jump\t// in\n    tag_152:\n        /* \"contracts/Event.sol\":2779:2796  EventStatus.ENDED */\n      0x02\n        /* \"contracts/Event.sol\":2769:2775  status */\n      and(0xff, sload(0x06))\n        /* \"contracts/Event.sol\":2769:2796  status != EventStatus.ENDED */\n      0x03\n      dup2\n      gt\n      iszero\n      tag_155\n      jumpi\n      mstore(0x00, shl(0xe0, 0x4e487b71))\n      mstore(0x04, 0x21)\n      revert(0x00, 0x24)\n    tag_155:\n      eq\n      iszero\n        /* \"contracts/Event.sol\":2761:2812  require(status != EventStatus.ENDED, \"ended event\") */\n      tag_156\n      jumpi\n      mload(0x40)\n      shl(0xe5, 0x461bcd)\n      dup2\n      mstore\n      0x04\n      add\n      tag_102\n      swap1\n      tag_120\n      jump\t// in\n    tag_156:\n      pop\n        /* \"contracts/Event.sol\":2823:2832  startTime */\n      0x02\n        /* \"contracts/Event.sol\":2823:2845  startTime = _startTime */\n      sstore\n        /* \"contracts/Event.sol\":2856:2862  status */\n      0x06\n        /* \"contracts/Event.sol\":2856:2885  status = EventStatus.UPCOMING */\n      dup1\n      sload\n      not(0xff)\n      and\n      swap1\n      sstore\n      0x01\n      swap1\n        /* \"contracts/Event.sol\":2603:2913  function postponeEvent(uint256 _startTime) external override onlyOwner  returns(bool) {... */\n      jump\t// out\n        /* \"contracts/Event.sol\":3952:4378  function startEvent() external onlyOwner  returns(bool) {... */\n    tag_75:\n        /* \"contracts/Event.sol\":595:605  eventOwner */\n      sload(0x01)\n        /* \"contracts/Event.sol\":4002:4006  bool */\n      0x00\n      swap1\n      sub(shl(0xa0, 0x01), 0x01)\n        /* \"contracts/Event.sol\":595:605  eventOwner */\n      and\n        /* \"contracts/Event.sol\":581:591  msg.sender */\n      caller\n        /* \"contracts/Event.sol\":581:605  msg.sender == eventOwner */\n      eq\n        /* \"contracts/Event.sol\":560:638  require(... */\n      tag_161\n      jumpi\n      mload(0x40)\n      shl(0xe5, 0x461bcd)\n      dup2\n      mstore\n      0x04\n      add\n      tag_102\n      swap1\n      tag_103\n      jump\t// in\n    tag_161:\n        /* \"contracts/Event.sol\":4037:4057  EventStatus.CANCELED */\n      0x03\n        /* \"contracts/Event.sol\":4027:4033  status */\n      and(0xff, sload(0x06))\n        /* \"contracts/Event.sol\":4027:4057  status != EventStatus.CANCELED */\n      0x03\n      dup2\n      gt\n      iszero\n      tag_165\n      jumpi\n      mstore(0x00, shl(0xe0, 0x4e487b71))\n      mstore(0x04, 0x21)\n      revert(0x00, 0x24)\n    tag_165:\n      eq\n      iszero\n        /* \"contracts/Event.sol\":4018:4070  require (status != EventStatus.CANCELED, \"xd event\") */\n      tag_166\n      jumpi\n      mload(0x40)\n      shl(0xe5, 0x461bcd)\n      dup2\n      mstore\n      0x04\n      add\n      tag_102\n      swap1\n      tag_115\n      jump\t// in\n    tag_166:\n        /* \"contracts/Event.sol\":4098:4115  EventStatus.ENDED */\n      0x02\n        /* \"contracts/Event.sol\":4088:4094  status */\n      and(0xff, sload(0x06))\n        /* \"contracts/Event.sol\":4088:4115  status != EventStatus.ENDED */\n      0x03\n      dup2\n      gt\n      iszero\n      tag_169\n      jumpi\n      mstore(0x00, shl(0xe0, 0x4e487b71))\n      mstore(0x04, 0x21)\n      revert(0x00, 0x24)\n    tag_169:\n      eq\n      iszero\n        /* \"contracts/Event.sol\":4080:4131  require(status != EventStatus.ENDED, \"ended event\") */\n      tag_170\n      jumpi\n      mload(0x40)\n      shl(0xe5, 0x461bcd)\n      dup2\n      mstore\n      0x04\n      add\n      tag_102\n      swap1\n      tag_120\n      jump\t// in\n    tag_170:\n        /* \"contracts/Event.sol\":4160:4179  EventStatus.STARTED */\n      0x01\n        /* \"contracts/Event.sol\":4150:4156  status */\n      and(0xff, sload(0x06))\n        /* \"contracts/Event.sol\":4150:4179  status != EventStatus.STARTED */\n      0x03\n      dup2\n      gt\n      iszero\n      tag_173\n      jumpi\n      mstore(0x00, shl(0xe0, 0x4e487b71))\n      mstore(0x04, 0x21)\n      revert(0x00, 0x24)\n    tag_173:\n      eq\n      iszero\n        /* \"contracts/Event.sol\":4141:4196  require (status != EventStatus.STARTED, \"already live\") */\n      tag_174\n      jumpi\n      mload(0x40)\n      shl(0xe5, 0x461bcd)\n      dup2\n      mstore\n        /* \"#utility.yul\":4702:4704   */\n      0x20\n        /* \"contracts/Event.sol\":4141:4196  require (status != EventStatus.STARTED, \"already live\") */\n      0x04\n      dup3\n      add\n        /* \"#utility.yul\":4684:4705   */\n      mstore\n        /* \"#utility.yul\":4741:4743   */\n      0x0c\n        /* \"#utility.yul\":4721:4739   */\n      0x24\n      dup3\n      add\n        /* \"#utility.yul\":4714:4744   */\n      mstore\n      shl(0xa0, 0x616c7265616479206c697665)\n        /* \"#utility.yul\":4760:4778   */\n      0x44\n      dup3\n      add\n        /* \"#utility.yul\":4753:4795   */\n      mstore\n        /* \"#utility.yul\":4812:4830   */\n      0x64\n      add\n        /* \"contracts/Event.sol\":4141:4196  require (status != EventStatus.STARTED, \"already live\") */\n      tag_102\n        /* \"#utility.yul\":4674:4836   */\n      jump\n        /* \"contracts/Event.sol\":4141:4196  require (status != EventStatus.STARTED, \"already live\") */\n    tag_174:\n        /* \"contracts/Event.sol\":4220:4240  EventStatus.UPCOMING */\n      0x00\n        /* \"contracts/Event.sol\":4210:4216  status */\n      and(0xff, sload(0x06))\n        /* \"contracts/Event.sol\":4210:4240  status == EventStatus.UPCOMING */\n      0x03\n      dup2\n      gt\n      iszero\n      tag_178\n      jumpi\n      mstore(0x00, shl(0xe0, 0x4e487b71))\n      mstore(0x04, 0x21)\n      revert(0x00, 0x24)\n    tag_178:\n      eq\n        /* \"contracts/Event.sol\":4206:4351  if (status == EventStatus.UPCOMING) {... */\n      iszero\n      tag_179\n      jumpi\n        /* \"contracts/Event.sol\":4256:4262  status */\n      0x06\n        /* \"contracts/Event.sol\":4256:4284  status = EventStatus.STARTED */\n      dup1\n      sload\n      not(0xff)\n      and\n        /* \"contracts/Event.sol\":4265:4284  EventStatus.STARTED */\n      0x01\n        /* \"contracts/Event.sol\":4256:4284  status = EventStatus.STARTED */\n      or\n      swap1\n      sstore\n        /* \"contracts/Event.sol\":4206:4351  if (status == EventStatus.UPCOMING) {... */\n      jump(tag_181)\n    tag_179:\n        /* \"contracts/Event.sol\":4315:4340  revert(\"err: bad status\") */\n      mload(0x40)\n      shl(0xe5, 0x461bcd)\n      dup2\n      mstore\n        /* \"#utility.yul\":4018:4020   */\n      0x20\n        /* \"contracts/Event.sol\":4315:4340  revert(\"err: bad status\") */\n      0x04\n      dup3\n      add\n        /* \"#utility.yul\":4000:4021   */\n      mstore\n        /* \"#utility.yul\":4057:4059   */\n      0x0f\n        /* \"#utility.yul\":4037:4055   */\n      0x24\n      dup3\n      add\n        /* \"#utility.yul\":4030:4060   */\n      mstore\n      shl(0x88, 0x6572723a2062616420737461747573)\n        /* \"#utility.yul\":4076:4094   */\n      0x44\n      dup3\n      add\n        /* \"#utility.yul\":4069:4114   */\n      mstore\n        /* \"#utility.yul\":4131:4149   */\n      0x64\n      add\n        /* \"contracts/Event.sol\":4315:4340  revert(\"err: bad status\") */\n      tag_102\n        /* \"#utility.yul\":3990:4155   */\n      jump\n        /* \"contracts/Event.sol\":4206:4351  if (status == EventStatus.UPCOMING) {... */\n    tag_181:\n      pop\n        /* \"contracts/Event.sol\":4367:4371  true */\n      0x01\n        /* \"contracts/Event.sol\":3952:4378  function startEvent() external onlyOwner  returns(bool) {... */\n      swap1\n      jump\t// out\n        /* \"contracts/Event.sol\":2919:3022  function getMarkets() external view override returns (address[] memory) {... */\n    tag_78:\n        /* \"contracts/Event.sol\":2973:2989  address[] memory */\n      0x60\n        /* \"contracts/Event.sol\":3008:3015  markets */\n      0x04\n        /* \"contracts/Event.sol\":3001:3015  return markets */\n      dup1\n      sload\n      dup1\n      0x20\n      mul\n      0x20\n      add\n      mload(0x40)\n      swap1\n      dup2\n      add\n      0x40\n      mstore\n      dup1\n      swap3\n      swap2\n      swap1\n      dup2\n      dup2\n      mstore\n      0x20\n      add\n      dup3\n      dup1\n      sload\n      dup1\n      iszero\n      tag_97\n      jumpi\n      0x20\n      mul\n      dup3\n      add\n      swap2\n      swap1\n      0x00\n      mstore\n      keccak256(0x00, 0x20)\n      swap1\n    tag_186:\n      dup2\n      sload\n      sub(shl(0xa0, 0x01), 0x01)\n      and\n      dup2\n      mstore\n      0x01\n      swap1\n      swap2\n      add\n      swap1\n      0x20\n      add\n      dup1\n      dup4\n      gt\n      tag_186\n      jumpi\n      pop\n      pop\n      pop\n      pop\n      pop\n      swap1\n      pop\n        /* \"contracts/Event.sol\":2919:3022  function getMarkets() external view override returns (address[] memory) {... */\n      swap1\n      jump\t// out\n        /* \"contracts/Event.sol\":2189:2597  function cancelEvent() external override onlyOwner  returns(bool) {... */\n    tag_85:\n        /* \"contracts/Event.sol\":595:605  eventOwner */\n      sload(0x01)\n        /* \"contracts/Event.sol\":2249:2253  bool */\n      0x00\n      swap1\n      sub(shl(0xa0, 0x01), 0x01)\n        /* \"contracts/Event.sol\":595:605  eventOwner */\n      and\n        /* \"contracts/Event.sol\":581:591  msg.sender */\n      caller\n        /* \"contracts/Event.sol\":581:605  msg.sender == eventOwner */\n      eq\n        /* \"contracts/Event.sol\":560:638  require(... */\n      tag_188\n      jumpi\n      mload(0x40)\n      shl(0xe5, 0x461bcd)\n      dup2\n      mstore\n      0x04\n      add\n      tag_102\n      swap1\n      tag_103\n      jump\t// in\n    tag_188:\n        /* \"contracts/Event.sol\":2284:2304  EventStatus.CANCELED */\n      0x03\n        /* \"contracts/Event.sol\":2274:2280  status */\n      and(0xff, sload(0x06))\n        /* \"contracts/Event.sol\":2274:2304  status != EventStatus.CANCELED */\n      0x03\n      dup2\n      gt\n      iszero\n      tag_192\n      jumpi\n      mstore(0x00, shl(0xe0, 0x4e487b71))\n      mstore(0x04, 0x21)\n      revert(0x00, 0x24)\n    tag_192:\n      eq\n      iszero\n        /* \"contracts/Event.sol\":2265:2317  require (status != EventStatus.CANCELED, \"xd event\") */\n      tag_193\n      jumpi\n      mload(0x40)\n      shl(0xe5, 0x461bcd)\n      dup2\n      mstore\n      0x04\n      add\n      tag_102\n      swap1\n      tag_115\n      jump\t// in\n    tag_193:\n        /* \"contracts/Event.sol\":2345:2362  EventStatus.ENDED */\n      0x02\n        /* \"contracts/Event.sol\":2335:2341  status */\n      and(0xff, sload(0x06))\n        /* \"contracts/Event.sol\":2335:2362  status != EventStatus.ENDED */\n      0x03\n      dup2\n      gt\n      iszero\n      tag_196\n      jumpi\n      mstore(0x00, shl(0xe0, 0x4e487b71))\n      mstore(0x04, 0x21)\n      revert(0x00, 0x24)\n    tag_196:\n      eq\n      iszero\n        /* \"contracts/Event.sol\":2327:2378  require(status != EventStatus.ENDED, \"ended event\") */\n      tag_197\n      jumpi\n      mload(0x40)\n      shl(0xe5, 0x461bcd)\n      dup2\n      mstore\n      0x04\n      add\n      tag_102\n      swap1\n      tag_120\n      jump\t// in\n    tag_197:\n        /* \"contracts/Event.sol\":2394:2403  uint256 i */\n      0x00\n        /* \"contracts/Event.sol\":2389:2530  for (uint256 i = 0; i < markets.length; i++) {... */\n    tag_199:\n        /* \"contracts/Event.sol\":2413:2420  markets */\n      0x04\n        /* \"contracts/Event.sol\":2413:2427  markets.length */\n      sload\n        /* \"contracts/Event.sol\":2409:2427  i < markets.length */\n      dup2\n      lt\n        /* \"contracts/Event.sol\":2389:2530  for (uint256 i = 0; i < markets.length; i++) {... */\n      iszero\n      tag_200\n      jumpi\n        /* \"contracts/Event.sol\":2448:2462  IMarket market */\n      0x00\n        /* \"contracts/Event.sol\":2473:2480  markets */\n      0x04\n        /* \"contracts/Event.sol\":2481:2482  i */\n      dup3\n        /* \"contracts/Event.sol\":2473:2483  markets[i] */\n      dup2\n      sload\n      dup2\n      lt\n      tag_202\n      jumpi\n      mstore(0x00, shl(0xe0, 0x4e487b71))\n      mstore(0x04, 0x32)\n      revert(0x00, 0x24)\n    tag_202:\n      swap1\n      0x00\n      mstore\n      keccak256(0x00, 0x20)\n      add\n      0x00\n      swap1\n      sload\n      swap1\n      0x0100\n      exp\n      swap1\n      div\n      sub(shl(0xa0, 0x01), 0x01)\n      and\n        /* \"contracts/Event.sol\":2448:2484  IMarket market = IMarket(markets[i]) */\n      swap1\n      pop\n        /* \"contracts/Event.sol\":2498:2504  market */\n      dup1\n      sub(shl(0xa0, 0x01), 0x01)\n        /* \"contracts/Event.sol\":2498:2517  market.cancelMarket */\n      and\n      0x6bfefd6b\n        /* \"contracts/Event.sol\":2498:2519  market.cancelMarket() */\n      mload(0x40)\n      dup2\n      0xffffffff\n      and\n      0xe0\n      shl\n      dup2\n      mstore\n      0x04\n      add\n      0x20\n      mload(0x40)\n      dup1\n      dup4\n      sub\n      dup2\n      0x00\n      dup8\n      dup1\n      extcodesize\n      iszero\n      dup1\n      iszero\n      tag_204\n      jumpi\n      0x00\n      dup1\n      revert\n    tag_204:\n      pop\n      gas\n      call\n      iszero\n      dup1\n      iszero\n      tag_206\n      jumpi\n      returndatasize\n      0x00\n      dup1\n      returndatacopy\n      revert(0x00, returndatasize)\n    tag_206:\n      pop\n      pop\n      pop\n      pop\n      mload(0x40)\n      returndatasize\n      not(0x1f)\n      0x1f\n      dup3\n      add\n      and\n      dup3\n      add\n      dup1\n      0x40\n      mstore\n      pop\n      dup2\n      add\n      swap1\n      tag_207\n      swap2\n      swap1\n      tag_130\n      jump\t// in\n    tag_207:\n      pop\n        /* \"contracts/Event.sol\":2389:2530  for (uint256 i = 0; i < markets.length; i++) {... */\n      pop\n        /* \"contracts/Event.sol\":2429:2432  i++ */\n      dup1\n      dup1\n      tag_208\n      swap1\n      tag_133\n      jump\t// in\n    tag_208:\n      swap2\n      pop\n      pop\n        /* \"contracts/Event.sol\":2389:2530  for (uint256 i = 0; i < markets.length; i++) {... */\n      jump(tag_199)\n    tag_200:\n      pop\n      pop\n        /* \"contracts/Event.sol\":2540:2546  status */\n      0x06\n        /* \"contracts/Event.sol\":2540:2569  status = EventStatus.CANCELED */\n      dup1\n      sload\n      not(0xff)\n      and\n        /* \"contracts/Event.sol\":2549:2569  EventStatus.CANCELED */\n      0x03\n        /* \"contracts/Event.sol\":2540:2569  status = EventStatus.CANCELED */\n      or\n      swap1\n      sstore\n      0x01\n      swap1\n        /* \"contracts/Event.sol\":2189:2597  function cancelEvent() external override onlyOwner  returns(bool) {... */\n      jump\t// out\n    tag_106:\n      dup3\n      dup1\n      sload\n      tag_210\n      swap1\n      tag_88\n      jump\t// in\n    tag_210:\n      swap1\n      0x00\n      mstore\n      keccak256(0x00, 0x20)\n      swap1\n      0x1f\n      add\n      0x20\n      swap1\n      div\n      dup2\n      add\n      swap3\n      dup3\n      tag_212\n      jumpi\n      0x00\n      dup6\n      sstore\n      jump(tag_215)\n    tag_212:\n      dup3\n      0x1f\n      lt\n      tag_213\n      jumpi\n      dup1\n      mload\n      not(0xff)\n      and\n      dup4\n      dup1\n      add\n      or\n      dup6\n      sstore\n      jump(tag_215)\n    tag_213:\n      dup3\n      dup1\n      add\n      0x01\n      add\n      dup6\n      sstore\n      dup3\n      iszero\n      tag_215\n      jumpi\n      swap2\n      dup3\n      add\n    tag_214:\n      dup3\n      dup2\n      gt\n      iszero\n      tag_215\n      jumpi\n      dup3\n      mload\n      dup3\n      sstore\n      swap2\n      0x20\n      add\n      swap2\n      swap1\n      0x01\n      add\n      swap1\n      jump(tag_214)\n    tag_215:\n      pop\n      tag_216\n      swap3\n      swap2\n      pop\n      tag_217\n      jump\t// in\n    tag_216:\n      pop\n      swap1\n      jump\t// out\n    tag_217:\n    tag_218:\n      dup1\n      dup3\n      gt\n      iszero\n      tag_216\n      jumpi\n      0x00\n      dup2\n      sstore\n      0x01\n      add\n      jump(tag_218)\n        /* \"#utility.yul\":14:320   */\n    tag_56:\n        /* \"#utility.yul\":73:79   */\n      0x00\n        /* \"#utility.yul\":126:128   */\n      0x20\n        /* \"#utility.yul\":114:123   */\n      dup3\n        /* \"#utility.yul\":105:112   */\n      dup5\n        /* \"#utility.yul\":101:124   */\n      sub\n        /* \"#utility.yul\":97:129   */\n      slt\n        /* \"#utility.yul\":94:96   */\n      iszero\n      tag_222\n      jumpi\n        /* \"#utility.yul\":147:153   */\n      dup1\n        /* \"#utility.yul\":139:145   */\n      dup2\n        /* \"#utility.yul\":132:154   */\n      revert\n        /* \"#utility.yul\":94:96   */\n    tag_222:\n        /* \"#utility.yul\":178:201   */\n      dup2\n      calldataload\n      sub(shl(0xa0, 0x01), 0x01)\n        /* \"#utility.yul\":230:261   */\n      dup2\n      and\n        /* \"#utility.yul\":220:262   */\n      dup2\n      eq\n        /* \"#utility.yul\":210:212   */\n      tag_223\n      jumpi\n        /* \"#utility.yul\":281:287   */\n      dup2\n        /* \"#utility.yul\":273:279   */\n      dup3\n        /* \"#utility.yul\":266:288   */\n      revert\n        /* \"#utility.yul\":210:212   */\n    tag_223:\n        /* \"#utility.yul\":309:314   */\n      swap4\n        /* \"#utility.yul\":84:320   */\n      swap3\n      pop\n      pop\n      pop\n      jump\t// out\n        /* \"#utility.yul\":325:622   */\n    tag_130:\n        /* \"#utility.yul\":392:398   */\n      0x00\n        /* \"#utility.yul\":445:447   */\n      0x20\n        /* \"#utility.yul\":433:442   */\n      dup3\n        /* \"#utility.yul\":424:431   */\n      dup5\n        /* \"#utility.yul\":420:443   */\n      sub\n        /* \"#utility.yul\":416:448   */\n      slt\n        /* \"#utility.yul\":413:415   */\n      iszero\n      tag_225\n      jumpi\n        /* \"#utility.yul\":466:472   */\n      dup1\n        /* \"#utility.yul\":458:464   */\n      dup2\n        /* \"#utility.yul\":451:473   */\n      revert\n        /* \"#utility.yul\":413:415   */\n    tag_225:\n        /* \"#utility.yul\":503:512   */\n      dup2\n        /* \"#utility.yul\":497:513   */\n      mload\n        /* \"#utility.yul\":556:561   */\n      dup1\n        /* \"#utility.yul\":549:562   */\n      iszero\n        /* \"#utility.yul\":542:563   */\n      iszero\n        /* \"#utility.yul\":535:540   */\n      dup2\n        /* \"#utility.yul\":532:564   */\n      eq\n        /* \"#utility.yul\":522:524   */\n      tag_223\n      jumpi\n        /* \"#utility.yul\":583:589   */\n      dup2\n        /* \"#utility.yul\":575:581   */\n      dup3\n        /* \"#utility.yul\":568:590   */\n      revert\n        /* \"#utility.yul\":627:1594   */\n    tag_47:\n        /* \"#utility.yul\":696:702   */\n      0x00\n        /* \"#utility.yul\":749:751   */\n      0x20\n        /* \"#utility.yul\":737:746   */\n      dup3\n        /* \"#utility.yul\":728:735   */\n      dup5\n        /* \"#utility.yul\":724:747   */\n      sub\n        /* \"#utility.yul\":720:752   */\n      slt\n        /* \"#utility.yul\":717:719   */\n      iszero\n      tag_228\n      jumpi\n        /* \"#utility.yul\":770:776   */\n      dup1\n        /* \"#utility.yul\":762:768   */\n      dup2\n        /* \"#utility.yul\":755:777   */\n      revert\n        /* \"#utility.yul\":717:719   */\n    tag_228:\n        /* \"#utility.yul\":815:824   */\n      dup2\n        /* \"#utility.yul\":802:825   */\n      calldataload\n        /* \"#utility.yul\":844:862   */\n      0xffffffffffffffff\n        /* \"#utility.yul\":885:887   */\n      dup1\n        /* \"#utility.yul\":877:883   */\n      dup3\n        /* \"#utility.yul\":874:888   */\n      gt\n        /* \"#utility.yul\":871:873   */\n      iszero\n      tag_229\n      jumpi\n        /* \"#utility.yul\":906:912   */\n      dup3\n        /* \"#utility.yul\":898:904   */\n      dup4\n        /* \"#utility.yul\":891:913   */\n      revert\n        /* \"#utility.yul\":871:873   */\n    tag_229:\n        /* \"#utility.yul\":949:955   */\n      dup2\n        /* \"#utility.yul\":938:947   */\n      dup5\n        /* \"#utility.yul\":934:956   */\n      add\n        /* \"#utility.yul\":924:956   */\n      swap2\n      pop\n        /* \"#utility.yul\":994:1001   */\n      dup5\n        /* \"#utility.yul\":987:991   */\n      0x1f\n        /* \"#utility.yul\":983:985   */\n      dup4\n        /* \"#utility.yul\":979:992   */\n      add\n        /* \"#utility.yul\":975:1002   */\n      slt\n        /* \"#utility.yul\":965:967   */\n      tag_230\n      jumpi\n        /* \"#utility.yul\":1021:1027   */\n      dup3\n        /* \"#utility.yul\":1013:1019   */\n      dup4\n        /* \"#utility.yul\":1006:1028   */\n      revert\n        /* \"#utility.yul\":965:967   */\n    tag_230:\n        /* \"#utility.yul\":1062:1064   */\n      dup2\n        /* \"#utility.yul\":1049:1065   */\n      calldataload\n        /* \"#utility.yul\":1084:1086   */\n      dup2\n        /* \"#utility.yul\":1080:1082   */\n      dup2\n        /* \"#utility.yul\":1077:1087   */\n      gt\n        /* \"#utility.yul\":1074:1076   */\n      iszero\n      tag_232\n      jumpi\n        /* \"#utility.yul\":1090:1108   */\n      tag_232\n      tag_233\n      jump\t// in\n    tag_232:\n        /* \"#utility.yul\":1165:1167   */\n      0x40\n        /* \"#utility.yul\":1159:1168   */\n      mload\n        /* \"#utility.yul\":1133:1135   */\n      0x1f\n        /* \"#utility.yul\":1219:1232   */\n      dup3\n      add\n      not(0x1f)\n        /* \"#utility.yul\":1215:1237   */\n      swap1\n      dup2\n      and\n        /* \"#utility.yul\":1239:1241   */\n      0x3f\n        /* \"#utility.yul\":1211:1242   */\n      add\n        /* \"#utility.yul\":1207:1247   */\n      and\n        /* \"#utility.yul\":1195:1248   */\n      dup2\n      add\n      swap1\n        /* \"#utility.yul\":1263:1281   */\n      dup4\n      dup3\n      gt\n        /* \"#utility.yul\":1283:1305   */\n      dup2\n      dup4\n      lt\n        /* \"#utility.yul\":1260:1306   */\n      or\n        /* \"#utility.yul\":1257:1259   */\n      iszero\n      tag_235\n      jumpi\n        /* \"#utility.yul\":1309:1327   */\n      tag_235\n      tag_233\n      jump\t// in\n    tag_235:\n        /* \"#utility.yul\":1349:1359   */\n      dup2\n        /* \"#utility.yul\":1345:1347   */\n      0x40\n        /* \"#utility.yul\":1338:1360   */\n      mstore\n        /* \"#utility.yul\":1384:1386   */\n      dup3\n        /* \"#utility.yul\":1376:1382   */\n      dup2\n        /* \"#utility.yul\":1369:1387   */\n      mstore\n        /* \"#utility.yul\":1424:1431   */\n      dup8\n        /* \"#utility.yul\":1419:1421   */\n      0x20\n        /* \"#utility.yul\":1414:1416   */\n      dup5\n        /* \"#utility.yul\":1410:1412   */\n      dup8\n        /* \"#utility.yul\":1406:1417   */\n      add\n        /* \"#utility.yul\":1402:1422   */\n      add\n        /* \"#utility.yul\":1399:1432   */\n      gt\n        /* \"#utility.yul\":1396:1398   */\n      iszero\n      tag_236\n      jumpi\n        /* \"#utility.yul\":1450:1456   */\n      dup6\n        /* \"#utility.yul\":1442:1448   */\n      dup7\n        /* \"#utility.yul\":1435:1457   */\n      revert\n        /* \"#utility.yul\":1396:1398   */\n    tag_236:\n        /* \"#utility.yul\":1511:1513   */\n      dup3\n        /* \"#utility.yul\":1506:1508   */\n      0x20\n        /* \"#utility.yul\":1502:1504   */\n      dup7\n        /* \"#utility.yul\":1498:1509   */\n      add\n        /* \"#utility.yul\":1493:1495   */\n      0x20\n        /* \"#utility.yul\":1485:1491   */\n      dup4\n        /* \"#utility.yul\":1481:1496   */\n      add\n        /* \"#utility.yul\":1468:1514   */\n      calldatacopy\n        /* \"#utility.yul\":1534:1549   */\n      swap2\n      dup3\n      add\n        /* \"#utility.yul\":1551:1553   */\n      0x20\n        /* \"#utility.yul\":1530:1554   */\n      add\n        /* \"#utility.yul\":1523:1563   */\n      swap5\n      swap1\n      swap5\n      mstore\n        /* \"#utility.yul\":1538:1544   */\n      swap6\n        /* \"#utility.yul\":707:1594   */\n      swap5\n      pop\n      pop\n      pop\n      pop\n      pop\n      jump\t// out\n        /* \"#utility.yul\":1599:1789   */\n    tag_61:\n        /* \"#utility.yul\":1658:1664   */\n      0x00\n        /* \"#utility.yul\":1711:1713   */\n      0x20\n        /* \"#utility.yul\":1699:1708   */\n      dup3\n        /* \"#utility.yul\":1690:1697   */\n      dup5\n        /* \"#utility.yul\":1686:1709   */\n      sub\n        /* \"#utility.yul\":1682:1714   */\n      slt\n        /* \"#utility.yul\":1679:1681   */\n      iszero\n      tag_238\n      jumpi\n        /* \"#utility.yul\":1732:1738   */\n      dup1\n        /* \"#utility.yul\":1724:1730   */\n      dup2\n        /* \"#utility.yul\":1717:1739   */\n      revert\n        /* \"#utility.yul\":1679:1681   */\n    tag_238:\n      pop\n        /* \"#utility.yul\":1760:1783   */\n      calldataload\n      swap2\n        /* \"#utility.yul\":1669:1789   */\n      swap1\n      pop\n      jump\t// out\n        /* \"#utility.yul\":2002:2663   */\n    tag_80:\n        /* \"#utility.yul\":2173:2175   */\n      0x20\n        /* \"#utility.yul\":2225:2246   */\n      dup1\n      dup3\n      mstore\n        /* \"#utility.yul\":2295:2308   */\n      dup3\n      mload\n        /* \"#utility.yul\":2198:2216   */\n      dup3\n      dup3\n      add\n        /* \"#utility.yul\":2317:2339   */\n      dup2\n      swap1\n      mstore\n        /* \"#utility.yul\":2144:2148   */\n      0x00\n      swap2\n        /* \"#utility.yul\":2173:2175   */\n      swap1\n        /* \"#utility.yul\":2396:2411   */\n      dup5\n      dup3\n      add\n      swap1\n        /* \"#utility.yul\":2370:2372   */\n      0x40\n        /* \"#utility.yul\":2355:2373   */\n      dup6\n      add\n      swap1\n        /* \"#utility.yul\":2144:2148   */\n      dup5\n        /* \"#utility.yul\":2442:2637   */\n    tag_241:\n        /* \"#utility.yul\":2456:2462   */\n      dup2\n        /* \"#utility.yul\":2453:2454   */\n      dup2\n        /* \"#utility.yul\":2450:2463   */\n      lt\n        /* \"#utility.yul\":2442:2637   */\n      iszero\n      tag_243\n      jumpi\n        /* \"#utility.yul\":2521:2534   */\n      dup4\n      mload\n      sub(shl(0xa0, 0x01), 0x01)\n        /* \"#utility.yul\":2517:2556   */\n      and\n        /* \"#utility.yul\":2505:2557   */\n      dup4\n      mstore\n        /* \"#utility.yul\":2612:2627   */\n      swap3\n      dup5\n      add\n      swap3\n        /* \"#utility.yul\":2577:2589   */\n      swap2\n      dup5\n      add\n      swap2\n        /* \"#utility.yul\":2553:2554   */\n      0x01\n        /* \"#utility.yul\":2471:2480   */\n      add\n        /* \"#utility.yul\":2442:2637   */\n      jump(tag_241)\n    tag_243:\n      pop\n        /* \"#utility.yul\":2654:2657   */\n      swap1\n      swap7\n        /* \"#utility.yul\":2153:2663   */\n      swap6\n      pop\n      pop\n      pop\n      pop\n      pop\n      pop\n      jump\t// out\n        /* \"#utility.yul\":2860:3203   */\n    tag_37:\n        /* \"#utility.yul\":3007:3009   */\n      0x20\n        /* \"#utility.yul\":2992:3010   */\n      dup2\n      add\n        /* \"#utility.yul\":3040:3041   */\n      0x04\n        /* \"#utility.yul\":3029:3042   */\n      dup4\n      lt\n        /* \"#utility.yul\":3019:3021   */\n      tag_246\n      jumpi\n        /* \"#utility.yul\":3085:3095   */\n      0x4e487b71\n        /* \"#utility.yul\":3080:3083   */\n      0xe0\n        /* \"#utility.yul\":3076:3096   */\n      shl\n        /* \"#utility.yul\":3073:3074   */\n      0x00\n        /* \"#utility.yul\":3066:3097   */\n      mstore\n        /* \"#utility.yul\":3120:3124   */\n      0x21\n        /* \"#utility.yul\":3117:3118   */\n      0x04\n        /* \"#utility.yul\":3110:3125   */\n      mstore\n        /* \"#utility.yul\":3148:3152   */\n      0x24\n        /* \"#utility.yul\":3145:3146   */\n      0x00\n        /* \"#utility.yul\":3138:3153   */\n      revert\n        /* \"#utility.yul\":3019:3021   */\n    tag_246:\n        /* \"#utility.yul\":3172:3197   */\n      swap2\n      swap1\n      mstore\n        /* \"#utility.yul\":2974:3203   */\n      swap1\n      jump\t// out\n        /* \"#utility.yul\":3208:3811   */\n    tag_26:\n        /* \"#utility.yul\":3320:3324   */\n      0x00\n        /* \"#utility.yul\":3349:3351   */\n      0x20\n        /* \"#utility.yul\":3378:3380   */\n      dup1\n        /* \"#utility.yul\":3367:3376   */\n      dup4\n        /* \"#utility.yul\":3360:3381   */\n      mstore\n        /* \"#utility.yul\":3410:3416   */\n      dup4\n        /* \"#utility.yul\":3404:3417   */\n      mload\n        /* \"#utility.yul\":3453:3459   */\n      dup1\n        /* \"#utility.yul\":3448:3450   */\n      dup3\n        /* \"#utility.yul\":3437:3446   */\n      dup6\n        /* \"#utility.yul\":3433:3451   */\n      add\n        /* \"#utility.yul\":3426:3460   */\n      mstore\n        /* \"#utility.yul\":3478:3482   */\n      dup3\n        /* \"#utility.yul\":3491:3631   */\n    tag_248:\n        /* \"#utility.yul\":3505:3511   */\n      dup2\n        /* \"#utility.yul\":3502:3503   */\n      dup2\n        /* \"#utility.yul\":3499:3512   */\n      lt\n        /* \"#utility.yul\":3491:3631   */\n      iszero\n      tag_250\n      jumpi\n        /* \"#utility.yul\":3600:3614   */\n      dup6\n      dup2\n      add\n        /* \"#utility.yul\":3596:3619   */\n      dup4\n      add\n        /* \"#utility.yul\":3590:3620   */\n      mload\n        /* \"#utility.yul\":3566:3583   */\n      dup6\n      dup3\n      add\n        /* \"#utility.yul\":3585:3587   */\n      0x40\n        /* \"#utility.yul\":3562:3588   */\n      add\n        /* \"#utility.yul\":3555:3621   */\n      mstore\n        /* \"#utility.yul\":3520:3530   */\n      dup3\n      add\n        /* \"#utility.yul\":3491:3631   */\n      jump(tag_248)\n    tag_250:\n        /* \"#utility.yul\":3649:3655   */\n      dup2\n        /* \"#utility.yul\":3646:3647   */\n      dup2\n        /* \"#utility.yul\":3643:3656   */\n      gt\n        /* \"#utility.yul\":3640:3642   */\n      iszero\n      tag_251\n      jumpi\n        /* \"#utility.yul\":3719:3723   */\n      dup4\n        /* \"#utility.yul\":3714:3716   */\n      0x40\n        /* \"#utility.yul\":3705:3711   */\n      dup4\n        /* \"#utility.yul\":3694:3703   */\n      dup8\n        /* \"#utility.yul\":3690:3712   */\n      add\n        /* \"#utility.yul\":3686:3717   */\n      add\n        /* \"#utility.yul\":3679:3724   */\n      mstore\n        /* \"#utility.yul\":3640:3642   */\n    tag_251:\n      pop\n        /* \"#utility.yul\":3795:3797   */\n      0x1f\n        /* \"#utility.yul\":3774:3789   */\n      add\n      not(0x1f)\n        /* \"#utility.yul\":3770:3799   */\n      and\n        /* \"#utility.yul\":3755:3800   */\n      swap3\n      swap1\n      swap3\n      add\n        /* \"#utility.yul\":3802:3804   */\n      0x40\n        /* \"#utility.yul\":3751:3805   */\n      add\n      swap4\n        /* \"#utility.yul\":3329:3811   */\n      swap3\n      pop\n      pop\n      pop\n      jump\t// out\n        /* \"#utility.yul\":4160:4495   */\n    tag_120:\n        /* \"#utility.yul\":4362:4364   */\n      0x20\n        /* \"#utility.yul\":4344:4365   */\n      dup1\n      dup3\n      mstore\n        /* \"#utility.yul\":4401:4403   */\n      0x0b\n        /* \"#utility.yul\":4381:4399   */\n      swap1\n      dup3\n      add\n        /* \"#utility.yul\":4374:4404   */\n      mstore\n      shl(0xaa, 0x195b99195908195d995b9d)\n        /* \"#utility.yul\":4435:4437   */\n      0x40\n        /* \"#utility.yul\":4420:4438   */\n      dup3\n      add\n        /* \"#utility.yul\":4413:4454   */\n      mstore\n        /* \"#utility.yul\":4486:4488   */\n      0x60\n        /* \"#utility.yul\":4471:4489   */\n      add\n      swap1\n        /* \"#utility.yul\":4334:4495   */\n      jump\t// out\n        /* \"#utility.yul\":5188:5518   */\n    tag_103:\n        /* \"#utility.yul\":5390:5392   */\n      0x20\n        /* \"#utility.yul\":5372:5393   */\n      dup1\n      dup3\n      mstore\n        /* \"#utility.yul\":5429:5430   */\n      0x07\n        /* \"#utility.yul\":5409:5427   */\n      swap1\n      dup3\n      add\n        /* \"#utility.yul\":5402:5431   */\n      mstore\n      shl(0xc8, 0x6f776e6572206f)\n        /* \"#utility.yul\":5462:5464   */\n      0x40\n        /* \"#utility.yul\":5447:5465   */\n      dup3\n      add\n        /* \"#utility.yul\":5440:5477   */\n      mstore\n        /* \"#utility.yul\":5509:5511   */\n      0x60\n        /* \"#utility.yul\":5494:5512   */\n      add\n      swap1\n        /* \"#utility.yul\":5362:5518   */\n      jump\t// out\n        /* \"#utility.yul\":5523:5854   */\n    tag_115:\n        /* \"#utility.yul\":5725:5727   */\n      0x20\n        /* \"#utility.yul\":5707:5728   */\n      dup1\n      dup3\n      mstore\n        /* \"#utility.yul\":5764:5765   */\n      0x08\n        /* \"#utility.yul\":5744:5762   */\n      swap1\n      dup3\n      add\n        /* \"#utility.yul\":5737:5766   */\n      mstore\n      shl(0xc2, 0x1e1908195d995b9d)\n        /* \"#utility.yul\":5797:5799   */\n      0x40\n        /* \"#utility.yul\":5782:5800   */\n      dup3\n      add\n        /* \"#utility.yul\":5775:5813   */\n      mstore\n        /* \"#utility.yul\":5845:5847   */\n      0x60\n        /* \"#utility.yul\":5830:5848   */\n      add\n      swap1\n        /* \"#utility.yul\":5697:5854   */\n      jump\t// out\n        /* \"#utility.yul\":6041:6421   */\n    tag_88:\n        /* \"#utility.yul\":6120:6121   */\n      0x01\n        /* \"#utility.yul\":6116:6128   */\n      dup2\n      dup2\n      shr\n      swap1\n        /* \"#utility.yul\":6163:6175   */\n      dup3\n      and\n      dup1\n        /* \"#utility.yul\":6184:6186   */\n      tag_260\n      jumpi\n        /* \"#utility.yul\":6238:6242   */\n      0x7f\n        /* \"#utility.yul\":6230:6236   */\n      dup3\n        /* \"#utility.yul\":6226:6243   */\n      and\n        /* \"#utility.yul\":6216:6243   */\n      swap2\n      pop\n        /* \"#utility.yul\":6184:6186   */\n    tag_260:\n        /* \"#utility.yul\":6291:6293   */\n      0x20\n        /* \"#utility.yul\":6283:6289   */\n      dup3\n        /* \"#utility.yul\":6280:6294   */\n      lt\n        /* \"#utility.yul\":6260:6278   */\n      dup2\n        /* \"#utility.yul\":6257:6295   */\n      eq\n        /* \"#utility.yul\":6254:6256   */\n      iszero\n      tag_261\n      jumpi\n        /* \"#utility.yul\":6337:6347   */\n      0x4e487b71\n        /* \"#utility.yul\":6332:6335   */\n      0xe0\n        /* \"#utility.yul\":6328:6348   */\n      shl\n        /* \"#utility.yul\":6325:6326   */\n      0x00\n        /* \"#utility.yul\":6318:6349   */\n      mstore\n        /* \"#utility.yul\":6372:6376   */\n      0x22\n        /* \"#utility.yul\":6369:6370   */\n      0x04\n        /* \"#utility.yul\":6362:6377   */\n      mstore\n        /* \"#utility.yul\":6400:6404   */\n      0x24\n        /* \"#utility.yul\":6397:6398   */\n      0x00\n        /* \"#utility.yul\":6390:6405   */\n      revert\n        /* \"#utility.yul\":6254:6256   */\n    tag_261:\n      pop\n        /* \"#utility.yul\":6096:6421   */\n      swap2\n      swap1\n      pop\n      jump\t// out\n        /* \"#utility.yul\":6426:6662   */\n    tag_133:\n        /* \"#utility.yul\":6465:6468   */\n      0x00\n      not(0x00)\n        /* \"#utility.yul\":6486:6503   */\n      dup3\n      eq\n        /* \"#utility.yul\":6483:6485   */\n      iszero\n      tag_263\n      jumpi\n      shl(0xe0, 0x4e487b71)\n        /* \"#utility.yul\":6526:6559   */\n      dup2\n      mstore\n        /* \"#utility.yul\":6582:6586   */\n      0x11\n        /* \"#utility.yul\":6579:6580   */\n      0x04\n        /* \"#utility.yul\":6572:6587   */\n      mstore\n        /* \"#utility.yul\":6612:6616   */\n      0x24\n        /* \"#utility.yul\":6533:6536   */\n      dup2\n        /* \"#utility.yul\":6600:6617   */\n      revert\n        /* \"#utility.yul\":6483:6485   */\n    tag_263:\n      pop\n        /* \"#utility.yul\":6654:6655   */\n      0x01\n        /* \"#utility.yul\":6643:6656   */\n      add\n      swap1\n        /* \"#utility.yul\":6473:6662   */\n      jump\t// out\n        /* \"#utility.yul\":6667:6794   */\n    tag_233:\n        /* \"#utility.yul\":6728:6738   */\n      0x4e487b71\n        /* \"#utility.yul\":6723:6726   */\n      0xe0\n        /* \"#utility.yul\":6719:6739   */\n      shl\n        /* \"#utility.yul\":6716:6717   */\n      0x00\n        /* \"#utility.yul\":6709:6740   */\n      mstore\n        /* \"#utility.yul\":6759:6763   */\n      0x41\n        /* \"#utility.yul\":6756:6757   */\n      0x04\n        /* \"#utility.yul\":6749:6764   */\n      mstore\n        /* \"#utility.yul\":6783:6787   */\n      0x24\n        /* \"#utility.yul\":6780:6781   */\n      0x00\n        /* \"#utility.yul\":6773:6788   */\n      revert\n\n    auxdata: 0xa2646970667358221220af99130d05edf2b71ed1f071220d6d28d1e1343705d06f16c84c256dce483eac64736f6c63430008040033\n}\n",
				"bytecode": {
					"linkReferences": {},
					"object": "6080604052600054600680546001600160a01b0390921661010002610100600160a81b03199092169190911790553480156200003a57600080fd5b5060405162001245380380620012458339810160408190526200005d91620002b2565b600660019054906101000a90046001600160a01b03166001600160a01b031663c45a01556040518163ffffffff1660e01b815260040160206040518083038186803b158015620000ac57600080fd5b505afa158015620000c1573d6000803e3d6000fd5b505050506040513d601f19601f82011682018060405250810190620000e791906200028e565b6001600160a01b0316336001600160a01b031614620001355760405162461bcd60e51b8152602060048201526005602482015264667479206f60d81b60448201526064015b60405180910390fd5b670de0b6b3a76400008110156200017d5760405162461bcd60e51b815260206004820152600b60248201526a78206d696e207374616b6560a81b60448201526064016200012c565b825162000192906005906020860190620001cb565b50600180546001600160a01b0319166001600160a01b039590951694909417909355600255506003556006805460ff1916905562000400565b828054620001d990620003ad565b90600052602060002090601f016020900481019282620001fd576000855562000248565b82601f106200021857805160ff191683800117855562000248565b8280016001018555821562000248579182015b82811115620002485782518255916020019190600101906200022b565b50620002569291506200025a565b5090565b5b808211156200025657600081556001016200025b565b80516001600160a01b03811681146200028957600080fd5b919050565b600060208284031215620002a0578081fd5b620002ab8262000271565b9392505050565b60008060008060808587031215620002c8578283fd5b620002d38562000271565b602086810151919550906001600160401b0380821115620002f2578586fd5b818801915088601f83011262000306578586fd5b8151818111156200031b576200031b620003ea565b604051601f8201601f19908116603f01168101908382118183101715620003465762000346620003ea565b816040528281528b868487010111156200035e578889fd5b8893505b8284101562000381578484018601518185018701529285019262000362565b828411156200039257888684830101525b60408b01516060909b0151999c909b50975050505050505050565b600181811c90821680620003c257607f821691505b60208210811415620003e457634e487b7160e01b600052602260045260246000fd5b50919050565b634e487b7160e01b600052604160045260246000fd5b610e3580620004106000396000f3fe608060405234801561001057600080fd5b506004361061010b5760003560e01c806393e30633116100a2578063d9bbd27811610071578063d9bbd2781461020e578063e2fd38e914610216578063ec2c90161461021e578063ec5ffac214610233578063fb6c95371461023c57600080fd5b806393e30633146101ca578063b1283e77146101dd578063b75b25ec146101f0578063bc508ff4146101fb57600080fd5b806320214134116100de578063202141341461017557806378e979251461018857806384da92a71461019f57806386ec6177146101c257600080fd5b806306fdde0314610110578063179f907d1461012e57806317d7de7c14610153578063200d2ed21461015b575b600080fd5b610118610244565b6040516101259190610ccc565b60405180910390f35b6001546001600160a01b03165b6040516001600160a01b039091168152602001610125565b6101186102d2565b6006546101689060ff1681565b6040516101259190610ca4565b60015461013b906001600160a01b031681565b61019160025481565b604051908152602001610125565b6101b26101ad366004610b95565b610364565b6040519015158152602001610125565b6101b26103b6565b6101b26101d8366004610b47565b61059b565b61013b6101eb366004610c3f565b61061c565b60065460ff16610168565b6101b2610209366004610c3f565b610646565b600354610191565b6101b2610710565b6102266108aa565b6040516101259190610c57565b61019160035481565b6101b261090b565b6005805461025190610d87565b80601f016020809104026020016040519081016040528092919081815260200182805461027d90610d87565b80156102ca5780601f1061029f576101008083540402835291602001916102ca565b820191906000526020600020905b8154815290600101906020018083116102ad57829003601f168201915b505050505081565b6060600580546102e190610d87565b80601f016020809104026020016040519081016040528092919081815260200182805461030d90610d87565b801561035a5780601f1061032f5761010080835404028352916020019161035a565b820191906000526020600020905b81548152906001019060200180831161033d57829003601f168201915b5050505050905090565b6001546000906001600160a01b0316331461039a5760405162461bcd60e51b815260040161039190610d44565b60405180910390fd5b81516103ad906005906020850190610aae565b50600192915050565b6001546000906001600160a01b031633146103e35760405162461bcd60e51b815260040161039190610d44565b600360065460ff16600381111561040a57634e487b7160e01b600052602160045260246000fd5b14156104285760405162461bcd60e51b815260040161039190610d65565b600260065460ff16600381111561044f57634e487b7160e01b600052602160045260246000fd5b141561046d5760405162461bcd60e51b815260040161039190610d1f565b600160005b6004548110156105445760006004828154811061049f57634e487b7160e01b600052603260045260246000fd5b6000918252602091829020015460408051632f6498c360e21b815290516001600160a01b039092169350839263bd92630c92600480840193829003018186803b1580156104eb57600080fd5b505afa1580156104ff573d6000803e3d6000fd5b505050506040513d601f19601f820116820180604052508101906105239190610b75565b610531576000925050610544565b508061053c81610dc2565b915050610472565b50806105875760405162461bcd60e51b8152602060048201526012602482015271185b1b081b5add081b9d081cd95d1d1b195960721b6044820152606401610391565b50506006805460ff19166002179055600190565b6001546000906001600160a01b031633146105c85760405162461bcd60e51b815260040161039190610d44565b5060048054600181810183556000929092527f8a35acfbc15ff81a39ae7d344fd709f28e8600b4aa8c65c6b64bfe7fe36bd19b0180546001600160a01b0384166001600160a01b0319909116179055919050565b6004818154811061062c57600080fd5b6000918252602090912001546001600160a01b0316905081565b6001546000906001600160a01b031633146106735760405162461bcd60e51b815260040161039190610d44565b600360065460ff16600381111561069a57634e487b7160e01b600052602160045260246000fd5b14156106b85760405162461bcd60e51b815260040161039190610d65565b600260065460ff1660038111156106df57634e487b7160e01b600052602160045260246000fd5b14156106fd5760405162461bcd60e51b815260040161039190610d1f565b506002556006805460ff19169055600190565b6001546000906001600160a01b0316331461073d5760405162461bcd60e51b815260040161039190610d44565b600360065460ff16600381111561076457634e487b7160e01b600052602160045260246000fd5b14156107825760405162461bcd60e51b815260040161039190610d65565b600260065460ff1660038111156107a957634e487b7160e01b600052602160045260246000fd5b14156107c75760405162461bcd60e51b815260040161039190610d1f565b600160065460ff1660038111156107ee57634e487b7160e01b600052602160045260246000fd5b141561082b5760405162461bcd60e51b815260206004820152600c60248201526b616c7265616479206c69766560a01b6044820152606401610391565b600060065460ff16600381111561085257634e487b7160e01b600052602160045260246000fd5b141561086a576006805460ff191660011790556108a4565b60405162461bcd60e51b815260206004820152600f60248201526e6572723a206261642073746174757360881b6044820152606401610391565b50600190565b6060600480548060200260200160405190810160405280929190818152602001828054801561035a57602002820191906000526020600020905b81546001600160a01b031681526001909101906020018083116108e4575050505050905090565b6001546000906001600160a01b031633146109385760405162461bcd60e51b815260040161039190610d44565b600360065460ff16600381111561095f57634e487b7160e01b600052602160045260246000fd5b141561097d5760405162461bcd60e51b815260040161039190610d65565b600260065460ff1660038111156109a457634e487b7160e01b600052602160045260246000fd5b14156109c25760405162461bcd60e51b815260040161039190610d1f565b60005b600454811015610a9a576000600482815481106109f257634e487b7160e01b600052603260045260246000fd5b9060005260206000200160009054906101000a90046001600160a01b03169050806001600160a01b0316636bfefd6b6040518163ffffffff1660e01b8152600401602060405180830381600087803b158015610a4d57600080fd5b505af1158015610a61573d6000803e3d6000fd5b505050506040513d601f19601f82011682018060405250810190610a859190610b75565b50508080610a9290610dc2565b9150506109c5565b50506006805460ff19166003179055600190565b828054610aba90610d87565b90600052602060002090601f016020900481019282610adc5760008555610b22565b82601f10610af557805160ff1916838001178555610b22565b82800160010185558215610b22579182015b82811115610b22578251825591602001919060010190610b07565b50610b2e929150610b32565b5090565b5b80821115610b2e5760008155600101610b33565b600060208284031215610b58578081fd5b81356001600160a01b0381168114610b6e578182fd5b9392505050565b600060208284031215610b86578081fd5b81518015158114610b6e578182fd5b600060208284031215610ba6578081fd5b813567ffffffffffffffff80821115610bbd578283fd5b818401915084601f830112610bd0578283fd5b813581811115610be257610be2610de9565b604051601f8201601f19908116603f01168101908382118183101715610c0a57610c0a610de9565b81604052828152876020848701011115610c22578586fd5b826020860160208301379182016020019490945295945050505050565b600060208284031215610c50578081fd5b5035919050565b6020808252825182820181905260009190848201906040850190845b81811015610c985783516001600160a01b031683529284019291840191600101610c73565b50909695505050505050565b6020810160048310610cc657634e487b7160e01b600052602160045260246000fd5b91905290565b6000602080835283518082850152825b81811015610cf857858101830151858201604001528201610cdc565b81811115610d095783604083870101525b50601f01601f1916929092016040019392505050565b6020808252600b908201526a195b99195908195d995b9d60aa1b604082015260600190565b6020808252600790820152666f776e6572206f60c81b604082015260600190565b6020808252600890820152671e1908195d995b9d60c21b604082015260600190565b600181811c90821680610d9b57607f821691505b60208210811415610dbc57634e487b7160e01b600052602260045260246000fd5b50919050565b6000600019821415610de257634e487b7160e01b81526011600452602481fd5b5060010190565b634e487b7160e01b600052604160045260246000fdfea2646970667358221220af99130d05edf2b71ed1f071220d6d28d1e1343705d06f16c84c256dce483eac64736f6c63430008040033",
					"opcodes": "PUSH1 0x80 PUSH1 0x40 MSTORE PUSH1 0x0 SLOAD PUSH1 0x6 DUP1 SLOAD PUSH1 0x1 PUSH1 0x1 PUSH1 0xA0 SHL SUB SWAP1 SWAP3 AND PUSH2 0x100 MUL PUSH2 0x100 PUSH1 0x1 PUSH1 0xA8 SHL SUB NOT SWAP1 SWAP3 AND SWAP2 SWAP1 SWAP2 OR SWAP1 SSTORE CALLVALUE DUP1 ISZERO PUSH3 0x3A JUMPI PUSH1 0x0 DUP1 REVERT JUMPDEST POP PUSH1 0x40 MLOAD PUSH3 0x1245 CODESIZE SUB DUP1 PUSH3 0x1245 DUP4 CODECOPY DUP2 ADD PUSH1 0x40 DUP2 SWAP1 MSTORE PUSH3 0x5D SWAP2 PUSH3 0x2B2 JUMP JUMPDEST PUSH1 0x6 PUSH1 0x1 SWAP1 SLOAD SWAP1 PUSH2 0x100 EXP SWAP1 DIV PUSH1 0x1 PUSH1 0x1 PUSH1 0xA0 SHL SUB AND PUSH1 0x1 PUSH1 0x1 PUSH1 0xA0 SHL SUB AND PUSH4 0xC45A0155 PUSH1 0x40 MLOAD DUP2 PUSH4 0xFFFFFFFF AND PUSH1 0xE0 SHL DUP2 MSTORE PUSH1 0x4 ADD PUSH1 0x20 PUSH1 0x40 MLOAD DUP1 DUP4 SUB DUP2 DUP7 DUP1 EXTCODESIZE ISZERO DUP1 ISZERO PUSH3 0xAC JUMPI PUSH1 0x0 DUP1 REVERT JUMPDEST POP GAS STATICCALL ISZERO DUP1 ISZERO PUSH3 0xC1 JUMPI RETURNDATASIZE PUSH1 0x0 DUP1 RETURNDATACOPY RETURNDATASIZE PUSH1 0x0 REVERT JUMPDEST POP POP POP POP PUSH1 0x40 MLOAD RETURNDATASIZE PUSH1 0x1F NOT PUSH1 0x1F DUP3 ADD AND DUP3 ADD DUP1 PUSH1 0x40 MSTORE POP DUP2 ADD SWAP1 PUSH3 0xE7 SWAP2 SWAP1 PUSH3 0x28E JUMP JUMPDEST PUSH1 0x1 PUSH1 0x1 PUSH1 0xA0 SHL SUB AND CALLER PUSH1 0x1 PUSH1 0x1 PUSH1 0xA0 SHL SUB AND EQ PUSH3 0x135 JUMPI PUSH1 0x40 MLOAD PUSH3 0x461BCD PUSH1 0xE5 SHL DUP2 MSTORE PUSH1 0x20 PUSH1 0x4 DUP3 ADD MSTORE PUSH1 0x5 PUSH1 0x24 DUP3 ADD MSTORE PUSH5 0x667479206F PUSH1 0xD8 SHL PUSH1 0x44 DUP3 ADD MSTORE PUSH1 0x64 ADD JUMPDEST PUSH1 0x40 MLOAD DUP1 SWAP2 SUB SWAP1 REVERT JUMPDEST PUSH8 0xDE0B6B3A7640000 DUP2 LT ISZERO PUSH3 0x17D JUMPI PUSH1 0x40 MLOAD PUSH3 0x461BCD PUSH1 0xE5 SHL DUP2 MSTORE PUSH1 0x20 PUSH1 0x4 DUP3 ADD MSTORE PUSH1 0xB PUSH1 0x24 DUP3 ADD MSTORE PUSH11 0x78206D696E207374616B65 PUSH1 0xA8 SHL PUSH1 0x44 DUP3 ADD MSTORE PUSH1 0x64 ADD PUSH3 0x12C JUMP JUMPDEST DUP3 MLOAD PUSH3 0x192 SWAP1 PUSH1 0x5 SWAP1 PUSH1 0x20 DUP7 ADD SWAP1 PUSH3 0x1CB JUMP JUMPDEST POP PUSH1 0x1 DUP1 SLOAD PUSH1 0x1 PUSH1 0x1 PUSH1 0xA0 SHL SUB NOT AND PUSH1 0x1 PUSH1 0x1 PUSH1 0xA0 SHL SUB SWAP6 SWAP1 SWAP6 AND SWAP5 SWAP1 SWAP5 OR SWAP1 SWAP4 SSTORE PUSH1 0x2 SSTORE POP PUSH1 0x3 SSTORE PUSH1 0x6 DUP1 SLOAD PUSH1 0xFF NOT AND SWAP1 SSTORE PUSH3 0x400 JUMP JUMPDEST DUP3 DUP1 SLOAD PUSH3 0x1D9 SWAP1 PUSH3 0x3AD JUMP JUMPDEST SWAP1 PUSH1 0x0 MSTORE PUSH1 0x20 PUSH1 0x0 KECCAK256 SWAP1 PUSH1 0x1F ADD PUSH1 0x20 SWAP1 DIV DUP2 ADD SWAP3 DUP3 PUSH3 0x1FD JUMPI PUSH1 0x0 DUP6 SSTORE PUSH3 0x248 JUMP JUMPDEST DUP3 PUSH1 0x1F LT PUSH3 0x218 JUMPI DUP1 MLOAD PUSH1 0xFF NOT AND DUP4 DUP1 ADD OR DUP6 SSTORE PUSH3 0x248 JUMP JUMPDEST DUP3 DUP1 ADD PUSH1 0x1 ADD DUP6 SSTORE DUP3 ISZERO PUSH3 0x248 JUMPI SWAP2 DUP3 ADD JUMPDEST DUP3 DUP2 GT ISZERO PUSH3 0x248 JUMPI DUP3 MLOAD DUP3 SSTORE SWAP2 PUSH1 0x20 ADD SWAP2 SWAP1 PUSH1 0x1 ADD SWAP1 PUSH3 0x22B JUMP JUMPDEST POP PUSH3 0x256 SWAP3 SWAP2 POP PUSH3 0x25A JUMP JUMPDEST POP SWAP1 JUMP JUMPDEST JUMPDEST DUP1 DUP3 GT ISZERO PUSH3 0x256 JUMPI PUSH1 0x0 DUP2 SSTORE PUSH1 0x1 ADD PUSH3 0x25B JUMP JUMPDEST DUP1 MLOAD PUSH1 0x1 PUSH1 0x1 PUSH1 0xA0 SHL SUB DUP2 AND DUP2 EQ PUSH3 0x289 JUMPI PUSH1 0x0 DUP1 REVERT JUMPDEST SWAP2 SWAP1 POP JUMP JUMPDEST PUSH1 0x0 PUSH1 0x20 DUP3 DUP5 SUB SLT ISZERO PUSH3 0x2A0 JUMPI DUP1 DUP2 REVERT JUMPDEST PUSH3 0x2AB DUP3 PUSH3 0x271 JUMP JUMPDEST SWAP4 SWAP3 POP POP POP JUMP JUMPDEST PUSH1 0x0 DUP1 PUSH1 0x0 DUP1 PUSH1 0x80 DUP6 DUP8 SUB SLT ISZERO PUSH3 0x2C8 JUMPI DUP3 DUP4 REVERT JUMPDEST PUSH3 0x2D3 DUP6 PUSH3 0x271 JUMP JUMPDEST PUSH1 0x20 DUP7 DUP2 ADD MLOAD SWAP2 SWAP6 POP SWAP1 PUSH1 0x1 PUSH1 0x1 PUSH1 0x40 SHL SUB DUP1 DUP3 GT ISZERO PUSH3 0x2F2 JUMPI DUP6 DUP7 REVERT JUMPDEST DUP2 DUP9 ADD SWAP2 POP DUP9 PUSH1 0x1F DUP4 ADD SLT PUSH3 0x306 JUMPI DUP6 DUP7 REVERT JUMPDEST DUP2 MLOAD DUP2 DUP2 GT ISZERO PUSH3 0x31B JUMPI PUSH3 0x31B PUSH3 0x3EA JUMP JUMPDEST PUSH1 0x40 MLOAD PUSH1 0x1F DUP3 ADD PUSH1 0x1F NOT SWAP1 DUP2 AND PUSH1 0x3F ADD AND DUP2 ADD SWAP1 DUP4 DUP3 GT DUP2 DUP4 LT OR ISZERO PUSH3 0x346 JUMPI PUSH3 0x346 PUSH3 0x3EA JUMP JUMPDEST DUP2 PUSH1 0x40 MSTORE DUP3 DUP2 MSTORE DUP12 DUP7 DUP5 DUP8 ADD ADD GT ISZERO PUSH3 0x35E JUMPI DUP9 DUP10 REVERT JUMPDEST DUP9 SWAP4 POP JUMPDEST DUP3 DUP5 LT ISZERO PUSH3 0x381 JUMPI DUP5 DUP5 ADD DUP7 ADD MLOAD DUP2 DUP6 ADD DUP8 ADD MSTORE SWAP3 DUP6 ADD SWAP3 PUSH3 0x362 JUMP JUMPDEST DUP3 DUP5 GT ISZERO PUSH3 0x392 JUMPI DUP9 DUP7 DUP5 DUP4 ADD ADD MSTORE JUMPDEST PUSH1 0x40 DUP12 ADD MLOAD PUSH1 0x60 SWAP1 SWAP12 ADD MLOAD SWAP10 SWAP13 SWAP1 SWAP12 POP SWAP8 POP POP POP POP POP POP POP POP JUMP JUMPDEST PUSH1 0x1 DUP2 DUP2 SHR SWAP1 DUP3 AND DUP1 PUSH3 0x3C2 JUMPI PUSH1 0x7F DUP3 AND SWAP2 POP JUMPDEST PUSH1 0x20 DUP3 LT DUP2 EQ ISZERO PUSH3 0x3E4 JUMPI PUSH4 0x4E487B71 PUSH1 0xE0 SHL PUSH1 0x0 MSTORE PUSH1 0x22 PUSH1 0x4 MSTORE PUSH1 0x24 PUSH1 0x0 REVERT JUMPDEST POP SWAP2 SWAP1 POP JUMP JUMPDEST PUSH4 0x4E487B71 PUSH1 0xE0 SHL PUSH1 0x0 MSTORE PUSH1 0x41 PUSH1 0x4 MSTORE PUSH1 0x24 PUSH1 0x0 REVERT JUMPDEST PUSH2 0xE35 DUP1 PUSH3 0x410 PUSH1 0x0 CODECOPY PUSH1 0x0 RETURN INVALID PUSH1 0x80 PUSH1 0x40 MSTORE CALLVALUE DUP1 ISZERO PUSH2 0x10 JUMPI PUSH1 0x0 DUP1 REVERT JUMPDEST POP PUSH1 0x4 CALLDATASIZE LT PUSH2 0x10B JUMPI PUSH1 0x0 CALLDATALOAD PUSH1 0xE0 SHR DUP1 PUSH4 0x93E30633 GT PUSH2 0xA2 JUMPI DUP1 PUSH4 0xD9BBD278 GT PUSH2 0x71 JUMPI DUP1 PUSH4 0xD9BBD278 EQ PUSH2 0x20E JUMPI DUP1 PUSH4 0xE2FD38E9 EQ PUSH2 0x216 JUMPI DUP1 PUSH4 0xEC2C9016 EQ PUSH2 0x21E JUMPI DUP1 PUSH4 0xEC5FFAC2 EQ PUSH2 0x233 JUMPI DUP1 PUSH4 0xFB6C9537 EQ PUSH2 0x23C JUMPI PUSH1 0x0 DUP1 REVERT JUMPDEST DUP1 PUSH4 0x93E30633 EQ PUSH2 0x1CA JUMPI DUP1 PUSH4 0xB1283E77 EQ PUSH2 0x1DD JUMPI DUP1 PUSH4 0xB75B25EC EQ PUSH2 0x1F0 JUMPI DUP1 PUSH4 0xBC508FF4 EQ PUSH2 0x1FB JUMPI PUSH1 0x0 DUP1 REVERT JUMPDEST DUP1 PUSH4 0x20214134 GT PUSH2 0xDE JUMPI DUP1 PUSH4 0x20214134 EQ PUSH2 0x175 JUMPI DUP1 PUSH4 0x78E97925 EQ PUSH2 0x188 JUMPI DUP1 PUSH4 0x84DA92A7 EQ PUSH2 0x19F JUMPI DUP1 PUSH4 0x86EC6177 EQ PUSH2 0x1C2 JUMPI PUSH1 0x0 DUP1 REVERT JUMPDEST DUP1 PUSH4 0x6FDDE03 EQ PUSH2 0x110 JUMPI DUP1 PUSH4 0x179F907D EQ PUSH2 0x12E JUMPI DUP1 PUSH4 0x17D7DE7C EQ PUSH2 0x153 JUMPI DUP1 PUSH4 0x200D2ED2 EQ PUSH2 0x15B JUMPI JUMPDEST PUSH1 0x0 DUP1 REVERT JUMPDEST PUSH2 0x118 PUSH2 0x244 JUMP JUMPDEST PUSH1 0x40 MLOAD PUSH2 0x125 SWAP2 SWAP1 PUSH2 0xCCC JUMP JUMPDEST PUSH1 0x40 MLOAD DUP1 SWAP2 SUB SWAP1 RETURN JUMPDEST PUSH1 0x1 SLOAD PUSH1 0x1 PUSH1 0x1 PUSH1 0xA0 SHL SUB AND JUMPDEST PUSH1 0x40 MLOAD PUSH1 0x1 PUSH1 0x1 PUSH1 0xA0 SHL SUB SWAP1 SWAP2 AND DUP2 MSTORE PUSH1 0x20 ADD PUSH2 0x125 JUMP JUMPDEST PUSH2 0x118 PUSH2 0x2D2 JUMP JUMPDEST PUSH1 0x6 SLOAD PUSH2 0x168 SWAP1 PUSH1 0xFF AND DUP2 JUMP JUMPDEST PUSH1 0x40 MLOAD PUSH2 0x125 SWAP2 SWAP1 PUSH2 0xCA4 JUMP JUMPDEST PUSH1 0x1 SLOAD PUSH2 0x13B SWAP1 PUSH1 0x1 PUSH1 0x1 PUSH1 0xA0 SHL SUB AND DUP2 JUMP JUMPDEST PUSH2 0x191 PUSH1 0x2 SLOAD DUP2 JUMP JUMPDEST PUSH1 0x40 MLOAD SWAP1 DUP2 MSTORE PUSH1 0x20 ADD PUSH2 0x125 JUMP JUMPDEST PUSH2 0x1B2 PUSH2 0x1AD CALLDATASIZE PUSH1 0x4 PUSH2 0xB95 JUMP JUMPDEST PUSH2 0x364 JUMP JUMPDEST PUSH1 0x40 MLOAD SWAP1 ISZERO ISZERO DUP2 MSTORE PUSH1 0x20 ADD PUSH2 0x125 JUMP JUMPDEST PUSH2 0x1B2 PUSH2 0x3B6 JUMP JUMPDEST PUSH2 0x1B2 PUSH2 0x1D8 CALLDATASIZE PUSH1 0x4 PUSH2 0xB47 JUMP JUMPDEST PUSH2 0x59B JUMP JUMPDEST PUSH2 0x13B PUSH2 0x1EB CALLDATASIZE PUSH1 0x4 PUSH2 0xC3F JUMP JUMPDEST PUSH2 0x61C JUMP JUMPDEST PUSH1 0x6 SLOAD PUSH1 0xFF AND PUSH2 0x168 JUMP JUMPDEST PUSH2 0x1B2 PUSH2 0x209 CALLDATASIZE PUSH1 0x4 PUSH2 0xC3F JUMP JUMPDEST PUSH2 0x646 JUMP JUMPDEST PUSH1 0x3 SLOAD PUSH2 0x191 JUMP JUMPDEST PUSH2 0x1B2 PUSH2 0x710 JUMP JUMPDEST PUSH2 0x226 PUSH2 0x8AA JUMP JUMPDEST PUSH1 0x40 MLOAD PUSH2 0x125 SWAP2 SWAP1 PUSH2 0xC57 JUMP JUMPDEST PUSH2 0x191 PUSH1 0x3 SLOAD DUP2 JUMP JUMPDEST PUSH2 0x1B2 PUSH2 0x90B JUMP JUMPDEST PUSH1 0x5 DUP1 SLOAD PUSH2 0x251 SWAP1 PUSH2 0xD87 JUMP JUMPDEST DUP1 PUSH1 0x1F ADD PUSH1 0x20 DUP1 SWAP2 DIV MUL PUSH1 0x20 ADD PUSH1 0x40 MLOAD SWAP1 DUP2 ADD PUSH1 0x40 MSTORE DUP1 SWAP3 SWAP2 SWAP1 DUP2 DUP2 MSTORE PUSH1 0x20 ADD DUP3 DUP1 SLOAD PUSH2 0x27D SWAP1 PUSH2 0xD87 JUMP JUMPDEST DUP1 ISZERO PUSH2 0x2CA JUMPI DUP1 PUSH1 0x1F LT PUSH2 0x29F JUMPI PUSH2 0x100 DUP1 DUP4 SLOAD DIV MUL DUP4 MSTORE SWAP2 PUSH1 0x20 ADD SWAP2 PUSH2 0x2CA JUMP JUMPDEST DUP3 ADD SWAP2 SWAP1 PUSH1 0x0 MSTORE PUSH1 0x20 PUSH1 0x0 KECCAK256 SWAP1 JUMPDEST DUP2 SLOAD DUP2 MSTORE SWAP1 PUSH1 0x1 ADD SWAP1 PUSH1 0x20 ADD DUP1 DUP4 GT PUSH2 0x2AD JUMPI DUP3 SWAP1 SUB PUSH1 0x1F AND DUP3 ADD SWAP2 JUMPDEST POP POP POP POP POP DUP2 JUMP JUMPDEST PUSH1 0x60 PUSH1 0x5 DUP1 SLOAD PUSH2 0x2E1 SWAP1 PUSH2 0xD87 JUMP JUMPDEST DUP1 PUSH1 0x1F ADD PUSH1 0x20 DUP1 SWAP2 DIV MUL PUSH1 0x20 ADD PUSH1 0x40 MLOAD SWAP1 DUP2 ADD PUSH1 0x40 MSTORE DUP1 SWAP3 SWAP2 SWAP1 DUP2 DUP2 MSTORE PUSH1 0x20 ADD DUP3 DUP1 SLOAD PUSH2 0x30D SWAP1 PUSH2 0xD87 JUMP JUMPDEST DUP1 ISZERO PUSH2 0x35A JUMPI DUP1 PUSH1 0x1F LT PUSH2 0x32F JUMPI PUSH2 0x100 DUP1 DUP4 SLOAD DIV MUL DUP4 MSTORE SWAP2 PUSH1 0x20 ADD SWAP2 PUSH2 0x35A JUMP JUMPDEST DUP3 ADD SWAP2 SWAP1 PUSH1 0x0 MSTORE PUSH1 0x20 PUSH1 0x0 KECCAK256 SWAP1 JUMPDEST DUP2 SLOAD DUP2 MSTORE SWAP1 PUSH1 0x1 ADD SWAP1 PUSH1 0x20 ADD DUP1 DUP4 GT PUSH2 0x33D JUMPI DUP3 SWAP1 SUB PUSH1 0x1F AND DUP3 ADD SWAP2 JUMPDEST POP POP POP POP POP SWAP1 POP SWAP1 JUMP JUMPDEST PUSH1 0x1 SLOAD PUSH1 0x0 SWAP1 PUSH1 0x1 PUSH1 0x1 PUSH1 0xA0 SHL SUB AND CALLER EQ PUSH2 0x39A JUMPI PUSH1 0x40 MLOAD PUSH3 0x461BCD PUSH1 0xE5 SHL DUP2 MSTORE PUSH1 0x4 ADD PUSH2 0x391 SWAP1 PUSH2 0xD44 JUMP JUMPDEST PUSH1 0x40 MLOAD DUP1 SWAP2 SUB SWAP1 REVERT JUMPDEST DUP2 MLOAD PUSH2 0x3AD SWAP1 PUSH1 0x5 SWAP1 PUSH1 0x20 DUP6 ADD SWAP1 PUSH2 0xAAE JUMP JUMPDEST POP PUSH1 0x1 SWAP3 SWAP2 POP POP JUMP JUMPDEST PUSH1 0x1 SLOAD PUSH1 0x0 SWAP1 PUSH1 0x1 PUSH1 0x1 PUSH1 0xA0 SHL SUB AND CALLER EQ PUSH2 0x3E3 JUMPI PUSH1 0x40 MLOAD PUSH3 0x461BCD PUSH1 0xE5 SHL DUP2 MSTORE PUSH1 0x4 ADD PUSH2 0x391 SWAP1 PUSH2 0xD44 JUMP JUMPDEST PUSH1 0x3 PUSH1 0x6 SLOAD PUSH1 0xFF AND PUSH1 0x3 DUP2 GT ISZERO PUSH2 0x40A JUMPI PUSH4 0x4E487B71 PUSH1 0xE0 SHL PUSH1 0x0 MSTORE PUSH1 0x21 PUSH1 0x4 MSTORE PUSH1 0x24 PUSH1 0x0 REVERT JUMPDEST EQ ISZERO PUSH2 0x428 JUMPI PUSH1 0x40 MLOAD PUSH3 0x461BCD PUSH1 0xE5 SHL DUP2 MSTORE PUSH1 0x4 ADD PUSH2 0x391 SWAP1 PUSH2 0xD65 JUMP JUMPDEST PUSH1 0x2 PUSH1 0x6 SLOAD PUSH1 0xFF AND PUSH1 0x3 DUP2 GT ISZERO PUSH2 0x44F JUMPI PUSH4 0x4E487B71 PUSH1 0xE0 SHL PUSH1 0x0 MSTORE PUSH1 0x21 PUSH1 0x4 MSTORE PUSH1 0x24 PUSH1 0x0 REVERT JUMPDEST EQ ISZERO PUSH2 0x46D JUMPI PUSH1 0x40 MLOAD PUSH3 0x461BCD PUSH1 0xE5 SHL DUP2 MSTORE PUSH1 0x4 ADD PUSH2 0x391 SWAP1 PUSH2 0xD1F JUMP JUMPDEST PUSH1 0x1 PUSH1 0x0 JUMPDEST PUSH1 0x4 SLOAD DUP2 LT ISZERO PUSH2 0x544 JUMPI PUSH1 0x0 PUSH1 0x4 DUP3 DUP2 SLOAD DUP2 LT PUSH2 0x49F JUMPI PUSH4 0x4E487B71 PUSH1 0xE0 SHL PUSH1 0x0 MSTORE PUSH1 0x32 PUSH1 0x4 MSTORE PUSH1 0x24 PUSH1 0x0 REVERT JUMPDEST PUSH1 0x0 SWAP2 DUP3 MSTORE PUSH1 0x20 SWAP2 DUP3 SWAP1 KECCAK256 ADD SLOAD PUSH1 0x40 DUP1 MLOAD PUSH4 0x2F6498C3 PUSH1 0xE2 SHL DUP2 MSTORE SWAP1 MLOAD PUSH1 0x1 PUSH1 0x1 PUSH1 0xA0 SHL SUB SWAP1 SWAP3 AND SWAP4 POP DUP4 SWAP3 PUSH4 0xBD92630C SWAP3 PUSH1 0x4 DUP1 DUP5 ADD SWAP4 DUP3 SWAP1 SUB ADD DUP2 DUP7 DUP1 EXTCODESIZE ISZERO DUP1 ISZERO PUSH2 0x4EB JUMPI PUSH1 0x0 DUP1 REVERT JUMPDEST POP GAS STATICCALL ISZERO DUP1 ISZERO PUSH2 0x4FF JUMPI RETURNDATASIZE PUSH1 0x0 DUP1 RETURNDATACOPY RETURNDATASIZE PUSH1 0x0 REVERT JUMPDEST POP POP POP POP PUSH1 0x40 MLOAD RETURNDATASIZE PUSH1 0x1F NOT PUSH1 0x1F DUP3 ADD AND DUP3 ADD DUP1 PUSH1 0x40 MSTORE POP DUP2 ADD SWAP1 PUSH2 0x523 SWAP2 SWAP1 PUSH2 0xB75 JUMP JUMPDEST PUSH2 0x531 JUMPI PUSH1 0x0 SWAP3 POP POP PUSH2 0x544 JUMP JUMPDEST POP DUP1 PUSH2 0x53C DUP2 PUSH2 0xDC2 JUMP JUMPDEST SWAP2 POP POP PUSH2 0x472 JUMP JUMPDEST POP DUP1 PUSH2 0x587 JUMPI PUSH1 0x40 MLOAD PUSH3 0x461BCD PUSH1 0xE5 SHL DUP2 MSTORE PUSH1 0x20 PUSH1 0x4 DUP3 ADD MSTORE PUSH1 0x12 PUSH1 0x24 DUP3 ADD MSTORE PUSH18 0x185B1B081B5ADD081B9D081CD95D1D1B1959 PUSH1 0x72 SHL PUSH1 0x44 DUP3 ADD MSTORE PUSH1 0x64 ADD PUSH2 0x391 JUMP JUMPDEST POP POP PUSH1 0x6 DUP1 SLOAD PUSH1 0xFF NOT AND PUSH1 0x2 OR SWAP1 SSTORE PUSH1 0x1 SWAP1 JUMP JUMPDEST PUSH1 0x1 SLOAD PUSH1 0x0 SWAP1 PUSH1 0x1 PUSH1 0x1 PUSH1 0xA0 SHL SUB AND CALLER EQ PUSH2 0x5C8 JUMPI PUSH1 0x40 MLOAD PUSH3 0x461BCD PUSH1 0xE5 SHL DUP2 MSTORE PUSH1 0x4 ADD PUSH2 0x391 SWAP1 PUSH2 0xD44 JUMP JUMPDEST POP PUSH1 0x4 DUP1 SLOAD PUSH1 0x1 DUP2 DUP2 ADD DUP4 SSTORE PUSH1 0x0 SWAP3 SWAP1 SWAP3 MSTORE PUSH32 0x8A35ACFBC15FF81A39AE7D344FD709F28E8600B4AA8C65C6B64BFE7FE36BD19B ADD DUP1 SLOAD PUSH1 0x1 PUSH1 0x1 PUSH1 0xA0 SHL SUB DUP5 AND PUSH1 0x1 PUSH1 0x1 PUSH1 0xA0 SHL SUB NOT SWAP1 SWAP2 AND OR SWAP1 SSTORE SWAP2 SWAP1 POP JUMP JUMPDEST PUSH1 0x4 DUP2 DUP2 SLOAD DUP2 LT PUSH2 0x62C JUMPI PUSH1 0x0 DUP1 REVERT JUMPDEST PUSH1 0x0 SWAP2 DUP3 MSTORE PUSH1 0x20 SWAP1 SWAP2 KECCAK256 ADD SLOAD PUSH1 0x1 PUSH1 0x1 PUSH1 0xA0 SHL SUB AND SWAP1 POP DUP2 JUMP JUMPDEST PUSH1 0x1 SLOAD PUSH1 0x0 SWAP1 PUSH1 0x1 PUSH1 0x1 PUSH1 0xA0 SHL SUB AND CALLER EQ PUSH2 0x673 JUMPI PUSH1 0x40 MLOAD PUSH3 0x461BCD PUSH1 0xE5 SHL DUP2 MSTORE PUSH1 0x4 ADD PUSH2 0x391 SWAP1 PUSH2 0xD44 JUMP JUMPDEST PUSH1 0x3 PUSH1 0x6 SLOAD PUSH1 0xFF AND PUSH1 0x3 DUP2 GT ISZERO PUSH2 0x69A JUMPI PUSH4 0x4E487B71 PUSH1 0xE0 SHL PUSH1 0x0 MSTORE PUSH1 0x21 PUSH1 0x4 MSTORE PUSH1 0x24 PUSH1 0x0 REVERT JUMPDEST EQ ISZERO PUSH2 0x6B8 JUMPI PUSH1 0x40 MLOAD PUSH3 0x461BCD PUSH1 0xE5 SHL DUP2 MSTORE PUSH1 0x4 ADD PUSH2 0x391 SWAP1 PUSH2 0xD65 JUMP JUMPDEST PUSH1 0x2 PUSH1 0x6 SLOAD PUSH1 0xFF AND PUSH1 0x3 DUP2 GT ISZERO PUSH2 0x6DF JUMPI PUSH4 0x4E487B71 PUSH1 0xE0 SHL PUSH1 0x0 MSTORE PUSH1 0x21 PUSH1 0x4 MSTORE PUSH1 0x24 PUSH1 0x0 REVERT JUMPDEST EQ ISZERO PUSH2 0x6FD JUMPI PUSH1 0x40 MLOAD PUSH3 0x461BCD PUSH1 0xE5 SHL DUP2 MSTORE PUSH1 0x4 ADD PUSH2 0x391 SWAP1 PUSH2 0xD1F JUMP JUMPDEST POP PUSH1 0x2 SSTORE PUSH1 0x6 DUP1 SLOAD PUSH1 0xFF NOT AND SWAP1 SSTORE PUSH1 0x1 SWAP1 JUMP JUMPDEST PUSH1 0x1 SLOAD PUSH1 0x0 SWAP1 PUSH1 0x1 PUSH1 0x1 PUSH1 0xA0 SHL SUB AND CALLER EQ PUSH2 0x73D JUMPI PUSH1 0x40 MLOAD PUSH3 0x461BCD PUSH1 0xE5 SHL DUP2 MSTORE PUSH1 0x4 ADD PUSH2 0x391 SWAP1 PUSH2 0xD44 JUMP JUMPDEST PUSH1 0x3 PUSH1 0x6 SLOAD PUSH1 0xFF AND PUSH1 0x3 DUP2 GT ISZERO PUSH2 0x764 JUMPI PUSH4 0x4E487B71 PUSH1 0xE0 SHL PUSH1 0x0 MSTORE PUSH1 0x21 PUSH1 0x4 MSTORE PUSH1 0x24 PUSH1 0x0 REVERT JUMPDEST EQ ISZERO PUSH2 0x782 JUMPI PUSH1 0x40 MLOAD PUSH3 0x461BCD PUSH1 0xE5 SHL DUP2 MSTORE PUSH1 0x4 ADD PUSH2 0x391 SWAP1 PUSH2 0xD65 JUMP JUMPDEST PUSH1 0x2 PUSH1 0x6 SLOAD PUSH1 0xFF AND PUSH1 0x3 DUP2 GT ISZERO PUSH2 0x7A9 JUMPI PUSH4 0x4E487B71 PUSH1 0xE0 SHL PUSH1 0x0 MSTORE PUSH1 0x21 PUSH1 0x4 MSTORE PUSH1 0x24 PUSH1 0x0 REVERT JUMPDEST EQ ISZERO PUSH2 0x7C7 JUMPI PUSH1 0x40 MLOAD PUSH3 0x461BCD PUSH1 0xE5 SHL DUP2 MSTORE PUSH1 0x4 ADD PUSH2 0x391 SWAP1 PUSH2 0xD1F JUMP JUMPDEST PUSH1 0x1 PUSH1 0x6 SLOAD PUSH1 0xFF AND PUSH1 0x3 DUP2 GT ISZERO PUSH2 0x7EE JUMPI PUSH4 0x4E487B71 PUSH1 0xE0 SHL PUSH1 0x0 MSTORE PUSH1 0x21 PUSH1 0x4 MSTORE PUSH1 0x24 PUSH1 0x0 REVERT JUMPDEST EQ ISZERO PUSH2 0x82B JUMPI PUSH1 0x40 MLOAD PUSH3 0x461BCD PUSH1 0xE5 SHL DUP2 MSTORE PUSH1 0x20 PUSH1 0x4 DUP3 ADD MSTORE PUSH1 0xC PUSH1 0x24 DUP3 ADD MSTORE PUSH12 0x616C7265616479206C697665 PUSH1 0xA0 SHL PUSH1 0x44 DUP3 ADD MSTORE PUSH1 0x64 ADD PUSH2 0x391 JUMP JUMPDEST PUSH1 0x0 PUSH1 0x6 SLOAD PUSH1 0xFF AND PUSH1 0x3 DUP2 GT ISZERO PUSH2 0x852 JUMPI PUSH4 0x4E487B71 PUSH1 0xE0 SHL PUSH1 0x0 MSTORE PUSH1 0x21 PUSH1 0x4 MSTORE PUSH1 0x24 PUSH1 0x0 REVERT JUMPDEST EQ ISZERO PUSH2 0x86A JUMPI PUSH1 0x6 DUP1 SLOAD PUSH1 0xFF NOT AND PUSH1 0x1 OR SWAP1 SSTORE PUSH2 0x8A4 JUMP JUMPDEST PUSH1 0x40 MLOAD PUSH3 0x461BCD PUSH1 0xE5 SHL DUP2 MSTORE PUSH1 0x20 PUSH1 0x4 DUP3 ADD MSTORE PUSH1 0xF PUSH1 0x24 DUP3 ADD MSTORE PUSH15 0x6572723A2062616420737461747573 PUSH1 0x88 SHL PUSH1 0x44 DUP3 ADD MSTORE PUSH1 0x64 ADD PUSH2 0x391 JUMP JUMPDEST POP PUSH1 0x1 SWAP1 JUMP JUMPDEST PUSH1 0x60 PUSH1 0x4 DUP1 SLOAD DUP1 PUSH1 0x20 MUL PUSH1 0x20 ADD PUSH1 0x40 MLOAD SWAP1 DUP2 ADD PUSH1 0x40 MSTORE DUP1 SWAP3 SWAP2 SWAP1 DUP2 DUP2 MSTORE PUSH1 0x20 ADD DUP3 DUP1 SLOAD DUP1 ISZERO PUSH2 0x35A JUMPI PUSH1 0x20 MUL DUP3 ADD SWAP2 SWAP1 PUSH1 0x0 MSTORE PUSH1 0x20 PUSH1 0x0 KECCAK256 SWAP1 JUMPDEST DUP2 SLOAD PUSH1 0x1 PUSH1 0x1 PUSH1 0xA0 SHL SUB AND DUP2 MSTORE PUSH1 0x1 SWAP1 SWAP2 ADD SWAP1 PUSH1 0x20 ADD DUP1 DUP4 GT PUSH2 0x8E4 JUMPI POP POP POP POP POP SWAP1 POP SWAP1 JUMP JUMPDEST PUSH1 0x1 SLOAD PUSH1 0x0 SWAP1 PUSH1 0x1 PUSH1 0x1 PUSH1 0xA0 SHL SUB AND CALLER EQ PUSH2 0x938 JUMPI PUSH1 0x40 MLOAD PUSH3 0x461BCD PUSH1 0xE5 SHL DUP2 MSTORE PUSH1 0x4 ADD PUSH2 0x391 SWAP1 PUSH2 0xD44 JUMP JUMPDEST PUSH1 0x3 PUSH1 0x6 SLOAD PUSH1 0xFF AND PUSH1 0x3 DUP2 GT ISZERO PUSH2 0x95F JUMPI PUSH4 0x4E487B71 PUSH1 0xE0 SHL PUSH1 0x0 MSTORE PUSH1 0x21 PUSH1 0x4 MSTORE PUSH1 0x24 PUSH1 0x0 REVERT JUMPDEST EQ ISZERO PUSH2 0x97D JUMPI PUSH1 0x40 MLOAD PUSH3 0x461BCD PUSH1 0xE5 SHL DUP2 MSTORE PUSH1 0x4 ADD PUSH2 0x391 SWAP1 PUSH2 0xD65 JUMP JUMPDEST PUSH1 0x2 PUSH1 0x6 SLOAD PUSH1 0xFF AND PUSH1 0x3 DUP2 GT ISZERO PUSH2 0x9A4 JUMPI PUSH4 0x4E487B71 PUSH1 0xE0 SHL PUSH1 0x0 MSTORE PUSH1 0x21 PUSH1 0x4 MSTORE PUSH1 0x24 PUSH1 0x0 REVERT JUMPDEST EQ ISZERO PUSH2 0x9C2 JUMPI PUSH1 0x40 MLOAD PUSH3 0x461BCD PUSH1 0xE5 SHL DUP2 MSTORE PUSH1 0x4 ADD PUSH2 0x391 SWAP1 PUSH2 0xD1F JUMP JUMPDEST PUSH1 0x0 JUMPDEST PUSH1 0x4 SLOAD DUP2 LT ISZERO PUSH2 0xA9A JUMPI PUSH1 0x0 PUSH1 0x4 DUP3 DUP2 SLOAD DUP2 LT PUSH2 0x9F2 JUMPI PUSH4 0x4E487B71 PUSH1 0xE0 SHL PUSH1 0x0 MSTORE PUSH1 0x32 PUSH1 0x4 MSTORE PUSH1 0x24 PUSH1 0x0 REVERT JUMPDEST SWAP1 PUSH1 0x0 MSTORE PUSH1 0x20 PUSH1 0x0 KECCAK256 ADD PUSH1 0x0 SWAP1 SLOAD SWAP1 PUSH2 0x100 EXP SWAP1 DIV PUSH1 0x1 PUSH1 0x1 PUSH1 0xA0 SHL SUB AND SWAP1 POP DUP1 PUSH1 0x1 PUSH1 0x1 PUSH1 0xA0 SHL SUB AND PUSH4 0x6BFEFD6B PUSH1 0x40 MLOAD DUP2 PUSH4 0xFFFFFFFF AND PUSH1 0xE0 SHL DUP2 MSTORE PUSH1 0x4 ADD PUSH1 0x20 PUSH1 0x40 MLOAD DUP1 DUP4 SUB DUP2 PUSH1 0x0 DUP8 DUP1 EXTCODESIZE ISZERO DUP1 ISZERO PUSH2 0xA4D JUMPI PUSH1 0x0 DUP1 REVERT JUMPDEST POP GAS CALL ISZERO DUP1 ISZERO PUSH2 0xA61 JUMPI RETURNDATASIZE PUSH1 0x0 DUP1 RETURNDATACOPY RETURNDATASIZE PUSH1 0x0 REVERT JUMPDEST POP POP POP POP PUSH1 0x40 MLOAD RETURNDATASIZE PUSH1 0x1F NOT PUSH1 0x1F DUP3 ADD AND DUP3 ADD DUP1 PUSH1 0x40 MSTORE POP DUP2 ADD SWAP1 PUSH2 0xA85 SWAP2 SWAP1 PUSH2 0xB75 JUMP JUMPDEST POP POP DUP1 DUP1 PUSH2 0xA92 SWAP1 PUSH2 0xDC2 JUMP JUMPDEST SWAP2 POP POP PUSH2 0x9C5 JUMP JUMPDEST POP POP PUSH1 0x6 DUP1 SLOAD PUSH1 0xFF NOT AND PUSH1 0x3 OR SWAP1 SSTORE PUSH1 0x1 SWAP1 JUMP JUMPDEST DUP3 DUP1 SLOAD PUSH2 0xABA SWAP1 PUSH2 0xD87 JUMP JUMPDEST SWAP1 PUSH1 0x0 MSTORE PUSH1 0x20 PUSH1 0x0 KECCAK256 SWAP1 PUSH1 0x1F ADD PUSH1 0x20 SWAP1 DIV DUP2 ADD SWAP3 DUP3 PUSH2 0xADC JUMPI PUSH1 0x0 DUP6 SSTORE PUSH2 0xB22 JUMP JUMPDEST DUP3 PUSH1 0x1F LT PUSH2 0xAF5 JUMPI DUP1 MLOAD PUSH1 0xFF NOT AND DUP4 DUP1 ADD OR DUP6 SSTORE PUSH2 0xB22 JUMP JUMPDEST DUP3 DUP1 ADD PUSH1 0x1 ADD DUP6 SSTORE DUP3 ISZERO PUSH2 0xB22 JUMPI SWAP2 DUP3 ADD JUMPDEST DUP3 DUP2 GT ISZERO PUSH2 0xB22 JUMPI DUP3 MLOAD DUP3 SSTORE SWAP2 PUSH1 0x20 ADD SWAP2 SWAP1 PUSH1 0x1 ADD SWAP1 PUSH2 0xB07 JUMP JUMPDEST POP PUSH2 0xB2E SWAP3 SWAP2 POP PUSH2 0xB32 JUMP JUMPDEST POP SWAP1 JUMP JUMPDEST JUMPDEST DUP1 DUP3 GT ISZERO PUSH2 0xB2E JUMPI PUSH1 0x0 DUP2 SSTORE PUSH1 0x1 ADD PUSH2 0xB33 JUMP JUMPDEST PUSH1 0x0 PUSH1 0x20 DUP3 DUP5 SUB SLT ISZERO PUSH2 0xB58 JUMPI DUP1 DUP2 REVERT JUMPDEST DUP2 CALLDATALOAD PUSH1 0x1 PUSH1 0x1 PUSH1 0xA0 SHL SUB DUP2 AND DUP2 EQ PUSH2 0xB6E JUMPI DUP2 DUP3 REVERT JUMPDEST SWAP4 SWAP3 POP POP POP JUMP JUMPDEST PUSH1 0x0 PUSH1 0x20 DUP3 DUP5 SUB SLT ISZERO PUSH2 0xB86 JUMPI DUP1 DUP2 REVERT JUMPDEST DUP2 MLOAD DUP1 ISZERO ISZERO DUP2 EQ PUSH2 0xB6E JUMPI DUP2 DUP3 REVERT JUMPDEST PUSH1 0x0 PUSH1 0x20 DUP3 DUP5 SUB SLT ISZERO PUSH2 0xBA6 JUMPI DUP1 DUP2 REVERT JUMPDEST DUP2 CALLDATALOAD PUSH8 0xFFFFFFFFFFFFFFFF DUP1 DUP3 GT ISZERO PUSH2 0xBBD JUMPI DUP3 DUP4 REVERT JUMPDEST DUP2 DUP5 ADD SWAP2 POP DUP5 PUSH1 0x1F DUP4 ADD SLT PUSH2 0xBD0 JUMPI DUP3 DUP4 REVERT JUMPDEST DUP2 CALLDATALOAD DUP2 DUP2 GT ISZERO PUSH2 0xBE2 JUMPI PUSH2 0xBE2 PUSH2 0xDE9 JUMP JUMPDEST PUSH1 0x40 MLOAD PUSH1 0x1F DUP3 ADD PUSH1 0x1F NOT SWAP1 DUP2 AND PUSH1 0x3F ADD AND DUP2 ADD SWAP1 DUP4 DUP3 GT DUP2 DUP4 LT OR ISZERO PUSH2 0xC0A JUMPI PUSH2 0xC0A PUSH2 0xDE9 JUMP JUMPDEST DUP2 PUSH1 0x40 MSTORE DUP3 DUP2 MSTORE DUP8 PUSH1 0x20 DUP5 DUP8 ADD ADD GT ISZERO PUSH2 0xC22 JUMPI DUP6 DUP7 REVERT JUMPDEST DUP3 PUSH1 0x20 DUP7 ADD PUSH1 0x20 DUP4 ADD CALLDATACOPY SWAP2 DUP3 ADD PUSH1 0x20 ADD SWAP5 SWAP1 SWAP5 MSTORE SWAP6 SWAP5 POP POP POP POP POP JUMP JUMPDEST PUSH1 0x0 PUSH1 0x20 DUP3 DUP5 SUB SLT ISZERO PUSH2 0xC50 JUMPI DUP1 DUP2 REVERT JUMPDEST POP CALLDATALOAD SWAP2 SWAP1 POP JUMP JUMPDEST PUSH1 0x20 DUP1 DUP3 MSTORE DUP3 MLOAD DUP3 DUP3 ADD DUP2 SWAP1 MSTORE PUSH1 0x0 SWAP2 SWAP1 DUP5 DUP3 ADD SWAP1 PUSH1 0x40 DUP6 ADD SWAP1 DUP5 JUMPDEST DUP2 DUP2 LT ISZERO PUSH2 0xC98 JUMPI DUP4 MLOAD PUSH1 0x1 PUSH1 0x1 PUSH1 0xA0 SHL SUB AND DUP4 MSTORE SWAP3 DUP5 ADD SWAP3 SWAP2 DUP5 ADD SWAP2 PUSH1 0x1 ADD PUSH2 0xC73 JUMP JUMPDEST POP SWAP1 SWAP7 SWAP6 POP POP POP POP POP POP JUMP JUMPDEST PUSH1 0x20 DUP2 ADD PUSH1 0x4 DUP4 LT PUSH2 0xCC6 JUMPI PUSH4 0x4E487B71 PUSH1 0xE0 SHL PUSH1 0x0 MSTORE PUSH1 0x21 PUSH1 0x4 MSTORE PUSH1 0x24 PUSH1 0x0 REVERT JUMPDEST SWAP2 SWAP1 MSTORE SWAP1 JUMP JUMPDEST PUSH1 0x0 PUSH1 0x20 DUP1 DUP4 MSTORE DUP4 MLOAD DUP1 DUP3 DUP6 ADD MSTORE DUP3 JUMPDEST DUP2 DUP2 LT ISZERO PUSH2 0xCF8 JUMPI DUP6 DUP2 ADD DUP4 ADD MLOAD DUP6 DUP3 ADD PUSH1 0x40 ADD MSTORE DUP3 ADD PUSH2 0xCDC JUMP JUMPDEST DUP2 DUP2 GT ISZERO PUSH2 0xD09 JUMPI DUP4 PUSH1 0x40 DUP4 DUP8 ADD ADD MSTORE JUMPDEST POP PUSH1 0x1F ADD PUSH1 0x1F NOT AND SWAP3 SWAP1 SWAP3 ADD PUSH1 0x40 ADD SWAP4 SWAP3 POP POP POP JUMP JUMPDEST PUSH1 0x20 DUP1 DUP3 MSTORE PUSH1 0xB SWAP1 DUP3 ADD MSTORE PUSH11 0x195B99195908195D995B9D PUSH1 0xAA SHL PUSH1 0x40 DUP3 ADD MSTORE PUSH1 0x60 ADD SWAP1 JUMP JUMPDEST PUSH1 0x20 DUP1 DUP3 MSTORE PUSH1 0x7 SWAP1 DUP3 ADD MSTORE PUSH7 0x6F776E6572206F PUSH1 0xC8 SHL PUSH1 0x40 DUP3 ADD MSTORE PUSH1 0x60 ADD SWAP1 JUMP JUMPDEST PUSH1 0x20 DUP1 DUP3 MSTORE PUSH1 0x8 SWAP1 DUP3 ADD MSTORE PUSH8 0x1E1908195D995B9D PUSH1 0xC2 SHL PUSH1 0x40 DUP3 ADD MSTORE PUSH1 0x60 ADD SWAP1 JUMP JUMPDEST PUSH1 0x1 DUP2 DUP2 SHR SWAP1 DUP3 AND DUP1 PUSH2 0xD9B JUMPI PUSH1 0x7F DUP3 AND SWAP2 POP JUMPDEST PUSH1 0x20 DUP3 LT DUP2 EQ ISZERO PUSH2 0xDBC JUMPI PUSH4 0x4E487B71 PUSH1 0xE0 SHL PUSH1 0x0 MSTORE PUSH1 0x22 PUSH1 0x4 MSTORE PUSH1 0x24 PUSH1 0x0 REVERT JUMPDEST POP SWAP2 SWAP1 POP JUMP JUMPDEST PUSH1 0x0 PUSH1 0x0 NOT DUP3 EQ ISZERO PUSH2 0xDE2 JUMPI PUSH4 0x4E487B71 PUSH1 0xE0 SHL DUP2 MSTORE PUSH1 0x11 PUSH1 0x4 MSTORE PUSH1 0x24 DUP2 REVERT JUMPDEST POP PUSH1 0x1 ADD SWAP1 JUMP JUMPDEST PUSH4 0x4E487B71 PUSH1 0xE0 SHL PUSH1 0x0 MSTORE PUSH1 0x41 PUSH1 0x4 MSTORE PUSH1 0x24 PUSH1 0x0 REVERT INVALID LOG2 PUSH5 0x6970667358 0x22 SLT KECCAK256 0xAF SWAP10 SGT 0xD SDIV 0xED CALLCODE 0xB7 0x1E 0xD1 CREATE PUSH18 0x220D6D28D1E1343705D06F16C84C256DCE48 RETURNDATACOPY 0xAC PUSH5 0x736F6C6343 STOP ADDMOD DIV STOP CALLER "
				},
				"gasEstimates": {
					"creation": {
						"codeDepositCost": "727400",
						"executionCost": "infinite",
						"totalCost": "infinite"
					},
					"external": {
						"addMarket(address)": "42908",
						"cancelEvent()": "infinite",
						"endEvent()": "infinite",
						"eventOwner()": "1060",
						"getEventOwner()": "1066",
						"getEventStatus()": "1112",
						"getMarkets()": "infinite",
						"getMinimumStake()": "1014",
						"getName()": "infinite",
						"markets(uint256)": "2059",
						"minimumStake()": "1083",
						"name()": "infinite",
						"postponeEvent(uint256)": "43764",
						"startEvent()": "25372",
						"startTime()": "1040",
						"status()": "1141",
						"updateName(string)": "infinite"
					},
					"internal": {
						"getCount()": "infinite"
					}
				},
				"methodIdentifiers": {
					"addMarket(address)": "93e30633",
					"cancelEvent()": "fb6c9537",
					"endEvent()": "86ec6177",
					"eventOwner()": "20214134",
					"getEventOwner()": "179f907d",
					"getEventStatus()": "b75b25ec",
					"getMarkets()": "ec2c9016",
					"getMinimumStake()": "d9bbd278",
					"getName()": "17d7de7c",
					"markets(uint256)": "b1283e77",
					"minimumStake()": "ec5ffac2",
					"name()": "06fdde03",
					"postponeEvent(uint256)": "bc508ff4",
					"startEvent()": "e2fd38e9",
					"startTime()": "78e97925",
					"status()": "200d2ed2",
					"updateName(string)": "84da92a7"
				}
			},
			"storageLayout": {
				"storage": [
					{
						"astId": 8,
						"contract": "contracts/Event.sol:Event",
						"label": "web3betsAddress",
						"offset": 0,
						"slot": "0",
						"type": "t_address"
					},
					{
						"astId": 10,
						"contract": "contracts/Event.sol:Event",
						"label": "eventOwner",
						"offset": 0,
						"slot": "1",
						"type": "t_address"
					},
					{
						"astId": 12,
						"contract": "contracts/Event.sol:Event",
						"label": "startTime",
						"offset": 0,
						"slot": "2",
						"type": "t_uint256"
					},
					{
						"astId": 14,
						"contract": "contracts/Event.sol:Event",
						"label": "minimumStake",
						"offset": 0,
						"slot": "3",
						"type": "t_uint256"
					},
					{
						"astId": 22,
						"contract": "contracts/Event.sol:Event",
						"label": "markets",
						"offset": 0,
						"slot": "4",
						"type": "t_array(t_address)dyn_storage"
					},
					{
						"astId": 24,
						"contract": "contracts/Event.sol:Event",
						"label": "name",
						"offset": 0,
						"slot": "5",
						"type": "t_string_storage"
					},
					{
						"astId": 27,
						"contract": "contracts/Event.sol:Event",
						"label": "status",
						"offset": 0,
						"slot": "6",
						"type": "t_enum(EventStatus)430"
					},
					{
						"astId": 33,
						"contract": "contracts/Event.sol:Event",
						"label": "web3bets",
						"offset": 1,
						"slot": "6",
						"type": "t_contract(IWeb3BetsFO)639"
					}
				],
				"types": {
					"t_address": {
						"encoding": "inplace",
						"label": "address",
						"numberOfBytes": "20"
					},
					"t_array(t_address)dyn_storage": {
						"base": "t_address",
						"encoding": "dynamic_array",
						"label": "address[]",
						"numberOfBytes": "32"
					},
					"t_contract(IWeb3BetsFO)639": {
						"encoding": "inplace",
						"label": "contract IWeb3BetsFO",
						"numberOfBytes": "20"
					},
					"t_enum(EventStatus)430": {
						"encoding": "inplace",
						"label": "enum IEvent.EventStatus",
						"numberOfBytes": "1"
					},
					"t_string_storage": {
						"encoding": "bytes",
						"label": "string",
						"numberOfBytes": "32"
					},
					"t_uint256": {
						"encoding": "inplace",
						"label": "uint256",
						"numberOfBytes": "32"
					}
				}
			},
			"userdoc": {
				"kind": "user",
				"methods": {},
				"version": 1
			}
		}
	}
}