{
	"contracts/Bet.sol": {
		"Bet": {
			"abi": [
				{
					"inputs": [
						{
							"internalType": "address",
							"name": "caller_",
							"type": "address"
						},
						{
							"internalType": "address",
							"name": "market_",
							"type": "address"
						},
						{
							"internalType": "string",
							"name": "marketSide_",
							"type": "string"
						},
						{
							"internalType": "uint256",
							"name": "stake_",
							"type": "uint256"
						},
						{
							"internalType": "uint8",
							"name": "odds_",
							"type": "uint8"
						}
					],
					"stateMutability": "nonpayable",
					"type": "constructor"
				},
				{
					"inputs": [
						{
							"internalType": "address",
							"name": "_pairAddress",
							"type": "address"
						}
					],
					"name": "addPair",
					"outputs": [
						{
							"internalType": "bool",
							"name": "",
							"type": "bool"
						}
					],
					"stateMutability": "nonpayable",
					"type": "function"
				},
				{
					"inputs": [
						{
							"internalType": "uint256",
							"name": "",
							"type": "uint256"
						}
					],
					"name": "betPairs",
					"outputs": [
						{
							"internalType": "address",
							"name": "",
							"type": "address"
						}
					],
					"stateMutability": "view",
					"type": "function"
				},
				{
					"inputs": [],
					"name": "better",
					"outputs": [
						{
							"internalType": "address",
							"name": "",
							"type": "address"
						}
					],
					"stateMutability": "view",
					"type": "function"
				},
				{
					"inputs": [],
					"name": "getBetPairs",
					"outputs": [
						{
							"internalType": "address[]",
							"name": "",
							"type": "address[]"
						}
					],
					"stateMutability": "view",
					"type": "function"
				},
				{
					"inputs": [],
					"name": "market",
					"outputs": [
						{
							"internalType": "address",
							"name": "",
							"type": "address"
						}
					],
					"stateMutability": "view",
					"type": "function"
				},
				{
					"inputs": [],
					"name": "marketSide",
					"outputs": [
						{
							"internalType": "string",
							"name": "",
							"type": "string"
						}
					],
					"stateMutability": "view",
					"type": "function"
				},
				{
					"inputs": [],
					"name": "matched",
					"outputs": [
						{
							"internalType": "uint256",
							"name": "",
							"type": "uint256"
						}
					],
					"stateMutability": "view",
					"type": "function"
				},
				{
					"inputs": [],
					"name": "odds",
					"outputs": [
						{
							"internalType": "uint8",
							"name": "",
							"type": "uint8"
						}
					],
					"stateMutability": "view",
					"type": "function"
				},
				{
					"inputs": [
						{
							"internalType": "uint256",
							"name": "_amount",
							"type": "uint256"
						}
					],
					"name": "setMatched",
					"outputs": [
						{
							"internalType": "bool",
							"name": "",
							"type": "bool"
						}
					],
					"stateMutability": "nonpayable",
					"type": "function"
				},
				{
					"inputs": [],
					"name": "stake",
					"outputs": [
						{
							"internalType": "uint256",
							"name": "",
							"type": "uint256"
						}
					],
					"stateMutability": "view",
					"type": "function"
				}
			],
			"devdoc": {
				"kind": "dev",
				"methods": {},
				"version": 1
			},
			"evm": {
				"assembly": "    /* \"contracts/Bet.sol\":162:1522  contract Bet is IBet {... */\n  mstore(0x40, 0x80)\n    /* \"contracts/Bet.sol\":516:523  w3bAddr */\n  sload(0x00)\n    /* \"contracts/Bet.sol\":473:524  IWeb3BetsFO private web3bets = IWeb3BetsFO(w3bAddr) */\n  0x08\n  dup1\n  sload\n  not(sub(shl(0xa0, 0x01), 0x01))\n  and\n  sub(shl(0xa0, 0x01), 0x01)\n    /* \"contracts/Bet.sol\":516:523  w3bAddr */\n  swap1\n  swap3\n  and\n    /* \"contracts/Bet.sol\":473:524  IWeb3BetsFO private web3bets = IWeb3BetsFO(w3bAddr) */\n  swap2\n  swap1\n  swap2\n  or\n  swap1\n  sstore\n    /* \"contracts/Bet.sol\":685:1083  constructor(... */\n  callvalue\n  dup1\n  iszero\n  tag_1\n  jumpi\n  0x00\n  dup1\n  revert\ntag_1:\n  pop\n  mload(0x40)\n  sub(codesize, bytecodeSize)\n  dup1\n  bytecodeSize\n  dup4\n  codecopy\n  dup2\n  add\n  0x40\n  dup2\n  swap1\n  mstore\n  tag_2\n  swap2\n  tag_3\n  jump\t// in\ntag_2:\n    /* \"contracts/Bet.sol\":865:873  web3bets */\n  0x08\n  0x00\n  swap1\n  sload\n  swap1\n  0x0100\n  exp\n  swap1\n  div\n  sub(shl(0xa0, 0x01), 0x01)\n  and\n  sub(shl(0xa0, 0x01), 0x01)\n    /* \"contracts/Bet.sol\":865:884  web3bets.betFactory */\n  and\n  0x2e1a9618\n    /* \"contracts/Bet.sol\":865:886  web3bets.betFactory() */\n  mload(0x40)\n  dup2\n  0xffffffff\n  and\n  0xe0\n  shl\n  dup2\n  mstore\n  0x04\n  add\n  0x20\n  mload(0x40)\n  dup1\n  dup4\n  sub\n  dup2\n  dup7\n  dup1\n  extcodesize\n  iszero\n  dup1\n  iszero\n  tag_6\n  jumpi\n  0x00\n  dup1\n  revert\ntag_6:\n  pop\n  gas\n  staticcall\n  iszero\n  dup1\n  iszero\n  tag_8\n  jumpi\n  returndatasize\n  0x00\n  dup1\n  returndatacopy\n  revert(0x00, returndatasize)\ntag_8:\n  pop\n  pop\n  pop\n  pop\n  mload(0x40)\n  returndatasize\n  not(0x1f)\n  0x1f\n  dup3\n  add\n  and\n  dup3\n  add\n  dup1\n  0x40\n  mstore\n  pop\n  dup2\n  add\n  swap1\n  tag_9\n  swap2\n  swap1\n  tag_10\n  jump\t// in\ntag_9:\n  sub(shl(0xa0, 0x01), 0x01)\n    /* \"contracts/Bet.sol\":851:886  msg.sender == web3bets.betFactory() */\n  and\n    /* \"contracts/Bet.sol\":851:861  msg.sender */\n  caller\n  sub(shl(0xa0, 0x01), 0x01)\n    /* \"contracts/Bet.sol\":851:886  msg.sender == web3bets.betFactory() */\n  and\n  eq\n    /* \"contracts/Bet.sol\":843:922  require(msg.sender == web3bets.betFactory(), \"only bet factory can create bet\") */\n  tag_11\n  jumpi\n  mload(0x40)\n  shl(0xe5, 0x461bcd)\n  dup2\n  mstore\n    /* \"#utility.yul\":2242:2244   */\n  0x20\n    /* \"contracts/Bet.sol\":843:922  require(msg.sender == web3bets.betFactory(), \"only bet factory can create bet\") */\n  0x04\n  dup3\n  add\n    /* \"#utility.yul\":2224:2245   */\n  mstore\n    /* \"#utility.yul\":2281:2283   */\n  0x1f\n    /* \"#utility.yul\":2261:2279   */\n  0x24\n  dup3\n  add\n    /* \"#utility.yul\":2254:2284   */\n  mstore\n    /* \"#utility.yul\":2320:2353   */\n  0x6f6e6c792062657420666163746f72792063616e206372656174652062657400\n    /* \"#utility.yul\":2300:2318   */\n  0x44\n  dup3\n  add\n    /* \"#utility.yul\":2293:2354   */\n  mstore\n    /* \"#utility.yul\":2371:2389   */\n  0x64\n  add\n    /* \"contracts/Bet.sol\":843:922  require(msg.sender == web3bets.betFactory(), \"only bet factory can create bet\") */\n  mload(0x40)\n  dup1\n  swap2\n  sub\n  swap1\n  revert\ntag_11:\n    /* \"contracts/Bet.sol\":932:938  market */\n  0x02\n    /* \"contracts/Bet.sol\":932:948  market = market_ */\n  dup1\n  sload\n  not(sub(shl(0xa0, 0x01), 0x01))\n  and\n  sub(shl(0xa0, 0x01), 0x01)\n  dup7\n  and\n  or\n  swap1\n  sstore\n    /* \"contracts/Bet.sol\":958:982  marketSide = marketSide_ */\n  dup3\n  mload\n  tag_14\n  swap1\n    /* \"contracts/Bet.sol\":958:968  marketSide */\n  0x07\n  swap1\n    /* \"contracts/Bet.sol\":958:982  marketSide = marketSide_ */\n  0x20\n  dup7\n  add\n  swap1\n  tag_15\n  jump\t// in\ntag_14:\n  pop\n    /* \"contracts/Bet.sol\":992:997  stake */\n  0x03\n    /* \"contracts/Bet.sol\":992:1006  stake = stake_ */\n  swap2\n  swap1\n  swap2\n  sstore\n    /* \"contracts/Bet.sol\":1016:1020  odds */\n  0x05\n    /* \"contracts/Bet.sol\":1016:1028  odds = odds_ */\n  dup1\n  sload\n  not(0xff)\n  and\n  0xff\n  swap1\n  swap3\n  and\n  swap2\n  swap1\n  swap2\n  or\n  swap1\n  sstore\n  pop\n  pop\n  0x01\n    /* \"contracts/Bet.sol\":1038:1054  better = caller_ */\n  dup1\n  sload\n  not(sub(shl(0xa0, 0x01), 0x01))\n  and\n  sub(shl(0xa0, 0x01), 0x01)\n  swap3\n  swap1\n  swap3\n  and\n  swap2\n  swap1\n  swap2\n  or\n  swap1\n  sstore\n  0x00\n  0x04\n    /* \"contracts/Bet.sol\":1064:1075  matched = 0 */\n  sstore\n    /* \"contracts/Bet.sol\":162:1522  contract Bet is IBet {... */\n  jump(tag_28)\ntag_15:\n  dup3\n  dup1\n  sload\n  tag_17\n  swap1\n  tag_18\n  jump\t// in\ntag_17:\n  swap1\n  0x00\n  mstore\n  keccak256(0x00, 0x20)\n  swap1\n  0x1f\n  add\n  0x20\n  swap1\n  div\n  dup2\n  add\n  swap3\n  dup3\n  tag_20\n  jumpi\n  0x00\n  dup6\n  sstore\n  jump(tag_23)\ntag_20:\n  dup3\n  0x1f\n  lt\n  tag_21\n  jumpi\n  dup1\n  mload\n  not(0xff)\n  and\n  dup4\n  dup1\n  add\n  or\n  dup6\n  sstore\n  jump(tag_23)\ntag_21:\n  dup3\n  dup1\n  add\n  0x01\n  add\n  dup6\n  sstore\n  dup3\n  iszero\n  tag_23\n  jumpi\n  swap2\n  dup3\n  add\ntag_22:\n  dup3\n  dup2\n  gt\n  iszero\n  tag_23\n  jumpi\n  dup3\n  mload\n  dup3\n  sstore\n  swap2\n  0x20\n  add\n  swap2\n  swap1\n  0x01\n  add\n  swap1\n  jump(tag_22)\ntag_23:\n  pop\n  tag_24\n  swap3\n  swap2\n  pop\n  tag_25\n  jump\t// in\ntag_24:\n  pop\n  swap1\n  jump\t// out\ntag_25:\ntag_26:\n  dup1\n  dup3\n  gt\n  iszero\n  tag_24\n  jumpi\n  0x00\n  dup2\n  sstore\n  0x01\n  add\n  jump(tag_26)\n    /* \"#utility.yul\":14:191   */\ntag_29:\n    /* \"#utility.yul\":93:106   */\n  dup1\n  mload\n  sub(shl(0xa0, 0x01), 0x01)\n    /* \"#utility.yul\":135:166   */\n  dup2\n  and\n    /* \"#utility.yul\":125:167   */\n  dup2\n  eq\n    /* \"#utility.yul\":115:117   */\n  tag_31\n  jumpi\n    /* \"#utility.yul\":181:182   */\n  0x00\n    /* \"#utility.yul\":178:179   */\n  dup1\n    /* \"#utility.yul\":171:183   */\n  revert\n    /* \"#utility.yul\":115:117   */\ntag_31:\n    /* \"#utility.yul\":74:191   */\n  swap2\n  swap1\n  pop\n  jump\t// out\n    /* \"#utility.yul\":196:356   */\ntag_32:\n    /* \"#utility.yul\":273:286   */\n  dup1\n  mload\n    /* \"#utility.yul\":326:330   */\n  0xff\n    /* \"#utility.yul\":315:331   */\n  dup2\n  and\n    /* \"#utility.yul\":305:332   */\n  dup2\n  eq\n    /* \"#utility.yul\":295:297   */\n  tag_31\n  jumpi\n    /* \"#utility.yul\":346:347   */\n  0x00\n    /* \"#utility.yul\":343:344   */\n  dup1\n    /* \"#utility.yul\":336:348   */\n  revert\n    /* \"#utility.yul\":361:579   */\ntag_10:\n    /* \"#utility.yul\":431:437   */\n  0x00\n    /* \"#utility.yul\":484:486   */\n  0x20\n    /* \"#utility.yul\":472:481   */\n  dup3\n    /* \"#utility.yul\":463:470   */\n  dup5\n    /* \"#utility.yul\":459:482   */\n  sub\n    /* \"#utility.yul\":455:487   */\n  slt\n    /* \"#utility.yul\":452:454   */\n  iszero\n  tag_36\n  jumpi\n    /* \"#utility.yul\":505:511   */\n  dup1\n    /* \"#utility.yul\":497:503   */\n  dup2\n    /* \"#utility.yul\":490:512   */\n  revert\n    /* \"#utility.yul\":452:454   */\ntag_36:\n    /* \"#utility.yul\":533:573   */\n  tag_37\n    /* \"#utility.yul\":563:572   */\n  dup3\n    /* \"#utility.yul\":533:573   */\n  tag_29\n  jump\t// in\ntag_37:\n    /* \"#utility.yul\":523:573   */\n  swap4\n    /* \"#utility.yul\":442:579   */\n  swap3\n  pop\n  pop\n  pop\n  jump\t// out\n    /* \"#utility.yul\":584:2035   */\ntag_3:\n    /* \"#utility.yul\":698:704   */\n  0x00\n    /* \"#utility.yul\":706:712   */\n  dup1\n    /* \"#utility.yul\":714:720   */\n  0x00\n    /* \"#utility.yul\":722:728   */\n  dup1\n    /* \"#utility.yul\":730:736   */\n  0x00\n    /* \"#utility.yul\":783:786   */\n  0xa0\n    /* \"#utility.yul\":771:780   */\n  dup7\n    /* \"#utility.yul\":762:769   */\n  dup9\n    /* \"#utility.yul\":758:781   */\n  sub\n    /* \"#utility.yul\":754:787   */\n  slt\n    /* \"#utility.yul\":751:753   */\n  iszero\n  tag_39\n  jumpi\n    /* \"#utility.yul\":805:811   */\n  dup1\n    /* \"#utility.yul\":797:803   */\n  dup2\n    /* \"#utility.yul\":790:812   */\n  revert\n    /* \"#utility.yul\":751:753   */\ntag_39:\n    /* \"#utility.yul\":833:873   */\n  tag_40\n    /* \"#utility.yul\":863:872   */\n  dup7\n    /* \"#utility.yul\":833:873   */\n  tag_29\n  jump\t// in\ntag_40:\n    /* \"#utility.yul\":823:873   */\n  swap5\n  pop\n    /* \"#utility.yul\":892:894   */\n  0x20\n    /* \"#utility.yul\":913:962   */\n  tag_41\n    /* \"#utility.yul\":958:960   */\n  dup2\n    /* \"#utility.yul\":947:956   */\n  dup9\n    /* \"#utility.yul\":943:961   */\n  add\n    /* \"#utility.yul\":913:962   */\n  tag_29\n  jump\t// in\ntag_41:\n    /* \"#utility.yul\":1006:1008   */\n  0x40\n    /* \"#utility.yul\":991:1009   */\n  dup9\n  add\n    /* \"#utility.yul\":985:1010   */\n  mload\n    /* \"#utility.yul\":903:962   */\n  swap1\n  swap6\n  pop\n  sub(shl(0x40, 0x01), 0x01)\n    /* \"#utility.yul\":1059:1073   */\n  dup1\n  dup3\n  gt\n    /* \"#utility.yul\":1056:1058   */\n  iszero\n  tag_42\n  jumpi\n    /* \"#utility.yul\":1091:1097   */\n  dup4\n    /* \"#utility.yul\":1083:1089   */\n  dup5\n    /* \"#utility.yul\":1076:1098   */\n  revert\n    /* \"#utility.yul\":1056:1058   */\ntag_42:\n    /* \"#utility.yul\":1134:1140   */\n  dup2\n    /* \"#utility.yul\":1123:1132   */\n  dup10\n    /* \"#utility.yul\":1119:1141   */\n  add\n    /* \"#utility.yul\":1109:1141   */\n  swap2\n  pop\n    /* \"#utility.yul\":1179:1186   */\n  dup10\n    /* \"#utility.yul\":1172:1176   */\n  0x1f\n    /* \"#utility.yul\":1168:1170   */\n  dup4\n    /* \"#utility.yul\":1164:1177   */\n  add\n    /* \"#utility.yul\":1160:1187   */\n  slt\n    /* \"#utility.yul\":1150:1152   */\n  tag_43\n  jumpi\n    /* \"#utility.yul\":1206:1212   */\n  dup4\n    /* \"#utility.yul\":1198:1204   */\n  dup5\n    /* \"#utility.yul\":1191:1213   */\n  revert\n    /* \"#utility.yul\":1150:1152   */\ntag_43:\n    /* \"#utility.yul\":1240:1242   */\n  dup2\n    /* \"#utility.yul\":1234:1243   */\n  mload\n    /* \"#utility.yul\":1262:1264   */\n  dup2\n    /* \"#utility.yul\":1258:1260   */\n  dup2\n    /* \"#utility.yul\":1255:1265   */\n  gt\n    /* \"#utility.yul\":1252:1254   */\n  iszero\n  tag_45\n  jumpi\n    /* \"#utility.yul\":1268:1286   */\n  tag_45\n  tag_46\n  jump\t// in\ntag_45:\n    /* \"#utility.yul\":1343:1345   */\n  0x40\n    /* \"#utility.yul\":1337:1346   */\n  mload\n    /* \"#utility.yul\":1311:1313   */\n  0x1f\n    /* \"#utility.yul\":1397:1410   */\n  dup3\n  add\n  not(0x1f)\n    /* \"#utility.yul\":1393:1415   */\n  swap1\n  dup2\n  and\n    /* \"#utility.yul\":1417:1419   */\n  0x3f\n    /* \"#utility.yul\":1389:1420   */\n  add\n    /* \"#utility.yul\":1385:1425   */\n  and\n    /* \"#utility.yul\":1373:1426   */\n  dup2\n  add\n  swap1\n    /* \"#utility.yul\":1441:1459   */\n  dup4\n  dup3\n  gt\n    /* \"#utility.yul\":1461:1483   */\n  dup2\n  dup4\n  lt\n    /* \"#utility.yul\":1438:1484   */\n  or\n    /* \"#utility.yul\":1435:1437   */\n  iszero\n  tag_48\n  jumpi\n    /* \"#utility.yul\":1487:1505   */\n  tag_48\n  tag_46\n  jump\t// in\ntag_48:\n    /* \"#utility.yul\":1527:1537   */\n  dup2\n    /* \"#utility.yul\":1523:1525   */\n  0x40\n    /* \"#utility.yul\":1516:1538   */\n  mstore\n    /* \"#utility.yul\":1562:1564   */\n  dup3\n    /* \"#utility.yul\":1554:1560   */\n  dup2\n    /* \"#utility.yul\":1547:1565   */\n  mstore\n    /* \"#utility.yul\":1602:1609   */\n  dup13\n    /* \"#utility.yul\":1597:1599   */\n  dup7\n    /* \"#utility.yul\":1592:1594   */\n  dup5\n    /* \"#utility.yul\":1588:1590   */\n  dup8\n    /* \"#utility.yul\":1584:1595   */\n  add\n    /* \"#utility.yul\":1580:1600   */\n  add\n    /* \"#utility.yul\":1577:1610   */\n  gt\n    /* \"#utility.yul\":1574:1576   */\n  iszero\n  tag_49\n  jumpi\n    /* \"#utility.yul\":1628:1634   */\n  dup7\n    /* \"#utility.yul\":1620:1626   */\n  dup8\n    /* \"#utility.yul\":1613:1635   */\n  revert\n    /* \"#utility.yul\":1574:1576   */\ntag_49:\n    /* \"#utility.yul\":1655:1661   */\n  dup7\n    /* \"#utility.yul\":1646:1661   */\n  swap4\n  pop\n    /* \"#utility.yul\":1670:1799   */\ntag_50:\n    /* \"#utility.yul\":1684:1686   */\n  dup3\n    /* \"#utility.yul\":1681:1682   */\n  dup5\n    /* \"#utility.yul\":1678:1687   */\n  lt\n    /* \"#utility.yul\":1670:1799   */\n  iszero\n  tag_52\n  jumpi\n    /* \"#utility.yul\":1772:1782   */\n  dup5\n  dup5\n  add\n    /* \"#utility.yul\":1768:1787   */\n  dup7\n  add\n    /* \"#utility.yul\":1762:1788   */\n  mload\n    /* \"#utility.yul\":1741:1755   */\n  dup2\n  dup6\n  add\n    /* \"#utility.yul\":1737:1760   */\n  dup8\n  add\n    /* \"#utility.yul\":1730:1789   */\n  mstore\n    /* \"#utility.yul\":1695:1705   */\n  swap3\n  dup6\n  add\n  swap3\n    /* \"#utility.yul\":1670:1799   */\n  jump(tag_50)\ntag_52:\n    /* \"#utility.yul\":1817:1819   */\n  dup3\n    /* \"#utility.yul\":1814:1815   */\n  dup5\n    /* \"#utility.yul\":1811:1820   */\n  gt\n    /* \"#utility.yul\":1808:1810   */\n  iszero\n  tag_53\n  jumpi\n    /* \"#utility.yul\":1876:1882   */\n  dup7\n    /* \"#utility.yul\":1871:1873   */\n  dup7\n    /* \"#utility.yul\":1866:1868   */\n  dup5\n    /* \"#utility.yul\":1858:1864   */\n  dup4\n    /* \"#utility.yul\":1854:1869   */\n  add\n    /* \"#utility.yul\":1850:1874   */\n  add\n    /* \"#utility.yul\":1843:1883   */\n  mstore\n    /* \"#utility.yul\":1808:1810   */\ntag_53:\n    /* \"#utility.yul\":1912:1918   */\n  dup1\n    /* \"#utility.yul\":1902:1918   */\n  swap9\n  pop\n  pop\n  pop\n  pop\n  pop\n  pop\n  pop\n    /* \"#utility.yul\":1958:1960   */\n  0x60\n    /* \"#utility.yul\":1947:1956   */\n  dup7\n    /* \"#utility.yul\":1943:1961   */\n  add\n    /* \"#utility.yul\":1937:1962   */\n  mload\n    /* \"#utility.yul\":1927:1962   */\n  swap2\n  pop\n    /* \"#utility.yul\":1981:2029   */\n  tag_54\n    /* \"#utility.yul\":2024:2027   */\n  0x80\n    /* \"#utility.yul\":2013:2022   */\n  dup8\n    /* \"#utility.yul\":2009:2028   */\n  add\n    /* \"#utility.yul\":1981:2029   */\n  tag_32\n  jump\t// in\ntag_54:\n    /* \"#utility.yul\":1971:2029   */\n  swap1\n  pop\n    /* \"#utility.yul\":741:2035   */\n  swap3\n  swap6\n  pop\n  swap3\n  swap6\n  swap1\n  swap4\n  pop\n  jump\t// out\n    /* \"#utility.yul\":2400:2780   */\ntag_18:\n    /* \"#utility.yul\":2479:2480   */\n  0x01\n    /* \"#utility.yul\":2475:2487   */\n  dup2\n  dup2\n  shr\n  swap1\n    /* \"#utility.yul\":2522:2534   */\n  dup3\n  and\n  dup1\n    /* \"#utility.yul\":2543:2545   */\n  tag_57\n  jumpi\n    /* \"#utility.yul\":2597:2601   */\n  0x7f\n    /* \"#utility.yul\":2589:2595   */\n  dup3\n    /* \"#utility.yul\":2585:2602   */\n  and\n    /* \"#utility.yul\":2575:2602   */\n  swap2\n  pop\n    /* \"#utility.yul\":2543:2545   */\ntag_57:\n    /* \"#utility.yul\":2650:2652   */\n  0x20\n    /* \"#utility.yul\":2642:2648   */\n  dup3\n    /* \"#utility.yul\":2639:2653   */\n  lt\n    /* \"#utility.yul\":2619:2637   */\n  dup2\n    /* \"#utility.yul\":2616:2654   */\n  eq\n    /* \"#utility.yul\":2613:2615   */\n  iszero\n  tag_58\n  jumpi\n    /* \"#utility.yul\":2696:2706   */\n  0x4e487b71\n    /* \"#utility.yul\":2691:2694   */\n  0xe0\n    /* \"#utility.yul\":2687:2707   */\n  shl\n    /* \"#utility.yul\":2684:2685   */\n  0x00\n    /* \"#utility.yul\":2677:2708   */\n  mstore\n    /* \"#utility.yul\":2731:2735   */\n  0x22\n    /* \"#utility.yul\":2728:2729   */\n  0x04\n    /* \"#utility.yul\":2721:2736   */\n  mstore\n    /* \"#utility.yul\":2759:2763   */\n  0x24\n    /* \"#utility.yul\":2756:2757   */\n  0x00\n    /* \"#utility.yul\":2749:2764   */\n  revert\n    /* \"#utility.yul\":2613:2615   */\ntag_58:\n  pop\n    /* \"#utility.yul\":2455:2780   */\n  swap2\n  swap1\n  pop\n  jump\t// out\n    /* \"#utility.yul\":2785:2912   */\ntag_46:\n    /* \"#utility.yul\":2846:2856   */\n  0x4e487b71\n    /* \"#utility.yul\":2841:2844   */\n  0xe0\n    /* \"#utility.yul\":2837:2857   */\n  shl\n    /* \"#utility.yul\":2834:2835   */\n  0x00\n    /* \"#utility.yul\":2827:2858   */\n  mstore\n    /* \"#utility.yul\":2877:2881   */\n  0x41\n    /* \"#utility.yul\":2874:2875   */\n  0x04\n    /* \"#utility.yul\":2867:2882   */\n  mstore\n    /* \"#utility.yul\":2901:2905   */\n  0x24\n    /* \"#utility.yul\":2898:2899   */\n  0x00\n    /* \"#utility.yul\":2891:2906   */\n  revert\n    /* \"#utility.yul\":2817:2912   */\ntag_28:\n    /* \"contracts/Bet.sol\":162:1522  contract Bet is IBet {... */\n  dataSize(sub_0)\n  dup1\n  dataOffset(sub_0)\n  0x00\n  codecopy\n  0x00\n  return\nstop\n\nsub_0: assembly {\n        /* \"contracts/Bet.sol\":162:1522  contract Bet is IBet {... */\n      mstore(0x40, 0x80)\n      callvalue\n      dup1\n      iszero\n      tag_1\n      jumpi\n      0x00\n      dup1\n      revert\n    tag_1:\n      pop\n      jumpi(tag_2, lt(calldatasize, 0x04))\n      shr(0xe0, calldataload(0x00))\n      dup1\n      0x80f55605\n      gt\n      tag_13\n      jumpi\n      dup1\n      0x80f55605\n      eq\n      tag_8\n      jumpi\n      dup1\n      0x8aac9cca\n      eq\n      tag_9\n      jumpi\n      dup1\n      0xa89bc05b\n      eq\n      tag_10\n      jumpi\n      dup1\n      0xc2b7bbb6\n      eq\n      tag_11\n      jumpi\n      dup1\n      0xfa6ead20\n      eq\n      tag_12\n      jumpi\n      0x00\n      dup1\n      revert\n    tag_13:\n      dup1\n      0x12713ee4\n      eq\n      tag_3\n      jumpi\n      dup1\n      0x233de126\n      eq\n      tag_4\n      jumpi\n      dup1\n      0x3a4b66f1\n      eq\n      tag_5\n      jumpi\n      dup1\n      0x5a4cfc06\n      eq\n      tag_6\n      jumpi\n      dup1\n      0x718c7d44\n      eq\n      tag_7\n      jumpi\n    tag_2:\n      0x00\n      dup1\n      revert\n        /* \"contracts/Bet.sol\":1089:1193  function getBetPairs() external view override returns (address[] memory){... */\n    tag_3:\n      tag_14\n      tag_15\n      jump\t// in\n    tag_14:\n      mload(0x40)\n      tag_16\n      swap2\n      swap1\n      tag_17\n      jump\t// in\n    tag_16:\n      mload(0x40)\n      dup1\n      swap2\n      sub\n      swap1\n      return\n        /* \"contracts/Bet.sol\":367:393  uint8 public override odds */\n    tag_4:\n      sload(0x05)\n      tag_18\n      swap1\n      0xff\n      and\n      dup2\n      jump\n    tag_18:\n      mload(0x40)\n        /* \"#utility.yul\":2884:2888   */\n      0xff\n        /* \"#utility.yul\":2872:2889   */\n      swap1\n      swap2\n      and\n        /* \"#utility.yul\":2854:2890   */\n      dup2\n      mstore\n        /* \"#utility.yul\":2842:2844   */\n      0x20\n        /* \"#utility.yul\":2827:2845   */\n      add\n        /* \"contracts/Bet.sol\":367:393  uint8 public override odds */\n      tag_16\n        /* \"#utility.yul\":2809:2896   */\n      jump\n        /* \"contracts/Bet.sol\":293:322  uint256 public override stake */\n    tag_5:\n      tag_22\n      sload(0x03)\n      dup2\n      jump\n    tag_22:\n      mload(0x40)\n        /* \"#utility.yul\":2676:2701   */\n      swap1\n      dup2\n      mstore\n        /* \"#utility.yul\":2664:2666   */\n      0x20\n        /* \"#utility.yul\":2649:2667   */\n      add\n        /* \"contracts/Bet.sol\":293:322  uint256 public override stake */\n      tag_16\n        /* \"#utility.yul\":2631:2707   */\n      jump\n        /* \"contracts/Bet.sol\":1342:1515  function setMatched(uint _amount) external override returns(bool) {... */\n    tag_6:\n      tag_26\n      tag_27\n      calldatasize\n      0x04\n      tag_28\n      jump\t// in\n    tag_27:\n      tag_29\n      jump\t// in\n    tag_26:\n      mload(0x40)\n        /* \"#utility.yul\":1559:1573   */\n      swap1\n      iszero\n        /* \"#utility.yul\":1552:1574   */\n      iszero\n        /* \"#utility.yul\":1534:1575   */\n      dup2\n      mstore\n        /* \"#utility.yul\":1522:1524   */\n      0x20\n        /* \"#utility.yul\":1507:1525   */\n      add\n        /* \"contracts/Bet.sol\":1342:1515  function setMatched(uint _amount) external override returns(bool) {... */\n      tag_16\n        /* \"#utility.yul\":1489:1581   */\n      jump\n        /* \"contracts/Bet.sol\":219:249  address public override better */\n    tag_7:\n      sload(0x01)\n      tag_32\n      swap1\n      sub(shl(0xa0, 0x01), 0x01)\n      and\n      dup2\n      jump\n    tag_32:\n      mload(0x40)\n      sub(shl(0xa0, 0x01), 0x01)\n        /* \"#utility.yul\":684:716   */\n      swap1\n      swap2\n      and\n        /* \"#utility.yul\":666:717   */\n      dup2\n      mstore\n        /* \"#utility.yul\":654:656   */\n      0x20\n        /* \"#utility.yul\":639:657   */\n      add\n        /* \"contracts/Bet.sol\":219:249  address public override better */\n      tag_16\n        /* \"#utility.yul\":621:723   */\n      jump\n        /* \"contracts/Bet.sol\":256:286  address public override market */\n    tag_8:\n      sload(0x02)\n      tag_32\n      swap1\n      sub(shl(0xa0, 0x01), 0x01)\n      and\n      dup2\n      jump\n        /* \"contracts/Bet.sol\":329:360  uint256 public override matched */\n    tag_9:\n      tag_22\n      sload(0x04)\n      dup2\n      jump\n        /* \"contracts/Bet.sol\":400:425  address[] public betPairs */\n    tag_10:\n      tag_32\n      tag_43\n      calldatasize\n      0x04\n      tag_28\n      jump\t// in\n    tag_43:\n      tag_44\n      jump\t// in\n        /* \"contracts/Bet.sol\":1200:1336  function addPair(address _pairAddress) external override returns(bool) {... */\n    tag_11:\n      tag_26\n      tag_47\n      calldatasize\n      0x04\n      tag_48\n      jump\t// in\n    tag_47:\n        /* \"contracts/Bet.sol\":1281:1289  betPairs */\n      0x06\n        /* \"contracts/Bet.sol\":1281:1308  betPairs.push(_pairAddress) */\n      dup1\n      sload\n      0x01\n      dup1\n      dup3\n      add\n      dup4\n      sstore\n      0x00\n      swap3\n      swap1\n      swap3\n      mstore\n      0xf652222313e28459528d920b65115c16c04f3efc82aaedc97be59f3f377c0d3f\n      add\n      dup1\n      sload\n      not(sub(shl(0xa0, 0x01), 0x01))\n      and\n      sub(shl(0xa0, 0x01), 0x01)\n      swap4\n      swap1\n      swap4\n      and\n      swap3\n      swap1\n      swap3\n      or\n      swap1\n      swap2\n      sstore\n      swap1\n        /* \"contracts/Bet.sol\":1200:1336  function addPair(address _pairAddress) external override returns(bool) {... */\n      jump\n        /* \"contracts/Bet.sol\":432:466  string  public override marketSide */\n    tag_12:\n      tag_51\n      tag_52\n      jump\t// in\n    tag_51:\n      mload(0x40)\n      tag_16\n      swap2\n      swap1\n      tag_54\n      jump\t// in\n        /* \"contracts/Bet.sol\":1089:1193  function getBetPairs() external view override returns (address[] memory){... */\n    tag_15:\n        /* \"contracts/Bet.sol\":1144:1160  address[] memory */\n      0x60\n        /* \"contracts/Bet.sol\":1178:1186  betPairs */\n      0x06\n        /* \"contracts/Bet.sol\":1171:1186  return betPairs */\n      dup1\n      sload\n      dup1\n      0x20\n      mul\n      0x20\n      add\n      mload(0x40)\n      swap1\n      dup2\n      add\n      0x40\n      mstore\n      dup1\n      swap3\n      swap2\n      swap1\n      dup2\n      dup2\n      mstore\n      0x20\n      add\n      dup3\n      dup1\n      sload\n      dup1\n      iszero\n      tag_56\n      jumpi\n      0x20\n      mul\n      dup3\n      add\n      swap2\n      swap1\n      0x00\n      mstore\n      keccak256(0x00, 0x20)\n      swap1\n    tag_57:\n      dup2\n      sload\n      sub(shl(0xa0, 0x01), 0x01)\n      and\n      dup2\n      mstore\n      0x01\n      swap1\n      swap2\n      add\n      swap1\n      0x20\n      add\n      dup1\n      dup4\n      gt\n      tag_57\n      jumpi\n    tag_56:\n      pop\n      pop\n      pop\n      pop\n      pop\n      swap1\n      pop\n        /* \"contracts/Bet.sol\":1089:1193  function getBetPairs() external view override returns (address[] memory){... */\n      swap1\n      jump\t// out\n        /* \"contracts/Bet.sol\":1342:1515  function setMatched(uint _amount) external override returns(bool) {... */\n    tag_29:\n        /* \"contracts/Bet.sol\":1440:1446  market */\n      sload(0x02)\n        /* \"contracts/Bet.sol\":1402:1406  bool */\n      0x00\n      swap1\n      sub(shl(0xa0, 0x01), 0x01)\n        /* \"contracts/Bet.sol\":1440:1446  market */\n      and\n        /* \"contracts/Bet.sol\":1426:1436  msg.sender */\n      caller\n        /* \"contracts/Bet.sol\":1426:1446  msg.sender == market */\n      eq\n        /* \"contracts/Bet.sol\":1418:1459  require(msg.sender == market, \"mkt only\") */\n      tag_59\n      jumpi\n      mload(0x40)\n      shl(0xe5, 0x461bcd)\n      dup2\n      mstore\n        /* \"#utility.yul\":2396:2398   */\n      0x20\n        /* \"contracts/Bet.sol\":1418:1459  require(msg.sender == market, \"mkt only\") */\n      0x04\n      dup3\n      add\n        /* \"#utility.yul\":2378:2399   */\n      mstore\n        /* \"#utility.yul\":2435:2436   */\n      0x08\n        /* \"#utility.yul\":2415:2433   */\n      0x24\n      dup3\n      add\n        /* \"#utility.yul\":2408:2437   */\n      mstore\n      shl(0xc0, 0x6d6b74206f6e6c79)\n        /* \"#utility.yul\":2453:2471   */\n      0x44\n      dup3\n      add\n        /* \"#utility.yul\":2446:2484   */\n      mstore\n        /* \"#utility.yul\":2501:2519   */\n      0x64\n      add\n        /* \"contracts/Bet.sol\":1418:1459  require(msg.sender == market, \"mkt only\") */\n      mload(0x40)\n      dup1\n      swap2\n      sub\n      swap1\n      revert\n    tag_59:\n        /* \"contracts/Bet.sol\":1480:1487  _amount */\n      dup2\n        /* \"contracts/Bet.sol\":1469:1476  matched */\n      0x04\n      0x00\n        /* \"contracts/Bet.sol\":1469:1487  matched += _amount */\n      dup3\n      dup3\n      sload\n      tag_62\n      swap2\n      swap1\n      tag_63\n      jump\t// in\n    tag_62:\n      swap1\n      swap2\n      sstore\n      pop\n        /* \"contracts/Bet.sol\":1504:1508  true */\n      0x01\n      swap4\n        /* \"contracts/Bet.sol\":1342:1515  function setMatched(uint _amount) external override returns(bool) {... */\n      swap3\n      pop\n      pop\n      pop\n      jump\t// out\n        /* \"contracts/Bet.sol\":400:425  address[] public betPairs */\n    tag_44:\n      0x06\n      dup2\n      dup2\n      sload\n      dup2\n      lt\n      tag_64\n      jumpi\n      0x00\n      dup1\n      revert\n    tag_64:\n      0x00\n      swap2\n      dup3\n      mstore\n      0x20\n      swap1\n      swap2\n      keccak256\n      add\n      sload\n      sub(shl(0xa0, 0x01), 0x01)\n      and\n      swap1\n      pop\n      dup2\n      jump\t// out\n        /* \"contracts/Bet.sol\":432:466  string  public override marketSide */\n    tag_52:\n      0x07\n      dup1\n      sload\n      tag_68\n      swap1\n      tag_69\n      jump\t// in\n    tag_68:\n      dup1\n      0x1f\n      add\n      0x20\n      dup1\n      swap2\n      div\n      mul\n      0x20\n      add\n      mload(0x40)\n      swap1\n      dup2\n      add\n      0x40\n      mstore\n      dup1\n      swap3\n      swap2\n      swap1\n      dup2\n      dup2\n      mstore\n      0x20\n      add\n      dup3\n      dup1\n      sload\n      tag_70\n      swap1\n      tag_69\n      jump\t// in\n    tag_70:\n      dup1\n      iszero\n      tag_71\n      jumpi\n      dup1\n      0x1f\n      lt\n      tag_72\n      jumpi\n      0x0100\n      dup1\n      dup4\n      sload\n      div\n      mul\n      dup4\n      mstore\n      swap2\n      0x20\n      add\n      swap2\n      jump(tag_71)\n    tag_72:\n      dup3\n      add\n      swap2\n      swap1\n      0x00\n      mstore\n      keccak256(0x00, 0x20)\n      swap1\n    tag_73:\n      dup2\n      sload\n      dup2\n      mstore\n      swap1\n      0x01\n      add\n      swap1\n      0x20\n      add\n      dup1\n      dup4\n      gt\n      tag_73\n      jumpi\n      dup3\n      swap1\n      sub\n      0x1f\n      and\n      dup3\n      add\n      swap2\n    tag_71:\n      pop\n      pop\n      pop\n      pop\n      pop\n      dup2\n      jump\t// out\n        /* \"#utility.yul\":14:320   */\n    tag_48:\n        /* \"#utility.yul\":73:79   */\n      0x00\n        /* \"#utility.yul\":126:128   */\n      0x20\n        /* \"#utility.yul\":114:123   */\n      dup3\n        /* \"#utility.yul\":105:112   */\n      dup5\n        /* \"#utility.yul\":101:124   */\n      sub\n        /* \"#utility.yul\":97:129   */\n      slt\n        /* \"#utility.yul\":94:96   */\n      iszero\n      tag_76\n      jumpi\n        /* \"#utility.yul\":147:153   */\n      dup1\n        /* \"#utility.yul\":139:145   */\n      dup2\n        /* \"#utility.yul\":132:154   */\n      revert\n        /* \"#utility.yul\":94:96   */\n    tag_76:\n        /* \"#utility.yul\":178:201   */\n      dup2\n      calldataload\n      sub(shl(0xa0, 0x01), 0x01)\n        /* \"#utility.yul\":230:261   */\n      dup2\n      and\n        /* \"#utility.yul\":220:262   */\n      dup2\n      eq\n        /* \"#utility.yul\":210:212   */\n      tag_77\n      jumpi\n        /* \"#utility.yul\":281:287   */\n      dup2\n        /* \"#utility.yul\":273:279   */\n      dup3\n        /* \"#utility.yul\":266:288   */\n      revert\n        /* \"#utility.yul\":210:212   */\n    tag_77:\n        /* \"#utility.yul\":309:314   */\n      swap4\n        /* \"#utility.yul\":84:320   */\n      swap3\n      pop\n      pop\n      pop\n      jump\t// out\n        /* \"#utility.yul\":325:515   */\n    tag_28:\n        /* \"#utility.yul\":384:390   */\n      0x00\n        /* \"#utility.yul\":437:439   */\n      0x20\n        /* \"#utility.yul\":425:434   */\n      dup3\n        /* \"#utility.yul\":416:423   */\n      dup5\n        /* \"#utility.yul\":412:435   */\n      sub\n        /* \"#utility.yul\":408:440   */\n      slt\n        /* \"#utility.yul\":405:407   */\n      iszero\n      tag_79\n      jumpi\n        /* \"#utility.yul\":458:464   */\n      dup1\n        /* \"#utility.yul\":450:456   */\n      dup2\n        /* \"#utility.yul\":443:465   */\n      revert\n        /* \"#utility.yul\":405:407   */\n    tag_79:\n      pop\n        /* \"#utility.yul\":486:509   */\n      calldataload\n      swap2\n        /* \"#utility.yul\":395:515   */\n      swap1\n      pop\n      jump\t// out\n        /* \"#utility.yul\":728:1389   */\n    tag_17:\n        /* \"#utility.yul\":899:901   */\n      0x20\n        /* \"#utility.yul\":951:972   */\n      dup1\n      dup3\n      mstore\n        /* \"#utility.yul\":1021:1034   */\n      dup3\n      mload\n        /* \"#utility.yul\":924:942   */\n      dup3\n      dup3\n      add\n        /* \"#utility.yul\":1043:1065   */\n      dup2\n      swap1\n      mstore\n        /* \"#utility.yul\":870:874   */\n      0x00\n      swap2\n        /* \"#utility.yul\":899:901   */\n      swap1\n        /* \"#utility.yul\":1122:1137   */\n      dup5\n      dup3\n      add\n      swap1\n        /* \"#utility.yul\":1096:1098   */\n      0x40\n        /* \"#utility.yul\":1081:1099   */\n      dup6\n      add\n      swap1\n        /* \"#utility.yul\":870:874   */\n      dup5\n        /* \"#utility.yul\":1168:1363   */\n    tag_82:\n        /* \"#utility.yul\":1182:1188   */\n      dup2\n        /* \"#utility.yul\":1179:1180   */\n      dup2\n        /* \"#utility.yul\":1176:1189   */\n      lt\n        /* \"#utility.yul\":1168:1363   */\n      iszero\n      tag_84\n      jumpi\n        /* \"#utility.yul\":1247:1260   */\n      dup4\n      mload\n      sub(shl(0xa0, 0x01), 0x01)\n        /* \"#utility.yul\":1243:1282   */\n      and\n        /* \"#utility.yul\":1231:1283   */\n      dup4\n      mstore\n        /* \"#utility.yul\":1338:1353   */\n      swap3\n      dup5\n      add\n      swap3\n        /* \"#utility.yul\":1303:1315   */\n      swap2\n      dup5\n      add\n      swap2\n        /* \"#utility.yul\":1279:1280   */\n      0x01\n        /* \"#utility.yul\":1197:1206   */\n      add\n        /* \"#utility.yul\":1168:1363   */\n      jump(tag_82)\n    tag_84:\n      pop\n        /* \"#utility.yul\":1380:1383   */\n      swap1\n      swap7\n        /* \"#utility.yul\":879:1389   */\n      swap6\n      pop\n      pop\n      pop\n      pop\n      pop\n      pop\n      jump\t// out\n        /* \"#utility.yul\":1586:2189   */\n    tag_54:\n        /* \"#utility.yul\":1698:1702   */\n      0x00\n        /* \"#utility.yul\":1727:1729   */\n      0x20\n        /* \"#utility.yul\":1756:1758   */\n      dup1\n        /* \"#utility.yul\":1745:1754   */\n      dup4\n        /* \"#utility.yul\":1738:1759   */\n      mstore\n        /* \"#utility.yul\":1788:1794   */\n      dup4\n        /* \"#utility.yul\":1782:1795   */\n      mload\n        /* \"#utility.yul\":1831:1837   */\n      dup1\n        /* \"#utility.yul\":1826:1828   */\n      dup3\n        /* \"#utility.yul\":1815:1824   */\n      dup6\n        /* \"#utility.yul\":1811:1829   */\n      add\n        /* \"#utility.yul\":1804:1838   */\n      mstore\n        /* \"#utility.yul\":1856:1860   */\n      dup3\n        /* \"#utility.yul\":1869:2009   */\n    tag_87:\n        /* \"#utility.yul\":1883:1889   */\n      dup2\n        /* \"#utility.yul\":1880:1881   */\n      dup2\n        /* \"#utility.yul\":1877:1890   */\n      lt\n        /* \"#utility.yul\":1869:2009   */\n      iszero\n      tag_89\n      jumpi\n        /* \"#utility.yul\":1978:1992   */\n      dup6\n      dup2\n      add\n        /* \"#utility.yul\":1974:1997   */\n      dup4\n      add\n        /* \"#utility.yul\":1968:1998   */\n      mload\n        /* \"#utility.yul\":1944:1961   */\n      dup6\n      dup3\n      add\n        /* \"#utility.yul\":1963:1965   */\n      0x40\n        /* \"#utility.yul\":1940:1966   */\n      add\n        /* \"#utility.yul\":1933:1999   */\n      mstore\n        /* \"#utility.yul\":1898:1908   */\n      dup3\n      add\n        /* \"#utility.yul\":1869:2009   */\n      jump(tag_87)\n    tag_89:\n        /* \"#utility.yul\":2027:2033   */\n      dup2\n        /* \"#utility.yul\":2024:2025   */\n      dup2\n        /* \"#utility.yul\":2021:2034   */\n      gt\n        /* \"#utility.yul\":2018:2020   */\n      iszero\n      tag_90\n      jumpi\n        /* \"#utility.yul\":2097:2101   */\n      dup4\n        /* \"#utility.yul\":2092:2094   */\n      0x40\n        /* \"#utility.yul\":2083:2089   */\n      dup4\n        /* \"#utility.yul\":2072:2081   */\n      dup8\n        /* \"#utility.yul\":2068:2090   */\n      add\n        /* \"#utility.yul\":2064:2095   */\n      add\n        /* \"#utility.yul\":2057:2102   */\n      mstore\n        /* \"#utility.yul\":2018:2020   */\n    tag_90:\n      pop\n        /* \"#utility.yul\":2173:2175   */\n      0x1f\n        /* \"#utility.yul\":2152:2167   */\n      add\n      not(0x1f)\n        /* \"#utility.yul\":2148:2177   */\n      and\n        /* \"#utility.yul\":2133:2178   */\n      swap3\n      swap1\n      swap3\n      add\n        /* \"#utility.yul\":2180:2182   */\n      0x40\n        /* \"#utility.yul\":2129:2183   */\n      add\n      swap4\n        /* \"#utility.yul\":1707:2189   */\n      swap3\n      pop\n      pop\n      pop\n      jump\t// out\n        /* \"#utility.yul\":2901:3130   */\n    tag_63:\n        /* \"#utility.yul\":2941:2944   */\n      0x00\n        /* \"#utility.yul\":2972:2973   */\n      dup3\n        /* \"#utility.yul\":2968:2974   */\n      not\n        /* \"#utility.yul\":2965:2966   */\n      dup3\n        /* \"#utility.yul\":2962:2975   */\n      gt\n        /* \"#utility.yul\":2959:2961   */\n      iszero\n      tag_95\n      jumpi\n      shl(0xe0, 0x4e487b71)\n        /* \"#utility.yul\":2998:3031   */\n      dup2\n      mstore\n        /* \"#utility.yul\":3054:3058   */\n      0x11\n        /* \"#utility.yul\":3051:3052   */\n      0x04\n        /* \"#utility.yul\":3044:3059   */\n      mstore\n        /* \"#utility.yul\":3084:3088   */\n      0x24\n        /* \"#utility.yul\":3005:3008   */\n      dup2\n        /* \"#utility.yul\":3072:3089   */\n      revert\n        /* \"#utility.yul\":2959:2961   */\n    tag_95:\n      pop\n        /* \"#utility.yul\":3115:3124   */\n      add\n      swap1\n        /* \"#utility.yul\":2949:3130   */\n      jump\t// out\n        /* \"#utility.yul\":3135:3515   */\n    tag_69:\n        /* \"#utility.yul\":3214:3215   */\n      0x01\n        /* \"#utility.yul\":3210:3222   */\n      dup2\n      dup2\n      shr\n      swap1\n        /* \"#utility.yul\":3257:3269   */\n      dup3\n      and\n      dup1\n        /* \"#utility.yul\":3278:3280   */\n      tag_97\n      jumpi\n        /* \"#utility.yul\":3332:3336   */\n      0x7f\n        /* \"#utility.yul\":3324:3330   */\n      dup3\n        /* \"#utility.yul\":3320:3337   */\n      and\n        /* \"#utility.yul\":3310:3337   */\n      swap2\n      pop\n        /* \"#utility.yul\":3278:3280   */\n    tag_97:\n        /* \"#utility.yul\":3385:3387   */\n      0x20\n        /* \"#utility.yul\":3377:3383   */\n      dup3\n        /* \"#utility.yul\":3374:3388   */\n      lt\n        /* \"#utility.yul\":3354:3372   */\n      dup2\n        /* \"#utility.yul\":3351:3389   */\n      eq\n        /* \"#utility.yul\":3348:3350   */\n      iszero\n      tag_98\n      jumpi\n        /* \"#utility.yul\":3431:3441   */\n      0x4e487b71\n        /* \"#utility.yul\":3426:3429   */\n      0xe0\n        /* \"#utility.yul\":3422:3442   */\n      shl\n        /* \"#utility.yul\":3419:3420   */\n      0x00\n        /* \"#utility.yul\":3412:3443   */\n      mstore\n        /* \"#utility.yul\":3466:3470   */\n      0x22\n        /* \"#utility.yul\":3463:3464   */\n      0x04\n        /* \"#utility.yul\":3456:3471   */\n      mstore\n        /* \"#utility.yul\":3494:3498   */\n      0x24\n        /* \"#utility.yul\":3491:3492   */\n      0x00\n        /* \"#utility.yul\":3484:3499   */\n      revert\n        /* \"#utility.yul\":3348:3350   */\n    tag_98:\n      pop\n        /* \"#utility.yul\":3190:3515   */\n      swap2\n      swap1\n      pop\n      jump\t// out\n\n    auxdata: 0xa2646970667358221220998ee267a4a27564b0247f13fa8870b0f29fdb0247b5c8ea2d2bc3b908d0ddc064736f6c63430008040033\n}\n",
				"bytecode": {
					"linkReferences": {},
					"object": "6080604052600054600880546001600160a01b0319166001600160a01b0390921691909117905534801561003257600080fd5b506040516108ea3803806108ea83398101604081905261005191610296565b600860009054906101000a90046001600160a01b03166001600160a01b0316632e1a96186040518163ffffffff1660e01b815260040160206040518083038186803b15801561009f57600080fd5b505afa1580156100b3573d6000803e3d6000fd5b505050506040513d601f19601f820116820180604052508101906100d79190610275565b6001600160a01b0316336001600160a01b03161461013b5760405162461bcd60e51b815260206004820152601f60248201527f6f6e6c792062657420666163746f72792063616e206372656174652062657400604482015260640160405180910390fd5b600280546001600160a01b0319166001600160a01b03861617905582516101699060079060208601906101af565b506003919091556005805460ff191660ff9092169190911790555050600180546001600160a01b0319166001600160a01b039290921691909117905560006004556103ef565b8280546101bb9061039e565b90600052602060002090601f0160209004810192826101dd5760008555610223565b82601f106101f657805160ff1916838001178555610223565b82800160010185558215610223579182015b82811115610223578251825591602001919060010190610208565b5061022f929150610233565b5090565b5b8082111561022f5760008155600101610234565b80516001600160a01b038116811461025f57600080fd5b919050565b805160ff8116811461025f57600080fd5b600060208284031215610286578081fd5b61028f82610248565b9392505050565b600080600080600060a086880312156102ad578081fd5b6102b686610248565b945060206102c5818801610248565b60408801519095506001600160401b03808211156102e1578384fd5b818901915089601f8301126102f4578384fd5b815181811115610306576103066103d9565b604051601f8201601f19908116603f0116810190838211818310171561032e5761032e6103d9565b816040528281528c86848701011115610345578687fd5b8693505b828410156103665784840186015181850187015292850192610349565b8284111561037657868684830101525b8098505050505050506060860151915061039260808701610264565b90509295509295909350565b600181811c908216806103b257607f821691505b602082108114156103d357634e487b7160e01b600052602260045260246000fd5b50919050565b634e487b7160e01b600052604160045260246000fd5b6104ec806103fe6000396000f3fe608060405234801561001057600080fd5b506004361061009e5760003560e01c806380f556051161006657806380f55605146101455780638aac9cca14610158578063a89bc05b14610161578063c2b7bbb614610174578063fa6ead20146101d757600080fd5b806312713ee4146100a3578063233de126146100c15780633a4b66f1146100e05780635a4cfc06146100f7578063718c7d441461011a575b600080fd5b6100ab6101ec565b6040516100b891906103b7565b60405180910390f35b6005546100ce9060ff1681565b60405160ff90911681526020016100b8565b6100e960035481565b6040519081526020016100b8565b61010a61010536600461039f565b61024e565b60405190151581526020016100b8565b60015461012d906001600160a01b031681565b6040516001600160a01b0390911681526020016100b8565b60025461012d906001600160a01b031681565b6100e960045481565b61012d61016f36600461039f565b6102b9565b61010a610182366004610371565b60068054600180820183556000929092527ff652222313e28459528d920b65115c16c04f3efc82aaedc97be59f3f377c0d3f0180546001600160a01b0319166001600160a01b03939093169290921790915590565b6101df6102e3565b6040516100b89190610404565b6060600680548060200260200160405190810160405280929190818152602001828054801561024457602002820191906000526020600020905b81546001600160a01b03168152600190910190602001808311610226575b5050505050905090565b6002546000906001600160a01b0316331461029a5760405162461bcd60e51b81526020600482015260086024820152676d6b74206f6e6c7960c01b604482015260640160405180910390fd5b81600460008282546102ac9190610457565b9091555060019392505050565b600681815481106102c957600080fd5b6000918252602090912001546001600160a01b0316905081565b600780546102f09061047b565b80601f016020809104026020016040519081016040528092919081815260200182805461031c9061047b565b80156103695780601f1061033e57610100808354040283529160200191610369565b820191906000526020600020905b81548152906001019060200180831161034c57829003601f168201915b505050505081565b600060208284031215610382578081fd5b81356001600160a01b0381168114610398578182fd5b9392505050565b6000602082840312156103b0578081fd5b5035919050565b6020808252825182820181905260009190848201906040850190845b818110156103f85783516001600160a01b0316835292840192918401916001016103d3565b50909695505050505050565b6000602080835283518082850152825b8181101561043057858101830151858201604001528201610414565b818111156104415783604083870101525b50601f01601f1916929092016040019392505050565b6000821982111561047657634e487b7160e01b81526011600452602481fd5b500190565b600181811c9082168061048f57607f821691505b602082108114156104b057634e487b7160e01b600052602260045260246000fd5b5091905056fea2646970667358221220998ee267a4a27564b0247f13fa8870b0f29fdb0247b5c8ea2d2bc3b908d0ddc064736f6c63430008040033",
					"opcodes": "PUSH1 0x80 PUSH1 0x40 MSTORE PUSH1 0x0 SLOAD PUSH1 0x8 DUP1 SLOAD PUSH1 0x1 PUSH1 0x1 PUSH1 0xA0 SHL SUB NOT AND PUSH1 0x1 PUSH1 0x1 PUSH1 0xA0 SHL SUB SWAP1 SWAP3 AND SWAP2 SWAP1 SWAP2 OR SWAP1 SSTORE CALLVALUE DUP1 ISZERO PUSH2 0x32 JUMPI PUSH1 0x0 DUP1 REVERT JUMPDEST POP PUSH1 0x40 MLOAD PUSH2 0x8EA CODESIZE SUB DUP1 PUSH2 0x8EA DUP4 CODECOPY DUP2 ADD PUSH1 0x40 DUP2 SWAP1 MSTORE PUSH2 0x51 SWAP2 PUSH2 0x296 JUMP JUMPDEST PUSH1 0x8 PUSH1 0x0 SWAP1 SLOAD SWAP1 PUSH2 0x100 EXP SWAP1 DIV PUSH1 0x1 PUSH1 0x1 PUSH1 0xA0 SHL SUB AND PUSH1 0x1 PUSH1 0x1 PUSH1 0xA0 SHL SUB AND PUSH4 0x2E1A9618 PUSH1 0x40 MLOAD DUP2 PUSH4 0xFFFFFFFF AND PUSH1 0xE0 SHL DUP2 MSTORE PUSH1 0x4 ADD PUSH1 0x20 PUSH1 0x40 MLOAD DUP1 DUP4 SUB DUP2 DUP7 DUP1 EXTCODESIZE ISZERO DUP1 ISZERO PUSH2 0x9F JUMPI PUSH1 0x0 DUP1 REVERT JUMPDEST POP GAS STATICCALL ISZERO DUP1 ISZERO PUSH2 0xB3 JUMPI RETURNDATASIZE PUSH1 0x0 DUP1 RETURNDATACOPY RETURNDATASIZE PUSH1 0x0 REVERT JUMPDEST POP POP POP POP PUSH1 0x40 MLOAD RETURNDATASIZE PUSH1 0x1F NOT PUSH1 0x1F DUP3 ADD AND DUP3 ADD DUP1 PUSH1 0x40 MSTORE POP DUP2 ADD SWAP1 PUSH2 0xD7 SWAP2 SWAP1 PUSH2 0x275 JUMP JUMPDEST PUSH1 0x1 PUSH1 0x1 PUSH1 0xA0 SHL SUB AND CALLER PUSH1 0x1 PUSH1 0x1 PUSH1 0xA0 SHL SUB AND EQ PUSH2 0x13B JUMPI PUSH1 0x40 MLOAD PUSH3 0x461BCD PUSH1 0xE5 SHL DUP2 MSTORE PUSH1 0x20 PUSH1 0x4 DUP3 ADD MSTORE PUSH1 0x1F PUSH1 0x24 DUP3 ADD MSTORE PUSH32 0x6F6E6C792062657420666163746F72792063616E206372656174652062657400 PUSH1 0x44 DUP3 ADD MSTORE PUSH1 0x64 ADD PUSH1 0x40 MLOAD DUP1 SWAP2 SUB SWAP1 REVERT JUMPDEST PUSH1 0x2 DUP1 SLOAD PUSH1 0x1 PUSH1 0x1 PUSH1 0xA0 SHL SUB NOT AND PUSH1 0x1 PUSH1 0x1 PUSH1 0xA0 SHL SUB DUP7 AND OR SWAP1 SSTORE DUP3 MLOAD PUSH2 0x169 SWAP1 PUSH1 0x7 SWAP1 PUSH1 0x20 DUP7 ADD SWAP1 PUSH2 0x1AF JUMP JUMPDEST POP PUSH1 0x3 SWAP2 SWAP1 SWAP2 SSTORE PUSH1 0x5 DUP1 SLOAD PUSH1 0xFF NOT AND PUSH1 0xFF SWAP1 SWAP3 AND SWAP2 SWAP1 SWAP2 OR SWAP1 SSTORE POP POP PUSH1 0x1 DUP1 SLOAD PUSH1 0x1 PUSH1 0x1 PUSH1 0xA0 SHL SUB NOT AND PUSH1 0x1 PUSH1 0x1 PUSH1 0xA0 SHL SUB SWAP3 SWAP1 SWAP3 AND SWAP2 SWAP1 SWAP2 OR SWAP1 SSTORE PUSH1 0x0 PUSH1 0x4 SSTORE PUSH2 0x3EF JUMP JUMPDEST DUP3 DUP1 SLOAD PUSH2 0x1BB SWAP1 PUSH2 0x39E JUMP JUMPDEST SWAP1 PUSH1 0x0 MSTORE PUSH1 0x20 PUSH1 0x0 KECCAK256 SWAP1 PUSH1 0x1F ADD PUSH1 0x20 SWAP1 DIV DUP2 ADD SWAP3 DUP3 PUSH2 0x1DD JUMPI PUSH1 0x0 DUP6 SSTORE PUSH2 0x223 JUMP JUMPDEST DUP3 PUSH1 0x1F LT PUSH2 0x1F6 JUMPI DUP1 MLOAD PUSH1 0xFF NOT AND DUP4 DUP1 ADD OR DUP6 SSTORE PUSH2 0x223 JUMP JUMPDEST DUP3 DUP1 ADD PUSH1 0x1 ADD DUP6 SSTORE DUP3 ISZERO PUSH2 0x223 JUMPI SWAP2 DUP3 ADD JUMPDEST DUP3 DUP2 GT ISZERO PUSH2 0x223 JUMPI DUP3 MLOAD DUP3 SSTORE SWAP2 PUSH1 0x20 ADD SWAP2 SWAP1 PUSH1 0x1 ADD SWAP1 PUSH2 0x208 JUMP JUMPDEST POP PUSH2 0x22F SWAP3 SWAP2 POP PUSH2 0x233 JUMP JUMPDEST POP SWAP1 JUMP JUMPDEST JUMPDEST DUP1 DUP3 GT ISZERO PUSH2 0x22F JUMPI PUSH1 0x0 DUP2 SSTORE PUSH1 0x1 ADD PUSH2 0x234 JUMP JUMPDEST DUP1 MLOAD PUSH1 0x1 PUSH1 0x1 PUSH1 0xA0 SHL SUB DUP2 AND DUP2 EQ PUSH2 0x25F JUMPI PUSH1 0x0 DUP1 REVERT JUMPDEST SWAP2 SWAP1 POP JUMP JUMPDEST DUP1 MLOAD PUSH1 0xFF DUP2 AND DUP2 EQ PUSH2 0x25F JUMPI PUSH1 0x0 DUP1 REVERT JUMPDEST PUSH1 0x0 PUSH1 0x20 DUP3 DUP5 SUB SLT ISZERO PUSH2 0x286 JUMPI DUP1 DUP2 REVERT JUMPDEST PUSH2 0x28F DUP3 PUSH2 0x248 JUMP JUMPDEST SWAP4 SWAP3 POP POP POP JUMP JUMPDEST PUSH1 0x0 DUP1 PUSH1 0x0 DUP1 PUSH1 0x0 PUSH1 0xA0 DUP7 DUP9 SUB SLT ISZERO PUSH2 0x2AD JUMPI DUP1 DUP2 REVERT JUMPDEST PUSH2 0x2B6 DUP7 PUSH2 0x248 JUMP JUMPDEST SWAP5 POP PUSH1 0x20 PUSH2 0x2C5 DUP2 DUP9 ADD PUSH2 0x248 JUMP JUMPDEST PUSH1 0x40 DUP9 ADD MLOAD SWAP1 SWAP6 POP PUSH1 0x1 PUSH1 0x1 PUSH1 0x40 SHL SUB DUP1 DUP3 GT ISZERO PUSH2 0x2E1 JUMPI DUP4 DUP5 REVERT JUMPDEST DUP2 DUP10 ADD SWAP2 POP DUP10 PUSH1 0x1F DUP4 ADD SLT PUSH2 0x2F4 JUMPI DUP4 DUP5 REVERT JUMPDEST DUP2 MLOAD DUP2 DUP2 GT ISZERO PUSH2 0x306 JUMPI PUSH2 0x306 PUSH2 0x3D9 JUMP JUMPDEST PUSH1 0x40 MLOAD PUSH1 0x1F DUP3 ADD PUSH1 0x1F NOT SWAP1 DUP2 AND PUSH1 0x3F ADD AND DUP2 ADD SWAP1 DUP4 DUP3 GT DUP2 DUP4 LT OR ISZERO PUSH2 0x32E JUMPI PUSH2 0x32E PUSH2 0x3D9 JUMP JUMPDEST DUP2 PUSH1 0x40 MSTORE DUP3 DUP2 MSTORE DUP13 DUP7 DUP5 DUP8 ADD ADD GT ISZERO PUSH2 0x345 JUMPI DUP7 DUP8 REVERT JUMPDEST DUP7 SWAP4 POP JUMPDEST DUP3 DUP5 LT ISZERO PUSH2 0x366 JUMPI DUP5 DUP5 ADD DUP7 ADD MLOAD DUP2 DUP6 ADD DUP8 ADD MSTORE SWAP3 DUP6 ADD SWAP3 PUSH2 0x349 JUMP JUMPDEST DUP3 DUP5 GT ISZERO PUSH2 0x376 JUMPI DUP7 DUP7 DUP5 DUP4 ADD ADD MSTORE JUMPDEST DUP1 SWAP9 POP POP POP POP POP POP POP PUSH1 0x60 DUP7 ADD MLOAD SWAP2 POP PUSH2 0x392 PUSH1 0x80 DUP8 ADD PUSH2 0x264 JUMP JUMPDEST SWAP1 POP SWAP3 SWAP6 POP SWAP3 SWAP6 SWAP1 SWAP4 POP JUMP JUMPDEST PUSH1 0x1 DUP2 DUP2 SHR SWAP1 DUP3 AND DUP1 PUSH2 0x3B2 JUMPI PUSH1 0x7F DUP3 AND SWAP2 POP JUMPDEST PUSH1 0x20 DUP3 LT DUP2 EQ ISZERO PUSH2 0x3D3 JUMPI PUSH4 0x4E487B71 PUSH1 0xE0 SHL PUSH1 0x0 MSTORE PUSH1 0x22 PUSH1 0x4 MSTORE PUSH1 0x24 PUSH1 0x0 REVERT JUMPDEST POP SWAP2 SWAP1 POP JUMP JUMPDEST PUSH4 0x4E487B71 PUSH1 0xE0 SHL PUSH1 0x0 MSTORE PUSH1 0x41 PUSH1 0x4 MSTORE PUSH1 0x24 PUSH1 0x0 REVERT JUMPDEST PUSH2 0x4EC DUP1 PUSH2 0x3FE PUSH1 0x0 CODECOPY PUSH1 0x0 RETURN INVALID PUSH1 0x80 PUSH1 0x40 MSTORE CALLVALUE DUP1 ISZERO PUSH2 0x10 JUMPI PUSH1 0x0 DUP1 REVERT JUMPDEST POP PUSH1 0x4 CALLDATASIZE LT PUSH2 0x9E JUMPI PUSH1 0x0 CALLDATALOAD PUSH1 0xE0 SHR DUP1 PUSH4 0x80F55605 GT PUSH2 0x66 JUMPI DUP1 PUSH4 0x80F55605 EQ PUSH2 0x145 JUMPI DUP1 PUSH4 0x8AAC9CCA EQ PUSH2 0x158 JUMPI DUP1 PUSH4 0xA89BC05B EQ PUSH2 0x161 JUMPI DUP1 PUSH4 0xC2B7BBB6 EQ PUSH2 0x174 JUMPI DUP1 PUSH4 0xFA6EAD20 EQ PUSH2 0x1D7 JUMPI PUSH1 0x0 DUP1 REVERT JUMPDEST DUP1 PUSH4 0x12713EE4 EQ PUSH2 0xA3 JUMPI DUP1 PUSH4 0x233DE126 EQ PUSH2 0xC1 JUMPI DUP1 PUSH4 0x3A4B66F1 EQ PUSH2 0xE0 JUMPI DUP1 PUSH4 0x5A4CFC06 EQ PUSH2 0xF7 JUMPI DUP1 PUSH4 0x718C7D44 EQ PUSH2 0x11A JUMPI JUMPDEST PUSH1 0x0 DUP1 REVERT JUMPDEST PUSH2 0xAB PUSH2 0x1EC JUMP JUMPDEST PUSH1 0x40 MLOAD PUSH2 0xB8 SWAP2 SWAP1 PUSH2 0x3B7 JUMP JUMPDEST PUSH1 0x40 MLOAD DUP1 SWAP2 SUB SWAP1 RETURN JUMPDEST PUSH1 0x5 SLOAD PUSH2 0xCE SWAP1 PUSH1 0xFF AND DUP2 JUMP JUMPDEST PUSH1 0x40 MLOAD PUSH1 0xFF SWAP1 SWAP2 AND DUP2 MSTORE PUSH1 0x20 ADD PUSH2 0xB8 JUMP JUMPDEST PUSH2 0xE9 PUSH1 0x3 SLOAD DUP2 JUMP JUMPDEST PUSH1 0x40 MLOAD SWAP1 DUP2 MSTORE PUSH1 0x20 ADD PUSH2 0xB8 JUMP JUMPDEST PUSH2 0x10A PUSH2 0x105 CALLDATASIZE PUSH1 0x4 PUSH2 0x39F JUMP JUMPDEST PUSH2 0x24E JUMP JUMPDEST PUSH1 0x40 MLOAD SWAP1 ISZERO ISZERO DUP2 MSTORE PUSH1 0x20 ADD PUSH2 0xB8 JUMP JUMPDEST PUSH1 0x1 SLOAD PUSH2 0x12D SWAP1 PUSH1 0x1 PUSH1 0x1 PUSH1 0xA0 SHL SUB AND DUP2 JUMP JUMPDEST PUSH1 0x40 MLOAD PUSH1 0x1 PUSH1 0x1 PUSH1 0xA0 SHL SUB SWAP1 SWAP2 AND DUP2 MSTORE PUSH1 0x20 ADD PUSH2 0xB8 JUMP JUMPDEST PUSH1 0x2 SLOAD PUSH2 0x12D SWAP1 PUSH1 0x1 PUSH1 0x1 PUSH1 0xA0 SHL SUB AND DUP2 JUMP JUMPDEST PUSH2 0xE9 PUSH1 0x4 SLOAD DUP2 JUMP JUMPDEST PUSH2 0x12D PUSH2 0x16F CALLDATASIZE PUSH1 0x4 PUSH2 0x39F JUMP JUMPDEST PUSH2 0x2B9 JUMP JUMPDEST PUSH2 0x10A PUSH2 0x182 CALLDATASIZE PUSH1 0x4 PUSH2 0x371 JUMP JUMPDEST PUSH1 0x6 DUP1 SLOAD PUSH1 0x1 DUP1 DUP3 ADD DUP4 SSTORE PUSH1 0x0 SWAP3 SWAP1 SWAP3 MSTORE PUSH32 0xF652222313E28459528D920B65115C16C04F3EFC82AAEDC97BE59F3F377C0D3F ADD DUP1 SLOAD PUSH1 0x1 PUSH1 0x1 PUSH1 0xA0 SHL SUB NOT AND PUSH1 0x1 PUSH1 0x1 PUSH1 0xA0 SHL SUB SWAP4 SWAP1 SWAP4 AND SWAP3 SWAP1 SWAP3 OR SWAP1 SWAP2 SSTORE SWAP1 JUMP JUMPDEST PUSH2 0x1DF PUSH2 0x2E3 JUMP JUMPDEST PUSH1 0x40 MLOAD PUSH2 0xB8 SWAP2 SWAP1 PUSH2 0x404 JUMP JUMPDEST PUSH1 0x60 PUSH1 0x6 DUP1 SLOAD DUP1 PUSH1 0x20 MUL PUSH1 0x20 ADD PUSH1 0x40 MLOAD SWAP1 DUP2 ADD PUSH1 0x40 MSTORE DUP1 SWAP3 SWAP2 SWAP1 DUP2 DUP2 MSTORE PUSH1 0x20 ADD DUP3 DUP1 SLOAD DUP1 ISZERO PUSH2 0x244 JUMPI PUSH1 0x20 MUL DUP3 ADD SWAP2 SWAP1 PUSH1 0x0 MSTORE PUSH1 0x20 PUSH1 0x0 KECCAK256 SWAP1 JUMPDEST DUP2 SLOAD PUSH1 0x1 PUSH1 0x1 PUSH1 0xA0 SHL SUB AND DUP2 MSTORE PUSH1 0x1 SWAP1 SWAP2 ADD SWAP1 PUSH1 0x20 ADD DUP1 DUP4 GT PUSH2 0x226 JUMPI JUMPDEST POP POP POP POP POP SWAP1 POP SWAP1 JUMP JUMPDEST PUSH1 0x2 SLOAD PUSH1 0x0 SWAP1 PUSH1 0x1 PUSH1 0x1 PUSH1 0xA0 SHL SUB AND CALLER EQ PUSH2 0x29A JUMPI PUSH1 0x40 MLOAD PUSH3 0x461BCD PUSH1 0xE5 SHL DUP2 MSTORE PUSH1 0x20 PUSH1 0x4 DUP3 ADD MSTORE PUSH1 0x8 PUSH1 0x24 DUP3 ADD MSTORE PUSH8 0x6D6B74206F6E6C79 PUSH1 0xC0 SHL PUSH1 0x44 DUP3 ADD MSTORE PUSH1 0x64 ADD PUSH1 0x40 MLOAD DUP1 SWAP2 SUB SWAP1 REVERT JUMPDEST DUP2 PUSH1 0x4 PUSH1 0x0 DUP3 DUP3 SLOAD PUSH2 0x2AC SWAP2 SWAP1 PUSH2 0x457 JUMP JUMPDEST SWAP1 SWAP2 SSTORE POP PUSH1 0x1 SWAP4 SWAP3 POP POP POP JUMP JUMPDEST PUSH1 0x6 DUP2 DUP2 SLOAD DUP2 LT PUSH2 0x2C9 JUMPI PUSH1 0x0 DUP1 REVERT JUMPDEST PUSH1 0x0 SWAP2 DUP3 MSTORE PUSH1 0x20 SWAP1 SWAP2 KECCAK256 ADD SLOAD PUSH1 0x1 PUSH1 0x1 PUSH1 0xA0 SHL SUB AND SWAP1 POP DUP2 JUMP JUMPDEST PUSH1 0x7 DUP1 SLOAD PUSH2 0x2F0 SWAP1 PUSH2 0x47B JUMP JUMPDEST DUP1 PUSH1 0x1F ADD PUSH1 0x20 DUP1 SWAP2 DIV MUL PUSH1 0x20 ADD PUSH1 0x40 MLOAD SWAP1 DUP2 ADD PUSH1 0x40 MSTORE DUP1 SWAP3 SWAP2 SWAP1 DUP2 DUP2 MSTORE PUSH1 0x20 ADD DUP3 DUP1 SLOAD PUSH2 0x31C SWAP1 PUSH2 0x47B JUMP JUMPDEST DUP1 ISZERO PUSH2 0x369 JUMPI DUP1 PUSH1 0x1F LT PUSH2 0x33E JUMPI PUSH2 0x100 DUP1 DUP4 SLOAD DIV MUL DUP4 MSTORE SWAP2 PUSH1 0x20 ADD SWAP2 PUSH2 0x369 JUMP JUMPDEST DUP3 ADD SWAP2 SWAP1 PUSH1 0x0 MSTORE PUSH1 0x20 PUSH1 0x0 KECCAK256 SWAP1 JUMPDEST DUP2 SLOAD DUP2 MSTORE SWAP1 PUSH1 0x1 ADD SWAP1 PUSH1 0x20 ADD DUP1 DUP4 GT PUSH2 0x34C JUMPI DUP3 SWAP1 SUB PUSH1 0x1F AND DUP3 ADD SWAP2 JUMPDEST POP POP POP POP POP DUP2 JUMP JUMPDEST PUSH1 0x0 PUSH1 0x20 DUP3 DUP5 SUB SLT ISZERO PUSH2 0x382 JUMPI DUP1 DUP2 REVERT JUMPDEST DUP2 CALLDATALOAD PUSH1 0x1 PUSH1 0x1 PUSH1 0xA0 SHL SUB DUP2 AND DUP2 EQ PUSH2 0x398 JUMPI DUP2 DUP3 REVERT JUMPDEST SWAP4 SWAP3 POP POP POP JUMP JUMPDEST PUSH1 0x0 PUSH1 0x20 DUP3 DUP5 SUB SLT ISZERO PUSH2 0x3B0 JUMPI DUP1 DUP2 REVERT JUMPDEST POP CALLDATALOAD SWAP2 SWAP1 POP JUMP JUMPDEST PUSH1 0x20 DUP1 DUP3 MSTORE DUP3 MLOAD DUP3 DUP3 ADD DUP2 SWAP1 MSTORE PUSH1 0x0 SWAP2 SWAP1 DUP5 DUP3 ADD SWAP1 PUSH1 0x40 DUP6 ADD SWAP1 DUP5 JUMPDEST DUP2 DUP2 LT ISZERO PUSH2 0x3F8 JUMPI DUP4 MLOAD PUSH1 0x1 PUSH1 0x1 PUSH1 0xA0 SHL SUB AND DUP4 MSTORE SWAP3 DUP5 ADD SWAP3 SWAP2 DUP5 ADD SWAP2 PUSH1 0x1 ADD PUSH2 0x3D3 JUMP JUMPDEST POP SWAP1 SWAP7 SWAP6 POP POP POP POP POP POP JUMP JUMPDEST PUSH1 0x0 PUSH1 0x20 DUP1 DUP4 MSTORE DUP4 MLOAD DUP1 DUP3 DUP6 ADD MSTORE DUP3 JUMPDEST DUP2 DUP2 LT ISZERO PUSH2 0x430 JUMPI DUP6 DUP2 ADD DUP4 ADD MLOAD DUP6 DUP3 ADD PUSH1 0x40 ADD MSTORE DUP3 ADD PUSH2 0x414 JUMP JUMPDEST DUP2 DUP2 GT ISZERO PUSH2 0x441 JUMPI DUP4 PUSH1 0x40 DUP4 DUP8 ADD ADD MSTORE JUMPDEST POP PUSH1 0x1F ADD PUSH1 0x1F NOT AND SWAP3 SWAP1 SWAP3 ADD PUSH1 0x40 ADD SWAP4 SWAP3 POP POP POP JUMP JUMPDEST PUSH1 0x0 DUP3 NOT DUP3 GT ISZERO PUSH2 0x476 JUMPI PUSH4 0x4E487B71 PUSH1 0xE0 SHL DUP2 MSTORE PUSH1 0x11 PUSH1 0x4 MSTORE PUSH1 0x24 DUP2 REVERT JUMPDEST POP ADD SWAP1 JUMP JUMPDEST PUSH1 0x1 DUP2 DUP2 SHR SWAP1 DUP3 AND DUP1 PUSH2 0x48F JUMPI PUSH1 0x7F DUP3 AND SWAP2 POP JUMPDEST PUSH1 0x20 DUP3 LT DUP2 EQ ISZERO PUSH2 0x4B0 JUMPI PUSH4 0x4E487B71 PUSH1 0xE0 SHL PUSH1 0x0 MSTORE PUSH1 0x22 PUSH1 0x4 MSTORE PUSH1 0x24 PUSH1 0x0 REVERT JUMPDEST POP SWAP2 SWAP1 POP JUMP INVALID LOG2 PUSH5 0x6970667358 0x22 SLT KECCAK256 SWAP10 DUP15 0xE2 PUSH8 0xA4A27564B0247F13 STATICCALL DUP9 PUSH17 0xB0F29FDB0247B5C8EA2D2BC3B908D0DDC0 PUSH5 0x736F6C6343 STOP ADDMOD DIV STOP CALLER "
				},
				"gasEstimates": {
					"creation": {
						"codeDepositCost": "252000",
						"executionCost": "infinite",
						"totalCost": "infinite"
					},
					"external": {
						"addPair(address)": "42098",
						"betPairs(uint256)": "2058",
						"better()": "1126",
						"getBetPairs()": "infinite",
						"market()": "1037",
						"marketSide()": "infinite",
						"matched()": "1017",
						"odds()": "1036",
						"setMatched(uint256)": "22105",
						"stake()": "1040"
					}
				},
				"methodIdentifiers": {
					"addPair(address)": "c2b7bbb6",
					"betPairs(uint256)": "a89bc05b",
					"better()": "718c7d44",
					"getBetPairs()": "12713ee4",
					"market()": "80f55605",
					"marketSide()": "fa6ead20",
					"matched()": "8aac9cca",
					"odds()": "233de126",
					"setMatched(uint256)": "5a4cfc06",
					"stake()": "3a4b66f1"
				}
			},
			"storageLayout": {
				"storage": [
					{
						"astId": 8,
						"contract": "contracts/Bet.sol:Bet",
						"label": "w3bAddr",
						"offset": 0,
						"slot": "0",
						"type": "t_address"
					},
					{
						"astId": 11,
						"contract": "contracts/Bet.sol:Bet",
						"label": "better",
						"offset": 0,
						"slot": "1",
						"type": "t_address"
					},
					{
						"astId": 14,
						"contract": "contracts/Bet.sol:Bet",
						"label": "market",
						"offset": 0,
						"slot": "2",
						"type": "t_address"
					},
					{
						"astId": 17,
						"contract": "contracts/Bet.sol:Bet",
						"label": "stake",
						"offset": 0,
						"slot": "3",
						"type": "t_uint256"
					},
					{
						"astId": 20,
						"contract": "contracts/Bet.sol:Bet",
						"label": "matched",
						"offset": 0,
						"slot": "4",
						"type": "t_uint256"
					},
					{
						"astId": 23,
						"contract": "contracts/Bet.sol:Bet",
						"label": "odds",
						"offset": 0,
						"slot": "5",
						"type": "t_uint8"
					},
					{
						"astId": 26,
						"contract": "contracts/Bet.sol:Bet",
						"label": "betPairs",
						"offset": 0,
						"slot": "6",
						"type": "t_array(t_address)dyn_storage"
					},
					{
						"astId": 29,
						"contract": "contracts/Bet.sol:Bet",
						"label": "marketSide",
						"offset": 0,
						"slot": "7",
						"type": "t_string_storage"
					},
					{
						"astId": 35,
						"contract": "contracts/Bet.sol:Bet",
						"label": "web3bets",
						"offset": 0,
						"slot": "8",
						"type": "t_contract(IWeb3BetsFO)313"
					}
				],
				"types": {
					"t_address": {
						"encoding": "inplace",
						"label": "address",
						"numberOfBytes": "20"
					},
					"t_array(t_address)dyn_storage": {
						"base": "t_address",
						"encoding": "dynamic_array",
						"label": "address[]",
						"numberOfBytes": "32"
					},
					"t_contract(IWeb3BetsFO)313": {
						"encoding": "inplace",
						"label": "contract IWeb3BetsFO",
						"numberOfBytes": "20"
					},
					"t_string_storage": {
						"encoding": "bytes",
						"label": "string",
						"numberOfBytes": "32"
					},
					"t_uint256": {
						"encoding": "inplace",
						"label": "uint256",
						"numberOfBytes": "32"
					},
					"t_uint8": {
						"encoding": "inplace",
						"label": "uint8",
						"numberOfBytes": "1"
					}
				}
			},
			"userdoc": {
				"kind": "user",
				"methods": {},
				"version": 1
			}
		}
	}
}