{
	"contracts/Market.sol": {
		"Market": {
			"abi": [
				{
					"inputs": [
						{
							"internalType": "string",
							"name": "name_",
							"type": "string"
						},
						{
							"internalType": "address",
							"name": "eventAddress_",
							"type": "address"
						},
						{
							"internalType": "string",
							"name": "sideAName_",
							"type": "string"
						},
						{
							"internalType": "string",
							"name": "sideBName_",
							"type": "string"
						}
					],
					"stateMutability": "nonpayable",
					"type": "constructor"
				},
				{
					"inputs": [
						{
							"internalType": "address",
							"name": "_better",
							"type": "address"
						},
						{
							"internalType": "address",
							"name": "_betAddress",
							"type": "address"
						},
						{
							"internalType": "uint256",
							"name": "_stake",
							"type": "uint256"
						},
						{
							"internalType": "uint8",
							"name": "_odds",
							"type": "uint8"
						},
						{
							"internalType": "string",
							"name": "_side",
							"type": "string"
						}
					],
					"name": "addBet",
					"outputs": [
						{
							"internalType": "bool",
							"name": "",
							"type": "bool"
						}
					],
					"stateMutability": "nonpayable",
					"type": "function"
				},
				{
					"inputs": [],
					"name": "cancelMarket",
					"outputs": [
						{
							"internalType": "bool",
							"name": "",
							"type": "bool"
						}
					],
					"stateMutability": "nonpayable",
					"type": "function"
				},
				{
					"inputs": [],
					"name": "eventAddress",
					"outputs": [
						{
							"internalType": "address",
							"name": "",
							"type": "address"
						}
					],
					"stateMutability": "view",
					"type": "function"
				},
				{
					"inputs": [],
					"name": "hasSetWinningSide",
					"outputs": [
						{
							"internalType": "bool",
							"name": "",
							"type": "bool"
						}
					],
					"stateMutability": "view",
					"type": "function"
				},
				{
					"inputs": [],
					"name": "isCanceled",
					"outputs": [
						{
							"internalType": "bool",
							"name": "",
							"type": "bool"
						}
					],
					"stateMutability": "view",
					"type": "function"
				},
				{
					"inputs": [],
					"name": "name",
					"outputs": [
						{
							"internalType": "string",
							"name": "",
							"type": "string"
						}
					],
					"stateMutability": "view",
					"type": "function"
				},
				{
					"inputs": [
						{
							"internalType": "string",
							"name": "_winningSide",
							"type": "string"
						}
					],
					"name": "setWinningSide",
					"outputs": [
						{
							"internalType": "bool",
							"name": "",
							"type": "bool"
						}
					],
					"stateMutability": "nonpayable",
					"type": "function"
				},
				{
					"inputs": [
						{
							"internalType": "address",
							"name": "_pair",
							"type": "address"
						}
					],
					"name": "settlePair",
					"outputs": [
						{
							"internalType": "bool",
							"name": "",
							"type": "bool"
						}
					],
					"stateMutability": "nonpayable",
					"type": "function"
				},
				{
					"inputs": [
						{
							"internalType": "uint256",
							"name": "",
							"type": "uint256"
						}
					],
					"name": "sideABets",
					"outputs": [
						{
							"internalType": "address",
							"name": "betAddress",
							"type": "address"
						},
						{
							"internalType": "uint256",
							"name": "stake",
							"type": "uint256"
						},
						{
							"internalType": "uint8",
							"name": "odds",
							"type": "uint8"
						}
					],
					"stateMutability": "view",
					"type": "function"
				},
				{
					"inputs": [],
					"name": "sideAName",
					"outputs": [
						{
							"internalType": "string",
							"name": "",
							"type": "string"
						}
					],
					"stateMutability": "view",
					"type": "function"
				},
				{
					"inputs": [],
					"name": "sideATotalStake",
					"outputs": [
						{
							"internalType": "uint256",
							"name": "",
							"type": "uint256"
						}
					],
					"stateMutability": "view",
					"type": "function"
				},
				{
					"inputs": [
						{
							"internalType": "address",
							"name": "",
							"type": "address"
						}
					],
					"name": "sideAUsersStakes",
					"outputs": [
						{
							"internalType": "uint256",
							"name": "",
							"type": "uint256"
						}
					],
					"stateMutability": "view",
					"type": "function"
				},
				{
					"inputs": [
						{
							"internalType": "uint256",
							"name": "",
							"type": "uint256"
						}
					],
					"name": "sideBBets",
					"outputs": [
						{
							"internalType": "address",
							"name": "betAddress",
							"type": "address"
						},
						{
							"internalType": "uint256",
							"name": "stake",
							"type": "uint256"
						},
						{
							"internalType": "uint8",
							"name": "odds",
							"type": "uint8"
						}
					],
					"stateMutability": "view",
					"type": "function"
				},
				{
					"inputs": [],
					"name": "sideBName",
					"outputs": [
						{
							"internalType": "string",
							"name": "",
							"type": "string"
						}
					],
					"stateMutability": "view",
					"type": "function"
				},
				{
					"inputs": [],
					"name": "sideBTotalStake",
					"outputs": [
						{
							"internalType": "uint256",
							"name": "",
							"type": "uint256"
						}
					],
					"stateMutability": "view",
					"type": "function"
				},
				{
					"inputs": [
						{
							"internalType": "address",
							"name": "",
							"type": "address"
						}
					],
					"name": "sideBUsersStakes",
					"outputs": [
						{
							"internalType": "uint256",
							"name": "",
							"type": "uint256"
						}
					],
					"stateMutability": "view",
					"type": "function"
				},
				{
					"inputs": [
						{
							"internalType": "string",
							"name": "name_",
							"type": "string"
						},
						{
							"internalType": "string",
							"name": "sideAName_",
							"type": "string"
						},
						{
							"internalType": "string",
							"name": "sideBName_",
							"type": "string"
						}
					],
					"name": "upadteMarket",
					"outputs": [
						{
							"internalType": "bool",
							"name": "",
							"type": "bool"
						}
					],
					"stateMutability": "nonpayable",
					"type": "function"
				},
				{
					"inputs": [],
					"name": "winningSide",
					"outputs": [
						{
							"internalType": "string",
							"name": "",
							"type": "string"
						}
					],
					"stateMutability": "view",
					"type": "function"
				},
				{
					"inputs": [
						{
							"internalType": "address",
							"name": "_bet",
							"type": "address"
						}
					],
					"name": "withdrawPending",
					"outputs": [
						{
							"internalType": "bool",
							"name": "",
							"type": "bool"
						}
					],
					"stateMutability": "nonpayable",
					"type": "function"
				}
			],
			"devdoc": {
				"kind": "dev",
				"methods": {},
				"version": 1
			},
			"evm": {
				"assembly": "    /* \"contracts/Market.sol\":236:10407  contract Market is IMarket {... */\n  0x80\n  0x40\n  dup2\n  swap1\n  mstore\n    /* \"contracts/Market.sol\":499:538  bool public override isCanceled = false */\n  0x04\n  dup1\n  sload\n  not(0xff)\n  and\n  dup2\n  sstore\n    /* \"contracts/Market.sol\":533:538  false */\n  0x00\n    /* \"contracts/Market.sol\":583:626  uint256 public override sideATotalStake = 0 */\n  0x06\n  dup2\n  swap1\n  sstore\n    /* \"contracts/Market.sol\":670:713  uint256 public override sideBTotalStake = 0 */\n  0x08\n  dup2\n  swap1\n  sstore\n    /* \"contracts/Market.sol\":1131:1146  web3betsAddress */\n  sload\n    /* \"contracts/Market.sol\":1088:1147  IWeb3BetsFO private web3bets = IWeb3BetsFO(web3betsAddress) */\n  0x0f\n  dup1\n  sload\n  not(sub(shl(0xa0, 0x01), 0x01))\n  and\n  sub(shl(0xa0, 0x01), 0x01)\n    /* \"contracts/Market.sol\":1131:1146  web3betsAddress */\n  swap1\n  swap3\n  and\n    /* \"contracts/Market.sol\":1088:1147  IWeb3BetsFO private web3bets = IWeb3BetsFO(web3betsAddress) */\n  swap2\n  dup3\n  or\n  swap1\n  sstore\n  shl(0xe0, 0x992642e5)\n    /* \"contracts/Market.sol\":1183:1204  web3bets.stableCoin() */\n  dup4\n  mstore\n    /* \"contracts/Market.sol\":1131:1146  web3betsAddress */\n  swap2\n    /* \"contracts/Market.sol\":1183:1202  web3bets.stableCoin */\n  0x992642e5\n  swap2\n    /* \"contracts/Market.sol\":1183:1204  web3bets.stableCoin() */\n  0x84\n  swap2\n  0x20\n  swap2\n    /* \"contracts/Market.sol\":236:10407  contract Market is IMarket {... */\n  dup2\n    /* \"contracts/Market.sol\":1131:1146  web3betsAddress */\n  dup7\n    /* \"contracts/Market.sol\":1183:1204  web3bets.stableCoin() */\n  dup1\n  extcodesize\n  iszero\n  dup1\n  iszero\n  tag_1\n  jumpi\n  0x00\n  dup1\n  revert\ntag_1:\n  pop\n  gas\n  staticcall\n  iszero\n  dup1\n  iszero\n  tag_3\n  jumpi\n  returndatasize\n  0x00\n  dup1\n  returndatacopy\n  revert(0x00, returndatasize)\ntag_3:\n  pop\n  pop\n  pop\n  pop\n  mload(0x40)\n  returndatasize\n  not(0x1f)\n  0x1f\n  dup3\n  add\n  and\n  dup3\n  add\n  dup1\n  0x40\n  mstore\n  pop\n  dup2\n  add\n  swap1\n  tag_4\n  swap2\n  swap1\n  tag_5\n  jump\t// in\ntag_4:\n    /* \"contracts/Market.sol\":1154:1204  address private stableCoin = web3bets.stableCoin() */\n  0x10\n  dup1\n  sload\n  sub(shl(0xa0, 0x01), 0x01)\n  swap3\n  swap1\n  swap3\n  and\n  not(sub(shl(0xa0, 0x01), 0x01))\n  swap3\n  dup4\n  and\n  dup2\n  or\n  swap1\n  swap2\n  sstore\n    /* \"contracts/Market.sol\":1211:1265  IERC20 private _stableCoinWrapper = IERC20(stableCoin) */\n  0x11\n  dup1\n  sload\n  swap1\n  swap3\n  and\n  or\n  swap1\n  sstore\n    /* \"contracts/Market.sol\":1570:1913  constructor(... */\n  callvalue\n  dup1\n  iszero\n  tag_6\n  jumpi\n  0x00\n  dup1\n  revert\ntag_6:\n  pop\n  mload(0x40)\n  sub(codesize, bytecodeSize)\n  dup1\n  bytecodeSize\n  dup4\n  codecopy\n  dup2\n  add\n  0x40\n  dup2\n  swap1\n  mstore\n  tag_7\n  swap2\n  tag_8\n  jump\t// in\ntag_7:\n    /* \"contracts/Market.sol\":1748:1756  web3bets */\n  0x0f\n  0x00\n  swap1\n  sload\n  swap1\n  0x0100\n  exp\n  swap1\n  div\n  sub(shl(0xa0, 0x01), 0x01)\n  and\n  sub(shl(0xa0, 0x01), 0x01)\n    /* \"contracts/Market.sol\":1748:1770  web3bets.marketFactory */\n  and\n  0x06ae7095\n    /* \"contracts/Market.sol\":1748:1772  web3bets.marketFactory() */\n  mload(0x40)\n  dup2\n  0xffffffff\n  and\n  0xe0\n  shl\n  dup2\n  mstore\n  0x04\n  add\n  0x20\n  mload(0x40)\n  dup1\n  dup4\n  sub\n  dup2\n  dup7\n  dup1\n  extcodesize\n  iszero\n  dup1\n  iszero\n  tag_11\n  jumpi\n  0x00\n  dup1\n  revert\ntag_11:\n  pop\n  gas\n  staticcall\n  iszero\n  dup1\n  iszero\n  tag_13\n  jumpi\n  returndatasize\n  0x00\n  dup1\n  returndatacopy\n  revert(0x00, returndatasize)\ntag_13:\n  pop\n  pop\n  pop\n  pop\n  mload(0x40)\n  returndatasize\n  not(0x1f)\n  0x1f\n  dup3\n  add\n  and\n  dup3\n  add\n  dup1\n  0x40\n  mstore\n  pop\n  dup2\n  add\n  swap1\n  tag_14\n  swap2\n  swap1\n  tag_5\n  jump\t// in\ntag_14:\n  sub(shl(0xa0, 0x01), 0x01)\n    /* \"contracts/Market.sol\":1734:1772  msg.sender == web3bets.marketFactory() */\n  and\n    /* \"contracts/Market.sol\":1734:1744  msg.sender */\n  caller\n  sub(shl(0xa0, 0x01), 0x01)\n    /* \"contracts/Market.sol\":1734:1772  msg.sender == web3bets.marketFactory() */\n  and\n  eq\n    /* \"contracts/Market.sol\":1726:1782  require(msg.sender == web3bets.marketFactory(), \"fty o\") */\n  tag_15\n  jumpi\n  mload(0x40)\n  shl(0xe5, 0x461bcd)\n  dup2\n  mstore\n    /* \"#utility.yul\":2432:2434   */\n  0x20\n    /* \"contracts/Market.sol\":1726:1782  require(msg.sender == web3bets.marketFactory(), \"fty o\") */\n  0x04\n  dup3\n  add\n    /* \"#utility.yul\":2414:2435   */\n  mstore\n    /* \"#utility.yul\":2471:2472   */\n  0x05\n    /* \"#utility.yul\":2451:2469   */\n  0x24\n  dup3\n  add\n    /* \"#utility.yul\":2444:2473   */\n  mstore\n  shl(0xd8, 0x667479206f)\n    /* \"#utility.yul\":2489:2507   */\n  0x44\n  dup3\n  add\n    /* \"#utility.yul\":2482:2517   */\n  mstore\n    /* \"#utility.yul\":2534:2552   */\n  0x64\n  add\n    /* \"contracts/Market.sol\":1726:1782  require(msg.sender == web3bets.marketFactory(), \"fty o\") */\n  mload(0x40)\n  dup1\n  swap2\n  sub\n  swap1\n  revert\ntag_15:\n    /* \"contracts/Market.sol\":1792:1804  name = name_ */\n  dup4\n  mload\n  tag_18\n  swap1\n    /* \"contracts/Market.sol\":1792:1796  name */\n  0x01\n  swap1\n    /* \"contracts/Market.sol\":1792:1804  name = name_ */\n  0x20\n  dup8\n  add\n  swap1\n  tag_19\n  jump\t// in\ntag_18:\n  pop\n    /* \"contracts/Market.sol\":1814:1826  eventAddress */\n  0x02\n    /* \"contracts/Market.sol\":1814:1842  eventAddress = eventAddress_ */\n  dup1\n  sload\n  not(sub(shl(0xa0, 0x01), 0x01))\n  and\n  sub(shl(0xa0, 0x01), 0x01)\n  dup6\n  and\n  or\n  swap1\n  sstore\n    /* \"contracts/Market.sol\":1852:1874  sideAName = sideAName_ */\n  dup2\n  mload\n  tag_20\n  swap1\n    /* \"contracts/Market.sol\":1852:1861  sideAName */\n  0x05\n  swap1\n    /* \"contracts/Market.sol\":1852:1874  sideAName = sideAName_ */\n  0x20\n  dup6\n  add\n  swap1\n  tag_19\n  jump\t// in\ntag_20:\n  pop\n    /* \"contracts/Market.sol\":1884:1906  sideBName = sideBName_ */\n  dup1\n  mload\n  tag_21\n  swap1\n    /* \"contracts/Market.sol\":1884:1893  sideBName */\n  0x07\n  swap1\n    /* \"contracts/Market.sol\":1884:1906  sideBName = sideBName_ */\n  0x20\n  dup5\n  add\n  swap1\n  tag_19\n  jump\t// in\ntag_21:\n  pop\n    /* \"contracts/Market.sol\":1570:1913  constructor(... */\n  pop\n  pop\n  pop\n  pop\n    /* \"contracts/Market.sol\":236:10407  contract Market is IMarket {... */\n  jump(tag_34)\ntag_19:\n  dup3\n  dup1\n  sload\n  tag_23\n  swap1\n  tag_24\n  jump\t// in\ntag_23:\n  swap1\n  0x00\n  mstore\n  keccak256(0x00, 0x20)\n  swap1\n  0x1f\n  add\n  0x20\n  swap1\n  div\n  dup2\n  add\n  swap3\n  dup3\n  tag_26\n  jumpi\n  0x00\n  dup6\n  sstore\n  jump(tag_29)\ntag_26:\n  dup3\n  0x1f\n  lt\n  tag_27\n  jumpi\n  dup1\n  mload\n  not(0xff)\n  and\n  dup4\n  dup1\n  add\n  or\n  dup6\n  sstore\n  jump(tag_29)\ntag_27:\n  dup3\n  dup1\n  add\n  0x01\n  add\n  dup6\n  sstore\n  dup3\n  iszero\n  tag_29\n  jumpi\n  swap2\n  dup3\n  add\ntag_28:\n  dup3\n  dup2\n  gt\n  iszero\n  tag_29\n  jumpi\n  dup3\n  mload\n  dup3\n  sstore\n  swap2\n  0x20\n  add\n  swap2\n  swap1\n  0x01\n  add\n  swap1\n  jump(tag_28)\ntag_29:\n  pop\n  tag_30\n  swap3\n  swap2\n  pop\n  tag_31\n  jump\t// in\ntag_30:\n  pop\n  swap1\n  jump\t// out\ntag_31:\ntag_32:\n  dup1\n  dup3\n  gt\n  iszero\n  tag_30\n  jumpi\n  0x00\n  dup2\n  sstore\n  0x01\n  add\n  jump(tag_32)\n    /* \"#utility.yul\":14:191   */\ntag_35:\n    /* \"#utility.yul\":93:106   */\n  dup1\n  mload\n  sub(shl(0xa0, 0x01), 0x01)\n    /* \"#utility.yul\":135:166   */\n  dup2\n  and\n    /* \"#utility.yul\":125:167   */\n  dup2\n  eq\n    /* \"#utility.yul\":115:117   */\n  tag_37\n  jumpi\n    /* \"#utility.yul\":181:182   */\n  0x00\n    /* \"#utility.yul\":178:179   */\n  dup1\n    /* \"#utility.yul\":171:183   */\n  revert\n    /* \"#utility.yul\":115:117   */\ntag_37:\n    /* \"#utility.yul\":74:191   */\n  swap2\n  swap1\n  pop\n  jump\t// out\n    /* \"#utility.yul\":196:1105   */\ntag_38:\n    /* \"#utility.yul\":250:255   */\n  0x00\n    /* \"#utility.yul\":303:306   */\n  dup3\n    /* \"#utility.yul\":296:300   */\n  0x1f\n    /* \"#utility.yul\":288:294   */\n  dup4\n    /* \"#utility.yul\":284:301   */\n  add\n    /* \"#utility.yul\":280:307   */\n  slt\n    /* \"#utility.yul\":270:272   */\n  tag_40\n  jumpi\n    /* \"#utility.yul\":325:330   */\n  dup1\n    /* \"#utility.yul\":318:323   */\n  dup2\n    /* \"#utility.yul\":311:331   */\n  revert\n    /* \"#utility.yul\":270:272   */\ntag_40:\n    /* \"#utility.yul\":352:365   */\n  dup2\n  mload\n  sub(shl(0x40, 0x01), 0x01)\n    /* \"#utility.yul\":414:424   */\n  dup1\n  dup3\n  gt\n    /* \"#utility.yul\":411:413   */\n  iszero\n  tag_42\n  jumpi\n    /* \"#utility.yul\":427:445   */\n  tag_42\n  tag_43\n  jump\t// in\ntag_42:\n    /* \"#utility.yul\":502:504   */\n  0x40\n    /* \"#utility.yul\":496:505   */\n  mload\n    /* \"#utility.yul\":470:472   */\n  0x1f\n    /* \"#utility.yul\":556:569   */\n  dup4\n  add\n  not(0x1f)\n    /* \"#utility.yul\":552:574   */\n  swap1\n  dup2\n  and\n    /* \"#utility.yul\":576:578   */\n  0x3f\n    /* \"#utility.yul\":548:579   */\n  add\n    /* \"#utility.yul\":544:584   */\n  and\n    /* \"#utility.yul\":532:585   */\n  dup2\n  add\n  swap1\n    /* \"#utility.yul\":600:618   */\n  dup3\n  dup3\n  gt\n    /* \"#utility.yul\":620:642   */\n  dup2\n  dup4\n  lt\n    /* \"#utility.yul\":597:643   */\n  or\n    /* \"#utility.yul\":594:596   */\n  iszero\n  tag_45\n  jumpi\n    /* \"#utility.yul\":646:664   */\n  tag_45\n  tag_43\n  jump\t// in\ntag_45:\n    /* \"#utility.yul\":686:696   */\n  dup2\n    /* \"#utility.yul\":682:684   */\n  0x40\n    /* \"#utility.yul\":675:697   */\n  mstore\n    /* \"#utility.yul\":721:723   */\n  dup4\n    /* \"#utility.yul\":713:719   */\n  dup2\n    /* \"#utility.yul\":706:724   */\n  mstore\n    /* \"#utility.yul\":743:747   */\n  0x20\n    /* \"#utility.yul\":733:747   */\n  swap3\n  pop\n    /* \"#utility.yul\":788:791   */\n  dup7\n    /* \"#utility.yul\":783:785   */\n  dup4\n    /* \"#utility.yul\":778:780   */\n  dup6\n    /* \"#utility.yul\":770:776   */\n  dup9\n    /* \"#utility.yul\":766:781   */\n  add\n    /* \"#utility.yul\":762:786   */\n  add\n    /* \"#utility.yul\":759:792   */\n  gt\n    /* \"#utility.yul\":756:758   */\n  iszero\n  tag_46\n  jumpi\n    /* \"#utility.yul\":809:814   */\n  dup5\n    /* \"#utility.yul\":802:807   */\n  dup6\n    /* \"#utility.yul\":795:815   */\n  revert\n    /* \"#utility.yul\":756:758   */\ntag_46:\n    /* \"#utility.yul\":835:840   */\n  dup5\n    /* \"#utility.yul\":826:840   */\n  swap2\n  pop\n    /* \"#utility.yul\":849:982   */\ntag_47:\n    /* \"#utility.yul\":863:865   */\n  dup4\n    /* \"#utility.yul\":860:861   */\n  dup3\n    /* \"#utility.yul\":857:866   */\n  lt\n    /* \"#utility.yul\":849:982   */\n  iszero\n  tag_49\n  jumpi\n    /* \"#utility.yul\":951:965   */\n  dup6\n  dup3\n  add\n    /* \"#utility.yul\":947:970   */\n  dup4\n  add\n    /* \"#utility.yul\":941:971   */\n  mload\n    /* \"#utility.yul\":920:934   */\n  dup2\n  dup4\n  add\n    /* \"#utility.yul\":916:939   */\n  dup5\n  add\n    /* \"#utility.yul\":909:972   */\n  mstore\n    /* \"#utility.yul\":874:884   */\n  swap1\n  dup3\n  add\n  swap1\n    /* \"#utility.yul\":849:982   */\n  jump(tag_47)\ntag_49:\n    /* \"#utility.yul\":1000:1002   */\n  dup4\n    /* \"#utility.yul\":997:998   */\n  dup3\n    /* \"#utility.yul\":994:1003   */\n  gt\n    /* \"#utility.yul\":991:993   */\n  iszero\n  tag_50\n  jumpi\n    /* \"#utility.yul\":1059:1064   */\n  dup5\n    /* \"#utility.yul\":1054:1056   */\n  dup4\n    /* \"#utility.yul\":1049:1051   */\n  dup6\n    /* \"#utility.yul\":1041:1047   */\n  dup4\n    /* \"#utility.yul\":1037:1052   */\n  add\n    /* \"#utility.yul\":1033:1057   */\n  add\n    /* \"#utility.yul\":1026:1065   */\n  mstore\n    /* \"#utility.yul\":991:993   */\ntag_50:\n    /* \"#utility.yul\":1093:1099   */\n  swap7\n    /* \"#utility.yul\":260:1105   */\n  swap6\n  pop\n  pop\n  pop\n  pop\n  pop\n  pop\n  jump\t// out\n    /* \"#utility.yul\":1110:1328   */\ntag_5:\n    /* \"#utility.yul\":1180:1186   */\n  0x00\n    /* \"#utility.yul\":1233:1235   */\n  0x20\n    /* \"#utility.yul\":1221:1230   */\n  dup3\n    /* \"#utility.yul\":1212:1219   */\n  dup5\n    /* \"#utility.yul\":1208:1231   */\n  sub\n    /* \"#utility.yul\":1204:1236   */\n  slt\n    /* \"#utility.yul\":1201:1203   */\n  iszero\n  tag_52\n  jumpi\n    /* \"#utility.yul\":1254:1260   */\n  dup1\n    /* \"#utility.yul\":1246:1252   */\n  dup2\n    /* \"#utility.yul\":1239:1261   */\n  revert\n    /* \"#utility.yul\":1201:1203   */\ntag_52:\n    /* \"#utility.yul\":1282:1322   */\n  tag_53\n    /* \"#utility.yul\":1312:1321   */\n  dup3\n    /* \"#utility.yul\":1282:1322   */\n  tag_35\n  jump\t// in\ntag_53:\n    /* \"#utility.yul\":1272:1322   */\n  swap4\n    /* \"#utility.yul\":1191:1328   */\n  swap3\n  pop\n  pop\n  pop\n  jump\t// out\n    /* \"#utility.yul\":1333:2225   */\ntag_8:\n    /* \"#utility.yul\":1460:1466   */\n  0x00\n    /* \"#utility.yul\":1468:1474   */\n  dup1\n    /* \"#utility.yul\":1476:1482   */\n  0x00\n    /* \"#utility.yul\":1484:1490   */\n  dup1\n    /* \"#utility.yul\":1537:1540   */\n  0x80\n    /* \"#utility.yul\":1525:1534   */\n  dup6\n    /* \"#utility.yul\":1516:1523   */\n  dup8\n    /* \"#utility.yul\":1512:1535   */\n  sub\n    /* \"#utility.yul\":1508:1541   */\n  slt\n    /* \"#utility.yul\":1505:1507   */\n  iszero\n  tag_55\n  jumpi\n    /* \"#utility.yul\":1559:1565   */\n  dup3\n    /* \"#utility.yul\":1551:1557   */\n  dup4\n    /* \"#utility.yul\":1544:1566   */\n  revert\n    /* \"#utility.yul\":1505:1507   */\ntag_55:\n    /* \"#utility.yul\":1591:1607   */\n  dup5\n  mload\n  sub(shl(0x40, 0x01), 0x01)\n    /* \"#utility.yul\":1656:1670   */\n  dup1\n  dup3\n  gt\n    /* \"#utility.yul\":1653:1655   */\n  iszero\n  tag_56\n  jumpi\n    /* \"#utility.yul\":1688:1694   */\n  dup5\n    /* \"#utility.yul\":1680:1686   */\n  dup6\n    /* \"#utility.yul\":1673:1695   */\n  revert\n    /* \"#utility.yul\":1653:1655   */\ntag_56:\n    /* \"#utility.yul\":1716:1777   */\n  tag_57\n    /* \"#utility.yul\":1769:1776   */\n  dup9\n    /* \"#utility.yul\":1760:1766   */\n  dup4\n    /* \"#utility.yul\":1749:1758   */\n  dup10\n    /* \"#utility.yul\":1745:1767   */\n  add\n    /* \"#utility.yul\":1716:1777   */\n  tag_38\n  jump\t// in\ntag_57:\n    /* \"#utility.yul\":1706:1777   */\n  swap6\n  pop\n    /* \"#utility.yul\":1796:1845   */\n  tag_58\n    /* \"#utility.yul\":1841:1843   */\n  0x20\n    /* \"#utility.yul\":1830:1839   */\n  dup9\n    /* \"#utility.yul\":1826:1844   */\n  add\n    /* \"#utility.yul\":1796:1845   */\n  tag_35\n  jump\t// in\ntag_58:\n    /* \"#utility.yul\":1786:1845   */\n  swap5\n  pop\n    /* \"#utility.yul\":1891:1893   */\n  0x40\n    /* \"#utility.yul\":1880:1889   */\n  dup8\n    /* \"#utility.yul\":1876:1894   */\n  add\n    /* \"#utility.yul\":1870:1895   */\n  mload\n    /* \"#utility.yul\":1854:1895   */\n  swap2\n  pop\n    /* \"#utility.yul\":1920:1922   */\n  dup1\n    /* \"#utility.yul\":1910:1918   */\n  dup3\n    /* \"#utility.yul\":1907:1923   */\n  gt\n    /* \"#utility.yul\":1904:1906   */\n  iszero\n  tag_59\n  jumpi\n    /* \"#utility.yul\":1941:1947   */\n  dup4\n    /* \"#utility.yul\":1933:1939   */\n  dup5\n    /* \"#utility.yul\":1926:1948   */\n  revert\n    /* \"#utility.yul\":1904:1906   */\ntag_59:\n    /* \"#utility.yul\":1969:2032   */\n  tag_60\n    /* \"#utility.yul\":2024:2031   */\n  dup9\n    /* \"#utility.yul\":2013:2021   */\n  dup4\n    /* \"#utility.yul\":2002:2011   */\n  dup10\n    /* \"#utility.yul\":1998:2022   */\n  add\n    /* \"#utility.yul\":1969:2032   */\n  tag_38\n  jump\t// in\ntag_60:\n    /* \"#utility.yul\":1959:2032   */\n  swap4\n  pop\n    /* \"#utility.yul\":2078:2080   */\n  0x60\n    /* \"#utility.yul\":2067:2076   */\n  dup8\n    /* \"#utility.yul\":2063:2081   */\n  add\n    /* \"#utility.yul\":2057:2082   */\n  mload\n    /* \"#utility.yul\":2041:2082   */\n  swap2\n  pop\n    /* \"#utility.yul\":2107:2109   */\n  dup1\n    /* \"#utility.yul\":2097:2105   */\n  dup3\n    /* \"#utility.yul\":2094:2110   */\n  gt\n    /* \"#utility.yul\":2091:2093   */\n  iszero\n  tag_61\n  jumpi\n    /* \"#utility.yul\":2128:2134   */\n  dup3\n    /* \"#utility.yul\":2120:2126   */\n  dup4\n    /* \"#utility.yul\":2113:2135   */\n  revert\n    /* \"#utility.yul\":2091:2093   */\ntag_61:\n  pop\n    /* \"#utility.yul\":2156:2219   */\n  tag_62\n    /* \"#utility.yul\":2211:2218   */\n  dup8\n    /* \"#utility.yul\":2200:2208   */\n  dup3\n    /* \"#utility.yul\":2189:2198   */\n  dup9\n    /* \"#utility.yul\":2185:2209   */\n  add\n    /* \"#utility.yul\":2156:2219   */\n  tag_38\n  jump\t// in\ntag_62:\n    /* \"#utility.yul\":2146:2219   */\n  swap2\n  pop\n  pop\n    /* \"#utility.yul\":1495:2225   */\n  swap3\n  swap6\n  swap2\n  swap5\n  pop\n  swap3\n  pop\n  jump\t// out\n    /* \"#utility.yul\":2563:2943   */\ntag_24:\n    /* \"#utility.yul\":2642:2643   */\n  0x01\n    /* \"#utility.yul\":2638:2650   */\n  dup2\n  dup2\n  shr\n  swap1\n    /* \"#utility.yul\":2685:2697   */\n  dup3\n  and\n  dup1\n    /* \"#utility.yul\":2706:2708   */\n  tag_65\n  jumpi\n    /* \"#utility.yul\":2760:2764   */\n  0x7f\n    /* \"#utility.yul\":2752:2758   */\n  dup3\n    /* \"#utility.yul\":2748:2765   */\n  and\n    /* \"#utility.yul\":2738:2765   */\n  swap2\n  pop\n    /* \"#utility.yul\":2706:2708   */\ntag_65:\n    /* \"#utility.yul\":2813:2815   */\n  0x20\n    /* \"#utility.yul\":2805:2811   */\n  dup3\n    /* \"#utility.yul\":2802:2816   */\n  lt\n    /* \"#utility.yul\":2782:2800   */\n  dup2\n    /* \"#utility.yul\":2779:2817   */\n  eq\n    /* \"#utility.yul\":2776:2778   */\n  iszero\n  tag_66\n  jumpi\n    /* \"#utility.yul\":2859:2869   */\n  0x4e487b71\n    /* \"#utility.yul\":2854:2857   */\n  0xe0\n    /* \"#utility.yul\":2850:2870   */\n  shl\n    /* \"#utility.yul\":2847:2848   */\n  0x00\n    /* \"#utility.yul\":2840:2871   */\n  mstore\n    /* \"#utility.yul\":2894:2898   */\n  0x22\n    /* \"#utility.yul\":2891:2892   */\n  0x04\n    /* \"#utility.yul\":2884:2899   */\n  mstore\n    /* \"#utility.yul\":2922:2926   */\n  0x24\n    /* \"#utility.yul\":2919:2920   */\n  0x00\n    /* \"#utility.yul\":2912:2927   */\n  revert\n    /* \"#utility.yul\":2776:2778   */\ntag_66:\n  pop\n    /* \"#utility.yul\":2618:2943   */\n  swap2\n  swap1\n  pop\n  jump\t// out\n    /* \"#utility.yul\":2948:3075   */\ntag_43:\n    /* \"#utility.yul\":3009:3019   */\n  0x4e487b71\n    /* \"#utility.yul\":3004:3007   */\n  0xe0\n    /* \"#utility.yul\":3000:3020   */\n  shl\n    /* \"#utility.yul\":2997:2998   */\n  0x00\n    /* \"#utility.yul\":2990:3021   */\n  mstore\n    /* \"#utility.yul\":3040:3044   */\n  0x41\n    /* \"#utility.yul\":3037:3038   */\n  0x04\n    /* \"#utility.yul\":3030:3045   */\n  mstore\n    /* \"#utility.yul\":3064:3068   */\n  0x24\n    /* \"#utility.yul\":3061:3062   */\n  0x00\n    /* \"#utility.yul\":3054:3069   */\n  revert\n    /* \"#utility.yul\":2980:3075   */\ntag_34:\n    /* \"contracts/Market.sol\":236:10407  contract Market is IMarket {... */\n  dataSize(sub_0)\n  dup1\n  dataOffset(sub_0)\n  0x00\n  codecopy\n  0x00\n  return\nstop\n\nsub_0: assembly {\n        /* \"contracts/Market.sol\":236:10407  contract Market is IMarket {... */\n      mstore(0x40, 0x80)\n      callvalue\n      dup1\n      iszero\n      tag_1\n      jumpi\n      0x00\n      dup1\n      revert\n    tag_1:\n      pop\n      jumpi(tag_2, lt(calldatasize, 0x04))\n      shr(0xe0, calldataload(0x00))\n      dup1\n      0x8eb1a4ad\n      gt\n      tag_22\n      jumpi\n      dup1\n      0xbd92630c\n      gt\n      tag_23\n      jumpi\n      dup1\n      0xbd92630c\n      eq\n      tag_17\n      jumpi\n      dup1\n      0xd37e2996\n      eq\n      tag_18\n      jumpi\n      dup1\n      0xe7c9a87f\n      eq\n      tag_19\n      jumpi\n      dup1\n      0xfad56779\n      eq\n      tag_20\n      jumpi\n      dup1\n      0xfbf06338\n      eq\n      tag_21\n      jumpi\n      0x00\n      dup1\n      revert\n    tag_23:\n      dup1\n      0x8eb1a4ad\n      eq\n      tag_12\n      jumpi\n      dup1\n      0x948fb24d\n      eq\n      tag_13\n      jumpi\n      dup1\n      0x9bf5b845\n      eq\n      tag_14\n      jumpi\n      dup1\n      0xa355f897\n      eq\n      tag_15\n      jumpi\n      dup1\n      0xb40a4f05\n      eq\n      tag_16\n      jumpi\n      0x00\n      dup1\n      revert\n    tag_22:\n      dup1\n      0x2b4a3527\n      gt\n      tag_24\n      jumpi\n      dup1\n      0x2b4a3527\n      eq\n      tag_7\n      jumpi\n      dup1\n      0x3ab8781c\n      eq\n      tag_8\n      jumpi\n      dup1\n      0x5a358464\n      eq\n      tag_9\n      jumpi\n      dup1\n      0x6bfefd6b\n      eq\n      tag_10\n      jumpi\n      dup1\n      0x83bbe262\n      eq\n      tag_11\n      jumpi\n      0x00\n      dup1\n      revert\n    tag_24:\n      dup1\n      0x03afd56b\n      eq\n      tag_3\n      jumpi\n      dup1\n      0x06fdde03\n      eq\n      tag_4\n      jumpi\n      dup1\n      0x0b469bda\n      eq\n      tag_5\n      jumpi\n      dup1\n      0x0ed5a933\n      eq\n      tag_6\n      jumpi\n    tag_2:\n      0x00\n      dup1\n      revert\n        /* \"contracts/Market.sol\":1920:2266  function withdrawPending(address _bet) external onlyFactory returns(bool){... */\n    tag_3:\n      tag_25\n      tag_26\n      calldatasize\n      0x04\n      tag_27\n      jump\t// in\n    tag_26:\n      tag_28\n      jump\t// in\n    tag_25:\n      mload(0x40)\n        /* \"#utility.yul\":7033:7047   */\n      swap1\n      iszero\n        /* \"#utility.yul\":7026:7048   */\n      iszero\n        /* \"#utility.yul\":7008:7049   */\n      dup2\n      mstore\n        /* \"#utility.yul\":6996:6998   */\n      0x20\n        /* \"#utility.yul\":6981:6999   */\n      add\n        /* \"contracts/Market.sol\":1920:2266  function withdrawPending(address _bet) external onlyFactory returns(bool){... */\n    tag_29:\n      mload(0x40)\n      dup1\n      swap2\n      sub\n      swap1\n      return\n        /* \"contracts/Market.sol\":340:367  string public override name */\n    tag_4:\n      tag_31\n      tag_32\n      jump\t// in\n    tag_31:\n      mload(0x40)\n      tag_29\n      swap2\n      swap1\n      tag_34\n      jump\t// in\n        /* \"contracts/Market.sol\":670:713  uint256 public override sideBTotalStake = 0 */\n    tag_5:\n      tag_35\n      sload(0x08)\n      dup2\n      jump\n    tag_35:\n      mload(0x40)\n        /* \"#utility.yul\":10443:10468   */\n      swap1\n      dup2\n      mstore\n        /* \"#utility.yul\":10431:10433   */\n      0x20\n        /* \"#utility.yul\":10416:10434   */\n      add\n        /* \"contracts/Market.sol\":670:713  uint256 public override sideBTotalStake = 0 */\n      tag_29\n        /* \"#utility.yul\":10398:10474   */\n      jump\n        /* \"contracts/Market.sol\":499:538  bool public override isCanceled = false */\n    tag_6:\n      sload(0x04)\n      tag_25\n      swap1\n      0xff\n      and\n      dup2\n      jump\n        /* \"contracts/Market.sol\":2276:3346  function settlePair(address _pair) public override onlyFactory returns(bool) {... */\n    tag_7:\n      tag_25\n      tag_43\n      calldatasize\n      0x04\n      tag_27\n      jump\t// in\n    tag_43:\n      tag_44\n      jump\t// in\n        /* \"contracts/Market.sol\":973:1024  mapping(address => uint256) public sideAUsersStakes */\n    tag_8:\n      tag_35\n      tag_47\n      calldatasize\n      0x04\n      tag_27\n      jump\t// in\n    tag_47:\n      mstore(0x20, 0x0d)\n      0x00\n      swap1\n      dup2\n      mstore\n      0x40\n      swap1\n      keccak256\n      sload\n      dup2\n      jump\n        /* \"contracts/Market.sol\":1030:1081  mapping(address => uint256) public sideBUsersStakes */\n    tag_9:\n      tag_35\n      tag_51\n      calldatasize\n      0x04\n      tag_27\n      jump\t// in\n    tag_51:\n      mstore(0x20, 0x0e)\n      0x00\n      swap1\n      dup2\n      mstore\n      0x40\n      swap1\n      keccak256\n      sload\n      dup2\n      jump\n        /* \"contracts/Market.sol\":10215:10405  function cancelMarket() external override onlyFactory returns(bool) ... */\n    tag_10:\n      tag_25\n      tag_55\n      jump\t// in\n        /* \"contracts/Market.sol\":3352:3626  function upadteMarket( string memory name_, string memory sideAName_, string memory sideBName_)... */\n    tag_11:\n      tag_25\n      tag_58\n      calldatasize\n      0x04\n      tag_59\n      jump\t// in\n    tag_58:\n      tag_60\n      jump\t// in\n        /* \"contracts/Market.sol\":545:577  string public override sideAName */\n    tag_12:\n      tag_31\n      tag_63\n      jump\t// in\n        /* \"contracts/Market.sol\":820:848  MarketBet[] public sideABets */\n    tag_13:\n      tag_65\n      tag_66\n      calldatasize\n      0x04\n      tag_67\n      jump\t// in\n    tag_66:\n      tag_68\n      jump\t// in\n    tag_65:\n      0x40\n      dup1\n      mload\n      sub(shl(0xa0, 0x01), 0x01)\n        /* \"#utility.yul\":6727:6759   */\n      swap1\n      swap5\n      and\n        /* \"#utility.yul\":6709:6760   */\n      dup5\n      mstore\n        /* \"#utility.yul\":6791:6793   */\n      0x20\n        /* \"#utility.yul\":6776:6794   */\n      dup5\n      add\n        /* \"#utility.yul\":6769:6803   */\n      swap3\n      swap1\n      swap3\n      mstore\n        /* \"#utility.yul\":6851:6855   */\n      0xff\n        /* \"#utility.yul\":6839:6856   */\n      and\n        /* \"#utility.yul\":6819:6837   */\n      swap1\n      dup3\n      add\n        /* \"#utility.yul\":6812:6857   */\n      mstore\n        /* \"#utility.yul\":6697:6699   */\n      0x60\n        /* \"#utility.yul\":6682:6700   */\n      add\n        /* \"contracts/Market.sol\":820:848  MarketBet[] public sideABets */\n      tag_29\n        /* \"#utility.yul\":6664:6863   */\n      jump\n        /* \"contracts/Market.sol\":4178:4861  function addBet(address _better, address _betAddress, uint256 _stake, uint8 _odds, string memory _side)... */\n    tag_14:\n      tag_25\n      tag_72\n      calldatasize\n      0x04\n      tag_73\n      jump\t// in\n    tag_72:\n      tag_74\n      jump\t// in\n        /* \"contracts/Market.sol\":632:664  string public override sideBName */\n    tag_15:\n      tag_31\n      tag_77\n      jump\t// in\n        /* \"contracts/Market.sol\":9932:10209  function setWinningSide(string memory _winningSide)... */\n    tag_16:\n      tag_25\n      tag_80\n      calldatasize\n      0x04\n      tag_81\n      jump\t// in\n    tag_80:\n      tag_82\n      jump\t// in\n        /* \"contracts/Market.sol\":415:453  bool public override hasSetWinningSide */\n    tag_17:\n      sload(0x02)\n      tag_25\n      swap1\n      shl(0xa0, 0x01)\n      swap1\n      div\n      0xff\n      and\n      dup2\n      jump\n        /* \"contracts/Market.sol\":583:626  uint256 public override sideATotalStake = 0 */\n    tag_18:\n      tag_35\n      sload(0x06)\n      dup2\n      jump\n        /* \"contracts/Market.sol\":896:924  MarketBet[] public sideBBets */\n    tag_19:\n      tag_65\n      tag_91\n      calldatasize\n      0x04\n      tag_67\n      jump\t// in\n    tag_91:\n      tag_92\n      jump\t// in\n        /* \"contracts/Market.sol\":373:409  address public override eventAddress */\n    tag_20:\n      sload(0x02)\n      tag_94\n      swap1\n      sub(shl(0xa0, 0x01), 0x01)\n      and\n      dup2\n      jump\n    tag_94:\n      mload(0x40)\n      sub(shl(0xa0, 0x01), 0x01)\n        /* \"#utility.yul\":5655:5687   */\n      swap1\n      swap2\n      and\n        /* \"#utility.yul\":5637:5688   */\n      dup2\n      mstore\n        /* \"#utility.yul\":5625:5627   */\n      0x20\n        /* \"#utility.yul\":5610:5628   */\n      add\n        /* \"contracts/Market.sol\":373:409  address public override eventAddress */\n      tag_29\n        /* \"#utility.yul\":5592:5694   */\n      jump\n        /* \"contracts/Market.sol\":459:493  string public override winningSide */\n    tag_21:\n      tag_31\n      tag_99\n      jump\t// in\n        /* \"contracts/Market.sol\":1920:2266  function withdrawPending(address _bet) external onlyFactory returns(bool){... */\n    tag_28:\n        /* \"contracts/Market.sol\":1340:1348  web3bets */\n      sload(0x0f)\n        /* \"contracts/Market.sol\":1340:1364  web3bets.marketFactory() */\n      0x40\n      dup1\n      mload\n      shl(0xe0, 0x06ae7095)\n      dup2\n      mstore\n      swap1\n      mload\n        /* \"contracts/Market.sol\":1988:1992  bool */\n      0x00\n      swap3\n      sub(shl(0xa0, 0x01), 0x01)\n        /* \"contracts/Market.sol\":1340:1348  web3bets */\n      and\n      swap2\n        /* \"contracts/Market.sol\":1340:1362  web3bets.marketFactory */\n      0x06ae7095\n      swap2\n        /* \"contracts/Market.sol\":1340:1364  web3bets.marketFactory() */\n      0x04\n      dup1\n      dup4\n      add\n      swap3\n      0x20\n      swap3\n      swap2\n      swap1\n      dup3\n      swap1\n      sub\n      add\n      dup2\n        /* \"contracts/Market.sol\":1340:1348  web3bets */\n      dup7\n        /* \"contracts/Market.sol\":1340:1364  web3bets.marketFactory() */\n      dup1\n      extcodesize\n      iszero\n      dup1\n      iszero\n      tag_102\n      jumpi\n      0x00\n      dup1\n      revert\n    tag_102:\n      pop\n      gas\n      staticcall\n      iszero\n      dup1\n      iszero\n      tag_104\n      jumpi\n      returndatasize\n      0x00\n      dup1\n      returndatacopy\n      revert(0x00, returndatasize)\n    tag_104:\n      pop\n      pop\n      pop\n      pop\n      mload(0x40)\n      returndatasize\n      not(0x1f)\n      0x1f\n      dup3\n      add\n      and\n      dup3\n      add\n      dup1\n      0x40\n      mstore\n      pop\n      dup2\n      add\n      swap1\n      tag_105\n      swap2\n      swap1\n      tag_106\n      jump\t// in\n    tag_105:\n      sub(shl(0xa0, 0x01), 0x01)\n        /* \"contracts/Market.sol\":1326:1364  msg.sender == web3bets.marketFactory() */\n      and\n        /* \"contracts/Market.sol\":1326:1336  msg.sender */\n      caller\n      sub(shl(0xa0, 0x01), 0x01)\n        /* \"contracts/Market.sol\":1326:1364  msg.sender == web3bets.marketFactory() */\n      and\n      eq\n        /* \"contracts/Market.sol\":1305:1397  require(... */\n      tag_107\n      jumpi\n      mload(0x40)\n      shl(0xe5, 0x461bcd)\n      dup2\n      mstore\n      0x04\n      add\n      tag_108\n      swap1\n      tag_109\n      jump\t// in\n    tag_108:\n      mload(0x40)\n      dup1\n      swap2\n      sub\n      swap1\n      revert\n    tag_107:\n        /* \"contracts/Market.sol\":2003:2011  IBet bet */\n      0x00\n        /* \"contracts/Market.sol\":2019:2023  _bet */\n      dup3\n        /* \"contracts/Market.sol\":2003:2024  IBet bet = IBet(_bet) */\n      swap1\n      pop\n        /* \"contracts/Market.sol\":2034:2047  uint remStake */\n      0x00\n        /* \"contracts/Market.sol\":2064:2067  bet */\n      dup2\n      sub(shl(0xa0, 0x01), 0x01)\n        /* \"contracts/Market.sol\":2064:2075  bet.matched */\n      and\n      0x8aac9cca\n        /* \"contracts/Market.sol\":2064:2077  bet.matched() */\n      mload(0x40)\n      dup2\n      0xffffffff\n      and\n      0xe0\n      shl\n      dup2\n      mstore\n      0x04\n      add\n      0x20\n      mload(0x40)\n      dup1\n      dup4\n      sub\n      dup2\n      dup7\n      dup1\n      extcodesize\n      iszero\n      dup1\n      iszero\n      tag_111\n      jumpi\n      0x00\n      dup1\n      revert\n    tag_111:\n      pop\n      gas\n      staticcall\n      iszero\n      dup1\n      iszero\n      tag_113\n      jumpi\n      returndatasize\n      0x00\n      dup1\n      returndatacopy\n      revert(0x00, returndatasize)\n    tag_113:\n      pop\n      pop\n      pop\n      pop\n      mload(0x40)\n      returndatasize\n      not(0x1f)\n      0x1f\n      dup3\n      add\n      and\n      dup3\n      add\n      dup1\n      0x40\n      mstore\n      pop\n      dup2\n      add\n      swap1\n      tag_114\n      swap2\n      swap1\n      tag_115\n      jump\t// in\n    tag_114:\n        /* \"contracts/Market.sol\":2050:2053  bet */\n      dup3\n      sub(shl(0xa0, 0x01), 0x01)\n        /* \"contracts/Market.sol\":2050:2059  bet.stake */\n      and\n      0x3a4b66f1\n        /* \"contracts/Market.sol\":2050:2061  bet.stake() */\n      mload(0x40)\n      dup2\n      0xffffffff\n      and\n      0xe0\n      shl\n      dup2\n      mstore\n      0x04\n      add\n      0x20\n      mload(0x40)\n      dup1\n      dup4\n      sub\n      dup2\n      dup7\n      dup1\n      extcodesize\n      iszero\n      dup1\n      iszero\n      tag_116\n      jumpi\n      0x00\n      dup1\n      revert\n    tag_116:\n      pop\n      gas\n      staticcall\n      iszero\n      dup1\n      iszero\n      tag_118\n      jumpi\n      returndatasize\n      0x00\n      dup1\n      returndatacopy\n      revert(0x00, returndatasize)\n    tag_118:\n      pop\n      pop\n      pop\n      pop\n      mload(0x40)\n      returndatasize\n      not(0x1f)\n      0x1f\n      dup3\n      add\n      and\n      dup3\n      add\n      dup1\n      0x40\n      mstore\n      pop\n      dup2\n      add\n      swap1\n      tag_119\n      swap2\n      swap1\n      tag_115\n      jump\t// in\n    tag_119:\n        /* \"contracts/Market.sol\":2050:2077  bet.stake() - bet.matched() */\n      tag_120\n      swap2\n      swap1\n      tag_121\n      jump\t// in\n    tag_120:\n        /* \"contracts/Market.sol\":2034:2077  uint remStake = bet.stake() - bet.matched() */\n      swap1\n      pop\n        /* \"contracts/Market.sol\":2119:2127  remStake */\n      dup1\n        /* \"contracts/Market.sol\":2095:2116  address(this).balance */\n      selfbalance\n        /* \"contracts/Market.sol\":2095:2127  address(this).balance > remStake */\n      gt\n        /* \"contracts/Market.sol\":2087:2138  require(address(this).balance > remStake, \"0 fund\") */\n      tag_122\n      jumpi\n      mload(0x40)\n      shl(0xe5, 0x461bcd)\n      dup2\n      mstore\n        /* \"#utility.yul\":7984:7986   */\n      0x20\n        /* \"contracts/Market.sol\":2087:2138  require(address(this).balance > remStake, \"0 fund\") */\n      0x04\n      dup3\n      add\n        /* \"#utility.yul\":7966:7987   */\n      mstore\n        /* \"#utility.yul\":8023:8024   */\n      0x06\n        /* \"#utility.yul\":8003:8021   */\n      0x24\n      dup3\n      add\n        /* \"#utility.yul\":7996:8025   */\n      mstore\n      shl(0xd2, 0x0c08199d5b99)\n        /* \"#utility.yul\":8041:8059   */\n      0x44\n      dup3\n      add\n        /* \"#utility.yul\":8034:8070   */\n      mstore\n        /* \"#utility.yul\":8087:8105   */\n      0x64\n      add\n        /* \"contracts/Market.sol\":2087:2138  require(address(this).balance > remStake, \"0 fund\") */\n      tag_108\n        /* \"#utility.yul\":7956:8111   */\n      jump\n        /* \"contracts/Market.sol\":2087:2138  require(address(this).balance > remStake, \"0 fund\") */\n    tag_122:\n        /* \"contracts/Market.sol\":2148:2204  _stableCoinWrapper.safeTransfer( bet.better(), remStake) */\n      tag_125\n        /* \"contracts/Market.sol\":2181:2184  bet */\n      dup3\n      sub(shl(0xa0, 0x01), 0x01)\n        /* \"contracts/Market.sol\":2181:2191  bet.better */\n      and\n      0x718c7d44\n        /* \"contracts/Market.sol\":2181:2193  bet.better() */\n      mload(0x40)\n      dup2\n      0xffffffff\n      and\n      0xe0\n      shl\n      dup2\n      mstore\n      0x04\n      add\n      0x20\n      mload(0x40)\n      dup1\n      dup4\n      sub\n      dup2\n      dup7\n      dup1\n      extcodesize\n      iszero\n      dup1\n      iszero\n      tag_126\n      jumpi\n      0x00\n      dup1\n      revert\n    tag_126:\n      pop\n      gas\n      staticcall\n      iszero\n      dup1\n      iszero\n      tag_128\n      jumpi\n      returndatasize\n      0x00\n      dup1\n      returndatacopy\n      revert(0x00, returndatasize)\n    tag_128:\n      pop\n      pop\n      pop\n      pop\n      mload(0x40)\n      returndatasize\n      not(0x1f)\n      0x1f\n      dup3\n      add\n      and\n      dup3\n      add\n      dup1\n      0x40\n      mstore\n      pop\n      dup2\n      add\n      swap1\n      tag_129\n      swap2\n      swap1\n      tag_106\n      jump\t// in\n    tag_129:\n        /* \"contracts/Market.sol\":2148:2166  _stableCoinWrapper */\n      and(sub(shl(0xa0, 0x01), 0x01), sload(0x11))\n      swap1\n        /* \"contracts/Market.sol\":2195:2203  remStake */\n      dup4\n        /* \"contracts/Market.sol\":2148:2179  _stableCoinWrapper.safeTransfer */\n      tag_130\n        /* \"contracts/Market.sol\":2148:2204  _stableCoinWrapper.safeTransfer( bet.better(), remStake) */\n      jump\t// in\n    tag_125:\n        /* \"contracts/Market.sol\":2214:2238  bet.setMatched(remStake) */\n      mload(0x40)\n      shl(0xe1, 0x2d267e03)\n      dup2\n      mstore\n      0x04\n      dup2\n      add\n        /* \"#utility.yul\":10443:10468   */\n      dup3\n      swap1\n      mstore\n      sub(shl(0xa0, 0x01), 0x01)\n        /* \"contracts/Market.sol\":2214:2228  bet.setMatched */\n      dup4\n      and\n      swap1\n      0x5a4cfc06\n      swap1\n        /* \"#utility.yul\":10416:10434   */\n      0x24\n      add\n        /* \"contracts/Market.sol\":2214:2238  bet.setMatched(remStake) */\n      0x20\n      mload(0x40)\n      dup1\n      dup4\n      sub\n      dup2\n      0x00\n      dup8\n      dup1\n      extcodesize\n      iszero\n      dup1\n      iszero\n      tag_132\n      jumpi\n      0x00\n      dup1\n      revert\n    tag_132:\n      pop\n      gas\n      call\n      iszero\n      dup1\n      iszero\n      tag_134\n      jumpi\n      returndatasize\n      0x00\n      dup1\n      returndatacopy\n      revert(0x00, returndatasize)\n    tag_134:\n      pop\n      pop\n      pop\n      pop\n      mload(0x40)\n      returndatasize\n      not(0x1f)\n      0x1f\n      dup3\n      add\n      and\n      dup3\n      add\n      dup1\n      0x40\n      mstore\n      pop\n      dup2\n      add\n      swap1\n      tag_135\n      swap2\n      swap1\n      tag_136\n      jump\t// in\n    tag_135:\n      pop\n        /* \"contracts/Market.sol\":2255:2259  true */\n      0x01\n      swap5\n        /* \"contracts/Market.sol\":1920:2266  function withdrawPending(address _bet) external onlyFactory returns(bool){... */\n      swap4\n      pop\n      pop\n      pop\n      pop\n      jump\t// out\n        /* \"contracts/Market.sol\":340:367  string public override name */\n    tag_32:\n      0x01\n      dup1\n      sload\n      tag_137\n      swap1\n      tag_138\n      jump\t// in\n    tag_137:\n      dup1\n      0x1f\n      add\n      0x20\n      dup1\n      swap2\n      div\n      mul\n      0x20\n      add\n      mload(0x40)\n      swap1\n      dup2\n      add\n      0x40\n      mstore\n      dup1\n      swap3\n      swap2\n      swap1\n      dup2\n      dup2\n      mstore\n      0x20\n      add\n      dup3\n      dup1\n      sload\n      tag_139\n      swap1\n      tag_138\n      jump\t// in\n    tag_139:\n      dup1\n      iszero\n      tag_140\n      jumpi\n      dup1\n      0x1f\n      lt\n      tag_141\n      jumpi\n      0x0100\n      dup1\n      dup4\n      sload\n      div\n      mul\n      dup4\n      mstore\n      swap2\n      0x20\n      add\n      swap2\n      jump(tag_140)\n    tag_141:\n      dup3\n      add\n      swap2\n      swap1\n      0x00\n      mstore\n      keccak256(0x00, 0x20)\n      swap1\n    tag_142:\n      dup2\n      sload\n      dup2\n      mstore\n      swap1\n      0x01\n      add\n      swap1\n      0x20\n      add\n      dup1\n      dup4\n      gt\n      tag_142\n      jumpi\n      dup3\n      swap1\n      sub\n      0x1f\n      and\n      dup3\n      add\n      swap2\n    tag_140:\n      pop\n      pop\n      pop\n      pop\n      pop\n      dup2\n      jump\t// out\n        /* \"contracts/Market.sol\":2276:3346  function settlePair(address _pair) public override onlyFactory returns(bool) {... */\n    tag_44:\n        /* \"contracts/Market.sol\":1340:1348  web3bets */\n      sload(0x0f)\n        /* \"contracts/Market.sol\":1340:1364  web3bets.marketFactory() */\n      0x40\n      dup1\n      mload\n      shl(0xe0, 0x06ae7095)\n      dup2\n      mstore\n      swap1\n      mload\n        /* \"contracts/Market.sol\":2347:2351  bool */\n      0x00\n      swap3\n      sub(shl(0xa0, 0x01), 0x01)\n        /* \"contracts/Market.sol\":1340:1348  web3bets */\n      and\n      swap2\n        /* \"contracts/Market.sol\":1340:1362  web3bets.marketFactory */\n      0x06ae7095\n      swap2\n        /* \"contracts/Market.sol\":1340:1364  web3bets.marketFactory() */\n      0x04\n      dup1\n      dup4\n      add\n      swap3\n      0x20\n      swap3\n      swap2\n      swap1\n      dup3\n      swap1\n      sub\n      add\n      dup2\n        /* \"contracts/Market.sol\":1340:1348  web3bets */\n      dup7\n        /* \"contracts/Market.sol\":1340:1364  web3bets.marketFactory() */\n      dup1\n      extcodesize\n      iszero\n      dup1\n      iszero\n      tag_144\n      jumpi\n      0x00\n      dup1\n      revert\n    tag_144:\n      pop\n      gas\n      staticcall\n      iszero\n      dup1\n      iszero\n      tag_146\n      jumpi\n      returndatasize\n      0x00\n      dup1\n      returndatacopy\n      revert(0x00, returndatasize)\n    tag_146:\n      pop\n      pop\n      pop\n      pop\n      mload(0x40)\n      returndatasize\n      not(0x1f)\n      0x1f\n      dup3\n      add\n      and\n      dup3\n      add\n      dup1\n      0x40\n      mstore\n      pop\n      dup2\n      add\n      swap1\n      tag_147\n      swap2\n      swap1\n      tag_106\n      jump\t// in\n    tag_147:\n      sub(shl(0xa0, 0x01), 0x01)\n        /* \"contracts/Market.sol\":1326:1364  msg.sender == web3bets.marketFactory() */\n      and\n        /* \"contracts/Market.sol\":1326:1336  msg.sender */\n      caller\n      sub(shl(0xa0, 0x01), 0x01)\n        /* \"contracts/Market.sol\":1326:1364  msg.sender == web3bets.marketFactory() */\n      and\n      eq\n        /* \"contracts/Market.sol\":1305:1397  require(... */\n      tag_148\n      jumpi\n      mload(0x40)\n      shl(0xe5, 0x461bcd)\n      dup2\n      mstore\n      0x04\n      add\n      tag_108\n      swap1\n      tag_109\n      jump\t// in\n    tag_148:\n        /* \"contracts/Market.sol\":2363:2376  IBetPair pair */\n      0x00\n        /* \"contracts/Market.sol\":2388:2393  _pair */\n      dup3\n        /* \"contracts/Market.sol\":2363:2394  IBetPair pair = IBetPair(_pair) */\n      swap1\n      pop\n        /* \"contracts/Market.sol\":2404:2421  address _pairAddr */\n      0x00\n        /* \"contracts/Market.sol\":2424:2428  pair */\n      dup2\n      sub(shl(0xa0, 0x01), 0x01)\n        /* \"contracts/Market.sol\":2424:2435  pair.market */\n      and\n      0x80f55605\n        /* \"contracts/Market.sol\":2424:2437  pair.market() */\n      mload(0x40)\n      dup2\n      0xffffffff\n      and\n      0xe0\n      shl\n      dup2\n      mstore\n      0x04\n      add\n      0x20\n      mload(0x40)\n      dup1\n      dup4\n      sub\n      dup2\n      dup7\n      dup1\n      extcodesize\n      iszero\n      dup1\n      iszero\n      tag_151\n      jumpi\n      0x00\n      dup1\n      revert\n    tag_151:\n      pop\n      gas\n      staticcall\n      iszero\n      dup1\n      iszero\n      tag_153\n      jumpi\n      returndatasize\n      0x00\n      dup1\n      returndatacopy\n      revert(0x00, returndatasize)\n    tag_153:\n      pop\n      pop\n      pop\n      pop\n      mload(0x40)\n      returndatasize\n      not(0x1f)\n      0x1f\n      dup3\n      add\n      and\n      dup3\n      add\n      dup1\n      0x40\n      mstore\n      pop\n      dup2\n      add\n      swap1\n      tag_154\n      swap2\n      swap1\n      tag_106\n      jump\t// in\n    tag_154:\n        /* \"contracts/Market.sol\":2404:2437  address _pairAddr = pair.market() */\n      swap1\n      pop\n        /* \"contracts/Market.sol\":2447:2464  address _sideABet */\n      0x00\n        /* \"contracts/Market.sol\":2467:2471  pair */\n      dup3\n      sub(shl(0xa0, 0x01), 0x01)\n        /* \"contracts/Market.sol\":2467:2480  pair.sideABet */\n      and\n      0x15e894ab\n        /* \"contracts/Market.sol\":2467:2482  pair.sideABet() */\n      mload(0x40)\n      dup2\n      0xffffffff\n      and\n      0xe0\n      shl\n      dup2\n      mstore\n      0x04\n      add\n      0x20\n      mload(0x40)\n      dup1\n      dup4\n      sub\n      dup2\n      dup7\n      dup1\n      extcodesize\n      iszero\n      dup1\n      iszero\n      tag_155\n      jumpi\n      0x00\n      dup1\n      revert\n    tag_155:\n      pop\n      gas\n      staticcall\n      iszero\n      dup1\n      iszero\n      tag_157\n      jumpi\n      returndatasize\n      0x00\n      dup1\n      returndatacopy\n      revert(0x00, returndatasize)\n    tag_157:\n      pop\n      pop\n      pop\n      pop\n      mload(0x40)\n      returndatasize\n      not(0x1f)\n      0x1f\n      dup3\n      add\n      and\n      dup3\n      add\n      dup1\n      0x40\n      mstore\n      pop\n      dup2\n      add\n      swap1\n      tag_158\n      swap2\n      swap1\n      tag_106\n      jump\t// in\n    tag_158:\n        /* \"contracts/Market.sol\":2447:2482  address _sideABet = pair.sideABet() */\n      swap1\n      pop\n        /* \"contracts/Market.sol\":2492:2509  address _sideBBet */\n      0x00\n        /* \"contracts/Market.sol\":2512:2516  pair */\n      dup4\n      sub(shl(0xa0, 0x01), 0x01)\n        /* \"contracts/Market.sol\":2512:2525  pair.sideBBet */\n      and\n      0x0f765e6d\n        /* \"contracts/Market.sol\":2512:2527  pair.sideBBet() */\n      mload(0x40)\n      dup2\n      0xffffffff\n      and\n      0xe0\n      shl\n      dup2\n      mstore\n      0x04\n      add\n      0x20\n      mload(0x40)\n      dup1\n      dup4\n      sub\n      dup2\n      dup7\n      dup1\n      extcodesize\n      iszero\n      dup1\n      iszero\n      tag_159\n      jumpi\n      0x00\n      dup1\n      revert\n    tag_159:\n      pop\n      gas\n      staticcall\n      iszero\n      dup1\n      iszero\n      tag_161\n      jumpi\n      returndatasize\n      0x00\n      dup1\n      returndatacopy\n      revert(0x00, returndatasize)\n    tag_161:\n      pop\n      pop\n      pop\n      pop\n      mload(0x40)\n      returndatasize\n      not(0x1f)\n      0x1f\n      dup3\n      add\n      and\n      dup3\n      add\n      dup1\n      0x40\n      mstore\n      pop\n      dup2\n      add\n      swap1\n      tag_162\n      swap2\n      swap1\n      tag_106\n      jump\t// in\n    tag_162:\n        /* \"contracts/Market.sol\":2492:2527  address _sideBBet = pair.sideBBet() */\n      swap1\n      pop\n        /* \"contracts/Market.sol\":2537:2550  uint _amountA */\n      0x00\n        /* \"contracts/Market.sol\":2553:2557  pair */\n      dup5\n      sub(shl(0xa0, 0x01), 0x01)\n        /* \"contracts/Market.sol\":2553:2565  pair.amountA */\n      and\n      0x156dcbf0\n        /* \"contracts/Market.sol\":2553:2567  pair.amountA() */\n      mload(0x40)\n      dup2\n      0xffffffff\n      and\n      0xe0\n      shl\n      dup2\n      mstore\n      0x04\n      add\n      0x20\n      mload(0x40)\n      dup1\n      dup4\n      sub\n      dup2\n      dup7\n      dup1\n      extcodesize\n      iszero\n      dup1\n      iszero\n      tag_163\n      jumpi\n      0x00\n      dup1\n      revert\n    tag_163:\n      pop\n      gas\n      staticcall\n      iszero\n      dup1\n      iszero\n      tag_165\n      jumpi\n      returndatasize\n      0x00\n      dup1\n      returndatacopy\n      revert(0x00, returndatasize)\n    tag_165:\n      pop\n      pop\n      pop\n      pop\n      mload(0x40)\n      returndatasize\n      not(0x1f)\n      0x1f\n      dup3\n      add\n      and\n      dup3\n      add\n      dup1\n      0x40\n      mstore\n      pop\n      dup2\n      add\n      swap1\n      tag_166\n      swap2\n      swap1\n      tag_115\n      jump\t// in\n    tag_166:\n        /* \"contracts/Market.sol\":2537:2567  uint _amountA = pair.amountA() */\n      swap1\n      pop\n        /* \"contracts/Market.sol\":2577:2590  uint _amountB */\n      0x00\n        /* \"contracts/Market.sol\":2593:2597  pair */\n      dup6\n      sub(shl(0xa0, 0x01), 0x01)\n        /* \"contracts/Market.sol\":2593:2605  pair.amountB */\n      and\n      0x2efe91ef\n        /* \"contracts/Market.sol\":2593:2607  pair.amountB() */\n      mload(0x40)\n      dup2\n      0xffffffff\n      and\n      0xe0\n      shl\n      dup2\n      mstore\n      0x04\n      add\n      0x20\n      mload(0x40)\n      dup1\n      dup4\n      sub\n      dup2\n      dup7\n      dup1\n      extcodesize\n      iszero\n      dup1\n      iszero\n      tag_167\n      jumpi\n      0x00\n      dup1\n      revert\n    tag_167:\n      pop\n      gas\n      staticcall\n      iszero\n      dup1\n      iszero\n      tag_169\n      jumpi\n      returndatasize\n      0x00\n      dup1\n      returndatacopy\n      revert(0x00, returndatasize)\n    tag_169:\n      pop\n      pop\n      pop\n      pop\n      mload(0x40)\n      returndatasize\n      not(0x1f)\n      0x1f\n      dup3\n      add\n      and\n      dup3\n      add\n      dup1\n      0x40\n      mstore\n      pop\n      dup2\n      add\n      swap1\n      tag_170\n      swap2\n      swap1\n      tag_115\n      jump\t// in\n    tag_170:\n        /* \"contracts/Market.sol\":2577:2607  uint _amountB = pair.amountB() */\n      swap1\n      pop\n        /* \"contracts/Market.sol\":2617:2631  IMarket market */\n      0x00\n        /* \"contracts/Market.sol\":2642:2651  _pairAddr */\n      dup6\n        /* \"contracts/Market.sol\":2617:2652  IMarket market = IMarket(_pairAddr) */\n      swap1\n      pop\n        /* \"contracts/Market.sol\":2670:2676  market */\n      dup1\n      sub(shl(0xa0, 0x01), 0x01)\n        /* \"contracts/Market.sol\":2670:2694  market.hasSetWinningSide */\n      and\n      0xbd92630c\n        /* \"contracts/Market.sol\":2670:2696  market.hasSetWinningSide() */\n      mload(0x40)\n      dup2\n      0xffffffff\n      and\n      0xe0\n      shl\n      dup2\n      mstore\n      0x04\n      add\n      0x20\n      mload(0x40)\n      dup1\n      dup4\n      sub\n      dup2\n      dup7\n      dup1\n      extcodesize\n      iszero\n      dup1\n      iszero\n      tag_171\n      jumpi\n      0x00\n      dup1\n      revert\n    tag_171:\n      pop\n      gas\n      staticcall\n      iszero\n      dup1\n      iszero\n      tag_173\n      jumpi\n      returndatasize\n      0x00\n      dup1\n      returndatacopy\n      revert(0x00, returndatasize)\n    tag_173:\n      pop\n      pop\n      pop\n      pop\n      mload(0x40)\n      returndatasize\n      not(0x1f)\n      0x1f\n      dup3\n      add\n      and\n      dup3\n      add\n      dup1\n      0x40\n      mstore\n      pop\n      dup2\n      add\n      swap1\n      tag_174\n      swap2\n      swap1\n      tag_136\n      jump\t// in\n    tag_174:\n        /* \"contracts/Market.sol\":2662:2710  require(market.hasSetWinningSide(), \"mkt 0 win\") */\n      tag_175\n      jumpi\n      mload(0x40)\n      shl(0xe5, 0x461bcd)\n      dup2\n      mstore\n        /* \"#utility.yul\":9751:9753   */\n      0x20\n        /* \"contracts/Market.sol\":2662:2710  require(market.hasSetWinningSide(), \"mkt 0 win\") */\n      0x04\n      dup3\n      add\n        /* \"#utility.yul\":9733:9754   */\n      mstore\n        /* \"#utility.yul\":9790:9791   */\n      0x09\n        /* \"#utility.yul\":9770:9788   */\n      0x24\n      dup3\n      add\n        /* \"#utility.yul\":9763:9792   */\n      mstore\n      shl(0xb9, 0x36b5ba1018103bb4b7)\n        /* \"#utility.yul\":9808:9826   */\n      0x44\n      dup3\n      add\n        /* \"#utility.yul\":9801:9840   */\n      mstore\n        /* \"#utility.yul\":9857:9875   */\n      0x64\n      add\n        /* \"contracts/Market.sol\":2662:2710  require(market.hasSetWinningSide(), \"mkt 0 win\") */\n      tag_108\n        /* \"#utility.yul\":9723:9881   */\n      jump\n        /* \"contracts/Market.sol\":2662:2710  require(market.hasSetWinningSide(), \"mkt 0 win\") */\n    tag_175:\n        /* \"contracts/Market.sol\":2786:2811  abi.encodePacked(\"sideA\") */\n      mload(0x40)\n      shl(0xd8, 0x7369646541)\n      0x20\n      dup3\n      add\n        /* \"#utility.yul\":5173:5193   */\n      mstore\n        /* \"#utility.yul\":5209:5220   */\n      0x25\n      add\n        /* \"contracts/Market.sol\":2786:2811  abi.encodePacked(\"sideA\") */\n      mload(0x40)\n      0x20\n      dup2\n      dup4\n      sub\n      sub\n      dup2\n      mstore\n      swap1\n      0x40\n      mstore\n        /* \"contracts/Market.sol\":2776:2812  keccak256(abi.encodePacked(\"sideA\")) */\n      dup1\n      mload\n      swap1\n      0x20\n      add\n      keccak256\n        /* \"contracts/Market.sol\":2750:2756  market */\n      dup2\n      sub(shl(0xa0, 0x01), 0x01)\n        /* \"contracts/Market.sol\":2750:2768  market.winningSide */\n      and\n      0xfbf06338\n        /* \"contracts/Market.sol\":2750:2770  market.winningSide() */\n      mload(0x40)\n      dup2\n      0xffffffff\n      and\n      0xe0\n      shl\n      dup2\n      mstore\n      0x04\n      add\n      0x00\n      mload(0x40)\n      dup1\n      dup4\n      sub\n      dup2\n      dup7\n      dup1\n      extcodesize\n      iszero\n      dup1\n      iszero\n      tag_180\n      jumpi\n      0x00\n      dup1\n      revert\n    tag_180:\n      pop\n      gas\n      staticcall\n      iszero\n      dup1\n      iszero\n      tag_182\n      jumpi\n      returndatasize\n      0x00\n      dup1\n      returndatacopy\n      revert(0x00, returndatasize)\n    tag_182:\n      pop\n      pop\n      pop\n      pop\n      mload(0x40)\n      returndatasize\n      0x00\n      dup3\n      returndatacopy\n      0x1f\n      returndatasize\n      swap1\n      dup2\n      add\n      not(0x1f)\n      and\n      dup3\n      add\n      0x40\n      mstore\n      tag_183\n      swap2\n      swap1\n      dup2\n      add\n      swap1\n      tag_184\n      jump\t// in\n    tag_183:\n        /* \"contracts/Market.sol\":2733:2771  abi.encodePacked(market.winningSide()) */\n      add(0x20, mload(0x40))\n      tag_185\n      swap2\n      swap1\n      tag_438\n      jump\t// in\n    tag_185:\n      mload(0x40)\n      0x20\n      dup2\n      dup4\n      sub\n      sub\n      dup2\n      mstore\n      swap1\n      0x40\n      mstore\n        /* \"contracts/Market.sol\":2723:2772  keccak256(abi.encodePacked(market.winningSide())) */\n      dup1\n      mload\n      swap1\n      0x20\n      add\n      keccak256\n        /* \"contracts/Market.sol\":2723:2812  keccak256(abi.encodePacked(market.winningSide())) == keccak256(abi.encodePacked(\"sideA\")) */\n      eq\n        /* \"contracts/Market.sol\":2720:3319  if(keccak256(abi.encodePacked(market.winningSide())) == keccak256(abi.encodePacked(\"sideA\"))){... */\n      iszero\n      tag_187\n      jumpi\n        /* \"contracts/Market.sol\":2819:2894  _stableCoinWrapper.safeTransfer(_sideABet, _amountA + (_amountB * 9 / 10) ) */\n      tag_188\n        /* \"contracts/Market.sol\":2851:2860  _sideABet */\n      dup6\n        /* \"contracts/Market.sol\":2889:2891  10 */\n      0x0a\n        /* \"contracts/Market.sol\":2874:2886  _amountB * 9 */\n      tag_189\n        /* \"contracts/Market.sol\":2874:2882  _amountB */\n      dup6\n        /* \"contracts/Market.sol\":2885:2886  9 */\n      0x09\n        /* \"contracts/Market.sol\":2874:2886  _amountB * 9 */\n      tag_190\n      jump\t// in\n    tag_189:\n        /* \"contracts/Market.sol\":2874:2891  _amountB * 9 / 10 */\n      tag_191\n      swap2\n      swap1\n      tag_192\n      jump\t// in\n    tag_191:\n        /* \"contracts/Market.sol\":2862:2892  _amountA + (_amountB * 9 / 10) */\n      tag_193\n      swap1\n        /* \"contracts/Market.sol\":2862:2870  _amountA */\n      dup7\n        /* \"contracts/Market.sol\":2862:2892  _amountA + (_amountB * 9 / 10) */\n      tag_194\n      jump\t// in\n    tag_193:\n        /* \"contracts/Market.sol\":2819:2837  _stableCoinWrapper */\n      and(sub(shl(0xa0, 0x01), 0x01), sload(0x11))\n      swap2\n        /* \"contracts/Market.sol\":2819:2894  _stableCoinWrapper.safeTransfer(_sideABet, _amountA + (_amountB * 9 / 10) ) */\n      swap1\n        /* \"contracts/Market.sol\":2819:2850  _stableCoinWrapper.safeTransfer */\n      tag_130\n        /* \"contracts/Market.sol\":2819:2894  _stableCoinWrapper.safeTransfer(_sideABet, _amountA + (_amountB * 9 / 10) ) */\n      jump\t// in\n    tag_188:\n        /* \"contracts/Market.sol\":2940:2955  web3betsAddress */\n      sload(0x00)\n        /* \"contracts/Market.sol\":2908:2971  _stableCoinWrapper.safeTransfer(web3betsAddress, _amountB / 10) */\n      tag_195\n      swap1\n      sub(shl(0xa0, 0x01), 0x01)\n        /* \"contracts/Market.sol\":2940:2955  web3betsAddress */\n      and\n        /* \"contracts/Market.sol\":2957:2970  _amountB / 10 */\n      tag_193\n        /* \"contracts/Market.sol\":2968:2970  10 */\n      0x0a\n        /* \"contracts/Market.sol\":2957:2965  _amountB */\n      dup6\n        /* \"contracts/Market.sol\":2957:2970  _amountB / 10 */\n      tag_192\n      jump\t// in\n        /* \"contracts/Market.sol\":2908:2971  _stableCoinWrapper.safeTransfer(web3betsAddress, _amountB / 10) */\n    tag_195:\n        /* \"contracts/Market.sol\":2720:3319  if(keccak256(abi.encodePacked(market.winningSide())) == keccak256(abi.encodePacked(\"sideA\"))){... */\n      jump(tag_212)\n    tag_187:\n        /* \"contracts/Market.sol\":3062:3087  abi.encodePacked(\"sideB\") */\n      mload(0x40)\n      shl(0xd9, 0x39b4b232a1)\n      0x20\n      dup3\n      add\n        /* \"#utility.yul\":5433:5453   */\n      mstore\n        /* \"#utility.yul\":5469:5480   */\n      0x25\n      add\n        /* \"contracts/Market.sol\":3062:3087  abi.encodePacked(\"sideB\") */\n      mload(0x40)\n      0x20\n      dup2\n      dup4\n      sub\n      sub\n      dup2\n      mstore\n      swap1\n      0x40\n      mstore\n        /* \"contracts/Market.sol\":3052:3088  keccak256(abi.encodePacked(\"sideB\")) */\n      dup1\n      mload\n      swap1\n      0x20\n      add\n      keccak256\n        /* \"contracts/Market.sol\":3026:3032  market */\n      dup2\n      sub(shl(0xa0, 0x01), 0x01)\n        /* \"contracts/Market.sol\":3026:3044  market.winningSide */\n      and\n      0xfbf06338\n        /* \"contracts/Market.sol\":3026:3046  market.winningSide() */\n      mload(0x40)\n      dup2\n      0xffffffff\n      and\n      0xe0\n      shl\n      dup2\n      mstore\n      0x04\n      add\n      0x00\n      mload(0x40)\n      dup1\n      dup4\n      sub\n      dup2\n      dup7\n      dup1\n      extcodesize\n      iszero\n      dup1\n      iszero\n      tag_200\n      jumpi\n      0x00\n      dup1\n      revert\n    tag_200:\n      pop\n      gas\n      staticcall\n      iszero\n      dup1\n      iszero\n      tag_202\n      jumpi\n      returndatasize\n      0x00\n      dup1\n      returndatacopy\n      revert(0x00, returndatasize)\n    tag_202:\n      pop\n      pop\n      pop\n      pop\n      mload(0x40)\n      returndatasize\n      0x00\n      dup3\n      returndatacopy\n      0x1f\n      returndatasize\n      swap1\n      dup2\n      add\n      not(0x1f)\n      and\n      dup3\n      add\n      0x40\n      mstore\n      tag_203\n      swap2\n      swap1\n      dup2\n      add\n      swap1\n      tag_184\n      jump\t// in\n    tag_203:\n        /* \"contracts/Market.sol\":3009:3047  abi.encodePacked(market.winningSide()) */\n      add(0x20, mload(0x40))\n      tag_204\n      swap2\n      swap1\n      tag_438\n      jump\t// in\n    tag_204:\n      mload(0x40)\n      0x20\n      dup2\n      dup4\n      sub\n      sub\n      dup2\n      mstore\n      swap1\n      0x40\n      mstore\n        /* \"contracts/Market.sol\":2999:3048  keccak256(abi.encodePacked(market.winningSide())) */\n      dup1\n      mload\n      swap1\n      0x20\n      add\n      keccak256\n        /* \"contracts/Market.sol\":2999:3088  keccak256(abi.encodePacked(market.winningSide())) == keccak256(abi.encodePacked(\"sideB\")) */\n      eq\n        /* \"contracts/Market.sol\":2996:3319  if(keccak256(abi.encodePacked(market.winningSide())) == keccak256(abi.encodePacked(\"sideB\"))){... */\n      iszero\n      tag_205\n      jumpi\n        /* \"contracts/Market.sol\":3103:3178  _stableCoinWrapper.safeTransfer(_sideBBet, _amountB + (_amountA * 9 / 10) ) */\n      tag_206\n        /* \"contracts/Market.sol\":3135:3144  _sideBBet */\n      dup5\n        /* \"contracts/Market.sol\":3173:3175  10 */\n      0x0a\n        /* \"contracts/Market.sol\":3158:3170  _amountA * 9 */\n      tag_207\n        /* \"contracts/Market.sol\":3158:3166  _amountA */\n      dup7\n        /* \"contracts/Market.sol\":3169:3170  9 */\n      0x09\n        /* \"contracts/Market.sol\":3158:3170  _amountA * 9 */\n      tag_190\n      jump\t// in\n    tag_207:\n        /* \"contracts/Market.sol\":3158:3175  _amountA * 9 / 10 */\n      tag_208\n      swap2\n      swap1\n      tag_192\n      jump\t// in\n    tag_208:\n        /* \"contracts/Market.sol\":3146:3176  _amountB + (_amountA * 9 / 10) */\n      tag_193\n      swap1\n        /* \"contracts/Market.sol\":3146:3154  _amountB */\n      dup6\n        /* \"contracts/Market.sol\":3146:3176  _amountB + (_amountA * 9 / 10) */\n      tag_194\n      jump\t// in\n        /* \"contracts/Market.sol\":3103:3178  _stableCoinWrapper.safeTransfer(_sideBBet, _amountB + (_amountA * 9 / 10) ) */\n    tag_206:\n        /* \"contracts/Market.sol\":3224:3239  web3betsAddress */\n      sload(0x00)\n        /* \"contracts/Market.sol\":3192:3255  _stableCoinWrapper.safeTransfer(web3betsAddress, _amountA / 10) */\n      tag_195\n      swap1\n      sub(shl(0xa0, 0x01), 0x01)\n        /* \"contracts/Market.sol\":3224:3239  web3betsAddress */\n      and\n        /* \"contracts/Market.sol\":3241:3254  _amountA / 10 */\n      tag_193\n        /* \"contracts/Market.sol\":3252:3254  10 */\n      0x0a\n        /* \"contracts/Market.sol\":3241:3249  _amountA */\n      dup7\n        /* \"contracts/Market.sol\":3241:3254  _amountA / 10 */\n      tag_192\n      jump\t// in\n        /* \"contracts/Market.sol\":2996:3319  if(keccak256(abi.encodePacked(market.winningSide())) == keccak256(abi.encodePacked(\"sideB\"))){... */\n    tag_205:\n        /* \"contracts/Market.sol\":3293:3308  revert(\"x win\") */\n      mload(0x40)\n      shl(0xe5, 0x461bcd)\n      dup2\n      mstore\n        /* \"#utility.yul\":8725:8727   */\n      0x20\n        /* \"contracts/Market.sol\":3293:3308  revert(\"x win\") */\n      0x04\n      dup3\n      add\n        /* \"#utility.yul\":8707:8728   */\n      mstore\n        /* \"#utility.yul\":8764:8765   */\n      0x05\n        /* \"#utility.yul\":8744:8762   */\n      0x24\n      dup3\n      add\n        /* \"#utility.yul\":8737:8766   */\n      mstore\n      shl(0xd9, 0x3c103bb4b7)\n        /* \"#utility.yul\":8782:8800   */\n      0x44\n      dup3\n      add\n        /* \"#utility.yul\":8775:8810   */\n      mstore\n        /* \"#utility.yul\":8827:8845   */\n      0x64\n      add\n        /* \"contracts/Market.sol\":3293:3308  revert(\"x win\") */\n      tag_108\n        /* \"#utility.yul\":8697:8851   */\n      jump\n        /* \"contracts/Market.sol\":2996:3319  if(keccak256(abi.encodePacked(market.winningSide())) == keccak256(abi.encodePacked(\"sideB\"))){... */\n    tag_212:\n      pop\n        /* \"contracts/Market.sol\":3335:3339  true */\n      0x01\n      swap9\n        /* \"contracts/Market.sol\":2276:3346  function settlePair(address _pair) public override onlyFactory returns(bool) {... */\n      swap8\n      pop\n      pop\n      pop\n      pop\n      pop\n      pop\n      pop\n      pop\n      jump\t// out\n        /* \"contracts/Market.sol\":10215:10405  function cancelMarket() external override onlyFactory returns(bool) ... */\n    tag_55:\n        /* \"contracts/Market.sol\":1340:1348  web3bets */\n      sload(0x0f)\n        /* \"contracts/Market.sol\":1340:1364  web3bets.marketFactory() */\n      0x40\n      dup1\n      mload\n      shl(0xe0, 0x06ae7095)\n      dup2\n      mstore\n      swap1\n      mload\n        /* \"contracts/Market.sol\":10277:10281  bool */\n      0x00\n      swap3\n      sub(shl(0xa0, 0x01), 0x01)\n        /* \"contracts/Market.sol\":1340:1348  web3bets */\n      and\n      swap2\n        /* \"contracts/Market.sol\":1340:1362  web3bets.marketFactory */\n      0x06ae7095\n      swap2\n        /* \"contracts/Market.sol\":1340:1364  web3bets.marketFactory() */\n      0x04\n      dup1\n      dup4\n      add\n      swap3\n      0x20\n      swap3\n      swap2\n      swap1\n      dup3\n      swap1\n      sub\n      add\n      dup2\n        /* \"contracts/Market.sol\":1340:1348  web3bets */\n      dup7\n        /* \"contracts/Market.sol\":1340:1364  web3bets.marketFactory() */\n      dup1\n      extcodesize\n      iszero\n      dup1\n      iszero\n      tag_216\n      jumpi\n      0x00\n      dup1\n      revert\n    tag_216:\n      pop\n      gas\n      staticcall\n      iszero\n      dup1\n      iszero\n      tag_218\n      jumpi\n      returndatasize\n      0x00\n      dup1\n      returndatacopy\n      revert(0x00, returndatasize)\n    tag_218:\n      pop\n      pop\n      pop\n      pop\n      mload(0x40)\n      returndatasize\n      not(0x1f)\n      0x1f\n      dup3\n      add\n      and\n      dup3\n      add\n      dup1\n      0x40\n      mstore\n      pop\n      dup2\n      add\n      swap1\n      tag_219\n      swap2\n      swap1\n      tag_106\n      jump\t// in\n    tag_219:\n      sub(shl(0xa0, 0x01), 0x01)\n        /* \"contracts/Market.sol\":1326:1364  msg.sender == web3bets.marketFactory() */\n      and\n        /* \"contracts/Market.sol\":1326:1336  msg.sender */\n      caller\n      sub(shl(0xa0, 0x01), 0x01)\n        /* \"contracts/Market.sol\":1326:1364  msg.sender == web3bets.marketFactory() */\n      and\n      eq\n        /* \"contracts/Market.sol\":1305:1397  require(... */\n      tag_220\n      jumpi\n      mload(0x40)\n      shl(0xe5, 0x461bcd)\n      dup2\n      mstore\n      0x04\n      add\n      tag_108\n      swap1\n      tag_109\n      jump\t// in\n    tag_220:\n        /* \"contracts/Market.sol\":10303:10313  isCanceled */\n      and(0xff, sload(0x04))\n        /* \"contracts/Market.sol\":10299:10351  if (isCanceled) {... */\n      iszero\n      tag_223\n      jumpi\n      pop\n        /* \"contracts/Market.sol\":10336:10340  true */\n      0x01\n        /* \"contracts/Market.sol\":10215:10405  function cancelMarket() external override onlyFactory returns(bool) ... */\n      swap1\n      jump\t// out\n        /* \"contracts/Market.sol\":10299:10351  if (isCanceled) {... */\n    tag_223:\n      pop\n        /* \"contracts/Market.sol\":10360:10370  isCanceled */\n      0x04\n        /* \"contracts/Market.sol\":10360:10377  isCanceled = true */\n      dup1\n      sload\n      not(0xff)\n      and\n        /* \"contracts/Market.sol\":10373:10377  true */\n      0x01\n        /* \"contracts/Market.sol\":10360:10377  isCanceled = true */\n      swap1\n      dup2\n      or\n      swap1\n      swap2\n      sstore\n        /* \"contracts/Market.sol\":10215:10405  function cancelMarket() external override onlyFactory returns(bool) ... */\n      swap1\n      jump\t// out\n        /* \"contracts/Market.sol\":3352:3626  function upadteMarket( string memory name_, string memory sideAName_, string memory sideBName_)... */\n    tag_60:\n        /* \"contracts/Market.sol\":1340:1348  web3bets */\n      sload(0x0f)\n        /* \"contracts/Market.sol\":1340:1364  web3bets.marketFactory() */\n      0x40\n      dup1\n      mload\n      shl(0xe0, 0x06ae7095)\n      dup2\n      mstore\n      swap1\n      mload\n        /* \"contracts/Market.sol\":3502:3506  bool */\n      0x00\n      swap3\n      sub(shl(0xa0, 0x01), 0x01)\n        /* \"contracts/Market.sol\":1340:1348  web3bets */\n      and\n      swap2\n        /* \"contracts/Market.sol\":1340:1362  web3bets.marketFactory */\n      0x06ae7095\n      swap2\n        /* \"contracts/Market.sol\":1340:1364  web3bets.marketFactory() */\n      0x04\n      dup1\n      dup4\n      add\n      swap3\n      0x20\n      swap3\n      swap2\n      swap1\n      dup3\n      swap1\n      sub\n      add\n      dup2\n        /* \"contracts/Market.sol\":1340:1348  web3bets */\n      dup7\n        /* \"contracts/Market.sol\":1340:1364  web3bets.marketFactory() */\n      dup1\n      extcodesize\n      iszero\n      dup1\n      iszero\n      tag_225\n      jumpi\n      0x00\n      dup1\n      revert\n    tag_225:\n      pop\n      gas\n      staticcall\n      iszero\n      dup1\n      iszero\n      tag_227\n      jumpi\n      returndatasize\n      0x00\n      dup1\n      returndatacopy\n      revert(0x00, returndatasize)\n    tag_227:\n      pop\n      pop\n      pop\n      pop\n      mload(0x40)\n      returndatasize\n      not(0x1f)\n      0x1f\n      dup3\n      add\n      and\n      dup3\n      add\n      dup1\n      0x40\n      mstore\n      pop\n      dup2\n      add\n      swap1\n      tag_228\n      swap2\n      swap1\n      tag_106\n      jump\t// in\n    tag_228:\n      sub(shl(0xa0, 0x01), 0x01)\n        /* \"contracts/Market.sol\":1326:1364  msg.sender == web3bets.marketFactory() */\n      and\n        /* \"contracts/Market.sol\":1326:1336  msg.sender */\n      caller\n      sub(shl(0xa0, 0x01), 0x01)\n        /* \"contracts/Market.sol\":1326:1364  msg.sender == web3bets.marketFactory() */\n      and\n      eq\n        /* \"contracts/Market.sol\":1305:1397  require(... */\n      tag_229\n      jumpi\n      mload(0x40)\n      shl(0xe5, 0x461bcd)\n      dup2\n      mstore\n      0x04\n      add\n      tag_108\n      swap1\n      tag_109\n      jump\t// in\n    tag_229:\n        /* \"contracts/Market.sol\":3522:3534  name = name_ */\n      dup4\n      mload\n      tag_232\n      swap1\n        /* \"contracts/Market.sol\":3522:3526  name */\n      0x01\n      swap1\n        /* \"contracts/Market.sol\":3522:3534  name = name_ */\n      0x20\n      dup8\n      add\n      swap1\n      tag_233\n      jump\t// in\n    tag_232:\n      pop\n        /* \"contracts/Market.sol\":3544:3566  sideAName = sideAName_ */\n      dup3\n      mload\n      tag_234\n      swap1\n        /* \"contracts/Market.sol\":3544:3553  sideAName */\n      0x05\n      swap1\n        /* \"contracts/Market.sol\":3544:3566  sideAName = sideAName_ */\n      0x20\n      dup7\n      add\n      swap1\n      tag_233\n      jump\t// in\n    tag_234:\n      pop\n        /* \"contracts/Market.sol\":3576:3598  sideBName = sideBName_ */\n      dup2\n      mload\n      tag_235\n      swap1\n        /* \"contracts/Market.sol\":3576:3585  sideBName */\n      0x07\n      swap1\n        /* \"contracts/Market.sol\":3576:3598  sideBName = sideBName_ */\n      0x20\n      dup6\n      add\n      swap1\n      tag_233\n      jump\t// in\n    tag_235:\n      pop\n        /* \"contracts/Market.sol\":3615:3619  true */\n      0x01\n        /* \"contracts/Market.sol\":3608:3619  return true */\n      swap1\n      pop\n        /* \"contracts/Market.sol\":1407:1408  _ */\n    tag_231:\n        /* \"contracts/Market.sol\":3352:3626  function upadteMarket( string memory name_, string memory sideAName_, string memory sideBName_)... */\n      swap4\n      swap3\n      pop\n      pop\n      pop\n      jump\t// out\n        /* \"contracts/Market.sol\":545:577  string public override sideAName */\n    tag_63:\n      0x05\n      dup1\n      sload\n      tag_137\n      swap1\n      tag_138\n      jump\t// in\n        /* \"contracts/Market.sol\":820:848  MarketBet[] public sideABets */\n    tag_68:\n      0x09\n      dup2\n      dup2\n      sload\n      dup2\n      lt\n      tag_241\n      jumpi\n      0x00\n      dup1\n      revert\n    tag_241:\n      0x00\n      swap2\n      dup3\n      mstore\n      0x20\n      swap1\n      swap2\n      keccak256\n      0x03\n      swap1\n      swap2\n      mul\n      add\n      dup1\n      sload\n      0x01\n      dup3\n      add\n      sload\n      0x02\n      swap1\n      swap3\n      add\n      sload\n      sub(shl(0xa0, 0x01), 0x01)\n      swap1\n      swap2\n      and\n      swap3\n      pop\n      0xff\n      and\n      dup4\n      jump\t// out\n        /* \"contracts/Market.sol\":4178:4861  function addBet(address _better, address _betAddress, uint256 _stake, uint8 _odds, string memory _side)... */\n    tag_74:\n        /* \"contracts/Market.sol\":1492:1500  web3bets */\n      sload(0x0f)\n        /* \"contracts/Market.sol\":1492:1513  web3bets.betFactory() */\n      0x40\n      dup1\n      mload\n      shl(0xe3, 0x05c352c3)\n      dup2\n      mstore\n      swap1\n      mload\n        /* \"contracts/Market.sol\":4331:4335  bool */\n      0x00\n      swap3\n      sub(shl(0xa0, 0x01), 0x01)\n        /* \"contracts/Market.sol\":1492:1500  web3bets */\n      and\n      swap2\n        /* \"contracts/Market.sol\":1492:1511  web3bets.betFactory */\n      0x2e1a9618\n      swap2\n        /* \"contracts/Market.sol\":1492:1513  web3bets.betFactory() */\n      0x04\n      dup1\n      dup4\n      add\n      swap3\n      0x20\n      swap3\n      swap2\n      swap1\n      dup3\n      swap1\n      sub\n      add\n      dup2\n        /* \"contracts/Market.sol\":1492:1500  web3bets */\n      dup7\n        /* \"contracts/Market.sol\":1492:1513  web3bets.betFactory() */\n      dup1\n      extcodesize\n      iszero\n      dup1\n      iszero\n      tag_244\n      jumpi\n      0x00\n      dup1\n      revert\n    tag_244:\n      pop\n      gas\n      staticcall\n      iszero\n      dup1\n      iszero\n      tag_246\n      jumpi\n      returndatasize\n      0x00\n      dup1\n      returndatacopy\n      revert(0x00, returndatasize)\n    tag_246:\n      pop\n      pop\n      pop\n      pop\n      mload(0x40)\n      returndatasize\n      not(0x1f)\n      0x1f\n      dup3\n      add\n      and\n      dup3\n      add\n      dup1\n      0x40\n      mstore\n      pop\n      dup2\n      add\n      swap1\n      tag_247\n      swap2\n      swap1\n      tag_106\n      jump\t// in\n    tag_247:\n      sub(shl(0xa0, 0x01), 0x01)\n        /* \"contracts/Market.sol\":1478:1513  msg.sender == web3bets.betFactory() */\n      and\n        /* \"contracts/Market.sol\":1478:1488  msg.sender */\n      caller\n      sub(shl(0xa0, 0x01), 0x01)\n        /* \"contracts/Market.sol\":1478:1513  msg.sender == web3bets.betFactory() */\n      and\n      eq\n        /* \"contracts/Market.sol\":1457:1546  require(... */\n      tag_248\n      jumpi\n      mload(0x40)\n      shl(0xe5, 0x461bcd)\n      dup2\n      mstore\n      0x04\n      add\n      tag_108\n      swap1\n      tag_109\n      jump\t// in\n    tag_248:\n        /* \"contracts/Market.sol\":4459:4484  abi.encodePacked(\"sideA\") */\n      mload(0x40)\n      shl(0xd8, 0x7369646541)\n      0x20\n      dup3\n      add\n        /* \"#utility.yul\":5173:5193   */\n      mstore\n        /* \"#utility.yul\":5209:5220   */\n      0x25\n      add\n        /* \"contracts/Market.sol\":4459:4484  abi.encodePacked(\"sideA\") */\n      mload(0x40)\n      0x20\n      dup2\n      dup4\n      sub\n      sub\n      dup2\n      mstore\n      swap1\n      0x40\n      mstore\n        /* \"contracts/Market.sol\":4449:4485  keccak256(abi.encodePacked(\"sideA\")) */\n      dup1\n      mload\n      swap1\n      0x20\n      add\n      keccak256\n        /* \"contracts/Market.sol\":4438:4443  _side */\n      dup3\n        /* \"contracts/Market.sol\":4421:4444  abi.encodePacked(_side) */\n      add(0x20, mload(0x40))\n      tag_252\n      swap2\n      swap1\n      tag_438\n      jump\t// in\n    tag_252:\n      mload(0x40)\n      0x20\n      dup2\n      dup4\n      sub\n      sub\n      dup2\n      mstore\n      swap1\n      0x40\n      mstore\n        /* \"contracts/Market.sol\":4411:4445  keccak256(abi.encodePacked(_side)) */\n      dup1\n      mload\n      swap1\n      0x20\n      add\n      keccak256\n        /* \"contracts/Market.sol\":4411:4485  keccak256(abi.encodePacked(_side)) == keccak256(abi.encodePacked(\"sideA\")) */\n      eq\n        /* \"contracts/Market.sol\":4408:4834  if(keccak256(abi.encodePacked(_side)) == keccak256(abi.encodePacked(\"sideA\"))){... */\n      iszero\n      tag_253\n      jumpi\n        /* \"contracts/Market.sol\":4500:4548  _addToSideA(_better, _betAddress, _stake, _odds) */\n      tag_254\n        /* \"contracts/Market.sol\":4512:4519  _better */\n      dup7\n        /* \"contracts/Market.sol\":4521:4532  _betAddress */\n      dup7\n        /* \"contracts/Market.sol\":4534:4540  _stake */\n      dup7\n        /* \"contracts/Market.sol\":4542:4547  _odds */\n      dup7\n        /* \"contracts/Market.sol\":4500:4511  _addToSideA */\n      tag_255\n        /* \"contracts/Market.sol\":4500:4548  _addToSideA(_better, _betAddress, _stake, _odds) */\n      jump\t// in\n    tag_254:\n        /* \"contracts/Market.sol\":4562:4602  _matchSideABet(_betAddress,_stake,_odds) */\n      tag_256\n        /* \"contracts/Market.sol\":4577:4588  _betAddress */\n      dup6\n        /* \"contracts/Market.sol\":4589:4595  _stake */\n      dup6\n        /* \"contracts/Market.sol\":4596:4601  _odds */\n      dup6\n        /* \"contracts/Market.sol\":4562:4576  _matchSideABet */\n      tag_257\n        /* \"contracts/Market.sol\":4562:4602  _matchSideABet(_betAddress,_stake,_odds) */\n      jump\t// in\n    tag_256:\n        /* \"contracts/Market.sol\":4408:4834  if(keccak256(abi.encodePacked(_side)) == keccak256(abi.encodePacked(\"sideA\"))){... */\n      jump(tag_264)\n    tag_253:\n        /* \"contracts/Market.sol\":4679:4704  abi.encodePacked(\"sideB\") */\n      mload(0x40)\n      shl(0xd9, 0x39b4b232a1)\n      0x20\n      dup3\n      add\n        /* \"#utility.yul\":5433:5453   */\n      mstore\n        /* \"#utility.yul\":5469:5480   */\n      0x25\n      add\n        /* \"contracts/Market.sol\":4679:4704  abi.encodePacked(\"sideB\") */\n      mload(0x40)\n      0x20\n      dup2\n      dup4\n      sub\n      sub\n      dup2\n      mstore\n      swap1\n      0x40\n      mstore\n        /* \"contracts/Market.sol\":4669:4705  keccak256(abi.encodePacked(\"sideB\")) */\n      dup1\n      mload\n      swap1\n      0x20\n      add\n      keccak256\n        /* \"contracts/Market.sol\":4658:4663  _side */\n      dup3\n        /* \"contracts/Market.sol\":4641:4664  abi.encodePacked(_side) */\n      add(0x20, mload(0x40))\n      tag_260\n      swap2\n      swap1\n      tag_438\n      jump\t// in\n    tag_260:\n      mload(0x40)\n      0x20\n      dup2\n      dup4\n      sub\n      sub\n      dup2\n      mstore\n      swap1\n      0x40\n      mstore\n        /* \"contracts/Market.sol\":4631:4665  keccak256(abi.encodePacked(_side)) */\n      dup1\n      mload\n      swap1\n      0x20\n      add\n      keccak256\n        /* \"contracts/Market.sol\":4631:4705  keccak256(abi.encodePacked(_side)) == keccak256(abi.encodePacked(\"sideB\")) */\n      eq\n        /* \"contracts/Market.sol\":4627:4834  if (keccak256(abi.encodePacked(_side)) == keccak256(abi.encodePacked(\"sideB\"))) {... */\n      iszero\n      tag_264\n      jumpi\n        /* \"contracts/Market.sol\":4721:4769  _addToSideB(_better, _betAddress, _stake, _odds) */\n      tag_262\n        /* \"contracts/Market.sol\":4733:4740  _better */\n      dup7\n        /* \"contracts/Market.sol\":4742:4753  _betAddress */\n      dup7\n        /* \"contracts/Market.sol\":4755:4761  _stake */\n      dup7\n        /* \"contracts/Market.sol\":4763:4768  _odds */\n      dup7\n        /* \"contracts/Market.sol\":4721:4732  _addToSideB */\n      tag_263\n        /* \"contracts/Market.sol\":4721:4769  _addToSideB(_better, _betAddress, _stake, _odds) */\n      jump\t// in\n    tag_262:\n        /* \"contracts/Market.sol\":4783:4823  _matchSideBBet(_betAddress,_stake,_odds) */\n      tag_264\n        /* \"contracts/Market.sol\":4798:4809  _betAddress */\n      dup6\n        /* \"contracts/Market.sol\":4810:4816  _stake */\n      dup6\n        /* \"contracts/Market.sol\":4817:4822  _odds */\n      dup6\n        /* \"contracts/Market.sol\":4783:4797  _matchSideBBet */\n      tag_265\n        /* \"contracts/Market.sol\":4783:4823  _matchSideBBet(_betAddress,_stake,_odds) */\n      jump\t// in\n    tag_264:\n      pop\n        /* \"contracts/Market.sol\":4850:4854  true */\n      0x01\n        /* \"contracts/Market.sol\":4178:4861  function addBet(address _better, address _betAddress, uint256 _stake, uint8 _odds, string memory _side)... */\n      swap6\n      swap5\n      pop\n      pop\n      pop\n      pop\n      pop\n      jump\t// out\n        /* \"contracts/Market.sol\":632:664  string public override sideBName */\n    tag_77:\n      0x07\n      dup1\n      sload\n      tag_137\n      swap1\n      tag_138\n      jump\t// in\n        /* \"contracts/Market.sol\":9932:10209  function setWinningSide(string memory _winningSide)... */\n    tag_82:\n        /* \"contracts/Market.sol\":1340:1348  web3bets */\n      sload(0x0f)\n        /* \"contracts/Market.sol\":1340:1364  web3bets.marketFactory() */\n      0x40\n      dup1\n      mload\n      shl(0xe0, 0x06ae7095)\n      dup2\n      mstore\n      swap1\n      mload\n        /* \"contracts/Market.sol\":10046:10050  bool */\n      0x00\n      swap3\n      sub(shl(0xa0, 0x01), 0x01)\n        /* \"contracts/Market.sol\":1340:1348  web3bets */\n      and\n      swap2\n        /* \"contracts/Market.sol\":1340:1362  web3bets.marketFactory */\n      0x06ae7095\n      swap2\n        /* \"contracts/Market.sol\":1340:1364  web3bets.marketFactory() */\n      0x04\n      dup1\n      dup4\n      add\n      swap3\n      0x20\n      swap3\n      swap2\n      swap1\n      dup3\n      swap1\n      sub\n      add\n      dup2\n        /* \"contracts/Market.sol\":1340:1348  web3bets */\n      dup7\n        /* \"contracts/Market.sol\":1340:1364  web3bets.marketFactory() */\n      dup1\n      extcodesize\n      iszero\n      dup1\n      iszero\n      tag_272\n      jumpi\n      0x00\n      dup1\n      revert\n    tag_272:\n      pop\n      gas\n      staticcall\n      iszero\n      dup1\n      iszero\n      tag_274\n      jumpi\n      returndatasize\n      0x00\n      dup1\n      returndatacopy\n      revert(0x00, returndatasize)\n    tag_274:\n      pop\n      pop\n      pop\n      pop\n      mload(0x40)\n      returndatasize\n      not(0x1f)\n      0x1f\n      dup3\n      add\n      and\n      dup3\n      add\n      dup1\n      0x40\n      mstore\n      pop\n      dup2\n      add\n      swap1\n      tag_275\n      swap2\n      swap1\n      tag_106\n      jump\t// in\n    tag_275:\n      sub(shl(0xa0, 0x01), 0x01)\n        /* \"contracts/Market.sol\":1326:1364  msg.sender == web3bets.marketFactory() */\n      and\n        /* \"contracts/Market.sol\":1326:1336  msg.sender */\n      caller\n      sub(shl(0xa0, 0x01), 0x01)\n        /* \"contracts/Market.sol\":1326:1364  msg.sender == web3bets.marketFactory() */\n      and\n      eq\n        /* \"contracts/Market.sol\":1305:1397  require(... */\n      tag_276\n      jumpi\n      mload(0x40)\n      shl(0xe5, 0x461bcd)\n      dup2\n      mstore\n      0x04\n      add\n      tag_108\n      swap1\n      tag_109\n      jump\t// in\n    tag_276:\n        /* \"contracts/Market.sol\":10075:10092  hasSetWinningSide */\n      sload(0x02)\n      shl(0xa0, 0x01)\n      swap1\n      div\n      0xff\n      and\n        /* \"contracts/Market.sol\":10075:10100  hasSetWinningSide != true */\n      iszero\n      iszero\n        /* \"contracts/Market.sol\":10096:10100  true */\n      0x01\n        /* \"contracts/Market.sol\":10075:10100  hasSetWinningSide != true */\n      eq\n      iszero\n        /* \"contracts/Market.sol\":10066:10111  require (hasSetWinningSide != true, \"!x win\") */\n      tag_279\n      jumpi\n      mload(0x40)\n      shl(0xe5, 0x461bcd)\n      dup2\n      mstore\n        /* \"#utility.yul\":7650:7652   */\n      0x20\n        /* \"contracts/Market.sol\":10066:10111  require (hasSetWinningSide != true, \"!x win\") */\n      0x04\n      dup3\n      add\n        /* \"#utility.yul\":7632:7653   */\n      mstore\n        /* \"#utility.yul\":7689:7690   */\n      0x06\n        /* \"#utility.yul\":7669:7687   */\n      0x24\n      dup3\n      add\n        /* \"#utility.yul\":7662:7691   */\n      mstore\n      shl(0xd1, 0x10bc103bb4b7)\n        /* \"#utility.yul\":7707:7725   */\n      0x44\n      dup3\n      add\n        /* \"#utility.yul\":7700:7736   */\n      mstore\n        /* \"#utility.yul\":7753:7771   */\n      0x64\n      add\n        /* \"contracts/Market.sol\":10066:10111  require (hasSetWinningSide != true, \"!x win\") */\n      tag_108\n        /* \"#utility.yul\":7622:7777   */\n      jump\n        /* \"contracts/Market.sol\":10066:10111  require (hasSetWinningSide != true, \"!x win\") */\n    tag_279:\n        /* \"contracts/Market.sol\":10121:10147  winningSide = _winningSide */\n      dup2\n      mload\n      tag_282\n      swap1\n        /* \"contracts/Market.sol\":10121:10132  winningSide */\n      0x03\n      swap1\n        /* \"contracts/Market.sol\":10121:10147  winningSide = _winningSide */\n      0x20\n      dup6\n      add\n      swap1\n      tag_233\n      jump\t// in\n    tag_282:\n      pop\n      pop\n        /* \"contracts/Market.sol\":10157:10174  hasSetWinningSide */\n      0x02\n        /* \"contracts/Market.sol\":10157:10181  hasSetWinningSide = true */\n      dup1\n      sload\n      not(shl(0xa0, 0xff))\n      and\n      shl(0xa0, 0x01)\n      or\n      swap1\n      sstore\n        /* \"contracts/Market.sol\":10177:10181  true */\n      0x01\n        /* \"contracts/Market.sol\":9932:10209  function setWinningSide(string memory _winningSide)... */\n      swap2\n      swap1\n      pop\n      jump\t// out\n        /* \"contracts/Market.sol\":896:924  MarketBet[] public sideBBets */\n    tag_92:\n      0x0b\n      dup2\n      dup2\n      sload\n      dup2\n      lt\n      tag_241\n      jumpi\n      0x00\n      dup1\n      revert\n        /* \"contracts/Market.sol\":459:493  string public override winningSide */\n    tag_99:\n      0x03\n      dup1\n      sload\n      tag_137\n      swap1\n      tag_138\n      jump\t// in\n        /* \"@openzeppelin/contracts/token/ERC20/utils/SafeERC20.sol\":763:968  function safeTransfer(... */\n    tag_130:\n        /* \"@openzeppelin/contracts/token/ERC20/utils/SafeERC20.sol\":902:960  abi.encodeWithSelector(token.transfer.selector, to, value) */\n      0x40\n      dup1\n      mload\n      sub(shl(0xa0, 0x01), 0x01)\n        /* \"#utility.yul\":6424:6456   */\n      dup5\n      and\n        /* \"@openzeppelin/contracts/token/ERC20/utils/SafeERC20.sol\":902:960  abi.encodeWithSelector(token.transfer.selector, to, value) */\n      0x24\n      dup3\n      add\n        /* \"#utility.yul\":6406:6457   */\n      mstore\n        /* \"#utility.yul\":6473:6491   */\n      0x44\n      dup1\n      dup3\n      add\n        /* \"#utility.yul\":6466:6500   */\n      dup5\n      swap1\n      mstore\n        /* \"@openzeppelin/contracts/token/ERC20/utils/SafeERC20.sol\":902:960  abi.encodeWithSelector(token.transfer.selector, to, value) */\n      dup3\n      mload\n      dup1\n      dup4\n      sub\n      swap1\n      swap2\n      add\n      dup2\n      mstore\n        /* \"#utility.yul\":6379:6397   */\n      0x64\n      swap1\n      swap2\n      add\n        /* \"@openzeppelin/contracts/token/ERC20/utils/SafeERC20.sol\":902:960  abi.encodeWithSelector(token.transfer.selector, to, value) */\n      swap1\n      swap2\n      mstore\n      0x20\n      dup2\n      add\n      dup1\n      mload\n      sub(shl(0xe0, 0x01), 0x01)\n      and\n      shl(0xe0, 0xa9059cbb)\n      or\n      swap1\n      mstore\n        /* \"@openzeppelin/contracts/token/ERC20/utils/SafeERC20.sol\":875:961  _callOptionalReturn(token, abi.encodeWithSelector(token.transfer.selector, to, value)) */\n      tag_291\n      swap1\n        /* \"@openzeppelin/contracts/token/ERC20/utils/SafeERC20.sol\":895:900  token */\n      dup5\n      swap1\n        /* \"@openzeppelin/contracts/token/ERC20/utils/SafeERC20.sol\":875:894  _callOptionalReturn */\n      tag_294\n        /* \"@openzeppelin/contracts/token/ERC20/utils/SafeERC20.sol\":875:961  _callOptionalReturn(token, abi.encodeWithSelector(token.transfer.selector, to, value)) */\n      jump\t// in\n    tag_291:\n        /* \"@openzeppelin/contracts/token/ERC20/utils/SafeERC20.sol\":763:968  function safeTransfer(... */\n      pop\n      pop\n      pop\n      jump\t// out\n        /* \"contracts/Market.sol\":4867:5169  function _addToSideA(address _better, address _betAddress, uint256 _stake, uint8 _odds)... */\n    tag_255:\n        /* \"contracts/Market.sol\":5005:5011  _stake */\n      dup2\n        /* \"contracts/Market.sol\":4986:5001  sideATotalStake */\n      0x06\n      0x00\n        /* \"contracts/Market.sol\":4986:5011  sideATotalStake += _stake */\n      dup3\n      dup3\n      sload\n      tag_296\n      swap2\n      swap1\n      tag_194\n      jump\t// in\n    tag_296:\n      swap1\n      swap2\n      sstore\n      pop\n      pop\n        /* \"contracts/Market.sol\":5036:5100  MarketBet({betAddress: _betAddress, stake: _stake, odds: _odds}) */\n      0x40\n      dup1\n      mload\n      0x60\n      dup2\n      add\n      dup3\n      mstore\n      sub(shl(0xa0, 0x01), 0x01)\n      dup6\n      dup2\n      and\n      dup3\n      mstore\n      0x20\n      dup1\n      dup4\n      add\n      dup7\n      dup2\n      mstore\n      0xff\n      dup7\n      dup2\n      and\n      dup6\n      dup8\n      add\n      swap1\n      dup2\n      mstore\n        /* \"contracts/Market.sol\":5021:5030  sideABets */\n      0x09\n        /* \"contracts/Market.sol\":5021:5101  sideABets.push(MarketBet({betAddress: _betAddress, stake: _stake, odds: _odds})) */\n      dup1\n      sload\n      0x01\n      dup2\n      add\n      dup3\n      sstore\n      0x00\n      swap2\n      dup3\n      mstore\n      swap7\n      mload\n      0x6e1540171b6c0c960b71a7020d9f60077f6af931a8bbf590da0223dacf75c7af\n      0x03\n      swap1\n      swap9\n      mul\n      swap8\n      dup9\n      add\n      dup1\n      sload\n      not(sub(shl(0xa0, 0x01), 0x01))\n      and\n      swap2\n      dup9\n      and\n      swap2\n      swap1\n      swap2\n      or\n      swap1\n      sstore\n      swap3\n      mload\n      0x6e1540171b6c0c960b71a7020d9f60077f6af931a8bbf590da0223dacf75c7b0\n      dup8\n      add\n      sstore\n      mload\n      0x6e1540171b6c0c960b71a7020d9f60077f6af931a8bbf590da0223dacf75c7b1\n      swap1\n      swap6\n      add\n      dup1\n      sload\n      not(0xff)\n      and\n      swap6\n      swap1\n      swap2\n      and\n      swap5\n      swap1\n      swap5\n      or\n      swap1\n      swap4\n      sstore\n        /* \"contracts/Market.sol\":5111:5136  sideAUsersStakes[_better] */\n      swap1\n      dup8\n      and\n      dup3\n      mstore\n        /* \"contracts/Market.sol\":5111:5127  sideAUsersStakes */\n      0x0d\n        /* \"contracts/Market.sol\":5111:5136  sideAUsersStakes[_better] */\n      swap1\n      mstore\n      swap1\n      dup2\n      keccak256\n        /* \"contracts/Market.sol\":5111:5146  sideAUsersStakes[_better] += _stake */\n      dup1\n      sload\n        /* \"contracts/Market.sol\":5036:5100  MarketBet({betAddress: _betAddress, stake: _stake, odds: _odds}) */\n      dup5\n      swap3\n      swap1\n        /* \"contracts/Market.sol\":5111:5146  sideAUsersStakes[_better] += _stake */\n      tag_298\n      swap1\n        /* \"contracts/Market.sol\":5036:5100  MarketBet({betAddress: _betAddress, stake: _stake, odds: _odds}) */\n      dup5\n      swap1\n        /* \"contracts/Market.sol\":5111:5146  sideAUsersStakes[_better] += _stake */\n      tag_194\n      jump\t// in\n    tag_298:\n      swap1\n      swap2\n      sstore\n      pop\n      pop\n        /* \"contracts/Market.sol\":4867:5169  function _addToSideA(address _better, address _betAddress, uint256 _stake, uint8 _odds)... */\n    tag_295:\n      pop\n      pop\n      pop\n      pop\n      jump\t// out\n        /* \"contracts/Market.sol\":5483:7681  function _matchSideABet(address _betAddress, uint256 _stake, uint8 _odds)... */\n    tag_257:\n        /* \"contracts/Market.sol\":5604:5620  sideBBetsPending */\n      0x0c\n        /* \"contracts/Market.sol\":5604:5627  sideBBetsPending.length */\n      sload\n        /* \"contracts/Market.sol\":5640:5652  betCount > 0 */\n      dup1\n      iszero\n        /* \"contracts/Market.sol\":5637:7659  if(betCount > 0){... */\n      tag_300\n      jumpi\n        /* \"contracts/Market.sol\":5684:5690  _stake */\n      dup3\n        /* \"contracts/Market.sol\":5704:7523  while(_remStake >= 1 * 10 ** 18){... */\n    tag_301:\n        /* \"contracts/Market.sol\":5723:5735  1 * 10 ** 18 */\n      0x0de0b6b3a7640000\n        /* \"contracts/Market.sol\":5710:5719  _remStake */\n      dup2\n        /* \"contracts/Market.sol\":5710:5735  _remStake >= 1 * 10 ** 18 */\n      lt\n        /* \"contracts/Market.sol\":5704:7523  while(_remStake >= 1 * 10 ** 18){... */\n      tag_302\n      jumpi\n        /* \"contracts/Market.sol\":5754:5772  uint selectedIndex */\n      0x00\n        /* \"contracts/Market.sol\":5794:5807  uint8 maxOdds */\n      dup1\n        /* \"contracts/Market.sol\":5833:5839  uint i */\n      0x00\n        /* \"contracts/Market.sol\":5829:6097  for(uint i = 0; i < betCount; i++){... */\n    tag_303:\n        /* \"contracts/Market.sol\":5849:5857  betCount */\n      dup5\n        /* \"contracts/Market.sol\":5845:5846  i */\n      dup2\n        /* \"contracts/Market.sol\":5845:5857  i < betCount */\n      lt\n        /* \"contracts/Market.sol\":5829:6097  for(uint i = 0; i < betCount; i++){... */\n      iszero\n      tag_304\n      jumpi\n        /* \"contracts/Market.sol\":5885:5905  MarketBet memory bet */\n      0x00\n        /* \"contracts/Market.sol\":5908:5924  sideBBetsPending */\n      0x0c\n        /* \"contracts/Market.sol\":5925:5926  i */\n      dup3\n        /* \"contracts/Market.sol\":5908:5927  sideBBetsPending[i] */\n      dup2\n      sload\n      dup2\n      lt\n      tag_306\n      jumpi\n      mstore(0x00, shl(0xe0, 0x4e487b71))\n      mstore(0x04, 0x32)\n      revert(0x00, 0x24)\n    tag_306:\n      0x00\n      swap2\n      dup3\n      mstore\n      0x20\n      swap2\n      dup3\n      swap1\n      keccak256\n        /* \"contracts/Market.sol\":5885:5927  MarketBet memory bet = sideBBetsPending[i] */\n      0x40\n      dup1\n      mload\n      0x60\n      dup2\n      add\n      dup3\n      mstore\n        /* \"contracts/Market.sol\":5908:5927  sideBBetsPending[i] */\n      0x03\n      swap1\n      swap4\n      mul\n      swap1\n      swap2\n      add\n        /* \"contracts/Market.sol\":5885:5927  MarketBet memory bet = sideBBetsPending[i] */\n      dup1\n      sload\n      sub(shl(0xa0, 0x01), 0x01)\n      and\n      dup4\n      mstore\n      0x01\n      dup2\n      add\n      sload\n      swap4\n      dup4\n      add\n      swap4\n      swap1\n      swap4\n      mstore\n      0x02\n      swap1\n      swap3\n      add\n      sload\n      0xff\n      swap1\n      dup2\n      and\n      swap3\n      dup3\n      add\n      dup4\n      swap1\n      mstore\n      swap1\n      swap3\n      pop\n        /* \"contracts/Market.sol\":5952:5968  bet.odds>maxOdds */\n      dup5\n      and\n      lt\n        /* \"contracts/Market.sol\":5949:6079  if(bet.odds>maxOdds){... */\n      iszero\n      tag_308\n      jumpi\n        /* \"contracts/Market.sol\":6005:6008  bet */\n      dup1\n        /* \"contracts/Market.sol\":6005:6013  bet.odds */\n      0x40\n      add\n      mload\n        /* \"contracts/Market.sol\":5995:6013  maxOdds = bet.odds */\n      swap3\n      pop\n        /* \"contracts/Market.sol\":6055:6056  i */\n      dup2\n        /* \"contracts/Market.sol\":6039:6056  selectedIndex = i */\n      swap4\n      pop\n        /* \"contracts/Market.sol\":5949:6079  if(bet.odds>maxOdds){... */\n    tag_308:\n      pop\n        /* \"contracts/Market.sol\":5859:5862  i++ */\n      dup1\n      tag_309\n      dup2\n      tag_310\n      jump\t// in\n    tag_309:\n      swap2\n      pop\n      pop\n        /* \"contracts/Market.sol\":5829:6097  for(uint i = 0; i < betCount; i++){... */\n      jump(tag_303)\n    tag_304:\n      pop\n        /* \"contracts/Market.sol\":6127:6132  _odds */\n      dup5\n        /* \"contracts/Market.sol\":6117:6132  maxOdds > _odds */\n      0xff\n      and\n        /* \"contracts/Market.sol\":6117:6124  maxOdds */\n      dup2\n        /* \"contracts/Market.sol\":6117:6132  maxOdds > _odds */\n      0xff\n      and\n      gt\n        /* \"contracts/Market.sol\":6114:7509  if(maxOdds > _odds) {... */\n      iszero\n      tag_311\n      jumpi\n        /* \"contracts/Market.sol\":6156:6184  MarketBet memory selectedBet */\n      0x00\n        /* \"contracts/Market.sol\":6187:6203  sideBBetsPending */\n      0x0c\n        /* \"contracts/Market.sol\":6204:6217  selectedIndex */\n      dup4\n        /* \"contracts/Market.sol\":6187:6218  sideBBetsPending[selectedIndex] */\n      dup2\n      sload\n      dup2\n      lt\n      tag_312\n      jumpi\n      mstore(0x00, shl(0xe0, 0x4e487b71))\n      mstore(0x04, 0x32)\n      revert(0x00, 0x24)\n    tag_312:\n      0x00\n      swap2\n      dup3\n      mstore\n      0x20\n      dup1\n      dup4\n      keccak256\n        /* \"contracts/Market.sol\":6156:6218  MarketBet memory selectedBet = sideBBetsPending[selectedIndex] */\n      0x40\n      dup1\n      mload\n      0x60\n      dup2\n      add\n      dup3\n      mstore\n        /* \"contracts/Market.sol\":6187:6218  sideBBetsPending[selectedIndex] */\n      0x03\n      swap1\n      swap5\n      mul\n      swap1\n      swap2\n      add\n        /* \"contracts/Market.sol\":6156:6218  MarketBet memory selectedBet = sideBBetsPending[selectedIndex] */\n      dup1\n      sload\n      sub(shl(0xa0, 0x01), 0x01)\n      and\n      dup1\n      dup6\n      mstore\n      0x01\n      dup3\n      add\n      sload\n      dup6\n      dup6\n      add\n      mstore\n      0x02\n      swap1\n      swap2\n      add\n      sload\n      0xff\n      and\n      dup5\n      dup4\n      add\n      mstore\n        /* \"contracts/Market.sol\":6343:6372  selectedBetInstance.matched() */\n      dup2\n      mload\n      shl(0xe1, 0x45564e65)\n      dup2\n      mstore\n      swap2\n      mload\n        /* \"contracts/Market.sol\":6156:6218  MarketBet memory selectedBet = sideBBetsPending[selectedIndex] */\n      swap4\n      swap6\n      pop\n      swap4\n        /* \"contracts/Market.sol\":6187:6218  sideBBetsPending[selectedIndex] */\n      swap3\n        /* \"contracts/Market.sol\":6156:6218  MarketBet memory selectedBet = sideBBetsPending[selectedIndex] */\n      dup5\n      swap3\n        /* \"contracts/Market.sol\":6343:6370  selectedBetInstance.matched */\n      0x8aac9cca\n      swap3\n        /* \"contracts/Market.sol\":6343:6372  selectedBetInstance.matched() */\n      0x04\n      dup1\n      dup3\n      add\n      swap4\n      swap2\n      dup3\n      swap1\n      sub\n      add\n      dup2\n        /* \"contracts/Market.sol\":6156:6218  MarketBet memory selectedBet = sideBBetsPending[selectedIndex] */\n      dup7\n        /* \"contracts/Market.sol\":6343:6372  selectedBetInstance.matched() */\n      dup1\n      extcodesize\n      iszero\n      dup1\n      iszero\n      tag_314\n      jumpi\n      0x00\n      dup1\n      revert\n    tag_314:\n      pop\n      gas\n      staticcall\n      iszero\n      dup1\n      iszero\n      tag_316\n      jumpi\n      returndatasize\n      0x00\n      dup1\n      returndatacopy\n      revert(0x00, returndatasize)\n    tag_316:\n      pop\n      pop\n      pop\n      pop\n      mload(0x40)\n      returndatasize\n      not(0x1f)\n      0x1f\n      dup3\n      add\n      and\n      dup3\n      add\n      dup1\n      0x40\n      mstore\n      pop\n      dup2\n      add\n      swap1\n      tag_317\n      swap2\n      swap1\n      tag_115\n      jump\t// in\n    tag_317:\n        /* \"contracts/Market.sol\":6317:6372  uint matchedSelectedBet = selectedBetInstance.matched() */\n      swap1\n      pop\n        /* \"contracts/Market.sol\":6394:6411  uint offeredStake */\n      0x00\n        /* \"contracts/Market.sol\":6473:6476  100 */\n      0x64\n        /* \"contracts/Market.sol\":6458:6469  _odds - 100 */\n      tag_318\n        /* \"contracts/Market.sol\":6473:6476  100 */\n      dup2\n        /* \"contracts/Market.sol\":6458:6463  _odds */\n      dup12\n        /* \"contracts/Market.sol\":6458:6469  _odds - 100 */\n      tag_319\n      jump\t// in\n    tag_318:\n        /* \"contracts/Market.sol\":6414:6470  (selectedBet.stake - matchedSelectedBet) * (_odds - 100) */\n      0xff\n      and\n        /* \"contracts/Market.sol\":6435:6453  matchedSelectedBet */\n      dup4\n        /* \"contracts/Market.sol\":6415:6426  selectedBet */\n      dup7\n        /* \"contracts/Market.sol\":6415:6432  selectedBet.stake */\n      0x20\n      add\n      mload\n        /* \"contracts/Market.sol\":6415:6453  selectedBet.stake - matchedSelectedBet */\n      tag_320\n      swap2\n      swap1\n      tag_121\n      jump\t// in\n    tag_320:\n        /* \"contracts/Market.sol\":6414:6470  (selectedBet.stake - matchedSelectedBet) * (_odds - 100) */\n      tag_321\n      swap2\n      swap1\n      tag_190\n      jump\t// in\n    tag_321:\n        /* \"contracts/Market.sol\":6414:6476  (selectedBet.stake - matchedSelectedBet) * (_odds - 100) / 100 */\n      tag_322\n      swap2\n      swap1\n      tag_192\n      jump\t// in\n    tag_322:\n        /* \"contracts/Market.sol\":6394:6476  uint offeredStake = (selectedBet.stake - matchedSelectedBet) * (_odds - 100) / 100 */\n      swap1\n      pop\n        /* \"contracts/Market.sol\":6499:6512  uint _amountA */\n      0x00\n        /* \"contracts/Market.sol\":6552:6558  _stake */\n      dup11\n        /* \"contracts/Market.sol\":6537:6549  offeredStake */\n      dup3\n        /* \"contracts/Market.sol\":6537:6558  offeredStake > _stake */\n      gt\n        /* \"contracts/Market.sol\":6534:6724  if(offeredStake > _stake) {... */\n      iszero\n      tag_323\n      jumpi\n      pop\n        /* \"contracts/Market.sol\":6597:6603  _stake */\n      dup10\n        /* \"contracts/Market.sol\":6534:6724  if(offeredStake > _stake) {... */\n      jump(tag_324)\n    tag_323:\n      pop\n        /* \"contracts/Market.sol\":6689:6701  offeredStake */\n      dup1\n        /* \"contracts/Market.sol\":6534:6724  if(offeredStake > _stake) {... */\n    tag_324:\n        /* \"contracts/Market.sol\":6745:6758  uint _amountB */\n      0x00\n        /* \"contracts/Market.sol\":6761:6777  _amountA * _odds */\n      tag_325\n      0xff\n      dup13\n      and\n        /* \"contracts/Market.sol\":6761:6769  _amountA */\n      dup4\n        /* \"contracts/Market.sol\":6761:6777  _amountA * _odds */\n      tag_190\n      jump\t// in\n    tag_325:\n        /* \"contracts/Market.sol\":6745:6777  uint _amountB = _amountA * _odds */\n      swap1\n      pop\n        /* \"contracts/Market.sol\":6799:6812  BetPair _pair */\n      0x00\n        /* \"contracts/Market.sol\":6835:6839  this */\n      address\n        /* \"contracts/Market.sol\":6841:6852  _betAddress */\n      dup15\n        /* \"contracts/Market.sol\":6853:6864  selectedBet */\n      dup9\n        /* \"contracts/Market.sol\":6853:6875  selectedBet.betAddress */\n      0x00\n      add\n      mload\n        /* \"contracts/Market.sol\":6876:6884  _amountA */\n      dup6\n        /* \"contracts/Market.sol\":6885:6893  _amountB */\n      dup6\n        /* \"contracts/Market.sol\":6815:6894  new BetPair(address(this),_betAddress,selectedBet.betAddress,_amountA,_amountB) */\n      mload(0x40)\n      tag_326\n      swap1\n      tag_327\n      jump\t// in\n    tag_326:\n      sub(shl(0xa0, 0x01), 0x01)\n        /* \"#utility.yul\":6014:6029   */\n      swap6\n      dup7\n      and\n        /* \"#utility.yul\":5996:6030   */\n      dup2\n      mstore\n        /* \"#utility.yul\":6066:6081   */\n      swap4\n      dup6\n      and\n        /* \"#utility.yul\":6061:6063   */\n      0x20\n        /* \"#utility.yul\":6046:6064   */\n      dup6\n      add\n        /* \"#utility.yul\":6039:6082   */\n      mstore\n        /* \"#utility.yul\":6118:6133   */\n      swap4\n      swap1\n      swap2\n      and\n        /* \"#utility.yul\":6113:6115   */\n      0x40\n        /* \"#utility.yul\":6098:6116   */\n      dup4\n      add\n        /* \"#utility.yul\":6091:6134   */\n      mstore\n        /* \"#utility.yul\":6165:6167   */\n      0x60\n        /* \"#utility.yul\":6150:6168   */\n      dup3\n      add\n        /* \"#utility.yul\":6143:6177   */\n      mstore\n        /* \"#utility.yul\":6208:6211   */\n      0x80\n        /* \"#utility.yul\":6193:6212   */\n      dup2\n      add\n        /* \"#utility.yul\":6186:6221   */\n      swap2\n      swap1\n      swap2\n      mstore\n        /* \"#utility.yul\":5945:5948   */\n      0xa0\n        /* \"#utility.yul\":5930:5949   */\n      add\n        /* \"contracts/Market.sol\":6815:6894  new BetPair(address(this),_betAddress,selectedBet.betAddress,_amountA,_amountB) */\n      mload(0x40)\n      dup1\n      swap2\n      sub\n      swap1\n      0x00\n      create\n      dup1\n      iszero\n      dup1\n      iszero\n      tag_330\n      jumpi\n      returndatasize\n      0x00\n      dup1\n      returndatacopy\n      revert(0x00, returndatasize)\n    tag_330:\n      pop\n        /* \"contracts/Market.sol\":6799:6894  BetPair _pair = new BetPair(address(this),_betAddress,selectedBet.betAddress,_amountA,_amountB) */\n      swap1\n      pop\n        /* \"contracts/Market.sol\":6923:6939  sideBBetsPending */\n      0x0c\n        /* \"contracts/Market.sol\":6940:6953  selectedIndex */\n      dup10\n        /* \"contracts/Market.sol\":6923:6954  sideBBetsPending[selectedIndex] */\n      dup2\n      sload\n      dup2\n      lt\n      tag_331\n      jumpi\n      mstore(0x00, shl(0xe0, 0x4e487b71))\n      mstore(0x04, 0x32)\n      revert(0x00, 0x24)\n    tag_331:\n      0x00\n      swap2\n      dup3\n      mstore\n      0x20\n      dup3\n      keccak256\n      0x03\n      swap2\n      swap1\n      swap2\n      mul\n      add\n        /* \"contracts/Market.sol\":6916:6954  delete sideBBetsPending[selectedIndex] */\n      dup1\n      sload\n      not(sub(shl(0xa0, 0x01), 0x01))\n      and\n      dup2\n      sstore\n      0x01\n      dup2\n      add\n      swap2\n      swap1\n      swap2\n      sstore\n      0x02\n      add\n      dup1\n      sload\n      not(0xff)\n      and\n      swap1\n      sstore\n        /* \"contracts/Market.sol\":7029:7055  _betA.setMatched(_amountA) */\n      mload(0x40)\n      shl(0xe1, 0x2d267e03)\n      dup2\n      mstore\n      0x04\n      dup2\n      add\n        /* \"#utility.yul\":10443:10468   */\n      dup5\n      swap1\n      mstore\n        /* \"contracts/Market.sol\":6995:7006  _betAddress */\n      dup15\n      swap1\n      sub(shl(0xa0, 0x01), 0x01)\n        /* \"contracts/Market.sol\":7029:7045  _betA.setMatched */\n      dup3\n      and\n      swap1\n      0x5a4cfc06\n      swap1\n        /* \"#utility.yul\":10416:10434   */\n      0x24\n      add\n        /* \"contracts/Market.sol\":7029:7055  _betA.setMatched(_amountA) */\n      0x20\n      mload(0x40)\n      dup1\n      dup4\n      sub\n      dup2\n      0x00\n      dup8\n      dup1\n      extcodesize\n      iszero\n      dup1\n      iszero\n      tag_334\n      jumpi\n      0x00\n      dup1\n      revert\n    tag_334:\n      pop\n      gas\n      call\n      iszero\n      dup1\n      iszero\n      tag_336\n      jumpi\n      returndatasize\n      0x00\n      dup1\n      returndatacopy\n      revert(0x00, returndatasize)\n    tag_336:\n      pop\n      pop\n      pop\n      pop\n      mload(0x40)\n      returndatasize\n      not(0x1f)\n      0x1f\n      dup3\n      add\n      and\n      dup3\n      add\n      dup1\n      0x40\n      mstore\n      pop\n      dup2\n      add\n      swap1\n      tag_337\n      swap2\n      swap1\n      tag_136\n      jump\t// in\n    tag_337:\n      pop\n        /* \"contracts/Market.sol\":7077:7106  _betA.addPair(address(_pair)) */\n      mload(0x40)\n      shl(0xe1, 0x615bdddb)\n      dup2\n      mstore\n      sub(shl(0xa0, 0x01), 0x01)\n        /* \"#utility.yul\":5655:5687   */\n      dup4\n      dup2\n      and\n        /* \"contracts/Market.sol\":7077:7106  _betA.addPair(address(_pair)) */\n      0x04\n      dup4\n      add\n        /* \"#utility.yul\":5637:5688   */\n      mstore\n        /* \"contracts/Market.sol\":7077:7090  _betA.addPair */\n      dup3\n      and\n      swap1\n      0xc2b7bbb6\n      swap1\n        /* \"#utility.yul\":5610:5628   */\n      0x24\n      add\n        /* \"contracts/Market.sol\":7077:7106  _betA.addPair(address(_pair)) */\n      0x20\n      mload(0x40)\n      dup1\n      dup4\n      sub\n      dup2\n      0x00\n      dup8\n      dup1\n      extcodesize\n      iszero\n      dup1\n      iszero\n      tag_339\n      jumpi\n      0x00\n      dup1\n      revert\n    tag_339:\n      pop\n      gas\n      call\n      iszero\n      dup1\n      iszero\n      tag_341\n      jumpi\n      returndatasize\n      0x00\n      dup1\n      returndatacopy\n      revert(0x00, returndatasize)\n    tag_341:\n      pop\n      pop\n      pop\n      pop\n      mload(0x40)\n      returndatasize\n      not(0x1f)\n      0x1f\n      dup3\n      add\n      and\n      dup3\n      add\n      dup1\n      0x40\n      mstore\n      pop\n      dup2\n      add\n      swap1\n      tag_342\n      swap2\n      swap1\n      tag_136\n      jump\t// in\n    tag_342:\n      pop\n        /* \"contracts/Market.sol\":7147:7169  selectedBet.betAddress */\n      dup8\n      mload\n        /* \"contracts/Market.sol\":7192:7218  _betB.setMatched(_amountB) */\n      mload(0x40)\n      shl(0xe1, 0x2d267e03)\n      dup2\n      mstore\n      0x04\n      dup2\n      add\n        /* \"#utility.yul\":10443:10468   */\n      dup6\n      swap1\n      mstore\n      sub(shl(0xa0, 0x01), 0x01)\n        /* \"contracts/Market.sol\":7192:7208  _betB.setMatched */\n      dup3\n      and\n      swap1\n      0x5a4cfc06\n      swap1\n        /* \"#utility.yul\":10416:10434   */\n      0x24\n      add\n        /* \"contracts/Market.sol\":7192:7218  _betB.setMatched(_amountB) */\n      0x20\n      mload(0x40)\n      dup1\n      dup4\n      sub\n      dup2\n      0x00\n      dup8\n      dup1\n      extcodesize\n      iszero\n      dup1\n      iszero\n      tag_344\n      jumpi\n      0x00\n      dup1\n      revert\n    tag_344:\n      pop\n      gas\n      call\n      iszero\n      dup1\n      iszero\n      tag_346\n      jumpi\n      returndatasize\n      0x00\n      dup1\n      returndatacopy\n      revert(0x00, returndatasize)\n    tag_346:\n      pop\n      pop\n      pop\n      pop\n      mload(0x40)\n      returndatasize\n      not(0x1f)\n      0x1f\n      dup3\n      add\n      and\n      dup3\n      add\n      dup1\n      0x40\n      mstore\n      pop\n      dup2\n      add\n      swap1\n      tag_347\n      swap2\n      swap1\n      tag_136\n      jump\t// in\n    tag_347:\n      pop\n        /* \"contracts/Market.sol\":7240:7269  _betB.addPair(address(_pair)) */\n      mload(0x40)\n      shl(0xe1, 0x615bdddb)\n      dup2\n      mstore\n      sub(shl(0xa0, 0x01), 0x01)\n        /* \"#utility.yul\":5655:5687   */\n      dup5\n      dup2\n      and\n        /* \"contracts/Market.sol\":7240:7269  _betB.addPair(address(_pair)) */\n      0x04\n      dup4\n      add\n        /* \"#utility.yul\":5637:5688   */\n      mstore\n        /* \"contracts/Market.sol\":7240:7253  _betB.addPair */\n      dup3\n      and\n      swap1\n      0xc2b7bbb6\n      swap1\n        /* \"#utility.yul\":5610:5628   */\n      0x24\n      add\n        /* \"contracts/Market.sol\":7240:7269  _betB.addPair(address(_pair)) */\n      0x20\n      mload(0x40)\n      dup1\n      dup4\n      sub\n      dup2\n      0x00\n      dup8\n      dup1\n      extcodesize\n      iszero\n      dup1\n      iszero\n      tag_349\n      jumpi\n      0x00\n      dup1\n      revert\n    tag_349:\n      pop\n      gas\n      call\n      iszero\n      dup1\n      iszero\n      tag_351\n      jumpi\n      returndatasize\n      0x00\n      dup1\n      returndatacopy\n      revert(0x00, returndatasize)\n    tag_351:\n      pop\n      pop\n      pop\n      pop\n      mload(0x40)\n      returndatasize\n      not(0x1f)\n      0x1f\n      dup3\n      add\n      and\n      dup3\n      add\n      dup1\n      0x40\n      mstore\n      pop\n      dup2\n      add\n      swap1\n      tag_352\n      swap2\n      swap1\n      tag_136\n      jump\t// in\n    tag_352:\n      pop\n        /* \"contracts/Market.sol\":7292:7313  _remStake -= _amountA */\n      tag_353\n        /* \"contracts/Market.sol\":7305:7313  _amountA */\n      dup6\n        /* \"contracts/Market.sol\":7292:7313  _remStake -= _amountA */\n      dup14\n      tag_121\n      jump\t// in\n    tag_353:\n      swap12\n      pop\n        /* \"contracts/Market.sol\":6114:7509  if(maxOdds > _odds) {... */\n      pop\n      pop\n      pop\n      pop\n      pop\n      pop\n      pop\n      pop\n      pop\n      jump(tag_354)\n    tag_311:\n      pop\n      pop\n        /* \"contracts/Market.sol\":7398:7462  MarketBet({betAddress: _betAddress, stake: _stake, odds: _odds}) */\n      0x40\n      dup1\n      mload\n      0x60\n      dup2\n      add\n      dup3\n      mstore\n      sub(shl(0xa0, 0x01), 0x01)\n      dup8\n      dup2\n      and\n      dup3\n      mstore\n      0x20\n      dup3\n      add\n      dup8\n      dup2\n      mstore\n      0xff\n      dup8\n      dup2\n      and\n      swap5\n      dup5\n      add\n      swap5\n      dup6\n      mstore\n        /* \"contracts/Market.sol\":7376:7392  sideABetsPending */\n      0x0a\n        /* \"contracts/Market.sol\":7376:7463  sideABetsPending.push(MarketBet({betAddress: _betAddress, stake: _stake, odds: _odds})) */\n      dup1\n      sload\n      0x01\n      dup2\n      add\n      dup3\n      sstore\n      0x00\n      swap2\n      swap1\n      swap2\n      mstore\n      swap4\n      mload\n      0xc65a7bb8d6351c1cf70c95a316cc6a92839c986682d98bc35f958f4883f9d2a8\n      0x03\n      swap1\n      swap6\n      mul\n      swap5\n      dup6\n      add\n      dup1\n      sload\n      not(sub(shl(0xa0, 0x01), 0x01))\n      and\n      swap2\n      swap1\n      swap5\n      and\n      or\n      swap1\n      swap3\n      sstore\n      mload\n      0xc65a7bb8d6351c1cf70c95a316cc6a92839c986682d98bc35f958f4883f9d2a9\n      dup4\n      add\n      sstore\n      swap2\n      mload\n      0xc65a7bb8d6351c1cf70c95a316cc6a92839c986682d98bc35f958f4883f9d2aa\n      swap1\n      swap2\n      add\n      dup1\n      sload\n      not(0xff)\n      and\n      swap2\n      swap1\n      swap3\n      and\n      or\n      swap1\n      sstore\n        /* \"contracts/Market.sol\":7485:7490  break */\n      jump(tag_302)\n        /* \"contracts/Market.sol\":6114:7509  if(maxOdds > _odds) {... */\n    tag_354:\n        /* \"contracts/Market.sol\":5704:7523  while(_remStake >= 1 * 10 ** 18){... */\n      pop\n      pop\n      jump(tag_301)\n    tag_302:\n        /* \"contracts/Market.sol\":5637:7659  if(betCount > 0){... */\n      pop\n      jump(tag_295)\n    tag_300:\n      pop\n        /* \"contracts/Market.sol\":7583:7647  MarketBet({betAddress: _betAddress, stake: _stake, odds: _odds}) */\n      0x40\n      dup1\n      mload\n      0x60\n      dup2\n      add\n      dup3\n      mstore\n      sub(shl(0xa0, 0x01), 0x01)\n      swap5\n      dup6\n      and\n      dup2\n      mstore\n      0x20\n      dup2\n      add\n      swap4\n      dup5\n      mstore\n      0xff\n      swap3\n      dup4\n      and\n      swap2\n      dup2\n      add\n      swap2\n      dup3\n      mstore\n        /* \"contracts/Market.sol\":7561:7577  sideABetsPending */\n      0x0a\n        /* \"contracts/Market.sol\":7561:7648  sideABetsPending.push(MarketBet({betAddress: _betAddress, stake: _stake, odds: _odds})) */\n      dup1\n      sload\n      0x01\n      dup2\n      add\n      dup3\n      sstore\n      0x00\n      swap2\n      swap1\n      swap2\n      mstore\n      swap1\n      mload\n      0xc65a7bb8d6351c1cf70c95a316cc6a92839c986682d98bc35f958f4883f9d2a8\n      0x03\n      swap1\n      swap3\n      mul\n      swap2\n      dup3\n      add\n      dup1\n      sload\n      not(sub(shl(0xa0, 0x01), 0x01))\n      and\n      swap2\n      swap1\n      swap7\n      and\n      or\n      swap1\n      swap5\n      sstore\n      swap2\n      mload\n      0xc65a7bb8d6351c1cf70c95a316cc6a92839c986682d98bc35f958f4883f9d2a9\n      dup5\n      add\n      sstore\n      swap1\n      mload\n      0xc65a7bb8d6351c1cf70c95a316cc6a92839c986682d98bc35f958f4883f9d2aa\n      swap1\n      swap3\n      add\n      dup1\n      sload\n      not(0xff)\n      and\n      swap3\n      swap1\n      swap2\n      and\n      swap2\n      swap1\n      swap2\n      or\n      swap1\n      sstore\n        /* \"contracts/Market.sol\":5483:7681  function _matchSideABet(address _betAddress, uint256 _stake, uint8 _odds)... */\n      jump\t// out\n        /* \"contracts/Market.sol\":5175:5477  function _addToSideB(address _better, address _betAddress, uint256 _stake, uint8 _odds)... */\n    tag_263:\n        /* \"contracts/Market.sol\":5313:5319  _stake */\n      dup2\n        /* \"contracts/Market.sol\":5294:5309  sideBTotalStake */\n      0x08\n      0x00\n        /* \"contracts/Market.sol\":5294:5319  sideBTotalStake += _stake */\n      dup3\n      dup3\n      sload\n      tag_359\n      swap2\n      swap1\n      tag_194\n      jump\t// in\n    tag_359:\n      swap1\n      swap2\n      sstore\n      pop\n      pop\n        /* \"contracts/Market.sol\":5344:5408  MarketBet({betAddress: _betAddress, stake: _stake, odds: _odds}) */\n      0x40\n      dup1\n      mload\n      0x60\n      dup2\n      add\n      dup3\n      mstore\n      sub(shl(0xa0, 0x01), 0x01)\n      dup6\n      dup2\n      and\n      dup3\n      mstore\n      0x20\n      dup1\n      dup4\n      add\n      dup7\n      dup2\n      mstore\n      0xff\n      dup7\n      dup2\n      and\n      dup6\n      dup8\n      add\n      swap1\n      dup2\n      mstore\n        /* \"contracts/Market.sol\":5329:5338  sideBBets */\n      0x0b\n        /* \"contracts/Market.sol\":5329:5409  sideBBets.push(MarketBet({betAddress: _betAddress, stake: _stake, odds: _odds})) */\n      dup1\n      sload\n      0x01\n      dup2\n      add\n      dup3\n      sstore\n      0x00\n      swap2\n      dup3\n      mstore\n      swap7\n      mload\n      0x0175b7a638427703f0dbe7bb9bbf987a2551717b34e79f33b5b1008d1fa01db9\n      0x03\n      swap1\n      swap9\n      mul\n      swap8\n      dup9\n      add\n      dup1\n      sload\n      not(sub(shl(0xa0, 0x01), 0x01))\n      and\n      swap2\n      dup9\n      and\n      swap2\n      swap1\n      swap2\n      or\n      swap1\n      sstore\n      swap3\n      mload\n      0x0175b7a638427703f0dbe7bb9bbf987a2551717b34e79f33b5b1008d1fa01dba\n      dup8\n      add\n      sstore\n      mload\n      0x0175b7a638427703f0dbe7bb9bbf987a2551717b34e79f33b5b1008d1fa01dbb\n      swap1\n      swap6\n      add\n      dup1\n      sload\n      not(0xff)\n      and\n      swap6\n      swap1\n      swap2\n      and\n      swap5\n      swap1\n      swap5\n      or\n      swap1\n      swap4\n      sstore\n        /* \"contracts/Market.sol\":5419:5444  sideBUsersStakes[_better] */\n      swap1\n      dup8\n      and\n      dup3\n      mstore\n        /* \"contracts/Market.sol\":5419:5435  sideBUsersStakes */\n      0x0e\n        /* \"contracts/Market.sol\":5419:5444  sideBUsersStakes[_better] */\n      swap1\n      mstore\n      swap1\n      dup2\n      keccak256\n        /* \"contracts/Market.sol\":5419:5454  sideBUsersStakes[_better] += _stake */\n      dup1\n      sload\n        /* \"contracts/Market.sol\":5344:5408  MarketBet({betAddress: _betAddress, stake: _stake, odds: _odds}) */\n      dup5\n      swap3\n      swap1\n        /* \"contracts/Market.sol\":5419:5454  sideBUsersStakes[_better] += _stake */\n      tag_298\n      swap1\n        /* \"contracts/Market.sol\":5344:5408  MarketBet({betAddress: _betAddress, stake: _stake, odds: _odds}) */\n      dup5\n      swap1\n        /* \"contracts/Market.sol\":5419:5454  sideBUsersStakes[_better] += _stake */\n      tag_194\n      jump\t// in\n        /* \"contracts/Market.sol\":7687:9889  function _matchSideBBet(address _betAddress, uint256 _stake, uint8 _odds)... */\n    tag_265:\n        /* \"contracts/Market.sol\":7808:7824  sideABetsPending */\n      0x0a\n        /* \"contracts/Market.sol\":7808:7831  sideABetsPending.length */\n      sload\n        /* \"contracts/Market.sol\":7844:7856  betCount > 0 */\n      dup1\n      iszero\n        /* \"contracts/Market.sol\":7841:9867  if(betCount > 0){... */\n      tag_363\n      jumpi\n        /* \"contracts/Market.sol\":7888:7894  _stake */\n      dup3\n        /* \"contracts/Market.sol\":7908:9731  while(_remStake >= 1 * 10 ** 18){... */\n    tag_364:\n        /* \"contracts/Market.sol\":7927:7939  1 * 10 ** 18 */\n      0x0de0b6b3a7640000\n        /* \"contracts/Market.sol\":7914:7923  _remStake */\n      dup2\n        /* \"contracts/Market.sol\":7914:7939  _remStake >= 1 * 10 ** 18 */\n      lt\n        /* \"contracts/Market.sol\":7908:9731  while(_remStake >= 1 * 10 ** 18){... */\n      tag_302\n      jumpi\n        /* \"contracts/Market.sol\":7958:7976  uint selectedIndex */\n      0x00\n        /* \"contracts/Market.sol\":7998:8011  uint8 maxOdds */\n      dup1\n        /* \"contracts/Market.sol\":8037:8043  uint i */\n      0x00\n        /* \"contracts/Market.sol\":8033:8301  for(uint i = 0; i < betCount; i++){... */\n    tag_366:\n        /* \"contracts/Market.sol\":8053:8061  betCount */\n      dup5\n        /* \"contracts/Market.sol\":8049:8050  i */\n      dup2\n        /* \"contracts/Market.sol\":8049:8061  i < betCount */\n      lt\n        /* \"contracts/Market.sol\":8033:8301  for(uint i = 0; i < betCount; i++){... */\n      iszero\n      tag_367\n      jumpi\n        /* \"contracts/Market.sol\":8089:8109  MarketBet memory bet */\n      0x00\n        /* \"contracts/Market.sol\":8112:8128  sideABetsPending */\n      0x0a\n        /* \"contracts/Market.sol\":8129:8130  i */\n      dup3\n        /* \"contracts/Market.sol\":8112:8131  sideABetsPending[i] */\n      dup2\n      sload\n      dup2\n      lt\n      tag_369\n      jumpi\n      mstore(0x00, shl(0xe0, 0x4e487b71))\n      mstore(0x04, 0x32)\n      revert(0x00, 0x24)\n    tag_369:\n      0x00\n      swap2\n      dup3\n      mstore\n      0x20\n      swap2\n      dup3\n      swap1\n      keccak256\n        /* \"contracts/Market.sol\":8089:8131  MarketBet memory bet = sideABetsPending[i] */\n      0x40\n      dup1\n      mload\n      0x60\n      dup2\n      add\n      dup3\n      mstore\n        /* \"contracts/Market.sol\":8112:8131  sideABetsPending[i] */\n      0x03\n      swap1\n      swap4\n      mul\n      swap1\n      swap2\n      add\n        /* \"contracts/Market.sol\":8089:8131  MarketBet memory bet = sideABetsPending[i] */\n      dup1\n      sload\n      sub(shl(0xa0, 0x01), 0x01)\n      and\n      dup4\n      mstore\n      0x01\n      dup2\n      add\n      sload\n      swap4\n      dup4\n      add\n      swap4\n      swap1\n      swap4\n      mstore\n      0x02\n      swap1\n      swap3\n      add\n      sload\n      0xff\n      swap1\n      dup2\n      and\n      swap3\n      dup3\n      add\n      dup4\n      swap1\n      mstore\n      swap1\n      swap3\n      pop\n        /* \"contracts/Market.sol\":8156:8172  bet.odds>maxOdds */\n      dup5\n      and\n      lt\n        /* \"contracts/Market.sol\":8153:8283  if(bet.odds>maxOdds){... */\n      iszero\n      tag_371\n      jumpi\n        /* \"contracts/Market.sol\":8209:8212  bet */\n      dup1\n        /* \"contracts/Market.sol\":8209:8217  bet.odds */\n      0x40\n      add\n      mload\n        /* \"contracts/Market.sol\":8199:8217  maxOdds = bet.odds */\n      swap3\n      pop\n        /* \"contracts/Market.sol\":8259:8260  i */\n      dup2\n        /* \"contracts/Market.sol\":8243:8260  selectedIndex = i */\n      swap4\n      pop\n        /* \"contracts/Market.sol\":8153:8283  if(bet.odds>maxOdds){... */\n    tag_371:\n      pop\n        /* \"contracts/Market.sol\":8063:8066  i++ */\n      dup1\n      tag_372\n      dup2\n      tag_310\n      jump\t// in\n    tag_372:\n      swap2\n      pop\n      pop\n        /* \"contracts/Market.sol\":8033:8301  for(uint i = 0; i < betCount; i++){... */\n      jump(tag_366)\n    tag_367:\n      pop\n        /* \"contracts/Market.sol\":8331:8336  _odds */\n      dup5\n        /* \"contracts/Market.sol\":8321:8336  maxOdds > _odds */\n      0xff\n      and\n        /* \"contracts/Market.sol\":8321:8328  maxOdds */\n      dup2\n        /* \"contracts/Market.sol\":8321:8336  maxOdds > _odds */\n      0xff\n      and\n      gt\n        /* \"contracts/Market.sol\":8318:9717  if(maxOdds > _odds) {... */\n      iszero\n      tag_373\n      jumpi\n        /* \"contracts/Market.sol\":8360:8388  MarketBet memory selectedBet */\n      0x00\n        /* \"contracts/Market.sol\":8391:8407  sideABetsPending */\n      0x0a\n        /* \"contracts/Market.sol\":8408:8421  selectedIndex */\n      dup4\n        /* \"contracts/Market.sol\":8391:8422  sideABetsPending[selectedIndex] */\n      dup2\n      sload\n      dup2\n      lt\n      tag_374\n      jumpi\n      mstore(0x00, shl(0xe0, 0x4e487b71))\n      mstore(0x04, 0x32)\n      revert(0x00, 0x24)\n    tag_374:\n      0x00\n      swap2\n      dup3\n      mstore\n      0x20\n      dup1\n      dup4\n      keccak256\n        /* \"contracts/Market.sol\":8360:8422  MarketBet memory selectedBet = sideABetsPending[selectedIndex] */\n      0x40\n      dup1\n      mload\n      0x60\n      dup2\n      add\n      dup3\n      mstore\n        /* \"contracts/Market.sol\":8391:8422  sideABetsPending[selectedIndex] */\n      0x03\n      swap1\n      swap5\n      mul\n      swap1\n      swap2\n      add\n        /* \"contracts/Market.sol\":8360:8422  MarketBet memory selectedBet = sideABetsPending[selectedIndex] */\n      dup1\n      sload\n      sub(shl(0xa0, 0x01), 0x01)\n      and\n      dup1\n      dup6\n      mstore\n      0x01\n      dup3\n      add\n      sload\n      dup6\n      dup6\n      add\n      mstore\n      0x02\n      swap1\n      swap2\n      add\n      sload\n      0xff\n      and\n      dup5\n      dup4\n      add\n      mstore\n        /* \"contracts/Market.sol\":8547:8576  selectedBetInstance.matched() */\n      dup2\n      mload\n      shl(0xe1, 0x45564e65)\n      dup2\n      mstore\n      swap2\n      mload\n        /* \"contracts/Market.sol\":8360:8422  MarketBet memory selectedBet = sideABetsPending[selectedIndex] */\n      swap4\n      swap6\n      pop\n      swap4\n        /* \"contracts/Market.sol\":8391:8422  sideABetsPending[selectedIndex] */\n      swap3\n        /* \"contracts/Market.sol\":8360:8422  MarketBet memory selectedBet = sideABetsPending[selectedIndex] */\n      dup5\n      swap3\n        /* \"contracts/Market.sol\":8547:8574  selectedBetInstance.matched */\n      0x8aac9cca\n      swap3\n        /* \"contracts/Market.sol\":8547:8576  selectedBetInstance.matched() */\n      0x04\n      dup1\n      dup3\n      add\n      swap4\n      swap2\n      dup3\n      swap1\n      sub\n      add\n      dup2\n        /* \"contracts/Market.sol\":8360:8422  MarketBet memory selectedBet = sideABetsPending[selectedIndex] */\n      dup7\n        /* \"contracts/Market.sol\":8547:8576  selectedBetInstance.matched() */\n      dup1\n      extcodesize\n      iszero\n      dup1\n      iszero\n      tag_376\n      jumpi\n      0x00\n      dup1\n      revert\n    tag_376:\n      pop\n      gas\n      staticcall\n      iszero\n      dup1\n      iszero\n      tag_378\n      jumpi\n      returndatasize\n      0x00\n      dup1\n      returndatacopy\n      revert(0x00, returndatasize)\n    tag_378:\n      pop\n      pop\n      pop\n      pop\n      mload(0x40)\n      returndatasize\n      not(0x1f)\n      0x1f\n      dup3\n      add\n      and\n      dup3\n      add\n      dup1\n      0x40\n      mstore\n      pop\n      dup2\n      add\n      swap1\n      tag_379\n      swap2\n      swap1\n      tag_115\n      jump\t// in\n    tag_379:\n        /* \"contracts/Market.sol\":8521:8576  uint matchedSelectedBet = selectedBetInstance.matched() */\n      swap1\n      pop\n        /* \"contracts/Market.sol\":8598:8615  uint offeredStake */\n      0x00\n        /* \"contracts/Market.sol\":8677:8680  100 */\n      0x64\n        /* \"contracts/Market.sol\":8662:8673  _odds - 100 */\n      tag_380\n        /* \"contracts/Market.sol\":8677:8680  100 */\n      dup2\n        /* \"contracts/Market.sol\":8662:8667  _odds */\n      dup12\n        /* \"contracts/Market.sol\":8662:8673  _odds - 100 */\n      tag_319\n      jump\t// in\n    tag_380:\n        /* \"contracts/Market.sol\":8618:8674  (selectedBet.stake - matchedSelectedBet) * (_odds - 100) */\n      0xff\n      and\n        /* \"contracts/Market.sol\":8639:8657  matchedSelectedBet */\n      dup4\n        /* \"contracts/Market.sol\":8619:8630  selectedBet */\n      dup7\n        /* \"contracts/Market.sol\":8619:8636  selectedBet.stake */\n      0x20\n      add\n      mload\n        /* \"contracts/Market.sol\":8619:8657  selectedBet.stake - matchedSelectedBet */\n      tag_381\n      swap2\n      swap1\n      tag_121\n      jump\t// in\n    tag_381:\n        /* \"contracts/Market.sol\":8618:8674  (selectedBet.stake - matchedSelectedBet) * (_odds - 100) */\n      tag_382\n      swap2\n      swap1\n      tag_190\n      jump\t// in\n    tag_382:\n        /* \"contracts/Market.sol\":8618:8680  (selectedBet.stake - matchedSelectedBet) * (_odds - 100) / 100 */\n      tag_383\n      swap2\n      swap1\n      tag_192\n      jump\t// in\n    tag_383:\n        /* \"contracts/Market.sol\":8598:8680  uint offeredStake = (selectedBet.stake - matchedSelectedBet) * (_odds - 100) / 100 */\n      swap1\n      pop\n        /* \"contracts/Market.sol\":8703:8716  uint _amountB */\n      0x00\n        /* \"contracts/Market.sol\":8756:8762  _stake */\n      dup11\n        /* \"contracts/Market.sol\":8741:8753  offeredStake */\n      dup3\n        /* \"contracts/Market.sol\":8741:8762  offeredStake > _stake */\n      gt\n        /* \"contracts/Market.sol\":8738:8928  if(offeredStake > _stake) {... */\n      iszero\n      tag_384\n      jumpi\n      pop\n        /* \"contracts/Market.sol\":8801:8807  _stake */\n      dup10\n        /* \"contracts/Market.sol\":8738:8928  if(offeredStake > _stake) {... */\n      jump(tag_385)\n    tag_384:\n      pop\n        /* \"contracts/Market.sol\":8893:8905  offeredStake */\n      dup1\n        /* \"contracts/Market.sol\":8738:8928  if(offeredStake > _stake) {... */\n    tag_385:\n        /* \"contracts/Market.sol\":8949:8962  uint _amountA */\n      0x00\n        /* \"contracts/Market.sol\":8965:8981  _amountB * _odds */\n      tag_386\n      0xff\n      dup13\n      and\n        /* \"contracts/Market.sol\":8965:8973  _amountB */\n      dup4\n        /* \"contracts/Market.sol\":8965:8981  _amountB * _odds */\n      tag_190\n      jump\t// in\n    tag_386:\n        /* \"contracts/Market.sol\":8949:8981  uint _amountA = _amountB * _odds */\n      swap1\n      pop\n        /* \"contracts/Market.sol\":9003:9016  BetPair _pair */\n      0x00\n        /* \"contracts/Market.sol\":9039:9043  this */\n      address\n        /* \"contracts/Market.sol\":9046:9057  selectedBet */\n      dup8\n        /* \"contracts/Market.sol\":9046:9068  selectedBet.betAddress */\n      0x00\n      add\n      mload\n        /* \"contracts/Market.sol\":9070:9081  _betAddress */\n      dup16\n        /* \"contracts/Market.sol\":9083:9091  _amountA */\n      dup5\n        /* \"contracts/Market.sol\":9093:9101  _amountB */\n      dup7\n        /* \"contracts/Market.sol\":9019:9102  new BetPair(address(this), selectedBet.betAddress, _betAddress, _amountA, _amountB) */\n      mload(0x40)\n      tag_387\n      swap1\n      tag_327\n      jump\t// in\n    tag_387:\n      sub(shl(0xa0, 0x01), 0x01)\n        /* \"#utility.yul\":6014:6029   */\n      swap6\n      dup7\n      and\n        /* \"#utility.yul\":5996:6030   */\n      dup2\n      mstore\n        /* \"#utility.yul\":6066:6081   */\n      swap4\n      dup6\n      and\n        /* \"#utility.yul\":6061:6063   */\n      0x20\n        /* \"#utility.yul\":6046:6064   */\n      dup6\n      add\n        /* \"#utility.yul\":6039:6082   */\n      mstore\n        /* \"#utility.yul\":6118:6133   */\n      swap4\n      swap1\n      swap2\n      and\n        /* \"#utility.yul\":6113:6115   */\n      0x40\n        /* \"#utility.yul\":6098:6116   */\n      dup4\n      add\n        /* \"#utility.yul\":6091:6134   */\n      mstore\n        /* \"#utility.yul\":6165:6167   */\n      0x60\n        /* \"#utility.yul\":6150:6168   */\n      dup3\n      add\n        /* \"#utility.yul\":6143:6177   */\n      mstore\n        /* \"#utility.yul\":6208:6211   */\n      0x80\n        /* \"#utility.yul\":6193:6212   */\n      dup2\n      add\n        /* \"#utility.yul\":6186:6221   */\n      swap2\n      swap1\n      swap2\n      mstore\n        /* \"#utility.yul\":5945:5948   */\n      0xa0\n        /* \"#utility.yul\":5930:5949   */\n      add\n        /* \"contracts/Market.sol\":9019:9102  new BetPair(address(this), selectedBet.betAddress, _betAddress, _amountA, _amountB) */\n      mload(0x40)\n      dup1\n      swap2\n      sub\n      swap1\n      0x00\n      create\n      dup1\n      iszero\n      dup1\n      iszero\n      tag_389\n      jumpi\n      returndatasize\n      0x00\n      dup1\n      returndatacopy\n      revert(0x00, returndatasize)\n    tag_389:\n      pop\n        /* \"contracts/Market.sol\":9003:9102  BetPair _pair = new BetPair(address(this), selectedBet.betAddress, _betAddress, _amountA, _amountB) */\n      swap1\n      pop\n        /* \"contracts/Market.sol\":9131:9147  sideABetsPending */\n      0x0a\n        /* \"contracts/Market.sol\":9148:9161  selectedIndex */\n      dup10\n        /* \"contracts/Market.sol\":9131:9162  sideABetsPending[selectedIndex] */\n      dup2\n      sload\n      dup2\n      lt\n      tag_390\n      jumpi\n      mstore(0x00, shl(0xe0, 0x4e487b71))\n      mstore(0x04, 0x32)\n      revert(0x00, 0x24)\n    tag_390:\n      0x00\n      swap2\n      dup3\n      mstore\n      0x20\n      dup3\n      keccak256\n      0x03\n      swap2\n      swap1\n      swap2\n      mul\n      add\n        /* \"contracts/Market.sol\":9124:9162  delete sideABetsPending[selectedIndex] */\n      dup1\n      sload\n      not(sub(shl(0xa0, 0x01), 0x01))\n      and\n      dup2\n      sstore\n      0x01\n      dup2\n      add\n      swap2\n      swap1\n      swap2\n      sstore\n      0x02\n      add\n      dup1\n      sload\n      not(0xff)\n      and\n      swap1\n      sstore\n        /* \"contracts/Market.sol\":9237:9263  _betB.setMatched(_amountB) */\n      mload(0x40)\n      shl(0xe1, 0x2d267e03)\n      dup2\n      mstore\n      0x04\n      dup2\n      add\n        /* \"#utility.yul\":10443:10468   */\n      dup5\n      swap1\n      mstore\n        /* \"contracts/Market.sol\":9203:9214  _betAddress */\n      dup15\n      swap1\n      sub(shl(0xa0, 0x01), 0x01)\n        /* \"contracts/Market.sol\":9237:9253  _betB.setMatched */\n      dup3\n      and\n      swap1\n      0x5a4cfc06\n      swap1\n        /* \"#utility.yul\":10416:10434   */\n      0x24\n      add\n        /* \"contracts/Market.sol\":9237:9263  _betB.setMatched(_amountB) */\n      0x20\n      mload(0x40)\n      dup1\n      dup4\n      sub\n      dup2\n      0x00\n      dup8\n      dup1\n      extcodesize\n      iszero\n      dup1\n      iszero\n      tag_393\n      jumpi\n      0x00\n      dup1\n      revert\n    tag_393:\n      pop\n      gas\n      call\n      iszero\n      dup1\n      iszero\n      tag_395\n      jumpi\n      returndatasize\n      0x00\n      dup1\n      returndatacopy\n      revert(0x00, returndatasize)\n    tag_395:\n      pop\n      pop\n      pop\n      pop\n      mload(0x40)\n      returndatasize\n      not(0x1f)\n      0x1f\n      dup3\n      add\n      and\n      dup3\n      add\n      dup1\n      0x40\n      mstore\n      pop\n      dup2\n      add\n      swap1\n      tag_396\n      swap2\n      swap1\n      tag_136\n      jump\t// in\n    tag_396:\n      pop\n        /* \"contracts/Market.sol\":9285:9314  _betB.addPair(address(_pair)) */\n      mload(0x40)\n      shl(0xe1, 0x615bdddb)\n      dup2\n      mstore\n      sub(shl(0xa0, 0x01), 0x01)\n        /* \"#utility.yul\":5655:5687   */\n      dup4\n      dup2\n      and\n        /* \"contracts/Market.sol\":9285:9314  _betB.addPair(address(_pair)) */\n      0x04\n      dup4\n      add\n        /* \"#utility.yul\":5637:5688   */\n      mstore\n        /* \"contracts/Market.sol\":9285:9298  _betB.addPair */\n      dup3\n      and\n      swap1\n      0xc2b7bbb6\n      swap1\n        /* \"#utility.yul\":5610:5628   */\n      0x24\n      add\n        /* \"contracts/Market.sol\":9285:9314  _betB.addPair(address(_pair)) */\n      0x20\n      mload(0x40)\n      dup1\n      dup4\n      sub\n      dup2\n      0x00\n      dup8\n      dup1\n      extcodesize\n      iszero\n      dup1\n      iszero\n      tag_398\n      jumpi\n      0x00\n      dup1\n      revert\n    tag_398:\n      pop\n      gas\n      call\n      iszero\n      dup1\n      iszero\n      tag_400\n      jumpi\n      returndatasize\n      0x00\n      dup1\n      returndatacopy\n      revert(0x00, returndatasize)\n    tag_400:\n      pop\n      pop\n      pop\n      pop\n      mload(0x40)\n      returndatasize\n      not(0x1f)\n      0x1f\n      dup3\n      add\n      and\n      dup3\n      add\n      dup1\n      0x40\n      mstore\n      pop\n      dup2\n      add\n      swap1\n      tag_401\n      swap2\n      swap1\n      tag_136\n      jump\t// in\n    tag_401:\n      pop\n        /* \"contracts/Market.sol\":9355:9377  selectedBet.betAddress */\n      dup8\n      mload\n        /* \"contracts/Market.sol\":9400:9426  _betA.setMatched(_amountA) */\n      mload(0x40)\n      shl(0xe1, 0x2d267e03)\n      dup2\n      mstore\n      0x04\n      dup2\n      add\n        /* \"#utility.yul\":10443:10468   */\n      dup6\n      swap1\n      mstore\n      sub(shl(0xa0, 0x01), 0x01)\n        /* \"contracts/Market.sol\":9400:9416  _betA.setMatched */\n      dup3\n      and\n      swap1\n      0x5a4cfc06\n      swap1\n        /* \"#utility.yul\":10416:10434   */\n      0x24\n      add\n        /* \"contracts/Market.sol\":9400:9426  _betA.setMatched(_amountA) */\n      0x20\n      mload(0x40)\n      dup1\n      dup4\n      sub\n      dup2\n      0x00\n      dup8\n      dup1\n      extcodesize\n      iszero\n      dup1\n      iszero\n      tag_403\n      jumpi\n      0x00\n      dup1\n      revert\n    tag_403:\n      pop\n      gas\n      call\n      iszero\n      dup1\n      iszero\n      tag_405\n      jumpi\n      returndatasize\n      0x00\n      dup1\n      returndatacopy\n      revert(0x00, returndatasize)\n    tag_405:\n      pop\n      pop\n      pop\n      pop\n      mload(0x40)\n      returndatasize\n      not(0x1f)\n      0x1f\n      dup3\n      add\n      and\n      dup3\n      add\n      dup1\n      0x40\n      mstore\n      pop\n      dup2\n      add\n      swap1\n      tag_406\n      swap2\n      swap1\n      tag_136\n      jump\t// in\n    tag_406:\n      pop\n        /* \"contracts/Market.sol\":9448:9477  _betA.addPair(address(_pair)) */\n      mload(0x40)\n      shl(0xe1, 0x615bdddb)\n      dup2\n      mstore\n      sub(shl(0xa0, 0x01), 0x01)\n        /* \"#utility.yul\":5655:5687   */\n      dup5\n      dup2\n      and\n        /* \"contracts/Market.sol\":9448:9477  _betA.addPair(address(_pair)) */\n      0x04\n      dup4\n      add\n        /* \"#utility.yul\":5637:5688   */\n      mstore\n        /* \"contracts/Market.sol\":9448:9461  _betA.addPair */\n      dup3\n      and\n      swap1\n      0xc2b7bbb6\n      swap1\n        /* \"#utility.yul\":5610:5628   */\n      0x24\n      add\n        /* \"contracts/Market.sol\":9448:9477  _betA.addPair(address(_pair)) */\n      0x20\n      mload(0x40)\n      dup1\n      dup4\n      sub\n      dup2\n      0x00\n      dup8\n      dup1\n      extcodesize\n      iszero\n      dup1\n      iszero\n      tag_408\n      jumpi\n      0x00\n      dup1\n      revert\n    tag_408:\n      pop\n      gas\n      call\n      iszero\n      dup1\n      iszero\n      tag_410\n      jumpi\n      returndatasize\n      0x00\n      dup1\n      returndatacopy\n      revert(0x00, returndatasize)\n    tag_410:\n      pop\n      pop\n      pop\n      pop\n      mload(0x40)\n      returndatasize\n      not(0x1f)\n      0x1f\n      dup3\n      add\n      and\n      dup3\n      add\n      dup1\n      0x40\n      mstore\n      pop\n      dup2\n      add\n      swap1\n      tag_411\n      swap2\n      swap1\n      tag_136\n      jump\t// in\n    tag_411:\n      pop\n        /* \"contracts/Market.sol\":9500:9521  _remStake -= _amountA */\n      tag_412\n        /* \"contracts/Market.sol\":9513:9521  _amountA */\n      dup5\n        /* \"contracts/Market.sol\":9500:9521  _remStake -= _amountA */\n      dup14\n      tag_121\n      jump\t// in\n    tag_412:\n      swap12\n      pop\n        /* \"contracts/Market.sol\":8318:9717  if(maxOdds > _odds) {... */\n      pop\n      pop\n      pop\n      pop\n      pop\n      pop\n      pop\n      pop\n      pop\n      jump(tag_413)\n    tag_373:\n      pop\n      pop\n        /* \"contracts/Market.sol\":9606:9670  MarketBet({betAddress: _betAddress, stake: _stake, odds: _odds}) */\n      0x40\n      dup1\n      mload\n      0x60\n      dup2\n      add\n      dup3\n      mstore\n      sub(shl(0xa0, 0x01), 0x01)\n      dup8\n      dup2\n      and\n      dup3\n      mstore\n      0x20\n      dup3\n      add\n      dup8\n      dup2\n      mstore\n      0xff\n      dup8\n      dup2\n      and\n      swap5\n      dup5\n      add\n      swap5\n      dup6\n      mstore\n        /* \"contracts/Market.sol\":9584:9600  sideBBetsPending */\n      0x0c\n        /* \"contracts/Market.sol\":9584:9671  sideBBetsPending.push(MarketBet({betAddress: _betAddress, stake: _stake, odds: _odds})) */\n      dup1\n      sload\n      0x01\n      dup2\n      add\n      dup3\n      sstore\n      0x00\n      swap2\n      swap1\n      swap2\n      mstore\n      swap4\n      mload\n      0xdf6966c971051c3d54ec59162606531493a51404a002842f56009d7e5cf4a8c7\n      0x03\n      swap1\n      swap6\n      mul\n      swap5\n      dup6\n      add\n      dup1\n      sload\n      not(sub(shl(0xa0, 0x01), 0x01))\n      and\n      swap2\n      swap1\n      swap5\n      and\n      or\n      swap1\n      swap3\n      sstore\n      mload\n      0xdf6966c971051c3d54ec59162606531493a51404a002842f56009d7e5cf4a8c8\n      dup4\n      add\n      sstore\n      swap2\n      mload\n      0xdf6966c971051c3d54ec59162606531493a51404a002842f56009d7e5cf4a8c9\n      swap1\n      swap2\n      add\n      dup1\n      sload\n      not(0xff)\n      and\n      swap2\n      swap1\n      swap3\n      and\n      or\n      swap1\n      sstore\n        /* \"contracts/Market.sol\":9693:9698  break */\n      jump(tag_302)\n        /* \"contracts/Market.sol\":8318:9717  if(maxOdds > _odds) {... */\n    tag_413:\n        /* \"contracts/Market.sol\":7908:9731  while(_remStake >= 1 * 10 ** 18){... */\n      pop\n      pop\n      jump(tag_364)\n        /* \"contracts/Market.sol\":7841:9867  if(betCount > 0){... */\n    tag_363:\n      pop\n        /* \"contracts/Market.sol\":9791:9855  MarketBet({betAddress: _betAddress, stake: _stake, odds: _odds}) */\n      0x40\n      dup1\n      mload\n      0x60\n      dup2\n      add\n      dup3\n      mstore\n      sub(shl(0xa0, 0x01), 0x01)\n      swap5\n      dup6\n      and\n      dup2\n      mstore\n      0x20\n      dup2\n      add\n      swap4\n      dup5\n      mstore\n      0xff\n      swap3\n      dup4\n      and\n      swap2\n      dup2\n      add\n      swap2\n      dup3\n      mstore\n        /* \"contracts/Market.sol\":9769:9785  sideBBetsPending */\n      0x0c\n        /* \"contracts/Market.sol\":9769:9856  sideBBetsPending.push(MarketBet({betAddress: _betAddress, stake: _stake, odds: _odds})) */\n      dup1\n      sload\n      0x01\n      dup2\n      add\n      dup3\n      sstore\n      0x00\n      swap2\n      swap1\n      swap2\n      mstore\n      swap1\n      mload\n      0xdf6966c971051c3d54ec59162606531493a51404a002842f56009d7e5cf4a8c7\n      0x03\n      swap1\n      swap3\n      mul\n      swap2\n      dup3\n      add\n      dup1\n      sload\n      not(sub(shl(0xa0, 0x01), 0x01))\n      and\n      swap2\n      swap1\n      swap7\n      and\n      or\n      swap1\n      swap5\n      sstore\n      swap2\n      mload\n      0xdf6966c971051c3d54ec59162606531493a51404a002842f56009d7e5cf4a8c8\n      dup5\n      add\n      sstore\n      swap1\n      mload\n      0xdf6966c971051c3d54ec59162606531493a51404a002842f56009d7e5cf4a8c9\n      swap1\n      swap3\n      add\n      dup1\n      sload\n      not(0xff)\n      and\n      swap3\n      swap1\n      swap2\n      and\n      swap2\n      swap1\n      swap2\n      or\n      swap1\n      sstore\n        /* \"contracts/Market.sol\":7687:9889  function _matchSideBBet(address _betAddress, uint256 _stake, uint8 _odds)... */\n      jump\t// out\n        /* \"@openzeppelin/contracts/token/ERC20/utils/SafeERC20.sol\":3747:4453  function _callOptionalReturn(IERC20 token, bytes memory data) private {... */\n    tag_294:\n        /* \"@openzeppelin/contracts/token/ERC20/utils/SafeERC20.sol\":4166:4189  bytes memory returndata */\n      0x00\n        /* \"@openzeppelin/contracts/token/ERC20/utils/SafeERC20.sol\":4192:4261  address(token).functionCall(data, \"SafeERC20: low-level call failed\") */\n      tag_418\n        /* \"@openzeppelin/contracts/token/ERC20/utils/SafeERC20.sol\":4220:4224  data */\n      dup3\n        /* \"@openzeppelin/contracts/token/ERC20/utils/SafeERC20.sol\":4192:4261  address(token).functionCall(data, \"SafeERC20: low-level call failed\") */\n      mload(0x40)\n      dup1\n      0x40\n      add\n      0x40\n      mstore\n      dup1\n      0x20\n      dup2\n      mstore\n      0x20\n      add\n      0x5361666545524332303a206c6f772d6c6576656c2063616c6c206661696c6564\n      dup2\n      mstore\n      pop\n        /* \"@openzeppelin/contracts/token/ERC20/utils/SafeERC20.sol\":4200:4205  token */\n      dup6\n      sub(shl(0xa0, 0x01), 0x01)\n        /* \"@openzeppelin/contracts/token/ERC20/utils/SafeERC20.sol\":4192:4219  address(token).functionCall */\n      and\n      tag_419\n      swap1\n        /* \"@openzeppelin/contracts/token/ERC20/utils/SafeERC20.sol\":4192:4261  address(token).functionCall(data, \"SafeERC20: low-level call failed\") */\n      swap3\n      swap2\n      swap1\n      0xffffffff\n      and\n      jump\t// in\n    tag_418:\n        /* \"@openzeppelin/contracts/token/ERC20/utils/SafeERC20.sol\":4275:4292  returndata.length */\n      dup1\n      mload\n        /* \"@openzeppelin/contracts/token/ERC20/utils/SafeERC20.sol\":4166:4261  bytes memory returndata = address(token).functionCall(data, \"SafeERC20: low-level call failed\") */\n      swap1\n      swap2\n      pop\n        /* \"@openzeppelin/contracts/token/ERC20/utils/SafeERC20.sol\":4275:4296  returndata.length > 0 */\n      iszero\n        /* \"@openzeppelin/contracts/token/ERC20/utils/SafeERC20.sol\":4271:4447  if (returndata.length > 0) {... */\n      tag_291\n      jumpi\n        /* \"@openzeppelin/contracts/token/ERC20/utils/SafeERC20.sol\":4370:4380  returndata */\n      dup1\n        /* \"@openzeppelin/contracts/token/ERC20/utils/SafeERC20.sol\":4359:4389  abi.decode(returndata, (bool)) */\n      dup1\n      0x20\n      add\n      swap1\n      mload\n      dup2\n      add\n      swap1\n      tag_421\n      swap2\n      swap1\n      tag_136\n      jump\t// in\n    tag_421:\n        /* \"@openzeppelin/contracts/token/ERC20/utils/SafeERC20.sol\":4351:4436  require(abi.decode(returndata, (bool)), \"SafeERC20: ERC20 operation did not succeed\") */\n      tag_291\n      jumpi\n      mload(0x40)\n      shl(0xe5, 0x461bcd)\n      dup2\n      mstore\n        /* \"#utility.yul\":10088:10090   */\n      0x20\n        /* \"@openzeppelin/contracts/token/ERC20/utils/SafeERC20.sol\":4351:4436  require(abi.decode(returndata, (bool)), \"SafeERC20: ERC20 operation did not succeed\") */\n      0x04\n      dup3\n      add\n        /* \"#utility.yul\":10070:10091   */\n      mstore\n        /* \"#utility.yul\":10127:10129   */\n      0x2a\n        /* \"#utility.yul\":10107:10125   */\n      0x24\n      dup3\n      add\n        /* \"#utility.yul\":10100:10130   */\n      mstore\n        /* \"#utility.yul\":10166:10200   */\n      0x5361666545524332303a204552433230206f7065726174696f6e20646964206e\n        /* \"#utility.yul\":10146:10164   */\n      0x44\n      dup3\n      add\n        /* \"#utility.yul\":10139:10201   */\n      mstore\n      shl(0xb2, 0x1bdd081cdd58d8d95959)\n        /* \"#utility.yul\":10217:10235   */\n      0x64\n      dup3\n      add\n        /* \"#utility.yul\":10210:10250   */\n      mstore\n        /* \"#utility.yul\":10267:10286   */\n      0x84\n      add\n        /* \"@openzeppelin/contracts/token/ERC20/utils/SafeERC20.sol\":4351:4436  require(abi.decode(returndata, (bool)), \"SafeERC20: ERC20 operation did not succeed\") */\n      tag_108\n        /* \"#utility.yul\":10060:10292   */\n      jump\n        /* \"@openzeppelin/contracts/utils/Address.sol\":3861:4084  function functionCall(... */\n    tag_419:\n        /* \"@openzeppelin/contracts/utils/Address.sol\":3994:4006  bytes memory */\n      0x60\n        /* \"@openzeppelin/contracts/utils/Address.sol\":4025:4077  functionCallWithValue(target, data, 0, errorMessage) */\n      tag_426\n        /* \"@openzeppelin/contracts/utils/Address.sol\":4047:4053  target */\n      dup5\n        /* \"@openzeppelin/contracts/utils/Address.sol\":4055:4059  data */\n      dup5\n        /* \"@openzeppelin/contracts/utils/Address.sol\":4061:4062  0 */\n      0x00\n        /* \"@openzeppelin/contracts/utils/Address.sol\":4064:4076  errorMessage */\n      dup6\n        /* \"@openzeppelin/contracts/utils/Address.sol\":4025:4046  functionCallWithValue */\n      tag_427\n        /* \"@openzeppelin/contracts/utils/Address.sol\":4025:4077  functionCallWithValue(target, data, 0, errorMessage) */\n      jump\t// in\n    tag_426:\n        /* \"@openzeppelin/contracts/utils/Address.sol\":4018:4077  return functionCallWithValue(target, data, 0, errorMessage) */\n      swap5\n        /* \"@openzeppelin/contracts/utils/Address.sol\":3861:4084  function functionCall(... */\n      swap4\n      pop\n      pop\n      pop\n      pop\n      jump\t// out\n        /* \"@openzeppelin/contracts/utils/Address.sol\":4948:5447  function functionCallWithValue(... */\n    tag_427:\n        /* \"@openzeppelin/contracts/utils/Address.sol\":5113:5125  bytes memory */\n      0x60\n        /* \"@openzeppelin/contracts/utils/Address.sol\":5170:5175  value */\n      dup3\n        /* \"@openzeppelin/contracts/utils/Address.sol\":5145:5166  address(this).balance */\n      selfbalance\n        /* \"@openzeppelin/contracts/utils/Address.sol\":5145:5175  address(this).balance >= value */\n      lt\n      iszero\n        /* \"@openzeppelin/contracts/utils/Address.sol\":5137:5218  require(address(this).balance >= value, \"Address: insufficient balance for call\") */\n      tag_429\n      jumpi\n      mload(0x40)\n      shl(0xe5, 0x461bcd)\n      dup2\n      mstore\n        /* \"#utility.yul\":8318:8320   */\n      0x20\n        /* \"@openzeppelin/contracts/utils/Address.sol\":5137:5218  require(address(this).balance >= value, \"Address: insufficient balance for call\") */\n      0x04\n      dup3\n      add\n        /* \"#utility.yul\":8300:8321   */\n      mstore\n        /* \"#utility.yul\":8357:8359   */\n      0x26\n        /* \"#utility.yul\":8337:8355   */\n      0x24\n      dup3\n      add\n        /* \"#utility.yul\":8330:8360   */\n      mstore\n        /* \"#utility.yul\":8396:8430   */\n      0x416464726573733a20696e73756666696369656e742062616c616e636520666f\n        /* \"#utility.yul\":8376:8394   */\n      0x44\n      dup3\n      add\n        /* \"#utility.yul\":8369:8431   */\n      mstore\n      shl(0xd2, 0x1c8818d85b1b)\n        /* \"#utility.yul\":8447:8465   */\n      0x64\n      dup3\n      add\n        /* \"#utility.yul\":8440:8476   */\n      mstore\n        /* \"#utility.yul\":8493:8512   */\n      0x84\n      add\n        /* \"@openzeppelin/contracts/utils/Address.sol\":5137:5218  require(address(this).balance >= value, \"Address: insufficient balance for call\") */\n      tag_108\n        /* \"#utility.yul\":8290:8518   */\n      jump\n        /* \"@openzeppelin/contracts/utils/Address.sol\":5137:5218  require(address(this).balance >= value, \"Address: insufficient balance for call\") */\n    tag_429:\n      sub(shl(0xa0, 0x01), 0x01)\n        /* \"@openzeppelin/contracts/utils/Address.sol\":1465:1484  account.code.length */\n      dup6\n      and\n      extcodesize\n        /* \"@openzeppelin/contracts/utils/Address.sol\":5228:5288  require(isContract(target), \"Address: call to non-contract\") */\n      tag_434\n      jumpi\n      mload(0x40)\n      shl(0xe5, 0x461bcd)\n      dup2\n      mstore\n        /* \"#utility.yul\":9393:9395   */\n      0x20\n        /* \"@openzeppelin/contracts/utils/Address.sol\":5228:5288  require(isContract(target), \"Address: call to non-contract\") */\n      0x04\n      dup3\n      add\n        /* \"#utility.yul\":9375:9396   */\n      mstore\n        /* \"#utility.yul\":9432:9434   */\n      0x1d\n        /* \"#utility.yul\":9412:9430   */\n      0x24\n      dup3\n      add\n        /* \"#utility.yul\":9405:9435   */\n      mstore\n        /* \"#utility.yul\":9471:9502   */\n      0x416464726573733a2063616c6c20746f206e6f6e2d636f6e7472616374000000\n        /* \"#utility.yul\":9451:9469   */\n      0x44\n      dup3\n      add\n        /* \"#utility.yul\":9444:9503   */\n      mstore\n        /* \"#utility.yul\":9520:9538   */\n      0x64\n      add\n        /* \"@openzeppelin/contracts/utils/Address.sol\":5228:5288  require(isContract(target), \"Address: call to non-contract\") */\n      tag_108\n        /* \"#utility.yul\":9365:9544   */\n      jump\n        /* \"@openzeppelin/contracts/utils/Address.sol\":5228:5288  require(isContract(target), \"Address: call to non-contract\") */\n    tag_434:\n        /* \"@openzeppelin/contracts/utils/Address.sol\":5300:5312  bool success */\n      0x00\n        /* \"@openzeppelin/contracts/utils/Address.sol\":5314:5337  bytes memory returndata */\n      dup1\n        /* \"@openzeppelin/contracts/utils/Address.sol\":5341:5347  target */\n      dup7\n      sub(shl(0xa0, 0x01), 0x01)\n        /* \"@openzeppelin/contracts/utils/Address.sol\":5341:5352  target.call */\n      and\n        /* \"@openzeppelin/contracts/utils/Address.sol\":5360:5365  value */\n      dup6\n        /* \"@openzeppelin/contracts/utils/Address.sol\":5367:5371  data */\n      dup8\n        /* \"@openzeppelin/contracts/utils/Address.sol\":5341:5372  target.call{value: value}(data) */\n      mload(0x40)\n      tag_437\n      swap2\n      swap1\n      tag_438\n      jump\t// in\n    tag_437:\n      0x00\n      mload(0x40)\n      dup1\n      dup4\n      sub\n      dup2\n      dup6\n      dup8\n      gas\n      call\n      swap3\n      pop\n      pop\n      pop\n      returndatasize\n      dup1\n      0x00\n      dup2\n      eq\n      tag_441\n      jumpi\n      mload(0x40)\n      swap2\n      pop\n      and(add(returndatasize, 0x3f), not(0x1f))\n      dup3\n      add\n      0x40\n      mstore\n      returndatasize\n      dup3\n      mstore\n      returndatasize\n      0x00\n      0x20\n      dup5\n      add\n      returndatacopy\n      jump(tag_440)\n    tag_441:\n      0x60\n      swap2\n      pop\n    tag_440:\n      pop\n        /* \"@openzeppelin/contracts/utils/Address.sol\":5299:5372  (bool success, bytes memory returndata) = target.call{value: value}(data) */\n      swap2\n      pop\n      swap2\n      pop\n        /* \"@openzeppelin/contracts/utils/Address.sol\":5389:5440  verifyCallResult(success, returndata, errorMessage) */\n      tag_442\n        /* \"@openzeppelin/contracts/utils/Address.sol\":5406:5413  success */\n      dup3\n        /* \"@openzeppelin/contracts/utils/Address.sol\":5415:5425  returndata */\n      dup3\n        /* \"@openzeppelin/contracts/utils/Address.sol\":5427:5439  errorMessage */\n      dup7\n        /* \"@openzeppelin/contracts/utils/Address.sol\":5389:5405  verifyCallResult */\n      tag_443\n        /* \"@openzeppelin/contracts/utils/Address.sol\":5389:5440  verifyCallResult(success, returndata, errorMessage) */\n      jump\t// in\n    tag_442:\n        /* \"@openzeppelin/contracts/utils/Address.sol\":5382:5440  return verifyCallResult(success, returndata, errorMessage) */\n      swap8\n        /* \"@openzeppelin/contracts/utils/Address.sol\":4948:5447  function functionCallWithValue(... */\n      swap7\n      pop\n      pop\n      pop\n      pop\n      pop\n      pop\n      pop\n      jump\t// out\n        /* \"@openzeppelin/contracts/utils/Address.sol\":7561:8303  function verifyCallResult(... */\n    tag_443:\n        /* \"@openzeppelin/contracts/utils/Address.sol\":7707:7719  bytes memory */\n      0x60\n        /* \"@openzeppelin/contracts/utils/Address.sol\":7735:7742  success */\n      dup4\n        /* \"@openzeppelin/contracts/utils/Address.sol\":7731:8297  if (success) {... */\n      iszero\n      tag_446\n      jumpi\n      pop\n        /* \"@openzeppelin/contracts/utils/Address.sol\":7765:7775  returndata */\n      dup2\n        /* \"@openzeppelin/contracts/utils/Address.sol\":7758:7775  return returndata */\n      jump(tag_231)\n        /* \"@openzeppelin/contracts/utils/Address.sol\":7731:8297  if (success) {... */\n    tag_446:\n        /* \"@openzeppelin/contracts/utils/Address.sol\":7876:7893  returndata.length */\n      dup3\n      mload\n        /* \"@openzeppelin/contracts/utils/Address.sol\":7876:7897  returndata.length > 0 */\n      iszero\n        /* \"@openzeppelin/contracts/utils/Address.sol\":7872:8287  if (returndata.length > 0) {... */\n      tag_448\n      jumpi\n        /* \"@openzeppelin/contracts/utils/Address.sol\":8120:8130  returndata */\n      dup3\n        /* \"@openzeppelin/contracts/utils/Address.sol\":8114:8131  mload(returndata) */\n      mload\n        /* \"@openzeppelin/contracts/utils/Address.sol\":8180:8195  returndata_size */\n      dup1\n        /* \"@openzeppelin/contracts/utils/Address.sol\":8167:8177  returndata */\n      dup5\n        /* \"@openzeppelin/contracts/utils/Address.sol\":8163:8165  32 */\n      0x20\n        /* \"@openzeppelin/contracts/utils/Address.sol\":8159:8178  add(32, returndata) */\n      add\n        /* \"@openzeppelin/contracts/utils/Address.sol\":8152:8196  revert(add(32, returndata), returndata_size) */\n      revert\n        /* \"@openzeppelin/contracts/utils/Address.sol\":8069:8214  {... */\n    tag_448:\n        /* \"@openzeppelin/contracts/utils/Address.sol\":8259:8271  errorMessage */\n      dup2\n        /* \"@openzeppelin/contracts/utils/Address.sol\":8252:8272  revert(errorMessage) */\n      mload(0x40)\n      shl(0xe5, 0x461bcd)\n      dup2\n      mstore\n      0x04\n      add\n      tag_108\n      swap2\n      swap1\n      tag_34\n      jump\t// in\n    tag_233:\n      dup3\n      dup1\n      sload\n      tag_451\n      swap1\n      tag_138\n      jump\t// in\n    tag_451:\n      swap1\n      0x00\n      mstore\n      keccak256(0x00, 0x20)\n      swap1\n      0x1f\n      add\n      0x20\n      swap1\n      div\n      dup2\n      add\n      swap3\n      dup3\n      tag_453\n      jumpi\n      0x00\n      dup6\n      sstore\n      jump(tag_456)\n    tag_453:\n      dup3\n      0x1f\n      lt\n      tag_454\n      jumpi\n      dup1\n      mload\n      not(0xff)\n      and\n      dup4\n      dup1\n      add\n      or\n      dup6\n      sstore\n      jump(tag_456)\n    tag_454:\n      dup3\n      dup1\n      add\n      0x01\n      add\n      dup6\n      sstore\n      dup3\n      iszero\n      tag_456\n      jumpi\n      swap2\n      dup3\n      add\n    tag_455:\n      dup3\n      dup2\n      gt\n      iszero\n      tag_456\n      jumpi\n      dup3\n      mload\n      dup3\n      sstore\n      swap2\n      0x20\n      add\n      swap2\n      swap1\n      0x01\n      add\n      swap1\n      jump(tag_455)\n    tag_456:\n      pop\n      tag_457\n      swap3\n      swap2\n      pop\n      tag_458\n      jump\t// in\n    tag_457:\n      pop\n      swap1\n      jump\t// out\n    tag_327:\n      dataSize(sub_0)\n      dup1\n      dataOffset(sub_0)\n      dup4\n      codecopy\n      add\n      swap1\n      jump\t// out\n    tag_458:\n    tag_459:\n      dup1\n      dup3\n      gt\n      iszero\n      tag_457\n      jumpi\n      0x00\n      dup2\n      sstore\n      0x01\n      add\n      jump(tag_459)\n        /* \"#utility.yul\":14:498   */\n    tag_462:\n        /* \"#utility.yul\":57:62   */\n      0x00\n        /* \"#utility.yul\":110:113   */\n      dup3\n        /* \"#utility.yul\":103:107   */\n      0x1f\n        /* \"#utility.yul\":95:101   */\n      dup4\n        /* \"#utility.yul\":91:108   */\n      add\n        /* \"#utility.yul\":87:114   */\n      slt\n        /* \"#utility.yul\":77:79   */\n      tag_464\n      jumpi\n        /* \"#utility.yul\":132:137   */\n      dup1\n        /* \"#utility.yul\":125:130   */\n      dup2\n        /* \"#utility.yul\":118:138   */\n      revert\n        /* \"#utility.yul\":77:79   */\n    tag_464:\n        /* \"#utility.yul\":172:178   */\n      dup2\n        /* \"#utility.yul\":159:179   */\n      calldataload\n        /* \"#utility.yul\":203:252   */\n      tag_465\n        /* \"#utility.yul\":219:251   */\n      tag_466\n        /* \"#utility.yul\":248:250   */\n      dup3\n        /* \"#utility.yul\":219:251   */\n      tag_467\n      jump\t// in\n    tag_466:\n        /* \"#utility.yul\":203:252   */\n      tag_468\n      jump\t// in\n    tag_465:\n        /* \"#utility.yul\":277:279   */\n      dup2\n        /* \"#utility.yul\":268:275   */\n      dup2\n        /* \"#utility.yul\":261:280   */\n      mstore\n        /* \"#utility.yul\":323:326   */\n      dup5\n        /* \"#utility.yul\":316:320   */\n      0x20\n        /* \"#utility.yul\":311:313   */\n      dup4\n        /* \"#utility.yul\":303:309   */\n      dup7\n        /* \"#utility.yul\":299:314   */\n      add\n        /* \"#utility.yul\":295:321   */\n      add\n        /* \"#utility.yul\":292:327   */\n      gt\n        /* \"#utility.yul\":289:291   */\n      iszero\n      tag_469\n      jumpi\n        /* \"#utility.yul\":344:349   */\n      dup3\n        /* \"#utility.yul\":337:342   */\n      dup4\n        /* \"#utility.yul\":330:350   */\n      revert\n        /* \"#utility.yul\":289:291   */\n    tag_469:\n        /* \"#utility.yul\":413:415   */\n      dup2\n        /* \"#utility.yul\":406:410   */\n      0x20\n        /* \"#utility.yul\":398:404   */\n      dup6\n        /* \"#utility.yul\":394:411   */\n      add\n        /* \"#utility.yul\":387:391   */\n      0x20\n        /* \"#utility.yul\":378:385   */\n      dup4\n        /* \"#utility.yul\":374:392   */\n      add\n        /* \"#utility.yul\":361:416   */\n      calldatacopy\n        /* \"#utility.yul\":436:452   */\n      swap1\n      dup2\n      add\n        /* \"#utility.yul\":454:458   */\n      0x20\n        /* \"#utility.yul\":432:459   */\n      add\n        /* \"#utility.yul\":425:467   */\n      swap2\n      swap1\n      swap2\n      mstore\n        /* \"#utility.yul\":440:447   */\n      swap3\n        /* \"#utility.yul\":67:498   */\n      swap2\n      pop\n      pop\n      jump\t// out\n        /* \"#utility.yul\":503:760   */\n    tag_27:\n        /* \"#utility.yul\":562:568   */\n      0x00\n        /* \"#utility.yul\":615:617   */\n      0x20\n        /* \"#utility.yul\":603:612   */\n      dup3\n        /* \"#utility.yul\":594:601   */\n      dup5\n        /* \"#utility.yul\":590:613   */\n      sub\n        /* \"#utility.yul\":586:618   */\n      slt\n        /* \"#utility.yul\":583:585   */\n      iszero\n      tag_471\n      jumpi\n        /* \"#utility.yul\":636:642   */\n      dup1\n        /* \"#utility.yul\":628:634   */\n      dup2\n        /* \"#utility.yul\":621:643   */\n      revert\n        /* \"#utility.yul\":583:585   */\n    tag_471:\n        /* \"#utility.yul\":680:689   */\n      dup2\n        /* \"#utility.yul\":667:690   */\n      calldataload\n        /* \"#utility.yul\":699:730   */\n      tag_231\n        /* \"#utility.yul\":724:729   */\n      dup2\n        /* \"#utility.yul\":699:730   */\n      tag_473\n      jump\t// in\n        /* \"#utility.yul\":765:1026   */\n    tag_106:\n        /* \"#utility.yul\":835:841   */\n      0x00\n        /* \"#utility.yul\":888:890   */\n      0x20\n        /* \"#utility.yul\":876:885   */\n      dup3\n        /* \"#utility.yul\":867:874   */\n      dup5\n        /* \"#utility.yul\":863:886   */\n      sub\n        /* \"#utility.yul\":859:891   */\n      slt\n        /* \"#utility.yul\":856:858   */\n      iszero\n      tag_475\n      jumpi\n        /* \"#utility.yul\":909:915   */\n      dup1\n        /* \"#utility.yul\":901:907   */\n      dup2\n        /* \"#utility.yul\":894:916   */\n      revert\n        /* \"#utility.yul\":856:858   */\n    tag_475:\n        /* \"#utility.yul\":946:955   */\n      dup2\n        /* \"#utility.yul\":940:956   */\n      mload\n        /* \"#utility.yul\":965:996   */\n      tag_231\n        /* \"#utility.yul\":990:995   */\n      dup2\n        /* \"#utility.yul\":965:996   */\n      tag_473\n      jump\t// in\n        /* \"#utility.yul\":1031:1894   */\n    tag_73:\n        /* \"#utility.yul\":1134:1140   */\n      0x00\n        /* \"#utility.yul\":1142:1148   */\n      dup1\n        /* \"#utility.yul\":1150:1156   */\n      0x00\n        /* \"#utility.yul\":1158:1164   */\n      dup1\n        /* \"#utility.yul\":1166:1172   */\n      0x00\n        /* \"#utility.yul\":1219:1222   */\n      0xa0\n        /* \"#utility.yul\":1207:1216   */\n      dup7\n        /* \"#utility.yul\":1198:1205   */\n      dup9\n        /* \"#utility.yul\":1194:1217   */\n      sub\n        /* \"#utility.yul\":1190:1223   */\n      slt\n        /* \"#utility.yul\":1187:1189   */\n      iszero\n      tag_478\n      jumpi\n        /* \"#utility.yul\":1241:1247   */\n      dup1\n        /* \"#utility.yul\":1233:1239   */\n      dup2\n        /* \"#utility.yul\":1226:1248   */\n      revert\n        /* \"#utility.yul\":1187:1189   */\n    tag_478:\n        /* \"#utility.yul\":1285:1294   */\n      dup6\n        /* \"#utility.yul\":1272:1295   */\n      calldataload\n        /* \"#utility.yul\":1304:1335   */\n      tag_479\n        /* \"#utility.yul\":1329:1334   */\n      dup2\n        /* \"#utility.yul\":1304:1335   */\n      tag_473\n      jump\t// in\n    tag_479:\n        /* \"#utility.yul\":1354:1359   */\n      swap5\n      pop\n        /* \"#utility.yul\":1411:1413   */\n      0x20\n        /* \"#utility.yul\":1396:1414   */\n      dup7\n      add\n        /* \"#utility.yul\":1383:1415   */\n      calldataload\n        /* \"#utility.yul\":1424:1457   */\n      tag_480\n        /* \"#utility.yul\":1383:1415   */\n      dup2\n        /* \"#utility.yul\":1424:1457   */\n      tag_473\n      jump\t// in\n    tag_480:\n        /* \"#utility.yul\":1476:1483   */\n      swap4\n      pop\n        /* \"#utility.yul\":1530:1532   */\n      0x40\n        /* \"#utility.yul\":1515:1533   */\n      dup7\n      add\n        /* \"#utility.yul\":1502:1534   */\n      calldataload\n      swap3\n      pop\n        /* \"#utility.yul\":1586:1588   */\n      0x60\n        /* \"#utility.yul\":1571:1589   */\n      dup7\n      add\n        /* \"#utility.yul\":1558:1590   */\n      calldataload\n        /* \"#utility.yul\":1634:1638   */\n      0xff\n        /* \"#utility.yul\":1621:1639   */\n      dup2\n      and\n        /* \"#utility.yul\":1609:1640   */\n      dup2\n      eq\n        /* \"#utility.yul\":1599:1601   */\n      tag_481\n      jumpi\n        /* \"#utility.yul\":1659:1665   */\n      dup2\n        /* \"#utility.yul\":1651:1657   */\n      dup3\n        /* \"#utility.yul\":1644:1666   */\n      revert\n        /* \"#utility.yul\":1599:1601   */\n    tag_481:\n        /* \"#utility.yul\":1687:1694   */\n      swap2\n      pop\n        /* \"#utility.yul\":1745:1748   */\n      0x80\n        /* \"#utility.yul\":1730:1749   */\n      dup7\n      add\n        /* \"#utility.yul\":1717:1750   */\n      calldataload\n        /* \"#utility.yul\":1773:1791   */\n      0xffffffffffffffff\n        /* \"#utility.yul\":1762:1792   */\n      dup2\n      gt\n        /* \"#utility.yul\":1759:1761   */\n      iszero\n      tag_482\n      jumpi\n        /* \"#utility.yul\":1810:1816   */\n      dup2\n        /* \"#utility.yul\":1802:1808   */\n      dup3\n        /* \"#utility.yul\":1795:1817   */\n      revert\n        /* \"#utility.yul\":1759:1761   */\n    tag_482:\n        /* \"#utility.yul\":1838:1888   */\n      tag_483\n        /* \"#utility.yul\":1880:1887   */\n      dup9\n        /* \"#utility.yul\":1871:1877   */\n      dup3\n        /* \"#utility.yul\":1860:1869   */\n      dup10\n        /* \"#utility.yul\":1856:1878   */\n      add\n        /* \"#utility.yul\":1838:1888   */\n      tag_462\n      jump\t// in\n    tag_483:\n        /* \"#utility.yul\":1828:1888   */\n      swap2\n      pop\n      pop\n        /* \"#utility.yul\":1177:1894   */\n      swap3\n      swap6\n      pop\n      swap3\n      swap6\n      swap1\n      swap4\n      pop\n      jump\t// out\n        /* \"#utility.yul\":1899:2196   */\n    tag_136:\n        /* \"#utility.yul\":1966:1972   */\n      0x00\n        /* \"#utility.yul\":2019:2021   */\n      0x20\n        /* \"#utility.yul\":2007:2016   */\n      dup3\n        /* \"#utility.yul\":1998:2005   */\n      dup5\n        /* \"#utility.yul\":1994:2017   */\n      sub\n        /* \"#utility.yul\":1990:2022   */\n      slt\n        /* \"#utility.yul\":1987:1989   */\n      iszero\n      tag_485\n      jumpi\n        /* \"#utility.yul\":2040:2046   */\n      dup1\n        /* \"#utility.yul\":2032:2038   */\n      dup2\n        /* \"#utility.yul\":2025:2047   */\n      revert\n        /* \"#utility.yul\":1987:1989   */\n    tag_485:\n        /* \"#utility.yul\":2077:2086   */\n      dup2\n        /* \"#utility.yul\":2071:2087   */\n      mload\n        /* \"#utility.yul\":2130:2135   */\n      dup1\n        /* \"#utility.yul\":2123:2136   */\n      iszero\n        /* \"#utility.yul\":2116:2137   */\n      iszero\n        /* \"#utility.yul\":2109:2114   */\n      dup2\n        /* \"#utility.yul\":2106:2138   */\n      eq\n        /* \"#utility.yul\":2096:2098   */\n      tag_231\n      jumpi\n        /* \"#utility.yul\":2157:2163   */\n      dup2\n        /* \"#utility.yul\":2149:2155   */\n      dup3\n        /* \"#utility.yul\":2142:2164   */\n      revert\n        /* \"#utility.yul\":2201:2543   */\n    tag_81:\n        /* \"#utility.yul\":2270:2276   */\n      0x00\n        /* \"#utility.yul\":2323:2325   */\n      0x20\n        /* \"#utility.yul\":2311:2320   */\n      dup3\n        /* \"#utility.yul\":2302:2309   */\n      dup5\n        /* \"#utility.yul\":2298:2321   */\n      sub\n        /* \"#utility.yul\":2294:2326   */\n      slt\n        /* \"#utility.yul\":2291:2293   */\n      iszero\n      tag_488\n      jumpi\n        /* \"#utility.yul\":2344:2350   */\n      dup1\n        /* \"#utility.yul\":2336:2342   */\n      dup2\n        /* \"#utility.yul\":2329:2351   */\n      revert\n        /* \"#utility.yul\":2291:2293   */\n    tag_488:\n        /* \"#utility.yul\":2389:2398   */\n      dup2\n        /* \"#utility.yul\":2376:2399   */\n      calldataload\n        /* \"#utility.yul\":2422:2440   */\n      0xffffffffffffffff\n        /* \"#utility.yul\":2414:2420   */\n      dup2\n        /* \"#utility.yul\":2411:2441   */\n      gt\n        /* \"#utility.yul\":2408:2410   */\n      iszero\n      tag_489\n      jumpi\n        /* \"#utility.yul\":2459:2465   */\n      dup2\n        /* \"#utility.yul\":2451:2457   */\n      dup3\n        /* \"#utility.yul\":2444:2466   */\n      revert\n        /* \"#utility.yul\":2408:2410   */\n    tag_489:\n        /* \"#utility.yul\":2487:2537   */\n      tag_426\n        /* \"#utility.yul\":2529:2536   */\n      dup5\n        /* \"#utility.yul\":2520:2526   */\n      dup3\n        /* \"#utility.yul\":2509:2518   */\n      dup6\n        /* \"#utility.yul\":2505:2527   */\n      add\n        /* \"#utility.yul\":2487:2537   */\n      tag_462\n      jump\t// in\n        /* \"#utility.yul\":2548:3224   */\n    tag_184:\n        /* \"#utility.yul\":2628:2634   */\n      0x00\n        /* \"#utility.yul\":2681:2683   */\n      0x20\n        /* \"#utility.yul\":2669:2678   */\n      dup3\n        /* \"#utility.yul\":2660:2667   */\n      dup5\n        /* \"#utility.yul\":2656:2679   */\n      sub\n        /* \"#utility.yul\":2652:2684   */\n      slt\n        /* \"#utility.yul\":2649:2651   */\n      iszero\n      tag_492\n      jumpi\n        /* \"#utility.yul\":2702:2708   */\n      dup1\n        /* \"#utility.yul\":2694:2700   */\n      dup2\n        /* \"#utility.yul\":2687:2709   */\n      revert\n        /* \"#utility.yul\":2649:2651   */\n    tag_492:\n        /* \"#utility.yul\":2740:2749   */\n      dup2\n        /* \"#utility.yul\":2734:2750   */\n      mload\n        /* \"#utility.yul\":2773:2791   */\n      0xffffffffffffffff\n        /* \"#utility.yul\":2765:2771   */\n      dup2\n        /* \"#utility.yul\":2762:2792   */\n      gt\n        /* \"#utility.yul\":2759:2761   */\n      iszero\n      tag_493\n      jumpi\n        /* \"#utility.yul\":2810:2816   */\n      dup2\n        /* \"#utility.yul\":2802:2808   */\n      dup3\n        /* \"#utility.yul\":2795:2817   */\n      revert\n        /* \"#utility.yul\":2759:2761   */\n    tag_493:\n        /* \"#utility.yul\":2838:2860   */\n      dup3\n      add\n        /* \"#utility.yul\":2891:2895   */\n      0x1f\n        /* \"#utility.yul\":2883:2896   */\n      dup2\n      add\n        /* \"#utility.yul\":2879:2906   */\n      dup5\n      sgt\n        /* \"#utility.yul\":2869:2871   */\n      tag_494\n      jumpi\n        /* \"#utility.yul\":2925:2931   */\n      dup2\n        /* \"#utility.yul\":2917:2923   */\n      dup3\n        /* \"#utility.yul\":2910:2932   */\n      revert\n        /* \"#utility.yul\":2869:2871   */\n    tag_494:\n        /* \"#utility.yul\":2959:2961   */\n      dup1\n        /* \"#utility.yul\":2953:2962   */\n      mload\n        /* \"#utility.yul\":2984:3033   */\n      tag_495\n        /* \"#utility.yul\":3000:3032   */\n      tag_466\n        /* \"#utility.yul\":3029:3031   */\n      dup3\n        /* \"#utility.yul\":3000:3032   */\n      tag_467\n      jump\t// in\n        /* \"#utility.yul\":2984:3033   */\n    tag_495:\n        /* \"#utility.yul\":3056:3058   */\n      dup2\n        /* \"#utility.yul\":3049:3054   */\n      dup2\n        /* \"#utility.yul\":3042:3059   */\n      mstore\n        /* \"#utility.yul\":3096:3103   */\n      dup6\n        /* \"#utility.yul\":3091:3093   */\n      0x20\n        /* \"#utility.yul\":3086:3088   */\n      dup4\n        /* \"#utility.yul\":3082:3084   */\n      dup6\n        /* \"#utility.yul\":3078:3089   */\n      add\n        /* \"#utility.yul\":3074:3094   */\n      add\n        /* \"#utility.yul\":3071:3104   */\n      gt\n        /* \"#utility.yul\":3068:3070   */\n      iszero\n      tag_497\n      jumpi\n        /* \"#utility.yul\":3122:3128   */\n      dup4\n        /* \"#utility.yul\":3114:3120   */\n      dup5\n        /* \"#utility.yul\":3107:3129   */\n      revert\n        /* \"#utility.yul\":3068:3070   */\n    tag_497:\n        /* \"#utility.yul\":3140:3194   */\n      tag_498\n        /* \"#utility.yul\":3191:3193   */\n      dup3\n        /* \"#utility.yul\":3186:3188   */\n      0x20\n        /* \"#utility.yul\":3179:3184   */\n      dup4\n        /* \"#utility.yul\":3175:3189   */\n      add\n        /* \"#utility.yul\":3170:3172   */\n      0x20\n        /* \"#utility.yul\":3166:3168   */\n      dup7\n        /* \"#utility.yul\":3162:3173   */\n      add\n        /* \"#utility.yul\":3140:3194   */\n      tag_499\n      jump\t// in\n    tag_498:\n        /* \"#utility.yul\":3213:3218   */\n      swap6\n        /* \"#utility.yul\":2639:3224   */\n      swap5\n      pop\n      pop\n      pop\n      pop\n      pop\n      jump\t// out\n        /* \"#utility.yul\":3229:4012   */\n    tag_59:\n        /* \"#utility.yul\":3336:3342   */\n      0x00\n        /* \"#utility.yul\":3344:3350   */\n      dup1\n        /* \"#utility.yul\":3352:3358   */\n      0x00\n        /* \"#utility.yul\":3405:3407   */\n      0x60\n        /* \"#utility.yul\":3393:3402   */\n      dup5\n        /* \"#utility.yul\":3384:3391   */\n      dup7\n        /* \"#utility.yul\":3380:3403   */\n      sub\n        /* \"#utility.yul\":3376:3408   */\n      slt\n        /* \"#utility.yul\":3373:3375   */\n      iszero\n      tag_501\n      jumpi\n        /* \"#utility.yul\":3426:3432   */\n      dup3\n        /* \"#utility.yul\":3418:3424   */\n      dup4\n        /* \"#utility.yul\":3411:3433   */\n      revert\n        /* \"#utility.yul\":3373:3375   */\n    tag_501:\n        /* \"#utility.yul\":3471:3480   */\n      dup4\n        /* \"#utility.yul\":3458:3481   */\n      calldataload\n        /* \"#utility.yul\":3500:3518   */\n      0xffffffffffffffff\n        /* \"#utility.yul\":3541:3543   */\n      dup1\n        /* \"#utility.yul\":3533:3539   */\n      dup3\n        /* \"#utility.yul\":3530:3544   */\n      gt\n        /* \"#utility.yul\":3527:3529   */\n      iszero\n      tag_502\n      jumpi\n        /* \"#utility.yul\":3562:3568   */\n      dup5\n        /* \"#utility.yul\":3554:3560   */\n      dup6\n        /* \"#utility.yul\":3547:3569   */\n      revert\n        /* \"#utility.yul\":3527:3529   */\n    tag_502:\n        /* \"#utility.yul\":3590:3640   */\n      tag_503\n        /* \"#utility.yul\":3632:3639   */\n      dup8\n        /* \"#utility.yul\":3623:3629   */\n      dup4\n        /* \"#utility.yul\":3612:3621   */\n      dup9\n        /* \"#utility.yul\":3608:3630   */\n      add\n        /* \"#utility.yul\":3590:3640   */\n      tag_462\n      jump\t// in\n    tag_503:\n        /* \"#utility.yul\":3580:3640   */\n      swap5\n      pop\n        /* \"#utility.yul\":3693:3695   */\n      0x20\n        /* \"#utility.yul\":3682:3691   */\n      dup7\n        /* \"#utility.yul\":3678:3696   */\n      add\n        /* \"#utility.yul\":3665:3697   */\n      calldataload\n        /* \"#utility.yul\":3649:3697   */\n      swap2\n      pop\n        /* \"#utility.yul\":3722:3724   */\n      dup1\n        /* \"#utility.yul\":3712:3720   */\n      dup3\n        /* \"#utility.yul\":3709:3725   */\n      gt\n        /* \"#utility.yul\":3706:3708   */\n      iszero\n      tag_504\n      jumpi\n        /* \"#utility.yul\":3743:3749   */\n      dup4\n        /* \"#utility.yul\":3735:3741   */\n      dup5\n        /* \"#utility.yul\":3728:3750   */\n      revert\n        /* \"#utility.yul\":3706:3708   */\n    tag_504:\n        /* \"#utility.yul\":3771:3823   */\n      tag_505\n        /* \"#utility.yul\":3815:3822   */\n      dup8\n        /* \"#utility.yul\":3804:3812   */\n      dup4\n        /* \"#utility.yul\":3793:3802   */\n      dup9\n        /* \"#utility.yul\":3789:3813   */\n      add\n        /* \"#utility.yul\":3771:3823   */\n      tag_462\n      jump\t// in\n    tag_505:\n        /* \"#utility.yul\":3761:3823   */\n      swap4\n      pop\n        /* \"#utility.yul\":3876:3878   */\n      0x40\n        /* \"#utility.yul\":3865:3874   */\n      dup7\n        /* \"#utility.yul\":3861:3879   */\n      add\n        /* \"#utility.yul\":3848:3880   */\n      calldataload\n        /* \"#utility.yul\":3832:3880   */\n      swap2\n      pop\n        /* \"#utility.yul\":3905:3907   */\n      dup1\n        /* \"#utility.yul\":3895:3903   */\n      dup3\n        /* \"#utility.yul\":3892:3908   */\n      gt\n        /* \"#utility.yul\":3889:3891   */\n      iszero\n      tag_506\n      jumpi\n        /* \"#utility.yul\":3926:3932   */\n      dup3\n        /* \"#utility.yul\":3918:3924   */\n      dup4\n        /* \"#utility.yul\":3911:3933   */\n      revert\n        /* \"#utility.yul\":3889:3891   */\n    tag_506:\n      pop\n        /* \"#utility.yul\":3954:4006   */\n      tag_507\n        /* \"#utility.yul\":3998:4005   */\n      dup7\n        /* \"#utility.yul\":3987:3995   */\n      dup3\n        /* \"#utility.yul\":3976:3985   */\n      dup8\n        /* \"#utility.yul\":3972:3996   */\n      add\n        /* \"#utility.yul\":3954:4006   */\n      tag_462\n      jump\t// in\n    tag_507:\n        /* \"#utility.yul\":3944:4006   */\n      swap2\n      pop\n      pop\n        /* \"#utility.yul\":3363:4012   */\n      swap3\n      pop\n      swap3\n      pop\n      swap3\n      jump\t// out\n        /* \"#utility.yul\":4017:4207   */\n    tag_67:\n        /* \"#utility.yul\":4076:4082   */\n      0x00\n        /* \"#utility.yul\":4129:4131   */\n      0x20\n        /* \"#utility.yul\":4117:4126   */\n      dup3\n        /* \"#utility.yul\":4108:4115   */\n      dup5\n        /* \"#utility.yul\":4104:4127   */\n      sub\n        /* \"#utility.yul\":4100:4132   */\n      slt\n        /* \"#utility.yul\":4097:4099   */\n      iszero\n      tag_509\n      jumpi\n        /* \"#utility.yul\":4150:4156   */\n      dup1\n        /* \"#utility.yul\":4142:4148   */\n      dup2\n        /* \"#utility.yul\":4135:4157   */\n      revert\n        /* \"#utility.yul\":4097:4099   */\n    tag_509:\n      pop\n        /* \"#utility.yul\":4178:4201   */\n      calldataload\n      swap2\n        /* \"#utility.yul\":4087:4207   */\n      swap1\n      pop\n      jump\t// out\n        /* \"#utility.yul\":4212:4406   */\n    tag_115:\n        /* \"#utility.yul\":4282:4288   */\n      0x00\n        /* \"#utility.yul\":4335:4337   */\n      0x20\n        /* \"#utility.yul\":4323:4332   */\n      dup3\n        /* \"#utility.yul\":4314:4321   */\n      dup5\n        /* \"#utility.yul\":4310:4333   */\n      sub\n        /* \"#utility.yul\":4306:4338   */\n      slt\n        /* \"#utility.yul\":4303:4305   */\n      iszero\n      tag_511\n      jumpi\n        /* \"#utility.yul\":4356:4362   */\n      dup1\n        /* \"#utility.yul\":4348:4354   */\n      dup2\n        /* \"#utility.yul\":4341:4363   */\n      revert\n        /* \"#utility.yul\":4303:4305   */\n    tag_511:\n      pop\n        /* \"#utility.yul\":4384:4400   */\n      mload\n      swap2\n        /* \"#utility.yul\":4293:4406   */\n      swap1\n      pop\n      jump\t// out\n        /* \"#utility.yul\":4411:4685   */\n    tag_438:\n        /* \"#utility.yul\":4540:4543   */\n      0x00\n        /* \"#utility.yul\":4578:4584   */\n      dup3\n        /* \"#utility.yul\":4572:4585   */\n      mload\n        /* \"#utility.yul\":4594:4647   */\n      tag_513\n        /* \"#utility.yul\":4640:4646   */\n      dup2\n        /* \"#utility.yul\":4635:4638   */\n      dup5\n        /* \"#utility.yul\":4628:4632   */\n      0x20\n        /* \"#utility.yul\":4620:4626   */\n      dup8\n        /* \"#utility.yul\":4616:4633   */\n      add\n        /* \"#utility.yul\":4594:4647   */\n      tag_499\n      jump\t// in\n    tag_513:\n        /* \"#utility.yul\":4663:4679   */\n      swap2\n      swap1\n      swap2\n      add\n      swap3\n        /* \"#utility.yul\":4548:4685   */\n      swap2\n      pop\n      pop\n      jump\t// out\n        /* \"#utility.yul\":7060:7443   */\n    tag_34:\n        /* \"#utility.yul\":7209:7211   */\n      0x20\n        /* \"#utility.yul\":7198:7207   */\n      dup2\n        /* \"#utility.yul\":7191:7212   */\n      mstore\n        /* \"#utility.yul\":7172:7176   */\n      0x00\n        /* \"#utility.yul\":7241:7247   */\n      dup3\n        /* \"#utility.yul\":7235:7248   */\n      mload\n        /* \"#utility.yul\":7284:7290   */\n      dup1\n        /* \"#utility.yul\":7279:7281   */\n      0x20\n        /* \"#utility.yul\":7268:7277   */\n      dup5\n        /* \"#utility.yul\":7264:7282   */\n      add\n        /* \"#utility.yul\":7257:7291   */\n      mstore\n        /* \"#utility.yul\":7300:7366   */\n      tag_524\n        /* \"#utility.yul\":7359:7365   */\n      dup2\n        /* \"#utility.yul\":7354:7356   */\n      0x40\n        /* \"#utility.yul\":7343:7352   */\n      dup6\n        /* \"#utility.yul\":7339:7357   */\n      add\n        /* \"#utility.yul\":7334:7336   */\n      0x20\n        /* \"#utility.yul\":7326:7332   */\n      dup8\n        /* \"#utility.yul\":7322:7337   */\n      add\n        /* \"#utility.yul\":7300:7366   */\n      tag_499\n      jump\t// in\n    tag_524:\n        /* \"#utility.yul\":7427:7429   */\n      0x1f\n        /* \"#utility.yul\":7406:7421   */\n      add\n      not(0x1f)\n        /* \"#utility.yul\":7402:7431   */\n      and\n        /* \"#utility.yul\":7387:7432   */\n      swap2\n      swap1\n      swap2\n      add\n        /* \"#utility.yul\":7434:7436   */\n      0x40\n        /* \"#utility.yul\":7383:7437   */\n      add\n      swap3\n        /* \"#utility.yul\":7181:7443   */\n      swap2\n      pop\n      pop\n      jump\t// out\n        /* \"#utility.yul\":8856:9186   */\n    tag_109:\n        /* \"#utility.yul\":9058:9060   */\n      0x20\n        /* \"#utility.yul\":9040:9061   */\n      dup1\n      dup3\n      mstore\n        /* \"#utility.yul\":9097:9098   */\n      0x07\n        /* \"#utility.yul\":9077:9095   */\n      swap1\n      dup3\n      add\n        /* \"#utility.yul\":9070:9099   */\n      mstore\n      shl(0xc8, 0x6f776e6572206f)\n        /* \"#utility.yul\":9130:9132   */\n      0x40\n        /* \"#utility.yul\":9115:9133   */\n      dup3\n      add\n        /* \"#utility.yul\":9108:9145   */\n      mstore\n        /* \"#utility.yul\":9177:9179   */\n      0x60\n        /* \"#utility.yul\":9162:9180   */\n      add\n      swap1\n        /* \"#utility.yul\":9030:9186   */\n      jump\t// out\n        /* \"#utility.yul\":10479:10754   */\n    tag_468:\n        /* \"#utility.yul\":10550:10552   */\n      0x40\n        /* \"#utility.yul\":10544:10553   */\n      mload\n        /* \"#utility.yul\":10615:10617   */\n      0x1f\n        /* \"#utility.yul\":10596:10609   */\n      dup3\n      add\n      not(0x1f)\n        /* \"#utility.yul\":10592:10619   */\n      and\n        /* \"#utility.yul\":10580:10620   */\n      dup2\n      add\n        /* \"#utility.yul\":10650:10668   */\n      0xffffffffffffffff\n        /* \"#utility.yul\":10635:10669   */\n      dup2\n      gt\n        /* \"#utility.yul\":10671:10693   */\n      dup3\n      dup3\n      lt\n        /* \"#utility.yul\":10632:10694   */\n      or\n        /* \"#utility.yul\":10629:10631   */\n      iszero\n      tag_536\n      jumpi\n        /* \"#utility.yul\":10697:10715   */\n      tag_536\n      tag_537\n      jump\t// in\n    tag_536:\n        /* \"#utility.yul\":10733:10735   */\n      0x40\n        /* \"#utility.yul\":10726:10748   */\n      mstore\n        /* \"#utility.yul\":10524:10754   */\n      swap2\n      swap1\n      pop\n      jump\t// out\n        /* \"#utility.yul\":10759:10946   */\n    tag_467:\n        /* \"#utility.yul\":10808:10812   */\n      0x00\n        /* \"#utility.yul\":10841:10859   */\n      0xffffffffffffffff\n        /* \"#utility.yul\":10833:10839   */\n      dup3\n        /* \"#utility.yul\":10830:10860   */\n      gt\n        /* \"#utility.yul\":10827:10829   */\n      iszero\n      tag_540\n      jumpi\n        /* \"#utility.yul\":10863:10881   */\n      tag_540\n      tag_537\n      jump\t// in\n    tag_540:\n      pop\n        /* \"#utility.yul\":10929:10931   */\n      0x1f\n        /* \"#utility.yul\":10908:10923   */\n      add\n      not(0x1f)\n        /* \"#utility.yul\":10904:10933   */\n      and\n        /* \"#utility.yul\":10935:10939   */\n      0x20\n        /* \"#utility.yul\":10900:10940   */\n      add\n      swap1\n        /* \"#utility.yul\":10817:10946   */\n      jump\t// out\n        /* \"#utility.yul\":10951:11079   */\n    tag_194:\n        /* \"#utility.yul\":10991:10994   */\n      0x00\n        /* \"#utility.yul\":11022:11023   */\n      dup3\n        /* \"#utility.yul\":11018:11024   */\n      not\n        /* \"#utility.yul\":11015:11016   */\n      dup3\n        /* \"#utility.yul\":11012:11025   */\n      gt\n        /* \"#utility.yul\":11009:11011   */\n      iszero\n      tag_543\n      jumpi\n        /* \"#utility.yul\":11028:11046   */\n      tag_543\n      tag_544\n      jump\t// in\n    tag_543:\n      pop\n        /* \"#utility.yul\":11064:11073   */\n      add\n      swap1\n        /* \"#utility.yul\":10999:11079   */\n      jump\t// out\n        /* \"#utility.yul\":11084:11301   */\n    tag_192:\n        /* \"#utility.yul\":11124:11125   */\n      0x00\n        /* \"#utility.yul\":11150:11151   */\n      dup3\n        /* \"#utility.yul\":11140:11142   */\n      tag_546\n      jumpi\n      shl(0xe0, 0x4e487b71)\n        /* \"#utility.yul\":11175:11206   */\n      dup2\n      mstore\n        /* \"#utility.yul\":11229:11233   */\n      0x12\n        /* \"#utility.yul\":11226:11227   */\n      0x04\n        /* \"#utility.yul\":11219:11234   */\n      mstore\n        /* \"#utility.yul\":11257:11261   */\n      0x24\n        /* \"#utility.yul\":11182:11183   */\n      dup2\n        /* \"#utility.yul\":11247:11262   */\n      revert\n        /* \"#utility.yul\":11140:11142   */\n    tag_546:\n      pop\n        /* \"#utility.yul\":11286:11295   */\n      div\n      swap1\n        /* \"#utility.yul\":11130:11301   */\n      jump\t// out\n        /* \"#utility.yul\":11306:11474   */\n    tag_190:\n        /* \"#utility.yul\":11346:11353   */\n      0x00\n        /* \"#utility.yul\":11412:11413   */\n      dup2\n        /* \"#utility.yul\":11408:11409   */\n      0x00\n        /* \"#utility.yul\":11404:11410   */\n      not\n        /* \"#utility.yul\":11400:11414   */\n      div\n        /* \"#utility.yul\":11397:11398   */\n      dup4\n        /* \"#utility.yul\":11394:11415   */\n      gt\n        /* \"#utility.yul\":11389:11390   */\n      dup3\n        /* \"#utility.yul\":11382:11391   */\n      iszero\n        /* \"#utility.yul\":11375:11392   */\n      iszero\n        /* \"#utility.yul\":11371:11416   */\n      and\n        /* \"#utility.yul\":11368:11370   */\n      iszero\n      tag_549\n      jumpi\n        /* \"#utility.yul\":11419:11437   */\n      tag_549\n      tag_544\n      jump\t// in\n    tag_549:\n      pop\n        /* \"#utility.yul\":11459:11468   */\n      mul\n      swap1\n        /* \"#utility.yul\":11358:11474   */\n      jump\t// out\n        /* \"#utility.yul\":11479:11604   */\n    tag_121:\n        /* \"#utility.yul\":11519:11523   */\n      0x00\n        /* \"#utility.yul\":11547:11548   */\n      dup3\n        /* \"#utility.yul\":11544:11545   */\n      dup3\n        /* \"#utility.yul\":11541:11549   */\n      lt\n        /* \"#utility.yul\":11538:11540   */\n      iszero\n      tag_552\n      jumpi\n        /* \"#utility.yul\":11552:11570   */\n      tag_552\n      tag_544\n      jump\t// in\n    tag_552:\n      pop\n        /* \"#utility.yul\":11589:11598   */\n      sub\n      swap1\n        /* \"#utility.yul\":11528:11604   */\n      jump\t// out\n        /* \"#utility.yul\":11609:11804   */\n    tag_319:\n        /* \"#utility.yul\":11647:11651   */\n      0x00\n        /* \"#utility.yul\":11684:11688   */\n      0xff\n        /* \"#utility.yul\":11681:11682   */\n      dup3\n        /* \"#utility.yul\":11677:11689   */\n      and\n        /* \"#utility.yul\":11716:11720   */\n      0xff\n        /* \"#utility.yul\":11713:11714   */\n      dup5\n        /* \"#utility.yul\":11709:11721   */\n      and\n        /* \"#utility.yul\":11741:11744   */\n      dup1\n        /* \"#utility.yul\":11736:11739   */\n      dup3\n        /* \"#utility.yul\":11733:11745   */\n      lt\n        /* \"#utility.yul\":11730:11732   */\n      iszero\n      tag_555\n      jumpi\n        /* \"#utility.yul\":11748:11766   */\n      tag_555\n      tag_544\n      jump\t// in\n    tag_555:\n        /* \"#utility.yul\":11785:11798   */\n      swap1\n      sub\n      swap4\n        /* \"#utility.yul\":11656:11804   */\n      swap3\n      pop\n      pop\n      pop\n      jump\t// out\n        /* \"#utility.yul\":11809:12067   */\n    tag_499:\n        /* \"#utility.yul\":11881:11882   */\n      0x00\n        /* \"#utility.yul\":11891:12004   */\n    tag_557:\n        /* \"#utility.yul\":11905:11911   */\n      dup4\n        /* \"#utility.yul\":11902:11903   */\n      dup2\n        /* \"#utility.yul\":11899:11912   */\n      lt\n        /* \"#utility.yul\":11891:12004   */\n      iszero\n      tag_559\n      jumpi\n        /* \"#utility.yul\":11981:11992   */\n      dup2\n      dup2\n      add\n        /* \"#utility.yul\":11975:11993   */\n      mload\n        /* \"#utility.yul\":11962:11973   */\n      dup4\n      dup3\n      add\n        /* \"#utility.yul\":11955:11994   */\n      mstore\n        /* \"#utility.yul\":11927:11929   */\n      0x20\n        /* \"#utility.yul\":11920:11930   */\n      add\n        /* \"#utility.yul\":11891:12004   */\n      jump(tag_557)\n    tag_559:\n        /* \"#utility.yul\":12022:12028   */\n      dup4\n        /* \"#utility.yul\":12019:12020   */\n      dup2\n        /* \"#utility.yul\":12016:12029   */\n      gt\n        /* \"#utility.yul\":12013:12015   */\n      iszero\n      tag_295\n      jumpi\n      pop\n      pop\n        /* \"#utility.yul\":12057:12058   */\n      0x00\n        /* \"#utility.yul\":12039:12055   */\n      swap2\n      add\n        /* \"#utility.yul\":12032:12059   */\n      mstore\n        /* \"#utility.yul\":11862:12067   */\n      jump\t// out\n        /* \"#utility.yul\":12072:12452   */\n    tag_138:\n        /* \"#utility.yul\":12151:12152   */\n      0x01\n        /* \"#utility.yul\":12147:12159   */\n      dup2\n      dup2\n      shr\n      swap1\n        /* \"#utility.yul\":12194:12206   */\n      dup3\n      and\n      dup1\n        /* \"#utility.yul\":12215:12217   */\n      tag_562\n      jumpi\n        /* \"#utility.yul\":12269:12273   */\n      0x7f\n        /* \"#utility.yul\":12261:12267   */\n      dup3\n        /* \"#utility.yul\":12257:12274   */\n      and\n        /* \"#utility.yul\":12247:12274   */\n      swap2\n      pop\n        /* \"#utility.yul\":12215:12217   */\n    tag_562:\n        /* \"#utility.yul\":12322:12324   */\n      0x20\n        /* \"#utility.yul\":12314:12320   */\n      dup3\n        /* \"#utility.yul\":12311:12325   */\n      lt\n        /* \"#utility.yul\":12291:12309   */\n      dup2\n        /* \"#utility.yul\":12288:12326   */\n      eq\n        /* \"#utility.yul\":12285:12287   */\n      iszero\n      tag_563\n      jumpi\n        /* \"#utility.yul\":12368:12378   */\n      0x4e487b71\n        /* \"#utility.yul\":12363:12366   */\n      0xe0\n        /* \"#utility.yul\":12359:12379   */\n      shl\n        /* \"#utility.yul\":12356:12357   */\n      0x00\n        /* \"#utility.yul\":12349:12380   */\n      mstore\n        /* \"#utility.yul\":12403:12407   */\n      0x22\n        /* \"#utility.yul\":12400:12401   */\n      0x04\n        /* \"#utility.yul\":12393:12408   */\n      mstore\n        /* \"#utility.yul\":12431:12435   */\n      0x24\n        /* \"#utility.yul\":12428:12429   */\n      0x00\n        /* \"#utility.yul\":12421:12436   */\n      revert\n        /* \"#utility.yul\":12285:12287   */\n    tag_563:\n      pop\n        /* \"#utility.yul\":12127:12452   */\n      swap2\n      swap1\n      pop\n      jump\t// out\n        /* \"#utility.yul\":12457:12592   */\n    tag_310:\n        /* \"#utility.yul\":12496:12499   */\n      0x00\n      not(0x00)\n        /* \"#utility.yul\":12517:12534   */\n      dup3\n      eq\n        /* \"#utility.yul\":12514:12516   */\n      iszero\n      tag_566\n      jumpi\n        /* \"#utility.yul\":12537:12555   */\n      tag_566\n      tag_544\n      jump\t// in\n    tag_566:\n      pop\n        /* \"#utility.yul\":12584:12585   */\n      0x01\n        /* \"#utility.yul\":12573:12586   */\n      add\n      swap1\n        /* \"#utility.yul\":12504:12592   */\n      jump\t// out\n        /* \"#utility.yul\":12597:12724   */\n    tag_544:\n        /* \"#utility.yul\":12658:12668   */\n      0x4e487b71\n        /* \"#utility.yul\":12653:12656   */\n      0xe0\n        /* \"#utility.yul\":12649:12669   */\n      shl\n        /* \"#utility.yul\":12646:12647   */\n      0x00\n        /* \"#utility.yul\":12639:12670   */\n      mstore\n        /* \"#utility.yul\":12689:12693   */\n      0x11\n        /* \"#utility.yul\":12686:12687   */\n      0x04\n        /* \"#utility.yul\":12679:12694   */\n      mstore\n        /* \"#utility.yul\":12713:12717   */\n      0x24\n        /* \"#utility.yul\":12710:12711   */\n      0x00\n        /* \"#utility.yul\":12703:12718   */\n      revert\n        /* \"#utility.yul\":12729:12856   */\n    tag_537:\n        /* \"#utility.yul\":12790:12800   */\n      0x4e487b71\n        /* \"#utility.yul\":12785:12788   */\n      0xe0\n        /* \"#utility.yul\":12781:12801   */\n      shl\n        /* \"#utility.yul\":12778:12779   */\n      0x00\n        /* \"#utility.yul\":12771:12802   */\n      mstore\n        /* \"#utility.yul\":12821:12825   */\n      0x41\n        /* \"#utility.yul\":12818:12819   */\n      0x04\n        /* \"#utility.yul\":12811:12826   */\n      mstore\n        /* \"#utility.yul\":12845:12849   */\n      0x24\n        /* \"#utility.yul\":12842:12843   */\n      0x00\n        /* \"#utility.yul\":12835:12850   */\n      revert\n        /* \"#utility.yul\":12861:12992   */\n    tag_473:\n      sub(shl(0xa0, 0x01), 0x01)\n        /* \"#utility.yul\":12936:12967   */\n      dup2\n      and\n        /* \"#utility.yul\":12926:12968   */\n      dup2\n      eq\n        /* \"#utility.yul\":12916:12918   */\n      tag_570\n      jumpi\n        /* \"#utility.yul\":12982:12983   */\n      0x00\n        /* \"#utility.yul\":12979:12980   */\n      dup1\n        /* \"#utility.yul\":12972:12984   */\n      revert\n        /* \"#utility.yul\":12916:12918   */\n    tag_570:\n        /* \"#utility.yul\":12906:12992   */\n      pop\n      jump\t// out\n    stop\n\n    sub_0: assembly {\n            /* \"contracts/BetPair.sol\":163:883  contract BetPair is IBetPair {... */\n          mstore(0x40, 0x80)\n            /* \"contracts/BetPair.sol\":465:480  web3betsAddress */\n          sload(0x00)\n            /* \"contracts/BetPair.sol\":422:481  IWeb3BetsFO private web3bets = IWeb3BetsFO(web3betsAddress) */\n          0x06\n          dup1\n          sload\n          not(sub(shl(0xa0, 0x01), 0x01))\n          and\n          sub(shl(0xa0, 0x01), 0x01)\n            /* \"contracts/BetPair.sol\":465:480  web3betsAddress */\n          swap1\n          swap3\n          and\n            /* \"contracts/BetPair.sol\":422:481  IWeb3BetsFO private web3bets = IWeb3BetsFO(web3betsAddress) */\n          swap2\n          swap1\n          swap2\n          or\n          swap1\n          sstore\n            /* \"contracts/BetPair.sol\":488:876  constructor (... */\n          callvalue\n          dup1\n          iszero\n          tag_1\n          jumpi\n          0x00\n          dup1\n          revert\n        tag_1:\n          pop\n          mload(0x40)\n          sub(codesize, bytecodeSize)\n          dup1\n          bytecodeSize\n          dup4\n          codecopy\n          dup2\n          add\n          0x40\n          dup2\n          swap1\n          mstore\n          tag_2\n          swap2\n          tag_3\n          jump\t// in\n        tag_2:\n            /* \"contracts/BetPair.sol\":664:672  web3bets */\n          sload(0x06)\n            /* \"contracts/BetPair.sol\":664:688  web3bets.marketFactory() */\n          0x40\n          dup1\n          mload\n          shl(0xe0, 0x06ae7095)\n          dup2\n          mstore\n          swap1\n          mload\n          sub(shl(0xa0, 0x01), 0x01)\n            /* \"contracts/BetPair.sol\":664:672  web3bets */\n          swap1\n          swap3\n          and\n          swap2\n            /* \"contracts/BetPair.sol\":664:686  web3bets.marketFactory */\n          0x06ae7095\n          swap2\n            /* \"contracts/BetPair.sol\":664:688  web3bets.marketFactory() */\n          0x04\n          dup1\n          dup3\n          add\n          swap3\n          0x20\n          swap3\n          swap1\n          swap2\n          swap1\n          dup3\n          swap1\n          sub\n          add\n          dup2\n            /* \"contracts/BetPair.sol\":664:672  web3bets */\n          dup7\n            /* \"contracts/BetPair.sol\":664:688  web3bets.marketFactory() */\n          dup1\n          extcodesize\n          iszero\n          dup1\n          iszero\n          tag_6\n          jumpi\n          0x00\n          dup1\n          revert\n        tag_6:\n          pop\n          gas\n          staticcall\n          iszero\n          dup1\n          iszero\n          tag_8\n          jumpi\n          returndatasize\n          0x00\n          dup1\n          returndatacopy\n          revert(0x00, returndatasize)\n        tag_8:\n          pop\n          pop\n          pop\n          pop\n          mload(0x40)\n          returndatasize\n          not(0x1f)\n          0x1f\n          dup3\n          add\n          and\n          dup3\n          add\n          dup1\n          0x40\n          mstore\n          pop\n          dup2\n          add\n          swap1\n          tag_9\n          swap2\n          swap1\n          tag_10\n          jump\t// in\n        tag_9:\n          sub(shl(0xa0, 0x01), 0x01)\n            /* \"contracts/BetPair.sol\":650:688  msg.sender == web3bets.marketFactory() */\n          and\n            /* \"contracts/BetPair.sol\":650:660  msg.sender */\n          caller\n            /* \"contracts/BetPair.sol\":650:688  msg.sender == web3bets.marketFactory() */\n          eq\n            /* \"contracts/BetPair.sol\":642:727  require(msg.sender == web3bets.marketFactory(), \"only market factory can match bets\") */\n          tag_11\n          jumpi\n          0x40\n          dup1\n          mload\n          shl(0xe5, 0x461bcd)\n          dup2\n          mstore\n            /* \"#utility.yul\":1138:1140   */\n          0x20\n            /* \"contracts/BetPair.sol\":642:727  require(msg.sender == web3bets.marketFactory(), \"only market factory can match bets\") */\n          0x04\n          dup3\n          add\n            /* \"#utility.yul\":1120:1141   */\n          mstore\n            /* \"#utility.yul\":1177:1179   */\n          0x22\n            /* \"#utility.yul\":1157:1175   */\n          0x24\n          dup3\n          add\n            /* \"#utility.yul\":1150:1180   */\n          mstore\n            /* \"#utility.yul\":1216:1250   */\n          0x6f6e6c79206d61726b657420666163746f72792063616e206d61746368206265\n            /* \"#utility.yul\":1196:1214   */\n          0x44\n          dup3\n          add\n            /* \"#utility.yul\":1189:1251   */\n          mstore\n          shl(0xf0, 0x7473)\n            /* \"#utility.yul\":1267:1285   */\n          0x64\n          dup3\n          add\n            /* \"#utility.yul\":1260:1292   */\n          mstore\n            /* \"contracts/BetPair.sol\":642:727  require(msg.sender == web3bets.marketFactory(), \"only market factory can match bets\") */\n          swap1\n          mload\n          swap1\n          dup2\n          swap1\n          sub\n            /* \"#utility.yul\":1309:1328   */\n          0x84\n            /* \"contracts/BetPair.sol\":642:727  require(msg.sender == web3bets.marketFactory(), \"only market factory can match bets\") */\n          add\n          swap1\n          revert\n        tag_11:\n            /* \"contracts/BetPair.sol\":737:743  market */\n          0x01\n            /* \"contracts/BetPair.sol\":737:753  market = market_ */\n          dup1\n          sload\n          not(sub(shl(0xa0, 0x01), 0x01))\n          swap1\n          dup2\n          and\n          sub(shl(0xa0, 0x01), 0x01)\n          swap8\n          dup9\n          and\n          or\n          swap1\n          swap2\n          sstore\n            /* \"contracts/BetPair.sol\":763:771  sideABet */\n          0x02\n            /* \"contracts/BetPair.sol\":763:783  sideABet = sideABet_ */\n          dup1\n          sload\n          dup3\n          and\n          swap6\n          dup8\n          and\n          swap6\n          swap1\n          swap6\n          or\n          swap1\n          swap5\n          sstore\n            /* \"contracts/BetPair.sol\":793:801  sideBBet */\n          0x03\n            /* \"contracts/BetPair.sol\":793:813  sideBBet = sideBBet_ */\n          dup1\n          sload\n          swap1\n          swap5\n          and\n          swap3\n          swap1\n          swap5\n          and\n          swap2\n          swap1\n          swap2\n          or\n          swap1\n          swap2\n          sstore\n            /* \"contracts/BetPair.sol\":823:830  amountA */\n          0x04\n            /* \"contracts/BetPair.sol\":823:841  amountA = amountA_ */\n          sstore\n            /* \"contracts/BetPair.sol\":851:858  amountB */\n          0x05\n            /* \"contracts/BetPair.sol\":851:869  amountB = amountB_ */\n          sstore\n            /* \"contracts/BetPair.sol\":163:883  contract BetPair is IBetPair {... */\n          jump(tag_15)\n            /* \"#utility.yul\":14:191   */\n        tag_16:\n            /* \"#utility.yul\":93:106   */\n          dup1\n          mload\n          sub(shl(0xa0, 0x01), 0x01)\n            /* \"#utility.yul\":135:166   */\n          dup2\n          and\n            /* \"#utility.yul\":125:167   */\n          dup2\n          eq\n            /* \"#utility.yul\":115:117   */\n          tag_18\n          jumpi\n            /* \"#utility.yul\":181:182   */\n          0x00\n            /* \"#utility.yul\":178:179   */\n          dup1\n            /* \"#utility.yul\":171:183   */\n          revert\n            /* \"#utility.yul\":115:117   */\n        tag_18:\n            /* \"#utility.yul\":74:191   */\n          swap2\n          swap1\n          pop\n          jump\t// out\n            /* \"#utility.yul\":196:414   */\n        tag_10:\n            /* \"#utility.yul\":266:272   */\n          0x00\n            /* \"#utility.yul\":319:321   */\n          0x20\n            /* \"#utility.yul\":307:316   */\n          dup3\n            /* \"#utility.yul\":298:305   */\n          dup5\n            /* \"#utility.yul\":294:317   */\n          sub\n            /* \"#utility.yul\":290:322   */\n          slt\n            /* \"#utility.yul\":287:289   */\n          iszero\n          tag_20\n          jumpi\n            /* \"#utility.yul\":340:346   */\n          dup1\n            /* \"#utility.yul\":332:338   */\n          dup2\n            /* \"#utility.yul\":325:347   */\n          revert\n            /* \"#utility.yul\":287:289   */\n        tag_20:\n            /* \"#utility.yul\":368:408   */\n          tag_21\n            /* \"#utility.yul\":398:407   */\n          dup3\n            /* \"#utility.yul\":368:408   */\n          tag_16\n          jump\t// in\n        tag_21:\n            /* \"#utility.yul\":358:408   */\n          swap4\n            /* \"#utility.yul\":277:414   */\n          swap3\n          pop\n          pop\n          pop\n          jump\t// out\n            /* \"#utility.yul\":419:931   */\n        tag_3:\n            /* \"#utility.yul\":525:531   */\n          0x00\n            /* \"#utility.yul\":533:539   */\n          dup1\n            /* \"#utility.yul\":541:547   */\n          0x00\n            /* \"#utility.yul\":549:555   */\n          dup1\n            /* \"#utility.yul\":557:563   */\n          0x00\n            /* \"#utility.yul\":610:613   */\n          0xa0\n            /* \"#utility.yul\":598:607   */\n          dup7\n            /* \"#utility.yul\":589:596   */\n          dup9\n            /* \"#utility.yul\":585:608   */\n          sub\n            /* \"#utility.yul\":581:614   */\n          slt\n            /* \"#utility.yul\":578:580   */\n          iszero\n          tag_23\n          jumpi\n            /* \"#utility.yul\":632:638   */\n          dup1\n            /* \"#utility.yul\":624:630   */\n          dup2\n            /* \"#utility.yul\":617:639   */\n          revert\n            /* \"#utility.yul\":578:580   */\n        tag_23:\n            /* \"#utility.yul\":660:700   */\n          tag_24\n            /* \"#utility.yul\":690:699   */\n          dup7\n            /* \"#utility.yul\":660:700   */\n          tag_16\n          jump\t// in\n        tag_24:\n            /* \"#utility.yul\":650:700   */\n          swap5\n          pop\n            /* \"#utility.yul\":719:768   */\n          tag_25\n            /* \"#utility.yul\":764:766   */\n          0x20\n            /* \"#utility.yul\":753:762   */\n          dup8\n            /* \"#utility.yul\":749:767   */\n          add\n            /* \"#utility.yul\":719:768   */\n          tag_16\n          jump\t// in\n        tag_25:\n            /* \"#utility.yul\":709:768   */\n          swap4\n          pop\n            /* \"#utility.yul\":787:836   */\n          tag_26\n            /* \"#utility.yul\":832:834   */\n          0x40\n            /* \"#utility.yul\":821:830   */\n          dup8\n            /* \"#utility.yul\":817:835   */\n          add\n            /* \"#utility.yul\":787:836   */\n          tag_16\n          jump\t// in\n        tag_26:\n            /* \"#utility.yul\":876:878   */\n          0x60\n            /* \"#utility.yul\":861:879   */\n          dup8\n          add\n            /* \"#utility.yul\":855:880   */\n          mload\n            /* \"#utility.yul\":920:923   */\n          0x80\n            /* \"#utility.yul\":905:924   */\n          swap1\n          swap8\n          add\n            /* \"#utility.yul\":899:925   */\n          mload\n            /* \"#utility.yul\":568:931   */\n          swap6\n          swap9\n          swap5\n          swap8\n          pop\n            /* \"#utility.yul\":777:836   */\n          swap6\n            /* \"#utility.yul\":855:880   */\n          swap5\n            /* \"#utility.yul\":899:925   */\n          swap4\n            /* \"#utility.yul\":568:931   */\n          swap3\n          pop\n          pop\n          pop\n          jump\t// out\n            /* \"#utility.yul\":1110:1334   */\n        tag_15:\n            /* \"contracts/BetPair.sol\":163:883  contract BetPair is IBetPair {... */\n          dataSize(sub_0)\n          dup1\n          dataOffset(sub_0)\n          0x00\n          codecopy\n          0x00\n          return\n        stop\n\n        sub_0: assembly {\n                /* \"contracts/BetPair.sol\":163:883  contract BetPair is IBetPair {... */\n              mstore(0x40, 0x80)\n              callvalue\n              dup1\n              iszero\n              tag_1\n              jumpi\n              0x00\n              dup1\n              revert\n            tag_1:\n              pop\n              jumpi(tag_2, lt(calldatasize, 0x04))\n              shr(0xe0, calldataload(0x00))\n              dup1\n              0x0f765e6d\n              eq\n              tag_3\n              jumpi\n              dup1\n              0x156dcbf0\n              eq\n              tag_4\n              jumpi\n              dup1\n              0x15e894ab\n              eq\n              tag_5\n              jumpi\n              dup1\n              0x2efe91ef\n              eq\n              tag_6\n              jumpi\n              dup1\n              0x80f55605\n              eq\n              tag_7\n              jumpi\n            tag_2:\n              0x00\n              dup1\n              revert\n                /* \"contracts/BetPair.sol\":313:345  address public override sideBBet */\n            tag_3:\n              sload(0x03)\n              tag_8\n              swap1\n              sub(shl(0xa0, 0x01), 0x01)\n              and\n              dup2\n              jump\n            tag_8:\n              mload(0x40)\n              sub(shl(0xa0, 0x01), 0x01)\n                /* \"#utility.yul\":178:210   */\n              swap2\n              swap1\n              swap2\n              and\n                /* \"#utility.yul\":160:211   */\n              dup2\n              mstore\n                /* \"#utility.yul\":148:150   */\n              0x20\n                /* \"#utility.yul\":133:151   */\n              add\n                /* \"contracts/BetPair.sol\":313:345  address public override sideBBet */\n            tag_10:\n              mload(0x40)\n              dup1\n              swap2\n              sub\n              swap1\n              return\n                /* \"contracts/BetPair.sol\":352:380  uint public override amountA */\n            tag_4:\n              tag_12\n              sload(0x04)\n              dup2\n              jump\n            tag_12:\n              mload(0x40)\n                /* \"#utility.yul\":368:393   */\n              swap1\n              dup2\n              mstore\n                /* \"#utility.yul\":356:358   */\n              0x20\n                /* \"#utility.yul\":341:359   */\n              add\n                /* \"contracts/BetPair.sol\":352:380  uint public override amountA */\n              tag_10\n                /* \"#utility.yul\":323:399   */\n              jump\n                /* \"contracts/BetPair.sol\":274:306  address public override sideABet */\n            tag_5:\n              sload(0x02)\n              tag_8\n              swap1\n              sub(shl(0xa0, 0x01), 0x01)\n              and\n              dup2\n              jump\n                /* \"contracts/BetPair.sol\":387:415  uint public override amountB */\n            tag_6:\n              tag_12\n              sload(0x05)\n              dup2\n              jump\n                /* \"contracts/BetPair.sol\":237:267  address public override market */\n            tag_7:\n              sload(0x01)\n              tag_8\n              swap1\n              sub(shl(0xa0, 0x01), 0x01)\n              and\n              dup2\n              jump\n\n            auxdata: 0xa264697066735822122074c2b66eef55ab672a1c6c25bd67dbfdfb7f3ced1b2f45020f1d71a248a93f4d64736f6c63430008040033\n        }\n    }\n\n    auxdata: 0xa26469706673582212208a56db24c411ff9062b81215ff8e30b55f0b3927bad2821866c01ed0c0fdae2764736f6c63430008040033\n}\n",
				"bytecode": {
					"linkReferences": {},
					"object": "608060408190526004805460ff1916815560006006819055600881905554600f80546001600160a01b0319166001600160a01b03909216918217905563992642e560e01b83529163992642e5916084916020918186803b1580156200006357600080fd5b505afa15801562000078573d6000803e3d6000fd5b505050506040513d601f19601f820116820180604052508101906200009e9190620003ad565b601080546001600160a01b03929092166001600160a01b0319928316811790915560118054909216179055348015620000d657600080fd5b506040516200326438038062003264833981016040819052620000f991620003d1565b600f60009054906101000a90046001600160a01b03166001600160a01b03166306ae70956040518163ffffffff1660e01b815260040160206040518083038186803b1580156200014857600080fd5b505afa1580156200015d573d6000803e3d6000fd5b505050506040513d601f19601f82011682018060405250810190620001839190620003ad565b6001600160a01b0316336001600160a01b031614620001d05760405162461bcd60e51b8152602060048201526005602482015264667479206f60d81b604482015260640160405180910390fd5b8351620001e590600190602087019062000237565b50600280546001600160a01b0319166001600160a01b03851617905581516200021690600590602085019062000237565b5080516200022c90600790602084019062000237565b5050505050620004c4565b828054620002459062000471565b90600052602060002090601f016020900481019282620002695760008555620002b4565b82601f106200028457805160ff1916838001178555620002b4565b82800160010185558215620002b4579182015b82811115620002b457825182559160200191906001019062000297565b50620002c2929150620002c6565b5090565b5b80821115620002c25760008155600101620002c7565b80516001600160a01b0381168114620002f557600080fd5b919050565b600082601f8301126200030b578081fd5b81516001600160401b0380821115620003285762000328620004ae565b604051601f8301601f19908116603f01168101908282118183101715620003535762000353620004ae565b816040528381526020925086838588010111156200036f578485fd5b8491505b8382101562000392578582018301518183018401529082019062000373565b83821115620003a357848385830101525b9695505050505050565b600060208284031215620003bf578081fd5b620003ca82620002dd565b9392505050565b60008060008060808587031215620003e7578283fd5b84516001600160401b0380821115620003fe578485fd5b6200040c88838901620002fa565b95506200041c60208801620002dd565b9450604087015191508082111562000432578384fd5b6200044088838901620002fa565b9350606087015191508082111562000456578283fd5b506200046587828801620002fa565b91505092959194509250565b600181811c908216806200048657607f821691505b60208210811415620004a857634e487b7160e01b600052602260045260246000fd5b50919050565b634e487b7160e01b600052604160045260246000fd5b612d9080620004d46000396000f3fe60806040523480156200001157600080fd5b5060043610620001395760003560e01c80638eb1a4ad11620000bb578063bd92630c116200007a578063bd92630c14620002aa578063d37e299614620002bf578063e7c9a87f14620002c9578063fad5677914620002e0578063fbf06338146200030d57600080fd5b80638eb1a4ad1462000228578063948fb24d14620002325780639bf5b8451462000272578063a355f8971462000289578063b40a4f05146200029357600080fd5b80632b4a352711620001085780632b4a352714620001aa5780633ab8781c14620001c15780635a35846414620001e45780636bfefd6b146200020757806383bbe262146200021157600080fd5b806303afd56b146200013e57806306fdde03146200016a5780630b469bda14620001835780630ed5a933146200019c575b600080fd5b620001556200014f3660046200258f565b62000317565b60405190151581526020015b60405180910390f35b6200017462000623565b6040516200016191906200280b565b6200018d60085481565b60405190815260200162000161565b600454620001559060ff1681565b62000155620001bb3660046200258f565b620006b9565b6200018d620001d23660046200258f565b600d6020526000908152604090205481565b6200018d620001f53660046200258f565b600e6020526000908152604090205481565b6200015562000d15565b62000155620002223660046200272d565b62000def565b6200017462000ef1565b6200024962000243366004620027bb565b62000f00565b604080516001600160a01b039094168452602084019290925260ff169082015260600162000161565b6200015562000283366004620025cd565b62000f41565b62000174620010f1565b62000155620002a43660046200267a565b62001100565b6002546200015590600160a01b900460ff1681565b6200018d60065481565b62000249620002da366004620027bb565b6200122f565b600254620002f4906001600160a01b031681565b6040516001600160a01b03909116815260200162000161565b6200017462001240565b600f54604080516306ae709560e01b815290516000926001600160a01b0316916306ae7095916004808301926020929190829003018186803b1580156200035d57600080fd5b505afa15801562000372573d6000803e3d6000fd5b505050506040513d601f19601f82011682018060405250810190620003989190620025ae565b6001600160a01b0316336001600160a01b031614620003d45760405162461bcd60e51b8152600401620003cb9062002840565b60405180910390fd5b60008290506000816001600160a01b0316638aac9cca6040518163ffffffff1660e01b815260040160206040518083038186803b1580156200041557600080fd5b505afa1580156200042a573d6000803e3d6000fd5b505050506040513d601f19601f82011682018060405250810190620004509190620027d4565b826001600160a01b0316633a4b66f16040518163ffffffff1660e01b815260040160206040518083038186803b1580156200048a57600080fd5b505afa1580156200049f573d6000803e3d6000fd5b505050506040513d601f19601f82011682018060405250810190620004c59190620027d4565b620004d191906200291e565b90508047116200050d5760405162461bcd60e51b81526020600482015260066024820152650c08199d5b9960d21b6044820152606401620003cb565b6200059a826001600160a01b031663718c7d446040518163ffffffff1660e01b815260040160206040518083038186803b1580156200054b57600080fd5b505afa15801562000560573d6000803e3d6000fd5b505050506040513d601f19601f82011682018060405250810190620005869190620025ae565b6011546001600160a01b031690836200124f565b604051632d267e0360e11b8152600481018290526001600160a01b03831690635a4cfc0690602401602060405180830381600087803b158015620005dd57600080fd5b505af1158015620005f2573d6000803e3d6000fd5b505050506040513d601f19601f8201168201806040525081019062000618919062002658565b506001949350505050565b6001805462000632906200298d565b80601f016020809104026020016040519081016040528092919081815260200182805462000660906200298d565b8015620006b15780601f106200068557610100808354040283529160200191620006b1565b820191906000526020600020905b8154815290600101906020018083116200069357829003601f168201915b505050505081565b600f54604080516306ae709560e01b815290516000926001600160a01b0316916306ae7095916004808301926020929190829003018186803b158015620006ff57600080fd5b505afa15801562000714573d6000803e3d6000fd5b505050506040513d601f19601f820116820180604052508101906200073a9190620025ae565b6001600160a01b0316336001600160a01b0316146200076d5760405162461bcd60e51b8152600401620003cb9062002840565b60008290506000816001600160a01b03166380f556056040518163ffffffff1660e01b815260040160206040518083038186803b158015620007ae57600080fd5b505afa158015620007c3573d6000803e3d6000fd5b505050506040513d601f19601f82011682018060405250810190620007e99190620025ae565b90506000826001600160a01b03166315e894ab6040518163ffffffff1660e01b815260040160206040518083038186803b1580156200082757600080fd5b505afa1580156200083c573d6000803e3d6000fd5b505050506040513d601f19601f82011682018060405250810190620008629190620025ae565b90506000836001600160a01b0316630f765e6d6040518163ffffffff1660e01b815260040160206040518083038186803b158015620008a057600080fd5b505afa158015620008b5573d6000803e3d6000fd5b505050506040513d601f19601f82011682018060405250810190620008db9190620025ae565b90506000846001600160a01b031663156dcbf06040518163ffffffff1660e01b815260040160206040518083038186803b1580156200091957600080fd5b505afa1580156200092e573d6000803e3d6000fd5b505050506040513d601f19601f82011682018060405250810190620009549190620027d4565b90506000856001600160a01b0316632efe91ef6040518163ffffffff1660e01b815260040160206040518083038186803b1580156200099257600080fd5b505afa158015620009a7573d6000803e3d6000fd5b505050506040513d601f19601f82011682018060405250810190620009cd9190620027d4565b90506000859050806001600160a01b031663bd92630c6040518163ffffffff1660e01b815260040160206040518083038186803b15801562000a0e57600080fd5b505afa15801562000a23573d6000803e3d6000fd5b505050506040513d601f19601f8201168201806040525081019062000a49919062002658565b62000a835760405162461bcd60e51b815260206004820152600960248201526836b5ba1018103bb4b760b91b6044820152606401620003cb565b60405164736964654160d81b602082015260250160405160208183030381529060405280519060200120816001600160a01b031663fbf063386040518163ffffffff1660e01b815260040160006040518083038186803b15801562000ae757600080fd5b505afa15801562000afc573d6000803e3d6000fd5b505050506040513d6000823e601f3d908101601f1916820160405262000b269190810190620026b1565b60405160200162000b389190620027ed565b60405160208183030381529060405280519060200120141562000bb95762000b9585600a62000b69856009620028fc565b62000b759190620028db565b62000b819086620028c0565b6011546001600160a01b031691906200124f565b60005462000bb3906001600160a01b031662000b81600a85620028db565b62000d06565b6040516439b4b232a160d91b602082015260250160405160208183030381529060405280519060200120816001600160a01b031663fbf063386040518163ffffffff1660e01b815260040160006040518083038186803b15801562000c1d57600080fd5b505afa15801562000c32573d6000803e3d6000fd5b505050506040513d6000823e601f3d908101601f1916820160405262000c5c9190810190620026b1565b60405160200162000c6e9190620027ed565b60405160208183030381529060405280519060200120141562000cd55762000cb784600a62000c9f866009620028fc565b62000cab9190620028db565b62000b819085620028c0565b60005462000bb3906001600160a01b031662000b81600a86620028db565b60405162461bcd60e51b81526020600482015260056024820152643c103bb4b760d91b6044820152606401620003cb565b50600198975050505050505050565b600f54604080516306ae709560e01b815290516000926001600160a01b0316916306ae7095916004808301926020929190829003018186803b15801562000d5b57600080fd5b505afa15801562000d70573d6000803e3d6000fd5b505050506040513d601f19601f8201168201806040525081019062000d969190620025ae565b6001600160a01b0316336001600160a01b03161462000dc95760405162461bcd60e51b8152600401620003cb9062002840565b60045460ff161562000ddb5750600190565b506004805460ff1916600190811790915590565b600f54604080516306ae709560e01b815290516000926001600160a01b0316916306ae7095916004808301926020929190829003018186803b15801562000e3557600080fd5b505afa15801562000e4a573d6000803e3d6000fd5b505050506040513d601f19601f8201168201806040525081019062000e709190620025ae565b6001600160a01b0316336001600160a01b03161462000ea35760405162461bcd60e51b8152600401620003cb9062002840565b835162000eb890600190602087019062002484565b50825162000ece90600590602086019062002484565b50815162000ee490600790602085019062002484565b50600190505b9392505050565b6005805462000632906200298d565b6009818154811062000f1157600080fd5b60009182526020909120600390910201805460018201546002909201546001600160a01b03909116925060ff1683565b600f54604080516305c352c360e31b815290516000926001600160a01b031691632e1a9618916004808301926020929190829003018186803b15801562000f8757600080fd5b505afa15801562000f9c573d6000803e3d6000fd5b505050506040513d601f19601f8201168201806040525081019062000fc29190620025ae565b6001600160a01b0316336001600160a01b03161462000ff55760405162461bcd60e51b8152600401620003cb9062002840565b60405164736964654160d81b60208201526025016040516020818303038152906040528051906020012082604051602001620010329190620027ed565b60405160208183030381529060405280519060200120141562001070576200105d86868686620012a8565b6200106a858585620013c0565b620010e5565b6040516439b4b232a160d91b60208201526025016040516020818303038152906040528051906020012082604051602001620010ad9190620027ed565b604051602081830303815290604052805190602001201415620010e557620010d88686868662001a6a565b620010e585858562001b76565b50600195945050505050565b6007805462000632906200298d565b600f54604080516306ae709560e01b815290516000926001600160a01b0316916306ae7095916004808301926020929190829003018186803b1580156200114657600080fd5b505afa1580156200115b573d6000803e3d6000fd5b505050506040513d601f19601f82011682018060405250810190620011819190620025ae565b6001600160a01b0316336001600160a01b031614620011b45760405162461bcd60e51b8152600401620003cb9062002840565b600254600160a01b900460ff16151560011415620011fe5760405162461bcd60e51b815260206004820152600660248201526510bc103bb4b760d11b6044820152606401620003cb565b81516200121390600390602085019062002484565b50506002805460ff60a01b1916600160a01b1790556001919050565b600b818154811062000f1157600080fd5b6003805462000632906200298d565b604080516001600160a01b038416602482015260448082018490528251808303909101815260649091019091526020810180516001600160e01b031663a9059cbb60e01b179052620012a390849062002219565b505050565b8160066000828254620012bc9190620028c0565b9091555050604080516060810182526001600160a01b038581168252602080830186815260ff86811685870190815260098054600181018255600091825296517f6e1540171b6c0c960b71a7020d9f60077f6af931a8bbf590da0223dacf75c7af600390980297880180546001600160a01b03191691881691909117905592517f6e1540171b6c0c960b71a7020d9f60077f6af931a8bbf590da0223dacf75c7b0870155517f6e1540171b6c0c960b71a7020d9f60077f6af931a8bbf590da0223dacf75c7b1909501805460ff191695909116949094179093559087168252600d90529081208054849290620013b4908490620028c0565b90915550505b50505050565b600c5480156200199357825b670de0b6b3a764000081106200198c5760008060005b8481101562001483576000600c82815481106200140f57634e487b7160e01b600052603260045260246000fd5b600091825260209182902060408051606081018252600390930290910180546001600160a01b0316835260018101549383019390935260029092015460ff908116928201839052909250841610156200146d57806040015192508193505b50806200147a81620029ca565b915050620013e2565b508460ff168160ff161115620018ac576000600c8381548110620014b757634e487b7160e01b600052603260045260246000fd5b6000918252602080832060408051606081018252600390940290910180546001600160a01b031680855260018201548585015260029091015460ff168483015281516345564e6560e11b8152915193955093928492638aac9cca9260048082019391829003018186803b1580156200152e57600080fd5b505afa15801562001543573d6000803e3d6000fd5b505050506040513d601f19601f82011682018060405250810190620015699190620027d4565b9050600060646200157b818b62002938565b60ff168386602001516200159091906200291e565b6200159c9190620028fc565b620015a89190620028db565b905060008a821115620015bd575089620015c0565b50805b6000620015d160ff8c1683620028fc565b90506000308e88600001518585604051620015ec9062002513565b6001600160a01b03958616815293851660208501529390911660408301526060820152608081019190915260a001604051809103906000f08015801562001637573d6000803e3d6000fd5b509050600c89815481106200165c57634e487b7160e01b600052603260045260246000fd5b6000918252602082206003919091020180546001600160a01b03191681556001810191909155600201805460ff19169055604051632d267e0360e11b8152600481018490528e906001600160a01b03821690635a4cfc0690602401602060405180830381600087803b158015620016d257600080fd5b505af1158015620016e7573d6000803e3d6000fd5b505050506040513d601f19601f820116820180604052508101906200170d919062002658565b5060405163615bdddb60e11b81526001600160a01b03838116600483015282169063c2b7bbb690602401602060405180830381600087803b1580156200175257600080fd5b505af115801562001767573d6000803e3d6000fd5b505050506040513d601f19601f820116820180604052508101906200178d919062002658565b508751604051632d267e0360e11b8152600481018590526001600160a01b03821690635a4cfc0690602401602060405180830381600087803b158015620017d357600080fd5b505af1158015620017e8573d6000803e3d6000fd5b505050506040513d601f19601f820116820180604052508101906200180e919062002658565b5060405163615bdddb60e11b81526001600160a01b03848116600483015282169063c2b7bbb690602401602060405180830381600087803b1580156200185357600080fd5b505af115801562001868573d6000803e3d6000fd5b505050506040513d601f19601f820116820180604052508101906200188e919062002658565b506200189b858d6200291e565b9b5050505050505050505062001984565b5050604080516060810182526001600160a01b0387811682526020820187815260ff878116948401948552600a805460018101825560009190915293517fc65a7bb8d6351c1cf70c95a316cc6a92839c986682d98bc35f958f4883f9d2a8600390950294850180546001600160a01b0319169190941617909255517fc65a7bb8d6351c1cf70c95a316cc6a92839c986682d98bc35f958f4883f9d2a983015591517fc65a7bb8d6351c1cf70c95a316cc6a92839c986682d98bc35f958f4883f9d2aa909101805460ff1916919092161790556200198c565b5050620013cc565b50620013ba565b50604080516060810182526001600160a01b0394851681526020810193845260ff928316918101918252600a805460018101825560009190915290517fc65a7bb8d6351c1cf70c95a316cc6a92839c986682d98bc35f958f4883f9d2a8600390920291820180546001600160a01b031916919096161790945591517fc65a7bb8d6351c1cf70c95a316cc6a92839c986682d98bc35f958f4883f9d2a984015590517fc65a7bb8d6351c1cf70c95a316cc6a92839c986682d98bc35f958f4883f9d2aa909201805460ff191692909116919091179055565b816008600082825462001a7e9190620028c0565b9091555050604080516060810182526001600160a01b038581168252602080830186815260ff868116858701908152600b8054600181018255600091825296517f0175b7a638427703f0dbe7bb9bbf987a2551717b34e79f33b5b1008d1fa01db9600390980297880180546001600160a01b03191691881691909117905592517f0175b7a638427703f0dbe7bb9bbf987a2551717b34e79f33b5b1008d1fa01dba870155517f0175b7a638427703f0dbe7bb9bbf987a2551717b34e79f33b5b1008d1fa01dbb909501805460ff191695909116949094179093559087168252600e90529081208054849290620013b4908490620028c0565b600a5480156200214257825b670de0b6b3a764000081106200198c5760008060005b8481101562001c39576000600a828154811062001bc557634e487b7160e01b600052603260045260246000fd5b600091825260209182902060408051606081018252600390930290910180546001600160a01b0316835260018101549383019390935260029092015460ff9081169282018390529092508416101562001c2357806040015192508193505b508062001c3081620029ca565b91505062001b98565b508460ff168160ff16111562002062576000600a838154811062001c6d57634e487b7160e01b600052603260045260246000fd5b6000918252602080832060408051606081018252600390940290910180546001600160a01b031680855260018201548585015260029091015460ff168483015281516345564e6560e11b8152915193955093928492638aac9cca9260048082019391829003018186803b15801562001ce457600080fd5b505afa15801562001cf9573d6000803e3d6000fd5b505050506040513d601f19601f8201168201806040525081019062001d1f9190620027d4565b90506000606462001d31818b62002938565b60ff1683866020015162001d4691906200291e565b62001d529190620028fc565b62001d5e9190620028db565b905060008a82111562001d7357508962001d76565b50805b600062001d8760ff8c1683620028fc565b905060003087600001518f848660405162001da29062002513565b6001600160a01b03958616815293851660208501529390911660408301526060820152608081019190915260a001604051809103906000f08015801562001ded573d6000803e3d6000fd5b509050600a898154811062001e1257634e487b7160e01b600052603260045260246000fd5b6000918252602082206003919091020180546001600160a01b03191681556001810191909155600201805460ff19169055604051632d267e0360e11b8152600481018490528e906001600160a01b03821690635a4cfc0690602401602060405180830381600087803b15801562001e8857600080fd5b505af115801562001e9d573d6000803e3d6000fd5b505050506040513d601f19601f8201168201806040525081019062001ec3919062002658565b5060405163615bdddb60e11b81526001600160a01b03838116600483015282169063c2b7bbb690602401602060405180830381600087803b15801562001f0857600080fd5b505af115801562001f1d573d6000803e3d6000fd5b505050506040513d601f19601f8201168201806040525081019062001f43919062002658565b508751604051632d267e0360e11b8152600481018590526001600160a01b03821690635a4cfc0690602401602060405180830381600087803b15801562001f8957600080fd5b505af115801562001f9e573d6000803e3d6000fd5b505050506040513d601f19601f8201168201806040525081019062001fc4919062002658565b5060405163615bdddb60e11b81526001600160a01b03848116600483015282169063c2b7bbb690602401602060405180830381600087803b1580156200200957600080fd5b505af11580156200201e573d6000803e3d6000fd5b505050506040513d601f19601f8201168201806040525081019062002044919062002658565b5062002051848d6200291e565b9b505050505050505050506200213a565b5050604080516060810182526001600160a01b0387811682526020820187815260ff878116948401948552600c805460018101825560009190915293517fdf6966c971051c3d54ec59162606531493a51404a002842f56009d7e5cf4a8c7600390950294850180546001600160a01b0319169190941617909255517fdf6966c971051c3d54ec59162606531493a51404a002842f56009d7e5cf4a8c883015591517fdf6966c971051c3d54ec59162606531493a51404a002842f56009d7e5cf4a8c9909101805460ff1916919092161790556200198c565b505062001b82565b50604080516060810182526001600160a01b0394851681526020810193845260ff928316918101918252600c805460018101825560009190915290517fdf6966c971051c3d54ec59162606531493a51404a002842f56009d7e5cf4a8c7600390920291820180546001600160a01b031916919096161790945591517fdf6966c971051c3d54ec59162606531493a51404a002842f56009d7e5cf4a8c884015590517fdf6966c971051c3d54ec59162606531493a51404a002842f56009d7e5cf4a8c9909201805460ff191692909116919091179055565b600062002270826040518060400160405280602081526020017f5361666545524332303a206c6f772d6c6576656c2063616c6c206661696c6564815250856001600160a01b0316620022f29092919063ffffffff16565b805190915015620012a3578080602001905181019062002291919062002658565b620012a35760405162461bcd60e51b815260206004820152602a60248201527f5361666545524332303a204552433230206f7065726174696f6e20646964206e6044820152691bdd081cdd58d8d9595960b21b6064820152608401620003cb565b60606200230384846000856200230b565b949350505050565b6060824710156200236e5760405162461bcd60e51b815260206004820152602660248201527f416464726573733a20696e73756666696369656e742062616c616e636520666f6044820152651c8818d85b1b60d21b6064820152608401620003cb565b6001600160a01b0385163b620023c75760405162461bcd60e51b815260206004820152601d60248201527f416464726573733a2063616c6c20746f206e6f6e2d636f6e74726163740000006044820152606401620003cb565b600080866001600160a01b03168587604051620023e59190620027ed565b60006040518083038185875af1925050503d806000811462002424576040519150601f19603f3d011682016040523d82523d6000602084013e62002429565b606091505b50915091506200243b82828662002446565b979650505050505050565b606083156200245757508162000eea565b825115620024685782518084602001fd5b8160405162461bcd60e51b8152600401620003cb91906200280b565b82805462002492906200298d565b90600052602060002090601f016020900481019282620024b6576000855562002501565b82601f10620024d157805160ff191683800117855562002501565b8280016001018555821562002501579182015b8281111562002501578251825591602001919060010190620024e4565b506200250f92915062002521565b5090565b61032d8062002a2e83390190565b5b808211156200250f576000815560010162002522565b600082601f83011262002549578081fd5b8135620025606200255a8262002895565b62002861565b81815284602083860101111562002575578283fd5b816020850160208301379081016020019190915292915050565b600060208284031215620025a1578081fd5b813562000eea8162002a14565b600060208284031215620025c0578081fd5b815162000eea8162002a14565b600080600080600060a08688031215620025e5578081fd5b8535620025f28162002a14565b94506020860135620026048162002a14565b935060408601359250606086013560ff8116811462002621578182fd5b9150608086013567ffffffffffffffff8111156200263d578182fd5b6200264b8882890162002538565b9150509295509295909350565b6000602082840312156200266a578081fd5b8151801515811462000eea578182fd5b6000602082840312156200268c578081fd5b813567ffffffffffffffff811115620026a3578182fd5b620023038482850162002538565b600060208284031215620026c3578081fd5b815167ffffffffffffffff811115620026da578182fd5b8201601f81018413620026eb578182fd5b8051620026fc6200255a8262002895565b81815285602083850101111562002711578384fd5b620027248260208301602086016200295e565b95945050505050565b60008060006060848603121562002742578283fd5b833567ffffffffffffffff808211156200275a578485fd5b620027688783880162002538565b945060208601359150808211156200277e578384fd5b6200278c8783880162002538565b93506040860135915080821115620027a2578283fd5b50620027b18682870162002538565b9150509250925092565b600060208284031215620027cd578081fd5b5035919050565b600060208284031215620027e6578081fd5b5051919050565b60008251620028018184602087016200295e565b9190910192915050565b60208152600082518060208401526200282c8160408501602087016200295e565b601f01601f19169190910160400192915050565b6020808252600790820152666f776e6572206f60c81b604082015260600190565b604051601f8201601f1916810167ffffffffffffffff811182821017156200288d576200288d620029fe565b604052919050565b600067ffffffffffffffff821115620028b257620028b2620029fe565b50601f01601f191660200190565b60008219821115620028d657620028d6620029e8565b500190565b600082620028f757634e487b7160e01b81526012600452602481fd5b500490565b6000816000190483118215151615620029195762002919620029e8565b500290565b600082821015620029335762002933620029e8565b500390565b600060ff821660ff841680821015620029555762002955620029e8565b90039392505050565b60005b838110156200297b57818101518382015260200162002961565b83811115620013ba5750506000910152565b600181811c90821680620029a257607f821691505b60208210811415620029c457634e487b7160e01b600052602260045260246000fd5b50919050565b6000600019821415620029e157620029e1620029e8565b5060010190565b634e487b7160e01b600052601160045260246000fd5b634e487b7160e01b600052604160045260246000fd5b6001600160a01b038116811462002a2a57600080fd5b5056fe6080604052600054600680546001600160a01b0319166001600160a01b0390921691909117905534801561003257600080fd5b5060405161032d38038061032d833981016040819052610051916101cf565b600660009054906101000a90046001600160a01b03166001600160a01b03166306ae70956040518163ffffffff1660e01b815260040160206040518083038186803b15801561009f57600080fd5b505afa1580156100b3573d6000803e3d6000fd5b505050506040513d601f19601f820116820180604052508101906100d791906101ae565b6001600160a01b0316336001600160a01b0316146101465760405162461bcd60e51b815260206004820152602260248201527f6f6e6c79206d61726b657420666163746f72792063616e206d61746368206265604482015261747360f01b606482015260840160405180910390fd5b600180546001600160a01b03199081166001600160a01b039788161790915560028054821695871695909517909455600380549094169290941691909117909155600455600555610224565b80516001600160a01b03811681146101a957600080fd5b919050565b6000602082840312156101bf578081fd5b6101c882610192565b9392505050565b600080600080600060a086880312156101e6578081fd5b6101ef86610192565b94506101fd60208701610192565b935061020b60408701610192565b6060870151608090970151959894975095949392505050565b60fb806102326000396000f3fe6080604052348015600f57600080fd5b506004361060505760003560e01c80630f765e6d146055578063156dcbf014608457806315e894ab1460995780632efe91ef1460ab57806380f556051460b3575b600080fd5b6003546067906001600160a01b031681565b6040516001600160a01b0390911681526020015b60405180910390f35b608c60045481565b604051908152602001607b565b6002546067906001600160a01b031681565b608c60055481565b6001546067906001600160a01b03168156fea264697066735822122074c2b66eef55ab672a1c6c25bd67dbfdfb7f3ced1b2f45020f1d71a248a93f4d64736f6c63430008040033a26469706673582212208a56db24c411ff9062b81215ff8e30b55f0b3927bad2821866c01ed0c0fdae2764736f6c63430008040033",
					"opcodes": "PUSH1 0x80 PUSH1 0x40 DUP2 SWAP1 MSTORE PUSH1 0x4 DUP1 SLOAD PUSH1 0xFF NOT AND DUP2 SSTORE PUSH1 0x0 PUSH1 0x6 DUP2 SWAP1 SSTORE PUSH1 0x8 DUP2 SWAP1 SSTORE SLOAD PUSH1 0xF DUP1 SLOAD PUSH1 0x1 PUSH1 0x1 PUSH1 0xA0 SHL SUB NOT AND PUSH1 0x1 PUSH1 0x1 PUSH1 0xA0 SHL SUB SWAP1 SWAP3 AND SWAP2 DUP3 OR SWAP1 SSTORE PUSH4 0x992642E5 PUSH1 0xE0 SHL DUP4 MSTORE SWAP2 PUSH4 0x992642E5 SWAP2 PUSH1 0x84 SWAP2 PUSH1 0x20 SWAP2 DUP2 DUP7 DUP1 EXTCODESIZE ISZERO DUP1 ISZERO PUSH3 0x63 JUMPI PUSH1 0x0 DUP1 REVERT JUMPDEST POP GAS STATICCALL ISZERO DUP1 ISZERO PUSH3 0x78 JUMPI RETURNDATASIZE PUSH1 0x0 DUP1 RETURNDATACOPY RETURNDATASIZE PUSH1 0x0 REVERT JUMPDEST POP POP POP POP PUSH1 0x40 MLOAD RETURNDATASIZE PUSH1 0x1F NOT PUSH1 0x1F DUP3 ADD AND DUP3 ADD DUP1 PUSH1 0x40 MSTORE POP DUP2 ADD SWAP1 PUSH3 0x9E SWAP2 SWAP1 PUSH3 0x3AD JUMP JUMPDEST PUSH1 0x10 DUP1 SLOAD PUSH1 0x1 PUSH1 0x1 PUSH1 0xA0 SHL SUB SWAP3 SWAP1 SWAP3 AND PUSH1 0x1 PUSH1 0x1 PUSH1 0xA0 SHL SUB NOT SWAP3 DUP4 AND DUP2 OR SWAP1 SWAP2 SSTORE PUSH1 0x11 DUP1 SLOAD SWAP1 SWAP3 AND OR SWAP1 SSTORE CALLVALUE DUP1 ISZERO PUSH3 0xD6 JUMPI PUSH1 0x0 DUP1 REVERT JUMPDEST POP PUSH1 0x40 MLOAD PUSH3 0x3264 CODESIZE SUB DUP1 PUSH3 0x3264 DUP4 CODECOPY DUP2 ADD PUSH1 0x40 DUP2 SWAP1 MSTORE PUSH3 0xF9 SWAP2 PUSH3 0x3D1 JUMP JUMPDEST PUSH1 0xF PUSH1 0x0 SWAP1 SLOAD SWAP1 PUSH2 0x100 EXP SWAP1 DIV PUSH1 0x1 PUSH1 0x1 PUSH1 0xA0 SHL SUB AND PUSH1 0x1 PUSH1 0x1 PUSH1 0xA0 SHL SUB AND PUSH4 0x6AE7095 PUSH1 0x40 MLOAD DUP2 PUSH4 0xFFFFFFFF AND PUSH1 0xE0 SHL DUP2 MSTORE PUSH1 0x4 ADD PUSH1 0x20 PUSH1 0x40 MLOAD DUP1 DUP4 SUB DUP2 DUP7 DUP1 EXTCODESIZE ISZERO DUP1 ISZERO PUSH3 0x148 JUMPI PUSH1 0x0 DUP1 REVERT JUMPDEST POP GAS STATICCALL ISZERO DUP1 ISZERO PUSH3 0x15D JUMPI RETURNDATASIZE PUSH1 0x0 DUP1 RETURNDATACOPY RETURNDATASIZE PUSH1 0x0 REVERT JUMPDEST POP POP POP POP PUSH1 0x40 MLOAD RETURNDATASIZE PUSH1 0x1F NOT PUSH1 0x1F DUP3 ADD AND DUP3 ADD DUP1 PUSH1 0x40 MSTORE POP DUP2 ADD SWAP1 PUSH3 0x183 SWAP2 SWAP1 PUSH3 0x3AD JUMP JUMPDEST PUSH1 0x1 PUSH1 0x1 PUSH1 0xA0 SHL SUB AND CALLER PUSH1 0x1 PUSH1 0x1 PUSH1 0xA0 SHL SUB AND EQ PUSH3 0x1D0 JUMPI PUSH1 0x40 MLOAD PUSH3 0x461BCD PUSH1 0xE5 SHL DUP2 MSTORE PUSH1 0x20 PUSH1 0x4 DUP3 ADD MSTORE PUSH1 0x5 PUSH1 0x24 DUP3 ADD MSTORE PUSH5 0x667479206F PUSH1 0xD8 SHL PUSH1 0x44 DUP3 ADD MSTORE PUSH1 0x64 ADD PUSH1 0x40 MLOAD DUP1 SWAP2 SUB SWAP1 REVERT JUMPDEST DUP4 MLOAD PUSH3 0x1E5 SWAP1 PUSH1 0x1 SWAP1 PUSH1 0x20 DUP8 ADD SWAP1 PUSH3 0x237 JUMP JUMPDEST POP PUSH1 0x2 DUP1 SLOAD PUSH1 0x1 PUSH1 0x1 PUSH1 0xA0 SHL SUB NOT AND PUSH1 0x1 PUSH1 0x1 PUSH1 0xA0 SHL SUB DUP6 AND OR SWAP1 SSTORE DUP2 MLOAD PUSH3 0x216 SWAP1 PUSH1 0x5 SWAP1 PUSH1 0x20 DUP6 ADD SWAP1 PUSH3 0x237 JUMP JUMPDEST POP DUP1 MLOAD PUSH3 0x22C SWAP1 PUSH1 0x7 SWAP1 PUSH1 0x20 DUP5 ADD SWAP1 PUSH3 0x237 JUMP JUMPDEST POP POP POP POP POP PUSH3 0x4C4 JUMP JUMPDEST DUP3 DUP1 SLOAD PUSH3 0x245 SWAP1 PUSH3 0x471 JUMP JUMPDEST SWAP1 PUSH1 0x0 MSTORE PUSH1 0x20 PUSH1 0x0 KECCAK256 SWAP1 PUSH1 0x1F ADD PUSH1 0x20 SWAP1 DIV DUP2 ADD SWAP3 DUP3 PUSH3 0x269 JUMPI PUSH1 0x0 DUP6 SSTORE PUSH3 0x2B4 JUMP JUMPDEST DUP3 PUSH1 0x1F LT PUSH3 0x284 JUMPI DUP1 MLOAD PUSH1 0xFF NOT AND DUP4 DUP1 ADD OR DUP6 SSTORE PUSH3 0x2B4 JUMP JUMPDEST DUP3 DUP1 ADD PUSH1 0x1 ADD DUP6 SSTORE DUP3 ISZERO PUSH3 0x2B4 JUMPI SWAP2 DUP3 ADD JUMPDEST DUP3 DUP2 GT ISZERO PUSH3 0x2B4 JUMPI DUP3 MLOAD DUP3 SSTORE SWAP2 PUSH1 0x20 ADD SWAP2 SWAP1 PUSH1 0x1 ADD SWAP1 PUSH3 0x297 JUMP JUMPDEST POP PUSH3 0x2C2 SWAP3 SWAP2 POP PUSH3 0x2C6 JUMP JUMPDEST POP SWAP1 JUMP JUMPDEST JUMPDEST DUP1 DUP3 GT ISZERO PUSH3 0x2C2 JUMPI PUSH1 0x0 DUP2 SSTORE PUSH1 0x1 ADD PUSH3 0x2C7 JUMP JUMPDEST DUP1 MLOAD PUSH1 0x1 PUSH1 0x1 PUSH1 0xA0 SHL SUB DUP2 AND DUP2 EQ PUSH3 0x2F5 JUMPI PUSH1 0x0 DUP1 REVERT JUMPDEST SWAP2 SWAP1 POP JUMP JUMPDEST PUSH1 0x0 DUP3 PUSH1 0x1F DUP4 ADD SLT PUSH3 0x30B JUMPI DUP1 DUP2 REVERT JUMPDEST DUP2 MLOAD PUSH1 0x1 PUSH1 0x1 PUSH1 0x40 SHL SUB DUP1 DUP3 GT ISZERO PUSH3 0x328 JUMPI PUSH3 0x328 PUSH3 0x4AE JUMP JUMPDEST PUSH1 0x40 MLOAD PUSH1 0x1F DUP4 ADD PUSH1 0x1F NOT SWAP1 DUP2 AND PUSH1 0x3F ADD AND DUP2 ADD SWAP1 DUP3 DUP3 GT DUP2 DUP4 LT OR ISZERO PUSH3 0x353 JUMPI PUSH3 0x353 PUSH3 0x4AE JUMP JUMPDEST DUP2 PUSH1 0x40 MSTORE DUP4 DUP2 MSTORE PUSH1 0x20 SWAP3 POP DUP7 DUP4 DUP6 DUP9 ADD ADD GT ISZERO PUSH3 0x36F JUMPI DUP5 DUP6 REVERT JUMPDEST DUP5 SWAP2 POP JUMPDEST DUP4 DUP3 LT ISZERO PUSH3 0x392 JUMPI DUP6 DUP3 ADD DUP4 ADD MLOAD DUP2 DUP4 ADD DUP5 ADD MSTORE SWAP1 DUP3 ADD SWAP1 PUSH3 0x373 JUMP JUMPDEST DUP4 DUP3 GT ISZERO PUSH3 0x3A3 JUMPI DUP5 DUP4 DUP6 DUP4 ADD ADD MSTORE JUMPDEST SWAP7 SWAP6 POP POP POP POP POP POP JUMP JUMPDEST PUSH1 0x0 PUSH1 0x20 DUP3 DUP5 SUB SLT ISZERO PUSH3 0x3BF JUMPI DUP1 DUP2 REVERT JUMPDEST PUSH3 0x3CA DUP3 PUSH3 0x2DD JUMP JUMPDEST SWAP4 SWAP3 POP POP POP JUMP JUMPDEST PUSH1 0x0 DUP1 PUSH1 0x0 DUP1 PUSH1 0x80 DUP6 DUP8 SUB SLT ISZERO PUSH3 0x3E7 JUMPI DUP3 DUP4 REVERT JUMPDEST DUP5 MLOAD PUSH1 0x1 PUSH1 0x1 PUSH1 0x40 SHL SUB DUP1 DUP3 GT ISZERO PUSH3 0x3FE JUMPI DUP5 DUP6 REVERT JUMPDEST PUSH3 0x40C DUP9 DUP4 DUP10 ADD PUSH3 0x2FA JUMP JUMPDEST SWAP6 POP PUSH3 0x41C PUSH1 0x20 DUP9 ADD PUSH3 0x2DD JUMP JUMPDEST SWAP5 POP PUSH1 0x40 DUP8 ADD MLOAD SWAP2 POP DUP1 DUP3 GT ISZERO PUSH3 0x432 JUMPI DUP4 DUP5 REVERT JUMPDEST PUSH3 0x440 DUP9 DUP4 DUP10 ADD PUSH3 0x2FA JUMP JUMPDEST SWAP4 POP PUSH1 0x60 DUP8 ADD MLOAD SWAP2 POP DUP1 DUP3 GT ISZERO PUSH3 0x456 JUMPI DUP3 DUP4 REVERT JUMPDEST POP PUSH3 0x465 DUP8 DUP3 DUP9 ADD PUSH3 0x2FA JUMP JUMPDEST SWAP2 POP POP SWAP3 SWAP6 SWAP2 SWAP5 POP SWAP3 POP JUMP JUMPDEST PUSH1 0x1 DUP2 DUP2 SHR SWAP1 DUP3 AND DUP1 PUSH3 0x486 JUMPI PUSH1 0x7F DUP3 AND SWAP2 POP JUMPDEST PUSH1 0x20 DUP3 LT DUP2 EQ ISZERO PUSH3 0x4A8 JUMPI PUSH4 0x4E487B71 PUSH1 0xE0 SHL PUSH1 0x0 MSTORE PUSH1 0x22 PUSH1 0x4 MSTORE PUSH1 0x24 PUSH1 0x0 REVERT JUMPDEST POP SWAP2 SWAP1 POP JUMP JUMPDEST PUSH4 0x4E487B71 PUSH1 0xE0 SHL PUSH1 0x0 MSTORE PUSH1 0x41 PUSH1 0x4 MSTORE PUSH1 0x24 PUSH1 0x0 REVERT JUMPDEST PUSH2 0x2D90 DUP1 PUSH3 0x4D4 PUSH1 0x0 CODECOPY PUSH1 0x0 RETURN INVALID PUSH1 0x80 PUSH1 0x40 MSTORE CALLVALUE DUP1 ISZERO PUSH3 0x11 JUMPI PUSH1 0x0 DUP1 REVERT JUMPDEST POP PUSH1 0x4 CALLDATASIZE LT PUSH3 0x139 JUMPI PUSH1 0x0 CALLDATALOAD PUSH1 0xE0 SHR DUP1 PUSH4 0x8EB1A4AD GT PUSH3 0xBB JUMPI DUP1 PUSH4 0xBD92630C GT PUSH3 0x7A JUMPI DUP1 PUSH4 0xBD92630C EQ PUSH3 0x2AA JUMPI DUP1 PUSH4 0xD37E2996 EQ PUSH3 0x2BF JUMPI DUP1 PUSH4 0xE7C9A87F EQ PUSH3 0x2C9 JUMPI DUP1 PUSH4 0xFAD56779 EQ PUSH3 0x2E0 JUMPI DUP1 PUSH4 0xFBF06338 EQ PUSH3 0x30D JUMPI PUSH1 0x0 DUP1 REVERT JUMPDEST DUP1 PUSH4 0x8EB1A4AD EQ PUSH3 0x228 JUMPI DUP1 PUSH4 0x948FB24D EQ PUSH3 0x232 JUMPI DUP1 PUSH4 0x9BF5B845 EQ PUSH3 0x272 JUMPI DUP1 PUSH4 0xA355F897 EQ PUSH3 0x289 JUMPI DUP1 PUSH4 0xB40A4F05 EQ PUSH3 0x293 JUMPI PUSH1 0x0 DUP1 REVERT JUMPDEST DUP1 PUSH4 0x2B4A3527 GT PUSH3 0x108 JUMPI DUP1 PUSH4 0x2B4A3527 EQ PUSH3 0x1AA JUMPI DUP1 PUSH4 0x3AB8781C EQ PUSH3 0x1C1 JUMPI DUP1 PUSH4 0x5A358464 EQ PUSH3 0x1E4 JUMPI DUP1 PUSH4 0x6BFEFD6B EQ PUSH3 0x207 JUMPI DUP1 PUSH4 0x83BBE262 EQ PUSH3 0x211 JUMPI PUSH1 0x0 DUP1 REVERT JUMPDEST DUP1 PUSH4 0x3AFD56B EQ PUSH3 0x13E JUMPI DUP1 PUSH4 0x6FDDE03 EQ PUSH3 0x16A JUMPI DUP1 PUSH4 0xB469BDA EQ PUSH3 0x183 JUMPI DUP1 PUSH4 0xED5A933 EQ PUSH3 0x19C JUMPI JUMPDEST PUSH1 0x0 DUP1 REVERT JUMPDEST PUSH3 0x155 PUSH3 0x14F CALLDATASIZE PUSH1 0x4 PUSH3 0x258F JUMP JUMPDEST PUSH3 0x317 JUMP JUMPDEST PUSH1 0x40 MLOAD SWAP1 ISZERO ISZERO DUP2 MSTORE PUSH1 0x20 ADD JUMPDEST PUSH1 0x40 MLOAD DUP1 SWAP2 SUB SWAP1 RETURN JUMPDEST PUSH3 0x174 PUSH3 0x623 JUMP JUMPDEST PUSH1 0x40 MLOAD PUSH3 0x161 SWAP2 SWAP1 PUSH3 0x280B JUMP JUMPDEST PUSH3 0x18D PUSH1 0x8 SLOAD DUP2 JUMP JUMPDEST PUSH1 0x40 MLOAD SWAP1 DUP2 MSTORE PUSH1 0x20 ADD PUSH3 0x161 JUMP JUMPDEST PUSH1 0x4 SLOAD PUSH3 0x155 SWAP1 PUSH1 0xFF AND DUP2 JUMP JUMPDEST PUSH3 0x155 PUSH3 0x1BB CALLDATASIZE PUSH1 0x4 PUSH3 0x258F JUMP JUMPDEST PUSH3 0x6B9 JUMP JUMPDEST PUSH3 0x18D PUSH3 0x1D2 CALLDATASIZE PUSH1 0x4 PUSH3 0x258F JUMP JUMPDEST PUSH1 0xD PUSH1 0x20 MSTORE PUSH1 0x0 SWAP1 DUP2 MSTORE PUSH1 0x40 SWAP1 KECCAK256 SLOAD DUP2 JUMP JUMPDEST PUSH3 0x18D PUSH3 0x1F5 CALLDATASIZE PUSH1 0x4 PUSH3 0x258F JUMP JUMPDEST PUSH1 0xE PUSH1 0x20 MSTORE PUSH1 0x0 SWAP1 DUP2 MSTORE PUSH1 0x40 SWAP1 KECCAK256 SLOAD DUP2 JUMP JUMPDEST PUSH3 0x155 PUSH3 0xD15 JUMP JUMPDEST PUSH3 0x155 PUSH3 0x222 CALLDATASIZE PUSH1 0x4 PUSH3 0x272D JUMP JUMPDEST PUSH3 0xDEF JUMP JUMPDEST PUSH3 0x174 PUSH3 0xEF1 JUMP JUMPDEST PUSH3 0x249 PUSH3 0x243 CALLDATASIZE PUSH1 0x4 PUSH3 0x27BB JUMP JUMPDEST PUSH3 0xF00 JUMP JUMPDEST PUSH1 0x40 DUP1 MLOAD PUSH1 0x1 PUSH1 0x1 PUSH1 0xA0 SHL SUB SWAP1 SWAP5 AND DUP5 MSTORE PUSH1 0x20 DUP5 ADD SWAP3 SWAP1 SWAP3 MSTORE PUSH1 0xFF AND SWAP1 DUP3 ADD MSTORE PUSH1 0x60 ADD PUSH3 0x161 JUMP JUMPDEST PUSH3 0x155 PUSH3 0x283 CALLDATASIZE PUSH1 0x4 PUSH3 0x25CD JUMP JUMPDEST PUSH3 0xF41 JUMP JUMPDEST PUSH3 0x174 PUSH3 0x10F1 JUMP JUMPDEST PUSH3 0x155 PUSH3 0x2A4 CALLDATASIZE PUSH1 0x4 PUSH3 0x267A JUMP JUMPDEST PUSH3 0x1100 JUMP JUMPDEST PUSH1 0x2 SLOAD PUSH3 0x155 SWAP1 PUSH1 0x1 PUSH1 0xA0 SHL SWAP1 DIV PUSH1 0xFF AND DUP2 JUMP JUMPDEST PUSH3 0x18D PUSH1 0x6 SLOAD DUP2 JUMP JUMPDEST PUSH3 0x249 PUSH3 0x2DA CALLDATASIZE PUSH1 0x4 PUSH3 0x27BB JUMP JUMPDEST PUSH3 0x122F JUMP JUMPDEST PUSH1 0x2 SLOAD PUSH3 0x2F4 SWAP1 PUSH1 0x1 PUSH1 0x1 PUSH1 0xA0 SHL SUB AND DUP2 JUMP JUMPDEST PUSH1 0x40 MLOAD PUSH1 0x1 PUSH1 0x1 PUSH1 0xA0 SHL SUB SWAP1 SWAP2 AND DUP2 MSTORE PUSH1 0x20 ADD PUSH3 0x161 JUMP JUMPDEST PUSH3 0x174 PUSH3 0x1240 JUMP JUMPDEST PUSH1 0xF SLOAD PUSH1 0x40 DUP1 MLOAD PUSH4 0x6AE7095 PUSH1 0xE0 SHL DUP2 MSTORE SWAP1 MLOAD PUSH1 0x0 SWAP3 PUSH1 0x1 PUSH1 0x1 PUSH1 0xA0 SHL SUB AND SWAP2 PUSH4 0x6AE7095 SWAP2 PUSH1 0x4 DUP1 DUP4 ADD SWAP3 PUSH1 0x20 SWAP3 SWAP2 SWAP1 DUP3 SWAP1 SUB ADD DUP2 DUP7 DUP1 EXTCODESIZE ISZERO DUP1 ISZERO PUSH3 0x35D JUMPI PUSH1 0x0 DUP1 REVERT JUMPDEST POP GAS STATICCALL ISZERO DUP1 ISZERO PUSH3 0x372 JUMPI RETURNDATASIZE PUSH1 0x0 DUP1 RETURNDATACOPY RETURNDATASIZE PUSH1 0x0 REVERT JUMPDEST POP POP POP POP PUSH1 0x40 MLOAD RETURNDATASIZE PUSH1 0x1F NOT PUSH1 0x1F DUP3 ADD AND DUP3 ADD DUP1 PUSH1 0x40 MSTORE POP DUP2 ADD SWAP1 PUSH3 0x398 SWAP2 SWAP1 PUSH3 0x25AE JUMP JUMPDEST PUSH1 0x1 PUSH1 0x1 PUSH1 0xA0 SHL SUB AND CALLER PUSH1 0x1 PUSH1 0x1 PUSH1 0xA0 SHL SUB AND EQ PUSH3 0x3D4 JUMPI PUSH1 0x40 MLOAD PUSH3 0x461BCD PUSH1 0xE5 SHL DUP2 MSTORE PUSH1 0x4 ADD PUSH3 0x3CB SWAP1 PUSH3 0x2840 JUMP JUMPDEST PUSH1 0x40 MLOAD DUP1 SWAP2 SUB SWAP1 REVERT JUMPDEST PUSH1 0x0 DUP3 SWAP1 POP PUSH1 0x0 DUP2 PUSH1 0x1 PUSH1 0x1 PUSH1 0xA0 SHL SUB AND PUSH4 0x8AAC9CCA PUSH1 0x40 MLOAD DUP2 PUSH4 0xFFFFFFFF AND PUSH1 0xE0 SHL DUP2 MSTORE PUSH1 0x4 ADD PUSH1 0x20 PUSH1 0x40 MLOAD DUP1 DUP4 SUB DUP2 DUP7 DUP1 EXTCODESIZE ISZERO DUP1 ISZERO PUSH3 0x415 JUMPI PUSH1 0x0 DUP1 REVERT JUMPDEST POP GAS STATICCALL ISZERO DUP1 ISZERO PUSH3 0x42A JUMPI RETURNDATASIZE PUSH1 0x0 DUP1 RETURNDATACOPY RETURNDATASIZE PUSH1 0x0 REVERT JUMPDEST POP POP POP POP PUSH1 0x40 MLOAD RETURNDATASIZE PUSH1 0x1F NOT PUSH1 0x1F DUP3 ADD AND DUP3 ADD DUP1 PUSH1 0x40 MSTORE POP DUP2 ADD SWAP1 PUSH3 0x450 SWAP2 SWAP1 PUSH3 0x27D4 JUMP JUMPDEST DUP3 PUSH1 0x1 PUSH1 0x1 PUSH1 0xA0 SHL SUB AND PUSH4 0x3A4B66F1 PUSH1 0x40 MLOAD DUP2 PUSH4 0xFFFFFFFF AND PUSH1 0xE0 SHL DUP2 MSTORE PUSH1 0x4 ADD PUSH1 0x20 PUSH1 0x40 MLOAD DUP1 DUP4 SUB DUP2 DUP7 DUP1 EXTCODESIZE ISZERO DUP1 ISZERO PUSH3 0x48A JUMPI PUSH1 0x0 DUP1 REVERT JUMPDEST POP GAS STATICCALL ISZERO DUP1 ISZERO PUSH3 0x49F JUMPI RETURNDATASIZE PUSH1 0x0 DUP1 RETURNDATACOPY RETURNDATASIZE PUSH1 0x0 REVERT JUMPDEST POP POP POP POP PUSH1 0x40 MLOAD RETURNDATASIZE PUSH1 0x1F NOT PUSH1 0x1F DUP3 ADD AND DUP3 ADD DUP1 PUSH1 0x40 MSTORE POP DUP2 ADD SWAP1 PUSH3 0x4C5 SWAP2 SWAP1 PUSH3 0x27D4 JUMP JUMPDEST PUSH3 0x4D1 SWAP2 SWAP1 PUSH3 0x291E JUMP JUMPDEST SWAP1 POP DUP1 SELFBALANCE GT PUSH3 0x50D JUMPI PUSH1 0x40 MLOAD PUSH3 0x461BCD PUSH1 0xE5 SHL DUP2 MSTORE PUSH1 0x20 PUSH1 0x4 DUP3 ADD MSTORE PUSH1 0x6 PUSH1 0x24 DUP3 ADD MSTORE PUSH6 0xC08199D5B99 PUSH1 0xD2 SHL PUSH1 0x44 DUP3 ADD MSTORE PUSH1 0x64 ADD PUSH3 0x3CB JUMP JUMPDEST PUSH3 0x59A DUP3 PUSH1 0x1 PUSH1 0x1 PUSH1 0xA0 SHL SUB AND PUSH4 0x718C7D44 PUSH1 0x40 MLOAD DUP2 PUSH4 0xFFFFFFFF AND PUSH1 0xE0 SHL DUP2 MSTORE PUSH1 0x4 ADD PUSH1 0x20 PUSH1 0x40 MLOAD DUP1 DUP4 SUB DUP2 DUP7 DUP1 EXTCODESIZE ISZERO DUP1 ISZERO PUSH3 0x54B JUMPI PUSH1 0x0 DUP1 REVERT JUMPDEST POP GAS STATICCALL ISZERO DUP1 ISZERO PUSH3 0x560 JUMPI RETURNDATASIZE PUSH1 0x0 DUP1 RETURNDATACOPY RETURNDATASIZE PUSH1 0x0 REVERT JUMPDEST POP POP POP POP PUSH1 0x40 MLOAD RETURNDATASIZE PUSH1 0x1F NOT PUSH1 0x1F DUP3 ADD AND DUP3 ADD DUP1 PUSH1 0x40 MSTORE POP DUP2 ADD SWAP1 PUSH3 0x586 SWAP2 SWAP1 PUSH3 0x25AE JUMP JUMPDEST PUSH1 0x11 SLOAD PUSH1 0x1 PUSH1 0x1 PUSH1 0xA0 SHL SUB AND SWAP1 DUP4 PUSH3 0x124F JUMP JUMPDEST PUSH1 0x40 MLOAD PUSH4 0x2D267E03 PUSH1 0xE1 SHL DUP2 MSTORE PUSH1 0x4 DUP2 ADD DUP3 SWAP1 MSTORE PUSH1 0x1 PUSH1 0x1 PUSH1 0xA0 SHL SUB DUP4 AND SWAP1 PUSH4 0x5A4CFC06 SWAP1 PUSH1 0x24 ADD PUSH1 0x20 PUSH1 0x40 MLOAD DUP1 DUP4 SUB DUP2 PUSH1 0x0 DUP8 DUP1 EXTCODESIZE ISZERO DUP1 ISZERO PUSH3 0x5DD JUMPI PUSH1 0x0 DUP1 REVERT JUMPDEST POP GAS CALL ISZERO DUP1 ISZERO PUSH3 0x5F2 JUMPI RETURNDATASIZE PUSH1 0x0 DUP1 RETURNDATACOPY RETURNDATASIZE PUSH1 0x0 REVERT JUMPDEST POP POP POP POP PUSH1 0x40 MLOAD RETURNDATASIZE PUSH1 0x1F NOT PUSH1 0x1F DUP3 ADD AND DUP3 ADD DUP1 PUSH1 0x40 MSTORE POP DUP2 ADD SWAP1 PUSH3 0x618 SWAP2 SWAP1 PUSH3 0x2658 JUMP JUMPDEST POP PUSH1 0x1 SWAP5 SWAP4 POP POP POP POP JUMP JUMPDEST PUSH1 0x1 DUP1 SLOAD PUSH3 0x632 SWAP1 PUSH3 0x298D JUMP JUMPDEST DUP1 PUSH1 0x1F ADD PUSH1 0x20 DUP1 SWAP2 DIV MUL PUSH1 0x20 ADD PUSH1 0x40 MLOAD SWAP1 DUP2 ADD PUSH1 0x40 MSTORE DUP1 SWAP3 SWAP2 SWAP1 DUP2 DUP2 MSTORE PUSH1 0x20 ADD DUP3 DUP1 SLOAD PUSH3 0x660 SWAP1 PUSH3 0x298D JUMP JUMPDEST DUP1 ISZERO PUSH3 0x6B1 JUMPI DUP1 PUSH1 0x1F LT PUSH3 0x685 JUMPI PUSH2 0x100 DUP1 DUP4 SLOAD DIV MUL DUP4 MSTORE SWAP2 PUSH1 0x20 ADD SWAP2 PUSH3 0x6B1 JUMP JUMPDEST DUP3 ADD SWAP2 SWAP1 PUSH1 0x0 MSTORE PUSH1 0x20 PUSH1 0x0 KECCAK256 SWAP1 JUMPDEST DUP2 SLOAD DUP2 MSTORE SWAP1 PUSH1 0x1 ADD SWAP1 PUSH1 0x20 ADD DUP1 DUP4 GT PUSH3 0x693 JUMPI DUP3 SWAP1 SUB PUSH1 0x1F AND DUP3 ADD SWAP2 JUMPDEST POP POP POP POP POP DUP2 JUMP JUMPDEST PUSH1 0xF SLOAD PUSH1 0x40 DUP1 MLOAD PUSH4 0x6AE7095 PUSH1 0xE0 SHL DUP2 MSTORE SWAP1 MLOAD PUSH1 0x0 SWAP3 PUSH1 0x1 PUSH1 0x1 PUSH1 0xA0 SHL SUB AND SWAP2 PUSH4 0x6AE7095 SWAP2 PUSH1 0x4 DUP1 DUP4 ADD SWAP3 PUSH1 0x20 SWAP3 SWAP2 SWAP1 DUP3 SWAP1 SUB ADD DUP2 DUP7 DUP1 EXTCODESIZE ISZERO DUP1 ISZERO PUSH3 0x6FF JUMPI PUSH1 0x0 DUP1 REVERT JUMPDEST POP GAS STATICCALL ISZERO DUP1 ISZERO PUSH3 0x714 JUMPI RETURNDATASIZE PUSH1 0x0 DUP1 RETURNDATACOPY RETURNDATASIZE PUSH1 0x0 REVERT JUMPDEST POP POP POP POP PUSH1 0x40 MLOAD RETURNDATASIZE PUSH1 0x1F NOT PUSH1 0x1F DUP3 ADD AND DUP3 ADD DUP1 PUSH1 0x40 MSTORE POP DUP2 ADD SWAP1 PUSH3 0x73A SWAP2 SWAP1 PUSH3 0x25AE JUMP JUMPDEST PUSH1 0x1 PUSH1 0x1 PUSH1 0xA0 SHL SUB AND CALLER PUSH1 0x1 PUSH1 0x1 PUSH1 0xA0 SHL SUB AND EQ PUSH3 0x76D JUMPI PUSH1 0x40 MLOAD PUSH3 0x461BCD PUSH1 0xE5 SHL DUP2 MSTORE PUSH1 0x4 ADD PUSH3 0x3CB SWAP1 PUSH3 0x2840 JUMP JUMPDEST PUSH1 0x0 DUP3 SWAP1 POP PUSH1 0x0 DUP2 PUSH1 0x1 PUSH1 0x1 PUSH1 0xA0 SHL SUB AND PUSH4 0x80F55605 PUSH1 0x40 MLOAD DUP2 PUSH4 0xFFFFFFFF AND PUSH1 0xE0 SHL DUP2 MSTORE PUSH1 0x4 ADD PUSH1 0x20 PUSH1 0x40 MLOAD DUP1 DUP4 SUB DUP2 DUP7 DUP1 EXTCODESIZE ISZERO DUP1 ISZERO PUSH3 0x7AE JUMPI PUSH1 0x0 DUP1 REVERT JUMPDEST POP GAS STATICCALL ISZERO DUP1 ISZERO PUSH3 0x7C3 JUMPI RETURNDATASIZE PUSH1 0x0 DUP1 RETURNDATACOPY RETURNDATASIZE PUSH1 0x0 REVERT JUMPDEST POP POP POP POP PUSH1 0x40 MLOAD RETURNDATASIZE PUSH1 0x1F NOT PUSH1 0x1F DUP3 ADD AND DUP3 ADD DUP1 PUSH1 0x40 MSTORE POP DUP2 ADD SWAP1 PUSH3 0x7E9 SWAP2 SWAP1 PUSH3 0x25AE JUMP JUMPDEST SWAP1 POP PUSH1 0x0 DUP3 PUSH1 0x1 PUSH1 0x1 PUSH1 0xA0 SHL SUB AND PUSH4 0x15E894AB PUSH1 0x40 MLOAD DUP2 PUSH4 0xFFFFFFFF AND PUSH1 0xE0 SHL DUP2 MSTORE PUSH1 0x4 ADD PUSH1 0x20 PUSH1 0x40 MLOAD DUP1 DUP4 SUB DUP2 DUP7 DUP1 EXTCODESIZE ISZERO DUP1 ISZERO PUSH3 0x827 JUMPI PUSH1 0x0 DUP1 REVERT JUMPDEST POP GAS STATICCALL ISZERO DUP1 ISZERO PUSH3 0x83C JUMPI RETURNDATASIZE PUSH1 0x0 DUP1 RETURNDATACOPY RETURNDATASIZE PUSH1 0x0 REVERT JUMPDEST POP POP POP POP PUSH1 0x40 MLOAD RETURNDATASIZE PUSH1 0x1F NOT PUSH1 0x1F DUP3 ADD AND DUP3 ADD DUP1 PUSH1 0x40 MSTORE POP DUP2 ADD SWAP1 PUSH3 0x862 SWAP2 SWAP1 PUSH3 0x25AE JUMP JUMPDEST SWAP1 POP PUSH1 0x0 DUP4 PUSH1 0x1 PUSH1 0x1 PUSH1 0xA0 SHL SUB AND PUSH4 0xF765E6D PUSH1 0x40 MLOAD DUP2 PUSH4 0xFFFFFFFF AND PUSH1 0xE0 SHL DUP2 MSTORE PUSH1 0x4 ADD PUSH1 0x20 PUSH1 0x40 MLOAD DUP1 DUP4 SUB DUP2 DUP7 DUP1 EXTCODESIZE ISZERO DUP1 ISZERO PUSH3 0x8A0 JUMPI PUSH1 0x0 DUP1 REVERT JUMPDEST POP GAS STATICCALL ISZERO DUP1 ISZERO PUSH3 0x8B5 JUMPI RETURNDATASIZE PUSH1 0x0 DUP1 RETURNDATACOPY RETURNDATASIZE PUSH1 0x0 REVERT JUMPDEST POP POP POP POP PUSH1 0x40 MLOAD RETURNDATASIZE PUSH1 0x1F NOT PUSH1 0x1F DUP3 ADD AND DUP3 ADD DUP1 PUSH1 0x40 MSTORE POP DUP2 ADD SWAP1 PUSH3 0x8DB SWAP2 SWAP1 PUSH3 0x25AE JUMP JUMPDEST SWAP1 POP PUSH1 0x0 DUP5 PUSH1 0x1 PUSH1 0x1 PUSH1 0xA0 SHL SUB AND PUSH4 0x156DCBF0 PUSH1 0x40 MLOAD DUP2 PUSH4 0xFFFFFFFF AND PUSH1 0xE0 SHL DUP2 MSTORE PUSH1 0x4 ADD PUSH1 0x20 PUSH1 0x40 MLOAD DUP1 DUP4 SUB DUP2 DUP7 DUP1 EXTCODESIZE ISZERO DUP1 ISZERO PUSH3 0x919 JUMPI PUSH1 0x0 DUP1 REVERT JUMPDEST POP GAS STATICCALL ISZERO DUP1 ISZERO PUSH3 0x92E JUMPI RETURNDATASIZE PUSH1 0x0 DUP1 RETURNDATACOPY RETURNDATASIZE PUSH1 0x0 REVERT JUMPDEST POP POP POP POP PUSH1 0x40 MLOAD RETURNDATASIZE PUSH1 0x1F NOT PUSH1 0x1F DUP3 ADD AND DUP3 ADD DUP1 PUSH1 0x40 MSTORE POP DUP2 ADD SWAP1 PUSH3 0x954 SWAP2 SWAP1 PUSH3 0x27D4 JUMP JUMPDEST SWAP1 POP PUSH1 0x0 DUP6 PUSH1 0x1 PUSH1 0x1 PUSH1 0xA0 SHL SUB AND PUSH4 0x2EFE91EF PUSH1 0x40 MLOAD DUP2 PUSH4 0xFFFFFFFF AND PUSH1 0xE0 SHL DUP2 MSTORE PUSH1 0x4 ADD PUSH1 0x20 PUSH1 0x40 MLOAD DUP1 DUP4 SUB DUP2 DUP7 DUP1 EXTCODESIZE ISZERO DUP1 ISZERO PUSH3 0x992 JUMPI PUSH1 0x0 DUP1 REVERT JUMPDEST POP GAS STATICCALL ISZERO DUP1 ISZERO PUSH3 0x9A7 JUMPI RETURNDATASIZE PUSH1 0x0 DUP1 RETURNDATACOPY RETURNDATASIZE PUSH1 0x0 REVERT JUMPDEST POP POP POP POP PUSH1 0x40 MLOAD RETURNDATASIZE PUSH1 0x1F NOT PUSH1 0x1F DUP3 ADD AND DUP3 ADD DUP1 PUSH1 0x40 MSTORE POP DUP2 ADD SWAP1 PUSH3 0x9CD SWAP2 SWAP1 PUSH3 0x27D4 JUMP JUMPDEST SWAP1 POP PUSH1 0x0 DUP6 SWAP1 POP DUP1 PUSH1 0x1 PUSH1 0x1 PUSH1 0xA0 SHL SUB AND PUSH4 0xBD92630C PUSH1 0x40 MLOAD DUP2 PUSH4 0xFFFFFFFF AND PUSH1 0xE0 SHL DUP2 MSTORE PUSH1 0x4 ADD PUSH1 0x20 PUSH1 0x40 MLOAD DUP1 DUP4 SUB DUP2 DUP7 DUP1 EXTCODESIZE ISZERO DUP1 ISZERO PUSH3 0xA0E JUMPI PUSH1 0x0 DUP1 REVERT JUMPDEST POP GAS STATICCALL ISZERO DUP1 ISZERO PUSH3 0xA23 JUMPI RETURNDATASIZE PUSH1 0x0 DUP1 RETURNDATACOPY RETURNDATASIZE PUSH1 0x0 REVERT JUMPDEST POP POP POP POP PUSH1 0x40 MLOAD RETURNDATASIZE PUSH1 0x1F NOT PUSH1 0x1F DUP3 ADD AND DUP3 ADD DUP1 PUSH1 0x40 MSTORE POP DUP2 ADD SWAP1 PUSH3 0xA49 SWAP2 SWAP1 PUSH3 0x2658 JUMP JUMPDEST PUSH3 0xA83 JUMPI PUSH1 0x40 MLOAD PUSH3 0x461BCD PUSH1 0xE5 SHL DUP2 MSTORE PUSH1 0x20 PUSH1 0x4 DUP3 ADD MSTORE PUSH1 0x9 PUSH1 0x24 DUP3 ADD MSTORE PUSH9 0x36B5BA1018103BB4B7 PUSH1 0xB9 SHL PUSH1 0x44 DUP3 ADD MSTORE PUSH1 0x64 ADD PUSH3 0x3CB JUMP JUMPDEST PUSH1 0x40 MLOAD PUSH5 0x7369646541 PUSH1 0xD8 SHL PUSH1 0x20 DUP3 ADD MSTORE PUSH1 0x25 ADD PUSH1 0x40 MLOAD PUSH1 0x20 DUP2 DUP4 SUB SUB DUP2 MSTORE SWAP1 PUSH1 0x40 MSTORE DUP1 MLOAD SWAP1 PUSH1 0x20 ADD KECCAK256 DUP2 PUSH1 0x1 PUSH1 0x1 PUSH1 0xA0 SHL SUB AND PUSH4 0xFBF06338 PUSH1 0x40 MLOAD DUP2 PUSH4 0xFFFFFFFF AND PUSH1 0xE0 SHL DUP2 MSTORE PUSH1 0x4 ADD PUSH1 0x0 PUSH1 0x40 MLOAD DUP1 DUP4 SUB DUP2 DUP7 DUP1 EXTCODESIZE ISZERO DUP1 ISZERO PUSH3 0xAE7 JUMPI PUSH1 0x0 DUP1 REVERT JUMPDEST POP GAS STATICCALL ISZERO DUP1 ISZERO PUSH3 0xAFC JUMPI RETURNDATASIZE PUSH1 0x0 DUP1 RETURNDATACOPY RETURNDATASIZE PUSH1 0x0 REVERT JUMPDEST POP POP POP POP PUSH1 0x40 MLOAD RETURNDATASIZE PUSH1 0x0 DUP3 RETURNDATACOPY PUSH1 0x1F RETURNDATASIZE SWAP1 DUP2 ADD PUSH1 0x1F NOT AND DUP3 ADD PUSH1 0x40 MSTORE PUSH3 0xB26 SWAP2 SWAP1 DUP2 ADD SWAP1 PUSH3 0x26B1 JUMP JUMPDEST PUSH1 0x40 MLOAD PUSH1 0x20 ADD PUSH3 0xB38 SWAP2 SWAP1 PUSH3 0x27ED JUMP JUMPDEST PUSH1 0x40 MLOAD PUSH1 0x20 DUP2 DUP4 SUB SUB DUP2 MSTORE SWAP1 PUSH1 0x40 MSTORE DUP1 MLOAD SWAP1 PUSH1 0x20 ADD KECCAK256 EQ ISZERO PUSH3 0xBB9 JUMPI PUSH3 0xB95 DUP6 PUSH1 0xA PUSH3 0xB69 DUP6 PUSH1 0x9 PUSH3 0x28FC JUMP JUMPDEST PUSH3 0xB75 SWAP2 SWAP1 PUSH3 0x28DB JUMP JUMPDEST PUSH3 0xB81 SWAP1 DUP7 PUSH3 0x28C0 JUMP JUMPDEST PUSH1 0x11 SLOAD PUSH1 0x1 PUSH1 0x1 PUSH1 0xA0 SHL SUB AND SWAP2 SWAP1 PUSH3 0x124F JUMP JUMPDEST PUSH1 0x0 SLOAD PUSH3 0xBB3 SWAP1 PUSH1 0x1 PUSH1 0x1 PUSH1 0xA0 SHL SUB AND PUSH3 0xB81 PUSH1 0xA DUP6 PUSH3 0x28DB JUMP JUMPDEST PUSH3 0xD06 JUMP JUMPDEST PUSH1 0x40 MLOAD PUSH5 0x39B4B232A1 PUSH1 0xD9 SHL PUSH1 0x20 DUP3 ADD MSTORE PUSH1 0x25 ADD PUSH1 0x40 MLOAD PUSH1 0x20 DUP2 DUP4 SUB SUB DUP2 MSTORE SWAP1 PUSH1 0x40 MSTORE DUP1 MLOAD SWAP1 PUSH1 0x20 ADD KECCAK256 DUP2 PUSH1 0x1 PUSH1 0x1 PUSH1 0xA0 SHL SUB AND PUSH4 0xFBF06338 PUSH1 0x40 MLOAD DUP2 PUSH4 0xFFFFFFFF AND PUSH1 0xE0 SHL DUP2 MSTORE PUSH1 0x4 ADD PUSH1 0x0 PUSH1 0x40 MLOAD DUP1 DUP4 SUB DUP2 DUP7 DUP1 EXTCODESIZE ISZERO DUP1 ISZERO PUSH3 0xC1D JUMPI PUSH1 0x0 DUP1 REVERT JUMPDEST POP GAS STATICCALL ISZERO DUP1 ISZERO PUSH3 0xC32 JUMPI RETURNDATASIZE PUSH1 0x0 DUP1 RETURNDATACOPY RETURNDATASIZE PUSH1 0x0 REVERT JUMPDEST POP POP POP POP PUSH1 0x40 MLOAD RETURNDATASIZE PUSH1 0x0 DUP3 RETURNDATACOPY PUSH1 0x1F RETURNDATASIZE SWAP1 DUP2 ADD PUSH1 0x1F NOT AND DUP3 ADD PUSH1 0x40 MSTORE PUSH3 0xC5C SWAP2 SWAP1 DUP2 ADD SWAP1 PUSH3 0x26B1 JUMP JUMPDEST PUSH1 0x40 MLOAD PUSH1 0x20 ADD PUSH3 0xC6E SWAP2 SWAP1 PUSH3 0x27ED JUMP JUMPDEST PUSH1 0x40 MLOAD PUSH1 0x20 DUP2 DUP4 SUB SUB DUP2 MSTORE SWAP1 PUSH1 0x40 MSTORE DUP1 MLOAD SWAP1 PUSH1 0x20 ADD KECCAK256 EQ ISZERO PUSH3 0xCD5 JUMPI PUSH3 0xCB7 DUP5 PUSH1 0xA PUSH3 0xC9F DUP7 PUSH1 0x9 PUSH3 0x28FC JUMP JUMPDEST PUSH3 0xCAB SWAP2 SWAP1 PUSH3 0x28DB JUMP JUMPDEST PUSH3 0xB81 SWAP1 DUP6 PUSH3 0x28C0 JUMP JUMPDEST PUSH1 0x0 SLOAD PUSH3 0xBB3 SWAP1 PUSH1 0x1 PUSH1 0x1 PUSH1 0xA0 SHL SUB AND PUSH3 0xB81 PUSH1 0xA DUP7 PUSH3 0x28DB JUMP JUMPDEST PUSH1 0x40 MLOAD PUSH3 0x461BCD PUSH1 0xE5 SHL DUP2 MSTORE PUSH1 0x20 PUSH1 0x4 DUP3 ADD MSTORE PUSH1 0x5 PUSH1 0x24 DUP3 ADD MSTORE PUSH5 0x3C103BB4B7 PUSH1 0xD9 SHL PUSH1 0x44 DUP3 ADD MSTORE PUSH1 0x64 ADD PUSH3 0x3CB JUMP JUMPDEST POP PUSH1 0x1 SWAP9 SWAP8 POP POP POP POP POP POP POP POP JUMP JUMPDEST PUSH1 0xF SLOAD PUSH1 0x40 DUP1 MLOAD PUSH4 0x6AE7095 PUSH1 0xE0 SHL DUP2 MSTORE SWAP1 MLOAD PUSH1 0x0 SWAP3 PUSH1 0x1 PUSH1 0x1 PUSH1 0xA0 SHL SUB AND SWAP2 PUSH4 0x6AE7095 SWAP2 PUSH1 0x4 DUP1 DUP4 ADD SWAP3 PUSH1 0x20 SWAP3 SWAP2 SWAP1 DUP3 SWAP1 SUB ADD DUP2 DUP7 DUP1 EXTCODESIZE ISZERO DUP1 ISZERO PUSH3 0xD5B JUMPI PUSH1 0x0 DUP1 REVERT JUMPDEST POP GAS STATICCALL ISZERO DUP1 ISZERO PUSH3 0xD70 JUMPI RETURNDATASIZE PUSH1 0x0 DUP1 RETURNDATACOPY RETURNDATASIZE PUSH1 0x0 REVERT JUMPDEST POP POP POP POP PUSH1 0x40 MLOAD RETURNDATASIZE PUSH1 0x1F NOT PUSH1 0x1F DUP3 ADD AND DUP3 ADD DUP1 PUSH1 0x40 MSTORE POP DUP2 ADD SWAP1 PUSH3 0xD96 SWAP2 SWAP1 PUSH3 0x25AE JUMP JUMPDEST PUSH1 0x1 PUSH1 0x1 PUSH1 0xA0 SHL SUB AND CALLER PUSH1 0x1 PUSH1 0x1 PUSH1 0xA0 SHL SUB AND EQ PUSH3 0xDC9 JUMPI PUSH1 0x40 MLOAD PUSH3 0x461BCD PUSH1 0xE5 SHL DUP2 MSTORE PUSH1 0x4 ADD PUSH3 0x3CB SWAP1 PUSH3 0x2840 JUMP JUMPDEST PUSH1 0x4 SLOAD PUSH1 0xFF AND ISZERO PUSH3 0xDDB JUMPI POP PUSH1 0x1 SWAP1 JUMP JUMPDEST POP PUSH1 0x4 DUP1 SLOAD PUSH1 0xFF NOT AND PUSH1 0x1 SWAP1 DUP2 OR SWAP1 SWAP2 SSTORE SWAP1 JUMP JUMPDEST PUSH1 0xF SLOAD PUSH1 0x40 DUP1 MLOAD PUSH4 0x6AE7095 PUSH1 0xE0 SHL DUP2 MSTORE SWAP1 MLOAD PUSH1 0x0 SWAP3 PUSH1 0x1 PUSH1 0x1 PUSH1 0xA0 SHL SUB AND SWAP2 PUSH4 0x6AE7095 SWAP2 PUSH1 0x4 DUP1 DUP4 ADD SWAP3 PUSH1 0x20 SWAP3 SWAP2 SWAP1 DUP3 SWAP1 SUB ADD DUP2 DUP7 DUP1 EXTCODESIZE ISZERO DUP1 ISZERO PUSH3 0xE35 JUMPI PUSH1 0x0 DUP1 REVERT JUMPDEST POP GAS STATICCALL ISZERO DUP1 ISZERO PUSH3 0xE4A JUMPI RETURNDATASIZE PUSH1 0x0 DUP1 RETURNDATACOPY RETURNDATASIZE PUSH1 0x0 REVERT JUMPDEST POP POP POP POP PUSH1 0x40 MLOAD RETURNDATASIZE PUSH1 0x1F NOT PUSH1 0x1F DUP3 ADD AND DUP3 ADD DUP1 PUSH1 0x40 MSTORE POP DUP2 ADD SWAP1 PUSH3 0xE70 SWAP2 SWAP1 PUSH3 0x25AE JUMP JUMPDEST PUSH1 0x1 PUSH1 0x1 PUSH1 0xA0 SHL SUB AND CALLER PUSH1 0x1 PUSH1 0x1 PUSH1 0xA0 SHL SUB AND EQ PUSH3 0xEA3 JUMPI PUSH1 0x40 MLOAD PUSH3 0x461BCD PUSH1 0xE5 SHL DUP2 MSTORE PUSH1 0x4 ADD PUSH3 0x3CB SWAP1 PUSH3 0x2840 JUMP JUMPDEST DUP4 MLOAD PUSH3 0xEB8 SWAP1 PUSH1 0x1 SWAP1 PUSH1 0x20 DUP8 ADD SWAP1 PUSH3 0x2484 JUMP JUMPDEST POP DUP3 MLOAD PUSH3 0xECE SWAP1 PUSH1 0x5 SWAP1 PUSH1 0x20 DUP7 ADD SWAP1 PUSH3 0x2484 JUMP JUMPDEST POP DUP2 MLOAD PUSH3 0xEE4 SWAP1 PUSH1 0x7 SWAP1 PUSH1 0x20 DUP6 ADD SWAP1 PUSH3 0x2484 JUMP JUMPDEST POP PUSH1 0x1 SWAP1 POP JUMPDEST SWAP4 SWAP3 POP POP POP JUMP JUMPDEST PUSH1 0x5 DUP1 SLOAD PUSH3 0x632 SWAP1 PUSH3 0x298D JUMP JUMPDEST PUSH1 0x9 DUP2 DUP2 SLOAD DUP2 LT PUSH3 0xF11 JUMPI PUSH1 0x0 DUP1 REVERT JUMPDEST PUSH1 0x0 SWAP2 DUP3 MSTORE PUSH1 0x20 SWAP1 SWAP2 KECCAK256 PUSH1 0x3 SWAP1 SWAP2 MUL ADD DUP1 SLOAD PUSH1 0x1 DUP3 ADD SLOAD PUSH1 0x2 SWAP1 SWAP3 ADD SLOAD PUSH1 0x1 PUSH1 0x1 PUSH1 0xA0 SHL SUB SWAP1 SWAP2 AND SWAP3 POP PUSH1 0xFF AND DUP4 JUMP JUMPDEST PUSH1 0xF SLOAD PUSH1 0x40 DUP1 MLOAD PUSH4 0x5C352C3 PUSH1 0xE3 SHL DUP2 MSTORE SWAP1 MLOAD PUSH1 0x0 SWAP3 PUSH1 0x1 PUSH1 0x1 PUSH1 0xA0 SHL SUB AND SWAP2 PUSH4 0x2E1A9618 SWAP2 PUSH1 0x4 DUP1 DUP4 ADD SWAP3 PUSH1 0x20 SWAP3 SWAP2 SWAP1 DUP3 SWAP1 SUB ADD DUP2 DUP7 DUP1 EXTCODESIZE ISZERO DUP1 ISZERO PUSH3 0xF87 JUMPI PUSH1 0x0 DUP1 REVERT JUMPDEST POP GAS STATICCALL ISZERO DUP1 ISZERO PUSH3 0xF9C JUMPI RETURNDATASIZE PUSH1 0x0 DUP1 RETURNDATACOPY RETURNDATASIZE PUSH1 0x0 REVERT JUMPDEST POP POP POP POP PUSH1 0x40 MLOAD RETURNDATASIZE PUSH1 0x1F NOT PUSH1 0x1F DUP3 ADD AND DUP3 ADD DUP1 PUSH1 0x40 MSTORE POP DUP2 ADD SWAP1 PUSH3 0xFC2 SWAP2 SWAP1 PUSH3 0x25AE JUMP JUMPDEST PUSH1 0x1 PUSH1 0x1 PUSH1 0xA0 SHL SUB AND CALLER PUSH1 0x1 PUSH1 0x1 PUSH1 0xA0 SHL SUB AND EQ PUSH3 0xFF5 JUMPI PUSH1 0x40 MLOAD PUSH3 0x461BCD PUSH1 0xE5 SHL DUP2 MSTORE PUSH1 0x4 ADD PUSH3 0x3CB SWAP1 PUSH3 0x2840 JUMP JUMPDEST PUSH1 0x40 MLOAD PUSH5 0x7369646541 PUSH1 0xD8 SHL PUSH1 0x20 DUP3 ADD MSTORE PUSH1 0x25 ADD PUSH1 0x40 MLOAD PUSH1 0x20 DUP2 DUP4 SUB SUB DUP2 MSTORE SWAP1 PUSH1 0x40 MSTORE DUP1 MLOAD SWAP1 PUSH1 0x20 ADD KECCAK256 DUP3 PUSH1 0x40 MLOAD PUSH1 0x20 ADD PUSH3 0x1032 SWAP2 SWAP1 PUSH3 0x27ED JUMP JUMPDEST PUSH1 0x40 MLOAD PUSH1 0x20 DUP2 DUP4 SUB SUB DUP2 MSTORE SWAP1 PUSH1 0x40 MSTORE DUP1 MLOAD SWAP1 PUSH1 0x20 ADD KECCAK256 EQ ISZERO PUSH3 0x1070 JUMPI PUSH3 0x105D DUP7 DUP7 DUP7 DUP7 PUSH3 0x12A8 JUMP JUMPDEST PUSH3 0x106A DUP6 DUP6 DUP6 PUSH3 0x13C0 JUMP JUMPDEST PUSH3 0x10E5 JUMP JUMPDEST PUSH1 0x40 MLOAD PUSH5 0x39B4B232A1 PUSH1 0xD9 SHL PUSH1 0x20 DUP3 ADD MSTORE PUSH1 0x25 ADD PUSH1 0x40 MLOAD PUSH1 0x20 DUP2 DUP4 SUB SUB DUP2 MSTORE SWAP1 PUSH1 0x40 MSTORE DUP1 MLOAD SWAP1 PUSH1 0x20 ADD KECCAK256 DUP3 PUSH1 0x40 MLOAD PUSH1 0x20 ADD PUSH3 0x10AD SWAP2 SWAP1 PUSH3 0x27ED JUMP JUMPDEST PUSH1 0x40 MLOAD PUSH1 0x20 DUP2 DUP4 SUB SUB DUP2 MSTORE SWAP1 PUSH1 0x40 MSTORE DUP1 MLOAD SWAP1 PUSH1 0x20 ADD KECCAK256 EQ ISZERO PUSH3 0x10E5 JUMPI PUSH3 0x10D8 DUP7 DUP7 DUP7 DUP7 PUSH3 0x1A6A JUMP JUMPDEST PUSH3 0x10E5 DUP6 DUP6 DUP6 PUSH3 0x1B76 JUMP JUMPDEST POP PUSH1 0x1 SWAP6 SWAP5 POP POP POP POP POP JUMP JUMPDEST PUSH1 0x7 DUP1 SLOAD PUSH3 0x632 SWAP1 PUSH3 0x298D JUMP JUMPDEST PUSH1 0xF SLOAD PUSH1 0x40 DUP1 MLOAD PUSH4 0x6AE7095 PUSH1 0xE0 SHL DUP2 MSTORE SWAP1 MLOAD PUSH1 0x0 SWAP3 PUSH1 0x1 PUSH1 0x1 PUSH1 0xA0 SHL SUB AND SWAP2 PUSH4 0x6AE7095 SWAP2 PUSH1 0x4 DUP1 DUP4 ADD SWAP3 PUSH1 0x20 SWAP3 SWAP2 SWAP1 DUP3 SWAP1 SUB ADD DUP2 DUP7 DUP1 EXTCODESIZE ISZERO DUP1 ISZERO PUSH3 0x1146 JUMPI PUSH1 0x0 DUP1 REVERT JUMPDEST POP GAS STATICCALL ISZERO DUP1 ISZERO PUSH3 0x115B JUMPI RETURNDATASIZE PUSH1 0x0 DUP1 RETURNDATACOPY RETURNDATASIZE PUSH1 0x0 REVERT JUMPDEST POP POP POP POP PUSH1 0x40 MLOAD RETURNDATASIZE PUSH1 0x1F NOT PUSH1 0x1F DUP3 ADD AND DUP3 ADD DUP1 PUSH1 0x40 MSTORE POP DUP2 ADD SWAP1 PUSH3 0x1181 SWAP2 SWAP1 PUSH3 0x25AE JUMP JUMPDEST PUSH1 0x1 PUSH1 0x1 PUSH1 0xA0 SHL SUB AND CALLER PUSH1 0x1 PUSH1 0x1 PUSH1 0xA0 SHL SUB AND EQ PUSH3 0x11B4 JUMPI PUSH1 0x40 MLOAD PUSH3 0x461BCD PUSH1 0xE5 SHL DUP2 MSTORE PUSH1 0x4 ADD PUSH3 0x3CB SWAP1 PUSH3 0x2840 JUMP JUMPDEST PUSH1 0x2 SLOAD PUSH1 0x1 PUSH1 0xA0 SHL SWAP1 DIV PUSH1 0xFF AND ISZERO ISZERO PUSH1 0x1 EQ ISZERO PUSH3 0x11FE JUMPI PUSH1 0x40 MLOAD PUSH3 0x461BCD PUSH1 0xE5 SHL DUP2 MSTORE PUSH1 0x20 PUSH1 0x4 DUP3 ADD MSTORE PUSH1 0x6 PUSH1 0x24 DUP3 ADD MSTORE PUSH6 0x10BC103BB4B7 PUSH1 0xD1 SHL PUSH1 0x44 DUP3 ADD MSTORE PUSH1 0x64 ADD PUSH3 0x3CB JUMP JUMPDEST DUP2 MLOAD PUSH3 0x1213 SWAP1 PUSH1 0x3 SWAP1 PUSH1 0x20 DUP6 ADD SWAP1 PUSH3 0x2484 JUMP JUMPDEST POP POP PUSH1 0x2 DUP1 SLOAD PUSH1 0xFF PUSH1 0xA0 SHL NOT AND PUSH1 0x1 PUSH1 0xA0 SHL OR SWAP1 SSTORE PUSH1 0x1 SWAP2 SWAP1 POP JUMP JUMPDEST PUSH1 0xB DUP2 DUP2 SLOAD DUP2 LT PUSH3 0xF11 JUMPI PUSH1 0x0 DUP1 REVERT JUMPDEST PUSH1 0x3 DUP1 SLOAD PUSH3 0x632 SWAP1 PUSH3 0x298D JUMP JUMPDEST PUSH1 0x40 DUP1 MLOAD PUSH1 0x1 PUSH1 0x1 PUSH1 0xA0 SHL SUB DUP5 AND PUSH1 0x24 DUP3 ADD MSTORE PUSH1 0x44 DUP1 DUP3 ADD DUP5 SWAP1 MSTORE DUP3 MLOAD DUP1 DUP4 SUB SWAP1 SWAP2 ADD DUP2 MSTORE PUSH1 0x64 SWAP1 SWAP2 ADD SWAP1 SWAP2 MSTORE PUSH1 0x20 DUP2 ADD DUP1 MLOAD PUSH1 0x1 PUSH1 0x1 PUSH1 0xE0 SHL SUB AND PUSH4 0xA9059CBB PUSH1 0xE0 SHL OR SWAP1 MSTORE PUSH3 0x12A3 SWAP1 DUP5 SWAP1 PUSH3 0x2219 JUMP JUMPDEST POP POP POP JUMP JUMPDEST DUP2 PUSH1 0x6 PUSH1 0x0 DUP3 DUP3 SLOAD PUSH3 0x12BC SWAP2 SWAP1 PUSH3 0x28C0 JUMP JUMPDEST SWAP1 SWAP2 SSTORE POP POP PUSH1 0x40 DUP1 MLOAD PUSH1 0x60 DUP2 ADD DUP3 MSTORE PUSH1 0x1 PUSH1 0x1 PUSH1 0xA0 SHL SUB DUP6 DUP2 AND DUP3 MSTORE PUSH1 0x20 DUP1 DUP4 ADD DUP7 DUP2 MSTORE PUSH1 0xFF DUP7 DUP2 AND DUP6 DUP8 ADD SWAP1 DUP2 MSTORE PUSH1 0x9 DUP1 SLOAD PUSH1 0x1 DUP2 ADD DUP3 SSTORE PUSH1 0x0 SWAP2 DUP3 MSTORE SWAP7 MLOAD PUSH32 0x6E1540171B6C0C960B71A7020D9F60077F6AF931A8BBF590DA0223DACF75C7AF PUSH1 0x3 SWAP1 SWAP9 MUL SWAP8 DUP9 ADD DUP1 SLOAD PUSH1 0x1 PUSH1 0x1 PUSH1 0xA0 SHL SUB NOT AND SWAP2 DUP9 AND SWAP2 SWAP1 SWAP2 OR SWAP1 SSTORE SWAP3 MLOAD PUSH32 0x6E1540171B6C0C960B71A7020D9F60077F6AF931A8BBF590DA0223DACF75C7B0 DUP8 ADD SSTORE MLOAD PUSH32 0x6E1540171B6C0C960B71A7020D9F60077F6AF931A8BBF590DA0223DACF75C7B1 SWAP1 SWAP6 ADD DUP1 SLOAD PUSH1 0xFF NOT AND SWAP6 SWAP1 SWAP2 AND SWAP5 SWAP1 SWAP5 OR SWAP1 SWAP4 SSTORE SWAP1 DUP8 AND DUP3 MSTORE PUSH1 0xD SWAP1 MSTORE SWAP1 DUP2 KECCAK256 DUP1 SLOAD DUP5 SWAP3 SWAP1 PUSH3 0x13B4 SWAP1 DUP5 SWAP1 PUSH3 0x28C0 JUMP JUMPDEST SWAP1 SWAP2 SSTORE POP POP JUMPDEST POP POP POP POP JUMP JUMPDEST PUSH1 0xC SLOAD DUP1 ISZERO PUSH3 0x1993 JUMPI DUP3 JUMPDEST PUSH8 0xDE0B6B3A7640000 DUP2 LT PUSH3 0x198C JUMPI PUSH1 0x0 DUP1 PUSH1 0x0 JUMPDEST DUP5 DUP2 LT ISZERO PUSH3 0x1483 JUMPI PUSH1 0x0 PUSH1 0xC DUP3 DUP2 SLOAD DUP2 LT PUSH3 0x140F JUMPI PUSH4 0x4E487B71 PUSH1 0xE0 SHL PUSH1 0x0 MSTORE PUSH1 0x32 PUSH1 0x4 MSTORE PUSH1 0x24 PUSH1 0x0 REVERT JUMPDEST PUSH1 0x0 SWAP2 DUP3 MSTORE PUSH1 0x20 SWAP2 DUP3 SWAP1 KECCAK256 PUSH1 0x40 DUP1 MLOAD PUSH1 0x60 DUP2 ADD DUP3 MSTORE PUSH1 0x3 SWAP1 SWAP4 MUL SWAP1 SWAP2 ADD DUP1 SLOAD PUSH1 0x1 PUSH1 0x1 PUSH1 0xA0 SHL SUB AND DUP4 MSTORE PUSH1 0x1 DUP2 ADD SLOAD SWAP4 DUP4 ADD SWAP4 SWAP1 SWAP4 MSTORE PUSH1 0x2 SWAP1 SWAP3 ADD SLOAD PUSH1 0xFF SWAP1 DUP2 AND SWAP3 DUP3 ADD DUP4 SWAP1 MSTORE SWAP1 SWAP3 POP DUP5 AND LT ISZERO PUSH3 0x146D JUMPI DUP1 PUSH1 0x40 ADD MLOAD SWAP3 POP DUP2 SWAP4 POP JUMPDEST POP DUP1 PUSH3 0x147A DUP2 PUSH3 0x29CA JUMP JUMPDEST SWAP2 POP POP PUSH3 0x13E2 JUMP JUMPDEST POP DUP5 PUSH1 0xFF AND DUP2 PUSH1 0xFF AND GT ISZERO PUSH3 0x18AC JUMPI PUSH1 0x0 PUSH1 0xC DUP4 DUP2 SLOAD DUP2 LT PUSH3 0x14B7 JUMPI PUSH4 0x4E487B71 PUSH1 0xE0 SHL PUSH1 0x0 MSTORE PUSH1 0x32 PUSH1 0x4 MSTORE PUSH1 0x24 PUSH1 0x0 REVERT JUMPDEST PUSH1 0x0 SWAP2 DUP3 MSTORE PUSH1 0x20 DUP1 DUP4 KECCAK256 PUSH1 0x40 DUP1 MLOAD PUSH1 0x60 DUP2 ADD DUP3 MSTORE PUSH1 0x3 SWAP1 SWAP5 MUL SWAP1 SWAP2 ADD DUP1 SLOAD PUSH1 0x1 PUSH1 0x1 PUSH1 0xA0 SHL SUB AND DUP1 DUP6 MSTORE PUSH1 0x1 DUP3 ADD SLOAD DUP6 DUP6 ADD MSTORE PUSH1 0x2 SWAP1 SWAP2 ADD SLOAD PUSH1 0xFF AND DUP5 DUP4 ADD MSTORE DUP2 MLOAD PUSH4 0x45564E65 PUSH1 0xE1 SHL DUP2 MSTORE SWAP2 MLOAD SWAP4 SWAP6 POP SWAP4 SWAP3 DUP5 SWAP3 PUSH4 0x8AAC9CCA SWAP3 PUSH1 0x4 DUP1 DUP3 ADD SWAP4 SWAP2 DUP3 SWAP1 SUB ADD DUP2 DUP7 DUP1 EXTCODESIZE ISZERO DUP1 ISZERO PUSH3 0x152E JUMPI PUSH1 0x0 DUP1 REVERT JUMPDEST POP GAS STATICCALL ISZERO DUP1 ISZERO PUSH3 0x1543 JUMPI RETURNDATASIZE PUSH1 0x0 DUP1 RETURNDATACOPY RETURNDATASIZE PUSH1 0x0 REVERT JUMPDEST POP POP POP POP PUSH1 0x40 MLOAD RETURNDATASIZE PUSH1 0x1F NOT PUSH1 0x1F DUP3 ADD AND DUP3 ADD DUP1 PUSH1 0x40 MSTORE POP DUP2 ADD SWAP1 PUSH3 0x1569 SWAP2 SWAP1 PUSH3 0x27D4 JUMP JUMPDEST SWAP1 POP PUSH1 0x0 PUSH1 0x64 PUSH3 0x157B DUP2 DUP12 PUSH3 0x2938 JUMP JUMPDEST PUSH1 0xFF AND DUP4 DUP7 PUSH1 0x20 ADD MLOAD PUSH3 0x1590 SWAP2 SWAP1 PUSH3 0x291E JUMP JUMPDEST PUSH3 0x159C SWAP2 SWAP1 PUSH3 0x28FC JUMP JUMPDEST PUSH3 0x15A8 SWAP2 SWAP1 PUSH3 0x28DB JUMP JUMPDEST SWAP1 POP PUSH1 0x0 DUP11 DUP3 GT ISZERO PUSH3 0x15BD JUMPI POP DUP10 PUSH3 0x15C0 JUMP JUMPDEST POP DUP1 JUMPDEST PUSH1 0x0 PUSH3 0x15D1 PUSH1 0xFF DUP13 AND DUP4 PUSH3 0x28FC JUMP JUMPDEST SWAP1 POP PUSH1 0x0 ADDRESS DUP15 DUP9 PUSH1 0x0 ADD MLOAD DUP6 DUP6 PUSH1 0x40 MLOAD PUSH3 0x15EC SWAP1 PUSH3 0x2513 JUMP JUMPDEST PUSH1 0x1 PUSH1 0x1 PUSH1 0xA0 SHL SUB SWAP6 DUP7 AND DUP2 MSTORE SWAP4 DUP6 AND PUSH1 0x20 DUP6 ADD MSTORE SWAP4 SWAP1 SWAP2 AND PUSH1 0x40 DUP4 ADD MSTORE PUSH1 0x60 DUP3 ADD MSTORE PUSH1 0x80 DUP2 ADD SWAP2 SWAP1 SWAP2 MSTORE PUSH1 0xA0 ADD PUSH1 0x40 MLOAD DUP1 SWAP2 SUB SWAP1 PUSH1 0x0 CREATE DUP1 ISZERO DUP1 ISZERO PUSH3 0x1637 JUMPI RETURNDATASIZE PUSH1 0x0 DUP1 RETURNDATACOPY RETURNDATASIZE PUSH1 0x0 REVERT JUMPDEST POP SWAP1 POP PUSH1 0xC DUP10 DUP2 SLOAD DUP2 LT PUSH3 0x165C JUMPI PUSH4 0x4E487B71 PUSH1 0xE0 SHL PUSH1 0x0 MSTORE PUSH1 0x32 PUSH1 0x4 MSTORE PUSH1 0x24 PUSH1 0x0 REVERT JUMPDEST PUSH1 0x0 SWAP2 DUP3 MSTORE PUSH1 0x20 DUP3 KECCAK256 PUSH1 0x3 SWAP2 SWAP1 SWAP2 MUL ADD DUP1 SLOAD PUSH1 0x1 PUSH1 0x1 PUSH1 0xA0 SHL SUB NOT AND DUP2 SSTORE PUSH1 0x1 DUP2 ADD SWAP2 SWAP1 SWAP2 SSTORE PUSH1 0x2 ADD DUP1 SLOAD PUSH1 0xFF NOT AND SWAP1 SSTORE PUSH1 0x40 MLOAD PUSH4 0x2D267E03 PUSH1 0xE1 SHL DUP2 MSTORE PUSH1 0x4 DUP2 ADD DUP5 SWAP1 MSTORE DUP15 SWAP1 PUSH1 0x1 PUSH1 0x1 PUSH1 0xA0 SHL SUB DUP3 AND SWAP1 PUSH4 0x5A4CFC06 SWAP1 PUSH1 0x24 ADD PUSH1 0x20 PUSH1 0x40 MLOAD DUP1 DUP4 SUB DUP2 PUSH1 0x0 DUP8 DUP1 EXTCODESIZE ISZERO DUP1 ISZERO PUSH3 0x16D2 JUMPI PUSH1 0x0 DUP1 REVERT JUMPDEST POP GAS CALL ISZERO DUP1 ISZERO PUSH3 0x16E7 JUMPI RETURNDATASIZE PUSH1 0x0 DUP1 RETURNDATACOPY RETURNDATASIZE PUSH1 0x0 REVERT JUMPDEST POP POP POP POP PUSH1 0x40 MLOAD RETURNDATASIZE PUSH1 0x1F NOT PUSH1 0x1F DUP3 ADD AND DUP3 ADD DUP1 PUSH1 0x40 MSTORE POP DUP2 ADD SWAP1 PUSH3 0x170D SWAP2 SWAP1 PUSH3 0x2658 JUMP JUMPDEST POP PUSH1 0x40 MLOAD PUSH4 0x615BDDDB PUSH1 0xE1 SHL DUP2 MSTORE PUSH1 0x1 PUSH1 0x1 PUSH1 0xA0 SHL SUB DUP4 DUP2 AND PUSH1 0x4 DUP4 ADD MSTORE DUP3 AND SWAP1 PUSH4 0xC2B7BBB6 SWAP1 PUSH1 0x24 ADD PUSH1 0x20 PUSH1 0x40 MLOAD DUP1 DUP4 SUB DUP2 PUSH1 0x0 DUP8 DUP1 EXTCODESIZE ISZERO DUP1 ISZERO PUSH3 0x1752 JUMPI PUSH1 0x0 DUP1 REVERT JUMPDEST POP GAS CALL ISZERO DUP1 ISZERO PUSH3 0x1767 JUMPI RETURNDATASIZE PUSH1 0x0 DUP1 RETURNDATACOPY RETURNDATASIZE PUSH1 0x0 REVERT JUMPDEST POP POP POP POP PUSH1 0x40 MLOAD RETURNDATASIZE PUSH1 0x1F NOT PUSH1 0x1F DUP3 ADD AND DUP3 ADD DUP1 PUSH1 0x40 MSTORE POP DUP2 ADD SWAP1 PUSH3 0x178D SWAP2 SWAP1 PUSH3 0x2658 JUMP JUMPDEST POP DUP8 MLOAD PUSH1 0x40 MLOAD PUSH4 0x2D267E03 PUSH1 0xE1 SHL DUP2 MSTORE PUSH1 0x4 DUP2 ADD DUP6 SWAP1 MSTORE PUSH1 0x1 PUSH1 0x1 PUSH1 0xA0 SHL SUB DUP3 AND SWAP1 PUSH4 0x5A4CFC06 SWAP1 PUSH1 0x24 ADD PUSH1 0x20 PUSH1 0x40 MLOAD DUP1 DUP4 SUB DUP2 PUSH1 0x0 DUP8 DUP1 EXTCODESIZE ISZERO DUP1 ISZERO PUSH3 0x17D3 JUMPI PUSH1 0x0 DUP1 REVERT JUMPDEST POP GAS CALL ISZERO DUP1 ISZERO PUSH3 0x17E8 JUMPI RETURNDATASIZE PUSH1 0x0 DUP1 RETURNDATACOPY RETURNDATASIZE PUSH1 0x0 REVERT JUMPDEST POP POP POP POP PUSH1 0x40 MLOAD RETURNDATASIZE PUSH1 0x1F NOT PUSH1 0x1F DUP3 ADD AND DUP3 ADD DUP1 PUSH1 0x40 MSTORE POP DUP2 ADD SWAP1 PUSH3 0x180E SWAP2 SWAP1 PUSH3 0x2658 JUMP JUMPDEST POP PUSH1 0x40 MLOAD PUSH4 0x615BDDDB PUSH1 0xE1 SHL DUP2 MSTORE PUSH1 0x1 PUSH1 0x1 PUSH1 0xA0 SHL SUB DUP5 DUP2 AND PUSH1 0x4 DUP4 ADD MSTORE DUP3 AND SWAP1 PUSH4 0xC2B7BBB6 SWAP1 PUSH1 0x24 ADD PUSH1 0x20 PUSH1 0x40 MLOAD DUP1 DUP4 SUB DUP2 PUSH1 0x0 DUP8 DUP1 EXTCODESIZE ISZERO DUP1 ISZERO PUSH3 0x1853 JUMPI PUSH1 0x0 DUP1 REVERT JUMPDEST POP GAS CALL ISZERO DUP1 ISZERO PUSH3 0x1868 JUMPI RETURNDATASIZE PUSH1 0x0 DUP1 RETURNDATACOPY RETURNDATASIZE PUSH1 0x0 REVERT JUMPDEST POP POP POP POP PUSH1 0x40 MLOAD RETURNDATASIZE PUSH1 0x1F NOT PUSH1 0x1F DUP3 ADD AND DUP3 ADD DUP1 PUSH1 0x40 MSTORE POP DUP2 ADD SWAP1 PUSH3 0x188E SWAP2 SWAP1 PUSH3 0x2658 JUMP JUMPDEST POP PUSH3 0x189B DUP6 DUP14 PUSH3 0x291E JUMP JUMPDEST SWAP12 POP POP POP POP POP POP POP POP POP POP PUSH3 0x1984 JUMP JUMPDEST POP POP PUSH1 0x40 DUP1 MLOAD PUSH1 0x60 DUP2 ADD DUP3 MSTORE PUSH1 0x1 PUSH1 0x1 PUSH1 0xA0 SHL SUB DUP8 DUP2 AND DUP3 MSTORE PUSH1 0x20 DUP3 ADD DUP8 DUP2 MSTORE PUSH1 0xFF DUP8 DUP2 AND SWAP5 DUP5 ADD SWAP5 DUP6 MSTORE PUSH1 0xA DUP1 SLOAD PUSH1 0x1 DUP2 ADD DUP3 SSTORE PUSH1 0x0 SWAP2 SWAP1 SWAP2 MSTORE SWAP4 MLOAD PUSH32 0xC65A7BB8D6351C1CF70C95A316CC6A92839C986682D98BC35F958F4883F9D2A8 PUSH1 0x3 SWAP1 SWAP6 MUL SWAP5 DUP6 ADD DUP1 SLOAD PUSH1 0x1 PUSH1 0x1 PUSH1 0xA0 SHL SUB NOT AND SWAP2 SWAP1 SWAP5 AND OR SWAP1 SWAP3 SSTORE MLOAD PUSH32 0xC65A7BB8D6351C1CF70C95A316CC6A92839C986682D98BC35F958F4883F9D2A9 DUP4 ADD SSTORE SWAP2 MLOAD PUSH32 0xC65A7BB8D6351C1CF70C95A316CC6A92839C986682D98BC35F958F4883F9D2AA SWAP1 SWAP2 ADD DUP1 SLOAD PUSH1 0xFF NOT AND SWAP2 SWAP1 SWAP3 AND OR SWAP1 SSTORE PUSH3 0x198C JUMP JUMPDEST POP POP PUSH3 0x13CC JUMP JUMPDEST POP PUSH3 0x13BA JUMP JUMPDEST POP PUSH1 0x40 DUP1 MLOAD PUSH1 0x60 DUP2 ADD DUP3 MSTORE PUSH1 0x1 PUSH1 0x1 PUSH1 0xA0 SHL SUB SWAP5 DUP6 AND DUP2 MSTORE PUSH1 0x20 DUP2 ADD SWAP4 DUP5 MSTORE PUSH1 0xFF SWAP3 DUP4 AND SWAP2 DUP2 ADD SWAP2 DUP3 MSTORE PUSH1 0xA DUP1 SLOAD PUSH1 0x1 DUP2 ADD DUP3 SSTORE PUSH1 0x0 SWAP2 SWAP1 SWAP2 MSTORE SWAP1 MLOAD PUSH32 0xC65A7BB8D6351C1CF70C95A316CC6A92839C986682D98BC35F958F4883F9D2A8 PUSH1 0x3 SWAP1 SWAP3 MUL SWAP2 DUP3 ADD DUP1 SLOAD PUSH1 0x1 PUSH1 0x1 PUSH1 0xA0 SHL SUB NOT AND SWAP2 SWAP1 SWAP7 AND OR SWAP1 SWAP5 SSTORE SWAP2 MLOAD PUSH32 0xC65A7BB8D6351C1CF70C95A316CC6A92839C986682D98BC35F958F4883F9D2A9 DUP5 ADD SSTORE SWAP1 MLOAD PUSH32 0xC65A7BB8D6351C1CF70C95A316CC6A92839C986682D98BC35F958F4883F9D2AA SWAP1 SWAP3 ADD DUP1 SLOAD PUSH1 0xFF NOT AND SWAP3 SWAP1 SWAP2 AND SWAP2 SWAP1 SWAP2 OR SWAP1 SSTORE JUMP JUMPDEST DUP2 PUSH1 0x8 PUSH1 0x0 DUP3 DUP3 SLOAD PUSH3 0x1A7E SWAP2 SWAP1 PUSH3 0x28C0 JUMP JUMPDEST SWAP1 SWAP2 SSTORE POP POP PUSH1 0x40 DUP1 MLOAD PUSH1 0x60 DUP2 ADD DUP3 MSTORE PUSH1 0x1 PUSH1 0x1 PUSH1 0xA0 SHL SUB DUP6 DUP2 AND DUP3 MSTORE PUSH1 0x20 DUP1 DUP4 ADD DUP7 DUP2 MSTORE PUSH1 0xFF DUP7 DUP2 AND DUP6 DUP8 ADD SWAP1 DUP2 MSTORE PUSH1 0xB DUP1 SLOAD PUSH1 0x1 DUP2 ADD DUP3 SSTORE PUSH1 0x0 SWAP2 DUP3 MSTORE SWAP7 MLOAD PUSH32 0x175B7A638427703F0DBE7BB9BBF987A2551717B34E79F33B5B1008D1FA01DB9 PUSH1 0x3 SWAP1 SWAP9 MUL SWAP8 DUP9 ADD DUP1 SLOAD PUSH1 0x1 PUSH1 0x1 PUSH1 0xA0 SHL SUB NOT AND SWAP2 DUP9 AND SWAP2 SWAP1 SWAP2 OR SWAP1 SSTORE SWAP3 MLOAD PUSH32 0x175B7A638427703F0DBE7BB9BBF987A2551717B34E79F33B5B1008D1FA01DBA DUP8 ADD SSTORE MLOAD PUSH32 0x175B7A638427703F0DBE7BB9BBF987A2551717B34E79F33B5B1008D1FA01DBB SWAP1 SWAP6 ADD DUP1 SLOAD PUSH1 0xFF NOT AND SWAP6 SWAP1 SWAP2 AND SWAP5 SWAP1 SWAP5 OR SWAP1 SWAP4 SSTORE SWAP1 DUP8 AND DUP3 MSTORE PUSH1 0xE SWAP1 MSTORE SWAP1 DUP2 KECCAK256 DUP1 SLOAD DUP5 SWAP3 SWAP1 PUSH3 0x13B4 SWAP1 DUP5 SWAP1 PUSH3 0x28C0 JUMP JUMPDEST PUSH1 0xA SLOAD DUP1 ISZERO PUSH3 0x2142 JUMPI DUP3 JUMPDEST PUSH8 0xDE0B6B3A7640000 DUP2 LT PUSH3 0x198C JUMPI PUSH1 0x0 DUP1 PUSH1 0x0 JUMPDEST DUP5 DUP2 LT ISZERO PUSH3 0x1C39 JUMPI PUSH1 0x0 PUSH1 0xA DUP3 DUP2 SLOAD DUP2 LT PUSH3 0x1BC5 JUMPI PUSH4 0x4E487B71 PUSH1 0xE0 SHL PUSH1 0x0 MSTORE PUSH1 0x32 PUSH1 0x4 MSTORE PUSH1 0x24 PUSH1 0x0 REVERT JUMPDEST PUSH1 0x0 SWAP2 DUP3 MSTORE PUSH1 0x20 SWAP2 DUP3 SWAP1 KECCAK256 PUSH1 0x40 DUP1 MLOAD PUSH1 0x60 DUP2 ADD DUP3 MSTORE PUSH1 0x3 SWAP1 SWAP4 MUL SWAP1 SWAP2 ADD DUP1 SLOAD PUSH1 0x1 PUSH1 0x1 PUSH1 0xA0 SHL SUB AND DUP4 MSTORE PUSH1 0x1 DUP2 ADD SLOAD SWAP4 DUP4 ADD SWAP4 SWAP1 SWAP4 MSTORE PUSH1 0x2 SWAP1 SWAP3 ADD SLOAD PUSH1 0xFF SWAP1 DUP2 AND SWAP3 DUP3 ADD DUP4 SWAP1 MSTORE SWAP1 SWAP3 POP DUP5 AND LT ISZERO PUSH3 0x1C23 JUMPI DUP1 PUSH1 0x40 ADD MLOAD SWAP3 POP DUP2 SWAP4 POP JUMPDEST POP DUP1 PUSH3 0x1C30 DUP2 PUSH3 0x29CA JUMP JUMPDEST SWAP2 POP POP PUSH3 0x1B98 JUMP JUMPDEST POP DUP5 PUSH1 0xFF AND DUP2 PUSH1 0xFF AND GT ISZERO PUSH3 0x2062 JUMPI PUSH1 0x0 PUSH1 0xA DUP4 DUP2 SLOAD DUP2 LT PUSH3 0x1C6D JUMPI PUSH4 0x4E487B71 PUSH1 0xE0 SHL PUSH1 0x0 MSTORE PUSH1 0x32 PUSH1 0x4 MSTORE PUSH1 0x24 PUSH1 0x0 REVERT JUMPDEST PUSH1 0x0 SWAP2 DUP3 MSTORE PUSH1 0x20 DUP1 DUP4 KECCAK256 PUSH1 0x40 DUP1 MLOAD PUSH1 0x60 DUP2 ADD DUP3 MSTORE PUSH1 0x3 SWAP1 SWAP5 MUL SWAP1 SWAP2 ADD DUP1 SLOAD PUSH1 0x1 PUSH1 0x1 PUSH1 0xA0 SHL SUB AND DUP1 DUP6 MSTORE PUSH1 0x1 DUP3 ADD SLOAD DUP6 DUP6 ADD MSTORE PUSH1 0x2 SWAP1 SWAP2 ADD SLOAD PUSH1 0xFF AND DUP5 DUP4 ADD MSTORE DUP2 MLOAD PUSH4 0x45564E65 PUSH1 0xE1 SHL DUP2 MSTORE SWAP2 MLOAD SWAP4 SWAP6 POP SWAP4 SWAP3 DUP5 SWAP3 PUSH4 0x8AAC9CCA SWAP3 PUSH1 0x4 DUP1 DUP3 ADD SWAP4 SWAP2 DUP3 SWAP1 SUB ADD DUP2 DUP7 DUP1 EXTCODESIZE ISZERO DUP1 ISZERO PUSH3 0x1CE4 JUMPI PUSH1 0x0 DUP1 REVERT JUMPDEST POP GAS STATICCALL ISZERO DUP1 ISZERO PUSH3 0x1CF9 JUMPI RETURNDATASIZE PUSH1 0x0 DUP1 RETURNDATACOPY RETURNDATASIZE PUSH1 0x0 REVERT JUMPDEST POP POP POP POP PUSH1 0x40 MLOAD RETURNDATASIZE PUSH1 0x1F NOT PUSH1 0x1F DUP3 ADD AND DUP3 ADD DUP1 PUSH1 0x40 MSTORE POP DUP2 ADD SWAP1 PUSH3 0x1D1F SWAP2 SWAP1 PUSH3 0x27D4 JUMP JUMPDEST SWAP1 POP PUSH1 0x0 PUSH1 0x64 PUSH3 0x1D31 DUP2 DUP12 PUSH3 0x2938 JUMP JUMPDEST PUSH1 0xFF AND DUP4 DUP7 PUSH1 0x20 ADD MLOAD PUSH3 0x1D46 SWAP2 SWAP1 PUSH3 0x291E JUMP JUMPDEST PUSH3 0x1D52 SWAP2 SWAP1 PUSH3 0x28FC JUMP JUMPDEST PUSH3 0x1D5E SWAP2 SWAP1 PUSH3 0x28DB JUMP JUMPDEST SWAP1 POP PUSH1 0x0 DUP11 DUP3 GT ISZERO PUSH3 0x1D73 JUMPI POP DUP10 PUSH3 0x1D76 JUMP JUMPDEST POP DUP1 JUMPDEST PUSH1 0x0 PUSH3 0x1D87 PUSH1 0xFF DUP13 AND DUP4 PUSH3 0x28FC JUMP JUMPDEST SWAP1 POP PUSH1 0x0 ADDRESS DUP8 PUSH1 0x0 ADD MLOAD DUP16 DUP5 DUP7 PUSH1 0x40 MLOAD PUSH3 0x1DA2 SWAP1 PUSH3 0x2513 JUMP JUMPDEST PUSH1 0x1 PUSH1 0x1 PUSH1 0xA0 SHL SUB SWAP6 DUP7 AND DUP2 MSTORE SWAP4 DUP6 AND PUSH1 0x20 DUP6 ADD MSTORE SWAP4 SWAP1 SWAP2 AND PUSH1 0x40 DUP4 ADD MSTORE PUSH1 0x60 DUP3 ADD MSTORE PUSH1 0x80 DUP2 ADD SWAP2 SWAP1 SWAP2 MSTORE PUSH1 0xA0 ADD PUSH1 0x40 MLOAD DUP1 SWAP2 SUB SWAP1 PUSH1 0x0 CREATE DUP1 ISZERO DUP1 ISZERO PUSH3 0x1DED JUMPI RETURNDATASIZE PUSH1 0x0 DUP1 RETURNDATACOPY RETURNDATASIZE PUSH1 0x0 REVERT JUMPDEST POP SWAP1 POP PUSH1 0xA DUP10 DUP2 SLOAD DUP2 LT PUSH3 0x1E12 JUMPI PUSH4 0x4E487B71 PUSH1 0xE0 SHL PUSH1 0x0 MSTORE PUSH1 0x32 PUSH1 0x4 MSTORE PUSH1 0x24 PUSH1 0x0 REVERT JUMPDEST PUSH1 0x0 SWAP2 DUP3 MSTORE PUSH1 0x20 DUP3 KECCAK256 PUSH1 0x3 SWAP2 SWAP1 SWAP2 MUL ADD DUP1 SLOAD PUSH1 0x1 PUSH1 0x1 PUSH1 0xA0 SHL SUB NOT AND DUP2 SSTORE PUSH1 0x1 DUP2 ADD SWAP2 SWAP1 SWAP2 SSTORE PUSH1 0x2 ADD DUP1 SLOAD PUSH1 0xFF NOT AND SWAP1 SSTORE PUSH1 0x40 MLOAD PUSH4 0x2D267E03 PUSH1 0xE1 SHL DUP2 MSTORE PUSH1 0x4 DUP2 ADD DUP5 SWAP1 MSTORE DUP15 SWAP1 PUSH1 0x1 PUSH1 0x1 PUSH1 0xA0 SHL SUB DUP3 AND SWAP1 PUSH4 0x5A4CFC06 SWAP1 PUSH1 0x24 ADD PUSH1 0x20 PUSH1 0x40 MLOAD DUP1 DUP4 SUB DUP2 PUSH1 0x0 DUP8 DUP1 EXTCODESIZE ISZERO DUP1 ISZERO PUSH3 0x1E88 JUMPI PUSH1 0x0 DUP1 REVERT JUMPDEST POP GAS CALL ISZERO DUP1 ISZERO PUSH3 0x1E9D JUMPI RETURNDATASIZE PUSH1 0x0 DUP1 RETURNDATACOPY RETURNDATASIZE PUSH1 0x0 REVERT JUMPDEST POP POP POP POP PUSH1 0x40 MLOAD RETURNDATASIZE PUSH1 0x1F NOT PUSH1 0x1F DUP3 ADD AND DUP3 ADD DUP1 PUSH1 0x40 MSTORE POP DUP2 ADD SWAP1 PUSH3 0x1EC3 SWAP2 SWAP1 PUSH3 0x2658 JUMP JUMPDEST POP PUSH1 0x40 MLOAD PUSH4 0x615BDDDB PUSH1 0xE1 SHL DUP2 MSTORE PUSH1 0x1 PUSH1 0x1 PUSH1 0xA0 SHL SUB DUP4 DUP2 AND PUSH1 0x4 DUP4 ADD MSTORE DUP3 AND SWAP1 PUSH4 0xC2B7BBB6 SWAP1 PUSH1 0x24 ADD PUSH1 0x20 PUSH1 0x40 MLOAD DUP1 DUP4 SUB DUP2 PUSH1 0x0 DUP8 DUP1 EXTCODESIZE ISZERO DUP1 ISZERO PUSH3 0x1F08 JUMPI PUSH1 0x0 DUP1 REVERT JUMPDEST POP GAS CALL ISZERO DUP1 ISZERO PUSH3 0x1F1D JUMPI RETURNDATASIZE PUSH1 0x0 DUP1 RETURNDATACOPY RETURNDATASIZE PUSH1 0x0 REVERT JUMPDEST POP POP POP POP PUSH1 0x40 MLOAD RETURNDATASIZE PUSH1 0x1F NOT PUSH1 0x1F DUP3 ADD AND DUP3 ADD DUP1 PUSH1 0x40 MSTORE POP DUP2 ADD SWAP1 PUSH3 0x1F43 SWAP2 SWAP1 PUSH3 0x2658 JUMP JUMPDEST POP DUP8 MLOAD PUSH1 0x40 MLOAD PUSH4 0x2D267E03 PUSH1 0xE1 SHL DUP2 MSTORE PUSH1 0x4 DUP2 ADD DUP6 SWAP1 MSTORE PUSH1 0x1 PUSH1 0x1 PUSH1 0xA0 SHL SUB DUP3 AND SWAP1 PUSH4 0x5A4CFC06 SWAP1 PUSH1 0x24 ADD PUSH1 0x20 PUSH1 0x40 MLOAD DUP1 DUP4 SUB DUP2 PUSH1 0x0 DUP8 DUP1 EXTCODESIZE ISZERO DUP1 ISZERO PUSH3 0x1F89 JUMPI PUSH1 0x0 DUP1 REVERT JUMPDEST POP GAS CALL ISZERO DUP1 ISZERO PUSH3 0x1F9E JUMPI RETURNDATASIZE PUSH1 0x0 DUP1 RETURNDATACOPY RETURNDATASIZE PUSH1 0x0 REVERT JUMPDEST POP POP POP POP PUSH1 0x40 MLOAD RETURNDATASIZE PUSH1 0x1F NOT PUSH1 0x1F DUP3 ADD AND DUP3 ADD DUP1 PUSH1 0x40 MSTORE POP DUP2 ADD SWAP1 PUSH3 0x1FC4 SWAP2 SWAP1 PUSH3 0x2658 JUMP JUMPDEST POP PUSH1 0x40 MLOAD PUSH4 0x615BDDDB PUSH1 0xE1 SHL DUP2 MSTORE PUSH1 0x1 PUSH1 0x1 PUSH1 0xA0 SHL SUB DUP5 DUP2 AND PUSH1 0x4 DUP4 ADD MSTORE DUP3 AND SWAP1 PUSH4 0xC2B7BBB6 SWAP1 PUSH1 0x24 ADD PUSH1 0x20 PUSH1 0x40 MLOAD DUP1 DUP4 SUB DUP2 PUSH1 0x0 DUP8 DUP1 EXTCODESIZE ISZERO DUP1 ISZERO PUSH3 0x2009 JUMPI PUSH1 0x0 DUP1 REVERT JUMPDEST POP GAS CALL ISZERO DUP1 ISZERO PUSH3 0x201E JUMPI RETURNDATASIZE PUSH1 0x0 DUP1 RETURNDATACOPY RETURNDATASIZE PUSH1 0x0 REVERT JUMPDEST POP POP POP POP PUSH1 0x40 MLOAD RETURNDATASIZE PUSH1 0x1F NOT PUSH1 0x1F DUP3 ADD AND DUP3 ADD DUP1 PUSH1 0x40 MSTORE POP DUP2 ADD SWAP1 PUSH3 0x2044 SWAP2 SWAP1 PUSH3 0x2658 JUMP JUMPDEST POP PUSH3 0x2051 DUP5 DUP14 PUSH3 0x291E JUMP JUMPDEST SWAP12 POP POP POP POP POP POP POP POP POP POP PUSH3 0x213A JUMP JUMPDEST POP POP PUSH1 0x40 DUP1 MLOAD PUSH1 0x60 DUP2 ADD DUP3 MSTORE PUSH1 0x1 PUSH1 0x1 PUSH1 0xA0 SHL SUB DUP8 DUP2 AND DUP3 MSTORE PUSH1 0x20 DUP3 ADD DUP8 DUP2 MSTORE PUSH1 0xFF DUP8 DUP2 AND SWAP5 DUP5 ADD SWAP5 DUP6 MSTORE PUSH1 0xC DUP1 SLOAD PUSH1 0x1 DUP2 ADD DUP3 SSTORE PUSH1 0x0 SWAP2 SWAP1 SWAP2 MSTORE SWAP4 MLOAD PUSH32 0xDF6966C971051C3D54EC59162606531493A51404A002842F56009D7E5CF4A8C7 PUSH1 0x3 SWAP1 SWAP6 MUL SWAP5 DUP6 ADD DUP1 SLOAD PUSH1 0x1 PUSH1 0x1 PUSH1 0xA0 SHL SUB NOT AND SWAP2 SWAP1 SWAP5 AND OR SWAP1 SWAP3 SSTORE MLOAD PUSH32 0xDF6966C971051C3D54EC59162606531493A51404A002842F56009D7E5CF4A8C8 DUP4 ADD SSTORE SWAP2 MLOAD PUSH32 0xDF6966C971051C3D54EC59162606531493A51404A002842F56009D7E5CF4A8C9 SWAP1 SWAP2 ADD DUP1 SLOAD PUSH1 0xFF NOT AND SWAP2 SWAP1 SWAP3 AND OR SWAP1 SSTORE PUSH3 0x198C JUMP JUMPDEST POP POP PUSH3 0x1B82 JUMP JUMPDEST POP PUSH1 0x40 DUP1 MLOAD PUSH1 0x60 DUP2 ADD DUP3 MSTORE PUSH1 0x1 PUSH1 0x1 PUSH1 0xA0 SHL SUB SWAP5 DUP6 AND DUP2 MSTORE PUSH1 0x20 DUP2 ADD SWAP4 DUP5 MSTORE PUSH1 0xFF SWAP3 DUP4 AND SWAP2 DUP2 ADD SWAP2 DUP3 MSTORE PUSH1 0xC DUP1 SLOAD PUSH1 0x1 DUP2 ADD DUP3 SSTORE PUSH1 0x0 SWAP2 SWAP1 SWAP2 MSTORE SWAP1 MLOAD PUSH32 0xDF6966C971051C3D54EC59162606531493A51404A002842F56009D7E5CF4A8C7 PUSH1 0x3 SWAP1 SWAP3 MUL SWAP2 DUP3 ADD DUP1 SLOAD PUSH1 0x1 PUSH1 0x1 PUSH1 0xA0 SHL SUB NOT AND SWAP2 SWAP1 SWAP7 AND OR SWAP1 SWAP5 SSTORE SWAP2 MLOAD PUSH32 0xDF6966C971051C3D54EC59162606531493A51404A002842F56009D7E5CF4A8C8 DUP5 ADD SSTORE SWAP1 MLOAD PUSH32 0xDF6966C971051C3D54EC59162606531493A51404A002842F56009D7E5CF4A8C9 SWAP1 SWAP3 ADD DUP1 SLOAD PUSH1 0xFF NOT AND SWAP3 SWAP1 SWAP2 AND SWAP2 SWAP1 SWAP2 OR SWAP1 SSTORE JUMP JUMPDEST PUSH1 0x0 PUSH3 0x2270 DUP3 PUSH1 0x40 MLOAD DUP1 PUSH1 0x40 ADD PUSH1 0x40 MSTORE DUP1 PUSH1 0x20 DUP2 MSTORE PUSH1 0x20 ADD PUSH32 0x5361666545524332303A206C6F772D6C6576656C2063616C6C206661696C6564 DUP2 MSTORE POP DUP6 PUSH1 0x1 PUSH1 0x1 PUSH1 0xA0 SHL SUB AND PUSH3 0x22F2 SWAP1 SWAP3 SWAP2 SWAP1 PUSH4 0xFFFFFFFF AND JUMP JUMPDEST DUP1 MLOAD SWAP1 SWAP2 POP ISZERO PUSH3 0x12A3 JUMPI DUP1 DUP1 PUSH1 0x20 ADD SWAP1 MLOAD DUP2 ADD SWAP1 PUSH3 0x2291 SWAP2 SWAP1 PUSH3 0x2658 JUMP JUMPDEST PUSH3 0x12A3 JUMPI PUSH1 0x40 MLOAD PUSH3 0x461BCD PUSH1 0xE5 SHL DUP2 MSTORE PUSH1 0x20 PUSH1 0x4 DUP3 ADD MSTORE PUSH1 0x2A PUSH1 0x24 DUP3 ADD MSTORE PUSH32 0x5361666545524332303A204552433230206F7065726174696F6E20646964206E PUSH1 0x44 DUP3 ADD MSTORE PUSH10 0x1BDD081CDD58D8D95959 PUSH1 0xB2 SHL PUSH1 0x64 DUP3 ADD MSTORE PUSH1 0x84 ADD PUSH3 0x3CB JUMP JUMPDEST PUSH1 0x60 PUSH3 0x2303 DUP5 DUP5 PUSH1 0x0 DUP6 PUSH3 0x230B JUMP JUMPDEST SWAP5 SWAP4 POP POP POP POP JUMP JUMPDEST PUSH1 0x60 DUP3 SELFBALANCE LT ISZERO PUSH3 0x236E JUMPI PUSH1 0x40 MLOAD PUSH3 0x461BCD PUSH1 0xE5 SHL DUP2 MSTORE PUSH1 0x20 PUSH1 0x4 DUP3 ADD MSTORE PUSH1 0x26 PUSH1 0x24 DUP3 ADD MSTORE PUSH32 0x416464726573733A20696E73756666696369656E742062616C616E636520666F PUSH1 0x44 DUP3 ADD MSTORE PUSH6 0x1C8818D85B1B PUSH1 0xD2 SHL PUSH1 0x64 DUP3 ADD MSTORE PUSH1 0x84 ADD PUSH3 0x3CB JUMP JUMPDEST PUSH1 0x1 PUSH1 0x1 PUSH1 0xA0 SHL SUB DUP6 AND EXTCODESIZE PUSH3 0x23C7 JUMPI PUSH1 0x40 MLOAD PUSH3 0x461BCD PUSH1 0xE5 SHL DUP2 MSTORE PUSH1 0x20 PUSH1 0x4 DUP3 ADD MSTORE PUSH1 0x1D PUSH1 0x24 DUP3 ADD MSTORE PUSH32 0x416464726573733A2063616C6C20746F206E6F6E2D636F6E7472616374000000 PUSH1 0x44 DUP3 ADD MSTORE PUSH1 0x64 ADD PUSH3 0x3CB JUMP JUMPDEST PUSH1 0x0 DUP1 DUP7 PUSH1 0x1 PUSH1 0x1 PUSH1 0xA0 SHL SUB AND DUP6 DUP8 PUSH1 0x40 MLOAD PUSH3 0x23E5 SWAP2 SWAP1 PUSH3 0x27ED JUMP JUMPDEST PUSH1 0x0 PUSH1 0x40 MLOAD DUP1 DUP4 SUB DUP2 DUP6 DUP8 GAS CALL SWAP3 POP POP POP RETURNDATASIZE DUP1 PUSH1 0x0 DUP2 EQ PUSH3 0x2424 JUMPI PUSH1 0x40 MLOAD SWAP2 POP PUSH1 0x1F NOT PUSH1 0x3F RETURNDATASIZE ADD AND DUP3 ADD PUSH1 0x40 MSTORE RETURNDATASIZE DUP3 MSTORE RETURNDATASIZE PUSH1 0x0 PUSH1 0x20 DUP5 ADD RETURNDATACOPY PUSH3 0x2429 JUMP JUMPDEST PUSH1 0x60 SWAP2 POP JUMPDEST POP SWAP2 POP SWAP2 POP PUSH3 0x243B DUP3 DUP3 DUP7 PUSH3 0x2446 JUMP JUMPDEST SWAP8 SWAP7 POP POP POP POP POP POP POP JUMP JUMPDEST PUSH1 0x60 DUP4 ISZERO PUSH3 0x2457 JUMPI POP DUP2 PUSH3 0xEEA JUMP JUMPDEST DUP3 MLOAD ISZERO PUSH3 0x2468 JUMPI DUP3 MLOAD DUP1 DUP5 PUSH1 0x20 ADD REVERT JUMPDEST DUP2 PUSH1 0x40 MLOAD PUSH3 0x461BCD PUSH1 0xE5 SHL DUP2 MSTORE PUSH1 0x4 ADD PUSH3 0x3CB SWAP2 SWAP1 PUSH3 0x280B JUMP JUMPDEST DUP3 DUP1 SLOAD PUSH3 0x2492 SWAP1 PUSH3 0x298D JUMP JUMPDEST SWAP1 PUSH1 0x0 MSTORE PUSH1 0x20 PUSH1 0x0 KECCAK256 SWAP1 PUSH1 0x1F ADD PUSH1 0x20 SWAP1 DIV DUP2 ADD SWAP3 DUP3 PUSH3 0x24B6 JUMPI PUSH1 0x0 DUP6 SSTORE PUSH3 0x2501 JUMP JUMPDEST DUP3 PUSH1 0x1F LT PUSH3 0x24D1 JUMPI DUP1 MLOAD PUSH1 0xFF NOT AND DUP4 DUP1 ADD OR DUP6 SSTORE PUSH3 0x2501 JUMP JUMPDEST DUP3 DUP1 ADD PUSH1 0x1 ADD DUP6 SSTORE DUP3 ISZERO PUSH3 0x2501 JUMPI SWAP2 DUP3 ADD JUMPDEST DUP3 DUP2 GT ISZERO PUSH3 0x2501 JUMPI DUP3 MLOAD DUP3 SSTORE SWAP2 PUSH1 0x20 ADD SWAP2 SWAP1 PUSH1 0x1 ADD SWAP1 PUSH3 0x24E4 JUMP JUMPDEST POP PUSH3 0x250F SWAP3 SWAP2 POP PUSH3 0x2521 JUMP JUMPDEST POP SWAP1 JUMP JUMPDEST PUSH2 0x32D DUP1 PUSH3 0x2A2E DUP4 CODECOPY ADD SWAP1 JUMP JUMPDEST JUMPDEST DUP1 DUP3 GT ISZERO PUSH3 0x250F JUMPI PUSH1 0x0 DUP2 SSTORE PUSH1 0x1 ADD PUSH3 0x2522 JUMP JUMPDEST PUSH1 0x0 DUP3 PUSH1 0x1F DUP4 ADD SLT PUSH3 0x2549 JUMPI DUP1 DUP2 REVERT JUMPDEST DUP2 CALLDATALOAD PUSH3 0x2560 PUSH3 0x255A DUP3 PUSH3 0x2895 JUMP JUMPDEST PUSH3 0x2861 JUMP JUMPDEST DUP2 DUP2 MSTORE DUP5 PUSH1 0x20 DUP4 DUP7 ADD ADD GT ISZERO PUSH3 0x2575 JUMPI DUP3 DUP4 REVERT JUMPDEST DUP2 PUSH1 0x20 DUP6 ADD PUSH1 0x20 DUP4 ADD CALLDATACOPY SWAP1 DUP2 ADD PUSH1 0x20 ADD SWAP2 SWAP1 SWAP2 MSTORE SWAP3 SWAP2 POP POP JUMP JUMPDEST PUSH1 0x0 PUSH1 0x20 DUP3 DUP5 SUB SLT ISZERO PUSH3 0x25A1 JUMPI DUP1 DUP2 REVERT JUMPDEST DUP2 CALLDATALOAD PUSH3 0xEEA DUP2 PUSH3 0x2A14 JUMP JUMPDEST PUSH1 0x0 PUSH1 0x20 DUP3 DUP5 SUB SLT ISZERO PUSH3 0x25C0 JUMPI DUP1 DUP2 REVERT JUMPDEST DUP2 MLOAD PUSH3 0xEEA DUP2 PUSH3 0x2A14 JUMP JUMPDEST PUSH1 0x0 DUP1 PUSH1 0x0 DUP1 PUSH1 0x0 PUSH1 0xA0 DUP7 DUP9 SUB SLT ISZERO PUSH3 0x25E5 JUMPI DUP1 DUP2 REVERT JUMPDEST DUP6 CALLDATALOAD PUSH3 0x25F2 DUP2 PUSH3 0x2A14 JUMP JUMPDEST SWAP5 POP PUSH1 0x20 DUP7 ADD CALLDATALOAD PUSH3 0x2604 DUP2 PUSH3 0x2A14 JUMP JUMPDEST SWAP4 POP PUSH1 0x40 DUP7 ADD CALLDATALOAD SWAP3 POP PUSH1 0x60 DUP7 ADD CALLDATALOAD PUSH1 0xFF DUP2 AND DUP2 EQ PUSH3 0x2621 JUMPI DUP2 DUP3 REVERT JUMPDEST SWAP2 POP PUSH1 0x80 DUP7 ADD CALLDATALOAD PUSH8 0xFFFFFFFFFFFFFFFF DUP2 GT ISZERO PUSH3 0x263D JUMPI DUP2 DUP3 REVERT JUMPDEST PUSH3 0x264B DUP9 DUP3 DUP10 ADD PUSH3 0x2538 JUMP JUMPDEST SWAP2 POP POP SWAP3 SWAP6 POP SWAP3 SWAP6 SWAP1 SWAP4 POP JUMP JUMPDEST PUSH1 0x0 PUSH1 0x20 DUP3 DUP5 SUB SLT ISZERO PUSH3 0x266A JUMPI DUP1 DUP2 REVERT JUMPDEST DUP2 MLOAD DUP1 ISZERO ISZERO DUP2 EQ PUSH3 0xEEA JUMPI DUP2 DUP3 REVERT JUMPDEST PUSH1 0x0 PUSH1 0x20 DUP3 DUP5 SUB SLT ISZERO PUSH3 0x268C JUMPI DUP1 DUP2 REVERT JUMPDEST DUP2 CALLDATALOAD PUSH8 0xFFFFFFFFFFFFFFFF DUP2 GT ISZERO PUSH3 0x26A3 JUMPI DUP2 DUP3 REVERT JUMPDEST PUSH3 0x2303 DUP5 DUP3 DUP6 ADD PUSH3 0x2538 JUMP JUMPDEST PUSH1 0x0 PUSH1 0x20 DUP3 DUP5 SUB SLT ISZERO PUSH3 0x26C3 JUMPI DUP1 DUP2 REVERT JUMPDEST DUP2 MLOAD PUSH8 0xFFFFFFFFFFFFFFFF DUP2 GT ISZERO PUSH3 0x26DA JUMPI DUP2 DUP3 REVERT JUMPDEST DUP3 ADD PUSH1 0x1F DUP2 ADD DUP5 SGT PUSH3 0x26EB JUMPI DUP2 DUP3 REVERT JUMPDEST DUP1 MLOAD PUSH3 0x26FC PUSH3 0x255A DUP3 PUSH3 0x2895 JUMP JUMPDEST DUP2 DUP2 MSTORE DUP6 PUSH1 0x20 DUP4 DUP6 ADD ADD GT ISZERO PUSH3 0x2711 JUMPI DUP4 DUP5 REVERT JUMPDEST PUSH3 0x2724 DUP3 PUSH1 0x20 DUP4 ADD PUSH1 0x20 DUP7 ADD PUSH3 0x295E JUMP JUMPDEST SWAP6 SWAP5 POP POP POP POP POP JUMP JUMPDEST PUSH1 0x0 DUP1 PUSH1 0x0 PUSH1 0x60 DUP5 DUP7 SUB SLT ISZERO PUSH3 0x2742 JUMPI DUP3 DUP4 REVERT JUMPDEST DUP4 CALLDATALOAD PUSH8 0xFFFFFFFFFFFFFFFF DUP1 DUP3 GT ISZERO PUSH3 0x275A JUMPI DUP5 DUP6 REVERT JUMPDEST PUSH3 0x2768 DUP8 DUP4 DUP9 ADD PUSH3 0x2538 JUMP JUMPDEST SWAP5 POP PUSH1 0x20 DUP7 ADD CALLDATALOAD SWAP2 POP DUP1 DUP3 GT ISZERO PUSH3 0x277E JUMPI DUP4 DUP5 REVERT JUMPDEST PUSH3 0x278C DUP8 DUP4 DUP9 ADD PUSH3 0x2538 JUMP JUMPDEST SWAP4 POP PUSH1 0x40 DUP7 ADD CALLDATALOAD SWAP2 POP DUP1 DUP3 GT ISZERO PUSH3 0x27A2 JUMPI DUP3 DUP4 REVERT JUMPDEST POP PUSH3 0x27B1 DUP7 DUP3 DUP8 ADD PUSH3 0x2538 JUMP JUMPDEST SWAP2 POP POP SWAP3 POP SWAP3 POP SWAP3 JUMP JUMPDEST PUSH1 0x0 PUSH1 0x20 DUP3 DUP5 SUB SLT ISZERO PUSH3 0x27CD JUMPI DUP1 DUP2 REVERT JUMPDEST POP CALLDATALOAD SWAP2 SWAP1 POP JUMP JUMPDEST PUSH1 0x0 PUSH1 0x20 DUP3 DUP5 SUB SLT ISZERO PUSH3 0x27E6 JUMPI DUP1 DUP2 REVERT JUMPDEST POP MLOAD SWAP2 SWAP1 POP JUMP JUMPDEST PUSH1 0x0 DUP3 MLOAD PUSH3 0x2801 DUP2 DUP5 PUSH1 0x20 DUP8 ADD PUSH3 0x295E JUMP JUMPDEST SWAP2 SWAP1 SWAP2 ADD SWAP3 SWAP2 POP POP JUMP JUMPDEST PUSH1 0x20 DUP2 MSTORE PUSH1 0x0 DUP3 MLOAD DUP1 PUSH1 0x20 DUP5 ADD MSTORE PUSH3 0x282C DUP2 PUSH1 0x40 DUP6 ADD PUSH1 0x20 DUP8 ADD PUSH3 0x295E JUMP JUMPDEST PUSH1 0x1F ADD PUSH1 0x1F NOT AND SWAP2 SWAP1 SWAP2 ADD PUSH1 0x40 ADD SWAP3 SWAP2 POP POP JUMP JUMPDEST PUSH1 0x20 DUP1 DUP3 MSTORE PUSH1 0x7 SWAP1 DUP3 ADD MSTORE PUSH7 0x6F776E6572206F PUSH1 0xC8 SHL PUSH1 0x40 DUP3 ADD MSTORE PUSH1 0x60 ADD SWAP1 JUMP JUMPDEST PUSH1 0x40 MLOAD PUSH1 0x1F DUP3 ADD PUSH1 0x1F NOT AND DUP2 ADD PUSH8 0xFFFFFFFFFFFFFFFF DUP2 GT DUP3 DUP3 LT OR ISZERO PUSH3 0x288D JUMPI PUSH3 0x288D PUSH3 0x29FE JUMP JUMPDEST PUSH1 0x40 MSTORE SWAP2 SWAP1 POP JUMP JUMPDEST PUSH1 0x0 PUSH8 0xFFFFFFFFFFFFFFFF DUP3 GT ISZERO PUSH3 0x28B2 JUMPI PUSH3 0x28B2 PUSH3 0x29FE JUMP JUMPDEST POP PUSH1 0x1F ADD PUSH1 0x1F NOT AND PUSH1 0x20 ADD SWAP1 JUMP JUMPDEST PUSH1 0x0 DUP3 NOT DUP3 GT ISZERO PUSH3 0x28D6 JUMPI PUSH3 0x28D6 PUSH3 0x29E8 JUMP JUMPDEST POP ADD SWAP1 JUMP JUMPDEST PUSH1 0x0 DUP3 PUSH3 0x28F7 JUMPI PUSH4 0x4E487B71 PUSH1 0xE0 SHL DUP2 MSTORE PUSH1 0x12 PUSH1 0x4 MSTORE PUSH1 0x24 DUP2 REVERT JUMPDEST POP DIV SWAP1 JUMP JUMPDEST PUSH1 0x0 DUP2 PUSH1 0x0 NOT DIV DUP4 GT DUP3 ISZERO ISZERO AND ISZERO PUSH3 0x2919 JUMPI PUSH3 0x2919 PUSH3 0x29E8 JUMP JUMPDEST POP MUL SWAP1 JUMP JUMPDEST PUSH1 0x0 DUP3 DUP3 LT ISZERO PUSH3 0x2933 JUMPI PUSH3 0x2933 PUSH3 0x29E8 JUMP JUMPDEST POP SUB SWAP1 JUMP JUMPDEST PUSH1 0x0 PUSH1 0xFF DUP3 AND PUSH1 0xFF DUP5 AND DUP1 DUP3 LT ISZERO PUSH3 0x2955 JUMPI PUSH3 0x2955 PUSH3 0x29E8 JUMP JUMPDEST SWAP1 SUB SWAP4 SWAP3 POP POP POP JUMP JUMPDEST PUSH1 0x0 JUMPDEST DUP4 DUP2 LT ISZERO PUSH3 0x297B JUMPI DUP2 DUP2 ADD MLOAD DUP4 DUP3 ADD MSTORE PUSH1 0x20 ADD PUSH3 0x2961 JUMP JUMPDEST DUP4 DUP2 GT ISZERO PUSH3 0x13BA JUMPI POP POP PUSH1 0x0 SWAP2 ADD MSTORE JUMP JUMPDEST PUSH1 0x1 DUP2 DUP2 SHR SWAP1 DUP3 AND DUP1 PUSH3 0x29A2 JUMPI PUSH1 0x7F DUP3 AND SWAP2 POP JUMPDEST PUSH1 0x20 DUP3 LT DUP2 EQ ISZERO PUSH3 0x29C4 JUMPI PUSH4 0x4E487B71 PUSH1 0xE0 SHL PUSH1 0x0 MSTORE PUSH1 0x22 PUSH1 0x4 MSTORE PUSH1 0x24 PUSH1 0x0 REVERT JUMPDEST POP SWAP2 SWAP1 POP JUMP JUMPDEST PUSH1 0x0 PUSH1 0x0 NOT DUP3 EQ ISZERO PUSH3 0x29E1 JUMPI PUSH3 0x29E1 PUSH3 0x29E8 JUMP JUMPDEST POP PUSH1 0x1 ADD SWAP1 JUMP JUMPDEST PUSH4 0x4E487B71 PUSH1 0xE0 SHL PUSH1 0x0 MSTORE PUSH1 0x11 PUSH1 0x4 MSTORE PUSH1 0x24 PUSH1 0x0 REVERT JUMPDEST PUSH4 0x4E487B71 PUSH1 0xE0 SHL PUSH1 0x0 MSTORE PUSH1 0x41 PUSH1 0x4 MSTORE PUSH1 0x24 PUSH1 0x0 REVERT JUMPDEST PUSH1 0x1 PUSH1 0x1 PUSH1 0xA0 SHL SUB DUP2 AND DUP2 EQ PUSH3 0x2A2A JUMPI PUSH1 0x0 DUP1 REVERT JUMPDEST POP JUMP INVALID PUSH1 0x80 PUSH1 0x40 MSTORE PUSH1 0x0 SLOAD PUSH1 0x6 DUP1 SLOAD PUSH1 0x1 PUSH1 0x1 PUSH1 0xA0 SHL SUB NOT AND PUSH1 0x1 PUSH1 0x1 PUSH1 0xA0 SHL SUB SWAP1 SWAP3 AND SWAP2 SWAP1 SWAP2 OR SWAP1 SSTORE CALLVALUE DUP1 ISZERO PUSH2 0x32 JUMPI PUSH1 0x0 DUP1 REVERT JUMPDEST POP PUSH1 0x40 MLOAD PUSH2 0x32D CODESIZE SUB DUP1 PUSH2 0x32D DUP4 CODECOPY DUP2 ADD PUSH1 0x40 DUP2 SWAP1 MSTORE PUSH2 0x51 SWAP2 PUSH2 0x1CF JUMP JUMPDEST PUSH1 0x6 PUSH1 0x0 SWAP1 SLOAD SWAP1 PUSH2 0x100 EXP SWAP1 DIV PUSH1 0x1 PUSH1 0x1 PUSH1 0xA0 SHL SUB AND PUSH1 0x1 PUSH1 0x1 PUSH1 0xA0 SHL SUB AND PUSH4 0x6AE7095 PUSH1 0x40 MLOAD DUP2 PUSH4 0xFFFFFFFF AND PUSH1 0xE0 SHL DUP2 MSTORE PUSH1 0x4 ADD PUSH1 0x20 PUSH1 0x40 MLOAD DUP1 DUP4 SUB DUP2 DUP7 DUP1 EXTCODESIZE ISZERO DUP1 ISZERO PUSH2 0x9F JUMPI PUSH1 0x0 DUP1 REVERT JUMPDEST POP GAS STATICCALL ISZERO DUP1 ISZERO PUSH2 0xB3 JUMPI RETURNDATASIZE PUSH1 0x0 DUP1 RETURNDATACOPY RETURNDATASIZE PUSH1 0x0 REVERT JUMPDEST POP POP POP POP PUSH1 0x40 MLOAD RETURNDATASIZE PUSH1 0x1F NOT PUSH1 0x1F DUP3 ADD AND DUP3 ADD DUP1 PUSH1 0x40 MSTORE POP DUP2 ADD SWAP1 PUSH2 0xD7 SWAP2 SWAP1 PUSH2 0x1AE JUMP JUMPDEST PUSH1 0x1 PUSH1 0x1 PUSH1 0xA0 SHL SUB AND CALLER PUSH1 0x1 PUSH1 0x1 PUSH1 0xA0 SHL SUB AND EQ PUSH2 0x146 JUMPI PUSH1 0x40 MLOAD PUSH3 0x461BCD PUSH1 0xE5 SHL DUP2 MSTORE PUSH1 0x20 PUSH1 0x4 DUP3 ADD MSTORE PUSH1 0x22 PUSH1 0x24 DUP3 ADD MSTORE PUSH32 0x6F6E6C79206D61726B657420666163746F72792063616E206D61746368206265 PUSH1 0x44 DUP3 ADD MSTORE PUSH2 0x7473 PUSH1 0xF0 SHL PUSH1 0x64 DUP3 ADD MSTORE PUSH1 0x84 ADD PUSH1 0x40 MLOAD DUP1 SWAP2 SUB SWAP1 REVERT JUMPDEST PUSH1 0x1 DUP1 SLOAD PUSH1 0x1 PUSH1 0x1 PUSH1 0xA0 SHL SUB NOT SWAP1 DUP2 AND PUSH1 0x1 PUSH1 0x1 PUSH1 0xA0 SHL SUB SWAP8 DUP9 AND OR SWAP1 SWAP2 SSTORE PUSH1 0x2 DUP1 SLOAD DUP3 AND SWAP6 DUP8 AND SWAP6 SWAP1 SWAP6 OR SWAP1 SWAP5 SSTORE PUSH1 0x3 DUP1 SLOAD SWAP1 SWAP5 AND SWAP3 SWAP1 SWAP5 AND SWAP2 SWAP1 SWAP2 OR SWAP1 SWAP2 SSTORE PUSH1 0x4 SSTORE PUSH1 0x5 SSTORE PUSH2 0x224 JUMP JUMPDEST DUP1 MLOAD PUSH1 0x1 PUSH1 0x1 PUSH1 0xA0 SHL SUB DUP2 AND DUP2 EQ PUSH2 0x1A9 JUMPI PUSH1 0x0 DUP1 REVERT JUMPDEST SWAP2 SWAP1 POP JUMP JUMPDEST PUSH1 0x0 PUSH1 0x20 DUP3 DUP5 SUB SLT ISZERO PUSH2 0x1BF JUMPI DUP1 DUP2 REVERT JUMPDEST PUSH2 0x1C8 DUP3 PUSH2 0x192 JUMP JUMPDEST SWAP4 SWAP3 POP POP POP JUMP JUMPDEST PUSH1 0x0 DUP1 PUSH1 0x0 DUP1 PUSH1 0x0 PUSH1 0xA0 DUP7 DUP9 SUB SLT ISZERO PUSH2 0x1E6 JUMPI DUP1 DUP2 REVERT JUMPDEST PUSH2 0x1EF DUP7 PUSH2 0x192 JUMP JUMPDEST SWAP5 POP PUSH2 0x1FD PUSH1 0x20 DUP8 ADD PUSH2 0x192 JUMP JUMPDEST SWAP4 POP PUSH2 0x20B PUSH1 0x40 DUP8 ADD PUSH2 0x192 JUMP JUMPDEST PUSH1 0x60 DUP8 ADD MLOAD PUSH1 0x80 SWAP1 SWAP8 ADD MLOAD SWAP6 SWAP9 SWAP5 SWAP8 POP SWAP6 SWAP5 SWAP4 SWAP3 POP POP POP JUMP JUMPDEST PUSH1 0xFB DUP1 PUSH2 0x232 PUSH1 0x0 CODECOPY PUSH1 0x0 RETURN INVALID PUSH1 0x80 PUSH1 0x40 MSTORE CALLVALUE DUP1 ISZERO PUSH1 0xF JUMPI PUSH1 0x0 DUP1 REVERT JUMPDEST POP PUSH1 0x4 CALLDATASIZE LT PUSH1 0x50 JUMPI PUSH1 0x0 CALLDATALOAD PUSH1 0xE0 SHR DUP1 PUSH4 0xF765E6D EQ PUSH1 0x55 JUMPI DUP1 PUSH4 0x156DCBF0 EQ PUSH1 0x84 JUMPI DUP1 PUSH4 0x15E894AB EQ PUSH1 0x99 JUMPI DUP1 PUSH4 0x2EFE91EF EQ PUSH1 0xAB JUMPI DUP1 PUSH4 0x80F55605 EQ PUSH1 0xB3 JUMPI JUMPDEST PUSH1 0x0 DUP1 REVERT JUMPDEST PUSH1 0x3 SLOAD PUSH1 0x67 SWAP1 PUSH1 0x1 PUSH1 0x1 PUSH1 0xA0 SHL SUB AND DUP2 JUMP JUMPDEST PUSH1 0x40 MLOAD PUSH1 0x1 PUSH1 0x1 PUSH1 0xA0 SHL SUB SWAP1 SWAP2 AND DUP2 MSTORE PUSH1 0x20 ADD JUMPDEST PUSH1 0x40 MLOAD DUP1 SWAP2 SUB SWAP1 RETURN JUMPDEST PUSH1 0x8C PUSH1 0x4 SLOAD DUP2 JUMP JUMPDEST PUSH1 0x40 MLOAD SWAP1 DUP2 MSTORE PUSH1 0x20 ADD PUSH1 0x7B JUMP JUMPDEST PUSH1 0x2 SLOAD PUSH1 0x67 SWAP1 PUSH1 0x1 PUSH1 0x1 PUSH1 0xA0 SHL SUB AND DUP2 JUMP JUMPDEST PUSH1 0x8C PUSH1 0x5 SLOAD DUP2 JUMP JUMPDEST PUSH1 0x1 SLOAD PUSH1 0x67 SWAP1 PUSH1 0x1 PUSH1 0x1 PUSH1 0xA0 SHL SUB AND DUP2 JUMP INVALID LOG2 PUSH5 0x6970667358 0x22 SLT KECCAK256 PUSH21 0xC2B66EEF55AB672A1C6C25BD67DBFDFB7F3CED1B2F GASLIMIT MUL 0xF SAR PUSH18 0xA248A93F4D64736F6C63430008040033A264 PUSH10 0x706673582212208A56DB 0x24 0xC4 GT SELFDESTRUCT SWAP1 PUSH3 0xB81215 SELFDESTRUCT DUP15 ADDRESS 0xB5 0x5F SIGNEXTEND CODECOPY 0x27 0xBA 0xD2 DUP3 XOR PUSH7 0xC01ED0C0FDAE27 PUSH5 0x736F6C6343 STOP ADDMOD DIV STOP CALLER "
				},
				"gasEstimates": {
					"creation": {
						"codeDepositCost": "2332800",
						"executionCost": "infinite",
						"totalCost": "infinite"
					},
					"external": {
						"addBet(address,address,uint256,uint8,string)": "infinite",
						"cancelMarket()": "infinite",
						"eventAddress()": "1125",
						"hasSetWinningSide()": "1038",
						"isCanceled()": "1089",
						"name()": "infinite",
						"setWinningSide(string)": "infinite",
						"settlePair(address)": "infinite",
						"sideABets(uint256)": "3757",
						"sideAName()": "infinite",
						"sideATotalStake()": "1039",
						"sideAUsersStakes(address)": "1258",
						"sideBBets(uint256)": "3778",
						"sideBName()": "infinite",
						"sideBTotalStake()": "1063",
						"sideBUsersStakes(address)": "1280",
						"upadteMarket(string,string,string)": "infinite",
						"winningSide()": "infinite",
						"withdrawPending(address)": "infinite"
					},
					"internal": {
						"_addToSideA(address,address,uint256,uint8)": "infinite",
						"_addToSideB(address,address,uint256,uint8)": "infinite",
						"_matchSideABet(address,uint256,uint8)": "infinite",
						"_matchSideBBet(address,uint256,uint8)": "infinite"
					}
				},
				"methodIdentifiers": {
					"addBet(address,address,uint256,uint8,string)": "9bf5b845",
					"cancelMarket()": "6bfefd6b",
					"eventAddress()": "fad56779",
					"hasSetWinningSide()": "bd92630c",
					"isCanceled()": "0ed5a933",
					"name()": "06fdde03",
					"setWinningSide(string)": "b40a4f05",
					"settlePair(address)": "2b4a3527",
					"sideABets(uint256)": "948fb24d",
					"sideAName()": "8eb1a4ad",
					"sideATotalStake()": "d37e2996",
					"sideAUsersStakes(address)": "3ab8781c",
					"sideBBets(uint256)": "e7c9a87f",
					"sideBName()": "a355f897",
					"sideBTotalStake()": "0b469bda",
					"sideBUsersStakes(address)": "5a358464",
					"upadteMarket(string,string,string)": "83bbe262",
					"winningSide()": "fbf06338",
					"withdrawPending(address)": "03afd56b"
				}
			},
			"storageLayout": {
				"storage": [
					{
						"astId": 925,
						"contract": "contracts/Market.sol:Market",
						"label": "web3betsAddress",
						"offset": 0,
						"slot": "0",
						"type": "t_address"
					},
					{
						"astId": 928,
						"contract": "contracts/Market.sol:Market",
						"label": "name",
						"offset": 0,
						"slot": "1",
						"type": "t_string_storage"
					},
					{
						"astId": 931,
						"contract": "contracts/Market.sol:Market",
						"label": "eventAddress",
						"offset": 0,
						"slot": "2",
						"type": "t_address"
					},
					{
						"astId": 934,
						"contract": "contracts/Market.sol:Market",
						"label": "hasSetWinningSide",
						"offset": 20,
						"slot": "2",
						"type": "t_bool"
					},
					{
						"astId": 937,
						"contract": "contracts/Market.sol:Market",
						"label": "winningSide",
						"offset": 0,
						"slot": "3",
						"type": "t_string_storage"
					},
					{
						"astId": 941,
						"contract": "contracts/Market.sol:Market",
						"label": "isCanceled",
						"offset": 0,
						"slot": "4",
						"type": "t_bool"
					},
					{
						"astId": 944,
						"contract": "contracts/Market.sol:Market",
						"label": "sideAName",
						"offset": 0,
						"slot": "5",
						"type": "t_string_storage"
					},
					{
						"astId": 948,
						"contract": "contracts/Market.sol:Market",
						"label": "sideATotalStake",
						"offset": 0,
						"slot": "6",
						"type": "t_uint256"
					},
					{
						"astId": 951,
						"contract": "contracts/Market.sol:Market",
						"label": "sideBName",
						"offset": 0,
						"slot": "7",
						"type": "t_string_storage"
					},
					{
						"astId": 955,
						"contract": "contracts/Market.sol:Market",
						"label": "sideBTotalStake",
						"offset": 0,
						"slot": "8",
						"type": "t_uint256"
					},
					{
						"astId": 966,
						"contract": "contracts/Market.sol:Market",
						"label": "sideABets",
						"offset": 0,
						"slot": "9",
						"type": "t_array(t_struct(MarketBet)962_storage)dyn_storage"
					},
					{
						"astId": 970,
						"contract": "contracts/Market.sol:Market",
						"label": "sideABetsPending",
						"offset": 0,
						"slot": "10",
						"type": "t_array(t_struct(MarketBet)962_storage)dyn_storage"
					},
					{
						"astId": 974,
						"contract": "contracts/Market.sol:Market",
						"label": "sideBBets",
						"offset": 0,
						"slot": "11",
						"type": "t_array(t_struct(MarketBet)962_storage)dyn_storage"
					},
					{
						"astId": 978,
						"contract": "contracts/Market.sol:Market",
						"label": "sideBBetsPending",
						"offset": 0,
						"slot": "12",
						"type": "t_array(t_struct(MarketBet)962_storage)dyn_storage"
					},
					{
						"astId": 982,
						"contract": "contracts/Market.sol:Market",
						"label": "sideAUsersStakes",
						"offset": 0,
						"slot": "13",
						"type": "t_mapping(t_address,t_uint256)"
					},
					{
						"astId": 986,
						"contract": "contracts/Market.sol:Market",
						"label": "sideBUsersStakes",
						"offset": 0,
						"slot": "14",
						"type": "t_mapping(t_address,t_uint256)"
					},
					{
						"astId": 992,
						"contract": "contracts/Market.sol:Market",
						"label": "web3bets",
						"offset": 0,
						"slot": "15",
						"type": "t_contract(IWeb3BetsFO)2210"
					},
					{
						"astId": 997,
						"contract": "contracts/Market.sol:Market",
						"label": "stableCoin",
						"offset": 0,
						"slot": "16",
						"type": "t_address"
					},
					{
						"astId": 1003,
						"contract": "contracts/Market.sol:Market",
						"label": "_stableCoinWrapper",
						"offset": 0,
						"slot": "17",
						"type": "t_contract(IERC20)77"
					}
				],
				"types": {
					"t_address": {
						"encoding": "inplace",
						"label": "address",
						"numberOfBytes": "20"
					},
					"t_array(t_struct(MarketBet)962_storage)dyn_storage": {
						"base": "t_struct(MarketBet)962_storage",
						"encoding": "dynamic_array",
						"label": "struct Market.MarketBet[]",
						"numberOfBytes": "32"
					},
					"t_bool": {
						"encoding": "inplace",
						"label": "bool",
						"numberOfBytes": "1"
					},
					"t_contract(IERC20)77": {
						"encoding": "inplace",
						"label": "contract IERC20",
						"numberOfBytes": "20"
					},
					"t_contract(IWeb3BetsFO)2210": {
						"encoding": "inplace",
						"label": "contract IWeb3BetsFO",
						"numberOfBytes": "20"
					},
					"t_mapping(t_address,t_uint256)": {
						"encoding": "mapping",
						"key": "t_address",
						"label": "mapping(address => uint256)",
						"numberOfBytes": "32",
						"value": "t_uint256"
					},
					"t_string_storage": {
						"encoding": "bytes",
						"label": "string",
						"numberOfBytes": "32"
					},
					"t_struct(MarketBet)962_storage": {
						"encoding": "inplace",
						"label": "struct Market.MarketBet",
						"members": [
							{
								"astId": 957,
								"contract": "contracts/Market.sol:Market",
								"label": "betAddress",
								"offset": 0,
								"slot": "0",
								"type": "t_address"
							},
							{
								"astId": 959,
								"contract": "contracts/Market.sol:Market",
								"label": "stake",
								"offset": 0,
								"slot": "1",
								"type": "t_uint256"
							},
							{
								"astId": 961,
								"contract": "contracts/Market.sol:Market",
								"label": "odds",
								"offset": 0,
								"slot": "2",
								"type": "t_uint8"
							}
						],
						"numberOfBytes": "96"
					},
					"t_uint256": {
						"encoding": "inplace",
						"label": "uint256",
						"numberOfBytes": "32"
					},
					"t_uint8": {
						"encoding": "inplace",
						"label": "uint8",
						"numberOfBytes": "1"
					}
				}
			},
			"userdoc": {
				"kind": "user",
				"methods": {},
				"version": 1
			}
		}
	}
}