{
	"contracts/Market.sol": {
		"Market": {
			"abi": [
				{
					"inputs": [
						{
							"internalType": "string",
							"name": "name_",
							"type": "string"
						},
						{
							"internalType": "address",
							"name": "eventAddress_",
							"type": "address"
						},
						{
							"internalType": "string",
							"name": "sideAName_",
							"type": "string"
						},
						{
							"internalType": "string",
							"name": "sideBName_",
							"type": "string"
						}
					],
					"stateMutability": "nonpayable",
					"type": "constructor"
				},
				{
					"inputs": [
						{
							"internalType": "address",
							"name": "_better",
							"type": "address"
						},
						{
							"internalType": "address",
							"name": "_betAddress",
							"type": "address"
						},
						{
							"internalType": "uint256",
							"name": "_stake",
							"type": "uint256"
						},
						{
							"internalType": "uint8",
							"name": "_odds",
							"type": "uint8"
						},
						{
							"internalType": "string",
							"name": "_side",
							"type": "string"
						}
					],
					"name": "addBet",
					"outputs": [
						{
							"internalType": "bool",
							"name": "",
							"type": "bool"
						}
					],
					"stateMutability": "nonpayable",
					"type": "function"
				},
				{
					"inputs": [],
					"name": "cancelMarket",
					"outputs": [
						{
							"internalType": "bool",
							"name": "",
							"type": "bool"
						}
					],
					"stateMutability": "nonpayable",
					"type": "function"
				},
				{
					"inputs": [],
					"name": "eventAddress",
					"outputs": [
						{
							"internalType": "address",
							"name": "",
							"type": "address"
						}
					],
					"stateMutability": "view",
					"type": "function"
				},
				{
					"inputs": [],
					"name": "getEventName",
					"outputs": [
						{
							"internalType": "string",
							"name": "",
							"type": "string"
						}
					],
					"stateMutability": "nonpayable",
					"type": "function"
				},
				{
					"inputs": [],
					"name": "getName",
					"outputs": [
						{
							"internalType": "string",
							"name": "",
							"type": "string"
						}
					],
					"stateMutability": "view",
					"type": "function"
				},
				{
					"inputs": [],
					"name": "hasSetWinningSide",
					"outputs": [
						{
							"internalType": "bool",
							"name": "",
							"type": "bool"
						}
					],
					"stateMutability": "view",
					"type": "function"
				},
				{
					"inputs": [],
					"name": "isCanceled",
					"outputs": [
						{
							"internalType": "bool",
							"name": "",
							"type": "bool"
						}
					],
					"stateMutability": "view",
					"type": "function"
				},
				{
					"inputs": [],
					"name": "name",
					"outputs": [
						{
							"internalType": "string",
							"name": "",
							"type": "string"
						}
					],
					"stateMutability": "view",
					"type": "function"
				},
				{
					"inputs": [
						{
							"internalType": "string",
							"name": "_winningSide",
							"type": "string"
						}
					],
					"name": "setWinningSide",
					"outputs": [
						{
							"internalType": "bool",
							"name": "",
							"type": "bool"
						}
					],
					"stateMutability": "nonpayable",
					"type": "function"
				},
				{
					"inputs": [
						{
							"internalType": "address",
							"name": "_pair",
							"type": "address"
						}
					],
					"name": "settlePair",
					"outputs": [
						{
							"internalType": "bool",
							"name": "",
							"type": "bool"
						}
					],
					"stateMutability": "nonpayable",
					"type": "function"
				},
				{
					"inputs": [
						{
							"internalType": "uint256",
							"name": "",
							"type": "uint256"
						}
					],
					"name": "sideABets",
					"outputs": [
						{
							"internalType": "address",
							"name": "betAddress",
							"type": "address"
						},
						{
							"internalType": "uint256",
							"name": "stake",
							"type": "uint256"
						},
						{
							"internalType": "uint8",
							"name": "odds",
							"type": "uint8"
						}
					],
					"stateMutability": "view",
					"type": "function"
				},
				{
					"inputs": [],
					"name": "sideAName",
					"outputs": [
						{
							"internalType": "string",
							"name": "",
							"type": "string"
						}
					],
					"stateMutability": "view",
					"type": "function"
				},
				{
					"inputs": [],
					"name": "sideATotalStake",
					"outputs": [
						{
							"internalType": "uint256",
							"name": "",
							"type": "uint256"
						}
					],
					"stateMutability": "view",
					"type": "function"
				},
				{
					"inputs": [
						{
							"internalType": "address",
							"name": "",
							"type": "address"
						}
					],
					"name": "sideAUsersStakes",
					"outputs": [
						{
							"internalType": "uint256",
							"name": "",
							"type": "uint256"
						}
					],
					"stateMutability": "view",
					"type": "function"
				},
				{
					"inputs": [
						{
							"internalType": "uint256",
							"name": "",
							"type": "uint256"
						}
					],
					"name": "sideBBets",
					"outputs": [
						{
							"internalType": "address",
							"name": "betAddress",
							"type": "address"
						},
						{
							"internalType": "uint256",
							"name": "stake",
							"type": "uint256"
						},
						{
							"internalType": "uint8",
							"name": "odds",
							"type": "uint8"
						}
					],
					"stateMutability": "view",
					"type": "function"
				},
				{
					"inputs": [],
					"name": "sideBName",
					"outputs": [
						{
							"internalType": "string",
							"name": "",
							"type": "string"
						}
					],
					"stateMutability": "view",
					"type": "function"
				},
				{
					"inputs": [],
					"name": "sideBTotalStake",
					"outputs": [
						{
							"internalType": "uint256",
							"name": "",
							"type": "uint256"
						}
					],
					"stateMutability": "view",
					"type": "function"
				},
				{
					"inputs": [
						{
							"internalType": "address",
							"name": "",
							"type": "address"
						}
					],
					"name": "sideBUsersStakes",
					"outputs": [
						{
							"internalType": "uint256",
							"name": "",
							"type": "uint256"
						}
					],
					"stateMutability": "view",
					"type": "function"
				},
				{
					"inputs": [
						{
							"internalType": "string",
							"name": "name_",
							"type": "string"
						},
						{
							"internalType": "string",
							"name": "sideAName_",
							"type": "string"
						},
						{
							"internalType": "string",
							"name": "sideBName_",
							"type": "string"
						}
					],
					"name": "upadteMarket",
					"outputs": [
						{
							"internalType": "bool",
							"name": "",
							"type": "bool"
						}
					],
					"stateMutability": "nonpayable",
					"type": "function"
				},
				{
					"inputs": [],
					"name": "winningSide",
					"outputs": [
						{
							"internalType": "string",
							"name": "",
							"type": "string"
						}
					],
					"stateMutability": "view",
					"type": "function"
				},
				{
					"inputs": [
						{
							"internalType": "address",
							"name": "_bet",
							"type": "address"
						}
					],
					"name": "withdrawPending",
					"outputs": [
						{
							"internalType": "bool",
							"name": "",
							"type": "bool"
						}
					],
					"stateMutability": "nonpayable",
					"type": "function"
				}
			],
			"devdoc": {
				"kind": "dev",
				"methods": {},
				"version": 1
			},
			"evm": {
				"assembly": "    /* \"contracts/Market.sol\":342:11143  contract Market is IMarket {... */\n  0x80\n  0x40\n  dup2\n  swap1\n  mstore\n    /* \"contracts/Market.sol\":596:635  bool public override isCanceled = false */\n  0x04\n  dup1\n  sload\n  not(0xff)\n  and\n  dup2\n  sstore\n    /* \"contracts/Market.sol\":630:635  false */\n  0x00\n    /* \"contracts/Market.sol\":680:723  uint256 public override sideATotalStake = 0 */\n  0x06\n  dup2\n  swap1\n  sstore\n    /* \"contracts/Market.sol\":767:810  uint256 public override sideBTotalStake = 0 */\n  0x08\n  dup2\n  swap1\n  sstore\n    /* \"contracts/Market.sol\":1228:1243  web3betsAddress */\n  sload\n    /* \"contracts/Market.sol\":1185:1244  IWeb3BetsFO private web3bets = IWeb3BetsFO(web3betsAddress) */\n  0x0f\n  dup1\n  sload\n  not(sub(shl(0xa0, 0x01), 0x01))\n  and\n  sub(shl(0xa0, 0x01), 0x01)\n    /* \"contracts/Market.sol\":1228:1243  web3betsAddress */\n  swap1\n  swap3\n  and\n    /* \"contracts/Market.sol\":1185:1244  IWeb3BetsFO private web3bets = IWeb3BetsFO(web3betsAddress) */\n  swap2\n  dup3\n  or\n  swap1\n  sstore\n  shl(0xe0, 0x992642e5)\n    /* \"contracts/Market.sol\":1280:1301  web3bets.stableCoin() */\n  dup4\n  mstore\n    /* \"contracts/Market.sol\":1228:1243  web3betsAddress */\n  swap2\n    /* \"contracts/Market.sol\":1280:1299  web3bets.stableCoin */\n  0x992642e5\n  swap2\n    /* \"contracts/Market.sol\":1280:1301  web3bets.stableCoin() */\n  0x84\n  swap2\n  0x20\n  swap2\n    /* \"contracts/Market.sol\":342:11143  contract Market is IMarket {... */\n  dup2\n    /* \"contracts/Market.sol\":1228:1243  web3betsAddress */\n  dup7\n    /* \"contracts/Market.sol\":1280:1301  web3bets.stableCoin() */\n  dup1\n  extcodesize\n  iszero\n  dup1\n  iszero\n  tag_1\n  jumpi\n  0x00\n  dup1\n  revert\ntag_1:\n  pop\n  gas\n  staticcall\n  iszero\n  dup1\n  iszero\n  tag_3\n  jumpi\n  returndatasize\n  0x00\n  dup1\n  returndatacopy\n  revert(0x00, returndatasize)\ntag_3:\n  pop\n  pop\n  pop\n  pop\n  mload(0x40)\n  returndatasize\n  not(0x1f)\n  0x1f\n  dup3\n  add\n  and\n  dup3\n  add\n  dup1\n  0x40\n  mstore\n  pop\n  dup2\n  add\n  swap1\n  tag_4\n  swap2\n  swap1\n  tag_5\n  jump\t// in\ntag_4:\n    /* \"contracts/Market.sol\":1251:1301  address private stableCoin = web3bets.stableCoin() */\n  0x10\n  dup1\n  sload\n  sub(shl(0xa0, 0x01), 0x01)\n  swap3\n  swap1\n  swap3\n  and\n  not(sub(shl(0xa0, 0x01), 0x01))\n  swap3\n  dup4\n  and\n  dup2\n  or\n  swap1\n  swap2\n  sstore\n    /* \"contracts/Market.sol\":1308:1362  IERC20 private _stableCoinWrapper = IERC20(stableCoin) */\n  0x11\n  dup1\n  sload\n  swap1\n  swap3\n  and\n  or\n  swap1\n  sstore\n    /* \"contracts/Market.sol\":1609:2006  constructor(... */\n  callvalue\n  dup1\n  iszero\n  tag_6\n  jumpi\n  0x00\n  dup1\n  revert\ntag_6:\n  pop\n  mload(0x40)\n  sub(codesize, bytecodeSize)\n  dup1\n  bytecodeSize\n  dup4\n  codecopy\n  dup2\n  add\n  0x40\n  dup2\n  swap1\n  mstore\n  tag_7\n  swap2\n  tag_8\n  jump\t// in\ntag_7:\n    /* \"contracts/Market.sol\":1787:1795  web3bets */\n  0x0f\n  0x00\n  swap1\n  sload\n  swap1\n  0x0100\n  exp\n  swap1\n  div\n  sub(shl(0xa0, 0x01), 0x01)\n  and\n  sub(shl(0xa0, 0x01), 0x01)\n    /* \"contracts/Market.sol\":1787:1803  web3bets.factory */\n  and\n  0xc45a0155\n    /* \"contracts/Market.sol\":1787:1805  web3bets.factory() */\n  mload(0x40)\n  dup2\n  0xffffffff\n  and\n  0xe0\n  shl\n  dup2\n  mstore\n  0x04\n  add\n  0x20\n  mload(0x40)\n  dup1\n  dup4\n  sub\n  dup2\n  dup7\n  dup1\n  extcodesize\n  iszero\n  dup1\n  iszero\n  tag_11\n  jumpi\n  0x00\n  dup1\n  revert\ntag_11:\n  pop\n  gas\n  staticcall\n  iszero\n  dup1\n  iszero\n  tag_13\n  jumpi\n  returndatasize\n  0x00\n  dup1\n  returndatacopy\n  revert(0x00, returndatasize)\ntag_13:\n  pop\n  pop\n  pop\n  pop\n  mload(0x40)\n  returndatasize\n  not(0x1f)\n  0x1f\n  dup3\n  add\n  and\n  dup3\n  add\n  dup1\n  0x40\n  mstore\n  pop\n  dup2\n  add\n  swap1\n  tag_14\n  swap2\n  swap1\n  tag_5\n  jump\t// in\ntag_14:\n  sub(shl(0xa0, 0x01), 0x01)\n    /* \"contracts/Market.sol\":1773:1805  msg.sender == web3bets.factory() */\n  and\n    /* \"contracts/Market.sol\":1773:1783  msg.sender */\n  caller\n  sub(shl(0xa0, 0x01), 0x01)\n    /* \"contracts/Market.sol\":1773:1805  msg.sender == web3bets.factory() */\n  and\n  eq\n    /* \"contracts/Market.sol\":1765:1875  require(msg.sender == web3bets.factory(), \"only web3bets fixedodds factory contract can create this contract\") */\n  tag_15\n  jumpi\n  mload(0x40)\n  shl(0xe5, 0x461bcd)\n  dup2\n  mstore\n    /* \"#utility.yul\":2432:2434   */\n  0x20\n    /* \"contracts/Market.sol\":1765:1875  require(msg.sender == web3bets.factory(), \"only web3bets fixedodds factory contract can create this contract\") */\n  0x04\n  dup3\n  add\n    /* \"#utility.yul\":2414:2435   */\n  mstore\n    /* \"#utility.yul\":2471:2473   */\n  0x41\n    /* \"#utility.yul\":2451:2469   */\n  0x24\n  dup3\n  add\n    /* \"#utility.yul\":2444:2474   */\n  mstore\n    /* \"#utility.yul\":2510:2544   */\n  0x6f6e6c792077656233626574732066697865646f64647320666163746f727920\n    /* \"#utility.yul\":2490:2508   */\n  0x44\n  dup3\n  add\n    /* \"#utility.yul\":2483:2545   */\n  mstore\n    /* \"#utility.yul\":2581:2615   */\n  0x636f6e74726163742063616e20637265617465207468697320636f6e74726163\n    /* \"#utility.yul\":2561:2579   */\n  0x64\n  dup3\n  add\n    /* \"#utility.yul\":2554:2616   */\n  mstore\n  shl(0xfa, 0x1d)\n    /* \"#utility.yul\":2632:2651   */\n  0x84\n  dup3\n  add\n    /* \"#utility.yul\":2625:2657   */\n  mstore\n    /* \"#utility.yul\":2674:2693   */\n  0xa4\n  add\n    /* \"contracts/Market.sol\":1765:1875  require(msg.sender == web3bets.factory(), \"only web3bets fixedodds factory contract can create this contract\") */\n  mload(0x40)\n  dup1\n  swap2\n  sub\n  swap1\n  revert\ntag_15:\n    /* \"contracts/Market.sol\":1885:1897  name = name_ */\n  dup4\n  mload\n  tag_18\n  swap1\n    /* \"contracts/Market.sol\":1885:1889  name */\n  0x01\n  swap1\n    /* \"contracts/Market.sol\":1885:1897  name = name_ */\n  0x20\n  dup8\n  add\n  swap1\n  tag_19\n  jump\t// in\ntag_18:\n  pop\n    /* \"contracts/Market.sol\":1907:1919  eventAddress */\n  0x02\n    /* \"contracts/Market.sol\":1907:1935  eventAddress = eventAddress_ */\n  dup1\n  sload\n  not(sub(shl(0xa0, 0x01), 0x01))\n  and\n  sub(shl(0xa0, 0x01), 0x01)\n  dup6\n  and\n  or\n  swap1\n  sstore\n    /* \"contracts/Market.sol\":1945:1967  sideAName = sideAName_ */\n  dup2\n  mload\n  tag_20\n  swap1\n    /* \"contracts/Market.sol\":1945:1954  sideAName */\n  0x05\n  swap1\n    /* \"contracts/Market.sol\":1945:1967  sideAName = sideAName_ */\n  0x20\n  dup6\n  add\n  swap1\n  tag_19\n  jump\t// in\ntag_20:\n  pop\n    /* \"contracts/Market.sol\":1977:1999  sideBName = sideBName_ */\n  dup1\n  mload\n  tag_21\n  swap1\n    /* \"contracts/Market.sol\":1977:1986  sideBName */\n  0x07\n  swap1\n    /* \"contracts/Market.sol\":1977:1999  sideBName = sideBName_ */\n  0x20\n  dup5\n  add\n  swap1\n  tag_19\n  jump\t// in\ntag_21:\n  pop\n    /* \"contracts/Market.sol\":1609:2006  constructor(... */\n  pop\n  pop\n  pop\n  pop\n    /* \"contracts/Market.sol\":342:11143  contract Market is IMarket {... */\n  jump(tag_34)\ntag_19:\n  dup3\n  dup1\n  sload\n  tag_23\n  swap1\n  tag_24\n  jump\t// in\ntag_23:\n  swap1\n  0x00\n  mstore\n  keccak256(0x00, 0x20)\n  swap1\n  0x1f\n  add\n  0x20\n  swap1\n  div\n  dup2\n  add\n  swap3\n  dup3\n  tag_26\n  jumpi\n  0x00\n  dup6\n  sstore\n  jump(tag_29)\ntag_26:\n  dup3\n  0x1f\n  lt\n  tag_27\n  jumpi\n  dup1\n  mload\n  not(0xff)\n  and\n  dup4\n  dup1\n  add\n  or\n  dup6\n  sstore\n  jump(tag_29)\ntag_27:\n  dup3\n  dup1\n  add\n  0x01\n  add\n  dup6\n  sstore\n  dup3\n  iszero\n  tag_29\n  jumpi\n  swap2\n  dup3\n  add\ntag_28:\n  dup3\n  dup2\n  gt\n  iszero\n  tag_29\n  jumpi\n  dup3\n  mload\n  dup3\n  sstore\n  swap2\n  0x20\n  add\n  swap2\n  swap1\n  0x01\n  add\n  swap1\n  jump(tag_28)\ntag_29:\n  pop\n  tag_30\n  swap3\n  swap2\n  pop\n  tag_31\n  jump\t// in\ntag_30:\n  pop\n  swap1\n  jump\t// out\ntag_31:\ntag_32:\n  dup1\n  dup3\n  gt\n  iszero\n  tag_30\n  jumpi\n  0x00\n  dup2\n  sstore\n  0x01\n  add\n  jump(tag_32)\n    /* \"#utility.yul\":14:191   */\ntag_35:\n    /* \"#utility.yul\":93:106   */\n  dup1\n  mload\n  sub(shl(0xa0, 0x01), 0x01)\n    /* \"#utility.yul\":135:166   */\n  dup2\n  and\n    /* \"#utility.yul\":125:167   */\n  dup2\n  eq\n    /* \"#utility.yul\":115:117   */\n  tag_37\n  jumpi\n    /* \"#utility.yul\":181:182   */\n  0x00\n    /* \"#utility.yul\":178:179   */\n  dup1\n    /* \"#utility.yul\":171:183   */\n  revert\n    /* \"#utility.yul\":115:117   */\ntag_37:\n    /* \"#utility.yul\":74:191   */\n  swap2\n  swap1\n  pop\n  jump\t// out\n    /* \"#utility.yul\":196:1105   */\ntag_38:\n    /* \"#utility.yul\":250:255   */\n  0x00\n    /* \"#utility.yul\":303:306   */\n  dup3\n    /* \"#utility.yul\":296:300   */\n  0x1f\n    /* \"#utility.yul\":288:294   */\n  dup4\n    /* \"#utility.yul\":284:301   */\n  add\n    /* \"#utility.yul\":280:307   */\n  slt\n    /* \"#utility.yul\":270:272   */\n  tag_40\n  jumpi\n    /* \"#utility.yul\":325:330   */\n  dup1\n    /* \"#utility.yul\":318:323   */\n  dup2\n    /* \"#utility.yul\":311:331   */\n  revert\n    /* \"#utility.yul\":270:272   */\ntag_40:\n    /* \"#utility.yul\":352:365   */\n  dup2\n  mload\n  sub(shl(0x40, 0x01), 0x01)\n    /* \"#utility.yul\":414:424   */\n  dup1\n  dup3\n  gt\n    /* \"#utility.yul\":411:413   */\n  iszero\n  tag_42\n  jumpi\n    /* \"#utility.yul\":427:445   */\n  tag_42\n  tag_43\n  jump\t// in\ntag_42:\n    /* \"#utility.yul\":502:504   */\n  0x40\n    /* \"#utility.yul\":496:505   */\n  mload\n    /* \"#utility.yul\":470:472   */\n  0x1f\n    /* \"#utility.yul\":556:569   */\n  dup4\n  add\n  not(0x1f)\n    /* \"#utility.yul\":552:574   */\n  swap1\n  dup2\n  and\n    /* \"#utility.yul\":576:578   */\n  0x3f\n    /* \"#utility.yul\":548:579   */\n  add\n    /* \"#utility.yul\":544:584   */\n  and\n    /* \"#utility.yul\":532:585   */\n  dup2\n  add\n  swap1\n    /* \"#utility.yul\":600:618   */\n  dup3\n  dup3\n  gt\n    /* \"#utility.yul\":620:642   */\n  dup2\n  dup4\n  lt\n    /* \"#utility.yul\":597:643   */\n  or\n    /* \"#utility.yul\":594:596   */\n  iszero\n  tag_45\n  jumpi\n    /* \"#utility.yul\":646:664   */\n  tag_45\n  tag_43\n  jump\t// in\ntag_45:\n    /* \"#utility.yul\":686:696   */\n  dup2\n    /* \"#utility.yul\":682:684   */\n  0x40\n    /* \"#utility.yul\":675:697   */\n  mstore\n    /* \"#utility.yul\":721:723   */\n  dup4\n    /* \"#utility.yul\":713:719   */\n  dup2\n    /* \"#utility.yul\":706:724   */\n  mstore\n    /* \"#utility.yul\":743:747   */\n  0x20\n    /* \"#utility.yul\":733:747   */\n  swap3\n  pop\n    /* \"#utility.yul\":788:791   */\n  dup7\n    /* \"#utility.yul\":783:785   */\n  dup4\n    /* \"#utility.yul\":778:780   */\n  dup6\n    /* \"#utility.yul\":770:776   */\n  dup9\n    /* \"#utility.yul\":766:781   */\n  add\n    /* \"#utility.yul\":762:786   */\n  add\n    /* \"#utility.yul\":759:792   */\n  gt\n    /* \"#utility.yul\":756:758   */\n  iszero\n  tag_46\n  jumpi\n    /* \"#utility.yul\":809:814   */\n  dup5\n    /* \"#utility.yul\":802:807   */\n  dup6\n    /* \"#utility.yul\":795:815   */\n  revert\n    /* \"#utility.yul\":756:758   */\ntag_46:\n    /* \"#utility.yul\":835:840   */\n  dup5\n    /* \"#utility.yul\":826:840   */\n  swap2\n  pop\n    /* \"#utility.yul\":849:982   */\ntag_47:\n    /* \"#utility.yul\":863:865   */\n  dup4\n    /* \"#utility.yul\":860:861   */\n  dup3\n    /* \"#utility.yul\":857:866   */\n  lt\n    /* \"#utility.yul\":849:982   */\n  iszero\n  tag_49\n  jumpi\n    /* \"#utility.yul\":951:965   */\n  dup6\n  dup3\n  add\n    /* \"#utility.yul\":947:970   */\n  dup4\n  add\n    /* \"#utility.yul\":941:971   */\n  mload\n    /* \"#utility.yul\":920:934   */\n  dup2\n  dup4\n  add\n    /* \"#utility.yul\":916:939   */\n  dup5\n  add\n    /* \"#utility.yul\":909:972   */\n  mstore\n    /* \"#utility.yul\":874:884   */\n  swap1\n  dup3\n  add\n  swap1\n    /* \"#utility.yul\":849:982   */\n  jump(tag_47)\ntag_49:\n    /* \"#utility.yul\":1000:1002   */\n  dup4\n    /* \"#utility.yul\":997:998   */\n  dup3\n    /* \"#utility.yul\":994:1003   */\n  gt\n    /* \"#utility.yul\":991:993   */\n  iszero\n  tag_50\n  jumpi\n    /* \"#utility.yul\":1059:1064   */\n  dup5\n    /* \"#utility.yul\":1054:1056   */\n  dup4\n    /* \"#utility.yul\":1049:1051   */\n  dup6\n    /* \"#utility.yul\":1041:1047   */\n  dup4\n    /* \"#utility.yul\":1037:1052   */\n  add\n    /* \"#utility.yul\":1033:1057   */\n  add\n    /* \"#utility.yul\":1026:1065   */\n  mstore\n    /* \"#utility.yul\":991:993   */\ntag_50:\n    /* \"#utility.yul\":1093:1099   */\n  swap7\n    /* \"#utility.yul\":260:1105   */\n  swap6\n  pop\n  pop\n  pop\n  pop\n  pop\n  pop\n  jump\t// out\n    /* \"#utility.yul\":1110:1328   */\ntag_5:\n    /* \"#utility.yul\":1180:1186   */\n  0x00\n    /* \"#utility.yul\":1233:1235   */\n  0x20\n    /* \"#utility.yul\":1221:1230   */\n  dup3\n    /* \"#utility.yul\":1212:1219   */\n  dup5\n    /* \"#utility.yul\":1208:1231   */\n  sub\n    /* \"#utility.yul\":1204:1236   */\n  slt\n    /* \"#utility.yul\":1201:1203   */\n  iszero\n  tag_52\n  jumpi\n    /* \"#utility.yul\":1254:1260   */\n  dup1\n    /* \"#utility.yul\":1246:1252   */\n  dup2\n    /* \"#utility.yul\":1239:1261   */\n  revert\n    /* \"#utility.yul\":1201:1203   */\ntag_52:\n    /* \"#utility.yul\":1282:1322   */\n  tag_53\n    /* \"#utility.yul\":1312:1321   */\n  dup3\n    /* \"#utility.yul\":1282:1322   */\n  tag_35\n  jump\t// in\ntag_53:\n    /* \"#utility.yul\":1272:1322   */\n  swap4\n    /* \"#utility.yul\":1191:1328   */\n  swap3\n  pop\n  pop\n  pop\n  jump\t// out\n    /* \"#utility.yul\":1333:2225   */\ntag_8:\n    /* \"#utility.yul\":1460:1466   */\n  0x00\n    /* \"#utility.yul\":1468:1474   */\n  dup1\n    /* \"#utility.yul\":1476:1482   */\n  0x00\n    /* \"#utility.yul\":1484:1490   */\n  dup1\n    /* \"#utility.yul\":1537:1540   */\n  0x80\n    /* \"#utility.yul\":1525:1534   */\n  dup6\n    /* \"#utility.yul\":1516:1523   */\n  dup8\n    /* \"#utility.yul\":1512:1535   */\n  sub\n    /* \"#utility.yul\":1508:1541   */\n  slt\n    /* \"#utility.yul\":1505:1507   */\n  iszero\n  tag_55\n  jumpi\n    /* \"#utility.yul\":1559:1565   */\n  dup3\n    /* \"#utility.yul\":1551:1557   */\n  dup4\n    /* \"#utility.yul\":1544:1566   */\n  revert\n    /* \"#utility.yul\":1505:1507   */\ntag_55:\n    /* \"#utility.yul\":1591:1607   */\n  dup5\n  mload\n  sub(shl(0x40, 0x01), 0x01)\n    /* \"#utility.yul\":1656:1670   */\n  dup1\n  dup3\n  gt\n    /* \"#utility.yul\":1653:1655   */\n  iszero\n  tag_56\n  jumpi\n    /* \"#utility.yul\":1688:1694   */\n  dup5\n    /* \"#utility.yul\":1680:1686   */\n  dup6\n    /* \"#utility.yul\":1673:1695   */\n  revert\n    /* \"#utility.yul\":1653:1655   */\ntag_56:\n    /* \"#utility.yul\":1716:1777   */\n  tag_57\n    /* \"#utility.yul\":1769:1776   */\n  dup9\n    /* \"#utility.yul\":1760:1766   */\n  dup4\n    /* \"#utility.yul\":1749:1758   */\n  dup10\n    /* \"#utility.yul\":1745:1767   */\n  add\n    /* \"#utility.yul\":1716:1777   */\n  tag_38\n  jump\t// in\ntag_57:\n    /* \"#utility.yul\":1706:1777   */\n  swap6\n  pop\n    /* \"#utility.yul\":1796:1845   */\n  tag_58\n    /* \"#utility.yul\":1841:1843   */\n  0x20\n    /* \"#utility.yul\":1830:1839   */\n  dup9\n    /* \"#utility.yul\":1826:1844   */\n  add\n    /* \"#utility.yul\":1796:1845   */\n  tag_35\n  jump\t// in\ntag_58:\n    /* \"#utility.yul\":1786:1845   */\n  swap5\n  pop\n    /* \"#utility.yul\":1891:1893   */\n  0x40\n    /* \"#utility.yul\":1880:1889   */\n  dup8\n    /* \"#utility.yul\":1876:1894   */\n  add\n    /* \"#utility.yul\":1870:1895   */\n  mload\n    /* \"#utility.yul\":1854:1895   */\n  swap2\n  pop\n    /* \"#utility.yul\":1920:1922   */\n  dup1\n    /* \"#utility.yul\":1910:1918   */\n  dup3\n    /* \"#utility.yul\":1907:1923   */\n  gt\n    /* \"#utility.yul\":1904:1906   */\n  iszero\n  tag_59\n  jumpi\n    /* \"#utility.yul\":1941:1947   */\n  dup4\n    /* \"#utility.yul\":1933:1939   */\n  dup5\n    /* \"#utility.yul\":1926:1948   */\n  revert\n    /* \"#utility.yul\":1904:1906   */\ntag_59:\n    /* \"#utility.yul\":1969:2032   */\n  tag_60\n    /* \"#utility.yul\":2024:2031   */\n  dup9\n    /* \"#utility.yul\":2013:2021   */\n  dup4\n    /* \"#utility.yul\":2002:2011   */\n  dup10\n    /* \"#utility.yul\":1998:2022   */\n  add\n    /* \"#utility.yul\":1969:2032   */\n  tag_38\n  jump\t// in\ntag_60:\n    /* \"#utility.yul\":1959:2032   */\n  swap4\n  pop\n    /* \"#utility.yul\":2078:2080   */\n  0x60\n    /* \"#utility.yul\":2067:2076   */\n  dup8\n    /* \"#utility.yul\":2063:2081   */\n  add\n    /* \"#utility.yul\":2057:2082   */\n  mload\n    /* \"#utility.yul\":2041:2082   */\n  swap2\n  pop\n    /* \"#utility.yul\":2107:2109   */\n  dup1\n    /* \"#utility.yul\":2097:2105   */\n  dup3\n    /* \"#utility.yul\":2094:2110   */\n  gt\n    /* \"#utility.yul\":2091:2093   */\n  iszero\n  tag_61\n  jumpi\n    /* \"#utility.yul\":2128:2134   */\n  dup3\n    /* \"#utility.yul\":2120:2126   */\n  dup4\n    /* \"#utility.yul\":2113:2135   */\n  revert\n    /* \"#utility.yul\":2091:2093   */\ntag_61:\n  pop\n    /* \"#utility.yul\":2156:2219   */\n  tag_62\n    /* \"#utility.yul\":2211:2218   */\n  dup8\n    /* \"#utility.yul\":2200:2208   */\n  dup3\n    /* \"#utility.yul\":2189:2198   */\n  dup9\n    /* \"#utility.yul\":2185:2209   */\n  add\n    /* \"#utility.yul\":2156:2219   */\n  tag_38\n  jump\t// in\ntag_62:\n    /* \"#utility.yul\":2146:2219   */\n  swap2\n  pop\n  pop\n    /* \"#utility.yul\":1495:2225   */\n  swap3\n  swap6\n  swap2\n  swap5\n  pop\n  swap3\n  pop\n  jump\t// out\n    /* \"#utility.yul\":2704:3084   */\ntag_24:\n    /* \"#utility.yul\":2783:2784   */\n  0x01\n    /* \"#utility.yul\":2779:2791   */\n  dup2\n  dup2\n  shr\n  swap1\n    /* \"#utility.yul\":2826:2838   */\n  dup3\n  and\n  dup1\n    /* \"#utility.yul\":2847:2849   */\n  tag_65\n  jumpi\n    /* \"#utility.yul\":2901:2905   */\n  0x7f\n    /* \"#utility.yul\":2893:2899   */\n  dup3\n    /* \"#utility.yul\":2889:2906   */\n  and\n    /* \"#utility.yul\":2879:2906   */\n  swap2\n  pop\n    /* \"#utility.yul\":2847:2849   */\ntag_65:\n    /* \"#utility.yul\":2954:2956   */\n  0x20\n    /* \"#utility.yul\":2946:2952   */\n  dup3\n    /* \"#utility.yul\":2943:2957   */\n  lt\n    /* \"#utility.yul\":2923:2941   */\n  dup2\n    /* \"#utility.yul\":2920:2958   */\n  eq\n    /* \"#utility.yul\":2917:2919   */\n  iszero\n  tag_66\n  jumpi\n    /* \"#utility.yul\":3000:3010   */\n  0x4e487b71\n    /* \"#utility.yul\":2995:2998   */\n  0xe0\n    /* \"#utility.yul\":2991:3011   */\n  shl\n    /* \"#utility.yul\":2988:2989   */\n  0x00\n    /* \"#utility.yul\":2981:3012   */\n  mstore\n    /* \"#utility.yul\":3035:3039   */\n  0x22\n    /* \"#utility.yul\":3032:3033   */\n  0x04\n    /* \"#utility.yul\":3025:3040   */\n  mstore\n    /* \"#utility.yul\":3063:3067   */\n  0x24\n    /* \"#utility.yul\":3060:3061   */\n  0x00\n    /* \"#utility.yul\":3053:3068   */\n  revert\n    /* \"#utility.yul\":2917:2919   */\ntag_66:\n  pop\n    /* \"#utility.yul\":2759:3084   */\n  swap2\n  swap1\n  pop\n  jump\t// out\n    /* \"#utility.yul\":3089:3216   */\ntag_43:\n    /* \"#utility.yul\":3150:3160   */\n  0x4e487b71\n    /* \"#utility.yul\":3145:3148   */\n  0xe0\n    /* \"#utility.yul\":3141:3161   */\n  shl\n    /* \"#utility.yul\":3138:3139   */\n  0x00\n    /* \"#utility.yul\":3131:3162   */\n  mstore\n    /* \"#utility.yul\":3181:3185   */\n  0x41\n    /* \"#utility.yul\":3178:3179   */\n  0x04\n    /* \"#utility.yul\":3171:3186   */\n  mstore\n    /* \"#utility.yul\":3205:3209   */\n  0x24\n    /* \"#utility.yul\":3202:3203   */\n  0x00\n    /* \"#utility.yul\":3195:3210   */\n  revert\n    /* \"#utility.yul\":3121:3216   */\ntag_34:\n    /* \"contracts/Market.sol\":342:11143  contract Market is IMarket {... */\n  dataSize(sub_0)\n  dup1\n  dataOffset(sub_0)\n  0x00\n  codecopy\n  0x00\n  return\nstop\n\nsub_0: assembly {\n        /* \"contracts/Market.sol\":342:11143  contract Market is IMarket {... */\n      mstore(0x40, 0x80)\n      callvalue\n      dup1\n      iszero\n      tag_1\n      jumpi\n      0x00\n      dup1\n      revert\n    tag_1:\n      pop\n      jumpi(tag_2, lt(calldatasize, 0x04))\n      shr(0xe0, calldataload(0x00))\n      dup1\n      0x8eb1a4ad\n      gt\n      tag_24\n      jumpi\n      dup1\n      0xb81e43fc\n      gt\n      tag_25\n      jumpi\n      dup1\n      0xb81e43fc\n      eq\n      tag_18\n      jumpi\n      dup1\n      0xbd92630c\n      eq\n      tag_19\n      jumpi\n      dup1\n      0xd37e2996\n      eq\n      tag_20\n      jumpi\n      dup1\n      0xe7c9a87f\n      eq\n      tag_21\n      jumpi\n      dup1\n      0xfad56779\n      eq\n      tag_22\n      jumpi\n      dup1\n      0xfbf06338\n      eq\n      tag_23\n      jumpi\n      0x00\n      dup1\n      revert\n    tag_25:\n      dup1\n      0x8eb1a4ad\n      eq\n      tag_13\n      jumpi\n      dup1\n      0x948fb24d\n      eq\n      tag_14\n      jumpi\n      dup1\n      0x9bf5b845\n      eq\n      tag_15\n      jumpi\n      dup1\n      0xa355f897\n      eq\n      tag_16\n      jumpi\n      dup1\n      0xb40a4f05\n      eq\n      tag_17\n      jumpi\n      0x00\n      dup1\n      revert\n    tag_24:\n      dup1\n      0x2b4a3527\n      gt\n      tag_26\n      jumpi\n      dup1\n      0x2b4a3527\n      eq\n      tag_8\n      jumpi\n      dup1\n      0x3ab8781c\n      eq\n      tag_9\n      jumpi\n      dup1\n      0x5a358464\n      eq\n      tag_10\n      jumpi\n      dup1\n      0x6bfefd6b\n      eq\n      tag_11\n      jumpi\n      dup1\n      0x83bbe262\n      eq\n      tag_12\n      jumpi\n      0x00\n      dup1\n      revert\n    tag_26:\n      dup1\n      0x03afd56b\n      eq\n      tag_3\n      jumpi\n      dup1\n      0x06fdde03\n      eq\n      tag_4\n      jumpi\n      dup1\n      0x0b469bda\n      eq\n      tag_5\n      jumpi\n      dup1\n      0x0ed5a933\n      eq\n      tag_6\n      jumpi\n      dup1\n      0x17d7de7c\n      eq\n      tag_7\n      jumpi\n    tag_2:\n      0x00\n      dup1\n      revert\n        /* \"contracts/Market.sol\":2013:2363  function withdrawPending(address _bet) public returns(bool){... */\n    tag_3:\n      tag_27\n      tag_28\n      calldatasize\n      0x04\n      tag_29\n      jump\t// in\n    tag_28:\n      tag_30\n      jump\t// in\n    tag_27:\n      mload(0x40)\n        /* \"#utility.yul\":7033:7047   */\n      swap1\n      iszero\n        /* \"#utility.yul\":7026:7048   */\n      iszero\n        /* \"#utility.yul\":7008:7049   */\n      dup2\n      mstore\n        /* \"#utility.yul\":6996:6998   */\n      0x20\n        /* \"#utility.yul\":6981:6999   */\n      add\n        /* \"contracts/Market.sol\":2013:2363  function withdrawPending(address _bet) public returns(bool){... */\n    tag_31:\n      mload(0x40)\n      dup1\n      swap2\n      sub\n      swap1\n      return\n        /* \"contracts/Market.sol\":446:464  string public name */\n    tag_4:\n      tag_33\n      tag_34\n      jump\t// in\n    tag_33:\n      mload(0x40)\n      tag_31\n      swap2\n      swap1\n      tag_36\n      jump\t// in\n        /* \"contracts/Market.sol\":767:810  uint256 public override sideBTotalStake = 0 */\n    tag_5:\n      tag_37\n      sload(0x08)\n      dup2\n      jump\n    tag_37:\n      mload(0x40)\n        /* \"#utility.yul\":11892:11917   */\n      swap1\n      dup2\n      mstore\n        /* \"#utility.yul\":11880:11882   */\n      0x20\n        /* \"#utility.yul\":11865:11883   */\n      add\n        /* \"contracts/Market.sol\":767:810  uint256 public override sideBTotalStake = 0 */\n      tag_31\n        /* \"#utility.yul\":11847:11923   */\n      jump\n        /* \"contracts/Market.sol\":596:635  bool public override isCanceled = false */\n    tag_6:\n      sload(0x04)\n      tag_27\n      swap1\n      0xff\n      and\n      dup2\n      jump\n        /* \"contracts/Market.sol\":10854:10948  function getName() external view override returns (string memory) {... */\n    tag_7:\n      tag_33\n      tag_45\n      jump\t// in\n        /* \"contracts/Market.sol\":2373:3574  function settlePair(address _pair) public override returns(bool) {... */\n    tag_8:\n      tag_27\n      tag_48\n      calldatasize\n      0x04\n      tag_29\n      jump\t// in\n    tag_48:\n      tag_49\n      jump\t// in\n        /* \"contracts/Market.sol\":1070:1121  mapping(address => uint256) public sideAUsersStakes */\n    tag_9:\n      tag_37\n      tag_52\n      calldatasize\n      0x04\n      tag_29\n      jump\t// in\n    tag_52:\n      mstore(0x20, 0x0d)\n      0x00\n      swap1\n      dup2\n      mstore\n      0x40\n      swap1\n      keccak256\n      sload\n      dup2\n      jump\n        /* \"contracts/Market.sol\":1127:1178  mapping(address => uint256) public sideBUsersStakes */\n    tag_10:\n      tag_37\n      tag_56\n      calldatasize\n      0x04\n      tag_29\n      jump\t// in\n    tag_56:\n      mstore(0x20, 0x0e)\n      0x00\n      swap1\n      dup2\n      mstore\n      0x40\n      swap1\n      keccak256\n      sload\n      dup2\n      jump\n        /* \"contracts/Market.sol\":10954:11141  function cancelMarket() external override onlyEventOwner returns(bool) {... */\n    tag_11:\n      tag_27\n      tag_60\n      jump\t// in\n        /* \"contracts/Market.sol\":3580:3842  function upadteMarket( string memory name_, string memory sideAName_, string memory sideBName_)... */\n    tag_12:\n      tag_27\n      tag_63\n      calldatasize\n      0x04\n      tag_64\n      jump\t// in\n    tag_63:\n      tag_65\n      jump\t// in\n        /* \"contracts/Market.sol\":642:674  string public override sideAName */\n    tag_13:\n      tag_33\n      tag_68\n      jump\t// in\n        /* \"contracts/Market.sol\":917:945  MarketBet[] public sideABets */\n    tag_14:\n      tag_70\n      tag_71\n      calldatasize\n      0x04\n      tag_72\n      jump\t// in\n    tag_71:\n      tag_73\n      jump\t// in\n    tag_70:\n      0x40\n      dup1\n      mload\n      sub(shl(0xa0, 0x01), 0x01)\n        /* \"#utility.yul\":6727:6759   */\n      swap1\n      swap5\n      and\n        /* \"#utility.yul\":6709:6760   */\n      dup5\n      mstore\n        /* \"#utility.yul\":6791:6793   */\n      0x20\n        /* \"#utility.yul\":6776:6794   */\n      dup5\n      add\n        /* \"#utility.yul\":6769:6803   */\n      swap3\n      swap1\n      swap3\n      mstore\n        /* \"#utility.yul\":6851:6855   */\n      0xff\n        /* \"#utility.yul\":6839:6856   */\n      and\n        /* \"#utility.yul\":6819:6837   */\n      swap1\n      dup3\n      add\n        /* \"#utility.yul\":6812:6857   */\n      mstore\n        /* \"#utility.yul\":6697:6699   */\n      0x60\n        /* \"#utility.yul\":6682:6700   */\n      add\n        /* \"contracts/Market.sol\":917:945  MarketBet[] public sideABets */\n      tag_31\n        /* \"#utility.yul\":6664:6863   */\n      jump\n        /* \"contracts/Market.sol\":4335:5170  function addBet(address _better, address _betAddress, uint256 _stake, uint8 _odds, string memory _side)... */\n    tag_15:\n      tag_27\n      tag_77\n      calldatasize\n      0x04\n      tag_78\n      jump\t// in\n    tag_77:\n      tag_79\n      jump\t// in\n        /* \"contracts/Market.sol\":729:761  string public override sideBName */\n    tag_16:\n      tag_33\n      tag_82\n      jump\t// in\n        /* \"contracts/Market.sol\":10241:10680  function setWinningSide(string memory _winningSide)... */\n    tag_17:\n      tag_27\n      tag_85\n      calldatasize\n      0x04\n      tag_86\n      jump\t// in\n    tag_85:\n      tag_87\n      jump\t// in\n        /* \"contracts/Market.sol\":10686:10848  function getEventName() external override returns (string memory) {... */\n    tag_18:\n      tag_33\n      tag_90\n      jump\t// in\n        /* \"contracts/Market.sol\":512:550  bool public override hasSetWinningSide */\n    tag_19:\n      sload(0x02)\n      tag_27\n      swap1\n      shl(0xa0, 0x01)\n      swap1\n      div\n      0xff\n      and\n      dup2\n      jump\n        /* \"contracts/Market.sol\":680:723  uint256 public override sideATotalStake = 0 */\n    tag_20:\n      tag_37\n      sload(0x06)\n      dup2\n      jump\n        /* \"contracts/Market.sol\":993:1021  MarketBet[] public sideBBets */\n    tag_21:\n      tag_70\n      tag_99\n      calldatasize\n      0x04\n      tag_72\n      jump\t// in\n    tag_99:\n      tag_100\n      jump\t// in\n        /* \"contracts/Market.sol\":470:506  address public override eventAddress */\n    tag_22:\n      sload(0x02)\n      tag_102\n      swap1\n      sub(shl(0xa0, 0x01), 0x01)\n      and\n      dup2\n      jump\n    tag_102:\n      mload(0x40)\n      sub(shl(0xa0, 0x01), 0x01)\n        /* \"#utility.yul\":5655:5687   */\n      swap1\n      swap2\n      and\n        /* \"#utility.yul\":5637:5688   */\n      dup2\n      mstore\n        /* \"#utility.yul\":5625:5627   */\n      0x20\n        /* \"#utility.yul\":5610:5628   */\n      add\n        /* \"contracts/Market.sol\":470:506  address public override eventAddress */\n      tag_31\n        /* \"#utility.yul\":5592:5694   */\n      jump\n        /* \"contracts/Market.sol\":556:590  string public override winningSide */\n    tag_23:\n      tag_33\n      tag_107\n      jump\t// in\n        /* \"contracts/Market.sol\":2013:2363  function withdrawPending(address _bet) public returns(bool){... */\n    tag_30:\n        /* \"contracts/Market.sol\":2067:2071  bool */\n      0x00\n        /* \"contracts/Market.sol\":2082:2090  IBet bet */\n      dup1\n        /* \"contracts/Market.sol\":2098:2102  _bet */\n      dup3\n        /* \"contracts/Market.sol\":2082:2103  IBet bet = IBet(_bet) */\n      swap1\n      pop\n        /* \"contracts/Market.sol\":2113:2126  uint remStake */\n      0x00\n        /* \"contracts/Market.sol\":2143:2146  bet */\n      dup2\n      sub(shl(0xa0, 0x01), 0x01)\n        /* \"contracts/Market.sol\":2143:2154  bet.matched */\n      and\n      0x8aac9cca\n        /* \"contracts/Market.sol\":2143:2156  bet.matched() */\n      mload(0x40)\n      dup2\n      0xffffffff\n      and\n      0xe0\n      shl\n      dup2\n      mstore\n      0x04\n      add\n      0x20\n      mload(0x40)\n      dup1\n      dup4\n      sub\n      dup2\n      dup7\n      dup1\n      extcodesize\n      iszero\n      dup1\n      iszero\n      tag_110\n      jumpi\n      0x00\n      dup1\n      revert\n    tag_110:\n      pop\n      gas\n      staticcall\n      iszero\n      dup1\n      iszero\n      tag_112\n      jumpi\n      returndatasize\n      0x00\n      dup1\n      returndatacopy\n      revert(0x00, returndatasize)\n    tag_112:\n      pop\n      pop\n      pop\n      pop\n      mload(0x40)\n      returndatasize\n      not(0x1f)\n      0x1f\n      dup3\n      add\n      and\n      dup3\n      add\n      dup1\n      0x40\n      mstore\n      pop\n      dup2\n      add\n      swap1\n      tag_113\n      swap2\n      swap1\n      tag_114\n      jump\t// in\n    tag_113:\n        /* \"contracts/Market.sol\":2129:2132  bet */\n      dup3\n      sub(shl(0xa0, 0x01), 0x01)\n        /* \"contracts/Market.sol\":2129:2138  bet.stake */\n      and\n      0x3a4b66f1\n        /* \"contracts/Market.sol\":2129:2140  bet.stake() */\n      mload(0x40)\n      dup2\n      0xffffffff\n      and\n      0xe0\n      shl\n      dup2\n      mstore\n      0x04\n      add\n      0x20\n      mload(0x40)\n      dup1\n      dup4\n      sub\n      dup2\n      dup7\n      dup1\n      extcodesize\n      iszero\n      dup1\n      iszero\n      tag_115\n      jumpi\n      0x00\n      dup1\n      revert\n    tag_115:\n      pop\n      gas\n      staticcall\n      iszero\n      dup1\n      iszero\n      tag_117\n      jumpi\n      returndatasize\n      0x00\n      dup1\n      returndatacopy\n      revert(0x00, returndatasize)\n    tag_117:\n      pop\n      pop\n      pop\n      pop\n      mload(0x40)\n      returndatasize\n      not(0x1f)\n      0x1f\n      dup3\n      add\n      and\n      dup3\n      add\n      dup1\n      0x40\n      mstore\n      pop\n      dup2\n      add\n      swap1\n      tag_118\n      swap2\n      swap1\n      tag_114\n      jump\t// in\n    tag_118:\n        /* \"contracts/Market.sol\":2129:2156  bet.stake() - bet.matched() */\n      tag_119\n      swap2\n      swap1\n      tag_120\n      jump\t// in\n    tag_119:\n        /* \"contracts/Market.sol\":2113:2156  uint remStake = bet.stake() - bet.matched() */\n      swap1\n      pop\n        /* \"contracts/Market.sol\":2198:2206  remStake */\n      dup1\n        /* \"contracts/Market.sol\":2174:2195  address(this).balance */\n      selfbalance\n        /* \"contracts/Market.sol\":2174:2206  address(this).balance > remStake */\n      gt\n        /* \"contracts/Market.sol\":2166:2235  require(address(this).balance > remStake, \"This market has no funds\") */\n      tag_121\n      jumpi\n      mload(0x40)\n      shl(0xe5, 0x461bcd)\n      dup2\n      mstore\n        /* \"#utility.yul\":9948:9950   */\n      0x20\n        /* \"contracts/Market.sol\":2166:2235  require(address(this).balance > remStake, \"This market has no funds\") */\n      0x04\n      dup3\n      add\n        /* \"#utility.yul\":9930:9951   */\n      mstore\n        /* \"#utility.yul\":9987:9989   */\n      0x18\n        /* \"#utility.yul\":9967:9985   */\n      0x24\n      dup3\n      add\n        /* \"#utility.yul\":9960:9990   */\n      mstore\n        /* \"#utility.yul\":10026:10052   */\n      0x54686973206d61726b657420686173206e6f2066756e64730000000000000000\n        /* \"#utility.yul\":10006:10024   */\n      0x44\n      dup3\n      add\n        /* \"#utility.yul\":9999:10053   */\n      mstore\n        /* \"#utility.yul\":10070:10088   */\n      0x64\n      add\n        /* \"contracts/Market.sol\":2166:2235  require(address(this).balance > remStake, \"This market has no funds\") */\n    tag_122:\n      mload(0x40)\n      dup1\n      swap2\n      sub\n      swap1\n      revert\n    tag_121:\n        /* \"contracts/Market.sol\":2245:2301  _stableCoinWrapper.safeTransfer( bet.better(), remStake) */\n      tag_124\n        /* \"contracts/Market.sol\":2278:2281  bet */\n      dup3\n      sub(shl(0xa0, 0x01), 0x01)\n        /* \"contracts/Market.sol\":2278:2288  bet.better */\n      and\n      0x718c7d44\n        /* \"contracts/Market.sol\":2278:2290  bet.better() */\n      mload(0x40)\n      dup2\n      0xffffffff\n      and\n      0xe0\n      shl\n      dup2\n      mstore\n      0x04\n      add\n      0x20\n      mload(0x40)\n      dup1\n      dup4\n      sub\n      dup2\n      dup7\n      dup1\n      extcodesize\n      iszero\n      dup1\n      iszero\n      tag_125\n      jumpi\n      0x00\n      dup1\n      revert\n    tag_125:\n      pop\n      gas\n      staticcall\n      iszero\n      dup1\n      iszero\n      tag_127\n      jumpi\n      returndatasize\n      0x00\n      dup1\n      returndatacopy\n      revert(0x00, returndatasize)\n    tag_127:\n      pop\n      pop\n      pop\n      pop\n      mload(0x40)\n      returndatasize\n      not(0x1f)\n      0x1f\n      dup3\n      add\n      and\n      dup3\n      add\n      dup1\n      0x40\n      mstore\n      pop\n      dup2\n      add\n      swap1\n      tag_128\n      swap2\n      swap1\n      tag_129\n      jump\t// in\n    tag_128:\n        /* \"contracts/Market.sol\":2245:2263  _stableCoinWrapper */\n      and(sub(shl(0xa0, 0x01), 0x01), sload(0x11))\n      swap1\n        /* \"contracts/Market.sol\":2292:2300  remStake */\n      dup4\n        /* \"contracts/Market.sol\":2245:2276  _stableCoinWrapper.safeTransfer */\n      tag_130\n        /* \"contracts/Market.sol\":2245:2301  _stableCoinWrapper.safeTransfer( bet.better(), remStake) */\n      jump\t// in\n    tag_124:\n        /* \"contracts/Market.sol\":2311:2335  bet.setMatched(remStake) */\n      mload(0x40)\n      shl(0xe1, 0x2d267e03)\n      dup2\n      mstore\n      0x04\n      dup2\n      add\n        /* \"#utility.yul\":11892:11917   */\n      dup3\n      swap1\n      mstore\n      sub(shl(0xa0, 0x01), 0x01)\n        /* \"contracts/Market.sol\":2311:2325  bet.setMatched */\n      dup4\n      and\n      swap1\n      0x5a4cfc06\n      swap1\n        /* \"#utility.yul\":11865:11883   */\n      0x24\n      add\n        /* \"contracts/Market.sol\":2311:2335  bet.setMatched(remStake) */\n      0x20\n      mload(0x40)\n      dup1\n      dup4\n      sub\n      dup2\n      0x00\n      dup8\n      dup1\n      extcodesize\n      iszero\n      dup1\n      iszero\n      tag_132\n      jumpi\n      0x00\n      dup1\n      revert\n    tag_132:\n      pop\n      gas\n      call\n      iszero\n      dup1\n      iszero\n      tag_134\n      jumpi\n      returndatasize\n      0x00\n      dup1\n      returndatacopy\n      revert(0x00, returndatasize)\n    tag_134:\n      pop\n      pop\n      pop\n      pop\n      mload(0x40)\n      returndatasize\n      not(0x1f)\n      0x1f\n      dup3\n      add\n      and\n      dup3\n      add\n      dup1\n      0x40\n      mstore\n      pop\n      dup2\n      add\n      swap1\n      tag_135\n      swap2\n      swap1\n      tag_136\n      jump\t// in\n    tag_135:\n      pop\n        /* \"contracts/Market.sol\":2352:2356  true */\n      0x01\n      swap5\n        /* \"contracts/Market.sol\":2013:2363  function withdrawPending(address _bet) public returns(bool){... */\n      swap4\n      pop\n      pop\n      pop\n      pop\n      jump\t// out\n        /* \"contracts/Market.sol\":446:464  string public name */\n    tag_34:\n      0x01\n      dup1\n      sload\n      tag_137\n      swap1\n      tag_138\n      jump\t// in\n    tag_137:\n      dup1\n      0x1f\n      add\n      0x20\n      dup1\n      swap2\n      div\n      mul\n      0x20\n      add\n      mload(0x40)\n      swap1\n      dup2\n      add\n      0x40\n      mstore\n      dup1\n      swap3\n      swap2\n      swap1\n      dup2\n      dup2\n      mstore\n      0x20\n      add\n      dup3\n      dup1\n      sload\n      tag_139\n      swap1\n      tag_138\n      jump\t// in\n    tag_139:\n      dup1\n      iszero\n      tag_140\n      jumpi\n      dup1\n      0x1f\n      lt\n      tag_141\n      jumpi\n      0x0100\n      dup1\n      dup4\n      sload\n      div\n      mul\n      dup4\n      mstore\n      swap2\n      0x20\n      add\n      swap2\n      jump(tag_140)\n    tag_141:\n      dup3\n      add\n      swap2\n      swap1\n      0x00\n      mstore\n      keccak256(0x00, 0x20)\n      swap1\n    tag_142:\n      dup2\n      sload\n      dup2\n      mstore\n      swap1\n      0x01\n      add\n      swap1\n      0x20\n      add\n      dup1\n      dup4\n      gt\n      tag_142\n      jumpi\n      dup3\n      swap1\n      sub\n      0x1f\n      and\n      dup3\n      add\n      swap2\n    tag_140:\n      pop\n      pop\n      pop\n      pop\n      pop\n      dup2\n      jump\t// out\n        /* \"contracts/Market.sol\":10854:10948  function getName() external view override returns (string memory) {... */\n    tag_45:\n        /* \"contracts/Market.sol\":10905:10918  string memory */\n      0x60\n        /* \"contracts/Market.sol\":10937:10941  name */\n      0x01\n        /* \"contracts/Market.sol\":10930:10941  return name */\n      dup1\n      sload\n      tag_144\n      swap1\n      tag_138\n      jump\t// in\n    tag_144:\n      dup1\n      0x1f\n      add\n      0x20\n      dup1\n      swap2\n      div\n      mul\n      0x20\n      add\n      mload(0x40)\n      swap1\n      dup2\n      add\n      0x40\n      mstore\n      dup1\n      swap3\n      swap2\n      swap1\n      dup2\n      dup2\n      mstore\n      0x20\n      add\n      dup3\n      dup1\n      sload\n      tag_145\n      swap1\n      tag_138\n      jump\t// in\n    tag_145:\n      dup1\n      iszero\n      tag_146\n      jumpi\n      dup1\n      0x1f\n      lt\n      tag_147\n      jumpi\n      0x0100\n      dup1\n      dup4\n      sload\n      div\n      mul\n      dup4\n      mstore\n      swap2\n      0x20\n      add\n      swap2\n      jump(tag_146)\n    tag_147:\n      dup3\n      add\n      swap2\n      swap1\n      0x00\n      mstore\n      keccak256(0x00, 0x20)\n      swap1\n    tag_148:\n      dup2\n      sload\n      dup2\n      mstore\n      swap1\n      0x01\n      add\n      swap1\n      0x20\n      add\n      dup1\n      dup4\n      gt\n      tag_148\n      jumpi\n      dup3\n      swap1\n      sub\n      0x1f\n      and\n      dup3\n      add\n      swap2\n    tag_146:\n      pop\n      pop\n      pop\n      pop\n      pop\n      swap1\n      pop\n        /* \"contracts/Market.sol\":10854:10948  function getName() external view override returns (string memory) {... */\n      swap1\n      jump\t// out\n        /* \"contracts/Market.sol\":2373:3574  function settlePair(address _pair) public override returns(bool) {... */\n    tag_49:\n        /* \"contracts/Market.sol\":2432:2436  bool */\n      0x00\n        /* \"contracts/Market.sol\":2448:2461  IBetPair pair */\n      dup1\n        /* \"contracts/Market.sol\":2473:2478  _pair */\n      dup3\n        /* \"contracts/Market.sol\":2448:2479  IBetPair pair = IBetPair(_pair) */\n      swap1\n      pop\n        /* \"contracts/Market.sol\":2489:2506  address _pairAddr */\n      0x00\n        /* \"contracts/Market.sol\":2509:2513  pair */\n      dup2\n      sub(shl(0xa0, 0x01), 0x01)\n        /* \"contracts/Market.sol\":2509:2520  pair.market */\n      and\n      0x80f55605\n        /* \"contracts/Market.sol\":2509:2522  pair.market() */\n      mload(0x40)\n      dup2\n      0xffffffff\n      and\n      0xe0\n      shl\n      dup2\n      mstore\n      0x04\n      add\n      0x20\n      mload(0x40)\n      dup1\n      dup4\n      sub\n      dup2\n      dup7\n      dup1\n      extcodesize\n      iszero\n      dup1\n      iszero\n      tag_150\n      jumpi\n      0x00\n      dup1\n      revert\n    tag_150:\n      pop\n      gas\n      staticcall\n      iszero\n      dup1\n      iszero\n      tag_152\n      jumpi\n      returndatasize\n      0x00\n      dup1\n      returndatacopy\n      revert(0x00, returndatasize)\n    tag_152:\n      pop\n      pop\n      pop\n      pop\n      mload(0x40)\n      returndatasize\n      not(0x1f)\n      0x1f\n      dup3\n      add\n      and\n      dup3\n      add\n      dup1\n      0x40\n      mstore\n      pop\n      dup2\n      add\n      swap1\n      tag_153\n      swap2\n      swap1\n      tag_129\n      jump\t// in\n    tag_153:\n        /* \"contracts/Market.sol\":2489:2522  address _pairAddr = pair.market() */\n      swap1\n      pop\n        /* \"contracts/Market.sol\":2532:2549  address _sideABet */\n      0x00\n        /* \"contracts/Market.sol\":2552:2556  pair */\n      dup3\n      sub(shl(0xa0, 0x01), 0x01)\n        /* \"contracts/Market.sol\":2552:2565  pair.sideABet */\n      and\n      0x15e894ab\n        /* \"contracts/Market.sol\":2552:2567  pair.sideABet() */\n      mload(0x40)\n      dup2\n      0xffffffff\n      and\n      0xe0\n      shl\n      dup2\n      mstore\n      0x04\n      add\n      0x20\n      mload(0x40)\n      dup1\n      dup4\n      sub\n      dup2\n      dup7\n      dup1\n      extcodesize\n      iszero\n      dup1\n      iszero\n      tag_154\n      jumpi\n      0x00\n      dup1\n      revert\n    tag_154:\n      pop\n      gas\n      staticcall\n      iszero\n      dup1\n      iszero\n      tag_156\n      jumpi\n      returndatasize\n      0x00\n      dup1\n      returndatacopy\n      revert(0x00, returndatasize)\n    tag_156:\n      pop\n      pop\n      pop\n      pop\n      mload(0x40)\n      returndatasize\n      not(0x1f)\n      0x1f\n      dup3\n      add\n      and\n      dup3\n      add\n      dup1\n      0x40\n      mstore\n      pop\n      dup2\n      add\n      swap1\n      tag_157\n      swap2\n      swap1\n      tag_129\n      jump\t// in\n    tag_157:\n        /* \"contracts/Market.sol\":2532:2567  address _sideABet = pair.sideABet() */\n      swap1\n      pop\n        /* \"contracts/Market.sol\":2577:2594  address _sideBBet */\n      0x00\n        /* \"contracts/Market.sol\":2597:2601  pair */\n      dup4\n      sub(shl(0xa0, 0x01), 0x01)\n        /* \"contracts/Market.sol\":2597:2610  pair.sideBBet */\n      and\n      0x0f765e6d\n        /* \"contracts/Market.sol\":2597:2612  pair.sideBBet() */\n      mload(0x40)\n      dup2\n      0xffffffff\n      and\n      0xe0\n      shl\n      dup2\n      mstore\n      0x04\n      add\n      0x20\n      mload(0x40)\n      dup1\n      dup4\n      sub\n      dup2\n      dup7\n      dup1\n      extcodesize\n      iszero\n      dup1\n      iszero\n      tag_158\n      jumpi\n      0x00\n      dup1\n      revert\n    tag_158:\n      pop\n      gas\n      staticcall\n      iszero\n      dup1\n      iszero\n      tag_160\n      jumpi\n      returndatasize\n      0x00\n      dup1\n      returndatacopy\n      revert(0x00, returndatasize)\n    tag_160:\n      pop\n      pop\n      pop\n      pop\n      mload(0x40)\n      returndatasize\n      not(0x1f)\n      0x1f\n      dup3\n      add\n      and\n      dup3\n      add\n      dup1\n      0x40\n      mstore\n      pop\n      dup2\n      add\n      swap1\n      tag_161\n      swap2\n      swap1\n      tag_129\n      jump\t// in\n    tag_161:\n        /* \"contracts/Market.sol\":2577:2612  address _sideBBet = pair.sideBBet() */\n      swap1\n      pop\n        /* \"contracts/Market.sol\":2622:2635  uint _amountA */\n      0x00\n        /* \"contracts/Market.sol\":2638:2642  pair */\n      dup5\n      sub(shl(0xa0, 0x01), 0x01)\n        /* \"contracts/Market.sol\":2638:2650  pair.amountA */\n      and\n      0x156dcbf0\n        /* \"contracts/Market.sol\":2638:2652  pair.amountA() */\n      mload(0x40)\n      dup2\n      0xffffffff\n      and\n      0xe0\n      shl\n      dup2\n      mstore\n      0x04\n      add\n      0x20\n      mload(0x40)\n      dup1\n      dup4\n      sub\n      dup2\n      dup7\n      dup1\n      extcodesize\n      iszero\n      dup1\n      iszero\n      tag_162\n      jumpi\n      0x00\n      dup1\n      revert\n    tag_162:\n      pop\n      gas\n      staticcall\n      iszero\n      dup1\n      iszero\n      tag_164\n      jumpi\n      returndatasize\n      0x00\n      dup1\n      returndatacopy\n      revert(0x00, returndatasize)\n    tag_164:\n      pop\n      pop\n      pop\n      pop\n      mload(0x40)\n      returndatasize\n      not(0x1f)\n      0x1f\n      dup3\n      add\n      and\n      dup3\n      add\n      dup1\n      0x40\n      mstore\n      pop\n      dup2\n      add\n      swap1\n      tag_165\n      swap2\n      swap1\n      tag_114\n      jump\t// in\n    tag_165:\n        /* \"contracts/Market.sol\":2622:2652  uint _amountA = pair.amountA() */\n      swap1\n      pop\n        /* \"contracts/Market.sol\":2662:2675  uint _amountB */\n      0x00\n        /* \"contracts/Market.sol\":2678:2682  pair */\n      dup6\n      sub(shl(0xa0, 0x01), 0x01)\n        /* \"contracts/Market.sol\":2678:2690  pair.amountB */\n      and\n      0x2efe91ef\n        /* \"contracts/Market.sol\":2678:2692  pair.amountB() */\n      mload(0x40)\n      dup2\n      0xffffffff\n      and\n      0xe0\n      shl\n      dup2\n      mstore\n      0x04\n      add\n      0x20\n      mload(0x40)\n      dup1\n      dup4\n      sub\n      dup2\n      dup7\n      dup1\n      extcodesize\n      iszero\n      dup1\n      iszero\n      tag_166\n      jumpi\n      0x00\n      dup1\n      revert\n    tag_166:\n      pop\n      gas\n      staticcall\n      iszero\n      dup1\n      iszero\n      tag_168\n      jumpi\n      returndatasize\n      0x00\n      dup1\n      returndatacopy\n      revert(0x00, returndatasize)\n    tag_168:\n      pop\n      pop\n      pop\n      pop\n      mload(0x40)\n      returndatasize\n      not(0x1f)\n      0x1f\n      dup3\n      add\n      and\n      dup3\n      add\n      dup1\n      0x40\n      mstore\n      pop\n      dup2\n      add\n      swap1\n      tag_169\n      swap2\n      swap1\n      tag_114\n      jump\t// in\n    tag_169:\n        /* \"contracts/Market.sol\":2662:2692  uint _amountB = pair.amountB() */\n      swap1\n      pop\n        /* \"contracts/Market.sol\":2702:2716  IMarket market */\n      0x00\n        /* \"contracts/Market.sol\":2727:2736  _pairAddr */\n      dup6\n        /* \"contracts/Market.sol\":2702:2737  IMarket market = IMarket(_pairAddr) */\n      swap1\n      pop\n        /* \"contracts/Market.sol\":2755:2761  market */\n      dup1\n      sub(shl(0xa0, 0x01), 0x01)\n        /* \"contracts/Market.sol\":2755:2779  market.hasSetWinningSide */\n      and\n      0xbd92630c\n        /* \"contracts/Market.sol\":2755:2781  market.hasSetWinningSide() */\n      mload(0x40)\n      dup2\n      0xffffffff\n      and\n      0xe0\n      shl\n      dup2\n      mstore\n      0x04\n      add\n      0x20\n      mload(0x40)\n      dup1\n      dup4\n      sub\n      dup2\n      dup7\n      dup1\n      extcodesize\n      iszero\n      dup1\n      iszero\n      tag_170\n      jumpi\n      0x00\n      dup1\n      revert\n    tag_170:\n      pop\n      gas\n      staticcall\n      iszero\n      dup1\n      iszero\n      tag_172\n      jumpi\n      returndatasize\n      0x00\n      dup1\n      returndatacopy\n      revert(0x00, returndatasize)\n    tag_172:\n      pop\n      pop\n      pop\n      pop\n      mload(0x40)\n      returndatasize\n      not(0x1f)\n      0x1f\n      dup3\n      add\n      and\n      dup3\n      add\n      dup1\n      0x40\n      mstore\n      pop\n      dup2\n      add\n      swap1\n      tag_173\n      swap2\n      swap1\n      tag_136\n      jump\t// in\n    tag_173:\n        /* \"contracts/Market.sol\":2747:2814  require(market.hasSetWinningSide(), \"Markets has not been settled\") */\n      tag_174\n      jumpi\n      mload(0x40)\n      shl(0xe5, 0x461bcd)\n      dup2\n      mstore\n        /* \"#utility.yul\":8074:8076   */\n      0x20\n        /* \"contracts/Market.sol\":2747:2814  require(market.hasSetWinningSide(), \"Markets has not been settled\") */\n      0x04\n      dup3\n      add\n        /* \"#utility.yul\":8056:8077   */\n      mstore\n        /* \"#utility.yul\":8113:8115   */\n      0x1c\n        /* \"#utility.yul\":8093:8111   */\n      0x24\n      dup3\n      add\n        /* \"#utility.yul\":8086:8116   */\n      mstore\n        /* \"#utility.yul\":8152:8182   */\n      0x4d61726b65747320686173206e6f74206265656e20736574746c656400000000\n        /* \"#utility.yul\":8132:8150   */\n      0x44\n      dup3\n      add\n        /* \"#utility.yul\":8125:8183   */\n      mstore\n        /* \"#utility.yul\":8200:8218   */\n      0x64\n      add\n        /* \"contracts/Market.sol\":2747:2814  require(market.hasSetWinningSide(), \"Markets has not been settled\") */\n      tag_122\n        /* \"#utility.yul\":8046:8224   */\n      jump\n        /* \"contracts/Market.sol\":2747:2814  require(market.hasSetWinningSide(), \"Markets has not been settled\") */\n    tag_174:\n        /* \"contracts/Market.sol\":2890:2915  abi.encodePacked(\"sideA\") */\n      mload(0x40)\n      shl(0xd8, 0x7369646541)\n      0x20\n      dup3\n      add\n        /* \"#utility.yul\":5173:5193   */\n      mstore\n        /* \"#utility.yul\":5209:5220   */\n      0x25\n      add\n        /* \"contracts/Market.sol\":2890:2915  abi.encodePacked(\"sideA\") */\n      mload(0x40)\n      0x20\n      dup2\n      dup4\n      sub\n      sub\n      dup2\n      mstore\n      swap1\n      0x40\n      mstore\n        /* \"contracts/Market.sol\":2880:2916  keccak256(abi.encodePacked(\"sideA\")) */\n      dup1\n      mload\n      swap1\n      0x20\n      add\n      keccak256\n        /* \"contracts/Market.sol\":2854:2860  market */\n      dup2\n      sub(shl(0xa0, 0x01), 0x01)\n        /* \"contracts/Market.sol\":2854:2872  market.winningSide */\n      and\n      0xfbf06338\n        /* \"contracts/Market.sol\":2854:2874  market.winningSide() */\n      mload(0x40)\n      dup2\n      0xffffffff\n      and\n      0xe0\n      shl\n      dup2\n      mstore\n      0x04\n      add\n      0x00\n      mload(0x40)\n      dup1\n      dup4\n      sub\n      dup2\n      dup7\n      dup1\n      extcodesize\n      iszero\n      dup1\n      iszero\n      tag_179\n      jumpi\n      0x00\n      dup1\n      revert\n    tag_179:\n      pop\n      gas\n      staticcall\n      iszero\n      dup1\n      iszero\n      tag_181\n      jumpi\n      returndatasize\n      0x00\n      dup1\n      returndatacopy\n      revert(0x00, returndatasize)\n    tag_181:\n      pop\n      pop\n      pop\n      pop\n      mload(0x40)\n      returndatasize\n      0x00\n      dup3\n      returndatacopy\n      0x1f\n      returndatasize\n      swap1\n      dup2\n      add\n      not(0x1f)\n      and\n      dup3\n      add\n      0x40\n      mstore\n      tag_182\n      swap2\n      swap1\n      dup2\n      add\n      swap1\n      tag_183\n      jump\t// in\n    tag_182:\n        /* \"contracts/Market.sol\":2837:2875  abi.encodePacked(market.winningSide()) */\n      add(0x20, mload(0x40))\n      tag_184\n      swap2\n      swap1\n      tag_468\n      jump\t// in\n    tag_184:\n      mload(0x40)\n      0x20\n      dup2\n      dup4\n      sub\n      sub\n      dup2\n      mstore\n      swap1\n      0x40\n      mstore\n        /* \"contracts/Market.sol\":2827:2876  keccak256(abi.encodePacked(market.winningSide())) */\n      dup1\n      mload\n      swap1\n      0x20\n      add\n      keccak256\n        /* \"contracts/Market.sol\":2827:2916  keccak256(abi.encodePacked(market.winningSide())) == keccak256(abi.encodePacked(\"sideA\")) */\n      eq\n        /* \"contracts/Market.sol\":2824:3547  if(keccak256(abi.encodePacked(market.winningSide())) == keccak256(abi.encodePacked(\"sideA\"))){... */\n      iszero\n      tag_186\n      jumpi\n        /* \"contracts/Market.sol\":2931:2959  pair.setWinnerBet(_sideABet) */\n      mload(0x40)\n      shl(0xe0, 0x6d83a71f)\n      dup2\n      mstore\n      sub(shl(0xa0, 0x01), 0x01)\n        /* \"#utility.yul\":5655:5687   */\n      dup7\n      dup2\n      and\n        /* \"contracts/Market.sol\":2931:2959  pair.setWinnerBet(_sideABet) */\n      0x04\n      dup4\n      add\n        /* \"#utility.yul\":5637:5688   */\n      mstore\n        /* \"contracts/Market.sol\":2931:2948  pair.setWinnerBet */\n      dup9\n      and\n      swap1\n      0x6d83a71f\n      swap1\n        /* \"#utility.yul\":5610:5628   */\n      0x24\n      add\n        /* \"contracts/Market.sol\":2931:2959  pair.setWinnerBet(_sideABet) */\n      0x20\n      mload(0x40)\n      dup1\n      dup4\n      sub\n      dup2\n      0x00\n      dup8\n      dup1\n      extcodesize\n      iszero\n      dup1\n      iszero\n      tag_188\n      jumpi\n      0x00\n      dup1\n      revert\n    tag_188:\n      pop\n      gas\n      call\n      iszero\n      dup1\n      iszero\n      tag_190\n      jumpi\n      returndatasize\n      0x00\n      dup1\n      returndatacopy\n      revert(0x00, returndatasize)\n    tag_190:\n      pop\n      pop\n      pop\n      pop\n      mload(0x40)\n      returndatasize\n      not(0x1f)\n      0x1f\n      dup3\n      add\n      and\n      dup3\n      add\n      dup1\n      0x40\n      mstore\n      pop\n      dup2\n      add\n      swap1\n      tag_191\n      swap2\n      swap1\n      tag_136\n      jump\t// in\n    tag_191:\n      pop\n        /* \"contracts/Market.sol\":2974:3049  _stableCoinWrapper.safeTransfer(_sideABet, _amountA + (_amountB * 9 / 10) ) */\n      tag_192\n        /* \"contracts/Market.sol\":3006:3015  _sideABet */\n      dup6\n        /* \"contracts/Market.sol\":3044:3046  10 */\n      0x0a\n        /* \"contracts/Market.sol\":3029:3041  _amountB * 9 */\n      tag_193\n        /* \"contracts/Market.sol\":3029:3037  _amountB */\n      dup6\n        /* \"contracts/Market.sol\":3040:3041  9 */\n      0x09\n        /* \"contracts/Market.sol\":3029:3041  _amountB * 9 */\n      tag_194\n      jump\t// in\n    tag_193:\n        /* \"contracts/Market.sol\":3029:3046  _amountB * 9 / 10 */\n      tag_195\n      swap2\n      swap1\n      tag_196\n      jump\t// in\n    tag_195:\n        /* \"contracts/Market.sol\":3017:3047  _amountA + (_amountB * 9 / 10) */\n      tag_197\n      swap1\n        /* \"contracts/Market.sol\":3017:3025  _amountA */\n      dup7\n        /* \"contracts/Market.sol\":3017:3047  _amountA + (_amountB * 9 / 10) */\n      tag_198\n      jump\t// in\n    tag_197:\n        /* \"contracts/Market.sol\":2974:2992  _stableCoinWrapper */\n      and(sub(shl(0xa0, 0x01), 0x01), sload(0x11))\n      swap2\n        /* \"contracts/Market.sol\":2974:3049  _stableCoinWrapper.safeTransfer(_sideABet, _amountA + (_amountB * 9 / 10) ) */\n      swap1\n        /* \"contracts/Market.sol\":2974:3005  _stableCoinWrapper.safeTransfer */\n      tag_130\n        /* \"contracts/Market.sol\":2974:3049  _stableCoinWrapper.safeTransfer(_sideABet, _amountA + (_amountB * 9 / 10) ) */\n      jump\t// in\n    tag_192:\n        /* \"contracts/Market.sol\":3095:3110  web3betsAddress */\n      sload(0x00)\n        /* \"contracts/Market.sol\":3063:3126  _stableCoinWrapper.safeTransfer(web3betsAddress, _amountB / 10) */\n      tag_199\n      swap1\n      sub(shl(0xa0, 0x01), 0x01)\n        /* \"contracts/Market.sol\":3095:3110  web3betsAddress */\n      and\n        /* \"contracts/Market.sol\":3112:3125  _amountB / 10 */\n      tag_197\n        /* \"contracts/Market.sol\":3123:3125  10 */\n      0x0a\n        /* \"contracts/Market.sol\":3112:3120  _amountB */\n      dup6\n        /* \"contracts/Market.sol\":3112:3125  _amountB / 10 */\n      tag_196\n      jump\t// in\n        /* \"contracts/Market.sol\":3063:3126  _stableCoinWrapper.safeTransfer(web3betsAddress, _amountB / 10) */\n    tag_199:\n        /* \"contracts/Market.sol\":2824:3547  if(keccak256(abi.encodePacked(market.winningSide())) == keccak256(abi.encodePacked(\"sideA\"))){... */\n      jump(tag_221)\n    tag_186:\n        /* \"contracts/Market.sol\":3217:3242  abi.encodePacked(\"sideB\") */\n      mload(0x40)\n      shl(0xd9, 0x39b4b232a1)\n      0x20\n      dup3\n      add\n        /* \"#utility.yul\":5433:5453   */\n      mstore\n        /* \"#utility.yul\":5469:5480   */\n      0x25\n      add\n        /* \"contracts/Market.sol\":3217:3242  abi.encodePacked(\"sideB\") */\n      mload(0x40)\n      0x20\n      dup2\n      dup4\n      sub\n      sub\n      dup2\n      mstore\n      swap1\n      0x40\n      mstore\n        /* \"contracts/Market.sol\":3207:3243  keccak256(abi.encodePacked(\"sideB\")) */\n      dup1\n      mload\n      swap1\n      0x20\n      add\n      keccak256\n        /* \"contracts/Market.sol\":3181:3187  market */\n      dup2\n      sub(shl(0xa0, 0x01), 0x01)\n        /* \"contracts/Market.sol\":3181:3199  market.winningSide */\n      and\n      0xfbf06338\n        /* \"contracts/Market.sol\":3181:3201  market.winningSide() */\n      mload(0x40)\n      dup2\n      0xffffffff\n      and\n      0xe0\n      shl\n      dup2\n      mstore\n      0x04\n      add\n      0x00\n      mload(0x40)\n      dup1\n      dup4\n      sub\n      dup2\n      dup7\n      dup1\n      extcodesize\n      iszero\n      dup1\n      iszero\n      tag_204\n      jumpi\n      0x00\n      dup1\n      revert\n    tag_204:\n      pop\n      gas\n      staticcall\n      iszero\n      dup1\n      iszero\n      tag_206\n      jumpi\n      returndatasize\n      0x00\n      dup1\n      returndatacopy\n      revert(0x00, returndatasize)\n    tag_206:\n      pop\n      pop\n      pop\n      pop\n      mload(0x40)\n      returndatasize\n      0x00\n      dup3\n      returndatacopy\n      0x1f\n      returndatasize\n      swap1\n      dup2\n      add\n      not(0x1f)\n      and\n      dup3\n      add\n      0x40\n      mstore\n      tag_207\n      swap2\n      swap1\n      dup2\n      add\n      swap1\n      tag_183\n      jump\t// in\n    tag_207:\n        /* \"contracts/Market.sol\":3164:3202  abi.encodePacked(market.winningSide()) */\n      add(0x20, mload(0x40))\n      tag_208\n      swap2\n      swap1\n      tag_468\n      jump\t// in\n    tag_208:\n      mload(0x40)\n      0x20\n      dup2\n      dup4\n      sub\n      sub\n      dup2\n      mstore\n      swap1\n      0x40\n      mstore\n        /* \"contracts/Market.sol\":3154:3203  keccak256(abi.encodePacked(market.winningSide())) */\n      dup1\n      mload\n      swap1\n      0x20\n      add\n      keccak256\n        /* \"contracts/Market.sol\":3154:3243  keccak256(abi.encodePacked(market.winningSide())) == keccak256(abi.encodePacked(\"sideB\")) */\n      eq\n        /* \"contracts/Market.sol\":3151:3547  if(keccak256(abi.encodePacked(market.winningSide())) == keccak256(abi.encodePacked(\"sideB\"))){... */\n      iszero\n      tag_209\n      jumpi\n        /* \"contracts/Market.sol\":3258:3286  pair.setWinnerBet(_sideBBet) */\n      mload(0x40)\n      shl(0xe0, 0x6d83a71f)\n      dup2\n      mstore\n      sub(shl(0xa0, 0x01), 0x01)\n        /* \"#utility.yul\":5655:5687   */\n      dup6\n      dup2\n      and\n        /* \"contracts/Market.sol\":3258:3286  pair.setWinnerBet(_sideBBet) */\n      0x04\n      dup4\n      add\n        /* \"#utility.yul\":5637:5688   */\n      mstore\n        /* \"contracts/Market.sol\":3258:3275  pair.setWinnerBet */\n      dup9\n      and\n      swap1\n      0x6d83a71f\n      swap1\n        /* \"#utility.yul\":5610:5628   */\n      0x24\n      add\n        /* \"contracts/Market.sol\":3258:3286  pair.setWinnerBet(_sideBBet) */\n      0x20\n      mload(0x40)\n      dup1\n      dup4\n      sub\n      dup2\n      0x00\n      dup8\n      dup1\n      extcodesize\n      iszero\n      dup1\n      iszero\n      tag_211\n      jumpi\n      0x00\n      dup1\n      revert\n    tag_211:\n      pop\n      gas\n      call\n      iszero\n      dup1\n      iszero\n      tag_213\n      jumpi\n      returndatasize\n      0x00\n      dup1\n      returndatacopy\n      revert(0x00, returndatasize)\n    tag_213:\n      pop\n      pop\n      pop\n      pop\n      mload(0x40)\n      returndatasize\n      not(0x1f)\n      0x1f\n      dup3\n      add\n      and\n      dup3\n      add\n      dup1\n      0x40\n      mstore\n      pop\n      dup2\n      add\n      swap1\n      tag_214\n      swap2\n      swap1\n      tag_136\n      jump\t// in\n    tag_214:\n      pop\n        /* \"contracts/Market.sol\":3301:3376  _stableCoinWrapper.safeTransfer(_sideBBet, _amountB + (_amountA * 9 / 10) ) */\n      tag_215\n        /* \"contracts/Market.sol\":3333:3342  _sideBBet */\n      dup5\n        /* \"contracts/Market.sol\":3371:3373  10 */\n      0x0a\n        /* \"contracts/Market.sol\":3356:3368  _amountA * 9 */\n      tag_216\n        /* \"contracts/Market.sol\":3356:3364  _amountA */\n      dup7\n        /* \"contracts/Market.sol\":3367:3368  9 */\n      0x09\n        /* \"contracts/Market.sol\":3356:3368  _amountA * 9 */\n      tag_194\n      jump\t// in\n    tag_216:\n        /* \"contracts/Market.sol\":3356:3373  _amountA * 9 / 10 */\n      tag_217\n      swap2\n      swap1\n      tag_196\n      jump\t// in\n    tag_217:\n        /* \"contracts/Market.sol\":3344:3374  _amountB + (_amountA * 9 / 10) */\n      tag_197\n      swap1\n        /* \"contracts/Market.sol\":3344:3352  _amountB */\n      dup6\n        /* \"contracts/Market.sol\":3344:3374  _amountB + (_amountA * 9 / 10) */\n      tag_198\n      jump\t// in\n        /* \"contracts/Market.sol\":3301:3376  _stableCoinWrapper.safeTransfer(_sideBBet, _amountB + (_amountA * 9 / 10) ) */\n    tag_215:\n        /* \"contracts/Market.sol\":3422:3437  web3betsAddress */\n      sload(0x00)\n        /* \"contracts/Market.sol\":3390:3453  _stableCoinWrapper.safeTransfer(web3betsAddress, _amountA / 10) */\n      tag_199\n      swap1\n      sub(shl(0xa0, 0x01), 0x01)\n        /* \"contracts/Market.sol\":3422:3437  web3betsAddress */\n      and\n        /* \"contracts/Market.sol\":3439:3452  _amountA / 10 */\n      tag_197\n        /* \"contracts/Market.sol\":3450:3452  10 */\n      0x0a\n        /* \"contracts/Market.sol\":3439:3447  _amountA */\n      dup7\n        /* \"contracts/Market.sol\":3439:3452  _amountA / 10 */\n      tag_196\n      jump\t// in\n        /* \"contracts/Market.sol\":3151:3547  if(keccak256(abi.encodePacked(market.winningSide())) == keccak256(abi.encodePacked(\"sideB\"))){... */\n    tag_209:\n        /* \"contracts/Market.sol\":3491:3536  revert(\"event admin entered  invalid winner\") */\n      mload(0x40)\n      shl(0xe5, 0x461bcd)\n      dup2\n      mstore\n        /* \"#utility.yul\":11544:11546   */\n      0x20\n        /* \"contracts/Market.sol\":3491:3536  revert(\"event admin entered  invalid winner\") */\n      0x04\n      dup3\n      add\n        /* \"#utility.yul\":11526:11547   */\n      mstore\n        /* \"#utility.yul\":11583:11585   */\n      0x23\n        /* \"#utility.yul\":11563:11581   */\n      0x24\n      dup3\n      add\n        /* \"#utility.yul\":11556:11586   */\n      mstore\n        /* \"#utility.yul\":11622:11656   */\n      0x6576656e742061646d696e20656e74657265642020696e76616c69642077696e\n        /* \"#utility.yul\":11602:11620   */\n      0x44\n      dup3\n      add\n        /* \"#utility.yul\":11595:11657   */\n      mstore\n      shl(0xe9, 0x3732b9)\n        /* \"#utility.yul\":11673:11691   */\n      0x64\n      dup3\n      add\n        /* \"#utility.yul\":11666:11699   */\n      mstore\n        /* \"#utility.yul\":11716:11735   */\n      0x84\n      add\n        /* \"contracts/Market.sol\":3491:3536  revert(\"event admin entered  invalid winner\") */\n      tag_122\n        /* \"#utility.yul\":11516:11741   */\n      jump\n        /* \"contracts/Market.sol\":3151:3547  if(keccak256(abi.encodePacked(market.winningSide())) == keccak256(abi.encodePacked(\"sideB\"))){... */\n    tag_221:\n      pop\n        /* \"contracts/Market.sol\":3563:3567  true */\n      0x01\n      swap9\n        /* \"contracts/Market.sol\":2373:3574  function settlePair(address _pair) public override returns(bool) {... */\n      swap8\n      pop\n      pop\n      pop\n      pop\n      pop\n      pop\n      pop\n      pop\n      jump\t// out\n        /* \"contracts/Market.sol\":10954:11141  function cancelMarket() external override onlyEventOwner returns(bool) {... */\n    tag_60:\n        /* \"contracts/Market.sol\":1433:1445  eventAddress */\n      sload(0x02)\n        /* \"contracts/Market.sol\":1477:1504  marketEvent.getEventOwner() */\n      0x40\n      dup1\n      mload\n      shl(0xe0, 0x179f907d)\n      dup2\n      mstore\n      swap1\n      mload\n        /* \"contracts/Market.sol\":11019:11023  bool */\n      0x00\n      swap3\n      sub(shl(0xa0, 0x01), 0x01)\n        /* \"contracts/Market.sol\":1433:1445  eventAddress */\n      and\n      swap2\n        /* \"contracts/Market.sol\":11019:11023  bool */\n      dup4\n      swap2\n        /* \"contracts/Market.sol\":1433:1445  eventAddress */\n      dup4\n      swap2\n        /* \"contracts/Market.sol\":1477:1502  marketEvent.getEventOwner */\n      0x179f907d\n      swap2\n        /* \"contracts/Market.sol\":1477:1504  marketEvent.getEventOwner() */\n      0x04\n      dup1\n      dup4\n      add\n      swap3\n      0x20\n      swap3\n      swap2\n      swap1\n      dup3\n      swap1\n      sub\n      add\n      dup2\n        /* \"contracts/Market.sol\":11019:11023  bool */\n      dup8\n        /* \"contracts/Market.sol\":1433:1445  eventAddress */\n      dup8\n        /* \"contracts/Market.sol\":1477:1504  marketEvent.getEventOwner() */\n      dup1\n      extcodesize\n      iszero\n      dup1\n      iszero\n      tag_225\n      jumpi\n      0x00\n      dup1\n      revert\n    tag_225:\n      pop\n      gas\n      call\n      iszero\n      dup1\n      iszero\n      tag_227\n      jumpi\n      returndatasize\n      0x00\n      dup1\n      returndatacopy\n      revert(0x00, returndatasize)\n    tag_227:\n      pop\n      pop\n      pop\n      pop\n      mload(0x40)\n      returndatasize\n      not(0x1f)\n      0x1f\n      dup3\n      add\n      and\n      dup3\n      add\n      dup1\n      0x40\n      mstore\n      pop\n      dup2\n      add\n      swap1\n      tag_228\n      swap2\n      swap1\n      tag_129\n      jump\t// in\n    tag_228:\n        /* \"contracts/Market.sol\":1456:1504  address eventOwner = marketEvent.getEventOwner() */\n      swap1\n      pop\n        /* \"contracts/Market.sol\":1522:1532  msg.sender */\n      caller\n      sub(shl(0xa0, 0x01), 0x01)\n        /* \"contracts/Market.sol\":1522:1546  msg.sender == eventOwner */\n      dup3\n      and\n      eq\n        /* \"contracts/Market.sol\":1514:1585  require(msg.sender == eventOwner, \"Only event owners set winning pool\") */\n      tag_229\n      jumpi\n      mload(0x40)\n      shl(0xe5, 0x461bcd)\n      dup2\n      mstore\n      0x04\n      add\n      tag_122\n      swap1\n      tag_231\n      jump\t// in\n    tag_229:\n        /* \"contracts/Market.sol\":11039:11049  isCanceled */\n      and(0xff, sload(0x04))\n        /* \"contracts/Market.sol\":11035:11087  if (isCanceled) {... */\n      iszero\n      tag_233\n      jumpi\n        /* \"contracts/Market.sol\":11072:11076  true */\n      0x01\n        /* \"contracts/Market.sol\":11065:11076  return true */\n      swap3\n      pop\n        /* \"contracts/Market.sol\":10954:11141  function cancelMarket() external override onlyEventOwner returns(bool) {... */\n      pop\n      pop\n      swap1\n      jump\t// out\n        /* \"contracts/Market.sol\":11035:11087  if (isCanceled) {... */\n    tag_233:\n        /* \"contracts/Market.sol\":11096:11106  isCanceled */\n      0x04\n        /* \"contracts/Market.sol\":11096:11113  isCanceled = true */\n      dup1\n      sload\n      not(0xff)\n      and\n        /* \"contracts/Market.sol\":11109:11113  true */\n      0x01\n        /* \"contracts/Market.sol\":11096:11113  isCanceled = true */\n      swap1\n      dup2\n      or\n      swap1\n      swap2\n      sstore\n        /* \"contracts/Market.sol\":11109:11113  true */\n      swap3\n      pop\n        /* \"contracts/Market.sol\":10954:11141  function cancelMarket() external override onlyEventOwner returns(bool) {... */\n      pop\n      pop\n      swap1\n      jump\t// out\n        /* \"contracts/Market.sol\":3580:3842  function upadteMarket( string memory name_, string memory sideAName_, string memory sideBName_)... */\n    tag_65:\n        /* \"contracts/Market.sol\":3738:3750  name = name_ */\n      dup3\n      mload\n        /* \"contracts/Market.sol\":3718:3722  bool */\n      0x00\n      swap1\n        /* \"contracts/Market.sol\":3738:3750  name = name_ */\n      tag_235\n      swap1\n        /* \"contracts/Market.sol\":3738:3742  name */\n      0x01\n      swap1\n        /* \"contracts/Market.sol\":3738:3750  name = name_ */\n      0x20\n      dup8\n      add\n      swap1\n      tag_236\n      jump\t// in\n    tag_235:\n      pop\n        /* \"contracts/Market.sol\":3760:3782  sideAName = sideAName_ */\n      dup3\n      mload\n      tag_237\n      swap1\n        /* \"contracts/Market.sol\":3760:3769  sideAName */\n      0x05\n      swap1\n        /* \"contracts/Market.sol\":3760:3782  sideAName = sideAName_ */\n      0x20\n      dup7\n      add\n      swap1\n      tag_236\n      jump\t// in\n    tag_237:\n      pop\n        /* \"contracts/Market.sol\":3792:3814  sideBName = sideBName_ */\n      dup2\n      mload\n      tag_238\n      swap1\n        /* \"contracts/Market.sol\":3792:3801  sideBName */\n      0x07\n      swap1\n        /* \"contracts/Market.sol\":3792:3814  sideBName = sideBName_ */\n      0x20\n      dup6\n      add\n      swap1\n      tag_236\n      jump\t// in\n    tag_238:\n      pop\n        /* \"contracts/Market.sol\":3831:3835  true */\n      0x01\n        /* \"contracts/Market.sol\":3824:3835  return true */\n      swap1\n      pop\n        /* \"contracts/Market.sol\":3580:3842  function upadteMarket( string memory name_, string memory sideAName_, string memory sideBName_)... */\n    tag_234:\n      swap4\n      swap3\n      pop\n      pop\n      pop\n      jump\t// out\n        /* \"contracts/Market.sol\":642:674  string public override sideAName */\n    tag_68:\n      0x05\n      dup1\n      sload\n      tag_137\n      swap1\n      tag_138\n      jump\t// in\n        /* \"contracts/Market.sol\":917:945  MarketBet[] public sideABets */\n    tag_73:\n      0x09\n      dup2\n      dup2\n      sload\n      dup2\n      lt\n      tag_244\n      jumpi\n      0x00\n      dup1\n      revert\n    tag_244:\n      0x00\n      swap2\n      dup3\n      mstore\n      0x20\n      swap1\n      swap2\n      keccak256\n      0x03\n      swap1\n      swap2\n      mul\n      add\n      dup1\n      sload\n      0x01\n      dup3\n      add\n      sload\n      0x02\n      swap1\n      swap3\n      add\n      sload\n      sub(shl(0xa0, 0x01), 0x01)\n      swap1\n      swap2\n      and\n      swap3\n      pop\n      0xff\n      and\n      dup4\n      jump\t// out\n        /* \"contracts/Market.sol\":4335:5170  function addBet(address _better, address _betAddress, uint256 _stake, uint8 _odds, string memory _side)... */\n    tag_79:\n        /* \"contracts/Market.sol\":4518:4526  web3bets */\n      sload(0x0f)\n        /* \"contracts/Market.sol\":4518:4536  web3bets.factory() */\n      0x40\n      dup1\n      mload\n      shl(0xe0, 0xc45a0155)\n      dup2\n      mstore\n      swap1\n      mload\n        /* \"contracts/Market.sol\":4473:4477  bool */\n      0x00\n      swap3\n      sub(shl(0xa0, 0x01), 0x01)\n        /* \"contracts/Market.sol\":4518:4526  web3bets */\n      and\n      swap2\n        /* \"contracts/Market.sol\":4518:4534  web3bets.factory */\n      0xc45a0155\n      swap2\n        /* \"contracts/Market.sol\":4518:4536  web3bets.factory() */\n      0x04\n      dup1\n      dup4\n      add\n      swap3\n      0x20\n      swap3\n      swap2\n      swap1\n      dup3\n      swap1\n      sub\n      add\n      dup2\n        /* \"contracts/Market.sol\":4518:4526  web3bets */\n      dup7\n        /* \"contracts/Market.sol\":4518:4536  web3bets.factory() */\n      dup1\n      extcodesize\n      iszero\n      dup1\n      iszero\n      tag_247\n      jumpi\n      0x00\n      dup1\n      revert\n    tag_247:\n      pop\n      gas\n      staticcall\n      iszero\n      dup1\n      iszero\n      tag_249\n      jumpi\n      returndatasize\n      0x00\n      dup1\n      returndatacopy\n      revert(0x00, returndatasize)\n    tag_249:\n      pop\n      pop\n      pop\n      pop\n      mload(0x40)\n      returndatasize\n      not(0x1f)\n      0x1f\n      dup3\n      add\n      and\n      dup3\n      add\n      dup1\n      0x40\n      mstore\n      pop\n      dup2\n      add\n      swap1\n      tag_250\n      swap2\n      swap1\n      tag_129\n      jump\t// in\n    tag_250:\n      sub(shl(0xa0, 0x01), 0x01)\n        /* \"contracts/Market.sol\":4504:4536  msg.sender == web3bets.factory() */\n      and\n        /* \"contracts/Market.sol\":4504:4514  msg.sender */\n      caller\n      sub(shl(0xa0, 0x01), 0x01)\n        /* \"contracts/Market.sol\":4504:4536  msg.sender == web3bets.factory() */\n      and\n      eq\n        /* \"contracts/Market.sol\":4496:4606  require(msg.sender == web3bets.factory(), \"only web3bets fixedodds factory contract can create this contract\") */\n      tag_251\n      jumpi\n      mload(0x40)\n      shl(0xe5, 0x461bcd)\n      dup2\n      mstore\n        /* \"#utility.yul\":10301:10303   */\n      0x20\n        /* \"contracts/Market.sol\":4496:4606  require(msg.sender == web3bets.factory(), \"only web3bets fixedodds factory contract can create this contract\") */\n      0x04\n      dup3\n      add\n        /* \"#utility.yul\":10283:10304   */\n      mstore\n        /* \"#utility.yul\":10340:10342   */\n      0x41\n        /* \"#utility.yul\":10320:10338   */\n      0x24\n      dup3\n      add\n        /* \"#utility.yul\":10313:10343   */\n      mstore\n        /* \"#utility.yul\":10379:10413   */\n      0x6f6e6c792077656233626574732066697865646f64647320666163746f727920\n        /* \"#utility.yul\":10359:10377   */\n      0x44\n      dup3\n      add\n        /* \"#utility.yul\":10352:10414   */\n      mstore\n        /* \"#utility.yul\":10450:10484   */\n      0x636f6e74726163742063616e20637265617465207468697320636f6e74726163\n        /* \"#utility.yul\":10430:10448   */\n      0x64\n      dup3\n      add\n        /* \"#utility.yul\":10423:10485   */\n      mstore\n      shl(0xfa, 0x1d)\n        /* \"#utility.yul\":10501:10520   */\n      0x84\n      dup3\n      add\n        /* \"#utility.yul\":10494:10526   */\n      mstore\n        /* \"#utility.yul\":10543:10562   */\n      0xa4\n      add\n        /* \"contracts/Market.sol\":4496:4606  require(msg.sender == web3bets.factory(), \"only web3bets fixedodds factory contract can create this contract\") */\n      tag_122\n        /* \"#utility.yul\":10273:10568   */\n      jump\n        /* \"contracts/Market.sol\":4496:4606  require(msg.sender == web3bets.factory(), \"only web3bets fixedodds factory contract can create this contract\") */\n    tag_251:\n        /* \"contracts/Market.sol\":4624:4647  isValidBet(_betAddress) */\n      tag_254\n        /* \"contracts/Market.sol\":4635:4646  _betAddress */\n      dup6\n        /* \"contracts/Market.sol\":4624:4634  isValidBet */\n      tag_255\n        /* \"contracts/Market.sol\":4624:4647  isValidBet(_betAddress) */\n      jump\t// in\n    tag_254:\n        /* \"contracts/Market.sol\":4616:4707  require(isValidBet(_betAddress), \"The address is not a valid bet contract for this market\") */\n      tag_256\n      jumpi\n      mload(0x40)\n      shl(0xe5, 0x461bcd)\n      dup2\n      mstore\n        /* \"#utility.yul\":7650:7652   */\n      0x20\n        /* \"contracts/Market.sol\":4616:4707  require(isValidBet(_betAddress), \"The address is not a valid bet contract for this market\") */\n      0x04\n      dup3\n      add\n        /* \"#utility.yul\":7632:7653   */\n      mstore\n        /* \"#utility.yul\":7689:7691   */\n      0x37\n        /* \"#utility.yul\":7669:7687   */\n      0x24\n      dup3\n      add\n        /* \"#utility.yul\":7662:7692   */\n      mstore\n        /* \"#utility.yul\":7728:7762   */\n      0x5468652061646472657373206973206e6f7420612076616c6964206265742063\n        /* \"#utility.yul\":7708:7726   */\n      0x44\n      dup3\n      add\n        /* \"#utility.yul\":7701:7763   */\n      mstore\n        /* \"#utility.yul\":7799:7824   */\n      0x6f6e747261637420666f722074686973206d61726b6574000000000000000000\n        /* \"#utility.yul\":7779:7797   */\n      0x64\n      dup3\n      add\n        /* \"#utility.yul\":7772:7825   */\n      mstore\n        /* \"#utility.yul\":7842:7861   */\n      0x84\n      add\n        /* \"contracts/Market.sol\":4616:4707  require(isValidBet(_betAddress), \"The address is not a valid bet contract for this market\") */\n      tag_122\n        /* \"#utility.yul\":7622:7867   */\n      jump\n        /* \"contracts/Market.sol\":4616:4707  require(isValidBet(_betAddress), \"The address is not a valid bet contract for this market\") */\n    tag_256:\n        /* \"contracts/Market.sol\":4768:4793  abi.encodePacked(\"sideA\") */\n      mload(0x40)\n      shl(0xd8, 0x7369646541)\n      0x20\n      dup3\n      add\n        /* \"#utility.yul\":5173:5193   */\n      mstore\n        /* \"#utility.yul\":5209:5220   */\n      0x25\n      add\n        /* \"contracts/Market.sol\":4768:4793  abi.encodePacked(\"sideA\") */\n      mload(0x40)\n      0x20\n      dup2\n      dup4\n      sub\n      sub\n      dup2\n      mstore\n      swap1\n      0x40\n      mstore\n        /* \"contracts/Market.sol\":4758:4794  keccak256(abi.encodePacked(\"sideA\")) */\n      dup1\n      mload\n      swap1\n      0x20\n      add\n      keccak256\n        /* \"contracts/Market.sol\":4747:4752  _side */\n      dup3\n        /* \"contracts/Market.sol\":4730:4753  abi.encodePacked(_side) */\n      add(0x20, mload(0x40))\n      tag_260\n      swap2\n      swap1\n      tag_468\n      jump\t// in\n    tag_260:\n      mload(0x40)\n      0x20\n      dup2\n      dup4\n      sub\n      sub\n      dup2\n      mstore\n      swap1\n      0x40\n      mstore\n        /* \"contracts/Market.sol\":4720:4754  keccak256(abi.encodePacked(_side)) */\n      dup1\n      mload\n      swap1\n      0x20\n      add\n      keccak256\n        /* \"contracts/Market.sol\":4720:4794  keccak256(abi.encodePacked(_side)) == keccak256(abi.encodePacked(\"sideA\")) */\n      eq\n        /* \"contracts/Market.sol\":4717:5143  if(keccak256(abi.encodePacked(_side)) == keccak256(abi.encodePacked(\"sideA\"))){... */\n      iszero\n      tag_261\n      jumpi\n        /* \"contracts/Market.sol\":4809:4857  _addToSideA(_better, _betAddress, _stake, _odds) */\n      tag_262\n        /* \"contracts/Market.sol\":4821:4828  _better */\n      dup7\n        /* \"contracts/Market.sol\":4830:4841  _betAddress */\n      dup7\n        /* \"contracts/Market.sol\":4843:4849  _stake */\n      dup7\n        /* \"contracts/Market.sol\":4851:4856  _odds */\n      dup7\n        /* \"contracts/Market.sol\":4809:4820  _addToSideA */\n      tag_263\n        /* \"contracts/Market.sol\":4809:4857  _addToSideA(_better, _betAddress, _stake, _odds) */\n      jump\t// in\n    tag_262:\n        /* \"contracts/Market.sol\":4871:4911  _matchSideABet(_betAddress,_stake,_odds) */\n      tag_264\n        /* \"contracts/Market.sol\":4886:4897  _betAddress */\n      dup6\n        /* \"contracts/Market.sol\":4898:4904  _stake */\n      dup6\n        /* \"contracts/Market.sol\":4905:4910  _odds */\n      dup6\n        /* \"contracts/Market.sol\":4871:4885  _matchSideABet */\n      tag_265\n        /* \"contracts/Market.sol\":4871:4911  _matchSideABet(_betAddress,_stake,_odds) */\n      jump\t// in\n    tag_264:\n        /* \"contracts/Market.sol\":4717:5143  if(keccak256(abi.encodePacked(_side)) == keccak256(abi.encodePacked(\"sideA\"))){... */\n      jump(tag_272)\n    tag_261:\n        /* \"contracts/Market.sol\":4988:5013  abi.encodePacked(\"sideB\") */\n      mload(0x40)\n      shl(0xd9, 0x39b4b232a1)\n      0x20\n      dup3\n      add\n        /* \"#utility.yul\":5433:5453   */\n      mstore\n        /* \"#utility.yul\":5469:5480   */\n      0x25\n      add\n        /* \"contracts/Market.sol\":4988:5013  abi.encodePacked(\"sideB\") */\n      mload(0x40)\n      0x20\n      dup2\n      dup4\n      sub\n      sub\n      dup2\n      mstore\n      swap1\n      0x40\n      mstore\n        /* \"contracts/Market.sol\":4978:5014  keccak256(abi.encodePacked(\"sideB\")) */\n      dup1\n      mload\n      swap1\n      0x20\n      add\n      keccak256\n        /* \"contracts/Market.sol\":4967:4972  _side */\n      dup3\n        /* \"contracts/Market.sol\":4950:4973  abi.encodePacked(_side) */\n      add(0x20, mload(0x40))\n      tag_268\n      swap2\n      swap1\n      tag_468\n      jump\t// in\n    tag_268:\n      mload(0x40)\n      0x20\n      dup2\n      dup4\n      sub\n      sub\n      dup2\n      mstore\n      swap1\n      0x40\n      mstore\n        /* \"contracts/Market.sol\":4940:4974  keccak256(abi.encodePacked(_side)) */\n      dup1\n      mload\n      swap1\n      0x20\n      add\n      keccak256\n        /* \"contracts/Market.sol\":4940:5014  keccak256(abi.encodePacked(_side)) == keccak256(abi.encodePacked(\"sideB\")) */\n      eq\n        /* \"contracts/Market.sol\":4936:5143  if (keccak256(abi.encodePacked(_side)) == keccak256(abi.encodePacked(\"sideB\"))) {... */\n      iszero\n      tag_272\n      jumpi\n        /* \"contracts/Market.sol\":5030:5078  _addToSideB(_better, _betAddress, _stake, _odds) */\n      tag_270\n        /* \"contracts/Market.sol\":5042:5049  _better */\n      dup7\n        /* \"contracts/Market.sol\":5051:5062  _betAddress */\n      dup7\n        /* \"contracts/Market.sol\":5064:5070  _stake */\n      dup7\n        /* \"contracts/Market.sol\":5072:5077  _odds */\n      dup7\n        /* \"contracts/Market.sol\":5030:5041  _addToSideB */\n      tag_271\n        /* \"contracts/Market.sol\":5030:5078  _addToSideB(_better, _betAddress, _stake, _odds) */\n      jump\t// in\n    tag_270:\n        /* \"contracts/Market.sol\":5092:5132  _matchSideBBet(_betAddress,_stake,_odds) */\n      tag_272\n        /* \"contracts/Market.sol\":5107:5118  _betAddress */\n      dup6\n        /* \"contracts/Market.sol\":5119:5125  _stake */\n      dup6\n        /* \"contracts/Market.sol\":5126:5131  _odds */\n      dup6\n        /* \"contracts/Market.sol\":5092:5106  _matchSideBBet */\n      tag_273\n        /* \"contracts/Market.sol\":5092:5132  _matchSideBBet(_betAddress,_stake,_odds) */\n      jump\t// in\n    tag_272:\n      pop\n        /* \"contracts/Market.sol\":5159:5163  true */\n      0x01\n        /* \"contracts/Market.sol\":4335:5170  function addBet(address _better, address _betAddress, uint256 _stake, uint8 _odds, string memory _side)... */\n      swap6\n      swap5\n      pop\n      pop\n      pop\n      pop\n      pop\n      jump\t// out\n        /* \"contracts/Market.sol\":729:761  string public override sideBName */\n    tag_82:\n      0x07\n      dup1\n      sload\n      tag_137\n      swap1\n      tag_138\n      jump\t// in\n        /* \"contracts/Market.sol\":10241:10680  function setWinningSide(string memory _winningSide)... */\n    tag_87:\n        /* \"contracts/Market.sol\":1433:1445  eventAddress */\n      sload(0x02)\n        /* \"contracts/Market.sol\":1477:1504  marketEvent.getEventOwner() */\n      0x40\n      dup1\n      mload\n      shl(0xe0, 0x179f907d)\n      dup2\n      mstore\n      swap1\n      mload\n        /* \"contracts/Market.sol\":10358:10362  bool */\n      0x00\n      swap3\n      sub(shl(0xa0, 0x01), 0x01)\n        /* \"contracts/Market.sol\":1433:1445  eventAddress */\n      and\n      swap2\n        /* \"contracts/Market.sol\":10358:10362  bool */\n      dup4\n      swap2\n        /* \"contracts/Market.sol\":1433:1445  eventAddress */\n      dup4\n      swap2\n        /* \"contracts/Market.sol\":1477:1502  marketEvent.getEventOwner */\n      0x179f907d\n      swap2\n        /* \"contracts/Market.sol\":1477:1504  marketEvent.getEventOwner() */\n      0x04\n      dup1\n      dup4\n      add\n      swap3\n      0x20\n      swap3\n      swap2\n      swap1\n      dup3\n      swap1\n      sub\n      add\n      dup2\n        /* \"contracts/Market.sol\":10358:10362  bool */\n      dup8\n        /* \"contracts/Market.sol\":1433:1445  eventAddress */\n      dup8\n        /* \"contracts/Market.sol\":1477:1504  marketEvent.getEventOwner() */\n      dup1\n      extcodesize\n      iszero\n      dup1\n      iszero\n      tag_280\n      jumpi\n      0x00\n      dup1\n      revert\n    tag_280:\n      pop\n      gas\n      call\n      iszero\n      dup1\n      iszero\n      tag_282\n      jumpi\n      returndatasize\n      0x00\n      dup1\n      returndatacopy\n      revert(0x00, returndatasize)\n    tag_282:\n      pop\n      pop\n      pop\n      pop\n      mload(0x40)\n      returndatasize\n      not(0x1f)\n      0x1f\n      dup3\n      add\n      and\n      dup3\n      add\n      dup1\n      0x40\n      mstore\n      pop\n      dup2\n      add\n      swap1\n      tag_283\n      swap2\n      swap1\n      tag_129\n      jump\t// in\n    tag_283:\n        /* \"contracts/Market.sol\":1456:1504  address eventOwner = marketEvent.getEventOwner() */\n      swap1\n      pop\n        /* \"contracts/Market.sol\":1522:1532  msg.sender */\n      caller\n      sub(shl(0xa0, 0x01), 0x01)\n        /* \"contracts/Market.sol\":1522:1546  msg.sender == eventOwner */\n      dup3\n      and\n      eq\n        /* \"contracts/Market.sol\":1514:1585  require(msg.sender == eventOwner, \"Only event owners set winning pool\") */\n      tag_284\n      jumpi\n      mload(0x40)\n      shl(0xe5, 0x461bcd)\n      dup2\n      mstore\n      0x04\n      add\n      tag_122\n      swap1\n      tag_231\n      jump\t// in\n    tag_284:\n        /* \"contracts/Market.sol\":10382:10399  hasSetWinningSide */\n      sload(0x02)\n      shl(0xa0, 0x01)\n      swap1\n      div\n      0xff\n      and\n        /* \"contracts/Market.sol\":10382:10407  hasSetWinningSide == true */\n      iszero\n      iszero\n        /* \"contracts/Market.sol\":10403:10407  true */\n      0x01\n        /* \"contracts/Market.sol\":10382:10407  hasSetWinningSide == true */\n      eq\n        /* \"contracts/Market.sol\":10378:10468  if (hasSetWinningSide == true) {... */\n      iszero\n      tag_287\n      jumpi\n        /* \"contracts/Market.sol\":10423:10457  revert(\"Winning Pool already set\") */\n      mload(0x40)\n      shl(0xe5, 0x461bcd)\n      dup2\n      mstore\n        /* \"#utility.yul\":8431:8433   */\n      0x20\n        /* \"contracts/Market.sol\":10423:10457  revert(\"Winning Pool already set\") */\n      0x04\n      dup3\n      add\n        /* \"#utility.yul\":8413:8434   */\n      mstore\n        /* \"#utility.yul\":8470:8472   */\n      0x18\n        /* \"#utility.yul\":8450:8468   */\n      0x24\n      dup3\n      add\n        /* \"#utility.yul\":8443:8473   */\n      mstore\n        /* \"#utility.yul\":8509:8535   */\n      0x57696e6e696e6720506f6f6c20616c7265616479207365740000000000000000\n        /* \"#utility.yul\":8489:8507   */\n      0x44\n      dup3\n      add\n        /* \"#utility.yul\":8482:8536   */\n      mstore\n        /* \"#utility.yul\":8553:8571   */\n      0x64\n      add\n        /* \"contracts/Market.sol\":10423:10457  revert(\"Winning Pool already set\") */\n      tag_122\n        /* \"#utility.yul\":8403:8577   */\n      jump\n        /* \"contracts/Market.sol\":10378:10468  if (hasSetWinningSide == true) {... */\n    tag_287:\n        /* \"contracts/Market.sol\":10477:10503  winningSide = _winningSide */\n      dup4\n      mload\n      tag_290\n      swap1\n        /* \"contracts/Market.sol\":10477:10488  winningSide */\n      0x03\n      swap1\n        /* \"contracts/Market.sol\":10477:10503  winningSide = _winningSide */\n      0x20\n      dup8\n      add\n      swap1\n      tag_236\n      jump\t// in\n    tag_290:\n      pop\n        /* \"contracts/Market.sol\":10513:10530  hasSetWinningSide */\n      0x02\n        /* \"contracts/Market.sol\":10513:10537  hasSetWinningSide = true */\n      dup1\n      sload\n      not(shl(0xa0, 0xff))\n      and\n      shl(0xa0, 0x01)\n      swap1\n      dup2\n      or\n      swap2\n      dup3\n      swap1\n      sstore\n        /* \"contracts/Market.sol\":10553:10570  hasSetWinningSide */\n      swap1\n      div\n        /* \"contracts/Market.sol\":10513:10537  hasSetWinningSide = true */\n      0xff\n        /* \"contracts/Market.sol\":10553:10570  hasSetWinningSide */\n      and\n        /* \"contracts/Market.sol\":10548:10674  if (!hasSetWinningSide) {... */\n      tag_291\n      jumpi\n        /* \"contracts/Market.sol\":10586:10621  revert(\"No Pool Address was found\") */\n      mload(0x40)\n      shl(0xe5, 0x461bcd)\n      dup2\n      mstore\n        /* \"#utility.yul\":9594:9596   */\n      0x20\n        /* \"contracts/Market.sol\":10586:10621  revert(\"No Pool Address was found\") */\n      0x04\n      dup3\n      add\n        /* \"#utility.yul\":9576:9597   */\n      mstore\n        /* \"#utility.yul\":9633:9635   */\n      0x19\n        /* \"#utility.yul\":9613:9631   */\n      0x24\n      dup3\n      add\n        /* \"#utility.yul\":9606:9636   */\n      mstore\n        /* \"#utility.yul\":9672:9699   */\n      0x4e6f20506f6f6c20416464726573732077617320666f756e6400000000000000\n        /* \"#utility.yul\":9652:9670   */\n      0x44\n      dup3\n      add\n        /* \"#utility.yul\":9645:9700   */\n      mstore\n        /* \"#utility.yul\":9717:9735   */\n      0x64\n      add\n        /* \"contracts/Market.sol\":10586:10621  revert(\"No Pool Address was found\") */\n      tag_122\n        /* \"#utility.yul\":9566:9741   */\n      jump\n        /* \"contracts/Market.sol\":10548:10674  if (!hasSetWinningSide) {... */\n    tag_291:\n      pop\n        /* \"contracts/Market.sol\":10659:10663  true */\n      0x01\n      swap4\n        /* \"contracts/Market.sol\":10241:10680  function setWinningSide(string memory _winningSide)... */\n      swap3\n      pop\n      pop\n      pop\n      jump\t// out\n        /* \"contracts/Market.sol\":10686:10848  function getEventName() external override returns (string memory) {... */\n    tag_90:\n        /* \"contracts/Market.sol\":10790:10802  eventAddress */\n      sload(0x02)\n        /* \"contracts/Market.sol\":10820:10841  marketEvent.getName() */\n      0x40\n      dup1\n      mload\n      shl(0xe2, 0x05f5f79f)\n      dup2\n      mstore\n      swap1\n      mload\n        /* \"contracts/Market.sol\":10737:10750  string memory */\n      0x60\n      swap3\n      sub(shl(0xa0, 0x01), 0x01)\n        /* \"contracts/Market.sol\":10790:10802  eventAddress */\n      and\n      swap2\n      dup3\n      swap2\n        /* \"contracts/Market.sol\":10820:10839  marketEvent.getName */\n      0x17d7de7c\n      swap2\n        /* \"contracts/Market.sol\":10820:10841  marketEvent.getName() */\n      0x04\n      dup1\n      dup3\n      add\n      swap3\n        /* \"contracts/Market.sol\":10762:10780  IEvent marketEvent */\n      0x00\n      swap3\n        /* \"contracts/Market.sol\":10820:10841  marketEvent.getName() */\n      swap1\n      swap2\n      swap1\n      dup3\n      swap1\n      sub\n      add\n      dup2\n        /* \"contracts/Market.sol\":10762:10780  IEvent marketEvent */\n      dup4\n        /* \"contracts/Market.sol\":10790:10802  eventAddress */\n      dup8\n        /* \"contracts/Market.sol\":10820:10841  marketEvent.getName() */\n      dup1\n      extcodesize\n      iszero\n      dup1\n      iszero\n      tag_296\n      jumpi\n      0x00\n      dup1\n      revert\n    tag_296:\n      pop\n      gas\n      call\n      iszero\n      dup1\n      iszero\n      tag_298\n      jumpi\n      returndatasize\n      0x00\n      dup1\n      returndatacopy\n      revert(0x00, returndatasize)\n    tag_298:\n      pop\n      pop\n      pop\n      pop\n      mload(0x40)\n      returndatasize\n      0x00\n      dup3\n      returndatacopy\n      0x1f\n      returndatasize\n      swap1\n      dup2\n      add\n      not(0x1f)\n      and\n      dup3\n      add\n      0x40\n      mstore\n      tag_299\n      swap2\n      swap1\n      dup2\n      add\n      swap1\n      tag_183\n      jump\t// in\n    tag_299:\n        /* \"contracts/Market.sol\":10813:10841  return marketEvent.getName() */\n      swap2\n      pop\n      pop\n        /* \"contracts/Market.sol\":10686:10848  function getEventName() external override returns (string memory) {... */\n      swap1\n      jump\t// out\n        /* \"contracts/Market.sol\":993:1021  MarketBet[] public sideBBets */\n    tag_100:\n      0x0b\n      dup2\n      dup2\n      sload\n      dup2\n      lt\n      tag_244\n      jumpi\n      0x00\n      dup1\n      revert\n        /* \"contracts/Market.sol\":556:590  string public override winningSide */\n    tag_107:\n      0x03\n      dup1\n      sload\n      tag_137\n      swap1\n      tag_138\n      jump\t// in\n        /* \"@openzeppelin/contracts/token/ERC20/utils/SafeERC20.sol\":763:968  function safeTransfer(... */\n    tag_130:\n        /* \"@openzeppelin/contracts/token/ERC20/utils/SafeERC20.sol\":902:960  abi.encodeWithSelector(token.transfer.selector, to, value) */\n      0x40\n      dup1\n      mload\n      sub(shl(0xa0, 0x01), 0x01)\n        /* \"#utility.yul\":6424:6456   */\n      dup5\n      and\n        /* \"@openzeppelin/contracts/token/ERC20/utils/SafeERC20.sol\":902:960  abi.encodeWithSelector(token.transfer.selector, to, value) */\n      0x24\n      dup3\n      add\n        /* \"#utility.yul\":6406:6457   */\n      mstore\n        /* \"#utility.yul\":6473:6491   */\n      0x44\n      dup1\n      dup3\n      add\n        /* \"#utility.yul\":6466:6500   */\n      dup5\n      swap1\n      mstore\n        /* \"@openzeppelin/contracts/token/ERC20/utils/SafeERC20.sol\":902:960  abi.encodeWithSelector(token.transfer.selector, to, value) */\n      dup3\n      mload\n      dup1\n      dup4\n      sub\n      swap1\n      swap2\n      add\n      dup2\n      mstore\n        /* \"#utility.yul\":6379:6397   */\n      0x64\n      swap1\n      swap2\n      add\n        /* \"@openzeppelin/contracts/token/ERC20/utils/SafeERC20.sol\":902:960  abi.encodeWithSelector(token.transfer.selector, to, value) */\n      swap1\n      swap2\n      mstore\n      0x20\n      dup2\n      add\n      dup1\n      mload\n      sub(shl(0xe0, 0x01), 0x01)\n      and\n      shl(0xe0, 0xa9059cbb)\n      or\n      swap1\n      mstore\n        /* \"@openzeppelin/contracts/token/ERC20/utils/SafeERC20.sol\":875:961  _callOptionalReturn(token, abi.encodeWithSelector(token.transfer.selector, to, value)) */\n      tag_308\n      swap1\n        /* \"@openzeppelin/contracts/token/ERC20/utils/SafeERC20.sol\":895:900  token */\n      dup5\n      swap1\n        /* \"@openzeppelin/contracts/token/ERC20/utils/SafeERC20.sol\":875:894  _callOptionalReturn */\n      tag_311\n        /* \"@openzeppelin/contracts/token/ERC20/utils/SafeERC20.sol\":875:961  _callOptionalReturn(token, abi.encodeWithSelector(token.transfer.selector, to, value)) */\n      jump\t// in\n    tag_308:\n        /* \"@openzeppelin/contracts/token/ERC20/utils/SafeERC20.sol\":763:968  function safeTransfer(... */\n      pop\n      pop\n      pop\n      jump\t// out\n        /* \"contracts/Market.sol\":3848:4329  function isValidBet(address _addr) private view returns (bool){... */\n    tag_255:\n        /* \"contracts/Market.sol\":3905:3909  bool */\n      0x00\n        /* \"contracts/Market.sol\":3972:3990  extcodesize(_addr) */\n      dup2\n      extcodesize\n        /* \"contracts/Market.sol\":4012:4020  size > 0 */\n      0xffffffff\n      dup2\n      and\n      iszero\n        /* \"contracts/Market.sol\":4009:4323  if(size > 0){... */\n      tag_313\n      jumpi\n        /* \"contracts/Market.sol\":4035:4043  IBet bet */\n      0x00\n        /* \"contracts/Market.sol\":4051:4056  _addr */\n      dup4\n        /* \"contracts/Market.sol\":4035:4057  IBet bet = IBet(_addr) */\n      swap1\n      pop\n        /* \"contracts/Market.sol\":4071:4085  IMarket market */\n      0x00\n        /* \"contracts/Market.sol\":4096:4099  bet */\n      dup2\n      sub(shl(0xa0, 0x01), 0x01)\n        /* \"contracts/Market.sol\":4096:4106  bet.market */\n      and\n      0x80f55605\n        /* \"contracts/Market.sol\":4096:4108  bet.market() */\n      mload(0x40)\n      dup2\n      0xffffffff\n      and\n      0xe0\n      shl\n      dup2\n      mstore\n      0x04\n      add\n      0x20\n      mload(0x40)\n      dup1\n      dup4\n      sub\n      dup2\n      dup7\n      dup1\n      extcodesize\n      iszero\n      dup1\n      iszero\n      tag_314\n      jumpi\n      0x00\n      dup1\n      revert\n    tag_314:\n      pop\n      gas\n      staticcall\n      iszero\n      dup1\n      iszero\n      tag_316\n      jumpi\n      returndatasize\n      0x00\n      dup1\n      returndatacopy\n      revert(0x00, returndatasize)\n    tag_316:\n      pop\n      pop\n      pop\n      pop\n      mload(0x40)\n      returndatasize\n      not(0x1f)\n      0x1f\n      dup3\n      add\n      and\n      dup3\n      add\n      dup1\n      0x40\n      mstore\n      pop\n      dup2\n      add\n      swap1\n      tag_317\n      swap2\n      swap1\n      tag_129\n      jump\t// in\n    tag_317:\n        /* \"contracts/Market.sol\":4071:4109  IMarket market = IMarket(bet.market()) */\n      swap1\n      pop\n        /* \"contracts/Market.sol\":4150:4154  this */\n      address\n      sub(shl(0xa0, 0x01), 0x01)\n        /* \"contracts/Market.sol\":4126:4155  bet.market() == address(this) */\n      and\n        /* \"contracts/Market.sol\":4126:4129  bet */\n      dup3\n      sub(shl(0xa0, 0x01), 0x01)\n        /* \"contracts/Market.sol\":4126:4136  bet.market */\n      and\n      0x80f55605\n        /* \"contracts/Market.sol\":4126:4138  bet.market() */\n      mload(0x40)\n      dup2\n      0xffffffff\n      and\n      0xe0\n      shl\n      dup2\n      mstore\n      0x04\n      add\n      0x20\n      mload(0x40)\n      dup1\n      dup4\n      sub\n      dup2\n      dup7\n      dup1\n      extcodesize\n      iszero\n      dup1\n      iszero\n      tag_318\n      jumpi\n      0x00\n      dup1\n      revert\n    tag_318:\n      pop\n      gas\n      staticcall\n      iszero\n      dup1\n      iszero\n      tag_320\n      jumpi\n      returndatasize\n      0x00\n      dup1\n      returndatacopy\n      revert(0x00, returndatasize)\n    tag_320:\n      pop\n      pop\n      pop\n      pop\n      mload(0x40)\n      returndatasize\n      not(0x1f)\n      0x1f\n      dup3\n      add\n      and\n      dup3\n      add\n      dup1\n      0x40\n      mstore\n      pop\n      dup2\n      add\n      swap1\n      tag_321\n      swap2\n      swap1\n      tag_129\n      jump\t// in\n    tag_321:\n      sub(shl(0xa0, 0x01), 0x01)\n        /* \"contracts/Market.sol\":4126:4155  bet.market() == address(this) */\n      and\n      eq\n        /* \"contracts/Market.sol\":4123:4262  if(bet.market() == address(this)){... */\n      iszero\n      tag_322\n      jumpi\n      pop\n        /* \"contracts/Market.sol\":4181:4185  true */\n      0x01\n      swap5\n        /* \"contracts/Market.sol\":3848:4329  function isValidBet(address _addr) private view returns (bool){... */\n      swap4\n      pop\n      pop\n      pop\n      pop\n      jump\t// out\n        /* \"contracts/Market.sol\":4123:4262  if(bet.market() == address(this)){... */\n    tag_322:\n      pop\n        /* \"contracts/Market.sol\":4242:4247  false */\n      0x00\n      swap5\n        /* \"contracts/Market.sol\":3848:4329  function isValidBet(address _addr) private view returns (bool){... */\n      swap4\n      pop\n      pop\n      pop\n      pop\n      jump\t// out\n        /* \"contracts/Market.sol\":4009:4323  if(size > 0){... */\n    tag_313:\n      pop\n        /* \"contracts/Market.sol\":4307:4312  false */\n      0x00\n      swap3\n        /* \"contracts/Market.sol\":3848:4329  function isValidBet(address _addr) private view returns (bool){... */\n      swap2\n      pop\n      pop\n      jump\t// out\n        /* \"contracts/Market.sol\":4009:4323  if(size > 0){... */\n    tag_324:\n        /* \"contracts/Market.sol\":3848:4329  function isValidBet(address _addr) private view returns (bool){... */\n      pop\n      swap2\n      swap1\n      pop\n      jump\t// out\n        /* \"contracts/Market.sol\":5176:5478  function _addToSideA(address _better, address _betAddress, uint256 _stake, uint8 _odds)... */\n    tag_263:\n        /* \"contracts/Market.sol\":5314:5320  _stake */\n      dup2\n        /* \"contracts/Market.sol\":5295:5310  sideATotalStake */\n      0x06\n      0x00\n        /* \"contracts/Market.sol\":5295:5320  sideATotalStake += _stake */\n      dup3\n      dup3\n      sload\n      tag_326\n      swap2\n      swap1\n      tag_198\n      jump\t// in\n    tag_326:\n      swap1\n      swap2\n      sstore\n      pop\n      pop\n        /* \"contracts/Market.sol\":5345:5409  MarketBet({betAddress: _betAddress, stake: _stake, odds: _odds}) */\n      0x40\n      dup1\n      mload\n      0x60\n      dup2\n      add\n      dup3\n      mstore\n      sub(shl(0xa0, 0x01), 0x01)\n      dup6\n      dup2\n      and\n      dup3\n      mstore\n      0x20\n      dup1\n      dup4\n      add\n      dup7\n      dup2\n      mstore\n      0xff\n      dup7\n      dup2\n      and\n      dup6\n      dup8\n      add\n      swap1\n      dup2\n      mstore\n        /* \"contracts/Market.sol\":5330:5339  sideABets */\n      0x09\n        /* \"contracts/Market.sol\":5330:5410  sideABets.push(MarketBet({betAddress: _betAddress, stake: _stake, odds: _odds})) */\n      dup1\n      sload\n      0x01\n      dup2\n      add\n      dup3\n      sstore\n      0x00\n      swap2\n      dup3\n      mstore\n      swap7\n      mload\n      0x6e1540171b6c0c960b71a7020d9f60077f6af931a8bbf590da0223dacf75c7af\n      0x03\n      swap1\n      swap9\n      mul\n      swap8\n      dup9\n      add\n      dup1\n      sload\n      not(sub(shl(0xa0, 0x01), 0x01))\n      and\n      swap2\n      dup9\n      and\n      swap2\n      swap1\n      swap2\n      or\n      swap1\n      sstore\n      swap3\n      mload\n      0x6e1540171b6c0c960b71a7020d9f60077f6af931a8bbf590da0223dacf75c7b0\n      dup8\n      add\n      sstore\n      mload\n      0x6e1540171b6c0c960b71a7020d9f60077f6af931a8bbf590da0223dacf75c7b1\n      swap1\n      swap6\n      add\n      dup1\n      sload\n      not(0xff)\n      and\n      swap6\n      swap1\n      swap2\n      and\n      swap5\n      swap1\n      swap5\n      or\n      swap1\n      swap4\n      sstore\n        /* \"contracts/Market.sol\":5420:5445  sideAUsersStakes[_better] */\n      swap1\n      dup8\n      and\n      dup3\n      mstore\n        /* \"contracts/Market.sol\":5420:5436  sideAUsersStakes */\n      0x0d\n        /* \"contracts/Market.sol\":5420:5445  sideAUsersStakes[_better] */\n      swap1\n      mstore\n      swap1\n      dup2\n      keccak256\n        /* \"contracts/Market.sol\":5420:5455  sideAUsersStakes[_better] += _stake */\n      dup1\n      sload\n        /* \"contracts/Market.sol\":5345:5409  MarketBet({betAddress: _betAddress, stake: _stake, odds: _odds}) */\n      dup5\n      swap3\n      swap1\n        /* \"contracts/Market.sol\":5420:5455  sideAUsersStakes[_better] += _stake */\n      tag_328\n      swap1\n        /* \"contracts/Market.sol\":5345:5409  MarketBet({betAddress: _betAddress, stake: _stake, odds: _odds}) */\n      dup5\n      swap1\n        /* \"contracts/Market.sol\":5420:5455  sideAUsersStakes[_better] += _stake */\n      tag_198\n      jump\t// in\n    tag_328:\n      swap1\n      swap2\n      sstore\n      pop\n      pop\n        /* \"contracts/Market.sol\":5176:5478  function _addToSideA(address _better, address _betAddress, uint256 _stake, uint8 _odds)... */\n    tag_325:\n      pop\n      pop\n      pop\n      pop\n      jump\t// out\n        /* \"contracts/Market.sol\":5792:7990  function _matchSideABet(address _betAddress, uint256 _stake, uint8 _odds)... */\n    tag_265:\n        /* \"contracts/Market.sol\":5913:5929  sideBBetsPending */\n      0x0c\n        /* \"contracts/Market.sol\":5913:5936  sideBBetsPending.length */\n      sload\n        /* \"contracts/Market.sol\":5949:5961  betCount > 0 */\n      dup1\n      iszero\n        /* \"contracts/Market.sol\":5946:7968  if(betCount > 0){... */\n      tag_330\n      jumpi\n        /* \"contracts/Market.sol\":5993:5999  _stake */\n      dup3\n        /* \"contracts/Market.sol\":6013:7832  while(_remStake >= 1 * 10 ** 18){... */\n    tag_331:\n        /* \"contracts/Market.sol\":6032:6044  1 * 10 ** 18 */\n      0x0de0b6b3a7640000\n        /* \"contracts/Market.sol\":6019:6028  _remStake */\n      dup2\n        /* \"contracts/Market.sol\":6019:6044  _remStake >= 1 * 10 ** 18 */\n      lt\n        /* \"contracts/Market.sol\":6013:7832  while(_remStake >= 1 * 10 ** 18){... */\n      tag_332\n      jumpi\n        /* \"contracts/Market.sol\":6063:6081  uint selectedIndex */\n      0x00\n        /* \"contracts/Market.sol\":6103:6116  uint8 maxOdds */\n      dup1\n        /* \"contracts/Market.sol\":6142:6148  uint i */\n      0x00\n        /* \"contracts/Market.sol\":6138:6406  for(uint i = 0; i < betCount; i++){... */\n    tag_333:\n        /* \"contracts/Market.sol\":6158:6166  betCount */\n      dup5\n        /* \"contracts/Market.sol\":6154:6155  i */\n      dup2\n        /* \"contracts/Market.sol\":6154:6166  i < betCount */\n      lt\n        /* \"contracts/Market.sol\":6138:6406  for(uint i = 0; i < betCount; i++){... */\n      iszero\n      tag_334\n      jumpi\n        /* \"contracts/Market.sol\":6194:6214  MarketBet memory bet */\n      0x00\n        /* \"contracts/Market.sol\":6217:6233  sideBBetsPending */\n      0x0c\n        /* \"contracts/Market.sol\":6234:6235  i */\n      dup3\n        /* \"contracts/Market.sol\":6217:6236  sideBBetsPending[i] */\n      dup2\n      sload\n      dup2\n      lt\n      tag_336\n      jumpi\n      mstore(0x00, shl(0xe0, 0x4e487b71))\n      mstore(0x04, 0x32)\n      revert(0x00, 0x24)\n    tag_336:\n      0x00\n      swap2\n      dup3\n      mstore\n      0x20\n      swap2\n      dup3\n      swap1\n      keccak256\n        /* \"contracts/Market.sol\":6194:6236  MarketBet memory bet = sideBBetsPending[i] */\n      0x40\n      dup1\n      mload\n      0x60\n      dup2\n      add\n      dup3\n      mstore\n        /* \"contracts/Market.sol\":6217:6236  sideBBetsPending[i] */\n      0x03\n      swap1\n      swap4\n      mul\n      swap1\n      swap2\n      add\n        /* \"contracts/Market.sol\":6194:6236  MarketBet memory bet = sideBBetsPending[i] */\n      dup1\n      sload\n      sub(shl(0xa0, 0x01), 0x01)\n      and\n      dup4\n      mstore\n      0x01\n      dup2\n      add\n      sload\n      swap4\n      dup4\n      add\n      swap4\n      swap1\n      swap4\n      mstore\n      0x02\n      swap1\n      swap3\n      add\n      sload\n      0xff\n      swap1\n      dup2\n      and\n      swap3\n      dup3\n      add\n      dup4\n      swap1\n      mstore\n      swap1\n      swap3\n      pop\n        /* \"contracts/Market.sol\":6261:6277  bet.odds>maxOdds */\n      dup5\n      and\n      lt\n        /* \"contracts/Market.sol\":6258:6388  if(bet.odds>maxOdds){... */\n      iszero\n      tag_338\n      jumpi\n        /* \"contracts/Market.sol\":6314:6317  bet */\n      dup1\n        /* \"contracts/Market.sol\":6314:6322  bet.odds */\n      0x40\n      add\n      mload\n        /* \"contracts/Market.sol\":6304:6322  maxOdds = bet.odds */\n      swap3\n      pop\n        /* \"contracts/Market.sol\":6364:6365  i */\n      dup2\n        /* \"contracts/Market.sol\":6348:6365  selectedIndex = i */\n      swap4\n      pop\n        /* \"contracts/Market.sol\":6258:6388  if(bet.odds>maxOdds){... */\n    tag_338:\n      pop\n        /* \"contracts/Market.sol\":6168:6171  i++ */\n      dup1\n      tag_339\n      dup2\n      tag_340\n      jump\t// in\n    tag_339:\n      swap2\n      pop\n      pop\n        /* \"contracts/Market.sol\":6138:6406  for(uint i = 0; i < betCount; i++){... */\n      jump(tag_333)\n    tag_334:\n      pop\n        /* \"contracts/Market.sol\":6436:6441  _odds */\n      dup5\n        /* \"contracts/Market.sol\":6426:6441  maxOdds > _odds */\n      0xff\n      and\n        /* \"contracts/Market.sol\":6426:6433  maxOdds */\n      dup2\n        /* \"contracts/Market.sol\":6426:6441  maxOdds > _odds */\n      0xff\n      and\n      gt\n        /* \"contracts/Market.sol\":6423:7818  if(maxOdds > _odds) {... */\n      iszero\n      tag_341\n      jumpi\n        /* \"contracts/Market.sol\":6465:6493  MarketBet memory selectedBet */\n      0x00\n        /* \"contracts/Market.sol\":6496:6512  sideBBetsPending */\n      0x0c\n        /* \"contracts/Market.sol\":6513:6526  selectedIndex */\n      dup4\n        /* \"contracts/Market.sol\":6496:6527  sideBBetsPending[selectedIndex] */\n      dup2\n      sload\n      dup2\n      lt\n      tag_342\n      jumpi\n      mstore(0x00, shl(0xe0, 0x4e487b71))\n      mstore(0x04, 0x32)\n      revert(0x00, 0x24)\n    tag_342:\n      0x00\n      swap2\n      dup3\n      mstore\n      0x20\n      dup1\n      dup4\n      keccak256\n        /* \"contracts/Market.sol\":6465:6527  MarketBet memory selectedBet = sideBBetsPending[selectedIndex] */\n      0x40\n      dup1\n      mload\n      0x60\n      dup2\n      add\n      dup3\n      mstore\n        /* \"contracts/Market.sol\":6496:6527  sideBBetsPending[selectedIndex] */\n      0x03\n      swap1\n      swap5\n      mul\n      swap1\n      swap2\n      add\n        /* \"contracts/Market.sol\":6465:6527  MarketBet memory selectedBet = sideBBetsPending[selectedIndex] */\n      dup1\n      sload\n      sub(shl(0xa0, 0x01), 0x01)\n      and\n      dup1\n      dup6\n      mstore\n      0x01\n      dup3\n      add\n      sload\n      dup6\n      dup6\n      add\n      mstore\n      0x02\n      swap1\n      swap2\n      add\n      sload\n      0xff\n      and\n      dup5\n      dup4\n      add\n      mstore\n        /* \"contracts/Market.sol\":6652:6681  selectedBetInstance.matched() */\n      dup2\n      mload\n      shl(0xe1, 0x45564e65)\n      dup2\n      mstore\n      swap2\n      mload\n        /* \"contracts/Market.sol\":6465:6527  MarketBet memory selectedBet = sideBBetsPending[selectedIndex] */\n      swap4\n      swap6\n      pop\n      swap4\n        /* \"contracts/Market.sol\":6496:6527  sideBBetsPending[selectedIndex] */\n      swap3\n        /* \"contracts/Market.sol\":6465:6527  MarketBet memory selectedBet = sideBBetsPending[selectedIndex] */\n      dup5\n      swap3\n        /* \"contracts/Market.sol\":6652:6679  selectedBetInstance.matched */\n      0x8aac9cca\n      swap3\n        /* \"contracts/Market.sol\":6652:6681  selectedBetInstance.matched() */\n      0x04\n      dup1\n      dup3\n      add\n      swap4\n      swap2\n      dup3\n      swap1\n      sub\n      add\n      dup2\n        /* \"contracts/Market.sol\":6465:6527  MarketBet memory selectedBet = sideBBetsPending[selectedIndex] */\n      dup7\n        /* \"contracts/Market.sol\":6652:6681  selectedBetInstance.matched() */\n      dup1\n      extcodesize\n      iszero\n      dup1\n      iszero\n      tag_344\n      jumpi\n      0x00\n      dup1\n      revert\n    tag_344:\n      pop\n      gas\n      staticcall\n      iszero\n      dup1\n      iszero\n      tag_346\n      jumpi\n      returndatasize\n      0x00\n      dup1\n      returndatacopy\n      revert(0x00, returndatasize)\n    tag_346:\n      pop\n      pop\n      pop\n      pop\n      mload(0x40)\n      returndatasize\n      not(0x1f)\n      0x1f\n      dup3\n      add\n      and\n      dup3\n      add\n      dup1\n      0x40\n      mstore\n      pop\n      dup2\n      add\n      swap1\n      tag_347\n      swap2\n      swap1\n      tag_114\n      jump\t// in\n    tag_347:\n        /* \"contracts/Market.sol\":6626:6681  uint matchedSelectedBet = selectedBetInstance.matched() */\n      swap1\n      pop\n        /* \"contracts/Market.sol\":6703:6720  uint offeredStake */\n      0x00\n        /* \"contracts/Market.sol\":6782:6785  100 */\n      0x64\n        /* \"contracts/Market.sol\":6767:6778  _odds - 100 */\n      tag_348\n        /* \"contracts/Market.sol\":6782:6785  100 */\n      dup2\n        /* \"contracts/Market.sol\":6767:6772  _odds */\n      dup12\n        /* \"contracts/Market.sol\":6767:6778  _odds - 100 */\n      tag_349\n      jump\t// in\n    tag_348:\n        /* \"contracts/Market.sol\":6723:6779  (selectedBet.stake - matchedSelectedBet) * (_odds - 100) */\n      0xff\n      and\n        /* \"contracts/Market.sol\":6744:6762  matchedSelectedBet */\n      dup4\n        /* \"contracts/Market.sol\":6724:6735  selectedBet */\n      dup7\n        /* \"contracts/Market.sol\":6724:6741  selectedBet.stake */\n      0x20\n      add\n      mload\n        /* \"contracts/Market.sol\":6724:6762  selectedBet.stake - matchedSelectedBet */\n      tag_350\n      swap2\n      swap1\n      tag_120\n      jump\t// in\n    tag_350:\n        /* \"contracts/Market.sol\":6723:6779  (selectedBet.stake - matchedSelectedBet) * (_odds - 100) */\n      tag_351\n      swap2\n      swap1\n      tag_194\n      jump\t// in\n    tag_351:\n        /* \"contracts/Market.sol\":6723:6785  (selectedBet.stake - matchedSelectedBet) * (_odds - 100) / 100 */\n      tag_352\n      swap2\n      swap1\n      tag_196\n      jump\t// in\n    tag_352:\n        /* \"contracts/Market.sol\":6703:6785  uint offeredStake = (selectedBet.stake - matchedSelectedBet) * (_odds - 100) / 100 */\n      swap1\n      pop\n        /* \"contracts/Market.sol\":6808:6821  uint _amountA */\n      0x00\n        /* \"contracts/Market.sol\":6861:6867  _stake */\n      dup11\n        /* \"contracts/Market.sol\":6846:6858  offeredStake */\n      dup3\n        /* \"contracts/Market.sol\":6846:6867  offeredStake > _stake */\n      gt\n        /* \"contracts/Market.sol\":6843:7033  if(offeredStake > _stake) {... */\n      iszero\n      tag_353\n      jumpi\n      pop\n        /* \"contracts/Market.sol\":6906:6912  _stake */\n      dup10\n        /* \"contracts/Market.sol\":6843:7033  if(offeredStake > _stake) {... */\n      jump(tag_354)\n    tag_353:\n      pop\n        /* \"contracts/Market.sol\":6998:7010  offeredStake */\n      dup1\n        /* \"contracts/Market.sol\":6843:7033  if(offeredStake > _stake) {... */\n    tag_354:\n        /* \"contracts/Market.sol\":7054:7067  uint _amountB */\n      0x00\n        /* \"contracts/Market.sol\":7070:7086  _amountA * _odds */\n      tag_355\n      0xff\n      dup13\n      and\n        /* \"contracts/Market.sol\":7070:7078  _amountA */\n      dup4\n        /* \"contracts/Market.sol\":7070:7086  _amountA * _odds */\n      tag_194\n      jump\t// in\n    tag_355:\n        /* \"contracts/Market.sol\":7054:7086  uint _amountB = _amountA * _odds */\n      swap1\n      pop\n        /* \"contracts/Market.sol\":7108:7121  BetPair _pair */\n      0x00\n        /* \"contracts/Market.sol\":7144:7148  this */\n      address\n        /* \"contracts/Market.sol\":7150:7161  _betAddress */\n      dup15\n        /* \"contracts/Market.sol\":7162:7173  selectedBet */\n      dup9\n        /* \"contracts/Market.sol\":7162:7184  selectedBet.betAddress */\n      0x00\n      add\n      mload\n        /* \"contracts/Market.sol\":7185:7193  _amountA */\n      dup6\n        /* \"contracts/Market.sol\":7194:7202  _amountB */\n      dup6\n        /* \"contracts/Market.sol\":7124:7203  new BetPair(address(this),_betAddress,selectedBet.betAddress,_amountA,_amountB) */\n      mload(0x40)\n      tag_356\n      swap1\n      tag_357\n      jump\t// in\n    tag_356:\n      sub(shl(0xa0, 0x01), 0x01)\n        /* \"#utility.yul\":6014:6029   */\n      swap6\n      dup7\n      and\n        /* \"#utility.yul\":5996:6030   */\n      dup2\n      mstore\n        /* \"#utility.yul\":6066:6081   */\n      swap4\n      dup6\n      and\n        /* \"#utility.yul\":6061:6063   */\n      0x20\n        /* \"#utility.yul\":6046:6064   */\n      dup6\n      add\n        /* \"#utility.yul\":6039:6082   */\n      mstore\n        /* \"#utility.yul\":6118:6133   */\n      swap4\n      swap1\n      swap2\n      and\n        /* \"#utility.yul\":6113:6115   */\n      0x40\n        /* \"#utility.yul\":6098:6116   */\n      dup4\n      add\n        /* \"#utility.yul\":6091:6134   */\n      mstore\n        /* \"#utility.yul\":6165:6167   */\n      0x60\n        /* \"#utility.yul\":6150:6168   */\n      dup3\n      add\n        /* \"#utility.yul\":6143:6177   */\n      mstore\n        /* \"#utility.yul\":6208:6211   */\n      0x80\n        /* \"#utility.yul\":6193:6212   */\n      dup2\n      add\n        /* \"#utility.yul\":6186:6221   */\n      swap2\n      swap1\n      swap2\n      mstore\n        /* \"#utility.yul\":5945:5948   */\n      0xa0\n        /* \"#utility.yul\":5930:5949   */\n      add\n        /* \"contracts/Market.sol\":7124:7203  new BetPair(address(this),_betAddress,selectedBet.betAddress,_amountA,_amountB) */\n      mload(0x40)\n      dup1\n      swap2\n      sub\n      swap1\n      0x00\n      create\n      dup1\n      iszero\n      dup1\n      iszero\n      tag_360\n      jumpi\n      returndatasize\n      0x00\n      dup1\n      returndatacopy\n      revert(0x00, returndatasize)\n    tag_360:\n      pop\n        /* \"contracts/Market.sol\":7108:7203  BetPair _pair = new BetPair(address(this),_betAddress,selectedBet.betAddress,_amountA,_amountB) */\n      swap1\n      pop\n        /* \"contracts/Market.sol\":7232:7248  sideBBetsPending */\n      0x0c\n        /* \"contracts/Market.sol\":7249:7262  selectedIndex */\n      dup10\n        /* \"contracts/Market.sol\":7232:7263  sideBBetsPending[selectedIndex] */\n      dup2\n      sload\n      dup2\n      lt\n      tag_361\n      jumpi\n      mstore(0x00, shl(0xe0, 0x4e487b71))\n      mstore(0x04, 0x32)\n      revert(0x00, 0x24)\n    tag_361:\n      0x00\n      swap2\n      dup3\n      mstore\n      0x20\n      dup3\n      keccak256\n      0x03\n      swap2\n      swap1\n      swap2\n      mul\n      add\n        /* \"contracts/Market.sol\":7225:7263  delete sideBBetsPending[selectedIndex] */\n      dup1\n      sload\n      not(sub(shl(0xa0, 0x01), 0x01))\n      and\n      dup2\n      sstore\n      0x01\n      dup2\n      add\n      swap2\n      swap1\n      swap2\n      sstore\n      0x02\n      add\n      dup1\n      sload\n      not(0xff)\n      and\n      swap1\n      sstore\n        /* \"contracts/Market.sol\":7338:7364  _betA.setMatched(_amountA) */\n      mload(0x40)\n      shl(0xe1, 0x2d267e03)\n      dup2\n      mstore\n      0x04\n      dup2\n      add\n        /* \"#utility.yul\":11892:11917   */\n      dup5\n      swap1\n      mstore\n        /* \"contracts/Market.sol\":7304:7315  _betAddress */\n      dup15\n      swap1\n      sub(shl(0xa0, 0x01), 0x01)\n        /* \"contracts/Market.sol\":7338:7354  _betA.setMatched */\n      dup3\n      and\n      swap1\n      0x5a4cfc06\n      swap1\n        /* \"#utility.yul\":11865:11883   */\n      0x24\n      add\n        /* \"contracts/Market.sol\":7338:7364  _betA.setMatched(_amountA) */\n      0x20\n      mload(0x40)\n      dup1\n      dup4\n      sub\n      dup2\n      0x00\n      dup8\n      dup1\n      extcodesize\n      iszero\n      dup1\n      iszero\n      tag_364\n      jumpi\n      0x00\n      dup1\n      revert\n    tag_364:\n      pop\n      gas\n      call\n      iszero\n      dup1\n      iszero\n      tag_366\n      jumpi\n      returndatasize\n      0x00\n      dup1\n      returndatacopy\n      revert(0x00, returndatasize)\n    tag_366:\n      pop\n      pop\n      pop\n      pop\n      mload(0x40)\n      returndatasize\n      not(0x1f)\n      0x1f\n      dup3\n      add\n      and\n      dup3\n      add\n      dup1\n      0x40\n      mstore\n      pop\n      dup2\n      add\n      swap1\n      tag_367\n      swap2\n      swap1\n      tag_136\n      jump\t// in\n    tag_367:\n      pop\n        /* \"contracts/Market.sol\":7386:7415  _betA.addPair(address(_pair)) */\n      mload(0x40)\n      shl(0xe1, 0x615bdddb)\n      dup2\n      mstore\n      sub(shl(0xa0, 0x01), 0x01)\n        /* \"#utility.yul\":5655:5687   */\n      dup4\n      dup2\n      and\n        /* \"contracts/Market.sol\":7386:7415  _betA.addPair(address(_pair)) */\n      0x04\n      dup4\n      add\n        /* \"#utility.yul\":5637:5688   */\n      mstore\n        /* \"contracts/Market.sol\":7386:7399  _betA.addPair */\n      dup3\n      and\n      swap1\n      0xc2b7bbb6\n      swap1\n        /* \"#utility.yul\":5610:5628   */\n      0x24\n      add\n        /* \"contracts/Market.sol\":7386:7415  _betA.addPair(address(_pair)) */\n      0x20\n      mload(0x40)\n      dup1\n      dup4\n      sub\n      dup2\n      0x00\n      dup8\n      dup1\n      extcodesize\n      iszero\n      dup1\n      iszero\n      tag_369\n      jumpi\n      0x00\n      dup1\n      revert\n    tag_369:\n      pop\n      gas\n      call\n      iszero\n      dup1\n      iszero\n      tag_371\n      jumpi\n      returndatasize\n      0x00\n      dup1\n      returndatacopy\n      revert(0x00, returndatasize)\n    tag_371:\n      pop\n      pop\n      pop\n      pop\n      mload(0x40)\n      returndatasize\n      not(0x1f)\n      0x1f\n      dup3\n      add\n      and\n      dup3\n      add\n      dup1\n      0x40\n      mstore\n      pop\n      dup2\n      add\n      swap1\n      tag_372\n      swap2\n      swap1\n      tag_136\n      jump\t// in\n    tag_372:\n      pop\n        /* \"contracts/Market.sol\":7456:7478  selectedBet.betAddress */\n      dup8\n      mload\n        /* \"contracts/Market.sol\":7501:7527  _betB.setMatched(_amountB) */\n      mload(0x40)\n      shl(0xe1, 0x2d267e03)\n      dup2\n      mstore\n      0x04\n      dup2\n      add\n        /* \"#utility.yul\":11892:11917   */\n      dup6\n      swap1\n      mstore\n      sub(shl(0xa0, 0x01), 0x01)\n        /* \"contracts/Market.sol\":7501:7517  _betB.setMatched */\n      dup3\n      and\n      swap1\n      0x5a4cfc06\n      swap1\n        /* \"#utility.yul\":11865:11883   */\n      0x24\n      add\n        /* \"contracts/Market.sol\":7501:7527  _betB.setMatched(_amountB) */\n      0x20\n      mload(0x40)\n      dup1\n      dup4\n      sub\n      dup2\n      0x00\n      dup8\n      dup1\n      extcodesize\n      iszero\n      dup1\n      iszero\n      tag_374\n      jumpi\n      0x00\n      dup1\n      revert\n    tag_374:\n      pop\n      gas\n      call\n      iszero\n      dup1\n      iszero\n      tag_376\n      jumpi\n      returndatasize\n      0x00\n      dup1\n      returndatacopy\n      revert(0x00, returndatasize)\n    tag_376:\n      pop\n      pop\n      pop\n      pop\n      mload(0x40)\n      returndatasize\n      not(0x1f)\n      0x1f\n      dup3\n      add\n      and\n      dup3\n      add\n      dup1\n      0x40\n      mstore\n      pop\n      dup2\n      add\n      swap1\n      tag_377\n      swap2\n      swap1\n      tag_136\n      jump\t// in\n    tag_377:\n      pop\n        /* \"contracts/Market.sol\":7549:7578  _betB.addPair(address(_pair)) */\n      mload(0x40)\n      shl(0xe1, 0x615bdddb)\n      dup2\n      mstore\n      sub(shl(0xa0, 0x01), 0x01)\n        /* \"#utility.yul\":5655:5687   */\n      dup5\n      dup2\n      and\n        /* \"contracts/Market.sol\":7549:7578  _betB.addPair(address(_pair)) */\n      0x04\n      dup4\n      add\n        /* \"#utility.yul\":5637:5688   */\n      mstore\n        /* \"contracts/Market.sol\":7549:7562  _betB.addPair */\n      dup3\n      and\n      swap1\n      0xc2b7bbb6\n      swap1\n        /* \"#utility.yul\":5610:5628   */\n      0x24\n      add\n        /* \"contracts/Market.sol\":7549:7578  _betB.addPair(address(_pair)) */\n      0x20\n      mload(0x40)\n      dup1\n      dup4\n      sub\n      dup2\n      0x00\n      dup8\n      dup1\n      extcodesize\n      iszero\n      dup1\n      iszero\n      tag_379\n      jumpi\n      0x00\n      dup1\n      revert\n    tag_379:\n      pop\n      gas\n      call\n      iszero\n      dup1\n      iszero\n      tag_381\n      jumpi\n      returndatasize\n      0x00\n      dup1\n      returndatacopy\n      revert(0x00, returndatasize)\n    tag_381:\n      pop\n      pop\n      pop\n      pop\n      mload(0x40)\n      returndatasize\n      not(0x1f)\n      0x1f\n      dup3\n      add\n      and\n      dup3\n      add\n      dup1\n      0x40\n      mstore\n      pop\n      dup2\n      add\n      swap1\n      tag_382\n      swap2\n      swap1\n      tag_136\n      jump\t// in\n    tag_382:\n      pop\n        /* \"contracts/Market.sol\":7601:7622  _remStake -= _amountA */\n      tag_383\n        /* \"contracts/Market.sol\":7614:7622  _amountA */\n      dup6\n        /* \"contracts/Market.sol\":7601:7622  _remStake -= _amountA */\n      dup14\n      tag_120\n      jump\t// in\n    tag_383:\n      swap12\n      pop\n        /* \"contracts/Market.sol\":6423:7818  if(maxOdds > _odds) {... */\n      pop\n      pop\n      pop\n      pop\n      pop\n      pop\n      pop\n      pop\n      pop\n      jump(tag_384)\n    tag_341:\n      pop\n      pop\n        /* \"contracts/Market.sol\":7707:7771  MarketBet({betAddress: _betAddress, stake: _stake, odds: _odds}) */\n      0x40\n      dup1\n      mload\n      0x60\n      dup2\n      add\n      dup3\n      mstore\n      sub(shl(0xa0, 0x01), 0x01)\n      dup8\n      dup2\n      and\n      dup3\n      mstore\n      0x20\n      dup3\n      add\n      dup8\n      dup2\n      mstore\n      0xff\n      dup8\n      dup2\n      and\n      swap5\n      dup5\n      add\n      swap5\n      dup6\n      mstore\n        /* \"contracts/Market.sol\":7685:7701  sideABetsPending */\n      0x0a\n        /* \"contracts/Market.sol\":7685:7772  sideABetsPending.push(MarketBet({betAddress: _betAddress, stake: _stake, odds: _odds})) */\n      dup1\n      sload\n      0x01\n      dup2\n      add\n      dup3\n      sstore\n      0x00\n      swap2\n      swap1\n      swap2\n      mstore\n      swap4\n      mload\n      0xc65a7bb8d6351c1cf70c95a316cc6a92839c986682d98bc35f958f4883f9d2a8\n      0x03\n      swap1\n      swap6\n      mul\n      swap5\n      dup6\n      add\n      dup1\n      sload\n      not(sub(shl(0xa0, 0x01), 0x01))\n      and\n      swap2\n      swap1\n      swap5\n      and\n      or\n      swap1\n      swap3\n      sstore\n      mload\n      0xc65a7bb8d6351c1cf70c95a316cc6a92839c986682d98bc35f958f4883f9d2a9\n      dup4\n      add\n      sstore\n      swap2\n      mload\n      0xc65a7bb8d6351c1cf70c95a316cc6a92839c986682d98bc35f958f4883f9d2aa\n      swap1\n      swap2\n      add\n      dup1\n      sload\n      not(0xff)\n      and\n      swap2\n      swap1\n      swap3\n      and\n      or\n      swap1\n      sstore\n        /* \"contracts/Market.sol\":7794:7799  break */\n      jump(tag_332)\n        /* \"contracts/Market.sol\":6423:7818  if(maxOdds > _odds) {... */\n    tag_384:\n        /* \"contracts/Market.sol\":6013:7832  while(_remStake >= 1 * 10 ** 18){... */\n      pop\n      pop\n      jump(tag_331)\n    tag_332:\n        /* \"contracts/Market.sol\":5946:7968  if(betCount > 0){... */\n      pop\n      jump(tag_325)\n    tag_330:\n      pop\n        /* \"contracts/Market.sol\":7892:7956  MarketBet({betAddress: _betAddress, stake: _stake, odds: _odds}) */\n      0x40\n      dup1\n      mload\n      0x60\n      dup2\n      add\n      dup3\n      mstore\n      sub(shl(0xa0, 0x01), 0x01)\n      swap5\n      dup6\n      and\n      dup2\n      mstore\n      0x20\n      dup2\n      add\n      swap4\n      dup5\n      mstore\n      0xff\n      swap3\n      dup4\n      and\n      swap2\n      dup2\n      add\n      swap2\n      dup3\n      mstore\n        /* \"contracts/Market.sol\":7870:7886  sideABetsPending */\n      0x0a\n        /* \"contracts/Market.sol\":7870:7957  sideABetsPending.push(MarketBet({betAddress: _betAddress, stake: _stake, odds: _odds})) */\n      dup1\n      sload\n      0x01\n      dup2\n      add\n      dup3\n      sstore\n      0x00\n      swap2\n      swap1\n      swap2\n      mstore\n      swap1\n      mload\n      0xc65a7bb8d6351c1cf70c95a316cc6a92839c986682d98bc35f958f4883f9d2a8\n      0x03\n      swap1\n      swap3\n      mul\n      swap2\n      dup3\n      add\n      dup1\n      sload\n      not(sub(shl(0xa0, 0x01), 0x01))\n      and\n      swap2\n      swap1\n      swap7\n      and\n      or\n      swap1\n      swap5\n      sstore\n      swap2\n      mload\n      0xc65a7bb8d6351c1cf70c95a316cc6a92839c986682d98bc35f958f4883f9d2a9\n      dup5\n      add\n      sstore\n      swap1\n      mload\n      0xc65a7bb8d6351c1cf70c95a316cc6a92839c986682d98bc35f958f4883f9d2aa\n      swap1\n      swap3\n      add\n      dup1\n      sload\n      not(0xff)\n      and\n      swap3\n      swap1\n      swap2\n      and\n      swap2\n      swap1\n      swap2\n      or\n      swap1\n      sstore\n        /* \"contracts/Market.sol\":5792:7990  function _matchSideABet(address _betAddress, uint256 _stake, uint8 _odds)... */\n      jump\t// out\n        /* \"contracts/Market.sol\":5484:5786  function _addToSideB(address _better, address _betAddress, uint256 _stake, uint8 _odds)... */\n    tag_271:\n        /* \"contracts/Market.sol\":5622:5628  _stake */\n      dup2\n        /* \"contracts/Market.sol\":5603:5618  sideBTotalStake */\n      0x08\n      0x00\n        /* \"contracts/Market.sol\":5603:5628  sideBTotalStake += _stake */\n      dup3\n      dup3\n      sload\n      tag_389\n      swap2\n      swap1\n      tag_198\n      jump\t// in\n    tag_389:\n      swap1\n      swap2\n      sstore\n      pop\n      pop\n        /* \"contracts/Market.sol\":5653:5717  MarketBet({betAddress: _betAddress, stake: _stake, odds: _odds}) */\n      0x40\n      dup1\n      mload\n      0x60\n      dup2\n      add\n      dup3\n      mstore\n      sub(shl(0xa0, 0x01), 0x01)\n      dup6\n      dup2\n      and\n      dup3\n      mstore\n      0x20\n      dup1\n      dup4\n      add\n      dup7\n      dup2\n      mstore\n      0xff\n      dup7\n      dup2\n      and\n      dup6\n      dup8\n      add\n      swap1\n      dup2\n      mstore\n        /* \"contracts/Market.sol\":5638:5647  sideBBets */\n      0x0b\n        /* \"contracts/Market.sol\":5638:5718  sideBBets.push(MarketBet({betAddress: _betAddress, stake: _stake, odds: _odds})) */\n      dup1\n      sload\n      0x01\n      dup2\n      add\n      dup3\n      sstore\n      0x00\n      swap2\n      dup3\n      mstore\n      swap7\n      mload\n      0x0175b7a638427703f0dbe7bb9bbf987a2551717b34e79f33b5b1008d1fa01db9\n      0x03\n      swap1\n      swap9\n      mul\n      swap8\n      dup9\n      add\n      dup1\n      sload\n      not(sub(shl(0xa0, 0x01), 0x01))\n      and\n      swap2\n      dup9\n      and\n      swap2\n      swap1\n      swap2\n      or\n      swap1\n      sstore\n      swap3\n      mload\n      0x0175b7a638427703f0dbe7bb9bbf987a2551717b34e79f33b5b1008d1fa01dba\n      dup8\n      add\n      sstore\n      mload\n      0x0175b7a638427703f0dbe7bb9bbf987a2551717b34e79f33b5b1008d1fa01dbb\n      swap1\n      swap6\n      add\n      dup1\n      sload\n      not(0xff)\n      and\n      swap6\n      swap1\n      swap2\n      and\n      swap5\n      swap1\n      swap5\n      or\n      swap1\n      swap4\n      sstore\n        /* \"contracts/Market.sol\":5728:5753  sideBUsersStakes[_better] */\n      swap1\n      dup8\n      and\n      dup3\n      mstore\n        /* \"contracts/Market.sol\":5728:5744  sideBUsersStakes */\n      0x0e\n        /* \"contracts/Market.sol\":5728:5753  sideBUsersStakes[_better] */\n      swap1\n      mstore\n      swap1\n      dup2\n      keccak256\n        /* \"contracts/Market.sol\":5728:5763  sideBUsersStakes[_better] += _stake */\n      dup1\n      sload\n        /* \"contracts/Market.sol\":5653:5717  MarketBet({betAddress: _betAddress, stake: _stake, odds: _odds}) */\n      dup5\n      swap3\n      swap1\n        /* \"contracts/Market.sol\":5728:5763  sideBUsersStakes[_better] += _stake */\n      tag_328\n      swap1\n        /* \"contracts/Market.sol\":5653:5717  MarketBet({betAddress: _betAddress, stake: _stake, odds: _odds}) */\n      dup5\n      swap1\n        /* \"contracts/Market.sol\":5728:5763  sideBUsersStakes[_better] += _stake */\n      tag_198\n      jump\t// in\n        /* \"contracts/Market.sol\":7996:10198  function _matchSideBBet(address _betAddress, uint256 _stake, uint8 _odds)... */\n    tag_273:\n        /* \"contracts/Market.sol\":8117:8133  sideABetsPending */\n      0x0a\n        /* \"contracts/Market.sol\":8117:8140  sideABetsPending.length */\n      sload\n        /* \"contracts/Market.sol\":8153:8165  betCount > 0 */\n      dup1\n      iszero\n        /* \"contracts/Market.sol\":8150:10176  if(betCount > 0){... */\n      tag_393\n      jumpi\n        /* \"contracts/Market.sol\":8197:8203  _stake */\n      dup3\n        /* \"contracts/Market.sol\":8217:10040  while(_remStake >= 1 * 10 ** 18){... */\n    tag_394:\n        /* \"contracts/Market.sol\":8236:8248  1 * 10 ** 18 */\n      0x0de0b6b3a7640000\n        /* \"contracts/Market.sol\":8223:8232  _remStake */\n      dup2\n        /* \"contracts/Market.sol\":8223:8248  _remStake >= 1 * 10 ** 18 */\n      lt\n        /* \"contracts/Market.sol\":8217:10040  while(_remStake >= 1 * 10 ** 18){... */\n      tag_332\n      jumpi\n        /* \"contracts/Market.sol\":8267:8285  uint selectedIndex */\n      0x00\n        /* \"contracts/Market.sol\":8307:8320  uint8 maxOdds */\n      dup1\n        /* \"contracts/Market.sol\":8346:8352  uint i */\n      0x00\n        /* \"contracts/Market.sol\":8342:8610  for(uint i = 0; i < betCount; i++){... */\n    tag_396:\n        /* \"contracts/Market.sol\":8362:8370  betCount */\n      dup5\n        /* \"contracts/Market.sol\":8358:8359  i */\n      dup2\n        /* \"contracts/Market.sol\":8358:8370  i < betCount */\n      lt\n        /* \"contracts/Market.sol\":8342:8610  for(uint i = 0; i < betCount; i++){... */\n      iszero\n      tag_397\n      jumpi\n        /* \"contracts/Market.sol\":8398:8418  MarketBet memory bet */\n      0x00\n        /* \"contracts/Market.sol\":8421:8437  sideABetsPending */\n      0x0a\n        /* \"contracts/Market.sol\":8438:8439  i */\n      dup3\n        /* \"contracts/Market.sol\":8421:8440  sideABetsPending[i] */\n      dup2\n      sload\n      dup2\n      lt\n      tag_399\n      jumpi\n      mstore(0x00, shl(0xe0, 0x4e487b71))\n      mstore(0x04, 0x32)\n      revert(0x00, 0x24)\n    tag_399:\n      0x00\n      swap2\n      dup3\n      mstore\n      0x20\n      swap2\n      dup3\n      swap1\n      keccak256\n        /* \"contracts/Market.sol\":8398:8440  MarketBet memory bet = sideABetsPending[i] */\n      0x40\n      dup1\n      mload\n      0x60\n      dup2\n      add\n      dup3\n      mstore\n        /* \"contracts/Market.sol\":8421:8440  sideABetsPending[i] */\n      0x03\n      swap1\n      swap4\n      mul\n      swap1\n      swap2\n      add\n        /* \"contracts/Market.sol\":8398:8440  MarketBet memory bet = sideABetsPending[i] */\n      dup1\n      sload\n      sub(shl(0xa0, 0x01), 0x01)\n      and\n      dup4\n      mstore\n      0x01\n      dup2\n      add\n      sload\n      swap4\n      dup4\n      add\n      swap4\n      swap1\n      swap4\n      mstore\n      0x02\n      swap1\n      swap3\n      add\n      sload\n      0xff\n      swap1\n      dup2\n      and\n      swap3\n      dup3\n      add\n      dup4\n      swap1\n      mstore\n      swap1\n      swap3\n      pop\n        /* \"contracts/Market.sol\":8465:8481  bet.odds>maxOdds */\n      dup5\n      and\n      lt\n        /* \"contracts/Market.sol\":8462:8592  if(bet.odds>maxOdds){... */\n      iszero\n      tag_401\n      jumpi\n        /* \"contracts/Market.sol\":8518:8521  bet */\n      dup1\n        /* \"contracts/Market.sol\":8518:8526  bet.odds */\n      0x40\n      add\n      mload\n        /* \"contracts/Market.sol\":8508:8526  maxOdds = bet.odds */\n      swap3\n      pop\n        /* \"contracts/Market.sol\":8568:8569  i */\n      dup2\n        /* \"contracts/Market.sol\":8552:8569  selectedIndex = i */\n      swap4\n      pop\n        /* \"contracts/Market.sol\":8462:8592  if(bet.odds>maxOdds){... */\n    tag_401:\n      pop\n        /* \"contracts/Market.sol\":8372:8375  i++ */\n      dup1\n      tag_402\n      dup2\n      tag_340\n      jump\t// in\n    tag_402:\n      swap2\n      pop\n      pop\n        /* \"contracts/Market.sol\":8342:8610  for(uint i = 0; i < betCount; i++){... */\n      jump(tag_396)\n    tag_397:\n      pop\n        /* \"contracts/Market.sol\":8640:8645  _odds */\n      dup5\n        /* \"contracts/Market.sol\":8630:8645  maxOdds > _odds */\n      0xff\n      and\n        /* \"contracts/Market.sol\":8630:8637  maxOdds */\n      dup2\n        /* \"contracts/Market.sol\":8630:8645  maxOdds > _odds */\n      0xff\n      and\n      gt\n        /* \"contracts/Market.sol\":8627:10026  if(maxOdds > _odds) {... */\n      iszero\n      tag_403\n      jumpi\n        /* \"contracts/Market.sol\":8669:8697  MarketBet memory selectedBet */\n      0x00\n        /* \"contracts/Market.sol\":8700:8716  sideABetsPending */\n      0x0a\n        /* \"contracts/Market.sol\":8717:8730  selectedIndex */\n      dup4\n        /* \"contracts/Market.sol\":8700:8731  sideABetsPending[selectedIndex] */\n      dup2\n      sload\n      dup2\n      lt\n      tag_404\n      jumpi\n      mstore(0x00, shl(0xe0, 0x4e487b71))\n      mstore(0x04, 0x32)\n      revert(0x00, 0x24)\n    tag_404:\n      0x00\n      swap2\n      dup3\n      mstore\n      0x20\n      dup1\n      dup4\n      keccak256\n        /* \"contracts/Market.sol\":8669:8731  MarketBet memory selectedBet = sideABetsPending[selectedIndex] */\n      0x40\n      dup1\n      mload\n      0x60\n      dup2\n      add\n      dup3\n      mstore\n        /* \"contracts/Market.sol\":8700:8731  sideABetsPending[selectedIndex] */\n      0x03\n      swap1\n      swap5\n      mul\n      swap1\n      swap2\n      add\n        /* \"contracts/Market.sol\":8669:8731  MarketBet memory selectedBet = sideABetsPending[selectedIndex] */\n      dup1\n      sload\n      sub(shl(0xa0, 0x01), 0x01)\n      and\n      dup1\n      dup6\n      mstore\n      0x01\n      dup3\n      add\n      sload\n      dup6\n      dup6\n      add\n      mstore\n      0x02\n      swap1\n      swap2\n      add\n      sload\n      0xff\n      and\n      dup5\n      dup4\n      add\n      mstore\n        /* \"contracts/Market.sol\":8856:8885  selectedBetInstance.matched() */\n      dup2\n      mload\n      shl(0xe1, 0x45564e65)\n      dup2\n      mstore\n      swap2\n      mload\n        /* \"contracts/Market.sol\":8669:8731  MarketBet memory selectedBet = sideABetsPending[selectedIndex] */\n      swap4\n      swap6\n      pop\n      swap4\n        /* \"contracts/Market.sol\":8700:8731  sideABetsPending[selectedIndex] */\n      swap3\n        /* \"contracts/Market.sol\":8669:8731  MarketBet memory selectedBet = sideABetsPending[selectedIndex] */\n      dup5\n      swap3\n        /* \"contracts/Market.sol\":8856:8883  selectedBetInstance.matched */\n      0x8aac9cca\n      swap3\n        /* \"contracts/Market.sol\":8856:8885  selectedBetInstance.matched() */\n      0x04\n      dup1\n      dup3\n      add\n      swap4\n      swap2\n      dup3\n      swap1\n      sub\n      add\n      dup2\n        /* \"contracts/Market.sol\":8669:8731  MarketBet memory selectedBet = sideABetsPending[selectedIndex] */\n      dup7\n        /* \"contracts/Market.sol\":8856:8885  selectedBetInstance.matched() */\n      dup1\n      extcodesize\n      iszero\n      dup1\n      iszero\n      tag_406\n      jumpi\n      0x00\n      dup1\n      revert\n    tag_406:\n      pop\n      gas\n      staticcall\n      iszero\n      dup1\n      iszero\n      tag_408\n      jumpi\n      returndatasize\n      0x00\n      dup1\n      returndatacopy\n      revert(0x00, returndatasize)\n    tag_408:\n      pop\n      pop\n      pop\n      pop\n      mload(0x40)\n      returndatasize\n      not(0x1f)\n      0x1f\n      dup3\n      add\n      and\n      dup3\n      add\n      dup1\n      0x40\n      mstore\n      pop\n      dup2\n      add\n      swap1\n      tag_409\n      swap2\n      swap1\n      tag_114\n      jump\t// in\n    tag_409:\n        /* \"contracts/Market.sol\":8830:8885  uint matchedSelectedBet = selectedBetInstance.matched() */\n      swap1\n      pop\n        /* \"contracts/Market.sol\":8907:8924  uint offeredStake */\n      0x00\n        /* \"contracts/Market.sol\":8986:8989  100 */\n      0x64\n        /* \"contracts/Market.sol\":8971:8982  _odds - 100 */\n      tag_410\n        /* \"contracts/Market.sol\":8986:8989  100 */\n      dup2\n        /* \"contracts/Market.sol\":8971:8976  _odds */\n      dup12\n        /* \"contracts/Market.sol\":8971:8982  _odds - 100 */\n      tag_349\n      jump\t// in\n    tag_410:\n        /* \"contracts/Market.sol\":8927:8983  (selectedBet.stake - matchedSelectedBet) * (_odds - 100) */\n      0xff\n      and\n        /* \"contracts/Market.sol\":8948:8966  matchedSelectedBet */\n      dup4\n        /* \"contracts/Market.sol\":8928:8939  selectedBet */\n      dup7\n        /* \"contracts/Market.sol\":8928:8945  selectedBet.stake */\n      0x20\n      add\n      mload\n        /* \"contracts/Market.sol\":8928:8966  selectedBet.stake - matchedSelectedBet */\n      tag_411\n      swap2\n      swap1\n      tag_120\n      jump\t// in\n    tag_411:\n        /* \"contracts/Market.sol\":8927:8983  (selectedBet.stake - matchedSelectedBet) * (_odds - 100) */\n      tag_412\n      swap2\n      swap1\n      tag_194\n      jump\t// in\n    tag_412:\n        /* \"contracts/Market.sol\":8927:8989  (selectedBet.stake - matchedSelectedBet) * (_odds - 100) / 100 */\n      tag_413\n      swap2\n      swap1\n      tag_196\n      jump\t// in\n    tag_413:\n        /* \"contracts/Market.sol\":8907:8989  uint offeredStake = (selectedBet.stake - matchedSelectedBet) * (_odds - 100) / 100 */\n      swap1\n      pop\n        /* \"contracts/Market.sol\":9012:9025  uint _amountB */\n      0x00\n        /* \"contracts/Market.sol\":9065:9071  _stake */\n      dup11\n        /* \"contracts/Market.sol\":9050:9062  offeredStake */\n      dup3\n        /* \"contracts/Market.sol\":9050:9071  offeredStake > _stake */\n      gt\n        /* \"contracts/Market.sol\":9047:9237  if(offeredStake > _stake) {... */\n      iszero\n      tag_414\n      jumpi\n      pop\n        /* \"contracts/Market.sol\":9110:9116  _stake */\n      dup10\n        /* \"contracts/Market.sol\":9047:9237  if(offeredStake > _stake) {... */\n      jump(tag_415)\n    tag_414:\n      pop\n        /* \"contracts/Market.sol\":9202:9214  offeredStake */\n      dup1\n        /* \"contracts/Market.sol\":9047:9237  if(offeredStake > _stake) {... */\n    tag_415:\n        /* \"contracts/Market.sol\":9258:9271  uint _amountA */\n      0x00\n        /* \"contracts/Market.sol\":9274:9290  _amountB * _odds */\n      tag_416\n      0xff\n      dup13\n      and\n        /* \"contracts/Market.sol\":9274:9282  _amountB */\n      dup4\n        /* \"contracts/Market.sol\":9274:9290  _amountB * _odds */\n      tag_194\n      jump\t// in\n    tag_416:\n        /* \"contracts/Market.sol\":9258:9290  uint _amountA = _amountB * _odds */\n      swap1\n      pop\n        /* \"contracts/Market.sol\":9312:9325  BetPair _pair */\n      0x00\n        /* \"contracts/Market.sol\":9348:9352  this */\n      address\n        /* \"contracts/Market.sol\":9355:9366  selectedBet */\n      dup8\n        /* \"contracts/Market.sol\":9355:9377  selectedBet.betAddress */\n      0x00\n      add\n      mload\n        /* \"contracts/Market.sol\":9379:9390  _betAddress */\n      dup16\n        /* \"contracts/Market.sol\":9392:9400  _amountA */\n      dup5\n        /* \"contracts/Market.sol\":9402:9410  _amountB */\n      dup7\n        /* \"contracts/Market.sol\":9328:9411  new BetPair(address(this), selectedBet.betAddress, _betAddress, _amountA, _amountB) */\n      mload(0x40)\n      tag_417\n      swap1\n      tag_357\n      jump\t// in\n    tag_417:\n      sub(shl(0xa0, 0x01), 0x01)\n        /* \"#utility.yul\":6014:6029   */\n      swap6\n      dup7\n      and\n        /* \"#utility.yul\":5996:6030   */\n      dup2\n      mstore\n        /* \"#utility.yul\":6066:6081   */\n      swap4\n      dup6\n      and\n        /* \"#utility.yul\":6061:6063   */\n      0x20\n        /* \"#utility.yul\":6046:6064   */\n      dup6\n      add\n        /* \"#utility.yul\":6039:6082   */\n      mstore\n        /* \"#utility.yul\":6118:6133   */\n      swap4\n      swap1\n      swap2\n      and\n        /* \"#utility.yul\":6113:6115   */\n      0x40\n        /* \"#utility.yul\":6098:6116   */\n      dup4\n      add\n        /* \"#utility.yul\":6091:6134   */\n      mstore\n        /* \"#utility.yul\":6165:6167   */\n      0x60\n        /* \"#utility.yul\":6150:6168   */\n      dup3\n      add\n        /* \"#utility.yul\":6143:6177   */\n      mstore\n        /* \"#utility.yul\":6208:6211   */\n      0x80\n        /* \"#utility.yul\":6193:6212   */\n      dup2\n      add\n        /* \"#utility.yul\":6186:6221   */\n      swap2\n      swap1\n      swap2\n      mstore\n        /* \"#utility.yul\":5945:5948   */\n      0xa0\n        /* \"#utility.yul\":5930:5949   */\n      add\n        /* \"contracts/Market.sol\":9328:9411  new BetPair(address(this), selectedBet.betAddress, _betAddress, _amountA, _amountB) */\n      mload(0x40)\n      dup1\n      swap2\n      sub\n      swap1\n      0x00\n      create\n      dup1\n      iszero\n      dup1\n      iszero\n      tag_419\n      jumpi\n      returndatasize\n      0x00\n      dup1\n      returndatacopy\n      revert(0x00, returndatasize)\n    tag_419:\n      pop\n        /* \"contracts/Market.sol\":9312:9411  BetPair _pair = new BetPair(address(this), selectedBet.betAddress, _betAddress, _amountA, _amountB) */\n      swap1\n      pop\n        /* \"contracts/Market.sol\":9440:9456  sideABetsPending */\n      0x0a\n        /* \"contracts/Market.sol\":9457:9470  selectedIndex */\n      dup10\n        /* \"contracts/Market.sol\":9440:9471  sideABetsPending[selectedIndex] */\n      dup2\n      sload\n      dup2\n      lt\n      tag_420\n      jumpi\n      mstore(0x00, shl(0xe0, 0x4e487b71))\n      mstore(0x04, 0x32)\n      revert(0x00, 0x24)\n    tag_420:\n      0x00\n      swap2\n      dup3\n      mstore\n      0x20\n      dup3\n      keccak256\n      0x03\n      swap2\n      swap1\n      swap2\n      mul\n      add\n        /* \"contracts/Market.sol\":9433:9471  delete sideABetsPending[selectedIndex] */\n      dup1\n      sload\n      not(sub(shl(0xa0, 0x01), 0x01))\n      and\n      dup2\n      sstore\n      0x01\n      dup2\n      add\n      swap2\n      swap1\n      swap2\n      sstore\n      0x02\n      add\n      dup1\n      sload\n      not(0xff)\n      and\n      swap1\n      sstore\n        /* \"contracts/Market.sol\":9546:9572  _betB.setMatched(_amountB) */\n      mload(0x40)\n      shl(0xe1, 0x2d267e03)\n      dup2\n      mstore\n      0x04\n      dup2\n      add\n        /* \"#utility.yul\":11892:11917   */\n      dup5\n      swap1\n      mstore\n        /* \"contracts/Market.sol\":9512:9523  _betAddress */\n      dup15\n      swap1\n      sub(shl(0xa0, 0x01), 0x01)\n        /* \"contracts/Market.sol\":9546:9562  _betB.setMatched */\n      dup3\n      and\n      swap1\n      0x5a4cfc06\n      swap1\n        /* \"#utility.yul\":11865:11883   */\n      0x24\n      add\n        /* \"contracts/Market.sol\":9546:9572  _betB.setMatched(_amountB) */\n      0x20\n      mload(0x40)\n      dup1\n      dup4\n      sub\n      dup2\n      0x00\n      dup8\n      dup1\n      extcodesize\n      iszero\n      dup1\n      iszero\n      tag_423\n      jumpi\n      0x00\n      dup1\n      revert\n    tag_423:\n      pop\n      gas\n      call\n      iszero\n      dup1\n      iszero\n      tag_425\n      jumpi\n      returndatasize\n      0x00\n      dup1\n      returndatacopy\n      revert(0x00, returndatasize)\n    tag_425:\n      pop\n      pop\n      pop\n      pop\n      mload(0x40)\n      returndatasize\n      not(0x1f)\n      0x1f\n      dup3\n      add\n      and\n      dup3\n      add\n      dup1\n      0x40\n      mstore\n      pop\n      dup2\n      add\n      swap1\n      tag_426\n      swap2\n      swap1\n      tag_136\n      jump\t// in\n    tag_426:\n      pop\n        /* \"contracts/Market.sol\":9594:9623  _betB.addPair(address(_pair)) */\n      mload(0x40)\n      shl(0xe1, 0x615bdddb)\n      dup2\n      mstore\n      sub(shl(0xa0, 0x01), 0x01)\n        /* \"#utility.yul\":5655:5687   */\n      dup4\n      dup2\n      and\n        /* \"contracts/Market.sol\":9594:9623  _betB.addPair(address(_pair)) */\n      0x04\n      dup4\n      add\n        /* \"#utility.yul\":5637:5688   */\n      mstore\n        /* \"contracts/Market.sol\":9594:9607  _betB.addPair */\n      dup3\n      and\n      swap1\n      0xc2b7bbb6\n      swap1\n        /* \"#utility.yul\":5610:5628   */\n      0x24\n      add\n        /* \"contracts/Market.sol\":9594:9623  _betB.addPair(address(_pair)) */\n      0x20\n      mload(0x40)\n      dup1\n      dup4\n      sub\n      dup2\n      0x00\n      dup8\n      dup1\n      extcodesize\n      iszero\n      dup1\n      iszero\n      tag_428\n      jumpi\n      0x00\n      dup1\n      revert\n    tag_428:\n      pop\n      gas\n      call\n      iszero\n      dup1\n      iszero\n      tag_430\n      jumpi\n      returndatasize\n      0x00\n      dup1\n      returndatacopy\n      revert(0x00, returndatasize)\n    tag_430:\n      pop\n      pop\n      pop\n      pop\n      mload(0x40)\n      returndatasize\n      not(0x1f)\n      0x1f\n      dup3\n      add\n      and\n      dup3\n      add\n      dup1\n      0x40\n      mstore\n      pop\n      dup2\n      add\n      swap1\n      tag_431\n      swap2\n      swap1\n      tag_136\n      jump\t// in\n    tag_431:\n      pop\n        /* \"contracts/Market.sol\":9664:9686  selectedBet.betAddress */\n      dup8\n      mload\n        /* \"contracts/Market.sol\":9709:9735  _betA.setMatched(_amountA) */\n      mload(0x40)\n      shl(0xe1, 0x2d267e03)\n      dup2\n      mstore\n      0x04\n      dup2\n      add\n        /* \"#utility.yul\":11892:11917   */\n      dup6\n      swap1\n      mstore\n      sub(shl(0xa0, 0x01), 0x01)\n        /* \"contracts/Market.sol\":9709:9725  _betA.setMatched */\n      dup3\n      and\n      swap1\n      0x5a4cfc06\n      swap1\n        /* \"#utility.yul\":11865:11883   */\n      0x24\n      add\n        /* \"contracts/Market.sol\":9709:9735  _betA.setMatched(_amountA) */\n      0x20\n      mload(0x40)\n      dup1\n      dup4\n      sub\n      dup2\n      0x00\n      dup8\n      dup1\n      extcodesize\n      iszero\n      dup1\n      iszero\n      tag_433\n      jumpi\n      0x00\n      dup1\n      revert\n    tag_433:\n      pop\n      gas\n      call\n      iszero\n      dup1\n      iszero\n      tag_435\n      jumpi\n      returndatasize\n      0x00\n      dup1\n      returndatacopy\n      revert(0x00, returndatasize)\n    tag_435:\n      pop\n      pop\n      pop\n      pop\n      mload(0x40)\n      returndatasize\n      not(0x1f)\n      0x1f\n      dup3\n      add\n      and\n      dup3\n      add\n      dup1\n      0x40\n      mstore\n      pop\n      dup2\n      add\n      swap1\n      tag_436\n      swap2\n      swap1\n      tag_136\n      jump\t// in\n    tag_436:\n      pop\n        /* \"contracts/Market.sol\":9757:9786  _betA.addPair(address(_pair)) */\n      mload(0x40)\n      shl(0xe1, 0x615bdddb)\n      dup2\n      mstore\n      sub(shl(0xa0, 0x01), 0x01)\n        /* \"#utility.yul\":5655:5687   */\n      dup5\n      dup2\n      and\n        /* \"contracts/Market.sol\":9757:9786  _betA.addPair(address(_pair)) */\n      0x04\n      dup4\n      add\n        /* \"#utility.yul\":5637:5688   */\n      mstore\n        /* \"contracts/Market.sol\":9757:9770  _betA.addPair */\n      dup3\n      and\n      swap1\n      0xc2b7bbb6\n      swap1\n        /* \"#utility.yul\":5610:5628   */\n      0x24\n      add\n        /* \"contracts/Market.sol\":9757:9786  _betA.addPair(address(_pair)) */\n      0x20\n      mload(0x40)\n      dup1\n      dup4\n      sub\n      dup2\n      0x00\n      dup8\n      dup1\n      extcodesize\n      iszero\n      dup1\n      iszero\n      tag_438\n      jumpi\n      0x00\n      dup1\n      revert\n    tag_438:\n      pop\n      gas\n      call\n      iszero\n      dup1\n      iszero\n      tag_440\n      jumpi\n      returndatasize\n      0x00\n      dup1\n      returndatacopy\n      revert(0x00, returndatasize)\n    tag_440:\n      pop\n      pop\n      pop\n      pop\n      mload(0x40)\n      returndatasize\n      not(0x1f)\n      0x1f\n      dup3\n      add\n      and\n      dup3\n      add\n      dup1\n      0x40\n      mstore\n      pop\n      dup2\n      add\n      swap1\n      tag_441\n      swap2\n      swap1\n      tag_136\n      jump\t// in\n    tag_441:\n      pop\n        /* \"contracts/Market.sol\":9809:9830  _remStake -= _amountA */\n      tag_442\n        /* \"contracts/Market.sol\":9822:9830  _amountA */\n      dup5\n        /* \"contracts/Market.sol\":9809:9830  _remStake -= _amountA */\n      dup14\n      tag_120\n      jump\t// in\n    tag_442:\n      swap12\n      pop\n        /* \"contracts/Market.sol\":8627:10026  if(maxOdds > _odds) {... */\n      pop\n      pop\n      pop\n      pop\n      pop\n      pop\n      pop\n      pop\n      pop\n      jump(tag_443)\n    tag_403:\n      pop\n      pop\n        /* \"contracts/Market.sol\":9915:9979  MarketBet({betAddress: _betAddress, stake: _stake, odds: _odds}) */\n      0x40\n      dup1\n      mload\n      0x60\n      dup2\n      add\n      dup3\n      mstore\n      sub(shl(0xa0, 0x01), 0x01)\n      dup8\n      dup2\n      and\n      dup3\n      mstore\n      0x20\n      dup3\n      add\n      dup8\n      dup2\n      mstore\n      0xff\n      dup8\n      dup2\n      and\n      swap5\n      dup5\n      add\n      swap5\n      dup6\n      mstore\n        /* \"contracts/Market.sol\":9893:9909  sideBBetsPending */\n      0x0c\n        /* \"contracts/Market.sol\":9893:9980  sideBBetsPending.push(MarketBet({betAddress: _betAddress, stake: _stake, odds: _odds})) */\n      dup1\n      sload\n      0x01\n      dup2\n      add\n      dup3\n      sstore\n      0x00\n      swap2\n      swap1\n      swap2\n      mstore\n      swap4\n      mload\n      0xdf6966c971051c3d54ec59162606531493a51404a002842f56009d7e5cf4a8c7\n      0x03\n      swap1\n      swap6\n      mul\n      swap5\n      dup6\n      add\n      dup1\n      sload\n      not(sub(shl(0xa0, 0x01), 0x01))\n      and\n      swap2\n      swap1\n      swap5\n      and\n      or\n      swap1\n      swap3\n      sstore\n      mload\n      0xdf6966c971051c3d54ec59162606531493a51404a002842f56009d7e5cf4a8c8\n      dup4\n      add\n      sstore\n      swap2\n      mload\n      0xdf6966c971051c3d54ec59162606531493a51404a002842f56009d7e5cf4a8c9\n      swap1\n      swap2\n      add\n      dup1\n      sload\n      not(0xff)\n      and\n      swap2\n      swap1\n      swap3\n      and\n      or\n      swap1\n      sstore\n        /* \"contracts/Market.sol\":10002:10007  break */\n      jump(tag_332)\n        /* \"contracts/Market.sol\":8627:10026  if(maxOdds > _odds) {... */\n    tag_443:\n        /* \"contracts/Market.sol\":8217:10040  while(_remStake >= 1 * 10 ** 18){... */\n      pop\n      pop\n      jump(tag_394)\n        /* \"contracts/Market.sol\":8150:10176  if(betCount > 0){... */\n    tag_393:\n      pop\n        /* \"contracts/Market.sol\":10100:10164  MarketBet({betAddress: _betAddress, stake: _stake, odds: _odds}) */\n      0x40\n      dup1\n      mload\n      0x60\n      dup2\n      add\n      dup3\n      mstore\n      sub(shl(0xa0, 0x01), 0x01)\n      swap5\n      dup6\n      and\n      dup2\n      mstore\n      0x20\n      dup2\n      add\n      swap4\n      dup5\n      mstore\n      0xff\n      swap3\n      dup4\n      and\n      swap2\n      dup2\n      add\n      swap2\n      dup3\n      mstore\n        /* \"contracts/Market.sol\":10078:10094  sideBBetsPending */\n      0x0c\n        /* \"contracts/Market.sol\":10078:10165  sideBBetsPending.push(MarketBet({betAddress: _betAddress, stake: _stake, odds: _odds})) */\n      dup1\n      sload\n      0x01\n      dup2\n      add\n      dup3\n      sstore\n      0x00\n      swap2\n      swap1\n      swap2\n      mstore\n      swap1\n      mload\n      0xdf6966c971051c3d54ec59162606531493a51404a002842f56009d7e5cf4a8c7\n      0x03\n      swap1\n      swap3\n      mul\n      swap2\n      dup3\n      add\n      dup1\n      sload\n      not(sub(shl(0xa0, 0x01), 0x01))\n      and\n      swap2\n      swap1\n      swap7\n      and\n      or\n      swap1\n      swap5\n      sstore\n      swap2\n      mload\n      0xdf6966c971051c3d54ec59162606531493a51404a002842f56009d7e5cf4a8c8\n      dup5\n      add\n      sstore\n      swap1\n      mload\n      0xdf6966c971051c3d54ec59162606531493a51404a002842f56009d7e5cf4a8c9\n      swap1\n      swap3\n      add\n      dup1\n      sload\n      not(0xff)\n      and\n      swap3\n      swap1\n      swap2\n      and\n      swap2\n      swap1\n      swap2\n      or\n      swap1\n      sstore\n        /* \"contracts/Market.sol\":7996:10198  function _matchSideBBet(address _betAddress, uint256 _stake, uint8 _odds)... */\n      jump\t// out\n        /* \"@openzeppelin/contracts/token/ERC20/utils/SafeERC20.sol\":3747:4453  function _callOptionalReturn(IERC20 token, bytes memory data) private {... */\n    tag_311:\n        /* \"@openzeppelin/contracts/token/ERC20/utils/SafeERC20.sol\":4166:4189  bytes memory returndata */\n      0x00\n        /* \"@openzeppelin/contracts/token/ERC20/utils/SafeERC20.sol\":4192:4261  address(token).functionCall(data, \"SafeERC20: low-level call failed\") */\n      tag_448\n        /* \"@openzeppelin/contracts/token/ERC20/utils/SafeERC20.sol\":4220:4224  data */\n      dup3\n        /* \"@openzeppelin/contracts/token/ERC20/utils/SafeERC20.sol\":4192:4261  address(token).functionCall(data, \"SafeERC20: low-level call failed\") */\n      mload(0x40)\n      dup1\n      0x40\n      add\n      0x40\n      mstore\n      dup1\n      0x20\n      dup2\n      mstore\n      0x20\n      add\n      0x5361666545524332303a206c6f772d6c6576656c2063616c6c206661696c6564\n      dup2\n      mstore\n      pop\n        /* \"@openzeppelin/contracts/token/ERC20/utils/SafeERC20.sol\":4200:4205  token */\n      dup6\n      sub(shl(0xa0, 0x01), 0x01)\n        /* \"@openzeppelin/contracts/token/ERC20/utils/SafeERC20.sol\":4192:4219  address(token).functionCall */\n      and\n      tag_449\n      swap1\n        /* \"@openzeppelin/contracts/token/ERC20/utils/SafeERC20.sol\":4192:4261  address(token).functionCall(data, \"SafeERC20: low-level call failed\") */\n      swap3\n      swap2\n      swap1\n      0xffffffff\n      and\n      jump\t// in\n    tag_448:\n        /* \"@openzeppelin/contracts/token/ERC20/utils/SafeERC20.sol\":4275:4292  returndata.length */\n      dup1\n      mload\n        /* \"@openzeppelin/contracts/token/ERC20/utils/SafeERC20.sol\":4166:4261  bytes memory returndata = address(token).functionCall(data, \"SafeERC20: low-level call failed\") */\n      swap1\n      swap2\n      pop\n        /* \"@openzeppelin/contracts/token/ERC20/utils/SafeERC20.sol\":4275:4296  returndata.length > 0 */\n      iszero\n        /* \"@openzeppelin/contracts/token/ERC20/utils/SafeERC20.sol\":4271:4447  if (returndata.length > 0) {... */\n      tag_308\n      jumpi\n        /* \"@openzeppelin/contracts/token/ERC20/utils/SafeERC20.sol\":4370:4380  returndata */\n      dup1\n        /* \"@openzeppelin/contracts/token/ERC20/utils/SafeERC20.sol\":4359:4389  abi.decode(returndata, (bool)) */\n      dup1\n      0x20\n      add\n      swap1\n      mload\n      dup2\n      add\n      swap1\n      tag_451\n      swap2\n      swap1\n      tag_136\n      jump\t// in\n    tag_451:\n        /* \"@openzeppelin/contracts/token/ERC20/utils/SafeERC20.sol\":4351:4436  require(abi.decode(returndata, (bool)), \"SafeERC20: ERC20 operation did not succeed\") */\n      tag_308\n      jumpi\n      mload(0x40)\n      shl(0xe5, 0x461bcd)\n      dup2\n      mstore\n        /* \"#utility.yul\":11133:11135   */\n      0x20\n        /* \"@openzeppelin/contracts/token/ERC20/utils/SafeERC20.sol\":4351:4436  require(abi.decode(returndata, (bool)), \"SafeERC20: ERC20 operation did not succeed\") */\n      0x04\n      dup3\n      add\n        /* \"#utility.yul\":11115:11136   */\n      mstore\n        /* \"#utility.yul\":11172:11174   */\n      0x2a\n        /* \"#utility.yul\":11152:11170   */\n      0x24\n      dup3\n      add\n        /* \"#utility.yul\":11145:11175   */\n      mstore\n        /* \"#utility.yul\":11211:11245   */\n      0x5361666545524332303a204552433230206f7065726174696f6e20646964206e\n        /* \"#utility.yul\":11191:11209   */\n      0x44\n      dup3\n      add\n        /* \"#utility.yul\":11184:11246   */\n      mstore\n      shl(0xb2, 0x1bdd081cdd58d8d95959)\n        /* \"#utility.yul\":11262:11280   */\n      0x64\n      dup3\n      add\n        /* \"#utility.yul\":11255:11295   */\n      mstore\n        /* \"#utility.yul\":11312:11331   */\n      0x84\n      add\n        /* \"@openzeppelin/contracts/token/ERC20/utils/SafeERC20.sol\":4351:4436  require(abi.decode(returndata, (bool)), \"SafeERC20: ERC20 operation did not succeed\") */\n      tag_122\n        /* \"#utility.yul\":11105:11337   */\n      jump\n        /* \"@openzeppelin/contracts/utils/Address.sol\":3861:4084  function functionCall(... */\n    tag_449:\n        /* \"@openzeppelin/contracts/utils/Address.sol\":3994:4006  bytes memory */\n      0x60\n        /* \"@openzeppelin/contracts/utils/Address.sol\":4025:4077  functionCallWithValue(target, data, 0, errorMessage) */\n      tag_456\n        /* \"@openzeppelin/contracts/utils/Address.sol\":4047:4053  target */\n      dup5\n        /* \"@openzeppelin/contracts/utils/Address.sol\":4055:4059  data */\n      dup5\n        /* \"@openzeppelin/contracts/utils/Address.sol\":4061:4062  0 */\n      0x00\n        /* \"@openzeppelin/contracts/utils/Address.sol\":4064:4076  errorMessage */\n      dup6\n        /* \"@openzeppelin/contracts/utils/Address.sol\":4025:4046  functionCallWithValue */\n      tag_457\n        /* \"@openzeppelin/contracts/utils/Address.sol\":4025:4077  functionCallWithValue(target, data, 0, errorMessage) */\n      jump\t// in\n    tag_456:\n        /* \"@openzeppelin/contracts/utils/Address.sol\":4018:4077  return functionCallWithValue(target, data, 0, errorMessage) */\n      swap5\n        /* \"@openzeppelin/contracts/utils/Address.sol\":3861:4084  function functionCall(... */\n      swap4\n      pop\n      pop\n      pop\n      pop\n      jump\t// out\n        /* \"@openzeppelin/contracts/utils/Address.sol\":4948:5447  function functionCallWithValue(... */\n    tag_457:\n        /* \"@openzeppelin/contracts/utils/Address.sol\":5113:5125  bytes memory */\n      0x60\n        /* \"@openzeppelin/contracts/utils/Address.sol\":5170:5175  value */\n      dup3\n        /* \"@openzeppelin/contracts/utils/Address.sol\":5145:5166  address(this).balance */\n      selfbalance\n        /* \"@openzeppelin/contracts/utils/Address.sol\":5145:5175  address(this).balance >= value */\n      lt\n      iszero\n        /* \"@openzeppelin/contracts/utils/Address.sol\":5137:5218  require(address(this).balance >= value, \"Address: insufficient balance for call\") */\n      tag_459\n      jumpi\n      mload(0x40)\n      shl(0xe5, 0x461bcd)\n      dup2\n      mstore\n        /* \"#utility.yul\":8784:8786   */\n      0x20\n        /* \"@openzeppelin/contracts/utils/Address.sol\":5137:5218  require(address(this).balance >= value, \"Address: insufficient balance for call\") */\n      0x04\n      dup3\n      add\n        /* \"#utility.yul\":8766:8787   */\n      mstore\n        /* \"#utility.yul\":8823:8825   */\n      0x26\n        /* \"#utility.yul\":8803:8821   */\n      0x24\n      dup3\n      add\n        /* \"#utility.yul\":8796:8826   */\n      mstore\n        /* \"#utility.yul\":8862:8896   */\n      0x416464726573733a20696e73756666696369656e742062616c616e636520666f\n        /* \"#utility.yul\":8842:8860   */\n      0x44\n      dup3\n      add\n        /* \"#utility.yul\":8835:8897   */\n      mstore\n      shl(0xd2, 0x1c8818d85b1b)\n        /* \"#utility.yul\":8913:8931   */\n      0x64\n      dup3\n      add\n        /* \"#utility.yul\":8906:8942   */\n      mstore\n        /* \"#utility.yul\":8959:8978   */\n      0x84\n      add\n        /* \"@openzeppelin/contracts/utils/Address.sol\":5137:5218  require(address(this).balance >= value, \"Address: insufficient balance for call\") */\n      tag_122\n        /* \"#utility.yul\":8756:8984   */\n      jump\n        /* \"@openzeppelin/contracts/utils/Address.sol\":5137:5218  require(address(this).balance >= value, \"Address: insufficient balance for call\") */\n    tag_459:\n      sub(shl(0xa0, 0x01), 0x01)\n        /* \"@openzeppelin/contracts/utils/Address.sol\":1465:1484  account.code.length */\n      dup6\n      and\n      extcodesize\n        /* \"@openzeppelin/contracts/utils/Address.sol\":5228:5288  require(isContract(target), \"Address: call to non-contract\") */\n      tag_464\n      jumpi\n      mload(0x40)\n      shl(0xe5, 0x461bcd)\n      dup2\n      mstore\n        /* \"#utility.yul\":10775:10777   */\n      0x20\n        /* \"@openzeppelin/contracts/utils/Address.sol\":5228:5288  require(isContract(target), \"Address: call to non-contract\") */\n      0x04\n      dup3\n      add\n        /* \"#utility.yul\":10757:10778   */\n      mstore\n        /* \"#utility.yul\":10814:10816   */\n      0x1d\n        /* \"#utility.yul\":10794:10812   */\n      0x24\n      dup3\n      add\n        /* \"#utility.yul\":10787:10817   */\n      mstore\n        /* \"#utility.yul\":10853:10884   */\n      0x416464726573733a2063616c6c20746f206e6f6e2d636f6e7472616374000000\n        /* \"#utility.yul\":10833:10851   */\n      0x44\n      dup3\n      add\n        /* \"#utility.yul\":10826:10885   */\n      mstore\n        /* \"#utility.yul\":10902:10920   */\n      0x64\n      add\n        /* \"@openzeppelin/contracts/utils/Address.sol\":5228:5288  require(isContract(target), \"Address: call to non-contract\") */\n      tag_122\n        /* \"#utility.yul\":10747:10926   */\n      jump\n        /* \"@openzeppelin/contracts/utils/Address.sol\":5228:5288  require(isContract(target), \"Address: call to non-contract\") */\n    tag_464:\n        /* \"@openzeppelin/contracts/utils/Address.sol\":5300:5312  bool success */\n      0x00\n        /* \"@openzeppelin/contracts/utils/Address.sol\":5314:5337  bytes memory returndata */\n      dup1\n        /* \"@openzeppelin/contracts/utils/Address.sol\":5341:5347  target */\n      dup7\n      sub(shl(0xa0, 0x01), 0x01)\n        /* \"@openzeppelin/contracts/utils/Address.sol\":5341:5352  target.call */\n      and\n        /* \"@openzeppelin/contracts/utils/Address.sol\":5360:5365  value */\n      dup6\n        /* \"@openzeppelin/contracts/utils/Address.sol\":5367:5371  data */\n      dup8\n        /* \"@openzeppelin/contracts/utils/Address.sol\":5341:5372  target.call{value: value}(data) */\n      mload(0x40)\n      tag_467\n      swap2\n      swap1\n      tag_468\n      jump\t// in\n    tag_467:\n      0x00\n      mload(0x40)\n      dup1\n      dup4\n      sub\n      dup2\n      dup6\n      dup8\n      gas\n      call\n      swap3\n      pop\n      pop\n      pop\n      returndatasize\n      dup1\n      0x00\n      dup2\n      eq\n      tag_471\n      jumpi\n      mload(0x40)\n      swap2\n      pop\n      and(add(returndatasize, 0x3f), not(0x1f))\n      dup3\n      add\n      0x40\n      mstore\n      returndatasize\n      dup3\n      mstore\n      returndatasize\n      0x00\n      0x20\n      dup5\n      add\n      returndatacopy\n      jump(tag_470)\n    tag_471:\n      0x60\n      swap2\n      pop\n    tag_470:\n      pop\n        /* \"@openzeppelin/contracts/utils/Address.sol\":5299:5372  (bool success, bytes memory returndata) = target.call{value: value}(data) */\n      swap2\n      pop\n      swap2\n      pop\n        /* \"@openzeppelin/contracts/utils/Address.sol\":5389:5440  verifyCallResult(success, returndata, errorMessage) */\n      tag_472\n        /* \"@openzeppelin/contracts/utils/Address.sol\":5406:5413  success */\n      dup3\n        /* \"@openzeppelin/contracts/utils/Address.sol\":5415:5425  returndata */\n      dup3\n        /* \"@openzeppelin/contracts/utils/Address.sol\":5427:5439  errorMessage */\n      dup7\n        /* \"@openzeppelin/contracts/utils/Address.sol\":5389:5405  verifyCallResult */\n      tag_473\n        /* \"@openzeppelin/contracts/utils/Address.sol\":5389:5440  verifyCallResult(success, returndata, errorMessage) */\n      jump\t// in\n    tag_472:\n        /* \"@openzeppelin/contracts/utils/Address.sol\":5382:5440  return verifyCallResult(success, returndata, errorMessage) */\n      swap8\n        /* \"@openzeppelin/contracts/utils/Address.sol\":4948:5447  function functionCallWithValue(... */\n      swap7\n      pop\n      pop\n      pop\n      pop\n      pop\n      pop\n      pop\n      jump\t// out\n        /* \"@openzeppelin/contracts/utils/Address.sol\":7561:8303  function verifyCallResult(... */\n    tag_473:\n        /* \"@openzeppelin/contracts/utils/Address.sol\":7707:7719  bytes memory */\n      0x60\n        /* \"@openzeppelin/contracts/utils/Address.sol\":7735:7742  success */\n      dup4\n        /* \"@openzeppelin/contracts/utils/Address.sol\":7731:8297  if (success) {... */\n      iszero\n      tag_476\n      jumpi\n      pop\n        /* \"@openzeppelin/contracts/utils/Address.sol\":7765:7775  returndata */\n      dup2\n        /* \"@openzeppelin/contracts/utils/Address.sol\":7758:7775  return returndata */\n      jump(tag_234)\n        /* \"@openzeppelin/contracts/utils/Address.sol\":7731:8297  if (success) {... */\n    tag_476:\n        /* \"@openzeppelin/contracts/utils/Address.sol\":7876:7893  returndata.length */\n      dup3\n      mload\n        /* \"@openzeppelin/contracts/utils/Address.sol\":7876:7897  returndata.length > 0 */\n      iszero\n        /* \"@openzeppelin/contracts/utils/Address.sol\":7872:8287  if (returndata.length > 0) {... */\n      tag_478\n      jumpi\n        /* \"@openzeppelin/contracts/utils/Address.sol\":8120:8130  returndata */\n      dup3\n        /* \"@openzeppelin/contracts/utils/Address.sol\":8114:8131  mload(returndata) */\n      mload\n        /* \"@openzeppelin/contracts/utils/Address.sol\":8180:8195  returndata_size */\n      dup1\n        /* \"@openzeppelin/contracts/utils/Address.sol\":8167:8177  returndata */\n      dup5\n        /* \"@openzeppelin/contracts/utils/Address.sol\":8163:8165  32 */\n      0x20\n        /* \"@openzeppelin/contracts/utils/Address.sol\":8159:8178  add(32, returndata) */\n      add\n        /* \"@openzeppelin/contracts/utils/Address.sol\":8152:8196  revert(add(32, returndata), returndata_size) */\n      revert\n        /* \"@openzeppelin/contracts/utils/Address.sol\":8069:8214  {... */\n    tag_478:\n        /* \"@openzeppelin/contracts/utils/Address.sol\":8259:8271  errorMessage */\n      dup2\n        /* \"@openzeppelin/contracts/utils/Address.sol\":8252:8272  revert(errorMessage) */\n      mload(0x40)\n      shl(0xe5, 0x461bcd)\n      dup2\n      mstore\n      0x04\n      add\n      tag_122\n      swap2\n      swap1\n      tag_36\n      jump\t// in\n    tag_236:\n      dup3\n      dup1\n      sload\n      tag_481\n      swap1\n      tag_138\n      jump\t// in\n    tag_481:\n      swap1\n      0x00\n      mstore\n      keccak256(0x00, 0x20)\n      swap1\n      0x1f\n      add\n      0x20\n      swap1\n      div\n      dup2\n      add\n      swap3\n      dup3\n      tag_483\n      jumpi\n      0x00\n      dup6\n      sstore\n      jump(tag_486)\n    tag_483:\n      dup3\n      0x1f\n      lt\n      tag_484\n      jumpi\n      dup1\n      mload\n      not(0xff)\n      and\n      dup4\n      dup1\n      add\n      or\n      dup6\n      sstore\n      jump(tag_486)\n    tag_484:\n      dup3\n      dup1\n      add\n      0x01\n      add\n      dup6\n      sstore\n      dup3\n      iszero\n      tag_486\n      jumpi\n      swap2\n      dup3\n      add\n    tag_485:\n      dup3\n      dup2\n      gt\n      iszero\n      tag_486\n      jumpi\n      dup3\n      mload\n      dup3\n      sstore\n      swap2\n      0x20\n      add\n      swap2\n      swap1\n      0x01\n      add\n      swap1\n      jump(tag_485)\n    tag_486:\n      pop\n      tag_487\n      swap3\n      swap2\n      pop\n      tag_488\n      jump\t// in\n    tag_487:\n      pop\n      swap1\n      jump\t// out\n    tag_357:\n      dataSize(sub_0)\n      dup1\n      dataOffset(sub_0)\n      dup4\n      codecopy\n      add\n      swap1\n      jump\t// out\n    tag_488:\n    tag_489:\n      dup1\n      dup3\n      gt\n      iszero\n      tag_487\n      jumpi\n      0x00\n      dup2\n      sstore\n      0x01\n      add\n      jump(tag_489)\n        /* \"#utility.yul\":14:498   */\n    tag_492:\n        /* \"#utility.yul\":57:62   */\n      0x00\n        /* \"#utility.yul\":110:113   */\n      dup3\n        /* \"#utility.yul\":103:107   */\n      0x1f\n        /* \"#utility.yul\":95:101   */\n      dup4\n        /* \"#utility.yul\":91:108   */\n      add\n        /* \"#utility.yul\":87:114   */\n      slt\n        /* \"#utility.yul\":77:79   */\n      tag_494\n      jumpi\n        /* \"#utility.yul\":132:137   */\n      dup1\n        /* \"#utility.yul\":125:130   */\n      dup2\n        /* \"#utility.yul\":118:138   */\n      revert\n        /* \"#utility.yul\":77:79   */\n    tag_494:\n        /* \"#utility.yul\":172:178   */\n      dup2\n        /* \"#utility.yul\":159:179   */\n      calldataload\n        /* \"#utility.yul\":203:252   */\n      tag_495\n        /* \"#utility.yul\":219:251   */\n      tag_496\n        /* \"#utility.yul\":248:250   */\n      dup3\n        /* \"#utility.yul\":219:251   */\n      tag_497\n      jump\t// in\n    tag_496:\n        /* \"#utility.yul\":203:252   */\n      tag_498\n      jump\t// in\n    tag_495:\n        /* \"#utility.yul\":277:279   */\n      dup2\n        /* \"#utility.yul\":268:275   */\n      dup2\n        /* \"#utility.yul\":261:280   */\n      mstore\n        /* \"#utility.yul\":323:326   */\n      dup5\n        /* \"#utility.yul\":316:320   */\n      0x20\n        /* \"#utility.yul\":311:313   */\n      dup4\n        /* \"#utility.yul\":303:309   */\n      dup7\n        /* \"#utility.yul\":299:314   */\n      add\n        /* \"#utility.yul\":295:321   */\n      add\n        /* \"#utility.yul\":292:327   */\n      gt\n        /* \"#utility.yul\":289:291   */\n      iszero\n      tag_499\n      jumpi\n        /* \"#utility.yul\":344:349   */\n      dup3\n        /* \"#utility.yul\":337:342   */\n      dup4\n        /* \"#utility.yul\":330:350   */\n      revert\n        /* \"#utility.yul\":289:291   */\n    tag_499:\n        /* \"#utility.yul\":413:415   */\n      dup2\n        /* \"#utility.yul\":406:410   */\n      0x20\n        /* \"#utility.yul\":398:404   */\n      dup6\n        /* \"#utility.yul\":394:411   */\n      add\n        /* \"#utility.yul\":387:391   */\n      0x20\n        /* \"#utility.yul\":378:385   */\n      dup4\n        /* \"#utility.yul\":374:392   */\n      add\n        /* \"#utility.yul\":361:416   */\n      calldatacopy\n        /* \"#utility.yul\":436:452   */\n      swap1\n      dup2\n      add\n        /* \"#utility.yul\":454:458   */\n      0x20\n        /* \"#utility.yul\":432:459   */\n      add\n        /* \"#utility.yul\":425:467   */\n      swap2\n      swap1\n      swap2\n      mstore\n        /* \"#utility.yul\":440:447   */\n      swap3\n        /* \"#utility.yul\":67:498   */\n      swap2\n      pop\n      pop\n      jump\t// out\n        /* \"#utility.yul\":503:760   */\n    tag_29:\n        /* \"#utility.yul\":562:568   */\n      0x00\n        /* \"#utility.yul\":615:617   */\n      0x20\n        /* \"#utility.yul\":603:612   */\n      dup3\n        /* \"#utility.yul\":594:601   */\n      dup5\n        /* \"#utility.yul\":590:613   */\n      sub\n        /* \"#utility.yul\":586:618   */\n      slt\n        /* \"#utility.yul\":583:585   */\n      iszero\n      tag_501\n      jumpi\n        /* \"#utility.yul\":636:642   */\n      dup1\n        /* \"#utility.yul\":628:634   */\n      dup2\n        /* \"#utility.yul\":621:643   */\n      revert\n        /* \"#utility.yul\":583:585   */\n    tag_501:\n        /* \"#utility.yul\":680:689   */\n      dup2\n        /* \"#utility.yul\":667:690   */\n      calldataload\n        /* \"#utility.yul\":699:730   */\n      tag_234\n        /* \"#utility.yul\":724:729   */\n      dup2\n        /* \"#utility.yul\":699:730   */\n      tag_503\n      jump\t// in\n        /* \"#utility.yul\":765:1026   */\n    tag_129:\n        /* \"#utility.yul\":835:841   */\n      0x00\n        /* \"#utility.yul\":888:890   */\n      0x20\n        /* \"#utility.yul\":876:885   */\n      dup3\n        /* \"#utility.yul\":867:874   */\n      dup5\n        /* \"#utility.yul\":863:886   */\n      sub\n        /* \"#utility.yul\":859:891   */\n      slt\n        /* \"#utility.yul\":856:858   */\n      iszero\n      tag_505\n      jumpi\n        /* \"#utility.yul\":909:915   */\n      dup1\n        /* \"#utility.yul\":901:907   */\n      dup2\n        /* \"#utility.yul\":894:916   */\n      revert\n        /* \"#utility.yul\":856:858   */\n    tag_505:\n        /* \"#utility.yul\":946:955   */\n      dup2\n        /* \"#utility.yul\":940:956   */\n      mload\n        /* \"#utility.yul\":965:996   */\n      tag_234\n        /* \"#utility.yul\":990:995   */\n      dup2\n        /* \"#utility.yul\":965:996   */\n      tag_503\n      jump\t// in\n        /* \"#utility.yul\":1031:1894   */\n    tag_78:\n        /* \"#utility.yul\":1134:1140   */\n      0x00\n        /* \"#utility.yul\":1142:1148   */\n      dup1\n        /* \"#utility.yul\":1150:1156   */\n      0x00\n        /* \"#utility.yul\":1158:1164   */\n      dup1\n        /* \"#utility.yul\":1166:1172   */\n      0x00\n        /* \"#utility.yul\":1219:1222   */\n      0xa0\n        /* \"#utility.yul\":1207:1216   */\n      dup7\n        /* \"#utility.yul\":1198:1205   */\n      dup9\n        /* \"#utility.yul\":1194:1217   */\n      sub\n        /* \"#utility.yul\":1190:1223   */\n      slt\n        /* \"#utility.yul\":1187:1189   */\n      iszero\n      tag_508\n      jumpi\n        /* \"#utility.yul\":1241:1247   */\n      dup1\n        /* \"#utility.yul\":1233:1239   */\n      dup2\n        /* \"#utility.yul\":1226:1248   */\n      revert\n        /* \"#utility.yul\":1187:1189   */\n    tag_508:\n        /* \"#utility.yul\":1285:1294   */\n      dup6\n        /* \"#utility.yul\":1272:1295   */\n      calldataload\n        /* \"#utility.yul\":1304:1335   */\n      tag_509\n        /* \"#utility.yul\":1329:1334   */\n      dup2\n        /* \"#utility.yul\":1304:1335   */\n      tag_503\n      jump\t// in\n    tag_509:\n        /* \"#utility.yul\":1354:1359   */\n      swap5\n      pop\n        /* \"#utility.yul\":1411:1413   */\n      0x20\n        /* \"#utility.yul\":1396:1414   */\n      dup7\n      add\n        /* \"#utility.yul\":1383:1415   */\n      calldataload\n        /* \"#utility.yul\":1424:1457   */\n      tag_510\n        /* \"#utility.yul\":1383:1415   */\n      dup2\n        /* \"#utility.yul\":1424:1457   */\n      tag_503\n      jump\t// in\n    tag_510:\n        /* \"#utility.yul\":1476:1483   */\n      swap4\n      pop\n        /* \"#utility.yul\":1530:1532   */\n      0x40\n        /* \"#utility.yul\":1515:1533   */\n      dup7\n      add\n        /* \"#utility.yul\":1502:1534   */\n      calldataload\n      swap3\n      pop\n        /* \"#utility.yul\":1586:1588   */\n      0x60\n        /* \"#utility.yul\":1571:1589   */\n      dup7\n      add\n        /* \"#utility.yul\":1558:1590   */\n      calldataload\n        /* \"#utility.yul\":1634:1638   */\n      0xff\n        /* \"#utility.yul\":1621:1639   */\n      dup2\n      and\n        /* \"#utility.yul\":1609:1640   */\n      dup2\n      eq\n        /* \"#utility.yul\":1599:1601   */\n      tag_511\n      jumpi\n        /* \"#utility.yul\":1659:1665   */\n      dup2\n        /* \"#utility.yul\":1651:1657   */\n      dup3\n        /* \"#utility.yul\":1644:1666   */\n      revert\n        /* \"#utility.yul\":1599:1601   */\n    tag_511:\n        /* \"#utility.yul\":1687:1694   */\n      swap2\n      pop\n        /* \"#utility.yul\":1745:1748   */\n      0x80\n        /* \"#utility.yul\":1730:1749   */\n      dup7\n      add\n        /* \"#utility.yul\":1717:1750   */\n      calldataload\n        /* \"#utility.yul\":1773:1791   */\n      0xffffffffffffffff\n        /* \"#utility.yul\":1762:1792   */\n      dup2\n      gt\n        /* \"#utility.yul\":1759:1761   */\n      iszero\n      tag_512\n      jumpi\n        /* \"#utility.yul\":1810:1816   */\n      dup2\n        /* \"#utility.yul\":1802:1808   */\n      dup3\n        /* \"#utility.yul\":1795:1817   */\n      revert\n        /* \"#utility.yul\":1759:1761   */\n    tag_512:\n        /* \"#utility.yul\":1838:1888   */\n      tag_513\n        /* \"#utility.yul\":1880:1887   */\n      dup9\n        /* \"#utility.yul\":1871:1877   */\n      dup3\n        /* \"#utility.yul\":1860:1869   */\n      dup10\n        /* \"#utility.yul\":1856:1878   */\n      add\n        /* \"#utility.yul\":1838:1888   */\n      tag_492\n      jump\t// in\n    tag_513:\n        /* \"#utility.yul\":1828:1888   */\n      swap2\n      pop\n      pop\n        /* \"#utility.yul\":1177:1894   */\n      swap3\n      swap6\n      pop\n      swap3\n      swap6\n      swap1\n      swap4\n      pop\n      jump\t// out\n        /* \"#utility.yul\":1899:2196   */\n    tag_136:\n        /* \"#utility.yul\":1966:1972   */\n      0x00\n        /* \"#utility.yul\":2019:2021   */\n      0x20\n        /* \"#utility.yul\":2007:2016   */\n      dup3\n        /* \"#utility.yul\":1998:2005   */\n      dup5\n        /* \"#utility.yul\":1994:2017   */\n      sub\n        /* \"#utility.yul\":1990:2022   */\n      slt\n        /* \"#utility.yul\":1987:1989   */\n      iszero\n      tag_515\n      jumpi\n        /* \"#utility.yul\":2040:2046   */\n      dup1\n        /* \"#utility.yul\":2032:2038   */\n      dup2\n        /* \"#utility.yul\":2025:2047   */\n      revert\n        /* \"#utility.yul\":1987:1989   */\n    tag_515:\n        /* \"#utility.yul\":2077:2086   */\n      dup2\n        /* \"#utility.yul\":2071:2087   */\n      mload\n        /* \"#utility.yul\":2130:2135   */\n      dup1\n        /* \"#utility.yul\":2123:2136   */\n      iszero\n        /* \"#utility.yul\":2116:2137   */\n      iszero\n        /* \"#utility.yul\":2109:2114   */\n      dup2\n        /* \"#utility.yul\":2106:2138   */\n      eq\n        /* \"#utility.yul\":2096:2098   */\n      tag_234\n      jumpi\n        /* \"#utility.yul\":2157:2163   */\n      dup2\n        /* \"#utility.yul\":2149:2155   */\n      dup3\n        /* \"#utility.yul\":2142:2164   */\n      revert\n        /* \"#utility.yul\":2201:2543   */\n    tag_86:\n        /* \"#utility.yul\":2270:2276   */\n      0x00\n        /* \"#utility.yul\":2323:2325   */\n      0x20\n        /* \"#utility.yul\":2311:2320   */\n      dup3\n        /* \"#utility.yul\":2302:2309   */\n      dup5\n        /* \"#utility.yul\":2298:2321   */\n      sub\n        /* \"#utility.yul\":2294:2326   */\n      slt\n        /* \"#utility.yul\":2291:2293   */\n      iszero\n      tag_518\n      jumpi\n        /* \"#utility.yul\":2344:2350   */\n      dup1\n        /* \"#utility.yul\":2336:2342   */\n      dup2\n        /* \"#utility.yul\":2329:2351   */\n      revert\n        /* \"#utility.yul\":2291:2293   */\n    tag_518:\n        /* \"#utility.yul\":2389:2398   */\n      dup2\n        /* \"#utility.yul\":2376:2399   */\n      calldataload\n        /* \"#utility.yul\":2422:2440   */\n      0xffffffffffffffff\n        /* \"#utility.yul\":2414:2420   */\n      dup2\n        /* \"#utility.yul\":2411:2441   */\n      gt\n        /* \"#utility.yul\":2408:2410   */\n      iszero\n      tag_519\n      jumpi\n        /* \"#utility.yul\":2459:2465   */\n      dup2\n        /* \"#utility.yul\":2451:2457   */\n      dup3\n        /* \"#utility.yul\":2444:2466   */\n      revert\n        /* \"#utility.yul\":2408:2410   */\n    tag_519:\n        /* \"#utility.yul\":2487:2537   */\n      tag_456\n        /* \"#utility.yul\":2529:2536   */\n      dup5\n        /* \"#utility.yul\":2520:2526   */\n      dup3\n        /* \"#utility.yul\":2509:2518   */\n      dup6\n        /* \"#utility.yul\":2505:2527   */\n      add\n        /* \"#utility.yul\":2487:2537   */\n      tag_492\n      jump\t// in\n        /* \"#utility.yul\":2548:3224   */\n    tag_183:\n        /* \"#utility.yul\":2628:2634   */\n      0x00\n        /* \"#utility.yul\":2681:2683   */\n      0x20\n        /* \"#utility.yul\":2669:2678   */\n      dup3\n        /* \"#utility.yul\":2660:2667   */\n      dup5\n        /* \"#utility.yul\":2656:2679   */\n      sub\n        /* \"#utility.yul\":2652:2684   */\n      slt\n        /* \"#utility.yul\":2649:2651   */\n      iszero\n      tag_522\n      jumpi\n        /* \"#utility.yul\":2702:2708   */\n      dup1\n        /* \"#utility.yul\":2694:2700   */\n      dup2\n        /* \"#utility.yul\":2687:2709   */\n      revert\n        /* \"#utility.yul\":2649:2651   */\n    tag_522:\n        /* \"#utility.yul\":2740:2749   */\n      dup2\n        /* \"#utility.yul\":2734:2750   */\n      mload\n        /* \"#utility.yul\":2773:2791   */\n      0xffffffffffffffff\n        /* \"#utility.yul\":2765:2771   */\n      dup2\n        /* \"#utility.yul\":2762:2792   */\n      gt\n        /* \"#utility.yul\":2759:2761   */\n      iszero\n      tag_523\n      jumpi\n        /* \"#utility.yul\":2810:2816   */\n      dup2\n        /* \"#utility.yul\":2802:2808   */\n      dup3\n        /* \"#utility.yul\":2795:2817   */\n      revert\n        /* \"#utility.yul\":2759:2761   */\n    tag_523:\n        /* \"#utility.yul\":2838:2860   */\n      dup3\n      add\n        /* \"#utility.yul\":2891:2895   */\n      0x1f\n        /* \"#utility.yul\":2883:2896   */\n      dup2\n      add\n        /* \"#utility.yul\":2879:2906   */\n      dup5\n      sgt\n        /* \"#utility.yul\":2869:2871   */\n      tag_524\n      jumpi\n        /* \"#utility.yul\":2925:2931   */\n      dup2\n        /* \"#utility.yul\":2917:2923   */\n      dup3\n        /* \"#utility.yul\":2910:2932   */\n      revert\n        /* \"#utility.yul\":2869:2871   */\n    tag_524:\n        /* \"#utility.yul\":2959:2961   */\n      dup1\n        /* \"#utility.yul\":2953:2962   */\n      mload\n        /* \"#utility.yul\":2984:3033   */\n      tag_525\n        /* \"#utility.yul\":3000:3032   */\n      tag_496\n        /* \"#utility.yul\":3029:3031   */\n      dup3\n        /* \"#utility.yul\":3000:3032   */\n      tag_497\n      jump\t// in\n        /* \"#utility.yul\":2984:3033   */\n    tag_525:\n        /* \"#utility.yul\":3056:3058   */\n      dup2\n        /* \"#utility.yul\":3049:3054   */\n      dup2\n        /* \"#utility.yul\":3042:3059   */\n      mstore\n        /* \"#utility.yul\":3096:3103   */\n      dup6\n        /* \"#utility.yul\":3091:3093   */\n      0x20\n        /* \"#utility.yul\":3086:3088   */\n      dup4\n        /* \"#utility.yul\":3082:3084   */\n      dup6\n        /* \"#utility.yul\":3078:3089   */\n      add\n        /* \"#utility.yul\":3074:3094   */\n      add\n        /* \"#utility.yul\":3071:3104   */\n      gt\n        /* \"#utility.yul\":3068:3070   */\n      iszero\n      tag_527\n      jumpi\n        /* \"#utility.yul\":3122:3128   */\n      dup4\n        /* \"#utility.yul\":3114:3120   */\n      dup5\n        /* \"#utility.yul\":3107:3129   */\n      revert\n        /* \"#utility.yul\":3068:3070   */\n    tag_527:\n        /* \"#utility.yul\":3140:3194   */\n      tag_528\n        /* \"#utility.yul\":3191:3193   */\n      dup3\n        /* \"#utility.yul\":3186:3188   */\n      0x20\n        /* \"#utility.yul\":3179:3184   */\n      dup4\n        /* \"#utility.yul\":3175:3189   */\n      add\n        /* \"#utility.yul\":3170:3172   */\n      0x20\n        /* \"#utility.yul\":3166:3168   */\n      dup7\n        /* \"#utility.yul\":3162:3173   */\n      add\n        /* \"#utility.yul\":3140:3194   */\n      tag_529\n      jump\t// in\n    tag_528:\n        /* \"#utility.yul\":3213:3218   */\n      swap6\n        /* \"#utility.yul\":2639:3224   */\n      swap5\n      pop\n      pop\n      pop\n      pop\n      pop\n      jump\t// out\n        /* \"#utility.yul\":3229:4012   */\n    tag_64:\n        /* \"#utility.yul\":3336:3342   */\n      0x00\n        /* \"#utility.yul\":3344:3350   */\n      dup1\n        /* \"#utility.yul\":3352:3358   */\n      0x00\n        /* \"#utility.yul\":3405:3407   */\n      0x60\n        /* \"#utility.yul\":3393:3402   */\n      dup5\n        /* \"#utility.yul\":3384:3391   */\n      dup7\n        /* \"#utility.yul\":3380:3403   */\n      sub\n        /* \"#utility.yul\":3376:3408   */\n      slt\n        /* \"#utility.yul\":3373:3375   */\n      iszero\n      tag_531\n      jumpi\n        /* \"#utility.yul\":3426:3432   */\n      dup3\n        /* \"#utility.yul\":3418:3424   */\n      dup4\n        /* \"#utility.yul\":3411:3433   */\n      revert\n        /* \"#utility.yul\":3373:3375   */\n    tag_531:\n        /* \"#utility.yul\":3471:3480   */\n      dup4\n        /* \"#utility.yul\":3458:3481   */\n      calldataload\n        /* \"#utility.yul\":3500:3518   */\n      0xffffffffffffffff\n        /* \"#utility.yul\":3541:3543   */\n      dup1\n        /* \"#utility.yul\":3533:3539   */\n      dup3\n        /* \"#utility.yul\":3530:3544   */\n      gt\n        /* \"#utility.yul\":3527:3529   */\n      iszero\n      tag_532\n      jumpi\n        /* \"#utility.yul\":3562:3568   */\n      dup5\n        /* \"#utility.yul\":3554:3560   */\n      dup6\n        /* \"#utility.yul\":3547:3569   */\n      revert\n        /* \"#utility.yul\":3527:3529   */\n    tag_532:\n        /* \"#utility.yul\":3590:3640   */\n      tag_533\n        /* \"#utility.yul\":3632:3639   */\n      dup8\n        /* \"#utility.yul\":3623:3629   */\n      dup4\n        /* \"#utility.yul\":3612:3621   */\n      dup9\n        /* \"#utility.yul\":3608:3630   */\n      add\n        /* \"#utility.yul\":3590:3640   */\n      tag_492\n      jump\t// in\n    tag_533:\n        /* \"#utility.yul\":3580:3640   */\n      swap5\n      pop\n        /* \"#utility.yul\":3693:3695   */\n      0x20\n        /* \"#utility.yul\":3682:3691   */\n      dup7\n        /* \"#utility.yul\":3678:3696   */\n      add\n        /* \"#utility.yul\":3665:3697   */\n      calldataload\n        /* \"#utility.yul\":3649:3697   */\n      swap2\n      pop\n        /* \"#utility.yul\":3722:3724   */\n      dup1\n        /* \"#utility.yul\":3712:3720   */\n      dup3\n        /* \"#utility.yul\":3709:3725   */\n      gt\n        /* \"#utility.yul\":3706:3708   */\n      iszero\n      tag_534\n      jumpi\n        /* \"#utility.yul\":3743:3749   */\n      dup4\n        /* \"#utility.yul\":3735:3741   */\n      dup5\n        /* \"#utility.yul\":3728:3750   */\n      revert\n        /* \"#utility.yul\":3706:3708   */\n    tag_534:\n        /* \"#utility.yul\":3771:3823   */\n      tag_535\n        /* \"#utility.yul\":3815:3822   */\n      dup8\n        /* \"#utility.yul\":3804:3812   */\n      dup4\n        /* \"#utility.yul\":3793:3802   */\n      dup9\n        /* \"#utility.yul\":3789:3813   */\n      add\n        /* \"#utility.yul\":3771:3823   */\n      tag_492\n      jump\t// in\n    tag_535:\n        /* \"#utility.yul\":3761:3823   */\n      swap4\n      pop\n        /* \"#utility.yul\":3876:3878   */\n      0x40\n        /* \"#utility.yul\":3865:3874   */\n      dup7\n        /* \"#utility.yul\":3861:3879   */\n      add\n        /* \"#utility.yul\":3848:3880   */\n      calldataload\n        /* \"#utility.yul\":3832:3880   */\n      swap2\n      pop\n        /* \"#utility.yul\":3905:3907   */\n      dup1\n        /* \"#utility.yul\":3895:3903   */\n      dup3\n        /* \"#utility.yul\":3892:3908   */\n      gt\n        /* \"#utility.yul\":3889:3891   */\n      iszero\n      tag_536\n      jumpi\n        /* \"#utility.yul\":3926:3932   */\n      dup3\n        /* \"#utility.yul\":3918:3924   */\n      dup4\n        /* \"#utility.yul\":3911:3933   */\n      revert\n        /* \"#utility.yul\":3889:3891   */\n    tag_536:\n      pop\n        /* \"#utility.yul\":3954:4006   */\n      tag_537\n        /* \"#utility.yul\":3998:4005   */\n      dup7\n        /* \"#utility.yul\":3987:3995   */\n      dup3\n        /* \"#utility.yul\":3976:3985   */\n      dup8\n        /* \"#utility.yul\":3972:3996   */\n      add\n        /* \"#utility.yul\":3954:4006   */\n      tag_492\n      jump\t// in\n    tag_537:\n        /* \"#utility.yul\":3944:4006   */\n      swap2\n      pop\n      pop\n        /* \"#utility.yul\":3363:4012   */\n      swap3\n      pop\n      swap3\n      pop\n      swap3\n      jump\t// out\n        /* \"#utility.yul\":4017:4207   */\n    tag_72:\n        /* \"#utility.yul\":4076:4082   */\n      0x00\n        /* \"#utility.yul\":4129:4131   */\n      0x20\n        /* \"#utility.yul\":4117:4126   */\n      dup3\n        /* \"#utility.yul\":4108:4115   */\n      dup5\n        /* \"#utility.yul\":4104:4127   */\n      sub\n        /* \"#utility.yul\":4100:4132   */\n      slt\n        /* \"#utility.yul\":4097:4099   */\n      iszero\n      tag_539\n      jumpi\n        /* \"#utility.yul\":4150:4156   */\n      dup1\n        /* \"#utility.yul\":4142:4148   */\n      dup2\n        /* \"#utility.yul\":4135:4157   */\n      revert\n        /* \"#utility.yul\":4097:4099   */\n    tag_539:\n      pop\n        /* \"#utility.yul\":4178:4201   */\n      calldataload\n      swap2\n        /* \"#utility.yul\":4087:4207   */\n      swap1\n      pop\n      jump\t// out\n        /* \"#utility.yul\":4212:4406   */\n    tag_114:\n        /* \"#utility.yul\":4282:4288   */\n      0x00\n        /* \"#utility.yul\":4335:4337   */\n      0x20\n        /* \"#utility.yul\":4323:4332   */\n      dup3\n        /* \"#utility.yul\":4314:4321   */\n      dup5\n        /* \"#utility.yul\":4310:4333   */\n      sub\n        /* \"#utility.yul\":4306:4338   */\n      slt\n        /* \"#utility.yul\":4303:4305   */\n      iszero\n      tag_541\n      jumpi\n        /* \"#utility.yul\":4356:4362   */\n      dup1\n        /* \"#utility.yul\":4348:4354   */\n      dup2\n        /* \"#utility.yul\":4341:4363   */\n      revert\n        /* \"#utility.yul\":4303:4305   */\n    tag_541:\n      pop\n        /* \"#utility.yul\":4384:4400   */\n      mload\n      swap2\n        /* \"#utility.yul\":4293:4406   */\n      swap1\n      pop\n      jump\t// out\n        /* \"#utility.yul\":4411:4685   */\n    tag_468:\n        /* \"#utility.yul\":4540:4543   */\n      0x00\n        /* \"#utility.yul\":4578:4584   */\n      dup3\n        /* \"#utility.yul\":4572:4585   */\n      mload\n        /* \"#utility.yul\":4594:4647   */\n      tag_543\n        /* \"#utility.yul\":4640:4646   */\n      dup2\n        /* \"#utility.yul\":4635:4638   */\n      dup5\n        /* \"#utility.yul\":4628:4632   */\n      0x20\n        /* \"#utility.yul\":4620:4626   */\n      dup8\n        /* \"#utility.yul\":4616:4633   */\n      add\n        /* \"#utility.yul\":4594:4647   */\n      tag_529\n      jump\t// in\n    tag_543:\n        /* \"#utility.yul\":4663:4679   */\n      swap2\n      swap1\n      swap2\n      add\n      swap3\n        /* \"#utility.yul\":4548:4685   */\n      swap2\n      pop\n      pop\n      jump\t// out\n        /* \"#utility.yul\":7060:7443   */\n    tag_36:\n        /* \"#utility.yul\":7209:7211   */\n      0x20\n        /* \"#utility.yul\":7198:7207   */\n      dup2\n        /* \"#utility.yul\":7191:7212   */\n      mstore\n        /* \"#utility.yul\":7172:7176   */\n      0x00\n        /* \"#utility.yul\":7241:7247   */\n      dup3\n        /* \"#utility.yul\":7235:7248   */\n      mload\n        /* \"#utility.yul\":7284:7290   */\n      dup1\n        /* \"#utility.yul\":7279:7281   */\n      0x20\n        /* \"#utility.yul\":7268:7277   */\n      dup5\n        /* \"#utility.yul\":7264:7282   */\n      add\n        /* \"#utility.yul\":7257:7291   */\n      mstore\n        /* \"#utility.yul\":7300:7366   */\n      tag_554\n        /* \"#utility.yul\":7359:7365   */\n      dup2\n        /* \"#utility.yul\":7354:7356   */\n      0x40\n        /* \"#utility.yul\":7343:7352   */\n      dup6\n        /* \"#utility.yul\":7339:7357   */\n      add\n        /* \"#utility.yul\":7334:7336   */\n      0x20\n        /* \"#utility.yul\":7326:7332   */\n      dup8\n        /* \"#utility.yul\":7322:7337   */\n      add\n        /* \"#utility.yul\":7300:7366   */\n      tag_529\n      jump\t// in\n    tag_554:\n        /* \"#utility.yul\":7427:7429   */\n      0x1f\n        /* \"#utility.yul\":7406:7421   */\n      add\n      not(0x1f)\n        /* \"#utility.yul\":7402:7431   */\n      and\n        /* \"#utility.yul\":7387:7432   */\n      swap2\n      swap1\n      swap2\n      add\n        /* \"#utility.yul\":7434:7436   */\n      0x40\n        /* \"#utility.yul\":7383:7437   */\n      add\n      swap3\n        /* \"#utility.yul\":7181:7443   */\n      swap2\n      pop\n      pop\n      jump\t// out\n        /* \"#utility.yul\":8989:9387   */\n    tag_231:\n        /* \"#utility.yul\":9191:9193   */\n      0x20\n        /* \"#utility.yul\":9173:9194   */\n      dup1\n      dup3\n      mstore\n        /* \"#utility.yul\":9230:9232   */\n      0x22\n        /* \"#utility.yul\":9210:9228   */\n      swap1\n      dup3\n      add\n        /* \"#utility.yul\":9203:9233   */\n      mstore\n        /* \"#utility.yul\":9269:9303   */\n      0x4f6e6c79206576656e74206f776e657273207365742077696e6e696e6720706f\n        /* \"#utility.yul\":9264:9266   */\n      0x40\n        /* \"#utility.yul\":9249:9267   */\n      dup3\n      add\n        /* \"#utility.yul\":9242:9304   */\n      mstore\n      shl(0xf2, 0x1bdb)\n        /* \"#utility.yul\":9335:9337   */\n      0x60\n        /* \"#utility.yul\":9320:9338   */\n      dup3\n      add\n        /* \"#utility.yul\":9313:9345   */\n      mstore\n        /* \"#utility.yul\":9377:9380   */\n      0x80\n        /* \"#utility.yul\":9362:9381   */\n      add\n      swap1\n        /* \"#utility.yul\":9163:9387   */\n      jump\t// out\n        /* \"#utility.yul\":11928:12203   */\n    tag_498:\n        /* \"#utility.yul\":11999:12001   */\n      0x40\n        /* \"#utility.yul\":11993:12002   */\n      mload\n        /* \"#utility.yul\":12064:12066   */\n      0x1f\n        /* \"#utility.yul\":12045:12058   */\n      dup3\n      add\n      not(0x1f)\n        /* \"#utility.yul\":12041:12068   */\n      and\n        /* \"#utility.yul\":12029:12069   */\n      dup2\n      add\n        /* \"#utility.yul\":12099:12117   */\n      0xffffffffffffffff\n        /* \"#utility.yul\":12084:12118   */\n      dup2\n      gt\n        /* \"#utility.yul\":12120:12142   */\n      dup3\n      dup3\n      lt\n        /* \"#utility.yul\":12081:12143   */\n      or\n        /* \"#utility.yul\":12078:12080   */\n      iszero\n      tag_569\n      jumpi\n        /* \"#utility.yul\":12146:12164   */\n      tag_569\n      tag_570\n      jump\t// in\n    tag_569:\n        /* \"#utility.yul\":12182:12184   */\n      0x40\n        /* \"#utility.yul\":12175:12197   */\n      mstore\n        /* \"#utility.yul\":11973:12203   */\n      swap2\n      swap1\n      pop\n      jump\t// out\n        /* \"#utility.yul\":12208:12395   */\n    tag_497:\n        /* \"#utility.yul\":12257:12261   */\n      0x00\n        /* \"#utility.yul\":12290:12308   */\n      0xffffffffffffffff\n        /* \"#utility.yul\":12282:12288   */\n      dup3\n        /* \"#utility.yul\":12279:12309   */\n      gt\n        /* \"#utility.yul\":12276:12278   */\n      iszero\n      tag_573\n      jumpi\n        /* \"#utility.yul\":12312:12330   */\n      tag_573\n      tag_570\n      jump\t// in\n    tag_573:\n      pop\n        /* \"#utility.yul\":12378:12380   */\n      0x1f\n        /* \"#utility.yul\":12357:12372   */\n      add\n      not(0x1f)\n        /* \"#utility.yul\":12353:12382   */\n      and\n        /* \"#utility.yul\":12384:12388   */\n      0x20\n        /* \"#utility.yul\":12349:12389   */\n      add\n      swap1\n        /* \"#utility.yul\":12266:12395   */\n      jump\t// out\n        /* \"#utility.yul\":12400:12528   */\n    tag_198:\n        /* \"#utility.yul\":12440:12443   */\n      0x00\n        /* \"#utility.yul\":12471:12472   */\n      dup3\n        /* \"#utility.yul\":12467:12473   */\n      not\n        /* \"#utility.yul\":12464:12465   */\n      dup3\n        /* \"#utility.yul\":12461:12474   */\n      gt\n        /* \"#utility.yul\":12458:12460   */\n      iszero\n      tag_576\n      jumpi\n        /* \"#utility.yul\":12477:12495   */\n      tag_576\n      tag_577\n      jump\t// in\n    tag_576:\n      pop\n        /* \"#utility.yul\":12513:12522   */\n      add\n      swap1\n        /* \"#utility.yul\":12448:12528   */\n      jump\t// out\n        /* \"#utility.yul\":12533:12750   */\n    tag_196:\n        /* \"#utility.yul\":12573:12574   */\n      0x00\n        /* \"#utility.yul\":12599:12600   */\n      dup3\n        /* \"#utility.yul\":12589:12591   */\n      tag_579\n      jumpi\n      shl(0xe0, 0x4e487b71)\n        /* \"#utility.yul\":12624:12655   */\n      dup2\n      mstore\n        /* \"#utility.yul\":12678:12682   */\n      0x12\n        /* \"#utility.yul\":12675:12676   */\n      0x04\n        /* \"#utility.yul\":12668:12683   */\n      mstore\n        /* \"#utility.yul\":12706:12710   */\n      0x24\n        /* \"#utility.yul\":12631:12632   */\n      dup2\n        /* \"#utility.yul\":12696:12711   */\n      revert\n        /* \"#utility.yul\":12589:12591   */\n    tag_579:\n      pop\n        /* \"#utility.yul\":12735:12744   */\n      div\n      swap1\n        /* \"#utility.yul\":12579:12750   */\n      jump\t// out\n        /* \"#utility.yul\":12755:12923   */\n    tag_194:\n        /* \"#utility.yul\":12795:12802   */\n      0x00\n        /* \"#utility.yul\":12861:12862   */\n      dup2\n        /* \"#utility.yul\":12857:12858   */\n      0x00\n        /* \"#utility.yul\":12853:12859   */\n      not\n        /* \"#utility.yul\":12849:12863   */\n      div\n        /* \"#utility.yul\":12846:12847   */\n      dup4\n        /* \"#utility.yul\":12843:12864   */\n      gt\n        /* \"#utility.yul\":12838:12839   */\n      dup3\n        /* \"#utility.yul\":12831:12840   */\n      iszero\n        /* \"#utility.yul\":12824:12841   */\n      iszero\n        /* \"#utility.yul\":12820:12865   */\n      and\n        /* \"#utility.yul\":12817:12819   */\n      iszero\n      tag_582\n      jumpi\n        /* \"#utility.yul\":12868:12886   */\n      tag_582\n      tag_577\n      jump\t// in\n    tag_582:\n      pop\n        /* \"#utility.yul\":12908:12917   */\n      mul\n      swap1\n        /* \"#utility.yul\":12807:12923   */\n      jump\t// out\n        /* \"#utility.yul\":12928:13053   */\n    tag_120:\n        /* \"#utility.yul\":12968:12972   */\n      0x00\n        /* \"#utility.yul\":12996:12997   */\n      dup3\n        /* \"#utility.yul\":12993:12994   */\n      dup3\n        /* \"#utility.yul\":12990:12998   */\n      lt\n        /* \"#utility.yul\":12987:12989   */\n      iszero\n      tag_585\n      jumpi\n        /* \"#utility.yul\":13001:13019   */\n      tag_585\n      tag_577\n      jump\t// in\n    tag_585:\n      pop\n        /* \"#utility.yul\":13038:13047   */\n      sub\n      swap1\n        /* \"#utility.yul\":12977:13053   */\n      jump\t// out\n        /* \"#utility.yul\":13058:13253   */\n    tag_349:\n        /* \"#utility.yul\":13096:13100   */\n      0x00\n        /* \"#utility.yul\":13133:13137   */\n      0xff\n        /* \"#utility.yul\":13130:13131   */\n      dup3\n        /* \"#utility.yul\":13126:13138   */\n      and\n        /* \"#utility.yul\":13165:13169   */\n      0xff\n        /* \"#utility.yul\":13162:13163   */\n      dup5\n        /* \"#utility.yul\":13158:13170   */\n      and\n        /* \"#utility.yul\":13190:13193   */\n      dup1\n        /* \"#utility.yul\":13185:13188   */\n      dup3\n        /* \"#utility.yul\":13182:13194   */\n      lt\n        /* \"#utility.yul\":13179:13181   */\n      iszero\n      tag_588\n      jumpi\n        /* \"#utility.yul\":13197:13215   */\n      tag_588\n      tag_577\n      jump\t// in\n    tag_588:\n        /* \"#utility.yul\":13234:13247   */\n      swap1\n      sub\n      swap4\n        /* \"#utility.yul\":13105:13253   */\n      swap3\n      pop\n      pop\n      pop\n      jump\t// out\n        /* \"#utility.yul\":13258:13516   */\n    tag_529:\n        /* \"#utility.yul\":13330:13331   */\n      0x00\n        /* \"#utility.yul\":13340:13453   */\n    tag_590:\n        /* \"#utility.yul\":13354:13360   */\n      dup4\n        /* \"#utility.yul\":13351:13352   */\n      dup2\n        /* \"#utility.yul\":13348:13361   */\n      lt\n        /* \"#utility.yul\":13340:13453   */\n      iszero\n      tag_592\n      jumpi\n        /* \"#utility.yul\":13430:13441   */\n      dup2\n      dup2\n      add\n        /* \"#utility.yul\":13424:13442   */\n      mload\n        /* \"#utility.yul\":13411:13422   */\n      dup4\n      dup3\n      add\n        /* \"#utility.yul\":13404:13443   */\n      mstore\n        /* \"#utility.yul\":13376:13378   */\n      0x20\n        /* \"#utility.yul\":13369:13379   */\n      add\n        /* \"#utility.yul\":13340:13453   */\n      jump(tag_590)\n    tag_592:\n        /* \"#utility.yul\":13471:13477   */\n      dup4\n        /* \"#utility.yul\":13468:13469   */\n      dup2\n        /* \"#utility.yul\":13465:13478   */\n      gt\n        /* \"#utility.yul\":13462:13464   */\n      iszero\n      tag_325\n      jumpi\n      pop\n      pop\n        /* \"#utility.yul\":13506:13507   */\n      0x00\n        /* \"#utility.yul\":13488:13504   */\n      swap2\n      add\n        /* \"#utility.yul\":13481:13508   */\n      mstore\n        /* \"#utility.yul\":13311:13516   */\n      jump\t// out\n        /* \"#utility.yul\":13521:13901   */\n    tag_138:\n        /* \"#utility.yul\":13600:13601   */\n      0x01\n        /* \"#utility.yul\":13596:13608   */\n      dup2\n      dup2\n      shr\n      swap1\n        /* \"#utility.yul\":13643:13655   */\n      dup3\n      and\n      dup1\n        /* \"#utility.yul\":13664:13666   */\n      tag_595\n      jumpi\n        /* \"#utility.yul\":13718:13722   */\n      0x7f\n        /* \"#utility.yul\":13710:13716   */\n      dup3\n        /* \"#utility.yul\":13706:13723   */\n      and\n        /* \"#utility.yul\":13696:13723   */\n      swap2\n      pop\n        /* \"#utility.yul\":13664:13666   */\n    tag_595:\n        /* \"#utility.yul\":13771:13773   */\n      0x20\n        /* \"#utility.yul\":13763:13769   */\n      dup3\n        /* \"#utility.yul\":13760:13774   */\n      lt\n        /* \"#utility.yul\":13740:13758   */\n      dup2\n        /* \"#utility.yul\":13737:13775   */\n      eq\n        /* \"#utility.yul\":13734:13736   */\n      iszero\n      tag_324\n      jumpi\n        /* \"#utility.yul\":13817:13827   */\n      0x4e487b71\n        /* \"#utility.yul\":13812:13815   */\n      0xe0\n        /* \"#utility.yul\":13808:13828   */\n      shl\n        /* \"#utility.yul\":13805:13806   */\n      0x00\n        /* \"#utility.yul\":13798:13829   */\n      mstore\n        /* \"#utility.yul\":13852:13856   */\n      0x22\n        /* \"#utility.yul\":13849:13850   */\n      0x04\n        /* \"#utility.yul\":13842:13857   */\n      mstore\n        /* \"#utility.yul\":13880:13884   */\n      0x24\n        /* \"#utility.yul\":13877:13878   */\n      0x00\n        /* \"#utility.yul\":13870:13885   */\n      revert\n        /* \"#utility.yul\":13906:14041   */\n    tag_340:\n        /* \"#utility.yul\":13945:13948   */\n      0x00\n      not(0x00)\n        /* \"#utility.yul\":13966:13983   */\n      dup3\n      eq\n        /* \"#utility.yul\":13963:13965   */\n      iszero\n      tag_599\n      jumpi\n        /* \"#utility.yul\":13986:14004   */\n      tag_599\n      tag_577\n      jump\t// in\n    tag_599:\n      pop\n        /* \"#utility.yul\":14033:14034   */\n      0x01\n        /* \"#utility.yul\":14022:14035   */\n      add\n      swap1\n        /* \"#utility.yul\":13953:14041   */\n      jump\t// out\n        /* \"#utility.yul\":14046:14173   */\n    tag_577:\n        /* \"#utility.yul\":14107:14117   */\n      0x4e487b71\n        /* \"#utility.yul\":14102:14105   */\n      0xe0\n        /* \"#utility.yul\":14098:14118   */\n      shl\n        /* \"#utility.yul\":14095:14096   */\n      0x00\n        /* \"#utility.yul\":14088:14119   */\n      mstore\n        /* \"#utility.yul\":14138:14142   */\n      0x11\n        /* \"#utility.yul\":14135:14136   */\n      0x04\n        /* \"#utility.yul\":14128:14143   */\n      mstore\n        /* \"#utility.yul\":14162:14166   */\n      0x24\n        /* \"#utility.yul\":14159:14160   */\n      0x00\n        /* \"#utility.yul\":14152:14167   */\n      revert\n        /* \"#utility.yul\":14178:14305   */\n    tag_570:\n        /* \"#utility.yul\":14239:14249   */\n      0x4e487b71\n        /* \"#utility.yul\":14234:14237   */\n      0xe0\n        /* \"#utility.yul\":14230:14250   */\n      shl\n        /* \"#utility.yul\":14227:14228   */\n      0x00\n        /* \"#utility.yul\":14220:14251   */\n      mstore\n        /* \"#utility.yul\":14270:14274   */\n      0x41\n        /* \"#utility.yul\":14267:14268   */\n      0x04\n        /* \"#utility.yul\":14260:14275   */\n      mstore\n        /* \"#utility.yul\":14294:14298   */\n      0x24\n        /* \"#utility.yul\":14291:14292   */\n      0x00\n        /* \"#utility.yul\":14284:14299   */\n      revert\n        /* \"#utility.yul\":14310:14441   */\n    tag_503:\n      sub(shl(0xa0, 0x01), 0x01)\n        /* \"#utility.yul\":14385:14416   */\n      dup2\n      and\n        /* \"#utility.yul\":14375:14417   */\n      dup2\n      eq\n        /* \"#utility.yul\":14365:14367   */\n      tag_603\n      jumpi\n        /* \"#utility.yul\":14431:14432   */\n      0x00\n        /* \"#utility.yul\":14428:14429   */\n      dup1\n        /* \"#utility.yul\":14421:14433   */\n      revert\n        /* \"#utility.yul\":14365:14367   */\n    tag_603:\n        /* \"#utility.yul\":14355:14441   */\n      pop\n      jump\t// out\n    stop\n\n    sub_0: assembly {\n            /* \"contracts/BetPair.sol\":197:1356  contract BetPair is IBetPair {... */\n          mstore(0x40, 0x80)\n            /* \"contracts/BetPair.sol\":587:602  web3betsAddress */\n          sload(0x00)\n            /* \"contracts/BetPair.sol\":544:603  IWeb3BetsFO private web3bets = IWeb3BetsFO(web3betsAddress) */\n          0x08\n          dup1\n          sload\n          not(sub(shl(0xa0, 0x01), 0x01))\n          and\n          sub(shl(0xa0, 0x01), 0x01)\n            /* \"contracts/BetPair.sol\":587:602  web3betsAddress */\n          swap1\n          swap3\n          and\n            /* \"contracts/BetPair.sol\":544:603  IWeb3BetsFO private web3bets = IWeb3BetsFO(web3betsAddress) */\n          swap2\n          swap1\n          swap2\n          or\n          swap1\n          sstore\n            /* \"contracts/BetPair.sol\":610:1023  constructor (... */\n          callvalue\n          dup1\n          iszero\n          tag_1\n          jumpi\n          0x00\n          dup1\n          revert\n        tag_1:\n          pop\n          mload(0x40)\n          sub(codesize, bytecodeSize)\n          dup1\n          bytecodeSize\n          dup4\n          codecopy\n          dup2\n          add\n          0x40\n          dup2\n          swap1\n          mstore\n          tag_2\n          swap2\n          tag_3\n          jump\t// in\n        tag_2:\n            /* \"contracts/BetPair.sol\":786:794  web3bets */\n          sload(0x08)\n            /* \"contracts/BetPair.sol\":786:804  web3bets.factory() */\n          0x40\n          dup1\n          mload\n          shl(0xe0, 0xc45a0155)\n          dup2\n          mstore\n          swap1\n          mload\n          sub(shl(0xa0, 0x01), 0x01)\n            /* \"contracts/BetPair.sol\":786:794  web3bets */\n          swap1\n          swap3\n          and\n          swap2\n            /* \"contracts/BetPair.sol\":786:802  web3bets.factory */\n          0xc45a0155\n          swap2\n            /* \"contracts/BetPair.sol\":786:804  web3bets.factory() */\n          0x04\n          dup1\n          dup3\n          add\n          swap3\n          0x20\n          swap3\n          swap1\n          swap2\n          swap1\n          dup3\n          swap1\n          sub\n          add\n          dup2\n            /* \"contracts/BetPair.sol\":786:794  web3bets */\n          dup7\n            /* \"contracts/BetPair.sol\":786:804  web3bets.factory() */\n          dup1\n          extcodesize\n          iszero\n          dup1\n          iszero\n          tag_6\n          jumpi\n          0x00\n          dup1\n          revert\n        tag_6:\n          pop\n          gas\n          staticcall\n          iszero\n          dup1\n          iszero\n          tag_8\n          jumpi\n          returndatasize\n          0x00\n          dup1\n          returndatacopy\n          revert(0x00, returndatasize)\n        tag_8:\n          pop\n          pop\n          pop\n          pop\n          mload(0x40)\n          returndatasize\n          not(0x1f)\n          0x1f\n          dup3\n          add\n          and\n          dup3\n          add\n          dup1\n          0x40\n          mstore\n          pop\n          dup2\n          add\n          swap1\n          tag_9\n          swap2\n          swap1\n          tag_10\n          jump\t// in\n        tag_9:\n          sub(shl(0xa0, 0x01), 0x01)\n            /* \"contracts/BetPair.sol\":772:804  msg.sender == web3bets.factory() */\n          and\n            /* \"contracts/BetPair.sol\":772:782  msg.sender */\n          caller\n            /* \"contracts/BetPair.sol\":772:804  msg.sender == web3bets.factory() */\n          eq\n            /* \"contracts/BetPair.sol\":764:874  require(msg.sender == web3bets.factory(), \"only web3bets fixedodds factory contract can create this contract\") */\n          tag_11\n          jumpi\n          0x40\n          dup1\n          mload\n          shl(0xe5, 0x461bcd)\n          dup2\n          mstore\n            /* \"#utility.yul\":1138:1140   */\n          0x20\n            /* \"contracts/BetPair.sol\":764:874  require(msg.sender == web3bets.factory(), \"only web3bets fixedodds factory contract can create this contract\") */\n          0x04\n          dup3\n          add\n            /* \"#utility.yul\":1120:1141   */\n          mstore\n            /* \"#utility.yul\":1177:1179   */\n          0x41\n            /* \"#utility.yul\":1157:1175   */\n          0x24\n          dup3\n          add\n            /* \"#utility.yul\":1150:1180   */\n          mstore\n            /* \"#utility.yul\":1216:1250   */\n          0x6f6e6c792077656233626574732066697865646f64647320666163746f727920\n            /* \"#utility.yul\":1196:1214   */\n          0x44\n          dup3\n          add\n            /* \"#utility.yul\":1189:1251   */\n          mstore\n            /* \"#utility.yul\":1287:1321   */\n          0x636f6e74726163742063616e20637265617465207468697320636f6e74726163\n            /* \"#utility.yul\":1267:1285   */\n          0x64\n          dup3\n          add\n            /* \"#utility.yul\":1260:1322   */\n          mstore\n          shl(0xfa, 0x1d)\n            /* \"#utility.yul\":1338:1357   */\n          0x84\n          dup3\n          add\n            /* \"#utility.yul\":1331:1363   */\n          mstore\n            /* \"contracts/BetPair.sol\":764:874  require(msg.sender == web3bets.factory(), \"only web3bets fixedodds factory contract can create this contract\") */\n          swap1\n          mload\n          swap1\n          dup2\n          swap1\n          sub\n            /* \"#utility.yul\":1380:1399   */\n          0xa4\n            /* \"contracts/BetPair.sol\":764:874  require(msg.sender == web3bets.factory(), \"only web3bets fixedodds factory contract can create this contract\") */\n          add\n          swap1\n          revert\n        tag_11:\n            /* \"contracts/BetPair.sol\":884:890  market */\n          0x01\n            /* \"contracts/BetPair.sol\":884:900  market = market_ */\n          dup1\n          sload\n          not(sub(shl(0xa0, 0x01), 0x01))\n          swap1\n          dup2\n          and\n          sub(shl(0xa0, 0x01), 0x01)\n          swap8\n          dup9\n          and\n          or\n          swap1\n          swap2\n          sstore\n            /* \"contracts/BetPair.sol\":910:918  sideABet */\n          0x02\n            /* \"contracts/BetPair.sol\":910:930  sideABet = sideABet_ */\n          dup1\n          sload\n          dup3\n          and\n          swap6\n          dup8\n          and\n          swap6\n          swap1\n          swap6\n          or\n          swap1\n          swap5\n          sstore\n            /* \"contracts/BetPair.sol\":940:948  sideBBet */\n          0x03\n            /* \"contracts/BetPair.sol\":940:960  sideBBet = sideBBet_ */\n          dup1\n          sload\n          swap1\n          swap5\n          and\n          swap3\n          swap1\n          swap5\n          and\n          swap2\n          swap1\n          swap2\n          or\n          swap1\n          swap2\n          sstore\n            /* \"contracts/BetPair.sol\":970:977  amountA */\n          0x06\n            /* \"contracts/BetPair.sol\":970:988  amountA = amountA_ */\n          sstore\n            /* \"contracts/BetPair.sol\":998:1005  amountB */\n          0x07\n            /* \"contracts/BetPair.sol\":998:1016  amountB = amountB_ */\n          sstore\n            /* \"contracts/BetPair.sol\":197:1356  contract BetPair is IBetPair {... */\n          jump(tag_15)\n            /* \"#utility.yul\":14:191   */\n        tag_16:\n            /* \"#utility.yul\":93:106   */\n          dup1\n          mload\n          sub(shl(0xa0, 0x01), 0x01)\n            /* \"#utility.yul\":135:166   */\n          dup2\n          and\n            /* \"#utility.yul\":125:167   */\n          dup2\n          eq\n            /* \"#utility.yul\":115:117   */\n          tag_18\n          jumpi\n            /* \"#utility.yul\":181:182   */\n          0x00\n            /* \"#utility.yul\":178:179   */\n          dup1\n            /* \"#utility.yul\":171:183   */\n          revert\n            /* \"#utility.yul\":115:117   */\n        tag_18:\n            /* \"#utility.yul\":74:191   */\n          swap2\n          swap1\n          pop\n          jump\t// out\n            /* \"#utility.yul\":196:414   */\n        tag_10:\n            /* \"#utility.yul\":266:272   */\n          0x00\n            /* \"#utility.yul\":319:321   */\n          0x20\n            /* \"#utility.yul\":307:316   */\n          dup3\n            /* \"#utility.yul\":298:305   */\n          dup5\n            /* \"#utility.yul\":294:317   */\n          sub\n            /* \"#utility.yul\":290:322   */\n          slt\n            /* \"#utility.yul\":287:289   */\n          iszero\n          tag_20\n          jumpi\n            /* \"#utility.yul\":340:346   */\n          dup1\n            /* \"#utility.yul\":332:338   */\n          dup2\n            /* \"#utility.yul\":325:347   */\n          revert\n            /* \"#utility.yul\":287:289   */\n        tag_20:\n            /* \"#utility.yul\":368:408   */\n          tag_21\n            /* \"#utility.yul\":398:407   */\n          dup3\n            /* \"#utility.yul\":368:408   */\n          tag_16\n          jump\t// in\n        tag_21:\n            /* \"#utility.yul\":358:408   */\n          swap4\n            /* \"#utility.yul\":277:414   */\n          swap3\n          pop\n          pop\n          pop\n          jump\t// out\n            /* \"#utility.yul\":419:931   */\n        tag_3:\n            /* \"#utility.yul\":525:531   */\n          0x00\n            /* \"#utility.yul\":533:539   */\n          dup1\n            /* \"#utility.yul\":541:547   */\n          0x00\n            /* \"#utility.yul\":549:555   */\n          dup1\n            /* \"#utility.yul\":557:563   */\n          0x00\n            /* \"#utility.yul\":610:613   */\n          0xa0\n            /* \"#utility.yul\":598:607   */\n          dup7\n            /* \"#utility.yul\":589:596   */\n          dup9\n            /* \"#utility.yul\":585:608   */\n          sub\n            /* \"#utility.yul\":581:614   */\n          slt\n            /* \"#utility.yul\":578:580   */\n          iszero\n          tag_23\n          jumpi\n            /* \"#utility.yul\":632:638   */\n          dup1\n            /* \"#utility.yul\":624:630   */\n          dup2\n            /* \"#utility.yul\":617:639   */\n          revert\n            /* \"#utility.yul\":578:580   */\n        tag_23:\n            /* \"#utility.yul\":660:700   */\n          tag_24\n            /* \"#utility.yul\":690:699   */\n          dup7\n            /* \"#utility.yul\":660:700   */\n          tag_16\n          jump\t// in\n        tag_24:\n            /* \"#utility.yul\":650:700   */\n          swap5\n          pop\n            /* \"#utility.yul\":719:768   */\n          tag_25\n            /* \"#utility.yul\":764:766   */\n          0x20\n            /* \"#utility.yul\":753:762   */\n          dup8\n            /* \"#utility.yul\":749:767   */\n          add\n            /* \"#utility.yul\":719:768   */\n          tag_16\n          jump\t// in\n        tag_25:\n            /* \"#utility.yul\":709:768   */\n          swap4\n          pop\n            /* \"#utility.yul\":787:836   */\n          tag_26\n            /* \"#utility.yul\":832:834   */\n          0x40\n            /* \"#utility.yul\":821:830   */\n          dup8\n            /* \"#utility.yul\":817:835   */\n          add\n            /* \"#utility.yul\":787:836   */\n          tag_16\n          jump\t// in\n        tag_26:\n            /* \"#utility.yul\":876:878   */\n          0x60\n            /* \"#utility.yul\":861:879   */\n          dup8\n          add\n            /* \"#utility.yul\":855:880   */\n          mload\n            /* \"#utility.yul\":920:923   */\n          0x80\n            /* \"#utility.yul\":905:924   */\n          swap1\n          swap8\n          add\n            /* \"#utility.yul\":899:925   */\n          mload\n            /* \"#utility.yul\":568:931   */\n          swap6\n          swap9\n          swap5\n          swap8\n          pop\n            /* \"#utility.yul\":777:836   */\n          swap6\n            /* \"#utility.yul\":855:880   */\n          swap5\n            /* \"#utility.yul\":899:925   */\n          swap4\n            /* \"#utility.yul\":568:931   */\n          swap3\n          pop\n          pop\n          pop\n          jump\t// out\n            /* \"#utility.yul\":1110:1405   */\n        tag_15:\n            /* \"contracts/BetPair.sol\":197:1356  contract BetPair is IBetPair {... */\n          dataSize(sub_0)\n          dup1\n          dataOffset(sub_0)\n          0x00\n          codecopy\n          0x00\n          return\n        stop\n\n        sub_0: assembly {\n                /* \"contracts/BetPair.sol\":197:1356  contract BetPair is IBetPair {... */\n              mstore(0x40, 0x80)\n              callvalue\n              dup1\n              iszero\n              tag_1\n              jumpi\n              0x00\n              dup1\n              revert\n            tag_1:\n              pop\n              jumpi(tag_2, lt(calldatasize, 0x04))\n              shr(0xe0, calldataload(0x00))\n              dup1\n              0x6d83a71f\n              gt\n              tag_11\n              jumpi\n              dup1\n              0x6d83a71f\n              eq\n              tag_7\n              jumpi\n              dup1\n              0x80f55605\n              eq\n              tag_8\n              jumpi\n              dup1\n              0xbaa1a3ec\n              eq\n              tag_9\n              jumpi\n              dup1\n              0xed7a4e0b\n              eq\n              tag_10\n              jumpi\n              0x00\n              dup1\n              revert\n            tag_11:\n              dup1\n              0x0f765e6d\n              eq\n              tag_3\n              jumpi\n              dup1\n              0x156dcbf0\n              eq\n              tag_4\n              jumpi\n              dup1\n              0x15e894ab\n              eq\n              tag_5\n              jumpi\n              dup1\n              0x2efe91ef\n              eq\n              tag_6\n              jumpi\n            tag_2:\n              0x00\n              dup1\n              revert\n                /* \"contracts/BetPair.sol\":347:379  address public override sideBBet */\n            tag_3:\n              sload(0x03)\n              tag_12\n              swap1\n              sub(shl(0xa0, 0x01), 0x01)\n              and\n              dup2\n              jump\n            tag_12:\n              mload(0x40)\n              sub(shl(0xa0, 0x01), 0x01)\n                /* \"#utility.yul\":706:738   */\n              swap2\n              swap1\n              swap2\n              and\n                /* \"#utility.yul\":688:739   */\n              dup2\n              mstore\n                /* \"#utility.yul\":676:678   */\n              0x20\n                /* \"#utility.yul\":661:679   */\n              add\n                /* \"contracts/BetPair.sol\":347:379  address public override sideBBet */\n            tag_14:\n              mload(0x40)\n              dup1\n              swap2\n              sub\n              swap1\n              return\n                /* \"contracts/BetPair.sol\":474:502  uint public override amountA */\n            tag_4:\n              tag_16\n              sload(0x06)\n              dup2\n              jump\n            tag_16:\n              mload(0x40)\n                /* \"#utility.yul\":1562:1587   */\n              swap1\n              dup2\n              mstore\n                /* \"#utility.yul\":1550:1552   */\n              0x20\n                /* \"#utility.yul\":1535:1553   */\n              add\n                /* \"contracts/BetPair.sol\":474:502  uint public override amountA */\n              tag_14\n                /* \"#utility.yul\":1517:1593   */\n              jump\n                /* \"contracts/BetPair.sol\":308:340  address public override sideABet */\n            tag_5:\n              sload(0x02)\n              tag_12\n              swap1\n              sub(shl(0xa0, 0x01), 0x01)\n              and\n              dup2\n              jump\n                /* \"contracts/BetPair.sol\":509:537  uint public override amountB */\n            tag_6:\n              tag_16\n              sload(0x07)\n              dup2\n              jump\n                /* \"contracts/BetPair.sol\":1029:1349  function setWinnerBet( address _addr) external override returns(bool){... */\n            tag_7:\n              tag_26\n              tag_27\n              calldatasize\n              0x04\n              tag_28\n              jump\t// in\n            tag_27:\n              tag_29\n              jump\t// in\n            tag_26:\n              mload(0x40)\n                /* \"#utility.yul\":915:929   */\n              swap1\n              iszero\n                /* \"#utility.yul\":908:930   */\n              iszero\n                /* \"#utility.yul\":890:931   */\n              dup2\n              mstore\n                /* \"#utility.yul\":878:880   */\n              0x20\n                /* \"#utility.yul\":863:881   */\n              add\n                /* \"contracts/BetPair.sol\":1029:1349  function setWinnerBet( address _addr) external override returns(bool){... */\n              tag_14\n                /* \"#utility.yul\":845:937   */\n              jump\n                /* \"contracts/BetPair.sol\":271:301  address public override market */\n            tag_8:\n              sload(0x01)\n              tag_12\n              swap1\n              sub(shl(0xa0, 0x01), 0x01)\n              and\n              dup2\n              jump\n                /* \"contracts/BetPair.sol\":390:423  address public override winnerBet */\n            tag_9:\n              sload(0x04)\n              tag_12\n              swap1\n              sub(shl(0xa0, 0x01), 0x01)\n              and\n              dup2\n              jump\n                /* \"contracts/BetPair.sol\":430:467  address public override winnerAddress */\n            tag_10:\n              sload(0x05)\n              tag_12\n              swap1\n              sub(shl(0xa0, 0x01), 0x01)\n              and\n              dup2\n              jump\n                /* \"contracts/BetPair.sol\":1029:1349  function setWinnerBet( address _addr) external override returns(bool){... */\n            tag_29:\n                /* \"contracts/BetPair.sol\":1130:1138  web3bets */\n              sload(0x08)\n                /* \"contracts/BetPair.sol\":1130:1148  web3bets.factory() */\n              0x40\n              dup1\n              mload\n              shl(0xe0, 0xc45a0155)\n              dup2\n              mstore\n              swap1\n              mload\n                /* \"contracts/BetPair.sol\":1093:1097  bool */\n              0x00\n              swap3\n              sub(shl(0xa0, 0x01), 0x01)\n                /* \"contracts/BetPair.sol\":1130:1138  web3bets */\n              and\n              swap2\n              0xc45a0155\n              swap2\n                /* \"contracts/BetPair.sol\":1130:1148  web3bets.factory() */\n              0x04\n              dup1\n              dup4\n              add\n              swap3\n              0x20\n              swap3\n              swap2\n              swap1\n              dup3\n              swap1\n              sub\n              add\n              dup2\n                /* \"contracts/BetPair.sol\":1130:1138  web3bets */\n              dup7\n                /* \"contracts/BetPair.sol\":1130:1148  web3bets.factory() */\n              dup1\n              extcodesize\n              iszero\n              dup1\n              iszero\n              tag_42\n              jumpi\n              0x00\n              dup1\n              revert\n            tag_42:\n              pop\n              gas\n              staticcall\n              iszero\n              dup1\n              iszero\n              tag_44\n              jumpi\n              returndatasize\n              0x00\n              dup1\n              returndatacopy\n              revert(0x00, returndatasize)\n            tag_44:\n              pop\n              pop\n              pop\n              pop\n              mload(0x40)\n              returndatasize\n              not(0x1f)\n              0x1f\n              dup3\n              add\n              and\n              dup3\n              add\n              dup1\n              0x40\n              mstore\n              pop\n              dup2\n              add\n              swap1\n              tag_45\n              swap2\n              swap1\n              tag_46\n              jump\t// in\n            tag_45:\n              sub(shl(0xa0, 0x01), 0x01)\n                /* \"contracts/BetPair.sol\":1116:1148  msg.sender == web3bets.factory() */\n              and\n                /* \"contracts/BetPair.sol\":1116:1126  msg.sender */\n              caller\n                /* \"contracts/BetPair.sol\":1116:1148  msg.sender == web3bets.factory() */\n              eq\n                /* \"contracts/BetPair.sol\":1108:1218  require(msg.sender == web3bets.factory(), \"only web3bets fixedodds factory contract can create this contract\") */\n              tag_47\n              jumpi\n              0x40\n              dup1\n              mload\n              shl(0xe5, 0x461bcd)\n              dup2\n              mstore\n                /* \"#utility.yul\":1144:1146   */\n              0x20\n                /* \"contracts/BetPair.sol\":1108:1218  require(msg.sender == web3bets.factory(), \"only web3bets fixedodds factory contract can create this contract\") */\n              0x04\n              dup3\n              add\n                /* \"#utility.yul\":1126:1147   */\n              mstore\n                /* \"#utility.yul\":1183:1185   */\n              0x41\n                /* \"#utility.yul\":1163:1181   */\n              0x24\n              dup3\n              add\n                /* \"#utility.yul\":1156:1186   */\n              mstore\n                /* \"#utility.yul\":1222:1256   */\n              0x6f6e6c792077656233626574732066697865646f64647320666163746f727920\n                /* \"#utility.yul\":1202:1220   */\n              0x44\n              dup3\n              add\n                /* \"#utility.yul\":1195:1257   */\n              mstore\n                /* \"#utility.yul\":1293:1327   */\n              0x636f6e74726163742063616e20637265617465207468697320636f6e74726163\n                /* \"#utility.yul\":1273:1291   */\n              0x64\n              dup3\n              add\n                /* \"#utility.yul\":1266:1328   */\n              mstore\n              shl(0xfa, 0x1d)\n                /* \"#utility.yul\":1344:1363   */\n              0x84\n              dup3\n              add\n                /* \"#utility.yul\":1337:1369   */\n              mstore\n                /* \"contracts/BetPair.sol\":1108:1218  require(msg.sender == web3bets.factory(), \"only web3bets fixedodds factory contract can create this contract\") */\n              swap1\n              mload\n              swap1\n              dup2\n              swap1\n              sub\n                /* \"#utility.yul\":1386:1405   */\n              0xa4\n                /* \"contracts/BetPair.sol\":1108:1218  require(msg.sender == web3bets.factory(), \"only web3bets fixedodds factory contract can create this contract\") */\n              add\n              swap1\n              revert\n            tag_47:\n                /* \"contracts/BetPair.sol\":1228:1237  winnerBet */\n              0x04\n                /* \"contracts/BetPair.sol\":1228:1245  winnerBet = _addr */\n              dup1\n              sload\n              not(sub(shl(0xa0, 0x01), 0x01))\n              and\n              sub(shl(0xa0, 0x01), 0x01)\n              dup5\n              and\n              swap1\n              dup2\n              or\n              dup3\n              sstore\n                /* \"contracts/BetPair.sol\":1308:1321  _bet.better() */\n              0x40\n              dup1\n              mload\n              shl(0xe2, 0x1c631f51)\n              dup2\n              mstore\n              swap1\n              mload\n                /* \"contracts/BetPair.sol\":1228:1245  winnerBet = _addr */\n              swap2\n              swap3\n              dup4\n              swap3\n                /* \"contracts/BetPair.sol\":1308:1319  _bet.better */\n              0x718c7d44\n              swap3\n                /* \"contracts/BetPair.sol\":1308:1321  _bet.better() */\n              dup1\n              dup4\n              add\n              swap3\n              0x20\n              swap3\n              swap2\n              dup3\n              swap1\n              sub\n              add\n              dup2\n                /* \"contracts/BetPair.sol\":1228:1245  winnerBet = _addr */\n              dup7\n                /* \"contracts/BetPair.sol\":1308:1321  _bet.better() */\n              dup1\n              extcodesize\n              iszero\n              dup1\n              iszero\n              tag_50\n              jumpi\n              0x00\n              dup1\n              revert\n            tag_50:\n              pop\n              gas\n              staticcall\n              iszero\n              dup1\n              iszero\n              tag_52\n              jumpi\n              returndatasize\n              0x00\n              dup1\n              returndatacopy\n              revert(0x00, returndatasize)\n            tag_52:\n              pop\n              pop\n              pop\n              pop\n              mload(0x40)\n              returndatasize\n              not(0x1f)\n              0x1f\n              dup3\n              add\n              and\n              dup3\n              add\n              dup1\n              0x40\n              mstore\n              pop\n              dup2\n              add\n              swap1\n              tag_53\n              swap2\n              swap1\n              tag_46\n              jump\t// in\n            tag_53:\n                /* \"contracts/BetPair.sol\":1292:1305  winnerAddress */\n              0x05\n                /* \"contracts/BetPair.sol\":1292:1321  winnerAddress = _bet.better() */\n              dup1\n              sload\n              not(sub(shl(0xa0, 0x01), 0x01))\n              and\n              sub(shl(0xa0, 0x01), 0x01)\n              swap3\n              swap1\n              swap3\n              and\n              swap2\n              swap1\n              swap2\n              or\n              swap1\n              sstore\n              pop\n              0x01\n              swap3\n              swap2\n              pop\n              pop\n                /* \"contracts/BetPair.sol\":1029:1349  function setWinnerBet( address _addr) external override returns(bool){... */\n              jump\t// out\n                /* \"#utility.yul\":14:271   */\n            tag_28:\n                /* \"#utility.yul\":73:79   */\n              0x00\n                /* \"#utility.yul\":126:128   */\n              0x20\n                /* \"#utility.yul\":114:123   */\n              dup3\n                /* \"#utility.yul\":105:112   */\n              dup5\n                /* \"#utility.yul\":101:124   */\n              sub\n                /* \"#utility.yul\":97:129   */\n              slt\n                /* \"#utility.yul\":94:96   */\n              iszero\n              tag_56\n              jumpi\n                /* \"#utility.yul\":147:153   */\n              dup1\n                /* \"#utility.yul\":139:145   */\n              dup2\n                /* \"#utility.yul\":132:154   */\n              revert\n                /* \"#utility.yul\":94:96   */\n            tag_56:\n                /* \"#utility.yul\":191:200   */\n              dup2\n                /* \"#utility.yul\":178:201   */\n              calldataload\n                /* \"#utility.yul\":210:241   */\n              tag_57\n                /* \"#utility.yul\":235:240   */\n              dup2\n                /* \"#utility.yul\":210:241   */\n              tag_58\n              jump\t// in\n            tag_57:\n                /* \"#utility.yul\":260:265   */\n              swap4\n                /* \"#utility.yul\":84:271   */\n              swap3\n              pop\n              pop\n              pop\n              jump\t// out\n                /* \"#utility.yul\":276:537   */\n            tag_46:\n                /* \"#utility.yul\":346:352   */\n              0x00\n                /* \"#utility.yul\":399:401   */\n              0x20\n                /* \"#utility.yul\":387:396   */\n              dup3\n                /* \"#utility.yul\":378:385   */\n              dup5\n                /* \"#utility.yul\":374:397   */\n              sub\n                /* \"#utility.yul\":370:402   */\n              slt\n                /* \"#utility.yul\":367:369   */\n              iszero\n              tag_60\n              jumpi\n                /* \"#utility.yul\":420:426   */\n              dup1\n                /* \"#utility.yul\":412:418   */\n              dup2\n                /* \"#utility.yul\":405:427   */\n              revert\n                /* \"#utility.yul\":367:369   */\n            tag_60:\n                /* \"#utility.yul\":457:466   */\n              dup2\n                /* \"#utility.yul\":451:467   */\n              mload\n                /* \"#utility.yul\":476:507   */\n              tag_57\n                /* \"#utility.yul\":501:506   */\n              dup2\n                /* \"#utility.yul\":1598:1729   */\n            tag_58:\n              sub(shl(0xa0, 0x01), 0x01)\n                /* \"#utility.yul\":1673:1704   */\n              dup2\n              and\n                /* \"#utility.yul\":1663:1705   */\n              dup2\n              eq\n                /* \"#utility.yul\":1653:1655   */\n              tag_67\n              jumpi\n                /* \"#utility.yul\":1719:1720   */\n              0x00\n                /* \"#utility.yul\":1716:1717   */\n              dup1\n                /* \"#utility.yul\":1709:1721   */\n              revert\n                /* \"#utility.yul\":1653:1655   */\n            tag_67:\n                /* \"#utility.yul\":1643:1729   */\n              pop\n              jump\t// out\n\n            auxdata: 0xa2646970667358221220f0654fc2f171d40f835529ac1d144419862a30912843c4c943100fd38846aa0964736f6c63430008040033\n        }\n    }\n\n    auxdata: 0xa26469706673582212202660fee0ac63ea96e68cc99d44d5e9f296e12cfdcfd238ce99fdc978688c4dfc64736f6c63430008040033\n}\n",
				"bytecode": {
					"linkReferences": {},
					"object": "608060408190526004805460ff1916815560006006819055600881905554600f80546001600160a01b0319166001600160a01b03909216918217905563992642e560e01b83529163992642e5916084916020918186803b1580156200006357600080fd5b505afa15801562000078573d6000803e3d6000fd5b505050506040513d601f19601f820116820180604052508101906200009e9190620003f5565b601080546001600160a01b03929092166001600160a01b0319928316811790915560118054909216179055348015620000d657600080fd5b50604051620038a9380380620038a9833981016040819052620000f99162000419565b600f60009054906101000a90046001600160a01b03166001600160a01b031663c45a01556040518163ffffffff1660e01b815260040160206040518083038186803b1580156200014857600080fd5b505afa1580156200015d573d6000803e3d6000fd5b505050506040513d601f19601f82011682018060405250810190620001839190620003f5565b6001600160a01b0316336001600160a01b031614620002185760405162461bcd60e51b815260206004820152604160248201527f6f6e6c792077656233626574732066697865646f64647320666163746f72792060448201527f636f6e74726163742063616e20637265617465207468697320636f6e747261636064820152601d60fa1b608482015260a40160405180910390fd5b83516200022d9060019060208701906200027f565b50600280546001600160a01b0319166001600160a01b03851617905581516200025e9060059060208501906200027f565b508051620002749060079060208401906200027f565b50505050506200050c565b8280546200028d90620004b9565b90600052602060002090601f016020900481019282620002b15760008555620002fc565b82601f10620002cc57805160ff1916838001178555620002fc565b82800160010185558215620002fc579182015b82811115620002fc578251825591602001919060010190620002df565b506200030a9291506200030e565b5090565b5b808211156200030a57600081556001016200030f565b80516001600160a01b03811681146200033d57600080fd5b919050565b600082601f83011262000353578081fd5b81516001600160401b0380821115620003705762000370620004f6565b604051601f8301601f19908116603f011681019082821181831017156200039b576200039b620004f6565b81604052838152602092508683858801011115620003b7578485fd5b8491505b83821015620003da5785820183015181830184015290820190620003bb565b83821115620003eb57848385830101525b9695505050505050565b60006020828403121562000407578081fd5b620004128262000325565b9392505050565b600080600080608085870312156200042f578283fd5b84516001600160401b038082111562000446578485fd5b620004548883890162000342565b9550620004646020880162000325565b945060408701519150808211156200047a578384fd5b620004888883890162000342565b935060608701519150808211156200049e578283fd5b50620004ad8782880162000342565b91505092959194509250565b600181811c90821680620004ce57607f821691505b60208210811415620004f057634e487b7160e01b600052602260045260246000fd5b50919050565b634e487b7160e01b600052604160045260246000fd5b61338d806200051c6000396000f3fe60806040523480156200001157600080fd5b5060043610620001515760003560e01c80638eb1a4ad11620000c7578063b81e43fc1162000086578063b81e43fc14620002cc578063bd92630c14620002d6578063d37e299614620002eb578063e7c9a87f14620002f5578063fad56779146200030c578063fbf06338146200033957600080fd5b80638eb1a4ad146200024a578063948fb24d14620002545780639bf5b8451462000294578063a355f89714620002ab578063b40a4f0514620002b557600080fd5b80632b4a352711620001145780632b4a352714620001cc5780633ab8781c14620001e35780635a35846414620002065780636bfefd6b146200022957806383bbe262146200023357600080fd5b806303afd56b146200015657806306fdde0314620001825780630b469bda146200019b5780630ed5a93314620001b457806317d7de7c14620001c2575b600080fd5b6200016d62000167366004620028ac565b62000343565b60405190151581526020015b60405180910390f35b6200018c620005ae565b60405162000179919062002b28565b620001a560085481565b60405190815260200162000179565b6004546200016d9060ff1681565b6200018c62000644565b6200016d620001dd366004620028ac565b620006de565b620001a5620001f4366004620028ac565b600d6020526000908152604090205481565b620001a562000217366004620028ac565b600e6020526000908152604090205481565b6200016d62000dbf565b6200016d6200024436600462002a4a565b62000e9e565b6200018c62000eef565b6200026b6200026536600462002ad8565b62000efe565b604080516001600160a01b039094168452602084019290925260ff169082015260600162000179565b6200016d620002a5366004620028ea565b62000f3f565b6200018c620011cd565b6200016d620002c636600462002997565b620011dc565b6200018c6200137a565b6002546200016d90600160a01b900460ff1681565b620001a560065481565b6200026b6200030636600462002ad8565b62001409565b60025462000320906001600160a01b031681565b6040516001600160a01b03909116815260200162000179565b6200018c6200141a565b6000808290506000816001600160a01b0316638aac9cca6040518163ffffffff1660e01b815260040160206040518083038186803b1580156200038557600080fd5b505afa1580156200039a573d6000803e3d6000fd5b505050506040513d601f19601f82011682018060405250810190620003c0919062002af1565b826001600160a01b0316633a4b66f16040518163ffffffff1660e01b815260040160206040518083038186803b158015620003fa57600080fd5b505afa1580156200040f573d6000803e3d6000fd5b505050506040513d601f19601f8201168201806040525081019062000435919062002af1565b62000441919062002c5c565b9050804711620004985760405162461bcd60e51b815260206004820152601860248201527f54686973206d61726b657420686173206e6f2066756e6473000000000000000060448201526064015b60405180910390fd5b62000525826001600160a01b031663718c7d446040518163ffffffff1660e01b815260040160206040518083038186803b158015620004d657600080fd5b505afa158015620004eb573d6000803e3d6000fd5b505050506040513d601f19601f82011682018060405250810190620005119190620028cb565b6011546001600160a01b0316908362001429565b604051632d267e0360e11b8152600481018290526001600160a01b03831690635a4cfc0690602401602060405180830381600087803b1580156200056857600080fd5b505af11580156200057d573d6000803e3d6000fd5b505050506040513d601f19601f82011682018060405250810190620005a3919062002975565b506001949350505050565b60018054620005bd9062002ccb565b80601f0160208091040260200160405190810160405280929190818152602001828054620005eb9062002ccb565b80156200063c5780601f1062000610576101008083540402835291602001916200063c565b820191906000526020600020905b8154815290600101906020018083116200061e57829003601f168201915b505050505081565b606060018054620006559062002ccb565b80601f0160208091040260200160405190810160405280929190818152602001828054620006839062002ccb565b8015620006d45780601f10620006a857610100808354040283529160200191620006d4565b820191906000526020600020905b815481529060010190602001808311620006b657829003601f168201915b5050505050905090565b6000808290506000816001600160a01b03166380f556056040518163ffffffff1660e01b815260040160206040518083038186803b1580156200072057600080fd5b505afa15801562000735573d6000803e3d6000fd5b505050506040513d601f19601f820116820180604052508101906200075b9190620028cb565b90506000826001600160a01b03166315e894ab6040518163ffffffff1660e01b815260040160206040518083038186803b1580156200079957600080fd5b505afa158015620007ae573d6000803e3d6000fd5b505050506040513d601f19601f82011682018060405250810190620007d49190620028cb565b90506000836001600160a01b0316630f765e6d6040518163ffffffff1660e01b815260040160206040518083038186803b1580156200081257600080fd5b505afa15801562000827573d6000803e3d6000fd5b505050506040513d601f19601f820116820180604052508101906200084d9190620028cb565b90506000846001600160a01b031663156dcbf06040518163ffffffff1660e01b815260040160206040518083038186803b1580156200088b57600080fd5b505afa158015620008a0573d6000803e3d6000fd5b505050506040513d601f19601f82011682018060405250810190620008c6919062002af1565b90506000856001600160a01b0316632efe91ef6040518163ffffffff1660e01b815260040160206040518083038186803b1580156200090457600080fd5b505afa15801562000919573d6000803e3d6000fd5b505050506040513d601f19601f820116820180604052508101906200093f919062002af1565b90506000859050806001600160a01b031663bd92630c6040518163ffffffff1660e01b815260040160206040518083038186803b1580156200098057600080fd5b505afa15801562000995573d6000803e3d6000fd5b505050506040513d601f19601f82011682018060405250810190620009bb919062002975565b62000a095760405162461bcd60e51b815260206004820152601c60248201527f4d61726b65747320686173206e6f74206265656e20736574746c65640000000060448201526064016200048f565b60405164736964654160d81b602082015260250160405160208183030381529060405280519060200120816001600160a01b031663fbf063386040518163ffffffff1660e01b815260040160006040518083038186803b15801562000a6d57600080fd5b505afa15801562000a82573d6000803e3d6000fd5b505050506040513d6000823e601f3d908101601f1916820160405262000aac9190810190620029ce565b60405160200162000abe919062002b0a565b60405160208183030381529060405280519060200120141562000bbf57604051636d83a71f60e01b81526001600160a01b038681166004830152881690636d83a71f90602401602060405180830381600087803b15801562000b1f57600080fd5b505af115801562000b34573d6000803e3d6000fd5b505050506040513d601f19601f8201168201806040525081019062000b5a919062002975565b5062000b9b85600a62000b6f85600962002c3a565b62000b7b919062002c19565b62000b87908662002bfe565b6011546001600160a01b0316919062001429565b60005462000bb9906001600160a01b031662000b87600a8562002c19565b62000db0565b6040516439b4b232a160d91b602082015260250160405160208183030381529060405280519060200120816001600160a01b031663fbf063386040518163ffffffff1660e01b815260040160006040518083038186803b15801562000c2357600080fd5b505afa15801562000c38573d6000803e3d6000fd5b505050506040513d6000823e601f3d908101601f1916820160405262000c629190810190620029ce565b60405160200162000c74919062002b0a565b60405160208183030381529060405280519060200120141562000d5b57604051636d83a71f60e01b81526001600160a01b038581166004830152881690636d83a71f90602401602060405180830381600087803b15801562000cd557600080fd5b505af115801562000cea573d6000803e3d6000fd5b505050506040513d601f19601f8201168201806040525081019062000d10919062002975565b5062000d3d84600a62000d2586600962002c3a565b62000d31919062002c19565b62000b87908562002bfe565b60005462000bb9906001600160a01b031662000b87600a8662002c19565b60405162461bcd60e51b815260206004820152602360248201527f6576656e742061646d696e20656e74657265642020696e76616c69642077696e6044820152623732b960e91b60648201526084016200048f565b50600198975050505050505050565b6002546040805163179f907d60e01b815290516000926001600160a01b0316918391839163179f907d91600480830192602092919082900301818787803b15801562000e0a57600080fd5b505af115801562000e1f573d6000803e3d6000fd5b505050506040513d601f19601f8201168201806040525081019062000e459190620028cb565b9050336001600160a01b0382161462000e725760405162461bcd60e51b81526004016200048f9062002b5d565b60045460ff161562000e875760019250505090565b6004805460ff191660019081179091559250505090565b825160009062000eb6906001906020870190620027a1565b50825162000ecc906005906020860190620027a1565b50815162000ee2906007906020850190620027a1565b50600190505b9392505050565b60058054620005bd9062002ccb565b6009818154811062000f0f57600080fd5b60009182526020909120600390910201805460018201546002909201546001600160a01b03909116925060ff1683565b600f546040805163c45a015560e01b815290516000926001600160a01b03169163c45a0155916004808301926020929190829003018186803b15801562000f8557600080fd5b505afa15801562000f9a573d6000803e3d6000fd5b505050506040513d601f19601f8201168201806040525081019062000fc09190620028cb565b6001600160a01b0316336001600160a01b031614620010525760405162461bcd60e51b815260206004820152604160248201527f6f6e6c792077656233626574732066697865646f64647320666163746f72792060448201527f636f6e74726163742063616e20637265617465207468697320636f6e747261636064820152601d60fa1b608482015260a4016200048f565b6200105d8562001482565b620010d15760405162461bcd60e51b815260206004820152603760248201527f5468652061646472657373206973206e6f7420612076616c696420626574206360448201527f6f6e747261637420666f722074686973206d61726b657400000000000000000060648201526084016200048f565b60405164736964654160d81b602082015260250160405160208183030381529060405280519060200120826040516020016200110e919062002b0a565b6040516020818303038152906040528051906020012014156200114c576200113986868686620015c5565b62001146858585620016dd565b620011c1565b6040516439b4b232a160d91b6020820152602501604051602081830303815290604052805190602001208260405160200162001189919062002b0a565b604051602081830303815290604052805190602001201415620011c157620011b48686868662001d87565b620011c185858562001e93565b50600195945050505050565b60078054620005bd9062002ccb565b6002546040805163179f907d60e01b815290516000926001600160a01b0316918391839163179f907d91600480830192602092919082900301818787803b1580156200122757600080fd5b505af11580156200123c573d6000803e3d6000fd5b505050506040513d601f19601f82011682018060405250810190620012629190620028cb565b9050336001600160a01b038216146200128f5760405162461bcd60e51b81526004016200048f9062002b5d565b600254600160a01b900460ff16151560011415620012f05760405162461bcd60e51b815260206004820152601860248201527f57696e6e696e6720506f6f6c20616c726561647920736574000000000000000060448201526064016200048f565b835162001305906003906020870190620027a1565b506002805460ff60a01b1916600160a01b90811791829055900460ff16620013705760405162461bcd60e51b815260206004820152601960248201527f4e6f20506f6f6c20416464726573732077617320666f756e640000000000000060448201526064016200048f565b5060019392505050565b600254604080516305f5f79f60e21b815290516060926001600160a01b03169182916317d7de7c9160048082019260009290919082900301818387803b158015620013c457600080fd5b505af1158015620013d9573d6000803e3d6000fd5b505050506040513d6000823e601f3d908101601f19168201604052620014039190810190620029ce565b91505090565b600b818154811062000f0f57600080fd5b60038054620005bd9062002ccb565b604080516001600160a01b038416602482015260448082018490528251808303909101815260649091019091526020810180516001600160e01b031663a9059cbb60e01b1790526200147d90849062002536565b505050565b6000813b63ffffffff811615620015b65760008390506000816001600160a01b03166380f556056040518163ffffffff1660e01b815260040160206040518083038186803b158015620014d457600080fd5b505afa158015620014e9573d6000803e3d6000fd5b505050506040513d601f19601f820116820180604052508101906200150f9190620028cb565b9050306001600160a01b0316826001600160a01b03166380f556056040518163ffffffff1660e01b815260040160206040518083038186803b1580156200155557600080fd5b505afa1580156200156a573d6000803e3d6000fd5b505050506040513d601f19601f82011682018060405250810190620015909190620028cb565b6001600160a01b03161415620015ab57506001949350505050565b506000949350505050565b50600092915050565b50919050565b8160066000828254620015d9919062002bfe565b9091555050604080516060810182526001600160a01b038581168252602080830186815260ff86811685870190815260098054600181018255600091825296517f6e1540171b6c0c960b71a7020d9f60077f6af931a8bbf590da0223dacf75c7af600390980297880180546001600160a01b03191691881691909117905592517f6e1540171b6c0c960b71a7020d9f60077f6af931a8bbf590da0223dacf75c7b0870155517f6e1540171b6c0c960b71a7020d9f60077f6af931a8bbf590da0223dacf75c7b1909501805460ff191695909116949094179093559087168252600d90529081208054849290620016d190849062002bfe565b90915550505b50505050565b600c54801562001cb057825b670de0b6b3a7640000811062001ca95760008060005b84811015620017a0576000600c82815481106200172c57634e487b7160e01b600052603260045260246000fd5b600091825260209182902060408051606081018252600390930290910180546001600160a01b0316835260018101549383019390935260029092015460ff908116928201839052909250841610156200178a57806040015192508193505b5080620017978162002d02565b915050620016ff565b508460ff168160ff16111562001bc9576000600c8381548110620017d457634e487b7160e01b600052603260045260246000fd5b6000918252602080832060408051606081018252600390940290910180546001600160a01b031680855260018201548585015260029091015460ff168483015281516345564e6560e11b8152915193955093928492638aac9cca9260048082019391829003018186803b1580156200184b57600080fd5b505afa15801562001860573d6000803e3d6000fd5b505050506040513d601f19601f8201168201806040525081019062001886919062002af1565b90506000606462001898818b62002c76565b60ff16838660200151620018ad919062002c5c565b620018b9919062002c3a565b620018c5919062002c19565b905060008a821115620018da575089620018dd565b50805b6000620018ee60ff8c168362002c3a565b90506000308e88600001518585604051620019099062002830565b6001600160a01b03958616815293851660208501529390911660408301526060820152608081019190915260a001604051809103906000f08015801562001954573d6000803e3d6000fd5b509050600c89815481106200197957634e487b7160e01b600052603260045260246000fd5b6000918252602082206003919091020180546001600160a01b03191681556001810191909155600201805460ff19169055604051632d267e0360e11b8152600481018490528e906001600160a01b03821690635a4cfc0690602401602060405180830381600087803b158015620019ef57600080fd5b505af115801562001a04573d6000803e3d6000fd5b505050506040513d601f19601f8201168201806040525081019062001a2a919062002975565b5060405163615bdddb60e11b81526001600160a01b03838116600483015282169063c2b7bbb690602401602060405180830381600087803b15801562001a6f57600080fd5b505af115801562001a84573d6000803e3d6000fd5b505050506040513d601f19601f8201168201806040525081019062001aaa919062002975565b508751604051632d267e0360e11b8152600481018590526001600160a01b03821690635a4cfc0690602401602060405180830381600087803b15801562001af057600080fd5b505af115801562001b05573d6000803e3d6000fd5b505050506040513d601f19601f8201168201806040525081019062001b2b919062002975565b5060405163615bdddb60e11b81526001600160a01b03848116600483015282169063c2b7bbb690602401602060405180830381600087803b15801562001b7057600080fd5b505af115801562001b85573d6000803e3d6000fd5b505050506040513d601f19601f8201168201806040525081019062001bab919062002975565b5062001bb8858d62002c5c565b9b5050505050505050505062001ca1565b5050604080516060810182526001600160a01b0387811682526020820187815260ff878116948401948552600a805460018101825560009190915293517fc65a7bb8d6351c1cf70c95a316cc6a92839c986682d98bc35f958f4883f9d2a8600390950294850180546001600160a01b0319169190941617909255517fc65a7bb8d6351c1cf70c95a316cc6a92839c986682d98bc35f958f4883f9d2a983015591517fc65a7bb8d6351c1cf70c95a316cc6a92839c986682d98bc35f958f4883f9d2aa909101805460ff19169190921617905562001ca9565b5050620016e9565b50620016d7565b50604080516060810182526001600160a01b0394851681526020810193845260ff928316918101918252600a805460018101825560009190915290517fc65a7bb8d6351c1cf70c95a316cc6a92839c986682d98bc35f958f4883f9d2a8600390920291820180546001600160a01b031916919096161790945591517fc65a7bb8d6351c1cf70c95a316cc6a92839c986682d98bc35f958f4883f9d2a984015590517fc65a7bb8d6351c1cf70c95a316cc6a92839c986682d98bc35f958f4883f9d2aa909201805460ff191692909116919091179055565b816008600082825462001d9b919062002bfe565b9091555050604080516060810182526001600160a01b038581168252602080830186815260ff868116858701908152600b8054600181018255600091825296517f0175b7a638427703f0dbe7bb9bbf987a2551717b34e79f33b5b1008d1fa01db9600390980297880180546001600160a01b03191691881691909117905592517f0175b7a638427703f0dbe7bb9bbf987a2551717b34e79f33b5b1008d1fa01dba870155517f0175b7a638427703f0dbe7bb9bbf987a2551717b34e79f33b5b1008d1fa01dbb909501805460ff191695909116949094179093559087168252600e90529081208054849290620016d190849062002bfe565b600a5480156200245f57825b670de0b6b3a7640000811062001ca95760008060005b8481101562001f56576000600a828154811062001ee257634e487b7160e01b600052603260045260246000fd5b600091825260209182902060408051606081018252600390930290910180546001600160a01b0316835260018101549383019390935260029092015460ff9081169282018390529092508416101562001f4057806040015192508193505b508062001f4d8162002d02565b91505062001eb5565b508460ff168160ff1611156200237f576000600a838154811062001f8a57634e487b7160e01b600052603260045260246000fd5b6000918252602080832060408051606081018252600390940290910180546001600160a01b031680855260018201548585015260029091015460ff168483015281516345564e6560e11b8152915193955093928492638aac9cca9260048082019391829003018186803b1580156200200157600080fd5b505afa15801562002016573d6000803e3d6000fd5b505050506040513d601f19601f820116820180604052508101906200203c919062002af1565b9050600060646200204e818b62002c76565b60ff1683866020015162002063919062002c5c565b6200206f919062002c3a565b6200207b919062002c19565b905060008a8211156200209057508962002093565b50805b6000620020a460ff8c168362002c3a565b905060003087600001518f8486604051620020bf9062002830565b6001600160a01b03958616815293851660208501529390911660408301526060820152608081019190915260a001604051809103906000f0801580156200210a573d6000803e3d6000fd5b509050600a89815481106200212f57634e487b7160e01b600052603260045260246000fd5b6000918252602082206003919091020180546001600160a01b03191681556001810191909155600201805460ff19169055604051632d267e0360e11b8152600481018490528e906001600160a01b03821690635a4cfc0690602401602060405180830381600087803b158015620021a557600080fd5b505af1158015620021ba573d6000803e3d6000fd5b505050506040513d601f19601f82011682018060405250810190620021e0919062002975565b5060405163615bdddb60e11b81526001600160a01b03838116600483015282169063c2b7bbb690602401602060405180830381600087803b1580156200222557600080fd5b505af11580156200223a573d6000803e3d6000fd5b505050506040513d601f19601f8201168201806040525081019062002260919062002975565b508751604051632d267e0360e11b8152600481018590526001600160a01b03821690635a4cfc0690602401602060405180830381600087803b158015620022a657600080fd5b505af1158015620022bb573d6000803e3d6000fd5b505050506040513d601f19601f82011682018060405250810190620022e1919062002975565b5060405163615bdddb60e11b81526001600160a01b03848116600483015282169063c2b7bbb690602401602060405180830381600087803b1580156200232657600080fd5b505af11580156200233b573d6000803e3d6000fd5b505050506040513d601f19601f8201168201806040525081019062002361919062002975565b506200236e848d62002c5c565b9b5050505050505050505062002457565b5050604080516060810182526001600160a01b0387811682526020820187815260ff878116948401948552600c805460018101825560009190915293517fdf6966c971051c3d54ec59162606531493a51404a002842f56009d7e5cf4a8c7600390950294850180546001600160a01b0319169190941617909255517fdf6966c971051c3d54ec59162606531493a51404a002842f56009d7e5cf4a8c883015591517fdf6966c971051c3d54ec59162606531493a51404a002842f56009d7e5cf4a8c9909101805460ff19169190921617905562001ca9565b505062001e9f565b50604080516060810182526001600160a01b0394851681526020810193845260ff928316918101918252600c805460018101825560009190915290517fdf6966c971051c3d54ec59162606531493a51404a002842f56009d7e5cf4a8c7600390920291820180546001600160a01b031916919096161790945591517fdf6966c971051c3d54ec59162606531493a51404a002842f56009d7e5cf4a8c884015590517fdf6966c971051c3d54ec59162606531493a51404a002842f56009d7e5cf4a8c9909201805460ff191692909116919091179055565b60006200258d826040518060400160405280602081526020017f5361666545524332303a206c6f772d6c6576656c2063616c6c206661696c6564815250856001600160a01b03166200260f9092919063ffffffff16565b8051909150156200147d5780806020019051810190620025ae919062002975565b6200147d5760405162461bcd60e51b815260206004820152602a60248201527f5361666545524332303a204552433230206f7065726174696f6e20646964206e6044820152691bdd081cdd58d8d9595960b21b60648201526084016200048f565b606062002620848460008562002628565b949350505050565b6060824710156200268b5760405162461bcd60e51b815260206004820152602660248201527f416464726573733a20696e73756666696369656e742062616c616e636520666f6044820152651c8818d85b1b60d21b60648201526084016200048f565b6001600160a01b0385163b620026e45760405162461bcd60e51b815260206004820152601d60248201527f416464726573733a2063616c6c20746f206e6f6e2d636f6e747261637400000060448201526064016200048f565b600080866001600160a01b0316858760405162002702919062002b0a565b60006040518083038185875af1925050503d806000811462002741576040519150601f19603f3d011682016040523d82523d6000602084013e62002746565b606091505b50915091506200275882828662002763565b979650505050505050565b606083156200277457508162000ee8565b825115620027855782518084602001fd5b8160405162461bcd60e51b81526004016200048f919062002b28565b828054620027af9062002ccb565b90600052602060002090601f016020900481019282620027d357600085556200281e565b82601f10620027ee57805160ff19168380011785556200281e565b828001600101855582156200281e579182015b828111156200281e57825182559160200191906001019062002801565b506200282c9291506200283e565b5090565b6105f28062002d6683390190565b5b808211156200282c57600081556001016200283f565b600082601f83011262002866578081fd5b81356200287d620028778262002bd3565b62002b9f565b81815284602083860101111562002892578283fd5b816020850160208301379081016020019190915292915050565b600060208284031215620028be578081fd5b813562000ee88162002d4c565b600060208284031215620028dd578081fd5b815162000ee88162002d4c565b600080600080600060a0868803121562002902578081fd5b85356200290f8162002d4c565b94506020860135620029218162002d4c565b935060408601359250606086013560ff811681146200293e578182fd5b9150608086013567ffffffffffffffff8111156200295a578182fd5b620029688882890162002855565b9150509295509295909350565b60006020828403121562002987578081fd5b8151801515811462000ee8578182fd5b600060208284031215620029a9578081fd5b813567ffffffffffffffff811115620029c0578182fd5b620026208482850162002855565b600060208284031215620029e0578081fd5b815167ffffffffffffffff811115620029f7578182fd5b8201601f8101841362002a08578182fd5b805162002a19620028778262002bd3565b81815285602083850101111562002a2e578384fd5b62002a4182602083016020860162002c9c565b95945050505050565b60008060006060848603121562002a5f578283fd5b833567ffffffffffffffff8082111562002a77578485fd5b62002a858783880162002855565b9450602086013591508082111562002a9b578384fd5b62002aa98783880162002855565b9350604086013591508082111562002abf578283fd5b5062002ace8682870162002855565b9150509250925092565b60006020828403121562002aea578081fd5b5035919050565b60006020828403121562002b03578081fd5b5051919050565b6000825162002b1e81846020870162002c9c565b9190910192915050565b602081526000825180602084015262002b4981604085016020870162002c9c565b601f01601f19169190910160400192915050565b60208082526022908201527f4f6e6c79206576656e74206f776e657273207365742077696e6e696e6720706f6040820152611bdb60f21b606082015260800190565b604051601f8201601f1916810167ffffffffffffffff8111828210171562002bcb5762002bcb62002d36565b604052919050565b600067ffffffffffffffff82111562002bf05762002bf062002d36565b50601f01601f191660200190565b6000821982111562002c145762002c1462002d20565b500190565b60008262002c3557634e487b7160e01b81526012600452602481fd5b500490565b600081600019048311821515161562002c575762002c5762002d20565b500290565b60008282101562002c715762002c7162002d20565b500390565b600060ff821660ff84168082101562002c935762002c9362002d20565b90039392505050565b60005b8381101562002cb957818101518382015260200162002c9f565b83811115620016d75750506000910152565b600181811c9082168062002ce057607f821691505b60208210811415620015bf57634e487b7160e01b600052602260045260246000fd5b600060001982141562002d195762002d1962002d20565b5060010190565b634e487b7160e01b600052601160045260246000fd5b634e487b7160e01b600052604160045260246000fd5b6001600160a01b038116811462002d6257600080fd5b5056fe6080604052600054600880546001600160a01b0319166001600160a01b0390921691909117905534801561003257600080fd5b506040516105f23803806105f2833981016040819052610051916101f4565b600860009054906101000a90046001600160a01b03166001600160a01b031663c45a01556040518163ffffffff1660e01b815260040160206040518083038186803b15801561009f57600080fd5b505afa1580156100b3573d6000803e3d6000fd5b505050506040513d601f19601f820116820180604052508101906100d791906101d3565b6001600160a01b0316336001600160a01b03161461016b5760405162461bcd60e51b815260206004820152604160248201527f6f6e6c792077656233626574732066697865646f64647320666163746f72792060448201527f636f6e74726163742063616e20637265617465207468697320636f6e747261636064820152601d60fa1b608482015260a40160405180910390fd5b600180546001600160a01b03199081166001600160a01b039788161790915560028054821695871695909517909455600380549094169290941691909117909155600655600755610249565b80516001600160a01b03811681146101ce57600080fd5b919050565b6000602082840312156101e4578081fd5b6101ed826101b7565b9392505050565b600080600080600060a0868803121561020b578081fd5b610214866101b7565b9450610222602087016101b7565b9350610230604087016101b7565b6060870151608090970151959894975095949392505050565b61039a806102586000396000f3fe608060405234801561001057600080fd5b50600436106100885760003560e01c80636d83a71f1161005b5780636d83a71f146100f057806380f5560514610113578063baa1a3ec14610126578063ed7a4e0b1461013957600080fd5b80630f765e6d1461008d578063156dcbf0146100bd57806315e894ab146100d45780632efe91ef146100e7575b600080fd5b6003546100a0906001600160a01b031681565b6040516001600160a01b0390911681526020015b60405180910390f35b6100c660065481565b6040519081526020016100b4565b6002546100a0906001600160a01b031681565b6100c660075481565b6101036100fe366004610311565b61014c565b60405190151581526020016100b4565b6001546100a0906001600160a01b031681565b6004546100a0906001600160a01b031681565b6005546100a0906001600160a01b031681565b6008546040805163c45a015560e01b815290516000926001600160a01b03169163c45a0155916004808301926020929190829003018186803b15801561019157600080fd5b505afa1580156101a5573d6000803e3d6000fd5b505050506040513d601f19601f820116820180604052508101906101c99190610334565b6001600160a01b0316336001600160a01b03161461025d5760405162461bcd60e51b815260206004820152604160248201527f6f6e6c792077656233626574732066697865646f64647320666163746f72792060448201527f636f6e74726163742063616e20637265617465207468697320636f6e747261636064820152601d60fa1b608482015260a40160405180910390fd5b600480546001600160a01b0319166001600160a01b038416908117825560408051631c631f5160e21b815290519192839263718c7d44928083019260209291829003018186803b1580156102b057600080fd5b505afa1580156102c4573d6000803e3d6000fd5b505050506040513d601f19601f820116820180604052508101906102e89190610334565b600580546001600160a01b0319166001600160a01b039290921691909117905550600192915050565b600060208284031215610322578081fd5b813561032d8161034c565b9392505050565b600060208284031215610345578081fd5b815161032d815b6001600160a01b038116811461036157600080fd5b5056fea2646970667358221220f0654fc2f171d40f835529ac1d144419862a30912843c4c943100fd38846aa0964736f6c63430008040033a26469706673582212202660fee0ac63ea96e68cc99d44d5e9f296e12cfdcfd238ce99fdc978688c4dfc64736f6c63430008040033",
					"opcodes": "PUSH1 0x80 PUSH1 0x40 DUP2 SWAP1 MSTORE PUSH1 0x4 DUP1 SLOAD PUSH1 0xFF NOT AND DUP2 SSTORE PUSH1 0x0 PUSH1 0x6 DUP2 SWAP1 SSTORE PUSH1 0x8 DUP2 SWAP1 SSTORE SLOAD PUSH1 0xF DUP1 SLOAD PUSH1 0x1 PUSH1 0x1 PUSH1 0xA0 SHL SUB NOT AND PUSH1 0x1 PUSH1 0x1 PUSH1 0xA0 SHL SUB SWAP1 SWAP3 AND SWAP2 DUP3 OR SWAP1 SSTORE PUSH4 0x992642E5 PUSH1 0xE0 SHL DUP4 MSTORE SWAP2 PUSH4 0x992642E5 SWAP2 PUSH1 0x84 SWAP2 PUSH1 0x20 SWAP2 DUP2 DUP7 DUP1 EXTCODESIZE ISZERO DUP1 ISZERO PUSH3 0x63 JUMPI PUSH1 0x0 DUP1 REVERT JUMPDEST POP GAS STATICCALL ISZERO DUP1 ISZERO PUSH3 0x78 JUMPI RETURNDATASIZE PUSH1 0x0 DUP1 RETURNDATACOPY RETURNDATASIZE PUSH1 0x0 REVERT JUMPDEST POP POP POP POP PUSH1 0x40 MLOAD RETURNDATASIZE PUSH1 0x1F NOT PUSH1 0x1F DUP3 ADD AND DUP3 ADD DUP1 PUSH1 0x40 MSTORE POP DUP2 ADD SWAP1 PUSH3 0x9E SWAP2 SWAP1 PUSH3 0x3F5 JUMP JUMPDEST PUSH1 0x10 DUP1 SLOAD PUSH1 0x1 PUSH1 0x1 PUSH1 0xA0 SHL SUB SWAP3 SWAP1 SWAP3 AND PUSH1 0x1 PUSH1 0x1 PUSH1 0xA0 SHL SUB NOT SWAP3 DUP4 AND DUP2 OR SWAP1 SWAP2 SSTORE PUSH1 0x11 DUP1 SLOAD SWAP1 SWAP3 AND OR SWAP1 SSTORE CALLVALUE DUP1 ISZERO PUSH3 0xD6 JUMPI PUSH1 0x0 DUP1 REVERT JUMPDEST POP PUSH1 0x40 MLOAD PUSH3 0x38A9 CODESIZE SUB DUP1 PUSH3 0x38A9 DUP4 CODECOPY DUP2 ADD PUSH1 0x40 DUP2 SWAP1 MSTORE PUSH3 0xF9 SWAP2 PUSH3 0x419 JUMP JUMPDEST PUSH1 0xF PUSH1 0x0 SWAP1 SLOAD SWAP1 PUSH2 0x100 EXP SWAP1 DIV PUSH1 0x1 PUSH1 0x1 PUSH1 0xA0 SHL SUB AND PUSH1 0x1 PUSH1 0x1 PUSH1 0xA0 SHL SUB AND PUSH4 0xC45A0155 PUSH1 0x40 MLOAD DUP2 PUSH4 0xFFFFFFFF AND PUSH1 0xE0 SHL DUP2 MSTORE PUSH1 0x4 ADD PUSH1 0x20 PUSH1 0x40 MLOAD DUP1 DUP4 SUB DUP2 DUP7 DUP1 EXTCODESIZE ISZERO DUP1 ISZERO PUSH3 0x148 JUMPI PUSH1 0x0 DUP1 REVERT JUMPDEST POP GAS STATICCALL ISZERO DUP1 ISZERO PUSH3 0x15D JUMPI RETURNDATASIZE PUSH1 0x0 DUP1 RETURNDATACOPY RETURNDATASIZE PUSH1 0x0 REVERT JUMPDEST POP POP POP POP PUSH1 0x40 MLOAD RETURNDATASIZE PUSH1 0x1F NOT PUSH1 0x1F DUP3 ADD AND DUP3 ADD DUP1 PUSH1 0x40 MSTORE POP DUP2 ADD SWAP1 PUSH3 0x183 SWAP2 SWAP1 PUSH3 0x3F5 JUMP JUMPDEST PUSH1 0x1 PUSH1 0x1 PUSH1 0xA0 SHL SUB AND CALLER PUSH1 0x1 PUSH1 0x1 PUSH1 0xA0 SHL SUB AND EQ PUSH3 0x218 JUMPI PUSH1 0x40 MLOAD PUSH3 0x461BCD PUSH1 0xE5 SHL DUP2 MSTORE PUSH1 0x20 PUSH1 0x4 DUP3 ADD MSTORE PUSH1 0x41 PUSH1 0x24 DUP3 ADD MSTORE PUSH32 0x6F6E6C792077656233626574732066697865646F64647320666163746F727920 PUSH1 0x44 DUP3 ADD MSTORE PUSH32 0x636F6E74726163742063616E20637265617465207468697320636F6E74726163 PUSH1 0x64 DUP3 ADD MSTORE PUSH1 0x1D PUSH1 0xFA SHL PUSH1 0x84 DUP3 ADD MSTORE PUSH1 0xA4 ADD PUSH1 0x40 MLOAD DUP1 SWAP2 SUB SWAP1 REVERT JUMPDEST DUP4 MLOAD PUSH3 0x22D SWAP1 PUSH1 0x1 SWAP1 PUSH1 0x20 DUP8 ADD SWAP1 PUSH3 0x27F JUMP JUMPDEST POP PUSH1 0x2 DUP1 SLOAD PUSH1 0x1 PUSH1 0x1 PUSH1 0xA0 SHL SUB NOT AND PUSH1 0x1 PUSH1 0x1 PUSH1 0xA0 SHL SUB DUP6 AND OR SWAP1 SSTORE DUP2 MLOAD PUSH3 0x25E SWAP1 PUSH1 0x5 SWAP1 PUSH1 0x20 DUP6 ADD SWAP1 PUSH3 0x27F JUMP JUMPDEST POP DUP1 MLOAD PUSH3 0x274 SWAP1 PUSH1 0x7 SWAP1 PUSH1 0x20 DUP5 ADD SWAP1 PUSH3 0x27F JUMP JUMPDEST POP POP POP POP POP PUSH3 0x50C JUMP JUMPDEST DUP3 DUP1 SLOAD PUSH3 0x28D SWAP1 PUSH3 0x4B9 JUMP JUMPDEST SWAP1 PUSH1 0x0 MSTORE PUSH1 0x20 PUSH1 0x0 KECCAK256 SWAP1 PUSH1 0x1F ADD PUSH1 0x20 SWAP1 DIV DUP2 ADD SWAP3 DUP3 PUSH3 0x2B1 JUMPI PUSH1 0x0 DUP6 SSTORE PUSH3 0x2FC JUMP JUMPDEST DUP3 PUSH1 0x1F LT PUSH3 0x2CC JUMPI DUP1 MLOAD PUSH1 0xFF NOT AND DUP4 DUP1 ADD OR DUP6 SSTORE PUSH3 0x2FC JUMP JUMPDEST DUP3 DUP1 ADD PUSH1 0x1 ADD DUP6 SSTORE DUP3 ISZERO PUSH3 0x2FC JUMPI SWAP2 DUP3 ADD JUMPDEST DUP3 DUP2 GT ISZERO PUSH3 0x2FC JUMPI DUP3 MLOAD DUP3 SSTORE SWAP2 PUSH1 0x20 ADD SWAP2 SWAP1 PUSH1 0x1 ADD SWAP1 PUSH3 0x2DF JUMP JUMPDEST POP PUSH3 0x30A SWAP3 SWAP2 POP PUSH3 0x30E JUMP JUMPDEST POP SWAP1 JUMP JUMPDEST JUMPDEST DUP1 DUP3 GT ISZERO PUSH3 0x30A JUMPI PUSH1 0x0 DUP2 SSTORE PUSH1 0x1 ADD PUSH3 0x30F JUMP JUMPDEST DUP1 MLOAD PUSH1 0x1 PUSH1 0x1 PUSH1 0xA0 SHL SUB DUP2 AND DUP2 EQ PUSH3 0x33D JUMPI PUSH1 0x0 DUP1 REVERT JUMPDEST SWAP2 SWAP1 POP JUMP JUMPDEST PUSH1 0x0 DUP3 PUSH1 0x1F DUP4 ADD SLT PUSH3 0x353 JUMPI DUP1 DUP2 REVERT JUMPDEST DUP2 MLOAD PUSH1 0x1 PUSH1 0x1 PUSH1 0x40 SHL SUB DUP1 DUP3 GT ISZERO PUSH3 0x370 JUMPI PUSH3 0x370 PUSH3 0x4F6 JUMP JUMPDEST PUSH1 0x40 MLOAD PUSH1 0x1F DUP4 ADD PUSH1 0x1F NOT SWAP1 DUP2 AND PUSH1 0x3F ADD AND DUP2 ADD SWAP1 DUP3 DUP3 GT DUP2 DUP4 LT OR ISZERO PUSH3 0x39B JUMPI PUSH3 0x39B PUSH3 0x4F6 JUMP JUMPDEST DUP2 PUSH1 0x40 MSTORE DUP4 DUP2 MSTORE PUSH1 0x20 SWAP3 POP DUP7 DUP4 DUP6 DUP9 ADD ADD GT ISZERO PUSH3 0x3B7 JUMPI DUP5 DUP6 REVERT JUMPDEST DUP5 SWAP2 POP JUMPDEST DUP4 DUP3 LT ISZERO PUSH3 0x3DA JUMPI DUP6 DUP3 ADD DUP4 ADD MLOAD DUP2 DUP4 ADD DUP5 ADD MSTORE SWAP1 DUP3 ADD SWAP1 PUSH3 0x3BB JUMP JUMPDEST DUP4 DUP3 GT ISZERO PUSH3 0x3EB JUMPI DUP5 DUP4 DUP6 DUP4 ADD ADD MSTORE JUMPDEST SWAP7 SWAP6 POP POP POP POP POP POP JUMP JUMPDEST PUSH1 0x0 PUSH1 0x20 DUP3 DUP5 SUB SLT ISZERO PUSH3 0x407 JUMPI DUP1 DUP2 REVERT JUMPDEST PUSH3 0x412 DUP3 PUSH3 0x325 JUMP JUMPDEST SWAP4 SWAP3 POP POP POP JUMP JUMPDEST PUSH1 0x0 DUP1 PUSH1 0x0 DUP1 PUSH1 0x80 DUP6 DUP8 SUB SLT ISZERO PUSH3 0x42F JUMPI DUP3 DUP4 REVERT JUMPDEST DUP5 MLOAD PUSH1 0x1 PUSH1 0x1 PUSH1 0x40 SHL SUB DUP1 DUP3 GT ISZERO PUSH3 0x446 JUMPI DUP5 DUP6 REVERT JUMPDEST PUSH3 0x454 DUP9 DUP4 DUP10 ADD PUSH3 0x342 JUMP JUMPDEST SWAP6 POP PUSH3 0x464 PUSH1 0x20 DUP9 ADD PUSH3 0x325 JUMP JUMPDEST SWAP5 POP PUSH1 0x40 DUP8 ADD MLOAD SWAP2 POP DUP1 DUP3 GT ISZERO PUSH3 0x47A JUMPI DUP4 DUP5 REVERT JUMPDEST PUSH3 0x488 DUP9 DUP4 DUP10 ADD PUSH3 0x342 JUMP JUMPDEST SWAP4 POP PUSH1 0x60 DUP8 ADD MLOAD SWAP2 POP DUP1 DUP3 GT ISZERO PUSH3 0x49E JUMPI DUP3 DUP4 REVERT JUMPDEST POP PUSH3 0x4AD DUP8 DUP3 DUP9 ADD PUSH3 0x342 JUMP JUMPDEST SWAP2 POP POP SWAP3 SWAP6 SWAP2 SWAP5 POP SWAP3 POP JUMP JUMPDEST PUSH1 0x1 DUP2 DUP2 SHR SWAP1 DUP3 AND DUP1 PUSH3 0x4CE JUMPI PUSH1 0x7F DUP3 AND SWAP2 POP JUMPDEST PUSH1 0x20 DUP3 LT DUP2 EQ ISZERO PUSH3 0x4F0 JUMPI PUSH4 0x4E487B71 PUSH1 0xE0 SHL PUSH1 0x0 MSTORE PUSH1 0x22 PUSH1 0x4 MSTORE PUSH1 0x24 PUSH1 0x0 REVERT JUMPDEST POP SWAP2 SWAP1 POP JUMP JUMPDEST PUSH4 0x4E487B71 PUSH1 0xE0 SHL PUSH1 0x0 MSTORE PUSH1 0x41 PUSH1 0x4 MSTORE PUSH1 0x24 PUSH1 0x0 REVERT JUMPDEST PUSH2 0x338D DUP1 PUSH3 0x51C PUSH1 0x0 CODECOPY PUSH1 0x0 RETURN INVALID PUSH1 0x80 PUSH1 0x40 MSTORE CALLVALUE DUP1 ISZERO PUSH3 0x11 JUMPI PUSH1 0x0 DUP1 REVERT JUMPDEST POP PUSH1 0x4 CALLDATASIZE LT PUSH3 0x151 JUMPI PUSH1 0x0 CALLDATALOAD PUSH1 0xE0 SHR DUP1 PUSH4 0x8EB1A4AD GT PUSH3 0xC7 JUMPI DUP1 PUSH4 0xB81E43FC GT PUSH3 0x86 JUMPI DUP1 PUSH4 0xB81E43FC EQ PUSH3 0x2CC JUMPI DUP1 PUSH4 0xBD92630C EQ PUSH3 0x2D6 JUMPI DUP1 PUSH4 0xD37E2996 EQ PUSH3 0x2EB JUMPI DUP1 PUSH4 0xE7C9A87F EQ PUSH3 0x2F5 JUMPI DUP1 PUSH4 0xFAD56779 EQ PUSH3 0x30C JUMPI DUP1 PUSH4 0xFBF06338 EQ PUSH3 0x339 JUMPI PUSH1 0x0 DUP1 REVERT JUMPDEST DUP1 PUSH4 0x8EB1A4AD EQ PUSH3 0x24A JUMPI DUP1 PUSH4 0x948FB24D EQ PUSH3 0x254 JUMPI DUP1 PUSH4 0x9BF5B845 EQ PUSH3 0x294 JUMPI DUP1 PUSH4 0xA355F897 EQ PUSH3 0x2AB JUMPI DUP1 PUSH4 0xB40A4F05 EQ PUSH3 0x2B5 JUMPI PUSH1 0x0 DUP1 REVERT JUMPDEST DUP1 PUSH4 0x2B4A3527 GT PUSH3 0x114 JUMPI DUP1 PUSH4 0x2B4A3527 EQ PUSH3 0x1CC JUMPI DUP1 PUSH4 0x3AB8781C EQ PUSH3 0x1E3 JUMPI DUP1 PUSH4 0x5A358464 EQ PUSH3 0x206 JUMPI DUP1 PUSH4 0x6BFEFD6B EQ PUSH3 0x229 JUMPI DUP1 PUSH4 0x83BBE262 EQ PUSH3 0x233 JUMPI PUSH1 0x0 DUP1 REVERT JUMPDEST DUP1 PUSH4 0x3AFD56B EQ PUSH3 0x156 JUMPI DUP1 PUSH4 0x6FDDE03 EQ PUSH3 0x182 JUMPI DUP1 PUSH4 0xB469BDA EQ PUSH3 0x19B JUMPI DUP1 PUSH4 0xED5A933 EQ PUSH3 0x1B4 JUMPI DUP1 PUSH4 0x17D7DE7C EQ PUSH3 0x1C2 JUMPI JUMPDEST PUSH1 0x0 DUP1 REVERT JUMPDEST PUSH3 0x16D PUSH3 0x167 CALLDATASIZE PUSH1 0x4 PUSH3 0x28AC JUMP JUMPDEST PUSH3 0x343 JUMP JUMPDEST PUSH1 0x40 MLOAD SWAP1 ISZERO ISZERO DUP2 MSTORE PUSH1 0x20 ADD JUMPDEST PUSH1 0x40 MLOAD DUP1 SWAP2 SUB SWAP1 RETURN JUMPDEST PUSH3 0x18C PUSH3 0x5AE JUMP JUMPDEST PUSH1 0x40 MLOAD PUSH3 0x179 SWAP2 SWAP1 PUSH3 0x2B28 JUMP JUMPDEST PUSH3 0x1A5 PUSH1 0x8 SLOAD DUP2 JUMP JUMPDEST PUSH1 0x40 MLOAD SWAP1 DUP2 MSTORE PUSH1 0x20 ADD PUSH3 0x179 JUMP JUMPDEST PUSH1 0x4 SLOAD PUSH3 0x16D SWAP1 PUSH1 0xFF AND DUP2 JUMP JUMPDEST PUSH3 0x18C PUSH3 0x644 JUMP JUMPDEST PUSH3 0x16D PUSH3 0x1DD CALLDATASIZE PUSH1 0x4 PUSH3 0x28AC JUMP JUMPDEST PUSH3 0x6DE JUMP JUMPDEST PUSH3 0x1A5 PUSH3 0x1F4 CALLDATASIZE PUSH1 0x4 PUSH3 0x28AC JUMP JUMPDEST PUSH1 0xD PUSH1 0x20 MSTORE PUSH1 0x0 SWAP1 DUP2 MSTORE PUSH1 0x40 SWAP1 KECCAK256 SLOAD DUP2 JUMP JUMPDEST PUSH3 0x1A5 PUSH3 0x217 CALLDATASIZE PUSH1 0x4 PUSH3 0x28AC JUMP JUMPDEST PUSH1 0xE PUSH1 0x20 MSTORE PUSH1 0x0 SWAP1 DUP2 MSTORE PUSH1 0x40 SWAP1 KECCAK256 SLOAD DUP2 JUMP JUMPDEST PUSH3 0x16D PUSH3 0xDBF JUMP JUMPDEST PUSH3 0x16D PUSH3 0x244 CALLDATASIZE PUSH1 0x4 PUSH3 0x2A4A JUMP JUMPDEST PUSH3 0xE9E JUMP JUMPDEST PUSH3 0x18C PUSH3 0xEEF JUMP JUMPDEST PUSH3 0x26B PUSH3 0x265 CALLDATASIZE PUSH1 0x4 PUSH3 0x2AD8 JUMP JUMPDEST PUSH3 0xEFE JUMP JUMPDEST PUSH1 0x40 DUP1 MLOAD PUSH1 0x1 PUSH1 0x1 PUSH1 0xA0 SHL SUB SWAP1 SWAP5 AND DUP5 MSTORE PUSH1 0x20 DUP5 ADD SWAP3 SWAP1 SWAP3 MSTORE PUSH1 0xFF AND SWAP1 DUP3 ADD MSTORE PUSH1 0x60 ADD PUSH3 0x179 JUMP JUMPDEST PUSH3 0x16D PUSH3 0x2A5 CALLDATASIZE PUSH1 0x4 PUSH3 0x28EA JUMP JUMPDEST PUSH3 0xF3F JUMP JUMPDEST PUSH3 0x18C PUSH3 0x11CD JUMP JUMPDEST PUSH3 0x16D PUSH3 0x2C6 CALLDATASIZE PUSH1 0x4 PUSH3 0x2997 JUMP JUMPDEST PUSH3 0x11DC JUMP JUMPDEST PUSH3 0x18C PUSH3 0x137A JUMP JUMPDEST PUSH1 0x2 SLOAD PUSH3 0x16D SWAP1 PUSH1 0x1 PUSH1 0xA0 SHL SWAP1 DIV PUSH1 0xFF AND DUP2 JUMP JUMPDEST PUSH3 0x1A5 PUSH1 0x6 SLOAD DUP2 JUMP JUMPDEST PUSH3 0x26B PUSH3 0x306 CALLDATASIZE PUSH1 0x4 PUSH3 0x2AD8 JUMP JUMPDEST PUSH3 0x1409 JUMP JUMPDEST PUSH1 0x2 SLOAD PUSH3 0x320 SWAP1 PUSH1 0x1 PUSH1 0x1 PUSH1 0xA0 SHL SUB AND DUP2 JUMP JUMPDEST PUSH1 0x40 MLOAD PUSH1 0x1 PUSH1 0x1 PUSH1 0xA0 SHL SUB SWAP1 SWAP2 AND DUP2 MSTORE PUSH1 0x20 ADD PUSH3 0x179 JUMP JUMPDEST PUSH3 0x18C PUSH3 0x141A JUMP JUMPDEST PUSH1 0x0 DUP1 DUP3 SWAP1 POP PUSH1 0x0 DUP2 PUSH1 0x1 PUSH1 0x1 PUSH1 0xA0 SHL SUB AND PUSH4 0x8AAC9CCA PUSH1 0x40 MLOAD DUP2 PUSH4 0xFFFFFFFF AND PUSH1 0xE0 SHL DUP2 MSTORE PUSH1 0x4 ADD PUSH1 0x20 PUSH1 0x40 MLOAD DUP1 DUP4 SUB DUP2 DUP7 DUP1 EXTCODESIZE ISZERO DUP1 ISZERO PUSH3 0x385 JUMPI PUSH1 0x0 DUP1 REVERT JUMPDEST POP GAS STATICCALL ISZERO DUP1 ISZERO PUSH3 0x39A JUMPI RETURNDATASIZE PUSH1 0x0 DUP1 RETURNDATACOPY RETURNDATASIZE PUSH1 0x0 REVERT JUMPDEST POP POP POP POP PUSH1 0x40 MLOAD RETURNDATASIZE PUSH1 0x1F NOT PUSH1 0x1F DUP3 ADD AND DUP3 ADD DUP1 PUSH1 0x40 MSTORE POP DUP2 ADD SWAP1 PUSH3 0x3C0 SWAP2 SWAP1 PUSH3 0x2AF1 JUMP JUMPDEST DUP3 PUSH1 0x1 PUSH1 0x1 PUSH1 0xA0 SHL SUB AND PUSH4 0x3A4B66F1 PUSH1 0x40 MLOAD DUP2 PUSH4 0xFFFFFFFF AND PUSH1 0xE0 SHL DUP2 MSTORE PUSH1 0x4 ADD PUSH1 0x20 PUSH1 0x40 MLOAD DUP1 DUP4 SUB DUP2 DUP7 DUP1 EXTCODESIZE ISZERO DUP1 ISZERO PUSH3 0x3FA JUMPI PUSH1 0x0 DUP1 REVERT JUMPDEST POP GAS STATICCALL ISZERO DUP1 ISZERO PUSH3 0x40F JUMPI RETURNDATASIZE PUSH1 0x0 DUP1 RETURNDATACOPY RETURNDATASIZE PUSH1 0x0 REVERT JUMPDEST POP POP POP POP PUSH1 0x40 MLOAD RETURNDATASIZE PUSH1 0x1F NOT PUSH1 0x1F DUP3 ADD AND DUP3 ADD DUP1 PUSH1 0x40 MSTORE POP DUP2 ADD SWAP1 PUSH3 0x435 SWAP2 SWAP1 PUSH3 0x2AF1 JUMP JUMPDEST PUSH3 0x441 SWAP2 SWAP1 PUSH3 0x2C5C JUMP JUMPDEST SWAP1 POP DUP1 SELFBALANCE GT PUSH3 0x498 JUMPI PUSH1 0x40 MLOAD PUSH3 0x461BCD PUSH1 0xE5 SHL DUP2 MSTORE PUSH1 0x20 PUSH1 0x4 DUP3 ADD MSTORE PUSH1 0x18 PUSH1 0x24 DUP3 ADD MSTORE PUSH32 0x54686973206D61726B657420686173206E6F2066756E64730000000000000000 PUSH1 0x44 DUP3 ADD MSTORE PUSH1 0x64 ADD JUMPDEST PUSH1 0x40 MLOAD DUP1 SWAP2 SUB SWAP1 REVERT JUMPDEST PUSH3 0x525 DUP3 PUSH1 0x1 PUSH1 0x1 PUSH1 0xA0 SHL SUB AND PUSH4 0x718C7D44 PUSH1 0x40 MLOAD DUP2 PUSH4 0xFFFFFFFF AND PUSH1 0xE0 SHL DUP2 MSTORE PUSH1 0x4 ADD PUSH1 0x20 PUSH1 0x40 MLOAD DUP1 DUP4 SUB DUP2 DUP7 DUP1 EXTCODESIZE ISZERO DUP1 ISZERO PUSH3 0x4D6 JUMPI PUSH1 0x0 DUP1 REVERT JUMPDEST POP GAS STATICCALL ISZERO DUP1 ISZERO PUSH3 0x4EB JUMPI RETURNDATASIZE PUSH1 0x0 DUP1 RETURNDATACOPY RETURNDATASIZE PUSH1 0x0 REVERT JUMPDEST POP POP POP POP PUSH1 0x40 MLOAD RETURNDATASIZE PUSH1 0x1F NOT PUSH1 0x1F DUP3 ADD AND DUP3 ADD DUP1 PUSH1 0x40 MSTORE POP DUP2 ADD SWAP1 PUSH3 0x511 SWAP2 SWAP1 PUSH3 0x28CB JUMP JUMPDEST PUSH1 0x11 SLOAD PUSH1 0x1 PUSH1 0x1 PUSH1 0xA0 SHL SUB AND SWAP1 DUP4 PUSH3 0x1429 JUMP JUMPDEST PUSH1 0x40 MLOAD PUSH4 0x2D267E03 PUSH1 0xE1 SHL DUP2 MSTORE PUSH1 0x4 DUP2 ADD DUP3 SWAP1 MSTORE PUSH1 0x1 PUSH1 0x1 PUSH1 0xA0 SHL SUB DUP4 AND SWAP1 PUSH4 0x5A4CFC06 SWAP1 PUSH1 0x24 ADD PUSH1 0x20 PUSH1 0x40 MLOAD DUP1 DUP4 SUB DUP2 PUSH1 0x0 DUP8 DUP1 EXTCODESIZE ISZERO DUP1 ISZERO PUSH3 0x568 JUMPI PUSH1 0x0 DUP1 REVERT JUMPDEST POP GAS CALL ISZERO DUP1 ISZERO PUSH3 0x57D JUMPI RETURNDATASIZE PUSH1 0x0 DUP1 RETURNDATACOPY RETURNDATASIZE PUSH1 0x0 REVERT JUMPDEST POP POP POP POP PUSH1 0x40 MLOAD RETURNDATASIZE PUSH1 0x1F NOT PUSH1 0x1F DUP3 ADD AND DUP3 ADD DUP1 PUSH1 0x40 MSTORE POP DUP2 ADD SWAP1 PUSH3 0x5A3 SWAP2 SWAP1 PUSH3 0x2975 JUMP JUMPDEST POP PUSH1 0x1 SWAP5 SWAP4 POP POP POP POP JUMP JUMPDEST PUSH1 0x1 DUP1 SLOAD PUSH3 0x5BD SWAP1 PUSH3 0x2CCB JUMP JUMPDEST DUP1 PUSH1 0x1F ADD PUSH1 0x20 DUP1 SWAP2 DIV MUL PUSH1 0x20 ADD PUSH1 0x40 MLOAD SWAP1 DUP2 ADD PUSH1 0x40 MSTORE DUP1 SWAP3 SWAP2 SWAP1 DUP2 DUP2 MSTORE PUSH1 0x20 ADD DUP3 DUP1 SLOAD PUSH3 0x5EB SWAP1 PUSH3 0x2CCB JUMP JUMPDEST DUP1 ISZERO PUSH3 0x63C JUMPI DUP1 PUSH1 0x1F LT PUSH3 0x610 JUMPI PUSH2 0x100 DUP1 DUP4 SLOAD DIV MUL DUP4 MSTORE SWAP2 PUSH1 0x20 ADD SWAP2 PUSH3 0x63C JUMP JUMPDEST DUP3 ADD SWAP2 SWAP1 PUSH1 0x0 MSTORE PUSH1 0x20 PUSH1 0x0 KECCAK256 SWAP1 JUMPDEST DUP2 SLOAD DUP2 MSTORE SWAP1 PUSH1 0x1 ADD SWAP1 PUSH1 0x20 ADD DUP1 DUP4 GT PUSH3 0x61E JUMPI DUP3 SWAP1 SUB PUSH1 0x1F AND DUP3 ADD SWAP2 JUMPDEST POP POP POP POP POP DUP2 JUMP JUMPDEST PUSH1 0x60 PUSH1 0x1 DUP1 SLOAD PUSH3 0x655 SWAP1 PUSH3 0x2CCB JUMP JUMPDEST DUP1 PUSH1 0x1F ADD PUSH1 0x20 DUP1 SWAP2 DIV MUL PUSH1 0x20 ADD PUSH1 0x40 MLOAD SWAP1 DUP2 ADD PUSH1 0x40 MSTORE DUP1 SWAP3 SWAP2 SWAP1 DUP2 DUP2 MSTORE PUSH1 0x20 ADD DUP3 DUP1 SLOAD PUSH3 0x683 SWAP1 PUSH3 0x2CCB JUMP JUMPDEST DUP1 ISZERO PUSH3 0x6D4 JUMPI DUP1 PUSH1 0x1F LT PUSH3 0x6A8 JUMPI PUSH2 0x100 DUP1 DUP4 SLOAD DIV MUL DUP4 MSTORE SWAP2 PUSH1 0x20 ADD SWAP2 PUSH3 0x6D4 JUMP JUMPDEST DUP3 ADD SWAP2 SWAP1 PUSH1 0x0 MSTORE PUSH1 0x20 PUSH1 0x0 KECCAK256 SWAP1 JUMPDEST DUP2 SLOAD DUP2 MSTORE SWAP1 PUSH1 0x1 ADD SWAP1 PUSH1 0x20 ADD DUP1 DUP4 GT PUSH3 0x6B6 JUMPI DUP3 SWAP1 SUB PUSH1 0x1F AND DUP3 ADD SWAP2 JUMPDEST POP POP POP POP POP SWAP1 POP SWAP1 JUMP JUMPDEST PUSH1 0x0 DUP1 DUP3 SWAP1 POP PUSH1 0x0 DUP2 PUSH1 0x1 PUSH1 0x1 PUSH1 0xA0 SHL SUB AND PUSH4 0x80F55605 PUSH1 0x40 MLOAD DUP2 PUSH4 0xFFFFFFFF AND PUSH1 0xE0 SHL DUP2 MSTORE PUSH1 0x4 ADD PUSH1 0x20 PUSH1 0x40 MLOAD DUP1 DUP4 SUB DUP2 DUP7 DUP1 EXTCODESIZE ISZERO DUP1 ISZERO PUSH3 0x720 JUMPI PUSH1 0x0 DUP1 REVERT JUMPDEST POP GAS STATICCALL ISZERO DUP1 ISZERO PUSH3 0x735 JUMPI RETURNDATASIZE PUSH1 0x0 DUP1 RETURNDATACOPY RETURNDATASIZE PUSH1 0x0 REVERT JUMPDEST POP POP POP POP PUSH1 0x40 MLOAD RETURNDATASIZE PUSH1 0x1F NOT PUSH1 0x1F DUP3 ADD AND DUP3 ADD DUP1 PUSH1 0x40 MSTORE POP DUP2 ADD SWAP1 PUSH3 0x75B SWAP2 SWAP1 PUSH3 0x28CB JUMP JUMPDEST SWAP1 POP PUSH1 0x0 DUP3 PUSH1 0x1 PUSH1 0x1 PUSH1 0xA0 SHL SUB AND PUSH4 0x15E894AB PUSH1 0x40 MLOAD DUP2 PUSH4 0xFFFFFFFF AND PUSH1 0xE0 SHL DUP2 MSTORE PUSH1 0x4 ADD PUSH1 0x20 PUSH1 0x40 MLOAD DUP1 DUP4 SUB DUP2 DUP7 DUP1 EXTCODESIZE ISZERO DUP1 ISZERO PUSH3 0x799 JUMPI PUSH1 0x0 DUP1 REVERT JUMPDEST POP GAS STATICCALL ISZERO DUP1 ISZERO PUSH3 0x7AE JUMPI RETURNDATASIZE PUSH1 0x0 DUP1 RETURNDATACOPY RETURNDATASIZE PUSH1 0x0 REVERT JUMPDEST POP POP POP POP PUSH1 0x40 MLOAD RETURNDATASIZE PUSH1 0x1F NOT PUSH1 0x1F DUP3 ADD AND DUP3 ADD DUP1 PUSH1 0x40 MSTORE POP DUP2 ADD SWAP1 PUSH3 0x7D4 SWAP2 SWAP1 PUSH3 0x28CB JUMP JUMPDEST SWAP1 POP PUSH1 0x0 DUP4 PUSH1 0x1 PUSH1 0x1 PUSH1 0xA0 SHL SUB AND PUSH4 0xF765E6D PUSH1 0x40 MLOAD DUP2 PUSH4 0xFFFFFFFF AND PUSH1 0xE0 SHL DUP2 MSTORE PUSH1 0x4 ADD PUSH1 0x20 PUSH1 0x40 MLOAD DUP1 DUP4 SUB DUP2 DUP7 DUP1 EXTCODESIZE ISZERO DUP1 ISZERO PUSH3 0x812 JUMPI PUSH1 0x0 DUP1 REVERT JUMPDEST POP GAS STATICCALL ISZERO DUP1 ISZERO PUSH3 0x827 JUMPI RETURNDATASIZE PUSH1 0x0 DUP1 RETURNDATACOPY RETURNDATASIZE PUSH1 0x0 REVERT JUMPDEST POP POP POP POP PUSH1 0x40 MLOAD RETURNDATASIZE PUSH1 0x1F NOT PUSH1 0x1F DUP3 ADD AND DUP3 ADD DUP1 PUSH1 0x40 MSTORE POP DUP2 ADD SWAP1 PUSH3 0x84D SWAP2 SWAP1 PUSH3 0x28CB JUMP JUMPDEST SWAP1 POP PUSH1 0x0 DUP5 PUSH1 0x1 PUSH1 0x1 PUSH1 0xA0 SHL SUB AND PUSH4 0x156DCBF0 PUSH1 0x40 MLOAD DUP2 PUSH4 0xFFFFFFFF AND PUSH1 0xE0 SHL DUP2 MSTORE PUSH1 0x4 ADD PUSH1 0x20 PUSH1 0x40 MLOAD DUP1 DUP4 SUB DUP2 DUP7 DUP1 EXTCODESIZE ISZERO DUP1 ISZERO PUSH3 0x88B JUMPI PUSH1 0x0 DUP1 REVERT JUMPDEST POP GAS STATICCALL ISZERO DUP1 ISZERO PUSH3 0x8A0 JUMPI RETURNDATASIZE PUSH1 0x0 DUP1 RETURNDATACOPY RETURNDATASIZE PUSH1 0x0 REVERT JUMPDEST POP POP POP POP PUSH1 0x40 MLOAD RETURNDATASIZE PUSH1 0x1F NOT PUSH1 0x1F DUP3 ADD AND DUP3 ADD DUP1 PUSH1 0x40 MSTORE POP DUP2 ADD SWAP1 PUSH3 0x8C6 SWAP2 SWAP1 PUSH3 0x2AF1 JUMP JUMPDEST SWAP1 POP PUSH1 0x0 DUP6 PUSH1 0x1 PUSH1 0x1 PUSH1 0xA0 SHL SUB AND PUSH4 0x2EFE91EF PUSH1 0x40 MLOAD DUP2 PUSH4 0xFFFFFFFF AND PUSH1 0xE0 SHL DUP2 MSTORE PUSH1 0x4 ADD PUSH1 0x20 PUSH1 0x40 MLOAD DUP1 DUP4 SUB DUP2 DUP7 DUP1 EXTCODESIZE ISZERO DUP1 ISZERO PUSH3 0x904 JUMPI PUSH1 0x0 DUP1 REVERT JUMPDEST POP GAS STATICCALL ISZERO DUP1 ISZERO PUSH3 0x919 JUMPI RETURNDATASIZE PUSH1 0x0 DUP1 RETURNDATACOPY RETURNDATASIZE PUSH1 0x0 REVERT JUMPDEST POP POP POP POP PUSH1 0x40 MLOAD RETURNDATASIZE PUSH1 0x1F NOT PUSH1 0x1F DUP3 ADD AND DUP3 ADD DUP1 PUSH1 0x40 MSTORE POP DUP2 ADD SWAP1 PUSH3 0x93F SWAP2 SWAP1 PUSH3 0x2AF1 JUMP JUMPDEST SWAP1 POP PUSH1 0x0 DUP6 SWAP1 POP DUP1 PUSH1 0x1 PUSH1 0x1 PUSH1 0xA0 SHL SUB AND PUSH4 0xBD92630C PUSH1 0x40 MLOAD DUP2 PUSH4 0xFFFFFFFF AND PUSH1 0xE0 SHL DUP2 MSTORE PUSH1 0x4 ADD PUSH1 0x20 PUSH1 0x40 MLOAD DUP1 DUP4 SUB DUP2 DUP7 DUP1 EXTCODESIZE ISZERO DUP1 ISZERO PUSH3 0x980 JUMPI PUSH1 0x0 DUP1 REVERT JUMPDEST POP GAS STATICCALL ISZERO DUP1 ISZERO PUSH3 0x995 JUMPI RETURNDATASIZE PUSH1 0x0 DUP1 RETURNDATACOPY RETURNDATASIZE PUSH1 0x0 REVERT JUMPDEST POP POP POP POP PUSH1 0x40 MLOAD RETURNDATASIZE PUSH1 0x1F NOT PUSH1 0x1F DUP3 ADD AND DUP3 ADD DUP1 PUSH1 0x40 MSTORE POP DUP2 ADD SWAP1 PUSH3 0x9BB SWAP2 SWAP1 PUSH3 0x2975 JUMP JUMPDEST PUSH3 0xA09 JUMPI PUSH1 0x40 MLOAD PUSH3 0x461BCD PUSH1 0xE5 SHL DUP2 MSTORE PUSH1 0x20 PUSH1 0x4 DUP3 ADD MSTORE PUSH1 0x1C PUSH1 0x24 DUP3 ADD MSTORE PUSH32 0x4D61726B65747320686173206E6F74206265656E20736574746C656400000000 PUSH1 0x44 DUP3 ADD MSTORE PUSH1 0x64 ADD PUSH3 0x48F JUMP JUMPDEST PUSH1 0x40 MLOAD PUSH5 0x7369646541 PUSH1 0xD8 SHL PUSH1 0x20 DUP3 ADD MSTORE PUSH1 0x25 ADD PUSH1 0x40 MLOAD PUSH1 0x20 DUP2 DUP4 SUB SUB DUP2 MSTORE SWAP1 PUSH1 0x40 MSTORE DUP1 MLOAD SWAP1 PUSH1 0x20 ADD KECCAK256 DUP2 PUSH1 0x1 PUSH1 0x1 PUSH1 0xA0 SHL SUB AND PUSH4 0xFBF06338 PUSH1 0x40 MLOAD DUP2 PUSH4 0xFFFFFFFF AND PUSH1 0xE0 SHL DUP2 MSTORE PUSH1 0x4 ADD PUSH1 0x0 PUSH1 0x40 MLOAD DUP1 DUP4 SUB DUP2 DUP7 DUP1 EXTCODESIZE ISZERO DUP1 ISZERO PUSH3 0xA6D JUMPI PUSH1 0x0 DUP1 REVERT JUMPDEST POP GAS STATICCALL ISZERO DUP1 ISZERO PUSH3 0xA82 JUMPI RETURNDATASIZE PUSH1 0x0 DUP1 RETURNDATACOPY RETURNDATASIZE PUSH1 0x0 REVERT JUMPDEST POP POP POP POP PUSH1 0x40 MLOAD RETURNDATASIZE PUSH1 0x0 DUP3 RETURNDATACOPY PUSH1 0x1F RETURNDATASIZE SWAP1 DUP2 ADD PUSH1 0x1F NOT AND DUP3 ADD PUSH1 0x40 MSTORE PUSH3 0xAAC SWAP2 SWAP1 DUP2 ADD SWAP1 PUSH3 0x29CE JUMP JUMPDEST PUSH1 0x40 MLOAD PUSH1 0x20 ADD PUSH3 0xABE SWAP2 SWAP1 PUSH3 0x2B0A JUMP JUMPDEST PUSH1 0x40 MLOAD PUSH1 0x20 DUP2 DUP4 SUB SUB DUP2 MSTORE SWAP1 PUSH1 0x40 MSTORE DUP1 MLOAD SWAP1 PUSH1 0x20 ADD KECCAK256 EQ ISZERO PUSH3 0xBBF JUMPI PUSH1 0x40 MLOAD PUSH4 0x6D83A71F PUSH1 0xE0 SHL DUP2 MSTORE PUSH1 0x1 PUSH1 0x1 PUSH1 0xA0 SHL SUB DUP7 DUP2 AND PUSH1 0x4 DUP4 ADD MSTORE DUP9 AND SWAP1 PUSH4 0x6D83A71F SWAP1 PUSH1 0x24 ADD PUSH1 0x20 PUSH1 0x40 MLOAD DUP1 DUP4 SUB DUP2 PUSH1 0x0 DUP8 DUP1 EXTCODESIZE ISZERO DUP1 ISZERO PUSH3 0xB1F JUMPI PUSH1 0x0 DUP1 REVERT JUMPDEST POP GAS CALL ISZERO DUP1 ISZERO PUSH3 0xB34 JUMPI RETURNDATASIZE PUSH1 0x0 DUP1 RETURNDATACOPY RETURNDATASIZE PUSH1 0x0 REVERT JUMPDEST POP POP POP POP PUSH1 0x40 MLOAD RETURNDATASIZE PUSH1 0x1F NOT PUSH1 0x1F DUP3 ADD AND DUP3 ADD DUP1 PUSH1 0x40 MSTORE POP DUP2 ADD SWAP1 PUSH3 0xB5A SWAP2 SWAP1 PUSH3 0x2975 JUMP JUMPDEST POP PUSH3 0xB9B DUP6 PUSH1 0xA PUSH3 0xB6F DUP6 PUSH1 0x9 PUSH3 0x2C3A JUMP JUMPDEST PUSH3 0xB7B SWAP2 SWAP1 PUSH3 0x2C19 JUMP JUMPDEST PUSH3 0xB87 SWAP1 DUP7 PUSH3 0x2BFE JUMP JUMPDEST PUSH1 0x11 SLOAD PUSH1 0x1 PUSH1 0x1 PUSH1 0xA0 SHL SUB AND SWAP2 SWAP1 PUSH3 0x1429 JUMP JUMPDEST PUSH1 0x0 SLOAD PUSH3 0xBB9 SWAP1 PUSH1 0x1 PUSH1 0x1 PUSH1 0xA0 SHL SUB AND PUSH3 0xB87 PUSH1 0xA DUP6 PUSH3 0x2C19 JUMP JUMPDEST PUSH3 0xDB0 JUMP JUMPDEST PUSH1 0x40 MLOAD PUSH5 0x39B4B232A1 PUSH1 0xD9 SHL PUSH1 0x20 DUP3 ADD MSTORE PUSH1 0x25 ADD PUSH1 0x40 MLOAD PUSH1 0x20 DUP2 DUP4 SUB SUB DUP2 MSTORE SWAP1 PUSH1 0x40 MSTORE DUP1 MLOAD SWAP1 PUSH1 0x20 ADD KECCAK256 DUP2 PUSH1 0x1 PUSH1 0x1 PUSH1 0xA0 SHL SUB AND PUSH4 0xFBF06338 PUSH1 0x40 MLOAD DUP2 PUSH4 0xFFFFFFFF AND PUSH1 0xE0 SHL DUP2 MSTORE PUSH1 0x4 ADD PUSH1 0x0 PUSH1 0x40 MLOAD DUP1 DUP4 SUB DUP2 DUP7 DUP1 EXTCODESIZE ISZERO DUP1 ISZERO PUSH3 0xC23 JUMPI PUSH1 0x0 DUP1 REVERT JUMPDEST POP GAS STATICCALL ISZERO DUP1 ISZERO PUSH3 0xC38 JUMPI RETURNDATASIZE PUSH1 0x0 DUP1 RETURNDATACOPY RETURNDATASIZE PUSH1 0x0 REVERT JUMPDEST POP POP POP POP PUSH1 0x40 MLOAD RETURNDATASIZE PUSH1 0x0 DUP3 RETURNDATACOPY PUSH1 0x1F RETURNDATASIZE SWAP1 DUP2 ADD PUSH1 0x1F NOT AND DUP3 ADD PUSH1 0x40 MSTORE PUSH3 0xC62 SWAP2 SWAP1 DUP2 ADD SWAP1 PUSH3 0x29CE JUMP JUMPDEST PUSH1 0x40 MLOAD PUSH1 0x20 ADD PUSH3 0xC74 SWAP2 SWAP1 PUSH3 0x2B0A JUMP JUMPDEST PUSH1 0x40 MLOAD PUSH1 0x20 DUP2 DUP4 SUB SUB DUP2 MSTORE SWAP1 PUSH1 0x40 MSTORE DUP1 MLOAD SWAP1 PUSH1 0x20 ADD KECCAK256 EQ ISZERO PUSH3 0xD5B JUMPI PUSH1 0x40 MLOAD PUSH4 0x6D83A71F PUSH1 0xE0 SHL DUP2 MSTORE PUSH1 0x1 PUSH1 0x1 PUSH1 0xA0 SHL SUB DUP6 DUP2 AND PUSH1 0x4 DUP4 ADD MSTORE DUP9 AND SWAP1 PUSH4 0x6D83A71F SWAP1 PUSH1 0x24 ADD PUSH1 0x20 PUSH1 0x40 MLOAD DUP1 DUP4 SUB DUP2 PUSH1 0x0 DUP8 DUP1 EXTCODESIZE ISZERO DUP1 ISZERO PUSH3 0xCD5 JUMPI PUSH1 0x0 DUP1 REVERT JUMPDEST POP GAS CALL ISZERO DUP1 ISZERO PUSH3 0xCEA JUMPI RETURNDATASIZE PUSH1 0x0 DUP1 RETURNDATACOPY RETURNDATASIZE PUSH1 0x0 REVERT JUMPDEST POP POP POP POP PUSH1 0x40 MLOAD RETURNDATASIZE PUSH1 0x1F NOT PUSH1 0x1F DUP3 ADD AND DUP3 ADD DUP1 PUSH1 0x40 MSTORE POP DUP2 ADD SWAP1 PUSH3 0xD10 SWAP2 SWAP1 PUSH3 0x2975 JUMP JUMPDEST POP PUSH3 0xD3D DUP5 PUSH1 0xA PUSH3 0xD25 DUP7 PUSH1 0x9 PUSH3 0x2C3A JUMP JUMPDEST PUSH3 0xD31 SWAP2 SWAP1 PUSH3 0x2C19 JUMP JUMPDEST PUSH3 0xB87 SWAP1 DUP6 PUSH3 0x2BFE JUMP JUMPDEST PUSH1 0x0 SLOAD PUSH3 0xBB9 SWAP1 PUSH1 0x1 PUSH1 0x1 PUSH1 0xA0 SHL SUB AND PUSH3 0xB87 PUSH1 0xA DUP7 PUSH3 0x2C19 JUMP JUMPDEST PUSH1 0x40 MLOAD PUSH3 0x461BCD PUSH1 0xE5 SHL DUP2 MSTORE PUSH1 0x20 PUSH1 0x4 DUP3 ADD MSTORE PUSH1 0x23 PUSH1 0x24 DUP3 ADD MSTORE PUSH32 0x6576656E742061646D696E20656E74657265642020696E76616C69642077696E PUSH1 0x44 DUP3 ADD MSTORE PUSH3 0x3732B9 PUSH1 0xE9 SHL PUSH1 0x64 DUP3 ADD MSTORE PUSH1 0x84 ADD PUSH3 0x48F JUMP JUMPDEST POP PUSH1 0x1 SWAP9 SWAP8 POP POP POP POP POP POP POP POP JUMP JUMPDEST PUSH1 0x2 SLOAD PUSH1 0x40 DUP1 MLOAD PUSH4 0x179F907D PUSH1 0xE0 SHL DUP2 MSTORE SWAP1 MLOAD PUSH1 0x0 SWAP3 PUSH1 0x1 PUSH1 0x1 PUSH1 0xA0 SHL SUB AND SWAP2 DUP4 SWAP2 DUP4 SWAP2 PUSH4 0x179F907D SWAP2 PUSH1 0x4 DUP1 DUP4 ADD SWAP3 PUSH1 0x20 SWAP3 SWAP2 SWAP1 DUP3 SWAP1 SUB ADD DUP2 DUP8 DUP8 DUP1 EXTCODESIZE ISZERO DUP1 ISZERO PUSH3 0xE0A JUMPI PUSH1 0x0 DUP1 REVERT JUMPDEST POP GAS CALL ISZERO DUP1 ISZERO PUSH3 0xE1F JUMPI RETURNDATASIZE PUSH1 0x0 DUP1 RETURNDATACOPY RETURNDATASIZE PUSH1 0x0 REVERT JUMPDEST POP POP POP POP PUSH1 0x40 MLOAD RETURNDATASIZE PUSH1 0x1F NOT PUSH1 0x1F DUP3 ADD AND DUP3 ADD DUP1 PUSH1 0x40 MSTORE POP DUP2 ADD SWAP1 PUSH3 0xE45 SWAP2 SWAP1 PUSH3 0x28CB JUMP JUMPDEST SWAP1 POP CALLER PUSH1 0x1 PUSH1 0x1 PUSH1 0xA0 SHL SUB DUP3 AND EQ PUSH3 0xE72 JUMPI PUSH1 0x40 MLOAD PUSH3 0x461BCD PUSH1 0xE5 SHL DUP2 MSTORE PUSH1 0x4 ADD PUSH3 0x48F SWAP1 PUSH3 0x2B5D JUMP JUMPDEST PUSH1 0x4 SLOAD PUSH1 0xFF AND ISZERO PUSH3 0xE87 JUMPI PUSH1 0x1 SWAP3 POP POP POP SWAP1 JUMP JUMPDEST PUSH1 0x4 DUP1 SLOAD PUSH1 0xFF NOT AND PUSH1 0x1 SWAP1 DUP2 OR SWAP1 SWAP2 SSTORE SWAP3 POP POP POP SWAP1 JUMP JUMPDEST DUP3 MLOAD PUSH1 0x0 SWAP1 PUSH3 0xEB6 SWAP1 PUSH1 0x1 SWAP1 PUSH1 0x20 DUP8 ADD SWAP1 PUSH3 0x27A1 JUMP JUMPDEST POP DUP3 MLOAD PUSH3 0xECC SWAP1 PUSH1 0x5 SWAP1 PUSH1 0x20 DUP7 ADD SWAP1 PUSH3 0x27A1 JUMP JUMPDEST POP DUP2 MLOAD PUSH3 0xEE2 SWAP1 PUSH1 0x7 SWAP1 PUSH1 0x20 DUP6 ADD SWAP1 PUSH3 0x27A1 JUMP JUMPDEST POP PUSH1 0x1 SWAP1 POP JUMPDEST SWAP4 SWAP3 POP POP POP JUMP JUMPDEST PUSH1 0x5 DUP1 SLOAD PUSH3 0x5BD SWAP1 PUSH3 0x2CCB JUMP JUMPDEST PUSH1 0x9 DUP2 DUP2 SLOAD DUP2 LT PUSH3 0xF0F JUMPI PUSH1 0x0 DUP1 REVERT JUMPDEST PUSH1 0x0 SWAP2 DUP3 MSTORE PUSH1 0x20 SWAP1 SWAP2 KECCAK256 PUSH1 0x3 SWAP1 SWAP2 MUL ADD DUP1 SLOAD PUSH1 0x1 DUP3 ADD SLOAD PUSH1 0x2 SWAP1 SWAP3 ADD SLOAD PUSH1 0x1 PUSH1 0x1 PUSH1 0xA0 SHL SUB SWAP1 SWAP2 AND SWAP3 POP PUSH1 0xFF AND DUP4 JUMP JUMPDEST PUSH1 0xF SLOAD PUSH1 0x40 DUP1 MLOAD PUSH4 0xC45A0155 PUSH1 0xE0 SHL DUP2 MSTORE SWAP1 MLOAD PUSH1 0x0 SWAP3 PUSH1 0x1 PUSH1 0x1 PUSH1 0xA0 SHL SUB AND SWAP2 PUSH4 0xC45A0155 SWAP2 PUSH1 0x4 DUP1 DUP4 ADD SWAP3 PUSH1 0x20 SWAP3 SWAP2 SWAP1 DUP3 SWAP1 SUB ADD DUP2 DUP7 DUP1 EXTCODESIZE ISZERO DUP1 ISZERO PUSH3 0xF85 JUMPI PUSH1 0x0 DUP1 REVERT JUMPDEST POP GAS STATICCALL ISZERO DUP1 ISZERO PUSH3 0xF9A JUMPI RETURNDATASIZE PUSH1 0x0 DUP1 RETURNDATACOPY RETURNDATASIZE PUSH1 0x0 REVERT JUMPDEST POP POP POP POP PUSH1 0x40 MLOAD RETURNDATASIZE PUSH1 0x1F NOT PUSH1 0x1F DUP3 ADD AND DUP3 ADD DUP1 PUSH1 0x40 MSTORE POP DUP2 ADD SWAP1 PUSH3 0xFC0 SWAP2 SWAP1 PUSH3 0x28CB JUMP JUMPDEST PUSH1 0x1 PUSH1 0x1 PUSH1 0xA0 SHL SUB AND CALLER PUSH1 0x1 PUSH1 0x1 PUSH1 0xA0 SHL SUB AND EQ PUSH3 0x1052 JUMPI PUSH1 0x40 MLOAD PUSH3 0x461BCD PUSH1 0xE5 SHL DUP2 MSTORE PUSH1 0x20 PUSH1 0x4 DUP3 ADD MSTORE PUSH1 0x41 PUSH1 0x24 DUP3 ADD MSTORE PUSH32 0x6F6E6C792077656233626574732066697865646F64647320666163746F727920 PUSH1 0x44 DUP3 ADD MSTORE PUSH32 0x636F6E74726163742063616E20637265617465207468697320636F6E74726163 PUSH1 0x64 DUP3 ADD MSTORE PUSH1 0x1D PUSH1 0xFA SHL PUSH1 0x84 DUP3 ADD MSTORE PUSH1 0xA4 ADD PUSH3 0x48F JUMP JUMPDEST PUSH3 0x105D DUP6 PUSH3 0x1482 JUMP JUMPDEST PUSH3 0x10D1 JUMPI PUSH1 0x40 MLOAD PUSH3 0x461BCD PUSH1 0xE5 SHL DUP2 MSTORE PUSH1 0x20 PUSH1 0x4 DUP3 ADD MSTORE PUSH1 0x37 PUSH1 0x24 DUP3 ADD MSTORE PUSH32 0x5468652061646472657373206973206E6F7420612076616C6964206265742063 PUSH1 0x44 DUP3 ADD MSTORE PUSH32 0x6F6E747261637420666F722074686973206D61726B6574000000000000000000 PUSH1 0x64 DUP3 ADD MSTORE PUSH1 0x84 ADD PUSH3 0x48F JUMP JUMPDEST PUSH1 0x40 MLOAD PUSH5 0x7369646541 PUSH1 0xD8 SHL PUSH1 0x20 DUP3 ADD MSTORE PUSH1 0x25 ADD PUSH1 0x40 MLOAD PUSH1 0x20 DUP2 DUP4 SUB SUB DUP2 MSTORE SWAP1 PUSH1 0x40 MSTORE DUP1 MLOAD SWAP1 PUSH1 0x20 ADD KECCAK256 DUP3 PUSH1 0x40 MLOAD PUSH1 0x20 ADD PUSH3 0x110E SWAP2 SWAP1 PUSH3 0x2B0A JUMP JUMPDEST PUSH1 0x40 MLOAD PUSH1 0x20 DUP2 DUP4 SUB SUB DUP2 MSTORE SWAP1 PUSH1 0x40 MSTORE DUP1 MLOAD SWAP1 PUSH1 0x20 ADD KECCAK256 EQ ISZERO PUSH3 0x114C JUMPI PUSH3 0x1139 DUP7 DUP7 DUP7 DUP7 PUSH3 0x15C5 JUMP JUMPDEST PUSH3 0x1146 DUP6 DUP6 DUP6 PUSH3 0x16DD JUMP JUMPDEST PUSH3 0x11C1 JUMP JUMPDEST PUSH1 0x40 MLOAD PUSH5 0x39B4B232A1 PUSH1 0xD9 SHL PUSH1 0x20 DUP3 ADD MSTORE PUSH1 0x25 ADD PUSH1 0x40 MLOAD PUSH1 0x20 DUP2 DUP4 SUB SUB DUP2 MSTORE SWAP1 PUSH1 0x40 MSTORE DUP1 MLOAD SWAP1 PUSH1 0x20 ADD KECCAK256 DUP3 PUSH1 0x40 MLOAD PUSH1 0x20 ADD PUSH3 0x1189 SWAP2 SWAP1 PUSH3 0x2B0A JUMP JUMPDEST PUSH1 0x40 MLOAD PUSH1 0x20 DUP2 DUP4 SUB SUB DUP2 MSTORE SWAP1 PUSH1 0x40 MSTORE DUP1 MLOAD SWAP1 PUSH1 0x20 ADD KECCAK256 EQ ISZERO PUSH3 0x11C1 JUMPI PUSH3 0x11B4 DUP7 DUP7 DUP7 DUP7 PUSH3 0x1D87 JUMP JUMPDEST PUSH3 0x11C1 DUP6 DUP6 DUP6 PUSH3 0x1E93 JUMP JUMPDEST POP PUSH1 0x1 SWAP6 SWAP5 POP POP POP POP POP JUMP JUMPDEST PUSH1 0x7 DUP1 SLOAD PUSH3 0x5BD SWAP1 PUSH3 0x2CCB JUMP JUMPDEST PUSH1 0x2 SLOAD PUSH1 0x40 DUP1 MLOAD PUSH4 0x179F907D PUSH1 0xE0 SHL DUP2 MSTORE SWAP1 MLOAD PUSH1 0x0 SWAP3 PUSH1 0x1 PUSH1 0x1 PUSH1 0xA0 SHL SUB AND SWAP2 DUP4 SWAP2 DUP4 SWAP2 PUSH4 0x179F907D SWAP2 PUSH1 0x4 DUP1 DUP4 ADD SWAP3 PUSH1 0x20 SWAP3 SWAP2 SWAP1 DUP3 SWAP1 SUB ADD DUP2 DUP8 DUP8 DUP1 EXTCODESIZE ISZERO DUP1 ISZERO PUSH3 0x1227 JUMPI PUSH1 0x0 DUP1 REVERT JUMPDEST POP GAS CALL ISZERO DUP1 ISZERO PUSH3 0x123C JUMPI RETURNDATASIZE PUSH1 0x0 DUP1 RETURNDATACOPY RETURNDATASIZE PUSH1 0x0 REVERT JUMPDEST POP POP POP POP PUSH1 0x40 MLOAD RETURNDATASIZE PUSH1 0x1F NOT PUSH1 0x1F DUP3 ADD AND DUP3 ADD DUP1 PUSH1 0x40 MSTORE POP DUP2 ADD SWAP1 PUSH3 0x1262 SWAP2 SWAP1 PUSH3 0x28CB JUMP JUMPDEST SWAP1 POP CALLER PUSH1 0x1 PUSH1 0x1 PUSH1 0xA0 SHL SUB DUP3 AND EQ PUSH3 0x128F JUMPI PUSH1 0x40 MLOAD PUSH3 0x461BCD PUSH1 0xE5 SHL DUP2 MSTORE PUSH1 0x4 ADD PUSH3 0x48F SWAP1 PUSH3 0x2B5D JUMP JUMPDEST PUSH1 0x2 SLOAD PUSH1 0x1 PUSH1 0xA0 SHL SWAP1 DIV PUSH1 0xFF AND ISZERO ISZERO PUSH1 0x1 EQ ISZERO PUSH3 0x12F0 JUMPI PUSH1 0x40 MLOAD PUSH3 0x461BCD PUSH1 0xE5 SHL DUP2 MSTORE PUSH1 0x20 PUSH1 0x4 DUP3 ADD MSTORE PUSH1 0x18 PUSH1 0x24 DUP3 ADD MSTORE PUSH32 0x57696E6E696E6720506F6F6C20616C7265616479207365740000000000000000 PUSH1 0x44 DUP3 ADD MSTORE PUSH1 0x64 ADD PUSH3 0x48F JUMP JUMPDEST DUP4 MLOAD PUSH3 0x1305 SWAP1 PUSH1 0x3 SWAP1 PUSH1 0x20 DUP8 ADD SWAP1 PUSH3 0x27A1 JUMP JUMPDEST POP PUSH1 0x2 DUP1 SLOAD PUSH1 0xFF PUSH1 0xA0 SHL NOT AND PUSH1 0x1 PUSH1 0xA0 SHL SWAP1 DUP2 OR SWAP2 DUP3 SWAP1 SSTORE SWAP1 DIV PUSH1 0xFF AND PUSH3 0x1370 JUMPI PUSH1 0x40 MLOAD PUSH3 0x461BCD PUSH1 0xE5 SHL DUP2 MSTORE PUSH1 0x20 PUSH1 0x4 DUP3 ADD MSTORE PUSH1 0x19 PUSH1 0x24 DUP3 ADD MSTORE PUSH32 0x4E6F20506F6F6C20416464726573732077617320666F756E6400000000000000 PUSH1 0x44 DUP3 ADD MSTORE PUSH1 0x64 ADD PUSH3 0x48F JUMP JUMPDEST POP PUSH1 0x1 SWAP4 SWAP3 POP POP POP JUMP JUMPDEST PUSH1 0x2 SLOAD PUSH1 0x40 DUP1 MLOAD PUSH4 0x5F5F79F PUSH1 0xE2 SHL DUP2 MSTORE SWAP1 MLOAD PUSH1 0x60 SWAP3 PUSH1 0x1 PUSH1 0x1 PUSH1 0xA0 SHL SUB AND SWAP2 DUP3 SWAP2 PUSH4 0x17D7DE7C SWAP2 PUSH1 0x4 DUP1 DUP3 ADD SWAP3 PUSH1 0x0 SWAP3 SWAP1 SWAP2 SWAP1 DUP3 SWAP1 SUB ADD DUP2 DUP4 DUP8 DUP1 EXTCODESIZE ISZERO DUP1 ISZERO PUSH3 0x13C4 JUMPI PUSH1 0x0 DUP1 REVERT JUMPDEST POP GAS CALL ISZERO DUP1 ISZERO PUSH3 0x13D9 JUMPI RETURNDATASIZE PUSH1 0x0 DUP1 RETURNDATACOPY RETURNDATASIZE PUSH1 0x0 REVERT JUMPDEST POP POP POP POP PUSH1 0x40 MLOAD RETURNDATASIZE PUSH1 0x0 DUP3 RETURNDATACOPY PUSH1 0x1F RETURNDATASIZE SWAP1 DUP2 ADD PUSH1 0x1F NOT AND DUP3 ADD PUSH1 0x40 MSTORE PUSH3 0x1403 SWAP2 SWAP1 DUP2 ADD SWAP1 PUSH3 0x29CE JUMP JUMPDEST SWAP2 POP POP SWAP1 JUMP JUMPDEST PUSH1 0xB DUP2 DUP2 SLOAD DUP2 LT PUSH3 0xF0F JUMPI PUSH1 0x0 DUP1 REVERT JUMPDEST PUSH1 0x3 DUP1 SLOAD PUSH3 0x5BD SWAP1 PUSH3 0x2CCB JUMP JUMPDEST PUSH1 0x40 DUP1 MLOAD PUSH1 0x1 PUSH1 0x1 PUSH1 0xA0 SHL SUB DUP5 AND PUSH1 0x24 DUP3 ADD MSTORE PUSH1 0x44 DUP1 DUP3 ADD DUP5 SWAP1 MSTORE DUP3 MLOAD DUP1 DUP4 SUB SWAP1 SWAP2 ADD DUP2 MSTORE PUSH1 0x64 SWAP1 SWAP2 ADD SWAP1 SWAP2 MSTORE PUSH1 0x20 DUP2 ADD DUP1 MLOAD PUSH1 0x1 PUSH1 0x1 PUSH1 0xE0 SHL SUB AND PUSH4 0xA9059CBB PUSH1 0xE0 SHL OR SWAP1 MSTORE PUSH3 0x147D SWAP1 DUP5 SWAP1 PUSH3 0x2536 JUMP JUMPDEST POP POP POP JUMP JUMPDEST PUSH1 0x0 DUP2 EXTCODESIZE PUSH4 0xFFFFFFFF DUP2 AND ISZERO PUSH3 0x15B6 JUMPI PUSH1 0x0 DUP4 SWAP1 POP PUSH1 0x0 DUP2 PUSH1 0x1 PUSH1 0x1 PUSH1 0xA0 SHL SUB AND PUSH4 0x80F55605 PUSH1 0x40 MLOAD DUP2 PUSH4 0xFFFFFFFF AND PUSH1 0xE0 SHL DUP2 MSTORE PUSH1 0x4 ADD PUSH1 0x20 PUSH1 0x40 MLOAD DUP1 DUP4 SUB DUP2 DUP7 DUP1 EXTCODESIZE ISZERO DUP1 ISZERO PUSH3 0x14D4 JUMPI PUSH1 0x0 DUP1 REVERT JUMPDEST POP GAS STATICCALL ISZERO DUP1 ISZERO PUSH3 0x14E9 JUMPI RETURNDATASIZE PUSH1 0x0 DUP1 RETURNDATACOPY RETURNDATASIZE PUSH1 0x0 REVERT JUMPDEST POP POP POP POP PUSH1 0x40 MLOAD RETURNDATASIZE PUSH1 0x1F NOT PUSH1 0x1F DUP3 ADD AND DUP3 ADD DUP1 PUSH1 0x40 MSTORE POP DUP2 ADD SWAP1 PUSH3 0x150F SWAP2 SWAP1 PUSH3 0x28CB JUMP JUMPDEST SWAP1 POP ADDRESS PUSH1 0x1 PUSH1 0x1 PUSH1 0xA0 SHL SUB AND DUP3 PUSH1 0x1 PUSH1 0x1 PUSH1 0xA0 SHL SUB AND PUSH4 0x80F55605 PUSH1 0x40 MLOAD DUP2 PUSH4 0xFFFFFFFF AND PUSH1 0xE0 SHL DUP2 MSTORE PUSH1 0x4 ADD PUSH1 0x20 PUSH1 0x40 MLOAD DUP1 DUP4 SUB DUP2 DUP7 DUP1 EXTCODESIZE ISZERO DUP1 ISZERO PUSH3 0x1555 JUMPI PUSH1 0x0 DUP1 REVERT JUMPDEST POP GAS STATICCALL ISZERO DUP1 ISZERO PUSH3 0x156A JUMPI RETURNDATASIZE PUSH1 0x0 DUP1 RETURNDATACOPY RETURNDATASIZE PUSH1 0x0 REVERT JUMPDEST POP POP POP POP PUSH1 0x40 MLOAD RETURNDATASIZE PUSH1 0x1F NOT PUSH1 0x1F DUP3 ADD AND DUP3 ADD DUP1 PUSH1 0x40 MSTORE POP DUP2 ADD SWAP1 PUSH3 0x1590 SWAP2 SWAP1 PUSH3 0x28CB JUMP JUMPDEST PUSH1 0x1 PUSH1 0x1 PUSH1 0xA0 SHL SUB AND EQ ISZERO PUSH3 0x15AB JUMPI POP PUSH1 0x1 SWAP5 SWAP4 POP POP POP POP JUMP JUMPDEST POP PUSH1 0x0 SWAP5 SWAP4 POP POP POP POP JUMP JUMPDEST POP PUSH1 0x0 SWAP3 SWAP2 POP POP JUMP JUMPDEST POP SWAP2 SWAP1 POP JUMP JUMPDEST DUP2 PUSH1 0x6 PUSH1 0x0 DUP3 DUP3 SLOAD PUSH3 0x15D9 SWAP2 SWAP1 PUSH3 0x2BFE JUMP JUMPDEST SWAP1 SWAP2 SSTORE POP POP PUSH1 0x40 DUP1 MLOAD PUSH1 0x60 DUP2 ADD DUP3 MSTORE PUSH1 0x1 PUSH1 0x1 PUSH1 0xA0 SHL SUB DUP6 DUP2 AND DUP3 MSTORE PUSH1 0x20 DUP1 DUP4 ADD DUP7 DUP2 MSTORE PUSH1 0xFF DUP7 DUP2 AND DUP6 DUP8 ADD SWAP1 DUP2 MSTORE PUSH1 0x9 DUP1 SLOAD PUSH1 0x1 DUP2 ADD DUP3 SSTORE PUSH1 0x0 SWAP2 DUP3 MSTORE SWAP7 MLOAD PUSH32 0x6E1540171B6C0C960B71A7020D9F60077F6AF931A8BBF590DA0223DACF75C7AF PUSH1 0x3 SWAP1 SWAP9 MUL SWAP8 DUP9 ADD DUP1 SLOAD PUSH1 0x1 PUSH1 0x1 PUSH1 0xA0 SHL SUB NOT AND SWAP2 DUP9 AND SWAP2 SWAP1 SWAP2 OR SWAP1 SSTORE SWAP3 MLOAD PUSH32 0x6E1540171B6C0C960B71A7020D9F60077F6AF931A8BBF590DA0223DACF75C7B0 DUP8 ADD SSTORE MLOAD PUSH32 0x6E1540171B6C0C960B71A7020D9F60077F6AF931A8BBF590DA0223DACF75C7B1 SWAP1 SWAP6 ADD DUP1 SLOAD PUSH1 0xFF NOT AND SWAP6 SWAP1 SWAP2 AND SWAP5 SWAP1 SWAP5 OR SWAP1 SWAP4 SSTORE SWAP1 DUP8 AND DUP3 MSTORE PUSH1 0xD SWAP1 MSTORE SWAP1 DUP2 KECCAK256 DUP1 SLOAD DUP5 SWAP3 SWAP1 PUSH3 0x16D1 SWAP1 DUP5 SWAP1 PUSH3 0x2BFE JUMP JUMPDEST SWAP1 SWAP2 SSTORE POP POP JUMPDEST POP POP POP POP JUMP JUMPDEST PUSH1 0xC SLOAD DUP1 ISZERO PUSH3 0x1CB0 JUMPI DUP3 JUMPDEST PUSH8 0xDE0B6B3A7640000 DUP2 LT PUSH3 0x1CA9 JUMPI PUSH1 0x0 DUP1 PUSH1 0x0 JUMPDEST DUP5 DUP2 LT ISZERO PUSH3 0x17A0 JUMPI PUSH1 0x0 PUSH1 0xC DUP3 DUP2 SLOAD DUP2 LT PUSH3 0x172C JUMPI PUSH4 0x4E487B71 PUSH1 0xE0 SHL PUSH1 0x0 MSTORE PUSH1 0x32 PUSH1 0x4 MSTORE PUSH1 0x24 PUSH1 0x0 REVERT JUMPDEST PUSH1 0x0 SWAP2 DUP3 MSTORE PUSH1 0x20 SWAP2 DUP3 SWAP1 KECCAK256 PUSH1 0x40 DUP1 MLOAD PUSH1 0x60 DUP2 ADD DUP3 MSTORE PUSH1 0x3 SWAP1 SWAP4 MUL SWAP1 SWAP2 ADD DUP1 SLOAD PUSH1 0x1 PUSH1 0x1 PUSH1 0xA0 SHL SUB AND DUP4 MSTORE PUSH1 0x1 DUP2 ADD SLOAD SWAP4 DUP4 ADD SWAP4 SWAP1 SWAP4 MSTORE PUSH1 0x2 SWAP1 SWAP3 ADD SLOAD PUSH1 0xFF SWAP1 DUP2 AND SWAP3 DUP3 ADD DUP4 SWAP1 MSTORE SWAP1 SWAP3 POP DUP5 AND LT ISZERO PUSH3 0x178A JUMPI DUP1 PUSH1 0x40 ADD MLOAD SWAP3 POP DUP2 SWAP4 POP JUMPDEST POP DUP1 PUSH3 0x1797 DUP2 PUSH3 0x2D02 JUMP JUMPDEST SWAP2 POP POP PUSH3 0x16FF JUMP JUMPDEST POP DUP5 PUSH1 0xFF AND DUP2 PUSH1 0xFF AND GT ISZERO PUSH3 0x1BC9 JUMPI PUSH1 0x0 PUSH1 0xC DUP4 DUP2 SLOAD DUP2 LT PUSH3 0x17D4 JUMPI PUSH4 0x4E487B71 PUSH1 0xE0 SHL PUSH1 0x0 MSTORE PUSH1 0x32 PUSH1 0x4 MSTORE PUSH1 0x24 PUSH1 0x0 REVERT JUMPDEST PUSH1 0x0 SWAP2 DUP3 MSTORE PUSH1 0x20 DUP1 DUP4 KECCAK256 PUSH1 0x40 DUP1 MLOAD PUSH1 0x60 DUP2 ADD DUP3 MSTORE PUSH1 0x3 SWAP1 SWAP5 MUL SWAP1 SWAP2 ADD DUP1 SLOAD PUSH1 0x1 PUSH1 0x1 PUSH1 0xA0 SHL SUB AND DUP1 DUP6 MSTORE PUSH1 0x1 DUP3 ADD SLOAD DUP6 DUP6 ADD MSTORE PUSH1 0x2 SWAP1 SWAP2 ADD SLOAD PUSH1 0xFF AND DUP5 DUP4 ADD MSTORE DUP2 MLOAD PUSH4 0x45564E65 PUSH1 0xE1 SHL DUP2 MSTORE SWAP2 MLOAD SWAP4 SWAP6 POP SWAP4 SWAP3 DUP5 SWAP3 PUSH4 0x8AAC9CCA SWAP3 PUSH1 0x4 DUP1 DUP3 ADD SWAP4 SWAP2 DUP3 SWAP1 SUB ADD DUP2 DUP7 DUP1 EXTCODESIZE ISZERO DUP1 ISZERO PUSH3 0x184B JUMPI PUSH1 0x0 DUP1 REVERT JUMPDEST POP GAS STATICCALL ISZERO DUP1 ISZERO PUSH3 0x1860 JUMPI RETURNDATASIZE PUSH1 0x0 DUP1 RETURNDATACOPY RETURNDATASIZE PUSH1 0x0 REVERT JUMPDEST POP POP POP POP PUSH1 0x40 MLOAD RETURNDATASIZE PUSH1 0x1F NOT PUSH1 0x1F DUP3 ADD AND DUP3 ADD DUP1 PUSH1 0x40 MSTORE POP DUP2 ADD SWAP1 PUSH3 0x1886 SWAP2 SWAP1 PUSH3 0x2AF1 JUMP JUMPDEST SWAP1 POP PUSH1 0x0 PUSH1 0x64 PUSH3 0x1898 DUP2 DUP12 PUSH3 0x2C76 JUMP JUMPDEST PUSH1 0xFF AND DUP4 DUP7 PUSH1 0x20 ADD MLOAD PUSH3 0x18AD SWAP2 SWAP1 PUSH3 0x2C5C JUMP JUMPDEST PUSH3 0x18B9 SWAP2 SWAP1 PUSH3 0x2C3A JUMP JUMPDEST PUSH3 0x18C5 SWAP2 SWAP1 PUSH3 0x2C19 JUMP JUMPDEST SWAP1 POP PUSH1 0x0 DUP11 DUP3 GT ISZERO PUSH3 0x18DA JUMPI POP DUP10 PUSH3 0x18DD JUMP JUMPDEST POP DUP1 JUMPDEST PUSH1 0x0 PUSH3 0x18EE PUSH1 0xFF DUP13 AND DUP4 PUSH3 0x2C3A JUMP JUMPDEST SWAP1 POP PUSH1 0x0 ADDRESS DUP15 DUP9 PUSH1 0x0 ADD MLOAD DUP6 DUP6 PUSH1 0x40 MLOAD PUSH3 0x1909 SWAP1 PUSH3 0x2830 JUMP JUMPDEST PUSH1 0x1 PUSH1 0x1 PUSH1 0xA0 SHL SUB SWAP6 DUP7 AND DUP2 MSTORE SWAP4 DUP6 AND PUSH1 0x20 DUP6 ADD MSTORE SWAP4 SWAP1 SWAP2 AND PUSH1 0x40 DUP4 ADD MSTORE PUSH1 0x60 DUP3 ADD MSTORE PUSH1 0x80 DUP2 ADD SWAP2 SWAP1 SWAP2 MSTORE PUSH1 0xA0 ADD PUSH1 0x40 MLOAD DUP1 SWAP2 SUB SWAP1 PUSH1 0x0 CREATE DUP1 ISZERO DUP1 ISZERO PUSH3 0x1954 JUMPI RETURNDATASIZE PUSH1 0x0 DUP1 RETURNDATACOPY RETURNDATASIZE PUSH1 0x0 REVERT JUMPDEST POP SWAP1 POP PUSH1 0xC DUP10 DUP2 SLOAD DUP2 LT PUSH3 0x1979 JUMPI PUSH4 0x4E487B71 PUSH1 0xE0 SHL PUSH1 0x0 MSTORE PUSH1 0x32 PUSH1 0x4 MSTORE PUSH1 0x24 PUSH1 0x0 REVERT JUMPDEST PUSH1 0x0 SWAP2 DUP3 MSTORE PUSH1 0x20 DUP3 KECCAK256 PUSH1 0x3 SWAP2 SWAP1 SWAP2 MUL ADD DUP1 SLOAD PUSH1 0x1 PUSH1 0x1 PUSH1 0xA0 SHL SUB NOT AND DUP2 SSTORE PUSH1 0x1 DUP2 ADD SWAP2 SWAP1 SWAP2 SSTORE PUSH1 0x2 ADD DUP1 SLOAD PUSH1 0xFF NOT AND SWAP1 SSTORE PUSH1 0x40 MLOAD PUSH4 0x2D267E03 PUSH1 0xE1 SHL DUP2 MSTORE PUSH1 0x4 DUP2 ADD DUP5 SWAP1 MSTORE DUP15 SWAP1 PUSH1 0x1 PUSH1 0x1 PUSH1 0xA0 SHL SUB DUP3 AND SWAP1 PUSH4 0x5A4CFC06 SWAP1 PUSH1 0x24 ADD PUSH1 0x20 PUSH1 0x40 MLOAD DUP1 DUP4 SUB DUP2 PUSH1 0x0 DUP8 DUP1 EXTCODESIZE ISZERO DUP1 ISZERO PUSH3 0x19EF JUMPI PUSH1 0x0 DUP1 REVERT JUMPDEST POP GAS CALL ISZERO DUP1 ISZERO PUSH3 0x1A04 JUMPI RETURNDATASIZE PUSH1 0x0 DUP1 RETURNDATACOPY RETURNDATASIZE PUSH1 0x0 REVERT JUMPDEST POP POP POP POP PUSH1 0x40 MLOAD RETURNDATASIZE PUSH1 0x1F NOT PUSH1 0x1F DUP3 ADD AND DUP3 ADD DUP1 PUSH1 0x40 MSTORE POP DUP2 ADD SWAP1 PUSH3 0x1A2A SWAP2 SWAP1 PUSH3 0x2975 JUMP JUMPDEST POP PUSH1 0x40 MLOAD PUSH4 0x615BDDDB PUSH1 0xE1 SHL DUP2 MSTORE PUSH1 0x1 PUSH1 0x1 PUSH1 0xA0 SHL SUB DUP4 DUP2 AND PUSH1 0x4 DUP4 ADD MSTORE DUP3 AND SWAP1 PUSH4 0xC2B7BBB6 SWAP1 PUSH1 0x24 ADD PUSH1 0x20 PUSH1 0x40 MLOAD DUP1 DUP4 SUB DUP2 PUSH1 0x0 DUP8 DUP1 EXTCODESIZE ISZERO DUP1 ISZERO PUSH3 0x1A6F JUMPI PUSH1 0x0 DUP1 REVERT JUMPDEST POP GAS CALL ISZERO DUP1 ISZERO PUSH3 0x1A84 JUMPI RETURNDATASIZE PUSH1 0x0 DUP1 RETURNDATACOPY RETURNDATASIZE PUSH1 0x0 REVERT JUMPDEST POP POP POP POP PUSH1 0x40 MLOAD RETURNDATASIZE PUSH1 0x1F NOT PUSH1 0x1F DUP3 ADD AND DUP3 ADD DUP1 PUSH1 0x40 MSTORE POP DUP2 ADD SWAP1 PUSH3 0x1AAA SWAP2 SWAP1 PUSH3 0x2975 JUMP JUMPDEST POP DUP8 MLOAD PUSH1 0x40 MLOAD PUSH4 0x2D267E03 PUSH1 0xE1 SHL DUP2 MSTORE PUSH1 0x4 DUP2 ADD DUP6 SWAP1 MSTORE PUSH1 0x1 PUSH1 0x1 PUSH1 0xA0 SHL SUB DUP3 AND SWAP1 PUSH4 0x5A4CFC06 SWAP1 PUSH1 0x24 ADD PUSH1 0x20 PUSH1 0x40 MLOAD DUP1 DUP4 SUB DUP2 PUSH1 0x0 DUP8 DUP1 EXTCODESIZE ISZERO DUP1 ISZERO PUSH3 0x1AF0 JUMPI PUSH1 0x0 DUP1 REVERT JUMPDEST POP GAS CALL ISZERO DUP1 ISZERO PUSH3 0x1B05 JUMPI RETURNDATASIZE PUSH1 0x0 DUP1 RETURNDATACOPY RETURNDATASIZE PUSH1 0x0 REVERT JUMPDEST POP POP POP POP PUSH1 0x40 MLOAD RETURNDATASIZE PUSH1 0x1F NOT PUSH1 0x1F DUP3 ADD AND DUP3 ADD DUP1 PUSH1 0x40 MSTORE POP DUP2 ADD SWAP1 PUSH3 0x1B2B SWAP2 SWAP1 PUSH3 0x2975 JUMP JUMPDEST POP PUSH1 0x40 MLOAD PUSH4 0x615BDDDB PUSH1 0xE1 SHL DUP2 MSTORE PUSH1 0x1 PUSH1 0x1 PUSH1 0xA0 SHL SUB DUP5 DUP2 AND PUSH1 0x4 DUP4 ADD MSTORE DUP3 AND SWAP1 PUSH4 0xC2B7BBB6 SWAP1 PUSH1 0x24 ADD PUSH1 0x20 PUSH1 0x40 MLOAD DUP1 DUP4 SUB DUP2 PUSH1 0x0 DUP8 DUP1 EXTCODESIZE ISZERO DUP1 ISZERO PUSH3 0x1B70 JUMPI PUSH1 0x0 DUP1 REVERT JUMPDEST POP GAS CALL ISZERO DUP1 ISZERO PUSH3 0x1B85 JUMPI RETURNDATASIZE PUSH1 0x0 DUP1 RETURNDATACOPY RETURNDATASIZE PUSH1 0x0 REVERT JUMPDEST POP POP POP POP PUSH1 0x40 MLOAD RETURNDATASIZE PUSH1 0x1F NOT PUSH1 0x1F DUP3 ADD AND DUP3 ADD DUP1 PUSH1 0x40 MSTORE POP DUP2 ADD SWAP1 PUSH3 0x1BAB SWAP2 SWAP1 PUSH3 0x2975 JUMP JUMPDEST POP PUSH3 0x1BB8 DUP6 DUP14 PUSH3 0x2C5C JUMP JUMPDEST SWAP12 POP POP POP POP POP POP POP POP POP POP PUSH3 0x1CA1 JUMP JUMPDEST POP POP PUSH1 0x40 DUP1 MLOAD PUSH1 0x60 DUP2 ADD DUP3 MSTORE PUSH1 0x1 PUSH1 0x1 PUSH1 0xA0 SHL SUB DUP8 DUP2 AND DUP3 MSTORE PUSH1 0x20 DUP3 ADD DUP8 DUP2 MSTORE PUSH1 0xFF DUP8 DUP2 AND SWAP5 DUP5 ADD SWAP5 DUP6 MSTORE PUSH1 0xA DUP1 SLOAD PUSH1 0x1 DUP2 ADD DUP3 SSTORE PUSH1 0x0 SWAP2 SWAP1 SWAP2 MSTORE SWAP4 MLOAD PUSH32 0xC65A7BB8D6351C1CF70C95A316CC6A92839C986682D98BC35F958F4883F9D2A8 PUSH1 0x3 SWAP1 SWAP6 MUL SWAP5 DUP6 ADD DUP1 SLOAD PUSH1 0x1 PUSH1 0x1 PUSH1 0xA0 SHL SUB NOT AND SWAP2 SWAP1 SWAP5 AND OR SWAP1 SWAP3 SSTORE MLOAD PUSH32 0xC65A7BB8D6351C1CF70C95A316CC6A92839C986682D98BC35F958F4883F9D2A9 DUP4 ADD SSTORE SWAP2 MLOAD PUSH32 0xC65A7BB8D6351C1CF70C95A316CC6A92839C986682D98BC35F958F4883F9D2AA SWAP1 SWAP2 ADD DUP1 SLOAD PUSH1 0xFF NOT AND SWAP2 SWAP1 SWAP3 AND OR SWAP1 SSTORE PUSH3 0x1CA9 JUMP JUMPDEST POP POP PUSH3 0x16E9 JUMP JUMPDEST POP PUSH3 0x16D7 JUMP JUMPDEST POP PUSH1 0x40 DUP1 MLOAD PUSH1 0x60 DUP2 ADD DUP3 MSTORE PUSH1 0x1 PUSH1 0x1 PUSH1 0xA0 SHL SUB SWAP5 DUP6 AND DUP2 MSTORE PUSH1 0x20 DUP2 ADD SWAP4 DUP5 MSTORE PUSH1 0xFF SWAP3 DUP4 AND SWAP2 DUP2 ADD SWAP2 DUP3 MSTORE PUSH1 0xA DUP1 SLOAD PUSH1 0x1 DUP2 ADD DUP3 SSTORE PUSH1 0x0 SWAP2 SWAP1 SWAP2 MSTORE SWAP1 MLOAD PUSH32 0xC65A7BB8D6351C1CF70C95A316CC6A92839C986682D98BC35F958F4883F9D2A8 PUSH1 0x3 SWAP1 SWAP3 MUL SWAP2 DUP3 ADD DUP1 SLOAD PUSH1 0x1 PUSH1 0x1 PUSH1 0xA0 SHL SUB NOT AND SWAP2 SWAP1 SWAP7 AND OR SWAP1 SWAP5 SSTORE SWAP2 MLOAD PUSH32 0xC65A7BB8D6351C1CF70C95A316CC6A92839C986682D98BC35F958F4883F9D2A9 DUP5 ADD SSTORE SWAP1 MLOAD PUSH32 0xC65A7BB8D6351C1CF70C95A316CC6A92839C986682D98BC35F958F4883F9D2AA SWAP1 SWAP3 ADD DUP1 SLOAD PUSH1 0xFF NOT AND SWAP3 SWAP1 SWAP2 AND SWAP2 SWAP1 SWAP2 OR SWAP1 SSTORE JUMP JUMPDEST DUP2 PUSH1 0x8 PUSH1 0x0 DUP3 DUP3 SLOAD PUSH3 0x1D9B SWAP2 SWAP1 PUSH3 0x2BFE JUMP JUMPDEST SWAP1 SWAP2 SSTORE POP POP PUSH1 0x40 DUP1 MLOAD PUSH1 0x60 DUP2 ADD DUP3 MSTORE PUSH1 0x1 PUSH1 0x1 PUSH1 0xA0 SHL SUB DUP6 DUP2 AND DUP3 MSTORE PUSH1 0x20 DUP1 DUP4 ADD DUP7 DUP2 MSTORE PUSH1 0xFF DUP7 DUP2 AND DUP6 DUP8 ADD SWAP1 DUP2 MSTORE PUSH1 0xB DUP1 SLOAD PUSH1 0x1 DUP2 ADD DUP3 SSTORE PUSH1 0x0 SWAP2 DUP3 MSTORE SWAP7 MLOAD PUSH32 0x175B7A638427703F0DBE7BB9BBF987A2551717B34E79F33B5B1008D1FA01DB9 PUSH1 0x3 SWAP1 SWAP9 MUL SWAP8 DUP9 ADD DUP1 SLOAD PUSH1 0x1 PUSH1 0x1 PUSH1 0xA0 SHL SUB NOT AND SWAP2 DUP9 AND SWAP2 SWAP1 SWAP2 OR SWAP1 SSTORE SWAP3 MLOAD PUSH32 0x175B7A638427703F0DBE7BB9BBF987A2551717B34E79F33B5B1008D1FA01DBA DUP8 ADD SSTORE MLOAD PUSH32 0x175B7A638427703F0DBE7BB9BBF987A2551717B34E79F33B5B1008D1FA01DBB SWAP1 SWAP6 ADD DUP1 SLOAD PUSH1 0xFF NOT AND SWAP6 SWAP1 SWAP2 AND SWAP5 SWAP1 SWAP5 OR SWAP1 SWAP4 SSTORE SWAP1 DUP8 AND DUP3 MSTORE PUSH1 0xE SWAP1 MSTORE SWAP1 DUP2 KECCAK256 DUP1 SLOAD DUP5 SWAP3 SWAP1 PUSH3 0x16D1 SWAP1 DUP5 SWAP1 PUSH3 0x2BFE JUMP JUMPDEST PUSH1 0xA SLOAD DUP1 ISZERO PUSH3 0x245F JUMPI DUP3 JUMPDEST PUSH8 0xDE0B6B3A7640000 DUP2 LT PUSH3 0x1CA9 JUMPI PUSH1 0x0 DUP1 PUSH1 0x0 JUMPDEST DUP5 DUP2 LT ISZERO PUSH3 0x1F56 JUMPI PUSH1 0x0 PUSH1 0xA DUP3 DUP2 SLOAD DUP2 LT PUSH3 0x1EE2 JUMPI PUSH4 0x4E487B71 PUSH1 0xE0 SHL PUSH1 0x0 MSTORE PUSH1 0x32 PUSH1 0x4 MSTORE PUSH1 0x24 PUSH1 0x0 REVERT JUMPDEST PUSH1 0x0 SWAP2 DUP3 MSTORE PUSH1 0x20 SWAP2 DUP3 SWAP1 KECCAK256 PUSH1 0x40 DUP1 MLOAD PUSH1 0x60 DUP2 ADD DUP3 MSTORE PUSH1 0x3 SWAP1 SWAP4 MUL SWAP1 SWAP2 ADD DUP1 SLOAD PUSH1 0x1 PUSH1 0x1 PUSH1 0xA0 SHL SUB AND DUP4 MSTORE PUSH1 0x1 DUP2 ADD SLOAD SWAP4 DUP4 ADD SWAP4 SWAP1 SWAP4 MSTORE PUSH1 0x2 SWAP1 SWAP3 ADD SLOAD PUSH1 0xFF SWAP1 DUP2 AND SWAP3 DUP3 ADD DUP4 SWAP1 MSTORE SWAP1 SWAP3 POP DUP5 AND LT ISZERO PUSH3 0x1F40 JUMPI DUP1 PUSH1 0x40 ADD MLOAD SWAP3 POP DUP2 SWAP4 POP JUMPDEST POP DUP1 PUSH3 0x1F4D DUP2 PUSH3 0x2D02 JUMP JUMPDEST SWAP2 POP POP PUSH3 0x1EB5 JUMP JUMPDEST POP DUP5 PUSH1 0xFF AND DUP2 PUSH1 0xFF AND GT ISZERO PUSH3 0x237F JUMPI PUSH1 0x0 PUSH1 0xA DUP4 DUP2 SLOAD DUP2 LT PUSH3 0x1F8A JUMPI PUSH4 0x4E487B71 PUSH1 0xE0 SHL PUSH1 0x0 MSTORE PUSH1 0x32 PUSH1 0x4 MSTORE PUSH1 0x24 PUSH1 0x0 REVERT JUMPDEST PUSH1 0x0 SWAP2 DUP3 MSTORE PUSH1 0x20 DUP1 DUP4 KECCAK256 PUSH1 0x40 DUP1 MLOAD PUSH1 0x60 DUP2 ADD DUP3 MSTORE PUSH1 0x3 SWAP1 SWAP5 MUL SWAP1 SWAP2 ADD DUP1 SLOAD PUSH1 0x1 PUSH1 0x1 PUSH1 0xA0 SHL SUB AND DUP1 DUP6 MSTORE PUSH1 0x1 DUP3 ADD SLOAD DUP6 DUP6 ADD MSTORE PUSH1 0x2 SWAP1 SWAP2 ADD SLOAD PUSH1 0xFF AND DUP5 DUP4 ADD MSTORE DUP2 MLOAD PUSH4 0x45564E65 PUSH1 0xE1 SHL DUP2 MSTORE SWAP2 MLOAD SWAP4 SWAP6 POP SWAP4 SWAP3 DUP5 SWAP3 PUSH4 0x8AAC9CCA SWAP3 PUSH1 0x4 DUP1 DUP3 ADD SWAP4 SWAP2 DUP3 SWAP1 SUB ADD DUP2 DUP7 DUP1 EXTCODESIZE ISZERO DUP1 ISZERO PUSH3 0x2001 JUMPI PUSH1 0x0 DUP1 REVERT JUMPDEST POP GAS STATICCALL ISZERO DUP1 ISZERO PUSH3 0x2016 JUMPI RETURNDATASIZE PUSH1 0x0 DUP1 RETURNDATACOPY RETURNDATASIZE PUSH1 0x0 REVERT JUMPDEST POP POP POP POP PUSH1 0x40 MLOAD RETURNDATASIZE PUSH1 0x1F NOT PUSH1 0x1F DUP3 ADD AND DUP3 ADD DUP1 PUSH1 0x40 MSTORE POP DUP2 ADD SWAP1 PUSH3 0x203C SWAP2 SWAP1 PUSH3 0x2AF1 JUMP JUMPDEST SWAP1 POP PUSH1 0x0 PUSH1 0x64 PUSH3 0x204E DUP2 DUP12 PUSH3 0x2C76 JUMP JUMPDEST PUSH1 0xFF AND DUP4 DUP7 PUSH1 0x20 ADD MLOAD PUSH3 0x2063 SWAP2 SWAP1 PUSH3 0x2C5C JUMP JUMPDEST PUSH3 0x206F SWAP2 SWAP1 PUSH3 0x2C3A JUMP JUMPDEST PUSH3 0x207B SWAP2 SWAP1 PUSH3 0x2C19 JUMP JUMPDEST SWAP1 POP PUSH1 0x0 DUP11 DUP3 GT ISZERO PUSH3 0x2090 JUMPI POP DUP10 PUSH3 0x2093 JUMP JUMPDEST POP DUP1 JUMPDEST PUSH1 0x0 PUSH3 0x20A4 PUSH1 0xFF DUP13 AND DUP4 PUSH3 0x2C3A JUMP JUMPDEST SWAP1 POP PUSH1 0x0 ADDRESS DUP8 PUSH1 0x0 ADD MLOAD DUP16 DUP5 DUP7 PUSH1 0x40 MLOAD PUSH3 0x20BF SWAP1 PUSH3 0x2830 JUMP JUMPDEST PUSH1 0x1 PUSH1 0x1 PUSH1 0xA0 SHL SUB SWAP6 DUP7 AND DUP2 MSTORE SWAP4 DUP6 AND PUSH1 0x20 DUP6 ADD MSTORE SWAP4 SWAP1 SWAP2 AND PUSH1 0x40 DUP4 ADD MSTORE PUSH1 0x60 DUP3 ADD MSTORE PUSH1 0x80 DUP2 ADD SWAP2 SWAP1 SWAP2 MSTORE PUSH1 0xA0 ADD PUSH1 0x40 MLOAD DUP1 SWAP2 SUB SWAP1 PUSH1 0x0 CREATE DUP1 ISZERO DUP1 ISZERO PUSH3 0x210A JUMPI RETURNDATASIZE PUSH1 0x0 DUP1 RETURNDATACOPY RETURNDATASIZE PUSH1 0x0 REVERT JUMPDEST POP SWAP1 POP PUSH1 0xA DUP10 DUP2 SLOAD DUP2 LT PUSH3 0x212F JUMPI PUSH4 0x4E487B71 PUSH1 0xE0 SHL PUSH1 0x0 MSTORE PUSH1 0x32 PUSH1 0x4 MSTORE PUSH1 0x24 PUSH1 0x0 REVERT JUMPDEST PUSH1 0x0 SWAP2 DUP3 MSTORE PUSH1 0x20 DUP3 KECCAK256 PUSH1 0x3 SWAP2 SWAP1 SWAP2 MUL ADD DUP1 SLOAD PUSH1 0x1 PUSH1 0x1 PUSH1 0xA0 SHL SUB NOT AND DUP2 SSTORE PUSH1 0x1 DUP2 ADD SWAP2 SWAP1 SWAP2 SSTORE PUSH1 0x2 ADD DUP1 SLOAD PUSH1 0xFF NOT AND SWAP1 SSTORE PUSH1 0x40 MLOAD PUSH4 0x2D267E03 PUSH1 0xE1 SHL DUP2 MSTORE PUSH1 0x4 DUP2 ADD DUP5 SWAP1 MSTORE DUP15 SWAP1 PUSH1 0x1 PUSH1 0x1 PUSH1 0xA0 SHL SUB DUP3 AND SWAP1 PUSH4 0x5A4CFC06 SWAP1 PUSH1 0x24 ADD PUSH1 0x20 PUSH1 0x40 MLOAD DUP1 DUP4 SUB DUP2 PUSH1 0x0 DUP8 DUP1 EXTCODESIZE ISZERO DUP1 ISZERO PUSH3 0x21A5 JUMPI PUSH1 0x0 DUP1 REVERT JUMPDEST POP GAS CALL ISZERO DUP1 ISZERO PUSH3 0x21BA JUMPI RETURNDATASIZE PUSH1 0x0 DUP1 RETURNDATACOPY RETURNDATASIZE PUSH1 0x0 REVERT JUMPDEST POP POP POP POP PUSH1 0x40 MLOAD RETURNDATASIZE PUSH1 0x1F NOT PUSH1 0x1F DUP3 ADD AND DUP3 ADD DUP1 PUSH1 0x40 MSTORE POP DUP2 ADD SWAP1 PUSH3 0x21E0 SWAP2 SWAP1 PUSH3 0x2975 JUMP JUMPDEST POP PUSH1 0x40 MLOAD PUSH4 0x615BDDDB PUSH1 0xE1 SHL DUP2 MSTORE PUSH1 0x1 PUSH1 0x1 PUSH1 0xA0 SHL SUB DUP4 DUP2 AND PUSH1 0x4 DUP4 ADD MSTORE DUP3 AND SWAP1 PUSH4 0xC2B7BBB6 SWAP1 PUSH1 0x24 ADD PUSH1 0x20 PUSH1 0x40 MLOAD DUP1 DUP4 SUB DUP2 PUSH1 0x0 DUP8 DUP1 EXTCODESIZE ISZERO DUP1 ISZERO PUSH3 0x2225 JUMPI PUSH1 0x0 DUP1 REVERT JUMPDEST POP GAS CALL ISZERO DUP1 ISZERO PUSH3 0x223A JUMPI RETURNDATASIZE PUSH1 0x0 DUP1 RETURNDATACOPY RETURNDATASIZE PUSH1 0x0 REVERT JUMPDEST POP POP POP POP PUSH1 0x40 MLOAD RETURNDATASIZE PUSH1 0x1F NOT PUSH1 0x1F DUP3 ADD AND DUP3 ADD DUP1 PUSH1 0x40 MSTORE POP DUP2 ADD SWAP1 PUSH3 0x2260 SWAP2 SWAP1 PUSH3 0x2975 JUMP JUMPDEST POP DUP8 MLOAD PUSH1 0x40 MLOAD PUSH4 0x2D267E03 PUSH1 0xE1 SHL DUP2 MSTORE PUSH1 0x4 DUP2 ADD DUP6 SWAP1 MSTORE PUSH1 0x1 PUSH1 0x1 PUSH1 0xA0 SHL SUB DUP3 AND SWAP1 PUSH4 0x5A4CFC06 SWAP1 PUSH1 0x24 ADD PUSH1 0x20 PUSH1 0x40 MLOAD DUP1 DUP4 SUB DUP2 PUSH1 0x0 DUP8 DUP1 EXTCODESIZE ISZERO DUP1 ISZERO PUSH3 0x22A6 JUMPI PUSH1 0x0 DUP1 REVERT JUMPDEST POP GAS CALL ISZERO DUP1 ISZERO PUSH3 0x22BB JUMPI RETURNDATASIZE PUSH1 0x0 DUP1 RETURNDATACOPY RETURNDATASIZE PUSH1 0x0 REVERT JUMPDEST POP POP POP POP PUSH1 0x40 MLOAD RETURNDATASIZE PUSH1 0x1F NOT PUSH1 0x1F DUP3 ADD AND DUP3 ADD DUP1 PUSH1 0x40 MSTORE POP DUP2 ADD SWAP1 PUSH3 0x22E1 SWAP2 SWAP1 PUSH3 0x2975 JUMP JUMPDEST POP PUSH1 0x40 MLOAD PUSH4 0x615BDDDB PUSH1 0xE1 SHL DUP2 MSTORE PUSH1 0x1 PUSH1 0x1 PUSH1 0xA0 SHL SUB DUP5 DUP2 AND PUSH1 0x4 DUP4 ADD MSTORE DUP3 AND SWAP1 PUSH4 0xC2B7BBB6 SWAP1 PUSH1 0x24 ADD PUSH1 0x20 PUSH1 0x40 MLOAD DUP1 DUP4 SUB DUP2 PUSH1 0x0 DUP8 DUP1 EXTCODESIZE ISZERO DUP1 ISZERO PUSH3 0x2326 JUMPI PUSH1 0x0 DUP1 REVERT JUMPDEST POP GAS CALL ISZERO DUP1 ISZERO PUSH3 0x233B JUMPI RETURNDATASIZE PUSH1 0x0 DUP1 RETURNDATACOPY RETURNDATASIZE PUSH1 0x0 REVERT JUMPDEST POP POP POP POP PUSH1 0x40 MLOAD RETURNDATASIZE PUSH1 0x1F NOT PUSH1 0x1F DUP3 ADD AND DUP3 ADD DUP1 PUSH1 0x40 MSTORE POP DUP2 ADD SWAP1 PUSH3 0x2361 SWAP2 SWAP1 PUSH3 0x2975 JUMP JUMPDEST POP PUSH3 0x236E DUP5 DUP14 PUSH3 0x2C5C JUMP JUMPDEST SWAP12 POP POP POP POP POP POP POP POP POP POP PUSH3 0x2457 JUMP JUMPDEST POP POP PUSH1 0x40 DUP1 MLOAD PUSH1 0x60 DUP2 ADD DUP3 MSTORE PUSH1 0x1 PUSH1 0x1 PUSH1 0xA0 SHL SUB DUP8 DUP2 AND DUP3 MSTORE PUSH1 0x20 DUP3 ADD DUP8 DUP2 MSTORE PUSH1 0xFF DUP8 DUP2 AND SWAP5 DUP5 ADD SWAP5 DUP6 MSTORE PUSH1 0xC DUP1 SLOAD PUSH1 0x1 DUP2 ADD DUP3 SSTORE PUSH1 0x0 SWAP2 SWAP1 SWAP2 MSTORE SWAP4 MLOAD PUSH32 0xDF6966C971051C3D54EC59162606531493A51404A002842F56009D7E5CF4A8C7 PUSH1 0x3 SWAP1 SWAP6 MUL SWAP5 DUP6 ADD DUP1 SLOAD PUSH1 0x1 PUSH1 0x1 PUSH1 0xA0 SHL SUB NOT AND SWAP2 SWAP1 SWAP5 AND OR SWAP1 SWAP3 SSTORE MLOAD PUSH32 0xDF6966C971051C3D54EC59162606531493A51404A002842F56009D7E5CF4A8C8 DUP4 ADD SSTORE SWAP2 MLOAD PUSH32 0xDF6966C971051C3D54EC59162606531493A51404A002842F56009D7E5CF4A8C9 SWAP1 SWAP2 ADD DUP1 SLOAD PUSH1 0xFF NOT AND SWAP2 SWAP1 SWAP3 AND OR SWAP1 SSTORE PUSH3 0x1CA9 JUMP JUMPDEST POP POP PUSH3 0x1E9F JUMP JUMPDEST POP PUSH1 0x40 DUP1 MLOAD PUSH1 0x60 DUP2 ADD DUP3 MSTORE PUSH1 0x1 PUSH1 0x1 PUSH1 0xA0 SHL SUB SWAP5 DUP6 AND DUP2 MSTORE PUSH1 0x20 DUP2 ADD SWAP4 DUP5 MSTORE PUSH1 0xFF SWAP3 DUP4 AND SWAP2 DUP2 ADD SWAP2 DUP3 MSTORE PUSH1 0xC DUP1 SLOAD PUSH1 0x1 DUP2 ADD DUP3 SSTORE PUSH1 0x0 SWAP2 SWAP1 SWAP2 MSTORE SWAP1 MLOAD PUSH32 0xDF6966C971051C3D54EC59162606531493A51404A002842F56009D7E5CF4A8C7 PUSH1 0x3 SWAP1 SWAP3 MUL SWAP2 DUP3 ADD DUP1 SLOAD PUSH1 0x1 PUSH1 0x1 PUSH1 0xA0 SHL SUB NOT AND SWAP2 SWAP1 SWAP7 AND OR SWAP1 SWAP5 SSTORE SWAP2 MLOAD PUSH32 0xDF6966C971051C3D54EC59162606531493A51404A002842F56009D7E5CF4A8C8 DUP5 ADD SSTORE SWAP1 MLOAD PUSH32 0xDF6966C971051C3D54EC59162606531493A51404A002842F56009D7E5CF4A8C9 SWAP1 SWAP3 ADD DUP1 SLOAD PUSH1 0xFF NOT AND SWAP3 SWAP1 SWAP2 AND SWAP2 SWAP1 SWAP2 OR SWAP1 SSTORE JUMP JUMPDEST PUSH1 0x0 PUSH3 0x258D DUP3 PUSH1 0x40 MLOAD DUP1 PUSH1 0x40 ADD PUSH1 0x40 MSTORE DUP1 PUSH1 0x20 DUP2 MSTORE PUSH1 0x20 ADD PUSH32 0x5361666545524332303A206C6F772D6C6576656C2063616C6C206661696C6564 DUP2 MSTORE POP DUP6 PUSH1 0x1 PUSH1 0x1 PUSH1 0xA0 SHL SUB AND PUSH3 0x260F SWAP1 SWAP3 SWAP2 SWAP1 PUSH4 0xFFFFFFFF AND JUMP JUMPDEST DUP1 MLOAD SWAP1 SWAP2 POP ISZERO PUSH3 0x147D JUMPI DUP1 DUP1 PUSH1 0x20 ADD SWAP1 MLOAD DUP2 ADD SWAP1 PUSH3 0x25AE SWAP2 SWAP1 PUSH3 0x2975 JUMP JUMPDEST PUSH3 0x147D JUMPI PUSH1 0x40 MLOAD PUSH3 0x461BCD PUSH1 0xE5 SHL DUP2 MSTORE PUSH1 0x20 PUSH1 0x4 DUP3 ADD MSTORE PUSH1 0x2A PUSH1 0x24 DUP3 ADD MSTORE PUSH32 0x5361666545524332303A204552433230206F7065726174696F6E20646964206E PUSH1 0x44 DUP3 ADD MSTORE PUSH10 0x1BDD081CDD58D8D95959 PUSH1 0xB2 SHL PUSH1 0x64 DUP3 ADD MSTORE PUSH1 0x84 ADD PUSH3 0x48F JUMP JUMPDEST PUSH1 0x60 PUSH3 0x2620 DUP5 DUP5 PUSH1 0x0 DUP6 PUSH3 0x2628 JUMP JUMPDEST SWAP5 SWAP4 POP POP POP POP JUMP JUMPDEST PUSH1 0x60 DUP3 SELFBALANCE LT ISZERO PUSH3 0x268B JUMPI PUSH1 0x40 MLOAD PUSH3 0x461BCD PUSH1 0xE5 SHL DUP2 MSTORE PUSH1 0x20 PUSH1 0x4 DUP3 ADD MSTORE PUSH1 0x26 PUSH1 0x24 DUP3 ADD MSTORE PUSH32 0x416464726573733A20696E73756666696369656E742062616C616E636520666F PUSH1 0x44 DUP3 ADD MSTORE PUSH6 0x1C8818D85B1B PUSH1 0xD2 SHL PUSH1 0x64 DUP3 ADD MSTORE PUSH1 0x84 ADD PUSH3 0x48F JUMP JUMPDEST PUSH1 0x1 PUSH1 0x1 PUSH1 0xA0 SHL SUB DUP6 AND EXTCODESIZE PUSH3 0x26E4 JUMPI PUSH1 0x40 MLOAD PUSH3 0x461BCD PUSH1 0xE5 SHL DUP2 MSTORE PUSH1 0x20 PUSH1 0x4 DUP3 ADD MSTORE PUSH1 0x1D PUSH1 0x24 DUP3 ADD MSTORE PUSH32 0x416464726573733A2063616C6C20746F206E6F6E2D636F6E7472616374000000 PUSH1 0x44 DUP3 ADD MSTORE PUSH1 0x64 ADD PUSH3 0x48F JUMP JUMPDEST PUSH1 0x0 DUP1 DUP7 PUSH1 0x1 PUSH1 0x1 PUSH1 0xA0 SHL SUB AND DUP6 DUP8 PUSH1 0x40 MLOAD PUSH3 0x2702 SWAP2 SWAP1 PUSH3 0x2B0A JUMP JUMPDEST PUSH1 0x0 PUSH1 0x40 MLOAD DUP1 DUP4 SUB DUP2 DUP6 DUP8 GAS CALL SWAP3 POP POP POP RETURNDATASIZE DUP1 PUSH1 0x0 DUP2 EQ PUSH3 0x2741 JUMPI PUSH1 0x40 MLOAD SWAP2 POP PUSH1 0x1F NOT PUSH1 0x3F RETURNDATASIZE ADD AND DUP3 ADD PUSH1 0x40 MSTORE RETURNDATASIZE DUP3 MSTORE RETURNDATASIZE PUSH1 0x0 PUSH1 0x20 DUP5 ADD RETURNDATACOPY PUSH3 0x2746 JUMP JUMPDEST PUSH1 0x60 SWAP2 POP JUMPDEST POP SWAP2 POP SWAP2 POP PUSH3 0x2758 DUP3 DUP3 DUP7 PUSH3 0x2763 JUMP JUMPDEST SWAP8 SWAP7 POP POP POP POP POP POP POP JUMP JUMPDEST PUSH1 0x60 DUP4 ISZERO PUSH3 0x2774 JUMPI POP DUP2 PUSH3 0xEE8 JUMP JUMPDEST DUP3 MLOAD ISZERO PUSH3 0x2785 JUMPI DUP3 MLOAD DUP1 DUP5 PUSH1 0x20 ADD REVERT JUMPDEST DUP2 PUSH1 0x40 MLOAD PUSH3 0x461BCD PUSH1 0xE5 SHL DUP2 MSTORE PUSH1 0x4 ADD PUSH3 0x48F SWAP2 SWAP1 PUSH3 0x2B28 JUMP JUMPDEST DUP3 DUP1 SLOAD PUSH3 0x27AF SWAP1 PUSH3 0x2CCB JUMP JUMPDEST SWAP1 PUSH1 0x0 MSTORE PUSH1 0x20 PUSH1 0x0 KECCAK256 SWAP1 PUSH1 0x1F ADD PUSH1 0x20 SWAP1 DIV DUP2 ADD SWAP3 DUP3 PUSH3 0x27D3 JUMPI PUSH1 0x0 DUP6 SSTORE PUSH3 0x281E JUMP JUMPDEST DUP3 PUSH1 0x1F LT PUSH3 0x27EE JUMPI DUP1 MLOAD PUSH1 0xFF NOT AND DUP4 DUP1 ADD OR DUP6 SSTORE PUSH3 0x281E JUMP JUMPDEST DUP3 DUP1 ADD PUSH1 0x1 ADD DUP6 SSTORE DUP3 ISZERO PUSH3 0x281E JUMPI SWAP2 DUP3 ADD JUMPDEST DUP3 DUP2 GT ISZERO PUSH3 0x281E JUMPI DUP3 MLOAD DUP3 SSTORE SWAP2 PUSH1 0x20 ADD SWAP2 SWAP1 PUSH1 0x1 ADD SWAP1 PUSH3 0x2801 JUMP JUMPDEST POP PUSH3 0x282C SWAP3 SWAP2 POP PUSH3 0x283E JUMP JUMPDEST POP SWAP1 JUMP JUMPDEST PUSH2 0x5F2 DUP1 PUSH3 0x2D66 DUP4 CODECOPY ADD SWAP1 JUMP JUMPDEST JUMPDEST DUP1 DUP3 GT ISZERO PUSH3 0x282C JUMPI PUSH1 0x0 DUP2 SSTORE PUSH1 0x1 ADD PUSH3 0x283F JUMP JUMPDEST PUSH1 0x0 DUP3 PUSH1 0x1F DUP4 ADD SLT PUSH3 0x2866 JUMPI DUP1 DUP2 REVERT JUMPDEST DUP2 CALLDATALOAD PUSH3 0x287D PUSH3 0x2877 DUP3 PUSH3 0x2BD3 JUMP JUMPDEST PUSH3 0x2B9F JUMP JUMPDEST DUP2 DUP2 MSTORE DUP5 PUSH1 0x20 DUP4 DUP7 ADD ADD GT ISZERO PUSH3 0x2892 JUMPI DUP3 DUP4 REVERT JUMPDEST DUP2 PUSH1 0x20 DUP6 ADD PUSH1 0x20 DUP4 ADD CALLDATACOPY SWAP1 DUP2 ADD PUSH1 0x20 ADD SWAP2 SWAP1 SWAP2 MSTORE SWAP3 SWAP2 POP POP JUMP JUMPDEST PUSH1 0x0 PUSH1 0x20 DUP3 DUP5 SUB SLT ISZERO PUSH3 0x28BE JUMPI DUP1 DUP2 REVERT JUMPDEST DUP2 CALLDATALOAD PUSH3 0xEE8 DUP2 PUSH3 0x2D4C JUMP JUMPDEST PUSH1 0x0 PUSH1 0x20 DUP3 DUP5 SUB SLT ISZERO PUSH3 0x28DD JUMPI DUP1 DUP2 REVERT JUMPDEST DUP2 MLOAD PUSH3 0xEE8 DUP2 PUSH3 0x2D4C JUMP JUMPDEST PUSH1 0x0 DUP1 PUSH1 0x0 DUP1 PUSH1 0x0 PUSH1 0xA0 DUP7 DUP9 SUB SLT ISZERO PUSH3 0x2902 JUMPI DUP1 DUP2 REVERT JUMPDEST DUP6 CALLDATALOAD PUSH3 0x290F DUP2 PUSH3 0x2D4C JUMP JUMPDEST SWAP5 POP PUSH1 0x20 DUP7 ADD CALLDATALOAD PUSH3 0x2921 DUP2 PUSH3 0x2D4C JUMP JUMPDEST SWAP4 POP PUSH1 0x40 DUP7 ADD CALLDATALOAD SWAP3 POP PUSH1 0x60 DUP7 ADD CALLDATALOAD PUSH1 0xFF DUP2 AND DUP2 EQ PUSH3 0x293E JUMPI DUP2 DUP3 REVERT JUMPDEST SWAP2 POP PUSH1 0x80 DUP7 ADD CALLDATALOAD PUSH8 0xFFFFFFFFFFFFFFFF DUP2 GT ISZERO PUSH3 0x295A JUMPI DUP2 DUP3 REVERT JUMPDEST PUSH3 0x2968 DUP9 DUP3 DUP10 ADD PUSH3 0x2855 JUMP JUMPDEST SWAP2 POP POP SWAP3 SWAP6 POP SWAP3 SWAP6 SWAP1 SWAP4 POP JUMP JUMPDEST PUSH1 0x0 PUSH1 0x20 DUP3 DUP5 SUB SLT ISZERO PUSH3 0x2987 JUMPI DUP1 DUP2 REVERT JUMPDEST DUP2 MLOAD DUP1 ISZERO ISZERO DUP2 EQ PUSH3 0xEE8 JUMPI DUP2 DUP3 REVERT JUMPDEST PUSH1 0x0 PUSH1 0x20 DUP3 DUP5 SUB SLT ISZERO PUSH3 0x29A9 JUMPI DUP1 DUP2 REVERT JUMPDEST DUP2 CALLDATALOAD PUSH8 0xFFFFFFFFFFFFFFFF DUP2 GT ISZERO PUSH3 0x29C0 JUMPI DUP2 DUP3 REVERT JUMPDEST PUSH3 0x2620 DUP5 DUP3 DUP6 ADD PUSH3 0x2855 JUMP JUMPDEST PUSH1 0x0 PUSH1 0x20 DUP3 DUP5 SUB SLT ISZERO PUSH3 0x29E0 JUMPI DUP1 DUP2 REVERT JUMPDEST DUP2 MLOAD PUSH8 0xFFFFFFFFFFFFFFFF DUP2 GT ISZERO PUSH3 0x29F7 JUMPI DUP2 DUP3 REVERT JUMPDEST DUP3 ADD PUSH1 0x1F DUP2 ADD DUP5 SGT PUSH3 0x2A08 JUMPI DUP2 DUP3 REVERT JUMPDEST DUP1 MLOAD PUSH3 0x2A19 PUSH3 0x2877 DUP3 PUSH3 0x2BD3 JUMP JUMPDEST DUP2 DUP2 MSTORE DUP6 PUSH1 0x20 DUP4 DUP6 ADD ADD GT ISZERO PUSH3 0x2A2E JUMPI DUP4 DUP5 REVERT JUMPDEST PUSH3 0x2A41 DUP3 PUSH1 0x20 DUP4 ADD PUSH1 0x20 DUP7 ADD PUSH3 0x2C9C JUMP JUMPDEST SWAP6 SWAP5 POP POP POP POP POP JUMP JUMPDEST PUSH1 0x0 DUP1 PUSH1 0x0 PUSH1 0x60 DUP5 DUP7 SUB SLT ISZERO PUSH3 0x2A5F JUMPI DUP3 DUP4 REVERT JUMPDEST DUP4 CALLDATALOAD PUSH8 0xFFFFFFFFFFFFFFFF DUP1 DUP3 GT ISZERO PUSH3 0x2A77 JUMPI DUP5 DUP6 REVERT JUMPDEST PUSH3 0x2A85 DUP8 DUP4 DUP9 ADD PUSH3 0x2855 JUMP JUMPDEST SWAP5 POP PUSH1 0x20 DUP7 ADD CALLDATALOAD SWAP2 POP DUP1 DUP3 GT ISZERO PUSH3 0x2A9B JUMPI DUP4 DUP5 REVERT JUMPDEST PUSH3 0x2AA9 DUP8 DUP4 DUP9 ADD PUSH3 0x2855 JUMP JUMPDEST SWAP4 POP PUSH1 0x40 DUP7 ADD CALLDATALOAD SWAP2 POP DUP1 DUP3 GT ISZERO PUSH3 0x2ABF JUMPI DUP3 DUP4 REVERT JUMPDEST POP PUSH3 0x2ACE DUP7 DUP3 DUP8 ADD PUSH3 0x2855 JUMP JUMPDEST SWAP2 POP POP SWAP3 POP SWAP3 POP SWAP3 JUMP JUMPDEST PUSH1 0x0 PUSH1 0x20 DUP3 DUP5 SUB SLT ISZERO PUSH3 0x2AEA JUMPI DUP1 DUP2 REVERT JUMPDEST POP CALLDATALOAD SWAP2 SWAP1 POP JUMP JUMPDEST PUSH1 0x0 PUSH1 0x20 DUP3 DUP5 SUB SLT ISZERO PUSH3 0x2B03 JUMPI DUP1 DUP2 REVERT JUMPDEST POP MLOAD SWAP2 SWAP1 POP JUMP JUMPDEST PUSH1 0x0 DUP3 MLOAD PUSH3 0x2B1E DUP2 DUP5 PUSH1 0x20 DUP8 ADD PUSH3 0x2C9C JUMP JUMPDEST SWAP2 SWAP1 SWAP2 ADD SWAP3 SWAP2 POP POP JUMP JUMPDEST PUSH1 0x20 DUP2 MSTORE PUSH1 0x0 DUP3 MLOAD DUP1 PUSH1 0x20 DUP5 ADD MSTORE PUSH3 0x2B49 DUP2 PUSH1 0x40 DUP6 ADD PUSH1 0x20 DUP8 ADD PUSH3 0x2C9C JUMP JUMPDEST PUSH1 0x1F ADD PUSH1 0x1F NOT AND SWAP2 SWAP1 SWAP2 ADD PUSH1 0x40 ADD SWAP3 SWAP2 POP POP JUMP JUMPDEST PUSH1 0x20 DUP1 DUP3 MSTORE PUSH1 0x22 SWAP1 DUP3 ADD MSTORE PUSH32 0x4F6E6C79206576656E74206F776E657273207365742077696E6E696E6720706F PUSH1 0x40 DUP3 ADD MSTORE PUSH2 0x1BDB PUSH1 0xF2 SHL PUSH1 0x60 DUP3 ADD MSTORE PUSH1 0x80 ADD SWAP1 JUMP JUMPDEST PUSH1 0x40 MLOAD PUSH1 0x1F DUP3 ADD PUSH1 0x1F NOT AND DUP2 ADD PUSH8 0xFFFFFFFFFFFFFFFF DUP2 GT DUP3 DUP3 LT OR ISZERO PUSH3 0x2BCB JUMPI PUSH3 0x2BCB PUSH3 0x2D36 JUMP JUMPDEST PUSH1 0x40 MSTORE SWAP2 SWAP1 POP JUMP JUMPDEST PUSH1 0x0 PUSH8 0xFFFFFFFFFFFFFFFF DUP3 GT ISZERO PUSH3 0x2BF0 JUMPI PUSH3 0x2BF0 PUSH3 0x2D36 JUMP JUMPDEST POP PUSH1 0x1F ADD PUSH1 0x1F NOT AND PUSH1 0x20 ADD SWAP1 JUMP JUMPDEST PUSH1 0x0 DUP3 NOT DUP3 GT ISZERO PUSH3 0x2C14 JUMPI PUSH3 0x2C14 PUSH3 0x2D20 JUMP JUMPDEST POP ADD SWAP1 JUMP JUMPDEST PUSH1 0x0 DUP3 PUSH3 0x2C35 JUMPI PUSH4 0x4E487B71 PUSH1 0xE0 SHL DUP2 MSTORE PUSH1 0x12 PUSH1 0x4 MSTORE PUSH1 0x24 DUP2 REVERT JUMPDEST POP DIV SWAP1 JUMP JUMPDEST PUSH1 0x0 DUP2 PUSH1 0x0 NOT DIV DUP4 GT DUP3 ISZERO ISZERO AND ISZERO PUSH3 0x2C57 JUMPI PUSH3 0x2C57 PUSH3 0x2D20 JUMP JUMPDEST POP MUL SWAP1 JUMP JUMPDEST PUSH1 0x0 DUP3 DUP3 LT ISZERO PUSH3 0x2C71 JUMPI PUSH3 0x2C71 PUSH3 0x2D20 JUMP JUMPDEST POP SUB SWAP1 JUMP JUMPDEST PUSH1 0x0 PUSH1 0xFF DUP3 AND PUSH1 0xFF DUP5 AND DUP1 DUP3 LT ISZERO PUSH3 0x2C93 JUMPI PUSH3 0x2C93 PUSH3 0x2D20 JUMP JUMPDEST SWAP1 SUB SWAP4 SWAP3 POP POP POP JUMP JUMPDEST PUSH1 0x0 JUMPDEST DUP4 DUP2 LT ISZERO PUSH3 0x2CB9 JUMPI DUP2 DUP2 ADD MLOAD DUP4 DUP3 ADD MSTORE PUSH1 0x20 ADD PUSH3 0x2C9F JUMP JUMPDEST DUP4 DUP2 GT ISZERO PUSH3 0x16D7 JUMPI POP POP PUSH1 0x0 SWAP2 ADD MSTORE JUMP JUMPDEST PUSH1 0x1 DUP2 DUP2 SHR SWAP1 DUP3 AND DUP1 PUSH3 0x2CE0 JUMPI PUSH1 0x7F DUP3 AND SWAP2 POP JUMPDEST PUSH1 0x20 DUP3 LT DUP2 EQ ISZERO PUSH3 0x15BF JUMPI PUSH4 0x4E487B71 PUSH1 0xE0 SHL PUSH1 0x0 MSTORE PUSH1 0x22 PUSH1 0x4 MSTORE PUSH1 0x24 PUSH1 0x0 REVERT JUMPDEST PUSH1 0x0 PUSH1 0x0 NOT DUP3 EQ ISZERO PUSH3 0x2D19 JUMPI PUSH3 0x2D19 PUSH3 0x2D20 JUMP JUMPDEST POP PUSH1 0x1 ADD SWAP1 JUMP JUMPDEST PUSH4 0x4E487B71 PUSH1 0xE0 SHL PUSH1 0x0 MSTORE PUSH1 0x11 PUSH1 0x4 MSTORE PUSH1 0x24 PUSH1 0x0 REVERT JUMPDEST PUSH4 0x4E487B71 PUSH1 0xE0 SHL PUSH1 0x0 MSTORE PUSH1 0x41 PUSH1 0x4 MSTORE PUSH1 0x24 PUSH1 0x0 REVERT JUMPDEST PUSH1 0x1 PUSH1 0x1 PUSH1 0xA0 SHL SUB DUP2 AND DUP2 EQ PUSH3 0x2D62 JUMPI PUSH1 0x0 DUP1 REVERT JUMPDEST POP JUMP INVALID PUSH1 0x80 PUSH1 0x40 MSTORE PUSH1 0x0 SLOAD PUSH1 0x8 DUP1 SLOAD PUSH1 0x1 PUSH1 0x1 PUSH1 0xA0 SHL SUB NOT AND PUSH1 0x1 PUSH1 0x1 PUSH1 0xA0 SHL SUB SWAP1 SWAP3 AND SWAP2 SWAP1 SWAP2 OR SWAP1 SSTORE CALLVALUE DUP1 ISZERO PUSH2 0x32 JUMPI PUSH1 0x0 DUP1 REVERT JUMPDEST POP PUSH1 0x40 MLOAD PUSH2 0x5F2 CODESIZE SUB DUP1 PUSH2 0x5F2 DUP4 CODECOPY DUP2 ADD PUSH1 0x40 DUP2 SWAP1 MSTORE PUSH2 0x51 SWAP2 PUSH2 0x1F4 JUMP JUMPDEST PUSH1 0x8 PUSH1 0x0 SWAP1 SLOAD SWAP1 PUSH2 0x100 EXP SWAP1 DIV PUSH1 0x1 PUSH1 0x1 PUSH1 0xA0 SHL SUB AND PUSH1 0x1 PUSH1 0x1 PUSH1 0xA0 SHL SUB AND PUSH4 0xC45A0155 PUSH1 0x40 MLOAD DUP2 PUSH4 0xFFFFFFFF AND PUSH1 0xE0 SHL DUP2 MSTORE PUSH1 0x4 ADD PUSH1 0x20 PUSH1 0x40 MLOAD DUP1 DUP4 SUB DUP2 DUP7 DUP1 EXTCODESIZE ISZERO DUP1 ISZERO PUSH2 0x9F JUMPI PUSH1 0x0 DUP1 REVERT JUMPDEST POP GAS STATICCALL ISZERO DUP1 ISZERO PUSH2 0xB3 JUMPI RETURNDATASIZE PUSH1 0x0 DUP1 RETURNDATACOPY RETURNDATASIZE PUSH1 0x0 REVERT JUMPDEST POP POP POP POP PUSH1 0x40 MLOAD RETURNDATASIZE PUSH1 0x1F NOT PUSH1 0x1F DUP3 ADD AND DUP3 ADD DUP1 PUSH1 0x40 MSTORE POP DUP2 ADD SWAP1 PUSH2 0xD7 SWAP2 SWAP1 PUSH2 0x1D3 JUMP JUMPDEST PUSH1 0x1 PUSH1 0x1 PUSH1 0xA0 SHL SUB AND CALLER PUSH1 0x1 PUSH1 0x1 PUSH1 0xA0 SHL SUB AND EQ PUSH2 0x16B JUMPI PUSH1 0x40 MLOAD PUSH3 0x461BCD PUSH1 0xE5 SHL DUP2 MSTORE PUSH1 0x20 PUSH1 0x4 DUP3 ADD MSTORE PUSH1 0x41 PUSH1 0x24 DUP3 ADD MSTORE PUSH32 0x6F6E6C792077656233626574732066697865646F64647320666163746F727920 PUSH1 0x44 DUP3 ADD MSTORE PUSH32 0x636F6E74726163742063616E20637265617465207468697320636F6E74726163 PUSH1 0x64 DUP3 ADD MSTORE PUSH1 0x1D PUSH1 0xFA SHL PUSH1 0x84 DUP3 ADD MSTORE PUSH1 0xA4 ADD PUSH1 0x40 MLOAD DUP1 SWAP2 SUB SWAP1 REVERT JUMPDEST PUSH1 0x1 DUP1 SLOAD PUSH1 0x1 PUSH1 0x1 PUSH1 0xA0 SHL SUB NOT SWAP1 DUP2 AND PUSH1 0x1 PUSH1 0x1 PUSH1 0xA0 SHL SUB SWAP8 DUP9 AND OR SWAP1 SWAP2 SSTORE PUSH1 0x2 DUP1 SLOAD DUP3 AND SWAP6 DUP8 AND SWAP6 SWAP1 SWAP6 OR SWAP1 SWAP5 SSTORE PUSH1 0x3 DUP1 SLOAD SWAP1 SWAP5 AND SWAP3 SWAP1 SWAP5 AND SWAP2 SWAP1 SWAP2 OR SWAP1 SWAP2 SSTORE PUSH1 0x6 SSTORE PUSH1 0x7 SSTORE PUSH2 0x249 JUMP JUMPDEST DUP1 MLOAD PUSH1 0x1 PUSH1 0x1 PUSH1 0xA0 SHL SUB DUP2 AND DUP2 EQ PUSH2 0x1CE JUMPI PUSH1 0x0 DUP1 REVERT JUMPDEST SWAP2 SWAP1 POP JUMP JUMPDEST PUSH1 0x0 PUSH1 0x20 DUP3 DUP5 SUB SLT ISZERO PUSH2 0x1E4 JUMPI DUP1 DUP2 REVERT JUMPDEST PUSH2 0x1ED DUP3 PUSH2 0x1B7 JUMP JUMPDEST SWAP4 SWAP3 POP POP POP JUMP JUMPDEST PUSH1 0x0 DUP1 PUSH1 0x0 DUP1 PUSH1 0x0 PUSH1 0xA0 DUP7 DUP9 SUB SLT ISZERO PUSH2 0x20B JUMPI DUP1 DUP2 REVERT JUMPDEST PUSH2 0x214 DUP7 PUSH2 0x1B7 JUMP JUMPDEST SWAP5 POP PUSH2 0x222 PUSH1 0x20 DUP8 ADD PUSH2 0x1B7 JUMP JUMPDEST SWAP4 POP PUSH2 0x230 PUSH1 0x40 DUP8 ADD PUSH2 0x1B7 JUMP JUMPDEST PUSH1 0x60 DUP8 ADD MLOAD PUSH1 0x80 SWAP1 SWAP8 ADD MLOAD SWAP6 SWAP9 SWAP5 SWAP8 POP SWAP6 SWAP5 SWAP4 SWAP3 POP POP POP JUMP JUMPDEST PUSH2 0x39A DUP1 PUSH2 0x258 PUSH1 0x0 CODECOPY PUSH1 0x0 RETURN INVALID PUSH1 0x80 PUSH1 0x40 MSTORE CALLVALUE DUP1 ISZERO PUSH2 0x10 JUMPI PUSH1 0x0 DUP1 REVERT JUMPDEST POP PUSH1 0x4 CALLDATASIZE LT PUSH2 0x88 JUMPI PUSH1 0x0 CALLDATALOAD PUSH1 0xE0 SHR DUP1 PUSH4 0x6D83A71F GT PUSH2 0x5B JUMPI DUP1 PUSH4 0x6D83A71F EQ PUSH2 0xF0 JUMPI DUP1 PUSH4 0x80F55605 EQ PUSH2 0x113 JUMPI DUP1 PUSH4 0xBAA1A3EC EQ PUSH2 0x126 JUMPI DUP1 PUSH4 0xED7A4E0B EQ PUSH2 0x139 JUMPI PUSH1 0x0 DUP1 REVERT JUMPDEST DUP1 PUSH4 0xF765E6D EQ PUSH2 0x8D JUMPI DUP1 PUSH4 0x156DCBF0 EQ PUSH2 0xBD JUMPI DUP1 PUSH4 0x15E894AB EQ PUSH2 0xD4 JUMPI DUP1 PUSH4 0x2EFE91EF EQ PUSH2 0xE7 JUMPI JUMPDEST PUSH1 0x0 DUP1 REVERT JUMPDEST PUSH1 0x3 SLOAD PUSH2 0xA0 SWAP1 PUSH1 0x1 PUSH1 0x1 PUSH1 0xA0 SHL SUB AND DUP2 JUMP JUMPDEST PUSH1 0x40 MLOAD PUSH1 0x1 PUSH1 0x1 PUSH1 0xA0 SHL SUB SWAP1 SWAP2 AND DUP2 MSTORE PUSH1 0x20 ADD JUMPDEST PUSH1 0x40 MLOAD DUP1 SWAP2 SUB SWAP1 RETURN JUMPDEST PUSH2 0xC6 PUSH1 0x6 SLOAD DUP2 JUMP JUMPDEST PUSH1 0x40 MLOAD SWAP1 DUP2 MSTORE PUSH1 0x20 ADD PUSH2 0xB4 JUMP JUMPDEST PUSH1 0x2 SLOAD PUSH2 0xA0 SWAP1 PUSH1 0x1 PUSH1 0x1 PUSH1 0xA0 SHL SUB AND DUP2 JUMP JUMPDEST PUSH2 0xC6 PUSH1 0x7 SLOAD DUP2 JUMP JUMPDEST PUSH2 0x103 PUSH2 0xFE CALLDATASIZE PUSH1 0x4 PUSH2 0x311 JUMP JUMPDEST PUSH2 0x14C JUMP JUMPDEST PUSH1 0x40 MLOAD SWAP1 ISZERO ISZERO DUP2 MSTORE PUSH1 0x20 ADD PUSH2 0xB4 JUMP JUMPDEST PUSH1 0x1 SLOAD PUSH2 0xA0 SWAP1 PUSH1 0x1 PUSH1 0x1 PUSH1 0xA0 SHL SUB AND DUP2 JUMP JUMPDEST PUSH1 0x4 SLOAD PUSH2 0xA0 SWAP1 PUSH1 0x1 PUSH1 0x1 PUSH1 0xA0 SHL SUB AND DUP2 JUMP JUMPDEST PUSH1 0x5 SLOAD PUSH2 0xA0 SWAP1 PUSH1 0x1 PUSH1 0x1 PUSH1 0xA0 SHL SUB AND DUP2 JUMP JUMPDEST PUSH1 0x8 SLOAD PUSH1 0x40 DUP1 MLOAD PUSH4 0xC45A0155 PUSH1 0xE0 SHL DUP2 MSTORE SWAP1 MLOAD PUSH1 0x0 SWAP3 PUSH1 0x1 PUSH1 0x1 PUSH1 0xA0 SHL SUB AND SWAP2 PUSH4 0xC45A0155 SWAP2 PUSH1 0x4 DUP1 DUP4 ADD SWAP3 PUSH1 0x20 SWAP3 SWAP2 SWAP1 DUP3 SWAP1 SUB ADD DUP2 DUP7 DUP1 EXTCODESIZE ISZERO DUP1 ISZERO PUSH2 0x191 JUMPI PUSH1 0x0 DUP1 REVERT JUMPDEST POP GAS STATICCALL ISZERO DUP1 ISZERO PUSH2 0x1A5 JUMPI RETURNDATASIZE PUSH1 0x0 DUP1 RETURNDATACOPY RETURNDATASIZE PUSH1 0x0 REVERT JUMPDEST POP POP POP POP PUSH1 0x40 MLOAD RETURNDATASIZE PUSH1 0x1F NOT PUSH1 0x1F DUP3 ADD AND DUP3 ADD DUP1 PUSH1 0x40 MSTORE POP DUP2 ADD SWAP1 PUSH2 0x1C9 SWAP2 SWAP1 PUSH2 0x334 JUMP JUMPDEST PUSH1 0x1 PUSH1 0x1 PUSH1 0xA0 SHL SUB AND CALLER PUSH1 0x1 PUSH1 0x1 PUSH1 0xA0 SHL SUB AND EQ PUSH2 0x25D JUMPI PUSH1 0x40 MLOAD PUSH3 0x461BCD PUSH1 0xE5 SHL DUP2 MSTORE PUSH1 0x20 PUSH1 0x4 DUP3 ADD MSTORE PUSH1 0x41 PUSH1 0x24 DUP3 ADD MSTORE PUSH32 0x6F6E6C792077656233626574732066697865646F64647320666163746F727920 PUSH1 0x44 DUP3 ADD MSTORE PUSH32 0x636F6E74726163742063616E20637265617465207468697320636F6E74726163 PUSH1 0x64 DUP3 ADD MSTORE PUSH1 0x1D PUSH1 0xFA SHL PUSH1 0x84 DUP3 ADD MSTORE PUSH1 0xA4 ADD PUSH1 0x40 MLOAD DUP1 SWAP2 SUB SWAP1 REVERT JUMPDEST PUSH1 0x4 DUP1 SLOAD PUSH1 0x1 PUSH1 0x1 PUSH1 0xA0 SHL SUB NOT AND PUSH1 0x1 PUSH1 0x1 PUSH1 0xA0 SHL SUB DUP5 AND SWAP1 DUP2 OR DUP3 SSTORE PUSH1 0x40 DUP1 MLOAD PUSH4 0x1C631F51 PUSH1 0xE2 SHL DUP2 MSTORE SWAP1 MLOAD SWAP2 SWAP3 DUP4 SWAP3 PUSH4 0x718C7D44 SWAP3 DUP1 DUP4 ADD SWAP3 PUSH1 0x20 SWAP3 SWAP2 DUP3 SWAP1 SUB ADD DUP2 DUP7 DUP1 EXTCODESIZE ISZERO DUP1 ISZERO PUSH2 0x2B0 JUMPI PUSH1 0x0 DUP1 REVERT JUMPDEST POP GAS STATICCALL ISZERO DUP1 ISZERO PUSH2 0x2C4 JUMPI RETURNDATASIZE PUSH1 0x0 DUP1 RETURNDATACOPY RETURNDATASIZE PUSH1 0x0 REVERT JUMPDEST POP POP POP POP PUSH1 0x40 MLOAD RETURNDATASIZE PUSH1 0x1F NOT PUSH1 0x1F DUP3 ADD AND DUP3 ADD DUP1 PUSH1 0x40 MSTORE POP DUP2 ADD SWAP1 PUSH2 0x2E8 SWAP2 SWAP1 PUSH2 0x334 JUMP JUMPDEST PUSH1 0x5 DUP1 SLOAD PUSH1 0x1 PUSH1 0x1 PUSH1 0xA0 SHL SUB NOT AND PUSH1 0x1 PUSH1 0x1 PUSH1 0xA0 SHL SUB SWAP3 SWAP1 SWAP3 AND SWAP2 SWAP1 SWAP2 OR SWAP1 SSTORE POP PUSH1 0x1 SWAP3 SWAP2 POP POP JUMP JUMPDEST PUSH1 0x0 PUSH1 0x20 DUP3 DUP5 SUB SLT ISZERO PUSH2 0x322 JUMPI DUP1 DUP2 REVERT JUMPDEST DUP2 CALLDATALOAD PUSH2 0x32D DUP2 PUSH2 0x34C JUMP JUMPDEST SWAP4 SWAP3 POP POP POP JUMP JUMPDEST PUSH1 0x0 PUSH1 0x20 DUP3 DUP5 SUB SLT ISZERO PUSH2 0x345 JUMPI DUP1 DUP2 REVERT JUMPDEST DUP2 MLOAD PUSH2 0x32D DUP2 JUMPDEST PUSH1 0x1 PUSH1 0x1 PUSH1 0xA0 SHL SUB DUP2 AND DUP2 EQ PUSH2 0x361 JUMPI PUSH1 0x0 DUP1 REVERT JUMPDEST POP JUMP INVALID LOG2 PUSH5 0x6970667358 0x22 SLT KECCAK256 CREATE PUSH6 0x4FC2F171D40F DUP4 SSTORE 0x29 0xAC SAR EQ DIFFICULTY NOT DUP7 0x2A ADDRESS SWAP2 0x28 NUMBER 0xC4 0xC9 NUMBER LT 0xF 0xD3 DUP9 CHAINID 0xAA MULMOD PUSH5 0x736F6C6343 STOP ADDMOD DIV STOP CALLER LOG2 PUSH5 0x6970667358 0x22 SLT KECCAK256 0x26 PUSH1 0xFE 0xE0 0xAC PUSH4 0xEA96E68C 0xC9 SWAP14 DIFFICULTY 0xD5 0xE9 CALLCODE SWAP7 0xE1 0x2C REVERT 0xCF 0xD2 CODESIZE 0xCE SWAP10 REVERT 0xC9 PUSH25 0x688C4DFC64736F6C6343000804003300000000000000000000 "
				},
				"gasEstimates": {
					"creation": {
						"codeDepositCost": "2639400",
						"executionCost": "infinite",
						"totalCost": "infinite"
					},
					"external": {
						"addBet(address,address,uint256,uint8,string)": "infinite",
						"cancelMarket()": "infinite",
						"eventAddress()": "1147",
						"getEventName()": "infinite",
						"getName()": "infinite",
						"hasSetWinningSide()": "1060",
						"isCanceled()": "1089",
						"name()": "infinite",
						"setWinningSide(string)": "infinite",
						"settlePair(address)": "infinite",
						"sideABets(uint256)": "3757",
						"sideAName()": "infinite",
						"sideATotalStake()": "1061",
						"sideAUsersStakes(address)": "1258",
						"sideBBets(uint256)": "3800",
						"sideBName()": "infinite",
						"sideBTotalStake()": "1063",
						"sideBUsersStakes(address)": "1280",
						"upadteMarket(string,string,string)": "infinite",
						"winningSide()": "infinite",
						"withdrawPending(address)": "infinite"
					},
					"internal": {
						"_addToSideA(address,address,uint256,uint8)": "infinite",
						"_addToSideB(address,address,uint256,uint8)": "infinite",
						"_matchSideABet(address,uint256,uint8)": "infinite",
						"_matchSideBBet(address,uint256,uint8)": "infinite",
						"isValidBet(address)": "infinite"
					}
				},
				"methodIdentifiers": {
					"addBet(address,address,uint256,uint8,string)": "9bf5b845",
					"cancelMarket()": "6bfefd6b",
					"eventAddress()": "fad56779",
					"getEventName()": "b81e43fc",
					"getName()": "17d7de7c",
					"hasSetWinningSide()": "bd92630c",
					"isCanceled()": "0ed5a933",
					"name()": "06fdde03",
					"setWinningSide(string)": "b40a4f05",
					"settlePair(address)": "2b4a3527",
					"sideABets(uint256)": "948fb24d",
					"sideAName()": "8eb1a4ad",
					"sideATotalStake()": "d37e2996",
					"sideAUsersStakes(address)": "3ab8781c",
					"sideBBets(uint256)": "e7c9a87f",
					"sideBName()": "a355f897",
					"sideBTotalStake()": "0b469bda",
					"sideBUsersStakes(address)": "5a358464",
					"upadteMarket(string,string,string)": "83bbe262",
					"winningSide()": "fbf06338",
					"withdrawPending(address)": "03afd56b"
				}
			},
			"storageLayout": {
				"storage": [
					{
						"astId": 826,
						"contract": "contracts/Market.sol:Market",
						"label": "web3betsAddress",
						"offset": 0,
						"slot": "0",
						"type": "t_address"
					},
					{
						"astId": 828,
						"contract": "contracts/Market.sol:Market",
						"label": "name",
						"offset": 0,
						"slot": "1",
						"type": "t_string_storage"
					},
					{
						"astId": 831,
						"contract": "contracts/Market.sol:Market",
						"label": "eventAddress",
						"offset": 0,
						"slot": "2",
						"type": "t_address"
					},
					{
						"astId": 834,
						"contract": "contracts/Market.sol:Market",
						"label": "hasSetWinningSide",
						"offset": 20,
						"slot": "2",
						"type": "t_bool"
					},
					{
						"astId": 837,
						"contract": "contracts/Market.sol:Market",
						"label": "winningSide",
						"offset": 0,
						"slot": "3",
						"type": "t_string_storage"
					},
					{
						"astId": 841,
						"contract": "contracts/Market.sol:Market",
						"label": "isCanceled",
						"offset": 0,
						"slot": "4",
						"type": "t_bool"
					},
					{
						"astId": 844,
						"contract": "contracts/Market.sol:Market",
						"label": "sideAName",
						"offset": 0,
						"slot": "5",
						"type": "t_string_storage"
					},
					{
						"astId": 848,
						"contract": "contracts/Market.sol:Market",
						"label": "sideATotalStake",
						"offset": 0,
						"slot": "6",
						"type": "t_uint256"
					},
					{
						"astId": 851,
						"contract": "contracts/Market.sol:Market",
						"label": "sideBName",
						"offset": 0,
						"slot": "7",
						"type": "t_string_storage"
					},
					{
						"astId": 855,
						"contract": "contracts/Market.sol:Market",
						"label": "sideBTotalStake",
						"offset": 0,
						"slot": "8",
						"type": "t_uint256"
					},
					{
						"astId": 866,
						"contract": "contracts/Market.sol:Market",
						"label": "sideABets",
						"offset": 0,
						"slot": "9",
						"type": "t_array(t_struct(MarketBet)862_storage)dyn_storage"
					},
					{
						"astId": 870,
						"contract": "contracts/Market.sol:Market",
						"label": "sideABetsPending",
						"offset": 0,
						"slot": "10",
						"type": "t_array(t_struct(MarketBet)862_storage)dyn_storage"
					},
					{
						"astId": 874,
						"contract": "contracts/Market.sol:Market",
						"label": "sideBBets",
						"offset": 0,
						"slot": "11",
						"type": "t_array(t_struct(MarketBet)862_storage)dyn_storage"
					},
					{
						"astId": 878,
						"contract": "contracts/Market.sol:Market",
						"label": "sideBBetsPending",
						"offset": 0,
						"slot": "12",
						"type": "t_array(t_struct(MarketBet)862_storage)dyn_storage"
					},
					{
						"astId": 882,
						"contract": "contracts/Market.sol:Market",
						"label": "sideAUsersStakes",
						"offset": 0,
						"slot": "13",
						"type": "t_mapping(t_address,t_uint256)"
					},
					{
						"astId": 886,
						"contract": "contracts/Market.sol:Market",
						"label": "sideBUsersStakes",
						"offset": 0,
						"slot": "14",
						"type": "t_mapping(t_address,t_uint256)"
					},
					{
						"astId": 892,
						"contract": "contracts/Market.sol:Market",
						"label": "web3bets",
						"offset": 0,
						"slot": "15",
						"type": "t_contract(IWeb3BetsFO)2299"
					},
					{
						"astId": 897,
						"contract": "contracts/Market.sol:Market",
						"label": "stableCoin",
						"offset": 0,
						"slot": "16",
						"type": "t_address"
					},
					{
						"astId": 903,
						"contract": "contracts/Market.sol:Market",
						"label": "_stableCoinWrapper",
						"offset": 0,
						"slot": "17",
						"type": "t_contract(IERC20)77"
					}
				],
				"types": {
					"t_address": {
						"encoding": "inplace",
						"label": "address",
						"numberOfBytes": "20"
					},
					"t_array(t_struct(MarketBet)862_storage)dyn_storage": {
						"base": "t_struct(MarketBet)862_storage",
						"encoding": "dynamic_array",
						"label": "struct Market.MarketBet[]",
						"numberOfBytes": "32"
					},
					"t_bool": {
						"encoding": "inplace",
						"label": "bool",
						"numberOfBytes": "1"
					},
					"t_contract(IERC20)77": {
						"encoding": "inplace",
						"label": "contract IERC20",
						"numberOfBytes": "20"
					},
					"t_contract(IWeb3BetsFO)2299": {
						"encoding": "inplace",
						"label": "contract IWeb3BetsFO",
						"numberOfBytes": "20"
					},
					"t_mapping(t_address,t_uint256)": {
						"encoding": "mapping",
						"key": "t_address",
						"label": "mapping(address => uint256)",
						"numberOfBytes": "32",
						"value": "t_uint256"
					},
					"t_string_storage": {
						"encoding": "bytes",
						"label": "string",
						"numberOfBytes": "32"
					},
					"t_struct(MarketBet)862_storage": {
						"encoding": "inplace",
						"label": "struct Market.MarketBet",
						"members": [
							{
								"astId": 857,
								"contract": "contracts/Market.sol:Market",
								"label": "betAddress",
								"offset": 0,
								"slot": "0",
								"type": "t_address"
							},
							{
								"astId": 859,
								"contract": "contracts/Market.sol:Market",
								"label": "stake",
								"offset": 0,
								"slot": "1",
								"type": "t_uint256"
							},
							{
								"astId": 861,
								"contract": "contracts/Market.sol:Market",
								"label": "odds",
								"offset": 0,
								"slot": "2",
								"type": "t_uint8"
							}
						],
						"numberOfBytes": "96"
					},
					"t_uint256": {
						"encoding": "inplace",
						"label": "uint256",
						"numberOfBytes": "32"
					},
					"t_uint8": {
						"encoding": "inplace",
						"label": "uint8",
						"numberOfBytes": "1"
					}
				}
			},
			"userdoc": {
				"kind": "user",
				"methods": {},
				"version": 1
			}
		}
	}
}