{
	"contracts/Market.sol": {
		"Market": {
			"abi": [
				{
					"inputs": [
						{
							"internalType": "address",
							"name": "owner_",
							"type": "address"
						}
					],
					"stateMutability": "nonpayable",
					"type": "constructor"
				},
				{
					"anonymous": false,
					"inputs": [
						{
							"indexed": false,
							"internalType": "address",
							"name": "better",
							"type": "address"
						},
						{
							"indexed": false,
							"internalType": "address",
							"name": "marketAddr",
							"type": "address"
						},
						{
							"indexed": false,
							"internalType": "bytes32",
							"name": "hash",
							"type": "bytes32"
						},
						{
							"indexed": false,
							"internalType": "uint256",
							"name": "stake",
							"type": "uint256"
						},
						{
							"indexed": false,
							"internalType": "uint256",
							"name": "odds",
							"type": "uint256"
						},
						{
							"indexed": false,
							"internalType": "uint256",
							"name": "side",
							"type": "uint256"
						}
					],
					"name": "BetCreated",
					"type": "event"
				},
				{
					"anonymous": false,
					"inputs": [
						{
							"indexed": false,
							"internalType": "bytes32",
							"name": "betHashA",
							"type": "bytes32"
						},
						{
							"indexed": false,
							"internalType": "bytes32",
							"name": "betHashB",
							"type": "bytes32"
						},
						{
							"indexed": false,
							"internalType": "uint256",
							"name": "amountA",
							"type": "uint256"
						},
						{
							"indexed": false,
							"internalType": "uint256",
							"name": "amountB",
							"type": "uint256"
						}
					],
					"name": "PairCreated",
					"type": "event"
				},
				{
					"anonymous": false,
					"inputs": [
						{
							"indexed": false,
							"internalType": "address",
							"name": "beneficiary",
							"type": "address"
						},
						{
							"indexed": false,
							"internalType": "uint256",
							"name": "value",
							"type": "uint256"
						}
					],
					"name": "Withdraw",
					"type": "event"
				},
				{
					"inputs": [
						{
							"internalType": "address",
							"name": "_better",
							"type": "address"
						},
						{
							"internalType": "address",
							"name": "_affiliate",
							"type": "address"
						},
						{
							"internalType": "uint256",
							"name": "_stake",
							"type": "uint256"
						},
						{
							"internalType": "uint256",
							"name": "_odds",
							"type": "uint256"
						},
						{
							"internalType": "uint256",
							"name": "_side",
							"type": "uint256"
						},
						{
							"internalType": "bool",
							"name": "_instant",
							"type": "bool"
						}
					],
					"name": "addBet",
					"outputs": [
						{
							"internalType": "bytes32",
							"name": "",
							"type": "bytes32"
						}
					],
					"stateMutability": "nonpayable",
					"type": "function"
				},
				{
					"inputs": [],
					"name": "cancelMarket",
					"outputs": [
						{
							"internalType": "bool",
							"name": "",
							"type": "bool"
						}
					],
					"stateMutability": "nonpayable",
					"type": "function"
				},
				{
					"inputs": [
						{
							"internalType": "bytes32",
							"name": "_bet",
							"type": "bytes32"
						}
					],
					"name": "cashOut",
					"outputs": [],
					"stateMutability": "nonpayable",
					"type": "function"
				},
				{
					"inputs": [
						{
							"internalType": "address",
							"name": "_user",
							"type": "address"
						}
					],
					"name": "getBalance",
					"outputs": [
						{
							"internalType": "uint256",
							"name": "",
							"type": "uint256"
						}
					],
					"stateMutability": "view",
					"type": "function"
				},
				{
					"inputs": [
						{
							"internalType": "address",
							"name": "_user",
							"type": "address"
						}
					],
					"name": "getUserBets",
					"outputs": [
						{
							"components": [
								{
									"internalType": "address",
									"name": "better",
									"type": "address"
								},
								{
									"internalType": "address",
									"name": "affiliate",
									"type": "address"
								},
								{
									"internalType": "uint256",
									"name": "stake",
									"type": "uint256"
								},
								{
									"internalType": "uint256",
									"name": "matched",
									"type": "uint256"
								},
								{
									"internalType": "uint256",
									"name": "odds",
									"type": "uint256"
								},
								{
									"internalType": "uint256",
									"name": "side",
									"type": "uint256"
								}
							],
							"internalType": "struct IMarket.MarketBet[]",
							"name": "",
							"type": "tuple[]"
						}
					],
					"stateMutability": "view",
					"type": "function"
				},
				{
					"inputs": [
						{
							"internalType": "uint256",
							"name": "_winningSide",
							"type": "uint256"
						}
					],
					"name": "settle",
					"outputs": [
						{
							"internalType": "bool",
							"name": "",
							"type": "bool"
						}
					],
					"stateMutability": "nonpayable",
					"type": "function"
				},
				{
					"inputs": [
						{
							"internalType": "bytes32",
							"name": "_bet",
							"type": "bytes32"
						}
					],
					"name": "settleBet",
					"outputs": [],
					"stateMutability": "nonpayable",
					"type": "function"
				},
				{
					"inputs": [],
					"name": "start",
					"outputs": [
						{
							"internalType": "bool",
							"name": "",
							"type": "bool"
						}
					],
					"stateMutability": "nonpayable",
					"type": "function"
				},
				{
					"inputs": [],
					"name": "status",
					"outputs": [
						{
							"internalType": "uint256",
							"name": "",
							"type": "uint256"
						}
					],
					"stateMutability": "view",
					"type": "function"
				},
				{
					"inputs": [
						{
							"internalType": "address",
							"name": "_addr",
							"type": "address"
						}
					],
					"name": "withdraw",
					"outputs": [
						{
							"internalType": "bool",
							"name": "",
							"type": "bool"
						}
					],
					"stateMutability": "nonpayable",
					"type": "function"
				},
				{
					"inputs": [
						{
							"internalType": "bytes32",
							"name": "_bet",
							"type": "bytes32"
						}
					],
					"name": "withdrawPending",
					"outputs": [],
					"stateMutability": "nonpayable",
					"type": "function"
				}
			],
			"devdoc": {
				"kind": "dev",
				"methods": {},
				"version": 1
			},
			"evm": {
				"assembly": "    /* \"contracts/Market.sol\":194:12622  contract Market is IMarket, ReentrancyGuard {... */\n  mstore(0x40, 0xc0)\n    /* \"contracts/Market.sol\":439:440  0 */\n  0x00\n    /* \"contracts/Market.sol\":406:440  uint256 public override status = 0 */\n  0x03\n  sstore\n    /* \"contracts/Market.sol\":1192:1199  factory */\n  sload(0x02)\n    /* \"contracts/Market.sol\":1144:1200  IWeb3BetsFO immutable private app = IWeb3BetsFO(factory) */\n  0x60\n  shl\n  not(sub(shl(0x60, 0x01), 0x01))\n  and\n  0xa0\n  mstore\n    /* \"contracts/Market.sol\":1825:1969  constructor(address owner_) {... */\n  callvalue\n  dup1\n  iszero\n  tag_1\n  jumpi\n  0x00\n  dup1\n  revert\ntag_1:\n  pop\n  mload(0x40)\n  sub(codesize, bytecodeSize)\n  dup1\n  bytecodeSize\n  dup4\n  codecopy\n  dup2\n  add\n  0x40\n  dup2\n  swap1\n  mstore\n  tag_2\n  swap2\n  tag_3\n  jump\t// in\ntag_2:\n    /* \"@openzeppelin/contracts/security/ReentrancyGuard.sol\":1701:1702  1 */\n  0x01\n    /* \"@openzeppelin/contracts/security/ReentrancyGuard.sol\":1806:1813  _status */\n  0x00\n    /* \"@openzeppelin/contracts/security/ReentrancyGuard.sol\":1806:1828  _status = _NOT_ENTERED */\n  dup2\n  swap1\n  sstore\n    /* \"contracts/Market.sol\":1863:1877  owner = owner_ */\n  dup1\n  sload\n  not(sub(shl(0xa0, 0x01), 0x01))\n  swap1\n  dup2\n  and\n  sub(shl(0xa0, 0x01), 0x01)\n  dup5\n  and\n  or\n  swap1\n  swap2\n  sstore\n    /* \"contracts/Market.sol\":1887:1894  factory */\n  0x02\n    /* \"contracts/Market.sol\":1887:1907  factory = msg.sender */\n  dup1\n  sload\n    /* \"contracts/Market.sol\":1897:1907  msg.sender */\n  caller\n    /* \"contracts/Market.sol\":1887:1907  factory = msg.sender */\n  swap3\n  and\n  dup3\n  or\n  swap1\n  sstore\n    /* \"contracts/Market.sol\":1932:1961  IWeb3BetsFO(factory).scAddr() */\n  0x40\n  dup1\n  mload\n  shl(0xe3, 0x966ed9)\n  dup2\n  mstore\n  swap1\n  mload\n    /* \"contracts/Market.sol\":1932:1959  IWeb3BetsFO(factory).scAddr */\n  0x04b376c8\n  swap2\n    /* \"contracts/Market.sol\":1932:1961  IWeb3BetsFO(factory).scAddr() */\n  0x04\n  dup1\n  dup3\n  add\n  swap3\n  0x20\n  swap3\n  swap1\n  swap2\n  swap1\n  dup3\n  swap1\n  sub\n  add\n  dup2\n    /* \"contracts/Market.sol\":1897:1907  msg.sender */\n  dup7\n    /* \"contracts/Market.sol\":1932:1961  IWeb3BetsFO(factory).scAddr() */\n  dup1\n  extcodesize\n  iszero\n  dup1\n  iszero\n  tag_8\n  jumpi\n  0x00\n  dup1\n  revert\ntag_8:\n  pop\n  gas\n  staticcall\n  iszero\n  dup1\n  iszero\n  tag_10\n  jumpi\n  returndatasize\n  0x00\n  dup1\n  returndatacopy\n  revert(0x00, returndatasize)\ntag_10:\n  pop\n  pop\n  pop\n  pop\n  mload(0x40)\n  returndatasize\n  not(0x1f)\n  0x1f\n  dup3\n  add\n  and\n  dup3\n  add\n  dup1\n  0x40\n  mstore\n  pop\n  dup2\n  add\n  swap1\n  tag_11\n  swap2\n  swap1\n  tag_3\n  jump\t// in\ntag_11:\n    /* \"contracts/Market.sol\":1917:1962  token = IERC20(IWeb3BetsFO(factory).scAddr()) */\n  0x60\n  shl\n  not(sub(shl(0x60, 0x01), 0x01))\n  and\n  0x80\n  mstore\n  pop\n    /* \"contracts/Market.sol\":194:12622  contract Market is IMarket, ReentrancyGuard {... */\n  jump(tag_13)\n    /* \"#utility.yul\":14:324   */\ntag_3:\n    /* \"#utility.yul\":84:90   */\n  0x00\n    /* \"#utility.yul\":137:139   */\n  0x20\n    /* \"#utility.yul\":125:134   */\n  dup3\n    /* \"#utility.yul\":116:123   */\n  dup5\n    /* \"#utility.yul\":112:135   */\n  sub\n    /* \"#utility.yul\":108:140   */\n  slt\n    /* \"#utility.yul\":105:107   */\n  iszero\n  tag_15\n  jumpi\n    /* \"#utility.yul\":158:164   */\n  dup1\n    /* \"#utility.yul\":150:156   */\n  dup2\n    /* \"#utility.yul\":143:165   */\n  revert\n    /* \"#utility.yul\":105:107   */\ntag_15:\n    /* \"#utility.yul\":189:205   */\n  dup2\n  mload\n  sub(shl(0xa0, 0x01), 0x01)\n    /* \"#utility.yul\":234:265   */\n  dup2\n  and\n    /* \"#utility.yul\":224:266   */\n  dup2\n  eq\n    /* \"#utility.yul\":214:216   */\n  tag_16\n  jumpi\n    /* \"#utility.yul\":285:291   */\n  dup2\n    /* \"#utility.yul\":277:283   */\n  dup3\n    /* \"#utility.yul\":270:292   */\n  revert\n    /* \"#utility.yul\":214:216   */\ntag_16:\n    /* \"#utility.yul\":313:318   */\n  swap4\n    /* \"#utility.yul\":95:324   */\n  swap3\n  pop\n  pop\n  pop\n  jump\t// out\ntag_13:\n    /* \"contracts/Market.sol\":194:12622  contract Market is IMarket, ReentrancyGuard {... */\n  shr(0x60, mload(0x80))\n  shr(0x60, mload(0xa0))\n  codecopy(0x00, dataOffset(sub_0), dataSize(sub_0))\n  0x00\n  assignImmutable(\"0x911a39fbf665a24ad3b6efc185d4b936bbda1900793ae2f7c00f4d18bdd96685\")\n  0x00\n  assignImmutable(\"0xb35cf579f54ccafa8cda334bf8f538b0f7a8230c902d5a84be1ea7996ef7fb49\")\n  return(0x00, dataSize(sub_0))\nstop\n\nsub_0: assembly {\n        /* \"contracts/Market.sol\":194:12622  contract Market is IMarket, ReentrancyGuard {... */\n      mstore(0x40, 0x80)\n      callvalue\n      dup1\n      iszero\n      tag_1\n      jumpi\n      0x00\n      dup1\n      revert\n    tag_1:\n      pop\n      jumpi(tag_2, lt(calldatasize, 0x04))\n      shr(0xe0, calldataload(0x00))\n      dup1\n      0x78d65b2f\n      gt\n      tag_14\n      jumpi\n      dup1\n      0x78d65b2f\n      eq\n      tag_8\n      jumpi\n      dup1\n      0x7d7f9232\n      eq\n      tag_9\n      jumpi\n      dup1\n      0x8df82800\n      eq\n      tag_10\n      jumpi\n      dup1\n      0xbe9a6555\n      eq\n      tag_11\n      jumpi\n      dup1\n      0xc87b3171\n      eq\n      tag_12\n      jumpi\n      dup1\n      0xf8b2cb4f\n      eq\n      tag_13\n      jumpi\n      0x00\n      dup1\n      revert\n    tag_14:\n      dup1\n      0x200d2ed2\n      eq\n      tag_3\n      jumpi\n      dup1\n      0x2d56657d\n      eq\n      tag_4\n      jumpi\n      dup1\n      0x51cff8d9\n      eq\n      tag_5\n      jumpi\n      dup1\n      0x675f6537\n      eq\n      tag_6\n      jumpi\n      dup1\n      0x6bfefd6b\n      eq\n      tag_7\n      jumpi\n    tag_2:\n      0x00\n      dup1\n      revert\n        /* \"contracts/Market.sol\":406:440  uint256 public override status = 0 */\n    tag_3:\n      tag_15\n      sload(0x03)\n      dup2\n      jump\n    tag_15:\n      mload(0x40)\n        /* \"#utility.yul\":6385:6410   */\n      swap1\n      dup2\n      mstore\n        /* \"#utility.yul\":6373:6375   */\n      0x20\n        /* \"#utility.yul\":6358:6376   */\n      add\n        /* \"contracts/Market.sol\":406:440  uint256 public override status = 0 */\n    tag_17:\n      mload(0x40)\n      dup1\n      swap2\n      sub\n      swap1\n      return\n        /* \"contracts/Market.sol\":2090:2440  function getUserBets(address _user) external view override returns(MarketBet[] memory) {... */\n    tag_4:\n      tag_19\n      tag_20\n      calldatasize\n      0x04\n      tag_21\n      jump\t// in\n    tag_20:\n      tag_22\n      jump\t// in\n    tag_19:\n      mload(0x40)\n      tag_17\n      swap2\n      swap1\n      tag_24\n      jump\t// in\n        /* \"contracts/Market.sol\":2446:2851  function withdraw(address _addr) public override nonReentrant returns(bool) {... */\n    tag_5:\n      tag_25\n      tag_26\n      calldatasize\n      0x04\n      tag_21\n      jump\t// in\n    tag_26:\n      tag_27\n      jump\t// in\n    tag_25:\n      mload(0x40)\n        /* \"#utility.yul\":6212:6226   */\n      swap1\n      iszero\n        /* \"#utility.yul\":6205:6227   */\n      iszero\n        /* \"#utility.yul\":6187:6228   */\n      dup2\n      mstore\n        /* \"#utility.yul\":6175:6177   */\n      0x20\n        /* \"#utility.yul\":6160:6178   */\n      add\n        /* \"contracts/Market.sol\":2446:2851  function withdraw(address _addr) public override nonReentrant returns(bool) {... */\n      tag_17\n        /* \"#utility.yul\":6142:6234   */\n      jump\n        /* \"contracts/Market.sol\":3721:4041  function settleBet(bytes32 _bet) external override {... */\n    tag_6:\n      tag_30\n      tag_31\n      calldatasize\n      0x04\n      tag_32\n      jump\t// in\n    tag_31:\n      tag_33\n      jump\t// in\n    tag_30:\n      stop\n        /* \"contracts/Market.sol\":4543:4923  function cancelMarket() external override onlyFactory returns(bool) ... */\n    tag_7:\n      tag_25\n      tag_35\n      jump\t// in\n        /* \"contracts/Market.sol\":5137:9341  function addBet(... */\n    tag_8:\n      tag_15\n      tag_38\n      calldatasize\n      0x04\n      tag_39\n      jump\t// in\n    tag_38:\n      tag_40\n      jump\t// in\n        /* \"contracts/Market.sol\":2859:3422  function withdrawPending(bytes32 _bet) external override {... */\n    tag_9:\n      tag_30\n      tag_44\n      calldatasize\n      0x04\n      tag_32\n      jump\t// in\n    tag_44:\n      tag_45\n      jump\t// in\n        /* \"contracts/Market.sol\":4047:4537  function settle(uint256 _winningSide)... */\n    tag_10:\n      tag_25\n      tag_47\n      calldatasize\n      0x04\n      tag_32\n      jump\t// in\n    tag_47:\n      tag_49\n      jump\t// in\n        /* \"contracts/Market.sol\":4929:5131  function start() external override onlyFactory returns(bool){... */\n    tag_11:\n      tag_25\n      tag_52\n      jump\t// in\n        /* \"contracts/Market.sol\":3428:3715  function cashOut(bytes32 _bet) external {... */\n    tag_12:\n      tag_30\n      tag_55\n      calldatasize\n      0x04\n      tag_32\n      jump\t// in\n    tag_55:\n      tag_56\n      jump\t// in\n        /* \"contracts/Market.sol\":1975:2084  function getBalance(address _user) external view override returns(uint256) {... */\n    tag_13:\n      tag_15\n      tag_58\n      calldatasize\n      0x04\n      tag_21\n      jump\t// in\n    tag_58:\n      sub(shl(0xa0, 0x01), 0x01)\n        /* \"contracts/Market.sol\":2067:2077  bal[_user] */\n      and\n        /* \"contracts/Market.sol\":2041:2048  uint256 */\n      0x00\n        /* \"contracts/Market.sol\":2067:2077  bal[_user] */\n      swap1\n      dup2\n      mstore\n        /* \"contracts/Market.sol\":2067:2070  bal */\n      0x07\n        /* \"contracts/Market.sol\":2067:2077  bal[_user] */\n      0x20\n      mstore\n      0x40\n      swap1\n      keccak256\n      sload\n      swap1\n        /* \"contracts/Market.sol\":1975:2084  function getBalance(address _user) external view override returns(uint256) {... */\n      jump\n        /* \"contracts/Market.sol\":2090:2440  function getUserBets(address _user) external view override returns(MarketBet[] memory) {... */\n    tag_22:\n      sub(shl(0xa0, 0x01), 0x01)\n        /* \"contracts/Market.sol\":2250:2265  userBets[_user] */\n      dup2\n      and\n        /* \"contracts/Market.sol\":2225:2247  bytes32[] memory _bets */\n      0x00\n        /* \"contracts/Market.sol\":2250:2265  userBets[_user] */\n      swap1\n      dup2\n      mstore\n        /* \"contracts/Market.sol\":2250:2258  userBets */\n      0x09\n        /* \"contracts/Market.sol\":2250:2265  userBets[_user] */\n      0x20\n      swap1\n      dup2\n      mstore\n      0x40\n      dup1\n      dup4\n      keccak256\n        /* \"contracts/Market.sol\":2225:2265  bytes32[] memory _bets = userBets[_user] */\n      dup1\n      sload\n      dup3\n      mload\n      dup2\n      dup6\n      mul\n      dup2\n      add\n      dup6\n      add\n      swap1\n      swap4\n      mstore\n      dup1\n      dup4\n      mstore\n        /* \"contracts/Market.sol\":2157:2175  MarketBet[] memory */\n      0x60\n      swap5\n      dup6\n      swap5\n        /* \"contracts/Market.sol\":2225:2247  bytes32[] memory _bets */\n      swap1\n      swap4\n        /* \"contracts/Market.sol\":2225:2265  bytes32[] memory _bets = userBets[_user] */\n      swap3\n        /* \"contracts/Market.sol\":2250:2265  userBets[_user] */\n      swap2\n        /* \"contracts/Market.sol\":2225:2265  bytes32[] memory _bets = userBets[_user] */\n      swap1\n      dup4\n      add\n        /* \"contracts/Market.sol\":2250:2265  userBets[_user] */\n      dup3\n        /* \"contracts/Market.sol\":2225:2265  bytes32[] memory _bets = userBets[_user] */\n      dup3\n      dup1\n      iszero\n      tag_62\n      jumpi\n      0x20\n      mul\n      dup3\n      add\n      swap2\n      swap1\n      0x00\n      mstore\n      keccak256(0x00, 0x20)\n      swap1\n    tag_63:\n      dup2\n      sload\n      dup2\n      mstore\n      0x20\n      add\n      swap1\n      0x01\n      add\n      swap1\n      dup1\n      dup4\n      gt\n      tag_63\n      jumpi\n    tag_62:\n      pop\n      pop\n        /* \"contracts/Market.sol\":2293:2297  bets */\n      0x05\n        /* \"contracts/Market.sol\":2293:2304  bets.length */\n      sload\n        /* \"contracts/Market.sol\":2225:2265  bytes32[] memory _bets = userBets[_user] */\n      swap4\n      swap5\n      pop\n        /* \"contracts/Market.sol\":2275:2290  uint betsLength */\n      0x00\n      swap3\n      pop\n      pop\n      pop\n        /* \"contracts/Market.sol\":2314:2408  for(uint i = 0; i < betsLength; i++){... */\n    tag_64:\n        /* \"contracts/Market.sol\":2334:2344  betsLength */\n      dup2\n        /* \"contracts/Market.sol\":2330:2331  i */\n      dup2\n        /* \"contracts/Market.sol\":2330:2344  i < betsLength */\n      lt\n        /* \"contracts/Market.sol\":2314:2408  for(uint i = 0; i < betsLength; i++){... */\n      iszero\n      tag_65\n      jumpi\n        /* \"contracts/Market.sol\":2379:2387  betsInfo */\n      0x08\n        /* \"contracts/Market.sol\":2379:2397  betsInfo[_bets[i]] */\n      0x00\n        /* \"contracts/Market.sol\":2388:2393  _bets */\n      dup5\n        /* \"contracts/Market.sol\":2394:2395  i */\n      dup4\n        /* \"contracts/Market.sol\":2388:2396  _bets[i] */\n      dup2\n      mload\n      dup2\n      lt\n      tag_67\n      jumpi\n      mstore(0x00, shl(0xe0, 0x4e487b71))\n      mstore(0x04, 0x32)\n      revert(0x00, 0x24)\n    tag_67:\n      0x20\n      swap1\n      dup2\n      mul\n      swap2\n      swap1\n      swap2\n      add\n      dup2\n      add\n      mload\n        /* \"contracts/Market.sol\":2379:2397  betsInfo[_bets[i]] */\n      dup3\n      mstore\n      dup2\n      dup2\n      add\n      swap3\n      swap1\n      swap3\n      mstore\n      0x40\n      swap1\n      dup2\n      add\n      0x00\n      keccak256\n        /* \"contracts/Market.sol\":2364:2397  _userBets[i] = betsInfo[_bets[i]] */\n      dup2\n      mload\n      0xc0\n      dup2\n      add\n      dup4\n      mstore\n      dup2\n      sload\n      sub(shl(0xa0, 0x01), 0x01)\n      swap1\n      dup2\n      and\n      dup3\n      mstore\n      0x01\n      dup4\n      add\n      sload\n      and\n      swap4\n      dup2\n      add\n      swap4\n      swap1\n      swap4\n      mstore\n      0x02\n      dup2\n      add\n      sload\n      swap2\n      dup4\n      add\n      swap2\n      swap1\n      swap2\n      mstore\n      0x03\n      dup2\n      add\n      sload\n      0x60\n      dup4\n      add\n      mstore\n      0x04\n      dup2\n      add\n      sload\n      0x80\n      dup4\n      add\n      mstore\n      0x05\n      add\n      sload\n      0xa0\n      dup3\n      add\n      mstore\n        /* \"contracts/Market.sol\":2364:2376  _userBets[i] */\n      dup5\n      mload\n        /* \"contracts/Market.sol\":2364:2373  _userBets */\n      dup6\n      swap1\n        /* \"contracts/Market.sol\":2374:2375  i */\n      dup4\n      swap1\n        /* \"contracts/Market.sol\":2364:2376  _userBets[i] */\n      dup2\n      lt\n      tag_68\n      jumpi\n      mstore(0x00, shl(0xe0, 0x4e487b71))\n      mstore(0x04, 0x32)\n      revert(0x00, 0x24)\n    tag_68:\n      0x20\n      mul\n      0x20\n      add\n      add\n        /* \"contracts/Market.sol\":2364:2397  _userBets[i] = betsInfo[_bets[i]] */\n      dup2\n      swap1\n      mstore\n      pop\n        /* \"contracts/Market.sol\":2346:2349  i++ */\n      dup1\n      dup1\n      tag_69\n      swap1\n      tag_70\n      jump\t// in\n    tag_69:\n      swap2\n      pop\n      pop\n        /* \"contracts/Market.sol\":2314:2408  for(uint i = 0; i < betsLength; i++){... */\n      jump(tag_64)\n    tag_65:\n      pop\n        /* \"contracts/Market.sol\":2424:2433  _userBets */\n      swap2\n      swap5\n        /* \"contracts/Market.sol\":2090:2440  function getUserBets(address _user) external view override returns(MarketBet[] memory) {... */\n      swap4\n      pop\n      pop\n      pop\n      pop\n      jump\t// out\n        /* \"contracts/Market.sol\":2446:2851  function withdraw(address _addr) public override nonReentrant returns(bool) {... */\n    tag_27:\n        /* \"contracts/Market.sol\":2516:2520  bool */\n      0x00\n        /* \"@openzeppelin/contracts/security/ReentrancyGuard.sol\":1744:1745  2 */\n      0x02\n        /* \"@openzeppelin/contracts/security/ReentrancyGuard.sol\":2325:2332  _status */\n      sload(0x00)\n        /* \"@openzeppelin/contracts/security/ReentrancyGuard.sol\":2325:2344  _status != _ENTERED */\n      eq\n      iszero\n        /* \"@openzeppelin/contracts/security/ReentrancyGuard.sol\":2317:2380  require(_status != _ENTERED, \"ReentrancyGuard: reentrant call\") */\n      tag_72\n      jumpi\n      mload(0x40)\n      shl(0xe5, 0x461bcd)\n      dup2\n      mstore\n        /* \"#utility.yul\":9330:9332   */\n      0x20\n        /* \"@openzeppelin/contracts/security/ReentrancyGuard.sol\":2317:2380  require(_status != _ENTERED, \"ReentrancyGuard: reentrant call\") */\n      0x04\n      dup3\n      add\n        /* \"#utility.yul\":9312:9333   */\n      mstore\n        /* \"#utility.yul\":9369:9371   */\n      0x1f\n        /* \"#utility.yul\":9349:9367   */\n      0x24\n      dup3\n      add\n        /* \"#utility.yul\":9342:9372   */\n      mstore\n        /* \"#utility.yul\":9408:9441   */\n      0x5265656e7472616e637947756172643a207265656e7472616e742063616c6c00\n        /* \"#utility.yul\":9388:9406   */\n      0x44\n      dup3\n      add\n        /* \"#utility.yul\":9381:9442   */\n      mstore\n        /* \"#utility.yul\":9459:9477   */\n      0x64\n      add\n        /* \"@openzeppelin/contracts/security/ReentrancyGuard.sol\":2317:2380  require(_status != _ENTERED, \"ReentrancyGuard: reentrant call\") */\n    tag_73:\n      mload(0x40)\n      dup1\n      swap2\n      sub\n      swap1\n      revert\n    tag_72:\n        /* \"@openzeppelin/contracts/security/ReentrancyGuard.sol\":1744:1745  2 */\n      0x02\n        /* \"@openzeppelin/contracts/security/ReentrancyGuard.sol\":2455:2462  _status */\n      0x00\n        /* \"@openzeppelin/contracts/security/ReentrancyGuard.sol\":2455:2473  _status = _ENTERED */\n      swap1\n      dup2\n      sstore\n      sub(shl(0xa0, 0x01), 0x01)\n        /* \"contracts/Market.sol\":2554:2564  bal[_addr] */\n      dup4\n      dup2\n      and\n      dup3\n      mstore\n        /* \"contracts/Market.sol\":2554:2557  bal */\n      0x07\n        /* \"contracts/Market.sol\":2554:2564  bal[_addr] */\n      0x20\n      mstore\n      0x40\n      swap2\n      dup3\n      swap1\n      keccak256\n      sload\n        /* \"contracts/Market.sol\":2582:2612  token.balanceOf(address(this)) */\n      swap2\n      mload\n      shl(0xe0, 0x70a08231)\n      dup2\n      mstore\n        /* \"contracts/Market.sol\":2606:2610  this */\n      address\n        /* \"contracts/Market.sol\":2582:2612  token.balanceOf(address(this)) */\n      0x04\n      dup3\n      add\n        /* \"#utility.yul\":3266:3317   */\n      mstore\n        /* \"contracts/Market.sol\":2554:2564  bal[_addr] */\n      dup3\n      swap2\n        /* \"contracts/Market.sol\":2582:2587  token */\n      immutable(\"0xb35cf579f54ccafa8cda334bf8f538b0f7a8230c902d5a84be1ea7996ef7fb49\")\n        /* \"contracts/Market.sol\":2582:2597  token.balanceOf */\n      and\n      swap1\n      0x70a08231\n      swap1\n        /* \"#utility.yul\":3239:3257   */\n      0x24\n      add\n        /* \"contracts/Market.sol\":2582:2612  token.balanceOf(address(this)) */\n      0x20\n      mload(0x40)\n      dup1\n      dup4\n      sub\n      dup2\n      dup7\n      dup1\n      extcodesize\n      iszero\n      dup1\n      iszero\n      tag_78\n      jumpi\n      0x00\n      dup1\n      revert\n    tag_78:\n      pop\n      gas\n      staticcall\n      iszero\n      dup1\n      iszero\n      tag_80\n      jumpi\n      returndatasize\n      0x00\n      dup1\n      returndatacopy\n      revert(0x00, returndatasize)\n    tag_80:\n      pop\n      pop\n      pop\n      pop\n      mload(0x40)\n      returndatasize\n      not(0x1f)\n      0x1f\n      dup3\n      add\n      and\n      dup3\n      add\n      dup1\n      0x40\n      mstore\n      pop\n      dup2\n      add\n      swap1\n      tag_81\n      swap2\n      swap1\n      tag_82\n      jump\t// in\n    tag_81:\n        /* \"contracts/Market.sol\":2582:2627  token.balanceOf(address(this)) >= availAmount */\n      lt\n      iszero\n        /* \"contracts/Market.sol\":2582:2646  token.balanceOf(address(this)) >= availAmount && availAmount > 0 */\n      dup1\n      iszero\n      tag_83\n      jumpi\n      pop\n        /* \"contracts/Market.sol\":2645:2646  0 */\n      0x00\n        /* \"contracts/Market.sol\":2631:2642  availAmount */\n      dup2\n        /* \"contracts/Market.sol\":2631:2646  availAmount > 0 */\n      gt\n        /* \"contracts/Market.sol\":2582:2646  token.balanceOf(address(this)) >= availAmount && availAmount > 0 */\n    tag_83:\n        /* \"contracts/Market.sol\":2574:2653  require(token.balanceOf(address(this)) >= availAmount && availAmount > 0, \"M2\") */\n      tag_84\n      jumpi\n      mload(0x40)\n      shl(0xe5, 0x461bcd)\n      dup2\n      mstore\n        /* \"#utility.yul\":9000:9002   */\n      0x20\n        /* \"contracts/Market.sol\":2574:2653  require(token.balanceOf(address(this)) >= availAmount && availAmount > 0, \"M2\") */\n      0x04\n      dup3\n      add\n        /* \"#utility.yul\":8982:9003   */\n      mstore\n        /* \"#utility.yul\":9039:9040   */\n      0x02\n        /* \"#utility.yul\":9019:9037   */\n      0x24\n      dup3\n      add\n        /* \"#utility.yul\":9012:9041   */\n      mstore\n      shl(0xf1, 0x2699)\n        /* \"#utility.yul\":9057:9075   */\n      0x44\n      dup3\n      add\n        /* \"#utility.yul\":9050:9082   */\n      mstore\n        /* \"#utility.yul\":9099:9117   */\n      0x64\n      add\n        /* \"contracts/Market.sol\":2574:2653  require(token.balanceOf(address(this)) >= availAmount && availAmount > 0, \"M2\") */\n      tag_73\n        /* \"#utility.yul\":8972:9123   */\n      jump\n        /* \"contracts/Market.sol\":2574:2653  require(token.balanceOf(address(this)) >= availAmount && availAmount > 0, \"M2\") */\n    tag_84:\n      sub(shl(0xa0, 0x01), 0x01)\n        /* \"contracts/Market.sol\":2663:2673  bal[_addr] */\n      dup4\n      and\n      0x00\n      swap1\n      dup2\n      mstore\n        /* \"contracts/Market.sol\":2663:2666  bal */\n      0x07\n        /* \"contracts/Market.sol\":2663:2673  bal[_addr] */\n      0x20\n      mstore\n      0x40\n      dup2\n      keccak256\n        /* \"contracts/Market.sol\":2663:2688  bal[_addr] -= availAmount */\n      dup1\n      sload\n        /* \"contracts/Market.sol\":2677:2688  availAmount */\n      dup4\n      swap3\n        /* \"contracts/Market.sol\":2663:2673  bal[_addr] */\n      swap1\n        /* \"contracts/Market.sol\":2663:2688  bal[_addr] -= availAmount */\n      tag_87\n      swap1\n        /* \"contracts/Market.sol\":2677:2688  availAmount */\n      dup5\n      swap1\n        /* \"contracts/Market.sol\":2663:2688  bal[_addr] -= availAmount */\n      tag_88\n      jump\t// in\n    tag_87:\n      swap1\n      swap2\n      sstore\n      pop\n      pop\n        /* \"contracts/Market.sol\":2713:2747  token.transfer(_addr, availAmount) */\n      mload(0x40)\n      shl(0xe0, 0xa9059cbb)\n      dup2\n      mstore\n      sub(shl(0xa0, 0x01), 0x01)\n        /* \"#utility.yul\":4805:4837   */\n      dup5\n      dup2\n      and\n        /* \"contracts/Market.sol\":2713:2747  token.transfer(_addr, availAmount) */\n      0x04\n      dup4\n      add\n        /* \"#utility.yul\":4787:4838   */\n      mstore\n        /* \"#utility.yul\":4854:4872   */\n      0x24\n      dup3\n      add\n        /* \"#utility.yul\":4847:4881   */\n      dup4\n      swap1\n      mstore\n        /* \"contracts/Market.sol\":2698:2710  bool success */\n      0x00\n      swap2\n        /* \"contracts/Market.sol\":2713:2718  token */\n      immutable(\"0xb35cf579f54ccafa8cda334bf8f538b0f7a8230c902d5a84be1ea7996ef7fb49\")\n        /* \"contracts/Market.sol\":2713:2727  token.transfer */\n      swap1\n      swap2\n      and\n      swap1\n      0xa9059cbb\n      swap1\n        /* \"#utility.yul\":4760:4778   */\n      0x44\n      add\n        /* \"contracts/Market.sol\":2713:2747  token.transfer(_addr, availAmount) */\n      0x20\n      mload(0x40)\n      dup1\n      dup4\n      sub\n      dup2\n      0x00\n      dup8\n      dup1\n      extcodesize\n      iszero\n      dup1\n      iszero\n      tag_91\n      jumpi\n      0x00\n      dup1\n      revert\n    tag_91:\n      pop\n      gas\n      call\n      iszero\n      dup1\n      iszero\n      tag_93\n      jumpi\n      returndatasize\n      0x00\n      dup1\n      returndatacopy\n      revert(0x00, returndatasize)\n    tag_93:\n      pop\n      pop\n      pop\n      pop\n      mload(0x40)\n      returndatasize\n      not(0x1f)\n      0x1f\n      dup3\n      add\n      and\n      dup3\n      add\n      dup1\n      0x40\n      mstore\n      pop\n      dup2\n      add\n      swap1\n      tag_94\n      swap2\n      swap1\n      tag_95\n      jump\t// in\n    tag_94:\n        /* \"contracts/Market.sol\":2698:2747  bool success = token.transfer(_addr, availAmount) */\n      swap1\n      pop\n        /* \"contracts/Market.sol\":2765:2772  success */\n      dup1\n        /* \"contracts/Market.sol\":2757:2779  require(success, \"M3\") */\n      tag_96\n      jumpi\n      mload(0x40)\n      shl(0xe5, 0x461bcd)\n      dup2\n      mstore\n        /* \"#utility.yul\":7349:7351   */\n      0x20\n        /* \"contracts/Market.sol\":2757:2779  require(success, \"M3\") */\n      0x04\n      dup3\n      add\n        /* \"#utility.yul\":7331:7352   */\n      mstore\n        /* \"#utility.yul\":7388:7389   */\n      0x02\n        /* \"#utility.yul\":7368:7386   */\n      0x24\n      dup3\n      add\n        /* \"#utility.yul\":7361:7390   */\n      mstore\n      shl(0xf0, 0x4d33)\n        /* \"#utility.yul\":7406:7424   */\n      0x44\n      dup3\n      add\n        /* \"#utility.yul\":7399:7431   */\n      mstore\n        /* \"#utility.yul\":7448:7466   */\n      0x64\n      add\n        /* \"contracts/Market.sol\":2757:2779  require(success, \"M3\") */\n      tag_73\n        /* \"#utility.yul\":7321:7472   */\n      jump\n        /* \"contracts/Market.sol\":2757:2779  require(success, \"M3\") */\n    tag_96:\n        /* \"contracts/Market.sol\":2795:2823  Withdraw(_addr, availAmount) */\n      0x40\n      dup1\n      mload\n      sub(shl(0xa0, 0x01), 0x01)\n        /* \"#utility.yul\":4805:4837   */\n      dup7\n      and\n        /* \"#utility.yul\":4787:4838   */\n      dup2\n      mstore\n        /* \"#utility.yul\":4869:4871   */\n      0x20\n        /* \"#utility.yul\":4854:4872   */\n      dup2\n      add\n        /* \"#utility.yul\":4847:4881   */\n      dup5\n      swap1\n      mstore\n        /* \"contracts/Market.sol\":2795:2823  Withdraw(_addr, availAmount) */\n      0x884edad9ce6fa2440d8a54cc123490eb96d2768479d49ff9c7366125a9424364\n      swap2\n        /* \"#utility.yul\":4760:4778   */\n      add\n        /* \"contracts/Market.sol\":2795:2823  Withdraw(_addr, availAmount) */\n      mload(0x40)\n      dup1\n      swap2\n      sub\n      swap1\n      log1\n        /* \"contracts/Market.sol\":2840:2844  true */\n      0x01\n        /* \"contracts/Market.sol\":2833:2844  return true */\n      swap3\n      pop\n      pop\n      pop\n        /* \"@openzeppelin/contracts/security/ReentrancyGuard.sol\":2484:2485  _ */\n    tag_75:\n        /* \"@openzeppelin/contracts/security/ReentrancyGuard.sol\":1701:1702  1 */\n      0x01\n        /* \"@openzeppelin/contracts/security/ReentrancyGuard.sol\":2628:2635  _status */\n      0x00\n        /* \"@openzeppelin/contracts/security/ReentrancyGuard.sol\":2628:2650  _status = _NOT_ENTERED */\n      sstore\n        /* \"contracts/Market.sol\":2446:2851  function withdraw(address _addr) public override nonReentrant returns(bool) {... */\n      swap2\n      swap1\n      pop\n      jump\t// out\n        /* \"contracts/Market.sol\":3721:4041  function settleBet(bytes32 _bet) external override {... */\n    tag_33:\n        /* \"contracts/Market.sol\":3782:3805  bytes32[] memory _pairs */\n      0x00\n        /* \"contracts/Market.sol\":3808:3822  betPairs[_bet] */\n      dup2\n      dup2\n      mstore\n        /* \"contracts/Market.sol\":3808:3816  betPairs */\n      0x0b\n        /* \"contracts/Market.sol\":3808:3822  betPairs[_bet] */\n      0x20\n      swap1\n      dup2\n      mstore\n      0x40\n      dup1\n      dup4\n      keccak256\n        /* \"contracts/Market.sol\":3782:3822  bytes32[] memory _pairs = betPairs[_bet] */\n      dup1\n      sload\n      dup3\n      mload\n      dup2\n      dup6\n      mul\n      dup2\n      add\n      dup6\n      add\n      swap1\n      swap4\n      mstore\n      dup1\n      dup4\n      mstore\n      swap2\n      swap3\n        /* \"contracts/Market.sol\":3808:3822  betPairs[_bet] */\n      swap1\n      swap2\n        /* \"contracts/Market.sol\":3782:3822  bytes32[] memory _pairs = betPairs[_bet] */\n      swap1\n      dup4\n      add\n        /* \"contracts/Market.sol\":3808:3822  betPairs[_bet] */\n      dup3\n        /* \"contracts/Market.sol\":3782:3822  bytes32[] memory _pairs = betPairs[_bet] */\n      dup3\n      dup1\n      iszero\n      tag_101\n      jumpi\n      0x20\n      mul\n      dup3\n      add\n      swap2\n      swap1\n      0x00\n      mstore\n      keccak256(0x00, 0x20)\n      swap1\n    tag_102:\n      dup2\n      sload\n      dup2\n      mstore\n      0x20\n      add\n      swap1\n      0x01\n      add\n      swap1\n      dup1\n      dup4\n      gt\n      tag_102\n      jumpi\n    tag_101:\n      pop\n      pop\n        /* \"contracts/Market.sol\":3851:3864  _pairs.length */\n      dup4\n      mload\n        /* \"contracts/Market.sol\":3782:3822  bytes32[] memory _pairs = betPairs[_bet] */\n      swap4\n      swap5\n      pop\n        /* \"contracts/Market.sol\":3832:3848  uint pairsLength */\n      0x00\n      swap3\n      pop\n      pop\n      pop\n        /* \"contracts/Market.sol\":3874:3958  for(uint i = 0; i < pairsLength; i++){... */\n    tag_103:\n        /* \"contracts/Market.sol\":3894:3905  pairsLength */\n      dup2\n        /* \"contracts/Market.sol\":3890:3891  i */\n      dup2\n        /* \"contracts/Market.sol\":3890:3905  i < pairsLength */\n      lt\n        /* \"contracts/Market.sol\":3874:3958  for(uint i = 0; i < pairsLength; i++){... */\n      iszero\n      tag_104\n      jumpi\n        /* \"contracts/Market.sol\":3925:3947  _settlePair(_pairs[i]) */\n      tag_106\n        /* \"contracts/Market.sol\":3937:3943  _pairs */\n      dup4\n        /* \"contracts/Market.sol\":3944:3945  i */\n      dup3\n        /* \"contracts/Market.sol\":3937:3946  _pairs[i] */\n      dup2\n      mload\n      dup2\n      lt\n      tag_107\n      jumpi\n      mstore(0x00, shl(0xe0, 0x4e487b71))\n      mstore(0x04, 0x32)\n      revert(0x00, 0x24)\n    tag_107:\n      0x20\n      mul\n      0x20\n      add\n      add\n      mload\n        /* \"contracts/Market.sol\":3925:3936  _settlePair */\n      tag_108\n        /* \"contracts/Market.sol\":3925:3947  _settlePair(_pairs[i]) */\n      jump\t// in\n    tag_106:\n      pop\n        /* \"contracts/Market.sol\":3907:3910  i++ */\n      dup1\n      tag_109\n      dup2\n      tag_70\n      jump\t// in\n    tag_109:\n      swap2\n      pop\n      pop\n        /* \"contracts/Market.sol\":3874:3958  for(uint i = 0; i < pairsLength; i++){... */\n      jump(tag_103)\n    tag_104:\n      pop\n        /* \"contracts/Market.sol\":3974:3984  msg.sender */\n      caller\n        /* \"contracts/Market.sol\":3988:3989  0 */\n      0x00\n        /* \"contracts/Market.sol\":3970:3985  bal[msg.sender] */\n      swap1\n      dup2\n      mstore\n        /* \"contracts/Market.sol\":3970:3973  bal */\n      0x07\n        /* \"contracts/Market.sol\":3970:3985  bal[msg.sender] */\n      0x20\n      mstore\n      0x40\n      swap1\n      keccak256\n      sload\n        /* \"contracts/Market.sol\":3970:3989  bal[msg.sender] > 0 */\n      iszero\n        /* \"contracts/Market.sol\":3967:4035  if(bal[msg.sender] > 0){... */\n      tag_110\n      jumpi\n        /* \"contracts/Market.sol\":4004:4024  withdraw(msg.sender) */\n      tag_111\n        /* \"contracts/Market.sol\":4013:4023  msg.sender */\n      caller\n        /* \"contracts/Market.sol\":4004:4012  withdraw */\n      tag_27\n        /* \"contracts/Market.sol\":4004:4024  withdraw(msg.sender) */\n      jump\t// in\n    tag_111:\n      pop\n        /* \"contracts/Market.sol\":3967:4035  if(bal[msg.sender] > 0){... */\n    tag_110:\n        /* \"contracts/Market.sol\":3721:4041  function settleBet(bytes32 _bet) external override {... */\n      pop\n      pop\n      pop\n      jump\t// out\n        /* \"contracts/Market.sol\":4543:4923  function cancelMarket() external override onlyFactory returns(bool) ... */\n    tag_35:\n        /* \"contracts/Market.sol\":1275:1280  owner */\n      sload(0x01)\n        /* \"contracts/Market.sol\":4605:4609  bool */\n      0x00\n      swap1\n      sub(shl(0xa0, 0x01), 0x01)\n        /* \"contracts/Market.sol\":1275:1280  owner */\n      and\n        /* \"contracts/Market.sol\":1261:1271  msg.sender */\n      caller\n        /* \"contracts/Market.sol\":1261:1280  msg.sender == owner */\n      eq\n      dup1\n        /* \"contracts/Market.sol\":1261:1343  msg.sender == owner ... */\n      tag_113\n      jumpi\n      pop\n        /* \"contracts/Market.sol\":1324:1327  app */\n      immutable(\"0x911a39fbf665a24ad3b6efc185d4b936bbda1900793ae2f7c00f4d18bdd96685\")\n      sub(shl(0xa0, 0x01), 0x01)\n        /* \"contracts/Market.sol\":1324:1341  app.contractOwner */\n      and\n      0xce606ee0\n        /* \"contracts/Market.sol\":1324:1343  app.contractOwner() */\n      mload(0x40)\n      dup2\n      0xffffffff\n      and\n      0xe0\n      shl\n      dup2\n      mstore\n      0x04\n      add\n      0x20\n      mload(0x40)\n      dup1\n      dup4\n      sub\n      dup2\n      dup7\n      dup1\n      extcodesize\n      iszero\n      dup1\n      iszero\n      tag_114\n      jumpi\n      0x00\n      dup1\n      revert\n    tag_114:\n      pop\n      gas\n      staticcall\n      iszero\n      dup1\n      iszero\n      tag_116\n      jumpi\n      returndatasize\n      0x00\n      dup1\n      returndatacopy\n      revert(0x00, returndatasize)\n    tag_116:\n      pop\n      pop\n      pop\n      pop\n      mload(0x40)\n      returndatasize\n      not(0x1f)\n      0x1f\n      dup3\n      add\n      and\n      dup3\n      add\n      dup1\n      0x40\n      mstore\n      pop\n      dup2\n      add\n      swap1\n      tag_117\n      swap2\n      swap1\n      tag_118\n      jump\t// in\n    tag_117:\n      sub(shl(0xa0, 0x01), 0x01)\n        /* \"contracts/Market.sol\":1310:1343  msg.sender == app.contractOwner() */\n      and\n        /* \"contracts/Market.sol\":1310:1320  msg.sender */\n      caller\n      sub(shl(0xa0, 0x01), 0x01)\n        /* \"contracts/Market.sol\":1310:1343  msg.sender == app.contractOwner() */\n      and\n      eq\n        /* \"contracts/Market.sol\":1261:1343  msg.sender == owner ... */\n    tag_113:\n        /* \"contracts/Market.sol\":1261:1392  msg.sender == owner ... */\n      dup1\n      tag_119\n      jumpi\n      pop\n        /* \"contracts/Market.sol\":1385:1392  factory */\n      and(sub(shl(0xa0, 0x01), 0x01), sload(0x02))\n        /* \"contracts/Market.sol\":1371:1381  msg.sender */\n      caller\n        /* \"contracts/Market.sol\":1371:1392  msg.sender == factory */\n      eq\n        /* \"contracts/Market.sol\":1261:1392  msg.sender == owner ... */\n    tag_119:\n        /* \"contracts/Market.sol\":1240:1420  require(... */\n      tag_120\n      jumpi\n      mload(0x40)\n      shl(0xe5, 0x461bcd)\n      dup2\n      mstore\n      0x04\n      add\n      tag_73\n      swap1\n      tag_122\n      jump\t// in\n    tag_120:\n        /* \"contracts/Market.sol\":4630:4636  status */\n      sload(0x03)\n        /* \"contracts/Market.sol\":4630:4641  status == 0 */\n      iszero\n      dup1\n        /* \"contracts/Market.sol\":4630:4656  status == 0 || status == 4 */\n      tag_124\n      jumpi\n      pop\n        /* \"contracts/Market.sol\":4645:4651  status */\n      sload(0x03)\n        /* \"contracts/Market.sol\":4655:4656  4 */\n      0x04\n        /* \"contracts/Market.sol\":4645:4656  status == 4 */\n      eq\n        /* \"contracts/Market.sol\":4630:4656  status == 0 || status == 4 */\n    tag_124:\n        /* \"contracts/Market.sol\":4627:4917  if(status == 0 || status == 4){... */\n      iszero\n      tag_125\n      jumpi\n        /* \"contracts/Market.sol\":4690:4695  pairs */\n      0x04\n        /* \"contracts/Market.sol\":4690:4702  pairs.length */\n      sload\n        /* \"contracts/Market.sol\":4671:4687  uint pairsLength */\n      0x00\n        /* \"contracts/Market.sol\":4716:4807  for(uint i = 0; i < pairsLength; i++){... */\n    tag_126:\n        /* \"contracts/Market.sol\":4736:4747  pairsLength */\n      dup2\n        /* \"contracts/Market.sol\":4732:4733  i */\n      dup2\n        /* \"contracts/Market.sol\":4732:4747  i < pairsLength */\n      lt\n        /* \"contracts/Market.sol\":4716:4807  for(uint i = 0; i < pairsLength; i++){... */\n      iszero\n      tag_127\n      jumpi\n        /* \"contracts/Market.sol\":4771:4792  _cancelPair(pairs[i]) */\n      tag_129\n        /* \"contracts/Market.sol\":4783:4788  pairs */\n      0x04\n        /* \"contracts/Market.sol\":4789:4790  i */\n      dup3\n        /* \"contracts/Market.sol\":4783:4791  pairs[i] */\n      dup2\n      sload\n      dup2\n      lt\n      tag_130\n      jumpi\n      mstore(0x00, shl(0xe0, 0x4e487b71))\n      mstore(0x04, 0x32)\n      revert(0x00, 0x24)\n    tag_130:\n      swap1\n      0x00\n      mstore\n      keccak256(0x00, 0x20)\n      add\n      sload\n        /* \"contracts/Market.sol\":4771:4782  _cancelPair */\n      tag_132\n        /* \"contracts/Market.sol\":4771:4792  _cancelPair(pairs[i]) */\n      jump\t// in\n    tag_129:\n        /* \"contracts/Market.sol\":4749:4752  i++ */\n      dup1\n      tag_133\n      dup2\n      tag_70\n      jump\t// in\n    tag_133:\n      swap2\n      pop\n      pop\n        /* \"contracts/Market.sol\":4716:4807  for(uint i = 0; i < pairsLength; i++){... */\n      jump(tag_126)\n    tag_127:\n      pop\n      pop\n        /* \"contracts/Market.sol\":4829:4830  3 */\n      0x03\n        /* \"contracts/Market.sol\":4820:4830  status = 3 */\n      dup1\n      sstore\n      pop\n        /* \"contracts/Market.sol\":4851:4855  true */\n      0x01\n        /* \"contracts/Market.sol\":4543:4923  function cancelMarket() external override onlyFactory returns(bool) ... */\n      swap1\n      jump\t// out\n        /* \"contracts/Market.sol\":4627:4917  if(status == 0 || status == 4){... */\n    tag_125:\n      pop\n        /* \"contracts/Market.sol\":4901:4906  false */\n      0x00\n        /* \"contracts/Market.sol\":4543:4923  function cancelMarket() external override onlyFactory returns(bool) ... */\n      swap1\n      jump\t// out\n        /* \"contracts/Market.sol\":5137:9341  function addBet(... */\n    tag_40:\n        /* \"contracts/Market.sol\":5376:5399  app.isBlack(msg.sender) */\n      mload(0x40)\n      shl(0xe0, 0x332daccf)\n      dup2\n      mstore\n        /* \"contracts/Market.sol\":5388:5398  msg.sender */\n      caller\n        /* \"contracts/Market.sol\":5376:5399  app.isBlack(msg.sender) */\n      0x04\n      dup3\n      add\n        /* \"#utility.yul\":3266:3317   */\n      mstore\n        /* \"contracts/Market.sol\":5344:5351  bytes32 */\n      0x00\n      swap1\n        /* \"contracts/Market.sol\":5376:5379  app */\n      immutable(\"0x911a39fbf665a24ad3b6efc185d4b936bbda1900793ae2f7c00f4d18bdd96685\")\n      sub(shl(0xa0, 0x01), 0x01)\n        /* \"contracts/Market.sol\":5376:5387  app.isBlack */\n      and\n      swap1\n      0x332daccf\n      swap1\n        /* \"#utility.yul\":3239:3257   */\n      0x24\n      add\n        /* \"contracts/Market.sol\":5376:5399  app.isBlack(msg.sender) */\n      0x20\n      mload(0x40)\n      dup1\n      dup4\n      sub\n      dup2\n      dup7\n      dup1\n      extcodesize\n      iszero\n      dup1\n      iszero\n      tag_137\n      jumpi\n      0x00\n      dup1\n      revert\n    tag_137:\n      pop\n      gas\n      staticcall\n      iszero\n      dup1\n      iszero\n      tag_139\n      jumpi\n      returndatasize\n      0x00\n      dup1\n      returndatacopy\n      revert(0x00, returndatasize)\n    tag_139:\n      pop\n      pop\n      pop\n      pop\n      mload(0x40)\n      returndatasize\n      not(0x1f)\n      0x1f\n      dup3\n      add\n      and\n      dup3\n      add\n      dup1\n      0x40\n      mstore\n      pop\n      dup2\n      add\n      swap1\n      tag_140\n      swap2\n      swap1\n      tag_95\n      jump\t// in\n    tag_140:\n        /* \"contracts/Market.sol\":5375:5399  !app.isBlack(msg.sender) */\n      iszero\n        /* \"contracts/Market.sol\":5375:5414  !app.isBlack(msg.sender) && status == 0 */\n      dup1\n      iszero\n      tag_141\n      jumpi\n      pop\n        /* \"contracts/Market.sol\":5403:5409  status */\n      sload(0x03)\n        /* \"contracts/Market.sol\":5403:5414  status == 0 */\n      iszero\n        /* \"contracts/Market.sol\":5375:5414  !app.isBlack(msg.sender) && status == 0 */\n    tag_141:\n        /* \"contracts/Market.sol\":5367:5421  require(!app.isBlack(msg.sender) && status == 0, \"M8\") */\n      tag_142\n      jumpi\n      mload(0x40)\n      shl(0xe5, 0x461bcd)\n      dup2\n      mstore\n        /* \"#utility.yul\":7019:7021   */\n      0x20\n        /* \"contracts/Market.sol\":5367:5421  require(!app.isBlack(msg.sender) && status == 0, \"M8\") */\n      0x04\n      dup3\n      add\n        /* \"#utility.yul\":7001:7022   */\n      mstore\n        /* \"#utility.yul\":7058:7059   */\n      0x02\n        /* \"#utility.yul\":7038:7056   */\n      0x24\n      dup3\n      add\n        /* \"#utility.yul\":7031:7060   */\n      mstore\n      shl(0xf3, 0x09a7)\n        /* \"#utility.yul\":7076:7094   */\n      0x44\n      dup3\n      add\n        /* \"#utility.yul\":7069:7101   */\n      mstore\n        /* \"#utility.yul\":7118:7136   */\n      0x64\n      add\n        /* \"contracts/Market.sol\":5367:5421  require(!app.isBlack(msg.sender) && status == 0, \"M8\") */\n      tag_73\n        /* \"#utility.yul\":6991:7142   */\n      jump\n        /* \"contracts/Market.sol\":5367:5421  require(!app.isBlack(msg.sender) && status == 0, \"M8\") */\n    tag_142:\n        /* \"contracts/Market.sol\":5439:5444  _side */\n      dup3\n        /* \"contracts/Market.sol\":5448:5449  1 */\n      0x01\n        /* \"contracts/Market.sol\":5439:5449  _side == 1 */\n      eq\n        /* \"contracts/Market.sol\":5439:5463  _side == 1 || _side == 2 */\n      dup1\n      tag_145\n      jumpi\n      pop\n        /* \"contracts/Market.sol\":5453:5458  _side */\n      dup3\n        /* \"contracts/Market.sol\":5462:5463  2 */\n      0x02\n        /* \"contracts/Market.sol\":5453:5463  _side == 2 */\n      eq\n        /* \"contracts/Market.sol\":5439:5463  _side == 1 || _side == 2 */\n    tag_145:\n        /* \"contracts/Market.sol\":5431:5470  require(_side == 1 || _side == 2, \"M9\") */\n      tag_146\n      jumpi\n      mload(0x40)\n      shl(0xe5, 0x461bcd)\n      dup2\n      mstore\n        /* \"#utility.yul\":7679:7681   */\n      0x20\n        /* \"contracts/Market.sol\":5431:5470  require(_side == 1 || _side == 2, \"M9\") */\n      0x04\n      dup3\n      add\n        /* \"#utility.yul\":7661:7682   */\n      mstore\n        /* \"#utility.yul\":7718:7719   */\n      0x02\n        /* \"#utility.yul\":7698:7716   */\n      0x24\n      dup3\n      add\n        /* \"#utility.yul\":7691:7720   */\n      mstore\n      shl(0xf0, 0x4d39)\n        /* \"#utility.yul\":7736:7754   */\n      0x44\n      dup3\n      add\n        /* \"#utility.yul\":7729:7761   */\n      mstore\n        /* \"#utility.yul\":7778:7796   */\n      0x64\n      add\n        /* \"contracts/Market.sol\":5431:5470  require(_side == 1 || _side == 2, \"M9\") */\n      tag_73\n        /* \"#utility.yul\":7651:7802   */\n      jump\n        /* \"contracts/Market.sol\":5431:5470  require(_side == 1 || _side == 2, \"M9\") */\n    tag_146:\n        /* \"contracts/Market.sol\":5488:5530  token.allowance(msg.sender, address(this)) */\n      mload(0x40)\n      shl(0xe1, 0x6eb1769f)\n      dup2\n      mstore\n        /* \"contracts/Market.sol\":5504:5514  msg.sender */\n      caller\n        /* \"contracts/Market.sol\":5488:5530  token.allowance(msg.sender, address(this)) */\n      0x04\n      dup3\n      add\n        /* \"#utility.yul\":3540:3574   */\n      mstore\n        /* \"contracts/Market.sol\":5524:5528  this */\n      address\n        /* \"#utility.yul\":3590:3608   */\n      0x24\n      dup3\n      add\n        /* \"#utility.yul\":3583:3626   */\n      mstore\n        /* \"contracts/Market.sol\":5534:5540  _stake */\n      dup6\n      swap1\n        /* \"contracts/Market.sol\":5488:5493  token */\n      immutable(\"0xb35cf579f54ccafa8cda334bf8f538b0f7a8230c902d5a84be1ea7996ef7fb49\")\n      sub(shl(0xa0, 0x01), 0x01)\n        /* \"contracts/Market.sol\":5488:5503  token.allowance */\n      and\n      swap1\n      0xdd62ed3e\n      swap1\n        /* \"#utility.yul\":3475:3493   */\n      0x44\n      add\n        /* \"contracts/Market.sol\":5488:5530  token.allowance(msg.sender, address(this)) */\n      0x20\n      mload(0x40)\n      dup1\n      dup4\n      sub\n      dup2\n      dup7\n      dup1\n      extcodesize\n      iszero\n      dup1\n      iszero\n      tag_151\n      jumpi\n      0x00\n      dup1\n      revert\n    tag_151:\n      pop\n      gas\n      staticcall\n      iszero\n      dup1\n      iszero\n      tag_153\n      jumpi\n      returndatasize\n      0x00\n      dup1\n      returndatacopy\n      revert(0x00, returndatasize)\n    tag_153:\n      pop\n      pop\n      pop\n      pop\n      mload(0x40)\n      returndatasize\n      not(0x1f)\n      0x1f\n      dup3\n      add\n      and\n      dup3\n      add\n      dup1\n      0x40\n      mstore\n      pop\n      dup2\n      add\n      swap1\n      tag_154\n      swap2\n      swap1\n      tag_82\n      jump\t// in\n    tag_154:\n        /* \"contracts/Market.sol\":5488:5540  token.allowance(msg.sender, address(this)) >= _stake */\n      lt\n      iszero\n        /* \"contracts/Market.sol\":5488:5568  token.allowance(msg.sender, address(this)) >= _stake && _stake >= app.minStake() */\n      dup1\n      iszero\n      tag_155\n      jumpi\n      pop\n        /* \"contracts/Market.sol\":5554:5557  app */\n      immutable(\"0x911a39fbf665a24ad3b6efc185d4b936bbda1900793ae2f7c00f4d18bdd96685\")\n      sub(shl(0xa0, 0x01), 0x01)\n        /* \"contracts/Market.sol\":5554:5566  app.minStake */\n      and\n      0x375b3c0a\n        /* \"contracts/Market.sol\":5554:5568  app.minStake() */\n      mload(0x40)\n      dup2\n      0xffffffff\n      and\n      0xe0\n      shl\n      dup2\n      mstore\n      0x04\n      add\n      0x20\n      mload(0x40)\n      dup1\n      dup4\n      sub\n      dup2\n      dup7\n      dup1\n      extcodesize\n      iszero\n      dup1\n      iszero\n      tag_156\n      jumpi\n      0x00\n      dup1\n      revert\n    tag_156:\n      pop\n      gas\n      staticcall\n      iszero\n      dup1\n      iszero\n      tag_158\n      jumpi\n      returndatasize\n      0x00\n      dup1\n      returndatacopy\n      revert(0x00, returndatasize)\n    tag_158:\n      pop\n      pop\n      pop\n      pop\n      mload(0x40)\n      returndatasize\n      not(0x1f)\n      0x1f\n      dup3\n      add\n      and\n      dup3\n      add\n      dup1\n      0x40\n      mstore\n      pop\n      dup2\n      add\n      swap1\n      tag_159\n      swap2\n      swap1\n      tag_82\n      jump\t// in\n    tag_159:\n        /* \"contracts/Market.sol\":5544:5550  _stake */\n      dup6\n        /* \"contracts/Market.sol\":5544:5568  _stake >= app.minStake() */\n      lt\n      iszero\n        /* \"contracts/Market.sol\":5488:5568  token.allowance(msg.sender, address(this)) >= _stake && _stake >= app.minStake() */\n    tag_155:\n        /* \"contracts/Market.sol\":5480:5576  require(token.allowance(msg.sender, address(this)) >= _stake && _stake >= app.minStake(), \"M10\") */\n      tag_160\n      jumpi\n      mload(0x40)\n      shl(0xe5, 0x461bcd)\n      dup2\n      mstore\n        /* \"#utility.yul\":8009:8011   */\n      0x20\n        /* \"contracts/Market.sol\":5480:5576  require(token.allowance(msg.sender, address(this)) >= _stake && _stake >= app.minStake(), \"M10\") */\n      0x04\n      dup3\n      add\n        /* \"#utility.yul\":7991:8012   */\n      mstore\n        /* \"#utility.yul\":8048:8049   */\n      0x03\n        /* \"#utility.yul\":8028:8046   */\n      0x24\n      dup3\n      add\n        /* \"#utility.yul\":8021:8050   */\n      mstore\n      shl(0xec, 0x04d313)\n        /* \"#utility.yul\":8066:8084   */\n      0x44\n      dup3\n      add\n        /* \"#utility.yul\":8059:8092   */\n      mstore\n        /* \"#utility.yul\":8109:8127   */\n      0x64\n      add\n        /* \"contracts/Market.sol\":5480:5576  require(token.allowance(msg.sender, address(this)) >= _stake && _stake >= app.minStake(), \"M10\") */\n      tag_73\n        /* \"#utility.yul\":7981:8133   */\n      jump\n        /* \"contracts/Market.sol\":5480:5576  require(token.allowance(msg.sender, address(this)) >= _stake && _stake >= app.minStake(), \"M10\") */\n    tag_160:\n        /* \"contracts/Market.sol\":5594:5647  token.transferFrom(msg.sender, address(this), _stake) */\n      mload(0x40)\n      shl(0xe0, 0x23b872dd)\n      dup2\n      mstore\n        /* \"contracts/Market.sol\":5613:5623  msg.sender */\n      caller\n        /* \"contracts/Market.sol\":5594:5647  token.transferFrom(msg.sender, address(this), _stake) */\n      0x04\n      dup3\n      add\n        /* \"#utility.yul\":4473:4507   */\n      mstore\n        /* \"contracts/Market.sol\":5633:5637  this */\n      address\n        /* \"#utility.yul\":4523:4541   */\n      0x24\n      dup3\n      add\n        /* \"#utility.yul\":4516:4559   */\n      mstore\n        /* \"#utility.yul\":4575:4593   */\n      0x44\n      dup2\n      add\n        /* \"#utility.yul\":4568:4602   */\n      dup7\n      swap1\n      mstore\n        /* \"contracts/Market.sol\":5594:5599  token */\n      immutable(\"0xb35cf579f54ccafa8cda334bf8f538b0f7a8230c902d5a84be1ea7996ef7fb49\")\n      sub(shl(0xa0, 0x01), 0x01)\n        /* \"contracts/Market.sol\":5594:5612  token.transferFrom */\n      and\n      swap1\n      0x23b872dd\n      swap1\n        /* \"#utility.yul\":4408:4426   */\n      0x64\n      add\n        /* \"contracts/Market.sol\":5594:5647  token.transferFrom(msg.sender, address(this), _stake) */\n      0x20\n      mload(0x40)\n      dup1\n      dup4\n      sub\n      dup2\n      0x00\n      dup8\n      dup1\n      extcodesize\n      iszero\n      dup1\n      iszero\n      tag_165\n      jumpi\n      0x00\n      dup1\n      revert\n    tag_165:\n      pop\n      gas\n      call\n      iszero\n      dup1\n      iszero\n      tag_167\n      jumpi\n      returndatasize\n      0x00\n      dup1\n      returndatacopy\n      revert(0x00, returndatasize)\n    tag_167:\n      pop\n      pop\n      pop\n      pop\n      mload(0x40)\n      returndatasize\n      not(0x1f)\n      0x1f\n      dup3\n      add\n      and\n      dup3\n      add\n      dup1\n      0x40\n      mstore\n      pop\n      dup2\n      add\n      swap1\n      tag_168\n      swap2\n      swap1\n      tag_95\n      jump\t// in\n    tag_168:\n        /* \"contracts/Market.sol\":5586:5655  require(token.transferFrom(msg.sender, address(this), _stake), \"M11\") */\n      tag_169\n      jumpi\n      mload(0x40)\n      shl(0xe5, 0x461bcd)\n      dup2\n      mstore\n        /* \"#utility.yul\":9690:9692   */\n      0x20\n        /* \"contracts/Market.sol\":5586:5655  require(token.transferFrom(msg.sender, address(this), _stake), \"M11\") */\n      0x04\n      dup3\n      add\n        /* \"#utility.yul\":9672:9693   */\n      mstore\n        /* \"#utility.yul\":9729:9730   */\n      0x03\n        /* \"#utility.yul\":9709:9727   */\n      0x24\n      dup3\n      add\n        /* \"#utility.yul\":9702:9731   */\n      mstore\n      shl(0xe8, 0x4d3131)\n        /* \"#utility.yul\":9747:9765   */\n      0x44\n      dup3\n      add\n        /* \"#utility.yul\":9740:9773   */\n      mstore\n        /* \"#utility.yul\":9790:9808   */\n      0x64\n      add\n        /* \"contracts/Market.sol\":5586:5655  require(token.transferFrom(msg.sender, address(this), _stake), \"M11\") */\n      tag_73\n        /* \"#utility.yul\":9662:9814   */\n      jump\n        /* \"contracts/Market.sol\":5586:5655  require(token.transferFrom(msg.sender, address(this), _stake), \"M11\") */\n    tag_169:\n        /* \"contracts/Market.sol\":5665:5680  bytes32 betHash */\n      0x00\n        /* \"contracts/Market.sol\":5683:5763  _createBet(_better, _affiliate, _stake, 0, (_odds * 100) / (_odds - 100), _side) */\n      tag_172\n        /* \"contracts/Market.sol\":5694:5701  _better */\n      dup9\n        /* \"contracts/Market.sol\":5703:5713  _affiliate */\n      dup9\n        /* \"contracts/Market.sol\":5715:5721  _stake */\n      dup9\n        /* \"contracts/Market.sol\":5665:5680  bytes32 betHash */\n      dup5\n        /* \"contracts/Market.sol\":5743:5754  _odds - 100 */\n      tag_173\n        /* \"contracts/Market.sol\":5751:5754  100 */\n      0x64\n        /* \"contracts/Market.sol\":5743:5748  _odds */\n      dup12\n        /* \"contracts/Market.sol\":5743:5754  _odds - 100 */\n      tag_88\n      jump\t// in\n    tag_173:\n        /* \"contracts/Market.sol\":5727:5738  _odds * 100 */\n      tag_174\n        /* \"contracts/Market.sol\":5727:5732  _odds */\n      dup12\n        /* \"contracts/Market.sol\":5735:5738  100 */\n      0x64\n        /* \"contracts/Market.sol\":5727:5738  _odds * 100 */\n      tag_175\n      jump\t// in\n    tag_174:\n        /* \"contracts/Market.sol\":5726:5755  (_odds * 100) / (_odds - 100) */\n      tag_176\n      swap2\n      swap1\n      tag_177\n      jump\t// in\n    tag_176:\n        /* \"contracts/Market.sol\":5757:5762  _side */\n      dup10\n        /* \"contracts/Market.sol\":5683:5693  _createBet */\n      tag_178\n        /* \"contracts/Market.sol\":5683:5763  _createBet(_better, _affiliate, _stake, 0, (_odds * 100) / (_odds - 100), _side) */\n      jump\t// in\n    tag_172:\n        /* \"contracts/Market.sol\":5995:6006  pendingBets */\n      0x06\n        /* \"contracts/Market.sol\":5995:6013  pendingBets.length */\n      sload\n        /* \"contracts/Market.sol\":5665:5763  bytes32 betHash = _createBet(_better, _affiliate, _stake, 0, (_odds * 100) / (_odds - 100), _side) */\n      swap1\n      swap2\n      pop\n        /* \"contracts/Market.sol\":5995:6017  pendingBets.length > 0 */\n      iszero\n        /* \"contracts/Market.sol\":5992:9228  if(pendingBets.length > 0){... */\n      tag_179\n      jumpi\n        /* \"contracts/Market.sol\":6049:6055  _stake */\n      dup6\n        /* \"contracts/Market.sol\":6069:9154  while(_remStake >= app.minStake()){... */\n    tag_180:\n        /* \"contracts/Market.sol\":6088:6091  app */\n      immutable(\"0x911a39fbf665a24ad3b6efc185d4b936bbda1900793ae2f7c00f4d18bdd96685\")\n      sub(shl(0xa0, 0x01), 0x01)\n        /* \"contracts/Market.sol\":6088:6100  app.minStake */\n      and\n      0x375b3c0a\n        /* \"contracts/Market.sol\":6088:6102  app.minStake() */\n      mload(0x40)\n      dup2\n      0xffffffff\n      and\n      0xe0\n      shl\n      dup2\n      mstore\n      0x04\n      add\n      0x20\n      mload(0x40)\n      dup1\n      dup4\n      sub\n      dup2\n      dup7\n      dup1\n      extcodesize\n      iszero\n      dup1\n      iszero\n      tag_182\n      jumpi\n      0x00\n      dup1\n      revert\n    tag_182:\n      pop\n      gas\n      staticcall\n      iszero\n      dup1\n      iszero\n      tag_184\n      jumpi\n      returndatasize\n      0x00\n      dup1\n      returndatacopy\n      revert(0x00, returndatasize)\n    tag_184:\n      pop\n      pop\n      pop\n      pop\n      mload(0x40)\n      returndatasize\n      not(0x1f)\n      0x1f\n      dup3\n      add\n      and\n      dup3\n      add\n      dup1\n      0x40\n      mstore\n      pop\n      dup2\n      add\n      swap1\n      tag_185\n      swap2\n      swap1\n      tag_82\n      jump\t// in\n    tag_185:\n        /* \"contracts/Market.sol\":6075:6084  _remStake */\n      dup2\n        /* \"contracts/Market.sol\":6075:6102  _remStake >= app.minStake() */\n      lt\n        /* \"contracts/Market.sol\":6069:9154  while(_remStake >= app.minStake()){... */\n      tag_181\n      jumpi\n        /* \"contracts/Market.sol\":6121:6139  uint selectedIndex */\n      0x00\n        /* \"contracts/Market.sol\":6161:6176  uint256 maxOdds */\n      dup1\n        /* \"contracts/Market.sol\":6202:6208  uint i */\n      0x00\n        /* \"contracts/Market.sol\":6198:6595  for(uint i = 0; i < pendingBets.length; i++){... */\n    tag_186:\n        /* \"contracts/Market.sol\":6218:6229  pendingBets */\n      0x06\n        /* \"contracts/Market.sol\":6218:6236  pendingBets.length */\n      sload\n        /* \"contracts/Market.sol\":6214:6236  i < pendingBets.length */\n      dup2\n      lt\n        /* \"contracts/Market.sol\":6198:6595  for(uint i = 0; i < pendingBets.length; i++){... */\n      iszero\n      tag_187\n      jumpi\n        /* \"contracts/Market.sol\":6264:6276  bytes32 pBet */\n      0x00\n        /* \"contracts/Market.sol\":6279:6290  pendingBets */\n      0x06\n        /* \"contracts/Market.sol\":6291:6292  i */\n      dup3\n        /* \"contracts/Market.sol\":6279:6293  pendingBets[i] */\n      dup2\n      sload\n      dup2\n      lt\n      tag_189\n      jumpi\n      mstore(0x00, shl(0xe0, 0x4e487b71))\n      mstore(0x04, 0x32)\n      revert(0x00, 0x24)\n    tag_189:\n      swap1\n      0x00\n      mstore\n      keccak256(0x00, 0x20)\n      add\n      sload\n        /* \"contracts/Market.sol\":6264:6293  bytes32 pBet = pendingBets[i] */\n      swap1\n      pop\n        /* \"contracts/Market.sol\":6327:6335  betsInfo */\n      0x08\n        /* \"contracts/Market.sol\":6327:6341  betsInfo[pBet] */\n      0x00\n        /* \"contracts/Market.sol\":6336:6340  pBet */\n      dup3\n        /* \"contracts/Market.sol\":6327:6341  betsInfo[pBet] */\n      dup2\n      mstore\n      0x20\n      add\n      swap1\n      dup2\n      mstore\n      0x20\n      add\n      0x00\n      keccak256\n        /* \"contracts/Market.sol\":6327:6346  betsInfo[pBet].side */\n      0x05\n      add\n      sload\n        /* \"contracts/Market.sol\":6318:6323  _side */\n      dup10\n        /* \"contracts/Market.sol\":6318:6346  _side == betsInfo[pBet].side */\n      eq\n        /* \"contracts/Market.sol\":6315:6404  if(_side == betsInfo[pBet].side){... */\n      iszero\n      tag_191\n      jumpi\n        /* \"contracts/Market.sol\":6373:6381  continue */\n      pop\n      jump(tag_188)\n        /* \"contracts/Market.sol\":6315:6404  if(_side == betsInfo[pBet].side){... */\n    tag_191:\n        /* \"contracts/Market.sol\":6428:6442  betsInfo[pBet] */\n      0x00\n      dup2\n      dup2\n      mstore\n        /* \"contracts/Market.sol\":6428:6436  betsInfo */\n      0x08\n        /* \"contracts/Market.sol\":6428:6442  betsInfo[pBet] */\n      0x20\n      mstore\n      0x40\n      swap1\n      keccak256\n        /* \"contracts/Market.sol\":6428:6447  betsInfo[pBet].odds */\n      0x04\n      add\n      sload\n        /* \"contracts/Market.sol\":6428:6455  betsInfo[pBet].odds>maxOdds */\n      dup4\n      lt\n        /* \"contracts/Market.sol\":6425:6577  if(betsInfo[pBet].odds>maxOdds){... */\n      iszero\n      tag_192\n      jumpi\n        /* \"contracts/Market.sol\":6492:6506  betsInfo[pBet] */\n      0x00\n      dup2\n      dup2\n      mstore\n        /* \"contracts/Market.sol\":6492:6500  betsInfo */\n      0x08\n        /* \"contracts/Market.sol\":6492:6506  betsInfo[pBet] */\n      0x20\n      mstore\n      0x40\n      swap1\n      keccak256\n        /* \"contracts/Market.sol\":6492:6511  betsInfo[pBet].odds */\n      0x04\n      add\n      sload\n        /* \"contracts/Market.sol\":6553:6554  i */\n      swap2\n      swap4\n      pop\n        /* \"contracts/Market.sol\":6492:6511  betsInfo[pBet].odds */\n      swap1\n      swap2\n      pop\n        /* \"contracts/Market.sol\":6553:6554  i */\n      dup3\n      swap1\n        /* \"contracts/Market.sol\":6425:6577  if(betsInfo[pBet].odds>maxOdds){... */\n    tag_192:\n        /* \"contracts/Market.sol\":6198:6595  for(uint i = 0; i < pendingBets.length; i++){... */\n      pop\n    tag_188:\n        /* \"contracts/Market.sol\":6238:6241  i++ */\n      dup1\n      tag_193\n      dup2\n      tag_70\n      jump\t// in\n    tag_193:\n      swap2\n      pop\n      pop\n        /* \"contracts/Market.sol\":6198:6595  for(uint i = 0; i < pendingBets.length; i++){... */\n      jump(tag_186)\n    tag_187:\n      pop\n        /* \"contracts/Market.sol\":6625:6630  _odds */\n      dup8\n        /* \"contracts/Market.sol\":6615:6622  maxOdds */\n      dup2\n        /* \"contracts/Market.sol\":6615:6630  maxOdds > _odds */\n      gt\n        /* \"contracts/Market.sol\":6615:6659  maxOdds > _odds || (maxOdds > 0 && _instant) */\n      dup1\n      tag_195\n      jumpi\n      pop\n        /* \"contracts/Market.sol\":6645:6646  0 */\n      0x00\n        /* \"contracts/Market.sol\":6635:6642  maxOdds */\n      dup2\n        /* \"contracts/Market.sol\":6635:6646  maxOdds > 0 */\n      gt\n        /* \"contracts/Market.sol\":6635:6658  maxOdds > 0 && _instant */\n      dup1\n      iszero\n      tag_195\n      jumpi\n      pop\n        /* \"contracts/Market.sol\":6650:6658  _instant */\n      dup6\n        /* \"contracts/Market.sol\":6635:6658  maxOdds > 0 && _instant */\n    tag_195:\n        /* \"contracts/Market.sol\":6612:9140  if(maxOdds > _odds || (maxOdds > 0 && _instant)) {... */\n      iszero\n      tag_196\n      jumpi\n        /* \"contracts/Market.sol\":6683:6703  bytes32 selectedHash */\n      0x00\n        /* \"contracts/Market.sol\":6706:6717  pendingBets */\n      0x06\n        /* \"contracts/Market.sol\":6718:6731  selectedIndex */\n      dup4\n        /* \"contracts/Market.sol\":6706:6732  pendingBets[selectedIndex] */\n      dup2\n      sload\n      dup2\n      lt\n      tag_197\n      jumpi\n      mstore(0x00, shl(0xe0, 0x4e487b71))\n      mstore(0x04, 0x32)\n      revert(0x00, 0x24)\n    tag_197:\n      0x00\n      swap2\n      dup3\n      mstore\n      0x20\n      dup1\n      dup4\n      keccak256\n      swap1\n      swap2\n      add\n      sload\n        /* \"contracts/Market.sol\":6785:6807  betsInfo[selectedHash] */\n      dup1\n      dup4\n      mstore\n        /* \"contracts/Market.sol\":6785:6793  betsInfo */\n      0x08\n        /* \"contracts/Market.sol\":6785:6807  betsInfo[selectedHash] */\n      dup3\n      mstore\n      0x40\n      dup1\n      dup5\n      keccak256\n        /* \"contracts/Market.sol\":6754:6807  MarketBet memory selectedBet = betsInfo[selectedHash] */\n      dup2\n      mload\n      0xc0\n      dup2\n      add\n      dup4\n      mstore\n      dup2\n      sload\n      sub(shl(0xa0, 0x01), 0x01)\n      swap1\n      dup2\n      and\n      dup3\n      mstore\n      0x01\n      dup4\n      add\n      sload\n      and\n      swap5\n      dup2\n      add\n      swap5\n      swap1\n      swap5\n      mstore\n      0x02\n      dup2\n      add\n      sload\n      swap2\n      dup5\n      add\n      swap2\n      swap1\n      swap2\n      mstore\n      0x03\n      dup2\n      add\n      sload\n      0x60\n      dup5\n      add\n      mstore\n      0x04\n      dup2\n      add\n      sload\n      0x80\n      dup5\n      add\n      mstore\n      0x05\n      add\n      sload\n      0xa0\n      dup4\n      add\n      mstore\n        /* \"contracts/Market.sol\":6706:6732  pendingBets[selectedIndex] */\n      swap3\n      pop\n        /* \"contracts/Market.sol\":6754:6807  MarketBet memory selectedBet = betsInfo[selectedHash] */\n      swap1\n        /* \"contracts/Market.sol\":6894:6905  _odds - 100 */\n      tag_199\n        /* \"contracts/Market.sol\":6902:6905  100 */\n      0x64\n        /* \"contracts/Market.sol\":6894:6899  _odds */\n      dup13\n        /* \"contracts/Market.sol\":6894:6905  _odds - 100 */\n      tag_88\n      jump\t// in\n    tag_199:\n        /* \"contracts/Market.sol\":6870:6881  selectedBet */\n      dup3\n        /* \"contracts/Market.sol\":6870:6889  selectedBet.matched */\n      0x60\n      add\n      mload\n        /* \"contracts/Market.sol\":6850:6861  selectedBet */\n      dup4\n        /* \"contracts/Market.sol\":6850:6867  selectedBet.stake */\n      0x40\n      add\n      mload\n        /* \"contracts/Market.sol\":6850:6889  selectedBet.stake - selectedBet.matched */\n      tag_200\n      swap2\n      swap1\n      tag_88\n      jump\t// in\n    tag_200:\n        /* \"contracts/Market.sol\":6849:6906  (selectedBet.stake - selectedBet.matched) / (_odds - 100) */\n      tag_201\n      swap2\n      swap1\n      tag_177\n      jump\t// in\n    tag_201:\n        /* \"contracts/Market.sol\":6829:6906  uint offeredStake = (selectedBet.stake - selectedBet.matched) / (_odds - 100) */\n      swap1\n      pop\n        /* \"contracts/Market.sol\":6928:6947  offeredStake *= 100 */\n      tag_202\n        /* \"contracts/Market.sol\":6944:6947  100 */\n      0x64\n        /* \"contracts/Market.sol\":6829:6906  uint offeredStake = (selectedBet.stake - selectedBet.matched) / (_odds - 100) */\n      dup3\n        /* \"contracts/Market.sol\":6928:6947  offeredStake *= 100 */\n      tag_175\n      jump\t// in\n    tag_202:\n      swap1\n      pop\n        /* \"contracts/Market.sol\":6969:6986  uint betterAmount */\n      0x00\n        /* \"contracts/Market.sol\":7008:7024  uint makerAmount */\n      dup1\n        /* \"contracts/Market.sol\":7046:7062  bytes32 pairHash */\n      0x00\n        /* \"contracts/Market.sol\":7103:7109  _stake */\n      dup15\n        /* \"contracts/Market.sol\":7087:7099  offeredStake */\n      dup5\n        /* \"contracts/Market.sol\":7087:7109  offeredStake <= _stake */\n      gt\n        /* \"contracts/Market.sol\":7084:8543  if(offeredStake <= _stake) {... */\n      tag_203\n      jumpi\n        /* \"contracts/Market.sol\":7152:7164  offeredStake */\n      dup4\n      swap3\n      pop\n        /* \"contracts/Market.sol\":7220:7231  _odds - 100 */\n      tag_204\n        /* \"contracts/Market.sol\":7228:7231  100 */\n      0x64\n        /* \"contracts/Market.sol\":7220:7225  _odds */\n      dup16\n        /* \"contracts/Market.sol\":7220:7231  _odds - 100 */\n      tag_88\n      jump\t// in\n    tag_204:\n        /* \"contracts/Market.sol\":7204:7232  offeredStake * (_odds - 100) */\n      tag_205\n      swap1\n        /* \"contracts/Market.sol\":7204:7216  offeredStake */\n      dup6\n        /* \"contracts/Market.sol\":7204:7232  offeredStake * (_odds - 100) */\n      tag_175\n      jump\t// in\n    tag_205:\n        /* \"contracts/Market.sol\":7190:7232  makerAmount = offeredStake * (_odds - 100) */\n      swap2\n      pop\n        /* \"contracts/Market.sol\":7258:7276  makerAmount /= 100 */\n      tag_206\n        /* \"contracts/Market.sol\":7273:7276  100 */\n      0x64\n        /* \"contracts/Market.sol\":7190:7232  makerAmount = offeredStake * (_odds - 100) */\n      dup4\n        /* \"contracts/Market.sol\":7258:7276  makerAmount /= 100 */\n      tag_177\n      jump\t// in\n    tag_206:\n      swap2\n      pop\n        /* \"contracts/Market.sol\":7305:7310  _side */\n      dup13\n        /* \"contracts/Market.sol\":7314:7315  1 */\n      0x01\n        /* \"contracts/Market.sol\":7305:7315  _side == 1 */\n      eq\n        /* \"contracts/Market.sol\":7302:7798  if(_side == 1){... */\n      iszero\n      tag_207\n      jumpi\n        /* \"contracts/Market.sol\":7357:7415  _createPair(betHash,selectedHash,betterAmount,makerAmount) */\n      tag_208\n        /* \"contracts/Market.sol\":7369:7376  betHash */\n      dup11\n        /* \"contracts/Market.sol\":7377:7389  selectedHash */\n      dup8\n        /* \"contracts/Market.sol\":7390:7402  betterAmount */\n      dup6\n        /* \"contracts/Market.sol\":7403:7414  makerAmount */\n      dup6\n        /* \"contracts/Market.sol\":7357:7368  _createPair */\n      tag_209\n        /* \"contracts/Market.sol\":7357:7415  _createPair(betHash,selectedHash,betterAmount,makerAmount) */\n      jump\t// in\n    tag_208:\n        /* \"contracts/Market.sol\":7450:7508  PairCreated(betHash,selectedHash,betterAmount,makerAmount) */\n      0x40\n      dup1\n      mload\n        /* \"#utility.yul\":6652:6677   */\n      dup13\n      dup2\n      mstore\n        /* \"#utility.yul\":6708:6710   */\n      0x20\n        /* \"#utility.yul\":6693:6711   */\n      dup2\n      add\n        /* \"#utility.yul\":6686:6720   */\n      dup10\n      swap1\n      mstore\n        /* \"#utility.yul\":6736:6754   */\n      swap1\n      dup2\n      add\n        /* \"#utility.yul\":6729:6763   */\n      dup6\n      swap1\n      mstore\n        /* \"#utility.yul\":6794:6796   */\n      0x60\n        /* \"#utility.yul\":6779:6797   */\n      dup2\n      add\n        /* \"#utility.yul\":6772:6806   */\n      dup5\n      swap1\n      mstore\n        /* \"contracts/Market.sol\":7346:7415  pairHash = _createPair(betHash,selectedHash,betterAmount,makerAmount) */\n      swap1\n      swap2\n      pop\n        /* \"contracts/Market.sol\":7450:7508  PairCreated(betHash,selectedHash,betterAmount,makerAmount) */\n      0x5de48bb383b4a2aaad84721b80d93429b813651b0eefbd59d32018cfe28215dc\n      swap1\n        /* \"#utility.yul\":6639:6642   */\n      0x80\n        /* \"#utility.yul\":6624:6643   */\n      add\n        /* \"contracts/Market.sol\":7450:7508  PairCreated(betHash,selectedHash,betterAmount,makerAmount) */\n    tag_210:\n      mload(0x40)\n      dup1\n      swap2\n      sub\n      swap1\n      log1\n        /* \"contracts/Market.sol\":7084:8543  if(offeredStake <= _stake) {... */\n      jump(tag_224)\n        /* \"contracts/Market.sol\":7302:7798  if(_side == 1){... */\n    tag_207:\n        /* \"contracts/Market.sol\":7568:7573  _side */\n      dup13\n        /* \"contracts/Market.sol\":7577:7578  2 */\n      0x02\n        /* \"contracts/Market.sol\":7568:7578  _side == 2 */\n      eq\n        /* \"contracts/Market.sol\":7565:7798  if(_side == 2){... */\n      iszero\n      tag_213\n      jumpi\n        /* \"contracts/Market.sol\":7620:7678  _createPair(selectedHash,betHash,makerAmount,betterAmount) */\n      tag_214\n        /* \"contracts/Market.sol\":7632:7644  selectedHash */\n      dup7\n        /* \"contracts/Market.sol\":7645:7652  betHash */\n      dup12\n        /* \"contracts/Market.sol\":7653:7664  makerAmount */\n      dup5\n        /* \"contracts/Market.sol\":7665:7677  betterAmount */\n      dup7\n        /* \"contracts/Market.sol\":7620:7631  _createPair */\n      tag_209\n        /* \"contracts/Market.sol\":7620:7678  _createPair(selectedHash,betHash,makerAmount,betterAmount) */\n      jump\t// in\n    tag_214:\n        /* \"contracts/Market.sol\":7713:7771  PairCreated(selectedHash,betHash,makerAmount,betterAmount) */\n      0x40\n      dup1\n      mload\n        /* \"#utility.yul\":6652:6677   */\n      dup9\n      dup2\n      mstore\n        /* \"#utility.yul\":6708:6710   */\n      0x20\n        /* \"#utility.yul\":6693:6711   */\n      dup2\n      add\n        /* \"#utility.yul\":6686:6720   */\n      dup14\n      swap1\n      mstore\n        /* \"#utility.yul\":6736:6754   */\n      swap1\n      dup2\n      add\n        /* \"#utility.yul\":6729:6763   */\n      dup5\n      swap1\n      mstore\n        /* \"#utility.yul\":6794:6796   */\n      0x60\n        /* \"#utility.yul\":6779:6797   */\n      dup2\n      add\n        /* \"#utility.yul\":6772:6806   */\n      dup6\n      swap1\n      mstore\n        /* \"contracts/Market.sol\":7609:7678  pairHash = _createPair(selectedHash,betHash,makerAmount,betterAmount) */\n      swap1\n      swap2\n      pop\n        /* \"contracts/Market.sol\":7713:7771  PairCreated(selectedHash,betHash,makerAmount,betterAmount) */\n      0x5de48bb383b4a2aaad84721b80d93429b813651b0eefbd59d32018cfe28215dc\n      swap1\n        /* \"#utility.yul\":6639:6642   */\n      0x80\n        /* \"#utility.yul\":6624:6643   */\n      add\n        /* \"contracts/Market.sol\":7713:7771  PairCreated(selectedHash,betHash,makerAmount,betterAmount) */\n      tag_210\n        /* \"#utility.yul\":6606:6812   */\n      jump\n        /* \"contracts/Market.sol\":7565:7798  if(_side == 2){... */\n    tag_213:\n        /* \"contracts/Market.sol\":7084:8543  if(offeredStake <= _stake) {... */\n      jump(tag_224)\n    tag_203:\n        /* \"contracts/Market.sol\":7887:7893  _stake */\n      dup15\n      swap3\n      pop\n        /* \"contracts/Market.sol\":7943:7954  _odds - 100 */\n      tag_217\n        /* \"contracts/Market.sol\":7951:7954  100 */\n      0x64\n        /* \"contracts/Market.sol\":7943:7948  _odds */\n      dup16\n        /* \"contracts/Market.sol\":7943:7954  _odds - 100 */\n      tag_88\n      jump\t// in\n    tag_217:\n        /* \"contracts/Market.sol\":7933:7939  _stake */\n      dup16\n        /* \"contracts/Market.sol\":7933:7955  _stake * (_odds - 100) */\n      tag_218\n      swap2\n      swap1\n      tag_175\n      jump\t// in\n    tag_218:\n        /* \"contracts/Market.sol\":7919:7955  makerAmount = _stake * (_odds - 100) */\n      swap2\n      pop\n        /* \"contracts/Market.sol\":7981:7999  makerAmount /= 100 */\n      tag_219\n        /* \"contracts/Market.sol\":7996:7999  100 */\n      0x64\n        /* \"contracts/Market.sol\":7919:7955  makerAmount = _stake * (_odds - 100) */\n      dup4\n        /* \"contracts/Market.sol\":7981:7999  makerAmount /= 100 */\n      tag_177\n      jump\t// in\n    tag_219:\n      swap2\n      pop\n        /* \"contracts/Market.sol\":8028:8033  _side */\n      dup13\n        /* \"contracts/Market.sol\":8037:8038  1 */\n      0x01\n        /* \"contracts/Market.sol\":8028:8038  _side == 1 */\n      eq\n        /* \"contracts/Market.sol\":8025:8521  if(_side == 1){... */\n      iszero\n      tag_220\n      jumpi\n        /* \"contracts/Market.sol\":8080:8138  _createPair(betHash,selectedHash,betterAmount,makerAmount) */\n      tag_208\n        /* \"contracts/Market.sol\":8092:8099  betHash */\n      dup11\n        /* \"contracts/Market.sol\":8100:8112  selectedHash */\n      dup8\n        /* \"contracts/Market.sol\":8113:8125  betterAmount */\n      dup6\n        /* \"contracts/Market.sol\":8126:8137  makerAmount */\n      dup6\n        /* \"contracts/Market.sol\":8080:8091  _createPair */\n      tag_209\n        /* \"contracts/Market.sol\":8080:8138  _createPair(betHash,selectedHash,betterAmount,makerAmount) */\n      jump\t// in\n        /* \"contracts/Market.sol\":8025:8521  if(_side == 1){... */\n    tag_220:\n        /* \"contracts/Market.sol\":8291:8296  _side */\n      dup13\n        /* \"contracts/Market.sol\":8300:8301  2 */\n      0x02\n        /* \"contracts/Market.sol\":8291:8301  _side == 2 */\n      eq\n        /* \"contracts/Market.sol\":8288:8521  if(_side == 2){... */\n      iszero\n      tag_224\n      jumpi\n        /* \"contracts/Market.sol\":8343:8401  _createPair(selectedHash,betHash,makerAmount,betterAmount) */\n      tag_225\n        /* \"contracts/Market.sol\":8355:8367  selectedHash */\n      dup7\n        /* \"contracts/Market.sol\":8368:8375  betHash */\n      dup12\n        /* \"contracts/Market.sol\":8376:8387  makerAmount */\n      dup5\n        /* \"contracts/Market.sol\":8388:8400  betterAmount */\n      dup7\n        /* \"contracts/Market.sol\":8343:8354  _createPair */\n      tag_209\n        /* \"contracts/Market.sol\":8343:8401  _createPair(selectedHash,betHash,makerAmount,betterAmount) */\n      jump\t// in\n    tag_225:\n        /* \"contracts/Market.sol\":8436:8494  PairCreated(selectedHash,betHash,makerAmount,betterAmount) */\n      0x40\n      dup1\n      mload\n        /* \"#utility.yul\":6652:6677   */\n      dup9\n      dup2\n      mstore\n        /* \"#utility.yul\":6708:6710   */\n      0x20\n        /* \"#utility.yul\":6693:6711   */\n      dup2\n      add\n        /* \"#utility.yul\":6686:6720   */\n      dup14\n      swap1\n      mstore\n        /* \"#utility.yul\":6736:6754   */\n      swap1\n      dup2\n      add\n        /* \"#utility.yul\":6729:6763   */\n      dup5\n      swap1\n      mstore\n        /* \"#utility.yul\":6794:6796   */\n      0x60\n        /* \"#utility.yul\":6779:6797   */\n      dup2\n      add\n        /* \"#utility.yul\":6772:6806   */\n      dup6\n      swap1\n      mstore\n        /* \"contracts/Market.sol\":8332:8401  pairHash = _createPair(selectedHash,betHash,makerAmount,betterAmount) */\n      swap1\n      swap2\n      pop\n        /* \"contracts/Market.sol\":8436:8494  PairCreated(selectedHash,betHash,makerAmount,betterAmount) */\n      0x5de48bb383b4a2aaad84721b80d93429b813651b0eefbd59d32018cfe28215dc\n      swap1\n        /* \"#utility.yul\":6639:6642   */\n      0x80\n        /* \"#utility.yul\":6624:6643   */\n      add\n        /* \"contracts/Market.sol\":8436:8494  PairCreated(selectedHash,betHash,makerAmount,betterAmount) */\n      mload(0x40)\n      dup1\n      swap2\n      sub\n      swap1\n      log1\n        /* \"contracts/Market.sol\":8288:8521  if(_side == 2){... */\n    tag_224:\n        /* \"contracts/Market.sol\":8564:8581  betPairs[betHash] */\n      0x00\n      dup11\n      dup2\n      mstore\n        /* \"contracts/Market.sol\":8564:8572  betPairs */\n      0x0b\n        /* \"contracts/Market.sol\":8564:8581  betPairs[betHash] */\n      0x20\n      swap1\n      dup2\n      mstore\n      0x40\n      dup1\n      dup4\n      keccak256\n        /* \"contracts/Market.sol\":8564:8596  betPairs[betHash].push(pairHash) */\n      dup1\n      sload\n      0x01\n      dup2\n      dup2\n      add\n      dup4\n      sstore\n      swap2\n      dup6\n      mstore\n      dup4\n      dup6\n      keccak256\n      add\n      dup6\n      swap1\n      sstore\n        /* \"contracts/Market.sol\":8618:8640  betPairs[selectedHash] */\n      dup10\n      dup5\n      mstore\n      dup2\n      dup5\n      keccak256\n        /* \"contracts/Market.sol\":8618:8655  betPairs[selectedHash].push(pairHash) */\n      dup1\n      sload\n      swap2\n      dup3\n      add\n      dup2\n      sstore\n      dup5\n      mstore\n      dup3\n      dup5\n      keccak256\n      add\n      dup5\n      swap1\n      sstore\n        /* \"contracts/Market.sol\":8677:8694  betsInfo[betHash] */\n      dup13\n      dup4\n      mstore\n        /* \"contracts/Market.sol\":8677:8685  betsInfo */\n      0x08\n        /* \"contracts/Market.sol\":8677:8694  betsInfo[betHash] */\n      swap1\n      swap2\n      mstore\n      dup2\n      keccak256\n        /* \"contracts/Market.sol\":8677:8702  betsInfo[betHash].matched */\n      0x03\n      add\n        /* \"contracts/Market.sol\":8677:8718  betsInfo[betHash].matched += betterAmount */\n      dup1\n      sload\n        /* \"contracts/Market.sol\":8706:8718  betterAmount */\n      dup6\n      swap3\n        /* \"contracts/Market.sol\":8564:8581  betPairs[betHash] */\n      swap1\n        /* \"contracts/Market.sol\":8677:8718  betsInfo[betHash].matched += betterAmount */\n      tag_229\n      swap1\n        /* \"contracts/Market.sol\":8706:8718  betterAmount */\n      dup5\n      swap1\n        /* \"contracts/Market.sol\":8677:8718  betsInfo[betHash].matched += betterAmount */\n      tag_230\n      jump\t// in\n    tag_229:\n      swap1\n      swap2\n      sstore\n      pop\n      pop\n        /* \"contracts/Market.sol\":8740:8762  betsInfo[selectedHash] */\n      0x00\n      dup7\n      dup2\n      mstore\n        /* \"contracts/Market.sol\":8740:8748  betsInfo */\n      0x08\n        /* \"contracts/Market.sol\":8740:8762  betsInfo[selectedHash] */\n      0x20\n      mstore\n      0x40\n      dup2\n      keccak256\n        /* \"contracts/Market.sol\":8740:8770  betsInfo[selectedHash].matched */\n      0x03\n      add\n        /* \"contracts/Market.sol\":8740:8785  betsInfo[selectedHash].matched += makerAmount */\n      dup1\n      sload\n        /* \"contracts/Market.sol\":8774:8785  makerAmount */\n      dup5\n      swap3\n        /* \"contracts/Market.sol\":8740:8762  betsInfo[selectedHash] */\n      swap1\n        /* \"contracts/Market.sol\":8740:8785  betsInfo[selectedHash].matched += makerAmount */\n      tag_231\n      swap1\n        /* \"contracts/Market.sol\":8774:8785  makerAmount */\n      dup5\n      swap1\n        /* \"contracts/Market.sol\":8740:8785  betsInfo[selectedHash].matched += makerAmount */\n      tag_230\n      jump\t// in\n    tag_231:\n      swap1\n      swap2\n      sstore\n      pop\n      pop\n        /* \"contracts/Market.sol\":8841:8863  betsInfo[selectedHash] */\n      0x00\n      dup7\n      dup2\n      mstore\n        /* \"contracts/Market.sol\":8841:8849  betsInfo */\n      0x08\n        /* \"contracts/Market.sol\":8841:8863  betsInfo[selectedHash] */\n      0x20\n      mstore\n      0x40\n      swap1\n      keccak256\n        /* \"contracts/Market.sol\":8841:8871  betsInfo[selectedHash].matched */\n      0x03\n      dup2\n      add\n      sload\n        /* \"contracts/Market.sol\":8810:8838  betsInfo[selectedHash].stake */\n      0x02\n      swap1\n      swap2\n      add\n      sload\n        /* \"contracts/Market.sol\":8810:8871  betsInfo[selectedHash].stake - betsInfo[selectedHash].matched */\n      tag_232\n      swap2\n        /* \"contracts/Market.sol\":8841:8871  betsInfo[selectedHash].matched */\n      swap1\n        /* \"contracts/Market.sol\":8810:8871  betsInfo[selectedHash].stake - betsInfo[selectedHash].matched */\n      tag_88\n      jump\t// in\n    tag_232:\n        /* \"contracts/Market.sol\":8807:8960  if(betsInfo[selectedHash].stake - betsInfo[selectedHash].matched == 0) {... */\n      tag_233\n      jumpi\n        /* \"contracts/Market.sol\":8911:8922  pendingBets */\n      0x06\n        /* \"contracts/Market.sol\":8923:8936  selectedIndex */\n      dup9\n        /* \"contracts/Market.sol\":8911:8937  pendingBets[selectedIndex] */\n      dup2\n      sload\n      dup2\n      lt\n      tag_234\n      jumpi\n      mstore(0x00, shl(0xe0, 0x4e487b71))\n      mstore(0x04, 0x32)\n      revert(0x00, 0x24)\n    tag_234:\n      0x00\n      swap2\n      dup3\n      mstore\n      0x20\n      dup3\n      keccak256\n      add\n        /* \"contracts/Market.sol\":8904:8937  delete pendingBets[selectedIndex] */\n      sstore\n        /* \"contracts/Market.sol\":8807:8960  if(betsInfo[selectedHash].stake - betsInfo[selectedHash].matched == 0) {... */\n    tag_233:\n        /* \"contracts/Market.sol\":8981:9006  _remStake -= betterAmount */\n      tag_236\n        /* \"contracts/Market.sol\":8994:9006  betterAmount */\n      dup4\n        /* \"contracts/Market.sol\":8981:9006  _remStake -= betterAmount */\n      dup11\n      tag_88\n      jump\t// in\n    tag_236:\n      swap9\n      pop\n        /* \"contracts/Market.sol\":6612:9140  if(maxOdds > _odds || (maxOdds > 0 && _instant)) {... */\n      pop\n      pop\n      pop\n      pop\n      pop\n      pop\n      jump(tag_237)\n    tag_196:\n      pop\n      pop\n        /* \"contracts/Market.sol\":9069:9080  pendingBets */\n      0x06\n        /* \"contracts/Market.sol\":9069:9094  pendingBets.push(betHash) */\n      dup1\n      sload\n      0x01\n      dup2\n      add\n      dup3\n      sstore\n      0x00\n      swap2\n      swap1\n      swap2\n      mstore\n      0xf652222313e28459528d920b65115c16c04f3efc82aaedc97be59f3f377c0d3f\n      add\n      dup3\n      swap1\n      sstore\n        /* \"contracts/Market.sol\":9116:9121  break */\n      jump(tag_181)\n        /* \"contracts/Market.sol\":6612:9140  if(maxOdds > _odds || (maxOdds > 0 && _instant)) {... */\n    tag_237:\n        /* \"contracts/Market.sol\":6069:9154  while(_remStake >= app.minStake()){... */\n      pop\n      pop\n      jump(tag_180)\n    tag_181:\n        /* \"contracts/Market.sol\":5992:9228  if(pendingBets.length > 0){... */\n      pop\n      jump(tag_239)\n    tag_179:\n        /* \"contracts/Market.sol\":9192:9203  pendingBets */\n      0x06\n        /* \"contracts/Market.sol\":9192:9217  pendingBets.push(betHash) */\n      dup1\n      sload\n      0x01\n      dup2\n      add\n      dup3\n      sstore\n      0x00\n      swap2\n      swap1\n      swap2\n      mstore\n      0xf652222313e28459528d920b65115c16c04f3efc82aaedc97be59f3f377c0d3f\n      add\n      dup2\n      swap1\n      sstore\n        /* \"contracts/Market.sol\":5992:9228  if(pendingBets.length > 0){... */\n    tag_239:\n        /* \"contracts/Market.sol\":9242:9310  BetCreated(msg.sender, address(this), betHash, _stake, _odds, _side) */\n      0x40\n      dup1\n      mload\n        /* \"contracts/Market.sol\":9253:9263  msg.sender */\n      caller\n        /* \"#utility.yul\":3962:3996   */\n      dup2\n      mstore\n        /* \"contracts/Market.sol\":9273:9277  this */\n      address\n        /* \"#utility.yul\":4027:4029   */\n      0x20\n        /* \"#utility.yul\":4012:4030   */\n      dup3\n      add\n        /* \"#utility.yul\":4005:4048   */\n      mstore\n        /* \"#utility.yul\":4064:4082   */\n      swap1\n      dup2\n      add\n        /* \"#utility.yul\":4057:4091   */\n      dup3\n      swap1\n      mstore\n        /* \"#utility.yul\":4122:4124   */\n      0x60\n        /* \"#utility.yul\":4107:4125   */\n      dup2\n      add\n        /* \"#utility.yul\":4100:4134   */\n      dup8\n      swap1\n      mstore\n        /* \"#utility.yul\":4165:4168   */\n      0x80\n        /* \"#utility.yul\":4150:4169   */\n      dup2\n      add\n        /* \"#utility.yul\":4143:4178   */\n      dup7\n      swap1\n      mstore\n        /* \"#utility.yul\":3942:3945   */\n      0xa0\n        /* \"#utility.yul\":4194:4213   */\n      dup2\n      add\n        /* \"#utility.yul\":4187:4222   */\n      dup6\n      swap1\n      mstore\n        /* \"contracts/Market.sol\":9242:9310  BetCreated(msg.sender, address(this), betHash, _stake, _odds, _side) */\n      0x618f358bb45538682ade624a4a1959053d9dabd20fe300508034b879681b37be\n      swap1\n        /* \"#utility.yul\":3911:3914   */\n      0xc0\n        /* \"#utility.yul\":3896:3915   */\n      add\n        /* \"contracts/Market.sol\":9242:9310  BetCreated(msg.sender, address(this), betHash, _stake, _odds, _side) */\n      mload(0x40)\n      dup1\n      swap2\n      sub\n      swap1\n      log1\n        /* \"contracts/Market.sol\":9327:9334  betHash */\n      swap8\n        /* \"contracts/Market.sol\":5137:9341  function addBet(... */\n      swap7\n      pop\n      pop\n      pop\n      pop\n      pop\n      pop\n      pop\n      jump\t// out\n        /* \"contracts/Market.sol\":2859:3422  function withdrawPending(bytes32 _bet) external override {... */\n    tag_45:\n        /* \"contracts/Market.sol\":2926:2946  MarketBet memory bet */\n      0x00\n        /* \"contracts/Market.sol\":2949:2963  betsInfo[_bet] */\n      dup2\n      dup2\n      mstore\n        /* \"contracts/Market.sol\":2949:2957  betsInfo */\n      0x08\n        /* \"contracts/Market.sol\":2949:2963  betsInfo[_bet] */\n      0x20\n      swap1\n      dup2\n      mstore\n      0x40\n      swap2\n      dup3\n      swap1\n      keccak256\n        /* \"contracts/Market.sol\":2926:2963  MarketBet memory bet = betsInfo[_bet] */\n      dup3\n      mload\n      0xc0\n      dup2\n      add\n      dup5\n      mstore\n      dup2\n      sload\n      sub(shl(0xa0, 0x01), 0x01)\n      swap1\n      dup2\n      and\n      dup1\n      dup4\n      mstore\n      0x01\n      dup5\n      add\n      sload\n      swap1\n      swap2\n      and\n      swap4\n      dup3\n      add\n      swap4\n      swap1\n      swap4\n      mstore\n      0x02\n      dup3\n      add\n      sload\n      swap4\n      dup2\n      add\n      swap4\n      swap1\n      swap4\n      mstore\n      0x03\n      dup2\n      add\n      sload\n      0x60\n      dup5\n      add\n      mstore\n      0x04\n      dup2\n      add\n      sload\n      0x80\n      dup5\n      add\n      mstore\n      0x05\n      add\n      sload\n      0xa0\n      dup4\n      add\n      mstore\n        /* \"contracts/Market.sol\":2981:2991  msg.sender */\n      caller\n        /* \"contracts/Market.sol\":2981:3005  msg.sender == bet.better */\n      eq\n        /* \"contracts/Market.sol\":2973:3012  require(msg.sender == bet.better, \"M4\") */\n      tag_244\n      jumpi\n      mload(0x40)\n      shl(0xe5, 0x461bcd)\n      dup2\n      mstore\n        /* \"#utility.yul\":8670:8672   */\n      0x20\n        /* \"contracts/Market.sol\":2973:3012  require(msg.sender == bet.better, \"M4\") */\n      0x04\n      dup3\n      add\n        /* \"#utility.yul\":8652:8673   */\n      mstore\n        /* \"#utility.yul\":8709:8710   */\n      0x02\n        /* \"#utility.yul\":8689:8707   */\n      0x24\n      dup3\n      add\n        /* \"#utility.yul\":8682:8711   */\n      mstore\n      shl(0xf2, 0x134d)\n        /* \"#utility.yul\":8727:8745   */\n      0x44\n      dup3\n      add\n        /* \"#utility.yul\":8720:8752   */\n      mstore\n        /* \"#utility.yul\":8769:8787   */\n      0x64\n      add\n        /* \"contracts/Market.sol\":2973:3012  require(msg.sender == bet.better, \"M4\") */\n      tag_73\n        /* \"#utility.yul\":8642:8793   */\n      jump\n        /* \"contracts/Market.sol\":2973:3012  require(msg.sender == bet.better, \"M4\") */\n    tag_244:\n        /* \"contracts/Market.sol\":3022:3035  uint remStake */\n      0x00\n        /* \"contracts/Market.sol\":3050:3053  bet */\n      dup2\n        /* \"contracts/Market.sol\":3050:3061  bet.matched */\n      0x60\n      add\n      mload\n        /* \"contracts/Market.sol\":3038:3041  bet */\n      dup3\n        /* \"contracts/Market.sol\":3038:3047  bet.stake */\n      0x40\n      add\n      mload\n        /* \"contracts/Market.sol\":3038:3061  bet.stake - bet.matched */\n      tag_247\n      swap2\n      swap1\n      tag_88\n      jump\t// in\n    tag_247:\n        /* \"contracts/Market.sol\":3075:3085  bet.better */\n      dup3\n      mload\n      sub(shl(0xa0, 0x01), 0x01)\n        /* \"contracts/Market.sol\":3071:3086  bal[bet.better] */\n      and\n      0x00\n      swap1\n      dup2\n      mstore\n        /* \"contracts/Market.sol\":3071:3074  bal */\n      0x07\n        /* \"contracts/Market.sol\":3071:3086  bal[bet.better] */\n      0x20\n      mstore\n      0x40\n      dup2\n      keccak256\n        /* \"contracts/Market.sol\":3071:3098  bal[bet.better] += remStake */\n      dup1\n      sload\n        /* \"contracts/Market.sol\":3022:3061  uint remStake = bet.stake - bet.matched */\n      swap3\n      swap4\n      pop\n      dup4\n      swap3\n        /* \"contracts/Market.sol\":3071:3086  bal[bet.better] */\n      swap1\n      swap2\n      swap1\n        /* \"contracts/Market.sol\":3071:3098  bal[bet.better] += remStake */\n      tag_248\n      swap1\n        /* \"contracts/Market.sol\":3022:3061  uint remStake = bet.stake - bet.matched */\n      dup5\n      swap1\n        /* \"contracts/Market.sol\":3071:3098  bal[bet.better] += remStake */\n      tag_230\n      jump\t// in\n    tag_248:\n      swap1\n      swap2\n      sstore\n      pop\n      pop\n        /* \"contracts/Market.sol\":3133:3142  bet.stake */\n      0x40\n      dup1\n      dup4\n      add\n      mload\n        /* \"contracts/Market.sol\":3108:3122  betsInfo[_bet] */\n      0x00\n      dup6\n      dup2\n      mstore\n        /* \"contracts/Market.sol\":3108:3116  betsInfo */\n      0x08\n        /* \"contracts/Market.sol\":3108:3122  betsInfo[_bet] */\n      0x20\n      mstore\n      swap2\n      dup3\n      keccak256\n        /* \"contracts/Market.sol\":3108:3130  betsInfo[_bet].matched */\n      0x03\n      add\n        /* \"contracts/Market.sol\":3108:3142  betsInfo[_bet].matched = bet.stake */\n      sstore\n        /* \"contracts/Market.sol\":3170:3181  pendingBets */\n      0x06\n        /* \"contracts/Market.sol\":3170:3188  pendingBets.length */\n      sload\n      swap1\n        /* \"contracts/Market.sol\":3198:3339  for(uint i = 0; i < betsLength; i++){... */\n    tag_249:\n        /* \"contracts/Market.sol\":3218:3228  betsLength */\n      dup2\n        /* \"contracts/Market.sol\":3214:3215  i */\n      dup2\n        /* \"contracts/Market.sol\":3214:3228  i < betsLength */\n      lt\n        /* \"contracts/Market.sol\":3198:3339  for(uint i = 0; i < betsLength; i++){... */\n      iszero\n      tag_250\n      jumpi\n        /* \"contracts/Market.sol\":3269:3273  _bet */\n      dup5\n        /* \"contracts/Market.sol\":3251:3262  pendingBets */\n      0x06\n        /* \"contracts/Market.sol\":3263:3264  i */\n      dup3\n        /* \"contracts/Market.sol\":3251:3265  pendingBets[i] */\n      dup2\n      sload\n      dup2\n      lt\n      tag_252\n      jumpi\n      mstore(0x00, shl(0xe0, 0x4e487b71))\n      mstore(0x04, 0x32)\n      revert(0x00, 0x24)\n    tag_252:\n      swap1\n      0x00\n      mstore\n      keccak256(0x00, 0x20)\n      add\n      sload\n        /* \"contracts/Market.sol\":3251:3273  pendingBets[i] == _bet */\n      eq\n        /* \"contracts/Market.sol\":3248:3329  if(pendingBets[i] == _bet) {... */\n      iszero\n      tag_254\n      jumpi\n        /* \"contracts/Market.sol\":3300:3311  pendingBets */\n      0x06\n        /* \"contracts/Market.sol\":3312:3313  i */\n      dup2\n        /* \"contracts/Market.sol\":3300:3314  pendingBets[i] */\n      dup2\n      sload\n      dup2\n      lt\n      tag_255\n      jumpi\n      mstore(0x00, shl(0xe0, 0x4e487b71))\n      mstore(0x04, 0x32)\n      revert(0x00, 0x24)\n    tag_255:\n      0x00\n      swap2\n      dup3\n      mstore\n      0x20\n      dup3\n      keccak256\n      add\n        /* \"contracts/Market.sol\":3293:3314  delete pendingBets[i] */\n      sstore\n        /* \"contracts/Market.sol\":3248:3329  if(pendingBets[i] == _bet) {... */\n    tag_254:\n        /* \"contracts/Market.sol\":3230:3233  i++ */\n      dup1\n      tag_257\n      dup2\n      tag_70\n      jump\t// in\n    tag_257:\n      swap2\n      pop\n      pop\n        /* \"contracts/Market.sol\":3198:3339  for(uint i = 0; i < betsLength; i++){... */\n      jump(tag_249)\n    tag_250:\n      pop\n        /* \"contracts/Market.sol\":3355:3365  msg.sender */\n      caller\n        /* \"contracts/Market.sol\":3369:3370  0 */\n      0x00\n        /* \"contracts/Market.sol\":3351:3366  bal[msg.sender] */\n      swap1\n      dup2\n      mstore\n        /* \"contracts/Market.sol\":3351:3354  bal */\n      0x07\n        /* \"contracts/Market.sol\":3351:3366  bal[msg.sender] */\n      0x20\n      mstore\n      0x40\n      swap1\n      keccak256\n      sload\n        /* \"contracts/Market.sol\":3351:3370  bal[msg.sender] > 0 */\n      iszero\n        /* \"contracts/Market.sol\":3348:3416  if(bal[msg.sender] > 0){... */\n      tag_111\n      jumpi\n        /* \"contracts/Market.sol\":3385:3405  withdraw(msg.sender) */\n      tag_259\n        /* \"contracts/Market.sol\":3394:3404  msg.sender */\n      caller\n        /* \"contracts/Market.sol\":3385:3393  withdraw */\n      tag_27\n        /* \"contracts/Market.sol\":3385:3405  withdraw(msg.sender) */\n      jump\t// in\n    tag_259:\n      pop\n        /* \"contracts/Market.sol\":2859:3422  function withdrawPending(bytes32 _bet) external override {... */\n      pop\n      pop\n      pop\n      pop\n      jump\t// out\n        /* \"contracts/Market.sol\":4047:4537  function settle(uint256 _winningSide)... */\n    tag_49:\n        /* \"contracts/Market.sol\":1275:1280  owner */\n      sload(0x01)\n        /* \"contracts/Market.sol\":4155:4159  bool */\n      0x00\n      swap1\n      sub(shl(0xa0, 0x01), 0x01)\n        /* \"contracts/Market.sol\":1275:1280  owner */\n      and\n        /* \"contracts/Market.sol\":1261:1271  msg.sender */\n      caller\n        /* \"contracts/Market.sol\":1261:1280  msg.sender == owner */\n      eq\n      dup1\n        /* \"contracts/Market.sol\":1261:1343  msg.sender == owner ... */\n      tag_261\n      jumpi\n      pop\n        /* \"contracts/Market.sol\":1324:1327  app */\n      immutable(\"0x911a39fbf665a24ad3b6efc185d4b936bbda1900793ae2f7c00f4d18bdd96685\")\n      sub(shl(0xa0, 0x01), 0x01)\n        /* \"contracts/Market.sol\":1324:1341  app.contractOwner */\n      and\n      0xce606ee0\n        /* \"contracts/Market.sol\":1324:1343  app.contractOwner() */\n      mload(0x40)\n      dup2\n      0xffffffff\n      and\n      0xe0\n      shl\n      dup2\n      mstore\n      0x04\n      add\n      0x20\n      mload(0x40)\n      dup1\n      dup4\n      sub\n      dup2\n      dup7\n      dup1\n      extcodesize\n      iszero\n      dup1\n      iszero\n      tag_262\n      jumpi\n      0x00\n      dup1\n      revert\n    tag_262:\n      pop\n      gas\n      staticcall\n      iszero\n      dup1\n      iszero\n      tag_264\n      jumpi\n      returndatasize\n      0x00\n      dup1\n      returndatacopy\n      revert(0x00, returndatasize)\n    tag_264:\n      pop\n      pop\n      pop\n      pop\n      mload(0x40)\n      returndatasize\n      not(0x1f)\n      0x1f\n      dup3\n      add\n      and\n      dup3\n      add\n      dup1\n      0x40\n      mstore\n      pop\n      dup2\n      add\n      swap1\n      tag_265\n      swap2\n      swap1\n      tag_118\n      jump\t// in\n    tag_265:\n      sub(shl(0xa0, 0x01), 0x01)\n        /* \"contracts/Market.sol\":1310:1343  msg.sender == app.contractOwner() */\n      and\n        /* \"contracts/Market.sol\":1310:1320  msg.sender */\n      caller\n      sub(shl(0xa0, 0x01), 0x01)\n        /* \"contracts/Market.sol\":1310:1343  msg.sender == app.contractOwner() */\n      and\n      eq\n        /* \"contracts/Market.sol\":1261:1343  msg.sender == owner ... */\n    tag_261:\n        /* \"contracts/Market.sol\":1261:1392  msg.sender == owner ... */\n      dup1\n      tag_266\n      jumpi\n      pop\n        /* \"contracts/Market.sol\":1385:1392  factory */\n      and(sub(shl(0xa0, 0x01), 0x01), sload(0x02))\n        /* \"contracts/Market.sol\":1371:1381  msg.sender */\n      caller\n        /* \"contracts/Market.sol\":1371:1392  msg.sender == factory */\n      eq\n        /* \"contracts/Market.sol\":1261:1392  msg.sender == owner ... */\n    tag_266:\n        /* \"contracts/Market.sol\":1240:1420  require(... */\n      tag_267\n      jumpi\n      mload(0x40)\n      shl(0xe5, 0x461bcd)\n      dup2\n      mstore\n      0x04\n      add\n      tag_73\n      swap1\n      tag_122\n      jump\t// in\n    tag_267:\n        /* \"contracts/Market.sol\":4179:4185  status */\n      sload(0x03)\n        /* \"contracts/Market.sol\":4179:4190  status == 0 */\n      iszero\n      dup1\n        /* \"contracts/Market.sol\":4179:4205  status == 0 || status == 4 */\n      tag_270\n      jumpi\n      pop\n        /* \"contracts/Market.sol\":4194:4200  status */\n      sload(0x03)\n        /* \"contracts/Market.sol\":4204:4205  4 */\n      0x04\n        /* \"contracts/Market.sol\":4194:4205  status == 4 */\n      eq\n        /* \"contracts/Market.sol\":4179:4205  status == 0 || status == 4 */\n    tag_270:\n        /* \"contracts/Market.sol\":4178:4250  (status == 0 || status == 4) && (_winningSide == 1 || _winningSide == 2) */\n      dup1\n      iszero\n      tag_272\n      jumpi\n      pop\n        /* \"contracts/Market.sol\":4211:4223  _winningSide */\n      dup2\n        /* \"contracts/Market.sol\":4227:4228  1 */\n      0x01\n        /* \"contracts/Market.sol\":4211:4228  _winningSide == 1 */\n      eq\n        /* \"contracts/Market.sol\":4211:4249  _winningSide == 1 || _winningSide == 2 */\n      dup1\n      tag_272\n      jumpi\n      pop\n        /* \"contracts/Market.sol\":4232:4244  _winningSide */\n      dup2\n        /* \"contracts/Market.sol\":4248:4249  2 */\n      0x02\n        /* \"contracts/Market.sol\":4232:4249  _winningSide == 2 */\n      eq\n        /* \"contracts/Market.sol\":4211:4249  _winningSide == 1 || _winningSide == 2 */\n    tag_272:\n        /* \"contracts/Market.sol\":4175:4522  if((status == 0 || status == 4) && (_winningSide == 1 || _winningSide == 2)){... */\n      iszero\n      tag_273\n      jumpi\n        /* \"contracts/Market.sol\":4265:4271  status */\n      0x03\n        /* \"contracts/Market.sol\":4265:4286  status = _winningSide */\n      dup3\n      swap1\n      sstore\n        /* \"contracts/Market.sol\":4319:4324  pairs */\n      0x04\n        /* \"contracts/Market.sol\":4319:4331  pairs.length */\n      sload\n        /* \"contracts/Market.sol\":4300:4316  uint pairsLength */\n      0x00\n        /* \"contracts/Market.sol\":4345:4436  for(uint i = 0; i < pairsLength; i++){... */\n    tag_274:\n        /* \"contracts/Market.sol\":4365:4376  pairsLength */\n      dup2\n        /* \"contracts/Market.sol\":4361:4362  i */\n      dup2\n        /* \"contracts/Market.sol\":4361:4376  i < pairsLength */\n      lt\n        /* \"contracts/Market.sol\":4345:4436  for(uint i = 0; i < pairsLength; i++){... */\n      iszero\n      tag_275\n      jumpi\n        /* \"contracts/Market.sol\":4400:4421  _settlePair(pairs[i]) */\n      tag_277\n        /* \"contracts/Market.sol\":4412:4417  pairs */\n      0x04\n        /* \"contracts/Market.sol\":4418:4419  i */\n      dup3\n        /* \"contracts/Market.sol\":4412:4420  pairs[i] */\n      dup2\n      sload\n      dup2\n      lt\n      tag_278\n      jumpi\n      mstore(0x00, shl(0xe0, 0x4e487b71))\n      mstore(0x04, 0x32)\n      revert(0x00, 0x24)\n    tag_278:\n      swap1\n      0x00\n      mstore\n      keccak256(0x00, 0x20)\n      add\n      sload\n        /* \"contracts/Market.sol\":4400:4411  _settlePair */\n      tag_108\n        /* \"contracts/Market.sol\":4400:4421  _settlePair(pairs[i]) */\n      jump\t// in\n    tag_277:\n      pop\n        /* \"contracts/Market.sol\":4378:4381  i++ */\n      dup1\n      tag_280\n      dup2\n      tag_70\n      jump\t// in\n    tag_280:\n      swap2\n      pop\n      pop\n        /* \"contracts/Market.sol\":4345:4436  for(uint i = 0; i < pairsLength; i++){... */\n      jump(tag_274)\n    tag_275:\n      pop\n        /* \"contracts/Market.sol\":4456:4460  true */\n      0x01\n      swap4\n        /* \"contracts/Market.sol\":4047:4537  function settle(uint256 _winningSide)... */\n      swap3\n      pop\n      pop\n      pop\n      jump\t// out\n        /* \"contracts/Market.sol\":4175:4522  if((status == 0 || status == 4) && (_winningSide == 1 || _winningSide == 2)){... */\n    tag_273:\n      pop\n        /* \"contracts/Market.sol\":4506:4511  false */\n      0x00\n        /* \"contracts/Market.sol\":4047:4537  function settle(uint256 _winningSide)... */\n      swap2\n      swap1\n      pop\n      jump\t// out\n        /* \"contracts/Market.sol\":4929:5131  function start() external override onlyFactory returns(bool){... */\n    tag_52:\n        /* \"contracts/Market.sol\":1275:1280  owner */\n      sload(0x01)\n        /* \"contracts/Market.sol\":4984:4988  bool */\n      0x00\n      swap1\n      sub(shl(0xa0, 0x01), 0x01)\n        /* \"contracts/Market.sol\":1275:1280  owner */\n      and\n        /* \"contracts/Market.sol\":1261:1271  msg.sender */\n      caller\n        /* \"contracts/Market.sol\":1261:1280  msg.sender == owner */\n      eq\n      dup1\n        /* \"contracts/Market.sol\":1261:1343  msg.sender == owner ... */\n      tag_283\n      jumpi\n      pop\n        /* \"contracts/Market.sol\":1324:1327  app */\n      immutable(\"0x911a39fbf665a24ad3b6efc185d4b936bbda1900793ae2f7c00f4d18bdd96685\")\n      sub(shl(0xa0, 0x01), 0x01)\n        /* \"contracts/Market.sol\":1324:1341  app.contractOwner */\n      and\n      0xce606ee0\n        /* \"contracts/Market.sol\":1324:1343  app.contractOwner() */\n      mload(0x40)\n      dup2\n      0xffffffff\n      and\n      0xe0\n      shl\n      dup2\n      mstore\n      0x04\n      add\n      0x20\n      mload(0x40)\n      dup1\n      dup4\n      sub\n      dup2\n      dup7\n      dup1\n      extcodesize\n      iszero\n      dup1\n      iszero\n      tag_284\n      jumpi\n      0x00\n      dup1\n      revert\n    tag_284:\n      pop\n      gas\n      staticcall\n      iszero\n      dup1\n      iszero\n      tag_286\n      jumpi\n      returndatasize\n      0x00\n      dup1\n      returndatacopy\n      revert(0x00, returndatasize)\n    tag_286:\n      pop\n      pop\n      pop\n      pop\n      mload(0x40)\n      returndatasize\n      not(0x1f)\n      0x1f\n      dup3\n      add\n      and\n      dup3\n      add\n      dup1\n      0x40\n      mstore\n      pop\n      dup2\n      add\n      swap1\n      tag_287\n      swap2\n      swap1\n      tag_118\n      jump\t// in\n    tag_287:\n      sub(shl(0xa0, 0x01), 0x01)\n        /* \"contracts/Market.sol\":1310:1343  msg.sender == app.contractOwner() */\n      and\n        /* \"contracts/Market.sol\":1310:1320  msg.sender */\n      caller\n      sub(shl(0xa0, 0x01), 0x01)\n        /* \"contracts/Market.sol\":1310:1343  msg.sender == app.contractOwner() */\n      and\n      eq\n        /* \"contracts/Market.sol\":1261:1343  msg.sender == owner ... */\n    tag_283:\n        /* \"contracts/Market.sol\":1261:1392  msg.sender == owner ... */\n      dup1\n      tag_288\n      jumpi\n      pop\n        /* \"contracts/Market.sol\":1385:1392  factory */\n      and(sub(shl(0xa0, 0x01), 0x01), sload(0x02))\n        /* \"contracts/Market.sol\":1371:1381  msg.sender */\n      caller\n        /* \"contracts/Market.sol\":1371:1392  msg.sender == factory */\n      eq\n        /* \"contracts/Market.sol\":1261:1392  msg.sender == owner ... */\n    tag_288:\n        /* \"contracts/Market.sol\":1240:1420  require(... */\n      tag_289\n      jumpi\n      mload(0x40)\n      shl(0xe5, 0x461bcd)\n      dup2\n      mstore\n      0x04\n      add\n      tag_73\n      swap1\n      tag_122\n      jump\t// in\n    tag_289:\n        /* \"contracts/Market.sol\":5002:5008  status */\n      sload(0x03)\n        /* \"contracts/Market.sol\":4999:5125  if(status == 0){... */\n      tag_125\n      jumpi\n      pop\n        /* \"contracts/Market.sol\":5037:5038  4 */\n      0x04\n        /* \"contracts/Market.sol\":5028:5034  status */\n      0x03\n        /* \"contracts/Market.sol\":5028:5038  status = 4 */\n      sstore\n        /* \"contracts/Market.sol\":5059:5063  true */\n      0x01\n        /* \"contracts/Market.sol\":4543:4923  function cancelMarket() external override onlyFactory returns(bool) ... */\n      swap1\n      jump\t// out\n        /* \"contracts/Market.sol\":3428:3715  function cashOut(bytes32 _bet) external {... */\n    tag_56:\n        /* \"contracts/Market.sol\":3481:3487  status */\n      sload(0x03)\n        /* \"contracts/Market.sol\":3478:3709  if(status == 0){... */\n      tag_295\n      jumpi\n        /* \"contracts/Market.sol\":3507:3530  bytes32[] memory _pairs */\n      0x00\n        /* \"contracts/Market.sol\":3533:3547  betPairs[_bet] */\n      dup2\n      dup2\n      mstore\n        /* \"contracts/Market.sol\":3533:3541  betPairs */\n      0x0b\n        /* \"contracts/Market.sol\":3533:3547  betPairs[_bet] */\n      0x20\n      swap1\n      dup2\n      mstore\n      0x40\n      dup1\n      dup4\n      keccak256\n        /* \"contracts/Market.sol\":3507:3547  bytes32[] memory _pairs = betPairs[_bet] */\n      dup1\n      sload\n      dup3\n      mload\n      dup2\n      dup6\n      mul\n      dup2\n      add\n      dup6\n      add\n      swap1\n      swap4\n      mstore\n      dup1\n      dup4\n      mstore\n      swap2\n      swap3\n        /* \"contracts/Market.sol\":3533:3547  betPairs[_bet] */\n      swap1\n      swap2\n        /* \"contracts/Market.sol\":3507:3547  bytes32[] memory _pairs = betPairs[_bet] */\n      swap1\n      dup4\n      add\n        /* \"contracts/Market.sol\":3533:3547  betPairs[_bet] */\n      dup3\n        /* \"contracts/Market.sol\":3507:3547  bytes32[] memory _pairs = betPairs[_bet] */\n      dup3\n      dup1\n      iszero\n      tag_296\n      jumpi\n      0x20\n      mul\n      dup3\n      add\n      swap2\n      swap1\n      0x00\n      mstore\n      keccak256(0x00, 0x20)\n      swap1\n    tag_297:\n      dup2\n      sload\n      dup2\n      mstore\n      0x20\n      add\n      swap1\n      0x01\n      add\n      swap1\n      dup1\n      dup4\n      gt\n      tag_297\n      jumpi\n    tag_296:\n      pop\n      pop\n        /* \"contracts/Market.sol\":3580:3593  _pairs.length */\n      dup4\n      mload\n        /* \"contracts/Market.sol\":3507:3547  bytes32[] memory _pairs = betPairs[_bet] */\n      swap4\n      swap5\n      pop\n        /* \"contracts/Market.sol\":3561:3577  uint pairsLength */\n      0x00\n      swap3\n      pop\n      pop\n      pop\n        /* \"contracts/Market.sol\":3607:3699  for(uint i = 0; i < pairsLength; i++){... */\n    tag_298:\n        /* \"contracts/Market.sol\":3627:3638  pairsLength */\n      dup2\n        /* \"contracts/Market.sol\":3623:3624  i */\n      dup2\n        /* \"contracts/Market.sol\":3623:3638  i < pairsLength */\n      lt\n        /* \"contracts/Market.sol\":3607:3699  for(uint i = 0; i < pairsLength; i++){... */\n      iszero\n      tag_111\n      jumpi\n        /* \"contracts/Market.sol\":3662:3684  _settlePair(_pairs[i]) */\n      tag_301\n        /* \"contracts/Market.sol\":3674:3680  _pairs */\n      dup4\n        /* \"contracts/Market.sol\":3681:3682  i */\n      dup3\n        /* \"contracts/Market.sol\":3674:3683  _pairs[i] */\n      dup2\n      mload\n      dup2\n      lt\n      tag_107\n      jumpi\n      mstore(0x00, shl(0xe0, 0x4e487b71))\n      mstore(0x04, 0x32)\n      revert(0x00, 0x24)\n        /* \"contracts/Market.sol\":3662:3684  _settlePair(_pairs[i]) */\n    tag_301:\n      pop\n        /* \"contracts/Market.sol\":3640:3643  i++ */\n      dup1\n      tag_303\n      dup2\n      tag_70\n      jump\t// in\n    tag_303:\n      swap2\n      pop\n      pop\n        /* \"contracts/Market.sol\":3607:3699  for(uint i = 0; i < pairsLength; i++){... */\n      jump(tag_298)\n        /* \"contracts/Market.sol\":3478:3709  if(status == 0){... */\n    tag_295:\n        /* \"contracts/Market.sol\":3428:3715  function cashOut(bytes32 _bet) external {... */\n      pop\n      jump\t// out\n        /* \"contracts/Market.sol\":9705:11064  function _settlePair(bytes32 _pair) private nonReentrant returns(bool) {... */\n    tag_108:\n        /* \"contracts/Market.sol\":9770:9774  bool */\n      0x00\n        /* \"@openzeppelin/contracts/security/ReentrancyGuard.sol\":1744:1745  2 */\n      0x02\n        /* \"@openzeppelin/contracts/security/ReentrancyGuard.sol\":2325:2332  _status */\n      sload(0x00)\n        /* \"@openzeppelin/contracts/security/ReentrancyGuard.sol\":2325:2344  _status != _ENTERED */\n      eq\n      iszero\n        /* \"@openzeppelin/contracts/security/ReentrancyGuard.sol\":2317:2380  require(_status != _ENTERED, \"ReentrancyGuard: reentrant call\") */\n      tag_306\n      jumpi\n      mload(0x40)\n      shl(0xe5, 0x461bcd)\n      dup2\n      mstore\n        /* \"#utility.yul\":9330:9332   */\n      0x20\n        /* \"@openzeppelin/contracts/security/ReentrancyGuard.sol\":2317:2380  require(_status != _ENTERED, \"ReentrancyGuard: reentrant call\") */\n      0x04\n      dup3\n      add\n        /* \"#utility.yul\":9312:9333   */\n      mstore\n        /* \"#utility.yul\":9369:9371   */\n      0x1f\n        /* \"#utility.yul\":9349:9367   */\n      0x24\n      dup3\n      add\n        /* \"#utility.yul\":9342:9372   */\n      mstore\n        /* \"#utility.yul\":9408:9441   */\n      0x5265656e7472616e637947756172643a207265656e7472616e742063616c6c00\n        /* \"#utility.yul\":9388:9406   */\n      0x44\n      dup3\n      add\n        /* \"#utility.yul\":9381:9442   */\n      mstore\n        /* \"#utility.yul\":9459:9477   */\n      0x64\n      add\n        /* \"@openzeppelin/contracts/security/ReentrancyGuard.sol\":2317:2380  require(_status != _ENTERED, \"ReentrancyGuard: reentrant call\") */\n      tag_73\n        /* \"#utility.yul\":9302:9483   */\n      jump\n        /* \"@openzeppelin/contracts/security/ReentrancyGuard.sol\":2317:2380  require(_status != _ENTERED, \"ReentrancyGuard: reentrant call\") */\n    tag_306:\n        /* \"@openzeppelin/contracts/security/ReentrancyGuard.sol\":1744:1745  2 */\n      0x02\n        /* \"@openzeppelin/contracts/security/ReentrancyGuard.sol\":2455:2462  _status */\n      0x00\n        /* \"@openzeppelin/contracts/security/ReentrancyGuard.sol\":2455:2473  _status = _ENTERED */\n      swap1\n      dup2\n      sstore\n        /* \"contracts/Market.sol\":9789:9805  pairsInfo[_pair] */\n      dup3\n      dup2\n      mstore\n        /* \"contracts/Market.sol\":9789:9798  pairsInfo */\n      0x0a\n        /* \"contracts/Market.sol\":9789:9805  pairsInfo[_pair] */\n      0x20\n      mstore\n      0x40\n      swap1\n      keccak256\n        /* \"contracts/Market.sol\":9789:9813  pairsInfo[_pair].settled */\n      0x04\n      add\n      sload\n      0xff\n      and\n        /* \"contracts/Market.sol\":9786:9851  if(pairsInfo[_pair].settled){... */\n      iszero\n      tag_309\n      jumpi\n      pop\n        /* \"contracts/Market.sol\":9835:9840  false */\n      0x00\n        /* \"contracts/Market.sol\":9828:9840  return false */\n      jump(tag_75)\n        /* \"contracts/Market.sol\":9786:9851  if(pairsInfo[_pair].settled){... */\n    tag_309:\n        /* \"contracts/Market.sol\":9860:9874  address winner */\n      0x00\n        /* \"contracts/Market.sol\":9884:9901  address affiliate */\n      dup1\n        /* \"contracts/Market.sol\":9911:9928  uint256 winAmount */\n      0x00\n        /* \"contracts/Market.sol\":9938:9955  uint256 vigAmount */\n      dup1\n        /* \"contracts/Market.sol\":9968:9974  status */\n      sload(0x03)\n        /* \"contracts/Market.sol\":9978:9979  1 */\n      0x01\n        /* \"contracts/Market.sol\":9968:9979  status == 1 */\n      eq\n        /* \"contracts/Market.sol\":9965:10699  if(status == 1){... */\n      iszero\n      tag_310\n      jumpi\n        /* \"contracts/Market.sol\":10003:10038  betsInfo[pairsInfo[_pair].betHashA] */\n      0x00\n        /* \"contracts/Market.sol\":10012:10028  pairsInfo[_pair] */\n      dup7\n      dup2\n      mstore\n        /* \"contracts/Market.sol\":10012:10021  pairsInfo */\n      0x0a\n        /* \"contracts/Market.sol\":10012:10028  pairsInfo[_pair] */\n      0x20\n      swap1\n      dup2\n      mstore\n      0x40\n      dup1\n      dup4\n      keccak256\n        /* \"contracts/Market.sol\":10012:10037  pairsInfo[_pair].betHashA */\n      sload\n        /* \"contracts/Market.sol\":10003:10038  betsInfo[pairsInfo[_pair].betHashA] */\n      dup4\n      mstore\n        /* \"contracts/Market.sol\":10003:10011  betsInfo */\n      0x08\n        /* \"contracts/Market.sol\":10003:10038  betsInfo[pairsInfo[_pair].betHashA] */\n      dup3\n      mstore\n      swap2\n      dup3\n      swap1\n      keccak256\n        /* \"contracts/Market.sol\":10003:10045  betsInfo[pairsInfo[_pair].betHashA].better */\n      sload\n        /* \"contracts/Market.sol\":10133:10142  app.vig() */\n      dup3\n      mload\n      shl(0xe0, 0x55c4a8bf)\n      dup2\n      mstore\n      swap3\n      mload\n      sub(shl(0xa0, 0x01), 0x01)\n        /* \"contracts/Market.sol\":10003:10045  betsInfo[pairsInfo[_pair].betHashA].better */\n      swap2\n      dup3\n      and\n      swap8\n      pop\n        /* \"contracts/Market.sol\":10146:10149  100 */\n      0x64\n      swap4\n        /* \"contracts/Market.sol\":10133:10136  app */\n      immutable(\"0x911a39fbf665a24ad3b6efc185d4b936bbda1900793ae2f7c00f4d18bdd96685\")\n        /* \"contracts/Market.sol\":10133:10140  app.vig */\n      swap1\n      swap3\n      and\n      swap3\n      0x55c4a8bf\n      swap3\n        /* \"contracts/Market.sol\":10133:10142  app.vig() */\n      0x04\n      dup1\n      dup3\n      add\n      swap4\n      swap2\n      dup3\n      swap1\n      sub\n      add\n      dup2\n        /* \"contracts/Market.sol\":10133:10140  app.vig */\n      dup7\n        /* \"contracts/Market.sol\":10133:10142  app.vig() */\n      dup1\n      extcodesize\n      iszero\n      dup1\n      iszero\n      tag_311\n      jumpi\n      0x00\n      dup1\n      revert\n    tag_311:\n      pop\n      gas\n      staticcall\n      iszero\n      dup1\n      iszero\n      tag_313\n      jumpi\n      returndatasize\n      0x00\n      dup1\n      returndatacopy\n      revert(0x00, returndatasize)\n    tag_313:\n      pop\n      pop\n      pop\n      pop\n      mload(0x40)\n      returndatasize\n      not(0x1f)\n      0x1f\n      dup3\n      add\n      and\n      dup3\n      add\n      dup1\n      0x40\n      mstore\n      pop\n      dup2\n      add\n      swap1\n      tag_314\n      swap2\n      swap1\n      tag_82\n      jump\t// in\n    tag_314:\n        /* \"contracts/Market.sol\":10127:10142  100 - app.vig() */\n      tag_315\n      swap1\n        /* \"contracts/Market.sol\":10127:10130  100 */\n      0x64\n        /* \"contracts/Market.sol\":10127:10142  100 - app.vig() */\n      tag_88\n      jump\t// in\n    tag_315:\n        /* \"contracts/Market.sol\":10099:10115  pairsInfo[_pair] */\n      0x00\n      dup9\n      dup2\n      mstore\n        /* \"contracts/Market.sol\":10099:10108  pairsInfo */\n      0x0a\n        /* \"contracts/Market.sol\":10099:10115  pairsInfo[_pair] */\n      0x20\n      mstore\n      0x40\n      swap1\n      keccak256\n        /* \"contracts/Market.sol\":10099:10123  pairsInfo[_pair].amountB */\n      0x03\n      add\n      sload\n        /* \"contracts/Market.sol\":10099:10143  pairsInfo[_pair].amountB * (100 - app.vig()) */\n      tag_316\n      swap2\n      swap1\n      tag_175\n      jump\t// in\n    tag_316:\n        /* \"contracts/Market.sol\":10099:10149  pairsInfo[_pair].amountB * (100 - app.vig()) / 100 */\n      tag_317\n      swap2\n      swap1\n      tag_177\n      jump\t// in\n    tag_317:\n        /* \"contracts/Market.sol\":10071:10087  pairsInfo[_pair] */\n      0x00\n      dup8\n      dup2\n      mstore\n        /* \"contracts/Market.sol\":10071:10080  pairsInfo */\n      0x0a\n        /* \"contracts/Market.sol\":10071:10087  pairsInfo[_pair] */\n      0x20\n      mstore\n      0x40\n      swap1\n      keccak256\n        /* \"contracts/Market.sol\":10071:10095  pairsInfo[_pair].amountA */\n      0x02\n      add\n      sload\n        /* \"contracts/Market.sol\":10071:10150  pairsInfo[_pair].amountA + (pairsInfo[_pair].amountB * (100 - app.vig()) / 100) */\n      tag_318\n      swap2\n      swap1\n      tag_230\n      jump\t// in\n    tag_318:\n        /* \"contracts/Market.sol\":10059:10150  winAmount = pairsInfo[_pair].amountA + (pairsInfo[_pair].amountB * (100 - app.vig()) / 100) */\n      swap2\n      pop\n        /* \"contracts/Market.sol\":10215:10218  100 */\n      0x64\n        /* \"contracts/Market.sol\":10203:10206  app */\n      immutable(\"0x911a39fbf665a24ad3b6efc185d4b936bbda1900793ae2f7c00f4d18bdd96685\")\n      sub(shl(0xa0, 0x01), 0x01)\n        /* \"contracts/Market.sol\":10203:10210  app.vig */\n      and\n      0x55c4a8bf\n        /* \"contracts/Market.sol\":10203:10212  app.vig() */\n      mload(0x40)\n      dup2\n      0xffffffff\n      and\n      0xe0\n      shl\n      dup2\n      mstore\n      0x04\n      add\n      0x20\n      mload(0x40)\n      dup1\n      dup4\n      sub\n      dup2\n      dup7\n      dup1\n      extcodesize\n      iszero\n      dup1\n      iszero\n      tag_319\n      jumpi\n      0x00\n      dup1\n      revert\n    tag_319:\n      pop\n      gas\n      staticcall\n      iszero\n      dup1\n      iszero\n      tag_321\n      jumpi\n      returndatasize\n      0x00\n      dup1\n      returndatacopy\n      revert(0x00, returndatasize)\n    tag_321:\n      pop\n      pop\n      pop\n      pop\n      mload(0x40)\n      returndatasize\n      not(0x1f)\n      0x1f\n      dup3\n      add\n      and\n      dup3\n      add\n      dup1\n      0x40\n      mstore\n      pop\n      dup2\n      add\n      swap1\n      tag_322\n      swap2\n      swap1\n      tag_82\n      jump\t// in\n    tag_322:\n        /* \"contracts/Market.sol\":10176:10192  pairsInfo[_pair] */\n      0x00\n      dup9\n      dup2\n      mstore\n        /* \"contracts/Market.sol\":10176:10185  pairsInfo */\n      0x0a\n        /* \"contracts/Market.sol\":10176:10192  pairsInfo[_pair] */\n      0x20\n      mstore\n      0x40\n      swap1\n      keccak256\n        /* \"contracts/Market.sol\":10176:10200  pairsInfo[_pair].amountB */\n      0x03\n      add\n      sload\n        /* \"contracts/Market.sol\":10176:10212  pairsInfo[_pair].amountB * app.vig() */\n      tag_323\n      swap2\n      swap1\n      tag_175\n      jump\t// in\n    tag_323:\n        /* \"contracts/Market.sol\":10176:10218  pairsInfo[_pair].amountB * app.vig() / 100 */\n      tag_324\n      swap2\n      swap1\n      tag_177\n      jump\t// in\n    tag_324:\n        /* \"contracts/Market.sol\":10244:10279  betsInfo[pairsInfo[_pair].betHashA] */\n      0x00\n        /* \"contracts/Market.sol\":10253:10269  pairsInfo[_pair] */\n      dup8\n      dup2\n      mstore\n        /* \"contracts/Market.sol\":10253:10262  pairsInfo */\n      0x0a\n        /* \"contracts/Market.sol\":10253:10269  pairsInfo[_pair] */\n      0x20\n      swap1\n      dup2\n      mstore\n      0x40\n      dup1\n      dup4\n      keccak256\n        /* \"contracts/Market.sol\":10253:10278  pairsInfo[_pair].betHashA */\n      sload\n        /* \"contracts/Market.sol\":10244:10279  betsInfo[pairsInfo[_pair].betHashA] */\n      dup4\n      mstore\n        /* \"contracts/Market.sol\":10244:10252  betsInfo */\n      0x08\n        /* \"contracts/Market.sol\":10244:10279  betsInfo[pairsInfo[_pair].betHashA] */\n      swap1\n      swap2\n      mstore\n      swap1\n      keccak256\n        /* \"contracts/Market.sol\":10244:10289  betsInfo[pairsInfo[_pair].betHashA].affiliate */\n      0x01\n      add\n      sload\n      sub(shl(0xa0, 0x01), 0x01)\n      and\n      swap4\n      pop\n        /* \"contracts/Market.sol\":10164:10218  vigAmount = pairsInfo[_pair].amountB * app.vig() / 100 */\n      swap1\n      pop\n        /* \"contracts/Market.sol\":9965:10699  if(status == 1){... */\n      jump(tag_341)\n    tag_310:\n        /* \"contracts/Market.sol\":10317:10323  status */\n      sload(0x03)\n        /* \"contracts/Market.sol\":10327:10328  2 */\n      0x02\n        /* \"contracts/Market.sol\":10317:10328  status == 2 */\n      eq\n        /* \"contracts/Market.sol\":10314:10699  if(status == 2){... */\n      iszero\n      tag_326\n      jumpi\n        /* \"contracts/Market.sol\":10352:10387  betsInfo[pairsInfo[_pair].betHashB] */\n      0x00\n        /* \"contracts/Market.sol\":10361:10377  pairsInfo[_pair] */\n      dup7\n      dup2\n      mstore\n        /* \"contracts/Market.sol\":10361:10370  pairsInfo */\n      0x0a\n        /* \"contracts/Market.sol\":10361:10377  pairsInfo[_pair] */\n      0x20\n      swap1\n      dup2\n      mstore\n      0x40\n      dup1\n      dup4\n      keccak256\n        /* \"contracts/Market.sol\":10361:10386  pairsInfo[_pair].betHashB */\n      0x01\n      add\n      sload\n        /* \"contracts/Market.sol\":10352:10387  betsInfo[pairsInfo[_pair].betHashB] */\n      dup4\n      mstore\n        /* \"contracts/Market.sol\":10352:10360  betsInfo */\n      0x08\n        /* \"contracts/Market.sol\":10352:10387  betsInfo[pairsInfo[_pair].betHashB] */\n      dup3\n      mstore\n      swap2\n      dup3\n      swap1\n      keccak256\n        /* \"contracts/Market.sol\":10352:10394  betsInfo[pairsInfo[_pair].betHashB].better */\n      sload\n        /* \"contracts/Market.sol\":10482:10491  app.vig() */\n      dup3\n      mload\n      shl(0xe0, 0x55c4a8bf)\n      dup2\n      mstore\n      swap3\n      mload\n      sub(shl(0xa0, 0x01), 0x01)\n        /* \"contracts/Market.sol\":10352:10394  betsInfo[pairsInfo[_pair].betHashB].better */\n      swap2\n      dup3\n      and\n      swap8\n      pop\n        /* \"contracts/Market.sol\":10495:10498  100 */\n      0x64\n      swap4\n        /* \"contracts/Market.sol\":10482:10485  app */\n      immutable(\"0x911a39fbf665a24ad3b6efc185d4b936bbda1900793ae2f7c00f4d18bdd96685\")\n        /* \"contracts/Market.sol\":10482:10489  app.vig */\n      swap1\n      swap3\n      and\n      swap3\n      0x55c4a8bf\n      swap3\n        /* \"contracts/Market.sol\":10482:10491  app.vig() */\n      0x04\n      dup1\n      dup3\n      add\n      swap4\n      swap2\n      dup3\n      swap1\n      sub\n      add\n      dup2\n        /* \"contracts/Market.sol\":10482:10489  app.vig */\n      dup7\n        /* \"contracts/Market.sol\":10482:10491  app.vig() */\n      dup1\n      extcodesize\n      iszero\n      dup1\n      iszero\n      tag_327\n      jumpi\n      0x00\n      dup1\n      revert\n    tag_327:\n      pop\n      gas\n      staticcall\n      iszero\n      dup1\n      iszero\n      tag_329\n      jumpi\n      returndatasize\n      0x00\n      dup1\n      returndatacopy\n      revert(0x00, returndatasize)\n    tag_329:\n      pop\n      pop\n      pop\n      pop\n      mload(0x40)\n      returndatasize\n      not(0x1f)\n      0x1f\n      dup3\n      add\n      and\n      dup3\n      add\n      dup1\n      0x40\n      mstore\n      pop\n      dup2\n      add\n      swap1\n      tag_330\n      swap2\n      swap1\n      tag_82\n      jump\t// in\n    tag_330:\n        /* \"contracts/Market.sol\":10476:10491  100 - app.vig() */\n      tag_331\n      swap1\n        /* \"contracts/Market.sol\":10476:10479  100 */\n      0x64\n        /* \"contracts/Market.sol\":10476:10491  100 - app.vig() */\n      tag_88\n      jump\t// in\n    tag_331:\n        /* \"contracts/Market.sol\":10448:10464  pairsInfo[_pair] */\n      0x00\n      dup9\n      dup2\n      mstore\n        /* \"contracts/Market.sol\":10448:10457  pairsInfo */\n      0x0a\n        /* \"contracts/Market.sol\":10448:10464  pairsInfo[_pair] */\n      0x20\n      mstore\n      0x40\n      swap1\n      keccak256\n        /* \"contracts/Market.sol\":10448:10472  pairsInfo[_pair].amountA */\n      0x02\n      add\n      sload\n        /* \"contracts/Market.sol\":10448:10492  pairsInfo[_pair].amountA * (100 - app.vig()) */\n      tag_332\n      swap2\n      swap1\n      tag_175\n      jump\t// in\n    tag_332:\n        /* \"contracts/Market.sol\":10448:10498  pairsInfo[_pair].amountA * (100 - app.vig()) / 100 */\n      tag_333\n      swap2\n      swap1\n      tag_177\n      jump\t// in\n    tag_333:\n        /* \"contracts/Market.sol\":10420:10436  pairsInfo[_pair] */\n      0x00\n      dup8\n      dup2\n      mstore\n        /* \"contracts/Market.sol\":10420:10429  pairsInfo */\n      0x0a\n        /* \"contracts/Market.sol\":10420:10436  pairsInfo[_pair] */\n      0x20\n      mstore\n      0x40\n      swap1\n      keccak256\n        /* \"contracts/Market.sol\":10420:10444  pairsInfo[_pair].amountB */\n      0x03\n      add\n      sload\n        /* \"contracts/Market.sol\":10420:10499  pairsInfo[_pair].amountB + (pairsInfo[_pair].amountA * (100 - app.vig()) / 100) */\n      tag_334\n      swap2\n      swap1\n      tag_230\n      jump\t// in\n    tag_334:\n        /* \"contracts/Market.sol\":10408:10499  winAmount = pairsInfo[_pair].amountB + (pairsInfo[_pair].amountA * (100 - app.vig()) / 100) */\n      swap2\n      pop\n        /* \"contracts/Market.sol\":10564:10567  100 */\n      0x64\n        /* \"contracts/Market.sol\":10552:10555  app */\n      immutable(\"0x911a39fbf665a24ad3b6efc185d4b936bbda1900793ae2f7c00f4d18bdd96685\")\n      sub(shl(0xa0, 0x01), 0x01)\n        /* \"contracts/Market.sol\":10552:10559  app.vig */\n      and\n      0x55c4a8bf\n        /* \"contracts/Market.sol\":10552:10561  app.vig() */\n      mload(0x40)\n      dup2\n      0xffffffff\n      and\n      0xe0\n      shl\n      dup2\n      mstore\n      0x04\n      add\n      0x20\n      mload(0x40)\n      dup1\n      dup4\n      sub\n      dup2\n      dup7\n      dup1\n      extcodesize\n      iszero\n      dup1\n      iszero\n      tag_335\n      jumpi\n      0x00\n      dup1\n      revert\n    tag_335:\n      pop\n      gas\n      staticcall\n      iszero\n      dup1\n      iszero\n      tag_337\n      jumpi\n      returndatasize\n      0x00\n      dup1\n      returndatacopy\n      revert(0x00, returndatasize)\n    tag_337:\n      pop\n      pop\n      pop\n      pop\n      mload(0x40)\n      returndatasize\n      not(0x1f)\n      0x1f\n      dup3\n      add\n      and\n      dup3\n      add\n      dup1\n      0x40\n      mstore\n      pop\n      dup2\n      add\n      swap1\n      tag_338\n      swap2\n      swap1\n      tag_82\n      jump\t// in\n    tag_338:\n        /* \"contracts/Market.sol\":10525:10541  pairsInfo[_pair] */\n      0x00\n      dup9\n      dup2\n      mstore\n        /* \"contracts/Market.sol\":10525:10534  pairsInfo */\n      0x0a\n        /* \"contracts/Market.sol\":10525:10541  pairsInfo[_pair] */\n      0x20\n      mstore\n      0x40\n      swap1\n      keccak256\n        /* \"contracts/Market.sol\":10525:10549  pairsInfo[_pair].amountA */\n      0x02\n      add\n      sload\n        /* \"contracts/Market.sol\":10525:10561  pairsInfo[_pair].amountA * app.vig() */\n      tag_339\n      swap2\n      swap1\n      tag_175\n      jump\t// in\n    tag_339:\n        /* \"contracts/Market.sol\":10525:10567  pairsInfo[_pair].amountA * app.vig() / 100 */\n      tag_340\n      swap2\n      swap1\n      tag_177\n      jump\t// in\n    tag_340:\n        /* \"contracts/Market.sol\":10593:10628  betsInfo[pairsInfo[_pair].betHashB] */\n      0x00\n        /* \"contracts/Market.sol\":10602:10618  pairsInfo[_pair] */\n      dup8\n      dup2\n      mstore\n        /* \"contracts/Market.sol\":10602:10611  pairsInfo */\n      0x0a\n        /* \"contracts/Market.sol\":10602:10618  pairsInfo[_pair] */\n      0x20\n      swap1\n      dup2\n      mstore\n      0x40\n      dup1\n      dup4\n      keccak256\n        /* \"contracts/Market.sol\":10602:10627  pairsInfo[_pair].betHashB */\n      0x01\n      swap1\n      dup2\n      add\n      sload\n        /* \"contracts/Market.sol\":10593:10628  betsInfo[pairsInfo[_pair].betHashB] */\n      dup5\n      mstore\n        /* \"contracts/Market.sol\":10593:10601  betsInfo */\n      0x08\n        /* \"contracts/Market.sol\":10593:10628  betsInfo[pairsInfo[_pair].betHashB] */\n      swap1\n      swap3\n      mstore\n      swap1\n      swap2\n      keccak256\n        /* \"contracts/Market.sol\":10593:10638  betsInfo[pairsInfo[_pair].betHashB].affiliate */\n      add\n      sload\n      sub(shl(0xa0, 0x01), 0x01)\n      and\n      swap4\n      pop\n        /* \"contracts/Market.sol\":10513:10567  vigAmount = pairsInfo[_pair].amountA * app.vig() / 100 */\n      swap1\n      pop\n        /* \"contracts/Market.sol\":10314:10699  if(status == 2){... */\n      jump(tag_341)\n    tag_326:\n        /* \"contracts/Market.sol\":10683:10688  false */\n      0x00\n        /* \"contracts/Market.sol\":10676:10688  return false */\n      swap5\n      pop\n      pop\n      pop\n      pop\n      pop\n      jump(tag_75)\n        /* \"contracts/Market.sol\":10314:10699  if(status == 2){... */\n    tag_341:\n      sub(shl(0xa0, 0x01), 0x01)\n        /* \"contracts/Market.sol\":10711:10734  affiliate == address(0) */\n      dup4\n      and\n        /* \"contracts/Market.sol\":10708:10785  if(affiliate == address(0)){... */\n      tag_342\n      jumpi\n        /* \"contracts/Market.sol\":10761:10764  app */\n      immutable(\"0x911a39fbf665a24ad3b6efc185d4b936bbda1900793ae2f7c00f4d18bdd96685\")\n      sub(shl(0xa0, 0x01), 0x01)\n        /* \"contracts/Market.sol\":10761:10772  app.ecoAddr */\n      and\n      0x09953b2f\n        /* \"contracts/Market.sol\":10761:10774  app.ecoAddr() */\n      mload(0x40)\n      dup2\n      0xffffffff\n      and\n      0xe0\n      shl\n      dup2\n      mstore\n      0x04\n      add\n      0x20\n      mload(0x40)\n      dup1\n      dup4\n      sub\n      dup2\n      dup7\n      dup1\n      extcodesize\n      iszero\n      dup1\n      iszero\n      tag_343\n      jumpi\n      0x00\n      dup1\n      revert\n    tag_343:\n      pop\n      gas\n      staticcall\n      iszero\n      dup1\n      iszero\n      tag_345\n      jumpi\n      returndatasize\n      0x00\n      dup1\n      returndatacopy\n      revert(0x00, returndatasize)\n    tag_345:\n      pop\n      pop\n      pop\n      pop\n      mload(0x40)\n      returndatasize\n      not(0x1f)\n      0x1f\n      dup3\n      add\n      and\n      dup3\n      add\n      dup1\n      0x40\n      mstore\n      pop\n      dup2\n      add\n      swap1\n      tag_346\n      swap2\n      swap1\n      tag_118\n      jump\t// in\n    tag_346:\n        /* \"contracts/Market.sol\":10749:10774  affiliate = app.ecoAddr() */\n      swap3\n      pop\n        /* \"contracts/Market.sol\":10708:10785  if(affiliate == address(0)){... */\n    tag_342:\n      sub(shl(0xa0, 0x01), 0x01)\n        /* \"contracts/Market.sol\":10794:10805  bal[winner] */\n      dup5\n      and\n      0x00\n      swap1\n      dup2\n      mstore\n        /* \"contracts/Market.sol\":10794:10797  bal */\n      0x07\n        /* \"contracts/Market.sol\":10794:10805  bal[winner] */\n      0x20\n      mstore\n      0x40\n      dup2\n      keccak256\n        /* \"contracts/Market.sol\":10794:10818  bal[winner] += winAmount */\n      dup1\n      sload\n        /* \"contracts/Market.sol\":10809:10818  winAmount */\n      dup5\n      swap3\n        /* \"contracts/Market.sol\":10794:10805  bal[winner] */\n      swap1\n        /* \"contracts/Market.sol\":10794:10818  bal[winner] += winAmount */\n      tag_347\n      swap1\n        /* \"contracts/Market.sol\":10809:10818  winAmount */\n      dup5\n      swap1\n        /* \"contracts/Market.sol\":10794:10818  bal[winner] += winAmount */\n      tag_230\n      jump\t// in\n    tag_347:\n      swap3\n      pop\n      pop\n      dup2\n      swap1\n      sstore\n      pop\n        /* \"contracts/Market.sol\":10876:10879  100 */\n      0x64\n        /* \"contracts/Market.sol\":10863:10866  app */\n      immutable(\"0x911a39fbf665a24ad3b6efc185d4b936bbda1900793ae2f7c00f4d18bdd96685\")\n      sub(shl(0xa0, 0x01), 0x01)\n        /* \"contracts/Market.sol\":10863:10871  app.hVig */\n      and\n      0x6a0ccd9d\n        /* \"contracts/Market.sol\":10863:10873  app.hVig() */\n      mload(0x40)\n      dup2\n      0xffffffff\n      and\n      0xe0\n      shl\n      dup2\n      mstore\n      0x04\n      add\n      0x20\n      mload(0x40)\n      dup1\n      dup4\n      sub\n      dup2\n      dup7\n      dup1\n      extcodesize\n      iszero\n      dup1\n      iszero\n      tag_348\n      jumpi\n      0x00\n      dup1\n      revert\n    tag_348:\n      pop\n      gas\n      staticcall\n      iszero\n      dup1\n      iszero\n      tag_350\n      jumpi\n      returndatasize\n      0x00\n      dup1\n      returndatacopy\n      revert(0x00, returndatasize)\n    tag_350:\n      pop\n      pop\n      pop\n      pop\n      mload(0x40)\n      returndatasize\n      not(0x1f)\n      0x1f\n      dup3\n      add\n      and\n      dup3\n      add\n      dup1\n      0x40\n      mstore\n      pop\n      dup2\n      add\n      swap1\n      tag_351\n      swap2\n      swap1\n      tag_82\n      jump\t// in\n    tag_351:\n        /* \"contracts/Market.sol\":10851:10873  vigAmount * app.hVig() */\n      tag_352\n      swap1\n        /* \"contracts/Market.sol\":10851:10860  vigAmount */\n      dup4\n        /* \"contracts/Market.sol\":10851:10873  vigAmount * app.hVig() */\n      tag_175\n      jump\t// in\n    tag_352:\n        /* \"contracts/Market.sol\":10851:10879  vigAmount * app.hVig() / 100 */\n      tag_353\n      swap2\n      swap1\n      tag_177\n      jump\t// in\n    tag_353:\n        /* \"contracts/Market.sol\":10828:10831  bal */\n      0x07\n        /* \"contracts/Market.sol\":10828:10847  bal[app.holdAddr()] */\n      0x00\n        /* \"contracts/Market.sol\":10832:10835  app */\n      immutable(\"0x911a39fbf665a24ad3b6efc185d4b936bbda1900793ae2f7c00f4d18bdd96685\")\n      sub(shl(0xa0, 0x01), 0x01)\n        /* \"contracts/Market.sol\":10832:10844  app.holdAddr */\n      and\n      0xb7640a54\n        /* \"contracts/Market.sol\":10832:10846  app.holdAddr() */\n      mload(0x40)\n      dup2\n      0xffffffff\n      and\n      0xe0\n      shl\n      dup2\n      mstore\n      0x04\n      add\n      0x20\n      mload(0x40)\n      dup1\n      dup4\n      sub\n      dup2\n      dup7\n      dup1\n      extcodesize\n      iszero\n      dup1\n      iszero\n      tag_354\n      jumpi\n      0x00\n      dup1\n      revert\n    tag_354:\n      pop\n      gas\n      staticcall\n      iszero\n      dup1\n      iszero\n      tag_356\n      jumpi\n      returndatasize\n      0x00\n      dup1\n      returndatacopy\n      revert(0x00, returndatasize)\n    tag_356:\n      pop\n      pop\n      pop\n      pop\n      mload(0x40)\n      returndatasize\n      not(0x1f)\n      0x1f\n      dup3\n      add\n      and\n      dup3\n      add\n      dup1\n      0x40\n      mstore\n      pop\n      dup2\n      add\n      swap1\n      tag_357\n      swap2\n      swap1\n      tag_118\n      jump\t// in\n    tag_357:\n      sub(shl(0xa0, 0x01), 0x01)\n        /* \"contracts/Market.sol\":10828:10847  bal[app.holdAddr()] */\n      and\n      sub(shl(0xa0, 0x01), 0x01)\n      and\n      dup2\n      mstore\n      0x20\n      add\n      swap1\n      dup2\n      mstore\n      0x20\n      add\n      0x00\n      keccak256\n      0x00\n        /* \"contracts/Market.sol\":10828:10879  bal[app.holdAddr()] += vigAmount * app.hVig() / 100 */\n      dup3\n      dup3\n      sload\n      tag_358\n      swap2\n      swap1\n      tag_230\n      jump\t// in\n    tag_358:\n      swap3\n      pop\n      pop\n      dup2\n      swap1\n      sstore\n      pop\n        /* \"contracts/Market.sol\":10936:10939  100 */\n      0x64\n        /* \"contracts/Market.sol\":10923:10926  app */\n      immutable(\"0x911a39fbf665a24ad3b6efc185d4b936bbda1900793ae2f7c00f4d18bdd96685\")\n      sub(shl(0xa0, 0x01), 0x01)\n        /* \"contracts/Market.sol\":10923:10931  app.eVig */\n      and\n      0x28576d45\n        /* \"contracts/Market.sol\":10923:10933  app.eVig() */\n      mload(0x40)\n      dup2\n      0xffffffff\n      and\n      0xe0\n      shl\n      dup2\n      mstore\n      0x04\n      add\n      0x20\n      mload(0x40)\n      dup1\n      dup4\n      sub\n      dup2\n      dup7\n      dup1\n      extcodesize\n      iszero\n      dup1\n      iszero\n      tag_359\n      jumpi\n      0x00\n      dup1\n      revert\n    tag_359:\n      pop\n      gas\n      staticcall\n      iszero\n      dup1\n      iszero\n      tag_361\n      jumpi\n      returndatasize\n      0x00\n      dup1\n      returndatacopy\n      revert(0x00, returndatasize)\n    tag_361:\n      pop\n      pop\n      pop\n      pop\n      mload(0x40)\n      returndatasize\n      not(0x1f)\n      0x1f\n      dup3\n      add\n      and\n      dup3\n      add\n      dup1\n      0x40\n      mstore\n      pop\n      dup2\n      add\n      swap1\n      tag_362\n      swap2\n      swap1\n      tag_82\n      jump\t// in\n    tag_362:\n        /* \"contracts/Market.sol\":10911:10933  vigAmount * app.eVig() */\n      tag_363\n      swap1\n        /* \"contracts/Market.sol\":10911:10920  vigAmount */\n      dup4\n        /* \"contracts/Market.sol\":10911:10933  vigAmount * app.eVig() */\n      tag_175\n      jump\t// in\n    tag_363:\n        /* \"contracts/Market.sol\":10911:10939  vigAmount * app.eVig() / 100 */\n      tag_364\n      swap2\n      swap1\n      tag_177\n      jump\t// in\n    tag_364:\n        /* \"contracts/Market.sol\":10889:10892  bal */\n      0x07\n        /* \"contracts/Market.sol\":10889:10907  bal[app.ecoAddr()] */\n      0x00\n        /* \"contracts/Market.sol\":10893:10896  app */\n      immutable(\"0x911a39fbf665a24ad3b6efc185d4b936bbda1900793ae2f7c00f4d18bdd96685\")\n      sub(shl(0xa0, 0x01), 0x01)\n        /* \"contracts/Market.sol\":10893:10904  app.ecoAddr */\n      and\n      0x09953b2f\n        /* \"contracts/Market.sol\":10893:10906  app.ecoAddr() */\n      mload(0x40)\n      dup2\n      0xffffffff\n      and\n      0xe0\n      shl\n      dup2\n      mstore\n      0x04\n      add\n      0x20\n      mload(0x40)\n      dup1\n      dup4\n      sub\n      dup2\n      dup7\n      dup1\n      extcodesize\n      iszero\n      dup1\n      iszero\n      tag_365\n      jumpi\n      0x00\n      dup1\n      revert\n    tag_365:\n      pop\n      gas\n      staticcall\n      iszero\n      dup1\n      iszero\n      tag_367\n      jumpi\n      returndatasize\n      0x00\n      dup1\n      returndatacopy\n      revert(0x00, returndatasize)\n    tag_367:\n      pop\n      pop\n      pop\n      pop\n      mload(0x40)\n      returndatasize\n      not(0x1f)\n      0x1f\n      dup3\n      add\n      and\n      dup3\n      add\n      dup1\n      0x40\n      mstore\n      pop\n      dup2\n      add\n      swap1\n      tag_368\n      swap2\n      swap1\n      tag_118\n      jump\t// in\n    tag_368:\n      sub(shl(0xa0, 0x01), 0x01)\n        /* \"contracts/Market.sol\":10889:10907  bal[app.ecoAddr()] */\n      and\n      sub(shl(0xa0, 0x01), 0x01)\n      and\n      dup2\n      mstore\n      0x20\n      add\n      swap1\n      dup2\n      mstore\n      0x20\n      add\n      0x00\n      keccak256\n      0x00\n        /* \"contracts/Market.sol\":10889:10939  bal[app.ecoAddr()] += vigAmount * app.eVig() / 100 */\n      dup3\n      dup3\n      sload\n      tag_369\n      swap2\n      swap1\n      tag_230\n      jump\t// in\n    tag_369:\n      swap3\n      pop\n      pop\n      dup2\n      swap1\n      sstore\n      pop\n        /* \"contracts/Market.sol\":10992:10995  100 */\n      0x64\n        /* \"contracts/Market.sol\":10979:10982  app */\n      immutable(\"0x911a39fbf665a24ad3b6efc185d4b936bbda1900793ae2f7c00f4d18bdd96685\")\n      sub(shl(0xa0, 0x01), 0x01)\n        /* \"contracts/Market.sol\":10979:10987  app.aVig */\n      and\n      0x54cd1a5c\n        /* \"contracts/Market.sol\":10979:10989  app.aVig() */\n      mload(0x40)\n      dup2\n      0xffffffff\n      and\n      0xe0\n      shl\n      dup2\n      mstore\n      0x04\n      add\n      0x20\n      mload(0x40)\n      dup1\n      dup4\n      sub\n      dup2\n      dup7\n      dup1\n      extcodesize\n      iszero\n      dup1\n      iszero\n      tag_370\n      jumpi\n      0x00\n      dup1\n      revert\n    tag_370:\n      pop\n      gas\n      staticcall\n      iszero\n      dup1\n      iszero\n      tag_372\n      jumpi\n      returndatasize\n      0x00\n      dup1\n      returndatacopy\n      revert(0x00, returndatasize)\n    tag_372:\n      pop\n      pop\n      pop\n      pop\n      mload(0x40)\n      returndatasize\n      not(0x1f)\n      0x1f\n      dup3\n      add\n      and\n      dup3\n      add\n      dup1\n      0x40\n      mstore\n      pop\n      dup2\n      add\n      swap1\n      tag_373\n      swap2\n      swap1\n      tag_82\n      jump\t// in\n    tag_373:\n        /* \"contracts/Market.sol\":10967:10989  vigAmount * app.aVig() */\n      tag_374\n      swap1\n        /* \"contracts/Market.sol\":10967:10976  vigAmount */\n      dup4\n        /* \"contracts/Market.sol\":10967:10989  vigAmount * app.aVig() */\n      tag_175\n      jump\t// in\n    tag_374:\n        /* \"contracts/Market.sol\":10967:10995  vigAmount * app.aVig() / 100 */\n      tag_375\n      swap2\n      swap1\n      tag_177\n      jump\t// in\n    tag_375:\n      sub(shl(0xa0, 0x01), 0x01)\n        /* \"contracts/Market.sol\":10949:10963  bal[affiliate] */\n      dup5\n      and\n      0x00\n      swap1\n      dup2\n      mstore\n        /* \"contracts/Market.sol\":10949:10952  bal */\n      0x07\n        /* \"contracts/Market.sol\":10949:10963  bal[affiliate] */\n      0x20\n      mstore\n      0x40\n      dup2\n      keccak256\n        /* \"contracts/Market.sol\":10949:10995  bal[affiliate] += vigAmount * app.aVig() / 100 */\n      dup1\n      sload\n        /* \"contracts/Market.sol\":10949:10963  bal[affiliate] */\n      swap1\n      swap2\n      swap1\n        /* \"contracts/Market.sol\":10949:10995  bal[affiliate] += vigAmount * app.aVig() / 100 */\n      tag_376\n      swap1\n      dup5\n      swap1\n      tag_230\n      jump\t// in\n    tag_376:\n      swap1\n      swap2\n      sstore\n      pop\n      pop\n      pop\n        /* \"contracts/Market.sol\":11005:11021  pairsInfo[_pair] */\n      0x00\n      swap5\n      dup6\n      mstore\n      pop\n      pop\n        /* \"contracts/Market.sol\":11005:11014  pairsInfo */\n      0x0a\n        /* \"contracts/Market.sol\":11005:11021  pairsInfo[_pair] */\n      0x20\n      mstore\n      pop\n      pop\n      0x40\n      dup2\n      keccak256\n        /* \"contracts/Market.sol\":11005:11029  pairsInfo[_pair].settled */\n      0x04\n      add\n        /* \"contracts/Market.sol\":11005:11036  pairsInfo[_pair].settled = true */\n      dup1\n      sload\n      not(0xff)\n      and\n        /* \"contracts/Market.sol\":11032:11036  true */\n      0x01\n        /* \"contracts/Market.sol\":11005:11036  pairsInfo[_pair].settled = true */\n      swap1\n      dup2\n      or\n      swap1\n      swap2\n      sstore\n        /* \"@openzeppelin/contracts/security/ReentrancyGuard.sol\":2628:2650  _status = _NOT_ENTERED */\n      swap1\n      dup2\n      swap1\n      sstore\n        /* \"contracts/Market.sol\":11032:11036  true */\n      swap1\n        /* \"contracts/Market.sol\":9705:11064  function _settlePair(bytes32 _pair) private nonReentrant returns(bool) {... */\n      jump\t// out\n        /* \"contracts/Market.sol\":9347:9695  function _cancelPair(bytes32 _pair) private {... */\n    tag_132:\n        /* \"contracts/Market.sol\":9401:9416  address betterA */\n      0x00\n        /* \"contracts/Market.sol\":9428:9444  pairsInfo[_pair] */\n      dup2\n      dup2\n      mstore\n        /* \"contracts/Market.sol\":9428:9437  pairsInfo */\n      0x0a\n        /* \"contracts/Market.sol\":9428:9444  pairsInfo[_pair] */\n      0x20\n      swap1\n      dup2\n      mstore\n      0x40\n      dup1\n      dup4\n      keccak256\n        /* \"contracts/Market.sol\":9428:9453  pairsInfo[_pair].betHashA */\n      dup1\n      sload\n        /* \"contracts/Market.sol\":9419:9454  betsInfo[pairsInfo[_pair].betHashA] */\n      dup5\n      mstore\n        /* \"contracts/Market.sol\":9419:9427  betsInfo */\n      0x08\n        /* \"contracts/Market.sol\":9419:9454  betsInfo[pairsInfo[_pair].betHashA] */\n      dup4\n      mstore\n      dup2\n      dup5\n      keccak256\n        /* \"contracts/Market.sol\":9419:9461  betsInfo[pairsInfo[_pair].betHashA].better */\n      sload\n      0x01\n        /* \"contracts/Market.sol\":9498:9523  pairsInfo[_pair].betHashB */\n      dup3\n      add\n      sload\n        /* \"contracts/Market.sol\":9489:9524  betsInfo[pairsInfo[_pair].betHashB] */\n      dup6\n      mstore\n      dup3\n      dup6\n      keccak256\n        /* \"contracts/Market.sol\":9489:9531  betsInfo[pairsInfo[_pair].betHashB].better */\n      sload\n        /* \"contracts/Market.sol\":9557:9581  pairsInfo[_pair].amountA */\n      0x02\n      swap1\n      swap3\n      add\n      sload\n      sub(shl(0xa0, 0x01), 0x01)\n        /* \"contracts/Market.sol\":9419:9461  betsInfo[pairsInfo[_pair].betHashA].better */\n      swap2\n      dup3\n      and\n        /* \"contracts/Market.sol\":9541:9553  bal[betterA] */\n      dup1\n      dup8\n      mstore\n        /* \"contracts/Market.sol\":9541:9544  bal */\n      0x07\n        /* \"contracts/Market.sol\":9541:9553  bal[betterA] */\n      swap1\n      swap6\n      mstore\n      swap3\n      dup6\n      keccak256\n        /* \"contracts/Market.sol\":9541:9581  bal[betterA] += pairsInfo[_pair].amountA */\n      dup1\n      sload\n        /* \"contracts/Market.sol\":9419:9461  betsInfo[pairsInfo[_pair].betHashA].better */\n      swap5\n      swap6\n        /* \"contracts/Market.sol\":9489:9531  betsInfo[pairsInfo[_pair].betHashB].better */\n      swap2\n      swap1\n      swap3\n      and\n      swap4\n        /* \"contracts/Market.sol\":9541:9581  bal[betterA] += pairsInfo[_pair].amountA */\n      tag_378\n      swap1\n        /* \"contracts/Market.sol\":9557:9581  pairsInfo[_pair].amountA */\n      dup5\n      swap1\n        /* \"contracts/Market.sol\":9541:9581  bal[betterA] += pairsInfo[_pair].amountA */\n      tag_230\n      jump\t// in\n    tag_378:\n      swap1\n      swap2\n      sstore\n      pop\n      pop\n        /* \"contracts/Market.sol\":9607:9623  pairsInfo[_pair] */\n      0x00\n      dup4\n      dup2\n      mstore\n        /* \"contracts/Market.sol\":9607:9616  pairsInfo */\n      0x0a\n        /* \"contracts/Market.sol\":9607:9623  pairsInfo[_pair] */\n      0x20\n      swap1\n      dup2\n      mstore\n      0x40\n      dup1\n      dup4\n      keccak256\n        /* \"contracts/Market.sol\":9607:9631  pairsInfo[_pair].amountB */\n      0x03\n      add\n      sload\n      sub(shl(0xa0, 0x01), 0x01)\n        /* \"contracts/Market.sol\":9591:9603  bal[betterB] */\n      dup6\n      and\n      dup5\n      mstore\n        /* \"contracts/Market.sol\":9591:9594  bal */\n      0x07\n        /* \"contracts/Market.sol\":9591:9603  bal[betterB] */\n      swap1\n      swap3\n      mstore\n      dup3\n      keccak256\n        /* \"contracts/Market.sol\":9591:9631  bal[betterB] += pairsInfo[_pair].amountB */\n      dup1\n      sload\n        /* \"contracts/Market.sol\":9607:9631  pairsInfo[_pair].amountB */\n      swap2\n      swap3\n        /* \"contracts/Market.sol\":9591:9603  bal[betterB] */\n      swap1\n      swap2\n        /* \"contracts/Market.sol\":9591:9631  bal[betterB] += pairsInfo[_pair].amountB */\n      tag_379\n      swap1\n        /* \"contracts/Market.sol\":9607:9631  pairsInfo[_pair].amountB */\n      dup5\n      swap1\n        /* \"contracts/Market.sol\":9591:9631  bal[betterB] += pairsInfo[_pair].amountB */\n      tag_230\n      jump\t// in\n    tag_379:\n      swap1\n      swap2\n      sstore\n      pop\n      pop\n      pop\n        /* \"contracts/Market.sol\":9641:9657  pairsInfo[_pair] */\n      0x00\n      swap2\n      dup3\n      mstore\n      pop\n        /* \"contracts/Market.sol\":9641:9650  pairsInfo */\n      0x0a\n        /* \"contracts/Market.sol\":9641:9657  pairsInfo[_pair] */\n      0x20\n      mstore\n      0x40\n      swap1\n      keccak256\n        /* \"contracts/Market.sol\":9641:9665  pairsInfo[_pair].settled */\n      0x04\n      add\n        /* \"contracts/Market.sol\":9641:9672  pairsInfo[_pair].settled = true */\n      dup1\n      sload\n      not(0xff)\n      and\n        /* \"contracts/Market.sol\":9668:9672  true */\n      0x01\n        /* \"contracts/Market.sol\":9641:9672  pairsInfo[_pair].settled = true */\n      or\n      swap1\n      sstore\n        /* \"contracts/Market.sol\":9347:9695  function _cancelPair(bytes32 _pair) private {... */\n      jump\t// out\n        /* \"contracts/Market.sol\":11070:11877  function _createBet(... */\n    tag_178:\n        /* \"contracts/Market.sol\":11269:11276  bytes32 */\n      0x00\n        /* \"contracts/Market.sol\":11292:11307  bytes32 betHash */\n      dup1\n        /* \"contracts/Market.sol\":11317:11323  uint i */\n      0x00\n        /* \"contracts/Market.sol\":11337:11686  while(i >= 0){... */\n    tag_381:\n        /* \"contracts/Market.sol\":11474:11478  bets */\n      0x05\n        /* \"contracts/Market.sol\":11474:11485  bets.length */\n      sload\n        /* \"contracts/Market.sol\":11418:11425  _better */\n      dup10\n      swap1\n        /* \"contracts/Market.sol\":11451:11455  this */\n      address\n      swap1\n        /* \"contracts/Market.sol\":11492:11493  i */\n      dup4\n      swap1\n        /* \"contracts/Market.sol\":11474:11489  bets.length + 1 */\n      tag_383\n      swap1\n        /* \"contracts/Market.sol\":11488:11489  1 */\n      0x01\n        /* \"contracts/Market.sol\":11474:11489  bets.length + 1 */\n      tag_230\n      jump\t// in\n    tag_383:\n        /* \"contracts/Market.sol\":11474:11493  bets.length + 1 + i */\n      tag_384\n      swap2\n      swap1\n      tag_230\n      jump\t// in\n    tag_384:\n        /* \"contracts/Market.sol\":11384:11574  abi.encodePacked(... */\n      mload(0x40)\n      not(0xffffffffffffffffffffffff)\n        /* \"#utility.yul\":2447:2449   */\n      0x60\n        /* \"#utility.yul\":2443:2458   */\n      swap5\n      dup6\n      shl\n        /* \"#utility.yul\":2439:2463   */\n      dup2\n      and\n        /* \"contracts/Market.sol\":11384:11574  abi.encodePacked(... */\n      0x20\n      dup4\n      add\n        /* \"#utility.yul\":2427:2464   */\n      mstore\n        /* \"#utility.yul\":2498:2513   */\n      swap3\n      swap1\n      swap4\n      shl\n        /* \"#utility.yul\":2494:2518   */\n      swap1\n      swap2\n      and\n        /* \"#utility.yul\":2480:2492   */\n      0x34\n      dup4\n      add\n        /* \"#utility.yul\":2473:2519   */\n      mstore\n        /* \"#utility.yul\":2535:2547   */\n      0x48\n      dup3\n      add\n        /* \"#utility.yul\":2528:2556   */\n      mstore\n        /* \"contracts/Market.sol\":11511:11526  block.timestamp */\n      timestamp\n        /* \"#utility.yul\":2572:2584   */\n      0x68\n      dup3\n      add\n        /* \"#utility.yul\":2565:2593   */\n      mstore\n        /* \"contracts/Market.sol\":11544:11560  block.difficulty */\n      difficulty\n        /* \"#utility.yul\":2609:2622   */\n      0x88\n      dup3\n      add\n        /* \"#utility.yul\":2602:2631   */\n      mstore\n        /* \"#utility.yul\":2647:2660   */\n      0xa8\n      add\n        /* \"contracts/Market.sol\":11384:11574  abi.encodePacked(... */\n      0x40\n      dup1\n      mload\n      not(0x1f)\n      dup2\n      dup5\n      sub\n      add\n      dup2\n      mstore\n      swap2\n      dup2\n      mstore\n        /* \"contracts/Market.sol\":11374:11575  keccak256(abi.encodePacked(... */\n      dup2\n      mload\n        /* \"contracts/Market.sol\":11384:11574  abi.encodePacked(... */\n      0x20\n        /* \"contracts/Market.sol\":11374:11575  keccak256(abi.encodePacked(... */\n      swap3\n      dup4\n      add\n      keccak256\n        /* \"contracts/Market.sol\":11592:11609  betsInfo[betHash] */\n      0x00\n      dup2\n      dup2\n      mstore\n        /* \"contracts/Market.sol\":11592:11600  betsInfo */\n      0x08\n        /* \"contracts/Market.sol\":11592:11609  betsInfo[betHash] */\n      swap1\n      swap4\n      mstore\n      swap2\n      keccak256\n        /* \"contracts/Market.sol\":11592:11615  betsInfo[betHash].stake */\n      0x02\n      add\n      sload\n        /* \"contracts/Market.sol\":11374:11575  keccak256(abi.encodePacked(... */\n      swap1\n      swap3\n      pop\n        /* \"contracts/Market.sol\":11589:11659  if(betsInfo[betHash].stake == 0){... */\n      tag_387\n      jumpi\n        /* \"contracts/Market.sol\":11639:11644  break */\n      jump(tag_382)\n        /* \"contracts/Market.sol\":11589:11659  if(betsInfo[betHash].stake == 0){... */\n    tag_387:\n        /* \"contracts/Market.sol\":11672:11675  i++ */\n      dup1\n      tag_388\n      dup2\n      tag_70\n      jump\t// in\n    tag_388:\n      swap2\n      pop\n      pop\n        /* \"contracts/Market.sol\":11337:11686  while(i >= 0){... */\n      jump(tag_381)\n    tag_382:\n      pop\n        /* \"contracts/Market.sol\":11715:11777  MarketBet(_better, _affiliate, _stake, _matched, _odds, _side) */\n      0x40\n      dup1\n      mload\n      0xc0\n      dup2\n      add\n      dup3\n      mstore\n      sub(shl(0xa0, 0x01), 0x01)\n      swap10\n      dup11\n      and\n      dup1\n      dup3\n      mstore\n      swap9\n      dup11\n      and\n      0x20\n      dup1\n      dup4\n      add\n      swap2\n      dup3\n      mstore\n      dup3\n      dup5\n      add\n      swap10\n      dup11\n      mstore\n      0x60\n      dup4\n      add\n      swap9\n      dup10\n      mstore\n      0x80\n      dup4\n      add\n      swap8\n      dup9\n      mstore\n      0xa0\n      dup4\n      add\n      swap7\n      dup8\n      mstore\n      0x00\n        /* \"contracts/Market.sol\":11695:11712  betsInfo[betHash] */\n      dup6\n      dup2\n      mstore\n        /* \"contracts/Market.sol\":11695:11703  betsInfo */\n      0x08\n        /* \"contracts/Market.sol\":11695:11712  betsInfo[betHash] */\n      dup3\n      mstore\n      dup5\n      dup2\n      keccak256\n        /* \"contracts/Market.sol\":11695:11777  betsInfo[betHash] = MarketBet(_better, _affiliate, _stake, _matched, _odds, _side) */\n      swap4\n      mload\n      dup5\n      sload\n      swap1\n      dup15\n      and\n      not(sub(shl(0xa0, 0x01), 0x01))\n      swap2\n      dup3\n      and\n      or\n      dup6\n      sstore\n      swap3\n      mload\n      0x01\n      dup1\n      dup7\n      add\n      dup1\n      sload\n      swap3\n      swap1\n      swap16\n      and\n      swap2\n      swap1\n      swap5\n      and\n      or\n      swap1\n      swap13\n      sstore\n      swap9\n      mload\n      0x02\n      dup4\n      add\n      sstore\n      swap7\n      mload\n      0x03\n      dup3\n      add\n      sstore\n      swap5\n      mload\n      0x04\n      dup7\n      add\n      sstore\n      swap3\n      mload\n      0x05\n      swap5\n      dup6\n      add\n      sstore\n        /* \"contracts/Market.sol\":11787:11805  bets.push(betHash) */\n      dup4\n      sload\n      dup1\n      dup7\n      add\n      swap1\n      swap5\n      sstore\n      0x036b6384b5eca791c62761152d0c79bb0604c104a5fb6f4eb0703f3154bb3db0\n      swap1\n      swap4\n      add\n      dup4\n      swap1\n      sstore\n      pop\n        /* \"contracts/Market.sol\":11815:11832  userBets[_better] */\n      swap4\n      dup6\n      mstore\n        /* \"contracts/Market.sol\":11815:11823  userBets */\n      0x09\n        /* \"contracts/Market.sol\":11815:11832  userBets[_better] */\n      dup4\n      mstore\n      swap3\n      dup5\n      keccak256\n        /* \"contracts/Market.sol\":11815:11846  userBets[_better].push(betHash) */\n      dup1\n      sload\n      swap2\n      dup3\n      add\n      dup2\n      sstore\n      dup5\n      mstore\n      swap3\n      keccak256\n      swap1\n      swap2\n      add\n      dup2\n      swap1\n      sstore\n        /* \"contracts/Market.sol\":11695:11712  betsInfo[betHash] */\n      swap1\n        /* \"contracts/Market.sol\":11070:11877  function _createBet(... */\n      jump\t// out\n        /* \"contracts/Market.sol\":11883:12615  function _createPair(... */\n    tag_209:\n        /* \"contracts/Market.sol\":12041:12048  bytes32 */\n      0x00\n        /* \"contracts/Market.sol\":12064:12080  bytes32 pairHash */\n      dup1\n        /* \"contracts/Market.sol\":12090:12096  uint i */\n      0x00\n        /* \"contracts/Market.sol\":12110:12463  while(i >= 0){... */\n    tag_392:\n        /* \"contracts/Market.sol\":12246:12251  pairs */\n      0x04\n        /* \"contracts/Market.sol\":12246:12258  pairs.length */\n      sload\n        /* \"contracts/Market.sol\":12192:12201  _betHashA */\n      dup8\n      swap1\n        /* \"contracts/Market.sol\":12219:12228  _betHashB */\n      dup8\n      swap1\n        /* \"contracts/Market.sol\":12265:12266  i */\n      dup4\n      swap1\n        /* \"contracts/Market.sol\":12246:12262  pairs.length + 1 */\n      tag_394\n      swap1\n        /* \"contracts/Market.sol\":12261:12262  1 */\n      0x01\n        /* \"contracts/Market.sol\":12246:12262  pairs.length + 1 */\n      tag_230\n      jump\t// in\n    tag_394:\n        /* \"contracts/Market.sol\":12246:12266  pairs.length + 1 + i */\n      tag_395\n      swap2\n      swap1\n      tag_230\n      jump\t// in\n    tag_395:\n        /* \"contracts/Market.sol\":12158:12347  abi.encodePacked(... */\n      0x40\n      dup1\n      mload\n      0x20\n      dup2\n      add\n        /* \"#utility.yul\":2912:2931   */\n      swap5\n      swap1\n      swap5\n      mstore\n        /* \"#utility.yul\":2947:2959   */\n      dup4\n      add\n        /* \"#utility.yul\":2940:2968   */\n      swap2\n      swap1\n      swap2\n      mstore\n        /* \"#utility.yul\":2984:2996   */\n      0x60\n      dup3\n      add\n        /* \"#utility.yul\":2977:3005   */\n      mstore\n        /* \"contracts/Market.sol\":12284:12299  block.timestamp */\n      timestamp\n        /* \"#utility.yul\":3021:3033   */\n      0x80\n      dup3\n      add\n        /* \"#utility.yul\":3014:3042   */\n      mstore\n        /* \"contracts/Market.sol\":12317:12333  block.difficulty */\n      difficulty\n        /* \"#utility.yul\":3058:3071   */\n      0xa0\n      dup3\n      add\n        /* \"#utility.yul\":3051:3080   */\n      mstore\n        /* \"#utility.yul\":3096:3109   */\n      0xc0\n      add\n        /* \"contracts/Market.sol\":12158:12347  abi.encodePacked(... */\n      0x40\n      dup1\n      mload\n      not(0x1f)\n      dup2\n      dup5\n      sub\n      add\n      dup2\n      mstore\n      swap2\n      dup2\n      mstore\n        /* \"contracts/Market.sol\":12148:12348  keccak256(abi.encodePacked(... */\n      dup2\n      mload\n        /* \"contracts/Market.sol\":12158:12347  abi.encodePacked(... */\n      0x20\n        /* \"contracts/Market.sol\":12148:12348  keccak256(abi.encodePacked(... */\n      swap3\n      dup4\n      add\n      keccak256\n        /* \"contracts/Market.sol\":12365:12384  pairsInfo[pairHash] */\n      0x00\n      dup2\n      dup2\n      mstore\n        /* \"contracts/Market.sol\":12365:12374  pairsInfo */\n      0x0a\n        /* \"contracts/Market.sol\":12365:12384  pairsInfo[pairHash] */\n      swap1\n      swap4\n      mstore\n      swap2\n      keccak256\n        /* \"contracts/Market.sol\":12365:12392  pairsInfo[pairHash].amountA */\n      0x02\n      add\n      sload\n        /* \"contracts/Market.sol\":12148:12348  keccak256(abi.encodePacked(... */\n      swap1\n      swap3\n      pop\n        /* \"contracts/Market.sol\":12362:12436  if(pairsInfo[pairHash].amountA == 0){... */\n      tag_398\n      jumpi\n        /* \"contracts/Market.sol\":12416:12421  break */\n      jump(tag_393)\n        /* \"contracts/Market.sol\":12362:12436  if(pairsInfo[pairHash].amountA == 0){... */\n    tag_398:\n        /* \"contracts/Market.sol\":12449:12452  i++ */\n      dup1\n      tag_399\n      dup2\n      tag_70\n      jump\t// in\n    tag_399:\n      swap2\n      pop\n      pop\n        /* \"contracts/Market.sol\":12110:12463  while(i >= 0){... */\n      jump(tag_392)\n    tag_393:\n      pop\n        /* \"contracts/Market.sol\":12494:12553  MarketPair(_betHashA, _betHashB, _amountA, _amountB, false) */\n      0x40\n      dup1\n      mload\n      0xa0\n      dup2\n      add\n      dup3\n      mstore\n      swap7\n      dup8\n      mstore\n      0x20\n      dup1\n      dup9\n      add\n      swap7\n      dup8\n      mstore\n      dup8\n      dup3\n      add\n      swap6\n      dup7\n      mstore\n      0x60\n      dup9\n      add\n      swap5\n      dup6\n      mstore\n      0x00\n      0x80\n      dup10\n      add\n      dup2\n      dup2\n      mstore\n        /* \"contracts/Market.sol\":12472:12491  pairsInfo[pairHash] */\n      dup5\n      dup3\n      mstore\n        /* \"contracts/Market.sol\":12472:12481  pairsInfo */\n      0x0a\n        /* \"contracts/Market.sol\":12472:12491  pairsInfo[pairHash] */\n      swap1\n      swap3\n      mstore\n      swap2\n      dup3\n      keccak256\n        /* \"contracts/Market.sol\":12472:12553  pairsInfo[pairHash] = MarketPair(_betHashA, _betHashB, _amountA, _amountB, false) */\n      swap8\n      mload\n      dup9\n      sstore\n      swap6\n      mload\n        /* \"contracts/Market.sol\":12494:12553  MarketPair(_betHashA, _betHashB, _amountA, _amountB, false) */\n      0x01\n        /* \"contracts/Market.sol\":12472:12553  pairsInfo[pairHash] = MarketPair(_betHashA, _betHashB, _amountA, _amountB, false) */\n      dup1\n      dup10\n      add\n      swap2\n      swap1\n      swap2\n      sstore\n      swap5\n      mload\n      0x02\n      dup9\n      add\n      sstore\n      swap3\n      mload\n      0x03\n      dup8\n      add\n      sstore\n      swap4\n      mload\n      0x04\n      swap6\n      dup7\n      add\n      dup1\n      sload\n      not(0xff)\n      and\n      swap2\n      iszero\n      iszero\n      swap2\n      swap1\n      swap2\n      or\n      swap1\n      sstore\n      pop\n        /* \"contracts/Market.sol\":12563:12583  pairs.push(pairHash) */\n      dup4\n      sload\n      swap2\n      dup3\n      add\n      dup5\n      sstore\n      swap3\n      swap1\n      swap3\n      mstore\n      0x8a35acfbc15ff81a39ae7d344fd709f28e8600b4aa8c65c6b64bfe7fe36bd19b\n      swap1\n      swap2\n      add\n      dup2\n      swap1\n      sstore\n        /* \"contracts/Market.sol\":12472:12491  pairsInfo[pairHash] */\n      swap1\n        /* \"contracts/Market.sol\":11883:12615  function _createPair(... */\n      jump\t// out\n        /* \"#utility.yul\":14:271   */\n    tag_21:\n        /* \"#utility.yul\":73:79   */\n      0x00\n        /* \"#utility.yul\":126:128   */\n      0x20\n        /* \"#utility.yul\":114:123   */\n      dup3\n        /* \"#utility.yul\":105:112   */\n      dup5\n        /* \"#utility.yul\":101:124   */\n      sub\n        /* \"#utility.yul\":97:129   */\n      slt\n        /* \"#utility.yul\":94:96   */\n      iszero\n      tag_403\n      jumpi\n        /* \"#utility.yul\":147:153   */\n      dup1\n        /* \"#utility.yul\":139:145   */\n      dup2\n        /* \"#utility.yul\":132:154   */\n      revert\n        /* \"#utility.yul\":94:96   */\n    tag_403:\n        /* \"#utility.yul\":191:200   */\n      dup2\n        /* \"#utility.yul\":178:201   */\n      calldataload\n        /* \"#utility.yul\":210:241   */\n      tag_404\n        /* \"#utility.yul\":235:240   */\n      dup2\n        /* \"#utility.yul\":210:241   */\n      tag_405\n      jump\t// in\n    tag_404:\n        /* \"#utility.yul\":260:265   */\n      swap4\n        /* \"#utility.yul\":84:271   */\n      swap3\n      pop\n      pop\n      pop\n      jump\t// out\n        /* \"#utility.yul\":276:537   */\n    tag_118:\n        /* \"#utility.yul\":346:352   */\n      0x00\n        /* \"#utility.yul\":399:401   */\n      0x20\n        /* \"#utility.yul\":387:396   */\n      dup3\n        /* \"#utility.yul\":378:385   */\n      dup5\n        /* \"#utility.yul\":374:397   */\n      sub\n        /* \"#utility.yul\":370:402   */\n      slt\n        /* \"#utility.yul\":367:369   */\n      iszero\n      tag_407\n      jumpi\n        /* \"#utility.yul\":420:426   */\n      dup1\n        /* \"#utility.yul\":412:418   */\n      dup2\n        /* \"#utility.yul\":405:427   */\n      revert\n        /* \"#utility.yul\":367:369   */\n    tag_407:\n        /* \"#utility.yul\":457:466   */\n      dup2\n        /* \"#utility.yul\":451:467   */\n      mload\n        /* \"#utility.yul\":476:507   */\n      tag_404\n        /* \"#utility.yul\":501:506   */\n      dup2\n        /* \"#utility.yul\":476:507   */\n      tag_405\n      jump\t// in\n        /* \"#utility.yul\":542:1282   */\n    tag_39:\n        /* \"#utility.yul\":643:649   */\n      0x00\n        /* \"#utility.yul\":651:657   */\n      dup1\n        /* \"#utility.yul\":659:665   */\n      0x00\n        /* \"#utility.yul\":667:673   */\n      dup1\n        /* \"#utility.yul\":675:681   */\n      0x00\n        /* \"#utility.yul\":683:689   */\n      dup1\n        /* \"#utility.yul\":736:739   */\n      0xc0\n        /* \"#utility.yul\":724:733   */\n      dup8\n        /* \"#utility.yul\":715:722   */\n      dup10\n        /* \"#utility.yul\":711:734   */\n      sub\n        /* \"#utility.yul\":707:740   */\n      slt\n        /* \"#utility.yul\":704:706   */\n      iszero\n      tag_410\n      jumpi\n        /* \"#utility.yul\":758:764   */\n      dup2\n        /* \"#utility.yul\":750:756   */\n      dup3\n        /* \"#utility.yul\":743:765   */\n      revert\n        /* \"#utility.yul\":704:706   */\n    tag_410:\n        /* \"#utility.yul\":802:811   */\n      dup7\n        /* \"#utility.yul\":789:812   */\n      calldataload\n        /* \"#utility.yul\":821:852   */\n      tag_411\n        /* \"#utility.yul\":846:851   */\n      dup2\n        /* \"#utility.yul\":821:852   */\n      tag_405\n      jump\t// in\n    tag_411:\n        /* \"#utility.yul\":871:876   */\n      swap6\n      pop\n        /* \"#utility.yul\":928:930   */\n      0x20\n        /* \"#utility.yul\":913:931   */\n      dup8\n      add\n        /* \"#utility.yul\":900:932   */\n      calldataload\n        /* \"#utility.yul\":941:974   */\n      tag_412\n        /* \"#utility.yul\":900:932   */\n      dup2\n        /* \"#utility.yul\":941:974   */\n      tag_405\n      jump\t// in\n    tag_412:\n        /* \"#utility.yul\":993:1000   */\n      swap5\n      pop\n        /* \"#utility.yul\":1047:1049   */\n      0x40\n        /* \"#utility.yul\":1032:1050   */\n      dup8\n      add\n        /* \"#utility.yul\":1019:1051   */\n      calldataload\n      swap4\n      pop\n        /* \"#utility.yul\":1098:1100   */\n      0x60\n        /* \"#utility.yul\":1083:1101   */\n      dup8\n      add\n        /* \"#utility.yul\":1070:1102   */\n      calldataload\n      swap3\n      pop\n        /* \"#utility.yul\":1149:1152   */\n      0x80\n        /* \"#utility.yul\":1134:1153   */\n      dup8\n      add\n        /* \"#utility.yul\":1121:1154   */\n      calldataload\n      swap2\n      pop\n        /* \"#utility.yul\":1206:1209   */\n      0xa0\n        /* \"#utility.yul\":1191:1210   */\n      dup8\n      add\n        /* \"#utility.yul\":1178:1211   */\n      calldataload\n        /* \"#utility.yul\":1220:1250   */\n      tag_413\n        /* \"#utility.yul\":1178:1211   */\n      dup2\n        /* \"#utility.yul\":1220:1250   */\n      tag_414\n      jump\t// in\n    tag_413:\n        /* \"#utility.yul\":1269:1276   */\n      dup1\n        /* \"#utility.yul\":1259:1276   */\n      swap2\n      pop\n      pop\n        /* \"#utility.yul\":694:1282   */\n      swap3\n      swap6\n      pop\n      swap3\n      swap6\n      pop\n      swap3\n      swap6\n      jump\t// out\n        /* \"#utility.yul\":1287:1542   */\n    tag_95:\n        /* \"#utility.yul\":1354:1360   */\n      0x00\n        /* \"#utility.yul\":1407:1409   */\n      0x20\n        /* \"#utility.yul\":1395:1404   */\n      dup3\n        /* \"#utility.yul\":1386:1393   */\n      dup5\n        /* \"#utility.yul\":1382:1405   */\n      sub\n        /* \"#utility.yul\":1378:1410   */\n      slt\n        /* \"#utility.yul\":1375:1377   */\n      iszero\n      tag_416\n      jumpi\n        /* \"#utility.yul\":1428:1434   */\n      dup1\n        /* \"#utility.yul\":1420:1426   */\n      dup2\n        /* \"#utility.yul\":1413:1435   */\n      revert\n        /* \"#utility.yul\":1375:1377   */\n    tag_416:\n        /* \"#utility.yul\":1465:1474   */\n      dup2\n        /* \"#utility.yul\":1459:1475   */\n      mload\n        /* \"#utility.yul\":1484:1512   */\n      tag_404\n        /* \"#utility.yul\":1506:1511   */\n      dup2\n        /* \"#utility.yul\":1484:1512   */\n      tag_414\n      jump\t// in\n        /* \"#utility.yul\":1547:1737   */\n    tag_32:\n        /* \"#utility.yul\":1606:1612   */\n      0x00\n        /* \"#utility.yul\":1659:1661   */\n      0x20\n        /* \"#utility.yul\":1647:1656   */\n      dup3\n        /* \"#utility.yul\":1638:1645   */\n      dup5\n        /* \"#utility.yul\":1634:1657   */\n      sub\n        /* \"#utility.yul\":1630:1662   */\n      slt\n        /* \"#utility.yul\":1627:1629   */\n      iszero\n      tag_419\n      jumpi\n        /* \"#utility.yul\":1680:1686   */\n      dup1\n        /* \"#utility.yul\":1672:1678   */\n      dup2\n        /* \"#utility.yul\":1665:1687   */\n      revert\n        /* \"#utility.yul\":1627:1629   */\n    tag_419:\n      pop\n        /* \"#utility.yul\":1708:1731   */\n      calldataload\n      swap2\n        /* \"#utility.yul\":1617:1737   */\n      swap1\n      pop\n      jump\t// out\n        /* \"#utility.yul\":1937:2131   */\n    tag_82:\n        /* \"#utility.yul\":2007:2013   */\n      0x00\n        /* \"#utility.yul\":2060:2062   */\n      0x20\n        /* \"#utility.yul\":2048:2057   */\n      dup3\n        /* \"#utility.yul\":2039:2046   */\n      dup5\n        /* \"#utility.yul\":2035:2058   */\n      sub\n        /* \"#utility.yul\":2031:2063   */\n      slt\n        /* \"#utility.yul\":2028:2030   */\n      iszero\n      tag_423\n      jumpi\n        /* \"#utility.yul\":2081:2087   */\n      dup1\n        /* \"#utility.yul\":2073:2079   */\n      dup2\n        /* \"#utility.yul\":2066:2088   */\n      revert\n        /* \"#utility.yul\":2028:2030   */\n    tag_423:\n      pop\n        /* \"#utility.yul\":2109:2125   */\n      mload\n      swap2\n        /* \"#utility.yul\":2018:2131   */\n      swap1\n      pop\n      jump\t// out\n        /* \"#utility.yul\":4892:6042   */\n    tag_24:\n        /* \"#utility.yul\":5117:5119   */\n      0x20\n        /* \"#utility.yul\":5169:5190   */\n      dup1\n      dup3\n      mstore\n        /* \"#utility.yul\":5239:5252   */\n      dup3\n      mload\n        /* \"#utility.yul\":5142:5160   */\n      dup3\n      dup3\n      add\n        /* \"#utility.yul\":5261:5283   */\n      dup2\n      swap1\n      mstore\n        /* \"#utility.yul\":5088:5092   */\n      0x00\n      swap2\n        /* \"#utility.yul\":5117:5119   */\n      swap1\n        /* \"#utility.yul\":5302:5304   */\n      0x40\n      swap1\n        /* \"#utility.yul\":5320:5338   */\n      dup2\n      dup6\n      add\n      swap1\n        /* \"#utility.yul\":5361:5376   */\n      dup7\n      dup5\n      add\n        /* \"#utility.yul\":5088:5092   */\n      dup6\n        /* \"#utility.yul\":5407:6016   */\n    tag_432:\n        /* \"#utility.yul\":5421:5427   */\n      dup3\n        /* \"#utility.yul\":5418:5419   */\n      dup2\n        /* \"#utility.yul\":5415:5428   */\n      lt\n        /* \"#utility.yul\":5407:6016   */\n      iszero\n      tag_434\n      jumpi\n        /* \"#utility.yul\":5480:5493   */\n      dup2\n      mload\n        /* \"#utility.yul\":5564:5573   */\n      dup1\n      mload\n      sub(shl(0xa0, 0x01), 0x01)\n        /* \"#utility.yul\":5560:5578   */\n      swap1\n      dup2\n      and\n        /* \"#utility.yul\":5548:5579   */\n      dup7\n      mstore\n        /* \"#utility.yul\":5623:5634   */\n      dup8\n      dup3\n      add\n        /* \"#utility.yul\":5617:5635   */\n      mload\n        /* \"#utility.yul\":5613:5640   */\n      and\n        /* \"#utility.yul\":5599:5611   */\n      dup8\n      dup7\n      add\n        /* \"#utility.yul\":5592:5641   */\n      mstore\n        /* \"#utility.yul\":5681:5692   */\n      dup6\n      dup2\n      add\n        /* \"#utility.yul\":5675:5693   */\n      mload\n        /* \"#utility.yul\":5661:5673   */\n      dup7\n      dup7\n      add\n        /* \"#utility.yul\":5654:5694   */\n      mstore\n        /* \"#utility.yul\":5717:5721   */\n      0x60\n        /* \"#utility.yul\":5761:5772   */\n      dup1\n      dup3\n      add\n        /* \"#utility.yul\":5755:5773   */\n      mload\n        /* \"#utility.yul\":5741:5753   */\n      swap1\n      dup7\n      add\n        /* \"#utility.yul\":5734:5774   */\n      mstore\n        /* \"#utility.yul\":5797:5801   */\n      0x80\n        /* \"#utility.yul\":5841:5852   */\n      dup1\n      dup3\n      add\n        /* \"#utility.yul\":5835:5853   */\n      mload\n        /* \"#utility.yul\":5821:5833   */\n      swap1\n      dup7\n      add\n        /* \"#utility.yul\":5814:5854   */\n      mstore\n        /* \"#utility.yul\":5524:5527   */\n      0xa0\n        /* \"#utility.yul\":5921:5932   */\n      swap1\n      dup2\n      add\n        /* \"#utility.yul\":5915:5933   */\n      mload\n        /* \"#utility.yul\":5901:5913   */\n      swap1\n      dup6\n      add\n        /* \"#utility.yul\":5894:5934   */\n      mstore\n        /* \"#utility.yul\":5963:5967   */\n      0xc0\n        /* \"#utility.yul\":5954:5968   */\n      swap1\n      swap4\n      add\n      swap3\n        /* \"#utility.yul\":5991:6006   */\n      swap1\n      dup6\n      add\n      swap1\n        /* \"#utility.yul\":5533:5534   */\n      0x01\n        /* \"#utility.yul\":5436:5445   */\n      add\n        /* \"#utility.yul\":5407:6016   */\n      jump(tag_432)\n    tag_434:\n      pop\n        /* \"#utility.yul\":6033:6036   */\n      swap2\n      swap8\n        /* \"#utility.yul\":5097:6042   */\n      swap7\n      pop\n      pop\n      pop\n      pop\n      pop\n      pop\n      pop\n      jump\t// out\n        /* \"#utility.yul\":8138:8463   */\n    tag_122:\n        /* \"#utility.yul\":8340:8342   */\n      0x20\n        /* \"#utility.yul\":8322:8343   */\n      dup1\n      dup3\n      mstore\n        /* \"#utility.yul\":8379:8380   */\n      0x02\n        /* \"#utility.yul\":8359:8377   */\n      swap1\n      dup3\n      add\n        /* \"#utility.yul\":8352:8381   */\n      mstore\n      shl(0xf0, 0x4d31)\n        /* \"#utility.yul\":8412:8414   */\n      0x40\n        /* \"#utility.yul\":8397:8415   */\n      dup3\n      add\n        /* \"#utility.yul\":8390:8422   */\n      mstore\n        /* \"#utility.yul\":8454:8456   */\n      0x60\n        /* \"#utility.yul\":8439:8457   */\n      add\n      swap1\n        /* \"#utility.yul\":8312:8463   */\n      jump\t// out\n        /* \"#utility.yul\":10001:10129   */\n    tag_230:\n        /* \"#utility.yul\":10041:10044   */\n      0x00\n        /* \"#utility.yul\":10072:10073   */\n      dup3\n        /* \"#utility.yul\":10068:10074   */\n      not\n        /* \"#utility.yul\":10065:10066   */\n      dup3\n        /* \"#utility.yul\":10062:10075   */\n      gt\n        /* \"#utility.yul\":10059:10061   */\n      iszero\n      tag_450\n      jumpi\n        /* \"#utility.yul\":10078:10096   */\n      tag_450\n      tag_451\n      jump\t// in\n    tag_450:\n      pop\n        /* \"#utility.yul\":10114:10123   */\n      add\n      swap1\n        /* \"#utility.yul\":10049:10129   */\n      jump\t// out\n        /* \"#utility.yul\":10134:10351   */\n    tag_177:\n        /* \"#utility.yul\":10174:10175   */\n      0x00\n        /* \"#utility.yul\":10200:10201   */\n      dup3\n        /* \"#utility.yul\":10190:10192   */\n      tag_453\n      jumpi\n      shl(0xe0, 0x4e487b71)\n        /* \"#utility.yul\":10225:10256   */\n      dup2\n      mstore\n        /* \"#utility.yul\":10279:10283   */\n      0x12\n        /* \"#utility.yul\":10276:10277   */\n      0x04\n        /* \"#utility.yul\":10269:10284   */\n      mstore\n        /* \"#utility.yul\":10307:10311   */\n      0x24\n        /* \"#utility.yul\":10232:10233   */\n      dup2\n        /* \"#utility.yul\":10297:10312   */\n      revert\n        /* \"#utility.yul\":10190:10192   */\n    tag_453:\n      pop\n        /* \"#utility.yul\":10336:10345   */\n      div\n      swap1\n        /* \"#utility.yul\":10180:10351   */\n      jump\t// out\n        /* \"#utility.yul\":10356:10524   */\n    tag_175:\n        /* \"#utility.yul\":10396:10403   */\n      0x00\n        /* \"#utility.yul\":10462:10463   */\n      dup2\n        /* \"#utility.yul\":10458:10459   */\n      0x00\n        /* \"#utility.yul\":10454:10460   */\n      not\n        /* \"#utility.yul\":10450:10464   */\n      div\n        /* \"#utility.yul\":10447:10448   */\n      dup4\n        /* \"#utility.yul\":10444:10465   */\n      gt\n        /* \"#utility.yul\":10439:10440   */\n      dup3\n        /* \"#utility.yul\":10432:10441   */\n      iszero\n        /* \"#utility.yul\":10425:10442   */\n      iszero\n        /* \"#utility.yul\":10421:10466   */\n      and\n        /* \"#utility.yul\":10418:10420   */\n      iszero\n      tag_456\n      jumpi\n        /* \"#utility.yul\":10469:10487   */\n      tag_456\n      tag_451\n      jump\t// in\n    tag_456:\n      pop\n        /* \"#utility.yul\":10509:10518   */\n      mul\n      swap1\n        /* \"#utility.yul\":10408:10524   */\n      jump\t// out\n        /* \"#utility.yul\":10529:10654   */\n    tag_88:\n        /* \"#utility.yul\":10569:10573   */\n      0x00\n        /* \"#utility.yul\":10597:10598   */\n      dup3\n        /* \"#utility.yul\":10594:10595   */\n      dup3\n        /* \"#utility.yul\":10591:10599   */\n      lt\n        /* \"#utility.yul\":10588:10590   */\n      iszero\n      tag_459\n      jumpi\n        /* \"#utility.yul\":10602:10620   */\n      tag_459\n      tag_451\n      jump\t// in\n    tag_459:\n      pop\n        /* \"#utility.yul\":10639:10648   */\n      sub\n      swap1\n        /* \"#utility.yul\":10578:10654   */\n      jump\t// out\n        /* \"#utility.yul\":10659:10794   */\n    tag_70:\n        /* \"#utility.yul\":10698:10701   */\n      0x00\n      not(0x00)\n        /* \"#utility.yul\":10719:10736   */\n      dup3\n      eq\n        /* \"#utility.yul\":10716:10718   */\n      iszero\n      tag_462\n      jumpi\n        /* \"#utility.yul\":10739:10757   */\n      tag_462\n      tag_451\n      jump\t// in\n    tag_462:\n      pop\n        /* \"#utility.yul\":10786:10787   */\n      0x01\n        /* \"#utility.yul\":10775:10788   */\n      add\n      swap1\n        /* \"#utility.yul\":10706:10794   */\n      jump\t// out\n        /* \"#utility.yul\":10799:10926   */\n    tag_451:\n        /* \"#utility.yul\":10860:10870   */\n      0x4e487b71\n        /* \"#utility.yul\":10855:10858   */\n      0xe0\n        /* \"#utility.yul\":10851:10871   */\n      shl\n        /* \"#utility.yul\":10848:10849   */\n      0x00\n        /* \"#utility.yul\":10841:10872   */\n      mstore\n        /* \"#utility.yul\":10891:10895   */\n      0x11\n        /* \"#utility.yul\":10888:10889   */\n      0x04\n        /* \"#utility.yul\":10881:10896   */\n      mstore\n        /* \"#utility.yul\":10915:10919   */\n      0x24\n        /* \"#utility.yul\":10912:10913   */\n      0x00\n        /* \"#utility.yul\":10905:10920   */\n      revert\n        /* \"#utility.yul\":10931:11062   */\n    tag_405:\n      sub(shl(0xa0, 0x01), 0x01)\n        /* \"#utility.yul\":11006:11037   */\n      dup2\n      and\n        /* \"#utility.yul\":10996:11038   */\n      dup2\n      eq\n        /* \"#utility.yul\":10986:10988   */\n      tag_295\n      jumpi\n        /* \"#utility.yul\":11052:11053   */\n      0x00\n        /* \"#utility.yul\":11049:11050   */\n      dup1\n        /* \"#utility.yul\":11042:11054   */\n      revert\n        /* \"#utility.yul\":11067:11185   */\n    tag_414:\n        /* \"#utility.yul\":11153:11158   */\n      dup1\n        /* \"#utility.yul\":11146:11159   */\n      iszero\n        /* \"#utility.yul\":11139:11160   */\n      iszero\n        /* \"#utility.yul\":11132:11137   */\n      dup2\n        /* \"#utility.yul\":11129:11161   */\n      eq\n        /* \"#utility.yul\":11119:11121   */\n      tag_295\n      jumpi\n        /* \"#utility.yul\":11175:11176   */\n      0x00\n        /* \"#utility.yul\":11172:11173   */\n      dup1\n        /* \"#utility.yul\":11165:11177   */\n      revert\n\n    auxdata: 0xa26469706673582212206e1d7790e9d2c92e64bb9d0fda9065c3273f630692a85c9020c0546f83b5baca64736f6c63430008040033\n}\n",
				"bytecode": {
					"linkReferences": {},
					"object": "60c0604052600060035560025460601b6001600160601b03191660a0523480156200002957600080fd5b50604051620026ea380380620026ea8339810160408190526200004c9162000102565b6001600081905580546001600160a01b03199081166001600160a01b0384161790915560028054339216821790556040805162966ed960e31b815290516304b376c891600480820192602092909190829003018186803b158015620000b057600080fd5b505afa158015620000c5573d6000803e3d6000fd5b505050506040513d601f19601f82011682018060405250810190620000eb919062000102565b60601b6001600160601b0319166080525062000132565b60006020828403121562000114578081fd5b81516001600160a01b03811681146200012b578182fd5b9392505050565b60805160601c60a05160601c61250e620001dc6000396000818161068d015281816107f6015281816109a001528181610b7b015281816112b50152818161143b0152818161169801528181611767015281816118980152818161196701528181611a6e01528181611b3301528181611bdc01528181611ca501528181611d4e0152611e1701526000818161038b0152818161049a015281816109130152610a87015261250e6000f3fe608060405234801561001057600080fd5b50600436106100a95760003560e01c806378d65b2f1161007157806378d65b2f1461012a5780637d7f92321461013d5780638df8280014610150578063be9a655514610163578063c87b31711461016b578063f8b2cb4f1461017e57600080fd5b8063200d2ed2146100ae5780632d56657d146100ca57806351cff8d9146100ea578063675f65371461010d5780636bfefd6b14610122575b600080fd5b6100b760035481565b6040519081526020015b60405180910390f35b6100dd6100d8366004612285565b6101a7565b6040516100c19190612376565b6100fd6100f8366004612285565b6102fb565b60405190151581526020016100c1565b61012061011b366004612346565b61059f565b005b6100fd610674565b6100b76101383660046122c4565b6107de565b61012061014b366004612346565b611102565b6100fd61015e366004612346565b61129c565b6100fd611422565b610120610179366004612346565b611522565b6100b761018c366004612285565b6001600160a01b031660009081526007602052604090205490565b6001600160a01b038116600090815260096020908152604080832080548251818502810185019093528083526060948594909392919083018282801561020c57602002820191906000526020600020905b8154815260200190600101908083116101f8575b50506005549394506000925050505b818110156102f1576008600084838151811061024757634e487b7160e01b600052603260045260246000fd5b6020908102919091018101518252818101929092526040908101600020815160c08101835281546001600160a01b0390811682526001830154169381019390935260028101549183019190915260038101546060830152600481015460808301526005015460a082015284518590839081106102d357634e487b7160e01b600052603260045260246000fd5b602002602001018190525080806102e990612484565b91505061021b565b5091949350505050565b6000600260005414156103555760405162461bcd60e51b815260206004820152601f60248201527f5265656e7472616e637947756172643a207265656e7472616e742063616c6c0060448201526064015b60405180910390fd5b600260009081556001600160a01b03838116825260076020526040918290205491516370a0823160e01b815230600482015282917f000000000000000000000000000000000000000000000000000000000000000016906370a082319060240160206040518083038186803b1580156103cd57600080fd5b505afa1580156103e1573d6000803e3d6000fd5b505050506040513d601f19601f82011682018060405250810190610405919061235e565b101580156104135750600081115b6104445760405162461bcd60e51b8152602060048201526002602482015261269960f11b604482015260640161034c565b6001600160a01b0383166000908152600760205260408120805483929061046c90849061246d565b909155505060405163a9059cbb60e01b81526001600160a01b038481166004830152602482018390526000917f00000000000000000000000000000000000000000000000000000000000000009091169063a9059cbb90604401602060405180830381600087803b1580156104e057600080fd5b505af11580156104f4573d6000803e3d6000fd5b505050506040513d601f19601f82011682018060405250810190610518919061232a565b90508061054c5760405162461bcd60e51b81526020600482015260026024820152614d3360f01b604482015260640161034c565b604080516001600160a01b0386168152602081018490527f884edad9ce6fa2440d8a54cc123490eb96d2768479d49ff9c7366125a9424364910160405180910390a16001925050505b6001600055919050565b6000818152600b60209081526040808320805482518185028101850190935280835291929091908301828280156105f557602002820191906000526020600020905b8154815260200190600101908083116105e1575b505083519394506000925050505b8181101561064e5761063b83828151811061062e57634e487b7160e01b600052603260045260246000fd5b60200260200101516115ce565b508061064681612484565b915050610603565b50336000908152600760205260409020541561066f5761066d336102fb565b505b505050565b6001546000906001600160a01b031633148061073157507f00000000000000000000000000000000000000000000000000000000000000006001600160a01b031663ce606ee06040518163ffffffff1660e01b815260040160206040518083038186803b1580156106e457600080fd5b505afa1580156106f8573d6000803e3d6000fd5b505050506040513d601f19601f8201168201806040525081019061071c91906122a8565b6001600160a01b0316336001600160a01b0316145b8061074657506002546001600160a01b031633145b6107625760405162461bcd60e51b815260040161034c906123fa565b600354158061077357506003546004145b156107d85760045460005b818110156107cc576107ba600482815481106107aa57634e487b7160e01b600052603260045260246000fd5b9060005260206000200154611f12565b806107c481612484565b91505061077e565b50506003805550600190565b50600090565b60405163332daccf60e01b81523360048201526000907f00000000000000000000000000000000000000000000000000000000000000006001600160a01b03169063332daccf9060240160206040518083038186803b15801561084057600080fd5b505afa158015610854573d6000803e3d6000fd5b505050506040513d601f19601f82011682018060405250810190610878919061232a565b1580156108855750600354155b6108b65760405162461bcd60e51b815260206004820152600260248201526109a760f31b604482015260640161034c565b82600114806108c55750826002145b6108f65760405162461bcd60e51b81526020600482015260026024820152614d3960f01b604482015260640161034c565b604051636eb1769f60e11b815233600482015230602482015285907f00000000000000000000000000000000000000000000000000000000000000006001600160a01b03169063dd62ed3e9060440160206040518083038186803b15801561095d57600080fd5b505afa158015610971573d6000803e3d6000fd5b505050506040513d601f19601f82011682018060405250810190610995919061235e565b10158015610a3357507f00000000000000000000000000000000000000000000000000000000000000006001600160a01b031663375b3c0a6040518163ffffffff1660e01b815260040160206040518083038186803b1580156109f757600080fd5b505afa158015610a0b573d6000803e3d6000fd5b505050506040513d601f19601f82011682018060405250810190610a2f919061235e565b8510155b610a655760405162461bcd60e51b815260206004820152600360248201526204d31360ec1b604482015260640161034c565b6040516323b872dd60e01b8152336004820152306024820152604481018690527f00000000000000000000000000000000000000000000000000000000000000006001600160a01b0316906323b872dd90606401602060405180830381600087803b158015610ad357600080fd5b505af1158015610ae7573d6000803e3d6000fd5b505050506040513d601f19601f82011682018060405250810190610b0b919061232a565b610b3d5760405162461bcd60e51b81526020600482015260036024820152624d313160e81b604482015260640161034c565b6000610b6c88888884610b5160648b61246d565b610b5c8b606461244e565b610b66919061242e565b89611fcd565b6006549091501561106c57855b7f00000000000000000000000000000000000000000000000000000000000000006001600160a01b031663375b3c0a6040518163ffffffff1660e01b815260040160206040518083038186803b158015610bd257600080fd5b505afa158015610be6573d6000803e3d6000fd5b505050506040513d601f19601f82011682018060405250810190610c0a919061235e565b81106110665760008060005b600654811015610cbc57600060068281548110610c4357634e487b7160e01b600052603260045260246000fd5b906000526020600020015490506008600082815260200190815260200160002060050154891415610c745750610caa565b600081815260086020526040902060040154831015610ca85760008181526008602052604090206004015491935090915082905b505b80610cb481612484565b915050610c16565b5087811180610cd35750600081118015610cd35750855b1561102357600060068381548110610cfb57634e487b7160e01b600052603260045260246000fd5b6000918252602080832090910154808352600882526040808420815160c08101835281546001600160a01b0390811682526001830154169481019490945260028101549184019190915260038101546060840152600481015460808401526005015460a0830152925090610d7060648c61246d565b82606001518360400151610d84919061246d565b610d8e919061242e565b9050610d9b60648261244e565b905060008060008e8411610e9857839250610db760648f61246d565b610dc1908561244e565b9150610dce60648361242e565b91508c60011415610e3657610de58a878585612155565b604080518c815260208101899052908101859052606081018490529091507f5de48bb383b4a2aaad84721b80d93429b813651b0eefbd59d32018cfe28215dc906080015b60405180910390a1610f36565b8c60021415610e9357610e4b868b8486612155565b60408051888152602081018d9052908101849052606081018590529091507f5de48bb383b4a2aaad84721b80d93429b813651b0eefbd59d32018cfe28215dc90608001610e29565b610f36565b8e9250610ea660648f61246d565b8f610eb1919061244e565b9150610ebe60648361242e565b91508c60011415610ed557610de58a878585612155565b8c60021415610f3657610eea868b8486612155565b60408051888152602081018d9052908101849052606081018590529091507f5de48bb383b4a2aaad84721b80d93429b813651b0eefbd59d32018cfe28215dc9060800160405180910390a15b60008a8152600b6020908152604080832080546001818101835591855283852001859055898452818420805491820181558452828420018490558c8352600890915281206003018054859290610f8d908490612416565b909155505060008681526008602052604081206003018054849290610fb3908490612416565b909155505060008681526008602052604090206003810154600290910154610fdb919061246d565b61100c576006888154811061100057634e487b7160e01b600052603260045260246000fd5b60009182526020822001555b611016838a61246d565b985050505050505061105f565b5050600680546001810182556000919091527ff652222313e28459528d920b65115c16c04f3efc82aaedc97be59f3f377c0d3f01829055611066565b5050610b79565b506110a2565b600680546001810182556000919091527ff652222313e28459528d920b65115c16c04f3efc82aaedc97be59f3f377c0d3f018190555b60408051338152306020820152908101829052606081018790526080810186905260a081018590527f618f358bb45538682ade624a4a1959053d9dabd20fe300508034b879681b37be9060c00160405180910390a1979650505050505050565b600081815260086020908152604091829020825160c08101845281546001600160a01b0390811680835260018401549091169382019390935260028201549381019390935260038101546060840152600481015460808401526005015460a083015233146111975760405162461bcd60e51b8152602060048201526002602482015261134d60f21b604482015260640161034c565b6000816060015182604001516111ad919061246d565b82516001600160a01b03166000908152600760205260408120805492935083929091906111db908490612416565b90915550506040808301516000858152600860205291822060030155600654905b8181101561127657846006828154811061122657634e487b7160e01b600052603260045260246000fd5b90600052602060002001541415611264576006818154811061125857634e487b7160e01b600052603260045260246000fd5b60009182526020822001555b8061126e81612484565b9150506111fc565b50336000908152600760205260409020541561066d57611295336102fb565b5050505050565b6001546000906001600160a01b031633148061135957507f00000000000000000000000000000000000000000000000000000000000000006001600160a01b031663ce606ee06040518163ffffffff1660e01b815260040160206040518083038186803b15801561130c57600080fd5b505afa158015611320573d6000803e3d6000fd5b505050506040513d601f19601f8201168201806040525081019061134491906122a8565b6001600160a01b0316336001600160a01b0316145b8061136e57506002546001600160a01b031633145b61138a5760405162461bcd60e51b815260040161034c906123fa565b600354158061139b57506003546004145b80156113b1575081600114806113b15750816002145b1561141a57600382905560045460005b81811015611410576113fd600482815481106113ed57634e487b7160e01b600052603260045260246000fd5b90600052602060002001546115ce565b508061140881612484565b9150506113c1565b5060019392505050565b506000919050565b6001546000906001600160a01b03163314806114df57507f00000000000000000000000000000000000000000000000000000000000000006001600160a01b031663ce606ee06040518163ffffffff1660e01b815260040160206040518083038186803b15801561149257600080fd5b505afa1580156114a6573d6000803e3d6000fd5b505050506040513d601f19601f820116820180604052508101906114ca91906122a8565b6001600160a01b0316336001600160a01b0316145b806114f457506002546001600160a01b031633145b6115105760405162461bcd60e51b815260040161034c906123fa565b6003546107d857506004600355600190565b6003546115cb576000818152600b602090815260408083208054825181850281018501909352808352919290919083018282801561157f57602002820191906000526020600020905b81548152602001906001019080831161156b575b505083519394506000925050505b8181101561066d576115b883828151811061062e57634e487b7160e01b600052603260045260246000fd5b50806115c381612484565b91505061158d565b50565b6000600260005414156116235760405162461bcd60e51b815260206004820152601f60248201527f5265656e7472616e637947756172643a207265656e7472616e742063616c6c00604482015260640161034c565b60026000908155828152600a602052604090206004015460ff161561164a57506000610595565b6000806000806003546001141561184d576000868152600a6020908152604080832054835260088252918290205482516355c4a8bf60e01b815292516001600160a01b0391821697506064937f0000000000000000000000000000000000000000000000000000000000000000909216926355c4a8bf9260048082019391829003018186803b1580156116dc57600080fd5b505afa1580156116f0573d6000803e3d6000fd5b505050506040513d601f19601f82011682018060405250810190611714919061235e565b61171f90606461246d565b6000888152600a602052604090206003015461173b919061244e565b611745919061242e565b6000878152600a60205260409020600201546117619190612416565b915060647f00000000000000000000000000000000000000000000000000000000000000006001600160a01b03166355c4a8bf6040518163ffffffff1660e01b815260040160206040518083038186803b1580156117be57600080fd5b505afa1580156117d2573d6000803e3d6000fd5b505050506040513d601f19601f820116820180604052508101906117f6919061235e565b6000888152600a6020526040902060030154611812919061244e565b61181c919061242e565b6000878152600a6020908152604080832054835260089091529020600101546001600160a01b031693509050611a5e565b60035460021415611a51576000868152600a6020908152604080832060010154835260088252918290205482516355c4a8bf60e01b815292516001600160a01b0391821697506064937f0000000000000000000000000000000000000000000000000000000000000000909216926355c4a8bf9260048082019391829003018186803b1580156118dc57600080fd5b505afa1580156118f0573d6000803e3d6000fd5b505050506040513d601f19601f82011682018060405250810190611914919061235e565b61191f90606461246d565b6000888152600a602052604090206002015461193b919061244e565b611945919061242e565b6000878152600a60205260409020600301546119619190612416565b915060647f00000000000000000000000000000000000000000000000000000000000000006001600160a01b03166355c4a8bf6040518163ffffffff1660e01b815260040160206040518083038186803b1580156119be57600080fd5b505afa1580156119d2573d6000803e3d6000fd5b505050506040513d601f19601f820116820180604052508101906119f6919061235e565b6000888152600a6020526040902060020154611a12919061244e565b611a1c919061242e565b6000878152600a602090815260408083206001908101548452600890925290912001546001600160a01b031693509050611a5e565b6000945050505050610595565b6001600160a01b038316611b00577f00000000000000000000000000000000000000000000000000000000000000006001600160a01b03166309953b2f6040518163ffffffff1660e01b815260040160206040518083038186803b158015611ac557600080fd5b505afa158015611ad9573d6000803e3d6000fd5b505050506040513d601f19601f82011682018060405250810190611afd91906122a8565b92505b6001600160a01b03841660009081526007602052604081208054849290611b28908490612416565b9250508190555060647f00000000000000000000000000000000000000000000000000000000000000006001600160a01b0316636a0ccd9d6040518163ffffffff1660e01b815260040160206040518083038186803b158015611b8a57600080fd5b505afa158015611b9e573d6000803e3d6000fd5b505050506040513d601f19601f82011682018060405250810190611bc2919061235e565b611bcc908361244e565b611bd6919061242e565b600760007f00000000000000000000000000000000000000000000000000000000000000006001600160a01b031663b7640a546040518163ffffffff1660e01b815260040160206040518083038186803b158015611c3357600080fd5b505afa158015611c47573d6000803e3d6000fd5b505050506040513d601f19601f82011682018060405250810190611c6b91906122a8565b6001600160a01b03166001600160a01b031681526020019081526020016000206000828254611c9a9190612416565b9250508190555060647f00000000000000000000000000000000000000000000000000000000000000006001600160a01b03166328576d456040518163ffffffff1660e01b815260040160206040518083038186803b158015611cfc57600080fd5b505afa158015611d10573d6000803e3d6000fd5b505050506040513d601f19601f82011682018060405250810190611d34919061235e565b611d3e908361244e565b611d48919061242e565b600760007f00000000000000000000000000000000000000000000000000000000000000006001600160a01b03166309953b2f6040518163ffffffff1660e01b815260040160206040518083038186803b158015611da557600080fd5b505afa158015611db9573d6000803e3d6000fd5b505050506040513d601f19601f82011682018060405250810190611ddd91906122a8565b6001600160a01b03166001600160a01b031681526020019081526020016000206000828254611e0c9190612416565b9250508190555060647f00000000000000000000000000000000000000000000000000000000000000006001600160a01b03166354cd1a5c6040518163ffffffff1660e01b815260040160206040518083038186803b158015611e6e57600080fd5b505afa158015611e82573d6000803e3d6000fd5b505050506040513d601f19601f82011682018060405250810190611ea6919061235e565b611eb0908361244e565b611eba919061242e565b6001600160a01b03841660009081526007602052604081208054909190611ee2908490612416565b90915550505060009485525050600a602052505060408120600401805460ff191660019081179091559081905590565b6000818152600a6020908152604080832080548452600883528184205460018201548552828520546002909201546001600160a01b039182168087526007909552928520805494959190921693611f6a908490612416565b90915550506000838152600a60209081526040808320600301546001600160a01b038516845260079092528220805491929091611fa8908490612416565b909155505050600091825250600a60205260409020600401805460ff19166001179055565b60008060005b600554899030908390611fe7906001612416565b611ff19190612416565b6040516bffffffffffffffffffffffff19606094851b811660208301529290931b9091166034830152604882015242606882015244608882015260a80160408051601f1981840301815291815281516020928301206000818152600890935291206002015490925061206257612074565b8061206c81612484565b915050611fd3565b506040805160c0810182526001600160a01b03998a16808252988a166020808301918252828401998a52606083019889526080830197885260a0830196875260008581526008825284812093518454908e166001600160a01b031991821617855592516001808601805492909f169190941617909c55985160028301559651600382015594516004860155925160059485015583548086019094557f036b6384b5eca791c62761152d0c79bb0604c104a5fb6f4eb0703f3154bb3db09093018390555093855260098352928420805491820181558452922090910181905590565b60008060005b60045487908790839061216f906001612416565b6121799190612416565b60408051602081019490945283019190915260608201524260808201524460a082015260c00160408051601f1981840301815291815281516020928301206000818152600a9093529120600201549092506121d3576121e5565b806121dd81612484565b91505061215b565b506040805160a081018252968752602080880196875287820195865260608801948552600060808901818152848252600a909252918220975188559551600180890191909155945160028801559251600387015593516004958601805460ff19169115159190911790555083549182018455929092527f8a35acfbc15ff81a39ae7d344fd709f28e8600b4aa8c65c6b64bfe7fe36bd19b90910181905590565b600060208284031215612296578081fd5b81356122a1816124b5565b9392505050565b6000602082840312156122b9578081fd5b81516122a1816124b5565b60008060008060008060c087890312156122dc578182fd5b86356122e7816124b5565b955060208701356122f7816124b5565b945060408701359350606087013592506080870135915060a087013561231c816124ca565b809150509295509295509295565b60006020828403121561233b578081fd5b81516122a1816124ca565b600060208284031215612357578081fd5b5035919050565b60006020828403121561236f578081fd5b5051919050565b602080825282518282018190526000919060409081850190868401855b828110156123ed57815180516001600160a01b0390811686528782015116878601528581015186860152606080820151908601526080808201519086015260a0908101519085015260c09093019290850190600101612393565b5091979650505050505050565b6020808252600290820152614d3160f01b604082015260600190565b600082198211156124295761242961249f565b500190565b60008261244957634e487b7160e01b81526012600452602481fd5b500490565b60008160001904831182151516156124685761246861249f565b500290565b60008282101561247f5761247f61249f565b500390565b60006000198214156124985761249861249f565b5060010190565b634e487b7160e01b600052601160045260246000fd5b6001600160a01b03811681146115cb57600080fd5b80151581146115cb57600080fdfea26469706673582212206e1d7790e9d2c92e64bb9d0fda9065c3273f630692a85c9020c0546f83b5baca64736f6c63430008040033",
					"opcodes": "PUSH1 0xC0 PUSH1 0x40 MSTORE PUSH1 0x0 PUSH1 0x3 SSTORE PUSH1 0x2 SLOAD PUSH1 0x60 SHL PUSH1 0x1 PUSH1 0x1 PUSH1 0x60 SHL SUB NOT AND PUSH1 0xA0 MSTORE CALLVALUE DUP1 ISZERO PUSH3 0x29 JUMPI PUSH1 0x0 DUP1 REVERT JUMPDEST POP PUSH1 0x40 MLOAD PUSH3 0x26EA CODESIZE SUB DUP1 PUSH3 0x26EA DUP4 CODECOPY DUP2 ADD PUSH1 0x40 DUP2 SWAP1 MSTORE PUSH3 0x4C SWAP2 PUSH3 0x102 JUMP JUMPDEST PUSH1 0x1 PUSH1 0x0 DUP2 SWAP1 SSTORE DUP1 SLOAD PUSH1 0x1 PUSH1 0x1 PUSH1 0xA0 SHL SUB NOT SWAP1 DUP2 AND PUSH1 0x1 PUSH1 0x1 PUSH1 0xA0 SHL SUB DUP5 AND OR SWAP1 SWAP2 SSTORE PUSH1 0x2 DUP1 SLOAD CALLER SWAP3 AND DUP3 OR SWAP1 SSTORE PUSH1 0x40 DUP1 MLOAD PUSH3 0x966ED9 PUSH1 0xE3 SHL DUP2 MSTORE SWAP1 MLOAD PUSH4 0x4B376C8 SWAP2 PUSH1 0x4 DUP1 DUP3 ADD SWAP3 PUSH1 0x20 SWAP3 SWAP1 SWAP2 SWAP1 DUP3 SWAP1 SUB ADD DUP2 DUP7 DUP1 EXTCODESIZE ISZERO DUP1 ISZERO PUSH3 0xB0 JUMPI PUSH1 0x0 DUP1 REVERT JUMPDEST POP GAS STATICCALL ISZERO DUP1 ISZERO PUSH3 0xC5 JUMPI RETURNDATASIZE PUSH1 0x0 DUP1 RETURNDATACOPY RETURNDATASIZE PUSH1 0x0 REVERT JUMPDEST POP POP POP POP PUSH1 0x40 MLOAD RETURNDATASIZE PUSH1 0x1F NOT PUSH1 0x1F DUP3 ADD AND DUP3 ADD DUP1 PUSH1 0x40 MSTORE POP DUP2 ADD SWAP1 PUSH3 0xEB SWAP2 SWAP1 PUSH3 0x102 JUMP JUMPDEST PUSH1 0x60 SHL PUSH1 0x1 PUSH1 0x1 PUSH1 0x60 SHL SUB NOT AND PUSH1 0x80 MSTORE POP PUSH3 0x132 JUMP JUMPDEST PUSH1 0x0 PUSH1 0x20 DUP3 DUP5 SUB SLT ISZERO PUSH3 0x114 JUMPI DUP1 DUP2 REVERT JUMPDEST DUP2 MLOAD PUSH1 0x1 PUSH1 0x1 PUSH1 0xA0 SHL SUB DUP2 AND DUP2 EQ PUSH3 0x12B JUMPI DUP2 DUP3 REVERT JUMPDEST SWAP4 SWAP3 POP POP POP JUMP JUMPDEST PUSH1 0x80 MLOAD PUSH1 0x60 SHR PUSH1 0xA0 MLOAD PUSH1 0x60 SHR PUSH2 0x250E PUSH3 0x1DC PUSH1 0x0 CODECOPY PUSH1 0x0 DUP2 DUP2 PUSH2 0x68D ADD MSTORE DUP2 DUP2 PUSH2 0x7F6 ADD MSTORE DUP2 DUP2 PUSH2 0x9A0 ADD MSTORE DUP2 DUP2 PUSH2 0xB7B ADD MSTORE DUP2 DUP2 PUSH2 0x12B5 ADD MSTORE DUP2 DUP2 PUSH2 0x143B ADD MSTORE DUP2 DUP2 PUSH2 0x1698 ADD MSTORE DUP2 DUP2 PUSH2 0x1767 ADD MSTORE DUP2 DUP2 PUSH2 0x1898 ADD MSTORE DUP2 DUP2 PUSH2 0x1967 ADD MSTORE DUP2 DUP2 PUSH2 0x1A6E ADD MSTORE DUP2 DUP2 PUSH2 0x1B33 ADD MSTORE DUP2 DUP2 PUSH2 0x1BDC ADD MSTORE DUP2 DUP2 PUSH2 0x1CA5 ADD MSTORE DUP2 DUP2 PUSH2 0x1D4E ADD MSTORE PUSH2 0x1E17 ADD MSTORE PUSH1 0x0 DUP2 DUP2 PUSH2 0x38B ADD MSTORE DUP2 DUP2 PUSH2 0x49A ADD MSTORE DUP2 DUP2 PUSH2 0x913 ADD MSTORE PUSH2 0xA87 ADD MSTORE PUSH2 0x250E PUSH1 0x0 RETURN INVALID PUSH1 0x80 PUSH1 0x40 MSTORE CALLVALUE DUP1 ISZERO PUSH2 0x10 JUMPI PUSH1 0x0 DUP1 REVERT JUMPDEST POP PUSH1 0x4 CALLDATASIZE LT PUSH2 0xA9 JUMPI PUSH1 0x0 CALLDATALOAD PUSH1 0xE0 SHR DUP1 PUSH4 0x78D65B2F GT PUSH2 0x71 JUMPI DUP1 PUSH4 0x78D65B2F EQ PUSH2 0x12A JUMPI DUP1 PUSH4 0x7D7F9232 EQ PUSH2 0x13D JUMPI DUP1 PUSH4 0x8DF82800 EQ PUSH2 0x150 JUMPI DUP1 PUSH4 0xBE9A6555 EQ PUSH2 0x163 JUMPI DUP1 PUSH4 0xC87B3171 EQ PUSH2 0x16B JUMPI DUP1 PUSH4 0xF8B2CB4F EQ PUSH2 0x17E JUMPI PUSH1 0x0 DUP1 REVERT JUMPDEST DUP1 PUSH4 0x200D2ED2 EQ PUSH2 0xAE JUMPI DUP1 PUSH4 0x2D56657D EQ PUSH2 0xCA JUMPI DUP1 PUSH4 0x51CFF8D9 EQ PUSH2 0xEA JUMPI DUP1 PUSH4 0x675F6537 EQ PUSH2 0x10D JUMPI DUP1 PUSH4 0x6BFEFD6B EQ PUSH2 0x122 JUMPI JUMPDEST PUSH1 0x0 DUP1 REVERT JUMPDEST PUSH2 0xB7 PUSH1 0x3 SLOAD DUP2 JUMP JUMPDEST PUSH1 0x40 MLOAD SWAP1 DUP2 MSTORE PUSH1 0x20 ADD JUMPDEST PUSH1 0x40 MLOAD DUP1 SWAP2 SUB SWAP1 RETURN JUMPDEST PUSH2 0xDD PUSH2 0xD8 CALLDATASIZE PUSH1 0x4 PUSH2 0x2285 JUMP JUMPDEST PUSH2 0x1A7 JUMP JUMPDEST PUSH1 0x40 MLOAD PUSH2 0xC1 SWAP2 SWAP1 PUSH2 0x2376 JUMP JUMPDEST PUSH2 0xFD PUSH2 0xF8 CALLDATASIZE PUSH1 0x4 PUSH2 0x2285 JUMP JUMPDEST PUSH2 0x2FB JUMP JUMPDEST PUSH1 0x40 MLOAD SWAP1 ISZERO ISZERO DUP2 MSTORE PUSH1 0x20 ADD PUSH2 0xC1 JUMP JUMPDEST PUSH2 0x120 PUSH2 0x11B CALLDATASIZE PUSH1 0x4 PUSH2 0x2346 JUMP JUMPDEST PUSH2 0x59F JUMP JUMPDEST STOP JUMPDEST PUSH2 0xFD PUSH2 0x674 JUMP JUMPDEST PUSH2 0xB7 PUSH2 0x138 CALLDATASIZE PUSH1 0x4 PUSH2 0x22C4 JUMP JUMPDEST PUSH2 0x7DE JUMP JUMPDEST PUSH2 0x120 PUSH2 0x14B CALLDATASIZE PUSH1 0x4 PUSH2 0x2346 JUMP JUMPDEST PUSH2 0x1102 JUMP JUMPDEST PUSH2 0xFD PUSH2 0x15E CALLDATASIZE PUSH1 0x4 PUSH2 0x2346 JUMP JUMPDEST PUSH2 0x129C JUMP JUMPDEST PUSH2 0xFD PUSH2 0x1422 JUMP JUMPDEST PUSH2 0x120 PUSH2 0x179 CALLDATASIZE PUSH1 0x4 PUSH2 0x2346 JUMP JUMPDEST PUSH2 0x1522 JUMP JUMPDEST PUSH2 0xB7 PUSH2 0x18C CALLDATASIZE PUSH1 0x4 PUSH2 0x2285 JUMP JUMPDEST PUSH1 0x1 PUSH1 0x1 PUSH1 0xA0 SHL SUB AND PUSH1 0x0 SWAP1 DUP2 MSTORE PUSH1 0x7 PUSH1 0x20 MSTORE PUSH1 0x40 SWAP1 KECCAK256 SLOAD SWAP1 JUMP JUMPDEST PUSH1 0x1 PUSH1 0x1 PUSH1 0xA0 SHL SUB DUP2 AND PUSH1 0x0 SWAP1 DUP2 MSTORE PUSH1 0x9 PUSH1 0x20 SWAP1 DUP2 MSTORE PUSH1 0x40 DUP1 DUP4 KECCAK256 DUP1 SLOAD DUP3 MLOAD DUP2 DUP6 MUL DUP2 ADD DUP6 ADD SWAP1 SWAP4 MSTORE DUP1 DUP4 MSTORE PUSH1 0x60 SWAP5 DUP6 SWAP5 SWAP1 SWAP4 SWAP3 SWAP2 SWAP1 DUP4 ADD DUP3 DUP3 DUP1 ISZERO PUSH2 0x20C JUMPI PUSH1 0x20 MUL DUP3 ADD SWAP2 SWAP1 PUSH1 0x0 MSTORE PUSH1 0x20 PUSH1 0x0 KECCAK256 SWAP1 JUMPDEST DUP2 SLOAD DUP2 MSTORE PUSH1 0x20 ADD SWAP1 PUSH1 0x1 ADD SWAP1 DUP1 DUP4 GT PUSH2 0x1F8 JUMPI JUMPDEST POP POP PUSH1 0x5 SLOAD SWAP4 SWAP5 POP PUSH1 0x0 SWAP3 POP POP POP JUMPDEST DUP2 DUP2 LT ISZERO PUSH2 0x2F1 JUMPI PUSH1 0x8 PUSH1 0x0 DUP5 DUP4 DUP2 MLOAD DUP2 LT PUSH2 0x247 JUMPI PUSH4 0x4E487B71 PUSH1 0xE0 SHL PUSH1 0x0 MSTORE PUSH1 0x32 PUSH1 0x4 MSTORE PUSH1 0x24 PUSH1 0x0 REVERT JUMPDEST PUSH1 0x20 SWAP1 DUP2 MUL SWAP2 SWAP1 SWAP2 ADD DUP2 ADD MLOAD DUP3 MSTORE DUP2 DUP2 ADD SWAP3 SWAP1 SWAP3 MSTORE PUSH1 0x40 SWAP1 DUP2 ADD PUSH1 0x0 KECCAK256 DUP2 MLOAD PUSH1 0xC0 DUP2 ADD DUP4 MSTORE DUP2 SLOAD PUSH1 0x1 PUSH1 0x1 PUSH1 0xA0 SHL SUB SWAP1 DUP2 AND DUP3 MSTORE PUSH1 0x1 DUP4 ADD SLOAD AND SWAP4 DUP2 ADD SWAP4 SWAP1 SWAP4 MSTORE PUSH1 0x2 DUP2 ADD SLOAD SWAP2 DUP4 ADD SWAP2 SWAP1 SWAP2 MSTORE PUSH1 0x3 DUP2 ADD SLOAD PUSH1 0x60 DUP4 ADD MSTORE PUSH1 0x4 DUP2 ADD SLOAD PUSH1 0x80 DUP4 ADD MSTORE PUSH1 0x5 ADD SLOAD PUSH1 0xA0 DUP3 ADD MSTORE DUP5 MLOAD DUP6 SWAP1 DUP4 SWAP1 DUP2 LT PUSH2 0x2D3 JUMPI PUSH4 0x4E487B71 PUSH1 0xE0 SHL PUSH1 0x0 MSTORE PUSH1 0x32 PUSH1 0x4 MSTORE PUSH1 0x24 PUSH1 0x0 REVERT JUMPDEST PUSH1 0x20 MUL PUSH1 0x20 ADD ADD DUP2 SWAP1 MSTORE POP DUP1 DUP1 PUSH2 0x2E9 SWAP1 PUSH2 0x2484 JUMP JUMPDEST SWAP2 POP POP PUSH2 0x21B JUMP JUMPDEST POP SWAP2 SWAP5 SWAP4 POP POP POP POP JUMP JUMPDEST PUSH1 0x0 PUSH1 0x2 PUSH1 0x0 SLOAD EQ ISZERO PUSH2 0x355 JUMPI PUSH1 0x40 MLOAD PUSH3 0x461BCD PUSH1 0xE5 SHL DUP2 MSTORE PUSH1 0x20 PUSH1 0x4 DUP3 ADD MSTORE PUSH1 0x1F PUSH1 0x24 DUP3 ADD MSTORE PUSH32 0x5265656E7472616E637947756172643A207265656E7472616E742063616C6C00 PUSH1 0x44 DUP3 ADD MSTORE PUSH1 0x64 ADD JUMPDEST PUSH1 0x40 MLOAD DUP1 SWAP2 SUB SWAP1 REVERT JUMPDEST PUSH1 0x2 PUSH1 0x0 SWAP1 DUP2 SSTORE PUSH1 0x1 PUSH1 0x1 PUSH1 0xA0 SHL SUB DUP4 DUP2 AND DUP3 MSTORE PUSH1 0x7 PUSH1 0x20 MSTORE PUSH1 0x40 SWAP2 DUP3 SWAP1 KECCAK256 SLOAD SWAP2 MLOAD PUSH4 0x70A08231 PUSH1 0xE0 SHL DUP2 MSTORE ADDRESS PUSH1 0x4 DUP3 ADD MSTORE DUP3 SWAP2 PUSH32 0x0 AND SWAP1 PUSH4 0x70A08231 SWAP1 PUSH1 0x24 ADD PUSH1 0x20 PUSH1 0x40 MLOAD DUP1 DUP4 SUB DUP2 DUP7 DUP1 EXTCODESIZE ISZERO DUP1 ISZERO PUSH2 0x3CD JUMPI PUSH1 0x0 DUP1 REVERT JUMPDEST POP GAS STATICCALL ISZERO DUP1 ISZERO PUSH2 0x3E1 JUMPI RETURNDATASIZE PUSH1 0x0 DUP1 RETURNDATACOPY RETURNDATASIZE PUSH1 0x0 REVERT JUMPDEST POP POP POP POP PUSH1 0x40 MLOAD RETURNDATASIZE PUSH1 0x1F NOT PUSH1 0x1F DUP3 ADD AND DUP3 ADD DUP1 PUSH1 0x40 MSTORE POP DUP2 ADD SWAP1 PUSH2 0x405 SWAP2 SWAP1 PUSH2 0x235E JUMP JUMPDEST LT ISZERO DUP1 ISZERO PUSH2 0x413 JUMPI POP PUSH1 0x0 DUP2 GT JUMPDEST PUSH2 0x444 JUMPI PUSH1 0x40 MLOAD PUSH3 0x461BCD PUSH1 0xE5 SHL DUP2 MSTORE PUSH1 0x20 PUSH1 0x4 DUP3 ADD MSTORE PUSH1 0x2 PUSH1 0x24 DUP3 ADD MSTORE PUSH2 0x2699 PUSH1 0xF1 SHL PUSH1 0x44 DUP3 ADD MSTORE PUSH1 0x64 ADD PUSH2 0x34C JUMP JUMPDEST PUSH1 0x1 PUSH1 0x1 PUSH1 0xA0 SHL SUB DUP4 AND PUSH1 0x0 SWAP1 DUP2 MSTORE PUSH1 0x7 PUSH1 0x20 MSTORE PUSH1 0x40 DUP2 KECCAK256 DUP1 SLOAD DUP4 SWAP3 SWAP1 PUSH2 0x46C SWAP1 DUP5 SWAP1 PUSH2 0x246D JUMP JUMPDEST SWAP1 SWAP2 SSTORE POP POP PUSH1 0x40 MLOAD PUSH4 0xA9059CBB PUSH1 0xE0 SHL DUP2 MSTORE PUSH1 0x1 PUSH1 0x1 PUSH1 0xA0 SHL SUB DUP5 DUP2 AND PUSH1 0x4 DUP4 ADD MSTORE PUSH1 0x24 DUP3 ADD DUP4 SWAP1 MSTORE PUSH1 0x0 SWAP2 PUSH32 0x0 SWAP1 SWAP2 AND SWAP1 PUSH4 0xA9059CBB SWAP1 PUSH1 0x44 ADD PUSH1 0x20 PUSH1 0x40 MLOAD DUP1 DUP4 SUB DUP2 PUSH1 0x0 DUP8 DUP1 EXTCODESIZE ISZERO DUP1 ISZERO PUSH2 0x4E0 JUMPI PUSH1 0x0 DUP1 REVERT JUMPDEST POP GAS CALL ISZERO DUP1 ISZERO PUSH2 0x4F4 JUMPI RETURNDATASIZE PUSH1 0x0 DUP1 RETURNDATACOPY RETURNDATASIZE PUSH1 0x0 REVERT JUMPDEST POP POP POP POP PUSH1 0x40 MLOAD RETURNDATASIZE PUSH1 0x1F NOT PUSH1 0x1F DUP3 ADD AND DUP3 ADD DUP1 PUSH1 0x40 MSTORE POP DUP2 ADD SWAP1 PUSH2 0x518 SWAP2 SWAP1 PUSH2 0x232A JUMP JUMPDEST SWAP1 POP DUP1 PUSH2 0x54C JUMPI PUSH1 0x40 MLOAD PUSH3 0x461BCD PUSH1 0xE5 SHL DUP2 MSTORE PUSH1 0x20 PUSH1 0x4 DUP3 ADD MSTORE PUSH1 0x2 PUSH1 0x24 DUP3 ADD MSTORE PUSH2 0x4D33 PUSH1 0xF0 SHL PUSH1 0x44 DUP3 ADD MSTORE PUSH1 0x64 ADD PUSH2 0x34C JUMP JUMPDEST PUSH1 0x40 DUP1 MLOAD PUSH1 0x1 PUSH1 0x1 PUSH1 0xA0 SHL SUB DUP7 AND DUP2 MSTORE PUSH1 0x20 DUP2 ADD DUP5 SWAP1 MSTORE PUSH32 0x884EDAD9CE6FA2440D8A54CC123490EB96D2768479D49FF9C7366125A9424364 SWAP2 ADD PUSH1 0x40 MLOAD DUP1 SWAP2 SUB SWAP1 LOG1 PUSH1 0x1 SWAP3 POP POP POP JUMPDEST PUSH1 0x1 PUSH1 0x0 SSTORE SWAP2 SWAP1 POP JUMP JUMPDEST PUSH1 0x0 DUP2 DUP2 MSTORE PUSH1 0xB PUSH1 0x20 SWAP1 DUP2 MSTORE PUSH1 0x40 DUP1 DUP4 KECCAK256 DUP1 SLOAD DUP3 MLOAD DUP2 DUP6 MUL DUP2 ADD DUP6 ADD SWAP1 SWAP4 MSTORE DUP1 DUP4 MSTORE SWAP2 SWAP3 SWAP1 SWAP2 SWAP1 DUP4 ADD DUP3 DUP3 DUP1 ISZERO PUSH2 0x5F5 JUMPI PUSH1 0x20 MUL DUP3 ADD SWAP2 SWAP1 PUSH1 0x0 MSTORE PUSH1 0x20 PUSH1 0x0 KECCAK256 SWAP1 JUMPDEST DUP2 SLOAD DUP2 MSTORE PUSH1 0x20 ADD SWAP1 PUSH1 0x1 ADD SWAP1 DUP1 DUP4 GT PUSH2 0x5E1 JUMPI JUMPDEST POP POP DUP4 MLOAD SWAP4 SWAP5 POP PUSH1 0x0 SWAP3 POP POP POP JUMPDEST DUP2 DUP2 LT ISZERO PUSH2 0x64E JUMPI PUSH2 0x63B DUP4 DUP3 DUP2 MLOAD DUP2 LT PUSH2 0x62E JUMPI PUSH4 0x4E487B71 PUSH1 0xE0 SHL PUSH1 0x0 MSTORE PUSH1 0x32 PUSH1 0x4 MSTORE PUSH1 0x24 PUSH1 0x0 REVERT JUMPDEST PUSH1 0x20 MUL PUSH1 0x20 ADD ADD MLOAD PUSH2 0x15CE JUMP JUMPDEST POP DUP1 PUSH2 0x646 DUP2 PUSH2 0x2484 JUMP JUMPDEST SWAP2 POP POP PUSH2 0x603 JUMP JUMPDEST POP CALLER PUSH1 0x0 SWAP1 DUP2 MSTORE PUSH1 0x7 PUSH1 0x20 MSTORE PUSH1 0x40 SWAP1 KECCAK256 SLOAD ISZERO PUSH2 0x66F JUMPI PUSH2 0x66D CALLER PUSH2 0x2FB JUMP JUMPDEST POP JUMPDEST POP POP POP JUMP JUMPDEST PUSH1 0x1 SLOAD PUSH1 0x0 SWAP1 PUSH1 0x1 PUSH1 0x1 PUSH1 0xA0 SHL SUB AND CALLER EQ DUP1 PUSH2 0x731 JUMPI POP PUSH32 0x0 PUSH1 0x1 PUSH1 0x1 PUSH1 0xA0 SHL SUB AND PUSH4 0xCE606EE0 PUSH1 0x40 MLOAD DUP2 PUSH4 0xFFFFFFFF AND PUSH1 0xE0 SHL DUP2 MSTORE PUSH1 0x4 ADD PUSH1 0x20 PUSH1 0x40 MLOAD DUP1 DUP4 SUB DUP2 DUP7 DUP1 EXTCODESIZE ISZERO DUP1 ISZERO PUSH2 0x6E4 JUMPI PUSH1 0x0 DUP1 REVERT JUMPDEST POP GAS STATICCALL ISZERO DUP1 ISZERO PUSH2 0x6F8 JUMPI RETURNDATASIZE PUSH1 0x0 DUP1 RETURNDATACOPY RETURNDATASIZE PUSH1 0x0 REVERT JUMPDEST POP POP POP POP PUSH1 0x40 MLOAD RETURNDATASIZE PUSH1 0x1F NOT PUSH1 0x1F DUP3 ADD AND DUP3 ADD DUP1 PUSH1 0x40 MSTORE POP DUP2 ADD SWAP1 PUSH2 0x71C SWAP2 SWAP1 PUSH2 0x22A8 JUMP JUMPDEST PUSH1 0x1 PUSH1 0x1 PUSH1 0xA0 SHL SUB AND CALLER PUSH1 0x1 PUSH1 0x1 PUSH1 0xA0 SHL SUB AND EQ JUMPDEST DUP1 PUSH2 0x746 JUMPI POP PUSH1 0x2 SLOAD PUSH1 0x1 PUSH1 0x1 PUSH1 0xA0 SHL SUB AND CALLER EQ JUMPDEST PUSH2 0x762 JUMPI PUSH1 0x40 MLOAD PUSH3 0x461BCD PUSH1 0xE5 SHL DUP2 MSTORE PUSH1 0x4 ADD PUSH2 0x34C SWAP1 PUSH2 0x23FA JUMP JUMPDEST PUSH1 0x3 SLOAD ISZERO DUP1 PUSH2 0x773 JUMPI POP PUSH1 0x3 SLOAD PUSH1 0x4 EQ JUMPDEST ISZERO PUSH2 0x7D8 JUMPI PUSH1 0x4 SLOAD PUSH1 0x0 JUMPDEST DUP2 DUP2 LT ISZERO PUSH2 0x7CC JUMPI PUSH2 0x7BA PUSH1 0x4 DUP3 DUP2 SLOAD DUP2 LT PUSH2 0x7AA JUMPI PUSH4 0x4E487B71 PUSH1 0xE0 SHL PUSH1 0x0 MSTORE PUSH1 0x32 PUSH1 0x4 MSTORE PUSH1 0x24 PUSH1 0x0 REVERT JUMPDEST SWAP1 PUSH1 0x0 MSTORE PUSH1 0x20 PUSH1 0x0 KECCAK256 ADD SLOAD PUSH2 0x1F12 JUMP JUMPDEST DUP1 PUSH2 0x7C4 DUP2 PUSH2 0x2484 JUMP JUMPDEST SWAP2 POP POP PUSH2 0x77E JUMP JUMPDEST POP POP PUSH1 0x3 DUP1 SSTORE POP PUSH1 0x1 SWAP1 JUMP JUMPDEST POP PUSH1 0x0 SWAP1 JUMP JUMPDEST PUSH1 0x40 MLOAD PUSH4 0x332DACCF PUSH1 0xE0 SHL DUP2 MSTORE CALLER PUSH1 0x4 DUP3 ADD MSTORE PUSH1 0x0 SWAP1 PUSH32 0x0 PUSH1 0x1 PUSH1 0x1 PUSH1 0xA0 SHL SUB AND SWAP1 PUSH4 0x332DACCF SWAP1 PUSH1 0x24 ADD PUSH1 0x20 PUSH1 0x40 MLOAD DUP1 DUP4 SUB DUP2 DUP7 DUP1 EXTCODESIZE ISZERO DUP1 ISZERO PUSH2 0x840 JUMPI PUSH1 0x0 DUP1 REVERT JUMPDEST POP GAS STATICCALL ISZERO DUP1 ISZERO PUSH2 0x854 JUMPI RETURNDATASIZE PUSH1 0x0 DUP1 RETURNDATACOPY RETURNDATASIZE PUSH1 0x0 REVERT JUMPDEST POP POP POP POP PUSH1 0x40 MLOAD RETURNDATASIZE PUSH1 0x1F NOT PUSH1 0x1F DUP3 ADD AND DUP3 ADD DUP1 PUSH1 0x40 MSTORE POP DUP2 ADD SWAP1 PUSH2 0x878 SWAP2 SWAP1 PUSH2 0x232A JUMP JUMPDEST ISZERO DUP1 ISZERO PUSH2 0x885 JUMPI POP PUSH1 0x3 SLOAD ISZERO JUMPDEST PUSH2 0x8B6 JUMPI PUSH1 0x40 MLOAD PUSH3 0x461BCD PUSH1 0xE5 SHL DUP2 MSTORE PUSH1 0x20 PUSH1 0x4 DUP3 ADD MSTORE PUSH1 0x2 PUSH1 0x24 DUP3 ADD MSTORE PUSH2 0x9A7 PUSH1 0xF3 SHL PUSH1 0x44 DUP3 ADD MSTORE PUSH1 0x64 ADD PUSH2 0x34C JUMP JUMPDEST DUP3 PUSH1 0x1 EQ DUP1 PUSH2 0x8C5 JUMPI POP DUP3 PUSH1 0x2 EQ JUMPDEST PUSH2 0x8F6 JUMPI PUSH1 0x40 MLOAD PUSH3 0x461BCD PUSH1 0xE5 SHL DUP2 MSTORE PUSH1 0x20 PUSH1 0x4 DUP3 ADD MSTORE PUSH1 0x2 PUSH1 0x24 DUP3 ADD MSTORE PUSH2 0x4D39 PUSH1 0xF0 SHL PUSH1 0x44 DUP3 ADD MSTORE PUSH1 0x64 ADD PUSH2 0x34C JUMP JUMPDEST PUSH1 0x40 MLOAD PUSH4 0x6EB1769F PUSH1 0xE1 SHL DUP2 MSTORE CALLER PUSH1 0x4 DUP3 ADD MSTORE ADDRESS PUSH1 0x24 DUP3 ADD MSTORE DUP6 SWAP1 PUSH32 0x0 PUSH1 0x1 PUSH1 0x1 PUSH1 0xA0 SHL SUB AND SWAP1 PUSH4 0xDD62ED3E SWAP1 PUSH1 0x44 ADD PUSH1 0x20 PUSH1 0x40 MLOAD DUP1 DUP4 SUB DUP2 DUP7 DUP1 EXTCODESIZE ISZERO DUP1 ISZERO PUSH2 0x95D JUMPI PUSH1 0x0 DUP1 REVERT JUMPDEST POP GAS STATICCALL ISZERO DUP1 ISZERO PUSH2 0x971 JUMPI RETURNDATASIZE PUSH1 0x0 DUP1 RETURNDATACOPY RETURNDATASIZE PUSH1 0x0 REVERT JUMPDEST POP POP POP POP PUSH1 0x40 MLOAD RETURNDATASIZE PUSH1 0x1F NOT PUSH1 0x1F DUP3 ADD AND DUP3 ADD DUP1 PUSH1 0x40 MSTORE POP DUP2 ADD SWAP1 PUSH2 0x995 SWAP2 SWAP1 PUSH2 0x235E JUMP JUMPDEST LT ISZERO DUP1 ISZERO PUSH2 0xA33 JUMPI POP PUSH32 0x0 PUSH1 0x1 PUSH1 0x1 PUSH1 0xA0 SHL SUB AND PUSH4 0x375B3C0A PUSH1 0x40 MLOAD DUP2 PUSH4 0xFFFFFFFF AND PUSH1 0xE0 SHL DUP2 MSTORE PUSH1 0x4 ADD PUSH1 0x20 PUSH1 0x40 MLOAD DUP1 DUP4 SUB DUP2 DUP7 DUP1 EXTCODESIZE ISZERO DUP1 ISZERO PUSH2 0x9F7 JUMPI PUSH1 0x0 DUP1 REVERT JUMPDEST POP GAS STATICCALL ISZERO DUP1 ISZERO PUSH2 0xA0B JUMPI RETURNDATASIZE PUSH1 0x0 DUP1 RETURNDATACOPY RETURNDATASIZE PUSH1 0x0 REVERT JUMPDEST POP POP POP POP PUSH1 0x40 MLOAD RETURNDATASIZE PUSH1 0x1F NOT PUSH1 0x1F DUP3 ADD AND DUP3 ADD DUP1 PUSH1 0x40 MSTORE POP DUP2 ADD SWAP1 PUSH2 0xA2F SWAP2 SWAP1 PUSH2 0x235E JUMP JUMPDEST DUP6 LT ISZERO JUMPDEST PUSH2 0xA65 JUMPI PUSH1 0x40 MLOAD PUSH3 0x461BCD PUSH1 0xE5 SHL DUP2 MSTORE PUSH1 0x20 PUSH1 0x4 DUP3 ADD MSTORE PUSH1 0x3 PUSH1 0x24 DUP3 ADD MSTORE PUSH3 0x4D313 PUSH1 0xEC SHL PUSH1 0x44 DUP3 ADD MSTORE PUSH1 0x64 ADD PUSH2 0x34C JUMP JUMPDEST PUSH1 0x40 MLOAD PUSH4 0x23B872DD PUSH1 0xE0 SHL DUP2 MSTORE CALLER PUSH1 0x4 DUP3 ADD MSTORE ADDRESS PUSH1 0x24 DUP3 ADD MSTORE PUSH1 0x44 DUP2 ADD DUP7 SWAP1 MSTORE PUSH32 0x0 PUSH1 0x1 PUSH1 0x1 PUSH1 0xA0 SHL SUB AND SWAP1 PUSH4 0x23B872DD SWAP1 PUSH1 0x64 ADD PUSH1 0x20 PUSH1 0x40 MLOAD DUP1 DUP4 SUB DUP2 PUSH1 0x0 DUP8 DUP1 EXTCODESIZE ISZERO DUP1 ISZERO PUSH2 0xAD3 JUMPI PUSH1 0x0 DUP1 REVERT JUMPDEST POP GAS CALL ISZERO DUP1 ISZERO PUSH2 0xAE7 JUMPI RETURNDATASIZE PUSH1 0x0 DUP1 RETURNDATACOPY RETURNDATASIZE PUSH1 0x0 REVERT JUMPDEST POP POP POP POP PUSH1 0x40 MLOAD RETURNDATASIZE PUSH1 0x1F NOT PUSH1 0x1F DUP3 ADD AND DUP3 ADD DUP1 PUSH1 0x40 MSTORE POP DUP2 ADD SWAP1 PUSH2 0xB0B SWAP2 SWAP1 PUSH2 0x232A JUMP JUMPDEST PUSH2 0xB3D JUMPI PUSH1 0x40 MLOAD PUSH3 0x461BCD PUSH1 0xE5 SHL DUP2 MSTORE PUSH1 0x20 PUSH1 0x4 DUP3 ADD MSTORE PUSH1 0x3 PUSH1 0x24 DUP3 ADD MSTORE PUSH3 0x4D3131 PUSH1 0xE8 SHL PUSH1 0x44 DUP3 ADD MSTORE PUSH1 0x64 ADD PUSH2 0x34C JUMP JUMPDEST PUSH1 0x0 PUSH2 0xB6C DUP9 DUP9 DUP9 DUP5 PUSH2 0xB51 PUSH1 0x64 DUP12 PUSH2 0x246D JUMP JUMPDEST PUSH2 0xB5C DUP12 PUSH1 0x64 PUSH2 0x244E JUMP JUMPDEST PUSH2 0xB66 SWAP2 SWAP1 PUSH2 0x242E JUMP JUMPDEST DUP10 PUSH2 0x1FCD JUMP JUMPDEST PUSH1 0x6 SLOAD SWAP1 SWAP2 POP ISZERO PUSH2 0x106C JUMPI DUP6 JUMPDEST PUSH32 0x0 PUSH1 0x1 PUSH1 0x1 PUSH1 0xA0 SHL SUB AND PUSH4 0x375B3C0A PUSH1 0x40 MLOAD DUP2 PUSH4 0xFFFFFFFF AND PUSH1 0xE0 SHL DUP2 MSTORE PUSH1 0x4 ADD PUSH1 0x20 PUSH1 0x40 MLOAD DUP1 DUP4 SUB DUP2 DUP7 DUP1 EXTCODESIZE ISZERO DUP1 ISZERO PUSH2 0xBD2 JUMPI PUSH1 0x0 DUP1 REVERT JUMPDEST POP GAS STATICCALL ISZERO DUP1 ISZERO PUSH2 0xBE6 JUMPI RETURNDATASIZE PUSH1 0x0 DUP1 RETURNDATACOPY RETURNDATASIZE PUSH1 0x0 REVERT JUMPDEST POP POP POP POP PUSH1 0x40 MLOAD RETURNDATASIZE PUSH1 0x1F NOT PUSH1 0x1F DUP3 ADD AND DUP3 ADD DUP1 PUSH1 0x40 MSTORE POP DUP2 ADD SWAP1 PUSH2 0xC0A SWAP2 SWAP1 PUSH2 0x235E JUMP JUMPDEST DUP2 LT PUSH2 0x1066 JUMPI PUSH1 0x0 DUP1 PUSH1 0x0 JUMPDEST PUSH1 0x6 SLOAD DUP2 LT ISZERO PUSH2 0xCBC JUMPI PUSH1 0x0 PUSH1 0x6 DUP3 DUP2 SLOAD DUP2 LT PUSH2 0xC43 JUMPI PUSH4 0x4E487B71 PUSH1 0xE0 SHL PUSH1 0x0 MSTORE PUSH1 0x32 PUSH1 0x4 MSTORE PUSH1 0x24 PUSH1 0x0 REVERT JUMPDEST SWAP1 PUSH1 0x0 MSTORE PUSH1 0x20 PUSH1 0x0 KECCAK256 ADD SLOAD SWAP1 POP PUSH1 0x8 PUSH1 0x0 DUP3 DUP2 MSTORE PUSH1 0x20 ADD SWAP1 DUP2 MSTORE PUSH1 0x20 ADD PUSH1 0x0 KECCAK256 PUSH1 0x5 ADD SLOAD DUP10 EQ ISZERO PUSH2 0xC74 JUMPI POP PUSH2 0xCAA JUMP JUMPDEST PUSH1 0x0 DUP2 DUP2 MSTORE PUSH1 0x8 PUSH1 0x20 MSTORE PUSH1 0x40 SWAP1 KECCAK256 PUSH1 0x4 ADD SLOAD DUP4 LT ISZERO PUSH2 0xCA8 JUMPI PUSH1 0x0 DUP2 DUP2 MSTORE PUSH1 0x8 PUSH1 0x20 MSTORE PUSH1 0x40 SWAP1 KECCAK256 PUSH1 0x4 ADD SLOAD SWAP2 SWAP4 POP SWAP1 SWAP2 POP DUP3 SWAP1 JUMPDEST POP JUMPDEST DUP1 PUSH2 0xCB4 DUP2 PUSH2 0x2484 JUMP JUMPDEST SWAP2 POP POP PUSH2 0xC16 JUMP JUMPDEST POP DUP8 DUP2 GT DUP1 PUSH2 0xCD3 JUMPI POP PUSH1 0x0 DUP2 GT DUP1 ISZERO PUSH2 0xCD3 JUMPI POP DUP6 JUMPDEST ISZERO PUSH2 0x1023 JUMPI PUSH1 0x0 PUSH1 0x6 DUP4 DUP2 SLOAD DUP2 LT PUSH2 0xCFB JUMPI PUSH4 0x4E487B71 PUSH1 0xE0 SHL PUSH1 0x0 MSTORE PUSH1 0x32 PUSH1 0x4 MSTORE PUSH1 0x24 PUSH1 0x0 REVERT JUMPDEST PUSH1 0x0 SWAP2 DUP3 MSTORE PUSH1 0x20 DUP1 DUP4 KECCAK256 SWAP1 SWAP2 ADD SLOAD DUP1 DUP4 MSTORE PUSH1 0x8 DUP3 MSTORE PUSH1 0x40 DUP1 DUP5 KECCAK256 DUP2 MLOAD PUSH1 0xC0 DUP2 ADD DUP4 MSTORE DUP2 SLOAD PUSH1 0x1 PUSH1 0x1 PUSH1 0xA0 SHL SUB SWAP1 DUP2 AND DUP3 MSTORE PUSH1 0x1 DUP4 ADD SLOAD AND SWAP5 DUP2 ADD SWAP5 SWAP1 SWAP5 MSTORE PUSH1 0x2 DUP2 ADD SLOAD SWAP2 DUP5 ADD SWAP2 SWAP1 SWAP2 MSTORE PUSH1 0x3 DUP2 ADD SLOAD PUSH1 0x60 DUP5 ADD MSTORE PUSH1 0x4 DUP2 ADD SLOAD PUSH1 0x80 DUP5 ADD MSTORE PUSH1 0x5 ADD SLOAD PUSH1 0xA0 DUP4 ADD MSTORE SWAP3 POP SWAP1 PUSH2 0xD70 PUSH1 0x64 DUP13 PUSH2 0x246D JUMP JUMPDEST DUP3 PUSH1 0x60 ADD MLOAD DUP4 PUSH1 0x40 ADD MLOAD PUSH2 0xD84 SWAP2 SWAP1 PUSH2 0x246D JUMP JUMPDEST PUSH2 0xD8E SWAP2 SWAP1 PUSH2 0x242E JUMP JUMPDEST SWAP1 POP PUSH2 0xD9B PUSH1 0x64 DUP3 PUSH2 0x244E JUMP JUMPDEST SWAP1 POP PUSH1 0x0 DUP1 PUSH1 0x0 DUP15 DUP5 GT PUSH2 0xE98 JUMPI DUP4 SWAP3 POP PUSH2 0xDB7 PUSH1 0x64 DUP16 PUSH2 0x246D JUMP JUMPDEST PUSH2 0xDC1 SWAP1 DUP6 PUSH2 0x244E JUMP JUMPDEST SWAP2 POP PUSH2 0xDCE PUSH1 0x64 DUP4 PUSH2 0x242E JUMP JUMPDEST SWAP2 POP DUP13 PUSH1 0x1 EQ ISZERO PUSH2 0xE36 JUMPI PUSH2 0xDE5 DUP11 DUP8 DUP6 DUP6 PUSH2 0x2155 JUMP JUMPDEST PUSH1 0x40 DUP1 MLOAD DUP13 DUP2 MSTORE PUSH1 0x20 DUP2 ADD DUP10 SWAP1 MSTORE SWAP1 DUP2 ADD DUP6 SWAP1 MSTORE PUSH1 0x60 DUP2 ADD DUP5 SWAP1 MSTORE SWAP1 SWAP2 POP PUSH32 0x5DE48BB383B4A2AAAD84721B80D93429B813651B0EEFBD59D32018CFE28215DC SWAP1 PUSH1 0x80 ADD JUMPDEST PUSH1 0x40 MLOAD DUP1 SWAP2 SUB SWAP1 LOG1 PUSH2 0xF36 JUMP JUMPDEST DUP13 PUSH1 0x2 EQ ISZERO PUSH2 0xE93 JUMPI PUSH2 0xE4B DUP7 DUP12 DUP5 DUP7 PUSH2 0x2155 JUMP JUMPDEST PUSH1 0x40 DUP1 MLOAD DUP9 DUP2 MSTORE PUSH1 0x20 DUP2 ADD DUP14 SWAP1 MSTORE SWAP1 DUP2 ADD DUP5 SWAP1 MSTORE PUSH1 0x60 DUP2 ADD DUP6 SWAP1 MSTORE SWAP1 SWAP2 POP PUSH32 0x5DE48BB383B4A2AAAD84721B80D93429B813651B0EEFBD59D32018CFE28215DC SWAP1 PUSH1 0x80 ADD PUSH2 0xE29 JUMP JUMPDEST PUSH2 0xF36 JUMP JUMPDEST DUP15 SWAP3 POP PUSH2 0xEA6 PUSH1 0x64 DUP16 PUSH2 0x246D JUMP JUMPDEST DUP16 PUSH2 0xEB1 SWAP2 SWAP1 PUSH2 0x244E JUMP JUMPDEST SWAP2 POP PUSH2 0xEBE PUSH1 0x64 DUP4 PUSH2 0x242E JUMP JUMPDEST SWAP2 POP DUP13 PUSH1 0x1 EQ ISZERO PUSH2 0xED5 JUMPI PUSH2 0xDE5 DUP11 DUP8 DUP6 DUP6 PUSH2 0x2155 JUMP JUMPDEST DUP13 PUSH1 0x2 EQ ISZERO PUSH2 0xF36 JUMPI PUSH2 0xEEA DUP7 DUP12 DUP5 DUP7 PUSH2 0x2155 JUMP JUMPDEST PUSH1 0x40 DUP1 MLOAD DUP9 DUP2 MSTORE PUSH1 0x20 DUP2 ADD DUP14 SWAP1 MSTORE SWAP1 DUP2 ADD DUP5 SWAP1 MSTORE PUSH1 0x60 DUP2 ADD DUP6 SWAP1 MSTORE SWAP1 SWAP2 POP PUSH32 0x5DE48BB383B4A2AAAD84721B80D93429B813651B0EEFBD59D32018CFE28215DC SWAP1 PUSH1 0x80 ADD PUSH1 0x40 MLOAD DUP1 SWAP2 SUB SWAP1 LOG1 JUMPDEST PUSH1 0x0 DUP11 DUP2 MSTORE PUSH1 0xB PUSH1 0x20 SWAP1 DUP2 MSTORE PUSH1 0x40 DUP1 DUP4 KECCAK256 DUP1 SLOAD PUSH1 0x1 DUP2 DUP2 ADD DUP4 SSTORE SWAP2 DUP6 MSTORE DUP4 DUP6 KECCAK256 ADD DUP6 SWAP1 SSTORE DUP10 DUP5 MSTORE DUP2 DUP5 KECCAK256 DUP1 SLOAD SWAP2 DUP3 ADD DUP2 SSTORE DUP5 MSTORE DUP3 DUP5 KECCAK256 ADD DUP5 SWAP1 SSTORE DUP13 DUP4 MSTORE PUSH1 0x8 SWAP1 SWAP2 MSTORE DUP2 KECCAK256 PUSH1 0x3 ADD DUP1 SLOAD DUP6 SWAP3 SWAP1 PUSH2 0xF8D SWAP1 DUP5 SWAP1 PUSH2 0x2416 JUMP JUMPDEST SWAP1 SWAP2 SSTORE POP POP PUSH1 0x0 DUP7 DUP2 MSTORE PUSH1 0x8 PUSH1 0x20 MSTORE PUSH1 0x40 DUP2 KECCAK256 PUSH1 0x3 ADD DUP1 SLOAD DUP5 SWAP3 SWAP1 PUSH2 0xFB3 SWAP1 DUP5 SWAP1 PUSH2 0x2416 JUMP JUMPDEST SWAP1 SWAP2 SSTORE POP POP PUSH1 0x0 DUP7 DUP2 MSTORE PUSH1 0x8 PUSH1 0x20 MSTORE PUSH1 0x40 SWAP1 KECCAK256 PUSH1 0x3 DUP2 ADD SLOAD PUSH1 0x2 SWAP1 SWAP2 ADD SLOAD PUSH2 0xFDB SWAP2 SWAP1 PUSH2 0x246D JUMP JUMPDEST PUSH2 0x100C JUMPI PUSH1 0x6 DUP9 DUP2 SLOAD DUP2 LT PUSH2 0x1000 JUMPI PUSH4 0x4E487B71 PUSH1 0xE0 SHL PUSH1 0x0 MSTORE PUSH1 0x32 PUSH1 0x4 MSTORE PUSH1 0x24 PUSH1 0x0 REVERT JUMPDEST PUSH1 0x0 SWAP2 DUP3 MSTORE PUSH1 0x20 DUP3 KECCAK256 ADD SSTORE JUMPDEST PUSH2 0x1016 DUP4 DUP11 PUSH2 0x246D JUMP JUMPDEST SWAP9 POP POP POP POP POP POP POP PUSH2 0x105F JUMP JUMPDEST POP POP PUSH1 0x6 DUP1 SLOAD PUSH1 0x1 DUP2 ADD DUP3 SSTORE PUSH1 0x0 SWAP2 SWAP1 SWAP2 MSTORE PUSH32 0xF652222313E28459528D920B65115C16C04F3EFC82AAEDC97BE59F3F377C0D3F ADD DUP3 SWAP1 SSTORE PUSH2 0x1066 JUMP JUMPDEST POP POP PUSH2 0xB79 JUMP JUMPDEST POP PUSH2 0x10A2 JUMP JUMPDEST PUSH1 0x6 DUP1 SLOAD PUSH1 0x1 DUP2 ADD DUP3 SSTORE PUSH1 0x0 SWAP2 SWAP1 SWAP2 MSTORE PUSH32 0xF652222313E28459528D920B65115C16C04F3EFC82AAEDC97BE59F3F377C0D3F ADD DUP2 SWAP1 SSTORE JUMPDEST PUSH1 0x40 DUP1 MLOAD CALLER DUP2 MSTORE ADDRESS PUSH1 0x20 DUP3 ADD MSTORE SWAP1 DUP2 ADD DUP3 SWAP1 MSTORE PUSH1 0x60 DUP2 ADD DUP8 SWAP1 MSTORE PUSH1 0x80 DUP2 ADD DUP7 SWAP1 MSTORE PUSH1 0xA0 DUP2 ADD DUP6 SWAP1 MSTORE PUSH32 0x618F358BB45538682ADE624A4A1959053D9DABD20FE300508034B879681B37BE SWAP1 PUSH1 0xC0 ADD PUSH1 0x40 MLOAD DUP1 SWAP2 SUB SWAP1 LOG1 SWAP8 SWAP7 POP POP POP POP POP POP POP JUMP JUMPDEST PUSH1 0x0 DUP2 DUP2 MSTORE PUSH1 0x8 PUSH1 0x20 SWAP1 DUP2 MSTORE PUSH1 0x40 SWAP2 DUP3 SWAP1 KECCAK256 DUP3 MLOAD PUSH1 0xC0 DUP2 ADD DUP5 MSTORE DUP2 SLOAD PUSH1 0x1 PUSH1 0x1 PUSH1 0xA0 SHL SUB SWAP1 DUP2 AND DUP1 DUP4 MSTORE PUSH1 0x1 DUP5 ADD SLOAD SWAP1 SWAP2 AND SWAP4 DUP3 ADD SWAP4 SWAP1 SWAP4 MSTORE PUSH1 0x2 DUP3 ADD SLOAD SWAP4 DUP2 ADD SWAP4 SWAP1 SWAP4 MSTORE PUSH1 0x3 DUP2 ADD SLOAD PUSH1 0x60 DUP5 ADD MSTORE PUSH1 0x4 DUP2 ADD SLOAD PUSH1 0x80 DUP5 ADD MSTORE PUSH1 0x5 ADD SLOAD PUSH1 0xA0 DUP4 ADD MSTORE CALLER EQ PUSH2 0x1197 JUMPI PUSH1 0x40 MLOAD PUSH3 0x461BCD PUSH1 0xE5 SHL DUP2 MSTORE PUSH1 0x20 PUSH1 0x4 DUP3 ADD MSTORE PUSH1 0x2 PUSH1 0x24 DUP3 ADD MSTORE PUSH2 0x134D PUSH1 0xF2 SHL PUSH1 0x44 DUP3 ADD MSTORE PUSH1 0x64 ADD PUSH2 0x34C JUMP JUMPDEST PUSH1 0x0 DUP2 PUSH1 0x60 ADD MLOAD DUP3 PUSH1 0x40 ADD MLOAD PUSH2 0x11AD SWAP2 SWAP1 PUSH2 0x246D JUMP JUMPDEST DUP3 MLOAD PUSH1 0x1 PUSH1 0x1 PUSH1 0xA0 SHL SUB AND PUSH1 0x0 SWAP1 DUP2 MSTORE PUSH1 0x7 PUSH1 0x20 MSTORE PUSH1 0x40 DUP2 KECCAK256 DUP1 SLOAD SWAP3 SWAP4 POP DUP4 SWAP3 SWAP1 SWAP2 SWAP1 PUSH2 0x11DB SWAP1 DUP5 SWAP1 PUSH2 0x2416 JUMP JUMPDEST SWAP1 SWAP2 SSTORE POP POP PUSH1 0x40 DUP1 DUP4 ADD MLOAD PUSH1 0x0 DUP6 DUP2 MSTORE PUSH1 0x8 PUSH1 0x20 MSTORE SWAP2 DUP3 KECCAK256 PUSH1 0x3 ADD SSTORE PUSH1 0x6 SLOAD SWAP1 JUMPDEST DUP2 DUP2 LT ISZERO PUSH2 0x1276 JUMPI DUP5 PUSH1 0x6 DUP3 DUP2 SLOAD DUP2 LT PUSH2 0x1226 JUMPI PUSH4 0x4E487B71 PUSH1 0xE0 SHL PUSH1 0x0 MSTORE PUSH1 0x32 PUSH1 0x4 MSTORE PUSH1 0x24 PUSH1 0x0 REVERT JUMPDEST SWAP1 PUSH1 0x0 MSTORE PUSH1 0x20 PUSH1 0x0 KECCAK256 ADD SLOAD EQ ISZERO PUSH2 0x1264 JUMPI PUSH1 0x6 DUP2 DUP2 SLOAD DUP2 LT PUSH2 0x1258 JUMPI PUSH4 0x4E487B71 PUSH1 0xE0 SHL PUSH1 0x0 MSTORE PUSH1 0x32 PUSH1 0x4 MSTORE PUSH1 0x24 PUSH1 0x0 REVERT JUMPDEST PUSH1 0x0 SWAP2 DUP3 MSTORE PUSH1 0x20 DUP3 KECCAK256 ADD SSTORE JUMPDEST DUP1 PUSH2 0x126E DUP2 PUSH2 0x2484 JUMP JUMPDEST SWAP2 POP POP PUSH2 0x11FC JUMP JUMPDEST POP CALLER PUSH1 0x0 SWAP1 DUP2 MSTORE PUSH1 0x7 PUSH1 0x20 MSTORE PUSH1 0x40 SWAP1 KECCAK256 SLOAD ISZERO PUSH2 0x66D JUMPI PUSH2 0x1295 CALLER PUSH2 0x2FB JUMP JUMPDEST POP POP POP POP POP JUMP JUMPDEST PUSH1 0x1 SLOAD PUSH1 0x0 SWAP1 PUSH1 0x1 PUSH1 0x1 PUSH1 0xA0 SHL SUB AND CALLER EQ DUP1 PUSH2 0x1359 JUMPI POP PUSH32 0x0 PUSH1 0x1 PUSH1 0x1 PUSH1 0xA0 SHL SUB AND PUSH4 0xCE606EE0 PUSH1 0x40 MLOAD DUP2 PUSH4 0xFFFFFFFF AND PUSH1 0xE0 SHL DUP2 MSTORE PUSH1 0x4 ADD PUSH1 0x20 PUSH1 0x40 MLOAD DUP1 DUP4 SUB DUP2 DUP7 DUP1 EXTCODESIZE ISZERO DUP1 ISZERO PUSH2 0x130C JUMPI PUSH1 0x0 DUP1 REVERT JUMPDEST POP GAS STATICCALL ISZERO DUP1 ISZERO PUSH2 0x1320 JUMPI RETURNDATASIZE PUSH1 0x0 DUP1 RETURNDATACOPY RETURNDATASIZE PUSH1 0x0 REVERT JUMPDEST POP POP POP POP PUSH1 0x40 MLOAD RETURNDATASIZE PUSH1 0x1F NOT PUSH1 0x1F DUP3 ADD AND DUP3 ADD DUP1 PUSH1 0x40 MSTORE POP DUP2 ADD SWAP1 PUSH2 0x1344 SWAP2 SWAP1 PUSH2 0x22A8 JUMP JUMPDEST PUSH1 0x1 PUSH1 0x1 PUSH1 0xA0 SHL SUB AND CALLER PUSH1 0x1 PUSH1 0x1 PUSH1 0xA0 SHL SUB AND EQ JUMPDEST DUP1 PUSH2 0x136E JUMPI POP PUSH1 0x2 SLOAD PUSH1 0x1 PUSH1 0x1 PUSH1 0xA0 SHL SUB AND CALLER EQ JUMPDEST PUSH2 0x138A JUMPI PUSH1 0x40 MLOAD PUSH3 0x461BCD PUSH1 0xE5 SHL DUP2 MSTORE PUSH1 0x4 ADD PUSH2 0x34C SWAP1 PUSH2 0x23FA JUMP JUMPDEST PUSH1 0x3 SLOAD ISZERO DUP1 PUSH2 0x139B JUMPI POP PUSH1 0x3 SLOAD PUSH1 0x4 EQ JUMPDEST DUP1 ISZERO PUSH2 0x13B1 JUMPI POP DUP2 PUSH1 0x1 EQ DUP1 PUSH2 0x13B1 JUMPI POP DUP2 PUSH1 0x2 EQ JUMPDEST ISZERO PUSH2 0x141A JUMPI PUSH1 0x3 DUP3 SWAP1 SSTORE PUSH1 0x4 SLOAD PUSH1 0x0 JUMPDEST DUP2 DUP2 LT ISZERO PUSH2 0x1410 JUMPI PUSH2 0x13FD PUSH1 0x4 DUP3 DUP2 SLOAD DUP2 LT PUSH2 0x13ED JUMPI PUSH4 0x4E487B71 PUSH1 0xE0 SHL PUSH1 0x0 MSTORE PUSH1 0x32 PUSH1 0x4 MSTORE PUSH1 0x24 PUSH1 0x0 REVERT JUMPDEST SWAP1 PUSH1 0x0 MSTORE PUSH1 0x20 PUSH1 0x0 KECCAK256 ADD SLOAD PUSH2 0x15CE JUMP JUMPDEST POP DUP1 PUSH2 0x1408 DUP2 PUSH2 0x2484 JUMP JUMPDEST SWAP2 POP POP PUSH2 0x13C1 JUMP JUMPDEST POP PUSH1 0x1 SWAP4 SWAP3 POP POP POP JUMP JUMPDEST POP PUSH1 0x0 SWAP2 SWAP1 POP JUMP JUMPDEST PUSH1 0x1 SLOAD PUSH1 0x0 SWAP1 PUSH1 0x1 PUSH1 0x1 PUSH1 0xA0 SHL SUB AND CALLER EQ DUP1 PUSH2 0x14DF JUMPI POP PUSH32 0x0 PUSH1 0x1 PUSH1 0x1 PUSH1 0xA0 SHL SUB AND PUSH4 0xCE606EE0 PUSH1 0x40 MLOAD DUP2 PUSH4 0xFFFFFFFF AND PUSH1 0xE0 SHL DUP2 MSTORE PUSH1 0x4 ADD PUSH1 0x20 PUSH1 0x40 MLOAD DUP1 DUP4 SUB DUP2 DUP7 DUP1 EXTCODESIZE ISZERO DUP1 ISZERO PUSH2 0x1492 JUMPI PUSH1 0x0 DUP1 REVERT JUMPDEST POP GAS STATICCALL ISZERO DUP1 ISZERO PUSH2 0x14A6 JUMPI RETURNDATASIZE PUSH1 0x0 DUP1 RETURNDATACOPY RETURNDATASIZE PUSH1 0x0 REVERT JUMPDEST POP POP POP POP PUSH1 0x40 MLOAD RETURNDATASIZE PUSH1 0x1F NOT PUSH1 0x1F DUP3 ADD AND DUP3 ADD DUP1 PUSH1 0x40 MSTORE POP DUP2 ADD SWAP1 PUSH2 0x14CA SWAP2 SWAP1 PUSH2 0x22A8 JUMP JUMPDEST PUSH1 0x1 PUSH1 0x1 PUSH1 0xA0 SHL SUB AND CALLER PUSH1 0x1 PUSH1 0x1 PUSH1 0xA0 SHL SUB AND EQ JUMPDEST DUP1 PUSH2 0x14F4 JUMPI POP PUSH1 0x2 SLOAD PUSH1 0x1 PUSH1 0x1 PUSH1 0xA0 SHL SUB AND CALLER EQ JUMPDEST PUSH2 0x1510 JUMPI PUSH1 0x40 MLOAD PUSH3 0x461BCD PUSH1 0xE5 SHL DUP2 MSTORE PUSH1 0x4 ADD PUSH2 0x34C SWAP1 PUSH2 0x23FA JUMP JUMPDEST PUSH1 0x3 SLOAD PUSH2 0x7D8 JUMPI POP PUSH1 0x4 PUSH1 0x3 SSTORE PUSH1 0x1 SWAP1 JUMP JUMPDEST PUSH1 0x3 SLOAD PUSH2 0x15CB JUMPI PUSH1 0x0 DUP2 DUP2 MSTORE PUSH1 0xB PUSH1 0x20 SWAP1 DUP2 MSTORE PUSH1 0x40 DUP1 DUP4 KECCAK256 DUP1 SLOAD DUP3 MLOAD DUP2 DUP6 MUL DUP2 ADD DUP6 ADD SWAP1 SWAP4 MSTORE DUP1 DUP4 MSTORE SWAP2 SWAP3 SWAP1 SWAP2 SWAP1 DUP4 ADD DUP3 DUP3 DUP1 ISZERO PUSH2 0x157F JUMPI PUSH1 0x20 MUL DUP3 ADD SWAP2 SWAP1 PUSH1 0x0 MSTORE PUSH1 0x20 PUSH1 0x0 KECCAK256 SWAP1 JUMPDEST DUP2 SLOAD DUP2 MSTORE PUSH1 0x20 ADD SWAP1 PUSH1 0x1 ADD SWAP1 DUP1 DUP4 GT PUSH2 0x156B JUMPI JUMPDEST POP POP DUP4 MLOAD SWAP4 SWAP5 POP PUSH1 0x0 SWAP3 POP POP POP JUMPDEST DUP2 DUP2 LT ISZERO PUSH2 0x66D JUMPI PUSH2 0x15B8 DUP4 DUP3 DUP2 MLOAD DUP2 LT PUSH2 0x62E JUMPI PUSH4 0x4E487B71 PUSH1 0xE0 SHL PUSH1 0x0 MSTORE PUSH1 0x32 PUSH1 0x4 MSTORE PUSH1 0x24 PUSH1 0x0 REVERT JUMPDEST POP DUP1 PUSH2 0x15C3 DUP2 PUSH2 0x2484 JUMP JUMPDEST SWAP2 POP POP PUSH2 0x158D JUMP JUMPDEST POP JUMP JUMPDEST PUSH1 0x0 PUSH1 0x2 PUSH1 0x0 SLOAD EQ ISZERO PUSH2 0x1623 JUMPI PUSH1 0x40 MLOAD PUSH3 0x461BCD PUSH1 0xE5 SHL DUP2 MSTORE PUSH1 0x20 PUSH1 0x4 DUP3 ADD MSTORE PUSH1 0x1F PUSH1 0x24 DUP3 ADD MSTORE PUSH32 0x5265656E7472616E637947756172643A207265656E7472616E742063616C6C00 PUSH1 0x44 DUP3 ADD MSTORE PUSH1 0x64 ADD PUSH2 0x34C JUMP JUMPDEST PUSH1 0x2 PUSH1 0x0 SWAP1 DUP2 SSTORE DUP3 DUP2 MSTORE PUSH1 0xA PUSH1 0x20 MSTORE PUSH1 0x40 SWAP1 KECCAK256 PUSH1 0x4 ADD SLOAD PUSH1 0xFF AND ISZERO PUSH2 0x164A JUMPI POP PUSH1 0x0 PUSH2 0x595 JUMP JUMPDEST PUSH1 0x0 DUP1 PUSH1 0x0 DUP1 PUSH1 0x3 SLOAD PUSH1 0x1 EQ ISZERO PUSH2 0x184D JUMPI PUSH1 0x0 DUP7 DUP2 MSTORE PUSH1 0xA PUSH1 0x20 SWAP1 DUP2 MSTORE PUSH1 0x40 DUP1 DUP4 KECCAK256 SLOAD DUP4 MSTORE PUSH1 0x8 DUP3 MSTORE SWAP2 DUP3 SWAP1 KECCAK256 SLOAD DUP3 MLOAD PUSH4 0x55C4A8BF PUSH1 0xE0 SHL DUP2 MSTORE SWAP3 MLOAD PUSH1 0x1 PUSH1 0x1 PUSH1 0xA0 SHL SUB SWAP2 DUP3 AND SWAP8 POP PUSH1 0x64 SWAP4 PUSH32 0x0 SWAP1 SWAP3 AND SWAP3 PUSH4 0x55C4A8BF SWAP3 PUSH1 0x4 DUP1 DUP3 ADD SWAP4 SWAP2 DUP3 SWAP1 SUB ADD DUP2 DUP7 DUP1 EXTCODESIZE ISZERO DUP1 ISZERO PUSH2 0x16DC JUMPI PUSH1 0x0 DUP1 REVERT JUMPDEST POP GAS STATICCALL ISZERO DUP1 ISZERO PUSH2 0x16F0 JUMPI RETURNDATASIZE PUSH1 0x0 DUP1 RETURNDATACOPY RETURNDATASIZE PUSH1 0x0 REVERT JUMPDEST POP POP POP POP PUSH1 0x40 MLOAD RETURNDATASIZE PUSH1 0x1F NOT PUSH1 0x1F DUP3 ADD AND DUP3 ADD DUP1 PUSH1 0x40 MSTORE POP DUP2 ADD SWAP1 PUSH2 0x1714 SWAP2 SWAP1 PUSH2 0x235E JUMP JUMPDEST PUSH2 0x171F SWAP1 PUSH1 0x64 PUSH2 0x246D JUMP JUMPDEST PUSH1 0x0 DUP9 DUP2 MSTORE PUSH1 0xA PUSH1 0x20 MSTORE PUSH1 0x40 SWAP1 KECCAK256 PUSH1 0x3 ADD SLOAD PUSH2 0x173B SWAP2 SWAP1 PUSH2 0x244E JUMP JUMPDEST PUSH2 0x1745 SWAP2 SWAP1 PUSH2 0x242E JUMP JUMPDEST PUSH1 0x0 DUP8 DUP2 MSTORE PUSH1 0xA PUSH1 0x20 MSTORE PUSH1 0x40 SWAP1 KECCAK256 PUSH1 0x2 ADD SLOAD PUSH2 0x1761 SWAP2 SWAP1 PUSH2 0x2416 JUMP JUMPDEST SWAP2 POP PUSH1 0x64 PUSH32 0x0 PUSH1 0x1 PUSH1 0x1 PUSH1 0xA0 SHL SUB AND PUSH4 0x55C4A8BF PUSH1 0x40 MLOAD DUP2 PUSH4 0xFFFFFFFF AND PUSH1 0xE0 SHL DUP2 MSTORE PUSH1 0x4 ADD PUSH1 0x20 PUSH1 0x40 MLOAD DUP1 DUP4 SUB DUP2 DUP7 DUP1 EXTCODESIZE ISZERO DUP1 ISZERO PUSH2 0x17BE JUMPI PUSH1 0x0 DUP1 REVERT JUMPDEST POP GAS STATICCALL ISZERO DUP1 ISZERO PUSH2 0x17D2 JUMPI RETURNDATASIZE PUSH1 0x0 DUP1 RETURNDATACOPY RETURNDATASIZE PUSH1 0x0 REVERT JUMPDEST POP POP POP POP PUSH1 0x40 MLOAD RETURNDATASIZE PUSH1 0x1F NOT PUSH1 0x1F DUP3 ADD AND DUP3 ADD DUP1 PUSH1 0x40 MSTORE POP DUP2 ADD SWAP1 PUSH2 0x17F6 SWAP2 SWAP1 PUSH2 0x235E JUMP JUMPDEST PUSH1 0x0 DUP9 DUP2 MSTORE PUSH1 0xA PUSH1 0x20 MSTORE PUSH1 0x40 SWAP1 KECCAK256 PUSH1 0x3 ADD SLOAD PUSH2 0x1812 SWAP2 SWAP1 PUSH2 0x244E JUMP JUMPDEST PUSH2 0x181C SWAP2 SWAP1 PUSH2 0x242E JUMP JUMPDEST PUSH1 0x0 DUP8 DUP2 MSTORE PUSH1 0xA PUSH1 0x20 SWAP1 DUP2 MSTORE PUSH1 0x40 DUP1 DUP4 KECCAK256 SLOAD DUP4 MSTORE PUSH1 0x8 SWAP1 SWAP2 MSTORE SWAP1 KECCAK256 PUSH1 0x1 ADD SLOAD PUSH1 0x1 PUSH1 0x1 PUSH1 0xA0 SHL SUB AND SWAP4 POP SWAP1 POP PUSH2 0x1A5E JUMP JUMPDEST PUSH1 0x3 SLOAD PUSH1 0x2 EQ ISZERO PUSH2 0x1A51 JUMPI PUSH1 0x0 DUP7 DUP2 MSTORE PUSH1 0xA PUSH1 0x20 SWAP1 DUP2 MSTORE PUSH1 0x40 DUP1 DUP4 KECCAK256 PUSH1 0x1 ADD SLOAD DUP4 MSTORE PUSH1 0x8 DUP3 MSTORE SWAP2 DUP3 SWAP1 KECCAK256 SLOAD DUP3 MLOAD PUSH4 0x55C4A8BF PUSH1 0xE0 SHL DUP2 MSTORE SWAP3 MLOAD PUSH1 0x1 PUSH1 0x1 PUSH1 0xA0 SHL SUB SWAP2 DUP3 AND SWAP8 POP PUSH1 0x64 SWAP4 PUSH32 0x0 SWAP1 SWAP3 AND SWAP3 PUSH4 0x55C4A8BF SWAP3 PUSH1 0x4 DUP1 DUP3 ADD SWAP4 SWAP2 DUP3 SWAP1 SUB ADD DUP2 DUP7 DUP1 EXTCODESIZE ISZERO DUP1 ISZERO PUSH2 0x18DC JUMPI PUSH1 0x0 DUP1 REVERT JUMPDEST POP GAS STATICCALL ISZERO DUP1 ISZERO PUSH2 0x18F0 JUMPI RETURNDATASIZE PUSH1 0x0 DUP1 RETURNDATACOPY RETURNDATASIZE PUSH1 0x0 REVERT JUMPDEST POP POP POP POP PUSH1 0x40 MLOAD RETURNDATASIZE PUSH1 0x1F NOT PUSH1 0x1F DUP3 ADD AND DUP3 ADD DUP1 PUSH1 0x40 MSTORE POP DUP2 ADD SWAP1 PUSH2 0x1914 SWAP2 SWAP1 PUSH2 0x235E JUMP JUMPDEST PUSH2 0x191F SWAP1 PUSH1 0x64 PUSH2 0x246D JUMP JUMPDEST PUSH1 0x0 DUP9 DUP2 MSTORE PUSH1 0xA PUSH1 0x20 MSTORE PUSH1 0x40 SWAP1 KECCAK256 PUSH1 0x2 ADD SLOAD PUSH2 0x193B SWAP2 SWAP1 PUSH2 0x244E JUMP JUMPDEST PUSH2 0x1945 SWAP2 SWAP1 PUSH2 0x242E JUMP JUMPDEST PUSH1 0x0 DUP8 DUP2 MSTORE PUSH1 0xA PUSH1 0x20 MSTORE PUSH1 0x40 SWAP1 KECCAK256 PUSH1 0x3 ADD SLOAD PUSH2 0x1961 SWAP2 SWAP1 PUSH2 0x2416 JUMP JUMPDEST SWAP2 POP PUSH1 0x64 PUSH32 0x0 PUSH1 0x1 PUSH1 0x1 PUSH1 0xA0 SHL SUB AND PUSH4 0x55C4A8BF PUSH1 0x40 MLOAD DUP2 PUSH4 0xFFFFFFFF AND PUSH1 0xE0 SHL DUP2 MSTORE PUSH1 0x4 ADD PUSH1 0x20 PUSH1 0x40 MLOAD DUP1 DUP4 SUB DUP2 DUP7 DUP1 EXTCODESIZE ISZERO DUP1 ISZERO PUSH2 0x19BE JUMPI PUSH1 0x0 DUP1 REVERT JUMPDEST POP GAS STATICCALL ISZERO DUP1 ISZERO PUSH2 0x19D2 JUMPI RETURNDATASIZE PUSH1 0x0 DUP1 RETURNDATACOPY RETURNDATASIZE PUSH1 0x0 REVERT JUMPDEST POP POP POP POP PUSH1 0x40 MLOAD RETURNDATASIZE PUSH1 0x1F NOT PUSH1 0x1F DUP3 ADD AND DUP3 ADD DUP1 PUSH1 0x40 MSTORE POP DUP2 ADD SWAP1 PUSH2 0x19F6 SWAP2 SWAP1 PUSH2 0x235E JUMP JUMPDEST PUSH1 0x0 DUP9 DUP2 MSTORE PUSH1 0xA PUSH1 0x20 MSTORE PUSH1 0x40 SWAP1 KECCAK256 PUSH1 0x2 ADD SLOAD PUSH2 0x1A12 SWAP2 SWAP1 PUSH2 0x244E JUMP JUMPDEST PUSH2 0x1A1C SWAP2 SWAP1 PUSH2 0x242E JUMP JUMPDEST PUSH1 0x0 DUP8 DUP2 MSTORE PUSH1 0xA PUSH1 0x20 SWAP1 DUP2 MSTORE PUSH1 0x40 DUP1 DUP4 KECCAK256 PUSH1 0x1 SWAP1 DUP2 ADD SLOAD DUP5 MSTORE PUSH1 0x8 SWAP1 SWAP3 MSTORE SWAP1 SWAP2 KECCAK256 ADD SLOAD PUSH1 0x1 PUSH1 0x1 PUSH1 0xA0 SHL SUB AND SWAP4 POP SWAP1 POP PUSH2 0x1A5E JUMP JUMPDEST PUSH1 0x0 SWAP5 POP POP POP POP POP PUSH2 0x595 JUMP JUMPDEST PUSH1 0x1 PUSH1 0x1 PUSH1 0xA0 SHL SUB DUP4 AND PUSH2 0x1B00 JUMPI PUSH32 0x0 PUSH1 0x1 PUSH1 0x1 PUSH1 0xA0 SHL SUB AND PUSH4 0x9953B2F PUSH1 0x40 MLOAD DUP2 PUSH4 0xFFFFFFFF AND PUSH1 0xE0 SHL DUP2 MSTORE PUSH1 0x4 ADD PUSH1 0x20 PUSH1 0x40 MLOAD DUP1 DUP4 SUB DUP2 DUP7 DUP1 EXTCODESIZE ISZERO DUP1 ISZERO PUSH2 0x1AC5 JUMPI PUSH1 0x0 DUP1 REVERT JUMPDEST POP GAS STATICCALL ISZERO DUP1 ISZERO PUSH2 0x1AD9 JUMPI RETURNDATASIZE PUSH1 0x0 DUP1 RETURNDATACOPY RETURNDATASIZE PUSH1 0x0 REVERT JUMPDEST POP POP POP POP PUSH1 0x40 MLOAD RETURNDATASIZE PUSH1 0x1F NOT PUSH1 0x1F DUP3 ADD AND DUP3 ADD DUP1 PUSH1 0x40 MSTORE POP DUP2 ADD SWAP1 PUSH2 0x1AFD SWAP2 SWAP1 PUSH2 0x22A8 JUMP JUMPDEST SWAP3 POP JUMPDEST PUSH1 0x1 PUSH1 0x1 PUSH1 0xA0 SHL SUB DUP5 AND PUSH1 0x0 SWAP1 DUP2 MSTORE PUSH1 0x7 PUSH1 0x20 MSTORE PUSH1 0x40 DUP2 KECCAK256 DUP1 SLOAD DUP5 SWAP3 SWAP1 PUSH2 0x1B28 SWAP1 DUP5 SWAP1 PUSH2 0x2416 JUMP JUMPDEST SWAP3 POP POP DUP2 SWAP1 SSTORE POP PUSH1 0x64 PUSH32 0x0 PUSH1 0x1 PUSH1 0x1 PUSH1 0xA0 SHL SUB AND PUSH4 0x6A0CCD9D PUSH1 0x40 MLOAD DUP2 PUSH4 0xFFFFFFFF AND PUSH1 0xE0 SHL DUP2 MSTORE PUSH1 0x4 ADD PUSH1 0x20 PUSH1 0x40 MLOAD DUP1 DUP4 SUB DUP2 DUP7 DUP1 EXTCODESIZE ISZERO DUP1 ISZERO PUSH2 0x1B8A JUMPI PUSH1 0x0 DUP1 REVERT JUMPDEST POP GAS STATICCALL ISZERO DUP1 ISZERO PUSH2 0x1B9E JUMPI RETURNDATASIZE PUSH1 0x0 DUP1 RETURNDATACOPY RETURNDATASIZE PUSH1 0x0 REVERT JUMPDEST POP POP POP POP PUSH1 0x40 MLOAD RETURNDATASIZE PUSH1 0x1F NOT PUSH1 0x1F DUP3 ADD AND DUP3 ADD DUP1 PUSH1 0x40 MSTORE POP DUP2 ADD SWAP1 PUSH2 0x1BC2 SWAP2 SWAP1 PUSH2 0x235E JUMP JUMPDEST PUSH2 0x1BCC SWAP1 DUP4 PUSH2 0x244E JUMP JUMPDEST PUSH2 0x1BD6 SWAP2 SWAP1 PUSH2 0x242E JUMP JUMPDEST PUSH1 0x7 PUSH1 0x0 PUSH32 0x0 PUSH1 0x1 PUSH1 0x1 PUSH1 0xA0 SHL SUB AND PUSH4 0xB7640A54 PUSH1 0x40 MLOAD DUP2 PUSH4 0xFFFFFFFF AND PUSH1 0xE0 SHL DUP2 MSTORE PUSH1 0x4 ADD PUSH1 0x20 PUSH1 0x40 MLOAD DUP1 DUP4 SUB DUP2 DUP7 DUP1 EXTCODESIZE ISZERO DUP1 ISZERO PUSH2 0x1C33 JUMPI PUSH1 0x0 DUP1 REVERT JUMPDEST POP GAS STATICCALL ISZERO DUP1 ISZERO PUSH2 0x1C47 JUMPI RETURNDATASIZE PUSH1 0x0 DUP1 RETURNDATACOPY RETURNDATASIZE PUSH1 0x0 REVERT JUMPDEST POP POP POP POP PUSH1 0x40 MLOAD RETURNDATASIZE PUSH1 0x1F NOT PUSH1 0x1F DUP3 ADD AND DUP3 ADD DUP1 PUSH1 0x40 MSTORE POP DUP2 ADD SWAP1 PUSH2 0x1C6B SWAP2 SWAP1 PUSH2 0x22A8 JUMP JUMPDEST PUSH1 0x1 PUSH1 0x1 PUSH1 0xA0 SHL SUB AND PUSH1 0x1 PUSH1 0x1 PUSH1 0xA0 SHL SUB AND DUP2 MSTORE PUSH1 0x20 ADD SWAP1 DUP2 MSTORE PUSH1 0x20 ADD PUSH1 0x0 KECCAK256 PUSH1 0x0 DUP3 DUP3 SLOAD PUSH2 0x1C9A SWAP2 SWAP1 PUSH2 0x2416 JUMP JUMPDEST SWAP3 POP POP DUP2 SWAP1 SSTORE POP PUSH1 0x64 PUSH32 0x0 PUSH1 0x1 PUSH1 0x1 PUSH1 0xA0 SHL SUB AND PUSH4 0x28576D45 PUSH1 0x40 MLOAD DUP2 PUSH4 0xFFFFFFFF AND PUSH1 0xE0 SHL DUP2 MSTORE PUSH1 0x4 ADD PUSH1 0x20 PUSH1 0x40 MLOAD DUP1 DUP4 SUB DUP2 DUP7 DUP1 EXTCODESIZE ISZERO DUP1 ISZERO PUSH2 0x1CFC JUMPI PUSH1 0x0 DUP1 REVERT JUMPDEST POP GAS STATICCALL ISZERO DUP1 ISZERO PUSH2 0x1D10 JUMPI RETURNDATASIZE PUSH1 0x0 DUP1 RETURNDATACOPY RETURNDATASIZE PUSH1 0x0 REVERT JUMPDEST POP POP POP POP PUSH1 0x40 MLOAD RETURNDATASIZE PUSH1 0x1F NOT PUSH1 0x1F DUP3 ADD AND DUP3 ADD DUP1 PUSH1 0x40 MSTORE POP DUP2 ADD SWAP1 PUSH2 0x1D34 SWAP2 SWAP1 PUSH2 0x235E JUMP JUMPDEST PUSH2 0x1D3E SWAP1 DUP4 PUSH2 0x244E JUMP JUMPDEST PUSH2 0x1D48 SWAP2 SWAP1 PUSH2 0x242E JUMP JUMPDEST PUSH1 0x7 PUSH1 0x0 PUSH32 0x0 PUSH1 0x1 PUSH1 0x1 PUSH1 0xA0 SHL SUB AND PUSH4 0x9953B2F PUSH1 0x40 MLOAD DUP2 PUSH4 0xFFFFFFFF AND PUSH1 0xE0 SHL DUP2 MSTORE PUSH1 0x4 ADD PUSH1 0x20 PUSH1 0x40 MLOAD DUP1 DUP4 SUB DUP2 DUP7 DUP1 EXTCODESIZE ISZERO DUP1 ISZERO PUSH2 0x1DA5 JUMPI PUSH1 0x0 DUP1 REVERT JUMPDEST POP GAS STATICCALL ISZERO DUP1 ISZERO PUSH2 0x1DB9 JUMPI RETURNDATASIZE PUSH1 0x0 DUP1 RETURNDATACOPY RETURNDATASIZE PUSH1 0x0 REVERT JUMPDEST POP POP POP POP PUSH1 0x40 MLOAD RETURNDATASIZE PUSH1 0x1F NOT PUSH1 0x1F DUP3 ADD AND DUP3 ADD DUP1 PUSH1 0x40 MSTORE POP DUP2 ADD SWAP1 PUSH2 0x1DDD SWAP2 SWAP1 PUSH2 0x22A8 JUMP JUMPDEST PUSH1 0x1 PUSH1 0x1 PUSH1 0xA0 SHL SUB AND PUSH1 0x1 PUSH1 0x1 PUSH1 0xA0 SHL SUB AND DUP2 MSTORE PUSH1 0x20 ADD SWAP1 DUP2 MSTORE PUSH1 0x20 ADD PUSH1 0x0 KECCAK256 PUSH1 0x0 DUP3 DUP3 SLOAD PUSH2 0x1E0C SWAP2 SWAP1 PUSH2 0x2416 JUMP JUMPDEST SWAP3 POP POP DUP2 SWAP1 SSTORE POP PUSH1 0x64 PUSH32 0x0 PUSH1 0x1 PUSH1 0x1 PUSH1 0xA0 SHL SUB AND PUSH4 0x54CD1A5C PUSH1 0x40 MLOAD DUP2 PUSH4 0xFFFFFFFF AND PUSH1 0xE0 SHL DUP2 MSTORE PUSH1 0x4 ADD PUSH1 0x20 PUSH1 0x40 MLOAD DUP1 DUP4 SUB DUP2 DUP7 DUP1 EXTCODESIZE ISZERO DUP1 ISZERO PUSH2 0x1E6E JUMPI PUSH1 0x0 DUP1 REVERT JUMPDEST POP GAS STATICCALL ISZERO DUP1 ISZERO PUSH2 0x1E82 JUMPI RETURNDATASIZE PUSH1 0x0 DUP1 RETURNDATACOPY RETURNDATASIZE PUSH1 0x0 REVERT JUMPDEST POP POP POP POP PUSH1 0x40 MLOAD RETURNDATASIZE PUSH1 0x1F NOT PUSH1 0x1F DUP3 ADD AND DUP3 ADD DUP1 PUSH1 0x40 MSTORE POP DUP2 ADD SWAP1 PUSH2 0x1EA6 SWAP2 SWAP1 PUSH2 0x235E JUMP JUMPDEST PUSH2 0x1EB0 SWAP1 DUP4 PUSH2 0x244E JUMP JUMPDEST PUSH2 0x1EBA SWAP2 SWAP1 PUSH2 0x242E JUMP JUMPDEST PUSH1 0x1 PUSH1 0x1 PUSH1 0xA0 SHL SUB DUP5 AND PUSH1 0x0 SWAP1 DUP2 MSTORE PUSH1 0x7 PUSH1 0x20 MSTORE PUSH1 0x40 DUP2 KECCAK256 DUP1 SLOAD SWAP1 SWAP2 SWAP1 PUSH2 0x1EE2 SWAP1 DUP5 SWAP1 PUSH2 0x2416 JUMP JUMPDEST SWAP1 SWAP2 SSTORE POP POP POP PUSH1 0x0 SWAP5 DUP6 MSTORE POP POP PUSH1 0xA PUSH1 0x20 MSTORE POP POP PUSH1 0x40 DUP2 KECCAK256 PUSH1 0x4 ADD DUP1 SLOAD PUSH1 0xFF NOT AND PUSH1 0x1 SWAP1 DUP2 OR SWAP1 SWAP2 SSTORE SWAP1 DUP2 SWAP1 SSTORE SWAP1 JUMP JUMPDEST PUSH1 0x0 DUP2 DUP2 MSTORE PUSH1 0xA PUSH1 0x20 SWAP1 DUP2 MSTORE PUSH1 0x40 DUP1 DUP4 KECCAK256 DUP1 SLOAD DUP5 MSTORE PUSH1 0x8 DUP4 MSTORE DUP2 DUP5 KECCAK256 SLOAD PUSH1 0x1 DUP3 ADD SLOAD DUP6 MSTORE DUP3 DUP6 KECCAK256 SLOAD PUSH1 0x2 SWAP1 SWAP3 ADD SLOAD PUSH1 0x1 PUSH1 0x1 PUSH1 0xA0 SHL SUB SWAP2 DUP3 AND DUP1 DUP8 MSTORE PUSH1 0x7 SWAP1 SWAP6 MSTORE SWAP3 DUP6 KECCAK256 DUP1 SLOAD SWAP5 SWAP6 SWAP2 SWAP1 SWAP3 AND SWAP4 PUSH2 0x1F6A SWAP1 DUP5 SWAP1 PUSH2 0x2416 JUMP JUMPDEST SWAP1 SWAP2 SSTORE POP POP PUSH1 0x0 DUP4 DUP2 MSTORE PUSH1 0xA PUSH1 0x20 SWAP1 DUP2 MSTORE PUSH1 0x40 DUP1 DUP4 KECCAK256 PUSH1 0x3 ADD SLOAD PUSH1 0x1 PUSH1 0x1 PUSH1 0xA0 SHL SUB DUP6 AND DUP5 MSTORE PUSH1 0x7 SWAP1 SWAP3 MSTORE DUP3 KECCAK256 DUP1 SLOAD SWAP2 SWAP3 SWAP1 SWAP2 PUSH2 0x1FA8 SWAP1 DUP5 SWAP1 PUSH2 0x2416 JUMP JUMPDEST SWAP1 SWAP2 SSTORE POP POP POP PUSH1 0x0 SWAP2 DUP3 MSTORE POP PUSH1 0xA PUSH1 0x20 MSTORE PUSH1 0x40 SWAP1 KECCAK256 PUSH1 0x4 ADD DUP1 SLOAD PUSH1 0xFF NOT AND PUSH1 0x1 OR SWAP1 SSTORE JUMP JUMPDEST PUSH1 0x0 DUP1 PUSH1 0x0 JUMPDEST PUSH1 0x5 SLOAD DUP10 SWAP1 ADDRESS SWAP1 DUP4 SWAP1 PUSH2 0x1FE7 SWAP1 PUSH1 0x1 PUSH2 0x2416 JUMP JUMPDEST PUSH2 0x1FF1 SWAP2 SWAP1 PUSH2 0x2416 JUMP JUMPDEST PUSH1 0x40 MLOAD PUSH12 0xFFFFFFFFFFFFFFFFFFFFFFFF NOT PUSH1 0x60 SWAP5 DUP6 SHL DUP2 AND PUSH1 0x20 DUP4 ADD MSTORE SWAP3 SWAP1 SWAP4 SHL SWAP1 SWAP2 AND PUSH1 0x34 DUP4 ADD MSTORE PUSH1 0x48 DUP3 ADD MSTORE TIMESTAMP PUSH1 0x68 DUP3 ADD MSTORE DIFFICULTY PUSH1 0x88 DUP3 ADD MSTORE PUSH1 0xA8 ADD PUSH1 0x40 DUP1 MLOAD PUSH1 0x1F NOT DUP2 DUP5 SUB ADD DUP2 MSTORE SWAP2 DUP2 MSTORE DUP2 MLOAD PUSH1 0x20 SWAP3 DUP4 ADD KECCAK256 PUSH1 0x0 DUP2 DUP2 MSTORE PUSH1 0x8 SWAP1 SWAP4 MSTORE SWAP2 KECCAK256 PUSH1 0x2 ADD SLOAD SWAP1 SWAP3 POP PUSH2 0x2062 JUMPI PUSH2 0x2074 JUMP JUMPDEST DUP1 PUSH2 0x206C DUP2 PUSH2 0x2484 JUMP JUMPDEST SWAP2 POP POP PUSH2 0x1FD3 JUMP JUMPDEST POP PUSH1 0x40 DUP1 MLOAD PUSH1 0xC0 DUP2 ADD DUP3 MSTORE PUSH1 0x1 PUSH1 0x1 PUSH1 0xA0 SHL SUB SWAP10 DUP11 AND DUP1 DUP3 MSTORE SWAP9 DUP11 AND PUSH1 0x20 DUP1 DUP4 ADD SWAP2 DUP3 MSTORE DUP3 DUP5 ADD SWAP10 DUP11 MSTORE PUSH1 0x60 DUP4 ADD SWAP9 DUP10 MSTORE PUSH1 0x80 DUP4 ADD SWAP8 DUP9 MSTORE PUSH1 0xA0 DUP4 ADD SWAP7 DUP8 MSTORE PUSH1 0x0 DUP6 DUP2 MSTORE PUSH1 0x8 DUP3 MSTORE DUP5 DUP2 KECCAK256 SWAP4 MLOAD DUP5 SLOAD SWAP1 DUP15 AND PUSH1 0x1 PUSH1 0x1 PUSH1 0xA0 SHL SUB NOT SWAP2 DUP3 AND OR DUP6 SSTORE SWAP3 MLOAD PUSH1 0x1 DUP1 DUP7 ADD DUP1 SLOAD SWAP3 SWAP1 SWAP16 AND SWAP2 SWAP1 SWAP5 AND OR SWAP1 SWAP13 SSTORE SWAP9 MLOAD PUSH1 0x2 DUP4 ADD SSTORE SWAP7 MLOAD PUSH1 0x3 DUP3 ADD SSTORE SWAP5 MLOAD PUSH1 0x4 DUP7 ADD SSTORE SWAP3 MLOAD PUSH1 0x5 SWAP5 DUP6 ADD SSTORE DUP4 SLOAD DUP1 DUP7 ADD SWAP1 SWAP5 SSTORE PUSH32 0x36B6384B5ECA791C62761152D0C79BB0604C104A5FB6F4EB0703F3154BB3DB0 SWAP1 SWAP4 ADD DUP4 SWAP1 SSTORE POP SWAP4 DUP6 MSTORE PUSH1 0x9 DUP4 MSTORE SWAP3 DUP5 KECCAK256 DUP1 SLOAD SWAP2 DUP3 ADD DUP2 SSTORE DUP5 MSTORE SWAP3 KECCAK256 SWAP1 SWAP2 ADD DUP2 SWAP1 SSTORE SWAP1 JUMP JUMPDEST PUSH1 0x0 DUP1 PUSH1 0x0 JUMPDEST PUSH1 0x4 SLOAD DUP8 SWAP1 DUP8 SWAP1 DUP4 SWAP1 PUSH2 0x216F SWAP1 PUSH1 0x1 PUSH2 0x2416 JUMP JUMPDEST PUSH2 0x2179 SWAP2 SWAP1 PUSH2 0x2416 JUMP JUMPDEST PUSH1 0x40 DUP1 MLOAD PUSH1 0x20 DUP2 ADD SWAP5 SWAP1 SWAP5 MSTORE DUP4 ADD SWAP2 SWAP1 SWAP2 MSTORE PUSH1 0x60 DUP3 ADD MSTORE TIMESTAMP PUSH1 0x80 DUP3 ADD MSTORE DIFFICULTY PUSH1 0xA0 DUP3 ADD MSTORE PUSH1 0xC0 ADD PUSH1 0x40 DUP1 MLOAD PUSH1 0x1F NOT DUP2 DUP5 SUB ADD DUP2 MSTORE SWAP2 DUP2 MSTORE DUP2 MLOAD PUSH1 0x20 SWAP3 DUP4 ADD KECCAK256 PUSH1 0x0 DUP2 DUP2 MSTORE PUSH1 0xA SWAP1 SWAP4 MSTORE SWAP2 KECCAK256 PUSH1 0x2 ADD SLOAD SWAP1 SWAP3 POP PUSH2 0x21D3 JUMPI PUSH2 0x21E5 JUMP JUMPDEST DUP1 PUSH2 0x21DD DUP2 PUSH2 0x2484 JUMP JUMPDEST SWAP2 POP POP PUSH2 0x215B JUMP JUMPDEST POP PUSH1 0x40 DUP1 MLOAD PUSH1 0xA0 DUP2 ADD DUP3 MSTORE SWAP7 DUP8 MSTORE PUSH1 0x20 DUP1 DUP9 ADD SWAP7 DUP8 MSTORE DUP8 DUP3 ADD SWAP6 DUP7 MSTORE PUSH1 0x60 DUP9 ADD SWAP5 DUP6 MSTORE PUSH1 0x0 PUSH1 0x80 DUP10 ADD DUP2 DUP2 MSTORE DUP5 DUP3 MSTORE PUSH1 0xA SWAP1 SWAP3 MSTORE SWAP2 DUP3 KECCAK256 SWAP8 MLOAD DUP9 SSTORE SWAP6 MLOAD PUSH1 0x1 DUP1 DUP10 ADD SWAP2 SWAP1 SWAP2 SSTORE SWAP5 MLOAD PUSH1 0x2 DUP9 ADD SSTORE SWAP3 MLOAD PUSH1 0x3 DUP8 ADD SSTORE SWAP4 MLOAD PUSH1 0x4 SWAP6 DUP7 ADD DUP1 SLOAD PUSH1 0xFF NOT AND SWAP2 ISZERO ISZERO SWAP2 SWAP1 SWAP2 OR SWAP1 SSTORE POP DUP4 SLOAD SWAP2 DUP3 ADD DUP5 SSTORE SWAP3 SWAP1 SWAP3 MSTORE PUSH32 0x8A35ACFBC15FF81A39AE7D344FD709F28E8600B4AA8C65C6B64BFE7FE36BD19B SWAP1 SWAP2 ADD DUP2 SWAP1 SSTORE SWAP1 JUMP JUMPDEST PUSH1 0x0 PUSH1 0x20 DUP3 DUP5 SUB SLT ISZERO PUSH2 0x2296 JUMPI DUP1 DUP2 REVERT JUMPDEST DUP2 CALLDATALOAD PUSH2 0x22A1 DUP2 PUSH2 0x24B5 JUMP JUMPDEST SWAP4 SWAP3 POP POP POP JUMP JUMPDEST PUSH1 0x0 PUSH1 0x20 DUP3 DUP5 SUB SLT ISZERO PUSH2 0x22B9 JUMPI DUP1 DUP2 REVERT JUMPDEST DUP2 MLOAD PUSH2 0x22A1 DUP2 PUSH2 0x24B5 JUMP JUMPDEST PUSH1 0x0 DUP1 PUSH1 0x0 DUP1 PUSH1 0x0 DUP1 PUSH1 0xC0 DUP8 DUP10 SUB SLT ISZERO PUSH2 0x22DC JUMPI DUP2 DUP3 REVERT JUMPDEST DUP7 CALLDATALOAD PUSH2 0x22E7 DUP2 PUSH2 0x24B5 JUMP JUMPDEST SWAP6 POP PUSH1 0x20 DUP8 ADD CALLDATALOAD PUSH2 0x22F7 DUP2 PUSH2 0x24B5 JUMP JUMPDEST SWAP5 POP PUSH1 0x40 DUP8 ADD CALLDATALOAD SWAP4 POP PUSH1 0x60 DUP8 ADD CALLDATALOAD SWAP3 POP PUSH1 0x80 DUP8 ADD CALLDATALOAD SWAP2 POP PUSH1 0xA0 DUP8 ADD CALLDATALOAD PUSH2 0x231C DUP2 PUSH2 0x24CA JUMP JUMPDEST DUP1 SWAP2 POP POP SWAP3 SWAP6 POP SWAP3 SWAP6 POP SWAP3 SWAP6 JUMP JUMPDEST PUSH1 0x0 PUSH1 0x20 DUP3 DUP5 SUB SLT ISZERO PUSH2 0x233B JUMPI DUP1 DUP2 REVERT JUMPDEST DUP2 MLOAD PUSH2 0x22A1 DUP2 PUSH2 0x24CA JUMP JUMPDEST PUSH1 0x0 PUSH1 0x20 DUP3 DUP5 SUB SLT ISZERO PUSH2 0x2357 JUMPI DUP1 DUP2 REVERT JUMPDEST POP CALLDATALOAD SWAP2 SWAP1 POP JUMP JUMPDEST PUSH1 0x0 PUSH1 0x20 DUP3 DUP5 SUB SLT ISZERO PUSH2 0x236F JUMPI DUP1 DUP2 REVERT JUMPDEST POP MLOAD SWAP2 SWAP1 POP JUMP JUMPDEST PUSH1 0x20 DUP1 DUP3 MSTORE DUP3 MLOAD DUP3 DUP3 ADD DUP2 SWAP1 MSTORE PUSH1 0x0 SWAP2 SWAP1 PUSH1 0x40 SWAP1 DUP2 DUP6 ADD SWAP1 DUP7 DUP5 ADD DUP6 JUMPDEST DUP3 DUP2 LT ISZERO PUSH2 0x23ED JUMPI DUP2 MLOAD DUP1 MLOAD PUSH1 0x1 PUSH1 0x1 PUSH1 0xA0 SHL SUB SWAP1 DUP2 AND DUP7 MSTORE DUP8 DUP3 ADD MLOAD AND DUP8 DUP7 ADD MSTORE DUP6 DUP2 ADD MLOAD DUP7 DUP7 ADD MSTORE PUSH1 0x60 DUP1 DUP3 ADD MLOAD SWAP1 DUP7 ADD MSTORE PUSH1 0x80 DUP1 DUP3 ADD MLOAD SWAP1 DUP7 ADD MSTORE PUSH1 0xA0 SWAP1 DUP2 ADD MLOAD SWAP1 DUP6 ADD MSTORE PUSH1 0xC0 SWAP1 SWAP4 ADD SWAP3 SWAP1 DUP6 ADD SWAP1 PUSH1 0x1 ADD PUSH2 0x2393 JUMP JUMPDEST POP SWAP2 SWAP8 SWAP7 POP POP POP POP POP POP POP JUMP JUMPDEST PUSH1 0x20 DUP1 DUP3 MSTORE PUSH1 0x2 SWAP1 DUP3 ADD MSTORE PUSH2 0x4D31 PUSH1 0xF0 SHL PUSH1 0x40 DUP3 ADD MSTORE PUSH1 0x60 ADD SWAP1 JUMP JUMPDEST PUSH1 0x0 DUP3 NOT DUP3 GT ISZERO PUSH2 0x2429 JUMPI PUSH2 0x2429 PUSH2 0x249F JUMP JUMPDEST POP ADD SWAP1 JUMP JUMPDEST PUSH1 0x0 DUP3 PUSH2 0x2449 JUMPI PUSH4 0x4E487B71 PUSH1 0xE0 SHL DUP2 MSTORE PUSH1 0x12 PUSH1 0x4 MSTORE PUSH1 0x24 DUP2 REVERT JUMPDEST POP DIV SWAP1 JUMP JUMPDEST PUSH1 0x0 DUP2 PUSH1 0x0 NOT DIV DUP4 GT DUP3 ISZERO ISZERO AND ISZERO PUSH2 0x2468 JUMPI PUSH2 0x2468 PUSH2 0x249F JUMP JUMPDEST POP MUL SWAP1 JUMP JUMPDEST PUSH1 0x0 DUP3 DUP3 LT ISZERO PUSH2 0x247F JUMPI PUSH2 0x247F PUSH2 0x249F JUMP JUMPDEST POP SUB SWAP1 JUMP JUMPDEST PUSH1 0x0 PUSH1 0x0 NOT DUP3 EQ ISZERO PUSH2 0x2498 JUMPI PUSH2 0x2498 PUSH2 0x249F JUMP JUMPDEST POP PUSH1 0x1 ADD SWAP1 JUMP JUMPDEST PUSH4 0x4E487B71 PUSH1 0xE0 SHL PUSH1 0x0 MSTORE PUSH1 0x11 PUSH1 0x4 MSTORE PUSH1 0x24 PUSH1 0x0 REVERT JUMPDEST PUSH1 0x1 PUSH1 0x1 PUSH1 0xA0 SHL SUB DUP2 AND DUP2 EQ PUSH2 0x15CB JUMPI PUSH1 0x0 DUP1 REVERT JUMPDEST DUP1 ISZERO ISZERO DUP2 EQ PUSH2 0x15CB JUMPI PUSH1 0x0 DUP1 REVERT INVALID LOG2 PUSH5 0x6970667358 0x22 SLT KECCAK256 PUSH15 0x1D7790E9D2C92E64BB9D0FDA9065C3 0x27 EXTCODEHASH PUSH4 0x692A85C SWAP1 KECCAK256 0xC0 SLOAD PUSH16 0x83B5BACA64736F6C6343000804003300 "
				},
				"gasEstimates": {
					"creation": {
						"codeDepositCost": "1897200",
						"executionCost": "infinite",
						"totalCost": "infinite"
					},
					"external": {
						"addBet(address,address,uint256,uint256,uint256,bool)": "infinite",
						"cancelMarket()": "infinite",
						"cashOut(bytes32)": "infinite",
						"getBalance(address)": "1330",
						"getUserBets(address)": "infinite",
						"settle(uint256)": "infinite",
						"settleBet(bytes32)": "infinite",
						"start()": "infinite",
						"status()": "985",
						"withdraw(address)": "infinite",
						"withdrawPending(bytes32)": "infinite"
					},
					"internal": {
						"_cancelPair(bytes32)": "infinite",
						"_createBet(address,address,uint256,uint256,uint256,uint256)": "infinite",
						"_createPair(bytes32,bytes32,uint256,uint256)": "infinite",
						"_settlePair(bytes32)": "infinite"
					}
				},
				"methodIdentifiers": {
					"addBet(address,address,uint256,uint256,uint256,bool)": "78d65b2f",
					"cancelMarket()": "6bfefd6b",
					"cashOut(bytes32)": "c87b3171",
					"getBalance(address)": "f8b2cb4f",
					"getUserBets(address)": "2d56657d",
					"settle(uint256)": "8df82800",
					"settleBet(bytes32)": "675f6537",
					"start()": "be9a6555",
					"status()": "200d2ed2",
					"withdraw(address)": "51cff8d9",
					"withdrawPending(bytes32)": "7d7f9232"
				}
			},
			"storageLayout": {
				"storage": [
					{
						"astId": 10,
						"contract": "contracts/Market.sol:Market",
						"label": "_status",
						"offset": 0,
						"slot": "0",
						"type": "t_uint256"
					},
					{
						"astId": 128,
						"contract": "contracts/Market.sol:Market",
						"label": "owner",
						"offset": 0,
						"slot": "1",
						"type": "t_address"
					},
					{
						"astId": 130,
						"contract": "contracts/Market.sol:Market",
						"label": "factory",
						"offset": 0,
						"slot": "2",
						"type": "t_address"
					},
					{
						"astId": 134,
						"contract": "contracts/Market.sol:Market",
						"label": "status",
						"offset": 0,
						"slot": "3",
						"type": "t_uint256"
					},
					{
						"astId": 137,
						"contract": "contracts/Market.sol:Market",
						"label": "pairs",
						"offset": 0,
						"slot": "4",
						"type": "t_array(t_bytes32)dyn_storage"
					},
					{
						"astId": 140,
						"contract": "contracts/Market.sol:Market",
						"label": "bets",
						"offset": 0,
						"slot": "5",
						"type": "t_array(t_bytes32)dyn_storage"
					},
					{
						"astId": 143,
						"contract": "contracts/Market.sol:Market",
						"label": "pendingBets",
						"offset": 0,
						"slot": "6",
						"type": "t_array(t_bytes32)dyn_storage"
					},
					{
						"astId": 158,
						"contract": "contracts/Market.sol:Market",
						"label": "bal",
						"offset": 0,
						"slot": "7",
						"type": "t_mapping(t_address,t_uint256)"
					},
					{
						"astId": 163,
						"contract": "contracts/Market.sol:Market",
						"label": "betsInfo",
						"offset": 0,
						"slot": "8",
						"type": "t_mapping(t_bytes32,t_struct(MarketBet)1600_storage)"
					},
					{
						"astId": 168,
						"contract": "contracts/Market.sol:Market",
						"label": "userBets",
						"offset": 0,
						"slot": "9",
						"type": "t_mapping(t_address,t_array(t_bytes32)dyn_storage)"
					},
					{
						"astId": 173,
						"contract": "contracts/Market.sol:Market",
						"label": "pairsInfo",
						"offset": 0,
						"slot": "10",
						"type": "t_mapping(t_bytes32,t_struct(MarketPair)154_storage)"
					},
					{
						"astId": 178,
						"contract": "contracts/Market.sol:Market",
						"label": "betPairs",
						"offset": 0,
						"slot": "11",
						"type": "t_mapping(t_bytes32,t_array(t_bytes32)dyn_storage)"
					}
				],
				"types": {
					"t_address": {
						"encoding": "inplace",
						"label": "address",
						"numberOfBytes": "20"
					},
					"t_array(t_bytes32)dyn_storage": {
						"base": "t_bytes32",
						"encoding": "dynamic_array",
						"label": "bytes32[]",
						"numberOfBytes": "32"
					},
					"t_bool": {
						"encoding": "inplace",
						"label": "bool",
						"numberOfBytes": "1"
					},
					"t_bytes32": {
						"encoding": "inplace",
						"label": "bytes32",
						"numberOfBytes": "32"
					},
					"t_mapping(t_address,t_array(t_bytes32)dyn_storage)": {
						"encoding": "mapping",
						"key": "t_address",
						"label": "mapping(address => bytes32[])",
						"numberOfBytes": "32",
						"value": "t_array(t_bytes32)dyn_storage"
					},
					"t_mapping(t_address,t_uint256)": {
						"encoding": "mapping",
						"key": "t_address",
						"label": "mapping(address => uint256)",
						"numberOfBytes": "32",
						"value": "t_uint256"
					},
					"t_mapping(t_bytes32,t_array(t_bytes32)dyn_storage)": {
						"encoding": "mapping",
						"key": "t_bytes32",
						"label": "mapping(bytes32 => bytes32[])",
						"numberOfBytes": "32",
						"value": "t_array(t_bytes32)dyn_storage"
					},
					"t_mapping(t_bytes32,t_struct(MarketBet)1600_storage)": {
						"encoding": "mapping",
						"key": "t_bytes32",
						"label": "mapping(bytes32 => struct IMarket.MarketBet)",
						"numberOfBytes": "32",
						"value": "t_struct(MarketBet)1600_storage"
					},
					"t_mapping(t_bytes32,t_struct(MarketPair)154_storage)": {
						"encoding": "mapping",
						"key": "t_bytes32",
						"label": "mapping(bytes32 => struct Market.MarketPair)",
						"numberOfBytes": "32",
						"value": "t_struct(MarketPair)154_storage"
					},
					"t_struct(MarketBet)1600_storage": {
						"encoding": "inplace",
						"label": "struct IMarket.MarketBet",
						"members": [
							{
								"astId": 1589,
								"contract": "contracts/Market.sol:Market",
								"label": "better",
								"offset": 0,
								"slot": "0",
								"type": "t_address"
							},
							{
								"astId": 1591,
								"contract": "contracts/Market.sol:Market",
								"label": "affiliate",
								"offset": 0,
								"slot": "1",
								"type": "t_address"
							},
							{
								"astId": 1593,
								"contract": "contracts/Market.sol:Market",
								"label": "stake",
								"offset": 0,
								"slot": "2",
								"type": "t_uint256"
							},
							{
								"astId": 1595,
								"contract": "contracts/Market.sol:Market",
								"label": "matched",
								"offset": 0,
								"slot": "3",
								"type": "t_uint256"
							},
							{
								"astId": 1597,
								"contract": "contracts/Market.sol:Market",
								"label": "odds",
								"offset": 0,
								"slot": "4",
								"type": "t_uint256"
							},
							{
								"astId": 1599,
								"contract": "contracts/Market.sol:Market",
								"label": "side",
								"offset": 0,
								"slot": "5",
								"type": "t_uint256"
							}
						],
						"numberOfBytes": "192"
					},
					"t_struct(MarketPair)154_storage": {
						"encoding": "inplace",
						"label": "struct Market.MarketPair",
						"members": [
							{
								"astId": 145,
								"contract": "contracts/Market.sol:Market",
								"label": "betHashA",
								"offset": 0,
								"slot": "0",
								"type": "t_bytes32"
							},
							{
								"astId": 147,
								"contract": "contracts/Market.sol:Market",
								"label": "betHashB",
								"offset": 0,
								"slot": "1",
								"type": "t_bytes32"
							},
							{
								"astId": 149,
								"contract": "contracts/Market.sol:Market",
								"label": "amountA",
								"offset": 0,
								"slot": "2",
								"type": "t_uint256"
							},
							{
								"astId": 151,
								"contract": "contracts/Market.sol:Market",
								"label": "amountB",
								"offset": 0,
								"slot": "3",
								"type": "t_uint256"
							},
							{
								"astId": 153,
								"contract": "contracts/Market.sol:Market",
								"label": "settled",
								"offset": 0,
								"slot": "4",
								"type": "t_bool"
							}
						],
						"numberOfBytes": "160"
					},
					"t_uint256": {
						"encoding": "inplace",
						"label": "uint256",
						"numberOfBytes": "32"
					}
				}
			},
			"userdoc": {
				"kind": "user",
				"methods": {},
				"version": 1
			}
		}
	}
}