{
	"contracts/Market.sol": {
		"Market": {
			"abi": [
				{
					"inputs": [
						{
							"internalType": "bytes32",
							"name": "event_",
							"type": "bytes32"
						}
					],
					"stateMutability": "nonpayable",
					"type": "constructor"
				},
				{
					"anonymous": false,
					"inputs": [
						{
							"indexed": false,
							"internalType": "address",
							"name": "better",
							"type": "address"
						},
						{
							"indexed": false,
							"internalType": "address",
							"name": "marketAddr",
							"type": "address"
						},
						{
							"indexed": false,
							"internalType": "bytes32",
							"name": "hash",
							"type": "bytes32"
						},
						{
							"indexed": false,
							"internalType": "uint256",
							"name": "stake",
							"type": "uint256"
						},
						{
							"indexed": false,
							"internalType": "uint256",
							"name": "odds",
							"type": "uint256"
						},
						{
							"indexed": false,
							"internalType": "uint256",
							"name": "side",
							"type": "uint256"
						}
					],
					"name": "BetCreated",
					"type": "event"
				},
				{
					"anonymous": false,
					"inputs": [
						{
							"indexed": false,
							"internalType": "address",
							"name": "beneficiary",
							"type": "address"
						},
						{
							"indexed": false,
							"internalType": "uint256",
							"name": "value",
							"type": "uint256"
						}
					],
					"name": "Withdraw",
					"type": "event"
				},
				{
					"inputs": [
						{
							"internalType": "address",
							"name": "_better",
							"type": "address"
						},
						{
							"internalType": "address",
							"name": "_affiliate",
							"type": "address"
						},
						{
							"internalType": "uint256",
							"name": "_stake",
							"type": "uint256"
						},
						{
							"internalType": "uint256",
							"name": "_odds",
							"type": "uint256"
						},
						{
							"internalType": "uint256",
							"name": "_side",
							"type": "uint256"
						},
						{
							"internalType": "bool",
							"name": "_instant",
							"type": "bool"
						}
					],
					"name": "addBet",
					"outputs": [
						{
							"internalType": "bytes32",
							"name": "",
							"type": "bytes32"
						}
					],
					"stateMutability": "nonpayable",
					"type": "function"
				},
				{
					"inputs": [],
					"name": "cancel",
					"outputs": [
						{
							"internalType": "bool",
							"name": "",
							"type": "bool"
						}
					],
					"stateMutability": "nonpayable",
					"type": "function"
				},
				{
					"inputs": [
						{
							"internalType": "bytes32",
							"name": "_bet",
							"type": "bytes32"
						}
					],
					"name": "cancelBet",
					"outputs": [],
					"stateMutability": "nonpayable",
					"type": "function"
				},
				{
					"inputs": [],
					"name": "cancelPlusPairs",
					"outputs": [
						{
							"internalType": "bool",
							"name": "",
							"type": "bool"
						}
					],
					"stateMutability": "nonpayable",
					"type": "function"
				},
				{
					"inputs": [
						{
							"internalType": "address",
							"name": "_user",
							"type": "address"
						}
					],
					"name": "getBalance",
					"outputs": [
						{
							"internalType": "uint256",
							"name": "",
							"type": "uint256"
						}
					],
					"stateMutability": "view",
					"type": "function"
				},
				{
					"inputs": [
						{
							"internalType": "bytes32",
							"name": "_bet",
							"type": "bytes32"
						}
					],
					"name": "getBet",
					"outputs": [
						{
							"components": [
								{
									"internalType": "address",
									"name": "better",
									"type": "address"
								},
								{
									"internalType": "address",
									"name": "affiliate",
									"type": "address"
								},
								{
									"internalType": "uint256",
									"name": "stake",
									"type": "uint256"
								},
								{
									"internalType": "uint256",
									"name": "matched",
									"type": "uint256"
								},
								{
									"internalType": "uint256",
									"name": "odds",
									"type": "uint256"
								},
								{
									"internalType": "uint256",
									"name": "side",
									"type": "uint256"
								}
							],
							"internalType": "struct Struct.MarketBet",
							"name": "",
							"type": "tuple"
						}
					],
					"stateMutability": "view",
					"type": "function"
				},
				{
					"inputs": [
						{
							"internalType": "address",
							"name": "_user",
							"type": "address"
						}
					],
					"name": "getUserBets",
					"outputs": [
						{
							"internalType": "bytes32[]",
							"name": "",
							"type": "bytes32[]"
						}
					],
					"stateMutability": "view",
					"type": "function"
				},
				{
					"inputs": [],
					"name": "marketEvent",
					"outputs": [
						{
							"internalType": "bytes32",
							"name": "",
							"type": "bytes32"
						}
					],
					"stateMutability": "view",
					"type": "function"
				},
				{
					"inputs": [
						{
							"internalType": "uint256",
							"name": "_winningSide",
							"type": "uint256"
						}
					],
					"name": "setWinningSide",
					"outputs": [
						{
							"internalType": "bool",
							"name": "",
							"type": "bool"
						}
					],
					"stateMutability": "nonpayable",
					"type": "function"
				},
				{
					"inputs": [
						{
							"internalType": "uint256",
							"name": "_winningSide",
							"type": "uint256"
						}
					],
					"name": "settle",
					"outputs": [
						{
							"internalType": "bool",
							"name": "",
							"type": "bool"
						}
					],
					"stateMutability": "nonpayable",
					"type": "function"
				},
				{
					"inputs": [
						{
							"internalType": "bytes32",
							"name": "_bet",
							"type": "bytes32"
						}
					],
					"name": "settleBet",
					"outputs": [],
					"stateMutability": "nonpayable",
					"type": "function"
				},
				{
					"inputs": [],
					"name": "start",
					"outputs": [
						{
							"internalType": "bool",
							"name": "",
							"type": "bool"
						}
					],
					"stateMutability": "nonpayable",
					"type": "function"
				},
				{
					"inputs": [],
					"name": "status",
					"outputs": [
						{
							"internalType": "uint256",
							"name": "",
							"type": "uint256"
						}
					],
					"stateMutability": "view",
					"type": "function"
				},
				{
					"inputs": [
						{
							"internalType": "address",
							"name": "_user",
							"type": "address"
						}
					],
					"name": "withdraw",
					"outputs": [
						{
							"internalType": "bool",
							"name": "",
							"type": "bool"
						}
					],
					"stateMutability": "nonpayable",
					"type": "function"
				},
				{
					"inputs": [
						{
							"internalType": "bytes32",
							"name": "_bet",
							"type": "bytes32"
						}
					],
					"name": "withdrawPending",
					"outputs": [],
					"stateMutability": "nonpayable",
					"type": "function"
				}
			],
			"devdoc": {
				"kind": "dev",
				"methods": {
					"cancelBet(bytes32)": {
						"details": "cancel all pairs in `_bet`, "
					},
					"getBalance(address)": {
						"details": "Returns the amount of tokens owned by `_user` in this market."
					},
					"getBet(bytes32)": {
						"details": "Returns details of `_bet`."
					},
					"getUserBets(address)": {
						"details": "Returns hash IDs of all the bets placed by `_user`."
					},
					"setWinningSide(uint256)": {
						"details": "assign `_winningSide` to `status` "
					},
					"settle(uint256)": {
						"details": "assign `_winningSide` to `status` "
					},
					"settleBet(bytes32)": {
						"details": "settle all pairs in `_bet`, "
					},
					"withdraw(address)": {
						"details": "transfer bal[`_user`] to `_user`, bal"
					},
					"withdrawPending(bytes32)": {
						"details": "refund all unmatched stake in `_bet`, and withraw for caller address"
					}
				},
				"version": 1
			},
			"evm": {
				"assembly": "    /* \"contracts/Market.sol\":194:14433  contract Market is IMarket, ReentrancyGuard {... */\n  mstore(0x40, 0xc0)\n    /* \"contracts/Market.sol\":463:464  0 */\n  0x00\n    /* \"contracts/Market.sol\":430:464  uint256 public override status = 0 */\n  0x02\n  sstore\n    /* \"contracts/Market.sol\":1412:1581  constructor(bytes32 event_) {... */\n  callvalue\n  dup1\n  iszero\n  tag_1\n  jumpi\n  0x00\n  dup1\n  revert\ntag_1:\n  pop\n  mload(0x40)\n  sub(codesize, bytecodeSize)\n  dup1\n  bytecodeSize\n  dup4\n  codecopy\n  dup2\n  add\n  0x40\n  dup2\n  swap1\n  mstore\n  tag_2\n  swap2\n  tag_3\n  jump\t// in\ntag_2:\n    /* \"@openzeppelin/contracts/security/ReentrancyGuard.sol\":1701:1702  1 */\n  0x01\n    /* \"@openzeppelin/contracts/security/ReentrancyGuard.sol\":1806:1813  _status */\n  0x00\n    /* \"@openzeppelin/contracts/security/ReentrancyGuard.sol\":1806:1828  _status = _NOT_ENTERED */\n  dup2\n  swap1\n  sstore\n    /* \"contracts/Market.sol\":1450:1470  marketEvent = event_ */\n  0x80\n  dup3\n  swap1\n  mstore\n    /* \"contracts/Market.sol\":1480:1500  factory = msg.sender */\n  dup1\n  sload\n    /* \"contracts/Market.sol\":1490:1500  msg.sender */\n  caller\n  not(sub(shl(0xa0, 0x01), 0x01))\n    /* \"contracts/Market.sol\":1480:1500  factory = msg.sender */\n  swap2\n  dup3\n  and\n  dup2\n  or\n  swap1\n  swap3\n  sstore\n    /* \"contracts/Market.sol\":1510:1513  app */\n  0x0a\n    /* \"contracts/Market.sol\":1510:1536  app = IWeb3BetsFO(factory) */\n  dup1\n  sload\n  swap1\n  swap2\n  and\n  dup3\n  or\n  swap1\n  sstore\n    /* \"contracts/Market.sol\":1561:1573  app.scAddr() */\n  0x40\n  dup1\n  mload\n  shl(0xe3, 0x966ed9)\n  dup2\n  mstore\n  swap1\n  mload\n    /* \"contracts/Market.sol\":1561:1571  app.scAddr */\n  0x04b376c8\n  swap2\n    /* \"contracts/Market.sol\":1561:1573  app.scAddr() */\n  0x04\n  dup1\n  dup3\n  add\n  swap3\n  0x20\n  swap3\n  swap1\n  swap2\n  swap1\n  dup3\n  swap1\n  sub\n  add\n  dup2\n    /* \"contracts/Market.sol\":1490:1500  msg.sender */\n  dup7\n    /* \"contracts/Market.sol\":1561:1573  app.scAddr() */\n  dup1\n  extcodesize\n  iszero\n  dup1\n  iszero\n  tag_8\n  jumpi\n  0x00\n  dup1\n  revert\ntag_8:\n  pop\n  gas\n  staticcall\n  iszero\n  dup1\n  iszero\n  tag_10\n  jumpi\n  returndatasize\n  0x00\n  dup1\n  returndatacopy\n  revert(0x00, returndatasize)\ntag_10:\n  pop\n  pop\n  pop\n  pop\n  mload(0x40)\n  returndatasize\n  not(0x1f)\n  0x1f\n  dup3\n  add\n  and\n  dup3\n  add\n  dup1\n  0x40\n  mstore\n  pop\n  dup2\n  add\n  swap1\n  tag_11\n  swap2\n  swap1\n  tag_12\n  jump\t// in\ntag_11:\n    /* \"contracts/Market.sol\":1546:1574  token = IERC20(app.scAddr()) */\n  0x60\n  shl\n  not(sub(shl(0x60, 0x01), 0x01))\n  and\n  0xa0\n  mstore\n  pop\n    /* \"contracts/Market.sol\":194:14433  contract Market is IMarket, ReentrancyGuard {... */\n  jump(tag_14)\n    /* \"#utility.yul\":14:324   */\ntag_12:\n    /* \"#utility.yul\":84:90   */\n  0x00\n    /* \"#utility.yul\":137:139   */\n  0x20\n    /* \"#utility.yul\":125:134   */\n  dup3\n    /* \"#utility.yul\":116:123   */\n  dup5\n    /* \"#utility.yul\":112:135   */\n  sub\n    /* \"#utility.yul\":108:140   */\n  slt\n    /* \"#utility.yul\":105:107   */\n  iszero\n  tag_16\n  jumpi\n    /* \"#utility.yul\":158:164   */\n  dup1\n    /* \"#utility.yul\":150:156   */\n  dup2\n    /* \"#utility.yul\":143:165   */\n  revert\n    /* \"#utility.yul\":105:107   */\ntag_16:\n    /* \"#utility.yul\":189:205   */\n  dup2\n  mload\n  sub(shl(0xa0, 0x01), 0x01)\n    /* \"#utility.yul\":234:265   */\n  dup2\n  and\n    /* \"#utility.yul\":224:266   */\n  dup2\n  eq\n    /* \"#utility.yul\":214:216   */\n  tag_17\n  jumpi\n    /* \"#utility.yul\":285:291   */\n  dup2\n    /* \"#utility.yul\":277:283   */\n  dup3\n    /* \"#utility.yul\":270:292   */\n  revert\n    /* \"#utility.yul\":214:216   */\ntag_17:\n    /* \"#utility.yul\":313:318   */\n  swap4\n    /* \"#utility.yul\":95:324   */\n  swap3\n  pop\n  pop\n  pop\n  jump\t// out\n    /* \"#utility.yul\":329:523   */\ntag_3:\n    /* \"#utility.yul\":399:405   */\n  0x00\n    /* \"#utility.yul\":452:454   */\n  0x20\n    /* \"#utility.yul\":440:449   */\n  dup3\n    /* \"#utility.yul\":431:438   */\n  dup5\n    /* \"#utility.yul\":427:450   */\n  sub\n    /* \"#utility.yul\":423:455   */\n  slt\n    /* \"#utility.yul\":420:422   */\n  iszero\n  tag_19\n  jumpi\n    /* \"#utility.yul\":473:479   */\n  dup1\n    /* \"#utility.yul\":465:471   */\n  dup2\n    /* \"#utility.yul\":458:480   */\n  revert\n    /* \"#utility.yul\":420:422   */\ntag_19:\n  pop\n    /* \"#utility.yul\":501:517   */\n  mload\n  swap2\n    /* \"#utility.yul\":410:523   */\n  swap1\n  pop\n  jump\t// out\ntag_14:\n    /* \"contracts/Market.sol\":194:14433  contract Market is IMarket, ReentrancyGuard {... */\n  mload(0x80)\n  shr(0x60, mload(0xa0))\n  codecopy(0x00, dataOffset(sub_0), dataSize(sub_0))\n  0x00\n  assignImmutable(\"0xbf08d8a2d7c7780024ba6e6dbe12d3d5a5a747ea3071fca63d8a2ede50d3472a\")\n  0x00\n  assignImmutable(\"0x535306ee4b42c92aecd0e71fca98572064f049c2babb2769faa3bbd87d67ec2d\")\n  return(0x00, dataSize(sub_0))\nstop\n\nsub_0: assembly {\n        /* \"contracts/Market.sol\":194:14433  contract Market is IMarket, ReentrancyGuard {... */\n      mstore(0x40, 0x80)\n      callvalue\n      dup1\n      iszero\n      tag_1\n      jumpi\n      0x00\n      dup1\n      revert\n    tag_1:\n      pop\n      jumpi(tag_2, lt(calldatasize, 0x04))\n      shr(0xe0, calldataload(0x00))\n      dup1\n      0x7a47d494\n      gt\n      tag_18\n      jumpi\n      dup1\n      0xbe9a6555\n      gt\n      tag_19\n      jumpi\n      dup1\n      0xbe9a6555\n      eq\n      tag_14\n      jumpi\n      dup1\n      0xd0ed7295\n      eq\n      tag_15\n      jumpi\n      dup1\n      0xea8a1af0\n      eq\n      tag_16\n      jumpi\n      dup1\n      0xf8b2cb4f\n      eq\n      tag_17\n      jumpi\n      0x00\n      dup1\n      revert\n    tag_19:\n      dup1\n      0x7a47d494\n      eq\n      tag_10\n      jumpi\n      dup1\n      0x7d7f9232\n      eq\n      tag_11\n      jumpi\n      dup1\n      0x8df82800\n      eq\n      tag_12\n      jumpi\n      dup1\n      0xae8cd090\n      eq\n      tag_13\n      jumpi\n      0x00\n      dup1\n      revert\n    tag_18:\n      dup1\n      0x37e8c09e\n      gt\n      tag_20\n      jumpi\n      dup1\n      0x37e8c09e\n      eq\n      tag_6\n      jumpi\n      dup1\n      0x51cff8d9\n      eq\n      tag_7\n      jumpi\n      dup1\n      0x675f6537\n      eq\n      tag_8\n      jumpi\n      dup1\n      0x78d65b2f\n      eq\n      tag_9\n      jumpi\n      0x00\n      dup1\n      revert\n    tag_20:\n      dup1\n      0x200d2ed2\n      eq\n      tag_3\n      jumpi\n      dup1\n      0x2940ff1e\n      eq\n      tag_4\n      jumpi\n      dup1\n      0x2d56657d\n      eq\n      tag_5\n      jumpi\n    tag_2:\n      0x00\n      dup1\n      revert\n        /* \"contracts/Market.sol\":430:464  uint256 public override status = 0 */\n    tag_3:\n      tag_21\n      sload(0x02)\n      dup2\n      jump\n    tag_21:\n      mload(0x40)\n        /* \"#utility.yul\":5870:5895   */\n      swap1\n      dup2\n      mstore\n        /* \"#utility.yul\":5858:5860   */\n      0x20\n        /* \"#utility.yul\":5843:5861   */\n      add\n        /* \"contracts/Market.sol\":430:464  uint256 public override status = 0 */\n    tag_23:\n      mload(0x40)\n      dup1\n      swap2\n      sub\n      swap1\n      return\n        /* \"contracts/Market.sol\":3293:3544  function cancelBet(bytes32 _bet) external override {... */\n    tag_4:\n      tag_25\n      tag_26\n      calldatasize\n      0x04\n      tag_27\n      jump\t// in\n    tag_26:\n      tag_28\n      jump\t// in\n    tag_25:\n      stop\n        /* \"contracts/Market.sol\":1868:2006  function getUserBets(address _user) ... */\n    tag_5:\n      tag_29\n      tag_30\n      calldatasize\n      0x04\n      tag_31\n      jump\t// in\n    tag_30:\n      tag_32\n      jump\t// in\n    tag_29:\n      mload(0x40)\n      tag_23\n      swap2\n      swap1\n      tag_34\n      jump\t// in\n        /* \"contracts/Market.sol\":2065:2203  function getBet(bytes32 _bet) ... */\n    tag_6:\n      tag_35\n      tag_36\n      calldatasize\n      0x04\n      tag_27\n      jump\t// in\n    tag_36:\n      tag_37\n      jump\t// in\n    tag_35:\n      mload(0x40)\n      tag_23\n      swap2\n      swap1\n        /* \"#utility.yul\":10359:10372   */\n      dup2\n      mload\n      sub(shl(0xa0, 0x01), 0x01)\n        /* \"#utility.yul\":10355:10377   */\n      swap1\n      dup2\n      and\n        /* \"#utility.yul\":10337:10378   */\n      dup3\n      mstore\n        /* \"#utility.yul\":10438:10442   */\n      0x20\n        /* \"#utility.yul\":10426:10443   */\n      dup1\n      dup5\n      add\n        /* \"#utility.yul\":10420:10444   */\n      mload\n        /* \"#utility.yul\":10416:10449   */\n      swap1\n      swap2\n      and\n        /* \"#utility.yul\":10394:10414   */\n      swap1\n      dup3\n      add\n        /* \"#utility.yul\":10387:10450   */\n      mstore\n        /* \"#utility.yul\":10506:10510   */\n      0x40\n        /* \"#utility.yul\":10494:10511   */\n      dup1\n      dup4\n      add\n        /* \"#utility.yul\":10488:10512   */\n      mload\n        /* \"#utility.yul\":10466:10486   */\n      swap1\n      dup3\n      add\n        /* \"#utility.yul\":10459:10513   */\n      mstore\n        /* \"#utility.yul\":10569:10573   */\n      0x60\n        /* \"#utility.yul\":10557:10574   */\n      dup1\n      dup4\n      add\n        /* \"#utility.yul\":10551:10575   */\n      mload\n        /* \"#utility.yul\":10529:10549   */\n      swap1\n      dup3\n      add\n        /* \"#utility.yul\":10522:10576   */\n      mstore\n        /* \"#utility.yul\":10632:10636   */\n      0x80\n        /* \"#utility.yul\":10620:10637   */\n      dup1\n      dup4\n      add\n        /* \"#utility.yul\":10614:10638   */\n      mload\n        /* \"#utility.yul\":10592:10612   */\n      swap1\n      dup3\n      add\n        /* \"#utility.yul\":10585:10639   */\n      mstore\n        /* \"#utility.yul\":10317:10320   */\n      0xa0\n        /* \"#utility.yul\":10683:10700   */\n      swap2\n      dup3\n      add\n        /* \"#utility.yul\":10677:10701   */\n      mload\n        /* \"#utility.yul\":10655:10675   */\n      swap2\n      dup2\n      add\n        /* \"#utility.yul\":10648:10702   */\n      swap2\n      swap1\n      swap2\n      mstore\n        /* \"#utility.yul\":10286:10289   */\n      0xc0\n        /* \"#utility.yul\":10271:10290   */\n      add\n      swap1\n        /* \"#utility.yul\":10253:10708   */\n      jump\n        /* \"contracts/Market.sol\":2273:2740  function withdraw(address _user) public override nonReentrant returns(bool) {... */\n    tag_7:\n      tag_40\n      tag_41\n      calldatasize\n      0x04\n      tag_31\n      jump\t// in\n    tag_41:\n      tag_42\n      jump\t// in\n    tag_40:\n      mload(0x40)\n        /* \"#utility.yul\":5697:5711   */\n      swap1\n      iszero\n        /* \"#utility.yul\":5690:5712   */\n      iszero\n        /* \"#utility.yul\":5672:5713   */\n      dup2\n      mstore\n        /* \"#utility.yul\":5660:5662   */\n      0x20\n        /* \"#utility.yul\":5645:5663   */\n      add\n        /* \"contracts/Market.sol\":2273:2740  function withdraw(address _user) public override nonReentrant returns(bool) {... */\n      tag_23\n        /* \"#utility.yul\":5627:5719   */\n      jump\n        /* \"contracts/Market.sol\":3605:3925  function settleBet(bytes32 _bet) external override {... */\n    tag_8:\n      tag_25\n      tag_46\n      calldatasize\n      0x04\n      tag_27\n      jump\t// in\n    tag_46:\n      tag_47\n      jump\t// in\n        /* \"contracts/Market.sol\":5651:8259  function addBet(... */\n    tag_9:\n      tag_21\n      tag_49\n      calldatasize\n      0x04\n      tag_50\n      jump\t// in\n    tag_49:\n      tag_51\n      jump\t// in\n        /* \"contracts/Market.sol\":244:289  bytes32 immutable public override marketEvent */\n    tag_10:\n      tag_21\n      immutable(\"0x535306ee4b42c92aecd0e71fca98572064f049c2babb2769faa3bbd87d67ec2d\")\n      dup2\n      jump\n        /* \"contracts/Market.sol\":2843:3232  function withdrawPending(bytes32 _bet) public override {... */\n    tag_11:\n      tag_25\n      tag_58\n      calldatasize\n      0x04\n      tag_27\n      jump\t// in\n    tag_58:\n      tag_59\n      jump\t// in\n        /* \"contracts/Market.sol\":4406:4817  function settle(uint256 _winningSide)... */\n    tag_12:\n      tag_40\n      tag_61\n      calldatasize\n      0x04\n      tag_27\n      jump\t// in\n    tag_61:\n      tag_63\n      jump\t// in\n        /* \"contracts/Market.sol\":5054:5437  function cancelPlusPairs() external override onlyFactory returns(bool) ... */\n    tag_13:\n      tag_40\n      tag_66\n      jump\t// in\n        /* \"contracts/Market.sol\":5443:5645  function start() external override onlyFactory returns(bool){... */\n    tag_14:\n      tag_40\n      tag_69\n      jump\t// in\n        /* \"contracts/Market.sol\":3992:4339  function setWinningSide(uint256 _winningSide)... */\n    tag_15:\n      tag_40\n      tag_72\n      calldatasize\n      0x04\n      tag_27\n      jump\t// in\n    tag_72:\n      tag_73\n      jump\t// in\n        /* \"contracts/Market.sol\":4823:5048  function cancel() external override onlyFactory returns(bool) ... */\n    tag_16:\n      tag_40\n      tag_76\n      jump\t// in\n        /* \"contracts/Market.sol\":1675:1784  function getBalance(address _user) external view override returns(uint256) {... */\n    tag_17:\n      tag_21\n      tag_79\n      calldatasize\n      0x04\n      tag_31\n      jump\t// in\n    tag_79:\n      sub(shl(0xa0, 0x01), 0x01)\n        /* \"contracts/Market.sol\":1767:1777  bal[_user] */\n      and\n        /* \"contracts/Market.sol\":1741:1748  uint256 */\n      0x00\n        /* \"contracts/Market.sol\":1767:1777  bal[_user] */\n      swap1\n      dup2\n      mstore\n        /* \"contracts/Market.sol\":1767:1770  bal */\n      0x05\n        /* \"contracts/Market.sol\":1767:1777  bal[_user] */\n      0x20\n      mstore\n      0x40\n      swap1\n      keccak256\n      sload\n      swap1\n        /* \"contracts/Market.sol\":1675:1784  function getBalance(address _user) external view override returns(uint256) {... */\n      jump\n        /* \"contracts/Market.sol\":3293:3544  function cancelBet(bytes32 _bet) external override {... */\n    tag_28:\n        /* \"contracts/Market.sol\":3376:3390  betsInfo[_bet] */\n      0x00\n      dup2\n      dup2\n      mstore\n        /* \"contracts/Market.sol\":3376:3384  betsInfo */\n      0x06\n        /* \"contracts/Market.sol\":3376:3390  betsInfo[_bet] */\n      0x20\n      mstore\n      0x40\n      swap1\n      keccak256\n        /* \"contracts/Market.sol\":3376:3397  betsInfo[_bet].better */\n      sload\n      sub(shl(0xa0, 0x01), 0x01)\n      and\n        /* \"contracts/Market.sol\":3362:3372  msg.sender */\n      caller\n        /* \"contracts/Market.sol\":3362:3397  msg.sender == betsInfo[_bet].better */\n      eq\n        /* \"contracts/Market.sol\":3354:3421  require(msg.sender == betsInfo[_bet].better, \"unauthorized caller\") */\n      tag_83\n      jumpi\n      mload(0x40)\n      shl(0xe5, 0x461bcd)\n      dup2\n      mstore\n        /* \"#utility.yul\":7158:7160   */\n      0x20\n        /* \"contracts/Market.sol\":3354:3421  require(msg.sender == betsInfo[_bet].better, \"unauthorized caller\") */\n      0x04\n      dup3\n      add\n        /* \"#utility.yul\":7140:7161   */\n      mstore\n        /* \"#utility.yul\":7197:7199   */\n      0x13\n        /* \"#utility.yul\":7177:7195   */\n      0x24\n      dup3\n      add\n        /* \"#utility.yul\":7170:7200   */\n      mstore\n      shl(0x69, 0x3ab730baba3437b934bd32b21031b0b63632b9)\n        /* \"#utility.yul\":7216:7234   */\n      0x44\n      dup3\n      add\n        /* \"#utility.yul\":7209:7258   */\n      mstore\n        /* \"#utility.yul\":7275:7293   */\n      0x64\n      add\n        /* \"contracts/Market.sol\":3354:3421  require(msg.sender == betsInfo[_bet].better, \"unauthorized caller\") */\n    tag_84:\n      mload(0x40)\n      dup1\n      swap2\n      sub\n      swap1\n      revert\n    tag_83:\n        /* \"contracts/Market.sol\":3434:3440  status */\n      sload(0x02)\n        /* \"contracts/Market.sol\":3434:3445  status == 0 */\n      iszero\n      dup1\n        /* \"contracts/Market.sol\":3434:3460  status == 0 || status == 4 */\n      tag_86\n      jumpi\n      pop\n        /* \"contracts/Market.sol\":3449:3455  status */\n      sload(0x02)\n        /* \"contracts/Market.sol\":3459:3460  4 */\n      0x04\n        /* \"contracts/Market.sol\":3449:3460  status == 4 */\n      eq\n        /* \"contracts/Market.sol\":3434:3460  status == 0 || status == 4 */\n    tag_86:\n        /* \"contracts/Market.sol\":3431:3507  if(status == 0 || status == 4){... */\n      iszero\n      tag_87\n      jumpi\n        /* \"contracts/Market.sol\":3475:3496  _cancelBetPairs(_bet) */\n      tag_88\n        /* \"contracts/Market.sol\":3491:3495  _bet */\n      dup2\n        /* \"contracts/Market.sol\":3475:3490  _cancelBetPairs */\n      tag_89\n        /* \"contracts/Market.sol\":3475:3496  _cancelBetPairs(_bet) */\n      jump\t// in\n    tag_88:\n      pop\n        /* \"contracts/Market.sol\":3431:3507  if(status == 0 || status == 4){... */\n    tag_87:\n        /* \"contracts/Market.sol\":3516:3537  withdrawPending(_bet) */\n      tag_90\n        /* \"contracts/Market.sol\":3532:3536  _bet */\n      dup2\n        /* \"contracts/Market.sol\":3516:3531  withdrawPending */\n      tag_59\n        /* \"contracts/Market.sol\":3516:3537  withdrawPending(_bet) */\n      jump\t// in\n    tag_90:\n        /* \"contracts/Market.sol\":3293:3544  function cancelBet(bytes32 _bet) external override {... */\n      pop\n      jump\t// out\n        /* \"contracts/Market.sol\":1868:2006  function getUserBets(address _user) ... */\n    tag_32:\n      sub(shl(0xa0, 0x01), 0x01)\n        /* \"contracts/Market.sol\":1984:1999  userBets[_user] */\n      dup2\n      and\n      0x00\n      swap1\n      dup2\n      mstore\n        /* \"contracts/Market.sol\":1984:1992  userBets */\n      0x07\n        /* \"contracts/Market.sol\":1984:1999  userBets[_user] */\n      0x20\n      swap1\n      dup2\n      mstore\n      0x40\n      swap2\n      dup3\n      swap1\n      keccak256\n        /* \"contracts/Market.sol\":1977:1999  return userBets[_user] */\n      dup1\n      sload\n      dup4\n      mload\n      dup2\n      dup5\n      mul\n      dup2\n      add\n      dup5\n      add\n      swap1\n      swap5\n      mstore\n      dup1\n      dup5\n      mstore\n        /* \"contracts/Market.sol\":1944:1960  bytes32[] memory */\n      0x60\n      swap4\n        /* \"contracts/Market.sol\":1977:1999  return userBets[_user] */\n      swap3\n      dup4\n      add\n        /* \"contracts/Market.sol\":1984:1999  userBets[_user] */\n      dup3\n        /* \"contracts/Market.sol\":1977:1999  return userBets[_user] */\n      dup3\n      dup1\n      iszero\n      tag_92\n      jumpi\n      0x20\n      mul\n      dup3\n      add\n      swap2\n      swap1\n      0x00\n      mstore\n      keccak256(0x00, 0x20)\n      swap1\n    tag_93:\n      dup2\n      sload\n      dup2\n      mstore\n      0x20\n      add\n      swap1\n      0x01\n      add\n      swap1\n      dup1\n      dup4\n      gt\n      tag_93\n      jumpi\n    tag_92:\n      pop\n      pop\n      pop\n      pop\n      pop\n      swap1\n      pop\n        /* \"contracts/Market.sol\":1868:2006  function getUserBets(address _user) ... */\n      swap2\n      swap1\n      pop\n      jump\t// out\n        /* \"contracts/Market.sol\":2065:2203  function getBet(bytes32 _bet) ... */\n    tag_37:\n        /* \"contracts/Market.sol\":2135:2158  Struct.MarketBet memory */\n      tag_94\n      mload(0x40)\n      dup1\n      0xc0\n      add\n      0x40\n      mstore\n      dup1\n      and(sub(shl(0xa0, 0x01), 0x01), 0x00)\n      dup2\n      mstore\n      0x20\n      add\n      and(sub(shl(0xa0, 0x01), 0x01), 0x00)\n      dup2\n      mstore\n      0x20\n      add\n      0x00\n      dup2\n      mstore\n      0x20\n      add\n      0x00\n      dup2\n      mstore\n      0x20\n      add\n      0x00\n      dup2\n      mstore\n      0x20\n      add\n      0x00\n      dup2\n      mstore\n      pop\n      swap1\n      jump\n    tag_94:\n      pop\n        /* \"contracts/Market.sol\":2182:2196  betsInfo[_bet] */\n      0x00\n      swap1\n      dup2\n      mstore\n        /* \"contracts/Market.sol\":2182:2190  betsInfo */\n      0x06\n        /* \"contracts/Market.sol\":2182:2196  betsInfo[_bet] */\n      0x20\n      swap1\n      dup2\n      mstore\n      0x40\n      swap2\n      dup3\n      swap1\n      keccak256\n        /* \"contracts/Market.sol\":2175:2196  return betsInfo[_bet] */\n      dup3\n      mload\n      0xc0\n      dup2\n      add\n      dup5\n      mstore\n      dup2\n      sload\n      sub(shl(0xa0, 0x01), 0x01)\n      swap1\n      dup2\n      and\n      dup3\n      mstore\n      0x01\n      dup4\n      add\n      sload\n      and\n      swap3\n      dup2\n      add\n      swap3\n      swap1\n      swap3\n      mstore\n      0x02\n      dup2\n      add\n      sload\n      swap3\n      dup3\n      add\n      swap3\n      swap1\n      swap3\n      mstore\n      0x03\n      dup3\n      add\n      sload\n      0x60\n      dup3\n      add\n      mstore\n      0x04\n      dup3\n      add\n      sload\n      0x80\n      dup3\n      add\n      mstore\n      0x05\n      swap1\n      swap2\n      add\n      sload\n      0xa0\n      dup3\n      add\n      mstore\n      swap1\n        /* \"contracts/Market.sol\":2065:2203  function getBet(bytes32 _bet) ... */\n      jump\t// out\n        /* \"contracts/Market.sol\":2273:2740  function withdraw(address _user) public override nonReentrant returns(bool) {... */\n    tag_42:\n        /* \"contracts/Market.sol\":2343:2347  bool */\n      0x00\n        /* \"@openzeppelin/contracts/security/ReentrancyGuard.sol\":1744:1745  2 */\n      0x02\n        /* \"@openzeppelin/contracts/security/ReentrancyGuard.sol\":2325:2332  _status */\n      sload(0x00)\n        /* \"@openzeppelin/contracts/security/ReentrancyGuard.sol\":2325:2344  _status != _ENTERED */\n      eq\n      iszero\n        /* \"@openzeppelin/contracts/security/ReentrancyGuard.sol\":2317:2380  require(_status != _ENTERED, \"ReentrancyGuard: reentrant call\") */\n      tag_98\n      jumpi\n      mload(0x40)\n      shl(0xe5, 0x461bcd)\n      dup2\n      mstore\n        /* \"#utility.yul\":9940:9942   */\n      0x20\n        /* \"@openzeppelin/contracts/security/ReentrancyGuard.sol\":2317:2380  require(_status != _ENTERED, \"ReentrancyGuard: reentrant call\") */\n      0x04\n      dup3\n      add\n        /* \"#utility.yul\":9922:9943   */\n      mstore\n        /* \"#utility.yul\":9979:9981   */\n      0x1f\n        /* \"#utility.yul\":9959:9977   */\n      0x24\n      dup3\n      add\n        /* \"#utility.yul\":9952:9982   */\n      mstore\n        /* \"#utility.yul\":10018:10051   */\n      0x5265656e7472616e637947756172643a207265656e7472616e742063616c6c00\n        /* \"#utility.yul\":9998:10016   */\n      0x44\n      dup3\n      add\n        /* \"#utility.yul\":9991:10052   */\n      mstore\n        /* \"#utility.yul\":10069:10087   */\n      0x64\n      add\n        /* \"@openzeppelin/contracts/security/ReentrancyGuard.sol\":2317:2380  require(_status != _ENTERED, \"ReentrancyGuard: reentrant call\") */\n      tag_84\n        /* \"#utility.yul\":9912:10093   */\n      jump\n        /* \"@openzeppelin/contracts/security/ReentrancyGuard.sol\":2317:2380  require(_status != _ENTERED, \"ReentrancyGuard: reentrant call\") */\n    tag_98:\n        /* \"@openzeppelin/contracts/security/ReentrancyGuard.sol\":1744:1745  2 */\n      0x02\n        /* \"@openzeppelin/contracts/security/ReentrancyGuard.sol\":2455:2462  _status */\n      0x00\n        /* \"@openzeppelin/contracts/security/ReentrancyGuard.sol\":2455:2473  _status = _ENTERED */\n      swap1\n      dup2\n      sstore\n      sub(shl(0xa0, 0x01), 0x01)\n        /* \"contracts/Market.sol\":2414:2424  bal[_user] */\n      dup4\n      dup2\n      and\n      dup3\n      mstore\n        /* \"contracts/Market.sol\":2414:2417  bal */\n      0x05\n        /* \"contracts/Market.sol\":2414:2424  bal[_user] */\n      0x20\n      mstore\n      0x40\n      swap2\n      dup3\n      swap1\n      keccak256\n      sload\n        /* \"contracts/Market.sol\":2380:2410  token.balanceOf(address(this)) */\n      swap2\n      mload\n      shl(0xe0, 0x70a08231)\n      dup2\n      mstore\n        /* \"contracts/Market.sol\":2404:2408  this */\n      address\n        /* \"contracts/Market.sol\":2380:2410  token.balanceOf(address(this)) */\n      0x04\n      dup3\n      add\n        /* \"#utility.yul\":3266:3317   */\n      mstore\n        /* \"contracts/Market.sol\":2380:2385  token */\n      immutable(\"0xbf08d8a2d7c7780024ba6e6dbe12d3d5a5a747ea3071fca63d8a2ede50d3472a\")\n        /* \"contracts/Market.sol\":2380:2395  token.balanceOf */\n      swap1\n      swap2\n      and\n      swap1\n      0x70a08231\n      swap1\n        /* \"#utility.yul\":3239:3257   */\n      0x24\n      add\n        /* \"contracts/Market.sol\":2380:2410  token.balanceOf(address(this)) */\n      0x20\n      mload(0x40)\n      dup1\n      dup4\n      sub\n      dup2\n      dup7\n      dup1\n      extcodesize\n      iszero\n      dup1\n      iszero\n      tag_104\n      jumpi\n      0x00\n      dup1\n      revert\n    tag_104:\n      pop\n      gas\n      staticcall\n      iszero\n      dup1\n      iszero\n      tag_106\n      jumpi\n      returndatasize\n      0x00\n      dup1\n      returndatacopy\n      revert(0x00, returndatasize)\n    tag_106:\n      pop\n      pop\n      pop\n      pop\n      mload(0x40)\n      returndatasize\n      not(0x1f)\n      0x1f\n      dup3\n      add\n      and\n      dup3\n      add\n      dup1\n      0x40\n      mstore\n      pop\n      dup2\n      add\n      swap1\n      tag_107\n      swap2\n      swap1\n      tag_108\n      jump\t// in\n    tag_107:\n        /* \"contracts/Market.sol\":2380:2424  token.balanceOf(address(this)) >= bal[_user] */\n      lt\n      iszero\n        /* \"contracts/Market.sol\":2380:2442  token.balanceOf(address(this)) >= bal[_user] && bal[_user] > 0 */\n      dup1\n      iszero\n      tag_109\n      jumpi\n      pop\n      sub(shl(0xa0, 0x01), 0x01)\n        /* \"contracts/Market.sol\":2428:2438  bal[_user] */\n      dup3\n      and\n        /* \"contracts/Market.sol\":2441:2442  0 */\n      0x00\n        /* \"contracts/Market.sol\":2428:2438  bal[_user] */\n      swap1\n      dup2\n      mstore\n        /* \"contracts/Market.sol\":2428:2431  bal */\n      0x05\n        /* \"contracts/Market.sol\":2428:2438  bal[_user] */\n      0x20\n      mstore\n      0x40\n      swap1\n      keccak256\n      sload\n        /* \"contracts/Market.sol\":2428:2442  bal[_user] > 0 */\n      iszero\n      iszero\n        /* \"contracts/Market.sol\":2380:2442  token.balanceOf(address(this)) >= bal[_user] && bal[_user] > 0 */\n    tag_109:\n        /* \"contracts/Market.sol\":2359:2488  require(... */\n      tag_110\n      jumpi\n      mload(0x40)\n      shl(0xe5, 0x461bcd)\n      dup2\n      mstore\n        /* \"#utility.yul\":8551:8553   */\n      0x20\n        /* \"contracts/Market.sol\":2359:2488  require(... */\n      0x04\n      dup3\n      add\n        /* \"#utility.yul\":8533:8554   */\n      mstore\n        /* \"#utility.yul\":8590:8592   */\n      0x14\n        /* \"#utility.yul\":8570:8588   */\n      0x24\n      dup3\n      add\n        /* \"#utility.yul\":8563:8593   */\n      mstore\n      shl(0x60, 0x7a65726f2076616c756520617661696c61626c65)\n        /* \"#utility.yul\":8609:8627   */\n      0x44\n      dup3\n      add\n        /* \"#utility.yul\":8602:8652   */\n      mstore\n        /* \"#utility.yul\":8669:8687   */\n      0x64\n      add\n        /* \"contracts/Market.sol\":2359:2488  require(... */\n      tag_84\n        /* \"#utility.yul\":8523:8693   */\n      jump\n        /* \"contracts/Market.sol\":2359:2488  require(... */\n    tag_110:\n      sub(shl(0xa0, 0x01), 0x01)\n        /* \"contracts/Market.sol\":2520:2530  bal[_user] */\n      dup3\n      dup2\n      and\n        /* \"contracts/Market.sol\":2498:2517  uint256 availAmount */\n      0x00\n        /* \"contracts/Market.sol\":2520:2530  bal[_user] */\n      dup2\n      dup2\n      mstore\n        /* \"contracts/Market.sol\":2520:2523  bal */\n      0x05\n        /* \"contracts/Market.sol\":2520:2530  bal[_user] */\n      0x20\n      mstore\n      0x40\n      dup1\n      dup3\n      keccak256\n      dup1\n      sload\n        /* \"contracts/Market.sol\":2540:2554  bal[_user] = 0 */\n      swap1\n      dup4\n      swap1\n      sstore\n        /* \"contracts/Market.sol\":2579:2613  token.transfer(_user, availAmount) */\n      swap1\n      mload\n      shl(0xe0, 0xa9059cbb)\n      dup2\n      mstore\n      0x04\n      dup2\n      add\n        /* \"#utility.yul\":4787:4838   */\n      swap4\n      swap1\n      swap4\n      mstore\n        /* \"#utility.yul\":4854:4872   */\n      0x24\n      dup4\n      add\n        /* \"#utility.yul\":4847:4881   */\n      dup2\n      swap1\n      mstore\n        /* \"contracts/Market.sol\":2520:2530  bal[_user] */\n      swap3\n        /* \"contracts/Market.sol\":2498:2517  uint256 availAmount */\n      swap1\n      swap2\n        /* \"contracts/Market.sol\":2579:2584  token */\n      immutable(\"0xbf08d8a2d7c7780024ba6e6dbe12d3d5a5a747ea3071fca63d8a2ede50d3472a\")\n        /* \"contracts/Market.sol\":2579:2593  token.transfer */\n      swap1\n      swap2\n      and\n      swap1\n      0xa9059cbb\n      swap1\n        /* \"#utility.yul\":4760:4778   */\n      0x44\n      add\n        /* \"contracts/Market.sol\":2579:2613  token.transfer(_user, availAmount) */\n      0x20\n      mload(0x40)\n      dup1\n      dup4\n      sub\n      dup2\n      0x00\n      dup8\n      dup1\n      extcodesize\n      iszero\n      dup1\n      iszero\n      tag_115\n      jumpi\n      0x00\n      dup1\n      revert\n    tag_115:\n      pop\n      gas\n      call\n      iszero\n      dup1\n      iszero\n      tag_117\n      jumpi\n      returndatasize\n      0x00\n      dup1\n      returndatacopy\n      revert(0x00, returndatasize)\n    tag_117:\n      pop\n      pop\n      pop\n      pop\n      mload(0x40)\n      returndatasize\n      not(0x1f)\n      0x1f\n      dup3\n      add\n      and\n      dup3\n      add\n      dup1\n      0x40\n      mstore\n      pop\n      dup2\n      add\n      swap1\n      tag_118\n      swap2\n      swap1\n      tag_119\n      jump\t// in\n    tag_118:\n        /* \"contracts/Market.sol\":2564:2613  bool success = token.transfer(_user, availAmount) */\n      swap1\n      pop\n        /* \"contracts/Market.sol\":2631:2638  success */\n      dup1\n        /* \"contracts/Market.sol\":2623:2668  require(success, \"transfer to caller failed\") */\n      tag_120\n      jumpi\n      mload(0x40)\n      shl(0xe5, 0x461bcd)\n      dup2\n      mstore\n        /* \"#utility.yul\":8197:8199   */\n      0x20\n        /* \"contracts/Market.sol\":2623:2668  require(success, \"transfer to caller failed\") */\n      0x04\n      dup3\n      add\n        /* \"#utility.yul\":8179:8200   */\n      mstore\n        /* \"#utility.yul\":8236:8238   */\n      0x19\n        /* \"#utility.yul\":8216:8234   */\n      0x24\n      dup3\n      add\n        /* \"#utility.yul\":8209:8239   */\n      mstore\n        /* \"#utility.yul\":8275:8302   */\n      0x7472616e7366657220746f2063616c6c6572206661696c656400000000000000\n        /* \"#utility.yul\":8255:8273   */\n      0x44\n      dup3\n      add\n        /* \"#utility.yul\":8248:8303   */\n      mstore\n        /* \"#utility.yul\":8320:8338   */\n      0x64\n      add\n        /* \"contracts/Market.sol\":2623:2668  require(success, \"transfer to caller failed\") */\n      tag_84\n        /* \"#utility.yul\":8169:8344   */\n      jump\n        /* \"contracts/Market.sol\":2623:2668  require(success, \"transfer to caller failed\") */\n    tag_120:\n        /* \"contracts/Market.sol\":2684:2712  Withdraw(_user, availAmount) */\n      0x40\n      dup1\n      mload\n      sub(shl(0xa0, 0x01), 0x01)\n        /* \"#utility.yul\":4805:4837   */\n      dup7\n      and\n        /* \"#utility.yul\":4787:4838   */\n      dup2\n      mstore\n        /* \"#utility.yul\":4869:4871   */\n      0x20\n        /* \"#utility.yul\":4854:4872   */\n      dup2\n      add\n        /* \"#utility.yul\":4847:4881   */\n      dup5\n      swap1\n      mstore\n        /* \"contracts/Market.sol\":2684:2712  Withdraw(_user, availAmount) */\n      0x884edad9ce6fa2440d8a54cc123490eb96d2768479d49ff9c7366125a9424364\n      swap2\n        /* \"#utility.yul\":4760:4778   */\n      add\n        /* \"contracts/Market.sol\":2684:2712  Withdraw(_user, availAmount) */\n      mload(0x40)\n      dup1\n      swap2\n      sub\n      swap1\n      log1\n        /* \"contracts/Market.sol\":2729:2733  true */\n      0x01\n        /* \"contracts/Market.sol\":2722:2733  return true */\n      swap3\n      pop\n      pop\n      pop\n        /* \"@openzeppelin/contracts/security/ReentrancyGuard.sol\":2484:2485  _ */\n    tag_101:\n        /* \"@openzeppelin/contracts/security/ReentrancyGuard.sol\":1701:1702  1 */\n      0x01\n        /* \"@openzeppelin/contracts/security/ReentrancyGuard.sol\":2628:2635  _status */\n      0x00\n        /* \"@openzeppelin/contracts/security/ReentrancyGuard.sol\":2628:2650  _status = _NOT_ENTERED */\n      sstore\n        /* \"contracts/Market.sol\":2273:2740  function withdraw(address _user) public override nonReentrant returns(bool) {... */\n      swap2\n      swap1\n      pop\n      jump\t// out\n        /* \"contracts/Market.sol\":3605:3925  function settleBet(bytes32 _bet) external override {... */\n    tag_47:\n        /* \"contracts/Market.sol\":3666:3689  bytes32[] memory _pairs */\n      0x00\n        /* \"contracts/Market.sol\":3692:3706  betPairs[_bet] */\n      dup2\n      dup2\n      mstore\n        /* \"contracts/Market.sol\":3692:3700  betPairs */\n      0x09\n        /* \"contracts/Market.sol\":3692:3706  betPairs[_bet] */\n      0x20\n      swap1\n      dup2\n      mstore\n      0x40\n      dup1\n      dup4\n      keccak256\n        /* \"contracts/Market.sol\":3666:3706  bytes32[] memory _pairs = betPairs[_bet] */\n      dup1\n      sload\n      dup3\n      mload\n      dup2\n      dup6\n      mul\n      dup2\n      add\n      dup6\n      add\n      swap1\n      swap4\n      mstore\n      dup1\n      dup4\n      mstore\n      swap2\n      swap3\n        /* \"contracts/Market.sol\":3692:3706  betPairs[_bet] */\n      swap1\n      swap2\n        /* \"contracts/Market.sol\":3666:3706  bytes32[] memory _pairs = betPairs[_bet] */\n      swap1\n      dup4\n      add\n        /* \"contracts/Market.sol\":3692:3706  betPairs[_bet] */\n      dup3\n        /* \"contracts/Market.sol\":3666:3706  bytes32[] memory _pairs = betPairs[_bet] */\n      dup3\n      dup1\n      iszero\n      tag_125\n      jumpi\n      0x20\n      mul\n      dup3\n      add\n      swap2\n      swap1\n      0x00\n      mstore\n      keccak256(0x00, 0x20)\n      swap1\n    tag_126:\n      dup2\n      sload\n      dup2\n      mstore\n      0x20\n      add\n      swap1\n      0x01\n      add\n      swap1\n      dup1\n      dup4\n      gt\n      tag_126\n      jumpi\n    tag_125:\n      pop\n      pop\n        /* \"contracts/Market.sol\":3735:3748  _pairs.length */\n      dup4\n      mload\n        /* \"contracts/Market.sol\":3666:3706  bytes32[] memory _pairs = betPairs[_bet] */\n      swap4\n      swap5\n      pop\n        /* \"contracts/Market.sol\":3716:3732  uint pairsLength */\n      0x00\n      swap3\n      pop\n      pop\n      pop\n        /* \"contracts/Market.sol\":3758:3842  for(uint i = 0; i < pairsLength; i++){... */\n    tag_127:\n        /* \"contracts/Market.sol\":3778:3789  pairsLength */\n      dup2\n        /* \"contracts/Market.sol\":3774:3775  i */\n      dup2\n        /* \"contracts/Market.sol\":3774:3789  i < pairsLength */\n      lt\n        /* \"contracts/Market.sol\":3758:3842  for(uint i = 0; i < pairsLength; i++){... */\n      iszero\n      tag_128\n      jumpi\n        /* \"contracts/Market.sol\":3809:3831  _settlePair(_pairs[i]) */\n      tag_130\n        /* \"contracts/Market.sol\":3821:3827  _pairs */\n      dup4\n        /* \"contracts/Market.sol\":3828:3829  i */\n      dup3\n        /* \"contracts/Market.sol\":3821:3830  _pairs[i] */\n      dup2\n      mload\n      dup2\n      lt\n      tag_131\n      jumpi\n      mstore(0x00, shl(0xe0, 0x4e487b71))\n      mstore(0x04, 0x32)\n      revert(0x00, 0x24)\n    tag_131:\n      0x20\n      mul\n      0x20\n      add\n      add\n      mload\n        /* \"contracts/Market.sol\":3809:3820  _settlePair */\n      tag_132\n        /* \"contracts/Market.sol\":3809:3831  _settlePair(_pairs[i]) */\n      jump\t// in\n    tag_130:\n      pop\n        /* \"contracts/Market.sol\":3791:3794  i++ */\n      dup1\n      tag_133\n      dup2\n      tag_134\n      jump\t// in\n    tag_133:\n      swap2\n      pop\n      pop\n        /* \"contracts/Market.sol\":3758:3842  for(uint i = 0; i < pairsLength; i++){... */\n      jump(tag_127)\n    tag_128:\n      pop\n        /* \"contracts/Market.sol\":3858:3868  msg.sender */\n      caller\n        /* \"contracts/Market.sol\":3872:3873  0 */\n      0x00\n        /* \"contracts/Market.sol\":3854:3869  bal[msg.sender] */\n      swap1\n      dup2\n      mstore\n        /* \"contracts/Market.sol\":3854:3857  bal */\n      0x05\n        /* \"contracts/Market.sol\":3854:3869  bal[msg.sender] */\n      0x20\n      mstore\n      0x40\n      swap1\n      keccak256\n      sload\n        /* \"contracts/Market.sol\":3854:3873  bal[msg.sender] > 0 */\n      iszero\n        /* \"contracts/Market.sol\":3851:3919  if(bal[msg.sender] > 0){... */\n      tag_135\n      jumpi\n        /* \"contracts/Market.sol\":3888:3908  withdraw(msg.sender) */\n      tag_136\n        /* \"contracts/Market.sol\":3897:3907  msg.sender */\n      caller\n        /* \"contracts/Market.sol\":3888:3896  withdraw */\n      tag_42\n        /* \"contracts/Market.sol\":3888:3908  withdraw(msg.sender) */\n      jump\t// in\n    tag_136:\n      pop\n        /* \"contracts/Market.sol\":3851:3919  if(bal[msg.sender] > 0){... */\n    tag_135:\n        /* \"contracts/Market.sol\":3605:3925  function settleBet(bytes32 _bet) external override {... */\n      pop\n      pop\n      pop\n      jump\t// out\n        /* \"contracts/Market.sol\":5651:8259  function addBet(... */\n    tag_51:\n        /* \"contracts/Market.sol\":5890:5893  app */\n      sload(0x0a)\n        /* \"contracts/Market.sol\":5890:5913  app.isBlack(msg.sender) */\n      mload(0x40)\n      shl(0xe0, 0x332daccf)\n      dup2\n      mstore\n        /* \"contracts/Market.sol\":5902:5912  msg.sender */\n      caller\n        /* \"contracts/Market.sol\":5890:5913  app.isBlack(msg.sender) */\n      0x04\n      dup3\n      add\n        /* \"#utility.yul\":3266:3317   */\n      mstore\n        /* \"contracts/Market.sol\":5858:5865  bytes32 */\n      0x00\n      swap2\n      sub(shl(0xa0, 0x01), 0x01)\n        /* \"contracts/Market.sol\":5890:5893  app */\n      and\n      swap1\n        /* \"contracts/Market.sol\":5890:5901  app.isBlack */\n      0x332daccf\n      swap1\n        /* \"#utility.yul\":3239:3257   */\n      0x24\n      add\n        /* \"contracts/Market.sol\":5890:5913  app.isBlack(msg.sender) */\n      0x20\n      mload(0x40)\n      dup1\n      dup4\n      sub\n      dup2\n      dup7\n      dup1\n      extcodesize\n      iszero\n      dup1\n      iszero\n      tag_139\n      jumpi\n      0x00\n      dup1\n      revert\n    tag_139:\n      pop\n      gas\n      staticcall\n      iszero\n      dup1\n      iszero\n      tag_141\n      jumpi\n      returndatasize\n      0x00\n      dup1\n      returndatacopy\n      revert(0x00, returndatasize)\n    tag_141:\n      pop\n      pop\n      pop\n      pop\n      mload(0x40)\n      returndatasize\n      not(0x1f)\n      0x1f\n      dup3\n      add\n      and\n      dup3\n      add\n      dup1\n      0x40\n      mstore\n      pop\n      dup2\n      add\n      swap1\n      tag_142\n      swap2\n      swap1\n      tag_119\n      jump\t// in\n    tag_142:\n        /* \"contracts/Market.sol\":5889:5913  !app.isBlack(msg.sender) */\n      iszero\n        /* \"contracts/Market.sol\":5881:5927  require(!app.isBlack(msg.sender), \"blacklist\") */\n      tag_143\n      jumpi\n      mload(0x40)\n      shl(0xe5, 0x461bcd)\n      dup2\n      mstore\n        /* \"#utility.yul\":9603:9605   */\n      0x20\n        /* \"contracts/Market.sol\":5881:5927  require(!app.isBlack(msg.sender), \"blacklist\") */\n      0x04\n      dup3\n      add\n        /* \"#utility.yul\":9585:9606   */\n      mstore\n        /* \"#utility.yul\":9642:9643   */\n      0x09\n        /* \"#utility.yul\":9622:9640   */\n      0x24\n      dup3\n      add\n        /* \"#utility.yul\":9615:9644   */\n      mstore\n      shl(0xba, 0x189b1858dadb1a5cdd)\n        /* \"#utility.yul\":9660:9678   */\n      0x44\n      dup3\n      add\n        /* \"#utility.yul\":9653:9692   */\n      mstore\n        /* \"#utility.yul\":9709:9727   */\n      0x64\n      add\n        /* \"contracts/Market.sol\":5881:5927  require(!app.isBlack(msg.sender), \"blacklist\") */\n      tag_84\n        /* \"#utility.yul\":9575:9733   */\n      jump\n        /* \"contracts/Market.sol\":5881:5927  require(!app.isBlack(msg.sender), \"blacklist\") */\n    tag_143:\n        /* \"contracts/Market.sol\":5945:5951  status */\n      sload(0x02)\n        /* \"contracts/Market.sol\":5945:5956  status == 0 */\n      iszero\n        /* \"contracts/Market.sol\":5937:5978  require(status == 0, \"market not active\") */\n      tag_146\n      jumpi\n      mload(0x40)\n      shl(0xe5, 0x461bcd)\n      dup2\n      mstore\n        /* \"#utility.yul\":6456:6458   */\n      0x20\n        /* \"contracts/Market.sol\":5937:5978  require(status == 0, \"market not active\") */\n      0x04\n      dup3\n      add\n        /* \"#utility.yul\":6438:6459   */\n      mstore\n        /* \"#utility.yul\":6495:6497   */\n      0x11\n        /* \"#utility.yul\":6475:6493   */\n      0x24\n      dup3\n      add\n        /* \"#utility.yul\":6468:6498   */\n      mstore\n      shl(0x78, 0x6d61726b6574206e6f7420616374697665)\n        /* \"#utility.yul\":6514:6532   */\n      0x44\n      dup3\n      add\n        /* \"#utility.yul\":6507:6554   */\n      mstore\n        /* \"#utility.yul\":6571:6589   */\n      0x64\n      add\n        /* \"contracts/Market.sol\":5937:5978  require(status == 0, \"market not active\") */\n      tag_84\n        /* \"#utility.yul\":6428:6595   */\n      jump\n        /* \"contracts/Market.sol\":5937:5978  require(status == 0, \"market not active\") */\n    tag_146:\n        /* \"contracts/Market.sol\":5996:6001  _side */\n      dup3\n        /* \"contracts/Market.sol\":6005:6006  1 */\n      0x01\n        /* \"contracts/Market.sol\":5996:6006  _side == 1 */\n      eq\n        /* \"contracts/Market.sol\":5996:6020  _side == 1 || _side == 2 */\n      dup1\n      tag_149\n      jumpi\n      pop\n        /* \"contracts/Market.sol\":6010:6015  _side */\n      dup3\n        /* \"contracts/Market.sol\":6019:6020  2 */\n      0x02\n        /* \"contracts/Market.sol\":6010:6020  _side == 2 */\n      eq\n        /* \"contracts/Market.sol\":5996:6020  _side == 1 || _side == 2 */\n    tag_149:\n        /* \"contracts/Market.sol\":5988:6037  require(_side == 1 || _side == 2, \"invalid side\") */\n      tag_150\n      jumpi\n      mload(0x40)\n      shl(0xe5, 0x461bcd)\n      dup2\n      mstore\n        /* \"#utility.yul\":7856:7858   */\n      0x20\n        /* \"contracts/Market.sol\":5988:6037  require(_side == 1 || _side == 2, \"invalid side\") */\n      0x04\n      dup3\n      add\n        /* \"#utility.yul\":7838:7859   */\n      mstore\n        /* \"#utility.yul\":7895:7897   */\n      0x0c\n        /* \"#utility.yul\":7875:7893   */\n      0x24\n      dup3\n      add\n        /* \"#utility.yul\":7868:7898   */\n      mstore\n      shl(0xa0, 0x696e76616c69642073696465)\n        /* \"#utility.yul\":7914:7932   */\n      0x44\n      dup3\n      add\n        /* \"#utility.yul\":7907:7949   */\n      mstore\n        /* \"#utility.yul\":7966:7984   */\n      0x64\n      add\n        /* \"contracts/Market.sol\":5988:6037  require(_side == 1 || _side == 2, \"invalid side\") */\n      tag_84\n        /* \"#utility.yul\":7828:7990   */\n      jump\n        /* \"contracts/Market.sol\":5988:6037  require(_side == 1 || _side == 2, \"invalid side\") */\n    tag_150:\n        /* \"contracts/Market.sol\":6055:6082  token.balanceOf(msg.sender) */\n      mload(0x40)\n      shl(0xe0, 0x70a08231)\n      dup2\n      mstore\n        /* \"contracts/Market.sol\":6071:6081  msg.sender */\n      caller\n        /* \"contracts/Market.sol\":6055:6082  token.balanceOf(msg.sender) */\n      0x04\n      dup3\n      add\n        /* \"#utility.yul\":3266:3317   */\n      mstore\n        /* \"contracts/Market.sol\":6086:6092  _stake */\n      dup6\n      swap1\n        /* \"contracts/Market.sol\":6055:6060  token */\n      immutable(\"0xbf08d8a2d7c7780024ba6e6dbe12d3d5a5a747ea3071fca63d8a2ede50d3472a\")\n      sub(shl(0xa0, 0x01), 0x01)\n        /* \"contracts/Market.sol\":6055:6070  token.balanceOf */\n      and\n      swap1\n      0x70a08231\n      swap1\n        /* \"#utility.yul\":3239:3257   */\n      0x24\n      add\n        /* \"contracts/Market.sol\":6055:6082  token.balanceOf(msg.sender) */\n      0x20\n      mload(0x40)\n      dup1\n      dup4\n      sub\n      dup2\n      dup7\n      dup1\n      extcodesize\n      iszero\n      dup1\n      iszero\n      tag_154\n      jumpi\n      0x00\n      dup1\n      revert\n    tag_154:\n      pop\n      gas\n      staticcall\n      iszero\n      dup1\n      iszero\n      tag_156\n      jumpi\n      returndatasize\n      0x00\n      dup1\n      returndatacopy\n      revert(0x00, returndatasize)\n    tag_156:\n      pop\n      pop\n      pop\n      pop\n      mload(0x40)\n      returndatasize\n      not(0x1f)\n      0x1f\n      dup3\n      add\n      and\n      dup3\n      add\n      dup1\n      0x40\n      mstore\n      pop\n      dup2\n      add\n      swap1\n      tag_157\n      swap2\n      swap1\n      tag_108\n      jump\t// in\n    tag_157:\n        /* \"contracts/Market.sol\":6055:6092  token.balanceOf(msg.sender) >= _stake */\n      lt\n      iszero\n        /* \"contracts/Market.sol\":6047:6121  require(token.balanceOf(msg.sender) >= _stake,\"not enough token balalnce\") */\n      tag_158\n      jumpi\n      mload(0x40)\n      shl(0xe5, 0x461bcd)\n      dup2\n      mstore\n        /* \"#utility.yul\":8900:8902   */\n      0x20\n        /* \"contracts/Market.sol\":6047:6121  require(token.balanceOf(msg.sender) >= _stake,\"not enough token balalnce\") */\n      0x04\n      dup3\n      add\n        /* \"#utility.yul\":8882:8903   */\n      mstore\n        /* \"#utility.yul\":8939:8941   */\n      0x19\n        /* \"#utility.yul\":8919:8937   */\n      0x24\n      dup3\n      add\n        /* \"#utility.yul\":8912:8942   */\n      mstore\n        /* \"#utility.yul\":8978:9005   */\n      0x6e6f7420656e6f75676820746f6b656e2062616c616c6e636500000000000000\n        /* \"#utility.yul\":8958:8976   */\n      0x44\n      dup3\n      add\n        /* \"#utility.yul\":8951:9006   */\n      mstore\n        /* \"#utility.yul\":9023:9041   */\n      0x64\n      add\n        /* \"contracts/Market.sol\":6047:6121  require(token.balanceOf(msg.sender) >= _stake,\"not enough token balalnce\") */\n      tag_84\n        /* \"#utility.yul\":8872:9047   */\n      jump\n        /* \"contracts/Market.sol\":6047:6121  require(token.balanceOf(msg.sender) >= _stake,\"not enough token balalnce\") */\n    tag_158:\n        /* \"contracts/Market.sol\":6139:6181  token.allowance(msg.sender, address(this)) */\n      mload(0x40)\n      shl(0xe1, 0x6eb1769f)\n      dup2\n      mstore\n        /* \"contracts/Market.sol\":6155:6165  msg.sender */\n      caller\n        /* \"contracts/Market.sol\":6139:6181  token.allowance(msg.sender, address(this)) */\n      0x04\n      dup3\n      add\n        /* \"#utility.yul\":3540:3574   */\n      mstore\n        /* \"contracts/Market.sol\":6175:6179  this */\n      address\n        /* \"#utility.yul\":3590:3608   */\n      0x24\n      dup3\n      add\n        /* \"#utility.yul\":3583:3626   */\n      mstore\n        /* \"contracts/Market.sol\":6185:6191  _stake */\n      dup6\n      swap1\n        /* \"contracts/Market.sol\":6139:6144  token */\n      immutable(\"0xbf08d8a2d7c7780024ba6e6dbe12d3d5a5a747ea3071fca63d8a2ede50d3472a\")\n      sub(shl(0xa0, 0x01), 0x01)\n        /* \"contracts/Market.sol\":6139:6154  token.allowance */\n      and\n      swap1\n      0xdd62ed3e\n      swap1\n        /* \"#utility.yul\":3475:3493   */\n      0x44\n      add\n        /* \"contracts/Market.sol\":6139:6181  token.allowance(msg.sender, address(this)) */\n      0x20\n      mload(0x40)\n      dup1\n      dup4\n      sub\n      dup2\n      dup7\n      dup1\n      extcodesize\n      iszero\n      dup1\n      iszero\n      tag_163\n      jumpi\n      0x00\n      dup1\n      revert\n    tag_163:\n      pop\n      gas\n      staticcall\n      iszero\n      dup1\n      iszero\n      tag_165\n      jumpi\n      returndatasize\n      0x00\n      dup1\n      returndatacopy\n      revert(0x00, returndatasize)\n    tag_165:\n      pop\n      pop\n      pop\n      pop\n      mload(0x40)\n      returndatasize\n      not(0x1f)\n      0x1f\n      dup3\n      add\n      and\n      dup3\n      add\n      dup1\n      0x40\n      mstore\n      pop\n      dup2\n      add\n      swap1\n      tag_166\n      swap2\n      swap1\n      tag_108\n      jump\t// in\n    tag_166:\n        /* \"contracts/Market.sol\":6139:6191  token.allowance(msg.sender, address(this)) >= _stake */\n      lt\n      iszero\n        /* \"contracts/Market.sol\":6131:6215  require(token.allowance(msg.sender, address(this)) >= _stake,\"not enough allowance\") */\n      tag_167\n      jumpi\n      mload(0x40)\n      shl(0xe5, 0x461bcd)\n      dup2\n      mstore\n        /* \"#utility.yul\":9254:9256   */\n      0x20\n        /* \"contracts/Market.sol\":6131:6215  require(token.allowance(msg.sender, address(this)) >= _stake,\"not enough allowance\") */\n      0x04\n      dup3\n      add\n        /* \"#utility.yul\":9236:9257   */\n      mstore\n        /* \"#utility.yul\":9293:9295   */\n      0x14\n        /* \"#utility.yul\":9273:9291   */\n      0x24\n      dup3\n      add\n        /* \"#utility.yul\":9266:9296   */\n      mstore\n      shl(0x60, 0x6e6f7420656e6f75676820616c6c6f77616e6365)\n        /* \"#utility.yul\":9312:9330   */\n      0x44\n      dup3\n      add\n        /* \"#utility.yul\":9305:9355   */\n      mstore\n        /* \"#utility.yul\":9372:9390   */\n      0x64\n      add\n        /* \"contracts/Market.sol\":6131:6215  require(token.allowance(msg.sender, address(this)) >= _stake,\"not enough allowance\") */\n      tag_84\n        /* \"#utility.yul\":9226:9396   */\n      jump\n        /* \"contracts/Market.sol\":6131:6215  require(token.allowance(msg.sender, address(this)) >= _stake,\"not enough allowance\") */\n    tag_167:\n        /* \"contracts/Market.sol\":6243:6246  app */\n      0x0a\n      0x00\n      swap1\n      sload\n      swap1\n      0x0100\n      exp\n      swap1\n      div\n      sub(shl(0xa0, 0x01), 0x01)\n      and\n      sub(shl(0xa0, 0x01), 0x01)\n        /* \"contracts/Market.sol\":6243:6255  app.minStake */\n      and\n      0x375b3c0a\n        /* \"contracts/Market.sol\":6243:6257  app.minStake() */\n      mload(0x40)\n      dup2\n      0xffffffff\n      and\n      0xe0\n      shl\n      dup2\n      mstore\n      0x04\n      add\n      0x20\n      mload(0x40)\n      dup1\n      dup4\n      sub\n      dup2\n      dup7\n      dup1\n      extcodesize\n      iszero\n      dup1\n      iszero\n      tag_170\n      jumpi\n      0x00\n      dup1\n      revert\n    tag_170:\n      pop\n      gas\n      staticcall\n      iszero\n      dup1\n      iszero\n      tag_172\n      jumpi\n      returndatasize\n      0x00\n      dup1\n      returndatacopy\n      revert(0x00, returndatasize)\n    tag_172:\n      pop\n      pop\n      pop\n      pop\n      mload(0x40)\n      returndatasize\n      not(0x1f)\n      0x1f\n      dup3\n      add\n      and\n      dup3\n      add\n      dup1\n      0x40\n      mstore\n      pop\n      dup2\n      add\n      swap1\n      tag_173\n      swap2\n      swap1\n      tag_108\n      jump\t// in\n    tag_173:\n        /* \"contracts/Market.sol\":6233:6239  _stake */\n      dup6\n        /* \"contracts/Market.sol\":6233:6257  _stake >= app.minStake() */\n      lt\n      iszero\n        /* \"contracts/Market.sol\":6225:6280  require(_stake >= app.minStake(),\"less than min stake\") */\n      tag_174\n      jumpi\n      mload(0x40)\n      shl(0xe5, 0x461bcd)\n      dup2\n      mstore\n        /* \"#utility.yul\":6108:6110   */\n      0x20\n        /* \"contracts/Market.sol\":6225:6280  require(_stake >= app.minStake(),\"less than min stake\") */\n      0x04\n      dup3\n      add\n        /* \"#utility.yul\":6090:6111   */\n      mstore\n        /* \"#utility.yul\":6147:6149   */\n      0x13\n        /* \"#utility.yul\":6127:6145   */\n      0x24\n      dup3\n      add\n        /* \"#utility.yul\":6120:6150   */\n      mstore\n      shl(0x68, 0x6c657373207468616e206d696e207374616b65)\n        /* \"#utility.yul\":6166:6184   */\n      0x44\n      dup3\n      add\n        /* \"#utility.yul\":6159:6208   */\n      mstore\n        /* \"#utility.yul\":6225:6243   */\n      0x64\n      add\n        /* \"contracts/Market.sol\":6225:6280  require(_stake >= app.minStake(),\"less than min stake\") */\n      tag_84\n        /* \"#utility.yul\":6080:6249   */\n      jump\n        /* \"contracts/Market.sol\":6225:6280  require(_stake >= app.minStake(),\"less than min stake\") */\n    tag_174:\n        /* \"contracts/Market.sol\":6311:6364  token.transferFrom(msg.sender, address(this), _stake) */\n      mload(0x40)\n      shl(0xe0, 0x23b872dd)\n      dup2\n      mstore\n        /* \"contracts/Market.sol\":6330:6340  msg.sender */\n      caller\n        /* \"contracts/Market.sol\":6311:6364  token.transferFrom(msg.sender, address(this), _stake) */\n      0x04\n      dup3\n      add\n        /* \"#utility.yul\":4473:4507   */\n      mstore\n        /* \"contracts/Market.sol\":6350:6354  this */\n      address\n        /* \"#utility.yul\":4523:4541   */\n      0x24\n      dup3\n      add\n        /* \"#utility.yul\":4516:4559   */\n      mstore\n        /* \"#utility.yul\":4575:4593   */\n      0x44\n      dup2\n      add\n        /* \"#utility.yul\":4568:4602   */\n      dup7\n      swap1\n      mstore\n        /* \"contracts/Market.sol\":6311:6316  token */\n      immutable(\"0xbf08d8a2d7c7780024ba6e6dbe12d3d5a5a747ea3071fca63d8a2ede50d3472a\")\n      sub(shl(0xa0, 0x01), 0x01)\n        /* \"contracts/Market.sol\":6311:6329  token.transferFrom */\n      and\n      swap1\n      0x23b872dd\n      swap1\n        /* \"#utility.yul\":4408:4426   */\n      0x64\n      add\n        /* \"contracts/Market.sol\":6311:6364  token.transferFrom(msg.sender, address(this), _stake) */\n      0x20\n      mload(0x40)\n      dup1\n      dup4\n      sub\n      dup2\n      0x00\n      dup8\n      dup1\n      extcodesize\n      iszero\n      dup1\n      iszero\n      tag_179\n      jumpi\n      0x00\n      dup1\n      revert\n    tag_179:\n      pop\n      gas\n      call\n      iszero\n      dup1\n      iszero\n      tag_181\n      jumpi\n      returndatasize\n      0x00\n      dup1\n      returndatacopy\n      revert(0x00, returndatasize)\n    tag_181:\n      pop\n      pop\n      pop\n      pop\n      mload(0x40)\n      returndatasize\n      not(0x1f)\n      0x1f\n      dup3\n      add\n      and\n      dup3\n      add\n      dup1\n      0x40\n      mstore\n      pop\n      dup2\n      add\n      swap1\n      tag_182\n      swap2\n      swap1\n      tag_119\n      jump\t// in\n    tag_182:\n        /* \"contracts/Market.sol\":6290:6417  require(... */\n      tag_183\n      jumpi\n      mload(0x40)\n      shl(0xe5, 0x461bcd)\n      dup2\n      mstore\n        /* \"#utility.yul\":6802:6804   */\n      0x20\n        /* \"contracts/Market.sol\":6290:6417  require(... */\n      0x04\n      dup3\n      add\n        /* \"#utility.yul\":6784:6805   */\n      mstore\n        /* \"#utility.yul\":6841:6843   */\n      0x1b\n        /* \"#utility.yul\":6821:6839   */\n      0x24\n      dup3\n      add\n        /* \"#utility.yul\":6814:6844   */\n      mstore\n        /* \"#utility.yul\":6880:6909   */\n      0x7472616e736665722066726f6d2063616c6c6572206661696c65640000000000\n        /* \"#utility.yul\":6860:6878   */\n      0x44\n      dup3\n      add\n        /* \"#utility.yul\":6853:6910   */\n      mstore\n        /* \"#utility.yul\":6927:6945   */\n      0x64\n      add\n        /* \"contracts/Market.sol\":6290:6417  require(... */\n      tag_84\n        /* \"#utility.yul\":6774:6951   */\n      jump\n        /* \"contracts/Market.sol\":6290:6417  require(... */\n    tag_183:\n        /* \"contracts/Market.sol\":6427:6442  bytes32 betHash */\n      0x00\n        /* \"contracts/Market.sol\":6445:6607  _createBet(... */\n      tag_186\n        /* \"contracts/Market.sol\":6469:6476  _better */\n      dup9\n        /* \"contracts/Market.sol\":6490:6500  _affiliate */\n      dup9\n        /* \"contracts/Market.sol\":6514:6520  _stake */\n      dup9\n        /* \"contracts/Market.sol\":6427:6442  bytes32 betHash */\n      dup5\n        /* \"contracts/Market.sol\":6566:6577  _odds - 100 */\n      tag_187\n        /* \"contracts/Market.sol\":6574:6577  100 */\n      0x64\n        /* \"contracts/Market.sol\":6566:6571  _odds */\n      dup12\n        /* \"contracts/Market.sol\":6566:6577  _odds - 100 */\n      tag_188\n      jump\t// in\n    tag_187:\n        /* \"contracts/Market.sol\":6550:6561  _odds * 100 */\n      tag_189\n        /* \"contracts/Market.sol\":6550:6555  _odds */\n      dup12\n        /* \"contracts/Market.sol\":6558:6561  100 */\n      0x64\n        /* \"contracts/Market.sol\":6550:6561  _odds * 100 */\n      tag_190\n      jump\t// in\n    tag_189:\n        /* \"contracts/Market.sol\":6549:6578  (_odds * 100) / (_odds - 100) */\n      tag_191\n      swap2\n      swap1\n      tag_192\n      jump\t// in\n    tag_191:\n        /* \"contracts/Market.sol\":6592:6597  _side */\n      dup10\n        /* \"contracts/Market.sol\":6445:6455  _createBet */\n      tag_193\n        /* \"contracts/Market.sol\":6445:6607  _createBet(... */\n      jump\t// in\n    tag_186:\n        /* \"contracts/Market.sol\":6853:6857  bets */\n      0x04\n        /* \"contracts/Market.sol\":6853:6864  bets.length */\n      sload\n        /* \"contracts/Market.sol\":6427:6607  bytes32 betHash = _createBet(... */\n      swap1\n      swap2\n      pop\n        /* \"contracts/Market.sol\":6853:6868  bets.length > 0 */\n      iszero\n        /* \"contracts/Market.sol\":6850:8146  if(bets.length > 0){... */\n      tag_194\n      jumpi\n        /* \"contracts/Market.sol\":6941:6945  bets */\n      0x04\n        /* \"contracts/Market.sol\":6941:6952  bets.length */\n      sload\n        /* \"contracts/Market.sol\":6900:6906  _stake */\n      dup7\n      swap1\n        /* \"contracts/Market.sol\":6966:8136  while(_remStake >= app.minStake()){... */\n    tag_195:\n        /* \"contracts/Market.sol\":6985:6988  app */\n      0x0a\n      0x00\n      swap1\n      sload\n      swap1\n      0x0100\n      exp\n      swap1\n      div\n      sub(shl(0xa0, 0x01), 0x01)\n      and\n      sub(shl(0xa0, 0x01), 0x01)\n        /* \"contracts/Market.sol\":6985:6997  app.minStake */\n      and\n      0x375b3c0a\n        /* \"contracts/Market.sol\":6985:6999  app.minStake() */\n      mload(0x40)\n      dup2\n      0xffffffff\n      and\n      0xe0\n      shl\n      dup2\n      mstore\n      0x04\n      add\n      0x20\n      mload(0x40)\n      dup1\n      dup4\n      sub\n      dup2\n      dup7\n      dup1\n      extcodesize\n      iszero\n      dup1\n      iszero\n      tag_197\n      jumpi\n      0x00\n      dup1\n      revert\n    tag_197:\n      pop\n      gas\n      staticcall\n      iszero\n      dup1\n      iszero\n      tag_199\n      jumpi\n      returndatasize\n      0x00\n      dup1\n      returndatacopy\n      revert(0x00, returndatasize)\n    tag_199:\n      pop\n      pop\n      pop\n      pop\n      mload(0x40)\n      returndatasize\n      not(0x1f)\n      0x1f\n      dup3\n      add\n      and\n      dup3\n      add\n      dup1\n      0x40\n      mstore\n      pop\n      dup2\n      add\n      swap1\n      tag_200\n      swap2\n      swap1\n      tag_108\n      jump\t// in\n    tag_200:\n        /* \"contracts/Market.sol\":6972:6981  _remStake */\n      dup3\n        /* \"contracts/Market.sol\":6972:6999  _remStake >= app.minStake() */\n      lt\n        /* \"contracts/Market.sol\":6966:8136  while(_remStake >= app.minStake()){... */\n      tag_196\n      jumpi\n        /* \"contracts/Market.sol\":7018:7036  uint selectedIndex */\n      0x00\n        /* \"contracts/Market.sol\":7058:7073  uint256 maxOdds */\n      dup1\n        /* \"contracts/Market.sol\":7099:7105  uint i */\n      0x00\n        /* \"contracts/Market.sol\":7095:7475  for(uint i = 0; i < betsLength; i++){... */\n    tag_201:\n        /* \"contracts/Market.sol\":7115:7125  betsLength */\n      dup4\n        /* \"contracts/Market.sol\":7111:7112  i */\n      dup2\n        /* \"contracts/Market.sol\":7111:7125  i < betsLength */\n      lt\n        /* \"contracts/Market.sol\":7095:7475  for(uint i = 0; i < betsLength; i++){... */\n      iszero\n      tag_202\n      jumpi\n        /* \"contracts/Market.sol\":7153:7164  bytes32 bet */\n      0x00\n        /* \"contracts/Market.sol\":7167:7171  bets */\n      0x04\n        /* \"contracts/Market.sol\":7172:7173  i */\n      dup3\n        /* \"contracts/Market.sol\":7167:7174  bets[i] */\n      dup2\n      sload\n      dup2\n      lt\n      tag_204\n      jumpi\n      mstore(0x00, shl(0xe0, 0x4e487b71))\n      mstore(0x04, 0x32)\n      revert(0x00, 0x24)\n    tag_204:\n      swap1\n      0x00\n      mstore\n      keccak256(0x00, 0x20)\n      add\n      sload\n        /* \"contracts/Market.sol\":7153:7174  bytes32 bet = bets[i] */\n      swap1\n      pop\n        /* \"contracts/Market.sol\":7208:7216  betsInfo */\n      0x06\n        /* \"contracts/Market.sol\":7208:7221  betsInfo[bet] */\n      0x00\n        /* \"contracts/Market.sol\":7217:7220  bet */\n      dup3\n        /* \"contracts/Market.sol\":7208:7221  betsInfo[bet] */\n      dup2\n      mstore\n      0x20\n      add\n      swap1\n      dup2\n      mstore\n      0x20\n      add\n      0x00\n      keccak256\n        /* \"contracts/Market.sol\":7208:7226  betsInfo[bet].side */\n      0x05\n      add\n      sload\n        /* \"contracts/Market.sol\":7199:7204  _side */\n      dup11\n        /* \"contracts/Market.sol\":7199:7226  _side == betsInfo[bet].side */\n      eq\n        /* \"contracts/Market.sol\":7196:7284  if(_side == betsInfo[bet].side){... */\n      iszero\n      tag_206\n      jumpi\n        /* \"contracts/Market.sol\":7253:7261  continue */\n      pop\n      jump(tag_203)\n        /* \"contracts/Market.sol\":7196:7284  if(_side == betsInfo[bet].side){... */\n    tag_206:\n        /* \"contracts/Market.sol\":7308:7321  betsInfo[bet] */\n      0x00\n      dup2\n      dup2\n      mstore\n        /* \"contracts/Market.sol\":7308:7316  betsInfo */\n      0x06\n        /* \"contracts/Market.sol\":7308:7321  betsInfo[bet] */\n      0x20\n      mstore\n      0x40\n      swap1\n      keccak256\n        /* \"contracts/Market.sol\":7308:7326  betsInfo[bet].odds */\n      0x04\n      add\n      sload\n        /* \"contracts/Market.sol\":7308:7336  betsInfo[bet].odds > maxOdds */\n      dup4\n      lt\n        /* \"contracts/Market.sol\":7305:7457  if(betsInfo[bet].odds > maxOdds){... */\n      iszero\n      tag_207\n      jumpi\n        /* \"contracts/Market.sol\":7373:7386  betsInfo[bet] */\n      0x00\n      dup2\n      dup2\n      mstore\n        /* \"contracts/Market.sol\":7373:7381  betsInfo */\n      0x06\n        /* \"contracts/Market.sol\":7373:7386  betsInfo[bet] */\n      0x20\n      mstore\n      0x40\n      swap1\n      keccak256\n        /* \"contracts/Market.sol\":7373:7391  betsInfo[bet].odds */\n      0x04\n      add\n      sload\n        /* \"contracts/Market.sol\":7433:7434  i */\n      swap2\n      swap4\n      pop\n        /* \"contracts/Market.sol\":7373:7391  betsInfo[bet].odds */\n      swap1\n      swap2\n      pop\n        /* \"contracts/Market.sol\":7433:7434  i */\n      dup3\n      swap1\n        /* \"contracts/Market.sol\":7305:7457  if(betsInfo[bet].odds > maxOdds){... */\n    tag_207:\n        /* \"contracts/Market.sol\":7095:7475  for(uint i = 0; i < betsLength; i++){... */\n      pop\n    tag_203:\n        /* \"contracts/Market.sol\":7127:7130  i++ */\n      dup1\n      tag_208\n      dup2\n      tag_134\n      jump\t// in\n    tag_208:\n      swap2\n      pop\n      pop\n        /* \"contracts/Market.sol\":7095:7475  for(uint i = 0; i < betsLength; i++){... */\n      jump(tag_201)\n    tag_202:\n      pop\n        /* \"contracts/Market.sol\":7492:7512  uint256 betterAmount */\n      0x00\n        /* \"contracts/Market.sol\":7547:7552  _odds */\n      dup10\n        /* \"contracts/Market.sol\":7537:7544  maxOdds */\n      dup3\n        /* \"contracts/Market.sol\":7537:7552  maxOdds > _odds */\n      gt\n        /* \"contracts/Market.sol\":7537:7581  maxOdds > _odds || (maxOdds > 0 && _instant) */\n      dup1\n      tag_210\n      jumpi\n      pop\n        /* \"contracts/Market.sol\":7567:7568  0 */\n      0x00\n        /* \"contracts/Market.sol\":7557:7564  maxOdds */\n      dup3\n        /* \"contracts/Market.sol\":7557:7568  maxOdds > 0 */\n      gt\n        /* \"contracts/Market.sol\":7557:7580  maxOdds > 0 && _instant */\n      dup1\n      iszero\n      tag_210\n      jumpi\n      pop\n        /* \"contracts/Market.sol\":7572:7580  _instant */\n      dup8\n        /* \"contracts/Market.sol\":7557:7580  maxOdds > 0 && _instant */\n    tag_210:\n        /* \"contracts/Market.sol\":7534:8079  if(maxOdds > _odds || (maxOdds > 0 && _instant)) {... */\n      iszero\n      tag_211\n      jumpi\n        /* \"contracts/Market.sol\":7605:7625  bytes32 selectedHash */\n      0x00\n        /* \"contracts/Market.sol\":7628:7632  bets */\n      0x04\n        /* \"contracts/Market.sol\":7633:7646  selectedIndex */\n      dup5\n        /* \"contracts/Market.sol\":7628:7647  bets[selectedIndex] */\n      dup2\n      sload\n      dup2\n      lt\n      tag_212\n      jumpi\n      mstore(0x00, shl(0xe0, 0x4e487b71))\n      mstore(0x04, 0x32)\n      revert(0x00, 0x24)\n    tag_212:\n      0x00\n      swap2\n      dup3\n      mstore\n      0x20\n      dup1\n      dup4\n      keccak256\n      swap1\n      swap2\n      add\n      sload\n        /* \"contracts/Market.sol\":7707:7729  betsInfo[selectedHash] */\n      dup1\n      dup4\n      mstore\n        /* \"contracts/Market.sol\":7707:7715  betsInfo */\n      0x06\n        /* \"contracts/Market.sol\":7707:7729  betsInfo[selectedHash] */\n      dup3\n      mstore\n      0x40\n      dup1\n      dup5\n      keccak256\n        /* \"contracts/Market.sol\":7669:7729  Struct.MarketBet memory selectedBet = betsInfo[selectedHash] */\n      dup2\n      mload\n      0xc0\n      dup2\n      add\n      dup4\n      mstore\n      dup2\n      sload\n      sub(shl(0xa0, 0x01), 0x01)\n      swap1\n      dup2\n      and\n      dup3\n      mstore\n      0x01\n      dup4\n      add\n      sload\n      and\n      swap5\n      dup2\n      add\n      swap5\n      swap1\n      swap5\n      mstore\n      0x02\n      dup2\n      add\n      sload\n      swap2\n      dup5\n      add\n      swap2\n      swap1\n      swap2\n      mstore\n      0x03\n      dup2\n      add\n      sload\n      0x60\n      dup5\n      add\n      mstore\n      0x04\n      dup2\n      add\n      sload\n      0x80\n      dup5\n      add\n      mstore\n      0x05\n      add\n      sload\n      0xa0\n      dup4\n      add\n      mstore\n        /* \"contracts/Market.sol\":7628:7647  bets[selectedIndex] */\n      swap3\n      pop\n        /* \"contracts/Market.sol\":7669:7729  Struct.MarketBet memory selectedBet = betsInfo[selectedHash] */\n      swap1\n        /* \"contracts/Market.sol\":7816:7827  _odds - 100 */\n      tag_214\n        /* \"contracts/Market.sol\":7824:7827  100 */\n      0x64\n        /* \"contracts/Market.sol\":7816:7821  _odds */\n      dup15\n        /* \"contracts/Market.sol\":7816:7827  _odds - 100 */\n      tag_188\n      jump\t// in\n    tag_214:\n        /* \"contracts/Market.sol\":7792:7803  selectedBet */\n      dup3\n        /* \"contracts/Market.sol\":7792:7811  selectedBet.matched */\n      0x60\n      add\n      mload\n        /* \"contracts/Market.sol\":7772:7783  selectedBet */\n      dup4\n        /* \"contracts/Market.sol\":7772:7789  selectedBet.stake */\n      0x40\n      add\n      mload\n        /* \"contracts/Market.sol\":7772:7811  selectedBet.stake - selectedBet.matched */\n      tag_215\n      swap2\n      swap1\n      tag_188\n      jump\t// in\n    tag_215:\n        /* \"contracts/Market.sol\":7771:7828  (selectedBet.stake - selectedBet.matched) / (_odds - 100) */\n      tag_216\n      swap2\n      swap1\n      tag_192\n      jump\t// in\n    tag_216:\n        /* \"contracts/Market.sol\":7751:7828  uint offeredStake = (selectedBet.stake - selectedBet.matched) / (_odds - 100) */\n      swap1\n      pop\n        /* \"contracts/Market.sol\":7850:7869  offeredStake *= 100 */\n      tag_217\n        /* \"contracts/Market.sol\":7866:7869  100 */\n      0x64\n        /* \"contracts/Market.sol\":7751:7828  uint offeredStake = (selectedBet.stake - selectedBet.matched) / (_odds - 100) */\n      dup3\n        /* \"contracts/Market.sol\":7850:7869  offeredStake *= 100 */\n      tag_190\n      jump\t// in\n    tag_217:\n      swap1\n      pop\n        /* \"contracts/Market.sol\":7927:7992  _match(_stake, offeredStake, _odds, _side, betHash, selectedHash) */\n      tag_218\n        /* \"contracts/Market.sol\":7934:7940  _stake */\n      dup15\n        /* \"contracts/Market.sol\":7942:7954  offeredStake */\n      dup3\n        /* \"contracts/Market.sol\":7956:7961  _odds */\n      dup16\n        /* \"contracts/Market.sol\":7963:7968  _side */\n      dup16\n        /* \"contracts/Market.sol\":7970:7977  betHash */\n      dup14\n        /* \"contracts/Market.sol\":7979:7991  selectedHash */\n      dup9\n        /* \"contracts/Market.sol\":7927:7933  _match */\n      tag_219\n        /* \"contracts/Market.sol\":7927:7992  _match(_stake, offeredStake, _odds, _side, betHash, selectedHash) */\n      jump\t// in\n    tag_218:\n        /* \"contracts/Market.sol\":7912:7992  betterAmount = _match(_stake, offeredStake, _odds, _side, betHash, selectedHash) */\n      swap4\n      pop\n        /* \"contracts/Market.sol\":7534:8079  if(maxOdds > _odds || (maxOdds > 0 && _instant)) {... */\n      pop\n      pop\n      pop\n      jump(tag_220)\n    tag_211:\n        /* \"contracts/Market.sol\":8055:8060  break */\n      pop\n      pop\n      pop\n      jump(tag_196)\n        /* \"contracts/Market.sol\":7534:8079  if(maxOdds > _odds || (maxOdds > 0 && _instant)) {... */\n    tag_220:\n        /* \"contracts/Market.sol\":8096:8121  _remStake -= betterAmount */\n      tag_221\n        /* \"contracts/Market.sol\":8109:8121  betterAmount */\n      dup2\n        /* \"contracts/Market.sol\":8096:8121  _remStake -= betterAmount */\n      dup7\n      tag_188\n      jump\t// in\n    tag_221:\n      swap5\n      pop\n        /* \"contracts/Market.sol\":6966:8136  while(_remStake >= app.minStake()){... */\n      pop\n      pop\n      pop\n      jump(tag_195)\n    tag_196:\n        /* \"contracts/Market.sol\":6850:8146  if(bets.length > 0){... */\n      pop\n      pop\n    tag_194:\n        /* \"contracts/Market.sol\":8160:8228  BetCreated(msg.sender, address(this), betHash, _stake, _odds, _side) */\n      0x40\n      dup1\n      mload\n        /* \"contracts/Market.sol\":8171:8181  msg.sender */\n      caller\n        /* \"#utility.yul\":3962:3996   */\n      dup2\n      mstore\n        /* \"contracts/Market.sol\":8191:8195  this */\n      address\n        /* \"#utility.yul\":4027:4029   */\n      0x20\n        /* \"#utility.yul\":4012:4030   */\n      dup3\n      add\n        /* \"#utility.yul\":4005:4048   */\n      mstore\n        /* \"#utility.yul\":4064:4082   */\n      swap1\n      dup2\n      add\n        /* \"#utility.yul\":4057:4091   */\n      dup3\n      swap1\n      mstore\n        /* \"#utility.yul\":4122:4124   */\n      0x60\n        /* \"#utility.yul\":4107:4125   */\n      dup2\n      add\n        /* \"#utility.yul\":4100:4134   */\n      dup8\n      swap1\n      mstore\n        /* \"#utility.yul\":4165:4168   */\n      0x80\n        /* \"#utility.yul\":4150:4169   */\n      dup2\n      add\n        /* \"#utility.yul\":4143:4178   */\n      dup7\n      swap1\n      mstore\n        /* \"#utility.yul\":3942:3945   */\n      0xa0\n        /* \"#utility.yul\":4194:4213   */\n      dup2\n      add\n        /* \"#utility.yul\":4187:4222   */\n      dup6\n      swap1\n      mstore\n        /* \"contracts/Market.sol\":8160:8228  BetCreated(msg.sender, address(this), betHash, _stake, _odds, _side) */\n      0x618f358bb45538682ade624a4a1959053d9dabd20fe300508034b879681b37be\n      swap1\n        /* \"#utility.yul\":3911:3914   */\n      0xc0\n        /* \"#utility.yul\":3896:3915   */\n      add\n        /* \"contracts/Market.sol\":8160:8228  BetCreated(msg.sender, address(this), betHash, _stake, _odds, _side) */\n      mload(0x40)\n      dup1\n      swap2\n      sub\n      swap1\n      log1\n        /* \"contracts/Market.sol\":8245:8252  betHash */\n      swap8\n        /* \"contracts/Market.sol\":5651:8259  function addBet(... */\n      swap7\n      pop\n      pop\n      pop\n      pop\n      pop\n      pop\n      pop\n      jump\t// out\n        /* \"contracts/Market.sol\":2843:3232  function withdrawPending(bytes32 _bet) public override {... */\n    tag_59:\n        /* \"contracts/Market.sol\":2908:2935  Struct.MarketBet memory bet */\n      0x00\n        /* \"contracts/Market.sol\":2938:2952  betsInfo[_bet] */\n      dup2\n      dup2\n      mstore\n        /* \"contracts/Market.sol\":2938:2946  betsInfo */\n      0x06\n        /* \"contracts/Market.sol\":2938:2952  betsInfo[_bet] */\n      0x20\n      swap1\n      dup2\n      mstore\n      0x40\n      swap2\n      dup3\n      swap1\n      keccak256\n        /* \"contracts/Market.sol\":2908:2952  Struct.MarketBet memory bet = betsInfo[_bet] */\n      dup3\n      mload\n      0xc0\n      dup2\n      add\n      dup5\n      mstore\n      dup2\n      sload\n      sub(shl(0xa0, 0x01), 0x01)\n      swap1\n      dup2\n      and\n      dup1\n      dup4\n      mstore\n      0x01\n      dup5\n      add\n      sload\n      swap1\n      swap2\n      and\n      swap4\n      dup3\n      add\n      swap4\n      swap1\n      swap4\n      mstore\n      0x02\n      dup3\n      add\n      sload\n      swap4\n      dup2\n      add\n      swap4\n      swap1\n      swap4\n      mstore\n      0x03\n      dup2\n      add\n      sload\n      0x60\n      dup5\n      add\n      mstore\n      0x04\n      dup2\n      add\n      sload\n      0x80\n      dup5\n      add\n      mstore\n      0x05\n      add\n      sload\n      0xa0\n      dup4\n      add\n      mstore\n        /* \"contracts/Market.sol\":2970:2980  msg.sender */\n      caller\n        /* \"contracts/Market.sol\":2970:2994  msg.sender == bet.better */\n      eq\n        /* \"contracts/Market.sol\":2962:3018  require(msg.sender == bet.better, \"unauthorized caller\") */\n      tag_225\n      jumpi\n      mload(0x40)\n      shl(0xe5, 0x461bcd)\n      dup2\n      mstore\n        /* \"#utility.yul\":7158:7160   */\n      0x20\n        /* \"contracts/Market.sol\":2962:3018  require(msg.sender == bet.better, \"unauthorized caller\") */\n      0x04\n      dup3\n      add\n        /* \"#utility.yul\":7140:7161   */\n      mstore\n        /* \"#utility.yul\":7197:7199   */\n      0x13\n        /* \"#utility.yul\":7177:7195   */\n      0x24\n      dup3\n      add\n        /* \"#utility.yul\":7170:7200   */\n      mstore\n      shl(0x69, 0x3ab730baba3437b934bd32b21031b0b63632b9)\n        /* \"#utility.yul\":7216:7234   */\n      0x44\n      dup3\n      add\n        /* \"#utility.yul\":7209:7258   */\n      mstore\n        /* \"#utility.yul\":7275:7293   */\n      0x64\n      add\n        /* \"contracts/Market.sol\":2962:3018  require(msg.sender == bet.better, \"unauthorized caller\") */\n      tag_84\n        /* \"#utility.yul\":7130:7299   */\n      jump\n        /* \"contracts/Market.sol\":2962:3018  require(msg.sender == bet.better, \"unauthorized caller\") */\n    tag_225:\n        /* \"contracts/Market.sol\":3028:3041  uint remStake */\n      0x00\n        /* \"contracts/Market.sol\":3056:3059  bet */\n      dup2\n        /* \"contracts/Market.sol\":3056:3067  bet.matched */\n      0x60\n      add\n      mload\n        /* \"contracts/Market.sol\":3044:3047  bet */\n      dup3\n        /* \"contracts/Market.sol\":3044:3053  bet.stake */\n      0x40\n      add\n      mload\n        /* \"contracts/Market.sol\":3044:3067  bet.stake - bet.matched */\n      tag_227\n      swap2\n      swap1\n      tag_188\n      jump\t// in\n    tag_227:\n        /* \"contracts/Market.sol\":3081:3091  bet.better */\n      dup3\n      mload\n      sub(shl(0xa0, 0x01), 0x01)\n        /* \"contracts/Market.sol\":3077:3092  bal[bet.better] */\n      and\n      0x00\n      swap1\n      dup2\n      mstore\n        /* \"contracts/Market.sol\":3077:3080  bal */\n      0x05\n        /* \"contracts/Market.sol\":3077:3092  bal[bet.better] */\n      0x20\n      mstore\n      0x40\n      dup2\n      keccak256\n        /* \"contracts/Market.sol\":3077:3104  bal[bet.better] += remStake */\n      dup1\n      sload\n        /* \"contracts/Market.sol\":3028:3067  uint remStake = bet.stake - bet.matched */\n      swap3\n      swap4\n      pop\n      dup4\n      swap3\n        /* \"contracts/Market.sol\":3077:3092  bal[bet.better] */\n      swap1\n      swap2\n      swap1\n        /* \"contracts/Market.sol\":3077:3104  bal[bet.better] += remStake */\n      tag_228\n      swap1\n        /* \"contracts/Market.sol\":3028:3067  uint remStake = bet.stake - bet.matched */\n      dup5\n      swap1\n        /* \"contracts/Market.sol\":3077:3104  bal[bet.better] += remStake */\n      tag_229\n      jump\t// in\n    tag_228:\n      swap1\n      swap2\n      sstore\n      pop\n      pop\n        /* \"contracts/Market.sol\":3139:3148  bet.stake */\n      0x40\n      dup1\n      dup4\n      add\n      mload\n        /* \"contracts/Market.sol\":3114:3128  betsInfo[_bet] */\n      0x00\n      dup6\n      dup2\n      mstore\n        /* \"contracts/Market.sol\":3114:3122  betsInfo */\n      0x06\n        /* \"contracts/Market.sol\":3114:3128  betsInfo[_bet] */\n      0x20\n      swap1\n      dup2\n      mstore\n      dup4\n      dup3\n      keccak256\n        /* \"contracts/Market.sol\":3114:3136  betsInfo[_bet].matched */\n      0x03\n      add\n        /* \"contracts/Market.sol\":3114:3148  betsInfo[_bet].matched = bet.stake */\n      swap3\n      swap1\n      swap3\n      sstore\n        /* \"contracts/Market.sol\":3165:3175  msg.sender */\n      caller\n        /* \"contracts/Market.sol\":3161:3176  bal[msg.sender] */\n      dup2\n      mstore\n        /* \"contracts/Market.sol\":3161:3164  bal */\n      0x05\n        /* \"contracts/Market.sol\":3161:3176  bal[msg.sender] */\n      swap1\n      swap2\n      mstore\n      keccak256\n      sload\n        /* \"contracts/Market.sol\":3161:3180  bal[msg.sender] > 0 */\n      iszero\n        /* \"contracts/Market.sol\":3158:3226  if(bal[msg.sender] > 0){... */\n      tag_135\n      jumpi\n        /* \"contracts/Market.sol\":3195:3215  withdraw(msg.sender) */\n      tag_136\n        /* \"contracts/Market.sol\":3204:3214  msg.sender */\n      caller\n        /* \"contracts/Market.sol\":3195:3203  withdraw */\n      tag_42\n        /* \"contracts/Market.sol\":3195:3215  withdraw(msg.sender) */\n      jump\t// in\n        /* \"contracts/Market.sol\":4406:4817  function settle(uint256 _winningSide)... */\n    tag_63:\n        /* \"contracts/Market.sol\":1037:1040  app */\n      sload(0x0a)\n        /* \"contracts/Market.sol\":1037:1067  app.getEventOwner(marketEvent) */\n      mload(0x40)\n      shl(0xe3, 0x1e558333)\n      dup2\n      mstore\n        /* \"contracts/Market.sol\":1055:1066  marketEvent */\n      immutable(\"0x535306ee4b42c92aecd0e71fca98572064f049c2babb2769faa3bbd87d67ec2d\")\n        /* \"contracts/Market.sol\":1037:1067  app.getEventOwner(marketEvent) */\n      0x04\n      dup3\n      add\n        /* \"#utility.yul\":5870:5895   */\n      mstore\n        /* \"contracts/Market.sol\":4514:4518  bool */\n      0x00\n      swap2\n      sub(shl(0xa0, 0x01), 0x01)\n        /* \"contracts/Market.sol\":1037:1040  app */\n      and\n      swap1\n        /* \"contracts/Market.sol\":1037:1054  app.getEventOwner */\n      0xf2ac1998\n      swap1\n        /* \"#utility.yul\":5843:5861   */\n      0x24\n      add\n        /* \"contracts/Market.sol\":1037:1067  app.getEventOwner(marketEvent) */\n      0x20\n      mload(0x40)\n      dup1\n      dup4\n      sub\n      dup2\n      dup7\n      dup1\n      extcodesize\n      iszero\n      dup1\n      iszero\n      tag_234\n      jumpi\n      0x00\n      dup1\n      revert\n    tag_234:\n      pop\n      gas\n      staticcall\n      iszero\n      dup1\n      iszero\n      tag_236\n      jumpi\n      returndatasize\n      0x00\n      dup1\n      returndatacopy\n      revert(0x00, returndatasize)\n    tag_236:\n      pop\n      pop\n      pop\n      pop\n      mload(0x40)\n      returndatasize\n      not(0x1f)\n      0x1f\n      dup3\n      add\n      and\n      dup3\n      add\n      dup1\n      0x40\n      mstore\n      pop\n      dup2\n      add\n      swap1\n      tag_237\n      swap2\n      swap1\n      tag_238\n      jump\t// in\n    tag_237:\n      sub(shl(0xa0, 0x01), 0x01)\n        /* \"contracts/Market.sol\":1023:1067  msg.sender == app.getEventOwner(marketEvent) */\n      and\n        /* \"contracts/Market.sol\":1023:1033  msg.sender */\n      caller\n      sub(shl(0xa0, 0x01), 0x01)\n        /* \"contracts/Market.sol\":1023:1067  msg.sender == app.getEventOwner(marketEvent) */\n      and\n      eq\n        /* \"contracts/Market.sol\":1023:1092  msg.sender == app.getEventOwner(marketEvent) || msg.sender == factory */\n      dup1\n      tag_239\n      jumpi\n      pop\n        /* \"contracts/Market.sol\":1085:1092  factory */\n      and(sub(shl(0xa0, 0x01), 0x01), sload(0x01))\n        /* \"contracts/Market.sol\":1071:1081  msg.sender */\n      caller\n        /* \"contracts/Market.sol\":1071:1092  msg.sender == factory */\n      eq\n        /* \"contracts/Market.sol\":1023:1092  msg.sender == app.getEventOwner(marketEvent) || msg.sender == factory */\n    tag_239:\n        /* \"contracts/Market.sol\":1002:1139  require(... */\n      tag_240\n      jumpi\n      mload(0x40)\n      shl(0xe5, 0x461bcd)\n      dup2\n      mstore\n      0x04\n      add\n      tag_84\n      swap1\n      tag_242\n      jump\t// in\n    tag_240:\n        /* \"contracts/Market.sol\":4537:4565  setWinningSide(_winningSide) */\n      tag_244\n        /* \"contracts/Market.sol\":4552:4564  _winningSide */\n      dup3\n        /* \"contracts/Market.sol\":4537:4551  setWinningSide */\n      tag_73\n        /* \"contracts/Market.sol\":4537:4565  setWinningSide(_winningSide) */\n      jump\t// in\n    tag_244:\n        /* \"contracts/Market.sol\":4534:4802  if(setWinningSide(_winningSide)){... */\n      iszero\n      tag_245\n      jumpi\n        /* \"contracts/Market.sol\":4599:4604  pairs */\n      0x03\n        /* \"contracts/Market.sol\":4599:4611  pairs.length */\n      sload\n        /* \"contracts/Market.sol\":4580:4596  uint pairsLength */\n      0x00\n        /* \"contracts/Market.sol\":4625:4716  for(uint i = 0; i < pairsLength; i++){... */\n    tag_246:\n        /* \"contracts/Market.sol\":4645:4656  pairsLength */\n      dup2\n        /* \"contracts/Market.sol\":4641:4642  i */\n      dup2\n        /* \"contracts/Market.sol\":4641:4656  i < pairsLength */\n      lt\n        /* \"contracts/Market.sol\":4625:4716  for(uint i = 0; i < pairsLength; i++){... */\n      iszero\n      tag_247\n      jumpi\n        /* \"contracts/Market.sol\":4680:4701  _settlePair(pairs[i]) */\n      tag_249\n        /* \"contracts/Market.sol\":4692:4697  pairs */\n      0x03\n        /* \"contracts/Market.sol\":4698:4699  i */\n      dup3\n        /* \"contracts/Market.sol\":4692:4700  pairs[i] */\n      dup2\n      sload\n      dup2\n      lt\n      tag_250\n      jumpi\n      mstore(0x00, shl(0xe0, 0x4e487b71))\n      mstore(0x04, 0x32)\n      revert(0x00, 0x24)\n    tag_250:\n      swap1\n      0x00\n      mstore\n      keccak256(0x00, 0x20)\n      add\n      sload\n        /* \"contracts/Market.sol\":4680:4691  _settlePair */\n      tag_132\n        /* \"contracts/Market.sol\":4680:4701  _settlePair(pairs[i]) */\n      jump\t// in\n    tag_249:\n      pop\n        /* \"contracts/Market.sol\":4658:4661  i++ */\n      dup1\n      tag_252\n      dup2\n      tag_134\n      jump\t// in\n    tag_252:\n      swap2\n      pop\n      pop\n        /* \"contracts/Market.sol\":4625:4716  for(uint i = 0; i < pairsLength; i++){... */\n      jump(tag_246)\n    tag_247:\n      pop\n        /* \"contracts/Market.sol\":4736:4740  true */\n      0x01\n      swap4\n        /* \"contracts/Market.sol\":4406:4817  function settle(uint256 _winningSide)... */\n      swap3\n      pop\n      pop\n      pop\n      jump\t// out\n        /* \"contracts/Market.sol\":4534:4802  if(setWinningSide(_winningSide)){... */\n    tag_245:\n      pop\n        /* \"contracts/Market.sol\":4786:4791  false */\n      0x00\n        /* \"contracts/Market.sol\":4406:4817  function settle(uint256 _winningSide)... */\n      swap2\n      swap1\n      pop\n      jump\t// out\n        /* \"contracts/Market.sol\":5054:5437  function cancelPlusPairs() external override onlyFactory returns(bool) ... */\n    tag_66:\n        /* \"contracts/Market.sol\":1037:1040  app */\n      sload(0x0a)\n        /* \"contracts/Market.sol\":1037:1067  app.getEventOwner(marketEvent) */\n      mload(0x40)\n      shl(0xe3, 0x1e558333)\n      dup2\n      mstore\n        /* \"contracts/Market.sol\":1055:1066  marketEvent */\n      immutable(\"0x535306ee4b42c92aecd0e71fca98572064f049c2babb2769faa3bbd87d67ec2d\")\n        /* \"contracts/Market.sol\":1037:1067  app.getEventOwner(marketEvent) */\n      0x04\n      dup3\n      add\n        /* \"#utility.yul\":5870:5895   */\n      mstore\n        /* \"contracts/Market.sol\":5119:5123  bool */\n      0x00\n      swap2\n      sub(shl(0xa0, 0x01), 0x01)\n        /* \"contracts/Market.sol\":1037:1040  app */\n      and\n      swap1\n        /* \"contracts/Market.sol\":1037:1054  app.getEventOwner */\n      0xf2ac1998\n      swap1\n        /* \"#utility.yul\":5843:5861   */\n      0x24\n      add\n        /* \"contracts/Market.sol\":1037:1067  app.getEventOwner(marketEvent) */\n      0x20\n      mload(0x40)\n      dup1\n      dup4\n      sub\n      dup2\n      dup7\n      dup1\n      extcodesize\n      iszero\n      dup1\n      iszero\n      tag_256\n      jumpi\n      0x00\n      dup1\n      revert\n    tag_256:\n      pop\n      gas\n      staticcall\n      iszero\n      dup1\n      iszero\n      tag_258\n      jumpi\n      returndatasize\n      0x00\n      dup1\n      returndatacopy\n      revert(0x00, returndatasize)\n    tag_258:\n      pop\n      pop\n      pop\n      pop\n      mload(0x40)\n      returndatasize\n      not(0x1f)\n      0x1f\n      dup3\n      add\n      and\n      dup3\n      add\n      dup1\n      0x40\n      mstore\n      pop\n      dup2\n      add\n      swap1\n      tag_259\n      swap2\n      swap1\n      tag_238\n      jump\t// in\n    tag_259:\n      sub(shl(0xa0, 0x01), 0x01)\n        /* \"contracts/Market.sol\":1023:1067  msg.sender == app.getEventOwner(marketEvent) */\n      and\n        /* \"contracts/Market.sol\":1023:1033  msg.sender */\n      caller\n      sub(shl(0xa0, 0x01), 0x01)\n        /* \"contracts/Market.sol\":1023:1067  msg.sender == app.getEventOwner(marketEvent) */\n      and\n      eq\n        /* \"contracts/Market.sol\":1023:1092  msg.sender == app.getEventOwner(marketEvent) || msg.sender == factory */\n      dup1\n      tag_260\n      jumpi\n      pop\n        /* \"contracts/Market.sol\":1085:1092  factory */\n      and(sub(shl(0xa0, 0x01), 0x01), sload(0x01))\n        /* \"contracts/Market.sol\":1071:1081  msg.sender */\n      caller\n        /* \"contracts/Market.sol\":1071:1092  msg.sender == factory */\n      eq\n        /* \"contracts/Market.sol\":1023:1092  msg.sender == app.getEventOwner(marketEvent) || msg.sender == factory */\n    tag_260:\n        /* \"contracts/Market.sol\":1002:1139  require(... */\n      tag_261\n      jumpi\n      mload(0x40)\n      shl(0xe5, 0x461bcd)\n      dup2\n      mstore\n      0x04\n      add\n      tag_84\n      swap1\n      tag_242\n      jump\t// in\n    tag_261:\n        /* \"contracts/Market.sol\":5144:5150  status */\n      sload(0x02)\n        /* \"contracts/Market.sol\":5144:5155  status == 0 */\n      iszero\n      dup1\n        /* \"contracts/Market.sol\":5144:5170  status == 0 || status == 4 */\n      tag_264\n      jumpi\n      pop\n        /* \"contracts/Market.sol\":5159:5165  status */\n      sload(0x02)\n        /* \"contracts/Market.sol\":5169:5170  4 */\n      0x04\n        /* \"contracts/Market.sol\":5159:5170  status == 4 */\n      eq\n        /* \"contracts/Market.sol\":5144:5170  status == 0 || status == 4 */\n    tag_264:\n        /* \"contracts/Market.sol\":5141:5431  if(status == 0 || status == 4){... */\n      iszero\n      tag_265\n      jumpi\n        /* \"contracts/Market.sol\":5204:5209  pairs */\n      0x03\n        /* \"contracts/Market.sol\":5204:5216  pairs.length */\n      sload\n        /* \"contracts/Market.sol\":5185:5201  uint pairsLength */\n      0x00\n        /* \"contracts/Market.sol\":5230:5321  for(uint i = 0; i < pairsLength; i++){... */\n    tag_266:\n        /* \"contracts/Market.sol\":5250:5261  pairsLength */\n      dup2\n        /* \"contracts/Market.sol\":5246:5247  i */\n      dup2\n        /* \"contracts/Market.sol\":5246:5261  i < pairsLength */\n      lt\n        /* \"contracts/Market.sol\":5230:5321  for(uint i = 0; i < pairsLength; i++){... */\n      iszero\n      tag_267\n      jumpi\n        /* \"contracts/Market.sol\":5285:5306  _cancelPair(pairs[i]) */\n      tag_269\n        /* \"contracts/Market.sol\":5297:5302  pairs */\n      0x03\n        /* \"contracts/Market.sol\":5303:5304  i */\n      dup3\n        /* \"contracts/Market.sol\":5297:5305  pairs[i] */\n      dup2\n      sload\n      dup2\n      lt\n      tag_270\n      jumpi\n      mstore(0x00, shl(0xe0, 0x4e487b71))\n      mstore(0x04, 0x32)\n      revert(0x00, 0x24)\n    tag_270:\n      swap1\n      0x00\n      mstore\n      keccak256(0x00, 0x20)\n      add\n      sload\n        /* \"contracts/Market.sol\":5285:5296  _cancelPair */\n      tag_272\n        /* \"contracts/Market.sol\":5285:5306  _cancelPair(pairs[i]) */\n      jump\t// in\n    tag_269:\n        /* \"contracts/Market.sol\":5263:5266  i++ */\n      dup1\n      tag_273\n      dup2\n      tag_134\n      jump\t// in\n    tag_273:\n      swap2\n      pop\n      pop\n        /* \"contracts/Market.sol\":5230:5321  for(uint i = 0; i < pairsLength; i++){... */\n      jump(tag_266)\n    tag_267:\n      pop\n      pop\n        /* \"contracts/Market.sol\":5343:5344  3 */\n      0x03\n        /* \"contracts/Market.sol\":5334:5340  status */\n      0x02\n        /* \"contracts/Market.sol\":5334:5344  status = 3 */\n      sstore\n      pop\n        /* \"contracts/Market.sol\":5365:5369  true */\n      0x01\n        /* \"contracts/Market.sol\":5054:5437  function cancelPlusPairs() external override onlyFactory returns(bool) ... */\n      swap1\n      jump\t// out\n        /* \"contracts/Market.sol\":5141:5431  if(status == 0 || status == 4){... */\n    tag_265:\n      pop\n        /* \"contracts/Market.sol\":5415:5420  false */\n      0x00\n        /* \"contracts/Market.sol\":5054:5437  function cancelPlusPairs() external override onlyFactory returns(bool) ... */\n      swap1\n      jump\t// out\n        /* \"contracts/Market.sol\":5443:5645  function start() external override onlyFactory returns(bool){... */\n    tag_69:\n        /* \"contracts/Market.sol\":1037:1040  app */\n      sload(0x0a)\n        /* \"contracts/Market.sol\":1037:1067  app.getEventOwner(marketEvent) */\n      mload(0x40)\n      shl(0xe3, 0x1e558333)\n      dup2\n      mstore\n        /* \"contracts/Market.sol\":1055:1066  marketEvent */\n      immutable(\"0x535306ee4b42c92aecd0e71fca98572064f049c2babb2769faa3bbd87d67ec2d\")\n        /* \"contracts/Market.sol\":1037:1067  app.getEventOwner(marketEvent) */\n      0x04\n      dup3\n      add\n        /* \"#utility.yul\":5870:5895   */\n      mstore\n        /* \"contracts/Market.sol\":5498:5502  bool */\n      0x00\n      swap2\n      sub(shl(0xa0, 0x01), 0x01)\n        /* \"contracts/Market.sol\":1037:1040  app */\n      and\n      swap1\n        /* \"contracts/Market.sol\":1037:1054  app.getEventOwner */\n      0xf2ac1998\n      swap1\n        /* \"#utility.yul\":5843:5861   */\n      0x24\n      add\n        /* \"contracts/Market.sol\":1037:1067  app.getEventOwner(marketEvent) */\n      0x20\n      mload(0x40)\n      dup1\n      dup4\n      sub\n      dup2\n      dup7\n      dup1\n      extcodesize\n      iszero\n      dup1\n      iszero\n      tag_277\n      jumpi\n      0x00\n      dup1\n      revert\n    tag_277:\n      pop\n      gas\n      staticcall\n      iszero\n      dup1\n      iszero\n      tag_279\n      jumpi\n      returndatasize\n      0x00\n      dup1\n      returndatacopy\n      revert(0x00, returndatasize)\n    tag_279:\n      pop\n      pop\n      pop\n      pop\n      mload(0x40)\n      returndatasize\n      not(0x1f)\n      0x1f\n      dup3\n      add\n      and\n      dup3\n      add\n      dup1\n      0x40\n      mstore\n      pop\n      dup2\n      add\n      swap1\n      tag_280\n      swap2\n      swap1\n      tag_238\n      jump\t// in\n    tag_280:\n      sub(shl(0xa0, 0x01), 0x01)\n        /* \"contracts/Market.sol\":1023:1067  msg.sender == app.getEventOwner(marketEvent) */\n      and\n        /* \"contracts/Market.sol\":1023:1033  msg.sender */\n      caller\n      sub(shl(0xa0, 0x01), 0x01)\n        /* \"contracts/Market.sol\":1023:1067  msg.sender == app.getEventOwner(marketEvent) */\n      and\n      eq\n        /* \"contracts/Market.sol\":1023:1092  msg.sender == app.getEventOwner(marketEvent) || msg.sender == factory */\n      dup1\n      tag_281\n      jumpi\n      pop\n        /* \"contracts/Market.sol\":1085:1092  factory */\n      and(sub(shl(0xa0, 0x01), 0x01), sload(0x01))\n        /* \"contracts/Market.sol\":1071:1081  msg.sender */\n      caller\n        /* \"contracts/Market.sol\":1071:1092  msg.sender == factory */\n      eq\n        /* \"contracts/Market.sol\":1023:1092  msg.sender == app.getEventOwner(marketEvent) || msg.sender == factory */\n    tag_281:\n        /* \"contracts/Market.sol\":1002:1139  require(... */\n      tag_282\n      jumpi\n      mload(0x40)\n      shl(0xe5, 0x461bcd)\n      dup2\n      mstore\n      0x04\n      add\n      tag_84\n      swap1\n      tag_242\n      jump\t// in\n    tag_282:\n        /* \"contracts/Market.sol\":5516:5522  status */\n      sload(0x02)\n        /* \"contracts/Market.sol\":5513:5639  if(status == 0){... */\n      tag_265\n      jumpi\n      pop\n        /* \"contracts/Market.sol\":5551:5552  4 */\n      0x04\n        /* \"contracts/Market.sol\":5542:5548  status */\n      0x02\n        /* \"contracts/Market.sol\":5542:5552  status = 4 */\n      sstore\n        /* \"contracts/Market.sol\":5573:5577  true */\n      0x01\n        /* \"contracts/Market.sol\":5054:5437  function cancelPlusPairs() external override onlyFactory returns(bool) ... */\n      swap1\n      jump\t// out\n        /* \"contracts/Market.sol\":3992:4339  function setWinningSide(uint256 _winningSide)... */\n    tag_73:\n        /* \"contracts/Market.sol\":1037:1040  app */\n      sload(0x0a)\n        /* \"contracts/Market.sol\":1037:1067  app.getEventOwner(marketEvent) */\n      mload(0x40)\n      shl(0xe3, 0x1e558333)\n      dup2\n      mstore\n        /* \"contracts/Market.sol\":1055:1066  marketEvent */\n      immutable(\"0x535306ee4b42c92aecd0e71fca98572064f049c2babb2769faa3bbd87d67ec2d\")\n        /* \"contracts/Market.sol\":1037:1067  app.getEventOwner(marketEvent) */\n      0x04\n      dup3\n      add\n        /* \"#utility.yul\":5870:5895   */\n      mstore\n        /* \"contracts/Market.sol\":4106:4110  bool */\n      0x00\n      swap2\n      sub(shl(0xa0, 0x01), 0x01)\n        /* \"contracts/Market.sol\":1037:1040  app */\n      and\n      swap1\n        /* \"contracts/Market.sol\":1037:1054  app.getEventOwner */\n      0xf2ac1998\n      swap1\n        /* \"#utility.yul\":5843:5861   */\n      0x24\n      add\n        /* \"contracts/Market.sol\":1037:1067  app.getEventOwner(marketEvent) */\n      0x20\n      mload(0x40)\n      dup1\n      dup4\n      sub\n      dup2\n      dup7\n      dup1\n      extcodesize\n      iszero\n      dup1\n      iszero\n      tag_289\n      jumpi\n      0x00\n      dup1\n      revert\n    tag_289:\n      pop\n      gas\n      staticcall\n      iszero\n      dup1\n      iszero\n      tag_291\n      jumpi\n      returndatasize\n      0x00\n      dup1\n      returndatacopy\n      revert(0x00, returndatasize)\n    tag_291:\n      pop\n      pop\n      pop\n      pop\n      mload(0x40)\n      returndatasize\n      not(0x1f)\n      0x1f\n      dup3\n      add\n      and\n      dup3\n      add\n      dup1\n      0x40\n      mstore\n      pop\n      dup2\n      add\n      swap1\n      tag_292\n      swap2\n      swap1\n      tag_238\n      jump\t// in\n    tag_292:\n      sub(shl(0xa0, 0x01), 0x01)\n        /* \"contracts/Market.sol\":1023:1067  msg.sender == app.getEventOwner(marketEvent) */\n      and\n        /* \"contracts/Market.sol\":1023:1033  msg.sender */\n      caller\n      sub(shl(0xa0, 0x01), 0x01)\n        /* \"contracts/Market.sol\":1023:1067  msg.sender == app.getEventOwner(marketEvent) */\n      and\n      eq\n        /* \"contracts/Market.sol\":1023:1092  msg.sender == app.getEventOwner(marketEvent) || msg.sender == factory */\n      dup1\n      tag_293\n      jumpi\n      pop\n        /* \"contracts/Market.sol\":1085:1092  factory */\n      and(sub(shl(0xa0, 0x01), 0x01), sload(0x01))\n        /* \"contracts/Market.sol\":1071:1081  msg.sender */\n      caller\n        /* \"contracts/Market.sol\":1071:1092  msg.sender == factory */\n      eq\n        /* \"contracts/Market.sol\":1023:1092  msg.sender == app.getEventOwner(marketEvent) || msg.sender == factory */\n    tag_293:\n        /* \"contracts/Market.sol\":1002:1139  require(... */\n      tag_294\n      jumpi\n      mload(0x40)\n      shl(0xe5, 0x461bcd)\n      dup2\n      mstore\n      0x04\n      add\n      tag_84\n      swap1\n      tag_242\n      jump\t// in\n    tag_294:\n        /* \"contracts/Market.sol\":4130:4136  status */\n      sload(0x02)\n        /* \"contracts/Market.sol\":4130:4141  status == 0 */\n      iszero\n      dup1\n        /* \"contracts/Market.sol\":4130:4156  status == 0 || status == 4 */\n      tag_297\n      jumpi\n      pop\n        /* \"contracts/Market.sol\":4145:4151  status */\n      sload(0x02)\n        /* \"contracts/Market.sol\":4155:4156  4 */\n      0x04\n        /* \"contracts/Market.sol\":4145:4156  status == 4 */\n      eq\n        /* \"contracts/Market.sol\":4130:4156  status == 0 || status == 4 */\n    tag_297:\n        /* \"contracts/Market.sol\":4129:4201  (status == 0 || status == 4) && (_winningSide == 1 || _winningSide == 2) */\n      dup1\n      iszero\n      tag_299\n      jumpi\n      pop\n        /* \"contracts/Market.sol\":4162:4174  _winningSide */\n      dup2\n        /* \"contracts/Market.sol\":4178:4179  1 */\n      0x01\n        /* \"contracts/Market.sol\":4162:4179  _winningSide == 1 */\n      eq\n        /* \"contracts/Market.sol\":4162:4200  _winningSide == 1 || _winningSide == 2 */\n      dup1\n      tag_299\n      jumpi\n      pop\n        /* \"contracts/Market.sol\":4183:4195  _winningSide */\n      dup2\n        /* \"contracts/Market.sol\":4199:4200  2 */\n      0x02\n        /* \"contracts/Market.sol\":4183:4200  _winningSide == 2 */\n      eq\n        /* \"contracts/Market.sol\":4162:4200  _winningSide == 1 || _winningSide == 2 */\n    tag_299:\n        /* \"contracts/Market.sol\":4126:4324  if((status == 0 || status == 4) && (_winningSide == 1 || _winningSide == 2)){... */\n      iszero\n      tag_245\n      jumpi\n      pop\n        /* \"contracts/Market.sol\":4216:4222  status */\n      0x02\n        /* \"contracts/Market.sol\":4216:4237  status = _winningSide */\n      sstore\n        /* \"contracts/Market.sol\":4258:4262  true */\n      0x01\n      swap1\n        /* \"contracts/Market.sol\":4406:4817  function settle(uint256 _winningSide)... */\n      jump\t// out\n        /* \"contracts/Market.sol\":4823:5048  function cancel() external override onlyFactory returns(bool) ... */\n    tag_76:\n        /* \"contracts/Market.sol\":1037:1040  app */\n      sload(0x0a)\n        /* \"contracts/Market.sol\":1037:1067  app.getEventOwner(marketEvent) */\n      mload(0x40)\n      shl(0xe3, 0x1e558333)\n      dup2\n      mstore\n        /* \"contracts/Market.sol\":1055:1066  marketEvent */\n      immutable(\"0x535306ee4b42c92aecd0e71fca98572064f049c2babb2769faa3bbd87d67ec2d\")\n        /* \"contracts/Market.sol\":1037:1067  app.getEventOwner(marketEvent) */\n      0x04\n      dup3\n      add\n        /* \"#utility.yul\":5870:5895   */\n      mstore\n        /* \"contracts/Market.sol\":4879:4883  bool */\n      0x00\n      swap2\n      sub(shl(0xa0, 0x01), 0x01)\n        /* \"contracts/Market.sol\":1037:1040  app */\n      and\n      swap1\n        /* \"contracts/Market.sol\":1037:1054  app.getEventOwner */\n      0xf2ac1998\n      swap1\n        /* \"#utility.yul\":5843:5861   */\n      0x24\n      add\n        /* \"contracts/Market.sol\":1037:1067  app.getEventOwner(marketEvent) */\n      0x20\n      mload(0x40)\n      dup1\n      dup4\n      sub\n      dup2\n      dup7\n      dup1\n      extcodesize\n      iszero\n      dup1\n      iszero\n      tag_304\n      jumpi\n      0x00\n      dup1\n      revert\n    tag_304:\n      pop\n      gas\n      staticcall\n      iszero\n      dup1\n      iszero\n      tag_306\n      jumpi\n      returndatasize\n      0x00\n      dup1\n      returndatacopy\n      revert(0x00, returndatasize)\n    tag_306:\n      pop\n      pop\n      pop\n      pop\n      mload(0x40)\n      returndatasize\n      not(0x1f)\n      0x1f\n      dup3\n      add\n      and\n      dup3\n      add\n      dup1\n      0x40\n      mstore\n      pop\n      dup2\n      add\n      swap1\n      tag_307\n      swap2\n      swap1\n      tag_238\n      jump\t// in\n    tag_307:\n      sub(shl(0xa0, 0x01), 0x01)\n        /* \"contracts/Market.sol\":1023:1067  msg.sender == app.getEventOwner(marketEvent) */\n      and\n        /* \"contracts/Market.sol\":1023:1033  msg.sender */\n      caller\n      sub(shl(0xa0, 0x01), 0x01)\n        /* \"contracts/Market.sol\":1023:1067  msg.sender == app.getEventOwner(marketEvent) */\n      and\n      eq\n        /* \"contracts/Market.sol\":1023:1092  msg.sender == app.getEventOwner(marketEvent) || msg.sender == factory */\n      dup1\n      tag_308\n      jumpi\n      pop\n        /* \"contracts/Market.sol\":1085:1092  factory */\n      and(sub(shl(0xa0, 0x01), 0x01), sload(0x01))\n        /* \"contracts/Market.sol\":1071:1081  msg.sender */\n      caller\n        /* \"contracts/Market.sol\":1071:1092  msg.sender == factory */\n      eq\n        /* \"contracts/Market.sol\":1023:1092  msg.sender == app.getEventOwner(marketEvent) || msg.sender == factory */\n    tag_308:\n        /* \"contracts/Market.sol\":1002:1139  require(... */\n      tag_309\n      jumpi\n      mload(0x40)\n      shl(0xe5, 0x461bcd)\n      dup2\n      mstore\n      0x04\n      add\n      tag_84\n      swap1\n      tag_242\n      jump\t// in\n    tag_309:\n        /* \"contracts/Market.sol\":4904:4910  status */\n      sload(0x02)\n        /* \"contracts/Market.sol\":4904:4915  status == 0 */\n      iszero\n      dup1\n        /* \"contracts/Market.sol\":4904:4930  status == 0 || status == 4 */\n      tag_312\n      jumpi\n      pop\n        /* \"contracts/Market.sol\":4919:4925  status */\n      sload(0x02)\n        /* \"contracts/Market.sol\":4929:4930  4 */\n      0x04\n        /* \"contracts/Market.sol\":4919:4930  status == 4 */\n      eq\n        /* \"contracts/Market.sol\":4904:4930  status == 0 || status == 4 */\n    tag_312:\n        /* \"contracts/Market.sol\":4901:5042  if(status == 0 || status == 4){... */\n      iszero\n      tag_265\n      jumpi\n      pop\n        /* \"contracts/Market.sol\":4954:4955  3 */\n      0x03\n        /* \"contracts/Market.sol\":4945:4951  status */\n      0x02\n        /* \"contracts/Market.sol\":4945:4955  status = 3 */\n      sstore\n        /* \"contracts/Market.sol\":4976:4980  true */\n      0x01\n        /* \"contracts/Market.sol\":5054:5437  function cancelPlusPairs() external override onlyFactory returns(bool) ... */\n      swap1\n      jump\t// out\n        /* \"contracts/Market.sol\":9656:11136  function _cancelBetPairs(bytes32 _bet) private returns(bool) {... */\n    tag_89:\n        /* \"contracts/Market.sol\":9711:9715  bool */\n      0x00\n        /* \"contracts/Market.sol\":9757:9771  betsInfo[_bet] */\n      dup2\n      dup2\n      mstore\n        /* \"contracts/Market.sol\":9757:9765  betsInfo */\n      0x06\n        /* \"contracts/Market.sol\":9757:9771  betsInfo[_bet] */\n      0x20\n      swap1\n      dup2\n      mstore\n      0x40\n      dup1\n      dup4\n      keccak256\n        /* \"contracts/Market.sol\":9727:9771  Struct.MarketBet memory bet = betsInfo[_bet] */\n      dup2\n      mload\n      0xc0\n      dup2\n      add\n      dup4\n      mstore\n      dup2\n      sload\n      sub(shl(0xa0, 0x01), 0x01)\n      swap1\n      dup2\n      and\n      dup3\n      mstore\n      0x01\n      dup4\n      add\n      sload\n      and\n      dup2\n      dup6\n      add\n      mstore\n      0x02\n      dup3\n      add\n      sload\n      dup2\n      dup5\n      add\n      mstore\n      0x03\n      dup3\n      add\n      sload\n      0x60\n      dup3\n      add\n      mstore\n      0x04\n      dup3\n      add\n      sload\n      0x80\n      dup3\n      add\n      mstore\n      0x05\n      swap1\n      swap2\n      add\n      sload\n      0xa0\n      dup3\n      add\n      mstore\n        /* \"contracts/Market.sol\":9807:9821  betPairs[_bet] */\n      dup5\n      dup5\n      mstore\n        /* \"contracts/Market.sol\":9807:9815  betPairs */\n      0x09\n        /* \"contracts/Market.sol\":9807:9821  betPairs[_bet] */\n      dup4\n      mstore\n      dup2\n      dup5\n      keccak256\n        /* \"contracts/Market.sol\":9781:9821  bytes32[] memory _pairs = betPairs[_bet] */\n      dup1\n      sload\n      dup4\n      mload\n      dup2\n      dup7\n      mul\n      dup2\n      add\n      dup7\n      add\n      swap1\n      swap5\n      mstore\n      dup1\n      dup5\n      mstore\n        /* \"contracts/Market.sol\":9727:9771  Struct.MarketBet memory bet = betsInfo[_bet] */\n      swap2\n      swap4\n        /* \"contracts/Market.sol\":9711:9715  bool */\n      dup6\n      swap4\n        /* \"contracts/Market.sol\":9781:9821  bytes32[] memory _pairs = betPairs[_bet] */\n      swap3\n      swap1\n      dup4\n      add\n        /* \"contracts/Market.sol\":9807:9821  betPairs[_bet] */\n      dup3\n        /* \"contracts/Market.sol\":9781:9821  bytes32[] memory _pairs = betPairs[_bet] */\n      dup3\n      dup1\n      iszero\n      tag_317\n      jumpi\n      0x20\n      mul\n      dup3\n      add\n      swap2\n      swap1\n      0x00\n      mstore\n      keccak256(0x00, 0x20)\n      swap1\n    tag_318:\n      dup2\n      sload\n      dup2\n      mstore\n      0x20\n      add\n      swap1\n      0x01\n      add\n      swap1\n      dup1\n      dup4\n      gt\n      tag_318\n      jumpi\n    tag_317:\n      pop\n      pop\n        /* \"contracts/Market.sol\":9850:9863  _pairs.length */\n      dup4\n      mload\n        /* \"contracts/Market.sol\":9781:9821  bytes32[] memory _pairs = betPairs[_bet] */\n      swap4\n      swap5\n      pop\n        /* \"contracts/Market.sol\":9831:9847  uint pairsLength */\n      0x00\n      swap3\n      pop\n      pop\n      pop\n        /* \"contracts/Market.sol\":9873:11109  for(uint i = 0; i < pairsLength; i++){... */\n    tag_319:\n        /* \"contracts/Market.sol\":9893:9904  pairsLength */\n      dup2\n        /* \"contracts/Market.sol\":9889:9890  i */\n      dup2\n        /* \"contracts/Market.sol\":9889:9904  i < pairsLength */\n      lt\n        /* \"contracts/Market.sol\":9873:11109  for(uint i = 0; i < pairsLength; i++){... */\n      iszero\n      tag_320\n      jumpi\n        /* \"contracts/Market.sol\":9927:9936  pairsInfo */\n      0x08\n        /* \"contracts/Market.sol\":9927:9947  pairsInfo[_pairs[i]] */\n      0x00\n        /* \"contracts/Market.sol\":9937:9943  _pairs */\n      dup5\n        /* \"contracts/Market.sol\":9944:9945  i */\n      dup4\n        /* \"contracts/Market.sol\":9937:9946  _pairs[i] */\n      dup2\n      mload\n      dup2\n      lt\n      tag_322\n      jumpi\n      mstore(0x00, shl(0xe0, 0x4e487b71))\n      mstore(0x04, 0x32)\n      revert(0x00, 0x24)\n    tag_322:\n      0x20\n      swap1\n      dup2\n      mul\n      swap2\n      swap1\n      swap2\n      add\n      dup2\n      add\n      mload\n        /* \"contracts/Market.sol\":9927:9947  pairsInfo[_pairs[i]] */\n      dup3\n      mstore\n      dup2\n      add\n      swap2\n      swap1\n      swap2\n      mstore\n      0x40\n      add\n      0x00\n      keccak256\n        /* \"contracts/Market.sol\":9927:9955  pairsInfo[_pairs[i]].settled */\n      0x04\n      add\n      sload\n      0xff\n      and\n        /* \"contracts/Market.sol\":9924:9997  if(pairsInfo[_pairs[i]].settled){... */\n      iszero\n      tag_323\n      jumpi\n        /* \"contracts/Market.sol\":9974:9982  continue */\n      jump(tag_321)\n        /* \"contracts/Market.sol\":9924:9997  if(pairsInfo[_pairs[i]].settled){... */\n    tag_323:\n        /* \"contracts/Market.sol\":10010:10032  bytes32 counterBetHash */\n      0x00\n        /* \"contracts/Market.sol\":10046:10067  uint256 counterAmount */\n      dup1\n        /* \"contracts/Market.sol\":10081:10099  uint256 thisAmount */\n      0x00\n        /* \"contracts/Market.sol\":10113:10134  address counterBetter */\n      dup1\n        /* \"contracts/Market.sol\":10151:10154  bet */\n      dup8\n        /* \"contracts/Market.sol\":10151:10159  bet.side */\n      0xa0\n      add\n      mload\n        /* \"contracts/Market.sol\":10163:10164  1 */\n      0x01\n        /* \"contracts/Market.sol\":10151:10164  bet.side == 1 */\n      eq\n        /* \"contracts/Market.sol\":10148:10602  if(bet.side == 1) {... */\n      iszero\n      tag_324\n      jumpi\n        /* \"contracts/Market.sol\":10197:10206  pairsInfo */\n      0x08\n        /* \"contracts/Market.sol\":10197:10217  pairsInfo[_pairs[i]] */\n      0x00\n        /* \"contracts/Market.sol\":10207:10213  _pairs */\n      dup9\n        /* \"contracts/Market.sol\":10214:10215  i */\n      dup8\n        /* \"contracts/Market.sol\":10207:10216  _pairs[i] */\n      dup2\n      mload\n      dup2\n      lt\n      tag_325\n      jumpi\n      mstore(0x00, shl(0xe0, 0x4e487b71))\n      mstore(0x04, 0x32)\n      revert(0x00, 0x24)\n    tag_325:\n      0x20\n      mul\n      0x20\n      add\n      add\n      mload\n        /* \"contracts/Market.sol\":10197:10217  pairsInfo[_pairs[i]] */\n      dup2\n      mstore\n      0x20\n      add\n      swap1\n      dup2\n      mstore\n      0x20\n      add\n      0x00\n      keccak256\n        /* \"contracts/Market.sol\":10197:10225  pairsInfo[_pairs[i]].amountA */\n      0x02\n      add\n      sload\n        /* \"contracts/Market.sol\":10184:10225  thisAmount = pairsInfo[_pairs[i]].amountA */\n      swap2\n      pop\n        /* \"contracts/Market.sol\":10260:10269  pairsInfo */\n      0x08\n        /* \"contracts/Market.sol\":10260:10280  pairsInfo[_pairs[i]] */\n      0x00\n        /* \"contracts/Market.sol\":10270:10276  _pairs */\n      dup9\n        /* \"contracts/Market.sol\":10277:10278  i */\n      dup8\n        /* \"contracts/Market.sol\":10270:10279  _pairs[i] */\n      dup2\n      mload\n      dup2\n      lt\n      tag_326\n      jumpi\n      mstore(0x00, shl(0xe0, 0x4e487b71))\n      mstore(0x04, 0x32)\n      revert(0x00, 0x24)\n    tag_326:\n      0x20\n      mul\n      0x20\n      add\n      add\n      mload\n        /* \"contracts/Market.sol\":10260:10280  pairsInfo[_pairs[i]] */\n      dup2\n      mstore\n      0x20\n      add\n      swap1\n      dup2\n      mstore\n      0x20\n      add\n      0x00\n      keccak256\n        /* \"contracts/Market.sol\":10260:10289  pairsInfo[_pairs[i]].betHashB */\n      0x01\n      add\n      sload\n        /* \"contracts/Market.sol\":10243:10289  counterBetHash = pairsInfo[_pairs[i]].betHashB */\n      swap4\n      pop\n        /* \"contracts/Market.sol\":10323:10332  pairsInfo */\n      0x08\n        /* \"contracts/Market.sol\":10323:10343  pairsInfo[_pairs[i]] */\n      0x00\n        /* \"contracts/Market.sol\":10333:10339  _pairs */\n      dup9\n        /* \"contracts/Market.sol\":10340:10341  i */\n      dup8\n        /* \"contracts/Market.sol\":10333:10342  _pairs[i] */\n      dup2\n      mload\n      dup2\n      lt\n      tag_327\n      jumpi\n      mstore(0x00, shl(0xe0, 0x4e487b71))\n      mstore(0x04, 0x32)\n      revert(0x00, 0x24)\n    tag_327:\n      0x20\n      mul\n      0x20\n      add\n      add\n      mload\n        /* \"contracts/Market.sol\":10323:10343  pairsInfo[_pairs[i]] */\n      dup2\n      mstore\n      0x20\n      add\n      swap1\n      dup2\n      mstore\n      0x20\n      add\n      0x00\n      keccak256\n        /* \"contracts/Market.sol\":10323:10351  pairsInfo[_pairs[i]].amountB */\n      0x03\n      add\n      sload\n        /* \"contracts/Market.sol\":10307:10351  counterAmount = pairsInfo[_pairs[i]].amountB */\n      swap3\n      pop\n        /* \"contracts/Market.sol\":10148:10602  if(bet.side == 1) {... */\n      jump(tag_329)\n    tag_324:\n        /* \"contracts/Market.sol\":10387:10390  bet */\n      dup8\n        /* \"contracts/Market.sol\":10387:10395  bet.side */\n      0xa0\n      add\n      mload\n        /* \"contracts/Market.sol\":10399:10400  2 */\n      0x02\n        /* \"contracts/Market.sol\":10387:10400  bet.side == 2 */\n      eq\n        /* \"contracts/Market.sol\":10384:10602  if(bet.side == 2) {... */\n      iszero\n      tag_329\n      jumpi\n        /* \"contracts/Market.sol\":10433:10442  pairsInfo */\n      0x08\n        /* \"contracts/Market.sol\":10433:10453  pairsInfo[_pairs[i]] */\n      0x00\n        /* \"contracts/Market.sol\":10443:10449  _pairs */\n      dup9\n        /* \"contracts/Market.sol\":10450:10451  i */\n      dup8\n        /* \"contracts/Market.sol\":10443:10452  _pairs[i] */\n      dup2\n      mload\n      dup2\n      lt\n      tag_330\n      jumpi\n      mstore(0x00, shl(0xe0, 0x4e487b71))\n      mstore(0x04, 0x32)\n      revert(0x00, 0x24)\n    tag_330:\n      0x20\n      mul\n      0x20\n      add\n      add\n      mload\n        /* \"contracts/Market.sol\":10433:10453  pairsInfo[_pairs[i]] */\n      dup2\n      mstore\n      0x20\n      add\n      swap1\n      dup2\n      mstore\n      0x20\n      add\n      0x00\n      keccak256\n        /* \"contracts/Market.sol\":10433:10461  pairsInfo[_pairs[i]].amountB */\n      0x03\n      add\n      sload\n        /* \"contracts/Market.sol\":10420:10461  thisAmount = pairsInfo[_pairs[i]].amountB */\n      swap2\n      pop\n        /* \"contracts/Market.sol\":10496:10505  pairsInfo */\n      0x08\n        /* \"contracts/Market.sol\":10496:10516  pairsInfo[_pairs[i]] */\n      0x00\n        /* \"contracts/Market.sol\":10506:10512  _pairs */\n      dup9\n        /* \"contracts/Market.sol\":10513:10514  i */\n      dup8\n        /* \"contracts/Market.sol\":10506:10515  _pairs[i] */\n      dup2\n      mload\n      dup2\n      lt\n      tag_331\n      jumpi\n      mstore(0x00, shl(0xe0, 0x4e487b71))\n      mstore(0x04, 0x32)\n      revert(0x00, 0x24)\n    tag_331:\n      0x20\n      mul\n      0x20\n      add\n      add\n      mload\n        /* \"contracts/Market.sol\":10496:10516  pairsInfo[_pairs[i]] */\n      dup2\n      mstore\n      0x20\n      add\n      swap1\n      dup2\n      mstore\n      0x20\n      add\n      0x00\n      keccak256\n        /* \"contracts/Market.sol\":10496:10525  pairsInfo[_pairs[i]].betHashA */\n      0x00\n      add\n      sload\n        /* \"contracts/Market.sol\":10479:10525  counterBetHash = pairsInfo[_pairs[i]].betHashA */\n      swap4\n      pop\n        /* \"contracts/Market.sol\":10559:10568  pairsInfo */\n      0x08\n        /* \"contracts/Market.sol\":10559:10579  pairsInfo[_pairs[i]] */\n      0x00\n        /* \"contracts/Market.sol\":10569:10575  _pairs */\n      dup9\n        /* \"contracts/Market.sol\":10576:10577  i */\n      dup8\n        /* \"contracts/Market.sol\":10569:10578  _pairs[i] */\n      dup2\n      mload\n      dup2\n      lt\n      tag_332\n      jumpi\n      mstore(0x00, shl(0xe0, 0x4e487b71))\n      mstore(0x04, 0x32)\n      revert(0x00, 0x24)\n    tag_332:\n      0x20\n      mul\n      0x20\n      add\n      add\n      mload\n        /* \"contracts/Market.sol\":10559:10579  pairsInfo[_pairs[i]] */\n      dup2\n      mstore\n      0x20\n      add\n      swap1\n      dup2\n      mstore\n      0x20\n      add\n      0x00\n      keccak256\n        /* \"contracts/Market.sol\":10559:10587  pairsInfo[_pairs[i]].amountA */\n      0x02\n      add\n      sload\n        /* \"contracts/Market.sol\":10543:10587  counterAmount = pairsInfo[_pairs[i]].amountA */\n      swap3\n      pop\n        /* \"contracts/Market.sol\":10384:10602  if(bet.side == 2) {... */\n    tag_329:\n      pop\n        /* \"contracts/Market.sol\":10631:10655  betsInfo[counterBetHash] */\n      0x00\n      dup4\n      dup2\n      mstore\n        /* \"contracts/Market.sol\":10631:10639  betsInfo */\n      0x06\n        /* \"contracts/Market.sol\":10631:10655  betsInfo[counterBetHash] */\n      0x20\n      swap1\n      dup2\n      mstore\n      0x40\n      swap2\n      dup3\n      swap1\n      keccak256\n        /* \"contracts/Market.sol\":10631:10662  betsInfo[counterBetHash].better */\n      sload\n        /* \"contracts/Market.sol\":10715:10718  app */\n      sload(0x0a)\n        /* \"contracts/Market.sol\":10715:10724  app.vig() */\n      dup4\n      mload\n      shl(0xe0, 0x55c4a8bf)\n      dup2\n      mstore\n      swap4\n      mload\n      sub(shl(0xa0, 0x01), 0x01)\n        /* \"contracts/Market.sol\":10631:10662  betsInfo[counterBetHash].better */\n      swap3\n      dup4\n      and\n      swap5\n        /* \"contracts/Market.sol\":10728:10731  100 */\n      0x64\n      swap5\n        /* \"contracts/Market.sol\":10715:10718  app */\n      swap4\n      swap1\n      swap3\n      and\n      swap3\n        /* \"contracts/Market.sol\":10715:10722  app.vig */\n      0x55c4a8bf\n      swap3\n        /* \"contracts/Market.sol\":10715:10724  app.vig() */\n      0x04\n      dup1\n      dup3\n      add\n      swap4\n      swap2\n      dup3\n      swap1\n      sub\n      add\n      dup2\n        /* \"contracts/Market.sol\":10715:10718  app */\n      dup7\n        /* \"contracts/Market.sol\":10715:10724  app.vig() */\n      dup1\n      extcodesize\n      iszero\n      dup1\n      iszero\n      tag_333\n      jumpi\n      0x00\n      dup1\n      revert\n    tag_333:\n      pop\n      gas\n      staticcall\n      iszero\n      dup1\n      iszero\n      tag_335\n      jumpi\n      returndatasize\n      0x00\n      dup1\n      returndatacopy\n      revert(0x00, returndatasize)\n    tag_335:\n      pop\n      pop\n      pop\n      pop\n      mload(0x40)\n      returndatasize\n      not(0x1f)\n      0x1f\n      dup3\n      add\n      and\n      dup3\n      add\n      dup1\n      0x40\n      mstore\n      pop\n      dup2\n      add\n      swap1\n      tag_336\n      swap2\n      swap1\n      tag_108\n      jump\t// in\n    tag_336:\n        /* \"contracts/Market.sol\":10709:10724  100 - app.vig() */\n      tag_337\n      swap1\n        /* \"contracts/Market.sol\":10709:10712  100 */\n      0x64\n        /* \"contracts/Market.sol\":10709:10724  100 - app.vig() */\n      tag_188\n      jump\t// in\n    tag_337:\n        /* \"contracts/Market.sol\":10695:10725  thisAmount * (100 - app.vig()) */\n      tag_338\n      swap1\n        /* \"contracts/Market.sol\":10695:10705  thisAmount */\n      dup5\n        /* \"contracts/Market.sol\":10695:10725  thisAmount * (100 - app.vig()) */\n      tag_190\n      jump\t// in\n    tag_338:\n        /* \"contracts/Market.sol\":10695:10731  thisAmount * (100 - app.vig()) / 100 */\n      tag_339\n      swap2\n      swap1\n      tag_192\n      jump\t// in\n    tag_339:\n        /* \"contracts/Market.sol\":10680:10690  bet.better */\n      dup9\n      mload\n      sub(shl(0xa0, 0x01), 0x01)\n        /* \"contracts/Market.sol\":10676:10691  bal[bet.better] */\n      and\n      0x00\n      swap1\n      dup2\n      mstore\n        /* \"contracts/Market.sol\":10676:10679  bal */\n      0x05\n        /* \"contracts/Market.sol\":10676:10691  bal[bet.better] */\n      0x20\n      mstore\n      0x40\n      dup2\n      keccak256\n        /* \"contracts/Market.sol\":10676:10731  bal[bet.better] += thisAmount * (100 - app.vig()) / 100 */\n      dup1\n      sload\n        /* \"contracts/Market.sol\":10676:10691  bal[bet.better] */\n      swap1\n      swap2\n      swap1\n        /* \"contracts/Market.sol\":10676:10731  bal[bet.better] += thisAmount * (100 - app.vig()) / 100 */\n      tag_340\n      swap1\n      dup5\n      swap1\n      tag_229\n      jump\t// in\n    tag_340:\n      swap1\n      swap2\n      sstore\n      pop\n      pop\n        /* \"contracts/Market.sol\":10745:10769  betsInfo[counterBetHash] */\n      0x00\n      dup5\n      dup2\n      mstore\n        /* \"contracts/Market.sol\":10745:10753  betsInfo */\n      0x06\n        /* \"contracts/Market.sol\":10745:10769  betsInfo[counterBetHash] */\n      0x20\n      mstore\n      0x40\n      dup2\n      keccak256\n        /* \"contracts/Market.sol\":10745:10777  betsInfo[counterBetHash].matched */\n      0x03\n      add\n        /* \"contracts/Market.sol\":10745:10794  betsInfo[counterBetHash].matched -= counterAmount */\n      dup1\n      sload\n        /* \"contracts/Market.sol\":10781:10794  counterAmount */\n      dup6\n      swap3\n        /* \"contracts/Market.sol\":10745:10769  betsInfo[counterBetHash] */\n      swap1\n        /* \"contracts/Market.sol\":10745:10794  betsInfo[counterBetHash].matched -= counterAmount */\n      tag_341\n      swap1\n        /* \"contracts/Market.sol\":10781:10794  counterAmount */\n      dup5\n      swap1\n        /* \"contracts/Market.sol\":10745:10794  betsInfo[counterBetHash].matched -= counterAmount */\n      tag_188\n      jump\t// in\n    tag_341:\n      swap3\n      pop\n      pop\n      dup2\n      swap1\n      sstore\n      pop\n        /* \"contracts/Market.sol\":10808:10825  uint256 vigAmount */\n      0x00\n        /* \"contracts/Market.sol\":10853:10856  100 */\n      0x64\n        /* \"contracts/Market.sol\":10841:10844  app */\n      0x0a\n      0x00\n      swap1\n      sload\n      swap1\n      0x0100\n      exp\n      swap1\n      div\n      sub(shl(0xa0, 0x01), 0x01)\n      and\n      sub(shl(0xa0, 0x01), 0x01)\n        /* \"contracts/Market.sol\":10841:10848  app.vig */\n      and\n      0x55c4a8bf\n        /* \"contracts/Market.sol\":10841:10850  app.vig() */\n      mload(0x40)\n      dup2\n      0xffffffff\n      and\n      0xe0\n      shl\n      dup2\n      mstore\n      0x04\n      add\n      0x20\n      mload(0x40)\n      dup1\n      dup4\n      sub\n      dup2\n      dup7\n      dup1\n      extcodesize\n      iszero\n      dup1\n      iszero\n      tag_342\n      jumpi\n      0x00\n      dup1\n      revert\n    tag_342:\n      pop\n      gas\n      staticcall\n      iszero\n      dup1\n      iszero\n      tag_344\n      jumpi\n      returndatasize\n      0x00\n      dup1\n      returndatacopy\n      revert(0x00, returndatasize)\n    tag_344:\n      pop\n      pop\n      pop\n      pop\n      mload(0x40)\n      returndatasize\n      not(0x1f)\n      0x1f\n      dup3\n      add\n      and\n      dup3\n      add\n      dup1\n      0x40\n      mstore\n      pop\n      dup2\n      add\n      swap1\n      tag_345\n      swap2\n      swap1\n      tag_108\n      jump\t// in\n    tag_345:\n        /* \"contracts/Market.sol\":10828:10850  thisAmount * app.vig() */\n      tag_346\n      swap1\n        /* \"contracts/Market.sol\":10828:10838  thisAmount */\n      dup6\n        /* \"contracts/Market.sol\":10828:10850  thisAmount * app.vig() */\n      tag_190\n      jump\t// in\n    tag_346:\n        /* \"contracts/Market.sol\":10828:10856  thisAmount * app.vig() / 100 */\n      tag_347\n      swap2\n      swap1\n      tag_192\n      jump\t// in\n    tag_347:\n        /* \"contracts/Market.sol\":10808:10856  uint256 vigAmount = thisAmount * app.vig() / 100 */\n      swap1\n      pop\n        /* \"contracts/Market.sol\":10918:10921  100 */\n      0x64\n        /* \"contracts/Market.sol\":10905:10908  app */\n      0x0a\n      0x00\n      swap1\n      sload\n      swap1\n      0x0100\n      exp\n      swap1\n      div\n      sub(shl(0xa0, 0x01), 0x01)\n      and\n      sub(shl(0xa0, 0x01), 0x01)\n        /* \"contracts/Market.sol\":10905:10913  app.hVig */\n      and\n      0x6a0ccd9d\n        /* \"contracts/Market.sol\":10905:10915  app.hVig() */\n      mload(0x40)\n      dup2\n      0xffffffff\n      and\n      0xe0\n      shl\n      dup2\n      mstore\n      0x04\n      add\n      0x20\n      mload(0x40)\n      dup1\n      dup4\n      sub\n      dup2\n      dup7\n      dup1\n      extcodesize\n      iszero\n      dup1\n      iszero\n      tag_348\n      jumpi\n      0x00\n      dup1\n      revert\n    tag_348:\n      pop\n      gas\n      staticcall\n      iszero\n      dup1\n      iszero\n      tag_350\n      jumpi\n      returndatasize\n      0x00\n      dup1\n      returndatacopy\n      revert(0x00, returndatasize)\n    tag_350:\n      pop\n      pop\n      pop\n      pop\n      mload(0x40)\n      returndatasize\n      not(0x1f)\n      0x1f\n      dup3\n      add\n      and\n      dup3\n      add\n      dup1\n      0x40\n      mstore\n      pop\n      dup2\n      add\n      swap1\n      tag_351\n      swap2\n      swap1\n      tag_108\n      jump\t// in\n    tag_351:\n        /* \"contracts/Market.sol\":10893:10915  vigAmount * app.hVig() */\n      tag_352\n      swap1\n        /* \"contracts/Market.sol\":10893:10902  vigAmount */\n      dup4\n        /* \"contracts/Market.sol\":10893:10915  vigAmount * app.hVig() */\n      tag_190\n      jump\t// in\n    tag_352:\n        /* \"contracts/Market.sol\":10893:10921  vigAmount * app.hVig() / 100 */\n      tag_353\n      swap2\n      swap1\n      tag_192\n      jump\t// in\n    tag_353:\n        /* \"contracts/Market.sol\":10870:10873  bal */\n      0x05\n        /* \"contracts/Market.sol\":10870:10889  bal[app.holdAddr()] */\n      0x00\n        /* \"contracts/Market.sol\":10874:10877  app */\n      0x0a\n      0x00\n      swap1\n      sload\n      swap1\n      0x0100\n      exp\n      swap1\n      div\n      sub(shl(0xa0, 0x01), 0x01)\n      and\n      sub(shl(0xa0, 0x01), 0x01)\n        /* \"contracts/Market.sol\":10874:10886  app.holdAddr */\n      and\n      0xb7640a54\n        /* \"contracts/Market.sol\":10874:10888  app.holdAddr() */\n      mload(0x40)\n      dup2\n      0xffffffff\n      and\n      0xe0\n      shl\n      dup2\n      mstore\n      0x04\n      add\n      0x20\n      mload(0x40)\n      dup1\n      dup4\n      sub\n      dup2\n      dup7\n      dup1\n      extcodesize\n      iszero\n      dup1\n      iszero\n      tag_354\n      jumpi\n      0x00\n      dup1\n      revert\n    tag_354:\n      pop\n      gas\n      staticcall\n      iszero\n      dup1\n      iszero\n      tag_356\n      jumpi\n      returndatasize\n      0x00\n      dup1\n      returndatacopy\n      revert(0x00, returndatasize)\n    tag_356:\n      pop\n      pop\n      pop\n      pop\n      mload(0x40)\n      returndatasize\n      not(0x1f)\n      0x1f\n      dup3\n      add\n      and\n      dup3\n      add\n      dup1\n      0x40\n      mstore\n      pop\n      dup2\n      add\n      swap1\n      tag_357\n      swap2\n      swap1\n      tag_238\n      jump\t// in\n    tag_357:\n      sub(shl(0xa0, 0x01), 0x01)\n        /* \"contracts/Market.sol\":10870:10889  bal[app.holdAddr()] */\n      and\n      sub(shl(0xa0, 0x01), 0x01)\n      and\n      dup2\n      mstore\n      0x20\n      add\n      swap1\n      dup2\n      mstore\n      0x20\n      add\n      0x00\n      keccak256\n      0x00\n        /* \"contracts/Market.sol\":10870:10921  bal[app.holdAddr()] += vigAmount * app.hVig() / 100 */\n      dup3\n      dup3\n      sload\n      tag_358\n      swap2\n      swap1\n      tag_229\n      jump\t// in\n    tag_358:\n      swap1\n      swap2\n      sstore\n      pop\n      pop\n        /* \"contracts/Market.sol\":10969:10972  app */\n      sload(0x0a)\n        /* \"contracts/Market.sol\":10969:10979  app.eVig() */\n      0x40\n      dup1\n      mload\n      shl(0xe0, 0x28576d45)\n      dup2\n      mstore\n      swap1\n      mload\n        /* \"contracts/Market.sol\":10982:10985  100 */\n      0x64\n      swap3\n      sub(shl(0xa0, 0x01), 0x01)\n        /* \"contracts/Market.sol\":10969:10972  app */\n      and\n      swap2\n        /* \"contracts/Market.sol\":10969:10977  app.eVig */\n      0x28576d45\n      swap2\n        /* \"contracts/Market.sol\":10969:10979  app.eVig() */\n      0x04\n      dup1\n      dup4\n      add\n      swap3\n      0x20\n      swap3\n      swap2\n      swap1\n      dup3\n      swap1\n      sub\n      add\n      dup2\n        /* \"contracts/Market.sol\":10969:10972  app */\n      dup7\n        /* \"contracts/Market.sol\":10969:10979  app.eVig() */\n      dup1\n      extcodesize\n      iszero\n      dup1\n      iszero\n      tag_359\n      jumpi\n      0x00\n      dup1\n      revert\n    tag_359:\n      pop\n      gas\n      staticcall\n      iszero\n      dup1\n      iszero\n      tag_361\n      jumpi\n      returndatasize\n      0x00\n      dup1\n      returndatacopy\n      revert(0x00, returndatasize)\n    tag_361:\n      pop\n      pop\n      pop\n      pop\n      mload(0x40)\n      returndatasize\n      not(0x1f)\n      0x1f\n      dup3\n      add\n      and\n      dup3\n      add\n      dup1\n      0x40\n      mstore\n      pop\n      dup2\n      add\n      swap1\n      tag_362\n      swap2\n      swap1\n      tag_108\n      jump\t// in\n    tag_362:\n        /* \"contracts/Market.sol\":10957:10979  vigAmount * app.eVig() */\n      tag_363\n      swap1\n        /* \"contracts/Market.sol\":10957:10966  vigAmount */\n      dup4\n        /* \"contracts/Market.sol\":10957:10979  vigAmount * app.eVig() */\n      tag_190\n      jump\t// in\n    tag_363:\n        /* \"contracts/Market.sol\":10957:10985  vigAmount * app.eVig() / 100 */\n      tag_364\n      swap2\n      swap1\n      tag_192\n      jump\t// in\n    tag_364:\n        /* \"contracts/Market.sol\":10935:10938  bal */\n      0x05\n        /* \"contracts/Market.sol\":10935:10953  bal[app.ecoAddr()] */\n      0x00\n        /* \"contracts/Market.sol\":10939:10942  app */\n      0x0a\n      0x00\n      swap1\n      sload\n      swap1\n      0x0100\n      exp\n      swap1\n      div\n      sub(shl(0xa0, 0x01), 0x01)\n      and\n      sub(shl(0xa0, 0x01), 0x01)\n        /* \"contracts/Market.sol\":10939:10950  app.ecoAddr */\n      and\n      0x09953b2f\n        /* \"contracts/Market.sol\":10939:10952  app.ecoAddr() */\n      mload(0x40)\n      dup2\n      0xffffffff\n      and\n      0xe0\n      shl\n      dup2\n      mstore\n      0x04\n      add\n      0x20\n      mload(0x40)\n      dup1\n      dup4\n      sub\n      dup2\n      dup7\n      dup1\n      extcodesize\n      iszero\n      dup1\n      iszero\n      tag_365\n      jumpi\n      0x00\n      dup1\n      revert\n    tag_365:\n      pop\n      gas\n      staticcall\n      iszero\n      dup1\n      iszero\n      tag_367\n      jumpi\n      returndatasize\n      0x00\n      dup1\n      returndatacopy\n      revert(0x00, returndatasize)\n    tag_367:\n      pop\n      pop\n      pop\n      pop\n      mload(0x40)\n      returndatasize\n      not(0x1f)\n      0x1f\n      dup3\n      add\n      and\n      dup3\n      add\n      dup1\n      0x40\n      mstore\n      pop\n      dup2\n      add\n      swap1\n      tag_368\n      swap2\n      swap1\n      tag_238\n      jump\t// in\n    tag_368:\n      sub(shl(0xa0, 0x01), 0x01)\n        /* \"contracts/Market.sol\":10935:10953  bal[app.ecoAddr()] */\n      and\n      sub(shl(0xa0, 0x01), 0x01)\n      and\n      dup2\n      mstore\n      0x20\n      add\n      swap1\n      dup2\n      mstore\n      0x20\n      add\n      0x00\n      keccak256\n      0x00\n        /* \"contracts/Market.sol\":10935:10985  bal[app.ecoAddr()] += vigAmount * app.eVig() / 100 */\n      dup3\n      dup3\n      sload\n      tag_369\n      swap2\n      swap1\n      tag_229\n      jump\t// in\n    tag_369:\n      swap1\n      swap2\n      sstore\n      pop\n      pop\n        /* \"contracts/Market.sol\":11033:11036  app */\n      sload(0x0a)\n        /* \"contracts/Market.sol\":11033:11043  app.aVig() */\n      0x40\n      dup1\n      mload\n      shl(0xe2, 0x15334697)\n      dup2\n      mstore\n      swap1\n      mload\n        /* \"contracts/Market.sol\":11046:11049  100 */\n      0x64\n      swap3\n      sub(shl(0xa0, 0x01), 0x01)\n        /* \"contracts/Market.sol\":11033:11036  app */\n      and\n      swap2\n        /* \"contracts/Market.sol\":11033:11041  app.aVig */\n      0x54cd1a5c\n      swap2\n        /* \"contracts/Market.sol\":11033:11043  app.aVig() */\n      0x04\n      dup1\n      dup4\n      add\n      swap3\n      0x20\n      swap3\n      swap2\n      swap1\n      dup3\n      swap1\n      sub\n      add\n      dup2\n        /* \"contracts/Market.sol\":11033:11036  app */\n      dup7\n        /* \"contracts/Market.sol\":11033:11043  app.aVig() */\n      dup1\n      extcodesize\n      iszero\n      dup1\n      iszero\n      tag_370\n      jumpi\n      0x00\n      dup1\n      revert\n    tag_370:\n      pop\n      gas\n      staticcall\n      iszero\n      dup1\n      iszero\n      tag_372\n      jumpi\n      returndatasize\n      0x00\n      dup1\n      returndatacopy\n      revert(0x00, returndatasize)\n    tag_372:\n      pop\n      pop\n      pop\n      pop\n      mload(0x40)\n      returndatasize\n      not(0x1f)\n      0x1f\n      dup3\n      add\n      and\n      dup3\n      add\n      dup1\n      0x40\n      mstore\n      pop\n      dup2\n      add\n      swap1\n      tag_373\n      swap2\n      swap1\n      tag_108\n      jump\t// in\n    tag_373:\n        /* \"contracts/Market.sol\":11021:11043  vigAmount * app.aVig() */\n      tag_374\n      swap1\n        /* \"contracts/Market.sol\":11021:11030  vigAmount */\n      dup4\n        /* \"contracts/Market.sol\":11021:11043  vigAmount * app.aVig() */\n      tag_190\n      jump\t// in\n    tag_374:\n        /* \"contracts/Market.sol\":11021:11049  vigAmount * app.aVig() / 100 */\n      tag_375\n      swap2\n      swap1\n      tag_192\n      jump\t// in\n    tag_375:\n        /* \"contracts/Market.sol\":11003:11016  bet.affiliate */\n      0x20\n      dup1\n      dup12\n      add\n      mload\n      sub(shl(0xa0, 0x01), 0x01)\n        /* \"contracts/Market.sol\":10999:11017  bal[bet.affiliate] */\n      and\n      0x00\n      swap1\n      dup2\n      mstore\n        /* \"contracts/Market.sol\":10999:11002  bal */\n      0x05\n        /* \"contracts/Market.sol\":10999:11017  bal[bet.affiliate] */\n      swap1\n      swap2\n      mstore\n      0x40\n      dup2\n      keccak256\n        /* \"contracts/Market.sol\":10999:11049  bal[bet.affiliate] += vigAmount * app.aVig() / 100 */\n      dup1\n      sload\n        /* \"contracts/Market.sol\":10999:11017  bal[bet.affiliate] */\n      swap1\n      swap2\n      swap1\n        /* \"contracts/Market.sol\":10999:11049  bal[bet.affiliate] += vigAmount * app.aVig() / 100 */\n      tag_376\n      swap1\n      dup5\n      swap1\n      tag_229\n      jump\t// in\n    tag_376:\n      swap3\n      pop\n      pop\n      dup2\n      swap1\n      sstore\n      pop\n        /* \"contracts/Market.sol\":11094:11098  true */\n      0x01\n        /* \"contracts/Market.sol\":11063:11072  pairsInfo */\n      0x08\n        /* \"contracts/Market.sol\":11063:11083  pairsInfo[_pairs[i]] */\n      0x00\n        /* \"contracts/Market.sol\":11073:11079  _pairs */\n      dup11\n        /* \"contracts/Market.sol\":11080:11081  i */\n      dup10\n        /* \"contracts/Market.sol\":11073:11082  _pairs[i] */\n      dup2\n      mload\n      dup2\n      lt\n      tag_377\n      jumpi\n      mstore(0x00, shl(0xe0, 0x4e487b71))\n      mstore(0x04, 0x32)\n      revert(0x00, 0x24)\n    tag_377:\n      0x20\n      mul\n      0x20\n      add\n      add\n      mload\n        /* \"contracts/Market.sol\":11063:11083  pairsInfo[_pairs[i]] */\n      dup2\n      mstore\n      0x20\n      add\n      swap1\n      dup2\n      mstore\n      0x20\n      add\n      0x00\n      keccak256\n        /* \"contracts/Market.sol\":11063:11091  pairsInfo[_pairs[i]].settled */\n      0x04\n      add\n      0x00\n        /* \"contracts/Market.sol\":11063:11098  pairsInfo[_pairs[i]].settled = true */\n      0x0100\n      exp\n      dup2\n      sload\n      dup2\n      0xff\n      mul\n      not\n      and\n      swap1\n      dup4\n      iszero\n      iszero\n      mul\n      or\n      swap1\n      sstore\n      pop\n        /* \"contracts/Market.sol\":9873:11109  for(uint i = 0; i < pairsLength; i++){... */\n      pop\n      pop\n      pop\n      pop\n      pop\n    tag_321:\n        /* \"contracts/Market.sol\":9906:9909  i++ */\n      dup1\n      tag_378\n      dup2\n      tag_134\n      jump\t// in\n    tag_378:\n      swap2\n      pop\n      pop\n        /* \"contracts/Market.sol\":9873:11109  for(uint i = 0; i < pairsLength; i++){... */\n      jump(tag_319)\n    tag_320:\n      pop\n        /* \"contracts/Market.sol\":11125:11129  true */\n      0x01\n      swap6\n        /* \"contracts/Market.sol\":9656:11136  function _cancelBetPairs(bytes32 _bet) private returns(bool) {... */\n      swap5\n      pop\n      pop\n      pop\n      pop\n      pop\n      jump\t// out\n        /* \"contracts/Market.sol\":11500:12773  function _settlePair(bytes32 _pair) private nonReentrant returns(bool) {... */\n    tag_132:\n        /* \"contracts/Market.sol\":11565:11569  bool */\n      0x00\n        /* \"@openzeppelin/contracts/security/ReentrancyGuard.sol\":1744:1745  2 */\n      0x02\n        /* \"@openzeppelin/contracts/security/ReentrancyGuard.sol\":2325:2332  _status */\n      sload(0x00)\n        /* \"@openzeppelin/contracts/security/ReentrancyGuard.sol\":2325:2344  _status != _ENTERED */\n      eq\n      iszero\n        /* \"@openzeppelin/contracts/security/ReentrancyGuard.sol\":2317:2380  require(_status != _ENTERED, \"ReentrancyGuard: reentrant call\") */\n      tag_380\n      jumpi\n      mload(0x40)\n      shl(0xe5, 0x461bcd)\n      dup2\n      mstore\n        /* \"#utility.yul\":9940:9942   */\n      0x20\n        /* \"@openzeppelin/contracts/security/ReentrancyGuard.sol\":2317:2380  require(_status != _ENTERED, \"ReentrancyGuard: reentrant call\") */\n      0x04\n      dup3\n      add\n        /* \"#utility.yul\":9922:9943   */\n      mstore\n        /* \"#utility.yul\":9979:9981   */\n      0x1f\n        /* \"#utility.yul\":9959:9977   */\n      0x24\n      dup3\n      add\n        /* \"#utility.yul\":9952:9982   */\n      mstore\n        /* \"#utility.yul\":10018:10051   */\n      0x5265656e7472616e637947756172643a207265656e7472616e742063616c6c00\n        /* \"#utility.yul\":9998:10016   */\n      0x44\n      dup3\n      add\n        /* \"#utility.yul\":9991:10052   */\n      mstore\n        /* \"#utility.yul\":10069:10087   */\n      0x64\n      add\n        /* \"@openzeppelin/contracts/security/ReentrancyGuard.sol\":2317:2380  require(_status != _ENTERED, \"ReentrancyGuard: reentrant call\") */\n      tag_84\n        /* \"#utility.yul\":9912:10093   */\n      jump\n        /* \"@openzeppelin/contracts/security/ReentrancyGuard.sol\":2317:2380  require(_status != _ENTERED, \"ReentrancyGuard: reentrant call\") */\n    tag_380:\n        /* \"@openzeppelin/contracts/security/ReentrancyGuard.sol\":1744:1745  2 */\n      0x02\n        /* \"@openzeppelin/contracts/security/ReentrancyGuard.sol\":2455:2462  _status */\n      0x00\n        /* \"@openzeppelin/contracts/security/ReentrancyGuard.sol\":2455:2473  _status = _ENTERED */\n      swap1\n      dup2\n      sstore\n        /* \"contracts/Market.sol\":11584:11600  pairsInfo[_pair] */\n      dup3\n      dup2\n      mstore\n        /* \"contracts/Market.sol\":11584:11593  pairsInfo */\n      0x08\n        /* \"contracts/Market.sol\":11584:11600  pairsInfo[_pair] */\n      0x20\n      mstore\n      0x40\n      swap1\n      keccak256\n        /* \"contracts/Market.sol\":11584:11608  pairsInfo[_pair].settled */\n      0x04\n      add\n      sload\n      0xff\n      and\n        /* \"contracts/Market.sol\":11581:11646  if(pairsInfo[_pair].settled){... */\n      iszero\n      tag_383\n      jumpi\n      pop\n        /* \"contracts/Market.sol\":11630:11635  false */\n      0x00\n        /* \"contracts/Market.sol\":11623:11635  return false */\n      jump(tag_101)\n        /* \"contracts/Market.sol\":11581:11646  if(pairsInfo[_pair].settled){... */\n    tag_383:\n        /* \"contracts/Market.sol\":11655:11669  address winner */\n      0x00\n        /* \"contracts/Market.sol\":11679:11696  address affiliate */\n      dup1\n        /* \"contracts/Market.sol\":11706:11723  uint256 winAmount */\n      0x00\n        /* \"contracts/Market.sol\":11733:11750  uint256 vigAmount */\n      dup1\n        /* \"contracts/Market.sol\":11763:11769  status */\n      sload(0x02)\n        /* \"contracts/Market.sol\":11773:11774  1 */\n      0x01\n        /* \"contracts/Market.sol\":11763:11774  status == 1 */\n      eq\n        /* \"contracts/Market.sol\":11760:12494  if(status == 1){... */\n      iszero\n      tag_384\n      jumpi\n        /* \"contracts/Market.sol\":11798:11833  betsInfo[pairsInfo[_pair].betHashA] */\n      0x00\n        /* \"contracts/Market.sol\":11807:11823  pairsInfo[_pair] */\n      dup7\n      dup2\n      mstore\n        /* \"contracts/Market.sol\":11807:11816  pairsInfo */\n      0x08\n        /* \"contracts/Market.sol\":11807:11823  pairsInfo[_pair] */\n      0x20\n      swap1\n      dup2\n      mstore\n      0x40\n      dup1\n      dup4\n      keccak256\n        /* \"contracts/Market.sol\":11807:11832  pairsInfo[_pair].betHashA */\n      sload\n        /* \"contracts/Market.sol\":11798:11833  betsInfo[pairsInfo[_pair].betHashA] */\n      dup4\n      mstore\n        /* \"contracts/Market.sol\":11798:11806  betsInfo */\n      0x06\n        /* \"contracts/Market.sol\":11798:11833  betsInfo[pairsInfo[_pair].betHashA] */\n      dup3\n      mstore\n      swap2\n      dup3\n      swap1\n      keccak256\n        /* \"contracts/Market.sol\":11798:11840  betsInfo[pairsInfo[_pair].betHashA].better */\n      sload\n        /* \"contracts/Market.sol\":11928:11931  app */\n      sload(0x0a)\n        /* \"contracts/Market.sol\":11928:11937  app.vig() */\n      dup4\n      mload\n      shl(0xe0, 0x55c4a8bf)\n      dup2\n      mstore\n      swap4\n      mload\n      sub(shl(0xa0, 0x01), 0x01)\n        /* \"contracts/Market.sol\":11798:11840  betsInfo[pairsInfo[_pair].betHashA].better */\n      swap3\n      dup4\n      and\n      swap9\n      pop\n        /* \"contracts/Market.sol\":11941:11944  100 */\n      0x64\n      swap5\n        /* \"contracts/Market.sol\":11928:11931  app */\n      swap2\n      swap1\n      swap3\n      and\n      swap3\n        /* \"contracts/Market.sol\":11928:11935  app.vig */\n      0x55c4a8bf\n      swap3\n        /* \"contracts/Market.sol\":11928:11937  app.vig() */\n      0x04\n      dup1\n      dup5\n      add\n      swap4\n      dup3\n      swap1\n      sub\n      add\n      dup2\n        /* \"contracts/Market.sol\":11928:11931  app */\n      dup7\n        /* \"contracts/Market.sol\":11928:11937  app.vig() */\n      dup1\n      extcodesize\n      iszero\n      dup1\n      iszero\n      tag_385\n      jumpi\n      0x00\n      dup1\n      revert\n    tag_385:\n      pop\n      gas\n      staticcall\n      iszero\n      dup1\n      iszero\n      tag_387\n      jumpi\n      returndatasize\n      0x00\n      dup1\n      returndatacopy\n      revert(0x00, returndatasize)\n    tag_387:\n      pop\n      pop\n      pop\n      pop\n      mload(0x40)\n      returndatasize\n      not(0x1f)\n      0x1f\n      dup3\n      add\n      and\n      dup3\n      add\n      dup1\n      0x40\n      mstore\n      pop\n      dup2\n      add\n      swap1\n      tag_388\n      swap2\n      swap1\n      tag_108\n      jump\t// in\n    tag_388:\n        /* \"contracts/Market.sol\":11922:11937  100 - app.vig() */\n      tag_389\n      swap1\n        /* \"contracts/Market.sol\":11922:11925  100 */\n      0x64\n        /* \"contracts/Market.sol\":11922:11937  100 - app.vig() */\n      tag_188\n      jump\t// in\n    tag_389:\n        /* \"contracts/Market.sol\":11894:11910  pairsInfo[_pair] */\n      0x00\n      dup9\n      dup2\n      mstore\n        /* \"contracts/Market.sol\":11894:11903  pairsInfo */\n      0x08\n        /* \"contracts/Market.sol\":11894:11910  pairsInfo[_pair] */\n      0x20\n      mstore\n      0x40\n      swap1\n      keccak256\n        /* \"contracts/Market.sol\":11894:11918  pairsInfo[_pair].amountB */\n      0x03\n      add\n      sload\n        /* \"contracts/Market.sol\":11894:11938  pairsInfo[_pair].amountB * (100 - app.vig()) */\n      tag_390\n      swap2\n      swap1\n      tag_190\n      jump\t// in\n    tag_390:\n        /* \"contracts/Market.sol\":11894:11944  pairsInfo[_pair].amountB * (100 - app.vig()) / 100 */\n      tag_391\n      swap2\n      swap1\n      tag_192\n      jump\t// in\n    tag_391:\n        /* \"contracts/Market.sol\":11866:11882  pairsInfo[_pair] */\n      0x00\n      dup8\n      dup2\n      mstore\n        /* \"contracts/Market.sol\":11866:11875  pairsInfo */\n      0x08\n        /* \"contracts/Market.sol\":11866:11882  pairsInfo[_pair] */\n      0x20\n      mstore\n      0x40\n      swap1\n      keccak256\n        /* \"contracts/Market.sol\":11866:11890  pairsInfo[_pair].amountA */\n      0x02\n      add\n      sload\n        /* \"contracts/Market.sol\":11866:11945  pairsInfo[_pair].amountA + (pairsInfo[_pair].amountB * (100 - app.vig()) / 100) */\n      tag_392\n      swap2\n      swap1\n      tag_229\n      jump\t// in\n    tag_392:\n        /* \"contracts/Market.sol\":11854:11945  winAmount = pairsInfo[_pair].amountA + (pairsInfo[_pair].amountB * (100 - app.vig()) / 100) */\n      swap2\n      pop\n        /* \"contracts/Market.sol\":12010:12013  100 */\n      0x64\n        /* \"contracts/Market.sol\":11998:12001  app */\n      0x0a\n      0x00\n      swap1\n      sload\n      swap1\n      0x0100\n      exp\n      swap1\n      div\n      sub(shl(0xa0, 0x01), 0x01)\n      and\n      sub(shl(0xa0, 0x01), 0x01)\n        /* \"contracts/Market.sol\":11998:12005  app.vig */\n      and\n      0x55c4a8bf\n        /* \"contracts/Market.sol\":11998:12007  app.vig() */\n      mload(0x40)\n      dup2\n      0xffffffff\n      and\n      0xe0\n      shl\n      dup2\n      mstore\n      0x04\n      add\n      0x20\n      mload(0x40)\n      dup1\n      dup4\n      sub\n      dup2\n      dup7\n      dup1\n      extcodesize\n      iszero\n      dup1\n      iszero\n      tag_393\n      jumpi\n      0x00\n      dup1\n      revert\n    tag_393:\n      pop\n      gas\n      staticcall\n      iszero\n      dup1\n      iszero\n      tag_395\n      jumpi\n      returndatasize\n      0x00\n      dup1\n      returndatacopy\n      revert(0x00, returndatasize)\n    tag_395:\n      pop\n      pop\n      pop\n      pop\n      mload(0x40)\n      returndatasize\n      not(0x1f)\n      0x1f\n      dup3\n      add\n      and\n      dup3\n      add\n      dup1\n      0x40\n      mstore\n      pop\n      dup2\n      add\n      swap1\n      tag_396\n      swap2\n      swap1\n      tag_108\n      jump\t// in\n    tag_396:\n        /* \"contracts/Market.sol\":11971:11987  pairsInfo[_pair] */\n      0x00\n      dup9\n      dup2\n      mstore\n        /* \"contracts/Market.sol\":11971:11980  pairsInfo */\n      0x08\n        /* \"contracts/Market.sol\":11971:11987  pairsInfo[_pair] */\n      0x20\n      mstore\n      0x40\n      swap1\n      keccak256\n        /* \"contracts/Market.sol\":11971:11995  pairsInfo[_pair].amountB */\n      0x03\n      add\n      sload\n        /* \"contracts/Market.sol\":11971:12007  pairsInfo[_pair].amountB * app.vig() */\n      tag_397\n      swap2\n      swap1\n      tag_190\n      jump\t// in\n    tag_397:\n        /* \"contracts/Market.sol\":11971:12013  pairsInfo[_pair].amountB * app.vig() / 100 */\n      tag_398\n      swap2\n      swap1\n      tag_192\n      jump\t// in\n    tag_398:\n        /* \"contracts/Market.sol\":12039:12074  betsInfo[pairsInfo[_pair].betHashA] */\n      0x00\n        /* \"contracts/Market.sol\":12048:12064  pairsInfo[_pair] */\n      dup8\n      dup2\n      mstore\n        /* \"contracts/Market.sol\":12048:12057  pairsInfo */\n      0x08\n        /* \"contracts/Market.sol\":12048:12064  pairsInfo[_pair] */\n      0x20\n      swap1\n      dup2\n      mstore\n      0x40\n      dup1\n      dup4\n      keccak256\n        /* \"contracts/Market.sol\":12048:12073  pairsInfo[_pair].betHashA */\n      sload\n        /* \"contracts/Market.sol\":12039:12074  betsInfo[pairsInfo[_pair].betHashA] */\n      dup4\n      mstore\n        /* \"contracts/Market.sol\":12039:12047  betsInfo */\n      0x06\n        /* \"contracts/Market.sol\":12039:12074  betsInfo[pairsInfo[_pair].betHashA] */\n      swap1\n      swap2\n      mstore\n      swap1\n      keccak256\n        /* \"contracts/Market.sol\":12039:12084  betsInfo[pairsInfo[_pair].betHashA].affiliate */\n      0x01\n      add\n      sload\n      sub(shl(0xa0, 0x01), 0x01)\n      and\n      swap4\n      pop\n        /* \"contracts/Market.sol\":11959:12013  vigAmount = pairsInfo[_pair].amountB * app.vig() / 100 */\n      swap1\n      pop\n        /* \"contracts/Market.sol\":11760:12494  if(status == 1){... */\n      jump(tag_415)\n    tag_384:\n        /* \"contracts/Market.sol\":12112:12118  status */\n      sload(0x02)\n        /* \"contracts/Market.sol\":12122:12123  2 */\n      0x02\n        /* \"contracts/Market.sol\":12112:12123  status == 2 */\n      eq\n        /* \"contracts/Market.sol\":12109:12494  if(status == 2){... */\n      iszero\n      tag_400\n      jumpi\n        /* \"contracts/Market.sol\":12147:12182  betsInfo[pairsInfo[_pair].betHashB] */\n      0x00\n        /* \"contracts/Market.sol\":12156:12172  pairsInfo[_pair] */\n      dup7\n      dup2\n      mstore\n        /* \"contracts/Market.sol\":12156:12165  pairsInfo */\n      0x08\n        /* \"contracts/Market.sol\":12156:12172  pairsInfo[_pair] */\n      0x20\n      swap1\n      dup2\n      mstore\n      0x40\n      dup1\n      dup4\n      keccak256\n        /* \"contracts/Market.sol\":12156:12181  pairsInfo[_pair].betHashB */\n      0x01\n      add\n      sload\n        /* \"contracts/Market.sol\":12147:12182  betsInfo[pairsInfo[_pair].betHashB] */\n      dup4\n      mstore\n        /* \"contracts/Market.sol\":12147:12155  betsInfo */\n      0x06\n        /* \"contracts/Market.sol\":12147:12182  betsInfo[pairsInfo[_pair].betHashB] */\n      dup3\n      mstore\n      swap2\n      dup3\n      swap1\n      keccak256\n        /* \"contracts/Market.sol\":12147:12189  betsInfo[pairsInfo[_pair].betHashB].better */\n      sload\n        /* \"contracts/Market.sol\":12277:12280  app */\n      sload(0x0a)\n        /* \"contracts/Market.sol\":12277:12286  app.vig() */\n      dup4\n      mload\n      shl(0xe0, 0x55c4a8bf)\n      dup2\n      mstore\n      swap4\n      mload\n      sub(shl(0xa0, 0x01), 0x01)\n        /* \"contracts/Market.sol\":12147:12189  betsInfo[pairsInfo[_pair].betHashB].better */\n      swap3\n      dup4\n      and\n      swap9\n      pop\n        /* \"contracts/Market.sol\":12290:12293  100 */\n      0x64\n      swap5\n        /* \"contracts/Market.sol\":12277:12280  app */\n      swap2\n      swap1\n      swap3\n      and\n      swap3\n        /* \"contracts/Market.sol\":12277:12284  app.vig */\n      0x55c4a8bf\n      swap3\n        /* \"contracts/Market.sol\":12277:12286  app.vig() */\n      0x04\n      dup1\n      dup5\n      add\n      swap4\n      dup3\n      swap1\n      sub\n      add\n      dup2\n        /* \"contracts/Market.sol\":12277:12280  app */\n      dup7\n        /* \"contracts/Market.sol\":12277:12286  app.vig() */\n      dup1\n      extcodesize\n      iszero\n      dup1\n      iszero\n      tag_401\n      jumpi\n      0x00\n      dup1\n      revert\n    tag_401:\n      pop\n      gas\n      staticcall\n      iszero\n      dup1\n      iszero\n      tag_403\n      jumpi\n      returndatasize\n      0x00\n      dup1\n      returndatacopy\n      revert(0x00, returndatasize)\n    tag_403:\n      pop\n      pop\n      pop\n      pop\n      mload(0x40)\n      returndatasize\n      not(0x1f)\n      0x1f\n      dup3\n      add\n      and\n      dup3\n      add\n      dup1\n      0x40\n      mstore\n      pop\n      dup2\n      add\n      swap1\n      tag_404\n      swap2\n      swap1\n      tag_108\n      jump\t// in\n    tag_404:\n        /* \"contracts/Market.sol\":12271:12286  100 - app.vig() */\n      tag_405\n      swap1\n        /* \"contracts/Market.sol\":12271:12274  100 */\n      0x64\n        /* \"contracts/Market.sol\":12271:12286  100 - app.vig() */\n      tag_188\n      jump\t// in\n    tag_405:\n        /* \"contracts/Market.sol\":12243:12259  pairsInfo[_pair] */\n      0x00\n      dup9\n      dup2\n      mstore\n        /* \"contracts/Market.sol\":12243:12252  pairsInfo */\n      0x08\n        /* \"contracts/Market.sol\":12243:12259  pairsInfo[_pair] */\n      0x20\n      mstore\n      0x40\n      swap1\n      keccak256\n        /* \"contracts/Market.sol\":12243:12267  pairsInfo[_pair].amountA */\n      0x02\n      add\n      sload\n        /* \"contracts/Market.sol\":12243:12287  pairsInfo[_pair].amountA * (100 - app.vig()) */\n      tag_406\n      swap2\n      swap1\n      tag_190\n      jump\t// in\n    tag_406:\n        /* \"contracts/Market.sol\":12243:12293  pairsInfo[_pair].amountA * (100 - app.vig()) / 100 */\n      tag_407\n      swap2\n      swap1\n      tag_192\n      jump\t// in\n    tag_407:\n        /* \"contracts/Market.sol\":12215:12231  pairsInfo[_pair] */\n      0x00\n      dup8\n      dup2\n      mstore\n        /* \"contracts/Market.sol\":12215:12224  pairsInfo */\n      0x08\n        /* \"contracts/Market.sol\":12215:12231  pairsInfo[_pair] */\n      0x20\n      mstore\n      0x40\n      swap1\n      keccak256\n        /* \"contracts/Market.sol\":12215:12239  pairsInfo[_pair].amountB */\n      0x03\n      add\n      sload\n        /* \"contracts/Market.sol\":12215:12294  pairsInfo[_pair].amountB + (pairsInfo[_pair].amountA * (100 - app.vig()) / 100) */\n      tag_408\n      swap2\n      swap1\n      tag_229\n      jump\t// in\n    tag_408:\n        /* \"contracts/Market.sol\":12203:12294  winAmount = pairsInfo[_pair].amountB + (pairsInfo[_pair].amountA * (100 - app.vig()) / 100) */\n      swap2\n      pop\n        /* \"contracts/Market.sol\":12359:12362  100 */\n      0x64\n        /* \"contracts/Market.sol\":12347:12350  app */\n      0x0a\n      0x00\n      swap1\n      sload\n      swap1\n      0x0100\n      exp\n      swap1\n      div\n      sub(shl(0xa0, 0x01), 0x01)\n      and\n      sub(shl(0xa0, 0x01), 0x01)\n        /* \"contracts/Market.sol\":12347:12354  app.vig */\n      and\n      0x55c4a8bf\n        /* \"contracts/Market.sol\":12347:12356  app.vig() */\n      mload(0x40)\n      dup2\n      0xffffffff\n      and\n      0xe0\n      shl\n      dup2\n      mstore\n      0x04\n      add\n      0x20\n      mload(0x40)\n      dup1\n      dup4\n      sub\n      dup2\n      dup7\n      dup1\n      extcodesize\n      iszero\n      dup1\n      iszero\n      tag_409\n      jumpi\n      0x00\n      dup1\n      revert\n    tag_409:\n      pop\n      gas\n      staticcall\n      iszero\n      dup1\n      iszero\n      tag_411\n      jumpi\n      returndatasize\n      0x00\n      dup1\n      returndatacopy\n      revert(0x00, returndatasize)\n    tag_411:\n      pop\n      pop\n      pop\n      pop\n      mload(0x40)\n      returndatasize\n      not(0x1f)\n      0x1f\n      dup3\n      add\n      and\n      dup3\n      add\n      dup1\n      0x40\n      mstore\n      pop\n      dup2\n      add\n      swap1\n      tag_412\n      swap2\n      swap1\n      tag_108\n      jump\t// in\n    tag_412:\n        /* \"contracts/Market.sol\":12320:12336  pairsInfo[_pair] */\n      0x00\n      dup9\n      dup2\n      mstore\n        /* \"contracts/Market.sol\":12320:12329  pairsInfo */\n      0x08\n        /* \"contracts/Market.sol\":12320:12336  pairsInfo[_pair] */\n      0x20\n      mstore\n      0x40\n      swap1\n      keccak256\n        /* \"contracts/Market.sol\":12320:12344  pairsInfo[_pair].amountA */\n      0x02\n      add\n      sload\n        /* \"contracts/Market.sol\":12320:12356  pairsInfo[_pair].amountA * app.vig() */\n      tag_413\n      swap2\n      swap1\n      tag_190\n      jump\t// in\n    tag_413:\n        /* \"contracts/Market.sol\":12320:12362  pairsInfo[_pair].amountA * app.vig() / 100 */\n      tag_414\n      swap2\n      swap1\n      tag_192\n      jump\t// in\n    tag_414:\n        /* \"contracts/Market.sol\":12388:12423  betsInfo[pairsInfo[_pair].betHashB] */\n      0x00\n        /* \"contracts/Market.sol\":12397:12413  pairsInfo[_pair] */\n      dup8\n      dup2\n      mstore\n        /* \"contracts/Market.sol\":12397:12406  pairsInfo */\n      0x08\n        /* \"contracts/Market.sol\":12397:12413  pairsInfo[_pair] */\n      0x20\n      swap1\n      dup2\n      mstore\n      0x40\n      dup1\n      dup4\n      keccak256\n        /* \"contracts/Market.sol\":12397:12422  pairsInfo[_pair].betHashB */\n      0x01\n      swap1\n      dup2\n      add\n      sload\n        /* \"contracts/Market.sol\":12388:12423  betsInfo[pairsInfo[_pair].betHashB] */\n      dup5\n      mstore\n        /* \"contracts/Market.sol\":12388:12396  betsInfo */\n      0x06\n        /* \"contracts/Market.sol\":12388:12423  betsInfo[pairsInfo[_pair].betHashB] */\n      swap1\n      swap3\n      mstore\n      swap1\n      swap2\n      keccak256\n        /* \"contracts/Market.sol\":12388:12433  betsInfo[pairsInfo[_pair].betHashB].affiliate */\n      add\n      sload\n      sub(shl(0xa0, 0x01), 0x01)\n      and\n      swap4\n      pop\n        /* \"contracts/Market.sol\":12308:12362  vigAmount = pairsInfo[_pair].amountA * app.vig() / 100 */\n      swap1\n      pop\n        /* \"contracts/Market.sol\":12109:12494  if(status == 2){... */\n      jump(tag_415)\n    tag_400:\n        /* \"contracts/Market.sol\":12478:12483  false */\n      0x00\n        /* \"contracts/Market.sol\":12471:12483  return false */\n      swap5\n      pop\n      pop\n      pop\n      pop\n      pop\n      jump(tag_101)\n        /* \"contracts/Market.sol\":12109:12494  if(status == 2){... */\n    tag_415:\n      sub(shl(0xa0, 0x01), 0x01)\n        /* \"contracts/Market.sol\":12503:12514  bal[winner] */\n      dup5\n      and\n      0x00\n      swap1\n      dup2\n      mstore\n        /* \"contracts/Market.sol\":12503:12506  bal */\n      0x05\n        /* \"contracts/Market.sol\":12503:12514  bal[winner] */\n      0x20\n      mstore\n      0x40\n      dup2\n      keccak256\n        /* \"contracts/Market.sol\":12503:12527  bal[winner] += winAmount */\n      dup1\n      sload\n        /* \"contracts/Market.sol\":12518:12527  winAmount */\n      dup5\n      swap3\n        /* \"contracts/Market.sol\":12503:12514  bal[winner] */\n      swap1\n        /* \"contracts/Market.sol\":12503:12527  bal[winner] += winAmount */\n      tag_416\n      swap1\n        /* \"contracts/Market.sol\":12518:12527  winAmount */\n      dup5\n      swap1\n        /* \"contracts/Market.sol\":12503:12527  bal[winner] += winAmount */\n      tag_229\n      jump\t// in\n    tag_416:\n      swap1\n      swap2\n      sstore\n      pop\n      pop\n        /* \"contracts/Market.sol\":12572:12575  app */\n      sload(0x0a)\n        /* \"contracts/Market.sol\":12572:12582  app.hVig() */\n      0x40\n      dup1\n      mload\n      shl(0xe0, 0x6a0ccd9d)\n      dup2\n      mstore\n      swap1\n      mload\n        /* \"contracts/Market.sol\":12585:12588  100 */\n      0x64\n      swap3\n      sub(shl(0xa0, 0x01), 0x01)\n        /* \"contracts/Market.sol\":12572:12575  app */\n      and\n      swap2\n        /* \"contracts/Market.sol\":12572:12580  app.hVig */\n      0x6a0ccd9d\n      swap2\n        /* \"contracts/Market.sol\":12572:12582  app.hVig() */\n      0x04\n      dup1\n      dup4\n      add\n      swap3\n      0x20\n      swap3\n      swap2\n      swap1\n      dup3\n      swap1\n      sub\n      add\n      dup2\n        /* \"contracts/Market.sol\":12572:12575  app */\n      dup7\n        /* \"contracts/Market.sol\":12572:12582  app.hVig() */\n      dup1\n      extcodesize\n      iszero\n      dup1\n      iszero\n      tag_417\n      jumpi\n      0x00\n      dup1\n      revert\n    tag_417:\n      pop\n      gas\n      staticcall\n      iszero\n      dup1\n      iszero\n      tag_419\n      jumpi\n      returndatasize\n      0x00\n      dup1\n      returndatacopy\n      revert(0x00, returndatasize)\n    tag_419:\n      pop\n      pop\n      pop\n      pop\n      mload(0x40)\n      returndatasize\n      not(0x1f)\n      0x1f\n      dup3\n      add\n      and\n      dup3\n      add\n      dup1\n      0x40\n      mstore\n      pop\n      dup2\n      add\n      swap1\n      tag_420\n      swap2\n      swap1\n      tag_108\n      jump\t// in\n    tag_420:\n        /* \"contracts/Market.sol\":12560:12582  vigAmount * app.hVig() */\n      tag_421\n      swap1\n        /* \"contracts/Market.sol\":12560:12569  vigAmount */\n      dup4\n        /* \"contracts/Market.sol\":12560:12582  vigAmount * app.hVig() */\n      tag_190\n      jump\t// in\n    tag_421:\n        /* \"contracts/Market.sol\":12560:12588  vigAmount * app.hVig() / 100 */\n      tag_422\n      swap2\n      swap1\n      tag_192\n      jump\t// in\n    tag_422:\n        /* \"contracts/Market.sol\":12537:12540  bal */\n      0x05\n        /* \"contracts/Market.sol\":12537:12556  bal[app.holdAddr()] */\n      0x00\n        /* \"contracts/Market.sol\":12541:12544  app */\n      0x0a\n      0x00\n      swap1\n      sload\n      swap1\n      0x0100\n      exp\n      swap1\n      div\n      sub(shl(0xa0, 0x01), 0x01)\n      and\n      sub(shl(0xa0, 0x01), 0x01)\n        /* \"contracts/Market.sol\":12541:12553  app.holdAddr */\n      and\n      0xb7640a54\n        /* \"contracts/Market.sol\":12541:12555  app.holdAddr() */\n      mload(0x40)\n      dup2\n      0xffffffff\n      and\n      0xe0\n      shl\n      dup2\n      mstore\n      0x04\n      add\n      0x20\n      mload(0x40)\n      dup1\n      dup4\n      sub\n      dup2\n      dup7\n      dup1\n      extcodesize\n      iszero\n      dup1\n      iszero\n      tag_423\n      jumpi\n      0x00\n      dup1\n      revert\n    tag_423:\n      pop\n      gas\n      staticcall\n      iszero\n      dup1\n      iszero\n      tag_425\n      jumpi\n      returndatasize\n      0x00\n      dup1\n      returndatacopy\n      revert(0x00, returndatasize)\n    tag_425:\n      pop\n      pop\n      pop\n      pop\n      mload(0x40)\n      returndatasize\n      not(0x1f)\n      0x1f\n      dup3\n      add\n      and\n      dup3\n      add\n      dup1\n      0x40\n      mstore\n      pop\n      dup2\n      add\n      swap1\n      tag_426\n      swap2\n      swap1\n      tag_238\n      jump\t// in\n    tag_426:\n      sub(shl(0xa0, 0x01), 0x01)\n        /* \"contracts/Market.sol\":12537:12556  bal[app.holdAddr()] */\n      and\n      sub(shl(0xa0, 0x01), 0x01)\n      and\n      dup2\n      mstore\n      0x20\n      add\n      swap1\n      dup2\n      mstore\n      0x20\n      add\n      0x00\n      keccak256\n      0x00\n        /* \"contracts/Market.sol\":12537:12588  bal[app.holdAddr()] += vigAmount * app.hVig() / 100 */\n      dup3\n      dup3\n      sload\n      tag_427\n      swap2\n      swap1\n      tag_229\n      jump\t// in\n    tag_427:\n      swap1\n      swap2\n      sstore\n      pop\n      pop\n        /* \"contracts/Market.sol\":12632:12635  app */\n      sload(0x0a)\n        /* \"contracts/Market.sol\":12632:12642  app.eVig() */\n      0x40\n      dup1\n      mload\n      shl(0xe0, 0x28576d45)\n      dup2\n      mstore\n      swap1\n      mload\n        /* \"contracts/Market.sol\":12645:12648  100 */\n      0x64\n      swap3\n      sub(shl(0xa0, 0x01), 0x01)\n        /* \"contracts/Market.sol\":12632:12635  app */\n      and\n      swap2\n        /* \"contracts/Market.sol\":12632:12640  app.eVig */\n      0x28576d45\n      swap2\n        /* \"contracts/Market.sol\":12632:12642  app.eVig() */\n      0x04\n      dup1\n      dup4\n      add\n      swap3\n      0x20\n      swap3\n      swap2\n      swap1\n      dup3\n      swap1\n      sub\n      add\n      dup2\n        /* \"contracts/Market.sol\":12632:12635  app */\n      dup7\n        /* \"contracts/Market.sol\":12632:12642  app.eVig() */\n      dup1\n      extcodesize\n      iszero\n      dup1\n      iszero\n      tag_428\n      jumpi\n      0x00\n      dup1\n      revert\n    tag_428:\n      pop\n      gas\n      staticcall\n      iszero\n      dup1\n      iszero\n      tag_430\n      jumpi\n      returndatasize\n      0x00\n      dup1\n      returndatacopy\n      revert(0x00, returndatasize)\n    tag_430:\n      pop\n      pop\n      pop\n      pop\n      mload(0x40)\n      returndatasize\n      not(0x1f)\n      0x1f\n      dup3\n      add\n      and\n      dup3\n      add\n      dup1\n      0x40\n      mstore\n      pop\n      dup2\n      add\n      swap1\n      tag_431\n      swap2\n      swap1\n      tag_108\n      jump\t// in\n    tag_431:\n        /* \"contracts/Market.sol\":12620:12642  vigAmount * app.eVig() */\n      tag_432\n      swap1\n        /* \"contracts/Market.sol\":12620:12629  vigAmount */\n      dup4\n        /* \"contracts/Market.sol\":12620:12642  vigAmount * app.eVig() */\n      tag_190\n      jump\t// in\n    tag_432:\n        /* \"contracts/Market.sol\":12620:12648  vigAmount * app.eVig() / 100 */\n      tag_433\n      swap2\n      swap1\n      tag_192\n      jump\t// in\n    tag_433:\n        /* \"contracts/Market.sol\":12598:12601  bal */\n      0x05\n        /* \"contracts/Market.sol\":12598:12616  bal[app.ecoAddr()] */\n      0x00\n        /* \"contracts/Market.sol\":12602:12605  app */\n      0x0a\n      0x00\n      swap1\n      sload\n      swap1\n      0x0100\n      exp\n      swap1\n      div\n      sub(shl(0xa0, 0x01), 0x01)\n      and\n      sub(shl(0xa0, 0x01), 0x01)\n        /* \"contracts/Market.sol\":12602:12613  app.ecoAddr */\n      and\n      0x09953b2f\n        /* \"contracts/Market.sol\":12602:12615  app.ecoAddr() */\n      mload(0x40)\n      dup2\n      0xffffffff\n      and\n      0xe0\n      shl\n      dup2\n      mstore\n      0x04\n      add\n      0x20\n      mload(0x40)\n      dup1\n      dup4\n      sub\n      dup2\n      dup7\n      dup1\n      extcodesize\n      iszero\n      dup1\n      iszero\n      tag_434\n      jumpi\n      0x00\n      dup1\n      revert\n    tag_434:\n      pop\n      gas\n      staticcall\n      iszero\n      dup1\n      iszero\n      tag_436\n      jumpi\n      returndatasize\n      0x00\n      dup1\n      returndatacopy\n      revert(0x00, returndatasize)\n    tag_436:\n      pop\n      pop\n      pop\n      pop\n      mload(0x40)\n      returndatasize\n      not(0x1f)\n      0x1f\n      dup3\n      add\n      and\n      dup3\n      add\n      dup1\n      0x40\n      mstore\n      pop\n      dup2\n      add\n      swap1\n      tag_437\n      swap2\n      swap1\n      tag_238\n      jump\t// in\n    tag_437:\n      sub(shl(0xa0, 0x01), 0x01)\n        /* \"contracts/Market.sol\":12598:12616  bal[app.ecoAddr()] */\n      and\n      sub(shl(0xa0, 0x01), 0x01)\n      and\n      dup2\n      mstore\n      0x20\n      add\n      swap1\n      dup2\n      mstore\n      0x20\n      add\n      0x00\n      keccak256\n      0x00\n        /* \"contracts/Market.sol\":12598:12648  bal[app.ecoAddr()] += vigAmount * app.eVig() / 100 */\n      dup3\n      dup3\n      sload\n      tag_438\n      swap2\n      swap1\n      tag_229\n      jump\t// in\n    tag_438:\n      swap1\n      swap2\n      sstore\n      pop\n      pop\n        /* \"contracts/Market.sol\":12688:12691  app */\n      sload(0x0a)\n        /* \"contracts/Market.sol\":12688:12698  app.aVig() */\n      0x40\n      dup1\n      mload\n      shl(0xe2, 0x15334697)\n      dup2\n      mstore\n      swap1\n      mload\n        /* \"contracts/Market.sol\":12701:12704  100 */\n      0x64\n      swap3\n      sub(shl(0xa0, 0x01), 0x01)\n        /* \"contracts/Market.sol\":12688:12691  app */\n      and\n      swap2\n        /* \"contracts/Market.sol\":12688:12696  app.aVig */\n      0x54cd1a5c\n      swap2\n        /* \"contracts/Market.sol\":12688:12698  app.aVig() */\n      0x04\n      dup1\n      dup4\n      add\n      swap3\n      0x20\n      swap3\n      swap2\n      swap1\n      dup3\n      swap1\n      sub\n      add\n      dup2\n        /* \"contracts/Market.sol\":12688:12691  app */\n      dup7\n        /* \"contracts/Market.sol\":12688:12698  app.aVig() */\n      dup1\n      extcodesize\n      iszero\n      dup1\n      iszero\n      tag_439\n      jumpi\n      0x00\n      dup1\n      revert\n    tag_439:\n      pop\n      gas\n      staticcall\n      iszero\n      dup1\n      iszero\n      tag_441\n      jumpi\n      returndatasize\n      0x00\n      dup1\n      returndatacopy\n      revert(0x00, returndatasize)\n    tag_441:\n      pop\n      pop\n      pop\n      pop\n      mload(0x40)\n      returndatasize\n      not(0x1f)\n      0x1f\n      dup3\n      add\n      and\n      dup3\n      add\n      dup1\n      0x40\n      mstore\n      pop\n      dup2\n      add\n      swap1\n      tag_442\n      swap2\n      swap1\n      tag_108\n      jump\t// in\n    tag_442:\n        /* \"contracts/Market.sol\":12676:12698  vigAmount * app.aVig() */\n      tag_443\n      swap1\n        /* \"contracts/Market.sol\":12676:12685  vigAmount */\n      dup4\n        /* \"contracts/Market.sol\":12676:12698  vigAmount * app.aVig() */\n      tag_190\n      jump\t// in\n    tag_443:\n        /* \"contracts/Market.sol\":12676:12704  vigAmount * app.aVig() / 100 */\n      tag_444\n      swap2\n      swap1\n      tag_192\n      jump\t// in\n    tag_444:\n      sub(shl(0xa0, 0x01), 0x01)\n        /* \"contracts/Market.sol\":12658:12672  bal[affiliate] */\n      dup5\n      and\n      0x00\n      swap1\n      dup2\n      mstore\n        /* \"contracts/Market.sol\":12658:12661  bal */\n      0x05\n        /* \"contracts/Market.sol\":12658:12672  bal[affiliate] */\n      0x20\n      mstore\n      0x40\n      dup2\n      keccak256\n        /* \"contracts/Market.sol\":12658:12704  bal[affiliate] += vigAmount * app.aVig() / 100 */\n      dup1\n      sload\n        /* \"contracts/Market.sol\":12658:12672  bal[affiliate] */\n      swap1\n      swap2\n      swap1\n        /* \"contracts/Market.sol\":12658:12704  bal[affiliate] += vigAmount * app.aVig() / 100 */\n      tag_445\n      swap1\n      dup5\n      swap1\n      tag_229\n      jump\t// in\n    tag_445:\n      swap1\n      swap2\n      sstore\n      pop\n      pop\n      pop\n        /* \"contracts/Market.sol\":12714:12730  pairsInfo[_pair] */\n      0x00\n      swap5\n      dup6\n      mstore\n      pop\n      pop\n        /* \"contracts/Market.sol\":12714:12723  pairsInfo */\n      0x08\n        /* \"contracts/Market.sol\":12714:12730  pairsInfo[_pair] */\n      0x20\n      mstore\n      pop\n      pop\n      0x40\n      dup2\n      keccak256\n        /* \"contracts/Market.sol\":12714:12738  pairsInfo[_pair].settled */\n      0x04\n      add\n        /* \"contracts/Market.sol\":12714:12745  pairsInfo[_pair].settled = true */\n      dup1\n      sload\n      not(0xff)\n      and\n        /* \"contracts/Market.sol\":12741:12745  true */\n      0x01\n        /* \"contracts/Market.sol\":12714:12745  pairsInfo[_pair].settled = true */\n      swap1\n      dup2\n      or\n      swap1\n      swap2\n      sstore\n        /* \"@openzeppelin/contracts/security/ReentrancyGuard.sol\":2628:2650  _status = _NOT_ENTERED */\n      swap1\n      dup2\n      swap1\n      sstore\n        /* \"contracts/Market.sol\":12741:12745  true */\n      swap1\n        /* \"contracts/Market.sol\":11500:12773  function _settlePair(bytes32 _pair) private nonReentrant returns(bool) {... */\n      jump\t// out\n        /* \"contracts/Market.sol\":12779:13681  function _createBet(... */\n    tag_193:\n        /* \"contracts/Market.sol\":12978:12985  bytes32 */\n      0x00\n        /* \"contracts/Market.sol\":13001:13016  bytes32 betHash */\n      dup1\n        /* \"contracts/Market.sol\":13026:13032  uint i */\n      0x00\n        /* \"contracts/Market.sol\":13046:13395  while(i >= 0){... */\n    tag_447:\n        /* \"contracts/Market.sol\":13183:13187  bets */\n      0x04\n        /* \"contracts/Market.sol\":13183:13194  bets.length */\n      sload\n        /* \"contracts/Market.sol\":13127:13134  _better */\n      dup10\n      swap1\n        /* \"contracts/Market.sol\":13160:13164  this */\n      address\n      swap1\n        /* \"contracts/Market.sol\":13201:13202  i */\n      dup4\n      swap1\n        /* \"contracts/Market.sol\":13183:13198  bets.length + 1 */\n      tag_449\n      swap1\n        /* \"contracts/Market.sol\":13197:13198  1 */\n      0x01\n        /* \"contracts/Market.sol\":13183:13198  bets.length + 1 */\n      tag_229\n      jump\t// in\n    tag_449:\n        /* \"contracts/Market.sol\":13183:13202  bets.length + 1 + i */\n      tag_450\n      swap2\n      swap1\n      tag_229\n      jump\t// in\n    tag_450:\n        /* \"contracts/Market.sol\":13093:13283  abi.encodePacked(... */\n      mload(0x40)\n      not(0xffffffffffffffffffffffff)\n        /* \"#utility.yul\":2447:2449   */\n      0x60\n        /* \"#utility.yul\":2443:2458   */\n      swap5\n      dup6\n      shl\n        /* \"#utility.yul\":2439:2463   */\n      dup2\n      and\n        /* \"contracts/Market.sol\":13093:13283  abi.encodePacked(... */\n      0x20\n      dup4\n      add\n        /* \"#utility.yul\":2427:2464   */\n      mstore\n        /* \"#utility.yul\":2498:2513   */\n      swap3\n      swap1\n      swap4\n      shl\n        /* \"#utility.yul\":2494:2518   */\n      swap1\n      swap2\n      and\n        /* \"#utility.yul\":2480:2492   */\n      0x34\n      dup4\n      add\n        /* \"#utility.yul\":2473:2519   */\n      mstore\n        /* \"#utility.yul\":2535:2547   */\n      0x48\n      dup3\n      add\n        /* \"#utility.yul\":2528:2556   */\n      mstore\n        /* \"contracts/Market.sol\":13220:13235  block.timestamp */\n      timestamp\n        /* \"#utility.yul\":2572:2584   */\n      0x68\n      dup3\n      add\n        /* \"#utility.yul\":2565:2593   */\n      mstore\n        /* \"contracts/Market.sol\":13253:13269  block.difficulty */\n      difficulty\n        /* \"#utility.yul\":2609:2622   */\n      0x88\n      dup3\n      add\n        /* \"#utility.yul\":2602:2631   */\n      mstore\n        /* \"#utility.yul\":2647:2660   */\n      0xa8\n      add\n        /* \"contracts/Market.sol\":13093:13283  abi.encodePacked(... */\n      0x40\n      dup1\n      mload\n      not(0x1f)\n      dup2\n      dup5\n      sub\n      add\n      dup2\n      mstore\n      swap2\n      dup2\n      mstore\n        /* \"contracts/Market.sol\":13083:13284  keccak256(abi.encodePacked(... */\n      dup2\n      mload\n        /* \"contracts/Market.sol\":13093:13283  abi.encodePacked(... */\n      0x20\n        /* \"contracts/Market.sol\":13083:13284  keccak256(abi.encodePacked(... */\n      swap3\n      dup4\n      add\n      keccak256\n        /* \"contracts/Market.sol\":13301:13318  betsInfo[betHash] */\n      0x00\n      dup2\n      dup2\n      mstore\n        /* \"contracts/Market.sol\":13301:13309  betsInfo */\n      0x06\n        /* \"contracts/Market.sol\":13301:13318  betsInfo[betHash] */\n      swap1\n      swap4\n      mstore\n      swap2\n      keccak256\n        /* \"contracts/Market.sol\":13301:13324  betsInfo[betHash].stake */\n      0x02\n      add\n      sload\n        /* \"contracts/Market.sol\":13083:13284  keccak256(abi.encodePacked(... */\n      swap1\n      swap3\n      pop\n        /* \"contracts/Market.sol\":13298:13368  if(betsInfo[betHash].stake == 0){... */\n      tag_453\n      jumpi\n        /* \"contracts/Market.sol\":13348:13353  break */\n      jump(tag_448)\n        /* \"contracts/Market.sol\":13298:13368  if(betsInfo[betHash].stake == 0){... */\n    tag_453:\n        /* \"contracts/Market.sol\":13381:13384  i++ */\n      dup1\n      tag_454\n      dup2\n      tag_134\n      jump\t// in\n    tag_454:\n      swap2\n      pop\n      pop\n        /* \"contracts/Market.sol\":13046:13395  while(i >= 0){... */\n      jump(tag_447)\n    tag_448:\n      sub(shl(0xa0, 0x01), 0x01)\n        /* \"contracts/Market.sol\":13407:13431  _affiliate == address(0) */\n      dup9\n      and\n        /* \"contracts/Market.sol\":13404:13483  if(_affiliate == address(0)){... */\n      tag_455\n      jumpi\n        /* \"contracts/Market.sol\":13459:13462  app */\n      0x0a\n      0x00\n      swap1\n      sload\n      swap1\n      0x0100\n      exp\n      swap1\n      div\n      sub(shl(0xa0, 0x01), 0x01)\n      and\n      sub(shl(0xa0, 0x01), 0x01)\n        /* \"contracts/Market.sol\":13459:13470  app.ecoAddr */\n      and\n      0x09953b2f\n        /* \"contracts/Market.sol\":13459:13472  app.ecoAddr() */\n      mload(0x40)\n      dup2\n      0xffffffff\n      and\n      0xe0\n      shl\n      dup2\n      mstore\n      0x04\n      add\n      0x20\n      mload(0x40)\n      dup1\n      dup4\n      sub\n      dup2\n      dup7\n      dup1\n      extcodesize\n      iszero\n      dup1\n      iszero\n      tag_456\n      jumpi\n      0x00\n      dup1\n      revert\n    tag_456:\n      pop\n      gas\n      staticcall\n      iszero\n      dup1\n      iszero\n      tag_458\n      jumpi\n      returndatasize\n      0x00\n      dup1\n      returndatacopy\n      revert(0x00, returndatasize)\n    tag_458:\n      pop\n      pop\n      pop\n      pop\n      mload(0x40)\n      returndatasize\n      not(0x1f)\n      0x1f\n      dup3\n      add\n      and\n      dup3\n      add\n      dup1\n      0x40\n      mstore\n      pop\n      dup2\n      add\n      swap1\n      tag_459\n      swap2\n      swap1\n      tag_238\n      jump\t// in\n    tag_459:\n        /* \"contracts/Market.sol\":13446:13472  _affiliate = app.ecoAddr() */\n      swap8\n      pop\n        /* \"contracts/Market.sol\":13404:13483  if(_affiliate == address(0)){... */\n    tag_455:\n      pop\n        /* \"contracts/Market.sol\":13512:13581  Struct.MarketBet(_better, _affiliate, _stake, _matched, _odds, _side) */\n      0x40\n      dup1\n      mload\n      0xc0\n      dup2\n      add\n      dup3\n      mstore\n      sub(shl(0xa0, 0x01), 0x01)\n      swap10\n      dup11\n      and\n      dup1\n      dup3\n      mstore\n      swap9\n      dup11\n      and\n      0x20\n      dup1\n      dup4\n      add\n      swap2\n      dup3\n      mstore\n      dup3\n      dup5\n      add\n      swap10\n      dup11\n      mstore\n      0x60\n      dup4\n      add\n      swap9\n      dup10\n      mstore\n      0x80\n      dup4\n      add\n      swap8\n      dup9\n      mstore\n      0xa0\n      dup4\n      add\n      swap7\n      dup8\n      mstore\n      0x00\n        /* \"contracts/Market.sol\":13492:13509  betsInfo[betHash] */\n      dup6\n      dup2\n      mstore\n        /* \"contracts/Market.sol\":13492:13500  betsInfo */\n      0x06\n        /* \"contracts/Market.sol\":13492:13509  betsInfo[betHash] */\n      dup3\n      mstore\n      dup5\n      dup2\n      keccak256\n        /* \"contracts/Market.sol\":13492:13581  betsInfo[betHash] = Struct.MarketBet(_better, _affiliate, _stake, _matched, _odds, _side) */\n      swap4\n      mload\n      dup5\n      sload\n      swap1\n      dup15\n      and\n      not(sub(shl(0xa0, 0x01), 0x01))\n      swap2\n      dup3\n      and\n      or\n      dup6\n      sstore\n      swap3\n      mload\n      0x01\n      dup1\n      dup7\n      add\n      dup1\n      sload\n      swap3\n      swap1\n      swap16\n      and\n      swap2\n      swap1\n      swap5\n      and\n      or\n      swap1\n      swap13\n      sstore\n      swap9\n      mload\n      0x02\n      dup4\n      add\n      sstore\n      swap7\n      mload\n      0x03\n      dup3\n      add\n      sstore\n      swap5\n      mload\n      0x04\n      dup1\n      dup8\n      add\n      swap2\n      swap1\n      swap2\n      sstore\n      swap4\n      mload\n      0x05\n      swap1\n      swap6\n      add\n      swap5\n      swap1\n      swap5\n      sstore\n        /* \"contracts/Market.sol\":13591:13609  bets.push(betHash) */\n      dup3\n      sload\n      dup1\n      dup7\n      add\n      swap1\n      swap4\n      sstore\n      0x8a35acfbc15ff81a39ae7d344fd709f28e8600b4aa8c65c6b64bfe7fe36bd19b\n      swap1\n      swap3\n      add\n      dup3\n      swap1\n      sstore\n      pop\n        /* \"contracts/Market.sol\":13619:13636  userBets[_better] */\n      swap4\n      dup6\n      mstore\n        /* \"contracts/Market.sol\":13619:13627  userBets */\n      0x07\n        /* \"contracts/Market.sol\":13619:13636  userBets[_better] */\n      dup4\n      mstore\n      dup5\n      keccak256\n        /* \"contracts/Market.sol\":13619:13650  userBets[_better].push(betHash) */\n      dup1\n      sload\n      swap2\n      dup3\n      add\n      dup2\n      sstore\n      dup5\n      mstore\n      swap3\n      keccak256\n      swap1\n      swap2\n      add\n      dup2\n      swap1\n      sstore\n        /* \"contracts/Market.sol\":13492:13509  betsInfo[betHash] */\n      swap1\n        /* \"contracts/Market.sol\":12779:13681  function _createBet(... */\n      jump\t// out\n        /* \"contracts/Market.sol\":8265:9650  function _match(... */\n    tag_219:\n        /* \"contracts/Market.sol\":8462:8469  uint256 */\n      0x00\n        /* \"contracts/Market.sol\":8485:8505  uint256 betterAmount */\n      dup1\n        /* \"contracts/Market.sol\":8515:8534  uint256 makerAmount */\n      0x00\n        /* \"contracts/Market.sol\":8544:8560  bytes32 pairHash */\n      dup1\n        /* \"contracts/Market.sol\":8590:8596  _stake */\n      dup10\n        /* \"contracts/Market.sol\":8573:8586  _offeredStake */\n      dup10\n        /* \"contracts/Market.sol\":8573:8596  _offeredStake <= _stake */\n      gt\n        /* \"contracts/Market.sol\":8570:9416  if(_offeredStake <= _stake) {... */\n      tag_463\n      jumpi\n        /* \"contracts/Market.sol\":8627:8640  _offeredStake */\n      dup9\n      swap3\n      pop\n        /* \"contracts/Market.sol\":8685:8696  _odds - 100 */\n      tag_464\n        /* \"contracts/Market.sol\":8693:8696  100 */\n      0x64\n        /* \"contracts/Market.sol\":8685:8690  _odds */\n      dup10\n        /* \"contracts/Market.sol\":8685:8696  _odds - 100 */\n      tag_188\n      jump\t// in\n    tag_464:\n        /* \"contracts/Market.sol\":8668:8697  _offeredStake * (_odds - 100) */\n      tag_465\n      swap1\n        /* \"contracts/Market.sol\":8668:8681  _offeredStake */\n      dup11\n        /* \"contracts/Market.sol\":8668:8697  _offeredStake * (_odds - 100) */\n      tag_190\n      jump\t// in\n    tag_465:\n        /* \"contracts/Market.sol\":8654:8697  makerAmount = _offeredStake * (_odds - 100) */\n      swap2\n      pop\n        /* \"contracts/Market.sol\":8711:8729  makerAmount /= 100 */\n      tag_466\n        /* \"contracts/Market.sol\":8726:8729  100 */\n      0x64\n        /* \"contracts/Market.sol\":8654:8697  makerAmount = _offeredStake * (_odds - 100) */\n      dup4\n        /* \"contracts/Market.sol\":8711:8729  makerAmount /= 100 */\n      tag_192\n      jump\t// in\n    tag_466:\n      swap2\n      pop\n        /* \"contracts/Market.sol\":8746:8751  _side */\n      dup7\n        /* \"contracts/Market.sol\":8755:8756  1 */\n      0x01\n        /* \"contracts/Market.sol\":8746:8756  _side == 1 */\n      eq\n        /* \"contracts/Market.sol\":8743:8997  if(_side == 1){... */\n      iszero\n      tag_467\n      jumpi\n        /* \"contracts/Market.sol\":8786:8846  _createPair(_betHash,_selectedHash,betterAmount,makerAmount) */\n      tag_468\n        /* \"contracts/Market.sol\":8798:8806  _betHash */\n      dup7\n        /* \"contracts/Market.sol\":8807:8820  _selectedHash */\n      dup7\n        /* \"contracts/Market.sol\":8821:8833  betterAmount */\n      dup6\n        /* \"contracts/Market.sol\":8834:8845  makerAmount */\n      dup6\n        /* \"contracts/Market.sol\":8786:8797  _createPair */\n      tag_469\n        /* \"contracts/Market.sol\":8786:8846  _createPair(_betHash,_selectedHash,betterAmount,makerAmount) */\n      jump\t// in\n    tag_468:\n        /* \"contracts/Market.sol\":8775:8846  pairHash = _createPair(_betHash,_selectedHash,betterAmount,makerAmount) */\n      swap1\n      pop\n        /* \"contracts/Market.sol\":8570:9416  if(_offeredStake <= _stake) {... */\n      jump(tag_480)\n        /* \"contracts/Market.sol\":8743:8997  if(_side == 1){... */\n    tag_467:\n        /* \"contracts/Market.sol\":8882:8887  _side */\n      dup7\n        /* \"contracts/Market.sol\":8891:8892  2 */\n      0x02\n        /* \"contracts/Market.sol\":8882:8892  _side == 2 */\n      eq\n        /* \"contracts/Market.sol\":8879:8997  if(_side == 2){... */\n      iszero\n      tag_471\n      jumpi\n        /* \"contracts/Market.sol\":8922:8982  _createPair(_selectedHash,_betHash,makerAmount,betterAmount) */\n      tag_468\n        /* \"contracts/Market.sol\":8934:8947  _selectedHash */\n      dup6\n        /* \"contracts/Market.sol\":8948:8956  _betHash */\n      dup8\n        /* \"contracts/Market.sol\":8957:8968  makerAmount */\n      dup5\n        /* \"contracts/Market.sol\":8969:8981  betterAmount */\n      dup7\n        /* \"contracts/Market.sol\":8922:8933  _createPair */\n      tag_469\n        /* \"contracts/Market.sol\":8922:8982  _createPair(_selectedHash,_betHash,makerAmount,betterAmount) */\n      jump\t// in\n        /* \"contracts/Market.sol\":8879:8997  if(_side == 2){... */\n    tag_471:\n        /* \"contracts/Market.sol\":8570:9416  if(_offeredStake <= _stake) {... */\n      jump(tag_480)\n    tag_463:\n        /* \"contracts/Market.sol\":9050:9056  _stake */\n      dup10\n      swap3\n      pop\n        /* \"contracts/Market.sol\":9094:9105  _odds - 100 */\n      tag_474\n        /* \"contracts/Market.sol\":9102:9105  100 */\n      0x64\n        /* \"contracts/Market.sol\":9094:9099  _odds */\n      dup10\n        /* \"contracts/Market.sol\":9094:9105  _odds - 100 */\n      tag_188\n      jump\t// in\n    tag_474:\n        /* \"contracts/Market.sol\":9084:9106  _stake * (_odds - 100) */\n      tag_475\n      swap1\n        /* \"contracts/Market.sol\":9084:9090  _stake */\n      dup12\n        /* \"contracts/Market.sol\":9084:9106  _stake * (_odds - 100) */\n      tag_190\n      jump\t// in\n    tag_475:\n        /* \"contracts/Market.sol\":9070:9106  makerAmount = _stake * (_odds - 100) */\n      swap2\n      pop\n        /* \"contracts/Market.sol\":9120:9138  makerAmount /= 100 */\n      tag_476\n        /* \"contracts/Market.sol\":9135:9138  100 */\n      0x64\n        /* \"contracts/Market.sol\":9070:9106  makerAmount = _stake * (_odds - 100) */\n      dup4\n        /* \"contracts/Market.sol\":9120:9138  makerAmount /= 100 */\n      tag_192\n      jump\t// in\n    tag_476:\n      swap2\n      pop\n        /* \"contracts/Market.sol\":9155:9160  _side */\n      dup7\n        /* \"contracts/Market.sol\":9164:9165  1 */\n      0x01\n        /* \"contracts/Market.sol\":9155:9165  _side == 1 */\n      eq\n        /* \"contracts/Market.sol\":9152:9406  if(_side == 1){... */\n      iszero\n      tag_477\n      jumpi\n        /* \"contracts/Market.sol\":9195:9255  _createPair(_betHash,_selectedHash,betterAmount,makerAmount) */\n      tag_468\n        /* \"contracts/Market.sol\":9207:9215  _betHash */\n      dup7\n        /* \"contracts/Market.sol\":9216:9229  _selectedHash */\n      dup7\n        /* \"contracts/Market.sol\":9230:9242  betterAmount */\n      dup6\n        /* \"contracts/Market.sol\":9243:9254  makerAmount */\n      dup6\n        /* \"contracts/Market.sol\":9195:9206  _createPair */\n      tag_469\n        /* \"contracts/Market.sol\":9195:9255  _createPair(_betHash,_selectedHash,betterAmount,makerAmount) */\n      jump\t// in\n        /* \"contracts/Market.sol\":9152:9406  if(_side == 1){... */\n    tag_477:\n        /* \"contracts/Market.sol\":9291:9296  _side */\n      dup7\n        /* \"contracts/Market.sol\":9300:9301  2 */\n      0x02\n        /* \"contracts/Market.sol\":9291:9301  _side == 2 */\n      eq\n        /* \"contracts/Market.sol\":9288:9406  if(_side == 2){... */\n      iszero\n      tag_480\n      jumpi\n        /* \"contracts/Market.sol\":9331:9391  _createPair(_selectedHash,_betHash,makerAmount,betterAmount) */\n      tag_481\n        /* \"contracts/Market.sol\":9343:9356  _selectedHash */\n      dup6\n        /* \"contracts/Market.sol\":9357:9365  _betHash */\n      dup8\n        /* \"contracts/Market.sol\":9366:9377  makerAmount */\n      dup5\n        /* \"contracts/Market.sol\":9378:9390  betterAmount */\n      dup7\n        /* \"contracts/Market.sol\":9331:9342  _createPair */\n      tag_469\n        /* \"contracts/Market.sol\":9331:9391  _createPair(_selectedHash,_betHash,makerAmount,betterAmount) */\n      jump\t// in\n    tag_481:\n        /* \"contracts/Market.sol\":9320:9391  pairHash = _createPair(_selectedHash,_betHash,makerAmount,betterAmount) */\n      swap1\n      pop\n        /* \"contracts/Market.sol\":9288:9406  if(_side == 2){... */\n    tag_480:\n        /* \"contracts/Market.sol\":9425:9443  betPairs[_betHash] */\n      0x00\n      dup7\n      dup2\n      mstore\n        /* \"contracts/Market.sol\":9425:9433  betPairs */\n      0x09\n        /* \"contracts/Market.sol\":9425:9443  betPairs[_betHash] */\n      0x20\n      swap1\n      dup2\n      mstore\n      0x40\n      dup1\n      dup4\n      keccak256\n        /* \"contracts/Market.sol\":9425:9458  betPairs[_betHash].push(pairHash) */\n      dup1\n      sload\n      0x01\n      dup2\n      dup2\n      add\n      dup4\n      sstore\n      swap2\n      dup6\n      mstore\n      dup4\n      dup6\n      keccak256\n      add\n      dup6\n      swap1\n      sstore\n        /* \"contracts/Market.sol\":9468:9491  betPairs[_selectedHash] */\n      dup9\n      dup5\n      mstore\n      dup2\n      dup5\n      keccak256\n        /* \"contracts/Market.sol\":9468:9506  betPairs[_selectedHash].push(pairHash) */\n      dup1\n      sload\n      swap2\n      dup3\n      add\n      dup2\n      sstore\n      dup5\n      mstore\n      dup3\n      dup5\n      keccak256\n      add\n      dup5\n      swap1\n      sstore\n        /* \"contracts/Market.sol\":9516:9534  betsInfo[_betHash] */\n      dup9\n      dup4\n      mstore\n        /* \"contracts/Market.sol\":9516:9524  betsInfo */\n      0x06\n        /* \"contracts/Market.sol\":9516:9534  betsInfo[_betHash] */\n      swap1\n      swap2\n      mstore\n      dup2\n      keccak256\n        /* \"contracts/Market.sol\":9516:9542  betsInfo[_betHash].matched */\n      0x03\n      add\n        /* \"contracts/Market.sol\":9516:9558  betsInfo[_betHash].matched += betterAmount */\n      dup1\n      sload\n        /* \"contracts/Market.sol\":9546:9558  betterAmount */\n      dup6\n      swap3\n        /* \"contracts/Market.sol\":9425:9443  betPairs[_betHash] */\n      swap1\n        /* \"contracts/Market.sol\":9516:9558  betsInfo[_betHash].matched += betterAmount */\n      tag_484\n      swap1\n        /* \"contracts/Market.sol\":9546:9558  betterAmount */\n      dup5\n      swap1\n        /* \"contracts/Market.sol\":9516:9558  betsInfo[_betHash].matched += betterAmount */\n      tag_229\n      jump\t// in\n    tag_484:\n      swap1\n      swap2\n      sstore\n      pop\n      pop\n        /* \"contracts/Market.sol\":9568:9591  betsInfo[_selectedHash] */\n      0x00\n      dup6\n      dup2\n      mstore\n        /* \"contracts/Market.sol\":9568:9576  betsInfo */\n      0x06\n        /* \"contracts/Market.sol\":9568:9591  betsInfo[_selectedHash] */\n      0x20\n      mstore\n      0x40\n      dup2\n      keccak256\n        /* \"contracts/Market.sol\":9568:9599  betsInfo[_selectedHash].matched */\n      0x03\n      add\n        /* \"contracts/Market.sol\":9568:9614  betsInfo[_selectedHash].matched += makerAmount */\n      dup1\n      sload\n        /* \"contracts/Market.sol\":9603:9614  makerAmount */\n      dup5\n      swap3\n        /* \"contracts/Market.sol\":9568:9591  betsInfo[_selectedHash] */\n      swap1\n        /* \"contracts/Market.sol\":9568:9614  betsInfo[_selectedHash].matched += makerAmount */\n      tag_485\n      swap1\n        /* \"contracts/Market.sol\":9603:9614  makerAmount */\n      dup5\n      swap1\n        /* \"contracts/Market.sol\":9568:9614  betsInfo[_selectedHash].matched += makerAmount */\n      tag_229\n      jump\t// in\n    tag_485:\n      swap1\n      swap2\n      sstore\n      pop\n        /* \"contracts/Market.sol\":9631:9643  betterAmount */\n      swap3\n      swap11\n        /* \"contracts/Market.sol\":8265:9650  function _match(... */\n      swap10\n      pop\n      pop\n      pop\n      pop\n      pop\n      pop\n      pop\n      pop\n      pop\n      pop\n      jump\t// out\n        /* \"contracts/Market.sol\":11142:11490  function _cancelPair(bytes32 _pair) private {... */\n    tag_272:\n        /* \"contracts/Market.sol\":11196:11211  address betterA */\n      0x00\n        /* \"contracts/Market.sol\":11223:11239  pairsInfo[_pair] */\n      dup2\n      dup2\n      mstore\n        /* \"contracts/Market.sol\":11223:11232  pairsInfo */\n      0x08\n        /* \"contracts/Market.sol\":11223:11239  pairsInfo[_pair] */\n      0x20\n      swap1\n      dup2\n      mstore\n      0x40\n      dup1\n      dup4\n      keccak256\n        /* \"contracts/Market.sol\":11223:11248  pairsInfo[_pair].betHashA */\n      dup1\n      sload\n        /* \"contracts/Market.sol\":11214:11249  betsInfo[pairsInfo[_pair].betHashA] */\n      dup5\n      mstore\n        /* \"contracts/Market.sol\":11214:11222  betsInfo */\n      0x06\n        /* \"contracts/Market.sol\":11214:11249  betsInfo[pairsInfo[_pair].betHashA] */\n      dup4\n      mstore\n      dup2\n      dup5\n      keccak256\n        /* \"contracts/Market.sol\":11214:11256  betsInfo[pairsInfo[_pair].betHashA].better */\n      sload\n      0x01\n        /* \"contracts/Market.sol\":11293:11318  pairsInfo[_pair].betHashB */\n      dup3\n      add\n      sload\n        /* \"contracts/Market.sol\":11284:11319  betsInfo[pairsInfo[_pair].betHashB] */\n      dup6\n      mstore\n      dup3\n      dup6\n      keccak256\n        /* \"contracts/Market.sol\":11284:11326  betsInfo[pairsInfo[_pair].betHashB].better */\n      sload\n        /* \"contracts/Market.sol\":11352:11376  pairsInfo[_pair].amountA */\n      0x02\n      swap1\n      swap3\n      add\n      sload\n      sub(shl(0xa0, 0x01), 0x01)\n        /* \"contracts/Market.sol\":11214:11256  betsInfo[pairsInfo[_pair].betHashA].better */\n      swap2\n      dup3\n      and\n        /* \"contracts/Market.sol\":11336:11348  bal[betterA] */\n      dup1\n      dup8\n      mstore\n        /* \"contracts/Market.sol\":11336:11339  bal */\n      0x05\n        /* \"contracts/Market.sol\":11336:11348  bal[betterA] */\n      swap1\n      swap6\n      mstore\n      swap3\n      dup6\n      keccak256\n        /* \"contracts/Market.sol\":11336:11376  bal[betterA] += pairsInfo[_pair].amountA */\n      dup1\n      sload\n        /* \"contracts/Market.sol\":11214:11256  betsInfo[pairsInfo[_pair].betHashA].better */\n      swap5\n      swap6\n        /* \"contracts/Market.sol\":11284:11326  betsInfo[pairsInfo[_pair].betHashB].better */\n      swap2\n      swap1\n      swap3\n      and\n      swap4\n        /* \"contracts/Market.sol\":11336:11376  bal[betterA] += pairsInfo[_pair].amountA */\n      tag_487\n      swap1\n        /* \"contracts/Market.sol\":11352:11376  pairsInfo[_pair].amountA */\n      dup5\n      swap1\n        /* \"contracts/Market.sol\":11336:11376  bal[betterA] += pairsInfo[_pair].amountA */\n      tag_229\n      jump\t// in\n    tag_487:\n      swap1\n      swap2\n      sstore\n      pop\n      pop\n        /* \"contracts/Market.sol\":11402:11418  pairsInfo[_pair] */\n      0x00\n      dup4\n      dup2\n      mstore\n        /* \"contracts/Market.sol\":11402:11411  pairsInfo */\n      0x08\n        /* \"contracts/Market.sol\":11402:11418  pairsInfo[_pair] */\n      0x20\n      swap1\n      dup2\n      mstore\n      0x40\n      dup1\n      dup4\n      keccak256\n        /* \"contracts/Market.sol\":11402:11426  pairsInfo[_pair].amountB */\n      0x03\n      add\n      sload\n      sub(shl(0xa0, 0x01), 0x01)\n        /* \"contracts/Market.sol\":11386:11398  bal[betterB] */\n      dup6\n      and\n      dup5\n      mstore\n        /* \"contracts/Market.sol\":11386:11389  bal */\n      0x05\n        /* \"contracts/Market.sol\":11386:11398  bal[betterB] */\n      swap1\n      swap3\n      mstore\n      dup3\n      keccak256\n        /* \"contracts/Market.sol\":11386:11426  bal[betterB] += pairsInfo[_pair].amountB */\n      dup1\n      sload\n        /* \"contracts/Market.sol\":11402:11426  pairsInfo[_pair].amountB */\n      swap2\n      swap3\n        /* \"contracts/Market.sol\":11386:11398  bal[betterB] */\n      swap1\n      swap2\n        /* \"contracts/Market.sol\":11386:11426  bal[betterB] += pairsInfo[_pair].amountB */\n      tag_488\n      swap1\n        /* \"contracts/Market.sol\":11402:11426  pairsInfo[_pair].amountB */\n      dup5\n      swap1\n        /* \"contracts/Market.sol\":11386:11426  bal[betterB] += pairsInfo[_pair].amountB */\n      tag_229\n      jump\t// in\n    tag_488:\n      swap1\n      swap2\n      sstore\n      pop\n      pop\n      pop\n        /* \"contracts/Market.sol\":11436:11452  pairsInfo[_pair] */\n      0x00\n      swap2\n      dup3\n      mstore\n      pop\n        /* \"contracts/Market.sol\":11436:11445  pairsInfo */\n      0x08\n        /* \"contracts/Market.sol\":11436:11452  pairsInfo[_pair] */\n      0x20\n      mstore\n      0x40\n      swap1\n      keccak256\n        /* \"contracts/Market.sol\":11436:11460  pairsInfo[_pair].settled */\n      0x04\n      add\n        /* \"contracts/Market.sol\":11436:11467  pairsInfo[_pair].settled = true */\n      dup1\n      sload\n      not(0xff)\n      and\n        /* \"contracts/Market.sol\":11463:11467  true */\n      0x01\n        /* \"contracts/Market.sol\":11436:11467  pairsInfo[_pair].settled = true */\n      or\n      swap1\n      sstore\n        /* \"contracts/Market.sol\":11142:11490  function _cancelPair(bytes32 _pair) private {... */\n      jump\t// out\n        /* \"contracts/Market.sol\":13687:14426  function _createPair(... */\n    tag_469:\n        /* \"contracts/Market.sol\":13845:13852  bytes32 */\n      0x00\n        /* \"contracts/Market.sol\":13868:13884  bytes32 pairHash */\n      dup1\n        /* \"contracts/Market.sol\":13894:13900  uint i */\n      0x00\n        /* \"contracts/Market.sol\":13914:14267  while(i >= 0){... */\n    tag_490:\n        /* \"contracts/Market.sol\":14050:14055  pairs */\n      0x03\n        /* \"contracts/Market.sol\":14050:14062  pairs.length */\n      sload\n        /* \"contracts/Market.sol\":13996:14005  _betHashA */\n      dup8\n      swap1\n        /* \"contracts/Market.sol\":14023:14032  _betHashB */\n      dup8\n      swap1\n        /* \"contracts/Market.sol\":14069:14070  i */\n      dup4\n      swap1\n        /* \"contracts/Market.sol\":14050:14066  pairs.length + 1 */\n      tag_492\n      swap1\n        /* \"contracts/Market.sol\":14065:14066  1 */\n      0x01\n        /* \"contracts/Market.sol\":14050:14066  pairs.length + 1 */\n      tag_229\n      jump\t// in\n    tag_492:\n        /* \"contracts/Market.sol\":14050:14070  pairs.length + 1 + i */\n      tag_493\n      swap2\n      swap1\n      tag_229\n      jump\t// in\n    tag_493:\n        /* \"contracts/Market.sol\":13962:14151  abi.encodePacked(... */\n      0x40\n      dup1\n      mload\n      0x20\n      dup2\n      add\n        /* \"#utility.yul\":2912:2931   */\n      swap5\n      swap1\n      swap5\n      mstore\n        /* \"#utility.yul\":2947:2959   */\n      dup4\n      add\n        /* \"#utility.yul\":2940:2968   */\n      swap2\n      swap1\n      swap2\n      mstore\n        /* \"#utility.yul\":2984:2996   */\n      0x60\n      dup3\n      add\n        /* \"#utility.yul\":2977:3005   */\n      mstore\n        /* \"contracts/Market.sol\":14088:14103  block.timestamp */\n      timestamp\n        /* \"#utility.yul\":3021:3033   */\n      0x80\n      dup3\n      add\n        /* \"#utility.yul\":3014:3042   */\n      mstore\n        /* \"contracts/Market.sol\":14121:14137  block.difficulty */\n      difficulty\n        /* \"#utility.yul\":3058:3071   */\n      0xa0\n      dup3\n      add\n        /* \"#utility.yul\":3051:3080   */\n      mstore\n        /* \"#utility.yul\":3096:3109   */\n      0xc0\n      add\n        /* \"contracts/Market.sol\":13962:14151  abi.encodePacked(... */\n      0x40\n      dup1\n      mload\n      not(0x1f)\n      dup2\n      dup5\n      sub\n      add\n      dup2\n      mstore\n      swap2\n      dup2\n      mstore\n        /* \"contracts/Market.sol\":13952:14152  keccak256(abi.encodePacked(... */\n      dup2\n      mload\n        /* \"contracts/Market.sol\":13962:14151  abi.encodePacked(... */\n      0x20\n        /* \"contracts/Market.sol\":13952:14152  keccak256(abi.encodePacked(... */\n      swap3\n      dup4\n      add\n      keccak256\n        /* \"contracts/Market.sol\":14169:14188  pairsInfo[pairHash] */\n      0x00\n      dup2\n      dup2\n      mstore\n        /* \"contracts/Market.sol\":14169:14178  pairsInfo */\n      0x08\n        /* \"contracts/Market.sol\":14169:14188  pairsInfo[pairHash] */\n      swap1\n      swap4\n      mstore\n      swap2\n      keccak256\n        /* \"contracts/Market.sol\":14169:14196  pairsInfo[pairHash].amountA */\n      0x02\n      add\n      sload\n        /* \"contracts/Market.sol\":13952:14152  keccak256(abi.encodePacked(... */\n      swap1\n      swap3\n      pop\n        /* \"contracts/Market.sol\":14166:14240  if(pairsInfo[pairHash].amountA == 0){... */\n      tag_496\n      jumpi\n        /* \"contracts/Market.sol\":14220:14225  break */\n      jump(tag_491)\n        /* \"contracts/Market.sol\":14166:14240  if(pairsInfo[pairHash].amountA == 0){... */\n    tag_496:\n        /* \"contracts/Market.sol\":14253:14256  i++ */\n      dup1\n      tag_497\n      dup2\n      tag_134\n      jump\t// in\n    tag_497:\n      swap2\n      pop\n      pop\n        /* \"contracts/Market.sol\":13914:14267  while(i >= 0){... */\n      jump(tag_490)\n    tag_491:\n      pop\n        /* \"contracts/Market.sol\":14298:14364  Struct.MarketPair(_betHashA, _betHashB, _amountA, _amountB, false) */\n      0x40\n      dup1\n      mload\n      0xa0\n      dup2\n      add\n      dup3\n      mstore\n      swap7\n      dup8\n      mstore\n      0x20\n      dup1\n      dup9\n      add\n      swap7\n      dup8\n      mstore\n      dup8\n      dup3\n      add\n      swap6\n      dup7\n      mstore\n      0x60\n      dup9\n      add\n      swap5\n      dup6\n      mstore\n      0x00\n      0x80\n      dup10\n      add\n      dup2\n      dup2\n      mstore\n        /* \"contracts/Market.sol\":14276:14295  pairsInfo[pairHash] */\n      dup5\n      dup3\n      mstore\n        /* \"contracts/Market.sol\":14276:14285  pairsInfo */\n      0x08\n        /* \"contracts/Market.sol\":14276:14295  pairsInfo[pairHash] */\n      swap1\n      swap3\n      mstore\n      swap2\n      dup3\n      keccak256\n        /* \"contracts/Market.sol\":14276:14364  pairsInfo[pairHash] = Struct.MarketPair(_betHashA, _betHashB, _amountA, _amountB, false) */\n      swap8\n      mload\n      dup9\n      sstore\n      swap6\n      mload\n        /* \"contracts/Market.sol\":14298:14364  Struct.MarketPair(_betHashA, _betHashB, _amountA, _amountB, false) */\n      0x01\n        /* \"contracts/Market.sol\":14276:14364  pairsInfo[pairHash] = Struct.MarketPair(_betHashA, _betHashB, _amountA, _amountB, false) */\n      dup1\n      dup10\n      add\n      swap2\n      swap1\n      swap2\n      sstore\n      swap5\n      mload\n      0x02\n      dup9\n      add\n      sstore\n      swap3\n      mload\n      0x03\n      dup1\n      dup9\n      add\n      swap2\n      swap1\n      swap2\n      sstore\n      swap5\n      mload\n      0x04\n      swap1\n      swap7\n      add\n      dup1\n      sload\n      not(0xff)\n      and\n      swap7\n      iszero\n      iszero\n      swap7\n      swap1\n      swap7\n      or\n      swap1\n      swap6\n      sstore\n      pop\n        /* \"contracts/Market.sol\":14374:14394  pairs.push(pairHash) */\n      dup3\n      sload\n      swap2\n      dup3\n      add\n      dup4\n      sstore\n      swap2\n      swap1\n      swap2\n      mstore\n      0xc2575a0e9e593c00f959f8c92f12db2869c3395a3b0502d05e2516446f71f85b\n      add\n      dup2\n      swap1\n      sstore\n        /* \"contracts/Market.sol\":14276:14295  pairsInfo[pairHash] */\n      swap1\n        /* \"contracts/Market.sol\":13687:14426  function _createPair(... */\n      jump\t// out\n        /* \"#utility.yul\":14:271   */\n    tag_31:\n        /* \"#utility.yul\":73:79   */\n      0x00\n        /* \"#utility.yul\":126:128   */\n      0x20\n        /* \"#utility.yul\":114:123   */\n      dup3\n        /* \"#utility.yul\":105:112   */\n      dup5\n        /* \"#utility.yul\":101:124   */\n      sub\n        /* \"#utility.yul\":97:129   */\n      slt\n        /* \"#utility.yul\":94:96   */\n      iszero\n      tag_501\n      jumpi\n        /* \"#utility.yul\":147:153   */\n      dup1\n        /* \"#utility.yul\":139:145   */\n      dup2\n        /* \"#utility.yul\":132:154   */\n      revert\n        /* \"#utility.yul\":94:96   */\n    tag_501:\n        /* \"#utility.yul\":191:200   */\n      dup2\n        /* \"#utility.yul\":178:201   */\n      calldataload\n        /* \"#utility.yul\":210:241   */\n      tag_502\n        /* \"#utility.yul\":235:240   */\n      dup2\n        /* \"#utility.yul\":210:241   */\n      tag_503\n      jump\t// in\n    tag_502:\n        /* \"#utility.yul\":260:265   */\n      swap4\n        /* \"#utility.yul\":84:271   */\n      swap3\n      pop\n      pop\n      pop\n      jump\t// out\n        /* \"#utility.yul\":276:537   */\n    tag_238:\n        /* \"#utility.yul\":346:352   */\n      0x00\n        /* \"#utility.yul\":399:401   */\n      0x20\n        /* \"#utility.yul\":387:396   */\n      dup3\n        /* \"#utility.yul\":378:385   */\n      dup5\n        /* \"#utility.yul\":374:397   */\n      sub\n        /* \"#utility.yul\":370:402   */\n      slt\n        /* \"#utility.yul\":367:369   */\n      iszero\n      tag_505\n      jumpi\n        /* \"#utility.yul\":420:426   */\n      dup1\n        /* \"#utility.yul\":412:418   */\n      dup2\n        /* \"#utility.yul\":405:427   */\n      revert\n        /* \"#utility.yul\":367:369   */\n    tag_505:\n        /* \"#utility.yul\":457:466   */\n      dup2\n        /* \"#utility.yul\":451:467   */\n      mload\n        /* \"#utility.yul\":476:507   */\n      tag_502\n        /* \"#utility.yul\":501:506   */\n      dup2\n        /* \"#utility.yul\":476:507   */\n      tag_503\n      jump\t// in\n        /* \"#utility.yul\":542:1282   */\n    tag_50:\n        /* \"#utility.yul\":643:649   */\n      0x00\n        /* \"#utility.yul\":651:657   */\n      dup1\n        /* \"#utility.yul\":659:665   */\n      0x00\n        /* \"#utility.yul\":667:673   */\n      dup1\n        /* \"#utility.yul\":675:681   */\n      0x00\n        /* \"#utility.yul\":683:689   */\n      dup1\n        /* \"#utility.yul\":736:739   */\n      0xc0\n        /* \"#utility.yul\":724:733   */\n      dup8\n        /* \"#utility.yul\":715:722   */\n      dup10\n        /* \"#utility.yul\":711:734   */\n      sub\n        /* \"#utility.yul\":707:740   */\n      slt\n        /* \"#utility.yul\":704:706   */\n      iszero\n      tag_508\n      jumpi\n        /* \"#utility.yul\":758:764   */\n      dup2\n        /* \"#utility.yul\":750:756   */\n      dup3\n        /* \"#utility.yul\":743:765   */\n      revert\n        /* \"#utility.yul\":704:706   */\n    tag_508:\n        /* \"#utility.yul\":802:811   */\n      dup7\n        /* \"#utility.yul\":789:812   */\n      calldataload\n        /* \"#utility.yul\":821:852   */\n      tag_509\n        /* \"#utility.yul\":846:851   */\n      dup2\n        /* \"#utility.yul\":821:852   */\n      tag_503\n      jump\t// in\n    tag_509:\n        /* \"#utility.yul\":871:876   */\n      swap6\n      pop\n        /* \"#utility.yul\":928:930   */\n      0x20\n        /* \"#utility.yul\":913:931   */\n      dup8\n      add\n        /* \"#utility.yul\":900:932   */\n      calldataload\n        /* \"#utility.yul\":941:974   */\n      tag_510\n        /* \"#utility.yul\":900:932   */\n      dup2\n        /* \"#utility.yul\":941:974   */\n      tag_503\n      jump\t// in\n    tag_510:\n        /* \"#utility.yul\":993:1000   */\n      swap5\n      pop\n        /* \"#utility.yul\":1047:1049   */\n      0x40\n        /* \"#utility.yul\":1032:1050   */\n      dup8\n      add\n        /* \"#utility.yul\":1019:1051   */\n      calldataload\n      swap4\n      pop\n        /* \"#utility.yul\":1098:1100   */\n      0x60\n        /* \"#utility.yul\":1083:1101   */\n      dup8\n      add\n        /* \"#utility.yul\":1070:1102   */\n      calldataload\n      swap3\n      pop\n        /* \"#utility.yul\":1149:1152   */\n      0x80\n        /* \"#utility.yul\":1134:1153   */\n      dup8\n      add\n        /* \"#utility.yul\":1121:1154   */\n      calldataload\n      swap2\n      pop\n        /* \"#utility.yul\":1206:1209   */\n      0xa0\n        /* \"#utility.yul\":1191:1210   */\n      dup8\n      add\n        /* \"#utility.yul\":1178:1211   */\n      calldataload\n        /* \"#utility.yul\":1220:1250   */\n      tag_511\n        /* \"#utility.yul\":1178:1211   */\n      dup2\n        /* \"#utility.yul\":1220:1250   */\n      tag_512\n      jump\t// in\n    tag_511:\n        /* \"#utility.yul\":1269:1276   */\n      dup1\n        /* \"#utility.yul\":1259:1276   */\n      swap2\n      pop\n      pop\n        /* \"#utility.yul\":694:1282   */\n      swap3\n      swap6\n      pop\n      swap3\n      swap6\n      pop\n      swap3\n      swap6\n      jump\t// out\n        /* \"#utility.yul\":1287:1542   */\n    tag_119:\n        /* \"#utility.yul\":1354:1360   */\n      0x00\n        /* \"#utility.yul\":1407:1409   */\n      0x20\n        /* \"#utility.yul\":1395:1404   */\n      dup3\n        /* \"#utility.yul\":1386:1393   */\n      dup5\n        /* \"#utility.yul\":1382:1405   */\n      sub\n        /* \"#utility.yul\":1378:1410   */\n      slt\n        /* \"#utility.yul\":1375:1377   */\n      iszero\n      tag_514\n      jumpi\n        /* \"#utility.yul\":1428:1434   */\n      dup1\n        /* \"#utility.yul\":1420:1426   */\n      dup2\n        /* \"#utility.yul\":1413:1435   */\n      revert\n        /* \"#utility.yul\":1375:1377   */\n    tag_514:\n        /* \"#utility.yul\":1465:1474   */\n      dup2\n        /* \"#utility.yul\":1459:1475   */\n      mload\n        /* \"#utility.yul\":1484:1512   */\n      tag_502\n        /* \"#utility.yul\":1506:1511   */\n      dup2\n        /* \"#utility.yul\":1484:1512   */\n      tag_512\n      jump\t// in\n        /* \"#utility.yul\":1547:1737   */\n    tag_27:\n        /* \"#utility.yul\":1606:1612   */\n      0x00\n        /* \"#utility.yul\":1659:1661   */\n      0x20\n        /* \"#utility.yul\":1647:1656   */\n      dup3\n        /* \"#utility.yul\":1638:1645   */\n      dup5\n        /* \"#utility.yul\":1634:1657   */\n      sub\n        /* \"#utility.yul\":1630:1662   */\n      slt\n        /* \"#utility.yul\":1627:1629   */\n      iszero\n      tag_517\n      jumpi\n        /* \"#utility.yul\":1680:1686   */\n      dup1\n        /* \"#utility.yul\":1672:1678   */\n      dup2\n        /* \"#utility.yul\":1665:1687   */\n      revert\n        /* \"#utility.yul\":1627:1629   */\n    tag_517:\n      pop\n        /* \"#utility.yul\":1708:1731   */\n      calldataload\n      swap2\n        /* \"#utility.yul\":1617:1737   */\n      swap1\n      pop\n      jump\t// out\n        /* \"#utility.yul\":1937:2131   */\n    tag_108:\n        /* \"#utility.yul\":2007:2013   */\n      0x00\n        /* \"#utility.yul\":2060:2062   */\n      0x20\n        /* \"#utility.yul\":2048:2057   */\n      dup3\n        /* \"#utility.yul\":2039:2046   */\n      dup5\n        /* \"#utility.yul\":2035:2058   */\n      sub\n        /* \"#utility.yul\":2031:2063   */\n      slt\n        /* \"#utility.yul\":2028:2030   */\n      iszero\n      tag_521\n      jumpi\n        /* \"#utility.yul\":2081:2087   */\n      dup1\n        /* \"#utility.yul\":2073:2079   */\n      dup2\n        /* \"#utility.yul\":2066:2088   */\n      revert\n        /* \"#utility.yul\":2028:2030   */\n    tag_521:\n      pop\n        /* \"#utility.yul\":2109:2125   */\n      mload\n      swap2\n        /* \"#utility.yul\":2018:2131   */\n      swap1\n      pop\n      jump\t// out\n        /* \"#utility.yul\":4892:5527   */\n    tag_34:\n        /* \"#utility.yul\":5063:5065   */\n      0x20\n        /* \"#utility.yul\":5115:5136   */\n      dup1\n      dup3\n      mstore\n        /* \"#utility.yul\":5185:5198   */\n      dup3\n      mload\n        /* \"#utility.yul\":5088:5106   */\n      dup3\n      dup3\n      add\n        /* \"#utility.yul\":5207:5229   */\n      dup2\n      swap1\n      mstore\n        /* \"#utility.yul\":5034:5038   */\n      0x00\n      swap2\n        /* \"#utility.yul\":5063:5065   */\n      swap1\n        /* \"#utility.yul\":5286:5301   */\n      dup5\n      dup3\n      add\n      swap1\n        /* \"#utility.yul\":5260:5262   */\n      0x40\n        /* \"#utility.yul\":5245:5263   */\n      dup6\n      add\n      swap1\n        /* \"#utility.yul\":5034:5038   */\n      dup5\n        /* \"#utility.yul\":5332:5501   */\n    tag_530:\n        /* \"#utility.yul\":5346:5352   */\n      dup2\n        /* \"#utility.yul\":5343:5344   */\n      dup2\n        /* \"#utility.yul\":5340:5353   */\n      lt\n        /* \"#utility.yul\":5332:5501   */\n      iszero\n      tag_532\n      jumpi\n        /* \"#utility.yul\":5407:5420   */\n      dup4\n      mload\n        /* \"#utility.yul\":5395:5421   */\n      dup4\n      mstore\n        /* \"#utility.yul\":5476:5491   */\n      swap3\n      dup5\n      add\n      swap3\n        /* \"#utility.yul\":5441:5453   */\n      swap2\n      dup5\n      add\n      swap2\n        /* \"#utility.yul\":5368:5369   */\n      0x01\n        /* \"#utility.yul\":5361:5370   */\n      add\n        /* \"#utility.yul\":5332:5501   */\n      jump(tag_530)\n    tag_532:\n      pop\n        /* \"#utility.yul\":5518:5521   */\n      swap1\n      swap7\n        /* \"#utility.yul\":5043:5527   */\n      swap6\n      pop\n      pop\n      pop\n      pop\n      pop\n      pop\n      jump\t// out\n        /* \"#utility.yul\":7304:7649   */\n    tag_242:\n        /* \"#utility.yul\":7506:7508   */\n      0x20\n        /* \"#utility.yul\":7488:7509   */\n      dup1\n      dup3\n      mstore\n        /* \"#utility.yul\":7545:7547   */\n      0x15\n        /* \"#utility.yul\":7525:7543   */\n      swap1\n      dup3\n      add\n        /* \"#utility.yul\":7518:7548   */\n      mstore\n      shl(0x5a, 0x18d85b1b195c881b9bdd08185d5d1a1bdc9a5e9959)\n        /* \"#utility.yul\":7579:7581   */\n      0x40\n        /* \"#utility.yul\":7564:7582   */\n      dup3\n      add\n        /* \"#utility.yul\":7557:7608   */\n      mstore\n        /* \"#utility.yul\":7640:7642   */\n      0x60\n        /* \"#utility.yul\":7625:7643   */\n      add\n      swap1\n        /* \"#utility.yul\":7478:7649   */\n      jump\t// out\n        /* \"#utility.yul\":10895:11023   */\n    tag_229:\n        /* \"#utility.yul\":10935:10938   */\n      0x00\n        /* \"#utility.yul\":10966:10967   */\n      dup3\n        /* \"#utility.yul\":10962:10968   */\n      not\n        /* \"#utility.yul\":10959:10960   */\n      dup3\n        /* \"#utility.yul\":10956:10969   */\n      gt\n        /* \"#utility.yul\":10953:10955   */\n      iszero\n      tag_551\n      jumpi\n        /* \"#utility.yul\":10972:10990   */\n      tag_551\n      tag_552\n      jump\t// in\n    tag_551:\n      pop\n        /* \"#utility.yul\":11008:11017   */\n      add\n      swap1\n        /* \"#utility.yul\":10943:11023   */\n      jump\t// out\n        /* \"#utility.yul\":11028:11245   */\n    tag_192:\n        /* \"#utility.yul\":11068:11069   */\n      0x00\n        /* \"#utility.yul\":11094:11095   */\n      dup3\n        /* \"#utility.yul\":11084:11086   */\n      tag_554\n      jumpi\n      shl(0xe0, 0x4e487b71)\n        /* \"#utility.yul\":11119:11150   */\n      dup2\n      mstore\n        /* \"#utility.yul\":11173:11177   */\n      0x12\n        /* \"#utility.yul\":11170:11171   */\n      0x04\n        /* \"#utility.yul\":11163:11178   */\n      mstore\n        /* \"#utility.yul\":11201:11205   */\n      0x24\n        /* \"#utility.yul\":11126:11127   */\n      dup2\n        /* \"#utility.yul\":11191:11206   */\n      revert\n        /* \"#utility.yul\":11084:11086   */\n    tag_554:\n      pop\n        /* \"#utility.yul\":11230:11239   */\n      div\n      swap1\n        /* \"#utility.yul\":11074:11245   */\n      jump\t// out\n        /* \"#utility.yul\":11250:11418   */\n    tag_190:\n        /* \"#utility.yul\":11290:11297   */\n      0x00\n        /* \"#utility.yul\":11356:11357   */\n      dup2\n        /* \"#utility.yul\":11352:11353   */\n      0x00\n        /* \"#utility.yul\":11348:11354   */\n      not\n        /* \"#utility.yul\":11344:11358   */\n      div\n        /* \"#utility.yul\":11341:11342   */\n      dup4\n        /* \"#utility.yul\":11338:11359   */\n      gt\n        /* \"#utility.yul\":11333:11334   */\n      dup3\n        /* \"#utility.yul\":11326:11335   */\n      iszero\n        /* \"#utility.yul\":11319:11336   */\n      iszero\n        /* \"#utility.yul\":11315:11360   */\n      and\n        /* \"#utility.yul\":11312:11314   */\n      iszero\n      tag_557\n      jumpi\n        /* \"#utility.yul\":11363:11381   */\n      tag_557\n      tag_552\n      jump\t// in\n    tag_557:\n      pop\n        /* \"#utility.yul\":11403:11412   */\n      mul\n      swap1\n        /* \"#utility.yul\":11302:11418   */\n      jump\t// out\n        /* \"#utility.yul\":11423:11548   */\n    tag_188:\n        /* \"#utility.yul\":11463:11467   */\n      0x00\n        /* \"#utility.yul\":11491:11492   */\n      dup3\n        /* \"#utility.yul\":11488:11489   */\n      dup3\n        /* \"#utility.yul\":11485:11493   */\n      lt\n        /* \"#utility.yul\":11482:11484   */\n      iszero\n      tag_560\n      jumpi\n        /* \"#utility.yul\":11496:11514   */\n      tag_560\n      tag_552\n      jump\t// in\n    tag_560:\n      pop\n        /* \"#utility.yul\":11533:11542   */\n      sub\n      swap1\n        /* \"#utility.yul\":11472:11548   */\n      jump\t// out\n        /* \"#utility.yul\":11553:11688   */\n    tag_134:\n        /* \"#utility.yul\":11592:11595   */\n      0x00\n      not(0x00)\n        /* \"#utility.yul\":11613:11630   */\n      dup3\n      eq\n        /* \"#utility.yul\":11610:11612   */\n      iszero\n      tag_563\n      jumpi\n        /* \"#utility.yul\":11633:11651   */\n      tag_563\n      tag_552\n      jump\t// in\n    tag_563:\n      pop\n        /* \"#utility.yul\":11680:11681   */\n      0x01\n        /* \"#utility.yul\":11669:11682   */\n      add\n      swap1\n        /* \"#utility.yul\":11600:11688   */\n      jump\t// out\n        /* \"#utility.yul\":11693:11820   */\n    tag_552:\n        /* \"#utility.yul\":11754:11764   */\n      0x4e487b71\n        /* \"#utility.yul\":11749:11752   */\n      0xe0\n        /* \"#utility.yul\":11745:11765   */\n      shl\n        /* \"#utility.yul\":11742:11743   */\n      0x00\n        /* \"#utility.yul\":11735:11766   */\n      mstore\n        /* \"#utility.yul\":11785:11789   */\n      0x11\n        /* \"#utility.yul\":11782:11783   */\n      0x04\n        /* \"#utility.yul\":11775:11790   */\n      mstore\n        /* \"#utility.yul\":11809:11813   */\n      0x24\n        /* \"#utility.yul\":11806:11807   */\n      0x00\n        /* \"#utility.yul\":11799:11814   */\n      revert\n        /* \"#utility.yul\":11825:11956   */\n    tag_503:\n      sub(shl(0xa0, 0x01), 0x01)\n        /* \"#utility.yul\":11900:11931   */\n      dup2\n      and\n        /* \"#utility.yul\":11890:11932   */\n      dup2\n      eq\n        /* \"#utility.yul\":11880:11882   */\n      tag_90\n      jumpi\n        /* \"#utility.yul\":11946:11947   */\n      0x00\n        /* \"#utility.yul\":11943:11944   */\n      dup1\n        /* \"#utility.yul\":11936:11948   */\n      revert\n        /* \"#utility.yul\":11961:12079   */\n    tag_512:\n        /* \"#utility.yul\":12047:12052   */\n      dup1\n        /* \"#utility.yul\":12040:12053   */\n      iszero\n        /* \"#utility.yul\":12033:12054   */\n      iszero\n        /* \"#utility.yul\":12026:12031   */\n      dup2\n        /* \"#utility.yul\":12023:12055   */\n      eq\n        /* \"#utility.yul\":12013:12015   */\n      tag_90\n      jumpi\n        /* \"#utility.yul\":12069:12070   */\n      0x00\n        /* \"#utility.yul\":12066:12067   */\n      dup1\n        /* \"#utility.yul\":12059:12071   */\n      revert\n\n    auxdata: 0xa26469706673582212203fbcb52fd773df47cebbb8b943c0e599ebe8b114785b7dd31eaae7abf833d3cc64736f6c63430008040033\n}\n",
				"bytecode": {
					"linkReferences": {},
					"object": "60c060405260006002553480156200001657600080fd5b50604051620030163803806200301683398101604081905262000039916200011c565b6001600081905560808290528054336001600160a01b03199182168117909255600a8054909116821790556040805162966ed960e31b815290516304b376c891600480820192602092909190829003018186803b1580156200009a57600080fd5b505afa158015620000af573d6000803e3d6000fd5b505050506040513d601f19601f82011682018060405250810190620000d59190620000ec565b60601b6001600160601b03191660a0525062000135565b600060208284031215620000fe578081fd5b81516001600160a01b038116811462000115578182fd5b9392505050565b6000602082840312156200012e578081fd5b5051919050565b60805160a05160601c612e796200019d600039600081816104d0015281816105f40152818161094301528181610a300152610be4015260008181610201015281816110d90152818161122f0152818161138d0152818161148001526115960152612e796000f3fe608060405234801561001057600080fd5b50600436106100f55760003560e01c80637a47d49411610097578063be9a655511610066578063be9a655514610251578063d0ed729514610259578063ea8a1af01461026c578063f8b2cb4f1461027457600080fd5b80637a47d494146101fc5780637d7f9232146102235780638df8280014610236578063ae8cd0901461024957600080fd5b806337e8c09e116100d357806337e8c09e1461014b57806351cff8d9146101b3578063675f6537146101d657806378d65b2f146101e957600080fd5b8063200d2ed2146100fa5780632940ff1e146101165780632d56657d1461012b575b600080fd5b61010360025481565b6040519081526020015b60405180910390f35b610129610124366004612cde565b61029d565b005b61013e610139366004612c1d565b61032b565b60405161010d9190612d0e565b61015e610159366004612cde565b610397565b60405161010d919081516001600160a01b0390811682526020808401519091169082015260408083015190820152606080830151908201526080808301519082015260a0918201519181019190915260c00190565b6101c66101c1366004612c1d565b610447565b604051901515815260200161010d565b6101296101e4366004612cde565b610714565b6101036101f7366004612c5c565b6107e9565b6101037f000000000000000000000000000000000000000000000000000000000000000081565b610129610231366004612cde565b610fa4565b6101c6610244366004612cde565b6110c7565b6101c661121d565b6101c661137b565b6101c6610267366004612cde565b61146e565b6101c6611584565b610103610282366004612c1d565b6001600160a01b031660009081526005602052604090205490565b6000818152600660205260409020546001600160a01b031633146102fe5760405162461bcd60e51b81526020600482015260136024820152723ab730baba3437b934bd32b21031b0b63632b960691b60448201526064015b60405180910390fd5b600254158061030f57506002546004145b1561031f5761031d81611686565b505b61032881610fa4565b50565b6001600160a01b03811660009081526007602090815260409182902080548351818402810184019094528084526060939283018282801561038b57602002820191906000526020600020905b815481526020019060010190808311610377575b50505050509050919050565b6103e26040518060c0016040528060006001600160a01b0316815260200160006001600160a01b03168152602001600081526020016000815260200160008152602001600081525090565b50600090815260066020908152604091829020825160c08101845281546001600160a01b03908116825260018301541692810192909252600281015492820192909252600382015460608201526004820154608082015260059091015460a082015290565b60006002600054141561049c5760405162461bcd60e51b815260206004820152601f60248201527f5265656e7472616e637947756172643a207265656e7472616e742063616c6c0060448201526064016102f5565b600260009081556001600160a01b03838116825260056020526040918290205491516370a0823160e01b81523060048201527f0000000000000000000000000000000000000000000000000000000000000000909116906370a082319060240160206040518083038186803b15801561051457600080fd5b505afa158015610528573d6000803e3d6000fd5b505050506040513d601f19601f8201168201806040525081019061054c9190612cf6565b1015801561057157506001600160a01b03821660009081526005602052604090205415155b6105b45760405162461bcd60e51b81526020600482015260146024820152737a65726f2076616c756520617661696c61626c6560601b60448201526064016102f5565b6001600160a01b03828116600081815260056020526040808220805490839055905163a9059cbb60e01b81526004810193909352602483018190529290917f00000000000000000000000000000000000000000000000000000000000000009091169063a9059cbb90604401602060405180830381600087803b15801561063a57600080fd5b505af115801561064e573d6000803e3d6000fd5b505050506040513d601f19601f820116820180604052508101906106729190612cc2565b9050806106c15760405162461bcd60e51b815260206004820152601960248201527f7472616e7366657220746f2063616c6c6572206661696c65640000000000000060448201526064016102f5565b604080516001600160a01b0386168152602081018490527f884edad9ce6fa2440d8a54cc123490eb96d2768479d49ff9c7366125a9424364910160405180910390a16001925050505b6001600055919050565b60008181526009602090815260408083208054825181850281018501909352808352919290919083018282801561076a57602002820191906000526020600020905b815481526020019060010190808311610756575b505083519394506000925050505b818110156107c3576107b08382815181106107a357634e487b7160e01b600052603260045260246000fd5b6020026020010151611eca565b50806107bb81612def565b915050610778565b5033600090815260056020526040902054156107e4576107e233610447565b505b505050565b600a5460405163332daccf60e01b81523360048201526000916001600160a01b03169063332daccf9060240160206040518083038186803b15801561082d57600080fd5b505afa158015610841573d6000803e3d6000fd5b505050506040513d601f19601f820116820180604052508101906108659190612cc2565b1561089e5760405162461bcd60e51b8152602060048201526009602482015268189b1858dadb1a5cdd60ba1b60448201526064016102f5565b600254156108e25760405162461bcd60e51b81526020600482015260116024820152706d61726b6574206e6f742061637469766560781b60448201526064016102f5565b82600114806108f15750826002145b61092c5760405162461bcd60e51b815260206004820152600c60248201526b696e76616c6964207369646560a01b60448201526064016102f5565b6040516370a0823160e01b815233600482015285907f00000000000000000000000000000000000000000000000000000000000000006001600160a01b0316906370a082319060240160206040518083038186803b15801561098d57600080fd5b505afa1580156109a1573d6000803e3d6000fd5b505050506040513d601f19601f820116820180604052508101906109c59190612cf6565b1015610a135760405162461bcd60e51b815260206004820152601960248201527f6e6f7420656e6f75676820746f6b656e2062616c616c6e63650000000000000060448201526064016102f5565b604051636eb1769f60e11b815233600482015230602482015285907f00000000000000000000000000000000000000000000000000000000000000006001600160a01b03169063dd62ed3e9060440160206040518083038186803b158015610a7a57600080fd5b505afa158015610a8e573d6000803e3d6000fd5b505050506040513d601f19601f82011682018060405250810190610ab29190612cf6565b1015610af75760405162461bcd60e51b81526020600482015260146024820152736e6f7420656e6f75676820616c6c6f77616e636560601b60448201526064016102f5565b600a60009054906101000a90046001600160a01b03166001600160a01b031663375b3c0a6040518163ffffffff1660e01b815260040160206040518083038186803b158015610b4557600080fd5b505afa158015610b59573d6000803e3d6000fd5b505050506040513d601f19601f82011682018060405250810190610b7d9190612cf6565b851015610bc25760405162461bcd60e51b81526020600482015260136024820152726c657373207468616e206d696e207374616b6560681b60448201526064016102f5565b6040516323b872dd60e01b8152336004820152306024820152604481018690527f00000000000000000000000000000000000000000000000000000000000000006001600160a01b0316906323b872dd90606401602060405180830381600087803b158015610c3057600080fd5b505af1158015610c44573d6000803e3d6000fd5b505050506040513d601f19601f82011682018060405250810190610c689190612cc2565b610cb45760405162461bcd60e51b815260206004820152601b60248201527f7472616e736665722066726f6d2063616c6c6572206661696c6564000000000060448201526064016102f5565b6000610ce388888884610cc860648b612dd8565b610cd38b6064612db9565b610cdd9190612d99565b896126bc565b60045490915015610f445760045486905b600a60009054906101000a90046001600160a01b03166001600160a01b031663375b3c0a6040518163ffffffff1660e01b815260040160206040518083038186803b158015610d4257600080fd5b505afa158015610d56573d6000803e3d6000fd5b505050506040513d601f19601f82011682018060405250810190610d7a9190612cf6565b8210610f415760008060005b83811015610e2a57600060048281548110610db157634e487b7160e01b600052603260045260246000fd5b9060005260206000200154905060066000828152602001908152602001600020600501548a1415610de25750610e18565b600081815260066020526040902060040154831015610e165760008181526006602052604090206004015491935090915082905b505b80610e2281612def565b915050610d86565b50600089821180610e435750600082118015610e435750875b15610f2557600060048481548110610e6b57634e487b7160e01b600052603260045260246000fd5b6000918252602080832090910154808352600682526040808420815160c08101835281546001600160a01b0390811682526001830154169481019490945260028101549184019190915260038101546060840152600481015460808401526005015460a0830152925090610ee060648e612dd8565b82606001518360400151610ef49190612dd8565b610efe9190612d99565b9050610f0b606482612db9565b9050610f1b8e828f8f8d886128e1565b9350505050610f2d565b505050610f41565b610f378186612dd8565b9450505050610cf4565b50505b60408051338152306020820152908101829052606081018790526080810186905260a081018590527f618f358bb45538682ade624a4a1959053d9dabd20fe300508034b879681b37be9060c00160405180910390a1979650505050505050565b600081815260066020908152604091829020825160c08101845281546001600160a01b0390811680835260018401549091169382019390935260028201549381019390935260038101546060840152600481015460808401526005015460a0830152331461104a5760405162461bcd60e51b81526020600482015260136024820152723ab730baba3437b934bd32b21031b0b63632b960691b60448201526064016102f5565b6000816060015182604001516110609190612dd8565b82516001600160a01b031660009081526005602052604081208054929350839290919061108e908490612d81565b90915550506040808301516000858152600660209081528382206003019290925533815260059091522054156107e4576107e233610447565b600a54604051631e55833360e31b81527f000000000000000000000000000000000000000000000000000000000000000060048201526000916001600160a01b03169063f2ac19989060240160206040518083038186803b15801561112b57600080fd5b505afa15801561113f573d6000803e3d6000fd5b505050506040513d601f19601f820116820180604052508101906111639190612c40565b6001600160a01b0316336001600160a01b0316148061118c57506001546001600160a01b031633145b6111a85760405162461bcd60e51b81526004016102f590612d52565b6111b18261146e565b156112155760035460005b8181101561120b576111f8600382815481106111e857634e487b7160e01b600052603260045260246000fd5b9060005260206000200154611eca565b508061120381612def565b9150506111bc565b5060019392505050565b506000919050565b600a54604051631e55833360e31b81527f000000000000000000000000000000000000000000000000000000000000000060048201526000916001600160a01b03169063f2ac19989060240160206040518083038186803b15801561128157600080fd5b505afa158015611295573d6000803e3d6000fd5b505050506040513d601f19601f820116820180604052508101906112b99190612c40565b6001600160a01b0316336001600160a01b031614806112e257506001546001600160a01b031633145b6112fe5760405162461bcd60e51b81526004016102f590612d52565b600254158061130f57506002546004145b156113755760035460005b81811015611368576113566003828154811061134657634e487b7160e01b600052603260045260246000fd5b9060005260206000200154612a2f565b8061136081612def565b91505061131a565b5050600360025550600190565b50600090565b600a54604051631e55833360e31b81527f000000000000000000000000000000000000000000000000000000000000000060048201526000916001600160a01b03169063f2ac19989060240160206040518083038186803b1580156113df57600080fd5b505afa1580156113f3573d6000803e3d6000fd5b505050506040513d601f19601f820116820180604052508101906114179190612c40565b6001600160a01b0316336001600160a01b0316148061144057506001546001600160a01b031633145b61145c5760405162461bcd60e51b81526004016102f590612d52565b60025461137557506004600255600190565b600a54604051631e55833360e31b81527f000000000000000000000000000000000000000000000000000000000000000060048201526000916001600160a01b03169063f2ac19989060240160206040518083038186803b1580156114d257600080fd5b505afa1580156114e6573d6000803e3d6000fd5b505050506040513d601f19601f8201168201806040525081019061150a9190612c40565b6001600160a01b0316336001600160a01b0316148061153357506001546001600160a01b031633145b61154f5760405162461bcd60e51b81526004016102f590612d52565b600254158061156057506002546004145b8015611576575081600114806115765750816002145b156112155750600255600190565b600a54604051631e55833360e31b81527f000000000000000000000000000000000000000000000000000000000000000060048201526000916001600160a01b03169063f2ac19989060240160206040518083038186803b1580156115e857600080fd5b505afa1580156115fc573d6000803e3d6000fd5b505050506040513d601f19601f820116820180604052508101906116209190612c40565b6001600160a01b0316336001600160a01b0316148061164957506001546001600160a01b031633145b6116655760405162461bcd60e51b81526004016102f590612d52565b600254158061167657506002546004145b1561137557506003600255600190565b6000818152600660209081526040808320815160c08101835281546001600160a01b03908116825260018301541681850152600282015481840152600382015460608201526004820154608082015260059091015460a082015284845260098352818420805483518186028101860190945280845291938593929083018282801561173057602002820191906000526020600020905b81548152602001906001019080831161171c575b505083519394506000925050505b81811015611ebe576008600084838151811061176a57634e487b7160e01b600052603260045260246000fd5b60209081029190910181015182528101919091526040016000206004015460ff161561179557611eac565b6000806000808760a001516001141561186d57600860008887815181106117cc57634e487b7160e01b600052603260045260246000fd5b602002602001015181526020019081526020016000206002015491506008600088878151811061180c57634e487b7160e01b600052603260045260246000fd5b602002602001015181526020019081526020016000206001015493506008600088878151811061184c57634e487b7160e01b600052603260045260246000fd5b6020026020010151815260200190815260200160002060030154925061193b565b8760a001516002141561193b576008600088878151811061189e57634e487b7160e01b600052603260045260246000fd5b60200260200101518152602001908152602001600020600301549150600860008887815181106118de57634e487b7160e01b600052603260045260246000fd5b602002602001015181526020019081526020016000206000015493506008600088878151811061191e57634e487b7160e01b600052603260045260246000fd5b602002602001015181526020019081526020016000206002015492505b5060008381526006602090815260409182902054600a5483516355c4a8bf60e01b815293516001600160a01b039283169460649493909216926355c4a8bf9260048082019391829003018186803b15801561199557600080fd5b505afa1580156119a9573d6000803e3d6000fd5b505050506040513d601f19601f820116820180604052508101906119cd9190612cf6565b6119d8906064612dd8565b6119e29084612db9565b6119ec9190612d99565b88516001600160a01b031660009081526005602052604081208054909190611a15908490612d81565b909155505060008481526006602052604081206003018054859290611a3b908490612dd8565b9250508190555060006064600a60009054906101000a90046001600160a01b03166001600160a01b03166355c4a8bf6040518163ffffffff1660e01b815260040160206040518083038186803b158015611a9457600080fd5b505afa158015611aa8573d6000803e3d6000fd5b505050506040513d601f19601f82011682018060405250810190611acc9190612cf6565b611ad69085612db9565b611ae09190612d99565b90506064600a60009054906101000a90046001600160a01b03166001600160a01b0316636a0ccd9d6040518163ffffffff1660e01b815260040160206040518083038186803b158015611b3257600080fd5b505afa158015611b46573d6000803e3d6000fd5b505050506040513d601f19601f82011682018060405250810190611b6a9190612cf6565b611b749083612db9565b611b7e9190612d99565b60056000600a60009054906101000a90046001600160a01b03166001600160a01b031663b7640a546040518163ffffffff1660e01b815260040160206040518083038186803b158015611bd057600080fd5b505afa158015611be4573d6000803e3d6000fd5b505050506040513d601f19601f82011682018060405250810190611c089190612c40565b6001600160a01b03166001600160a01b031681526020019081526020016000206000828254611c379190612d81565b9091555050600a54604080516328576d4560e01b815290516064926001600160a01b0316916328576d45916004808301926020929190829003018186803b158015611c8157600080fd5b505afa158015611c95573d6000803e3d6000fd5b505050506040513d601f19601f82011682018060405250810190611cb99190612cf6565b611cc39083612db9565b611ccd9190612d99565b60056000600a60009054906101000a90046001600160a01b03166001600160a01b03166309953b2f6040518163ffffffff1660e01b815260040160206040518083038186803b158015611d1f57600080fd5b505afa158015611d33573d6000803e3d6000fd5b505050506040513d601f19601f82011682018060405250810190611d579190612c40565b6001600160a01b03166001600160a01b031681526020019081526020016000206000828254611d869190612d81565b9091555050600a5460408051631533469760e21b815290516064926001600160a01b0316916354cd1a5c916004808301926020929190829003018186803b158015611dd057600080fd5b505afa158015611de4573d6000803e3d6000fd5b505050506040513d601f19601f82011682018060405250810190611e089190612cf6565b611e129083612db9565b611e1c9190612d99565b6020808b01516001600160a01b031660009081526005909152604081208054909190611e49908490612d81565b925050819055506001600860008a8981518110611e7657634e487b7160e01b600052603260045260246000fd5b6020026020010151815260200190815260200160002060040160006101000a81548160ff02191690831515021790555050505050505b80611eb681612def565b91505061173e565b50600195945050505050565b600060026000541415611f1f5760405162461bcd60e51b815260206004820152601f60248201527f5265656e7472616e637947756172643a207265656e7472616e742063616c6c0060448201526064016102f5565b600260009081558281526008602052604090206004015460ff1615611f465750600061070a565b60008060008060025460011415612120576000868152600860209081526040808320548352600682529182902054600a5483516355c4a8bf60e01b815293516001600160a01b03928316985060649491909216926355c4a8bf92600480840193829003018186803b158015611fba57600080fd5b505afa158015611fce573d6000803e3d6000fd5b505050506040513d601f19601f82011682018060405250810190611ff29190612cf6565b611ffd906064612dd8565b6000888152600860205260409020600301546120199190612db9565b6120239190612d99565b60008781526008602052604090206002015461203f9190612d81565b91506064600a60009054906101000a90046001600160a01b03166001600160a01b03166355c4a8bf6040518163ffffffff1660e01b815260040160206040518083038186803b15801561209157600080fd5b505afa1580156120a5573d6000803e3d6000fd5b505050506040513d601f19601f820116820180604052508101906120c99190612cf6565b6000888152600860205260409020600301546120e59190612db9565b6120ef9190612d99565b600087815260086020908152604080832054835260069091529020600101546001600160a01b031693509050612308565b600254600214156122fb576000868152600860209081526040808320600101548352600682529182902054600a5483516355c4a8bf60e01b815293516001600160a01b03928316985060649491909216926355c4a8bf92600480840193829003018186803b15801561219157600080fd5b505afa1580156121a5573d6000803e3d6000fd5b505050506040513d601f19601f820116820180604052508101906121c99190612cf6565b6121d4906064612dd8565b6000888152600860205260409020600201546121f09190612db9565b6121fa9190612d99565b6000878152600860205260409020600301546122169190612d81565b91506064600a60009054906101000a90046001600160a01b03166001600160a01b03166355c4a8bf6040518163ffffffff1660e01b815260040160206040518083038186803b15801561226857600080fd5b505afa15801561227c573d6000803e3d6000fd5b505050506040513d601f19601f820116820180604052508101906122a09190612cf6565b6000888152600860205260409020600201546122bc9190612db9565b6122c69190612d99565b60008781526008602090815260408083206001908101548452600690925290912001546001600160a01b031693509050612308565b600094505050505061070a565b6001600160a01b03841660009081526005602052604081208054849290612330908490612d81565b9091555050600a5460408051636a0ccd9d60e01b815290516064926001600160a01b031691636a0ccd9d916004808301926020929190829003018186803b15801561237a57600080fd5b505afa15801561238e573d6000803e3d6000fd5b505050506040513d601f19601f820116820180604052508101906123b29190612cf6565b6123bc9083612db9565b6123c69190612d99565b60056000600a60009054906101000a90046001600160a01b03166001600160a01b031663b7640a546040518163ffffffff1660e01b815260040160206040518083038186803b15801561241857600080fd5b505afa15801561242c573d6000803e3d6000fd5b505050506040513d601f19601f820116820180604052508101906124509190612c40565b6001600160a01b03166001600160a01b03168152602001908152602001600020600082825461247f9190612d81565b9091555050600a54604080516328576d4560e01b815290516064926001600160a01b0316916328576d45916004808301926020929190829003018186803b1580156124c957600080fd5b505afa1580156124dd573d6000803e3d6000fd5b505050506040513d601f19601f820116820180604052508101906125019190612cf6565b61250b9083612db9565b6125159190612d99565b60056000600a60009054906101000a90046001600160a01b03166001600160a01b03166309953b2f6040518163ffffffff1660e01b815260040160206040518083038186803b15801561256757600080fd5b505afa15801561257b573d6000803e3d6000fd5b505050506040513d601f19601f8201168201806040525081019061259f9190612c40565b6001600160a01b03166001600160a01b0316815260200190815260200160002060008282546125ce9190612d81565b9091555050600a5460408051631533469760e21b815290516064926001600160a01b0316916354cd1a5c916004808301926020929190829003018186803b15801561261857600080fd5b505afa15801561262c573d6000803e3d6000fd5b505050506040513d601f19601f820116820180604052508101906126509190612cf6565b61265a9083612db9565b6126649190612d99565b6001600160a01b0384166000908152600560205260408120805490919061268c908490612d81565b909155505050600094855250506008602052505060408120600401805460ff191660019081179091559081905590565b60008060005b6004548990309083906126d6906001612d81565b6126e09190612d81565b6040516bffffffffffffffffffffffff19606094851b811660208301529290931b9091166034830152604882015242606882015244608882015260a80160408051601f1981840301815291815281516020928301206000818152600690935291206002015490925061275157612763565b8061275b81612def565b9150506126c2565b6001600160a01b0388166127fa57600a60009054906101000a90046001600160a01b03166001600160a01b03166309953b2f6040518163ffffffff1660e01b815260040160206040518083038186803b1580156127bf57600080fd5b505afa1580156127d3573d6000803e3d6000fd5b505050506040513d601f19601f820116820180604052508101906127f79190612c40565b97505b506040805160c0810182526001600160a01b03998a16808252988a166020808301918252828401998a52606083019889526080830197885260a0830196875260008581526006825284812093518454908e166001600160a01b031991821617855592516001808601805492909f169190941617909c5598516002830155965160038201559451600480870191909155935160059095019490945582548086019093557f8a35acfbc15ff81a39ae7d344fd709f28e8600b4aa8c65c6b64bfe7fe36bd19b90920182905550938552600783528420805491820181558452922090910181905590565b60008060008089891161294b578892506128fc606489612dd8565b612906908a612db9565b9150612913606483612d99565b915086600114156129315761292a86868585612aea565b905061299f565b86600214156129465761292a85878486612aea565b61299f565b899250612959606489612dd8565b612963908b612db9565b9150612970606483612d99565b915086600114156129875761292a86868585612aea565b866002141561299f5761299c85878486612aea565b90505b600086815260096020908152604080832080546001818101835591855283852001859055888452818420805491820181558452828420018490558883526006909152812060030180548592906129f6908490612d81565b909155505060008581526006602052604081206003018054849290612a1c908490612d81565b90915550929a9950505050505050505050565b600081815260086020908152604080832080548452600683528184205460018201548552828520546002909201546001600160a01b039182168087526005909552928520805494959190921693612a87908490612d81565b90915550506000838152600860209081526040808320600301546001600160a01b038516845260059092528220805491929091612ac5908490612d81565b909155505050600091825250600860205260409020600401805460ff19166001179055565b60008060005b600354879087908390612b04906001612d81565b612b0e9190612d81565b60408051602081019490945283019190915260608201524260808201524460a082015260c00160408051601f19818403018152918152815160209283012060008181526008909352912060020154909250612b6857612b7a565b80612b7281612def565b915050612af0565b506040805160a081018252968752602080880196875287820195865260608801948552600060808901818152848252600890925291822097518855955160018089019190915594516002880155925160038088019190915594516004909601805460ff1916961515969096179095555082549182018355919091527fc2575a0e9e593c00f959f8c92f12db2869c3395a3b0502d05e2516446f71f85b0181905590565b600060208284031215612c2e578081fd5b8135612c3981612e20565b9392505050565b600060208284031215612c51578081fd5b8151612c3981612e20565b60008060008060008060c08789031215612c74578182fd5b8635612c7f81612e20565b95506020870135612c8f81612e20565b945060408701359350606087013592506080870135915060a0870135612cb481612e35565b809150509295509295509295565b600060208284031215612cd3578081fd5b8151612c3981612e35565b600060208284031215612cef578081fd5b5035919050565b600060208284031215612d07578081fd5b5051919050565b6020808252825182820181905260009190848201906040850190845b81811015612d4657835183529284019291840191600101612d2a565b50909695505050505050565b60208082526015908201527418d85b1b195c881b9bdd08185d5d1a1bdc9a5e9959605a1b604082015260600190565b60008219821115612d9457612d94612e0a565b500190565b600082612db457634e487b7160e01b81526012600452602481fd5b500490565b6000816000190483118215151615612dd357612dd3612e0a565b500290565b600082821015612dea57612dea612e0a565b500390565b6000600019821415612e0357612e03612e0a565b5060010190565b634e487b7160e01b600052601160045260246000fd5b6001600160a01b038116811461032857600080fd5b801515811461032857600080fdfea26469706673582212203fbcb52fd773df47cebbb8b943c0e599ebe8b114785b7dd31eaae7abf833d3cc64736f6c63430008040033",
					"opcodes": "PUSH1 0xC0 PUSH1 0x40 MSTORE PUSH1 0x0 PUSH1 0x2 SSTORE CALLVALUE DUP1 ISZERO PUSH3 0x16 JUMPI PUSH1 0x0 DUP1 REVERT JUMPDEST POP PUSH1 0x40 MLOAD PUSH3 0x3016 CODESIZE SUB DUP1 PUSH3 0x3016 DUP4 CODECOPY DUP2 ADD PUSH1 0x40 DUP2 SWAP1 MSTORE PUSH3 0x39 SWAP2 PUSH3 0x11C JUMP JUMPDEST PUSH1 0x1 PUSH1 0x0 DUP2 SWAP1 SSTORE PUSH1 0x80 DUP3 SWAP1 MSTORE DUP1 SLOAD CALLER PUSH1 0x1 PUSH1 0x1 PUSH1 0xA0 SHL SUB NOT SWAP2 DUP3 AND DUP2 OR SWAP1 SWAP3 SSTORE PUSH1 0xA DUP1 SLOAD SWAP1 SWAP2 AND DUP3 OR SWAP1 SSTORE PUSH1 0x40 DUP1 MLOAD PUSH3 0x966ED9 PUSH1 0xE3 SHL DUP2 MSTORE SWAP1 MLOAD PUSH4 0x4B376C8 SWAP2 PUSH1 0x4 DUP1 DUP3 ADD SWAP3 PUSH1 0x20 SWAP3 SWAP1 SWAP2 SWAP1 DUP3 SWAP1 SUB ADD DUP2 DUP7 DUP1 EXTCODESIZE ISZERO DUP1 ISZERO PUSH3 0x9A JUMPI PUSH1 0x0 DUP1 REVERT JUMPDEST POP GAS STATICCALL ISZERO DUP1 ISZERO PUSH3 0xAF JUMPI RETURNDATASIZE PUSH1 0x0 DUP1 RETURNDATACOPY RETURNDATASIZE PUSH1 0x0 REVERT JUMPDEST POP POP POP POP PUSH1 0x40 MLOAD RETURNDATASIZE PUSH1 0x1F NOT PUSH1 0x1F DUP3 ADD AND DUP3 ADD DUP1 PUSH1 0x40 MSTORE POP DUP2 ADD SWAP1 PUSH3 0xD5 SWAP2 SWAP1 PUSH3 0xEC JUMP JUMPDEST PUSH1 0x60 SHL PUSH1 0x1 PUSH1 0x1 PUSH1 0x60 SHL SUB NOT AND PUSH1 0xA0 MSTORE POP PUSH3 0x135 JUMP JUMPDEST PUSH1 0x0 PUSH1 0x20 DUP3 DUP5 SUB SLT ISZERO PUSH3 0xFE JUMPI DUP1 DUP2 REVERT JUMPDEST DUP2 MLOAD PUSH1 0x1 PUSH1 0x1 PUSH1 0xA0 SHL SUB DUP2 AND DUP2 EQ PUSH3 0x115 JUMPI DUP2 DUP3 REVERT JUMPDEST SWAP4 SWAP3 POP POP POP JUMP JUMPDEST PUSH1 0x0 PUSH1 0x20 DUP3 DUP5 SUB SLT ISZERO PUSH3 0x12E JUMPI DUP1 DUP2 REVERT JUMPDEST POP MLOAD SWAP2 SWAP1 POP JUMP JUMPDEST PUSH1 0x80 MLOAD PUSH1 0xA0 MLOAD PUSH1 0x60 SHR PUSH2 0x2E79 PUSH3 0x19D PUSH1 0x0 CODECOPY PUSH1 0x0 DUP2 DUP2 PUSH2 0x4D0 ADD MSTORE DUP2 DUP2 PUSH2 0x5F4 ADD MSTORE DUP2 DUP2 PUSH2 0x943 ADD MSTORE DUP2 DUP2 PUSH2 0xA30 ADD MSTORE PUSH2 0xBE4 ADD MSTORE PUSH1 0x0 DUP2 DUP2 PUSH2 0x201 ADD MSTORE DUP2 DUP2 PUSH2 0x10D9 ADD MSTORE DUP2 DUP2 PUSH2 0x122F ADD MSTORE DUP2 DUP2 PUSH2 0x138D ADD MSTORE DUP2 DUP2 PUSH2 0x1480 ADD MSTORE PUSH2 0x1596 ADD MSTORE PUSH2 0x2E79 PUSH1 0x0 RETURN INVALID PUSH1 0x80 PUSH1 0x40 MSTORE CALLVALUE DUP1 ISZERO PUSH2 0x10 JUMPI PUSH1 0x0 DUP1 REVERT JUMPDEST POP PUSH1 0x4 CALLDATASIZE LT PUSH2 0xF5 JUMPI PUSH1 0x0 CALLDATALOAD PUSH1 0xE0 SHR DUP1 PUSH4 0x7A47D494 GT PUSH2 0x97 JUMPI DUP1 PUSH4 0xBE9A6555 GT PUSH2 0x66 JUMPI DUP1 PUSH4 0xBE9A6555 EQ PUSH2 0x251 JUMPI DUP1 PUSH4 0xD0ED7295 EQ PUSH2 0x259 JUMPI DUP1 PUSH4 0xEA8A1AF0 EQ PUSH2 0x26C JUMPI DUP1 PUSH4 0xF8B2CB4F EQ PUSH2 0x274 JUMPI PUSH1 0x0 DUP1 REVERT JUMPDEST DUP1 PUSH4 0x7A47D494 EQ PUSH2 0x1FC JUMPI DUP1 PUSH4 0x7D7F9232 EQ PUSH2 0x223 JUMPI DUP1 PUSH4 0x8DF82800 EQ PUSH2 0x236 JUMPI DUP1 PUSH4 0xAE8CD090 EQ PUSH2 0x249 JUMPI PUSH1 0x0 DUP1 REVERT JUMPDEST DUP1 PUSH4 0x37E8C09E GT PUSH2 0xD3 JUMPI DUP1 PUSH4 0x37E8C09E EQ PUSH2 0x14B JUMPI DUP1 PUSH4 0x51CFF8D9 EQ PUSH2 0x1B3 JUMPI DUP1 PUSH4 0x675F6537 EQ PUSH2 0x1D6 JUMPI DUP1 PUSH4 0x78D65B2F EQ PUSH2 0x1E9 JUMPI PUSH1 0x0 DUP1 REVERT JUMPDEST DUP1 PUSH4 0x200D2ED2 EQ PUSH2 0xFA JUMPI DUP1 PUSH4 0x2940FF1E EQ PUSH2 0x116 JUMPI DUP1 PUSH4 0x2D56657D EQ PUSH2 0x12B JUMPI JUMPDEST PUSH1 0x0 DUP1 REVERT JUMPDEST PUSH2 0x103 PUSH1 0x2 SLOAD DUP2 JUMP JUMPDEST PUSH1 0x40 MLOAD SWAP1 DUP2 MSTORE PUSH1 0x20 ADD JUMPDEST PUSH1 0x40 MLOAD DUP1 SWAP2 SUB SWAP1 RETURN JUMPDEST PUSH2 0x129 PUSH2 0x124 CALLDATASIZE PUSH1 0x4 PUSH2 0x2CDE JUMP JUMPDEST PUSH2 0x29D JUMP JUMPDEST STOP JUMPDEST PUSH2 0x13E PUSH2 0x139 CALLDATASIZE PUSH1 0x4 PUSH2 0x2C1D JUMP JUMPDEST PUSH2 0x32B JUMP JUMPDEST PUSH1 0x40 MLOAD PUSH2 0x10D SWAP2 SWAP1 PUSH2 0x2D0E JUMP JUMPDEST PUSH2 0x15E PUSH2 0x159 CALLDATASIZE PUSH1 0x4 PUSH2 0x2CDE JUMP JUMPDEST PUSH2 0x397 JUMP JUMPDEST PUSH1 0x40 MLOAD PUSH2 0x10D SWAP2 SWAP1 DUP2 MLOAD PUSH1 0x1 PUSH1 0x1 PUSH1 0xA0 SHL SUB SWAP1 DUP2 AND DUP3 MSTORE PUSH1 0x20 DUP1 DUP5 ADD MLOAD SWAP1 SWAP2 AND SWAP1 DUP3 ADD MSTORE PUSH1 0x40 DUP1 DUP4 ADD MLOAD SWAP1 DUP3 ADD MSTORE PUSH1 0x60 DUP1 DUP4 ADD MLOAD SWAP1 DUP3 ADD MSTORE PUSH1 0x80 DUP1 DUP4 ADD MLOAD SWAP1 DUP3 ADD MSTORE PUSH1 0xA0 SWAP2 DUP3 ADD MLOAD SWAP2 DUP2 ADD SWAP2 SWAP1 SWAP2 MSTORE PUSH1 0xC0 ADD SWAP1 JUMP JUMPDEST PUSH2 0x1C6 PUSH2 0x1C1 CALLDATASIZE PUSH1 0x4 PUSH2 0x2C1D JUMP JUMPDEST PUSH2 0x447 JUMP JUMPDEST PUSH1 0x40 MLOAD SWAP1 ISZERO ISZERO DUP2 MSTORE PUSH1 0x20 ADD PUSH2 0x10D JUMP JUMPDEST PUSH2 0x129 PUSH2 0x1E4 CALLDATASIZE PUSH1 0x4 PUSH2 0x2CDE JUMP JUMPDEST PUSH2 0x714 JUMP JUMPDEST PUSH2 0x103 PUSH2 0x1F7 CALLDATASIZE PUSH1 0x4 PUSH2 0x2C5C JUMP JUMPDEST PUSH2 0x7E9 JUMP JUMPDEST PUSH2 0x103 PUSH32 0x0 DUP2 JUMP JUMPDEST PUSH2 0x129 PUSH2 0x231 CALLDATASIZE PUSH1 0x4 PUSH2 0x2CDE JUMP JUMPDEST PUSH2 0xFA4 JUMP JUMPDEST PUSH2 0x1C6 PUSH2 0x244 CALLDATASIZE PUSH1 0x4 PUSH2 0x2CDE JUMP JUMPDEST PUSH2 0x10C7 JUMP JUMPDEST PUSH2 0x1C6 PUSH2 0x121D JUMP JUMPDEST PUSH2 0x1C6 PUSH2 0x137B JUMP JUMPDEST PUSH2 0x1C6 PUSH2 0x267 CALLDATASIZE PUSH1 0x4 PUSH2 0x2CDE JUMP JUMPDEST PUSH2 0x146E JUMP JUMPDEST PUSH2 0x1C6 PUSH2 0x1584 JUMP JUMPDEST PUSH2 0x103 PUSH2 0x282 CALLDATASIZE PUSH1 0x4 PUSH2 0x2C1D JUMP JUMPDEST PUSH1 0x1 PUSH1 0x1 PUSH1 0xA0 SHL SUB AND PUSH1 0x0 SWAP1 DUP2 MSTORE PUSH1 0x5 PUSH1 0x20 MSTORE PUSH1 0x40 SWAP1 KECCAK256 SLOAD SWAP1 JUMP JUMPDEST PUSH1 0x0 DUP2 DUP2 MSTORE PUSH1 0x6 PUSH1 0x20 MSTORE PUSH1 0x40 SWAP1 KECCAK256 SLOAD PUSH1 0x1 PUSH1 0x1 PUSH1 0xA0 SHL SUB AND CALLER EQ PUSH2 0x2FE JUMPI PUSH1 0x40 MLOAD PUSH3 0x461BCD PUSH1 0xE5 SHL DUP2 MSTORE PUSH1 0x20 PUSH1 0x4 DUP3 ADD MSTORE PUSH1 0x13 PUSH1 0x24 DUP3 ADD MSTORE PUSH19 0x3AB730BABA3437B934BD32B21031B0B63632B9 PUSH1 0x69 SHL PUSH1 0x44 DUP3 ADD MSTORE PUSH1 0x64 ADD JUMPDEST PUSH1 0x40 MLOAD DUP1 SWAP2 SUB SWAP1 REVERT JUMPDEST PUSH1 0x2 SLOAD ISZERO DUP1 PUSH2 0x30F JUMPI POP PUSH1 0x2 SLOAD PUSH1 0x4 EQ JUMPDEST ISZERO PUSH2 0x31F JUMPI PUSH2 0x31D DUP2 PUSH2 0x1686 JUMP JUMPDEST POP JUMPDEST PUSH2 0x328 DUP2 PUSH2 0xFA4 JUMP JUMPDEST POP JUMP JUMPDEST PUSH1 0x1 PUSH1 0x1 PUSH1 0xA0 SHL SUB DUP2 AND PUSH1 0x0 SWAP1 DUP2 MSTORE PUSH1 0x7 PUSH1 0x20 SWAP1 DUP2 MSTORE PUSH1 0x40 SWAP2 DUP3 SWAP1 KECCAK256 DUP1 SLOAD DUP4 MLOAD DUP2 DUP5 MUL DUP2 ADD DUP5 ADD SWAP1 SWAP5 MSTORE DUP1 DUP5 MSTORE PUSH1 0x60 SWAP4 SWAP3 DUP4 ADD DUP3 DUP3 DUP1 ISZERO PUSH2 0x38B JUMPI PUSH1 0x20 MUL DUP3 ADD SWAP2 SWAP1 PUSH1 0x0 MSTORE PUSH1 0x20 PUSH1 0x0 KECCAK256 SWAP1 JUMPDEST DUP2 SLOAD DUP2 MSTORE PUSH1 0x20 ADD SWAP1 PUSH1 0x1 ADD SWAP1 DUP1 DUP4 GT PUSH2 0x377 JUMPI JUMPDEST POP POP POP POP POP SWAP1 POP SWAP2 SWAP1 POP JUMP JUMPDEST PUSH2 0x3E2 PUSH1 0x40 MLOAD DUP1 PUSH1 0xC0 ADD PUSH1 0x40 MSTORE DUP1 PUSH1 0x0 PUSH1 0x1 PUSH1 0x1 PUSH1 0xA0 SHL SUB AND DUP2 MSTORE PUSH1 0x20 ADD PUSH1 0x0 PUSH1 0x1 PUSH1 0x1 PUSH1 0xA0 SHL SUB AND DUP2 MSTORE PUSH1 0x20 ADD PUSH1 0x0 DUP2 MSTORE PUSH1 0x20 ADD PUSH1 0x0 DUP2 MSTORE PUSH1 0x20 ADD PUSH1 0x0 DUP2 MSTORE PUSH1 0x20 ADD PUSH1 0x0 DUP2 MSTORE POP SWAP1 JUMP JUMPDEST POP PUSH1 0x0 SWAP1 DUP2 MSTORE PUSH1 0x6 PUSH1 0x20 SWAP1 DUP2 MSTORE PUSH1 0x40 SWAP2 DUP3 SWAP1 KECCAK256 DUP3 MLOAD PUSH1 0xC0 DUP2 ADD DUP5 MSTORE DUP2 SLOAD PUSH1 0x1 PUSH1 0x1 PUSH1 0xA0 SHL SUB SWAP1 DUP2 AND DUP3 MSTORE PUSH1 0x1 DUP4 ADD SLOAD AND SWAP3 DUP2 ADD SWAP3 SWAP1 SWAP3 MSTORE PUSH1 0x2 DUP2 ADD SLOAD SWAP3 DUP3 ADD SWAP3 SWAP1 SWAP3 MSTORE PUSH1 0x3 DUP3 ADD SLOAD PUSH1 0x60 DUP3 ADD MSTORE PUSH1 0x4 DUP3 ADD SLOAD PUSH1 0x80 DUP3 ADD MSTORE PUSH1 0x5 SWAP1 SWAP2 ADD SLOAD PUSH1 0xA0 DUP3 ADD MSTORE SWAP1 JUMP JUMPDEST PUSH1 0x0 PUSH1 0x2 PUSH1 0x0 SLOAD EQ ISZERO PUSH2 0x49C JUMPI PUSH1 0x40 MLOAD PUSH3 0x461BCD PUSH1 0xE5 SHL DUP2 MSTORE PUSH1 0x20 PUSH1 0x4 DUP3 ADD MSTORE PUSH1 0x1F PUSH1 0x24 DUP3 ADD MSTORE PUSH32 0x5265656E7472616E637947756172643A207265656E7472616E742063616C6C00 PUSH1 0x44 DUP3 ADD MSTORE PUSH1 0x64 ADD PUSH2 0x2F5 JUMP JUMPDEST PUSH1 0x2 PUSH1 0x0 SWAP1 DUP2 SSTORE PUSH1 0x1 PUSH1 0x1 PUSH1 0xA0 SHL SUB DUP4 DUP2 AND DUP3 MSTORE PUSH1 0x5 PUSH1 0x20 MSTORE PUSH1 0x40 SWAP2 DUP3 SWAP1 KECCAK256 SLOAD SWAP2 MLOAD PUSH4 0x70A08231 PUSH1 0xE0 SHL DUP2 MSTORE ADDRESS PUSH1 0x4 DUP3 ADD MSTORE PUSH32 0x0 SWAP1 SWAP2 AND SWAP1 PUSH4 0x70A08231 SWAP1 PUSH1 0x24 ADD PUSH1 0x20 PUSH1 0x40 MLOAD DUP1 DUP4 SUB DUP2 DUP7 DUP1 EXTCODESIZE ISZERO DUP1 ISZERO PUSH2 0x514 JUMPI PUSH1 0x0 DUP1 REVERT JUMPDEST POP GAS STATICCALL ISZERO DUP1 ISZERO PUSH2 0x528 JUMPI RETURNDATASIZE PUSH1 0x0 DUP1 RETURNDATACOPY RETURNDATASIZE PUSH1 0x0 REVERT JUMPDEST POP POP POP POP PUSH1 0x40 MLOAD RETURNDATASIZE PUSH1 0x1F NOT PUSH1 0x1F DUP3 ADD AND DUP3 ADD DUP1 PUSH1 0x40 MSTORE POP DUP2 ADD SWAP1 PUSH2 0x54C SWAP2 SWAP1 PUSH2 0x2CF6 JUMP JUMPDEST LT ISZERO DUP1 ISZERO PUSH2 0x571 JUMPI POP PUSH1 0x1 PUSH1 0x1 PUSH1 0xA0 SHL SUB DUP3 AND PUSH1 0x0 SWAP1 DUP2 MSTORE PUSH1 0x5 PUSH1 0x20 MSTORE PUSH1 0x40 SWAP1 KECCAK256 SLOAD ISZERO ISZERO JUMPDEST PUSH2 0x5B4 JUMPI PUSH1 0x40 MLOAD PUSH3 0x461BCD PUSH1 0xE5 SHL DUP2 MSTORE PUSH1 0x20 PUSH1 0x4 DUP3 ADD MSTORE PUSH1 0x14 PUSH1 0x24 DUP3 ADD MSTORE PUSH20 0x7A65726F2076616C756520617661696C61626C65 PUSH1 0x60 SHL PUSH1 0x44 DUP3 ADD MSTORE PUSH1 0x64 ADD PUSH2 0x2F5 JUMP JUMPDEST PUSH1 0x1 PUSH1 0x1 PUSH1 0xA0 SHL SUB DUP3 DUP2 AND PUSH1 0x0 DUP2 DUP2 MSTORE PUSH1 0x5 PUSH1 0x20 MSTORE PUSH1 0x40 DUP1 DUP3 KECCAK256 DUP1 SLOAD SWAP1 DUP4 SWAP1 SSTORE SWAP1 MLOAD PUSH4 0xA9059CBB PUSH1 0xE0 SHL DUP2 MSTORE PUSH1 0x4 DUP2 ADD SWAP4 SWAP1 SWAP4 MSTORE PUSH1 0x24 DUP4 ADD DUP2 SWAP1 MSTORE SWAP3 SWAP1 SWAP2 PUSH32 0x0 SWAP1 SWAP2 AND SWAP1 PUSH4 0xA9059CBB SWAP1 PUSH1 0x44 ADD PUSH1 0x20 PUSH1 0x40 MLOAD DUP1 DUP4 SUB DUP2 PUSH1 0x0 DUP8 DUP1 EXTCODESIZE ISZERO DUP1 ISZERO PUSH2 0x63A JUMPI PUSH1 0x0 DUP1 REVERT JUMPDEST POP GAS CALL ISZERO DUP1 ISZERO PUSH2 0x64E JUMPI RETURNDATASIZE PUSH1 0x0 DUP1 RETURNDATACOPY RETURNDATASIZE PUSH1 0x0 REVERT JUMPDEST POP POP POP POP PUSH1 0x40 MLOAD RETURNDATASIZE PUSH1 0x1F NOT PUSH1 0x1F DUP3 ADD AND DUP3 ADD DUP1 PUSH1 0x40 MSTORE POP DUP2 ADD SWAP1 PUSH2 0x672 SWAP2 SWAP1 PUSH2 0x2CC2 JUMP JUMPDEST SWAP1 POP DUP1 PUSH2 0x6C1 JUMPI PUSH1 0x40 MLOAD PUSH3 0x461BCD PUSH1 0xE5 SHL DUP2 MSTORE PUSH1 0x20 PUSH1 0x4 DUP3 ADD MSTORE PUSH1 0x19 PUSH1 0x24 DUP3 ADD MSTORE PUSH32 0x7472616E7366657220746F2063616C6C6572206661696C656400000000000000 PUSH1 0x44 DUP3 ADD MSTORE PUSH1 0x64 ADD PUSH2 0x2F5 JUMP JUMPDEST PUSH1 0x40 DUP1 MLOAD PUSH1 0x1 PUSH1 0x1 PUSH1 0xA0 SHL SUB DUP7 AND DUP2 MSTORE PUSH1 0x20 DUP2 ADD DUP5 SWAP1 MSTORE PUSH32 0x884EDAD9CE6FA2440D8A54CC123490EB96D2768479D49FF9C7366125A9424364 SWAP2 ADD PUSH1 0x40 MLOAD DUP1 SWAP2 SUB SWAP1 LOG1 PUSH1 0x1 SWAP3 POP POP POP JUMPDEST PUSH1 0x1 PUSH1 0x0 SSTORE SWAP2 SWAP1 POP JUMP JUMPDEST PUSH1 0x0 DUP2 DUP2 MSTORE PUSH1 0x9 PUSH1 0x20 SWAP1 DUP2 MSTORE PUSH1 0x40 DUP1 DUP4 KECCAK256 DUP1 SLOAD DUP3 MLOAD DUP2 DUP6 MUL DUP2 ADD DUP6 ADD SWAP1 SWAP4 MSTORE DUP1 DUP4 MSTORE SWAP2 SWAP3 SWAP1 SWAP2 SWAP1 DUP4 ADD DUP3 DUP3 DUP1 ISZERO PUSH2 0x76A JUMPI PUSH1 0x20 MUL DUP3 ADD SWAP2 SWAP1 PUSH1 0x0 MSTORE PUSH1 0x20 PUSH1 0x0 KECCAK256 SWAP1 JUMPDEST DUP2 SLOAD DUP2 MSTORE PUSH1 0x20 ADD SWAP1 PUSH1 0x1 ADD SWAP1 DUP1 DUP4 GT PUSH2 0x756 JUMPI JUMPDEST POP POP DUP4 MLOAD SWAP4 SWAP5 POP PUSH1 0x0 SWAP3 POP POP POP JUMPDEST DUP2 DUP2 LT ISZERO PUSH2 0x7C3 JUMPI PUSH2 0x7B0 DUP4 DUP3 DUP2 MLOAD DUP2 LT PUSH2 0x7A3 JUMPI PUSH4 0x4E487B71 PUSH1 0xE0 SHL PUSH1 0x0 MSTORE PUSH1 0x32 PUSH1 0x4 MSTORE PUSH1 0x24 PUSH1 0x0 REVERT JUMPDEST PUSH1 0x20 MUL PUSH1 0x20 ADD ADD MLOAD PUSH2 0x1ECA JUMP JUMPDEST POP DUP1 PUSH2 0x7BB DUP2 PUSH2 0x2DEF JUMP JUMPDEST SWAP2 POP POP PUSH2 0x778 JUMP JUMPDEST POP CALLER PUSH1 0x0 SWAP1 DUP2 MSTORE PUSH1 0x5 PUSH1 0x20 MSTORE PUSH1 0x40 SWAP1 KECCAK256 SLOAD ISZERO PUSH2 0x7E4 JUMPI PUSH2 0x7E2 CALLER PUSH2 0x447 JUMP JUMPDEST POP JUMPDEST POP POP POP JUMP JUMPDEST PUSH1 0xA SLOAD PUSH1 0x40 MLOAD PUSH4 0x332DACCF PUSH1 0xE0 SHL DUP2 MSTORE CALLER PUSH1 0x4 DUP3 ADD MSTORE PUSH1 0x0 SWAP2 PUSH1 0x1 PUSH1 0x1 PUSH1 0xA0 SHL SUB AND SWAP1 PUSH4 0x332DACCF SWAP1 PUSH1 0x24 ADD PUSH1 0x20 PUSH1 0x40 MLOAD DUP1 DUP4 SUB DUP2 DUP7 DUP1 EXTCODESIZE ISZERO DUP1 ISZERO PUSH2 0x82D JUMPI PUSH1 0x0 DUP1 REVERT JUMPDEST POP GAS STATICCALL ISZERO DUP1 ISZERO PUSH2 0x841 JUMPI RETURNDATASIZE PUSH1 0x0 DUP1 RETURNDATACOPY RETURNDATASIZE PUSH1 0x0 REVERT JUMPDEST POP POP POP POP PUSH1 0x40 MLOAD RETURNDATASIZE PUSH1 0x1F NOT PUSH1 0x1F DUP3 ADD AND DUP3 ADD DUP1 PUSH1 0x40 MSTORE POP DUP2 ADD SWAP1 PUSH2 0x865 SWAP2 SWAP1 PUSH2 0x2CC2 JUMP JUMPDEST ISZERO PUSH2 0x89E JUMPI PUSH1 0x40 MLOAD PUSH3 0x461BCD PUSH1 0xE5 SHL DUP2 MSTORE PUSH1 0x20 PUSH1 0x4 DUP3 ADD MSTORE PUSH1 0x9 PUSH1 0x24 DUP3 ADD MSTORE PUSH9 0x189B1858DADB1A5CDD PUSH1 0xBA SHL PUSH1 0x44 DUP3 ADD MSTORE PUSH1 0x64 ADD PUSH2 0x2F5 JUMP JUMPDEST PUSH1 0x2 SLOAD ISZERO PUSH2 0x8E2 JUMPI PUSH1 0x40 MLOAD PUSH3 0x461BCD PUSH1 0xE5 SHL DUP2 MSTORE PUSH1 0x20 PUSH1 0x4 DUP3 ADD MSTORE PUSH1 0x11 PUSH1 0x24 DUP3 ADD MSTORE PUSH17 0x6D61726B6574206E6F7420616374697665 PUSH1 0x78 SHL PUSH1 0x44 DUP3 ADD MSTORE PUSH1 0x64 ADD PUSH2 0x2F5 JUMP JUMPDEST DUP3 PUSH1 0x1 EQ DUP1 PUSH2 0x8F1 JUMPI POP DUP3 PUSH1 0x2 EQ JUMPDEST PUSH2 0x92C JUMPI PUSH1 0x40 MLOAD PUSH3 0x461BCD PUSH1 0xE5 SHL DUP2 MSTORE PUSH1 0x20 PUSH1 0x4 DUP3 ADD MSTORE PUSH1 0xC PUSH1 0x24 DUP3 ADD MSTORE PUSH12 0x696E76616C69642073696465 PUSH1 0xA0 SHL PUSH1 0x44 DUP3 ADD MSTORE PUSH1 0x64 ADD PUSH2 0x2F5 JUMP JUMPDEST PUSH1 0x40 MLOAD PUSH4 0x70A08231 PUSH1 0xE0 SHL DUP2 MSTORE CALLER PUSH1 0x4 DUP3 ADD MSTORE DUP6 SWAP1 PUSH32 0x0 PUSH1 0x1 PUSH1 0x1 PUSH1 0xA0 SHL SUB AND SWAP1 PUSH4 0x70A08231 SWAP1 PUSH1 0x24 ADD PUSH1 0x20 PUSH1 0x40 MLOAD DUP1 DUP4 SUB DUP2 DUP7 DUP1 EXTCODESIZE ISZERO DUP1 ISZERO PUSH2 0x98D JUMPI PUSH1 0x0 DUP1 REVERT JUMPDEST POP GAS STATICCALL ISZERO DUP1 ISZERO PUSH2 0x9A1 JUMPI RETURNDATASIZE PUSH1 0x0 DUP1 RETURNDATACOPY RETURNDATASIZE PUSH1 0x0 REVERT JUMPDEST POP POP POP POP PUSH1 0x40 MLOAD RETURNDATASIZE PUSH1 0x1F NOT PUSH1 0x1F DUP3 ADD AND DUP3 ADD DUP1 PUSH1 0x40 MSTORE POP DUP2 ADD SWAP1 PUSH2 0x9C5 SWAP2 SWAP1 PUSH2 0x2CF6 JUMP JUMPDEST LT ISZERO PUSH2 0xA13 JUMPI PUSH1 0x40 MLOAD PUSH3 0x461BCD PUSH1 0xE5 SHL DUP2 MSTORE PUSH1 0x20 PUSH1 0x4 DUP3 ADD MSTORE PUSH1 0x19 PUSH1 0x24 DUP3 ADD MSTORE PUSH32 0x6E6F7420656E6F75676820746F6B656E2062616C616C6E636500000000000000 PUSH1 0x44 DUP3 ADD MSTORE PUSH1 0x64 ADD PUSH2 0x2F5 JUMP JUMPDEST PUSH1 0x40 MLOAD PUSH4 0x6EB1769F PUSH1 0xE1 SHL DUP2 MSTORE CALLER PUSH1 0x4 DUP3 ADD MSTORE ADDRESS PUSH1 0x24 DUP3 ADD MSTORE DUP6 SWAP1 PUSH32 0x0 PUSH1 0x1 PUSH1 0x1 PUSH1 0xA0 SHL SUB AND SWAP1 PUSH4 0xDD62ED3E SWAP1 PUSH1 0x44 ADD PUSH1 0x20 PUSH1 0x40 MLOAD DUP1 DUP4 SUB DUP2 DUP7 DUP1 EXTCODESIZE ISZERO DUP1 ISZERO PUSH2 0xA7A JUMPI PUSH1 0x0 DUP1 REVERT JUMPDEST POP GAS STATICCALL ISZERO DUP1 ISZERO PUSH2 0xA8E JUMPI RETURNDATASIZE PUSH1 0x0 DUP1 RETURNDATACOPY RETURNDATASIZE PUSH1 0x0 REVERT JUMPDEST POP POP POP POP PUSH1 0x40 MLOAD RETURNDATASIZE PUSH1 0x1F NOT PUSH1 0x1F DUP3 ADD AND DUP3 ADD DUP1 PUSH1 0x40 MSTORE POP DUP2 ADD SWAP1 PUSH2 0xAB2 SWAP2 SWAP1 PUSH2 0x2CF6 JUMP JUMPDEST LT ISZERO PUSH2 0xAF7 JUMPI PUSH1 0x40 MLOAD PUSH3 0x461BCD PUSH1 0xE5 SHL DUP2 MSTORE PUSH1 0x20 PUSH1 0x4 DUP3 ADD MSTORE PUSH1 0x14 PUSH1 0x24 DUP3 ADD MSTORE PUSH20 0x6E6F7420656E6F75676820616C6C6F77616E6365 PUSH1 0x60 SHL PUSH1 0x44 DUP3 ADD MSTORE PUSH1 0x64 ADD PUSH2 0x2F5 JUMP JUMPDEST PUSH1 0xA PUSH1 0x0 SWAP1 SLOAD SWAP1 PUSH2 0x100 EXP SWAP1 DIV PUSH1 0x1 PUSH1 0x1 PUSH1 0xA0 SHL SUB AND PUSH1 0x1 PUSH1 0x1 PUSH1 0xA0 SHL SUB AND PUSH4 0x375B3C0A PUSH1 0x40 MLOAD DUP2 PUSH4 0xFFFFFFFF AND PUSH1 0xE0 SHL DUP2 MSTORE PUSH1 0x4 ADD PUSH1 0x20 PUSH1 0x40 MLOAD DUP1 DUP4 SUB DUP2 DUP7 DUP1 EXTCODESIZE ISZERO DUP1 ISZERO PUSH2 0xB45 JUMPI PUSH1 0x0 DUP1 REVERT JUMPDEST POP GAS STATICCALL ISZERO DUP1 ISZERO PUSH2 0xB59 JUMPI RETURNDATASIZE PUSH1 0x0 DUP1 RETURNDATACOPY RETURNDATASIZE PUSH1 0x0 REVERT JUMPDEST POP POP POP POP PUSH1 0x40 MLOAD RETURNDATASIZE PUSH1 0x1F NOT PUSH1 0x1F DUP3 ADD AND DUP3 ADD DUP1 PUSH1 0x40 MSTORE POP DUP2 ADD SWAP1 PUSH2 0xB7D SWAP2 SWAP1 PUSH2 0x2CF6 JUMP JUMPDEST DUP6 LT ISZERO PUSH2 0xBC2 JUMPI PUSH1 0x40 MLOAD PUSH3 0x461BCD PUSH1 0xE5 SHL DUP2 MSTORE PUSH1 0x20 PUSH1 0x4 DUP3 ADD MSTORE PUSH1 0x13 PUSH1 0x24 DUP3 ADD MSTORE PUSH19 0x6C657373207468616E206D696E207374616B65 PUSH1 0x68 SHL PUSH1 0x44 DUP3 ADD MSTORE PUSH1 0x64 ADD PUSH2 0x2F5 JUMP JUMPDEST PUSH1 0x40 MLOAD PUSH4 0x23B872DD PUSH1 0xE0 SHL DUP2 MSTORE CALLER PUSH1 0x4 DUP3 ADD MSTORE ADDRESS PUSH1 0x24 DUP3 ADD MSTORE PUSH1 0x44 DUP2 ADD DUP7 SWAP1 MSTORE PUSH32 0x0 PUSH1 0x1 PUSH1 0x1 PUSH1 0xA0 SHL SUB AND SWAP1 PUSH4 0x23B872DD SWAP1 PUSH1 0x64 ADD PUSH1 0x20 PUSH1 0x40 MLOAD DUP1 DUP4 SUB DUP2 PUSH1 0x0 DUP8 DUP1 EXTCODESIZE ISZERO DUP1 ISZERO PUSH2 0xC30 JUMPI PUSH1 0x0 DUP1 REVERT JUMPDEST POP GAS CALL ISZERO DUP1 ISZERO PUSH2 0xC44 JUMPI RETURNDATASIZE PUSH1 0x0 DUP1 RETURNDATACOPY RETURNDATASIZE PUSH1 0x0 REVERT JUMPDEST POP POP POP POP PUSH1 0x40 MLOAD RETURNDATASIZE PUSH1 0x1F NOT PUSH1 0x1F DUP3 ADD AND DUP3 ADD DUP1 PUSH1 0x40 MSTORE POP DUP2 ADD SWAP1 PUSH2 0xC68 SWAP2 SWAP1 PUSH2 0x2CC2 JUMP JUMPDEST PUSH2 0xCB4 JUMPI PUSH1 0x40 MLOAD PUSH3 0x461BCD PUSH1 0xE5 SHL DUP2 MSTORE PUSH1 0x20 PUSH1 0x4 DUP3 ADD MSTORE PUSH1 0x1B PUSH1 0x24 DUP3 ADD MSTORE PUSH32 0x7472616E736665722066726F6D2063616C6C6572206661696C65640000000000 PUSH1 0x44 DUP3 ADD MSTORE PUSH1 0x64 ADD PUSH2 0x2F5 JUMP JUMPDEST PUSH1 0x0 PUSH2 0xCE3 DUP9 DUP9 DUP9 DUP5 PUSH2 0xCC8 PUSH1 0x64 DUP12 PUSH2 0x2DD8 JUMP JUMPDEST PUSH2 0xCD3 DUP12 PUSH1 0x64 PUSH2 0x2DB9 JUMP JUMPDEST PUSH2 0xCDD SWAP2 SWAP1 PUSH2 0x2D99 JUMP JUMPDEST DUP10 PUSH2 0x26BC JUMP JUMPDEST PUSH1 0x4 SLOAD SWAP1 SWAP2 POP ISZERO PUSH2 0xF44 JUMPI PUSH1 0x4 SLOAD DUP7 SWAP1 JUMPDEST PUSH1 0xA PUSH1 0x0 SWAP1 SLOAD SWAP1 PUSH2 0x100 EXP SWAP1 DIV PUSH1 0x1 PUSH1 0x1 PUSH1 0xA0 SHL SUB AND PUSH1 0x1 PUSH1 0x1 PUSH1 0xA0 SHL SUB AND PUSH4 0x375B3C0A PUSH1 0x40 MLOAD DUP2 PUSH4 0xFFFFFFFF AND PUSH1 0xE0 SHL DUP2 MSTORE PUSH1 0x4 ADD PUSH1 0x20 PUSH1 0x40 MLOAD DUP1 DUP4 SUB DUP2 DUP7 DUP1 EXTCODESIZE ISZERO DUP1 ISZERO PUSH2 0xD42 JUMPI PUSH1 0x0 DUP1 REVERT JUMPDEST POP GAS STATICCALL ISZERO DUP1 ISZERO PUSH2 0xD56 JUMPI RETURNDATASIZE PUSH1 0x0 DUP1 RETURNDATACOPY RETURNDATASIZE PUSH1 0x0 REVERT JUMPDEST POP POP POP POP PUSH1 0x40 MLOAD RETURNDATASIZE PUSH1 0x1F NOT PUSH1 0x1F DUP3 ADD AND DUP3 ADD DUP1 PUSH1 0x40 MSTORE POP DUP2 ADD SWAP1 PUSH2 0xD7A SWAP2 SWAP1 PUSH2 0x2CF6 JUMP JUMPDEST DUP3 LT PUSH2 0xF41 JUMPI PUSH1 0x0 DUP1 PUSH1 0x0 JUMPDEST DUP4 DUP2 LT ISZERO PUSH2 0xE2A JUMPI PUSH1 0x0 PUSH1 0x4 DUP3 DUP2 SLOAD DUP2 LT PUSH2 0xDB1 JUMPI PUSH4 0x4E487B71 PUSH1 0xE0 SHL PUSH1 0x0 MSTORE PUSH1 0x32 PUSH1 0x4 MSTORE PUSH1 0x24 PUSH1 0x0 REVERT JUMPDEST SWAP1 PUSH1 0x0 MSTORE PUSH1 0x20 PUSH1 0x0 KECCAK256 ADD SLOAD SWAP1 POP PUSH1 0x6 PUSH1 0x0 DUP3 DUP2 MSTORE PUSH1 0x20 ADD SWAP1 DUP2 MSTORE PUSH1 0x20 ADD PUSH1 0x0 KECCAK256 PUSH1 0x5 ADD SLOAD DUP11 EQ ISZERO PUSH2 0xDE2 JUMPI POP PUSH2 0xE18 JUMP JUMPDEST PUSH1 0x0 DUP2 DUP2 MSTORE PUSH1 0x6 PUSH1 0x20 MSTORE PUSH1 0x40 SWAP1 KECCAK256 PUSH1 0x4 ADD SLOAD DUP4 LT ISZERO PUSH2 0xE16 JUMPI PUSH1 0x0 DUP2 DUP2 MSTORE PUSH1 0x6 PUSH1 0x20 MSTORE PUSH1 0x40 SWAP1 KECCAK256 PUSH1 0x4 ADD SLOAD SWAP2 SWAP4 POP SWAP1 SWAP2 POP DUP3 SWAP1 JUMPDEST POP JUMPDEST DUP1 PUSH2 0xE22 DUP2 PUSH2 0x2DEF JUMP JUMPDEST SWAP2 POP POP PUSH2 0xD86 JUMP JUMPDEST POP PUSH1 0x0 DUP10 DUP3 GT DUP1 PUSH2 0xE43 JUMPI POP PUSH1 0x0 DUP3 GT DUP1 ISZERO PUSH2 0xE43 JUMPI POP DUP8 JUMPDEST ISZERO PUSH2 0xF25 JUMPI PUSH1 0x0 PUSH1 0x4 DUP5 DUP2 SLOAD DUP2 LT PUSH2 0xE6B JUMPI PUSH4 0x4E487B71 PUSH1 0xE0 SHL PUSH1 0x0 MSTORE PUSH1 0x32 PUSH1 0x4 MSTORE PUSH1 0x24 PUSH1 0x0 REVERT JUMPDEST PUSH1 0x0 SWAP2 DUP3 MSTORE PUSH1 0x20 DUP1 DUP4 KECCAK256 SWAP1 SWAP2 ADD SLOAD DUP1 DUP4 MSTORE PUSH1 0x6 DUP3 MSTORE PUSH1 0x40 DUP1 DUP5 KECCAK256 DUP2 MLOAD PUSH1 0xC0 DUP2 ADD DUP4 MSTORE DUP2 SLOAD PUSH1 0x1 PUSH1 0x1 PUSH1 0xA0 SHL SUB SWAP1 DUP2 AND DUP3 MSTORE PUSH1 0x1 DUP4 ADD SLOAD AND SWAP5 DUP2 ADD SWAP5 SWAP1 SWAP5 MSTORE PUSH1 0x2 DUP2 ADD SLOAD SWAP2 DUP5 ADD SWAP2 SWAP1 SWAP2 MSTORE PUSH1 0x3 DUP2 ADD SLOAD PUSH1 0x60 DUP5 ADD MSTORE PUSH1 0x4 DUP2 ADD SLOAD PUSH1 0x80 DUP5 ADD MSTORE PUSH1 0x5 ADD SLOAD PUSH1 0xA0 DUP4 ADD MSTORE SWAP3 POP SWAP1 PUSH2 0xEE0 PUSH1 0x64 DUP15 PUSH2 0x2DD8 JUMP JUMPDEST DUP3 PUSH1 0x60 ADD MLOAD DUP4 PUSH1 0x40 ADD MLOAD PUSH2 0xEF4 SWAP2 SWAP1 PUSH2 0x2DD8 JUMP JUMPDEST PUSH2 0xEFE SWAP2 SWAP1 PUSH2 0x2D99 JUMP JUMPDEST SWAP1 POP PUSH2 0xF0B PUSH1 0x64 DUP3 PUSH2 0x2DB9 JUMP JUMPDEST SWAP1 POP PUSH2 0xF1B DUP15 DUP3 DUP16 DUP16 DUP14 DUP9 PUSH2 0x28E1 JUMP JUMPDEST SWAP4 POP POP POP POP PUSH2 0xF2D JUMP JUMPDEST POP POP POP PUSH2 0xF41 JUMP JUMPDEST PUSH2 0xF37 DUP2 DUP7 PUSH2 0x2DD8 JUMP JUMPDEST SWAP5 POP POP POP POP PUSH2 0xCF4 JUMP JUMPDEST POP POP JUMPDEST PUSH1 0x40 DUP1 MLOAD CALLER DUP2 MSTORE ADDRESS PUSH1 0x20 DUP3 ADD MSTORE SWAP1 DUP2 ADD DUP3 SWAP1 MSTORE PUSH1 0x60 DUP2 ADD DUP8 SWAP1 MSTORE PUSH1 0x80 DUP2 ADD DUP7 SWAP1 MSTORE PUSH1 0xA0 DUP2 ADD DUP6 SWAP1 MSTORE PUSH32 0x618F358BB45538682ADE624A4A1959053D9DABD20FE300508034B879681B37BE SWAP1 PUSH1 0xC0 ADD PUSH1 0x40 MLOAD DUP1 SWAP2 SUB SWAP1 LOG1 SWAP8 SWAP7 POP POP POP POP POP POP POP JUMP JUMPDEST PUSH1 0x0 DUP2 DUP2 MSTORE PUSH1 0x6 PUSH1 0x20 SWAP1 DUP2 MSTORE PUSH1 0x40 SWAP2 DUP3 SWAP1 KECCAK256 DUP3 MLOAD PUSH1 0xC0 DUP2 ADD DUP5 MSTORE DUP2 SLOAD PUSH1 0x1 PUSH1 0x1 PUSH1 0xA0 SHL SUB SWAP1 DUP2 AND DUP1 DUP4 MSTORE PUSH1 0x1 DUP5 ADD SLOAD SWAP1 SWAP2 AND SWAP4 DUP3 ADD SWAP4 SWAP1 SWAP4 MSTORE PUSH1 0x2 DUP3 ADD SLOAD SWAP4 DUP2 ADD SWAP4 SWAP1 SWAP4 MSTORE PUSH1 0x3 DUP2 ADD SLOAD PUSH1 0x60 DUP5 ADD MSTORE PUSH1 0x4 DUP2 ADD SLOAD PUSH1 0x80 DUP5 ADD MSTORE PUSH1 0x5 ADD SLOAD PUSH1 0xA0 DUP4 ADD MSTORE CALLER EQ PUSH2 0x104A JUMPI PUSH1 0x40 MLOAD PUSH3 0x461BCD PUSH1 0xE5 SHL DUP2 MSTORE PUSH1 0x20 PUSH1 0x4 DUP3 ADD MSTORE PUSH1 0x13 PUSH1 0x24 DUP3 ADD MSTORE PUSH19 0x3AB730BABA3437B934BD32B21031B0B63632B9 PUSH1 0x69 SHL PUSH1 0x44 DUP3 ADD MSTORE PUSH1 0x64 ADD PUSH2 0x2F5 JUMP JUMPDEST PUSH1 0x0 DUP2 PUSH1 0x60 ADD MLOAD DUP3 PUSH1 0x40 ADD MLOAD PUSH2 0x1060 SWAP2 SWAP1 PUSH2 0x2DD8 JUMP JUMPDEST DUP3 MLOAD PUSH1 0x1 PUSH1 0x1 PUSH1 0xA0 SHL SUB AND PUSH1 0x0 SWAP1 DUP2 MSTORE PUSH1 0x5 PUSH1 0x20 MSTORE PUSH1 0x40 DUP2 KECCAK256 DUP1 SLOAD SWAP3 SWAP4 POP DUP4 SWAP3 SWAP1 SWAP2 SWAP1 PUSH2 0x108E SWAP1 DUP5 SWAP1 PUSH2 0x2D81 JUMP JUMPDEST SWAP1 SWAP2 SSTORE POP POP PUSH1 0x40 DUP1 DUP4 ADD MLOAD PUSH1 0x0 DUP6 DUP2 MSTORE PUSH1 0x6 PUSH1 0x20 SWAP1 DUP2 MSTORE DUP4 DUP3 KECCAK256 PUSH1 0x3 ADD SWAP3 SWAP1 SWAP3 SSTORE CALLER DUP2 MSTORE PUSH1 0x5 SWAP1 SWAP2 MSTORE KECCAK256 SLOAD ISZERO PUSH2 0x7E4 JUMPI PUSH2 0x7E2 CALLER PUSH2 0x447 JUMP JUMPDEST PUSH1 0xA SLOAD PUSH1 0x40 MLOAD PUSH4 0x1E558333 PUSH1 0xE3 SHL DUP2 MSTORE PUSH32 0x0 PUSH1 0x4 DUP3 ADD MSTORE PUSH1 0x0 SWAP2 PUSH1 0x1 PUSH1 0x1 PUSH1 0xA0 SHL SUB AND SWAP1 PUSH4 0xF2AC1998 SWAP1 PUSH1 0x24 ADD PUSH1 0x20 PUSH1 0x40 MLOAD DUP1 DUP4 SUB DUP2 DUP7 DUP1 EXTCODESIZE ISZERO DUP1 ISZERO PUSH2 0x112B JUMPI PUSH1 0x0 DUP1 REVERT JUMPDEST POP GAS STATICCALL ISZERO DUP1 ISZERO PUSH2 0x113F JUMPI RETURNDATASIZE PUSH1 0x0 DUP1 RETURNDATACOPY RETURNDATASIZE PUSH1 0x0 REVERT JUMPDEST POP POP POP POP PUSH1 0x40 MLOAD RETURNDATASIZE PUSH1 0x1F NOT PUSH1 0x1F DUP3 ADD AND DUP3 ADD DUP1 PUSH1 0x40 MSTORE POP DUP2 ADD SWAP1 PUSH2 0x1163 SWAP2 SWAP1 PUSH2 0x2C40 JUMP JUMPDEST PUSH1 0x1 PUSH1 0x1 PUSH1 0xA0 SHL SUB AND CALLER PUSH1 0x1 PUSH1 0x1 PUSH1 0xA0 SHL SUB AND EQ DUP1 PUSH2 0x118C JUMPI POP PUSH1 0x1 SLOAD PUSH1 0x1 PUSH1 0x1 PUSH1 0xA0 SHL SUB AND CALLER EQ JUMPDEST PUSH2 0x11A8 JUMPI PUSH1 0x40 MLOAD PUSH3 0x461BCD PUSH1 0xE5 SHL DUP2 MSTORE PUSH1 0x4 ADD PUSH2 0x2F5 SWAP1 PUSH2 0x2D52 JUMP JUMPDEST PUSH2 0x11B1 DUP3 PUSH2 0x146E JUMP JUMPDEST ISZERO PUSH2 0x1215 JUMPI PUSH1 0x3 SLOAD PUSH1 0x0 JUMPDEST DUP2 DUP2 LT ISZERO PUSH2 0x120B JUMPI PUSH2 0x11F8 PUSH1 0x3 DUP3 DUP2 SLOAD DUP2 LT PUSH2 0x11E8 JUMPI PUSH4 0x4E487B71 PUSH1 0xE0 SHL PUSH1 0x0 MSTORE PUSH1 0x32 PUSH1 0x4 MSTORE PUSH1 0x24 PUSH1 0x0 REVERT JUMPDEST SWAP1 PUSH1 0x0 MSTORE PUSH1 0x20 PUSH1 0x0 KECCAK256 ADD SLOAD PUSH2 0x1ECA JUMP JUMPDEST POP DUP1 PUSH2 0x1203 DUP2 PUSH2 0x2DEF JUMP JUMPDEST SWAP2 POP POP PUSH2 0x11BC JUMP JUMPDEST POP PUSH1 0x1 SWAP4 SWAP3 POP POP POP JUMP JUMPDEST POP PUSH1 0x0 SWAP2 SWAP1 POP JUMP JUMPDEST PUSH1 0xA SLOAD PUSH1 0x40 MLOAD PUSH4 0x1E558333 PUSH1 0xE3 SHL DUP2 MSTORE PUSH32 0x0 PUSH1 0x4 DUP3 ADD MSTORE PUSH1 0x0 SWAP2 PUSH1 0x1 PUSH1 0x1 PUSH1 0xA0 SHL SUB AND SWAP1 PUSH4 0xF2AC1998 SWAP1 PUSH1 0x24 ADD PUSH1 0x20 PUSH1 0x40 MLOAD DUP1 DUP4 SUB DUP2 DUP7 DUP1 EXTCODESIZE ISZERO DUP1 ISZERO PUSH2 0x1281 JUMPI PUSH1 0x0 DUP1 REVERT JUMPDEST POP GAS STATICCALL ISZERO DUP1 ISZERO PUSH2 0x1295 JUMPI RETURNDATASIZE PUSH1 0x0 DUP1 RETURNDATACOPY RETURNDATASIZE PUSH1 0x0 REVERT JUMPDEST POP POP POP POP PUSH1 0x40 MLOAD RETURNDATASIZE PUSH1 0x1F NOT PUSH1 0x1F DUP3 ADD AND DUP3 ADD DUP1 PUSH1 0x40 MSTORE POP DUP2 ADD SWAP1 PUSH2 0x12B9 SWAP2 SWAP1 PUSH2 0x2C40 JUMP JUMPDEST PUSH1 0x1 PUSH1 0x1 PUSH1 0xA0 SHL SUB AND CALLER PUSH1 0x1 PUSH1 0x1 PUSH1 0xA0 SHL SUB AND EQ DUP1 PUSH2 0x12E2 JUMPI POP PUSH1 0x1 SLOAD PUSH1 0x1 PUSH1 0x1 PUSH1 0xA0 SHL SUB AND CALLER EQ JUMPDEST PUSH2 0x12FE JUMPI PUSH1 0x40 MLOAD PUSH3 0x461BCD PUSH1 0xE5 SHL DUP2 MSTORE PUSH1 0x4 ADD PUSH2 0x2F5 SWAP1 PUSH2 0x2D52 JUMP JUMPDEST PUSH1 0x2 SLOAD ISZERO DUP1 PUSH2 0x130F JUMPI POP PUSH1 0x2 SLOAD PUSH1 0x4 EQ JUMPDEST ISZERO PUSH2 0x1375 JUMPI PUSH1 0x3 SLOAD PUSH1 0x0 JUMPDEST DUP2 DUP2 LT ISZERO PUSH2 0x1368 JUMPI PUSH2 0x1356 PUSH1 0x3 DUP3 DUP2 SLOAD DUP2 LT PUSH2 0x1346 JUMPI PUSH4 0x4E487B71 PUSH1 0xE0 SHL PUSH1 0x0 MSTORE PUSH1 0x32 PUSH1 0x4 MSTORE PUSH1 0x24 PUSH1 0x0 REVERT JUMPDEST SWAP1 PUSH1 0x0 MSTORE PUSH1 0x20 PUSH1 0x0 KECCAK256 ADD SLOAD PUSH2 0x2A2F JUMP JUMPDEST DUP1 PUSH2 0x1360 DUP2 PUSH2 0x2DEF JUMP JUMPDEST SWAP2 POP POP PUSH2 0x131A JUMP JUMPDEST POP POP PUSH1 0x3 PUSH1 0x2 SSTORE POP PUSH1 0x1 SWAP1 JUMP JUMPDEST POP PUSH1 0x0 SWAP1 JUMP JUMPDEST PUSH1 0xA SLOAD PUSH1 0x40 MLOAD PUSH4 0x1E558333 PUSH1 0xE3 SHL DUP2 MSTORE PUSH32 0x0 PUSH1 0x4 DUP3 ADD MSTORE PUSH1 0x0 SWAP2 PUSH1 0x1 PUSH1 0x1 PUSH1 0xA0 SHL SUB AND SWAP1 PUSH4 0xF2AC1998 SWAP1 PUSH1 0x24 ADD PUSH1 0x20 PUSH1 0x40 MLOAD DUP1 DUP4 SUB DUP2 DUP7 DUP1 EXTCODESIZE ISZERO DUP1 ISZERO PUSH2 0x13DF JUMPI PUSH1 0x0 DUP1 REVERT JUMPDEST POP GAS STATICCALL ISZERO DUP1 ISZERO PUSH2 0x13F3 JUMPI RETURNDATASIZE PUSH1 0x0 DUP1 RETURNDATACOPY RETURNDATASIZE PUSH1 0x0 REVERT JUMPDEST POP POP POP POP PUSH1 0x40 MLOAD RETURNDATASIZE PUSH1 0x1F NOT PUSH1 0x1F DUP3 ADD AND DUP3 ADD DUP1 PUSH1 0x40 MSTORE POP DUP2 ADD SWAP1 PUSH2 0x1417 SWAP2 SWAP1 PUSH2 0x2C40 JUMP JUMPDEST PUSH1 0x1 PUSH1 0x1 PUSH1 0xA0 SHL SUB AND CALLER PUSH1 0x1 PUSH1 0x1 PUSH1 0xA0 SHL SUB AND EQ DUP1 PUSH2 0x1440 JUMPI POP PUSH1 0x1 SLOAD PUSH1 0x1 PUSH1 0x1 PUSH1 0xA0 SHL SUB AND CALLER EQ JUMPDEST PUSH2 0x145C JUMPI PUSH1 0x40 MLOAD PUSH3 0x461BCD PUSH1 0xE5 SHL DUP2 MSTORE PUSH1 0x4 ADD PUSH2 0x2F5 SWAP1 PUSH2 0x2D52 JUMP JUMPDEST PUSH1 0x2 SLOAD PUSH2 0x1375 JUMPI POP PUSH1 0x4 PUSH1 0x2 SSTORE PUSH1 0x1 SWAP1 JUMP JUMPDEST PUSH1 0xA SLOAD PUSH1 0x40 MLOAD PUSH4 0x1E558333 PUSH1 0xE3 SHL DUP2 MSTORE PUSH32 0x0 PUSH1 0x4 DUP3 ADD MSTORE PUSH1 0x0 SWAP2 PUSH1 0x1 PUSH1 0x1 PUSH1 0xA0 SHL SUB AND SWAP1 PUSH4 0xF2AC1998 SWAP1 PUSH1 0x24 ADD PUSH1 0x20 PUSH1 0x40 MLOAD DUP1 DUP4 SUB DUP2 DUP7 DUP1 EXTCODESIZE ISZERO DUP1 ISZERO PUSH2 0x14D2 JUMPI PUSH1 0x0 DUP1 REVERT JUMPDEST POP GAS STATICCALL ISZERO DUP1 ISZERO PUSH2 0x14E6 JUMPI RETURNDATASIZE PUSH1 0x0 DUP1 RETURNDATACOPY RETURNDATASIZE PUSH1 0x0 REVERT JUMPDEST POP POP POP POP PUSH1 0x40 MLOAD RETURNDATASIZE PUSH1 0x1F NOT PUSH1 0x1F DUP3 ADD AND DUP3 ADD DUP1 PUSH1 0x40 MSTORE POP DUP2 ADD SWAP1 PUSH2 0x150A SWAP2 SWAP1 PUSH2 0x2C40 JUMP JUMPDEST PUSH1 0x1 PUSH1 0x1 PUSH1 0xA0 SHL SUB AND CALLER PUSH1 0x1 PUSH1 0x1 PUSH1 0xA0 SHL SUB AND EQ DUP1 PUSH2 0x1533 JUMPI POP PUSH1 0x1 SLOAD PUSH1 0x1 PUSH1 0x1 PUSH1 0xA0 SHL SUB AND CALLER EQ JUMPDEST PUSH2 0x154F JUMPI PUSH1 0x40 MLOAD PUSH3 0x461BCD PUSH1 0xE5 SHL DUP2 MSTORE PUSH1 0x4 ADD PUSH2 0x2F5 SWAP1 PUSH2 0x2D52 JUMP JUMPDEST PUSH1 0x2 SLOAD ISZERO DUP1 PUSH2 0x1560 JUMPI POP PUSH1 0x2 SLOAD PUSH1 0x4 EQ JUMPDEST DUP1 ISZERO PUSH2 0x1576 JUMPI POP DUP2 PUSH1 0x1 EQ DUP1 PUSH2 0x1576 JUMPI POP DUP2 PUSH1 0x2 EQ JUMPDEST ISZERO PUSH2 0x1215 JUMPI POP PUSH1 0x2 SSTORE PUSH1 0x1 SWAP1 JUMP JUMPDEST PUSH1 0xA SLOAD PUSH1 0x40 MLOAD PUSH4 0x1E558333 PUSH1 0xE3 SHL DUP2 MSTORE PUSH32 0x0 PUSH1 0x4 DUP3 ADD MSTORE PUSH1 0x0 SWAP2 PUSH1 0x1 PUSH1 0x1 PUSH1 0xA0 SHL SUB AND SWAP1 PUSH4 0xF2AC1998 SWAP1 PUSH1 0x24 ADD PUSH1 0x20 PUSH1 0x40 MLOAD DUP1 DUP4 SUB DUP2 DUP7 DUP1 EXTCODESIZE ISZERO DUP1 ISZERO PUSH2 0x15E8 JUMPI PUSH1 0x0 DUP1 REVERT JUMPDEST POP GAS STATICCALL ISZERO DUP1 ISZERO PUSH2 0x15FC JUMPI RETURNDATASIZE PUSH1 0x0 DUP1 RETURNDATACOPY RETURNDATASIZE PUSH1 0x0 REVERT JUMPDEST POP POP POP POP PUSH1 0x40 MLOAD RETURNDATASIZE PUSH1 0x1F NOT PUSH1 0x1F DUP3 ADD AND DUP3 ADD DUP1 PUSH1 0x40 MSTORE POP DUP2 ADD SWAP1 PUSH2 0x1620 SWAP2 SWAP1 PUSH2 0x2C40 JUMP JUMPDEST PUSH1 0x1 PUSH1 0x1 PUSH1 0xA0 SHL SUB AND CALLER PUSH1 0x1 PUSH1 0x1 PUSH1 0xA0 SHL SUB AND EQ DUP1 PUSH2 0x1649 JUMPI POP PUSH1 0x1 SLOAD PUSH1 0x1 PUSH1 0x1 PUSH1 0xA0 SHL SUB AND CALLER EQ JUMPDEST PUSH2 0x1665 JUMPI PUSH1 0x40 MLOAD PUSH3 0x461BCD PUSH1 0xE5 SHL DUP2 MSTORE PUSH1 0x4 ADD PUSH2 0x2F5 SWAP1 PUSH2 0x2D52 JUMP JUMPDEST PUSH1 0x2 SLOAD ISZERO DUP1 PUSH2 0x1676 JUMPI POP PUSH1 0x2 SLOAD PUSH1 0x4 EQ JUMPDEST ISZERO PUSH2 0x1375 JUMPI POP PUSH1 0x3 PUSH1 0x2 SSTORE PUSH1 0x1 SWAP1 JUMP JUMPDEST PUSH1 0x0 DUP2 DUP2 MSTORE PUSH1 0x6 PUSH1 0x20 SWAP1 DUP2 MSTORE PUSH1 0x40 DUP1 DUP4 KECCAK256 DUP2 MLOAD PUSH1 0xC0 DUP2 ADD DUP4 MSTORE DUP2 SLOAD PUSH1 0x1 PUSH1 0x1 PUSH1 0xA0 SHL SUB SWAP1 DUP2 AND DUP3 MSTORE PUSH1 0x1 DUP4 ADD SLOAD AND DUP2 DUP6 ADD MSTORE PUSH1 0x2 DUP3 ADD SLOAD DUP2 DUP5 ADD MSTORE PUSH1 0x3 DUP3 ADD SLOAD PUSH1 0x60 DUP3 ADD MSTORE PUSH1 0x4 DUP3 ADD SLOAD PUSH1 0x80 DUP3 ADD MSTORE PUSH1 0x5 SWAP1 SWAP2 ADD SLOAD PUSH1 0xA0 DUP3 ADD MSTORE DUP5 DUP5 MSTORE PUSH1 0x9 DUP4 MSTORE DUP2 DUP5 KECCAK256 DUP1 SLOAD DUP4 MLOAD DUP2 DUP7 MUL DUP2 ADD DUP7 ADD SWAP1 SWAP5 MSTORE DUP1 DUP5 MSTORE SWAP2 SWAP4 DUP6 SWAP4 SWAP3 SWAP1 DUP4 ADD DUP3 DUP3 DUP1 ISZERO PUSH2 0x1730 JUMPI PUSH1 0x20 MUL DUP3 ADD SWAP2 SWAP1 PUSH1 0x0 MSTORE PUSH1 0x20 PUSH1 0x0 KECCAK256 SWAP1 JUMPDEST DUP2 SLOAD DUP2 MSTORE PUSH1 0x20 ADD SWAP1 PUSH1 0x1 ADD SWAP1 DUP1 DUP4 GT PUSH2 0x171C JUMPI JUMPDEST POP POP DUP4 MLOAD SWAP4 SWAP5 POP PUSH1 0x0 SWAP3 POP POP POP JUMPDEST DUP2 DUP2 LT ISZERO PUSH2 0x1EBE JUMPI PUSH1 0x8 PUSH1 0x0 DUP5 DUP4 DUP2 MLOAD DUP2 LT PUSH2 0x176A JUMPI PUSH4 0x4E487B71 PUSH1 0xE0 SHL PUSH1 0x0 MSTORE PUSH1 0x32 PUSH1 0x4 MSTORE PUSH1 0x24 PUSH1 0x0 REVERT JUMPDEST PUSH1 0x20 SWAP1 DUP2 MUL SWAP2 SWAP1 SWAP2 ADD DUP2 ADD MLOAD DUP3 MSTORE DUP2 ADD SWAP2 SWAP1 SWAP2 MSTORE PUSH1 0x40 ADD PUSH1 0x0 KECCAK256 PUSH1 0x4 ADD SLOAD PUSH1 0xFF AND ISZERO PUSH2 0x1795 JUMPI PUSH2 0x1EAC JUMP JUMPDEST PUSH1 0x0 DUP1 PUSH1 0x0 DUP1 DUP8 PUSH1 0xA0 ADD MLOAD PUSH1 0x1 EQ ISZERO PUSH2 0x186D JUMPI PUSH1 0x8 PUSH1 0x0 DUP9 DUP8 DUP2 MLOAD DUP2 LT PUSH2 0x17CC JUMPI PUSH4 0x4E487B71 PUSH1 0xE0 SHL PUSH1 0x0 MSTORE PUSH1 0x32 PUSH1 0x4 MSTORE PUSH1 0x24 PUSH1 0x0 REVERT JUMPDEST PUSH1 0x20 MUL PUSH1 0x20 ADD ADD MLOAD DUP2 MSTORE PUSH1 0x20 ADD SWAP1 DUP2 MSTORE PUSH1 0x20 ADD PUSH1 0x0 KECCAK256 PUSH1 0x2 ADD SLOAD SWAP2 POP PUSH1 0x8 PUSH1 0x0 DUP9 DUP8 DUP2 MLOAD DUP2 LT PUSH2 0x180C JUMPI PUSH4 0x4E487B71 PUSH1 0xE0 SHL PUSH1 0x0 MSTORE PUSH1 0x32 PUSH1 0x4 MSTORE PUSH1 0x24 PUSH1 0x0 REVERT JUMPDEST PUSH1 0x20 MUL PUSH1 0x20 ADD ADD MLOAD DUP2 MSTORE PUSH1 0x20 ADD SWAP1 DUP2 MSTORE PUSH1 0x20 ADD PUSH1 0x0 KECCAK256 PUSH1 0x1 ADD SLOAD SWAP4 POP PUSH1 0x8 PUSH1 0x0 DUP9 DUP8 DUP2 MLOAD DUP2 LT PUSH2 0x184C JUMPI PUSH4 0x4E487B71 PUSH1 0xE0 SHL PUSH1 0x0 MSTORE PUSH1 0x32 PUSH1 0x4 MSTORE PUSH1 0x24 PUSH1 0x0 REVERT JUMPDEST PUSH1 0x20 MUL PUSH1 0x20 ADD ADD MLOAD DUP2 MSTORE PUSH1 0x20 ADD SWAP1 DUP2 MSTORE PUSH1 0x20 ADD PUSH1 0x0 KECCAK256 PUSH1 0x3 ADD SLOAD SWAP3 POP PUSH2 0x193B JUMP JUMPDEST DUP8 PUSH1 0xA0 ADD MLOAD PUSH1 0x2 EQ ISZERO PUSH2 0x193B JUMPI PUSH1 0x8 PUSH1 0x0 DUP9 DUP8 DUP2 MLOAD DUP2 LT PUSH2 0x189E JUMPI PUSH4 0x4E487B71 PUSH1 0xE0 SHL PUSH1 0x0 MSTORE PUSH1 0x32 PUSH1 0x4 MSTORE PUSH1 0x24 PUSH1 0x0 REVERT JUMPDEST PUSH1 0x20 MUL PUSH1 0x20 ADD ADD MLOAD DUP2 MSTORE PUSH1 0x20 ADD SWAP1 DUP2 MSTORE PUSH1 0x20 ADD PUSH1 0x0 KECCAK256 PUSH1 0x3 ADD SLOAD SWAP2 POP PUSH1 0x8 PUSH1 0x0 DUP9 DUP8 DUP2 MLOAD DUP2 LT PUSH2 0x18DE JUMPI PUSH4 0x4E487B71 PUSH1 0xE0 SHL PUSH1 0x0 MSTORE PUSH1 0x32 PUSH1 0x4 MSTORE PUSH1 0x24 PUSH1 0x0 REVERT JUMPDEST PUSH1 0x20 MUL PUSH1 0x20 ADD ADD MLOAD DUP2 MSTORE PUSH1 0x20 ADD SWAP1 DUP2 MSTORE PUSH1 0x20 ADD PUSH1 0x0 KECCAK256 PUSH1 0x0 ADD SLOAD SWAP4 POP PUSH1 0x8 PUSH1 0x0 DUP9 DUP8 DUP2 MLOAD DUP2 LT PUSH2 0x191E JUMPI PUSH4 0x4E487B71 PUSH1 0xE0 SHL PUSH1 0x0 MSTORE PUSH1 0x32 PUSH1 0x4 MSTORE PUSH1 0x24 PUSH1 0x0 REVERT JUMPDEST PUSH1 0x20 MUL PUSH1 0x20 ADD ADD MLOAD DUP2 MSTORE PUSH1 0x20 ADD SWAP1 DUP2 MSTORE PUSH1 0x20 ADD PUSH1 0x0 KECCAK256 PUSH1 0x2 ADD SLOAD SWAP3 POP JUMPDEST POP PUSH1 0x0 DUP4 DUP2 MSTORE PUSH1 0x6 PUSH1 0x20 SWAP1 DUP2 MSTORE PUSH1 0x40 SWAP2 DUP3 SWAP1 KECCAK256 SLOAD PUSH1 0xA SLOAD DUP4 MLOAD PUSH4 0x55C4A8BF PUSH1 0xE0 SHL DUP2 MSTORE SWAP4 MLOAD PUSH1 0x1 PUSH1 0x1 PUSH1 0xA0 SHL SUB SWAP3 DUP4 AND SWAP5 PUSH1 0x64 SWAP5 SWAP4 SWAP1 SWAP3 AND SWAP3 PUSH4 0x55C4A8BF SWAP3 PUSH1 0x4 DUP1 DUP3 ADD SWAP4 SWAP2 DUP3 SWAP1 SUB ADD DUP2 DUP7 DUP1 EXTCODESIZE ISZERO DUP1 ISZERO PUSH2 0x1995 JUMPI PUSH1 0x0 DUP1 REVERT JUMPDEST POP GAS STATICCALL ISZERO DUP1 ISZERO PUSH2 0x19A9 JUMPI RETURNDATASIZE PUSH1 0x0 DUP1 RETURNDATACOPY RETURNDATASIZE PUSH1 0x0 REVERT JUMPDEST POP POP POP POP PUSH1 0x40 MLOAD RETURNDATASIZE PUSH1 0x1F NOT PUSH1 0x1F DUP3 ADD AND DUP3 ADD DUP1 PUSH1 0x40 MSTORE POP DUP2 ADD SWAP1 PUSH2 0x19CD SWAP2 SWAP1 PUSH2 0x2CF6 JUMP JUMPDEST PUSH2 0x19D8 SWAP1 PUSH1 0x64 PUSH2 0x2DD8 JUMP JUMPDEST PUSH2 0x19E2 SWAP1 DUP5 PUSH2 0x2DB9 JUMP JUMPDEST PUSH2 0x19EC SWAP2 SWAP1 PUSH2 0x2D99 JUMP JUMPDEST DUP9 MLOAD PUSH1 0x1 PUSH1 0x1 PUSH1 0xA0 SHL SUB AND PUSH1 0x0 SWAP1 DUP2 MSTORE PUSH1 0x5 PUSH1 0x20 MSTORE PUSH1 0x40 DUP2 KECCAK256 DUP1 SLOAD SWAP1 SWAP2 SWAP1 PUSH2 0x1A15 SWAP1 DUP5 SWAP1 PUSH2 0x2D81 JUMP JUMPDEST SWAP1 SWAP2 SSTORE POP POP PUSH1 0x0 DUP5 DUP2 MSTORE PUSH1 0x6 PUSH1 0x20 MSTORE PUSH1 0x40 DUP2 KECCAK256 PUSH1 0x3 ADD DUP1 SLOAD DUP6 SWAP3 SWAP1 PUSH2 0x1A3B SWAP1 DUP5 SWAP1 PUSH2 0x2DD8 JUMP JUMPDEST SWAP3 POP POP DUP2 SWAP1 SSTORE POP PUSH1 0x0 PUSH1 0x64 PUSH1 0xA PUSH1 0x0 SWAP1 SLOAD SWAP1 PUSH2 0x100 EXP SWAP1 DIV PUSH1 0x1 PUSH1 0x1 PUSH1 0xA0 SHL SUB AND PUSH1 0x1 PUSH1 0x1 PUSH1 0xA0 SHL SUB AND PUSH4 0x55C4A8BF PUSH1 0x40 MLOAD DUP2 PUSH4 0xFFFFFFFF AND PUSH1 0xE0 SHL DUP2 MSTORE PUSH1 0x4 ADD PUSH1 0x20 PUSH1 0x40 MLOAD DUP1 DUP4 SUB DUP2 DUP7 DUP1 EXTCODESIZE ISZERO DUP1 ISZERO PUSH2 0x1A94 JUMPI PUSH1 0x0 DUP1 REVERT JUMPDEST POP GAS STATICCALL ISZERO DUP1 ISZERO PUSH2 0x1AA8 JUMPI RETURNDATASIZE PUSH1 0x0 DUP1 RETURNDATACOPY RETURNDATASIZE PUSH1 0x0 REVERT JUMPDEST POP POP POP POP PUSH1 0x40 MLOAD RETURNDATASIZE PUSH1 0x1F NOT PUSH1 0x1F DUP3 ADD AND DUP3 ADD DUP1 PUSH1 0x40 MSTORE POP DUP2 ADD SWAP1 PUSH2 0x1ACC SWAP2 SWAP1 PUSH2 0x2CF6 JUMP JUMPDEST PUSH2 0x1AD6 SWAP1 DUP6 PUSH2 0x2DB9 JUMP JUMPDEST PUSH2 0x1AE0 SWAP2 SWAP1 PUSH2 0x2D99 JUMP JUMPDEST SWAP1 POP PUSH1 0x64 PUSH1 0xA PUSH1 0x0 SWAP1 SLOAD SWAP1 PUSH2 0x100 EXP SWAP1 DIV PUSH1 0x1 PUSH1 0x1 PUSH1 0xA0 SHL SUB AND PUSH1 0x1 PUSH1 0x1 PUSH1 0xA0 SHL SUB AND PUSH4 0x6A0CCD9D PUSH1 0x40 MLOAD DUP2 PUSH4 0xFFFFFFFF AND PUSH1 0xE0 SHL DUP2 MSTORE PUSH1 0x4 ADD PUSH1 0x20 PUSH1 0x40 MLOAD DUP1 DUP4 SUB DUP2 DUP7 DUP1 EXTCODESIZE ISZERO DUP1 ISZERO PUSH2 0x1B32 JUMPI PUSH1 0x0 DUP1 REVERT JUMPDEST POP GAS STATICCALL ISZERO DUP1 ISZERO PUSH2 0x1B46 JUMPI RETURNDATASIZE PUSH1 0x0 DUP1 RETURNDATACOPY RETURNDATASIZE PUSH1 0x0 REVERT JUMPDEST POP POP POP POP PUSH1 0x40 MLOAD RETURNDATASIZE PUSH1 0x1F NOT PUSH1 0x1F DUP3 ADD AND DUP3 ADD DUP1 PUSH1 0x40 MSTORE POP DUP2 ADD SWAP1 PUSH2 0x1B6A SWAP2 SWAP1 PUSH2 0x2CF6 JUMP JUMPDEST PUSH2 0x1B74 SWAP1 DUP4 PUSH2 0x2DB9 JUMP JUMPDEST PUSH2 0x1B7E SWAP2 SWAP1 PUSH2 0x2D99 JUMP JUMPDEST PUSH1 0x5 PUSH1 0x0 PUSH1 0xA PUSH1 0x0 SWAP1 SLOAD SWAP1 PUSH2 0x100 EXP SWAP1 DIV PUSH1 0x1 PUSH1 0x1 PUSH1 0xA0 SHL SUB AND PUSH1 0x1 PUSH1 0x1 PUSH1 0xA0 SHL SUB AND PUSH4 0xB7640A54 PUSH1 0x40 MLOAD DUP2 PUSH4 0xFFFFFFFF AND PUSH1 0xE0 SHL DUP2 MSTORE PUSH1 0x4 ADD PUSH1 0x20 PUSH1 0x40 MLOAD DUP1 DUP4 SUB DUP2 DUP7 DUP1 EXTCODESIZE ISZERO DUP1 ISZERO PUSH2 0x1BD0 JUMPI PUSH1 0x0 DUP1 REVERT JUMPDEST POP GAS STATICCALL ISZERO DUP1 ISZERO PUSH2 0x1BE4 JUMPI RETURNDATASIZE PUSH1 0x0 DUP1 RETURNDATACOPY RETURNDATASIZE PUSH1 0x0 REVERT JUMPDEST POP POP POP POP PUSH1 0x40 MLOAD RETURNDATASIZE PUSH1 0x1F NOT PUSH1 0x1F DUP3 ADD AND DUP3 ADD DUP1 PUSH1 0x40 MSTORE POP DUP2 ADD SWAP1 PUSH2 0x1C08 SWAP2 SWAP1 PUSH2 0x2C40 JUMP JUMPDEST PUSH1 0x1 PUSH1 0x1 PUSH1 0xA0 SHL SUB AND PUSH1 0x1 PUSH1 0x1 PUSH1 0xA0 SHL SUB AND DUP2 MSTORE PUSH1 0x20 ADD SWAP1 DUP2 MSTORE PUSH1 0x20 ADD PUSH1 0x0 KECCAK256 PUSH1 0x0 DUP3 DUP3 SLOAD PUSH2 0x1C37 SWAP2 SWAP1 PUSH2 0x2D81 JUMP JUMPDEST SWAP1 SWAP2 SSTORE POP POP PUSH1 0xA SLOAD PUSH1 0x40 DUP1 MLOAD PUSH4 0x28576D45 PUSH1 0xE0 SHL DUP2 MSTORE SWAP1 MLOAD PUSH1 0x64 SWAP3 PUSH1 0x1 PUSH1 0x1 PUSH1 0xA0 SHL SUB AND SWAP2 PUSH4 0x28576D45 SWAP2 PUSH1 0x4 DUP1 DUP4 ADD SWAP3 PUSH1 0x20 SWAP3 SWAP2 SWAP1 DUP3 SWAP1 SUB ADD DUP2 DUP7 DUP1 EXTCODESIZE ISZERO DUP1 ISZERO PUSH2 0x1C81 JUMPI PUSH1 0x0 DUP1 REVERT JUMPDEST POP GAS STATICCALL ISZERO DUP1 ISZERO PUSH2 0x1C95 JUMPI RETURNDATASIZE PUSH1 0x0 DUP1 RETURNDATACOPY RETURNDATASIZE PUSH1 0x0 REVERT JUMPDEST POP POP POP POP PUSH1 0x40 MLOAD RETURNDATASIZE PUSH1 0x1F NOT PUSH1 0x1F DUP3 ADD AND DUP3 ADD DUP1 PUSH1 0x40 MSTORE POP DUP2 ADD SWAP1 PUSH2 0x1CB9 SWAP2 SWAP1 PUSH2 0x2CF6 JUMP JUMPDEST PUSH2 0x1CC3 SWAP1 DUP4 PUSH2 0x2DB9 JUMP JUMPDEST PUSH2 0x1CCD SWAP2 SWAP1 PUSH2 0x2D99 JUMP JUMPDEST PUSH1 0x5 PUSH1 0x0 PUSH1 0xA PUSH1 0x0 SWAP1 SLOAD SWAP1 PUSH2 0x100 EXP SWAP1 DIV PUSH1 0x1 PUSH1 0x1 PUSH1 0xA0 SHL SUB AND PUSH1 0x1 PUSH1 0x1 PUSH1 0xA0 SHL SUB AND PUSH4 0x9953B2F PUSH1 0x40 MLOAD DUP2 PUSH4 0xFFFFFFFF AND PUSH1 0xE0 SHL DUP2 MSTORE PUSH1 0x4 ADD PUSH1 0x20 PUSH1 0x40 MLOAD DUP1 DUP4 SUB DUP2 DUP7 DUP1 EXTCODESIZE ISZERO DUP1 ISZERO PUSH2 0x1D1F JUMPI PUSH1 0x0 DUP1 REVERT JUMPDEST POP GAS STATICCALL ISZERO DUP1 ISZERO PUSH2 0x1D33 JUMPI RETURNDATASIZE PUSH1 0x0 DUP1 RETURNDATACOPY RETURNDATASIZE PUSH1 0x0 REVERT JUMPDEST POP POP POP POP PUSH1 0x40 MLOAD RETURNDATASIZE PUSH1 0x1F NOT PUSH1 0x1F DUP3 ADD AND DUP3 ADD DUP1 PUSH1 0x40 MSTORE POP DUP2 ADD SWAP1 PUSH2 0x1D57 SWAP2 SWAP1 PUSH2 0x2C40 JUMP JUMPDEST PUSH1 0x1 PUSH1 0x1 PUSH1 0xA0 SHL SUB AND PUSH1 0x1 PUSH1 0x1 PUSH1 0xA0 SHL SUB AND DUP2 MSTORE PUSH1 0x20 ADD SWAP1 DUP2 MSTORE PUSH1 0x20 ADD PUSH1 0x0 KECCAK256 PUSH1 0x0 DUP3 DUP3 SLOAD PUSH2 0x1D86 SWAP2 SWAP1 PUSH2 0x2D81 JUMP JUMPDEST SWAP1 SWAP2 SSTORE POP POP PUSH1 0xA SLOAD PUSH1 0x40 DUP1 MLOAD PUSH4 0x15334697 PUSH1 0xE2 SHL DUP2 MSTORE SWAP1 MLOAD PUSH1 0x64 SWAP3 PUSH1 0x1 PUSH1 0x1 PUSH1 0xA0 SHL SUB AND SWAP2 PUSH4 0x54CD1A5C SWAP2 PUSH1 0x4 DUP1 DUP4 ADD SWAP3 PUSH1 0x20 SWAP3 SWAP2 SWAP1 DUP3 SWAP1 SUB ADD DUP2 DUP7 DUP1 EXTCODESIZE ISZERO DUP1 ISZERO PUSH2 0x1DD0 JUMPI PUSH1 0x0 DUP1 REVERT JUMPDEST POP GAS STATICCALL ISZERO DUP1 ISZERO PUSH2 0x1DE4 JUMPI RETURNDATASIZE PUSH1 0x0 DUP1 RETURNDATACOPY RETURNDATASIZE PUSH1 0x0 REVERT JUMPDEST POP POP POP POP PUSH1 0x40 MLOAD RETURNDATASIZE PUSH1 0x1F NOT PUSH1 0x1F DUP3 ADD AND DUP3 ADD DUP1 PUSH1 0x40 MSTORE POP DUP2 ADD SWAP1 PUSH2 0x1E08 SWAP2 SWAP1 PUSH2 0x2CF6 JUMP JUMPDEST PUSH2 0x1E12 SWAP1 DUP4 PUSH2 0x2DB9 JUMP JUMPDEST PUSH2 0x1E1C SWAP2 SWAP1 PUSH2 0x2D99 JUMP JUMPDEST PUSH1 0x20 DUP1 DUP12 ADD MLOAD PUSH1 0x1 PUSH1 0x1 PUSH1 0xA0 SHL SUB AND PUSH1 0x0 SWAP1 DUP2 MSTORE PUSH1 0x5 SWAP1 SWAP2 MSTORE PUSH1 0x40 DUP2 KECCAK256 DUP1 SLOAD SWAP1 SWAP2 SWAP1 PUSH2 0x1E49 SWAP1 DUP5 SWAP1 PUSH2 0x2D81 JUMP JUMPDEST SWAP3 POP POP DUP2 SWAP1 SSTORE POP PUSH1 0x1 PUSH1 0x8 PUSH1 0x0 DUP11 DUP10 DUP2 MLOAD DUP2 LT PUSH2 0x1E76 JUMPI PUSH4 0x4E487B71 PUSH1 0xE0 SHL PUSH1 0x0 MSTORE PUSH1 0x32 PUSH1 0x4 MSTORE PUSH1 0x24 PUSH1 0x0 REVERT JUMPDEST PUSH1 0x20 MUL PUSH1 0x20 ADD ADD MLOAD DUP2 MSTORE PUSH1 0x20 ADD SWAP1 DUP2 MSTORE PUSH1 0x20 ADD PUSH1 0x0 KECCAK256 PUSH1 0x4 ADD PUSH1 0x0 PUSH2 0x100 EXP DUP2 SLOAD DUP2 PUSH1 0xFF MUL NOT AND SWAP1 DUP4 ISZERO ISZERO MUL OR SWAP1 SSTORE POP POP POP POP POP POP JUMPDEST DUP1 PUSH2 0x1EB6 DUP2 PUSH2 0x2DEF JUMP JUMPDEST SWAP2 POP POP PUSH2 0x173E JUMP JUMPDEST POP PUSH1 0x1 SWAP6 SWAP5 POP POP POP POP POP JUMP JUMPDEST PUSH1 0x0 PUSH1 0x2 PUSH1 0x0 SLOAD EQ ISZERO PUSH2 0x1F1F JUMPI PUSH1 0x40 MLOAD PUSH3 0x461BCD PUSH1 0xE5 SHL DUP2 MSTORE PUSH1 0x20 PUSH1 0x4 DUP3 ADD MSTORE PUSH1 0x1F PUSH1 0x24 DUP3 ADD MSTORE PUSH32 0x5265656E7472616E637947756172643A207265656E7472616E742063616C6C00 PUSH1 0x44 DUP3 ADD MSTORE PUSH1 0x64 ADD PUSH2 0x2F5 JUMP JUMPDEST PUSH1 0x2 PUSH1 0x0 SWAP1 DUP2 SSTORE DUP3 DUP2 MSTORE PUSH1 0x8 PUSH1 0x20 MSTORE PUSH1 0x40 SWAP1 KECCAK256 PUSH1 0x4 ADD SLOAD PUSH1 0xFF AND ISZERO PUSH2 0x1F46 JUMPI POP PUSH1 0x0 PUSH2 0x70A JUMP JUMPDEST PUSH1 0x0 DUP1 PUSH1 0x0 DUP1 PUSH1 0x2 SLOAD PUSH1 0x1 EQ ISZERO PUSH2 0x2120 JUMPI PUSH1 0x0 DUP7 DUP2 MSTORE PUSH1 0x8 PUSH1 0x20 SWAP1 DUP2 MSTORE PUSH1 0x40 DUP1 DUP4 KECCAK256 SLOAD DUP4 MSTORE PUSH1 0x6 DUP3 MSTORE SWAP2 DUP3 SWAP1 KECCAK256 SLOAD PUSH1 0xA SLOAD DUP4 MLOAD PUSH4 0x55C4A8BF PUSH1 0xE0 SHL DUP2 MSTORE SWAP4 MLOAD PUSH1 0x1 PUSH1 0x1 PUSH1 0xA0 SHL SUB SWAP3 DUP4 AND SWAP9 POP PUSH1 0x64 SWAP5 SWAP2 SWAP1 SWAP3 AND SWAP3 PUSH4 0x55C4A8BF SWAP3 PUSH1 0x4 DUP1 DUP5 ADD SWAP4 DUP3 SWAP1 SUB ADD DUP2 DUP7 DUP1 EXTCODESIZE ISZERO DUP1 ISZERO PUSH2 0x1FBA JUMPI PUSH1 0x0 DUP1 REVERT JUMPDEST POP GAS STATICCALL ISZERO DUP1 ISZERO PUSH2 0x1FCE JUMPI RETURNDATASIZE PUSH1 0x0 DUP1 RETURNDATACOPY RETURNDATASIZE PUSH1 0x0 REVERT JUMPDEST POP POP POP POP PUSH1 0x40 MLOAD RETURNDATASIZE PUSH1 0x1F NOT PUSH1 0x1F DUP3 ADD AND DUP3 ADD DUP1 PUSH1 0x40 MSTORE POP DUP2 ADD SWAP1 PUSH2 0x1FF2 SWAP2 SWAP1 PUSH2 0x2CF6 JUMP JUMPDEST PUSH2 0x1FFD SWAP1 PUSH1 0x64 PUSH2 0x2DD8 JUMP JUMPDEST PUSH1 0x0 DUP9 DUP2 MSTORE PUSH1 0x8 PUSH1 0x20 MSTORE PUSH1 0x40 SWAP1 KECCAK256 PUSH1 0x3 ADD SLOAD PUSH2 0x2019 SWAP2 SWAP1 PUSH2 0x2DB9 JUMP JUMPDEST PUSH2 0x2023 SWAP2 SWAP1 PUSH2 0x2D99 JUMP JUMPDEST PUSH1 0x0 DUP8 DUP2 MSTORE PUSH1 0x8 PUSH1 0x20 MSTORE PUSH1 0x40 SWAP1 KECCAK256 PUSH1 0x2 ADD SLOAD PUSH2 0x203F SWAP2 SWAP1 PUSH2 0x2D81 JUMP JUMPDEST SWAP2 POP PUSH1 0x64 PUSH1 0xA PUSH1 0x0 SWAP1 SLOAD SWAP1 PUSH2 0x100 EXP SWAP1 DIV PUSH1 0x1 PUSH1 0x1 PUSH1 0xA0 SHL SUB AND PUSH1 0x1 PUSH1 0x1 PUSH1 0xA0 SHL SUB AND PUSH4 0x55C4A8BF PUSH1 0x40 MLOAD DUP2 PUSH4 0xFFFFFFFF AND PUSH1 0xE0 SHL DUP2 MSTORE PUSH1 0x4 ADD PUSH1 0x20 PUSH1 0x40 MLOAD DUP1 DUP4 SUB DUP2 DUP7 DUP1 EXTCODESIZE ISZERO DUP1 ISZERO PUSH2 0x2091 JUMPI PUSH1 0x0 DUP1 REVERT JUMPDEST POP GAS STATICCALL ISZERO DUP1 ISZERO PUSH2 0x20A5 JUMPI RETURNDATASIZE PUSH1 0x0 DUP1 RETURNDATACOPY RETURNDATASIZE PUSH1 0x0 REVERT JUMPDEST POP POP POP POP PUSH1 0x40 MLOAD RETURNDATASIZE PUSH1 0x1F NOT PUSH1 0x1F DUP3 ADD AND DUP3 ADD DUP1 PUSH1 0x40 MSTORE POP DUP2 ADD SWAP1 PUSH2 0x20C9 SWAP2 SWAP1 PUSH2 0x2CF6 JUMP JUMPDEST PUSH1 0x0 DUP9 DUP2 MSTORE PUSH1 0x8 PUSH1 0x20 MSTORE PUSH1 0x40 SWAP1 KECCAK256 PUSH1 0x3 ADD SLOAD PUSH2 0x20E5 SWAP2 SWAP1 PUSH2 0x2DB9 JUMP JUMPDEST PUSH2 0x20EF SWAP2 SWAP1 PUSH2 0x2D99 JUMP JUMPDEST PUSH1 0x0 DUP8 DUP2 MSTORE PUSH1 0x8 PUSH1 0x20 SWAP1 DUP2 MSTORE PUSH1 0x40 DUP1 DUP4 KECCAK256 SLOAD DUP4 MSTORE PUSH1 0x6 SWAP1 SWAP2 MSTORE SWAP1 KECCAK256 PUSH1 0x1 ADD SLOAD PUSH1 0x1 PUSH1 0x1 PUSH1 0xA0 SHL SUB AND SWAP4 POP SWAP1 POP PUSH2 0x2308 JUMP JUMPDEST PUSH1 0x2 SLOAD PUSH1 0x2 EQ ISZERO PUSH2 0x22FB JUMPI PUSH1 0x0 DUP7 DUP2 MSTORE PUSH1 0x8 PUSH1 0x20 SWAP1 DUP2 MSTORE PUSH1 0x40 DUP1 DUP4 KECCAK256 PUSH1 0x1 ADD SLOAD DUP4 MSTORE PUSH1 0x6 DUP3 MSTORE SWAP2 DUP3 SWAP1 KECCAK256 SLOAD PUSH1 0xA SLOAD DUP4 MLOAD PUSH4 0x55C4A8BF PUSH1 0xE0 SHL DUP2 MSTORE SWAP4 MLOAD PUSH1 0x1 PUSH1 0x1 PUSH1 0xA0 SHL SUB SWAP3 DUP4 AND SWAP9 POP PUSH1 0x64 SWAP5 SWAP2 SWAP1 SWAP3 AND SWAP3 PUSH4 0x55C4A8BF SWAP3 PUSH1 0x4 DUP1 DUP5 ADD SWAP4 DUP3 SWAP1 SUB ADD DUP2 DUP7 DUP1 EXTCODESIZE ISZERO DUP1 ISZERO PUSH2 0x2191 JUMPI PUSH1 0x0 DUP1 REVERT JUMPDEST POP GAS STATICCALL ISZERO DUP1 ISZERO PUSH2 0x21A5 JUMPI RETURNDATASIZE PUSH1 0x0 DUP1 RETURNDATACOPY RETURNDATASIZE PUSH1 0x0 REVERT JUMPDEST POP POP POP POP PUSH1 0x40 MLOAD RETURNDATASIZE PUSH1 0x1F NOT PUSH1 0x1F DUP3 ADD AND DUP3 ADD DUP1 PUSH1 0x40 MSTORE POP DUP2 ADD SWAP1 PUSH2 0x21C9 SWAP2 SWAP1 PUSH2 0x2CF6 JUMP JUMPDEST PUSH2 0x21D4 SWAP1 PUSH1 0x64 PUSH2 0x2DD8 JUMP JUMPDEST PUSH1 0x0 DUP9 DUP2 MSTORE PUSH1 0x8 PUSH1 0x20 MSTORE PUSH1 0x40 SWAP1 KECCAK256 PUSH1 0x2 ADD SLOAD PUSH2 0x21F0 SWAP2 SWAP1 PUSH2 0x2DB9 JUMP JUMPDEST PUSH2 0x21FA SWAP2 SWAP1 PUSH2 0x2D99 JUMP JUMPDEST PUSH1 0x0 DUP8 DUP2 MSTORE PUSH1 0x8 PUSH1 0x20 MSTORE PUSH1 0x40 SWAP1 KECCAK256 PUSH1 0x3 ADD SLOAD PUSH2 0x2216 SWAP2 SWAP1 PUSH2 0x2D81 JUMP JUMPDEST SWAP2 POP PUSH1 0x64 PUSH1 0xA PUSH1 0x0 SWAP1 SLOAD SWAP1 PUSH2 0x100 EXP SWAP1 DIV PUSH1 0x1 PUSH1 0x1 PUSH1 0xA0 SHL SUB AND PUSH1 0x1 PUSH1 0x1 PUSH1 0xA0 SHL SUB AND PUSH4 0x55C4A8BF PUSH1 0x40 MLOAD DUP2 PUSH4 0xFFFFFFFF AND PUSH1 0xE0 SHL DUP2 MSTORE PUSH1 0x4 ADD PUSH1 0x20 PUSH1 0x40 MLOAD DUP1 DUP4 SUB DUP2 DUP7 DUP1 EXTCODESIZE ISZERO DUP1 ISZERO PUSH2 0x2268 JUMPI PUSH1 0x0 DUP1 REVERT JUMPDEST POP GAS STATICCALL ISZERO DUP1 ISZERO PUSH2 0x227C JUMPI RETURNDATASIZE PUSH1 0x0 DUP1 RETURNDATACOPY RETURNDATASIZE PUSH1 0x0 REVERT JUMPDEST POP POP POP POP PUSH1 0x40 MLOAD RETURNDATASIZE PUSH1 0x1F NOT PUSH1 0x1F DUP3 ADD AND DUP3 ADD DUP1 PUSH1 0x40 MSTORE POP DUP2 ADD SWAP1 PUSH2 0x22A0 SWAP2 SWAP1 PUSH2 0x2CF6 JUMP JUMPDEST PUSH1 0x0 DUP9 DUP2 MSTORE PUSH1 0x8 PUSH1 0x20 MSTORE PUSH1 0x40 SWAP1 KECCAK256 PUSH1 0x2 ADD SLOAD PUSH2 0x22BC SWAP2 SWAP1 PUSH2 0x2DB9 JUMP JUMPDEST PUSH2 0x22C6 SWAP2 SWAP1 PUSH2 0x2D99 JUMP JUMPDEST PUSH1 0x0 DUP8 DUP2 MSTORE PUSH1 0x8 PUSH1 0x20 SWAP1 DUP2 MSTORE PUSH1 0x40 DUP1 DUP4 KECCAK256 PUSH1 0x1 SWAP1 DUP2 ADD SLOAD DUP5 MSTORE PUSH1 0x6 SWAP1 SWAP3 MSTORE SWAP1 SWAP2 KECCAK256 ADD SLOAD PUSH1 0x1 PUSH1 0x1 PUSH1 0xA0 SHL SUB AND SWAP4 POP SWAP1 POP PUSH2 0x2308 JUMP JUMPDEST PUSH1 0x0 SWAP5 POP POP POP POP POP PUSH2 0x70A JUMP JUMPDEST PUSH1 0x1 PUSH1 0x1 PUSH1 0xA0 SHL SUB DUP5 AND PUSH1 0x0 SWAP1 DUP2 MSTORE PUSH1 0x5 PUSH1 0x20 MSTORE PUSH1 0x40 DUP2 KECCAK256 DUP1 SLOAD DUP5 SWAP3 SWAP1 PUSH2 0x2330 SWAP1 DUP5 SWAP1 PUSH2 0x2D81 JUMP JUMPDEST SWAP1 SWAP2 SSTORE POP POP PUSH1 0xA SLOAD PUSH1 0x40 DUP1 MLOAD PUSH4 0x6A0CCD9D PUSH1 0xE0 SHL DUP2 MSTORE SWAP1 MLOAD PUSH1 0x64 SWAP3 PUSH1 0x1 PUSH1 0x1 PUSH1 0xA0 SHL SUB AND SWAP2 PUSH4 0x6A0CCD9D SWAP2 PUSH1 0x4 DUP1 DUP4 ADD SWAP3 PUSH1 0x20 SWAP3 SWAP2 SWAP1 DUP3 SWAP1 SUB ADD DUP2 DUP7 DUP1 EXTCODESIZE ISZERO DUP1 ISZERO PUSH2 0x237A JUMPI PUSH1 0x0 DUP1 REVERT JUMPDEST POP GAS STATICCALL ISZERO DUP1 ISZERO PUSH2 0x238E JUMPI RETURNDATASIZE PUSH1 0x0 DUP1 RETURNDATACOPY RETURNDATASIZE PUSH1 0x0 REVERT JUMPDEST POP POP POP POP PUSH1 0x40 MLOAD RETURNDATASIZE PUSH1 0x1F NOT PUSH1 0x1F DUP3 ADD AND DUP3 ADD DUP1 PUSH1 0x40 MSTORE POP DUP2 ADD SWAP1 PUSH2 0x23B2 SWAP2 SWAP1 PUSH2 0x2CF6 JUMP JUMPDEST PUSH2 0x23BC SWAP1 DUP4 PUSH2 0x2DB9 JUMP JUMPDEST PUSH2 0x23C6 SWAP2 SWAP1 PUSH2 0x2D99 JUMP JUMPDEST PUSH1 0x5 PUSH1 0x0 PUSH1 0xA PUSH1 0x0 SWAP1 SLOAD SWAP1 PUSH2 0x100 EXP SWAP1 DIV PUSH1 0x1 PUSH1 0x1 PUSH1 0xA0 SHL SUB AND PUSH1 0x1 PUSH1 0x1 PUSH1 0xA0 SHL SUB AND PUSH4 0xB7640A54 PUSH1 0x40 MLOAD DUP2 PUSH4 0xFFFFFFFF AND PUSH1 0xE0 SHL DUP2 MSTORE PUSH1 0x4 ADD PUSH1 0x20 PUSH1 0x40 MLOAD DUP1 DUP4 SUB DUP2 DUP7 DUP1 EXTCODESIZE ISZERO DUP1 ISZERO PUSH2 0x2418 JUMPI PUSH1 0x0 DUP1 REVERT JUMPDEST POP GAS STATICCALL ISZERO DUP1 ISZERO PUSH2 0x242C JUMPI RETURNDATASIZE PUSH1 0x0 DUP1 RETURNDATACOPY RETURNDATASIZE PUSH1 0x0 REVERT JUMPDEST POP POP POP POP PUSH1 0x40 MLOAD RETURNDATASIZE PUSH1 0x1F NOT PUSH1 0x1F DUP3 ADD AND DUP3 ADD DUP1 PUSH1 0x40 MSTORE POP DUP2 ADD SWAP1 PUSH2 0x2450 SWAP2 SWAP1 PUSH2 0x2C40 JUMP JUMPDEST PUSH1 0x1 PUSH1 0x1 PUSH1 0xA0 SHL SUB AND PUSH1 0x1 PUSH1 0x1 PUSH1 0xA0 SHL SUB AND DUP2 MSTORE PUSH1 0x20 ADD SWAP1 DUP2 MSTORE PUSH1 0x20 ADD PUSH1 0x0 KECCAK256 PUSH1 0x0 DUP3 DUP3 SLOAD PUSH2 0x247F SWAP2 SWAP1 PUSH2 0x2D81 JUMP JUMPDEST SWAP1 SWAP2 SSTORE POP POP PUSH1 0xA SLOAD PUSH1 0x40 DUP1 MLOAD PUSH4 0x28576D45 PUSH1 0xE0 SHL DUP2 MSTORE SWAP1 MLOAD PUSH1 0x64 SWAP3 PUSH1 0x1 PUSH1 0x1 PUSH1 0xA0 SHL SUB AND SWAP2 PUSH4 0x28576D45 SWAP2 PUSH1 0x4 DUP1 DUP4 ADD SWAP3 PUSH1 0x20 SWAP3 SWAP2 SWAP1 DUP3 SWAP1 SUB ADD DUP2 DUP7 DUP1 EXTCODESIZE ISZERO DUP1 ISZERO PUSH2 0x24C9 JUMPI PUSH1 0x0 DUP1 REVERT JUMPDEST POP GAS STATICCALL ISZERO DUP1 ISZERO PUSH2 0x24DD JUMPI RETURNDATASIZE PUSH1 0x0 DUP1 RETURNDATACOPY RETURNDATASIZE PUSH1 0x0 REVERT JUMPDEST POP POP POP POP PUSH1 0x40 MLOAD RETURNDATASIZE PUSH1 0x1F NOT PUSH1 0x1F DUP3 ADD AND DUP3 ADD DUP1 PUSH1 0x40 MSTORE POP DUP2 ADD SWAP1 PUSH2 0x2501 SWAP2 SWAP1 PUSH2 0x2CF6 JUMP JUMPDEST PUSH2 0x250B SWAP1 DUP4 PUSH2 0x2DB9 JUMP JUMPDEST PUSH2 0x2515 SWAP2 SWAP1 PUSH2 0x2D99 JUMP JUMPDEST PUSH1 0x5 PUSH1 0x0 PUSH1 0xA PUSH1 0x0 SWAP1 SLOAD SWAP1 PUSH2 0x100 EXP SWAP1 DIV PUSH1 0x1 PUSH1 0x1 PUSH1 0xA0 SHL SUB AND PUSH1 0x1 PUSH1 0x1 PUSH1 0xA0 SHL SUB AND PUSH4 0x9953B2F PUSH1 0x40 MLOAD DUP2 PUSH4 0xFFFFFFFF AND PUSH1 0xE0 SHL DUP2 MSTORE PUSH1 0x4 ADD PUSH1 0x20 PUSH1 0x40 MLOAD DUP1 DUP4 SUB DUP2 DUP7 DUP1 EXTCODESIZE ISZERO DUP1 ISZERO PUSH2 0x2567 JUMPI PUSH1 0x0 DUP1 REVERT JUMPDEST POP GAS STATICCALL ISZERO DUP1 ISZERO PUSH2 0x257B JUMPI RETURNDATASIZE PUSH1 0x0 DUP1 RETURNDATACOPY RETURNDATASIZE PUSH1 0x0 REVERT JUMPDEST POP POP POP POP PUSH1 0x40 MLOAD RETURNDATASIZE PUSH1 0x1F NOT PUSH1 0x1F DUP3 ADD AND DUP3 ADD DUP1 PUSH1 0x40 MSTORE POP DUP2 ADD SWAP1 PUSH2 0x259F SWAP2 SWAP1 PUSH2 0x2C40 JUMP JUMPDEST PUSH1 0x1 PUSH1 0x1 PUSH1 0xA0 SHL SUB AND PUSH1 0x1 PUSH1 0x1 PUSH1 0xA0 SHL SUB AND DUP2 MSTORE PUSH1 0x20 ADD SWAP1 DUP2 MSTORE PUSH1 0x20 ADD PUSH1 0x0 KECCAK256 PUSH1 0x0 DUP3 DUP3 SLOAD PUSH2 0x25CE SWAP2 SWAP1 PUSH2 0x2D81 JUMP JUMPDEST SWAP1 SWAP2 SSTORE POP POP PUSH1 0xA SLOAD PUSH1 0x40 DUP1 MLOAD PUSH4 0x15334697 PUSH1 0xE2 SHL DUP2 MSTORE SWAP1 MLOAD PUSH1 0x64 SWAP3 PUSH1 0x1 PUSH1 0x1 PUSH1 0xA0 SHL SUB AND SWAP2 PUSH4 0x54CD1A5C SWAP2 PUSH1 0x4 DUP1 DUP4 ADD SWAP3 PUSH1 0x20 SWAP3 SWAP2 SWAP1 DUP3 SWAP1 SUB ADD DUP2 DUP7 DUP1 EXTCODESIZE ISZERO DUP1 ISZERO PUSH2 0x2618 JUMPI PUSH1 0x0 DUP1 REVERT JUMPDEST POP GAS STATICCALL ISZERO DUP1 ISZERO PUSH2 0x262C JUMPI RETURNDATASIZE PUSH1 0x0 DUP1 RETURNDATACOPY RETURNDATASIZE PUSH1 0x0 REVERT JUMPDEST POP POP POP POP PUSH1 0x40 MLOAD RETURNDATASIZE PUSH1 0x1F NOT PUSH1 0x1F DUP3 ADD AND DUP3 ADD DUP1 PUSH1 0x40 MSTORE POP DUP2 ADD SWAP1 PUSH2 0x2650 SWAP2 SWAP1 PUSH2 0x2CF6 JUMP JUMPDEST PUSH2 0x265A SWAP1 DUP4 PUSH2 0x2DB9 JUMP JUMPDEST PUSH2 0x2664 SWAP2 SWAP1 PUSH2 0x2D99 JUMP JUMPDEST PUSH1 0x1 PUSH1 0x1 PUSH1 0xA0 SHL SUB DUP5 AND PUSH1 0x0 SWAP1 DUP2 MSTORE PUSH1 0x5 PUSH1 0x20 MSTORE PUSH1 0x40 DUP2 KECCAK256 DUP1 SLOAD SWAP1 SWAP2 SWAP1 PUSH2 0x268C SWAP1 DUP5 SWAP1 PUSH2 0x2D81 JUMP JUMPDEST SWAP1 SWAP2 SSTORE POP POP POP PUSH1 0x0 SWAP5 DUP6 MSTORE POP POP PUSH1 0x8 PUSH1 0x20 MSTORE POP POP PUSH1 0x40 DUP2 KECCAK256 PUSH1 0x4 ADD DUP1 SLOAD PUSH1 0xFF NOT AND PUSH1 0x1 SWAP1 DUP2 OR SWAP1 SWAP2 SSTORE SWAP1 DUP2 SWAP1 SSTORE SWAP1 JUMP JUMPDEST PUSH1 0x0 DUP1 PUSH1 0x0 JUMPDEST PUSH1 0x4 SLOAD DUP10 SWAP1 ADDRESS SWAP1 DUP4 SWAP1 PUSH2 0x26D6 SWAP1 PUSH1 0x1 PUSH2 0x2D81 JUMP JUMPDEST PUSH2 0x26E0 SWAP2 SWAP1 PUSH2 0x2D81 JUMP JUMPDEST PUSH1 0x40 MLOAD PUSH12 0xFFFFFFFFFFFFFFFFFFFFFFFF NOT PUSH1 0x60 SWAP5 DUP6 SHL DUP2 AND PUSH1 0x20 DUP4 ADD MSTORE SWAP3 SWAP1 SWAP4 SHL SWAP1 SWAP2 AND PUSH1 0x34 DUP4 ADD MSTORE PUSH1 0x48 DUP3 ADD MSTORE TIMESTAMP PUSH1 0x68 DUP3 ADD MSTORE DIFFICULTY PUSH1 0x88 DUP3 ADD MSTORE PUSH1 0xA8 ADD PUSH1 0x40 DUP1 MLOAD PUSH1 0x1F NOT DUP2 DUP5 SUB ADD DUP2 MSTORE SWAP2 DUP2 MSTORE DUP2 MLOAD PUSH1 0x20 SWAP3 DUP4 ADD KECCAK256 PUSH1 0x0 DUP2 DUP2 MSTORE PUSH1 0x6 SWAP1 SWAP4 MSTORE SWAP2 KECCAK256 PUSH1 0x2 ADD SLOAD SWAP1 SWAP3 POP PUSH2 0x2751 JUMPI PUSH2 0x2763 JUMP JUMPDEST DUP1 PUSH2 0x275B DUP2 PUSH2 0x2DEF JUMP JUMPDEST SWAP2 POP POP PUSH2 0x26C2 JUMP JUMPDEST PUSH1 0x1 PUSH1 0x1 PUSH1 0xA0 SHL SUB DUP9 AND PUSH2 0x27FA JUMPI PUSH1 0xA PUSH1 0x0 SWAP1 SLOAD SWAP1 PUSH2 0x100 EXP SWAP1 DIV PUSH1 0x1 PUSH1 0x1 PUSH1 0xA0 SHL SUB AND PUSH1 0x1 PUSH1 0x1 PUSH1 0xA0 SHL SUB AND PUSH4 0x9953B2F PUSH1 0x40 MLOAD DUP2 PUSH4 0xFFFFFFFF AND PUSH1 0xE0 SHL DUP2 MSTORE PUSH1 0x4 ADD PUSH1 0x20 PUSH1 0x40 MLOAD DUP1 DUP4 SUB DUP2 DUP7 DUP1 EXTCODESIZE ISZERO DUP1 ISZERO PUSH2 0x27BF JUMPI PUSH1 0x0 DUP1 REVERT JUMPDEST POP GAS STATICCALL ISZERO DUP1 ISZERO PUSH2 0x27D3 JUMPI RETURNDATASIZE PUSH1 0x0 DUP1 RETURNDATACOPY RETURNDATASIZE PUSH1 0x0 REVERT JUMPDEST POP POP POP POP PUSH1 0x40 MLOAD RETURNDATASIZE PUSH1 0x1F NOT PUSH1 0x1F DUP3 ADD AND DUP3 ADD DUP1 PUSH1 0x40 MSTORE POP DUP2 ADD SWAP1 PUSH2 0x27F7 SWAP2 SWAP1 PUSH2 0x2C40 JUMP JUMPDEST SWAP8 POP JUMPDEST POP PUSH1 0x40 DUP1 MLOAD PUSH1 0xC0 DUP2 ADD DUP3 MSTORE PUSH1 0x1 PUSH1 0x1 PUSH1 0xA0 SHL SUB SWAP10 DUP11 AND DUP1 DUP3 MSTORE SWAP9 DUP11 AND PUSH1 0x20 DUP1 DUP4 ADD SWAP2 DUP3 MSTORE DUP3 DUP5 ADD SWAP10 DUP11 MSTORE PUSH1 0x60 DUP4 ADD SWAP9 DUP10 MSTORE PUSH1 0x80 DUP4 ADD SWAP8 DUP9 MSTORE PUSH1 0xA0 DUP4 ADD SWAP7 DUP8 MSTORE PUSH1 0x0 DUP6 DUP2 MSTORE PUSH1 0x6 DUP3 MSTORE DUP5 DUP2 KECCAK256 SWAP4 MLOAD DUP5 SLOAD SWAP1 DUP15 AND PUSH1 0x1 PUSH1 0x1 PUSH1 0xA0 SHL SUB NOT SWAP2 DUP3 AND OR DUP6 SSTORE SWAP3 MLOAD PUSH1 0x1 DUP1 DUP7 ADD DUP1 SLOAD SWAP3 SWAP1 SWAP16 AND SWAP2 SWAP1 SWAP5 AND OR SWAP1 SWAP13 SSTORE SWAP9 MLOAD PUSH1 0x2 DUP4 ADD SSTORE SWAP7 MLOAD PUSH1 0x3 DUP3 ADD SSTORE SWAP5 MLOAD PUSH1 0x4 DUP1 DUP8 ADD SWAP2 SWAP1 SWAP2 SSTORE SWAP4 MLOAD PUSH1 0x5 SWAP1 SWAP6 ADD SWAP5 SWAP1 SWAP5 SSTORE DUP3 SLOAD DUP1 DUP7 ADD SWAP1 SWAP4 SSTORE PUSH32 0x8A35ACFBC15FF81A39AE7D344FD709F28E8600B4AA8C65C6B64BFE7FE36BD19B SWAP1 SWAP3 ADD DUP3 SWAP1 SSTORE POP SWAP4 DUP6 MSTORE PUSH1 0x7 DUP4 MSTORE DUP5 KECCAK256 DUP1 SLOAD SWAP2 DUP3 ADD DUP2 SSTORE DUP5 MSTORE SWAP3 KECCAK256 SWAP1 SWAP2 ADD DUP2 SWAP1 SSTORE SWAP1 JUMP JUMPDEST PUSH1 0x0 DUP1 PUSH1 0x0 DUP1 DUP10 DUP10 GT PUSH2 0x294B JUMPI DUP9 SWAP3 POP PUSH2 0x28FC PUSH1 0x64 DUP10 PUSH2 0x2DD8 JUMP JUMPDEST PUSH2 0x2906 SWAP1 DUP11 PUSH2 0x2DB9 JUMP JUMPDEST SWAP2 POP PUSH2 0x2913 PUSH1 0x64 DUP4 PUSH2 0x2D99 JUMP JUMPDEST SWAP2 POP DUP7 PUSH1 0x1 EQ ISZERO PUSH2 0x2931 JUMPI PUSH2 0x292A DUP7 DUP7 DUP6 DUP6 PUSH2 0x2AEA JUMP JUMPDEST SWAP1 POP PUSH2 0x299F JUMP JUMPDEST DUP7 PUSH1 0x2 EQ ISZERO PUSH2 0x2946 JUMPI PUSH2 0x292A DUP6 DUP8 DUP5 DUP7 PUSH2 0x2AEA JUMP JUMPDEST PUSH2 0x299F JUMP JUMPDEST DUP10 SWAP3 POP PUSH2 0x2959 PUSH1 0x64 DUP10 PUSH2 0x2DD8 JUMP JUMPDEST PUSH2 0x2963 SWAP1 DUP12 PUSH2 0x2DB9 JUMP JUMPDEST SWAP2 POP PUSH2 0x2970 PUSH1 0x64 DUP4 PUSH2 0x2D99 JUMP JUMPDEST SWAP2 POP DUP7 PUSH1 0x1 EQ ISZERO PUSH2 0x2987 JUMPI PUSH2 0x292A DUP7 DUP7 DUP6 DUP6 PUSH2 0x2AEA JUMP JUMPDEST DUP7 PUSH1 0x2 EQ ISZERO PUSH2 0x299F JUMPI PUSH2 0x299C DUP6 DUP8 DUP5 DUP7 PUSH2 0x2AEA JUMP JUMPDEST SWAP1 POP JUMPDEST PUSH1 0x0 DUP7 DUP2 MSTORE PUSH1 0x9 PUSH1 0x20 SWAP1 DUP2 MSTORE PUSH1 0x40 DUP1 DUP4 KECCAK256 DUP1 SLOAD PUSH1 0x1 DUP2 DUP2 ADD DUP4 SSTORE SWAP2 DUP6 MSTORE DUP4 DUP6 KECCAK256 ADD DUP6 SWAP1 SSTORE DUP9 DUP5 MSTORE DUP2 DUP5 KECCAK256 DUP1 SLOAD SWAP2 DUP3 ADD DUP2 SSTORE DUP5 MSTORE DUP3 DUP5 KECCAK256 ADD DUP5 SWAP1 SSTORE DUP9 DUP4 MSTORE PUSH1 0x6 SWAP1 SWAP2 MSTORE DUP2 KECCAK256 PUSH1 0x3 ADD DUP1 SLOAD DUP6 SWAP3 SWAP1 PUSH2 0x29F6 SWAP1 DUP5 SWAP1 PUSH2 0x2D81 JUMP JUMPDEST SWAP1 SWAP2 SSTORE POP POP PUSH1 0x0 DUP6 DUP2 MSTORE PUSH1 0x6 PUSH1 0x20 MSTORE PUSH1 0x40 DUP2 KECCAK256 PUSH1 0x3 ADD DUP1 SLOAD DUP5 SWAP3 SWAP1 PUSH2 0x2A1C SWAP1 DUP5 SWAP1 PUSH2 0x2D81 JUMP JUMPDEST SWAP1 SWAP2 SSTORE POP SWAP3 SWAP11 SWAP10 POP POP POP POP POP POP POP POP POP POP JUMP JUMPDEST PUSH1 0x0 DUP2 DUP2 MSTORE PUSH1 0x8 PUSH1 0x20 SWAP1 DUP2 MSTORE PUSH1 0x40 DUP1 DUP4 KECCAK256 DUP1 SLOAD DUP5 MSTORE PUSH1 0x6 DUP4 MSTORE DUP2 DUP5 KECCAK256 SLOAD PUSH1 0x1 DUP3 ADD SLOAD DUP6 MSTORE DUP3 DUP6 KECCAK256 SLOAD PUSH1 0x2 SWAP1 SWAP3 ADD SLOAD PUSH1 0x1 PUSH1 0x1 PUSH1 0xA0 SHL SUB SWAP2 DUP3 AND DUP1 DUP8 MSTORE PUSH1 0x5 SWAP1 SWAP6 MSTORE SWAP3 DUP6 KECCAK256 DUP1 SLOAD SWAP5 SWAP6 SWAP2 SWAP1 SWAP3 AND SWAP4 PUSH2 0x2A87 SWAP1 DUP5 SWAP1 PUSH2 0x2D81 JUMP JUMPDEST SWAP1 SWAP2 SSTORE POP POP PUSH1 0x0 DUP4 DUP2 MSTORE PUSH1 0x8 PUSH1 0x20 SWAP1 DUP2 MSTORE PUSH1 0x40 DUP1 DUP4 KECCAK256 PUSH1 0x3 ADD SLOAD PUSH1 0x1 PUSH1 0x1 PUSH1 0xA0 SHL SUB DUP6 AND DUP5 MSTORE PUSH1 0x5 SWAP1 SWAP3 MSTORE DUP3 KECCAK256 DUP1 SLOAD SWAP2 SWAP3 SWAP1 SWAP2 PUSH2 0x2AC5 SWAP1 DUP5 SWAP1 PUSH2 0x2D81 JUMP JUMPDEST SWAP1 SWAP2 SSTORE POP POP POP PUSH1 0x0 SWAP2 DUP3 MSTORE POP PUSH1 0x8 PUSH1 0x20 MSTORE PUSH1 0x40 SWAP1 KECCAK256 PUSH1 0x4 ADD DUP1 SLOAD PUSH1 0xFF NOT AND PUSH1 0x1 OR SWAP1 SSTORE JUMP JUMPDEST PUSH1 0x0 DUP1 PUSH1 0x0 JUMPDEST PUSH1 0x3 SLOAD DUP8 SWAP1 DUP8 SWAP1 DUP4 SWAP1 PUSH2 0x2B04 SWAP1 PUSH1 0x1 PUSH2 0x2D81 JUMP JUMPDEST PUSH2 0x2B0E SWAP2 SWAP1 PUSH2 0x2D81 JUMP JUMPDEST PUSH1 0x40 DUP1 MLOAD PUSH1 0x20 DUP2 ADD SWAP5 SWAP1 SWAP5 MSTORE DUP4 ADD SWAP2 SWAP1 SWAP2 MSTORE PUSH1 0x60 DUP3 ADD MSTORE TIMESTAMP PUSH1 0x80 DUP3 ADD MSTORE DIFFICULTY PUSH1 0xA0 DUP3 ADD MSTORE PUSH1 0xC0 ADD PUSH1 0x40 DUP1 MLOAD PUSH1 0x1F NOT DUP2 DUP5 SUB ADD DUP2 MSTORE SWAP2 DUP2 MSTORE DUP2 MLOAD PUSH1 0x20 SWAP3 DUP4 ADD KECCAK256 PUSH1 0x0 DUP2 DUP2 MSTORE PUSH1 0x8 SWAP1 SWAP4 MSTORE SWAP2 KECCAK256 PUSH1 0x2 ADD SLOAD SWAP1 SWAP3 POP PUSH2 0x2B68 JUMPI PUSH2 0x2B7A JUMP JUMPDEST DUP1 PUSH2 0x2B72 DUP2 PUSH2 0x2DEF JUMP JUMPDEST SWAP2 POP POP PUSH2 0x2AF0 JUMP JUMPDEST POP PUSH1 0x40 DUP1 MLOAD PUSH1 0xA0 DUP2 ADD DUP3 MSTORE SWAP7 DUP8 MSTORE PUSH1 0x20 DUP1 DUP9 ADD SWAP7 DUP8 MSTORE DUP8 DUP3 ADD SWAP6 DUP7 MSTORE PUSH1 0x60 DUP9 ADD SWAP5 DUP6 MSTORE PUSH1 0x0 PUSH1 0x80 DUP10 ADD DUP2 DUP2 MSTORE DUP5 DUP3 MSTORE PUSH1 0x8 SWAP1 SWAP3 MSTORE SWAP2 DUP3 KECCAK256 SWAP8 MLOAD DUP9 SSTORE SWAP6 MLOAD PUSH1 0x1 DUP1 DUP10 ADD SWAP2 SWAP1 SWAP2 SSTORE SWAP5 MLOAD PUSH1 0x2 DUP9 ADD SSTORE SWAP3 MLOAD PUSH1 0x3 DUP1 DUP9 ADD SWAP2 SWAP1 SWAP2 SSTORE SWAP5 MLOAD PUSH1 0x4 SWAP1 SWAP7 ADD DUP1 SLOAD PUSH1 0xFF NOT AND SWAP7 ISZERO ISZERO SWAP7 SWAP1 SWAP7 OR SWAP1 SWAP6 SSTORE POP DUP3 SLOAD SWAP2 DUP3 ADD DUP4 SSTORE SWAP2 SWAP1 SWAP2 MSTORE PUSH32 0xC2575A0E9E593C00F959F8C92F12DB2869C3395A3B0502D05E2516446F71F85B ADD DUP2 SWAP1 SSTORE SWAP1 JUMP JUMPDEST PUSH1 0x0 PUSH1 0x20 DUP3 DUP5 SUB SLT ISZERO PUSH2 0x2C2E JUMPI DUP1 DUP2 REVERT JUMPDEST DUP2 CALLDATALOAD PUSH2 0x2C39 DUP2 PUSH2 0x2E20 JUMP JUMPDEST SWAP4 SWAP3 POP POP POP JUMP JUMPDEST PUSH1 0x0 PUSH1 0x20 DUP3 DUP5 SUB SLT ISZERO PUSH2 0x2C51 JUMPI DUP1 DUP2 REVERT JUMPDEST DUP2 MLOAD PUSH2 0x2C39 DUP2 PUSH2 0x2E20 JUMP JUMPDEST PUSH1 0x0 DUP1 PUSH1 0x0 DUP1 PUSH1 0x0 DUP1 PUSH1 0xC0 DUP8 DUP10 SUB SLT ISZERO PUSH2 0x2C74 JUMPI DUP2 DUP3 REVERT JUMPDEST DUP7 CALLDATALOAD PUSH2 0x2C7F DUP2 PUSH2 0x2E20 JUMP JUMPDEST SWAP6 POP PUSH1 0x20 DUP8 ADD CALLDATALOAD PUSH2 0x2C8F DUP2 PUSH2 0x2E20 JUMP JUMPDEST SWAP5 POP PUSH1 0x40 DUP8 ADD CALLDATALOAD SWAP4 POP PUSH1 0x60 DUP8 ADD CALLDATALOAD SWAP3 POP PUSH1 0x80 DUP8 ADD CALLDATALOAD SWAP2 POP PUSH1 0xA0 DUP8 ADD CALLDATALOAD PUSH2 0x2CB4 DUP2 PUSH2 0x2E35 JUMP JUMPDEST DUP1 SWAP2 POP POP SWAP3 SWAP6 POP SWAP3 SWAP6 POP SWAP3 SWAP6 JUMP JUMPDEST PUSH1 0x0 PUSH1 0x20 DUP3 DUP5 SUB SLT ISZERO PUSH2 0x2CD3 JUMPI DUP1 DUP2 REVERT JUMPDEST DUP2 MLOAD PUSH2 0x2C39 DUP2 PUSH2 0x2E35 JUMP JUMPDEST PUSH1 0x0 PUSH1 0x20 DUP3 DUP5 SUB SLT ISZERO PUSH2 0x2CEF JUMPI DUP1 DUP2 REVERT JUMPDEST POP CALLDATALOAD SWAP2 SWAP1 POP JUMP JUMPDEST PUSH1 0x0 PUSH1 0x20 DUP3 DUP5 SUB SLT ISZERO PUSH2 0x2D07 JUMPI DUP1 DUP2 REVERT JUMPDEST POP MLOAD SWAP2 SWAP1 POP JUMP JUMPDEST PUSH1 0x20 DUP1 DUP3 MSTORE DUP3 MLOAD DUP3 DUP3 ADD DUP2 SWAP1 MSTORE PUSH1 0x0 SWAP2 SWAP1 DUP5 DUP3 ADD SWAP1 PUSH1 0x40 DUP6 ADD SWAP1 DUP5 JUMPDEST DUP2 DUP2 LT ISZERO PUSH2 0x2D46 JUMPI DUP4 MLOAD DUP4 MSTORE SWAP3 DUP5 ADD SWAP3 SWAP2 DUP5 ADD SWAP2 PUSH1 0x1 ADD PUSH2 0x2D2A JUMP JUMPDEST POP SWAP1 SWAP7 SWAP6 POP POP POP POP POP POP JUMP JUMPDEST PUSH1 0x20 DUP1 DUP3 MSTORE PUSH1 0x15 SWAP1 DUP3 ADD MSTORE PUSH21 0x18D85B1B195C881B9BDD08185D5D1A1BDC9A5E9959 PUSH1 0x5A SHL PUSH1 0x40 DUP3 ADD MSTORE PUSH1 0x60 ADD SWAP1 JUMP JUMPDEST PUSH1 0x0 DUP3 NOT DUP3 GT ISZERO PUSH2 0x2D94 JUMPI PUSH2 0x2D94 PUSH2 0x2E0A JUMP JUMPDEST POP ADD SWAP1 JUMP JUMPDEST PUSH1 0x0 DUP3 PUSH2 0x2DB4 JUMPI PUSH4 0x4E487B71 PUSH1 0xE0 SHL DUP2 MSTORE PUSH1 0x12 PUSH1 0x4 MSTORE PUSH1 0x24 DUP2 REVERT JUMPDEST POP DIV SWAP1 JUMP JUMPDEST PUSH1 0x0 DUP2 PUSH1 0x0 NOT DIV DUP4 GT DUP3 ISZERO ISZERO AND ISZERO PUSH2 0x2DD3 JUMPI PUSH2 0x2DD3 PUSH2 0x2E0A JUMP JUMPDEST POP MUL SWAP1 JUMP JUMPDEST PUSH1 0x0 DUP3 DUP3 LT ISZERO PUSH2 0x2DEA JUMPI PUSH2 0x2DEA PUSH2 0x2E0A JUMP JUMPDEST POP SUB SWAP1 JUMP JUMPDEST PUSH1 0x0 PUSH1 0x0 NOT DUP3 EQ ISZERO PUSH2 0x2E03 JUMPI PUSH2 0x2E03 PUSH2 0x2E0A JUMP JUMPDEST POP PUSH1 0x1 ADD SWAP1 JUMP JUMPDEST PUSH4 0x4E487B71 PUSH1 0xE0 SHL PUSH1 0x0 MSTORE PUSH1 0x11 PUSH1 0x4 MSTORE PUSH1 0x24 PUSH1 0x0 REVERT JUMPDEST PUSH1 0x1 PUSH1 0x1 PUSH1 0xA0 SHL SUB DUP2 AND DUP2 EQ PUSH2 0x328 JUMPI PUSH1 0x0 DUP1 REVERT JUMPDEST DUP1 ISZERO ISZERO DUP2 EQ PUSH2 0x328 JUMPI PUSH1 0x0 DUP1 REVERT INVALID LOG2 PUSH5 0x6970667358 0x22 SLT KECCAK256 EXTCODEHASH 0xBC 0xB5 0x2F 0xD7 PUSH20 0xDF47CEBBB8B943C0E599EBE8B114785B7DD31EAA 0xE7 0xAB 0xF8 CALLER 0xD3 0xCC PUSH5 0x736F6C6343 STOP ADDMOD DIV STOP CALLER "
				},
				"gasEstimates": {
					"creation": {
						"codeDepositCost": "2379400",
						"executionCost": "infinite",
						"totalCost": "infinite"
					},
					"external": {
						"addBet(address,address,uint256,uint256,uint256,bool)": "infinite",
						"cancel()": "infinite",
						"cancelBet(bytes32)": "infinite",
						"cancelPlusPairs()": "infinite",
						"getBalance(address)": "1308",
						"getBet(bytes32)": "5771",
						"getUserBets(address)": "infinite",
						"marketEvent()": "infinite",
						"setWinningSide(uint256)": "infinite",
						"settle(uint256)": "infinite",
						"settleBet(bytes32)": "infinite",
						"start()": "infinite",
						"status()": "1008",
						"withdraw(address)": "infinite",
						"withdrawPending(bytes32)": "infinite"
					},
					"internal": {
						"_cancelBetPairs(bytes32)": "infinite",
						"_cancelPair(bytes32)": "infinite",
						"_createBet(address,address,uint256,uint256,uint256,uint256)": "infinite",
						"_createPair(bytes32,bytes32,uint256,uint256)": "infinite",
						"_match(uint256,uint256,uint256,uint256,bytes32,bytes32)": "infinite",
						"_settlePair(bytes32)": "infinite"
					}
				},
				"methodIdentifiers": {
					"addBet(address,address,uint256,uint256,uint256,bool)": "78d65b2f",
					"cancel()": "ea8a1af0",
					"cancelBet(bytes32)": "2940ff1e",
					"cancelPlusPairs()": "ae8cd090",
					"getBalance(address)": "f8b2cb4f",
					"getBet(bytes32)": "37e8c09e",
					"getUserBets(address)": "2d56657d",
					"marketEvent()": "7a47d494",
					"setWinningSide(uint256)": "d0ed7295",
					"settle(uint256)": "8df82800",
					"settleBet(bytes32)": "675f6537",
					"start()": "be9a6555",
					"status()": "200d2ed2",
					"withdraw(address)": "51cff8d9",
					"withdrawPending(bytes32)": "7d7f9232"
				}
			},
			"storageLayout": {
				"storage": [
					{
						"astId": 10,
						"contract": "contracts/Market.sol:Market",
						"label": "_status",
						"offset": 0,
						"slot": "0",
						"type": "t_uint256"
					},
					{
						"astId": 131,
						"contract": "contracts/Market.sol:Market",
						"label": "factory",
						"offset": 0,
						"slot": "1",
						"type": "t_address"
					},
					{
						"astId": 135,
						"contract": "contracts/Market.sol:Market",
						"label": "status",
						"offset": 0,
						"slot": "2",
						"type": "t_uint256"
					},
					{
						"astId": 138,
						"contract": "contracts/Market.sol:Market",
						"label": "pairs",
						"offset": 0,
						"slot": "3",
						"type": "t_array(t_bytes32)dyn_storage"
					},
					{
						"astId": 141,
						"contract": "contracts/Market.sol:Market",
						"label": "bets",
						"offset": 0,
						"slot": "4",
						"type": "t_array(t_bytes32)dyn_storage"
					},
					{
						"astId": 145,
						"contract": "contracts/Market.sol:Market",
						"label": "bal",
						"offset": 0,
						"slot": "5",
						"type": "t_mapping(t_address,t_uint256)"
					},
					{
						"astId": 150,
						"contract": "contracts/Market.sol:Market",
						"label": "betsInfo",
						"offset": 0,
						"slot": "6",
						"type": "t_mapping(t_bytes32,t_struct(MarketBet)1984_storage)"
					},
					{
						"astId": 155,
						"contract": "contracts/Market.sol:Market",
						"label": "userBets",
						"offset": 0,
						"slot": "7",
						"type": "t_mapping(t_address,t_array(t_bytes32)dyn_storage)"
					},
					{
						"astId": 160,
						"contract": "contracts/Market.sol:Market",
						"label": "pairsInfo",
						"offset": 0,
						"slot": "8",
						"type": "t_mapping(t_bytes32,t_struct(MarketPair)1995_storage)"
					},
					{
						"astId": 165,
						"contract": "contracts/Market.sol:Market",
						"label": "betPairs",
						"offset": 0,
						"slot": "9",
						"type": "t_mapping(t_bytes32,t_array(t_bytes32)dyn_storage)"
					},
					{
						"astId": 171,
						"contract": "contracts/Market.sol:Market",
						"label": "app",
						"offset": 0,
						"slot": "10",
						"type": "t_contract(IWeb3BetsFO)1969"
					}
				],
				"types": {
					"t_address": {
						"encoding": "inplace",
						"label": "address",
						"numberOfBytes": "20"
					},
					"t_array(t_bytes32)dyn_storage": {
						"base": "t_bytes32",
						"encoding": "dynamic_array",
						"label": "bytes32[]",
						"numberOfBytes": "32"
					},
					"t_bool": {
						"encoding": "inplace",
						"label": "bool",
						"numberOfBytes": "1"
					},
					"t_bytes32": {
						"encoding": "inplace",
						"label": "bytes32",
						"numberOfBytes": "32"
					},
					"t_contract(IWeb3BetsFO)1969": {
						"encoding": "inplace",
						"label": "contract IWeb3BetsFO",
						"numberOfBytes": "20"
					},
					"t_mapping(t_address,t_array(t_bytes32)dyn_storage)": {
						"encoding": "mapping",
						"key": "t_address",
						"label": "mapping(address => bytes32[])",
						"numberOfBytes": "32",
						"value": "t_array(t_bytes32)dyn_storage"
					},
					"t_mapping(t_address,t_uint256)": {
						"encoding": "mapping",
						"key": "t_address",
						"label": "mapping(address => uint256)",
						"numberOfBytes": "32",
						"value": "t_uint256"
					},
					"t_mapping(t_bytes32,t_array(t_bytes32)dyn_storage)": {
						"encoding": "mapping",
						"key": "t_bytes32",
						"label": "mapping(bytes32 => bytes32[])",
						"numberOfBytes": "32",
						"value": "t_array(t_bytes32)dyn_storage"
					},
					"t_mapping(t_bytes32,t_struct(MarketBet)1984_storage)": {
						"encoding": "mapping",
						"key": "t_bytes32",
						"label": "mapping(bytes32 => struct Struct.MarketBet)",
						"numberOfBytes": "32",
						"value": "t_struct(MarketBet)1984_storage"
					},
					"t_mapping(t_bytes32,t_struct(MarketPair)1995_storage)": {
						"encoding": "mapping",
						"key": "t_bytes32",
						"label": "mapping(bytes32 => struct Struct.MarketPair)",
						"numberOfBytes": "32",
						"value": "t_struct(MarketPair)1995_storage"
					},
					"t_struct(MarketBet)1984_storage": {
						"encoding": "inplace",
						"label": "struct Struct.MarketBet",
						"members": [
							{
								"astId": 1973,
								"contract": "contracts/Market.sol:Market",
								"label": "better",
								"offset": 0,
								"slot": "0",
								"type": "t_address"
							},
							{
								"astId": 1975,
								"contract": "contracts/Market.sol:Market",
								"label": "affiliate",
								"offset": 0,
								"slot": "1",
								"type": "t_address"
							},
							{
								"astId": 1977,
								"contract": "contracts/Market.sol:Market",
								"label": "stake",
								"offset": 0,
								"slot": "2",
								"type": "t_uint256"
							},
							{
								"astId": 1979,
								"contract": "contracts/Market.sol:Market",
								"label": "matched",
								"offset": 0,
								"slot": "3",
								"type": "t_uint256"
							},
							{
								"astId": 1981,
								"contract": "contracts/Market.sol:Market",
								"label": "odds",
								"offset": 0,
								"slot": "4",
								"type": "t_uint256"
							},
							{
								"astId": 1983,
								"contract": "contracts/Market.sol:Market",
								"label": "side",
								"offset": 0,
								"slot": "5",
								"type": "t_uint256"
							}
						],
						"numberOfBytes": "192"
					},
					"t_struct(MarketPair)1995_storage": {
						"encoding": "inplace",
						"label": "struct Struct.MarketPair",
						"members": [
							{
								"astId": 1986,
								"contract": "contracts/Market.sol:Market",
								"label": "betHashA",
								"offset": 0,
								"slot": "0",
								"type": "t_bytes32"
							},
							{
								"astId": 1988,
								"contract": "contracts/Market.sol:Market",
								"label": "betHashB",
								"offset": 0,
								"slot": "1",
								"type": "t_bytes32"
							},
							{
								"astId": 1990,
								"contract": "contracts/Market.sol:Market",
								"label": "amountA",
								"offset": 0,
								"slot": "2",
								"type": "t_uint256"
							},
							{
								"astId": 1992,
								"contract": "contracts/Market.sol:Market",
								"label": "amountB",
								"offset": 0,
								"slot": "3",
								"type": "t_uint256"
							},
							{
								"astId": 1994,
								"contract": "contracts/Market.sol:Market",
								"label": "settled",
								"offset": 0,
								"slot": "4",
								"type": "t_bool"
							}
						],
						"numberOfBytes": "160"
					},
					"t_uint256": {
						"encoding": "inplace",
						"label": "uint256",
						"numberOfBytes": "32"
					}
				}
			},
			"userdoc": {
				"kind": "user",
				"methods": {},
				"version": 1
			}
		}
	}
}