{
	"contracts/Web3BetsFO.sol": {
		"Web3BetsFO": {
			"abi": [
				{
					"inputs": [],
					"stateMutability": "nonpayable",
					"type": "constructor"
				},
				{
					"inputs": [
						{
							"internalType": "address",
							"name": "_addr",
							"type": "address"
						}
					],
					"name": "addBlacked",
					"outputs": [],
					"stateMutability": "nonpayable",
					"type": "function"
				},
				{
					"inputs": [
						{
							"internalType": "address",
							"name": "_addr",
							"type": "address"
						}
					],
					"name": "addEventAdmin",
					"outputs": [],
					"stateMutability": "nonpayable",
					"type": "function"
				},
				{
					"inputs": [
						{
							"internalType": "address",
							"name": "_addr",
							"type": "address"
						}
					],
					"name": "addSystemAdmin",
					"outputs": [],
					"stateMutability": "nonpayable",
					"type": "function"
				},
				{
					"inputs": [
						{
							"internalType": "address",
							"name": "",
							"type": "address"
						}
					],
					"name": "admins",
					"outputs": [
						{
							"internalType": "address",
							"name": "",
							"type": "address"
						}
					],
					"stateMutability": "view",
					"type": "function"
				},
				{
					"inputs": [],
					"name": "betFactory",
					"outputs": [
						{
							"internalType": "address",
							"name": "",
							"type": "address"
						}
					],
					"stateMutability": "view",
					"type": "function"
				},
				{
					"inputs": [
						{
							"internalType": "uint256",
							"name": "",
							"type": "uint256"
						}
					],
					"name": "blackList",
					"outputs": [
						{
							"internalType": "address",
							"name": "",
							"type": "address"
						}
					],
					"stateMutability": "view",
					"type": "function"
				},
				{
					"inputs": [
						{
							"internalType": "address",
							"name": "",
							"type": "address"
						}
					],
					"name": "blacked",
					"outputs": [
						{
							"internalType": "address",
							"name": "",
							"type": "address"
						}
					],
					"stateMutability": "view",
					"type": "function"
				},
				{
					"inputs": [],
					"name": "contractOwner",
					"outputs": [
						{
							"internalType": "address",
							"name": "",
							"type": "address"
						}
					],
					"stateMutability": "view",
					"type": "function"
				},
				{
					"inputs": [
						{
							"internalType": "address",
							"name": "_eventOwner",
							"type": "address"
						}
					],
					"name": "deleteEventAdmin",
					"outputs": [],
					"stateMutability": "nonpayable",
					"type": "function"
				},
				{
					"inputs": [
						{
							"internalType": "address",
							"name": "_systemAdmin",
							"type": "address"
						}
					],
					"name": "deleteSystemAdmin",
					"outputs": [],
					"stateMutability": "nonpayable",
					"type": "function"
				},
				{
					"inputs": [],
					"name": "ecosystemAddress",
					"outputs": [
						{
							"internalType": "address",
							"name": "",
							"type": "address"
						}
					],
					"stateMutability": "view",
					"type": "function"
				},
				{
					"inputs": [],
					"name": "ecosystemVig",
					"outputs": [
						{
							"internalType": "uint256",
							"name": "",
							"type": "uint256"
						}
					],
					"stateMutability": "view",
					"type": "function"
				},
				{
					"inputs": [
						{
							"internalType": "uint256",
							"name": "",
							"type": "uint256"
						}
					],
					"name": "eventAdmins",
					"outputs": [
						{
							"internalType": "address",
							"name": "",
							"type": "address"
						}
					],
					"stateMutability": "view",
					"type": "function"
				},
				{
					"inputs": [],
					"name": "eventFactory",
					"outputs": [
						{
							"internalType": "address",
							"name": "",
							"type": "address"
						}
					],
					"stateMutability": "view",
					"type": "function"
				},
				{
					"inputs": [
						{
							"internalType": "address",
							"name": "",
							"type": "address"
						}
					],
					"name": "eventOwners",
					"outputs": [
						{
							"internalType": "address",
							"name": "",
							"type": "address"
						}
					],
					"stateMutability": "view",
					"type": "function"
				},
				{
					"inputs": [],
					"name": "holdersAddress",
					"outputs": [
						{
							"internalType": "address",
							"name": "",
							"type": "address"
						}
					],
					"stateMutability": "view",
					"type": "function"
				},
				{
					"inputs": [],
					"name": "holdersVig",
					"outputs": [
						{
							"internalType": "uint256",
							"name": "",
							"type": "uint256"
						}
					],
					"stateMutability": "view",
					"type": "function"
				},
				{
					"inputs": [
						{
							"internalType": "address",
							"name": "_addr",
							"type": "address"
						}
					],
					"name": "isBlack",
					"outputs": [
						{
							"internalType": "bool",
							"name": "",
							"type": "bool"
						}
					],
					"stateMutability": "view",
					"type": "function"
				},
				{
					"inputs": [
						{
							"internalType": "address",
							"name": "_addr",
							"type": "address"
						}
					],
					"name": "isEventAdmin",
					"outputs": [
						{
							"internalType": "bool",
							"name": "",
							"type": "bool"
						}
					],
					"stateMutability": "view",
					"type": "function"
				},
				{
					"inputs": [
						{
							"internalType": "address",
							"name": "_addr",
							"type": "address"
						}
					],
					"name": "isSystemAdmin",
					"outputs": [
						{
							"internalType": "bool",
							"name": "",
							"type": "bool"
						}
					],
					"stateMutability": "view",
					"type": "function"
				},
				{
					"inputs": [],
					"name": "marketFactory",
					"outputs": [
						{
							"internalType": "address",
							"name": "",
							"type": "address"
						}
					],
					"stateMutability": "view",
					"type": "function"
				},
				{
					"inputs": [
						{
							"internalType": "address",
							"name": "_eventOwner",
							"type": "address"
						}
					],
					"name": "removeBlacked",
					"outputs": [],
					"stateMutability": "nonpayable",
					"type": "function"
				},
				{
					"inputs": [
						{
							"internalType": "address",
							"name": "holdAddr",
							"type": "address"
						},
						{
							"internalType": "address",
							"name": "ecoAddr",
							"type": "address"
						},
						{
							"internalType": "address",
							"name": "scAddr",
							"type": "address"
						}
					],
					"name": "setAddresses",
					"outputs": [],
					"stateMutability": "nonpayable",
					"type": "function"
				},
				{
					"inputs": [
						{
							"internalType": "address",
							"name": "_event",
							"type": "address"
						},
						{
							"internalType": "address",
							"name": "_market",
							"type": "address"
						},
						{
							"internalType": "address",
							"name": "_bet",
							"type": "address"
						}
					],
					"name": "setFactory",
					"outputs": [],
					"stateMutability": "nonpayable",
					"type": "function"
				},
				{
					"inputs": [
						{
							"internalType": "uint256",
							"name": "_percentage",
							"type": "uint256"
						}
					],
					"name": "setVigPercentage",
					"outputs": [],
					"stateMutability": "nonpayable",
					"type": "function"
				},
				{
					"inputs": [
						{
							"internalType": "uint256",
							"name": "hVig",
							"type": "uint256"
						},
						{
							"internalType": "uint256",
							"name": "eVig",
							"type": "uint256"
						}
					],
					"name": "setVigPercentageShares",
					"outputs": [],
					"stateMutability": "nonpayable",
					"type": "function"
				},
				{
					"inputs": [],
					"name": "shareBetEarnings",
					"outputs": [],
					"stateMutability": "nonpayable",
					"type": "function"
				},
				{
					"inputs": [],
					"name": "stableCoin",
					"outputs": [
						{
							"internalType": "address",
							"name": "",
							"type": "address"
						}
					],
					"stateMutability": "view",
					"type": "function"
				},
				{
					"inputs": [
						{
							"internalType": "uint256",
							"name": "",
							"type": "uint256"
						}
					],
					"name": "systemAdmins",
					"outputs": [
						{
							"internalType": "address",
							"name": "",
							"type": "address"
						}
					],
					"stateMutability": "view",
					"type": "function"
				},
				{
					"inputs": [],
					"name": "vigPercentage",
					"outputs": [
						{
							"internalType": "uint256",
							"name": "",
							"type": "uint256"
						}
					],
					"stateMutability": "view",
					"type": "function"
				}
			],
			"devdoc": {
				"author": "Victor Okoro",
				"custom:security": "contact okoro.victor@web3bets.io",
				"kind": "dev",
				"methods": {},
				"title": "Web3Bets Contract for FixedOdds decentralized betting exchange",
				"version": 1
			},
			"evm": {
				"assembly": "    /* \"contracts/Web3BetsFO.sol\":482:7182  contract Web3BetsFO is IWeb3BetsFO {... */\n  mstore(0x40, 0x80)\n    /* \"contracts/Web3BetsFO.sol\":857:859  50 */\n  0x32\n    /* \"contracts/Web3BetsFO.sol\":820:859  uint256 public override holdersVig = 50 */\n  0x07\n  dup2\n  swap1\n  sstore\n    /* \"contracts/Web3BetsFO.sol\":865:906  uint256 public override ecosystemVig = 50 */\n  0x08\n  sstore\n    /* \"contracts/Web3BetsFO.sol\":952:954  10 */\n  0x0a\n    /* \"contracts/Web3BetsFO.sol\":912:954  uint256 public override vigPercentage = 10 */\n  0x09\n  sstore\n    /* \"contracts/Web3BetsFO.sol\":1254:1264  stableCoin */\n  sload(0x03)\n    /* \"contracts/Web3BetsFO.sol\":1211:1265  IERC20 private _stableCoinWrapper = IERC20(stableCoin) */\n  0x10\n  dup1\n  sload\n  not(sub(shl(0xa0, 0x01), 0x01))\n  and\n  sub(shl(0xa0, 0x01), 0x01)\n    /* \"contracts/Web3BetsFO.sol\":1254:1264  stableCoin */\n  swap1\n  swap3\n  and\n    /* \"contracts/Web3BetsFO.sol\":1211:1265  IERC20 private _stableCoinWrapper = IERC20(stableCoin) */\n  swap2\n  swap1\n  swap2\n  or\n  swap1\n  sstore\n    /* \"contracts/Web3BetsFO.sol\":2053:2110  constructor() {... */\n  callvalue\n  dup1\n  iszero\n  tag_1\n  jumpi\n  0x00\n  dup1\n  revert\ntag_1:\n  pop\n    /* \"contracts/Web3BetsFO.sol\":2077:2090  contractOwner */\n  0x00\n    /* \"contracts/Web3BetsFO.sol\":2077:2103  contractOwner = msg.sender */\n  dup1\n  sload\n  not(sub(shl(0xa0, 0x01), 0x01))\n  and\n    /* \"contracts/Web3BetsFO.sol\":2093:2103  msg.sender */\n  caller\n    /* \"contracts/Web3BetsFO.sol\":2077:2103  contractOwner = msg.sender */\n  or\n  swap1\n  sstore\n    /* \"contracts/Web3BetsFO.sol\":482:7182  contract Web3BetsFO is IWeb3BetsFO {... */\n  dataSize(sub_0)\n  dup1\n  dataOffset(sub_0)\n  0x00\n  codecopy\n  0x00\n  return\nstop\n\nsub_0: assembly {\n        /* \"contracts/Web3BetsFO.sol\":482:7182  contract Web3BetsFO is IWeb3BetsFO {... */\n      mstore(0x40, 0x80)\n      callvalue\n      dup1\n      iszero\n      tag_1\n      jumpi\n      0x00\n      dup1\n      revert\n    tag_1:\n      pop\n      jumpi(tag_2, lt(calldatasize, 0x04))\n      shr(0xe0, calldataload(0x00))\n      dup1\n      0x709ec8b4\n      gt\n      tag_33\n      jumpi\n      dup1\n      0xcb146622\n      gt\n      tag_34\n      jumpi\n      dup1\n      0xd6c1ca26\n      gt\n      tag_35\n      jumpi\n      dup1\n      0xd6c1ca26\n      eq\n      tag_29\n      jumpi\n      dup1\n      0xe3c0ed78\n      eq\n      tag_30\n      jumpi\n      dup1\n      0xed9f7eb9\n      eq\n      tag_31\n      jumpi\n      dup1\n      0xf2210b2c\n      eq\n      tag_32\n      jumpi\n      0x00\n      dup1\n      revert\n    tag_35:\n      dup1\n      0xcb146622\n      eq\n      tag_25\n      jumpi\n      dup1\n      0xce606ee0\n      eq\n      tag_26\n      jumpi\n      dup1\n      0xd37e87fd\n      eq\n      tag_27\n      jumpi\n      dup1\n      0xd5494869\n      eq\n      tag_28\n      jumpi\n      0x00\n      dup1\n      revert\n    tag_34:\n      dup1\n      0x9376b94c\n      gt\n      tag_36\n      jumpi\n      dup1\n      0x9376b94c\n      eq\n      tag_21\n      jumpi\n      dup1\n      0x992642e5\n      eq\n      tag_22\n      jumpi\n      dup1\n      0x9b460aa9\n      eq\n      tag_23\n      jumpi\n      dup1\n      0xa94fabc5\n      eq\n      tag_24\n      jumpi\n      0x00\n      dup1\n      revert\n    tag_36:\n      dup1\n      0x709ec8b4\n      eq\n      tag_18\n      jumpi\n      dup1\n      0x80036b34\n      eq\n      tag_19\n      jumpi\n      dup1\n      0x85d8349b\n      eq\n      tag_20\n      jumpi\n      0x00\n      dup1\n      revert\n    tag_33:\n      dup1\n      0x387440e6\n      gt\n      tag_37\n      jumpi\n      dup1\n      0x4fb43199\n      gt\n      tag_38\n      jumpi\n      dup1\n      0x4fb43199\n      eq\n      tag_14\n      jumpi\n      dup1\n      0x64886880\n      eq\n      tag_15\n      jumpi\n      dup1\n      0x681ada8c\n      eq\n      tag_16\n      jumpi\n      dup1\n      0x6fdbd3f6\n      eq\n      tag_17\n      jumpi\n      0x00\n      dup1\n      revert\n    tag_38:\n      dup1\n      0x387440e6\n      eq\n      tag_10\n      jumpi\n      dup1\n      0x429b62e5\n      eq\n      tag_11\n      jumpi\n      dup1\n      0x486d1e50\n      eq\n      tag_12\n      jumpi\n      dup1\n      0x4d161324\n      eq\n      tag_13\n      jumpi\n      0x00\n      dup1\n      revert\n    tag_37:\n      dup1\n      0x0da4ee50\n      gt\n      tag_39\n      jumpi\n      dup1\n      0x0da4ee50\n      eq\n      tag_6\n      jumpi\n      dup1\n      0x2e1a9618\n      eq\n      tag_7\n      jumpi\n      dup1\n      0x332daccf\n      eq\n      tag_8\n      jumpi\n      dup1\n      0x363bf964\n      eq\n      tag_9\n      jumpi\n      0x00\n      dup1\n      revert\n    tag_39:\n      dup1\n      0x026c1a4d\n      eq\n      tag_3\n      jumpi\n      dup1\n      0x06a5cb3a\n      eq\n      tag_4\n      jumpi\n      dup1\n      0x06ae7095\n      eq\n      tag_5\n      jumpi\n    tag_2:\n      0x00\n      dup1\n      revert\n        /* \"contracts/Web3BetsFO.sol\":961:990  address[] public systemAdmins */\n    tag_3:\n      tag_40\n      tag_41\n      calldatasize\n      0x04\n      tag_42\n      jump\t// in\n    tag_41:\n      tag_43\n      jump\t// in\n    tag_40:\n      mload(0x40)\n      sub(shl(0xa0, 0x01), 0x01)\n        /* \"#utility.yul\":1865:1897   */\n      swap1\n      swap2\n      and\n        /* \"#utility.yul\":1847:1898   */\n      dup2\n      mstore\n        /* \"#utility.yul\":1835:1837   */\n      0x20\n        /* \"#utility.yul\":1820:1838   */\n      add\n        /* \"contracts/Web3BetsFO.sol\":961:990  address[] public systemAdmins */\n    tag_44:\n      mload(0x40)\n      dup1\n      swap2\n      sub\n      swap1\n      return\n        /* \"contracts/Web3BetsFO.sol\":607:647  address public override ecosystemAddress */\n    tag_4:\n      sload(0x02)\n      tag_40\n      swap1\n      sub(shl(0xa0, 0x01), 0x01)\n      and\n      dup2\n      jump\n        /* \"contracts/Web3BetsFO.sol\":736:773  address public override marketFactory */\n    tag_5:\n      sload(0x05)\n      tag_40\n      swap1\n      sub(shl(0xa0, 0x01), 0x01)\n      and\n      dup2\n      jump\n        /* \"contracts/Web3BetsFO.sol\":563:601  address public override holdersAddress */\n    tag_6:\n      sload(0x01)\n      tag_40\n      swap1\n      sub(shl(0xa0, 0x01), 0x01)\n      and\n      dup2\n      jump\n        /* \"contracts/Web3BetsFO.sol\":779:813  address public override betFactory */\n    tag_7:\n      sload(0x06)\n      tag_40\n      swap1\n      sub(shl(0xa0, 0x01), 0x01)\n      and\n      dup2\n      jump\n        /* \"contracts/Web3BetsFO.sol\":6745:7179  function isBlack(address _addr) public view override returns (bool) {... */\n    tag_8:\n      tag_58\n      tag_59\n      calldatasize\n      0x04\n      tag_60\n      jump\t// in\n    tag_59:\n      tag_61\n      jump\t// in\n    tag_58:\n      mload(0x40)\n        /* \"#utility.yul\":2353:2367   */\n      swap1\n      iszero\n        /* \"#utility.yul\":2346:2368   */\n      iszero\n        /* \"#utility.yul\":2328:2369   */\n      dup2\n      mstore\n        /* \"#utility.yul\":2316:2318   */\n      0x20\n        /* \"#utility.yul\":2301:2319   */\n      add\n        /* \"contracts/Web3BetsFO.sol\":6745:7179  function isBlack(address _addr) public view override returns (bool) {... */\n      tag_44\n        /* \"#utility.yul\":2283:2375   */\n      jump\n        /* \"contracts/Web3BetsFO.sol\":2120:2324  function setAddresses(address holdAddr, address ecoAddr,address scAddr) external onlySystemAdmin {... */\n    tag_9:\n      tag_64\n      tag_65\n      calldatasize\n      0x04\n      tag_66\n      jump\t// in\n    tag_65:\n      tag_67\n      jump\t// in\n    tag_64:\n      stop\n        /* \"contracts/Web3BetsFO.sol\":912:954  uint256 public override vigPercentage = 10 */\n    tag_10:\n      tag_68\n      sload(0x09)\n      dup2\n      jump\n    tag_68:\n      mload(0x40)\n        /* \"#utility.yul\":7424:7449   */\n      swap1\n      dup2\n      mstore\n        /* \"#utility.yul\":7412:7414   */\n      0x20\n        /* \"#utility.yul\":7397:7415   */\n      add\n        /* \"contracts/Web3BetsFO.sol\":912:954  uint256 public override vigPercentage = 10 */\n      tag_44\n        /* \"#utility.yul\":7379:7455   */\n      jump\n        /* \"contracts/Web3BetsFO.sol\":1063:1104  mapping(address => address) public admins */\n    tag_11:\n      tag_40\n      tag_73\n      calldatasize\n      0x04\n      tag_60\n      jump\t// in\n    tag_73:\n      mstore(0x20, 0x0d)\n      0x00\n      swap1\n      dup2\n      mstore\n      0x40\n      swap1\n      keccak256\n      sload\n      sub(shl(0xa0, 0x01), 0x01)\n      and\n      dup2\n      jump\n        /* \"contracts/Web3BetsFO.sol\":820:859  uint256 public override holdersVig = 50 */\n    tag_12:\n      tag_68\n      sload(0x07)\n      dup2\n      jump\n        /* \"contracts/Web3BetsFO.sol\":3252:3878  function shareBetEarnings() external override {... */\n    tag_13:\n      tag_64\n      tag_80\n      jump\t// in\n        /* \"contracts/Web3BetsFO.sol\":5841:6286  function isSystemAdmin(address _addr) public view override returns (bool) {... */\n    tag_14:\n      tag_58\n      tag_82\n      calldatasize\n      0x04\n      tag_60\n      jump\t// in\n    tag_82:\n      tag_83\n      jump\t// in\n        /* \"contracts/Web3BetsFO.sol\":2785:3246  function setVigPercentageShares(... */\n    tag_15:\n      tag_64\n      tag_86\n      calldatasize\n      0x04\n      tag_87\n      jump\t// in\n    tag_86:\n      tag_88\n      jump\t// in\n        /* \"contracts/Web3BetsFO.sol\":5447:5835  function removeBlacked(address _eventOwner) external onlySystemAdmin {... */\n    tag_16:\n      tag_64\n      tag_90\n      calldatasize\n      0x04\n      tag_60\n      jump\t// in\n    tag_90:\n      tag_91\n      jump\t// in\n        /* \"contracts/Web3BetsFO.sol\":694:730  address public override eventFactory */\n    tag_17:\n      sload(0x04)\n      tag_40\n      swap1\n      sub(shl(0xa0, 0x01), 0x01)\n      and\n      dup2\n      jump\n        /* \"contracts/Web3BetsFO.sol\":1030:1056  address[] public blackList */\n    tag_18:\n      tag_40\n      tag_96\n      calldatasize\n      0x04\n      tag_42\n      jump\t// in\n    tag_96:\n      tag_97\n      jump\t// in\n        /* \"contracts/Web3BetsFO.sol\":1162:1204  mapping(address => address) public blacked */\n    tag_19:\n      tag_40\n      tag_100\n      calldatasize\n      0x04\n      tag_60\n      jump\t// in\n    tag_100:\n      mstore(0x20, 0x0f)\n      0x00\n      swap1\n      dup2\n      mstore\n      0x40\n      swap1\n      keccak256\n      sload\n      sub(shl(0xa0, 0x01), 0x01)\n      and\n      dup2\n      jump\n        /* \"contracts/Web3BetsFO.sol\":1110:1156  mapping(address => address) public eventOwners */\n    tag_20:\n      tag_40\n      tag_104\n      calldatasize\n      0x04\n      tag_60\n      jump\t// in\n    tag_104:\n      mstore(0x20, 0x0e)\n      0x00\n      swap1\n      dup2\n      mstore\n      0x40\n      swap1\n      keccak256\n      sload\n      sub(shl(0xa0, 0x01), 0x01)\n      and\n      dup2\n      jump\n        /* \"contracts/Web3BetsFO.sol\":865:906  uint256 public override ecosystemVig = 50 */\n    tag_21:\n      tag_68\n      sload(0x08)\n      dup2\n      jump\n        /* \"contracts/Web3BetsFO.sol\":653:687  address public override stableCoin */\n    tag_22:\n      sload(0x03)\n      tag_40\n      swap1\n      sub(shl(0xa0, 0x01), 0x01)\n      and\n      dup2\n      jump\n        /* \"contracts/Web3BetsFO.sol\":5258:5441  function addBlacked(address _addr)... */\n    tag_23:\n      tag_64\n      tag_114\n      calldatasize\n      0x04\n      tag_60\n      jump\t// in\n    tag_114:\n      tag_115\n      jump\t// in\n        /* \"contracts/Web3BetsFO.sol\":2330:2518  function setFactory(address _event,address _market,address _bet) external onlySystemAdmin {... */\n    tag_24:\n      tag_64\n      tag_117\n      calldatasize\n      0x04\n      tag_66\n      jump\t// in\n    tag_117:\n      tag_118\n      jump\t// in\n        /* \"contracts/Web3BetsFO.sol\":6292:6739  function isEventAdmin(address _addr) public view override returns (bool) {... */\n    tag_25:\n      tag_58\n      tag_120\n      calldatasize\n      0x04\n      tag_60\n      jump\t// in\n    tag_120:\n      tag_121\n      jump\t// in\n        /* \"contracts/Web3BetsFO.sol\":524:552  address public contractOwner */\n    tag_26:\n      sload(0x00)\n      tag_40\n      swap1\n      sub(shl(0xa0, 0x01), 0x01)\n      and\n      dup2\n      jump\n        /* \"contracts/Web3BetsFO.sol\":996:1024  address[] public eventAdmins */\n    tag_27:\n      tag_40\n      tag_127\n      calldatasize\n      0x04\n      tag_42\n      jump\t// in\n    tag_127:\n      tag_128\n      jump\t// in\n        /* \"contracts/Web3BetsFO.sol\":4076:4472  function deleteSystemAdmin(address _systemAdmin) external onlyUser {... */\n    tag_28:\n      tag_64\n      tag_131\n      calldatasize\n      0x04\n      tag_60\n      jump\t// in\n    tag_131:\n      tag_132\n      jump\t// in\n        /* \"contracts/Web3BetsFO.sol\":2524:2779  function setVigPercentage(uint256 _percentage) external onlySystemAdmin {... */\n    tag_29:\n      tag_64\n      tag_134\n      calldatasize\n      0x04\n      tag_42\n      jump\t// in\n    tag_134:\n      tag_135\n      jump\t// in\n        /* \"contracts/Web3BetsFO.sol\":4482:4837  function addEventAdmin(address _addr)... */\n    tag_30:\n      tag_64\n      tag_137\n      calldatasize\n      0x04\n      tag_60\n      jump\t// in\n    tag_137:\n      tag_138\n      jump\t// in\n        /* \"contracts/Web3BetsFO.sol\":3888:4070  function addSystemAdmin(address _addr)... */\n    tag_31:\n      tag_64\n      tag_140\n      calldatasize\n      0x04\n      tag_60\n      jump\t// in\n    tag_140:\n      tag_141\n      jump\t// in\n        /* \"contracts/Web3BetsFO.sol\":4843:5248  function deleteEventAdmin(address _eventOwner) external onlySystemAdmin {... */\n    tag_32:\n      tag_64\n      tag_143\n      calldatasize\n      0x04\n      tag_60\n      jump\t// in\n    tag_143:\n      tag_144\n      jump\t// in\n        /* \"contracts/Web3BetsFO.sol\":961:990  address[] public systemAdmins */\n    tag_43:\n      0x0a\n      dup2\n      dup2\n      sload\n      dup2\n      lt\n      tag_145\n      jumpi\n      0x00\n      dup1\n      revert\n    tag_145:\n      0x00\n      swap2\n      dup3\n      mstore\n      0x20\n      swap1\n      swap2\n      keccak256\n      add\n      sload\n      sub(shl(0xa0, 0x01), 0x01)\n      and\n      swap1\n      pop\n      dup2\n      jump\t// out\n        /* \"contracts/Web3BetsFO.sol\":6745:7179  function isBlack(address _addr) public view override returns (bool) {... */\n    tag_61:\n      sub(shl(0xa0, 0x01), 0x01)\n        /* \"contracts/Web3BetsFO.sol\":6826:6840  blacked[_addr] */\n      dup2\n      dup2\n      and\n        /* \"contracts/Web3BetsFO.sol\":6807:6811  bool */\n      0x00\n        /* \"contracts/Web3BetsFO.sol\":6826:6840  blacked[_addr] */\n      swap1\n      dup2\n      mstore\n        /* \"contracts/Web3BetsFO.sol\":6826:6833  blacked */\n      0x0f\n        /* \"contracts/Web3BetsFO.sol\":6826:6840  blacked[_addr] */\n      0x20\n      mstore\n      0x40\n      dup2\n      keccak256\n      sload\n        /* \"contracts/Web3BetsFO.sol\":6807:6811  bool */\n      swap1\n      swap2\n        /* \"contracts/Web3BetsFO.sol\":6826:6840  blacked[_addr] */\n      and\n        /* \"contracts/Web3BetsFO.sol\":6826:6854  blacked[_addr] != address(0) */\n      iszero\n        /* \"contracts/Web3BetsFO.sol\":6823:7173  if(blacked[_addr] != address(0)){... */\n      tag_148\n      jumpi\n        /* \"contracts/Web3BetsFO.sol\":6869:6879  bool found */\n      0x00\n        /* \"contracts/Web3BetsFO.sol\":6906:6915  uint256 i */\n      dup1\n        /* \"contracts/Web3BetsFO.sol\":6901:7087  for (uint256 i = 0; i < blackList.length; i++) {... */\n    tag_149:\n        /* \"contracts/Web3BetsFO.sol\":6925:6934  blackList */\n      0x0c\n        /* \"contracts/Web3BetsFO.sol\":6925:6941  blackList.length */\n      sload\n        /* \"contracts/Web3BetsFO.sol\":6921:6941  i < blackList.length */\n      dup2\n      lt\n        /* \"contracts/Web3BetsFO.sol\":6901:7087  for (uint256 i = 0; i < blackList.length; i++) {... */\n      iszero\n      tag_150\n      jumpi\n        /* \"contracts/Web3BetsFO.sol\":6986:6991  _addr */\n      dup4\n      sub(shl(0xa0, 0x01), 0x01)\n        /* \"contracts/Web3BetsFO.sol\":6970:6991  blackList[i] == _addr */\n      and\n        /* \"contracts/Web3BetsFO.sol\":6970:6979  blackList */\n      0x0c\n        /* \"contracts/Web3BetsFO.sol\":6980:6981  i */\n      dup3\n        /* \"contracts/Web3BetsFO.sol\":6970:6982  blackList[i] */\n      dup2\n      sload\n      dup2\n      lt\n      tag_152\n      jumpi\n      mstore(0x00, shl(0xe0, 0x4e487b71))\n      mstore(0x04, 0x32)\n      revert(0x00, 0x24)\n    tag_152:\n      0x00\n      swap2\n      dup3\n      mstore\n      0x20\n      swap1\n      swap2\n      keccak256\n      add\n      sload\n      sub(shl(0xa0, 0x01), 0x01)\n      and\n        /* \"contracts/Web3BetsFO.sol\":6970:6991  blackList[i] == _addr */\n      eq\n        /* \"contracts/Web3BetsFO.sol\":6966:7073  if (blackList[i] == _addr) {... */\n      iszero\n      tag_154\n      jumpi\n        /* \"contracts/Web3BetsFO.sol\":7023:7027  true */\n      0x01\n        /* \"contracts/Web3BetsFO.sol\":7015:7027  found = true */\n      swap2\n      pop\n        /* \"contracts/Web3BetsFO.sol\":7049:7054  break */\n      jump(tag_150)\n        /* \"contracts/Web3BetsFO.sol\":6966:7073  if (blackList[i] == _addr) {... */\n    tag_154:\n        /* \"contracts/Web3BetsFO.sol\":6943:6946  i++ */\n      dup1\n      tag_155\n      dup2\n      tag_156\n      jump\t// in\n    tag_155:\n      swap2\n      pop\n      pop\n        /* \"contracts/Web3BetsFO.sol\":6901:7087  for (uint256 i = 0; i < blackList.length; i++) {... */\n      jump(tag_149)\n    tag_150:\n      pop\n        /* \"contracts/Web3BetsFO.sol\":7107:7112  found */\n      swap3\n        /* \"contracts/Web3BetsFO.sol\":6745:7179  function isBlack(address _addr) public view override returns (bool) {... */\n      swap2\n      pop\n      pop\n      jump\t// out\n        /* \"contracts/Web3BetsFO.sol\":6823:7173  if(blacked[_addr] != address(0)){... */\n    tag_148:\n      pop\n        /* \"contracts/Web3BetsFO.sol\":7157:7162  false */\n      0x00\n      swap2\n        /* \"contracts/Web3BetsFO.sol\":6745:7179  function isBlack(address _addr) public view override returns (bool) {... */\n      swap1\n      pop\n      jump\t// out\n        /* \"contracts/Web3BetsFO.sol\":6823:7173  if(blacked[_addr] != address(0)){... */\n    tag_157:\n        /* \"contracts/Web3BetsFO.sol\":6745:7179  function isBlack(address _addr) public view override returns (bool) {... */\n      swap2\n      swap1\n      pop\n      jump\t// out\n        /* \"contracts/Web3BetsFO.sol\":2120:2324  function setAddresses(address holdAddr, address ecoAddr,address scAddr) external onlySystemAdmin {... */\n    tag_67:\n        /* \"contracts/Web3BetsFO.sol\":1497:1522  isSystemAdmin(msg.sender) */\n      tag_159\n        /* \"contracts/Web3BetsFO.sol\":1511:1521  msg.sender */\n      caller\n        /* \"contracts/Web3BetsFO.sol\":1497:1510  isSystemAdmin */\n      tag_83\n        /* \"contracts/Web3BetsFO.sol\":1497:1522  isSystemAdmin(msg.sender) */\n      jump\t// in\n    tag_159:\n        /* \"contracts/Web3BetsFO.sol\":1497:1553  isSystemAdmin(msg.sender) || msg.sender == contractOwner */\n      dup1\n      tag_160\n      jumpi\n      pop\n        /* \"contracts/Web3BetsFO.sol\":1540:1553  contractOwner */\n      and(sub(shl(0xa0, 0x01), 0x01), sload(0x00))\n        /* \"contracts/Web3BetsFO.sol\":1526:1536  msg.sender */\n      caller\n        /* \"contracts/Web3BetsFO.sol\":1526:1553  msg.sender == contractOwner */\n      eq\n        /* \"contracts/Web3BetsFO.sol\":1497:1553  isSystemAdmin(msg.sender) || msg.sender == contractOwner */\n    tag_160:\n        /* \"contracts/Web3BetsFO.sol\":1476:1621  require(... */\n      tag_161\n      jumpi\n      mload(0x40)\n      shl(0xe5, 0x461bcd)\n      dup2\n      mstore\n      0x04\n      add\n      tag_162\n      swap1\n      tag_163\n      jump\t// in\n    tag_162:\n      mload(0x40)\n      dup1\n      swap2\n      sub\n      swap1\n      revert\n    tag_161:\n        /* \"contracts/Web3BetsFO.sol\":2227:2241  holdersAddress */\n      0x01\n        /* \"contracts/Web3BetsFO.sol\":2227:2252  holdersAddress = holdAddr */\n      dup1\n      sload\n      sub(shl(0xa0, 0x01), 0x01)\n      swap5\n      dup6\n      and\n      not(sub(shl(0xa0, 0x01), 0x01))\n      swap2\n      dup3\n      and\n      or\n      swap1\n      swap2\n      sstore\n        /* \"contracts/Web3BetsFO.sol\":2262:2278  ecosystemAddress */\n      0x02\n        /* \"contracts/Web3BetsFO.sol\":2262:2288  ecosystemAddress = ecoAddr */\n      dup1\n      sload\n      swap4\n      dup6\n      and\n      swap4\n      dup3\n      and\n      swap4\n      swap1\n      swap4\n      or\n      swap1\n      swap3\n      sstore\n        /* \"contracts/Web3BetsFO.sol\":2298:2308  stableCoin */\n      0x03\n        /* \"contracts/Web3BetsFO.sol\":2298:2317  stableCoin = scAddr */\n      dup1\n      sload\n      swap2\n      swap1\n      swap4\n      and\n      swap2\n      and\n      or\n      swap1\n      sstore\n        /* \"contracts/Web3BetsFO.sol\":2120:2324  function setAddresses(address holdAddr, address ecoAddr,address scAddr) external onlySystemAdmin {... */\n      jump\t// out\n        /* \"contracts/Web3BetsFO.sol\":3252:3878  function shareBetEarnings() external override {... */\n    tag_80:\n        /* \"contracts/Web3BetsFO.sol\":3329:3347  _stableCoinWrapper */\n      sload(0x10)\n        /* \"contracts/Web3BetsFO.sol\":3329:3372  _stableCoinWrapper.balanceOf(address(this)) */\n      mload(0x40)\n      shl(0xe0, 0x70a08231)\n      dup2\n      mstore\n        /* \"contracts/Web3BetsFO.sol\":3366:3370  this */\n      address\n        /* \"contracts/Web3BetsFO.sol\":3329:3372  _stableCoinWrapper.balanceOf(address(this)) */\n      0x04\n      dup3\n      add\n        /* \"#utility.yul\":1847:1898   */\n      mstore\n        /* \"contracts/Web3BetsFO.sol\":3308:3326  uint256 _vigAmount */\n      0x00\n      swap2\n      sub(shl(0xa0, 0x01), 0x01)\n        /* \"contracts/Web3BetsFO.sol\":3329:3347  _stableCoinWrapper */\n      and\n      swap1\n        /* \"contracts/Web3BetsFO.sol\":3329:3357  _stableCoinWrapper.balanceOf */\n      0x70a08231\n      swap1\n        /* \"#utility.yul\":1820:1838   */\n      0x24\n      add\n        /* \"contracts/Web3BetsFO.sol\":3329:3372  _stableCoinWrapper.balanceOf(address(this)) */\n      0x20\n      mload(0x40)\n      dup1\n      dup4\n      sub\n      dup2\n      dup7\n      dup1\n      extcodesize\n      iszero\n      dup1\n      iszero\n      tag_167\n      jumpi\n      0x00\n      dup1\n      revert\n    tag_167:\n      pop\n      gas\n      staticcall\n      iszero\n      dup1\n      iszero\n      tag_169\n      jumpi\n      returndatasize\n      0x00\n      dup1\n      returndatacopy\n      revert(0x00, returndatasize)\n    tag_169:\n      pop\n      pop\n      pop\n      pop\n      mload(0x40)\n      returndatasize\n      not(0x1f)\n      0x1f\n      dup3\n      add\n      and\n      dup3\n      add\n      dup1\n      0x40\n      mstore\n      pop\n      dup2\n      add\n      swap1\n      tag_170\n      swap2\n      swap1\n      tag_171\n      jump\t// in\n    tag_170:\n        /* \"contracts/Web3BetsFO.sol\":3308:3372  uint256 _vigAmount = _stableCoinWrapper.balanceOf(address(this)) */\n      swap1\n      pop\n        /* \"contracts/Web3BetsFO.sol\":3403:3404  0 */\n      0x00\n        /* \"contracts/Web3BetsFO.sol\":3390:3400  _vigAmount */\n      dup2\n        /* \"contracts/Web3BetsFO.sol\":3390:3404  _vigAmount > 0 */\n      gt\n        /* \"contracts/Web3BetsFO.sol\":3382:3444  require(_vigAmount > 0, \"bet earnings must be greater than 0\") */\n      tag_172\n      jumpi\n      mload(0x40)\n      shl(0xe5, 0x461bcd)\n      dup2\n      mstore\n        /* \"#utility.yul\":6589:6591   */\n      0x20\n        /* \"contracts/Web3BetsFO.sol\":3382:3444  require(_vigAmount > 0, \"bet earnings must be greater than 0\") */\n      0x04\n      dup3\n      add\n        /* \"#utility.yul\":6571:6592   */\n      mstore\n        /* \"#utility.yul\":6628:6630   */\n      0x23\n        /* \"#utility.yul\":6608:6626   */\n      0x24\n      dup3\n      add\n        /* \"#utility.yul\":6601:6631   */\n      mstore\n        /* \"#utility.yul\":6667:6701   */\n      0x626574206561726e696e6773206d757374206265206772656174657220746861\n        /* \"#utility.yul\":6647:6665   */\n      0x44\n      dup3\n      add\n        /* \"#utility.yul\":6640:6702   */\n      mstore\n      shl(0xec, 0x06e203)\n        /* \"#utility.yul\":6718:6736   */\n      0x64\n      dup3\n      add\n        /* \"#utility.yul\":6711:6744   */\n      mstore\n        /* \"#utility.yul\":6761:6780   */\n      0x84\n      add\n        /* \"contracts/Web3BetsFO.sol\":3382:3444  require(_vigAmount > 0, \"bet earnings must be greater than 0\") */\n      tag_162\n        /* \"#utility.yul\":6561:6786   */\n      jump\n        /* \"contracts/Web3BetsFO.sol\":3382:3444  require(_vigAmount > 0, \"bet earnings must be greater than 0\") */\n    tag_172:\n        /* \"contracts/Web3BetsFO.sol\":3454:3474  uint256 holdersShare */\n      0x00\n        /* \"contracts/Web3BetsFO.sol\":3505:3508  100 */\n      0x64\n        /* \"contracts/Web3BetsFO.sol\":3491:3501  holdersVig */\n      sload(0x07)\n        /* \"contracts/Web3BetsFO.sol\":3478:3488  _vigAmount */\n      dup4\n        /* \"contracts/Web3BetsFO.sol\":3478:3501  _vigAmount * holdersVig */\n      tag_175\n      swap2\n      swap1\n      tag_176\n      jump\t// in\n    tag_175:\n        /* \"contracts/Web3BetsFO.sol\":3477:3508  (_vigAmount * holdersVig )/ 100 */\n      tag_177\n      swap2\n      swap1\n      tag_178\n      jump\t// in\n    tag_177:\n        /* \"contracts/Web3BetsFO.sol\":3454:3508  uint256 holdersShare = (_vigAmount * holdersVig )/ 100 */\n      swap1\n      pop\n        /* \"contracts/Web3BetsFO.sol\":3541:3542  0 */\n      0x00\n        /* \"contracts/Web3BetsFO.sol\":3526:3538  holdersShare */\n      dup2\n        /* \"contracts/Web3BetsFO.sol\":3526:3542  holdersShare > 0 */\n      gt\n        /* \"contracts/Web3BetsFO.sol\":3518:3584  require(holdersShare > 0, \"holders' share must be greater than 0\") */\n      tag_179\n      jumpi\n      mload(0x40)\n      shl(0xe5, 0x461bcd)\n      dup2\n      mstore\n        /* \"#utility.yul\":5486:5488   */\n      0x20\n        /* \"contracts/Web3BetsFO.sol\":3518:3584  require(holdersShare > 0, \"holders' share must be greater than 0\") */\n      0x04\n      dup3\n      add\n        /* \"#utility.yul\":5468:5489   */\n      mstore\n        /* \"#utility.yul\":5525:5527   */\n      0x25\n        /* \"#utility.yul\":5505:5523   */\n      0x24\n      dup3\n      add\n        /* \"#utility.yul\":5498:5528   */\n      mstore\n        /* \"#utility.yul\":5564:5598   */\n      0x686f6c6465727327207368617265206d75737420626520677265617465722074\n        /* \"#utility.yul\":5544:5562   */\n      0x44\n      dup3\n      add\n        /* \"#utility.yul\":5537:5599   */\n      mstore\n      shl(0xdc, 0x068616e203)\n        /* \"#utility.yul\":5615:5633   */\n      0x64\n      dup3\n      add\n        /* \"#utility.yul\":5608:5643   */\n      mstore\n        /* \"#utility.yul\":5660:5679   */\n      0x84\n      add\n        /* \"contracts/Web3BetsFO.sol\":3518:3584  require(holdersShare > 0, \"holders' share must be greater than 0\") */\n      tag_162\n        /* \"#utility.yul\":5458:5685   */\n      jump\n        /* \"contracts/Web3BetsFO.sol\":3518:3584  require(holdersShare > 0, \"holders' share must be greater than 0\") */\n    tag_179:\n        /* \"contracts/Web3BetsFO.sol\":3594:3616  uint256 ecosystemShare */\n      0x00\n        /* \"contracts/Web3BetsFO.sol\":3649:3652  100 */\n      0x64\n        /* \"contracts/Web3BetsFO.sol\":3633:3645  ecosystemVig */\n      sload(0x08)\n        /* \"contracts/Web3BetsFO.sol\":3620:3630  _vigAmount */\n      dup5\n        /* \"contracts/Web3BetsFO.sol\":3620:3645  _vigAmount * ecosystemVig */\n      tag_182\n      swap2\n      swap1\n      tag_176\n      jump\t// in\n    tag_182:\n        /* \"contracts/Web3BetsFO.sol\":3619:3652  (_vigAmount * ecosystemVig) / 100 */\n      tag_183\n      swap2\n      swap1\n      tag_178\n      jump\t// in\n    tag_183:\n        /* \"contracts/Web3BetsFO.sol\":3594:3652  uint256 ecosystemShare = (_vigAmount * ecosystemVig) / 100 */\n      swap1\n      pop\n        /* \"contracts/Web3BetsFO.sol\":3687:3688  0 */\n      0x00\n        /* \"contracts/Web3BetsFO.sol\":3670:3684  ecosystemShare */\n      dup2\n        /* \"contracts/Web3BetsFO.sol\":3670:3688  ecosystemShare > 0 */\n      gt\n        /* \"contracts/Web3BetsFO.sol\":3662:3731  require(ecosystemShare > 0, \"ecosystem share must be greater than 0\") */\n      tag_184\n      jumpi\n      mload(0x40)\n      shl(0xe5, 0x461bcd)\n      dup2\n      mstore\n        /* \"#utility.yul\":3491:3493   */\n      0x20\n        /* \"contracts/Web3BetsFO.sol\":3662:3731  require(ecosystemShare > 0, \"ecosystem share must be greater than 0\") */\n      0x04\n      dup3\n      add\n        /* \"#utility.yul\":3473:3494   */\n      mstore\n        /* \"#utility.yul\":3530:3532   */\n      0x26\n        /* \"#utility.yul\":3510:3528   */\n      0x24\n      dup3\n      add\n        /* \"#utility.yul\":3503:3533   */\n      mstore\n        /* \"#utility.yul\":3569:3603   */\n      0x65636f73797374656d207368617265206d757374206265206772656174657220\n        /* \"#utility.yul\":3549:3567   */\n      0x44\n      dup3\n      add\n        /* \"#utility.yul\":3542:3604   */\n      mstore\n      shl(0xd4, 0x07468616e203)\n        /* \"#utility.yul\":3620:3638   */\n      0x64\n      dup3\n      add\n        /* \"#utility.yul\":3613:3649   */\n      mstore\n        /* \"#utility.yul\":3666:3685   */\n      0x84\n      add\n        /* \"contracts/Web3BetsFO.sol\":3662:3731  require(ecosystemShare > 0, \"ecosystem share must be greater than 0\") */\n      tag_162\n        /* \"#utility.yul\":3463:3691   */\n      jump\n        /* \"contracts/Web3BetsFO.sol\":3662:3731  require(ecosystemShare > 0, \"ecosystem share must be greater than 0\") */\n    tag_184:\n        /* \"contracts/Web3BetsFO.sol\":3742:3760  _stableCoinWrapper */\n      sload(0x10)\n        /* \"contracts/Web3BetsFO.sol\":3770:3786  ecosystemAddress */\n      sload(0x02)\n        /* \"contracts/Web3BetsFO.sol\":3742:3803  _stableCoinWrapper.transfer(ecosystemAddress, ecosystemShare) */\n      mload(0x40)\n      shl(0xe0, 0xa9059cbb)\n      dup2\n      mstore\n      sub(shl(0xa0, 0x01), 0x01)\n        /* \"contracts/Web3BetsFO.sol\":3770:3786  ecosystemAddress */\n      swap2\n      dup3\n      and\n        /* \"contracts/Web3BetsFO.sol\":3742:3803  _stableCoinWrapper.transfer(ecosystemAddress, ecosystemShare) */\n      0x04\n      dup3\n      add\n        /* \"#utility.yul\":2083:2134   */\n      mstore\n        /* \"#utility.yul\":2150:2168   */\n      0x24\n      dup2\n      add\n        /* \"#utility.yul\":2143:2177   */\n      dup5\n      swap1\n      mstore\n        /* \"contracts/Web3BetsFO.sol\":3742:3760  _stableCoinWrapper */\n      swap2\n      and\n      swap1\n        /* \"contracts/Web3BetsFO.sol\":3742:3769  _stableCoinWrapper.transfer */\n      0xa9059cbb\n      swap1\n        /* \"#utility.yul\":2056:2074   */\n      0x44\n      add\n        /* \"contracts/Web3BetsFO.sol\":3742:3803  _stableCoinWrapper.transfer(ecosystemAddress, ecosystemShare) */\n      0x20\n      mload(0x40)\n      dup1\n      dup4\n      sub\n      dup2\n      0x00\n      dup8\n      dup1\n      extcodesize\n      iszero\n      dup1\n      iszero\n      tag_189\n      jumpi\n      0x00\n      dup1\n      revert\n    tag_189:\n      pop\n      gas\n      call\n      iszero\n      dup1\n      iszero\n      tag_191\n      jumpi\n      returndatasize\n      0x00\n      dup1\n      returndatacopy\n      revert(0x00, returndatasize)\n    tag_191:\n      pop\n      pop\n      pop\n      pop\n      mload(0x40)\n      returndatasize\n      not(0x1f)\n      0x1f\n      dup3\n      add\n      and\n      dup3\n      add\n      dup1\n      0x40\n      mstore\n      pop\n      dup2\n      add\n      swap1\n      tag_192\n      swap2\n      swap1\n      tag_193\n      jump\t// in\n    tag_192:\n      pop\n        /* \"contracts/Web3BetsFO.sol\":3814:3832  _stableCoinWrapper */\n      sload(0x10)\n      0x01\n        /* \"contracts/Web3BetsFO.sol\":3842:3856  holdersAddress */\n      sload\n        /* \"contracts/Web3BetsFO.sol\":3814:3871  _stableCoinWrapper.transfer(holdersAddress, holdersShare) */\n      mload(0x40)\n      shl(0xe0, 0xa9059cbb)\n      dup2\n      mstore\n      sub(shl(0xa0, 0x01), 0x01)\n        /* \"contracts/Web3BetsFO.sol\":3842:3856  holdersAddress */\n      swap2\n      dup3\n      and\n        /* \"contracts/Web3BetsFO.sol\":3814:3871  _stableCoinWrapper.transfer(holdersAddress, holdersShare) */\n      0x04\n      dup3\n      add\n        /* \"#utility.yul\":2083:2134   */\n      mstore\n        /* \"#utility.yul\":2150:2168   */\n      0x24\n      dup2\n      add\n        /* \"#utility.yul\":2143:2177   */\n      dup6\n      swap1\n      mstore\n        /* \"contracts/Web3BetsFO.sol\":3814:3832  _stableCoinWrapper */\n      swap2\n      and\n      swap1\n        /* \"contracts/Web3BetsFO.sol\":3814:3841  _stableCoinWrapper.transfer */\n      0xa9059cbb\n      swap1\n        /* \"#utility.yul\":2056:2074   */\n      0x44\n      add\n        /* \"contracts/Web3BetsFO.sol\":3814:3871  _stableCoinWrapper.transfer(holdersAddress, holdersShare) */\n      0x20\n      mload(0x40)\n      dup1\n      dup4\n      sub\n      dup2\n      0x00\n      dup8\n      dup1\n      extcodesize\n      iszero\n      dup1\n      iszero\n      tag_195\n      jumpi\n      0x00\n      dup1\n      revert\n    tag_195:\n      pop\n      gas\n      call\n      iszero\n      dup1\n      iszero\n      tag_197\n      jumpi\n      returndatasize\n      0x00\n      dup1\n      returndatacopy\n      revert(0x00, returndatasize)\n    tag_197:\n      pop\n      pop\n      pop\n      pop\n      mload(0x40)\n      returndatasize\n      not(0x1f)\n      0x1f\n      dup3\n      add\n      and\n      dup3\n      add\n      dup1\n      0x40\n      mstore\n      pop\n      dup2\n      add\n      swap1\n      tag_198\n      swap2\n      swap1\n      tag_193\n      jump\t// in\n    tag_198:\n      pop\n        /* \"contracts/Web3BetsFO.sol\":3252:3878  function shareBetEarnings() external override {... */\n      pop\n      pop\n      pop\n      jump\t// out\n        /* \"contracts/Web3BetsFO.sol\":5841:6286  function isSystemAdmin(address _addr) public view override returns (bool) {... */\n    tag_83:\n      sub(shl(0xa0, 0x01), 0x01)\n        /* \"contracts/Web3BetsFO.sol\":5928:5941  admins[_addr] */\n      dup2\n      dup2\n      and\n        /* \"contracts/Web3BetsFO.sol\":5909:5913  bool */\n      0x00\n        /* \"contracts/Web3BetsFO.sol\":5928:5941  admins[_addr] */\n      swap1\n      dup2\n      mstore\n        /* \"contracts/Web3BetsFO.sol\":5928:5934  admins */\n      0x0d\n        /* \"contracts/Web3BetsFO.sol\":5928:5941  admins[_addr] */\n      0x20\n      mstore\n      0x40\n      dup2\n      keccak256\n      sload\n        /* \"contracts/Web3BetsFO.sol\":5909:5913  bool */\n      swap1\n      swap2\n        /* \"contracts/Web3BetsFO.sol\":5928:5941  admins[_addr] */\n      and\n        /* \"contracts/Web3BetsFO.sol\":5928:5955  admins[_addr] != address(0) */\n      iszero\n        /* \"contracts/Web3BetsFO.sol\":5925:6280  if(admins[_addr] != address(0)){... */\n      tag_148\n      jumpi\n        /* \"contracts/Web3BetsFO.sol\":5970:5980  bool found */\n      0x00\n        /* \"contracts/Web3BetsFO.sol\":6007:6016  uint256 i */\n      dup1\n        /* \"contracts/Web3BetsFO.sol\":6002:6194  for (uint256 i = 0; i < systemAdmins.length; i++) {... */\n    tag_201:\n        /* \"contracts/Web3BetsFO.sol\":6026:6038  systemAdmins */\n      0x0a\n        /* \"contracts/Web3BetsFO.sol\":6026:6045  systemAdmins.length */\n      sload\n        /* \"contracts/Web3BetsFO.sol\":6022:6045  i < systemAdmins.length */\n      dup2\n      lt\n        /* \"contracts/Web3BetsFO.sol\":6002:6194  for (uint256 i = 0; i < systemAdmins.length; i++) {... */\n      iszero\n      tag_150\n      jumpi\n        /* \"contracts/Web3BetsFO.sol\":6093:6098  _addr */\n      dup4\n      sub(shl(0xa0, 0x01), 0x01)\n        /* \"contracts/Web3BetsFO.sol\":6074:6098  systemAdmins[i] == _addr */\n      and\n        /* \"contracts/Web3BetsFO.sol\":6074:6086  systemAdmins */\n      0x0a\n        /* \"contracts/Web3BetsFO.sol\":6087:6088  i */\n      dup3\n        /* \"contracts/Web3BetsFO.sol\":6074:6089  systemAdmins[i] */\n      dup2\n      sload\n      dup2\n      lt\n      tag_204\n      jumpi\n      mstore(0x00, shl(0xe0, 0x4e487b71))\n      mstore(0x04, 0x32)\n      revert(0x00, 0x24)\n    tag_204:\n      0x00\n      swap2\n      dup3\n      mstore\n      0x20\n      swap1\n      swap2\n      keccak256\n      add\n      sload\n      sub(shl(0xa0, 0x01), 0x01)\n      and\n        /* \"contracts/Web3BetsFO.sol\":6074:6098  systemAdmins[i] == _addr */\n      eq\n        /* \"contracts/Web3BetsFO.sol\":6070:6180  if (systemAdmins[i] == _addr) {... */\n      iszero\n      tag_206\n      jumpi\n        /* \"contracts/Web3BetsFO.sol\":6130:6134  true */\n      0x01\n        /* \"contracts/Web3BetsFO.sol\":6122:6134  found = true */\n      swap2\n      pop\n        /* \"contracts/Web3BetsFO.sol\":6156:6161  break */\n      jump(tag_150)\n        /* \"contracts/Web3BetsFO.sol\":6070:6180  if (systemAdmins[i] == _addr) {... */\n    tag_206:\n        /* \"contracts/Web3BetsFO.sol\":6047:6050  i++ */\n      dup1\n      tag_207\n      dup2\n      tag_156\n      jump\t// in\n    tag_207:\n      swap2\n      pop\n      pop\n        /* \"contracts/Web3BetsFO.sol\":6002:6194  for (uint256 i = 0; i < systemAdmins.length; i++) {... */\n      jump(tag_201)\n        /* \"contracts/Web3BetsFO.sol\":2785:3246  function setVigPercentageShares(... */\n    tag_88:\n        /* \"contracts/Web3BetsFO.sol\":1497:1522  isSystemAdmin(msg.sender) */\n      tag_210\n        /* \"contracts/Web3BetsFO.sol\":1511:1521  msg.sender */\n      caller\n        /* \"contracts/Web3BetsFO.sol\":1497:1510  isSystemAdmin */\n      tag_83\n        /* \"contracts/Web3BetsFO.sol\":1497:1522  isSystemAdmin(msg.sender) */\n      jump\t// in\n    tag_210:\n        /* \"contracts/Web3BetsFO.sol\":1497:1553  isSystemAdmin(msg.sender) || msg.sender == contractOwner */\n      dup1\n      tag_211\n      jumpi\n      pop\n        /* \"contracts/Web3BetsFO.sol\":1540:1553  contractOwner */\n      and(sub(shl(0xa0, 0x01), 0x01), sload(0x00))\n        /* \"contracts/Web3BetsFO.sol\":1526:1536  msg.sender */\n      caller\n        /* \"contracts/Web3BetsFO.sol\":1526:1553  msg.sender == contractOwner */\n      eq\n        /* \"contracts/Web3BetsFO.sol\":1497:1553  isSystemAdmin(msg.sender) || msg.sender == contractOwner */\n    tag_211:\n        /* \"contracts/Web3BetsFO.sol\":1476:1621  require(... */\n      tag_212\n      jumpi\n      mload(0x40)\n      shl(0xe5, 0x461bcd)\n      dup2\n      mstore\n      0x04\n      add\n      tag_162\n      swap1\n      tag_163\n      jump\t// in\n    tag_212:\n        /* \"contracts/Web3BetsFO.sol\":2931:2934  100 */\n      0x64\n        /* \"contracts/Web3BetsFO.sol\":2923:2927  hVig */\n      dup3\n        /* \"contracts/Web3BetsFO.sol\":2923:2934  hVig <= 100 */\n      gt\n      iszero\n        /* \"contracts/Web3BetsFO.sol\":2923:2949  hVig <= 100 && eVig <= 100 */\n      dup1\n      iszero\n      tag_215\n      jumpi\n      pop\n        /* \"contracts/Web3BetsFO.sol\":2946:2949  100 */\n      0x64\n        /* \"contracts/Web3BetsFO.sol\":2938:2942  eVig */\n      dup2\n        /* \"contracts/Web3BetsFO.sol\":2938:2949  eVig <= 100 */\n      gt\n      iszero\n        /* \"contracts/Web3BetsFO.sol\":2923:2949  hVig <= 100 && eVig <= 100 */\n    tag_215:\n        /* \"contracts/Web3BetsFO.sol\":2902:3049  require(... */\n      tag_216\n      jumpi\n      mload(0x40)\n      shl(0xe5, 0x461bcd)\n      dup2\n      mstore\n        /* \"#utility.yul\":3008:3010   */\n      0x20\n        /* \"contracts/Web3BetsFO.sol\":2902:3049  require(... */\n      0x04\n      dup3\n      add\n        /* \"#utility.yul\":2990:3011   */\n      mstore\n        /* \"#utility.yul\":3047:3049   */\n      0x4a\n        /* \"#utility.yul\":3027:3045   */\n      0x24\n      dup3\n      add\n        /* \"#utility.yul\":3020:3050   */\n      mstore\n        /* \"#utility.yul\":3086:3120   */\n      0x5669672070657263656e746167657320736861726573206d7573742062652065\n        /* \"#utility.yul\":3066:3084   */\n      0x44\n      dup3\n      add\n        /* \"#utility.yul\":3059:3121   */\n      mstore\n        /* \"#utility.yul\":3157:3191   */\n      0x787072657373656420696e206120203020746f2031303020726174696f2e2045\n        /* \"#utility.yul\":3137:3155   */\n      0x64\n      dup3\n      add\n        /* \"#utility.yul\":3130:3192   */\n      mstore\n      shl(0xb4, 0x078616d706c653a20333)\n        /* \"#utility.yul\":3208:3227   */\n      0x84\n      dup3\n      add\n        /* \"#utility.yul\":3201:3242   */\n      mstore\n        /* \"#utility.yul\":3259:3278   */\n      0xa4\n      add\n        /* \"contracts/Web3BetsFO.sol\":2902:3049  require(... */\n      tag_162\n        /* \"#utility.yul\":2980:3284   */\n      jump\n        /* \"contracts/Web3BetsFO.sol\":2902:3049  require(... */\n    tag_216:\n        /* \"contracts/Web3BetsFO.sol\":3080:3091  hVig + eVig */\n      tag_219\n        /* \"contracts/Web3BetsFO.sol\":3087:3091  eVig */\n      dup2\n        /* \"contracts/Web3BetsFO.sol\":3080:3084  hVig */\n      dup4\n        /* \"contracts/Web3BetsFO.sol\":3080:3091  hVig + eVig */\n      tag_220\n      jump\t// in\n    tag_219:\n        /* \"contracts/Web3BetsFO.sol\":3096:3099  100 */\n      0x64\n        /* \"contracts/Web3BetsFO.sol\":3080:3099  hVig + eVig  == 100 */\n      eq\n        /* \"contracts/Web3BetsFO.sol\":3059:3182  require(... */\n      tag_221\n      jumpi\n      mload(0x40)\n      shl(0xe5, 0x461bcd)\n      dup2\n      mstore\n        /* \"#utility.yul\":2582:2584   */\n      0x20\n        /* \"contracts/Web3BetsFO.sol\":3059:3182  require(... */\n      0x04\n      dup3\n      add\n        /* \"#utility.yul\":2564:2585   */\n      mstore\n        /* \"#utility.yul\":2621:2623   */\n      0x39\n        /* \"#utility.yul\":2601:2619   */\n      0x24\n      dup3\n      add\n        /* \"#utility.yul\":2594:2624   */\n      mstore\n        /* \"#utility.yul\":2660:2694   */\n      0x5468652073756d206f6620616c6c205669672070657263656e74616765207368\n        /* \"#utility.yul\":2640:2658   */\n      0x44\n      dup3\n      add\n        /* \"#utility.yul\":2633:2695   */\n      mstore\n        /* \"#utility.yul\":2731:2758   */\n      0x61726573206d75737420626520657175616c20746f2031303000000000000000\n        /* \"#utility.yul\":2711:2729   */\n      0x64\n      dup3\n      add\n        /* \"#utility.yul\":2704:2759   */\n      mstore\n        /* \"#utility.yul\":2776:2795   */\n      0x84\n      add\n        /* \"contracts/Web3BetsFO.sol\":3059:3182  require(... */\n      tag_162\n        /* \"#utility.yul\":2554:2801   */\n      jump\n        /* \"contracts/Web3BetsFO.sol\":3059:3182  require(... */\n    tag_221:\n        /* \"contracts/Web3BetsFO.sol\":3193:3203  holdersVig */\n      0x07\n        /* \"contracts/Web3BetsFO.sol\":3193:3210  holdersVig = hVig */\n      swap2\n      swap1\n      swap2\n      sstore\n        /* \"contracts/Web3BetsFO.sol\":3220:3232  ecosystemVig */\n      0x08\n        /* \"contracts/Web3BetsFO.sol\":3220:3239  ecosystemVig = eVig */\n      sstore\n        /* \"contracts/Web3BetsFO.sol\":2785:3246  function setVigPercentageShares(... */\n      jump\t// out\n        /* \"contracts/Web3BetsFO.sol\":5447:5835  function removeBlacked(address _eventOwner) external onlySystemAdmin {... */\n    tag_91:\n        /* \"contracts/Web3BetsFO.sol\":1497:1522  isSystemAdmin(msg.sender) */\n      tag_225\n        /* \"contracts/Web3BetsFO.sol\":1511:1521  msg.sender */\n      caller\n        /* \"contracts/Web3BetsFO.sol\":1497:1510  isSystemAdmin */\n      tag_83\n        /* \"contracts/Web3BetsFO.sol\":1497:1522  isSystemAdmin(msg.sender) */\n      jump\t// in\n    tag_225:\n        /* \"contracts/Web3BetsFO.sol\":1497:1553  isSystemAdmin(msg.sender) || msg.sender == contractOwner */\n      dup1\n      tag_226\n      jumpi\n      pop\n        /* \"contracts/Web3BetsFO.sol\":1540:1553  contractOwner */\n      and(sub(shl(0xa0, 0x01), 0x01), sload(0x00))\n        /* \"contracts/Web3BetsFO.sol\":1526:1536  msg.sender */\n      caller\n        /* \"contracts/Web3BetsFO.sol\":1526:1553  msg.sender == contractOwner */\n      eq\n        /* \"contracts/Web3BetsFO.sol\":1497:1553  isSystemAdmin(msg.sender) || msg.sender == contractOwner */\n    tag_226:\n        /* \"contracts/Web3BetsFO.sol\":1476:1621  require(... */\n      tag_227\n      jumpi\n      mload(0x40)\n      shl(0xe5, 0x461bcd)\n      dup2\n      mstore\n      0x04\n      add\n      tag_162\n      swap1\n      tag_163\n      jump\t// in\n    tag_227:\n      sub(shl(0xa0, 0x01), 0x01)\n        /* \"contracts/Web3BetsFO.sol\":5535:5555  blacked[_eventOwner] */\n      dup2\n      dup2\n      and\n        /* \"contracts/Web3BetsFO.sol\":5567:5568  0 */\n      0x00\n        /* \"contracts/Web3BetsFO.sol\":5535:5555  blacked[_eventOwner] */\n      swap1\n      dup2\n      mstore\n        /* \"contracts/Web3BetsFO.sol\":5535:5542  blacked */\n      0x0f\n        /* \"contracts/Web3BetsFO.sol\":5535:5555  blacked[_eventOwner] */\n      0x20\n      mstore\n      0x40\n      swap1\n      keccak256\n      sload\n      and\n        /* \"contracts/Web3BetsFO.sol\":5526:5593  require (blacked[_eventOwner] != address(0), \"Invalid event owner\") */\n      tag_230\n      jumpi\n      mload(0x40)\n      shl(0xe5, 0x461bcd)\n      dup2\n      mstore\n      0x04\n      add\n      tag_162\n      swap1\n      tag_232\n      jump\t// in\n    tag_230:\n      sub(shl(0xa0, 0x01), 0x01)\n        /* \"contracts/Web3BetsFO.sol\":5619:5639  blacked[_eventOwner] */\n      dup2\n      and\n      0x00\n      swap1\n      dup2\n      mstore\n        /* \"contracts/Web3BetsFO.sol\":5619:5626  blacked */\n      0x0f\n        /* \"contracts/Web3BetsFO.sol\":5619:5639  blacked[_eventOwner] */\n      0x20\n      mstore\n      0x40\n      dup2\n      keccak256\n        /* \"contracts/Web3BetsFO.sol\":5612:5639  delete blacked[_eventOwner] */\n      dup1\n      sload\n      not(sub(shl(0xa0, 0x01), 0x01))\n      and\n      swap1\n      sstore\n        /* \"contracts/Web3BetsFO.sol\":5650:5829  for (uint256 i = 0; i < blackList.length; i++) {... */\n    tag_233:\n        /* \"contracts/Web3BetsFO.sol\":5674:5683  blackList */\n      0x0c\n        /* \"contracts/Web3BetsFO.sol\":5674:5690  blackList.length */\n      sload\n        /* \"contracts/Web3BetsFO.sol\":5670:5690  i < blackList.length */\n      dup2\n      lt\n        /* \"contracts/Web3BetsFO.sol\":5650:5829  for (uint256 i = 0; i < blackList.length; i++) {... */\n      iszero\n      tag_234\n      jumpi\n        /* \"contracts/Web3BetsFO.sol\":5731:5742  _eventOwner */\n      dup2\n      sub(shl(0xa0, 0x01), 0x01)\n        /* \"contracts/Web3BetsFO.sol\":5715:5742  blackList[i] == _eventOwner */\n      and\n        /* \"contracts/Web3BetsFO.sol\":5715:5724  blackList */\n      0x0c\n        /* \"contracts/Web3BetsFO.sol\":5725:5726  i */\n      dup3\n        /* \"contracts/Web3BetsFO.sol\":5715:5727  blackList[i] */\n      dup2\n      sload\n      dup2\n      lt\n      tag_236\n      jumpi\n      mstore(0x00, shl(0xe0, 0x4e487b71))\n      mstore(0x04, 0x32)\n      revert(0x00, 0x24)\n    tag_236:\n      0x00\n      swap2\n      dup3\n      mstore\n      0x20\n      swap1\n      swap2\n      keccak256\n      add\n      sload\n      sub(shl(0xa0, 0x01), 0x01)\n      and\n        /* \"contracts/Web3BetsFO.sol\":5715:5742  blackList[i] == _eventOwner */\n      eq\n        /* \"contracts/Web3BetsFO.sol\":5711:5819  if (blackList[i] == _eventOwner) {... */\n      iszero\n      tag_238\n      jumpi\n        /* \"contracts/Web3BetsFO.sol\":5769:5778  blackList */\n      0x0c\n        /* \"contracts/Web3BetsFO.sol\":5779:5780  i */\n      dup2\n        /* \"contracts/Web3BetsFO.sol\":5769:5781  blackList[i] */\n      dup2\n      sload\n      dup2\n      lt\n      tag_239\n      jumpi\n      mstore(0x00, shl(0xe0, 0x4e487b71))\n      mstore(0x04, 0x32)\n      revert(0x00, 0x24)\n    tag_239:\n      0x00\n      swap2\n      dup3\n      mstore\n      0x20\n      swap1\n      swap2\n      keccak256\n      add\n        /* \"contracts/Web3BetsFO.sol\":5762:5781  delete blackList[i] */\n      dup1\n      sload\n      not(sub(shl(0xa0, 0x01), 0x01))\n      and\n      swap1\n      sstore\n        /* \"contracts/Web3BetsFO.sol\":5650:5829  for (uint256 i = 0; i < blackList.length; i++) {... */\n      pop\n        /* \"contracts/Web3BetsFO.sol\":5447:5835  function removeBlacked(address _eventOwner) external onlySystemAdmin {... */\n      pop\n      jump\t// out\n        /* \"contracts/Web3BetsFO.sol\":5711:5819  if (blackList[i] == _eventOwner) {... */\n    tag_238:\n        /* \"contracts/Web3BetsFO.sol\":5692:5695  i++ */\n      dup1\n      tag_241\n      dup2\n      tag_156\n      jump\t// in\n    tag_241:\n      swap2\n      pop\n      pop\n        /* \"contracts/Web3BetsFO.sol\":5650:5829  for (uint256 i = 0; i < blackList.length; i++) {... */\n      jump(tag_233)\n    tag_234:\n      pop\n        /* \"contracts/Web3BetsFO.sol\":5447:5835  function removeBlacked(address _eventOwner) external onlySystemAdmin {... */\n      pop\n      jump\t// out\n        /* \"contracts/Web3BetsFO.sol\":1030:1056  address[] public blackList */\n    tag_97:\n      0x0c\n      dup2\n      dup2\n      sload\n      dup2\n      lt\n      tag_145\n      jumpi\n      0x00\n      dup1\n      revert\n        /* \"contracts/Web3BetsFO.sol\":5258:5441  function addBlacked(address _addr)... */\n    tag_115:\n        /* \"contracts/Web3BetsFO.sol\":1497:1522  isSystemAdmin(msg.sender) */\n      tag_245\n        /* \"contracts/Web3BetsFO.sol\":1511:1521  msg.sender */\n      caller\n        /* \"contracts/Web3BetsFO.sol\":1497:1510  isSystemAdmin */\n      tag_83\n        /* \"contracts/Web3BetsFO.sol\":1497:1522  isSystemAdmin(msg.sender) */\n      jump\t// in\n    tag_245:\n        /* \"contracts/Web3BetsFO.sol\":1497:1553  isSystemAdmin(msg.sender) || msg.sender == contractOwner */\n      dup1\n      tag_246\n      jumpi\n      pop\n        /* \"contracts/Web3BetsFO.sol\":1540:1553  contractOwner */\n      and(sub(shl(0xa0, 0x01), 0x01), sload(0x00))\n        /* \"contracts/Web3BetsFO.sol\":1526:1536  msg.sender */\n      caller\n        /* \"contracts/Web3BetsFO.sol\":1526:1553  msg.sender == contractOwner */\n      eq\n        /* \"contracts/Web3BetsFO.sol\":1497:1553  isSystemAdmin(msg.sender) || msg.sender == contractOwner */\n    tag_246:\n        /* \"contracts/Web3BetsFO.sol\":1476:1621  require(... */\n      tag_247\n      jumpi\n      mload(0x40)\n      shl(0xe5, 0x461bcd)\n      dup2\n      mstore\n      0x04\n      add\n      tag_162\n      swap1\n      tag_163\n      jump\t// in\n    tag_247:\n      sub(shl(0xa0, 0x01), 0x01)\n        /* \"contracts/Web3BetsFO.sol\":1976:1990  blacked[_addr] */\n      dup1\n      dup3\n      and\n        /* \"contracts/Web3BetsFO.sol\":2002:2003  0 */\n      0x00\n        /* \"contracts/Web3BetsFO.sol\":1976:1990  blacked[_addr] */\n      swap1\n      dup2\n      mstore\n        /* \"contracts/Web3BetsFO.sol\":1976:1983  blacked */\n      0x0f\n        /* \"contracts/Web3BetsFO.sol\":1976:1990  blacked[_addr] */\n      0x20\n      mstore\n      0x40\n      swap1\n      keccak256\n      sload\n        /* \"contracts/Web3BetsFO.sol\":5354:5359  _addr */\n      dup3\n      swap2\n        /* \"contracts/Web3BetsFO.sol\":1976:1990  blacked[_addr] */\n      and\n        /* \"contracts/Web3BetsFO.sol\":1976:2004  blacked[_addr] == address(0) */\n      iszero\n        /* \"contracts/Web3BetsFO.sol\":1968:2029  require(blacked[_addr] == address(0), \"already in blacklist\") */\n      tag_250\n      jumpi\n      mload(0x40)\n      shl(0xe5, 0x461bcd)\n      dup2\n      mstore\n        /* \"#utility.yul\":6240:6242   */\n      0x20\n        /* \"contracts/Web3BetsFO.sol\":1968:2029  require(blacked[_addr] == address(0), \"already in blacklist\") */\n      0x04\n      dup3\n      add\n        /* \"#utility.yul\":6222:6243   */\n      mstore\n        /* \"#utility.yul\":6279:6281   */\n      0x14\n        /* \"#utility.yul\":6259:6277   */\n      0x24\n      dup3\n      add\n        /* \"#utility.yul\":6252:6282   */\n      mstore\n      shl(0x62, 0x185b1c9958591e481a5b88189b1858dadb1a5cdd)\n        /* \"#utility.yul\":6298:6316   */\n      0x44\n      dup3\n      add\n        /* \"#utility.yul\":6291:6341   */\n      mstore\n        /* \"#utility.yul\":6358:6376   */\n      0x64\n      add\n        /* \"contracts/Web3BetsFO.sol\":1968:2029  require(blacked[_addr] == address(0), \"already in blacklist\") */\n      tag_162\n        /* \"#utility.yul\":6212:6382   */\n      jump\n        /* \"contracts/Web3BetsFO.sol\":1968:2029  require(blacked[_addr] == address(0), \"already in blacklist\") */\n    tag_250:\n      pop\n        /* \"contracts/Web3BetsFO.sol\":5375:5386  eventAdmins */\n      0x0b\n        /* \"contracts/Web3BetsFO.sol\":5375:5398  eventAdmins.push(_addr) */\n      dup1\n      sload\n      0x01\n      dup2\n      add\n      swap1\n      swap2\n      sstore\n      0x0175b7a638427703f0dbe7bb9bbf987a2551717b34e79f33b5b1008d1fa01db9\n      add\n      dup1\n      sload\n      sub(shl(0xa0, 0x01), 0x01)\n      swap1\n      swap3\n      and\n      not(sub(shl(0xa0, 0x01), 0x01))\n      swap3\n      dup4\n      and\n      dup2\n      or\n      swap1\n      swap2\n      sstore\n      0x00\n        /* \"contracts/Web3BetsFO.sol\":5408:5426  eventOwners[_addr] */\n      dup2\n      dup2\n      mstore\n        /* \"contracts/Web3BetsFO.sol\":5408:5419  eventOwners */\n      0x0e\n        /* \"contracts/Web3BetsFO.sol\":5375:5398  eventAdmins.push(_addr) */\n      0x20\n        /* \"contracts/Web3BetsFO.sol\":5408:5426  eventOwners[_addr] */\n      mstore\n      0x40\n      swap1\n      keccak256\n        /* \"contracts/Web3BetsFO.sol\":5408:5434  eventOwners[_addr] = _addr */\n      dup1\n      sload\n      swap1\n      swap3\n      and\n      or\n      swap1\n      sstore\n        /* \"contracts/Web3BetsFO.sol\":5258:5441  function addBlacked(address _addr)... */\n      jump\t// out\n        /* \"contracts/Web3BetsFO.sol\":2330:2518  function setFactory(address _event,address _market,address _bet) external onlySystemAdmin {... */\n    tag_118:\n        /* \"contracts/Web3BetsFO.sol\":1497:1522  isSystemAdmin(msg.sender) */\n      tag_256\n        /* \"contracts/Web3BetsFO.sol\":1511:1521  msg.sender */\n      caller\n        /* \"contracts/Web3BetsFO.sol\":1497:1510  isSystemAdmin */\n      tag_83\n        /* \"contracts/Web3BetsFO.sol\":1497:1522  isSystemAdmin(msg.sender) */\n      jump\t// in\n    tag_256:\n        /* \"contracts/Web3BetsFO.sol\":1497:1553  isSystemAdmin(msg.sender) || msg.sender == contractOwner */\n      dup1\n      tag_257\n      jumpi\n      pop\n        /* \"contracts/Web3BetsFO.sol\":1540:1553  contractOwner */\n      and(sub(shl(0xa0, 0x01), 0x01), sload(0x00))\n        /* \"contracts/Web3BetsFO.sol\":1526:1536  msg.sender */\n      caller\n        /* \"contracts/Web3BetsFO.sol\":1526:1553  msg.sender == contractOwner */\n      eq\n        /* \"contracts/Web3BetsFO.sol\":1497:1553  isSystemAdmin(msg.sender) || msg.sender == contractOwner */\n    tag_257:\n        /* \"contracts/Web3BetsFO.sol\":1476:1621  require(... */\n      tag_258\n      jumpi\n      mload(0x40)\n      shl(0xe5, 0x461bcd)\n      dup2\n      mstore\n      0x04\n      add\n      tag_162\n      swap1\n      tag_163\n      jump\t// in\n    tag_258:\n        /* \"contracts/Web3BetsFO.sol\":2430:2442  eventFactory */\n      0x04\n        /* \"contracts/Web3BetsFO.sol\":2430:2451  eventFactory = _event */\n      dup1\n      sload\n      sub(shl(0xa0, 0x01), 0x01)\n      swap5\n      dup6\n      and\n      not(sub(shl(0xa0, 0x01), 0x01))\n      swap2\n      dup3\n      and\n      or\n      swap1\n      swap2\n      sstore\n        /* \"contracts/Web3BetsFO.sol\":2461:2474  marketFactory */\n      0x05\n        /* \"contracts/Web3BetsFO.sol\":2461:2484  marketFactory = _market */\n      dup1\n      sload\n      swap4\n      dup6\n      and\n      swap4\n      dup3\n      and\n      swap4\n      swap1\n      swap4\n      or\n      swap1\n      swap3\n      sstore\n        /* \"contracts/Web3BetsFO.sol\":2494:2504  betFactory */\n      0x06\n        /* \"contracts/Web3BetsFO.sol\":2494:2511  betFactory = _bet */\n      dup1\n      sload\n      swap2\n      swap1\n      swap4\n      and\n      swap2\n      and\n      or\n      swap1\n      sstore\n        /* \"contracts/Web3BetsFO.sol\":2330:2518  function setFactory(address _event,address _market,address _bet) external onlySystemAdmin {... */\n      jump\t// out\n        /* \"contracts/Web3BetsFO.sol\":6292:6739  function isEventAdmin(address _addr) public view override returns (bool) {... */\n    tag_121:\n      sub(shl(0xa0, 0x01), 0x01)\n        /* \"contracts/Web3BetsFO.sol\":6378:6396  eventOwners[_addr] */\n      dup2\n      dup2\n      and\n        /* \"contracts/Web3BetsFO.sol\":6359:6363  bool */\n      0x00\n        /* \"contracts/Web3BetsFO.sol\":6378:6396  eventOwners[_addr] */\n      swap1\n      dup2\n      mstore\n        /* \"contracts/Web3BetsFO.sol\":6378:6389  eventOwners */\n      0x0e\n        /* \"contracts/Web3BetsFO.sol\":6378:6396  eventOwners[_addr] */\n      0x20\n      mstore\n      0x40\n      dup2\n      keccak256\n      sload\n        /* \"contracts/Web3BetsFO.sol\":6359:6363  bool */\n      swap1\n      swap2\n        /* \"contracts/Web3BetsFO.sol\":6378:6396  eventOwners[_addr] */\n      and\n        /* \"contracts/Web3BetsFO.sol\":6378:6410  eventOwners[_addr] != address(0) */\n      iszero\n        /* \"contracts/Web3BetsFO.sol\":6375:6733  if(eventOwners[_addr] != address(0)){... */\n      tag_148\n      jumpi\n        /* \"contracts/Web3BetsFO.sol\":6425:6435  bool found */\n      0x00\n        /* \"contracts/Web3BetsFO.sol\":6462:6471  uint256 i */\n      dup1\n        /* \"contracts/Web3BetsFO.sol\":6457:6647  for (uint256 i = 0; i < eventAdmins.length; i++) {... */\n    tag_263:\n        /* \"contracts/Web3BetsFO.sol\":6481:6492  eventAdmins */\n      0x0b\n        /* \"contracts/Web3BetsFO.sol\":6481:6499  eventAdmins.length */\n      sload\n        /* \"contracts/Web3BetsFO.sol\":6477:6499  i < eventAdmins.length */\n      dup2\n      lt\n        /* \"contracts/Web3BetsFO.sol\":6457:6647  for (uint256 i = 0; i < eventAdmins.length; i++) {... */\n      iszero\n      tag_150\n      jumpi\n        /* \"contracts/Web3BetsFO.sol\":6546:6551  _addr */\n      dup4\n      sub(shl(0xa0, 0x01), 0x01)\n        /* \"contracts/Web3BetsFO.sol\":6528:6551  eventAdmins[i] == _addr */\n      and\n        /* \"contracts/Web3BetsFO.sol\":6528:6539  eventAdmins */\n      0x0b\n        /* \"contracts/Web3BetsFO.sol\":6540:6541  i */\n      dup3\n        /* \"contracts/Web3BetsFO.sol\":6528:6542  eventAdmins[i] */\n      dup2\n      sload\n      dup2\n      lt\n      tag_266\n      jumpi\n      mstore(0x00, shl(0xe0, 0x4e487b71))\n      mstore(0x04, 0x32)\n      revert(0x00, 0x24)\n    tag_266:\n      0x00\n      swap2\n      dup3\n      mstore\n      0x20\n      swap1\n      swap2\n      keccak256\n      add\n      sload\n      sub(shl(0xa0, 0x01), 0x01)\n      and\n        /* \"contracts/Web3BetsFO.sol\":6528:6551  eventAdmins[i] == _addr */\n      eq\n        /* \"contracts/Web3BetsFO.sol\":6524:6633  if (eventAdmins[i] == _addr) {... */\n      iszero\n      tag_268\n      jumpi\n        /* \"contracts/Web3BetsFO.sol\":6583:6587  true */\n      0x01\n        /* \"contracts/Web3BetsFO.sol\":6575:6587  found = true */\n      swap2\n      pop\n        /* \"contracts/Web3BetsFO.sol\":6609:6614  break */\n      jump(tag_150)\n        /* \"contracts/Web3BetsFO.sol\":6524:6633  if (eventAdmins[i] == _addr) {... */\n    tag_268:\n        /* \"contracts/Web3BetsFO.sol\":6501:6504  i++ */\n      dup1\n      tag_269\n      dup2\n      tag_156\n      jump\t// in\n    tag_269:\n      swap2\n      pop\n      pop\n        /* \"contracts/Web3BetsFO.sol\":6457:6647  for (uint256 i = 0; i < eventAdmins.length; i++) {... */\n      jump(tag_263)\n        /* \"contracts/Web3BetsFO.sol\":996:1024  address[] public eventAdmins */\n    tag_128:\n      0x0b\n      dup2\n      dup2\n      sload\n      dup2\n      lt\n      tag_145\n      jumpi\n      0x00\n      dup1\n      revert\n        /* \"contracts/Web3BetsFO.sol\":4076:4472  function deleteSystemAdmin(address _systemAdmin) external onlyUser {... */\n    tag_132:\n        /* \"contracts/Web3BetsFO.sol\":1337:1350  contractOwner */\n      and(sub(shl(0xa0, 0x01), 0x01), sload(0x00))\n        /* \"contracts/Web3BetsFO.sol\":1323:1333  msg.sender */\n      caller\n        /* \"contracts/Web3BetsFO.sol\":1323:1350  msg.sender == contractOwner */\n      eq\n        /* \"contracts/Web3BetsFO.sol\":1302:1418  require(... */\n      tag_274\n      jumpi\n      mload(0x40)\n      shl(0xe5, 0x461bcd)\n      dup2\n      mstore\n      0x04\n      add\n      tag_162\n      swap1\n      tag_163\n      jump\t// in\n    tag_274:\n      sub(shl(0xa0, 0x01), 0x01)\n        /* \"contracts/Web3BetsFO.sol\":4162:4182  admins[_systemAdmin] */\n      dup2\n      dup2\n      and\n        /* \"contracts/Web3BetsFO.sol\":4194:4195  0 */\n      0x00\n        /* \"contracts/Web3BetsFO.sol\":4162:4182  admins[_systemAdmin] */\n      swap1\n      dup2\n      mstore\n        /* \"contracts/Web3BetsFO.sol\":4162:4168  admins */\n      0x0d\n        /* \"contracts/Web3BetsFO.sol\":4162:4182  admins[_systemAdmin] */\n      0x20\n      mstore\n      0x40\n      swap1\n      keccak256\n      sload\n      and\n        /* \"contracts/Web3BetsFO.sol\":4153:4220  require (admins[_systemAdmin] != address(0), \"Invalid event owner\") */\n      tag_277\n      jumpi\n      mload(0x40)\n      shl(0xe5, 0x461bcd)\n      dup2\n      mstore\n      0x04\n      add\n      tag_162\n      swap1\n      tag_232\n      jump\t// in\n    tag_277:\n      sub(shl(0xa0, 0x01), 0x01)\n        /* \"contracts/Web3BetsFO.sol\":4246:4266  admins[_systemAdmin] */\n      dup2\n      and\n      0x00\n      swap1\n      dup2\n      mstore\n        /* \"contracts/Web3BetsFO.sol\":4246:4252  admins */\n      0x0d\n        /* \"contracts/Web3BetsFO.sol\":4246:4266  admins[_systemAdmin] */\n      0x20\n      mstore\n      0x40\n      dup2\n      keccak256\n        /* \"contracts/Web3BetsFO.sol\":4239:4266  delete admins[_systemAdmin] */\n      dup1\n      sload\n      not(sub(shl(0xa0, 0x01), 0x01))\n      and\n      swap1\n      sstore\n        /* \"contracts/Web3BetsFO.sol\":4277:4466  for (uint256 i = 0; i < systemAdmins.length; i++) {... */\n    tag_279:\n        /* \"contracts/Web3BetsFO.sol\":4301:4313  systemAdmins */\n      0x0a\n        /* \"contracts/Web3BetsFO.sol\":4301:4320  systemAdmins.length */\n      sload\n        /* \"contracts/Web3BetsFO.sol\":4297:4320  i < systemAdmins.length */\n      dup2\n      lt\n        /* \"contracts/Web3BetsFO.sol\":4277:4466  for (uint256 i = 0; i < systemAdmins.length; i++) {... */\n      iszero\n      tag_234\n      jumpi\n        /* \"contracts/Web3BetsFO.sol\":4364:4376  _systemAdmin */\n      dup2\n      sub(shl(0xa0, 0x01), 0x01)\n        /* \"contracts/Web3BetsFO.sol\":4345:4376  systemAdmins[i] == _systemAdmin */\n      and\n        /* \"contracts/Web3BetsFO.sol\":4345:4357  systemAdmins */\n      0x0a\n        /* \"contracts/Web3BetsFO.sol\":4358:4359  i */\n      dup3\n        /* \"contracts/Web3BetsFO.sol\":4345:4360  systemAdmins[i] */\n      dup2\n      sload\n      dup2\n      lt\n      tag_282\n      jumpi\n      mstore(0x00, shl(0xe0, 0x4e487b71))\n      mstore(0x04, 0x32)\n      revert(0x00, 0x24)\n    tag_282:\n      0x00\n      swap2\n      dup3\n      mstore\n      0x20\n      swap1\n      swap2\n      keccak256\n      add\n      sload\n      sub(shl(0xa0, 0x01), 0x01)\n      and\n        /* \"contracts/Web3BetsFO.sol\":4345:4376  systemAdmins[i] == _systemAdmin */\n      eq\n        /* \"contracts/Web3BetsFO.sol\":4341:4456  if (systemAdmins[i] == _systemAdmin) {... */\n      iszero\n      tag_284\n      jumpi\n        /* \"contracts/Web3BetsFO.sol\":4403:4415  systemAdmins */\n      0x0a\n        /* \"contracts/Web3BetsFO.sol\":4416:4417  i */\n      dup2\n        /* \"contracts/Web3BetsFO.sol\":4403:4418  systemAdmins[i] */\n      dup2\n      sload\n      dup2\n      lt\n      tag_239\n      jumpi\n      mstore(0x00, shl(0xe0, 0x4e487b71))\n      mstore(0x04, 0x32)\n      revert(0x00, 0x24)\n        /* \"contracts/Web3BetsFO.sol\":4341:4456  if (systemAdmins[i] == _systemAdmin) {... */\n    tag_284:\n        /* \"contracts/Web3BetsFO.sol\":4322:4325  i++ */\n      dup1\n      tag_287\n      dup2\n      tag_156\n      jump\t// in\n    tag_287:\n      swap2\n      pop\n      pop\n        /* \"contracts/Web3BetsFO.sol\":4277:4466  for (uint256 i = 0; i < systemAdmins.length; i++) {... */\n      jump(tag_279)\n        /* \"contracts/Web3BetsFO.sol\":2524:2779  function setVigPercentage(uint256 _percentage) external onlySystemAdmin {... */\n    tag_135:\n        /* \"contracts/Web3BetsFO.sol\":1497:1522  isSystemAdmin(msg.sender) */\n      tag_289\n        /* \"contracts/Web3BetsFO.sol\":1511:1521  msg.sender */\n      caller\n        /* \"contracts/Web3BetsFO.sol\":1497:1510  isSystemAdmin */\n      tag_83\n        /* \"contracts/Web3BetsFO.sol\":1497:1522  isSystemAdmin(msg.sender) */\n      jump\t// in\n    tag_289:\n        /* \"contracts/Web3BetsFO.sol\":1497:1553  isSystemAdmin(msg.sender) || msg.sender == contractOwner */\n      dup1\n      tag_290\n      jumpi\n      pop\n        /* \"contracts/Web3BetsFO.sol\":1540:1553  contractOwner */\n      and(sub(shl(0xa0, 0x01), 0x01), sload(0x00))\n        /* \"contracts/Web3BetsFO.sol\":1526:1536  msg.sender */\n      caller\n        /* \"contracts/Web3BetsFO.sol\":1526:1553  msg.sender == contractOwner */\n      eq\n        /* \"contracts/Web3BetsFO.sol\":1497:1553  isSystemAdmin(msg.sender) || msg.sender == contractOwner */\n    tag_290:\n        /* \"contracts/Web3BetsFO.sol\":1476:1621  require(... */\n      tag_291\n      jumpi\n      mload(0x40)\n      shl(0xe5, 0x461bcd)\n      dup2\n      mstore\n      0x04\n      add\n      tag_162\n      swap1\n      tag_163\n      jump\t// in\n    tag_291:\n        /* \"contracts/Web3BetsFO.sol\":2641:2643  10 */\n      0x0a\n        /* \"contracts/Web3BetsFO.sol\":2627:2638  _percentage */\n      dup2\n        /* \"contracts/Web3BetsFO.sol\":2627:2643  _percentage < 10 */\n      lt\n        /* \"contracts/Web3BetsFO.sol\":2606:2735  require(... */\n      tag_294\n      jumpi\n      mload(0x40)\n      shl(0xe5, 0x461bcd)\n      dup2\n      mstore\n        /* \"#utility.yul\":4249:4251   */\n      0x20\n        /* \"contracts/Web3BetsFO.sol\":2606:2735  require(... */\n      0x04\n      dup3\n      add\n        /* \"#utility.yul\":4231:4252   */\n      mstore\n        /* \"#utility.yul\":4288:4290   */\n      0x42\n        /* \"#utility.yul\":4268:4286   */\n      0x24\n      dup3\n      add\n        /* \"#utility.yul\":4261:4291   */\n      mstore\n        /* \"#utility.yul\":4327:4361   */\n      0x5669672070657263656e74616765206d75737420626520657870726573736564\n        /* \"#utility.yul\":4307:4325   */\n      0x44\n      dup3\n      add\n        /* \"#utility.yul\":4300:4362   */\n      mstore\n        /* \"#utility.yul\":4398:4432   */\n      0x20696e203020746f2031302070657263656e746167652e204578616d706c653a\n        /* \"#utility.yul\":4378:4396   */\n      0x64\n      dup3\n      add\n        /* \"#utility.yul\":4371:4433   */\n      mstore\n      shl(0xf1, 0x101b)\n        /* \"#utility.yul\":4449:4468   */\n      0x84\n      dup3\n      add\n        /* \"#utility.yul\":4442:4475   */\n      mstore\n        /* \"#utility.yul\":4492:4511   */\n      0xa4\n      add\n        /* \"contracts/Web3BetsFO.sol\":2606:2735  require(... */\n      tag_162\n        /* \"#utility.yul\":4221:4517   */\n      jump\n        /* \"contracts/Web3BetsFO.sol\":2606:2735  require(... */\n    tag_294:\n        /* \"contracts/Web3BetsFO.sol\":2745:2758  vigPercentage */\n      0x09\n        /* \"contracts/Web3BetsFO.sol\":2745:2772  vigPercentage = _percentage */\n      sstore\n        /* \"contracts/Web3BetsFO.sol\":2524:2779  function setVigPercentage(uint256 _percentage) external onlySystemAdmin {... */\n      jump\t// out\n        /* \"contracts/Web3BetsFO.sol\":4482:4837  function addEventAdmin(address _addr)... */\n    tag_138:\n        /* \"contracts/Web3BetsFO.sol\":1497:1522  isSystemAdmin(msg.sender) */\n      tag_298\n        /* \"contracts/Web3BetsFO.sol\":1511:1521  msg.sender */\n      caller\n        /* \"contracts/Web3BetsFO.sol\":1497:1510  isSystemAdmin */\n      tag_83\n        /* \"contracts/Web3BetsFO.sol\":1497:1522  isSystemAdmin(msg.sender) */\n      jump\t// in\n    tag_298:\n        /* \"contracts/Web3BetsFO.sol\":1497:1553  isSystemAdmin(msg.sender) || msg.sender == contractOwner */\n      dup1\n      tag_299\n      jumpi\n      pop\n        /* \"contracts/Web3BetsFO.sol\":1540:1553  contractOwner */\n      and(sub(shl(0xa0, 0x01), 0x01), sload(0x00))\n        /* \"contracts/Web3BetsFO.sol\":1526:1536  msg.sender */\n      caller\n        /* \"contracts/Web3BetsFO.sol\":1526:1553  msg.sender == contractOwner */\n      eq\n        /* \"contracts/Web3BetsFO.sol\":1497:1553  isSystemAdmin(msg.sender) || msg.sender == contractOwner */\n    tag_299:\n        /* \"contracts/Web3BetsFO.sol\":1476:1621  require(... */\n      tag_300\n      jumpi\n      mload(0x40)\n      shl(0xe5, 0x461bcd)\n      dup2\n      mstore\n      0x04\n      add\n      tag_162\n      swap1\n      tag_163\n      jump\t// in\n    tag_300:\n      sub(shl(0xa0, 0x01), 0x01)\n        /* \"contracts/Web3BetsFO.sol\":1840:1858  eventOwners[_addr] */\n      dup1\n      dup3\n      and\n        /* \"contracts/Web3BetsFO.sol\":1870:1871  0 */\n      0x00\n        /* \"contracts/Web3BetsFO.sol\":1840:1858  eventOwners[_addr] */\n      swap1\n      dup2\n      mstore\n        /* \"contracts/Web3BetsFO.sol\":1840:1851  eventOwners */\n      0x0e\n        /* \"contracts/Web3BetsFO.sol\":1840:1858  eventOwners[_addr] */\n      0x20\n      mstore\n      0x40\n      swap1\n      keccak256\n      sload\n        /* \"contracts/Web3BetsFO.sol\":4586:4591  _addr */\n      dup3\n      swap2\n        /* \"contracts/Web3BetsFO.sol\":1840:1858  eventOwners[_addr] */\n      and\n        /* \"contracts/Web3BetsFO.sol\":1840:1872  eventOwners[_addr] == address(0) */\n      iszero\n        /* \"contracts/Web3BetsFO.sol\":1832:1899  require(eventOwners[_addr] == address(0), \"already an event admin\") */\n      tag_303\n      jumpi\n      mload(0x40)\n      shl(0xe5, 0x461bcd)\n      dup2\n      mstore\n        /* \"#utility.yul\":3898:3900   */\n      0x20\n        /* \"contracts/Web3BetsFO.sol\":1832:1899  require(eventOwners[_addr] == address(0), \"already an event admin\") */\n      0x04\n      dup3\n      add\n        /* \"#utility.yul\":3880:3901   */\n      mstore\n        /* \"#utility.yul\":3937:3939   */\n      0x16\n        /* \"#utility.yul\":3917:3935   */\n      0x24\n      dup3\n      add\n        /* \"#utility.yul\":3910:3940   */\n      mstore\n      shl(0x51, 0x30b63932b0b23c9030b71032bb32b73a1030b236b4b7)\n        /* \"#utility.yul\":3956:3974   */\n      0x44\n      dup3\n      add\n        /* \"#utility.yul\":3949:4001   */\n      mstore\n        /* \"#utility.yul\":4018:4036   */\n      0x64\n      add\n        /* \"contracts/Web3BetsFO.sol\":1832:1899  require(eventOwners[_addr] == address(0), \"already an event admin\") */\n      tag_162\n        /* \"#utility.yul\":3870:4042   */\n      jump\n        /* \"contracts/Web3BetsFO.sol\":1832:1899  require(eventOwners[_addr] == address(0), \"already an event admin\") */\n    tag_303:\n        /* \"contracts/Web3BetsFO.sol\":4615:4629  holdersAddress */\n      and(sub(shl(0xa0, 0x01), 0x01), sload(0x01))\n        /* \"contracts/Web3BetsFO.sol\":4615:4643  holdersAddress == address(0) */\n      iszero\n      dup1\n        /* \"contracts/Web3BetsFO.sol\":4615:4677  holdersAddress == address(0) || ecosystemAddress == address(0) */\n      tag_307\n      jumpi\n      pop\n        /* \"contracts/Web3BetsFO.sol\":4647:4663  ecosystemAddress */\n      and(sub(shl(0xa0, 0x01), 0x01), sload(0x02))\n        /* \"contracts/Web3BetsFO.sol\":4647:4677  ecosystemAddress == address(0) */\n      iszero\n        /* \"contracts/Web3BetsFO.sol\":4615:4677  holdersAddress == address(0) || ecosystemAddress == address(0) */\n    tag_307:\n        /* \"contracts/Web3BetsFO.sol\":4607:4760  require(holdersAddress == address(0) || ecosystemAddress == address(0), \"you must set holders and ecosystmeAddress addresses before adding event owners\") */\n      tag_250\n      jumpi\n      mload(0x40)\n      shl(0xe5, 0x461bcd)\n      dup2\n      mstore\n        /* \"#utility.yul\":6993:6995   */\n      0x20\n        /* \"contracts/Web3BetsFO.sol\":4607:4760  require(holdersAddress == address(0) || ecosystemAddress == address(0), \"you must set holders and ecosystmeAddress addresses before adding event owners\") */\n      0x04\n      dup3\n      add\n        /* \"#utility.yul\":6975:6996   */\n      mstore\n        /* \"#utility.yul\":7032:7034   */\n      0x4e\n        /* \"#utility.yul\":7012:7030   */\n      0x24\n      dup3\n      add\n        /* \"#utility.yul\":7005:7035   */\n      mstore\n        /* \"#utility.yul\":7071:7105   */\n      0x796f75206d7573742073657420686f6c6465727320616e642065636f73797374\n        /* \"#utility.yul\":7051:7069   */\n      0x44\n      dup3\n      add\n        /* \"#utility.yul\":7044:7106   */\n      mstore\n        /* \"#utility.yul\":7142:7176   */\n      0x6d654164647265737320616464726573736573206265666f726520616464696e\n        /* \"#utility.yul\":7122:7140   */\n      0x64\n      dup3\n      add\n        /* \"#utility.yul\":7115:7177   */\n      mstore\n      shl(0x90, 0x67206576656e74206f776e657273)\n        /* \"#utility.yul\":7193:7212   */\n      0x84\n      dup3\n      add\n        /* \"#utility.yul\":7186:7231   */\n      mstore\n        /* \"#utility.yul\":7248:7267   */\n      0xa4\n      add\n        /* \"contracts/Web3BetsFO.sol\":4607:4760  require(holdersAddress == address(0) || ecosystemAddress == address(0), \"you must set holders and ecosystmeAddress addresses before adding event owners\") */\n      tag_162\n        /* \"#utility.yul\":6965:7273   */\n      jump\n        /* \"contracts/Web3BetsFO.sol\":3888:4070  function addSystemAdmin(address _addr)... */\n    tag_141:\n        /* \"contracts/Web3BetsFO.sol\":1337:1350  contractOwner */\n      and(sub(shl(0xa0, 0x01), 0x01), sload(0x00))\n        /* \"contracts/Web3BetsFO.sol\":1323:1333  msg.sender */\n      caller\n        /* \"contracts/Web3BetsFO.sol\":1323:1350  msg.sender == contractOwner */\n      eq\n        /* \"contracts/Web3BetsFO.sol\":1302:1418  require(... */\n      tag_313\n      jumpi\n      mload(0x40)\n      shl(0xe5, 0x461bcd)\n      dup2\n      mstore\n      0x04\n      add\n      tag_162\n      swap1\n      tag_163\n      jump\t// in\n    tag_313:\n      sub(shl(0xa0, 0x01), 0x01)\n        /* \"contracts/Web3BetsFO.sol\":1704:1717  admins[_addr] */\n      dup1\n      dup3\n      and\n        /* \"contracts/Web3BetsFO.sol\":1729:1730  0 */\n      0x00\n        /* \"contracts/Web3BetsFO.sol\":1704:1717  admins[_addr] */\n      swap1\n      dup2\n      mstore\n        /* \"contracts/Web3BetsFO.sol\":1704:1710  admins */\n      0x0d\n        /* \"contracts/Web3BetsFO.sol\":1704:1717  admins[_addr] */\n      0x20\n      mstore\n      0x40\n      swap1\n      keccak256\n      sload\n        /* \"contracts/Web3BetsFO.sol\":3987:3992  _addr */\n      dup3\n      swap2\n        /* \"contracts/Web3BetsFO.sol\":1704:1717  admins[_addr] */\n      and\n        /* \"contracts/Web3BetsFO.sol\":1704:1731  admins[_addr] == address(0) */\n      iszero\n        /* \"contracts/Web3BetsFO.sol\":1696:1758  require(admins[_addr] == address(0), \"already a system admin\") */\n      tag_316\n      jumpi\n      mload(0x40)\n      shl(0xe5, 0x461bcd)\n      dup2\n      mstore\n        /* \"#utility.yul\":5135:5137   */\n      0x20\n        /* \"contracts/Web3BetsFO.sol\":1696:1758  require(admins[_addr] == address(0), \"already a system admin\") */\n      0x04\n      dup3\n      add\n        /* \"#utility.yul\":5117:5138   */\n      mstore\n        /* \"#utility.yul\":5174:5176   */\n      0x16\n        /* \"#utility.yul\":5154:5172   */\n      0x24\n      dup3\n      add\n        /* \"#utility.yul\":5147:5177   */\n      mstore\n      shl(0x51, 0x30b63932b0b23c90309039bcb9ba32b69030b236b4b7)\n        /* \"#utility.yul\":5193:5211   */\n      0x44\n      dup3\n      add\n        /* \"#utility.yul\":5186:5238   */\n      mstore\n        /* \"#utility.yul\":5255:5273   */\n      0x64\n      add\n        /* \"contracts/Web3BetsFO.sol\":1696:1758  require(admins[_addr] == address(0), \"already a system admin\") */\n      tag_162\n        /* \"#utility.yul\":5107:5279   */\n      jump\n        /* \"contracts/Web3BetsFO.sol\":1696:1758  require(admins[_addr] == address(0), \"already a system admin\") */\n    tag_316:\n      pop\n        /* \"contracts/Web3BetsFO.sol\":4008:4020  systemAdmins */\n      0x0a\n        /* \"contracts/Web3BetsFO.sol\":4008:4032  systemAdmins.push(_addr) */\n      dup1\n      sload\n      0x01\n      dup2\n      add\n      swap1\n      swap2\n      sstore\n      0xc65a7bb8d6351c1cf70c95a316cc6a92839c986682d98bc35f958f4883f9d2a8\n      add\n      dup1\n      sload\n      sub(shl(0xa0, 0x01), 0x01)\n      swap1\n      swap3\n      and\n      not(sub(shl(0xa0, 0x01), 0x01))\n      swap3\n      dup4\n      and\n      dup2\n      or\n      swap1\n      swap2\n      sstore\n      0x00\n        /* \"contracts/Web3BetsFO.sol\":4042:4055  admins[_addr] */\n      dup2\n      dup2\n      mstore\n        /* \"contracts/Web3BetsFO.sol\":4042:4048  admins */\n      0x0d\n        /* \"contracts/Web3BetsFO.sol\":4008:4032  systemAdmins.push(_addr) */\n      0x20\n        /* \"contracts/Web3BetsFO.sol\":4042:4055  admins[_addr] */\n      mstore\n      0x40\n      swap1\n      keccak256\n        /* \"contracts/Web3BetsFO.sol\":4042:4063  admins[_addr] = _addr */\n      dup1\n      sload\n      swap1\n      swap3\n      and\n      or\n      swap1\n      sstore\n        /* \"contracts/Web3BetsFO.sol\":3888:4070  function addSystemAdmin(address _addr)... */\n      jump\t// out\n        /* \"contracts/Web3BetsFO.sol\":4843:5248  function deleteEventAdmin(address _eventOwner) external onlySystemAdmin {... */\n    tag_144:\n        /* \"contracts/Web3BetsFO.sol\":1497:1522  isSystemAdmin(msg.sender) */\n      tag_322\n        /* \"contracts/Web3BetsFO.sol\":1511:1521  msg.sender */\n      caller\n        /* \"contracts/Web3BetsFO.sol\":1497:1510  isSystemAdmin */\n      tag_83\n        /* \"contracts/Web3BetsFO.sol\":1497:1522  isSystemAdmin(msg.sender) */\n      jump\t// in\n    tag_322:\n        /* \"contracts/Web3BetsFO.sol\":1497:1553  isSystemAdmin(msg.sender) || msg.sender == contractOwner */\n      dup1\n      tag_323\n      jumpi\n      pop\n        /* \"contracts/Web3BetsFO.sol\":1540:1553  contractOwner */\n      and(sub(shl(0xa0, 0x01), 0x01), sload(0x00))\n        /* \"contracts/Web3BetsFO.sol\":1526:1536  msg.sender */\n      caller\n        /* \"contracts/Web3BetsFO.sol\":1526:1553  msg.sender == contractOwner */\n      eq\n        /* \"contracts/Web3BetsFO.sol\":1497:1553  isSystemAdmin(msg.sender) || msg.sender == contractOwner */\n    tag_323:\n        /* \"contracts/Web3BetsFO.sol\":1476:1621  require(... */\n      tag_324\n      jumpi\n      mload(0x40)\n      shl(0xe5, 0x461bcd)\n      dup2\n      mstore\n      0x04\n      add\n      tag_162\n      swap1\n      tag_163\n      jump\t// in\n    tag_324:\n      sub(shl(0xa0, 0x01), 0x01)\n        /* \"contracts/Web3BetsFO.sol\":4934:4958  eventOwners[_eventOwner] */\n      dup2\n      dup2\n      and\n        /* \"contracts/Web3BetsFO.sol\":4970:4971  0 */\n      0x00\n        /* \"contracts/Web3BetsFO.sol\":4934:4958  eventOwners[_eventOwner] */\n      swap1\n      dup2\n      mstore\n        /* \"contracts/Web3BetsFO.sol\":4934:4945  eventOwners */\n      0x0e\n        /* \"contracts/Web3BetsFO.sol\":4934:4958  eventOwners[_eventOwner] */\n      0x20\n      mstore\n      0x40\n      swap1\n      keccak256\n      sload\n      and\n        /* \"contracts/Web3BetsFO.sol\":4925:4996  require (eventOwners[_eventOwner] != address(0), \"Invalid event owner\") */\n      tag_327\n      jumpi\n      mload(0x40)\n      shl(0xe5, 0x461bcd)\n      dup2\n      mstore\n      0x04\n      add\n      tag_162\n      swap1\n      tag_232\n      jump\t// in\n    tag_327:\n      sub(shl(0xa0, 0x01), 0x01)\n        /* \"contracts/Web3BetsFO.sol\":5022:5046  eventOwners[_eventOwner] */\n      dup2\n      and\n      0x00\n      swap1\n      dup2\n      mstore\n        /* \"contracts/Web3BetsFO.sol\":5022:5033  eventOwners */\n      0x0e\n        /* \"contracts/Web3BetsFO.sol\":5022:5046  eventOwners[_eventOwner] */\n      0x20\n      mstore\n      0x40\n      dup2\n      keccak256\n        /* \"contracts/Web3BetsFO.sol\":5015:5046  delete eventOwners[_eventOwner] */\n      dup1\n      sload\n      not(sub(shl(0xa0, 0x01), 0x01))\n      and\n      swap1\n      sstore\n        /* \"contracts/Web3BetsFO.sol\":5057:5242  for (uint256 i = 0; i < eventAdmins.length; i++) {... */\n    tag_329:\n        /* \"contracts/Web3BetsFO.sol\":5081:5092  eventAdmins */\n      0x0b\n        /* \"contracts/Web3BetsFO.sol\":5081:5099  eventAdmins.length */\n      sload\n        /* \"contracts/Web3BetsFO.sol\":5077:5099  i < eventAdmins.length */\n      dup2\n      lt\n        /* \"contracts/Web3BetsFO.sol\":5057:5242  for (uint256 i = 0; i < eventAdmins.length; i++) {... */\n      iszero\n      tag_234\n      jumpi\n        /* \"contracts/Web3BetsFO.sol\":5142:5153  _eventOwner */\n      dup2\n      sub(shl(0xa0, 0x01), 0x01)\n        /* \"contracts/Web3BetsFO.sol\":5124:5153  eventAdmins[i] == _eventOwner */\n      and\n        /* \"contracts/Web3BetsFO.sol\":5124:5135  eventAdmins */\n      0x0b\n        /* \"contracts/Web3BetsFO.sol\":5136:5137  i */\n      dup3\n        /* \"contracts/Web3BetsFO.sol\":5124:5138  eventAdmins[i] */\n      dup2\n      sload\n      dup2\n      lt\n      tag_332\n      jumpi\n      mstore(0x00, shl(0xe0, 0x4e487b71))\n      mstore(0x04, 0x32)\n      revert(0x00, 0x24)\n    tag_332:\n      0x00\n      swap2\n      dup3\n      mstore\n      0x20\n      swap1\n      swap2\n      keccak256\n      add\n      sload\n      sub(shl(0xa0, 0x01), 0x01)\n      and\n        /* \"contracts/Web3BetsFO.sol\":5124:5153  eventAdmins[i] == _eventOwner */\n      eq\n        /* \"contracts/Web3BetsFO.sol\":5120:5232  if (eventAdmins[i] == _eventOwner) {... */\n      iszero\n      tag_334\n      jumpi\n        /* \"contracts/Web3BetsFO.sol\":5180:5191  eventAdmins */\n      0x0b\n        /* \"contracts/Web3BetsFO.sol\":5192:5193  i */\n      dup2\n        /* \"contracts/Web3BetsFO.sol\":5180:5194  eventAdmins[i] */\n      dup2\n      sload\n      dup2\n      lt\n      tag_239\n      jumpi\n      mstore(0x00, shl(0xe0, 0x4e487b71))\n      mstore(0x04, 0x32)\n      revert(0x00, 0x24)\n        /* \"contracts/Web3BetsFO.sol\":5120:5232  if (eventAdmins[i] == _eventOwner) {... */\n    tag_334:\n        /* \"contracts/Web3BetsFO.sol\":5101:5104  i++ */\n      dup1\n      tag_337\n      dup2\n      tag_156\n      jump\t// in\n    tag_337:\n      swap2\n      pop\n      pop\n        /* \"contracts/Web3BetsFO.sol\":5057:5242  for (uint256 i = 0; i < eventAdmins.length; i++) {... */\n      jump(tag_329)\n        /* \"#utility.yul\":14:187   */\n    tag_339:\n        /* \"#utility.yul\":82:102   */\n      dup1\n      calldataload\n      sub(shl(0xa0, 0x01), 0x01)\n        /* \"#utility.yul\":131:162   */\n      dup2\n      and\n        /* \"#utility.yul\":121:163   */\n      dup2\n      eq\n        /* \"#utility.yul\":111:113   */\n      tag_157\n      jumpi\n        /* \"#utility.yul\":177:178   */\n      0x00\n        /* \"#utility.yul\":174:175   */\n      dup1\n        /* \"#utility.yul\":167:179   */\n      revert\n        /* \"#utility.yul\":192:388   */\n    tag_60:\n        /* \"#utility.yul\":251:257   */\n      0x00\n        /* \"#utility.yul\":304:306   */\n      0x20\n        /* \"#utility.yul\":292:301   */\n      dup3\n        /* \"#utility.yul\":283:290   */\n      dup5\n        /* \"#utility.yul\":279:302   */\n      sub\n        /* \"#utility.yul\":275:307   */\n      slt\n        /* \"#utility.yul\":272:274   */\n      iszero\n      tag_343\n      jumpi\n        /* \"#utility.yul\":325:331   */\n      dup1\n        /* \"#utility.yul\":317:323   */\n      dup2\n        /* \"#utility.yul\":310:332   */\n      revert\n        /* \"#utility.yul\":272:274   */\n    tag_343:\n        /* \"#utility.yul\":353:382   */\n      tag_344\n        /* \"#utility.yul\":372:381   */\n      dup3\n        /* \"#utility.yul\":353:382   */\n      tag_339\n      jump\t// in\n    tag_344:\n        /* \"#utility.yul\":343:382   */\n      swap4\n        /* \"#utility.yul\":262:388   */\n      swap3\n      pop\n      pop\n      pop\n      jump\t// out\n        /* \"#utility.yul\":393:737   */\n    tag_66:\n        /* \"#utility.yul\":470:476   */\n      0x00\n        /* \"#utility.yul\":478:484   */\n      dup1\n        /* \"#utility.yul\":486:492   */\n      0x00\n        /* \"#utility.yul\":539:541   */\n      0x60\n        /* \"#utility.yul\":527:536   */\n      dup5\n        /* \"#utility.yul\":518:525   */\n      dup7\n        /* \"#utility.yul\":514:537   */\n      sub\n        /* \"#utility.yul\":510:542   */\n      slt\n        /* \"#utility.yul\":507:509   */\n      iszero\n      tag_346\n      jumpi\n        /* \"#utility.yul\":560:566   */\n      dup2\n        /* \"#utility.yul\":552:558   */\n      dup3\n        /* \"#utility.yul\":545:567   */\n      revert\n        /* \"#utility.yul\":507:509   */\n    tag_346:\n        /* \"#utility.yul\":588:617   */\n      tag_347\n        /* \"#utility.yul\":607:616   */\n      dup5\n        /* \"#utility.yul\":588:617   */\n      tag_339\n      jump\t// in\n    tag_347:\n        /* \"#utility.yul\":578:617   */\n      swap3\n      pop\n        /* \"#utility.yul\":636:674   */\n      tag_348\n        /* \"#utility.yul\":670:672   */\n      0x20\n        /* \"#utility.yul\":659:668   */\n      dup6\n        /* \"#utility.yul\":655:673   */\n      add\n        /* \"#utility.yul\":636:674   */\n      tag_339\n      jump\t// in\n    tag_348:\n        /* \"#utility.yul\":626:674   */\n      swap2\n      pop\n        /* \"#utility.yul\":693:731   */\n      tag_349\n        /* \"#utility.yul\":727:729   */\n      0x40\n        /* \"#utility.yul\":716:725   */\n      dup6\n        /* \"#utility.yul\":712:730   */\n      add\n        /* \"#utility.yul\":693:731   */\n      tag_339\n      jump\t// in\n    tag_349:\n        /* \"#utility.yul\":683:731   */\n      swap1\n      pop\n        /* \"#utility.yul\":497:737   */\n      swap3\n      pop\n      swap3\n      pop\n      swap3\n      jump\t// out\n        /* \"#utility.yul\":742:1039   */\n    tag_193:\n        /* \"#utility.yul\":809:815   */\n      0x00\n        /* \"#utility.yul\":862:864   */\n      0x20\n        /* \"#utility.yul\":850:859   */\n      dup3\n        /* \"#utility.yul\":841:848   */\n      dup5\n        /* \"#utility.yul\":837:860   */\n      sub\n        /* \"#utility.yul\":833:865   */\n      slt\n        /* \"#utility.yul\":830:832   */\n      iszero\n      tag_351\n      jumpi\n        /* \"#utility.yul\":883:889   */\n      dup1\n        /* \"#utility.yul\":875:881   */\n      dup2\n        /* \"#utility.yul\":868:890   */\n      revert\n        /* \"#utility.yul\":830:832   */\n    tag_351:\n        /* \"#utility.yul\":920:929   */\n      dup2\n        /* \"#utility.yul\":914:930   */\n      mload\n        /* \"#utility.yul\":973:978   */\n      dup1\n        /* \"#utility.yul\":966:979   */\n      iszero\n        /* \"#utility.yul\":959:980   */\n      iszero\n        /* \"#utility.yul\":952:957   */\n      dup2\n        /* \"#utility.yul\":949:981   */\n      eq\n        /* \"#utility.yul\":939:941   */\n      tag_344\n      jumpi\n        /* \"#utility.yul\":1000:1006   */\n      dup2\n        /* \"#utility.yul\":992:998   */\n      dup3\n        /* \"#utility.yul\":985:1007   */\n      revert\n        /* \"#utility.yul\":1044:1234   */\n    tag_42:\n        /* \"#utility.yul\":1103:1109   */\n      0x00\n        /* \"#utility.yul\":1156:1158   */\n      0x20\n        /* \"#utility.yul\":1144:1153   */\n      dup3\n        /* \"#utility.yul\":1135:1142   */\n      dup5\n        /* \"#utility.yul\":1131:1154   */\n      sub\n        /* \"#utility.yul\":1127:1159   */\n      slt\n        /* \"#utility.yul\":1124:1126   */\n      iszero\n      tag_354\n      jumpi\n        /* \"#utility.yul\":1177:1183   */\n      dup1\n        /* \"#utility.yul\":1169:1175   */\n      dup2\n        /* \"#utility.yul\":1162:1184   */\n      revert\n        /* \"#utility.yul\":1124:1126   */\n    tag_354:\n      pop\n        /* \"#utility.yul\":1205:1228   */\n      calldataload\n      swap2\n        /* \"#utility.yul\":1114:1234   */\n      swap1\n      pop\n      jump\t// out\n        /* \"#utility.yul\":1239:1433   */\n    tag_171:\n        /* \"#utility.yul\":1309:1315   */\n      0x00\n        /* \"#utility.yul\":1362:1364   */\n      0x20\n        /* \"#utility.yul\":1350:1359   */\n      dup3\n        /* \"#utility.yul\":1341:1348   */\n      dup5\n        /* \"#utility.yul\":1337:1360   */\n      sub\n        /* \"#utility.yul\":1333:1365   */\n      slt\n        /* \"#utility.yul\":1330:1332   */\n      iszero\n      tag_356\n      jumpi\n        /* \"#utility.yul\":1383:1389   */\n      dup1\n        /* \"#utility.yul\":1375:1381   */\n      dup2\n        /* \"#utility.yul\":1368:1390   */\n      revert\n        /* \"#utility.yul\":1330:1332   */\n    tag_356:\n      pop\n        /* \"#utility.yul\":1411:1427   */\n      mload\n      swap2\n        /* \"#utility.yul\":1320:1433   */\n      swap1\n      pop\n      jump\t// out\n        /* \"#utility.yul\":1438:1696   */\n    tag_87:\n        /* \"#utility.yul\":1506:1512   */\n      0x00\n        /* \"#utility.yul\":1514:1520   */\n      dup1\n        /* \"#utility.yul\":1567:1569   */\n      0x40\n        /* \"#utility.yul\":1555:1564   */\n      dup4\n        /* \"#utility.yul\":1546:1553   */\n      dup6\n        /* \"#utility.yul\":1542:1565   */\n      sub\n        /* \"#utility.yul\":1538:1570   */\n      slt\n        /* \"#utility.yul\":1535:1537   */\n      iszero\n      tag_358\n      jumpi\n        /* \"#utility.yul\":1588:1594   */\n      dup2\n        /* \"#utility.yul\":1580:1586   */\n      dup3\n        /* \"#utility.yul\":1573:1595   */\n      revert\n        /* \"#utility.yul\":1535:1537   */\n    tag_358:\n      pop\n      pop\n        /* \"#utility.yul\":1616:1639   */\n      dup1\n      calldataload\n      swap3\n        /* \"#utility.yul\":1686:1688   */\n      0x20\n        /* \"#utility.yul\":1671:1689   */\n      swap1\n      swap2\n      add\n        /* \"#utility.yul\":1658:1690   */\n      calldataload\n      swap2\n      pop\n        /* \"#utility.yul\":1525:1696   */\n      jump\t// out\n        /* \"#utility.yul\":4522:4928   */\n    tag_163:\n        /* \"#utility.yul\":4724:4726   */\n      0x20\n        /* \"#utility.yul\":4706:4727   */\n      dup1\n      dup3\n      mstore\n        /* \"#utility.yul\":4763:4765   */\n      0x2a\n        /* \"#utility.yul\":4743:4761   */\n      swap1\n      dup3\n      add\n        /* \"#utility.yul\":4736:4766   */\n      mstore\n        /* \"#utility.yul\":4802:4836   */\n      0x596f752068617665206e6f2070726976696c65676520746f2072756e20746869\n        /* \"#utility.yul\":4797:4799   */\n      0x40\n        /* \"#utility.yul\":4782:4800   */\n      dup3\n      add\n        /* \"#utility.yul\":4775:4837   */\n      mstore\n      shl(0xb1, 0x3990333ab731ba34b7b7)\n        /* \"#utility.yul\":4868:4870   */\n      0x60\n        /* \"#utility.yul\":4853:4871   */\n      dup3\n      add\n        /* \"#utility.yul\":4846:4886   */\n      mstore\n        /* \"#utility.yul\":4918:4921   */\n      0x80\n        /* \"#utility.yul\":4903:4922   */\n      add\n      swap1\n        /* \"#utility.yul\":4696:4928   */\n      jump\t// out\n        /* \"#utility.yul\":5690:6033   */\n    tag_232:\n        /* \"#utility.yul\":5892:5894   */\n      0x20\n        /* \"#utility.yul\":5874:5895   */\n      dup1\n      dup3\n      mstore\n        /* \"#utility.yul\":5931:5933   */\n      0x13\n        /* \"#utility.yul\":5911:5929   */\n      swap1\n      dup3\n      add\n        /* \"#utility.yul\":5904:5934   */\n      mstore\n      shl(0x69, 0x24b73b30b634b21032bb32b73a1037bbb732b9)\n        /* \"#utility.yul\":5965:5967   */\n      0x40\n        /* \"#utility.yul\":5950:5968   */\n      dup3\n      add\n        /* \"#utility.yul\":5943:5992   */\n      mstore\n        /* \"#utility.yul\":6024:6026   */\n      0x60\n        /* \"#utility.yul\":6009:6027   */\n      add\n      swap1\n        /* \"#utility.yul\":5864:6033   */\n      jump\t// out\n        /* \"#utility.yul\":7460:7588   */\n    tag_220:\n        /* \"#utility.yul\":7500:7503   */\n      0x00\n        /* \"#utility.yul\":7531:7532   */\n      dup3\n        /* \"#utility.yul\":7527:7533   */\n      not\n        /* \"#utility.yul\":7524:7525   */\n      dup3\n        /* \"#utility.yul\":7521:7534   */\n      gt\n        /* \"#utility.yul\":7518:7520   */\n      iszero\n      tag_377\n      jumpi\n        /* \"#utility.yul\":7537:7555   */\n      tag_377\n      tag_378\n      jump\t// in\n    tag_377:\n      pop\n        /* \"#utility.yul\":7573:7582   */\n      add\n      swap1\n        /* \"#utility.yul\":7508:7588   */\n      jump\t// out\n        /* \"#utility.yul\":7593:7810   */\n    tag_178:\n        /* \"#utility.yul\":7633:7634   */\n      0x00\n        /* \"#utility.yul\":7659:7660   */\n      dup3\n        /* \"#utility.yul\":7649:7651   */\n      tag_380\n      jumpi\n      shl(0xe0, 0x4e487b71)\n        /* \"#utility.yul\":7684:7715   */\n      dup2\n      mstore\n        /* \"#utility.yul\":7738:7742   */\n      0x12\n        /* \"#utility.yul\":7735:7736   */\n      0x04\n        /* \"#utility.yul\":7728:7743   */\n      mstore\n        /* \"#utility.yul\":7766:7770   */\n      0x24\n        /* \"#utility.yul\":7691:7692   */\n      dup2\n        /* \"#utility.yul\":7756:7771   */\n      revert\n        /* \"#utility.yul\":7649:7651   */\n    tag_380:\n      pop\n        /* \"#utility.yul\":7795:7804   */\n      div\n      swap1\n        /* \"#utility.yul\":7639:7810   */\n      jump\t// out\n        /* \"#utility.yul\":7815:7983   */\n    tag_176:\n        /* \"#utility.yul\":7855:7862   */\n      0x00\n        /* \"#utility.yul\":7921:7922   */\n      dup2\n        /* \"#utility.yul\":7917:7918   */\n      0x00\n        /* \"#utility.yul\":7913:7919   */\n      not\n        /* \"#utility.yul\":7909:7923   */\n      div\n        /* \"#utility.yul\":7906:7907   */\n      dup4\n        /* \"#utility.yul\":7903:7924   */\n      gt\n        /* \"#utility.yul\":7898:7899   */\n      dup3\n        /* \"#utility.yul\":7891:7900   */\n      iszero\n        /* \"#utility.yul\":7884:7901   */\n      iszero\n        /* \"#utility.yul\":7880:7925   */\n      and\n        /* \"#utility.yul\":7877:7879   */\n      iszero\n      tag_383\n      jumpi\n        /* \"#utility.yul\":7928:7946   */\n      tag_383\n      tag_378\n      jump\t// in\n    tag_383:\n      pop\n        /* \"#utility.yul\":7968:7977   */\n      mul\n      swap1\n        /* \"#utility.yul\":7867:7983   */\n      jump\t// out\n        /* \"#utility.yul\":7988:8123   */\n    tag_156:\n        /* \"#utility.yul\":8027:8030   */\n      0x00\n      not(0x00)\n        /* \"#utility.yul\":8048:8065   */\n      dup3\n      eq\n        /* \"#utility.yul\":8045:8047   */\n      iszero\n      tag_386\n      jumpi\n        /* \"#utility.yul\":8068:8086   */\n      tag_386\n      tag_378\n      jump\t// in\n    tag_386:\n      pop\n        /* \"#utility.yul\":8115:8116   */\n      0x01\n        /* \"#utility.yul\":8104:8117   */\n      add\n      swap1\n        /* \"#utility.yul\":8035:8123   */\n      jump\t// out\n        /* \"#utility.yul\":8128:8255   */\n    tag_378:\n        /* \"#utility.yul\":8189:8199   */\n      0x4e487b71\n        /* \"#utility.yul\":8184:8187   */\n      0xe0\n        /* \"#utility.yul\":8180:8200   */\n      shl\n        /* \"#utility.yul\":8177:8178   */\n      0x00\n        /* \"#utility.yul\":8170:8201   */\n      mstore\n        /* \"#utility.yul\":8220:8224   */\n      0x11\n        /* \"#utility.yul\":8217:8218   */\n      0x04\n        /* \"#utility.yul\":8210:8225   */\n      mstore\n        /* \"#utility.yul\":8244:8248   */\n      0x24\n        /* \"#utility.yul\":8241:8242   */\n      0x00\n        /* \"#utility.yul\":8234:8249   */\n      revert\n\n    auxdata: 0xa26469706673582212208ebda3d275165ac436e2302484aa33266da1fed0f2f1cf8229007e87fe7ae92664736f6c63430008040033\n}\n",
				"bytecode": {
					"linkReferences": {},
					"object": "608060405260326007819055600855600a600955600354601080546001600160a01b0319166001600160a01b0390921691909117905534801561004157600080fd5b50600080546001600160a01b03191633179055611539806100636000396000f3fe608060405234801561001057600080fd5b50600436106101da5760003560e01c8063709ec8b411610104578063cb146622116100a2578063d6c1ca2611610071578063d6c1ca2614610423578063e3c0ed7814610436578063ed9f7eb914610449578063f2210b2c1461045c57600080fd5b8063cb146622146103d7578063ce606ee0146103ea578063d37e87fd146103fd578063d54948691461041057600080fd5b80639376b94c116100de5780639376b94c14610395578063992642e51461039e5780639b460aa9146103b1578063a94fabc5146103c457600080fd5b8063709ec8b41461033057806380036b341461034357806385d8349b1461036c57600080fd5b8063387440e61161017c5780634fb431991161014b5780634fb43199146102e457806364886880146102f7578063681ada8c1461030a5780636fdbd3f61461031d57600080fd5b8063387440e614610293578063429b62e5146102aa578063486d1e50146102d35780634d161324146102dc57600080fd5b80630da4ee50116101b85780630da4ee50146102355780632e1a961814610248578063332daccf1461025b578063363bf9641461027e57600080fd5b8063026c1a4d146101df57806306a5cb3a1461020f57806306ae709514610222575b600080fd5b6101f26101ed3660046113b3565b61046f565b6040516001600160a01b0390911681526020015b60405180910390f35b6002546101f2906001600160a01b031681565b6005546101f2906001600160a01b031681565b6001546101f2906001600160a01b031681565b6006546101f2906001600160a01b031681565b61026e610269366004611330565b610499565b6040519015158152602001610206565b61029161028c366004611351565b61053e565b005b61029c60095481565b604051908152602001610206565b6101f26102b8366004611330565b600d602052600090815260409020546001600160a01b031681565b61029c60075481565b6102916105c0565b61026e6102f2366004611330565b6108aa565b6102916103053660046113e3565b61093b565b610291610318366004611330565b610a96565b6004546101f2906001600160a01b031681565b6101f261033e3660046113b3565b610bd2565b6101f2610351366004611330565b600f602052600090815260409020546001600160a01b031681565b6101f261037a366004611330565b600e602052600090815260409020546001600160a01b031681565b61029c60085481565b6003546101f2906001600160a01b031681565b6102916103bf366004611330565b610be2565b6102916103d2366004611351565b610ce1565b61026e6103e5366004611330565b610d5a565b6000546101f2906001600160a01b031681565b6101f261040b3660046113b3565b610deb565b61029161041e366004611330565b610dfb565b6102916104313660046113b3565b610f06565b610291610444366004611330565b610fc6565b610291610457366004611330565b61110d565b61029161046a366004611330565b6111fe565b600a818154811061047f57600080fd5b6000918252602090912001546001600160a01b0316905081565b6001600160a01b038181166000908152600f602052604081205490911615610531576000805b600c5481101561052a57836001600160a01b0316600c82815481106104f457634e487b7160e01b600052603260045260246000fd5b6000918252602090912001546001600160a01b03161415610518576001915061052a565b80610522816114d2565b9150506104bf565b5092915050565b506000919050565b919050565b610547336108aa565b8061055c57506000546001600160a01b031633145b6105815760405162461bcd60e51b815260040161057890611404565b60405180910390fd5b600180546001600160a01b039485166001600160a01b031991821617909155600280549385169382169390931790925560038054919093169116179055565b6010546040516370a0823160e01b81523060048201526000916001600160a01b0316906370a082319060240160206040518083038186803b15801561060457600080fd5b505afa158015610618573d6000803e3d6000fd5b505050506040513d601f19601f8201168201806040525081019061063c91906113cb565b90506000811161069a5760405162461bcd60e51b815260206004820152602360248201527f626574206561726e696e6773206d75737420626520677265617465722074686160448201526206e20360ec1b6064820152608401610578565b60006064600754836106ac91906114b3565b6106b69190611493565b9050600081116107165760405162461bcd60e51b815260206004820152602560248201527f686f6c6465727327207368617265206d75737420626520677265617465722074604482015264068616e20360dc1b6064820152608401610578565b600060646008548461072891906114b3565b6107329190611493565b9050600081116107935760405162461bcd60e51b815260206004820152602660248201527f65636f73797374656d207368617265206d75737420626520677265617465722060448201526507468616e20360d41b6064820152608401610578565b60105460025460405163a9059cbb60e01b81526001600160a01b0391821660048201526024810184905291169063a9059cbb90604401602060405180830381600087803b1580156107e357600080fd5b505af11580156107f7573d6000803e3d6000fd5b505050506040513d601f19601f8201168201806040525081019061081b9190611393565b5060105460015460405163a9059cbb60e01b81526001600160a01b0391821660048201526024810185905291169063a9059cbb90604401602060405180830381600087803b15801561086c57600080fd5b505af1158015610880573d6000803e3d6000fd5b505050506040513d601f19601f820116820180604052508101906108a49190611393565b50505050565b6001600160a01b038181166000908152600d602052604081205490911615610531576000805b600a5481101561052a57836001600160a01b0316600a828154811061090557634e487b7160e01b600052603260045260246000fd5b6000918252602090912001546001600160a01b03161415610929576001915061052a565b80610933816114d2565b9150506108d0565b610944336108aa565b8061095957506000546001600160a01b031633145b6109755760405162461bcd60e51b815260040161057890611404565b60648211158015610987575060648111155b610a0c5760405162461bcd60e51b815260206004820152604a60248201527f5669672070657263656e746167657320736861726573206d757374206265206560448201527f787072657373656420696e206120203020746f2031303020726174696f2e2045606482015269078616d706c653a2033360b41b608482015260a401610578565b610a16818361147b565b606414610a8b5760405162461bcd60e51b815260206004820152603960248201527f5468652073756d206f6620616c6c205669672070657263656e7461676520736860448201527f61726573206d75737420626520657175616c20746f20313030000000000000006064820152608401610578565b600791909155600855565b610a9f336108aa565b80610ab457506000546001600160a01b031633145b610ad05760405162461bcd60e51b815260040161057890611404565b6001600160a01b038181166000908152600f602052604090205416610b075760405162461bcd60e51b81526004016105789061144e565b6001600160a01b0381166000908152600f6020526040812080546001600160a01b03191690555b600c54811015610bce57816001600160a01b0316600c8281548110610b6357634e487b7160e01b600052603260045260246000fd5b6000918252602090912001546001600160a01b03161415610bbc57600c8181548110610b9f57634e487b7160e01b600052603260045260246000fd5b600091825260209091200180546001600160a01b03191690555050565b80610bc6816114d2565b915050610b2e565b5050565b600c818154811061047f57600080fd5b610beb336108aa565b80610c0057506000546001600160a01b031633145b610c1c5760405162461bcd60e51b815260040161057890611404565b6001600160a01b038082166000908152600f602052604090205482911615610c7d5760405162461bcd60e51b8152602060048201526014602482015273185b1c9958591e481a5b88189b1858dadb1a5cdd60621b6044820152606401610578565b50600b8054600181019091557f0175b7a638427703f0dbe7bb9bbf987a2551717b34e79f33b5b1008d1fa01db90180546001600160a01b039092166001600160a01b031992831681179091556000818152600e602052604090208054909216179055565b610cea336108aa565b80610cff57506000546001600160a01b031633145b610d1b5760405162461bcd60e51b815260040161057890611404565b600480546001600160a01b039485166001600160a01b031991821617909155600580549385169382169390931790925560068054919093169116179055565b6001600160a01b038181166000908152600e602052604081205490911615610531576000805b600b5481101561052a57836001600160a01b0316600b8281548110610db557634e487b7160e01b600052603260045260246000fd5b6000918252602090912001546001600160a01b03161415610dd9576001915061052a565b80610de3816114d2565b915050610d80565b600b818154811061047f57600080fd5b6000546001600160a01b03163314610e255760405162461bcd60e51b815260040161057890611404565b6001600160a01b038181166000908152600d602052604090205416610e5c5760405162461bcd60e51b81526004016105789061144e565b6001600160a01b0381166000908152600d6020526040812080546001600160a01b03191690555b600a54811015610bce57816001600160a01b0316600a8281548110610eb857634e487b7160e01b600052603260045260246000fd5b6000918252602090912001546001600160a01b03161415610ef457600a8181548110610b9f57634e487b7160e01b600052603260045260246000fd5b80610efe816114d2565b915050610e83565b610f0f336108aa565b80610f2457506000546001600160a01b031633145b610f405760405162461bcd60e51b815260040161057890611404565b600a8110610fc15760405162461bcd60e51b815260206004820152604260248201527f5669672070657263656e74616765206d7573742062652065787072657373656460448201527f20696e203020746f2031302070657263656e746167652e204578616d706c653a606482015261101b60f11b608482015260a401610578565b600955565b610fcf336108aa565b80610fe457506000546001600160a01b031633145b6110005760405162461bcd60e51b815260040161057890611404565b6001600160a01b038082166000908152600e6020526040902054829116156110635760405162461bcd60e51b815260206004820152601660248201527530b63932b0b23c9030b71032bb32b73a1030b236b4b760511b6044820152606401610578565b6001546001600160a01b0316158061108457506002546001600160a01b0316155b610c7d5760405162461bcd60e51b815260206004820152604e60248201527f796f75206d7573742073657420686f6c6465727320616e642065636f7379737460448201527f6d654164647265737320616464726573736573206265666f726520616464696e60648201526d67206576656e74206f776e65727360901b608482015260a401610578565b6000546001600160a01b031633146111375760405162461bcd60e51b815260040161057890611404565b6001600160a01b038082166000908152600d60205260409020548291161561119a5760405162461bcd60e51b815260206004820152601660248201527530b63932b0b23c90309039bcb9ba32b69030b236b4b760511b6044820152606401610578565b50600a8054600181019091557fc65a7bb8d6351c1cf70c95a316cc6a92839c986682d98bc35f958f4883f9d2a80180546001600160a01b039092166001600160a01b031992831681179091556000818152600d602052604090208054909216179055565b611207336108aa565b8061121c57506000546001600160a01b031633145b6112385760405162461bcd60e51b815260040161057890611404565b6001600160a01b038181166000908152600e60205260409020541661126f5760405162461bcd60e51b81526004016105789061144e565b6001600160a01b0381166000908152600e6020526040812080546001600160a01b03191690555b600b54811015610bce57816001600160a01b0316600b82815481106112cb57634e487b7160e01b600052603260045260246000fd5b6000918252602090912001546001600160a01b0316141561130757600b8181548110610b9f57634e487b7160e01b600052603260045260246000fd5b80611311816114d2565b915050611296565b80356001600160a01b038116811461053957600080fd5b600060208284031215611341578081fd5b61134a82611319565b9392505050565b600080600060608486031215611365578182fd5b61136e84611319565b925061137c60208501611319565b915061138a60408501611319565b90509250925092565b6000602082840312156113a4578081fd5b8151801515811461134a578182fd5b6000602082840312156113c4578081fd5b5035919050565b6000602082840312156113dc578081fd5b5051919050565b600080604083850312156113f5578182fd5b50508035926020909101359150565b6020808252602a908201527f596f752068617665206e6f2070726976696c65676520746f2072756e207468696040820152693990333ab731ba34b7b760b11b606082015260800190565b60208082526013908201527224b73b30b634b21032bb32b73a1037bbb732b960691b604082015260600190565b6000821982111561148e5761148e6114ed565b500190565b6000826114ae57634e487b7160e01b81526012600452602481fd5b500490565b60008160001904831182151516156114cd576114cd6114ed565b500290565b60006000198214156114e6576114e66114ed565b5060010190565b634e487b7160e01b600052601160045260246000fdfea26469706673582212208ebda3d275165ac436e2302484aa33266da1fed0f2f1cf8229007e87fe7ae92664736f6c63430008040033",
					"opcodes": "PUSH1 0x80 PUSH1 0x40 MSTORE PUSH1 0x32 PUSH1 0x7 DUP2 SWAP1 SSTORE PUSH1 0x8 SSTORE PUSH1 0xA PUSH1 0x9 SSTORE PUSH1 0x3 SLOAD PUSH1 0x10 DUP1 SLOAD PUSH1 0x1 PUSH1 0x1 PUSH1 0xA0 SHL SUB NOT AND PUSH1 0x1 PUSH1 0x1 PUSH1 0xA0 SHL SUB SWAP1 SWAP3 AND SWAP2 SWAP1 SWAP2 OR SWAP1 SSTORE CALLVALUE DUP1 ISZERO PUSH2 0x41 JUMPI PUSH1 0x0 DUP1 REVERT JUMPDEST POP PUSH1 0x0 DUP1 SLOAD PUSH1 0x1 PUSH1 0x1 PUSH1 0xA0 SHL SUB NOT AND CALLER OR SWAP1 SSTORE PUSH2 0x1539 DUP1 PUSH2 0x63 PUSH1 0x0 CODECOPY PUSH1 0x0 RETURN INVALID PUSH1 0x80 PUSH1 0x40 MSTORE CALLVALUE DUP1 ISZERO PUSH2 0x10 JUMPI PUSH1 0x0 DUP1 REVERT JUMPDEST POP PUSH1 0x4 CALLDATASIZE LT PUSH2 0x1DA JUMPI PUSH1 0x0 CALLDATALOAD PUSH1 0xE0 SHR DUP1 PUSH4 0x709EC8B4 GT PUSH2 0x104 JUMPI DUP1 PUSH4 0xCB146622 GT PUSH2 0xA2 JUMPI DUP1 PUSH4 0xD6C1CA26 GT PUSH2 0x71 JUMPI DUP1 PUSH4 0xD6C1CA26 EQ PUSH2 0x423 JUMPI DUP1 PUSH4 0xE3C0ED78 EQ PUSH2 0x436 JUMPI DUP1 PUSH4 0xED9F7EB9 EQ PUSH2 0x449 JUMPI DUP1 PUSH4 0xF2210B2C EQ PUSH2 0x45C JUMPI PUSH1 0x0 DUP1 REVERT JUMPDEST DUP1 PUSH4 0xCB146622 EQ PUSH2 0x3D7 JUMPI DUP1 PUSH4 0xCE606EE0 EQ PUSH2 0x3EA JUMPI DUP1 PUSH4 0xD37E87FD EQ PUSH2 0x3FD JUMPI DUP1 PUSH4 0xD5494869 EQ PUSH2 0x410 JUMPI PUSH1 0x0 DUP1 REVERT JUMPDEST DUP1 PUSH4 0x9376B94C GT PUSH2 0xDE JUMPI DUP1 PUSH4 0x9376B94C EQ PUSH2 0x395 JUMPI DUP1 PUSH4 0x992642E5 EQ PUSH2 0x39E JUMPI DUP1 PUSH4 0x9B460AA9 EQ PUSH2 0x3B1 JUMPI DUP1 PUSH4 0xA94FABC5 EQ PUSH2 0x3C4 JUMPI PUSH1 0x0 DUP1 REVERT JUMPDEST DUP1 PUSH4 0x709EC8B4 EQ PUSH2 0x330 JUMPI DUP1 PUSH4 0x80036B34 EQ PUSH2 0x343 JUMPI DUP1 PUSH4 0x85D8349B EQ PUSH2 0x36C JUMPI PUSH1 0x0 DUP1 REVERT JUMPDEST DUP1 PUSH4 0x387440E6 GT PUSH2 0x17C JUMPI DUP1 PUSH4 0x4FB43199 GT PUSH2 0x14B JUMPI DUP1 PUSH4 0x4FB43199 EQ PUSH2 0x2E4 JUMPI DUP1 PUSH4 0x64886880 EQ PUSH2 0x2F7 JUMPI DUP1 PUSH4 0x681ADA8C EQ PUSH2 0x30A JUMPI DUP1 PUSH4 0x6FDBD3F6 EQ PUSH2 0x31D JUMPI PUSH1 0x0 DUP1 REVERT JUMPDEST DUP1 PUSH4 0x387440E6 EQ PUSH2 0x293 JUMPI DUP1 PUSH4 0x429B62E5 EQ PUSH2 0x2AA JUMPI DUP1 PUSH4 0x486D1E50 EQ PUSH2 0x2D3 JUMPI DUP1 PUSH4 0x4D161324 EQ PUSH2 0x2DC JUMPI PUSH1 0x0 DUP1 REVERT JUMPDEST DUP1 PUSH4 0xDA4EE50 GT PUSH2 0x1B8 JUMPI DUP1 PUSH4 0xDA4EE50 EQ PUSH2 0x235 JUMPI DUP1 PUSH4 0x2E1A9618 EQ PUSH2 0x248 JUMPI DUP1 PUSH4 0x332DACCF EQ PUSH2 0x25B JUMPI DUP1 PUSH4 0x363BF964 EQ PUSH2 0x27E JUMPI PUSH1 0x0 DUP1 REVERT JUMPDEST DUP1 PUSH4 0x26C1A4D EQ PUSH2 0x1DF JUMPI DUP1 PUSH4 0x6A5CB3A EQ PUSH2 0x20F JUMPI DUP1 PUSH4 0x6AE7095 EQ PUSH2 0x222 JUMPI JUMPDEST PUSH1 0x0 DUP1 REVERT JUMPDEST PUSH2 0x1F2 PUSH2 0x1ED CALLDATASIZE PUSH1 0x4 PUSH2 0x13B3 JUMP JUMPDEST PUSH2 0x46F JUMP JUMPDEST PUSH1 0x40 MLOAD PUSH1 0x1 PUSH1 0x1 PUSH1 0xA0 SHL SUB SWAP1 SWAP2 AND DUP2 MSTORE PUSH1 0x20 ADD JUMPDEST PUSH1 0x40 MLOAD DUP1 SWAP2 SUB SWAP1 RETURN JUMPDEST PUSH1 0x2 SLOAD PUSH2 0x1F2 SWAP1 PUSH1 0x1 PUSH1 0x1 PUSH1 0xA0 SHL SUB AND DUP2 JUMP JUMPDEST PUSH1 0x5 SLOAD PUSH2 0x1F2 SWAP1 PUSH1 0x1 PUSH1 0x1 PUSH1 0xA0 SHL SUB AND DUP2 JUMP JUMPDEST PUSH1 0x1 SLOAD PUSH2 0x1F2 SWAP1 PUSH1 0x1 PUSH1 0x1 PUSH1 0xA0 SHL SUB AND DUP2 JUMP JUMPDEST PUSH1 0x6 SLOAD PUSH2 0x1F2 SWAP1 PUSH1 0x1 PUSH1 0x1 PUSH1 0xA0 SHL SUB AND DUP2 JUMP JUMPDEST PUSH2 0x26E PUSH2 0x269 CALLDATASIZE PUSH1 0x4 PUSH2 0x1330 JUMP JUMPDEST PUSH2 0x499 JUMP JUMPDEST PUSH1 0x40 MLOAD SWAP1 ISZERO ISZERO DUP2 MSTORE PUSH1 0x20 ADD PUSH2 0x206 JUMP JUMPDEST PUSH2 0x291 PUSH2 0x28C CALLDATASIZE PUSH1 0x4 PUSH2 0x1351 JUMP JUMPDEST PUSH2 0x53E JUMP JUMPDEST STOP JUMPDEST PUSH2 0x29C PUSH1 0x9 SLOAD DUP2 JUMP JUMPDEST PUSH1 0x40 MLOAD SWAP1 DUP2 MSTORE PUSH1 0x20 ADD PUSH2 0x206 JUMP JUMPDEST PUSH2 0x1F2 PUSH2 0x2B8 CALLDATASIZE PUSH1 0x4 PUSH2 0x1330 JUMP JUMPDEST PUSH1 0xD PUSH1 0x20 MSTORE PUSH1 0x0 SWAP1 DUP2 MSTORE PUSH1 0x40 SWAP1 KECCAK256 SLOAD PUSH1 0x1 PUSH1 0x1 PUSH1 0xA0 SHL SUB AND DUP2 JUMP JUMPDEST PUSH2 0x29C PUSH1 0x7 SLOAD DUP2 JUMP JUMPDEST PUSH2 0x291 PUSH2 0x5C0 JUMP JUMPDEST PUSH2 0x26E PUSH2 0x2F2 CALLDATASIZE PUSH1 0x4 PUSH2 0x1330 JUMP JUMPDEST PUSH2 0x8AA JUMP JUMPDEST PUSH2 0x291 PUSH2 0x305 CALLDATASIZE PUSH1 0x4 PUSH2 0x13E3 JUMP JUMPDEST PUSH2 0x93B JUMP JUMPDEST PUSH2 0x291 PUSH2 0x318 CALLDATASIZE PUSH1 0x4 PUSH2 0x1330 JUMP JUMPDEST PUSH2 0xA96 JUMP JUMPDEST PUSH1 0x4 SLOAD PUSH2 0x1F2 SWAP1 PUSH1 0x1 PUSH1 0x1 PUSH1 0xA0 SHL SUB AND DUP2 JUMP JUMPDEST PUSH2 0x1F2 PUSH2 0x33E CALLDATASIZE PUSH1 0x4 PUSH2 0x13B3 JUMP JUMPDEST PUSH2 0xBD2 JUMP JUMPDEST PUSH2 0x1F2 PUSH2 0x351 CALLDATASIZE PUSH1 0x4 PUSH2 0x1330 JUMP JUMPDEST PUSH1 0xF PUSH1 0x20 MSTORE PUSH1 0x0 SWAP1 DUP2 MSTORE PUSH1 0x40 SWAP1 KECCAK256 SLOAD PUSH1 0x1 PUSH1 0x1 PUSH1 0xA0 SHL SUB AND DUP2 JUMP JUMPDEST PUSH2 0x1F2 PUSH2 0x37A CALLDATASIZE PUSH1 0x4 PUSH2 0x1330 JUMP JUMPDEST PUSH1 0xE PUSH1 0x20 MSTORE PUSH1 0x0 SWAP1 DUP2 MSTORE PUSH1 0x40 SWAP1 KECCAK256 SLOAD PUSH1 0x1 PUSH1 0x1 PUSH1 0xA0 SHL SUB AND DUP2 JUMP JUMPDEST PUSH2 0x29C PUSH1 0x8 SLOAD DUP2 JUMP JUMPDEST PUSH1 0x3 SLOAD PUSH2 0x1F2 SWAP1 PUSH1 0x1 PUSH1 0x1 PUSH1 0xA0 SHL SUB AND DUP2 JUMP JUMPDEST PUSH2 0x291 PUSH2 0x3BF CALLDATASIZE PUSH1 0x4 PUSH2 0x1330 JUMP JUMPDEST PUSH2 0xBE2 JUMP JUMPDEST PUSH2 0x291 PUSH2 0x3D2 CALLDATASIZE PUSH1 0x4 PUSH2 0x1351 JUMP JUMPDEST PUSH2 0xCE1 JUMP JUMPDEST PUSH2 0x26E PUSH2 0x3E5 CALLDATASIZE PUSH1 0x4 PUSH2 0x1330 JUMP JUMPDEST PUSH2 0xD5A JUMP JUMPDEST PUSH1 0x0 SLOAD PUSH2 0x1F2 SWAP1 PUSH1 0x1 PUSH1 0x1 PUSH1 0xA0 SHL SUB AND DUP2 JUMP JUMPDEST PUSH2 0x1F2 PUSH2 0x40B CALLDATASIZE PUSH1 0x4 PUSH2 0x13B3 JUMP JUMPDEST PUSH2 0xDEB JUMP JUMPDEST PUSH2 0x291 PUSH2 0x41E CALLDATASIZE PUSH1 0x4 PUSH2 0x1330 JUMP JUMPDEST PUSH2 0xDFB JUMP JUMPDEST PUSH2 0x291 PUSH2 0x431 CALLDATASIZE PUSH1 0x4 PUSH2 0x13B3 JUMP JUMPDEST PUSH2 0xF06 JUMP JUMPDEST PUSH2 0x291 PUSH2 0x444 CALLDATASIZE PUSH1 0x4 PUSH2 0x1330 JUMP JUMPDEST PUSH2 0xFC6 JUMP JUMPDEST PUSH2 0x291 PUSH2 0x457 CALLDATASIZE PUSH1 0x4 PUSH2 0x1330 JUMP JUMPDEST PUSH2 0x110D JUMP JUMPDEST PUSH2 0x291 PUSH2 0x46A CALLDATASIZE PUSH1 0x4 PUSH2 0x1330 JUMP JUMPDEST PUSH2 0x11FE JUMP JUMPDEST PUSH1 0xA DUP2 DUP2 SLOAD DUP2 LT PUSH2 0x47F JUMPI PUSH1 0x0 DUP1 REVERT JUMPDEST PUSH1 0x0 SWAP2 DUP3 MSTORE PUSH1 0x20 SWAP1 SWAP2 KECCAK256 ADD SLOAD PUSH1 0x1 PUSH1 0x1 PUSH1 0xA0 SHL SUB AND SWAP1 POP DUP2 JUMP JUMPDEST PUSH1 0x1 PUSH1 0x1 PUSH1 0xA0 SHL SUB DUP2 DUP2 AND PUSH1 0x0 SWAP1 DUP2 MSTORE PUSH1 0xF PUSH1 0x20 MSTORE PUSH1 0x40 DUP2 KECCAK256 SLOAD SWAP1 SWAP2 AND ISZERO PUSH2 0x531 JUMPI PUSH1 0x0 DUP1 JUMPDEST PUSH1 0xC SLOAD DUP2 LT ISZERO PUSH2 0x52A JUMPI DUP4 PUSH1 0x1 PUSH1 0x1 PUSH1 0xA0 SHL SUB AND PUSH1 0xC DUP3 DUP2 SLOAD DUP2 LT PUSH2 0x4F4 JUMPI PUSH4 0x4E487B71 PUSH1 0xE0 SHL PUSH1 0x0 MSTORE PUSH1 0x32 PUSH1 0x4 MSTORE PUSH1 0x24 PUSH1 0x0 REVERT JUMPDEST PUSH1 0x0 SWAP2 DUP3 MSTORE PUSH1 0x20 SWAP1 SWAP2 KECCAK256 ADD SLOAD PUSH1 0x1 PUSH1 0x1 PUSH1 0xA0 SHL SUB AND EQ ISZERO PUSH2 0x518 JUMPI PUSH1 0x1 SWAP2 POP PUSH2 0x52A JUMP JUMPDEST DUP1 PUSH2 0x522 DUP2 PUSH2 0x14D2 JUMP JUMPDEST SWAP2 POP POP PUSH2 0x4BF JUMP JUMPDEST POP SWAP3 SWAP2 POP POP JUMP JUMPDEST POP PUSH1 0x0 SWAP2 SWAP1 POP JUMP JUMPDEST SWAP2 SWAP1 POP JUMP JUMPDEST PUSH2 0x547 CALLER PUSH2 0x8AA JUMP JUMPDEST DUP1 PUSH2 0x55C JUMPI POP PUSH1 0x0 SLOAD PUSH1 0x1 PUSH1 0x1 PUSH1 0xA0 SHL SUB AND CALLER EQ JUMPDEST PUSH2 0x581 JUMPI PUSH1 0x40 MLOAD PUSH3 0x461BCD PUSH1 0xE5 SHL DUP2 MSTORE PUSH1 0x4 ADD PUSH2 0x578 SWAP1 PUSH2 0x1404 JUMP JUMPDEST PUSH1 0x40 MLOAD DUP1 SWAP2 SUB SWAP1 REVERT JUMPDEST PUSH1 0x1 DUP1 SLOAD PUSH1 0x1 PUSH1 0x1 PUSH1 0xA0 SHL SUB SWAP5 DUP6 AND PUSH1 0x1 PUSH1 0x1 PUSH1 0xA0 SHL SUB NOT SWAP2 DUP3 AND OR SWAP1 SWAP2 SSTORE PUSH1 0x2 DUP1 SLOAD SWAP4 DUP6 AND SWAP4 DUP3 AND SWAP4 SWAP1 SWAP4 OR SWAP1 SWAP3 SSTORE PUSH1 0x3 DUP1 SLOAD SWAP2 SWAP1 SWAP4 AND SWAP2 AND OR SWAP1 SSTORE JUMP JUMPDEST PUSH1 0x10 SLOAD PUSH1 0x40 MLOAD PUSH4 0x70A08231 PUSH1 0xE0 SHL DUP2 MSTORE ADDRESS PUSH1 0x4 DUP3 ADD MSTORE PUSH1 0x0 SWAP2 PUSH1 0x1 PUSH1 0x1 PUSH1 0xA0 SHL SUB AND SWAP1 PUSH4 0x70A08231 SWAP1 PUSH1 0x24 ADD PUSH1 0x20 PUSH1 0x40 MLOAD DUP1 DUP4 SUB DUP2 DUP7 DUP1 EXTCODESIZE ISZERO DUP1 ISZERO PUSH2 0x604 JUMPI PUSH1 0x0 DUP1 REVERT JUMPDEST POP GAS STATICCALL ISZERO DUP1 ISZERO PUSH2 0x618 JUMPI RETURNDATASIZE PUSH1 0x0 DUP1 RETURNDATACOPY RETURNDATASIZE PUSH1 0x0 REVERT JUMPDEST POP POP POP POP PUSH1 0x40 MLOAD RETURNDATASIZE PUSH1 0x1F NOT PUSH1 0x1F DUP3 ADD AND DUP3 ADD DUP1 PUSH1 0x40 MSTORE POP DUP2 ADD SWAP1 PUSH2 0x63C SWAP2 SWAP1 PUSH2 0x13CB JUMP JUMPDEST SWAP1 POP PUSH1 0x0 DUP2 GT PUSH2 0x69A JUMPI PUSH1 0x40 MLOAD PUSH3 0x461BCD PUSH1 0xE5 SHL DUP2 MSTORE PUSH1 0x20 PUSH1 0x4 DUP3 ADD MSTORE PUSH1 0x23 PUSH1 0x24 DUP3 ADD MSTORE PUSH32 0x626574206561726E696E6773206D757374206265206772656174657220746861 PUSH1 0x44 DUP3 ADD MSTORE PUSH3 0x6E203 PUSH1 0xEC SHL PUSH1 0x64 DUP3 ADD MSTORE PUSH1 0x84 ADD PUSH2 0x578 JUMP JUMPDEST PUSH1 0x0 PUSH1 0x64 PUSH1 0x7 SLOAD DUP4 PUSH2 0x6AC SWAP2 SWAP1 PUSH2 0x14B3 JUMP JUMPDEST PUSH2 0x6B6 SWAP2 SWAP1 PUSH2 0x1493 JUMP JUMPDEST SWAP1 POP PUSH1 0x0 DUP2 GT PUSH2 0x716 JUMPI PUSH1 0x40 MLOAD PUSH3 0x461BCD PUSH1 0xE5 SHL DUP2 MSTORE PUSH1 0x20 PUSH1 0x4 DUP3 ADD MSTORE PUSH1 0x25 PUSH1 0x24 DUP3 ADD MSTORE PUSH32 0x686F6C6465727327207368617265206D75737420626520677265617465722074 PUSH1 0x44 DUP3 ADD MSTORE PUSH5 0x68616E203 PUSH1 0xDC SHL PUSH1 0x64 DUP3 ADD MSTORE PUSH1 0x84 ADD PUSH2 0x578 JUMP JUMPDEST PUSH1 0x0 PUSH1 0x64 PUSH1 0x8 SLOAD DUP5 PUSH2 0x728 SWAP2 SWAP1 PUSH2 0x14B3 JUMP JUMPDEST PUSH2 0x732 SWAP2 SWAP1 PUSH2 0x1493 JUMP JUMPDEST SWAP1 POP PUSH1 0x0 DUP2 GT PUSH2 0x793 JUMPI PUSH1 0x40 MLOAD PUSH3 0x461BCD PUSH1 0xE5 SHL DUP2 MSTORE PUSH1 0x20 PUSH1 0x4 DUP3 ADD MSTORE PUSH1 0x26 PUSH1 0x24 DUP3 ADD MSTORE PUSH32 0x65636F73797374656D207368617265206D757374206265206772656174657220 PUSH1 0x44 DUP3 ADD MSTORE PUSH6 0x7468616E203 PUSH1 0xD4 SHL PUSH1 0x64 DUP3 ADD MSTORE PUSH1 0x84 ADD PUSH2 0x578 JUMP JUMPDEST PUSH1 0x10 SLOAD PUSH1 0x2 SLOAD PUSH1 0x40 MLOAD PUSH4 0xA9059CBB PUSH1 0xE0 SHL DUP2 MSTORE PUSH1 0x1 PUSH1 0x1 PUSH1 0xA0 SHL SUB SWAP2 DUP3 AND PUSH1 0x4 DUP3 ADD MSTORE PUSH1 0x24 DUP2 ADD DUP5 SWAP1 MSTORE SWAP2 AND SWAP1 PUSH4 0xA9059CBB SWAP1 PUSH1 0x44 ADD PUSH1 0x20 PUSH1 0x40 MLOAD DUP1 DUP4 SUB DUP2 PUSH1 0x0 DUP8 DUP1 EXTCODESIZE ISZERO DUP1 ISZERO PUSH2 0x7E3 JUMPI PUSH1 0x0 DUP1 REVERT JUMPDEST POP GAS CALL ISZERO DUP1 ISZERO PUSH2 0x7F7 JUMPI RETURNDATASIZE PUSH1 0x0 DUP1 RETURNDATACOPY RETURNDATASIZE PUSH1 0x0 REVERT JUMPDEST POP POP POP POP PUSH1 0x40 MLOAD RETURNDATASIZE PUSH1 0x1F NOT PUSH1 0x1F DUP3 ADD AND DUP3 ADD DUP1 PUSH1 0x40 MSTORE POP DUP2 ADD SWAP1 PUSH2 0x81B SWAP2 SWAP1 PUSH2 0x1393 JUMP JUMPDEST POP PUSH1 0x10 SLOAD PUSH1 0x1 SLOAD PUSH1 0x40 MLOAD PUSH4 0xA9059CBB PUSH1 0xE0 SHL DUP2 MSTORE PUSH1 0x1 PUSH1 0x1 PUSH1 0xA0 SHL SUB SWAP2 DUP3 AND PUSH1 0x4 DUP3 ADD MSTORE PUSH1 0x24 DUP2 ADD DUP6 SWAP1 MSTORE SWAP2 AND SWAP1 PUSH4 0xA9059CBB SWAP1 PUSH1 0x44 ADD PUSH1 0x20 PUSH1 0x40 MLOAD DUP1 DUP4 SUB DUP2 PUSH1 0x0 DUP8 DUP1 EXTCODESIZE ISZERO DUP1 ISZERO PUSH2 0x86C JUMPI PUSH1 0x0 DUP1 REVERT JUMPDEST POP GAS CALL ISZERO DUP1 ISZERO PUSH2 0x880 JUMPI RETURNDATASIZE PUSH1 0x0 DUP1 RETURNDATACOPY RETURNDATASIZE PUSH1 0x0 REVERT JUMPDEST POP POP POP POP PUSH1 0x40 MLOAD RETURNDATASIZE PUSH1 0x1F NOT PUSH1 0x1F DUP3 ADD AND DUP3 ADD DUP1 PUSH1 0x40 MSTORE POP DUP2 ADD SWAP1 PUSH2 0x8A4 SWAP2 SWAP1 PUSH2 0x1393 JUMP JUMPDEST POP POP POP POP JUMP JUMPDEST PUSH1 0x1 PUSH1 0x1 PUSH1 0xA0 SHL SUB DUP2 DUP2 AND PUSH1 0x0 SWAP1 DUP2 MSTORE PUSH1 0xD PUSH1 0x20 MSTORE PUSH1 0x40 DUP2 KECCAK256 SLOAD SWAP1 SWAP2 AND ISZERO PUSH2 0x531 JUMPI PUSH1 0x0 DUP1 JUMPDEST PUSH1 0xA SLOAD DUP2 LT ISZERO PUSH2 0x52A JUMPI DUP4 PUSH1 0x1 PUSH1 0x1 PUSH1 0xA0 SHL SUB AND PUSH1 0xA DUP3 DUP2 SLOAD DUP2 LT PUSH2 0x905 JUMPI PUSH4 0x4E487B71 PUSH1 0xE0 SHL PUSH1 0x0 MSTORE PUSH1 0x32 PUSH1 0x4 MSTORE PUSH1 0x24 PUSH1 0x0 REVERT JUMPDEST PUSH1 0x0 SWAP2 DUP3 MSTORE PUSH1 0x20 SWAP1 SWAP2 KECCAK256 ADD SLOAD PUSH1 0x1 PUSH1 0x1 PUSH1 0xA0 SHL SUB AND EQ ISZERO PUSH2 0x929 JUMPI PUSH1 0x1 SWAP2 POP PUSH2 0x52A JUMP JUMPDEST DUP1 PUSH2 0x933 DUP2 PUSH2 0x14D2 JUMP JUMPDEST SWAP2 POP POP PUSH2 0x8D0 JUMP JUMPDEST PUSH2 0x944 CALLER PUSH2 0x8AA JUMP JUMPDEST DUP1 PUSH2 0x959 JUMPI POP PUSH1 0x0 SLOAD PUSH1 0x1 PUSH1 0x1 PUSH1 0xA0 SHL SUB AND CALLER EQ JUMPDEST PUSH2 0x975 JUMPI PUSH1 0x40 MLOAD PUSH3 0x461BCD PUSH1 0xE5 SHL DUP2 MSTORE PUSH1 0x4 ADD PUSH2 0x578 SWAP1 PUSH2 0x1404 JUMP JUMPDEST PUSH1 0x64 DUP3 GT ISZERO DUP1 ISZERO PUSH2 0x987 JUMPI POP PUSH1 0x64 DUP2 GT ISZERO JUMPDEST PUSH2 0xA0C JUMPI PUSH1 0x40 MLOAD PUSH3 0x461BCD PUSH1 0xE5 SHL DUP2 MSTORE PUSH1 0x20 PUSH1 0x4 DUP3 ADD MSTORE PUSH1 0x4A PUSH1 0x24 DUP3 ADD MSTORE PUSH32 0x5669672070657263656E746167657320736861726573206D7573742062652065 PUSH1 0x44 DUP3 ADD MSTORE PUSH32 0x787072657373656420696E206120203020746F2031303020726174696F2E2045 PUSH1 0x64 DUP3 ADD MSTORE PUSH10 0x78616D706C653A20333 PUSH1 0xB4 SHL PUSH1 0x84 DUP3 ADD MSTORE PUSH1 0xA4 ADD PUSH2 0x578 JUMP JUMPDEST PUSH2 0xA16 DUP2 DUP4 PUSH2 0x147B JUMP JUMPDEST PUSH1 0x64 EQ PUSH2 0xA8B JUMPI PUSH1 0x40 MLOAD PUSH3 0x461BCD PUSH1 0xE5 SHL DUP2 MSTORE PUSH1 0x20 PUSH1 0x4 DUP3 ADD MSTORE PUSH1 0x39 PUSH1 0x24 DUP3 ADD MSTORE PUSH32 0x5468652073756D206F6620616C6C205669672070657263656E74616765207368 PUSH1 0x44 DUP3 ADD MSTORE PUSH32 0x61726573206D75737420626520657175616C20746F2031303000000000000000 PUSH1 0x64 DUP3 ADD MSTORE PUSH1 0x84 ADD PUSH2 0x578 JUMP JUMPDEST PUSH1 0x7 SWAP2 SWAP1 SWAP2 SSTORE PUSH1 0x8 SSTORE JUMP JUMPDEST PUSH2 0xA9F CALLER PUSH2 0x8AA JUMP JUMPDEST DUP1 PUSH2 0xAB4 JUMPI POP PUSH1 0x0 SLOAD PUSH1 0x1 PUSH1 0x1 PUSH1 0xA0 SHL SUB AND CALLER EQ JUMPDEST PUSH2 0xAD0 JUMPI PUSH1 0x40 MLOAD PUSH3 0x461BCD PUSH1 0xE5 SHL DUP2 MSTORE PUSH1 0x4 ADD PUSH2 0x578 SWAP1 PUSH2 0x1404 JUMP JUMPDEST PUSH1 0x1 PUSH1 0x1 PUSH1 0xA0 SHL SUB DUP2 DUP2 AND PUSH1 0x0 SWAP1 DUP2 MSTORE PUSH1 0xF PUSH1 0x20 MSTORE PUSH1 0x40 SWAP1 KECCAK256 SLOAD AND PUSH2 0xB07 JUMPI PUSH1 0x40 MLOAD PUSH3 0x461BCD PUSH1 0xE5 SHL DUP2 MSTORE PUSH1 0x4 ADD PUSH2 0x578 SWAP1 PUSH2 0x144E JUMP JUMPDEST PUSH1 0x1 PUSH1 0x1 PUSH1 0xA0 SHL SUB DUP2 AND PUSH1 0x0 SWAP1 DUP2 MSTORE PUSH1 0xF PUSH1 0x20 MSTORE PUSH1 0x40 DUP2 KECCAK256 DUP1 SLOAD PUSH1 0x1 PUSH1 0x1 PUSH1 0xA0 SHL SUB NOT AND SWAP1 SSTORE JUMPDEST PUSH1 0xC SLOAD DUP2 LT ISZERO PUSH2 0xBCE JUMPI DUP2 PUSH1 0x1 PUSH1 0x1 PUSH1 0xA0 SHL SUB AND PUSH1 0xC DUP3 DUP2 SLOAD DUP2 LT PUSH2 0xB63 JUMPI PUSH4 0x4E487B71 PUSH1 0xE0 SHL PUSH1 0x0 MSTORE PUSH1 0x32 PUSH1 0x4 MSTORE PUSH1 0x24 PUSH1 0x0 REVERT JUMPDEST PUSH1 0x0 SWAP2 DUP3 MSTORE PUSH1 0x20 SWAP1 SWAP2 KECCAK256 ADD SLOAD PUSH1 0x1 PUSH1 0x1 PUSH1 0xA0 SHL SUB AND EQ ISZERO PUSH2 0xBBC JUMPI PUSH1 0xC DUP2 DUP2 SLOAD DUP2 LT PUSH2 0xB9F JUMPI PUSH4 0x4E487B71 PUSH1 0xE0 SHL PUSH1 0x0 MSTORE PUSH1 0x32 PUSH1 0x4 MSTORE PUSH1 0x24 PUSH1 0x0 REVERT JUMPDEST PUSH1 0x0 SWAP2 DUP3 MSTORE PUSH1 0x20 SWAP1 SWAP2 KECCAK256 ADD DUP1 SLOAD PUSH1 0x1 PUSH1 0x1 PUSH1 0xA0 SHL SUB NOT AND SWAP1 SSTORE POP POP JUMP JUMPDEST DUP1 PUSH2 0xBC6 DUP2 PUSH2 0x14D2 JUMP JUMPDEST SWAP2 POP POP PUSH2 0xB2E JUMP JUMPDEST POP POP JUMP JUMPDEST PUSH1 0xC DUP2 DUP2 SLOAD DUP2 LT PUSH2 0x47F JUMPI PUSH1 0x0 DUP1 REVERT JUMPDEST PUSH2 0xBEB CALLER PUSH2 0x8AA JUMP JUMPDEST DUP1 PUSH2 0xC00 JUMPI POP PUSH1 0x0 SLOAD PUSH1 0x1 PUSH1 0x1 PUSH1 0xA0 SHL SUB AND CALLER EQ JUMPDEST PUSH2 0xC1C JUMPI PUSH1 0x40 MLOAD PUSH3 0x461BCD PUSH1 0xE5 SHL DUP2 MSTORE PUSH1 0x4 ADD PUSH2 0x578 SWAP1 PUSH2 0x1404 JUMP JUMPDEST PUSH1 0x1 PUSH1 0x1 PUSH1 0xA0 SHL SUB DUP1 DUP3 AND PUSH1 0x0 SWAP1 DUP2 MSTORE PUSH1 0xF PUSH1 0x20 MSTORE PUSH1 0x40 SWAP1 KECCAK256 SLOAD DUP3 SWAP2 AND ISZERO PUSH2 0xC7D JUMPI PUSH1 0x40 MLOAD PUSH3 0x461BCD PUSH1 0xE5 SHL DUP2 MSTORE PUSH1 0x20 PUSH1 0x4 DUP3 ADD MSTORE PUSH1 0x14 PUSH1 0x24 DUP3 ADD MSTORE PUSH20 0x185B1C9958591E481A5B88189B1858DADB1A5CDD PUSH1 0x62 SHL PUSH1 0x44 DUP3 ADD MSTORE PUSH1 0x64 ADD PUSH2 0x578 JUMP JUMPDEST POP PUSH1 0xB DUP1 SLOAD PUSH1 0x1 DUP2 ADD SWAP1 SWAP2 SSTORE PUSH32 0x175B7A638427703F0DBE7BB9BBF987A2551717B34E79F33B5B1008D1FA01DB9 ADD DUP1 SLOAD PUSH1 0x1 PUSH1 0x1 PUSH1 0xA0 SHL SUB SWAP1 SWAP3 AND PUSH1 0x1 PUSH1 0x1 PUSH1 0xA0 SHL SUB NOT SWAP3 DUP4 AND DUP2 OR SWAP1 SWAP2 SSTORE PUSH1 0x0 DUP2 DUP2 MSTORE PUSH1 0xE PUSH1 0x20 MSTORE PUSH1 0x40 SWAP1 KECCAK256 DUP1 SLOAD SWAP1 SWAP3 AND OR SWAP1 SSTORE JUMP JUMPDEST PUSH2 0xCEA CALLER PUSH2 0x8AA JUMP JUMPDEST DUP1 PUSH2 0xCFF JUMPI POP PUSH1 0x0 SLOAD PUSH1 0x1 PUSH1 0x1 PUSH1 0xA0 SHL SUB AND CALLER EQ JUMPDEST PUSH2 0xD1B JUMPI PUSH1 0x40 MLOAD PUSH3 0x461BCD PUSH1 0xE5 SHL DUP2 MSTORE PUSH1 0x4 ADD PUSH2 0x578 SWAP1 PUSH2 0x1404 JUMP JUMPDEST PUSH1 0x4 DUP1 SLOAD PUSH1 0x1 PUSH1 0x1 PUSH1 0xA0 SHL SUB SWAP5 DUP6 AND PUSH1 0x1 PUSH1 0x1 PUSH1 0xA0 SHL SUB NOT SWAP2 DUP3 AND OR SWAP1 SWAP2 SSTORE PUSH1 0x5 DUP1 SLOAD SWAP4 DUP6 AND SWAP4 DUP3 AND SWAP4 SWAP1 SWAP4 OR SWAP1 SWAP3 SSTORE PUSH1 0x6 DUP1 SLOAD SWAP2 SWAP1 SWAP4 AND SWAP2 AND OR SWAP1 SSTORE JUMP JUMPDEST PUSH1 0x1 PUSH1 0x1 PUSH1 0xA0 SHL SUB DUP2 DUP2 AND PUSH1 0x0 SWAP1 DUP2 MSTORE PUSH1 0xE PUSH1 0x20 MSTORE PUSH1 0x40 DUP2 KECCAK256 SLOAD SWAP1 SWAP2 AND ISZERO PUSH2 0x531 JUMPI PUSH1 0x0 DUP1 JUMPDEST PUSH1 0xB SLOAD DUP2 LT ISZERO PUSH2 0x52A JUMPI DUP4 PUSH1 0x1 PUSH1 0x1 PUSH1 0xA0 SHL SUB AND PUSH1 0xB DUP3 DUP2 SLOAD DUP2 LT PUSH2 0xDB5 JUMPI PUSH4 0x4E487B71 PUSH1 0xE0 SHL PUSH1 0x0 MSTORE PUSH1 0x32 PUSH1 0x4 MSTORE PUSH1 0x24 PUSH1 0x0 REVERT JUMPDEST PUSH1 0x0 SWAP2 DUP3 MSTORE PUSH1 0x20 SWAP1 SWAP2 KECCAK256 ADD SLOAD PUSH1 0x1 PUSH1 0x1 PUSH1 0xA0 SHL SUB AND EQ ISZERO PUSH2 0xDD9 JUMPI PUSH1 0x1 SWAP2 POP PUSH2 0x52A JUMP JUMPDEST DUP1 PUSH2 0xDE3 DUP2 PUSH2 0x14D2 JUMP JUMPDEST SWAP2 POP POP PUSH2 0xD80 JUMP JUMPDEST PUSH1 0xB DUP2 DUP2 SLOAD DUP2 LT PUSH2 0x47F JUMPI PUSH1 0x0 DUP1 REVERT JUMPDEST PUSH1 0x0 SLOAD PUSH1 0x1 PUSH1 0x1 PUSH1 0xA0 SHL SUB AND CALLER EQ PUSH2 0xE25 JUMPI PUSH1 0x40 MLOAD PUSH3 0x461BCD PUSH1 0xE5 SHL DUP2 MSTORE PUSH1 0x4 ADD PUSH2 0x578 SWAP1 PUSH2 0x1404 JUMP JUMPDEST PUSH1 0x1 PUSH1 0x1 PUSH1 0xA0 SHL SUB DUP2 DUP2 AND PUSH1 0x0 SWAP1 DUP2 MSTORE PUSH1 0xD PUSH1 0x20 MSTORE PUSH1 0x40 SWAP1 KECCAK256 SLOAD AND PUSH2 0xE5C JUMPI PUSH1 0x40 MLOAD PUSH3 0x461BCD PUSH1 0xE5 SHL DUP2 MSTORE PUSH1 0x4 ADD PUSH2 0x578 SWAP1 PUSH2 0x144E JUMP JUMPDEST PUSH1 0x1 PUSH1 0x1 PUSH1 0xA0 SHL SUB DUP2 AND PUSH1 0x0 SWAP1 DUP2 MSTORE PUSH1 0xD PUSH1 0x20 MSTORE PUSH1 0x40 DUP2 KECCAK256 DUP1 SLOAD PUSH1 0x1 PUSH1 0x1 PUSH1 0xA0 SHL SUB NOT AND SWAP1 SSTORE JUMPDEST PUSH1 0xA SLOAD DUP2 LT ISZERO PUSH2 0xBCE JUMPI DUP2 PUSH1 0x1 PUSH1 0x1 PUSH1 0xA0 SHL SUB AND PUSH1 0xA DUP3 DUP2 SLOAD DUP2 LT PUSH2 0xEB8 JUMPI PUSH4 0x4E487B71 PUSH1 0xE0 SHL PUSH1 0x0 MSTORE PUSH1 0x32 PUSH1 0x4 MSTORE PUSH1 0x24 PUSH1 0x0 REVERT JUMPDEST PUSH1 0x0 SWAP2 DUP3 MSTORE PUSH1 0x20 SWAP1 SWAP2 KECCAK256 ADD SLOAD PUSH1 0x1 PUSH1 0x1 PUSH1 0xA0 SHL SUB AND EQ ISZERO PUSH2 0xEF4 JUMPI PUSH1 0xA DUP2 DUP2 SLOAD DUP2 LT PUSH2 0xB9F JUMPI PUSH4 0x4E487B71 PUSH1 0xE0 SHL PUSH1 0x0 MSTORE PUSH1 0x32 PUSH1 0x4 MSTORE PUSH1 0x24 PUSH1 0x0 REVERT JUMPDEST DUP1 PUSH2 0xEFE DUP2 PUSH2 0x14D2 JUMP JUMPDEST SWAP2 POP POP PUSH2 0xE83 JUMP JUMPDEST PUSH2 0xF0F CALLER PUSH2 0x8AA JUMP JUMPDEST DUP1 PUSH2 0xF24 JUMPI POP PUSH1 0x0 SLOAD PUSH1 0x1 PUSH1 0x1 PUSH1 0xA0 SHL SUB AND CALLER EQ JUMPDEST PUSH2 0xF40 JUMPI PUSH1 0x40 MLOAD PUSH3 0x461BCD PUSH1 0xE5 SHL DUP2 MSTORE PUSH1 0x4 ADD PUSH2 0x578 SWAP1 PUSH2 0x1404 JUMP JUMPDEST PUSH1 0xA DUP2 LT PUSH2 0xFC1 JUMPI PUSH1 0x40 MLOAD PUSH3 0x461BCD PUSH1 0xE5 SHL DUP2 MSTORE PUSH1 0x20 PUSH1 0x4 DUP3 ADD MSTORE PUSH1 0x42 PUSH1 0x24 DUP3 ADD MSTORE PUSH32 0x5669672070657263656E74616765206D75737420626520657870726573736564 PUSH1 0x44 DUP3 ADD MSTORE PUSH32 0x20696E203020746F2031302070657263656E746167652E204578616D706C653A PUSH1 0x64 DUP3 ADD MSTORE PUSH2 0x101B PUSH1 0xF1 SHL PUSH1 0x84 DUP3 ADD MSTORE PUSH1 0xA4 ADD PUSH2 0x578 JUMP JUMPDEST PUSH1 0x9 SSTORE JUMP JUMPDEST PUSH2 0xFCF CALLER PUSH2 0x8AA JUMP JUMPDEST DUP1 PUSH2 0xFE4 JUMPI POP PUSH1 0x0 SLOAD PUSH1 0x1 PUSH1 0x1 PUSH1 0xA0 SHL SUB AND CALLER EQ JUMPDEST PUSH2 0x1000 JUMPI PUSH1 0x40 MLOAD PUSH3 0x461BCD PUSH1 0xE5 SHL DUP2 MSTORE PUSH1 0x4 ADD PUSH2 0x578 SWAP1 PUSH2 0x1404 JUMP JUMPDEST PUSH1 0x1 PUSH1 0x1 PUSH1 0xA0 SHL SUB DUP1 DUP3 AND PUSH1 0x0 SWAP1 DUP2 MSTORE PUSH1 0xE PUSH1 0x20 MSTORE PUSH1 0x40 SWAP1 KECCAK256 SLOAD DUP3 SWAP2 AND ISZERO PUSH2 0x1063 JUMPI PUSH1 0x40 MLOAD PUSH3 0x461BCD PUSH1 0xE5 SHL DUP2 MSTORE PUSH1 0x20 PUSH1 0x4 DUP3 ADD MSTORE PUSH1 0x16 PUSH1 0x24 DUP3 ADD MSTORE PUSH22 0x30B63932B0B23C9030B71032BB32B73A1030B236B4B7 PUSH1 0x51 SHL PUSH1 0x44 DUP3 ADD MSTORE PUSH1 0x64 ADD PUSH2 0x578 JUMP JUMPDEST PUSH1 0x1 SLOAD PUSH1 0x1 PUSH1 0x1 PUSH1 0xA0 SHL SUB AND ISZERO DUP1 PUSH2 0x1084 JUMPI POP PUSH1 0x2 SLOAD PUSH1 0x1 PUSH1 0x1 PUSH1 0xA0 SHL SUB AND ISZERO JUMPDEST PUSH2 0xC7D JUMPI PUSH1 0x40 MLOAD PUSH3 0x461BCD PUSH1 0xE5 SHL DUP2 MSTORE PUSH1 0x20 PUSH1 0x4 DUP3 ADD MSTORE PUSH1 0x4E PUSH1 0x24 DUP3 ADD MSTORE PUSH32 0x796F75206D7573742073657420686F6C6465727320616E642065636F73797374 PUSH1 0x44 DUP3 ADD MSTORE PUSH32 0x6D654164647265737320616464726573736573206265666F726520616464696E PUSH1 0x64 DUP3 ADD MSTORE PUSH14 0x67206576656E74206F776E657273 PUSH1 0x90 SHL PUSH1 0x84 DUP3 ADD MSTORE PUSH1 0xA4 ADD PUSH2 0x578 JUMP JUMPDEST PUSH1 0x0 SLOAD PUSH1 0x1 PUSH1 0x1 PUSH1 0xA0 SHL SUB AND CALLER EQ PUSH2 0x1137 JUMPI PUSH1 0x40 MLOAD PUSH3 0x461BCD PUSH1 0xE5 SHL DUP2 MSTORE PUSH1 0x4 ADD PUSH2 0x578 SWAP1 PUSH2 0x1404 JUMP JUMPDEST PUSH1 0x1 PUSH1 0x1 PUSH1 0xA0 SHL SUB DUP1 DUP3 AND PUSH1 0x0 SWAP1 DUP2 MSTORE PUSH1 0xD PUSH1 0x20 MSTORE PUSH1 0x40 SWAP1 KECCAK256 SLOAD DUP3 SWAP2 AND ISZERO PUSH2 0x119A JUMPI PUSH1 0x40 MLOAD PUSH3 0x461BCD PUSH1 0xE5 SHL DUP2 MSTORE PUSH1 0x20 PUSH1 0x4 DUP3 ADD MSTORE PUSH1 0x16 PUSH1 0x24 DUP3 ADD MSTORE PUSH22 0x30B63932B0B23C90309039BCB9BA32B69030B236B4B7 PUSH1 0x51 SHL PUSH1 0x44 DUP3 ADD MSTORE PUSH1 0x64 ADD PUSH2 0x578 JUMP JUMPDEST POP PUSH1 0xA DUP1 SLOAD PUSH1 0x1 DUP2 ADD SWAP1 SWAP2 SSTORE PUSH32 0xC65A7BB8D6351C1CF70C95A316CC6A92839C986682D98BC35F958F4883F9D2A8 ADD DUP1 SLOAD PUSH1 0x1 PUSH1 0x1 PUSH1 0xA0 SHL SUB SWAP1 SWAP3 AND PUSH1 0x1 PUSH1 0x1 PUSH1 0xA0 SHL SUB NOT SWAP3 DUP4 AND DUP2 OR SWAP1 SWAP2 SSTORE PUSH1 0x0 DUP2 DUP2 MSTORE PUSH1 0xD PUSH1 0x20 MSTORE PUSH1 0x40 SWAP1 KECCAK256 DUP1 SLOAD SWAP1 SWAP3 AND OR SWAP1 SSTORE JUMP JUMPDEST PUSH2 0x1207 CALLER PUSH2 0x8AA JUMP JUMPDEST DUP1 PUSH2 0x121C JUMPI POP PUSH1 0x0 SLOAD PUSH1 0x1 PUSH1 0x1 PUSH1 0xA0 SHL SUB AND CALLER EQ JUMPDEST PUSH2 0x1238 JUMPI PUSH1 0x40 MLOAD PUSH3 0x461BCD PUSH1 0xE5 SHL DUP2 MSTORE PUSH1 0x4 ADD PUSH2 0x578 SWAP1 PUSH2 0x1404 JUMP JUMPDEST PUSH1 0x1 PUSH1 0x1 PUSH1 0xA0 SHL SUB DUP2 DUP2 AND PUSH1 0x0 SWAP1 DUP2 MSTORE PUSH1 0xE PUSH1 0x20 MSTORE PUSH1 0x40 SWAP1 KECCAK256 SLOAD AND PUSH2 0x126F JUMPI PUSH1 0x40 MLOAD PUSH3 0x461BCD PUSH1 0xE5 SHL DUP2 MSTORE PUSH1 0x4 ADD PUSH2 0x578 SWAP1 PUSH2 0x144E JUMP JUMPDEST PUSH1 0x1 PUSH1 0x1 PUSH1 0xA0 SHL SUB DUP2 AND PUSH1 0x0 SWAP1 DUP2 MSTORE PUSH1 0xE PUSH1 0x20 MSTORE PUSH1 0x40 DUP2 KECCAK256 DUP1 SLOAD PUSH1 0x1 PUSH1 0x1 PUSH1 0xA0 SHL SUB NOT AND SWAP1 SSTORE JUMPDEST PUSH1 0xB SLOAD DUP2 LT ISZERO PUSH2 0xBCE JUMPI DUP2 PUSH1 0x1 PUSH1 0x1 PUSH1 0xA0 SHL SUB AND PUSH1 0xB DUP3 DUP2 SLOAD DUP2 LT PUSH2 0x12CB JUMPI PUSH4 0x4E487B71 PUSH1 0xE0 SHL PUSH1 0x0 MSTORE PUSH1 0x32 PUSH1 0x4 MSTORE PUSH1 0x24 PUSH1 0x0 REVERT JUMPDEST PUSH1 0x0 SWAP2 DUP3 MSTORE PUSH1 0x20 SWAP1 SWAP2 KECCAK256 ADD SLOAD PUSH1 0x1 PUSH1 0x1 PUSH1 0xA0 SHL SUB AND EQ ISZERO PUSH2 0x1307 JUMPI PUSH1 0xB DUP2 DUP2 SLOAD DUP2 LT PUSH2 0xB9F JUMPI PUSH4 0x4E487B71 PUSH1 0xE0 SHL PUSH1 0x0 MSTORE PUSH1 0x32 PUSH1 0x4 MSTORE PUSH1 0x24 PUSH1 0x0 REVERT JUMPDEST DUP1 PUSH2 0x1311 DUP2 PUSH2 0x14D2 JUMP JUMPDEST SWAP2 POP POP PUSH2 0x1296 JUMP JUMPDEST DUP1 CALLDATALOAD PUSH1 0x1 PUSH1 0x1 PUSH1 0xA0 SHL SUB DUP2 AND DUP2 EQ PUSH2 0x539 JUMPI PUSH1 0x0 DUP1 REVERT JUMPDEST PUSH1 0x0 PUSH1 0x20 DUP3 DUP5 SUB SLT ISZERO PUSH2 0x1341 JUMPI DUP1 DUP2 REVERT JUMPDEST PUSH2 0x134A DUP3 PUSH2 0x1319 JUMP JUMPDEST SWAP4 SWAP3 POP POP POP JUMP JUMPDEST PUSH1 0x0 DUP1 PUSH1 0x0 PUSH1 0x60 DUP5 DUP7 SUB SLT ISZERO PUSH2 0x1365 JUMPI DUP2 DUP3 REVERT JUMPDEST PUSH2 0x136E DUP5 PUSH2 0x1319 JUMP JUMPDEST SWAP3 POP PUSH2 0x137C PUSH1 0x20 DUP6 ADD PUSH2 0x1319 JUMP JUMPDEST SWAP2 POP PUSH2 0x138A PUSH1 0x40 DUP6 ADD PUSH2 0x1319 JUMP JUMPDEST SWAP1 POP SWAP3 POP SWAP3 POP SWAP3 JUMP JUMPDEST PUSH1 0x0 PUSH1 0x20 DUP3 DUP5 SUB SLT ISZERO PUSH2 0x13A4 JUMPI DUP1 DUP2 REVERT JUMPDEST DUP2 MLOAD DUP1 ISZERO ISZERO DUP2 EQ PUSH2 0x134A JUMPI DUP2 DUP3 REVERT JUMPDEST PUSH1 0x0 PUSH1 0x20 DUP3 DUP5 SUB SLT ISZERO PUSH2 0x13C4 JUMPI DUP1 DUP2 REVERT JUMPDEST POP CALLDATALOAD SWAP2 SWAP1 POP JUMP JUMPDEST PUSH1 0x0 PUSH1 0x20 DUP3 DUP5 SUB SLT ISZERO PUSH2 0x13DC JUMPI DUP1 DUP2 REVERT JUMPDEST POP MLOAD SWAP2 SWAP1 POP JUMP JUMPDEST PUSH1 0x0 DUP1 PUSH1 0x40 DUP4 DUP6 SUB SLT ISZERO PUSH2 0x13F5 JUMPI DUP2 DUP3 REVERT JUMPDEST POP POP DUP1 CALLDATALOAD SWAP3 PUSH1 0x20 SWAP1 SWAP2 ADD CALLDATALOAD SWAP2 POP JUMP JUMPDEST PUSH1 0x20 DUP1 DUP3 MSTORE PUSH1 0x2A SWAP1 DUP3 ADD MSTORE PUSH32 0x596F752068617665206E6F2070726976696C65676520746F2072756E20746869 PUSH1 0x40 DUP3 ADD MSTORE PUSH10 0x3990333AB731BA34B7B7 PUSH1 0xB1 SHL PUSH1 0x60 DUP3 ADD MSTORE PUSH1 0x80 ADD SWAP1 JUMP JUMPDEST PUSH1 0x20 DUP1 DUP3 MSTORE PUSH1 0x13 SWAP1 DUP3 ADD MSTORE PUSH19 0x24B73B30B634B21032BB32B73A1037BBB732B9 PUSH1 0x69 SHL PUSH1 0x40 DUP3 ADD MSTORE PUSH1 0x60 ADD SWAP1 JUMP JUMPDEST PUSH1 0x0 DUP3 NOT DUP3 GT ISZERO PUSH2 0x148E JUMPI PUSH2 0x148E PUSH2 0x14ED JUMP JUMPDEST POP ADD SWAP1 JUMP JUMPDEST PUSH1 0x0 DUP3 PUSH2 0x14AE JUMPI PUSH4 0x4E487B71 PUSH1 0xE0 SHL DUP2 MSTORE PUSH1 0x12 PUSH1 0x4 MSTORE PUSH1 0x24 DUP2 REVERT JUMPDEST POP DIV SWAP1 JUMP JUMPDEST PUSH1 0x0 DUP2 PUSH1 0x0 NOT DIV DUP4 GT DUP3 ISZERO ISZERO AND ISZERO PUSH2 0x14CD JUMPI PUSH2 0x14CD PUSH2 0x14ED JUMP JUMPDEST POP MUL SWAP1 JUMP JUMPDEST PUSH1 0x0 PUSH1 0x0 NOT DUP3 EQ ISZERO PUSH2 0x14E6 JUMPI PUSH2 0x14E6 PUSH2 0x14ED JUMP JUMPDEST POP PUSH1 0x1 ADD SWAP1 JUMP JUMPDEST PUSH4 0x4E487B71 PUSH1 0xE0 SHL PUSH1 0x0 MSTORE PUSH1 0x11 PUSH1 0x4 MSTORE PUSH1 0x24 PUSH1 0x0 REVERT INVALID LOG2 PUSH5 0x6970667358 0x22 SLT KECCAK256 DUP15 0xBD LOG3 0xD2 PUSH22 0x165AC436E2302484AA33266DA1FED0F2F1CF8229007E DUP8 INVALID PUSH27 0xE92664736F6C634300080400330000000000000000000000000000 "
				},
				"gasEstimates": {
					"creation": {
						"codeDepositCost": "1086600",
						"executionCost": "103652",
						"totalCost": "1190252"
					},
					"external": {
						"addBlacked(address)": "infinite",
						"addEventAdmin(address)": "infinite",
						"addSystemAdmin(address)": "64731",
						"admins(address)": "1315",
						"betFactory()": "1094",
						"blackList(uint256)": "2049",
						"blacked(address)": "1315",
						"contractOwner()": "1093",
						"deleteEventAdmin(address)": "infinite",
						"deleteSystemAdmin(address)": "infinite",
						"ecosystemAddress()": "1095",
						"ecosystemVig()": "1040",
						"eventAdmins(uint256)": "2092",
						"eventFactory()": "1137",
						"eventOwners(address)": "1337",
						"holdersAddress()": "1072",
						"holdersVig()": "1085",
						"isBlack(address)": "infinite",
						"isEventAdmin(address)": "infinite",
						"isSystemAdmin(address)": "infinite",
						"marketFactory()": "1117",
						"removeBlacked(address)": "infinite",
						"setAddresses(address,address,address)": "infinite",
						"setFactory(address,address,address)": "infinite",
						"setVigPercentage(uint256)": "infinite",
						"setVigPercentageShares(uint256,uint256)": "infinite",
						"shareBetEarnings()": "infinite",
						"stableCoin()": "1093",
						"systemAdmins(uint256)": "2050",
						"vigPercentage()": "1041"
					}
				},
				"methodIdentifiers": {
					"addBlacked(address)": "9b460aa9",
					"addEventAdmin(address)": "e3c0ed78",
					"addSystemAdmin(address)": "ed9f7eb9",
					"admins(address)": "429b62e5",
					"betFactory()": "2e1a9618",
					"blackList(uint256)": "709ec8b4",
					"blacked(address)": "80036b34",
					"contractOwner()": "ce606ee0",
					"deleteEventAdmin(address)": "f2210b2c",
					"deleteSystemAdmin(address)": "d5494869",
					"ecosystemAddress()": "06a5cb3a",
					"ecosystemVig()": "9376b94c",
					"eventAdmins(uint256)": "d37e87fd",
					"eventFactory()": "6fdbd3f6",
					"eventOwners(address)": "85d8349b",
					"holdersAddress()": "0da4ee50",
					"holdersVig()": "486d1e50",
					"isBlack(address)": "332daccf",
					"isEventAdmin(address)": "cb146622",
					"isSystemAdmin(address)": "4fb43199",
					"marketFactory()": "06ae7095",
					"removeBlacked(address)": "681ada8c",
					"setAddresses(address,address,address)": "363bf964",
					"setFactory(address,address,address)": "a94fabc5",
					"setVigPercentage(uint256)": "d6c1ca26",
					"setVigPercentageShares(uint256,uint256)": "64886880",
					"shareBetEarnings()": "4d161324",
					"stableCoin()": "992642e5",
					"systemAdmins(uint256)": "026c1a4d",
					"vigPercentage()": "387440e6"
				}
			},
			"storageLayout": {
				"storage": [
					{
						"astId": 86,
						"contract": "contracts/Web3BetsFO.sol:Web3BetsFO",
						"label": "contractOwner",
						"offset": 0,
						"slot": "0",
						"type": "t_address"
					},
					{
						"astId": 89,
						"contract": "contracts/Web3BetsFO.sol:Web3BetsFO",
						"label": "holdersAddress",
						"offset": 0,
						"slot": "1",
						"type": "t_address"
					},
					{
						"astId": 92,
						"contract": "contracts/Web3BetsFO.sol:Web3BetsFO",
						"label": "ecosystemAddress",
						"offset": 0,
						"slot": "2",
						"type": "t_address"
					},
					{
						"astId": 95,
						"contract": "contracts/Web3BetsFO.sol:Web3BetsFO",
						"label": "stableCoin",
						"offset": 0,
						"slot": "3",
						"type": "t_address"
					},
					{
						"astId": 98,
						"contract": "contracts/Web3BetsFO.sol:Web3BetsFO",
						"label": "eventFactory",
						"offset": 0,
						"slot": "4",
						"type": "t_address"
					},
					{
						"astId": 101,
						"contract": "contracts/Web3BetsFO.sol:Web3BetsFO",
						"label": "marketFactory",
						"offset": 0,
						"slot": "5",
						"type": "t_address"
					},
					{
						"astId": 104,
						"contract": "contracts/Web3BetsFO.sol:Web3BetsFO",
						"label": "betFactory",
						"offset": 0,
						"slot": "6",
						"type": "t_address"
					},
					{
						"astId": 108,
						"contract": "contracts/Web3BetsFO.sol:Web3BetsFO",
						"label": "holdersVig",
						"offset": 0,
						"slot": "7",
						"type": "t_uint256"
					},
					{
						"astId": 112,
						"contract": "contracts/Web3BetsFO.sol:Web3BetsFO",
						"label": "ecosystemVig",
						"offset": 0,
						"slot": "8",
						"type": "t_uint256"
					},
					{
						"astId": 116,
						"contract": "contracts/Web3BetsFO.sol:Web3BetsFO",
						"label": "vigPercentage",
						"offset": 0,
						"slot": "9",
						"type": "t_uint256"
					},
					{
						"astId": 119,
						"contract": "contracts/Web3BetsFO.sol:Web3BetsFO",
						"label": "systemAdmins",
						"offset": 0,
						"slot": "10",
						"type": "t_array(t_address)dyn_storage"
					},
					{
						"astId": 122,
						"contract": "contracts/Web3BetsFO.sol:Web3BetsFO",
						"label": "eventAdmins",
						"offset": 0,
						"slot": "11",
						"type": "t_array(t_address)dyn_storage"
					},
					{
						"astId": 125,
						"contract": "contracts/Web3BetsFO.sol:Web3BetsFO",
						"label": "blackList",
						"offset": 0,
						"slot": "12",
						"type": "t_array(t_address)dyn_storage"
					},
					{
						"astId": 129,
						"contract": "contracts/Web3BetsFO.sol:Web3BetsFO",
						"label": "admins",
						"offset": 0,
						"slot": "13",
						"type": "t_mapping(t_address,t_address)"
					},
					{
						"astId": 133,
						"contract": "contracts/Web3BetsFO.sol:Web3BetsFO",
						"label": "eventOwners",
						"offset": 0,
						"slot": "14",
						"type": "t_mapping(t_address,t_address)"
					},
					{
						"astId": 137,
						"contract": "contracts/Web3BetsFO.sol:Web3BetsFO",
						"label": "blacked",
						"offset": 0,
						"slot": "15",
						"type": "t_mapping(t_address,t_address)"
					},
					{
						"astId": 143,
						"contract": "contracts/Web3BetsFO.sol:Web3BetsFO",
						"label": "_stableCoinWrapper",
						"offset": 0,
						"slot": "16",
						"type": "t_contract(IERC20)77"
					}
				],
				"types": {
					"t_address": {
						"encoding": "inplace",
						"label": "address",
						"numberOfBytes": "20"
					},
					"t_array(t_address)dyn_storage": {
						"base": "t_address",
						"encoding": "dynamic_array",
						"label": "address[]",
						"numberOfBytes": "32"
					},
					"t_contract(IERC20)77": {
						"encoding": "inplace",
						"label": "contract IERC20",
						"numberOfBytes": "20"
					},
					"t_mapping(t_address,t_address)": {
						"encoding": "mapping",
						"key": "t_address",
						"label": "mapping(address => address)",
						"numberOfBytes": "32",
						"value": "t_address"
					},
					"t_uint256": {
						"encoding": "inplace",
						"label": "uint256",
						"numberOfBytes": "32"
					}
				}
			},
			"userdoc": {
				"kind": "user",
				"methods": {},
				"notice": "Contains Web3Bets ecosystem's variables and functions",
				"version": 1
			}
		}
	}
}